{
    "contractName": "Client",
    "abi": [
        {
            "anonymous": false,
            "inputs": [
                {
                    "indexed": false,
                    "name": "manager",
                    "type": "address"
                },
                {
                    "indexed": true,
                    "name": "submanager",
                    "type": "address"
                },
                {
                    "indexed": false,
                    "name": "role",
                    "type": "bytes32"
                },
                {
                    "indexed": false,
                    "name": "country",
                    "type": "bytes32"
                },
                {
                    "indexed": false,
                    "name": "managerId",
                    "type": "bytes32"
                }
            ],
            "name": "ManagerAdded",
            "type": "event"
        },
        {
            "anonymous": false,
            "inputs": [
                {
                    "indexed": false,
                    "name": "manager",
                    "type": "address"
                },
                {
                    "indexed": true,
                    "name": "submanager",
                    "type": "address"
                },
                {
                    "indexed": false,
                    "name": "role",
                    "type": "bytes32"
                },
                {
                    "indexed": false,
                    "name": "country",
                    "type": "bytes32"
                }
            ],
            "name": "ManagerRemoved",
            "type": "event"
        },
        {
            "constant": false,
            "inputs": [
                {
                    "name": "_kyc",
                    "type": "address"
                }
            ],
            "name": "initialize",
            "outputs": [],
            "payable": false,
            "stateMutability": "nonpayable",
            "type": "function"
        },
        {
            "constant": true,
            "inputs": [],
            "name": "getAMLManager",
            "outputs": [
                {
                    "name": "",
                    "type": "address"
                }
            ],
            "payable": false,
            "stateMutability": "view",
            "type": "function"
        },
        {
            "constant": false,
            "inputs": [
                {
                    "name": "_client",
                    "type": "address"
                },
                {
                    "name": "_account",
                    "type": "bytes32"
                }
            ],
            "name": "setCustody",
            "outputs": [],
            "payable": false,
            "stateMutability": "nonpayable",
            "type": "function"
        },
        {
            "constant": true,
            "inputs": [
                {
                    "name": "_client",
                    "type": "address"
                }
            ],
            "name": "getCustody",
            "outputs": [
                {
                    "name": "",
                    "type": "bytes32"
                }
            ],
            "payable": false,
            "stateMutability": "view",
            "type": "function"
        },
        {
            "constant": false,
            "inputs": [
                {
                    "name": "_messagingToken",
                    "type": "string"
                }
            ],
            "name": "setAccess",
            "outputs": [],
            "payable": false,
            "stateMutability": "nonpayable",
            "type": "function"
        },
        {
            "constant": true,
            "inputs": [
                {
                    "name": "_client",
                    "type": "address"
                }
            ],
            "name": "getAccess",
            "outputs": [
                {
                    "name": "",
                    "type": "string"
                }
            ],
            "payable": false,
            "stateMutability": "view",
            "type": "function"
        },
        {
            "constant": false,
            "inputs": [
                {
                    "name": "_client",
                    "type": "address"
                },
                {
                    "name": "_manager",
                    "type": "address"
                }
            ],
            "name": "setManager",
            "outputs": [],
            "payable": false,
            "stateMutability": "nonpayable",
            "type": "function"
        },
        {
            "constant": true,
            "inputs": [
                {
                    "name": "_client",
                    "type": "address"
                }
            ],
            "name": "getManager",
            "outputs": [
                {
                    "name": "",
                    "type": "address"
                }
            ],
            "payable": false,
            "stateMutability": "view",
            "type": "function"
        },
        {
            "constant": true,
            "inputs": [
                {
                    "name": "_client",
                    "type": "address"
                }
            ],
            "name": "isRegistered",
            "outputs": [
                {
                    "name": "",
                    "type": "bool"
                }
            ],
            "payable": false,
            "stateMutability": "view",
            "type": "function"
        },
        {
            "constant": false,
            "inputs": [
                {
                    "name": "_client",
                    "type": "address"
                },
                {
                    "name": "status",
                    "type": "bool"
                }
            ],
            "name": "setAMLStatus",
            "outputs": [],
            "payable": false,
            "stateMutability": "nonpayable",
            "type": "function"
        },
        {
            "constant": true,
            "inputs": [
                {
                    "name": "_client",
                    "type": "address"
                }
            ],
            "name": "getAMLStatus",
            "outputs": [
                {
                    "name": "",
                    "type": "bool"
                }
            ],
            "payable": false,
            "stateMutability": "view",
            "type": "function"
        },
        {
            "constant": true,
            "inputs": [
                {
                    "name": "_manager",
                    "type": "address"
                }
            ],
            "name": "getClients",
            "outputs": [
                {
                    "name": "",
                    "type": "address[]"
                }
            ],
            "payable": false,
            "stateMutability": "view",
            "type": "function"
        },
        {
            "constant": false,
            "inputs": [
                {
                    "name": "_submanager",
                    "type": "address"
                },
                {
                    "name": "_country",
                    "type": "bytes32"
                },
                {
                    "name": "_role",
                    "type": "bytes32"
                },
                {
                    "name": "_id",
                    "type": "bytes32"
                }
            ],
            "name": "addRole",
            "outputs": [],
            "payable": false,
            "stateMutability": "nonpayable",
            "type": "function"
        },
        {
            "constant": true,
            "inputs": [
                {
                    "name": "_user",
                    "type": "address"
                }
            ],
            "name": "getRole",
            "outputs": [
                {
                    "name": "",
                    "type": "bytes32"
                },
                {
                    "name": "",
                    "type": "bytes32"
                }
            ],
            "payable": false,
            "stateMutability": "view",
            "type": "function"
        },
        {
            "constant": true,
            "inputs": [
                {
                    "name": "_submanager",
                    "type": "address"
                }
            ],
            "name": "isManagerOf",
            "outputs": [
                {
                    "name": "",
                    "type": "address"
                }
            ],
            "payable": false,
            "stateMutability": "view",
            "type": "function"
        },
        {
            "constant": false,
            "inputs": [
                {
                    "name": "_submanager",
                    "type": "address"
                },
                {
                    "name": "_country",
                    "type": "bytes32"
                },
                {
                    "name": "_role",
                    "type": "bytes32"
                }
            ],
            "name": "removeRole",
            "outputs": [],
            "payable": false,
            "stateMutability": "nonpayable",
            "type": "function"
        },
        {
            "constant": true,
            "inputs": [
                {
                    "name": "_role",
                    "type": "bytes32"
                },
                {
                    "name": "_country",
                    "type": "bytes32"
                }
            ],
            "name": "getManagers",
            "outputs": [
                {
                    "name": "",
                    "type": "address[]"
                }
            ],
            "payable": false,
            "stateMutability": "view",
            "type": "function"
        }
    ],
    "bytecode": "0x608060405234801561001057600080fd5b506115ca806100206000396000f3fe608060405234801561001057600080fd5b506004361061010b5760003560e01c80634a1f16e0116100a2578063c3c5a54711610071578063c3c5a54714610469578063c4d66de81461048f578063d0e65f85146104b5578063dbc4789a146104db578063e658f229146104e35761010b565b80634a1f16e0146103bb5780635df8122f146103e7578063685b8fd314610415578063944a10af146104435761010b565b80633c6ff32b116100de5780633c6ff32b146102575780633d584063146102ca578063442767331461030c578063488f56aa1461034b5761010b565b806319d7152c146101105780632688c556146101485780633a291033146101825780633c33c9ce146101bc575b600080fd5b6101366004803603602081101561012657600080fd5b50356001600160a01b0316610515565b60408051918252519081900360200190f35b6101806004803603608081101561015e57600080fd5b506001600160a01b03813516906020810135906040810135906060013561060c565b005b6101a86004803603602081101561019857600080fd5b50356001600160a01b03166107bd565b604080519115158252519081900360200190f35b6101e2600480360360208110156101d257600080fd5b50356001600160a01b03166107c3565b6040805160208082528351818301528351919283929083019185019080838360005b8381101561021c578181015183820152602001610204565b50505050905090810190601f1680156102495780820380516001836020036101000a031916815260200191505b509250505060405180910390f35b61027a6004803603604081101561026d57600080fd5b50803590602001356108bf565b60408051602080825283518183015283519192839290830191858101910280838360005b838110156102b657818101518382015260200161029e565b505050509050019250505060405180910390f35b6102f0600480360360208110156102e057600080fd5b50356001600160a01b0316610a4a565b604080516001600160a01b039092168252519081900360200190f35b6103326004803603602081101561032257600080fd5b50356001600160a01b0316610a6b565b6040805192835260208301919091528051918290030190f35b6101806004803603602081101561036157600080fd5b81019060208101813564010000000081111561037c57600080fd5b82018360208201111561038e57600080fd5b803590602001918460018302840111640100000000831117156103b057600080fd5b509092509050610b9b565b610180600480360360408110156103d157600080fd5b506001600160a01b038135169060200135610bba565b610180600480360360408110156103fd57600080fd5b506001600160a01b0381358116916020013516610caf565b6101806004803603604081101561042b57600080fd5b506001600160a01b0381351690602001351515611051565b61027a6004803603602081101561045957600080fd5b50356001600160a01b03166110d8565b6101a86004803603602081101561047f57600080fd5b50356001600160a01b03166110f8565b610180600480360360208110156104a557600080fd5b50356001600160a01b031661112d565b6102f0600480360360208110156104cb57600080fd5b50356001600160a01b0316611158565b6102f0611176565b610180600480360360608110156104f957600080fd5b506001600160a01b038135169060208101359060400135611186565b60006001600160a01b03821633148061054a57506001600160a01b038281166000908152603660205260409020600101541633145b8061055f5750603b546001600160a01b031633145b61056857600080fd5b603a5460408051600160e01b6330ccebb50281526001600160a01b038581166004830152915191909216916330ccebb5916024808301926020929190829003018186803b1580156105b857600080fd5b505afa1580156105cc573d6000803e3d6000fd5b505050506040513d60208110156105e257600080fd5b50516003141561060757506001600160a01b0381166000908152603760205260409020545b919050565b81600160b91b6821bab9ba37b234b0b7021480610630575081600160f01b61414d02145b80610642575081600160f41b61044502145b80610658575081600160d21b6512d650d0535302145b61066157600080fd5b600061066c336113b8565b511161067757600080fd5b6001600160a01b038416600090815260336020526040902060010154831415806106bc57506001600160a01b0384166000908152603360205260409020600201548214155b806106e257506001600160a01b0384166000908152603360205260409020600301548114155b156107b75760348054600181810183557f46bddb1178e94d7f2892ff5f366840eb658911794f2c3a44c450aa2c505186c190910180546001600160a01b0388166001600160a01b0319918216811790925592546000828152603560209081526040808320939093556033815290829020805490951633908117865593850188905560028501879055600390940185905580519283529282018590528183018690526060820184905291517fefc0db5f83f77f89452c2f94b82b44e255b3488e98d72feed0d80672ae36c8cc9181900360800190a25b50505050565b50600190565b60606001600160a01b0382163314806107f857506001600160a01b038281166000908152603660205260409020600101541633145b8061080d5750603b546001600160a01b031633145b61081657600080fd5b6001600160a01b03821660009081526036602090815260409182902080548351601f6002600019610100600186161502019093169290920491820184900484028101840190945280845290918301828280156108b35780601f10610888576101008083540402835291602001916108b3565b820191906000526020600020905b81548152906001019060200180831161089657829003601f168201915b50505050509050919050565b606082600160b91b6821bab9ba37b234b0b70214806108e5575082600160f01b61414d02145b806108f7575082600160f41b61044502145b8061090d575082600160d21b6512d650d0535302145b61091657600080fd5b6034546040805182815260208084028201019091526060918015610944578160200160208202803883390190505b5090506000805b603454811015610a3e5785603360006034848154811061096757fe5b60009182526020808320909101546001600160a01b031683528201929092526040019020600201541480156109d357508460336000603484815481106109a957fe5b60009182526020808320909101546001600160a01b03168352820192909252604001902060010154145b15610a3657603481815481106109e557fe5b9060005260206000200160009054906101000a90046001600160a01b0316838381518110610a0f57fe5b60200260200101906001600160a01b031690816001600160a01b0316815250508160010191505b60010161094b565b50909150505b92915050565b6001600160a01b039081166000908152603660205260409020600101541690565b6001600160a01b03811660009081526035602052604081205481908015610b5f57836001600160a01b031660346001830381548110610aa657fe5b6000918252602090912001546001600160a01b03161415610b5f576033600060346001840381548110610ad557fe5b9060005260206000200160009054906101000a90046001600160a01b03166001600160a01b03166001600160a01b03168152602001908152602001600020600201546033600060346001850381548110610b2b57fe5b60009182526020808320909101546001600160a01b031683528201929092526040019020600301549093509150610b969050565b603b546001600160a01b0385811691161415610b8d57600160d91b6420b236b4b70260009250925050610b96565b60008092509250505b915091565b336000908152603660205260409020610bb5908383611506565b505050565b6001600160a01b038216331480610bed57506001600160a01b038281166000908152603660205260409020600101541633145b80610c025750603b546001600160a01b031633145b610c0b57600080fd5b603a5460408051600160e01b6330ccebb50281526001600160a01b038581166004830152915191909216916330ccebb5916024808301926020929190829003018186803b158015610c5b57600080fd5b505afa158015610c6f573d6000803e3d6000fd5b505050506040513d6020811015610c8557600080fd5b505160031415610cab576001600160a01b03821660009081526037602052604090208190555b5050565b6001600160a01b038116610d0d5760408051600160e51b62461bcd02815260206004820152601760248201527f4d616e616765722061646472657373206973206e756c6c000000000000000000604482015290519081900360640190fd5b603b5460009081906001600160a01b0316331480610d4757506001600160a01b038481166000908152603660205260409020600101541633145b8015610d655750826001600160a01b0316846001600160a01b031614155b156107b7576001600160a01b038481166000908152603660205260409020600101548116908416146107b7576001600160a01b038316600090815260336020526040902060020154600160d21b6512d650d05353021480610dd35750603b546001600160a01b038481169116145b15610e0f57506001600160a01b03808416600090815260366020526040902060010180548483166001600160a01b031982161790915516610e39565b6001600160a01b038316600090815260336020526040902060020154610e3690859061142d565b90505b6001600160a01b03811615610fc25760005b6001600160a01b038216600090815260386020526040902054811015610fc0576001600160a01b038083166000818152603960209081526040808320948a168084529482528083208390559282526038905220805483908110610eaa57fe5b6000918252602090912001546001600160a01b03161415610fb8576001600160a01b03821660009081526038602052604090205460001901811415610f2b576001600160a01b0382166000908152603860205260409020805482908110610f0d57fe5b600091825260209091200180546001600160a01b0319169055610fb8565b6001600160a01b0382166000908152603860205260409020805460018301908110610f5257fe5b60009182526020808320909101546001600160a01b03858116845260389092526040909220805491909216919083908110610f8957fe5b9060005260206000200160006101000a8154816001600160a01b0302191690836001600160a01b031602179055505b600101610e4b565b505b6001600160a01b0380841660009081526039602090815260408083209388168352929052205415610ff257600191505b816107b7576001600160a01b0380841660008181526038602090815260408083208054600181018255818552838520018054968b166001600160a01b031990971687179055938352925460398252838320948352939052205550505050565b6001600160a01b03828116600090815260366020526040902060010154163314806110865750603b546001600160a01b031633145b61108f57600080fd5b6001600160a01b0390911660009081526036602052604090206001018054911515600160a01b0274ff000000000000000000000000000000000000000019909216919091179055565b6060336001600160a01b038316146110ef57600080fd5b610a44826113b8565b6001600160a01b038181166000908152603660205260408120600101549091161561112557506001610607565b506000610607565b603a80546001600160a01b039092166001600160a01b0319928316179055603b805490911633179055565b6001600160a01b039081166000908152603360205260409020541690565b603b546001600160a01b03165b90565b80600160b91b6821bab9ba37b234b0b70214806111aa575080600160f01b61414d02145b806111bc575080600160f41b61044502145b806111d2575080600160d21b6512d650d0535302145b6111db57600080fd5b6001600160a01b038316600090815260356020526040902054801561136657836001600160a01b03166034600183038154811061121457fe5b6000918252602090912001546001600160a01b0316148015611270575081603360006034600185038154811061124657fe5b60009182526020808320909101546001600160a01b03168352820192909252604001902060020154145b80156112b6575082603360006034600185038154811061128c57fe5b60009182526020808320909101546001600160a01b03168352820192909252604001902060010154145b80156113085750336001600160a01b031660336000603460018503815481106112db57fe5b60009182526020808320909101546001600160a01b03908116845290830193909352604090910190205416145b1561136657603360006034600184038154811061132157fe5b60009182526020808320909101546001600160a01b03168352820192909252604001812080546001600160a01b03191681556001810182905560028101829055600301555b604080513381526020810184905280820185905290516001600160a01b038616917f2d599c6854d4b4c59b4e99fde5e3cb617739de62ed97ff059d0305bcba6c8aac919081900360600190a250505050565b6001600160a01b0381166000908152603860209081526040918290208054835181840281018401909452808452606093928301828280156108b357602002820191906000526020600020905b81546001600160a01b031681526001909101906020018083116114045750505050509050919050565b6000805b6034548110156114ff5782603360006034848154811061144d57fe5b60009182526020808320909101546001600160a01b031683528201929092526040019020600201541480156114c757506000603960006034848154811061149057fe5b60009182526020808320909101546001600160a01b0390811684528382019490945260409283018220938916825292909252902054115b156114f757603481815481106114d957fe5b6000918252602090912001546001600160a01b03169150610a449050565b600101611431565b5092915050565b828054600181600116156101000203166002900490600052602060002090601f016020900481019282601f106115475782800160ff19823516178555611574565b82800160010185558215611574579182015b82811115611574578235825591602001919060010190611559565b50611580929150611584565b5090565b61118391905b80821115611580576000815560010161158a56fea165627a7a72305820a90825952de9046bc45f0893546c6d6ff49f0997033e7c120464bf8f1a59b3c10029",
    "source": "// (c) Kallol Borah, 2020\r\n// Sets up account and manages custody\r\n\r\npragma solidity 0.5.7;\r\n\r\nimport \"./interfaces/VerifiedKYC.sol\";\r\nimport \"./interfaces/VerifiedClient.sol\";\r\nimport \"@openzeppelin/upgrades/contracts/Initializable.sol\";\r\n\r\ncontract Client is VerifiedClient, Initializable{\r\n\r\n    struct access{\r\n        string messagingToken;\r\n        address manager;\r\n        bool aml;      \r\n    }\r\n\r\n    struct role{\r\n        address manager;\r\n        bytes32 country;\r\n        bytes32 role;\r\n        bytes32 id;\r\n    }\r\n\r\n    //mapping of a manager to its sub managers\r\n    mapping(address=> role) private roles;\r\n\r\n    //storing submanagers\r\n    address[] submanagers;\r\n\r\n    //submanager index\r\n    mapping(address => uint256) private managerIndex;\r\n\r\n    //mapping of a client to info\r\n    mapping(address=> access) private info;\r\n\r\n    //mapping of a client to its custody account\r\n    mapping(address => bytes32) private custody;\r\n\r\n    //mapping of a manager to its clients\r\n    mapping(address => address[]) private clients;\r\n\r\n    //client index : manager to client to index position\r\n    mapping(address => mapping(address => uint256)) private clientIndex;\r\n\r\n    //kyc contract\r\n    VerifiedKYC private Kyc;\r\n\r\n    //aml manager\r\n    address private amlManager;\r\n\r\n    //event for managers\r\n    event ManagerAdded(address manager, address indexed submanager, bytes32 role, bytes32 country, bytes32 managerId);\r\n    event ManagerRemoved(address manager, address indexed submanager, bytes32 role, bytes32 country);\r\n\r\n    //owner is someone who can upgrade this contract\r\n    function initialize(address _kyc) public {\r\n        Kyc = VerifiedKYC(_kyc);\r\n        amlManager = msg.sender;\r\n    }\r\n\r\n    function getAMLManager() external view returns(address) {\r\n        return amlManager;\r\n    }\r\n\r\n    //only the user or its manager can set the custody account address\r\n    function setCustody(address _client, bytes32 _account) external {\r\n        require(_client==msg.sender || info[_client].manager==msg.sender || msg.sender==amlManager);\r\n        if(Kyc.getStatus(_client)==3){\r\n            custody[_client] = _account;\r\n        }\r\n    }\r\n\r\n    //only the user or its manager can get the custody account address\r\n    function getCustody(address _client) external view returns(bytes32){\r\n        require(_client==msg.sender || info[_client].manager==msg.sender || msg.sender==amlManager);\r\n        if(Kyc.getStatus(_client)==3){\r\n            return custody[_client];\r\n        }\r\n    }\r\n\r\n    //access info can only be set by user\r\n    function setAccess(string calldata _messagingToken) external{\r\n        info[msg.sender].messagingToken=_messagingToken;\r\n    }\r\n\r\n    //access data for a user can only be retrieved by itself or its manager\r\n    function getAccess(address _client) external view returns(string memory){\r\n        require(_client==msg.sender || info[_client].manager==msg.sender || msg.sender==amlManager);\r\n        return (info[_client].messagingToken);\r\n    }\r\n    \r\n    //when a user is not registered, the AML manager can set the user's KYC manager\r\n    //when a user is registered or KYC passed, both the AML manager and KYC manager can reset the user's manager\r\n    function setManager(address _client, address _manager) external{\r\n        require(_manager!=address(0x0), \"Manager address is null\");\r\n        bool found = false;\r\n        address currentManager;\r\n        if((amlManager==msg.sender || info[_client].manager==msg.sender) && _client!=_manager){\r\n            if(info[_client].manager!=_manager){\r\n                if(roles[_manager].role==\"KYCAML\" || amlManager==_manager){\r\n                    currentManager = info[_client].manager;\r\n                    info[_client].manager = _manager;\r\n                }\r\n                else{\r\n                    currentManager = getManagerFor(_client, roles[_manager].role);\r\n                }\r\n                if(currentManager!=address(0)){\r\n                    for(uint j=0; j<clients[currentManager].length; j++){\r\n                        clientIndex[currentManager][_client] = 0;\r\n                        if(clients[currentManager][j]==_client){\r\n                            if(j==clients[currentManager].length-1)\r\n                                delete clients[currentManager][j];\r\n                            else\r\n                                clients[currentManager][j]=clients[currentManager][j+1];\r\n                        }\r\n                    }\r\n                }\r\n                if(clientIndex[_manager][_client]>0)\r\n                    found = true;\r\n                if(!found){\r\n                    clients[_manager].push(_client);\r\n                    clientIndex[_manager][_client] = clients[_manager].length;\r\n                }\r\n            }\r\n        }\r\n    }\r\n\r\n    // manager identity can be retrieved by user or its manager only\r\n    function getManager(address _client) external view returns(address){\r\n        return info[_client].manager;\r\n    }\r\n\r\n    //checks if client is registered or not\r\n    function isRegistered(address _client) external view returns(bool){\r\n        if(info[_client].manager!=address(0x0))\r\n            return true;\r\n        else\r\n            return false;\r\n    }\r\n\r\n    //sets AML status\r\n    function setAMLStatus(address _client, bool status) external {\r\n        require(msg.sender==info[_client].manager || msg.sender==amlManager);  \r\n        info[_client].aml = status;\r\n    }\r\n\r\n    //gets AML status\r\n    function getAMLStatus(address _client) external view returns(bool){\r\n        return true; //info[_client].aml;\r\n    }\r\n\r\n    //get clients for specified manager with registration status set to true or false\r\n    function getClients(address _manager) external view returns(address[] memory){\r\n        require(msg.sender==_manager);\r\n        return getClientsForManager(_manager);\r\n    }\r\n\r\n    function getClientsForManager(address _manager) private view returns(address[] memory){\r\n        return clients[_manager];\r\n    }\r\n\r\n    //add role\r\n    function addRole(address _submanager, bytes32 _country, bytes32 _role, bytes32 _id) external{\r\n        require(_role==\"Custodian\" || _role==\"AM\" || _role==\"DP\" || _role==\"KYCAML\");\r\n        require(getClientsForManager(msg.sender).length>0);\r\n        if(roles[_submanager].country!=_country || roles[_submanager].role!=_role || roles[_submanager].id!=_id){\r\n            submanagers.push(_submanager);\r\n            managerIndex[_submanager] = submanagers.length;\r\n            roles[_submanager].manager = msg.sender;\r\n            roles[_submanager].country = _country;\r\n            roles[_submanager].role = _role;\r\n            roles[_submanager].id = _id;\r\n            emit ManagerAdded(msg.sender, _submanager, _role, _country, _id);\r\n        }\r\n    }\r\n\r\n    //get roles for manager\r\n    function getRole(address _user) external view returns(bytes32, bytes32){\r\n        uint256 position = managerIndex[_user];\r\n        if(position>0){\r\n            if(submanagers[position-1]==_user){\r\n                return (roles[submanagers[position-1]].role, roles[submanagers[position-1]].id);\r\n            }\r\n        }\r\n        if(_user==amlManager)\r\n            return (\"Admin\",\"\");\r\n        else\r\n            return (\"\",\"\");\r\n    }\r\n\r\n    //returns manager of submanager passed to function\r\n    function isManagerOf(address _submanager) external view returns(address){\r\n        return roles[_submanager].manager;\r\n    }\r\n\r\n    function getManagerFor(address _client, bytes32 _role) private view returns(address){\r\n        for(uint256 i=0; i<submanagers.length; i++){\r\n            if(roles[submanagers[i]].role==_role && clientIndex[submanagers[i]][_client]>0)\r\n                return submanagers[i];\r\n        }\r\n    }\r\n\r\n    //remove role\r\n    function removeRole(address _submanager, bytes32 _country, bytes32 _role) external{\r\n        require(_role==\"Custodian\" || _role==\"AM\" || _role==\"DP\" || _role==\"KYCAML\");\r\n        uint256 position = managerIndex[_submanager];\r\n        if(position>0){\r\n            if( submanagers[position-1]==_submanager &&\r\n                roles[submanagers[position-1]].role==_role && \r\n                roles[submanagers[position-1]].country==_country &&\r\n                roles[submanagers[position-1]].manager==msg.sender){\r\n                delete(roles[submanagers[position-1]]);\r\n            }\r\n        }\r\n        emit ManagerRemoved(msg.sender, _submanager, _role, _country);\r\n    }\r\n\r\n    function getManagers(bytes32 _role, bytes32 _country) external view returns(address[] memory){\r\n        require(_role==\"Custodian\" || _role==\"AM\" || _role==\"DP\" || _role==\"KYCAML\");\r\n        address[] memory resp = new address[](submanagers.length);\r\n        uint j = 0;\r\n        for(uint i=0; i<submanagers.length; i++){\r\n            if(roles[submanagers[i]].role==_role && roles[submanagers[i]].country==_country){\r\n                resp[j] = submanagers[i];\r\n                j = j+1;\r\n            }\r\n        }\r\n        return resp;\r\n    }   \r\n\r\n}",
    "sourcePath": "D:\\Code\\verified-accounts\\contracts\\Client.sol",
    "compiler": {
        "name": "solc",
        "version": "0.5.7+commit.6da8b019.Emscripten.clang"
    },
    "schemaVersion": "3.4.3",
    "updatedAt": "2022-05-13T11:09:15.912Z",
    "networkType": "ethereum",
    "devdoc": {
        "methods": {}
    },
    "userdoc": {
        "methods": {}
    }
}