{
    "contractName": "Kyc",
    "abi": [
        {
            "anonymous": false,
            "inputs": [
                {
                    "indexed": true,
                    "name": "client",
                    "type": "address"
                },
                {
                    "indexed": false,
                    "name": "name",
                    "type": "bytes32"
                },
                {
                    "indexed": false,
                    "name": "surname",
                    "type": "bytes32"
                },
                {
                    "indexed": false,
                    "name": "status",
                    "type": "uint256"
                }
            ],
            "name": "KycUpdate",
            "type": "event"
        },
        {
            "constant": false,
            "inputs": [
                {
                    "name": "_client",
                    "type": "address"
                }
            ],
            "name": "initialize",
            "outputs": [],
            "payable": false,
            "stateMutability": "nonpayable",
            "type": "function"
        },
        {
            "constant": false,
            "inputs": [
                {
                    "name": "_client",
                    "type": "address"
                },
                {
                    "name": "_status",
                    "type": "uint256"
                }
            ],
            "name": "setStatus",
            "outputs": [],
            "payable": false,
            "stateMutability": "nonpayable",
            "type": "function"
        },
        {
            "constant": true,
            "inputs": [
                {
                    "name": "_client",
                    "type": "address"
                }
            ],
            "name": "getStatus",
            "outputs": [
                {
                    "name": "",
                    "type": "uint256"
                }
            ],
            "payable": false,
            "stateMutability": "view",
            "type": "function"
        },
        {
            "constant": false,
            "inputs": [
                {
                    "name": "_client",
                    "type": "address"
                },
                {
                    "name": "_file",
                    "type": "string"
                }
            ],
            "name": "setFile",
            "outputs": [],
            "payable": false,
            "stateMutability": "nonpayable",
            "type": "function"
        },
        {
            "constant": true,
            "inputs": [
                {
                    "name": "_client",
                    "type": "address"
                }
            ],
            "name": "getFile",
            "outputs": [
                {
                    "name": "",
                    "type": "string"
                }
            ],
            "payable": false,
            "stateMutability": "view",
            "type": "function"
        },
        {
            "constant": false,
            "inputs": [
                {
                    "name": "_client",
                    "type": "address"
                },
                {
                    "name": "_file",
                    "type": "string"
                }
            ],
            "name": "setFATCA",
            "outputs": [],
            "payable": false,
            "stateMutability": "nonpayable",
            "type": "function"
        },
        {
            "constant": true,
            "inputs": [
                {
                    "name": "_client",
                    "type": "address"
                }
            ],
            "name": "getFATCA",
            "outputs": [
                {
                    "name": "",
                    "type": "string"
                }
            ],
            "payable": false,
            "stateMutability": "view",
            "type": "function"
        },
        {
            "constant": false,
            "inputs": [
                {
                    "name": "_client",
                    "type": "address"
                },
                {
                    "name": "_file",
                    "type": "string"
                }
            ],
            "name": "setCRS",
            "outputs": [],
            "payable": false,
            "stateMutability": "nonpayable",
            "type": "function"
        },
        {
            "constant": true,
            "inputs": [
                {
                    "name": "_client",
                    "type": "address"
                }
            ],
            "name": "getCRS",
            "outputs": [
                {
                    "name": "",
                    "type": "string"
                }
            ],
            "payable": false,
            "stateMutability": "view",
            "type": "function"
        },
        {
            "constant": false,
            "inputs": [
                {
                    "name": "_client",
                    "type": "address"
                },
                {
                    "name": "_file",
                    "type": "string"
                }
            ],
            "name": "setPhotoID",
            "outputs": [],
            "payable": false,
            "stateMutability": "nonpayable",
            "type": "function"
        },
        {
            "constant": true,
            "inputs": [
                {
                    "name": "_client",
                    "type": "address"
                }
            ],
            "name": "getPhotoID",
            "outputs": [
                {
                    "name": "",
                    "type": "string"
                }
            ],
            "payable": false,
            "stateMutability": "view",
            "type": "function"
        },
        {
            "constant": false,
            "inputs": [
                {
                    "name": "_client",
                    "type": "address"
                },
                {
                    "name": "_file",
                    "type": "string"
                }
            ],
            "name": "setVideoID",
            "outputs": [],
            "payable": false,
            "stateMutability": "nonpayable",
            "type": "function"
        },
        {
            "constant": true,
            "inputs": [
                {
                    "name": "_client",
                    "type": "address"
                }
            ],
            "name": "getVideoID",
            "outputs": [
                {
                    "name": "",
                    "type": "string"
                }
            ],
            "payable": false,
            "stateMutability": "view",
            "type": "function"
        },
        {
            "constant": false,
            "inputs": [
                {
                    "name": "_client",
                    "type": "address"
                },
                {
                    "name": "_file",
                    "type": "string"
                }
            ],
            "name": "setAddress",
            "outputs": [],
            "payable": false,
            "stateMutability": "nonpayable",
            "type": "function"
        },
        {
            "constant": true,
            "inputs": [
                {
                    "name": "_client",
                    "type": "address"
                }
            ],
            "name": "getAddress",
            "outputs": [
                {
                    "name": "",
                    "type": "string"
                }
            ],
            "payable": false,
            "stateMutability": "view",
            "type": "function"
        },
        {
            "constant": false,
            "inputs": [
                {
                    "name": "_client",
                    "type": "address"
                },
                {
                    "name": "_country",
                    "type": "bytes32"
                }
            ],
            "name": "setCountry",
            "outputs": [],
            "payable": false,
            "stateMutability": "nonpayable",
            "type": "function"
        },
        {
            "constant": true,
            "inputs": [
                {
                    "name": "_client",
                    "type": "address"
                }
            ],
            "name": "getCountry",
            "outputs": [
                {
                    "name": "",
                    "type": "bytes32"
                }
            ],
            "payable": false,
            "stateMutability": "view",
            "type": "function"
        },
        {
            "constant": false,
            "inputs": [
                {
                    "name": "_client",
                    "type": "address"
                },
                {
                    "name": "_name",
                    "type": "bytes32"
                },
                {
                    "name": "_surname",
                    "type": "bytes32"
                }
            ],
            "name": "setName",
            "outputs": [],
            "payable": false,
            "stateMutability": "nonpayable",
            "type": "function"
        },
        {
            "constant": true,
            "inputs": [
                {
                    "name": "_client",
                    "type": "address"
                }
            ],
            "name": "getName",
            "outputs": [
                {
                    "name": "",
                    "type": "bytes32"
                },
                {
                    "name": "",
                    "type": "bytes32"
                }
            ],
            "payable": false,
            "stateMutability": "view",
            "type": "function"
        },
        {
            "constant": false,
            "inputs": [
                {
                    "name": "_client",
                    "type": "address"
                },
                {
                    "name": "_phone",
                    "type": "bytes32"
                }
            ],
            "name": "setPhone",
            "outputs": [],
            "payable": false,
            "stateMutability": "nonpayable",
            "type": "function"
        },
        {
            "constant": true,
            "inputs": [
                {
                    "name": "_client",
                    "type": "address"
                }
            ],
            "name": "getPhone",
            "outputs": [
                {
                    "name": "",
                    "type": "bytes32"
                }
            ],
            "payable": false,
            "stateMutability": "view",
            "type": "function"
        },
        {
            "constant": false,
            "inputs": [
                {
                    "name": "_client",
                    "type": "address"
                },
                {
                    "name": "_email",
                    "type": "bytes32"
                }
            ],
            "name": "setEmail",
            "outputs": [],
            "payable": false,
            "stateMutability": "nonpayable",
            "type": "function"
        },
        {
            "constant": true,
            "inputs": [
                {
                    "name": "_client",
                    "type": "address"
                }
            ],
            "name": "getEmail",
            "outputs": [
                {
                    "name": "",
                    "type": "bytes32"
                }
            ],
            "payable": false,
            "stateMutability": "view",
            "type": "function"
        },
        {
            "constant": false,
            "inputs": [
                {
                    "name": "_client",
                    "type": "address"
                },
                {
                    "name": "_paid",
                    "type": "bytes32"
                }
            ],
            "name": "setKYCPaid",
            "outputs": [],
            "payable": false,
            "stateMutability": "nonpayable",
            "type": "function"
        },
        {
            "constant": true,
            "inputs": [
                {
                    "name": "_client",
                    "type": "address"
                }
            ],
            "name": "getKYCPaid",
            "outputs": [
                {
                    "name": "",
                    "type": "bytes32"
                }
            ],
            "payable": false,
            "stateMutability": "view",
            "type": "function"
        }
    ],
    "bytecode": "0x608060405234801561001057600080fd5b50612012806100206000396000f3fe608060405234801561001057600080fd5b50600436106101735760003560e01c80635fd4b08a116100de578063ae22c57d11610097578063d36a887511610071578063d36a887514610760578063d36f5e6214610786578063d4bc0889146107b8578063d821f92d146107e457610173565b8063ae22c57d14610696578063c4d66de8146106bc578063ceb2f041146106e257610173565b80635fd4b08a146104e357806362714a14146105225780636ea753db146105485780637a68f5a9146105c65780637e55d59c146105ec578063912000991461061857610173565b806330ccebb51161013057806330ccebb51461038f578063323baff1146103c75780633ed93c4f146103f3578063478da929146104195780634fa7353c146104975780635d962a95146104bd57610173565b806304047e97146101785780630b87c1e0146101f85780631d7d3237146102935780631f88f8c3146102bf57806327f08b31146102eb578063297d4d5514610311575b600080fd5b6101f66004803603604081101561018e57600080fd5b6001600160a01b038235169190810190604081016020820135600160201b8111156101b857600080fd5b8201836020820111156101ca57600080fd5b803590602001918460018302840111600160201b831117156101eb57600080fd5b50909250905061080a565b005b61021e6004803603602081101561020e57600080fd5b50356001600160a01b0316610914565b6040805160208082528351818301528351919283929083019185019080838360005b83811015610258578181015183820152602001610240565b50505050905090810190601f1680156102855780820380516001836020036101000a031916815260200191505b509250505060405180910390f35b6101f6600480360360408110156102a957600080fd5b506001600160a01b038135169060200135610a86565b6101f6600480360360408110156102d557600080fd5b506001600160a01b038135169060200135610b6f565b61021e6004803603602081101561030157600080fd5b50356001600160a01b0316610c33565b6101f66004803603604081101561032757600080fd5b6001600160a01b038235169190810190604081016020820135600160201b81111561035157600080fd5b82018360208201111561036357600080fd5b803590602001918460018302840111600160201b8311171561038457600080fd5b509092509050610d6a565b6103b5600480360360208110156103a557600080fd5b50356001600160a01b0316610e50565b60408051918252519081900360200190f35b6101f6600480360360408110156103dd57600080fd5b506001600160a01b038135169060200135610e6b565b61021e6004803603602081101561040957600080fd5b50356001600160a01b0316610f54565b6101f66004803603604081101561042f57600080fd5b6001600160a01b038235169190810190604081016020820135600160201b81111561045957600080fd5b82018360208201111561046b57600080fd5b803590602001918460018302840111600160201b8311171561048c57600080fd5b50909250905061108c565b6103b5600480360360208110156104ad57600080fd5b50356001600160a01b0316611172565b61021e600480360360208110156104d357600080fd5b50356001600160a01b0316611255565b610509600480360360208110156104f957600080fd5b50356001600160a01b031661138c565b6040805192835260208301919091528051918290030190f35b6103b56004803603602081101561053857600080fd5b50356001600160a01b0316611479565b6101f66004803603604081101561055e57600080fd5b6001600160a01b038235169190810190604081016020820135600160201b81111561058857600080fd5b82018360208201111561059a57600080fd5b803590602001918460018302840111600160201b831117156105bb57600080fd5b50909250905061155c565b61021e600480360360208110156105dc57600080fd5b50356001600160a01b0316611642565b6101f66004803603604081101561060257600080fd5b506001600160a01b038135169060200135611779565b6101f66004803603604081101561062e57600080fd5b6001600160a01b038235169190810190604081016020820135600160201b81111561065857600080fd5b82018360208201111561066a57600080fd5b803590602001918460018302840111600160201b8311171561068b57600080fd5b509092509050611875565b61021e600480360360208110156106ac57600080fd5b50356001600160a01b031661195b565b6101f6600480360360208110156106d257600080fd5b50356001600160a01b0316611a92565b6101f6600480360360408110156106f857600080fd5b6001600160a01b038235169190810190604081016020820135600160201b81111561072257600080fd5b82018360208201111561073457600080fd5b803590602001918460018302840111600160201b8311171561075557600080fd5b509092509050611abd565b6103b56004803603602081101561077657600080fd5b50356001600160a01b0316611bab565b6101f66004803603606081101561079c57600080fd5b506001600160a01b038135169060208101359060400135611c8e565b6101f6600480360360408110156107ce57600080fd5b506001600160a01b038135169060200135611d7f565b6103b5600480360360208110156107fa57600080fd5b50356001600160a01b0316611e68565b82336001600160a01b0382168114806108a9575060335460408051600160e01b633d5840630281526001600160a01b03858116600483015291519190921691633d584063916024808301926020929190829003018186803b15801561086e57600080fd5b505afa158015610882573d6000803e3d6000fd5b505050506040513d602081101561089857600080fd5b50516001600160a01b038281169116145b806108c157506035546001600160a01b038281169116145b6108ca57600080fd5b6001600160a01b03851660009081526034602052604090206108f0906002018585611f4b565b5050506001600160a01b039092166000908152603460205260409020600190555050565b606081336001600160a01b0382168114806109b5575060335460408051600160e01b633d5840630281526001600160a01b03858116600483015291519190921691633d584063916024808301926020929190829003018186803b15801561097a57600080fd5b505afa15801561098e573d6000803e3d6000fd5b505050506040513d60208110156109a457600080fd5b50516001600160a01b038281169116145b806109cd57506035546001600160a01b038281169116145b6109d657600080fd5b6001600160a01b038416600090815260346020908152604091829020600190810180548451600293821615610100026000190190911692909204601f810184900484028301840190945283825290929091830182828015610a785780601f10610a4d57610100808354040283529160200191610a78565b820191906000526020600020905b815481529060010190602001808311610a5b57829003601f168201915b505050505092505050919050565b81336001600160a01b038216811480610b25575060335460408051600160e01b633d5840630281526001600160a01b03858116600483015291519190921691633d584063916024808301926020929190829003018186803b158015610aea57600080fd5b505afa158015610afe573d6000803e3d6000fd5b505050506040513d6020811015610b1457600080fd5b50516001600160a01b038281169116145b80610b3d57506035546001600160a01b038281169116145b610b4657600080fd5b50506001600160a01b039091166000908152603460205260409020600781019190915560019055565b60335460408051600160e01b633d5840630281526001600160a01b03858116600483015291519190921691633d584063916024808301926020929190829003018186803b158015610bbf57600080fd5b505afa158015610bd3573d6000803e3d6000fd5b505050506040513d6020811015610be957600080fd5b50516001600160a01b0316331480610c0b57506035546001600160a01b031633145b610c1457600080fd5b6001600160a01b039091166000908152603460205260409020600c0155565b606081336001600160a01b038216811480610cd4575060335460408051600160e01b633d5840630281526001600160a01b03858116600483015291519190921691633d584063916024808301926020929190829003018186803b158015610c9957600080fd5b505afa158015610cad573d6000803e3d6000fd5b505050506040513d6020811015610cc357600080fd5b50516001600160a01b038281169116145b80610cec57506035546001600160a01b038281169116145b610cf557600080fd5b6001600160a01b03841660009081526034602090815260409182902060040180548351601f600260001961010060018616150201909316929092049182018490048402810184019094528084529091830182828015610a785780601f10610a4d57610100808354040283529160200191610a78565b82336001600160a01b038216811480610e09575060335460408051600160e01b633d5840630281526001600160a01b03858116600483015291519190921691633d584063916024808301926020929190829003018186803b158015610dce57600080fd5b505afa158015610de2573d6000803e3d6000fd5b505050506040513d6020811015610df857600080fd5b50516001600160a01b038281169116145b80610e2157506035546001600160a01b038281169116145b610e2a57600080fd5b6001600160a01b03851660009081526034602052604090206108f0906004018585611f4b565b6001600160a01b031660009081526034602052604090205490565b81336001600160a01b038216811480610f0a575060335460408051600160e01b633d5840630281526001600160a01b03858116600483015291519190921691633d584063916024808301926020929190829003018186803b158015610ecf57600080fd5b505afa158015610ee3573d6000803e3d6000fd5b505050506040513d6020811015610ef957600080fd5b50516001600160a01b038281169116145b80610f2257506035546001600160a01b038281169116145b610f2b57600080fd5b50506001600160a01b039091166000908152603460205260409020600a81019190915560019055565b606081336001600160a01b038216811480610ff5575060335460408051600160e01b633d5840630281526001600160a01b03858116600483015291519190921691633d584063916024808301926020929190829003018186803b158015610fba57600080fd5b505afa158015610fce573d6000803e3d6000fd5b505050506040513d6020811015610fe457600080fd5b50516001600160a01b038281169116145b8061100d57506035546001600160a01b038281169116145b61101657600080fd5b6001600160a01b0384166000908152603460209081526040918290206002908101805484516001821615610100026000190190911692909204601f810184900484028301840190945283825290929091830182828015610a785780601f10610a4d57610100808354040283529160200191610a78565b82336001600160a01b03821681148061112b575060335460408051600160e01b633d5840630281526001600160a01b03858116600483015291519190921691633d584063916024808301926020929190829003018186803b1580156110f057600080fd5b505afa158015611104573d6000803e3d6000fd5b505050506040513d602081101561111a57600080fd5b50516001600160a01b038281169116145b8061114357506035546001600160a01b038281169116145b61114c57600080fd5b6001600160a01b03851660009081526034602052604090206108f0906005018585611f4b565b600081336001600160a01b038216811480611213575060335460408051600160e01b633d5840630281526001600160a01b03858116600483015291519190921691633d584063916024808301926020929190829003018186803b1580156111d857600080fd5b505afa1580156111ec573d6000803e3d6000fd5b505050506040513d602081101561120257600080fd5b50516001600160a01b038281169116145b8061122b57506035546001600160a01b038281169116145b61123457600080fd5b5050506001600160a01b03166000908152603460205260409020600b015490565b606081336001600160a01b0382168114806112f6575060335460408051600160e01b633d5840630281526001600160a01b03858116600483015291519190921691633d584063916024808301926020929190829003018186803b1580156112bb57600080fd5b505afa1580156112cf573d6000803e3d6000fd5b505050506040513d60208110156112e557600080fd5b50516001600160a01b038281169116145b8061130e57506035546001600160a01b038281169116145b61131757600080fd5b6001600160a01b03841660009081526034602090815260409182902060030180548351601f600260001961010060018616150201909316929092049182018490048402810184019094528084529091830182828015610a785780601f10610a4d57610100808354040283529160200191610a78565b60008082336001600160a01b03821681148061142e575060335460408051600160e01b633d5840630281526001600160a01b03858116600483015291519190921691633d584063916024808301926020929190829003018186803b1580156113f357600080fd5b505afa158015611407573d6000803e3d6000fd5b505050506040513d602081101561141d57600080fd5b50516001600160a01b038281169116145b8061144657506035546001600160a01b038281169116145b61144f57600080fd5b505050506001600160a01b0316600090815260346020526040902060088101546009909101549091565b600081336001600160a01b03821681148061151a575060335460408051600160e01b633d5840630281526001600160a01b03858116600483015291519190921691633d584063916024808301926020929190829003018186803b1580156114df57600080fd5b505afa1580156114f3573d6000803e3d6000fd5b505050506040513d602081101561150957600080fd5b50516001600160a01b038281169116145b8061153257506035546001600160a01b038281169116145b61153b57600080fd5b5050506001600160a01b03166000908152603460205260409020600a015490565b82336001600160a01b0382168114806115fb575060335460408051600160e01b633d5840630281526001600160a01b03858116600483015291519190921691633d584063916024808301926020929190829003018186803b1580156115c057600080fd5b505afa1580156115d4573d6000803e3d6000fd5b505050506040513d60208110156115ea57600080fd5b50516001600160a01b038281169116145b8061161357506035546001600160a01b038281169116145b61161c57600080fd5b6001600160a01b03851660009081526034602052604090206108f0906003018585611f4b565b606081336001600160a01b0382168114806116e3575060335460408051600160e01b633d5840630281526001600160a01b03858116600483015291519190921691633d584063916024808301926020929190829003018186803b1580156116a857600080fd5b505afa1580156116bc573d6000803e3d6000fd5b505050506040513d60208110156116d257600080fd5b50516001600160a01b038281169116145b806116fb57506035546001600160a01b038281169116145b61170457600080fd5b6001600160a01b03841660009081526034602090815260409182902060050180548351601f600260001961010060018616150201909316929092049182018490048402810184019094528084529091830182828015610a785780601f10610a4d57610100808354040283529160200191610a78565b60335460408051600160e01b633d5840630281526001600160a01b03858116600483015291519190921691633d584063916024808301926020929190829003018186803b1580156117c957600080fd5b505afa1580156117dd573d6000803e3d6000fd5b505050506040513d60208110156117f357600080fd5b50516001600160a01b0316331461180957600080fd5b6001600160a01b038216600081815260346020908152604091829020848155600881015460099091015483519182529181019190915280820184905290517f8ba92ed9e27d8e9a4e63de720e2e8dbf35a0d01cdb6e6d4d8f5952e79654d64d9181900360600190a25050565b82336001600160a01b038216811480611914575060335460408051600160e01b633d5840630281526001600160a01b03858116600483015291519190921691633d584063916024808301926020929190829003018186803b1580156118d957600080fd5b505afa1580156118ed573d6000803e3d6000fd5b505050506040513d602081101561190357600080fd5b50516001600160a01b038281169116145b8061192c57506035546001600160a01b038281169116145b61193557600080fd5b6001600160a01b03851660009081526034602052604090206108f0906006018585611f4b565b606081336001600160a01b0382168114806119fc575060335460408051600160e01b633d5840630281526001600160a01b03858116600483015291519190921691633d584063916024808301926020929190829003018186803b1580156119c157600080fd5b505afa1580156119d5573d6000803e3d6000fd5b505050506040513d60208110156119eb57600080fd5b50516001600160a01b038281169116145b80611a1457506035546001600160a01b038281169116145b611a1d57600080fd5b6001600160a01b03841660009081526034602090815260409182902060060180548351601f600260001961010060018616150201909316929092049182018490048402810184019094528084529091830182828015610a785780601f10610a4d57610100808354040283529160200191610a78565b603380546001600160a01b039092166001600160a01b03199283161790556035805490911633179055565b82336001600160a01b038216811480611b5c575060335460408051600160e01b633d5840630281526001600160a01b03858116600483015291519190921691633d584063916024808301926020929190829003018186803b158015611b2157600080fd5b505afa158015611b35573d6000803e3d6000fd5b505050506040513d6020811015611b4b57600080fd5b50516001600160a01b038281169116145b80611b7457506035546001600160a01b038281169116145b611b7d57600080fd5b6001600160a01b0385166000908152603460205260409020611ba3906001018585611f4b565b505050505050565b600081336001600160a01b038216811480611c4c575060335460408051600160e01b633d5840630281526001600160a01b03858116600483015291519190921691633d584063916024808301926020929190829003018186803b158015611c1157600080fd5b505afa158015611c25573d6000803e3d6000fd5b505050506040513d6020811015611c3b57600080fd5b50516001600160a01b038281169116145b80611c6457506035546001600160a01b038281169116145b611c6d57600080fd5b5050506001600160a01b03166000908152603460205260409020600c015490565b82336001600160a01b038216811480611d2d575060335460408051600160e01b633d5840630281526001600160a01b03858116600483015291519190921691633d584063916024808301926020929190829003018186803b158015611cf257600080fd5b505afa158015611d06573d6000803e3d6000fd5b505050506040513d6020811015611d1c57600080fd5b50516001600160a01b038281169116145b80611d4557506035546001600160a01b038281169116145b611d4e57600080fd5b50506001600160a01b0390921660009081526034602052604090206008810191909155600981019190915560019055565b81336001600160a01b038216811480611e1e575060335460408051600160e01b633d5840630281526001600160a01b03858116600483015291519190921691633d584063916024808301926020929190829003018186803b158015611de357600080fd5b505afa158015611df7573d6000803e3d6000fd5b505050506040513d6020811015611e0d57600080fd5b50516001600160a01b038281169116145b80611e3657506035546001600160a01b038281169116145b611e3f57600080fd5b50506001600160a01b039091166000908152603460205260409020600b81019190915560019055565b600081336001600160a01b038216811480611f09575060335460408051600160e01b633d5840630281526001600160a01b03858116600483015291519190921691633d584063916024808301926020929190829003018186803b158015611ece57600080fd5b505afa158015611ee2573d6000803e3d6000fd5b505050506040513d6020811015611ef857600080fd5b50516001600160a01b038281169116145b80611f2157506035546001600160a01b038281169116145b611f2a57600080fd5b5050506001600160a01b031660009081526034602052604090206007015490565b828054600181600116156101000203166002900490600052602060002090601f016020900481019282601f10611f8c5782800160ff19823516178555611fb9565b82800160010185558215611fb9579182015b82811115611fb9578235825591602001919060010190611f9e565b50611fc5929150611fc9565b5090565b611fe391905b80821115611fc55760008155600101611fcf565b9056fea165627a7a72305820edc3d9b9d9d9c80aa2d46ea3997f5e48d0783c9ba2d48cf675be306d904c18740029",
    "source": "// (c) Kallol Borah, 2020\r\n// Stores and retrieves client KYC data stored on IPFS\r\n\r\npragma solidity 0.5.7;\r\n\r\nimport \"../interfaces/VerifiedKYC.sol\";\r\nimport \"../interfaces/VerifiedClient.sol\";\r\nimport \"@openzeppelin/upgrades/contracts/Initializable.sol\";\r\n\r\ncontract Kyc is VerifiedKYC, Initializable{\r\n\r\n    //client file for references to various KYC related data\r\n    struct file{\r\n        uint256 kyc_status;\r\n        string kyc_file;\r\n        string fatca_declaration;\r\n        string crs_declaration; \r\n        string photo_id;\r\n        string video_id;\r\n        string address_proof;\r\n        bytes32 country;\r\n        bytes32 name;\r\n        bytes32 surname;\r\n        bytes32 phone;\r\n        bytes32 email;\r\n        bytes32 kyc_paid;\r\n    }\r\n\r\n    //reference of user client\r\n    VerifiedClient private User;\r\n\r\n    //mapping of a client to its kyc data\r\n    mapping(address => file) private client;\r\n\r\n    address admin;\r\n\r\n    //event emitted for kyc acceptance status\r\n    event KycUpdate(address indexed client, bytes32 name, bytes32 surname, uint status);\r\n\r\n    function initialize(address _client) public {\r\n        User = VerifiedClient(_client);\r\n        admin = msg.sender;\r\n    }\r\n\r\n    //setter and getter functions for kyc\r\n    function setStatus(address _client, uint _status) external {\r\n        require(msg.sender==User.getManager(_client));\r\n        client[_client].kyc_status = _status;\r\n        emit KycUpdate(_client, client[_client].name, client[_client].surname, _status);\r\n    } \r\n\r\n    function getStatus(address _client) external view returns(uint){\r\n        return client[_client].kyc_status;\r\n    }\r\n\r\n    modifier onlyPermitted(address _client, address _sender){\r\n        require(_sender==_client || _sender==User.getManager(_client) || _sender==admin);\r\n        _;\r\n    }\r\n\r\n\r\n    function setFile(address _client, string calldata _file) onlyPermitted(_client, msg.sender) external {        \r\n        client[_client].kyc_file = _file;\r\n        //client[_client].kyc_status = 1;\r\n    }\r\n\r\n    function getFile(address _client) onlyPermitted(_client, msg.sender) external view returns(string memory){\r\n        return client[_client].kyc_file;\r\n    }\r\n\r\n    function setFATCA(address _client, string calldata _file) onlyPermitted(_client, msg.sender) external {\r\n        client[_client].fatca_declaration = _file;\r\n        client[_client].kyc_status = 1;\r\n    }\r\n\r\n    function getFATCA(address _client) onlyPermitted(_client, msg.sender) external view returns(string memory){\r\n        return client[_client].fatca_declaration;\r\n    }\r\n\r\n    function setCRS(address _client, string calldata _file) onlyPermitted(_client, msg.sender) external {\r\n        client[_client].crs_declaration = _file;\r\n        client[_client].kyc_status = 1;\r\n    }\r\n\r\n    function getCRS(address _client) onlyPermitted(_client, msg.sender) external view returns(string memory){\r\n        return client[_client].crs_declaration;\r\n    }\r\n\r\n    function setPhotoID(address _client, string calldata _file) onlyPermitted(_client, msg.sender) external {\r\n        client[_client].photo_id = _file;\r\n        client[_client].kyc_status = 1;\r\n    }\r\n\r\n    function getPhotoID(address _client) onlyPermitted(_client, msg.sender) external view returns(string memory){\r\n        return client[_client].photo_id;\r\n    }\r\n\r\n    function setVideoID(address _client, string calldata _file) onlyPermitted(_client, msg.sender) external {\r\n        client[_client].video_id = _file;\r\n        client[_client].kyc_status = 1;\r\n    }\r\n\r\n    function getVideoID(address _client) onlyPermitted(_client, msg.sender) external view returns(string memory){\r\n        return client[_client].video_id;\r\n    }\r\n\r\n    function setAddress(address _client, string calldata _file) onlyPermitted(_client, msg.sender) external {\r\n        client[_client].address_proof = _file;\r\n        client[_client].kyc_status = 1;\r\n    }\r\n\r\n    function getAddress(address _client) onlyPermitted(_client, msg.sender) external view returns(string memory){\r\n        return client[_client].address_proof;\r\n    }\r\n\r\n    function setCountry(address _client, bytes32 _country) onlyPermitted(_client, msg.sender) external {\r\n        client[_client].country = _country;\r\n        client[_client].kyc_status = 1;\r\n    }\r\n\r\n    function getCountry(address _client) onlyPermitted(_client, msg.sender) external view returns(bytes32){\r\n        return client[_client].country;\r\n    }\r\n\r\n    function setName(address _client, bytes32 _name, bytes32 _surname) onlyPermitted(_client, msg.sender) external {\r\n        client[_client].name = _name;\r\n        client[_client].surname = _surname;\r\n        client[_client].kyc_status = 1;\r\n    }\r\n\r\n    function getName(address _client) onlyPermitted(_client, msg.sender) external view returns(bytes32, bytes32){\r\n        return (client[_client].name, client[_client].surname);\r\n    }\r\n\r\n    function setPhone(address _client, bytes32 _phone) onlyPermitted(_client, msg.sender) external {\r\n        client[_client].phone = _phone;\r\n        client[_client].kyc_status = 1;\r\n    }\r\n\r\n    function getPhone(address _client) onlyPermitted(_client, msg.sender) external view returns(bytes32){\r\n        return client[_client].phone;\r\n    }    \r\n\r\n    function setEmail(address _client, bytes32 _email) onlyPermitted(_client, msg.sender) external {\r\n        client[_client].email = _email;\r\n        client[_client].kyc_status = 1;\r\n    }\r\n\r\n    function getEmail(address _client) onlyPermitted(_client, msg.sender) external view returns(bytes32){\r\n        return client[_client].email;\r\n    }   \r\n\r\n    function setKYCPaid(address _client, bytes32 _paid) external {\r\n        require(msg.sender==User.getManager(_client) || msg.sender==admin);\r\n        client[_client].kyc_paid = _paid;\r\n    }\r\n\r\n    function getKYCPaid(address _client) onlyPermitted(_client, msg.sender) external view returns(bytes32){\r\n        return client[_client].kyc_paid;\r\n    }\r\n\r\n}\r\n",
    "sourcePath": "D:\\Code\\verified-accounts\\contracts\\kyc\\Kyc.sol",
    "compiler": {
        "name": "solc",
        "version": "0.5.7+commit.6da8b019.Emscripten.clang"
    },
    "schemaVersion": "3.4.3",
    "updatedAt": "2022-04-24T04:42:10.875Z",
    "networkType": "ethereum",
    "devdoc": {
        "methods": {}
    },
    "userdoc": {
        "methods": {}
    }
}