{
  "contractName": "BalancerManager",
  "abi": [
    {
      "anonymous": false,
      "inputs": [
        {
          "indexed": true,
          "internalType": "address",
          "name": "previousOwner",
          "type": "address"
        },
        {
          "indexed": true,
          "internalType": "address",
          "name": "newOwner",
          "type": "address"
        }
      ],
      "name": "OwnershipTransferred",
      "type": "event"
    },
    {
      "inputs": [],
      "name": "factory",
      "outputs": [
        {
          "internalType": "contract IPrimaryIssuePoolFactory",
          "name": "",
          "type": "address"
        }
      ],
      "stateMutability": "view",
      "type": "function",
      "constant": true
    },
    {
      "inputs": [],
      "name": "owner",
      "outputs": [
        {
          "internalType": "address",
          "name": "",
          "type": "address"
        }
      ],
      "stateMutability": "view",
      "type": "function",
      "constant": true
    },
    {
      "inputs": [],
      "name": "renounceOwnership",
      "outputs": [],
      "stateMutability": "nonpayable",
      "type": "function"
    },
    {
      "inputs": [
        {
          "internalType": "address",
          "name": "newOwner",
          "type": "address"
        }
      ],
      "name": "transferOwnership",
      "outputs": [],
      "stateMutability": "nonpayable",
      "type": "function"
    },
    {
      "inputs": [
        {
          "internalType": "address",
          "name": "_factory",
          "type": "address"
        },
        {
          "internalType": "uint256",
          "name": "_swapFeePercentage",
          "type": "uint256"
        },
        {
          "internalType": "address",
          "name": "_vault",
          "type": "address"
        },
        {
          "internalType": "address",
          "name": "_products",
          "type": "address"
        },
        {
          "internalType": "address",
          "name": "_LPToken",
          "type": "address"
        },
        {
          "internalType": "address",
          "name": "_client",
          "type": "address"
        }
      ],
      "name": "initialize",
      "outputs": [],
      "stateMutability": "nonpayable",
      "type": "function"
    },
    {
      "inputs": [
        {
          "internalType": "address",
          "name": "owned",
          "type": "address"
        },
        {
          "internalType": "bytes32",
          "name": "isin",
          "type": "bytes32"
        },
        {
          "internalType": "uint256",
          "name": "offered",
          "type": "uint256"
        },
        {
          "internalType": "address",
          "name": "tomatch",
          "type": "address"
        },
        {
          "internalType": "uint256",
          "name": "desired",
          "type": "uint256"
        },
        {
          "internalType": "uint256",
          "name": "min",
          "type": "uint256"
        }
      ],
      "name": "offer",
      "outputs": [],
      "stateMutability": "nonpayable",
      "type": "function"
    },
    {
      "inputs": [
        {
          "internalType": "address",
          "name": "offered",
          "type": "address"
        }
      ],
      "name": "getOffered",
      "outputs": [
        {
          "components": [
            {
              "internalType": "address",
              "name": "owner",
              "type": "address"
            },
            {
              "internalType": "uint256",
              "name": "amountOffered",
              "type": "uint256"
            },
            {
              "internalType": "uint256",
              "name": "amountDesired",
              "type": "uint256"
            },
            {
              "internalType": "uint256",
              "name": "min",
              "type": "uint256"
            },
            {
              "internalType": "bytes32",
              "name": "isin",
              "type": "bytes32"
            }
          ],
          "internalType": "struct IMarketMaker.token[]",
          "name": "",
          "type": "tuple[]"
        }
      ],
      "stateMutability": "view",
      "type": "function",
      "constant": true
    },
    {
      "inputs": [
        {
          "internalType": "address",
          "name": "_owned",
          "type": "address"
        },
        {
          "internalType": "address",
          "name": "_tomatch",
          "type": "address"
        }
      ],
      "name": "getOfferMade",
      "outputs": [
        {
          "components": [
            {
              "internalType": "address",
              "name": "owner",
              "type": "address"
            },
            {
              "internalType": "uint256",
              "name": "amountOffered",
              "type": "uint256"
            },
            {
              "internalType": "uint256",
              "name": "amountDesired",
              "type": "uint256"
            },
            {
              "internalType": "uint256",
              "name": "min",
              "type": "uint256"
            },
            {
              "internalType": "bytes32",
              "name": "isin",
              "type": "bytes32"
            }
          ],
          "internalType": "struct IMarketMaker.token[]",
          "name": "",
          "type": "tuple[]"
        }
      ],
      "stateMutability": "view",
      "type": "function",
      "constant": true
    },
    {
      "inputs": [
        {
          "internalType": "address",
          "name": "_security",
          "type": "address"
        }
      ],
      "name": "getLiquidityProviders",
      "outputs": [
        {
          "components": [
            {
              "internalType": "address",
              "name": "owner",
              "type": "address"
            },
            {
              "internalType": "address",
              "name": "tokenOffered",
              "type": "address"
            },
            {
              "internalType": "uint256",
              "name": "underwritten",
              "type": "uint256"
            },
            {
              "internalType": "uint256",
              "name": "subscribed",
              "type": "uint256"
            },
            {
              "internalType": "uint256",
              "name": "earned",
              "type": "uint256"
            }
          ],
          "internalType": "struct IMarketMaker.lp[]",
          "name": "",
          "type": "tuple[]"
        }
      ],
      "stateMutability": "view",
      "type": "function",
      "constant": true
    },
    {
      "inputs": [
        {
          "internalType": "uint256",
          "name": "amount",
          "type": "uint256"
        },
        {
          "internalType": "address",
          "name": "manager",
          "type": "address"
        }
      ],
      "name": "stake",
      "outputs": [],
      "stateMutability": "nonpayable",
      "type": "function"
    },
    {
      "inputs": [],
      "name": "getAllotedStake",
      "outputs": [
        {
          "internalType": "uint256",
          "name": "",
          "type": "uint256"
        }
      ],
      "stateMutability": "view",
      "type": "function",
      "constant": true
    },
    {
      "inputs": [
        {
          "internalType": "address",
          "name": "security",
          "type": "address"
        },
        {
          "internalType": "uint256",
          "name": "cutoffTime",
          "type": "uint256"
        }
      ],
      "name": "issue",
      "outputs": [],
      "stateMutability": "nonpayable",
      "type": "function"
    },
    {
      "inputs": [
        {
          "internalType": "bytes32",
          "name": "poolId",
          "type": "bytes32"
        },
        {
          "internalType": "address",
          "name": "security",
          "type": "address"
        },
        {
          "internalType": "address",
          "name": "assetIn",
          "type": "address"
        },
        {
          "internalType": "bytes32",
          "name": "assetName",
          "type": "bytes32"
        },
        {
          "internalType": "uint256",
          "name": "amount",
          "type": "uint256"
        },
        {
          "internalType": "address",
          "name": "investor",
          "type": "address"
        },
        {
          "internalType": "uint256",
          "name": "price",
          "type": "uint256"
        }
      ],
      "name": "subscribe",
      "outputs": [],
      "stateMutability": "nonpayable",
      "type": "function"
    },
    {
      "inputs": [
        {
          "internalType": "bytes32",
          "name": "poolId",
          "type": "bytes32"
        }
      ],
      "name": "getSubscribers",
      "outputs": [
        {
          "components": [
            {
              "internalType": "address",
              "name": "investor",
              "type": "address"
            },
            {
              "internalType": "address",
              "name": "asset",
              "type": "address"
            },
            {
              "internalType": "bytes32",
              "name": "name",
              "type": "bytes32"
            },
            {
              "internalType": "uint256",
              "name": "amount",
              "type": "uint256"
            },
            {
              "internalType": "uint256",
              "name": "price",
              "type": "uint256"
            }
          ],
          "internalType": "struct IMarketMaker.subscriptions[]",
          "name": "",
          "type": "tuple[]"
        }
      ],
      "stateMutability": "view",
      "type": "function",
      "constant": true
    },
    {
      "inputs": [
        {
          "internalType": "address",
          "name": "security",
          "type": "address"
        }
      ],
      "name": "close",
      "outputs": [
        {
          "internalType": "bytes32[]",
          "name": "",
          "type": "bytes32[]"
        },
        {
          "internalType": "bool",
          "name": "",
          "type": "bool"
        }
      ],
      "stateMutability": "view",
      "type": "function",
      "constant": true
    },
    {
      "inputs": [
        {
          "internalType": "bytes32",
          "name": "poolid",
          "type": "bytes32"
        },
        {
          "internalType": "address",
          "name": "investor",
          "type": "address"
        },
        {
          "internalType": "uint256",
          "name": "amnt",
          "type": "uint256"
        },
        {
          "internalType": "address",
          "name": "asset",
          "type": "address"
        }
      ],
      "name": "accept",
      "outputs": [],
      "stateMutability": "nonpayable",
      "type": "function"
    },
    {
      "inputs": [
        {
          "internalType": "bytes32",
          "name": "poolid",
          "type": "bytes32"
        },
        {
          "internalType": "address",
          "name": "investor",
          "type": "address"
        }
      ],
      "name": "reject",
      "outputs": [],
      "stateMutability": "nonpayable",
      "type": "function"
    },
    {
      "inputs": [
        {
          "internalType": "bytes32",
          "name": "poolId",
          "type": "bytes32"
        }
      ],
      "name": "settle",
      "outputs": [],
      "stateMutability": "nonpayable",
      "type": "function"
    },
    {
      "inputs": [],
      "name": "getOwner",
      "outputs": [
        {
          "internalType": "address",
          "name": "",
          "type": "address"
        }
      ],
      "stateMutability": "view",
      "type": "function",
      "constant": true
    }
  ],
  "bytecode": "0x6080604052600060035534801561001557600080fd5b50600080546001600160a01b0319163390811782556040519091907f8be0079c531659141344cd1fd0a4f28419497f9722a3daafe3b4186f6b6457e0908290a3613af4806100646000396000f3fe608060405234801561001057600080fd5b50600436106101215760003560e01c80638da5cb5b116100ad578063bfa0caa711610071578063bfa0caa714610243578063c45a015514610263578063c74073a11461026b578063f2fde38b1461028c578063f7efef101461029f57610121565b80638da5cb5b146101e05780639701bbc3146101e8578063987757dd146102085780639d4c40051461021b578063a2dc2ab71461023057610121565b80637acb7757116100f45780637acb775714610169578063867904b41461017c57806388c4b6ee1461018f578063893d20e8146101b85780638a0c62f1146101cd57610121565b806333d019bb146101265780633f0990281461013b5780636c0afebc1461014e578063715018a614610161575b600080fd5b6101396101343660046133d9565b6102b2565b005b610139610149366004613527565b610484565b61013961015c36600461354b565b610637565b6101396107bc565b610139610177366004613527565b610824565b61013961018a366004613434565b6109a8565b6101a261019d366004613369565b61201a565b6040516101af9190613829565b60405180910390f35b6101c06120c9565b6040516101af91906136fc565b6101396101db3660046135bc565b6120d8565b6101c0612631565b6101fb6101f6366004613369565b612640565b6040516101af919061390f565b6101396102163660046134f7565b612780565b610223612a53565b6040516101af9190613a55565b61013961023e36600461345f565b612a66565b6102566102513660046134f7565b612b52565b6040516101af919061389c565b6101c0612be9565b61027e610279366004613369565b612bf8565b6040516101af929190613767565b61013961029a366004613369565b612da5565b6101fb6102ad3660046133a1565b612e23565b601354604051633ea6c82d60e01b81526001600160a01b0390911690633ea6c82d906102e29033906004016136fc565b60206040518083038186803b1580156102fa57600080fd5b505afa15801561030e573d6000803e3d6000fd5b505050506040513d601f19601f8201168201806040525081019061033291906134d7565b151560011461034057600080fd5b60185460ff161561035057600080fd5b6018805460ff191660011790556040516370a0823160e01b815284906001600160a01b038816906370a082319061038b9033906004016136fc565b60206040518083038186803b1580156103a357600080fd5b505afa1580156103b7573d6000803e3d6000fd5b505050506040513d601f19601f820116820180604052508101906103db919061350f565b10610472576040516323b872dd60e01b81526001600160a01b038716906323b872dd9061041090339030908990600401613710565b602060405180830381600087803b15801561042a57600080fd5b505af115801561043e573d6000803e3d6000fd5b505050506040513d601f19601f8201168201806040525081019061046291906134d7565b5061047233878787878787612f70565b50506018805460ff1916905550505050565b601354604051633ea6c82d60e01b815233916001600160a01b031690633ea6c82d906104b49084906004016136fc565b60206040518083038186803b1580156104cc57600080fd5b505afa1580156104e0573d6000803e3d6000fd5b505050506040513d601f19601f8201168201806040525081019061050491906134d7565b151560011461051257600080fd5b6000838152600f602090815260408083206001600160a01b03861684529091529020548015610631576000848152600e602052604090208054600019830190811061055957fe5b906000526020600020906005020160010160009054906101000a90046001600160a01b03166001600160a01b031663a9059cbb84600e600088815260200190815260200160002060018503815481106105ae57fe5b9060005260206000209060050201600301546040518363ffffffff1660e01b81526004016105dd92919061374e565b602060405180830381600087803b1580156105f757600080fd5b505af115801561060b573d6000803e3d6000fd5b505050506040513d601f19601f8201168201806040525081019061062f91906134d7565b505b50505050565b8686806001600160a01b03166338fff2d06040518163ffffffff1660e01b8152600401602060405180830381600087803b15801561067457600080fd5b505af1158015610688573d6000803e3d6000fd5b505050506040513d601f19601f820116820180604052508101906106ac919061350f565b82146106b757600080fd5b6000898152600e60209081526040808320815160a0810183526001600160a01b03808a168083528d82168387018181528487018f8152606086018f8152608087018e8152885460018181018b558a8e528c8e209951600590920290990180549189166001600160a01b031992831617815594519885018054999098169816979097179095555160028201559251600384015592516004909201919091558e86529154600f8552838620928652918452828520919091558c84526010835281842090845290915290205461078a90866130f2565b6000998a52601060209081526040808c206001600160a01b03909a168c52989052969098209590955550505050505050565b6107da336107c8612631565b6001600160a01b0316146101aa61310b565b600080546040516001600160a01b03909116907f8be0079c531659141344cd1fd0a4f28419497f9722a3daafe3b4186f6b6457e0908390a3600080546001600160a01b0319169055565b60155433906001600160a01b0316811461083d57600080fd5b6040516370a0823160e01b8152839033906370a08231906108629030906004016136fc565b60206040518083038186803b15801561087a57600080fd5b505afa15801561088e573d6000803e3d6000fd5b505050506040513d601f19601f820116820180604052508101906108b2919061350f565b10156108d95760405162461bcd60e51b81526004016108d090613979565b60405180910390fd5b6108e5601654846130f2565b6016556040516323b872dd60e01b815233906323b872dd9061090f90309086908890600401613710565b602060405180830381600087803b15801561092957600080fd5b505af115801561093d573d6000803e3d6000fd5b505050506040513d601f19601f8201168201806040525081019061096191906134d7565b156109a3576001600160a01b03821660009081526017602052604090205461098990846130f2565b6001600160a01b0383166000908152601760205260409020555b505050565b601354604051633ea6c82d60e01b815233916001600160a01b031690633ea6c82d906109d89084906004016136fc565b60206040518083038186803b1580156109f057600080fd5b505afa158015610a04573d6000803e3d6000fd5b505050506040513d601f19601f82011682018060405250810190610a2891906134d7565b1515600114610a3657600080fd5b6001600160a01b0383166000818152600560205260409020546004805491929183908110610a6057fe5b6000918252602090912001546001600160a01b0316141561063157604080516002808252606080830184529260208301908036833701905050905060048281548110610aa857fe5b600091825260208220015482516001600160a01b03909116918391610ac957fe5b60200260200101906001600160a01b031690816001600160a01b03168152505060005b600454811015611ad657856001600160a01b031660048281548110610b0d57fe5b6000918252602090912001546001600160a01b031614611ace57336001600160a01b03166007600060048681548110610b4257fe5b60009182526020808320909101546001600160a01b0316835282019290925260400181206004805491929185908110610b7757fe5b60009182526020808320909101546001600160a01b0316835282019290925260400181208054909190610ba657fe5b60009182526020909120600590910201546001600160a01b03161415611ace5760005b6007600060048481548110610bda57fe5b60009182526020808320909101546001600160a01b0316835282019290925260400181206004805491929187908110610c0f57fe5b60009182526020808320909101546001600160a01b03168352820192909252604001902054811015611acc576007600060048681548110610c4c57fe5b60009182526020808320909101546001600160a01b0316835282019290925260400181206004805491929185908110610c8157fe5b60009182526020808320909101546001600160a01b0316835282019290925260400181208054909190610cb057fe5b906000526020600020906005020160010154600014611ac4576007600060048481548110610cda57fe5b60009182526020808320909101546001600160a01b0316835282019290925260400181206004805491929187908110610d0f57fe5b60009182526020808320909101546001600160a01b031683528201929092526040019020805482908110610d3f57fe5b906000526020600020906005020160010154600014611ac457610e706007600060048581548110610d6c57fe5b60009182526020808320909101546001600160a01b0316835282019290925260400181206004805491929188908110610da157fe5b60009182526020808320909101546001600160a01b031683528201929092526040019020805483908110610dd157fe5b9060005260206000209060050201600101546007600060048681548110610df457fe5b60009182526020808320909101546001600160a01b0316835282019290925260400181206004805491929189908110610e2957fe5b60009182526020808320909101546001600160a01b031683528201929092526040019020805484908110610e5957fe5b90600052602060002090600502016002015461311d565b610f866007600060048881548110610e8457fe5b60009182526020808320909101546001600160a01b0316835282019290925260400181206004805491929187908110610eb957fe5b60009182526020808320909101546001600160a01b0316835282019290925260400181208054909190610ee857fe5b9060005260206000209060050201600301546007600060048981548110610f0b57fe5b60009182526020808320909101546001600160a01b0316835282019290925260400181206004805491929188908110610f4057fe5b60009182526020808320909101546001600160a01b0316835282019290925260400181208054909190610f6f57fe5b90600052602060002090600502016001015461311d565b10611ac4576001600160a01b03871660009081526009602052604081206004805491929185908110610fb457fe5b60009182526020808320909101546001600160a01b03168352820192909252604001902054611089576001600160a01b0387166000908152600860205260409020600480548490811061100357fe5b6000918252602080832090910154835460018101855593835281832090930180546001600160a01b0319166001600160a01b0394851617905591891681526008825260408082205460099093528120600480549192918690811061106357fe5b60009182526020808320909101546001600160a01b031683528201929092526040019020555b6001600160a01b0387166000908152600a6020526040812060048054919291859081106110b257fe5b60009182526020808320909101546001600160a01b031683528201929092526040018120546004805491926110ef926007929089908110610e8457fe5b108061114657506001600160a01b0387166000908152600a60205260408120600480549192918590811061111f57fe5b60009182526020808320909101546001600160a01b03168352820192909252604001902054155b1561126a5761121b600760006004878154811061115f57fe5b60009182526020808320909101546001600160a01b031683528201929092526040018120600480549192918690811061119457fe5b60009182526020808320909101546001600160a01b03168352820192909252604001812080549091906111c357fe5b90600052602060002090600502016003015460076000600488815481106111e657fe5b60009182526020808320909101546001600160a01b0316835282019290925260400181206004805491929187908110610f4057fe5b6001600160a01b0388166000908152600a60205260408120600480549192918690811061124457fe5b60009182526020808320909101546001600160a01b031683528201929092526040019020555b6001600160a01b0387166000908152600a60205260408120600480549192918590811061129357fe5b60009182526020808320909101546001600160a01b031683528201929092526040018120600101546004805491926113d79260079290879081106112d357fe5b60009182526020808320909101546001600160a01b031683528201929092526040018120600480549192918990811061130857fe5b60009182526020808320909101546001600160a01b03168352820192909252604001902080548490811061133857fe5b906000526020600020906005020160010154600760006004878154811061135b57fe5b60009182526020808320909101546001600160a01b031683528201929092526040018120600480549192918a90811061139057fe5b60009182526020808320909101546001600160a01b0316835282019290925260400190208054859081106113c057fe5b90600052602060002090600502016003015461311d565b1115611530576114de60076000600485815481106113f157fe5b60009182526020808320909101546001600160a01b031683528201929092526040018120600480549192918890811061142657fe5b60009182526020808320909101546001600160a01b03168352820192909252604001902080548390811061145657fe5b906000526020600020906005020160010154600760006004868154811061147957fe5b60009182526020808320909101546001600160a01b03168352820192909252604001812060048054919291899081106114ae57fe5b60009182526020808320909101546001600160a01b0316835282019290925260400190208054849081106113c057fe5b6001600160a01b0388166000908152600a60205260408120600480549192918690811061150757fe5b60009182526020808320909101546001600160a01b031683528201929092526040019020600101555b6001600160a01b0387166000908152600a602052604081206004805461162a9391908690811061155c57fe5b9060005260206000200160009054906101000a90046001600160a01b03166001600160a01b03166001600160a01b031681526020019081526020016000206002015460076000600488815481106115af57fe5b60009182526020808320909101546001600160a01b03168352820192909252604001812060048054919291879081106115e457fe5b60009182526020808320909101546001600160a01b031683528201929092526040018120805490919061161357fe5b9060005260206000209060050201600101546130f2565b6001600160a01b0388166000908152600a60205260408120600480549192918690811061165357fe5b60009182526020808320909101546001600160a01b039081168452838201949094526040928301822060020194909455918a168252600a9092529081206004805461175c939190869081106116a457fe5b9060005260206000200160009054906101000a90046001600160a01b03166001600160a01b03166001600160a01b031681526020019081526020016000206003015460076000600486815481106116f757fe5b60009182526020808320909101546001600160a01b031683528201929092526040018120600480549192918990811061172c57fe5b60009182526020808320909101546001600160a01b03168352820192909252604001902080548490811061161357fe5b6001600160a01b0388166000908152600a60205260408120600480549192918690811061178557fe5b60009182526020808320909101546001600160a01b031683528201929092526040019020600301556117b56131ca565b6040518060a0016040528060076000600487815481106117d157fe5b60009182526020808320909101546001600160a01b031683528201929092526040018120600480549192918a90811061180657fe5b60009182526020808320909101546001600160a01b03168352820192909252604001902080548590811061183657fe5b6000918252602091829020600590910201546001600160a01b031682526004805492909101918690811061186657fe5b9060005260206000200160009054906101000a90046001600160a01b03166001600160a01b0316815260200160076000600487815481106118a357fe5b60009182526020808320909101546001600160a01b031683528201929092526040018120600480549192918a9081106118d857fe5b60009182526020808320909101546001600160a01b03168352820192909252604001902080548590811061190857fe5b90600052602060002090600502016001015481526020016000815260200160008152509050600b60006004878154811061193e57fe5b60009182526020808320909101546001600160a01b0390811684528382019490945260409283018220805460018181018355918452828420875160059092020180549187166001600160a01b0319928316178155928701519183018054929096169116179093559083015160028301556060830151600383015560808301516004928301558154611a8c92600c9291899081106119d757fe5b9060005260206000200160009054906101000a90046001600160a01b03166001600160a01b03166001600160a01b03168152602001908152602001600020546007600060048781548110611a2757fe5b60009182526020808320909101546001600160a01b031683528201929092526040018120600480549192918a908110611a5c57fe5b60009182526020808320909101546001600160a01b03168352820192909252604001902080548590811061161357fe5b600c600060048881548110611a9d57fe5b60009182526020808320909101546001600160a01b03168352820192909252604001902055505b600101610bc9565b505b600101610aec565b5060005b6001600160a01b038616600090815260086020526040902054811015611ff8576001600160a01b0386166000908152600860205260408120805483908110611b1e57fe5b9060005260206000200160009054906101000a90046001600160a01b031690508083600181518110611b4c57fe5b60200260200101906001600160a01b031690816001600160a01b031681525050611b7461320b565b604051806101200160405280896001600160a01b03166306fdde036040518163ffffffff1660e01b815260040160006040518083038186803b158015611bb957600080fd5b505afa158015611bcd573d6000803e3d6000fd5b505050506040513d6000823e601f3d908101601f19168201604052611bf59190810190613628565b8152602001896001600160a01b03166395d89b416040518163ffffffff1660e01b815260040160006040518083038186803b158015611c3357600080fd5b505afa158015611c47573d6000803e3d6000fd5b505050506040513d6000823e601f3d908101601f19168201604052611c6f9190810190613628565b815260200185600081518110611c8157fe5b60200260200101516001600160a01b0316815260200185600181518110611ca457fe5b6020908102919091018101516001600160a01b0390811683528b81166000908152600a83526040808220888416808452818652828420805488880152600180820154858a015291855291909552600201546060860152600354608086015260a09094018c90529154925163d4cc468760e01b8152939450909291169063d4cc468790611d349085906004016139b0565b602060405180830381600087803b158015611d4e57600080fd5b505af1158015611d62573d6000803e3d6000fd5b505050506040513d601f19601f82011682018060405250810190611d869190613385565b6001600160a01b03808b1660009081526007602090815260408083209388168352929052908120805492935091611db957fe5b600091825260208083206005909202909101546001600160a01b038c81168452600d835260408085206003810180546001600160a01b031916948416949094179093558c83554260019390930192909255815163038fff2d60e41b81529151908516926338fff2d0926004808201939182900301818787803b158015611e3e57600080fd5b505af1158015611e52573d6000803e3d6000fd5b505050506040513d601f19601f82011682018060405250810190611e76919061350f565b6001600160a01b038b166000908152600d6020526040902060020180549192508291fe5b611ea2613269565b815260200190600190039081611e9a5790505060408051608081019091529091508060008152602001838152602001866001600160a01b03168152602001600a60008e6001600160a01b03166001600160a01b031681526020019081526020016000206000886001600160a01b03166001600160a01b031681526020019081526020016000206002015481525081600081518110611f3c57fe5b6020908102919091010152600254604051637362304960e11b81526001600160a01b039091169063e6c4609290611f779084906004016137b2565b600060405180830381600087803b158015611f9157600080fd5b505af1158015611fa5573d6000803e3d6000fd5b505050506001600160a01b038b81166000908152600a6020908152604080832098909316825296909652852085815560018082018790556002820187905560039091019590955550505091019050611ada565b506001600160a01b038516600090815260086020526040812061062f91613292565b6001600160a01b0381166000908152600b60209081526040808320805482518185028101850190935280835260609492939192909184015b828210156120be5760008481526020908190206040805160a0810182526005860290920180546001600160a01b03908116845260018083015490911684860152600282015492840192909252600381015460608401526004015460808301529083529092019101612052565b505050509050919050565b60006120d3612631565b905090565b601354604051633ea6c82d60e01b815233916001600160a01b031690633ea6c82d906121089084906004016136fc565b60206040518083038186803b15801561212057600080fd5b505afa158015612134573d6000803e3d6000fd5b505050506040513d601f19601f8201168201806040525081019061215891906134d7565b151560011461216657600080fd5b6000858152600f602090815260408083206001600160a01b038816845290915281205480156121cd576000878152600e6020526040902080546121ca91849160001985019081106121b357fe5b9060005260206000209060050201600301546130f2565b91505b6000878152601160209081526040808320548151632541897f60e01b815291516001600160a01b0390911692632541897f9260048082019391829003018186803b15801561221a57600080fd5b505afa15801561222e573d6000803e3d6000fd5b505050506040513d601f19601f820116820180604052508101906122529190613385565b9050846001600160a01b031663a9059cbb8861226e868a61313d565b6040518363ffffffff1660e01b815260040161228b92919061374e565b602060405180830381600087803b1580156122a557600080fd5b505af11580156122b9573d6000803e3d6000fd5b505050506040513d601f19601f820116820180604052508101906122dd91906134d7565b50600091505b6001600160a01b0381166000908152600b6020526040902054821015612627576001600160a01b038181166000908152600b602052604090208054918716918490811061232c57fe5b60009182526020909120600160059092020101546001600160a01b031614801561235557508515155b1561261c576001600160a01b0381166000908152600c6020908152604080832054600b909252822080548590811061238957fe5b906000526020600020906005020160020154816123a257fe5b60008b81526010602090815260408083206001600160a01b038c168452909152812054929091049250906123d7908390613153565b9050878111156124fb57866001600160a01b031663a9059cbb600b6000866001600160a01b03166001600160a01b03168152602001908152602001600020868154811061242057fe5b60009182526020909120600590910201546040516001600160e01b031960e084901b16815261245d916001600160a01b0316908c9060040161374e565b602060405180830381600087803b15801561247757600080fd5b505af115801561248b573d6000803e3d6000fd5b505050506040513d601f19601f820116820180604052508101906124af91906134d7565b506001600160a01b0383166000908152600b6020526040902080546124f19190869081106124d957fe5b906000526020600020906005020160030154896130f2565b5060009750612619565b866001600160a01b031663a9059cbb600b6000866001600160a01b03166001600160a01b03168152602001908152602001600020868154811061253a57fe5b60009182526020909120600590910201546040516001600160e01b031960e084901b168152612577916001600160a01b031690859060040161374e565b602060405180830381600087803b15801561259157600080fd5b505af11580156125a5573d6000803e3d6000fd5b505050506040513d601f19601f820116820180604052508101906125c991906134d7565b506001600160a01b0383166000908152600b60205260409020805461260b9190869081106125f357fe5b906000526020600020906005020160030154826130f2565b50612616888261313d565b97505b50505b6001909101906122e3565b5050505050505050565b6000546001600160a01b031690565b601454604051634427673360e01b815260609133916000916001600160a01b0316906344276733906126769085906004016136fc565b604080518083038186803b15801561268d57600080fd5b505afa1580156126a1573d6000803e3d6000fd5b505050506040513d601f19601f820116820180604052508101906126c59190613605565b5090508061414d60f01b146126d957600080fd5b6001600160a01b038416600090815260066020908152604080832080548251818502810185019093528083529193909284015b828210156127735760008481526020908190206040805160a0810182526005860290920180546001600160a01b031683526001808201548486015260028201549284019290925260038101546060840152600401546080830152908352909201910161270c565b5050505092505050919050565b601354604051633ea6c82d60e01b815233916001600160a01b031690633ea6c82d906127b09084906004016136fc565b60206040518083038186803b1580156127c857600080fd5b505afa1580156127dc573d6000803e3d6000fd5b505050506040513d601f19601f8201168201806040525081019061280091906134d7565b151560011461280e57600080fd5b6000828152601160205260408082205481516374fd6c7760e11b815291516001600160a01b039091169263e9fad8ee926004808201939182900301818387803b15801561285a57600080fd5b505af115801561286e573d6000803e3d6000fd5b5050506000838152601260209081526040808320546001600160a01b03168352600c9091528120546003549092506128a7908390613153565b90506000805b6000868152601260209081526040808320546001600160a01b03168352600b909152902054811015612a3b576000868152601260209081526040808320546001600160a01b03168352600b909152902080548591908390811061290c57fe5b9060005260206000209060050201600201548161292557fe5b60155491900492506001600160a01b031663451353f16129458585613153565b6000898152601260209081526040808320546001600160a01b03168352600b909152902080548590811061297557fe5b60009182526020808320600160059093020191909101548b8352601282526040808420546001600160a01b039081168552600b9093529092208054919092169190869081106129c057fe5b60009182526020909120600590910201546040516001600160e01b031960e086901b1681526129fd9392916001600160a01b031690600401613a5e565b600060405180830381600087803b158015612a1757600080fd5b505af1158015612a2b573d6000803e3d6000fd5b5050600190920191506128ad9050565b506000858152600e6020526040812061062f916132b3565b3360009081526017602052604090205490565b612a72336107c8612631565b600180546001600160a01b038089166001600160a01b03199283161790925560028054878416908316179055600387905560138054868416921691909117908190551663ad86bc3830612ac3612631565b6040518363ffffffff1660e01b8152600401612ae0929190613734565b600060405180830381600087803b158015612afa57600080fd5b505af1158015612b0e573d6000803e3d6000fd5b5050601480546001600160a01b039485166001600160a01b031991821617909155601580549590941694169390931790915550506018805460ff1916905550505050565b6000818152600e602090815260408083208054825181850281018501909352808352606094929391929091840182156120be5760008481526020908190206040805160a0810182526005860290920180546001600160a01b03908116845260018083015490911684860152600282015492840192909252600381015460608401526004015460808301529083529092019101612052565b6001546001600160a01b031681565b601354604051633ea6c82d60e01b815260609160009133916001600160a01b031690633ea6c82d90612c2e9084906004016136fc565b60206040518083038186803b158015612c4657600080fd5b505afa158015612c5a573d6000803e3d6000fd5b505050506040513d601f19601f82011682018060405250810190612c7e91906134d7565b1515600114612c8c57600080fd5b6001600160a01b0384166000908152600d6020526040902054421115612d3157600d6000856001600160a01b03166001600160a01b03168152602001908152602001600020600201600181805480602002602001604051908101604052809291908181526020018280548015612d2157602002820191906000526020600020905b815481526020019060010190808311612d0d575b5050505050915092509250612d9f565b6001600160a01b0384166000908152600d602090815260408083206002018054825181850281018501909352808352909392849190830182828015612d215760200282019190600052602060002090815481526020019060010190808311612d0d5750505050509150925092505b50915091565b612db1336107c8612631565b612dc86001600160a01b03821615156101ab61310b565b600080546040516001600160a01b03808516939216917f8be0079c531659141344cd1fd0a4f28419497f9722a3daafe3b4186f6b6457e091a3600080546001600160a01b0319166001600160a01b0392909216919091179055565b601454604051634427673360e01b815260609133916000916001600160a01b031690634427673390612e599085906004016136fc565b604080518083038186803b158015612e7057600080fd5b505afa158015612e84573d6000803e3d6000fd5b505050506040513d601f19601f82011682018060405250810190612ea89190613605565b5090508061414d60f01b14612ebc57600080fd5b6001600160a01b038086166000908152600760209081526040808320938816835292815282822080548451818402810184019095528085529092909184015b82821015612f625760008481526020908190206040805160a0810182526005860290920180546001600160a01b0316835260018082015484860152600282015492840192909252600381015460608401526004015460808301529083529092019101612efb565b505050509250505092915050565b612f786132d4565b506040805160a0810182526001600160a01b03808a168252602080830188815283850187815260608501878152608086018c81528d86166000818152600787528981208d89168083528189528b83208054838b52600180820183558286528b86208e516005808502909201805491909f166001600160a01b0319918216178f559b518e830155995160028e0155975160038d0155955160049b8c01558a54858552978a528c84208890559587019099557f8a35acfbc15ff81a39ae7d344fd709f28e8600b4aa8c65c6b64bfe7fe36bd19b9095018054909616909117909455858452600685529683209490925290915280549293928390811061307757fe5b6000918252602080832084546001818101875595855291909320600592830290930180549190920290920180546001600160a01b0319166001600160a01b0390931692909217825582810154928201929092556002808301549082015560038083015490820155600491820154910155505050505050505050565b6000828201613104848210158361310b565b9392505050565b816131195761311981613177565b5050565b600061312c821515600461310b565b81838161313557fe5b049392505050565b600061314d83831115600161310b565b50900390565b600082820261310484158061317057508385838161316d57fe5b04145b600361310b565b62461bcd60e51b6000908152602060045260076024526642414c23000030600a808404818106603090810160081b95839006959095019082900491820690940160101b939093010160c81b604452606490fd5b6040518060a0016040528060006001600160a01b0316815260200160006001600160a01b031681526020016000815260200160008152602001600081525090565b604051806101200160405280606081526020016060815260200160006001600160a01b0316815260200160006001600160a01b0316815260200160008152602001600081526020016000815260200160008152602001600081525090565b604080516080810190915280600081526000602082018190526040820181905260609091015290565b50805460008255906000526020600020908101906132b0919061330f565b50565b50805460008255600502906000526020600020908101906132b09190613328565b6040518060a0016040528060006001600160a01b03168152602001600081526020016000815260200160008152602001600080191681525090565b5b808211156133245760008155600101613310565b5090565b5b808211156133245780546001600160a01b031990811682556001820180549091169055600060028201819055600382018190556004820155600501613329565b60006020828403121561337a578081fd5b813561310481613aa9565b600060208284031215613396578081fd5b815161310481613aa9565b600080604083850312156133b3578081fd5b82356133be81613aa9565b915060208301356133ce81613aa9565b809150509250929050565b60008060008060008060c087890312156133f1578182fd5b86356133fc81613aa9565b95506020870135945060408701359350606087013561341a81613aa9565b9598949750929560808101359460a0909101359350915050565b60008060408385031215613446578182fd5b823561345181613aa9565b946020939093013593505050565b60008060008060008060c08789031215613477578182fd5b863561348281613aa9565b955060208701359450604087013561349981613aa9565b935060608701356134a981613aa9565b925060808701356134b981613aa9565b915060a08701356134c981613aa9565b809150509295509295509295565b6000602082840312156134e8578081fd5b81518015158114613104578182fd5b600060208284031215613508578081fd5b5035919050565b600060208284031215613520578081fd5b5051919050565b60008060408385031215613539578182fd5b8235915060208301356133ce81613aa9565b600080600080600080600060e0888a031215613565578081fd5b87359650602088013561357781613aa9565b9550604088013561358781613aa9565b9450606088013593506080880135925060a08801356135a581613aa9565b8092505060c0880135905092959891949750929550565b600080600080608085870312156135d1578384fd5b8435935060208501356135e381613aa9565b92506040850135915060608501356135fa81613aa9565b939692955090935050565b60008060408385031215613617578182fd5b505080516020909101519092909150565b600060208284031215613639578081fd5b815167ffffffffffffffff80821115613650578283fd5b818401915084601f830112613663578283fd5b815181811115613671578384fd5b604051601f8201601f191681016020018381118282101715613691578586fd5b6040528181528382016020018710156136a8578485fd5b6136b9826020830160208701613a7d565b9695505050505050565b6001600160a01b03169052565b600081518084526136e8816020860160208601613a7d565b601f01601f19169290920160200192915050565b6001600160a01b0391909116815260200190565b6001600160a01b039384168152919092166020820152604081019190915260600190565b6001600160a01b0392831681529116602082015260400190565b6001600160a01b03929092168252602082015260400190565b604080825283519082018190526000906020906060840190828701845b828110156137a057815184529284019290840190600101613784565b50505093151592019190915250919050565b602080825282518282018190526000919060409081850190868401855b8281101561381c5781518051600381106137e557fe5b85528087015187860152858101516001600160a01b03168686015260609081015190850152608090930192908501906001016137cf565b5091979650505050505050565b602080825282518282018190526000919060409081850190868401855b8281101561381c57815180516001600160a01b031685528681015161386d888701826136c3565b508086015185870152606080820151908601526080908101519085015260a09093019290850190600101613846565b602080825282518282018190526000919060409081850190868401855b8281101561381c57815180516001600160a01b03168552868101516138e0888701826136c3565b508086015185870152606080820151908601526080908101519085015260a090930192908501906001016138b9565b602080825282518282018190526000919060409081850190868401855b8281101561381c57815180516001600160a01b0316855286810151878601528581015186860152606080820151908601526080908101519085015260a0909301929085019060010161392c565b6020808252601f908201527f5374616b656420616d6f756e74206973206e6f7420696e2062616c616e636500604082015260600190565b60006020825282516101208060208501526139cf6101408501836136d0565b91506020850151601f198584030160408601526139ec83826136d0565b9250506040850151613a0160608601826136c3565b506060850151613a1460808601826136c3565b50608085015160a085015260a085015160c085015260c085015160e085015260e0850151610100818187015280870151838701525050508091505092915050565b90815260200190565b9283526001600160a01b03918216602084015216604082015260600190565b60005b83811015613a98578181015183820152602001613a80565b838111156106315750506000910152565b6001600160a01b03811681146132b057600080fdfea2646970667358221220fe6985b8735adc4af24ee9894ba2850cb9aa12a7b0655ebd3f9e3d069f4be06964736f6c63430007010033",
  "immutableReferences": {},
  "source": "// Verified asset manager\r\n// (c) Kallol Borah, Verified Network, 2021\r\n\r\n//\"SPDX-License-Identifier: UNLICENSED\"\r\n\r\npragma solidity ^0.7.1;\r\npragma experimental ABIEncoderV2;\r\n\r\nimport '@balancer-labs/v2-solidity-utils/contracts/openzeppelin/IERC20.sol';\r\nimport '@balancer-labs/v2-solidity-utils/contracts/openzeppelin/ERC20.sol';\r\nimport '@balancer-labs/v2-solidity-utils/contracts/openzeppelin/Ownable.sol';\r\nimport \"@balancer-labs/v2-solidity-utils/contracts/math/Math.sol\";\r\n\r\nimport '@balancer-labs/v2-vault/contracts/interfaces/IVault.sol';\r\nimport '@balancer-labs/v2-vault/contracts/interfaces/IAsset.sol';\r\n\r\nimport './interfaces/IPrimaryIssuePoolFactory.sol';\r\nimport './interfaces/IPrimaryIssuePool.sol';\r\nimport './interfaces/VerifiedProducts.sol';\r\nimport './interfaces/VerifiedClient.sol';\r\nimport './interfaces/IMarketMaker.sol';\r\nimport './interfaces/ILiquidity.sol';\r\n\r\ncontract BalancerManager is IMarketMaker, Ownable{\r\n\r\n    using Math for uint256;\r\n\r\n    // balancer variables\r\n    IPrimaryIssuePoolFactory public factory;\r\n    IVault vault;\r\n    uint256 swapFeePercentage=0;\r\n\r\n    // modifiers\r\n    modifier onlyPool(bytes32 poolId, address security) {\r\n        require(poolId == IPrimaryIssuePool(security).getPoolId());\r\n        _;\r\n    }\r\n\r\n    modifier onlyIssuer(address sender) {\r\n        require(products.checkProduct(sender)==true);\r\n        _;\r\n    }\r\n\r\n    modifier onlyLP(address sender) {\r\n        require(sender==LPToken);\r\n        _;\r\n    }\r\n\r\n    modifier onlyAssetManager(address sender){\r\n        (bytes32 role, ) = client.getRole(sender);\r\n        require(role=='AM');\r\n        _;\r\n    }\r\n\r\n    // list of offered tokens\r\n    address[] internal offeredTokens;\r\n\r\n    // mapping token offered (eg, security token or its corresponding settlement token) to its position in the list of offered tokens\r\n    mapping(address => uint256) private offeredTokenIndex;\r\n\r\n    // list of tokens (eg, security token or its corresponding settlement token) to match\r\n    mapping(address => token[]) internal toMatchTokens;\r\n\r\n    // mapping offered token (eg, security token) to a token to match (eg, settlement token)\r\n    mapping(address => mapping(address => token[])) internal mmtokens;\r\n\r\n    // mapping offered token (ie security token) to its paired token (ie, settlement tokens which is matched by the issuing function)\r\n    mapping(address => address[]) internal pairedTokens;\r\n\r\n    // mapping settlement token to its position in the list of settlement tokens\r\n    mapping(address => mapping(address => uint256)) private pairedTokenIndex;\r\n\r\n    // data structure that holds settlement price curve data offered by market makers\r\n    struct liquidity{\r\n        uint minPrice;\r\n        uint maxPrice;\r\n        uint amountIssued;\r\n        uint amountOffered;\r\n    }\r\n\r\n    // mapping security token to its price and amount offered by market makers (LPs)\r\n    mapping(address => mapping(address => liquidity)) internal qlTokens;\r\n\r\n    // mapping security to liquidity providers (LPs)\r\n    mapping(address => lp[]) private liquidityProviders;\r\n\r\n    // mapping security tokens issued in the primary issue pool to total liquidity (ie, amount of settlement tokens) offered\r\n    mapping(address => uint256) private totalUnderwritten;\r\n\r\n    // components of a primary issue of a security token\r\n    struct primary{\r\n        uint256 deadline;\r\n        uint256 startTime;\r\n        bytes32[] pools;\r\n        address issuer;\r\n    }\r\n\r\n    // mapping security to new issues in the primary issue pool\r\n    mapping(address => primary) internal issues;\r\n\r\n    // mapping primary issue pool id to subscribers that swap in assets into pool\r\n    mapping(bytes32 => subscriptions[]) internal investors; \r\n\r\n    // mapping primary issue pool id to subscriber and its position in the list of subscribers to the pool\r\n    mapping(bytes32 => mapping(address => uint256)) private subscriberIndex;\r\n\r\n    // mapping pool id to asset to subscription amounts\r\n    mapping(bytes32 => mapping(address => uint256)) private subscribed;\r\n\r\n    // mapping pool id to pool address\r\n    mapping(bytes32 => address) private pools;\r\n\r\n    // mapping pool id to security token offered\r\n    mapping(bytes32 => address) private poolSecurity;\r\n\r\n    // reference to the Verified Products contract that this asset manager contract reports created primary issue pools to\r\n    VerifiedProducts products;\r\n\r\n    // reference to the Verified Client contract\r\n    VerifiedClient client;\r\n\r\n    // reference to the Verified Liquidity contract that provides liquidity (ie, VITTA) to the asset manager to underwrite investments in tokenized securities\r\n    address private LPToken;\r\n    \r\n    // LP token staked\r\n    uint256 private LPTokenStaked;\r\n\r\n    // LP token allotted\r\n    mapping(address => uint256) private LPTokenAllotted;\r\n\r\n    //mutex\r\n    bool lock;\r\n\r\n    /**\r\n        Initializes this asset management contract\r\n        @param  _factory            reference to the primary issue pool factory contract\r\n        @param  _swapFeePercentage  percentage of trading fee to be charged by the asset manager\r\n        @param  _vault              reference to the Balancer vault\r\n        @param  _products           reference to the Verified Products contract that this contract reports created primary issue pools to\r\n        @param  _LPToken            address of the Liquidity contract\r\n        @param  _client             address of the Verified client contract\r\n     */\r\n    function initialize(address _factory, uint256 _swapFeePercentage, address _vault, address _products, address _LPToken, address _client) onlyOwner public {\r\n        factory = IPrimaryIssuePoolFactory(_factory);\r\n        vault = IVault(_vault);\r\n        swapFeePercentage = _swapFeePercentage;\r\n        products = VerifiedProducts(_products);\r\n        products.registerPlatform(address(this), owner());\r\n        client = VerifiedClient(_client);\r\n        LPToken = _LPToken;\r\n        lock = false;\r\n    }\r\n\r\n    /**\r\n        Called by market maker and issuer for adding liquidity\r\n        @param  owned       is the security or settlement token on offer \r\n        @param  offered     is the amount offered\r\n        @param  tomatch     is the liquidity token that is required to be paired\r\n        @param  desired     is the amount required of the liquidity token to be paired\r\n        @param  min         is the minimum amount to be swapped of the 'offered' token \r\n        @param  isin        is the identifier for the security token offered\r\n     */ \r\n    function offer(address owned, bytes32 isin, uint offered, address tomatch, uint desired, uint min) override external{\r\n        require(products.checkProduct(msg.sender)==true);\r\n        require(!lock);\r\n        lock = true;\r\n        if(IERC20(owned).balanceOf(msg.sender)>=offered){ \r\n            IERC20(owned).transferFrom(msg.sender, address(this), offered);\r\n            make(msg.sender, owned, isin, offered, tomatch, desired, min); \r\n        }\r\n        lock = false;\r\n    }\r\n\r\n    function make(address _owner, address owned, bytes32 _isin, uint _offered, address tomatch, uint _desired, uint _min) private {\r\n        IMarketMaker.token memory t = IMarketMaker.token({\r\n            owner: _owner,\r\n            amountDesired: _desired,\r\n            amountOffered: _offered,\r\n            min: _min,\r\n            isin: _isin\r\n        });\r\n        uint256 index = mmtokens[owned][tomatch].length;\r\n        mmtokens[owned][tomatch].push(t);\r\n        offeredTokenIndex[owned] = offeredTokens.length;\r\n        offeredTokens.push(owned);\r\n        toMatchTokens[tomatch].push(mmtokens[owned][tomatch][index]);        \r\n    }\r\n\r\n    /**\r\n        Gets tokens to match for offered token\r\n        @param  offered address of offered token\r\n     */\r\n    function getOffered(address offered) override onlyAssetManager(msg.sender) external view returns(IMarketMaker.token[] memory){\r\n        return toMatchTokens[offered];\r\n    }\r\n\r\n    /**\r\n        Gets offer made previously\r\n        @param  _owned      address of token offered\r\n        @param  _tomatch    address of token to match\r\n     */\r\n    function getOfferMade(address _owned, address _tomatch) override onlyAssetManager(msg.sender) external view returns(IMarketMaker.token[] memory){\r\n        return mmtokens[_owned][_tomatch];\r\n    }\r\n\r\n    /**\r\n        Fetches liquidity providers for a security token\r\n        @param  _security   identifier for the security token offered\r\n     */\r\n    function getLiquidityProviders(address _security) override external view returns(lp[] memory){\r\n        return liquidityProviders[_security];\r\n    }\r\n\r\n    /**\r\n        Called by Liquidity token contract to stake liquidity tokens by investors in VITTA\r\n        @param  amount  amount of VITTA staked to provide liquidity for underwriting investments in tokenized securities\r\n        @param  manager address of manager who is allotted the VITTA token by the Verified liquidity contract\r\n     */\r\n    function stake(uint256 amount, address manager) override onlyLP(msg.sender) external {\r\n        require(IERC20(msg.sender).balanceOf(address(this))>=amount, 'Staked amount is not in balance');\r\n        LPTokenStaked = SafeMath.add(LPTokenStaked, amount);\r\n        if(IERC20(msg.sender).transferFrom(address(this), manager, amount))        \r\n            LPTokenAllotted[manager] = SafeMath.add(LPTokenAllotted[manager], amount);\r\n    }\r\n\r\n    /**\r\n        Gets liquidity allotted for asset manager (message sender)\r\n     */\r\n    function getAllotedStake() override external view returns(uint256){\r\n        return LPTokenAllotted[msg.sender];\r\n    }\r\n\r\n    /**\r\n        Called by issuer of 'security' token to open an issue which will last till 'cutoffTime'\r\n        @param  security    security offered to the primary issue pool\r\n        @param  cutoffTime  time in milliseconds by when offer closes\r\n     */\r\n    function issue(address security, uint256 cutoffTime) override onlyIssuer(msg.sender) external {\r\n        // check if security to be issued has been offered by the issuer, and if yes, initialize the issuance\r\n        uint i = offeredTokenIndex[security];\r\n        if(offeredTokens[i]==security){\r\n            IERC20[] memory tokens = new IERC20[](2);\r\n            tokens[0] = IERC20(offeredTokens[i]);\r\n            \r\n            // check all offered securities that is not the security to be issued\r\n            for(uint j=0; j<offeredTokens.length; j++){\r\n                if(offeredTokens[j]!=security){\r\n\r\n                    // check if the request to issue has come from the issuer\r\n                    if(mmtokens[offeredTokens[i]][offeredTokens[j]][0].owner == msg.sender){\r\n\r\n                        for(uint k=0; k<mmtokens[offeredTokens[j]][offeredTokens[i]].length; k++){\r\n\r\n                            // find tokens offered against security to be issued\r\n                            if(mmtokens[offeredTokens[i]][offeredTokens[j]][0].amountOffered!=0){\r\n                                if(mmtokens[offeredTokens[j]][offeredTokens[i]][k].amountOffered!=0){\r\n                                    \r\n                                    // if min offer price for security issued is greater than price desired by market maker (LP)\r\n                                    if( Math.divDown(mmtokens[offeredTokens[i]][offeredTokens[j]][0].min,\r\n                                        mmtokens[offeredTokens[i]][offeredTokens[j]][0].amountOffered) >=\r\n                                        Math.divDown(mmtokens[offeredTokens[j]][offeredTokens[i]][k].amountOffered,\r\n                                        mmtokens[offeredTokens[j]][offeredTokens[i]][k].amountDesired))\r\n                                    {   \r\n                                        // store settlement tokens    \r\n                                        if(pairedTokenIndex[security][offeredTokens[j]]==0){\r\n                                            pairedTokens[security].push(offeredTokens[j]);\r\n                                            pairedTokenIndex[security][offeredTokens[j]] = pairedTokens[security].length;\r\n                                        }\r\n\r\n                                        // find and store min price for token offered\r\n                                        if(Math.divDown(mmtokens[offeredTokens[i]][offeredTokens[j]][0].min,\r\n                                            mmtokens[offeredTokens[i]][offeredTokens[j]][0].amountOffered) < \r\n                                            qlTokens[security][offeredTokens[j]].minPrice  || \r\n                                            qlTokens[security][offeredTokens[j]].minPrice==0)\r\n                                        {\r\n                                            qlTokens[security][offeredTokens[j]].minPrice = \r\n                                                        Math.divDown(mmtokens[offeredTokens[i]][offeredTokens[j]][0].min,\r\n                                                        mmtokens[offeredTokens[i]][offeredTokens[j]][0].amountOffered);\r\n                                        }\r\n\r\n                                        // find and store max price for token offered\r\n                                        if(Math.divDown(mmtokens[offeredTokens[j]][offeredTokens[i]][k].amountOffered,\r\n                                            mmtokens[offeredTokens[j]][offeredTokens[i]][k].min) > \r\n                                            qlTokens[security][offeredTokens[j]].maxPrice)\r\n                                        {\r\n                                            qlTokens[security][offeredTokens[j]].maxPrice = \r\n                                                        Math.divDown(mmtokens[offeredTokens[j]][offeredTokens[i]][k].amountOffered,\r\n                                                        mmtokens[offeredTokens[j]][offeredTokens[i]][k].min);                                        \r\n                                        }  \r\n                                        qlTokens[security][offeredTokens[j]].amountIssued = \r\n                                                        Math.add(qlTokens[security][offeredTokens[j]].amountIssued,\r\n                                                        mmtokens[offeredTokens[i]][offeredTokens[j]][0].amountOffered);\r\n                                        qlTokens[security][offeredTokens[j]].amountOffered = \r\n                                                        Math.add(qlTokens[security][offeredTokens[j]].amountOffered,\r\n                                                        mmtokens[offeredTokens[j]][offeredTokens[i]][k].amountOffered);  \r\n                                        // store qualified liquidity provider info\r\n                                        lp memory provider = lp({\r\n                                            owner : mmtokens[offeredTokens[j]][offeredTokens[i]][k].owner,\r\n                                            tokenOffered : offeredTokens[j],\r\n                                            underwritten : mmtokens[offeredTokens[j]][offeredTokens[i]][k].amountOffered,\r\n                                            subscribed : 0,\r\n                                            earned : 0\r\n                                        });\r\n                                        liquidityProviders[offeredTokens[i]].push(provider);  \r\n\r\n                                        totalUnderwritten[offeredTokens[i]] = \r\n                                        SafeMath.add(totalUnderwritten[offeredTokens[i]], mmtokens[offeredTokens[j]][offeredTokens[i]][k].amountOffered);\r\n                                    }\r\n                                }\r\n                            }\r\n                        }\r\n                    }\r\n                }\r\n            }\r\n            //create primary issue pool if it does not exist already\r\n            for(uint x=0; x<pairedTokens[security].length; x++){\r\n                address lptoken = pairedTokens[security][x];\r\n                tokens[1] = IERC20(lptoken);\r\n                IPrimaryIssuePoolFactory.FactoryPoolParams memory poolparams = IPrimaryIssuePoolFactory.FactoryPoolParams({\r\n                    name : ERC20(security).name(),\r\n                    symbol : ERC20(security).symbol(),\r\n                    security : tokens[0],\r\n                    currency : tokens[1],\r\n                    minimumPrice : qlTokens[security][lptoken].minPrice,\r\n                    basePrice : qlTokens[security][lptoken].maxPrice,\r\n                    maxAmountsIn : qlTokens[security][lptoken].amountIssued,\r\n                    issueFeePercentage : swapFeePercentage,\r\n                    cutOffTime : cutoffTime\r\n                });\r\n                address newIssue = factory.create(poolparams);\r\n                // store details of new pool created\r\n                issues[security].issuer = mmtokens[security][lptoken][0].owner;\r\n                issues[security].deadline = cutoffTime;\r\n                issues[security].startTime = block.timestamp;\r\n                bytes32 pool = IPrimaryIssuePool(newIssue).getPoolId();\r\n                issues[security].pools[issues[security].pools.length] = pool;\r\n                pools[pool] = newIssue;\r\n                poolSecurity[pool] = security;\r\n                // initialize the pool here\r\n                vault.setRelayerApproval(address(this), newIssue, true);\r\n                IPrimaryIssuePool(newIssue).initialize();\r\n                // take right to manage pool\r\n                IVault.PoolBalanceOp[] memory ops = new IVault.PoolBalanceOp[](1);\r\n                ops[0] = IVault.PoolBalanceOp({\r\n                    kind: IVault.PoolBalanceOpKind.WITHDRAW,\r\n                    poolId: pool,\r\n                    token: IERC20(lptoken),\r\n                    amount: qlTokens[security][lptoken].amountIssued\r\n                });\r\n                vault.managePoolBalance(ops);\r\n                delete qlTokens[security][lptoken];\r\n            }\r\n            delete pairedTokens[security];\r\n        }\r\n    }\r\n\r\n    // called by pool when assets are swapped in by investors against security tokens issued\r\n    function subscribe(bytes32 poolId, address security, address assetIn, bytes32 assetName, uint256 amount, address investor, uint256 price) override onlyPool(poolId, security) external {\r\n        investors[poolId].push(IMarketMaker.subscriptions(investor, assetIn, assetName, amount, price));\r\n        subscriberIndex[poolId][investor] = investors[poolId].length;\r\n        subscribed[poolId][assetIn] = Math.add(subscribed[poolId][assetIn], amount);\r\n    }\r\n\r\n    /**\r\n        Fetches investors (subscribers) to a primary issue pool\r\n        @param   poolId identifier for a primary issue pool for which subscribers are to be returned\r\n     */\r\n    function getSubscribers(bytes32 poolId) override external view returns(subscriptions[] memory){\r\n        return investors[poolId];\r\n    }\r\n\r\n    /**\r\n        Called by issuer to close subscription of 'security' issued by it\r\n        @param  security    address of security token\r\n     */  \r\n    function close(address security) override onlyIssuer(msg.sender) external view returns(bytes32[] memory, bool) {\r\n        if(block.timestamp > issues[security].deadline)\r\n            return (issues[security].pools, true);\r\n        else\r\n            return (issues[security].pools, false);\r\n    }\r\n\r\n    /**\r\n        Called by issuer to accept subscription to issue by investor\r\n        @param  poolid      identifier of primary issue pool in which subscription is made by investor\r\n        @param  investor    address of investor (subscriber)\r\n        @param  amnt        amount of investment (subscription capital) accepted by issuer for which allotment of security tokens are made to investor\r\n        @param  asset       address of asset which is used by investor to subscribe to the issue\r\n     */ \r\n    function accept(bytes32 poolid, address investor, uint256 amnt, address asset) override onlyIssuer(msg.sender) external {\r\n        uint256 invested = 0;\r\n        uint256 i = subscriberIndex[poolid][investor];\r\n        if(i>0)\r\n            invested = Math.add(invested, investors[poolid][i-1].amount);\r\n        // transfer subscriptions for allotments to asset manager for asset subscribed with\r\n        address issued = IPrimaryIssuePool(pools[poolid]).getSecurity();\r\n        // refund balance to investors\r\n        IERC20(asset).transfer(investor, Math.sub(invested, amnt));\r\n        for(i=0; i<liquidityProviders[issued].length; i++){\r\n            if(liquidityProviders[issued][i].tokenOffered==asset && amnt!=0){\r\n                uint256 proportionUnderwritten = liquidityProviders[issued][i].underwritten / totalUnderwritten[issued];\r\n                uint256 prorataAmount = Math.mul(proportionUnderwritten, subscribed[poolid][asset]);\r\n                // transfer allotted amount to asset manager\r\n                if(prorataAmount > amnt){\r\n                    IERC20(asset).transfer(liquidityProviders[issued][i].owner, amnt);\r\n                    SafeMath.add(liquidityProviders[issued][i].subscribed, amnt);\r\n                    amnt = 0;\r\n                }\r\n                else{\r\n                    IERC20(asset).transfer(liquidityProviders[issued][i].owner, prorataAmount);\r\n                    SafeMath.add(liquidityProviders[issued][i].subscribed, prorataAmount);\r\n                    amnt = Math.sub(amnt, prorataAmount);\r\n                }\r\n            }\r\n        }\r\n    }\r\n\r\n    /**\r\n        Called by issuer to reject subscription to issue by investor\r\n        @param  poolid      identifier for primary issue pool to which investor has subscribed\r\n        @param  investor    address of investor (subscriber)\r\n     */ \r\n    function reject(bytes32 poolid, address investor) override onlyIssuer(msg.sender) external {\r\n        uint256 i = subscriberIndex[poolid][investor];\r\n        if(i>0){\r\n            IERC20(investors[poolid][i-1].asset).transfer(investor, investors[poolid][i-1].amount);\r\n        }\r\n    }\r\n\r\n    /**\r\n        Called by product issuer to settle distribution of fee income arising from investment underwritten in the primary issue pool\r\n        @param  poolId  identifier for primary issue pool\r\n     */  \r\n    function settle(bytes32 poolId) override onlyIssuer(msg.sender) external {\r\n        IPrimaryIssuePool(pools[poolId]).exit(); \r\n        uint256 totalLiquidityProvided = totalUnderwritten[poolSecurity[poolId]];\r\n        uint256 underwritingFee = Math.mul(totalLiquidityProvided, swapFeePercentage);\r\n        uint256 prorataLiquidityProvided =0;\r\n        for(uint i=0; i<liquidityProviders[poolSecurity[poolId]].length; i++){\r\n            prorataLiquidityProvided = liquidityProviders[poolSecurity[poolId]][i].underwritten / totalLiquidityProvided;\r\n            ILiquidity(LPToken).distribute(Math.mul(underwritingFee, prorataLiquidityProvided), \r\n                                                    liquidityProviders[poolSecurity[poolId]][i].tokenOffered,\r\n                                                    liquidityProviders[poolSecurity[poolId]][i].owner);\r\n        }\r\n        delete investors[poolId];     \r\n    }   \r\n\r\n    function getOwner() override external view returns(address){\r\n        return owner();\r\n    }\r\n   \r\n}",
  "sourcePath": "D:\\Code\\verified-liquidity\\balancer\\contracts\\BalancerManager.sol",
  "compiler": {
    "name": "solc",
    "version": "0.7.1+commit.f4a555be.Emscripten.clang"
  },
  "schemaVersion": "3.4.3",
  "updatedAt": "2022-04-02T12:38:47.982Z",
  "networkType": "ethereum",
  "devdoc": {
    "kind": "dev",
    "methods": {
      "accept(bytes32,address,uint256,address)": {
        "params": {
          "amnt": "amount of investment (subscription capital) accepted by issuer for which allotment of security tokens are made to investor",
          "asset": "address of asset which is used by investor to subscribe to the issue",
          "investor": "address of investor (subscriber)",
          "poolid": "identifier of primary issue pool in which subscription is made by investor"
        }
      },
      "close(address)": {
        "params": {
          "security": "address of security token"
        }
      },
      "getLiquidityProviders(address)": {
        "params": {
          "_security": "identifier for the security token offered"
        }
      },
      "getOfferMade(address,address)": {
        "params": {
          "_owned": "address of token offered",
          "_tomatch": "address of token to match"
        }
      },
      "getOffered(address)": {
        "params": {
          "offered": "address of offered token"
        }
      },
      "getSubscribers(bytes32)": {
        "params": {
          "poolId": "identifier for a primary issue pool for which subscribers are to be returned"
        }
      },
      "initialize(address,uint256,address,address,address,address)": {
        "params": {
          "_LPToken": "address of the Liquidity contract",
          "_client": "address of the Verified client contract",
          "_factory": "reference to the primary issue pool factory contract",
          "_products": "reference to the Verified Products contract that this contract reports created primary issue pools to",
          "_swapFeePercentage": "percentage of trading fee to be charged by the asset manager",
          "_vault": "reference to the Balancer vault"
        }
      },
      "issue(address,uint256)": {
        "params": {
          "cutoffTime": "time in milliseconds by when offer closes",
          "security": "security offered to the primary issue pool"
        }
      },
      "offer(address,bytes32,uint256,address,uint256,uint256)": {
        "params": {
          "desired": "is the amount required of the liquidity token to be paired",
          "isin": "is the identifier for the security token offered",
          "min": "is the minimum amount to be swapped of the 'offered' token ",
          "offered": "is the amount offered",
          "owned": "is the security or settlement token on offer ",
          "tomatch": "is the liquidity token that is required to be paired"
        }
      },
      "owner()": {
        "details": "Returns the address of the current owner."
      },
      "reject(bytes32,address)": {
        "params": {
          "investor": "address of investor (subscriber)",
          "poolid": "identifier for primary issue pool to which investor has subscribed"
        }
      },
      "renounceOwnership()": {
        "details": "Leaves the contract without owner. It will not be possible to call `onlyOwner` functions anymore. Can only be called by the current owner. NOTE: Renouncing ownership will leave the contract without an owner, thereby removing any functionality that is only available to the owner."
      },
      "settle(bytes32)": {
        "params": {
          "poolId": "identifier for primary issue pool"
        }
      },
      "stake(uint256,address)": {
        "params": {
          "amount": "amount of VITTA staked to provide liquidity for underwriting investments in tokenized securities",
          "manager": "address of manager who is allotted the VITTA token by the Verified liquidity contract"
        }
      },
      "transferOwnership(address)": {
        "details": "Transfers ownership of the contract to a new account (`newOwner`). Can only be called by the current owner."
      }
    },
    "version": 1
  },
  "userdoc": {
    "kind": "user",
    "methods": {
      "accept(bytes32,address,uint256,address)": {
        "notice": "Called by issuer to accept subscription to issue by investor"
      },
      "close(address)": {
        "notice": "Called by issuer to close subscription of 'security' issued by it"
      },
      "getAllotedStake()": {
        "notice": "Gets liquidity allotted for asset manager (message sender)"
      },
      "getLiquidityProviders(address)": {
        "notice": "Fetches liquidity providers for a security token"
      },
      "getOfferMade(address,address)": {
        "notice": "Gets offer made previously"
      },
      "getOffered(address)": {
        "notice": "Gets tokens to match for offered token"
      },
      "getSubscribers(bytes32)": {
        "notice": "Fetches investors (subscribers) to a primary issue pool"
      },
      "initialize(address,uint256,address,address,address,address)": {
        "notice": "Initializes this asset management contract"
      },
      "issue(address,uint256)": {
        "notice": "Called by issuer of 'security' token to open an issue which will last till 'cutoffTime'"
      },
      "offer(address,bytes32,uint256,address,uint256,uint256)": {
        "notice": "Called by market maker and issuer for adding liquidity"
      },
      "reject(bytes32,address)": {
        "notice": "Called by issuer to reject subscription to issue by investor"
      },
      "settle(bytes32)": {
        "notice": "Called by product issuer to settle distribution of fee income arising from investment underwritten in the primary issue pool"
      },
      "stake(uint256,address)": {
        "notice": "Called by Liquidity token contract to stake liquidity tokens by investors in VITTA"
      }
    },
    "version": 1
  }
}