{
  "contractName": "BalancerManager",
  "abi": [
    {
      "anonymous": false,
      "inputs": [
        {
          "indexed": true,
          "internalType": "address",
          "name": "previousOwner",
          "type": "address"
        },
        {
          "indexed": true,
          "internalType": "address",
          "name": "newOwner",
          "type": "address"
        }
      ],
      "name": "OwnershipTransferred",
      "type": "event"
    },
    {
      "anonymous": false,
      "inputs": [
        {
          "indexed": false,
          "internalType": "address",
          "name": "platform",
          "type": "address"
        },
        {
          "indexed": false,
          "internalType": "address",
          "name": "security",
          "type": "address"
        },
        {
          "components": [
            {
              "internalType": "address",
              "name": "owner",
              "type": "address"
            },
            {
              "internalType": "address",
              "name": "tokenOffered",
              "type": "address"
            },
            {
              "internalType": "uint256",
              "name": "underwritten",
              "type": "uint256"
            },
            {
              "internalType": "uint256",
              "name": "subscribed",
              "type": "uint256"
            },
            {
              "internalType": "uint256",
              "name": "earned",
              "type": "uint256"
            }
          ],
          "indexed": false,
          "internalType": "struct IMarketMaker.lp[]",
          "name": "providers",
          "type": "tuple[]"
        }
      ],
      "name": "marketmakers",
      "type": "event"
    },
    {
      "anonymous": false,
      "inputs": [
        {
          "indexed": false,
          "internalType": "bytes32[]",
          "name": "pools",
          "type": "bytes32[]"
        },
        {
          "indexed": false,
          "internalType": "bool",
          "name": "close",
          "type": "bool"
        },
        {
          "indexed": false,
          "internalType": "address",
          "name": "platform",
          "type": "address"
        }
      ],
      "name": "onClose",
      "type": "event"
    },
    {
      "anonymous": false,
      "inputs": [
        {
          "indexed": false,
          "internalType": "address",
          "name": "platform",
          "type": "address"
        }
      ],
      "name": "platforms",
      "type": "event"
    },
    {
      "anonymous": false,
      "inputs": [
        {
          "indexed": false,
          "internalType": "address",
          "name": "platform",
          "type": "address"
        },
        {
          "indexed": false,
          "internalType": "bytes32",
          "name": "poolId",
          "type": "bytes32"
        },
        {
          "components": [
            {
              "internalType": "address",
              "name": "investor",
              "type": "address"
            },
            {
              "internalType": "address",
              "name": "asset",
              "type": "address"
            },
            {
              "internalType": "bytes32",
              "name": "name",
              "type": "bytes32"
            },
            {
              "internalType": "uint256",
              "name": "amount",
              "type": "uint256"
            },
            {
              "internalType": "uint256",
              "name": "price",
              "type": "uint256"
            }
          ],
          "indexed": false,
          "internalType": "struct IMarketMaker.subscriptions[]",
          "name": "investors",
          "type": "tuple[]"
        }
      ],
      "name": "subscribers",
      "type": "event"
    },
    {
      "inputs": [],
      "name": "factory",
      "outputs": [
        {
          "internalType": "contract IPrimaryIssuePoolFactory",
          "name": "",
          "type": "address"
        }
      ],
      "stateMutability": "view",
      "type": "function",
      "constant": true
    },
    {
      "inputs": [],
      "name": "owner",
      "outputs": [
        {
          "internalType": "address",
          "name": "",
          "type": "address"
        }
      ],
      "stateMutability": "view",
      "type": "function",
      "constant": true
    },
    {
      "inputs": [],
      "name": "renounceOwnership",
      "outputs": [],
      "stateMutability": "nonpayable",
      "type": "function"
    },
    {
      "inputs": [
        {
          "internalType": "address",
          "name": "newOwner",
          "type": "address"
        }
      ],
      "name": "transferOwnership",
      "outputs": [],
      "stateMutability": "nonpayable",
      "type": "function"
    },
    {
      "inputs": [
        {
          "internalType": "address",
          "name": "_factory",
          "type": "address"
        },
        {
          "internalType": "uint256",
          "name": "_swapFeePercentage",
          "type": "uint256"
        },
        {
          "internalType": "address",
          "name": "_vault",
          "type": "address"
        },
        {
          "internalType": "address",
          "name": "_products",
          "type": "address"
        },
        {
          "internalType": "address",
          "name": "_LPToken",
          "type": "address"
        },
        {
          "internalType": "address",
          "name": "_client",
          "type": "address"
        }
      ],
      "name": "initialize",
      "outputs": [],
      "stateMutability": "nonpayable",
      "type": "function"
    },
    {
      "inputs": [
        {
          "internalType": "address",
          "name": "owned",
          "type": "address"
        },
        {
          "internalType": "bytes32",
          "name": "isin",
          "type": "bytes32"
        },
        {
          "internalType": "uint256",
          "name": "offered",
          "type": "uint256"
        },
        {
          "internalType": "address",
          "name": "tomatch",
          "type": "address"
        },
        {
          "internalType": "uint256",
          "name": "desired",
          "type": "uint256"
        },
        {
          "internalType": "uint256",
          "name": "min",
          "type": "uint256"
        },
        {
          "internalType": "address",
          "name": "issuer",
          "type": "address"
        }
      ],
      "name": "offer",
      "outputs": [],
      "stateMutability": "nonpayable",
      "type": "function"
    },
    {
      "inputs": [
        {
          "internalType": "address",
          "name": "offered",
          "type": "address"
        }
      ],
      "name": "getOffered",
      "outputs": [
        {
          "components": [
            {
              "internalType": "address",
              "name": "owner",
              "type": "address"
            },
            {
              "internalType": "uint256",
              "name": "amountOffered",
              "type": "uint256"
            },
            {
              "internalType": "uint256",
              "name": "amountDesired",
              "type": "uint256"
            },
            {
              "internalType": "uint256",
              "name": "min",
              "type": "uint256"
            },
            {
              "internalType": "bytes32",
              "name": "isin",
              "type": "bytes32"
            }
          ],
          "internalType": "struct IMarketMaker.token[]",
          "name": "",
          "type": "tuple[]"
        }
      ],
      "stateMutability": "view",
      "type": "function",
      "constant": true
    },
    {
      "inputs": [
        {
          "internalType": "address",
          "name": "_owned",
          "type": "address"
        },
        {
          "internalType": "address",
          "name": "_tomatch",
          "type": "address"
        }
      ],
      "name": "getOfferMade",
      "outputs": [
        {
          "components": [
            {
              "internalType": "address",
              "name": "owner",
              "type": "address"
            },
            {
              "internalType": "uint256",
              "name": "amountOffered",
              "type": "uint256"
            },
            {
              "internalType": "uint256",
              "name": "amountDesired",
              "type": "uint256"
            },
            {
              "internalType": "uint256",
              "name": "min",
              "type": "uint256"
            },
            {
              "internalType": "bytes32",
              "name": "isin",
              "type": "bytes32"
            }
          ],
          "internalType": "struct IMarketMaker.token[]",
          "name": "",
          "type": "tuple[]"
        }
      ],
      "stateMutability": "view",
      "type": "function",
      "constant": true
    },
    {
      "inputs": [
        {
          "internalType": "address",
          "name": "_security",
          "type": "address"
        }
      ],
      "name": "getLiquidityProviders",
      "outputs": [
        {
          "components": [
            {
              "internalType": "address",
              "name": "owner",
              "type": "address"
            },
            {
              "internalType": "address",
              "name": "tokenOffered",
              "type": "address"
            },
            {
              "internalType": "uint256",
              "name": "underwritten",
              "type": "uint256"
            },
            {
              "internalType": "uint256",
              "name": "subscribed",
              "type": "uint256"
            },
            {
              "internalType": "uint256",
              "name": "earned",
              "type": "uint256"
            }
          ],
          "internalType": "struct IMarketMaker.lp[]",
          "name": "",
          "type": "tuple[]"
        }
      ],
      "stateMutability": "nonpayable",
      "type": "function"
    },
    {
      "inputs": [
        {
          "internalType": "uint256",
          "name": "amount",
          "type": "uint256"
        },
        {
          "internalType": "address",
          "name": "manager",
          "type": "address"
        }
      ],
      "name": "stake",
      "outputs": [],
      "stateMutability": "nonpayable",
      "type": "function"
    },
    {
      "inputs": [],
      "name": "getAllotedStake",
      "outputs": [
        {
          "internalType": "uint256",
          "name": "",
          "type": "uint256"
        }
      ],
      "stateMutability": "view",
      "type": "function",
      "constant": true
    },
    {
      "inputs": [
        {
          "internalType": "uint256",
          "name": "amount",
          "type": "uint256"
        }
      ],
      "name": "withdraw",
      "outputs": [],
      "stateMutability": "nonpayable",
      "type": "function"
    },
    {
      "inputs": [
        {
          "internalType": "address",
          "name": "security",
          "type": "address"
        },
        {
          "internalType": "uint256",
          "name": "cutoffTime",
          "type": "uint256"
        },
        {
          "internalType": "address",
          "name": "issuer",
          "type": "address"
        }
      ],
      "name": "issue",
      "outputs": [],
      "stateMutability": "nonpayable",
      "type": "function"
    },
    {
      "inputs": [
        {
          "internalType": "bytes32",
          "name": "poolId",
          "type": "bytes32"
        },
        {
          "internalType": "address",
          "name": "security",
          "type": "address"
        },
        {
          "internalType": "address",
          "name": "assetIn",
          "type": "address"
        },
        {
          "internalType": "bytes32",
          "name": "assetName",
          "type": "bytes32"
        },
        {
          "internalType": "uint256",
          "name": "amount",
          "type": "uint256"
        },
        {
          "internalType": "address",
          "name": "investor",
          "type": "address"
        },
        {
          "internalType": "uint256",
          "name": "price",
          "type": "uint256"
        }
      ],
      "name": "subscribe",
      "outputs": [],
      "stateMutability": "nonpayable",
      "type": "function"
    },
    {
      "inputs": [
        {
          "internalType": "bytes32",
          "name": "poolId",
          "type": "bytes32"
        }
      ],
      "name": "getSubscribers",
      "outputs": [
        {
          "components": [
            {
              "internalType": "address",
              "name": "investor",
              "type": "address"
            },
            {
              "internalType": "address",
              "name": "asset",
              "type": "address"
            },
            {
              "internalType": "bytes32",
              "name": "name",
              "type": "bytes32"
            },
            {
              "internalType": "uint256",
              "name": "amount",
              "type": "uint256"
            },
            {
              "internalType": "uint256",
              "name": "price",
              "type": "uint256"
            }
          ],
          "internalType": "struct IMarketMaker.subscriptions[]",
          "name": "",
          "type": "tuple[]"
        }
      ],
      "stateMutability": "nonpayable",
      "type": "function"
    },
    {
      "inputs": [
        {
          "internalType": "address",
          "name": "security",
          "type": "address"
        },
        {
          "internalType": "address",
          "name": "issuer",
          "type": "address"
        }
      ],
      "name": "close",
      "outputs": [
        {
          "internalType": "bytes32[]",
          "name": "",
          "type": "bytes32[]"
        },
        {
          "internalType": "bool",
          "name": "",
          "type": "bool"
        }
      ],
      "stateMutability": "nonpayable",
      "type": "function"
    },
    {
      "inputs": [
        {
          "internalType": "bytes32",
          "name": "poolid",
          "type": "bytes32"
        },
        {
          "internalType": "address",
          "name": "investor",
          "type": "address"
        },
        {
          "internalType": "uint256",
          "name": "amnt",
          "type": "uint256"
        },
        {
          "internalType": "address",
          "name": "asset",
          "type": "address"
        },
        {
          "internalType": "address",
          "name": "issuer",
          "type": "address"
        }
      ],
      "name": "accept",
      "outputs": [],
      "stateMutability": "nonpayable",
      "type": "function"
    },
    {
      "inputs": [
        {
          "internalType": "bytes32",
          "name": "poolid",
          "type": "bytes32"
        },
        {
          "internalType": "address",
          "name": "investor",
          "type": "address"
        },
        {
          "internalType": "address",
          "name": "issuer",
          "type": "address"
        }
      ],
      "name": "reject",
      "outputs": [],
      "stateMutability": "nonpayable",
      "type": "function"
    },
    {
      "inputs": [
        {
          "internalType": "bytes32",
          "name": "poolId",
          "type": "bytes32"
        },
        {
          "internalType": "address",
          "name": "issuer",
          "type": "address"
        }
      ],
      "name": "settle",
      "outputs": [],
      "stateMutability": "nonpayable",
      "type": "function"
    },
    {
      "inputs": [],
      "name": "getOwner",
      "outputs": [
        {
          "internalType": "address",
          "name": "",
          "type": "address"
        }
      ],
      "stateMutability": "view",
      "type": "function",
      "constant": true
    }
  ],
  "bytecode": "0x6080604052600060035534801561001557600080fd5b50600080546001600160a01b0319163390811782556040519091907f8be0079c531659141344cd1fd0a4f28419497f9722a3daafe3b4186f6b6457e0908290a3613e0e806100646000396000f3fe608060405234801561001057600080fd5b506004361061012c5760003560e01c80639701bbc3116100ad578063c93e839411610071578063c93e839414610271578063cc8f1c0614610284578063f078819114610297578063f2fde38b146102aa578063f7efef10146102bd5761012c565b80639701bbc3146102015780639d4c400514610221578063a2dc2ab714610236578063bfa0caa714610249578063c45a0155146102695761012c565b80637acb7757116100f45780637acb77571461019e5780637d4a9ab8146101b157806388c4b6ee146101c4578063893d20e8146101e45780638da5cb5b146101f95761012c565b80632e1a7d4d146101315780636c0afebc146101465780636d78f47a14610159578063715018a61461016c578063719dcf4a14610174575b600080fd5b61014461013f366004613635565b6102d0565b005b6101446101543660046136bf565b61041f565b61014461016736600461355c565b61055d565b610144611dd7565b6101876101823660046134b3565b611e3f565b604051610195929190613a1d565b60405180910390f35b6101446101ac366004613665565b611fb8565b6101446101bf366004613665565b6120c0565b6101d76101d236600461347b565b612268565b6040516101959190613b3f565b6101ec612369565b6040516101959190613885565b6101ec612378565b61021461020f36600461347b565b612387565b6040516101959190613c25565b6102296124c7565b6040516101959190613d6b565b61014461024436600461359d565b6124da565b61025c610257366004613635565b612595565b6040516101959190613bb2565b6101ec612676565b61014461027f366004613689565b612685565b610144610292366004613730565b612830565b6101446102a53660046134eb565b612bcf565b6101446102b836600461347b565b612e9b565b6102146102cb3660046134b3565b612f19565b60145433906001600160a01b031681146102e957600080fd5b816015541061038d576014546040516323b872dd60e01b81526001600160a01b03909116906323b872dd906103269030908490879060040161394a565b602060405180830381600087803b15801561034057600080fd5b505af1158015610354573d6000803e3d6000fd5b505050506040513d601f19601f820116820180604052508101906103789190613615565b5061038560155483613066565b60155561041b565b6014546015546040516323b872dd60e01b81526001600160a01b03909216916323b872dd916103c2913091859160040161394a565b602060405180830381600087803b1580156103dc57600080fd5b505af11580156103f0573d6000803e3d6000fd5b505050506040513d601f19601f820116820180604052508101906104149190613615565b5060006015555b5050565b8686806001600160a01b03166338fff2d06040518163ffffffff1660e01b8152600401602060405180830381600087803b15801561045c57600080fd5b505af1158015610470573d6000803e3d6000fd5b505050506040513d601f19601f82011682018060405250810190610494919061364d565b821461049f57600080fd5b50506000878152600e60209081526040808320815160a0810183526001600160a01b03968716808252998716818501908152818401998a526060820198895260808201968752825460018181018555848852868820935160059092029093018054918a166001600160a01b03199283161781559151928201805493909916921691909117909655965160028601559451600385015591516004909301929092559581529154600f865281832093835292909452929092209190915550565b601254604051633ea6c82d60e01b815282916001600160a01b031690633ea6c82d9061058d908490600401613885565b60206040518083038186803b1580156105a557600080fd5b505afa1580156105b9573d6000803e3d6000fd5b505050506040513d601f19601f820116820180604052508101906105dd9190613615565b15156001146105eb57600080fd5b6001600160a01b038416600081815260056020526040902054600480549192918390811061061557fe5b6000918252602090912001546001600160a01b03161415611dd05760408051600280825260608083018452926020830190803683370190505090506004828154811061065d57fe5b600091825260208220015482516001600160a01b0390911691839161067e57fe5b60200260200101906001600160a01b031690816001600160a01b03168152505060005b60045481101561188a57866001600160a01b0316600482815481106106c257fe5b6000918252602090912001546001600160a01b03161461188257846001600160a01b031660076000600486815481106106f757fe5b60009182526020808320909101546001600160a01b031683528201929092526040018120600480549192918590811061072c57fe5b60009182526020808320909101546001600160a01b031683528201929092526040018120805490919061075b57fe5b60009182526020909120600590910201546001600160a01b031614156118825760005b600760006004848154811061078f57fe5b60009182526020808320909101546001600160a01b03168352820192909252604001812060048054919291879081106107c457fe5b60009182526020808320909101546001600160a01b0316835282019290925260400190205481101561188057600760006004868154811061080157fe5b60009182526020808320909101546001600160a01b031683528201929092526040018120600480549192918590811061083657fe5b60009182526020808320909101546001600160a01b031683528201929092526040018120805490919061086557fe5b90600052602060002090600502016001015460001461187857600760006004848154811061088f57fe5b60009182526020808320909101546001600160a01b03168352820192909252604001812060048054919291879081106108c457fe5b60009182526020808320909101546001600160a01b0316835282019290925260400190208054829081106108f457fe5b90600052602060002090600502016001015460001461187857610a25600760006004858154811061092157fe5b60009182526020808320909101546001600160a01b031683528201929092526040018120600480549192918890811061095657fe5b60009182526020808320909101546001600160a01b03168352820192909252604001902080548390811061098657fe5b90600052602060002090600502016001015460076000600486815481106109a957fe5b60009182526020808320909101546001600160a01b03168352820192909252604001812060048054919291899081106109de57fe5b60009182526020808320909101546001600160a01b031683528201929092526040019020805484908110610a0e57fe5b90600052602060002090600502016002015461307b565b610b3b6007600060048881548110610a3957fe5b60009182526020808320909101546001600160a01b0316835282019290925260400181206004805491929187908110610a6e57fe5b60009182526020808320909101546001600160a01b0316835282019290925260400181208054909190610a9d57fe5b9060005260206000209060050201600301546007600060048981548110610ac057fe5b60009182526020808320909101546001600160a01b0316835282019290925260400181206004805491929188908110610af557fe5b60009182526020808320909101546001600160a01b0316835282019290925260400181208054909190610b2457fe5b90600052602060002090600502016001015461307b565b1061167d576001600160a01b03881660009081526009602052604081206004805491929185908110610b6957fe5b60009182526020808320909101546001600160a01b03168352820192909252604001902054610c3e576001600160a01b03881660009081526008602052604090206004805484908110610bb857fe5b6000918252602080832090910154835460018101855593835281832090930180546001600160a01b0319166001600160a01b03948516179055918a16815260088252604080822054600990935281206004805491929186908110610c1857fe5b60009182526020808320909101546001600160a01b031683528201929092526040019020555b6001600160a01b0388166000908152600a602052604081206004805491929185908110610c6757fe5b60009182526020808320909101546001600160a01b03168352820192909252604001812054600480549192610ca4926007929089908110610a3957fe5b1080610cfb57506001600160a01b0388166000908152600a602052604081206004805491929185908110610cd457fe5b60009182526020808320909101546001600160a01b03168352820192909252604001902054155b15610e1f57610dd06007600060048781548110610d1457fe5b60009182526020808320909101546001600160a01b0316835282019290925260400181206004805491929186908110610d4957fe5b60009182526020808320909101546001600160a01b0316835282019290925260400181208054909190610d7857fe5b9060005260206000209060050201600301546007600060048881548110610d9b57fe5b60009182526020808320909101546001600160a01b0316835282019290925260400181206004805491929187908110610af557fe5b6001600160a01b0389166000908152600a602052604081206004805491929186908110610df957fe5b60009182526020808320909101546001600160a01b031683528201929092526040019020555b6001600160a01b0388166000908152600a602052604081206004805491929185908110610e4857fe5b60009182526020808320909101546001600160a01b03168352820192909252604001812060010154600480549192610f8c926007929087908110610e8857fe5b60009182526020808320909101546001600160a01b0316835282019290925260400181206004805491929189908110610ebd57fe5b60009182526020808320909101546001600160a01b031683528201929092526040019020805484908110610eed57fe5b9060005260206000209060050201600101546007600060048781548110610f1057fe5b60009182526020808320909101546001600160a01b031683528201929092526040018120600480549192918a908110610f4557fe5b60009182526020808320909101546001600160a01b031683528201929092526040019020805485908110610f7557fe5b90600052602060002090600502016003015461307b565b11156110e5576110936007600060048581548110610fa657fe5b60009182526020808320909101546001600160a01b0316835282019290925260400181206004805491929188908110610fdb57fe5b60009182526020808320909101546001600160a01b03168352820192909252604001902080548390811061100b57fe5b906000526020600020906005020160010154600760006004868154811061102e57fe5b60009182526020808320909101546001600160a01b031683528201929092526040018120600480549192918990811061106357fe5b60009182526020808320909101546001600160a01b031683528201929092526040019020805484908110610f7557fe5b6001600160a01b0389166000908152600a6020526040812060048054919291869081106110bc57fe5b60009182526020808320909101546001600160a01b031683528201929092526040019020600101555b6001600160a01b0388166000908152600a60205260408120600480546111df9391908690811061111157fe5b9060005260206000200160009054906101000a90046001600160a01b03166001600160a01b03166001600160a01b0316815260200190815260200160002060020154600760006004888154811061116457fe5b60009182526020808320909101546001600160a01b031683528201929092526040018120600480549192918790811061119957fe5b60009182526020808320909101546001600160a01b03168352820192909252604001812080549091906111c857fe5b90600052602060002090600502016001015461309b565b6001600160a01b0389166000908152600a60205260408120600480549192918690811061120857fe5b60009182526020808320909101546001600160a01b039081168452838201949094526040928301822060020194909455918b168252600a909252908120600480546113119391908690811061125957fe5b9060005260206000200160009054906101000a90046001600160a01b03166001600160a01b03166001600160a01b031681526020019081526020016000206003015460076000600486815481106112ac57fe5b60009182526020808320909101546001600160a01b03168352820192909252604001812060048054919291899081106112e157fe5b60009182526020808320909101546001600160a01b0316835282019290925260400190208054849081106111c857fe5b6001600160a01b0389166000908152600a60205260408120600480549192918690811061133a57fe5b60009182526020808320909101546001600160a01b0316835282019290925260400190206003015561136a6132dc565b6040518060a00160405280600760006004878154811061138657fe5b60009182526020808320909101546001600160a01b031683528201929092526040018120600480549192918a9081106113bb57fe5b60009182526020808320909101546001600160a01b0316835282019290925260400190208054859081106113eb57fe5b6000918252602091829020600590910201546001600160a01b031682526004805492909101918690811061141b57fe5b9060005260206000200160009054906101000a90046001600160a01b03166001600160a01b03168152602001600760006004878154811061145857fe5b60009182526020808320909101546001600160a01b031683528201929092526040018120600480549192918a90811061148d57fe5b60009182526020808320909101546001600160a01b0316835282019290925260400190208054859081106114bd57fe5b90600052602060002090600502016001015481526020016000815260200160008152509050600b6000600487815481106114f357fe5b60009182526020808320909101546001600160a01b0390811684528382019490945260409283018220805460018181018355918452828420875160059092020180549187166001600160a01b031992831617815592870151918301805492909616911617909355908301516002830155606083015160038301556080830151600492830155815461164192600c92918990811061158c57fe5b9060005260206000200160009054906101000a90046001600160a01b03166001600160a01b03166001600160a01b031681526020019081526020016000205460076000600487815481106115dc57fe5b60009182526020808320909101546001600160a01b031683528201929092526040018120600480549192918a90811061161157fe5b60009182526020808320909101546001600160a01b0316835282019290925260400190208054859081106111c857fe5b600c60006004888154811061165257fe5b60009182526020808320909101546001600160a01b0316835282019290925260400190205550611878565b61169460155460076000600486815481106112ac57fe5b6015819055506117d36016600060076000600487815481106116b257fe5b60009182526020808320909101546001600160a01b031683528201929092526040018120600480549192918a9081106116e757fe5b60009182526020808320909101546001600160a01b03168352820192909252604001902080548590811061171757fe5b600091825260208083206005909202909101546001600160a01b031683528201929092526040018120546004805491926007929091908790811061175757fe5b60009182526020808320909101546001600160a01b031683528201929092526040018120600480549192918990811061178c57fe5b60009182526020808320909101546001600160a01b0316835282019290925260400190208054849081106117bc57fe5b906000526020600020906005020160010154613066565b6016600060076000600487815481106117e857fe5b60009182526020808320909101546001600160a01b031683528201929092526040018120600480549192918a90811061181d57fe5b60009182526020808320909101546001600160a01b03168352820192909252604001902080548590811061184d57fe5b600091825260208083206005909202909101546001600160a01b031683528201929092526040019020555b60010161077e565b505b6001016106a1565b5060005b6001600160a01b038716600090815260086020526040902054811015611dac576001600160a01b03871660009081526008602052604081208054839081106118d257fe5b9060005260206000200160009054906101000a90046001600160a01b03169050808360018151811061190057fe5b60200260200101906001600160a01b031690816001600160a01b03168152505061192861331d565b6040518061012001604052808a6001600160a01b03166306fdde036040518163ffffffff1660e01b815260040160006040518083038186803b15801561196d57600080fd5b505afa158015611981573d6000803e3d6000fd5b505050506040513d6000823e601f3d908101601f191682016040526119a991908101906137b1565b81526020018a6001600160a01b03166395d89b416040518163ffffffff1660e01b815260040160006040518083038186803b1580156119e757600080fd5b505afa1580156119fb573d6000803e3d6000fd5b505050506040513d6000823e601f3d908101601f19168201604052611a2391908101906137b1565b815260200185600081518110611a3557fe5b60200260200101516001600160a01b0316815260200185600181518110611a5857fe5b6020908102919091018101516001600160a01b0390811683528c81166000908152600a83526040808220888416808452818652828420805488880152600180820154858a015291855291909552600201546060860152600354608086015260a09094018d90529154925163d4cc468760e01b8152939450909291169063d4cc468790611ae8908590600401613cc6565b602060405180830381600087803b158015611b0257600080fd5b505af1158015611b16573d6000803e3d6000fd5b505050506040513d601f19601f82011682018060405250810190611b3a9190613497565b6001600160a01b03808c1660009081526007602090815260408083209388168352929052908120805492935091611b6d57fe5b600091825260208083206005909202909101546001600160a01b038d81168452600d835260408085206003810180546001600160a01b031916948416949094179093558d83554260019390930192909255815163038fff2d60e41b81529151908516926338fff2d0926004808201939182900301818787803b158015611bf257600080fd5b505af1158015611c06573d6000803e3d6000fd5b505050506040513d601f19601f82011682018060405250810190611c2a919061364d565b6001600160a01b038c166000908152600d6020526040902060020180549192508291fe5b611c5661337b565b815260200190600190039081611c4e5790505060408051608081019091529091508060008152602001838152602001866001600160a01b03168152602001600a60008f6001600160a01b03166001600160a01b031681526020019081526020016000206000886001600160a01b03166001600160a01b031681526020019081526020016000206002015481525081600081518110611cf057fe5b6020908102919091010152600254604051637362304960e11b81526001600160a01b039091169063e6c4609290611d2b908490600401613ac8565b600060405180830381600087803b158015611d4557600080fd5b505af1158015611d59573d6000803e3d6000fd5b505050506001600160a01b038c81166000908152600a602090815260408083209890931682529690965285208581556001808201879055600282018790556003909101959095555050509101905061188e565b506001600160a01b0386166000908152600860205260408120611dce916133a4565b505b5050505050565b611df533611de3612378565b6001600160a01b0316146101aa6130a9565b600080546040516001600160a01b03909116907f8be0079c531659141344cd1fd0a4f28419497f9722a3daafe3b4186f6b6457e0908390a3600080546001600160a01b0319169055565b601254604051633ea6c82d60e01b815260609160009184916001600160a01b031690633ea6c82d90611e75908490600401613885565b60206040518083038186803b158015611e8d57600080fd5b505afa158015611ea1573d6000803e3d6000fd5b505050506040513d601f19601f82011682018060405250810190611ec59190613615565b1515600114611ed357600080fd5b6001600160a01b0385166000908152600d6020526040902054421115611f5b577fe503f946da0fd985926e39b671f664bdb21ec4bc7ccce3d723425ecdf03cdce2600d6000876001600160a01b03166001600160a01b03168152602001908152602001600020600201600130604051611f4e93929190613a68565b60405180910390a1611fb0565b6001600160a01b0385166000908152600d602052604080822090517fe503f946da0fd985926e39b671f664bdb21ec4bc7ccce3d723425ecdf03cdce292611fa792600201913090613a68565b60405180910390a15b509250929050565b60145433906001600160a01b03168114611fd157600080fd5b6040516370a0823160e01b8152839033906370a0823190611ff6903090600401613885565b60206040518083038186803b15801561200e57600080fd5b505afa158015612022573d6000803e3d6000fd5b505050506040513d601f19601f82011682018060405250810190612046919061364d565b101561206d5760405162461bcd60e51b815260040161206490613c8f565b60405180910390fd5b6120796015548461309b565b6015556001600160a01b03821660009081526016602052604090205461209f908461309b565b6001600160a01b039092166000908152601660205260409020919091555050565b601254604051633ea6c82d60e01b815282916001600160a01b031690633ea6c82d906120f0908490600401613885565b60206040518083038186803b15801561210857600080fd5b505afa15801561211c573d6000803e3d6000fd5b505050506040513d601f19601f820116820180604052508101906121409190613615565b151560011461214e57600080fd5b6000838152601060205260408082205481516374fd6c7760e11b815291516001600160a01b039091169263e9fad8ee926004808201939182900301818387803b15801561219a57600080fd5b505af11580156121ae573d6000803e3d6000fd5b5050506000848152601160209081526040808320546001600160a01b03168352600c9091528120546003549192506121e5916130b7565b6014546040516370fd458160e11b81529192506001600160a01b03169063e1fa8b02906122189084903090600401613d74565b600060405180830381600087803b15801561223257600080fd5b505af1158015612246573d6000803e3d6000fd5b5050506000858152600e602052604081206122629250906133c5565b50505050565b6001600160a01b0381166000908152600b60205260409081902090516060917f8ae9edc1f4311efae155464035a368ea0e426fc3285bfe52280e9dbcc4591b3e916122b7913091869190613899565b60405180910390a16001600160a01b0382166000908152600b6020908152604080832080548251818502810185019093528083529193909284015b8282101561235e5760008481526020908190206040805160a0810182526005860290920180546001600160a01b039081168452600180830154909116848601526002820154928401929092526003810154606084015260040154608083015290835290920191016122f2565b505050509050919050565b6000612373612378565b905090565b6000546001600160a01b031690565b601354604051634427673360e01b815260609133916000916001600160a01b0316906344276733906123bd908590600401613885565b604080518083038186803b1580156123d457600080fd5b505afa1580156123e8573d6000803e3d6000fd5b505050506040513d601f19601f8201168201806040525081019061240c919061378e565b5090508061414d60f01b1461242057600080fd5b6001600160a01b038416600090815260066020908152604080832080548251818502810185019093528083529193909284015b828210156124ba5760008481526020908190206040805160a0810182526005860290920180546001600160a01b0316835260018082015484860152600282015492840192909252600381015460608401526004015460808301529083529092019101612453565b5050505092505050919050565b3360009081526016602052604090205490565b6124e633611de3612378565b600180546001600160a01b038089166001600160a01b03199283161790925560028054878416908316179055600387905560128054928616929091169190911790556040517fd1313384eb3fd96a3981fd56de6d2735f4385d635b8f2bdf84299e6f86f197ee90612558903090613885565b60405180910390a1601380546001600160a01b039283166001600160a01b0319918216179091556014805493909216921691909117905550505050565b60607f826b534c6e578975fa8e2fe70826ae45163bc94ae2e8104667f227ef1c3703753083600e60008681526020019081526020016000206040516125dc9392919061396e565b60405180910390a16000828152600e602090815260408083208054825181850281018501909352808352919390928401821561235e5760008481526020908190206040805160a0810182526005860290920180546001600160a01b039081168452600180830154909116848601526002820154928401929092526003810154606084015260040154608083015290835290920191016122f2565b6001546001600160a01b031681565b601254604051633ea6c82d60e01b815282916001600160a01b031690633ea6c82d906126b5908490600401613885565b60206040518083038186803b1580156126cd57600080fd5b505afa1580156126e1573d6000803e3d6000fd5b505050506040513d601f19601f820116820180604052508101906127059190613615565b151560011461271357600080fd5b6000848152600f602090815260408083206001600160a01b03871684529091529020548015611dd0576000858152600e602052604090208054600019830190811061275a57fe5b906000526020600020906005020160010160009054906101000a90046001600160a01b03166001600160a01b031663a9059cbb85600e600089815260200190815260200160002060018503815481106127af57fe5b9060005260206000209060050201600301546040518363ffffffff1660e01b81526004016127de929190613a04565b602060405180830381600087803b1580156127f857600080fd5b505af115801561280c573d6000803e3d6000fd5b505050506040513d601f19601f82011682018060405250810190611dce9190613615565b601254604051633ea6c82d60e01b815282916001600160a01b031690633ea6c82d90612860908490600401613885565b60206040518083038186803b15801561287857600080fd5b505afa15801561288c573d6000803e3d6000fd5b505050506040513d601f19601f820116820180604052508101906128b09190613615565b15156001146128be57600080fd5b6000868152600f602090815260408083206001600160a01b03891684529091528120548015612925576000888152600e602052604090208054612922918491600019850190811061290b57fe5b90600052602060002090600502016003015461309b565b91505b6000888152601060209081526040808320548151632541897f60e01b815291516001600160a01b0390911692632541897f9260048082019391829003018186803b15801561297257600080fd5b505afa158015612986573d6000803e3d6000fd5b505050506040513d601f19601f820116820180604052508101906129aa9190613497565b9050600091505b6001600160a01b0381166000908152600b6020526040902054821015612bc4576001600160a01b038181166000908152600b60205260409020805491881691849081106129fa57fe5b60009182526020909120600160059092020101546001600160a01b03161415612bb957856001600160a01b031663a9059cbb600b6000846001600160a01b03166001600160a01b031681526020019081526020016000208481548110612a5c57fe5b60009182526020909120600590910201546040516001600160e01b031960e084901b168152612a99916001600160a01b0316908b90600401613a04565b602060405180830381600087803b158015612ab357600080fd5b505af1158015612ac7573d6000803e3d6000fd5b505050506040513d601f19601f82011682018060405250810190612aeb9190613615565b506001600160a01b0381166000908152600b602052604090208054612b2d919084908110612b1557fe5b9060005260206000209060050201600301548861309b565b50856001600160a01b031663a9059cbb89612b48868b6130db565b6040518363ffffffff1660e01b8152600401612b65929190613a04565b602060405180830381600087803b158015612b7f57600080fd5b505af1158015612b93573d6000803e3d6000fd5b505050506040513d601f19601f82011682018060405250810190612bb79190613615565b505b6001909101906129b1565b505050505050505050565b601354604051634427673360e01b81526000916001600160a01b031690634427673390612c00903390600401613885565b604080518083038186803b158015612c1757600080fd5b505afa158015612c2b573d6000803e3d6000fd5b505050506040513d601f19601f82011682018060405250810190612c4f919061378e565b50601254604051633ea6c82d60e01b81529192506001600160a01b031690633ea6c82d90612c81908590600401613885565b60206040518083038186803b158015612c9957600080fd5b505afa158015612cad573d6000803e3d6000fd5b505050506040513d601f19601f82011682018060405250810190612cd19190613615565b151560011480612ce557508061414d60f01b145b612cee57600080fd5b8061414d60f01b1415612d7c576014546001600160a01b038981169116148015612d275750336000908152601660205260409020548611155b15612d7757612d3860155487613066565b60155533600090815260166020526040902054612d559087613066565b33600081815260166020526040902091909155612d77908989898989896130f1565b612e91565b6040516370a0823160e01b815286906001600160a01b038a16906370a0823190612daa908690600401613885565b60206040518083038186803b158015612dc257600080fd5b505afa158015612dd6573d6000803e3d6000fd5b505050506040513d601f19601f82011682018060405250810190612dfa919061364d565b10612e91576040516323b872dd60e01b81526001600160a01b038916906323b872dd90612e2f90859030908b9060040161394a565b602060405180830381600087803b158015612e4957600080fd5b505af1158015612e5d573d6000803e3d6000fd5b505050506040513d601f19601f82011682018060405250810190612e819190613615565b50612e91828989898989896130f1565b5050505050505050565b612ea733611de3612378565b612ebe6001600160a01b03821615156101ab6130a9565b600080546040516001600160a01b03808516939216917f8be0079c531659141344cd1fd0a4f28419497f9722a3daafe3b4186f6b6457e091a3600080546001600160a01b0319166001600160a01b0392909216919091179055565b601354604051634427673360e01b815260609133916000916001600160a01b031690634427673390612f4f908590600401613885565b604080518083038186803b158015612f6657600080fd5b505afa158015612f7a573d6000803e3d6000fd5b505050506040513d601f19601f82011682018060405250810190612f9e919061378e565b5090508061414d60f01b14612fb257600080fd5b6001600160a01b038086166000908152600760209081526040808320938816835292815282822080548451818402810184019095528085529092909184015b828210156130585760008481526020908190206040805160a0810182526005860290920180546001600160a01b0316835260018082015484860152600282015492840192909252600381015460608401526004015460808301529083529092019101612ff1565b505050509250505092915050565b600061307483836001613273565b9392505050565b600061308a82151560046130a9565b81838161309357fe5b049392505050565b600082820161307484821015835b8161041b5761041b81613289565b60008282026130748415806130d45750838583816130d157fe5b04145b60036130a9565b60006130eb8383111560016130a9565b50900390565b6130f96133e6565b506040805160a0810182526001600160a01b03808a168252602080830188815283850187815260608501878152608086018c81528d86166000818152600787528981208d89168083528189528b83208054838b52600180820183558286528b86208e516005808502909201805491909f166001600160a01b0319918216178f559b518e830155995160028e0155975160038d0155955160049b8c01558a54858552978a528c84208890559587019099557f8a35acfbc15ff81a39ae7d344fd709f28e8600b4aa8c65c6b64bfe7fe36bd19b909501805490961690911790945585845260068552968320949092529091528054929392839081106131f857fe5b6000918252602080832084546001818101875595855291909320600592830290930180549190920290920180546001600160a01b0319166001600160a01b0390931692909217825582810154928201929092556002808301549082015560038083015490820155600491820154910155505050505050505050565b600061328284841115836130a9565b5050900390565b62461bcd60e51b6000908152602060045260076024526642414c23000030600a808404818106603090810160081b95839006959095019082900491820690940160101b939093010160c81b604452606490fd5b6040518060a0016040528060006001600160a01b0316815260200160006001600160a01b031681526020016000815260200160008152602001600081525090565b604051806101200160405280606081526020016060815260200160006001600160a01b0316815260200160006001600160a01b0316815260200160008152602001600081526020016000815260200160008152602001600081525090565b604080516080810190915280600081526000602082018190526040820181905260609091015290565b50805460008255906000526020600020908101906133c29190613421565b50565b50805460008255600502906000526020600020908101906133c2919061343a565b6040518060a0016040528060006001600160a01b03168152602001600081526020016000815260200160008152602001600080191681525090565b5b808211156134365760008155600101613422565b5090565b5b808211156134365780546001600160a01b03199081168255600182018054909116905560006002820181905560038201819055600482015560050161343b565b60006020828403121561348c578081fd5b813561307481613dc3565b6000602082840312156134a8578081fd5b815161307481613dc3565b600080604083850312156134c5578081fd5b82356134d081613dc3565b915060208301356134e081613dc3565b809150509250929050565b600080600080600080600060e0888a031215613505578283fd5b873561351081613dc3565b96506020880135955060408801359450606088013561352e81613dc3565b93506080880135925060a0880135915060c088013561354c81613dc3565b8091505092959891949750929550565b600080600060608486031215613570578283fd5b833561357b81613dc3565b925060208401359150604084013561359281613dc3565b809150509250925092565b60008060008060008060c087890312156135b5578182fd5b86356135c081613dc3565b95506020870135945060408701356135d781613dc3565b935060608701356135e781613dc3565b925060808701356135f781613dc3565b915060a087013561360781613dc3565b809150509295509295509295565b600060208284031215613626578081fd5b81518015158114613074578182fd5b600060208284031215613646578081fd5b5035919050565b60006020828403121561365e578081fd5b5051919050565b60008060408385031215613677578182fd5b8235915060208301356134e081613dc3565b60008060006060848603121561369d578283fd5b8335925060208401356136af81613dc3565b9150604084013561359281613dc3565b600080600080600080600060e0888a0312156136d9578283fd5b8735965060208801356136eb81613dc3565b955060408801356136fb81613dc3565b9450606088013593506080880135925060a088013561371981613dc3565b8092505060c0880135905092959891949750929550565b600080600080600060a08688031215613747578283fd5b85359450602086013561375981613dc3565b935060408601359250606086013561377081613dc3565b9150608086013561378081613dc3565b809150509295509295909350565b600080604083850312156137a0578182fd5b505080516020909101519092909150565b6000602082840312156137c2578081fd5b815167ffffffffffffffff808211156137d9578283fd5b818401915084601f8301126137ec578283fd5b8151818111156137fa578384fd5b604051601f8201601f19168101602001838111828210171561381a578586fd5b604052818152838201602001871015613831578485fd5b613842826020830160208701613d97565b9695505050505050565b6001600160a01b03169052565b60008151808452613871816020860160208601613d97565b601f01601f19169290920160200192915050565b6001600160a01b0391909116815260200190565b6000606080830160018060a01b038088168552602081881681870152604091508382870152828754808552608094508488019150888752828720875b82811015613939576138f0846138eb8454613d8b565b61384c565b6138fd6001830154613d8b565b6139098686018261384c565b5060028201548487015260038201548885015260048201548785015260a0909301926005909101906001016138d5565b50919b9a5050505050505050505050565b6001600160a01b039384168152919092166020820152604081019190915260600190565b6000606080830160018060a01b03871684526020868186015260408381870152828754808552608094508488019150888752838720875b82811015613939576139bb846138eb8454613d8b565b6139c86001830154613d8b565b6139d48786018261384c565b5060028201548486015260038201548885015260048201548785015260a0909301926005909101906001016139a5565b6001600160a01b03929092168252602082015260400190565b604080825283519082018190526000906020906060840190828701845b82811015613a5657815184529284019290840190600101613a3a565b50505093151592019190915250919050565b6000606082016060835280865480835260808501915087845260209250828420845b82811015613aa657815484529284019260019182019101613a8a565b50505094151590830152506001600160a01b0391909116604090910152919050565b602080825282518282018190526000919060409081850190868401855b82811015613b32578151805160038110613afb57fe5b85528087015187860152858101516001600160a01b0316868601526060908101519085015260809093019290850190600101613ae5565b5091979650505050505050565b602080825282518282018190526000919060409081850190868401855b82811015613b3257815180516001600160a01b0316855286810151613b838887018261384c565b508086015185870152606080820151908601526080908101519085015260a09093019290850190600101613b5c565b602080825282518282018190526000919060409081850190868401855b82811015613b3257815180516001600160a01b0316855286810151613bf68887018261384c565b508086015185870152606080820151908601526080908101519085015260a09093019290850190600101613bcf565b602080825282518282018190526000919060409081850190868401855b82811015613b3257815180516001600160a01b0316855286810151878601528581015186860152606080820151908601526080908101519085015260a09093019290850190600101613c42565b6020808252601f908201527f5374616b656420616d6f756e74206973206e6f7420696e2062616c616e636500604082015260600190565b6000602082528251610120806020850152613ce5610140850183613859565b91506020850151601f19858403016040860152613d028382613859565b9250506040850151613d17606086018261384c565b506060850151613d2a608086018261384c565b50608085015160a085015260a085015160c085015260c085015160e085015260e0850151610100818187015280870151838701525050508091505092915050565b90815260200190565b9182526001600160a01b0316602082015260400190565b6001600160a01b031690565b60005b83811015613db2578181015183820152602001613d9a565b838111156122625750506000910152565b6001600160a01b03811681146133c257600080fdfea2646970667358221220c7d97af6e86e3963acc876579149eaa9c02aebe28240a1b58e724808a3190fc264736f6c63430007010033",
  "immutableReferences": {},
  "source": "// Verified asset manager\r\n// (c) Kallol Borah, Verified Network, 2021\r\n\r\n//\"SPDX-License-Identifier: UNLICENSED\"\r\n\r\npragma solidity ^0.7.1;\r\npragma experimental ABIEncoderV2;\r\n\r\nimport '@balancer-labs/v2-solidity-utils/contracts/openzeppelin/IERC20.sol';\r\nimport '@balancer-labs/v2-solidity-utils/contracts/openzeppelin/ERC20.sol';\r\nimport '@balancer-labs/v2-solidity-utils/contracts/openzeppelin/Ownable.sol';\r\nimport \"@balancer-labs/v2-solidity-utils/contracts/math/Math.sol\";\r\n\r\nimport '@balancer-labs/v2-vault/contracts/interfaces/IVault.sol';\r\nimport '@balancer-labs/v2-vault/contracts/interfaces/IAsset.sol';\r\n\r\nimport './interfaces/IPrimaryIssuePoolFactory.sol';\r\nimport './interfaces/IPrimaryIssuePool.sol';\r\nimport './interfaces/VerifiedProducts.sol';\r\nimport './interfaces/VerifiedClient.sol';\r\nimport './interfaces/IMarketMaker.sol';\r\nimport './interfaces/ILiquidity.sol';\r\n\r\ncontract BalancerManager is IMarketMaker, Ownable{\r\n\r\n    using Math for uint256;\r\n\r\n    // balancer variables\r\n    IPrimaryIssuePoolFactory public factory;\r\n    IVault vault;\r\n    uint256 swapFeePercentage=0;\r\n\r\n    // modifiers\r\n    modifier onlyPool(bytes32 poolId, address security) {\r\n        require(poolId == IPrimaryIssuePool(security).getPoolId());\r\n        _;\r\n    }\r\n\r\n    modifier onlyIssuer(address sender) {\r\n        require(products.checkProduct(sender)==true);\r\n        _;\r\n    }\r\n\r\n    modifier onlyLP(address sender) {\r\n        require(sender==LPToken);\r\n        _;\r\n    }\r\n\r\n    modifier onlyAssetManager(address sender){\r\n        (bytes32 role, ) = client.getRole(sender);\r\n        require(role=='AM');\r\n        _;\r\n    }\r\n\r\n    // list of offered tokens\r\n    address[] internal offeredTokens;\r\n\r\n    // mapping token offered to its position in the list of offered tokens\r\n    mapping(address => uint256) private offeredTokenIndex;\r\n\r\n    // list of tokens to match\r\n    mapping(address => token[]) internal toMatchTokens;\r\n\r\n    // mapping offered token (eg, security token) to a token to match (eg, settlement token)\r\n    mapping(address => mapping(address => token[])) internal mmtokens;\r\n\r\n    // mapping offered token (ie security token) to its paired token \r\n    mapping(address => address[]) internal pairedTokens;\r\n\r\n    // mapping liqudity token to its position in the list of liquidity tokens\r\n    mapping(address => mapping(address => uint256)) private pairedTokenIndex;\r\n\r\n    struct liquidity{\r\n        uint minPrice;\r\n        uint maxPrice;\r\n        uint amountIssued;\r\n        uint amountOffered;\r\n    }\r\n\r\n    // mapping qualified liquidity token to its price and amount offered by market makers (LPs)\r\n    mapping(address => mapping(address => liquidity)) internal qlTokens;\r\n\r\n    // mapping security to liquidity providers\r\n    mapping(address => lp[]) private liquidityProviders;\r\n\r\n    // mapping securities issued in the primary issue pool to total liquidity offered\r\n    mapping(address => uint256) private totalUnderwritten;\r\n\r\n    // components of a primary issue of a security token\r\n    struct primary{\r\n        uint256 deadline;\r\n        uint256 startTime;\r\n        bytes32[] pools;\r\n        address issuer;\r\n    }\r\n\r\n    // mapping security to new issues in the primary issue pool\r\n    mapping(address => primary) internal issues;\r\n\r\n    // mapping primary issue pool id to subscribers that swap in assets into pool\r\n    mapping(bytes32 => subscriptions[]) internal investors; \r\n\r\n    // mapping primary issue pool id to subscriber and its position in the list of subscribers to the pool\r\n    mapping(bytes32 => mapping(address => uint256)) private subscriberIndex;\r\n\r\n    // mapping pool id to pool address\r\n    mapping(bytes32 => address) private pools;\r\n\r\n    // mapping pool id to security token offered\r\n    mapping(bytes32 => address) private poolSecurity;\r\n\r\n    // reference to the Verified Products contract that this asset manager contract reports created primary issue pools to\r\n    VerifiedProducts products;\r\n\r\n    // reference to the Verified Client contract\r\n    VerifiedClient client;\r\n\r\n    // reference to the Verified Liquidity contract that provides liquidity (ie, VITTA) to the asset manager to underwrite investments in tokenized securities\r\n    address private LPToken;\r\n    \r\n    // LP token staked\r\n    uint256 private LPTokenStaked;\r\n\r\n    // LP token allotted\r\n    mapping(address => uint256) private LPTokenAllotted;\r\n\r\n    event marketmakers(address platform, address security, lp[] providers);\r\n    event subscribers(address platform, bytes32 poolId, subscriptions[] investors);\r\n    event platforms(address platform);\r\n    event onClose(bytes32[] pools, bool close, address platform);\r\n\r\n    /**\r\n        Initializes this asset management contract\r\n        @param  _factory            reference to the primary issue pool factory contract\r\n        @param  _swapFeePercentage  percentage of trading fee to be charged by the asset manager\r\n        @param  _vault              reference to the Balancer vault\r\n        @param  _products           reference to the Verified Products contract that this contract reports created primary issue pools to\r\n     */\r\n    function initialize(address _factory, uint256 _swapFeePercentage, address _vault, address _products, address _LPToken, address _client) onlyOwner public {\r\n        factory = IPrimaryIssuePoolFactory(_factory);\r\n        vault = IVault(_vault);\r\n        swapFeePercentage = _swapFeePercentage;\r\n        products = VerifiedProducts(_products);\r\n        //products.registerPlatform(address(this), owner());\r\n        emit platforms(address(this));\r\n        client = VerifiedClient(_client);\r\n        LPToken = _LPToken;\r\n    }\r\n\r\n    /**\r\n        Called by market maker and issuer for adding liquidity\r\n        @param  owned       is the security or settlement token on offer \r\n        @param  offered     is the amount offered\r\n        @param  tomatch     is the liquidity token that is required to be paired\r\n        @param  desired     is the amount required of the liquidity token to be paired\r\n        @param  min         is the minimum amount to be swapped of the 'offered' token \r\n        @param  isin        is the identifier for the security token offered\r\n     */ \r\n    function offer(address owned, bytes32 isin, uint offered, address tomatch, uint desired, uint min, address issuer) override external{\r\n        (bytes32 role, ) = client.getRole(msg.sender);\r\n        require(products.checkProduct(issuer)==true || role=='AM');\r\n        if(role==\"AM\"){\r\n            if(owned==LPToken && LPTokenAllotted[msg.sender]>=offered){\r\n                LPTokenStaked = SafeMath.sub(LPTokenStaked, offered);\r\n                LPTokenAllotted[msg.sender] = SafeMath.sub(LPTokenAllotted[msg.sender], offered);\r\n                make(msg.sender, owned, isin, offered, tomatch, desired, min); \r\n            }\r\n        }\r\n        else if(IERC20(owned).balanceOf(issuer)>=offered){ \r\n            IERC20(owned).transferFrom(issuer, address(this), offered);\r\n            make(issuer, owned, isin, offered, tomatch, desired, min); \r\n        }\r\n    }\r\n\r\n    function make(address _owner, address owned, bytes32 _isin, uint _offered, address tomatch, uint _desired, uint _min) private {\r\n        IMarketMaker.token memory t = IMarketMaker.token({\r\n            owner: _owner,\r\n            amountDesired: _desired,\r\n            amountOffered: _offered,\r\n            min: _min,\r\n            isin: _isin\r\n        });\r\n        uint256 index = mmtokens[owned][tomatch].length;\r\n        mmtokens[owned][tomatch].push(t);\r\n        offeredTokenIndex[owned] = offeredTokens.length;\r\n        offeredTokens.push(owned);\r\n        toMatchTokens[tomatch].push(mmtokens[owned][tomatch][index]);        \r\n    }\r\n\r\n    /**\r\n        Gets tokens to match for offered token\r\n        @param  offered address of offered token\r\n     */\r\n    function getOffered(address offered) override onlyAssetManager(msg.sender) external view returns(IMarketMaker.token[] memory){\r\n        return toMatchTokens[offered];\r\n    }\r\n\r\n    /**\r\n        Gets offer made previously\r\n        @param  _owned      address of token offered\r\n        @param  _tomatch    address of token to match\r\n     */\r\n    function getOfferMade(address _owned, address _tomatch) override onlyAssetManager(msg.sender) external view returns(IMarketMaker.token[] memory){\r\n        return mmtokens[_owned][_tomatch];\r\n    }\r\n\r\n    /**\r\n        Fetches liquidity providers for a security token\r\n        @param  _security   identifier for the security token offered\r\n     */\r\n    function getLiquidityProviders(address _security) override external returns(lp[] memory){\r\n        emit marketmakers(address(this), _security, liquidityProviders[_security]);\r\n        return liquidityProviders[_security];\r\n    }\r\n\r\n    /**\r\n        Called by Liquidity token contract to stake liquidity tokens by investors in VITTA\r\n        @param  amount  amount of VITTA staked to provide liquidity for underwriting investments in tokenized securities\r\n     */\r\n    function stake(uint256 amount, address manager) override onlyLP(msg.sender) external {\r\n        require(IERC20(msg.sender).balanceOf(address(this))>=amount, 'Staked amount is not in balance');\r\n        LPTokenStaked = SafeMath.add(LPTokenStaked, amount);\r\n        LPTokenAllotted[manager] = SafeMath.add(LPTokenAllotted[manager], amount);\r\n    }\r\n\r\n    /**\r\n        Gets liquidity allotted for asset manager (message sender)\r\n     */\r\n    function getAllotedStake() override external view returns(uint256){\r\n        return LPTokenAllotted[msg.sender];\r\n    }\r\n\r\n    /**\r\n        Called by Liquidity contract to withdraw liquidity from this liquidity platform\r\n        @param  amount  amount of liquidity in VITTA token to withdraw\r\n     */ \r\n    function withdraw(uint256 amount) override onlyLP(msg.sender) external {\r\n        if(LPTokenStaked >= amount){\r\n            IERC20(LPToken).transferFrom(address(this), LPToken, amount);\r\n            LPTokenStaked = SafeMath.sub(LPTokenStaked, amount);\r\n        }\r\n        else {\r\n            IERC20(LPToken).transferFrom(address(this), LPToken, LPTokenStaked);\r\n            LPTokenStaked = 0;\r\n        }\r\n    }\r\n\r\n    /**\r\n        Called by issuer of 'security' token to open an issue which will last till 'cutoffTime'\r\n        @param  security    security offered to the primary issue pool\r\n        @param  cutoffTime  time in milliseconds by when offer closes\r\n     */\r\n    function issue(address security, uint256 cutoffTime, address issuer) override onlyIssuer(issuer) external {\r\n        // check if security to be issued has been offered by the issuer, and if yes, initialize the issuance\r\n        uint i = offeredTokenIndex[security];\r\n        if(offeredTokens[i]==security){\r\n            IERC20[] memory tokens = new IERC20[](2);\r\n            tokens[0] = IERC20(offeredTokens[i]);\r\n            \r\n            // check all offered securities that is not the security to be issued\r\n            for(uint j=0; j<offeredTokens.length; j++){\r\n                if(offeredTokens[j]!=security){\r\n\r\n                    // check if the request to issue has come from the issuer\r\n                    if(mmtokens[offeredTokens[i]][offeredTokens[j]][0].owner == issuer){\r\n\r\n                        for(uint k=0; k<mmtokens[offeredTokens[j]][offeredTokens[i]].length; k++){\r\n\r\n                            // find tokens offered against security to be issued\r\n                            if(mmtokens[offeredTokens[i]][offeredTokens[j]][0].amountOffered!=0){\r\n                                if(mmtokens[offeredTokens[j]][offeredTokens[i]][k].amountOffered!=0){\r\n                                    \r\n                                    // if min offer price for security issued is greater than price desired by market maker (LP)\r\n                                    if( Math.divDown(mmtokens[offeredTokens[i]][offeredTokens[j]][0].min,\r\n                                        mmtokens[offeredTokens[i]][offeredTokens[j]][0].amountOffered) >=\r\n                                        Math.divDown(mmtokens[offeredTokens[j]][offeredTokens[i]][k].amountOffered,\r\n                                        mmtokens[offeredTokens[j]][offeredTokens[i]][k].amountDesired))\r\n                                    {   \r\n                                        // store liquidity tokens    \r\n                                        if(pairedTokenIndex[security][offeredTokens[j]]==0){\r\n                                            pairedTokens[security].push(offeredTokens[j]);\r\n                                            pairedTokenIndex[security][offeredTokens[j]] = pairedTokens[security].length;\r\n                                        }\r\n\r\n                                        // find and store min price for token offered\r\n                                        if(Math.divDown(mmtokens[offeredTokens[i]][offeredTokens[j]][0].min,\r\n                                            mmtokens[offeredTokens[i]][offeredTokens[j]][0].amountOffered) < \r\n                                            qlTokens[security][offeredTokens[j]].minPrice  || \r\n                                            qlTokens[security][offeredTokens[j]].minPrice==0)\r\n                                        {\r\n                                            qlTokens[security][offeredTokens[j]].minPrice = \r\n                                                        Math.divDown(mmtokens[offeredTokens[i]][offeredTokens[j]][0].min,\r\n                                                        mmtokens[offeredTokens[i]][offeredTokens[j]][0].amountOffered);\r\n                                        }\r\n                                        // find and store max price for token offered\r\n                                        if(Math.divDown(mmtokens[offeredTokens[j]][offeredTokens[i]][k].amountOffered,\r\n                                            mmtokens[offeredTokens[j]][offeredTokens[i]][k].min) > \r\n                                            qlTokens[security][offeredTokens[j]].maxPrice)\r\n                                        {\r\n                                            qlTokens[security][offeredTokens[j]].maxPrice = \r\n                                                        Math.divDown(mmtokens[offeredTokens[j]][offeredTokens[i]][k].amountOffered,\r\n                                                        mmtokens[offeredTokens[j]][offeredTokens[i]][k].min);                                        \r\n                                        }  \r\n                                        qlTokens[security][offeredTokens[j]].amountIssued = \r\n                                                        Math.add(qlTokens[security][offeredTokens[j]].amountIssued,\r\n                                                        mmtokens[offeredTokens[i]][offeredTokens[j]][0].amountOffered);\r\n                                        qlTokens[security][offeredTokens[j]].amountOffered = \r\n                                                        Math.add(qlTokens[security][offeredTokens[j]].amountOffered,\r\n                                                        mmtokens[offeredTokens[j]][offeredTokens[i]][k].amountOffered);  \r\n                                        // store qualified liquidity provider info\r\n                                        lp memory provider = lp({\r\n                                            owner : mmtokens[offeredTokens[j]][offeredTokens[i]][k].owner,\r\n                                            tokenOffered : offeredTokens[j],\r\n                                            underwritten : mmtokens[offeredTokens[j]][offeredTokens[i]][k].amountOffered,\r\n                                            subscribed : 0,\r\n                                            earned : 0\r\n                                        });\r\n                                        liquidityProviders[offeredTokens[i]].push(provider);  \r\n\r\n                                        totalUnderwritten[offeredTokens[i]] = \r\n                                        SafeMath.add(totalUnderwritten[offeredTokens[i]], mmtokens[offeredTokens[j]][offeredTokens[i]][k].amountOffered);\r\n                                    }\r\n                                    else {\r\n                                        // remove stake offered to underwrite issue\r\n                                        LPTokenStaked = SafeMath.add(LPTokenStaked, mmtokens[offeredTokens[j]][offeredTokens[i]][k].amountOffered);\r\n                                        LPTokenAllotted[mmtokens[offeredTokens[j]][offeredTokens[i]][k].owner] = \r\n                                                                    SafeMath.sub(LPTokenAllotted[mmtokens[offeredTokens[j]][offeredTokens[i]][k].owner], \r\n                                                                    mmtokens[offeredTokens[j]][offeredTokens[i]][k].amountOffered);\r\n                                    }\r\n                                }\r\n                            }\r\n                        }\r\n                    }\r\n                }\r\n            }\r\n            //create primary issue pool if it does not exist already\r\n            for(uint x=0; x<pairedTokens[security].length; x++){\r\n                address lptoken = pairedTokens[security][x];\r\n                tokens[1] = IERC20(lptoken);\r\n                IPrimaryIssuePoolFactory.FactoryPoolParams memory poolparams = IPrimaryIssuePoolFactory.FactoryPoolParams({\r\n                    name : ERC20(security).name(),\r\n                    symbol : ERC20(security).symbol(),\r\n                    security : tokens[0],\r\n                    currency : tokens[1],\r\n                    minimumPrice : qlTokens[security][lptoken].minPrice,\r\n                    basePrice : qlTokens[security][lptoken].maxPrice,\r\n                    maxAmountsIn : qlTokens[security][lptoken].amountIssued,\r\n                    issueFeePercentage : swapFeePercentage,\r\n                    cutOffTime : cutoffTime\r\n                });\r\n                address newIssue = factory.create(poolparams);\r\n                // store details of new pool created\r\n                issues[security].issuer = mmtokens[security][lptoken][0].owner;\r\n                issues[security].deadline = cutoffTime;\r\n                issues[security].startTime = block.timestamp;\r\n                bytes32 pool = IPrimaryIssuePool(newIssue).getPoolId();\r\n                issues[security].pools[issues[security].pools.length] = pool;\r\n                pools[pool] = newIssue;\r\n                poolSecurity[pool] = security;\r\n                // initialize the pool here\r\n                vault.setRelayerApproval(address(this), newIssue, true);\r\n                IPrimaryIssuePool(newIssue).initialize();\r\n                // take right to manage pool\r\n                IVault.PoolBalanceOp[] memory ops = new IVault.PoolBalanceOp[](1);\r\n                ops[0] = IVault.PoolBalanceOp({\r\n                    kind: IVault.PoolBalanceOpKind.WITHDRAW,\r\n                    poolId: pool,\r\n                    token: IERC20(lptoken),\r\n                    amount: qlTokens[security][lptoken].amountIssued\r\n                });\r\n                vault.managePoolBalance(ops);\r\n                delete qlTokens[security][lptoken];\r\n            }\r\n            delete pairedTokens[security];\r\n        }\r\n    }\r\n\r\n    // called by pool when assets are swapped in by investors against security tokens issued\r\n    function subscribe(bytes32 poolId, address security, address assetIn, bytes32 assetName, uint256 amount, address investor, uint256 price) override onlyPool(poolId, security) external {\r\n        investors[poolId].push(IMarketMaker.subscriptions(investor, assetIn, assetName, amount, price));\r\n        subscriberIndex[poolId][investor] = investors[poolId].length;\r\n    }\r\n\r\n    /**\r\n        Fetches investors (subscribers) to a primary issue pool\r\n        @param   poolId identifier for a primary issue pool for which subscribers are to be returned\r\n     */\r\n    function getSubscribers(bytes32 poolId) override external returns(subscriptions[] memory){\r\n        emit subscribers(address(this), poolId, investors[poolId]);\r\n        return investors[poolId];\r\n    }\r\n\r\n    /**\r\n        Called by issuer to close subscription of 'security' issued by it\r\n        @param  security    address of security token\r\n     */  \r\n    function close(address security, address issuer) override onlyIssuer(issuer) external returns(bytes32[] memory, bool) {\r\n        if(block.timestamp > issues[security].deadline)\r\n            //return (issues[security].pools, true);\r\n            emit onClose(issues[security].pools, true, address(this));\r\n        else\r\n            //return (issues[security].pools, false);\r\n            emit onClose(issues[security].pools, false, address(this));\r\n    }\r\n\r\n    /**\r\n        Called by issuer to accept subscription to issue by investor\r\n        @param  poolid      identifier of primary issue pool in which subscription is made by investor\r\n        @param  investor    address of investor (subscriber)\r\n        @param  amnt        amount of investment (subscription capital) accepted by issuer for which allotment of security tokens are made to investor\r\n        @param  asset       address of asset which is used by investor to subscribe to the issue\r\n     */ \r\n    function accept(bytes32 poolid, address investor, uint256 amnt, address asset, address issuer) override onlyIssuer(issuer) external {\r\n        uint256 invested = 0;\r\n        uint256 i = subscriberIndex[poolid][investor];\r\n        if(i>0)\r\n            invested = Math.add(invested, investors[poolid][i-1].amount);\r\n        // transfer subscriptions for allotments to asset manager for asset subscribed with\r\n        address issued = IPrimaryIssuePool(pools[poolid]).getSecurity();\r\n        for(i=0; i<liquidityProviders[issued].length; i++){\r\n            if(liquidityProviders[issued][i].tokenOffered==asset){\r\n                // transfer allotted amount to asset manager\r\n                IERC20(asset).transfer(liquidityProviders[issued][i].owner, amnt);\r\n                SafeMath.add(liquidityProviders[issued][i].subscribed, amnt);\r\n                // refund balance to investors\r\n                IERC20(asset).transfer(investor, Math.sub(invested, amnt));\r\n            }\r\n        }\r\n    }\r\n\r\n    /**\r\n        Called by issuer to reject subscription to issue by investor\r\n        @param  poolid      identifier for primary issue pool to which investor has subscribed\r\n        @param  investor    address of investor (subscriber)\r\n     */ \r\n    function reject(bytes32 poolid, address investor, address issuer) override onlyIssuer(issuer) external {\r\n        uint256 i = subscriberIndex[poolid][investor];\r\n        if(i>0){\r\n            IERC20(investors[poolid][i-1].asset).transfer(investor, investors[poolid][i-1].amount);\r\n        }\r\n    }\r\n\r\n    /**\r\n        Called by product issuer to settle distribution of fee income arising from investment underwritten in the primary issue pool\r\n        @param  poolId  identifier for primary issue pool\r\n     */  \r\n    function settle(bytes32 poolId, address issuer) override onlyIssuer(issuer) external {\r\n        IPrimaryIssuePool(pools[poolId]).exit(); \r\n        uint256 underwritingFee = Math.mul(totalUnderwritten[poolSecurity[poolId]], swapFeePercentage);\r\n        ILiquidity(LPToken).distribute(underwritingFee, address(this));\r\n        delete investors[poolId];     \r\n    }   \r\n\r\n    function getOwner() override external view returns(address){\r\n        return owner();\r\n    }\r\n   \r\n}",
  "sourcePath": "D:\\Code\\verified-quorum\\balancer\\contracts\\BalancerManager.sol",
  "compiler": {
    "name": "solc",
    "version": "0.7.1+commit.f4a555be.Emscripten.clang"
  },
  "schemaVersion": "3.4.3",
  "updatedAt": "2022-03-04T06:32:56.780Z",
  "networkType": "ethereum",
  "devdoc": {
    "kind": "dev",
    "methods": {
      "accept(bytes32,address,uint256,address,address)": {
        "params": {
          "amnt": "amount of investment (subscription capital) accepted by issuer for which allotment of security tokens are made to investor",
          "asset": "address of asset which is used by investor to subscribe to the issue",
          "investor": "address of investor (subscriber)",
          "poolid": "identifier of primary issue pool in which subscription is made by investor"
        }
      },
      "close(address,address)": {
        "params": {
          "security": "address of security token"
        }
      },
      "getLiquidityProviders(address)": {
        "params": {
          "_security": "identifier for the security token offered"
        }
      },
      "getOfferMade(address,address)": {
        "params": {
          "_owned": "address of token offered",
          "_tomatch": "address of token to match"
        }
      },
      "getOffered(address)": {
        "params": {
          "offered": "address of offered token"
        }
      },
      "getSubscribers(bytes32)": {
        "params": {
          "poolId": "identifier for a primary issue pool for which subscribers are to be returned"
        }
      },
      "initialize(address,uint256,address,address,address,address)": {
        "params": {
          "_factory": "reference to the primary issue pool factory contract",
          "_products": "reference to the Verified Products contract that this contract reports created primary issue pools to",
          "_swapFeePercentage": "percentage of trading fee to be charged by the asset manager",
          "_vault": "reference to the Balancer vault"
        }
      },
      "issue(address,uint256,address)": {
        "params": {
          "cutoffTime": "time in milliseconds by when offer closes",
          "security": "security offered to the primary issue pool"
        }
      },
      "offer(address,bytes32,uint256,address,uint256,uint256,address)": {
        "params": {
          "desired": "is the amount required of the liquidity token to be paired",
          "isin": "is the identifier for the security token offered",
          "min": "is the minimum amount to be swapped of the 'offered' token ",
          "offered": "is the amount offered",
          "owned": "is the security or settlement token on offer ",
          "tomatch": "is the liquidity token that is required to be paired"
        }
      },
      "owner()": {
        "details": "Returns the address of the current owner."
      },
      "reject(bytes32,address,address)": {
        "params": {
          "investor": "address of investor (subscriber)",
          "poolid": "identifier for primary issue pool to which investor has subscribed"
        }
      },
      "renounceOwnership()": {
        "details": "Leaves the contract without owner. It will not be possible to call `onlyOwner` functions anymore. Can only be called by the current owner. NOTE: Renouncing ownership will leave the contract without an owner, thereby removing any functionality that is only available to the owner."
      },
      "settle(bytes32,address)": {
        "params": {
          "poolId": "identifier for primary issue pool"
        }
      },
      "stake(uint256,address)": {
        "params": {
          "amount": "amount of VITTA staked to provide liquidity for underwriting investments in tokenized securities"
        }
      },
      "transferOwnership(address)": {
        "details": "Transfers ownership of the contract to a new account (`newOwner`). Can only be called by the current owner."
      },
      "withdraw(uint256)": {
        "params": {
          "amount": "amount of liquidity in VITTA token to withdraw"
        }
      }
    },
    "version": 1
  },
  "userdoc": {
    "kind": "user",
    "methods": {
      "accept(bytes32,address,uint256,address,address)": {
        "notice": "Called by issuer to accept subscription to issue by investor"
      },
      "close(address,address)": {
        "notice": "Called by issuer to close subscription of 'security' issued by it"
      },
      "getAllotedStake()": {
        "notice": "Gets liquidity allotted for asset manager (message sender)"
      },
      "getLiquidityProviders(address)": {
        "notice": "Fetches liquidity providers for a security token"
      },
      "getOfferMade(address,address)": {
        "notice": "Gets offer made previously"
      },
      "getOffered(address)": {
        "notice": "Gets tokens to match for offered token"
      },
      "getSubscribers(bytes32)": {
        "notice": "Fetches investors (subscribers) to a primary issue pool"
      },
      "initialize(address,uint256,address,address,address,address)": {
        "notice": "Initializes this asset management contract"
      },
      "issue(address,uint256,address)": {
        "notice": "Called by issuer of 'security' token to open an issue which will last till 'cutoffTime'"
      },
      "offer(address,bytes32,uint256,address,uint256,uint256,address)": {
        "notice": "Called by market maker and issuer for adding liquidity"
      },
      "reject(bytes32,address,address)": {
        "notice": "Called by issuer to reject subscription to issue by investor"
      },
      "settle(bytes32,address)": {
        "notice": "Called by product issuer to settle distribution of fee income arising from investment underwritten in the primary issue pool"
      },
      "stake(uint256,address)": {
        "notice": "Called by Liquidity token contract to stake liquidity tokens by investors in VITTA"
      },
      "withdraw(uint256)": {
        "notice": "Called by Liquidity contract to withdraw liquidity from this liquidity platform"
      }
    },
    "version": 1
  }
}