{
  "contractName": "BalancerManager",
  "abi": [
    {
      "anonymous": false,
      "inputs": [
        {
          "indexed": true,
          "internalType": "address",
          "name": "previousOwner",
          "type": "address"
        },
        {
          "indexed": true,
          "internalType": "address",
          "name": "newOwner",
          "type": "address"
        }
      ],
      "name": "OwnershipTransferred",
      "type": "event"
    },
    {
      "anonymous": false,
      "inputs": [
        {
          "indexed": false,
          "internalType": "address",
          "name": "security",
          "type": "address"
        },
        {
          "indexed": false,
          "internalType": "address",
          "name": "platform",
          "type": "address"
        },
        {
          "components": [
            {
              "internalType": "address",
              "name": "owner",
              "type": "address"
            },
            {
              "internalType": "address",
              "name": "tokenOffered",
              "type": "address"
            },
            {
              "internalType": "uint256",
              "name": "underwritten",
              "type": "uint256"
            },
            {
              "internalType": "uint256",
              "name": "subscribed",
              "type": "uint256"
            },
            {
              "internalType": "uint256",
              "name": "earned",
              "type": "uint256"
            }
          ],
          "indexed": false,
          "internalType": "struct IMarketMaker.lp[]",
          "name": "providers",
          "type": "tuple[]"
        }
      ],
      "name": "marketmakers",
      "type": "event"
    },
    {
      "anonymous": false,
      "inputs": [
        {
          "indexed": false,
          "internalType": "address",
          "name": "security",
          "type": "address"
        },
        {
          "indexed": false,
          "internalType": "bytes32[]",
          "name": "pools",
          "type": "bytes32[]"
        },
        {
          "indexed": false,
          "internalType": "bool",
          "name": "close",
          "type": "bool"
        },
        {
          "indexed": false,
          "internalType": "address",
          "name": "platform",
          "type": "address"
        }
      ],
      "name": "onClose",
      "type": "event"
    },
    {
      "anonymous": false,
      "inputs": [
        {
          "indexed": false,
          "internalType": "address",
          "name": "platform",
          "type": "address"
        }
      ],
      "name": "platforms",
      "type": "event"
    },
    {
      "anonymous": false,
      "inputs": [
        {
          "indexed": false,
          "internalType": "bytes32",
          "name": "poolid",
          "type": "bytes32"
        }
      ],
      "name": "poolID",
      "type": "event"
    },
    {
      "anonymous": false,
      "inputs": [
        {
          "indexed": false,
          "internalType": "address",
          "name": "security",
          "type": "address"
        },
        {
          "indexed": false,
          "internalType": "address",
          "name": "platform",
          "type": "address"
        },
        {
          "indexed": false,
          "internalType": "bytes32",
          "name": "poolId",
          "type": "bytes32"
        },
        {
          "components": [
            {
              "internalType": "address",
              "name": "investor",
              "type": "address"
            },
            {
              "internalType": "address",
              "name": "asset",
              "type": "address"
            },
            {
              "internalType": "bytes32",
              "name": "name",
              "type": "bytes32"
            },
            {
              "internalType": "uint256",
              "name": "amount",
              "type": "uint256"
            },
            {
              "internalType": "uint256",
              "name": "price",
              "type": "uint256"
            }
          ],
          "indexed": false,
          "internalType": "struct IMarketMaker.subscriptions[]",
          "name": "investors",
          "type": "tuple[]"
        }
      ],
      "name": "subscribers",
      "type": "event"
    },
    {
      "inputs": [],
      "name": "factory",
      "outputs": [
        {
          "internalType": "contract IPrimaryIssuePoolFactory",
          "name": "",
          "type": "address"
        }
      ],
      "stateMutability": "view",
      "type": "function",
      "constant": true
    },
    {
      "inputs": [],
      "name": "owner",
      "outputs": [
        {
          "internalType": "address",
          "name": "",
          "type": "address"
        }
      ],
      "stateMutability": "view",
      "type": "function",
      "constant": true
    },
    {
      "inputs": [],
      "name": "renounceOwnership",
      "outputs": [],
      "stateMutability": "nonpayable",
      "type": "function"
    },
    {
      "inputs": [
        {
          "internalType": "address",
          "name": "newOwner",
          "type": "address"
        }
      ],
      "name": "transferOwnership",
      "outputs": [],
      "stateMutability": "nonpayable",
      "type": "function"
    },
    {
      "inputs": [
        {
          "internalType": "address",
          "name": "_factory",
          "type": "address"
        },
        {
          "internalType": "uint256",
          "name": "_swapFeePercentage",
          "type": "uint256"
        },
        {
          "internalType": "address",
          "name": "_vault",
          "type": "address"
        },
        {
          "internalType": "address",
          "name": "_products",
          "type": "address"
        },
        {
          "internalType": "address",
          "name": "_liquidity",
          "type": "address"
        },
        {
          "internalType": "address",
          "name": "_client",
          "type": "address"
        },
        {
          "internalType": "address",
          "name": "_bridge",
          "type": "address"
        }
      ],
      "name": "initialize",
      "outputs": [],
      "stateMutability": "nonpayable",
      "type": "function"
    },
    {
      "inputs": [
        {
          "internalType": "address",
          "name": "_signer",
          "type": "address"
        }
      ],
      "name": "setSigner",
      "outputs": [],
      "stateMutability": "nonpayable",
      "type": "function"
    },
    {
      "inputs": [
        {
          "internalType": "address",
          "name": "owned",
          "type": "address"
        },
        {
          "internalType": "bytes32",
          "name": "isin",
          "type": "bytes32"
        },
        {
          "internalType": "uint256",
          "name": "offered",
          "type": "uint256"
        },
        {
          "internalType": "address",
          "name": "tomatch",
          "type": "address"
        },
        {
          "internalType": "uint256",
          "name": "desired",
          "type": "uint256"
        },
        {
          "internalType": "uint256",
          "name": "min",
          "type": "uint256"
        },
        {
          "internalType": "address",
          "name": "issuer",
          "type": "address"
        }
      ],
      "name": "offer",
      "outputs": [],
      "stateMutability": "nonpayable",
      "type": "function"
    },
    {
      "inputs": [
        {
          "internalType": "address",
          "name": "offered",
          "type": "address"
        }
      ],
      "name": "getOffered",
      "outputs": [
        {
          "components": [
            {
              "internalType": "address",
              "name": "owner",
              "type": "address"
            },
            {
              "internalType": "uint256",
              "name": "amountOffered",
              "type": "uint256"
            },
            {
              "internalType": "uint256",
              "name": "amountDesired",
              "type": "uint256"
            },
            {
              "internalType": "uint256",
              "name": "min",
              "type": "uint256"
            },
            {
              "internalType": "bytes32",
              "name": "isin",
              "type": "bytes32"
            }
          ],
          "internalType": "struct IMarketMaker.token[]",
          "name": "",
          "type": "tuple[]"
        }
      ],
      "stateMutability": "view",
      "type": "function",
      "constant": true
    },
    {
      "inputs": [
        {
          "internalType": "address",
          "name": "_owned",
          "type": "address"
        },
        {
          "internalType": "address",
          "name": "_tomatch",
          "type": "address"
        }
      ],
      "name": "getOfferMade",
      "outputs": [
        {
          "components": [
            {
              "internalType": "address",
              "name": "owner",
              "type": "address"
            },
            {
              "internalType": "uint256",
              "name": "amountOffered",
              "type": "uint256"
            },
            {
              "internalType": "uint256",
              "name": "amountDesired",
              "type": "uint256"
            },
            {
              "internalType": "uint256",
              "name": "min",
              "type": "uint256"
            },
            {
              "internalType": "bytes32",
              "name": "isin",
              "type": "bytes32"
            }
          ],
          "internalType": "struct IMarketMaker.token[]",
          "name": "",
          "type": "tuple[]"
        }
      ],
      "stateMutability": "view",
      "type": "function",
      "constant": true
    },
    {
      "inputs": [
        {
          "internalType": "address",
          "name": "_security",
          "type": "address"
        }
      ],
      "name": "getLiquidityProviders",
      "outputs": [
        {
          "components": [
            {
              "internalType": "address",
              "name": "owner",
              "type": "address"
            },
            {
              "internalType": "address",
              "name": "tokenOffered",
              "type": "address"
            },
            {
              "internalType": "uint256",
              "name": "underwritten",
              "type": "uint256"
            },
            {
              "internalType": "uint256",
              "name": "subscribed",
              "type": "uint256"
            },
            {
              "internalType": "uint256",
              "name": "earned",
              "type": "uint256"
            }
          ],
          "internalType": "struct IMarketMaker.lp[]",
          "name": "",
          "type": "tuple[]"
        }
      ],
      "stateMutability": "nonpayable",
      "type": "function"
    },
    {
      "inputs": [
        {
          "internalType": "uint256",
          "name": "amount",
          "type": "uint256"
        },
        {
          "internalType": "address",
          "name": "manager",
          "type": "address"
        }
      ],
      "name": "stake",
      "outputs": [],
      "stateMutability": "nonpayable",
      "type": "function"
    },
    {
      "inputs": [],
      "name": "getAllotedStake",
      "outputs": [
        {
          "internalType": "uint256",
          "name": "",
          "type": "uint256"
        }
      ],
      "stateMutability": "view",
      "type": "function",
      "constant": true
    },
    {
      "inputs": [
        {
          "internalType": "address",
          "name": "security",
          "type": "address"
        },
        {
          "internalType": "uint256",
          "name": "cutoffTime",
          "type": "uint256"
        },
        {
          "internalType": "address",
          "name": "issuer",
          "type": "address"
        },
        {
          "internalType": "bytes32",
          "name": "_hashedMessage",
          "type": "bytes32"
        },
        {
          "internalType": "uint8",
          "name": "_v",
          "type": "uint8"
        },
        {
          "internalType": "bytes32",
          "name": "_r",
          "type": "bytes32"
        },
        {
          "internalType": "bytes32",
          "name": "_s",
          "type": "bytes32"
        }
      ],
      "name": "issue",
      "outputs": [],
      "stateMutability": "nonpayable",
      "type": "function"
    },
    {
      "inputs": [
        {
          "internalType": "bytes32",
          "name": "poolId",
          "type": "bytes32"
        },
        {
          "internalType": "address",
          "name": "security",
          "type": "address"
        },
        {
          "internalType": "address",
          "name": "assetIn",
          "type": "address"
        },
        {
          "internalType": "bytes32",
          "name": "assetName",
          "type": "bytes32"
        },
        {
          "internalType": "uint256",
          "name": "amount",
          "type": "uint256"
        },
        {
          "internalType": "address",
          "name": "investor",
          "type": "address"
        },
        {
          "internalType": "uint256",
          "name": "price",
          "type": "uint256"
        }
      ],
      "name": "subscribe",
      "outputs": [],
      "stateMutability": "nonpayable",
      "type": "function"
    },
    {
      "inputs": [
        {
          "internalType": "bytes32",
          "name": "poolId",
          "type": "bytes32"
        },
        {
          "internalType": "bytes32",
          "name": "_hashedMessage",
          "type": "bytes32"
        },
        {
          "internalType": "uint8",
          "name": "_v",
          "type": "uint8"
        },
        {
          "internalType": "bytes32",
          "name": "_r",
          "type": "bytes32"
        },
        {
          "internalType": "bytes32",
          "name": "_s",
          "type": "bytes32"
        }
      ],
      "name": "getSubscribers",
      "outputs": [
        {
          "components": [
            {
              "internalType": "address",
              "name": "investor",
              "type": "address"
            },
            {
              "internalType": "address",
              "name": "asset",
              "type": "address"
            },
            {
              "internalType": "bytes32",
              "name": "name",
              "type": "bytes32"
            },
            {
              "internalType": "uint256",
              "name": "amount",
              "type": "uint256"
            },
            {
              "internalType": "uint256",
              "name": "price",
              "type": "uint256"
            }
          ],
          "internalType": "struct IMarketMaker.subscriptions[]",
          "name": "",
          "type": "tuple[]"
        }
      ],
      "stateMutability": "nonpayable",
      "type": "function"
    },
    {
      "inputs": [
        {
          "internalType": "address",
          "name": "security",
          "type": "address"
        },
        {
          "internalType": "bytes32",
          "name": "_hashedMessage",
          "type": "bytes32"
        },
        {
          "internalType": "uint8",
          "name": "_v",
          "type": "uint8"
        },
        {
          "internalType": "bytes32",
          "name": "_r",
          "type": "bytes32"
        },
        {
          "internalType": "bytes32",
          "name": "_s",
          "type": "bytes32"
        }
      ],
      "name": "close",
      "outputs": [],
      "stateMutability": "nonpayable",
      "type": "function"
    },
    {
      "inputs": [
        {
          "internalType": "bytes32",
          "name": "poolid",
          "type": "bytes32"
        },
        {
          "internalType": "address",
          "name": "investor",
          "type": "address"
        },
        {
          "internalType": "uint256",
          "name": "amnt",
          "type": "uint256"
        },
        {
          "internalType": "address",
          "name": "asset",
          "type": "address"
        },
        {
          "internalType": "bytes32",
          "name": "_hashedMessage",
          "type": "bytes32"
        },
        {
          "internalType": "uint8",
          "name": "_v",
          "type": "uint8"
        },
        {
          "internalType": "bytes32",
          "name": "_r",
          "type": "bytes32"
        },
        {
          "internalType": "bytes32",
          "name": "_s",
          "type": "bytes32"
        }
      ],
      "name": "accept",
      "outputs": [],
      "stateMutability": "nonpayable",
      "type": "function"
    },
    {
      "inputs": [
        {
          "internalType": "bytes32",
          "name": "poolid",
          "type": "bytes32"
        },
        {
          "internalType": "address",
          "name": "investor",
          "type": "address"
        },
        {
          "internalType": "bytes32",
          "name": "_hashedMessage",
          "type": "bytes32"
        },
        {
          "internalType": "uint8",
          "name": "_v",
          "type": "uint8"
        },
        {
          "internalType": "bytes32",
          "name": "_r",
          "type": "bytes32"
        },
        {
          "internalType": "bytes32",
          "name": "_s",
          "type": "bytes32"
        }
      ],
      "name": "reject",
      "outputs": [],
      "stateMutability": "nonpayable",
      "type": "function"
    },
    {
      "inputs": [
        {
          "internalType": "bytes32",
          "name": "poolId",
          "type": "bytes32"
        },
        {
          "internalType": "bytes32",
          "name": "_hashedMessage",
          "type": "bytes32"
        },
        {
          "internalType": "uint8",
          "name": "_v",
          "type": "uint8"
        },
        {
          "internalType": "bytes32",
          "name": "_r",
          "type": "bytes32"
        },
        {
          "internalType": "bytes32",
          "name": "_s",
          "type": "bytes32"
        }
      ],
      "name": "settle",
      "outputs": [],
      "stateMutability": "nonpayable",
      "type": "function"
    },
    {
      "inputs": [],
      "name": "getOwner",
      "outputs": [
        {
          "internalType": "address",
          "name": "",
          "type": "address"
        }
      ],
      "stateMutability": "view",
      "type": "function",
      "constant": true
    }
  ],
  "bytecode": "0x6080604052600060035534801561001557600080fd5b50600080546001600160a01b0319163390811782556040519091907f8be0079c531659141344cd1fd0a4f28419497f9722a3daafe3b4186f6b6457e0908290a3613b71806100646000396000f3fe608060405234801561001057600080fd5b506004361061012c5760003560e01c80638da5cb5b116100ad578063eabc9ac711610071578063eabc9ac714610256578063f078819114610269578063f1a163c11461027c578063f2fde38b1461029c578063f7efef10146102af5761012c565b80638da5cb5b146101fe5780639701bbc3146102065780639d4c400514610226578063aad19e991461023b578063c45a01551461024e5761012c565b8063715018a6116100f4578063715018a6146101925780637acb77571461019a5780637aee0a6b146101ad57806388c4b6ee146101c0578063893d20e8146101e95761012c565b806301713e35146101315780631f63a3501461014657806341c8b268146101595780636c0afebc1461016c5780636c19e7831461017f575b600080fd5b61014461013f3660046132a8565b6102c2565b005b6101446101543660046134b4565b6103af565b61014461016736600461322c565b610498565b61014461017a36600461334e565b610583565b61014461018d3660046130fb565b61063f565b610144610673565b6101446101a836600461357e565b6106c9565b6101446101bb3660046133bf565b610735565b6101d36101ce3660046130fb565b610835565b6040516101e0919061388c565b60405180910390f35b6101f1610936565b6040516101e0919061360c565b6101f1610945565b6102196102143660046130fb565b610954565b6040516101e09190613972565b61022e610a94565b6040516101e091906139dc565b6101446102493660046131dc565b610aa7565b6101f1610c5f565b610144610264366004613419565b610c6e565b61014461027736600461316b565b610d5d565b61028f61028a3660046134b4565b6110e9565b6040516101e091906138ff565b6101446102aa3660046130fb565b6112c6565b6102196102bd366004613133565b611344565b6000846040516020016102d591906139e5565b60405160208183030381529060405280519060200120905060008160405160200161030091906135db565b604051602081830303815290604052805190602001209050601960019054906101000a90046001600160a01b03166001600160a01b03166001828787876040516000815260200160405260405161035a9493929190613a0c565b6020604051602081039080840390855afa15801561037c573d6000803e3d6000fd5b505050602060405103516001600160a01b03161461039957600080fd5b6103a4898989611491565b505050505050505050565b6000846040516020016103c291906139e5565b6040516020818303038152906040528051906020012090506000816040516020016103ed91906135db565b604051602081830303815290604052805190602001209050601960019054906101000a90046001600160a01b03166001600160a01b0316600182878787604051600081526020016040526040516104479493929190613a0c565b6020604051602081039080840390855afa158015610469573d6000803e3d6000fd5b505050602060405103516001600160a01b03161461048657600080fd5b61048f87612ab4565b50505050505050565b6104b6336104a4610945565b6001600160a01b0316146101aa612c96565b600180546001600160a01b03808a166001600160a01b03199283161790925560028054888416908316179055600388905560148054928716929091169190911790556040517fd1313384eb3fd96a3981fd56de6d2735f4385d635b8f2bdf84299e6f86f197ee9061052890309061360c565b60405180910390a1601580546001600160a01b03199081166001600160a01b0394851617909155601680549091169383169390931790925560198054610100600160a81b031916610100939092169290920217905550505050565b6000878152600f60209081526040808320815160a0810183526001600160a01b03968716808252998716818501908152818401998a526060820198895260808201968752825460018181018555848852868820935160059092029093018054918a166001600160a01b031992831617815591519282018054939099169216919091179096559651600286015594516003850155915160049093019290925595815291546010865281832093835292909452929092209190915550565b61064b336104a4610945565b601980546001600160a01b0390921661010002610100600160a81b0319909216919091179055565b61067f336104a4610945565b600080546040516001600160a01b03909116907f8be0079c531659141344cd1fd0a4f28419497f9722a3daafe3b4186f6b6457e0908390a3600080546001600160a01b0319169055565b60165433906001600160a01b031681146106e257600080fd5b6106ee60175484612ca8565b6017556001600160a01b0382166000908152601860205260409020546107149084612ca8565b6001600160a01b039092166000908152601860205260409020919091555050565b60008460405160200161074891906139e5565b60405160208183030381529060405280519060200120905060008160405160200161077391906135db565b604051602081830303815290604052805190602001209050601960019054906101000a90046001600160a01b03166001600160a01b0316600182878787604051600081526020016040526040516107cd9493929190613a0c565b6020604051602081039080840390855afa1580156107ef573d6000803e3d6000fd5b505050602060405103516001600160a01b03161461080c57600080fd5b5050506000948552505060106020908152604084206001600160a01b0393909316909352509052565b6001600160a01b0381166000908152600b60205260409081902090516060917f8ae9edc1f4311efae155464035a368ea0e426fc3285bfe52280e9dbcc4591b3e91610884918591309190613644565b60405180910390a16001600160a01b0382166000908152600b6020908152604080832080548251818502810185019093528083529193909284015b8282101561092b5760008481526020908190206040805160a0810182526005860290920180546001600160a01b039081168452600180830154909116848601526002820154928401929092526003810154606084015260040154608083015290835290920191016108bf565b505050509050919050565b6000610940610945565b905090565b6000546001600160a01b031690565b601554604051634427673360e01b815260609133916000916001600160a01b03169063442767339061098a90859060040161360c565b604080518083038186803b1580156109a157600080fd5b505afa1580156109b5573d6000803e3d6000fd5b505050506040513d601f19601f820116820180604052508101906109d99190613491565b5090508061414d60f01b146109ed57600080fd5b6001600160a01b038416600090815260066020908152604080832080548251818502810185019093528083529193909284015b82821015610a875760008481526020908190206040805160a0810182526005860290920180546001600160a01b0316835260018082015484860152600282015492840192909252600381015460608401526004015460808301529083529092019101610a20565b5050505092505050919050565b3360009081526018602052604090205490565b600084604051602001610aba91906139e5565b604051602081830303815290604052805190602001209050600081604051602001610ae591906135db565b604051602081830303815290604052805190602001209050601960019054906101000a90046001600160a01b03166001600160a01b031660018287878760405160008152602001604052604051610b3f9493929190613a0c565b6020604051602081039080840390855afa158015610b61573d6000803e3d6000fd5b505050602060405103516001600160a01b031614610b7e57600080fd5b6001600160a01b0387166000908152600e6020526040902054421115610bfd576001600160a01b0387166000908152600e60205260409081902090517fc6146e2762c1b110094b941e182aa1e5fb2c56a15611f308be20a7490902810391610bf0918a916002019060019030906137a8565b60405180910390a161048f565b6001600160a01b0387166000908152600e602052604080822090517fc6146e2762c1b110094b941e182aa1e5fb2c56a15611f308be20a7490902810392610c4e928b926002909101919030906137a8565b60405180910390a150505050505050565b6001546001600160a01b031681565b600084604051602001610c8191906139e5565b604051602081830303815290604052805190602001209050600081604051602001610cac91906135db565b604051602081830303815290604052805190602001209050601960019054906101000a90046001600160a01b03166001600160a01b031660018287878760405160008152602001604052604051610d069493929190613a0c565b6020604051602081039080840390855afa158015610d28573d6000803e3d6000fd5b505050602060405103516001600160a01b031614610d4557600080fd5b610d518a8a8a8a612cc3565b50505050505050505050565b60195460ff1615610d6d57600080fd5b6019805460ff19166001179055601554604051634427673360e01b81526000916001600160a01b031690634427673390610dab90339060040161360c565b604080518083038186803b158015610dc257600080fd5b505afa158015610dd6573d6000803e3d6000fd5b505050506040513d601f19601f82011682018060405250810190610dfa9190613491565b50601454604051633ea6c82d60e01b81529192506001600160a01b031690633ea6c82d90610e2c908b9060040161360c565b60206040518083038186803b158015610e4457600080fd5b505afa158015610e58573d6000803e3d6000fd5b505050506040513d601f19601f82011682018060405250810190610e7c9190613316565b151560011480610e9057508061414d60f01b145b610e9957600080fd5b8061414d60f01b1415610fc0576040516370a0823160e01b815286906001600160a01b038a16906370a0823190610ed490339060040161360c565b60206040518083038186803b158015610eec57600080fd5b505afa158015610f00573d6000803e3d6000fd5b505050506040513d601f19601f82011682018060405250810190610f249190613336565b10610fbb576040516323b872dd60e01b81526001600160a01b038916906323b872dd90610f5990339030908b90600401613620565b602060405180830381600087803b158015610f7357600080fd5b505af1158015610f87573d6000803e3d6000fd5b505050506040513d601f19601f82011682018060405250810190610fab9190613316565b50610fbb33898989898989612d32565b6110d5565b6040516370a0823160e01b815286906001600160a01b038a16906370a0823190610fee90869060040161360c565b60206040518083038186803b15801561100657600080fd5b505afa15801561101a573d6000803e3d6000fd5b505050506040513d601f19601f8201168201806040525081019061103e9190613336565b106110d5576040516323b872dd60e01b81526001600160a01b038916906323b872dd9061107390859030908b90600401613620565b602060405180830381600087803b15801561108d57600080fd5b505af11580156110a1573d6000803e3d6000fd5b505050506040513d601f19601f820116820180604052508101906110c59190613316565b506110d582898989898989612d32565b50506019805460ff19169055505050505050565b60606000856040516020016110fe91906139e5565b60405160208183030381529060405280519060200120905060008160405160200161112991906135db565b604051602081830303815290604052805190602001209050601960019054906101000a90046001600160a01b03166001600160a01b0316600182888888604051600081526020016040526040516111839493929190613a0c565b6020604051602081039080840390855afa1580156111a5573d6000803e3d6000fd5b505050602060405103516001600160a01b0316146111c257600080fd5b600088815260136020908152604080832054600f9092529182902091517f2e181c69d0472aa2ce7f8d0e5aaaf17d1e851a606d1189e8bc1b8bd82d6a4f3c92611218926001600160a01b03169130918d916136f5565b60405180910390a16000888152600f6020908152604080832080548251818502810185019093528083529193909284015b828210156112b55760008481526020908190206040805160a0810182526005860290920180546001600160a01b03908116845260018083015490911684860152600282015492840192909252600381015460608401526004015460808301529083529092019101611249565b505050509250505095945050505050565b6112d2336104a4610945565b6112e96001600160a01b03821615156101ab612c96565b600080546040516001600160a01b03808516939216917f8be0079c531659141344cd1fd0a4f28419497f9722a3daafe3b4186f6b6457e091a3600080546001600160a01b0319166001600160a01b0392909216919091179055565b601554604051634427673360e01b815260609133916000916001600160a01b03169063442767339061137a90859060040161360c565b604080518083038186803b15801561139157600080fd5b505afa1580156113a5573d6000803e3d6000fd5b505050506040513d601f19601f820116820180604052508101906113c99190613491565b5090508061414d60f01b146113dd57600080fd5b6001600160a01b038086166000908152600760209081526040808320938816835292815282822080548451818402810184019095528085529092909184015b828210156114835760008481526020908190206040805160a0810182526005860290920180546001600160a01b031683526001808201548486015260028201549284019290925260038101546060840152600401546080830152908352909201910161141c565b505050509250505092915050565b6001600160a01b03831660008181526005602052604090205460048054919291839081106114bb57fe5b6000918252602090912001546001600160a01b03161415612aae5760408051600280825260608083018452926020830190803683370190505090506004828154811061150357fe5b600091825260208220015482516001600160a01b0390911691839161152457fe5b60200260200101906001600160a01b031690816001600160a01b03168152505060005b60045481101561253157856001600160a01b03166004828154811061156857fe5b6000918252602090912001546001600160a01b03161461252957836001600160a01b0316600760006004868154811061159d57fe5b60009182526020808320909101546001600160a01b03168352820192909252604001812060048054919291859081106115d257fe5b60009182526020808320909101546001600160a01b031683528201929092526040018120805490919061160157fe5b60009182526020909120600590910201546001600160a01b031614156125295760005b600760006004848154811061163557fe5b60009182526020808320909101546001600160a01b031683528201929092526040018120600480549192918790811061166a57fe5b60009182526020808320909101546001600160a01b031683528201929092526040019020548110156125275760076000600486815481106116a757fe5b60009182526020808320909101546001600160a01b03168352820192909252604001812060048054919291859081106116dc57fe5b60009182526020808320909101546001600160a01b031683528201929092526040018120805490919061170b57fe5b90600052602060002090600502016001015460001461251f57600760006004848154811061173557fe5b60009182526020808320909101546001600160a01b031683528201929092526040018120600480549192918790811061176a57fe5b60009182526020808320909101546001600160a01b03168352820192909252604001902080548290811061179a57fe5b90600052602060002090600502016001015460001461251f576118cb60076000600485815481106117c757fe5b60009182526020808320909101546001600160a01b03168352820192909252604001812060048054919291889081106117fc57fe5b60009182526020808320909101546001600160a01b03168352820192909252604001902080548390811061182c57fe5b906000526020600020906005020160010154600760006004868154811061184f57fe5b60009182526020808320909101546001600160a01b031683528201929092526040018120600480549192918990811061188457fe5b60009182526020808320909101546001600160a01b0316835282019290925260400190208054849081106118b457fe5b906000526020600020906005020160020154612eb4565b6119e160076000600488815481106118df57fe5b60009182526020808320909101546001600160a01b031683528201929092526040018120600480549192918790811061191457fe5b60009182526020808320909101546001600160a01b031683528201929092526040018120805490919061194357fe5b906000526020600020906005020160030154600760006004898154811061196657fe5b60009182526020808320909101546001600160a01b031683528201929092526040018120600480549192918890811061199b57fe5b60009182526020808320909101546001600160a01b03168352820192909252604001812080549091906119ca57fe5b906000526020600020906005020160010154612eb4565b1061251f576001600160a01b03871660009081526009602052604081206004805491929185908110611a0f57fe5b60009182526020808320909101546001600160a01b03168352820192909252604001902054611ae4576001600160a01b03871660009081526008602052604090206004805484908110611a5e57fe5b6000918252602080832090910154835460018101855593835281832090930180546001600160a01b0319166001600160a01b03948516179055918916815260088252604080822054600990935281206004805491929186908110611abe57fe5b60009182526020808320909101546001600160a01b031683528201929092526040019020555b6001600160a01b0387166000908152600a602052604081206004805491929185908110611b0d57fe5b60009182526020808320909101546001600160a01b03168352820192909252604001812054600480549192611b4a9260079290899081106118df57fe5b1080611ba157506001600160a01b0387166000908152600a602052604081206004805491929185908110611b7a57fe5b60009182526020808320909101546001600160a01b03168352820192909252604001902054155b15611cc557611c766007600060048781548110611bba57fe5b60009182526020808320909101546001600160a01b0316835282019290925260400181206004805491929186908110611bef57fe5b60009182526020808320909101546001600160a01b0316835282019290925260400181208054909190611c1e57fe5b9060005260206000209060050201600301546007600060048881548110611c4157fe5b60009182526020808320909101546001600160a01b031683528201929092526040018120600480549192918790811061199b57fe5b6001600160a01b0388166000908152600a602052604081206004805491929186908110611c9f57fe5b60009182526020808320909101546001600160a01b031683528201929092526040019020555b6001600160a01b0387166000908152600a602052604081206004805491929185908110611cee57fe5b60009182526020808320909101546001600160a01b03168352820192909252604001812060010154600480549192611e32926007929087908110611d2e57fe5b60009182526020808320909101546001600160a01b0316835282019290925260400181206004805491929189908110611d6357fe5b60009182526020808320909101546001600160a01b031683528201929092526040019020805484908110611d9357fe5b9060005260206000209060050201600101546007600060048781548110611db657fe5b60009182526020808320909101546001600160a01b031683528201929092526040018120600480549192918a908110611deb57fe5b60009182526020808320909101546001600160a01b031683528201929092526040019020805485908110611e1b57fe5b906000526020600020906005020160030154612eb4565b1115611f8b57611f396007600060048581548110611e4c57fe5b60009182526020808320909101546001600160a01b0316835282019290925260400181206004805491929188908110611e8157fe5b60009182526020808320909101546001600160a01b031683528201929092526040019020805483908110611eb157fe5b9060005260206000209060050201600101546007600060048681548110611ed457fe5b60009182526020808320909101546001600160a01b0316835282019290925260400181206004805491929189908110611f0957fe5b60009182526020808320909101546001600160a01b031683528201929092526040019020805484908110611e1b57fe5b6001600160a01b0388166000908152600a602052604081206004805491929186908110611f6257fe5b60009182526020808320909101546001600160a01b031683528201929092526040019020600101555b6001600160a01b0387166000908152600a602052604081206004805461208593919086908110611fb757fe5b9060005260206000200160009054906101000a90046001600160a01b03166001600160a01b03166001600160a01b0316815260200190815260200160002060020154600760006004888154811061200a57fe5b60009182526020808320909101546001600160a01b031683528201929092526040018120600480549192918790811061203f57fe5b60009182526020808320909101546001600160a01b031683528201929092526040018120805490919061206e57fe5b906000526020600020906005020160010154612ca8565b6001600160a01b0388166000908152600a6020526040812060048054919291869081106120ae57fe5b60009182526020808320909101546001600160a01b039081168452838201949094526040928301822060020194909455918a168252600a909252908120600480546121b7939190869081106120ff57fe5b9060005260206000200160009054906101000a90046001600160a01b03166001600160a01b03166001600160a01b0316815260200190815260200160002060030154600760006004868154811061215257fe5b60009182526020808320909101546001600160a01b031683528201929092526040018120600480549192918990811061218757fe5b60009182526020808320909101546001600160a01b03168352820192909252604001902080548490811061206e57fe5b6001600160a01b0388166000908152600a6020526040812060048054919291869081106121e057fe5b60009182526020808320909101546001600160a01b03168352820192909252604001902060030155612210612f4b565b6040518060a00160405280600760006004878154811061222c57fe5b60009182526020808320909101546001600160a01b031683528201929092526040018120600480549192918a90811061226157fe5b60009182526020808320909101546001600160a01b03168352820192909252604001902080548590811061229157fe5b6000918252602091829020600590910201546001600160a01b03168252600480549290910191869081106122c157fe5b9060005260206000200160009054906101000a90046001600160a01b03166001600160a01b0316815260200160076000600487815481106122fe57fe5b60009182526020808320909101546001600160a01b031683528201929092526040018120600480549192918a90811061233357fe5b60009182526020808320909101546001600160a01b03168352820192909252604001902080548590811061236357fe5b90600052602060002090600502016001015481526020016000815260200160008152509050600b60006004878154811061239957fe5b60009182526020808320909101546001600160a01b0390811684528382019490945260409283018220805460018181018355918452828420875160059092020180549187166001600160a01b03199283161781559287015191830180549290961691161790935590830151600283015560608301516003830155608083015160049283015581546124e792600c92918990811061243257fe5b9060005260206000200160009054906101000a90046001600160a01b03166001600160a01b03166001600160a01b0316815260200190815260200160002054600760006004878154811061248257fe5b60009182526020808320909101546001600160a01b031683528201929092526040018120600480549192918a9081106124b757fe5b60009182526020808320909101546001600160a01b03168352820192909252604001902080548590811061206e57fe5b600c6000600488815481106124f857fe5b60009182526020808320909101546001600160a01b03168352820192909252604001902055505b600101611624565b505b600101611547565b5060005b6001600160a01b038616600090815260086020526040902054811015612a8a576001600160a01b038616600090815260086020526040812080548390811061257957fe5b9060005260206000200160009054906101000a90046001600160a01b0316905080836001815181106125a757fe5b60200260200101906001600160a01b031690816001600160a01b0316815250506125cf612f8c565b604051806101200160405280896001600160a01b03166306fdde036040518163ffffffff1660e01b815260040160006040518083038186803b15801561261457600080fd5b505afa158015612628573d6000803e3d6000fd5b505050506040513d6000823e601f3d908101601f1916820160405261265091908101906134e3565b8152602001896001600160a01b03166395d89b416040518163ffffffff1660e01b815260040160006040518083038186803b15801561268e57600080fd5b505afa1580156126a2573d6000803e3d6000fd5b505050506040513d6000823e601f3d908101601f191682016040526126ca91908101906134e3565b8152602001856000815181106126dc57fe5b60200260200101516001600160a01b03168152602001856001815181106126ff57fe5b6020908102919091018101516001600160a01b0390811683528b81166000908152600a83526040808220888416808452818652828420805488880152600180820154858a015291855291909552600201546060860152600354608086015260a09094018c90529154925163d4cc468760e01b8152939450909291169063d4cc46879061278f908590600401613a2a565b602060405180830381600087803b1580156127a957600080fd5b505af11580156127bd573d6000803e3d6000fd5b505050506040513d601f19601f820116820180604052508101906127e19190613117565b6001600160a01b03808b166000908152600760209081526040808320938816835292905290812080549293509161281457fe5b600091825260208083206005909202909101546001600160a01b038c81168452600e835260408085206003810180546001600160a01b031916948416949094179093558c83554260019390930192909255815163038fff2d60e41b81529151908516926338fff2d0926004808201939182900301818787803b15801561289957600080fd5b505af11580156128ad573d6000803e3d6000fd5b505050506040513d601f19601f820116820180604052508101906128d19190613336565b90507fcd3e4373a1ac25a09c66369f0dab9b8395f62eddf28c46d0933d33b0be67dc818160405161290291906139dc565b60405180910390a16001600160a01b038a166000908152600e602052604090206002018054829190fe5b612934612fea565b81526020019060019003908161292c5790505060408051608081019091529091508060008152602001838152602001866001600160a01b03168152602001600a60008e6001600160a01b03166001600160a01b031681526020019081526020016000206000886001600160a01b03166001600160a01b0316815260200190815260200160002060020154815250816000815181106129ce57fe5b6020908102919091010152600254604051637362304960e11b81526001600160a01b039091169063e6c4609290612a09908490600401613815565b600060405180830381600087803b158015612a2357600080fd5b505af1158015612a37573d6000803e3d6000fd5b505050506001600160a01b038b81166000908152600a6020908152604080832098909316825296909652852085815560018082018790556002820187905560039091019590955550505091019050612535565b506001600160a01b0385166000908152600860205260408120612aac91613013565b505b50505050565b6000818152601360209081526040808320546001600160a01b03168352600c909152812054600354909190612aea908390612ed4565b90506000805b6000858152601360209081526040808320546001600160a01b03168352600b909152902054811015612c7e576000858152601360209081526040808320546001600160a01b03168352600b9091529020805485919083908110612b4f57fe5b90600052602060002090600502016002015481612b6857fe5b60165491900492506001600160a01b031663451353f1612b888585612ed4565b6000888152601360209081526040808320546001600160a01b03168352600b9091529020805485908110612bb857fe5b60009182526020808320600160059093020191909101548a8352601382526040808420546001600160a01b039081168552600b909352909220805491909216919086908110612c0357fe5b60009182526020909120600590910201546040516001600160e01b031960e086901b168152612c409392916001600160a01b031690600401613acf565b600060405180830381600087803b158015612c5a57600080fd5b505af1158015612c6e573d6000803e3d6000fd5b505060019092019150612af09050565b506000848152600f60205260408120612aae91613034565b81612ca457612ca481612ef8565b5050565b6000828201612cba8482101583612c96565b90505b92915050565b60008481526010602090815260408083206001600160a01b03871684529091528120548015612d2a576000868152600f602052604090208054612d279184916000198501908110612d1057fe5b906000526020600020906005020160030154612ca8565b91505b505050505050565b612d3a613055565b506040805160a0810182526001600160a01b03808a168252602080830188815283850187815260608501878152608086018c81528d86166000818152600787528981208d89168083528189528b83208054838b52600180820183558286528b86208e516005808502909201805491909f166001600160a01b0319918216178f559b518e830155995160028e0155975160038d0155955160049b8c01558a54858552978a528c84208890559587019099557f8a35acfbc15ff81a39ae7d344fd709f28e8600b4aa8c65c6b64bfe7fe36bd19b90950180549096169091179094558584526006855296832094909252909152805492939283908110612e3957fe5b6000918252602080832084546001818101875595855291909320600592830290930180549190920290920180546001600160a01b0319166001600160a01b0390931692909217825582810154928201929092556002808301549082015560038083015490820155600491820154910155505050505050505050565b6000612ec38215156004612c96565b818381612ecc57fe5b049392505050565b6000828202612cba841580612ef1575083858381612eee57fe5b04145b6003612c96565b62461bcd60e51b6000908152602060045260076024526642414c23000030600a808404818106603090810160081b95839006959095019082900491820690940160101b939093010160c81b604452606490fd5b6040518060a0016040528060006001600160a01b0316815260200160006001600160a01b031681526020016000815260200160008152602001600081525090565b604051806101200160405280606081526020016060815260200160006001600160a01b0316815260200160006001600160a01b0316815260200160008152602001600081526020016000815260200160008152602001600081525090565b604080516080810190915280600081526000602082018190526040820181905260609091015290565b50805460008255906000526020600020908101906130319190613090565b50565b508054600082556005029060005260206000209081019061303191906130a9565b6040518060a0016040528060006001600160a01b03168152602001600081526020016000815260200160008152602001600080191681525090565b5b808211156130a55760008155600101613091565b5090565b5b808211156130a55780546001600160a01b0319908116825560018201805490911690556000600282018190556003820181905560048201556005016130aa565b803560ff81168114612cbd57600080fd5b60006020828403121561310c578081fd5b8135612cba81613b26565b600060208284031215613128578081fd5b8151612cba81613b26565b60008060408385031215613145578081fd5b823561315081613b26565b9150602083013561316081613b26565b809150509250929050565b600080600080600080600060e0888a031215613185578283fd5b873561319081613b26565b9650602088013595506040880135945060608801356131ae81613b26565b93506080880135925060a0880135915060c08801356131cc81613b26565b8091505092959891949750929550565b600080600080600060a086880312156131f3578081fd5b85356131fe81613b26565b94506020860135935061321487604088016130ea565b94979396509394606081013594506080013592915050565b600080600080600080600060e0888a031215613246578283fd5b873561325181613b26565b965060208801359550604088013561326881613b26565b9450606088013561327881613b26565b9350608088013561328881613b26565b925060a088013561329881613b26565b915060c08801356131cc81613b26565b600080600080600080600060e0888a0312156132c2578283fd5b87356132cd81613b26565b96506020880135955060408801356132e481613b26565b9450606088013593506132fa8960808a016130ea565b925060a0880135915060c0880135905092959891949750929550565b600060208284031215613327578081fd5b81518015158114612cba578182fd5b600060208284031215613347578081fd5b5051919050565b600080600080600080600060e0888a031215613368578081fd5b87359650602088013561337a81613b26565b9550604088013561338a81613b26565b9450606088013593506080880135925060a08801356133a881613b26565b8092505060c0880135905092959891949750929550565b60008060008060008060c087890312156133d7578384fd5b8635955060208701356133e981613b26565b9450604087013593506133ff88606089016130ea565b92506080870135915060a087013590509295509295509295565b600080600080600080600080610100898b031215613435578182fd5b88359750602089013561344781613b26565b965060408901359550606089013561345e81613b26565b9450608089013593506134748a60a08b016130ea565b925060c0890135915060e089013590509295985092959890939650565b600080604083850312156134a3578182fd5b505080516020909101519092909150565b600080600080600060a086880312156134cb578283fd5b853594506020860135935061321487604088016130ea565b6000602082840312156134f4578081fd5b815167ffffffffffffffff8082111561350b578283fd5b818401915084601f83011261351e578283fd5b81518181111561352c578384fd5b604051601f8201601f19168101602001838111828210171561354c578586fd5b604052818152838201602001871015613563578485fd5b613574826020830160208701613afa565b9695505050505050565b60008060408385031215613590578182fd5b82359150602083013561316081613b26565b6001600160a01b03169052565b600081518084526135c7816020860160208601613afa565b601f01601f19169290920160200192915050565b7f19457468657265756d205369676e6564204d6573736167653a0a3332000000008152601c810191909152603c0190565b6001600160a01b0391909116815260200190565b6001600160a01b039384168152919092166020820152604081019190915260600190565b6000606080830160018060a01b038088168552602081881681870152604091508382870152828754808552608094508488019150888752828720875b828110156136e45761369b846136968454613aee565b6135a2565b6136a86001830154613aee565b6136b4868601826135a2565b5060028201548487015260038201548885015260048201548785015260a090930192600590910190600101613680565b50919b9a5050505050505050505050565b6000608080830160018060a01b0380891685526020818916818701526040915087828701526060848188015283885480865260a095508589019150898852838820885b828110156137955761374e846136968454613aee565b61375b6001830154613aee565b613767878601826135a2565b5060028201548488015260038201548585015260048201548985015292870192600590910190600101613738565b50919d9c50505050505050505050505050565b60006080820160018060a01b038088168452602060808186015282885480855260a0870191508986528286209450855b818110156137f4578554835260019586019592840192016137d8565b50509615156040860152509390931660609092019190915250909392505050565b602080825282518282018190526000919060409081850190868401855b8281101561387f57815180516003811061384857fe5b85528087015187860152858101516001600160a01b0316868601526060908101519085015260809093019290850190600101613832565b5091979650505050505050565b602080825282518282018190526000919060409081850190868401855b8281101561387f57815180516001600160a01b03168552868101516138d0888701826135a2565b508086015185870152606080820151908601526080908101519085015260a090930192908501906001016138a9565b602080825282518282018190526000919060409081850190868401855b8281101561387f57815180516001600160a01b0316855286810151613943888701826135a2565b508086015185870152606080820151908601526080908101519085015260a0909301929085019060010161391c565b602080825282518282018190526000919060409081850190868401855b8281101561387f57815180516001600160a01b0316855286810151878601528581015186860152606080820151908601526080908101519085015260a0909301929085019060010161398f565b90815260200190565b908152604060208201819052600690820152654c32746f4c3160d01b606082015260800190565b93845260ff9290921660208401526040830152606082015260800190565b6000602082528251610120806020850152613a496101408501836135af565b91506020850151601f19858403016040860152613a6683826135af565b9250506040850151613a7b60608601826135a2565b506060850151613a8e60808601826135a2565b50608085015160a085015260a085015160c085015260c085015160e085015260e0850151610100818187015280870151838701525050508091505092915050565b9283526001600160a01b03918216602084015216604082015260600190565b6001600160a01b031690565b60005b83811015613b15578181015183820152602001613afd565b83811115612aae5750506000910152565b6001600160a01b038116811461303157600080fdfea26469706673582212208389bf82789ffab9bccfc92f3ee9c2e9e657a1262dd854713494f1eb92bab8e564736f6c63430007010033",
  "immutableReferences": {},
  "source": "// Verified asset manager\r\n// (c) Kallol Borah, Verified Network, 2021\r\n\r\n//\"SPDX-License-Identifier: UNLICENSED\"\r\n\r\npragma solidity ^0.7.1;\r\npragma experimental ABIEncoderV2;\r\n\r\nimport '@balancer-labs/v2-solidity-utils/contracts/openzeppelin/IERC20.sol';\r\nimport '@balancer-labs/v2-solidity-utils/contracts/openzeppelin/ERC20.sol';\r\nimport '@balancer-labs/v2-solidity-utils/contracts/openzeppelin/Ownable.sol';\r\nimport \"@balancer-labs/v2-solidity-utils/contracts/math/Math.sol\";\r\n\r\nimport '@balancer-labs/v2-vault/contracts/interfaces/IVault.sol';\r\nimport '@balancer-labs/v2-vault/contracts/interfaces/IAsset.sol';\r\n\r\nimport './interfaces/IPrimaryIssuePoolFactory.sol';\r\nimport './interfaces/IPrimaryIssuePool.sol';\r\n\r\nimport './interfaces/VerifiedClient.sol';\r\nimport './interfaces/IMarketMaker.sol';\r\nimport './interfaces/ILiquidity.sol';\r\nimport './interfaces/IFactory.sol';\r\nimport './interfaces/ISecurity.sol';\r\n\r\ncontract BalancerManager is IMarketMaker, Ownable{\r\n\r\n    using Math for uint256;\r\n\r\n    // balancer variables\r\n    IPrimaryIssuePoolFactory public factory;\r\n    IVault vault;\r\n    uint256 swapFeePercentage=0;\r\n\r\n    // modifiers\r\n    modifier onlyPool(bytes32 poolId, address security) {\r\n        //require(poolId == IPrimaryIssuePool(security).getPoolId());\r\n        _;\r\n    }\r\n\r\n    modifier onlyLP(address sender) {\r\n        require(sender==LiquidityContract);\r\n        _;\r\n    }\r\n\r\n    modifier onlyAssetManager(address sender){\r\n        (bytes32 role, ) = client.getRole(sender);\r\n        require(role=='AM');\r\n        _;\r\n    }\r\n\r\n    // list of offered tokens\r\n    address[] internal offeredTokens;\r\n\r\n    // mapping token offered to its position in the list of offered tokens\r\n    mapping(address => uint256) private offeredTokenIndex;\r\n\r\n    // list of tokens to match\r\n    mapping(address => token[]) internal toMatchTokens;\r\n\r\n    // mapping offered token (eg, security token) to a token to match (eg, settlement token)\r\n    mapping(address => mapping(address => token[])) internal mmtokens;\r\n\r\n    // mapping offered token (ie security token) to its paired token \r\n    mapping(address => address[]) internal pairedTokens;\r\n\r\n    // mapping liqudity token to its position in the list of liquidity tokens\r\n    mapping(address => mapping(address => uint256)) private pairedTokenIndex;\r\n\r\n    struct liquidity{\r\n        uint minPrice;\r\n        uint maxPrice;\r\n        uint amountIssued;\r\n        uint amountOffered;\r\n    }\r\n\r\n    // mapping qualified liquidity token to its price and amount offered by market makers (LPs)\r\n    mapping(address => mapping(address => liquidity)) internal qlTokens;\r\n\r\n    // mapping security to liquidity providers\r\n    mapping(address => lp[]) private liquidityProviders;\r\n\r\n    // mapping securities issued in the primary issue pool to total liquidity offered\r\n    mapping(address => uint256) private totalUnderwritten;\r\n\r\n    // mapping pool ids to LPs to the amounts of liquidity they offer\r\n    mapping(bytes32 => mapping(address => uint256)) private underwriters;\r\n\r\n    // components of a primary issue of a security token\r\n    struct primary{\r\n        uint256 deadline;\r\n        uint256 startTime;\r\n        bytes32[] pools;\r\n        address issuer;\r\n    }\r\n\r\n    // mapping security to new issues in the primary issue pool\r\n    mapping(address => primary) internal issues;\r\n\r\n    // mapping primary issue pool id to subscribers that swap in assets into pool\r\n    mapping(bytes32 => subscriptions[]) internal investors; \r\n\r\n    // mapping primary issue pool id to subscriber and its position in the list of subscribers to the pool\r\n    mapping(bytes32 => mapping(address => uint256)) private subscriberIndex;\r\n\r\n    // mapping pool id to asset to subscription amounts\r\n    mapping(bytes32 => mapping(address => uint256)) private subscribed;\r\n\r\n    // mapping pool id to pool address\r\n    mapping(bytes32 => address) private pools;\r\n\r\n    // mapping pool id to security token offered\r\n    mapping(bytes32 => address) private poolSecurity;\r\n\r\n    // reference to the Verified factory contract that this asset manager checks security token issues with\r\n    IFactory products;\r\n\r\n    // reference to the Verified Client contract\r\n    VerifiedClient client;\r\n\r\n    // reference to the Verified Liquidity contract that provides liquidity (ie, VITTA) to the asset manager to underwrite investments in tokenized securities\r\n    address private LiquidityContract;\r\n    \r\n    // LP token staked\r\n    uint256 private LPTokenStaked;\r\n\r\n    // LP token allotted\r\n    mapping(address => uint256) private LPTokenAllotted;\r\n\r\n    //mutex\r\n    bool lock;\r\n\r\n    //bridge\r\n    address bridge;\r\n\r\n    event marketmakers(address security, address platform, lp[] providers);\r\n    event subscribers(address security, address platform, bytes32 poolId, subscriptions[] investors);\r\n    event platforms(address platform);\r\n    event onClose(address security, bytes32[] pools, bool close, address platform);\r\n\r\n    /**\r\n        Initializes this asset management contract\r\n        @param  _factory            reference to the primary issue pool factory contract\r\n        @param  _swapFeePercentage  percentage of trading fee to be charged by the asset manager\r\n        @param  _vault              reference to the Balancer vault\r\n        @param  _products           reference to the Verified Products contract that this contract reports created primary issue pools to\r\n     */\r\n    function initialize(address _factory, uint256 _swapFeePercentage, address _vault, address _products, address _liquidity, address _client, address _bridge) onlyOwner public {\r\n        factory = IPrimaryIssuePoolFactory(_factory);\r\n        vault = IVault(_vault);\r\n        swapFeePercentage = _swapFeePercentage;\r\n        products = IFactory(_products);\r\n        emit platforms(address(this));\r\n        client = VerifiedClient(_client);\r\n        LiquidityContract = _liquidity;\r\n        bridge = _bridge;\r\n    }\r\n\r\n    function setSigner(address _signer) onlyOwner external{\r\n        bridge = _signer;\r\n    }\r\n\r\n    /*function offer(address owned, bytes32 isin, uint offered, address tomatch, uint desired, uint min, address issuer, bytes32 _hashedMessage, uint8 _v, bytes32 _r, bytes32 _s) override external{\r\n        bytes32 payloadHash = keccak256(abi.encode(_hashedMessage, \"L2toL1\"));\r\n        bytes32 messageHash = keccak256(abi.encodePacked(\"\\x19Ethereum Signed Message:\\n32\", payloadHash));\r\n        require(ecrecover(messageHash, _v, _r, _s)== bridge);\r\n        makeOffer(owned, isin, offered, tomatch, desired, min, issuer);\r\n    }*/\r\n    \r\n    /**\r\n        Called by market maker and issuer for adding liquidity\r\n        @param  owned       is the security or settlement token on offer \r\n        @param  offered     is the amount offered\r\n        @param  tomatch     is the liquidity token that is required to be paired\r\n        @param  desired     is the amount required of the liquidity token to be paired\r\n        @param  min         is the minimum amount to be swapped of the 'offered' token \r\n        @param  isin        is the identifier for the security token offered\r\n     */ \r\n    function offer(address owned, bytes32 isin, uint offered, address tomatch, uint desired, uint min, address issuer) override external {\r\n        require(!lock);\r\n        lock = true;\r\n        (bytes32 role, ) = client.getRole(msg.sender);\r\n        require(products.checkProduct(owned)==true || role=='AM');\r\n        if(role==\"AM\"){\r\n            if(ERC20(owned).balanceOf(msg.sender)>=offered){                 \r\n                ERC20(owned).transferFrom(msg.sender, address(this), offered);\r\n                make(msg.sender, owned, isin, offered, tomatch, desired, min); \r\n            }\r\n        }\r\n        else if(ERC20(owned).balanceOf(issuer)>=offered){             \r\n            ERC20(owned).transferFrom(issuer, address(this), offered);\r\n            make(issuer, owned, isin, offered, tomatch, desired, min); \r\n        }\r\n        lock = false;\r\n    }\r\n\r\n    function make(address _owner, address owned, bytes32 _isin, uint _offered, address tomatch, uint _desired, uint _min) private {\r\n        IMarketMaker.token memory t = IMarketMaker.token({\r\n            owner: _owner,\r\n            amountDesired: _desired,\r\n            amountOffered: _offered,\r\n            min: _min,\r\n            isin: _isin\r\n        });\r\n        uint256 index = mmtokens[owned][tomatch].length;\r\n        mmtokens[owned][tomatch].push(t);\r\n        offeredTokenIndex[owned] = offeredTokens.length;\r\n        offeredTokens.push(owned);\r\n        toMatchTokens[tomatch].push(mmtokens[owned][tomatch][index]);                  \r\n    }\r\n\r\n    /**\r\n        Gets tokens to match for offered token\r\n        @param  offered address of offered token\r\n     */\r\n    function getOffered(address offered) override onlyAssetManager(msg.sender) external view returns(IMarketMaker.token[] memory){\r\n        return toMatchTokens[offered];\r\n    }\r\n\r\n    /**\r\n        Gets offer made previously\r\n        @param  _owned      address of token offered\r\n        @param  _tomatch    address of token to match\r\n     */\r\n    function getOfferMade(address _owned, address _tomatch) override onlyAssetManager(msg.sender) external view returns(IMarketMaker.token[] memory){\r\n        return mmtokens[_owned][_tomatch];\r\n    }\r\n\r\n    /**\r\n        Fetches liquidity providers for a security token\r\n        @param  _security   identifier for the security token offered\r\n     */\r\n    function getLiquidityProviders(address _security) override external returns(lp[] memory){\r\n        emit marketmakers(_security, address(this), liquidityProviders[_security]);\r\n        return liquidityProviders[_security];\r\n    }\r\n\r\n    /**\r\n        Called by Liquidity token contract to stake liquidity tokens by investors in VITTA\r\n        @param  amount  amount of VITTA staked to provide liquidity for underwriting investments in tokenized securities\r\n     */\r\n    function stake(uint256 amount, address manager) override onlyLP(msg.sender) external {\r\n        LPTokenStaked = SafeMath.add(LPTokenStaked, amount);\r\n        LPTokenAllotted[manager] = SafeMath.add(LPTokenAllotted[manager], amount);\r\n    }\r\n\r\n    /**\r\n        Gets liquidity allotted for asset manager (message sender)\r\n     */\r\n    function getAllotedStake() override external view returns(uint256){\r\n        return LPTokenAllotted[msg.sender];\r\n    }\r\n\r\n    function issue(address security, uint256 cutoffTime, address issuer, bytes32 _hashedMessage, uint8 _v, bytes32 _r, bytes32 _s) override external {\r\n        bytes32 payloadHash = keccak256(abi.encode(_hashedMessage, \"L2toL1\"));\r\n        bytes32 messageHash = keccak256(abi.encodePacked(\"\\x19Ethereum Signed Message:\\n32\", payloadHash));\r\n        require(ecrecover(messageHash, _v, _r, _s)== bridge);\r\n        requestIssue(security, cutoffTime, issuer);\r\n    }\r\n    event poolID(bytes32 poolid);\r\n    /**\r\n        Called by issuer of 'security' token to open an issue which will last till 'cutoffTime'\r\n        @param  security    security offered to the primary issue pool\r\n        @param  cutoffTime  time in milliseconds by when offer closes\r\n     */\r\n    function requestIssue(address security, uint256 cutoffTime, address issuer) private {\r\n        // check if security to be issued has been offered by the issuer, and if yes, initialize the issuance\r\n        uint i = offeredTokenIndex[security];\r\n        if(offeredTokens[i]==security){\r\n            IERC20[] memory tokens = new IERC20[](2);\r\n            tokens[0] = IERC20(offeredTokens[i]);\r\n            \r\n            // check all offered securities that is not the security to be issued\r\n            for(uint j=0; j<offeredTokens.length; j++){\r\n                if(offeredTokens[j]!=security){\r\n\r\n                    // check if the request to issue has come from the issuer\r\n                    if(mmtokens[offeredTokens[i]][offeredTokens[j]][0].owner == issuer){\r\n\r\n                        for(uint k=0; k<mmtokens[offeredTokens[j]][offeredTokens[i]].length; k++){\r\n\r\n                            // find tokens offered against security to be issued\r\n                            if(mmtokens[offeredTokens[i]][offeredTokens[j]][0].amountOffered!=0){\r\n                                if(mmtokens[offeredTokens[j]][offeredTokens[i]][k].amountOffered!=0){\r\n                                    \r\n                                    // if min offer price for security issued is greater than price desired by market maker (LP)\r\n                                    if( Math.divDown(mmtokens[offeredTokens[i]][offeredTokens[j]][0].min,\r\n                                        mmtokens[offeredTokens[i]][offeredTokens[j]][0].amountOffered) >=\r\n                                        Math.divDown(mmtokens[offeredTokens[j]][offeredTokens[i]][k].amountOffered,\r\n                                        mmtokens[offeredTokens[j]][offeredTokens[i]][k].amountDesired))\r\n                                    {   \r\n                                        // store liquidity tokens    \r\n                                        if(pairedTokenIndex[security][offeredTokens[j]]==0){\r\n                                            pairedTokens[security].push(offeredTokens[j]);\r\n                                            pairedTokenIndex[security][offeredTokens[j]] = pairedTokens[security].length;\r\n                                        }\r\n\r\n                                        // find and store min price for token offered\r\n                                        if(Math.divDown(mmtokens[offeredTokens[i]][offeredTokens[j]][0].min,\r\n                                            mmtokens[offeredTokens[i]][offeredTokens[j]][0].amountOffered) < \r\n                                            qlTokens[security][offeredTokens[j]].minPrice  || \r\n                                            qlTokens[security][offeredTokens[j]].minPrice==0)\r\n                                        {\r\n                                            qlTokens[security][offeredTokens[j]].minPrice = \r\n                                                        Math.divDown(mmtokens[offeredTokens[i]][offeredTokens[j]][0].min,\r\n                                                        mmtokens[offeredTokens[i]][offeredTokens[j]][0].amountOffered);\r\n                                        }\r\n                                        // find and store max price for token offered\r\n                                        if(Math.divDown(mmtokens[offeredTokens[j]][offeredTokens[i]][k].amountOffered,\r\n                                            mmtokens[offeredTokens[j]][offeredTokens[i]][k].min) > \r\n                                            qlTokens[security][offeredTokens[j]].maxPrice)\r\n                                        {\r\n                                            qlTokens[security][offeredTokens[j]].maxPrice = \r\n                                                        Math.divDown(mmtokens[offeredTokens[j]][offeredTokens[i]][k].amountOffered,\r\n                                                        mmtokens[offeredTokens[j]][offeredTokens[i]][k].min);                                        \r\n                                        }  \r\n                                        qlTokens[security][offeredTokens[j]].amountIssued = \r\n                                                        Math.add(qlTokens[security][offeredTokens[j]].amountIssued,\r\n                                                        mmtokens[offeredTokens[i]][offeredTokens[j]][0].amountOffered);\r\n                                        qlTokens[security][offeredTokens[j]].amountOffered = \r\n                                                        Math.add(qlTokens[security][offeredTokens[j]].amountOffered,\r\n                                                        mmtokens[offeredTokens[j]][offeredTokens[i]][k].amountOffered);  \r\n                                        // store qualified liquidity provider info\r\n                                        lp memory provider = lp({\r\n                                            owner : mmtokens[offeredTokens[j]][offeredTokens[i]][k].owner,\r\n                                            tokenOffered : offeredTokens[j],\r\n                                            underwritten : mmtokens[offeredTokens[j]][offeredTokens[i]][k].amountOffered,\r\n                                            subscribed : 0,\r\n                                            earned : 0\r\n                                        });\r\n                                        liquidityProviders[offeredTokens[i]].push(provider);  \r\n\r\n                                        totalUnderwritten[offeredTokens[i]] = \r\n                                        SafeMath.add(totalUnderwritten[offeredTokens[i]], mmtokens[offeredTokens[j]][offeredTokens[i]][k].amountOffered);\r\n                                    }\r\n                                }\r\n                            }\r\n                        }\r\n                    }\r\n                }\r\n            }\r\n            //create primary issue pool if it does not exist already\r\n            for(uint x=0; x<pairedTokens[security].length; x++){\r\n                address lptoken = pairedTokens[security][x];\r\n                tokens[1] = IERC20(lptoken);\r\n                IPrimaryIssuePoolFactory.FactoryPoolParams memory poolparams = IPrimaryIssuePoolFactory.FactoryPoolParams({\r\n                    name : ERC20(security).name(),\r\n                    symbol : ERC20(security).symbol(),\r\n                    security : tokens[0],\r\n                    currency : tokens[1],\r\n                    minimumPrice : qlTokens[security][lptoken].minPrice,\r\n                    basePrice : qlTokens[security][lptoken].maxPrice,\r\n                    maxAmountsIn : qlTokens[security][lptoken].amountIssued,\r\n                    issueFeePercentage : swapFeePercentage,\r\n                    cutOffTime : cutoffTime\r\n                });\r\n                address newIssue = factory.create(poolparams);\r\n                // store details of new pool created\r\n                issues[security].issuer = mmtokens[security][lptoken][0].owner;\r\n                issues[security].deadline = cutoffTime;\r\n                issues[security].startTime = block.timestamp;\r\n                bytes32 pool = IPrimaryIssuePool(newIssue).getPoolId();\r\n                emit poolID(pool);\r\n                issues[security].pools[issues[security].pools.length] = pool;\r\n                pools[pool] = newIssue;\r\n                poolSecurity[pool] = security;\r\n                // initialize the pool here\r\n                vault.setRelayerApproval(address(this), newIssue, true);\r\n                IPrimaryIssuePool(newIssue).initialize();\r\n                // take right to manage pool\r\n                IVault.PoolBalanceOp[] memory ops = new IVault.PoolBalanceOp[](1);\r\n                ops[0] = IVault.PoolBalanceOp({\r\n                    kind: IVault.PoolBalanceOpKind.WITHDRAW,\r\n                    poolId: pool,\r\n                    token: IERC20(lptoken),\r\n                    amount: qlTokens[security][lptoken].amountIssued\r\n                });\r\n                vault.managePoolBalance(ops);\r\n                delete qlTokens[security][lptoken];\r\n            }\r\n            delete pairedTokens[security];\r\n        }\r\n    }\r\n\r\n    // called by pool when assets are swapped in by investors against security tokens issued\r\n    function subscribe(bytes32 poolId, address security, address assetIn, bytes32 assetName, uint256 amount, address investor, uint256 price) override onlyPool(poolId, security) external {\r\n        investors[poolId].push(IMarketMaker.subscriptions(investor, assetIn, assetName, amount, price));\r\n        subscriberIndex[poolId][investor] = investors[poolId].length;\r\n    }\r\n\r\n    /**\r\n        Fetches investors (subscribers) to a primary issue pool\r\n        @param   poolId identifier for a primary issue pool for which subscribers are to be returned\r\n     */\r\n    function getSubscribers(bytes32 poolId, bytes32 _hashedMessage, uint8 _v, bytes32 _r, bytes32 _s) override external returns(subscriptions[] memory){\r\n        bytes32 payloadHash = keccak256(abi.encode(_hashedMessage, \"L2toL1\"));\r\n        bytes32 messageHash = keccak256(abi.encodePacked(\"\\x19Ethereum Signed Message:\\n32\", payloadHash));\r\n        require(ecrecover(messageHash, _v, _r, _s)== bridge);\r\n        emit subscribers(poolSecurity[poolId], address(this), poolId, investors[poolId]);\r\n        return investors[poolId];\r\n    }\r\n\r\n    /**\r\n        Called by issuer to close subscription of 'security' issued by it\r\n        @param  security    address of security token\r\n     */  \r\n    function close(address security, bytes32 _hashedMessage, uint8 _v, bytes32 _r, bytes32 _s) override external {//returns(bytes32[] memory, bool) {\r\n        bytes32 payloadHash = keccak256(abi.encode(_hashedMessage, \"L2toL1\"));\r\n        bytes32 messageHash = keccak256(abi.encodePacked(\"\\x19Ethereum Signed Message:\\n32\", payloadHash));\r\n        require(ecrecover(messageHash, _v, _r, _s)== bridge);\r\n        if(block.timestamp > issues[security].deadline)\r\n            //return (issues[security].pools, true);\r\n            emit onClose(security, issues[security].pools, true, address(this));\r\n        else\r\n            //return (issues[security].pools, false);\r\n            emit onClose(security, issues[security].pools, false, address(this));\r\n    }\r\n\r\n    function accept(bytes32 poolid, address investor, uint256 amnt, address asset, bytes32 _hashedMessage, uint8 _v, bytes32 _r, bytes32 _s) override external {\r\n        bytes32 payloadHash = keccak256(abi.encode(_hashedMessage, \"L2toL1\"));\r\n        bytes32 messageHash = keccak256(abi.encodePacked(\"\\x19Ethereum Signed Message:\\n32\", payloadHash));\r\n        require(ecrecover(messageHash, _v, _r, _s)== bridge);\r\n        allot(poolid, investor, amnt, asset);\r\n    }\r\n\r\n    /**\r\n        Called by issuer to accept subscription to issue by investor\r\n        @param  poolid      identifier of primary issue pool in which subscription is made by investor\r\n        @param  investor    address of investor (subscriber)\r\n        @param  amnt        amount of investment (subscription capital) accepted by issuer for which allotment of security tokens are made to investor\r\n        @param  asset       address of asset which is used by investor to subscribe to the issue\r\n     */ \r\n    function allot(bytes32 poolid, address investor, uint256 amnt, address asset) private {\r\n        uint256 invested = 0;\r\n        uint256 i = subscriberIndex[poolid][investor];\r\n        if(i>0)\r\n            invested = Math.add(invested, investors[poolid][i-1].amount);\r\n        // transfer subscriptions for allotments to asset manager for asset subscribed with\r\n        /*address issued = IPrimaryIssuePool(pools[poolid]).getSecurity();\r\n        // refund balance to investors\r\n        IERC20(asset).transfer(investor, Math.sub(invested, amnt));\r\n        for(i=0; i<liquidityProviders[issued].length; i++){\r\n            if(liquidityProviders[issued][i].tokenOffered==asset && amnt!=0){\r\n                uint256 proportionUnderwritten = liquidityProviders[issued][i].underwritten / totalUnderwritten[issued];\r\n                uint256 prorataAmount = Math.mul(proportionUnderwritten, subscribed[poolid][asset]);\r\n                // transfer allotted amount to asset manager\r\n                if(prorataAmount > amnt){\r\n                    IERC20(asset).transfer(liquidityProviders[issued][i].owner, amnt);\r\n                    SafeMath.add(liquidityProviders[issued][i].subscribed, amnt);\r\n                    amnt = 0;\r\n                }\r\n                else{\r\n                    IERC20(asset).transfer(liquidityProviders[issued][i].owner, prorataAmount);\r\n                    SafeMath.add(liquidityProviders[issued][i].subscribed, prorataAmount);\r\n                    amnt = Math.sub(amnt, prorataAmount);\r\n                }\r\n            }\r\n        }*/\r\n    }\r\n\r\n    /**\r\n        Called by issuer to reject subscription to issue by investor\r\n        @param  poolid      identifier for primary issue pool to which investor has subscribed\r\n        @param  investor    address of investor (subscriber)\r\n     */ \r\n    function reject(bytes32 poolid, address investor, bytes32 _hashedMessage, uint8 _v, bytes32 _r, bytes32 _s) override external {\r\n        bytes32 payloadHash = keccak256(abi.encode(_hashedMessage, \"L2toL1\"));\r\n        bytes32 messageHash = keccak256(abi.encodePacked(\"\\x19Ethereum Signed Message:\\n32\", payloadHash));\r\n        require(ecrecover(messageHash, _v, _r, _s)== bridge);\r\n        uint256 i = subscriberIndex[poolid][investor];\r\n        if(i>0){\r\n            //IERC20(investors[poolid][i-1].asset).transfer(investor, investors[poolid][i-1].amount);\r\n        }\r\n    }\r\n\r\n    function settle(bytes32 poolId, bytes32 _hashedMessage, uint8 _v, bytes32 _r, bytes32 _s) override external {\r\n        bytes32 payloadHash = keccak256(abi.encode(_hashedMessage, \"L2toL1\"));\r\n        bytes32 messageHash = keccak256(abi.encodePacked(\"\\x19Ethereum Signed Message:\\n32\", payloadHash));\r\n        require(ecrecover(messageHash, _v, _r, _s)== bridge);\r\n        settleIssue(poolId);\r\n    }\r\n\r\n    /**\r\n        Called by product issuer to settle distribution of fee income arising from investment underwritten in the primary issue pool\r\n        @param  poolId  identifier for primary issue pool\r\n     */  \r\n    function settleIssue(bytes32 poolId) private {\r\n        //IPrimaryIssuePool(pools[poolId]).exit(); \r\n        uint256 totalLiquidityProvided = totalUnderwritten[poolSecurity[poolId]];\r\n        uint256 underwritingFee = Math.mul(totalLiquidityProvided, swapFeePercentage);\r\n        uint256 prorataLiquidityProvided =0;\r\n        for(uint i=0; i<liquidityProviders[poolSecurity[poolId]].length; i++){\r\n            prorataLiquidityProvided = liquidityProviders[poolSecurity[poolId]][i].underwritten / totalLiquidityProvided;\r\n            ILiquidity(LiquidityContract).distribute(Math.mul(underwritingFee, prorataLiquidityProvided), \r\n                                                    liquidityProviders[poolSecurity[poolId]][i].tokenOffered,\r\n                                                    liquidityProviders[poolSecurity[poolId]][i].owner);\r\n        }\r\n        delete investors[poolId];   \r\n    }   \r\n\r\n    function getOwner() override external view returns(address){\r\n        return owner();\r\n    }\r\n   \r\n}",
  "sourcePath": "D:\\Code\\verified-quorum\\balancer\\contracts\\BalancerManager.sol",
  "compiler": {
    "name": "solc",
    "version": "0.7.1+commit.f4a555be.Emscripten.clang"
  },
  "schemaVersion": "3.4.3",
  "updatedAt": "2022-06-16T19:07:01.069Z",
  "networkType": "ethereum",
  "devdoc": {
    "kind": "dev",
    "methods": {
      "close(address,bytes32,uint8,bytes32,bytes32)": {
        "params": {
          "security": "address of security token"
        }
      },
      "getLiquidityProviders(address)": {
        "params": {
          "_security": "identifier for the security token offered"
        }
      },
      "getOfferMade(address,address)": {
        "params": {
          "_owned": "address of token offered",
          "_tomatch": "address of token to match"
        }
      },
      "getOffered(address)": {
        "params": {
          "offered": "address of offered token"
        }
      },
      "getSubscribers(bytes32,bytes32,uint8,bytes32,bytes32)": {
        "params": {
          "poolId": "identifier for a primary issue pool for which subscribers are to be returned"
        }
      },
      "initialize(address,uint256,address,address,address,address,address)": {
        "params": {
          "_factory": "reference to the primary issue pool factory contract",
          "_products": "reference to the Verified Products contract that this contract reports created primary issue pools to",
          "_swapFeePercentage": "percentage of trading fee to be charged by the asset manager",
          "_vault": "reference to the Balancer vault"
        }
      },
      "offer(address,bytes32,uint256,address,uint256,uint256,address)": {
        "params": {
          "desired": "is the amount required of the liquidity token to be paired",
          "isin": "is the identifier for the security token offered",
          "min": "is the minimum amount to be swapped of the 'offered' token ",
          "offered": "is the amount offered",
          "owned": "is the security or settlement token on offer ",
          "tomatch": "is the liquidity token that is required to be paired"
        }
      },
      "owner()": {
        "details": "Returns the address of the current owner."
      },
      "reject(bytes32,address,bytes32,uint8,bytes32,bytes32)": {
        "params": {
          "investor": "address of investor (subscriber)",
          "poolid": "identifier for primary issue pool to which investor has subscribed"
        }
      },
      "renounceOwnership()": {
        "details": "Leaves the contract without owner. It will not be possible to call `onlyOwner` functions anymore. Can only be called by the current owner. NOTE: Renouncing ownership will leave the contract without an owner, thereby removing any functionality that is only available to the owner."
      },
      "stake(uint256,address)": {
        "params": {
          "amount": "amount of VITTA staked to provide liquidity for underwriting investments in tokenized securities"
        }
      },
      "transferOwnership(address)": {
        "details": "Transfers ownership of the contract to a new account (`newOwner`). Can only be called by the current owner."
      }
    },
    "version": 1
  },
  "userdoc": {
    "kind": "user",
    "methods": {
      "close(address,bytes32,uint8,bytes32,bytes32)": {
        "notice": "Called by issuer to close subscription of 'security' issued by it"
      },
      "getAllotedStake()": {
        "notice": "Gets liquidity allotted for asset manager (message sender)"
      },
      "getLiquidityProviders(address)": {
        "notice": "Fetches liquidity providers for a security token"
      },
      "getOfferMade(address,address)": {
        "notice": "Gets offer made previously"
      },
      "getOffered(address)": {
        "notice": "Gets tokens to match for offered token"
      },
      "getSubscribers(bytes32,bytes32,uint8,bytes32,bytes32)": {
        "notice": "Fetches investors (subscribers) to a primary issue pool"
      },
      "initialize(address,uint256,address,address,address,address,address)": {
        "notice": "Initializes this asset management contract"
      },
      "offer(address,bytes32,uint256,address,uint256,uint256,address)": {
        "notice": "Called by market maker and issuer for adding liquidity"
      },
      "reject(bytes32,address,bytes32,uint8,bytes32,bytes32)": {
        "notice": "Called by issuer to reject subscription to issue by investor"
      },
      "stake(uint256,address)": {
        "notice": "Called by Liquidity token contract to stake liquidity tokens by investors in VITTA"
      }
    },
    "version": 1
  }
}