{
  "contractName": "PrimaryIssuePoolFactory",
  "abi": [
    {
      "inputs": [
        {
          "internalType": "contract IVault",
          "name": "vault",
          "type": "address"
        }
      ],
      "stateMutability": "nonpayable",
      "type": "constructor"
    },
    {
      "anonymous": false,
      "inputs": [
        {
          "indexed": true,
          "internalType": "address",
          "name": "pool",
          "type": "address"
        }
      ],
      "name": "PoolCreated",
      "type": "event"
    },
    {
      "inputs": [],
      "name": "getPauseConfiguration",
      "outputs": [
        {
          "internalType": "uint256",
          "name": "pauseWindowDuration",
          "type": "uint256"
        },
        {
          "internalType": "uint256",
          "name": "bufferPeriodDuration",
          "type": "uint256"
        }
      ],
      "stateMutability": "view",
      "type": "function",
      "constant": true
    },
    {
      "inputs": [],
      "name": "getVault",
      "outputs": [
        {
          "internalType": "contract IVault",
          "name": "",
          "type": "address"
        }
      ],
      "stateMutability": "view",
      "type": "function",
      "constant": true
    },
    {
      "inputs": [
        {
          "internalType": "address",
          "name": "pool",
          "type": "address"
        }
      ],
      "name": "isPoolFromFactory",
      "outputs": [
        {
          "internalType": "bool",
          "name": "",
          "type": "bool"
        }
      ],
      "stateMutability": "view",
      "type": "function",
      "constant": true
    },
    {
      "inputs": [
        {
          "internalType": "address",
          "name": "_security",
          "type": "address"
        },
        {
          "internalType": "address",
          "name": "_currency",
          "type": "address"
        },
        {
          "internalType": "uint256",
          "name": "_minimumPrice",
          "type": "uint256"
        },
        {
          "internalType": "uint256",
          "name": "_basePrice",
          "type": "uint256"
        },
        {
          "internalType": "uint256",
          "name": "_maxAmountsIn",
          "type": "uint256"
        },
        {
          "internalType": "uint256",
          "name": "_issueFeePercentage",
          "type": "uint256"
        },
        {
          "internalType": "uint256",
          "name": "_cutOffTime",
          "type": "uint256"
        }
      ],
      "name": "create",
      "outputs": [
        {
          "internalType": "address",
          "name": "",
          "type": "address"
        }
      ],
      "stateMutability": "nonpayable",
      "type": "function"
    }
  ],
  "bytecode": "0x60c060405234801561001057600080fd5b50604051613ff7380380613ff783398101604081905261002f9161004d565b60601b6001600160601b0319166080526276a700420160a05261007b565b60006020828403121561005e578081fd5b81516001600160a01b0381168114610074578182fd5b9392505050565b60805160601c60a051613f526100a56000398060d652806101005250806101e25250613f526000f3fe60806040523480156200001157600080fd5b5060043610620000525760003560e01c80632da47c4014620000575780636634b753146200007a5780638081522214620000a05780638d928af814620000c6575b600080fd5b62000061620000d0565b604051620000719291906200037f565b60405180910390f35b620000916200008b3660046200027c565b6200013c565b60405162000071919062000319565b620000b7620000b1366004620002a1565b6200015a565b60405162000071919062000305565b620000b7620001e0565b600080427f00000000000000000000000000000000000000000000000000000000000000008110156200012e57807f000000000000000000000000000000000000000000000000000000000000000003925062278d00915062000137565b60009250600091505b509091565b6001600160a01b031660009081526020819052604090205460ff1690565b600080600062000169620000d0565b91509150600062000179620001e0565b8b8b8b8b8b8b89898d33604051620001919062000250565b620001a79b9a9998979695949392919062000324565b604051809103906000f080158015620001c4573d6000803e3d6000fd5b509050620001d28162000204565b9a9950505050505050505050565b7f000000000000000000000000000000000000000000000000000000000000000090565b6001600160a01b038116600081815260208190526040808220805460ff19166001179055517f83a48fbcfc991335314e74d0496aab6a1987e992ddc85dddbcc4d6dd6ef2e9fc9190a250565b613b8f806200038e83390190565b80356001600160a01b03811681146200027657600080fd5b92915050565b6000602082840312156200028e578081fd5b6200029a83836200025e565b9392505050565b600080600080600080600060e0888a031215620002bc578283fd5b620002c889896200025e565b9650620002d98960208a016200025e565b96999698505050506040850135946060810135946080820135945060a0820135935060c0909101359150565b6001600160a01b0391909116815260200190565b901515815260200190565b6001600160a01b039b8c168152998b1660208b0152978a1660408a01526060890196909652608088019490945260a087019290925260c086015260e08501526101008401526101208301529091166101408201526101600190565b91825260208201526040019056fe6102806040527f6e71edae12b1b97f4d1f60370fef10105fa2faae0126114a169c64845d6126c9610120523480156200003757600080fd5b5060405162003b8f38038062003b8f8339810160408190526200005a916200098a565b8a60008b6001600160a01b03166306fdde036040518163ffffffff1660e01b815260040160006040518083038186803b1580156200009757600080fd5b505afa158015620000ac573d6000803e3d6000fd5b505050506040513d6000823e601f3d908101601f19168201604052620000d6919081019062000a3b565b8c6001600160a01b03166395d89b416040518163ffffffff1660e01b815260040160006040518083038186803b1580156200011057600080fd5b505afa15801562000125573d6000803e3d6000fd5b505050506040513d6000823e601f3d908101601f191682016040526200014f919081019062000a3b565b6200015c8e8e30620004a5565b604080516002808252606082018352909160208301908036833750506040805180820190915260018152603160f81b6020808301919091523360805260608a901b6001600160601b03191660a05286518e93508d928d928c92859285928c928c928492839283918691620001d79160039190850190620008d5565b508051620001ed906004906020840190620008d5565b50506005805460ff1916601217905550815160209283012060c052805191012060e05250507f8b73c3c69bb8fe3d512ecc4cf759cc79239f7b179b0ffacaa9a75d522b39400f61010052506200024c6276a70083111561019462000574565b6200026062278d0082111561019562000574565b429091016101408190520161016052855162000282906002111560c862000574565b6200029c6200029062000589565b8751111560c962000574565b620002b2866200058e60201b620010cf1760201c565b620002bd846200059a565b6040516309b2760f60e01b81526000906001600160a01b038c16906309b2760f90620002ee908d9060040162000bc4565b602060405180830381600087803b1580156200030957600080fd5b505af11580156200031e573d6000803e3d6000fd5b505050506040513d601f19601f8201168201806040525081019062000344919062000971565b604051633354e3e960e11b81529091506001600160a01b038c16906366a9c7d290620003799084908b908b9060040162000b28565b600060405180830381600087803b1580156200039457600080fd5b505af1158015620003a9573d6000803e3d6000fd5b505050508a6001600160a01b0316610180816001600160a01b031660601b81525050806101a081815250505050505050505050505050896001600160a01b03166101c0816001600160a01b031660601b81525050886001600160a01b03166101e0816001600160a01b031660601b81525050600080620004318c8c306200062660201b60201c565b5061024082905261026081905290925090506200044e8c6200071c565b610200526200045d8b6200071c565b610220525050600997909755600a95909555505050600b55600c5542600d55600e80546001600160a01b0319166001600160a01b039092169190911790555062000c04915050565b606060008080620004b887878762000626565b6040805160038082526080820190925293965091945092506020820160608036833701905050935086848481518110620004ee57fe5b60200260200101906001600160a01b031690816001600160a01b031681525050858483815181106200051c57fe5b60200260200101906001600160a01b031690816001600160a01b031681525050848482815181106200054a57fe5b60200260200101906001600160a01b031690816001600160a01b0316815250505050509392505050565b8162000585576200058581620007c8565b5050565b600290565b8062000585816200081b565b620005af64e8d4a5100082101560cb62000574565b620005c767016345785d8a000082111560ca62000574565b620005e68160c0600854620008a860201b620010d9179092919060201c565b6008556040517fa9ba3ffe0b6c366b81232caab38605a0699ad5398d6cce76f91ee809e322dafc906200061b90839062000bd9565b60405180910390a150565b6000806000846001600160a01b0316866001600160a01b03161015620006af57836001600160a01b0316856001600160a01b031610156200067257506000915060019050600262000713565b836001600160a01b0316866001600160a01b031610156200069e57506000915060029050600162000713565b506001915060029050600062000713565b846001600160a01b0316846001600160a01b03161015620006db57506002915060019050600062000713565b856001600160a01b0316846001600160a01b031610156200070757506002915060009050600162000713565b50600191506000905060025b93509350939050565b600080826001600160a01b031663313ce5676040518163ffffffff1660e01b815260040160206040518083038186803b1580156200075957600080fd5b505afa1580156200076e573d6000803e3d6000fd5b505050506040513d601f19601f8201168201806040525081019062000794919062000afe565b60ff1690506000620007b3601283620008bd60201b620010ef1760201c565b600a0a670de0b6b3a764000002949350505050565b62461bcd60e51b6000908152602060045260076024526642414c23000030600a808404818106603090810160081b95839006959095019082900491820690940160101b939093010160c81b604452606490fd5b6002815110156200082c57620008a5565b6000816000815181106200083c57fe5b602002602001015190506000600190505b8251811015620008a25760008382815181106200086657fe5b6020026020010151905062000897816001600160a01b0316846001600160a01b03161060656200057460201b60201c565b91506001016200084d565b50505b50565b6001600160401b03811b1992909216911b1790565b6000620008cf83831115600162000574565b50900390565b828054600181600116156101000203166002900490600052602060002090601f016020900481019282601f106200091857805160ff191683800117855562000948565b8280016001018555821562000948579182015b82811115620009485782518255916020019190600101906200092b565b50620009569291506200095a565b5090565b5b808211156200095657600081556001016200095b565b60006020828403121562000983578081fd5b5051919050565b60008060008060008060008060008060006101608c8e031215620009ac578687fd5b8b51620009b98162000bee565b60208d0151909b50620009cc8162000bee565b60408d0151909a50620009df8162000bee565b8099505060608c0151975060808c0151965060a08c0151955060c08c0151945060e08c015193506101008c015192506101208c015191506101408c015162000a278162000bee565b809150509295989b509295989b9093969950565b6000602080838503121562000a4e578182fd5b82516001600160401b038082111562000a65578384fd5b818501915085601f83011262000a79578384fd5b81518181111562000a88578485fd5b604051601f8201601f191681018501838111828210171562000aa8578687fd5b604052818152838201850188101562000abf578586fd5b8592505b8183101562000ae2578383018501518184018601529184019162000ac3565b8183111562000af357858583830101525b979650505050505050565b60006020828403121562000b10578081fd5b815160ff8116811462000b21578182fd5b9392505050565b60006060820185835260206060818501528186518084526080860191508288019350845b8181101562000b745762000b61855162000be2565b8352938301939183019160010162000b4c565b505084810360408601528551808252908201925081860190845b8181101562000bb65762000ba3835162000be2565b8552938301939183019160010162000b8e565b509298975050505050505050565b602081016003831062000bd357fe5b91905290565b90815260200190565b6001600160a01b031690565b6001600160a01b0381168114620008a557600080fd5b60805160a05160601c60c05160e051610100516101205161014051610160516101805160601c6101a0516101c05160601c6101e05160601c61020051610220516102405161026051612e4f62000d40600039806111945280611d565280611d985280611ea6528061208652806120b9528061217c5250806111535280611d105280611eda5280611f0d528061204052806121b052806121e3525050508061086052806109a65280610f9b528061122d52806112d85280611c8b5280611ccc5280611fbb5280611ffc52508061074b52806109585280610f4d52806111dd528061128f5280611e215280611e6252806120f7528061213852508061079b525080610bae52508061148252508061145e525080610cbb5250806115885250806115ca5250806115a9525080610b8a525080610b145250612e4f6000f3fe608060405234801561001057600080fd5b50600436106102065760003560e01c80636945c1fd1161011a5780638d928af8116100ad578063aaabadc51161007c578063aaabadc51461041c578063d505accf14610424578063d5c096c414610437578063dd62ed3e1461044a578063e9fad8ee1461045d57610206565b80638d928af8146103e657806395d89b41146103ee578063a457c2d7146103f6578063a9059cbb1461040957610206565b80638129fc1c116100e95780638129fc1c146103b0578063851c1bb3146103b857806387ec6817146103cb578063893d20e8146103de57610206565b80636945c1fd1461036157806370a082311461036957806374f3b0091461037c5780637ecebe001461039d57610206565b80632541897f1161019d57806338fff2d01161016c57806338fff2d01461030a578063395093511461031257806350dd6ed91461032557806355c67628146103385780636028bfd41461034057610206565b80632541897f146102c5578063313ce567146102da5780633644e515146102ef57806338e9922e146102f757610206565b806318160ddd116101d957806318160ddd1461027e5780631c0de051146102865780631dd746ea1461029d57806323b872dd146102b257610206565b806301ec954a1461020b57806306fdde0314610234578063095ea7b31461024957806316c38b3c14610269575b600080fd5b61021e610219366004612930565b610465565b60405161022b9190612c83565b60405180910390f35b61023c6105d4565b60405161022b9190612d95565b61025c610257366004612798565b61066a565b60405161022b9190612c60565b61027c6102773660046127c3565b610681565b005b61021e610695565b61028e61069b565b60405161022b93929190612c6b565b6102a56106c4565b60405161022b9190612c1f565b61025c6102c03660046126e3565b6106d3565b6102cd610749565b60405161022b9190612c0b565b6102e261076d565b60405161022b9190612dc1565b61021e610776565b61027c610305366004612a4f565b610780565b61021e610799565b61025c610320366004612798565b6107bd565b61027c6103333660046128e2565b6107f8565b61021e610816565b61035361034e3660046127fb565b610827565b60405161022b929190612da8565b6102cd61085e565b61021e61037736600461268f565b610882565b61038f61038a3660046127fb565b61089d565b60405161022b929190612c32565b61021e6103ab36600461268f565b61091b565b61027c610936565b61021e6103c636600461289e565b610b10565b6103536103d93660046127fb565b610b62565b6102cd610b88565b6102cd610bac565b61023c610bd0565b61025c610404366004612798565b610c31565b61025c610417366004612798565b610c6f565b6102cd610c7c565b61027c610432366004612723565b610c86565b61038f6104453660046127fb565b610dcf565b61021e6104583660046126ab565b610f00565b61027c610f2b565b60008460800151610492610477610bac565b6001600160a01b0316336001600160a01b03161460cd611105565b6104a761049d610799565b82146101f4611105565b426104b6600d54600c54611113565b10156104c157600080fd5b60606104cb611123565b90506104d5612541565b60405180606001604052806104e8610816565b81526009546020820152600a54604090910152905060008851600181111561050c57fe5b141561056e57610533886060015183888151811061052657fe5b60200260200101516111cd565b606089015260006105458989846111d9565b90506105648184888151811061055757fe5b602002602001015161127f565b94505050506105cb565b60018851600181111561057d57fe5b14156105c857610597886060015183878151811061052657fe5b606089015260006105a989898461128b565b9050610564818489815181106105bb57fe5b602002602001015161131f565b50505b50949350505050565b60038054604080516020601f60026000196101006001881615020190951694909404938401819004810282018101909252828152606093909290918301828280156106605780601f1061063557610100808354040283529160200191610660565b820191906000526020600020905b81548152906001019060200180831161064357829003601f168201915b5050505050905090565b600061067733848461132b565b5060015b92915050565b610689611393565b610692816113c1565b50565b60025490565b60008060006106a861143f565b1592506106b361145c565b91506106bd611480565b9050909192565b60606106ce611123565b905090565b6000806106e08533610f00565b9050610704336001600160a01b03871614806106fc5750838210155b61019e611105565b61070f8585856114a4565b336001600160a01b0386161480159061072a57506000198114155b1561073c5761073c853385840361132b565b60019150505b9392505050565b7f000000000000000000000000000000000000000000000000000000000000000090565b60055460ff1690565b60006106ce611584565b610788611393565b610790611621565b61069281611636565b7f000000000000000000000000000000000000000000000000000000000000000090565b3360008181526001602090815260408083206001600160a01b038716845290915281205490916106779185906107f390866116a1565b61132b565b610800611393565b610808611621565b61081282826116b3565b5050565b6008546000906106ce9060c06117b2565b6000606061083d86516108386117c0565b6117c5565b610852898989898989896117d26117f0611856565b97509795505050505050565b7f000000000000000000000000000000000000000000000000000000000000000090565b6001600160a01b031660009081526020819052604090205490565b606080886108ac610477610bac565b6108b761049d610799565b60606108c1611123565b90506108cd8882611979565b60006060806108e28e8e8e8e8e8e8a8f6117d2565b9250925092506108f28d846119da565b6108fc82856117f0565b61090681856117f0565b909550935050505b5097509795505050505050565b6001600160a01b031660009081526006602052604090205490565b60408051600280825260608083018452926020830190803683370190505090507f00000000000000000000000000000000000000000000000000000000000000008160008151811061098457fe5b60200260200101906001600160a01b031690816001600160a01b0316815250507f0000000000000000000000000000000000000000000000000000000000000000816001815181106109d257fe5b6001600160a01b0392909216602092830291909101909101526040805160028082526060828101909352816020016020820280368337019050509050600b5481600081518110610a1e57fe5b602002602001018181525050610a3a600b5460095460006119e4565b81600181518110610a4757fe5b602002602001018181525050610a5b612562565b50604080516080810182528381526020808201849052825190810183526000808252928201526060810191909152610a91610bac565b6001600160a01b031663b95cac28610aa7610799565b600e546040516001600160e01b031960e085901b168152610ad992916001600160a01b03169030908790600401612c8c565b600060405180830381600087803b158015610af357600080fd5b505af1158015610b07573d6000803e3d6000fd5b50505050505050565b60007f000000000000000000000000000000000000000000000000000000000000000082604051602001610b45929190612bc8565b604051602081830303815290604052805190602001209050919050565b60006060610b7386516108386117c0565b610852898989898989896117d2611a0c611856565b7f000000000000000000000000000000000000000000000000000000000000000090565b7f000000000000000000000000000000000000000000000000000000000000000090565b60048054604080516020601f60026000196101006001881615020190951694909404938401819004810282018101909252828152606093909290918301828280156106605780601f1061063557610100808354040283529160200191610660565b600080610c3e3385610f00565b9050808310610c5857610c533385600061132b565b610c65565b610c65338585840361132b565b5060019392505050565b60006106773384846114a4565b60006106ce611a6d565b610c948442111560d1611105565b6001600160a01b0387166000908152600660209081526040808320549051909291610ceb917f0000000000000000000000000000000000000000000000000000000000000000918c918c918c9188918d9101612ce7565b6040516020818303038152906040528051906020012090506000610d0e82611ae7565b9050600060018288888860405160008152602001604052604051610d359493929190612d77565b6020604051602081039080840390855afa158015610d57573d6000803e3d6000fd5b5050604051601f1901519150610d9990506001600160a01b03821615801590610d9157508b6001600160a01b0316826001600160a01b0316145b6101f8611105565b6001600160a01b038b166000908152600660205260409020600185019055610dc28b8b8b61132b565b5050505050505050505050565b60608088610dde610477610bac565b610de961049d610799565b6060610df3611123565b9050610dfd610695565b610eb05760006060610e128d8d8d868b611b03565b91509150610e2b610e21611b71565b83101560cc611105565b610e3d6000610e38611b71565b611b78565b610e508b610e49611b71565b8403611b78565b610e5a8184611a0c565b80610e636117c0565b67ffffffffffffffff81118015610e7957600080fd5b50604051908082528060200260200182016040528015610ea3578160200160208202803683370190505b509550955050505061090e565b610eba8882611979565b6000606080610ecf8e8e8e8e8e8e8a8f6117d2565b925092509250610edf8c84611b78565b610ee98285611a0c565b610ef381856117f0565b909550935061090e915050565b6001600160a01b03918216600090815260016020908152604080832093909416825291909152205490565b60408051600280825260608083018452926020830190803683370190505090507f000000000000000000000000000000000000000000000000000000000000000081600081518110610f7957fe5b60200260200101906001600160a01b031690816001600160a01b0316815250507f000000000000000000000000000000000000000000000000000000000000000081600181518110610fc757fe5b6001600160a01b039290921660209283029190910190910152604080516002808252606082810190935281602001602082028036833701905050905060008160008151811061101257fe5b60200260200101818152505061102e600b54600a5460006119e4565b8160018151811061103b57fe5b60200260200101818152505061104f612562565b50604080516080810182528381526020808201849052825190810183526000808252928201526060810191909152611085610bac565b6001600160a01b0316638bdb391361109b610799565b600e546040516001600160e01b031960e085901b168152610ad9929130916001600160a01b03909116908790600401612c8c565b8061081281611b82565b67ffffffffffffffff811b1992909216911b1790565b60006110ff838311156001611105565b50900390565b816108125761081281611bfb565b8181018281101561067b57600080fd5b604080516002808252606080830184529283929190602083019080368337019050509050670de0b6b3a7640000817f00000000000000000000000000000000000000000000000000000000000000008151811061117c57fe5b602002602001018181525050670de0b6b3a7640000817f0000000000000000000000000000000000000000000000000000000000000000815181106111bd57fe5b6020908102919091010152905090565b60006107428383611c4e565b60007f00000000000000000000000000000000000000000000000000000000000000006001600160a01b031684602001516001600160a01b0316141561122b57611224848484611c84565b9050610742565b7f00000000000000000000000000000000000000000000000000000000000000006001600160a01b031684602001516001600160a01b0316141561127457611224848484611e1a565b610742610135611bfb565b60006107428383611f63565b60007f00000000000000000000000000000000000000000000000000000000000000006001600160a01b031684604001516001600160a01b031614156112d657611224848484611fb4565b7f00000000000000000000000000000000000000000000000000000000000000006001600160a01b031684604001516001600160a01b03161415611274576112248484846120f0565b6000610742838361220c565b6001600160a01b0380841660008181526001602090815260408083209487168084529490915290819020849055517f8c5be1e5ebec7d5bd14f71427d1e84f3dd0314c0f7b2291e5b200ac8c7c3b92590611386908590612c83565b60405180910390a3505050565b60006113aa6000356001600160e01b031916610b10565b90506106926113b9823361225a565b610191611105565b80156113e1576113dc6113d261145c565b4210610193611105565b6113f6565b6113f66113ec611480565b42106101a9611105565b6007805460ff19168215151790556040517f9e3a5e37224532dea67b89face185703738a228a6e8a23dee546960180d3be6490611434908390612c60565b60405180910390a150565b6000611449611480565b4211806106ce57505060075460ff161590565b7f000000000000000000000000000000000000000000000000000000000000000090565b7f000000000000000000000000000000000000000000000000000000000000000090565b6114bb6001600160a01b0384161515610198611105565b6114d26001600160a01b0383161515610199611105565b6114dd838383611851565b6001600160a01b03831660009081526020819052604090205461150390826101a061234a565b6001600160a01b03808516600090815260208190526040808220939093559084168152205461153290826116a1565b6001600160a01b0380841660008181526020819052604090819020939093559151908516907fddf252ad1be2c89b69c2b068fc378daa952ba7f163c4a11628f55a4df523b3ef90611386908590612c83565b60007f00000000000000000000000000000000000000000000000000000000000000007f00000000000000000000000000000000000000000000000000000000000000007f00000000000000000000000000000000000000000000000000000000000000006115f1612360565b30604051602001611606959493929190612d1b565b60405160208183030381529060405280519060200120905090565b61163461162c61143f565b610192611105565b565b61164964e8d4a5100082101560cb611105565b61165f67016345785d8a000082111560ca611105565b60085461166e908260c06110d9565b6008556040517fa9ba3ffe0b6c366b81232caab38605a0699ad5398d6cce76f91ee809e322dafc90611434908390612c83565b60008282016107428482101583611105565b60006116bd610799565b905060006116c9610bac565b6001600160a01b031663b05f8e4883866040518363ffffffff1660e01b81526004016116f6929190612d60565b60806040518083038186803b15801561170e57600080fd5b505afa158015611722573d6000803e3d6000fd5b505050506040513d601f19601f820116820180604052508101906117469190612a67565b604051630639cdb560e21b81529094506001600160a01b03851693506318e736d4925061177a915085908790600401612d47565b600060405180830381600087803b15801561179457600080fd5b505af11580156117a8573d6000803e3d6000fd5b5050505050505050565b1c67ffffffffffffffff1690565b600290565b6108128183146067611105565b60006060806117e2610136611bfb565b985098509895505050505050565b60005b6117fb6117c0565b8110156118515761183283828151811061181157fe5b602002602001015183838151811061182557fe5b6020026020010151611f63565b83828151811061183e57fe5b60209081029190910101526001016117f3565b505050565b333014611914576000306001600160a01b031660003660405161187a929190612be0565b6000604051808303816000865af19150503d80600081146118b7576040519150601f19603f3d011682016040523d82523d6000602084013e6118bc565b606091505b5050905080600081146118cb57fe5b60046000803e6000516001600160e01b0319166343adbafb60e01b81146118f6573d6000803e3d6000fd5b506020600460003e604060205260243d03602460403e601c3d016000f35b606061191e611123565b905061192a8782611979565b600060606119428c8c8c8c8c8c898d8d63ffffffff16565b509150915061195581848663ffffffff16565b8051601f1982018390526343adbafb603f1983015260200260231982016044820181fd5b60005b6119846117c0565b811015611851576119bb83828151811061199a57fe5b60200260200101518383815181106119ae57fe5b6020026020010151611c4e565b8382815181106119c757fe5b602090810291909101015260010161197c565b6108128282612364565b6000816119fa576119f58484612420565b611a04565b611a048484612440565b949350505050565b60005b611a176117c0565b81101561185157611a4e838281518110611a2d57fe5b6020026020010151838381518110611a4157fe5b602002602001015161220c565b838281518110611a5a57fe5b6020908102919091010152600101611a0f565b6000611a77610bac565b6001600160a01b031663aaabadc56040518163ffffffff1660e01b815260040160206040518083038186803b158015611aaf57600080fd5b505afa158015611ac3573d6000803e3d6000fd5b505050506040513d601f19601f820116820180604052508101906106ce91906128c6565b6000611af1611584565b82604051602001610b45929190612bf0565b60006060611b0f611621565b600e54611b2c906001600160a01b038881169116146101aa611105565b611b436001600160a01b03861630146101aa611105565b6040805160028082526060808301845292602083019080368337019050506000999098509650505050505050565b620f424090565b6108128282612473565b600281511015611b9157610692565b600081600081518110611ba057fe5b602002602001015190506000600190505b8251811015611851576000838281518110611bc857fe5b60200260200101519050611bf1816001600160a01b0316846001600160a01b0316106065611105565b9150600101611bb1565b62461bcd60e51b6000908152602060045260076024526642414c23000030600a808404818106603090810160081b95839006959095019082900491820690940160101b939093010160c81b604452606490fd5b6000828202611c72841580611c6b575083858381611c6857fe5b04145b6003611105565b670de0b6b3a764000090049392505050565b6000611cca7f00000000000000000000000000000000000000000000000000000000000000006001600160a01b031685604001516001600160a01b031614610135611105565b7f00000000000000000000000000000000000000000000000000000000000000006001600160a01b031684604001516001600160a01b03161415610742576000611d4b847f000000000000000000000000000000000000000000000000000000000000000081518110611d3957fe5b602002602001015186606001516116a1565b90506000611d8e82867f000000000000000000000000000000000000000000000000000000000000000081518110611d7f57fe5b602002602001015160006119e4565b90506000611dcf867f000000000000000000000000000000000000000000000000000000000000000081518110611dc157fe5b6020026020010151836110ef565b90508460200151611de2848360006119e4565b10158015611dff57508460400151611dfc848360006119e4565b11155b15611e0e575091506107429050565b60009350505050610742565b6000611e607f00000000000000000000000000000000000000000000000000000000000000006001600160a01b031685604001516001600160a01b031614610135611105565b7f00000000000000000000000000000000000000000000000000000000000000006001600160a01b031684604001516001600160a01b03161415610742576000611ecf847f000000000000000000000000000000000000000000000000000000000000000081518110611d3957fe5b90506000611f0382867f000000000000000000000000000000000000000000000000000000000000000081518110611d7f57fe5b90506000611f36867f000000000000000000000000000000000000000000000000000000000000000081518110611dc157fe5b90508460200151611f49828560006119e4565b10158015611dff57508460400151611dfc828560006119e4565b6000611f728215156004611105565b82611f7f5750600061067b565b670de0b6b3a764000083810290611fa290858381611f9957fe5b04146005611105565b828181611fab57fe5b0491505061067b565b6000611ffa7f00000000000000000000000000000000000000000000000000000000000000006001600160a01b031685602001516001600160a01b031614610135611105565b7f00000000000000000000000000000000000000000000000000000000000000006001600160a01b031684602001516001600160a01b0316141561074257600061207b847f00000000000000000000000000000000000000000000000000000000000000008151811061206957fe5b602002602001015186606001516110ef565b905060006120af82867f000000000000000000000000000000000000000000000000000000000000000081518110611d7f57fe5b90506000611dcf867f0000000000000000000000000000000000000000000000000000000000000000815181106120e257fe5b6020026020010151836116a1565b60006121367f00000000000000000000000000000000000000000000000000000000000000006001600160a01b031685602001516001600160a01b031614610135611105565b7f00000000000000000000000000000000000000000000000000000000000000006001600160a01b031684602001516001600160a01b031614156107425760006121a5847f00000000000000000000000000000000000000000000000000000000000000008151811061206957fe5b905060006121d982867f000000000000000000000000000000000000000000000000000000000000000081518110611d7f57fe5b90506000611f36867f0000000000000000000000000000000000000000000000000000000000000000815181106120e257fe5b600061221b8215156004611105565b826122285750600061067b565b670de0b6b3a76400008381029061224290858381611f9957fe5b82600182038161224e57fe5b0460010191505061067b565b600073ba1ba1ba1ba1ba1ba1ba1ba1ba1ba1ba1ba1ba1b612279610b88565b6001600160a01b031614158015612294575061229483612501565b156122bc576122a1610b88565b6001600160a01b0316336001600160a01b031614905061067b565b6122c4611a6d565b6001600160a01b0316639be2a8848484306040518463ffffffff1660e01b81526004016122f393929190612cc8565b60206040518083038186803b15801561230b57600080fd5b505afa15801561231f573d6000803e3d6000fd5b505050506040513d601f19601f8201168201806040525081019061234391906127df565b905061067b565b60006123598484111583611105565b5050900390565b4690565b61237b6001600160a01b038316151561019b611105565b61238782600083611851565b6001600160a01b0382166000908152602081905260409020546123ad90826101a161234a565b6001600160a01b0383166000908152602081905260409020556002546123d39082612533565b6002556040516000906001600160a01b038416907fddf252ad1be2c89b69c2b068fc378daa952ba7f163c4a11628f55a4df523b3ef90612414908590612c83565b60405180910390a35050565b600061242f8215156004611105565b81838161243857fe5b049392505050565b600061244f8215156004611105565b8261245c5750600061067b565b81600184038161246857fe5b04600101905061067b565b61247f60008383611851565b60025461248c90826116a1565b6002556001600160a01b0382166000908152602081905260409020546124b290826116a1565b6001600160a01b0383166000818152602081905260408082209390935591519091907fddf252ad1be2c89b69c2b068fc378daa952ba7f163c4a11628f55a4df523b3ef90612414908590612c83565b6000612513631c74c91760e11b610b10565b82148061067b575061252b6350dd6ed960e01b610b10565b821492915050565b60006107428383600161234a565b60405180606001604052806000815260200160008152602001600081525090565b60405180608001604052806060815260200160608152602001606081526020016000151581525090565b803561067b81612df6565b600082601f8301126125a7578081fd5b813567ffffffffffffffff8111156125bd578182fd5b60208082026125cd828201612dcf565b838152935081840185830182870184018810156125e957600080fd5b600092505b8483101561260c5780358252600192909201919083019083016125ee565b505050505092915050565b600082601f830112612627578081fd5b813567ffffffffffffffff81111561263d578182fd5b612650601f8201601f1916602001612dcf565b915080825283602082850101111561266757600080fd5b8060208401602084013760009082016020015292915050565b80356002811061067b57600080fd5b6000602082840312156126a0578081fd5b813561074281612df6565b600080604083850312156126bd578081fd5b82356126c881612df6565b915060208301356126d881612df6565b809150509250929050565b6000806000606084860312156126f7578081fd5b833561270281612df6565b9250602084013561271281612df6565b929592945050506040919091013590565b600080600080600080600060e0888a03121561273d578283fd5b873561274881612df6565b9650602088013561275881612df6565b95506040880135945060608801359350608088013560ff8116811461277b578384fd5b9699959850939692959460a0840135945060c09093013592915050565b600080604083850312156127aa578182fd5b82356127b581612df6565b946020939093013593505050565b6000602082840312156127d4578081fd5b813561074281612e0b565b6000602082840312156127f0578081fd5b815161074281612e0b565b600080600080600080600060e0888a031215612815578081fd5b87359650602088013561282781612df6565b9550604088013561283781612df6565b9450606088013567ffffffffffffffff80821115612853578283fd5b61285f8b838c01612597565b955060808a0135945060a08a0135935060c08a0135915080821115612882578283fd5b5061288f8a828b01612617565b91505092959891949750929550565b6000602082840312156128af578081fd5b81356001600160e01b031981168114610742578182fd5b6000602082840312156128d7578081fd5b815161074281612df6565b600080604083850312156128f4578182fd5b82356128ff81612df6565b9150602083013567ffffffffffffffff81111561291a578182fd5b61292685828601612617565b9150509250929050565b60008060008060808587031215612945578182fd5b843567ffffffffffffffff8082111561295c578384fd5b818701915061012080838a031215612972578485fd5b61297b81612dcf565b90506129878984612680565b8152612996896020850161258c565b60208201526129a8896040850161258c565b6040820152606083013560608201526080830135608082015260a083013560a08201526129d88960c0850161258c565b60c08201526129ea8960e0850161258c565b60e08201526101008084013583811115612a02578687fd5b612a0e8b828701612617565b828401525050809650506020870135915080821115612a2b578384fd5b50612a3887828801612597565b949794965050505060408301359260600135919050565b600060208284031215612a60578081fd5b5035919050565b60008060008060808587031215612a7c578182fd5b8451935060208501519250604085015191506060850151612a9c81612df6565b939692955090935050565b6000815180845260208085019450808401835b83811015612ad657815187529582019590820190600101612aba565b509495945050505050565b15159052565b60008151808452815b81811015612b0c57602081850181015186830182015201612af0565b81811115612b1d5782602083870101525b50601f01601f19169290920160200192915050565b8051608080845281519084018190526000916020919082019060a0860190845b81811015612b775783516001600160a01b031683529284019291840191600101612b52565b505082850151915085810383870152612b908183612aa7565b9250505060408301518482036040860152612bab8282612ae7565b9150506060830151612bc06060860182612ae1565b509392505050565b9182526001600160e01b031916602082015260240190565b6000828483379101908152919050565b61190160f01b81526002810192909252602282015260420190565b6001600160a01b0391909116815260200190565b6000602082526107426020830184612aa7565b600060408252612c456040830185612aa7565b8281036020840152612c578185612aa7565b95945050505050565b901515815260200190565b92151583526020830191909152604082015260600190565b90815260200190565b8481526001600160a01b03848116602083015283166040820152608060608201819052600090612cbe90830184612b32565b9695505050505050565b9283526001600160a01b03918216602084015216604082015260600190565b9586526001600160a01b0394851660208701529290931660408501526060840152608083019190915260a082015260c00190565b9485526020850193909352604084019190915260608301526001600160a01b0316608082015260a00190565b600083825260406020830152611a046040830184612ae7565b9182526001600160a01b0316602082015260400190565b93845260ff9290921660208401526040830152606082015260800190565b6000602082526107426020830184612ae7565b600083825260406020830152611a046040830184612aa7565b60ff91909116815260200190565b60405181810167ffffffffffffffff81118282101715612dee57600080fd5b604052919050565b6001600160a01b038116811461069257600080fd5b801515811461069257600080fdfea2646970667358221220aae920195de7fd7e0e73dab6b90b538d91dcb1da4064bf00dbb5dd8de740d2f364736f6c63430007010033a2646970667358221220f05db6bb9556ed89e4b6d2bceef7d365343b6a74fcd54af543e7ef037e071aaa64736f6c63430007010033",
  "immutableReferences": {
    "1521": [
      {
        "length": 32,
        "start": 482
      }
    ],
    "1591": [
      {
        "length": 32,
        "start": 214
      },
      {
        "length": 32,
        "start": 256
      }
    ]
  },
  "source": "// Factory to create pools of new issues for security token offerings\r\n// (c) Kallol Borah, Verified Network, 2021\r\n\r\n//\"SPDX-License-Identifier: MIT\"\r\n\r\npragma solidity ^0.7.0;\r\npragma experimental ABIEncoderV2;\r\n\r\nimport \"@balancer-labs/v2-vault/contracts/interfaces/IVault.sol\";\r\n\r\nimport \"@balancer-labs/v2-pool-utils/contracts/factories/BasePoolFactory.sol\";\r\nimport \"@balancer-labs/v2-pool-utils/contracts/factories/FactoryWidePauseWindow.sol\";\r\n\r\nimport \"./PrimaryIssuePool.sol\";\r\nimport \"./interfaces/IPrimaryIssuePoolFactory.sol\";\r\n\r\ncontract PrimaryIssuePoolFactory is BasePoolFactory, FactoryWidePauseWindow {\r\n\r\n    constructor(IVault vault) BasePoolFactory(vault) {\r\n        // solhint-disable-previous-line no-empty-blocks\r\n    }\r\n\r\n    function create(address _security, \r\n                    address _currency, \r\n                    uint256 _minimumPrice,\r\n                    uint256 _basePrice,\r\n                    uint256 _maxAmountsIn,\r\n                    uint256 _issueFeePercentage,\r\n                    uint256 _cutOffTime\r\n                    ) external returns (address){\r\n        \r\n        (uint256 pauseWindowDuration, uint256 bufferPeriodDuration) = getPauseConfiguration();\r\n        \r\n        address pool = address(new PrimaryIssuePool(getVault(),\r\n                                                    _security,\r\n                                                    _currency,\r\n                                                    _minimumPrice,\r\n                                                    _basePrice,\r\n                                                    _maxAmountsIn,\r\n                                                    _issueFeePercentage,\r\n                                                    pauseWindowDuration,\r\n                                                    bufferPeriodDuration,\r\n                                                    _cutOffTime,\r\n                                                    msg.sender\r\n                                                    ));\r\n        _register(pool);\r\n        return pool;\r\n    }\r\n}",
  "sourcePath": "D:\\Code\\verified-liquidity\\balancer\\primary-pool\\contracts\\PrimaryIssuePoolFactory.sol",
  "compiler": {
    "name": "solc",
    "version": "0.7.1+commit.f4a555be.Emscripten.clang"
  },
  "schemaVersion": "3.4.3",
  "updatedAt": "2022-05-28T13:35:15.668Z",
  "networkType": "ethereum",
  "devdoc": {
    "kind": "dev",
    "methods": {
      "getPauseConfiguration()": {
        "details": "Returns the current `TemporarilyPausable` configuration that will be applied to Pools created by this factory. `pauseWindowDuration` will decrease over time until it reaches zero, at which point both it and `bufferPeriodDuration` will be zero forever, meaning deployed Pools will not be pausable."
      },
      "getVault()": {
        "details": "Returns the Vault's address."
      },
      "isPoolFromFactory(address)": {
        "details": "Returns true if `pool` was created by this factory."
      }
    },
    "version": 1
  },
  "userdoc": {
    "kind": "user",
    "methods": {},
    "version": 1
  }
}