{
  "contractName": "Products",
  "abi": [
    {
      "anonymous": false,
      "inputs": [
        {
          "indexed": true,
          "internalType": "address",
          "name": "previousOwner",
          "type": "address"
        },
        {
          "indexed": true,
          "internalType": "address",
          "name": "newOwner",
          "type": "address"
        }
      ],
      "name": "OwnershipTransferred",
      "type": "event"
    },
    {
      "inputs": [],
      "name": "owner",
      "outputs": [
        {
          "internalType": "address",
          "name": "",
          "type": "address"
        }
      ],
      "stateMutability": "view",
      "type": "function",
      "constant": true
    },
    {
      "inputs": [],
      "name": "renounceOwnership",
      "outputs": [],
      "stateMutability": "nonpayable",
      "type": "function"
    },
    {
      "inputs": [
        {
          "internalType": "address",
          "name": "newOwner",
          "type": "address"
        }
      ],
      "name": "transferOwnership",
      "outputs": [],
      "stateMutability": "nonpayable",
      "type": "function"
    },
    {
      "inputs": [
        {
          "internalType": "address",
          "name": "_signer",
          "type": "address"
        }
      ],
      "name": "initialize",
      "outputs": [],
      "stateMutability": "nonpayable",
      "type": "function"
    },
    {
      "inputs": [
        {
          "internalType": "address",
          "name": "_signer",
          "type": "address"
        }
      ],
      "name": "setSigner",
      "outputs": [],
      "stateMutability": "nonpayable",
      "type": "function"
    },
    {
      "inputs": [
        {
          "internalType": "address",
          "name": "_issue",
          "type": "address"
        },
        {
          "internalType": "bytes32",
          "name": "_ref",
          "type": "bytes32"
        },
        {
          "internalType": "bytes32",
          "name": "_hashedMessage",
          "type": "bytes32"
        },
        {
          "internalType": "uint8",
          "name": "_v",
          "type": "uint8"
        },
        {
          "internalType": "bytes32",
          "name": "_r",
          "type": "bytes32"
        },
        {
          "internalType": "bytes32",
          "name": "_s",
          "type": "bytes32"
        }
      ],
      "name": "issueProduct",
      "outputs": [],
      "stateMutability": "nonpayable",
      "type": "function"
    },
    {
      "inputs": [
        {
          "internalType": "address",
          "name": "_issue",
          "type": "address"
        }
      ],
      "name": "checkProduct",
      "outputs": [
        {
          "internalType": "bool",
          "name": "",
          "type": "bool"
        }
      ],
      "stateMutability": "view",
      "type": "function",
      "constant": true
    }
  ],
  "bytecode": "0x608060405234801561001057600080fd5b50600080546001600160a01b0319163390811782556040519091907f8be0079c531659141344cd1fd0a4f28419497f9722a3daafe3b4186f6b6457e0908290a36104b88061005f6000396000f3fe608060405234801561001057600080fd5b506004361061007d5760003560e01c80638da5cb5b1161005b5780638da5cb5b146100ec578063c4d66de8146100bc578063e45f837e14610110578063f2fde38b146101575761007d565b80633ea6c82d146100825780636c19e783146100bc578063715018a6146100e4575b600080fd5b6100a86004803603602081101561009857600080fd5b50356001600160a01b031661017d565b604080519115158252519081900360200190f35b6100e2600480360360208110156100d257600080fd5b50356001600160a01b03166101ac565b005b6100e26101ec565b6100f4610242565b604080516001600160a01b039092168252519081900360200190f35b6100e2600480360360c081101561012657600080fd5b506001600160a01b038135169060208101359060408101359060ff6060820135169060808101359060a00135610251565b6100e26004803603602081101561016d57600080fd5b50356001600160a01b031661039f565b6001600160a01b038116600090815260016020526040812054156101a3575060016101a7565b5060005b919050565b6101ca336101b8610242565b6001600160a01b0316146101aa61041d565b600280546001600160a01b0319166001600160a01b0392909216919091179055565b6101f8336101b8610242565b600080546040516001600160a01b03909116907f8be0079c531659141344cd1fd0a4f28419497f9722a3daafe3b4186f6b6457e0908390a3600080546001600160a01b0319169055565b6000546001600160a01b031690565b60606040518060400160405280601c81526020017f19457468657265756d205369676e6564204d6573736167653a0a3332000000008152509050600081866040516020018083805190602001908083835b602083106102c15780518252601f1990920191602091820191016102a2565b51815160209384036101000a600019018019909216911617905292019384525060408051808503815284830180835281519184019190912060009182905282860180845281905260ff8c166060870152608086018b905260a086018a90529151919650945060019360c08082019450601f19830192918290030190855afa158015610350573d6000803e3d6000fd5b5050604051601f1901516002549092506001600160a01b03808416911614905061037957600080fd5b5050506001600160a01b0390951660009081526001602052604090209390935550505050565b6103ab336101b8610242565b6103c26001600160a01b03821615156101ab61041d565b600080546040516001600160a01b03808516939216917f8be0079c531659141344cd1fd0a4f28419497f9722a3daafe3b4186f6b6457e091a3600080546001600160a01b0319166001600160a01b0392909216919091179055565b8161042b5761042b8161042f565b5050565b62461bcd60e51b6000908152602060045260076024526642414c23000030600a808404818106603090810160081b95839006959095019082900491820690940160101b939093010160c81b604452606490fdfea2646970667358221220eb49422dc4f9d0aeeb221ae959cb0ed324b98c21f3937ed8414b12e8aed4b05a64736f6c63430007010033",
  "immutableReferences": {},
  "source": "// Verified products\r\n// (c) Kallol Borah, Verified Network, 2022\r\n\r\n//\"SPDX-License-Identifier: UNLICENSED\"\r\n\r\npragma solidity ^0.7.1;\r\n\r\nimport \"./interfaces/VerifiedProducts.sol\";\r\nimport '@balancer-labs/v2-solidity-utils/contracts/openzeppelin/Ownable.sol';\r\n\r\ncontract Products is VerifiedProducts, Ownable {\r\n\r\n    //mapping product issued to product reference\r\n    mapping(address => bytes32) private issues;\r\n\r\n    //bridge\r\n    address bridge;\r\n\r\n    function initialize(address _signer) onlyOwner public {\r\n        bridge = _signer;\r\n    }\r\n\r\n    function setSigner(address _signer) onlyOwner override external{\r\n        bridge = _signer;\r\n    } \r\n\r\n    function issueProduct(address _issue, bytes32 _ref, bytes32 _hashedMessage, uint8 _v, bytes32 _r, bytes32 _s) \r\n                            override external {\r\n        bytes memory prefix = \"\\x19Ethereum Signed Message:\\n32\";\r\n        bytes32 prefixedHashMessage = keccak256(abi.encodePacked(prefix, _hashedMessage));\r\n        address signer = ecrecover(prefixedHashMessage, _v, _r, _s);\r\n        require(signer==bridge);\r\n        issues[_issue] = _ref;\r\n    } \r\n\r\n    function checkProduct(address _issue) \r\n                            override external view returns(bool){\r\n        if(issues[_issue]!='')\r\n            return true;\r\n        else\r\n            return false;\r\n    }\r\n\r\n}",
  "sourcePath": "D:\\Code\\verified-quorum\\balancer\\contracts\\Products.sol",
  "compiler": {
    "name": "solc",
    "version": "0.7.1+commit.f4a555be.Emscripten.clang"
  },
  "schemaVersion": "3.4.3",
  "updatedAt": "2022-04-07T04:25:48.742Z",
  "networkType": "ethereum",
  "devdoc": {
    "kind": "dev",
    "methods": {
      "owner()": {
        "details": "Returns the address of the current owner."
      },
      "renounceOwnership()": {
        "details": "Leaves the contract without owner. It will not be possible to call `onlyOwner` functions anymore. Can only be called by the current owner. NOTE: Renouncing ownership will leave the contract without an owner, thereby removing any functionality that is only available to the owner."
      },
      "transferOwnership(address)": {
        "details": "Transfers ownership of the contract to a new account (`newOwner`). Can only be called by the current owner."
      }
    },
    "version": 1
  },
  "userdoc": {
    "kind": "user",
    "methods": {},
    "version": 1
  }
}