{
  "contractName": "SecondaryIssueManager",
  "abi": [
    {
      "anonymous": false,
      "inputs": [
        {
          "indexed": true,
          "internalType": "address",
          "name": "previousOwner",
          "type": "address"
        },
        {
          "indexed": true,
          "internalType": "address",
          "name": "newOwner",
          "type": "address"
        }
      ],
      "name": "OwnershipTransferred",
      "type": "event"
    },
    {
      "anonymous": false,
      "inputs": [
        {
          "indexed": true,
          "internalType": "address",
          "name": "transferor",
          "type": "address"
        },
        {
          "indexed": true,
          "internalType": "address",
          "name": "transferee",
          "type": "address"
        },
        {
          "indexed": false,
          "internalType": "uint256",
          "name": "unitsToTransfer",
          "type": "uint256"
        },
        {
          "indexed": false,
          "internalType": "address",
          "name": "security",
          "type": "address"
        },
        {
          "indexed": false,
          "internalType": "uint256",
          "name": "price",
          "type": "uint256"
        },
        {
          "indexed": false,
          "internalType": "address",
          "name": "currency",
          "type": "address"
        }
      ],
      "name": "tradeSettled",
      "type": "event"
    },
    {
      "inputs": [],
      "name": "factory",
      "outputs": [
        {
          "internalType": "contract ISecondaryIssuePoolFactory",
          "name": "",
          "type": "address"
        }
      ],
      "stateMutability": "view",
      "type": "function",
      "constant": true
    },
    {
      "inputs": [],
      "name": "owner",
      "outputs": [
        {
          "internalType": "address",
          "name": "",
          "type": "address"
        }
      ],
      "stateMutability": "view",
      "type": "function",
      "constant": true
    },
    {
      "inputs": [],
      "name": "renounceOwnership",
      "outputs": [],
      "stateMutability": "nonpayable",
      "type": "function"
    },
    {
      "inputs": [
        {
          "internalType": "address",
          "name": "newOwner",
          "type": "address"
        }
      ],
      "name": "transferOwnership",
      "outputs": [],
      "stateMutability": "nonpayable",
      "type": "function"
    },
    {
      "inputs": [
        {
          "internalType": "address",
          "name": "_factory",
          "type": "address"
        },
        {
          "internalType": "uint256",
          "name": "_issueFeePercentage",
          "type": "uint256"
        }
      ],
      "name": "initialize",
      "outputs": [],
      "stateMutability": "nonpayable",
      "type": "function"
    },
    {
      "inputs": [
        {
          "internalType": "address",
          "name": "security",
          "type": "address"
        },
        {
          "internalType": "address",
          "name": "currency",
          "type": "address"
        },
        {
          "internalType": "uint256",
          "name": "amount",
          "type": "uint256"
        },
        {
          "internalType": "bytes32",
          "name": "id",
          "type": "bytes32"
        }
      ],
      "name": "issueSecondary",
      "outputs": [],
      "stateMutability": "nonpayable",
      "type": "function"
    },
    {
      "inputs": [
        {
          "components": [
            {
              "internalType": "address",
              "name": "transferor",
              "type": "address"
            },
            {
              "internalType": "address",
              "name": "transferee",
              "type": "address"
            },
            {
              "internalType": "address",
              "name": "security",
              "type": "address"
            },
            {
              "internalType": "bytes32",
              "name": "status",
              "type": "bytes32"
            },
            {
              "internalType": "bytes32",
              "name": "transferorDPID",
              "type": "bytes32"
            },
            {
              "internalType": "bytes32",
              "name": "transfereeDPID",
              "type": "bytes32"
            },
            {
              "internalType": "address",
              "name": "currency",
              "type": "address"
            },
            {
              "internalType": "uint256",
              "name": "price",
              "type": "uint256"
            },
            {
              "internalType": "uint256",
              "name": "unitsToTransfer",
              "type": "uint256"
            },
            {
              "internalType": "uint256",
              "name": "consideration",
              "type": "uint256"
            },
            {
              "internalType": "uint256",
              "name": "executionDate",
              "type": "uint256"
            },
            {
              "internalType": "address",
              "name": "orderPool",
              "type": "address"
            },
            {
              "internalType": "bytes32",
              "name": "partyRef",
              "type": "bytes32"
            },
            {
              "internalType": "bytes32",
              "name": "counterpartyRef",
              "type": "bytes32"
            }
          ],
          "internalType": "struct ISettlor.settlement",
          "name": "newTrade",
          "type": "tuple"
        },
        {
          "internalType": "bytes32",
          "name": "ref",
          "type": "bytes32"
        }
      ],
      "name": "postSettlement",
      "outputs": [],
      "stateMutability": "nonpayable",
      "type": "function"
    },
    {
      "inputs": [
        {
          "internalType": "bytes32",
          "name": "dpid",
          "type": "bytes32"
        }
      ],
      "name": "getSettlementRequests",
      "outputs": [
        {
          "internalType": "bytes32[]",
          "name": "",
          "type": "bytes32[]"
        }
      ],
      "stateMutability": "view",
      "type": "function",
      "constant": true
    },
    {
      "inputs": [
        {
          "internalType": "bytes32",
          "name": "ref",
          "type": "bytes32"
        }
      ],
      "name": "getSettlementRequest",
      "outputs": [
        {
          "components": [
            {
              "internalType": "address",
              "name": "transferor",
              "type": "address"
            },
            {
              "internalType": "address",
              "name": "transferee",
              "type": "address"
            },
            {
              "internalType": "address",
              "name": "security",
              "type": "address"
            },
            {
              "internalType": "bytes32",
              "name": "status",
              "type": "bytes32"
            },
            {
              "internalType": "bytes32",
              "name": "transferorDPID",
              "type": "bytes32"
            },
            {
              "internalType": "bytes32",
              "name": "transfereeDPID",
              "type": "bytes32"
            },
            {
              "internalType": "address",
              "name": "currency",
              "type": "address"
            },
            {
              "internalType": "uint256",
              "name": "price",
              "type": "uint256"
            },
            {
              "internalType": "uint256",
              "name": "unitsToTransfer",
              "type": "uint256"
            },
            {
              "internalType": "uint256",
              "name": "consideration",
              "type": "uint256"
            },
            {
              "internalType": "uint256",
              "name": "executionDate",
              "type": "uint256"
            },
            {
              "internalType": "address",
              "name": "orderPool",
              "type": "address"
            },
            {
              "internalType": "bytes32",
              "name": "partyRef",
              "type": "bytes32"
            },
            {
              "internalType": "bytes32",
              "name": "counterpartyRef",
              "type": "bytes32"
            }
          ],
          "internalType": "struct ISettlor.settlement",
          "name": "",
          "type": "tuple"
        }
      ],
      "stateMutability": "view",
      "type": "function",
      "constant": true
    },
    {
      "inputs": [
        {
          "internalType": "bytes32",
          "name": "ref",
          "type": "bytes32"
        },
        {
          "internalType": "bytes32",
          "name": "status",
          "type": "bytes32"
        },
        {
          "internalType": "bytes32",
          "name": "id",
          "type": "bytes32"
        }
      ],
      "name": "setSettlementStatus",
      "outputs": [],
      "stateMutability": "nonpayable",
      "type": "function"
    },
    {
      "inputs": [
        {
          "internalType": "address",
          "name": "party",
          "type": "address"
        }
      ],
      "name": "getTransferAgent",
      "outputs": [
        {
          "internalType": "bytes32",
          "name": "",
          "type": "bytes32"
        }
      ],
      "stateMutability": "view",
      "type": "function",
      "constant": true
    }
  ],
  "bytecode": "0x6080604052600060025534801561001557600080fd5b50600080546001600160a01b0319163390811782556040519091907f8be0079c531659141344cd1fd0a4f28419497f9722a3daafe3b4186f6b6457e0908290a3611427806100646000396000f3fe608060405234801561001057600080fd5b50600436106100a95760003560e01c80638da5cb5b116100715780638da5cb5b14610134578063a5ab906c14610149578063bfc624321461015c578063c45a01551461016f578063cd6dc68714610177578063f2fde38b1461018a576100a9565b8063055f5540146100ae5780631459945d146100d75780632ac53ebd146100ec578063715018a61461010c57806379a7dc0e14610114575b600080fd5b6100c16100bc366004610f7d565b61019d565b6040516100ce9190611208565b60405180910390f35b6100ea6100e5366004611123565b6101c5565b005b6100ff6100fa366004611045565b61036c565b6040516100ce91906111c4565b6100ea6103ce565b610127610122366004611045565b610436565b6040516100ce91906112be565b61013c610515565b6040516100ce919061118c565b6100ea610157366004610fb5565b610524565b6100ea61016a36600461105d565b6106d9565b61013c610dba565b6100ea610185366004610ffa565b610dc9565b6100ea610198366004610f7d565b610dfb565b3360009081526004602090815260408083206001600160a01b03949094168352929052205490565b608082013560009081526005602090815260408083208054600181810183559185528385200185905560a086013584529083208054918201815583529181902090910182905561021790830183610f7d565b60008281526003602090815260409182902080546001600160a01b0319166001600160a01b03949094169390931790925561025791908401908401610f7d565b6000828152600360205260409081902060010180546001600160a01b0319166001600160a01b0393909316929092179091556102999060608401908401610f7d565b60008281526003602052604090206002810180546001600160a01b0319166001600160a01b039390931692909217909155610120830135600982015560e0830180356007909201919091556102f19060c08401610f7d565b60009182526003602081905260409092206006810180546001600160a01b03939093166001600160a01b03199384161790556101008401356008820155610140840135600a820155606084013592810192909255600b8201805490911633179055610180820135600c8201556101a090910135600d90910155565b6000818152600560209081526040918290208054835181840281018401909452808452606093928301828280156103c257602002820191906000526020600020905b8154815260200190600101908083116103ae575b50505050509050919050565b6103ec336103da610515565b6001600160a01b0316146101aa610e79565b600080546040516001600160a01b03909116907f8be0079c531659141344cd1fd0a4f28419497f9722a3daafe3b4186f6b6457e0908390a3600080546001600160a01b0319169055565b61043e610f09565b8161044857600080fd5b610450610f09565b5050604080516101c08101825260008381526003602081815284832080546001600160a01b0390811686526001820154811683870152600282015481169686019690965280830154606086015260048101546080860152600581015460a08601526006810154861660c0860152600781015460e086015260088101546101008601526009810154610120860152600a810154610140860152600b810154909516610160850152600c85015461018085015294909152909252600d01546101a082015290565b6000546001600160a01b031690565b6000600160009054906101000a90046001600160a01b03166001600160a01b03166374dcc7a4866001600160a01b03166306fdde036040518163ffffffff1660e01b815260040160006040518083038186803b15801561058357600080fd5b505afa158015610597573d6000803e3d6000fd5b505050506040513d6000823e601f3d908101601f191682016040526105bf9190810190611088565b876001600160a01b03166395d89b416040518163ffffffff1660e01b815260040160006040518083038186803b1580156105f857600080fd5b505afa15801561060c573d6000803e3d6000fd5b505050506040513d6000823e601f3d908101601f191682016040526106349190810190611088565b8888886002546040518763ffffffff1660e01b815260040161065b9695949392919061126a565b602060405180830381600087803b15801561067557600080fd5b505af1158015610689573d6000803e3d6000fd5b505050506040513d601f19601f820116820180604052508101906106ad9190610f99565b6001600160a01b0316600090815260046020908152604080832033845290915290209190915550505050565b8166436f6e6669726d60c81b14806106f95750816514995a9958dd60d21b145b61070257600080fd5b600083815260036020819052604082200183905566436f6e6669726d60c81b831415610ca8576000848152600360205260408120600781015460089091015461074b9190610e8b565b6000868152600360205260409081902060068101546001820154915492516323b872dd60e01b81529394506001600160a01b03908116936323b872dd9361079b93831692169086906004016111a0565b602060405180830381600087803b1580156107b557600080fd5b505af11580156107c9573d6000803e3d6000fd5b505050506040513d601f19601f820116820180604052508101906107ed9190611025565b15610ca2576000858152600360205260409081902060028101548154600183015460089093015493516323b872dd60e01b81526001600160a01b03928316946323b872dd94610844949384169316916004016111a0565b602060405180830381600087803b15801561085e57600080fd5b505af1158015610872573d6000803e3d6000fd5b505050506040513d601f19601f820116820180604052508101906108969190611025565b91508115610b065760008581526003602052604090819020600b810154600c820154600d9092015492516309e722a360e11b81526001600160a01b03909116926313ce4546926108eb92909190600401611211565b600060405180830381600087803b15801561090557600080fd5b505af1158015610919573d6000803e3d6000fd5b50505060008681526003602052604090819020600b810154600c820154600d9092015492516382fce88f60e01b81526001600160a01b0390911693506382fce88f9261096c928a9290919060040161121f565b600060405180830381600087803b15801561098657600080fd5b505af115801561099a573d6000803e3d6000fd5b505050600086815260036020526040908190206001810154815460088301546002840154600785015460069095015495516001600160a01b039485169750928416957fdb2a2159f49495b71579b052eff497e50c97deeb73b10e7e46de4f669dcb58f795610a12959394928416939092911690611386565b60405180910390a360005b600084815260056020526040902054811015610b00576000848152600560205260409020805487919083908110610a5057fe5b90600052602060002001541415610af85760008481526005602052604090205460001901811415610aa5576000848152600560205260409020805482908110610a9557fe5b6000918252602082200155610af8565b6000848152600560205260409020805460018301908110610ac257fe5b9060005260206000200154600560008681526020019081526020016000208281548110610aeb57fe5b6000918252602090912001555b600101610a1d565b50610ca2565b60008581526003602052604090819020600b810154600c8201546008909201549251623e080960e71b81526001600160a01b0390911692631f04048092610b5292909190600401611235565b600060405180830381600087803b158015610b6c57600080fd5b505af1158015610b80573d6000803e3d6000fd5b50505060008681526003602052604090819020600b810154600d8201546008909201549251623e080960e71b81526001600160a01b039091169350631f04048092610bce9291600401611250565b600060405180830381600087803b158015610be857600080fd5b505af1158015610bfc573d6000803e3d6000fd5b505050600086815260036020526040908190206006810154815460019092015492516323b872dd60e01b81526001600160a01b0391821694506323b872dd93610c4e93831692169086906004016111a0565b602060405180830381600087803b158015610c6857600080fd5b505af1158015610c7c573d6000803e3d6000fd5b505050506040513d601f19601f82011682018060405250810190610ca09190611025565b505b50610db4565b826514995a9958dd60d21b1415610db45760008481526003602052604090819020600b810154600c8201546008909201549251623e080960e71b81526001600160a01b0390911692631f04048092610d0592909190600401611235565b600060405180830381600087803b158015610d1f57600080fd5b505af1158015610d33573d6000803e3d6000fd5b50505060008581526003602052604090819020600b810154600d8201546008909201549251623e080960e71b81526001600160a01b039091169350631f04048092610d819291600401611250565b600060405180830381600087803b158015610d9b57600080fd5b505af1158015610daf573d6000803e3d6000fd5b505050505b50505050565b6001546001600160a01b031681565b610dd5336103da610515565b600180546001600160a01b0319166001600160a01b039390931692909217909155600255565b610e07336103da610515565b610e1e6001600160a01b03821615156101ab610e79565b600080546040516001600160a01b03808516939216917f8be0079c531659141344cd1fd0a4f28419497f9722a3daafe3b4186f6b6457e091a3600080546001600160a01b0319166001600160a01b0392909216919091179055565b81610e8757610e8781610eb6565b5050565b6000828202610eaf841580610ea8575083858381610ea557fe5b04145b6003610e79565b9392505050565b62461bcd60e51b6000908152602060045260076024526642414c23000030600a808404818106603090810160081b95839006959095019082900491820690940160101b939093010160c81b604452606490fd5b604080516101c081018252600080825260208201819052918101829052606081018290526080810182905260a0810182905260c0810182905260e08101829052610100810182905261012081018290526101408101829052610160810182905261018081018290526101a081019190915290565b600060208284031215610f8e578081fd5b8135610eaf816113d9565b600060208284031215610faa578081fd5b8151610eaf816113d9565b60008060008060808587031215610fca578283fd5b8435610fd5816113d9565b93506020850135610fe5816113d9565b93969395505050506040820135916060013590565b6000806040838503121561100c578182fd5b8235611017816113d9565b946020939093013593505050565b600060208284031215611036578081fd5b81518015158114610eaf578182fd5b600060208284031215611056578081fd5b5035919050565b600080600060608486031215611071578283fd5b505081359360208301359350604090920135919050565b600060208284031215611099578081fd5b815167ffffffffffffffff808211156110b0578283fd5b818401915084601f8301126110c3578283fd5b8151818111156110d1578384fd5b604051601f8201601f1916810160200183811182821017156110f1578586fd5b604052818152838201602001871015611108578485fd5b6111198260208301602087016113ad565b9695505050505050565b6000808284036101e0811215611137578283fd5b6101c080821215611146578384fd5b9395938601359450505050565b6001600160a01b03169052565b600081518084526111788160208601602086016113ad565b601f01601f19169290920160200192915050565b6001600160a01b0391909116815260200190565b6001600160a01b039384168152919092166020820152604081019190915260600190565b6020808252825182820181905260009190848201906040850190845b818110156111fc578351835292840192918401916001016111e0565b50909695505050505050565b90815260200190565b918252602082015260400190565b9283526020830191909152604082015260600190565b91825260208201526314d95b1b60e21b604082015260600190565b91825260208201526242757960e81b604082015260600190565b600060c0825261127d60c0830189611160565b828103602084015261128f8189611160565b6001600160a01b03978816604085015295909616606083015250608081019290925260a0909101529392505050565b60006101c0820190506112d2828451611153565b60208301516112e46020840182611153565b5060408301516112f76040840182611153565b50606083015160608301526080830151608083015260a083015160a083015260c083015161132860c0840182611153565b5060e083810151908301526101008084015190830152610120808401519083015261014080840151908301526101608084015161136782850182611153565b505061018083810151908301526101a092830151929091019190915290565b9384526001600160a01b039283166020850152604084019190915216606082015260800190565b60005b838110156113c85781810151838201526020016113b0565b83811115610db45750506000910152565b6001600160a01b03811681146113ee57600080fd5b5056fea2646970667358221220829e65d1f67533d384af1fc049cbd45575a57ad9322fa773cb3c983f5ed58d0464736f6c63430007010033",
  "immutableReferences": {},
  "source": "// External interface for settlement of trades\n// (c) Kallol Borah, 2022\n//\"SPDX-License-Identifier: BUSL1.1\"\n\npragma solidity 0.7.1;\npragma experimental ABIEncoderV2;\n\nimport \"./interfaces/ISettlor.sol\";\nimport \"./interfaces/IOrder.sol\";\nimport \"./interfaces/ITrade.sol\";\nimport \"./interfaces/ISecondaryIssuePoolFactory.sol\";\n\nimport \"@balancer-labs/v2-solidity-utils/contracts/math/Math.sol\";\nimport \"@balancer-labs/v2-solidity-utils/contracts/openzeppelin/ERC20.sol\";\nimport \"@balancer-labs/v2-solidity-utils/contracts/openzeppelin/IERC20.sol\";\nimport \"@balancer-labs/v2-solidity-utils/contracts/openzeppelin/Ownable.sol\";\n \ncontract SecondaryIssueManager is ISettlor, Ownable {\n\n    using Math for uint256;\n\n    // balancer variables\n    ISecondaryIssuePoolFactory public factory;\n    uint256 fee=0;\n\n    // mapping settlement ref to trade execution data\n    mapping(bytes32 => ISettlor.settlement) settlements;\n\n    // mapping pool id to issuer address to asset ref\n    mapping(address => mapping(address => bytes32)) private issuers;\n\n    //mapping depository participants to trades they are part of\n    mapping(bytes32 => bytes32[]) private trades;\n\n    event tradeSettled(address indexed transferor,\n                        address indexed transferee,\n                        uint256 unitsToTransfer,\n                        address security,\n                        uint256 price,\n                        address currency\n                    );\n\n    /**\n        Initializes this asset management contract\n        @param  _factory            reference to the secondary issue pool factory contract\n        @param  _issueFeePercentage  percentage of trading fee to be charged by the asset manager\n     */\n    function initialize(address _factory, uint256 _issueFeePercentage) onlyOwner public {\n        factory = ISecondaryIssuePoolFactory(_factory);\n        fee = _issueFeePercentage;\n    }\n\n    /**\n        Issues existing (secondary) tokenized assets into pool\n        @param  security    reference to asset issued\n        @param  currency    reference to cash (settlement) token\n        @param  amount      amount of asset issued in pool\n        @param  id          identifier for asset issued\n     */\n    function issueSecondary(address security, address currency, uint256 amount, bytes32 id) override external {\n        address pool = factory.create(\n            ERC20(security).name(),\n            ERC20(security).symbol(),\n            security,\n            currency,\n            amount,\n            fee\n        );\n        issuers[pool][msg.sender] = id;\n    }\n\n    /**\n        Posts trades matched in pool\n        @param  newTrade    data structure with trade execution data\n        @param  ref         reference to the asset traded\n     */\n    function postSettlement(ISettlor.settlement calldata newTrade, bytes32 ref) override external {\n        trades[newTrade.transferorDPID].push(ref);\n        trades[newTrade.transfereeDPID].push(ref);\n        settlements[ref].transferor = newTrade.transferor;\n        settlements[ref].transferee = newTrade.transferee;\n        settlements[ref].security = newTrade.security;\n        settlements[ref].consideration = newTrade.consideration;\n        settlements[ref].price = newTrade.price;\n        settlements[ref].currency = newTrade.currency;\n        settlements[ref].unitsToTransfer = newTrade.unitsToTransfer;\n        settlements[ref].executionDate = newTrade.executionDate;\n        settlements[ref].status = newTrade.status;\n        settlements[ref].orderPool = msg.sender;\n        settlements[ref].partyRef = newTrade.partyRef;\n        settlements[ref].counterpartyRef = newTrade.counterpartyRef;\n    }\n\n    /**\n        Fetches trade settlement requests for depository participant\n        @param  dpid         identifier of depository participant (eg, transfer agent) that is authorized to settle the asset \n     */\n    function getSettlementRequests(bytes32 dpid) override external view returns(bytes32[] memory){\n        return trades[dpid];\n    }\n\n    /**\n        Fetches a specific trade settlement request        \n        @param  ref         reference to the trade\n     */\n    function getSettlementRequest(bytes32 ref) override external view returns(settlement memory){\n        require(ref!=\"\"); \n        ISettlor.settlement memory response = ISettlor.settlement({\n            transferor : settlements[ref].transferor,\n            transferee : settlements[ref].transferee,\n            security : settlements[ref].security,\n            status : settlements[ref].status,\n            transferorDPID : settlements[ref].transferorDPID,\n            transfereeDPID : settlements[ref].transfereeDPID,\n            currency : settlements[ref].currency,\n            price : settlements[ref].price,\n            consideration : settlements[ref].consideration,\n            unitsToTransfer : settlements[ref].unitsToTransfer,\n            executionDate : settlements[ref].executionDate,\n            orderPool : settlements[ref].orderPool,\n            partyRef : settlements[ref].partyRef,\n            counterpartyRef : settlements[ref].counterpartyRef\n        });\n        return response;                                                              \n    }\n    \n    /**\n        Sets settlement status for trades executed\n        @param  ref         reference to the trade executed\n        @param  status      settlement status\n        @param  id          identifier of asset traded\n     */\n    function setSettlementStatus(bytes32 ref, bytes32 status, bytes32 id) override external{\n        require(status==\"Confirm\" || status==\"Reject\");\n        settlements[ref].status = status;\n        bool success;\n        if(status==\"Confirm\"){\n            uint256 pay = Math.mul(settlements[ref].price, settlements[ref].unitsToTransfer);\n            if(IERC20(settlements[ref].currency).transferFrom(settlements[ref].transferee, settlements[ref].transferor, pay)){                \n                success = IERC20(settlements[ref].security).transferFrom(settlements[ref].transferor, \n                                                                settlements[ref].transferee, \n                                                                settlements[ref].unitsToTransfer);\n                if(success){\n                    IOrder(settlements[ref].orderPool).orderFilled(settlements[ref].partyRef, settlements[ref].counterpartyRef);\n                    ITrade(settlements[ref].orderPool).tradeSettled(ref, settlements[ref].partyRef, settlements[ref].counterpartyRef);\n                    emit tradeSettled(settlements[ref].transferor, \n                                        settlements[ref].transferee, \n                                        settlements[ref].unitsToTransfer,\n                                        settlements[ref].security,\n                                        settlements[ref].price,\n                                        settlements[ref].currency\n                                    );\n                    for(uint i=0; i<trades[id].length; i++){\n                        if(trades[id][i]==ref){\n                            if(i==trades[id].length-1)\n                                delete trades[id][i];\n                            else\n                                trades[id][i] = trades[id][i+1];\n                        }\n                    }\n                }\n                else{\n                    IOrder(settlements[ref].orderPool).revertTrade(settlements[ref].partyRef, settlements[ref].unitsToTransfer, \"Sell\");\n                    IOrder(settlements[ref].orderPool).revertTrade(settlements[ref].counterpartyRef, settlements[ref].unitsToTransfer, \"Buy\");\n                    IERC20(settlements[ref].currency).transferFrom(settlements[ref].transferor, settlements[ref].transferee, pay);\n                }\n            }\n        }\n        else if(status==\"Reject\"){\n            IOrder(settlements[ref].orderPool).revertTrade(settlements[ref].partyRef, settlements[ref].unitsToTransfer, \"Sell\");\n            IOrder(settlements[ref].orderPool).revertTrade(settlements[ref].counterpartyRef, settlements[ref].unitsToTransfer, \"Buy\");\n        }            \n    }\n\n    /**\n        Gets transfer agent for any of the parties in the trade\n        @param  party         reference to the party or counterparty in a trade\n     */\n    function getTransferAgent(address party) override external view returns(bytes32){\n        return(issuers[msg.sender][party]);\n    }\n\n}",
  "sourcePath": "D:\\Code\\verified-quorum\\balancer\\contracts\\SecondaryIssueManager.sol",
  "compiler": {
    "name": "solc",
    "version": "0.7.1+commit.f4a555be.Emscripten.clang"
  },
  "schemaVersion": "3.4.3",
  "updatedAt": "2022-07-11T06:49:55.146Z",
  "networkType": "ethereum",
  "devdoc": {
    "kind": "dev",
    "methods": {
      "getSettlementRequest(bytes32)": {
        "params": {
          "ref": "reference to the trade"
        }
      },
      "getSettlementRequests(bytes32)": {
        "params": {
          "dpid": "identifier of depository participant (eg, transfer agent) that is authorized to settle the asset "
        }
      },
      "getTransferAgent(address)": {
        "params": {
          "party": "reference to the party or counterparty in a trade"
        }
      },
      "initialize(address,uint256)": {
        "params": {
          "_factory": "reference to the secondary issue pool factory contract",
          "_issueFeePercentage": "percentage of trading fee to be charged by the asset manager"
        }
      },
      "issueSecondary(address,address,uint256,bytes32)": {
        "params": {
          "amount": "amount of asset issued in pool",
          "currency": "reference to cash (settlement) token",
          "id": "identifier for asset issued",
          "security": "reference to asset issued"
        }
      },
      "owner()": {
        "details": "Returns the address of the current owner."
      },
      "postSettlement((address,address,address,bytes32,bytes32,bytes32,address,uint256,uint256,uint256,uint256,address,bytes32,bytes32),bytes32)": {
        "params": {
          "newTrade": "data structure with trade execution data",
          "ref": "reference to the asset traded"
        }
      },
      "renounceOwnership()": {
        "details": "Leaves the contract without owner. It will not be possible to call `onlyOwner` functions anymore. Can only be called by the current owner. NOTE: Renouncing ownership will leave the contract without an owner, thereby removing any functionality that is only available to the owner."
      },
      "setSettlementStatus(bytes32,bytes32,bytes32)": {
        "params": {
          "id": "identifier of asset traded",
          "ref": "reference to the trade executed",
          "status": "settlement status"
        }
      },
      "transferOwnership(address)": {
        "details": "Transfers ownership of the contract to a new account (`newOwner`). Can only be called by the current owner."
      }
    },
    "version": 1
  },
  "userdoc": {
    "kind": "user",
    "methods": {
      "getSettlementRequest(bytes32)": {
        "notice": "Fetches a specific trade settlement request        "
      },
      "getSettlementRequests(bytes32)": {
        "notice": "Fetches trade settlement requests for depository participant"
      },
      "getTransferAgent(address)": {
        "notice": "Gets transfer agent for any of the parties in the trade"
      },
      "initialize(address,uint256)": {
        "notice": "Initializes this asset management contract"
      },
      "issueSecondary(address,address,uint256,bytes32)": {
        "notice": "Issues existing (secondary) tokenized assets into pool"
      },
      "postSettlement((address,address,address,bytes32,bytes32,bytes32,address,uint256,uint256,uint256,uint256,address,bytes32,bytes32),bytes32)": {
        "notice": "Posts trades matched in pool"
      },
      "setSettlementStatus(bytes32,bytes32,bytes32)": {
        "notice": "Sets settlement status for trades executed"
      }
    },
    "version": 1
  }
}