{
  "contractName": "Distribution",
  "abi": [
    {
      "inputs": [
        {
          "internalType": "uint256",
          "name": "_business",
          "type": "uint256"
        },
        {
          "internalType": "uint256",
          "name": "_royalty",
          "type": "uint256"
        },
        {
          "internalType": "uint256",
          "name": "_investor",
          "type": "uint256"
        },
        {
          "internalType": "uint256",
          "name": "_operator",
          "type": "uint256"
        }
      ],
      "stateMutability": "nonpayable",
      "type": "constructor"
    },
    {
      "anonymous": false,
      "inputs": [
        {
          "indexed": true,
          "internalType": "address",
          "name": "previousOwner",
          "type": "address"
        },
        {
          "indexed": true,
          "internalType": "address",
          "name": "newOwner",
          "type": "address"
        }
      ],
      "name": "OwnershipTransferred",
      "type": "event"
    },
    {
      "anonymous": false,
      "inputs": [
        {
          "indexed": false,
          "internalType": "address",
          "name": "account",
          "type": "address"
        }
      ],
      "name": "Paused",
      "type": "event"
    },
    {
      "anonymous": false,
      "inputs": [
        {
          "indexed": false,
          "internalType": "bytes32",
          "name": "shareholderType",
          "type": "bytes32"
        },
        {
          "indexed": true,
          "internalType": "address",
          "name": "shareholder",
          "type": "address"
        },
        {
          "indexed": false,
          "internalType": "address",
          "name": "token",
          "type": "address"
        },
        {
          "indexed": false,
          "internalType": "uint256",
          "name": "amount",
          "type": "uint256"
        },
        {
          "indexed": false,
          "internalType": "uint256",
          "name": "timestamp",
          "type": "uint256"
        }
      ],
      "name": "RevenueShare",
      "type": "event"
    },
    {
      "anonymous": false,
      "inputs": [
        {
          "indexed": false,
          "internalType": "address",
          "name": "account",
          "type": "address"
        }
      ],
      "name": "Unpaused",
      "type": "event"
    },
    {
      "anonymous": false,
      "inputs": [
        {
          "indexed": false,
          "internalType": "uint256",
          "name": "fees",
          "type": "uint256"
        },
        {
          "indexed": false,
          "internalType": "uint256",
          "name": "business",
          "type": "uint256"
        },
        {
          "indexed": false,
          "internalType": "uint256",
          "name": "operator",
          "type": "uint256"
        },
        {
          "indexed": false,
          "internalType": "uint256",
          "name": "founder",
          "type": "uint256"
        },
        {
          "indexed": false,
          "internalType": "uint256",
          "name": "investor",
          "type": "uint256"
        }
      ],
      "name": "distributionFee",
      "type": "event"
    },
    {
      "inputs": [],
      "name": "owner",
      "outputs": [
        {
          "internalType": "address",
          "name": "",
          "type": "address"
        }
      ],
      "stateMutability": "view",
      "type": "function",
      "constant": true
    },
    {
      "inputs": [],
      "name": "paused",
      "outputs": [
        {
          "internalType": "bool",
          "name": "",
          "type": "bool"
        }
      ],
      "stateMutability": "view",
      "type": "function",
      "constant": true
    },
    {
      "inputs": [],
      "name": "renounceOwnership",
      "outputs": [],
      "stateMutability": "nonpayable",
      "type": "function"
    },
    {
      "inputs": [
        {
          "internalType": "address",
          "name": "newOwner",
          "type": "address"
        }
      ],
      "name": "transferOwnership",
      "outputs": [],
      "stateMutability": "nonpayable",
      "type": "function"
    },
    {
      "inputs": [],
      "name": "getRevenueShares",
      "outputs": [
        {
          "internalType": "uint256",
          "name": "",
          "type": "uint256"
        },
        {
          "internalType": "uint256",
          "name": "",
          "type": "uint256"
        },
        {
          "internalType": "uint256",
          "name": "",
          "type": "uint256"
        },
        {
          "internalType": "uint256",
          "name": "",
          "type": "uint256"
        }
      ],
      "stateMutability": "view",
      "type": "function",
      "constant": true
    },
    {
      "inputs": [
        {
          "internalType": "address",
          "name": "_viaFactory",
          "type": "address"
        },
        {
          "internalType": "address",
          "name": "_founder",
          "type": "address"
        },
        {
          "internalType": "address",
          "name": "_treasury",
          "type": "address"
        },
        {
          "internalType": "address",
          "name": "_liquidity",
          "type": "address"
        }
      ],
      "name": "initialize",
      "outputs": [],
      "stateMutability": "nonpayable",
      "type": "function"
    },
    {
      "inputs": [
        {
          "internalType": "bytes32",
          "name": "_type",
          "type": "bytes32"
        },
        {
          "internalType": "address",
          "name": "_shareholder",
          "type": "address"
        },
        {
          "internalType": "address",
          "name": "_currency",
          "type": "address"
        }
      ],
      "name": "addRevenueShareholder",
      "outputs": [],
      "stateMutability": "nonpayable",
      "type": "function"
    },
    {
      "inputs": [
        {
          "internalType": "bytes32",
          "name": "_type",
          "type": "bytes32"
        },
        {
          "internalType": "address",
          "name": "_currency",
          "type": "address"
        }
      ],
      "name": "getRevenueShareholders",
      "outputs": [
        {
          "internalType": "address[]",
          "name": "shareholders",
          "type": "address[]"
        }
      ],
      "stateMutability": "view",
      "type": "function",
      "constant": true
    },
    {
      "inputs": [
        {
          "internalType": "bytes32",
          "name": "_currency",
          "type": "bytes32"
        }
      ],
      "name": "getPaymentFeeCollected",
      "outputs": [
        {
          "internalType": "uint256",
          "name": "",
          "type": "uint256"
        }
      ],
      "stateMutability": "view",
      "type": "function",
      "constant": true
    },
    {
      "inputs": [
        {
          "internalType": "bytes32",
          "name": "_currency",
          "type": "bytes32"
        }
      ],
      "name": "getLoanFeeCollected",
      "outputs": [
        {
          "internalType": "uint256",
          "name": "",
          "type": "uint256"
        }
      ],
      "stateMutability": "view",
      "type": "function",
      "constant": true
    },
    {
      "inputs": [
        {
          "internalType": "address",
          "name": "_platform",
          "type": "address"
        },
        {
          "internalType": "address",
          "name": "_token",
          "type": "address"
        }
      ],
      "name": "getIssuingFeeCollected",
      "outputs": [
        {
          "internalType": "uint256",
          "name": "",
          "type": "uint256"
        }
      ],
      "stateMutability": "nonpayable",
      "type": "function"
    },
    {
      "inputs": [
        {
          "internalType": "address",
          "name": "_platform",
          "type": "address"
        },
        {
          "internalType": "address",
          "name": "_token",
          "type": "address"
        }
      ],
      "name": "getTradingFeeCollected",
      "outputs": [
        {
          "internalType": "uint256",
          "name": "",
          "type": "uint256"
        }
      ],
      "stateMutability": "nonpayable",
      "type": "function"
    },
    {
      "inputs": [],
      "name": "shareCollection",
      "outputs": [],
      "stateMutability": "nonpayable",
      "type": "function"
    },
    {
      "inputs": [],
      "name": "shareFee",
      "outputs": [],
      "stateMutability": "nonpayable",
      "type": "function"
    }
  ],
  "bytecode": "0x6101006040523480156200001257600080fd5b506040516200254e3803806200254e8339810160408190526200003591620000c2565b62000049620000436200006e565b62000072565b6000805460ff60a01b1916905560809390935260a09190915260c05260e052620000f8565b3390565b600080546001600160a01b038381166001600160a01b0319831681178455604051919092169283917f8be0079c531659141344cd1fd0a4f28419497f9722a3daafe3b4186f6b6457e09190a35050565b60008060008060808587031215620000d8578384fd5b505082516020840151604085015160609095015191969095509092509050565b60805160a05160c05160e0516124006200014e600039600081816107190152610f780152600081816106f80152610fec0152600081816106d70152610fb20152600081816106b60152610f3901526124006000f3fe608060405234801561001057600080fd5b50600436106100ea5760003560e01c80637d8e98311161008c578063e081d92f11610066578063e081d92f146101b8578063f2fde38b146101d8578063f8c8765e146101eb578063ff43df4e146101fe576100ea565b80637d8e9831146101835780638da5cb5b1461019b578063b069bbbb146101b0576100ea565b806350ed5a0b116100c857806350ed5a0b146101405780635c975abb14610153578063715018a6146101685780637507f8d014610170576100ea565b80630ab36de2146100ef5780633d66d8a8146101045780634fb0b3041461012d575b600080fd5b6101026100fd366004611ea7565b610206565b005b610117610112366004611e6b565b610350565b6040516101249190612173565b60405180910390f35b61011761013b366004611e6b565b6104b2565b61011761014e366004611c52565b610524565b61015b6105ec565b6040516101249190611fbe565b6101026105fc565b61011761017e366004611c52565b610647565b61018b6106b4565b604051610124949392919061217c565b6101a361073e565b6040516101249190611f44565b61010261074d565b6101cb6101c6366004611e83565b610a96565b6040516101249190611f71565b6101026101e6366004611c13565b610be3565b6101026101f9366004611c8a565b610c54565b610102610cf0565b61020e610ec4565b6001600160a01b031661021f61073e565b6001600160a01b03161461024e5760405162461bcd60e51b8152600401610245906120da565b60405180910390fd5b8267427573696e65737360c01b14156102cf576001600160a01b0382166000908152600460205260409020546102ca576001600160a01b03818116600090815260036020908152604080832080546001810182558185528385200180546001600160a01b03191695881695861790555493835260049091529020555b61034b565b826727b832b930ba37b960c11b141561034b576001600160a01b03821660009081526006602052604090205461034b576001600160a01b03818116600090815260056020908152604080832080546001810182558185528385200180546001600160a01b03191695881695861790555493835260069091529020555b505050565b600061035a610ec4565b6001600160a01b031661036b61073e565b6001600160a01b0316146103915760405162461bcd60e51b8152600401610245906120da565b600154604051632ea7791760e01b81526000916001600160a01b031690632ea77917906103c290869060040161202a565b60206040518083038186803b1580156103da57600080fd5b505afa1580156103ee573d6000803e3d6000fd5b505050506040513d601f19601f820116820180604052508101906104129190611c36565b90506001600160a01b038116156104a7576040516370a0823160e01b81526001600160a01b038216906370a082319061044f903090600401611f44565b60206040518083038186803b15801561046757600080fd5b505afa15801561047b573d6000803e3d6000fd5b505050506040513d601f19601f8201168201806040525081019061049f9190611f0b565b9150506104ad565b60009150505b919050565b60006104bc610ec4565b6001600160a01b03166104cd61073e565b6001600160a01b0316146104f35760405162461bcd60e51b8152600401610245906120da565b600154604051632ea7791760e01b81526000916001600160a01b031690632ea77917906103c290869060040161200f565b600061052e610ec4565b6001600160a01b031661053f61073e565b6001600160a01b0316146105655760405162461bcd60e51b8152600401610245906120da565b604051635bccd17760e01b81526001600160a01b03841690635bccd17790610591908590600401611f44565b602060405180830381600087803b1580156105ab57600080fd5b505af11580156105bf573d6000803e3d6000fd5b505050506040513d601f19601f820116820180604052508101906105e39190611f0b565b90505b92915050565b600054600160a01b900460ff1690565b610604610ec4565b6001600160a01b031661061561073e565b6001600160a01b03161461063b5760405162461bcd60e51b8152600401610245906120da565b6106456000610ec8565b565b6000610651610ec4565b6001600160a01b031661066261073e565b6001600160a01b0316146106885760405162461bcd60e51b8152600401610245906120da565b6040516316c8b3a360e11b81526001600160a01b03841690632d91674690610591908590600401611f44565b7f00000000000000000000000000000000000000000000000000000000000000007f00000000000000000000000000000000000000000000000000000000000000007f00000000000000000000000000000000000000000000000000000000000000007f000000000000000000000000000000000000000000000000000000000000000090919293565b6000546001600160a01b031690565b610755610ec4565b6001600160a01b031661076661073e565b6001600160a01b03161461078c5760405162461bcd60e51b8152600401610245906120da565b600154604080516378a8956760e01b815290516000926001600160a01b0316916378a89567916004808301926020929190829003018186803b1580156107d157600080fd5b505afa1580156107e5573d6000803e3d6000fd5b505050506040513d601f19601f820116820180604052508101906108099190611f0b565b905060005b81811015610a9257600154604051631c96a19760e31b81526000916001600160a01b03169063e4b50cb890610847908590600401612173565b60206040518083038186803b15801561085f57600080fd5b505afa158015610873573d6000803e3d6000fd5b505050506040513d601f19601f820116820180604052508101906108979190611c36565b60015460405163668151a760e01b81529192506000916001600160a01b039091169063668151a7906108cd908590600401611f44565b604080518083038186803b1580156108e457600080fd5b505afa1580156108f8573d6000803e3d6000fd5b505050506040513d601f19601f8201168201806040525081019061091c9190611ee8565b91505080660acd2c286c2e6d60cb1b14156109d0576040516370a0823160e01b81526000906001600160a01b038416906370a0823190610960903090600401611f44565b60206040518083038186803b15801561097857600080fd5b505afa15801561098c573d6000803e3d6000fd5b505050506040513d601f19601f820116820180604052508101906109b09190611f0b565b905080156109ca576109ca8184636665657360e01b610f18565b50610a7d565b8066159a58509bdb9960ca1b1415610a7d576040516370a0823160e01b81526000906001600160a01b038416906370a0823190610a11903090600401611f44565b60206040518083038186803b158015610a2957600080fd5b505afa158015610a3d573d6000803e3d6000fd5b505050506040513d601f19601f82011682018060405250810190610a619190611f0b565b90508015610a7b57610a7b8184636665657360e01b610f18565b505b50508080610a8a9061234e565b91505061080e565b5050565b6060610aa0610ec4565b6001600160a01b0316610ab161073e565b6001600160a01b031614610ad75760405162461bcd60e51b8152600401610245906120da565b8267427573696e65737360c01b1415610b5e576001600160a01b03821660009081526003602090815260409182902080548351818402810184019094528084529091830182828015610b5257602002820191906000526020600020905b81546001600160a01b03168152600190910190602001808311610b34575b505050505090506105e6565b826727b832b930ba37b960c11b14156105e6576001600160a01b03821660009081526005602090815260409182902080548351818402810184019094528084529091830182828015610b52576020028201919060005260206000209081546001600160a01b03168152600190910190602001808311610b3457505050505090506105e6565b610beb610ec4565b6001600160a01b0316610bfc61073e565b6001600160a01b031614610c225760405162461bcd60e51b8152600401610245906120da565b6001600160a01b038116610c485760405162461bcd60e51b815260040161024590611fc9565b610c5181610ec8565b50565b610c5c610ec4565b6001600160a01b0316610c6d61073e565b6001600160a01b031614610c935760405162461bcd60e51b8152600401610245906120da565b600180546001600160a01b03199081166001600160a01b0396871617909155600780548216948616949094179093556008805484169285169290921790915560098054831691909316908117909255600280549091169091179055565b610cf8610ec4565b6001600160a01b0316610d0961073e565b6001600160a01b031614610d2f5760405162461bcd60e51b8152600401610245906120da565b6002546040805163d3c7c2c760e01b815290516000926001600160a01b03169163d3c7c2c79160048083019286929190829003018186803b158015610d7357600080fd5b505afa158015610d87573d6000803e3d6000fd5b505050506040513d6000823e601f3d908101601f19168201604052610daf9190810190611ce5565b905060005b8151811015610a92576000828281518110610ddf57634e487b7160e01b600052603260045260246000fd5b6020026020010151602001516001600160a01b03166370a08231306040518263ffffffff1660e01b8152600401610e169190611f44565b60206040518083038186803b158015610e2e57600080fd5b505afa158015610e42573d6000803e3d6000fd5b505050506040513d601f19601f82011682018060405250810190610e669190611f0b565b90508015610eb157610eb181848481518110610e9257634e487b7160e01b600052603260045260246000fd5b6020026020010151602001516931b7b63632b1ba34b7b760b11b610f18565b5080610ebc8161234e565b915050610db4565b3390565b600080546001600160a01b038381166001600160a01b0319831681178455604051919092169283917f8be0079c531659141344cd1fd0a4f28419497f9722a3daafe3b4186f6b6457e09190a35050565b6000610f2c84610f2785611a16565b611ac3565b90506000610f6b610f5d837f0000000000000000000000000000000000000000000000000000000000000000611acb565b610f6686611a16565b611b0b565b90506000610fa5610f9c847f0000000000000000000000000000000000000000000000000000000000000000611acb565b610f6687611a16565b90506000610fdf610fd6857f0000000000000000000000000000000000000000000000000000000000000000611acb565b610f6688611a16565b90506000611019611010867f0000000000000000000000000000000000000000000000000000000000000000611acb565b610f6689611a16565b90507f93ff279e4b5d48b961b1334583a9e71c1f7b6b2d3f08af84efab517c27fd6ad78885858585604051611052959493929190612197565b60405180910390a1856931b7b63632b1ba34b7b760b11b14156114d55783156111365760095460405163a9059cbb60e01b81526001600160a01b038981169263a9059cbb926110a992909116908890600401611f58565b602060405180830381600087803b1580156110c357600080fd5b505af11580156110d7573d6000803e3d6000fd5b505050506040513d601f19601f820116820180604052508101906110fb9190611e4b565b506009546040516001600160a01b03909116906000805160206123ab8339815191529061112d908a908890429061210f565b60405180910390a25b60008211801561115d57506001600160a01b03871660009081526003602052604090205415155b15611303576001600160a01b038716600090815260036020526040902054611186908390611b6d565b915060005b6001600160a01b038816600090815260036020526040902054811015611301576001600160a01b0388166000818152600360205260409020805463a9059cbb9190849081106111ea57634e487b7160e01b600052603260045260246000fd5b6000918252602090912001546040516001600160e01b031960e084901b168152611222916001600160a01b0316908790600401611f58565b602060405180830381600087803b15801561123c57600080fd5b505af1158015611250573d6000803e3d6000fd5b505050506040513d601f19601f820116820180604052508101906112749190611e4b565b506001600160a01b03881660009081526003602052604090208054829081106112ad57634e487b7160e01b600052603260045260246000fd5b6000918252602090912001546040516001600160a01b03909116906000805160206123ab833981519152906112e7908b9087904290612141565b60405180910390a2806112f98161234e565b91505061118b565b505b80156113ca5760075460405163a9059cbb60e01b81526001600160a01b038981169263a9059cbb9261133d92909116908590600401611f58565b602060405180830381600087803b15801561135757600080fd5b505af115801561136b573d6000803e3d6000fd5b505050506040513d601f19601f8201168201806040525081019061138f9190611e4b565b506007546040516001600160a01b03909116906000805160206123ab833981519152906113c1908a90859042906120a9565b60405180910390a25b82156114915760085460405163a9059cbb60e01b81526001600160a01b038981169263a9059cbb9261140492909116908790600401611f58565b602060405180830381600087803b15801561141e57600080fd5b505af1158015611432573d6000803e3d6000fd5b505050506040513d601f19601f820116820180604052508101906114569190611e4b565b506008546040516001600160a01b03909116906000805160206123ab83398151915290611488908a9087904290612045565b60405180910390a25b7f93ff279e4b5d48b961b1334583a9e71c1f7b6b2d3f08af84efab517c27fd6ad785858585856040516114c8959493929190612197565b60405180910390a1611a0c565b85636665657360e01b1415611a0c5781156115ab5760075460405163a9059cbb60e01b81526001600160a01b038981169263a9059cbb9261151e92909116908690600401611f58565b602060405180830381600087803b15801561153857600080fd5b505af115801561154c573d6000803e3d6000fd5b505050506040513d601f19601f820116820180604052508101906115709190611e4b565b506007546040516001600160a01b03909116906000805160206123ab833981519152906115a2908a90869042906120a9565b60405180910390a25b80156116725760095460405163a9059cbb60e01b81526001600160a01b038981169263a9059cbb926115e592909116908590600401611f58565b602060405180830381600087803b1580156115ff57600080fd5b505af1158015611613573d6000803e3d6000fd5b505050506040513d601f19601f820116820180604052508101906116379190611e4b565b506009546040516001600160a01b03909116906000805160206123ab83398151915290611669908a908590429061210f565b60405180910390a25b60008411801561169957506001600160a01b03871660009081526003602052604090205415155b1561183f576001600160a01b0387166000908152600360205260409020546116c2908590611b0b565b935060005b6001600160a01b03881660009081526003602052604090205481101561183d576001600160a01b0388166000818152600360205260409020805463a9059cbb91908490811061172657634e487b7160e01b600052603260045260246000fd5b6000918252602090912001546040516001600160e01b031960e084901b16815261175e916001600160a01b0316908990600401611f58565b602060405180830381600087803b15801561177857600080fd5b505af115801561178c573d6000803e3d6000fd5b505050506040513d601f19601f820116820180604052508101906117b09190611e4b565b506001600160a01b03881660009081526003602052604090208054829081106117e957634e487b7160e01b600052603260045260246000fd5b6000918252602090912001546040516001600160a01b03909116906000805160206123ab83398151915290611823908b9089904290612141565b60405180910390a2806118358161234e565b9150506116c7565b505b60008311801561186657506001600160a01b03871660009081526005602052604090205415155b15611a0c576001600160a01b03871660009081526005602052604090205461188f908490611b0b565b925060005b6001600160a01b038816600090815260056020526040902054811015611a0a576001600160a01b0388166000818152600560205260409020805463a9059cbb9190849081106118f357634e487b7160e01b600052603260045260246000fd5b6000918252602090912001546040516001600160e01b031960e084901b16815261192b916001600160a01b0316908890600401611f58565b602060405180830381600087803b15801561194557600080fd5b505af1158015611959573d6000803e3d6000fd5b505050506040513d601f19601f8201168201806040525081019061197d9190611e4b565b506001600160a01b03881660009081526005602052604090208054829081106119b657634e487b7160e01b600052603260045260246000fd5b6000918252602090912001546040516001600160a01b03909116906000805160206123ab833981519152906119f0908b9088904290612077565b60405180910390a280611a028161234e565b915050611894565b505b5050505050505050565b600080826001600160a01b031663313ce5676040518163ffffffff1660e01b815260040160206040518083038186803b158015611a5257600080fd5b505afa158015611a66573d6000803e3d6000fd5b505050506040513d601f19601f82011682018060405250810190611a8a9190611f23565b60ff1690506000611a9c601283611b86565b9050611aa981600a61224a565b611abb90670de0b6b3a7640000612318565b949350505050565b60006105e383835b600080611ad88385612318565b9050611af9841580611af2575083611af086846121e4565b145b6003611ba2565b611abb670de0b6b3a7640000826121e4565b6000611b1a8215156004611ba2565b82611b27575060006105e6565b6000611b3b670de0b6b3a764000085612318565b9050611b5b670de0b6b3a7640000611b5386846121e4565b146005611ba2565b611b6583826121e4565b9150506105e6565b6000611b7c8215156004611ba2565b6105e382846121e4565b6000611b96838311156001611ba2565b6000611abb8385612337565b81610a925762461bcd60e51b600090815260206004526007602452600a808304818106603090810160081b83860601918390049283060160101b016642414c230000300160c81b604452610a92918391610c51916210905360ea1b906242414c90606490fd5b80516104ad81612395565b600060208284031215611c24578081fd5b8135611c2f81612395565b9392505050565b600060208284031215611c47578081fd5b8151611c2f81612395565b60008060408385031215611c64578081fd5b8235611c6f81612395565b91506020830135611c7f81612395565b809150509250929050565b60008060008060808587031215611c9f578182fd5b8435611caa81612395565b93506020850135611cba81612395565b92506040850135611cca81612395565b91506060850135611cda81612395565b939692955090935050565b60006020808385031215611cf7578182fd5b825167ffffffffffffffff80821115611d0e578384fd5b818501915085601f830112611d21578384fd5b815181811115611d3357611d3361237f565b611d4084858302016121ba565b81815284810190848601875b84811015611e3c5781518701601f196040828e0382011215611d6c578a8bfd5b604051604081018181108a82111715611d8757611d8761237f565b604052828b015189811115611d9a578c8dfd5b8301603f81018f13611daa578c8dfd5b8b8101518a811115611dbe57611dbe61237f565b611dce8d85601f840116016121ba565b93508084528f6040828401011115611de4578d8efd5b8d5b81811015611e0257828101604001518582018f01528d01611de6565b81811115611e12578e8e83870101525b505050818152611e2460408401611c08565b818c0152865250509287019290870190600101611d4c565b50909998505050505050505050565b600060208284031215611e5c578081fd5b81518015158114611c2f578182fd5b600060208284031215611e7c578081fd5b5035919050565b60008060408385031215611e95578182fd5b823591506020830135611c7f81612395565b600080600060608486031215611ebb578283fd5b833592506020840135611ecd81612395565b91506040840135611edd81612395565b809150509250925092565b60008060408385031215611efa578182fd5b505080516020909101519092909150565b600060208284031215611f1c578081fd5b5051919050565b600060208284031215611f34578081fd5b815160ff81168114611c2f578182fd5b6001600160a01b0391909116815260200190565b6001600160a01b03929092168252602082015260400190565b6020808252825182820181905260009190848201906040850190845b81811015611fb25783516001600160a01b031683529284019291840191600101611f8d565b50909695505050505050565b901515815260200190565b60208082526026908201527f4f776e61626c653a206e6577206f776e657220697320746865207a65726f206160408201526564647265737360d01b606082015260800190565b660acd2c286c2e6d60cb1b8152602081019190915260400190565b66159a58509bdb9960ca1b8152602081019190915260400190565b67547265617375727960c01b81526001600160a01b039390931660208401526040830191909152606082015260800190565b6727b832b930ba37b960c11b81526001600160a01b039390931660208401526040830191909152606082015260800190565b66526f79616c747960c81b81526001600160a01b039390931660208401526040830191909152606082015260800190565b6020808252818101527f4f776e61626c653a2063616c6c6572206973206e6f7420746865206f776e6572604082015260600190565b6724b73b32b9ba37b960c11b81526001600160a01b039390931660208401526040830191909152606082015260800190565b67427573696e65737360c01b81526001600160a01b039390931660208401526040830191909152606082015260800190565b90815260200190565b93845260208401929092526040830152606082015260800190565b948552602085019390935260408401919091526060830152608082015260a00190565b60405181810167ffffffffffffffff811182821017156121dc576121dc61237f565b604052919050565b6000826121ff57634e487b7160e01b81526012600452602481fd5b500490565b80825b60018086116122165750612241565b81870482111561222857612228612369565b8086161561223557918102915b9490941c938002612207565b94509492505050565b60006105e3600019848460008261226357506001611c2f565b8161227057506000611c2f565b81600181146122865760028114612290576122bd565b6001915050611c2f565b60ff8411156122a1576122a1612369565b6001841b9150848211156122b7576122b7612369565b50611c2f565b5060208310610133831016604e8410600b84101617156122f0575081810a838111156122eb576122eb612369565b611c2f565b6122fd8484846001612204565b80860482111561230f5761230f612369565b02949350505050565b600081600019048311821515161561233257612332612369565b500290565b60008282101561234957612349612369565b500390565b600060001982141561236257612362612369565b5060010190565b634e487b7160e01b600052601160045260246000fd5b634e487b7160e01b600052604160045260246000fd5b6001600160a01b0381168114610c5157600080fdfefd34476424b11728dd439a5eb333973b6c5938474e1f5b123928c97ca869414da26469706673582212200d99fe8f63205805909d8acbacfc88be8a3b0381a263f276a5f19680594a1d5964736f6c63430008000033",
  "immutableReferences": {
    "917": [
      {
        "length": 32,
        "start": 1718
      },
      {
        "length": 32,
        "start": 3897
      }
    ],
    "919": [
      {
        "length": 32,
        "start": 1751
      },
      {
        "length": 32,
        "start": 4018
      }
    ],
    "921": [
      {
        "length": 32,
        "start": 1784
      },
      {
        "length": 32,
        "start": 4076
      }
    ],
    "923": [
      {
        "length": 32,
        "start": 1817
      },
      {
        "length": 32,
        "start": 3960
      }
    ]
  },
  "source": "// Verified Network fee distribution\r\n// (c) Kallol Borah, 2021\r\n\r\n//\"SPDX-License-Identifier: UNLICENSED\"\r\n\r\npragma solidity 0.8.0;\r\n\r\nimport \"@openzeppelin/contracts/access/Ownable.sol\";\r\nimport \"@openzeppelin/contracts/security/Pausable.sol\";\r\nimport \"@openzeppelin/contracts/token/ERC20/IERC20.sol\";\r\nimport \"@openzeppelin/contracts/token/ERC20/ERC20.sol\";\r\n\r\nimport \"./interfaces/ViaFactory.sol\";\r\nimport \"./interfaces/ISettlor.sol\";\r\nimport \"./interfaces/ILiquidity.sol\";\r\nimport \"./interfaces/IMarketMaker.sol\";\r\n\r\nimport \"./math/FixedPoint.sol\";\r\nimport \"./math/Math.sol\";\r\n\r\ncontract Distribution is Ownable, Pausable {\r\n\r\n    using FixedPoint for uint256;\r\n\r\n    ViaFactory private factory;\r\n    ILiquidity private liquidity;\r\n    \r\n    mapping(address => address[]) private businesses;\r\n    mapping(address => uint256) private businessIndex;\r\n    mapping(address => address[]) private operators;\r\n    mapping(address => uint256) private operatorIndex;\r\n    \r\n    address private founder;\r\n    address private treasury;\r\n    address private liquidityContract;\r\n\r\n    uint256 private immutable businessShare;\r\n    uint256 private immutable founderShare;\r\n    uint256 private immutable investorShare;\r\n    uint256 private immutable operatorShare;\r\n\r\n    event RevenueShare(bytes32 shareholderType, address indexed shareholder, address token, uint256 amount, uint256 timestamp);\r\n\r\n    //revenue shares\r\n    constructor(uint256 _business, uint256 _royalty, uint256 _investor, uint256 _operator){ \r\n        businessShare = _business;\r\n        founderShare = _royalty;\r\n        investorShare = _investor;\r\n        operatorShare = _operator;\r\n    }\r\n\r\n    function getRevenueShares() external view returns(uint256, uint256, uint256, uint256){\r\n        return (businessShare, founderShare, investorShare, operatorShare);\r\n    }\r\n\r\n    function initialize(address _viaFactory, address _founder, address _treasury, address _liquidity) public onlyOwner {\r\n        factory = ViaFactory(_viaFactory);\r\n        founder = _founder;\r\n        treasury = _treasury;\r\n        liquidityContract = _liquidity;\r\n        liquidity = ILiquidity(_liquidity);\r\n    }\r\n\r\n    //Need to add shareholder for every Verified and other cash tokens supported on system\r\n    function addRevenueShareholder(bytes32 _type, address _shareholder, address _currency) external onlyOwner {\r\n        if(_type==\"Business\"){\r\n            if(businessIndex[_shareholder] == 0){\r\n                businesses[_currency].push(_shareholder);\r\n                businessIndex[_shareholder] = businesses[_currency].length;\r\n            }\r\n        }\r\n        else if(_type==\"Operator\"){\r\n            if(operatorIndex[_shareholder] == 0){\r\n                operators[_currency].push(_shareholder);\r\n                operatorIndex[_shareholder] = operators[_currency].length;\r\n            }\r\n        }    \r\n    }\r\n\r\n    //Returns shareholders\r\n    function getRevenueShareholders(bytes32 _type, address _currency) external view onlyOwner returns(address[] memory shareholders){\r\n        if(_type==\"Business\")\r\n            return businesses[_currency];\r\n        else if(_type==\"Operator\")\r\n            return operators[_currency];\r\n    }\r\n\r\n    //Returns payment fees\r\n    function getPaymentFeeCollected(bytes32 _currency) external view onlyOwner returns(uint256){\r\n        address cashToken = factory.getIssuer(\"ViaCash\", _currency);\r\n        if(cashToken!=address(0x0))\r\n            return (IERC20(cashToken).balanceOf(address(this)));\r\n        else\r\n            return 0;\r\n    }     \r\n\r\n    //Returns bond issuing fees\r\n    function getLoanFeeCollected(bytes32 _currency) external view onlyOwner returns(uint256){\r\n        address bondToken = factory.getIssuer(\"ViaBond\", _currency);\r\n        if(bondToken!=address(0x0))\r\n            return (IERC20(bondToken).balanceOf(address(this)));\r\n        else\r\n            return 0;\r\n    }\r\n\r\n    //Returns security issuing fees\r\n    function getIssuingFeeCollected(address _platform, address _token) external onlyOwner returns(uint256){\r\n        return (IMarketMaker(_platform).getIssuingFeeCollected(_token));\r\n    } \r\n\r\n    //Returns security trading fees\r\n    function getTradingFeeCollected(address _platform, address _token) external onlyOwner returns(uint256){\r\n        return (ISettlor(_platform).getTradingFeeCollected(_token));\r\n    }\r\n    \r\n    //Shares securities issuing and trading fees\r\n    function shareCollection() external onlyOwner {\r\n        ILiquidity.token[] memory tokens = liquidity.getSupportedTokens();        \r\n        for(uint256 i=0; i<tokens.length; i++){\r\n            uint256 fee = IERC20(tokens[i].tokenAddress).balanceOf(address(this));\r\n            if(fee!=0){\r\n                transfer(fee, tokens[i].tokenAddress, \"collection\");\r\n            }\r\n        }\r\n    }\r\n\r\n    //Shares payments and bond issuing fees\r\n    function shareFee() external onlyOwner {\r\n        uint256 tokenCount = factory.getTokenCount();\r\n        for(uint i=0; i<tokenCount; i++){\r\n            address token = factory.getToken(i);\r\n            ( , bytes32 tokenType) = factory.getNameAndType(token);             \r\n            if(tokenType==\"ViaCash\"){\r\n                uint256 fee = IERC20(token).balanceOf(address(this));\r\n                if(fee!=0){\r\n                    transfer(fee, token, \"fees\");\r\n                }\r\n            }\r\n            else if(tokenType==\"ViaBond\"){\r\n                uint256 fee = IERC20(token).balanceOf(address(this));\r\n                if(fee!=0){\r\n                    transfer(fee, token, \"fees\");\r\n                }\r\n            }\r\n        }\r\n    }\r\n    event distributionFee(uint256 fees, uint256 business, uint256 operator, uint256 founder, uint256 investor);\r\n    //Transfers of revenue shares\r\n    function transfer(uint256 fee, address token, bytes32 sharing) private {\r\n        uint256 fees = _upscale(fee, _computeScalingFactor(IERC20(token)));\r\n        uint256 businessFee = FixedPoint.divDown(FixedPoint.mulDown(fees, businessShare), _computeScalingFactor(IERC20(token)));\r\n        uint256 operatorFee = FixedPoint.divDown(FixedPoint.mulDown(fees, operatorShare), _computeScalingFactor(IERC20(token)));\r\n        uint256 founderFee = FixedPoint.divDown(FixedPoint.mulDown(fees, founderShare), _computeScalingFactor(IERC20(token)));\r\n        uint256 investorFee = FixedPoint.divDown(FixedPoint.mulDown(fees, investorShare), _computeScalingFactor(IERC20(token)));\r\n        emit distributionFee(fee, businessFee, operatorFee, founderFee, investorFee);\r\n        if(sharing==\"collection\"){\r\n            if(businessFee>0){ //50% of underwriting fees go to Liquidity contract to be paid out to liquidity providers\r\n                IERC20(token).transfer(liquidityContract, businessFee);\r\n                emit RevenueShare(\"Investor\", liquidityContract, token, businessFee, block.timestamp);\r\n            }\r\n            if(founderFee>0 && businesses[token].length>0){ //15% of underwriting fees go to Verified businesses\r\n                //founderFee = Math.divDown(_upscale(founderFee, _computeScalingFactor(IERC20(token))), _upscale(businesses[token].length\r\n                //        , _computeScalingFactor(IERC20(token))));\r\n                founderFee = Math.divDown(founderFee, businesses[token].length);\r\n                for(uint j=0; j<businesses[token].length; j++){\r\n                    IERC20(token).transfer(businesses[token][j], founderFee);\r\n                    emit RevenueShare(\"Business\", businesses[token][j], token, founderFee, block.timestamp);\r\n                }\r\n            }\r\n            if(investorFee>0){ //15% of underwriting fees to the Liquidity contract to be paid out for IP\r\n                IERC20(token).transfer(founder, investorFee);\r\n                emit RevenueShare(\"Royalty\", founder, token, investorFee, block.timestamp);\r\n            }\r\n            if(operatorFee>0){ //20% of underwriting fees go to the treasury for Vitta redemption (buyback) reserve\r\n                IERC20(token).transfer(treasury, operatorFee);\r\n                emit RevenueShare(\"Treasury\", treasury, token, operatorFee, block.timestamp);\r\n            }\r\n            emit distributionFee(fees, businessFee, operatorFee, founderFee, investorFee);\r\n        }\r\n        else if(sharing==\"fees\"){\r\n            //businessFee = Math.divDown(_upscale(businessFee, _computeScalingFactor(IERC20(token))), _upscale(businesses[token].length, _computeScalingFactor(IERC20(token))));\r\n            //operatorFee = Math.divDown(_upscale(operatorFee, _computeScalingFactor(IERC20(token))), _upscale(operators[token].length, _computeScalingFactor(IERC20(token))));\r\n            if(founderFee>0){ // 15% of fees go towards royalty payment for IP\r\n                IERC20(token).transfer(founder, founderFee);\r\n                emit RevenueShare(\"Royalty\", founder, token, founderFee, block.timestamp);\r\n            }\r\n            if(investorFee>0){ //15% of fees go to Liquidity contract to be distributed to investors\r\n                IERC20(token).transfer(liquidityContract, investorFee);\r\n                emit RevenueShare(\"Investor\", liquidityContract, token, investorFee, block.timestamp);\r\n            }\r\n            if(businessFee>0 && businesses[token].length>0){ //50% of fees go to Verified businesses\r\n                businessFee = FixedPoint.divDown(businessFee, businesses[token].length);\r\n                for(uint j=0; j<businesses[token].length; j++){\r\n                    IERC20(token).transfer(businesses[token][j], businessFee);\r\n                    emit RevenueShare(\"Business\", businesses[token][j], token, businessFee, block.timestamp);\r\n                }\r\n            }\r\n            if(operatorFee>0 && operators[token].length>0){ //20% of fees go to Verified Network node operators\r\n                operatorFee = FixedPoint.divDown(operatorFee, operators[token].length);\r\n                for(uint j=0; j<operators[token].length; j++){\r\n                    IERC20(token).transfer(operators[token][j], operatorFee);\r\n                    emit RevenueShare(\"Operator\", operators[token][j], token, operatorFee, block.timestamp);\r\n                }\r\n            }\r\n        }\r\n    }\r\n\r\n    /**\r\n     * @dev Returns a scaling factor that, when multiplied to a token amount for `token`, normalizes its balance as if\r\n     * it had 18 decimals.\r\n     */\r\n    function _computeScalingFactor(IERC20 token) internal view returns (uint256) {\r\n        // Tokens that don't implement the `decimals` method are not supported.\r\n        uint256 tokenDecimals = ERC20(address(token)).decimals();\r\n\r\n        // Tokens with more than 18 decimals are not supported.\r\n        uint256 decimalsDifference = Math.sub(18, tokenDecimals);\r\n        return FixedPoint.ONE * 10**decimalsDifference;\r\n    }\r\n\r\n    /**\r\n     * @dev Reverses the `scalingFactor` applied to `amount`, resulting in a smaller or equal value depending on\r\n     * whether it needed scaling or not. The result is rounded down.\r\n     */\r\n    function _downscaleDown(uint256 amount, uint256 scalingFactor) internal pure returns (uint256) {\r\n        return FixedPoint.divDown(amount, scalingFactor);\r\n    }\r\n\r\n    /**\r\n     * @dev Applies `scalingFactor` to `amount`, resulting in a larger or equal value depending on whether it needed\r\n     * scaling or not.\r\n     */\r\n    function _upscale(uint256 amount, uint256 scalingFactor) internal pure returns (uint256) {\r\n        // Upscale rounding wouldn't necessarily always go in the same direction: in a swap for example the balance of\r\n        // token in should be rounded up, and that of token out rounded down. This is the only place where we round in\r\n        // the same direction for all amounts, as the impact of this rounding is expected to be minimal (and there's no\r\n        // rounding error unless `_scalingFactor()` is overriden).\r\n        return FixedPoint.mulDown(amount, scalingFactor);\r\n    }\r\n\r\n}\r\n",
  "sourcePath": "D:\\Code\\verified-liquidity\\distribution\\contracts\\Distribution.sol",
  "compiler": {
    "name": "solc",
    "version": "0.8.0+commit.c7dfd78e.Emscripten.clang"
  },
  "schemaVersion": "3.4.3",
  "updatedAt": "2023-06-16T10:54:37.577Z",
  "networkType": "ethereum",
  "devdoc": {
    "kind": "dev",
    "methods": {
      "owner()": {
        "details": "Returns the address of the current owner."
      },
      "paused()": {
        "details": "Returns true if the contract is paused, and false otherwise."
      },
      "renounceOwnership()": {
        "details": "Leaves the contract without owner. It will not be possible to call `onlyOwner` functions anymore. Can only be called by the current owner. NOTE: Renouncing ownership will leave the contract without an owner, thereby removing any functionality that is only available to the owner."
      },
      "transferOwnership(address)": {
        "details": "Transfers ownership of the contract to a new account (`newOwner`). Can only be called by the current owner."
      }
    },
    "version": 1
  },
  "userdoc": {
    "kind": "user",
    "methods": {},
    "version": 1
  }
}