{
    "contractName": "Token",
    "abi": [
        {
            "constant": true,
            "inputs": [],
            "name": "name",
            "outputs": [
                {
                    "name": "",
                    "type": "string"
                }
            ],
            "payable": false,
            "stateMutability": "view",
            "type": "function"
        },
        {
            "constant": true,
            "inputs": [],
            "name": "totalSupply",
            "outputs": [
                {
                    "name": "",
                    "type": "uint256"
                }
            ],
            "payable": false,
            "stateMutability": "view",
            "type": "function"
        },
        {
            "constant": true,
            "inputs": [
                {
                    "name": "",
                    "type": "address"
                }
            ],
            "name": "balances",
            "outputs": [
                {
                    "name": "",
                    "type": "bytes16"
                }
            ],
            "payable": false,
            "stateMutability": "view",
            "type": "function"
        },
        {
            "constant": true,
            "inputs": [],
            "name": "decimals",
            "outputs": [
                {
                    "name": "",
                    "type": "uint8"
                }
            ],
            "payable": false,
            "stateMutability": "pure",
            "type": "function"
        },
        {
            "constant": true,
            "inputs": [
                {
                    "name": "tokenOwner",
                    "type": "address"
                }
            ],
            "name": "balanceOf",
            "outputs": [
                {
                    "name": "",
                    "type": "uint256"
                }
            ],
            "payable": false,
            "stateMutability": "view",
            "type": "function"
        },
        {
            "constant": true,
            "inputs": [],
            "name": "symbol",
            "outputs": [
                {
                    "name": "",
                    "type": "string"
                }
            ],
            "payable": false,
            "stateMutability": "view",
            "type": "function"
        },
        {
            "constant": false,
            "inputs": [
                {
                    "name": "receiver",
                    "type": "address"
                },
                {
                    "name": "tokens",
                    "type": "uint256"
                }
            ],
            "name": "transfer",
            "outputs": [
                {
                    "name": "",
                    "type": "bool"
                }
            ],
            "payable": false,
            "stateMutability": "nonpayable",
            "type": "function"
        },
        {
            "constant": false,
            "inputs": [
                {
                    "name": "_name",
                    "type": "bytes32"
                },
                {
                    "name": "_issuer",
                    "type": "address"
                },
                {
                    "name": "_owner",
                    "type": "address"
                },
                {
                    "name": "_symbol",
                    "type": "bytes32"
                }
            ],
            "name": "initialize",
            "outputs": [],
            "payable": false,
            "stateMutability": "nonpayable",
            "type": "function"
        },
        {
            "constant": true,
            "inputs": [],
            "name": "getIssuer",
            "outputs": [
                {
                    "name": "",
                    "type": "address"
                }
            ],
            "payable": false,
            "stateMutability": "view",
            "type": "function"
        },
        {
            "constant": false,
            "inputs": [
                {
                    "name": "amount",
                    "type": "bytes16"
                }
            ],
            "name": "addTotalSupply",
            "outputs": [],
            "payable": false,
            "stateMutability": "nonpayable",
            "type": "function"
        },
        {
            "constant": false,
            "inputs": [
                {
                    "name": "amount",
                    "type": "bytes16"
                }
            ],
            "name": "reduceSupply",
            "outputs": [],
            "payable": false,
            "stateMutability": "nonpayable",
            "type": "function"
        },
        {
            "constant": false,
            "inputs": [
                {
                    "name": "party",
                    "type": "address"
                },
                {
                    "name": "amount",
                    "type": "bytes16"
                }
            ],
            "name": "addBalance",
            "outputs": [],
            "payable": false,
            "stateMutability": "nonpayable",
            "type": "function"
        },
        {
            "constant": false,
            "inputs": [
                {
                    "name": "party",
                    "type": "address"
                },
                {
                    "name": "amount",
                    "type": "bytes16"
                }
            ],
            "name": "reduceBalance",
            "outputs": [],
            "payable": false,
            "stateMutability": "nonpayable",
            "type": "function"
        },
        {
            "constant": false,
            "inputs": [
                {
                    "name": "sender",
                    "type": "address"
                },
                {
                    "name": "receiver",
                    "type": "address"
                },
                {
                    "name": "tokens",
                    "type": "uint256"
                }
            ],
            "name": "transferFrom",
            "outputs": [
                {
                    "name": "",
                    "type": "bool"
                }
            ],
            "payable": false,
            "stateMutability": "nonpayable",
            "type": "function"
        },
        {
            "constant": false,
            "inputs": [
                {
                    "name": "sender",
                    "type": "address"
                },
                {
                    "name": "receiver",
                    "type": "address"
                },
                {
                    "name": "tokens",
                    "type": "uint256"
                }
            ],
            "name": "transferToken",
            "outputs": [
                {
                    "name": "",
                    "type": "bool"
                }
            ],
            "payable": false,
            "stateMutability": "nonpayable",
            "type": "function"
        },
        {
            "constant": false,
            "inputs": [
                {
                    "name": "receiver",
                    "type": "address"
                },
                {
                    "name": "tokens",
                    "type": "bytes16"
                }
            ],
            "name": "requestTransfer",
            "outputs": [
                {
                    "name": "",
                    "type": "bool"
                }
            ],
            "payable": false,
            "stateMutability": "nonpayable",
            "type": "function"
        },
        {
            "constant": false,
            "inputs": [
                {
                    "name": "amount",
                    "type": "bytes16"
                },
                {
                    "name": "payer",
                    "type": "address"
                },
                {
                    "name": "currency",
                    "type": "bytes32"
                },
                {
                    "name": "cashContract",
                    "type": "address"
                }
            ],
            "name": "requestTransaction",
            "outputs": [
                {
                    "name": "",
                    "type": "bool"
                }
            ],
            "payable": false,
            "stateMutability": "nonpayable",
            "type": "function"
        }
    ],
    "bytecode": "0x608060405234801561001057600080fd5b50611580806100206000396000f3fe608060405234801561001057600080fd5b506004361061010b5760003560e01c80634c099287116100a2578063a49b8a4c11610071578063a49b8a4c1461037f578063a9059cbb146103b5578063ef239721146103e1578063f16725911461041d578063f5537ede146104445761010b565b80634c099287146102f7578063525564211461032d57806370a082311461035157806395d89b41146103775761010b565b806323b872dd116100de57806323b872dd1461021a57806327e235e3146102505780632fc3d1ee14610293578063313ce567146102d95761010b565b80630141533314610110578063019b9ea01461013957806306fdde031461018357806318160ddd14610200575b600080fd5b6101376004803603602081101561012657600080fd5b50356001600160801b03191661047a565b005b61016f6004803603604081101561014f57600080fd5b5080356001600160a01b031690602001356001600160801b0319166104be565b604080519115158252519081900360200190f35b61018b610501565b6040805160208082528351818301528351919283929083019185019080838360005b838110156101c55781810151838201526020016101ad565b50505050905090810190601f1680156101f25780820380516001836020036101000a031916815260200191505b509250505060405180910390f35b61020861058f565b60408051918252519081900360200190f35b61016f6004803603606081101561023057600080fd5b506001600160a01b038135811691602081013590911690604001356105a5565b6102766004803603602081101561026657600080fd5b50356001600160a01b03166106c1565b604080516001600160801b03199092168252519081900360200190f35b61016f600480360360808110156102a957600080fd5b506001600160801b0319813516906001600160a01b036020820135811691604081013591606090910135166106d6565b6102e16108a7565b6040805160ff9092168252519081900360200190f35b6101376004803603604081101561030d57600080fd5b5080356001600160a01b031690602001356001600160801b0319166108ac565b61033561091f565b604080516001600160a01b039092168252519081900360200190f35b6102086004803603602081101561036757600080fd5b50356001600160a01b031661092e565b61018b61095b565b6101376004803603604081101561039557600080fd5b5080356001600160a01b031690602001356001600160801b0319166109b6565b61016f600480360360408110156103cb57600080fd5b506001600160a01b0381351690602001356109f3565b610137600480360360808110156103f757600080fd5b508035906001600160a01b03602082013581169160408101359091169060600135610ae8565b6101376004803603602081101561043357600080fd5b50356001600160801b031916610c23565b61016f6004803603606081101561045a57600080fd5b506001600160a01b03813581169160208101359091169060400135610c4a565b6038546001600160a01b0316331461049157600080fd5b6000546104a19060801b82610d5b565b600080546001600160801b03191660809290921c91909117905550565b6038546000906001600160a01b031633146104d857600080fd5b6104ea836104e58461118d565b6109f3565b156104f7575060016104fb565b5060005b92915050565b6035805460408051602060026001851615610100026000190190941693909304601f810184900484028201840190925281815292918301828280156105875780601f1061055c57610100808354040283529160200191610587565b820191906000526020600020905b81548152906001019060200180831161056a57829003601f168201915b505050505081565b6000805461059f9060801b61118d565b90505b90565b6001600160a01b0383166000908152600160205260408120546105d39060801b6105ce84611225565b61128a565b60000b6001148061060d57506001600160a01b0384166000908152600160205260409020546106089060801b6105ce84611225565b60000b155b61061657600080fd5b60385460408051600160e11b6340e5437f0281526001600160a01b038781166004830152868116602483015260448201869052306064830152915191909216916381ca86fe9160848083019260209291908290030181600087803b15801561067d57600080fd5b505af1158015610691573d6000803e3d6000fd5b505050506040513d60208110156106a757600080fd5b5051156106b6575060016106ba565b5060005b9392505050565b60016020526000908152604090205460801b81565b60395460408051600160e01b63f429f19b02815233600482015290516000926001600160a01b03169163f429f19b916024808301926020929190829003018186803b15801561072457600080fd5b505afa158015610738573d6000803e3d6000fd5b505050506040513d602081101561074e57600080fd5b5051600160cb1b660acd2c286c2e6d021461076857600080fd5b6037546001600160a01b038581169116141561082e5760385460408051600160e41b63079537570281526001600160801b0319881660048201526001600160a01b038781166024830152604482018790523060648301529151919092169163795375709160848083019260209291908290030181600087803b1580156107ed57600080fd5b505af1158015610801573d6000803e3d6000fd5b505050506040513d602081101561081757600080fd5b5051156108265750600161089f565b50600061089f565b60385460408051600160e01b63f6fd5c790281526001600160801b0319881660048201526001600160a01b0387811660248301526044820187905285811660648301529151919092169163f6fd5c799160848083019260209291908290030181600087803b1580156107ed57600080fd5b949350505050565b600290565b6038546001600160a01b031633146108c357600080fd5b6001600160a01b0382166000908152600160205260409020546108e99060801b826113d3565b6001600160a01b0392909216600090815260016020526040902080546001600160801b03191660809390931c9290921790915550565b6037546001600160a01b031690565b6001600160a01b0381166000908152600160205260408120546109539060801b61118d565b90505b919050565b6036805460408051602060026001851615610100026000190190941693909304601f810184900484028201840190925281815292918301828280156105875780601f1061055c57610100808354040283529160200191610587565b6038546001600160a01b031633146109cd57600080fd5b6001600160a01b0382166000908152600160205260409020546108e99060801b82610d5b565b6000610a19610a0183611225565b3060009081526001602052604090205460801b61128a565b60000b6000191480610a375750610a32610a0183611225565b60000b155b610a4057600080fd5b30600090815260016020526040902054610a659060801b610a6084611225565b6113d3565b3060009081526001602052604080822080546001600160801b031916608094851c1790556001600160a01b0386168252902054610aab911b610aa684611225565b610d5b565b6001600160a01b0393909316600090815260016020819052604090912080546001600160801b03191660809590951c949094179093555090919050565b600254610100900460ff1680610b015750610b016113e5565b80610b0f575060025460ff16155b610b4d57604051600160e51b62461bcd02815260040180806020018281038252602e815260200180611527602e913960400191505060405180910390fd5b600254610100900460ff16158015610b78576002805460ff1961ff0019909116610100171660011790555b60398054336001600160a01b0319918216179091556037805482166001600160a01b0387811691909117909155603880549092169085161790556040805160208082018890528251808303820181529183019092528051610bdd92603592019061148e565b506040805160208082018590528251808303820181529183019092528051610c0992603692019061148e565b508015610c1c576002805461ff00191690555b5050505050565b6038546001600160a01b03163314610c3a57600080fd5b6000546104a19060801b826113d3565b6038546000906001600160a01b03163314610c6457600080fd5b610c91610c7083611225565b6001600160a01b03861660009081526001602052604090205460801b61128a565b60000b6000191480610caf5750610caa610c7083611225565b60000b155b156106b6576001600160a01b038416600090815260016020526040902054610cdd9060801b610a6084611225565b6001600160a01b0385811660009081526001602052604080822080546001600160801b031916608095861c17905591861681522054610d20911b610aa684611225565b6001600160a01b038416600090815260016020819052604090912080546001600160801b03191660809390931c9290921790915590506106ba565b6000617fff6001600160801b03608085811c8216607090811c8416939186901c90921690911c811690821415610dd15780617fff1415610dc7576001600160801b03198581169085161415610db45784925050506104fb565b50600160ef1b61ffff0291506104fb9050565b84925050506104fb565b80617fff1415610de55783925050506104fb565b6001607f1b608086901c6001600160801b0381169190911015906001600160701b031683610e165760019350610e1d565b600160701b175b6001607f1b608087901c6001600160801b0381169190911015906001600160701b031684610e4e5760019450610e55565b600160701b175b82610e85576001600160801b03198816600160ff1b14610e755787610e78565b60005b96505050505050506104fb565b80610ea5576001600160801b03198916600160ff1b14610e755788610e78565b8486038415158315151415610fcb576070811315610ecc57899750505050505050506104fb565b6000811315610eeb5780826000821215610ee257fe5b901c9150610f25565b606f19811215610f0457889750505050505050506104fb565b6000811215610f255780600003846000821215610f1d57fe5b901c93508596505b92810192600160711b8410610f40576001968701969390931c925b86617fff1415610f755784610f5d57600160f01b617fff02610f67565b6001600160f01b03195b9750505050505050506104fb565b600160701b841015610f8a5760009650610f97565b6001600160701b03841693505b83607088901b86610fa9576000610faf565b6001607f1b5b6001600160801b0316171760801b9750505050505050506104fb565b6000811315610fe657600184901b9350600187039650610ffd565b6000811215610ffd57600182901b91506001860396505b607081131561100f5760019150611072565b6001811315611037576001810360018303600082121561102b57fe5b901c6001019150611072565b606f1981121561104a5760019350611072565b600019811215611072576001816000030360018503600082121561106a57fe5b901c60010193505b81841061108357818403935061108c565b83820393508294505b836110a25750600096506104fb95505050505050565b60006110ad856113eb565b905080607114156110d357600185901c6001600160701b03169450600188019750611122565b607081101561111557607081900380891115611102578086901b6001600160701b03169550808903985061110f565b600098600019019590951b945b50611122565b6001600160701b03851694505b87617fff1415611158578561113f57600160f01b617fff02611149565b6001600160f01b03195b985050505050505050506104fb565b84607089901b8761116a576000611170565b6001607f1b5b6001600160801b0316171760801b985050505050505050506104fb565b6000617fff6001600160801b03608084901c1660701c16613fff8110156111b8576000915050610956565b6001607f1b8360801c6001600160801b0316106111d457600080fd5b6140fe8111156111e357600080fd5b600160701b6001600160701b03608085901c161761406f82101561120d5761406f8290031c6106ba565b61406f8211156106ba5761406e1982011b9392505050565b60008161123457506000610956565b816000611240826113eb565b90506070811015611259578060700382901b915061126c565b607081111561126c576070810382901c91505b613fff0160701b6001600160701b03919091161760801b9050610956565b600060016001607f1b03608084901c16600160701b617fff028111156112af57600080fd5b60016001607f1b03608084901c16600160701b617fff028111156112d257600080fd5b6001600160801b03198581169085161415806112fe5750600160701b617fff02826001600160801b0316105b61130757600080fd5b6001600160801b03198581169085161415611327576000925050506104fb565b60006001607f1b8660801c6001600160801b03161015905060006001607f1b8660801c6001600160801b031610159050811561139257801561138357826001600160801b0316846001600160801b031611611383576001611387565b6000195b9450505050506104fb565b80156113a55760019450505050506104fb565b826001600160801b0316846001600160801b0316116113c657600019611387565b60019450505050506104fb565b60006106ba83600160ff1b8418610d5b565b303b1590565b60008082116113f957600080fd5b6000600160801b831061140e57608092831c92015b68010000000000000000831061142657604092831c92015b640100000000831061143a57602092831c92015b62010000831061144c57601092831c92015b610100831061145d57600892831c92015b6010831061146d57600492831c92015b6004831061147d57600292831c92015b600283106109535760010192915050565b828054600181600116156101000203166002900490600052602060002090601f016020900481019282601f106114cf57805160ff19168380011785556114fc565b828001600101855582156114fc579182015b828111156114fc5782518255916020019190600101906114e1565b5061150892915061150c565b5090565b6105a291905b80821115611508576000815560010161151256fe436f6e747261637420696e7374616e63652068617320616c7265616479206265656e20696e697469616c697a6564a165627a7a723058204c2f6056b194c81e8e1a0cc02152ecabb545238ad1146b24fa5a1cb59fb8c0730029",
    "source": "// (c) Kallol Borah, 2020\r\n// Implements token issued by Bond issuer. Can be reused by any financial product issuer\r\n// SPDX-License-Identifier: MIT\r\n\r\npragma solidity 0.5.7;\r\n\r\nimport \"./erc/ERC20.sol\";\r\nimport \"./interfaces/ViaBond.sol\";\r\nimport \"./interfaces/ViaToken.sol\";\r\nimport \"./interfaces/ViaFactory.sol\";\r\nimport \"@openzeppelin/upgrades/contracts/Initializable.sol\";\r\n\r\n\r\ncontract Token is ViaToken, ERC20, Initializable {\r\n\r\n    //Via token attributes (eg, name : Via-USD, product : ViaBond, symbol : bond identifier)\r\n    string public name;\r\n    string public symbol;\r\n    address private issuer;\r\n    address private issuingContract;\r\n    ViaFactory private factory;\r\n\r\n    //initiliaze proxies\r\n    function initialize(bytes32 _name, address _issuer, address _owner, bytes32 _symbol) public initializer{\r\n        factory = ViaFactory(msg.sender);\r\n        issuer = _issuer;\r\n        issuingContract = _owner;\r\n        name = string(abi.encodePacked(_name));\r\n        symbol = string(abi.encodePacked(_symbol));\r\n    }\r\n\r\n    function getIssuer() external view returns(address){\r\n        return issuer;\r\n    }\r\n    \r\n    function addTotalSupply(bytes16 amount) external{\r\n        require(issuingContract==msg.sender);\r\n        //adjust total supply\r\n        totalSupply_ = ABDKMathQuad.add(totalSupply_, amount);\r\n    }\r\n\r\n    function reduceSupply(bytes16 amount) external{        \r\n        require(issuingContract==msg.sender);\r\n        totalSupply_ = ABDKMathQuad.sub(totalSupply_, amount);\r\n    }\r\n\r\n    function addBalance(address party, bytes16 amount) external{\r\n        require(issuingContract==msg.sender);\r\n        //add via to this contract's balance first (ie issue them first)\r\n        balances[party] = ABDKMathQuad.add(balances[party], amount);\r\n    }\r\n\r\n    function reduceBalance(address party, bytes16 amount) external{\r\n        require(issuingContract==msg.sender);\r\n        balances[party] = ABDKMathQuad.sub(balances[party], amount);\r\n    }\r\n\r\n    function transferFrom(address sender, address receiver, uint256 tokens) external returns (bool){\r\n        //ensure sender has enough tokens in balance before transferring or redeeming them\r\n        require(ABDKMathQuad.cmp(balances[sender],ABDKMathQuad.fromUInt(tokens))==1 ||\r\n                ABDKMathQuad.cmp(balances[sender],ABDKMathQuad.fromUInt(tokens))==0);\r\n        if(ViaBond(issuingContract).transferForward(sender, receiver, tokens, address(this)))\r\n            return true;\r\n        else\r\n            return false;\r\n    }\r\n\r\n    function transferToken(address sender, address receiver, uint256 tokens) external returns (bool){\r\n        require(issuingContract==msg.sender);\r\n        //owner should have more tokens than being transferred\r\n        if(ABDKMathQuad.cmp(ABDKMathQuad.fromUInt(tokens), balances[sender])==-1 || ABDKMathQuad.cmp(ABDKMathQuad.fromUInt(tokens), balances[sender])==0){\r\n            //sending contract should be allowed by token owner to make this transfer\r\n            balances[sender] = ABDKMathQuad.sub(balances[sender], ABDKMathQuad.fromUInt(tokens));\r\n            balances[receiver] = ABDKMathQuad.add(balances[receiver], ABDKMathQuad.fromUInt(tokens));\r\n            return true;\r\n        }\r\n        return false;\r\n    }   \r\n\r\n    function requestTransfer(address receiver, bytes16 tokens) external returns (bool){\r\n        require(issuingContract==msg.sender);\r\n        if(transfer(receiver, ABDKMathQuad.toUInt(tokens)))\r\n            return true;\r\n        else\r\n            return false;\r\n    }  \r\n\r\n    function requestTransaction(bytes16 amount, address payer, bytes32 currency, address cashContract) external returns(bool){\r\n        require(factory.getType(msg.sender) == \"ViaCash\");\r\n        if(payer==issuer){\r\n            if(ViaBond(issuingContract).requestRedemption(amount, payer, currency, address(this)))\r\n                return true;\r\n            else\r\n                return false;\r\n        }\r\n        else{\r\n            if(ViaBond(issuingContract).requestPurchase(amount, payer, currency, cashContract))\r\n                return true;\r\n            else\r\n                return false;\r\n        }\r\n        \r\n    }  \r\n    \r\n}\r\n",
    "sourcePath": "D:\\Code\\verified-payments\\contracts\\Token.sol",
    "compiler": {
        "name": "solc",
        "version": "0.5.7+commit.6da8b019.Emscripten.clang"
    },
    "schemaVersion": "3.4.3",
    "updatedAt": "2022-04-24T04:06:38.450Z",
    "networkType": "ethereum",
    "devdoc": {
        "methods": {}
    },
    "userdoc": {
        "methods": {}
    }
}