{
    "contractName": "SecondaryIssueManager",
    "abi": [
        {
            "anonymous": false,
            "inputs": [
                {
                    "indexed": true,
                    "internalType": "address",
                    "name": "previousOwner",
                    "type": "address"
                },
                {
                    "indexed": true,
                    "internalType": "address",
                    "name": "newOwner",
                    "type": "address"
                }
            ],
            "name": "OwnershipTransferred",
            "type": "event"
        },
        {
            "anonymous": false,
            "inputs": [
                {
                    "indexed": false,
                    "internalType": "uint256",
                    "name": "consideration",
                    "type": "uint256"
                },
                {
                    "indexed": false,
                    "internalType": "uint256",
                    "name": "fee",
                    "type": "uint256"
                },
                {
                    "indexed": false,
                    "internalType": "uint256",
                    "name": "toPay",
                    "type": "uint256"
                }
            ],
            "name": "payFees",
            "type": "event"
        },
        {
            "anonymous": false,
            "inputs": [
                {
                    "indexed": false,
                    "internalType": "address",
                    "name": "platform",
                    "type": "address"
                },
                {
                    "indexed": false,
                    "internalType": "bytes32",
                    "name": "poolId",
                    "type": "bytes32"
                },
                {
                    "indexed": false,
                    "internalType": "address",
                    "name": "party",
                    "type": "address"
                },
                {
                    "indexed": false,
                    "internalType": "address",
                    "name": "counterparty",
                    "type": "address"
                },
                {
                    "indexed": true,
                    "internalType": "address",
                    "name": "securityTraded",
                    "type": "address"
                },
                {
                    "indexed": false,
                    "internalType": "address",
                    "name": "currencySettled",
                    "type": "address"
                },
                {
                    "indexed": false,
                    "internalType": "uint256",
                    "name": "amount",
                    "type": "uint256"
                },
                {
                    "indexed": false,
                    "internalType": "uint256",
                    "name": "price",
                    "type": "uint256"
                },
                {
                    "indexed": false,
                    "internalType": "bytes32",
                    "name": "tradeRef",
                    "type": "bytes32"
                },
                {
                    "indexed": false,
                    "internalType": "bytes32",
                    "name": "DPID",
                    "type": "bytes32"
                }
            ],
            "name": "subscribers",
            "type": "event"
        },
        {
            "anonymous": false,
            "inputs": [
                {
                    "indexed": false,
                    "internalType": "address",
                    "name": "transferor",
                    "type": "address"
                },
                {
                    "indexed": false,
                    "internalType": "address",
                    "name": "transferee",
                    "type": "address"
                },
                {
                    "indexed": false,
                    "internalType": "uint256",
                    "name": "unitsToTransfer",
                    "type": "uint256"
                },
                {
                    "indexed": true,
                    "internalType": "address",
                    "name": "security",
                    "type": "address"
                },
                {
                    "indexed": false,
                    "internalType": "uint256",
                    "name": "price",
                    "type": "uint256"
                },
                {
                    "indexed": false,
                    "internalType": "address",
                    "name": "currency",
                    "type": "address"
                }
            ],
            "name": "tradeSettled",
            "type": "event"
        },
        {
            "inputs": [],
            "name": "owner",
            "outputs": [
                {
                    "internalType": "address",
                    "name": "",
                    "type": "address"
                }
            ],
            "stateMutability": "view",
            "type": "function",
            "constant": true
        },
        {
            "inputs": [],
            "name": "renounceOwnership",
            "outputs": [],
            "stateMutability": "nonpayable",
            "type": "function"
        },
        {
            "inputs": [
                {
                    "internalType": "address",
                    "name": "newOwner",
                    "type": "address"
                }
            ],
            "name": "transferOwnership",
            "outputs": [],
            "stateMutability": "nonpayable",
            "type": "function"
        },
        {
            "inputs": [
                {
                    "internalType": "address",
                    "name": "_factory",
                    "type": "address"
                },
                {
                    "internalType": "uint256",
                    "name": "_issueFeePercentage",
                    "type": "uint256"
                },
                {
                    "internalType": "address",
                    "name": "_client",
                    "type": "address"
                },
                {
                    "internalType": "address",
                    "name": "_vault",
                    "type": "address"
                },
                {
                    "internalType": "address",
                    "name": "_distribution",
                    "type": "address"
                },
                {
                    "internalType": "address",
                    "name": "_products",
                    "type": "address"
                }
            ],
            "name": "initialize",
            "outputs": [],
            "stateMutability": "nonpayable",
            "type": "function"
        },
        {
            "inputs": [
                {
                    "internalType": "address",
                    "name": "_signer",
                    "type": "address"
                }
            ],
            "name": "setSigner",
            "outputs": [],
            "stateMutability": "nonpayable",
            "type": "function"
        },
        {
            "inputs": [
                {
                    "internalType": "address",
                    "name": "security",
                    "type": "address"
                },
                {
                    "internalType": "address",
                    "name": "currency",
                    "type": "address"
                },
                {
                    "internalType": "uint256",
                    "name": "securityAmount",
                    "type": "uint256"
                },
                {
                    "internalType": "uint256",
                    "name": "minSecurityOrder",
                    "type": "uint256"
                },
                {
                    "internalType": "uint256",
                    "name": "cashAmount",
                    "type": "uint256"
                }
            ],
            "name": "issueSecondary",
            "outputs": [],
            "stateMutability": "nonpayable",
            "type": "function"
        },
        {
            "inputs": [
                {
                    "components": [
                        {
                            "internalType": "bytes32",
                            "name": "partyRef",
                            "type": "bytes32"
                        },
                        {
                            "internalType": "address",
                            "name": "partyAddress",
                            "type": "address"
                        },
                        {
                            "internalType": "bytes32",
                            "name": "counterpartyRef",
                            "type": "bytes32"
                        },
                        {
                            "internalType": "uint256",
                            "name": "price",
                            "type": "uint256"
                        },
                        {
                            "internalType": "uint256",
                            "name": "dt",
                            "type": "uint256"
                        },
                        {
                            "internalType": "uint256",
                            "name": "securityTraded",
                            "type": "uint256"
                        },
                        {
                            "internalType": "uint256",
                            "name": "currencyTraded",
                            "type": "uint256"
                        }
                    ],
                    "internalType": "struct ITrade.trade",
                    "name": "tradeToReport",
                    "type": "tuple"
                },
                {
                    "internalType": "contract IOrder",
                    "name": "orderbook",
                    "type": "address"
                }
            ],
            "name": "requestSettlement",
            "outputs": [],
            "stateMutability": "nonpayable",
            "type": "function"
        },
        {
            "inputs": [
                {
                    "internalType": "bytes32",
                    "name": "dpid",
                    "type": "bytes32"
                },
                {
                    "internalType": "bytes32",
                    "name": "poolId",
                    "type": "bytes32"
                }
            ],
            "name": "getSettlementRequests",
            "outputs": [
                {
                    "internalType": "bytes32[]",
                    "name": "",
                    "type": "bytes32[]"
                }
            ],
            "stateMutability": "view",
            "type": "function",
            "constant": true
        },
        {
            "inputs": [
                {
                    "internalType": "bytes32",
                    "name": "ref",
                    "type": "bytes32"
                }
            ],
            "name": "getSettlementRequest",
            "outputs": [
                {
                    "components": [
                        {
                            "internalType": "address",
                            "name": "transferor",
                            "type": "address"
                        },
                        {
                            "internalType": "address",
                            "name": "transferee",
                            "type": "address"
                        },
                        {
                            "internalType": "address",
                            "name": "security",
                            "type": "address"
                        },
                        {
                            "internalType": "bytes32",
                            "name": "status",
                            "type": "bytes32"
                        },
                        {
                            "internalType": "bytes32",
                            "name": "DPID",
                            "type": "bytes32"
                        },
                        {
                            "internalType": "address",
                            "name": "currency",
                            "type": "address"
                        },
                        {
                            "internalType": "uint256",
                            "name": "price",
                            "type": "uint256"
                        },
                        {
                            "internalType": "uint256",
                            "name": "askprice",
                            "type": "uint256"
                        },
                        {
                            "internalType": "uint256",
                            "name": "unitsToTransfer",
                            "type": "uint256"
                        },
                        {
                            "internalType": "uint256",
                            "name": "consideration",
                            "type": "uint256"
                        },
                        {
                            "internalType": "uint256",
                            "name": "executionDate",
                            "type": "uint256"
                        },
                        {
                            "internalType": "contract IOrder",
                            "name": "orderPool",
                            "type": "address"
                        },
                        {
                            "internalType": "bytes32",
                            "name": "partyRef",
                            "type": "bytes32"
                        },
                        {
                            "internalType": "bytes32",
                            "name": "counterpartyRef",
                            "type": "bytes32"
                        }
                    ],
                    "internalType": "struct ISettlor.settlement",
                    "name": "",
                    "type": "tuple"
                }
            ],
            "stateMutability": "view",
            "type": "function",
            "constant": true
        },
        {
            "inputs": [
                {
                    "internalType": "bytes32",
                    "name": "ref",
                    "type": "bytes32"
                },
                {
                    "internalType": "bytes32",
                    "name": "status",
                    "type": "bytes32"
                }
            ],
            "name": "setSettlementStatus",
            "outputs": [],
            "stateMutability": "nonpayable",
            "type": "function"
        },
        {
            "inputs": [
                {
                    "internalType": "bytes32",
                    "name": "poolId",
                    "type": "bytes32"
                }
            ],
            "name": "getSubscribers",
            "outputs": [
                {
                    "components": [
                        {
                            "internalType": "address",
                            "name": "investor",
                            "type": "address"
                        },
                        {
                            "internalType": "address",
                            "name": "asset",
                            "type": "address"
                        },
                        {
                            "internalType": "address",
                            "name": "currency",
                            "type": "address"
                        },
                        {
                            "internalType": "uint256",
                            "name": "amount",
                            "type": "uint256"
                        },
                        {
                            "internalType": "uint256",
                            "name": "price",
                            "type": "uint256"
                        }
                    ],
                    "internalType": "struct ISettlor.subscriptions[]",
                    "name": "",
                    "type": "tuple[]"
                }
            ],
            "stateMutability": "view",
            "type": "function",
            "constant": true
        },
        {
            "inputs": [
                {
                    "internalType": "bytes32",
                    "name": "ref",
                    "type": "bytes32"
                }
            ],
            "name": "getTrade",
            "outputs": [
                {
                    "internalType": "uint256",
                    "name": "",
                    "type": "uint256"
                },
                {
                    "internalType": "uint256",
                    "name": "",
                    "type": "uint256"
                }
            ],
            "stateMutability": "view",
            "type": "function",
            "constant": true
        },
        {
            "inputs": [
                {
                    "internalType": "address",
                    "name": "_token",
                    "type": "address"
                }
            ],
            "name": "getTradingFeeCollected",
            "outputs": [
                {
                    "internalType": "uint256",
                    "name": "",
                    "type": "uint256"
                }
            ],
            "stateMutability": "nonpayable",
            "type": "function"
        }
    ],
    "bytecode": "0x608060405234801561001057600080fd5b50600080546001600160a01b0319163390811782556040519091907f8be0079c531659141344cd1fd0a4f28419497f9722a3daafe3b4186f6b6457e0908290a361359b8061005f6000396000f3fe608060405234801561001057600080fd5b50600436106100cf5760003560e01c806379a7dc0e1161008c578063a3b1379911610066578063a3b137991461019b578063bfa0caa7146101bc578063c9fca3c7146101dc578063f2fde38b146101fc576100cf565b806379a7dc0e146101535780638da5cb5b14610173578063a2dc2ab714610188576100cf565b806304967159146100d457806304aec4f9146100e957806306d53a93146100fc5780632d9167461461010f5780636c19e78314610138578063715018a61461014b575b600080fd5b6100e76100e2366004612bd6565b61020f565b005b6100e76100f7366004612d6f565b610383565b6100e761010a3660046129f2565b610bf5565b61012261011d3660046129ba565b6114fe565b60405161012f919061304c565b60405180910390f35b6100e76101463660046129ba565b611605565b6100e7611645565b610166610161366004612ba6565b61169b565b60405161012f9190613406565b61017b61177f565b60405161012f9190612ea8565b6100e7610196366004612a42565b61178e565b6101ae6101a9366004612ba6565b611800565b60405161012f929190612e9a565b6101cf6101ca366004612ba6565b61181d565b60405161012f9190612fc3565b6101ef6101ea366004612bd6565b611a25565b60405161012f9190612f7f565b6100e761020a3660046129ba565b611bdf565b600a54604051634427673360e01b815260009182916001600160a01b0390911690634427673390610244903390600401612ea8565b60606040518083038186803b15801561025c57600080fd5b505afa158015610270573d6000803e3d6000fd5b505050506040513d601f19601f820116820180604052508101906102949190612bf7565b50600b54600087815260046020819052604080832060020154905163e0a87de160e01b815295975093955090936001600160a01b039283169363e0a87de1936102e09391169101612ea8565b60206040518083038186803b1580156102f857600080fd5b505afa15801561030c573d6000803e3d6000fd5b505050506040513d601f19601f8201168201806040525081019061033091906129d6565b90508261044560f41b148061034d57506001600160a01b03811633145b6103725760405162461bcd60e51b815260040161036990613285565b60405180910390fd5b61037c8585611c5d565b5050505050565b336000908152600660205260409020546103af5760405162461bcd60e51b815260040161036990613320565b6103b76127e6565b8251604051632bbc239560e11b81526001600160a01b03841691635778472a916103e4919060040161304c565b6101406040518083038186803b1580156103fd57600080fd5b505afa158015610411573d6000803e3d6000fd5b505050506040513d601f19601f820116820180604052508101906104359190612cb0565b905061043f6127e6565b6040808501519051632bbc239560e11b81526001600160a01b03851691635778472a9161046f919060040161304c565b6101406040518083038186803b15801561048857600080fd5b505afa15801561049c573d6000803e3d6000fd5b505050506040513d601f19601f820116820180604052508101906104c09190612cb0565b90506000836001600160a01b0316632541897f6040518163ffffffff1660e01b815260040160206040518083038186803b1580156104fd57600080fd5b505afa158015610511573d6000803e3d6000fd5b505050506040513d601f19601f8201168201806040525081019061053591906129d6565b90506000846001600160a01b0316636945c1fd6040518163ffffffff1660e01b815260040160206040518083038186803b15801561057257600080fd5b505afa158015610586573d6000803e3d6000fd5b505050506040513d601f19601f820116820180604052508101906105aa91906129d6565b90506000826001600160a01b031685602001516001600160a01b031614806105e75750816001600160a01b031685604001516001600160a01b0316145b6105f5578360e001516105fb565b8460e001515b90506000826001600160a01b031685602001516001600160a01b031614806106385750836001600160a01b031685604001516001600160a01b0316145b610646578560e0015161064c565b8460e001515b60a0890151909150600061065f86612510565b905061066961283d565b604051806101c00160405280866001600160a01b03168152602001856001600160a01b03168152602001886001600160a01b031681526020016650656e64696e6760c81b8152602001838152602001876001600160a01b031681526020018c606001518152602001610707886001600160a01b03168c602001516001600160a01b0316146106fb578d60a00151610701565b8d60c001515b8661261c565b81526020018481526020016107288d60c001516107238a61266d565b612708565b81526020018c6080015181526020018b6001600160a01b03168152602001886001600160a01b03168b602001516001600160a01b0316148061077f5750876001600160a01b03168b604001516001600160a01b0316145b61078d578c60400151610790565b8c515b8152602001876001600160a01b03168a602001516001600160a01b031614806107ce5750886001600160a01b03168a604001516001600160a01b0316145b6107d9578c516107df565b8c604001515b815250905060008b600001518c60400151604051602001610801929190612e9a565b60408051601f198184030181529181528151602092830120600081815260049093529120549091506001600160a01b0316610be757600081815260046020818152604092839020855181546001600160a01b03199081166001600160a01b039283161783559287015160018301805485169183169190911790559386015160028201805484169186169190911790556060860151600382015560808601519281019290925560a0850151600583018054831691851691909117905560c0850151600683015560e0850151600783015561010085015160088301556101208501516009830155610140850151600a830155610160850151600b83018054909216931692909217909155610180830151600c8201556101a0830151600d909101556109286128b1565b6040518060a00160405280876001600160a01b031681526020018a6001600160a01b03168152602001896001600160a01b031681526020018681526020018e60600151815250905060008c6001600160a01b03166338fff2d06040518163ffffffff1660e01b815260040160206040518083038186803b1580156109ab57600080fd5b505afa1580156109bf573d6000803e3d6000fd5b505050506040513d601f19601f820116820180604052508101906109e39190612bbe565b90506008600082815260200190815260200160002082908060018154018082558091505060019003906000526020600020906005020160009091909190915060008201518160000160006101000a8154816001600160a01b0302191690836001600160a01b0316021790555060208201518160010160006101000a8154816001600160a01b0302191690836001600160a01b0316021790555060408201518160020160006101000a8154816001600160a01b0302191690836001600160a01b0316021790555060608201518160030155608082015181600401555050896001600160a01b03167fab0c1b0f8a2aa65eafa61c088c2b5112bac9f59c4e56a9f17e9f3ec7e48df20030838b8b8e8c89608001518b8d60800151604051610b1099989796959493929190612f10565b60405180910390a2608084015160009081526005602090815260408083208054600181018255908452918320909101859055600b54905163e0a87de160e01b81526001600160a01b039091169063e0a87de190610b71908e90600401612ea8565b60206040518083038186803b158015610b8957600080fd5b505afa158015610b9d573d6000803e3d6000fd5b505050506040513d601f19601f82011682018060405250810190610bc191906129d6565b6001600160a01b03161415610be457610be48366436f6e6669726d60c81b611c5d565b50505b505050505050505050505050565b600a54604051634427673360e01b81526000916001600160a01b031690634427673390610c26903390600401612ea8565b60606040518083038186803b158015610c3e57600080fd5b505afa158015610c52573d6000803e3d6000fd5b505050506040513d601f19601f82011682018060405250810190610c769190612bf7565b5050905083866001600160a01b03166370a08231336040518263ffffffff1660e01b8152600401610ca79190612ea8565b60206040518083038186803b158015610cbf57600080fd5b505afa158015610cd3573d6000803e3d6000fd5b505050506040513d601f19601f82011682018060405250810190610cf79190612bbe565b10158015610d055750828410155b8015610d8d57506040516370a0823160e01b815282906001600160a01b038716906370a0823190610d3a903390600401612ea8565b60206040518083038186803b158015610d5257600080fd5b505afa158015610d66573d6000803e3d6000fd5b505050506040513d601f19601f82011682018060405250810190610d8a9190612bbe565b10155b8015610e3f5750600b5460405163e0a87de160e01b815233916001600160a01b03169063e0a87de190610dc4908a90600401612ea8565b60206040518083038186803b158015610ddc57600080fd5b505afa158015610df0573d6000803e3d6000fd5b505050506040513d601f19601f82011682018060405250810190610e1491906129d6565b6001600160a01b03161480610e2d57508061044560f41b145b80610e3f5750806420b236b4b760d91b145b610e5b5760405162461bcd60e51b8152600401610369906132d2565b6040516323b872dd60e01b81526001600160a01b038616906323b872dd90610e8b90339030908790600401612ebc565b602060405180830381600087803b158015610ea557600080fd5b505af1158015610eb9573d6000803e3d6000fd5b505050506040513d601f19601f82011682018060405250810190610edd9190612b86565b506040516323b872dd60e01b81526001600160a01b038716906323b872dd90610f0e90339030908990600401612ebc565b602060405180830381600087803b158015610f2857600080fd5b505af1158015610f3c573d6000803e3d6000fd5b505050506040513d601f19601f82011682018060405250810190610f609190612b86565b506000600160009054906101000a90046001600160a01b03166001600160a01b03166374dcc7a4886001600160a01b03166306fdde036040518163ffffffff1660e01b815260040160006040518083038186803b158015610fc057600080fd5b505afa158015610fd4573d6000803e3d6000fd5b505050506040513d6000823e601f3d908101601f19168201604052610ffc9190810190612c24565b896001600160a01b03166395d89b416040518163ffffffff1660e01b815260040160006040518083038186803b15801561103557600080fd5b505afa158015611049573d6000803e3d6000fd5b505050506040513d6000823e601f3d908101601f191682016040526110719190810190612c24565b8a8a6110808a6107238f61266d565b6003546040518763ffffffff1660e01b81526004016110a496959493929190613191565b602060405180830381600087803b1580156110be57600080fd5b505af11580156110d2573d6000803e3d6000fd5b505050506040513d601f19601f820116820180604052508101906110f691906129d6565b90506000816001600160a01b03166338fff2d06040518163ffffffff1660e01b815260040160206040518083038186803b15801561113357600080fd5b505afa158015611147573d6000803e3d6000fd5b505050506040513d601f19601f8201168201806040525081019061116b9190612bbe565b600081815260076020908152604080832080546001600160a01b0319166001600160a01b038e81169190911790915586811684526006909252918290208390556002549151631f29a8cd60e31b815292935060609291169063f94d4668906111d790859060040161304c565b60006040518083038186803b1580156111ef57600080fd5b505afa158015611203573d6000803e3d6000fd5b505050506040513d6000823e601f3d908101601f1916820160405261122b9190810190612aba565b50509050606061123a82612714565b90506060825167ffffffffffffffff8111801561125657600080fd5b50604051908082528060200260200182016040528015611280578160200160208202803683370190505b5060025460405163095ea7b360e01b81529192506001600160a01b03808d169263095ea7b3926112b69216908b90600401612f66565b602060405180830381600087803b1580156112d057600080fd5b505af11580156112e4573d6000803e3d6000fd5b505050506040513d601f19601f820116820180604052508101906113089190612b86565b5060025460405163095ea7b360e01b81526001600160a01b038d81169263095ea7b39261133d92909116908d90600401612f66565b602060405180830381600087803b15801561135757600080fd5b505af115801561136b573d6000803e3d6000fd5b505050506040513d601f19601f8201168201806040525081019061138f9190612b86565b5060005b8351811015611436578b6001600160a01b03168482815181106113b257fe5b60200260200101516001600160a01b031614156113e757898282815181106113d657fe5b60200260200101818152505061142e565b8a6001600160a01b03168482815181106113fd57fe5b60200260200101516001600160a01b0316141561142e578782828151811061142157fe5b6020026020010181815250505b600101611393565b5061143f6128df565b604051806080016040528084815260200183815260200160008460405160200161146a929190613166565b60408051808303601f190181529181529082526000602090920191909152600254905163172b958560e31b81529192506001600160a01b03169063b95cac28906114be908890309081908790600401613055565b600060405180830381600087803b1580156114d857600080fd5b505af11580156114ec573d6000803e3d6000fd5b50505050505050505050505050505050565b600d546000906001600160a01b0316331461152b5760405162461bcd60e51b8152600401610369906133c3565b6001600160a01b038083166000818152600960205260409081902054600d54915163a9059cbb60e01b8152909363a9059cbb9261156f929116908590600401612f66565b602060405180830381600087803b15801561158957600080fd5b505af115801561159d573d6000803e3d6000fd5b505050506040513d601f19601f820116820180604052508101906115c19190612b86565b506001600160a01b0383166000908152600960205260409020546115e59082612717565b6001600160a01b0384166000908152600960205260409020559050919050565b6116233361161161177f565b6001600160a01b0316146101aa61272d565b600c80546001600160a01b0319166001600160a01b0392909216919091179055565b6116513361161161177f565b600080546040516001600160a01b03909116907f8be0079c531659141344cd1fd0a4f28419497f9722a3daafe3b4186f6b6457e0908390a3600080546001600160a01b0319169055565b6116a361283d565b816116c05760405162461bcd60e51b81526004016103699061321c565b5060009081526004602081815260409283902083516101c08101855281546001600160a01b03908116825260018301548116938201939093526002820154831694810194909452600381015460608501529182015460808401526005820154811660a0840152600682015460c0840152600782015460e084015260088201546101008401526009820154610120840152600a820154610140840152600b82015416610160830152600c810154610180830152600d01546101a082015290565b6000546001600160a01b031690565b61179a3361161161177f565b600180546001600160a01b03199081166001600160a01b0398891617909155600395909555600a805486169487169490941790935560028054851692861692909217909155600b8054841692851692909217909155600d80549092169216919091179055565b600090815260046020526040902060068101546007909101549091565b600a54604051634427673360e01b81526060916000916001600160a01b0390911690634427673390611853903390600401612ea8565b60606040518083038186803b15801561186b57600080fd5b505afa15801561187f573d6000803e3d6000fd5b505050506040513d601f19601f820116820180604052508101906118a39190612bf7565b505090508061044560f41b14806118c15750806420b236b4b760d91b145b806119665750600b546000848152600760205260409081902054905163335d71f560e21b815233926001600160a01b039081169263cd75c7d49261190b9290911690600401612ea8565b60206040518083038186803b15801561192357600080fd5b505afa158015611937573d6000803e3d6000fd5b505050506040513d601f19601f8201168201806040525081019061195b91906129d6565b6001600160a01b0316145b6119825760405162461bcd60e51b815260040161036990613366565b600083815260086020908152604080832080548251818502810185019093528083529193909284015b82821015611a195760008481526020908190206040805160a0810182526005860290920180546001600160a01b0390811684526001808301548216858701526002830154909116928401929092526003810154606084015260040154608083015290835290920191016119ab565b50505050915050919050565b600a54604051634427673360e01b81526060916000916001600160a01b0390911690634427673390611a5b903390600401612ea8565b60606040518083038186803b158015611a7357600080fd5b505afa158015611a87573d6000803e3d6000fd5b505050506040513d601f19601f82011682018060405250810190611aab9190612bf7565b5050600b5460008581526007602052604080822054905163e0a87de160e01b815293945090926001600160a01b039283169263e0a87de192611af292911690600401612ea8565b60206040518083038186803b158015611b0a57600080fd5b505afa158015611b1e573d6000803e3d6000fd5b505050506040513d601f19601f82011682018060405250810190611b4291906129d6565b90508161044560f41b1480611b5f57506001600160a01b03811633145b611b7b5760405162461bcd60e51b81526004016103699061321c565b60008581526005602090815260409182902080548351818402810184019094528084529091830182828015611bcf57602002820191906000526020600020905b815481526020019060010190808311611bbb575b5050505050925050505b92915050565b611beb3361161161177f565b611c026001600160a01b03821615156101ab61272d565b600080546040516001600160a01b03808516939216917f8be0079c531659141344cd1fd0a4f28419497f9722a3daafe3b4186f6b6457e091a3600080546001600160a01b0319166001600160a01b0392909216919091179055565b6000828152600460208190526040909120015466436f6e6669726d60c81b821480611c905750816514995a9958dd60d21b145b611cac5760405162461bcd60e51b8152600401610369906131e5565b600083815260046020526040902060090154600354611ccb919061273f565b60038190556000848152600460205260408120600501549091611cff91611cfa906001600160a01b031661266d565b61261c565b90508266436f6e6669726d60c81b148015611d35575060008481526004602052604090206003015466436f6e6669726d60c81b14155b8015611d5957506000848152600460205260409020600301546311985a5b60e21b14155b1561235a576000848152600460209081526040808320600501546001600160a01b031683526009909152902054611d909082612775565b600085815260046020818152604080842060058101546001600160a01b031685526009808452828620969096559389905291905291015460035491517f2c12bee2b721b184f53454a63a5d1e0435e8ecd2429bbd55093350dc18819ef392611dfa92918590613126565b60405180910390a16000848152600460208190526040918290206005810154905492516323b872dd60e01b81526001600160a01b03918216936323b872dd93611e4b93909116913091879101612ebc565b602060405180830381600087803b158015611e6557600080fd5b505af1158015611e79573d6000803e3d6000fd5b505050506040513d601f19601f82011682018060405250810190611e9d9190612b86565b156120a957600084815260046020819052604091829020600b810154600c820154600d830154600a9093015494516381b5da1d60e01b81526001600160a01b03909216946381b5da1d94611ef394929301613126565b600060405180830381600087803b158015611f0d57600080fd5b505af1158015611f21573d6000803e3d6000fd5b505050600085815260046020526040908190206002810154815460018301546008840154600685015460059095015495516001600160a01b0394851697507fdb2a2159f49495b71579b052eff497e50c97deeb73b10e7e46de4f669dcb58f796611f9696948616959384169492931690612ee0565b60405180910390a260005b600083815260056020526040902054811015612084576000838152600560205260409020805486919083908110611fd457fe5b9060005260206000200154141561207c576000838152600560205260409020546000190181141561202957600083815260056020526040902080548290811061201957fe5b600091825260208220015561207c565b600083815260056020526040902080546001830190811061204657fe5b906000526020600020015460056000858152602001908152602001600020828154811061206f57fe5b6000918252602090912001555b600101611fa1565b50600084815260046020526040902066436f6e6669726d60c81b600390910155612355565b600084815260046020526040812060098101546005909101546120de91906120d9906001600160a01b031661266d565b612787565b600086815260046020819052604091829020600b810154600c8201546008830154600a9093015494516315e319fb60e31b81529596506001600160a01b039091169463af18cfd894612136949293926001920161313c565b600060405180830381600087803b15801561215057600080fd5b505af1158015612164573d6000803e3d6000fd5b5050506000868152600460208190526040808320600b810154600d820154600a9092015492516315e319fb60e31b81526001600160a01b03909116955063af18cfd8946121b99492938893919290910161313c565b600060405180830381600087803b1580156121d357600080fd5b505af11580156121e7573d6000803e3d6000fd5b5050506000868152600460208190526040918290206005810154815460019092015493516323b872dd60e01b81526001600160a01b0391821695506323b872dd9461223b9493831693921691879101612ebc565b602060405180830381600087803b15801561225557600080fd5b505af1158015612269573d6000803e3d6000fd5b505050506040513d601f19601f8201168201806040525081019061228d9190612b86565b5060008581526004602081905260409182902060028101546001820154825460089093015494516323b872dd60e01b81526001600160a01b03928316956323b872dd956122e4959385169490931692909101612ebc565b602060405180830381600087803b1580156122fe57600080fd5b505af1158015612312573d6000803e3d6000fd5b505050506040513d601f19601f820116820180604052508101906123369190612b86565b505060008481526004602052604090206311985a5b60e21b6003909101555b61250a565b826514995a9958dd60d21b141561250a576000848152600460205260408120600981015460059091015461239b91906120d9906001600160a01b031661266d565b6000868152600460208190526040918290206005810154815460019092015493516323b872dd60e01b81529495506001600160a01b03908116946323b872dd946123ee9493831693921691879101612ebc565b602060405180830381600087803b15801561240857600080fd5b505af115801561241c573d6000803e3d6000fd5b505050506040513d601f19601f820116820180604052508101906124409190612b86565b5060008581526004602081905260409182902060028101546001820154825460089093015494516323b872dd60e01b81526001600160a01b03928316956323b872dd95612497959385169490931692909101612ebc565b602060405180830381600087803b1580156124b157600080fd5b505af11580156124c5573d6000803e3d6000fd5b505050506040513d601f19601f820116820180604052508101906124e99190612b86565b505060008481526004602052604090206514995a9958dd60d21b6003909101555b50505050565b600b5460405163e0a87de160e01b815260009182916001600160a01b039091169063e0a87de190612545908690600401612ea8565b60206040518083038186803b15801561255d57600080fd5b505afa158015612571573d6000803e3d6000fd5b505050506040513d601f19601f8201168201806040525081019061259591906129d6565b600a5460405162157d5560e61b81529192506001600160a01b03169063055f5540906125c5908490600401612ea8565b60206040518083038186803b1580156125dd57600080fd5b505afa1580156125f1573d6000803e3d6000fd5b505050506040513d601f19601f820116820180604052508101906126159190612bbe565b9392505050565b600061262b821515600461272d565b8261263857506000611bd9565b670de0b6b3a76400008381029061265b9085838161265257fe5b0414600561272d565b82818161266457fe5b04915050611bd9565b600080826001600160a01b031663313ce5676040518163ffffffff1660e01b815260040160206040518083038186803b1580156126a957600080fd5b505afa1580156126bd573d6000803e3d6000fd5b505050506040513d601f19601f820116820180604052508101906126e19190612e00565b60ff16905060006126f3601283612717565b600a0a670de0b6b3a764000002949350505050565b6000612615838361273f565b90565b600061272783831115600161272d565b50900390565b8161273b5761273b81612793565b5050565b600082820261276384158061275c57508385838161275957fe5b04145b600361272d565b670de0b6b3a764000090049392505050565b6000828201612615848210158361272d565b6000612615838361261c565b62461bcd60e51b6000908152602060045260076024526642414c23000030600a808404818106603090810160081b95839006959095019082900491820690940160101b939093010160c81b604452606490fd5b60408051610140810190915280600081526000602082018190526040820181905260609091019081526020016000815260200160008152600060208201819052604082018190526060820181905260809091015290565b604080516101c081018252600080825260208201819052918101829052606081018290526080810182905260a0810182905260c0810182905260e08101829052610100810182905261012081018290526101408101829052610160810182905261018081018290526101a081019190915290565b6040805160a08101825260008082526020820181905291810182905260608101829052608081019190915290565b60405180608001604052806060815260200160608152602001606081526020016000151581525090565b8051611bd98161354d565b600082601f830112612924578081fd5b8151612937612932826134f5565b6134ce565b81815291506020808301908481018184028601820187101561295857600080fd5b60005b848110156129775781518452928201929082019060010161295b565b505050505092915050565b8035611bd98161354d565b805160058110611bd957600080fd5b805160038110611bd957600080fd5b805160028110611bd957600080fd5b6000602082840312156129cb578081fd5b81356126158161354d565b6000602082840312156129e7578081fd5b81516126158161354d565b600080600080600060a08688031215612a09578081fd5b8535612a148161354d565b94506020860135612a248161354d565b94979496505050506040830135926060810135926080909101359150565b60008060008060008060c08789031215612a5a578081fd5b8635612a658161354d565b9550602087013594506040870135612a7c8161354d565b93506060870135612a8c8161354d565b92506080870135612a9c8161354d565b915060a0870135612aac8161354d565b809150509295509295509295565b600080600060608486031215612ace578081fd5b835167ffffffffffffffff80821115612ae5578283fd5b818601915086601f830112612af8578283fd5b8151612b06612932826134f5565b80828252602080830192508086018b828387028901011115612b26578788fd5b8796505b84871015612b51578051612b3d8161354d565b845260019690960195928101928101612b2a565b508901519097509350505080821115612b68578283fd5b50612b7586828701612914565b925050604084015190509250925092565b600060208284031215612b97578081fd5b81518015158114612615578182fd5b600060208284031215612bb7578081fd5b5035919050565b600060208284031215612bcf578081fd5b5051919050565b60008060408385031215612be8578182fd5b50508035926020909101359150565b600080600060608486031215612c0b578081fd5b8351925060208401519150604084015190509250925092565b600060208284031215612c35578081fd5b815167ffffffffffffffff80821115612c4c578283fd5b818401915084601f830112612c5f578283fd5b815181811115612c6d578384fd5b612c80601f8201601f19166020016134ce565b9150808252856020828501011115612c96578384fd5b612ca7816020840160208601613521565b50949350505050565b6000610140808385031215612cc3578182fd5b612ccc816134ce565b9050612cd884846129ab565b8152612ce78460208501612909565b6020820152612cf98460408501612909565b6040820152612d0b846060850161299c565b6060820152612d1d84608085016129ab565b6080820152612d2f8460a0850161298d565b60a082015260c083015160c0820152612d4b8460e08501612909565b60e08201526101008381015190820152610120928301519281019290925250919050565b600080828403610100811215612d83578283fd5b60e0811215612d90578283fd5b50612d9b60e06134ce565b833581526020840135612dad8161354d565b8060208301525060408401356040820152606084013560608201526080840135608082015260a084013560a082015260c084013560c082015280925050612df78460e08501612982565b90509250929050565b600060208284031215612e11578081fd5b815160ff81168114612615578182fd5b6001600160a01b03169052565b6000815180845260208085019450808401835b83811015612e5d57815187529582019590820190600101612e41565b509495945050505050565b15159052565b60008151808452612e86816020860160208601613521565b601f01601f19169290920160200192915050565b918252602082015260400190565b6001600160a01b0391909116815260200190565b6001600160a01b039384168152919092166020820152604081019190915260600190565b6001600160a01b039586168152938516602085015260408401929092526060830152909116608082015260a00190565b6001600160a01b03998a16815260208101989098529588166040880152938716606087015291909516608085015260a084019490945260c083019390935260e08201929092526101008101919091526101200190565b6001600160a01b03929092168252602082015260400190565b6020808252825182820181905260009190848201906040850190845b81811015612fb757835183529284019291840191600101612f9b565b50909695505050505050565b602080825282518282018190526000919060409081850190868401855b8281101561303f57815180516001600160a01b031685528681015161300788870182612e21565b508581015161301887870182612e21565b50606081810151908601526080908101519085015260a09093019290850190600101612fe0565b5091979650505050505050565b90815260200190565b8481526001600160a01b038481166020808401919091529084166040830152608060608301819052835181840191909152805161010084018190526000929182019083906101208601905b808310156130c8576130b28451613515565b82529284019260019290920191908401906130a0565b50838701519350607f199250828682030160a08701526130e88185612e2e565b935050506040850151818584030160c08601526131058382612e6e565b92505050606084015161311b60e0850182612e68565b509695505050505050565b9283526020830191909152604082015260600190565b84815260208101849052608081016002841061315457fe5b60408201939093526060015292915050565b60006004841061317257fe5b838252604060208301526131896040830184612e2e565b949350505050565b600060c082526131a460c0830189612e6e565b82810360208401526131b68189612e6e565b6001600160a01b03978816604085015295909616606083015250608081019290925260a0909101529392505050565b60208082526019908201527f536574746c656d656e742073746174757320696e76616c696400000000000000604082015260600190565b60208082526043908201527f536574746c656d656e742072657175657374732063616e206f6e6c792062652060408201527f666574636865642062792061206465706f736974617279207061727469636970606082015262185b9d60ea1b608082015260a00190565b6020808252602d908201527f536574746c656d656e74206e6f7420646f6e65206279206465706f736974617260408201526c1e481c185c9d1a58da5c185b9d609a1b606082015260800190565b6020808252602e908201527f556e617574686f72697a65642061636365737320746f207365636f6e6461727960408201526d1034b9b9bab29036b0b730b3b2b960911b606082015260800190565b60208082526026908201527f536574746c656d656e74207265717565737465642066726f6d20696e76616c6960408201526519081c1bdbdb60d21b606082015260800190565b6020808252603a908201527f556e617574686f72697a6564206163636573732076696577696e67207375627360408201527f6372696265727320696e207365636f6e6461727920706f6f6c2e000000000000606082015260800190565b60208082526023908201527f556e617574686f72697a65642066656520636f6c6c656374696f6e2072657175604082015262195cdd60ea1b606082015260800190565b60006101c08201905061341a828451612e21565b602083015161342c6020840182612e21565b50604083015161343f6040840182612e21565b50606083015160608301526080830151608083015260a083015161346660a0840182612e21565b5060c0838101519083015260e08084015190830152610100808401519083015261012080840151908301526101408084015190830152610160808401516134af82850182612e21565b505061018083810151908301526101a092830151929091019190915290565b60405181810167ffffffffffffffff811182821017156134ed57600080fd5b604052919050565b600067ffffffffffffffff82111561350b578081fd5b5060209081020190565b6001600160a01b031690565b60005b8381101561353c578181015183820152602001613524565b8381111561250a5750506000910152565b6001600160a01b038116811461356257600080fd5b5056fea2646970667358221220908f4182d17ab90321713b78d16e08370a16c4bea025497e9e60740ba528fbaa64736f6c63430007010033",
    "immutableReferences": {},
    "source": "// External interface for settlement of trades\n// (c) Kallol Borah, 2022\n// \"SPDX-License-Identifier: BUSL1.1\"\n\npragma solidity 0.7.1;\npragma experimental ABIEncoderV2;\n\nimport \"./interfaces/ISettlor.sol\";\nimport \"./interfaces/IOrder.sol\";\nimport \"./interfaces/ITrade.sol\";\nimport './interfaces/IFactory.sol';\nimport './interfaces/VerifiedClient.sol';\nimport \"./interfaces/ISecondaryIssuePool.sol\";\nimport \"./interfaces/ISecondaryIssuePoolFactory.sol\";\n\nimport \"@balancer-labs/v2-solidity-utils/contracts/math/Math.sol\";\nimport \"@balancer-labs/v2-solidity-utils/contracts/math/FixedPoint.sol\";\nimport \"@balancer-labs/v2-solidity-utils/contracts/openzeppelin/ERC20.sol\";\nimport \"@balancer-labs/v2-solidity-utils/contracts/openzeppelin/IERC20.sol\";\nimport \"@balancer-labs/v2-solidity-utils/contracts/openzeppelin/Ownable.sol\";\n \ncontract SecondaryIssueManager is ISettlor, Ownable {\n\n    using Math for uint256;\n    using FixedPoint for uint256;\n\n    // balancer variables\n    address private factory;    \n\n    address private vault;\n\n    //fee\n    uint256 private fee;\n\n    // mapping settlement ref to trade execution data\n    mapping(bytes32 => ISettlor.settlement) settlements;\n\n    //mapping depository participants to trades they are part of\n    mapping(bytes32 => bytes32[]) private trades;\n\n    //mapping pool address to pool id\n    mapping(address => bytes32) private pools;\n\n    //mapping pool id to security token traded\n    mapping(bytes32 => address) private poolSecurity;\n\n    //mapping pool id to investors\n    mapping(bytes32 => subscriptions[]) internal investors; \n\n    // mapping token address to issuing fee collected\n    mapping(address => uint256) private fees;\n\n    // reference to the Verified Client contract\n    VerifiedClient private client;\n\n    // reference to the Verified factory contract that this asset manager checks security token issues with\n    IFactory private products;\n\n    address private bridge;\n\n    address private distribution;\n\n    event tradeSettled(address transferor,\n                        address transferee,\n                        uint256 unitsToTransfer,\n                        address indexed security,\n                        uint256 price,\n                        address currency\n                    );\n\n    event subscribers(address platform, bytes32 poolId, address party, address counterparty, \n                        address indexed securityTraded, address currencySettled, uint256 amount, uint256 price,\n                        bytes32 tradeRef, bytes32 DPID);\n\n    /**\n        Initializes this asset management contract\n        @param  _factory            reference to the secondary issue pool factory contract\n        @param  _issueFeePercentage  percentage of trading fee to be charged by the asset manager\n        @param  _client             address of Verified client contract\n        @param  _vault              address of balancer vault\n     */\n    function initialize(address _factory, uint256 _issueFeePercentage, address _client, address _vault, address _distribution, address _products) onlyOwner public {\n        factory = _factory;\n        fee = _issueFeePercentage;\n        client = VerifiedClient(_client);\n        vault = _vault;\n        products = IFactory(_products);\n        distribution = _distribution;\n    }\n\n    function setSigner(address _signer) onlyOwner external{\n        bridge = _signer;\n    }\n\n    /**\n        Joins existing (secondary) tokenized assets into pool by primary issue token holders\n        @param  security            reference to asset issued\n        @param  currency            reference to cash (settlement) token\n        @param  securityAmount      amount of security to issue\n        @param  minSecurityOrder    minimum order size of securities issued in pool\n        @param  cashAmount          amount of currency issued in pool\n     */\n    function issueSecondary(address security, address currency, uint256 securityAmount, uint256 minSecurityOrder, uint256 cashAmount) override external {\n        (bytes32 role, , ) = client.getRole(msg.sender);\n        require((IERC20(security).balanceOf(msg.sender)>=securityAmount && securityAmount>=minSecurityOrder\n                && IERC20(currency).balanceOf(msg.sender)>=cashAmount && (products.getDP(security)==msg.sender || role=='DP' || role=='Admin')), \"Unauthorized access to secondary issue manager\");\n        ERC20(currency).transferFrom(msg.sender, address(this), cashAmount);\n        ERC20(security).transferFrom(msg.sender, address(this), securityAmount);        \n        address pool = ISecondaryIssuePoolFactory(factory).create(\n            ERC20(security).name(),\n            ERC20(security).symbol(),\n            security,\n            currency,\n            _upscale(minSecurityOrder, _computeScalingFactor(IERC20(security))),\n            fee\n        );                \n        bytes32 poolId = ISecondaryIssuePool(pool).getPoolId();  \n        poolSecurity[poolId] = security; \n        pools[pool] = poolId;\n        // join the pool here                \n        (IERC20[] memory tokens, , ) = IVault(vault).getPoolTokens(poolId);\n        IAsset[] memory assets = _convertERC20sToAssets(tokens);\n        uint256[] memory maxAmountsIn = new uint256[](tokens.length);\n        ERC20(currency).approve(vault, cashAmount);\n        ERC20(security).approve(vault, securityAmount);\n        for (uint256 t; t < tokens.length; t++) {\n            if(tokens[t]==IERC20(security))\n                maxAmountsIn[t] = securityAmount;\n            else if(tokens[t]==IERC20(currency))\n                maxAmountsIn[t] = cashAmount;\n        }\n        IVault.JoinPoolRequest memory request = IVault.JoinPoolRequest({\n            assets: assets,\n            maxAmountsIn: maxAmountsIn,\n            userData: abi.encode(JoinKind.INIT, maxAmountsIn),\n            fromInternalBalance: false\n        });         \n        IVault(vault).joinPool(poolId, address(this), address(this), request);\n    }\n    \n    /**\n        Used by Secondary pools to request settlement for trades\n        @param  tradeToReport     data structure holding order matching data\n     */\n    function requestSettlement(ITrade.trade memory tradeToReport, IOrder orderbook) override external {\n        require(pools[msg.sender]!=\"\", \"Settlement requested from invalid pool\");\n        IOrder.order memory orderByParty = orderbook.getOrder(tradeToReport.partyRef);\n        IOrder.order memory orderByCounterparty = orderbook.getOrder(tradeToReport.counterpartyRef);\n        address securityTraded = orderbook.getSecurity(); \n        address currencySettled = orderbook.getCurrency();\n        address party = orderByParty.tokenIn==securityTraded || orderByParty.tokenOut==currencySettled ? orderByParty.party : orderByCounterparty.party;\n        address counterparty = orderByCounterparty.tokenIn==currencySettled || orderByCounterparty.tokenOut==securityTraded ? orderByCounterparty.party : orderByParty.party;\n        uint256 amount = tradeToReport.securityTraded; //orderByParty.tokenIn==securityTraded ? tradeToReport.securityTraded : tradeToReport.currencyTraded;\n        bytes32 _DPID = getTransferAgent(securityTraded);\n        ISettlor.settlement memory tradeToSettle = ISettlor.settlement({\n            transferor: party,\n            transferee: counterparty,\n            security: securityTraded,\n            status: \"Pending\",\n            currency: currencySettled,\n            price: tradeToReport.price,\n            askprice: FixedPoint.divDown(orderByParty.tokenIn==currencySettled ? tradeToReport.currencyTraded : tradeToReport.securityTraded, amount),\n            unitsToTransfer: amount,\n            consideration: _upscale(tradeToReport.currencyTraded, _computeScalingFactor(IERC20(currencySettled))),\n            executionDate: tradeToReport.dt,\n            partyRef: orderByParty.tokenIn==securityTraded || orderByParty.tokenOut==currencySettled ? tradeToReport.partyRef : tradeToReport.counterpartyRef,\n            counterpartyRef: orderByCounterparty.tokenIn==currencySettled || orderByCounterparty.tokenOut==securityTraded ? tradeToReport.counterpartyRef : tradeToReport.partyRef,\n            DPID: _DPID,\n            orderPool: orderbook\n        });\n        bytes32 ref = keccak256(abi.encodePacked(tradeToReport.partyRef, tradeToReport.counterpartyRef));\n        if(settlements[ref].transferor==address(0x0)){\n            settlements[ref] = tradeToSettle;\n            ISettlor.subscriptions memory subscription = ISettlor.subscriptions({\n                investor: counterparty,\n                asset: securityTraded,\n                currency: currencySettled, \n                amount: amount,   \n                price: tradeToReport.price\n            });\n            bytes32 poolId = orderbook.getPoolId();\n            //investors[orderbook.getPoolId()].push(ISettlor.subscriptions(counterparty, securityTraded, currencySettled, amount, tradeToReport.price));\n            investors[poolId].push(subscription);\n            emit subscribers(address(this), poolId, party, counterparty, securityTraded, currencySettled, amount, subscription.price, ref, tradeToSettle.DPID);\n            trades[tradeToSettle.DPID].push(ref);\n            if(products.getDP(securityTraded)==address(0x0))\n                setSettlement(ref, \"Confirm\");\n        }\n        //else{\n        //    if(products.getDP(securityTraded)==address(0x0))\n        //        setSettlement(ref, \"Confirm\");\n        //}\n    }\n    \n    /**\n        Fetches trade settlement requests for depository participant\n        @param  dpid         identifier of depository participant (eg, transfer agent) that is authorized to settle the asset \n     */\n    function getSettlementRequests(bytes32 dpid, bytes32 poolId) override external view returns(bytes32[] memory){\n        (bytes32 role, , ) = client.getRole(msg.sender);\n        address DP = products.getDP(poolSecurity[poolId]);\n        require(role=='DP' || DP==msg.sender, \"Settlement requests can only be fetched by a depositary participant\");\n        /*if(poolId!=\"\"){\n            bytes32[] memory refs = new bytes32[](trades[dpid].length);\n            uint j=0;\n            for(uint256 i=0; i<trades[dpid].length; i++){\n                 IOrder ob = settlements[trades[dpid][i]].orderPool;\n                 bytes32 poolid = ob.getPoolId();\n                 if(poolid==poolId){\n                     refs[j] == trades[dpid][i];\n                     j++;\n                 }\n            }\n            return refs;\n        }\n        else{*/\n            return trades[dpid];\n        //}\n    }\n\n    /**\n        Fetches a specific trade settlement request        \n        @param  ref         reference to the trade\n     */\n    function getSettlementRequest(bytes32 ref) override external view returns(settlement memory){\n        require(ref!=\"\", \"Settlement requests can only be fetched by a depositary participant\"); \n        return settlements[ref];\n    }\n    event payFees(uint256 consideration, uint256 fee, uint256 toPay);\n    /**\n        Sets settlement status for trades executed\n        @param  ref         reference to the trade executed\n        @param  status      settlement status\n     */\n    function setSettlementStatus(bytes32 ref, bytes32 status) override external{\n        (bytes32 role, bytes32 id, ) = client.getRole(msg.sender);\n        address DP = products.getDP(settlements[ref].security);\n        require(role=='DP' || DP==msg.sender, \"Settlement not done by depositary participant\");\n        setSettlement(ref, status);\n    }\n\n    function setSettlement(bytes32 ref, bytes32 status) private {\n        bytes32 DPID = settlements[ref].DPID;\n        require(status==\"Confirm\" || status==\"Reject\", \"Settlement status invalid\");\n        //fee = Math.mul(settlements[ref].consideration, fee);\n        //uint256 pay = FixedPoint.divDown(fee, FixedPoint.ONE * _computeScalingFactor(IERC20(settlements[ref].currency)));\n        fee = FixedPoint.mulDown(settlements[ref].consideration, fee);\n        uint256 pay = FixedPoint.divDown(fee, _computeScalingFactor(IERC20(settlements[ref].currency)));\n        if(status==\"Confirm\" && settlements[ref].status!=\"Confirm\" && settlements[ref].status!=\"Fail\"){            \n            fees[settlements[ref].currency] = Math.add(fees[settlements[ref].currency], pay);\n            emit payFees(settlements[ref].consideration, fee, pay);\n            //IERC20(settlements[ref].currency).approve(address(this), pay);\n            if(IERC20(settlements[ref].currency).transferFrom(settlements[ref].transferor, address(this), pay)){                \n                settlements[ref].orderPool.orderFilled(settlements[ref].partyRef, settlements[ref].counterpartyRef, settlements[ref].executionDate);\n                emit tradeSettled(settlements[ref].transferor, \n                                    settlements[ref].transferee, \n                                    settlements[ref].unitsToTransfer,\n                                    settlements[ref].security,\n                                    settlements[ref].price,\n                                    settlements[ref].currency\n                                );\n                for(uint i=0; i<trades[DPID].length; i++){\n                    if(trades[DPID][i]==ref){\n                        if(i==trades[DPID].length-1)\n                            delete trades[DPID][i];\n                        else\n                            trades[DPID][i] = trades[DPID][i+1];\n                    }\n                }\n                settlements[ref].status = \"Confirm\";                \n            }\n            else{\n                uint256 consideration = _downscaleDown(settlements[ref].consideration, _computeScalingFactor(IERC20(settlements[ref].currency)));\n                settlements[ref].orderPool.revertTrade(settlements[ref].partyRef, settlements[ref].unitsToTransfer, IOrder.Order.Sell, settlements[ref].executionDate);\n                settlements[ref].orderPool.revertTrade(settlements[ref].counterpartyRef, consideration, IOrder.Order.Buy, settlements[ref].executionDate);\n                IERC20(settlements[ref].currency).transferFrom(settlements[ref].transferor, settlements[ref].transferee, consideration);\n                IERC20(settlements[ref].security).transferFrom(settlements[ref].transferee, settlements[ref].transferor, settlements[ref].unitsToTransfer);\n                settlements[ref].status = \"Fail\";\n            }\n        }\n        else if(status==\"Reject\"){\n            uint256 consideration = _downscaleDown(settlements[ref].consideration, _computeScalingFactor(IERC20(settlements[ref].currency)));\n            //settlements[ref].orderPool.revertTrade(settlements[ref].partyRef, settlements[ref].unitsToTransfer, IOrder.Order.Sell, settlements[ref].executionDate);\n            //settlements[ref].orderPool.revertTrade(settlements[ref].counterpartyRef, consideration, IOrder.Order.Buy, settlements[ref].executionDate);\n            IERC20(settlements[ref].currency).transferFrom(settlements[ref].transferor, settlements[ref].transferee, consideration);\n            IERC20(settlements[ref].security).transferFrom(settlements[ref].transferee, settlements[ref].transferor, settlements[ref].unitsToTransfer);\n            settlements[ref].status = \"Reject\";\n        }            \n    }\n\n    /**\n        Retrieve investors in secondary pools\n        @param  poolId  pool identity\n     */\n    function getSubscribers(bytes32 poolId) override external view returns(ISettlor.subscriptions[] memory){\n        (bytes32 role, , ) = client.getRole(msg.sender);\n        require(role=='DP' || role=='Admin' || products.getHolder(poolSecurity[poolId])==msg.sender, \"Unauthorized access viewing subscribers in secondary pool.\");\n        return investors[poolId];\n    }\n\n    /**\n        Retrieve trade settlement\n        @param  ref settlement reference\n     */\n    function getTrade(bytes32 ref) external view override returns (uint256, uint256) {\n        return (settlements[ref].price, settlements[ref].askprice);\n    }\n\n    /**\n        Gets transfer agent for the security in the trade\n        @param  security  address of security traded\n     */\n    function getTransferAgent(address security) private view returns(bytes32){\n        address dp = products.getDP(security);\n        return(client.getTransferAgent(dp));\n    } \n\n    /**\n        Fetch trading fee collected in Balancer vault\n        @param  _token  address of token in which fee is collected\n     */\n    function getTradingFeeCollected(address _token) override external returns(uint256){\n        require(msg.sender==distribution, \"Unauthorized fee collection request\");\n        /*IERC20[] memory tokens = new IERC20[](1);\n        tokens[0] = IERC20(_token);\n        uint256[] memory amounts = IVault(vault).getProtocolFeesCollector().getCollectedFeeAmounts(tokens);\n        IVault(vault).getProtocolFeesCollector().withdrawCollectedFees(tokens, amounts, distribution);\n        return amounts[0];*/\n        uint256 feeCollected = fees[_token];\n        IERC20(_token).transfer(distribution, feeCollected);\n        fees[_token] = Math.sub(fees[_token], feeCollected);\n        return feeCollected;\n    }   \n\n    /**\n     * @dev This helper function is a fast and cheap way to convert between IERC20[] and IAsset[] types\n     */\n    function _convertERC20sToAssets(IERC20[] memory tokens) internal pure returns (IAsset[] memory assets) {\n        // solhint-disable-next-line no-inline-assembly\n        assembly {\n            assets := tokens\n        }\n    }\n\n    /**\n     * @dev Returns a scaling factor that, when multiplied to a token amount for `token`, normalizes its balance as if\n     * it had 18 decimals.\n     */\n    function _computeScalingFactor(IERC20 token) internal view returns (uint256) {\n        // Tokens that don't implement the `decimals` method are not supported.\n        uint256 tokenDecimals = ERC20(address(token)).decimals();\n\n        // Tokens with more than 18 decimals are not supported.\n        uint256 decimalsDifference = Math.sub(18, tokenDecimals);\n        return FixedPoint.ONE * 10**decimalsDifference;\n    }\n\n    /**\n     * @dev Reverses the `scalingFactor` applied to `amount`, resulting in a smaller or equal value depending on\n     * whether it needed scaling or not. The result is rounded down.\n     */\n    function _downscaleDown(uint256 amount, uint256 scalingFactor) internal pure returns (uint256) {\n        return FixedPoint.divDown(amount, scalingFactor);\n    }\n\n    /**\n     * @dev Applies `scalingFactor` to `amount`, resulting in a larger or equal value depending on whether it needed\n     * scaling or not.\n     */\n    function _upscale(uint256 amount, uint256 scalingFactor) internal pure returns (uint256) {\n        // Upscale rounding wouldn't necessarily always go in the same direction: in a swap for example the balance of\n        // token in should be rounded up, and that of token out rounded down. This is the only place where we round in\n        // the same direction for all amounts, as the impact of this rounding is expected to be minimal (and there's no\n        // rounding error unless `_scalingFactor()` is overriden).\n        return FixedPoint.mulDown(amount, scalingFactor);\n    }\n\n}",
    "sourcePath": "D:\\Code\\verified-balancer\\contracts\\SecondaryIssueManager.sol",
    "compiler": {
        "name": "solc",
        "version": "0.7.1+commit.f4a555be.Emscripten.clang"
    },
    "schemaVersion": "3.4.3",
    "updatedAt": "2023-03-01T02:03:50.393Z",
    "networkType": "ethereum",
    "devdoc": {
        "kind": "dev",
        "methods": {
            "getSettlementRequest(bytes32)": {
                "params": {
                    "ref": "reference to the trade"
                }
            },
            "getSettlementRequests(bytes32,bytes32)": {
                "params": {
                    "dpid": "identifier of depository participant (eg, transfer agent) that is authorized to settle the asset "
                }
            },
            "getSubscribers(bytes32)": {
                "params": {
                    "poolId": "pool identity"
                }
            },
            "getTrade(bytes32)": {
                "params": {
                    "ref": "settlement reference"
                }
            },
            "getTradingFeeCollected(address)": {
                "params": {
                    "_token": "address of token in which fee is collected"
                }
            },
            "initialize(address,uint256,address,address,address,address)": {
                "params": {
                    "_client": "address of Verified client contract",
                    "_factory": "reference to the secondary issue pool factory contract",
                    "_issueFeePercentage": "percentage of trading fee to be charged by the asset manager",
                    "_vault": "address of balancer vault"
                }
            },
            "issueSecondary(address,address,uint256,uint256,uint256)": {
                "params": {
                    "cashAmount": "amount of currency issued in pool",
                    "currency": "reference to cash (settlement) token",
                    "minSecurityOrder": "minimum order size of securities issued in pool",
                    "security": "reference to asset issued",
                    "securityAmount": "amount of security to issue"
                }
            },
            "owner()": {
                "details": "Returns the address of the current owner."
            },
            "renounceOwnership()": {
                "details": "Leaves the contract without owner. It will not be possible to call `onlyOwner` functions anymore. Can only be called by the current owner. NOTE: Renouncing ownership will leave the contract without an owner, thereby removing any functionality that is only available to the owner."
            },
            "requestSettlement((bytes32,address,bytes32,uint256,uint256,uint256,uint256),address)": {
                "params": {
                    "tradeToReport": "data structure holding order matching data"
                }
            },
            "setSettlementStatus(bytes32,bytes32)": {
                "params": {
                    "ref": "reference to the trade executed",
                    "status": "settlement status"
                }
            },
            "transferOwnership(address)": {
                "details": "Transfers ownership of the contract to a new account (`newOwner`). Can only be called by the current owner."
            }
        },
        "version": 1
    },
    "userdoc": {
        "kind": "user",
        "methods": {
            "getSettlementRequest(bytes32)": {
                "notice": "Fetches a specific trade settlement request        "
            },
            "getSettlementRequests(bytes32,bytes32)": {
                "notice": "Fetches trade settlement requests for depository participant"
            },
            "getSubscribers(bytes32)": {
                "notice": "Retrieve investors in secondary pools"
            },
            "getTrade(bytes32)": {
                "notice": "Retrieve trade settlement"
            },
            "getTradingFeeCollected(address)": {
                "notice": "Fetch trading fee collected in Balancer vault"
            },
            "initialize(address,uint256,address,address,address,address)": {
                "notice": "Initializes this asset management contract"
            },
            "issueSecondary(address,address,uint256,uint256,uint256)": {
                "notice": "Joins existing (secondary) tokenized assets into pool by primary issue token holders"
            },
            "requestSettlement((bytes32,address,bytes32,uint256,uint256,uint256,uint256),address)": {
                "notice": "Used by Secondary pools to request settlement for trades"
            },
            "setSettlementStatus(bytes32,bytes32)": {
                "notice": "Sets settlement status for trades executed"
            }
        },
        "version": 1
    }
}