{
    "contractName": "SecondaryIssueManager",
    "abi": [
        {
            "anonymous": false,
            "inputs": [
                {
                    "indexed": true,
                    "internalType": "address",
                    "name": "previousOwner",
                    "type": "address"
                },
                {
                    "indexed": true,
                    "internalType": "address",
                    "name": "newOwner",
                    "type": "address"
                }
            ],
            "name": "OwnershipTransferred",
            "type": "event"
        },
        {
            "anonymous": false,
            "inputs": [
                {
                    "components": [
                        {
                            "internalType": "address",
                            "name": "transferor",
                            "type": "address"
                        },
                        {
                            "internalType": "address",
                            "name": "transferee",
                            "type": "address"
                        },
                        {
                            "internalType": "address",
                            "name": "security",
                            "type": "address"
                        },
                        {
                            "internalType": "bytes32",
                            "name": "status",
                            "type": "bytes32"
                        },
                        {
                            "internalType": "bytes32",
                            "name": "transferorDPID",
                            "type": "bytes32"
                        },
                        {
                            "internalType": "bytes32",
                            "name": "transfereeDPID",
                            "type": "bytes32"
                        },
                        {
                            "internalType": "address",
                            "name": "currency",
                            "type": "address"
                        },
                        {
                            "internalType": "uint256",
                            "name": "price",
                            "type": "uint256"
                        },
                        {
                            "internalType": "uint256",
                            "name": "askprice",
                            "type": "uint256"
                        },
                        {
                            "internalType": "uint256",
                            "name": "unitsToTransfer",
                            "type": "uint256"
                        },
                        {
                            "internalType": "uint256",
                            "name": "consideration",
                            "type": "uint256"
                        },
                        {
                            "internalType": "uint256",
                            "name": "executionDate",
                            "type": "uint256"
                        },
                        {
                            "internalType": "contract IOrder",
                            "name": "orderPool",
                            "type": "address"
                        },
                        {
                            "internalType": "bytes32",
                            "name": "partyRef",
                            "type": "bytes32"
                        },
                        {
                            "internalType": "bytes32",
                            "name": "counterpartyRef",
                            "type": "bytes32"
                        }
                    ],
                    "indexed": false,
                    "internalType": "struct ISettlor.settlement",
                    "name": "trade",
                    "type": "tuple"
                }
            ],
            "name": "settle",
            "type": "event"
        },
        {
            "anonymous": false,
            "inputs": [
                {
                    "indexed": false,
                    "internalType": "address",
                    "name": "security",
                    "type": "address"
                },
                {
                    "indexed": false,
                    "internalType": "address",
                    "name": "platform",
                    "type": "address"
                },
                {
                    "indexed": false,
                    "internalType": "bytes32",
                    "name": "poolId",
                    "type": "bytes32"
                },
                {
                    "components": [
                        {
                            "internalType": "address",
                            "name": "investor",
                            "type": "address"
                        },
                        {
                            "internalType": "address",
                            "name": "asset",
                            "type": "address"
                        },
                        {
                            "internalType": "address",
                            "name": "currency",
                            "type": "address"
                        },
                        {
                            "internalType": "uint256",
                            "name": "amount",
                            "type": "uint256"
                        },
                        {
                            "internalType": "uint256",
                            "name": "price",
                            "type": "uint256"
                        }
                    ],
                    "indexed": false,
                    "internalType": "struct ISettlor.subscriptions[]",
                    "name": "investors",
                    "type": "tuple[]"
                }
            ],
            "name": "subscribers",
            "type": "event"
        },
        {
            "anonymous": false,
            "inputs": [
                {
                    "indexed": true,
                    "internalType": "address",
                    "name": "transferor",
                    "type": "address"
                },
                {
                    "indexed": true,
                    "internalType": "address",
                    "name": "transferee",
                    "type": "address"
                },
                {
                    "indexed": false,
                    "internalType": "uint256",
                    "name": "unitsToTransfer",
                    "type": "uint256"
                },
                {
                    "indexed": false,
                    "internalType": "address",
                    "name": "security",
                    "type": "address"
                },
                {
                    "indexed": false,
                    "internalType": "uint256",
                    "name": "price",
                    "type": "uint256"
                },
                {
                    "indexed": false,
                    "internalType": "address",
                    "name": "currency",
                    "type": "address"
                }
            ],
            "name": "tradeSettled",
            "type": "event"
        },
        {
            "inputs": [],
            "name": "owner",
            "outputs": [
                {
                    "internalType": "address",
                    "name": "",
                    "type": "address"
                }
            ],
            "stateMutability": "view",
            "type": "function",
            "constant": true
        },
        {
            "inputs": [],
            "name": "renounceOwnership",
            "outputs": [],
            "stateMutability": "nonpayable",
            "type": "function"
        },
        {
            "inputs": [
                {
                    "internalType": "address",
                    "name": "newOwner",
                    "type": "address"
                }
            ],
            "name": "transferOwnership",
            "outputs": [],
            "stateMutability": "nonpayable",
            "type": "function"
        },
        {
            "inputs": [
                {
                    "internalType": "address",
                    "name": "_factory",
                    "type": "address"
                },
                {
                    "internalType": "uint256",
                    "name": "_issueFeePercentage",
                    "type": "uint256"
                },
                {
                    "internalType": "address",
                    "name": "_client",
                    "type": "address"
                },
                {
                    "internalType": "address",
                    "name": "_vault",
                    "type": "address"
                },
                {
                    "internalType": "address",
                    "name": "_distribution",
                    "type": "address"
                },
                {
                    "internalType": "address",
                    "name": "_products",
                    "type": "address"
                }
            ],
            "name": "initialize",
            "outputs": [],
            "stateMutability": "nonpayable",
            "type": "function"
        },
        {
            "inputs": [
                {
                    "internalType": "address",
                    "name": "_signer",
                    "type": "address"
                }
            ],
            "name": "setSigner",
            "outputs": [],
            "stateMutability": "nonpayable",
            "type": "function"
        },
        {
            "inputs": [
                {
                    "internalType": "address",
                    "name": "security",
                    "type": "address"
                },
                {
                    "internalType": "address",
                    "name": "currency",
                    "type": "address"
                },
                {
                    "internalType": "uint256",
                    "name": "securityAmount",
                    "type": "uint256"
                },
                {
                    "internalType": "uint256",
                    "name": "minSecurityOrder",
                    "type": "uint256"
                },
                {
                    "internalType": "uint256",
                    "name": "cashAmount",
                    "type": "uint256"
                },
                {
                    "internalType": "bytes32",
                    "name": "_hashedMessage",
                    "type": "bytes32"
                },
                {
                    "internalType": "uint8",
                    "name": "_v",
                    "type": "uint8"
                },
                {
                    "internalType": "bytes32",
                    "name": "_r",
                    "type": "bytes32"
                },
                {
                    "internalType": "bytes32",
                    "name": "_s",
                    "type": "bytes32"
                }
            ],
            "name": "issueSecondary",
            "outputs": [],
            "stateMutability": "nonpayable",
            "type": "function"
        },
        {
            "inputs": [
                {
                    "components": [
                        {
                            "internalType": "bytes32",
                            "name": "partyRef",
                            "type": "bytes32"
                        },
                        {
                            "internalType": "address",
                            "name": "partyAddress",
                            "type": "address"
                        },
                        {
                            "internalType": "bytes32",
                            "name": "counterpartyRef",
                            "type": "bytes32"
                        },
                        {
                            "internalType": "uint256",
                            "name": "price",
                            "type": "uint256"
                        },
                        {
                            "internalType": "uint256",
                            "name": "dt",
                            "type": "uint256"
                        },
                        {
                            "internalType": "uint256",
                            "name": "securityTraded",
                            "type": "uint256"
                        },
                        {
                            "internalType": "uint256",
                            "name": "currencyTraded",
                            "type": "uint256"
                        }
                    ],
                    "internalType": "struct ITrade.trade",
                    "name": "tradeToReport",
                    "type": "tuple"
                },
                {
                    "internalType": "contract IOrder",
                    "name": "orderbook",
                    "type": "address"
                }
            ],
            "name": "requestSettlement",
            "outputs": [],
            "stateMutability": "nonpayable",
            "type": "function"
        },
        {
            "inputs": [
                {
                    "internalType": "bytes32",
                    "name": "dpid",
                    "type": "bytes32"
                },
                {
                    "internalType": "bytes32",
                    "name": "poolId",
                    "type": "bytes32"
                }
            ],
            "name": "getSettlementRequests",
            "outputs": [
                {
                    "internalType": "bytes32[]",
                    "name": "",
                    "type": "bytes32[]"
                }
            ],
            "stateMutability": "view",
            "type": "function",
            "constant": true
        },
        {
            "inputs": [
                {
                    "internalType": "bytes32",
                    "name": "ref",
                    "type": "bytes32"
                }
            ],
            "name": "getSettlementRequest",
            "outputs": [
                {
                    "components": [
                        {
                            "internalType": "address",
                            "name": "transferor",
                            "type": "address"
                        },
                        {
                            "internalType": "address",
                            "name": "transferee",
                            "type": "address"
                        },
                        {
                            "internalType": "address",
                            "name": "security",
                            "type": "address"
                        },
                        {
                            "internalType": "bytes32",
                            "name": "status",
                            "type": "bytes32"
                        },
                        {
                            "internalType": "bytes32",
                            "name": "transferorDPID",
                            "type": "bytes32"
                        },
                        {
                            "internalType": "bytes32",
                            "name": "transfereeDPID",
                            "type": "bytes32"
                        },
                        {
                            "internalType": "address",
                            "name": "currency",
                            "type": "address"
                        },
                        {
                            "internalType": "uint256",
                            "name": "price",
                            "type": "uint256"
                        },
                        {
                            "internalType": "uint256",
                            "name": "askprice",
                            "type": "uint256"
                        },
                        {
                            "internalType": "uint256",
                            "name": "unitsToTransfer",
                            "type": "uint256"
                        },
                        {
                            "internalType": "uint256",
                            "name": "consideration",
                            "type": "uint256"
                        },
                        {
                            "internalType": "uint256",
                            "name": "executionDate",
                            "type": "uint256"
                        },
                        {
                            "internalType": "contract IOrder",
                            "name": "orderPool",
                            "type": "address"
                        },
                        {
                            "internalType": "bytes32",
                            "name": "partyRef",
                            "type": "bytes32"
                        },
                        {
                            "internalType": "bytes32",
                            "name": "counterpartyRef",
                            "type": "bytes32"
                        }
                    ],
                    "internalType": "struct ISettlor.settlement",
                    "name": "",
                    "type": "tuple"
                }
            ],
            "stateMutability": "view",
            "type": "function",
            "constant": true
        },
        {
            "inputs": [
                {
                    "internalType": "bytes32",
                    "name": "ref",
                    "type": "bytes32"
                },
                {
                    "internalType": "bytes32",
                    "name": "status",
                    "type": "bytes32"
                }
            ],
            "name": "setSettlementStatus",
            "outputs": [],
            "stateMutability": "nonpayable",
            "type": "function"
        },
        {
            "inputs": [
                {
                    "internalType": "bytes32",
                    "name": "poolId",
                    "type": "bytes32"
                },
                {
                    "internalType": "bytes32",
                    "name": "_hashedMessage",
                    "type": "bytes32"
                },
                {
                    "internalType": "uint8",
                    "name": "_v",
                    "type": "uint8"
                },
                {
                    "internalType": "bytes32",
                    "name": "_r",
                    "type": "bytes32"
                },
                {
                    "internalType": "bytes32",
                    "name": "_s",
                    "type": "bytes32"
                }
            ],
            "name": "getSubscribers",
            "outputs": [
                {
                    "components": [
                        {
                            "internalType": "address",
                            "name": "investor",
                            "type": "address"
                        },
                        {
                            "internalType": "address",
                            "name": "asset",
                            "type": "address"
                        },
                        {
                            "internalType": "address",
                            "name": "currency",
                            "type": "address"
                        },
                        {
                            "internalType": "uint256",
                            "name": "amount",
                            "type": "uint256"
                        },
                        {
                            "internalType": "uint256",
                            "name": "price",
                            "type": "uint256"
                        }
                    ],
                    "internalType": "struct ISettlor.subscriptions[]",
                    "name": "",
                    "type": "tuple[]"
                }
            ],
            "stateMutability": "view",
            "type": "function",
            "constant": true
        },
        {
            "inputs": [
                {
                    "internalType": "bytes32",
                    "name": "ref",
                    "type": "bytes32"
                }
            ],
            "name": "getTrade",
            "outputs": [
                {
                    "internalType": "uint256",
                    "name": "",
                    "type": "uint256"
                },
                {
                    "internalType": "uint256",
                    "name": "",
                    "type": "uint256"
                }
            ],
            "stateMutability": "view",
            "type": "function",
            "constant": true
        },
        {
            "inputs": [
                {
                    "internalType": "address",
                    "name": "_token",
                    "type": "address"
                }
            ],
            "name": "getTradingFeeCollected",
            "outputs": [
                {
                    "internalType": "uint256",
                    "name": "",
                    "type": "uint256"
                }
            ],
            "stateMutability": "nonpayable",
            "type": "function"
        }
    ],
    "bytecode": "0x608060405234801561001057600080fd5b50600080546001600160a01b0319163390811782556040519091907f8be0079c531659141344cd1fd0a4f28419497f9722a3daafe3b4186f6b6457e0908290a36139018061005f6000396000f3fe608060405234801561001057600080fd5b50600436106100cf5760003560e01c80638da5cb5b1161008c578063c9fca3c711610066578063c9fca3c7146101a9578063d504ca2d146101c9578063f1a163c1146101dc578063f2fde38b146101fc576100cf565b80638da5cb5b14610160578063a2dc2ab714610175578063a3b1379914610188576100cf565b806304967159146100d457806304aec4f9146100e95780632d916746146100fc5780636c19e78314610125578063715018a61461013857806379a7dc0e14610140575b600080fd5b6100e76100e2366004612e7b565b61020f565b005b6100e76100f736600461305c565b610fde565b61010f61010a366004612c2a565b611782565b60405161011c91906132df565b60405180910390f35b6100e7610133366004612c2a565b611889565b6100e76118c9565b61015361014e366004612e4b565b61191f565b60405161011c9190613727565b610168611a0e565b60405161011c91906131c1565b6100e7610183366004612ce7565b611a1d565b61019b610196366004612e4b565b611a8f565b60405161011c929190613182565b6101bc6101b7366004612e7b565b611aac565b60405161011c9190613212565b6100e76101d7366004612c62565b611bbd565b6101ef6101ea366004612ec9565b612487565b60405161011c9190613256565b6100e761020a366004612c2a565b612722565b600a54604051634427673360e01b815260009182916001600160a01b03909116906344276733906102449033906004016131c1565b60606040518083038186803b15801561025c57600080fd5b505afa158015610270573d6000803e3d6000fd5b505050506040513d601f19601f820116820180604052508101906102949190612e9c565b50915091508161044560f41b146102c65760405162461bcd60e51b81526004016102bd906135a6565b60405180910390fd5b600084815260046020819052604090912090810154600590910154828214806102ee57508083145b61030a5760405162461bcd60e51b81526004016102bd906134b5565b8466436f6e6669726d60c81b148061032a5750846514995a9958dd60d21b145b6103465760405162461bcd60e51b81526004016102bd90613506565b6000868152600460205260409020600a015466436f6e6669726d60c81b8614801561038c575060008781526004602052604090206003015466436f6e6669726d60c81b14155b80156103b057506000878152600460205260409020600301546311985a5b60e21b14155b15610c10576000878152600460209081526040808320600601546001600160a01b0316835260099091529020546003546103f591906103f09084906127a0565b6127cb565b60008881526004602081815260408084206006810180546001600160a01b0390811687526009855292862096909655938c9052919052915490546003549183169263095ea7b39291169061044a9085906127a0565b6040518363ffffffff1660e01b81526004016104679291906131f9565b602060405180830381600087803b15801561048157600080fd5b505af1158015610495573d6000803e3d6000fd5b505050506040513d601f19601f820116820180604052508101906104b99190612e2b565b506000878152600460205260409020600681015490546003546001600160a01b03928316926323b872dd92169030906104f39086906127a0565b6040518463ffffffff1660e01b8152600401610511939291906131d5565b602060405180830381600087803b15801561052b57600080fd5b505af115801561053f573d6000803e3d6000fd5b505050506040513d601f19601f820116820180604052508101906105639190612e2b565b1561085957600087815260046020819052604091829020600c810154600d820154600e830154600b9093015494516381b5da1d60e01b81526001600160a01b03909216946381b5da1d946105b9949293016133b9565b600060405180830381600087803b1580156105d357600080fd5b505af11580156105e7573d6000803e3d6000fd5b505050600088815260046020526040908190206001810154815460098301546002840154600785015460069095015495516001600160a01b039485169750928416957fdb2a2159f49495b71579b052eff497e50c97deeb73b10e7e46de4f669dcb58f79561065f9593949284169390929116906137fa565b60405180910390a360005b60008481526005602052604090205481101561074d57600084815260056020526040902080548991908390811061069d57fe5b9060005260206000200154141561074557600084815260056020526040902054600019018114156106f25760008481526005602052604090208054829081106106e257fe5b6000918252602082200155610745565b600084815260056020526040902080546001830190811061070f57fe5b906000526020600020015460056000868152602001908152602001600020828154811061073857fe5b6000918252602090912001555b60010161066a565b5060005b60008381526005602052604090205481101561083457600083815260056020526040902080548991908390811061078457fe5b9060005260206000200154141561082c57600083815260056020526040902054600019018114156107d95760008381526005602052604090208054829081106107c957fe5b600091825260208220015561082c565b60008381526005602052604090208054600183019081106107f657fe5b906000526020600020015460056000858152602001908152602001600020828154811061081f57fe5b6000918252602090912001555b600101610751565b50600087815260046020526040902066436f6e6669726d60c81b600390910155610c0b565b600087815260046020819052604091829020600c810154600d8201546009830154600b9093015494516315e319fb60e31b81526001600160a01b039092169463af18cfd8946108ae94929360019291016133f6565b600060405180830381600087803b1580156108c857600080fd5b505af11580156108dc573d6000803e3d6000fd5b5050506000888152600460208190526040808320600c810154600e820154600a830154600b9093015493516315e319fb60e31b81526001600160a01b03909216965063af18cfd89561093495919490929091016133f6565b600060405180830381600087803b15801561094e57600080fd5b505af1158015610962573d6000803e3d6000fd5b50505060008881526004602081905260409182902060068101549054925163095ea7b360e01b81526001600160a01b03918216945063095ea7b3936109ac939216918691016131f9565b602060405180830381600087803b1580156109c657600080fd5b505af11580156109da573d6000803e3d6000fd5b505050506040513d601f19601f820116820180604052508101906109fe9190612e2b565b5060008781526004602081905260409182902060028101546001820154600990920154935163095ea7b360e01b81526001600160a01b039182169463095ea7b394610a4f94909316929091016131f9565b602060405180830381600087803b158015610a6957600080fd5b505af1158015610a7d573d6000803e3d6000fd5b505050506040513d601f19601f82011682018060405250810190610aa19190612e2b565b506000878152600460208190526040918290206006810154815460019092015493516323b872dd60e01b81526001600160a01b03918216946323b872dd94610af294841693909116918791016131d5565b602060405180830381600087803b158015610b0c57600080fd5b505af1158015610b20573d6000803e3d6000fd5b505050506040513d601f19601f82011682018060405250810190610b449190612e2b565b5060008781526004602081905260409182902060028101546001820154825460099093015494516323b872dd60e01b81526001600160a01b03928316956323b872dd95610b9b9593851694909316929091016131d5565b602060405180830381600087803b158015610bb557600080fd5b505af1158015610bc9573d6000803e3d6000fd5b505050506040513d601f19601f82011682018060405250810190610bed9190612e2b565b5060008781526004602052604090206311985a5b60e21b6003909101555b610fd5565b856514995a9958dd60d21b1415610fd557600087815260046020819052604091829020600c810154600d8201546009830154600b9093015494516315e319fb60e31b81526001600160a01b039092169463af18cfd894610c7694929360019291016133f6565b600060405180830381600087803b158015610c9057600080fd5b505af1158015610ca4573d6000803e3d6000fd5b5050506000888152600460208190526040808320600c810154600e820154600a830154600b9093015493516315e319fb60e31b81526001600160a01b03909216965063af18cfd895610cfc95919490929091016133f6565b600060405180830381600087803b158015610d1657600080fd5b505af1158015610d2a573d6000803e3d6000fd5b50505060008881526004602081905260409182902060068101549054925163095ea7b360e01b81526001600160a01b03918216945063095ea7b393610d74939216918691016131f9565b602060405180830381600087803b158015610d8e57600080fd5b505af1158015610da2573d6000803e3d6000fd5b505050506040513d601f19601f82011682018060405250810190610dc69190612e2b565b5060008781526004602081905260409182902060028101546001820154600990920154935163095ea7b360e01b81526001600160a01b039182169463095ea7b394610e1794909316929091016131f9565b602060405180830381600087803b158015610e3157600080fd5b505af1158015610e45573d6000803e3d6000fd5b505050506040513d601f19601f82011682018060405250810190610e699190612e2b565b506000878152600460208190526040918290206006810154815460019092015493516323b872dd60e01b81526001600160a01b03918216946323b872dd94610eba94841693909116918791016131d5565b602060405180830381600087803b158015610ed457600080fd5b505af1158015610ee8573d6000803e3d6000fd5b505050506040513d601f19601f82011682018060405250810190610f0c9190612e2b565b5060008781526004602081905260409182902060028101546001820154825460099093015494516323b872dd60e01b81526001600160a01b03928316956323b872dd95610f639593851694909316929091016131d5565b602060405180830381600087803b158015610f7d57600080fd5b505af1158015610f91573d6000803e3d6000fd5b505050506040513d601f19601f82011682018060405250810190610fb59190612e2b565b5060008781526004602052604090206514995a9958dd60d21b6003909101555b50505050505050565b3360009081526006602052604090205461100a5760405162461bcd60e51b81526004016102bd90613641565b611012612a4e565b8251604051632bbc239560e11b81526001600160a01b03841691635778472a9161103f91906004016132df565b6101406040518083038186803b15801561105857600080fd5b505afa15801561106c573d6000803e3d6000fd5b505050506040513d601f19601f820116820180604052508101906110909190612f9d565b905061109a612a4e565b6040808501519051632bbc239560e11b81526001600160a01b03851691635778472a916110ca91906004016132df565b6101406040518083038186803b1580156110e357600080fd5b505afa1580156110f7573d6000803e3d6000fd5b505050506040513d601f19601f8201168201806040525081019061111b9190612f9d565b90506000836001600160a01b0316632541897f6040518163ffffffff1660e01b815260040160206040518083038186803b15801561115857600080fd5b505afa15801561116c573d6000803e3d6000fd5b505050506040513d601f19601f820116820180604052508101906111909190612c46565b90506000846001600160a01b0316636945c1fd6040518163ffffffff1660e01b815260040160206040518083038186803b1580156111cd57600080fd5b505afa1580156111e1573d6000803e3d6000fd5b505050506040513d601f19601f820116820180604052508101906112059190612c46565b90506000826001600160a01b031685602001516001600160a01b031614806112425750816001600160a01b031685604001516001600160a01b0316145b611250578360e00151611256565b8460e001515b90506000826001600160a01b031685602001516001600160a01b031614806112935750836001600160a01b031685604001516001600160a01b0316145b6112a1578560e001516112a7565b8460e001515b60a089015190915060006112ba846127dd565b905060006112c7846127dd565b90506112d1612aa5565b604051806101e00160405280876001600160a01b03168152602001866001600160a01b03168152602001896001600160a01b031681526020016650656e64696e6760c81b8152602001838152602001848152602001886001600160a01b031681526020018d606001518152602001611377896001600160a01b03168d602001516001600160a01b031614611369578e60a0015161136f565b8e60c001515b87600061285d565b81526020018581526020016113988e60c001516113938b612885565b612920565b81526020018d6080015181526020018c6001600160a01b03168152602001896001600160a01b03168c602001516001600160a01b031614806113ef5750886001600160a01b03168c604001516001600160a01b0316145b6113fd578d60400151611400565b8d515b8152602001886001600160a01b03168b602001516001600160a01b0316148061143e5750896001600160a01b03168b604001516001600160a01b0316145b611449578d5161144f565b8d604001515b81525090507f42547a465273d57dd7e7c27d4edfbf05d313029b343ff54a60c792c32e20a97a816040516114839190613727565b60405180910390a160008c600001518d604001516040516020016114a8929190613182565b60408051601f198184030181529181528151602092830120600081815260049093529120549091506001600160a01b031661177357600081815260046020818152604092839020855181546001600160a01b03199081166001600160a01b039283161783559287015160018301805485169183169190911790559386015160028201805484169186169190911790556060860151600382015560808601519281019290925560a0850151600583015560c0850151600683018054831691851691909117905560e0850151600783015561010085015160088301556101208501516009830155610140850151600a830155610160850151600b830155610180850151600c830180549092169316929092179091556101a0830151600d8201556101c0830151600e909101556115da612b21565b6040518060a00160405280886001600160a01b031681526020018b6001600160a01b031681526020018a6001600160a01b031681526020018781526020018f60600151815250905060008d6001600160a01b03166338fff2d06040518163ffffffff1660e01b815260040160206040518083038186803b15801561165d57600080fd5b505afa158015611671573d6000803e3d6000fd5b505050506040513d601f19601f820116820180604052508101906116959190612e63565b60008181526008602090815260408083208054600181810183559185528385208851600592830290910180546001600160a01b039283166001600160a01b03199182161782558a87015182860180549185169183169190911790558a86015160028301805491909416911617909155606089015160038201556080808a01516004909201919091558a0180518652908452918420805491820181558452919092200185905560a08601519051919250146117705760a08401516000908152600560209081526040822080546001810182559083529120018390555b50505b50505050505050505050505050565b600d546000906001600160a01b031633146117af5760405162461bcd60e51b81526004016102bd906136e4565b6001600160a01b038083166000818152600960205260409081902054600d54915163a9059cbb60e01b8152909363a9059cbb926117f39291169085906004016131f9565b602060405180830381600087803b15801561180d57600080fd5b505af1158015611821573d6000803e3d6000fd5b505050506040513d601f19601f820116820180604052508101906118459190612e2b565b506001600160a01b038316600090815260096020526040902054611869908261292c565b6001600160a01b0384166000908152600960205260409020559050919050565b6118a733611895611a0e565b6001600160a01b0316146101aa612942565b600c80546001600160a01b0319166001600160a01b0392909216919091179055565b6118d533611895611a0e565b600080546040516001600160a01b03909116907f8be0079c531659141344cd1fd0a4f28419497f9722a3daafe3b4186f6b6457e0908390a3600080546001600160a01b0319169055565b611927612aa5565b816119445760405162461bcd60e51b81526004016102bd9061353d565b5060009081526004602081815260409283902083516101e08101855281546001600160a01b0390811682526001830154811693820193909352600282015483169481019490945260038101546060850152918201546080840152600582015460a08401526006820154811660c0840152600782015460e084015260088201546101008401526009820154610120840152600a820154610140840152600b820154610160840152600c82015416610180830152600d8101546101a0830152600e01546101c082015290565b6000546001600160a01b031690565b611a2933611895611a0e565b600180546001600160a01b03199081166001600160a01b0398891617909155600395909555600a805486169487169490941790935560028054851692861692909217909155600b8054841692851692909217909155600d80549092169216919091179055565b600090815260046020526040902060078101546008909101549091565b600a54604051634427673360e01b81526060916000916001600160a01b0390911690634427673390611ae29033906004016131c1565b60606040518083038186803b158015611afa57600080fd5b505afa158015611b0e573d6000803e3d6000fd5b505050506040513d601f19601f82011682018060405250810190611b329190612e9c565b505090508061044560f41b14611b5a5760405162461bcd60e51b81526004016102bd9061353d565b60008481526005602090815260409182902080548351818402810184019094528084529091830182828015611bae57602002820191906000526020600020905b815481526020019060010190808311611b9a575b50505050509150505b92915050565b600a54604051634427673360e01b81526000916001600160a01b031690634427673390611bee9033906004016131c1565b60606040518083038186803b158015611c0657600080fd5b505afa158015611c1a573d6000803e3d6000fd5b505050506040513d601f19601f82011682018060405250810190611c3e9190612e9c565b50509050878a6001600160a01b03166370a08231336040518263ffffffff1660e01b8152600401611c6f91906131c1565b60206040518083038186803b158015611c8757600080fd5b505afa158015611c9b573d6000803e3d6000fd5b505050506040513d601f19601f82011682018060405250810190611cbf9190612e63565b10158015611ccd5750868810155b8015611d5557506040516370a0823160e01b815286906001600160a01b038b16906370a0823190611d029033906004016131c1565b60206040518083038186803b158015611d1a57600080fd5b505afa158015611d2e573d6000803e3d6000fd5b505050506040513d601f19601f82011682018060405250810190611d529190612e63565b10155b8015611d7657508061044560f41b1480611d765750806420b236b4b760d91b145b611d925760405162461bcd60e51b81526004016102bd906135f3565b6040516323b872dd60e01b81526001600160a01b038a16906323b872dd90611dc290339030908b906004016131d5565b602060405180830381600087803b158015611ddc57600080fd5b505af1158015611df0573d6000803e3d6000fd5b505050506040513d601f19601f82011682018060405250810190611e149190612e2b565b506040516323b872dd60e01b81526001600160a01b038b16906323b872dd90611e4590339030908d906004016131d5565b602060405180830381600087803b158015611e5f57600080fd5b505af1158015611e73573d6000803e3d6000fd5b505050506040513d601f19601f82011682018060405250810190611e979190612e2b565b506000600160009054906101000a90046001600160a01b03166001600160a01b03166374dcc7a48c6001600160a01b03166306fdde036040518163ffffffff1660e01b815260040160006040518083038186803b158015611ef757600080fd5b505afa158015611f0b573d6000803e3d6000fd5b505050506040513d6000823e601f3d908101601f19168201604052611f339190810190612f11565b8d6001600160a01b03166395d89b416040518163ffffffff1660e01b815260040160006040518083038186803b158015611f6c57600080fd5b505afa158015611f80573d6000803e3d6000fd5b505050506040513d6000823e601f3d908101601f19168201604052611fa89190810190612f11565b8e8e8d6003546040518763ffffffff1660e01b8152600401611fcf96959493929190613461565b602060405180830381600087803b158015611fe957600080fd5b505af1158015611ffd573d6000803e3d6000fd5b505050506040513d601f19601f820116820180604052508101906120219190612c46565b90506000816001600160a01b03166338fff2d06040518163ffffffff1660e01b815260040160206040518083038186803b15801561205e57600080fd5b505afa158015612072573d6000803e3d6000fd5b505050506040513d601f19601f820116820180604052508101906120969190612e63565b90508b6007600083815260200190815260200160002060006101000a8154816001600160a01b0302191690836001600160a01b031602179055508060066000846001600160a01b03166001600160a01b03168152602001908152602001600020819055506060600260009054906101000a90046001600160a01b03166001600160a01b031663f94d4668836040518263ffffffff1660e01b815260040161213d91906132df565b60006040518083038186803b15801561215557600080fd5b505afa158015612169573d6000803e3d6000fd5b505050506040513d6000823e601f3d908101601f191682016040526121919190810190612d5f565b5050905060606121a082612954565b90506060825167ffffffffffffffff811180156121bc57600080fd5b506040519080825280602002602001820160405280156121e6578160200160208202803683370190505b5090508d6001600160a01b031663095ea7b3600260009054906101000a90046001600160a01b03168d6040518363ffffffff1660e01b815260040161222c9291906131f9565b602060405180830381600087803b15801561224657600080fd5b505af115801561225a573d6000803e3d6000fd5b505050506040513d601f19601f8201168201806040525081019061227e9190612e2b565b508e6001600160a01b031663095ea7b3600260009054906101000a90046001600160a01b03168f6040518363ffffffff1660e01b81526004016122c29291906131f9565b602060405180830381600087803b1580156122dc57600080fd5b505af11580156122f0573d6000803e3d6000fd5b505050506040513d601f19601f820116820180604052508101906123149190612e2b565b5060005b83518110156123bb578f6001600160a01b031684828151811061233757fe5b60200260200101516001600160a01b0316141561236c578d82828151811061235b57fe5b6020026020010181815250506123b3565b8e6001600160a01b031684828151811061238257fe5b60200260200101516001600160a01b031614156123b3578b8282815181106123a657fe5b6020026020010181815250505b600101612318565b506123c4612b4f565b60405180608001604052808481526020018381526020016000846040516020016123ef92919061343e565b60408051808303601f190181529181529082526000602090920191909152600254905163172b958560e31b81529192506001600160a01b03169063b95cac28906124439088903090819087906004016132e8565b600060405180830381600087803b15801561245d57600080fd5b505af1158015612471573d6000803e3d6000fd5b5050505050505050505050505050505050505050565b606060008560405160200161249c91906133cf565b6040516020818303038152906040528051906020012090506000816040516020016124c79190613190565b60408051601f198184030181528282528051602091820120600c5460008552939091019182905292506001600160a01b03909116906001906125109084908a908a908a90613420565b6020604051602081039080840390855afa158015612532573d6000803e3d6000fd5b505050602060405103516001600160a01b0316148061265e5750600b5460008981526007602052604090819020549051634a161b2760e01b815233926001600160a01b039081169263cd75c7d4928492634a161b2792612597929116906004016131c1565b60206040518083038186803b1580156125af57600080fd5b505afa1580156125c3573d6000803e3d6000fd5b505050506040513d601f19601f820116820180604052508101906125e79190612c46565b6040518263ffffffff1660e01b815260040161260391906131c1565b60206040518083038186803b15801561261b57600080fd5b505afa15801561262f573d6000803e3d6000fd5b505050506040513d601f19601f820116820180604052508101906126539190612c46565b6001600160a01b0316145b61267a5760405162461bcd60e51b81526004016102bd90613687565b600088815260086020908152604080832080548251818502810185019093528083529193909284015b828210156127115760008481526020908190206040805160a0810182526005860290920180546001600160a01b0390811684526001808301548216858701526002830154909116928401929092526003810154606084015260040154608083015290835290920191016126a3565b505050509250505095945050505050565b61272e33611895611a0e565b6127456001600160a01b03821615156101ab612942565b600080546040516001600160a01b03808516939216917f8be0079c531659141344cd1fd0a4f28419497f9722a3daafe3b4186f6b6457e091a3600080546001600160a01b0319166001600160a01b0392909216919091179055565b60008282026127c48415806127bd5750838583816127ba57fe5b04145b6003612942565b9392505050565b60008282016127c48482101583612942565b600a5460405162157d5560e61b81526000916001600160a01b03169063055f55409061280d9085906004016131c1565b60206040518083038186803b15801561282557600080fd5b505afa158015612839573d6000803e3d6000fd5b505050506040513d601f19601f82011682018060405250810190611bb79190612e63565b6000816128735761286e8484612957565b61287d565b61287d8484612977565b949350505050565b600080826001600160a01b031663313ce5676040518163ffffffff1660e01b815260040160206040518083038186803b1580156128c157600080fd5b505afa1580156128d5573d6000803e3d6000fd5b505050506040513d601f19601f820116820180604052508101906128f991906130ed565b60ff169050600061290b60128361292c565b600a0a670de0b6b3a764000002949350505050565b60006127c483836129aa565b600061293c838311156001612942565b50900390565b8161295057612950816129fb565b5050565b90565b60006129668215156004612942565b81838161296f57fe5b049392505050565b60006129868215156004612942565b8261299357506000611bb7565b81600184038161299f57fe5b046001019050611bb7565b60006129b98215156004612942565b826129c657506000611bb7565b670de0b6b3a7640000838102906129e9908583816129e057fe5b04146005612942565b8281816129f257fe5b04915050611bb7565b62461bcd60e51b6000908152602060045260076024526642414c23000030600a808404818106603090810160081b95839006959095019082900491820690940160101b939093010160c81b604452606490fd5b60408051610140810190915280600081526000602082018190526040820181905260609091019081526020016000815260200160008152600060208201819052604082018190526060820181905260809091015290565b604080516101e081018252600080825260208201819052918101829052606081018290526080810182905260a0810182905260c0810182905260e08101829052610100810182905261012081018290526101408101829052610160810182905261018081018290526101a081018290526101c081019190915290565b6040805160a08101825260008082526020820181905291810182905260608101829052608081019190915290565b60405180608001604052806060815260200160608152602001606081526020016000151581525090565b8051611bb7816138a4565b600082601f830112612b94578081fd5b8151612ba7612ba282613848565b613821565b818152915060208083019084810181840286018201871015612bc857600080fd5b60005b84811015612be757815184529282019290820190600101612bcb565b505050505092915050565b8035611bb7816138a4565b805160058110611bb757600080fd5b805160038110611bb757600080fd5b805160028110611bb757600080fd5b600060208284031215612c3b578081fd5b81356127c4816138a4565b600060208284031215612c57578081fd5b81516127c4816138a4565b60008060008060008060008060006101208a8c031215612c80578485fd5b8935612c8b816138a4565b985060208a0135612c9b816138a4565b975060408a0135965060608a0135955060808a0135945060a08a0135935060c08a0135612cc7816138bc565b8093505060e08a013591506101008a013590509295985092959850929598565b60008060008060008060c08789031215612cff578384fd5b8635612d0a816138a4565b9550602087013594506040870135612d21816138a4565b93506060870135612d31816138a4565b92506080870135612d41816138a4565b915060a0870135612d51816138a4565b809150509295509295509295565b600080600060608486031215612d73578081fd5b835167ffffffffffffffff80821115612d8a578283fd5b818601915086601f830112612d9d578283fd5b8151612dab612ba282613848565b80828252602080830192508086018b828387028901011115612dcb578788fd5b8796505b84871015612df6578051612de2816138a4565b845260019690960195928101928101612dcf565b508901519097509350505080821115612e0d578283fd5b50612e1a86828701612b84565b925050604084015190509250925092565b600060208284031215612e3c578081fd5b815180151581146127c4578182fd5b600060208284031215612e5c578081fd5b5035919050565b600060208284031215612e74578081fd5b5051919050565b60008060408385031215612e8d578182fd5b50508035926020909101359150565b600080600060608486031215612eb0578081fd5b8351925060208401519150604084015190509250925092565b600080600080600060a08688031215612ee0578283fd5b85359450602086013593506040860135612ef9816138bc565b94979396509394606081013594506080013592915050565b600060208284031215612f22578081fd5b815167ffffffffffffffff80821115612f39578283fd5b818401915084601f830112612f4c578283fd5b815181811115612f5a578384fd5b612f6d601f8201601f1916602001613821565b9150808252856020828501011115612f83578384fd5b612f94816020840160208601613874565b50949350505050565b6000610140808385031215612fb0578182fd5b612fb981613821565b9050612fc58484612c1b565b8152612fd48460208501612b79565b6020820152612fe68460408501612b79565b6040820152612ff88460608501612c0c565b606082015261300a8460808501612c1b565b608082015261301c8460a08501612bfd565b60a082015260c083015160c08201526130388460e08501612b79565b60e08201526101008381015190820152610120928301519281019290925250919050565b600080828403610100811215613070578283fd5b60e081121561307d578283fd5b5061308860e0613821565b83358152602084013561309a816138a4565b8060208301525060408401356040820152606084013560608201526080840135608082015260a084013560a082015260c084013560c0820152809250506130e48460e08501612bf2565b90509250929050565b6000602082840312156130fe578081fd5b81516127c4816138bc565b6001600160a01b03169052565b6000815180845260208085019450808401835b8381101561314557815187529582019590820190600101613129565b509495945050505050565b15159052565b6000815180845261316e816020860160208601613874565b601f01601f19169290920160200192915050565b918252602082015260400190565b7f19457468657265756d205369676e6564204d6573736167653a0a3332000000008152601c810191909152603c0190565b6001600160a01b0391909116815260200190565b6001600160a01b039384168152919092166020820152604081019190915260600190565b6001600160a01b03929092168252602082015260400190565b6020808252825182820181905260009190848201906040850190845b8181101561324a5783518352928401929184019160010161322e565b50909695505050505050565b602080825282518282018190526000919060409081850190868401855b828110156132d257815180516001600160a01b031685528681015161329a88870182613109565b50858101516132ab87870182613109565b50606081810151908601526080908101519085015260a09093019290850190600101613273565b5091979650505050505050565b90815260200190565b8481526001600160a01b038481166020808401919091529084166040830152608060608301819052835181840191909152805161010084018190526000929182019083906101208601905b8083101561335b576133458451613868565b8252928401926001929092019190840190613333565b50838701519350607f199250828682030160a087015261337b8185613116565b935050506040850151818584030160c08601526133988382613156565b9250505060608401516133ae60e0850182613150565b509695505050505050565b9283526020830191909152604082015260600190565b908152604060208201819052600690820152654c32746f4c3160d01b606082015260800190565b84815260208101849052608081016002841061340e57fe5b60408201939093526060015292915050565b93845260ff9290921660208401526040830152606082015260800190565b60006004841061344a57fe5b8382526040602083015261287d6040830184613116565b600060c0825261347460c0830189613156565b82810360208401526134868189613156565b6001600160a01b03978816604085015295909616606083015250608081019290925260a0909101529392505050565b60208082526031908201527f536574746c656d656e7420646f6e6520627920696e76616c6964206465706f736040820152701a5d185c9e481c185c9d1a58da5c185b9d607a1b606082015260800190565b60208082526019908201527f536574746c656d656e742073746174757320696e76616c696400000000000000604082015260600190565b60208082526043908201527f536574746c656d656e742072657175657374732063616e206f6e6c792062652060408201527f666574636865642062792061206465706f736974617279207061727469636970606082015262185b9d60ea1b608082015260a00190565b6020808252602d908201527f536574746c656d656e74206e6f7420646f6e65206279206465706f736974617260408201526c1e481c185c9d1a58da5c185b9d609a1b606082015260800190565b6020808252602e908201527f556e617574686f72697a65642061636365737320746f207365636f6e6461727960408201526d1034b9b9bab29036b0b730b3b2b960911b606082015260800190565b60208082526026908201527f536574746c656d656e74207265717565737465642066726f6d20696e76616c6960408201526519081c1bdbdb60d21b606082015260800190565b6020808252603a908201527f556e617574686f72697a6564206163636573732076696577696e67207375627360408201527f6372696265727320696e207365636f6e6461727920706f6f6c2e000000000000606082015260800190565b60208082526023908201527f556e617574686f72697a65642066656520636f6c6c656374696f6e2072657175604082015262195cdd60ea1b606082015260800190565b60006101e08201905061373b828451613109565b602083015161374d6020840182613109565b5060408301516137606040840182613109565b50606083015160608301526080830151608083015260a083015160a083015260c083015161379160c0840182613109565b5060e083810151908301526101008084015190830152610120808401519083015261014080840151908301526101608084015190830152610180808401516137db82850182613109565b50506101a083810151908301526101c092830151929091019190915290565b9384526001600160a01b039283166020850152604084019190915216606082015260800190565b60405181810167ffffffffffffffff8111828210171561384057600080fd5b604052919050565b600067ffffffffffffffff82111561385e578081fd5b5060209081020190565b6001600160a01b031690565b60005b8381101561388f578181015183820152602001613877565b8381111561389e576000848401525b50505050565b6001600160a01b03811681146138b957600080fd5b50565b60ff811681146138b957600080fdfea264697066735822122025d47bc38175a9b6f58e912b750f4bb9127c4723e85ebc382b68fa4770f7ec9964736f6c63430007010033",
    "immutableReferences": {},
    "source": "// External interface for settlement of trades\n// (c) Kallol Borah, 2022\n// \"SPDX-License-Identifier: BUSL1.1\"\n\npragma solidity 0.7.1;\npragma experimental ABIEncoderV2;\n\nimport \"./interfaces/ISettlor.sol\";\nimport \"./interfaces/IOrder.sol\";\nimport \"./interfaces/ITrade.sol\";\nimport './interfaces/IFactory.sol';\nimport './interfaces/VerifiedClient.sol';\nimport \"./interfaces/ISecondaryIssuePool.sol\";\nimport \"./interfaces/ISecondaryIssuePoolFactory.sol\";\n\nimport \"@balancer-labs/v2-solidity-utils/contracts/math/Math.sol\";\nimport \"@balancer-labs/v2-solidity-utils/contracts/math/FixedPoint.sol\";\nimport \"@balancer-labs/v2-solidity-utils/contracts/openzeppelin/ERC20.sol\";\nimport \"@balancer-labs/v2-solidity-utils/contracts/openzeppelin/IERC20.sol\";\nimport \"@balancer-labs/v2-solidity-utils/contracts/openzeppelin/Ownable.sol\";\n \ncontract SecondaryIssueManager is ISettlor, Ownable {\n\n    using Math for uint256;\n    using FixedPoint for uint256;\n\n    // balancer variables\n    address private factory;    \n\n    address private vault;\n\n    //fee\n    uint256 private fee;\n\n    // mapping settlement ref to trade execution data\n    mapping(bytes32 => ISettlor.settlement) settlements;\n\n    //mapping depository participants to trades they are part of\n    mapping(bytes32 => bytes32[]) private trades;\n\n    //mapping pool address to pool id\n    mapping(address => bytes32) private pools;\n\n    //mapping pool id to security token traded\n    mapping(bytes32 => address) private poolSecurity;\n\n    //mapping pool id to investors\n    mapping(bytes32 => subscriptions[]) internal investors; \n\n    // mapping token address to issuing fee collected\n    mapping(address => uint256) private fees;\n\n    // reference to the Verified Client contract\n    VerifiedClient private client;\n\n    // reference to the Verified factory contract that this asset manager checks security token issues with\n    IFactory private products;\n\n    address private bridge;\n\n    address private distribution;\n\n    event tradeSettled(address indexed transferor,\n                        address indexed transferee,\n                        uint256 unitsToTransfer,\n                        address security,\n                        uint256 price,\n                        address currency\n                    );\n\n    event subscribers(address security, address platform, bytes32 poolId, subscriptions[] investors);\n\n    /**\n        Initializes this asset management contract\n        @param  _factory            reference to the secondary issue pool factory contract\n        @param  _issueFeePercentage  percentage of trading fee to be charged by the asset manager\n        @param  _client             address of Verified client contract\n        @param  _vault              address of balancer vault\n     */\n    function initialize(address _factory, uint256 _issueFeePercentage, address _client, address _vault, address _distribution, address _products) onlyOwner public {\n        factory = _factory;\n        fee = _issueFeePercentage;\n        client = VerifiedClient(_client);\n        vault = _vault;\n        products = IFactory(_products);\n        distribution = _distribution;\n    }\n\n    function setSigner(address _signer) onlyOwner external{\n        bridge = _signer;\n    }\n\n    /**\n        Joins existing (secondary) tokenized assets into pool by primary issue token holders\n        @param  security            reference to asset issued\n        @param  currency            reference to cash (settlement) token\n        @param  securityAmount      amount of security to issue\n        @param  minSecurityOrder    minimum order size of securities issued in pool\n        @param  cashAmount          amount of currency issued in pool\n     */\n    function issueSecondary(address security, address currency, uint256 securityAmount, uint256 minSecurityOrder, uint256 cashAmount, bytes32 _hashedMessage, uint8 _v, bytes32 _r, bytes32 _s) override external {\n        //bytes32 payloadHash = keccak256(abi.encode(_hashedMessage, \"L2toL1\"));\n        //bytes32 messageHash = keccak256(abi.encodePacked(\"\\x19Ethereum Signed Message:\\n32\", payloadHash));\n        (bytes32 role, , ) = client.getRole(msg.sender);\n        require(/*ecrecover(messageHash, _v, _r, _s)== bridge ||*/ (IERC20(security).balanceOf(msg.sender)>=securityAmount && securityAmount>=minSecurityOrder\n                && IERC20(currency).balanceOf(msg.sender)>=cashAmount && (role=='DP' || role=='Admin')), \"Unauthorized access to secondary issue manager\");\n        ERC20(currency).transferFrom(msg.sender, address(this), cashAmount);\n        ERC20(security).transferFrom(msg.sender, address(this), securityAmount);        \n        address pool = ISecondaryIssuePoolFactory(factory).create(\n            ERC20(security).name(),\n            ERC20(security).symbol(),\n            security,\n            currency,\n            minSecurityOrder,\n            fee\n        );                \n        bytes32 poolId = ISecondaryIssuePool(pool).getPoolId();  \n        poolSecurity[poolId] = security; \n        pools[pool] = poolId;\n        // join the pool here                \n        (IERC20[] memory tokens, , ) = IVault(vault).getPoolTokens(poolId);\n        IAsset[] memory assets = _convertERC20sToAssets(tokens);\n        uint256[] memory maxAmountsIn = new uint256[](tokens.length);\n        ERC20(currency).approve(vault, cashAmount);\n        ERC20(security).approve(vault, securityAmount);\n        for (uint256 t; t < tokens.length; t++) {\n            if(tokens[t]==IERC20(security))\n                maxAmountsIn[t] = securityAmount;\n            else if(tokens[t]==IERC20(currency))\n                maxAmountsIn[t] = cashAmount;\n        }\n        IVault.JoinPoolRequest memory request = IVault.JoinPoolRequest({\n            assets: assets,\n            maxAmountsIn: maxAmountsIn,\n            userData: abi.encode(JoinKind.INIT, maxAmountsIn),\n            fromInternalBalance: false\n        });         \n        IVault(vault).joinPool(poolId, address(this), address(this), request);\n    }\n    event settle(ISettlor.settlement trade);\n    /**\n        Used by Secondary pools to request settlement for trades\n        @param  tradeToReport     data structure holding order matching data\n     */\n    function requestSettlement(ITrade.trade memory tradeToReport, IOrder orderbook) override external {\n        require(pools[msg.sender]!=\"\", \"Settlement requested from invalid pool\");\n        IOrder.order memory orderByParty = orderbook.getOrder(tradeToReport.partyRef);\n        IOrder.order memory orderByCounterparty = orderbook.getOrder(tradeToReport.counterpartyRef);\n        address securityTraded = orderbook.getSecurity(); \n        address currencySettled = orderbook.getCurrency();\n        address party = orderByParty.tokenIn==securityTraded || orderByParty.tokenOut==currencySettled ? orderByParty.party : orderByCounterparty.party;\n        address counterparty = orderByCounterparty.tokenIn==currencySettled || orderByCounterparty.tokenOut==securityTraded ? orderByCounterparty.party : orderByParty.party;\n        uint256 amount = tradeToReport.securityTraded; //orderByParty.tokenIn==securityTraded ? tradeToReport.securityTraded : tradeToReport.currencyTraded;\n        bytes32 _transfereeDPID = getTransferAgent(party);\n        bytes32 _transferorDPID = getTransferAgent(counterparty);\n        ISettlor.settlement memory tradeToSettle = ISettlor.settlement({\n            transferor: party,\n            transferee: counterparty,\n            security: securityTraded,\n            status: \"Pending\",\n            currency: currencySettled,\n            price: tradeToReport.price,\n            askprice: Math.div(orderByParty.tokenIn==currencySettled ? tradeToReport.currencyTraded : tradeToReport.securityTraded, amount, false),\n            unitsToTransfer: amount,\n            consideration: _downscaleDown(tradeToReport.currencyTraded, _computeScalingFactor(IERC20(currencySettled))), //Math.mul(tradeToReport.price, amount),\n            executionDate: tradeToReport.dt,\n            partyRef: orderByParty.tokenIn==securityTraded || orderByParty.tokenOut==currencySettled ? tradeToReport.partyRef : tradeToReport.counterpartyRef,\n            counterpartyRef: orderByCounterparty.tokenIn==currencySettled || orderByCounterparty.tokenOut==securityTraded ? tradeToReport.counterpartyRef : tradeToReport.partyRef,\n            transferorDPID: _transferorDPID,\n            transfereeDPID: _transfereeDPID,\n            orderPool: orderbook\n        });\n        emit settle(tradeToSettle);\n        bytes32 ref = keccak256(abi.encodePacked(tradeToReport.partyRef, tradeToReport.counterpartyRef));\n        if(settlements[ref].transferor==address(0x0)){\n            settlements[ref] = tradeToSettle;\n            ISettlor.subscriptions memory subscription = ISettlor.subscriptions({\n                investor: counterparty,\n                asset: securityTraded,\n                currency: currencySettled, \n                amount: amount,   \n                price: tradeToReport.price\n            });\n            bytes32 poolId = orderbook.getPoolId();\n            //investors[orderbook.getPoolId()].push(ISettlor.subscriptions(counterparty, securityTraded, currencySettled, amount, tradeToReport.price));\n            investors[poolId].push(subscription);\n            trades[tradeToSettle.transferorDPID].push(ref);\n            if(tradeToSettle.transferorDPID != tradeToSettle.transfereeDPID)\n                trades[tradeToSettle.transfereeDPID].push(ref);\n        }\n    }\n    \n    /**\n        Fetches trade settlement requests for depository participant\n        @param  dpid         identifier of depository participant (eg, transfer agent) that is authorized to settle the asset \n     */\n    function getSettlementRequests(bytes32 dpid, bytes32 poolId) override external view returns(bytes32[] memory){\n        (bytes32 role, , ) = client.getRole(msg.sender);\n        require(role=='DP', \"Settlement requests can only be fetched by a depositary participant\");\n        /*if(poolId!=\"\"){\n            bytes32[] memory refs = new bytes32[](trades[dpid].length);\n            uint j=0;\n            for(uint256 i=0; i<trades[dpid].length; i++){\n                 IOrder ob = settlements[trades[dpid][i]].orderPool;\n                 bytes32 poolid = ob.getPoolId();\n                 if(poolid==poolId){\n                     refs[j] == trades[dpid][i];\n                     j++;\n                 }\n            }\n            return refs;\n        }\n        else{*/\n            return trades[dpid];\n        //}\n    }\n\n    /**\n        Fetches a specific trade settlement request        \n        @param  ref         reference to the trade\n     */\n    function getSettlementRequest(bytes32 ref) override external view returns(settlement memory){\n        require(ref!=\"\", \"Settlement requests can only be fetched by a depositary participant\"); \n        return settlements[ref];\n    }\n    \n    /**\n        Sets settlement status for trades executed\n        @param  ref         reference to the trade executed\n        @param  status      settlement status\n     */\n    function setSettlementStatus(bytes32 ref, bytes32 status) override external{\n        (bytes32 role, bytes32 id, ) = client.getRole(msg.sender);\n        require(role=='DP', \"Settlement not done by depositary participant\");\n        bytes32 transferorDPID = settlements[ref].transferorDPID;\n        bytes32 transfereeDPID = settlements[ref].transfereeDPID;\n        require(id==transferorDPID || id==transfereeDPID, \"Settlement done by invalid depositary participant\");\n        require(status==\"Confirm\" || status==\"Reject\", \"Settlement status invalid\");\n        uint256 pay = settlements[ref].consideration; //_downscaleDown(settlements[ref].consideration, _computeScalingFactor(IERC20(settlements[ref].currency)));\n        if(status==\"Confirm\" && settlements[ref].status!=\"Confirm\" && settlements[ref].status!=\"Fail\"){            \n            fees[settlements[ref].currency] = Math.add(fees[settlements[ref].currency], Math.mul(pay, fee));\n            IERC20(settlements[ref].currency).approve(settlements[ref].transferor, Math.mul(pay, fee));\n            if(IERC20(settlements[ref].currency).transferFrom(settlements[ref].transferor, address(this), Math.mul(pay, fee))){                \n                settlements[ref].orderPool.orderFilled(settlements[ref].partyRef, settlements[ref].counterpartyRef, settlements[ref].executionDate);\n                emit tradeSettled(settlements[ref].transferor, \n                                    settlements[ref].transferee, \n                                    settlements[ref].unitsToTransfer,\n                                    settlements[ref].security,\n                                    settlements[ref].price,\n                                    settlements[ref].currency\n                                );\n                for(uint i=0; i<trades[transferorDPID].length; i++){\n                    if(trades[transferorDPID][i]==ref){\n                        if(i==trades[transferorDPID].length-1)\n                            delete trades[transferorDPID][i];\n                        else\n                            trades[transferorDPID][i] = trades[transferorDPID][i+1];\n                    }\n                }\n                for(uint i=0; i<trades[transfereeDPID].length; i++){\n                    if(trades[transfereeDPID][i]==ref){\n                        if(i==trades[transfereeDPID].length-1)\n                            delete trades[transfereeDPID][i];\n                        else\n                            trades[transfereeDPID][i] = trades[transfereeDPID][i+1];\n                    }\n                }\n                settlements[ref].status = \"Confirm\";                \n            }\n            else{\n                settlements[ref].orderPool.revertTrade(settlements[ref].partyRef, settlements[ref].unitsToTransfer, IOrder.Order.Sell, settlements[ref].executionDate);\n                settlements[ref].orderPool.revertTrade(settlements[ref].counterpartyRef, settlements[ref].consideration, IOrder.Order.Buy, settlements[ref].executionDate);\n                IERC20(settlements[ref].currency).approve(settlements[ref].transferor, pay);\n                IERC20(settlements[ref].security).approve(settlements[ref].transferee, settlements[ref].unitsToTransfer);\n                IERC20(settlements[ref].currency).transferFrom(settlements[ref].transferor, settlements[ref].transferee, pay);\n                IERC20(settlements[ref].security).transferFrom(settlements[ref].transferee, settlements[ref].transferor, settlements[ref].unitsToTransfer);\n                settlements[ref].status = \"Fail\";\n            }\n        }\n        else if(status==\"Reject\"){\n            settlements[ref].orderPool.revertTrade(settlements[ref].partyRef, settlements[ref].unitsToTransfer, IOrder.Order.Sell, settlements[ref].executionDate);\n            settlements[ref].orderPool.revertTrade(settlements[ref].counterpartyRef, settlements[ref].consideration, IOrder.Order.Buy, settlements[ref].executionDate);\n            IERC20(settlements[ref].currency).approve(settlements[ref].transferor, pay);\n            IERC20(settlements[ref].security).approve(settlements[ref].transferee, settlements[ref].unitsToTransfer);\n            IERC20(settlements[ref].currency).transferFrom(settlements[ref].transferor, settlements[ref].transferee, pay);\n            IERC20(settlements[ref].security).transferFrom(settlements[ref].transferee, settlements[ref].transferor, settlements[ref].unitsToTransfer);\n            settlements[ref].status = \"Reject\";\n        }            \n    }\n\n    /**\n        Retrieve investors in secondary pools\n        @param  poolId  pool identity\n     */\n    function getSubscribers(bytes32 poolId, bytes32 _hashedMessage, uint8 _v, bytes32 _r, bytes32 _s) override external view returns(ISettlor.subscriptions[] memory){\n        bytes32 payloadHash = keccak256(abi.encode(_hashedMessage, \"L2toL1\"));\n        bytes32 messageHash = keccak256(abi.encodePacked(\"\\x19Ethereum Signed Message:\\n32\", payloadHash));\n        require(ecrecover(messageHash, _v, _r, _s)== bridge || products.getHolder(products.getSecurity(poolSecurity[poolId]))==msg.sender, \"Unauthorized access viewing subscribers in secondary pool.\");\n        //emit subscribers(poolSecurity[poolId], address(this), poolId, investors[poolId]);\n        return investors[poolId];\n    }\n\n    /**\n        Retrieve trade settlement\n        @param  ref settlement reference\n     */\n    function getTrade(bytes32 ref) external view override returns (uint256, uint256) {\n        return (settlements[ref].price, settlements[ref].askprice);\n    }\n\n    /**\n        Gets transfer agent for any of the parties in the trade\n        @param  party         reference to the party or counterparty in a trade\n     */\n    function getTransferAgent(address party) private view returns(bytes32){\n        return(client.getTransferAgent(party));\n    } \n\n    /**\n        Fetch trading fee collected in Balancer vault\n        @param  _token  address of token in which fee is collected\n     */\n    function getTradingFeeCollected(address _token) override external returns(uint256){\n        require(msg.sender==distribution, \"Unauthorized fee collection request\");\n        /*IERC20[] memory tokens = new IERC20[](1);\n        tokens[0] = IERC20(_token);\n        uint256[] memory amounts = IVault(vault).getProtocolFeesCollector().getCollectedFeeAmounts(tokens);\n        IVault(vault).getProtocolFeesCollector().withdrawCollectedFees(tokens, amounts, distribution);\n        return amounts[0];*/\n        uint256 feeCollected = fees[_token];\n        IERC20(_token).transfer(distribution, feeCollected);\n        fees[_token] = Math.sub(fees[_token], feeCollected);\n        return feeCollected;\n    }   \n\n    /**\n     * @dev This helper function is a fast and cheap way to convert between IERC20[] and IAsset[] types\n     */\n    function _convertERC20sToAssets(IERC20[] memory tokens) internal pure returns (IAsset[] memory assets) {\n        // solhint-disable-next-line no-inline-assembly\n        assembly {\n            assets := tokens\n        }\n    }\n\n    /**\n     * @dev Returns a scaling factor that, when multiplied to a token amount for `token`, normalizes its balance as if\n     * it had 18 decimals.\n     */\n    function _computeScalingFactor(IERC20 token) internal view returns (uint256) {\n        // Tokens that don't implement the `decimals` method are not supported.\n        uint256 tokenDecimals = ERC20(address(token)).decimals();\n\n        // Tokens with more than 18 decimals are not supported.\n        uint256 decimalsDifference = Math.sub(18, tokenDecimals);\n        return FixedPoint.ONE * 10**decimalsDifference;\n    }\n\n    /**\n     * @dev Reverses the `scalingFactor` applied to `amount`, resulting in a smaller or equal value depending on\n     * whether it needed scaling or not. The result is rounded down.\n     */\n    function _downscaleDown(uint256 amount, uint256 scalingFactor) internal pure returns (uint256) {\n        return FixedPoint.divDown(amount, scalingFactor);\n    }\n\n}",
    "sourcePath": "D:\\Code\\verified-balancer\\contracts\\SecondaryIssueManager.sol",
    "compiler": {
        "name": "solc",
        "version": "0.7.1+commit.f4a555be.Emscripten.clang"
    },
    "schemaVersion": "3.4.3",
    "updatedAt": "2023-02-07T14:17:28.204Z",
    "networkType": "ethereum",
    "devdoc": {
        "kind": "dev",
        "methods": {
            "getSettlementRequest(bytes32)": {
                "params": {
                    "ref": "reference to the trade"
                }
            },
            "getSettlementRequests(bytes32,bytes32)": {
                "params": {
                    "dpid": "identifier of depository participant (eg, transfer agent) that is authorized to settle the asset "
                }
            },
            "getSubscribers(bytes32,bytes32,uint8,bytes32,bytes32)": {
                "params": {
                    "poolId": "pool identity"
                }
            },
            "getTrade(bytes32)": {
                "params": {
                    "ref": "settlement reference"
                }
            },
            "getTradingFeeCollected(address)": {
                "params": {
                    "_token": "address of token in which fee is collected"
                }
            },
            "initialize(address,uint256,address,address,address,address)": {
                "params": {
                    "_client": "address of Verified client contract",
                    "_factory": "reference to the secondary issue pool factory contract",
                    "_issueFeePercentage": "percentage of trading fee to be charged by the asset manager",
                    "_vault": "address of balancer vault"
                }
            },
            "issueSecondary(address,address,uint256,uint256,uint256,bytes32,uint8,bytes32,bytes32)": {
                "params": {
                    "cashAmount": "amount of currency issued in pool",
                    "currency": "reference to cash (settlement) token",
                    "minSecurityOrder": "minimum order size of securities issued in pool",
                    "security": "reference to asset issued",
                    "securityAmount": "amount of security to issue"
                }
            },
            "owner()": {
                "details": "Returns the address of the current owner."
            },
            "renounceOwnership()": {
                "details": "Leaves the contract without owner. It will not be possible to call `onlyOwner` functions anymore. Can only be called by the current owner. NOTE: Renouncing ownership will leave the contract without an owner, thereby removing any functionality that is only available to the owner."
            },
            "requestSettlement((bytes32,address,bytes32,uint256,uint256,uint256,uint256),address)": {
                "params": {
                    "tradeToReport": "data structure holding order matching data"
                }
            },
            "setSettlementStatus(bytes32,bytes32)": {
                "params": {
                    "ref": "reference to the trade executed",
                    "status": "settlement status"
                }
            },
            "transferOwnership(address)": {
                "details": "Transfers ownership of the contract to a new account (`newOwner`). Can only be called by the current owner."
            }
        },
        "version": 1
    },
    "userdoc": {
        "kind": "user",
        "methods": {
            "getSettlementRequest(bytes32)": {
                "notice": "Fetches a specific trade settlement request        "
            },
            "getSettlementRequests(bytes32,bytes32)": {
                "notice": "Fetches trade settlement requests for depository participant"
            },
            "getSubscribers(bytes32,bytes32,uint8,bytes32,bytes32)": {
                "notice": "Retrieve investors in secondary pools"
            },
            "getTrade(bytes32)": {
                "notice": "Retrieve trade settlement"
            },
            "getTradingFeeCollected(address)": {
                "notice": "Fetch trading fee collected in Balancer vault"
            },
            "initialize(address,uint256,address,address,address,address)": {
                "notice": "Initializes this asset management contract"
            },
            "issueSecondary(address,address,uint256,uint256,uint256,bytes32,uint8,bytes32,bytes32)": {
                "notice": "Joins existing (secondary) tokenized assets into pool by primary issue token holders"
            },
            "requestSettlement((bytes32,address,bytes32,uint256,uint256,uint256,uint256),address)": {
                "notice": "Used by Secondary pools to request settlement for trades"
            },
            "setSettlementStatus(bytes32,bytes32)": {
                "notice": "Sets settlement status for trades executed"
            }
        },
        "version": 1
    }
}