{
    "contractName": "SecondaryIssueManager",
    "abi": [
        {
            "anonymous": false,
            "inputs": [
                {
                    "indexed": true,
                    "internalType": "address",
                    "name": "previousOwner",
                    "type": "address"
                },
                {
                    "indexed": true,
                    "internalType": "address",
                    "name": "newOwner",
                    "type": "address"
                }
            ],
            "name": "OwnershipTransferred",
            "type": "event"
        },
        {
            "anonymous": false,
            "inputs": [
                {
                    "indexed": true,
                    "internalType": "address",
                    "name": "transferor",
                    "type": "address"
                },
                {
                    "indexed": true,
                    "internalType": "address",
                    "name": "transferee",
                    "type": "address"
                },
                {
                    "indexed": false,
                    "internalType": "uint256",
                    "name": "unitsToTransfer",
                    "type": "uint256"
                },
                {
                    "indexed": false,
                    "internalType": "address",
                    "name": "security",
                    "type": "address"
                },
                {
                    "indexed": false,
                    "internalType": "uint256",
                    "name": "price",
                    "type": "uint256"
                },
                {
                    "indexed": false,
                    "internalType": "address",
                    "name": "currency",
                    "type": "address"
                }
            ],
            "name": "tradeSettled",
            "type": "event"
        },
        {
            "inputs": [],
            "name": "factory",
            "outputs": [
                {
                    "internalType": "contract ISecondaryIssuePoolFactory",
                    "name": "",
                    "type": "address"
                }
            ],
            "stateMutability": "view",
            "type": "function",
            "constant": true
        },
        {
            "inputs": [],
            "name": "owner",
            "outputs": [
                {
                    "internalType": "address",
                    "name": "",
                    "type": "address"
                }
            ],
            "stateMutability": "view",
            "type": "function",
            "constant": true
        },
        {
            "inputs": [],
            "name": "renounceOwnership",
            "outputs": [],
            "stateMutability": "nonpayable",
            "type": "function"
        },
        {
            "inputs": [
                {
                    "internalType": "address",
                    "name": "newOwner",
                    "type": "address"
                }
            ],
            "name": "transferOwnership",
            "outputs": [],
            "stateMutability": "nonpayable",
            "type": "function"
        },
        {
            "inputs": [
                {
                    "internalType": "address",
                    "name": "_factory",
                    "type": "address"
                },
                {
                    "internalType": "uint256",
                    "name": "_issueFeePercentage",
                    "type": "uint256"
                },
                {
                    "internalType": "address",
                    "name": "_client",
                    "type": "address"
                }
            ],
            "name": "initialize",
            "outputs": [],
            "stateMutability": "nonpayable",
            "type": "function"
        },
        {
            "inputs": [
                {
                    "internalType": "address",
                    "name": "_signer",
                    "type": "address"
                }
            ],
            "name": "setSigner",
            "outputs": [],
            "stateMutability": "nonpayable",
            "type": "function"
        },
        {
            "inputs": [
                {
                    "internalType": "address",
                    "name": "security",
                    "type": "address"
                },
                {
                    "internalType": "address",
                    "name": "currency",
                    "type": "address"
                },
                {
                    "internalType": "uint256",
                    "name": "amount",
                    "type": "uint256"
                },
                {
                    "internalType": "bytes32",
                    "name": "id",
                    "type": "bytes32"
                },
                {
                    "internalType": "bytes32",
                    "name": "_hashedMessage",
                    "type": "bytes32"
                },
                {
                    "internalType": "uint8",
                    "name": "_v",
                    "type": "uint8"
                },
                {
                    "internalType": "bytes32",
                    "name": "_r",
                    "type": "bytes32"
                },
                {
                    "internalType": "bytes32",
                    "name": "_s",
                    "type": "bytes32"
                }
            ],
            "name": "issueSecondary",
            "outputs": [],
            "stateMutability": "nonpayable",
            "type": "function"
        },
        {
            "inputs": [
                {
                    "components": [
                        {
                            "internalType": "address",
                            "name": "transferor",
                            "type": "address"
                        },
                        {
                            "internalType": "address",
                            "name": "transferee",
                            "type": "address"
                        },
                        {
                            "internalType": "address",
                            "name": "security",
                            "type": "address"
                        },
                        {
                            "internalType": "bytes32",
                            "name": "status",
                            "type": "bytes32"
                        },
                        {
                            "internalType": "bytes32",
                            "name": "transferorDPID",
                            "type": "bytes32"
                        },
                        {
                            "internalType": "bytes32",
                            "name": "transfereeDPID",
                            "type": "bytes32"
                        },
                        {
                            "internalType": "address",
                            "name": "currency",
                            "type": "address"
                        },
                        {
                            "internalType": "uint256",
                            "name": "price",
                            "type": "uint256"
                        },
                        {
                            "internalType": "uint256",
                            "name": "unitsToTransfer",
                            "type": "uint256"
                        },
                        {
                            "internalType": "uint256",
                            "name": "consideration",
                            "type": "uint256"
                        },
                        {
                            "internalType": "uint256",
                            "name": "executionDate",
                            "type": "uint256"
                        },
                        {
                            "internalType": "address",
                            "name": "orderPool",
                            "type": "address"
                        },
                        {
                            "internalType": "bytes32",
                            "name": "partyRef",
                            "type": "bytes32"
                        },
                        {
                            "internalType": "bytes32",
                            "name": "counterpartyRef",
                            "type": "bytes32"
                        }
                    ],
                    "internalType": "struct ISettlor.settlement",
                    "name": "newTrade",
                    "type": "tuple"
                },
                {
                    "internalType": "bytes32",
                    "name": "ref",
                    "type": "bytes32"
                }
            ],
            "name": "postSettlement",
            "outputs": [],
            "stateMutability": "nonpayable",
            "type": "function"
        },
        {
            "inputs": [
                {
                    "internalType": "bytes32",
                    "name": "dpid",
                    "type": "bytes32"
                }
            ],
            "name": "getSettlementRequests",
            "outputs": [
                {
                    "internalType": "bytes32[]",
                    "name": "",
                    "type": "bytes32[]"
                }
            ],
            "stateMutability": "view",
            "type": "function",
            "constant": true
        },
        {
            "inputs": [
                {
                    "internalType": "bytes32",
                    "name": "ref",
                    "type": "bytes32"
                }
            ],
            "name": "getSettlementRequest",
            "outputs": [
                {
                    "components": [
                        {
                            "internalType": "address",
                            "name": "transferor",
                            "type": "address"
                        },
                        {
                            "internalType": "address",
                            "name": "transferee",
                            "type": "address"
                        },
                        {
                            "internalType": "address",
                            "name": "security",
                            "type": "address"
                        },
                        {
                            "internalType": "bytes32",
                            "name": "status",
                            "type": "bytes32"
                        },
                        {
                            "internalType": "bytes32",
                            "name": "transferorDPID",
                            "type": "bytes32"
                        },
                        {
                            "internalType": "bytes32",
                            "name": "transfereeDPID",
                            "type": "bytes32"
                        },
                        {
                            "internalType": "address",
                            "name": "currency",
                            "type": "address"
                        },
                        {
                            "internalType": "uint256",
                            "name": "price",
                            "type": "uint256"
                        },
                        {
                            "internalType": "uint256",
                            "name": "unitsToTransfer",
                            "type": "uint256"
                        },
                        {
                            "internalType": "uint256",
                            "name": "consideration",
                            "type": "uint256"
                        },
                        {
                            "internalType": "uint256",
                            "name": "executionDate",
                            "type": "uint256"
                        },
                        {
                            "internalType": "address",
                            "name": "orderPool",
                            "type": "address"
                        },
                        {
                            "internalType": "bytes32",
                            "name": "partyRef",
                            "type": "bytes32"
                        },
                        {
                            "internalType": "bytes32",
                            "name": "counterpartyRef",
                            "type": "bytes32"
                        }
                    ],
                    "internalType": "struct ISettlor.settlement",
                    "name": "",
                    "type": "tuple"
                }
            ],
            "stateMutability": "view",
            "type": "function",
            "constant": true
        },
        {
            "inputs": [
                {
                    "internalType": "bytes32",
                    "name": "ref",
                    "type": "bytes32"
                },
                {
                    "internalType": "bytes32",
                    "name": "status",
                    "type": "bytes32"
                },
                {
                    "internalType": "bytes32",
                    "name": "id",
                    "type": "bytes32"
                }
            ],
            "name": "setSettlementStatus",
            "outputs": [],
            "stateMutability": "nonpayable",
            "type": "function"
        },
        {
            "inputs": [
                {
                    "internalType": "address",
                    "name": "party",
                    "type": "address"
                }
            ],
            "name": "getTransferAgent",
            "outputs": [
                {
                    "internalType": "bytes32",
                    "name": "",
                    "type": "bytes32"
                }
            ],
            "stateMutability": "view",
            "type": "function",
            "constant": true
        }
    ],
    "bytecode": "0x6080604052600060025534801561001557600080fd5b50600080546001600160a01b0319163390811782556040519091907f8be0079c531659141344cd1fd0a4f28419497f9722a3daafe3b4186f6b6457e0908290a3611a49806100646000396000f3fe608060405234801561001057600080fd5b50600436106100b45760003560e01c80637dd645db116100715780637dd645db146101525780638da5cb5b14610165578063bfc624321461017a578063c350a1b51461018d578063c45a0155146101a0578063f2fde38b146101a8576100b4565b8063055f5540146100b95780631459945d146100e25780632ac53ebd146100f75780636c19e78314610117578063715018a61461012a57806379a7dc0e14610132575b600080fd5b6100cc6100c736600461143e565b6101bb565b6040516100d99190611784565b60405180910390f35b6100f56100f036600461166e565b610241565b005b61010a610105366004611555565b61041d565b6040516100d99190611740565b6100f561012536600461143e565b610517565b6100f5610557565b610145610140366004611555565b6105ad565b6040516100d991906118dc565b6100f5610160366004611476565b61068c565b61016d610ae8565b6040516100d99190611708565b6100f56101883660046115a8565b610af7565b6100f561019b3660046114f4565b61126d565b61016d6112ad565b6100f56101b636600461143e565b6112bc565b60065460405162157d5560e61b81526000916001600160a01b03169063055f5540906101eb908590600401611708565b60206040518083038186803b15801561020357600080fd5b505afa158015610217573d6000803e3d6000fd5b505050506040513d601f19601f8201168201806040525081019061023b919061156d565b92915050565b336000908152600560205260409020546102765760405162461bcd60e51b815260040161026d9061187f565b60405180910390fd5b608082013560009081526004602090815260408083208054600181810183559185528385200185905560a08601358452908320805491820181558352918190209091018290556102c89083018361143e565b60008281526003602090815260409182902080546001600160a01b0319166001600160a01b0394909416939093179092556103089190840190840161143e565b6000828152600360205260409081902060010180546001600160a01b0319166001600160a01b03939093169290921790915561034a906060840190840161143e565b60008281526003602052604090206002810180546001600160a01b0319166001600160a01b039390931692909217909155610120830135600982015560e0830180356007909201919091556103a29060c0840161143e565b60009182526003602081905260409092206006810180546001600160a01b03939093166001600160a01b03199384161790556101008401356008820155610140840135600a820155606084013592810192909255600b8201805490911633179055610180820135600c8201556101a090910135600d90910155565b600654604051634427673360e01b81526060916000916001600160a01b0390911690634427673390610453903390600401611708565b604080518083038186803b15801561046a57600080fd5b505afa15801561047e573d6000803e3d6000fd5b505050506040513d601f19601f820116820180604052508101906104a29190611585565b5090508061044560f41b146104b657600080fd5b6000838152600460209081526040918290208054835181840281018401909452808452909183018282801561050a57602002820191906000526020600020905b8154815260200190600101908083116104f6575b5050505050915050919050565b61053533610523610ae8565b6001600160a01b0316146101aa61133a565b600780546001600160a01b0319166001600160a01b0392909216919091179055565b61056333610523610ae8565b600080546040516001600160a01b03909116907f8be0079c531659141344cd1fd0a4f28419497f9722a3daafe3b4186f6b6457e0908390a3600080546001600160a01b0319169055565b6105b56113ca565b816105bf57600080fd5b6105c76113ca565b5050604080516101c08101825260008381526003602081815284832080546001600160a01b0390811686526001820154811683870152600282015481169686019690965280830154606086015260048101546080860152600581015460a08601526006810154861660c0860152600781015460e086015260088101546101008601526009810154610120860152600a810154610140860152600b810154909516610160850152600c85015461018085015294909152909252600d01546101a082015290565b60008460405160200161069f91906117b1565b6040516020818303038152906040528051906020012090506000816040516020016106ca91906116d7565b60408051601f19818403018152828252805160209182012060075460008552939091019182905292506001600160a01b039091169060019061071390849089908990899061180d565b6020604051602081039080840390855afa158015610735573d6000803e3d6000fd5b505050602060405103516001600160a01b031614806108df57506040516370a0823160e01b815288906001600160a01b038c16906370a082319061077d903390600401611708565b60206040518083038186803b15801561079557600080fd5b505afa1580156107a9573d6000803e3d6000fd5b505050506040513d601f19601f820116820180604052508101906107cd919061156d565b1115801561085757506040516370a0823160e01b81526000906001600160a01b038c16906370a0823190610805903390600401611708565b60206040518083038186803b15801561081d57600080fd5b505afa158015610831573d6000803e3d6000fd5b505050506040513d601f19601f82011682018060405250810190610855919061156d565b115b80156108df57506040516370a0823160e01b81526000906001600160a01b038b16906370a082319061088d903390600401611708565b60206040518083038186803b1580156108a557600080fd5b505afa1580156108b9573d6000803e3d6000fd5b505050506040513d601f19601f820116820180604052508101906108dd919061156d565b115b6108e857600080fd5b6000600160009054906101000a90046001600160a01b03166001600160a01b03166374dcc7a48c6001600160a01b03166306fdde036040518163ffffffff1660e01b815260040160006040518083038186803b15801561094757600080fd5b505afa15801561095b573d6000803e3d6000fd5b505050506040513d6000823e601f3d908101601f1916820160405261098391908101906115d3565b8d6001600160a01b03166395d89b416040518163ffffffff1660e01b815260040160006040518083038186803b1580156109bc57600080fd5b505afa1580156109d0573d6000803e3d6000fd5b505050506040513d6000823e601f3d908101601f191682016040526109f891908101906115d3565b8e8e8e6002546040518763ffffffff1660e01b8152600401610a1f9695949392919061182b565b602060405180830381600087803b158015610a3957600080fd5b505af1158015610a4d573d6000803e3d6000fd5b505050506040513d601f19601f82011682018060405250810190610a71919061145a565b6001600160a01b0381166000818152600560205260408082208c9055805163204a7f0760e21b815290519394509192638129fc1c92600480820193929182900301818387803b158015610ac357600080fd5b505af1158015610ad7573d6000803e3d6000fd5b505050505050505050505050505050565b6000546001600160a01b031690565b600654604051634427673360e01b81526000916001600160a01b031690634427673390610b28903390600401611708565b604080518083038186803b158015610b3f57600080fd5b505afa158015610b53573d6000803e3d6000fd5b505050506040513d601f19601f82011682018060405250810190610b779190611585565b5090508061044560f41b14610b8b57600080fd5b8266436f6e6669726d60c81b1480610bab5750826514995a9958dd60d21b145b610bb457600080fd5b600084815260036020819052604082200184905566436f6e6669726d60c81b84141561115a5760008581526003602052604081206007810154600890910154610bfd919061134c565b6000878152600360205260409081902060068101546001820154915492516323b872dd60e01b81529394506001600160a01b03908116936323b872dd93610c4d938316921690869060040161171c565b602060405180830381600087803b158015610c6757600080fd5b505af1158015610c7b573d6000803e3d6000fd5b505050506040513d601f19601f82011682018060405250810190610c9f9190611535565b15611154576000868152600360205260409081902060028101548154600183015460089093015493516323b872dd60e01b81526001600160a01b03928316946323b872dd94610cf69493841693169160040161171c565b602060405180830381600087803b158015610d1057600080fd5b505af1158015610d24573d6000803e3d6000fd5b505050506040513d601f19601f82011682018060405250810190610d489190611535565b91508115610fb85760008681526003602052604090819020600b810154600c820154600d9092015492516309e722a360e11b81526001600160a01b03909116926313ce454692610d9d9290919060040161178d565b600060405180830381600087803b158015610db757600080fd5b505af1158015610dcb573d6000803e3d6000fd5b50505060008781526003602052604090819020600b810154600c820154600d9092015492516382fce88f60e01b81526001600160a01b0390911693506382fce88f92610e1e928b9290919060040161179b565b600060405180830381600087803b158015610e3857600080fd5b505af1158015610e4c573d6000803e3d6000fd5b505050600087815260036020526040908190206001810154815460088301546002840154600785015460069095015495516001600160a01b039485169750928416957fdb2a2159f49495b71579b052eff497e50c97deeb73b10e7e46de4f669dcb58f795610ec49593949284169390929116906119a4565b60405180910390a360005b600085815260046020526040902054811015610fb2576000858152600460205260409020805488919083908110610f0257fe5b90600052602060002001541415610faa5760008581526004602052604090205460001901811415610f57576000858152600460205260409020805482908110610f4757fe5b6000918252602082200155610faa565b6000858152600460205260409020805460018301908110610f7457fe5b9060005260206000200154600460008781526020019081526020016000208281548110610f9d57fe5b6000918252602090912001555b600101610ecf565b50611154565b60008681526003602052604090819020600b810154600c8201546008909201549251623e080960e71b81526001600160a01b0390911692631f04048092611004929091906004016117d8565b600060405180830381600087803b15801561101e57600080fd5b505af1158015611032573d6000803e3d6000fd5b50505060008781526003602052604090819020600b810154600d8201546008909201549251623e080960e71b81526001600160a01b039091169350631f0404809261108092916004016117f3565b600060405180830381600087803b15801561109a57600080fd5b505af11580156110ae573d6000803e3d6000fd5b505050600087815260036020526040908190206006810154815460019092015492516323b872dd60e01b81526001600160a01b0391821694506323b872dd93611100938316921690869060040161171c565b602060405180830381600087803b15801561111a57600080fd5b505af115801561112e573d6000803e3d6000fd5b505050506040513d601f19601f820116820180604052508101906111529190611535565b505b50611266565b836514995a9958dd60d21b14156112665760008581526003602052604090819020600b810154600c8201546008909201549251623e080960e71b81526001600160a01b0390911692631f040480926111b7929091906004016117d8565b600060405180830381600087803b1580156111d157600080fd5b505af11580156111e5573d6000803e3d6000fd5b50505060008681526003602052604090819020600b810154600d8201546008909201549251623e080960e71b81526001600160a01b039091169350631f0404809261123392916004016117f3565b600060405180830381600087803b15801561124d57600080fd5b505af1158015611261573d6000803e3d6000fd5b505050505b5050505050565b61127933610523610ae8565b600180546001600160a01b039485166001600160a01b03199182161790915560029290925560068054919093169116179055565b6001546001600160a01b031681565b6112c833610523610ae8565b6112df6001600160a01b03821615156101ab61133a565b600080546040516001600160a01b03808516939216917f8be0079c531659141344cd1fd0a4f28419497f9722a3daafe3b4186f6b6457e091a3600080546001600160a01b0319166001600160a01b0392909216919091179055565b816113485761134881611377565b5050565b600082820261137084158061136957508385838161136657fe5b04145b600361133a565b9392505050565b62461bcd60e51b6000908152602060045260076024526642414c23000030600a808404818106603090810160081b95839006959095019082900491820690940160101b939093010160c81b604452606490fd5b604080516101c081018252600080825260208201819052918101829052606081018290526080810182905260a0810182905260c0810182905260e08101829052610100810182905261012081018290526101408101829052610160810182905261018081018290526101a081019190915290565b60006020828403121561144f578081fd5b8135611370816119fb565b60006020828403121561146b578081fd5b8151611370816119fb565b600080600080600080600080610100898b031215611492578384fd5b883561149d816119fb565b975060208901356114ad816119fb565b965060408901359550606089013594506080890135935060a089013560ff811681146114d7578384fd5b979a969950949793969295929450505060c08201359160e0013590565b600080600060608486031215611508578283fd5b8335611513816119fb565b925060208401359150604084013561152a816119fb565b809150509250925092565b600060208284031215611546578081fd5b81518015158114611370578182fd5b600060208284031215611566578081fd5b5035919050565b60006020828403121561157e578081fd5b5051919050565b60008060408385031215611597578182fd5b505080516020909101519092909150565b6000806000606084860312156115bc578283fd5b505081359360208301359350604090920135919050565b6000602082840312156115e4578081fd5b815167ffffffffffffffff808211156115fb578283fd5b818401915084601f83011261160e578283fd5b81518181111561161c578384fd5b604051601f8201601f19168101602001838111828210171561163c578586fd5b604052818152838201602001871015611653578485fd5b6116648260208301602087016119cb565b9695505050505050565b6000808284036101e0811215611682578283fd5b6101c080821215611691578384fd5b9395938601359450505050565b6001600160a01b03169052565b600081518084526116c38160208601602086016119cb565b601f01601f19169290920160200192915050565b7f19457468657265756d205369676e6564204d6573736167653a0a3332000000008152601c810191909152603c0190565b6001600160a01b0391909116815260200190565b6001600160a01b039384168152919092166020820152604081019190915260600190565b6020808252825182820181905260009190848201906040850190845b818110156117785783518352928401929184019160010161175c565b50909695505050505050565b90815260200190565b918252602082015260400190565b9283526020830191909152604082015260600190565b908152604060208201819052600690820152654c32746f4c3160d01b606082015260800190565b91825260208201526314d95b1b60e21b604082015260600190565b91825260208201526242757960e81b604082015260600190565b93845260ff9290921660208401526040830152606082015260800190565b600060c0825261183e60c08301896116ab565b828103602084015261185081896116ab565b6001600160a01b03978816604085015295909616606083015250608081019290925260a0909101529392505050565b6020808252603b908201527f43616c6c20746f20736574746c65207472616465206973206e6f74206d61646560408201527f20627920612076616c6964207365636f6e6461727920706f6f6c2e0000000000606082015260800190565b60006101c0820190506118f082845161169e565b6020830151611902602084018261169e565b506040830151611915604084018261169e565b50606083015160608301526080830151608083015260a083015160a083015260c083015161194660c084018261169e565b5060e08381015190830152610100808401519083015261012080840151908301526101408084015190830152610160808401516119858285018261169e565b505061018083810151908301526101a092830151929091019190915290565b9384526001600160a01b039283166020850152604084019190915216606082015260800190565b60005b838110156119e65781810151838201526020016119ce565b838111156119f5576000848401525b50505050565b6001600160a01b0381168114611a1057600080fd5b5056fea2646970667358221220e657068c0f6faceb5025378c503203875399680627c6cd50f55745e0a7f46a0464736f6c63430007010033",
    "immutableReferences": {},
    "source": "// External interface for settlement of trades\n// (c) Kallol Borah, 2022\n// \"SPDX-License-Identifier: BUSL1.1\"\n\npragma solidity 0.7.1;\npragma experimental ABIEncoderV2;\n\nimport \"./interfaces/ISettlor.sol\";\nimport \"./interfaces/IOrder.sol\";\nimport \"./interfaces/ITrade.sol\";\nimport './interfaces/VerifiedClient.sol';\nimport \"./interfaces/ISecondaryIssuePool.sol\";\nimport \"./interfaces/ISecondaryIssuePoolFactory.sol\";\n\nimport \"@balancer-labs/v2-solidity-utils/contracts/math/Math.sol\";\nimport \"@balancer-labs/v2-solidity-utils/contracts/openzeppelin/ERC20.sol\";\nimport \"@balancer-labs/v2-solidity-utils/contracts/openzeppelin/IERC20.sol\";\nimport \"@balancer-labs/v2-solidity-utils/contracts/openzeppelin/Ownable.sol\";\n \ncontract SecondaryIssueManager is ISettlor, Ownable {\n\n    using Math for uint256;\n\n    // balancer variables\n    ISecondaryIssuePoolFactory public factory;\n    uint256 fee=0;\n\n    // mapping settlement ref to trade execution data\n    mapping(bytes32 => ISettlor.settlement) settlements;\n\n    //mapping depository participants to trades they are part of\n    mapping(bytes32 => bytes32[]) private trades;\n\n    //mapping pool address to pool id\n    mapping(address => bytes32) private pools;\n\n    // reference to the Verified Client contract\n    VerifiedClient client;\n\n    address private bridge;\n\n    event tradeSettled(address indexed transferor,\n                        address indexed transferee,\n                        uint256 unitsToTransfer,\n                        address security,\n                        uint256 price,\n                        address currency\n                    );\n\n    /**\n        Initializes this asset management contract\n        @param  _factory            reference to the secondary issue pool factory contract\n        @param  _issueFeePercentage  percentage of trading fee to be charged by the asset manager\n        @param  _client             address of Verified client contract\n     */\n    function initialize(address _factory, uint256 _issueFeePercentage, address _client) onlyOwner public {\n        factory = ISecondaryIssuePoolFactory(_factory);\n        fee = _issueFeePercentage;\n        client = VerifiedClient(_client);\n    }\n\n    function setSigner(address _signer) onlyOwner external{\n        bridge = _signer;\n    }\n\n    /**\n        Joins existing (secondary) tokenized assets into pool by primary issue token holders\n        @param  security    reference to asset issued\n        @param  currency    reference to cash (settlement) token\n        @param  amount      amount of asset issued in pool\n        @param  id          identifier (eg, ISIN) for asset issued\n     */\n    function issueSecondary(address security, address currency, uint256 amount, bytes32 id, bytes32 _hashedMessage, uint8 _v, bytes32 _r, bytes32 _s) override external {\n        bytes32 payloadHash = keccak256(abi.encode(_hashedMessage, \"L2toL1\"));\n        bytes32 messageHash = keccak256(abi.encodePacked(\"\\x19Ethereum Signed Message:\\n32\", payloadHash));\n        require(ecrecover(messageHash, _v, _r, _s)== bridge || (IERC20(security).balanceOf(msg.sender)<=amount &&\n                            IERC20(security).balanceOf(msg.sender)>0 && IERC20(currency).balanceOf(msg.sender)>0));\n        address pool = factory.create(\n            ERC20(security).name(),\n            ERC20(security).symbol(),\n            security,\n            currency,\n            amount,\n            fee\n        );\n        pools[pool] = id;\n        // initialize the pool here                \n        ISecondaryIssuePool(pool).initialize();\n    }\n\n    /**\n        Posts trades matched in pool\n        @param  newTrade    data structure with trade execution data\n        @param  ref         reference to the asset traded\n     */\n    function postSettlement(ISettlor.settlement calldata newTrade, bytes32 ref) override external {\n        require(pools[msg.sender]!=\"\", \"Call to settle trade is not made by a valid secondary pool.\");\n        trades[newTrade.transferorDPID].push(ref);\n        trades[newTrade.transfereeDPID].push(ref);\n        settlements[ref].transferor = newTrade.transferor;\n        settlements[ref].transferee = newTrade.transferee;\n        settlements[ref].security = newTrade.security;\n        settlements[ref].consideration = newTrade.consideration;\n        settlements[ref].price = newTrade.price;\n        settlements[ref].currency = newTrade.currency;\n        settlements[ref].unitsToTransfer = newTrade.unitsToTransfer;\n        settlements[ref].executionDate = newTrade.executionDate;\n        settlements[ref].status = newTrade.status;\n        settlements[ref].orderPool = msg.sender;\n        settlements[ref].partyRef = newTrade.partyRef;\n        settlements[ref].counterpartyRef = newTrade.counterpartyRef;\n    }\n\n    /**\n        Fetches trade settlement requests for depository participant\n        @param  dpid         identifier of depository participant (eg, transfer agent) that is authorized to settle the asset \n     */\n    function getSettlementRequests(bytes32 dpid) override external view returns(bytes32[] memory){\n        (bytes32 role, ) = client.getRole(msg.sender);\n        require(role=='DP');\n        return trades[dpid];\n    }\n\n    /**\n        Fetches a specific trade settlement request        \n        @param  ref         reference to the trade\n     */\n    function getSettlementRequest(bytes32 ref) override external view returns(settlement memory){\n        require(ref!=\"\"); \n        ISettlor.settlement memory response = ISettlor.settlement({\n            transferor : settlements[ref].transferor,\n            transferee : settlements[ref].transferee,\n            security : settlements[ref].security,\n            status : settlements[ref].status,\n            transferorDPID : settlements[ref].transferorDPID,\n            transfereeDPID : settlements[ref].transfereeDPID,\n            currency : settlements[ref].currency,\n            price : settlements[ref].price,\n            consideration : settlements[ref].consideration,\n            unitsToTransfer : settlements[ref].unitsToTransfer,\n            executionDate : settlements[ref].executionDate,\n            orderPool : settlements[ref].orderPool,\n            partyRef : settlements[ref].partyRef,\n            counterpartyRef : settlements[ref].counterpartyRef\n        });\n        return response;                                                              \n    }\n    \n    /**\n        Sets settlement status for trades executed\n        @param  ref         reference to the trade executed\n        @param  status      settlement status\n        @param  id          identifier of asset traded\n     */\n    function setSettlementStatus(bytes32 ref, bytes32 status, bytes32 id) override external{\n        (bytes32 role, ) = client.getRole(msg.sender);\n        require(role=='DP');\n        require(status==\"Confirm\" || status==\"Reject\");\n        settlements[ref].status = status;\n        bool success;\n        if(status==\"Confirm\"){\n            uint256 pay = Math.mul(settlements[ref].price, settlements[ref].unitsToTransfer);\n            if(IERC20(settlements[ref].currency).transferFrom(settlements[ref].transferee, settlements[ref].transferor, pay)){                \n                success = IERC20(settlements[ref].security).transferFrom(settlements[ref].transferor, \n                                                                settlements[ref].transferee, \n                                                                settlements[ref].unitsToTransfer);\n                if(success){\n                    IOrder(settlements[ref].orderPool).orderFilled(settlements[ref].partyRef, settlements[ref].counterpartyRef);\n                    ITrade(settlements[ref].orderPool).tradeSettled(ref, settlements[ref].partyRef, settlements[ref].counterpartyRef);\n                    emit tradeSettled(settlements[ref].transferor, \n                                        settlements[ref].transferee, \n                                        settlements[ref].unitsToTransfer,\n                                        settlements[ref].security,\n                                        settlements[ref].price,\n                                        settlements[ref].currency\n                                    );\n                    for(uint i=0; i<trades[id].length; i++){\n                        if(trades[id][i]==ref){\n                            if(i==trades[id].length-1)\n                                delete trades[id][i];\n                            else\n                                trades[id][i] = trades[id][i+1];\n                        }\n                    }\n                }\n                else{\n                    IOrder(settlements[ref].orderPool).revertTrade(settlements[ref].partyRef, settlements[ref].unitsToTransfer, \"Sell\");\n                    IOrder(settlements[ref].orderPool).revertTrade(settlements[ref].counterpartyRef, settlements[ref].unitsToTransfer, \"Buy\");\n                    IERC20(settlements[ref].currency).transferFrom(settlements[ref].transferor, settlements[ref].transferee, pay);\n                }\n            }\n        }\n        else if(status==\"Reject\"){\n            IOrder(settlements[ref].orderPool).revertTrade(settlements[ref].partyRef, settlements[ref].unitsToTransfer, \"Sell\");\n            IOrder(settlements[ref].orderPool).revertTrade(settlements[ref].counterpartyRef, settlements[ref].unitsToTransfer, \"Buy\");\n        }            \n    }\n\n    /**\n        Gets transfer agent for any of the parties in the trade\n        @param  party         reference to the party or counterparty in a trade\n     */\n    function getTransferAgent(address party) override external view returns(bytes32){\n        return(client.getTransferAgent(party));\n    }\n\n}",
    "sourcePath": "D:\\Code\\verified-balancer\\contracts\\SecondaryIssueManager.sol",
    "compiler": {
        "name": "solc",
        "version": "0.7.1+commit.f4a555be.Emscripten.clang"
    },
    "schemaVersion": "3.4.3",
    "updatedAt": "2022-11-11T02:08:41.053Z",
    "networkType": "ethereum",
    "devdoc": {
        "kind": "dev",
        "methods": {
            "getSettlementRequest(bytes32)": {
                "params": {
                    "ref": "reference to the trade"
                }
            },
            "getSettlementRequests(bytes32)": {
                "params": {
                    "dpid": "identifier of depository participant (eg, transfer agent) that is authorized to settle the asset "
                }
            },
            "getTransferAgent(address)": {
                "params": {
                    "party": "reference to the party or counterparty in a trade"
                }
            },
            "initialize(address,uint256,address)": {
                "params": {
                    "_client": "address of Verified client contract",
                    "_factory": "reference to the secondary issue pool factory contract",
                    "_issueFeePercentage": "percentage of trading fee to be charged by the asset manager"
                }
            },
            "issueSecondary(address,address,uint256,bytes32,bytes32,uint8,bytes32,bytes32)": {
                "params": {
                    "amount": "amount of asset issued in pool",
                    "currency": "reference to cash (settlement) token",
                    "id": "identifier (eg, ISIN) for asset issued",
                    "security": "reference to asset issued"
                }
            },
            "owner()": {
                "details": "Returns the address of the current owner."
            },
            "postSettlement((address,address,address,bytes32,bytes32,bytes32,address,uint256,uint256,uint256,uint256,address,bytes32,bytes32),bytes32)": {
                "params": {
                    "newTrade": "data structure with trade execution data",
                    "ref": "reference to the asset traded"
                }
            },
            "renounceOwnership()": {
                "details": "Leaves the contract without owner. It will not be possible to call `onlyOwner` functions anymore. Can only be called by the current owner. NOTE: Renouncing ownership will leave the contract without an owner, thereby removing any functionality that is only available to the owner."
            },
            "setSettlementStatus(bytes32,bytes32,bytes32)": {
                "params": {
                    "id": "identifier of asset traded",
                    "ref": "reference to the trade executed",
                    "status": "settlement status"
                }
            },
            "transferOwnership(address)": {
                "details": "Transfers ownership of the contract to a new account (`newOwner`). Can only be called by the current owner."
            }
        },
        "version": 1
    },
    "userdoc": {
        "kind": "user",
        "methods": {
            "getSettlementRequest(bytes32)": {
                "notice": "Fetches a specific trade settlement request        "
            },
            "getSettlementRequests(bytes32)": {
                "notice": "Fetches trade settlement requests for depository participant"
            },
            "getTransferAgent(address)": {
                "notice": "Gets transfer agent for any of the parties in the trade"
            },
            "initialize(address,uint256,address)": {
                "notice": "Initializes this asset management contract"
            },
            "issueSecondary(address,address,uint256,bytes32,bytes32,uint8,bytes32,bytes32)": {
                "notice": "Joins existing (secondary) tokenized assets into pool by primary issue token holders"
            },
            "postSettlement((address,address,address,bytes32,bytes32,bytes32,address,uint256,uint256,uint256,uint256,address,bytes32,bytes32),bytes32)": {
                "notice": "Posts trades matched in pool"
            },
            "setSettlementStatus(bytes32,bytes32,bytes32)": {
                "notice": "Sets settlement status for trades executed"
            }
        },
        "version": 1
    }
}