{
    "contractName": "SecondaryIssueManager",
    "abi": [
        {
            "anonymous": false,
            "inputs": [
                {
                    "indexed": true,
                    "internalType": "address",
                    "name": "previousOwner",
                    "type": "address"
                },
                {
                    "indexed": true,
                    "internalType": "address",
                    "name": "newOwner",
                    "type": "address"
                }
            ],
            "name": "OwnershipTransferred",
            "type": "event"
        },
        {
            "anonymous": false,
            "inputs": [
                {
                    "indexed": false,
                    "internalType": "address",
                    "name": "security",
                    "type": "address"
                },
                {
                    "indexed": false,
                    "internalType": "address",
                    "name": "platform",
                    "type": "address"
                },
                {
                    "indexed": false,
                    "internalType": "bytes32",
                    "name": "poolId",
                    "type": "bytes32"
                },
                {
                    "components": [
                        {
                            "internalType": "address",
                            "name": "investor",
                            "type": "address"
                        },
                        {
                            "internalType": "address",
                            "name": "asset",
                            "type": "address"
                        },
                        {
                            "internalType": "address",
                            "name": "currency",
                            "type": "address"
                        },
                        {
                            "internalType": "uint256",
                            "name": "amount",
                            "type": "uint256"
                        },
                        {
                            "internalType": "uint256",
                            "name": "price",
                            "type": "uint256"
                        }
                    ],
                    "indexed": false,
                    "internalType": "struct ISettlor.subscriptions[]",
                    "name": "investors",
                    "type": "tuple[]"
                }
            ],
            "name": "subscribers",
            "type": "event"
        },
        {
            "anonymous": false,
            "inputs": [
                {
                    "indexed": true,
                    "internalType": "address",
                    "name": "transferor",
                    "type": "address"
                },
                {
                    "indexed": true,
                    "internalType": "address",
                    "name": "transferee",
                    "type": "address"
                },
                {
                    "indexed": false,
                    "internalType": "uint256",
                    "name": "unitsToTransfer",
                    "type": "uint256"
                },
                {
                    "indexed": false,
                    "internalType": "address",
                    "name": "security",
                    "type": "address"
                },
                {
                    "indexed": false,
                    "internalType": "uint256",
                    "name": "price",
                    "type": "uint256"
                },
                {
                    "indexed": false,
                    "internalType": "address",
                    "name": "currency",
                    "type": "address"
                }
            ],
            "name": "tradeSettled",
            "type": "event"
        },
        {
            "inputs": [],
            "name": "owner",
            "outputs": [
                {
                    "internalType": "address",
                    "name": "",
                    "type": "address"
                }
            ],
            "stateMutability": "view",
            "type": "function",
            "constant": true
        },
        {
            "inputs": [],
            "name": "renounceOwnership",
            "outputs": [],
            "stateMutability": "nonpayable",
            "type": "function"
        },
        {
            "inputs": [
                {
                    "internalType": "address",
                    "name": "newOwner",
                    "type": "address"
                }
            ],
            "name": "transferOwnership",
            "outputs": [],
            "stateMutability": "nonpayable",
            "type": "function"
        },
        {
            "inputs": [
                {
                    "internalType": "address",
                    "name": "_factory",
                    "type": "address"
                },
                {
                    "internalType": "uint256",
                    "name": "_issueFeePercentage",
                    "type": "uint256"
                },
                {
                    "internalType": "address",
                    "name": "_client",
                    "type": "address"
                },
                {
                    "internalType": "address",
                    "name": "_vault",
                    "type": "address"
                },
                {
                    "internalType": "address",
                    "name": "_distribution",
                    "type": "address"
                },
                {
                    "internalType": "address",
                    "name": "_products",
                    "type": "address"
                }
            ],
            "name": "initialize",
            "outputs": [],
            "stateMutability": "nonpayable",
            "type": "function"
        },
        {
            "inputs": [
                {
                    "internalType": "address",
                    "name": "_signer",
                    "type": "address"
                }
            ],
            "name": "setSigner",
            "outputs": [],
            "stateMutability": "nonpayable",
            "type": "function"
        },
        {
            "inputs": [
                {
                    "internalType": "address",
                    "name": "security",
                    "type": "address"
                },
                {
                    "internalType": "address",
                    "name": "currency",
                    "type": "address"
                },
                {
                    "internalType": "uint256",
                    "name": "minSecurityOrder",
                    "type": "uint256"
                },
                {
                    "internalType": "uint256",
                    "name": "cashAmount",
                    "type": "uint256"
                },
                {
                    "internalType": "bytes32",
                    "name": "_hashedMessage",
                    "type": "bytes32"
                },
                {
                    "internalType": "uint8",
                    "name": "_v",
                    "type": "uint8"
                },
                {
                    "internalType": "bytes32",
                    "name": "_r",
                    "type": "bytes32"
                },
                {
                    "internalType": "bytes32",
                    "name": "_s",
                    "type": "bytes32"
                }
            ],
            "name": "issueSecondary",
            "outputs": [],
            "stateMutability": "nonpayable",
            "type": "function"
        },
        {
            "inputs": [
                {
                    "components": [
                        {
                            "internalType": "bytes32",
                            "name": "partyRef",
                            "type": "bytes32"
                        },
                        {
                            "internalType": "uint256",
                            "name": "partyInAmount",
                            "type": "uint256"
                        },
                        {
                            "internalType": "bytes32",
                            "name": "counterpartyRef",
                            "type": "bytes32"
                        },
                        {
                            "internalType": "uint256",
                            "name": "counterpartyInAmount",
                            "type": "uint256"
                        },
                        {
                            "internalType": "uint256",
                            "name": "price",
                            "type": "uint256"
                        },
                        {
                            "internalType": "uint256",
                            "name": "dt",
                            "type": "uint256"
                        }
                    ],
                    "internalType": "struct ITrade.trade",
                    "name": "tradeToReport",
                    "type": "tuple"
                },
                {
                    "internalType": "contract IOrder",
                    "name": "orderbook",
                    "type": "address"
                }
            ],
            "name": "requestSettlement",
            "outputs": [],
            "stateMutability": "nonpayable",
            "type": "function"
        },
        {
            "inputs": [
                {
                    "internalType": "bytes32",
                    "name": "dpid",
                    "type": "bytes32"
                }
            ],
            "name": "getSettlementRequests",
            "outputs": [
                {
                    "internalType": "bytes32[]",
                    "name": "",
                    "type": "bytes32[]"
                }
            ],
            "stateMutability": "view",
            "type": "function",
            "constant": true
        },
        {
            "inputs": [
                {
                    "internalType": "bytes32",
                    "name": "ref",
                    "type": "bytes32"
                }
            ],
            "name": "getSettlementRequest",
            "outputs": [
                {
                    "components": [
                        {
                            "internalType": "address",
                            "name": "transferor",
                            "type": "address"
                        },
                        {
                            "internalType": "address",
                            "name": "transferee",
                            "type": "address"
                        },
                        {
                            "internalType": "address",
                            "name": "security",
                            "type": "address"
                        },
                        {
                            "internalType": "bytes32",
                            "name": "status",
                            "type": "bytes32"
                        },
                        {
                            "internalType": "bytes32",
                            "name": "transferorDPID",
                            "type": "bytes32"
                        },
                        {
                            "internalType": "bytes32",
                            "name": "transfereeDPID",
                            "type": "bytes32"
                        },
                        {
                            "internalType": "address",
                            "name": "currency",
                            "type": "address"
                        },
                        {
                            "internalType": "uint256",
                            "name": "price",
                            "type": "uint256"
                        },
                        {
                            "internalType": "uint256",
                            "name": "askprice",
                            "type": "uint256"
                        },
                        {
                            "internalType": "uint256",
                            "name": "unitsToTransfer",
                            "type": "uint256"
                        },
                        {
                            "internalType": "uint256",
                            "name": "consideration",
                            "type": "uint256"
                        },
                        {
                            "internalType": "uint256",
                            "name": "executionDate",
                            "type": "uint256"
                        },
                        {
                            "internalType": "contract IOrder",
                            "name": "orderPool",
                            "type": "address"
                        },
                        {
                            "internalType": "bytes32",
                            "name": "partyRef",
                            "type": "bytes32"
                        },
                        {
                            "internalType": "bytes32",
                            "name": "counterpartyRef",
                            "type": "bytes32"
                        }
                    ],
                    "internalType": "struct ISettlor.settlement",
                    "name": "",
                    "type": "tuple"
                }
            ],
            "stateMutability": "view",
            "type": "function",
            "constant": true
        },
        {
            "inputs": [
                {
                    "internalType": "bytes32",
                    "name": "ref",
                    "type": "bytes32"
                },
                {
                    "internalType": "bytes32",
                    "name": "status",
                    "type": "bytes32"
                }
            ],
            "name": "setSettlementStatus",
            "outputs": [],
            "stateMutability": "nonpayable",
            "type": "function"
        },
        {
            "inputs": [
                {
                    "internalType": "bytes32",
                    "name": "poolId",
                    "type": "bytes32"
                },
                {
                    "internalType": "bytes32",
                    "name": "_hashedMessage",
                    "type": "bytes32"
                },
                {
                    "internalType": "uint8",
                    "name": "_v",
                    "type": "uint8"
                },
                {
                    "internalType": "bytes32",
                    "name": "_r",
                    "type": "bytes32"
                },
                {
                    "internalType": "bytes32",
                    "name": "_s",
                    "type": "bytes32"
                }
            ],
            "name": "getSubscribers",
            "outputs": [
                {
                    "components": [
                        {
                            "internalType": "address",
                            "name": "investor",
                            "type": "address"
                        },
                        {
                            "internalType": "address",
                            "name": "asset",
                            "type": "address"
                        },
                        {
                            "internalType": "address",
                            "name": "currency",
                            "type": "address"
                        },
                        {
                            "internalType": "uint256",
                            "name": "amount",
                            "type": "uint256"
                        },
                        {
                            "internalType": "uint256",
                            "name": "price",
                            "type": "uint256"
                        }
                    ],
                    "internalType": "struct ISettlor.subscriptions[]",
                    "name": "",
                    "type": "tuple[]"
                }
            ],
            "stateMutability": "nonpayable",
            "type": "function"
        },
        {
            "inputs": [
                {
                    "internalType": "bytes32",
                    "name": "ref",
                    "type": "bytes32"
                }
            ],
            "name": "getTrade",
            "outputs": [
                {
                    "internalType": "uint256",
                    "name": "",
                    "type": "uint256"
                },
                {
                    "internalType": "uint256",
                    "name": "",
                    "type": "uint256"
                }
            ],
            "stateMutability": "view",
            "type": "function",
            "constant": true
        },
        {
            "inputs": [
                {
                    "internalType": "address",
                    "name": "_token",
                    "type": "address"
                }
            ],
            "name": "getTradingFeeCollected",
            "outputs": [
                {
                    "internalType": "uint256",
                    "name": "",
                    "type": "uint256"
                }
            ],
            "stateMutability": "nonpayable",
            "type": "function"
        }
    ],
    "bytecode": "0x608060405234801561001057600080fd5b50600080546001600160a01b0319163390811782556040519091907f8be0079c531659141344cd1fd0a4f28419497f9722a3daafe3b4186f6b6457e0908290a36133d78061005f6000396000f3fe608060405234801561001057600080fd5b50600436106100cf5760003560e01c806379a7dc0e1161008c578063a3b1379911610066578063a3b13799146101a8578063e94a5aa6146101c9578063f1a163c1146101dc578063f2fde38b146101fc576100cf565b806379a7dc0e146101605780638da5cb5b14610180578063a2dc2ab714610195576100cf565b806304967159146100d457806313b63094146100e95780632ac53ebd146100fc5780632d916746146101255780636c19e78314610145578063715018a614610158575b600080fd5b6100e76100e236600461285a565b61020f565b005b6100e76100f7366004612a30565b610af0565b61010f61010a36600461282a565b6112d9565b60405161011c9190612c9f565b60405180910390f35b6101386101333660046125e3565b6113e6565b60405161011c9190612dc4565b6100e76101533660046125e3565b61165b565b6100e761169b565b61017361016e36600461282a565b6116f1565b60405161011c919061320c565b6101886117e0565b60405161011c9190612b9e565b6100e76101a3366004612693565b6117ef565b6101bb6101b636600461282a565b611861565b60405161011c929190612b5f565b6100e76101d736600461261b565b61187e565b6101ef6101ea36600461289e565b611f28565b60405161011c9190612d3b565b6100e761020a3660046125e3565b612221565b600954604051634427673360e01b815260009182916001600160a01b0390911690634427673390610244903390600401612b9e565b604080518083038186803b15801561025b57600080fd5b505afa15801561026f573d6000803e3d6000fd5b505050506040513d601f19601f82011682018060405250810190610293919061287b565b915091508161044560f41b146102c45760405162461bcd60e51b81526004016102bb9061308b565b60405180910390fd5b600084815260046020819052604090912090810154600590910154828214806102ec57508083145b6103085760405162461bcd60e51b81526004016102bb90612f9a565b8466436f6e6669726d60c81b14806103285750846514995a9958dd60d21b145b6103445760405162461bcd60e51b81526004016102bb90612feb565b600086815260046020526040812060030186905566436f6e6669726d60c81b8614156109aa576000878152600460205260408120600781015460099091015461038d919061229f565b60008981526004602081905260409182902060068101546001820154915493516323b872dd60e01b81529495506001600160a01b03908116946323b872dd946103df9493831693921691879101612c7b565b602060405180830381600087803b1580156103f957600080fd5b505af115801561040d573d6000803e3d6000fd5b505050506040513d601f19601f82011682018060405250810190610431919061280a565b156109a45760008881526004602081905260409182902060028101548154600183015460099093015494516323b872dd60e01b81526001600160a01b03928316956323b872dd9561048c959385169490931692909101612c7b565b602060405180830381600087803b1580156104a657600080fd5b505af11580156104ba573d6000803e3d6000fd5b505050506040513d601f19601f820116820180604052508101906104de919061280a565b915081156107d757600088815260046020819052604091829020600c810154600d820154600e830154600b9093015494516381b5da1d60e01b81526001600160a01b03909216946381b5da1d9461053794929301612e9e565b600060405180830381600087803b15801561055157600080fd5b505af1158015610565573d6000803e3d6000fd5b505050600089815260046020526040908190206001810154815460098301546002840154600785015460069095015495516001600160a01b039485169750928416957fdb2a2159f49495b71579b052eff497e50c97deeb73b10e7e46de4f669dcb58f7956105dd9593949284169390929116906132df565b60405180910390a360005b6000858152600560205260409020548110156106cb57600085815260056020526040902080548a91908390811061061b57fe5b906000526020600020015414156106c3576000858152600560205260409020546000190181141561067057600085815260056020526040902080548290811061066057fe5b60009182526020822001556106c3565b600085815260056020526040902080546001830190811061068d57fe5b90600052602060002001546005600087815260200190815260200160002082815481106106b657fe5b6000918252602090912001555b6001016105e8565b5060005b6000848152600560205260409020548110156107b257600084815260056020526040902080548a91908390811061070257fe5b906000526020600020015414156107aa576000848152600560205260409020546000190181141561075757600084815260056020526040902080548290811061074757fe5b60009182526020822001556107aa565b600084815260056020526040902080546001830190811061077457fe5b906000526020600020015460056000868152602001908152602001600020828154811061079d57fe5b6000918252602090912001555b6001016106cf565b50600088815260046020526040902066436f6e6669726d60c81b6003909101556109a4565b600088815260046020819052604091829020600c810154600d8201546009830154600b9093015494516315e319fb60e31b81526001600160a01b039092169463af18cfd89461082c9492936001929101612edb565b600060405180830381600087803b15801561084657600080fd5b505af115801561085a573d6000803e3d6000fd5b5050506000898152600460208190526040808320600c810154600e820154600a830154600b9093015493516315e319fb60e31b81526001600160a01b03909216965063af18cfd8956108b29591949092909101612edb565b600060405180830381600087803b1580156108cc57600080fd5b505af11580156108e0573d6000803e3d6000fd5b5050506000898152600460208190526040918290206006810154815460019092015493516323b872dd60e01b81526001600160a01b0391821695506323b872dd946109349493831693921691879101612c7b565b602060405180830381600087803b15801561094e57600080fd5b505af1158015610962573d6000803e3d6000fd5b505050506040513d601f19601f82011682018060405250810190610986919061280a565b5060008881526004602052604090206311985a5b60e21b6003909101555b50610ae7565b856514995a9958dd60d21b1415610ae757600087815260046020819052604091829020600c810154600d8201546009830154600b9093015494516315e319fb60e31b81526001600160a01b039092169463af18cfd894610a109492936001929101612edb565b600060405180830381600087803b158015610a2a57600080fd5b505af1158015610a3e573d6000803e3d6000fd5b5050506000888152600460208190526040808320600c810154600e820154600a830154600b9093015493516315e319fb60e31b81526001600160a01b03909216965063af18cfd895610a969591949092909101612edb565b600060405180830381600087803b158015610ab057600080fd5b505af1158015610ac4573d6000803e3d6000fd5b50505060008881526004602052604090206514995a9958dd60d21b600390910155505b50505050505050565b33600090815260066020526040902054610b1c5760405162461bcd60e51b81526004016102bb90613126565b610b2461242f565b8251604051632bbc239560e11b81526001600160a01b03841691635778472a91610b519190600401612dc4565b6101406040518083038186803b158015610b6a57600080fd5b505afa158015610b7e573d6000803e3d6000fd5b505050506040513d601f19601f82011682018060405250810190610ba29190612971565b9050610bac61242f565b6040808501519051632bbc239560e11b81526001600160a01b03851691635778472a91610bdc9190600401612dc4565b6101406040518083038186803b158015610bf557600080fd5b505afa158015610c09573d6000803e3d6000fd5b505050506040513d601f19601f82011682018060405250810190610c2d9190612971565b90506000836001600160a01b0316632541897f6040518163ffffffff1660e01b815260040160206040518083038186803b158015610c6a57600080fd5b505afa158015610c7e573d6000803e3d6000fd5b505050506040513d601f19601f82011682018060405250810190610ca291906125ff565b90506000846001600160a01b0316636945c1fd6040518163ffffffff1660e01b815260040160206040518083038186803b158015610cdf57600080fd5b505afa158015610cf3573d6000803e3d6000fd5b505050506040513d601f19601f82011682018060405250810190610d1791906125ff565b90506000826001600160a01b031685602001516001600160a01b031614610d42578360e00151610d48565b8460e001515b90506000836001600160a01b031685602001516001600160a01b031614610d73578560e00151610d79565b8460e001515b90506000846001600160a01b031687602001516001600160a01b031614610da4578860600151610daa565b88602001515b90506000610db7846122cc565b90506000610dc4846122cc565b9050610dce612486565b604051806101e00160405280876001600160a01b03168152602001866001600160a01b03168152602001896001600160a01b031681526020016650656e64696e6760c81b8152602001838152602001848152602001886001600160a01b031681526020018d608001518152602001610e74896001600160a01b03168d602001516001600160a01b031614610e66578e60600151610e6c565b8e602001515b87600061234c565b8152602001858152602001610e8d8e608001518761229f565b81526020018d60a0015181526020018c6001600160a01b03168152602001896001600160a01b03168c602001516001600160a01b031614610ed2578d60400151610ed5565b8d515b8152602001896001600160a01b03168b602001516001600160a01b031614610efe578d51610f04565b8d604001515b815250905060008c600001518d60400151604051602001610f26929190612b5f565b60408051601f198184030181529181528151602092830120600081815260049093529120549091506001600160a01b03166112ca57816004600083815260200190815260200160002060008201518160000160006101000a8154816001600160a01b0302191690836001600160a01b0316021790555060208201518160010160006101000a8154816001600160a01b0302191690836001600160a01b0316021790555060408201518160020160006101000a8154816001600160a01b0302191690836001600160a01b03160217905550606082015181600301556080820151816004015560a0820151816005015560c08201518160060160006101000a8154816001600160a01b0302191690836001600160a01b0316021790555060e082015181600701556101008201518160080155610120820151816009015561014082015181600a015561016082015181600b015561018082015181600c0160006101000a8154816001600160a01b0302191690836001600160a01b031602179055506101a082015181600d01556101c082015181600e0155905050600860008d6001600160a01b03166338fff2d06040518163ffffffff1660e01b815260040160206040518083038186803b1580156110fb57600080fd5b505afa15801561110f573d6000803e3d6000fd5b505050506040513d601f19601f820116820180604052508101906111339190612842565b81526020019081526020016000206040518060a00160405280886001600160a01b031681526020018b6001600160a01b031681526020018a6001600160a01b031681526020018781526020018f60800151815250908060018154018082558091505060019003906000526020600020906005020160009091909190915060008201518160000160006101000a8154816001600160a01b0302191690836001600160a01b0316021790555060208201518160010160006101000a8154816001600160a01b0302191690836001600160a01b0316021790555060408201518160020160006101000a8154816001600160a01b0302191690836001600160a01b03160217905550606082015181600301556080820151816004015550506005600083608001518152602001908152602001600020819080600181540180825580915050600190039060005260206000200160009091909190915055600560008360a0015181526020019081526020016000208190806001815401808255809150506001900390600052602060002001600090919091909150555b50505050505050505050505050565b600954604051634427673360e01b81526060916000916001600160a01b039091169063442767339061130f903390600401612b9e565b604080518083038186803b15801561132657600080fd5b505afa15801561133a573d6000803e3d6000fd5b505050506040513d601f19601f8201168201806040525081019061135e919061287b565b5090508061044560f41b146113855760405162461bcd60e51b81526004016102bb90613022565b600083815260056020908152604091829020805483518184028101840190945280845290918301828280156113d957602002820191906000526020600020905b8154815260200190600101908083116113c5575b5050505050915050919050565b600c546000906001600160a01b031633146114135760405162461bcd60e51b81526004016102bb906131c9565b60408051600180825281830190925260609160208083019080368337019050509050828160008151811061144357fe5b6001600160a01b039283166020918202929092018101919091526002546040805163d2946c2b60e01b81529051606094929092169263d2946c2b92600480840193829003018186803b15801561149857600080fd5b505afa1580156114ac573d6000803e3d6000fd5b505050506040513d601f19601f820116820180604052508101906114d091906125ff565b6001600160a01b031663e42abf35836040518263ffffffff1660e01b81526004016114fb9190612ce3565b60006040518083038186803b15801561151357600080fd5b505afa158015611527573d6000803e3d6000fd5b505050506040513d6000823e601f3d908101601f1916820160405261154f91908101906127d7565b9050600260009054906101000a90046001600160a01b03166001600160a01b031663d2946c2b6040518163ffffffff1660e01b815260040160206040518083038186803b15801561159f57600080fd5b505afa1580156115b3573d6000803e3d6000fd5b505050506040513d601f19601f820116820180604052508101906115d791906125ff565b600c546040516336d77d5b60e11b81526001600160a01b0392831692636daefab69261160b92879287921690600401612cfd565b600060405180830381600087803b15801561162557600080fd5b505af1158015611639573d6000803e3d6000fd5b505050508060008151811061164a57fe5b602002602001015192505050919050565b611679336116676117e0565b6001600160a01b0316146101aa612374565b600b80546001600160a01b0319166001600160a01b0392909216919091179055565b6116a7336116676117e0565b600080546040516001600160a01b03909116907f8be0079c531659141344cd1fd0a4f28419497f9722a3daafe3b4186f6b6457e0908390a3600080546001600160a01b0319169055565b6116f9612486565b816117165760405162461bcd60e51b81526004016102bb90613022565b5060009081526004602081815260409283902083516101e08101855281546001600160a01b0390811682526001830154811693820193909352600282015483169481019490945260038101546060850152918201546080840152600582015460a08401526006820154811660c0840152600782015460e084015260088201546101008401526009820154610120840152600a820154610140840152600b820154610160840152600c82015416610180830152600d8101546101a0830152600e01546101c082015290565b6000546001600160a01b031690565b6117fb336116676117e0565b600180546001600160a01b03199081166001600160a01b03988916179091556003959095556009805486169487169490941790935560028054851692861692909217909155600a8054841692851692909217909155600c80549092169216919091179055565b600090815260046020526040902060078101546008909101549091565b6000846040516020016118919190612eb4565b6040516020818303038152906040528051906020012090506000816040516020016118bc9190612b6d565b60408051601f198184030181528282528051602091820120600b5460008552939091019182905292506001600160a01b0390911690600190611905908490899089908990612f05565b6020604051602081039080840390855afa158015611927573d6000803e3d6000fd5b505050602060405103516001600160a01b03161480611a4957506040516370a0823160e01b815288906001600160a01b038c16906370a082319061196f903390600401612b9e565b60206040518083038186803b15801561198757600080fd5b505afa15801561199b573d6000803e3d6000fd5b505050506040513d601f19601f820116820180604052508101906119bf9190612842565b10158015611a4957506040516370a0823160e01b815287906001600160a01b038b16906370a08231906119f6903390600401612b9e565b60206040518083038186803b158015611a0e57600080fd5b505afa158015611a22573d6000803e3d6000fd5b505050506040513d601f19601f82011682018060405250810190611a469190612842565b10155b611a655760405162461bcd60e51b81526004016102bb906130d8565b6000600160009054906101000a90046001600160a01b03166001600160a01b03166374dcc7a48c6001600160a01b03166306fdde036040518163ffffffff1660e01b815260040160006040518083038186803b158015611ac457600080fd5b505afa158015611ad8573d6000803e3d6000fd5b505050506040513d6000823e601f3d908101601f19168201604052611b0091908101906128e5565b8d6001600160a01b03166395d89b416040518163ffffffff1660e01b815260040160006040518083038186803b158015611b3957600080fd5b505afa158015611b4d573d6000803e3d6000fd5b505050506040513d6000823e601f3d908101601f19168201604052611b7591908101906128e5565b8e8e8e6003546040518763ffffffff1660e01b8152600401611b9c96959493929190612f46565b602060405180830381600087803b158015611bb657600080fd5b505af1158015611bca573d6000803e3d6000fd5b505050506040513d601f19601f82011682018060405250810190611bee91906125ff565b90506000816001600160a01b03166338fff2d06040518163ffffffff1660e01b815260040160206040518083038186803b158015611c2b57600080fd5b505afa158015611c3f573d6000803e3d6000fd5b505050506040513d601f19601f82011682018060405250810190611c639190612842565b90508b6007600083815260200190815260200160002060006101000a8154816001600160a01b0302191690836001600160a01b031602179055508060066000846001600160a01b03166001600160a01b03168152602001908152602001600020819055506060600260009054906101000a90046001600160a01b03166001600160a01b031663f94d4668836040518263ffffffff1660e01b8152600401611d0a9190612dc4565b60006040518083038186803b158015611d2257600080fd5b505afa158015611d36573d6000803e3d6000fd5b505050506040513d6000823e601f3d908101601f19168201604052611d5e919081019061270b565b505090506060611d6d82612386565b90506060825167ffffffffffffffff81118015611d8957600080fd5b50604051908082528060200260200182016040528015611db3578160200160208202803683370190505b50905060005b8351811015611e5c578f6001600160a01b0316848281518110611dd857fe5b60200260200101516001600160a01b03161415611e0d578d828281518110611dfc57fe5b602002602001018181525050611e54565b8e6001600160a01b0316848281518110611e2357fe5b60200260200101516001600160a01b03161415611e54578c828281518110611e4757fe5b6020026020010181815250505b600101611db9565b50611e65612502565b6040518060800160405280848152602001838152602001600084604051602001611e90929190612f23565b60408051808303601f190181529181529082526000602090920191909152600254905163172b958560e31b81529192506001600160a01b03169063b95cac2890611ee4908890339081908790600401612dcd565b600060405180830381600087803b158015611efe57600080fd5b505af1158015611f12573d6000803e3d6000fd5b5050505050505050505050505050505050505050565b6060600085604051602001611f3d9190612eb4565b604051602081830303815290604052805190602001209050600081604051602001611f689190612b6d565b60408051601f198184030181528282528051602091820120600b5460008552939091019182905292506001600160a01b0390911690600190611fb19084908a908a908a90612f05565b6020604051602081039080840390855afa158015611fd3573d6000803e3d6000fd5b505050602060405103516001600160a01b031614806120ff5750600a5460008981526007602052604090819020549051634a161b2760e01b815233926001600160a01b039081169263cd75c7d4928492634a161b279261203892911690600401612b9e565b60206040518083038186803b15801561205057600080fd5b505afa158015612064573d6000803e3d6000fd5b505050506040513d601f19601f8201168201806040525081019061208891906125ff565b6040518263ffffffff1660e01b81526004016120a49190612b9e565b60206040518083038186803b1580156120bc57600080fd5b505afa1580156120d0573d6000803e3d6000fd5b505050506040513d601f19601f820116820180604052508101906120f491906125ff565b6001600160a01b0316145b61211b5760405162461bcd60e51b81526004016102bb9061316c565b60008881526007602090815260408083205460089092529182902091517fe804af70c0bbbd9ac69c10dc694dbc850d65bccf5aab17d1b159b3dd6222ff0a92612171926001600160a01b03169130918d91612bb2565b60405180910390a1600088815260086020908152604080832080548251818502810185019093528083529193909284015b828210156122105760008481526020908190206040805160a0810182526005860290920180546001600160a01b0390811684526001808301548216858701526002830154909116928401929092526003810154606084015260040154608083015290835290920191016121a2565b505050509250505095945050505050565b61222d336116676117e0565b6122446001600160a01b03821615156101ab612374565b600080546040516001600160a01b03808516939216917f8be0079c531659141344cd1fd0a4f28419497f9722a3daafe3b4186f6b6457e091a3600080546001600160a01b0319166001600160a01b0392909216919091179055565b60008282026122c38415806122bc5750838583816122b957fe5b04145b6003612374565b90505b92915050565b60095460405162157d5560e61b81526000916001600160a01b03169063055f5540906122fc908590600401612b9e565b60206040518083038186803b15801561231457600080fd5b505afa158015612328573d6000803e3d6000fd5b505050506040513d601f19601f820116820180604052508101906122c69190612842565b6000816123625761235d8484612389565b61236c565b61236c84846123a9565b949350505050565b8161238257612382816123dc565b5050565b90565b60006123988215156004612374565b8183816123a157fe5b049392505050565b60006123b88215156004612374565b826123c5575060006122c6565b8160018403816123d157fe5b0460010190506122c6565b62461bcd60e51b6000908152602060045260076024526642414c23000030600a808404818106603090810160081b95839006959095019082900491820690940160101b939093010160c81b604452606490fd5b60408051610140810190915280600081526000602082018190526040820181905260609091019081526020016000815260200160008152600060208201819052604082018190526060820181905260809091015290565b604080516101e081018252600080825260208201819052918101829052606081018290526080810182905260a0810182905260c0810182905260e08101829052610100810182905261012081018290526101408101829052610160810182905261018081018290526101a081018290526101c081019190915290565b60405180608001604052806060815260200160608152602001606081526020016000151581525090565b80516122c681613389565b600082601f830112612547578081fd5b815161255a6125558261332d565b613306565b81815291506020808301908481018184028601820187101561257b57600080fd5b60005b8481101561259a5781518452928201929082019060010161257e565b505050505092915050565b8051600581106122c657600080fd5b8051600381106122c657600080fd5b8051600281106122c657600080fd5b803560ff811681146122c657600080fd5b6000602082840312156125f4578081fd5b81356122c381613389565b600060208284031215612610578081fd5b81516122c381613389565b600080600080600080600080610100898b031215612637578384fd5b883561264281613389565b9750602089013561265281613389565b96506040890135955060608901359450608089013593506126768a60a08b016125d2565b925060c0890135915060e089013590509295985092959890939650565b60008060008060008060c087890312156126ab578384fd5b86356126b681613389565b95506020870135945060408701356126cd81613389565b935060608701356126dd81613389565b925060808701356126ed81613389565b915060a08701356126fd81613389565b809150509295509295509295565b60008060006060848603121561271f578081fd5b835167ffffffffffffffff80821115612736578283fd5b818601915086601f830112612749578283fd5b81516127576125558261332d565b80828252602080830192508086018b828387028901011115612777578788fd5b8796505b848710156127a257805161278e81613389565b84526001969096019592810192810161277b565b5089015190975093505050808211156127b9578283fd5b506127c686828701612537565b925050604084015190509250925092565b6000602082840312156127e8578081fd5b815167ffffffffffffffff8111156127fe578182fd5b61236c84828501612537565b60006020828403121561281b578081fd5b815180151581146122c3578182fd5b60006020828403121561283b578081fd5b5035919050565b600060208284031215612853578081fd5b5051919050565b6000806040838503121561286c578182fd5b50508035926020909101359150565b6000806040838503121561288d578182fd5b505080516020909101519092909150565b600080600080600060a086880312156128b5578283fd5b85359450602086013593506128cd87604088016125d2565b94979396509394606081013594506080013592915050565b6000602082840312156128f6578081fd5b815167ffffffffffffffff8082111561290d578283fd5b818401915084601f830112612920578283fd5b81518181111561292e578384fd5b612941601f8201601f1916602001613306565b9150808252856020828501011115612957578384fd5b612968816020840160208601613359565b50949350505050565b6000610140808385031215612984578182fd5b61298d81613306565b905061299984846125c3565b81526129a8846020850161252c565b60208201526129ba846040850161252c565b60408201526129cc84606085016125b4565b60608201526129de84608085016125c3565b60808201526129f08460a085016125a5565b60a082015260c083015160c0820152612a0c8460e0850161252c565b60e08201526101008381015190820152610120928301519281019290925250919050565b60008082840360e0811215612a43578283fd5b60c0811215612a50578283fd5b50612a5b60c0613306565b833581526020840135602082015260408401356040820152606084013560608201526080840135608082015260a084013560a08201528092505060c0830135612aa381613389565b809150509250929050565b6001600160a01b03169052565b6000815180845260208085019450808401835b83811015612af35781516001600160a01b031687529582019590820190600101612ace565b509495945050505050565b6000815180845260208085019450808401835b83811015612af357815187529582019590820190600101612b11565b15159052565b60008151808452612b4b816020860160208601613359565b601f01601f19169290920160200192915050565b918252602082015260400190565b7f19457468657265756d205369676e6564204d6573736167653a0a3332000000008152601c810191909152603c0190565b6001600160a01b0391909116815260200190565b6000608080830160018060a01b0380891685526020818916818701526040915087828701526060848188015283885480865260a095508589019150898852838820885b82811015612c6857612c1084612c0b845461334d565b612aae565b612c1d600183015461334d565b612c2987860182612aae565b50612c37600283015461334d565b612c4388860182612aae565b5060038201548486015260048201548985015292870192600590910190600101612bf5565b50919d9c50505050505050505050505050565b6001600160a01b039384168152919092166020820152604081019190915260600190565b6020808252825182820181905260009190848201906040850190845b81811015612cd757835183529284019291840191600101612cbb565b50909695505050505050565b600060208252612cf66020830184612abb565b9392505050565b600060608252612d106060830186612abb565b8281036020840152612d228186612afe565b91505060018060a01b0383166040830152949350505050565b602080825282518282018190526000919060409081850190868401855b82811015612db757815180516001600160a01b0316855286810151612d7f88870182612aae565b5085810151612d9087870182612aae565b50606081810151908601526080908101519085015260a09093019290850190600101612d58565b5091979650505050505050565b90815260200190565b8481526001600160a01b038481166020808401919091529084166040830152608060608301819052835181840191909152805161010084018190526000929182019083906101208601905b80831015612e4057612e2a845161334d565b8252928401926001929092019190840190612e18565b50838701519350607f199250828682030160a0870152612e608185612afe565b935050506040850151818584030160c0860152612e7d8382612b33565b925050506060840151612e9360e0850182612b2d565b509695505050505050565b9283526020830191909152604082015260600190565b908152604060208201819052600690820152654c32746f4c3160d01b606082015260800190565b848152602081018490526080810160028410612ef357fe5b60408201939093526060015292915050565b93845260ff9290921660208401526040830152606082015260800190565b600060048410612f2f57fe5b8382526040602083015261236c6040830184612afe565b600060c08252612f5960c0830189612b33565b8281036020840152612f6b8189612b33565b6001600160a01b03978816604085015295909616606083015250608081019290925260a0909101529392505050565b60208082526031908201527f536574746c656d656e7420646f6e6520627920696e76616c6964206465706f736040820152701a5d185c9e481c185c9d1a58da5c185b9d607a1b606082015260800190565b60208082526019908201527f536574746c656d656e742073746174757320696e76616c696400000000000000604082015260600190565b60208082526043908201527f536574746c656d656e742072657175657374732063616e206f6e6c792062652060408201527f666574636865642062792061206465706f736974617279207061727469636970606082015262185b9d60ea1b608082015260a00190565b6020808252602d908201527f536574746c656d656e74206e6f7420646f6e65206279206465706f736974617260408201526c1e481c185c9d1a58da5c185b9d609a1b606082015260800190565b6020808252602e908201527f556e617574686f72697a65642061636365737320746f207365636f6e6461727960408201526d1034b9b9bab29036b0b730b3b2b960911b606082015260800190565b60208082526026908201527f536574746c656d656e74207265717565737465642066726f6d20696e76616c6960408201526519081c1bdbdb60d21b606082015260800190565b6020808252603a908201527f556e617574686f72697a6564206163636573732076696577696e67207375627360408201527f6372696265727320696e207365636f6e6461727920706f6f6c2e000000000000606082015260800190565b60208082526023908201527f556e617574686f72697a65642066656520636f6c6c656374696f6e2072657175604082015262195cdd60ea1b606082015260800190565b60006101e082019050613220828451612aae565b60208301516132326020840182612aae565b5060408301516132456040840182612aae565b50606083015160608301526080830151608083015260a083015160a083015260c083015161327660c0840182612aae565b5060e083810151908301526101008084015190830152610120808401519083015261014080840151908301526101608084015190830152610180808401516132c082850182612aae565b50506101a083810151908301526101c092830151929091019190915290565b9384526001600160a01b039283166020850152604084019190915216606082015260800190565b60405181810167ffffffffffffffff8111828210171561332557600080fd5b604052919050565b600067ffffffffffffffff821115613343578081fd5b5060209081020190565b6001600160a01b031690565b60005b8381101561337457818101518382015260200161335c565b83811115613383576000848401525b50505050565b6001600160a01b038116811461339e57600080fd5b5056fea2646970667358221220573ea70cd2f449cb243ecca204fdb02b650cf12f6d2ff5a386eb92e361b1abba64736f6c63430007010033",
    "immutableReferences": {},
    "source": "// External interface for settlement of trades\n// (c) Kallol Borah, 2022\n// \"SPDX-License-Identifier: BUSL1.1\"\n\npragma solidity 0.7.1;\npragma experimental ABIEncoderV2;\n\nimport \"./interfaces/ISettlor.sol\";\nimport \"./interfaces/IOrder.sol\";\nimport \"./interfaces/ITrade.sol\";\nimport './interfaces/IFactory.sol';\nimport './interfaces/VerifiedClient.sol';\nimport \"./interfaces/ISecondaryIssuePool.sol\";\nimport \"./interfaces/ISecondaryIssuePoolFactory.sol\";\n\nimport \"@balancer-labs/v2-solidity-utils/contracts/math/Math.sol\";\nimport \"@balancer-labs/v2-solidity-utils/contracts/openzeppelin/ERC20.sol\";\nimport \"@balancer-labs/v2-solidity-utils/contracts/openzeppelin/IERC20.sol\";\nimport \"@balancer-labs/v2-solidity-utils/contracts/openzeppelin/Ownable.sol\";\n \ncontract SecondaryIssueManager is ISettlor, Ownable {\n\n    using Math for uint256;\n\n    // balancer variables\n    address private factory;    \n\n    address private vault;\n\n    //fee\n    uint256 private fee;\n\n    // mapping settlement ref to trade execution data\n    mapping(bytes32 => ISettlor.settlement) settlements;\n\n    //mapping depository participants to trades they are part of\n    mapping(bytes32 => bytes32[]) private trades;\n\n    //mapping pool address to pool id\n    mapping(address => bytes32) private pools;\n\n    //mapping pool id to security token traded\n    mapping(bytes32 => address) private poolSecurity;\n\n    //mapping pool id to investors\n    mapping(bytes32 => subscriptions[]) internal investors; \n\n    // reference to the Verified Client contract\n    VerifiedClient private client;\n\n    // reference to the Verified factory contract that this asset manager checks security token issues with\n    IFactory private products;\n\n    address private bridge;\n\n    address private distribution;\n\n    event tradeSettled(address indexed transferor,\n                        address indexed transferee,\n                        uint256 unitsToTransfer,\n                        address security,\n                        uint256 price,\n                        address currency\n                    );\n\n    event subscribers(address security, address platform, bytes32 poolId, subscriptions[] investors);\n\n    /**\n        Initializes this asset management contract\n        @param  _factory            reference to the secondary issue pool factory contract\n        @param  _issueFeePercentage  percentage of trading fee to be charged by the asset manager\n        @param  _client             address of Verified client contract\n        @param  _vault              address of balancer vault\n     */\n    function initialize(address _factory, uint256 _issueFeePercentage, address _client, address _vault, address _distribution, address _products) onlyOwner public {\n        factory = _factory;\n        fee = _issueFeePercentage;\n        client = VerifiedClient(_client);\n        vault = _vault;\n        products = IFactory(_products);\n        distribution = _distribution;\n    }\n\n    function setSigner(address _signer) onlyOwner external{\n        bridge = _signer;\n    }\n\n    /**\n        Joins existing (secondary) tokenized assets into pool by primary issue token holders\n        @param  security            reference to asset issued\n        @param  currency            reference to cash (settlement) token\n        @param  minSecurityOrder    minimum order size of securities issued in pool\n        @param  cashAmount          amount of currency issued in pool\n     */\n    function issueSecondary(address security, address currency, uint256 minSecurityOrder, uint256 cashAmount, bytes32 _hashedMessage, uint8 _v, bytes32 _r, bytes32 _s) override external {\n        bytes32 payloadHash = keccak256(abi.encode(_hashedMessage, \"L2toL1\"));\n        bytes32 messageHash = keccak256(abi.encodePacked(\"\\x19Ethereum Signed Message:\\n32\", payloadHash));\n        //(bytes32 role, ) = client.getRole(msg.sender);\n        require(ecrecover(messageHash, _v, _r, _s)== bridge || (IERC20(security).balanceOf(msg.sender)>=minSecurityOrder \n                && IERC20(currency).balanceOf(msg.sender)>=cashAmount /*&& role=='AM'*/), \"Unauthorized access to secondary issue manager\");\n        address pool = ISecondaryIssuePoolFactory(factory).create(\n            ERC20(security).name(),\n            ERC20(security).symbol(),\n            security,\n            currency,\n            minSecurityOrder,\n            fee\n        );                \n        bytes32 poolId = ISecondaryIssuePool(pool).getPoolId();  \n        poolSecurity[poolId] = security; \n        pools[pool] = poolId;\n        // join the pool here                \n        (IERC20[] memory tokens, , ) = IVault(vault).getPoolTokens(poolId);\n        IAsset[] memory assets = _convertERC20sToAssets(tokens);\n        uint256[] memory maxAmountsIn = new uint256[](tokens.length);\n        for (uint256 t; t < tokens.length; t++) {\n            if(tokens[t]==IERC20(security))\n                maxAmountsIn[t] = minSecurityOrder;\n            else if(tokens[t]==IERC20(currency))\n                maxAmountsIn[t] = cashAmount;\n        }\n        IVault.JoinPoolRequest memory request = IVault.JoinPoolRequest({\n            assets: assets,\n            maxAmountsIn: maxAmountsIn,\n            userData: abi.encode(JoinKind.INIT, maxAmountsIn),\n            fromInternalBalance: false\n        });         \n        IVault(vault).joinPool(poolId, msg.sender, msg.sender, request);\n    }\n\n    /**\n        Used by Secondary pools to request settlement for trades\n        @param  tradeToReport     data structure holding order matching data\n     */\n    function requestSettlement(ITrade.trade memory tradeToReport, IOrder orderbook) override external {\n        require(pools[msg.sender]!=\"\", \"Settlement requested from invalid pool\");\n        IOrder.order memory orderByParty = IOrder(orderbook).getOrder(tradeToReport.partyRef);\n        IOrder.order memory orderByCounterparty = IOrder(orderbook).getOrder(tradeToReport.counterpartyRef);\n        address securityTraded = IOrder(orderbook).getSecurity(); \n        address currencySettled = IOrder(orderbook).getCurrency();\n        address party = orderByParty.tokenIn==securityTraded ? orderByParty.party : orderByCounterparty.party;\n        address counterparty = orderByCounterparty.tokenIn==securityTraded ? orderByCounterparty.party : orderByParty.party;\n        uint256 amount = orderByParty.tokenIn==securityTraded ? tradeToReport.partyInAmount : tradeToReport.counterpartyInAmount;\n        bytes32 _transfereeDPID = getTransferAgent(party);\n        bytes32 _transferorDPID = getTransferAgent(counterparty);\n        ISettlor.settlement memory tradeToSettle = ISettlor.settlement({\n            transferor: party,\n            transferee: counterparty,\n            security: securityTraded,\n            status: \"Pending\",\n            currency: currencySettled,\n            price: tradeToReport.price,\n            askprice: Math.div(orderByParty.tokenIn==currencySettled ? tradeToReport.partyInAmount : tradeToReport.counterpartyInAmount, amount, false),\n            unitsToTransfer: amount,\n            consideration: Math.mul(tradeToReport.price, amount),\n            executionDate: tradeToReport.dt,\n            partyRef: orderByParty.tokenIn==securityTraded ? tradeToReport.partyRef : tradeToReport.counterpartyRef,\n            counterpartyRef: orderByCounterparty.tokenIn==securityTraded ? tradeToReport.counterpartyRef : tradeToReport.partyRef,\n            transferorDPID: _transferorDPID,\n            transfereeDPID: _transfereeDPID,\n            orderPool: orderbook\n        });\n        bytes32 ref = keccak256(abi.encodePacked(tradeToReport.partyRef, tradeToReport.counterpartyRef));\n        if(settlements[ref].transferor==address(0x0)){\n            settlements[ref] = tradeToSettle;\n            investors[IOrder(orderbook).getPoolId()].push(ISettlor.subscriptions(counterparty, securityTraded, currencySettled, amount, tradeToReport.price));\n            trades[tradeToSettle.transferorDPID].push(ref);\n            trades[tradeToSettle.transfereeDPID].push(ref);\n        }\n    }\n    \n    /**\n        Fetches trade settlement requests for depository participant\n        @param  dpid         identifier of depository participant (eg, transfer agent) that is authorized to settle the asset \n     */\n    function getSettlementRequests(bytes32 dpid) override external view returns(bytes32[] memory){\n        (bytes32 role, ) = client.getRole(msg.sender);\n        require(role=='DP', \"Settlement requests can only be fetched by a depositary participant\");\n        return trades[dpid];\n    }\n\n    /**\n        Fetches a specific trade settlement request        \n        @param  ref         reference to the trade\n     */\n    function getSettlementRequest(bytes32 ref) override external view returns(settlement memory){\n        require(ref!=\"\", \"Settlement requests can only be fetched by a depositary participant\"); \n        return settlements[ref];\n    }\n    \n    /**\n        Sets settlement status for trades executed\n        @param  ref         reference to the trade executed\n        @param  status      settlement status\n     */\n    function setSettlementStatus(bytes32 ref, bytes32 status) override external{\n        (bytes32 role, bytes32 id) = client.getRole(msg.sender);\n        require(role=='DP', \"Settlement not done by depositary participant\");\n        bytes32 transferorDPID = settlements[ref].transferorDPID;\n        bytes32 transfereeDPID = settlements[ref].transfereeDPID;\n        require(id==transferorDPID || id==transfereeDPID, \"Settlement done by invalid depositary participant\");\n        require(status==\"Confirm\" || status==\"Reject\", \"Settlement status invalid\");\n        settlements[ref].status = status;\n        bool success;\n        if(status==\"Confirm\"){\n            uint256 pay = Math.mul(settlements[ref].price, settlements[ref].unitsToTransfer);\n            if(IERC20(settlements[ref].currency).transferFrom(settlements[ref].transferee, settlements[ref].transferor, pay)){                \n                success = IERC20(settlements[ref].security).transferFrom(settlements[ref].transferor, \n                                                                settlements[ref].transferee, \n                                                                settlements[ref].unitsToTransfer);\n                if(success){\n                    IOrder(settlements[ref].orderPool).orderFilled(settlements[ref].partyRef, settlements[ref].counterpartyRef, settlements[ref].executionDate);\n                    emit tradeSettled(settlements[ref].transferor, \n                                        settlements[ref].transferee, \n                                        settlements[ref].unitsToTransfer,\n                                        settlements[ref].security,\n                                        settlements[ref].price,\n                                        settlements[ref].currency\n                                    );\n                    for(uint i=0; i<trades[transferorDPID].length; i++){\n                        if(trades[transferorDPID][i]==ref){\n                            if(i==trades[transferorDPID].length-1)\n                                delete trades[transferorDPID][i];\n                            else\n                                trades[transferorDPID][i] = trades[transferorDPID][i+1];\n                        }\n                    }\n                    for(uint i=0; i<trades[transfereeDPID].length; i++){\n                        if(trades[transfereeDPID][i]==ref){\n                            if(i==trades[transfereeDPID].length-1)\n                                delete trades[transfereeDPID][i];\n                            else\n                                trades[transfereeDPID][i] = trades[transfereeDPID][i+1];\n                        }\n                    }\n                    settlements[ref].status = \"Confirm\";\n                }\n                else{\n                    IOrder(settlements[ref].orderPool).revertTrade(settlements[ref].partyRef, settlements[ref].unitsToTransfer, IOrder.Order.Sell, settlements[ref].executionDate);\n                    IOrder(settlements[ref].orderPool).revertTrade(settlements[ref].counterpartyRef, settlements[ref].consideration, IOrder.Order.Buy, settlements[ref].executionDate);\n                    IERC20(settlements[ref].currency).transferFrom(settlements[ref].transferor, settlements[ref].transferee, pay);\n                    settlements[ref].status = \"Fail\";\n                }\n            }\n        }\n        else if(status==\"Reject\"){\n            IOrder(settlements[ref].orderPool).revertTrade(settlements[ref].partyRef, settlements[ref].unitsToTransfer, IOrder.Order.Sell, settlements[ref].executionDate);\n            IOrder(settlements[ref].orderPool).revertTrade(settlements[ref].counterpartyRef, settlements[ref].consideration, IOrder.Order.Buy, settlements[ref].executionDate);\n            settlements[ref].status = \"Reject\";\n        }            \n    }\n\n    /**\n        Retrieve investors in secondary pools\n        @param  poolId  pool identity\n     */\n    function getSubscribers(bytes32 poolId, bytes32 _hashedMessage, uint8 _v, bytes32 _r, bytes32 _s) override external returns(subscriptions[] memory){\n        bytes32 payloadHash = keccak256(abi.encode(_hashedMessage, \"L2toL1\"));\n        bytes32 messageHash = keccak256(abi.encodePacked(\"\\x19Ethereum Signed Message:\\n32\", payloadHash));\n        require(ecrecover(messageHash, _v, _r, _s)== bridge || products.getHolder(products.getSecurity(poolSecurity[poolId]))==msg.sender, \"Unauthorized access viewing subscribers in secondary pool.\");\n        emit subscribers(poolSecurity[poolId], address(this), poolId, investors[poolId]);\n        return investors[poolId];\n    }\n\n    /**\n        Retrieve trade settlement\n        @param  ref settlement reference\n     */\n    function getTrade(bytes32 ref) external view override returns (uint256, uint256) {\n        return (settlements[ref].price, settlements[ref].askprice);\n    }\n\n    /**\n        Gets transfer agent for any of the parties in the trade\n        @param  party         reference to the party or counterparty in a trade\n     */\n    function getTransferAgent(address party) private view returns(bytes32){\n        return(client.getTransferAgent(party));\n    } \n\n    /**\n        Fetch trading fee collected in Balancer vault\n        @param  _token  address of token in which fee is collected\n     */\n    function getTradingFeeCollected(address _token) override external returns(uint256){\n        require(msg.sender==distribution, \"Unauthorized fee collection request\");\n        IERC20[] memory tokens = new IERC20[](1);\n        tokens[0] = IERC20(_token);\n        uint256[] memory amounts = IVault(vault).getProtocolFeesCollector().getCollectedFeeAmounts(tokens);\n        IVault(vault).getProtocolFeesCollector().withdrawCollectedFees(tokens, amounts, distribution);\n        return amounts[0];\n    }   \n\n    /**\n     * @dev This helper function is a fast and cheap way to convert between IERC20[] and IAsset[] types\n     */\n    function _convertERC20sToAssets(IERC20[] memory tokens) internal pure returns (IAsset[] memory assets) {\n        // solhint-disable-next-line no-inline-assembly\n        assembly {\n            assets := tokens\n        }\n    }\n\n}",
    "sourcePath": "D:\\Code\\verified-balancer\\contracts\\SecondaryIssueManager.sol",
    "compiler": {
        "name": "solc",
        "version": "0.7.1+commit.f4a555be.Emscripten.clang"
    },
    "schemaVersion": "3.4.3",
    "updatedAt": "2023-01-11T05:59:01.432Z",
    "networkType": "ethereum",
    "devdoc": {
        "kind": "dev",
        "methods": {
            "getSettlementRequest(bytes32)": {
                "params": {
                    "ref": "reference to the trade"
                }
            },
            "getSettlementRequests(bytes32)": {
                "params": {
                    "dpid": "identifier of depository participant (eg, transfer agent) that is authorized to settle the asset "
                }
            },
            "getSubscribers(bytes32,bytes32,uint8,bytes32,bytes32)": {
                "params": {
                    "poolId": "pool identity"
                }
            },
            "getTrade(bytes32)": {
                "params": {
                    "ref": "settlement reference"
                }
            },
            "getTradingFeeCollected(address)": {
                "params": {
                    "_token": "address of token in which fee is collected"
                }
            },
            "initialize(address,uint256,address,address,address,address)": {
                "params": {
                    "_client": "address of Verified client contract",
                    "_factory": "reference to the secondary issue pool factory contract",
                    "_issueFeePercentage": "percentage of trading fee to be charged by the asset manager",
                    "_vault": "address of balancer vault"
                }
            },
            "issueSecondary(address,address,uint256,uint256,bytes32,uint8,bytes32,bytes32)": {
                "params": {
                    "cashAmount": "amount of currency issued in pool",
                    "currency": "reference to cash (settlement) token",
                    "minSecurityOrder": "minimum order size of securities issued in pool",
                    "security": "reference to asset issued"
                }
            },
            "owner()": {
                "details": "Returns the address of the current owner."
            },
            "renounceOwnership()": {
                "details": "Leaves the contract without owner. It will not be possible to call `onlyOwner` functions anymore. Can only be called by the current owner. NOTE: Renouncing ownership will leave the contract without an owner, thereby removing any functionality that is only available to the owner."
            },
            "requestSettlement((bytes32,uint256,bytes32,uint256,uint256,uint256),address)": {
                "params": {
                    "tradeToReport": "data structure holding order matching data"
                }
            },
            "setSettlementStatus(bytes32,bytes32)": {
                "params": {
                    "ref": "reference to the trade executed",
                    "status": "settlement status"
                }
            },
            "transferOwnership(address)": {
                "details": "Transfers ownership of the contract to a new account (`newOwner`). Can only be called by the current owner."
            }
        },
        "version": 1
    },
    "userdoc": {
        "kind": "user",
        "methods": {
            "getSettlementRequest(bytes32)": {
                "notice": "Fetches a specific trade settlement request        "
            },
            "getSettlementRequests(bytes32)": {
                "notice": "Fetches trade settlement requests for depository participant"
            },
            "getSubscribers(bytes32,bytes32,uint8,bytes32,bytes32)": {
                "notice": "Retrieve investors in secondary pools"
            },
            "getTrade(bytes32)": {
                "notice": "Retrieve trade settlement"
            },
            "getTradingFeeCollected(address)": {
                "notice": "Fetch trading fee collected in Balancer vault"
            },
            "initialize(address,uint256,address,address,address,address)": {
                "notice": "Initializes this asset management contract"
            },
            "issueSecondary(address,address,uint256,uint256,bytes32,uint8,bytes32,bytes32)": {
                "notice": "Joins existing (secondary) tokenized assets into pool by primary issue token holders"
            },
            "requestSettlement((bytes32,uint256,bytes32,uint256,uint256,uint256),address)": {
                "notice": "Used by Secondary pools to request settlement for trades"
            },
            "setSettlementStatus(bytes32,bytes32)": {
                "notice": "Sets settlement status for trades executed"
            }
        },
        "version": 1
    }
}