{
  "contractName": "OrderPool",
  "abi": [
    {
      "constant": false,
      "inputs": [
        {
          "name": "_security",
          "type": "address"
        },
        {
          "name": "_cash",
          "type": "address"
        },
        {
          "name": "_pretrade",
          "type": "address"
        },
        {
          "name": "_trade",
          "type": "address"
        },
        {
          "name": "_posttrade",
          "type": "address"
        },
        {
          "name": "_settlementType",
          "type": "bytes32"
        },
        {
          "name": "_viaFactory",
          "type": "address"
        }
      ],
      "name": "initialize",
      "outputs": [],
      "payable": false,
      "stateMutability": "nonpayable",
      "type": "function"
    },
    {
      "constant": false,
      "inputs": [
        {
          "name": "_security",
          "type": "address"
        },
        {
          "name": "_cash",
          "type": "address"
        },
        {
          "name": "_price",
          "type": "uint256"
        },
        {
          "name": "_qty",
          "type": "uint256"
        },
        {
          "name": "_otype",
          "type": "bytes32"
        },
        {
          "name": "_order",
          "type": "bytes32"
        }
      ],
      "name": "newOrder",
      "outputs": [],
      "payable": false,
      "stateMutability": "nonpayable",
      "type": "function"
    },
    {
      "constant": true,
      "inputs": [],
      "name": "getOrderRef",
      "outputs": [
        {
          "name": "",
          "type": "bytes32[]"
        }
      ],
      "payable": false,
      "stateMutability": "view",
      "type": "function"
    },
    {
      "constant": false,
      "inputs": [
        {
          "name": "ref",
          "type": "bytes32"
        },
        {
          "name": "_price",
          "type": "uint256"
        },
        {
          "name": "_qty",
          "type": "uint256"
        }
      ],
      "name": "editOrder",
      "outputs": [],
      "payable": false,
      "stateMutability": "nonpayable",
      "type": "function"
    },
    {
      "constant": false,
      "inputs": [
        {
          "name": "ref",
          "type": "bytes32"
        }
      ],
      "name": "cancelOrder",
      "outputs": [],
      "payable": false,
      "stateMutability": "nonpayable",
      "type": "function"
    },
    {
      "constant": false,
      "inputs": [
        {
          "name": "_orderRef",
          "type": "bytes32"
        },
        {
          "name": "_qty",
          "type": "uint256"
        },
        {
          "name": "_order",
          "type": "bytes32"
        }
      ],
      "name": "revertTrade",
      "outputs": [],
      "payable": false,
      "stateMutability": "nonpayable",
      "type": "function"
    },
    {
      "constant": false,
      "inputs": [
        {
          "name": "partyRef",
          "type": "bytes32"
        },
        {
          "name": "counterpartyRef",
          "type": "bytes32"
        }
      ],
      "name": "orderFilled",
      "outputs": [],
      "payable": false,
      "stateMutability": "nonpayable",
      "type": "function"
    }
  ],
  "bytecode": "0x608060405260348054600160ff199091161790556200002b600062000095602090811b620014d417901c565b604360006101000a8154816001600160801b03021916908360801c02179055506200006260006200009560201b620014d41760201c565b604580546001600160801b03191660809290921c91909117905560006046553480156200008e57600080fd5b50620001c3565b600081620000a65750600062000104565b816000620000bb8262000109602090811b901c565b90506070811015620000d6578060700382901b9150620000ea565b6070811115620000ea576070810382901c91505b613fff0160701b6001600160701b03919091161760801b90505b919050565b60008082116200011857600080fd5b600070010000000000000000000000000000000083106200013b57608092831c92015b6801000000000000000083106200015457604092831c92015b64010000000083106200016957602092831c92015b6201000083106200017c57601092831c92015b61010083106200018e57600892831c92015b601083106200019f57600492831c92015b60048310620001b057600292831c92015b60028310620001bd576001015b92915050565b612d2b80620001d36000396000f3fe608060405234801561001057600080fd5b506004361061007d5760003560e01c806346b8b7301161005b57806346b8b730146100bd5780635426cd25146100db5780637489ec23146100ee5780638451ab0d146101015761007d565b80630c8605be1461008257806313ce4546146100975780631f040480146100aa575b600080fd5b61009561009036600461282c565b610114565b005b6100956100a53660046127f2565b610758565b6100956100b836600461282c565b610942565b6100c56109cb565b6040516100d29190612b72565b60405180910390f35b6100956100e936600461268b565b610a2c565b6100956100fc3660046127ae565b610b34565b61009561010f366004612727565b610d71565b604754604051600160e01b63e0a87de10281526001600160a01b039091169063e0a87de190610147903390600401612b64565b60206040518083038186803b15801561015f57600080fd5b505afa158015610173573d6000803e3d6000fd5b505050506040513d601f19601f8201168201806040525061019791908101906127d4565b6101a057600080fd5b600083815260366020526040902060030154600160e11b6327b832b702146101c757600080fd5b600083815260366020526040902060020154600160e81b62427579021415610298576101f3828261148e565b604b546001600160a01b0390811660009081526033602052604090819020549051600160e01b6370a082310281529116906370a0823190610238903390600401612b64565b60206040518083038186803b15801561025057600080fd5b505afa158015610264573d6000803e3d6000fd5b505050506040513d601f19601f8201168201806040525061028891908101906127d4565b101561029357600080fd5b610349565b600083815260366020526040902060020154600160e21b6314d95b1b02141561034957604b54604051600160e01b6370a0823102815282916001600160a01b0316906370a08231906102ee903390600401612b64565b60206040518083038186803b15801561030657600080fd5b505afa15801561031a573d6000803e3d6000fd5b505050506040513d601f19601f8201168201806040525061033e91908101906127d4565b101561034957600080fd5b6000838152603660205260409020600601546001600160a01b031633141561075357610374826114d4565b60008481526036602052604090206007810180546001600160801b03191660809390931c929092179091556004810182905542600582015560010154600160d21b6513585c9ad95d0214156103e6576000838152603660209081526040808320548352603a9091529020839055610473565b600083815260366020526040902060010154600160da1b64131a5b5a5d02141561042d576000838152603660209081526040808320548352603c9091529020839055610473565b600083815260366020526040902060010154600160c01b6753746f704c6f7373021415610473576000838152603660209081526040808320548352603f90915290208390555b61047b6125bf565b604080516101408101825260008681526036602081815284832060068101546001600160a01b039081168652604b54168286015292899052526007015490918201906104c99060801b61153a565b815260008681526036602090815260408083206001810154838601526002015481850152600160e11b6327b832b7026060850152604c54604b546001600160a01b039081168552603390935292819020549051600160e11b632fea584502815260809094019392821692635fd4b08a92610547921690600401612b56565b60206040518083038186803b15801561055f57600080fd5b505afa158015610573573d6000803e3d6000fd5b505050506040513d601f19601f8201168201806040525061059791908101906127d4565b8152602001604b60009054906101000a90046001600160a01b03166001600160a01b03166306fdde036040518163ffffffff1660e01b815260040160006040518083038186803b1580156105ea57600080fd5b505afa1580156105fe573d6000803e3d6000fd5b505050506040513d6000823e601f3d908101601f191682016040526106269190810190612879565b604051600160e31b6319f6a32502815273__stringutils___________________________9163cfb519289161065f9190600401612b9e565b60206040518083038186803b15801561067757600080fd5b505af415801561068b573d6000803e3d6000fd5b505050506040513d601f19601f820116820180604052506106af91908101906127d4565b8152600086815260366020818152604080842060048082015484880152948b905292909152600590910154928101929092526048549151600160e01b6365678bfd0281529293506001600160a01b03909116916365678bfd91610716918591899101612bcf565b600060405180830381600087803b15801561073057600080fd5b505af1158015610744573d6000803e3d6000fd5b50505050610751846115d3565b505b505050565b6048546001600160a01b031633148061077b57506049546001600160a01b031633145b61078457600080fd5b6000828152603660209081526040808320600601546001600160a01b0316835260388252808320858452603990925290912054815481106107c157fe5b600091825260208083209091018290558382526039815260408083208390556036825280832083815560018101849055600281018490556003810184905560048101849055600581018490556006810180546001600160a01b031916905560070180546001600160801b0319169055603790915290205460358054909190811061084757fe5b6000918252602080832090910182905583825260378152604080832083905583835260368252808320600601546001600160a01b03168352603882528083208484526039909252909120548154811061089c57fe5b600091825260208083209091018290558282526039815260408083208390556036825280832083815560018101849055600281018490556003810184905560048101849055600581018490556006810180546001600160a01b031916905560070180546001600160801b0319169055603790915290205460358054909190811061092257fe5b600091825260208083209091018290559181526037909152604081205550565b80600160e81b62427579021480610962575080600160e21b6314d95b1b02145b61096b57600080fd5b6048546001600160a01b0316331461098257600080fd5b506000828152603660209081526040808320600481018054909501909455600160e11b6327b832b702600385015560355493849055928252603a90522055603b80546001019055565b33600090815260386020908152604091829020805483518184028101840190945280845260609392830182828015610a2257602002820191906000526020600020905b815481526020019060010190808311610a0e575b5050505050905090565b600054610100900460ff1680610a455750610a45611d40565b80610a53575060005460ff16155b610a7b57604051600160e51b62461bcd028152600401610a7290612bbf565b60405180910390fd5b600054610100900460ff16158015610aa6576000805460ff1961ff0019909116610100171660011790555b604b80546001600160a01b03199081166001600160a01b038b81169182179093556000908152603360205260409020805482168a8416179055604780548216898416179055604880548216888416179055604980548216878416179055604a859055604c80549091169184169190911790558015610b2a576000805461ff00191690555b5050505050505050565b604754604051600160e01b63e0a87de10281526001600160a01b039091169063e0a87de190610b67903390600401612b64565b60206040518083038186803b158015610b7f57600080fd5b505afa158015610b93573d6000803e3d6000fd5b505050506040513d601f19601f82011682018060405250610bb791908101906127d4565b610bc057600080fd5b6000818152603660205260409020600601546001600160a01b03163314610be657600080fd5b600081815260366020908152604080832080548452603a835281842084905580548452603d835281842084905580548452603c83528184208490558054845281835281842084905580548452603f835281842084905584845283815560018101849055600281018490556003810184905560048101849055600581018490556006810180546001600160a01b031916905560070180546001600160801b03191690556037909152902054603580549091908110610c9f57fe5b600091825260208083209091018290558282526037815260408083208390553383526038825280832084845260399092529091205481548110610cde57fe5b60009182526020808320909101829055828252603981526040808320839055604854603690925291829020600301549151600160e01b63a47d9d330281526001600160a01b039091169163a47d9d3391610d3c918591600401612b83565b600060405180830381600087803b158015610d5657600080fd5b505af1158015610d6a573d6000803e3d6000fd5b5050505050565b604754604051600160e01b63e0a87de10281526001600160a01b039091169063e0a87de190610da4903390600401612b64565b60206040518083038186803b158015610dbc57600080fd5b505afa158015610dd0573d6000803e3d6000fd5b505050506040513d601f19601f82011682018060405250610df491908101906127d4565b610dfd57600080fd5b81600160d21b6513585c9ad95d021480610e21575081600160da1b64131a5b5a5d02145b80610e39575081600160c01b6753746f704c6f737302145b610e4257600080fd5b80600160e81b62427579021480610e62575080600160e21b6314d95b1b02145b610e6b57600080fd5b6001600160a01b03868116600090815260336020526040902054811690861614610e9457600080fd5b80600160e81b62427579021415610f3e57610eaf848461148e565b604051600160e01b6370a082310281526001600160a01b038716906370a0823190610ede903390600401612b64565b60206040518083038186803b158015610ef657600080fd5b505afa158015610f0a573d6000803e3d6000fd5b505050506040513d601f19601f82011682018060405250610f2e91908101906127d4565b1015610f3957600080fd5b610fdc565b80600160e21b6314d95b1b021415610fdc57604051600160e01b6370a0823102815283906001600160a01b038816906370a0823190610f81903390600401612b64565b60206040518083038186803b158015610f9957600080fd5b505afa158015610fad573d6000803e3d6000fd5b505050506040513d601f19601f82011682018060405250610fd191908101906127d4565b1015610fdc57600080fd5b60003342604051602001610ff1929190612b30565b60408051601f19818403018152918152815160209283012060008181526036909352912060060180546001600160a01b031916331790559050611033856114d4565b60008281526036602090815260408083206007810180546001600160801b03191660809690961c9590951790945560358054855560048501899055600285018790556001808601899055426005870155600160e11b6327b832b7026003909601959095558054603784528285208190558086019091557fcfa4bec1d3298408bb5afcfcd9c430549c5b31f8aa5c5848151c0a55f473c34d0185905533835260388083528184208054878652603985529285208390559083529381018455928252902001819055600160d21b6513585c9ad95d02831415611139576000818152603660209081526040808320548352603a9091529020819055603b805460010190556111b6565b82600160da1b64131a5b5a5d021415611178576000818152603660209081526040808320548352603c9091529020819055603e805460010190556111b6565b82600160c01b6753746f704c6f73730214156111b6576000818152603660209081526040808320548352603f90915290208190556041805460010190555b6111be6125bf565b604080516101408101825260008481526036602081815284832060068101546001600160a01b039081168652604b541682860152928790525260070154909182019061120c9060801b61153a565b81526000848152603660209081526040808320600181015483860152600281015482860152600301546060850152604c54604b546001600160a01b039081168552603390935292819020549051600160e11b632fea584502815260809094019392821692635fd4b08a92611284921690600401612b56565b60206040518083038186803b15801561129c57600080fd5b505afa1580156112b0573d6000803e3d6000fd5b505050506040513d601f19601f820116820180604052506112d491908101906127d4565b8152602001604b60009054906101000a90046001600160a01b03166001600160a01b03166306fdde036040518163ffffffff1660e01b815260040160006040518083038186803b15801561132757600080fd5b505afa15801561133b573d6000803e3d6000fd5b505050506040513d6000823e601f3d908101601f191682016040526113639190810190612879565b604051600160e31b6319f6a32502815273__stringutils___________________________9163cfb519289161139c9190600401612b9e565b60206040518083038186803b1580156113b457600080fd5b505af41580156113c8573d6000803e3d6000fd5b505050506040513d601f19601f820116820180604052506113ec91908101906127d4565b81526000848152603660208181526040808420600480820154848801529489905292909152600590910154928101929092526048549151600160e01b63fcfd88e90281529293506001600160a01b039091169163fcfd88e991611453918591879101612bcf565b600060405180830381600087803b15801561146d57600080fd5b505af1158015611481573d6000803e3d6000fd5b50505050610b2a826115d3565b60008261149d575060006114ce565b828202828482816114aa57fe5b04146114cb57604051600160e51b62461bcd028152600401610a7290612baf565b90505b92915050565b6000816114e357506000611535565b8160006114ef82611d46565b90506070811015611508578060700382901b915061151b565b607081111561151b576070810382901c91505b613fff0160701b6001600160701b03919091161760801b90505b919050565b6000617fff6001600160801b03608084901c1660701c16613fff811015611565576000915050611535565b6001607f1b8360801c6001600160801b03161061158157600080fd5b6140fe81111561159057600080fd5b600160701b6001600160701b03608085901c161761406f8210156115ba5761406f8290031c6115cc565b61406f8211156115cc5761406e1982011b5b9392505050565b60005b603b54811015611951576000818152603a6020526040902054821480159061163857506000828152603660208181526040808420600690810154868652603a845282862054865293909252909220909101546001600160a01b03908116911614155b15611949576000818152603a602090815260408083205483526036909152902060020154600160e81b624275790214801561168d5750600082815260366020526040902060020154600160e21b6314d95b1b02145b156117c5576000818152603a60209081526040808320548352603690915280822060079081015485845291909220909101546116d091608090811b91901b611de9565b60000b158061171f57506000818152603a602090815260408083205483526036909152808220600790810154858452919092209091015461171891608090811b91901b611de9565b60000b6001145b156117c0576000818152603a60209081526040808320548352603690915290206007015460435461175791608090811b91901b611de9565b60000b600114156117c0576000818152603a602090815260408083205483526036909152902060070154604380546001600160801b031916608092831b90921c91909117905560358054829081106117ab57fe5b60009182526020909120015460425560468190555b611949565b6000818152603a602090815260408083205483526036909152902060020154600160e21b6314d95b1b021480156118155750600082815260366020526040902060020154600160e81b6242757902145b15611949576000818152603a602090815260408083205483526036909152808220600790810154858452919092209091015461185891608090811b91901b611de9565b60000b15806118a857506000818152603a60209081526040808320548352603690915280822060079081015485845291909220909101546118a091608090811b91901b611de9565b60000b600019145b15611949576000818152603a6020908152604080832054835260369091529020600701546045546118e091608090811b91901b611de9565b60000b60011415611949576000818152603a602090815260408083205483526036909152902060070154604580546001600160801b031916608092831b90921c919091179055603580548290811061193457fe5b60009182526020909120015460445560468190555b6001016115d6565b50600081815260366020526040902060020154600160e21b6314d95b1b021415611b4c5760425415611b47576000818152603660205260408082206004908101546042548452919092209091015410611a5d5760008181526036602052604080822060048082018054604280548752858720909301805491909103905580549085905581548552838520600160d21b65119a5b1b19590260039182018190559084015560068084015492548087529486200154948690526007830154600290930154604a549195611a3f9588956001600160a01b03958616959194919092169260809290921b918891611f32565b611a57604654600160d21b651b585c9ad95d0261211c565b50611b0b565b604280546000908152603660205260408082206004908101548584528284208083018054929092039091558454845282842090910180549084905584548452828420600160a21b6b14185c9d1b1e519a5b1b19590260039182018190559083015560068083015495548086529385200154938690526007820154600290920154604a549195611b099588956001600160a01b03928316959094919092169260809290921b918891611f32565b505b600081815260366020526040902060070154611b299060801b612275565b600081815260366020526040902060070154611b479060801b61241b565b611d3d565b600081815260366020526040902060020154600160e81b62427579021415611d3d5760445415611d3d576000818152603660205260408082206004908101546044548452919092209091015410611c565760008181526036602052604080822060048082018054604480548752858720909301805491909103905580549085905581548552838520600160d21b65119a5b1b1959026003918201819055908401559054808552928420600690810154948690528201546007830154600290930154604a549295611c3895946001600160a01b039182169489949092169260809190911b91889190611f32565b611c50604654600160d21b651b585c9ad95d0261211c565b50611d01565b604480546000908152603660205260408082206004908101548584528284208083018054929092039091558454845282842090910180549084905584548452828420600160a21b6b14185c9d1b1e519a5b1b1959026003918201819055908301559354808452918320600690810154938690528101546007820154600290920154604a54611cff956001600160a01b039081169489949091169260809190911b91889190611f32565b505b600081815260366020526040902060070154611d1f9060801b612275565b600081815260366020526040902060070154611d3d9060801b61241b565b50565b303b1590565b6000808211611d5457600080fd5b6000600160801b8310611d6957608092831c92015b680100000000000000008310611d8157604092831c92015b6401000000008310611d9557602092831c92015b620100008310611da757601092831c92015b6101008310611db857600892831c92015b60108310611dc857600492831c92015b60048310611dd857600292831c92015b600283106114ce5760010192915050565b600060016001607f1b03608084901c16600160701b617fff02811115611e0e57600080fd5b60016001607f1b03608084901c16600160701b617fff02811115611e3157600080fd5b6001600160801b0319858116908516141580611e5d5750600160701b617fff02826001600160801b0316105b611e6657600080fd5b6001600160801b03198581169085161415611e86576000925050506114ce565b60006001607f1b8660801c6001600160801b03161015905060006001607f1b8660801c6001600160801b0316101590508115611ef1578015611ee257826001600160801b0316846001600160801b031611611ee2576001611ee6565b6000195b9450505050506114ce565b8015611f045760019450505050506114ce565b826001600160801b0316846001600160801b031611611f2557600019611ee6565b60019450505050506114ce565b6000600160e81b6242757902831415611f6a57600089815260366020526040902060070154611f639060801b61153a565b9050611f9d565b82600160e21b6314d95b1b021415611f9d57600087815260366020526040902060070154611f9a9060801b61153a565b90505b611fa56125bf565b60408051610140810182526001600160a01b03808c1682528981166020830152604b54169181019190915260608101611fdd8861153a565b81526020808201859052604c54604b546001600160a01b0390811660009081526033909352604092839020548351600160e11b632fea5845028152939094019391811692635fd4b08a92612035921690600401612b56565b60206040518083038186803b15801561204d57600080fd5b505afa158015612061573d6000803e3d6000fd5b505050506040513d601f19601f8201168201806040525061208591908101906127d4565b815260208101869052604080820186905260608201889052426080909201919091526048549051600160e01b63ca385a930281529192506001600160a01b03169063ca385a93906120de9084908e908d90600401612bec565b600060405180830381600087803b1580156120f857600080fd5b505af115801561210c573d6000803e3d6000fd5b5050505050505050505050505050565b80600160d21b651b585c9ad95d02141561219057815b603b54811015612180576001603b540381141561215d576000838152603a6020526040812055612178565b600183016000908152603a6020526040808220548583529120555b600101612132565b50603b8054600019019055612271565b80600160da1b641b1a5b5a5d02141561220357815b603e548110156121f3576001603e54038114156121d0576000838152603c60205260408120556121eb565b600183016000908152603c6020526040808220548583529120555b6001016121a5565b50603e8054600019019055612271565b80600160e41b63073746f702141561227157815b60415481101561226557600160415403811415612242576000838152603f602052604081205561225d565b600183016000908152603f6020526040808220548583529120555b600101612217565b50604180546000190190555b5050565b6000805b603e54811015610753576000818152603c602090815260408083205483526036909152902060020154600160e81b62427579021480156122e957506000818152603c6020908152604080832054835260369091529020600701546001600160801b031980851660809290921b1610155b1561234d576000818152603c60208181526040808420805480865260368452828620548652603a845291852091909155603b80546001019055928490525254915061233f81600160da1b641b1a5b5a5d0261211c565b612348826115d3565b612413565b6000818152603c602090815260408083205483526036909152902060020154600160e21b6314d95b1b021480156123b457506000818152603c6020908152604080832054835260369091529020600701546001600160801b031980851660809290921b1611155b15612413576000818152603c60208181526040808420805480865260368452828620548652603a845291852091909155603b80546001019055928490525254915061240a81600160da1b641b1a5b5a5d0261211c565b612413826115d3565b600101612279565b6000805b604154811015610753576000818152603f602090815260408083205483526036909152902060020154600160e81b624275790214801561248f57506000818152603f6020908152604080832054835260369091529020600701546001600160801b031980851660809290921b1611155b156124f2576000818152603f60208181526040808420805480865260368452828620548652603a845291852091909155603b8054600101905592849052525491506124e481600160e41b63073746f70261211c565b6124ed826115d3565b6125b7565b6000818152603f602090815260408083205483526036909152902060020154600160e21b6314d95b1b0214801561255957506000818152603f6020908152604080832054835260369091529020600701546001600160801b031980851660809290921b1610155b156125b7576000818152603f60208181526040808420805480865260368452828620548652603a845291852091909155603b8054600101905592849052525491506125ae81600160e41b63073746f70261211c565b6125b7826115d3565b60010161241f565b6040805161014081018252600080825260208201819052918101829052606081018290526080810182905260a0810182905260c0810182905260e08101829052610100810182905261012081019190915290565b60006115cc8235612c79565b60006115cc8235612c84565b60006115cc8251612c84565b600082601f83011261264857600080fd5b815161265b61265682612c3e565b612c17565b9150808252602083016020830185838301111561267757600080fd5b612682838284612ca4565b50505092915050565b600080600080600080600060e0888a0312156126a657600080fd5b60006126b28a8a612613565b97505060206126c38a828b01612613565b96505060406126d48a828b01612613565b95505060606126e58a828b01612613565b94505060806126f68a828b01612613565b93505060a06127078a828b0161261f565b92505060c06127188a828b01612613565b91505092959891949750929550565b60008060008060008060c0878903121561274057600080fd5b600061274c8989612613565b965050602061275d89828a01612613565b955050604061276e89828a0161261f565b945050606061277f89828a0161261f565b935050608061279089828a0161261f565b92505060a06127a189828a0161261f565b9150509295509295509295565b6000602082840312156127c057600080fd5b60006127cc848461261f565b949350505050565b6000602082840312156127e657600080fd5b60006127cc848461262b565b6000806040838503121561280557600080fd5b6000612811858561261f565b92505060206128228582860161261f565b9150509250929050565b60008060006060848603121561284157600080fd5b600061284d868661261f565b935050602061285e8682870161261f565b925050604061286f8682870161261f565b9150509250925092565b60006020828403121561288b57600080fd5b815167ffffffffffffffff8111156128a257600080fd5b6127cc84828501612637565b60006128ba8383612940565b505060200190565b6128cb81612c93565b82525050565b6128cb6128dd82612c79565b612cd0565b6128cb81612c79565b60006128f682612c6c565b6129008185612c70565b935061290b83612c66565b60005b82811015612936576129218683516128ae565b955061292c82612c66565b915060010161290e565b5093949350505050565b6128cb81612c84565b600061295482612c6c565b61295e8185612c70565b935061296e818560208601612ca4565b61297781612ce1565b9093019392505050565b600061298e602183612c70565b7f536166654d6174683a206d756c7469706c69636174696f6e206f766572666c6f8152600160f81b607702602082015260400192915050565b60006129d4602e83612c70565b7f436f6e747261637420696e7374616e63652068617320616c726561647920626581527f656e20696e697469616c697a6564000000000000000000000000000000000000602082015260400192915050565b8051610140830190612a3884826128e2565b506020820151612a4b60208501826128e2565b506040820151612a5e6040850182612940565b506060820151612a716060850182612940565b506080820151612a846080850182612940565b5060a0820151612a9760a0850182612940565b5060c0820151612aaa60c0850182612940565b5060e0820151612abd60e0850182612940565b50610100820151612ad2610100850182612940565b50610120820151610751610120850182612940565b8051610140830190612af984826128e2565b506020820151612b0c60208501826128e2565b506040820151612a5e60408501826128e2565b6128cb612b2b82612c84565b612c84565b6000612b3c82856128d1565b601482019150612b4c8284612b1f565b5060200192915050565b602081016114ce82846128e2565b602081016114ce82846128c2565b602080825281016115cc81846128eb565b60408101612b918285612940565b6115cc6020830184612940565b602080825281016115cc8184612949565b602080825281016114ce81612981565b602080825281016114ce816129c7565b6101608101612bde8285612a26565b6115cc610140830184612940565b6101808101612bfb8286612ae7565b612c09610140830185612940565b6127cc610160830184612940565b60405181810167ffffffffffffffff81118282101715612c3657600080fd5b604052919050565b600067ffffffffffffffff821115612c5557600080fd5b506020601f91909101601f19160190565b60200190565b5190565b90815260200190565b60006114ce82612c87565b90565b6001600160a01b031690565b60006114ce8260006114ce82612c79565b60005b83811015612cbf578181015183820152602001612ca7565b838111156107515750506000910152565b60006114ce8260006114ce82612ceb565b601f01601f191690565b60601b9056fea265627a7a723058208169a3a283c030774f412c5015379ae95072692c75b067e509d4e2de44a1f3386c6578706572696d656e74616cf50037",
  "source": "// Maintains order pools\r\n// (c) Kallol Borah, 2021\r\n \r\npragma solidity 0.5.7;\r\npragma experimental ABIEncoderV2;\r\n\r\nimport \"@openzeppelin/upgrades/contracts/Initializable.sol\";\r\nimport \"@openzeppelin/contracts-ethereum-package/contracts/token/ERC20/IERC20.sol\";\r\nimport \"abdk-libraries-solidity/ABDKMathQuad.sol\";\r\nimport \"../interfaces/IOrderPool.sol\";\r\nimport \"../interfaces/ITrade.sol\";\r\nimport \"../interfaces/IPreTrade.sol\";\r\nimport \"../interfaces/ViaCash.sol\";\r\nimport \"../interfaces/ViaFactory.sol\";\r\nimport \"../registry/Security.sol\";\r\nimport \"../utilities/StringUtils.sol\";\r\nimport \"@openzeppelin/contracts-ethereum-package/contracts/math/SafeMath.sol\";\r\n\r\ncontract OrderPool is Initializable, IOrderPool {\r\n\r\n    using ABDKMathQuad for uint256;\r\n    using ABDKMathQuad for int256;\r\n    using ABDKMathQuad for bytes16;\r\n\r\n    using stringutils for *;\r\n    using SafeMath for uint256;\r\n\r\n    //mapping security token to cash token pairs\r\n    mapping(address => address) private pair;\r\n\r\n    //security trading status\r\n    bool status = true;\r\n\r\n    //order references\r\n    bytes32[] private orderRefs;\r\n\r\n    //mapping order reference to order\r\n    mapping(bytes32 => IOrderPool.order) private orders;\r\n\r\n    //mapping order reference to position\r\n    mapping(bytes32 => uint256) private orderIndex;\r\n\r\n    //mapping users to order references\r\n    mapping(address => bytes32[]) private userOrderRefs;\r\n\r\n    //mapping user's order reference to positions\r\n    mapping(bytes32 => uint256) private userOrderIndex;\r\n\r\n    //mapping market order no to order reference\r\n    mapping(uint256 => bytes32) private marketOrders;\r\n\r\n    uint256 marketOrderbook;\r\n\r\n    //mapping limit order no to order reference\r\n    mapping(uint256 => bytes32) private limitOrders;\r\n\r\n    //mapping of limit to market order\r\n    mapping(uint256 => uint256) private limitMarket;\r\n\r\n    uint256 limitOrderbook;\r\n\r\n    //mapping stop order no to order reference\r\n    mapping(uint256 => bytes32) private stopOrders;\r\n\r\n    //mapping of stop to market order\r\n    mapping(uint256 => uint256) private stopMarket;\r\n\r\n    uint256 stopOrderbook;\r\n\r\n    //order matching related\r\n    bytes32 bestBid;\r\n    bytes16 bestBidPrice = ABDKMathQuad.fromUInt(0);\r\n    bytes32 bestOffer;\r\n    bytes16 bestOfferPrice = ABDKMathQuad.fromUInt(0);\r\n    uint256 bidIndex = 0;\r\n\r\n    //initialized \r\n    address pretrade;\r\n    address trade;\r\n    address posttrade;\r\n    bytes32 settlementType;\r\n    address security;\r\n    address factory;\r\n\r\n    function initialize(address _security, address _cash, address _pretrade, address _trade, address _posttrade, bytes32 _settlementType, address _viaFactory) public initializer{\r\n        security = _security;\r\n        pair[_security]=_cash;\r\n        pretrade = _pretrade;\r\n        trade = _trade;\r\n        posttrade = _posttrade;\r\n        settlementType = _settlementType;\r\n        factory = _viaFactory;\r\n    }\r\n\r\n    function newOrder(  address _security, \r\n                        address _cash, \r\n                        uint256 _price,\r\n                        uint256 _qty, \r\n                        bytes32 _otype, \r\n                        bytes32 _order) external{\r\n        require(IPreTrade(pretrade).getDP(msg.sender)!=\"\");\r\n        require(_otype==\"Market\" || _otype==\"Limit\" || _otype==\"StopLoss\");\r\n        require(_order==\"Buy\" || _order==\"Sell\");\r\n        require(pair[_security]==_cash);\r\n        if(_order==\"Buy\")\r\n            require(ViaCash(_cash).balanceOf(msg.sender)>=SafeMath.mul(_price, _qty));\r\n        else if(_order==\"Sell\")\r\n            require(IERC20(_security).balanceOf(msg.sender)>=_qty);\r\n        bytes32 ref = keccak256(abi.encodePacked(msg.sender, now));\r\n        //fill up order details\r\n        orders[ref].party = msg.sender;\r\n        orders[ref].price = ABDKMathQuad.fromUInt(_price);\r\n        orders[ref].orderno = orderRefs.length;\r\n        orders[ref].qty = _qty;\r\n        orders[ref].order = _order; \r\n        orders[ref].otype = _otype;\r\n        orders[ref].dt = now;\r\n        orders[ref].status = \"Open\";\r\n        //fill up indexes\r\n        orderIndex[ref] = orderRefs.length;\r\n        orderRefs.push(ref);\r\n        userOrderIndex[ref] = userOrderRefs[msg.sender].length;\r\n        userOrderRefs[msg.sender].push(ref);\r\n        if(_otype==\"Market\"){\r\n            marketOrders[orders[ref].orderno] = ref;\r\n            marketOrderbook = marketOrderbook + 1;\r\n        }\r\n        else if(_otype==\"Limit\"){\r\n            limitOrders[orders[ref].orderno] = ref;\r\n            limitOrderbook = limitOrderbook + 1;\r\n        }\r\n        else if(_otype==\"StopLoss\"){\r\n            stopOrders[orders[ref].orderno] = ref;\r\n            stopOrderbook = stopOrderbook + 1;\r\n        }\r\n        //report order\r\n        ITrade.order memory orderNew = ITrade.order({\r\n            party : orders[ref].party,\r\n            security : security,\r\n            price : ABDKMathQuad.toUInt(orders[ref].price),\r\n            otype : orders[ref].otype,\r\n            order : orders[ref].order,\r\n            status : orders[ref].status,\r\n            currency : ViaFactory(factory).getName(pair[security]),\r\n            securityName : Security(security).name().stringToBytes32(),\r\n            qty : orders[ref].qty,\r\n            dt : orders[ref].dt\r\n        });\r\n        ITrade(trade).reportOrder(orderNew, ref);\r\n        //match order\r\n        matchOrders(ref);\r\n    }\r\n\r\n    function getOrderRef() external view returns(bytes32[] memory){\r\n        return userOrderRefs[msg.sender];\r\n    }\r\n\r\n    function editOrder( bytes32 ref,\r\n                        uint256 _price,\r\n                        uint256 _qty) external {\r\n        require(IPreTrade(pretrade).getDP(msg.sender)!=\"\");\r\n        require(orders[ref].status==\"Open\");\r\n        if(orders[ref].order==\"Buy\")\r\n            require(ViaCash(pair[security]).balanceOf(msg.sender)>=SafeMath.mul(_price, _qty));\r\n        else if(orders[ref].order==\"Sell\")\r\n            require(IERC20(security).balanceOf(msg.sender)>=_qty);\r\n        if(orders[ref].party==msg.sender){\r\n            orders[ref].price = ABDKMathQuad.fromUInt(_price);\r\n            orders[ref].qty = _qty;\r\n            orders[ref].dt = now;\r\n            if(orders[ref].otype==\"Market\"){\r\n                marketOrders[orders[ref].orderno] = ref;\r\n            }\r\n            else if(orders[ref].otype==\"Limit\"){\r\n                limitOrders[orders[ref].orderno] = ref;\r\n            }\r\n            else if(orders[ref].otype==\"StopLoss\"){\r\n                stopOrders[orders[ref].orderno] = ref;\r\n            }\r\n            ITrade.order memory currentOrder = ITrade.order({\r\n                party : orders[ref].party,\r\n                security : security,\r\n                price : ABDKMathQuad.toUInt(orders[ref].price),\r\n                otype : orders[ref].otype,\r\n                order : orders[ref].order,\r\n                status : \"Open\",\r\n                currency : ViaFactory(factory).getName(pair[security]),\r\n                securityName : Security(security).name().stringToBytes32(),\r\n                qty : orders[ref].qty,\r\n                dt : orders[ref].dt\r\n            });\r\n            ITrade(trade).editOrder(currentOrder, ref);\r\n            matchOrders(ref);\r\n        }\r\n    }    \r\n\r\n    function cancelOrder(bytes32 ref) external {        \r\n        require(IPreTrade(pretrade).getDP(msg.sender)!=\"\");\r\n        require(orders[ref].party==msg.sender);\r\n        delete marketOrders[orders[ref].orderno];\r\n        delete limitMarket[orders[ref].orderno];\r\n        delete limitOrders[orders[ref].orderno];\r\n        delete stopMarket[orders[ref].orderno];\r\n        delete stopOrders[orders[ref].orderno];\r\n        delete orders[ref];\r\n        delete orderRefs[orderIndex[ref]];\r\n        delete orderIndex[ref];\r\n        delete userOrderRefs[msg.sender][userOrderIndex[ref]];\r\n        delete userOrderIndex[ref];\r\n        ITrade(trade).cancelOrder(ref, orders[ref].status);\r\n    }  \r\n\r\n    //match market orders. Sellers get the best price (highest bid) they can sell at.\r\n    //Buyers get the best price (lowest offer) they can buy at. \r\n    function matchOrders(bytes32 _ref) private {\r\n        for(uint i=0; i<marketOrderbook; i++){\r\n            if(marketOrders[i]!=_ref && orders[marketOrders[i]].party!=orders[_ref].party){\r\n                if(orders[marketOrders[i]].order==\"Buy\" && orders[_ref].order==\"Sell\"){\r\n                    if(ABDKMathQuad.cmp(orders[marketOrders[i]].price, orders[_ref].price)==0 ||\r\n                            ABDKMathQuad.cmp(orders[marketOrders[i]].price, orders[_ref].price)==1){\r\n                        if(ABDKMathQuad.cmp(orders[marketOrders[i]].price, bestBidPrice)==1){\r\n                            bestBidPrice = orders[marketOrders[i]].price;\r\n                            bestBid = orderRefs[i];\r\n                            bidIndex = i;\r\n                        }\r\n                    }\r\n                }\r\n                else if (orders[marketOrders[i]].order==\"Sell\" && orders[_ref].order==\"Buy\"){\r\n                    if(ABDKMathQuad.cmp(orders[marketOrders[i]].price, orders[_ref].price)==0 ||\r\n                        ABDKMathQuad.cmp(orders[marketOrders[i]].price, orders[_ref].price)==-1){\r\n                        if(ABDKMathQuad.cmp(orders[marketOrders[i]].price, bestOfferPrice)==1){\r\n                            bestOfferPrice = orders[marketOrders[i]].price;\r\n                            bestOffer = orderRefs[i];\r\n                            bidIndex = i;\r\n                        }\r\n                    }\r\n                }\r\n            }\r\n        }\r\n        if(orders[_ref].order==\"Sell\"){\r\n            if(bestBid!=\"\"){\r\n                if(orders[bestBid].qty >= orders[_ref].qty){\r\n                    orders[bestBid].qty = orders[bestBid].qty - orders[_ref].qty;\r\n                    uint qty = orders[_ref].qty;\r\n                    orders[_ref].qty = 0;\r\n                    orders[bestBid].status = \"Filled\";\r\n                    orders[_ref].status = \"Filled\";\r\n                    reportTrade(_ref, orders[_ref].party, bestBid, orders[bestBid].party, orders[_ref].price, qty, orders[_ref].order, settlementType);\r\n                    reorder(bidIndex, \"market\");\r\n                }\r\n                else{\r\n                    orders[_ref].qty = orders[_ref].qty - orders[bestBid].qty;\r\n                    uint qty = orders[bestBid].qty;\r\n                    orders[bestBid].qty = 0;\r\n                    orders[bestBid].status = \"PartlyFilled\";\r\n                    orders[_ref].status = \"PartlyFilled\";\r\n                    reportTrade(_ref, orders[_ref].party, bestBid, orders[bestBid].party, orders[_ref].price, qty, orders[_ref].order, settlementType);\r\n                }\r\n                checkLimitOrders(orders[_ref].price);\r\n                checkStopOrders(orders[_ref].price);\r\n            }\r\n        }\r\n        else if(orders[_ref].order==\"Buy\"){\r\n            if(bestOffer!=\"\"){\r\n                if(orders[bestOffer].qty >= orders[_ref].qty){\r\n                    orders[bestOffer].qty = orders[bestOffer].qty - orders[_ref].qty;\r\n                    uint qty = orders[_ref].qty;\r\n                    orders[_ref].qty = 0;\r\n                    orders[bestOffer].status = \"Filled\";\r\n                    orders[_ref].status = \"Filled\";\r\n                    reportTrade(bestOffer, orders[bestOffer].party, _ref, orders[_ref].party, orders[_ref].price, qty, orders[_ref].order, settlementType);\r\n                    reorder(bidIndex, \"market\");\r\n                }\r\n                else{\r\n                    orders[_ref].qty = orders[_ref].qty - orders[bestOffer].qty;\r\n                    uint qty = orders[bestOffer].qty;\r\n                    orders[bestOffer].qty = 0;\r\n                    orders[bestOffer].status = \"PartlyFilled\";\r\n                    orders[_ref].status = \"PartlyFilled\";\r\n                    reportTrade(bestOffer, orders[bestOffer].party, _ref, orders[_ref].party, orders[_ref].price, qty, orders[_ref].order, settlementType);\r\n                }\r\n                checkLimitOrders(orders[_ref].price);\r\n                checkStopOrders(orders[_ref].price);\r\n            }\r\n        }\r\n    }\r\n\r\n    //check if a buy order in the limit order book can execute over the prevailing (low) price passed to the function\r\n    //check if a sell order in the limit order book can execute under the prevailing (high) price passed to the function\r\n    function checkLimitOrders(bytes16 _priceFilled) private {\r\n        bytes32 ref;\r\n        for(uint256 i=0; i<limitOrderbook; i++){\r\n            if(orders[limitOrders[i]].order==\"Buy\" && orders[limitOrders[i]].price>=_priceFilled){\r\n                marketOrders[orders[limitOrders[i]].orderno] = limitOrders[i];\r\n                marketOrderbook = marketOrderbook + 1;\r\n                ref = limitOrders[i];\r\n                reorder(i, \"limit\");\r\n                matchOrders(ref);\r\n            }\r\n            else if(orders[limitOrders[i]].order==\"Sell\" && orders[limitOrders[i]].price<=_priceFilled){\r\n                marketOrders[orders[limitOrders[i]].orderno] = limitOrders[i];\r\n                marketOrderbook = marketOrderbook + 1;\r\n                ref = limitOrders[i];\r\n                reorder(i, \"limit\");\r\n                matchOrders(ref);\r\n            }\r\n        }\r\n    }\r\n\r\n    //check if a buy order in the limit order book can execute under the prevailing (high) price passed to the function\r\n    //check if a sell order in the limit order book can execute over the prevailing (low) price passed to the function\r\n    function checkStopOrders(bytes16 _priceFilled) private {\r\n        bytes32 ref;\r\n        for(uint256 i=0; i<stopOrderbook; i++){\r\n            if(orders[stopOrders[i]].order==\"Buy\" && orders[stopOrders[i]].price<=_priceFilled){\r\n                marketOrders[orders[stopOrders[i]].orderno] = stopOrders[i];\r\n                marketOrderbook = marketOrderbook + 1;\r\n                ref = stopOrders[i];\r\n                reorder(i, \"stop\");\r\n                matchOrders(ref);\r\n            }\r\n            else if(orders[stopOrders[i]].order==\"Sell\" && orders[stopOrders[i]].price>=_priceFilled){\r\n                marketOrders[orders[stopOrders[i]].orderno] = stopOrders[i];\r\n                marketOrderbook = marketOrderbook + 1;\r\n                ref = stopOrders[i];\r\n                reorder(i, \"stop\");\r\n                matchOrders(ref);\r\n            }\r\n        }   \r\n    }\r\n\r\n    function reportTrade(bytes32 _pregRef,\r\n                        address _transferor, \r\n                        bytes32 _cpregRef,\r\n                        address _transferee, \r\n                        bytes16 _price,\r\n                        uint256 _qty,\r\n                        bytes32 _order,\r\n                        bytes32 _type) private {\r\n        uint256 _askprice = 0;\r\n        if(_order==\"Buy\"){\r\n            _askprice = ABDKMathQuad.toUInt(orders[_pregRef].price);\r\n        }\r\n        else if(_order==\"Sell\"){\r\n            _askprice = ABDKMathQuad.toUInt(orders[_cpregRef].price);\r\n        }\r\n        ITrade.trade memory newTrade = ITrade.trade({\r\n            transferor : _transferor,\r\n            transferee : _transferee,\r\n            security : security,\r\n            price : ABDKMathQuad.toUInt(_price),\r\n            askprice : _askprice,\r\n            currency : ViaFactory(factory).getName(pair[security]),\r\n            order : _order,\r\n            stype : _type,\r\n            qty : _qty,\r\n            dt : now\r\n        });\r\n        ITrade(trade).reportTrade(newTrade, _pregRef, _cpregRef);\r\n    }\r\n\r\n    function revertTrade(bytes32 _orderRef, uint256 _qty, bytes32 _order) external {\r\n        require(_order==\"Buy\" || _order==\"Sell\");\r\n        require(trade==msg.sender);\r\n        orders[_orderRef].qty=orders[_orderRef].qty+_qty;\r\n        orders[_orderRef].status=\"Open\";\r\n        orders[_orderRef].orderno = orderRefs.length;\r\n        marketOrders[orders[_orderRef].orderno] = _orderRef;\r\n        marketOrderbook = marketOrderbook + 1;\r\n    }\r\n    \r\n    function orderFilled(bytes32 partyRef, bytes32 counterpartyRef) external {\r\n        require(trade==msg.sender || posttrade==msg.sender);\r\n        delete userOrderRefs[orders[partyRef].party][userOrderIndex[partyRef]];\r\n        delete userOrderIndex[partyRef];\r\n        delete orders[partyRef];\r\n        delete orderRefs[orderIndex[partyRef]];\r\n        delete orderIndex[partyRef];\r\n        delete userOrderRefs[orders[counterpartyRef].party][userOrderIndex[counterpartyRef]];\r\n        delete userOrderIndex[counterpartyRef];\r\n        delete orders[counterpartyRef];\r\n        delete orderRefs[orderIndex[counterpartyRef]];\r\n        delete orderIndex[counterpartyRef];\r\n    }\r\n\r\n    function reorder(uint256 position, bytes32 list) private {\r\n        if(list==\"market\"){\r\n            for(uint i=position; i<marketOrderbook; i++){\r\n                if(i==marketOrderbook-1)\r\n                    delete marketOrders[position];\r\n                else\r\n                    marketOrders[position] = marketOrders[position+1];\r\n            } \r\n            marketOrderbook = marketOrderbook - 1;\r\n        }\r\n        else if(list==\"limit\"){\r\n            for(uint i=position; i<limitOrderbook; i++){\r\n                if(i==limitOrderbook-1)\r\n                    delete limitOrders[position];\r\n                else\r\n                    limitOrders[position] = limitOrders[position+1];\r\n            } \r\n            limitOrderbook = limitOrderbook - 1;\r\n        }\r\n        else if(list==\"stop\"){\r\n            for(uint i=position; i<stopOrderbook; i++){\r\n                if(i==stopOrderbook-1)\r\n                    delete stopOrders[position];\r\n                else\r\n                    stopOrders[position] = stopOrders[position+1];\r\n            } \r\n            stopOrderbook = stopOrderbook - 1;\r\n        }        \r\n    }\r\n\r\n}",
  "sourcePath": "D:\\Code\\verified-trades\\contracts\\pool\\OrderPool.sol",
  "compiler": {
    "name": "solc",
    "version": "0.5.7+commit.6da8b019.Emscripten.clang"
  },
  "schemaVersion": "3.4.3",
  "updatedAt": "2022-04-02T11:50:18.519Z",
  "networkType": "ethereum",
  "devdoc": {
    "methods": {}
  },
  "userdoc": {
    "methods": {}
  }
}