{
  "contractName": "OrderPool",
  "abi": [
    {
      "constant": false,
      "inputs": [],
      "name": "renounceOwnership",
      "outputs": [],
      "payable": false,
      "stateMutability": "nonpayable",
      "type": "function"
    },
    {
      "constant": true,
      "inputs": [],
      "name": "owner",
      "outputs": [
        {
          "name": "",
          "type": "address"
        }
      ],
      "payable": false,
      "stateMutability": "view",
      "type": "function"
    },
    {
      "constant": true,
      "inputs": [],
      "name": "isOwner",
      "outputs": [
        {
          "name": "",
          "type": "bool"
        }
      ],
      "payable": false,
      "stateMutability": "view",
      "type": "function"
    },
    {
      "constant": false,
      "inputs": [
        {
          "name": "newOwner",
          "type": "address"
        }
      ],
      "name": "transferOwnership",
      "outputs": [],
      "payable": false,
      "stateMutability": "nonpayable",
      "type": "function"
    },
    {
      "anonymous": false,
      "inputs": [
        {
          "indexed": true,
          "name": "previousOwner",
          "type": "address"
        },
        {
          "indexed": true,
          "name": "newOwner",
          "type": "address"
        }
      ],
      "name": "OwnershipTransferred",
      "type": "event"
    },
    {
      "constant": false,
      "inputs": [
        {
          "name": "_security",
          "type": "address"
        },
        {
          "name": "_cash",
          "type": "address"
        },
        {
          "name": "_trade",
          "type": "address"
        },
        {
          "name": "_settlementType",
          "type": "bytes32"
        }
      ],
      "name": "initialize",
      "outputs": [],
      "payable": false,
      "stateMutability": "nonpayable",
      "type": "function"
    },
    {
      "constant": false,
      "inputs": [
        {
          "name": "sender",
          "type": "address"
        }
      ],
      "name": "initialize",
      "outputs": [],
      "payable": false,
      "stateMutability": "nonpayable",
      "type": "function"
    },
    {
      "constant": false,
      "inputs": [
        {
          "name": "_security",
          "type": "address"
        },
        {
          "name": "_cash",
          "type": "address"
        },
        {
          "name": "_price",
          "type": "uint256"
        },
        {
          "name": "_trigger",
          "type": "uint256"
        },
        {
          "name": "_qty",
          "type": "uint256"
        },
        {
          "name": "_otype",
          "type": "bytes32"
        },
        {
          "name": "_order",
          "type": "bytes32"
        }
      ],
      "name": "newOrder",
      "outputs": [
        {
          "name": "",
          "type": "bytes32"
        }
      ],
      "payable": false,
      "stateMutability": "nonpayable",
      "type": "function"
    },
    {
      "constant": false,
      "inputs": [
        {
          "name": "ref",
          "type": "bytes32"
        }
      ],
      "name": "cancelOrder",
      "outputs": [
        {
          "name": "",
          "type": "bool"
        }
      ],
      "payable": false,
      "stateMutability": "nonpayable",
      "type": "function"
    },
    {
      "constant": false,
      "inputs": [
        {
          "name": "ref",
          "type": "bytes32"
        },
        {
          "name": "_price",
          "type": "uint256"
        },
        {
          "name": "_trigger",
          "type": "uint256"
        },
        {
          "name": "_qty",
          "type": "uint256"
        },
        {
          "name": "_otype",
          "type": "bytes32"
        },
        {
          "name": "_order",
          "type": "bytes32"
        }
      ],
      "name": "editOrder",
      "outputs": [
        {
          "name": "",
          "type": "bool"
        }
      ],
      "payable": false,
      "stateMutability": "nonpayable",
      "type": "function"
    },
    {
      "constant": true,
      "inputs": [],
      "name": "getSecurityStatus",
      "outputs": [
        {
          "name": "",
          "type": "bool"
        }
      ],
      "payable": false,
      "stateMutability": "view",
      "type": "function"
    },
    {
      "constant": false,
      "inputs": [
        {
          "name": "_status",
          "type": "bool"
        }
      ],
      "name": "setSecurityStatus",
      "outputs": [],
      "payable": false,
      "stateMutability": "nonpayable",
      "type": "function"
    },
    {
      "constant": false,
      "inputs": [
        {
          "name": "_orderRef",
          "type": "bytes32"
        },
        {
          "name": "_qty",
          "type": "uint256"
        },
        {
          "name": "_order",
          "type": "bytes32"
        }
      ],
      "name": "revertTrade",
      "outputs": [],
      "payable": false,
      "stateMutability": "nonpayable",
      "type": "function"
    }
  ],
  "bytecode": "0x60806040526067805460ff191660011790556123d7806100206000396000f3fe608060405234801561001057600080fd5b50600436106100b45760003560e01c806373efc9f21161007157806373efc9f2146101f65780637489ec23146101fe5780638da5cb5b1461021b5780638f32d59b1461023f578063c4d66de814610247578063f2fde38b1461026d576100b4565b80630386458b146100b9578063110ae1e6146101195780631f040480146101685780635bb564861461019357806363acc14d146101b2578063715018a6146101ee575b600080fd5b610107600480360360e08110156100cf57600080fd5b506001600160a01b03813581169160208101359091169060408101359060608101359060808101359060a08101359060c00135610293565b60408051918252519081900360200190f35b610154600480360360c081101561012f57600080fd5b5080359060208101359060408101359060608101359060808101359060a00135610a54565b604080519115158252519081900360200190f35b6101916004803603606081101561017e57600080fd5b50803590602081013590604001356111f6565b005b610191600480360360208110156101a957600080fd5b50351515611346565b610191600480360360808110156101c857600080fd5b506001600160a01b03813581169160208101358216916040820135169060600135611359565b610191611459565b6101546114ff565b6101546004803603602081101561021457600080fd5b5035611508565b610223611640565b604080516001600160a01b039092168252519081900360200190f35b61015461164f565b6101916004803603602081101561025d57600080fd5b50356001600160a01b0316611675565b6101916004803603602081101561028357600080fd5b50356001600160a01b031661176a565b600082600160d21b6513585c9ad95d0214806102b9575082600160da1b64131a5b5a5d02145b806102d1575082600160c01b6753746f704c6f737302145b6102da57600080fd5b81600160e81b624275790214806102fa575081600160e21b6314d95b1b02145b61030357600080fd5b6001600160a01b0388811660009081526066602052604090205481169088161461032c57600080fd5b60675460ff1661033b57600080fd5b81600160e81b624275790214156103d65760408051600160e01b6370a082310281523360048201529051878602916001600160a01b038a16916370a0823191602480820192602092909190829003018186803b15801561039a57600080fd5b505afa1580156103ae573d6000803e3d6000fd5b505050506040513d60208110156103c457600080fd5b505110156103d157600080fd5b61046b565b81600160e21b6314d95b1b02141561046b5760408051600160e01b6370a08231028152336004820152905185916001600160a01b038b16916370a0823191602480820192602092909190829003018186803b15801561043457600080fd5b505afa158015610448573d6000803e3d6000fd5b505050506040513d602081101561045e57600080fd5b5051101561046b57600080fd5b6040805133606081901b60208084019190915242603480850191909152845180850390910181526054840180865281519190920120606980546001810182556000919091527f7fb4302e8e91f9110a6554c2c0a24601252c2a42c2220ca988efcfe399914308018190556101548401909452908152906074016104ed896117d2565b6001600160801b0319168152602001610505886117d2565b6001600160801b0319908116825260208083018890526040808401889052600160e11b6327b832b70260608086019190915260808086018c90524260a096870152600088815260688552838120885181546001600160a01b039091166001600160a01b031990911617815594880151600186018054958a0151841c600160801b0291841c95909716949094176001600160801b031693909317909455850151600283015591840151600382015591830151600483015560c0830151600583015560e0909201516006909101556105da8261183e565b90505b80600160a21b6b14185c9d1b1e519a5b1b1959021415610607576106008261183e565b90506105dd565b80600160e11b6327b832b7021415610a475760408051600280825260608083018452926020830190803883395050506000848152606860205260409020600601548151919250908290600190811061065b57fe5b60200260200101818152505060686000848152602001908152602001600020600501548160028151811061068b57fe5b602090810291909101015260408051600280825260608281019093528160200160208202803883395050506000858152606860205260409020600190810154825192935060801b9183919081106106de57fe5b6001600160801b03199092166020928302919091018201526000858152606890915260409020600101548151600160801b90910460801b908290600290811061072357fe5b6001600160801b03199092166020928302919091019091015260408051600480825260a08201909252606091816020016020820280388339019050509050848160018151811061076f57fe5b60200260200101818152505060686000868152602001908152602001600020600301548160028151811061079f57fe5b6020026020010181815250506068600086815260200190815260200160002060020154816003815181106107cf57fe5b602002602001018181525050600160e11b6327b832b702816004815181106107f357fe5b60209081029190910101526040805160038082526080820190925260609181602001602082028038833950505060008781526068602052604090205481519192506001600160a01b0316908290600190811061084b57fe5b6001600160a01b03928316602091820292909201810191909152606c54821660009081526066909152604090205482519116908290600290811061088b57fe5b6001600160a01b039283166020918202929092010152606c548251911690829060039081106108b657fe5b6001600160a01b03928316602091820292909201810191909152606a54604051600160e01b63c0891503028152608060048201908152855160848301528551929094169363c08915039386938a9389938b939092839260248101926044820192606483019260a401918b8101910280838360005b8381101561094257818101518382015260200161092a565b50505050905001858103845288818151815260200191508051906020019060200280838360005b83811015610981578181015183820152602001610969565b50505050905001858103835287818151815260200191508051906020019060200280838360005b838110156109c05781810151838201526020016109a8565b50505050905001858103825286818151815260200191508051906020019060200280838360005b838110156109ff5781810151838201526020016109e7565b5050505090500198505050505050505050600060405180830381600087803b158015610a2a57600080fd5b505af1158015610a3e573d6000803e3d6000fd5b50505050505050505b5098975050505050505050565b600082600160d21b6513585c9ad95d021480610a7a575082600160da1b64131a5b5a5d02145b80610a92575082600160c01b6753746f704c6f737302145b610a9b57600080fd5b81600160e81b62427579021480610abb575081600160e21b6314d95b1b02145b610ac457600080fd5b60675460ff1615801590610af25750600087815260686020526040902060040154600160e11b6327b832b702145b610afb57600080fd5b81600160e81b62427579021415610bab57606c546001600160a01b03908116600090815260666020908152604091829020548251600160e01b6370a0823102815233600482015292518a89029491909116926370a08231926024808301939192829003018186803b158015610b6f57600080fd5b505afa158015610b83573d6000803e3d6000fd5b505050506040513d6020811015610b9957600080fd5b50511015610ba657600080fd5b610c41565b81600160e21b6314d95b1b021415610c4157606c5460408051600160e01b6370a08231028152336004820152905186926001600160a01b0316916370a08231916024808301926020929190829003018186803b158015610c0a57600080fd5b505afa158015610c1e573d6000803e3d6000fd5b505050506040513d6020811015610c3457600080fd5b50511015610c4157600080fd5b6000878152606860205260409020546001600160a01b03163314156111e857604051806101000160405280336001600160a01b03168152602001610c84886117d2565b6001600160801b0319168152602001610c9c876117d2565b6001600160801b0319168152602001848152602001838152602001606860008a8152602001908152602001600020600401548152602001858152602001428152506068600089815260200190815260200160002060008201518160000160006101000a8154816001600160a01b0302191690836001600160a01b0316021790555060208201518160010160006101000a8154816001600160801b03021916908360801c021790555060408201518160010160106101000a8154816001600160801b03021916908360801c0217905550606082015181600201556080820151816003015560a0820151816004015560c0820151816005015560e0820151816006015590505060606002604051908082528060200260200182016040528015610dcd578160200160208202803883390190505b509050606860008981526020019081526020016000206006015481600181518110610df457fe5b602002602001018181525050606860008981526020019081526020016000206005015481600281518110610e2457fe5b6020908102919091010152604080516002808252606082810190935281602001602082028038833950505060008a8152606860205260409020600190810154825192935060801b918391908110610e7757fe5b6001600160801b031990921660209283029190910182015260008a8152606890915260409020600101548151600160801b90910460801b9082906002908110610ebc57fe5b6001600160801b03199092166020928302919091019091015260408051600480825260a082019092526060918160200160208202803883390190505090508981600181518110610f0857fe5b602002602001018181525050606860008b81526020019081526020016000206003015481600281518110610f3857fe5b602002602001018181525050606860008b81526020019081526020016000206002015481600381518110610f6857fe5b602002602001018181525050600160e11b6327b832b70281600481518110610f8c57fe5b60209081029190910101526040805160038082526080820190925260609181602001602082028038833950505060008c81526068602052604090205481519192506001600160a01b03169082906001908110610fe457fe5b6001600160a01b03928316602091820292909201810191909152606c54821660009081526066909152604090205482519116908290600290811061102457fe5b6001600160a01b039283166020918202929092010152606c5482519116908290600390811061104f57fe5b6001600160a01b03928316602091820292909201810191909152606a54604051600160e01b631e0586550281526080600482019081528551608483015285519290941693631e0586559386938a9389938b939092839260248101926044820192606483019260a401918b8101910280838360005b838110156110db5781810151838201526020016110c3565b50505050905001858103845288818151815260200191508051906020019060200280838360005b8381101561111a578181015183820152602001611102565b50505050905001858103835287818151815260200191508051906020019060200280838360005b83811015611159578181015183820152602001611141565b50505050905001858103825286818151815260200191508051906020019060200280838360005b83811015611198578181015183820152602001611180565b5050505090500198505050505050505050600060405180830381600087803b1580156111c357600080fd5b505af11580156111d7573d6000803e3d6000fd5b5050505060019450505050506111ec565b5060005b9695505050505050565b80600160e81b62427579021480611216575080600160e21b6314d95b1b02145b61121f57600080fd5b606a546001600160a01b0316331461123657600080fd5b60005b60695481101561134057836069828154811061125157fe5b9060005260206000200154148015611295575081606860006069848154811061127657fe5b9060005260206000200154815260200190815260200160002060030154145b15611338578260686000606984815481106112ac57fe5b90600052602060002001548152602001908152602001600020600501540160686000606984815481106112db57fe5b9060005260206000200154815260200190815260200160002060050181905550600160e11b6327b832b702606860006069848154811061131757fe5b90600052602060002001548152602001908152602001600020600401819055505b600101611239565b50505050565b6067805460ff1916911515919091179055565b600054610100900460ff16806113725750611372611e36565b80611380575060005460ff16155b6113be57604051600160e51b62461bcd02815260040180806020018281038252602e81526020018061237e602e913960400191505060405180910390fd5b600054610100900460ff161580156113e9576000805460ff1961ff0019909116610100171660011790555b6113f233611675565b606c80546001600160a01b03199081166001600160a01b03888116918217909355600090815260666020526040902080548216878416179055606a8054909116918516919091179055606b8290558015611452576000805461ff00191690555b5050505050565b61146161164f565b6114b55760408051600160e51b62461bcd02815260206004820181905260248201527f4f776e61626c653a2063616c6c6572206973206e6f7420746865206f776e6572604482015290519081900360640190fd5b6033546040516000916001600160a01b0316907f8be0079c531659141344cd1fd0a4f28419497f9722a3daafe3b4186f6b6457e0908390a3603380546001600160a01b0319169055565b60675460ff1690565b6000818152606860205260408120546001600160a01b0316331461152b57600080fd5b60675460ff1661153a57600080fd5b60005b60695481101561163557826069828154811061155557fe5b9060005260206000200154141561162d57600160ba1b6810d85b98d95b1b195902606860006069848154811061158757fe5b6000918252602080832090910154835282019290925260409081018220600490810193909355606a548151600160e01b63a47d9d33028152938401879052600160ba1b6810d85b98d95b1b195902602485015290516001600160a01b039091169263a47d9d3392604480830193919282900301818387803b15801561160b57600080fd5b505af115801561161f573d6000803e3d6000fd5b50505050600191505061163b565b60010161153d565b50600090505b919050565b6033546001600160a01b031690565b6033546000906001600160a01b0316611666611e3c565b6001600160a01b031614905090565b600054610100900460ff168061168e575061168e611e36565b8061169c575060005460ff16155b6116da57604051600160e51b62461bcd02815260040180806020018281038252602e81526020018061237e602e913960400191505060405180910390fd5b600054610100900460ff16158015611705576000805460ff1961ff0019909116610100171660011790555b603380546001600160a01b0319166001600160a01b0384811691909117918290556040519116906000907f8be0079c531659141344cd1fd0a4f28419497f9722a3daafe3b4186f6b6457e0908290a38015611766576000805461ff00191690555b5050565b61177261164f565b6117c65760408051600160e51b62461bcd02815260206004820181905260248201527f4f776e61626c653a2063616c6c6572206973206e6f7420746865206f776e6572604482015290519081900360640190fd5b6117cf81611e40565b50565b6000816117e15750600061163b565b8160006117ed82611ee4565b90506070811015611806578060700382901b9150611819565b6070811115611819576070810382901c91505b613fff0160701b6dffffffffffffffffffffffffffff919091161760801b905061163b565b600081815260686020526040812060020154600160d21b6513585c9ad95d021415611e255760008061187060006117d2565b905060008061187f60006117d2565b905060005b606954811015611b3957866069828154811061189c57fe5b906000526020600020015414611b315760686000606983815481106118bd57fe5b9060005260206000200154815260200190815260200160002060030154600160e81b624275790214801561190b5750600087815260686020526040902060030154600160e21b6314d95b1b02145b15611a0f576000611963606860006069858154811061192657fe5b6000918252602080832090910154835282810193909352604091820181206001908101548d835260689094529190200154608091821b911b611f88565b60000b12611a0a576119a7606860006069848154811061197f57fe5b6000918252602080832090910154835282019290925260400190206001015460801b85611f88565b60000b60011415611a0a5760686000606983815481106119c357fe5b9060005260206000200154815260200190815260200160002060010160009054906101000a900460801b9350606981815481106119fc57fe5b906000526020600020015494505b611b31565b6068600060698381548110611a2057fe5b9060005260206000200154815260200190815260200160002060030154600160e21b6314d95b1b02148015611a6e5750600087815260686020526040902060030154600160e81b6242757902145b15611b31576000611a89606860006069858154811061192657fe5b60000b13611b3157611acd6068600060698481548110611aa557fe5b6000918252602080832090910154835282019290925260400190206001015460801b83611f88565b60000b6000191415611b31576068600060698381548110611aea57fe5b9060005260206000200154815260200190815260200160002060010160009054906101000a900460801b915060698181548110611b2357fe5b906000526020600020015492505b600101611884565b50600086815260686020526040902060030154600160e21b6314d95b1b021415611ccd578315611cc857600086815260686020526040808220600590810154878452919092209091015410611c255760008681526068602052604080822060058082018054898652938520918201805494909403909355825492849055600160d21b65119a5b1b195902600480830182905583015581549054938a90526001820154600390920154606b549394611c0c948c946001600160a01b03948516948c9493169260809190911b918891906120d1565b600160d21b65119a5b1b1959029550505050505061163b565b600084815260686020526040808220600580820180548b8652938520918201805494909403909355825493909255600160a21b6b14185c9d1b1e519a5b1b1959026004808301829055830155815490546001830154600390930154606b54611ca9948c946001600160a01b03908116948c9491169260809290921b918891906120d1565b600160a21b6b14185c9d1b1e519a5b1b1959029550505050505061163b565b611e20565b600086815260686020526040902060030154600160e81b62427579021415611e20578115611e2057600086815260686020526040808220600590810154858452919092209091015410611d9d5760008681526068602052604080822060058082018054878652938520918201805494909403909355825492849055600160d21b65119a5b1b1959026004808301829055830155549289905280546001820154600390920154606b549394611c0c9488946001600160a01b03928316948e9493169260809190911b918891906120d1565b600082815260686020526040808220600580820180548b8652938520918201805494909403909355825493909255600160a21b6b14185c9d1b1e519a5b1b19590260048083018290558301555481546001830154600390930154606b54611ca99488946001600160a01b03908116948e9491169260809290921b918891906120d1565b505050505b50600160e11b6327b832b702919050565b303b1590565b3390565b6001600160a01b038116611e8857604051600160e51b62461bcd0281526004018080602001828103825260268152602001806123586026913960400191505060405180910390fd5b6033546040516001600160a01b038084169216907f8be0079c531659141344cd1fd0a4f28419497f9722a3daafe3b4186f6b6457e090600090a3603380546001600160a01b0319166001600160a01b0392909216919091179055565b6000808211611ef257600080fd5b6000600160801b8310611f0757608092831c92015b680100000000000000008310611f1f57604092831c92015b6401000000008310611f3357602092831c92015b620100008310611f4557601092831c92015b6101008310611f5657600892831c92015b60108310611f6657600492831c92015b60048310611f7657600292831c92015b60028310611f82576001015b92915050565b600060016001607f1b03608084901c16600160701b617fff02811115611fad57600080fd5b60016001607f1b03608084901c16600160701b617fff02811115611fd057600080fd5b6001600160801b0319858116908516141580611ffc5750600160701b617fff02826001600160801b0316105b61200557600080fd5b6001600160801b0319858116908516141561202557600092505050611f82565b60006001607f1b8660801c6001600160801b03161015905060006001607f1b8660801c6001600160801b031610159050811561209057801561208157826001600160801b0316846001600160801b031611612081576001612085565b6000195b945050505050611f82565b80156120a3576001945050505050611f82565b826001600160801b0316846001600160801b0316116120c457600019612085565b5060019695505050505050565b60408051600480825260a0820190925260609160208201608080388339019050509050878160018151811061210257fe5b60200260200101906001600160a01b031690816001600160a01b031681525050858160028151811061213057fe5b6001600160a01b03928316602091820292909201810191909152606c54821660009081526066909152604090205482519116908290600390811061217057fe5b6001600160a01b039283166020918202929092010152606c5482519116908290600490811061219b57fe5b6001600160a01b039092166020928302919091019091015260408051600480825260a0820190925260609181602001602082028038833901905050905089816001815181106121e657fe5b602002602001018181525050878160028151811061220057fe5b602002602001018181525050828160038151811061221a57fe5b602002602001018181525050838160048151811061223457fe5b602090810291909101810191909152606a54604051600160e01b630ae5c4b30281526001600160801b031989166044820152606481018890526080600482019081528551608483015285516001600160a01b0390931693630ae5c4b393879387938d938d9391928392602482019260a490920191898101910280838360005b838110156122cb5781810151838201526020016122b3565b50505050905001838103825286818151815260200191508051906020019060200280838360005b8381101561230a5781810151838201526020016122f2565b505050509050019650505050505050600060405180830381600087803b15801561233357600080fd5b505af1158015612347573d6000803e3d6000fd5b505050505050505050505050505056fe4f776e61626c653a206e6577206f776e657220697320746865207a65726f2061646472657373436f6e747261637420696e7374616e63652068617320616c7265616479206265656e20696e697469616c697a6564a165627a7a7230582051cad4bb6a8aff6074e1afc0e8c38983fd66af90303d9b15b61e26ba86c099710029",
  "source": "// Maintains order pools\r\n// (c) Kallol Borah, 2021\r\n \r\npragma solidity 0.5.7;\r\n\r\nimport \"@openzeppelin/upgrades/contracts/Initializable.sol\";\r\nimport \"@openzeppelin/contracts-ethereum-package/contracts/ownership/Ownable.sol\";\r\nimport \"@openzeppelin/contracts-ethereum-package/contracts/token/ERC20/IERC20.sol\";\r\nimport \"abdk-libraries-solidity/ABDKMathQuad.sol\";\r\nimport \"../interfaces/IOrderPool.sol\";\r\nimport \"../interfaces/ITrade.sol\";\r\nimport \"../interfaces/ViaCash.sol\";\r\n\r\ncontract OrderPool is Initializable, Ownable, IOrderPool {\r\n\r\n    using ABDKMathQuad for uint256;\r\n    using ABDKMathQuad for int256;\r\n    using ABDKMathQuad for bytes16;\r\n\r\n    mapping(address => address) private pair;\r\n\r\n    //security trading status\r\n    bool status = true;\r\n\r\n    struct order{\r\n        address party;\r\n        bytes16 price;\r\n        bytes16 trigger; \r\n        bytes32 otype;\r\n        bytes32 order;\r\n        bytes32 status;\r\n        uint256 qty;\r\n        uint dt;\r\n    }\r\n\r\n    mapping(bytes32 => order) private orders;\r\n\r\n    bytes32[] orderRefs;\r\n\r\n    //initialized \r\n    address trade;\r\n    bytes32 settlementType;\r\n    address security;\r\n\r\n    function initialize(address _security, address _cash, address _trade, bytes32 _settlementType) public initializer{\r\n        Ownable.initialize(msg.sender);\r\n        security = _security;\r\n        pair[_security]=_cash;\r\n        trade = _trade;\r\n        settlementType = _settlementType;\r\n    }\r\n\r\n    function newOrder(  address _security, \r\n                        address _cash, \r\n                        uint256 _price,\r\n                        uint256 _trigger, \r\n                        uint256 _qty, \r\n                        bytes32 _otype, \r\n                        bytes32 _order) external returns(bytes32) {\r\n        require(_otype==\"Market\" || _otype==\"Limit\" || _otype==\"StopLoss\");\r\n        require(_order==\"Buy\" || _order==\"Sell\");\r\n        require(pair[_security]==_cash);\r\n        require(status!=false);\r\n        if(_order==\"Buy\")\r\n            require(ViaCash(_cash).balanceOf(msg.sender)>=(_price*_qty));\r\n        else if(_order==\"Sell\")\r\n            require(IERC20(_security).balanceOf(msg.sender)>=_qty);\r\n        bytes32 ref = keccak256(abi.encodePacked(msg.sender, now));\r\n        orderRefs.push(ref);\r\n        orders[ref] = order(msg.sender, ABDKMathQuad.fromUInt(_price), ABDKMathQuad.fromUInt(_trigger), _otype, _order, \"Open\", _qty, now);\r\n        bytes32 s = matched(ref);\r\n        while(s==\"PartlyFilled\"){ \r\n            s = matched(ref);\r\n        }\r\n        if(s==\"Open\"){\r\n            uint[] memory u = new uint[](2);\r\n            u[1]= orders[ref].dt;\r\n            u[2]= orders[ref].qty;\r\n            bytes16[] memory by = new bytes16[](2);\r\n            by[1]= orders[ref].price;\r\n            by[2]= orders[ref].trigger;\r\n            bytes32[] memory b = new bytes32[](4);\r\n            b[1]= ref;\r\n            b[2]= orders[ref].order;\r\n            b[3]= orders[ref].otype;\r\n            b[4]= \"Open\";\r\n            address[] memory a = new address[](3);\r\n            a[1]= orders[ref].party;\r\n            a[2]= pair[security];\r\n            a[3]= security;\r\n            ITrade(trade).reportOrder(a, u, b, by);\r\n        }\r\n        return ref;\r\n    }    \r\n\r\n    function cancelOrder(bytes32 ref) external returns(bool){\r\n        \r\n        require(orders[ref].party==msg.sender);\r\n        require(status!=false);\r\n        for(uint i=0; i<orderRefs.length; i++){\r\n            if(orderRefs[i]==ref){\r\n                orders[orderRefs[i]].status=\"Cancelled\";\r\n                ITrade(trade).cancelOrder(ref, \"Cancelled\");\r\n                return true;\r\n            }\r\n        }\r\n        return false;\r\n    }   \r\n\r\n    function editOrder( bytes32 ref,\r\n                        uint256 _price,\r\n                        uint256 _trigger, \r\n                        uint256 _qty, \r\n                        bytes32 _otype,\r\n                        bytes32 _order) external returns(bool){\r\n        require(_otype==\"Market\" || _otype==\"Limit\" || _otype==\"StopLoss\");\r\n        require(_order==\"Buy\" || _order==\"Sell\");\r\n        require(status!=false && orders[ref].status==\"Open\");\r\n        if(_order==\"Buy\")\r\n            require(ViaCash(pair[security]).balanceOf(msg.sender)>=(_price*_qty));\r\n        else if(_order==\"Sell\")\r\n            require(IERC20(security).balanceOf(msg.sender)>=_qty);\r\n        if(orders[ref].party==msg.sender){\r\n            orders[ref] = order(msg.sender, ABDKMathQuad.fromUInt(_price), ABDKMathQuad.fromUInt(_trigger), _otype, _order, orders[ref].status, _qty, now);       \r\n            uint[] memory u = new uint[](2);\r\n            u[1]= orders[ref].dt;\r\n            u[2]= orders[ref].qty;\r\n            bytes16[] memory by = new bytes16[](2);\r\n            by[1]= orders[ref].price;\r\n            by[2]= orders[ref].trigger;\r\n            bytes32[] memory b = new bytes32[](4);\r\n            b[1]= ref;\r\n            b[2]= orders[ref].order;\r\n            b[3]= orders[ref].otype;\r\n            b[4]= \"Open\";\r\n            address[] memory a = new address[](3);\r\n            a[1]= orders[ref].party;\r\n            a[2]= pair[security];\r\n            a[3]= security;\r\n            ITrade(trade).editOrder(a, u, b, by);\r\n            return true;\r\n        }\r\n        return false;\r\n    }\r\n\r\n    function getSecurityStatus() external view returns(bool){\r\n        return status;\r\n    }\r\n\r\n    function setSecurityStatus(bool _status) external{\r\n        status = _status;\r\n    }\r\n\r\n    function matched(bytes32 _ref) private returns(bytes32){\r\n        if(orders[_ref].otype==\"Market\"){\r\n            bytes32 bestBid;\r\n            bytes16 bestBidPrice = ABDKMathQuad.fromUInt(0);\r\n            bytes32 bestOffer;\r\n            bytes16 bestOfferPrice = ABDKMathQuad.fromUInt(0);\r\n            for(uint i=0; i<orderRefs.length; i++){\r\n                if(orderRefs[i]!=_ref){\r\n                    if(orders[orderRefs[i]].order==\"Buy\" && orders[_ref].order==\"Sell\"){\r\n                        if(ABDKMathQuad.cmp(orders[orderRefs[i]].price, orders[_ref].price)>=0){\r\n                            if(ABDKMathQuad.cmp(orders[orderRefs[i]].price, bestBidPrice)==1){\r\n                                bestBidPrice = orders[orderRefs[i]].price;\r\n                                bestBid = orderRefs[i];\r\n                            }\r\n                        }\r\n                    }\r\n                    else if (orders[orderRefs[i]].order==\"Sell\" && orders[_ref].order==\"Buy\"){\r\n                        if(ABDKMathQuad.cmp(orders[orderRefs[i]].price, orders[_ref].price)<=0){\r\n                            if(ABDKMathQuad.cmp(orders[orderRefs[i]].price, bestOfferPrice)==-1){\r\n                                bestOfferPrice = orders[orderRefs[i]].price;\r\n                                bestOffer = orderRefs[i];\r\n                            }\r\n                        }\r\n                    }\r\n                }\r\n            }\r\n            if(orders[_ref].order==\"Sell\"){\r\n                if(bestBid!=\"\"){\r\n                    if(orders[bestBid].qty >= orders[_ref].qty){\r\n                        orders[bestBid].qty = orders[bestBid].qty - orders[_ref].qty;\r\n                        uint qty = orders[_ref].qty;\r\n                        orders[_ref].qty = 0;\r\n                        orders[bestBid].status = \"Filled\";\r\n                        orders[_ref].status = \"Filled\";\r\n                        reportTrade(_ref, orders[_ref].party, bestBid, orders[bestBid].party, orders[_ref].price, qty, orders[_ref].order, settlementType);\r\n                        return \"Filled\";\r\n                    }\r\n                    else{\r\n                        orders[_ref].qty = orders[_ref].qty - orders[bestBid].qty;\r\n                        uint qty = orders[bestBid].qty;\r\n                        orders[bestBid].qty = 0;\r\n                        orders[bestBid].status = \"PartlyFilled\";\r\n                        orders[_ref].status = \"PartlyFilled\";\r\n                        reportTrade(_ref, orders[_ref].party, bestBid, orders[bestBid].party, orders[_ref].price, qty, orders[_ref].order, settlementType);\r\n                        return \"PartlyFilled\";\r\n                    }\r\n                }\r\n            }\r\n            else if(orders[_ref].order==\"Buy\"){\r\n                if(bestOffer!=\"\"){\r\n                    if(orders[bestOffer].qty >= orders[_ref].qty){\r\n                        orders[bestOffer].qty = orders[bestOffer].qty - orders[_ref].qty;\r\n                        uint qty = orders[_ref].qty;\r\n                        orders[_ref].qty = 0;\r\n                        orders[bestOffer].status = \"Filled\";\r\n                        orders[_ref].status = \"Filled\";\r\n                        reportTrade(bestOffer, orders[bestOffer].party, _ref, orders[_ref].party, orders[_ref].price, qty, orders[_ref].order, settlementType);\r\n                        return \"Filled\";\r\n                    }\r\n                    else{\r\n                        orders[_ref].qty = orders[_ref].qty - orders[bestOffer].qty;\r\n                        uint qty = orders[bestOffer].qty;\r\n                        orders[bestOffer].qty = 0;\r\n                        orders[bestOffer].status = \"PartlyFilled\";\r\n                        orders[_ref].status = \"PartlyFilled\";\r\n                        reportTrade(bestOffer, orders[bestOffer].party, _ref, orders[_ref].party, orders[_ref].price, qty, orders[_ref].order, settlementType);\r\n                        return \"PartlyFilled\";\r\n                    }\r\n                }\r\n            }\r\n        }\r\n        return \"Open\";\r\n    }\r\n\r\n    function reportTrade(bytes32 _pregRef,\r\n                        address _transferor, \r\n                        bytes32 _cpregRef,\r\n                        address _transferee, \r\n                        bytes16 _price,\r\n                        uint256 _qty,\r\n                        bytes32 _order,\r\n                        bytes32 _type) private {\r\n        \r\n        address[] memory a = new address[](4);\r\n        a[1]= _transferor;\r\n        a[2]= _transferee;\r\n        a[3]= pair[security];\r\n        a[4]= security;\r\n        bytes32[] memory by = new bytes32[](4);\r\n        by[1]= _pregRef;\r\n        by[2]= _cpregRef;\r\n        by[3]= _type;\r\n        by[4]= _order;\r\n        ITrade(trade).reportTrade(a, by, _price, _qty);\r\n    }\r\n\r\n    function revertTrade(bytes32 _orderRef, uint256 _qty, bytes32 _order) external {\r\n        require(_order==\"Buy\" || _order==\"Sell\");\r\n        require(trade==msg.sender);\r\n        for(uint i=0; i<orderRefs.length; i++){\r\n            if( orderRefs[i]==_orderRef &&\r\n                orders[orderRefs[i]].order==_order){\r\n                    orders[orderRefs[i]].qty=orders[orderRefs[i]].qty+_qty;\r\n                    orders[orderRefs[i]].status=\"Open\";\r\n            }\r\n        }\r\n    }\r\n    \r\n}",
  "sourcePath": "D:/Code/verified-trades/contracts/pool/OrderPool.sol",
  "compiler": {
    "name": "solc",
    "version": "0.5.7+commit.6da8b019.Emscripten.clang"
  },
  "schemaVersion": "3.3.3",
  "updatedAt": "2021-05-31T03:20:57.736Z",
  "networkType": "ethereum",
  "devdoc": {
    "methods": {
      "initialize(address)": {
        "details": "Initializes the contract setting the deployer as the initial owner."
      },
      "isOwner()": {
        "details": "Returns true if the caller is the current owner."
      },
      "owner()": {
        "details": "Returns the address of the current owner."
      },
      "renounceOwnership()": {
        "details": "Leaves the contract without owner. It will not be possible to call `onlyOwner` functions anymore. Can only be called by the current owner.     * > Note: Renouncing ownership will leave the contract without an owner, thereby removing any functionality that is only available to the owner."
      },
      "transferOwnership(address)": {
        "details": "Transfers ownership of the contract to a new account (`newOwner`). Can only be called by the current owner."
      }
    }
  },
  "userdoc": {
    "methods": {}
  }
}