{
  "contractName": "OrderPool",
  "abi": [
    {
      "constant": false,
      "inputs": [
        {
          "name": "_security",
          "type": "address"
        },
        {
          "name": "_cash",
          "type": "address"
        },
        {
          "name": "_trade",
          "type": "address"
        },
        {
          "name": "_settlementType",
          "type": "bytes32"
        },
        {
          "name": "_viaFactory",
          "type": "address"
        }
      ],
      "name": "initialize",
      "outputs": [],
      "payable": false,
      "stateMutability": "nonpayable",
      "type": "function"
    },
    {
      "constant": false,
      "inputs": [
        {
          "name": "_security",
          "type": "address"
        },
        {
          "name": "_cash",
          "type": "address"
        },
        {
          "name": "_price",
          "type": "uint256"
        },
        {
          "name": "_trigger",
          "type": "uint256"
        },
        {
          "name": "_qty",
          "type": "uint256"
        },
        {
          "name": "_otype",
          "type": "bytes32"
        },
        {
          "name": "_order",
          "type": "bytes32"
        }
      ],
      "name": "newOrder",
      "outputs": [],
      "payable": false,
      "stateMutability": "nonpayable",
      "type": "function"
    },
    {
      "constant": true,
      "inputs": [],
      "name": "getOrderRef",
      "outputs": [
        {
          "name": "",
          "type": "bytes32"
        }
      ],
      "payable": false,
      "stateMutability": "view",
      "type": "function"
    },
    {
      "constant": false,
      "inputs": [
        {
          "name": "ref",
          "type": "bytes32"
        }
      ],
      "name": "cancelOrder",
      "outputs": [],
      "payable": false,
      "stateMutability": "nonpayable",
      "type": "function"
    },
    {
      "constant": false,
      "inputs": [
        {
          "name": "ref",
          "type": "bytes32"
        },
        {
          "name": "_price",
          "type": "uint256"
        },
        {
          "name": "_trigger",
          "type": "uint256"
        },
        {
          "name": "_qty",
          "type": "uint256"
        },
        {
          "name": "_otype",
          "type": "bytes32"
        },
        {
          "name": "_order",
          "type": "bytes32"
        }
      ],
      "name": "editOrder",
      "outputs": [],
      "payable": false,
      "stateMutability": "nonpayable",
      "type": "function"
    },
    {
      "constant": false,
      "inputs": [
        {
          "name": "_orderRef",
          "type": "bytes32"
        },
        {
          "name": "_qty",
          "type": "uint256"
        },
        {
          "name": "_order",
          "type": "bytes32"
        }
      ],
      "name": "revertTrade",
      "outputs": [],
      "payable": false,
      "stateMutability": "nonpayable",
      "type": "function"
    }
  ],
  "bytecode": "0x60806040526034805460ff1916600117905534801561001d57600080fd5b506125048061002d6000396000f3fe608060405234801561001057600080fd5b50600436106100625760003560e01c80630386458b14610067578063110ae1e61461007c5780631f0404801461008f57806346b8b730146100a25780637489ec23146100c0578063a01893bf146100d3575b600080fd5b61007a610075366004611e5f565b6100e6565b005b61007a61008a366004611f8c565b61078f565b61007a61009d366004611f3f565b610dea565b6100aa610f3a565b6040516100b79190612355565b60405180910390f35b61007a6100ce366004611efb565b610f4d565b61007a6100e1366004611dea565b61105d565b81600160d21b6513585c9ad95d02148061010a575081600160da1b64131a5b5a5d02145b80610122575081600160c01b6753746f704c6f737302145b61012b57600080fd5b80600160e81b6242757902148061014b575080600160e21b6314d95b1b02145b61015457600080fd5b6001600160a01b0387811660009081526033602052604090205481169087161461017d57600080fd5b80600160e81b6242757902141561022757610198858461114a565b604051600160e01b6370a082310281526001600160a01b038816906370a08231906101c7903390600401612347565b60206040518083038186803b1580156101df57600080fd5b505afa1580156101f3573d6000803e3d6000fd5b505050506040513d601f19601f820116820180604052506102179190810190611f21565b101561022257600080fd5b6102c5565b80600160e21b6314d95b1b0214156102c557604051600160e01b6370a0823102815283906001600160a01b038916906370a082319061026a903390600401612347565b60206040518083038186803b15801561028257600080fd5b505afa158015610296573d6000803e3d6000fd5b505050506040513d601f19601f820116820180604052506102ba9190810190611f21565b10156102c557600080fd5b600033426040516020016102da929190612313565b60408051601f198184030181528282528051602091820120336000818152603684528481208390556037805460018101825591527f42a7b7dd785cd69714a189dffb3fd7d7174edc9ece837694ce50f7078f7c31ae018290556101008501909352918352909250810161034c88611190565b6001600160801b031916815260200161036487611190565b6001600160801b0319908116825260208083018790526040808401879052600160e11b6327b832b70260608086019190915260808086018b90524260a096870152600088815260358552838120885181546001600160a01b039091166001600160a01b031990911617815594880151600186018054958a0151841c600160801b0291841c95909716949094176001600160801b031693909317909455850151600283015591840151600382015591830151600483015560c0830151600583015560e090920151600690910155610439826111f6565b90505b80600160a21b6b14185c9d1b1e519a5b1b19590214156104665761045f826111f6565b905061043c565b80600160e11b6327b832b7021480610489575080600160d21b65119a5b1b195902145b1561078457610496611cc2565b604080516101608101825260008581526035602081815284832080546001600160a01b039081168652603a54168286015292889052526001015490918201906104e19060801b61188b565b815260008581526035602090815260409091206001015491019061050e90600160801b900460801b61188b565b81526000858152603560209081526040808320600281015483860152600301548185015260608401879052603b54603a546001600160a01b039081168552603390935292819020549051600160e11b632fea584502815260809094019392821692635fd4b08a92610583921690600401612339565b60206040518083038186803b15801561059b57600080fd5b505afa1580156105af573d6000803e3d6000fd5b505050506040513d601f19601f820116820180604052506105d39190810190611f21565b8152602001603a60009054906101000a90046001600160a01b03166001600160a01b03166306fdde036040518163ffffffff1660e01b815260040160006040518083038186803b15801561062657600080fd5b505afa15801561063a573d6000803e3d6000fd5b505050506040513d6000823e601f3d908101601f191682016040526106629190810190612013565b604051600160e31b6319f6a32502815273__stringutils___________________________9163cfb519289161069b919060040161237d565b60206040518083038186803b1580156106b357600080fd5b505af41580156106c7573d6000803e3d6000fd5b505050506040513d601f19601f820116820180604052506106eb9190810190611f21565b8152600085815260356020818152604080842060058101548387015293899052919052600690910154918101919091526038549051600160e31b631913d3690281529192506001600160a01b03169063c89e9b489061075090849087906004016123ae565b600060405180830381600087803b15801561076a57600080fd5b505af115801561077e573d6000803e3d6000fd5b50505050505b505050505050505050565b81600160d21b6513585c9ad95d0214806107b3575081600160da1b64131a5b5a5d02145b806107cb575081600160c01b6753746f704c6f737302145b6107d457600080fd5b80600160e81b624275790214806107f4575080600160e21b6314d95b1b02145b6107fd57600080fd5b600086815260356020526040902060040154600160e11b6327b832b7021461082457600080fd5b80600160e81b624275790214156108e45761083f858461114a565b603a546001600160a01b0390811660009081526033602052604090819020549051600160e01b6370a082310281529116906370a0823190610884903390600401612347565b60206040518083038186803b15801561089c57600080fd5b505afa1580156108b0573d6000803e3d6000fd5b505050506040513d601f19601f820116820180604052506108d49190810190611f21565b10156108df57600080fd5b610984565b80600160e21b6314d95b1b02141561098457603a54604051600160e01b6370a0823102815284916001600160a01b0316906370a0823190610929903390600401612347565b60206040518083038186803b15801561094157600080fd5b505afa158015610955573d6000803e3d6000fd5b505050506040513d601f19601f820116820180604052506109799190810190611f21565b101561098457600080fd5b6000868152603560205260409020546001600160a01b0316331415610de257604051806101000160405280336001600160a01b031681526020016109c787611190565b6001600160801b03191681526020016109df86611190565b6001600160801b031916815260200183815260200182815260200160356000898152602001908152602001600020600401548152602001848152602001428152506035600088815260200190815260200160002060008201518160000160006101000a8154816001600160a01b0302191690836001600160a01b0316021790555060208201518160010160006101000a8154816001600160801b03021916908360801c021790555060408201518160010160106101000a8154816001600160801b03021916908360801c0217905550606082015181600201556080820151816003015560a0820151816004015560c0820151816005015560e08201518160060155905050610aeb611cc2565b604080516101608101825260008981526035602081815284832080546001600160a01b039081168652603a541682860152928c905252600101549091820190610b369060801b61188b565b8152600089815260356020908152604090912060010154910190610b6390600160801b900460801b61188b565b815260008981526035602090815260408083206002810154838601526003015481850152600160e11b6327b832b7026060850152603b54603a546001600160a01b039081168552603390935292819020549051600160e11b632fea584502815260809094019392821692635fd4b08a92610be1921690600401612339565b60206040518083038186803b158015610bf957600080fd5b505afa158015610c0d573d6000803e3d6000fd5b505050506040513d601f19601f82011682018060405250610c319190810190611f21565b8152602001603a60009054906101000a90046001600160a01b03166001600160a01b03166306fdde036040518163ffffffff1660e01b815260040160006040518083038186803b158015610c8457600080fd5b505afa158015610c98573d6000803e3d6000fd5b505050506040513d6000823e601f3d908101601f19168201604052610cc09190810190612013565b604051600160e31b6319f6a32502815273__stringutils___________________________9163cfb5192891610cf9919060040161237d565b60206040518083038186803b158015610d1157600080fd5b505af4158015610d25573d6000803e3d6000fd5b505050506040513d601f19601f82011682018060405250610d499190810190611f21565b81526000898152603560208181526040808420600581015483870152938d9052919052600690910154918101919091526038549051600160e21b633874a8070281529192506001600160a01b03169063e1d2a01c90610dae9084908b906004016123ae565b600060405180830381600087803b158015610dc857600080fd5b505af1158015610ddc573d6000803e3d6000fd5b50505050505b505050505050565b80600160e81b62427579021480610e0a575080600160e21b6314d95b1b02145b610e1357600080fd5b6038546001600160a01b03163314610e2a57600080fd5b60005b603754811015610f34578360378281548110610e4557fe5b9060005260206000200154148015610e895750816035600060378481548110610e6a57fe5b9060005260206000200154815260200190815260200160002060030154145b15610f2c57826035600060378481548110610ea057fe5b9060005260206000200154815260200190815260200160002060050154016035600060378481548110610ecf57fe5b9060005260206000200154815260200190815260200160002060050181905550600160e11b6327b832b7026035600060378481548110610f0b57fe5b90600052602060002001548152602001908152602001600020600401819055505b600101610e2d565b50505050565b3360009081526036602052604090205490565b6000818152603560205260409020546001600160a01b03163314610f7057600080fd5b60005b603754811015611059578160378281548110610f8b57fe5b9060005260206000200154141561105157600160ba1b6810d85b98d95b1b1959026035600060378481548110610fbd57fe5b9060005260206000200154815260200190815260200160002060040181905550603860009054906101000a90046001600160a01b03166001600160a01b031663a47d9d33836040518263ffffffff1660e01b815260040161101e9190612363565b600060405180830381600087803b15801561103857600080fd5b505af115801561104c573d6000803e3d6000fd5b505050505b600101610f73565b5050565b600054610100900460ff16806110765750611076611924565b80611084575060005460ff16155b6110ac57604051600160e51b62461bcd0281526004016110a39061239e565b60405180910390fd5b600054610100900460ff161580156110d7576000805460ff1961ff0019909116610100171660011790555b603a80546001600160a01b03199081166001600160a01b038981169182179093556000908152603360205260409020805482168884161790556038805482168784161790556039859055603b80549091169184169190911790558015610de2576000805461ff0019169055505050505050565b6000826111595750600061118a565b8282028284828161116657fe5b041461118757604051600160e51b62461bcd0281526004016110a39061238e565b90505b92915050565b60008161119f575060006111f1565b8160006111ab8261192a565b905060708110156111c4578060700382901b91506111d7565b60708111156111d7576070810382901c91505b613fff0160701b6001600160701b03919091161760801b90505b919050565b600081815260356020526040812060020154600160d21b6513585c9ad95d02141561187a576000806112286000611190565b90506000806112376000611190565b905060005b60375481101561158e57866037828154811061125457fe5b9060005260206000200154141580156112bc57506000878152603560208190526040822054603780546001600160a01b0390921693918590811061129457fe5b600091825260208083209091015483528201929092526040019020546001600160a01b031614155b156115865760356000603783815481106112d257fe5b9060005260206000200154815260200190815260200160002060030154600160e81b62427579021480156113205750600087815260356020526040902060030154600160e21b6314d95b1b02145b1561144457611376603560006037848154811061133957fe5b6000918252602080832090910154835282810193909352604091820181206001908101548c835260359094529190200154608091821b911b6119cd565b60000b158061139b5750611394603560006037848154811061133957fe5b60000b6001145b1561143f576113dc60356000603784815481106113b457fe5b6000918252602080832090910154835282019290925260400190206001015460801b856119cd565b60000b6001141561143f5760356000603783815481106113f857fe5b9060005260206000200154815260200190815260200160002060010160009054906101000a900460801b93506037818154811061143157fe5b906000526020600020015494505b611586565b603560006037838154811061145557fe5b9060005260206000200154815260200190815260200160002060030154600160e21b6314d95b1b021480156114a35750600087815260356020526040902060030154600160e81b6242757902145b15611586576114bc603560006037848154811061133957fe5b60000b15806114e257506114da603560006037848154811061133957fe5b60000b600019145b156115865761152360356000603784815481106114fb57fe5b6000918252602080832090910154835282019290925260400190206001015460801b836119cd565b60000b6001141561158657603560006037838154811061153f57fe5b9060005260206000200154815260200190815260200160002060010160009054906101000a900460801b91506037818154811061157857fe5b906000526020600020015492505b60010161123c565b50600086815260356020526040902060030154600160e21b6314d95b1b02141561172257831561171d5760008681526035602052604080822060059081015487845291909220909101541061167a5760008681526035602052604080822060058082018054898652938520918201805494909403909355825492849055600160d21b65119a5b1b195902600480830182905583015581549054938a905260018201546003909201546039549394611661948c946001600160a01b03948516948c9493169260809190911b91889190611b16565b600160d21b65119a5b1b195902955050505050506111f1565b600084815260356020526040808220600580820180548b8652938520918201805494909403909355825493909255600160a21b6b14185c9d1b1e519a5b1b19590260048083018290558301558154905460018301546003909301546039546116fe948c946001600160a01b03908116948c9491169260809290921b91889190611b16565b600160a21b6b14185c9d1b1e519a5b1b195902955050505050506111f1565b611875565b600086815260356020526040902060030154600160e81b62427579021415611875578115611875576000868152603560205260408082206005908101548584529190922090910154106117f25760008681526035602052604080822060058082018054878652938520918201805494909403909355825492849055600160d21b65119a5b1b195902600480830182905583015554928990528054600182015460039092015460395493946116619488946001600160a01b03928316948e9493169260809190911b91889190611b16565b600082815260356020526040808220600580820180548b8652938520918201805494909403909355825493909255600160a21b6b14185c9d1b1e519a5b1b195902600480830182905583015554815460018301546003909301546039546116fe9488946001600160a01b03908116948e9491169260809290921b91889190611b16565b505050505b50600160e11b6327b832b702919050565b6000617fff6001600160801b03608084901c1660701c16613fff8110156118b65760009150506111f1565b6001607f1b8360801c6001600160801b0316106118d257600080fd5b6140fe8111156118e157600080fd5b600160701b6001600160701b03608085901c161761406f82101561190b5761406f8290031c61191d565b61406f82111561191d5761406e1982011b5b9392505050565b303b1590565b600080821161193857600080fd5b6000600160801b831061194d57608092831c92015b68010000000000000000831061196557604092831c92015b640100000000831061197957602092831c92015b62010000831061198b57601092831c92015b610100831061199c57600892831c92015b601083106119ac57600492831c92015b600483106119bc57600292831c92015b6002831061118a5760010192915050565b600060016001607f1b03608084901c16600160701b617fff028111156119f257600080fd5b60016001607f1b03608084901c16600160701b617fff02811115611a1557600080fd5b6001600160801b0319858116908516141580611a415750600160701b617fff02826001600160801b0316105b611a4a57600080fd5b6001600160801b03198581169085161415611a6a5760009250505061118a565b60006001607f1b8660801c6001600160801b03161015905060006001607f1b8660801c6001600160801b0316101590508115611ad5578015611ac657826001600160801b0316846001600160801b031611611ac6576001611aca565b6000195b94505050505061118a565b8015611ae857600194505050505061118a565b826001600160801b0316846001600160801b031611611b0957600019611aca565b600194505050505061118a565b6000600160e81b6242757902831415611b4e57600089815260356020526040902060010154611b479060801b61188b565b9050611b81565b82600160e21b6314d95b1b021415611b8157600087815260356020526040902060010154611b7e9060801b61188b565b90505b611b89611d1e565b60408051610140810182526001600160a01b03808c1682528981166020830152603a54169181019190915260608101611bc18861188b565b81526020808201859052603b54603a546001600160a01b0390811660009081526033909352604092839020548351600160e11b632fea5845028152939094019391811692635fd4b08a92611c19921690600401612339565b60206040518083038186803b158015611c3157600080fd5b505afa158015611c45573d6000803e3d6000fd5b505050506040513d601f19601f82011682018060405250611c699190810190611f21565b815260208101869052604080820186905260608201889052426080909201919091526038549051600160e01b63ca385a930281529192506001600160a01b03169063ca385a93906107509084908e908d906004016123cb565b6040805161016081018252600080825260208201819052918101829052606081018290526080810182905260a0810182905260c0810182905260e081018290526101008101829052610120810182905261014081019190915290565b6040805161014081018252600080825260208201819052918101829052606081018290526080810182905260a0810182905260c0810182905260e08101829052610100810182905261012081019190915290565b600061191d8235612452565b600061191d823561245d565b600061191d825161245d565b600082601f830112611da757600080fd5b8151611dba611db58261241d565b6123f6565b91508082526020830160208301858383011115611dd657600080fd5b611de183828461247d565b50505092915050565b600080600080600060a08688031215611e0257600080fd5b6000611e0e8888611d72565b9550506020611e1f88828901611d72565b9450506040611e3088828901611d72565b9350506060611e4188828901611d7e565b9250506080611e5288828901611d72565b9150509295509295909350565b600080600080600080600060e0888a031215611e7a57600080fd5b6000611e868a8a611d72565b9750506020611e978a828b01611d72565b9650506040611ea88a828b01611d7e565b9550506060611eb98a828b01611d7e565b9450506080611eca8a828b01611d7e565b93505060a0611edb8a828b01611d7e565b92505060c0611eec8a828b01611d7e565b91505092959891949750929550565b600060208284031215611f0d57600080fd5b6000611f198484611d7e565b949350505050565b600060208284031215611f3357600080fd5b6000611f198484611d8a565b600080600060608486031215611f5457600080fd5b6000611f608686611d7e565b9350506020611f7186828701611d7e565b9250506040611f8286828701611d7e565b9150509250925092565b60008060008060008060c08789031215611fa557600080fd5b6000611fb18989611d7e565b9650506020611fc289828a01611d7e565b9550506040611fd389828a01611d7e565b9450506060611fe489828a01611d7e565b9350506080611ff589828a01611d7e565b92505060a061200689828a01611d7e565b9150509295509295509295565b60006020828403121561202557600080fd5b815167ffffffffffffffff81111561203c57600080fd5b611f1984828501611d96565b6120518161246c565b82525050565b61205161206382612452565b6124a9565b61205181612452565b6120518161245d565b600061208582612445565b61208f8185612449565b935061209f81856020860161247d565b6120a8816124ba565b9093019392505050565b600160ba1b6810d85b98d95b1b1959029052565b60006120d3602183612449565b7f536166654d6174683a206d756c7469706c69636174696f6e206f766572666c6f8152600160f81b607702602082015260400192915050565b6000612119602e83612449565b7f436f6e747261637420696e7374616e63652068617320616c726561647920626581527f656e20696e697469616c697a6564000000000000000000000000000000000000602082015260400192915050565b805161016083019061217d8482612068565b5060208201516121906020850182612068565b5060408201516121a36040850182612071565b5060608201516121b66060850182612071565b5060808201516121c96080850182612071565b5060a08201516121dc60a0850182612071565b5060c08201516121ef60c0850182612071565b5060e082015161220260e0850182612071565b50610100820151612217610100850182612071565b5061012082015161222c610120850182612071565b50610140820151610f34610140850182612071565b80516101408301906122538482612068565b5060208201516122666020850182612068565b5060408201516122796040850182612068565b50606082015161228c6060850182612071565b50608082015161229f6080850182612071565b5060a08201516122b260a0850182612071565b5060c08201516122c560c0850182612071565b5060e08201516122d860e0850182612071565b506101008201516122ed610100850182612071565b50610120820151610f34610120850182612071565b61205161230e8261245d565b61245d565b600061231f8285612057565b60148201915061232f8284612302565b5060200192915050565b6020810161118a8284612068565b6020810161118a8284612048565b6020810161118a8284612071565b604081016123718284612071565b61118a602083016120b2565b6020808252810161191d818461207a565b6020808252810161118a816120c6565b6020808252810161118a8161210c565b61018081016123bd828561216b565b61191d610160830184612071565b61018081016123da8286612241565b6123e8610140830185612071565b611f19610160830184612071565b60405181810167ffffffffffffffff8111828210171561241557600080fd5b604052919050565b600067ffffffffffffffff82111561243457600080fd5b506020601f91909101601f19160190565b5190565b90815260200190565b600061118a82612460565b90565b6001600160a01b031690565b600061118a82600061118a82612452565b60005b83811015612498578181015183820152602001612480565b83811115610f345750506000910152565b600061118a82600061118a826124c4565b601f01601f191690565b60601b9056fea265627a7a7230582055366727f43b9e5a396e80f4d07d1b9a824557f40628c38e23f1d52d1a6bc2816c6578706572696d656e74616cf50037",
  "source": "// Maintains order pools\r\n// (c) Kallol Borah, 2021\r\n \r\npragma solidity 0.5.7;\r\npragma experimental ABIEncoderV2;\r\n\r\nimport \"@openzeppelin/upgrades/contracts/Initializable.sol\";\r\nimport \"@openzeppelin/contracts-ethereum-package/contracts/token/ERC20/IERC20.sol\";\r\nimport \"abdk-libraries-solidity/ABDKMathQuad.sol\";\r\nimport \"../interfaces/IOrderPool.sol\";\r\nimport \"../interfaces/ITrade.sol\";\r\nimport \"../interfaces/ViaCash.sol\";\r\nimport \"../interfaces/ViaFactory.sol\";\r\nimport \"../registry/Security.sol\";\r\nimport \"../utilities/StringUtils.sol\";\r\nimport \"@openzeppelin/contracts-ethereum-package/contracts/math/SafeMath.sol\";\r\n\r\ncontract OrderPool is Initializable, IOrderPool {\r\n\r\n    using ABDKMathQuad for uint256;\r\n    using ABDKMathQuad for int256;\r\n    using ABDKMathQuad for bytes16;\r\n\r\n    using stringutils for *;\r\n\r\n    using SafeMath for uint256;\r\n\r\n    //mapping security token to cash token pairs\r\n    mapping(address => address) private pair;\r\n\r\n    //security trading status\r\n    bool status = true;\r\n\r\n    struct order{\r\n        address party;\r\n        bytes16 price;\r\n        bytes16 trigger; \r\n        bytes32 otype;\r\n        bytes32 order;\r\n        bytes32 status;\r\n        uint256 qty;\r\n        uint dt;\r\n    }\r\n\r\n    mapping(bytes32 => order) private orders;\r\n\r\n    mapping(address => bytes32) private refs;\r\n\r\n    bytes32[] orderRefs;\r\n\r\n    //initialized \r\n    address trade;\r\n    bytes32 settlementType;\r\n    address security;\r\n    address factory;\r\n\r\n    function initialize(address _security, address _cash, address _trade, bytes32 _settlementType, address _viaFactory) public initializer{\r\n        security = _security;\r\n        pair[_security]=_cash;\r\n        trade = _trade;\r\n        settlementType = _settlementType;\r\n        factory = _viaFactory;\r\n    }\r\n\r\n    function newOrder(  address _security, \r\n                        address _cash, \r\n                        uint256 _price,\r\n                        uint256 _trigger, \r\n                        uint256 _qty, \r\n                        bytes32 _otype, \r\n                        bytes32 _order) external{\r\n        require(_otype==\"Market\" || _otype==\"Limit\" || _otype==\"StopLoss\");\r\n        require(_order==\"Buy\" || _order==\"Sell\");\r\n        require(pair[_security]==_cash);\r\n        if(_order==\"Buy\")\r\n            require(ViaCash(_cash).balanceOf(msg.sender)>=SafeMath.mul(_price, _qty));\r\n        else if(_order==\"Sell\")\r\n            require(IERC20(_security).balanceOf(msg.sender)>=_qty);\r\n        bytes32 ref = keccak256(abi.encodePacked(msg.sender, now));\r\n        refs[msg.sender]=ref;\r\n        orderRefs.push(ref);\r\n        orders[ref] = order(msg.sender, ABDKMathQuad.fromUInt(_price), ABDKMathQuad.fromUInt(_trigger), _otype, _order, \"Open\", _qty, now);\r\n        bytes32 s = matched(ref);\r\n        while(s==\"PartlyFilled\"){ \r\n            s = matched(ref);\r\n        }\r\n        if(s==\"Open\" || s==\"Filled\"){\r\n            ITrade.order memory orderNew = ITrade.order({\r\n                party : orders[ref].party,\r\n                security : security,\r\n                price : ABDKMathQuad.toUInt(orders[ref].price),\r\n                trigger : ABDKMathQuad.toUInt(orders[ref].trigger), \r\n                otype : orders[ref].otype,\r\n                order : orders[ref].order,\r\n                status : s,\r\n                currency : ViaFactory(factory).getName(pair[security]),\r\n                securityName : Security(security).name().stringToBytes32(),\r\n                qty : orders[ref].qty,\r\n                dt : orders[ref].dt\r\n            });\r\n            ITrade(trade).reportOrder(orderNew, ref);\r\n        }\r\n    }\r\n\r\n    function getOrderRef() external view returns(bytes32){\r\n        return refs[msg.sender];\r\n    }    \r\n\r\n    function cancelOrder(bytes32 ref) external {        \r\n        require(orders[ref].party==msg.sender);\r\n        for(uint i=0; i<orderRefs.length; i++){\r\n            if(orderRefs[i]==ref){\r\n                orders[orderRefs[i]].status=\"Cancelled\";\r\n                ITrade(trade).cancelOrder(ref, \"Cancelled\");\r\n            }\r\n        }\r\n    }   \r\n\r\n    function editOrder( bytes32 ref,\r\n                        uint256 _price,\r\n                        uint256 _trigger, \r\n                        uint256 _qty, \r\n                        bytes32 _otype,\r\n                        bytes32 _order) external {\r\n        require(_otype==\"Market\" || _otype==\"Limit\" || _otype==\"StopLoss\");\r\n        require(_order==\"Buy\" || _order==\"Sell\");\r\n        require(orders[ref].status==\"Open\");\r\n        if(_order==\"Buy\")\r\n            require(ViaCash(pair[security]).balanceOf(msg.sender)>=SafeMath.mul(_price, _qty));\r\n        else if(_order==\"Sell\")\r\n            require(IERC20(security).balanceOf(msg.sender)>=_qty);\r\n        if(orders[ref].party==msg.sender){\r\n            orders[ref] = order(msg.sender, ABDKMathQuad.fromUInt(_price), ABDKMathQuad.fromUInt(_trigger), _otype, _order, orders[ref].status, _qty, now);       \r\n            ITrade.order memory currentOrder = ITrade.order({\r\n                party : orders[ref].party,\r\n                security : security,\r\n                price : ABDKMathQuad.toUInt(orders[ref].price),\r\n                trigger : ABDKMathQuad.toUInt(orders[ref].trigger), \r\n                otype : orders[ref].otype,\r\n                order : orders[ref].order,\r\n                status : \"Open\",\r\n                currency : ViaFactory(factory).getName(pair[security]),\r\n                securityName : Security(security).name().stringToBytes32(),\r\n                qty : orders[ref].qty,\r\n                dt : orders[ref].dt\r\n            });\r\n            ITrade(trade).editOrder(currentOrder, ref);\r\n        }\r\n    }\r\n\r\n    function matched(bytes32 _ref) private returns(bytes32){\r\n        if(orders[_ref].otype==\"Market\"){\r\n            bytes32 bestBid;\r\n            bytes16 bestBidPrice = ABDKMathQuad.fromUInt(0);\r\n            bytes32 bestOffer;\r\n            bytes16 bestOfferPrice = ABDKMathQuad.fromUInt(0);\r\n            for(uint i=0; i<orderRefs.length; i++){\r\n                if(orderRefs[i]!=_ref && orders[orderRefs[i]].party!=orders[_ref].party){\r\n                    if(orders[orderRefs[i]].order==\"Buy\" && orders[_ref].order==\"Sell\"){\r\n                        if(ABDKMathQuad.cmp(orders[orderRefs[i]].price, orders[_ref].price)==0 ||\r\n                             ABDKMathQuad.cmp(orders[orderRefs[i]].price, orders[_ref].price)==1){\r\n                            if(ABDKMathQuad.cmp(orders[orderRefs[i]].price, bestBidPrice)==1){\r\n                                bestBidPrice = orders[orderRefs[i]].price;\r\n                                bestBid = orderRefs[i];\r\n                            }\r\n                        }\r\n                    }\r\n                    else if (orders[orderRefs[i]].order==\"Sell\" && orders[_ref].order==\"Buy\"){\r\n                        if(ABDKMathQuad.cmp(orders[orderRefs[i]].price, orders[_ref].price)==0 ||\r\n                            ABDKMathQuad.cmp(orders[orderRefs[i]].price, orders[_ref].price)==-1){\r\n                            if(ABDKMathQuad.cmp(orders[orderRefs[i]].price, bestOfferPrice)==1){\r\n                                bestOfferPrice = orders[orderRefs[i]].price;\r\n                                bestOffer = orderRefs[i];\r\n                            }\r\n                        }\r\n                    }\r\n                }\r\n            }\r\n            if(orders[_ref].order==\"Sell\"){\r\n                if(bestBid!=\"\"){\r\n                    if(orders[bestBid].qty >= orders[_ref].qty){\r\n                        orders[bestBid].qty = orders[bestBid].qty - orders[_ref].qty;\r\n                        uint qty = orders[_ref].qty;\r\n                        orders[_ref].qty = 0;\r\n                        orders[bestBid].status = \"Filled\";\r\n                        orders[_ref].status = \"Filled\";\r\n                        reportTrade(_ref, orders[_ref].party, bestBid, orders[bestBid].party, orders[_ref].price, qty, orders[_ref].order, settlementType);\r\n                        return \"Filled\";\r\n                    }\r\n                    else{\r\n                        orders[_ref].qty = orders[_ref].qty - orders[bestBid].qty;\r\n                        uint qty = orders[bestBid].qty;\r\n                        orders[bestBid].qty = 0;\r\n                        orders[bestBid].status = \"PartlyFilled\";\r\n                        orders[_ref].status = \"PartlyFilled\";\r\n                        reportTrade(_ref, orders[_ref].party, bestBid, orders[bestBid].party, orders[_ref].price, qty, orders[_ref].order, settlementType);\r\n                        return \"PartlyFilled\";\r\n                    }\r\n                }\r\n            }\r\n            else if(orders[_ref].order==\"Buy\"){\r\n                if(bestOffer!=\"\"){\r\n                    if(orders[bestOffer].qty >= orders[_ref].qty){\r\n                        orders[bestOffer].qty = orders[bestOffer].qty - orders[_ref].qty;\r\n                        uint qty = orders[_ref].qty;\r\n                        orders[_ref].qty = 0;\r\n                        orders[bestOffer].status = \"Filled\";\r\n                        orders[_ref].status = \"Filled\";\r\n                        reportTrade(bestOffer, orders[bestOffer].party, _ref, orders[_ref].party, orders[_ref].price, qty, orders[_ref].order, settlementType);\r\n                        return \"Filled\";\r\n                    }\r\n                    else{\r\n                        orders[_ref].qty = orders[_ref].qty - orders[bestOffer].qty;\r\n                        uint qty = orders[bestOffer].qty;\r\n                        orders[bestOffer].qty = 0;\r\n                        orders[bestOffer].status = \"PartlyFilled\";\r\n                        orders[_ref].status = \"PartlyFilled\";\r\n                        reportTrade(bestOffer, orders[bestOffer].party, _ref, orders[_ref].party, orders[_ref].price, qty, orders[_ref].order, settlementType);\r\n                        return \"PartlyFilled\";\r\n                    }\r\n                }\r\n            }\r\n        }\r\n        return \"Open\";\r\n    }\r\n\r\n    function reportTrade(bytes32 _pregRef,\r\n                        address _transferor, \r\n                        bytes32 _cpregRef,\r\n                        address _transferee, \r\n                        bytes16 _price,\r\n                        uint256 _qty,\r\n                        bytes32 _order,\r\n                        bytes32 _type) private {\r\n        uint256 _askprice = 0;\r\n        if(_order==\"Buy\"){\r\n            _askprice = ABDKMathQuad.toUInt(orders[_pregRef].price);\r\n        }\r\n        else if(_order==\"Sell\"){\r\n            _askprice = ABDKMathQuad.toUInt(orders[_cpregRef].price);\r\n        }\r\n        ITrade.trade memory newTrade = ITrade.trade({\r\n            transferor : _transferor,\r\n            transferee : _transferee,\r\n            security : security,\r\n            price : ABDKMathQuad.toUInt(_price),\r\n            askprice : _askprice,\r\n            currency : ViaFactory(factory).getName(pair[security]),\r\n            order : _order,\r\n            stype : _type,\r\n            qty : _qty,\r\n            dt : now\r\n        });\r\n        ITrade(trade).reportTrade(newTrade, _pregRef, _cpregRef);\r\n    }\r\n\r\n    function revertTrade(bytes32 _orderRef, uint256 _qty, bytes32 _order) external {\r\n        require(_order==\"Buy\" || _order==\"Sell\");\r\n        require(trade==msg.sender);\r\n        for(uint i=0; i<orderRefs.length; i++){\r\n            if( orderRefs[i]==_orderRef &&\r\n                orders[orderRefs[i]].order==_order){\r\n                    orders[orderRefs[i]].qty=orders[orderRefs[i]].qty+_qty;\r\n                    orders[orderRefs[i]].status=\"Open\";\r\n            }\r\n        }\r\n    }\r\n    \r\n}",
  "sourcePath": "D:\\Code\\verified-trades\\contracts\\pool\\OrderPool.sol",
  "compiler": {
    "name": "solc",
    "version": "0.5.7+commit.6da8b019.Emscripten.clang"
  },
  "schemaVersion": "3.4.3",
  "updatedAt": "2021-11-28T14:46:17.514Z",
  "networkType": "ethereum",
  "devdoc": {
    "methods": {}
  },
  "userdoc": {
    "methods": {}
  }
}