{
  "contractName": "OrderPool",
  "abi": [
    {
      "constant": false,
      "inputs": [
        {
          "name": "_security",
          "type": "address"
        },
        {
          "name": "_cash",
          "type": "address"
        },
        {
          "name": "_pretrade",
          "type": "address"
        },
        {
          "name": "_trade",
          "type": "address"
        },
        {
          "name": "_posttrade",
          "type": "address"
        },
        {
          "name": "_settlementType",
          "type": "bytes32"
        },
        {
          "name": "_viaFactory",
          "type": "address"
        },
        {
          "name": "_owner",
          "type": "address"
        }
      ],
      "name": "initialize",
      "outputs": [],
      "payable": false,
      "stateMutability": "nonpayable",
      "type": "function"
    },
    {
      "constant": false,
      "inputs": [
        {
          "name": "_security",
          "type": "address"
        },
        {
          "name": "_cash",
          "type": "address"
        },
        {
          "name": "_price",
          "type": "uint256"
        },
        {
          "name": "_qty",
          "type": "uint256"
        },
        {
          "name": "_otype",
          "type": "bytes32"
        },
        {
          "name": "_order",
          "type": "bytes32"
        }
      ],
      "name": "newOrder",
      "outputs": [],
      "payable": false,
      "stateMutability": "nonpayable",
      "type": "function"
    },
    {
      "constant": true,
      "inputs": [],
      "name": "getOrderRef",
      "outputs": [
        {
          "name": "",
          "type": "bytes32[]"
        }
      ],
      "payable": false,
      "stateMutability": "view",
      "type": "function"
    },
    {
      "constant": false,
      "inputs": [
        {
          "name": "ref",
          "type": "bytes32"
        },
        {
          "name": "_price",
          "type": "uint256"
        },
        {
          "name": "_qty",
          "type": "uint256"
        }
      ],
      "name": "editOrder",
      "outputs": [],
      "payable": false,
      "stateMutability": "nonpayable",
      "type": "function"
    },
    {
      "constant": false,
      "inputs": [
        {
          "name": "ref",
          "type": "bytes32"
        }
      ],
      "name": "cancelOrder",
      "outputs": [],
      "payable": false,
      "stateMutability": "nonpayable",
      "type": "function"
    },
    {
      "constant": false,
      "inputs": [
        {
          "name": "_orderRef",
          "type": "bytes32"
        },
        {
          "name": "_qty",
          "type": "uint256"
        },
        {
          "name": "_order",
          "type": "bytes32"
        }
      ],
      "name": "revertTrade",
      "outputs": [],
      "payable": false,
      "stateMutability": "nonpayable",
      "type": "function"
    },
    {
      "constant": false,
      "inputs": [
        {
          "name": "partyRef",
          "type": "bytes32"
        },
        {
          "name": "counterpartyRef",
          "type": "bytes32"
        }
      ],
      "name": "orderFilled",
      "outputs": [],
      "payable": false,
      "stateMutability": "nonpayable",
      "type": "function"
    }
  ],
  "bytecode": "0x608060405260348054600160ff199091161790556200002b600062000095602090811b620015ff17901c565b604360006101000a8154816001600160801b03021916908360801c02179055506200006260006200009560201b620015ff1760201c565b604580546001600160801b03191660809290921c91909117905560006046553480156200008e57600080fd5b50620001c3565b600081620000a65750600062000104565b816000620000bb8262000109602090811b901c565b90506070811015620000d6578060700382901b9150620000ea565b6070811115620000ea576070810382901c91505b613fff0160701b6001600160701b03919091161760801b90505b919050565b60008082116200011857600080fd5b600070010000000000000000000000000000000083106200013b57608092831c92015b6801000000000000000083106200015457604092831c92015b64010000000083106200016957602092831c92015b6201000083106200017c57601092831c92015b61010083106200018e57600892831c92015b601083106200019f57600492831c92015b60048310620001b057600292831c92015b60028310620001bd576001015b92915050565b612fd480620001d36000396000f3fe608060405234801561001057600080fd5b506004361061007d5760003560e01c80631f0404801161005b5780631f040480146100bd57806346b8b730146100d05780637489ec23146100ee5780638451ab0d146101015761007d565b8063061dc96b146100825780630c8605be1461009757806313ce4546146100aa575b600080fd5b610095610090366004612928565b610114565b005b6100956100a5366004612ad5565b610229565b6100956100b8366004612a9b565b610899565b6100956100cb366004612ad5565b610a83565b6100d8610b21565b6040516100e59190612e1b565b60405180910390f35b6100956100fc366004612a5f565b610b82565b61009561010f3660046129d8565b610de6565b600054610100900460ff168061012d575061012d6115b3565b8061013b575060005460ff16155b61016357604051600160e51b62461bcd02815260040161015a90612e68565b60405180910390fd5b600054610100900460ff1615801561018e576000805460ff1961ff0019909116610100171660011790555b604b80546001600160a01b03199081166001600160a01b038c81169182179093556000908152603360205260409020805482168b84161790556047805482168a8416179055604880548216898416179055604980548216888416179055604a869055604c80548216868416179055604d8054909116918416919091179055801561021e576000805461ff00191690555b505050505050505050565b604754604051600160e01b63e0a87de10281526001600160a01b039091169063e0a87de19061025c903390600401612e0d565b60206040518083038186803b15801561027457600080fd5b505afa158015610288573d6000803e3d6000fd5b505050506040513d601f19601f820116820180604052506102ac9190810190612a7d565b6102b557600080fd5b600083815260366020526040902060030154600160e11b6327b832b702146102dc57600080fd5b600083815260366020526040902060020154600160e81b624275790214156103ad5761030882826115b9565b604b546001600160a01b0390811660009081526033602052604090819020549051600160e01b6370a082310281529116906370a082319061034d903390600401612e0d565b60206040518083038186803b15801561036557600080fd5b505afa158015610379573d6000803e3d6000fd5b505050506040513d601f19601f8201168201806040525061039d9190810190612a7d565b10156103a857600080fd5b61045e565b600083815260366020526040902060020154600160e21b6314d95b1b02141561045e57604b54604051600160e01b6370a0823102815282916001600160a01b0316906370a0823190610403903390600401612e0d565b60206040518083038186803b15801561041b57600080fd5b505afa15801561042f573d6000803e3d6000fd5b505050506040513d601f19601f820116820180604052506104539190810190612a7d565b101561045e57600080fd5b6000838152603660205260409020600601546001600160a01b031633141561089457610489826115ff565b60008481526036602052604090206007810180546001600160801b03191660809390931c9290921790915560048101829055426005909101556104ca61282a565b604080516101408101825260008681526036602081815284832060068101546001600160a01b039081168652604b54168286015292899052526007015490918201906105189060801b611665565b815260008681526036602090815260408083206001810154838601526002015481850152600160e11b6327b832b7026060850152604c54604b546001600160a01b039081168552603390935292819020549051600160e11b632fea584502815260809094019392821692635fd4b08a92610596921690600401612dff565b60206040518083038186803b1580156105ae57600080fd5b505afa1580156105c2573d6000803e3d6000fd5b505050506040513d601f19601f820116820180604052506105e69190810190612a7d565b8152602001604b60009054906101000a90046001600160a01b03166001600160a01b03166306fdde036040518163ffffffff1660e01b815260040160006040518083038186803b15801561063957600080fd5b505afa15801561064d573d6000803e3d6000fd5b505050506040513d6000823e601f3d908101601f191682016040526106759190810190612b22565b604051600160e31b6319f6a32502815273__stringutils___________________________9163cfb51928916106ae9190600401612e47565b60206040518083038186803b1580156106c657600080fd5b505af41580156106da573d6000803e3d6000fd5b505050506040513d601f19601f820116820180604052506106fe9190810190612a7d565b8152600086815260366020818152604080842060048082015484880152948b905292909152600590910154928101929092526048549151600160e01b6365678bfd0281529293506001600160a01b03909116916365678bfd91610765918591899101612e78565b600060405180830381600087803b15801561077f57600080fd5b505af1158015610793573d6000803e3d6000fd5b505050600085815260366020526040902060010154600160d21b6513585c9ad95d02141590506107e9576000848152603660209081526040808320548352603a90915290208490556107e4846116fe565b610892565b600084815260366020526040902060010154600160da1b64131a5b5a5d02141561083c576000848152603660209081526040808320548352603c90915290208490556107e4610837846115ff565b611ed9565b600084815260366020526040902060010154600160c01b6753746f704c6f7373021415610892576000848152603660209081526040808320548352603f909152902084905561089261088d846115ff565b6120eb565b505b505050565b6048546001600160a01b03163314806108bc57506049546001600160a01b031633145b6108c557600080fd5b6000828152603660209081526040808320600601546001600160a01b03168352603882528083208584526039909252909120548154811061090257fe5b600091825260208083209091018290558382526039815260408083208390556036825280832083815560018101849055600281018490556003810184905560048101849055600581018490556006810180546001600160a01b031916905560070180546001600160801b0319169055603790915290205460358054909190811061098857fe5b6000918252602080832090910182905583825260378152604080832083905583835260368252808320600601546001600160a01b0316835260388252808320848452603990925290912054815481106109dd57fe5b600091825260208083209091018290558282526039815260408083208390556036825280832083815560018101849055600281018490556003810184905560048101849055600581018490556006810180546001600160a01b031916905560070180546001600160801b03191690556037909152902054603580549091908110610a6357fe5b600091825260208083209091018290559181526037909152604081205550565b80600160e81b62427579021480610aa3575080600160e21b6314d95b1b02145b610aac57600080fd5b6048546001600160a01b0316331480610acf57506049546001600160a01b031633145b610ad857600080fd5b506000828152603660209081526040808320600481018054909501909455600160e11b6327b832b702600385015560355493849055928252603a90522055603b80546001019055565b33600090815260386020908152604091829020805483518184028101840190945280845260609392830182828015610b7857602002820191906000526020600020905b815481526020019060010190808311610b64575b5050505050905090565b604754604051600160e01b63e0a87de10281526001600160a01b039091169063e0a87de190610bb5903390600401612e0d565b60206040518083038186803b158015610bcd57600080fd5b505afa158015610be1573d6000803e3d6000fd5b505050506040513d601f19601f82011682018060405250610c059190810190612a7d565b610c0e57600080fd5b6000818152603660205260409020600601546001600160a01b03163314610c3457600080fd5b600081815260366020526040902060030154600160e11b6327b832b70214610c5b57600080fd5b600081815260366020908152604080832080548452603a835281842084905580548452603d835281842084905580548452603c83528184208490558054845281835281842084905580548452603f835281842084905584845283815560018101849055600281018490556003810184905560048101849055600581018490556006810180546001600160a01b031916905560070180546001600160801b03191690556037909152902054603580549091908110610d1457fe5b600091825260208083209091018290558282526037815260408083208390553383526038825280832084845260399092529091205481548110610d5357fe5b60009182526020808320909101829055828252603981526040808320839055604854603690925291829020600301549151600160e01b63a47d9d330281526001600160a01b039091169163a47d9d3391610db1918591600401612e2c565b600060405180830381600087803b158015610dcb57600080fd5b505af1158015610ddf573d6000803e3d6000fd5b5050505050565b604754604051600160e01b63e0a87de10281526001600160a01b039091169063e0a87de190610e19903390600401612e0d565b60206040518083038186803b158015610e3157600080fd5b505afa158015610e45573d6000803e3d6000fd5b505050506040513d601f19601f82011682018060405250610e699190810190612a7d565b151580610efd5750604d5460408051600160e31b631127a41d02815290516001600160a01b0390921691339163893d20e8916004808301926020929190829003018186803b158015610eba57600080fd5b505afa158015610ece573d6000803e3d6000fd5b505050506040513d601f19601f82011682018060405250610ef29190810190612902565b6001600160a01b0316145b610f0657600080fd5b81600160d21b6513585c9ad95d021480610f2a575081600160da1b64131a5b5a5d02145b80610f42575081600160c01b6753746f704c6f737302145b610f4b57600080fd5b80600160e81b62427579021480610f6b575080600160e21b6314d95b1b02145b610f7457600080fd5b6001600160a01b03868116600090815260336020526040902054811690861614610f9d57600080fd5b80600160e81b6242757902141561104757610fb884846115b9565b604051600160e01b6370a082310281526001600160a01b038716906370a0823190610fe7903390600401612e0d565b60206040518083038186803b158015610fff57600080fd5b505afa158015611013573d6000803e3d6000fd5b505050506040513d601f19601f820116820180604052506110379190810190612a7d565b101561104257600080fd5b6110e5565b80600160e21b6314d95b1b0214156110e557604051600160e01b6370a0823102815283906001600160a01b038816906370a082319061108a903390600401612e0d565b60206040518083038186803b1580156110a257600080fd5b505afa1580156110b6573d6000803e3d6000fd5b505050506040513d601f19601f820116820180604052506110da9190810190612a7d565b10156110e557600080fd5b600033426040516020016110fa929190612dd9565b60408051601f19818403018152918152815160209283012060008181526036909352912060060180546001600160a01b03191633179055905061113c856115ff565b60008281526036602090815260408083206007810180546001600160801b03191660809690961c9590951790945560358054855560048501899055600285018790556001808601899055426005870155600160e11b6327b832b7026003909601959095558054603784528285208190558086019091557fcfa4bec1d3298408bb5afcfcd9c430549c5b31f8aa5c5848151c0a55f473c34d018590553383526038808352818420805487865260398552928520839055908352938101845592825290200181905561120a61282a565b604080516101408101825260008481526036602081815284832060068101546001600160a01b039081168652604b54168286015292879052526007015490918201906112589060801b611665565b81526000848152603660209081526040808320600181015483860152600281015482860152600301546060850152604c54604b546001600160a01b039081168552603390935292819020549051600160e11b632fea584502815260809094019392821692635fd4b08a926112d0921690600401612dff565b60206040518083038186803b1580156112e857600080fd5b505afa1580156112fc573d6000803e3d6000fd5b505050506040513d601f19601f820116820180604052506113209190810190612a7d565b8152602001604b60009054906101000a90046001600160a01b03166001600160a01b03166306fdde036040518163ffffffff1660e01b815260040160006040518083038186803b15801561137357600080fd5b505afa158015611387573d6000803e3d6000fd5b505050506040513d6000823e601f3d908101601f191682016040526113af9190810190612b22565b604051600160e31b6319f6a32502815273__stringutils___________________________9163cfb51928916113e89190600401612e47565b60206040518083038186803b15801561140057600080fd5b505af4158015611414573d6000803e3d6000fd5b505050506040513d601f19601f820116820180604052506114389190810190612a7d565b81526000848152603660208181526040808420600480820154848801529489905292909152600590910154928101929092526048549151600160e01b63fcfd88e90281529293506001600160a01b039091169163fcfd88e99161149f918591879101612e78565b600060405180830381600087803b1580156114b957600080fd5b505af11580156114cd573d6000803e3d6000fd5b5050505083600160d21b6513585c9ad95d02141561151a576000828152603660209081526040808320548352603a9091529020829055603b80546001019055611515826116fe565b6115a9565b83600160da1b64131a5b5a5d021415611560576000828152603660209081526040808320548352603c9091529020829055603e80546001019055611515610837876115ff565b83600160c01b6753746f704c6f73730214156115a9576000828152603660209081526040808320548352603f90915290208290556041805460010190556115a961088d876115ff565b5050505050505050565b303b1590565b6000826115c8575060006115f9565b828202828482816115d557fe5b04146115f657604051600160e51b62461bcd02815260040161015a90612e58565b90505b92915050565b60008161160e57506000611660565b81600061161a826122fb565b90506070811015611633578060700382901b9150611646565b6070811115611646576070810382901c91505b613fff0160701b6001600160701b03919091161760801b90505b919050565b6000617fff6001600160801b03608084901c1660701c16613fff811015611690576000915050611660565b6001607f1b8360801c6001600160801b0316106116ac57600080fd5b6140fe8111156116bb57600080fd5b600160701b6001600160701b03608085901c161761406f8210156116e55761406f8290031c6116f7565b61406f8211156116f75761406e1982011b5b9392505050565b60005b603b54811015611ab2576000818152603a6020526040902054821480159061176357506000828152603660208181526040808420600690810154868652603a845282862054865293909252909220909101546001600160a01b03908116911614155b801561179957506000818152603a602090815260408083205483526036909152902060030154600160d21b65119a5b1b19590214155b15611aaa576000818152603a602090815260408083205483526036909152902060020154600160e81b62427579021480156117ee5750600082815260366020526040902060020154600160e21b6314d95b1b02145b15611926576000818152603a602090815260408083205483526036909152808220600790810154858452919092209091015461183191608090811b91901b61239e565b60000b158061188057506000818152603a602090815260408083205483526036909152808220600790810154858452919092209091015461187991608090811b91901b61239e565b60000b6001145b15611921576000818152603a6020908152604080832054835260369091529020600701546043546118b891608090811b91901b61239e565b60000b60011415611921576000818152603a602090815260408083205483526036909152902060070154604380546001600160801b031916608092831b90921c919091179055603580548290811061190c57fe5b60009182526020909120015460425560468190555b611aaa565b6000818152603a602090815260408083205483526036909152902060020154600160e21b6314d95b1b021480156119765750600082815260366020526040902060020154600160e81b6242757902145b15611aaa576000818152603a60209081526040808320548352603690915280822060079081015485845291909220909101546119b991608090811b91901b61239e565b60000b1580611a0957506000818152603a6020908152604080832054835260369091528082206007908101548584529190922090910154611a0191608090811b91901b61239e565b60000b600019145b15611aaa576000818152603a602090815260408083205483526036909152902060070154604554611a4191608090811b91901b61239e565b60000b60011415611aaa576000818152603a602090815260408083205483526036909152902060070154604580546001600160801b031916608092831b90921c9190911790556035805482908110611a9557fe5b60009182526020909120015460445560468190555b600101611701565b50600081815260366020526040902060020154600160e21b6314d95b1b021415611cc95760425415611cc4576000818152603660205260408082206004908101546042548452919092209091015410611bcf5760008181526036602052604080822060048082018054604280548752858720909301805491909103905580549085905581548552838520600160a21b6b14185c9d1b1e519a5b1b195902600391820155600160d21b65119a5b1b1959029084015560068084015492548087529486200154948690526007830154600290930154604a549195611bb19588956001600160a01b03958616959194919092169260809290921b9188916124e7565b611bc9604654600160d21b651b585c9ad95d026126d1565b50611c88565b604280546000908152603660205260408082206004908101548584528284208083018054929092039091558454845282842090910180549084905584548452828420600160d21b65119a5b1b195902600391820155600160a21b6b14185c9d1b1e519a5b1b1959029083015560068083015495548086529385200154938690526007820154600290920154604a549195611c869588956001600160a01b03928316959094919092169260809290921b9188916124e7565b505b600081815260366020526040902060070154611ca69060801b611ed9565b600081815260366020526040902060070154611cc49060801b6120eb565b611ed6565b600081815260366020526040902060020154600160e81b62427579021415611ed65760445415611ed6576000818152603660205260408082206004908101546044548452919092209091015410611de45760008181526036602052604080822060048082018054604480548752858720909301805491909103905580549085905581548552838520600160a21b6b14185c9d1b1e519a5b1b195902600391820155600160d21b65119a5b1b195902908401559054808552928420600690810154948690528201546007830154600290930154604a549295611dc695946001600160a01b039182169489949092169260809190911b918891906124e7565b611dde604654600160d21b651b585c9ad95d026126d1565b50611e9a565b604480546000908152603660205260408082206004908101548584528284208083018054929092039091558454845282842090910180549084905584548452828420600160d21b65119a5b1b195902600391820155600160a21b6b14185c9d1b1e519a5b1b195902908301559354808452918320600690810154938690528101546007820154600290920154604a54611e98956001600160a01b039081169489949091169260809190911b918891906124e7565b505b600081815260366020526040902060070154611eb89060801b611ed9565b600081815260366020526040902060070154611ed69060801b6120eb565b50565b6000805b603e54811015610894576000818152603c602090815260408083205483526036909152902060020154600160e81b6242757902148015611f4d57506000818152603c6020908152604080832054835260369091529020600701546001600160801b031980851660809290921b1610155b8015611f8357506000818152603c602090815260408083205483526036909152902060030154600160d21b65119a5b1b19590214155b15611fe7576000818152603c60208181526040808420805480865260368452828620548652603a845291852091909155603b805460010190559284905252549150611fd981600160da1b641b1a5b5a5d026126d1565b611fe2826116fe565b6120e3565b6000818152603c602090815260408083205483526036909152902060020154600160e21b6314d95b1b0214801561204e57506000818152603c6020908152604080832054835260369091529020600701546001600160801b031980851660809290921b1611155b801561208457506000818152603c602090815260408083205483526036909152902060030154600160d21b65119a5b1b19590214155b156120e3576000818152603c60208181526040808420805480865260368452828620548652603a845291852091909155603b8054600101905592849052525491506120da81600160da1b641b1a5b5a5d026126d1565b6120e3826116fe565b600101611edd565b6000805b604154811015610894576000818152603f602090815260408083205483526036909152902060020154600160e81b624275790214801561215f57506000818152603f6020908152604080832054835260369091529020600701546001600160801b031980851660809290921b1611155b801561219557506000818152603f602090815260408083205483526036909152902060030154600160d21b65119a5b1b19590214155b156121f8576000818152603f60208181526040808420805480865260368452828620548652603a845291852091909155603b8054600101905592849052525491506121ea81600160e41b63073746f7026126d1565b6121f3826116fe565b6122f3565b6000818152603f602090815260408083205483526036909152902060020154600160e21b6314d95b1b0214801561225f57506000818152603f6020908152604080832054835260369091529020600701546001600160801b031980851660809290921b1610155b801561229557506000818152603f602090815260408083205483526036909152902060030154600160d21b65119a5b1b19590214155b156122f3576000818152603f60208181526040808420805480865260368452828620548652603a845291852091909155603b8054600101905592849052525491506122ea81600160e41b63073746f7026126d1565b6122f3826116fe565b6001016120ef565b600080821161230957600080fd5b6000600160801b831061231e57608092831c92015b68010000000000000000831061233657604092831c92015b640100000000831061234a57602092831c92015b62010000831061235c57601092831c92015b610100831061236d57600892831c92015b6010831061237d57600492831c92015b6004831061238d57600292831c92015b600283106115f95760010192915050565b600060016001607f1b03608084901c16600160701b617fff028111156123c357600080fd5b60016001607f1b03608084901c16600160701b617fff028111156123e657600080fd5b6001600160801b03198581169085161415806124125750600160701b617fff02826001600160801b0316105b61241b57600080fd5b6001600160801b0319858116908516141561243b576000925050506115f9565b60006001607f1b8660801c6001600160801b03161015905060006001607f1b8660801c6001600160801b03161015905081156124a657801561249757826001600160801b0316846001600160801b03161161249757600161249b565b6000195b9450505050506115f9565b80156124b95760019450505050506115f9565b826001600160801b0316846001600160801b0316116124da5760001961249b565b60019450505050506115f9565b6000600160e81b624275790283141561251f576000898152603660205260409020600701546125189060801b611665565b9050612552565b82600160e21b6314d95b1b0214156125525760008781526036602052604090206007015461254f9060801b611665565b90505b61255a61282a565b60408051610140810182526001600160a01b03808c1682528981166020830152604b5416918101919091526060810161259288611665565b81526020808201859052604c54604b546001600160a01b0390811660009081526033909352604092839020548351600160e11b632fea5845028152939094019391811692635fd4b08a926125ea921690600401612dff565b60206040518083038186803b15801561260257600080fd5b505afa158015612616573d6000803e3d6000fd5b505050506040513d601f19601f8201168201806040525061263a9190810190612a7d565b815260208101869052604080820186905260608201889052426080909201919091526048549051600160e01b63ca385a930281529192506001600160a01b03169063ca385a93906126939084908e908d90600401612e95565b600060405180830381600087803b1580156126ad57600080fd5b505af11580156126c1573d6000803e3d6000fd5b5050505050505050505050505050565b80600160d21b651b585c9ad95d02141561274557815b603b54811015612735576001603b5403811415612712576000838152603a602052604081205561272d565b600183016000908152603a6020526040808220548583529120555b6001016126e7565b50603b8054600019019055612826565b80600160da1b641b1a5b5a5d0214156127b857815b603e548110156127a8576001603e5403811415612785576000838152603c60205260408120556127a0565b600183016000908152603c6020526040808220548583529120555b60010161275a565b50603e8054600019019055612826565b80600160e41b63073746f702141561282657815b60415481101561281a576001604154038114156127f7576000838152603f6020526040812055612812565b600183016000908152603f6020526040808220548583529120555b6001016127cc565b50604180546000190190555b5050565b6040805161014081018252600080825260208201819052918101829052606081018290526080810182905260a0810182905260c0810182905260e08101829052610100810182905261012081019190915290565b60006116f78235612f22565b60006116f78251612f22565b60006116f78235612f2d565b60006116f78251612f2d565b600082601f8301126128bf57600080fd5b81516128d26128cd82612ee7565b612ec0565b915080825260208301602083018583830111156128ee57600080fd5b6128f9838284612f4d565b50505092915050565b60006020828403121561291457600080fd5b6000612920848461288a565b949350505050565b600080600080600080600080610100898b03121561294557600080fd5b60006129518b8b61287e565b98505060206129628b828c0161287e565b97505060406129738b828c0161287e565b96505060606129848b828c0161287e565b95505060806129958b828c0161287e565b94505060a06129a68b828c01612896565b93505060c06129b78b828c0161287e565b92505060e06129c88b828c0161287e565b9150509295985092959890939650565b60008060008060008060c087890312156129f157600080fd5b60006129fd898961287e565b9650506020612a0e89828a0161287e565b9550506040612a1f89828a01612896565b9450506060612a3089828a01612896565b9350506080612a4189828a01612896565b92505060a0612a5289828a01612896565b9150509295509295509295565b600060208284031215612a7157600080fd5b60006129208484612896565b600060208284031215612a8f57600080fd5b600061292084846128a2565b60008060408385031215612aae57600080fd5b6000612aba8585612896565b9250506020612acb85828601612896565b9150509250929050565b600080600060608486031215612aea57600080fd5b6000612af68686612896565b9350506020612b0786828701612896565b9250506040612b1886828701612896565b9150509250925092565b600060208284031215612b3457600080fd5b815167ffffffffffffffff811115612b4b57600080fd5b612920848285016128ae565b6000612b638383612be9565b505060200190565b612b7481612f3c565b82525050565b612b74612b8682612f22565b612f79565b612b7481612f22565b6000612b9f82612f15565b612ba98185612f19565b9350612bb483612f0f565b60005b82811015612bdf57612bca868351612b57565b9550612bd582612f0f565b9150600101612bb7565b5093949350505050565b612b7481612f2d565b6000612bfd82612f15565b612c078185612f19565b9350612c17818560208601612f4d565b612c2081612f8a565b9093019392505050565b6000612c37602183612f19565b7f536166654d6174683a206d756c7469706c69636174696f6e206f766572666c6f8152600160f81b607702602082015260400192915050565b6000612c7d602e83612f19565b7f436f6e747261637420696e7374616e63652068617320616c726561647920626581527f656e20696e697469616c697a6564000000000000000000000000000000000000602082015260400192915050565b8051610140830190612ce18482612b8b565b506020820151612cf46020850182612b8b565b506040820151612d076040850182612be9565b506060820151612d1a6060850182612be9565b506080820151612d2d6080850182612be9565b5060a0820151612d4060a0850182612be9565b5060c0820151612d5360c0850182612be9565b5060e0820151612d6660e0850182612be9565b50610100820151612d7b610100850182612be9565b50610120820151610892610120850182612be9565b8051610140830190612da28482612b8b565b506020820151612db56020850182612b8b565b506040820151612d076040850182612b8b565b612b74612dd482612f2d565b612f2d565b6000612de58285612b7a565b601482019150612df58284612dc8565b5060200192915050565b602081016115f98284612b8b565b602081016115f98284612b6b565b602080825281016116f78184612b94565b60408101612e3a8285612be9565b6116f76020830184612be9565b602080825281016116f78184612bf2565b602080825281016115f981612c2a565b602080825281016115f981612c70565b6101608101612e878285612ccf565b6116f7610140830184612be9565b6101808101612ea48286612d90565b612eb2610140830185612be9565b612920610160830184612be9565b60405181810167ffffffffffffffff81118282101715612edf57600080fd5b604052919050565b600067ffffffffffffffff821115612efe57600080fd5b506020601f91909101601f19160190565b60200190565b5190565b90815260200190565b60006115f982612f30565b90565b6001600160a01b031690565b60006115f98260006115f982612f22565b60005b83811015612f68578181015183820152602001612f50565b838111156108925750506000910152565b60006115f98260006115f982612f94565b601f01601f191690565b60601b9056fea265627a7a723058208f3ad333ea3e68ce9cc91d4805ee35c1edefef6710bcedee050b3c150bc9f75d6c6578706572696d656e74616cf50037",
  "source": "// Maintains order pools\r\n// (c) Kallol Borah, 2021\r\n \r\npragma solidity 0.5.7;\r\npragma experimental ABIEncoderV2;\r\n\r\nimport \"@openzeppelin/upgrades/contracts/Initializable.sol\";\r\nimport \"@openzeppelin/contracts-ethereum-package/contracts/token/ERC20/IERC20.sol\";\r\nimport \"abdk-libraries-solidity/ABDKMathQuad.sol\";\r\nimport \"../interfaces/IOrderPool.sol\";\r\nimport \"../interfaces/ITrade.sol\";\r\nimport \"../interfaces/IPreTrade.sol\";\r\nimport \"../interfaces/ViaCash.sol\";\r\nimport \"../interfaces/ViaFactory.sol\";\r\nimport \"../interfaces/VerifiedIssues.sol\";\r\nimport \"../registry/Security.sol\";\r\nimport \"../utilities/StringUtils.sol\";\r\nimport \"@openzeppelin/contracts-ethereum-package/contracts/math/SafeMath.sol\";\r\n\r\ncontract OrderPool is Initializable, IOrderPool {\r\n\r\n    using ABDKMathQuad for uint256;\r\n    using ABDKMathQuad for int256;\r\n    using ABDKMathQuad for bytes16;\r\n\r\n    using stringutils for *;\r\n    using SafeMath for uint256;\r\n\r\n    //mapping security token to cash token pairs\r\n    mapping(address => address) private pair;\r\n\r\n    //security trading status\r\n    bool status = true;\r\n\r\n    //order references\r\n    bytes32[] private orderRefs;\r\n\r\n    //mapping order reference to order\r\n    mapping(bytes32 => IOrderPool.order) private orders;\r\n\r\n    //mapping order reference to position\r\n    mapping(bytes32 => uint256) private orderIndex;\r\n\r\n    //mapping users to order references\r\n    mapping(address => bytes32[]) private userOrderRefs;\r\n\r\n    //mapping user's order reference to positions\r\n    mapping(bytes32 => uint256) private userOrderIndex;\r\n\r\n    //mapping market order no to order reference\r\n    mapping(uint256 => bytes32) private marketOrders;\r\n\r\n    uint256 marketOrderbook;\r\n\r\n    //mapping limit order no to order reference\r\n    mapping(uint256 => bytes32) private limitOrders;\r\n\r\n    //mapping of limit to market order\r\n    mapping(uint256 => uint256) private limitMarket;\r\n\r\n    uint256 limitOrderbook;\r\n\r\n    //mapping stop order no to order reference\r\n    mapping(uint256 => bytes32) private stopOrders;\r\n\r\n    //mapping of stop to market order\r\n    mapping(uint256 => uint256) private stopMarket;\r\n\r\n    uint256 stopOrderbook;\r\n\r\n    //order matching related\r\n    bytes32 bestBid;\r\n    bytes16 bestBidPrice = ABDKMathQuad.fromUInt(0);\r\n    bytes32 bestOffer;\r\n    bytes16 bestOfferPrice = ABDKMathQuad.fromUInt(0);\r\n    uint256 bidIndex = 0;\r\n\r\n    //initialized \r\n    address pretrade;\r\n    address trade;\r\n    address posttrade;\r\n    bytes32 settlementType;\r\n    address security;\r\n    address factory;\r\n    address owner;\r\n\r\n    function initialize(address _security, address _cash, address _pretrade, address _trade, address _posttrade, bytes32 _settlementType, address _viaFactory, address _owner) public initializer{\r\n        security = _security;\r\n        pair[_security]=_cash;\r\n        pretrade = _pretrade;\r\n        trade = _trade;\r\n        posttrade = _posttrade;\r\n        settlementType = _settlementType;\r\n        factory = _viaFactory;\r\n        owner = _owner;\r\n    }\r\n\r\n    function newOrder(  address _security, \r\n                        address _cash, \r\n                        uint256 _price,\r\n                        uint256 _qty, \r\n                        bytes32 _otype, \r\n                        bytes32 _order) external{\r\n        require(IPreTrade(pretrade).getDP(msg.sender)!=\"\" || VerifiedIssues(msg.sender).getOwner()==owner);\r\n        require(_otype==\"Market\" || _otype==\"Limit\" || _otype==\"StopLoss\");\r\n        require(_order==\"Buy\" || _order==\"Sell\");\r\n        require(pair[_security]==_cash);\r\n        if(_order==\"Buy\")\r\n            require(ViaCash(_cash).balanceOf(msg.sender)>=SafeMath.mul(_price, _qty));\r\n        else if(_order==\"Sell\")\r\n            require(IERC20(_security).balanceOf(msg.sender)>=_qty);\r\n        bytes32 ref = keccak256(abi.encodePacked(msg.sender, now));\r\n        //fill up order details\r\n        orders[ref].party = msg.sender;\r\n        orders[ref].price = ABDKMathQuad.fromUInt(_price);\r\n        orders[ref].orderno = orderRefs.length;\r\n        orders[ref].qty = _qty;\r\n        orders[ref].order = _order; \r\n        orders[ref].otype = _otype;\r\n        orders[ref].dt = now;\r\n        orders[ref].status = \"Open\";\r\n        //fill up indexes\r\n        orderIndex[ref] = orderRefs.length;\r\n        orderRefs.push(ref);\r\n        userOrderIndex[ref] = userOrderRefs[msg.sender].length;\r\n        userOrderRefs[msg.sender].push(ref);\r\n        //report order\r\n        ITrade.order memory orderNew = ITrade.order({\r\n            party : orders[ref].party,\r\n            security : security,\r\n            price : ABDKMathQuad.toUInt(orders[ref].price),\r\n            otype : orders[ref].otype,\r\n            order : orders[ref].order,\r\n            status : orders[ref].status,\r\n            currency : ViaFactory(factory).getName(pair[security]),\r\n            securityName : Security(security).name().stringToBytes32(),\r\n            qty : orders[ref].qty,\r\n            dt : orders[ref].dt\r\n        });\r\n        ITrade(trade).reportOrder(orderNew, ref);\r\n        if(_otype==\"Market\"){\r\n            marketOrders[orders[ref].orderno] = ref;\r\n            marketOrderbook = marketOrderbook + 1;\r\n            matchOrders(ref);\r\n        }\r\n        else if(_otype==\"Limit\"){\r\n            limitOrders[orders[ref].orderno] = ref;\r\n            limitOrderbook = limitOrderbook + 1;\r\n            checkLimitOrders(ABDKMathQuad.fromUInt(_price));\r\n        }\r\n        else if(_otype==\"StopLoss\"){\r\n            stopOrders[orders[ref].orderno] = ref;\r\n            stopOrderbook = stopOrderbook + 1;\r\n            checkStopOrders(ABDKMathQuad.fromUInt(_price));\r\n        }\r\n    }\r\n\r\n    function getOrderRef() external view returns(bytes32[] memory){\r\n        return userOrderRefs[msg.sender];\r\n    }\r\n\r\n    function editOrder( bytes32 ref,\r\n                        uint256 _price,\r\n                        uint256 _qty) external {\r\n        require(IPreTrade(pretrade).getDP(msg.sender)!=\"\");\r\n        require(orders[ref].status==\"Open\");\r\n        if(orders[ref].order==\"Buy\")\r\n            require(ViaCash(pair[security]).balanceOf(msg.sender)>=SafeMath.mul(_price, _qty));\r\n        else if(orders[ref].order==\"Sell\")\r\n            require(IERC20(security).balanceOf(msg.sender)>=_qty);\r\n        if(orders[ref].party==msg.sender){\r\n            orders[ref].price = ABDKMathQuad.fromUInt(_price);\r\n            orders[ref].qty = _qty;\r\n            orders[ref].dt = now;\r\n            ITrade.order memory currentOrder = ITrade.order({\r\n                party : orders[ref].party,\r\n                security : security,\r\n                price : ABDKMathQuad.toUInt(orders[ref].price),\r\n                otype : orders[ref].otype,\r\n                order : orders[ref].order,\r\n                status : \"Open\",\r\n                currency : ViaFactory(factory).getName(pair[security]),\r\n                securityName : Security(security).name().stringToBytes32(),\r\n                qty : orders[ref].qty,\r\n                dt : orders[ref].dt\r\n            });\r\n            ITrade(trade).editOrder(currentOrder, ref);\r\n            if(orders[ref].otype==\"Market\"){\r\n                marketOrders[orders[ref].orderno] = ref;\r\n                matchOrders(ref);\r\n            }\r\n            else if(orders[ref].otype==\"Limit\"){\r\n                limitOrders[orders[ref].orderno] = ref;\r\n                checkLimitOrders(ABDKMathQuad.fromUInt(_price));\r\n            }\r\n            else if(orders[ref].otype==\"StopLoss\"){\r\n                stopOrders[orders[ref].orderno] = ref;\r\n                checkStopOrders(ABDKMathQuad.fromUInt(_price));\r\n            }\r\n        }\r\n    }    \r\n\r\n    function cancelOrder(bytes32 ref) external {        \r\n        require(IPreTrade(pretrade).getDP(msg.sender)!=\"\");\r\n        require(orders[ref].party==msg.sender);\r\n        require(orders[ref].status==\"Open\");\r\n        delete marketOrders[orders[ref].orderno];\r\n        delete limitMarket[orders[ref].orderno];\r\n        delete limitOrders[orders[ref].orderno];\r\n        delete stopMarket[orders[ref].orderno];\r\n        delete stopOrders[orders[ref].orderno];\r\n        delete orders[ref];\r\n        delete orderRefs[orderIndex[ref]];\r\n        delete orderIndex[ref];\r\n        delete userOrderRefs[msg.sender][userOrderIndex[ref]];\r\n        delete userOrderIndex[ref];\r\n        ITrade(trade).cancelOrder(ref, orders[ref].status);\r\n    }  \r\n\r\n    //match market orders. Sellers get the best price (highest bid) they can sell at.\r\n    //Buyers get the best price (lowest offer) they can buy at. \r\n    function matchOrders(bytes32 _ref) private {\r\n        for(uint i=0; i<marketOrderbook; i++){\r\n            if(marketOrders[i]!=_ref && orders[marketOrders[i]].party!=orders[_ref].party && orders[marketOrders[i]].status!=\"Filled\"){\r\n                if(orders[marketOrders[i]].order==\"Buy\" && orders[_ref].order==\"Sell\"){\r\n                    if(ABDKMathQuad.cmp(orders[marketOrders[i]].price, orders[_ref].price)==0 ||\r\n                            ABDKMathQuad.cmp(orders[marketOrders[i]].price, orders[_ref].price)==1){\r\n                        if(ABDKMathQuad.cmp(orders[marketOrders[i]].price, bestBidPrice)==1){\r\n                            bestBidPrice = orders[marketOrders[i]].price;\r\n                            bestBid = orderRefs[i];\r\n                            bidIndex = i;\r\n                        }\r\n                    }\r\n                }\r\n                else if (orders[marketOrders[i]].order==\"Sell\" && orders[_ref].order==\"Buy\"){\r\n                    if(ABDKMathQuad.cmp(orders[marketOrders[i]].price, orders[_ref].price)==0 ||\r\n                        ABDKMathQuad.cmp(orders[marketOrders[i]].price, orders[_ref].price)==-1){\r\n                        if(ABDKMathQuad.cmp(orders[marketOrders[i]].price, bestOfferPrice)==1){\r\n                            bestOfferPrice = orders[marketOrders[i]].price;\r\n                            bestOffer = orderRefs[i];\r\n                            bidIndex = i;\r\n                        }\r\n                    }\r\n                }\r\n            }\r\n        }\r\n        if(orders[_ref].order==\"Sell\"){\r\n            if(bestBid!=\"\"){\r\n                if(orders[bestBid].qty >= orders[_ref].qty){\r\n                    orders[bestBid].qty = orders[bestBid].qty - orders[_ref].qty;\r\n                    uint qty = orders[_ref].qty;\r\n                    orders[_ref].qty = 0;\r\n                    orders[bestBid].status = \"PartlyFilled\";\r\n                    orders[_ref].status = \"Filled\";\r\n                    reportTrade(_ref, orders[_ref].party, bestBid, orders[bestBid].party, orders[_ref].price, qty, orders[_ref].order, settlementType);\r\n                    reorder(bidIndex, \"market\");\r\n                }\r\n                else{\r\n                    orders[_ref].qty = orders[_ref].qty - orders[bestBid].qty;\r\n                    uint qty = orders[bestBid].qty;\r\n                    orders[bestBid].qty = 0;\r\n                    orders[bestBid].status = \"Filled\";\r\n                    orders[_ref].status = \"PartlyFilled\";\r\n                    reportTrade(_ref, orders[_ref].party, bestBid, orders[bestBid].party, orders[_ref].price, qty, orders[_ref].order, settlementType);\r\n                }\r\n                checkLimitOrders(orders[_ref].price);\r\n                checkStopOrders(orders[_ref].price);\r\n            }\r\n        }\r\n        else if(orders[_ref].order==\"Buy\"){\r\n            if(bestOffer!=\"\"){\r\n                if(orders[bestOffer].qty >= orders[_ref].qty){\r\n                    orders[bestOffer].qty = orders[bestOffer].qty - orders[_ref].qty;\r\n                    uint qty = orders[_ref].qty;\r\n                    orders[_ref].qty = 0;\r\n                    orders[bestOffer].status = \"PartlyFilled\";\r\n                    orders[_ref].status = \"Filled\";\r\n                    reportTrade(bestOffer, orders[bestOffer].party, _ref, orders[_ref].party, orders[_ref].price, qty, orders[_ref].order, settlementType);\r\n                    reorder(bidIndex, \"market\");\r\n                }\r\n                else{\r\n                    orders[_ref].qty = orders[_ref].qty - orders[bestOffer].qty;\r\n                    uint qty = orders[bestOffer].qty;\r\n                    orders[bestOffer].qty = 0;\r\n                    orders[bestOffer].status = \"Filled\";\r\n                    orders[_ref].status = \"PartlyFilled\";\r\n                    reportTrade(bestOffer, orders[bestOffer].party, _ref, orders[_ref].party, orders[_ref].price, qty, orders[_ref].order, settlementType);\r\n                }\r\n                checkLimitOrders(orders[_ref].price);\r\n                checkStopOrders(orders[_ref].price);\r\n            }\r\n        }\r\n    }\r\n\r\n    //check if a buy order in the limit order book can execute over the prevailing (low) price passed to the function\r\n    //check if a sell order in the limit order book can execute under the prevailing (high) price passed to the function\r\n    function checkLimitOrders(bytes16 _priceFilled) private {\r\n        bytes32 ref;\r\n        for(uint256 i=0; i<limitOrderbook; i++){\r\n            if(orders[limitOrders[i]].order==\"Buy\" && orders[limitOrders[i]].price>=_priceFilled && orders[limitOrders[i]].status!=\"Filled\"){\r\n                marketOrders[orders[limitOrders[i]].orderno] = limitOrders[i];\r\n                marketOrderbook = marketOrderbook + 1;\r\n                ref = limitOrders[i];\r\n                reorder(i, \"limit\");\r\n                matchOrders(ref);\r\n            }\r\n            else if(orders[limitOrders[i]].order==\"Sell\" && orders[limitOrders[i]].price<=_priceFilled && orders[limitOrders[i]].status!=\"Filled\"){\r\n                marketOrders[orders[limitOrders[i]].orderno] = limitOrders[i];\r\n                marketOrderbook = marketOrderbook + 1;\r\n                ref = limitOrders[i];\r\n                reorder(i, \"limit\");\r\n                matchOrders(ref);\r\n            }\r\n        }\r\n    }\r\n\r\n    //check if a buy order in the limit order book can execute under the prevailing (high) price passed to the function\r\n    //check if a sell order in the limit order book can execute over the prevailing (low) price passed to the function\r\n    function checkStopOrders(bytes16 _priceFilled) private {\r\n        bytes32 ref;\r\n        for(uint256 i=0; i<stopOrderbook; i++){\r\n            if(orders[stopOrders[i]].order==\"Buy\" && orders[stopOrders[i]].price<=_priceFilled && orders[stopOrders[i]].status!=\"Filled\"){\r\n                marketOrders[orders[stopOrders[i]].orderno] = stopOrders[i];\r\n                marketOrderbook = marketOrderbook + 1;\r\n                ref = stopOrders[i];\r\n                reorder(i, \"stop\");\r\n                matchOrders(ref);\r\n            }\r\n            else if(orders[stopOrders[i]].order==\"Sell\" && orders[stopOrders[i]].price>=_priceFilled && orders[stopOrders[i]].status!=\"Filled\"){\r\n                marketOrders[orders[stopOrders[i]].orderno] = stopOrders[i];\r\n                marketOrderbook = marketOrderbook + 1;\r\n                ref = stopOrders[i];\r\n                reorder(i, \"stop\");\r\n                matchOrders(ref);\r\n            }\r\n        }   \r\n    }\r\n\r\n    function reportTrade(bytes32 _pregRef,\r\n                        address _transferor, \r\n                        bytes32 _cpregRef,\r\n                        address _transferee, \r\n                        bytes16 _price,\r\n                        uint256 _qty,\r\n                        bytes32 _order,\r\n                        bytes32 _type) private {\r\n        uint256 _askprice = 0;\r\n        if(_order==\"Buy\"){\r\n            _askprice = ABDKMathQuad.toUInt(orders[_pregRef].price);\r\n        }\r\n        else if(_order==\"Sell\"){\r\n            _askprice = ABDKMathQuad.toUInt(orders[_cpregRef].price);\r\n        }\r\n        ITrade.trade memory newTrade = ITrade.trade({\r\n            transferor : _transferor,\r\n            transferee : _transferee,\r\n            security : security,\r\n            price : ABDKMathQuad.toUInt(_price),\r\n            askprice : _askprice,\r\n            currency : ViaFactory(factory).getName(pair[security]),\r\n            order : _order,\r\n            stype : _type,\r\n            qty : _qty,\r\n            dt : now\r\n        });\r\n        ITrade(trade).reportTrade(newTrade, _pregRef, _cpregRef);\r\n    }\r\n\r\n    function revertTrade(bytes32 _orderRef, uint256 _qty, bytes32 _order) external {\r\n        require(_order==\"Buy\" || _order==\"Sell\");\r\n        require(trade==msg.sender || posttrade==msg.sender);\r\n        orders[_orderRef].qty=orders[_orderRef].qty+_qty;\r\n        orders[_orderRef].status=\"Open\";\r\n        orders[_orderRef].orderno = orderRefs.length;\r\n        marketOrders[orders[_orderRef].orderno] = _orderRef;\r\n        marketOrderbook = marketOrderbook + 1;\r\n    }\r\n    \r\n    function orderFilled(bytes32 partyRef, bytes32 counterpartyRef) external {\r\n        require(trade==msg.sender || posttrade==msg.sender);\r\n        delete userOrderRefs[orders[partyRef].party][userOrderIndex[partyRef]];\r\n        delete userOrderIndex[partyRef];\r\n        delete orders[partyRef];\r\n        delete orderRefs[orderIndex[partyRef]];\r\n        delete orderIndex[partyRef];\r\n        delete userOrderRefs[orders[counterpartyRef].party][userOrderIndex[counterpartyRef]];\r\n        delete userOrderIndex[counterpartyRef];\r\n        delete orders[counterpartyRef];\r\n        delete orderRefs[orderIndex[counterpartyRef]];\r\n        delete orderIndex[counterpartyRef];\r\n    }\r\n\r\n    function reorder(uint256 position, bytes32 list) private {\r\n        if(list==\"market\"){\r\n            for(uint i=position; i<marketOrderbook; i++){\r\n                if(i==marketOrderbook-1)\r\n                    delete marketOrders[position];\r\n                else\r\n                    marketOrders[position] = marketOrders[position+1];\r\n            } \r\n            marketOrderbook = marketOrderbook - 1;\r\n        }\r\n        else if(list==\"limit\"){\r\n            for(uint i=position; i<limitOrderbook; i++){\r\n                if(i==limitOrderbook-1)\r\n                    delete limitOrders[position];\r\n                else\r\n                    limitOrders[position] = limitOrders[position+1];\r\n            } \r\n            limitOrderbook = limitOrderbook - 1;\r\n        }\r\n        else if(list==\"stop\"){\r\n            for(uint i=position; i<stopOrderbook; i++){\r\n                if(i==stopOrderbook-1)\r\n                    delete stopOrders[position];\r\n                else\r\n                    stopOrders[position] = stopOrders[position+1];\r\n            } \r\n            stopOrderbook = stopOrderbook - 1;\r\n        }        \r\n    }\r\n\r\n}",
  "sourcePath": "D:\\Code\\verified-trades\\contracts\\pool\\OrderPool.sol",
  "compiler": {
    "name": "solc",
    "version": "0.5.7+commit.6da8b019.Emscripten.clang"
  },
  "schemaVersion": "3.4.3",
  "updatedAt": "2022-04-27T03:35:28.115Z",
  "networkType": "ethereum",
  "devdoc": {
    "methods": {}
  },
  "userdoc": {
    "methods": {}
  }
}