{
  "contractName": "OrderPool",
  "abi": [
    {
      "constant": false,
      "inputs": [],
      "name": "renounceOwnership",
      "outputs": [],
      "payable": false,
      "stateMutability": "nonpayable",
      "type": "function"
    },
    {
      "constant": true,
      "inputs": [],
      "name": "owner",
      "outputs": [
        {
          "name": "",
          "type": "address"
        }
      ],
      "payable": false,
      "stateMutability": "view",
      "type": "function"
    },
    {
      "constant": true,
      "inputs": [],
      "name": "isOwner",
      "outputs": [
        {
          "name": "",
          "type": "bool"
        }
      ],
      "payable": false,
      "stateMutability": "view",
      "type": "function"
    },
    {
      "constant": false,
      "inputs": [
        {
          "name": "newOwner",
          "type": "address"
        }
      ],
      "name": "transferOwnership",
      "outputs": [],
      "payable": false,
      "stateMutability": "nonpayable",
      "type": "function"
    },
    {
      "anonymous": false,
      "inputs": [
        {
          "indexed": true,
          "name": "previousOwner",
          "type": "address"
        },
        {
          "indexed": true,
          "name": "newOwner",
          "type": "address"
        }
      ],
      "name": "OwnershipTransferred",
      "type": "event"
    },
    {
      "constant": false,
      "inputs": [
        {
          "name": "_security",
          "type": "address"
        },
        {
          "name": "_cash",
          "type": "address"
        },
        {
          "name": "_trade",
          "type": "address"
        },
        {
          "name": "_settlementType",
          "type": "bytes32"
        },
        {
          "name": "_viaFactory",
          "type": "address"
        }
      ],
      "name": "initialize",
      "outputs": [],
      "payable": false,
      "stateMutability": "nonpayable",
      "type": "function"
    },
    {
      "constant": false,
      "inputs": [
        {
          "name": "sender",
          "type": "address"
        }
      ],
      "name": "initialize",
      "outputs": [],
      "payable": false,
      "stateMutability": "nonpayable",
      "type": "function"
    },
    {
      "constant": false,
      "inputs": [
        {
          "name": "_security",
          "type": "address"
        },
        {
          "name": "_cash",
          "type": "address"
        },
        {
          "name": "_price",
          "type": "uint256"
        },
        {
          "name": "_trigger",
          "type": "uint256"
        },
        {
          "name": "_qty",
          "type": "uint256"
        },
        {
          "name": "_otype",
          "type": "bytes32"
        },
        {
          "name": "_order",
          "type": "bytes32"
        }
      ],
      "name": "newOrder",
      "outputs": [],
      "payable": false,
      "stateMutability": "nonpayable",
      "type": "function"
    },
    {
      "constant": true,
      "inputs": [],
      "name": "getOrderRef",
      "outputs": [
        {
          "name": "",
          "type": "bytes32"
        }
      ],
      "payable": false,
      "stateMutability": "view",
      "type": "function"
    },
    {
      "constant": false,
      "inputs": [
        {
          "name": "ref",
          "type": "bytes32"
        }
      ],
      "name": "cancelOrder",
      "outputs": [],
      "payable": false,
      "stateMutability": "nonpayable",
      "type": "function"
    },
    {
      "constant": false,
      "inputs": [
        {
          "name": "ref",
          "type": "bytes32"
        },
        {
          "name": "_price",
          "type": "uint256"
        },
        {
          "name": "_trigger",
          "type": "uint256"
        },
        {
          "name": "_qty",
          "type": "uint256"
        },
        {
          "name": "_otype",
          "type": "bytes32"
        },
        {
          "name": "_order",
          "type": "bytes32"
        }
      ],
      "name": "editOrder",
      "outputs": [],
      "payable": false,
      "stateMutability": "nonpayable",
      "type": "function"
    },
    {
      "constant": false,
      "inputs": [
        {
          "name": "_orderRef",
          "type": "bytes32"
        },
        {
          "name": "_qty",
          "type": "uint256"
        },
        {
          "name": "_order",
          "type": "bytes32"
        }
      ],
      "name": "revertTrade",
      "outputs": [],
      "payable": false,
      "stateMutability": "nonpayable",
      "type": "function"
    }
  ],
  "bytecode": "0x60806040526067805460ff191660011790556128c1806100206000396000f3fe608060405234801561001057600080fd5b50600436106100a95760003560e01c80637489ec23116100715780637489ec231461010f5780638da5cb5b146101225780638f32d59b14610137578063a01893bf1461014c578063c4d66de81461015f578063f2fde38b14610172576100a9565b80630386458b146100ae578063110ae1e6146100c35780631f040480146100d657806346b8b730146100e9578063715018a614610107575b600080fd5b6100c16100bc366004612164565b610185565b005b6100c16100d1366004612289565b61082e565b6100c16100e436600461223c565b610e89565b6100f1610fd9565b6040516100fe91906126ed565b60405180910390f35b6100c1610fec565b6100c161011d366004612200565b611066565b61012a611176565b6040516100fe91906126c3565b61013f611185565b6040516100fe91906126df565b6100c161015a3660046120ef565b6111ab565b6100c161016d3660046120c9565b611298565b6100c16101803660046120c9565b61136d565b81600160d21b6513585c9ad95d0214806101a9575081600160da1b64131a5b5a5d02145b806101c1575081600160c01b6753746f704c6f737302145b6101ca57600080fd5b80600160e81b624275790214806101ea575080600160e21b6314d95b1b02145b6101f357600080fd5b6001600160a01b0387811660009081526066602052604090205481169087161461021c57600080fd5b80600160e81b624275790214156102c65761023785846113a0565b604051600160e01b6370a082310281526001600160a01b038816906370a08231906102669033906004016126d1565b60206040518083038186803b15801561027e57600080fd5b505afa158015610292573d6000803e3d6000fd5b505050506040513d601f19601f820116820180604052506102b6919081019061221e565b10156102c157600080fd5b610364565b80600160e21b6314d95b1b02141561036457604051600160e01b6370a0823102815283906001600160a01b038916906370a08231906103099033906004016126d1565b60206040518083038186803b15801561032157600080fd5b505afa158015610335573d6000803e3d6000fd5b505050506040513d601f19601f82011682018060405250610359919081019061221e565b101561036457600080fd5b6000334260405160200161037992919061269d565b60408051601f19818403018152828252805160209182012033600081815260698452848120839055606a805460018101825591527f116fea137db6e131133e7f2bab296045d8f41cc5607279db17b218cab0929a5101829055610100850190935291835290925081016103eb886113e6565b6001600160801b0319168152602001610403876113e6565b6001600160801b0319908116825260208083018790526040808401879052600160e11b6327b832b70260608086019190915260808086018b90524260a096870152600088815260688552838120885181546001600160a01b039091166001600160a01b031990911617815594880151600186018054958a0151841c600160801b0291841c95909716949094176001600160801b031693909317909455850151600283015591840151600382015591830151600483015560c0830151600583015560e0909201516006909101556104d88261144c565b90505b80600160a21b6b14185c9d1b1e519a5b1b1959021415610505576104fe8261144c565b90506104db565b80600160e11b6327b832b7021480610528575080600160d21b65119a5b1b195902145b1561082357610535611fa1565b604080516101608101825260008581526068602081815284832080546001600160a01b039081168652606d54168286015292889052526001015490918201906105809060801b611ae1565b81526000858152606860209081526040909120600101549101906105ad90600160801b900460801b611ae1565b81526000858152606860209081526040808320600281015483860152600301548185015260608401879052606e54606d546001600160a01b039081168552606690935292819020549051600160e11b632fea584502815260809094019392821692635fd4b08a926106229216906004016126c3565b60206040518083038186803b15801561063a57600080fd5b505afa15801561064e573d6000803e3d6000fd5b505050506040513d601f19601f82011682018060405250610672919081019061221e565b8152602001606d60009054906101000a90046001600160a01b03166001600160a01b03166306fdde036040518163ffffffff1660e01b815260040160006040518083038186803b1580156106c557600080fd5b505afa1580156106d9573d6000803e3d6000fd5b505050506040513d6000823e601f3d908101601f191682016040526107019190810190612310565b604051600160e31b6319f6a32502815273__stringutils___________________________9163cfb519289161073a9190600401612715565b60206040518083038186803b15801561075257600080fd5b505af4158015610766573d6000803e3d6000fd5b505050506040513d601f19601f8201168201806040525061078a919081019061221e565b815260008581526068602081815260408084206005810154838701529389905291905260069091015491810191909152606b549051600160e31b631913d3690281529192506001600160a01b03169063c89e9b48906107ef9084908790600401612766565b600060405180830381600087803b15801561080957600080fd5b505af115801561081d573d6000803e3d6000fd5b50505050505b505050505050505050565b81600160d21b6513585c9ad95d021480610852575081600160da1b64131a5b5a5d02145b8061086a575081600160c01b6753746f704c6f737302145b61087357600080fd5b80600160e81b62427579021480610893575080600160e21b6314d95b1b02145b61089c57600080fd5b600086815260686020526040902060040154600160e11b6327b832b702146108c357600080fd5b80600160e81b62427579021415610983576108de85846113a0565b606d546001600160a01b0390811660009081526066602052604090819020549051600160e01b6370a082310281529116906370a08231906109239033906004016126d1565b60206040518083038186803b15801561093b57600080fd5b505afa15801561094f573d6000803e3d6000fd5b505050506040513d601f19601f82011682018060405250610973919081019061221e565b101561097e57600080fd5b610a23565b80600160e21b6314d95b1b021415610a2357606d54604051600160e01b6370a0823102815284916001600160a01b0316906370a08231906109c89033906004016126d1565b60206040518083038186803b1580156109e057600080fd5b505afa1580156109f4573d6000803e3d6000fd5b505050506040513d601f19601f82011682018060405250610a18919081019061221e565b1015610a2357600080fd5b6000868152606860205260409020546001600160a01b0316331415610e8157604051806101000160405280336001600160a01b03168152602001610a66876113e6565b6001600160801b0319168152602001610a7e866113e6565b6001600160801b031916815260200183815260200182815260200160686000898152602001908152602001600020600401548152602001848152602001428152506068600088815260200190815260200160002060008201518160000160006101000a8154816001600160a01b0302191690836001600160a01b0316021790555060208201518160010160006101000a8154816001600160801b03021916908360801c021790555060408201518160010160106101000a8154816001600160801b03021916908360801c0217905550606082015181600201556080820151816003015560a0820151816004015560c0820151816005015560e08201518160060155905050610b8a611fa1565b604080516101608101825260008981526068602081815284832080546001600160a01b039081168652606d541682860152928c905252600101549091820190610bd59060801b611ae1565b8152600089815260686020908152604090912060010154910190610c0290600160801b900460801b611ae1565b815260008981526068602090815260408083206002810154838601526003015481850152600160e11b6327b832b7026060850152606e54606d546001600160a01b039081168552606690935292819020549051600160e11b632fea584502815260809094019392821692635fd4b08a92610c809216906004016126c3565b60206040518083038186803b158015610c9857600080fd5b505afa158015610cac573d6000803e3d6000fd5b505050506040513d601f19601f82011682018060405250610cd0919081019061221e565b8152602001606d60009054906101000a90046001600160a01b03166001600160a01b03166306fdde036040518163ffffffff1660e01b815260040160006040518083038186803b158015610d2357600080fd5b505afa158015610d37573d6000803e3d6000fd5b505050506040513d6000823e601f3d908101601f19168201604052610d5f9190810190612310565b604051600160e31b6319f6a32502815273__stringutils___________________________9163cfb5192891610d989190600401612715565b60206040518083038186803b158015610db057600080fd5b505af4158015610dc4573d6000803e3d6000fd5b505050506040513d601f19601f82011682018060405250610de8919081019061221e565b81526000898152606860208181526040808420600581015483870152938d905291905260069091015491810191909152606b549051600160e21b633874a8070281529192506001600160a01b03169063e1d2a01c90610e4d9084908b90600401612766565b600060405180830381600087803b158015610e6757600080fd5b505af1158015610e7b573d6000803e3d6000fd5b50505050505b505050505050565b80600160e81b62427579021480610ea9575080600160e21b6314d95b1b02145b610eb257600080fd5b606b546001600160a01b03163314610ec957600080fd5b60005b606a54811015610fd35783606a8281548110610ee457fe5b9060005260206000200154148015610f2857508160686000606a8481548110610f0957fe5b9060005260206000200154815260200190815260200160002060030154145b15610fcb578260686000606a8481548110610f3f57fe5b90600052602060002001548152602001908152602001600020600501540160686000606a8481548110610f6e57fe5b9060005260206000200154815260200190815260200160002060050181905550600160e11b6327b832b70260686000606a8481548110610faa57fe5b90600052602060002001548152602001908152602001600020600401819055505b600101610ecc565b50505050565b3360009081526069602052604090205490565b610ff4611185565b61101c57604051600160e51b62461bcd02815260040161101390612746565b60405180910390fd5b6033546040516000916001600160a01b0316907f8be0079c531659141344cd1fd0a4f28419497f9722a3daafe3b4186f6b6457e0908390a3603380546001600160a01b0319169055565b6000818152606860205260409020546001600160a01b0316331461108957600080fd5b60005b606a548110156111725781606a82815481106110a457fe5b9060005260206000200154141561116a57600160ba1b6810d85b98d95b1b19590260686000606a84815481106110d657fe5b9060005260206000200154815260200190815260200160002060040181905550606b60009054906101000a90046001600160a01b03166001600160a01b031663a47d9d33836040518263ffffffff1660e01b815260040161113791906126fb565b600060405180830381600087803b15801561115157600080fd5b505af1158015611165573d6000803e3d6000fd5b505050505b60010161108c565b5050565b6033546001600160a01b031690565b6033546000906001600160a01b031661119c611b7a565b6001600160a01b031614905090565b600054610100900460ff16806111c457506111c4611b7e565b806111d2575060005460ff16155b6111f157604051600160e51b62461bcd02815260040161101390612756565b600054610100900460ff1615801561121c576000805460ff1961ff0019909116610100171660011790555b61122533611298565b606d80546001600160a01b03199081166001600160a01b03898116918217909355600090815260666020526040902080548216888416179055606b80548216878416179055606c859055606e80549091169184169190911790558015610e81576000805461ff0019169055505050505050565b600054610100900460ff16806112b157506112b1611b7e565b806112bf575060005460ff16155b6112de57604051600160e51b62461bcd02815260040161101390612756565b600054610100900460ff16158015611309576000805460ff1961ff0019909116610100171660011790555b603380546001600160a01b0319166001600160a01b0384811691909117918290556040519116906000907f8be0079c531659141344cd1fd0a4f28419497f9722a3daafe3b4186f6b6457e0908290a38015611172576000805461ff00191690555050565b611375611185565b61139457604051600160e51b62461bcd02815260040161101390612746565b61139d81611b84565b50565b6000826113af575060006113e0565b828202828482816113bc57fe5b04146113dd57604051600160e51b62461bcd02815260040161101390612736565b90505b92915050565b6000816113f557506000611447565b81600061140182611c09565b9050607081101561141a578060700382901b915061142d565b607081111561142d576070810382901c91505b613fff0160701b6001600160701b03919091161760801b90505b919050565b600081815260686020526040812060020154600160d21b6513585c9ad95d021415611ad05760008061147e60006113e6565b905060008061148d60006113e6565b905060005b606a548110156117e45786606a82815481106114aa57fe5b90600052602060002001541415801561151257506000878152606860208190526040822054606a80546001600160a01b039092169391859081106114ea57fe5b600091825260208083209091015483528201929092526040019020546001600160a01b031614155b156117dc5760686000606a838154811061152857fe5b9060005260206000200154815260200190815260200160002060030154600160e81b62427579021480156115765750600087815260686020526040902060030154600160e21b6314d95b1b02145b1561169a576115cc60686000606a848154811061158f57fe5b6000918252602080832090910154835282810193909352604091820181206001908101548c835260689094529190200154608091821b911b611cac565b60000b15806115f157506115ea60686000606a848154811061158f57fe5b60000b6001145b156116955761163260686000606a848154811061160a57fe5b6000918252602080832090910154835282019290925260400190206001015460801b85611cac565b60000b600114156116955760686000606a838154811061164e57fe5b9060005260206000200154815260200190815260200160002060010160009054906101000a900460801b9350606a818154811061168757fe5b906000526020600020015494505b6117dc565b60686000606a83815481106116ab57fe5b9060005260206000200154815260200190815260200160002060030154600160e21b6314d95b1b021480156116f95750600087815260686020526040902060030154600160e81b6242757902145b156117dc5761171260686000606a848154811061158f57fe5b60000b1580611738575061173060686000606a848154811061158f57fe5b60000b600019145b156117dc5761177960686000606a848154811061175157fe5b6000918252602080832090910154835282019290925260400190206001015460801b83611cac565b60000b600114156117dc5760686000606a838154811061179557fe5b9060005260206000200154815260200190815260200160002060010160009054906101000a900460801b9150606a81815481106117ce57fe5b906000526020600020015492505b600101611492565b50600086815260686020526040902060030154600160e21b6314d95b1b021415611978578315611973576000868152606860205260408082206005908101548784529190922090910154106118d05760008681526068602052604080822060058082018054898652938520918201805494909403909355825492849055600160d21b65119a5b1b195902600480830182905583015581549054938a90526001820154600390920154606c5493946118b7948c946001600160a01b03948516948c9493169260809190911b91889190611df5565b600160d21b65119a5b1b19590295505050505050611447565b600084815260686020526040808220600580820180548b8652938520918201805494909403909355825493909255600160a21b6b14185c9d1b1e519a5b1b1959026004808301829055830155815490546001830154600390930154606c54611954948c946001600160a01b03908116948c9491169260809290921b91889190611df5565b600160a21b6b14185c9d1b1e519a5b1b19590295505050505050611447565b611acb565b600086815260686020526040902060030154600160e81b62427579021415611acb578115611acb57600086815260686020526040808220600590810154858452919092209091015410611a485760008681526068602052604080822060058082018054878652938520918201805494909403909355825492849055600160d21b65119a5b1b1959026004808301829055830155549289905280546001820154600390920154606c5493946118b79488946001600160a01b03928316948e9493169260809190911b91889190611df5565b600082815260686020526040808220600580820180548b8652938520918201805494909403909355825493909255600160a21b6b14185c9d1b1e519a5b1b19590260048083018290558301555481546001830154600390930154606c546119549488946001600160a01b03908116948e9491169260809290921b91889190611df5565b505050505b50600160e11b6327b832b702919050565b6000617fff6001600160801b03608084901c1660701c16613fff811015611b0c576000915050611447565b6001607f1b8360801c6001600160801b031610611b2857600080fd5b6140fe811115611b3757600080fd5b600160701b6001600160701b03608085901c161761406f821015611b615761406f8290031c611b73565b61406f821115611b735761406e1982011b5b9392505050565b3390565b303b1590565b6001600160a01b038116611bad57604051600160e51b62461bcd02815260040161101390612726565b6033546040516001600160a01b038084169216907f8be0079c531659141344cd1fd0a4f28419497f9722a3daafe3b4186f6b6457e090600090a3603380546001600160a01b0319166001600160a01b0392909216919091179055565b6000808211611c1757600080fd5b6000600160801b8310611c2c57608092831c92015b680100000000000000008310611c4457604092831c92015b6401000000008310611c5857602092831c92015b620100008310611c6a57601092831c92015b6101008310611c7b57600892831c92015b60108310611c8b57600492831c92015b60048310611c9b57600292831c92015b600283106113e05760010192915050565b600060016001607f1b03608084901c16600160701b617fff02811115611cd157600080fd5b60016001607f1b03608084901c16600160701b617fff02811115611cf457600080fd5b6001600160801b0319858116908516141580611d205750600160701b617fff02826001600160801b0316105b611d2957600080fd5b6001600160801b03198581169085161415611d49576000925050506113e0565b60006001607f1b8660801c6001600160801b03161015905060006001607f1b8660801c6001600160801b0316101590508115611db4578015611da557826001600160801b0316846001600160801b031611611da5576001611da9565b6000195b9450505050506113e0565b8015611dc75760019450505050506113e0565b826001600160801b0316846001600160801b031611611de857600019611da9565b60019450505050506113e0565b6000600160e81b6242757902831415611e2d57600089815260686020526040902060010154611e269060801b611ae1565b9050611e60565b82600160e21b6314d95b1b021415611e6057600087815260686020526040902060010154611e5d9060801b611ae1565b90505b611e68611ffd565b60408051610140810182526001600160a01b03808c1682528981166020830152606d54169181019190915260608101611ea088611ae1565b81526020808201859052606e54606d546001600160a01b0390811660009081526066909352604092839020548351600160e11b632fea5845028152939094019391811692635fd4b08a92611ef89216906004016126c3565b60206040518083038186803b158015611f1057600080fd5b505afa158015611f24573d6000803e3d6000fd5b505050506040513d601f19601f82011682018060405250611f48919081019061221e565b81526020810186905260408082018690526060820188905242608090920191909152606b549051600160e01b63ca385a930281529192506001600160a01b03169063ca385a93906107ef9084908e908d90600401612783565b6040805161016081018252600080825260208201819052918101829052606081018290526080810182905260a0810182905260c0810182905260e081018290526101008101829052610120810182905261014081019190915290565b6040805161014081018252600080825260208201819052918101829052606081018290526080810182905260a0810182905260c0810182905260e08101829052610100810182905261012081019190915290565b6000611b73823561280a565b6000611b73823561281a565b6000611b73825161281a565b600082601f83011261208657600080fd5b8151612099612094826127d5565b6127ae565b915080825260208301602083018583830111156120b557600080fd5b6120c083828461283a565b50505092915050565b6000602082840312156120db57600080fd5b60006120e78484612051565b949350505050565b600080600080600060a0868803121561210757600080fd5b60006121138888612051565b955050602061212488828901612051565b945050604061213588828901612051565b93505060606121468882890161205d565b925050608061215788828901612051565b9150509295509295909350565b600080600080600080600060e0888a03121561217f57600080fd5b600061218b8a8a612051565b975050602061219c8a828b01612051565b96505060406121ad8a828b0161205d565b95505060606121be8a828b0161205d565b94505060806121cf8a828b0161205d565b93505060a06121e08a828b0161205d565b92505060c06121f18a828b0161205d565b91505092959891949750929550565b60006020828403121561221257600080fd5b60006120e7848461205d565b60006020828403121561223057600080fd5b60006120e78484612069565b60008060006060848603121561225157600080fd5b600061225d868661205d565b935050602061226e8682870161205d565b925050604061227f8682870161205d565b9150509250925092565b60008060008060008060c087890312156122a257600080fd5b60006122ae898961205d565b96505060206122bf89828a0161205d565b95505060406122d089828a0161205d565b94505060606122e189828a0161205d565b93505060806122f289828a0161205d565b92505060a061230389828a0161205d565b9150509295509295509295565b60006020828403121561232257600080fd5b815167ffffffffffffffff81111561233957600080fd5b6120e784828501612075565b61234e81612829565b82525050565b61234e6123608261280a565b612866565b61234e8161280a565b61234e81612815565b61234e8161281a565b600061238b826127fd565b6123958185612801565b93506123a581856020860161283a565b6123ae81612877565b9093019392505050565b60006123c5602683612801565b7f4f776e61626c653a206e6577206f776e657220697320746865207a65726f20618152600160d01b6564647265737302602082015260400192915050565b600160ba1b6810d85b98d95b1b1959029052565b6000612424602183612801565b7f536166654d6174683a206d756c7469706c69636174696f6e206f766572666c6f8152600160f81b607702602082015260400192915050565b600061246a602083612801565b7f4f776e61626c653a2063616c6c6572206973206e6f7420746865206f776e6572815260200192915050565b60006124a3602e83612801565b7f436f6e747261637420696e7374616e63652068617320616c726561647920626581527f656e20696e697469616c697a6564000000000000000000000000000000000000602082015260400192915050565b80516101608301906125078482612365565b50602082015161251a6020850182612365565b50604082015161252d6040850182612377565b5060608201516125406060850182612377565b5060808201516125536080850182612377565b5060a082015161256660a0850182612377565b5060c082015161257960c0850182612377565b5060e082015161258c60e0850182612377565b506101008201516125a1610100850182612377565b506101208201516125b6610120850182612377565b50610140820151610fd3610140850182612377565b80516101408301906125dd8482612365565b5060208201516125f06020850182612365565b5060408201516126036040850182612365565b5060608201516126166060850182612377565b5060808201516126296080850182612377565b5060a082015161263c60a0850182612377565b5060c082015161264f60c0850182612377565b5060e082015161266260e0850182612377565b50610100820151612677610100850182612377565b50610120820151610fd3610120850182612377565b61234e6126988261281a565b61281a565b60006126a98285612354565b6014820191506126b9828461268c565b5060200192915050565b602081016113e08284612365565b602081016113e08284612345565b602081016113e0828461236e565b602081016113e08284612377565b604081016127098284612377565b6113e060208301612403565b60208082528101611b738184612380565b602080825281016113e0816123b8565b602080825281016113e081612417565b602080825281016113e08161245d565b602080825281016113e081612496565b610180810161277582856124f5565b611b73610160830184612377565b610180810161279282866125cb565b6127a0610140830185612377565b6120e7610160830184612377565b60405181810167ffffffffffffffff811182821017156127cd57600080fd5b604052919050565b600067ffffffffffffffff8211156127ec57600080fd5b506020601f91909101601f19160190565b5190565b90815260200190565b60006113e08261281d565b151590565b90565b6001600160a01b031690565b60006113e08260006113e08261280a565b60005b8381101561285557818101518382015260200161283d565b83811115610fd35750506000910152565b60006113e08260006113e082612881565b601f01601f191690565b60601b9056fea265627a7a7230582074b3ed27c01f4616bf1f1ddb26d27dea77c7d44daf0da288b69732c9d6a3eb9d6c6578706572696d656e74616cf50037",
  "source": "// Maintains order pools\r\n// (c) Kallol Borah, 2021\r\n \r\npragma solidity 0.5.7;\r\npragma experimental ABIEncoderV2;\r\n\r\nimport \"@openzeppelin/upgrades/contracts/Initializable.sol\";\r\nimport \"@openzeppelin/contracts-ethereum-package/contracts/ownership/Ownable.sol\";\r\nimport \"@openzeppelin/contracts-ethereum-package/contracts/token/ERC20/IERC20.sol\";\r\nimport \"abdk-libraries-solidity/ABDKMathQuad.sol\";\r\nimport \"../interfaces/IOrderPool.sol\";\r\nimport \"../interfaces/ITrade.sol\";\r\nimport \"../interfaces/ViaCash.sol\";\r\nimport \"../interfaces/ViaFactory.sol\";\r\nimport \"../registry/Security.sol\";\r\nimport \"../utilities/StringUtils.sol\";\r\nimport \"@openzeppelin/contracts-ethereum-package/contracts/math/SafeMath.sol\";\r\n\r\ncontract OrderPool is Initializable, Ownable, IOrderPool {\r\n\r\n    using ABDKMathQuad for uint256;\r\n    using ABDKMathQuad for int256;\r\n    using ABDKMathQuad for bytes16;\r\n\r\n    using stringutils for *;\r\n\r\n    using SafeMath for uint256;\r\n\r\n    //mapping security token to cash token pairs\r\n    mapping(address => address) private pair;\r\n\r\n    //security trading status\r\n    bool status = true;\r\n\r\n    struct order{\r\n        address party;\r\n        bytes16 price;\r\n        bytes16 trigger; \r\n        bytes32 otype;\r\n        bytes32 order;\r\n        bytes32 status;\r\n        uint256 qty;\r\n        uint dt;\r\n    }\r\n\r\n    mapping(bytes32 => order) private orders;\r\n\r\n    mapping(address => bytes32) private refs;\r\n\r\n    bytes32[] orderRefs;\r\n\r\n    //initialized \r\n    address trade;\r\n    bytes32 settlementType;\r\n    address security;\r\n    address factory;\r\n\r\n    function initialize(address _security, address _cash, address _trade, bytes32 _settlementType, address _viaFactory) public initializer{\r\n        Ownable.initialize(msg.sender);\r\n        security = _security;\r\n        pair[_security]=_cash;\r\n        trade = _trade;\r\n        settlementType = _settlementType;\r\n        factory = _viaFactory;\r\n    }\r\n\r\n    function newOrder(  address _security, \r\n                        address _cash, \r\n                        uint256 _price,\r\n                        uint256 _trigger, \r\n                        uint256 _qty, \r\n                        bytes32 _otype, \r\n                        bytes32 _order) external{\r\n        require(_otype==\"Market\" || _otype==\"Limit\" || _otype==\"StopLoss\");\r\n        require(_order==\"Buy\" || _order==\"Sell\");\r\n        require(pair[_security]==_cash);\r\n        if(_order==\"Buy\")\r\n            require(ViaCash(_cash).balanceOf(msg.sender)>=SafeMath.mul(_price, _qty));\r\n        else if(_order==\"Sell\")\r\n            require(IERC20(_security).balanceOf(msg.sender)>=_qty);\r\n        bytes32 ref = keccak256(abi.encodePacked(msg.sender, now));\r\n        refs[msg.sender]=ref;\r\n        orderRefs.push(ref);\r\n        orders[ref] = order(msg.sender, ABDKMathQuad.fromUInt(_price), ABDKMathQuad.fromUInt(_trigger), _otype, _order, \"Open\", _qty, now);\r\n        bytes32 s = matched(ref);\r\n        while(s==\"PartlyFilled\"){ \r\n            s = matched(ref);\r\n        }\r\n        if(s==\"Open\" || s==\"Filled\"){\r\n            ITrade.order memory orderNew = ITrade.order({\r\n                party : orders[ref].party,\r\n                security : security,\r\n                price : ABDKMathQuad.toUInt(orders[ref].price),\r\n                trigger : ABDKMathQuad.toUInt(orders[ref].trigger), \r\n                otype : orders[ref].otype,\r\n                order : orders[ref].order,\r\n                status : s,\r\n                currency : ViaFactory(factory).getName(pair[security]),\r\n                securityName : Security(security).name().stringToBytes32(),\r\n                qty : orders[ref].qty,\r\n                dt : orders[ref].dt\r\n            });\r\n            ITrade(trade).reportOrder(orderNew, ref);\r\n        }\r\n    }\r\n\r\n    function getOrderRef() external view returns(bytes32){\r\n        return refs[msg.sender];\r\n    }    \r\n\r\n    function cancelOrder(bytes32 ref) external {        \r\n        require(orders[ref].party==msg.sender);\r\n        for(uint i=0; i<orderRefs.length; i++){\r\n            if(orderRefs[i]==ref){\r\n                orders[orderRefs[i]].status=\"Cancelled\";\r\n                ITrade(trade).cancelOrder(ref, \"Cancelled\");\r\n            }\r\n        }\r\n    }   \r\n\r\n    function editOrder( bytes32 ref,\r\n                        uint256 _price,\r\n                        uint256 _trigger, \r\n                        uint256 _qty, \r\n                        bytes32 _otype,\r\n                        bytes32 _order) external {\r\n        require(_otype==\"Market\" || _otype==\"Limit\" || _otype==\"StopLoss\");\r\n        require(_order==\"Buy\" || _order==\"Sell\");\r\n        require(orders[ref].status==\"Open\");\r\n        if(_order==\"Buy\")\r\n            require(ViaCash(pair[security]).balanceOf(msg.sender)>=SafeMath.mul(_price, _qty));\r\n        else if(_order==\"Sell\")\r\n            require(IERC20(security).balanceOf(msg.sender)>=_qty);\r\n        if(orders[ref].party==msg.sender){\r\n            orders[ref] = order(msg.sender, ABDKMathQuad.fromUInt(_price), ABDKMathQuad.fromUInt(_trigger), _otype, _order, orders[ref].status, _qty, now);       \r\n            ITrade.order memory currentOrder = ITrade.order({\r\n                party : orders[ref].party,\r\n                security : security,\r\n                price : ABDKMathQuad.toUInt(orders[ref].price),\r\n                trigger : ABDKMathQuad.toUInt(orders[ref].trigger), \r\n                otype : orders[ref].otype,\r\n                order : orders[ref].order,\r\n                status : \"Open\",\r\n                currency : ViaFactory(factory).getName(pair[security]),\r\n                securityName : Security(security).name().stringToBytes32(),\r\n                qty : orders[ref].qty,\r\n                dt : orders[ref].dt\r\n            });\r\n            ITrade(trade).editOrder(currentOrder, ref);\r\n        }\r\n    }\r\n\r\n    function matched(bytes32 _ref) private returns(bytes32){\r\n        if(orders[_ref].otype==\"Market\"){\r\n            bytes32 bestBid;\r\n            bytes16 bestBidPrice = ABDKMathQuad.fromUInt(0);\r\n            bytes32 bestOffer;\r\n            bytes16 bestOfferPrice = ABDKMathQuad.fromUInt(0);\r\n            for(uint i=0; i<orderRefs.length; i++){\r\n                if(orderRefs[i]!=_ref && orders[orderRefs[i]].party!=orders[_ref].party){\r\n                    if(orders[orderRefs[i]].order==\"Buy\" && orders[_ref].order==\"Sell\"){\r\n                        if(ABDKMathQuad.cmp(orders[orderRefs[i]].price, orders[_ref].price)==0 ||\r\n                             ABDKMathQuad.cmp(orders[orderRefs[i]].price, orders[_ref].price)==1){\r\n                            if(ABDKMathQuad.cmp(orders[orderRefs[i]].price, bestBidPrice)==1){\r\n                                bestBidPrice = orders[orderRefs[i]].price;\r\n                                bestBid = orderRefs[i];\r\n                            }\r\n                        }\r\n                    }\r\n                    else if (orders[orderRefs[i]].order==\"Sell\" && orders[_ref].order==\"Buy\"){\r\n                        if(ABDKMathQuad.cmp(orders[orderRefs[i]].price, orders[_ref].price)==0 ||\r\n                            ABDKMathQuad.cmp(orders[orderRefs[i]].price, orders[_ref].price)==-1){\r\n                            if(ABDKMathQuad.cmp(orders[orderRefs[i]].price, bestOfferPrice)==1){\r\n                                bestOfferPrice = orders[orderRefs[i]].price;\r\n                                bestOffer = orderRefs[i];\r\n                            }\r\n                        }\r\n                    }\r\n                }\r\n            }\r\n            if(orders[_ref].order==\"Sell\"){\r\n                if(bestBid!=\"\"){\r\n                    if(orders[bestBid].qty >= orders[_ref].qty){\r\n                        orders[bestBid].qty = orders[bestBid].qty - orders[_ref].qty;\r\n                        uint qty = orders[_ref].qty;\r\n                        orders[_ref].qty = 0;\r\n                        orders[bestBid].status = \"Filled\";\r\n                        orders[_ref].status = \"Filled\";\r\n                        reportTrade(_ref, orders[_ref].party, bestBid, orders[bestBid].party, orders[_ref].price, qty, orders[_ref].order, settlementType);\r\n                        return \"Filled\";\r\n                    }\r\n                    else{\r\n                        orders[_ref].qty = orders[_ref].qty - orders[bestBid].qty;\r\n                        uint qty = orders[bestBid].qty;\r\n                        orders[bestBid].qty = 0;\r\n                        orders[bestBid].status = \"PartlyFilled\";\r\n                        orders[_ref].status = \"PartlyFilled\";\r\n                        reportTrade(_ref, orders[_ref].party, bestBid, orders[bestBid].party, orders[_ref].price, qty, orders[_ref].order, settlementType);\r\n                        return \"PartlyFilled\";\r\n                    }\r\n                }\r\n            }\r\n            else if(orders[_ref].order==\"Buy\"){\r\n                if(bestOffer!=\"\"){\r\n                    if(orders[bestOffer].qty >= orders[_ref].qty){\r\n                        orders[bestOffer].qty = orders[bestOffer].qty - orders[_ref].qty;\r\n                        uint qty = orders[_ref].qty;\r\n                        orders[_ref].qty = 0;\r\n                        orders[bestOffer].status = \"Filled\";\r\n                        orders[_ref].status = \"Filled\";\r\n                        reportTrade(bestOffer, orders[bestOffer].party, _ref, orders[_ref].party, orders[_ref].price, qty, orders[_ref].order, settlementType);\r\n                        return \"Filled\";\r\n                    }\r\n                    else{\r\n                        orders[_ref].qty = orders[_ref].qty - orders[bestOffer].qty;\r\n                        uint qty = orders[bestOffer].qty;\r\n                        orders[bestOffer].qty = 0;\r\n                        orders[bestOffer].status = \"PartlyFilled\";\r\n                        orders[_ref].status = \"PartlyFilled\";\r\n                        reportTrade(bestOffer, orders[bestOffer].party, _ref, orders[_ref].party, orders[_ref].price, qty, orders[_ref].order, settlementType);\r\n                        return \"PartlyFilled\";\r\n                    }\r\n                }\r\n            }\r\n        }\r\n        return \"Open\";\r\n    }\r\n\r\n    function reportTrade(bytes32 _pregRef,\r\n                        address _transferor, \r\n                        bytes32 _cpregRef,\r\n                        address _transferee, \r\n                        bytes16 _price,\r\n                        uint256 _qty,\r\n                        bytes32 _order,\r\n                        bytes32 _type) private {\r\n        uint256 _askprice = 0;\r\n        if(_order==\"Buy\"){\r\n            _askprice = ABDKMathQuad.toUInt(orders[_pregRef].price);\r\n        }\r\n        else if(_order==\"Sell\"){\r\n            _askprice = ABDKMathQuad.toUInt(orders[_cpregRef].price);\r\n        }\r\n        ITrade.trade memory newTrade = ITrade.trade({\r\n            transferor : _transferor,\r\n            transferee : _transferee,\r\n            security : security,\r\n            price : ABDKMathQuad.toUInt(_price),\r\n            askprice : _askprice,\r\n            currency : ViaFactory(factory).getName(pair[security]),\r\n            order : _order,\r\n            stype : _type,\r\n            qty : _qty,\r\n            dt : now\r\n        });\r\n        ITrade(trade).reportTrade(newTrade, _pregRef, _cpregRef);\r\n    }\r\n\r\n    function revertTrade(bytes32 _orderRef, uint256 _qty, bytes32 _order) external {\r\n        require(_order==\"Buy\" || _order==\"Sell\");\r\n        require(trade==msg.sender);\r\n        for(uint i=0; i<orderRefs.length; i++){\r\n            if( orderRefs[i]==_orderRef &&\r\n                orders[orderRefs[i]].order==_order){\r\n                    orders[orderRefs[i]].qty=orders[orderRefs[i]].qty+_qty;\r\n                    orders[orderRefs[i]].status=\"Open\";\r\n            }\r\n        }\r\n    }\r\n    \r\n}",
  "sourcePath": "D:\\Code\\verified-trades\\contracts\\pool\\OrderPool.sol",
  "compiler": {
    "name": "solc",
    "version": "0.5.7+commit.6da8b019.Emscripten.clang"
  },
  "schemaVersion": "3.4.3",
  "updatedAt": "2021-11-25T12:37:54.972Z",
  "networkType": "ethereum",
  "devdoc": {
    "methods": {
      "initialize(address)": {
        "details": "Initializes the contract setting the deployer as the initial owner."
      },
      "isOwner()": {
        "details": "Returns true if the caller is the current owner."
      },
      "owner()": {
        "details": "Returns the address of the current owner."
      },
      "renounceOwnership()": {
        "details": "Leaves the contract without owner. It will not be possible to call `onlyOwner` functions anymore. Can only be called by the current owner.     * > Note: Renouncing ownership will leave the contract without an owner, thereby removing any functionality that is only available to the owner."
      },
      "transferOwnership(address)": {
        "details": "Transfers ownership of the contract to a new account (`newOwner`). Can only be called by the current owner."
      }
    }
  },
  "userdoc": {
    "methods": {}
  }
}