{
  "contractName": "PostTrade",
  "abi": [
    {
      "constant": false,
      "inputs": [],
      "name": "renounceOwnership",
      "outputs": [],
      "payable": false,
      "stateMutability": "nonpayable",
      "type": "function"
    },
    {
      "constant": true,
      "inputs": [],
      "name": "owner",
      "outputs": [
        {
          "name": "",
          "type": "address"
        }
      ],
      "payable": false,
      "stateMutability": "view",
      "type": "function"
    },
    {
      "constant": true,
      "inputs": [],
      "name": "isOwner",
      "outputs": [
        {
          "name": "",
          "type": "bool"
        }
      ],
      "payable": false,
      "stateMutability": "view",
      "type": "function"
    },
    {
      "constant": false,
      "inputs": [
        {
          "name": "newOwner",
          "type": "address"
        }
      ],
      "name": "transferOwnership",
      "outputs": [],
      "payable": false,
      "stateMutability": "nonpayable",
      "type": "function"
    },
    {
      "anonymous": false,
      "inputs": [
        {
          "indexed": true,
          "name": "previousOwner",
          "type": "address"
        },
        {
          "indexed": true,
          "name": "newOwner",
          "type": "address"
        }
      ],
      "name": "OwnershipTransferred",
      "type": "event"
    },
    {
      "constant": false,
      "inputs": [
        {
          "name": "_client",
          "type": "address"
        },
        {
          "name": "_trade",
          "type": "address"
        }
      ],
      "name": "initialize",
      "outputs": [],
      "payable": false,
      "stateMutability": "nonpayable",
      "type": "function"
    },
    {
      "constant": false,
      "inputs": [
        {
          "name": "sender",
          "type": "address"
        }
      ],
      "name": "initialize",
      "outputs": [],
      "payable": false,
      "stateMutability": "nonpayable",
      "type": "function"
    },
    {
      "constant": false,
      "inputs": [
        {
          "name": "a",
          "type": "bytes32[]"
        },
        {
          "name": "b",
          "type": "uint256[]"
        },
        {
          "name": "c",
          "type": "address[]"
        }
      ],
      "name": "postSettlement",
      "outputs": [],
      "payable": false,
      "stateMutability": "nonpayable",
      "type": "function"
    },
    {
      "constant": true,
      "inputs": [
        {
          "name": "_countryCode",
          "type": "bytes32"
        },
        {
          "name": "dpid",
          "type": "bytes32"
        }
      ],
      "name": "getSettlementRequests",
      "outputs": [
        {
          "name": "",
          "type": "bytes32[]"
        }
      ],
      "payable": false,
      "stateMutability": "view",
      "type": "function"
    },
    {
      "constant": true,
      "inputs": [
        {
          "name": "ref",
          "type": "bytes32"
        }
      ],
      "name": "getSettlementRequest",
      "outputs": [
        {
          "name": "",
          "type": "address[]"
        },
        {
          "name": "",
          "type": "bytes32[]"
        },
        {
          "name": "",
          "type": "uint256[]"
        },
        {
          "name": "",
          "type": "bytes16"
        }
      ],
      "payable": false,
      "stateMutability": "view",
      "type": "function"
    },
    {
      "constant": false,
      "inputs": [
        {
          "name": "ref",
          "type": "bytes32"
        },
        {
          "name": "_countryCode",
          "type": "bytes32"
        },
        {
          "name": "status",
          "type": "bytes32"
        }
      ],
      "name": "setSettlementStatus",
      "outputs": [],
      "payable": false,
      "stateMutability": "nonpayable",
      "type": "function"
    }
  ],
  "bytecode": "0x60806040526114d9806100136000396000f3fe608060405234801561001057600080fd5b506004361061009e5760003560e01c8063bfc6243211610066578063bfc6243214610225578063c4d66de81461024e578063c9fca3c714610274578063df2fc187146102e7578063f2fde38b146103f55761009e565b8063485cc955146100a3578063715018a6146100d357806379a7dc0e146100db5780638da5cb5b146101e55780638f32d59b14610209575b600080fd5b6100d1600480360360408110156100b957600080fd5b506001600160a01b038135811691602001351661041b565b005b6100d16104fb565b6100f8600480360360208110156100f157600080fd5b50356105a1565b604080516001600160801b031983166060820152608080825286519082015285519091829160208084019284019160a08501918a8101910280838360005b8381101561014e578181015183820152602001610136565b50505050905001848103835287818151815260200191508051906020019060200280838360005b8381101561018d578181015183820152602001610175565b50505050905001848103825286818151815260200191508051906020019060200280838360005b838110156101cc5781810151838201526020016101b4565b5050505090500197505050505050505060405180910390f35b6101ed61082b565b604080516001600160a01b039092168252519081900360200190f35b61021161083a565b604080519115158252519081900360200190f35b6100d16004803603606081101561023b57600080fd5b5080359060208101359060400135610860565b6100d16004803603602081101561026457600080fd5b50356001600160a01b03166109de565b6102976004803603604081101561028a57600080fd5b5080359060200135610ad3565b60408051602080825283518183015283519192839290830191858101910280838360005b838110156102d35781810151838201526020016102bb565b505050509050019250505060405180910390f35b6100d1600480360360608110156102fd57600080fd5b810190602081018135600160201b81111561031757600080fd5b82018360208201111561032957600080fd5b803590602001918460208302840111600160201b8311171561034a57600080fd5b919390929091602081019035600160201b81111561036757600080fd5b82018360208201111561037957600080fd5b803590602001918460208302840111600160201b8311171561039a57600080fd5b919390929091602081019035600160201b8111156103b757600080fd5b8201836020820111156103c957600080fd5b803590602001918460208302840111600160201b831117156103ea57600080fd5b509092509050610cb3565b6100d16004803603602081101561040b57600080fd5b50356001600160a01b0316610f9f565b600054610100900460ff16806104345750610434611007565b80610442575060005460ff16155b61048057604051600160e51b62461bcd02815260040180806020018281038252602e815260200180611480602e913960400191505060405180910390fd5b600054610100900460ff161580156104ab576000805460ff1961ff0019909116610100171660011790555b6104b4336109de565b606880546001600160a01b038086166001600160a01b031992831617909255606980549285169290911691909117905580156104f6576000805461ff00191690555b505050565b61050361083a565b6105575760408051600160e51b62461bcd02815260206004820181905260248201527f4f776e61626c653a2063616c6c6572206973206e6f7420746865206f776e6572604482015290519081900360640190fd5b6033546040516000916001600160a01b0316907f8be0079c531659141344cd1fd0a4f28419497f9722a3daafe3b4186f6b6457e0908390a3603380546001600160a01b0319169055565b606080806000846105b157600080fd5b60408051600280825260608083018452926020830190803883395050506000878152606660205260408120600b01548251929350918391906105ef57fe5b60200260200101818152505060666000878152602001908152602001600020600c01548160018151811061061f57fe5b602090810291909101015260408051600680825260e0820190925260609181602001602082028038833950505060008881526066602052604081206007015482519293509183919061066d57fe5b60200260200101818152505060666000888152602001908152602001600020600801548160018151811061069d57fe5b6020026020010181815250506066600088815260200190815260200160002060050154816002815181106106cd57fe5b6020026020010181815250506066600088815260200190815260200160002060060154816003815181106106fd57fe5b60200260200101818152505060666000888152602001908152602001600020600901548160048151811061072d57fe5b60200260200101818152505060666000888152602001908152602001600020600301548160058151811061075d57fe5b6020908102919091010152604080516002808252606082810190935281602001602082028038833950505060008981526066602052604081205482519293506001600160a01b0316918391906107af57fe5b6001600160a01b0392831660209182029290920181019190915260008a8152606690915260409020600190810154835192169183919081106107ed57fe5b6001600160a01b039092166020928302919091018201526000898152606690915260409020600a015490965090945090925060801b90509193509193565b6033546001600160a01b031690565b6033546000906001600160a01b031661085161100d565b6001600160a01b031614905090565b80600160c81b66436f6e6669726d021480610886575080600160d21b6514995a9958dd02145b61088f57600080fd5b60685460408051600160e01b63203bac610281523360048201526024810185905290516000926001600160a01b03169163203bac61916044808301926020929190829003018186803b1580156108e457600080fd5b505afa1580156108f8573d6000803e3d6000fd5b505050506040513d602081101561090e57600080fd5b50519050600160f41b610445028114156109d85760008481526066602090815260408083206004808201879055600282015482546001840154600b909401548551600160e01b6323b872dd0281526001600160a01b039283169481019490945293811660248401526044830193909352925191909216936323b872dd93606480850194919392918390030190829087803b1580156109ab57600080fd5b505af11580156109bf573d6000803e3d6000fd5b505050506040513d60208110156109d557600080fd5b50505b50505050565b600054610100900460ff16806109f757506109f7611007565b80610a05575060005460ff16155b610a4357604051600160e51b62461bcd02815260040180806020018281038252602e815260200180611480602e913960400191505060405180910390fd5b600054610100900460ff16158015610a6e576000805460ff1961ff0019909116610100171660011790555b603380546001600160a01b0319166001600160a01b0384811691909117918290556040519116906000907f8be0079c531659141344cd1fd0a4f28419497f9722a3daafe3b4186f6b6457e0908290a38015610acf576000805461ff00191690555b5050565b606754604080518281526020808402820101909152606091908290828015610b05578160200160208202803883390190505b5060685460408051600160e01b63203bac61028152336004820152602481018990529051929350600092839283926001600160a01b039091169163203bac6191604480820192602092909190829003018186803b158015610b6557600080fd5b505afa158015610b79573d6000803e3d6000fd5b505050506040513d6020811015610b8f57600080fd5b50519050600160f41b61044502811415610ca557600091505b606754821015610ca557866066600060678581548110610bc457fe5b90600052602060002001548152602001908152602001600020600501541480610c195750866066600060678581548110610bfa57fe5b9060005260206000200154815260200190815260200160002060060154145b8015610c5e57506066600060678481548110610c3157fe5b9060005260206000200154815260200190815260200160002060040154600160c81b6650656e64696e6702145b15610c9a5760678281548110610c7057fe5b9060005260206000200154848481518110610c8757fe5b6020026020010181815250508260010192505b600190910190610ba8565b509193505050505b92915050565b6069546001600160a01b03163314610cca57600080fd5b600086866004818110610cd957fe5b606780546001810182556000918252602090920293909301357f9787eeb91fe3101235e4a76063c7023ecb40f923f97916639c598592fa30d6ae9091018190559250849184915081610d2757fe5b600084815260666020908152604090912080546001600160a01b0319166001600160a01b0392909302949094013516179091555082826001818110610d6857fe5b600084815260666020908152604090912060010180546001600160a01b0319166001600160a01b0392909302949094013516179091555082826002818110610dac57fe5b600084815260666020908152604090912060020180546001600160a01b0319166001600160a01b0392909302949094013516179091555086866006818110610df057fe5b90506020020135606660008381526020019081526020016000206003018190555086866000818110610e1e57fe5b90506020020135606660008381526020019081526020016000206007018190555086866001818110610e4c57fe5b905060200201356066600083815260200190815260200160002060080181905550610ea1610e8c86866001818110610e8057fe5b90506020020135611011565b610e9c87876000818110610e8057fe5b611077565b6000828152606660205260409020600a0180546001600160801b03191660809290921c91909117905586866005818110610ed757fe5b90506020020135606660008381526020019081526020016000206009018190555084846000818110610f0557fe5b600084815260666020908152604090912091029290920135600b8301555042600c9091015586866002818110610f3757fe5b90506020020135606660008381526020019081526020016000206005018190555086866003818110610f6557fe5b600093845260666020908152604090942093029190910135600683015550600160c81b6650656e64696e6702600490910155505050505050565b610fa761083a565b610ffb5760408051600160e51b62461bcd02815260206004820181905260248201527f4f776e61626c653a2063616c6c6572206973206e6f7420746865206f776e6572604482015290519081900360640190fd5b61100481611313565b50565b303b1590565b3390565b60008161102057506000611072565b81600061102c826113b7565b90506070811015611045578060700382901b9150611058565b6070811115611058576070810382901c91505b613fff0160701b6001600160701b03919091161760801b90505b919050565b6000617fff6001600160801b03608085811c8216607090811c8416939186901c90921690911c8116908214156111425780617fff141561110d576001600160801b031985811690851614156110d757505050600160ff1b81168218610cad565b600160ff1b6001600160801b03198686181614156110fa57505050818117610cad565b50600160ef1b61ffff029150610cad9050565b600160801b600160ff1b0384166111315750600160ef1b61ffff029150610cad9050565b505050600160ff1b81168218610cad565b80617fff141561118157600160801b600160ff1b0385166111705750600160ef1b61ffff029150610cad9050565b505050600160ff1b82168118610cad565b6001600160701b03608086901c168261119d57600192506111a4565b600160701b175b6001600160701b03608086901c16826111c057600192506111c7565b600160701b175b90810290816111f557600160ff1b878718166111e45760006111ea565b600160ff1b5b945050505050610cad565b928201926000600160e11b83101561122957600160e01b8310156112215761121c836113b7565b611224565b60e05b61122c565b60e15b905061407081860110156112475760009450600092506112e4565b6140e0818601101561128a5761407085101561126c57846140700383901c9250611281565b61407085111561128157614070850383901b92505b600094506112e4565b61c0dd81860111156112a457617fff9450600092506112e4565b60708111156112bb576070810383901c92506112ce565b60708110156112ce578060700383901b92505b6001600160701b03831692506140df8186010394505b82607086901b888a186001607f1b60801b1660801c6001600160801b0316171760801b95505050505050610cad565b6001600160a01b03811661135b57604051600160e51b62461bcd02815260040180806020018281038252602681526020018061145a6026913960400191505060405180910390fd5b6033546040516001600160a01b038084169216907f8be0079c531659141344cd1fd0a4f28419497f9722a3daafe3b4186f6b6457e090600090a3603380546001600160a01b0319166001600160a01b0392909216919091179055565b60008082116113c557600080fd5b6000600160801b83106113da57608092831c92015b6801000000000000000083106113f257604092831c92015b600160201b831061140557602092831c92015b62010000831061141757601092831c92015b610100831061142857600892831c92015b6010831061143857600492831c92015b6004831061144857600292831c92015b60028310610cad576001019291505056fe4f776e61626c653a206e6577206f776e657220697320746865207a65726f2061646472657373436f6e747261637420696e7374616e63652068617320616c7265616479206265656e20696e697469616c697a6564a165627a7a723058203ba6a9cbff0765c590de6a51cb2f2bca60e2395fdd146cc041cc85bb5fd2aaf10029",
  "source": "// Settlement of trades\r\n// (c) Kallol Borah, 2021 \r\n\r\npragma solidity 0.5.7;\r\n\r\nimport \"./interfaces/IPostTrade.sol\";\r\nimport \"./interfaces/IOrderPool.sol\";\r\nimport \"./interfaces/VerifiedClient.sol\";\r\nimport \"./registry/Security.sol\";\r\nimport \"abdk-libraries-solidity/ABDKMathQuad.sol\";\r\nimport \"@openzeppelin/upgrades/contracts/Initializable.sol\";\r\nimport \"@openzeppelin/contracts-ethereum-package/contracts/ownership/Ownable.sol\";\r\n \r\ncontract PostTrade is IPostTrade, Initializable, Ownable{\r\n\r\n    using ABDKMathQuad for uint256;\r\n    using ABDKMathQuad for int256;\r\n    using ABDKMathQuad for bytes16;\r\n\r\n    struct settlement{  address transferor;\r\n                        address transferee;\r\n                        address security;\r\n                        bytes32 securityName;\r\n                        bytes32 status;\r\n                        bytes32 transferorDPID;\r\n                        bytes32 transfereeDPID;\r\n                        bytes32 isin;\r\n                        bytes32 company;\r\n                        bytes32 currency;\r\n                        bytes16 consideration;\r\n                        uint256 unitsToTransfer;\r\n                        uint executionDate;\r\n                    }\r\n\r\n    mapping(bytes32 => settlement) settlements;\r\n\r\n    bytes32[] trades;\r\n\r\n    address client;\r\n    address trade;\r\n\r\n    function initialize (address _client, address _trade) public initializer{\r\n        Ownable.initialize(msg.sender);\r\n        client = _client;\r\n        trade = _trade;\r\n    }\r\n    \r\n    function postSettlement(bytes32[] calldata a, uint[] calldata b, address[] calldata c) external {\r\n        require(trade==msg.sender);\r\n        bytes32 ref = a[4];\r\n        trades.push(ref);\r\n        settlements[ref].transferor = c[0];\r\n        settlements[ref].transferee = c[1];\r\n        settlements[ref].security = c[2];\r\n        settlements[ref].securityName = a[6];\r\n        settlements[ref].isin = a[0];\r\n        settlements[ref].company = a[1];\r\n        settlements[ref].consideration = ABDKMathQuad.mul(ABDKMathQuad.fromUInt(b[1]), ABDKMathQuad.fromUInt(b[0]));\r\n        settlements[ref].currency = a[5];\r\n        settlements[ref].unitsToTransfer = b[0];\r\n        settlements[ref].executionDate = now;\r\n        settlements[ref].transferorDPID = a[2];\r\n        settlements[ref].transfereeDPID = a[3];\r\n        settlements[ref].status = \"Pending\";\r\n    }\r\n\r\n    function getSettlementRequests(bytes32 _countryCode, bytes32 dpid) external view returns(bytes32[] memory){\r\n        uint entries = trades.length;\r\n        bytes32[] memory result = new bytes32[](entries);\r\n        uint entry=0;\r\n        uint i;\r\n        bytes32 role = VerifiedClient(client).getRole(msg.sender, _countryCode);\r\n        if(role==\"DP\"){\r\n            for(i=0; i<trades.length; i++){\r\n                if((settlements[trades[i]].transferorDPID==dpid ||\r\n                    settlements[trades[i]].transfereeDPID==dpid) &&\r\n                    settlements[trades[i]].status==\"Pending\"){\r\n                    result[entry]=trades[i];\r\n                    entry=entry+1;\r\n                }\r\n            }\r\n        }\r\n        return result;\r\n    }\r\n\r\n    function getSettlementRequest(bytes32 ref) external view returns(  address[] memory, \r\n                                                                        bytes32[] memory,\r\n                                                                        uint256[] memory,\r\n                                                                        bytes16 ){\r\n        require(ref!=\"\");                                                               \r\n        uint[] memory b = new uint[](2);\r\n        b[0]=settlements[ref].unitsToTransfer;\r\n        b[1]=settlements[ref].executionDate;\r\n        bytes32[] memory a = new bytes32[](6);  \r\n        a[0]=settlements[ref].isin;\r\n        a[1]=settlements[ref].company;\r\n        a[2]=settlements[ref].transferorDPID;\r\n        a[3]=settlements[ref].transfereeDPID;\r\n        a[4]=settlements[ref].currency;\r\n        a[5]=settlements[ref].securityName;\r\n        address[] memory c = new address[](2);\r\n        c[0]=settlements[ref].transferor;\r\n        c[1]=settlements[ref].transferee;\r\n        return (c, a, b, settlements[ref].consideration);\r\n    }\r\n\r\n    function setSettlementStatus(bytes32 ref, bytes32 _countryCode, bytes32 status) external {\r\n        require(status==\"Confirm\" || status==\"Reject\");\r\n        bytes32 role = VerifiedClient(client).getRole(msg.sender, _countryCode);\r\n        if(role==\"DP\"){\r\n            settlements[ref].status = status;\r\n            Security(settlements[ref].security).transferFrom(settlements[ref].transferor, \r\n                                                            settlements[ref].transferee, \r\n                                                            settlements[ref].unitsToTransfer);\r\n        }\r\n    }\r\n\r\n}",
  "sourcePath": "D:\\Code\\verified-trades\\contracts\\PostTrade.sol",
  "compiler": {
    "name": "solc",
    "version": "0.5.7+commit.6da8b019.Emscripten.clang"
  },
  "schemaVersion": "3.3.3",
  "updatedAt": "2021-06-04T16:55:46.216Z",
  "networkType": "ethereum",
  "devdoc": {
    "methods": {
      "initialize(address)": {
        "details": "Initializes the contract setting the deployer as the initial owner."
      },
      "isOwner()": {
        "details": "Returns true if the caller is the current owner."
      },
      "owner()": {
        "details": "Returns the address of the current owner."
      },
      "renounceOwnership()": {
        "details": "Leaves the contract without owner. It will not be possible to call `onlyOwner` functions anymore. Can only be called by the current owner.     * > Note: Renouncing ownership will leave the contract without an owner, thereby removing any functionality that is only available to the owner."
      },
      "transferOwnership(address)": {
        "details": "Transfers ownership of the contract to a new account (`newOwner`). Can only be called by the current owner."
      }
    }
  },
  "userdoc": {
    "methods": {}
  }
}