{
  "contractName": "PostTrade",
  "abi": [
    {
      "constant": false,
      "inputs": [],
      "name": "renounceOwnership",
      "outputs": [],
      "payable": false,
      "stateMutability": "nonpayable",
      "type": "function"
    },
    {
      "constant": true,
      "inputs": [],
      "name": "owner",
      "outputs": [
        {
          "name": "",
          "type": "address"
        }
      ],
      "payable": false,
      "stateMutability": "view",
      "type": "function"
    },
    {
      "constant": true,
      "inputs": [],
      "name": "isOwner",
      "outputs": [
        {
          "name": "",
          "type": "bool"
        }
      ],
      "payable": false,
      "stateMutability": "view",
      "type": "function"
    },
    {
      "constant": false,
      "inputs": [
        {
          "name": "newOwner",
          "type": "address"
        }
      ],
      "name": "transferOwnership",
      "outputs": [],
      "payable": false,
      "stateMutability": "nonpayable",
      "type": "function"
    },
    {
      "anonymous": false,
      "inputs": [
        {
          "indexed": true,
          "name": "previousOwner",
          "type": "address"
        },
        {
          "indexed": true,
          "name": "newOwner",
          "type": "address"
        }
      ],
      "name": "OwnershipTransferred",
      "type": "event"
    },
    {
      "constant": false,
      "inputs": [
        {
          "name": "_client",
          "type": "address"
        },
        {
          "name": "_trade",
          "type": "address"
        }
      ],
      "name": "initialize",
      "outputs": [],
      "payable": false,
      "stateMutability": "nonpayable",
      "type": "function"
    },
    {
      "constant": false,
      "inputs": [
        {
          "name": "sender",
          "type": "address"
        }
      ],
      "name": "initialize",
      "outputs": [],
      "payable": false,
      "stateMutability": "nonpayable",
      "type": "function"
    },
    {
      "constant": false,
      "inputs": [
        {
          "name": "a",
          "type": "bytes32[]"
        },
        {
          "name": "b",
          "type": "uint256[]"
        },
        {
          "name": "c",
          "type": "address[]"
        }
      ],
      "name": "postSettlement",
      "outputs": [],
      "payable": false,
      "stateMutability": "nonpayable",
      "type": "function"
    },
    {
      "constant": true,
      "inputs": [
        {
          "name": "_countryCode",
          "type": "bytes32"
        },
        {
          "name": "dpid",
          "type": "bytes32"
        }
      ],
      "name": "getSettlementRequests",
      "outputs": [
        {
          "name": "",
          "type": "bytes32[]"
        }
      ],
      "payable": false,
      "stateMutability": "view",
      "type": "function"
    },
    {
      "constant": true,
      "inputs": [
        {
          "name": "ref",
          "type": "bytes32"
        }
      ],
      "name": "getSettlementRequest",
      "outputs": [
        {
          "name": "",
          "type": "address[]"
        },
        {
          "name": "",
          "type": "bytes32[]"
        },
        {
          "name": "",
          "type": "uint256[]"
        },
        {
          "name": "",
          "type": "bytes16"
        }
      ],
      "payable": false,
      "stateMutability": "view",
      "type": "function"
    },
    {
      "constant": false,
      "inputs": [
        {
          "name": "ref",
          "type": "bytes32"
        },
        {
          "name": "_countryCode",
          "type": "bytes32"
        },
        {
          "name": "status",
          "type": "bytes32"
        }
      ],
      "name": "setSettlementStatus",
      "outputs": [],
      "payable": false,
      "stateMutability": "nonpayable",
      "type": "function"
    }
  ],
  "bytecode": "0x6080604052611621806100136000396000f3fe608060405234801561001057600080fd5b506004361061009e5760003560e01c8063bfc6243211610066578063bfc6243214610225578063c4d66de81461024e578063c9fca3c714610274578063df2fc187146102e7578063f2fde38b146103f55761009e565b8063485cc955146100a3578063715018a6146100d357806379a7dc0e146100db5780638da5cb5b146101e55780638f32d59b14610209575b600080fd5b6100d1600480360360408110156100b957600080fd5b506001600160a01b038135811691602001351661041b565b005b6100d16104fb565b6100f8600480360360208110156100f157600080fd5b50356105a1565b604080516001600160801b031983166060820152608080825286519082015285519091829160208084019284019160a08501918a8101910280838360005b8381101561014e578181015183820152602001610136565b50505050905001848103835287818151815260200191508051906020019060200280838360005b8381101561018d578181015183820152602001610175565b50505050905001848103825286818151815260200191508051906020019060200280838360005b838110156101cc5781810151838201526020016101b4565b5050505090500197505050505050505060405180910390f35b6101ed610833565b604080516001600160a01b039092168252519081900360200190f35b610211610842565b604080519115158252519081900360200190f35b6100d16004803603606081101561023b57600080fd5b5080359060208101359060400135610868565b6100d16004803603602081101561026457600080fd5b50356001600160a01b03166109e6565b6102976004803603604081101561028a57600080fd5b5080359060200135610adb565b60408051602080825283518183015283519192839290830191858101910280838360005b838110156102d35781810151838201526020016102bb565b505050509050019250505060405180910390f35b6100d1600480360360608110156102fd57600080fd5b810190602081018135600160201b81111561031757600080fd5b82018360208201111561032957600080fd5b803590602001918460208302840111600160201b8311171561034a57600080fd5b919390929091602081019035600160201b81111561036757600080fd5b82018360208201111561037957600080fd5b803590602001918460208302840111600160201b8311171561039a57600080fd5b919390929091602081019035600160201b8111156103b757600080fd5b8201836020820111156103c957600080fd5b803590602001918460208302840111600160201b831117156103ea57600080fd5b509092509050610cb2565b6100d16004803603602081101561040b57600080fd5b50356001600160a01b03166110e7565b600054610100900460ff1680610434575061043461114f565b80610442575060005460ff16155b61048057604051600160e51b62461bcd02815260040180806020018281038252602e8152602001806115c8602e913960400191505060405180910390fd5b600054610100900460ff161580156104ab576000805460ff1961ff0019909116610100171660011790555b6104b4336109e6565b606880546001600160a01b038086166001600160a01b031992831617909255606980549285169290911691909117905580156104f6576000805461ff00191690555b505050565b610503610842565b6105575760408051600160e51b62461bcd02815260206004820181905260248201527f4f776e61626c653a2063616c6c6572206973206e6f7420746865206f776e6572604482015290519081900360640190fd5b6033546040516000916001600160a01b0316907f8be0079c531659141344cd1fd0a4f28419497f9722a3daafe3b4186f6b6457e0908390a3603380546001600160a01b0319169055565b60408051600280825260608281019093528291829160009183918160200160208202803883395050506000878152606660205260409020600b0154815191925090829060019081106105ef57fe5b60200260200101818152505060666000878152602001908152602001600020600c01548160028151811061061f57fe5b602090810291909101015260408051600680825260e082019092526060918160200160208202803883395050506000888152606660205260409020600701548151919250908290600190811061067157fe5b6020026020010181815250506066600088815260200190815260200160002060080154816002815181106106a157fe5b6020026020010181815250506066600088815260200190815260200160002060050154816003815181106106d157fe5b60200260200101818152505060666000888152602001908152602001600020600601548160048151811061070157fe5b60200260200101818152505060666000888152602001908152602001600020600901548160058151811061073157fe5b60200260200101818152505060666000888152602001908152602001600020600301548160068151811061076157fe5b6020908102919091010152604080516002808252606082810190935281602001602082028038833950505060008981526066602052604090205481519192506001600160a01b031690829060019081106107b757fe5b6001600160a01b0392831660209182029290920181019190915260008a8152606690915260409020600101548251911690829060029081106107f557fe5b6001600160a01b039092166020928302919091018201526000898152606690915260409020600a015490965090945090925060801b90509193509193565b6033546001600160a01b031690565b6033546000906001600160a01b0316610859611155565b6001600160a01b031614905090565b80600160c81b66436f6e6669726d02148061088e575080600160d21b6514995a9958dd02145b61089757600080fd5b60685460408051600160e01b63203bac610281523360048201526024810185905290516000926001600160a01b03169163203bac61916044808301926020929190829003018186803b1580156108ec57600080fd5b505afa158015610900573d6000803e3d6000fd5b505050506040513d602081101561091657600080fd5b50519050600160f41b610445028114156109e05760008481526066602090815260408083206004808201879055600282015482546001840154600b909401548551600160e01b6323b872dd0281526001600160a01b039283169481019490945293811660248401526044830193909352925191909216936323b872dd93606480850194919392918390030190829087803b1580156109b357600080fd5b505af11580156109c7573d6000803e3d6000fd5b505050506040513d60208110156109dd57600080fd5b50505b50505050565b600054610100900460ff16806109ff57506109ff61114f565b80610a0d575060005460ff16155b610a4b57604051600160e51b62461bcd02815260040180806020018281038252602e8152602001806115c8602e913960400191505060405180910390fd5b600054610100900460ff16158015610a76576000805460ff1961ff0019909116610100171660011790555b603380546001600160a01b0319166001600160a01b0384811691909117918290556040519116906000907f8be0079c531659141344cd1fd0a4f28419497f9722a3daafe3b4186f6b6457e0908290a38015610ad7576000805461ff00191690555b5050565b606754604080518281526020808402820101909152606091908290828015610b0d578160200160208202803883390190505b5060685460408051600160e01b63203bac6102815233600482015260248101899052905192935060009283926001600160a01b03169163203bac61916044808301926020929190829003018186803b158015610b6857600080fd5b505afa158015610b7c573d6000803e3d6000fd5b505050506040513d6020811015610b9257600080fd5b50519050600160f41b61044502811415610ca55760005b606754811015610ca357866066600060678481548110610bc557fe5b90600052602060002001548152602001908152602001600020600501541480610c1a5750866066600060678481548110610bfb57fe5b9060005260206000200154815260200190815260200160002060060154145b8015610c5f57506066600060678381548110610c3257fe5b9060005260206000200154815260200190815260200160002060040154600160c81b6650656e64696e6702145b15610c9b5760678181548110610c7157fe5b9060005260206000200154848481518110610c8857fe5b6020026020010181815250508260010192505b600101610ba9565b505b5090925050505b92915050565b6069546001600160a01b03163314610cc957600080fd5b606786866004818110610cd857fe5b83546001810185556000948552602080862092029390930135920191909155508290829081610d0357fe5b905060200201356001600160a01b03166066600088886004818110610d2457fe5b90506020020135815260200190815260200160002060000160006101000a8154816001600160a01b0302191690836001600160a01b0316021790555081816001818110610d6d57fe5b905060200201356001600160a01b03166066600088886004818110610d8e57fe5b90506020020135815260200190815260200160002060010160006101000a8154816001600160a01b0302191690836001600160a01b0316021790555081816002818110610dd757fe5b905060200201356001600160a01b03166066600088886004818110610df857fe5b90506020020135815260200190815260200160002060020160006101000a8154816001600160a01b0302191690836001600160a01b0316021790555085856006818110610e4157fe5b905060200201356066600088886004818110610e5957fe5b9050602002013581526020019081526020016000206003018190555085856000818110610e8257fe5b905060200201356066600088886004818110610e9a57fe5b9050602002013581526020019081526020016000206007018190555085856001818110610ec357fe5b905060200201356066600088886004818110610edb57fe5b90506020020135815260200190815260200160002060080181905550610f2b610f1685856001818110610f0a57fe5b90506020020135611159565b610f2686866000818110610f0a57fe5b6111bf565b6066600088886004818110610f3c57fe5b905060200201358152602001908152602001600020600a0160006101000a8154816001600160801b03021916908360801c021790555085856005818110610f7f57fe5b905060200201356066600088886004818110610f9757fe5b9050602002013581526020019081526020016000206009018190555083836000818110610fc057fe5b905060200201356066600088886004818110610fd857fe5b905060200201358152602001908152602001600020600b018190555042606660008888600481811061100657fe5b905060200201358152602001908152602001600020600c01819055508585600281811061102f57fe5b90506020020135606660008888600481811061104757fe5b905060200201358152602001908152602001600020600501819055508585600381811061107057fe5b90506020020135606660008888600481811061108857fe5b90506020020135815260200190815260200160002060060181905550600160c81b6650656e64696e670260666000888860048181106110c357fe5b90506020020135815260200190815260200160002060040181905550505050505050565b6110ef610842565b6111435760408051600160e51b62461bcd02815260206004820181905260248201527f4f776e61626c653a2063616c6c6572206973206e6f7420746865206f776e6572604482015290519081900360640190fd5b61114c8161145b565b50565b303b1590565b3390565b600081611168575060006111ba565b816000611174826114ff565b9050607081101561118d578060700382901b91506111a0565b60708111156111a0576070810382901c91505b613fff0160701b6001600160701b03919091161760801b90505b919050565b6000617fff6001600160801b03608085811c8216607090811c8416939186901c90921690911c81169082141561128a5780617fff1415611255576001600160801b0319858116908516141561121f57505050600160ff1b81168218610cac565b600160ff1b6001600160801b031986861816141561124257505050818117610cac565b50600160ef1b61ffff029150610cac9050565b600160801b600160ff1b0384166112795750600160ef1b61ffff029150610cac9050565b505050600160ff1b81168218610cac565b80617fff14156112c957600160801b600160ff1b0385166112b85750600160ef1b61ffff029150610cac9050565b505050600160ff1b82168118610cac565b6001600160701b03608086901c16826112e557600192506112ec565b600160701b175b6001600160701b03608086901c1682611308576001925061130f565b600160701b175b908102908161133d57600160ff1b8787181661132c576000611332565b600160ff1b5b945050505050610cac565b928201926000600160e11b83101561137157600160e01b83101561136957611364836114ff565b61136c565b60e05b611374565b60e15b9050614070818601101561138f57600094506000925061142c565b6140e081860110156113d2576140708510156113b457846140700383901c92506113c9565b6140708511156113c957614070850383901b92505b6000945061142c565b61c0dd81860111156113ec57617fff94506000925061142c565b6070811115611403576070810383901c9250611416565b6070811015611416578060700383901b92505b6001600160701b03831692506140df8186010394505b82607086901b888a186001607f1b60801b1660801c6001600160801b0316171760801b95505050505050610cac565b6001600160a01b0381166114a357604051600160e51b62461bcd0281526004018080602001828103825260268152602001806115a26026913960400191505060405180910390fd5b6033546040516001600160a01b038084169216907f8be0079c531659141344cd1fd0a4f28419497f9722a3daafe3b4186f6b6457e090600090a3603380546001600160a01b0319166001600160a01b0392909216919091179055565b600080821161150d57600080fd5b6000600160801b831061152257608092831c92015b68010000000000000000831061153a57604092831c92015b600160201b831061154d57602092831c92015b62010000831061155f57601092831c92015b610100831061157057600892831c92015b6010831061158057600492831c92015b6004831061159057600292831c92015b60028310610cac576001019291505056fe4f776e61626c653a206e6577206f776e657220697320746865207a65726f2061646472657373436f6e747261637420696e7374616e63652068617320616c7265616479206265656e20696e697469616c697a6564a165627a7a72305820152521e15aba49c0a7807f4a17fa8e814766cbca8e28b886bb170fe4ca66e8bb0029",
  "source": "// Settlement of trades\r\n// (c) Kallol Borah, 2021 \r\n\r\npragma solidity 0.5.7;\r\n\r\nimport \"./interfaces/IPostTrade.sol\";\r\nimport \"./interfaces/IOrderPool.sol\";\r\nimport \"./interfaces/VerifiedClient.sol\";\r\nimport \"./registry/Security.sol\";\r\nimport \"abdk-libraries-solidity/ABDKMathQuad.sol\";\r\nimport \"@openzeppelin/upgrades/contracts/Initializable.sol\";\r\nimport \"@openzeppelin/contracts-ethereum-package/contracts/ownership/Ownable.sol\";\r\n \r\ncontract PostTrade is IPostTrade, Initializable, Ownable{\r\n\r\n    using ABDKMathQuad for uint256;\r\n    using ABDKMathQuad for int256;\r\n    using ABDKMathQuad for bytes16;\r\n\r\n    struct settlement{      address transferor;\r\n                            address transferee;\r\n                            address security;\r\n                            bytes32 securityName;\r\n                            bytes32 status;\r\n                            bytes32 transferorDPID;\r\n                            bytes32 transfereeDPID;\r\n                            bytes32 isin;\r\n                            bytes32 company;\r\n                            bytes32 currency;\r\n                            bytes16 consideration;\r\n                            uint256 unitsToTransfer;\r\n                            uint executionDate;\r\n    }\r\n\r\n    mapping(bytes32 => settlement) settlements;\r\n\r\n    bytes32[] trades;\r\n\r\n    address client;\r\n    address trade;\r\n\r\n    function initialize (address _client, address _trade) public initializer{\r\n        Ownable.initialize(msg.sender);\r\n        client = _client;\r\n        trade = _trade;\r\n    }\r\n    \r\n    function postSettlement(bytes32[] calldata a, uint[] calldata b, address[] calldata c ) external {\r\n        require(trade==msg.sender);\r\n        trades.push(a[4]);\r\n        settlements[a[4]].transferor = c[0];\r\n        settlements[a[4]].transferee = c[1];\r\n        settlements[a[4]].security = c[2];\r\n        settlements[a[4]].securityName = a[6];\r\n        settlements[a[4]].isin = a[0];\r\n        settlements[a[4]].company = a[1];\r\n        settlements[a[4]].consideration = ABDKMathQuad.mul(ABDKMathQuad.fromUInt(b[1]), ABDKMathQuad.fromUInt(b[0]));\r\n        settlements[a[4]].currency = a[5];\r\n        settlements[a[4]].unitsToTransfer = b[0];\r\n        settlements[a[4]].executionDate = now;\r\n        settlements[a[4]].transferorDPID = a[2];\r\n        settlements[a[4]].transfereeDPID = a[3];\r\n        settlements[a[4]].status = \"Pending\";\r\n\r\n    }\r\n\r\n    function getSettlementRequests(bytes32 _countryCode, bytes32 dpid) external view returns(bytes32[] memory){\r\n        uint entries = trades.length;\r\n        bytes32[] memory result = new bytes32[](entries);\r\n        uint entry=0;\r\n        bytes32 role = VerifiedClient(client).getRole(msg.sender, _countryCode);\r\n        if(role==\"DP\"){\r\n            for(uint i=0; i<trades.length; i++){\r\n                if((settlements[trades[i]].transferorDPID==dpid ||\r\n                    settlements[trades[i]].transfereeDPID==dpid) &&\r\n                    settlements[trades[i]].status==\"Pending\"){\r\n                    result[entry]=trades[i];\r\n                    entry=entry+1;\r\n                }\r\n            }\r\n        }\r\n        return result;\r\n    }\r\n\r\n    function getSettlementRequest(bytes32 ref) external view returns(  address[] memory, \r\n                                                                        bytes32[] memory,\r\n                                                                        uint256[] memory,\r\n                                                                        bytes16 ){\r\n                                                                       \r\n        uint[] memory b = new uint[](2);\r\n        b[1]=settlements[ref].unitsToTransfer;\r\n        b[2]=settlements[ref].executionDate;\r\n        bytes32[] memory a = new bytes32[](6);  \r\n        a[1]=settlements[ref].isin;\r\n        a[2]=settlements[ref].company;\r\n        a[3]=settlements[ref].transferorDPID;\r\n        a[4]=settlements[ref].transfereeDPID;\r\n        a[5]=settlements[ref].currency;\r\n        a[6]=settlements[ref].securityName;\r\n        address[] memory c = new address[](2);\r\n        c[1]=settlements[ref].transferor;\r\n        c[2]=settlements[ref].transferee;\r\n        return (c, a, b, settlements[ref].consideration);\r\n    \r\n    }\r\n\r\n    function setSettlementStatus(bytes32 ref, bytes32 _countryCode, bytes32 status) external {\r\n        require(status==\"Confirm\" || status==\"Reject\");\r\n        bytes32 role = VerifiedClient(client).getRole(msg.sender, _countryCode);\r\n        if(role==\"DP\"){\r\n            settlements[ref].status = status;\r\n            Security(settlements[ref].security).transferFrom(settlements[ref].transferor, \r\n                                                            settlements[ref].transferee, \r\n                                                            settlements[ref].unitsToTransfer);\r\n        }\r\n    }\r\n\r\n}",
  "sourcePath": "D:/Code/verified-trades/contracts/PostTrade.sol",
  "compiler": {
    "name": "solc",
    "version": "0.5.7+commit.6da8b019.Emscripten.clang"
  },
  "schemaVersion": "3.3.3",
  "updatedAt": "2021-05-31T03:20:57.775Z",
  "networkType": "ethereum",
  "devdoc": {
    "methods": {
      "initialize(address)": {
        "details": "Initializes the contract setting the deployer as the initial owner."
      },
      "isOwner()": {
        "details": "Returns true if the caller is the current owner."
      },
      "owner()": {
        "details": "Returns the address of the current owner."
      },
      "renounceOwnership()": {
        "details": "Leaves the contract without owner. It will not be possible to call `onlyOwner` functions anymore. Can only be called by the current owner.     * > Note: Renouncing ownership will leave the contract without an owner, thereby removing any functionality that is only available to the owner."
      },
      "transferOwnership(address)": {
        "details": "Transfers ownership of the contract to a new account (`newOwner`). Can only be called by the current owner."
      }
    }
  },
  "userdoc": {
    "methods": {}
  }
}