{
  "contractName": "PostTrade",
  "abi": [
    {
      "anonymous": false,
      "inputs": [
        {
          "indexed": true,
          "name": "transferor",
          "type": "address"
        },
        {
          "indexed": true,
          "name": "transferee",
          "type": "address"
        },
        {
          "indexed": false,
          "name": "unitsToTransfer",
          "type": "uint256"
        },
        {
          "indexed": false,
          "name": "security",
          "type": "address"
        },
        {
          "indexed": false,
          "name": "price",
          "type": "uint256"
        },
        {
          "indexed": false,
          "name": "currency",
          "type": "bytes32"
        }
      ],
      "name": "tradeSettled",
      "type": "event"
    },
    {
      "constant": false,
      "inputs": [
        {
          "name": "_client",
          "type": "address"
        },
        {
          "name": "_trade",
          "type": "address"
        },
        {
          "name": "_securitiesregistry",
          "type": "address"
        }
      ],
      "name": "initialize",
      "outputs": [],
      "payable": false,
      "stateMutability": "nonpayable",
      "type": "function"
    },
    {
      "constant": false,
      "inputs": [
        {
          "components": [
            {
              "name": "transferor",
              "type": "address"
            },
            {
              "name": "transferee",
              "type": "address"
            },
            {
              "name": "security",
              "type": "address"
            },
            {
              "name": "securityName",
              "type": "bytes32"
            },
            {
              "name": "status",
              "type": "bytes32"
            },
            {
              "name": "transferorDPID",
              "type": "bytes32"
            },
            {
              "name": "transfereeDPID",
              "type": "bytes32"
            },
            {
              "name": "isin",
              "type": "bytes32"
            },
            {
              "name": "company",
              "type": "bytes32"
            },
            {
              "name": "currency",
              "type": "bytes32"
            },
            {
              "name": "price",
              "type": "uint256"
            },
            {
              "name": "consideration",
              "type": "uint256"
            },
            {
              "name": "unitsToTransfer",
              "type": "uint256"
            },
            {
              "name": "executionDate",
              "type": "uint256"
            },
            {
              "name": "orderPool",
              "type": "address"
            },
            {
              "name": "partyRef",
              "type": "bytes32"
            },
            {
              "name": "counterpartyRef",
              "type": "bytes32"
            }
          ],
          "name": "newTrade",
          "type": "tuple"
        },
        {
          "name": "ref",
          "type": "bytes32"
        }
      ],
      "name": "postSettlement",
      "outputs": [],
      "payable": false,
      "stateMutability": "nonpayable",
      "type": "function"
    },
    {
      "constant": true,
      "inputs": [
        {
          "name": "dpid",
          "type": "bytes32"
        }
      ],
      "name": "getSettlementRequests",
      "outputs": [
        {
          "name": "",
          "type": "bytes32[]"
        }
      ],
      "payable": false,
      "stateMutability": "view",
      "type": "function"
    },
    {
      "constant": true,
      "inputs": [
        {
          "name": "ref",
          "type": "bytes32"
        }
      ],
      "name": "getSettlementRequest",
      "outputs": [
        {
          "components": [
            {
              "name": "transferor",
              "type": "address"
            },
            {
              "name": "transferee",
              "type": "address"
            },
            {
              "name": "security",
              "type": "address"
            },
            {
              "name": "securityName",
              "type": "bytes32"
            },
            {
              "name": "status",
              "type": "bytes32"
            },
            {
              "name": "transferorDPID",
              "type": "bytes32"
            },
            {
              "name": "transfereeDPID",
              "type": "bytes32"
            },
            {
              "name": "isin",
              "type": "bytes32"
            },
            {
              "name": "company",
              "type": "bytes32"
            },
            {
              "name": "currency",
              "type": "bytes32"
            },
            {
              "name": "price",
              "type": "uint256"
            },
            {
              "name": "consideration",
              "type": "uint256"
            },
            {
              "name": "unitsToTransfer",
              "type": "uint256"
            },
            {
              "name": "executionDate",
              "type": "uint256"
            },
            {
              "name": "orderPool",
              "type": "address"
            },
            {
              "name": "partyRef",
              "type": "bytes32"
            },
            {
              "name": "counterpartyRef",
              "type": "bytes32"
            }
          ],
          "name": "",
          "type": "tuple"
        }
      ],
      "payable": false,
      "stateMutability": "view",
      "type": "function"
    },
    {
      "constant": false,
      "inputs": [
        {
          "name": "ref",
          "type": "bytes32"
        },
        {
          "name": "status",
          "type": "bytes32"
        }
      ],
      "name": "setSettlementStatus",
      "outputs": [],
      "payable": false,
      "stateMutability": "nonpayable",
      "type": "function"
    }
  ],
  "bytecode": "0x608060405234801561001057600080fd5b50611065806100206000396000f3fe608060405234801561001057600080fd5b50600436106100575760003560e01c8063049671591461005c5780630a985aa4146100715780632ac53ebd1461008457806379a7dc0e146100ad578063c0c53b8b146100cd575b600080fd5b61006f61006a366004610bee565b6100e0565b005b61006f61007f366004610c58565b610551565b610097610092366004610bd0565b6106a1565b6040516100a49190610f06565b60405180910390f35b6100c06100bb366004610bd0565b6107a4565b6040516100a49190610f8e565b61006f6100db366004610b5d565b6108a3565b80600160c81b66436f6e6669726d021480610106575080600160d21b6514995a9958dd02145b61010f57600080fd5b603554604051600160e01b634427673302815260009182916001600160a01b0390911690634427673390610147903390600401610ed0565b604080518083038186803b15801561015e57600080fd5b505afa158015610172573d6000803e3d6000fd5b505050506040513d601f19601f820116820180604052506101969190810190610c28565b9150915081600160f41b61044502141561054b57600084815260336020526040908190206004808201869055600282015482546001840154600c909401549451600160e01b6323b872dd0281526001600160a01b03928316956323b872dd9561020795938516941692909101610ede565b602060405180830381600087803b15801561022157600080fd5b505af1158015610235573d6000803e3d6000fd5b505050506040513d601f19601f820116820180604052506102599190810190610baa565b5060375460008581526033602052604090206007810154600a909101546001600160a01b0390921691637cee1170919061029290610971565b600088815260336020526040908190208054600190910154915163ffffffff861660e01b81526102d49493926001600160a01b03928316921690600401610f25565b600060405180830381600087803b1580156102ee57600080fd5b505af1158015610302573d6000803e3d6000fd5b50505060008581526033602052604090819020600e810154600f8201546010909201549251600160e11b6309e722a30281526001600160a01b0390911693506313ce4546926103549291600401610f63565b600060405180830381600087803b15801561036e57600080fd5b505af1158015610382573d6000803e3d6000fd5b5050603654604051600160e11b63210c1aa70281526001600160a01b039091169250634218354e91506103b9908790600401610f17565b600060405180830381600087803b1580156103d357600080fd5b505af11580156103e7573d6000803e3d6000fd5b5050506000858152603360205260409081902060018101548154600c8301546002840154600a85015460099095015495516001600160a01b039485169750928416957fae811e72af8be84435303078769be8c032ca1288217c49c9fb2c08fdfa0fe6899561045b9593949390921692610f9d565b60405180910390a360005b60008281526034602052604090205481101561054957600082815260346020526040902080548691908390811061049957fe5b9060005260206000200154141561054157600082815260346020526040902054600019018114156104ee5760008281526034602052604090208054829081106104de57fe5b6000918252602082200155610541565b600082815260346020526040902080546001830190811061050b57fe5b906000526020600020015460346000848152602001908152602001600020828154811061053457fe5b6000918252602090912001555b600101610466565b505b50505050565b6036546001600160a01b0316331461056857600080fd5b60a082013560008181526034602090815260408083208054600181810183559185528385200186905560c08701358085528285208054808401825590865284862001879055958452603383529281902080546001600160a01b03199081166001600160a01b038935811691909117835594820180548216948901358616949094179093556002810180548416928801358516929092179091556060860135600382015560e086013560078201556101008601356008820155610160860135600b820155610140860135600a8201556101208601356009820155610180860135600c8201556101a0860135600d8201556005810193909355600683019390935560808401356004830155600e820180549093166101c0850135909116179091556101e0820135600f82015561020090910135601090910155565b603554604051600160e01b63442767330281526060916000916001600160a01b03909116906344276733906106da903390600401610ed0565b604080518083038186803b1580156106f157600080fd5b505afa158015610705573d6000803e3d6000fd5b505050506040513d601f19601f820116820180604052506107299190810190610c28565b50905080600160f41b61044502141561079d576000838152603460209081526040918290208054835181840281018401909452808452909183018282801561079057602002820191906000526020600020905b81548152602001906001019080831161077c575b505050505091505061079f565b505b919050565b6107ac610a87565b816107b657600080fd5b6107be610a87565b5050604080516102208101825260008381526033602081815284832080546001600160a01b039081168652600182015481168387015260028201548116968601969096526003810154606086015260048101546080860152600581015460a0860152600681015460c0860152600781015460e086015260088101546101008601526009810154610120860152600a810154610140860152600b810154610160860152600c810154610180860152600d8101546101a0860152600e8101549095166101c0850152600f8501546101e0850152949091529092526010015461020082015290565b600054610100900460ff16806108bc57506108bc6109dd565b806108ca575060005460ff16155b6108f257604051600160e51b62461bcd0281526004016108e990610f7e565b60405180910390fd5b600054610100900460ff1615801561091d576000805460ff1961ff0019909116610100171660011790555b603580546001600160a01b038087166001600160a01b031992831617909255603680548684169083161790556037805492851692909116919091179055801561054b576000805461ff001916905550505050565b6000816109805750600061079f565b81600061098c826109e3565b905060708110156109a5578060700382901b91506109b8565b60708111156109b8576070810382901c91505b613fff0160701b6dffffffffffffffffffffffffffff919091161760801b905061079f565b303b1590565b60008082116109f157600080fd5b6000600160801b8310610a0657608092831c92015b680100000000000000008310610a1e57604092831c92015b6401000000008310610a3257602092831c92015b620100008310610a4457601092831c92015b6101008310610a5557600892831c92015b60108310610a6557600492831c92015b60048310610a7557600292831c92015b60028310610a81576001015b92915050565b6040805161022081018252600080825260208201819052918101829052606081018290526080810182905260a0810182905260c0810182905260e08101829052610100810182905261012081018290526101408101829052610160810182905261018081018290526101a081018290526101c081018290526101e0810182905261020081019190915290565b6000610b1f8235610fe5565b9392505050565b6000610b1f8251611015565b6000610b1f8235611006565b6000610b1f8251611006565b6000610220828403121561079d57600080fd5b600080600060608486031215610b7257600080fd5b6000610b7e8686610b13565b9350506020610b8f86828701610b13565b9250506040610ba086828701610b13565b9150509250925092565b600060208284031215610bbc57600080fd5b6000610bc88484610b26565b949350505050565b600060208284031215610be257600080fd5b6000610bc88484610b32565b60008060408385031215610c0157600080fd5b6000610c0d8585610b32565b9250506020610c1e85828601610b32565b9150509250929050565b60008060408385031215610c3b57600080fd5b6000610c478585610b3e565b9250506020610c1e85828601610b3e565b6000806102408385031215610c6c57600080fd5b6000610c788585610b4a565b925050610220610c1e85828601610b32565b6000610c968383610d14565b505060200190565b610ca78161101a565b82525050565b610ca781610fe5565b6000610cc182610fd8565b610ccb8185610fdc565b9350610cd683610fd2565b60005b82811015610d0157610cec868351610c8a565b9550610cf782610fd2565b9150600101610cd9565b5093949350505050565b610ca781610ff0565b610ca781611006565b6000610d2a602e83610fdc565b7f436f6e747261637420696e7374616e63652068617320616c726561647920626581527f656e20696e697469616c697a6564000000000000000000000000000000000000602082015260400192915050565b8051610220830190610d8e8482610cad565b506020820151610da16020850182610cad565b506040820151610db46040850182610cad565b506060820151610dc76060850182610d14565b506080820151610dda6080850182610d14565b5060a0820151610ded60a0850182610d14565b5060c0820151610e0060c0850182610d14565b5060e0820151610e1360e0850182610d14565b50610100820151610e28610100850182610d14565b50610120820151610e3d610120850182610d14565b50610140820151610e52610140850182610d14565b50610160820151610e67610160850182610d14565b50610180820151610e7c610180850182610d14565b506101a0820151610e916101a0850182610d14565b506101c0820151610ea66101c0850182610cad565b506101e0820151610ebb6101e0850182610d14565b5061020082015161054b610200850182610d14565b60208101610a818284610c9e565b60608101610eec8286610cad565b610ef96020830185610cad565b610bc86040830184610d14565b60208082528101610b1f8184610cb6565b60208101610a818284610d14565b60808101610f338287610d14565b610f406020830186610d0b565b610f4d6040830185610cad565b610f5a6060830184610cad565b95945050505050565b60408101610f718285610d14565b610b1f6020830184610d14565b60208082528101610a8181610d1d565b6102208101610a818284610d7c565b60808101610fab8287610d14565b610fb86020830186610cad565b610fc56040830185610d14565b610f5a6060830184610d14565b60200190565b5190565b90815260200190565b6000610a8182611009565b6fffffffffffffffffffffffffffffffff191690565b90565b6001600160a01b031690565b151590565b6000610a81826000610a8182610fe556fea265627a7a72305820f8d6fb6c0d1d281401a3dd8c338d7742468901b05480266ce0ddcd2e9c6859a36c6578706572696d656e74616cf50037",
  "source": "// Settlement of trades\r\n// (c) Kallol Borah, 2021 \r\n\r\npragma solidity 0.5.7;\r\npragma experimental ABIEncoderV2;\r\n\r\nimport \"./interfaces/IPostTrade.sol\";\r\nimport \"./interfaces/IOrderPool.sol\";\r\nimport \"./interfaces/ITrade.sol\";\r\nimport \"./interfaces/ISecuritiesRegistry.sol\";\r\nimport \"./interfaces/VerifiedClient.sol\";\r\nimport \"./registry/Security.sol\";\r\nimport \"abdk-libraries-solidity/ABDKMathQuad.sol\";\r\nimport \"@openzeppelin/upgrades/contracts/Initializable.sol\";\r\n \r\ncontract PostTrade is IPostTrade, Initializable {\r\n\r\n    using ABDKMathQuad for uint256;\r\n    using ABDKMathQuad for int256;\r\n    using ABDKMathQuad for bytes16;\r\n\r\n    mapping(bytes32 => IPostTrade.settlement) settlements;\r\n\r\n    //mapping DPs to trades they are part of\r\n    mapping(bytes32 => bytes32[]) private trades;\r\n\r\n    address client;\r\n    address trade;\r\n    address securitiesregistry;\r\n\r\n    event tradeSettled(address indexed transferor,\r\n                        address indexed transferee,\r\n                        uint256 unitsToTransfer,\r\n                        address security,\r\n                        uint256 price,\r\n                        bytes32 currency\r\n                    );\r\n\r\n    function initialize (address _client, address _trade, address _securitiesregistry) public initializer{\r\n        client = _client;\r\n        trade = _trade;\r\n        securitiesregistry = _securitiesregistry;\r\n    }\r\n    \r\n    function postSettlement(IPostTrade.settlement calldata newTrade, bytes32 ref) external {\r\n        require(trade==msg.sender);\r\n        trades[newTrade.transferorDPID].push(ref);\r\n        trades[newTrade.transfereeDPID].push(ref);\r\n        settlements[ref].transferor = newTrade.transferor;\r\n        settlements[ref].transferee = newTrade.transferee;\r\n        settlements[ref].security = newTrade.security;\r\n        settlements[ref].securityName = newTrade.securityName;\r\n        settlements[ref].isin = newTrade.isin;\r\n        settlements[ref].company = newTrade.company;\r\n        settlements[ref].consideration = newTrade.consideration;\r\n        settlements[ref].price = newTrade.price;\r\n        settlements[ref].currency = newTrade.currency;\r\n        settlements[ref].unitsToTransfer = newTrade.unitsToTransfer;\r\n        settlements[ref].executionDate = newTrade.executionDate;\r\n        settlements[ref].transferorDPID = newTrade.transferorDPID;\r\n        settlements[ref].transfereeDPID = newTrade.transfereeDPID;\r\n        settlements[ref].status = newTrade.status;\r\n        settlements[ref].orderPool = newTrade.orderPool;\r\n        settlements[ref].partyRef = newTrade.partyRef;\r\n        settlements[ref].counterpartyRef = newTrade.counterpartyRef;\r\n    }\r\n\r\n    function getSettlementRequests(bytes32 dpid) external view returns(bytes32[] memory){\r\n        (bytes32 role, ) = VerifiedClient(client).getRole(msg.sender);\r\n        if(role==\"DP\"){\r\n            return trades[dpid];\r\n        } \r\n    }\r\n\r\n    function getSettlementRequest(bytes32 ref) external view returns(settlement memory){\r\n        require(ref!=\"\"); \r\n        IPostTrade.settlement memory response = IPostTrade.settlement({\r\n            transferor : settlements[ref].transferor,\r\n            transferee : settlements[ref].transferee,\r\n            security : settlements[ref].security,\r\n            securityName : settlements[ref].securityName,\r\n            status : settlements[ref].status,\r\n            transferorDPID : settlements[ref].transferorDPID,\r\n            transfereeDPID : settlements[ref].transfereeDPID,\r\n            isin : settlements[ref].isin,\r\n            company : settlements[ref].company,\r\n            currency : settlements[ref].currency,\r\n            price : settlements[ref].price,\r\n            consideration : settlements[ref].consideration,\r\n            unitsToTransfer : settlements[ref].unitsToTransfer,\r\n            executionDate : settlements[ref].executionDate,\r\n            orderPool : settlements[ref].orderPool,\r\n            partyRef : settlements[ref].partyRef,\r\n            counterpartyRef : settlements[ref].counterpartyRef\r\n        });\r\n        return response;                                                              \r\n    }\r\n    \r\n    function setSettlementStatus(bytes32 ref, bytes32 status) external{\r\n        require(status==\"Confirm\" || status==\"Reject\");\r\n        (bytes32 role, bytes32 id) = VerifiedClient(client).getRole(msg.sender);\r\n        if(role==\"DP\"){\r\n            settlements[ref].status = status;\r\n            Security(settlements[ref].security).transferFrom(settlements[ref].transferor, \r\n                                                            settlements[ref].transferee, \r\n                                                            settlements[ref].unitsToTransfer);\r\n            ISecuritiesRegistry(securitiesregistry).registerPrice(settlements[ref].isin, \r\n                                                                ABDKMathQuad.fromUInt(settlements[ref].price),\r\n                                                                settlements[ref].transferor, \r\n                                                                settlements[ref].transferee);\r\n            IOrderPool(settlements[ref].orderPool).orderFilled(settlements[ref].partyRef, settlements[ref].counterpartyRef);\r\n            ITrade(trade).tradeSettled(ref);\r\n            emit tradeSettled(settlements[ref].transferor, \r\n                                settlements[ref].transferee, \r\n                                settlements[ref].unitsToTransfer,\r\n                                settlements[ref].security,\r\n                                settlements[ref].price,\r\n                                settlements[ref].currency\r\n                                );\r\n            for(uint i=0; i<trades[id].length; i++){\r\n                if(trades[id][i]==ref){\r\n                    if(i==trades[id].length-1)\r\n                        delete trades[id][i];\r\n                    else\r\n                        trades[id][i] = trades[id][i+1];\r\n                }\r\n            }            \r\n        }\r\n    }\r\n\r\n}",
  "sourcePath": "D:\\Code\\verified-trades\\contracts\\PostTrade.sol",
  "compiler": {
    "name": "solc",
    "version": "0.5.7+commit.6da8b019.Emscripten.clang"
  },
  "schemaVersion": "3.4.3",
  "updatedAt": "2022-02-05T15:49:24.545Z",
  "networkType": "ethereum",
  "devdoc": {
    "methods": {}
  },
  "userdoc": {
    "methods": {}
  }
}