{
  "contractName": "PostTrade",
  "abi": [
    {
      "constant": false,
      "inputs": [],
      "name": "renounceOwnership",
      "outputs": [],
      "payable": false,
      "stateMutability": "nonpayable",
      "type": "function"
    },
    {
      "constant": true,
      "inputs": [],
      "name": "owner",
      "outputs": [
        {
          "name": "",
          "type": "address"
        }
      ],
      "payable": false,
      "stateMutability": "view",
      "type": "function"
    },
    {
      "constant": true,
      "inputs": [],
      "name": "isOwner",
      "outputs": [
        {
          "name": "",
          "type": "bool"
        }
      ],
      "payable": false,
      "stateMutability": "view",
      "type": "function"
    },
    {
      "constant": false,
      "inputs": [
        {
          "name": "newOwner",
          "type": "address"
        }
      ],
      "name": "transferOwnership",
      "outputs": [],
      "payable": false,
      "stateMutability": "nonpayable",
      "type": "function"
    },
    {
      "anonymous": false,
      "inputs": [
        {
          "indexed": true,
          "name": "previousOwner",
          "type": "address"
        },
        {
          "indexed": true,
          "name": "newOwner",
          "type": "address"
        }
      ],
      "name": "OwnershipTransferred",
      "type": "event"
    },
    {
      "constant": false,
      "inputs": [
        {
          "name": "_client",
          "type": "address"
        },
        {
          "name": "_trade",
          "type": "address"
        },
        {
          "name": "_securitiesregistry",
          "type": "address"
        }
      ],
      "name": "initialize",
      "outputs": [],
      "payable": false,
      "stateMutability": "nonpayable",
      "type": "function"
    },
    {
      "constant": false,
      "inputs": [
        {
          "name": "sender",
          "type": "address"
        }
      ],
      "name": "initialize",
      "outputs": [],
      "payable": false,
      "stateMutability": "nonpayable",
      "type": "function"
    },
    {
      "constant": false,
      "inputs": [
        {
          "components": [
            {
              "name": "transferor",
              "type": "address"
            },
            {
              "name": "transferee",
              "type": "address"
            },
            {
              "name": "security",
              "type": "address"
            },
            {
              "name": "securityName",
              "type": "bytes32"
            },
            {
              "name": "status",
              "type": "bytes32"
            },
            {
              "name": "transferorDPID",
              "type": "bytes32"
            },
            {
              "name": "transfereeDPID",
              "type": "bytes32"
            },
            {
              "name": "isin",
              "type": "bytes32"
            },
            {
              "name": "company",
              "type": "bytes32"
            },
            {
              "name": "currency",
              "type": "bytes32"
            },
            {
              "name": "price",
              "type": "uint256"
            },
            {
              "name": "consideration",
              "type": "uint256"
            },
            {
              "name": "unitsToTransfer",
              "type": "uint256"
            },
            {
              "name": "executionDate",
              "type": "uint256"
            }
          ],
          "name": "newTrade",
          "type": "tuple"
        },
        {
          "name": "ref",
          "type": "bytes32"
        }
      ],
      "name": "postSettlement",
      "outputs": [],
      "payable": false,
      "stateMutability": "nonpayable",
      "type": "function"
    },
    {
      "constant": true,
      "inputs": [
        {
          "name": "dpid",
          "type": "bytes32"
        }
      ],
      "name": "getSettlementRequests",
      "outputs": [
        {
          "name": "",
          "type": "bytes32[]"
        }
      ],
      "payable": false,
      "stateMutability": "view",
      "type": "function"
    },
    {
      "constant": true,
      "inputs": [
        {
          "name": "ref",
          "type": "bytes32"
        }
      ],
      "name": "getSettlementRequest",
      "outputs": [
        {
          "components": [
            {
              "name": "transferor",
              "type": "address"
            },
            {
              "name": "transferee",
              "type": "address"
            },
            {
              "name": "security",
              "type": "address"
            },
            {
              "name": "securityName",
              "type": "bytes32"
            },
            {
              "name": "status",
              "type": "bytes32"
            },
            {
              "name": "transferorDPID",
              "type": "bytes32"
            },
            {
              "name": "transfereeDPID",
              "type": "bytes32"
            },
            {
              "name": "isin",
              "type": "bytes32"
            },
            {
              "name": "company",
              "type": "bytes32"
            },
            {
              "name": "currency",
              "type": "bytes32"
            },
            {
              "name": "price",
              "type": "uint256"
            },
            {
              "name": "consideration",
              "type": "uint256"
            },
            {
              "name": "unitsToTransfer",
              "type": "uint256"
            },
            {
              "name": "executionDate",
              "type": "uint256"
            }
          ],
          "name": "",
          "type": "tuple"
        }
      ],
      "payable": false,
      "stateMutability": "view",
      "type": "function"
    },
    {
      "constant": false,
      "inputs": [
        {
          "name": "ref",
          "type": "bytes32"
        },
        {
          "name": "status",
          "type": "bytes32"
        }
      ],
      "name": "setSettlementStatus",
      "outputs": [],
      "payable": false,
      "stateMutability": "nonpayable",
      "type": "function"
    }
  ],
  "bytecode": "0x608060405261115f806100136000396000f3fe608060405234801561001057600080fd5b506004361061009e5760003560e01c80638f32d59b116100665780638f32d59b1461011e578063c0c53b8b14610133578063c4d66de814610146578063dfa41c4814610159578063f2fde38b1461016c5761009e565b806304967159146100a35780632ac53ebd146100b8578063715018a6146100e157806379a7dc0e146100e95780638da5cb5b14610109575b600080fd5b6100b66100b1366004610d0f565b61017f565b005b6100cb6100c6366004610cd3565b610382565b6040516100d89190611053565b60405180910390f35b6100b6610563565b6100fc6100f7366004610cd3565b6105dd565b6040516100d891906110bd565b6101116106b7565b6040516100d8919061100f565b6101266106c6565b6040516100d89190611064565b6100b6610141366004610c68565b6106ec565b6100b6610154366004610c42565b6107ba565b6100b6610167366004610d49565b610890565b6100b661017a366004610c42565b6109ac565b80600160c81b66436f6e6669726d0214806101a5575080600160d21b6514995a9958dd02145b6101ae57600080fd5b606854604051600160e01b63442767330281526000916001600160a01b0316906344276733906101e290339060040161101d565b60206040518083038186803b1580156101fa57600080fd5b505afa15801561020e573d6000803e3d6000fd5b505050506040513d601f19601f820116820180604052506102329190810190610cf1565b905080600160f41b61044502141561037d57600083815260666020526040902060048101839055606a546007820154600a909201546001600160a01b0390911691639d052f8f91610282906109df565b6040518363ffffffff1660e01b815260040161029f929190611072565b600060405180830381600087803b1580156102b957600080fd5b505af11580156102cd573d6000803e3d6000fd5b50505060008481526066602052604090819020600281015481546001830154600c909301549351600160e01b6323b872dd0281526001600160a01b0392831695506323b872dd946103299492841693909216919060040161102b565b602060405180830381600087803b15801561034357600080fd5b505af1158015610357573d6000803e3d6000fd5b505050506040513d601f19601f8201168201806040525061037b9190810190610cb5565b505b505050565b6067546040805182815260208084028201019091526060919082908280156103b4578160200160208202803883390190505b50606854604051600160e01b6344276733028152919250600091829182916001600160a01b03909116906344276733906103f290339060040161101d565b60206040518083038186803b15801561040a57600080fd5b505afa15801561041e573d6000803e3d6000fd5b505050506040513d601f19601f820116820180604052506104429190810190610cf1565b905080600160f41b61044502141561055657600091505b6067548210156105565786606660006067858154811061047557fe5b906000526020600020015481526020019081526020016000206005015414806104ca57508660666000606785815481106104ab57fe5b9060005260206000200154815260200190815260200160002060060154145b801561050f575060666000606784815481106104e257fe5b9060005260206000200154815260200190815260200160002060040154600160c81b6650656e64696e6702145b1561054b576067828154811061052157fe5b906000526020600020015484848151811061053857fe5b6020026020010181815250508260010192505b600190910190610459565b509193505050505b919050565b61056b6106c6565b61059357604051600160e51b62461bcd02815260040161058a9061109d565b60405180910390fd5b6033546040516000916001600160a01b0316907f8be0079c531659141344cd1fd0a4f28419497f9722a3daafe3b4186f6b6457e0908390a3603380546001600160a01b0319169055565b6105e5610b7e565b816105ef57600080fd5b6105f7610b7e565b5050604080516101c08101825260008381526066602081815284832080546001600160a01b0390811686526001820154811683870152600282015416958501959095526003850154606085015260048501546080850152600585015460a0850152600685015460c0850152600785015460e085015260088501546101008501526009850154610120850152600a850154610140850152600b850154610160850152600c85015461018085015294909152909252600d01546101a082015290565b6033546001600160a01b031690565b6033546000906001600160a01b03166106dd610a4b565b6001600160a01b031614905090565b600054610100900460ff16806107055750610705610a4f565b80610713575060005460ff16155b61073257604051600160e51b62461bcd02815260040161058a906110ad565b600054610100900460ff1615801561075d576000805460ff1961ff0019909116610100171660011790555b610766336107ba565b606880546001600160a01b038087166001600160a01b03199283161790925560698054868416908316179055606a805492851692909116919091179055801561037b576000805461ff001916905550505050565b600054610100900460ff16806107d357506107d3610a4f565b806107e1575060005460ff16155b61080057604051600160e51b62461bcd02815260040161058a906110ad565b600054610100900460ff1615801561082b576000805460ff1961ff0019909116610100171660011790555b603380546001600160a01b0319166001600160a01b0384811691909117918290556040519116906000907f8be0079c531659141344cd1fd0a4f28419497f9722a3daafe3b4186f6b6457e0908290a3801561088c576000805461ff00191690555b5050565b6069546001600160a01b031633146108a757600080fd5b6067805460018082019092557f9787eeb91fe3101235e4a76063c7023ecb40f923f97916639c598592fa30d6ae01829055600091825260666020908152604092839020805485356001600160a01b039081166001600160a01b031992831617835593820180549387013585169382169390931790925560028101805494860135909316939091169290921790556060820135600382015560e082013560078201556101008201356008820155610160820135600b820155610140820135600a8201556101208201356009820155610180820135600c8201556101a0820135600d82015560a0820135600582015560c08201356006820155608090910135600490910155565b6109b46106c6565b6109d357604051600160e51b62461bcd02815260040161058a9061109d565b6109dc81610a55565b50565b6000816109ee5750600061055e565b8160006109fa82610ada565b90506070811015610a13578060700382901b9150610a26565b6070811115610a26576070810382901c91505b613fff0160701b6dffffffffffffffffffffffffffff919091161760801b905061055e565b3390565b303b1590565b6001600160a01b038116610a7e57604051600160e51b62461bcd02815260040161058a9061108d565b6033546040516001600160a01b038084169216907f8be0079c531659141344cd1fd0a4f28419497f9722a3daafe3b4186f6b6457e090600090a3603380546001600160a01b0319166001600160a01b0392909216919091179055565b6000808211610ae857600080fd5b6000600160801b8310610afd57608092831c92015b680100000000000000008310610b1557604092831c92015b6401000000008310610b2957602092831c92015b620100008310610b3b57601092831c92015b6101008310610b4c57600892831c92015b60108310610b5c57600492831c92015b60048310610b6c57600292831c92015b60028310610b78576001015b92915050565b604080516101c081018252600080825260208201819052918101829052606081018290526080810182905260a0810182905260c0810182905260e08101829052610100810182905261012081018290526101408101829052610160810182905261018081018290526101a081019190915290565b6000610bfe82356110df565b9392505050565b6000610bfe82516110ea565b6000610bfe8235611105565b6000610bfe8251611105565b60006101c08284031215610c3c57600080fd5b50919050565b600060208284031215610c5457600080fd5b6000610c608484610bf2565b949350505050565b600080600060608486031215610c7d57600080fd5b6000610c898686610bf2565b9350506020610c9a86828701610bf2565b9250506040610cab86828701610bf2565b9150509250925092565b600060208284031215610cc757600080fd5b6000610c608484610c05565b600060208284031215610ce557600080fd5b6000610c608484610c11565b600060208284031215610d0357600080fd5b6000610c608484610c1d565b60008060408385031215610d2257600080fd5b6000610d2e8585610c11565b9250506020610d3f85828601610c11565b9150509250929050565b6000806101e08385031215610d5d57600080fd5b6000610d698585610c29565b9250506101c0610d3f85828601610c11565b6000610d878383610e0e565b505060200190565b610d9881611114565b82525050565b610d98816110df565b6000610db2826110d2565b610dbc81856110d6565b9350610dc7836110cc565b60005b82811015610df257610ddd868351610d7b565b9550610de8826110cc565b9150600101610dca565b5093949350505050565b610d98816110ea565b610d98816110ef565b610d9881611105565b6000610e246026836110d6565b7f4f776e61626c653a206e6577206f776e657220697320746865207a65726f20618152600160d01b6564647265737302602082015260400192915050565b6000610e6f6020836110d6565b7f4f776e61626c653a2063616c6c6572206973206e6f7420746865206f776e6572815260200192915050565b6000610ea8602e836110d6565b7f436f6e747261637420696e7374616e63652068617320616c726561647920626581527f656e20696e697469616c697a6564000000000000000000000000000000000000602082015260400192915050565b80516101c0830190610f0c8482610d9e565b506020820151610f1f6020850182610d9e565b506040820151610f326040850182610d9e565b506060820151610f456060850182610e0e565b506080820151610f586080850182610e0e565b5060a0820151610f6b60a0850182610e0e565b5060c0820151610f7e60c0850182610e0e565b5060e0820151610f9160e0850182610e0e565b50610100820151610fa6610100850182610e0e565b50610120820151610fbb610120850182610e0e565b50610140820151610fd0610140850182610e0e565b50610160820151610fe5610160850182610e0e565b50610180820151610ffa610180850182610e0e565b506101a082015161037b6101a0850182610e0e565b60208101610b788284610d9e565b60208101610b788284610d8f565b606081016110398286610d9e565b6110466020830185610d9e565b610c606040830184610e0e565b60208082528101610bfe8184610da7565b60208101610b788284610dfc565b604081016110808285610e0e565b610bfe6020830184610e05565b60208082528101610b7881610e17565b60208082528101610b7881610e62565b60208082528101610b7881610e9b565b6101c08101610b788284610efa565b60200190565b5190565b90815260200190565b6000610b7882611108565b151590565b6fffffffffffffffffffffffffffffffff191690565b90565b6001600160a01b031690565b6000610b78826000610b78826110df56fea265627a7a723058202708a2c90324b5def171ee965946b2346146b63f7af50e27ff60c5d74ce9ee176c6578706572696d656e74616cf50037",
  "source": "// Settlement of trades\r\n// (c) Kallol Borah, 2021 \r\n\r\npragma solidity 0.5.7;\r\npragma experimental ABIEncoderV2;\r\n\r\nimport \"./interfaces/IPostTrade.sol\";\r\nimport \"./interfaces/ISecuritiesRegistry.sol\";\r\nimport \"./interfaces/VerifiedClient.sol\";\r\nimport \"./registry/Security.sol\";\r\nimport \"abdk-libraries-solidity/ABDKMathQuad.sol\";\r\nimport \"@openzeppelin/upgrades/contracts/Initializable.sol\";\r\nimport \"@openzeppelin/contracts-ethereum-package/contracts/ownership/Ownable.sol\";\r\n \r\ncontract PostTrade is IPostTrade, Initializable, Ownable{\r\n\r\n    using ABDKMathQuad for uint256;\r\n    using ABDKMathQuad for int256;\r\n    using ABDKMathQuad for bytes16;\r\n\r\n    mapping(bytes32 => IPostTrade.settlement) settlements;\r\n\r\n    bytes32[] trades;\r\n\r\n    address client;\r\n    address trade;\r\n    address securitiesregistry;\r\n\r\n    function initialize (address _client, address _trade, address _securitiesregistry) public initializer{\r\n        Ownable.initialize(msg.sender);\r\n        client = _client;\r\n        trade = _trade;\r\n        securitiesregistry = _securitiesregistry;\r\n    }\r\n    \r\n    function postSettlement(IPostTrade.settlement calldata newTrade, bytes32 ref) external {\r\n        require(trade==msg.sender);\r\n        trades.push(ref);\r\n        settlements[ref].transferor = newTrade.transferor;\r\n        settlements[ref].transferee = newTrade.transferee;\r\n        settlements[ref].security = newTrade.security;\r\n        settlements[ref].securityName = newTrade.securityName;\r\n        settlements[ref].isin = newTrade.isin;\r\n        settlements[ref].company = newTrade.company;\r\n        settlements[ref].consideration = newTrade.consideration;\r\n        settlements[ref].price = newTrade.price;\r\n        settlements[ref].currency = newTrade.currency;\r\n        settlements[ref].unitsToTransfer = newTrade.unitsToTransfer;\r\n        settlements[ref].executionDate = newTrade.executionDate;\r\n        settlements[ref].transferorDPID = newTrade.transferorDPID;\r\n        settlements[ref].transfereeDPID = newTrade.transfereeDPID;\r\n        settlements[ref].status = newTrade.status;\r\n    }\r\n\r\n    function getSettlementRequests(bytes32 dpid) external view returns(bytes32[] memory){\r\n        uint entries = trades.length;\r\n        bytes32[] memory result = new bytes32[](entries);\r\n        uint entry=0;\r\n        uint i;\r\n        bytes32 role = VerifiedClient(client).getRole(msg.sender);\r\n        if(role==\"DP\"){\r\n            for(i=0; i<trades.length; i++){\r\n                if((settlements[trades[i]].transferorDPID==dpid ||\r\n                    settlements[trades[i]].transfereeDPID==dpid) &&\r\n                    settlements[trades[i]].status==\"Pending\"){\r\n                    result[entry]=trades[i];\r\n                    entry=entry+1;\r\n                }\r\n            }\r\n        }\r\n        return result;\r\n    }\r\n\r\n    function getSettlementRequest(bytes32 ref) external view returns(settlement memory){\r\n        require(ref!=\"\"); \r\n        IPostTrade.settlement memory response = IPostTrade.settlement({\r\n            transferor : settlements[ref].transferor,\r\n            transferee : settlements[ref].transferee,\r\n            security : settlements[ref].security,\r\n            securityName : settlements[ref].securityName,\r\n            status : settlements[ref].status,\r\n            transferorDPID : settlements[ref].transferorDPID,\r\n            transfereeDPID : settlements[ref].transfereeDPID,\r\n            isin : settlements[ref].isin,\r\n            company : settlements[ref].company,\r\n            currency : settlements[ref].currency,\r\n            price : settlements[ref].price,\r\n            consideration : settlements[ref].consideration,\r\n            unitsToTransfer : settlements[ref].unitsToTransfer,\r\n            executionDate : settlements[ref].executionDate\r\n        });\r\n        return response;                                                              \r\n    }\r\n    \r\n    function setSettlementStatus(bytes32 ref, bytes32 status) external{\r\n        require(status==\"Confirm\" || status==\"Reject\");\r\n        bytes32 role = VerifiedClient(client).getRole(msg.sender);\r\n        if(role==\"DP\"){\r\n            settlements[ref].status = status;\r\n            ISecuritiesRegistry(securitiesregistry).registerPrice(settlements[ref].isin, ABDKMathQuad.fromUInt(settlements[ref].price));\r\n            Security(settlements[ref].security).transferFrom(settlements[ref].transferor, \r\n                                                            settlements[ref].transferee, \r\n                                                            settlements[ref].unitsToTransfer);\r\n        }\r\n    }\r\n\r\n}",
  "sourcePath": "D:\\Code\\verified-trades\\contracts\\PostTrade.sol",
  "compiler": {
    "name": "solc",
    "version": "0.5.7+commit.6da8b019.Emscripten.clang"
  },
  "schemaVersion": "3.4.3",
  "updatedAt": "2021-11-25T12:37:54.998Z",
  "networkType": "ethereum",
  "devdoc": {
    "methods": {
      "initialize(address)": {
        "details": "Initializes the contract setting the deployer as the initial owner."
      },
      "isOwner()": {
        "details": "Returns true if the caller is the current owner."
      },
      "owner()": {
        "details": "Returns the address of the current owner."
      },
      "renounceOwnership()": {
        "details": "Leaves the contract without owner. It will not be possible to call `onlyOwner` functions anymore. Can only be called by the current owner.     * > Note: Renouncing ownership will leave the contract without an owner, thereby removing any functionality that is only available to the owner."
      },
      "transferOwnership(address)": {
        "details": "Transfers ownership of the contract to a new account (`newOwner`). Can only be called by the current owner."
      }
    }
  },
  "userdoc": {
    "methods": {}
  }
}