{
  "contractName": "PreTrade",
  "abi": [
    {
      "constant": false,
      "inputs": [],
      "name": "renounceOwnership",
      "outputs": [],
      "payable": false,
      "stateMutability": "nonpayable",
      "type": "function"
    },
    {
      "constant": true,
      "inputs": [],
      "name": "owner",
      "outputs": [
        {
          "name": "",
          "type": "address"
        }
      ],
      "payable": false,
      "stateMutability": "view",
      "type": "function"
    },
    {
      "constant": true,
      "inputs": [],
      "name": "isOwner",
      "outputs": [
        {
          "name": "",
          "type": "bool"
        }
      ],
      "payable": false,
      "stateMutability": "view",
      "type": "function"
    },
    {
      "constant": false,
      "inputs": [
        {
          "name": "newOwner",
          "type": "address"
        }
      ],
      "name": "transferOwnership",
      "outputs": [],
      "payable": false,
      "stateMutability": "nonpayable",
      "type": "function"
    },
    {
      "anonymous": false,
      "inputs": [
        {
          "indexed": true,
          "name": "previousOwner",
          "type": "address"
        },
        {
          "indexed": true,
          "name": "newOwner",
          "type": "address"
        }
      ],
      "name": "OwnershipTransferred",
      "type": "event"
    },
    {
      "constant": false,
      "inputs": [
        {
          "name": "_viaFactory",
          "type": "address"
        },
        {
          "name": "_securitiesRegistry",
          "type": "address"
        },
        {
          "name": "_securityToken",
          "type": "address"
        },
        {
          "name": "_kyc",
          "type": "address"
        },
        {
          "name": "_client",
          "type": "address"
        }
      ],
      "name": "initialize",
      "outputs": [],
      "payable": false,
      "stateMutability": "nonpayable",
      "type": "function"
    },
    {
      "constant": false,
      "inputs": [
        {
          "name": "sender",
          "type": "address"
        }
      ],
      "name": "initialize",
      "outputs": [],
      "payable": false,
      "stateMutability": "nonpayable",
      "type": "function"
    },
    {
      "constant": false,
      "inputs": [
        {
          "name": "_currencyCode",
          "type": "bytes32"
        }
      ],
      "name": "registerDematAccount",
      "outputs": [],
      "payable": false,
      "stateMutability": "nonpayable",
      "type": "function"
    },
    {
      "constant": true,
      "inputs": [
        {
          "name": "_countryCode",
          "type": "bytes32"
        }
      ],
      "name": "getRegistrationRequests",
      "outputs": [
        {
          "name": "",
          "type": "bytes32[]"
        }
      ],
      "payable": false,
      "stateMutability": "view",
      "type": "function"
    },
    {
      "constant": true,
      "inputs": [
        {
          "name": "_ref",
          "type": "bytes32"
        }
      ],
      "name": "getRegistrationRequest",
      "outputs": [
        {
          "name": "user",
          "type": "address"
        },
        {
          "name": "countryCode",
          "type": "bytes32"
        },
        {
          "name": "dematAccountNo",
          "type": "bytes32"
        },
        {
          "name": "DPID",
          "type": "bytes32"
        },
        {
          "name": "registrationDate",
          "type": "uint256"
        }
      ],
      "payable": false,
      "stateMutability": "view",
      "type": "function"
    },
    {
      "constant": false,
      "inputs": [
        {
          "name": "_ref",
          "type": "bytes32"
        },
        {
          "name": "_DPID",
          "type": "bytes32"
        },
        {
          "name": "_dematAccountNo",
          "type": "bytes32"
        }
      ],
      "name": "setRegistrationStatus",
      "outputs": [],
      "payable": false,
      "stateMutability": "nonpayable",
      "type": "function"
    },
    {
      "constant": false,
      "inputs": [
        {
          "name": "_currencyCode",
          "type": "bytes32"
        },
        {
          "name": "_stype",
          "type": "bytes32"
        },
        {
          "name": "_isin",
          "type": "bytes32"
        },
        {
          "name": "_company",
          "type": "bytes32"
        },
        {
          "name": "_itype",
          "type": "bytes32"
        },
        {
          "name": "_noOfCertificates",
          "type": "uint256"
        },
        {
          "name": "_faceValue",
          "type": "uint256"
        },
        {
          "name": "_lockInReason",
          "type": "bytes32"
        },
        {
          "name": "_lockInReleaseDate",
          "type": "uint256"
        }
      ],
      "name": "registerSecurities",
      "outputs": [
        {
          "name": "",
          "type": "bytes32"
        }
      ],
      "payable": false,
      "stateMutability": "nonpayable",
      "type": "function"
    },
    {
      "constant": true,
      "inputs": [
        {
          "name": "_countryCode",
          "type": "bytes32"
        }
      ],
      "name": "getConfirmationRequests",
      "outputs": [
        {
          "name": "",
          "type": "bytes32[]"
        }
      ],
      "payable": false,
      "stateMutability": "view",
      "type": "function"
    },
    {
      "constant": true,
      "inputs": [
        {
          "name": "_ref",
          "type": "bytes32"
        }
      ],
      "name": "getConfirmationRequest",
      "outputs": [
        {
          "name": "",
          "type": "bytes32[]"
        },
        {
          "name": "",
          "type": "uint256[]"
        },
        {
          "name": "",
          "type": "address"
        }
      ],
      "payable": false,
      "stateMutability": "view",
      "type": "function"
    },
    {
      "constant": false,
      "inputs": [
        {
          "name": "_user",
          "type": "address"
        },
        {
          "name": "_ref",
          "type": "bytes32"
        },
        {
          "name": "_status",
          "type": "bytes32"
        }
      ],
      "name": "confirmSecurities",
      "outputs": [],
      "payable": false,
      "stateMutability": "nonpayable",
      "type": "function"
    },
    {
      "constant": true,
      "inputs": [
        {
          "name": "_token",
          "type": "address"
        }
      ],
      "name": "getSecurity",
      "outputs": [
        {
          "name": "",
          "type": "bytes32"
        },
        {
          "name": "",
          "type": "bytes32"
        },
        {
          "name": "",
          "type": "address"
        }
      ],
      "payable": false,
      "stateMutability": "view",
      "type": "function"
    },
    {
      "constant": true,
      "inputs": [
        {
          "name": "_party",
          "type": "address"
        }
      ],
      "name": "getDP",
      "outputs": [
        {
          "name": "",
          "type": "bytes32"
        }
      ],
      "payable": false,
      "stateMutability": "view",
      "type": "function"
    }
  ],
  "bytecode": "0x6080604052611bd9806100136000396000f3fe608060405234801561001057600080fd5b50600436106101005760003560e01c80638da5cb5b11610097578063caffdbe011610066578063caffdbe014610404578063d24e058d14610465578063e0a87de11461048e578063f2fde38b146104b457610100565b80638da5cb5b1461034c5780638f32d59b146103705780639d37afe61461038c578063c4d66de8146103de57610100565b80635633c2b4116100d35780635633c2b41461022657806369016074146102f5578063715018a6146103275780637a4d26151461032f57610100565b80631459457a146101055780633504f3aa1461014f5780634a161b27146101bc5780634e8ca2d514610209575b600080fd5b61014d600480360360a081101561011b57600080fd5b506001600160a01b038135811691602081013582169160408201358116916060810135821691608090910135166104da565b005b61016c6004803603602081101561016557600080fd5b50356105e3565b60408051602080825283518183015283519192839290830191858101910280838360005b838110156101a8578181015183820152602001610190565b505050509050019250505060405180910390f35b6101e2600480360360208110156101d257600080fd5b50356001600160a01b0316610975565b6040805193845260208401929092526001600160a01b031682820152519081900360600190f35b61014d6004803603602081101561021f57600080fd5b5035610a88565b6102436004803603602081101561023c57600080fd5b5035610cd6565b604051808060200180602001846001600160a01b03166001600160a01b03168152602001838103835286818151815260200191508051906020019060200280838360005b8381101561029f578181015183820152602001610287565b50505050905001838103825285818151815260200191508051906020019060200280838360005b838110156102de5781810151838201526020016102c6565b505050509050019550505050505060405180910390f35b61014d6004803603606081101561030b57600080fd5b506001600160a01b038135169060208101359060400135610ef9565b61014d61115b565b61016c6004803603602081101561034557600080fd5b5035611201565b610354611368565b604080516001600160a01b039092168252519081900360200190f35b610378611377565b604080519115158252519081900360200190f35b6103a9600480360360208110156103a257600080fd5b503561139d565b604080516001600160a01b03909616865260208601949094528484019290925260608401526080830152519081900360a00190f35b61014d600480360360208110156103f457600080fd5b50356001600160a01b03166113eb565b610453600480360361012081101561041b57600080fd5b5080359060208101359060408101359060608101359060808101359060a08101359060c08101359060e08101359061010001356114e0565b60408051918252519081900360200190f35b61014d6004803603606081101561047b57600080fd5b50803590602081013590604001356117e2565b610453600480360360208110156104a457600080fd5b50356001600160a01b0316611809565b61014d600480360360208110156104ca57600080fd5b50356001600160a01b03166118a1565b600054610100900460ff16806104f357506104f3611909565b80610501575060005460ff16155b61053f57604051600160e51b62461bcd02815260040180806020018281038252602e815260200180611b80602e913960400191505060405180910390fd5b600054610100900460ff1615801561056a576000805460ff1961ff0019909116610100171660011790555b610573336113eb565b606a80546001600160a01b03199081166001600160a01b0388811691909117909255606b80548216878416179055606c80548216868416179055606d80548216858416179055606e805490911691881691909117905580156105db576000805461ff00191690555b505050505050565b6060816105ef57600080fd5b60675460408051828152602080840282010190915260609082801561061e578160200160208202803883390190505b50606d5460408051600160e01b63203bac6102815233600482015260248101889052905192935060009283926001600160a01b03169163203bac61916044808301926020929190829003018186803b15801561067957600080fd5b505afa15801561068d573d6000803e3d6000fd5b505050506040513d60208110156106a357600080fd5b50519050600160f41b6104450281141561080d5760005b60675481101561080b578660666000606784815481106106d657fe5b906000526020600020015481526020019081526020016000206002015473__stringutils___________________________6379c213069091600260046040518463ffffffff1660e01b815260040180848152602001838152602001828152602001935050505060206040518083038186803b15801561075557600080fd5b505af4158015610769573d6000803e3d6000fd5b505050506040513d602081101561077f57600080fd5b50511480156107c75750606660006067838154811061079a57fe5b9060005260206000200154815260200190815260200160002060080154600160c81b6650656e64696e6702145b1561080357606781815481106107d957fe5b90600052602060002001548484815181106107f057fe5b6020026020010181815250508260010192505b6001016106ba565b505b606c5460408051600160e01b6330ccebb502815233600482015290516001600160a01b03909216916330ccebb591602480820192602092909190829003018186803b15801561085b57600080fd5b505afa15801561086f573d6000803e3d6000fd5b505050506040513d602081101561088557600080fd5b50511515600114156109695760005b60675481101561096757336001600160a01b031660666000606784815481106108b957fe5b600091825260208083209091015483528201929092526040019020546001600160a01b0316141561095f5760666000606783815481106108f557fe5b9060005260206000200154815260200190815260200160002060080154600160ba1b6810dbdb999a5c9b595902141561095f576067818154811061093557fe5b906000526020600020015484848151811061094c57fe5b6020026020010181815250508260010192505b600101610894565b505b5090925050505b919050565b60008080805b606754811015610a7f57846001600160a01b031660666000606784815481106109a057fe5b600091825260208083209091015483528201929092526040019020600101546001600160a01b03161415610a775760666000606783815481106109df57fe5b90600052602060002001548152602001908152602001600020600401546066600060678481548110610a0d57fe5b90600052602060002001548152602001908152602001600020600501546066600060678581548110610a3b57fe5b9060005260206000200154815260200190815260200160002060010160009054906101000a90046001600160a01b031693509350935050610a81565b60010161097b565b505b9193909250565b606c5460408051600160e01b6330ccebb502815233600482015290516001600160a01b03909216916330ccebb591602480820192602092909190829003018186803b158015610ad657600080fd5b505afa158015610aea573d6000803e3d6000fd5b505050506040513d6020811015610b0057600080fd5b50511515600114610b1057600080fd5b606e5460408051600160e21b633cd163c502815260048101849052600160cb1b660acd2c286c2e6d02602482015290516000926001600160a01b03169163f3458f14916044808301926020929190829003018186803b158015610b7257600080fd5b505afa158015610b86573d6000803e3d6000fd5b505050506040513d6020811015610b9c57600080fd5b50516001600160a01b03161415610bb257600080fd5b6040805133606081901b60208084019190915242603480850191909152845180850390910181526054840180865281519183019190912060698054600181019091557f7fb4302e8e91f9110a6554c2c0a24601252c2a42c2220ca988efcfe3999143080181905560008181526068845286902080546001600160a01b031916909417909355600160e11b633ce109830290526058830185905260026078840152600460988401529251909273__stringutils___________________________926379c213069260b88083019392829003018186803b158015610c9457600080fd5b505af4158015610ca8573d6000803e3d6000fd5b505050506040513d6020811015610cbe57600080fd5b50516000918252606860205260409091206001015550565b60408051600480825260a08201909252606091829160009183919060208201608080388339505050600086815260666020526040812060090154825192935091839190610d1f57fe5b6020908102919091018101919091526000868152606690915260409020600c0154610d4c9060801b61190f565b81600181518110610d5957fe5b60200260200101818152505060666000868152602001908152602001600020600a015481600281518110610d8957fe5b60200260200101818152505060666000868152602001908152602001600020600b015481600381518110610db957fe5b602090810291909101015260408051600580825260c08201909252606091816020016020820280388339505050600087815260666020526040812060040154825192935091839190610e0757fe5b602002602001018181525050606660008781526020019081526020016000206005015481600181518110610e3757fe5b602002602001018181525050606660008781526020019081526020016000206007015481600281518110610e6757fe5b602002602001018181525050606660008781526020019081526020016000206003015481600381518110610e9757fe5b602002602001018181525050606660008781526020019081526020016000206006015481600481518110610ec757fe5b602090810291909101810191909152600096875260669052604090952054949590946001600160a01b03169350915050565b80600160ba1b6810dbdb999a5c9b5959021480610f23575080600160c21b6714995a9958dd195902145b80610f3a575080600160c81b6650656e64696e6702145b610f4357600080fd5b6000828152606660205260409020546001600160a01b03848116911614610f6957600080fd5b606a54606b54600084815260666020526040808220600281015460058201546004928301548451600160e01b63d6c915bf0281526001600160a01b03978816948101949094526024840192909252604483015260648201529051929093169263d6c915bf926084808301939282900301818387803b158015610fea57600080fd5b505af1158015610ffe573d6000803e3d6000fd5b5050606a546000858152606660209081526040808320600281015460058201546004928301548451600160e51b6304e1d675028152938401929092526024830152604482015290519295506001600160a01b039093169350639c3acea09260648082019391829003018186803b15801561107757600080fd5b505afa15801561108b573d6000803e3d6000fd5b505050506040513d60208110156110a157600080fd5b5051600084815260666020526040808220600901548151600160e01b6340c10f190281526001600160a01b038981166004830152602482019290925291519394508416926340c10f199260448084019391929182900301818387803b15801561110957600080fd5b505af115801561111d573d6000803e3d6000fd5b505050600093845250606660205260409092206001810180546001600160a01b0319166001600160a01b039094169390931790925560089091015550565b611163611377565b6111b75760408051600160e51b62461bcd02815260206004820181905260248201527f4f776e61626c653a2063616c6c6572206973206e6f7420746865206f776e6572604482015290519081900360640190fd5b6033546040516000916001600160a01b0316907f8be0079c531659141344cd1fd0a4f28419497f9722a3daafe3b4186f6b6457e0908390a3603380546001600160a01b0319169055565b60608161120d57600080fd5b606954606d5460408051600160e01b63203bac610281523360048201526024810186905290516000926001600160a01b03169163203bac61916044808301926020929190829003018186803b15801561126557600080fd5b505afa158015611279573d6000803e3d6000fd5b505050506040513d602081101561128f57600080fd5b50519050600160f41b61044502811415611361576060826040519080825280602002602001820160405280156112cf578160200160208202803883390190505b5090506000805b606954811015611354578660686000606984815481106112f257fe5b9060005260206000200154815260200190815260200160002060010154141561134c576069818154811061132257fe5b906000526020600020015483838151811061133957fe5b6020026020010181815250508160010191505b6001016112d6565b5081945050505050610970565b5050919050565b6033546001600160a01b031690565b6033546000906001600160a01b031661138e6119a8565b6001600160a01b031614905090565b600080808080856113ad57600080fd5b5050506000928352505060686020526040902080546001820154600283015460038401546004909401546001600160a01b0390931694919390929091565b600054610100900460ff16806114045750611404611909565b80611412575060005460ff16155b61145057604051600160e51b62461bcd02815260040180806020018281038252602e815260200180611b80602e913960400191505060405180910390fd5b600054610100900460ff1615801561147b576000805460ff1961ff0019909116610100171660011790555b603380546001600160a01b0319166001600160a01b0384811691909117918290556040519116906000907f8be0079c531659141344cd1fd0a4f28419497f9722a3daafe3b4186f6b6457e0908290a380156114dc576000805461ff00191690555b5050565b606c5460408051600160e01b6330ccebb502815233600482015290516000926001600160a01b0316916330ccebb5916024808301926020929190829003018186803b15801561152e57600080fd5b505afa158015611542573d6000803e3d6000fd5b505050506040513d602081101561155857600080fd5b5051151560011461156857600080fd5b606e5460408051600160e21b633cd163c5028152600481018d9052600160cb1b660acd2c286c2e6d02602482015290516000926001600160a01b03169163f3458f14916044808301926020929190829003018186803b1580156115ca57600080fd5b505afa1580156115de573d6000803e3d6000fd5b505050506040513d60208110156115f457600080fd5b50516001600160a01b0316141561160a57600080fd5b88600160e01b634672656502148061162f575088600160c11b672637b1b5b2b224b702145b61163857600080fd5b85600160d01b6545717569747902148061165b575085600160e21b63109bdb9902145b80611675575085600160b01b69446562656e747572657302145b8061168a575085600160d81b64556e69747302145b806116b45750857f4365727469666963617465730000000000000000000000000000000000000000145b6116bd57600080fd5b6040805133606081901b60208084019190915242603480850191909152845180850390910181526054909301845282519281019290922060678054600181019091557f9787eeb91fe3101235e4a76063c7023ecb40f923f97916639c598592fa30d6ae01819055600081815260669093529290912080546001600160a01b0319169091178155600281018c9055600381018b9055600481018a90556005810189905560068101889055600901869055611775856119ac565b6000828152606660205260409020600c8101805460809390931c6fffffffffffffffffffffffffffffffff199093169290921790915560078101859055600a810184905542600b820155600160c81b6650656e64696e670260089091015590509998505050505050505050565b826117ec57600080fd5b600092835260686020526040909220600381019190915560020155565b6000805b60695481101561189b57826001600160a01b0316606860006069848154811061183257fe5b600091825260208083209091015483528201929092526040019020546001600160a01b0316141561189357606860006069838154811061186e57fe5b9060005260206000200154815260200190815260200160002060030154915050610970565b60010161180d565b50919050565b6118a9611377565b6118fd5760408051600160e51b62461bcd02815260206004820181905260248201527f4f776e61626c653a2063616c6c6572206973206e6f7420746865206f776e6572604482015290519081900360640190fd5b61190681611a11565b50565b303b1590565b6000617fff6001600160801b03608084901c1660701c16613fff81101561193a576000915050610970565b6001607f1b8360801c6001600160801b03161061195657600080fd5b6140fe81111561196557600080fd5b600160701b6001600160701b03608085901c161761406f82101561198f5761406f8290031c6119a1565b61406f8211156119a15761406e1982011b5b9392505050565b3390565b6000816119bb57506000610970565b8160006119c782611ab5565b905060708110156119e0578060700382901b91506119f3565b60708111156119f3576070810382901c91505b613fff0160701b6001600160701b03919091161760801b9050610970565b6001600160a01b038116611a5957604051600160e51b62461bcd028152600401808060200182810382526026815260200180611b5a6026913960400191505060405180910390fd5b6033546040516001600160a01b038084169216907f8be0079c531659141344cd1fd0a4f28419497f9722a3daafe3b4186f6b6457e090600090a3603380546001600160a01b0319166001600160a01b0392909216919091179055565b6000808211611ac357600080fd5b6000600160801b8310611ad857608092831c92015b680100000000000000008310611af057604092831c92015b6401000000008310611b0457602092831c92015b620100008310611b1657601092831c92015b6101008310611b2757600892831c92015b60108310611b3757600492831c92015b60048310611b4757600292831c92015b60028310611b53576001015b9291505056fe4f776e61626c653a206e6577206f776e657220697320746865207a65726f2061646472657373436f6e747261637420696e7374616e63652068617320616c7265616479206265656e20696e697469616c697a6564a165627a7a72305820a916f6ecbd6737deae1072eae4229dd0cea554c35c3c198833b2096845b21f740029",
  "source": "// Fetching pre-trade information\r\n// (c) Kallol Borah, 2021\r\n\r\npragma solidity 0.5.7;\r\n \r\nimport \"./interfaces/IPreTrade.sol\";\r\nimport \"./interfaces/ISecuritiesRegistry.sol\";\r\nimport \"./interfaces/VerifiedKYC.sol\";\r\nimport \"./interfaces/VerifiedClient.sol\";\r\nimport \"./registry/Security.sol\";\r\nimport \"abdk-libraries-solidity/ABDKMathQuad.sol\";\r\nimport \"@openzeppelin/upgrades/contracts/Initializable.sol\";\r\nimport \"@openzeppelin/contracts-ethereum-package/contracts/ownership/Ownable.sol\";\r\nimport \"./utilities/StringUtils.sol\";\r\nimport \"./interfaces/ViaFactory.sol\";\r\n\r\ncontract PreTrade is IPreTrade, Initializable, Ownable{\r\n\r\n    using ABDKMathQuad for uint256;\r\n    using ABDKMathQuad for int256;\r\n    using ABDKMathQuad for bytes16;\r\n\r\n    using stringutils for *;\r\n\r\n    struct security {   address requestor;\r\n                        address token;\r\n                        bytes32 currencyCode;\r\n                        bytes32 stype;\r\n                        bytes32 isin; \r\n                        bytes32 company; \r\n                        bytes32 itype;\r\n                        //bytes32 folio;\r\n                        //bytes32 fromCertificateNo;\r\n                        //bytes32 toCertificateNo;\r\n                        //bytes32 fromDistinctiveNo;\r\n                        //bytes32 toDistinctiveNo;\r\n                        bytes32 lockInReason;\r\n                        bytes32 approvalStatus;\r\n                        uint noOfCertificates;\r\n                        uint lockInReleaseDate;\r\n                        uint registrationRequestDate;\r\n                        bytes16 faceValue;\r\n                    }\r\n\r\n    //mapping of securities approval request to security details\r\n    mapping(bytes32 => security) private securities;\r\n\r\n    //array of securities approval requests\r\n    bytes32[] secRefs;\r\n    \r\n    struct registration {\r\n                        address user;\r\n                        bytes32 countryCode;\r\n                        bytes32 dematAccountNo;\r\n                        bytes32 DPID;\r\n                        uint registrationDate;\r\n                        }\r\n\r\n    //mapping of demat registration request to Demat account \r\n    mapping(bytes32 => registration) private registrations;\r\n\r\n    //array of registration requests\r\n    bytes32[] regRefs;\r\n    \r\n    address securitiesRegistry;\r\n    address securityToken;\r\n    address kyc;\r\n    address client;\r\n    ViaFactory private via;\r\n\r\n    function initialize (address _viaFactory, address _securitiesRegistry, address _securityToken, address _kyc, address _client) public initializer{\r\n        Ownable.initialize(msg.sender);\r\n        securitiesRegistry = _securitiesRegistry;\r\n        securityToken = _securityToken;\r\n        kyc = _kyc;\r\n        client = _client;\r\n        via = ViaFactory(_viaFactory);\r\n    }\r\n\r\n    function registerDematAccount(bytes32 _currencyCode) external {\r\n        require(VerifiedKYC(kyc).getStatus(msg.sender)==true);\r\n        require(via.getTokenByNameType(_currencyCode, \"ViaCash\")!=address(0x0));\r\n        bytes32 ref = keccak256(abi.encodePacked(msg.sender, now));\r\n        regRefs.push(ref);\r\n        registrations[ref].user = msg.sender;\r\n        registrations[ref].countryCode = _currencyCode.substringinbytes(2,4);\r\n    }\r\n\r\n    function getRegistrationRequests(bytes32 _countryCode) external view returns(bytes32[] memory){\r\n        require(_countryCode!=\"\");\r\n        uint entries = regRefs.length;\r\n        bytes32 role = VerifiedClient(client).getRole(msg.sender, _countryCode);\r\n        if(role==\"DP\"){\r\n            bytes32[] memory result = new bytes32[](entries);\r\n            uint entry=0;\r\n            for(uint i=0; i<regRefs.length; i++){\r\n                if(registrations[regRefs[i]].countryCode==_countryCode){\r\n                    result[entry]=regRefs[i];\r\n                    entry = entry+1;\r\n                }\r\n            }\r\n            return result;\r\n        }\r\n    }\r\n\r\n    function getRegistrationRequest(bytes32 _ref) external view returns(address user,\r\n                                                                        bytes32 countryCode,\r\n                                                                        bytes32 dematAccountNo,\r\n                                                                        bytes32 DPID,\r\n                                                                        uint registrationDate){\r\n        require(_ref!=\"\");\r\n        return( registrations[_ref].user,\r\n                registrations[_ref].countryCode,\r\n                registrations[_ref].dematAccountNo,\r\n                registrations[_ref].DPID,\r\n                registrations[_ref].registrationDate);\r\n    }\r\n\r\n    function setRegistrationStatus(bytes32 _ref, bytes32 _DPID, bytes32 _dematAccountNo) external{\r\n        require(_ref!=\"\");\r\n        registrations[_ref].DPID = _DPID;\r\n        registrations[_ref].dematAccountNo = _dematAccountNo;\r\n    }\r\n\r\n    function registerSecurities(bytes32 _currencyCode, \r\n                                bytes32 _stype, \r\n                                bytes32 _isin, \r\n                                bytes32 _company, \r\n                                bytes32 _itype,\r\n                                //bytes32 _folio,\r\n                                //bytes32 _fromCertificateNo,\r\n                                //bytes32 _toCertificateNo,\r\n                                //bytes32 _fromDistinctiveNo,\r\n                                //bytes32 _toDistinctiveNo,\r\n                                uint _noOfCertificates,\r\n                                uint _faceValue,\r\n                                bytes32 _lockInReason,\r\n                                uint _lockInReleaseDate) external returns(bytes32){\r\n        require(VerifiedKYC(kyc).getStatus(msg.sender)==true);\r\n        require(via.getTokenByNameType(_currencyCode, \"ViaCash\")!=address(0x0));\r\n        require(_stype==\"Free\" || _stype==\"LockedIn\");\r\n        require(_itype==\"Equity\" || _itype==\"Bond\" || _itype==\"Debentures\" || _itype==\"Units\" || _itype==\"Certificates\");\r\n        bytes32 ref = keccak256(abi.encodePacked(msg.sender, now));\r\n        secRefs.push(ref);\r\n        securities[ref].requestor = msg.sender;\r\n        securities[ref].currencyCode = _currencyCode;\r\n        securities[ref].stype = _stype;\r\n        securities[ref].isin = _isin; \r\n        securities[ref].company = _company; \r\n        securities[ref].itype = _itype;\r\n        //registrations[ref].folio = _folio;\r\n        //registrations[ref].fromCertificateNo = _fromCertificateNo;\r\n        //registrations[ref].toCertificateNo = _toCertificateNo;\r\n        //registrations[ref].fromDistinctiveNo = _fromDistinctiveNo;\r\n        //registrations[ref].toDistinctiveNo = _toDistinctiveNo;\r\n        securities[ref].noOfCertificates = _noOfCertificates;\r\n        securities[ref].faceValue = ABDKMathQuad.fromUInt(_faceValue);\r\n        securities[ref].lockInReason = _lockInReason;\r\n        securities[ref].lockInReleaseDate = _lockInReleaseDate;\r\n        securities[ref].registrationRequestDate = now;\r\n        securities[ref].approvalStatus = \"Pending\";\r\n                                            \r\n        return ref;\r\n    }\r\n\r\n    function getConfirmationRequests(bytes32 _countryCode) external view returns(bytes32[] memory){\r\n        require(_countryCode!=\"\");\r\n        uint entries = secRefs.length;\r\n        bytes32[] memory result = new bytes32[](entries);\r\n        uint entry=0;\r\n        bytes32 role = VerifiedClient(client).getRole(msg.sender, _countryCode);\r\n        if(role==\"DP\"){\r\n            for(uint j=0; j<secRefs.length; j++){\r\n                if( securities[secRefs[j]].currencyCode.substringinbytes(2,4)==_countryCode && securities[secRefs[j]].approvalStatus==\"Pending\"){\r\n                    result[entry]=secRefs[j];\r\n                    entry=entry+1;\r\n                }\r\n            }\r\n        }\r\n        if(VerifiedKYC(kyc).getStatus(msg.sender)==true){\r\n            for(uint i=0; i<secRefs.length; i++){\r\n                if( securities[secRefs[i]].requestor==msg.sender){\r\n                    if(securities[secRefs[i]].approvalStatus==\"Confirmed\"){\r\n                        result[entry]=secRefs[i];\r\n                        entry=entry+1;\r\n                    }\r\n                }\r\n            }\r\n        }\r\n        return result;        \r\n    }\r\n\r\n    function getConfirmationRequest(bytes32 _ref) external view returns (bytes32[] memory, uint[] memory, address){\r\n        uint[] memory u = new uint[](4);\r\n        u[0]=securities[_ref].noOfCertificates;\r\n        u[1]=ABDKMathQuad.toUInt(securities[_ref].faceValue);\r\n        u[2]=securities[_ref].lockInReleaseDate;\r\n        u[3]=securities[_ref].registrationRequestDate;\r\n        bytes32[] memory b = new bytes32[](5);\r\n        b[0]=securities[_ref].isin;\r\n        b[1]=securities[_ref].company;\r\n        b[2]=securities[_ref].lockInReason;\r\n        b[3]=securities[_ref].stype;\r\n        b[4]=securities[_ref].itype;\r\n        return( \r\n                b, u, securities[_ref].requestor\r\n            );\r\n    }\r\n\r\n    function confirmSecurities(address _user, bytes32 _ref, bytes32 _status) external {\r\n        require(_status==\"Confirmed\" || _status==\"Rejected\" || _status==\"Pending\");\r\n        require(securities[_ref].requestor==_user);\r\n        ISecuritiesRegistry(securitiesRegistry).createSecurity( securityToken,\r\n                                                                securities[_ref].currencyCode,\r\n                                                                securities[_ref].company,\r\n                                                                securities[_ref].isin);\r\n        address _token = ISecuritiesRegistry(securitiesRegistry).getToken(securities[_ref].currencyCode,\r\n                                                                securities[_ref].company,\r\n                                                                securities[_ref].isin);\r\n        Security(_token).mint(_user, securities[_ref].noOfCertificates);\r\n        securities[_ref].token = _token;\r\n        securities[_ref].approvalStatus = _status;\r\n    }\r\n\r\n    function getSecurity(address _token) external view returns(bytes32, bytes32, address){\r\n        for(uint i=0; i<secRefs.length; i++){\r\n            if(securities[secRefs[i]].token==_token){\r\n                return(securities[secRefs[i]].isin, securities[secRefs[i]].company, securities[secRefs[i]].token);\r\n            }\r\n        }        \r\n    }\r\n\r\n    function getDP(address _party) external view returns(bytes32){\r\n        for(uint i=0; i<regRefs.length; i++){\r\n            if(registrations[regRefs[i]].user==_party){\r\n                return (registrations[regRefs[i]].DPID);\r\n            }\r\n        }\r\n    }\r\n    \r\n}",
  "sourcePath": "D:\\Code\\verified-trades\\contracts\\PreTrade.sol",
  "compiler": {
    "name": "solc",
    "version": "0.5.7+commit.6da8b019.Emscripten.clang"
  },
  "schemaVersion": "3.4.3",
  "updatedAt": "2021-10-02T05:48:52.372Z",
  "networkType": "ethereum",
  "devdoc": {
    "methods": {
      "initialize(address)": {
        "details": "Initializes the contract setting the deployer as the initial owner."
      },
      "isOwner()": {
        "details": "Returns true if the caller is the current owner."
      },
      "owner()": {
        "details": "Returns the address of the current owner."
      },
      "renounceOwnership()": {
        "details": "Leaves the contract without owner. It will not be possible to call `onlyOwner` functions anymore. Can only be called by the current owner.     * > Note: Renouncing ownership will leave the contract without an owner, thereby removing any functionality that is only available to the owner."
      },
      "transferOwnership(address)": {
        "details": "Transfers ownership of the contract to a new account (`newOwner`). Can only be called by the current owner."
      }
    }
  },
  "userdoc": {
    "methods": {}
  }
}