{
  "contractName": "PreTrade",
  "abi": [
    {
      "constant": false,
      "inputs": [],
      "name": "renounceOwnership",
      "outputs": [],
      "payable": false,
      "stateMutability": "nonpayable",
      "type": "function"
    },
    {
      "constant": true,
      "inputs": [],
      "name": "owner",
      "outputs": [
        {
          "name": "",
          "type": "address"
        }
      ],
      "payable": false,
      "stateMutability": "view",
      "type": "function"
    },
    {
      "constant": true,
      "inputs": [],
      "name": "isOwner",
      "outputs": [
        {
          "name": "",
          "type": "bool"
        }
      ],
      "payable": false,
      "stateMutability": "view",
      "type": "function"
    },
    {
      "constant": false,
      "inputs": [
        {
          "name": "newOwner",
          "type": "address"
        }
      ],
      "name": "transferOwnership",
      "outputs": [],
      "payable": false,
      "stateMutability": "nonpayable",
      "type": "function"
    },
    {
      "anonymous": false,
      "inputs": [
        {
          "indexed": true,
          "name": "previousOwner",
          "type": "address"
        },
        {
          "indexed": true,
          "name": "newOwner",
          "type": "address"
        }
      ],
      "name": "OwnershipTransferred",
      "type": "event"
    },
    {
      "constant": false,
      "inputs": [
        {
          "name": "_viaFactory",
          "type": "address"
        },
        {
          "name": "_securitiesRegistry",
          "type": "address"
        },
        {
          "name": "_securityToken",
          "type": "address"
        },
        {
          "name": "_kyc",
          "type": "address"
        },
        {
          "name": "_client",
          "type": "address"
        }
      ],
      "name": "initialize",
      "outputs": [],
      "payable": false,
      "stateMutability": "nonpayable",
      "type": "function"
    },
    {
      "constant": false,
      "inputs": [
        {
          "name": "sender",
          "type": "address"
        }
      ],
      "name": "initialize",
      "outputs": [],
      "payable": false,
      "stateMutability": "nonpayable",
      "type": "function"
    },
    {
      "constant": false,
      "inputs": [
        {
          "name": "_currencyCode",
          "type": "bytes32"
        }
      ],
      "name": "registerDematAccount",
      "outputs": [],
      "payable": false,
      "stateMutability": "nonpayable",
      "type": "function"
    },
    {
      "constant": true,
      "inputs": [
        {
          "name": "_countryCode",
          "type": "bytes32"
        }
      ],
      "name": "getRegistrationRequests",
      "outputs": [
        {
          "name": "",
          "type": "bytes32[]"
        }
      ],
      "payable": false,
      "stateMutability": "view",
      "type": "function"
    },
    {
      "constant": true,
      "inputs": [
        {
          "name": "_ref",
          "type": "bytes32"
        }
      ],
      "name": "getRegistrationRequest",
      "outputs": [
        {
          "name": "user",
          "type": "address"
        },
        {
          "name": "countryCode",
          "type": "bytes32"
        },
        {
          "name": "dematAccountNo",
          "type": "bytes32"
        },
        {
          "name": "DPID",
          "type": "bytes32"
        },
        {
          "name": "registrationDate",
          "type": "uint256"
        }
      ],
      "payable": false,
      "stateMutability": "view",
      "type": "function"
    },
    {
      "constant": false,
      "inputs": [
        {
          "name": "_ref",
          "type": "bytes32"
        },
        {
          "name": "_DPID",
          "type": "bytes32"
        },
        {
          "name": "_dematAccountNo",
          "type": "bytes32"
        }
      ],
      "name": "setRegistrationStatus",
      "outputs": [],
      "payable": false,
      "stateMutability": "nonpayable",
      "type": "function"
    },
    {
      "constant": true,
      "inputs": [
        {
          "name": "_countryCode",
          "type": "bytes32"
        }
      ],
      "name": "getConfirmationRequests",
      "outputs": [
        {
          "name": "",
          "type": "bytes32[]"
        }
      ],
      "payable": false,
      "stateMutability": "view",
      "type": "function"
    },
    {
      "constant": true,
      "inputs": [
        {
          "name": "_ref",
          "type": "bytes32"
        }
      ],
      "name": "getConfirmationRequest",
      "outputs": [
        {
          "name": "",
          "type": "bytes32[]"
        },
        {
          "name": "",
          "type": "uint256[]"
        },
        {
          "name": "",
          "type": "address"
        }
      ],
      "payable": false,
      "stateMutability": "view",
      "type": "function"
    },
    {
      "constant": false,
      "inputs": [
        {
          "name": "_currencyCode",
          "type": "bytes32"
        },
        {
          "name": "_stype",
          "type": "bytes32"
        },
        {
          "name": "_isin",
          "type": "bytes32"
        },
        {
          "name": "_company",
          "type": "bytes32"
        },
        {
          "name": "_itype",
          "type": "bytes32"
        },
        {
          "name": "_noOfCertificates",
          "type": "uint256"
        },
        {
          "name": "_faceValue",
          "type": "uint256"
        },
        {
          "name": "_lockInReason",
          "type": "bytes32"
        },
        {
          "name": "_lockInReleaseDate",
          "type": "uint256"
        }
      ],
      "name": "confirmSecurities",
      "outputs": [
        {
          "name": "",
          "type": "bytes32"
        }
      ],
      "payable": false,
      "stateMutability": "nonpayable",
      "type": "function"
    },
    {
      "constant": false,
      "inputs": [
        {
          "name": "_user",
          "type": "address"
        },
        {
          "name": "_ref",
          "type": "bytes32"
        },
        {
          "name": "_status",
          "type": "bytes32"
        }
      ],
      "name": "confirmSecurities",
      "outputs": [],
      "payable": false,
      "stateMutability": "nonpayable",
      "type": "function"
    },
    {
      "constant": true,
      "inputs": [
        {
          "name": "_pregRef",
          "type": "bytes32"
        }
      ],
      "name": "getSecurity",
      "outputs": [
        {
          "name": "",
          "type": "bytes32"
        },
        {
          "name": "",
          "type": "bytes32"
        },
        {
          "name": "",
          "type": "address"
        }
      ],
      "payable": false,
      "stateMutability": "view",
      "type": "function"
    },
    {
      "constant": true,
      "inputs": [
        {
          "name": "_pregRef",
          "type": "bytes32"
        }
      ],
      "name": "getDP",
      "outputs": [
        {
          "name": "",
          "type": "bytes32"
        }
      ],
      "payable": false,
      "stateMutability": "view",
      "type": "function"
    }
  ],
  "bytecode": "0x6080604052611b14806100136000396000f3fe608060405234801561001057600080fd5b50600436106101005760003560e01c80638da5cb5b11610097578063c4d66de811610066578063c4d66de81461040f578063d24e058d14610435578063e58bcfc31461045e578063f2fde38b146104a257610100565b80638da5cb5b146103605780638f32d59b146103845780639d37afe6146103a0578063a053d9eb146103f257610100565b80635633c2b4116100d35780635633c2b41461023a5780636901607414610309578063715018a61461033b5780637a4d26151461034357610100565b80631459457a146101055780631b4bee661461014f5780633504f3aa146101b05780634e8ca2d51461021d575b600080fd5b61014d600480360360a081101561011b57600080fd5b506001600160a01b038135811691602081013582169160408201358116916060810135821691608090910135166104c8565b005b61019e600480360361012081101561016657600080fd5b5080359060208101359060408101359060608101359060808101359060a08101359060c08101359060e08101359061010001356105d1565b60408051918252519081900360200190f35b6101cd600480360360208110156101c657600080fd5b50356108d3565b60408051602080825283518183015283519192839290830191858101910280838360005b838110156102095781810151838201526020016101f1565b505050509050019250505060405180910390f35b61014d6004803603602081101561023357600080fd5b5035610cfb565b6102576004803603602081101561025057600080fd5b5035610f49565b604051808060200180602001846001600160a01b03166001600160a01b03168152602001838103835286818151815260200191508051906020019060200280838360005b838110156102b357818101518382015260200161029b565b50505050905001838103825285818151815260200191508051906020019060200280838360005b838110156102f25781810151838201526020016102da565b505050509050019550505050505060405180910390f35b61014d6004803603606081101561031f57600080fd5b506001600160a01b038135169060208101359060400135611174565b61014d6113f3565b6101cd6004803603602081101561035957600080fd5b5035611499565b6103686115fa565b604080516001600160a01b039092168252519081900360200190f35b61038c611609565b604080519115158252519081900360200190f35b6103bd600480360360208110156103b657600080fd5b503561162f565b604080516001600160a01b03909616865260208601949094528484019290925260608401526080830152519081900360a00190f35b61019e6004803603602081101561040857600080fd5b503561167d565b61014d6004803603602081101561042557600080fd5b50356001600160a01b0316611692565b61014d6004803603606081101561044b57600080fd5b5080359060208101359060400135611787565b61047b6004803603602081101561047457600080fd5b50356117ae565b6040805193845260208401929092526001600160a01b031682820152519081900360600190f35b61014d600480360360208110156104b857600080fd5b50356001600160a01b03166117dc565b600054610100900460ff16806104e157506104e1611844565b806104ef575060005460ff16155b61052d57604051600160e51b62461bcd02815260040180806020018281038252602e815260200180611abb602e913960400191505060405180910390fd5b600054610100900460ff16158015610558576000805460ff1961ff0019909116610100171660011790555b61056133611692565b606a80546001600160a01b03199081166001600160a01b0388811691909117909255606b80548216878416179055606c80548216868416179055606d80548216858416179055606e805490911691881691909117905580156105c9576000805461ff00191690555b505050505050565b606c5460408051600160e01b6330ccebb502815233600482015290516000926001600160a01b0316916330ccebb5916024808301926020929190829003018186803b15801561061f57600080fd5b505afa158015610633573d6000803e3d6000fd5b505050506040513d602081101561064957600080fd5b5051151560011461065957600080fd5b606e5460408051600160e21b633cd163c5028152600481018d9052600160cb1b660acd2c286c2e6d02602482015290516000926001600160a01b03169163f3458f14916044808301926020929190829003018186803b1580156106bb57600080fd5b505afa1580156106cf573d6000803e3d6000fd5b505050506040513d60208110156106e557600080fd5b50516001600160a01b031614156106fb57600080fd5b88600160e01b6346726565021480610720575088600160c11b672637b1b5b2b224b702145b61072957600080fd5b85600160d01b6545717569747902148061074c575085600160e21b63109bdb9902145b80610766575085600160b01b69446562656e747572657302145b8061077b575085600160d81b64556e69747302145b806107a55750857f4365727469666963617465730000000000000000000000000000000000000000145b6107ae57600080fd5b6040805133606081901b60208084019190915242603480850191909152845180850390910181526054909301845282519281019290922060698054600181019091557f7fb4302e8e91f9110a6554c2c0a24601252c2a42c2220ca988efcfe39991430801819055600081815260689093529290912080546001600160a01b0319169091178155600281018c9055600381018b9055600481018a905560058101899055600681018890556009018690556108668561184a565b6000828152606860205260409020600c8101805460809390931c6fffffffffffffffffffffffffffffffff199093169290921790915560078101859055600a810184905542600b820155600160c81b6650656e64696e670260089091015590509998505050505050505050565b6060816108df57600080fd5b60695460408051828152602080840282010190915260609082801561090e578160200160208202803883390190505b50606d5460408051600160e21b631ba3adef02815260048101889052905192935060009283926001600160a01b031691636e8eb7bc916024808301926020929190829003018186803b15801561096357600080fd5b505afa158015610977573d6000803e3d6000fd5b505050506040513d602081101561098d57600080fd5b50519050600160f41b61044502811415610b935760005b606954811015610b865760408051600160e11b633ce10983028152600481018990526000602482015260026044820152905173__stringutils___________________________916379c21306916064808301926020929190829003018186803b158015610a1157600080fd5b505af4158015610a25573d6000803e3d6000fd5b505050506040513d6020811015610a3b57600080fd5b50516069805460689160009185908110610a5157fe5b906000526020600020015481526020019081526020016000206002015473__stringutils___________________________6379c213069091600360056040518463ffffffff1660e01b815260040180848152602001838152602001828152602001935050505060206040518083038186803b158015610ad057600080fd5b505af4158015610ae4573d6000803e3d6000fd5b505050506040513d6020811015610afa57600080fd5b5051148015610b4257506068600060698381548110610b1557fe5b9060005260206000200154815260200190815260200160002060080154600160c81b6650656e64696e6702145b15610b7e5760698181548110610b5457fe5b9060005260206000200154848481518110610b6b57fe5b6020026020010181815250508260010192505b6001016109a4565b5082945050505050610cf6565b606c5460408051600160e01b6330ccebb502815233600482015290516001600160a01b03909216916330ccebb591602480820192602092909190829003018186803b158015610be157600080fd5b505afa158015610bf5573d6000803e3d6000fd5b505050506040513d6020811015610c0b57600080fd5b5051151560011415610cef5760005b606954811015610ced57336001600160a01b03166068600060698481548110610c3f57fe5b600091825260208083209091015483528201929092526040019020546001600160a01b03161415610ce5576068600060698381548110610c7b57fe5b9060005260206000200154815260200190815260200160002060080154600160ba1b6810dbdb999a5c9b5959021415610ce55760698181548110610cbb57fe5b9060005260206000200154848481518110610cd257fe5b6020026020010181815250508260010192505b600101610c1a565b505b5090925050505b919050565b606c5460408051600160e01b6330ccebb502815233600482015290516001600160a01b03909216916330ccebb591602480820192602092909190829003018186803b158015610d4957600080fd5b505afa158015610d5d573d6000803e3d6000fd5b505050506040513d6020811015610d7357600080fd5b50511515600114610d8357600080fd5b606e5460408051600160e21b633cd163c502815260048101849052600160cb1b660acd2c286c2e6d02602482015290516000926001600160a01b03169163f3458f14916044808301926020929190829003018186803b158015610de557600080fd5b505afa158015610df9573d6000803e3d6000fd5b505050506040513d6020811015610e0f57600080fd5b50516001600160a01b03161415610e2557600080fd5b6040805133606081901b60208084019190915242603480850191909152845180850390910181526054840180865281519183019190912060678054600181019091557f9787eeb91fe3101235e4a76063c7023ecb40f923f97916639c598592fa30d6ae0181905560008181526066845286902080546001600160a01b031916909417909355600160e11b633ce109830290526058830185905260056078840152600660988401529251909273__stringutils___________________________926379c213069260b88083019392829003018186803b158015610f0757600080fd5b505af4158015610f1b573d6000803e3d6000fd5b505050506040513d6020811015610f3157600080fd5b50516000918252606660205260409091206001015550565b60408051600480825260a0820190925260609182916000918391906020820160808038833950505060008681526068602052604090206009015481519192509082906001908110610f9657fe5b6020908102919091018101919091526000868152606890915260409020600c0154610fc39060801b6118af565b81600281518110610fd057fe5b60200260200101818152505060686000868152602001908152602001600020600a01548160038151811061100057fe5b60200260200101818152505060686000868152602001908152602001600020600b01548160048151811061103057fe5b602090810291909101015260408051600580825260c082019092526060918160200160208202803883395050506000878152606860205260409020600401548151919250908290600190811061108257fe5b6020026020010181815250506068600087815260200190815260200160002060050154816002815181106110b257fe5b6020026020010181815250506068600087815260200190815260200160002060070154816003815181106110e257fe5b60200260200101818152505060686000878152602001908152602001600020600301548160048151811061111257fe5b60200260200101818152505060686000878152602001908152602001600020600601548160058151811061114257fe5b602090810291909101810191909152600096875260689052604090952054949590946001600160a01b03169350915050565b80600160ba1b6810dbdb999a5c9b595902148061119e575080600160c21b6714995a9958dd195902145b806111b5575080600160c81b6650656e64696e6702145b6111be57600080fd5b6000828152606860205260409020546001600160a01b038481169116146111e457600080fd5b606a54606b54600084815260686020526040808220600281015460058201546004928301548451600160e01b63d6c915bf0281526001600160a01b03978816948101949094526024840192909252604483015260648201529051929093169263d6c915bf926084808301939282900301818387803b15801561126557600080fd5b505af1158015611279573d6000803e3d6000fd5b5050606a546000858152606860209081526040808320600281015460058201546004928301548451600160e51b6304e1d675028152938401929092526024830152604482015290519295506001600160a01b039093169350639c3acea09260648082019391829003018186803b1580156112f257600080fd5b505afa158015611306573d6000803e3d6000fd5b505050506040513d602081101561131c57600080fd5b50516000848152606860205260409020600c01549091506001600160a01b038216906340c10f199086906113529060801b6118af565b6040518363ffffffff1660e01b815260040180836001600160a01b03166001600160a01b0316815260200182815260200192505050600060405180830381600087803b1580156113a157600080fd5b505af11580156113b5573d6000803e3d6000fd5b505050600093845250606860205260409092206001810180546001600160a01b0319166001600160a01b039094169390931790925560089091015550565b6113fb611609565b61144f5760408051600160e51b62461bcd02815260206004820181905260248201527f4f776e61626c653a2063616c6c6572206973206e6f7420746865206f776e6572604482015290519081900360640190fd5b6033546040516000916001600160a01b0316907f8be0079c531659141344cd1fd0a4f28419497f9722a3daafe3b4186f6b6457e0908390a3603380546001600160a01b0319169055565b6060816114a557600080fd5b606754606d5460408051600160e21b631ba3adef0281526004810186905290516000926001600160a01b031691636e8eb7bc916024808301926020929190829003018186803b1580156114f757600080fd5b505afa15801561150b573d6000803e3d6000fd5b505050506040513d602081101561152157600080fd5b50519050600160f41b610445028114156115f357606082604051908082528060200260200182016040528015611561578160200160208202803883390190505b5090506000805b6067548110156115e65786606660006067848154811061158457fe5b906000526020600020015481526020019081526020016000206001015414156115de57606781815481106115b457fe5b90600052602060002001548383815181106115cb57fe5b6020026020010181815250508160010191505b600101611568565b5081945050505050610cf6565b5050919050565b6033546001600160a01b031690565b6033546000906001600160a01b0316611620611948565b6001600160a01b031614905090565b6000808080808561163f57600080fd5b5050506000928352505060666020526040902080546001820154600283015460038401546004909401546001600160a01b0390931694919390929091565b60009081526066602052604090206003015490565b600054610100900460ff16806116ab57506116ab611844565b806116b9575060005460ff16155b6116f757604051600160e51b62461bcd02815260040180806020018281038252602e815260200180611abb602e913960400191505060405180910390fd5b600054610100900460ff16158015611722576000805460ff1961ff0019909116610100171660011790555b603380546001600160a01b0319166001600160a01b0384811691909117918290556040519116906000907f8be0079c531659141344cd1fd0a4f28419497f9722a3daafe3b4186f6b6457e0908290a38015611783576000805461ff00191690555b5050565b8261179157600080fd5b600092835260666020526040909220600381019190915560020155565b60009081526068602052604090206004810154600582015460019092015490926001600160a01b0390911690565b6117e4611609565b6118385760408051600160e51b62461bcd02815260206004820181905260248201527f4f776e61626c653a2063616c6c6572206973206e6f7420746865206f776e6572604482015290519081900360640190fd5b6118418161194c565b50565b303b1590565b60008161185957506000610cf6565b816000611865826119f0565b9050607081101561187e578060700382901b9150611891565b6070811115611891576070810382901c91505b613fff0160701b6001600160701b03919091161760801b9050610cf6565b6000617fff6001600160801b03608084901c1660701c16613fff8110156118da576000915050610cf6565b6001607f1b8360801c6001600160801b0316106118f657600080fd5b6140fe81111561190557600080fd5b600160701b6001600160701b03608085901c161761406f82101561192f5761406f8290031c611941565b61406f8211156119415761406e1982011b5b9392505050565b3390565b6001600160a01b03811661199457604051600160e51b62461bcd028152600401808060200182810382526026815260200180611a956026913960400191505060405180910390fd5b6033546040516001600160a01b038084169216907f8be0079c531659141344cd1fd0a4f28419497f9722a3daafe3b4186f6b6457e090600090a3603380546001600160a01b0319166001600160a01b0392909216919091179055565b60008082116119fe57600080fd5b6000600160801b8310611a1357608092831c92015b680100000000000000008310611a2b57604092831c92015b6401000000008310611a3f57602092831c92015b620100008310611a5157601092831c92015b6101008310611a6257600892831c92015b60108310611a7257600492831c92015b60048310611a8257600292831c92015b60028310611a8e576001015b9291505056fe4f776e61626c653a206e6577206f776e657220697320746865207a65726f2061646472657373436f6e747261637420696e7374616e63652068617320616c7265616479206265656e20696e697469616c697a6564a165627a7a72305820a0740174efa3d26b09ab123b4e63e24afe53e539a81529e6554b393ac61cf28b0029",
  "source": "// Fetching pre-trade information\r\n// (c) Kallol Borah, 2021\r\n\r\npragma solidity 0.5.7;\r\n \r\nimport \"./interfaces/IPreTrade.sol\";\r\nimport \"./interfaces/ISecuritiesRegistry.sol\";\r\nimport \"./interfaces/VerifiedKYC.sol\";\r\nimport \"./interfaces/VerifiedClient.sol\";\r\nimport \"./registry/Security.sol\";\r\nimport \"abdk-libraries-solidity/ABDKMathQuad.sol\";\r\nimport \"@openzeppelin/upgrades/contracts/Initializable.sol\";\r\nimport \"@openzeppelin/contracts-ethereum-package/contracts/ownership/Ownable.sol\";\r\nimport \"./utilities/StringUtils.sol\";\r\nimport \"./interfaces/ViaFactory.sol\";\r\n\r\ncontract PreTrade is IPreTrade, Initializable, Ownable{\r\n\r\n    using ABDKMathQuad for uint256;\r\n    using ABDKMathQuad for int256;\r\n    using ABDKMathQuad for bytes16;\r\n\r\n    using stringutils for *;\r\n\r\n    struct security {   address requestor;\r\n                        address token;\r\n                        bytes32 currencyCode;\r\n                        bytes32 stype;\r\n                        bytes32 isin; \r\n                        bytes32 company; \r\n                        bytes32 itype;\r\n                        //bytes32 folio;\r\n                        //bytes32 fromCertificateNo;\r\n                        //bytes32 toCertificateNo;\r\n                        //bytes32 fromDistinctiveNo;\r\n                        //bytes32 toDistinctiveNo;\r\n                        bytes32 lockInReason;\r\n                        bytes32 approvalStatus;\r\n                        uint noOfCertificates;\r\n                        uint lockInReleaseDate;\r\n                        uint registrationRequestDate;\r\n                        bytes16 faceValue;\r\n                    }\r\n\r\n    struct registration {\r\n                        address user;\r\n                        bytes32 countryCode;\r\n                        bytes32 dematAccountNo;\r\n                        bytes32 DPID;\r\n                        uint registrationDate;\r\n                        }\r\n\r\n    //mapping of demat registration request to Demat account \r\n    mapping(bytes32 => registration) private registrations;\r\n\r\n    //array of registration requests\r\n    bytes32[] regRefs;\r\n    \r\n    //mapping of securities approval request to security details\r\n    mapping(bytes32 => security) private securities;\r\n\r\n    //array of securities approval requests\r\n    bytes32[] secRefs;\r\n \r\n    address securitiesRegistry;\r\n    address securityToken;\r\n    address kyc;\r\n    address client;\r\n    ViaFactory private via;\r\n\r\n    function initialize (address _viaFactory, address _securitiesRegistry, address _securityToken, address _kyc, address _client) public initializer{\r\n        Ownable.initialize(msg.sender);\r\n        securitiesRegistry = _securitiesRegistry;\r\n        securityToken = _securityToken;\r\n        kyc = _kyc;\r\n        client = _client;\r\n        via = ViaFactory(_viaFactory);\r\n    }\r\n\r\n    function registerDematAccount(bytes32 _currencyCode) external {\r\n        require(VerifiedKYC(kyc).getStatus(msg.sender)==true);\r\n        require(via.getTokenByNameType(_currencyCode, \"ViaCash\")!=address(0x0));\r\n        bytes32 ref = keccak256(abi.encodePacked(msg.sender, now));\r\n        regRefs.push(ref);\r\n        registrations[ref].user = msg.sender;\r\n        registrations[ref].countryCode = _currencyCode.substringinbytes(5,6);\r\n    }\r\n\r\n    function getRegistrationRequests(bytes32 _countryCode) external view returns(bytes32[] memory){\r\n        require(_countryCode!=\"\");\r\n        uint entries = regRefs.length;\r\n        bytes32 role = VerifiedClient(client).getRole(_countryCode);\r\n        if(role==\"DP\"){\r\n            bytes32[] memory result = new bytes32[](entries);\r\n            uint entry=0;\r\n            for(uint i=0; i<regRefs.length; i++){\r\n                if(registrations[regRefs[i]].countryCode==_countryCode){\r\n                    result[entry]=regRefs[i];\r\n                    entry = entry+1;\r\n                }\r\n            }\r\n            return result;\r\n        }\r\n    }\r\n\r\n    function getRegistrationRequest(bytes32 _ref) external view returns(address user,\r\n                                                                        bytes32 countryCode,\r\n                                                                        bytes32 dematAccountNo,\r\n                                                                        bytes32 DPID,\r\n                                                                        uint registrationDate){\r\n        require(_ref!=\"\");\r\n        return( registrations[_ref].user,\r\n                registrations[_ref].countryCode,\r\n                registrations[_ref].dematAccountNo,\r\n                registrations[_ref].DPID,\r\n                registrations[_ref].registrationDate);\r\n    }\r\n\r\n    function setRegistrationStatus(bytes32 _ref, bytes32 _DPID, bytes32 _dematAccountNo) external{\r\n        require(_ref!=\"\");\r\n        registrations[_ref].DPID = _DPID;\r\n        registrations[_ref].dematAccountNo = _dematAccountNo;\r\n    }\r\n\r\n    function confirmSecurities(bytes32 _currencyCode, \r\n                                bytes32 _stype, \r\n                                bytes32 _isin, \r\n                                bytes32 _company, \r\n                                bytes32 _itype,\r\n                                //bytes32 _folio,\r\n                                //bytes32 _fromCertificateNo,\r\n                                //bytes32 _toCertificateNo,\r\n                                //bytes32 _fromDistinctiveNo,\r\n                                //bytes32 _toDistinctiveNo,\r\n                                uint _noOfCertificates,\r\n                                uint _faceValue,\r\n                                bytes32 _lockInReason,\r\n                                uint _lockInReleaseDate) external returns(bytes32){\r\n        require(VerifiedKYC(kyc).getStatus(msg.sender)==true);\r\n        require(via.getTokenByNameType(_currencyCode, \"ViaCash\")!=address(0x0));\r\n        require(_stype==\"Free\" || _stype==\"LockedIn\");\r\n        require(_itype==\"Equity\" || _itype==\"Bond\" || _itype==\"Debentures\" || _itype==\"Units\" || _itype==\"Certificates\");\r\n        bytes32 ref = keccak256(abi.encodePacked(msg.sender, now));\r\n        secRefs.push(ref);\r\n        securities[ref].requestor = msg.sender;\r\n        securities[ref].currencyCode = _currencyCode;\r\n        securities[ref].stype = _stype;\r\n        securities[ref].isin = _isin; \r\n        securities[ref].company = _company; \r\n        securities[ref].itype = _itype;\r\n        //registrations[ref].folio = _folio;\r\n        //registrations[ref].fromCertificateNo = _fromCertificateNo;\r\n        //registrations[ref].toCertificateNo = _toCertificateNo;\r\n        //registrations[ref].fromDistinctiveNo = _fromDistinctiveNo;\r\n        //registrations[ref].toDistinctiveNo = _toDistinctiveNo;\r\n        securities[ref].noOfCertificates = _noOfCertificates;\r\n        securities[ref].faceValue = ABDKMathQuad.fromUInt(_faceValue);\r\n        securities[ref].lockInReason = _lockInReason;\r\n        securities[ref].lockInReleaseDate = _lockInReleaseDate;\r\n        securities[ref].registrationRequestDate = now;\r\n        securities[ref].approvalStatus = \"Pending\";\r\n                                            \r\n        return ref;\r\n    }\r\n\r\n    function getConfirmationRequests(bytes32 _countryCode) external view returns(bytes32[] memory){\r\n        require(_countryCode!=\"\");\r\n        uint entries = secRefs.length;\r\n        bytes32[] memory result = new bytes32[](entries);\r\n        uint entry=0;\r\n        bytes32 role = VerifiedClient(client).getRole(_countryCode);\r\n        if(role==\"DP\"){\r\n            for(uint j=0; j<secRefs.length; j++){\r\n                if( securities[secRefs[j]].currencyCode.substringinbytes(3,5)==_countryCode.substringinbytes(0,2) && securities[secRefs[j]].approvalStatus==\"Pending\"){\r\n                    result[entry]=secRefs[j];\r\n                    entry=entry+1;\r\n                }\r\n            }\r\n            return result;\r\n        }\r\n        if(VerifiedKYC(kyc).getStatus(msg.sender)==true){\r\n            for(uint i=0; i<secRefs.length; i++){\r\n                if( securities[secRefs[i]].requestor==msg.sender){\r\n                    if(securities[secRefs[i]].approvalStatus==\"Confirmed\"){\r\n                        result[entry]=secRefs[i];\r\n                        entry=entry+1;\r\n                    }\r\n                }\r\n            }\r\n        }\r\n        return result;        \r\n    }\r\n\r\n    function getConfirmationRequest(bytes32 _ref) external view returns (bytes32[] memory, uint[] memory, address){\r\n        uint[] memory u = new uint[](4);\r\n        u[1]=securities[_ref].noOfCertificates;\r\n        u[2]=ABDKMathQuad.toUInt(securities[_ref].faceValue);\r\n        u[3]=securities[_ref].lockInReleaseDate;\r\n        u[4]=securities[_ref].registrationRequestDate;\r\n        bytes32[] memory b = new bytes32[](5);\r\n        b[1]=securities[_ref].isin;\r\n        b[2]=securities[_ref].company;\r\n        b[3]=securities[_ref].lockInReason;\r\n        b[4]=securities[_ref].stype;\r\n        b[5]=securities[_ref].itype;\r\n        return( \r\n                b, u, securities[_ref].requestor\r\n            );\r\n    }\r\n\r\n    function confirmSecurities(address _user, bytes32 _ref, bytes32 _status) external {\r\n        require(_status==\"Confirmed\" || _status==\"Rejected\" || _status==\"Pending\");\r\n        require(securities[_ref].requestor==_user);\r\n        ISecuritiesRegistry(securitiesRegistry).createSecurity( securityToken,\r\n                                                                securities[_ref].currencyCode,\r\n                                                                securities[_ref].company,\r\n                                                                securities[_ref].isin);\r\n        address _token = ISecuritiesRegistry(securitiesRegistry).getToken(securities[_ref].currencyCode,\r\n                                                                securities[_ref].company,\r\n                                                                securities[_ref].isin);\r\n        Security(_token).mint(_user, ABDKMathQuad.toUInt(securities[_ref].faceValue));\r\n        securities[_ref].token = _token;\r\n        securities[_ref].approvalStatus = _status;\r\n    }\r\n\r\n    function getSecurity(bytes32 _pregRef) external view returns(bytes32, bytes32, address){\r\n        return(securities[_pregRef].isin, securities[_pregRef].company, securities[_pregRef].token);\r\n    }\r\n\r\n    function getDP(bytes32 _pregRef) external view returns(bytes32){\r\n        return(registrations[_pregRef].DPID);\r\n    }\r\n    \r\n}",
  "sourcePath": "D:/Code/verified-trades/contracts/PreTrade.sol",
  "compiler": {
    "name": "solc",
    "version": "0.5.7+commit.6da8b019.Emscripten.clang"
  },
  "schemaVersion": "3.3.3",
  "updatedAt": "2021-05-28T03:40:10.470Z",
  "networkType": "ethereum",
  "devdoc": {
    "methods": {
      "initialize(address)": {
        "details": "Initializes the contract setting the deployer as the initial owner."
      },
      "isOwner()": {
        "details": "Returns true if the caller is the current owner."
      },
      "owner()": {
        "details": "Returns the address of the current owner."
      },
      "renounceOwnership()": {
        "details": "Leaves the contract without owner. It will not be possible to call `onlyOwner` functions anymore. Can only be called by the current owner.     * > Note: Renouncing ownership will leave the contract without an owner, thereby removing any functionality that is only available to the owner."
      },
      "transferOwnership(address)": {
        "details": "Transfers ownership of the contract to a new account (`newOwner`). Can only be called by the current owner."
      }
    }
  },
  "userdoc": {
    "methods": {}
  }
}