{
  "contractName": "PreTrade",
  "abi": [
    {
      "anonymous": false,
      "inputs": [
        {
          "indexed": true,
          "name": "registrationRef",
          "type": "bytes32"
        },
        {
          "indexed": false,
          "name": "user",
          "type": "address"
        },
        {
          "indexed": false,
          "name": "country",
          "type": "bytes32"
        },
        {
          "indexed": false,
          "name": "registrationDate",
          "type": "uint256"
        }
      ],
      "name": "DematAccountRegistered",
      "type": "event"
    },
    {
      "anonymous": false,
      "inputs": [
        {
          "indexed": true,
          "name": "registrationRef",
          "type": "bytes32"
        },
        {
          "indexed": false,
          "name": "user",
          "type": "address"
        },
        {
          "indexed": false,
          "name": "currencyCode",
          "type": "bytes32"
        },
        {
          "indexed": false,
          "name": "stype",
          "type": "bytes32"
        },
        {
          "indexed": false,
          "name": "isin",
          "type": "bytes32"
        },
        {
          "indexed": false,
          "name": "company",
          "type": "bytes32"
        },
        {
          "indexed": false,
          "name": "itype",
          "type": "bytes32"
        },
        {
          "indexed": false,
          "name": "noOfCertificates",
          "type": "uint256"
        },
        {
          "indexed": false,
          "name": "faceValue",
          "type": "uint256"
        },
        {
          "indexed": false,
          "name": "lockInReason",
          "type": "bytes32"
        },
        {
          "indexed": false,
          "name": "lockInReleaseDate",
          "type": "uint256"
        },
        {
          "indexed": false,
          "name": "registrationDate",
          "type": "uint256"
        },
        {
          "indexed": false,
          "name": "status",
          "type": "bytes32"
        }
      ],
      "name": "SecurityRegistered",
      "type": "event"
    },
    {
      "anonymous": false,
      "inputs": [
        {
          "indexed": false,
          "name": "isin",
          "type": "bytes32"
        },
        {
          "indexed": false,
          "name": "noOfCertificates",
          "type": "uint256"
        },
        {
          "indexed": false,
          "name": "user",
          "type": "address"
        },
        {
          "indexed": false,
          "name": "currencyCode",
          "type": "bytes32"
        }
      ],
      "name": "mintSecurity",
      "type": "event"
    },
    {
      "constant": false,
      "inputs": [
        {
          "name": "_viaFactory",
          "type": "address"
        },
        {
          "name": "_securitiesRegistry",
          "type": "address"
        },
        {
          "name": "_securityToken",
          "type": "address"
        },
        {
          "name": "_kyc",
          "type": "address"
        },
        {
          "name": "_client",
          "type": "address"
        }
      ],
      "name": "initialize",
      "outputs": [],
      "payable": false,
      "stateMutability": "nonpayable",
      "type": "function"
    },
    {
      "constant": false,
      "inputs": [
        {
          "name": "_currencyCode",
          "type": "bytes32"
        }
      ],
      "name": "registerDematAccount",
      "outputs": [],
      "payable": false,
      "stateMutability": "nonpayable",
      "type": "function"
    },
    {
      "constant": true,
      "inputs": [
        {
          "name": "_countryCode",
          "type": "bytes32"
        }
      ],
      "name": "getRegistrationRequests",
      "outputs": [
        {
          "name": "",
          "type": "bytes32[]"
        }
      ],
      "payable": false,
      "stateMutability": "view",
      "type": "function"
    },
    {
      "constant": true,
      "inputs": [
        {
          "name": "_ref",
          "type": "bytes32"
        }
      ],
      "name": "getRegistrationRequest",
      "outputs": [
        {
          "name": "user",
          "type": "address"
        },
        {
          "name": "countryCode",
          "type": "bytes32"
        },
        {
          "name": "dematAccountNo",
          "type": "bytes32"
        },
        {
          "name": "DPID",
          "type": "bytes32"
        },
        {
          "name": "registrationDate",
          "type": "uint256"
        }
      ],
      "payable": false,
      "stateMutability": "view",
      "type": "function"
    },
    {
      "constant": false,
      "inputs": [
        {
          "name": "_ref",
          "type": "bytes32"
        },
        {
          "name": "_DPID",
          "type": "bytes32"
        },
        {
          "name": "_dematAccountNo",
          "type": "bytes32"
        }
      ],
      "name": "setRegistrationStatus",
      "outputs": [],
      "payable": false,
      "stateMutability": "nonpayable",
      "type": "function"
    },
    {
      "constant": false,
      "inputs": [
        {
          "name": "_currencyCode",
          "type": "bytes32"
        },
        {
          "name": "_stype",
          "type": "bytes32"
        },
        {
          "name": "_isin",
          "type": "bytes32"
        },
        {
          "name": "_company",
          "type": "bytes32"
        },
        {
          "name": "_itype",
          "type": "bytes32"
        },
        {
          "name": "_noOfCertificates",
          "type": "uint256"
        },
        {
          "name": "_faceValue",
          "type": "uint256"
        },
        {
          "name": "_lockInReason",
          "type": "bytes32"
        },
        {
          "name": "_lockInReleaseDate",
          "type": "uint256"
        }
      ],
      "name": "registerSecurities",
      "outputs": [
        {
          "name": "",
          "type": "bytes32"
        }
      ],
      "payable": false,
      "stateMutability": "nonpayable",
      "type": "function"
    },
    {
      "constant": true,
      "inputs": [
        {
          "name": "_countryCode",
          "type": "bytes32"
        }
      ],
      "name": "getConfirmationRequests",
      "outputs": [
        {
          "name": "",
          "type": "bytes32[]"
        }
      ],
      "payable": false,
      "stateMutability": "view",
      "type": "function"
    },
    {
      "constant": true,
      "inputs": [
        {
          "name": "_ref",
          "type": "bytes32"
        }
      ],
      "name": "getConfirmationRequest",
      "outputs": [
        {
          "components": [
            {
              "name": "requestor",
              "type": "address"
            },
            {
              "name": "currencyCode",
              "type": "bytes32"
            },
            {
              "name": "stype",
              "type": "bytes32"
            },
            {
              "name": "isin",
              "type": "bytes32"
            },
            {
              "name": "company",
              "type": "bytes32"
            },
            {
              "name": "itype",
              "type": "bytes32"
            },
            {
              "name": "lockInReason",
              "type": "bytes32"
            },
            {
              "name": "approvalStatus",
              "type": "bytes32"
            },
            {
              "name": "noOfCertificates",
              "type": "uint256"
            },
            {
              "name": "lockInReleaseDate",
              "type": "uint256"
            },
            {
              "name": "registrationRequestDate",
              "type": "uint256"
            },
            {
              "name": "faceValue",
              "type": "uint256"
            }
          ],
          "name": "",
          "type": "tuple"
        }
      ],
      "payable": false,
      "stateMutability": "view",
      "type": "function"
    },
    {
      "constant": false,
      "inputs": [
        {
          "name": "_user",
          "type": "address"
        },
        {
          "name": "_ref",
          "type": "bytes32"
        },
        {
          "name": "_status",
          "type": "bytes32"
        }
      ],
      "name": "confirmSecurities",
      "outputs": [],
      "payable": false,
      "stateMutability": "nonpayable",
      "type": "function"
    },
    {
      "constant": true,
      "inputs": [
        {
          "name": "_token",
          "type": "address"
        }
      ],
      "name": "getSecurity",
      "outputs": [
        {
          "name": "",
          "type": "bytes32"
        },
        {
          "name": "",
          "type": "bytes32"
        },
        {
          "name": "",
          "type": "address"
        }
      ],
      "payable": false,
      "stateMutability": "view",
      "type": "function"
    },
    {
      "constant": true,
      "inputs": [
        {
          "name": "_party",
          "type": "address"
        }
      ],
      "name": "getDP",
      "outputs": [
        {
          "name": "",
          "type": "bytes32"
        }
      ],
      "payable": false,
      "stateMutability": "view",
      "type": "function"
    }
  ],
  "bytecode": "0x608060405234801561001057600080fd5b50611c41806100206000396000f3fe608060405234801561001057600080fd5b50600436106100a95760003560e01c8063690160741161007157806369016074146101415780637a4d2615146101545780639d37afe614610167578063caffdbe01461018b578063d24e058d146101ab578063e0a87de1146101be576100a9565b80631459457a146100ae5780633504f3aa146100c35780634a161b27146100ec5780634e8ca2d51461010e5780635633c2b414610121575b600080fd5b6100c16100bc36600461149e565b6101d1565b005b6100d66100d1366004611560565b6102bb565b6040516100e39190611ab3565b60405180910390f35b6100ff6100fa36600461145a565b61065b565b6040516100e393929190611ad2565b6100c161011c366004611560565b610692565b61013461012f366004611560565b61093f565b6040516100e39190611b98565b6100c161014f366004611513565b6109f4565b6100d6610162366004611560565b610d4e565b61017a610175366004611560565b610e57565b6040516100e3959493929190611a56565b61019e6101993660046115f7565b610eb8565b6040516100e39190611ac4565b6100c16101b93660046115d6565b6112c7565b61019e6101cc36600461145a565b61139e565b600054610100900460ff16806101ea57506101ea6113b9565b806101f8575060005460ff16155b61022057604051600160e51b62461bcd02815260040161021790611b88565b60405180910390fd5b600054610100900460ff1615801561024b576000805460ff1961ff0019909116610100171660011790555b603a80546001600160a01b03199081166001600160a01b0388811691909117909255603b80548216878416179055603c80548216868416179055603d80548216858416179055603e805490911691881691909117905580156102b3576000805461ff00191690555b505050505050565b6060816102c757600080fd5b6034546040805182815260208084028201019091526060908280156102f6578160200160208202803883390190505b50603d54604051600160e01b634427673302815291925060009182916001600160a01b031690634427673390610330903390600401611911565b604080518083038186803b15801561034757600080fd5b505afa15801561035b573d6000803e3d6000fd5b505050506040513d601f19601f8201168201806040525061037f919081019061159c565b50905080600160f41b6104450214156104ec5760005b6034548110156104e6578660336000603484815481106103b157fe5b906000526020600020015481526020019081526020016000206001015473__stringutils___________________________6379c213069091600260046040518463ffffffff1660e01b815260040161040c93929190611b08565b60206040518083038186803b15801561042457600080fd5b505af4158015610438573d6000803e3d6000fd5b505050506040513d601f19601f8201168201806040525061045c919081019061157e565b1480156104a25750603360006034838154811061047557fe5b9060005260206000200154815260200190815260200160002060070154600160c81b6650656e64696e6702145b156104de57603481815481106104b457fe5b90600052602060002001548484815181106104cb57fe5b6020026020010181815250508260010192505b600101610395565b5061064f565b603c54604051600160e01b6330ccebb50281526001600160a01b03909116906330ccebb59061051f903390600401611911565b60206040518083038186803b15801561053757600080fd5b505afa15801561054b573d6000803e3d6000fd5b505050506040513d601f19601f8201168201806040525061056f919081019061157e565b6003141561064f5760005b60345481101561064d57336001600160a01b0316603360006034848154811061059f57fe5b600091825260208083209091015483528201929092526040019020546001600160a01b031614156106455760336000603483815481106105db57fe5b9060005260206000200154815260200190815260200160002060070154600160ba1b6810dbdb999a5c9b5959021415610645576034818154811061061b57fe5b906000526020600020015484848151811061063257fe5b6020026020010181815250508260010192505b60010161057a565b505b5090925050505b919050565b6001600160a01b03811660009081526035602090815260408083205483526033909152902060038101546004909101549092909190565b603c54604051600160e01b6330ccebb50281526001600160a01b03909116906330ccebb5906106c5903390600401611911565b60206040518083038186803b1580156106dd57600080fd5b505afa1580156106f1573d6000803e3d6000fd5b505050506040513d601f19601f82011682018060405250610715919081019061157e565b60031461072157600080fd5b603e54604051600160e21b633cd163c50281526000916001600160a01b03169063f3458f1490610755908590600401611b30565b60206040518083038186803b15801561076d57600080fd5b505afa158015610781573d6000803e3d6000fd5b505050506040513d601f19601f820116820180604052506107a59190810190611480565b6001600160a01b031614156107b957600080fd5b600033426040516020016107ce9291906118eb565b60408051601f198184030181529082905280516020909101206039805460018101825560009182527fdc16fef70f8d5ddbc01ee3d903d1e69c18a3c7be080eb86a81e0578814ee58d301829055600160e11b633ce109830283529092509073__stringutils___________________________906379c213069061085b9086906002906004908101611b08565b60206040518083038186803b15801561087357600080fd5b505af4158015610887573d6000803e3d6000fd5b505050506040513d601f19601f820116820180604052506108ab919081019061157e565b60008181526037602090815260408083208054600181810183559185528385200187905586845260369092529182902080546001600160a01b031916339081178255426003830181905591909201849055915192935084927f58bcc16f000de622db9efe1c918d173065453510298933fd83bc793d598a7f179261093292918691906119d6565b60405180910390a2505050565b6109476113bf565b61094f6113bf565b5050604080516101808101825260008381526033602081815284832080546001600160a01b031685526001810154828601526002810154958501959095526003850154606085015260048501546080850152600585015460a0850152600685015460c0850152600785015460e085015260088501546101008501526009850154610120850152600a85015461014085015294909152909252600b015461016082015290565b80600160ba1b6810dbdb999a5c9b5959021480610a1e575080600160c21b6714995a9958dd195902145b80610a35575080600160c81b6650656e64696e6702145b610a3e57600080fd5b6000828152603360205260409020546001600160a01b03848116911614610a6457600080fd5b603d54604051600160e01b63442767330281526000916001600160a01b031690634427673390610a98903390600401611911565b604080518083038186803b158015610aaf57600080fd5b505afa158015610ac3573d6000803e3d6000fd5b505050506040513d601f19601f82011682018060405250610ae7919081019061159c565b50905080600160f41b610445021415610d485781600160ba1b6810dbdb999a5c9b5959021415610d3357603a54600084815260336020526040908190208054603b5460018301546004808501546003909501549551600160e01b638d079e4d0281526001600160a01b0397881697638d079e4d97610b7197968216969590911694929091016119fe565b600060405180830381600087803b158015610b8b57600080fd5b505af1158015610b9f573d6000803e3d6000fd5b5050603a5460008681526033602052604080822060018101546004808301546003909301549351600160e51b6304e1d6750281529497506001600160a01b039095169550639c3acea094610bf69491939101611afa565b60206040518083038186803b158015610c0e57600080fd5b505afa158015610c22573d6000803e3d6000fd5b505050506040513d601f19601f82011682018060405250610c469190810190611480565b60008581526033602052604090819020600801549051600160e01b6340c10f190281529192506001600160a01b038316916340c10f1991610c8c91899190600401611a98565b600060405180830381600087803b158015610ca657600080fd5b505af1158015610cba573d6000803e3d6000fd5b505050600085815260336020526040908190206003810154600882015460019092015492517f12f4437a5bc551cb628b0b8dff19f989a896481273b5d44407e354a5424b9b929450610d10939192918a91611b4a565b60405180910390a16001600160a01b031660009081526035602052604090208390555b60008381526033602052604090206007018290555b50505050565b606081610d5a57600080fd5b603d54604051600160e01b63442767330281526000916001600160a01b031690634427673390610d8e903390600401611911565b604080518083038186803b158015610da557600080fd5b505afa158015610db9573d6000803e3d6000fd5b505050506040513d601f19601f82011682018060405250610ddd919081019061159c565b50905080600160f41b610445021415610e515760008381526037602090815260409182902080548351818402810184019094528084529091830182828015610e4457602002820191906000526020600020905b815481526020019060010190808311610e30575b5050505050915050610656565b50919050565b60008080808085610e6757600080fd5b50505060008381526036602081815260408084208054600182015460028301546001600160a01b03909216808852603886529387205499909652939092526003909101549096929591945090925090565b603c54604051600160e01b6330ccebb50281526000916001600160a01b0316906330ccebb590610eec903390600401611911565b60206040518083038186803b158015610f0457600080fd5b505afa158015610f18573d6000803e3d6000fd5b505050506040513d601f19601f82011682018060405250610f3c919081019061157e565b600314610f4857600080fd5b603e54604051600160e21b633cd163c50281526000916001600160a01b03169063f3458f1490610f7c908e90600401611b30565b60206040518083038186803b158015610f9457600080fd5b505afa158015610fa8573d6000803e3d6000fd5b505050506040513d601f19601f82011682018060405250610fcc9190810190611480565b6001600160a01b03161415610fe057600080fd5b88600160e01b6346726565021480611005575088600160c11b672637b1b5b2b224b702145b61100e57600080fd5b85600160d01b65457175697479021480611031575085600160e21b63109bdb9902145b80611045575085600160e21b63119d5b9902145b8061105a575085600160d81b64556e69747302145b806110845750857f4365727469666963617465730000000000000000000000000000000000000000145b61108d57600080fd5b600033426040516020016110a29291906118eb565b6040516020818303038152906040528051906020012090506034819080600181540180825580915050906001820390600052602060002001600090919290919091505550336033600083815260200190815260200160002060000160006101000a8154816001600160a01b0302191690836001600160a01b031602179055508a60336000838152602001908152602001600020600101819055508960336000838152602001908152602001600020600201819055508860336000838152602001908152602001600020600301819055508760336000838152602001908152602001600020600401819055508660336000838152602001908152602001600020600501819055508560336000838152602001908152602001600020600801819055508460336000838152602001908152602001600020600b01819055508360336000838152602001908152602001600020600601819055508260336000838152602001908152602001600020600901819055504260336000838152602001908152602001600020600a0181905550600160c81b6650656e64696e67026033600083815260200190815260200160002060070181905550807ff29cd6feee12eaf6edd39ab726385ab273689710a89086ecb8093d5306f0e214338d8d8d8d8d8d8d8d8d603360008e8152602001908152602001600020600a01546040516112b19b9a99989796959493929190611925565b60405180910390a29a9950505050505050505050565b826112d157600080fd5b603d54604051600160e01b63442767330281526000916001600160a01b031690634427673390611305903390600401611911565b604080518083038186803b15801561131c57600080fd5b505afa158015611330573d6000803e3d6000fd5b505050506040513d601f19601f82011682018060405250611354919081019061159c565b50905080600160f41b610445021415610d485750600083815260366020818152604080842080546001600160a01b0316855260388352908420959095559490915290925260020155565b6001600160a01b031660009081526038602052604090205490565b303b1590565b6040805161018081018252600080825260208201819052918101829052606081018290526080810182905260a0810182905260c0810182905260e0810182905261010081018290526101208101829052610140810182905261016081019190915290565b600061142f8235611bba565b9392505050565b600061142f8251611bba565b600061142f8235611bc5565b600061142f8251611bc5565b60006020828403121561146c57600080fd5b60006114788484611423565b949350505050565b60006020828403121561149257600080fd5b60006114788484611436565b600080600080600060a086880312156114b657600080fd5b60006114c28888611423565b95505060206114d388828901611423565b94505060406114e488828901611423565b93505060606114f588828901611423565b925050608061150688828901611423565b9150509295509295909350565b60008060006060848603121561152857600080fd5b60006115348686611423565b935050602061154586828701611442565b925050604061155686828701611442565b9150509250925092565b60006020828403121561157257600080fd5b60006114788484611442565b60006020828403121561159057600080fd5b6000611478848461144e565b600080604083850312156115af57600080fd5b60006115bb858561144e565b92505060206115cc8582860161144e565b9150509250929050565b6000806000606084860312156115eb57600080fd5b60006115348686611442565b60008060008060008060008060006101208a8c03121561161657600080fd5b60006116228c8c611442565b99505060206116338c828d01611442565b98505060406116448c828d01611442565b97505060606116558c828d01611442565b96505060806116668c828d01611442565b95505060a06116778c828d01611442565b94505060c06116888c828d01611442565b93505060e06116998c828d01611442565b9250506101006116ab8c828d01611442565b9150509295985092959850929598565b60006116c7838361174d565b505060200190565b6116d881611bd4565b82525050565b6116d86116ea82611bba565b611bf5565b6116d881611bba565b600061170382611bad565b61170d8185611bb1565b935061171883611ba7565b60005b828110156117435761172e8683516116bb565b955061173982611ba7565b915060010161171b565b5093949350505050565b6116d881611bc5565b6116d881611bdf565b600160f41b610445029052565b600160cb1b660acd2c286c2e6d029052565b600160c81b6650656e64696e67029052565b600061179d602e83611bb1565b7f436f6e747261637420696e7374616e63652068617320616c726561647920626581527f656e20696e697469616c697a6564000000000000000000000000000000000000602082015260400192915050565b805161018083019061180184826116ef565b506020820151611814602085018261174d565b506040820151611827604085018261174d565b50606082015161183a606085018261174d565b50608082015161184d608085018261174d565b5060a082015161186060a085018261174d565b5060c082015161187360c085018261174d565b5060e082015161188660e085018261174d565b5061010082015161189b61010085018261174d565b506101208201516118b061012085018261174d565b506101408201516118c561014085018261174d565b50610160820151610d4861016085018261174d565b6116d86118e682611bc5565b611bc5565b60006118f782856116de565b60148201915061190782846118da565b5060200192915050565b6020810161191f82846116cf565b92915050565b6101808101611934828e6116cf565b611941602083018d61174d565b61194e604083018c61174d565b61195b606083018b61174d565b611968608083018a61174d565b61197560a083018961174d565b61198260c083018861174d565b61198f60e083018761174d565b61199d61010083018661174d565b6119ab61012083018561174d565b6119b961014083018461174d565b6119c6610160830161177e565b9c9b505050505050505050505050565b606081016119e482866116cf565b6119f1602083018561174d565b611478604083018461174d565b60c08101611a0c82886116ef565b611a1960208301876116ef565b611a26604083018661174d565b611a33606083018561174d565b611a40608083018461174d565b611a4c60a0830161175f565b9695505050505050565b60a08101611a6482886116ef565b611a71602083018761174d565b611a7e604083018661174d565b611a8b606083018561174d565b611a4c608083018461174d565b60408101611aa682856116ef565b61142f602083018461174d565b6020808252810161142f81846116f8565b6020810161191f828461174d565b60608101611ae0828661174d565b611aed602083018561174d565b61147860408301846116ef565b606081016119e4828661174d565b60608101611b16828661174d565b611b236020830185611756565b6114786040830184611756565b60408101611b3e828461174d565b61191f6020830161176c565b60808101611b58828761174d565b611b65602083018661174d565b611b7260408301856116ef565b611b7f606083018461174d565b95945050505050565b6020808252810161191f81611790565b610180810161191f82846117ef565b60200190565b5190565b90815260200190565b600061191f82611bc8565b90565b6001600160a01b031690565b600061191f82611bea565b600061191f82611bc5565b600061191f82611bba565b600061191f82600061191f8260601b9056fea265627a7a72305820a9eab40bdb373762006dde002ee21d07d12106572fef9d366e430f30567dea8c6c6578706572696d656e74616cf50037",
  "source": "// Fetching pre-trade information\r\n// (c) Kallol Borah, 2021\r\n\r\npragma solidity 0.5.7;\r\npragma experimental ABIEncoderV2;\r\n \r\nimport \"./interfaces/IPreTrade.sol\";\r\nimport \"./interfaces/ISecuritiesRegistry.sol\";\r\nimport \"./interfaces/VerifiedKYC.sol\";\r\nimport \"./interfaces/VerifiedClient.sol\";\r\nimport \"./registry/Security.sol\";\r\nimport \"abdk-libraries-solidity/ABDKMathQuad.sol\";\r\nimport \"@openzeppelin/upgrades/contracts/Initializable.sol\";\r\nimport \"./utilities/StringUtils.sol\";\r\nimport \"./interfaces/ViaFactory.sol\";\r\n\r\ncontract PreTrade is IPreTrade, Initializable {\r\n\r\n    using ABDKMathQuad for uint256;\r\n    using ABDKMathQuad for int256;\r\n    using ABDKMathQuad for bytes16;\r\n\r\n    using stringutils for *;\r\n\r\n    //mapping of securities approval request to security details\r\n    mapping(bytes32 => security) private securities;\r\n\r\n    //array of securities approval requests\r\n    bytes32[] private secRefs;\r\n\r\n    //mapping security token to security registration\r\n    mapping(address => bytes32) private issuedSecurity;\r\n    \r\n    struct registration {\r\n                        address user;\r\n                        bytes32 countryCode;\r\n                        bytes32 dematAccountNo;\r\n                        //bytes32 DPID;\r\n                        uint256 registrationDate;\r\n                        }\r\n\r\n    //mapping of demat registration request to Demat account \r\n    mapping(bytes32 => registration) private registrations;\r\n\r\n    //mapping of country to registration references\r\n    mapping(bytes32 => bytes32[]) private countryRegistrations;\r\n\r\n    //mapping users to DPs\r\n    mapping(address => bytes32) private userDP;\r\n\r\n    //array of registration requests\r\n    bytes32[] private regRefs;\r\n    \r\n    address securitiesRegistry;\r\n    address securityToken;\r\n    address kyc;\r\n    address client;\r\n    ViaFactory private via;\r\n\r\n    event DematAccountRegistered(bytes32 indexed registrationRef, address user, bytes32 country, uint256 registrationDate);\r\n    event SecurityRegistered(bytes32 indexed registrationRef, \r\n                                address user, \r\n                                bytes32 currencyCode, \r\n                                bytes32 stype, \r\n                                bytes32 isin, \r\n                                bytes32 company, \r\n                                bytes32 itype,\r\n                                uint256 noOfCertificates,\r\n                                uint256 faceValue,\r\n                                bytes32 lockInReason,\r\n                                uint256 lockInReleaseDate,\r\n                                uint256 registrationDate, \r\n                                bytes32 status);\r\n    event mintSecurity(bytes32 isin, uint256 noOfCertificates, address user, bytes32 currencyCode);\r\n\r\n    function initialize (address _viaFactory, address _securitiesRegistry, address _securityToken, address _kyc, address _client) public initializer{\r\n        securitiesRegistry = _securitiesRegistry;\r\n        securityToken = _securityToken;\r\n        kyc = _kyc;\r\n        client = _client;\r\n        via = ViaFactory(_viaFactory);\r\n    }\r\n\r\n    function registerDematAccount(bytes32 _currencyCode) external {\r\n        require(VerifiedKYC(kyc).getStatus(msg.sender)==3);\r\n        require(via.getTokenByNameType(_currencyCode, \"ViaCash\")!=address(0x0));\r\n        bytes32 ref = keccak256(abi.encodePacked(msg.sender, now));\r\n        regRefs.push(ref);\r\n        bytes32 country = _currencyCode.substringinbytes(2,4);\r\n        countryRegistrations[country].push(ref);\r\n        registrations[ref].user = msg.sender;\r\n        registrations[ref].registrationDate = now;\r\n        registrations[ref].countryCode = country;\r\n        emit DematAccountRegistered(ref, msg.sender, registrations[ref].countryCode, now);\r\n    }\r\n\r\n    function getRegistrationRequests(bytes32 _countryCode) external view returns(bytes32[] memory){\r\n        require(_countryCode!=\"\");\r\n        (bytes32 role, ) = VerifiedClient(client).getRole(msg.sender);\r\n        if(role==\"DP\"){\r\n            return countryRegistrations[_countryCode];\r\n        }\r\n    }\r\n\r\n    function getRegistrationRequest(bytes32 _ref) external view returns(address user,\r\n                                                                        bytes32 countryCode,\r\n                                                                        bytes32 dematAccountNo,\r\n                                                                        bytes32 DPID,\r\n                                                                        uint registrationDate){\r\n        require(_ref!=\"\");\r\n        return( registrations[_ref].user,\r\n                registrations[_ref].countryCode,\r\n                registrations[_ref].dematAccountNo,\r\n                userDP[registrations[_ref].user],\r\n                registrations[_ref].registrationDate);\r\n    }\r\n\r\n    function setRegistrationStatus(bytes32 _ref, bytes32 _DPID, bytes32 _dematAccountNo) external{\r\n        require(_ref!=\"\");\r\n        (bytes32 role, ) = VerifiedClient(client).getRole(msg.sender);\r\n        if(role==\"DP\"){\r\n            userDP[registrations[_ref].user] = _DPID;\r\n            registrations[_ref].dematAccountNo = _dematAccountNo;\r\n        }\r\n    }\r\n\r\n    function registerSecurities(bytes32 _currencyCode, \r\n                                bytes32 _stype, \r\n                                bytes32 _isin, \r\n                                bytes32 _company, \r\n                                bytes32 _itype,\r\n                                uint _noOfCertificates,\r\n                                uint _faceValue,\r\n                                bytes32 _lockInReason,\r\n                                uint _lockInReleaseDate) external returns(bytes32){\r\n        require(VerifiedKYC(kyc).getStatus(msg.sender)==3);\r\n        require(via.getTokenByNameType(_currencyCode, \"ViaCash\")!=address(0x0));\r\n        require(_stype==\"Free\" || _stype==\"LockedIn\");\r\n        require(_itype==\"Equity\" || _itype==\"Bond\" || _itype==\"Fund\" || _itype==\"Units\" || _itype==\"Certificates\");\r\n        bytes32 ref = keccak256(abi.encodePacked(msg.sender, now));\r\n        secRefs.push(ref);\r\n        securities[ref].requestor = msg.sender;\r\n        securities[ref].currencyCode = _currencyCode;\r\n        securities[ref].stype = _stype;\r\n        securities[ref].isin = _isin; \r\n        securities[ref].company = _company; \r\n        securities[ref].itype = _itype;\r\n        securities[ref].noOfCertificates = _noOfCertificates;\r\n        securities[ref].faceValue = _faceValue;\r\n        securities[ref].lockInReason = _lockInReason;\r\n        securities[ref].lockInReleaseDate = _lockInReleaseDate;\r\n        securities[ref].registrationRequestDate = now;\r\n        securities[ref].approvalStatus = \"Pending\";\r\n        emit SecurityRegistered(ref, msg.sender, _currencyCode, _stype, _isin, _company, _itype, _noOfCertificates, _faceValue, _lockInReason, _lockInReleaseDate, securities[ref].registrationRequestDate, \"Pending\");                                    \r\n        return ref;\r\n    }\r\n\r\n    function getConfirmationRequests(bytes32 _countryCode) external view returns(bytes32[] memory){\r\n        require(_countryCode!=\"\");\r\n        uint entries = secRefs.length;\r\n        bytes32[] memory result = new bytes32[](entries);\r\n        uint entry=0;\r\n        (bytes32 role, ) = VerifiedClient(client).getRole(msg.sender);\r\n        if(role==\"DP\"){\r\n            for(uint j=0; j<secRefs.length; j++){\r\n                if( securities[secRefs[j]].currencyCode.substringinbytes(2,4)==_countryCode && securities[secRefs[j]].approvalStatus==\"Pending\"){\r\n                    result[entry]=secRefs[j];\r\n                    entry=entry+1;\r\n                }\r\n            }\r\n        }\r\n        else if(VerifiedKYC(kyc).getStatus(msg.sender)==3){\r\n            for(uint i=0; i<secRefs.length; i++){\r\n                if( securities[secRefs[i]].requestor==msg.sender){\r\n                    if(securities[secRefs[i]].approvalStatus==\"Confirmed\"){\r\n                        result[entry]=secRefs[i];\r\n                        entry=entry+1;\r\n                    }\r\n                }\r\n            }\r\n        }\r\n        return result;        \r\n    }\r\n\r\n    function getConfirmationRequest(bytes32 _ref) external view returns (security memory){\r\n        IPreTrade.security memory response = IPreTrade.security({\r\n            requestor : securities[_ref].requestor,\r\n            currencyCode : securities[_ref].currencyCode,\r\n            stype : securities[_ref].stype,\r\n            isin : securities[_ref].isin, \r\n            company : securities[_ref].company, \r\n            itype : securities[_ref].itype,\r\n            lockInReason : securities[_ref].lockInReason,\r\n            approvalStatus : securities[_ref].approvalStatus,\r\n            noOfCertificates : securities[_ref].noOfCertificates,\r\n            lockInReleaseDate : securities[_ref].lockInReleaseDate,\r\n            registrationRequestDate : securities[_ref].registrationRequestDate,\r\n            faceValue : securities[_ref].faceValue\r\n        });\r\n        return response;\r\n    }\r\n\r\n    function confirmSecurities(address _user, bytes32 _ref, bytes32 _status) external {\r\n        require(_status==\"Confirmed\" || _status==\"Rejected\" || _status==\"Pending\");\r\n        require(securities[_ref].requestor==_user);\r\n        (bytes32 role, ) = VerifiedClient(client).getRole(msg.sender);\r\n        if(role==\"DP\"){\r\n            if(_status==\"Confirmed\"){\r\n                ISecuritiesRegistry(securitiesRegistry).createSecurity( securities[_ref].requestor,\r\n                                                                        securityToken,\r\n                                                                        securities[_ref].currencyCode,\r\n                                                                        securities[_ref].company,\r\n                                                                        securities[_ref].isin, \"DP\");\r\n                address _token = ISecuritiesRegistry(securitiesRegistry).getToken(securities[_ref].currencyCode,\r\n                                                                        securities[_ref].company,\r\n                                                                        securities[_ref].isin);\r\n                Security(_token).mint(_user, securities[_ref].noOfCertificates);\r\n                emit mintSecurity(securities[_ref].isin, securities[_ref].noOfCertificates, _user, securities[_ref].currencyCode);\r\n                issuedSecurity[_token] = _ref;\r\n            }\r\n            securities[_ref].approvalStatus = _status;\r\n        }\r\n    }\r\n\r\n    function getSecurity(address _token) external view returns(bytes32, bytes32, address){\r\n        return(securities[issuedSecurity[_token]].isin, securities[issuedSecurity[_token]].company, _token);        \r\n    }\r\n\r\n    function getDP(address _party) external view returns(bytes32){\r\n        return (userDP[_party]);\r\n    }\r\n    \r\n}",
  "sourcePath": "D:\\Code\\verified-trades\\contracts\\PreTrade.sol",
  "compiler": {
    "name": "solc",
    "version": "0.5.7+commit.6da8b019.Emscripten.clang"
  },
  "schemaVersion": "3.4.3",
  "updatedAt": "2022-04-12T02:53:27.095Z",
  "networkType": "ethereum",
  "devdoc": {
    "methods": {}
  },
  "userdoc": {
    "methods": {}
  }
}