{
  "contractName": "Security",
  "abi": [
    {
      "constant": true,
      "inputs": [],
      "name": "name",
      "outputs": [
        {
          "name": "",
          "type": "string"
        }
      ],
      "payable": false,
      "stateMutability": "view",
      "type": "function"
    },
    {
      "constant": false,
      "inputs": [
        {
          "name": "spender",
          "type": "address"
        },
        {
          "name": "amount",
          "type": "uint256"
        }
      ],
      "name": "approve",
      "outputs": [
        {
          "name": "",
          "type": "bool"
        }
      ],
      "payable": false,
      "stateMutability": "nonpayable",
      "type": "function"
    },
    {
      "constant": true,
      "inputs": [],
      "name": "totalSupply",
      "outputs": [
        {
          "name": "",
          "type": "uint256"
        }
      ],
      "payable": false,
      "stateMutability": "view",
      "type": "function"
    },
    {
      "constant": false,
      "inputs": [
        {
          "name": "spender",
          "type": "address"
        },
        {
          "name": "addedValue",
          "type": "uint256"
        }
      ],
      "name": "increaseAllowance",
      "outputs": [
        {
          "name": "",
          "type": "bool"
        }
      ],
      "payable": false,
      "stateMutability": "nonpayable",
      "type": "function"
    },
    {
      "constant": true,
      "inputs": [
        {
          "name": "account",
          "type": "address"
        }
      ],
      "name": "balanceOf",
      "outputs": [
        {
          "name": "",
          "type": "uint256"
        }
      ],
      "payable": false,
      "stateMutability": "view",
      "type": "function"
    },
    {
      "constant": true,
      "inputs": [],
      "name": "symbol",
      "outputs": [
        {
          "name": "",
          "type": "string"
        }
      ],
      "payable": false,
      "stateMutability": "view",
      "type": "function"
    },
    {
      "constant": false,
      "inputs": [
        {
          "name": "spender",
          "type": "address"
        },
        {
          "name": "subtractedValue",
          "type": "uint256"
        }
      ],
      "name": "decreaseAllowance",
      "outputs": [
        {
          "name": "",
          "type": "bool"
        }
      ],
      "payable": false,
      "stateMutability": "nonpayable",
      "type": "function"
    },
    {
      "constant": false,
      "inputs": [
        {
          "name": "recipient",
          "type": "address"
        },
        {
          "name": "amount",
          "type": "uint256"
        }
      ],
      "name": "transfer",
      "outputs": [
        {
          "name": "",
          "type": "bool"
        }
      ],
      "payable": false,
      "stateMutability": "nonpayable",
      "type": "function"
    },
    {
      "constant": true,
      "inputs": [
        {
          "name": "owner",
          "type": "address"
        },
        {
          "name": "spender",
          "type": "address"
        }
      ],
      "name": "allowance",
      "outputs": [
        {
          "name": "",
          "type": "uint256"
        }
      ],
      "payable": false,
      "stateMutability": "view",
      "type": "function"
    },
    {
      "anonymous": false,
      "inputs": [
        {
          "indexed": true,
          "name": "from",
          "type": "address"
        },
        {
          "indexed": true,
          "name": "to",
          "type": "address"
        },
        {
          "indexed": false,
          "name": "value",
          "type": "uint256"
        }
      ],
      "name": "Transfer",
      "type": "event"
    },
    {
      "anonymous": false,
      "inputs": [
        {
          "indexed": true,
          "name": "owner",
          "type": "address"
        },
        {
          "indexed": true,
          "name": "spender",
          "type": "address"
        },
        {
          "indexed": false,
          "name": "value",
          "type": "uint256"
        }
      ],
      "name": "Approval",
      "type": "event"
    },
    {
      "constant": false,
      "inputs": [
        {
          "name": "_company",
          "type": "bytes32"
        },
        {
          "name": "_isin",
          "type": "bytes32"
        },
        {
          "name": "_preTradeContract",
          "type": "address"
        },
        {
          "name": "_tradeContract",
          "type": "address"
        },
        {
          "name": "_postTradeContract",
          "type": "address"
        },
        {
          "name": "_clientContract",
          "type": "address"
        }
      ],
      "name": "initialize",
      "outputs": [],
      "payable": false,
      "stateMutability": "nonpayable",
      "type": "function"
    },
    {
      "constant": false,
      "inputs": [
        {
          "name": "_transferor",
          "type": "address"
        },
        {
          "name": "_transferee",
          "type": "address"
        },
        {
          "name": "_qty",
          "type": "uint256"
        }
      ],
      "name": "transferFrom",
      "outputs": [
        {
          "name": "",
          "type": "bool"
        }
      ],
      "payable": false,
      "stateMutability": "nonpayable",
      "type": "function"
    },
    {
      "constant": false,
      "inputs": [
        {
          "name": "_account",
          "type": "address"
        },
        {
          "name": "_amount",
          "type": "uint256"
        }
      ],
      "name": "mint",
      "outputs": [],
      "payable": false,
      "stateMutability": "nonpayable",
      "type": "function"
    },
    {
      "constant": true,
      "inputs": [
        {
          "name": "_holder",
          "type": "address"
        }
      ],
      "name": "getSettlements",
      "outputs": [
        {
          "components": [
            {
              "name": "transferee",
              "type": "address"
            },
            {
              "name": "transferor",
              "type": "address"
            },
            {
              "name": "amount",
              "type": "uint256"
            },
            {
              "name": "transferDateTime",
              "type": "uint256"
            }
          ],
          "name": "",
          "type": "tuple[]"
        }
      ],
      "payable": false,
      "stateMutability": "view",
      "type": "function"
    }
  ],
  "bytecode": "0x60806040526113e7806100136000396000f3fe608060405234801561001057600080fd5b50600436106100cf5760003560e01c806370a082311161008c578063a457c2d711610066578063a457c2d714610190578063a9059cbb146101a3578063dd62ed3e146101b6578063ef49fb6d146101c9576100cf565b806370a082311461016257806389d29c4c1461017557806395d89b4114610188576100cf565b806306fdde03146100d4578063095ea7b3146100f257806318160ddd1461011257806323b872dd14610127578063395093511461013a57806340c10f191461014d575b600080fd5b6100dc6101e9565b6040516100e9919061126e565b60405180910390f35b610105610100366004610e39565b610277565b6040516100e99190611260565b61011a610295565b6040516100e991906112ef565b610105610135366004610dec565b61029c565b610105610148366004610e39565b61045d565b61016061015b366004610e39565b6104b6565b005b61011a610170366004610d6e565b6105bc565b610160610183366004610e69565b6105d7565b6100dc610724565b61010561019e366004610e39565b61077f565b6101056101b1366004610e39565b6107ed565b61011a6101c4366004610db2565b610801565b6101dc6101d7366004610d6e565b61082c565b6040516100e9919061124f565b6068805460408051602060026001851615610100026000190190941693909304601f8101849004840282018401909252818152929183018282801561026f5780601f106102445761010080835404028352916020019161026f565b820191906000526020600020905b81548152906001019060200180831161025257829003601f168201915b505050505081565b600061028b610284610977565b848461097b565b5060015b92915050565b6035545b90565b606b546000906001600160a01b03163314806102c25750606c546001600160a01b031633145b6102cb57600080fd5b6001600160a01b0383166000908152606f602052604090205460ff161515600114610314576001600160a01b0383166000908152606f60205260409020805460ff191660011790555b61031c610c78565b50604080516080810182526001600160a01b03808616808352878216602080850191825284860188815242606087019081526000948552606e835296842080546001818101835591865292909420865160049093020180549286166001600160a01b03199384161781559251938301805494909516939091169290921790925551600282015591516003909201919091556103b5610c78565b50604080516080810182526001600160a01b038087168252878116602080840182815284860189815242606087019081526000948552606e845296842080546001818101835591865293909420865160049094020180549386166001600160a01b031994851617815591519382018054949095169390921692909217909255905160028201559151600390920191909155610451868686610a35565b50600195945050505050565b600061028b61046a610977565b846104b1856034600061047b610977565b6001600160a01b03908116825260208083019390935260409182016000908120918c16815292529020549063ffffffff610b5116565b61097b565b606a546001600160a01b031633146104cd57600080fd5b6001600160a01b0382166000908152606f602052604090205460ff161515600114610516576001600160a01b0382166000908152606f60205260409020805460ff191660011790555b61051e610c78565b50604080516080810182526001600160a01b0380851680835230602080850191825284860187815242606087019081526000948552606e835296842080546001818101835591865292909420865160049093020180549286166001600160a01b03199384161781559251938301805494909516939091169290921790925551600282015591516003909201919091556105b78383610b80565b505050565b6001600160a01b031660009081526033602052604090205490565b600054610100900460ff16806105f057506105f0610c43565b806105fe575060005460ff16155b61062657604051600160e51b62461bcd02815260040161061d906112af565b60405180910390fd5b600054610100900460ff16158015610651576000805460ff1961ff0019909116610100171660011790555b868660405160200161066492919061121b565b60405160208183030381529060405260689080519060200190610688929190610cb2565b508560405160200161069a9190611206565b604051602081830303815290604052606990805190602001906106be929190610cb2565b50606a80546001600160a01b038088166001600160a01b031992831617909255606b8054878416908316179055606c8054868416908316179055606d805492851692909116919091179055801561071b576000805461ff00191690555b50505050505050565b6069805460408051602060026001851615610100026000190190941693909304601f8101849004840282018401909252818152929183018282801561026f5780601f106102445761010080835404028352916020019161026f565b600061028b61078c610977565b846104b18560405180606001604052806025815260200161138960259139603460006107b6610977565b6001600160a01b03908116825260208083019390935260409182016000908120918d1681529252902054919063ffffffff610c4916565b600061028b6107fa610977565b8484610a35565b6001600160a01b03918216600090815260346020908152604080832093909416825291909152205490565b60606001600160a01b0382163314806108ce5750606d54604051600160e01b633d58406302815233916001600160a01b031690633d58406390610873908690600401611241565b60206040518083038186803b15801561088b57600080fd5b505afa15801561089f573d6000803e3d6000fd5b505050506040513d601f19601f820116820180604052506108c39190810190610d94565b6001600160a01b0316145b6108d757600080fd5b6001600160a01b0382166000908152606e6020908152604080832080548251818502810185019093528083529193909284015b8282101561096c576000848152602090819020604080516080810182526004860290920180546001600160a01b03908116845260018083015490911684860152600282015492840192909252600301546060830152908352909201910161090a565b505050509050919050565b3390565b6001600160a01b0383166109a457604051600160e51b62461bcd02815260040161061d906112cf565b6001600160a01b0382166109cd57604051600160e51b62461bcd02815260040161061d9061128f565b6001600160a01b0380841660008181526034602090815260408083209487168084529490915290819020849055517f8c5be1e5ebec7d5bd14f71427d1e84f3dd0314c0f7b2291e5b200ac8c7c3b92590610a289085906112ef565b60405180910390a3505050565b6001600160a01b038316610a5e57604051600160e51b62461bcd02815260040161061d906112bf565b6001600160a01b038216610a8757604051600160e51b62461bcd02815260040161061d9061127f565b610aca81604051806060016040528060268152602001611363602691396001600160a01b038616600090815260336020526040902054919063ffffffff610c4916565b6001600160a01b038085166000908152603360205260408082209390935590841681522054610aff908263ffffffff610b5116565b6001600160a01b0380841660008181526033602052604090819020939093559151908516907fddf252ad1be2c89b69c2b068fc378daa952ba7f163c4a11628f55a4df523b3ef90610a289085906112ef565b600082820183811015610b7957604051600160e51b62461bcd02815260040161061d9061129f565b9392505050565b6001600160a01b038216610ba957604051600160e51b62461bcd02815260040161061d906112df565b603554610bbc908263ffffffff610b5116565b6035556001600160a01b038216600090815260336020526040902054610be8908263ffffffff610b5116565b6001600160a01b0383166000818152603360205260408082209390935591519091907fddf252ad1be2c89b69c2b068fc378daa952ba7f163c4a11628f55a4df523b3ef90610c379085906112ef565b60405180910390a35050565b303b1590565b60008184841115610c7057604051600160e51b62461bcd02815260040161061d919061126e565b505050900390565b604051806080016040528060006001600160a01b0316815260200160006001600160a01b0316815260200160008152602001600081525090565b828054600181600116156101000203166002900490600052602060002090601f016020900481019282601f10610cf357805160ff1916838001178555610d20565b82800160010185558215610d20579182015b82811115610d20578251825591602001919060010190610d05565b50610d2c929150610d30565b5090565b61029991905b80821115610d2c5760008155600101610d36565b6000610b798235611310565b6000610b798251611310565b6000610b798235610299565b600060208284031215610d8057600080fd5b6000610d8c8484610d4a565b949350505050565b600060208284031215610da657600080fd5b6000610d8c8484610d56565b60008060408385031215610dc557600080fd5b6000610dd18585610d4a565b9250506020610de285828601610d4a565b9150509250929050565b600080600060608486031215610e0157600080fd5b6000610e0d8686610d4a565b9350506020610e1e86828701610d4a565b9250506040610e2f86828701610d62565b9150509250925092565b60008060408385031215610e4c57600080fd5b6000610e588585610d4a565b9250506020610de285828601610d62565b60008060008060008060c08789031215610e8257600080fd5b6000610e8e8989610d62565b9650506020610e9f89828a01610d62565b9550506040610eb089828a01610d4a565b9450506060610ec189828a01610d4a565b9350506080610ed289828a01610d4a565b92505060a0610ee389828a01610d4a565b9150509295509295509295565b6000610efc83836111ad565b505060800190565b610f0d81611310565b82525050565b6000610f1e82611303565b610f288185611307565b9350610f33836112fd565b60005b82811015610f5e57610f49868351610ef0565b9550610f54826112fd565b9150600101610f36565b5093949350505050565b610f0d8161131b565b610f0d610f7d82610299565b610299565b6000610f8d82611303565b610f978185611307565b9350610fa781856020860161132c565b610fb081611358565b9093019392505050565b6000610fc7602383611307565b7f45524332303a207472616e7366657220746f20746865207a65726f20616464728152600160e81b6265737302602082015260400192915050565b600061100f602283611307565b7f45524332303a20617070726f766520746f20746865207a65726f2061646472658152600160f01b61737302602082015260400192915050565b6000611056601b83611307565b7f536166654d6174683a206164646974696f6e206f766572666c6f770000000000815260200192915050565b600061108f602e83611307565b7f436f6e747261637420696e7374616e63652068617320616c726561647920626581527f656e20696e697469616c697a6564000000000000000000000000000000000000602082015260400192915050565b60006110ee602583611307565b7f45524332303a207472616e736665722066726f6d20746865207a65726f2061648152600160d81b64647265737302602082015260400192915050565b6000611138602483611307565b7f45524332303a20617070726f76652066726f6d20746865207a65726f206164648152600160e01b637265737302602082015260400192915050565b6000611181601f83611307565b7f45524332303a206d696e7420746f20746865207a65726f206164647265737300815260200192915050565b805160808301906111be8482610f04565b5060208201516111d16020850182610f04565b5060408201516111e460408501826111fd565b5060608201516111f760608501826111fd565b50505050565b610f0d81610299565b60006112128284610f71565b50602001919050565b60006112278285610f71565b6020820191506112378284610f71565b5060200192915050565b6020810161028f8284610f04565b60208082528101610b798184610f13565b6020810161028f8284610f68565b60208082528101610b798184610f82565b6020808252810161028f81610fba565b6020808252810161028f81611002565b6020808252810161028f81611049565b6020808252810161028f81611082565b6020808252810161028f816110e1565b6020808252810161028f8161112b565b6020808252810161028f81611174565b6020810161028f82846111fd565b60200190565b5190565b90815260200190565b600061028f82611320565b151590565b6001600160a01b031690565b60005b8381101561134757818101518382015260200161132f565b838111156111f75750506000910152565b601f01601f19169056fe45524332303a207472616e7366657220616d6f756e7420657863656564732062616c616e636545524332303a2064656372656173656420616c6c6f77616e63652062656c6f77207a65726fa265627a7a723058200ecb3a669da7411fb427973953e5fd42355b4d052ef58b8153c0bd5dfbb588606c6578706572696d656e74616cf50037",
  "source": "// A simple ERC20 based security token\r\n// (c) Kallol Borah, 2021\r\n\r\npragma solidity 0.5.7;\r\npragma experimental ABIEncoderV2;\r\n\r\nimport \"../interfaces/ISecurity.sol\";\r\nimport \"../interfaces/VerifiedClient.sol\";\r\nimport \"@openzeppelin/upgrades/contracts/Initializable.sol\";\r\nimport \"@openzeppelin/contracts-ethereum-package/contracts/token/ERC20/ERC20.sol\";\r\n\r\ncontract Security is Initializable, ERC20 {\r\n\r\n    string public name;\r\n    string public symbol;\r\n\r\n    address preTradeContract;\r\n    address tradeContract;\r\n    address postTradeContract;\r\n    address clientContract;\r\n\r\n    // mapping security token holders to tokens held\r\n    mapping(address => ISecurity.registry[]) private SettlementRegistry;\r\n\r\n    //indexing holders of this security token\r\n    mapping(address => bool) private holders;\r\n\r\n    function initialize(bytes32 _company, \r\n                        bytes32 _isin, \r\n                        address _preTradeContract, \r\n                        address _tradeContract, \r\n                        address _postTradeContract, \r\n                        address _clientContract\r\n                        ) public initializer {\r\n        name = string(abi.encodePacked(_company, _isin));\r\n        symbol = string(abi.encodePacked(_isin));\r\n        preTradeContract = _preTradeContract;\r\n        tradeContract = _tradeContract;\r\n        postTradeContract = _postTradeContract;\r\n        clientContract = _clientContract;\r\n    }\r\n\r\n    function transferFrom(address _transferor, address _transferee, uint256 _qty) public returns(bool) {\r\n        require(msg.sender==tradeContract || msg.sender==postTradeContract);\r\n        if(holders[_transferee]!=true)\r\n            holders[_transferee]=true;\r\n        ISecurity.registry memory r1 = ISecurity.registry({\r\n            transferee : _transferee,\r\n            transferor : _transferor,\r\n            amount : _qty,\r\n            transferDateTime : now\r\n        }); \r\n        SettlementRegistry[_transferee].push(r1);\r\n        ISecurity.registry memory r2 = ISecurity.registry({\r\n            transferee : _transferee,\r\n            transferor : _transferor,\r\n            amount : _qty,\r\n            transferDateTime : now\r\n        }); \r\n        SettlementRegistry[_transferor].push(r2);\r\n        _transfer(_transferor, _transferee, _qty); \r\n        return true;\r\n    }\r\n\r\n    function mint(address _account, uint256 _amount) external {\r\n        require(msg.sender==preTradeContract);\r\n        if(holders[_account]!=true)\r\n            holders[_account]=true;\r\n        ISecurity.registry memory r = ISecurity.registry({\r\n            transferee : _account,\r\n            transferor : address(this),\r\n            amount : _amount,\r\n            transferDateTime : now\r\n        }); \r\n        SettlementRegistry[_account].push(r);\r\n        _mint(_account, _amount);\r\n    }\r\n\r\n    function getSettlements(address _holder) external view returns(ISecurity.registry[] memory){\r\n        require(_holder==msg.sender || VerifiedClient(clientContract).getManager(_holder)==msg.sender);\r\n        return (SettlementRegistry[_holder]);\r\n    }\r\n\r\n}",
  "sourcePath": "D:\\Code\\verified-trades\\contracts\\registry\\Security.sol",
  "compiler": {
    "name": "solc",
    "version": "0.5.7+commit.6da8b019.Emscripten.clang"
  },
  "schemaVersion": "3.4.3",
  "updatedAt": "2022-02-05T15:49:24.485Z",
  "networkType": "ethereum",
  "devdoc": {
    "methods": {
      "allowance(address,address)": {
        "details": "See {IERC20-allowance}."
      },
      "approve(address,uint256)": {
        "details": "See {IERC20-approve}.     * Requirements:     * - `spender` cannot be the zero address."
      },
      "balanceOf(address)": {
        "details": "See {IERC20-balanceOf}."
      },
      "decreaseAllowance(address,uint256)": {
        "details": "Atomically decreases the allowance granted to `spender` by the caller.     * This is an alternative to {approve} that can be used as a mitigation for problems described in {IERC20-approve}.     * Emits an {Approval} event indicating the updated allowance.     * Requirements:     * - `spender` cannot be the zero address. - `spender` must have allowance for the caller of at least `subtractedValue`."
      },
      "increaseAllowance(address,uint256)": {
        "details": "Atomically increases the allowance granted to `spender` by the caller.     * This is an alternative to {approve} that can be used as a mitigation for problems described in {IERC20-approve}.     * Emits an {Approval} event indicating the updated allowance.     * Requirements:     * - `spender` cannot be the zero address."
      },
      "totalSupply()": {
        "details": "See {IERC20-totalSupply}."
      },
      "transfer(address,uint256)": {
        "details": "See {IERC20-transfer}.     * Requirements:     * - `recipient` cannot be the zero address. - the caller must have a balance of at least `amount`."
      }
    }
  },
  "userdoc": {
    "methods": {}
  }
}