{
  "contractName": "Security",
  "abi": [
    {
      "constant": true,
      "inputs": [],
      "name": "name",
      "outputs": [
        {
          "name": "",
          "type": "string"
        }
      ],
      "payable": false,
      "stateMutability": "view",
      "type": "function"
    },
    {
      "constant": false,
      "inputs": [
        {
          "name": "spender",
          "type": "address"
        },
        {
          "name": "amount",
          "type": "uint256"
        }
      ],
      "name": "approve",
      "outputs": [
        {
          "name": "",
          "type": "bool"
        }
      ],
      "payable": false,
      "stateMutability": "nonpayable",
      "type": "function"
    },
    {
      "constant": true,
      "inputs": [],
      "name": "totalSupply",
      "outputs": [
        {
          "name": "",
          "type": "uint256"
        }
      ],
      "payable": false,
      "stateMutability": "view",
      "type": "function"
    },
    {
      "constant": false,
      "inputs": [
        {
          "name": "spender",
          "type": "address"
        },
        {
          "name": "addedValue",
          "type": "uint256"
        }
      ],
      "name": "increaseAllowance",
      "outputs": [
        {
          "name": "",
          "type": "bool"
        }
      ],
      "payable": false,
      "stateMutability": "nonpayable",
      "type": "function"
    },
    {
      "constant": true,
      "inputs": [
        {
          "name": "account",
          "type": "address"
        }
      ],
      "name": "balanceOf",
      "outputs": [
        {
          "name": "",
          "type": "uint256"
        }
      ],
      "payable": false,
      "stateMutability": "view",
      "type": "function"
    },
    {
      "constant": true,
      "inputs": [],
      "name": "symbol",
      "outputs": [
        {
          "name": "",
          "type": "string"
        }
      ],
      "payable": false,
      "stateMutability": "view",
      "type": "function"
    },
    {
      "constant": false,
      "inputs": [
        {
          "name": "spender",
          "type": "address"
        },
        {
          "name": "subtractedValue",
          "type": "uint256"
        }
      ],
      "name": "decreaseAllowance",
      "outputs": [
        {
          "name": "",
          "type": "bool"
        }
      ],
      "payable": false,
      "stateMutability": "nonpayable",
      "type": "function"
    },
    {
      "constant": false,
      "inputs": [
        {
          "name": "recipient",
          "type": "address"
        },
        {
          "name": "amount",
          "type": "uint256"
        }
      ],
      "name": "transfer",
      "outputs": [
        {
          "name": "",
          "type": "bool"
        }
      ],
      "payable": false,
      "stateMutability": "nonpayable",
      "type": "function"
    },
    {
      "constant": true,
      "inputs": [
        {
          "name": "owner",
          "type": "address"
        },
        {
          "name": "spender",
          "type": "address"
        }
      ],
      "name": "allowance",
      "outputs": [
        {
          "name": "",
          "type": "uint256"
        }
      ],
      "payable": false,
      "stateMutability": "view",
      "type": "function"
    },
    {
      "anonymous": false,
      "inputs": [
        {
          "indexed": true,
          "name": "from",
          "type": "address"
        },
        {
          "indexed": true,
          "name": "to",
          "type": "address"
        },
        {
          "indexed": false,
          "name": "value",
          "type": "uint256"
        }
      ],
      "name": "Transfer",
      "type": "event"
    },
    {
      "anonymous": false,
      "inputs": [
        {
          "indexed": true,
          "name": "owner",
          "type": "address"
        },
        {
          "indexed": true,
          "name": "spender",
          "type": "address"
        },
        {
          "indexed": false,
          "name": "value",
          "type": "uint256"
        }
      ],
      "name": "Approval",
      "type": "event"
    },
    {
      "constant": false,
      "inputs": [
        {
          "name": "_company",
          "type": "bytes32"
        },
        {
          "name": "_isin",
          "type": "bytes32"
        },
        {
          "name": "_preTradeContract",
          "type": "address"
        },
        {
          "name": "_tradeContract",
          "type": "address"
        },
        {
          "name": "_postTradeContract",
          "type": "address"
        },
        {
          "name": "_clientContract",
          "type": "address"
        },
        {
          "name": "_owner",
          "type": "address"
        }
      ],
      "name": "initialize",
      "outputs": [],
      "payable": false,
      "stateMutability": "nonpayable",
      "type": "function"
    },
    {
      "constant": false,
      "inputs": [
        {
          "name": "_transferor",
          "type": "address"
        },
        {
          "name": "_transferee",
          "type": "address"
        },
        {
          "name": "_qty",
          "type": "uint256"
        }
      ],
      "name": "transferFrom",
      "outputs": [
        {
          "name": "",
          "type": "bool"
        }
      ],
      "payable": false,
      "stateMutability": "nonpayable",
      "type": "function"
    },
    {
      "constant": false,
      "inputs": [
        {
          "name": "_account",
          "type": "address"
        },
        {
          "name": "_amount",
          "type": "uint256"
        }
      ],
      "name": "mint",
      "outputs": [],
      "payable": false,
      "stateMutability": "nonpayable",
      "type": "function"
    },
    {
      "constant": true,
      "inputs": [
        {
          "name": "_holder",
          "type": "address"
        }
      ],
      "name": "getSettlements",
      "outputs": [
        {
          "components": [
            {
              "name": "transferee",
              "type": "address"
            },
            {
              "name": "transferor",
              "type": "address"
            },
            {
              "name": "amount",
              "type": "uint256"
            },
            {
              "name": "transferDateTime",
              "type": "uint256"
            }
          ],
          "name": "",
          "type": "tuple[]"
        }
      ],
      "payable": false,
      "stateMutability": "view",
      "type": "function"
    }
  ],
  "bytecode": "0x608060405261152d806100136000396000f3fe608060405234801561001057600080fd5b50600436106100cf5760003560e01c806370a082311161008c578063a9059cbb11610066578063a9059cbb14610190578063dd62ed3e146101a3578063ec34086a146101b6578063ef49fb6d146101c9576100cf565b806370a082311461016257806395d89b4114610175578063a457c2d71461017d576100cf565b806306fdde03146100d4578063095ea7b3146100f257806318160ddd1461011257806323b872dd14610127578063395093511461013a57806340c10f191461014d575b600080fd5b6100dc6101e9565b6040516100e991906113b4565b60405180910390f35b610105610100366004610f6a565b610277565b6040516100e991906113a6565b61011a610295565b6040516100e99190611435565b610105610135366004610f1d565b61029c565b610105610148366004610f6a565b6104ef565b61016061015b366004610f6a565b610548565b005b61011a610170366004610e9f565b6106e0565b6100dc6106fb565b61010561018b366004610f6a565b610756565b61010561019e366004610f6a565b6107c4565b61011a6101b1366004610ee3565b6107d8565b6101606101c4366004610f9a565b610803565b6101dc6101d7366004610e9f565b61095d565b6040516100e99190611395565b6068805460408051602060026001851615610100026000190190941693909304601f8101849004840282018401909252818152929183018282801561026f5780601f106102445761010080835404028352916020019161026f565b820191906000526020600020905b81548152906001019060200180831161025257829003601f168201915b505050505081565b600061028b610284610aa8565b8484610aac565b5060015b92915050565b6035545b90565b606b546000906001600160a01b03163314806102c25750606c546001600160a01b031633145b806103545750606e5460408051600160e31b631127a41d02815290516001600160a01b0390921691339163893d20e8916004808301926020929190829003018186803b15801561031157600080fd5b505afa158015610325573d6000803e3d6000fd5b505050506040513d601f19601f820116820180604052506103499190810190610ec5565b6001600160a01b0316145b61035d57600080fd5b6001600160a01b03831660009081526070602052604090205460ff1615156001146103a6576001600160a01b0383166000908152607060205260409020805460ff191660011790555b6103ae610da9565b50604080516080810182526001600160a01b03808616808352878216602080850191825284860188815242606087019081526000948552606f835296842080546001818101835591865292909420865160049093020180549286166001600160a01b0319938416178155925193830180549490951693909116929092179092555160028201559151600390920191909155610447610da9565b50604080516080810182526001600160a01b038087168252878116602080840182815284860189815242606087019081526000948552606f845296842080546001818101835591865293909420865160049094020180549386166001600160a01b0319948516178155915193820180549490951693909216929092179092559051600282015591516003909201919091556104e3868686610b66565b50600195945050505050565b600061028b6104fc610aa8565b84610543856034600061050d610aa8565b6001600160a01b03908116825260208083019390935260409182016000908120918c16815292529020549063ffffffff610c8216565b610aac565b606a546001600160a01b03163314806105e85750606e5460408051600160e31b631127a41d02815290516001600160a01b0390921691339163893d20e8916004808301926020929190829003018186803b1580156105a557600080fd5b505afa1580156105b9573d6000803e3d6000fd5b505050506040513d601f19601f820116820180604052506105dd9190810190610ec5565b6001600160a01b0316145b6105f157600080fd5b6001600160a01b03821660009081526070602052604090205460ff16151560011461063a576001600160a01b0382166000908152607060205260409020805460ff191660011790555b610642610da9565b50604080516080810182526001600160a01b0380851680835230602080850191825284860187815242606087019081526000948552606f835296842080546001818101835591865292909420865160049093020180549286166001600160a01b03199384161781559251938301805494909516939091169290921790925551600282015591516003909201919091556106db8383610cb1565b505050565b6001600160a01b031660009081526033602052604090205490565b6069805460408051602060026001851615610100026000190190941693909304601f8101849004840282018401909252818152929183018282801561026f5780601f106102445761010080835404028352916020019161026f565b600061028b610763610aa8565b84610543856040518060600160405280602581526020016114cf602591396034600061078d610aa8565b6001600160a01b03908116825260208083019390935260409182016000908120918d1681529252902054919063ffffffff610d7416565b600061028b6107d1610aa8565b8484610b66565b6001600160a01b03918216600090815260346020908152604080832093909416825291909152205490565b600054610100900460ff168061081c575061081c610da3565b8061082a575060005460ff16155b61085257604051600160e51b62461bcd028152600401610849906113f5565b60405180910390fd5b600054610100900460ff1615801561087d576000805460ff1961ff0019909116610100171660011790555b8787604051602001610890929190611361565b604051602081830303815290604052606890805190602001906108b4929190610de3565b50866040516020016108c6919061134c565b604051602081830303815290604052606990805190602001906108ea929190610de3565b50606a80546001600160a01b03199081166001600160a01b0389811691909117909255606b80548216888416179055606c80548216878416179055606d80548216868416179055606e80549091169184169190911790558015610953576000805461ff00191690555b5050505050505050565b60606001600160a01b0382163314806109ff5750606d54604051600160e01b633d58406302815233916001600160a01b031690633d584063906109a4908690600401611387565b60206040518083038186803b1580156109bc57600080fd5b505afa1580156109d0573d6000803e3d6000fd5b505050506040513d601f19601f820116820180604052506109f49190810190610ec5565b6001600160a01b0316145b610a0857600080fd5b6001600160a01b0382166000908152606f6020908152604080832080548251818502810185019093528083529193909284015b82821015610a9d576000848152602090819020604080516080810182526004860290920180546001600160a01b039081168452600180830154909116848601526002820154928401929092526003015460608301529083529092019101610a3b565b505050509050919050565b3390565b6001600160a01b038316610ad557604051600160e51b62461bcd02815260040161084990611415565b6001600160a01b038216610afe57604051600160e51b62461bcd028152600401610849906113d5565b6001600160a01b0380841660008181526034602090815260408083209487168084529490915290819020849055517f8c5be1e5ebec7d5bd14f71427d1e84f3dd0314c0f7b2291e5b200ac8c7c3b92590610b59908590611435565b60405180910390a3505050565b6001600160a01b038316610b8f57604051600160e51b62461bcd02815260040161084990611405565b6001600160a01b038216610bb857604051600160e51b62461bcd028152600401610849906113c5565b610bfb816040518060600160405280602681526020016114a9602691396001600160a01b038616600090815260336020526040902054919063ffffffff610d7416565b6001600160a01b038085166000908152603360205260408082209390935590841681522054610c30908263ffffffff610c8216565b6001600160a01b0380841660008181526033602052604090819020939093559151908516907fddf252ad1be2c89b69c2b068fc378daa952ba7f163c4a11628f55a4df523b3ef90610b59908590611435565b600082820183811015610caa57604051600160e51b62461bcd028152600401610849906113e5565b9392505050565b6001600160a01b038216610cda57604051600160e51b62461bcd02815260040161084990611425565b603554610ced908263ffffffff610c8216565b6035556001600160a01b038216600090815260336020526040902054610d19908263ffffffff610c8216565b6001600160a01b0383166000818152603360205260408082209390935591519091907fddf252ad1be2c89b69c2b068fc378daa952ba7f163c4a11628f55a4df523b3ef90610d68908590611435565b60405180910390a35050565b60008184841115610d9b57604051600160e51b62461bcd02815260040161084991906113b4565b505050900390565b303b1590565b604051806080016040528060006001600160a01b0316815260200160006001600160a01b0316815260200160008152602001600081525090565b828054600181600116156101000203166002900490600052602060002090601f016020900481019282601f10610e2457805160ff1916838001178555610e51565b82800160010185558215610e51579182015b82811115610e51578251825591602001919060010190610e36565b50610e5d929150610e61565b5090565b61029991905b80821115610e5d5760008155600101610e67565b6000610caa8235611456565b6000610caa8251611456565b6000610caa8235610299565b600060208284031215610eb157600080fd5b6000610ebd8484610e7b565b949350505050565b600060208284031215610ed757600080fd5b6000610ebd8484610e87565b60008060408385031215610ef657600080fd5b6000610f028585610e7b565b9250506020610f1385828601610e7b565b9150509250929050565b600080600060608486031215610f3257600080fd5b6000610f3e8686610e7b565b9350506020610f4f86828701610e7b565b9250506040610f6086828701610e93565b9150509250925092565b60008060408385031215610f7d57600080fd5b6000610f898585610e7b565b9250506020610f1385828601610e93565b600080600080600080600060e0888a031215610fb557600080fd5b6000610fc18a8a610e93565b9750506020610fd28a828b01610e93565b9650506040610fe38a828b01610e7b565b9550506060610ff48a828b01610e7b565b94505060806110058a828b01610e7b565b93505060a06110168a828b01610e7b565b92505060c06110278a828b01610e7b565b91505092959891949750929550565b600061104283836112f3565b505060800190565b61105381611456565b82525050565b600061106482611449565b61106e818561144d565b935061107983611443565b60005b828110156110a45761108f868351611036565b955061109a82611443565b915060010161107c565b5093949350505050565b61105381611461565b6110536110c382610299565b610299565b60006110d382611449565b6110dd818561144d565b93506110ed818560208601611472565b6110f68161149e565b9093019392505050565b600061110d60238361144d565b7f45524332303a207472616e7366657220746f20746865207a65726f20616464728152600160e81b6265737302602082015260400192915050565b600061115560228361144d565b7f45524332303a20617070726f766520746f20746865207a65726f2061646472658152600160f01b61737302602082015260400192915050565b600061119c601b8361144d565b7f536166654d6174683a206164646974696f6e206f766572666c6f770000000000815260200192915050565b60006111d5602e8361144d565b7f436f6e747261637420696e7374616e63652068617320616c726561647920626581527f656e20696e697469616c697a6564000000000000000000000000000000000000602082015260400192915050565b600061123460258361144d565b7f45524332303a207472616e736665722066726f6d20746865207a65726f2061648152600160d81b64647265737302602082015260400192915050565b600061127e60248361144d565b7f45524332303a20617070726f76652066726f6d20746865207a65726f206164648152600160e01b637265737302602082015260400192915050565b60006112c7601f8361144d565b7f45524332303a206d696e7420746f20746865207a65726f206164647265737300815260200192915050565b80516080830190611304848261104a565b506020820151611317602085018261104a565b50604082015161132a6040850182611343565b50606082015161133d6060850182611343565b50505050565b61105381610299565b600061135882846110b7565b50602001919050565b600061136d82856110b7565b60208201915061137d82846110b7565b5060200192915050565b6020810161028f828461104a565b60208082528101610caa8184611059565b6020810161028f82846110ae565b60208082528101610caa81846110c8565b6020808252810161028f81611100565b6020808252810161028f81611148565b6020808252810161028f8161118f565b6020808252810161028f816111c8565b6020808252810161028f81611227565b6020808252810161028f81611271565b6020808252810161028f816112ba565b6020810161028f8284611343565b60200190565b5190565b90815260200190565b600061028f82611466565b151590565b6001600160a01b031690565b60005b8381101561148d578181015183820152602001611475565b8381111561133d5750506000910152565b601f01601f19169056fe45524332303a207472616e7366657220616d6f756e7420657863656564732062616c616e636545524332303a2064656372656173656420616c6c6f77616e63652062656c6f77207a65726fa265627a7a72305820cb779fcbe37d9f703bf1ca5c1dd03a0572f65fc1b7e201c286689b53ff360c7e6c6578706572696d656e74616cf50037",
  "source": "// A simple ERC20 based security token\r\n// (c) Kallol Borah, 2021\r\n\r\npragma solidity 0.5.7;\r\npragma experimental ABIEncoderV2;\r\n\r\nimport \"../interfaces/ISecurity.sol\";\r\nimport \"../interfaces/VerifiedClient.sol\";\r\nimport \"../interfaces/VerifiedIssues.sol\";\r\nimport \"../interfaces/IMarketMaker.sol\";\r\nimport \"@openzeppelin/upgrades/contracts/Initializable.sol\";\r\nimport \"@openzeppelin/contracts-ethereum-package/contracts/token/ERC20/ERC20.sol\";\r\n\r\ncontract Security is Initializable, ERC20 {\r\n\r\n    string public name;\r\n    string public symbol;\r\n\r\n    address preTradeContract;\r\n    address tradeContract;\r\n    address postTradeContract;\r\n    address clientContract;\r\n    address owner;\r\n\r\n    // mapping security token holders to tokens held\r\n    mapping(address => ISecurity.registry[]) private SettlementRegistry;\r\n\r\n    //indexing holders of this security token\r\n    mapping(address => bool) private holders;\r\n\r\n    function initialize(bytes32 _company, \r\n                        bytes32 _isin, \r\n                        address _preTradeContract, \r\n                        address _tradeContract, \r\n                        address _postTradeContract, \r\n                        address _clientContract,\r\n                        address _owner\r\n                        ) public initializer {\r\n        name = string(abi.encodePacked(_company, _isin));\r\n        symbol = string(abi.encodePacked(_isin));\r\n        preTradeContract = _preTradeContract;\r\n        tradeContract = _tradeContract;\r\n        postTradeContract = _postTradeContract;\r\n        clientContract = _clientContract;\r\n        owner = _owner;\r\n    }\r\n\r\n    function transferFrom(address _transferor, address _transferee, uint256 _qty) public returns(bool) {\r\n        require(msg.sender==tradeContract || msg.sender==postTradeContract || IMarketMaker(msg.sender).getOwner()==owner);\r\n        if(holders[_transferee]!=true)\r\n            holders[_transferee]=true;\r\n        ISecurity.registry memory r1 = ISecurity.registry({\r\n            transferee : _transferee,\r\n            transferor : _transferor,\r\n            amount : _qty,\r\n            transferDateTime : now\r\n        }); \r\n        SettlementRegistry[_transferee].push(r1);\r\n        ISecurity.registry memory r2 = ISecurity.registry({\r\n            transferee : _transferee,\r\n            transferor : _transferor,\r\n            amount : _qty,\r\n            transferDateTime : now\r\n        }); \r\n        SettlementRegistry[_transferor].push(r2);\r\n        _transfer(_transferor, _transferee, _qty); \r\n        return true;\r\n    }\r\n\r\n    function mint(address _account, uint256 _amount) external {\r\n        require(msg.sender==preTradeContract || VerifiedIssues(msg.sender).getOwner()==owner); \r\n        if(holders[_account]!=true)\r\n            holders[_account]=true;\r\n        ISecurity.registry memory r = ISecurity.registry({\r\n            transferee : _account,\r\n            transferor : address(this),\r\n            amount : _amount,\r\n            transferDateTime : now\r\n        }); \r\n        SettlementRegistry[_account].push(r);\r\n        _mint(_account, _amount);\r\n    }\r\n\r\n    function getSettlements(address _holder) external view returns(ISecurity.registry[] memory){\r\n        require(_holder==msg.sender || VerifiedClient(clientContract).getManager(_holder)==msg.sender);\r\n        return (SettlementRegistry[_holder]);\r\n    }\r\n\r\n}",
  "sourcePath": "D:\\Code\\verified-trades\\contracts\\registry\\Security.sol",
  "compiler": {
    "name": "solc",
    "version": "0.5.7+commit.6da8b019.Emscripten.clang"
  },
  "schemaVersion": "3.4.3",
  "updatedAt": "2022-04-02T11:50:18.499Z",
  "networkType": "ethereum",
  "devdoc": {
    "methods": {
      "allowance(address,address)": {
        "details": "See {IERC20-allowance}."
      },
      "approve(address,uint256)": {
        "details": "See {IERC20-approve}.     * Requirements:     * - `spender` cannot be the zero address."
      },
      "balanceOf(address)": {
        "details": "See {IERC20-balanceOf}."
      },
      "decreaseAllowance(address,uint256)": {
        "details": "Atomically decreases the allowance granted to `spender` by the caller.     * This is an alternative to {approve} that can be used as a mitigation for problems described in {IERC20-approve}.     * Emits an {Approval} event indicating the updated allowance.     * Requirements:     * - `spender` cannot be the zero address. - `spender` must have allowance for the caller of at least `subtractedValue`."
      },
      "increaseAllowance(address,uint256)": {
        "details": "Atomically increases the allowance granted to `spender` by the caller.     * This is an alternative to {approve} that can be used as a mitigation for problems described in {IERC20-approve}.     * Emits an {Approval} event indicating the updated allowance.     * Requirements:     * - `spender` cannot be the zero address."
      },
      "totalSupply()": {
        "details": "See {IERC20-totalSupply}."
      },
      "transfer(address,uint256)": {
        "details": "See {IERC20-transfer}.     * Requirements:     * - `recipient` cannot be the zero address. - the caller must have a balance of at least `amount`."
      }
    }
  },
  "userdoc": {
    "methods": {}
  }
}