{
  "contractName": "Security",
  "abi": [
    {
      "constant": true,
      "inputs": [],
      "name": "name",
      "outputs": [
        {
          "name": "",
          "type": "string"
        }
      ],
      "payable": false,
      "stateMutability": "view",
      "type": "function"
    },
    {
      "constant": false,
      "inputs": [
        {
          "name": "spender",
          "type": "address"
        },
        {
          "name": "amount",
          "type": "uint256"
        }
      ],
      "name": "approve",
      "outputs": [
        {
          "name": "",
          "type": "bool"
        }
      ],
      "payable": false,
      "stateMutability": "nonpayable",
      "type": "function"
    },
    {
      "constant": true,
      "inputs": [],
      "name": "totalSupply",
      "outputs": [
        {
          "name": "",
          "type": "uint256"
        }
      ],
      "payable": false,
      "stateMutability": "view",
      "type": "function"
    },
    {
      "constant": false,
      "inputs": [
        {
          "name": "spender",
          "type": "address"
        },
        {
          "name": "addedValue",
          "type": "uint256"
        }
      ],
      "name": "increaseAllowance",
      "outputs": [
        {
          "name": "",
          "type": "bool"
        }
      ],
      "payable": false,
      "stateMutability": "nonpayable",
      "type": "function"
    },
    {
      "constant": true,
      "inputs": [
        {
          "name": "account",
          "type": "address"
        }
      ],
      "name": "balanceOf",
      "outputs": [
        {
          "name": "",
          "type": "uint256"
        }
      ],
      "payable": false,
      "stateMutability": "view",
      "type": "function"
    },
    {
      "constant": false,
      "inputs": [],
      "name": "renounceOwnership",
      "outputs": [],
      "payable": false,
      "stateMutability": "nonpayable",
      "type": "function"
    },
    {
      "constant": true,
      "inputs": [],
      "name": "owner",
      "outputs": [
        {
          "name": "",
          "type": "address"
        }
      ],
      "payable": false,
      "stateMutability": "view",
      "type": "function"
    },
    {
      "constant": true,
      "inputs": [],
      "name": "isOwner",
      "outputs": [
        {
          "name": "",
          "type": "bool"
        }
      ],
      "payable": false,
      "stateMutability": "view",
      "type": "function"
    },
    {
      "constant": true,
      "inputs": [],
      "name": "symbol",
      "outputs": [
        {
          "name": "",
          "type": "string"
        }
      ],
      "payable": false,
      "stateMutability": "view",
      "type": "function"
    },
    {
      "constant": false,
      "inputs": [
        {
          "name": "spender",
          "type": "address"
        },
        {
          "name": "subtractedValue",
          "type": "uint256"
        }
      ],
      "name": "decreaseAllowance",
      "outputs": [
        {
          "name": "",
          "type": "bool"
        }
      ],
      "payable": false,
      "stateMutability": "nonpayable",
      "type": "function"
    },
    {
      "constant": false,
      "inputs": [
        {
          "name": "recipient",
          "type": "address"
        },
        {
          "name": "amount",
          "type": "uint256"
        }
      ],
      "name": "transfer",
      "outputs": [
        {
          "name": "",
          "type": "bool"
        }
      ],
      "payable": false,
      "stateMutability": "nonpayable",
      "type": "function"
    },
    {
      "constant": true,
      "inputs": [
        {
          "name": "owner",
          "type": "address"
        },
        {
          "name": "spender",
          "type": "address"
        }
      ],
      "name": "allowance",
      "outputs": [
        {
          "name": "",
          "type": "uint256"
        }
      ],
      "payable": false,
      "stateMutability": "view",
      "type": "function"
    },
    {
      "constant": false,
      "inputs": [
        {
          "name": "newOwner",
          "type": "address"
        }
      ],
      "name": "transferOwnership",
      "outputs": [],
      "payable": false,
      "stateMutability": "nonpayable",
      "type": "function"
    },
    {
      "anonymous": false,
      "inputs": [
        {
          "indexed": true,
          "name": "from",
          "type": "address"
        },
        {
          "indexed": true,
          "name": "to",
          "type": "address"
        },
        {
          "indexed": false,
          "name": "value",
          "type": "uint256"
        }
      ],
      "name": "Transfer",
      "type": "event"
    },
    {
      "anonymous": false,
      "inputs": [
        {
          "indexed": true,
          "name": "owner",
          "type": "address"
        },
        {
          "indexed": true,
          "name": "spender",
          "type": "address"
        },
        {
          "indexed": false,
          "name": "value",
          "type": "uint256"
        }
      ],
      "name": "Approval",
      "type": "event"
    },
    {
      "anonymous": false,
      "inputs": [
        {
          "indexed": true,
          "name": "previousOwner",
          "type": "address"
        },
        {
          "indexed": true,
          "name": "newOwner",
          "type": "address"
        }
      ],
      "name": "OwnershipTransferred",
      "type": "event"
    },
    {
      "constant": false,
      "inputs": [
        {
          "name": "_company",
          "type": "bytes32"
        },
        {
          "name": "_isin",
          "type": "bytes32"
        },
        {
          "name": "_preTradeContract",
          "type": "address"
        },
        {
          "name": "_tradeContract",
          "type": "address"
        },
        {
          "name": "_postTradeContract",
          "type": "address"
        },
        {
          "name": "_clientContract",
          "type": "address"
        }
      ],
      "name": "initialize",
      "outputs": [],
      "payable": false,
      "stateMutability": "nonpayable",
      "type": "function"
    },
    {
      "constant": false,
      "inputs": [
        {
          "name": "sender",
          "type": "address"
        }
      ],
      "name": "initialize",
      "outputs": [],
      "payable": false,
      "stateMutability": "nonpayable",
      "type": "function"
    },
    {
      "constant": false,
      "inputs": [
        {
          "name": "_transferor",
          "type": "address"
        },
        {
          "name": "_transferee",
          "type": "address"
        },
        {
          "name": "_qty",
          "type": "uint256"
        }
      ],
      "name": "transferFrom",
      "outputs": [
        {
          "name": "",
          "type": "bool"
        }
      ],
      "payable": false,
      "stateMutability": "nonpayable",
      "type": "function"
    },
    {
      "constant": false,
      "inputs": [
        {
          "name": "_account",
          "type": "address"
        },
        {
          "name": "_amount",
          "type": "uint256"
        }
      ],
      "name": "mint",
      "outputs": [],
      "payable": false,
      "stateMutability": "nonpayable",
      "type": "function"
    },
    {
      "constant": true,
      "inputs": [
        {
          "name": "_holder",
          "type": "address"
        }
      ],
      "name": "getSettlements",
      "outputs": [
        {
          "components": [
            {
              "name": "transferee",
              "type": "address"
            },
            {
              "name": "transferor",
              "type": "address"
            },
            {
              "name": "amount",
              "type": "uint256"
            },
            {
              "name": "transferDateTime",
              "type": "uint256"
            }
          ],
          "name": "",
          "type": "tuple[]"
        }
      ],
      "payable": false,
      "stateMutability": "view",
      "type": "function"
    }
  ],
  "bytecode": "0x60806040526117fe806100136000396000f3fe608060405234801561001057600080fd5b50600436106101165760003560e01c80638da5cb5b116100a2578063a9059cbb11610071578063a9059cbb1461020f578063c4d66de814610222578063dd62ed3e14610235578063ef49fb6d14610248578063f2fde38b1461026857610116565b80638da5cb5b146101d75780638f32d59b146101ec57806395d89b41146101f4578063a457c2d7146101fc57610116565b806339509351116100e9578063395093511461018157806340c10f191461019457806370a08231146101a9578063715018a6146101bc57806389d29c4c146101c457610116565b806306fdde031461011b578063095ea7b31461013957806318160ddd1461015957806323b872dd1461016e575b600080fd5b61012361027b565b6040516101309190611665565b60405180910390f35b61014c6101473660046111b6565b610309565b6040516101309190611657565b610161610327565b6040516101309190611706565b61014c61017c366004611169565b61032e565b61014c61018f3660046111b6565b610546565b6101a76101a23660046111b6565b61059f565b005b6101616101b73660046110eb565b6106fc565b6101a7610717565b6101a76101d23660046111e6565b610791565b6101df6108de565b6040516101309190611638565b61014c6108ed565b610123610913565b61014c61020a3660046111b6565b61096e565b61014c61021d3660046111b6565b6109dc565b6101a76102303660046110eb565b6109f0565b61016161024336600461112f565b610ac6565b61025b6102563660046110eb565b610af1565b6040516101309190611646565b6101a76102763660046110eb565b610c3c565b609b805460408051602060026001851615610100026000190190941693909304601f810184900484028201840190925281815292918301828280156103015780601f106102d657610100808354040283529160200191610301565b820191906000526020600020905b8154815290600101906020018083116102e457829003601f168201915b505050505081565b600061031d610316610c6f565b8484610c73565b5060015b92915050565b6068545b90565b609e546000906001600160a01b03163314806103545750609f546001600160a01b031633145b61035d57600080fd5b6000805b60a2548110156103aa57846001600160a01b031660a2828154811061038257fe5b6000918252602090912001546001600160a01b031614156103a257600191505b600101610361565b50806103fc5760a280546001810182556000919091527faaf4f58de99300cfadc4585755f376d5fa747d5bc561d5bd9d710de1f91bf42d0180546001600160a01b0319166001600160a01b0386161790555b610404610ff5565b50604080516080810182526001600160a01b0380871680835288821660208085019182528486018981524260608701908152600094855260a1835296842080546001818101835591865292909420865160049093020180549286166001600160a01b031993841617815592519383018054949095169390911692909217909255516002820155915160039092019190915561049d610ff5565b50604080516080810182526001600160a01b03808816825288811660208084018281528486018a81524260608701908152600094855260a1845296842080546001818101835591865293909420865160049094020180549386166001600160a01b031994851617815591519382018054949095169390921692909217909255905160028201559151600390920191909155610539878787610d2d565b5060019695505050505050565b600061031d610553610c6f565b8461059a8560676000610564610c6f565b6001600160a01b03908116825260208083019390935260409182016000908120918c16815292529020549063ffffffff610e4916565b610c73565b609d546001600160a01b031633146105b657600080fd5b6000805b60a25481101561060357836001600160a01b031660a282815481106105db57fe5b6000918252602090912001546001600160a01b031614156105fb57600191505b6001016105ba565b50806106555760a280546001810182556000919091527faaf4f58de99300cfadc4585755f376d5fa747d5bc561d5bd9d710de1f91bf42d0180546001600160a01b0319166001600160a01b0385161790555b61065d610ff5565b50604080516080810182526001600160a01b038086168083523060208085019182528486018881524260608701908152600094855260a1835296842080546001818101835591865292909420865160049093020180549286166001600160a01b03199384161781559251938301805494909516939091169290921790925551600282015591516003909201919091556106f68484610e78565b50505050565b6001600160a01b031660009081526066602052604090205490565b61071f6108ed565b61074757604051600160e51b62461bcd02815260040161073e906116b6565b60405180910390fd5b6033546040516000916001600160a01b0316907f8be0079c531659141344cd1fd0a4f28419497f9722a3daafe3b4186f6b6457e0908390a3603380546001600160a01b0319169055565b600054610100900460ff16806107aa57506107aa610f3b565b806107b8575060005460ff16155b6107d757604051600160e51b62461bcd02815260040161073e906116c6565b600054610100900460ff16158015610802576000805460ff1961ff0019909116610100171660011790555b61080b336109f0565b868660405160200161081e929190611612565b604051602081830303815290604052609b908051906020019061084292919061102f565b508560405160200161085491906115fd565b604051602081830303815290604052609c908051906020019061087892919061102f565b50609d80546001600160a01b038088166001600160a01b031992831617909255609e8054878416908316179055609f805486841690831617905560a080549285169290911691909117905580156108d5576000805461ff00191690555b50505050505050565b6033546001600160a01b031690565b6033546000906001600160a01b0316610904610c6f565b6001600160a01b031614905090565b609c805460408051602060026001851615610100026000190190941693909304601f810184900484028201840190925281815292918301828280156103015780601f106102d657610100808354040283529160200191610301565b600061031d61097b610c6f565b8461059a856040518060600160405280602581526020016117a060259139606760006109a5610c6f565b6001600160a01b03908116825260208083019390935260409182016000908120918d1681529252902054919063ffffffff610f4116565b600061031d6109e9610c6f565b8484610d2d565b600054610100900460ff1680610a095750610a09610f3b565b80610a17575060005460ff16155b610a3657604051600160e51b62461bcd02815260040161073e906116c6565b600054610100900460ff16158015610a61576000805460ff1961ff0019909116610100171660011790555b603380546001600160a01b0319166001600160a01b0384811691909117918290556040519116906000907f8be0079c531659141344cd1fd0a4f28419497f9722a3daafe3b4186f6b6457e0908290a38015610ac2576000805461ff00191690555b5050565b6001600160a01b03918216600090815260676020908152604080832093909416825291909152205490565b60606001600160a01b038216331480610b93575060a054604051600160e01b633d58406302815233916001600160a01b031690633d58406390610b38908690600401611638565b60206040518083038186803b158015610b5057600080fd5b505afa158015610b64573d6000803e3d6000fd5b505050506040513d601f19601f82011682018060405250610b889190810190611111565b6001600160a01b0316145b610b9c57600080fd5b6001600160a01b038216600090815260a16020908152604080832080548251818502810185019093528083529193909284015b82821015610c31576000848152602090819020604080516080810182526004860290920180546001600160a01b039081168452600180830154909116848601526002820154928401929092526003015460608301529083529092019101610bcf565b505050509050919050565b610c446108ed565b610c6357604051600160e51b62461bcd02815260040161073e906116b6565b610c6c81610f70565b50565b3390565b6001600160a01b038316610c9c57604051600160e51b62461bcd02815260040161073e906116e6565b6001600160a01b038216610cc557604051600160e51b62461bcd02815260040161073e90611696565b6001600160a01b0380841660008181526067602090815260408083209487168084529490915290819020849055517f8c5be1e5ebec7d5bd14f71427d1e84f3dd0314c0f7b2291e5b200ac8c7c3b92590610d20908590611706565b60405180910390a3505050565b6001600160a01b038316610d5657604051600160e51b62461bcd02815260040161073e906116d6565b6001600160a01b038216610d7f57604051600160e51b62461bcd02815260040161073e90611676565b610dc28160405180606001604052806026815260200161177a602691396001600160a01b038616600090815260666020526040902054919063ffffffff610f4116565b6001600160a01b038085166000908152606660205260408082209390935590841681522054610df7908263ffffffff610e4916565b6001600160a01b0380841660008181526066602052604090819020939093559151908516907fddf252ad1be2c89b69c2b068fc378daa952ba7f163c4a11628f55a4df523b3ef90610d20908590611706565b600082820183811015610e7157604051600160e51b62461bcd02815260040161073e906116a6565b9392505050565b6001600160a01b038216610ea157604051600160e51b62461bcd02815260040161073e906116f6565b606854610eb4908263ffffffff610e4916565b6068556001600160a01b038216600090815260666020526040902054610ee0908263ffffffff610e4916565b6001600160a01b0383166000818152606660205260408082209390935591519091907fddf252ad1be2c89b69c2b068fc378daa952ba7f163c4a11628f55a4df523b3ef90610f2f908590611706565b60405180910390a35050565b303b1590565b60008184841115610f6857604051600160e51b62461bcd02815260040161073e9190611665565b505050900390565b6001600160a01b038116610f9957604051600160e51b62461bcd02815260040161073e90611686565b6033546040516001600160a01b038084169216907f8be0079c531659141344cd1fd0a4f28419497f9722a3daafe3b4186f6b6457e090600090a3603380546001600160a01b0319166001600160a01b0392909216919091179055565b604051806080016040528060006001600160a01b0316815260200160006001600160a01b0316815260200160008152602001600081525090565b828054600181600116156101000203166002900490600052602060002090601f016020900481019282601f1061107057805160ff191683800117855561109d565b8280016001018555821561109d579182015b8281111561109d578251825591602001919060010190611082565b506110a99291506110ad565b5090565b61032b91905b808211156110a957600081556001016110b3565b6000610e718235611727565b6000610e718251611727565b6000610e71823561032b565b6000602082840312156110fd57600080fd5b600061110984846110c7565b949350505050565b60006020828403121561112357600080fd5b600061110984846110d3565b6000806040838503121561114257600080fd5b600061114e85856110c7565b925050602061115f858286016110c7565b9150509250929050565b60008060006060848603121561117e57600080fd5b600061118a86866110c7565b935050602061119b868287016110c7565b92505060406111ac868287016110df565b9150509250925092565b600080604083850312156111c957600080fd5b60006111d585856110c7565b925050602061115f858286016110df565b60008060008060008060c087890312156111ff57600080fd5b600061120b89896110df565b965050602061121c89828a016110df565b955050604061122d89828a016110c7565b945050606061123e89828a016110c7565b935050608061124f89828a016110c7565b92505060a061126089828a016110c7565b9150509295509295509295565b600061127983836115ae565b505060800190565b61128a81611727565b82525050565b600061129b8261171a565b6112a5818561171e565b93506112b083611714565b60005b828110156112db576112c686835161126d565b95506112d182611714565b91506001016112b3565b5093949350505050565b61128a81611732565b61128a6112fa8261032b565b61032b565b600061130a8261171a565b611314818561171e565b9350611324818560208601611743565b61132d8161176f565b9093019392505050565b600061134460238361171e565b7f45524332303a207472616e7366657220746f20746865207a65726f20616464728152600160e81b6265737302602082015260400192915050565b600061138c60268361171e565b7f4f776e61626c653a206e6577206f776e657220697320746865207a65726f20618152600160d01b6564647265737302602082015260400192915050565b60006113d760228361171e565b7f45524332303a20617070726f766520746f20746865207a65726f2061646472658152600160f01b61737302602082015260400192915050565b600061141e601b8361171e565b7f536166654d6174683a206164646974696f6e206f766572666c6f770000000000815260200192915050565b600061145760208361171e565b7f4f776e61626c653a2063616c6c6572206973206e6f7420746865206f776e6572815260200192915050565b6000611490602e8361171e565b7f436f6e747261637420696e7374616e63652068617320616c726561647920626581527f656e20696e697469616c697a6564000000000000000000000000000000000000602082015260400192915050565b60006114ef60258361171e565b7f45524332303a207472616e736665722066726f6d20746865207a65726f2061648152600160d81b64647265737302602082015260400192915050565b600061153960248361171e565b7f45524332303a20617070726f76652066726f6d20746865207a65726f206164648152600160e01b637265737302602082015260400192915050565b6000611582601f8361171e565b7f45524332303a206d696e7420746f20746865207a65726f206164647265737300815260200192915050565b805160808301906115bf8482611281565b5060208201516115d26020850182611281565b5060408201516115e560408501826115f4565b5060608201516106f660608501825b61128a8161032b565b600061160982846112ee565b50602001919050565b600061161e82856112ee565b60208201915061162e82846112ee565b5060200192915050565b602081016103218284611281565b60208082528101610e718184611290565b6020810161032182846112e5565b60208082528101610e7181846112ff565b6020808252810161032181611337565b602080825281016103218161137f565b60208082528101610321816113ca565b6020808252810161032181611411565b602080825281016103218161144a565b6020808252810161032181611483565b60208082528101610321816114e2565b602080825281016103218161152c565b6020808252810161032181611575565b6020810161032182846115f4565b60200190565b5190565b90815260200190565b600061032182611737565b151590565b6001600160a01b031690565b60005b8381101561175e578181015183820152602001611746565b838111156106f65750506000910152565b601f01601f19169056fe45524332303a207472616e7366657220616d6f756e7420657863656564732062616c616e636545524332303a2064656372656173656420616c6c6f77616e63652062656c6f77207a65726fa265627a7a723058205e118bc302621c7966cff8e00dae68b76afba9a1f52b27b20370a6d506270e266c6578706572696d656e74616cf50037",
  "source": "// A simple ERC20 based security token\r\n// (c) Kallol Borah, 2021\r\n\r\npragma solidity 0.5.7;\r\npragma experimental ABIEncoderV2;\r\n\r\nimport \"../interfaces/ISecurity.sol\";\r\nimport \"../interfaces/VerifiedClient.sol\";\r\nimport \"@openzeppelin/upgrades/contracts/Initializable.sol\";\r\nimport \"@openzeppelin/contracts-ethereum-package/contracts/ownership/Ownable.sol\";\r\nimport \"@openzeppelin/contracts-ethereum-package/contracts/token/ERC20/ERC20.sol\";\r\n\r\ncontract Security is Initializable, Ownable, ERC20 {\r\n\r\n    string public name;\r\n    string public symbol;\r\n\r\n    address preTradeContract;\r\n    address tradeContract;\r\n    address postTradeContract;\r\n    address clientContract;\r\n\r\n    // mapping security token holders to tokens held\r\n    mapping(address => ISecurity.registry[]) private SettlementRegistry;\r\n\r\n    address[] private holders;\r\n\r\n    function initialize(bytes32 _company, \r\n                        bytes32 _isin, \r\n                        address _preTradeContract, \r\n                        address _tradeContract, \r\n                        address _postTradeContract, \r\n                        address _clientContract\r\n                        ) public initializer {\r\n        Ownable.initialize(msg.sender);\r\n        name = string(abi.encodePacked(_company, _isin));\r\n        symbol = string(abi.encodePacked(_isin));\r\n        preTradeContract = _preTradeContract;\r\n        tradeContract = _tradeContract;\r\n        postTradeContract = _postTradeContract;\r\n        clientContract = _clientContract;\r\n    }\r\n\r\n    function transferFrom(address _transferor, address _transferee, uint256 _qty) public returns(bool) {\r\n        require(msg.sender==tradeContract || msg.sender==postTradeContract);\r\n        bool found = false;\r\n        for(uint i=0; i<holders.length; i++){\r\n            if(holders[i]==_transferee)\r\n                found = true;\r\n        }\r\n        if(!found)\r\n            holders.push(_transferee);\r\n        //uint size = SettlementRegistry[_transferee].length;\r\n        ISecurity.registry memory r1 = ISecurity.registry({\r\n            transferee : _transferee,\r\n            transferor : _transferor,\r\n            amount : _qty,\r\n            transferDateTime : now\r\n        }); \r\n        SettlementRegistry[_transferee].push(r1);\r\n        ISecurity.registry memory r2 = ISecurity.registry({\r\n            transferee : _transferee,\r\n            transferor : _transferor,\r\n            amount : _qty,\r\n            transferDateTime : now\r\n        }); \r\n        SettlementRegistry[_transferor].push(r2);\r\n        _transfer(_transferor, _transferee, _qty); \r\n        return true;\r\n    }\r\n\r\n    function mint(address _account, uint256 _amount) external {\r\n        require(msg.sender==preTradeContract);\r\n        bool found = false;\r\n        for(uint i=0; i<holders.length; i++){\r\n            if(holders[i]==_account)\r\n                found = true;\r\n        }\r\n        if(!found)\r\n            holders.push(_account);\r\n        ISecurity.registry memory r = ISecurity.registry({\r\n            transferee : _account,\r\n            transferor : address(this),\r\n            amount : _amount,\r\n            transferDateTime : now\r\n        }); \r\n        SettlementRegistry[_account].push(r);\r\n        _mint(_account, _amount);\r\n    }\r\n\r\n    function getSettlements(address _holder) external view returns(ISecurity.registry[] memory){\r\n        require(_holder==msg.sender || VerifiedClient(clientContract).getManager(_holder)==msg.sender);\r\n        return (SettlementRegistry[_holder]);\r\n    }\r\n\r\n}",
  "sourcePath": "D:\\Code\\verified-trades\\contracts\\registry\\Security.sol",
  "compiler": {
    "name": "solc",
    "version": "0.5.7+commit.6da8b019.Emscripten.clang"
  },
  "schemaVersion": "3.4.3",
  "updatedAt": "2021-11-25T12:37:54.955Z",
  "networkType": "ethereum",
  "devdoc": {
    "methods": {
      "allowance(address,address)": {
        "details": "See {IERC20-allowance}."
      },
      "approve(address,uint256)": {
        "details": "See {IERC20-approve}.     * Requirements:     * - `spender` cannot be the zero address."
      },
      "balanceOf(address)": {
        "details": "See {IERC20-balanceOf}."
      },
      "decreaseAllowance(address,uint256)": {
        "details": "Atomically decreases the allowance granted to `spender` by the caller.     * This is an alternative to {approve} that can be used as a mitigation for problems described in {IERC20-approve}.     * Emits an {Approval} event indicating the updated allowance.     * Requirements:     * - `spender` cannot be the zero address. - `spender` must have allowance for the caller of at least `subtractedValue`."
      },
      "increaseAllowance(address,uint256)": {
        "details": "Atomically increases the allowance granted to `spender` by the caller.     * This is an alternative to {approve} that can be used as a mitigation for problems described in {IERC20-approve}.     * Emits an {Approval} event indicating the updated allowance.     * Requirements:     * - `spender` cannot be the zero address."
      },
      "initialize(address)": {
        "details": "Initializes the contract setting the deployer as the initial owner."
      },
      "isOwner()": {
        "details": "Returns true if the caller is the current owner."
      },
      "owner()": {
        "details": "Returns the address of the current owner."
      },
      "renounceOwnership()": {
        "details": "Leaves the contract without owner. It will not be possible to call `onlyOwner` functions anymore. Can only be called by the current owner.     * > Note: Renouncing ownership will leave the contract without an owner, thereby removing any functionality that is only available to the owner."
      },
      "totalSupply()": {
        "details": "See {IERC20-totalSupply}."
      },
      "transfer(address,uint256)": {
        "details": "See {IERC20-transfer}.     * Requirements:     * - `recipient` cannot be the zero address. - the caller must have a balance of at least `amount`."
      },
      "transferOwnership(address)": {
        "details": "Transfers ownership of the contract to a new account (`newOwner`). Can only be called by the current owner."
      }
    }
  },
  "userdoc": {
    "methods": {}
  }
}