{
  "contractName": "SecuritiesRegistry",
  "abi": [
    {
      "constant": true,
      "inputs": [
        {
          "name": "_salt",
          "type": "uint256"
        },
        {
          "name": "_logic",
          "type": "address"
        },
        {
          "name": "_admin",
          "type": "address"
        },
        {
          "name": "_data",
          "type": "bytes"
        },
        {
          "name": "_signature",
          "type": "bytes"
        }
      ],
      "name": "getSigner",
      "outputs": [
        {
          "name": "",
          "type": "address"
        }
      ],
      "payable": false,
      "stateMutability": "view",
      "type": "function"
    },
    {
      "constant": false,
      "inputs": [
        {
          "name": "_salt",
          "type": "uint256"
        },
        {
          "name": "_logic",
          "type": "address"
        },
        {
          "name": "_admin",
          "type": "address"
        },
        {
          "name": "_data",
          "type": "bytes"
        },
        {
          "name": "_signature",
          "type": "bytes"
        }
      ],
      "name": "deploySigned",
      "outputs": [
        {
          "name": "",
          "type": "address"
        }
      ],
      "payable": false,
      "stateMutability": "nonpayable",
      "type": "function"
    },
    {
      "constant": false,
      "inputs": [
        {
          "name": "_salt",
          "type": "uint256"
        },
        {
          "name": "_logic",
          "type": "address"
        },
        {
          "name": "_admin",
          "type": "address"
        },
        {
          "name": "_data",
          "type": "bytes"
        }
      ],
      "name": "deploy",
      "outputs": [
        {
          "name": "",
          "type": "address"
        }
      ],
      "payable": false,
      "stateMutability": "nonpayable",
      "type": "function"
    },
    {
      "constant": false,
      "inputs": [],
      "name": "renounceOwnership",
      "outputs": [],
      "payable": false,
      "stateMutability": "nonpayable",
      "type": "function"
    },
    {
      "constant": true,
      "inputs": [
        {
          "name": "_salt",
          "type": "uint256"
        },
        {
          "name": "_sender",
          "type": "address"
        }
      ],
      "name": "getDeploymentAddress",
      "outputs": [
        {
          "name": "",
          "type": "address"
        }
      ],
      "payable": false,
      "stateMutability": "view",
      "type": "function"
    },
    {
      "constant": true,
      "inputs": [],
      "name": "owner",
      "outputs": [
        {
          "name": "",
          "type": "address"
        }
      ],
      "payable": false,
      "stateMutability": "view",
      "type": "function"
    },
    {
      "constant": true,
      "inputs": [],
      "name": "isOwner",
      "outputs": [
        {
          "name": "",
          "type": "bool"
        }
      ],
      "payable": false,
      "stateMutability": "view",
      "type": "function"
    },
    {
      "constant": false,
      "inputs": [
        {
          "name": "_logic",
          "type": "address"
        },
        {
          "name": "_data",
          "type": "bytes"
        }
      ],
      "name": "deployMinimal",
      "outputs": [
        {
          "name": "proxy",
          "type": "address"
        }
      ],
      "payable": false,
      "stateMutability": "nonpayable",
      "type": "function"
    },
    {
      "constant": false,
      "inputs": [
        {
          "name": "newOwner",
          "type": "address"
        }
      ],
      "name": "transferOwnership",
      "outputs": [],
      "payable": false,
      "stateMutability": "nonpayable",
      "type": "function"
    },
    {
      "anonymous": false,
      "inputs": [
        {
          "indexed": true,
          "name": "security",
          "type": "address"
        },
        {
          "indexed": false,
          "name": "company",
          "type": "bytes32"
        },
        {
          "indexed": false,
          "name": "isin",
          "type": "bytes32"
        },
        {
          "indexed": false,
          "name": "currency",
          "type": "bytes32"
        },
        {
          "indexed": false,
          "name": "issuer",
          "type": "address"
        }
      ],
      "name": "SecurityCreated",
      "type": "event"
    },
    {
      "anonymous": false,
      "inputs": [
        {
          "indexed": true,
          "name": "security",
          "type": "address"
        },
        {
          "indexed": false,
          "name": "company",
          "type": "bytes32"
        },
        {
          "indexed": false,
          "name": "isin",
          "type": "bytes32"
        },
        {
          "indexed": false,
          "name": "category",
          "type": "string"
        },
        {
          "indexed": false,
          "name": "action",
          "type": "string"
        }
      ],
      "name": "CorporateActionCreated",
      "type": "event"
    },
    {
      "anonymous": false,
      "inputs": [
        {
          "indexed": false,
          "name": "company",
          "type": "bytes32"
        },
        {
          "indexed": false,
          "name": "isin",
          "type": "bytes32"
        },
        {
          "indexed": false,
          "name": "score",
          "type": "bytes32"
        }
      ],
      "name": "ReportCreditScore",
      "type": "event"
    },
    {
      "anonymous": false,
      "inputs": [
        {
          "indexed": false,
          "name": "proxy",
          "type": "address"
        }
      ],
      "name": "ProxyCreated",
      "type": "event"
    },
    {
      "anonymous": false,
      "inputs": [
        {
          "indexed": true,
          "name": "previousOwner",
          "type": "address"
        },
        {
          "indexed": true,
          "name": "newOwner",
          "type": "address"
        }
      ],
      "name": "OwnershipTransferred",
      "type": "event"
    },
    {
      "constant": false,
      "inputs": [
        {
          "name": "sender",
          "type": "address"
        }
      ],
      "name": "initialize",
      "outputs": [],
      "payable": false,
      "stateMutability": "nonpayable",
      "type": "function"
    },
    {
      "constant": false,
      "inputs": [
        {
          "name": "_viaFactory",
          "type": "address"
        },
        {
          "name": "_poolFactory",
          "type": "address"
        },
        {
          "name": "_preTradeContract",
          "type": "address"
        },
        {
          "name": "_tradeContract",
          "type": "address"
        },
        {
          "name": "_postTradeContract",
          "type": "address"
        },
        {
          "name": "_clientContract",
          "type": "address"
        }
      ],
      "name": "initialize",
      "outputs": [],
      "payable": false,
      "stateMutability": "nonpayable",
      "type": "function"
    },
    {
      "constant": false,
      "inputs": [
        {
          "name": "_issuer",
          "type": "address"
        },
        {
          "name": "_security",
          "type": "address"
        },
        {
          "name": "_currency",
          "type": "bytes32"
        },
        {
          "name": "_company",
          "type": "bytes32"
        },
        {
          "name": "_isin",
          "type": "bytes32"
        },
        {
          "name": "_settlementBy",
          "type": "bytes32"
        }
      ],
      "name": "createSecurity",
      "outputs": [],
      "payable": false,
      "stateMutability": "nonpayable",
      "type": "function"
    },
    {
      "constant": true,
      "inputs": [
        {
          "name": "_currency",
          "type": "bytes32"
        },
        {
          "name": "_company",
          "type": "bytes32"
        },
        {
          "name": "_isin",
          "type": "bytes32"
        }
      ],
      "name": "getToken",
      "outputs": [
        {
          "name": "",
          "type": "address"
        }
      ],
      "payable": false,
      "stateMutability": "view",
      "type": "function"
    },
    {
      "constant": true,
      "inputs": [],
      "name": "getSecuritiesIssued",
      "outputs": [
        {
          "name": "",
          "type": "address[]"
        }
      ],
      "payable": false,
      "stateMutability": "view",
      "type": "function"
    },
    {
      "constant": true,
      "inputs": [],
      "name": "getSecuritiesInvested",
      "outputs": [
        {
          "name": "",
          "type": "address[]"
        }
      ],
      "payable": false,
      "stateMutability": "view",
      "type": "function"
    },
    {
      "constant": true,
      "inputs": [
        {
          "name": "_securityToken",
          "type": "address"
        }
      ],
      "name": "getSecurityDetails",
      "outputs": [
        {
          "components": [
            {
              "name": "company",
              "type": "bytes32"
            },
            {
              "name": "currency",
              "type": "bytes32"
            },
            {
              "name": "isin",
              "type": "bytes32"
            },
            {
              "name": "creditScore",
              "type": "bytes32"
            },
            {
              "name": "price",
              "type": "bytes16"
            },
            {
              "name": "issuer",
              "type": "address"
            }
          ],
          "name": "",
          "type": "tuple"
        }
      ],
      "payable": false,
      "stateMutability": "view",
      "type": "function"
    },
    {
      "constant": false,
      "inputs": [
        {
          "name": "_isin",
          "type": "bytes32"
        }
      ],
      "name": "isIsinPresent",
      "outputs": [
        {
          "name": "",
          "type": "bool"
        }
      ],
      "payable": false,
      "stateMutability": "nonpayable",
      "type": "function"
    },
    {
      "constant": false,
      "inputs": [
        {
          "name": "_category",
          "type": "string"
        },
        {
          "name": "_action",
          "type": "string"
        },
        {
          "name": "_isin",
          "type": "bytes32"
        }
      ],
      "name": "registerCorporateAction",
      "outputs": [],
      "payable": false,
      "stateMutability": "nonpayable",
      "type": "function"
    },
    {
      "constant": false,
      "inputs": [
        {
          "name": "_company",
          "type": "bytes32"
        },
        {
          "name": "_isin",
          "type": "bytes32"
        },
        {
          "name": "_score",
          "type": "bytes32"
        }
      ],
      "name": "registerCreditScore",
      "outputs": [],
      "payable": false,
      "stateMutability": "nonpayable",
      "type": "function"
    },
    {
      "constant": false,
      "inputs": [
        {
          "name": "_isin",
          "type": "bytes32"
        },
        {
          "name": "_price",
          "type": "bytes16"
        }
      ],
      "name": "registerPrice",
      "outputs": [],
      "payable": false,
      "stateMutability": "nonpayable",
      "type": "function"
    },
    {
      "constant": true,
      "inputs": [
        {
          "name": "_isin",
          "type": "bytes32"
        },
        {
          "name": "_category",
          "type": "string"
        }
      ],
      "name": "getCorporateActions",
      "outputs": [
        {
          "name": "",
          "type": "string[]"
        }
      ],
      "payable": false,
      "stateMutability": "view",
      "type": "function"
    },
    {
      "constant": true,
      "inputs": [
        {
          "name": "_isin",
          "type": "bytes32"
        },
        {
          "name": "_company",
          "type": "bytes32"
        }
      ],
      "name": "getCreditScore",
      "outputs": [
        {
          "name": "",
          "type": "bytes32"
        }
      ],
      "payable": false,
      "stateMutability": "view",
      "type": "function"
    },
    {
      "constant": true,
      "inputs": [
        {
          "name": "_isin",
          "type": "bytes32"
        }
      ],
      "name": "getPrice",
      "outputs": [
        {
          "name": "",
          "type": "bytes16"
        }
      ],
      "payable": false,
      "stateMutability": "view",
      "type": "function"
    }
  ],
  "bytecode": "0x6080604081905261001060a0610034565b601f1982820381018352601f90910116604052805160209190910120606655610042565b6109a68062003a2983390190565b6139d780620000526000396000f3fe608060405234801561001057600080fd5b506004361061014d5760003560e01c806381ae1f5b116100c3578063b3eeb5e21161007c578063b3eeb5e2146102b7578063c4d66de8146102ca578063cc2a9a5b146102dd578063e6bfeec0146102f0578063efcfbbb614610310578063f2fde38b146103235761014d565b806381ae1f5b1461024e5780638d079e4d146102615780638da5cb5b146102745780638f32d59b1461027c5780639c3acea0146102915780639d052f8f146102a45761014d565b806331d98b3f1161011557806331d98b3f146101d8578063332d6626146101f85780634da8ac561461020b5780636150864c1461022b578063715018a61461023e578063739c7b6d146102465761014d565b8063044037ca14610152578063238a37291461016757806328123e971461017a578063290f8f56146101a35780632b16068a146101c3575b600080fd5b6101656101603660046125bb565b610336565b005b610165610175366004612518565b61067a565b61018d6101883660046124b8565b6108ec565b60405161019a9190612d33565b60405180910390f35b6101b66101b1366004612708565b610b00565b60405161019a9190612c77565b6101cb610b53565b60405161019a9190612cf5565b6101eb6101e636600461246a565b610d5c565b60405161019a9190612d25565b6101b6610206366004612708565b610e09565b61021e610219366004612565565b610e5a565b60405161019a9190612d06565b6101b661023936600461268f565b610ffd565b610165611017565b6101cb611088565b6101b661025c36600461265f565b6110ea565b61016561026f366004612380565b611145565b6101b66114bb565b6102846114ca565b60405161019a9190612d17565b6101b661029f366004612518565b6114f0565b6101656102b2366004612488565b6115f4565b6101b66102c53660046123fa565b6116e5565b6101656102d83660046122bd565b6117f7565b6101656102eb3660046122f9565b6118cd565b6103036102fe3660046122bd565b6119c3565b60405161019a9190612ee1565b61028461031e36600461246a565b611a40565b6101656103313660046122bd565b611aa9565b801580159061034457508315155b80156103d75750604051600160e11b63235ee54d02815273__stringutils___________________________906346bdca9a906103879086908690600401612e7c565b60206040518083038186803b15801561039f57600080fd5b505af41580156103b3573d6000803e3d6000fd5b505050506040513d601f19601f820116820180604052506103d7919081019061244c565b6103e057600080fd5b606c54604051600160e01b63442767330281526000916001600160a01b031690634427673390610414903390600401612c85565b604080518083038186803b15801561042b57600080fd5b505afa15801561043f573d6000803e3d6000fd5b505050506040513d601f19601f8201168201806040525061046391908101906124e8565b50905060005b606e548110156106715782606d6000606e848154811061048557fe5b60009182526020808320909101546001600160a01b031683528201929092526040019020600201541480156105115750336001600160a01b0316606d6000606e84815481106104d057fe5b60009182526020808320909101546001600160a01b039081168452908301939093526040909101902060050154161480610511575081600160f41b61044502145b1561066957606f6000606e838154811061052757fe5b60009182526020808320909101546001600160a01b031683528201929092526040908101909120905161055d9089908990612bcf565b9081526040516020918190038201902080546001810180835560009283529290912061058b910187876120fe565b5050606e818154811061059a57fe5b6000918252602082200154606e80546001600160a01b03909216927ff9dbb0f8084d50cd63bd76143f0ce0d1011d6aedb10e487503fc1fa9a3d2889f92606d9290869081106105e557fe5b60009182526020808320909101546001600160a01b03168352820192909252604001812054606e80549192606d929091908790811061062057fe5b60009182526020808320909101546001600160a01b0316835282019290925260409081019091206002015490516106609291908c908c908c908c90612df8565b60405180910390a25b600101610469565b50505050505050565b6106826114bb565b6001600160a01b0316336001600160a01b03161461069f57600080fd5b821515806106b6575081158015906106b657508015155b6106bf57600080fd5b60005b606e548110156108ab57836107515782606d6000606e84815481106106e357fe5b60009182526020808320909101546001600160a01b03168352820192909252604001902060020154141561074c5781606d6000606e848154811061072357fe5b60009182526020808320909101546001600160a01b031683528201929092526040019020600301555b6108a3565b826107e857606d6000606e838154811061076757fe5b60009182526020808320909101546001600160a01b03168352820192909252604001902060020154158015906107d1575083606d6000606e84815481106107aa57fe5b60009182526020808320909101546001600160a01b03168352820192909252604001902054145b1561074c5781606d6000606e848154811061072357fe5b82606d6000606e84815481106107fa57fe5b60009182526020808320909101546001600160a01b03168352820192909252604001902060020154148015610863575083606d6000606e848154811061083c57fe5b60009182526020808320909101546001600160a01b03168352820192909252604001902054145b156108a35781606d6000606e848154811061087a57fe5b60009182526020808320909101546001600160a01b031683528201929092526040019020600301555b6001016106c2565b507f75cc0f6e8b6e807b1ad0c39ab93c9469925135e9f0d33215accf4c3595ec31ff8383836040516108df93929190612d9b565b60405180910390a1505050565b6000811515806108fb57508215155b61090457600080fd5b6000805b606e54811015610af7578315801561091e575081155b156109af5784606d6000606e848154811061093557fe5b60009182526020808320909101546001600160a01b0316835282019290925260400190206002015414156109aa5760019150606d6000606e838154811061097857fe5b60009182526020808320909101546001600160a01b031683528201929092526040019020600301549250610afa915050565b610aef565b841580156109bb575081155b15610a5557606d6000606e83815481106109d157fe5b60009182526020808320909101546001600160a01b0316835282019290925260400190206002015415801590610a3b575083606d6000606e8481548110610a1457fe5b60009182526020808320909101546001600160a01b03168352820192909252604001902054145b156109aa5760019150606d6000606e838154811061097857fe5b81610aef5784606d6000606e8481548110610a6c57fe5b60009182526020808320909101546001600160a01b03168352820192909252604001902060020154148015610ad5575083606d6000606e8481548110610aae57fe5b60009182526020808320909101546001600160a01b03168352820192909252604001902054145b15610aef5760019150606d6000606e838154811061097857fe5b600101610908565b50505b92915050565b600080610b3a8787878730604051602001610b1f959493929190612c22565b60405160208183030381529060405280519060200120611adc565b9050610b468184611b0c565b9150505b95945050505050565b60606000805b606e54811015610c13576000606e8281548110610b7257fe5b600091825260209091200154604051600160e01b6370a082310281526001600160a01b03909116906370a0823190610bae903390600401612c85565b60206040518083038186803b158015610bc657600080fd5b505afa158015610bda573d6000803e3d6000fd5b505050506040513d601f19601f82011682018060405250610bfe9190810190612641565b1115610c0b578160010191505b600101610b59565b50606081604051908082528060200260200182016040528015610c40578160200160208202803883390190505b50600092509050815b606e54811015610d54576000606e8281548110610c6257fe5b600091825260209091200154604051600160e01b6370a082310281526001600160a01b03909116906370a0823190610c9e903390600401612c85565b60206040518083038186803b158015610cb657600080fd5b505afa158015610cca573d6000803e3d6000fd5b505050506040513d601f19601f82011682018060405250610cee9190810190612641565b1115610d4c57606e8181548110610d0157fe5b9060005260206000200160009054906101000a90046001600160a01b0316828481518110610d2b57fe5b60200260200101906001600160a01b031690816001600160a01b0316815250505b600101610c49565b509150505b90565b600081610d6857600080fd5b60005b606e54811015610e025782606d6000606e8481548110610d8757fe5b60009182526020808320909101546001600160a01b031683528201929092526040019020600201541415610dfa57606d6000606e8381548110610dc657fe5b60009182526020808320909101546001600160a01b0316835282019290925260400190206004015460801b9150610e049050565b600101610d6b565b505b919050565b600080610e198787878787610b00565b90506001600160a01b038116610e4d57604051600160e51b62461bcd028152600401610e4490612eb1565b60405180910390fd5b610b468787878785611be8565b60608315801590610e6a57508115155b610e7357600080fd5b60005b606e54811015610ff45784606d6000606e8481548110610e9257fe5b60009182526020808320909101546001600160a01b031683528201929092526040019020600201541415610fec57606f6000606e8381548110610ed157fe5b60009182526020808320909101546001600160a01b0316835282019290925260409081019091209051610f079086908690612bcf565b9081526020016040518091039020805480602002602001604051908101604052809291908181526020016000905b82821015610fe05760008481526020908190208301805460408051601f6002600019610100600187161502019094169390930492830185900485028101850190915281815292830182828015610fcc5780601f10610fa157610100808354040283529160200191610fcc565b820191906000526020600020905b815481529060010190602001808311610faf57829003601f168201915b505050505081526020019060010190610f35565b50505050915050610ff6565b600101610e76565b505b9392505050565b600061100c8585858533611be8565b90505b949350505050565b61101f6114ca565b61103e57604051600160e51b62461bcd028152600401610e4490612ec1565b6033546040516000916001600160a01b0316907f8be0079c531659141344cd1fd0a4f28419497f9722a3daafe3b4186f6b6457e0908390a3603380546001600160a01b0319169055565b6060606e8054806020026020016040519081016040528092919081815260200182805480156110e057602002820191906000526020600020905b81546001600160a01b031681526001909101906020018083116110c2575b5050505050905090565b6000806110f78484611c9d565b60665460405191925060009161111d916001600160f81b03199130918691602001612b7b565b60408051601f198184030181529190528051602090910120606090811b901c95945050505050565b6069546001600160a01b03163314806111e657506111616114bb565b6001600160a01b0316336001600160a01b031663893d20e86040518163ffffffff1660e01b815260040160206040518083038186803b1580156111a357600080fd5b505afa1580156111b7573d6000803e3d6000fd5b505050506040513d601f19601f820116820180604052506111db91908101906122db565b6001600160a01b0316145b6111ef57600080fd5b606754604051600160e21b633cd163c50281526000916001600160a01b03169063f3458f1490611223908890600401612e47565b60206040518083038186803b15801561123b57600080fd5b505afa15801561124f573d6000803e3d6000fd5b505050506040513d601f19601f8201168201806040525061127391908101906122db565b90506001600160a01b03811661128857600080fd5b611293848685611cd0565b61067157606954606a54606b54606c546040516060946112d0948a948a946001600160a01b03938416949284169391821692911690602401612d41565b60408051601f198184030181529190526020810180516001600160e01b0316600160e21b632274a713021790529050600061130b88836116e5565b9050806001600160a01b03167f3503084d928e8dddbaa7c0cefb7db1677b12f85b14227e33cddb27b18d383e0287878a8d60405161134c9493929190612dc3565b60405180910390a26040518060c00160405280878152602001888152602001868152602001600160e01b636e6f6e6502815260200161138b6000611dbe565b6001600160801b031990811682526001600160a01b03808d166020938401528481166000818152606d855260408082208751815595870151600180880191909155878201516002880155606088015160038801556080808901516004808a0180549290931c9190981617905560a090970151600590960180549685166001600160a01b0319978816179055606e805497880181559091527f9930d9ff0dee0ef5ca2f7710ea66b8f84dd0f5f5351ecffe72b952cd9db7142a9095018054909416179092556068549251600160e11b635ca76fdf028152929091169163b94edfbe9161147e91859188918d918b9101612c93565b600060405180830381600087803b15801561149857600080fd5b505af11580156114ac573d6000803e3d6000fd5b50505050505050505050505050565b6033546001600160a01b031690565b6033546000906001600160a01b03166114e1611e2a565b6001600160a01b031614905090565b6000805b606e54811015610ff45784606d6000606e848154811061151057fe5b60009182526020808320909101546001600160a01b03168352820192909252604001902060010154148015611579575083606d6000606e848154811061155257fe5b60009182526020808320909101546001600160a01b03168352820192909252604001902054145b80156115bc575082606d6000606e848154811061159257fe5b60009182526020808320909101546001600160a01b03168352820192909252604001902060020154145b156115ec57606e81815481106115ce57fe5b6000918252602090912001546001600160a01b03169150610ff69050565b6001016114f4565b606b546001600160a01b0316331461160b57600080fd5b811580159061162f5750600061162a826116256000611dbe565b611e2e565b60000b135b61163857600080fd5b60005b606e548110156116e05782606d6000606e848154811061165757fe5b60009182526020808320909101546001600160a01b0316835282019290925260400190206002015414156116d85781606d6000606e848154811061169757fe5b6000918252602080832091909101546001600160a01b03168352820192909252604001902060040180546001600160801b03191660809290921c9190911790555b60010161163b565b505050565b6000808360601b90506040517f3d602d80600a3d3981f3363d3d373d3d3d363d7300000000000000000000000081528160148201527f5af43d82803e903d91602b57fd5bf3000000000000000000000000000000000060288201526037816000f09250507efffc2da0b561cae30d9826d37709e9421c4725faebc226cbbb7ef5fc5e7349826040516117779190612c77565b60405180910390a18251156117f0576000826001600160a01b0316846040516117a09190612bc3565b6000604051808303816000865af19150503d80600081146117dd576040519150601f19603f3d011682016040523d82523d6000602084013e6117e2565b606091505b5050905080610af757600080fd5b5092915050565b600054610100900460ff16806118105750611810611f77565b8061181e575060005460ff16155b61183d57604051600160e51b62461bcd028152600401610e4490612ed1565b600054610100900460ff16158015611868576000805460ff1961ff0019909116610100171660011790555b603380546001600160a01b0319166001600160a01b0384811691909117918290556040519116906000907f8be0079c531659141344cd1fd0a4f28419497f9722a3daafe3b4186f6b6457e0908290a380156118c9576000805461ff00191690555b5050565b600054610100900460ff16806118e657506118e6611f77565b806118f4575060005460ff16155b61191357604051600160e51b62461bcd028152600401610e4490612ed1565b600054610100900460ff1615801561193e576000805460ff1961ff0019909116610100171660011790555b611947336117f7565b606780546001600160a01b03199081166001600160a01b038a811691909117909255606880548216898416179055606980548216888416179055606a80548216878416179055606b80548216868416179055606c80549091169184169190911790558015610671576000805461ff001916905550505050505050565b6119cb61217c565b506001600160a01b039081166000908152606d6020908152604091829020825160c08101845281548152600182015492810192909252600281015492820192909252600382015460608201526004820154608090811b6001600160801b0319169082015260059091015490911660a082015290565b6000805b606e54811015611aa05782606d6000606e8481548110611a6057fe5b60009182526020808320909101546001600160a01b031683528201929092526040019020600201541415611a98576001915050610e04565b600101611a44565b50600092915050565b611ab16114ca565b611ad057604051600160e51b62461bcd028152600401610e4490612ec1565b611ad981611f7d565b50565b600081604051602001611aef9190612bdc565b604051602081830303815290604052805190602001209050919050565b60008151604114611b1f57506000610afa565b60208201516040830151606084015160001a7f7fffffffffffffffffffffffffffffff5d576e7357a4501ddfe92f46681b20a0821115611b655760009350505050610afa565b8060ff16601b14158015611b7d57508060ff16601c14155b15611b8e5760009350505050610afa565b60018682858560405160008152602001604052604051611bb19493929190612e61565b6020604051602081039080840390855afa158015611bd3573d6000803e3d6000fd5b5050604051601f190151979650505050505050565b600080611bf58784612002565b90507efffc2da0b561cae30d9826d37709e9421c4725faebc226cbbb7ef5fc5e734981604051611c259190612c85565b60405180910390a1604051600160e01b63cf7a1d770281526001600160a01b0382169063cf7a1d7790611c6090899089908990600401612cc8565b600060405180830381600087803b158015611c7a57600080fd5b505af1158015611c8e573d6000803e3d6000fd5b50929998505050505050505050565b60008282604051602001611cb2929190612bfc565b60405160208183030381529060405280519060200120905092915050565b6000805b606e54811015611db35784606d6000606e8481548110611cf057fe5b60009182526020808320909101546001600160a01b03168352820192909252604001902054148015611d59575083606d6000606e8481548110611d2f57fe5b60009182526020808320909101546001600160a01b03168352820192909252604001902060010154145b8015611d9c575082606d6000606e8481548110611d7257fe5b60009182526020808320909101546001600160a01b03168352820192909252604001902060020154145b15611dab576001915050610ff6565b600101611cd4565b506000949350505050565b600081611dcd57506000610e04565b816000611dd98261205b565b90506070811015611df2578060700382901b9150611e05565b6070811115611e05576070810382901c91505b613fff0160701b6dffffffffffffffffffffffffffff919091161760801b9050610e04565b3390565b600060016001607f1b03608084901c16600160701b617fff02811115611e5357600080fd5b60016001607f1b03608084901c16600160701b617fff02811115611e7657600080fd5b6001600160801b0319858116908516141580611ea25750600160701b617fff02826001600160801b0316105b611eab57600080fd5b6001600160801b03198581169085161415611ecb57600092505050610afa565b60006001607f1b8660801c6001600160801b03161015905060006001607f1b8660801c6001600160801b0316101590508115611f36578015611f2757826001600160801b0316846001600160801b031611611f27576001611f2b565b6000195b945050505050610afa565b8015611f49576001945050505050610afa565b826001600160801b0316846001600160801b031611611f6a57600019611f2b565b6001945050505050610afa565b303b1590565b6001600160a01b038116611fa657604051600160e51b62461bcd028152600401610e4490612ea1565b6033546040516001600160a01b038084169216907f8be0079c531659141344cd1fd0a4f28419497f9722a3daafe3b4186f6b6457e090600090a3603380546001600160a01b0319166001600160a01b0392909216919091179055565b600080606060405180602001612017906121b1565b601f1982820381018352601f90910116604052905060006120388686611c9d565b9050808251602084016000f59250823b61205157600080fd5b5090949350505050565b600080821161206957600080fd5b6000600160801b831061207e57608092831c92015b68010000000000000000831061209657604092831c92015b64010000000083106120aa57602092831c92015b6201000083106120bc57601092831c92015b61010083106120cd57600892831c92015b601083106120dd57600492831c92015b600483106120ed57600292831c92015b60028310610afa5760010192915050565b828054600181600116156101000203166002900490600052602060002090601f016020900481019282601f1061213f5782800160ff1982351617855561216c565b8280016001018555821561216c579182015b8281111561216c578235825591602001919060010190612151565b506121789291506121be565b5090565b6040805160c081018252600080825260208201819052918101829052606081018290526080810182905260a081019190915290565b6109a680612ff883390190565b610d5991905b8082111561217857600081556001016121c4565b6000610ff68235612f51565b6000610ff68251612f51565b6000610ff68251612f5c565b6000610ff68235612f6e565b6000610ff68235610d59565b6000610ff68251610d59565b600082601f83011261223157600080fd5b813561224461223f82612f16565b612eef565b9150808252602083016020830185838301111561226057600080fd5b61226b838284612f9e565b50505092915050565b60008083601f84011261228657600080fd5b50813567ffffffffffffffff81111561229e57600080fd5b6020830191508360018202830111156122b657600080fd5b9250929050565b6000602082840312156122cf57600080fd5b600061100f84846121d8565b6000602082840312156122ed57600080fd5b600061100f84846121e4565b60008060008060008060c0878903121561231257600080fd5b600061231e89896121d8565b965050602061232f89828a016121d8565b955050604061234089828a016121d8565b945050606061235189828a016121d8565b935050608061236289828a016121d8565b92505060a061237389828a016121d8565b9150509295509295509295565b60008060008060008060c0878903121561239957600080fd5b60006123a589896121d8565b96505060206123b689828a016121d8565b95505060406123c789828a01612208565b94505060606123d889828a01612208565b93505060806123e989828a01612208565b92505060a061237389828a01612208565b6000806040838503121561240d57600080fd5b600061241985856121d8565b925050602083013567ffffffffffffffff81111561243657600080fd5b61244285828601612220565b9150509250929050565b60006020828403121561245e57600080fd5b600061100f84846121f0565b60006020828403121561247c57600080fd5b600061100f8484612208565b6000806040838503121561249b57600080fd5b60006124a78585612208565b9250506020612442858286016121fc565b600080604083850312156124cb57600080fd5b60006124d78585612208565b925050602061244285828601612208565b600080604083850312156124fb57600080fd5b60006125078585612214565b925050602061244285828601612214565b60008060006060848603121561252d57600080fd5b60006125398686612208565b935050602061254a86828701612208565b925050604061255b86828701612208565b9150509250925092565b60008060006040848603121561257a57600080fd5b60006125868686612208565b935050602084013567ffffffffffffffff8111156125a357600080fd5b6125af86828701612274565b92509250509250925092565b6000806000806000606086880312156125d357600080fd5b853567ffffffffffffffff8111156125ea57600080fd5b6125f688828901612274565b9550955050602086013567ffffffffffffffff81111561261557600080fd5b61262188828901612274565b9350935050604061263488828901612208565b9150509295509295909350565b60006020828403121561265357600080fd5b600061100f8484612214565b6000806040838503121561267257600080fd5b600061267e8585612208565b9250506020612442858286016121d8565b600080600080608085870312156126a557600080fd5b60006126b18787612208565b94505060206126c2878288016121d8565b93505060406126d3878288016121d8565b925050606085013567ffffffffffffffff8111156126f057600080fd5b6126fc87828801612220565b91505092959194509250565b600080600080600060a0868803121561272057600080fd5b600061272c8888612208565b955050602061273d888289016121d8565b945050604061274e888289016121d8565b935050606086013567ffffffffffffffff81111561276b57600080fd5b61277788828901612220565b925050608086013567ffffffffffffffff81111561279457600080fd5b61263488828901612220565b60006127ac83836127cf565b505060200190565b6000610ff683836128e0565b6127c981612f8d565b82525050565b6127c981612f51565b6127c96127e482612f51565b612fd6565b60006127f482612f44565b6127fe8185612f48565b935061280983612f3e565b60005b828110156128345761281f8683516127a0565b955061282a82612f3e565b915060010161280c565b5093949350505050565b600061284982612f44565b6128538185612f48565b93508360208202850161286585612f3e565b60005b8481101561289c5783830388526128808383516127b4565b925061288b82612f3e565b602098909801979150600101612868565b50909695505050505050565b6127c981612f5c565b6127c981612f6e565b6127c96128c682612f61565b610d59565b6127c981610d59565b6127c96128c682610d59565b60006128eb82612f44565b6128f58185612f48565b9350612905818560208601612faa565b61290e81612fe7565b9093019392505050565b600061292382612f44565b61292d8185610e04565b935061293d818560208601612faa565b9290920192915050565b60006129538385612f48565b9350612960838584612f9e565b61290e83612fe7565b60006129758385610e04565b9350612982838584612f9e565b50500190565b6000612995601c83610e04565b7f19457468657265756d205369676e6564204d6573736167653a0a3332000000008152601c0192915050565b60006129ce602683612f48565b7f4f776e61626c653a206e6577206f776e657220697320746865207a65726f20618152600160d01b6564647265737302602082015260400192915050565b600160cb1b660acd2c286c2e6d029052565b6000612a2b601183612f48565b7f496e76616c6964207369676e6174757265000000000000000000000000000000815260200192915050565b6000612a64602083612f48565b7f4f776e61626c653a2063616c6c6572206973206e6f7420746865206f776e6572815260200192915050565b6000612a9d602e83612f48565b7f436f6e747261637420696e7374616e63652068617320616c726561647920626581527f656e20696e697469616c697a6564000000000000000000000000000000000000602082015260400192915050565b6000610afa600083612f48565b805160c0830190612b0d84826128cb565b506020820151612b2060208501826128cb565b506040820151612b3360408501826128cb565b506060820151612b4660608501826128cb565b506080820151612b5960808501826128b1565b5060a0820151612b6c60a08501826127cf565b50505050565b6127c981612f87565b6000612b8782876128ba565b600182019150612b9782866127d8565b601482019150612ba782856128d4565b602082019150612bb782846128d4565b50602001949350505050565b6000610ff68284612918565b600061100f828486612969565b6000612be782612988565b9150612bf382846128d4565b50602001919050565b6000612c0882856128d4565b602082019150612c1882846127d8565b5060140192915050565b6000612c2e82886128d4565b602082019150612c3e82876127d8565b601482019150612c4e82866127d8565b601482019150612c5e8285612918565b9150612c6a82846127d8565b5060140195945050505050565b60208101610afa82846127cf565b60208101610afa82846127c0565b60808101612ca182876127cf565b612cae60208301866127cf565b612cbb60408301856128cb565b610b4a60608301846128cb565b60608101612cd682866127cf565b612ce360208301856127cf565b818103604083015261100c81846128e0565b60208082528101610ff681846127e9565b60208082528101610ff6818461283e565b60208101610afa82846128a8565b60208101610afa82846128b1565b60208101610afa82846128cb565b60c08101612d4f82896128cb565b612d5c60208301886128cb565b612d6960408301876127cf565b612d7660608301866127cf565b612d8360808301856127cf565b612d9060a08301846127cf565b979650505050505050565b60608101612da982866128cb565b612db660208301856128cb565b61100f60408301846128cb565b60808101612dd182876128cb565b612dde60208301866128cb565b612deb60408301856128cb565b610b4a60608301846127cf565b60808101612e0682896128cb565b612e1360208301886128cb565b8181036040830152612e26818688612947565b90508181036060830152612e3b818486612947565b98975050505050505050565b60408101612e5582846128cb565b610afa60208301612a0c565b60808101612e6f82876128cb565b612cae6020830186612b72565b60408082528101612e8e818486612947565b9050818103602083015261100f81612aef565b60208082528101610afa816129c1565b60208082528101610afa81612a1e565b60208082528101610afa81612a57565b60208082528101610afa81612a90565b60c08101610afa8284612afc565b60405181810167ffffffffffffffff81118282101715612f0e57600080fd5b604052919050565b600067ffffffffffffffff821115612f2d57600080fd5b506020601f91909101601f19160190565b60200190565b5190565b90815260200190565b6000610afa82612f7b565b151590565b6001600160f81b03191690565b6001600160801b03191690565b6001600160a01b031690565b60ff1690565b6000610afa826000610afa82612f51565b82818337506000910152565b60005b83811015612fc5578181015183820152602001612fad565b83811115612b6c5750506000910152565b6000610afa826000610afa82612ff1565b601f01601f191690565b60601b9056fe608060405234801561001057600080fd5b50610986806100206000396000f3fe6080604052600436106100705760003560e01c80638f2839701161004e5780638f2839701461015e578063cf7a1d7714610191578063d1f5789414610250578063f851a4401461030657610070565b80633659cfe61461007a5780634f1ef286146100ad5780635c60da1b1461012d575b61007861031b565b005b34801561008657600080fd5b506100786004803603602081101561009d57600080fd5b50356001600160a01b0316610335565b610078600480360360408110156100c357600080fd5b6001600160a01b0382351691908101906040810160208201356401000000008111156100ee57600080fd5b82018360208201111561010057600080fd5b8035906020019184600183028401116401000000008311171561012257600080fd5b50909250905061036f565b34801561013957600080fd5b5061014261041c565b604080516001600160a01b039092168252519081900360200190f35b34801561016a57600080fd5b506100786004803603602081101561018157600080fd5b50356001600160a01b0316610459565b610078600480360360608110156101a757600080fd5b6001600160a01b0382358116926020810135909116918101906060810160408201356401000000008111156101db57600080fd5b8201836020820111156101ed57600080fd5b8035906020019184600183028401116401000000008311171561020f57600080fd5b91908080601f016020809104026020016040519081016040528093929190818152602001838380828437600092019190915250929550610516945050505050565b6100786004803603604081101561026657600080fd5b6001600160a01b03823516919081019060408101602082013564010000000081111561029157600080fd5b8201836020820111156102a357600080fd5b803590602001918460018302840111640100000000831117156102c557600080fd5b91908080601f0160208091040260200160405190810160405280939291908181526020018383808284376000920191909152509295506105a6945050505050565b34801561031257600080fd5b506101426106e6565b610323610711565b61033361032e610774565b610799565b565b61033d6107bd565b6001600160a01b0316336001600160a01b031614156103645761035f816107e2565b61036c565b61036c61031b565b50565b6103776107bd565b6001600160a01b0316336001600160a01b0316141561040f57610399836107e2565b6000836001600160a01b031683836040518083838082843760405192019450600093509091505080830381855af49150503d80600081146103f6576040519150601f19603f3d011682016040523d82523d6000602084013e6103fb565b606091505b505090508061040957600080fd5b50610417565b61041761031b565b505050565b60006104266107bd565b6001600160a01b0316336001600160a01b0316141561044e57610447610774565b9050610456565b61045661031b565b90565b6104616107bd565b6001600160a01b0316336001600160a01b03161415610364576001600160a01b0381166104c257604051600160e51b62461bcd0281526004018080602001828103825260368152602001806108ea6036913960400191505060405180910390fd5b7f7e644d79422f17c01e4894b5f4f588d331ebfa28653d42ae832dc59e38c9798f6104eb6107bd565b604080516001600160a01b03928316815291841660208301528051918290030190a161035f81610822565b6000610520610774565b6001600160a01b03161461053357600080fd5b61053d83826105a6565b604080517f656970313936372e70726f78792e61646d696e00000000000000000000000000815290519081900360130190207fb53127684a568b3173ae13b9f8a6016e243e63b6e8ee1178d6a717850b5d61036000199091011461059d57fe5b61041782610822565b60006105b0610774565b6001600160a01b0316146105c357600080fd5b604080517f656970313936372e70726f78792e696d706c656d656e746174696f6e000000008152905190819003601c0190207f360894a13ba1a3210667c828492db98dca3e2076cc3735a920a3ca505d382bbc6000199091011461062357fe5b61062c82610846565b8051156106e2576000826001600160a01b0316826040518082805190602001908083835b6020831061066f5780518252601f199092019160209182019101610650565b6001836020036101000a038019825116818451168082178552505050505050905001915050600060405180830381855af49150503d80600081146106cf576040519150601f19603f3d011682016040523d82523d6000602084013e6106d4565b606091505b505090508061041757600080fd5b5050565b60006106f06107bd565b6001600160a01b0316336001600160a01b0316141561044e576104476107bd565b6107196107bd565b6001600160a01b0316336001600160a01b0316141561076c57604051600160e51b62461bcd0281526004018080602001828103825260328152602001806108b86032913960400191505060405180910390fd5b610333610333565b7f360894a13ba1a3210667c828492db98dca3e2076cc3735a920a3ca505d382bbc5490565b3660008037600080366000845af43d6000803e8080156107b8573d6000f35b3d6000fd5b7fb53127684a568b3173ae13b9f8a6016e243e63b6e8ee1178d6a717850b5d61035490565b6107eb81610846565b6040516001600160a01b038216907fbc7cd75a20ee27fd9adebab32041f755214dbc6bffa90cc0225b39da2e5c2d3b90600090a250565b7fb53127684a568b3173ae13b9f8a6016e243e63b6e8ee1178d6a717850b5d610355565b61084f816108b1565b61088d57604051600160e51b62461bcd02815260040180806020018281038252603b815260200180610920603b913960400191505060405180910390fd5b7f360894a13ba1a3210667c828492db98dca3e2076cc3735a920a3ca505d382bbc55565b3b15159056fe43616e6e6f742063616c6c2066616c6c6261636b2066756e6374696f6e2066726f6d207468652070726f78792061646d696e43616e6e6f74206368616e6765207468652061646d696e206f6620612070726f787920746f20746865207a65726f206164647265737343616e6e6f742073657420612070726f787920696d706c656d656e746174696f6e20746f2061206e6f6e2d636f6e74726163742061646472657373a165627a7a72305820acd86240912c703ba88ccefef3db77e88d3507353c7c194b0b27eed571ae96c90029a265627a7a723058205b1e69029fe7fa695867f064bd9d793581325a426de7b86f2540f040fe208f2b6c6578706572696d656e74616cf50037608060405234801561001057600080fd5b50610986806100206000396000f3fe6080604052600436106100705760003560e01c80638f2839701161004e5780638f2839701461015e578063cf7a1d7714610191578063d1f5789414610250578063f851a4401461030657610070565b80633659cfe61461007a5780634f1ef286146100ad5780635c60da1b1461012d575b61007861031b565b005b34801561008657600080fd5b506100786004803603602081101561009d57600080fd5b50356001600160a01b0316610335565b610078600480360360408110156100c357600080fd5b6001600160a01b0382351691908101906040810160208201356401000000008111156100ee57600080fd5b82018360208201111561010057600080fd5b8035906020019184600183028401116401000000008311171561012257600080fd5b50909250905061036f565b34801561013957600080fd5b5061014261041c565b604080516001600160a01b039092168252519081900360200190f35b34801561016a57600080fd5b506100786004803603602081101561018157600080fd5b50356001600160a01b0316610459565b610078600480360360608110156101a757600080fd5b6001600160a01b0382358116926020810135909116918101906060810160408201356401000000008111156101db57600080fd5b8201836020820111156101ed57600080fd5b8035906020019184600183028401116401000000008311171561020f57600080fd5b91908080601f016020809104026020016040519081016040528093929190818152602001838380828437600092019190915250929550610516945050505050565b6100786004803603604081101561026657600080fd5b6001600160a01b03823516919081019060408101602082013564010000000081111561029157600080fd5b8201836020820111156102a357600080fd5b803590602001918460018302840111640100000000831117156102c557600080fd5b91908080601f0160208091040260200160405190810160405280939291908181526020018383808284376000920191909152509295506105a6945050505050565b34801561031257600080fd5b506101426106e6565b610323610711565b61033361032e610774565b610799565b565b61033d6107bd565b6001600160a01b0316336001600160a01b031614156103645761035f816107e2565b61036c565b61036c61031b565b50565b6103776107bd565b6001600160a01b0316336001600160a01b0316141561040f57610399836107e2565b6000836001600160a01b031683836040518083838082843760405192019450600093509091505080830381855af49150503d80600081146103f6576040519150601f19603f3d011682016040523d82523d6000602084013e6103fb565b606091505b505090508061040957600080fd5b50610417565b61041761031b565b505050565b60006104266107bd565b6001600160a01b0316336001600160a01b0316141561044e57610447610774565b9050610456565b61045661031b565b90565b6104616107bd565b6001600160a01b0316336001600160a01b03161415610364576001600160a01b0381166104c257604051600160e51b62461bcd0281526004018080602001828103825260368152602001806108ea6036913960400191505060405180910390fd5b7f7e644d79422f17c01e4894b5f4f588d331ebfa28653d42ae832dc59e38c9798f6104eb6107bd565b604080516001600160a01b03928316815291841660208301528051918290030190a161035f81610822565b6000610520610774565b6001600160a01b03161461053357600080fd5b61053d83826105a6565b604080517f656970313936372e70726f78792e61646d696e00000000000000000000000000815290519081900360130190207fb53127684a568b3173ae13b9f8a6016e243e63b6e8ee1178d6a717850b5d61036000199091011461059d57fe5b61041782610822565b60006105b0610774565b6001600160a01b0316146105c357600080fd5b604080517f656970313936372e70726f78792e696d706c656d656e746174696f6e000000008152905190819003601c0190207f360894a13ba1a3210667c828492db98dca3e2076cc3735a920a3ca505d382bbc6000199091011461062357fe5b61062c82610846565b8051156106e2576000826001600160a01b0316826040518082805190602001908083835b6020831061066f5780518252601f199092019160209182019101610650565b6001836020036101000a038019825116818451168082178552505050505050905001915050600060405180830381855af49150503d80600081146106cf576040519150601f19603f3d011682016040523d82523d6000602084013e6106d4565b606091505b505090508061041757600080fd5b5050565b60006106f06107bd565b6001600160a01b0316336001600160a01b0316141561044e576104476107bd565b6107196107bd565b6001600160a01b0316336001600160a01b0316141561076c57604051600160e51b62461bcd0281526004018080602001828103825260328152602001806108b86032913960400191505060405180910390fd5b610333610333565b7f360894a13ba1a3210667c828492db98dca3e2076cc3735a920a3ca505d382bbc5490565b3660008037600080366000845af43d6000803e8080156107b8573d6000f35b3d6000fd5b7fb53127684a568b3173ae13b9f8a6016e243e63b6e8ee1178d6a717850b5d61035490565b6107eb81610846565b6040516001600160a01b038216907fbc7cd75a20ee27fd9adebab32041f755214dbc6bffa90cc0225b39da2e5c2d3b90600090a250565b7fb53127684a568b3173ae13b9f8a6016e243e63b6e8ee1178d6a717850b5d610355565b61084f816108b1565b61088d57604051600160e51b62461bcd02815260040180806020018281038252603b815260200180610920603b913960400191505060405180910390fd5b7f360894a13ba1a3210667c828492db98dca3e2076cc3735a920a3ca505d382bbc55565b3b15159056fe43616e6e6f742063616c6c2066616c6c6261636b2066756e6374696f6e2066726f6d207468652070726f78792061646d696e43616e6e6f74206368616e6765207468652061646d696e206f6620612070726f787920746f20746865207a65726f206164647265737343616e6e6f742073657420612070726f787920696d706c656d656e746174696f6e20746f2061206e6f6e2d636f6e74726163742061646472657373a165627a7a72305820acd86240912c703ba88ccefef3db77e88d3507353c7c194b0b27eed571ae96c90029",
  "source": "// Registry of registered securities\r\n// (c) Kallol Borah, 2021\r\n\r\npragma solidity 0.5.7;\r\npragma experimental ABIEncoderV2;\r\n\r\nimport \"../interfaces/ISecuritiesRegistry.sol\";\r\nimport \"../interfaces/IPoolFactory.sol\";\r\nimport \"../interfaces/ViaFactory.sol\";\r\nimport \"../interfaces/VerifiedClient.sol\";\r\nimport \"../interfaces/VerifiedIssues.sol\";\r\nimport \"../utilities/StringUtils.sol\";\r\nimport \"abdk-libraries-solidity/ABDKMathQuad.sol\";\r\nimport \"@openzeppelin/upgrades/contracts/Initializable.sol\";\r\nimport \"@openzeppelin/upgrades/contracts/upgradeability/ProxyFactory.sol\";\r\nimport \"@openzeppelin/contracts-ethereum-package/contracts/ownership/Ownable.sol\";\r\nimport \"@openzeppelin/contracts-ethereum-package/contracts/token/ERC20/IERC20.sol\";\r\n\r\ncontract SecuritiesRegistry is Initializable, Ownable, ProxyFactory, ISecuritiesRegistry{\r\n\r\n    using ABDKMathQuad for bytes16;\r\n    using stringutils for *;\r\n\r\n    ViaFactory private via;\r\n\r\n    address poolFactory;\r\n    address preTradeContract;\r\n    address tradeContract;\r\n    address postTradeContract;\r\n    address clientContract;\r\n\r\n    mapping(address => security) private securityTokens;\r\n\r\n    address[] private tokens;\r\n\r\n    mapping(address => mapping(string => string[])) private corporateActions;\r\n    \r\n    //event signalling creation of a security token\r\n    event SecurityCreated(address indexed security, bytes32 company, bytes32 isin, bytes32 currency, address issuer);\r\n    //event signalling corporate action\r\n    event CorporateActionCreated(address indexed security, bytes32 company, bytes32 isin, string category, string action);\r\n    //event signalling credit score report\r\n    event ReportCreditScore(bytes32 company, bytes32 isin, bytes32 score);\r\n\r\n    function initialize(address _viaFactory, address _poolFactory, address _preTradeContract, address _tradeContract, address _postTradeContract, address _clientContract) public initializer{\r\n        Ownable.initialize(msg.sender);\r\n        via = ViaFactory(_viaFactory);\r\n        poolFactory = _poolFactory;\r\n        preTradeContract = _preTradeContract;\r\n        tradeContract = _tradeContract;\r\n        postTradeContract = _postTradeContract;\r\n        clientContract = _clientContract;\r\n    }\r\n\r\n    function createSecurity(address _issuer, address _security, bytes32 _currency, bytes32 _company, bytes32 _isin, bytes32 _settlementBy) external {\r\n        require(msg.sender==preTradeContract || VerifiedIssues(msg.sender).getOwner()==owner());\r\n        address cash = via.getTokenByNameType(_currency, \"ViaCash\");\r\n        require(cash!=address(0x0));\r\n        \r\n        if(!isRegistered(_company, _currency, _isin)){\r\n            bytes memory _payload = abi.encodeWithSignature(\"initialize(bytes32,bytes32,address,address,address,address)\", _company, _isin, preTradeContract, tradeContract, postTradeContract, clientContract);\r\n\r\n            address _token = deployMinimal(_security, _payload);\r\n            emit SecurityCreated(_token, _company, _isin, _currency, _issuer);\r\n\r\n            securityTokens[_token] = security(_company, _currency, _isin, \"none\", ABDKMathQuad.fromUInt(0), _issuer);\r\n            tokens.push(_token);\r\n\r\n            IPoolFactory(poolFactory).createPool(_token, cash, _currency, _settlementBy);\r\n        }\r\n    }\r\n\r\n    function isRegistered(bytes32 _company, bytes32 _currency, bytes32 _isin) private view returns(bool){\r\n        for(uint i=0; i<tokens.length; i++){\r\n            if( securityTokens[tokens[i]].company==_company &&\r\n                securityTokens[tokens[i]].currency==_currency &&\r\n                securityTokens[tokens[i]].isin==_isin)\r\n                    return true;\r\n        }\r\n        return false;\r\n    }\r\n\r\n    function getToken(bytes32 _currency, bytes32 _company, bytes32 _isin) external view returns(address){\r\n        for(uint i=0; i<tokens.length; i++){\r\n            if( securityTokens[tokens[i]].currency==_currency &&\r\n                securityTokens[tokens[i]].company==_company &&\r\n                securityTokens[tokens[i]].isin==_isin){\r\n                    return tokens[i];\r\n            }\r\n        }\r\n    }\r\n\r\n    function getSecuritiesIssued() external view returns(address[] memory){\r\n        return tokens;\r\n    }\r\n\r\n    function getSecuritiesInvested() external view returns(address[] memory){\r\n        //require(VerifiedClient(clientContract).isRegistered(msg.sender));\r\n        uint count = 0;\r\n        for(uint i=0; i<tokens.length; i++){\r\n            if(IERC20(tokens[i]).balanceOf(msg.sender)>0)\r\n                count = count + 1;\r\n        }\r\n        address[] memory securities = new address[](count);\r\n        count = 0;\r\n        for(uint i=0; i<tokens.length; i++){\r\n            if(IERC20(tokens[i]).balanceOf(msg.sender)>0)\r\n                securities[count] = tokens[i]; \r\n        }\r\n        return securities;\r\n    }\r\n\r\n    function getSecurityDetails(address _securityToken) external view returns(security memory){\r\n        return securityTokens[_securityToken];\r\n    }\r\n\r\n    function isIsinPresent(bytes32 _isin) external returns(bool){\r\n        for(uint i=0; i<tokens.length; i++){\r\n            if( securityTokens[tokens[i]].isin==_isin){\r\n                    return true;\r\n            }\r\n        }\r\n        return false;\r\n    }\r\n\r\n    function registerCorporateAction(string calldata _category, string calldata _action, bytes32 _isin) external{\r\n        //only company or a DP/registrar can report corporate action\r\n        require(_isin!=\"\" && bytes(_category).length!=0 && stringutils.equal(_action,\"\"));\r\n        (bytes32 role, ) = VerifiedClient(clientContract).getRole(msg.sender);\r\n        for(uint i=0; i<tokens.length; i++){\r\n            if( securityTokens[tokens[i]].isin==_isin && \r\n                (securityTokens[tokens[i]].issuer==msg.sender || role==\"DP\")){\r\n                corporateActions[tokens[i]][_category].push(_action);\r\n                emit CorporateActionCreated(tokens[i], \r\n                                    securityTokens[tokens[i]].company, \r\n                                    securityTokens[tokens[i]].isin, \r\n                                    _category, _action);\r\n            }\r\n        }\r\n    }\r\n\r\n    function registerCreditScore(bytes32 _company, bytes32 _isin, bytes32 _score) external {\r\n        //only verified admin can report credit score\r\n        require(msg.sender == owner());\r\n        require(_company!=\"\" || _isin!=\"\" && _score!=\"\");\r\n        for(uint i=0; i<tokens.length; i++){\r\n            if(_company==\"\"){\r\n                if(securityTokens[tokens[i]].isin==_isin){\r\n                    securityTokens[tokens[i]].creditScore = _score;\r\n                }\r\n            }\r\n            else if(_isin==\"\"){\r\n                if(securityTokens[tokens[i]].isin!=\"\" && securityTokens[tokens[i]].company==_company){\r\n                    securityTokens[tokens[i]].creditScore = _score;\r\n                }\r\n            }\r\n            else{\r\n                if(securityTokens[tokens[i]].isin==_isin && securityTokens[tokens[i]].company==_company){\r\n                    securityTokens[tokens[i]].creditScore = _score;\r\n                }\r\n            }\r\n        }\r\n        emit ReportCreditScore(_company, _isin, _score);\r\n    }\r\n\r\n    function registerPrice(bytes32 _isin, bytes16 _price) external {\r\n        //only post trade contract can report price\r\n        require(msg.sender==postTradeContract);\r\n        require(_isin!=\"\" && ABDKMathQuad.cmp(_price, ABDKMathQuad.fromUInt(0))>0);\r\n        for(uint i=0; i<tokens.length; i++){\r\n            if( securityTokens[tokens[i]].isin==_isin){\r\n                securityTokens[tokens[i]].price = _price;\r\n            }\r\n        }\r\n    }\r\n\r\n    function getCorporateActions(bytes32 _isin, string calldata _category) external view returns(string[] memory){\r\n        require(_isin!=\"\" && bytes(_category).length!=0);\r\n        for(uint i=0; i<tokens.length; i++){\r\n            if( securityTokens[tokens[i]].isin==_isin){\r\n                return corporateActions[tokens[i]][_category];\r\n            }\r\n        }\r\n    }\r\n\r\n    function getCreditScore(bytes32 _isin, bytes32 _company) external view returns(bytes32){\r\n        require(_company!=\"\" || _isin!=\"\");\r\n        bool found = false;\r\n        for(uint i=0; i<tokens.length; i++){\r\n            if(_company==\"\" && !found){\r\n                if(securityTokens[tokens[i]].isin==_isin){\r\n                    found = true;\r\n                    return securityTokens[tokens[i]].creditScore;\r\n                }\r\n            }\r\n            else if(_isin==\"\" && !found){\r\n                if(securityTokens[tokens[i]].isin!=\"\" && securityTokens[tokens[i]].company==_company){\r\n                    found = true;\r\n                    return securityTokens[tokens[i]].creditScore;\r\n                }\r\n            }\r\n            else if(!found){\r\n                if(securityTokens[tokens[i]].isin==_isin && securityTokens[tokens[i]].company==_company){\r\n                    found = true;\r\n                    return securityTokens[tokens[i]].creditScore;\r\n                }\r\n            }\r\n        }\r\n    }\r\n\r\n    function getPrice(bytes32 _isin) external view returns(bytes16){\r\n        require(_isin!=\"\");\r\n        for(uint i=0; i<tokens.length; i++){\r\n            if(securityTokens[tokens[i]].isin==_isin){\r\n                return securityTokens[tokens[i]].price;\r\n            }\r\n        }\r\n    }\r\n\r\n}",
  "sourcePath": "D:\\Code\\verified-trades\\contracts\\registry\\SecuritiesRegistry.sol",
  "compiler": {
    "name": "solc",
    "version": "0.5.7+commit.6da8b019.Emscripten.clang"
  },
  "schemaVersion": "3.4.3",
  "updatedAt": "2022-01-22T17:34:06.026Z",
  "networkType": "ethereum",
  "devdoc": {
    "methods": {
      "initialize(address)": {
        "details": "Initializes the contract setting the deployer as the initial owner."
      },
      "isOwner()": {
        "details": "Returns true if the caller is the current owner."
      },
      "owner()": {
        "details": "Returns the address of the current owner."
      },
      "renounceOwnership()": {
        "details": "Leaves the contract without owner. It will not be possible to call `onlyOwner` functions anymore. Can only be called by the current owner.     * > Note: Renouncing ownership will leave the contract without an owner, thereby removing any functionality that is only available to the owner."
      },
      "transferOwnership(address)": {
        "details": "Transfers ownership of the contract to a new account (`newOwner`). Can only be called by the current owner."
      }
    }
  },
  "userdoc": {
    "methods": {}
  }
}