{
  "contractName": "Security",
  "abi": [
    {
      "constant": true,
      "inputs": [],
      "name": "name",
      "outputs": [
        {
          "name": "",
          "type": "string"
        }
      ],
      "payable": false,
      "stateMutability": "view",
      "type": "function"
    },
    {
      "constant": false,
      "inputs": [
        {
          "name": "spender",
          "type": "address"
        },
        {
          "name": "amount",
          "type": "uint256"
        }
      ],
      "name": "approve",
      "outputs": [
        {
          "name": "",
          "type": "bool"
        }
      ],
      "payable": false,
      "stateMutability": "nonpayable",
      "type": "function"
    },
    {
      "constant": true,
      "inputs": [],
      "name": "totalSupply",
      "outputs": [
        {
          "name": "",
          "type": "uint256"
        }
      ],
      "payable": false,
      "stateMutability": "view",
      "type": "function"
    },
    {
      "constant": false,
      "inputs": [
        {
          "name": "spender",
          "type": "address"
        },
        {
          "name": "addedValue",
          "type": "uint256"
        }
      ],
      "name": "increaseAllowance",
      "outputs": [
        {
          "name": "",
          "type": "bool"
        }
      ],
      "payable": false,
      "stateMutability": "nonpayable",
      "type": "function"
    },
    {
      "constant": true,
      "inputs": [
        {
          "name": "account",
          "type": "address"
        }
      ],
      "name": "balanceOf",
      "outputs": [
        {
          "name": "",
          "type": "uint256"
        }
      ],
      "payable": false,
      "stateMutability": "view",
      "type": "function"
    },
    {
      "constant": true,
      "inputs": [],
      "name": "symbol",
      "outputs": [
        {
          "name": "",
          "type": "string"
        }
      ],
      "payable": false,
      "stateMutability": "view",
      "type": "function"
    },
    {
      "constant": false,
      "inputs": [
        {
          "name": "spender",
          "type": "address"
        },
        {
          "name": "subtractedValue",
          "type": "uint256"
        }
      ],
      "name": "decreaseAllowance",
      "outputs": [
        {
          "name": "",
          "type": "bool"
        }
      ],
      "payable": false,
      "stateMutability": "nonpayable",
      "type": "function"
    },
    {
      "constant": false,
      "inputs": [
        {
          "name": "recipient",
          "type": "address"
        },
        {
          "name": "amount",
          "type": "uint256"
        }
      ],
      "name": "transfer",
      "outputs": [
        {
          "name": "",
          "type": "bool"
        }
      ],
      "payable": false,
      "stateMutability": "nonpayable",
      "type": "function"
    },
    {
      "constant": true,
      "inputs": [
        {
          "name": "owner",
          "type": "address"
        },
        {
          "name": "spender",
          "type": "address"
        }
      ],
      "name": "allowance",
      "outputs": [
        {
          "name": "",
          "type": "uint256"
        }
      ],
      "payable": false,
      "stateMutability": "view",
      "type": "function"
    },
    {
      "anonymous": false,
      "inputs": [
        {
          "indexed": true,
          "name": "from",
          "type": "address"
        },
        {
          "indexed": true,
          "name": "to",
          "type": "address"
        },
        {
          "indexed": false,
          "name": "value",
          "type": "uint256"
        }
      ],
      "name": "Transfer",
      "type": "event"
    },
    {
      "anonymous": false,
      "inputs": [
        {
          "indexed": true,
          "name": "owner",
          "type": "address"
        },
        {
          "indexed": true,
          "name": "spender",
          "type": "address"
        },
        {
          "indexed": false,
          "name": "value",
          "type": "uint256"
        }
      ],
      "name": "Approval",
      "type": "event"
    },
    {
      "constant": false,
      "inputs": [
        {
          "name": "_company",
          "type": "bytes32"
        },
        {
          "name": "_isin",
          "type": "bytes32"
        },
        {
          "name": "_preTradeContract",
          "type": "address"
        },
        {
          "name": "_tradeContract",
          "type": "address"
        },
        {
          "name": "_postTradeContract",
          "type": "address"
        },
        {
          "name": "_clientContract",
          "type": "address"
        }
      ],
      "name": "initialize",
      "outputs": [],
      "payable": false,
      "stateMutability": "nonpayable",
      "type": "function"
    },
    {
      "constant": false,
      "inputs": [
        {
          "name": "_transferor",
          "type": "address"
        },
        {
          "name": "_transferee",
          "type": "address"
        },
        {
          "name": "_qty",
          "type": "uint256"
        }
      ],
      "name": "transferFrom",
      "outputs": [
        {
          "name": "",
          "type": "bool"
        }
      ],
      "payable": false,
      "stateMutability": "nonpayable",
      "type": "function"
    },
    {
      "constant": false,
      "inputs": [
        {
          "name": "_account",
          "type": "address"
        },
        {
          "name": "_amount",
          "type": "uint256"
        }
      ],
      "name": "mint",
      "outputs": [],
      "payable": false,
      "stateMutability": "nonpayable",
      "type": "function"
    },
    {
      "constant": true,
      "inputs": [
        {
          "name": "_holder",
          "type": "address"
        }
      ],
      "name": "getSettlements",
      "outputs": [
        {
          "components": [
            {
              "name": "transferee",
              "type": "address"
            },
            {
              "name": "transferor",
              "type": "address"
            },
            {
              "name": "amount",
              "type": "uint256"
            },
            {
              "name": "transferDateTime",
              "type": "uint256"
            }
          ],
          "name": "",
          "type": "tuple[]"
        }
      ],
      "payable": false,
      "stateMutability": "view",
      "type": "function"
    }
  ],
  "bytecode": "0x608060405261148b806100136000396000f3fe608060405234801561001057600080fd5b50600436106100cf5760003560e01c806370a082311161008c578063a457c2d711610066578063a457c2d714610190578063a9059cbb146101a3578063dd62ed3e146101b6578063ef49fb6d146101c9576100cf565b806370a082311461016257806389d29c4c1461017557806395d89b4114610188576100cf565b806306fdde03146100d4578063095ea7b3146100f257806318160ddd1461011257806323b872dd14610127578063395093511461013a57806340c10f191461014d575b600080fd5b6100dc6101e9565b6040516100e99190611312565b60405180910390f35b610105610100366004610ee7565b610277565b6040516100e99190611304565b61011a610295565b6040516100e99190611393565b610105610135366004610e9a565b61029c565b610105610148366004610ee7565b6104b4565b61016061015b366004610ee7565b61050d565b005b61011a610170366004610e1c565b61066a565b610160610183366004610f17565b610685565b6100dc6107d2565b61010561019e366004610ee7565b61082d565b6101056101b1366004610ee7565b61089b565b61011a6101c4366004610e60565b6108af565b6101dc6101d7366004610e1c565b6108da565b6040516100e991906112f3565b6068805460408051602060026001851615610100026000190190941693909304601f8101849004840282018401909252818152929183018282801561026f5780601f106102445761010080835404028352916020019161026f565b820191906000526020600020905b81548152906001019060200180831161025257829003601f168201915b505050505081565b600061028b610284610a25565b8484610a29565b5060015b92915050565b6035545b90565b606b546000906001600160a01b03163314806102c25750606c546001600160a01b031633145b6102cb57600080fd5b6000805b606f5481101561031857846001600160a01b0316606f82815481106102f057fe5b6000918252602090912001546001600160a01b0316141561031057600191505b6001016102cf565b508061036a57606f80546001810182556000919091527f39f2babe526038520877fc7c33d81accf578af4a06c5fa6b0d038cae36e127110180546001600160a01b0319166001600160a01b0386161790555b610372610d26565b50604080516080810182526001600160a01b03808716808352888216602080850191825284860189815242606087019081526000948552606e835296842080546001818101835591865292909420865160049093020180549286166001600160a01b031993841617815592519383018054949095169390911692909217909255516002820155915160039092019190915561040b610d26565b50604080516080810182526001600160a01b03808816825288811660208084018281528486018a815242606087019081526000948552606e845296842080546001818101835591865293909420865160049094020180549386166001600160a01b0319948516178155915193820180549490951693909216929092179092559051600282015591516003909201919091556104a7878787610ae3565b5060019695505050505050565b600061028b6104c1610a25565b8461050885603460006104d2610a25565b6001600160a01b03908116825260208083019390935260409182016000908120918c16815292529020549063ffffffff610bff16565b610a29565b606a546001600160a01b0316331461052457600080fd5b6000805b606f5481101561057157836001600160a01b0316606f828154811061054957fe5b6000918252602090912001546001600160a01b0316141561056957600191505b600101610528565b50806105c357606f80546001810182556000919091527f39f2babe526038520877fc7c33d81accf578af4a06c5fa6b0d038cae36e127110180546001600160a01b0319166001600160a01b0385161790555b6105cb610d26565b50604080516080810182526001600160a01b0380861680835230602080850191825284860188815242606087019081526000948552606e835296842080546001818101835591865292909420865160049093020180549286166001600160a01b03199384161781559251938301805494909516939091169290921790925551600282015591516003909201919091556106648484610c2e565b50505050565b6001600160a01b031660009081526033602052604090205490565b600054610100900460ff168061069e575061069e610cf1565b806106ac575060005460ff16155b6106d457604051600160e51b62461bcd0281526004016106cb90611353565b60405180910390fd5b600054610100900460ff161580156106ff576000805460ff1961ff0019909116610100171660011790555b86866040516020016107129291906112bf565b60405160208183030381529060405260689080519060200190610736929190610d60565b508560405160200161074891906112aa565b6040516020818303038152906040526069908051906020019061076c929190610d60565b50606a80546001600160a01b038088166001600160a01b031992831617909255606b8054878416908316179055606c8054868416908316179055606d80549285169290911691909117905580156107c9576000805461ff00191690555b50505050505050565b6069805460408051602060026001851615610100026000190190941693909304601f8101849004840282018401909252818152929183018282801561026f5780601f106102445761010080835404028352916020019161026f565b600061028b61083a610a25565b846105088560405180606001604052806025815260200161142d6025913960346000610864610a25565b6001600160a01b03908116825260208083019390935260409182016000908120918d1681529252902054919063ffffffff610cf716565b600061028b6108a8610a25565b8484610ae3565b6001600160a01b03918216600090815260346020908152604080832093909416825291909152205490565b60606001600160a01b03821633148061097c5750606d54604051600160e01b633d58406302815233916001600160a01b031690633d584063906109219086906004016112e5565b60206040518083038186803b15801561093957600080fd5b505afa15801561094d573d6000803e3d6000fd5b505050506040513d601f19601f820116820180604052506109719190810190610e42565b6001600160a01b0316145b61098557600080fd5b6001600160a01b0382166000908152606e6020908152604080832080548251818502810185019093528083529193909284015b82821015610a1a576000848152602090819020604080516080810182526004860290920180546001600160a01b0390811684526001808301549091168486015260028201549284019290925260030154606083015290835290920191016109b8565b505050509050919050565b3390565b6001600160a01b038316610a5257604051600160e51b62461bcd0281526004016106cb90611373565b6001600160a01b038216610a7b57604051600160e51b62461bcd0281526004016106cb90611333565b6001600160a01b0380841660008181526034602090815260408083209487168084529490915290819020849055517f8c5be1e5ebec7d5bd14f71427d1e84f3dd0314c0f7b2291e5b200ac8c7c3b92590610ad6908590611393565b60405180910390a3505050565b6001600160a01b038316610b0c57604051600160e51b62461bcd0281526004016106cb90611363565b6001600160a01b038216610b3557604051600160e51b62461bcd0281526004016106cb90611323565b610b7881604051806060016040528060268152602001611407602691396001600160a01b038616600090815260336020526040902054919063ffffffff610cf716565b6001600160a01b038085166000908152603360205260408082209390935590841681522054610bad908263ffffffff610bff16565b6001600160a01b0380841660008181526033602052604090819020939093559151908516907fddf252ad1be2c89b69c2b068fc378daa952ba7f163c4a11628f55a4df523b3ef90610ad6908590611393565b600082820183811015610c2757604051600160e51b62461bcd0281526004016106cb90611343565b9392505050565b6001600160a01b038216610c5757604051600160e51b62461bcd0281526004016106cb90611383565b603554610c6a908263ffffffff610bff16565b6035556001600160a01b038216600090815260336020526040902054610c96908263ffffffff610bff16565b6001600160a01b0383166000818152603360205260408082209390935591519091907fddf252ad1be2c89b69c2b068fc378daa952ba7f163c4a11628f55a4df523b3ef90610ce5908590611393565b60405180910390a35050565b303b1590565b60008184841115610d1e57604051600160e51b62461bcd0281526004016106cb9190611312565b505050900390565b604051806080016040528060006001600160a01b0316815260200160006001600160a01b0316815260200160008152602001600081525090565b828054600181600116156101000203166002900490600052602060002090601f016020900481019282601f10610da157805160ff1916838001178555610dce565b82800160010185558215610dce579182015b82811115610dce578251825591602001919060010190610db3565b50610dda929150610dde565b5090565b61029991905b80821115610dda5760008155600101610de4565b6000610c2782356113b4565b6000610c2782516113b4565b6000610c278235610299565b600060208284031215610e2e57600080fd5b6000610e3a8484610df8565b949350505050565b600060208284031215610e5457600080fd5b6000610e3a8484610e04565b60008060408385031215610e7357600080fd5b6000610e7f8585610df8565b9250506020610e9085828601610df8565b9150509250929050565b600080600060608486031215610eaf57600080fd5b6000610ebb8686610df8565b9350506020610ecc86828701610df8565b9250506040610edd86828701610e10565b9150509250925092565b60008060408385031215610efa57600080fd5b6000610f068585610df8565b9250506020610e9085828601610e10565b60008060008060008060c08789031215610f3057600080fd5b6000610f3c8989610e10565b9650506020610f4d89828a01610e10565b9550506040610f5e89828a01610df8565b9450506060610f6f89828a01610df8565b9350506080610f8089828a01610df8565b92505060a0610f9189828a01610df8565b9150509295509295509295565b6000610faa838361125b565b505060800190565b610fbb816113b4565b82525050565b6000610fcc826113a7565b610fd681856113ab565b9350610fe1836113a1565b60005b8281101561100c57610ff7868351610f9e565b9550611002826113a1565b9150600101610fe4565b5093949350505050565b610fbb816113bf565b610fbb61102b82610299565b610299565b600061103b826113a7565b61104581856113ab565b93506110558185602086016113d0565b61105e816113fc565b9093019392505050565b60006110756023836113ab565b7f45524332303a207472616e7366657220746f20746865207a65726f20616464728152600160e81b6265737302602082015260400192915050565b60006110bd6022836113ab565b7f45524332303a20617070726f766520746f20746865207a65726f2061646472658152600160f01b61737302602082015260400192915050565b6000611104601b836113ab565b7f536166654d6174683a206164646974696f6e206f766572666c6f770000000000815260200192915050565b600061113d602e836113ab565b7f436f6e747261637420696e7374616e63652068617320616c726561647920626581527f656e20696e697469616c697a6564000000000000000000000000000000000000602082015260400192915050565b600061119c6025836113ab565b7f45524332303a207472616e736665722066726f6d20746865207a65726f2061648152600160d81b64647265737302602082015260400192915050565b60006111e66024836113ab565b7f45524332303a20617070726f76652066726f6d20746865207a65726f206164648152600160e01b637265737302602082015260400192915050565b600061122f601f836113ab565b7f45524332303a206d696e7420746f20746865207a65726f206164647265737300815260200192915050565b8051608083019061126c8482610fb2565b50602082015161127f6020850182610fb2565b50604082015161129260408501826112a1565b50606082015161066460608501825b610fbb81610299565b60006112b6828461101f565b50602001919050565b60006112cb828561101f565b6020820191506112db828461101f565b5060200192915050565b6020810161028f8284610fb2565b60208082528101610c278184610fc1565b6020810161028f8284611016565b60208082528101610c278184611030565b6020808252810161028f81611068565b6020808252810161028f816110b0565b6020808252810161028f816110f7565b6020808252810161028f81611130565b6020808252810161028f8161118f565b6020808252810161028f816111d9565b6020808252810161028f81611222565b6020810161028f82846112a1565b60200190565b5190565b90815260200190565b600061028f826113c4565b151590565b6001600160a01b031690565b60005b838110156113eb5781810151838201526020016113d3565b838111156106645750506000910152565b601f01601f19169056fe45524332303a207472616e7366657220616d6f756e7420657863656564732062616c616e636545524332303a2064656372656173656420616c6c6f77616e63652062656c6f77207a65726fa265627a7a723058209d226bfa841ec90a5c9c2b38dc07905dbe60ea47cafa5bba2bc496bfbe8c25c36c6578706572696d656e74616cf50037",
  "source": "// A simple ERC20 based security token\r\n// (c) Kallol Borah, 2021\r\n\r\npragma solidity 0.5.7;\r\npragma experimental ABIEncoderV2;\r\n\r\nimport \"../interfaces/ISecurity.sol\";\r\nimport \"../interfaces/VerifiedClient.sol\";\r\nimport \"@openzeppelin/upgrades/contracts/Initializable.sol\";\r\nimport \"@openzeppelin/contracts-ethereum-package/contracts/token/ERC20/ERC20.sol\";\r\n\r\ncontract Security is Initializable, ERC20 {\r\n\r\n    string public name;\r\n    string public symbol;\r\n\r\n    address preTradeContract;\r\n    address tradeContract;\r\n    address postTradeContract;\r\n    address clientContract;\r\n\r\n    // mapping security token holders to tokens held\r\n    mapping(address => ISecurity.registry[]) private SettlementRegistry;\r\n\r\n    address[] private holders;\r\n\r\n    function initialize(bytes32 _company, \r\n                        bytes32 _isin, \r\n                        address _preTradeContract, \r\n                        address _tradeContract, \r\n                        address _postTradeContract, \r\n                        address _clientContract\r\n                        ) public initializer {\r\n        name = string(abi.encodePacked(_company, _isin));\r\n        symbol = string(abi.encodePacked(_isin));\r\n        preTradeContract = _preTradeContract;\r\n        tradeContract = _tradeContract;\r\n        postTradeContract = _postTradeContract;\r\n        clientContract = _clientContract;\r\n    }\r\n\r\n    function transferFrom(address _transferor, address _transferee, uint256 _qty) public returns(bool) {\r\n        require(msg.sender==tradeContract || msg.sender==postTradeContract);\r\n        bool found = false;\r\n        for(uint i=0; i<holders.length; i++){\r\n            if(holders[i]==_transferee)\r\n                found = true;\r\n        }\r\n        if(!found)\r\n            holders.push(_transferee);\r\n        //uint size = SettlementRegistry[_transferee].length;\r\n        ISecurity.registry memory r1 = ISecurity.registry({\r\n            transferee : _transferee,\r\n            transferor : _transferor,\r\n            amount : _qty,\r\n            transferDateTime : now\r\n        }); \r\n        SettlementRegistry[_transferee].push(r1);\r\n        ISecurity.registry memory r2 = ISecurity.registry({\r\n            transferee : _transferee,\r\n            transferor : _transferor,\r\n            amount : _qty,\r\n            transferDateTime : now\r\n        }); \r\n        SettlementRegistry[_transferor].push(r2);\r\n        _transfer(_transferor, _transferee, _qty); \r\n        return true;\r\n    }\r\n\r\n    function mint(address _account, uint256 _amount) external {\r\n        require(msg.sender==preTradeContract);\r\n        bool found = false;\r\n        for(uint i=0; i<holders.length; i++){\r\n            if(holders[i]==_account)\r\n                found = true;\r\n        }\r\n        if(!found)\r\n            holders.push(_account);\r\n        ISecurity.registry memory r = ISecurity.registry({\r\n            transferee : _account,\r\n            transferor : address(this),\r\n            amount : _amount,\r\n            transferDateTime : now\r\n        }); \r\n        SettlementRegistry[_account].push(r);\r\n        _mint(_account, _amount);\r\n    }\r\n\r\n    function getSettlements(address _holder) external view returns(ISecurity.registry[] memory){\r\n        require(_holder==msg.sender || VerifiedClient(clientContract).getManager(_holder)==msg.sender);\r\n        return (SettlementRegistry[_holder]);\r\n    }\r\n\r\n}",
  "sourcePath": "D:\\Code\\verified-trades\\contracts\\registry\\Security.sol",
  "compiler": {
    "name": "solc",
    "version": "0.5.7+commit.6da8b019.Emscripten.clang"
  },
  "schemaVersion": "3.4.3",
  "updatedAt": "2022-01-15T14:16:16.438Z",
  "networkType": "ethereum",
  "devdoc": {
    "methods": {
      "allowance(address,address)": {
        "details": "See {IERC20-allowance}."
      },
      "approve(address,uint256)": {
        "details": "See {IERC20-approve}.     * Requirements:     * - `spender` cannot be the zero address."
      },
      "balanceOf(address)": {
        "details": "See {IERC20-balanceOf}."
      },
      "decreaseAllowance(address,uint256)": {
        "details": "Atomically decreases the allowance granted to `spender` by the caller.     * This is an alternative to {approve} that can be used as a mitigation for problems described in {IERC20-approve}.     * Emits an {Approval} event indicating the updated allowance.     * Requirements:     * - `spender` cannot be the zero address. - `spender` must have allowance for the caller of at least `subtractedValue`."
      },
      "increaseAllowance(address,uint256)": {
        "details": "Atomically increases the allowance granted to `spender` by the caller.     * This is an alternative to {approve} that can be used as a mitigation for problems described in {IERC20-approve}.     * Emits an {Approval} event indicating the updated allowance.     * Requirements:     * - `spender` cannot be the zero address."
      },
      "totalSupply()": {
        "details": "See {IERC20-totalSupply}."
      },
      "transfer(address,uint256)": {
        "details": "See {IERC20-transfer}.     * Requirements:     * - `recipient` cannot be the zero address. - the caller must have a balance of at least `amount`."
      }
    }
  },
  "userdoc": {
    "methods": {}
  }
}