{
  "contractName": "SecuritiesRegistry",
  "abi": [
    {
      "constant": true,
      "inputs": [
        {
          "name": "_salt",
          "type": "uint256"
        },
        {
          "name": "_logic",
          "type": "address"
        },
        {
          "name": "_admin",
          "type": "address"
        },
        {
          "name": "_data",
          "type": "bytes"
        },
        {
          "name": "_signature",
          "type": "bytes"
        }
      ],
      "name": "getSigner",
      "outputs": [
        {
          "name": "",
          "type": "address"
        }
      ],
      "payable": false,
      "stateMutability": "view",
      "type": "function"
    },
    {
      "constant": false,
      "inputs": [
        {
          "name": "_salt",
          "type": "uint256"
        },
        {
          "name": "_logic",
          "type": "address"
        },
        {
          "name": "_admin",
          "type": "address"
        },
        {
          "name": "_data",
          "type": "bytes"
        },
        {
          "name": "_signature",
          "type": "bytes"
        }
      ],
      "name": "deploySigned",
      "outputs": [
        {
          "name": "",
          "type": "address"
        }
      ],
      "payable": false,
      "stateMutability": "nonpayable",
      "type": "function"
    },
    {
      "constant": false,
      "inputs": [
        {
          "name": "_salt",
          "type": "uint256"
        },
        {
          "name": "_logic",
          "type": "address"
        },
        {
          "name": "_admin",
          "type": "address"
        },
        {
          "name": "_data",
          "type": "bytes"
        }
      ],
      "name": "deploy",
      "outputs": [
        {
          "name": "",
          "type": "address"
        }
      ],
      "payable": false,
      "stateMutability": "nonpayable",
      "type": "function"
    },
    {
      "constant": false,
      "inputs": [],
      "name": "renounceOwnership",
      "outputs": [],
      "payable": false,
      "stateMutability": "nonpayable",
      "type": "function"
    },
    {
      "constant": true,
      "inputs": [
        {
          "name": "_salt",
          "type": "uint256"
        },
        {
          "name": "_sender",
          "type": "address"
        }
      ],
      "name": "getDeploymentAddress",
      "outputs": [
        {
          "name": "",
          "type": "address"
        }
      ],
      "payable": false,
      "stateMutability": "view",
      "type": "function"
    },
    {
      "constant": true,
      "inputs": [],
      "name": "owner",
      "outputs": [
        {
          "name": "",
          "type": "address"
        }
      ],
      "payable": false,
      "stateMutability": "view",
      "type": "function"
    },
    {
      "constant": true,
      "inputs": [],
      "name": "isOwner",
      "outputs": [
        {
          "name": "",
          "type": "bool"
        }
      ],
      "payable": false,
      "stateMutability": "view",
      "type": "function"
    },
    {
      "constant": false,
      "inputs": [
        {
          "name": "_logic",
          "type": "address"
        },
        {
          "name": "_data",
          "type": "bytes"
        }
      ],
      "name": "deployMinimal",
      "outputs": [
        {
          "name": "proxy",
          "type": "address"
        }
      ],
      "payable": false,
      "stateMutability": "nonpayable",
      "type": "function"
    },
    {
      "constant": false,
      "inputs": [
        {
          "name": "newOwner",
          "type": "address"
        }
      ],
      "name": "transferOwnership",
      "outputs": [],
      "payable": false,
      "stateMutability": "nonpayable",
      "type": "function"
    },
    {
      "anonymous": false,
      "inputs": [
        {
          "indexed": true,
          "name": "security",
          "type": "address"
        },
        {
          "indexed": false,
          "name": "company",
          "type": "bytes32"
        },
        {
          "indexed": false,
          "name": "isin",
          "type": "bytes32"
        },
        {
          "indexed": false,
          "name": "currency",
          "type": "bytes32"
        },
        {
          "indexed": false,
          "name": "issuer",
          "type": "address"
        }
      ],
      "name": "SecurityCreated",
      "type": "event"
    },
    {
      "anonymous": false,
      "inputs": [
        {
          "indexed": true,
          "name": "security",
          "type": "address"
        },
        {
          "indexed": false,
          "name": "company",
          "type": "bytes32"
        },
        {
          "indexed": false,
          "name": "isin",
          "type": "bytes32"
        },
        {
          "indexed": false,
          "name": "category",
          "type": "string"
        },
        {
          "indexed": false,
          "name": "action",
          "type": "string"
        }
      ],
      "name": "CorporateActionCreated",
      "type": "event"
    },
    {
      "anonymous": false,
      "inputs": [
        {
          "indexed": false,
          "name": "company",
          "type": "bytes32"
        },
        {
          "indexed": false,
          "name": "isin",
          "type": "bytes32"
        },
        {
          "indexed": false,
          "name": "score",
          "type": "bytes32"
        }
      ],
      "name": "ReportCreditScore",
      "type": "event"
    },
    {
      "anonymous": false,
      "inputs": [
        {
          "indexed": false,
          "name": "proxy",
          "type": "address"
        }
      ],
      "name": "ProxyCreated",
      "type": "event"
    },
    {
      "anonymous": false,
      "inputs": [
        {
          "indexed": true,
          "name": "previousOwner",
          "type": "address"
        },
        {
          "indexed": true,
          "name": "newOwner",
          "type": "address"
        }
      ],
      "name": "OwnershipTransferred",
      "type": "event"
    },
    {
      "constant": false,
      "inputs": [
        {
          "name": "sender",
          "type": "address"
        }
      ],
      "name": "initialize",
      "outputs": [],
      "payable": false,
      "stateMutability": "nonpayable",
      "type": "function"
    },
    {
      "constant": false,
      "inputs": [
        {
          "name": "_viaFactory",
          "type": "address"
        },
        {
          "name": "_poolFactory",
          "type": "address"
        },
        {
          "name": "_preTradeContract",
          "type": "address"
        },
        {
          "name": "_tradeContract",
          "type": "address"
        },
        {
          "name": "_postTradeContract",
          "type": "address"
        },
        {
          "name": "_clientContract",
          "type": "address"
        }
      ],
      "name": "initialize",
      "outputs": [],
      "payable": false,
      "stateMutability": "nonpayable",
      "type": "function"
    },
    {
      "constant": false,
      "inputs": [
        {
          "name": "_issuer",
          "type": "address"
        },
        {
          "name": "_security",
          "type": "address"
        },
        {
          "name": "_currency",
          "type": "bytes32"
        },
        {
          "name": "_company",
          "type": "bytes32"
        },
        {
          "name": "_isin",
          "type": "bytes32"
        },
        {
          "name": "_settlementBy",
          "type": "bytes32"
        }
      ],
      "name": "createSecurity",
      "outputs": [],
      "payable": false,
      "stateMutability": "nonpayable",
      "type": "function"
    },
    {
      "constant": true,
      "inputs": [
        {
          "name": "_currency",
          "type": "bytes32"
        },
        {
          "name": "_company",
          "type": "bytes32"
        },
        {
          "name": "_isin",
          "type": "bytes32"
        }
      ],
      "name": "getToken",
      "outputs": [
        {
          "name": "",
          "type": "address"
        }
      ],
      "payable": false,
      "stateMutability": "view",
      "type": "function"
    },
    {
      "constant": true,
      "inputs": [],
      "name": "getSecuritiesIssued",
      "outputs": [
        {
          "name": "",
          "type": "address[]"
        }
      ],
      "payable": false,
      "stateMutability": "view",
      "type": "function"
    },
    {
      "constant": true,
      "inputs": [],
      "name": "getSecuritiesInvested",
      "outputs": [
        {
          "name": "",
          "type": "address[]"
        }
      ],
      "payable": false,
      "stateMutability": "view",
      "type": "function"
    },
    {
      "constant": true,
      "inputs": [
        {
          "name": "_securityToken",
          "type": "address"
        }
      ],
      "name": "getSecurityDetails",
      "outputs": [
        {
          "components": [
            {
              "name": "company",
              "type": "bytes32"
            },
            {
              "name": "currency",
              "type": "bytes32"
            },
            {
              "name": "isin",
              "type": "bytes32"
            },
            {
              "name": "creditScore",
              "type": "bytes32"
            },
            {
              "name": "price",
              "type": "bytes16"
            },
            {
              "name": "issuer",
              "type": "address"
            }
          ],
          "name": "",
          "type": "tuple"
        }
      ],
      "payable": false,
      "stateMutability": "view",
      "type": "function"
    },
    {
      "constant": false,
      "inputs": [
        {
          "name": "_isin",
          "type": "bytes32"
        }
      ],
      "name": "isIsinPresent",
      "outputs": [
        {
          "name": "",
          "type": "bool"
        }
      ],
      "payable": false,
      "stateMutability": "nonpayable",
      "type": "function"
    },
    {
      "constant": false,
      "inputs": [
        {
          "name": "_category",
          "type": "string"
        },
        {
          "name": "_action",
          "type": "string"
        },
        {
          "name": "_isin",
          "type": "bytes32"
        }
      ],
      "name": "registerCorporateAction",
      "outputs": [],
      "payable": false,
      "stateMutability": "nonpayable",
      "type": "function"
    },
    {
      "constant": false,
      "inputs": [
        {
          "name": "_company",
          "type": "bytes32"
        },
        {
          "name": "_isin",
          "type": "bytes32"
        },
        {
          "name": "_score",
          "type": "bytes32"
        }
      ],
      "name": "registerCreditScore",
      "outputs": [],
      "payable": false,
      "stateMutability": "nonpayable",
      "type": "function"
    },
    {
      "constant": false,
      "inputs": [
        {
          "name": "_isin",
          "type": "bytes32"
        },
        {
          "name": "_price",
          "type": "bytes16"
        },
        {
          "name": "_transferor",
          "type": "address"
        },
        {
          "name": "_transferee",
          "type": "address"
        }
      ],
      "name": "registerPrice",
      "outputs": [],
      "payable": false,
      "stateMutability": "nonpayable",
      "type": "function"
    },
    {
      "constant": true,
      "inputs": [
        {
          "name": "_isin",
          "type": "bytes32"
        },
        {
          "name": "_category",
          "type": "string"
        }
      ],
      "name": "getCorporateActions",
      "outputs": [
        {
          "name": "",
          "type": "string[]"
        }
      ],
      "payable": false,
      "stateMutability": "view",
      "type": "function"
    },
    {
      "constant": true,
      "inputs": [
        {
          "name": "_isin",
          "type": "bytes32"
        },
        {
          "name": "_company",
          "type": "bytes32"
        }
      ],
      "name": "getCreditScore",
      "outputs": [
        {
          "name": "",
          "type": "bytes32"
        }
      ],
      "payable": false,
      "stateMutability": "view",
      "type": "function"
    },
    {
      "constant": true,
      "inputs": [
        {
          "name": "_isin",
          "type": "bytes32"
        }
      ],
      "name": "getPrice",
      "outputs": [
        {
          "name": "",
          "type": "bytes16"
        }
      ],
      "payable": false,
      "stateMutability": "view",
      "type": "function"
    }
  ],
  "bytecode": "0x6080604081905261001060a0610034565b601f1982820381018352601f90910116604052805160209190910120606655610042565b6109a6806200330783390190565b6132b580620000526000396000f3fe608060405234801561001057600080fd5b506004361061014d5760003560e01c80637cee1170116100c3578063b3eeb5e21161007c578063b3eeb5e2146102b7578063c4d66de8146102ca578063cc2a9a5b146102dd578063e6bfeec0146102f0578063efcfbbb614610310578063f2fde38b146103235761014d565b80637cee11701461024e57806381ae1f5b146102615780638d079e4d146102745780638da5cb5b146102875780638f32d59b1461028f5780639c3acea0146102a45761014d565b806331d98b3f1161011557806331d98b3f146101d8578063332d6626146101f85780634da8ac561461020b5780636150864c1461022b578063715018a61461023e578063739c7b6d146102465761014d565b8063044037ca14610152578063238a37291461016757806328123e971461017a578063290f8f56146101a35780632b16068a146101c3575b600080fd5b610165610160366004611ea5565b610336565b005b610165610175366004611e02565b6105a4565b61018d610188366004611da2565b610681565b60405161019a9190612611565b60405180910390f35b6101b66101b1366004611fe6565b6106e9565b60405161019a9190612555565b6101cb61073c565b60405161019a91906125d3565b6101eb6101e6366004611d23565b6107a8565b60405161019a9190612603565b6101b6610206366004611fe6565b6107fe565b61021e610219366004611e4f565b610846565b60405161019a91906125e4565b6101b6610239366004611f79565b610994565b6101656109ae565b6101cb610a1f565b61016561025c366004611d41565b610a7f565b6101b661026f366004611f49565b610be7565b610165610282366004611c39565b610c42565b6101b6610fcb565b610297610fda565b60405161019a91906125f5565b6101b66102b2366004611e02565b611000565b6101b66102c5366004611cb3565b61105a565b6101656102d8366004611b76565b61116e565b6101656102eb366004611bb2565b611244565b6103036102fe366004611b76565b61133a565b60405161019a91906127bf565b61029761031e366004611d23565b6113b7565b610165610331366004611b76565b6113e9565b801580159061034457508315155b80156103d75750604051600160e11b63235ee54d02815273__stringutils___________________________906346bdca9a90610387908690869060040161275a565b60206040518083038186803b15801561039f57600080fd5b505af41580156103b3573d6000803e3d6000fd5b505050506040513d601f19601f820116820180604052506103d79190810190611d05565b6103e057600080fd5b606c54604051600160e01b63442767330281526000916001600160a01b031690634427673390610414903390600401612563565b604080518083038186803b15801561042b57600080fd5b505afa15801561043f573d6000803e3d6000fd5b505050506040513d601f19601f820116820180604052506104639190810190611dd2565b506000838152606f60205260409020549091506001600160a01b0316801561059b576001600160a01b0381166000908152606d6020526040902060020154831480156104dc57506001600160a01b038181166000908152606d6020526040902060050154163314806104dc575081600160f41b61044502145b1561059b576001600160a01b03811660009081526070602052604090819020905161050a90899089906124ad565b90815260405160209181900382019020805460018101808355600092835292909120610538910187876119b7565b50506001600160a01b0381166000818152606d602052604090819020805460029091015491517ff9dbb0f8084d50cd63bd76143f0ce0d1011d6aedb10e487503fc1fa9a3d2889f9261059292918c908c908c908c906126d6565b60405180910390a25b50505050505050565b6105ac610fda565b6105d457604051600160e51b62461bcd0281526004016105cb9061279f565b60405180910390fd5b821515806105e157508115155b80156105ec57508015155b6105f557600080fd5b81610610576000838152607160205260409020819055610641565b8115610641576000828152606f60209081526040808320546001600160a01b03168352606d90915290206003018190555b7f75cc0f6e8b6e807b1ad0c39ab93c9469925135e9f0d33215accf4c3595ec31ff83838360405161067493929190612679565b60405180910390a1505050565b60008115158061069057508215155b61069957600080fd5b826106b357506000818152607160205260409020546106e3565b82156106e357506000828152606f60209081526040808320546001600160a01b03168352606d9091529020600301545b92915050565b6000806107238787878730604051602001610708959493929190612500565b6040516020818303038152906040528051906020012061141c565b905061072f818461144c565b9150505b95945050505050565b3360009081526072602090815260409182902080548351818402810184019094528084526060939283018282801561079d57602002820191906000526020600020905b81546001600160a01b0316815260019091019060200180831161077f575b505050505090505b90565b6000816107b457600080fd5b6000828152606f60205260409020546001600160a01b031680156107f7576001600160a01b03166000908152606d602052604090206004015460801b90506107f9565b505b919050565b60008061080e87878787876106e9565b90506001600160a01b03811661083957604051600160e51b62461bcd0281526004016105cb9061278f565b61072f8787878785611528565b6060831580159061085657508115155b61085f57600080fd5b6000848152606f60205260409020546001600160a01b0316801561098b576001600160a01b0381166000908152607060205260409081902090516108a690869086906124ad565b9081526020016040518091039020805480602002602001604051908101604052809291908181526020016000905b8282101561097f5760008481526020908190208301805460408051601f600260001961010060018716150201909416939093049283018590048502810185019091528181529283018282801561096b5780601f106109405761010080835404028352916020019161096b565b820191906000526020600020905b81548152906001019060200180831161094e57829003601f168201915b5050505050815260200190600101906108d4565b5050505091505061098d565b505b9392505050565b60006109a38585858533611528565b90505b949350505050565b6109b6610fda565b6109d557604051600160e51b62461bcd0281526004016105cb9061279f565b6033546040516000916001600160a01b0316907f8be0079c531659141344cd1fd0a4f28419497f9722a3daafe3b4186f6b6457e0908390a3603380546001600160a01b0319169055565b6060606e80548060200260200160405190810160405280929190818152602001828054801561079d576020028201919060005260206000209081546001600160a01b0316815260019091019060200180831161077f575050505050905090565b606b546001600160a01b03163314610a9657600080fd5b8315801590610aba57506000610ab584610ab060006115dd565b611649565b60000b135b610ac357600080fd5b6000848152606f60205260409020546001600160a01b03168015610be0576001600160a01b038281166000908152607260209081526040808320805460018101825590845291832090910180546001600160a01b031916938516938417905551600160e01b6370a082310281529091906370a0823190610b47908790600401612555565b60206040518083038186803b158015610b5f57600080fd5b505afa158015610b73573d6000803e3d6000fd5b505050506040513d601f19601f82011682018060405250610b979190810190611f2b565b90508015610bde576001600160a01b0384811660009081526072602090815260408220805460018101825590835291200180546001600160a01b0319169184169190911790555b505b5050505050565b600080610bf48484611792565b606654604051919250600091610c1a916001600160f81b03199130918691602001612459565b60408051601f198184030181529190528051602090910120606090811b901c95945050505050565b6069546001600160a01b0316331480610ce35750610c5e610fcb565b6001600160a01b0316336001600160a01b031663893d20e86040518163ffffffff1660e01b815260040160206040518083038186803b158015610ca057600080fd5b505afa158015610cb4573d6000803e3d6000fd5b505050506040513d601f19601f82011682018060405250610cd89190810190611b94565b6001600160a01b0316145b610cec57600080fd5b606754604051600160e21b633cd163c50281526000916001600160a01b03169063f3458f1490610d20908890600401612725565b60206040518083038186803b158015610d3857600080fd5b505afa158015610d4c573d6000803e3d6000fd5b505050506040513d601f19601f82011682018060405250610d709190810190611b94565b90506001600160a01b038116610d8557600080fd5b610d908486856117c5565b61059b57606954606a54606b54606c54604051606094610dcd948a948a946001600160a01b0393841694928416939182169291169060240161261f565b60408051601f198184030181529190526020810180516001600160e01b0316600160e21b632274a7130217905290506000610e08888361105a565b9050806001600160a01b03167f3503084d928e8dddbaa7c0cefb7db1677b12f85b14227e33cddb27b18d383e0287878a8d604051610e4994939291906126a1565b60405180910390a26040518060c00160405280878152602001888152602001868152602001600160e01b636e6f6e65028152602001610e8860006115dd565b6001600160801b031990811682526001600160a01b03808d166020938401528481166000818152606d855260408082208751815587870151600180830191909155888301516002830155606089015160038301556080808a0151600480850180549290931c9190991617905560a090980151600590910180549186166001600160a01b03199283161790558c8352606f9096528082208054871684179055606e805497880181559091527f9930d9ff0dee0ef5ca2f7710ea66b8f84dd0f5f5351ecffe72b952cd9db7142a9095018054909416179092556068549251600160e11b635ca76fdf028152929091169163b94edfbe91610f8e91859188918d918b9101612571565b600060405180830381600087803b158015610fa857600080fd5b505af1158015610fbc573d6000803e3d6000fd5b50505050505050505050505050565b6033546001600160a01b031690565b6033546000906001600160a01b0316610ff161182c565b6001600160a01b031614905090565b6000818152606f60209081526040808320546001600160a01b0316808452606d9092528220548414801561104e57506001600160a01b0381166000908152606d602052604090206001015485145b1561098b57905061098d565b6000808360601b90506040517f3d602d80600a3d3981f3363d3d373d3d3d363d7300000000000000000000000081528160148201527f5af43d82803e903d91602b57fd5bf3000000000000000000000000000000000060288201526037816000f09250507efffc2da0b561cae30d9826d37709e9421c4725faebc226cbbb7ef5fc5e7349826040516110ec9190612555565b60405180910390a1825115611167576000826001600160a01b03168460405161111591906124a1565b6000604051808303816000865af19150503d8060008114611152576040519150601f19603f3d011682016040523d82523d6000602084013e611157565b606091505b505090508061116557600080fd5b505b5092915050565b600054610100900460ff16806111875750611187611830565b80611195575060005460ff16155b6111b457604051600160e51b62461bcd0281526004016105cb906127af565b600054610100900460ff161580156111df576000805460ff1961ff0019909116610100171660011790555b603380546001600160a01b0319166001600160a01b0384811691909117918290556040519116906000907f8be0079c531659141344cd1fd0a4f28419497f9722a3daafe3b4186f6b6457e0908290a38015611240576000805461ff00191690555b5050565b600054610100900460ff168061125d575061125d611830565b8061126b575060005460ff16155b61128a57604051600160e51b62461bcd0281526004016105cb906127af565b600054610100900460ff161580156112b5576000805460ff1961ff0019909116610100171660011790555b6112be3361116e565b606780546001600160a01b03199081166001600160a01b038a811691909117909255606880548216898416179055606980548216888416179055606a80548216878416179055606b80548216868416179055606c8054909116918416919091179055801561059b576000805461ff001916905550505050505050565b611342611a35565b506001600160a01b039081166000908152606d6020908152604091829020825160c08101845281548152600182015492810192909252600281015492820192909252600382015460608201526004820154608090811b6001600160801b0319169082015260059091015490911660a082015290565b6000818152606f60205260408120546001600160a01b031680156113df5760019150506107f9565b60009150506107f9565b6113f1610fda565b61141057604051600160e51b62461bcd0281526004016105cb9061279f565b61141981611836565b50565b60008160405160200161142f91906124ba565b604051602081830303815290604052805190602001209050919050565b6000815160411461145f575060006106e3565b60208201516040830151606084015160001a7f7fffffffffffffffffffffffffffffff5d576e7357a4501ddfe92f46681b20a08211156114a557600093505050506106e3565b8060ff16601b141580156114bd57508060ff16601c14155b156114ce57600093505050506106e3565b600186828585604051600081526020016040526040516114f1949392919061273f565b6020604051602081039080840390855afa158015611513573d6000803e3d6000fd5b5050604051601f190151979650505050505050565b60008061153587846118bb565b90507efffc2da0b561cae30d9826d37709e9421c4725faebc226cbbb7ef5fc5e7349816040516115659190612563565b60405180910390a1604051600160e01b63cf7a1d770281526001600160a01b0382169063cf7a1d77906115a0908990899089906004016125a6565b600060405180830381600087803b1580156115ba57600080fd5b505af11580156115ce573d6000803e3d6000fd5b50929998505050505050505050565b6000816115ec575060006107f9565b8160006115f882611914565b90506070811015611611578060700382901b9150611624565b6070811115611624576070810382901c91505b613fff0160701b6dffffffffffffffffffffffffffff919091161760801b90506107f9565b600060016001607f1b03608084901c16600160701b617fff0281111561166e57600080fd5b60016001607f1b03608084901c16600160701b617fff0281111561169157600080fd5b6001600160801b03198581169085161415806116bd5750600160701b617fff02826001600160801b0316105b6116c657600080fd5b6001600160801b031985811690851614156116e6576000925050506106e3565b60006001607f1b8660801c6001600160801b03161015905060006001607f1b8660801c6001600160801b031610159050811561175157801561174257826001600160801b0316846001600160801b031611611742576001611746565b6000195b9450505050506106e3565b80156117645760019450505050506106e3565b826001600160801b0316846001600160801b03161161178557600019611746565b60019450505050506106e3565b600082826040516020016117a79291906124da565b60405160208183030381529060405280519060200120905092915050565b6000818152606f60209081526040808320546001600160a01b0316808452606d9092528220548514801561181357506001600160a01b0381166000908152606d602052604090206001015484145b1561182257600191505061098d565b600091505061098d565b3390565b303b1590565b6001600160a01b03811661185f57604051600160e51b62461bcd0281526004016105cb9061277f565b6033546040516001600160a01b038084169216907f8be0079c531659141344cd1fd0a4f28419497f9722a3daafe3b4186f6b6457e090600090a3603380546001600160a01b0319166001600160a01b0392909216919091179055565b6000806060604051806020016118d090611a6a565b601f1982820381018352601f90910116604052905060006118f18686611792565b9050808251602084016000f59250823b61190a57600080fd5b5090949350505050565b600080821161192257600080fd5b6000600160801b831061193757608092831c92015b68010000000000000000831061194f57604092831c92015b640100000000831061196357602092831c92015b62010000831061197557601092831c92015b610100831061198657600892831c92015b6010831061199657600492831c92015b600483106119a657600292831c92015b600283106106e35760010192915050565b828054600181600116156101000203166002900490600052602060002090601f016020900481019282601f106119f85782800160ff19823516178555611a25565b82800160010185558215611a25579182015b82811115611a25578235825591602001919060010190611a0a565b50611a31929150611a77565b5090565b6040805160c081018252600080825260208201819052918101829052606081018290526080810182905260a081019190915290565b6109a6806128d683390190565b6107a591905b80821115611a315760008155600101611a7d565b600061098d823561282f565b600061098d825161282f565b600061098d825161283a565b600061098d823561284c565b600061098d82356107a5565b600061098d82516107a5565b600082601f830112611aea57600080fd5b8135611afd611af8826127f4565b6127cd565b91508082526020830160208301858383011115611b1957600080fd5b611b2483828461287c565b50505092915050565b60008083601f840112611b3f57600080fd5b50813567ffffffffffffffff811115611b5757600080fd5b602083019150836001820283011115611b6f57600080fd5b9250929050565b600060208284031215611b8857600080fd5b60006109a68484611a91565b600060208284031215611ba657600080fd5b60006109a68484611a9d565b60008060008060008060c08789031215611bcb57600080fd5b6000611bd78989611a91565b9650506020611be889828a01611a91565b9550506040611bf989828a01611a91565b9450506060611c0a89828a01611a91565b9350506080611c1b89828a01611a91565b92505060a0611c2c89828a01611a91565b9150509295509295509295565b60008060008060008060c08789031215611c5257600080fd5b6000611c5e8989611a91565b9650506020611c6f89828a01611a91565b9550506040611c8089828a01611ac1565b9450506060611c9189828a01611ac1565b9350506080611ca289828a01611ac1565b92505060a0611c2c89828a01611ac1565b60008060408385031215611cc657600080fd5b6000611cd28585611a91565b925050602083013567ffffffffffffffff811115611cef57600080fd5b611cfb85828601611ad9565b9150509250929050565b600060208284031215611d1757600080fd5b60006109a68484611aa9565b600060208284031215611d3557600080fd5b60006109a68484611ac1565b60008060008060808587031215611d5757600080fd5b6000611d638787611ac1565b9450506020611d7487828801611ab5565b9350506040611d8587828801611a91565b9250506060611d9687828801611a91565b91505092959194509250565b60008060408385031215611db557600080fd5b6000611dc18585611ac1565b9250506020611cfb85828601611ac1565b60008060408385031215611de557600080fd5b6000611df18585611acd565b9250506020611cfb85828601611acd565b600080600060608486031215611e1757600080fd5b6000611e238686611ac1565b9350506020611e3486828701611ac1565b9250506040611e4586828701611ac1565b9150509250925092565b600080600060408486031215611e6457600080fd5b6000611e708686611ac1565b935050602084013567ffffffffffffffff811115611e8d57600080fd5b611e9986828701611b2d565b92509250509250925092565b600080600080600060608688031215611ebd57600080fd5b853567ffffffffffffffff811115611ed457600080fd5b611ee088828901611b2d565b9550955050602086013567ffffffffffffffff811115611eff57600080fd5b611f0b88828901611b2d565b93509350506040611f1e88828901611ac1565b9150509295509295909350565b600060208284031215611f3d57600080fd5b60006109a68484611acd565b60008060408385031215611f5c57600080fd5b6000611f688585611ac1565b9250506020611cfb85828601611a91565b60008060008060808587031215611f8f57600080fd5b6000611f9b8787611ac1565b9450506020611fac87828801611a91565b9350506040611fbd87828801611a91565b925050606085013567ffffffffffffffff811115611fda57600080fd5b611d9687828801611ad9565b600080600080600060a08688031215611ffe57600080fd5b600061200a8888611ac1565b955050602061201b88828901611a91565b945050604061202c88828901611a91565b935050606086013567ffffffffffffffff81111561204957600080fd5b61205588828901611ad9565b925050608086013567ffffffffffffffff81111561207257600080fd5b611f1e88828901611ad9565b600061208a83836120ad565b505060200190565b600061098d83836121be565b6120a78161286b565b82525050565b6120a78161282f565b6120a76120c28261282f565b6128b4565b60006120d282612822565b6120dc8185612826565b93506120e78361281c565b60005b82811015612112576120fd86835161207e565b95506121088261281c565b91506001016120ea565b5093949350505050565b600061212782612822565b6121318185612826565b9350836020820285016121438561281c565b60005b8481101561217a57838303885261215e838351612092565b92506121698261281c565b602098909801979150600101612146565b50909695505050505050565b6120a78161283a565b6120a78161284c565b6120a76121a48261283f565b6107a5565b6120a7816107a5565b6120a76121a4826107a5565b60006121c982612822565b6121d38185612826565b93506121e3818560208601612888565b6121ec816128c5565b9093019392505050565b600061220182612822565b61220b81856107f9565b935061221b818560208601612888565b9290920192915050565b60006122318385612826565b935061223e83858461287c565b6121ec836128c5565b600061225383856107f9565b935061226083858461287c565b50500190565b6000612273601c836107f9565b7f19457468657265756d205369676e6564204d6573736167653a0a3332000000008152601c0192915050565b60006122ac602683612826565b7f4f776e61626c653a206e6577206f776e657220697320746865207a65726f20618152600160d01b6564647265737302602082015260400192915050565b600160cb1b660acd2c286c2e6d029052565b6000612309601183612826565b7f496e76616c6964207369676e6174757265000000000000000000000000000000815260200192915050565b6000612342602083612826565b7f4f776e61626c653a2063616c6c6572206973206e6f7420746865206f776e6572815260200192915050565b600061237b602e83612826565b7f436f6e747261637420696e7374616e63652068617320616c726561647920626581527f656e20696e697469616c697a6564000000000000000000000000000000000000602082015260400192915050565b60006106e3600083612826565b805160c08301906123eb84826121a9565b5060208201516123fe60208501826121a9565b50604082015161241160408501826121a9565b50606082015161242460608501826121a9565b506080820151612437608085018261218f565b5060a082015161244a60a08501826120ad565b50505050565b6120a781612865565b60006124658287612198565b60018201915061247582866120b6565b60148201915061248582856121b2565b60208201915061249582846121b2565b50602001949350505050565b600061098d82846121f6565b60006109a6828486612247565b60006124c582612266565b91506124d182846121b2565b50602001919050565b60006124e682856121b2565b6020820191506124f682846120b6565b5060140192915050565b600061250c82886121b2565b60208201915061251c82876120b6565b60148201915061252c82866120b6565b60148201915061253c82856121f6565b915061254882846120b6565b5060140195945050505050565b602081016106e382846120ad565b602081016106e3828461209e565b6080810161257f82876120ad565b61258c60208301866120ad565b61259960408301856121a9565b61073360608301846121a9565b606081016125b482866120ad565b6125c160208301856120ad565b81810360408301526109a381846121be565b6020808252810161098d81846120c7565b6020808252810161098d818461211c565b602081016106e38284612186565b602081016106e3828461218f565b602081016106e382846121a9565b60c0810161262d82896121a9565b61263a60208301886121a9565b61264760408301876120ad565b61265460608301866120ad565b61266160808301856120ad565b61266e60a08301846120ad565b979650505050505050565b6060810161268782866121a9565b61269460208301856121a9565b6109a660408301846121a9565b608081016126af82876121a9565b6126bc60208301866121a9565b6126c960408301856121a9565b61073360608301846120ad565b608081016126e482896121a9565b6126f160208301886121a9565b8181036040830152612704818688612225565b90508181036060830152612719818486612225565b98975050505050505050565b6040810161273382846121a9565b6106e3602083016122ea565b6080810161274d82876121a9565b61258c6020830186612450565b6040808252810161276c818486612225565b905081810360208301526109a6816123cd565b602080825281016106e38161229f565b602080825281016106e3816122fc565b602080825281016106e381612335565b602080825281016106e38161236e565b60c081016106e382846123da565b60405181810167ffffffffffffffff811182821017156127ec57600080fd5b604052919050565b600067ffffffffffffffff82111561280b57600080fd5b506020601f91909101601f19160190565b60200190565b5190565b90815260200190565b60006106e382612859565b151590565b6001600160f81b03191690565b6001600160801b03191690565b6001600160a01b031690565b60ff1690565b60006106e38260006106e38261282f565b82818337506000910152565b60005b838110156128a357818101518382015260200161288b565b8381111561244a5750506000910152565b60006106e38260006106e3826128cf565b601f01601f191690565b60601b9056fe608060405234801561001057600080fd5b50610986806100206000396000f3fe6080604052600436106100705760003560e01c80638f2839701161004e5780638f2839701461015e578063cf7a1d7714610191578063d1f5789414610250578063f851a4401461030657610070565b80633659cfe61461007a5780634f1ef286146100ad5780635c60da1b1461012d575b61007861031b565b005b34801561008657600080fd5b506100786004803603602081101561009d57600080fd5b50356001600160a01b0316610335565b610078600480360360408110156100c357600080fd5b6001600160a01b0382351691908101906040810160208201356401000000008111156100ee57600080fd5b82018360208201111561010057600080fd5b8035906020019184600183028401116401000000008311171561012257600080fd5b50909250905061036f565b34801561013957600080fd5b5061014261041c565b604080516001600160a01b039092168252519081900360200190f35b34801561016a57600080fd5b506100786004803603602081101561018157600080fd5b50356001600160a01b0316610459565b610078600480360360608110156101a757600080fd5b6001600160a01b0382358116926020810135909116918101906060810160408201356401000000008111156101db57600080fd5b8201836020820111156101ed57600080fd5b8035906020019184600183028401116401000000008311171561020f57600080fd5b91908080601f016020809104026020016040519081016040528093929190818152602001838380828437600092019190915250929550610516945050505050565b6100786004803603604081101561026657600080fd5b6001600160a01b03823516919081019060408101602082013564010000000081111561029157600080fd5b8201836020820111156102a357600080fd5b803590602001918460018302840111640100000000831117156102c557600080fd5b91908080601f0160208091040260200160405190810160405280939291908181526020018383808284376000920191909152509295506105a6945050505050565b34801561031257600080fd5b506101426106e6565b610323610711565b61033361032e610774565b610799565b565b61033d6107bd565b6001600160a01b0316336001600160a01b031614156103645761035f816107e2565b61036c565b61036c61031b565b50565b6103776107bd565b6001600160a01b0316336001600160a01b0316141561040f57610399836107e2565b6000836001600160a01b031683836040518083838082843760405192019450600093509091505080830381855af49150503d80600081146103f6576040519150601f19603f3d011682016040523d82523d6000602084013e6103fb565b606091505b505090508061040957600080fd5b50610417565b61041761031b565b505050565b60006104266107bd565b6001600160a01b0316336001600160a01b0316141561044e57610447610774565b9050610456565b61045661031b565b90565b6104616107bd565b6001600160a01b0316336001600160a01b03161415610364576001600160a01b0381166104c257604051600160e51b62461bcd0281526004018080602001828103825260368152602001806108ea6036913960400191505060405180910390fd5b7f7e644d79422f17c01e4894b5f4f588d331ebfa28653d42ae832dc59e38c9798f6104eb6107bd565b604080516001600160a01b03928316815291841660208301528051918290030190a161035f81610822565b6000610520610774565b6001600160a01b03161461053357600080fd5b61053d83826105a6565b604080517f656970313936372e70726f78792e61646d696e00000000000000000000000000815290519081900360130190207fb53127684a568b3173ae13b9f8a6016e243e63b6e8ee1178d6a717850b5d61036000199091011461059d57fe5b61041782610822565b60006105b0610774565b6001600160a01b0316146105c357600080fd5b604080517f656970313936372e70726f78792e696d706c656d656e746174696f6e000000008152905190819003601c0190207f360894a13ba1a3210667c828492db98dca3e2076cc3735a920a3ca505d382bbc6000199091011461062357fe5b61062c82610846565b8051156106e2576000826001600160a01b0316826040518082805190602001908083835b6020831061066f5780518252601f199092019160209182019101610650565b6001836020036101000a038019825116818451168082178552505050505050905001915050600060405180830381855af49150503d80600081146106cf576040519150601f19603f3d011682016040523d82523d6000602084013e6106d4565b606091505b505090508061041757600080fd5b5050565b60006106f06107bd565b6001600160a01b0316336001600160a01b0316141561044e576104476107bd565b6107196107bd565b6001600160a01b0316336001600160a01b0316141561076c57604051600160e51b62461bcd0281526004018080602001828103825260328152602001806108b86032913960400191505060405180910390fd5b610333610333565b7f360894a13ba1a3210667c828492db98dca3e2076cc3735a920a3ca505d382bbc5490565b3660008037600080366000845af43d6000803e8080156107b8573d6000f35b3d6000fd5b7fb53127684a568b3173ae13b9f8a6016e243e63b6e8ee1178d6a717850b5d61035490565b6107eb81610846565b6040516001600160a01b038216907fbc7cd75a20ee27fd9adebab32041f755214dbc6bffa90cc0225b39da2e5c2d3b90600090a250565b7fb53127684a568b3173ae13b9f8a6016e243e63b6e8ee1178d6a717850b5d610355565b61084f816108b1565b61088d57604051600160e51b62461bcd02815260040180806020018281038252603b815260200180610920603b913960400191505060405180910390fd5b7f360894a13ba1a3210667c828492db98dca3e2076cc3735a920a3ca505d382bbc55565b3b15159056fe43616e6e6f742063616c6c2066616c6c6261636b2066756e6374696f6e2066726f6d207468652070726f78792061646d696e43616e6e6f74206368616e6765207468652061646d696e206f6620612070726f787920746f20746865207a65726f206164647265737343616e6e6f742073657420612070726f787920696d706c656d656e746174696f6e20746f2061206e6f6e2d636f6e74726163742061646472657373a165627a7a72305820acd86240912c703ba88ccefef3db77e88d3507353c7c194b0b27eed571ae96c90029a265627a7a72305820bb5da0562f3b87d5e71111539f3858e7d8e596d558cc8a6b3214810494cdc12c6c6578706572696d656e74616cf50037608060405234801561001057600080fd5b50610986806100206000396000f3fe6080604052600436106100705760003560e01c80638f2839701161004e5780638f2839701461015e578063cf7a1d7714610191578063d1f5789414610250578063f851a4401461030657610070565b80633659cfe61461007a5780634f1ef286146100ad5780635c60da1b1461012d575b61007861031b565b005b34801561008657600080fd5b506100786004803603602081101561009d57600080fd5b50356001600160a01b0316610335565b610078600480360360408110156100c357600080fd5b6001600160a01b0382351691908101906040810160208201356401000000008111156100ee57600080fd5b82018360208201111561010057600080fd5b8035906020019184600183028401116401000000008311171561012257600080fd5b50909250905061036f565b34801561013957600080fd5b5061014261041c565b604080516001600160a01b039092168252519081900360200190f35b34801561016a57600080fd5b506100786004803603602081101561018157600080fd5b50356001600160a01b0316610459565b610078600480360360608110156101a757600080fd5b6001600160a01b0382358116926020810135909116918101906060810160408201356401000000008111156101db57600080fd5b8201836020820111156101ed57600080fd5b8035906020019184600183028401116401000000008311171561020f57600080fd5b91908080601f016020809104026020016040519081016040528093929190818152602001838380828437600092019190915250929550610516945050505050565b6100786004803603604081101561026657600080fd5b6001600160a01b03823516919081019060408101602082013564010000000081111561029157600080fd5b8201836020820111156102a357600080fd5b803590602001918460018302840111640100000000831117156102c557600080fd5b91908080601f0160208091040260200160405190810160405280939291908181526020018383808284376000920191909152509295506105a6945050505050565b34801561031257600080fd5b506101426106e6565b610323610711565b61033361032e610774565b610799565b565b61033d6107bd565b6001600160a01b0316336001600160a01b031614156103645761035f816107e2565b61036c565b61036c61031b565b50565b6103776107bd565b6001600160a01b0316336001600160a01b0316141561040f57610399836107e2565b6000836001600160a01b031683836040518083838082843760405192019450600093509091505080830381855af49150503d80600081146103f6576040519150601f19603f3d011682016040523d82523d6000602084013e6103fb565b606091505b505090508061040957600080fd5b50610417565b61041761031b565b505050565b60006104266107bd565b6001600160a01b0316336001600160a01b0316141561044e57610447610774565b9050610456565b61045661031b565b90565b6104616107bd565b6001600160a01b0316336001600160a01b03161415610364576001600160a01b0381166104c257604051600160e51b62461bcd0281526004018080602001828103825260368152602001806108ea6036913960400191505060405180910390fd5b7f7e644d79422f17c01e4894b5f4f588d331ebfa28653d42ae832dc59e38c9798f6104eb6107bd565b604080516001600160a01b03928316815291841660208301528051918290030190a161035f81610822565b6000610520610774565b6001600160a01b03161461053357600080fd5b61053d83826105a6565b604080517f656970313936372e70726f78792e61646d696e00000000000000000000000000815290519081900360130190207fb53127684a568b3173ae13b9f8a6016e243e63b6e8ee1178d6a717850b5d61036000199091011461059d57fe5b61041782610822565b60006105b0610774565b6001600160a01b0316146105c357600080fd5b604080517f656970313936372e70726f78792e696d706c656d656e746174696f6e000000008152905190819003601c0190207f360894a13ba1a3210667c828492db98dca3e2076cc3735a920a3ca505d382bbc6000199091011461062357fe5b61062c82610846565b8051156106e2576000826001600160a01b0316826040518082805190602001908083835b6020831061066f5780518252601f199092019160209182019101610650565b6001836020036101000a038019825116818451168082178552505050505050905001915050600060405180830381855af49150503d80600081146106cf576040519150601f19603f3d011682016040523d82523d6000602084013e6106d4565b606091505b505090508061041757600080fd5b5050565b60006106f06107bd565b6001600160a01b0316336001600160a01b0316141561044e576104476107bd565b6107196107bd565b6001600160a01b0316336001600160a01b0316141561076c57604051600160e51b62461bcd0281526004018080602001828103825260328152602001806108b86032913960400191505060405180910390fd5b610333610333565b7f360894a13ba1a3210667c828492db98dca3e2076cc3735a920a3ca505d382bbc5490565b3660008037600080366000845af43d6000803e8080156107b8573d6000f35b3d6000fd5b7fb53127684a568b3173ae13b9f8a6016e243e63b6e8ee1178d6a717850b5d61035490565b6107eb81610846565b6040516001600160a01b038216907fbc7cd75a20ee27fd9adebab32041f755214dbc6bffa90cc0225b39da2e5c2d3b90600090a250565b7fb53127684a568b3173ae13b9f8a6016e243e63b6e8ee1178d6a717850b5d610355565b61084f816108b1565b61088d57604051600160e51b62461bcd02815260040180806020018281038252603b815260200180610920603b913960400191505060405180910390fd5b7f360894a13ba1a3210667c828492db98dca3e2076cc3735a920a3ca505d382bbc55565b3b15159056fe43616e6e6f742063616c6c2066616c6c6261636b2066756e6374696f6e2066726f6d207468652070726f78792061646d696e43616e6e6f74206368616e6765207468652061646d696e206f6620612070726f787920746f20746865207a65726f206164647265737343616e6e6f742073657420612070726f787920696d706c656d656e746174696f6e20746f2061206e6f6e2d636f6e74726163742061646472657373a165627a7a72305820acd86240912c703ba88ccefef3db77e88d3507353c7c194b0b27eed571ae96c90029",
  "source": "// Registry of registered securities\r\n// (c) Kallol Borah, 2021\r\n\r\npragma solidity 0.5.7;\r\npragma experimental ABIEncoderV2;\r\n\r\nimport \"../interfaces/ISecuritiesRegistry.sol\";\r\nimport \"../interfaces/IPoolFactory.sol\";\r\nimport \"../interfaces/ViaFactory.sol\";\r\nimport \"../interfaces/VerifiedClient.sol\";\r\nimport \"../interfaces/VerifiedIssues.sol\";\r\nimport \"../utilities/StringUtils.sol\";\r\nimport \"abdk-libraries-solidity/ABDKMathQuad.sol\";\r\nimport \"@openzeppelin/upgrades/contracts/Initializable.sol\";\r\nimport \"@openzeppelin/upgrades/contracts/upgradeability/ProxyFactory.sol\";\r\nimport \"@openzeppelin/contracts-ethereum-package/contracts/ownership/Ownable.sol\";\r\nimport \"@openzeppelin/contracts-ethereum-package/contracts/token/ERC20/IERC20.sol\";\r\n\r\ncontract SecuritiesRegistry is Initializable, Ownable, ProxyFactory, ISecuritiesRegistry{\r\n\r\n    using ABDKMathQuad for bytes16;\r\n    using stringutils for *;\r\n\r\n    ViaFactory private via;\r\n\r\n    address poolFactory;\r\n    address preTradeContract;\r\n    address tradeContract;\r\n    address postTradeContract;\r\n    address clientContract;\r\n\r\n    //mapping security token to security details\r\n    mapping(address => security) private securityTokens;\r\n\r\n    //array of security tokens\r\n    address[] private tokens;\r\n\r\n    //mapping of isin to security token\r\n    mapping(bytes32 => address) private securityToken;\r\n\r\n    //mapping of security token to corporate action category to corporate actions in the category\r\n    mapping(address => mapping(string => string[])) private corporateActions;\r\n\r\n    //mapping company to credit score\r\n    mapping(bytes32 => bytes32) private creditScore;\r\n\r\n    //mapping users to their investments\r\n    mapping(address => address[]) private investments;\r\n    \r\n    //event signalling creation of a security token\r\n    event SecurityCreated(address indexed security, bytes32 company, bytes32 isin, bytes32 currency, address issuer);\r\n    //event signalling corporate action\r\n    event CorporateActionCreated(address indexed security, bytes32 company, bytes32 isin, string category, string action);\r\n    //event signalling credit score report\r\n    event ReportCreditScore(bytes32 company, bytes32 isin, bytes32 score);\r\n\r\n    function initialize(address _viaFactory, address _poolFactory, address _preTradeContract, address _tradeContract, address _postTradeContract, address _clientContract) public initializer{\r\n        Ownable.initialize(msg.sender);\r\n        via = ViaFactory(_viaFactory);\r\n        poolFactory = _poolFactory;\r\n        preTradeContract = _preTradeContract;\r\n        tradeContract = _tradeContract;\r\n        postTradeContract = _postTradeContract;\r\n        clientContract = _clientContract;\r\n    }\r\n\r\n    function createSecurity(address _issuer, address _security, bytes32 _currency, bytes32 _company, bytes32 _isin, bytes32 _settlementBy) external {\r\n        require(msg.sender==preTradeContract || VerifiedIssues(msg.sender).getOwner()==owner());\r\n        address cash = via.getTokenByNameType(_currency, \"ViaCash\");\r\n        require(cash!=address(0x0));\r\n        \r\n        if(!isRegistered(_company, _currency, _isin)){\r\n            bytes memory _payload = abi.encodeWithSignature(\"initialize(bytes32,bytes32,address,address,address,address)\", _company, _isin, preTradeContract, tradeContract, postTradeContract, clientContract);\r\n\r\n            address _token = deployMinimal(_security, _payload);\r\n            emit SecurityCreated(_token, _company, _isin, _currency, _issuer);\r\n\r\n            securityTokens[_token] = security(_company, _currency, _isin, \"none\", ABDKMathQuad.fromUInt(0), _issuer);\r\n            securityToken[_isin] = _token;\r\n            tokens.push(_token);\r\n\r\n            IPoolFactory(poolFactory).createPool(_token, cash, _currency, _settlementBy);\r\n        }\r\n    }\r\n\r\n    function isRegistered(bytes32 _company, bytes32 _currency, bytes32 _isin) private view returns(bool){\r\n        address stoken = securityToken[_isin];\r\n        if( securityTokens[stoken].company==_company &&\r\n                securityTokens[stoken].currency==_currency)\r\n            return true;\r\n        else\r\n            return false;\r\n    }\r\n\r\n    function getToken(bytes32 _currency, bytes32 _company, bytes32 _isin) external view returns(address){\r\n        address stoken = securityToken[_isin];\r\n        if( securityTokens[stoken].company==_company &&\r\n                securityTokens[stoken].currency==_currency)\r\n            return stoken;\r\n    }\r\n\r\n    function getSecuritiesIssued() external view returns(address[] memory){\r\n        return tokens;\r\n    }\r\n\r\n    function getSecuritiesInvested() external view returns(address[] memory){\r\n        return (investments[msg.sender]);\r\n    }\r\n\r\n    function getSecurityDetails(address _securityToken) external view returns(security memory){\r\n        return securityTokens[_securityToken];\r\n    }\r\n\r\n    function isIsinPresent(bytes32 _isin) external returns(bool){\r\n        address stoken = securityToken[_isin];\r\n        if( stoken != address(0x0))\r\n            return true;\r\n        else\r\n            return false;\r\n    }\r\n\r\n    function registerCorporateAction(string calldata _category, string calldata _action, bytes32 _isin) external{\r\n        //only company or a DP/registrar can report corporate action\r\n        require(_isin!=\"\" && bytes(_category).length!=0 && stringutils.equal(_action,\"\"));\r\n        (bytes32 role, ) = VerifiedClient(clientContract).getRole(msg.sender);\r\n        address stoken = securityToken[_isin];\r\n        if(stoken!=address(0x0)){\r\n            if( securityTokens[stoken].isin==_isin && \r\n                (securityTokens[stoken].issuer==msg.sender || role==\"DP\")){\r\n                corporateActions[stoken][_category].push(_action);\r\n                emit CorporateActionCreated(stoken, \r\n                                    securityTokens[stoken].company, \r\n                                    securityTokens[stoken].isin, \r\n                                    _category, _action);\r\n            }\r\n        }\r\n    }\r\n\r\n    function registerCreditScore(bytes32 _company, bytes32 _isin, bytes32 _score) onlyOwner external {\r\n        //only verified admin can report credit score\r\n        require((_company!=\"\" || _isin!=\"\") && _score!=\"\");\r\n        if(_isin==\"\")\r\n            creditScore[_company] = _score;\r\n        else if (_isin!=\"\"){\r\n            address stoken = securityToken[_isin];\r\n            securityTokens[stoken].creditScore = _score; \r\n        }\r\n        emit ReportCreditScore(_company, _isin, _score);\r\n    }\r\n\r\n    function registerPrice(bytes32 _isin, bytes16 _price, address _transferor, address _transferee) external {\r\n        //only post trade contract can report price\r\n        require(msg.sender==postTradeContract);\r\n        require(_isin!=\"\" && ABDKMathQuad.cmp(_price, ABDKMathQuad.fromUInt(0))>0);\r\n        address stoken = securityToken[_isin];\r\n        if(stoken!=address(0x0)){\r\n            securityTokens[stoken].price==_price;\r\n            investments[_transferee].push(stoken);\r\n            uint256 balance = IERC20(stoken).balanceOf(_transferor);\r\n            if(balance>0)\r\n                investments[_transferor].push(stoken);\r\n        }\r\n    }\r\n\r\n    function getCorporateActions(bytes32 _isin, string calldata _category) external view returns(string[] memory){\r\n        require(_isin!=\"\" && bytes(_category).length!=0);\r\n        address stoken = securityToken[_isin];\r\n        if(stoken!=address(0x0))\r\n            return corporateActions[stoken][_category];\r\n    }\r\n\r\n    function getCreditScore(bytes32 _isin, bytes32 _company) external view returns(bytes32){\r\n        require(_company!=\"\" || _isin!=\"\");\r\n        if(_isin==\"\")\r\n            return (creditScore[_company]);\r\n        else if (_isin!=\"\"){\r\n            address stoken = securityToken[_isin];\r\n            return (securityTokens[stoken].creditScore); \r\n        }\r\n    }\r\n\r\n    function getPrice(bytes32 _isin) external view returns(bytes16){\r\n        require(_isin!=\"\");\r\n        address stoken = securityToken[_isin];\r\n        if(stoken!=address(0x0))\r\n            return (securityTokens[stoken].price);\r\n    }\r\n\r\n}",
  "sourcePath": "D:\\Code\\verified-trades\\contracts\\registry\\SecuritiesRegistry.sol",
  "compiler": {
    "name": "solc",
    "version": "0.5.7+commit.6da8b019.Emscripten.clang"
  },
  "schemaVersion": "3.4.3",
  "updatedAt": "2022-02-19T08:19:00.616Z",
  "networkType": "ethereum",
  "devdoc": {
    "methods": {
      "initialize(address)": {
        "details": "Initializes the contract setting the deployer as the initial owner."
      },
      "isOwner()": {
        "details": "Returns true if the caller is the current owner."
      },
      "owner()": {
        "details": "Returns the address of the current owner."
      },
      "renounceOwnership()": {
        "details": "Leaves the contract without owner. It will not be possible to call `onlyOwner` functions anymore. Can only be called by the current owner.     * > Note: Renouncing ownership will leave the contract without an owner, thereby removing any functionality that is only available to the owner."
      },
      "transferOwnership(address)": {
        "details": "Transfers ownership of the contract to a new account (`newOwner`). Can only be called by the current owner."
      }
    }
  },
  "userdoc": {
    "methods": {}
  }
}