{
  "contractName": "Security",
  "abi": [
    {
      "constant": true,
      "inputs": [],
      "name": "name",
      "outputs": [
        {
          "name": "",
          "type": "string"
        }
      ],
      "payable": false,
      "stateMutability": "view",
      "type": "function"
    },
    {
      "constant": false,
      "inputs": [
        {
          "name": "spender",
          "type": "address"
        },
        {
          "name": "amount",
          "type": "uint256"
        }
      ],
      "name": "approve",
      "outputs": [
        {
          "name": "",
          "type": "bool"
        }
      ],
      "payable": false,
      "stateMutability": "nonpayable",
      "type": "function"
    },
    {
      "constant": true,
      "inputs": [],
      "name": "totalSupply",
      "outputs": [
        {
          "name": "",
          "type": "uint256"
        }
      ],
      "payable": false,
      "stateMutability": "view",
      "type": "function"
    },
    {
      "constant": false,
      "inputs": [
        {
          "name": "spender",
          "type": "address"
        },
        {
          "name": "addedValue",
          "type": "uint256"
        }
      ],
      "name": "increaseAllowance",
      "outputs": [
        {
          "name": "",
          "type": "bool"
        }
      ],
      "payable": false,
      "stateMutability": "nonpayable",
      "type": "function"
    },
    {
      "constant": true,
      "inputs": [
        {
          "name": "account",
          "type": "address"
        }
      ],
      "name": "balanceOf",
      "outputs": [
        {
          "name": "",
          "type": "uint256"
        }
      ],
      "payable": false,
      "stateMutability": "view",
      "type": "function"
    },
    {
      "constant": false,
      "inputs": [],
      "name": "renounceOwnership",
      "outputs": [],
      "payable": false,
      "stateMutability": "nonpayable",
      "type": "function"
    },
    {
      "constant": true,
      "inputs": [],
      "name": "owner",
      "outputs": [
        {
          "name": "",
          "type": "address"
        }
      ],
      "payable": false,
      "stateMutability": "view",
      "type": "function"
    },
    {
      "constant": true,
      "inputs": [],
      "name": "isOwner",
      "outputs": [
        {
          "name": "",
          "type": "bool"
        }
      ],
      "payable": false,
      "stateMutability": "view",
      "type": "function"
    },
    {
      "constant": true,
      "inputs": [],
      "name": "symbol",
      "outputs": [
        {
          "name": "",
          "type": "string"
        }
      ],
      "payable": false,
      "stateMutability": "view",
      "type": "function"
    },
    {
      "constant": false,
      "inputs": [
        {
          "name": "spender",
          "type": "address"
        },
        {
          "name": "subtractedValue",
          "type": "uint256"
        }
      ],
      "name": "decreaseAllowance",
      "outputs": [
        {
          "name": "",
          "type": "bool"
        }
      ],
      "payable": false,
      "stateMutability": "nonpayable",
      "type": "function"
    },
    {
      "constant": false,
      "inputs": [
        {
          "name": "recipient",
          "type": "address"
        },
        {
          "name": "amount",
          "type": "uint256"
        }
      ],
      "name": "transfer",
      "outputs": [
        {
          "name": "",
          "type": "bool"
        }
      ],
      "payable": false,
      "stateMutability": "nonpayable",
      "type": "function"
    },
    {
      "constant": true,
      "inputs": [
        {
          "name": "owner",
          "type": "address"
        },
        {
          "name": "spender",
          "type": "address"
        }
      ],
      "name": "allowance",
      "outputs": [
        {
          "name": "",
          "type": "uint256"
        }
      ],
      "payable": false,
      "stateMutability": "view",
      "type": "function"
    },
    {
      "constant": false,
      "inputs": [
        {
          "name": "newOwner",
          "type": "address"
        }
      ],
      "name": "transferOwnership",
      "outputs": [],
      "payable": false,
      "stateMutability": "nonpayable",
      "type": "function"
    },
    {
      "anonymous": false,
      "inputs": [
        {
          "indexed": true,
          "name": "from",
          "type": "address"
        },
        {
          "indexed": true,
          "name": "to",
          "type": "address"
        },
        {
          "indexed": false,
          "name": "value",
          "type": "uint256"
        }
      ],
      "name": "Transfer",
      "type": "event"
    },
    {
      "anonymous": false,
      "inputs": [
        {
          "indexed": true,
          "name": "owner",
          "type": "address"
        },
        {
          "indexed": true,
          "name": "spender",
          "type": "address"
        },
        {
          "indexed": false,
          "name": "value",
          "type": "uint256"
        }
      ],
      "name": "Approval",
      "type": "event"
    },
    {
      "anonymous": false,
      "inputs": [
        {
          "indexed": true,
          "name": "previousOwner",
          "type": "address"
        },
        {
          "indexed": true,
          "name": "newOwner",
          "type": "address"
        }
      ],
      "name": "OwnershipTransferred",
      "type": "event"
    },
    {
      "constant": false,
      "inputs": [
        {
          "name": "_company",
          "type": "bytes32"
        },
        {
          "name": "_isin",
          "type": "bytes32"
        },
        {
          "name": "_preTradeContract",
          "type": "address"
        },
        {
          "name": "_tradeContract",
          "type": "address"
        },
        {
          "name": "_postTradeContract",
          "type": "address"
        }
      ],
      "name": "initialize",
      "outputs": [],
      "payable": false,
      "stateMutability": "nonpayable",
      "type": "function"
    },
    {
      "constant": false,
      "inputs": [
        {
          "name": "sender",
          "type": "address"
        }
      ],
      "name": "initialize",
      "outputs": [],
      "payable": false,
      "stateMutability": "nonpayable",
      "type": "function"
    },
    {
      "constant": false,
      "inputs": [
        {
          "name": "_transferor",
          "type": "address"
        },
        {
          "name": "_transferee",
          "type": "address"
        },
        {
          "name": "_qty",
          "type": "uint256"
        }
      ],
      "name": "transferFrom",
      "outputs": [
        {
          "name": "",
          "type": "bool"
        }
      ],
      "payable": false,
      "stateMutability": "nonpayable",
      "type": "function"
    },
    {
      "constant": false,
      "inputs": [
        {
          "name": "_account",
          "type": "address"
        },
        {
          "name": "_amount",
          "type": "uint256"
        }
      ],
      "name": "mint",
      "outputs": [],
      "payable": false,
      "stateMutability": "nonpayable",
      "type": "function"
    }
  ],
  "bytecode": "0x60806040526110f3806100136000396000f3fe608060405234801561001057600080fd5b506004361061010b5760003560e01c8063715018a6116100a2578063a457c2d711610071578063a457c2d71461031d578063a9059cbb14610349578063c4d66de814610375578063dd62ed3e1461039b578063f2fde38b146103c95761010b565b8063715018a6146102e15780638da5cb5b146102e95780638f32d59b1461030d57806395d89b41146103155761010b565b806339509351116100de578063395093511461021d57806340c10f1914610249578063464997701461027757806370a08231146102bb5761010b565b806306fdde0314610110578063095ea7b31461018d57806318160ddd146101cd57806323b872dd146101e7575b600080fd5b6101186103ef565b6040805160208082528351818301528351919283929083019185019080838360005b8381101561015257818101518382015260200161013a565b50505050905090810190601f16801561017f5780820380516001836020036101000a031916815260200191505b509250505060405180910390f35b6101b9600480360360408110156101a357600080fd5b506001600160a01b03813516906020013561047d565b604080519115158252519081900360200190f35b6101d561049a565b60408051918252519081900360200190f35b6101b9600480360360608110156101fd57600080fd5b506001600160a01b038135811691602081013590911690604001356104a1565b6101b96004803603604081101561023357600080fd5b506001600160a01b0381351690602001356104e3565b6102756004803603604081101561025f57600080fd5b506001600160a01b03813516906020013561053c565b005b610275600480360360a081101561028d57600080fd5b508035906020810135906001600160a01b036040820135811691606081013582169160809091013516610561565b6101d5600480360360208110156102d157600080fd5b50356001600160a01b03166106b1565b6102756106cc565b6102f1610772565b604080516001600160a01b039092168252519081900360200190f35b6101b9610781565b6101186107a7565b6101b96004803603604081101561033357600080fd5b506001600160a01b038135169060200135610802565b6101b96004803603604081101561035f57600080fd5b506001600160a01b038135169060200135610870565b6102756004803603602081101561038b57600080fd5b50356001600160a01b0316610884565b6101d5600480360360408110156103b157600080fd5b506001600160a01b0381358116916020013516610978565b610275600480360360208110156103df57600080fd5b50356001600160a01b03166109a3565b609b805460408051602060026001851615610100026000190190941693909304601f810184900484028201840190925281815292918301828280156104755780601f1061044a57610100808354040283529160200191610475565b820191906000526020600020905b81548152906001019060200180831161045857829003601f168201915b505050505081565b600061049161048a610a0b565b8484610a0f565b50600192915050565b6068545b90565b609e546000906001600160a01b03163314806104c75750609f546001600160a01b031633145b6104d057600080fd5b6104db8484846104a1565b949350505050565b60006104916104f0610a0b565b846105378560676000610501610a0b565b6001600160a01b03908116825260208083019390935260409182016000908120918c16815292529020549063ffffffff610b0116565b610a0f565b609d546001600160a01b0316331461055357600080fd5b61055d8282610b65565b5050565b600054610100900460ff168061057a575061057a610c5a565b80610588575060005460ff16155b6105c657604051600160e51b62461bcd02815260040180806020018281038252602e81526020018061102c602e913960400191505060405180910390fd5b600054610100900460ff161580156105f1576000805460ff1961ff0019909116610100171660011790555b6105fa33610884565b6040805160208082018990528183018890528251808303840181526060909201909252805161062d92609b920190610f02565b50604080516020808201889052825180830382018152918301909252805161065992609c920190610f02565b50609d80546001600160a01b038087166001600160a01b031992831617909255609e8054868416908316179055609f80549285169290911691909117905580156106a9576000805461ff00191690555b505050505050565b6001600160a01b031660009081526066602052604090205490565b6106d4610781565b6107285760408051600160e51b62461bcd02815260206004820181905260248201527f4f776e61626c653a2063616c6c6572206973206e6f7420746865206f776e6572604482015290519081900360640190fd5b6033546040516000916001600160a01b0316907f8be0079c531659141344cd1fd0a4f28419497f9722a3daafe3b4186f6b6457e0908390a3603380546001600160a01b0319169055565b6033546001600160a01b031690565b6033546000906001600160a01b0316610798610a0b565b6001600160a01b031614905090565b609c805460408051602060026001851615610100026000190190941693909304601f810184900484028201840190925281815292918301828280156104755780601f1061044a57610100808354040283529160200191610475565b600061049161080f610a0b565b84610537856040518060600160405280602581526020016110a36025913960676000610839610a0b565b6001600160a01b03908116825260208083019390935260409182016000908120918d1681529252902054919063ffffffff610c6016565b600061049161087d610a0b565b8484610cfa565b600054610100900460ff168061089d575061089d610c5a565b806108ab575060005460ff16155b6108e957604051600160e51b62461bcd02815260040180806020018281038252602e81526020018061102c602e913960400191505060405180910390fd5b600054610100900460ff16158015610914576000805460ff1961ff0019909116610100171660011790555b603380546001600160a01b0319166001600160a01b0384811691909117918290556040519116906000907f8be0079c531659141344cd1fd0a4f28419497f9722a3daafe3b4186f6b6457e0908290a3801561055d576000805461ff00191690555050565b6001600160a01b03918216600090815260676020908152604080832093909416825291909152205490565b6109ab610781565b6109ff5760408051600160e51b62461bcd02815260206004820181905260248201527f4f776e61626c653a2063616c6c6572206973206e6f7420746865206f776e6572604482015290519081900360640190fd5b610a0881610e5e565b50565b3390565b6001600160a01b038316610a5757604051600160e51b62461bcd02815260040180806020018281038252602481526020018061107f6024913960400191505060405180910390fd5b6001600160a01b038216610a9f57604051600160e51b62461bcd028152600401808060200182810382526022815260200180610fe46022913960400191505060405180910390fd5b6001600160a01b03808416600081815260676020908152604080832094871680845294825291829020859055815185815291517f8c5be1e5ebec7d5bd14f71427d1e84f3dd0314c0f7b2291e5b200ac8c7c3b9259281900390910190a3505050565b600082820183811015610b5e5760408051600160e51b62461bcd02815260206004820152601b60248201527f536166654d6174683a206164646974696f6e206f766572666c6f770000000000604482015290519081900360640190fd5b9392505050565b6001600160a01b038216610bc35760408051600160e51b62461bcd02815260206004820152601f60248201527f45524332303a206d696e7420746f20746865207a65726f206164647265737300604482015290519081900360640190fd5b606854610bd6908263ffffffff610b0116565b6068556001600160a01b038216600090815260666020526040902054610c02908263ffffffff610b0116565b6001600160a01b03831660008181526066602090815260408083209490945583518581529351929391927fddf252ad1be2c89b69c2b068fc378daa952ba7f163c4a11628f55a4df523b3ef9281900390910190a35050565b303b1590565b60008184841115610cf257604051600160e51b62461bcd0281526004018080602001828103825283818151815260200191508051906020019080838360005b83811015610cb7578181015183820152602001610c9f565b50505050905090810190601f168015610ce45780820380516001836020036101000a031916815260200191505b509250505060405180910390fd5b505050900390565b6001600160a01b038316610d4257604051600160e51b62461bcd02815260040180806020018281038252602581526020018061105a6025913960400191505060405180910390fd5b6001600160a01b038216610d8a57604051600160e51b62461bcd028152600401808060200182810382526023815260200180610f9b6023913960400191505060405180910390fd5b610dcd81604051806060016040528060268152602001611006602691396001600160a01b038616600090815260666020526040902054919063ffffffff610c6016565b6001600160a01b038085166000908152606660205260408082209390935590841681522054610e02908263ffffffff610b0116565b6001600160a01b0380841660008181526066602090815260409182902094909455805185815290519193928716927fddf252ad1be2c89b69c2b068fc378daa952ba7f163c4a11628f55a4df523b3ef92918290030190a3505050565b6001600160a01b038116610ea657604051600160e51b62461bcd028152600401808060200182810382526026815260200180610fbe6026913960400191505060405180910390fd5b6033546040516001600160a01b038084169216907f8be0079c531659141344cd1fd0a4f28419497f9722a3daafe3b4186f6b6457e090600090a3603380546001600160a01b0319166001600160a01b0392909216919091179055565b828054600181600116156101000203166002900490600052602060002090601f016020900481019282601f10610f4357805160ff1916838001178555610f70565b82800160010185558215610f70579182015b82811115610f70578251825591602001919060010190610f55565b50610f7c929150610f80565b5090565b61049e91905b80821115610f7c5760008155600101610f8656fe45524332303a207472616e7366657220746f20746865207a65726f20616464726573734f776e61626c653a206e6577206f776e657220697320746865207a65726f206164647265737345524332303a20617070726f766520746f20746865207a65726f206164647265737345524332303a207472616e7366657220616d6f756e7420657863656564732062616c616e6365436f6e747261637420696e7374616e63652068617320616c7265616479206265656e20696e697469616c697a656445524332303a207472616e736665722066726f6d20746865207a65726f206164647265737345524332303a20617070726f76652066726f6d20746865207a65726f206164647265737345524332303a2064656372656173656420616c6c6f77616e63652062656c6f77207a65726fa165627a7a723058205c4c1fd5b2a4aa8a8a33130d452b54d1ab4e0244665bfbf1368e21dfe90f90140029",
  "source": "// A simple ERC20 based security token\r\n// (c) Kallol Borah, 2021\r\n\r\npragma solidity 0.5.7;\r\n\r\nimport \"@openzeppelin/upgrades/contracts/Initializable.sol\";\r\nimport \"@openzeppelin/contracts-ethereum-package/contracts/ownership/Ownable.sol\";\r\nimport \"@openzeppelin/contracts-ethereum-package/contracts/token/ERC20/ERC20.sol\";\r\n\r\ncontract Security is Initializable, Ownable, ERC20 {\r\n\r\n    string public name;\r\n    string public symbol;\r\n\r\n    address preTradeContract;\r\n    address tradeContract;\r\n    address postTradeContract;\r\n\r\n    function initialize(bytes32 _company, bytes32 _isin, address _preTradeContract, address _tradeContract, address _postTradeContract) public initializer {\r\n        Ownable.initialize(msg.sender);\r\n        name = string(abi.encodePacked(_company, _isin));\r\n        symbol = string(abi.encodePacked(_isin));\r\n        preTradeContract = _preTradeContract;\r\n        tradeContract = _tradeContract;\r\n        postTradeContract = _postTradeContract;\r\n    }\r\n\r\n    function transferFrom(address _transferor, address _transferee, uint256 _qty) public returns(bool) {\r\n        require(msg.sender==tradeContract || msg.sender==postTradeContract);\r\n        return transferFrom(_transferor, _transferee, _qty);\r\n    }\r\n\r\n    function mint(address _account, uint256 _amount) external {\r\n        require(msg.sender==preTradeContract);\r\n        return _mint(_account, _amount);\r\n    }\r\n\r\n}",
  "sourcePath": "D:\\Code\\verified-trades\\contracts\\registry\\Security.sol",
  "compiler": {
    "name": "solc",
    "version": "0.5.7+commit.6da8b019.Emscripten.clang"
  },
  "schemaVersion": "3.3.3",
  "updatedAt": "2021-05-31T03:20:57.720Z",
  "networkType": "ethereum",
  "devdoc": {
    "methods": {
      "allowance(address,address)": {
        "details": "See {IERC20-allowance}."
      },
      "approve(address,uint256)": {
        "details": "See {IERC20-approve}.     * Requirements:     * - `spender` cannot be the zero address."
      },
      "balanceOf(address)": {
        "details": "See {IERC20-balanceOf}."
      },
      "decreaseAllowance(address,uint256)": {
        "details": "Atomically decreases the allowance granted to `spender` by the caller.     * This is an alternative to {approve} that can be used as a mitigation for problems described in {IERC20-approve}.     * Emits an {Approval} event indicating the updated allowance.     * Requirements:     * - `spender` cannot be the zero address. - `spender` must have allowance for the caller of at least `subtractedValue`."
      },
      "increaseAllowance(address,uint256)": {
        "details": "Atomically increases the allowance granted to `spender` by the caller.     * This is an alternative to {approve} that can be used as a mitigation for problems described in {IERC20-approve}.     * Emits an {Approval} event indicating the updated allowance.     * Requirements:     * - `spender` cannot be the zero address."
      },
      "initialize(address)": {
        "details": "Initializes the contract setting the deployer as the initial owner."
      },
      "isOwner()": {
        "details": "Returns true if the caller is the current owner."
      },
      "owner()": {
        "details": "Returns the address of the current owner."
      },
      "renounceOwnership()": {
        "details": "Leaves the contract without owner. It will not be possible to call `onlyOwner` functions anymore. Can only be called by the current owner.     * > Note: Renouncing ownership will leave the contract without an owner, thereby removing any functionality that is only available to the owner."
      },
      "totalSupply()": {
        "details": "See {IERC20-totalSupply}."
      },
      "transfer(address,uint256)": {
        "details": "See {IERC20-transfer}.     * Requirements:     * - `recipient` cannot be the zero address. - the caller must have a balance of at least `amount`."
      },
      "transferOwnership(address)": {
        "details": "Transfers ownership of the contract to a new account (`newOwner`). Can only be called by the current owner."
      }
    }
  },
  "userdoc": {
    "methods": {}
  }
}