{
  "contractName": "SecuritiesRegistry",
  "abi": [
    {
      "constant": true,
      "inputs": [
        {
          "name": "_salt",
          "type": "uint256"
        },
        {
          "name": "_logic",
          "type": "address"
        },
        {
          "name": "_admin",
          "type": "address"
        },
        {
          "name": "_data",
          "type": "bytes"
        },
        {
          "name": "_signature",
          "type": "bytes"
        }
      ],
      "name": "getSigner",
      "outputs": [
        {
          "name": "",
          "type": "address"
        }
      ],
      "payable": false,
      "stateMutability": "view",
      "type": "function"
    },
    {
      "constant": false,
      "inputs": [
        {
          "name": "_salt",
          "type": "uint256"
        },
        {
          "name": "_logic",
          "type": "address"
        },
        {
          "name": "_admin",
          "type": "address"
        },
        {
          "name": "_data",
          "type": "bytes"
        },
        {
          "name": "_signature",
          "type": "bytes"
        }
      ],
      "name": "deploySigned",
      "outputs": [
        {
          "name": "",
          "type": "address"
        }
      ],
      "payable": false,
      "stateMutability": "nonpayable",
      "type": "function"
    },
    {
      "constant": false,
      "inputs": [
        {
          "name": "_salt",
          "type": "uint256"
        },
        {
          "name": "_logic",
          "type": "address"
        },
        {
          "name": "_admin",
          "type": "address"
        },
        {
          "name": "_data",
          "type": "bytes"
        }
      ],
      "name": "deploy",
      "outputs": [
        {
          "name": "",
          "type": "address"
        }
      ],
      "payable": false,
      "stateMutability": "nonpayable",
      "type": "function"
    },
    {
      "constant": false,
      "inputs": [],
      "name": "renounceOwnership",
      "outputs": [],
      "payable": false,
      "stateMutability": "nonpayable",
      "type": "function"
    },
    {
      "constant": true,
      "inputs": [
        {
          "name": "_salt",
          "type": "uint256"
        },
        {
          "name": "_sender",
          "type": "address"
        }
      ],
      "name": "getDeploymentAddress",
      "outputs": [
        {
          "name": "",
          "type": "address"
        }
      ],
      "payable": false,
      "stateMutability": "view",
      "type": "function"
    },
    {
      "constant": true,
      "inputs": [],
      "name": "owner",
      "outputs": [
        {
          "name": "",
          "type": "address"
        }
      ],
      "payable": false,
      "stateMutability": "view",
      "type": "function"
    },
    {
      "constant": true,
      "inputs": [],
      "name": "isOwner",
      "outputs": [
        {
          "name": "",
          "type": "bool"
        }
      ],
      "payable": false,
      "stateMutability": "view",
      "type": "function"
    },
    {
      "constant": false,
      "inputs": [
        {
          "name": "_logic",
          "type": "address"
        },
        {
          "name": "_data",
          "type": "bytes"
        }
      ],
      "name": "deployMinimal",
      "outputs": [
        {
          "name": "proxy",
          "type": "address"
        }
      ],
      "payable": false,
      "stateMutability": "nonpayable",
      "type": "function"
    },
    {
      "constant": false,
      "inputs": [
        {
          "name": "newOwner",
          "type": "address"
        }
      ],
      "name": "transferOwnership",
      "outputs": [],
      "payable": false,
      "stateMutability": "nonpayable",
      "type": "function"
    },
    {
      "anonymous": false,
      "inputs": [
        {
          "indexed": true,
          "name": "_securityToken",
          "type": "address"
        },
        {
          "indexed": false,
          "name": "_company",
          "type": "bytes32"
        },
        {
          "indexed": false,
          "name": "_isin",
          "type": "bytes32"
        }
      ],
      "name": "SecurityCreated",
      "type": "event"
    },
    {
      "anonymous": false,
      "inputs": [
        {
          "indexed": true,
          "name": "_securityToken",
          "type": "address"
        },
        {
          "indexed": false,
          "name": "_company",
          "type": "bytes32"
        },
        {
          "indexed": false,
          "name": "_isin",
          "type": "bytes32"
        },
        {
          "indexed": false,
          "name": "_category",
          "type": "bytes32"
        },
        {
          "indexed": false,
          "name": "_action",
          "type": "string"
        }
      ],
      "name": "CorporateAction",
      "type": "event"
    },
    {
      "anonymous": false,
      "inputs": [
        {
          "indexed": false,
          "name": "proxy",
          "type": "address"
        }
      ],
      "name": "ProxyCreated",
      "type": "event"
    },
    {
      "anonymous": false,
      "inputs": [
        {
          "indexed": true,
          "name": "previousOwner",
          "type": "address"
        },
        {
          "indexed": true,
          "name": "newOwner",
          "type": "address"
        }
      ],
      "name": "OwnershipTransferred",
      "type": "event"
    },
    {
      "constant": false,
      "inputs": [
        {
          "name": "sender",
          "type": "address"
        }
      ],
      "name": "initialize",
      "outputs": [],
      "payable": false,
      "stateMutability": "nonpayable",
      "type": "function"
    },
    {
      "constant": false,
      "inputs": [
        {
          "name": "_viaFactory",
          "type": "address"
        },
        {
          "name": "_poolFactory",
          "type": "address"
        },
        {
          "name": "_preTradeContract",
          "type": "address"
        },
        {
          "name": "_tradeContract",
          "type": "address"
        },
        {
          "name": "_postTradeContract",
          "type": "address"
        },
        {
          "name": "_clientContract",
          "type": "address"
        }
      ],
      "name": "initialize",
      "outputs": [],
      "payable": false,
      "stateMutability": "nonpayable",
      "type": "function"
    },
    {
      "constant": false,
      "inputs": [
        {
          "name": "_issuer",
          "type": "address"
        },
        {
          "name": "_security",
          "type": "address"
        },
        {
          "name": "_currency",
          "type": "bytes32"
        },
        {
          "name": "_company",
          "type": "bytes32"
        },
        {
          "name": "_isin",
          "type": "bytes32"
        }
      ],
      "name": "createSecurity",
      "outputs": [],
      "payable": false,
      "stateMutability": "nonpayable",
      "type": "function"
    },
    {
      "constant": true,
      "inputs": [
        {
          "name": "_currency",
          "type": "bytes32"
        },
        {
          "name": "_company",
          "type": "bytes32"
        },
        {
          "name": "_isin",
          "type": "bytes32"
        }
      ],
      "name": "getToken",
      "outputs": [
        {
          "name": "",
          "type": "address"
        }
      ],
      "payable": false,
      "stateMutability": "view",
      "type": "function"
    },
    {
      "constant": false,
      "inputs": [
        {
          "name": "_isin",
          "type": "bytes32"
        }
      ],
      "name": "isIsinPresent",
      "outputs": [
        {
          "name": "",
          "type": "bool"
        }
      ],
      "payable": false,
      "stateMutability": "nonpayable",
      "type": "function"
    },
    {
      "constant": false,
      "inputs": [
        {
          "name": "_category",
          "type": "bytes32"
        },
        {
          "name": "_action",
          "type": "string"
        },
        {
          "name": "_isin",
          "type": "bytes32"
        }
      ],
      "name": "registerCorporateAction",
      "outputs": [],
      "payable": false,
      "stateMutability": "nonpayable",
      "type": "function"
    },
    {
      "constant": false,
      "inputs": [
        {
          "name": "_company",
          "type": "bytes32"
        },
        {
          "name": "_isin",
          "type": "bytes32"
        },
        {
          "name": "_score",
          "type": "bytes32"
        }
      ],
      "name": "registerCreditScore",
      "outputs": [],
      "payable": false,
      "stateMutability": "nonpayable",
      "type": "function"
    },
    {
      "constant": false,
      "inputs": [
        {
          "name": "_isin",
          "type": "bytes32"
        },
        {
          "name": "_price",
          "type": "bytes16"
        }
      ],
      "name": "registerPrice",
      "outputs": [],
      "payable": false,
      "stateMutability": "nonpayable",
      "type": "function"
    },
    {
      "constant": true,
      "inputs": [
        {
          "name": "_isin",
          "type": "bytes32"
        },
        {
          "name": "_category",
          "type": "bytes32"
        }
      ],
      "name": "getCorporateActions",
      "outputs": [
        {
          "name": "",
          "type": "string[]"
        }
      ],
      "payable": false,
      "stateMutability": "view",
      "type": "function"
    },
    {
      "constant": true,
      "inputs": [
        {
          "name": "_isin",
          "type": "bytes32"
        },
        {
          "name": "_company",
          "type": "bytes32"
        }
      ],
      "name": "getCreditScore",
      "outputs": [
        {
          "name": "",
          "type": "bytes32"
        }
      ],
      "payable": false,
      "stateMutability": "view",
      "type": "function"
    },
    {
      "constant": true,
      "inputs": [
        {
          "name": "_isin",
          "type": "bytes32"
        }
      ],
      "name": "getPrice",
      "outputs": [
        {
          "name": "",
          "type": "bytes16"
        }
      ],
      "payable": false,
      "stateMutability": "view",
      "type": "function"
    }
  ],
  "bytecode": "0x6080604081905261001060a0610034565b601f1982820381018352601f90910116604052805160209190910120606655610042565b6109a6806200338c83390190565b61333a80620000526000396000f3fe608060405234801561001057600080fd5b506004361061012c5760003560e01c80638da5cb5b116100ad578063b3eeb5e211610071578063b3eeb5e214610279578063c4d66de81461028c578063cc2a9a5b1461029f578063efcfbbb6146102b2578063f2fde38b146102c55761012c565b80638da5cb5b146102165780638f32d59b1461021e5780639c3acea0146102335780639d052f8f14610246578063ae612782146102595761012c565b80635633f401116100f45780635633f401146101c257806360eba6b9146101d55780636150864c146101e8578063715018a6146101fb57806381ae1f5b146102035761012c565b8063238a37291461013157806328123e9714610146578063290f8f561461016f57806331d98b3f1461018f578063332d6626146101af575b600080fd5b61014461013f366004612074565b6102d8565b005b610159610154366004612044565b61050f565b60405161016691906126e3565b60405180910390f35b61018261017d3660046121c8565b610723565b6040516101669190612639565b6101a261019d366004611fd8565b610776565b60405161016691906126d5565b6101826101bd3660046121c8565b610823565b6101446101d0366004611ef3565b610874565b6101446101e33660046120c1565b610b4b565b6101826101f636600461215b565b610e70565b610144610e8a565b61018261021136600461212b565b610efb565b610182610f56565b610226610f66565b60405161016691906126c7565b610182610241366004612074565b610f8c565b610144610254366004612014565b611099565b61026c610267366004612044565b61118a565b60405161016691906126b6565b610182610287366004611f68565b611310565b61014461029a366004611e30565b61141b565b6101446102ad366004611e6c565b6114f1565b6102266102c0366004611fd8565b6115e8565b6101446102d3366004611e30565b611651565b6102e0610f56565b6001600160a01b0316336001600160a01b0316146102fd57600080fd5b821515806103145750811580159061031457508015155b61031d57600080fd5b60005b606e5481101561050957836103af5782606d6000606e848154811061034157fe5b60009182526020808320909101546001600160a01b0316835282019290925260400190206002015414156103aa5781606d6000606e848154811061038157fe5b60009182526020808320909101546001600160a01b031683528201929092526040019020600301555b610501565b8261044657606d6000606e83815481106103c557fe5b60009182526020808320909101546001600160a01b031683528201929092526040019020600201541580159061042f575083606d6000606e848154811061040857fe5b60009182526020808320909101546001600160a01b03168352820192909252604001902054145b156103aa5781606d6000606e848154811061038157fe5b82606d6000606e848154811061045857fe5b60009182526020808320909101546001600160a01b031683528201929092526040019020600201541480156104c1575083606d6000606e848154811061049a57fe5b60009182526020808320909101546001600160a01b03168352820192909252604001902054145b156105015781606d6000606e84815481106104d857fe5b60009182526020808320909101546001600160a01b031683528201929092526040019020600301555b600101610320565b50505050565b60008115158061051e57508215155b61052757600080fd5b6000805b606e5481101561071a5783158015610541575081155b156105d25784606d6000606e848154811061055857fe5b60009182526020808320909101546001600160a01b0316835282019290925260400190206002015414156105cd5760019150606d6000606e838154811061059b57fe5b60009182526020808320909101546001600160a01b03168352820192909252604001902060030154925061071d915050565b610712565b841580156105de575081155b1561067857606d6000606e83815481106105f457fe5b60009182526020808320909101546001600160a01b031683528201929092526040019020600201541580159061065e575083606d6000606e848154811061063757fe5b60009182526020808320909101546001600160a01b03168352820192909252604001902054145b156105cd5760019150606d6000606e838154811061059b57fe5b816107125784606d6000606e848154811061068f57fe5b60009182526020808320909101546001600160a01b031683528201929092526040019020600201541480156106f8575083606d6000606e84815481106106d157fe5b60009182526020808320909101546001600160a01b03168352820192909252604001902054145b156107125760019150606d6000606e838154811061059b57fe5b60010161052b565b50505b92915050565b60008061075d87878787306040516020016107429594939291906125e4565b60405160208183030381529060405280519060200120611684565b905061076981846116b4565b9150505b95945050505050565b60008161078257600080fd5b60005b606e5481101561081c5782606d6000606e84815481106107a157fe5b60009182526020808320909101546001600160a01b03168352820192909252604001902060020154141561081457606d6000606e83815481106107e057fe5b60009182526020808320909101546001600160a01b0316835282019290925260400190206004015460801b915061081e9050565b600101610785565b505b919050565b6000806108338787878787610723565b90506001600160a01b03811661086757604051600160e51b62461bcd02815260040161085e90612822565b60405180910390fd5b6107698787878785611790565b6069546001600160a01b0316331461088b57600080fd5b606754604051600160e21b633cd163c50281526000916001600160a01b03169063f3458f14906108bf90879060040161279e565b60206040518083038186803b1580156108d757600080fd5b505afa1580156108eb573d6000803e3d6000fd5b505050506040513d601f19601f8201168201806040525061090f9190810190611e4e565b90506001600160a01b03811661092457600080fd5b61092f838584611845565b610b4357606954606a54606b5460405160609361096693889388936001600160a01b0393841693928316929091169060240161270c565b60408051601f198184030181529190526020810180516001600160e01b0316600160e41b630464997702179052905060006109a18783611310565b9050806001600160a01b03167f3764ea16923224fe01f294f126d6c567957421fa98162b2496ccced3cad5e8b586866040516109de9291906126f1565b60405180910390a26040518060c00160405280868152602001878152602001858152602001600160e01b636e6f6e65028152602001610a1d6000611933565b6001600160801b031990811682526001600160a01b03808c166020938401528481166000818152606d855260408082208751815595870151600180880191909155878201516002880155606088015160038801556080808901516004808a0180549290931c9190981617905560a090970151600590960180549685166001600160a01b0319978816179055606e805497880181559091527f9930d9ff0dee0ef5ca2f7710ea66b8f84dd0f5f5351ecffe72b952cd9db7142a9095018054909416179092556068549251600160e11b635ca76fdf028152929091169163b94edfbe91610b0e91859188918c9101612655565b600060405180830381600087803b158015610b2857600080fd5b505af1158015610b3c573d6000803e3d6000fd5b5050505050505b505050505050565b8015801590610b5957508315155b8015610bec5750604051600160e11b63235ee54d02815273__stringutils___________________________906346bdca9a90610b9c90869086906004016127ed565b60206040518083038186803b158015610bb457600080fd5b505af4158015610bc8573d6000803e3d6000fd5b505050506040513d601f19601f82011682018060405250610bec9190810190611fba565b610bf557600080fd5b60005b606e54811015610e695781606d6000606e8481548110610c1457fe5b60009182526020808320909101546001600160a01b03168352820192909252604001902060020154148015610d225750336001600160a01b0316606d6000606e8481548110610c5f57fe5b60009182526020808320909101546001600160a01b039081168452908301939093526040909101902060050154161480610d225750606c54604051600160e01b63442767330281526001600160a01b0390911690634427673390610cc7903390600401612647565b60206040518083038186803b158015610cdf57600080fd5b505afa158015610cf3573d6000803e3d6000fd5b505050506040513d601f19601f82011682018060405250610d179190810190611ff6565b600160f41b61044502145b15610e6157606f6000606e8381548110610d3857fe5b60009182526020808320909101546001600160a01b0316835282810193909352604091820181208882528352908120805460018101808355918352929091209091610d8591018686611ca6565b5050606e8181548110610d9457fe5b6000918252602082200154606e80546001600160a01b03909216927f13f0b715205615fc42bd97db9e718f62f1ffe5551c3fdcc9822e1af2963fb8cb92606d929086908110610ddf57fe5b60009182526020808320909101546001600160a01b03168352820192909252604001812054606e80549192606d9290919087908110610e1a57fe5b60009182526020808320909101546001600160a01b031683528201929092526040908101909120600201549051610e589291908a908a908a90612758565b60405180910390a25b600101610bf8565b5050505050565b6000610e7f8585858533611790565b90505b949350505050565b610e92610f66565b610eb157604051600160e51b62461bcd02815260040161085e90612832565b6033546040516000916001600160a01b0316907f8be0079c531659141344cd1fd0a4f28419497f9722a3daafe3b4186f6b6457e0908390a3603380546001600160a01b0319169055565b600080610f08848461199f565b606654604051919250600091610f2e916001600160f81b0319913091869160200161254a565b60408051601f198184030181529190528051602090910120606090811b901c95945050505050565b6033546001600160a01b03165b90565b6033546000906001600160a01b0316610f7d6119d2565b6001600160a01b031614905090565b6000805b606e548110156110905784606d6000606e8481548110610fac57fe5b60009182526020808320909101546001600160a01b03168352820192909252604001902060010154148015611015575083606d6000606e8481548110610fee57fe5b60009182526020808320909101546001600160a01b03168352820192909252604001902054145b8015611058575082606d6000606e848154811061102e57fe5b60009182526020808320909101546001600160a01b03168352820192909252604001902060020154145b1561108857606e818154811061106a57fe5b6000918252602090912001546001600160a01b031691506110929050565b600101610f90565b505b9392505050565b606b546001600160a01b031633146110b057600080fd5b81158015906110d4575060006110cf826110ca6000611933565b6119d6565b60000b135b6110dd57600080fd5b60005b606e548110156111855782606d6000606e84815481106110fc57fe5b60009182526020808320909101546001600160a01b03168352820192909252604001902060020154141561117d5781606d6000606e848154811061113c57fe5b6000918252602080832091909101546001600160a01b03168352820192909252604001902060040180546001600160801b03191660809290921c9190911790555b6001016110e0565b505050565b6060821580159061119a57508115155b6111a357600080fd5b60005b606e548110156113095783606d6000606e84815481106111c257fe5b60009182526020808320909101546001600160a01b03168352820192909252604001902060020154141561130157606f6000606e838154811061120157fe5b60009182526020808320909101546001600160a01b0316835282810193909352604091820181208682528352818120805483518186028101860190945280845292939092919084015b828210156112f55760008481526020908190208301805460408051601f60026000196101006001871615020190941693909304928301859004850281018501909152818152928301828280156112e15780601f106112b6576101008083540402835291602001916112e1565b820191906000526020600020905b8154815290600101906020018083116112c457829003601f168201915b50505050508152602001906001019061124a565b5050505091505061071d565b6001016111a6565b5092915050565b6000808360601b90506040517f3d602d80600a3d3981f3363d3d373d3d3d363d7300000000000000000000000081528160148201527f5af43d82803e903d91602b57fd5bf3000000000000000000000000000000000060288201526037816000f09250507efffc2da0b561cae30d9826d37709e9421c4725faebc226cbbb7ef5fc5e7349826040516113a29190612639565b60405180910390a1825115611309576000826001600160a01b0316846040516113cb9190612592565b6000604051808303816000865af19150503d8060008114611408576040519150601f19603f3d011682016040523d82523d6000602084013e61140d565b606091505b505090508061071a57600080fd5b600054610100900460ff16806114345750611434611b1f565b80611442575060005460ff16155b61146157604051600160e51b62461bcd02815260040161085e90612842565b600054610100900460ff1615801561148c576000805460ff1961ff0019909116610100171660011790555b603380546001600160a01b0319166001600160a01b0384811691909117918290556040519116906000907f8be0079c531659141344cd1fd0a4f28419497f9722a3daafe3b4186f6b6457e0908290a380156114ed576000805461ff00191690555b5050565b600054610100900460ff168061150a575061150a611b1f565b80611518575060005460ff16155b61153757604051600160e51b62461bcd02815260040161085e90612842565b600054610100900460ff16158015611562576000805460ff1961ff0019909116610100171660011790555b61156b3361141b565b606780546001600160a01b03199081166001600160a01b038a811691909117909255606880548216898416179055606980548216888416179055606a80548216878416179055606b80548216868416179055606c805490911691841691909117905580156115df576000805461ff00191690555b50505050505050565b6000805b606e548110156116485782606d6000606e848154811061160857fe5b60009182526020808320909101546001600160a01b03168352820192909252604001902060020154141561164057600191505061081e565b6001016115ec565b50600092915050565b611659610f66565b61167857604051600160e51b62461bcd02815260040161085e90612832565b61168181611b25565b50565b600081604051602001611697919061259e565b604051602081830303815290604052805190602001209050919050565b600081516041146116c75750600061071d565b60208201516040830151606084015160001a7f7fffffffffffffffffffffffffffffff5d576e7357a4501ddfe92f46681b20a082111561170d576000935050505061071d565b8060ff16601b1415801561172557508060ff16601c14155b15611736576000935050505061071d565b6001868285856040516000815260200160405260405161175994939291906127b8565b6020604051602081039080840390855afa15801561177b573d6000803e3d6000fd5b5050604051601f190151979650505050505050565b60008061179d8784611baa565b90507efffc2da0b561cae30d9826d37709e9421c4725faebc226cbbb7ef5fc5e7349816040516117cd9190612647565b60405180910390a1604051600160e01b63cf7a1d770281526001600160a01b0382169063cf7a1d779061180890899089908990600401612689565b600060405180830381600087803b15801561182257600080fd5b505af1158015611836573d6000803e3d6000fd5b50929998505050505050505050565b6000805b606e548110156119285784606d6000606e848154811061186557fe5b60009182526020808320909101546001600160a01b031683528201929092526040019020541480156118ce575083606d6000606e84815481106118a457fe5b60009182526020808320909101546001600160a01b03168352820192909252604001902060010154145b8015611911575082606d6000606e84815481106118e757fe5b60009182526020808320909101546001600160a01b03168352820192909252604001902060020154145b15611920576001915050611092565b600101611849565b506000949350505050565b6000816119425750600061081e565b81600061194e82611c03565b90506070811015611967578060700382901b915061197a565b607081111561197a576070810382901c91505b613fff0160701b6dffffffffffffffffffffffffffff919091161760801b905061081e565b600082826040516020016119b49291906125be565b60405160208183030381529060405280519060200120905092915050565b3390565b600060016001607f1b03608084901c16600160701b617fff028111156119fb57600080fd5b60016001607f1b03608084901c16600160701b617fff02811115611a1e57600080fd5b6001600160801b0319858116908516141580611a4a5750600160701b617fff02826001600160801b0316105b611a5357600080fd5b6001600160801b03198581169085161415611a735760009250505061071d565b60006001607f1b8660801c6001600160801b03161015905060006001607f1b8660801c6001600160801b0316101590508115611ade578015611acf57826001600160801b0316846001600160801b031611611acf576001611ad3565b6000195b94505050505061071d565b8015611af157600194505050505061071d565b826001600160801b0316846001600160801b031611611b1257600019611ad3565b600194505050505061071d565b303b1590565b6001600160a01b038116611b4e57604051600160e51b62461bcd02815260040161085e90612812565b6033546040516001600160a01b038084169216907f8be0079c531659141344cd1fd0a4f28419497f9722a3daafe3b4186f6b6457e090600090a3603380546001600160a01b0319166001600160a01b0392909216919091179055565b600080606060405180602001611bbf90611d24565b601f1982820381018352601f9091011660405290506000611be0868661199f565b9050808251602084016000f59250823b611bf957600080fd5b5090949350505050565b6000808211611c1157600080fd5b6000600160801b8310611c2657608092831c92015b680100000000000000008310611c3e57604092831c92015b6401000000008310611c5257602092831c92015b620100008310611c6457601092831c92015b6101008310611c7557600892831c92015b60108310611c8557600492831c92015b60048310611c9557600292831c92015b6002831061071d5760010192915050565b828054600181600116156101000203166002900490600052602060002090601f016020900481019282601f10611ce75782800160ff19823516178555611d14565b82800160010185558215611d14579182015b82811115611d14578235825591602001919060010190611cf9565b50611d20929150611d31565b5090565b6109a68061295b83390190565b610f6391905b80821115611d205760008155600101611d37565b600061109282356128b4565b600061109282516128b4565b600061109282516128bf565b600061109282356128d1565b60006110928235610f63565b60006110928251610f63565b600082601f830112611da457600080fd5b8135611db7611db282612879565b612852565b91508082526020830160208301858383011115611dd357600080fd5b611dde838284612901565b50505092915050565b60008083601f840112611df957600080fd5b50813567ffffffffffffffff811115611e1157600080fd5b602083019150836001820283011115611e2957600080fd5b9250929050565b600060208284031215611e4257600080fd5b6000610e828484611d4b565b600060208284031215611e6057600080fd5b6000610e828484611d57565b60008060008060008060c08789031215611e8557600080fd5b6000611e918989611d4b565b9650506020611ea289828a01611d4b565b9550506040611eb389828a01611d4b565b9450506060611ec489828a01611d4b565b9350506080611ed589828a01611d4b565b92505060a0611ee689828a01611d4b565b9150509295509295509295565b600080600080600060a08688031215611f0b57600080fd5b6000611f178888611d4b565b9550506020611f2888828901611d4b565b9450506040611f3988828901611d7b565b9350506060611f4a88828901611d7b565b9250506080611f5b88828901611d7b565b9150509295509295909350565b60008060408385031215611f7b57600080fd5b6000611f878585611d4b565b925050602083013567ffffffffffffffff811115611fa457600080fd5b611fb085828601611d93565b9150509250929050565b600060208284031215611fcc57600080fd5b6000610e828484611d63565b600060208284031215611fea57600080fd5b6000610e828484611d7b565b60006020828403121561200857600080fd5b6000610e828484611d87565b6000806040838503121561202757600080fd5b60006120338585611d7b565b9250506020611fb085828601611d6f565b6000806040838503121561205757600080fd5b60006120638585611d7b565b9250506020611fb085828601611d7b565b60008060006060848603121561208957600080fd5b60006120958686611d7b565b93505060206120a686828701611d7b565b92505060406120b786828701611d7b565b9150509250925092565b600080600080606085870312156120d757600080fd5b60006120e38787611d7b565b945050602085013567ffffffffffffffff81111561210057600080fd5b61210c87828801611de7565b9350935050604061211f87828801611d7b565b91505092959194509250565b6000806040838503121561213e57600080fd5b600061214a8585611d7b565b9250506020611fb085828601611d4b565b6000806000806080858703121561217157600080fd5b600061217d8787611d7b565b945050602061218e87828801611d4b565b935050604061219f87828801611d4b565b925050606085013567ffffffffffffffff8111156121bc57600080fd5b61211f87828801611d93565b600080600080600060a086880312156121e057600080fd5b60006121ec8888611d7b565b95505060206121fd88828901611d4b565b945050604061220e88828901611d4b565b935050606086013567ffffffffffffffff81111561222b57600080fd5b61223788828901611d93565b925050608086013567ffffffffffffffff81111561225457600080fd5b611f5b88828901611d93565b60006110928383612337565b612275816128f0565b82525050565b612275816128b4565b612275612290826128b4565b612939565b60006122a0826128a7565b6122aa81856128ab565b9350836020820285016122bc856128a1565b60005b848110156122f35783830388526122d7838351612260565b92506122e2826128a1565b6020989098019791506001016122bf565b50909695505050505050565b612275816128bf565b612275816128d1565b61227561231d826128c4565b610f63565b61227581610f63565b61227561231d82610f63565b6000612342826128a7565b61234c81856128ab565b935061235c81856020860161290d565b6123658161294a565b9093019392505050565b600061237a826128a7565b612384818561081e565b935061239481856020860161290d565b9290920192915050565b60006123aa83856128ab565b93506123b7838584612901565b6123658361294a565b60006123cd601c8361081e565b7f19457468657265756d205369676e6564204d6573736167653a0a3332000000008152601c0192915050565b60006124066026836128ab565b7f4f776e61626c653a206e6577206f776e657220697320746865207a65726f20618152600160d01b6564647265737302602082015260400192915050565b600160f41b610445029052565b600160cb1b660acd2c286c2e6d029052565b60006124706011836128ab565b7f496e76616c6964207369676e6174757265000000000000000000000000000000815260200192915050565b60006124a96020836128ab565b7f4f776e61626c653a2063616c6c6572206973206e6f7420746865206f776e6572815260200192915050565b60006124e2602e836128ab565b7f436f6e747261637420696e7374616e63652068617320616c726561647920626581527f656e20696e697469616c697a6564000000000000000000000000000000000000602082015260400192915050565b600061071d6000836128ab565b612275816128ea565b60006125568287612311565b6001820191506125668286612284565b601482019150612576828561232b565b602082019150612586828461232b565b50602001949350505050565b6000611092828461236f565b60006125a9826123c0565b91506125b5828461232b565b50602001919050565b60006125ca828561232b565b6020820191506125da8284612284565b5060140192915050565b60006125f0828861232b565b6020820191506126008287612284565b6014820191506126108286612284565b601482019150612620828561236f565b915061262c8284612284565b5060140195945050505050565b6020810161071d828461227b565b6020810161071d828461226c565b60808101612663828661227b565b612670602083018561227b565b61267d6040830184612322565b610e8260608301612444565b60608101612697828661227b565b6126a4602083018561227b565b8181036040830152610e7f8184612337565b602080825281016110928184612295565b6020810161071d82846122ff565b6020810161071d8284612308565b6020810161071d8284612322565b604081016126ff8285612322565b6110926020830184612322565b60a0810161271a8288612322565b6127276020830187612322565b612734604083018661227b565b612741606083018561227b565b61274e608083018461227b565b9695505050505050565b608081016127668288612322565b6127736020830187612322565b6127806040830186612322565b818103606083015261279381848661239e565b979650505050505050565b604081016127ac8284612322565b61071d60208301612451565b608081016127c68287612322565b6127d36020830186612541565b6127e06040830185612322565b61076d6060830184612322565b604080825281016127ff81848661239e565b90508181036020830152610e8281612534565b6020808252810161071d816123f9565b6020808252810161071d81612463565b6020808252810161071d8161249c565b6020808252810161071d816124d5565b60405181810167ffffffffffffffff8111828210171561287157600080fd5b604052919050565b600067ffffffffffffffff82111561289057600080fd5b506020601f91909101601f19160190565b60200190565b5190565b90815260200190565b600061071d826128de565b151590565b6001600160f81b03191690565b6001600160801b03191690565b6001600160a01b031690565b60ff1690565b600061071d82600061071d826128b4565b82818337506000910152565b60005b83811015612928578181015183820152602001612910565b838111156105095750506000910152565b600061071d82600061071d82612954565b601f01601f191690565b60601b9056fe608060405234801561001057600080fd5b50610986806100206000396000f3fe6080604052600436106100705760003560e01c80638f2839701161004e5780638f2839701461015e578063cf7a1d7714610191578063d1f5789414610250578063f851a4401461030657610070565b80633659cfe61461007a5780634f1ef286146100ad5780635c60da1b1461012d575b61007861031b565b005b34801561008657600080fd5b506100786004803603602081101561009d57600080fd5b50356001600160a01b0316610335565b610078600480360360408110156100c357600080fd5b6001600160a01b0382351691908101906040810160208201356401000000008111156100ee57600080fd5b82018360208201111561010057600080fd5b8035906020019184600183028401116401000000008311171561012257600080fd5b50909250905061036f565b34801561013957600080fd5b5061014261041c565b604080516001600160a01b039092168252519081900360200190f35b34801561016a57600080fd5b506100786004803603602081101561018157600080fd5b50356001600160a01b0316610459565b610078600480360360608110156101a757600080fd5b6001600160a01b0382358116926020810135909116918101906060810160408201356401000000008111156101db57600080fd5b8201836020820111156101ed57600080fd5b8035906020019184600183028401116401000000008311171561020f57600080fd5b91908080601f016020809104026020016040519081016040528093929190818152602001838380828437600092019190915250929550610516945050505050565b6100786004803603604081101561026657600080fd5b6001600160a01b03823516919081019060408101602082013564010000000081111561029157600080fd5b8201836020820111156102a357600080fd5b803590602001918460018302840111640100000000831117156102c557600080fd5b91908080601f0160208091040260200160405190810160405280939291908181526020018383808284376000920191909152509295506105a6945050505050565b34801561031257600080fd5b506101426106e6565b610323610711565b61033361032e610774565b610799565b565b61033d6107bd565b6001600160a01b0316336001600160a01b031614156103645761035f816107e2565b61036c565b61036c61031b565b50565b6103776107bd565b6001600160a01b0316336001600160a01b0316141561040f57610399836107e2565b6000836001600160a01b031683836040518083838082843760405192019450600093509091505080830381855af49150503d80600081146103f6576040519150601f19603f3d011682016040523d82523d6000602084013e6103fb565b606091505b505090508061040957600080fd5b50610417565b61041761031b565b505050565b60006104266107bd565b6001600160a01b0316336001600160a01b0316141561044e57610447610774565b9050610456565b61045661031b565b90565b6104616107bd565b6001600160a01b0316336001600160a01b03161415610364576001600160a01b0381166104c257604051600160e51b62461bcd0281526004018080602001828103825260368152602001806108ea6036913960400191505060405180910390fd5b7f7e644d79422f17c01e4894b5f4f588d331ebfa28653d42ae832dc59e38c9798f6104eb6107bd565b604080516001600160a01b03928316815291841660208301528051918290030190a161035f81610822565b6000610520610774565b6001600160a01b03161461053357600080fd5b61053d83826105a6565b604080517f656970313936372e70726f78792e61646d696e00000000000000000000000000815290519081900360130190207fb53127684a568b3173ae13b9f8a6016e243e63b6e8ee1178d6a717850b5d61036000199091011461059d57fe5b61041782610822565b60006105b0610774565b6001600160a01b0316146105c357600080fd5b604080517f656970313936372e70726f78792e696d706c656d656e746174696f6e000000008152905190819003601c0190207f360894a13ba1a3210667c828492db98dca3e2076cc3735a920a3ca505d382bbc6000199091011461062357fe5b61062c82610846565b8051156106e2576000826001600160a01b0316826040518082805190602001908083835b6020831061066f5780518252601f199092019160209182019101610650565b6001836020036101000a038019825116818451168082178552505050505050905001915050600060405180830381855af49150503d80600081146106cf576040519150601f19603f3d011682016040523d82523d6000602084013e6106d4565b606091505b505090508061041757600080fd5b5050565b60006106f06107bd565b6001600160a01b0316336001600160a01b0316141561044e576104476107bd565b6107196107bd565b6001600160a01b0316336001600160a01b0316141561076c57604051600160e51b62461bcd0281526004018080602001828103825260328152602001806108b86032913960400191505060405180910390fd5b610333610333565b7f360894a13ba1a3210667c828492db98dca3e2076cc3735a920a3ca505d382bbc5490565b3660008037600080366000845af43d6000803e8080156107b8573d6000f35b3d6000fd5b7fb53127684a568b3173ae13b9f8a6016e243e63b6e8ee1178d6a717850b5d61035490565b6107eb81610846565b6040516001600160a01b038216907fbc7cd75a20ee27fd9adebab32041f755214dbc6bffa90cc0225b39da2e5c2d3b90600090a250565b7fb53127684a568b3173ae13b9f8a6016e243e63b6e8ee1178d6a717850b5d610355565b61084f816108b1565b61088d57604051600160e51b62461bcd02815260040180806020018281038252603b815260200180610920603b913960400191505060405180910390fd5b7f360894a13ba1a3210667c828492db98dca3e2076cc3735a920a3ca505d382bbc55565b3b15159056fe43616e6e6f742063616c6c2066616c6c6261636b2066756e6374696f6e2066726f6d207468652070726f78792061646d696e43616e6e6f74206368616e6765207468652061646d696e206f6620612070726f787920746f20746865207a65726f206164647265737343616e6e6f742073657420612070726f787920696d706c656d656e746174696f6e20746f2061206e6f6e2d636f6e74726163742061646472657373a165627a7a72305820acd86240912c703ba88ccefef3db77e88d3507353c7c194b0b27eed571ae96c90029a265627a7a723058208cfa0fa048464df0f9b711e71bea8ad519c54a67c2c246491dd26604abc235896c6578706572696d656e74616cf50037608060405234801561001057600080fd5b50610986806100206000396000f3fe6080604052600436106100705760003560e01c80638f2839701161004e5780638f2839701461015e578063cf7a1d7714610191578063d1f5789414610250578063f851a4401461030657610070565b80633659cfe61461007a5780634f1ef286146100ad5780635c60da1b1461012d575b61007861031b565b005b34801561008657600080fd5b506100786004803603602081101561009d57600080fd5b50356001600160a01b0316610335565b610078600480360360408110156100c357600080fd5b6001600160a01b0382351691908101906040810160208201356401000000008111156100ee57600080fd5b82018360208201111561010057600080fd5b8035906020019184600183028401116401000000008311171561012257600080fd5b50909250905061036f565b34801561013957600080fd5b5061014261041c565b604080516001600160a01b039092168252519081900360200190f35b34801561016a57600080fd5b506100786004803603602081101561018157600080fd5b50356001600160a01b0316610459565b610078600480360360608110156101a757600080fd5b6001600160a01b0382358116926020810135909116918101906060810160408201356401000000008111156101db57600080fd5b8201836020820111156101ed57600080fd5b8035906020019184600183028401116401000000008311171561020f57600080fd5b91908080601f016020809104026020016040519081016040528093929190818152602001838380828437600092019190915250929550610516945050505050565b6100786004803603604081101561026657600080fd5b6001600160a01b03823516919081019060408101602082013564010000000081111561029157600080fd5b8201836020820111156102a357600080fd5b803590602001918460018302840111640100000000831117156102c557600080fd5b91908080601f0160208091040260200160405190810160405280939291908181526020018383808284376000920191909152509295506105a6945050505050565b34801561031257600080fd5b506101426106e6565b610323610711565b61033361032e610774565b610799565b565b61033d6107bd565b6001600160a01b0316336001600160a01b031614156103645761035f816107e2565b61036c565b61036c61031b565b50565b6103776107bd565b6001600160a01b0316336001600160a01b0316141561040f57610399836107e2565b6000836001600160a01b031683836040518083838082843760405192019450600093509091505080830381855af49150503d80600081146103f6576040519150601f19603f3d011682016040523d82523d6000602084013e6103fb565b606091505b505090508061040957600080fd5b50610417565b61041761031b565b505050565b60006104266107bd565b6001600160a01b0316336001600160a01b0316141561044e57610447610774565b9050610456565b61045661031b565b90565b6104616107bd565b6001600160a01b0316336001600160a01b03161415610364576001600160a01b0381166104c257604051600160e51b62461bcd0281526004018080602001828103825260368152602001806108ea6036913960400191505060405180910390fd5b7f7e644d79422f17c01e4894b5f4f588d331ebfa28653d42ae832dc59e38c9798f6104eb6107bd565b604080516001600160a01b03928316815291841660208301528051918290030190a161035f81610822565b6000610520610774565b6001600160a01b03161461053357600080fd5b61053d83826105a6565b604080517f656970313936372e70726f78792e61646d696e00000000000000000000000000815290519081900360130190207fb53127684a568b3173ae13b9f8a6016e243e63b6e8ee1178d6a717850b5d61036000199091011461059d57fe5b61041782610822565b60006105b0610774565b6001600160a01b0316146105c357600080fd5b604080517f656970313936372e70726f78792e696d706c656d656e746174696f6e000000008152905190819003601c0190207f360894a13ba1a3210667c828492db98dca3e2076cc3735a920a3ca505d382bbc6000199091011461062357fe5b61062c82610846565b8051156106e2576000826001600160a01b0316826040518082805190602001908083835b6020831061066f5780518252601f199092019160209182019101610650565b6001836020036101000a038019825116818451168082178552505050505050905001915050600060405180830381855af49150503d80600081146106cf576040519150601f19603f3d011682016040523d82523d6000602084013e6106d4565b606091505b505090508061041757600080fd5b5050565b60006106f06107bd565b6001600160a01b0316336001600160a01b0316141561044e576104476107bd565b6107196107bd565b6001600160a01b0316336001600160a01b0316141561076c57604051600160e51b62461bcd0281526004018080602001828103825260328152602001806108b86032913960400191505060405180910390fd5b610333610333565b7f360894a13ba1a3210667c828492db98dca3e2076cc3735a920a3ca505d382bbc5490565b3660008037600080366000845af43d6000803e8080156107b8573d6000f35b3d6000fd5b7fb53127684a568b3173ae13b9f8a6016e243e63b6e8ee1178d6a717850b5d61035490565b6107eb81610846565b6040516001600160a01b038216907fbc7cd75a20ee27fd9adebab32041f755214dbc6bffa90cc0225b39da2e5c2d3b90600090a250565b7fb53127684a568b3173ae13b9f8a6016e243e63b6e8ee1178d6a717850b5d610355565b61084f816108b1565b61088d57604051600160e51b62461bcd02815260040180806020018281038252603b815260200180610920603b913960400191505060405180910390fd5b7f360894a13ba1a3210667c828492db98dca3e2076cc3735a920a3ca505d382bbc55565b3b15159056fe43616e6e6f742063616c6c2066616c6c6261636b2066756e6374696f6e2066726f6d207468652070726f78792061646d696e43616e6e6f74206368616e6765207468652061646d696e206f6620612070726f787920746f20746865207a65726f206164647265737343616e6e6f742073657420612070726f787920696d706c656d656e746174696f6e20746f2061206e6f6e2d636f6e74726163742061646472657373a165627a7a72305820acd86240912c703ba88ccefef3db77e88d3507353c7c194b0b27eed571ae96c90029",
  "source": "// Registry of registered securities\r\n// (c) Kallol Borah, 2021\r\n\r\npragma solidity 0.5.7;\r\npragma experimental ABIEncoderV2;\r\n\r\nimport \"@openzeppelin/upgrades/contracts/Initializable.sol\";\r\nimport \"@openzeppelin/upgrades/contracts/upgradeability/ProxyFactory.sol\";\r\nimport \"@openzeppelin/contracts-ethereum-package/contracts/ownership/Ownable.sol\";\r\nimport \"../interfaces/ISecuritiesRegistry.sol\";\r\nimport \"../interfaces/IPoolFactory.sol\";\r\nimport \"../interfaces/ViaFactory.sol\";\r\nimport \"../interfaces/VerifiedClient.sol\";\r\nimport \"../utilities/StringUtils.sol\";\r\nimport \"abdk-libraries-solidity/ABDKMathQuad.sol\";\r\n\r\ncontract SecuritiesRegistry is Initializable, Ownable, ProxyFactory, ISecuritiesRegistry{\r\n\r\n    using ABDKMathQuad for bytes16;\r\n    using stringutils for *;\r\n\r\n    ViaFactory private via;\r\n\r\n    address poolFactory;\r\n    address preTradeContract;\r\n    address tradeContract;\r\n    address postTradeContract;\r\n    address clientContract;\r\n\r\n    struct security{\r\n        bytes32 company;\r\n        bytes32 currency;\r\n        bytes32 isin;\r\n        bytes32 creditScore;\r\n        bytes16 price;\r\n        address issuer;\r\n    }\r\n\r\n    mapping(address => security) private securityTokens;\r\n\r\n    address[] private tokens;\r\n\r\n    mapping(address => mapping(bytes32 => string[])) private corporateActions;\r\n    \r\n    //event signalling creation of a security token\r\n    event SecurityCreated(address indexed _securityToken, bytes32 _company, bytes32 _isin);\r\n    //event signalling corporate action\r\n    event CorporateAction(address indexed _securityToken, bytes32 _company, bytes32 _isin, bytes32 _category, string _action);\r\n\r\n    function initialize(address _viaFactory, address _poolFactory, address _preTradeContract, address _tradeContract, address _postTradeContract, address _clientContract) public initializer{\r\n        Ownable.initialize(msg.sender);\r\n        via = ViaFactory(_viaFactory);\r\n        poolFactory = _poolFactory;\r\n        preTradeContract = _preTradeContract;\r\n        tradeContract = _tradeContract;\r\n        postTradeContract = _postTradeContract;\r\n        clientContract = _clientContract;\r\n    }\r\n\r\n    function createSecurity(address _issuer, address _security, bytes32 _currency, bytes32 _company, bytes32 _isin) external {\r\n        require(msg.sender==preTradeContract);\r\n        address cash = via.getTokenByNameType(_currency, \"ViaCash\");\r\n        require(cash!=address(0x0));\r\n        \r\n        if(!isRegistered(_company, _currency, _isin)){\r\n            bytes memory _payload = abi.encodeWithSignature(\"initialize(bytes32,bytes32,address,address,address)\", _company, _isin, preTradeContract, tradeContract, postTradeContract);\r\n\r\n            address _token = deployMinimal(_security, _payload);\r\n            emit SecurityCreated(_token, _company, _isin);\r\n\r\n            securityTokens[_token] = security(_company, _currency, _isin, \"none\", ABDKMathQuad.fromUInt(0), _issuer);\r\n            tokens.push(_token);\r\n\r\n            IPoolFactory(poolFactory).createPool(_token, cash, _currency, \"DP\");\r\n        }\r\n    }\r\n\r\n    function isRegistered(bytes32 _company, bytes32 _currency, bytes32 _isin) private view returns(bool){\r\n        for(uint i=0; i<tokens.length; i++){\r\n            if( securityTokens[tokens[i]].company==_company &&\r\n                securityTokens[tokens[i]].currency==_currency &&\r\n                securityTokens[tokens[i]].isin==_isin)\r\n                    return true;\r\n        }\r\n        return false;\r\n    }\r\n\r\n    function getToken(bytes32 _currency, bytes32 _company, bytes32 _isin) external view returns(address){\r\n        for(uint i=0; i<tokens.length; i++){\r\n            if( securityTokens[tokens[i]].currency==_currency &&\r\n                securityTokens[tokens[i]].company==_company &&\r\n                securityTokens[tokens[i]].isin==_isin){\r\n                    return tokens[i];\r\n            }\r\n        }\r\n    }\r\n\r\n    function isIsinPresent(bytes32 _isin) external returns(bool){\r\n        for(uint i=0; i<tokens.length; i++){\r\n            if( securityTokens[tokens[i]].isin==_isin){\r\n                    return true;\r\n            }\r\n        }\r\n        return false;\r\n    }\r\n\r\n    function registerCorporateAction(bytes32 _category, string calldata _action, bytes32 _isin) external{\r\n        //only company or a DP/registrar can report corporate action\r\n        require(_isin!=\"\" && _category!=\"\" && stringutils.equal(_action,\"\"));\r\n        for(uint i=0; i<tokens.length; i++){\r\n            if( securityTokens[tokens[i]].isin==_isin && \r\n                (securityTokens[tokens[i]].issuer==msg.sender || VerifiedClient(clientContract).getRole(msg.sender)==\"DP\")){\r\n                corporateActions[tokens[i]][_category].push(_action);\r\n                emit CorporateAction(tokens[i], \r\n                                    securityTokens[tokens[i]].company, \r\n                                    securityTokens[tokens[i]].isin, \r\n                                    _category, _action);\r\n            }\r\n        }\r\n    }\r\n\r\n    function registerCreditScore(bytes32 _company, bytes32 _isin, bytes32 _score) external {\r\n        //only verified admin can report credit score\r\n        require(msg.sender == owner());\r\n        require(_company!=\"\" || _isin!=\"\" && _score!=\"\");\r\n        for(uint i=0; i<tokens.length; i++){\r\n            if(_company==\"\"){\r\n                if(securityTokens[tokens[i]].isin==_isin){\r\n                    securityTokens[tokens[i]].creditScore = _score;\r\n                }\r\n            }\r\n            else if(_isin==\"\"){\r\n                if(securityTokens[tokens[i]].isin!=\"\" && securityTokens[tokens[i]].company==_company){\r\n                    securityTokens[tokens[i]].creditScore = _score;\r\n                }\r\n            }\r\n            else{\r\n                if(securityTokens[tokens[i]].isin==_isin && securityTokens[tokens[i]].company==_company){\r\n                    securityTokens[tokens[i]].creditScore = _score;\r\n                }\r\n            }\r\n        }\r\n    }\r\n\r\n    function registerPrice(bytes32 _isin, bytes16 _price) external {\r\n        //only post trade contract can report price\r\n        require(msg.sender==postTradeContract);\r\n        require(_isin!=\"\" && ABDKMathQuad.cmp(_price, ABDKMathQuad.fromUInt(0))>0);\r\n        for(uint i=0; i<tokens.length; i++){\r\n            if( securityTokens[tokens[i]].isin==_isin){\r\n                securityTokens[tokens[i]].price = _price;\r\n            }\r\n        }\r\n    }\r\n\r\n    function getCorporateActions(bytes32 _isin, bytes32 _category) external view returns(string[] memory){\r\n        require(_isin!=\"\" && _category!=\"\");\r\n        for(uint i=0; i<tokens.length; i++){\r\n            if( securityTokens[tokens[i]].isin==_isin){\r\n                return corporateActions[tokens[i]][_category];\r\n            }\r\n        }\r\n    }\r\n\r\n    function getCreditScore(bytes32 _isin, bytes32 _company) external view returns(bytes32){\r\n        require(_company!=\"\" || _isin!=\"\");\r\n        bool found = false;\r\n        for(uint i=0; i<tokens.length; i++){\r\n            if(_company==\"\" && !found){\r\n                if(securityTokens[tokens[i]].isin==_isin){\r\n                    found = true;\r\n                    return securityTokens[tokens[i]].creditScore;\r\n                }\r\n            }\r\n            else if(_isin==\"\" && !found){\r\n                if(securityTokens[tokens[i]].isin!=\"\" && securityTokens[tokens[i]].company==_company){\r\n                    found = true;\r\n                    return securityTokens[tokens[i]].creditScore;\r\n                }\r\n            }\r\n            else if(!found){\r\n                if(securityTokens[tokens[i]].isin==_isin && securityTokens[tokens[i]].company==_company){\r\n                    found = true;\r\n                    return securityTokens[tokens[i]].creditScore;\r\n                }\r\n            }\r\n        }\r\n    }\r\n\r\n    function getPrice(bytes32 _isin) external view returns(bytes16){\r\n        require(_isin!=\"\");\r\n        for(uint i=0; i<tokens.length; i++){\r\n            if(securityTokens[tokens[i]].isin==_isin){\r\n                return securityTokens[tokens[i]].price;\r\n            }\r\n        }\r\n    }\r\n\r\n}",
  "sourcePath": "D:\\Code\\verified-trades\\contracts\\registry\\SecuritiesRegistry.sol",
  "compiler": {
    "name": "solc",
    "version": "0.5.7+commit.6da8b019.Emscripten.clang"
  },
  "schemaVersion": "3.4.3",
  "updatedAt": "2021-10-22T03:49:14.416Z",
  "networkType": "ethereum",
  "devdoc": {
    "methods": {
      "initialize(address)": {
        "details": "Initializes the contract setting the deployer as the initial owner."
      },
      "isOwner()": {
        "details": "Returns true if the caller is the current owner."
      },
      "owner()": {
        "details": "Returns the address of the current owner."
      },
      "renounceOwnership()": {
        "details": "Leaves the contract without owner. It will not be possible to call `onlyOwner` functions anymore. Can only be called by the current owner.     * > Note: Renouncing ownership will leave the contract without an owner, thereby removing any functionality that is only available to the owner."
      },
      "transferOwnership(address)": {
        "details": "Transfers ownership of the contract to a new account (`newOwner`). Can only be called by the current owner."
      }
    }
  },
  "userdoc": {
    "methods": {}
  }
}