{
  "contractName": "SecuritiesRegistry",
  "abi": [
    {
      "constant": true,
      "inputs": [
        {
          "name": "_salt",
          "type": "uint256"
        },
        {
          "name": "_logic",
          "type": "address"
        },
        {
          "name": "_admin",
          "type": "address"
        },
        {
          "name": "_data",
          "type": "bytes"
        },
        {
          "name": "_signature",
          "type": "bytes"
        }
      ],
      "name": "getSigner",
      "outputs": [
        {
          "name": "",
          "type": "address"
        }
      ],
      "payable": false,
      "stateMutability": "view",
      "type": "function"
    },
    {
      "constant": false,
      "inputs": [
        {
          "name": "_salt",
          "type": "uint256"
        },
        {
          "name": "_logic",
          "type": "address"
        },
        {
          "name": "_admin",
          "type": "address"
        },
        {
          "name": "_data",
          "type": "bytes"
        },
        {
          "name": "_signature",
          "type": "bytes"
        }
      ],
      "name": "deploySigned",
      "outputs": [
        {
          "name": "",
          "type": "address"
        }
      ],
      "payable": false,
      "stateMutability": "nonpayable",
      "type": "function"
    },
    {
      "constant": false,
      "inputs": [
        {
          "name": "_salt",
          "type": "uint256"
        },
        {
          "name": "_logic",
          "type": "address"
        },
        {
          "name": "_admin",
          "type": "address"
        },
        {
          "name": "_data",
          "type": "bytes"
        }
      ],
      "name": "deploy",
      "outputs": [
        {
          "name": "",
          "type": "address"
        }
      ],
      "payable": false,
      "stateMutability": "nonpayable",
      "type": "function"
    },
    {
      "constant": false,
      "inputs": [],
      "name": "renounceOwnership",
      "outputs": [],
      "payable": false,
      "stateMutability": "nonpayable",
      "type": "function"
    },
    {
      "constant": true,
      "inputs": [
        {
          "name": "_salt",
          "type": "uint256"
        },
        {
          "name": "_sender",
          "type": "address"
        }
      ],
      "name": "getDeploymentAddress",
      "outputs": [
        {
          "name": "",
          "type": "address"
        }
      ],
      "payable": false,
      "stateMutability": "view",
      "type": "function"
    },
    {
      "constant": true,
      "inputs": [],
      "name": "owner",
      "outputs": [
        {
          "name": "",
          "type": "address"
        }
      ],
      "payable": false,
      "stateMutability": "view",
      "type": "function"
    },
    {
      "constant": true,
      "inputs": [],
      "name": "isOwner",
      "outputs": [
        {
          "name": "",
          "type": "bool"
        }
      ],
      "payable": false,
      "stateMutability": "view",
      "type": "function"
    },
    {
      "constant": false,
      "inputs": [
        {
          "name": "_logic",
          "type": "address"
        },
        {
          "name": "_data",
          "type": "bytes"
        }
      ],
      "name": "deployMinimal",
      "outputs": [
        {
          "name": "proxy",
          "type": "address"
        }
      ],
      "payable": false,
      "stateMutability": "nonpayable",
      "type": "function"
    },
    {
      "constant": false,
      "inputs": [
        {
          "name": "newOwner",
          "type": "address"
        }
      ],
      "name": "transferOwnership",
      "outputs": [],
      "payable": false,
      "stateMutability": "nonpayable",
      "type": "function"
    },
    {
      "anonymous": false,
      "inputs": [
        {
          "indexed": true,
          "name": "_securityToken",
          "type": "address"
        },
        {
          "indexed": false,
          "name": "_company",
          "type": "bytes32"
        },
        {
          "indexed": false,
          "name": "_isin",
          "type": "bytes32"
        }
      ],
      "name": "SecurityCreated",
      "type": "event"
    },
    {
      "anonymous": false,
      "inputs": [
        {
          "indexed": true,
          "name": "_securityToken",
          "type": "address"
        },
        {
          "indexed": false,
          "name": "_company",
          "type": "bytes32"
        },
        {
          "indexed": false,
          "name": "_isin",
          "type": "bytes32"
        },
        {
          "indexed": false,
          "name": "_category",
          "type": "bytes32"
        },
        {
          "indexed": false,
          "name": "_action",
          "type": "string"
        }
      ],
      "name": "CorporateAction",
      "type": "event"
    },
    {
      "anonymous": false,
      "inputs": [
        {
          "indexed": false,
          "name": "proxy",
          "type": "address"
        }
      ],
      "name": "ProxyCreated",
      "type": "event"
    },
    {
      "anonymous": false,
      "inputs": [
        {
          "indexed": true,
          "name": "previousOwner",
          "type": "address"
        },
        {
          "indexed": true,
          "name": "newOwner",
          "type": "address"
        }
      ],
      "name": "OwnershipTransferred",
      "type": "event"
    },
    {
      "constant": false,
      "inputs": [
        {
          "name": "sender",
          "type": "address"
        }
      ],
      "name": "initialize",
      "outputs": [],
      "payable": false,
      "stateMutability": "nonpayable",
      "type": "function"
    },
    {
      "constant": false,
      "inputs": [
        {
          "name": "_viaFactory",
          "type": "address"
        },
        {
          "name": "_poolFactory",
          "type": "address"
        },
        {
          "name": "_preTradeContract",
          "type": "address"
        },
        {
          "name": "_tradeContract",
          "type": "address"
        },
        {
          "name": "_postTradeContract",
          "type": "address"
        },
        {
          "name": "_clientContract",
          "type": "address"
        }
      ],
      "name": "initialize",
      "outputs": [],
      "payable": false,
      "stateMutability": "nonpayable",
      "type": "function"
    },
    {
      "constant": false,
      "inputs": [
        {
          "name": "_issuer",
          "type": "address"
        },
        {
          "name": "_security",
          "type": "address"
        },
        {
          "name": "_currency",
          "type": "bytes32"
        },
        {
          "name": "_company",
          "type": "bytes32"
        },
        {
          "name": "_isin",
          "type": "bytes32"
        }
      ],
      "name": "createSecurity",
      "outputs": [],
      "payable": false,
      "stateMutability": "nonpayable",
      "type": "function"
    },
    {
      "constant": true,
      "inputs": [
        {
          "name": "_currency",
          "type": "bytes32"
        },
        {
          "name": "_company",
          "type": "bytes32"
        },
        {
          "name": "_isin",
          "type": "bytes32"
        }
      ],
      "name": "getToken",
      "outputs": [
        {
          "name": "",
          "type": "address"
        }
      ],
      "payable": false,
      "stateMutability": "view",
      "type": "function"
    },
    {
      "constant": false,
      "inputs": [
        {
          "name": "_isin",
          "type": "bytes32"
        }
      ],
      "name": "isIsinPresent",
      "outputs": [
        {
          "name": "",
          "type": "bool"
        }
      ],
      "payable": false,
      "stateMutability": "nonpayable",
      "type": "function"
    },
    {
      "constant": false,
      "inputs": [
        {
          "name": "_category",
          "type": "bytes32"
        },
        {
          "name": "_action",
          "type": "string"
        },
        {
          "name": "_isin",
          "type": "bytes32"
        }
      ],
      "name": "registerCorporateAction",
      "outputs": [],
      "payable": false,
      "stateMutability": "nonpayable",
      "type": "function"
    },
    {
      "constant": false,
      "inputs": [
        {
          "name": "_company",
          "type": "bytes32"
        },
        {
          "name": "_isin",
          "type": "bytes32"
        },
        {
          "name": "_score",
          "type": "bytes32"
        }
      ],
      "name": "registerCreditScore",
      "outputs": [],
      "payable": false,
      "stateMutability": "nonpayable",
      "type": "function"
    },
    {
      "constant": false,
      "inputs": [
        {
          "name": "_isin",
          "type": "bytes32"
        },
        {
          "name": "_price",
          "type": "bytes16"
        }
      ],
      "name": "registerPrice",
      "outputs": [],
      "payable": false,
      "stateMutability": "nonpayable",
      "type": "function"
    },
    {
      "constant": true,
      "inputs": [
        {
          "name": "_isin",
          "type": "bytes32"
        },
        {
          "name": "_category",
          "type": "bytes32"
        }
      ],
      "name": "getCorporateActions",
      "outputs": [
        {
          "name": "",
          "type": "string[]"
        }
      ],
      "payable": false,
      "stateMutability": "view",
      "type": "function"
    },
    {
      "constant": true,
      "inputs": [
        {
          "name": "_isin",
          "type": "bytes32"
        },
        {
          "name": "_company",
          "type": "bytes32"
        }
      ],
      "name": "getCreditScore",
      "outputs": [
        {
          "name": "",
          "type": "bytes32"
        }
      ],
      "payable": false,
      "stateMutability": "view",
      "type": "function"
    },
    {
      "constant": true,
      "inputs": [
        {
          "name": "_isin",
          "type": "bytes32"
        }
      ],
      "name": "getPrice",
      "outputs": [
        {
          "name": "",
          "type": "bytes16"
        }
      ],
      "payable": false,
      "stateMutability": "view",
      "type": "function"
    }
  ],
  "bytecode": "0x6080604081905261001060a0610034565b601f1982820381018352601f90910116604052805160209190910120606655610042565b6109a6806200339583390190565b61334380620000526000396000f3fe608060405234801561001057600080fd5b506004361061012c5760003560e01c80638da5cb5b116100ad578063b3eeb5e211610071578063b3eeb5e214610279578063c4d66de81461028c578063cc2a9a5b1461029f578063efcfbbb6146102b2578063f2fde38b146102c55761012c565b80638da5cb5b146102165780638f32d59b1461021e5780639c3acea0146102335780639d052f8f14610246578063ae612782146102595761012c565b80635633f401116100f45780635633f401146101c257806360eba6b9146101d55780636150864c146101e8578063715018a6146101fb57806381ae1f5b146102035761012c565b8063238a37291461013157806328123e9714610146578063290f8f561461016f57806331d98b3f1461018f578063332d6626146101af575b600080fd5b61014461013f36600461207a565b6102d8565b005b61015961015436600461204a565b61050f565b60405161016691906126e9565b60405180910390f35b61018261017d3660046121ce565b610723565b604051610166919061263f565b6101a261019d366004611fde565b610776565b60405161016691906126db565b6101826101bd3660046121ce565b610823565b6101446101d0366004611ef9565b610874565b6101446101e33660046120c7565b610b51565b6101826101f6366004612161565b610e76565b610144610e90565b610182610211366004612131565b610f01565b610182610f5c565b610226610f6c565b60405161016691906126cd565b61018261024136600461207a565b610f92565b61014461025436600461201a565b61109f565b61026c61026736600461204a565b611190565b60405161016691906126bc565b610182610287366004611f6e565b611316565b61014461029a366004611e36565b611421565b6101446102ad366004611e72565b6114f7565b6102266102c0366004611fde565b6115ee565b6101446102d3366004611e36565b611657565b6102e0610f5c565b6001600160a01b0316336001600160a01b0316146102fd57600080fd5b821515806103145750811580159061031457508015155b61031d57600080fd5b60005b606e5481101561050957836103af5782606d6000606e848154811061034157fe5b60009182526020808320909101546001600160a01b0316835282019290925260400190206002015414156103aa5781606d6000606e848154811061038157fe5b60009182526020808320909101546001600160a01b031683528201929092526040019020600301555b610501565b8261044657606d6000606e83815481106103c557fe5b60009182526020808320909101546001600160a01b031683528201929092526040019020600201541580159061042f575083606d6000606e848154811061040857fe5b60009182526020808320909101546001600160a01b03168352820192909252604001902054145b156103aa5781606d6000606e848154811061038157fe5b82606d6000606e848154811061045857fe5b60009182526020808320909101546001600160a01b031683528201929092526040019020600201541480156104c1575083606d6000606e848154811061049a57fe5b60009182526020808320909101546001600160a01b03168352820192909252604001902054145b156105015781606d6000606e84815481106104d857fe5b60009182526020808320909101546001600160a01b031683528201929092526040019020600301555b600101610320565b50505050565b60008115158061051e57508215155b61052757600080fd5b6000805b606e5481101561071a5783158015610541575081155b156105d25784606d6000606e848154811061055857fe5b60009182526020808320909101546001600160a01b0316835282019290925260400190206002015414156105cd5760019150606d6000606e838154811061059b57fe5b60009182526020808320909101546001600160a01b03168352820192909252604001902060030154925061071d915050565b610712565b841580156105de575081155b1561067857606d6000606e83815481106105f457fe5b60009182526020808320909101546001600160a01b031683528201929092526040019020600201541580159061065e575083606d6000606e848154811061063757fe5b60009182526020808320909101546001600160a01b03168352820192909252604001902054145b156105cd5760019150606d6000606e838154811061059b57fe5b816107125784606d6000606e848154811061068f57fe5b60009182526020808320909101546001600160a01b031683528201929092526040019020600201541480156106f8575083606d6000606e84815481106106d157fe5b60009182526020808320909101546001600160a01b03168352820192909252604001902054145b156107125760019150606d6000606e838154811061059b57fe5b60010161052b565b50505b92915050565b60008061075d87878787306040516020016107429594939291906125ea565b6040516020818303038152906040528051906020012061168a565b905061076981846116ba565b9150505b95945050505050565b60008161078257600080fd5b60005b606e5481101561081c5782606d6000606e84815481106107a157fe5b60009182526020808320909101546001600160a01b03168352820192909252604001902060020154141561081457606d6000606e83815481106107e057fe5b60009182526020808320909101546001600160a01b0316835282019290925260400190206004015460801b915061081e9050565b600101610785565b505b919050565b6000806108338787878787610723565b90506001600160a01b03811661086757604051600160e51b62461bcd02815260040161085e9061282b565b60405180910390fd5b6107698787878785611796565b6069546001600160a01b0316331461088b57600080fd5b606754604051600160e21b633cd163c50281526000916001600160a01b03169063f3458f14906108bf9087906004016127a7565b60206040518083038186803b1580156108d757600080fd5b505afa1580156108eb573d6000803e3d6000fd5b505050506040513d601f19601f8201168201806040525061090f9190810190611e54565b90506001600160a01b03811661092457600080fd5b61092f83858461184b565b610b4957606954606a54606b54606c5460405160609461096c94899489946001600160a01b03938416949284169391821692911690602401612712565b60408051601f198184030181529190526020810180516001600160e01b0316600160e21b632274a71302179052905060006109a78783611316565b9050806001600160a01b03167f3764ea16923224fe01f294f126d6c567957421fa98162b2496ccced3cad5e8b586866040516109e49291906126f7565b60405180910390a26040518060c00160405280868152602001878152602001858152602001600160e01b636e6f6e65028152602001610a236000611939565b6001600160801b031990811682526001600160a01b03808c166020938401528481166000818152606d855260408082208751815595870151600180880191909155878201516002880155606088015160038801556080808901516004808a0180549290931c9190981617905560a090970151600590960180549685166001600160a01b0319978816179055606e805497880181559091527f9930d9ff0dee0ef5ca2f7710ea66b8f84dd0f5f5351ecffe72b952cd9db7142a9095018054909416179092556068549251600160e11b635ca76fdf028152929091169163b94edfbe91610b1491859188918c910161265b565b600060405180830381600087803b158015610b2e57600080fd5b505af1158015610b42573d6000803e3d6000fd5b5050505050505b505050505050565b8015801590610b5f57508315155b8015610bf25750604051600160e11b63235ee54d02815273__stringutils___________________________906346bdca9a90610ba290869086906004016127f6565b60206040518083038186803b158015610bba57600080fd5b505af4158015610bce573d6000803e3d6000fd5b505050506040513d601f19601f82011682018060405250610bf29190810190611fc0565b610bfb57600080fd5b60005b606e54811015610e6f5781606d6000606e8481548110610c1a57fe5b60009182526020808320909101546001600160a01b03168352820192909252604001902060020154148015610d285750336001600160a01b0316606d6000606e8481548110610c6557fe5b60009182526020808320909101546001600160a01b039081168452908301939093526040909101902060050154161480610d285750606c54604051600160e01b63442767330281526001600160a01b0390911690634427673390610ccd90339060040161264d565b60206040518083038186803b158015610ce557600080fd5b505afa158015610cf9573d6000803e3d6000fd5b505050506040513d601f19601f82011682018060405250610d1d9190810190611ffc565b600160f41b61044502145b15610e6757606f6000606e8381548110610d3e57fe5b60009182526020808320909101546001600160a01b0316835282810193909352604091820181208882528352908120805460018101808355918352929091209091610d8b91018686611cac565b5050606e8181548110610d9a57fe5b6000918252602082200154606e80546001600160a01b03909216927f13f0b715205615fc42bd97db9e718f62f1ffe5551c3fdcc9822e1af2963fb8cb92606d929086908110610de557fe5b60009182526020808320909101546001600160a01b03168352820192909252604001812054606e80549192606d9290919087908110610e2057fe5b60009182526020808320909101546001600160a01b031683528201929092526040908101909120600201549051610e5e9291908a908a908a9061276c565b60405180910390a25b600101610bfe565b5050505050565b6000610e858585858533611796565b90505b949350505050565b610e98610f6c565b610eb757604051600160e51b62461bcd02815260040161085e9061283b565b6033546040516000916001600160a01b0316907f8be0079c531659141344cd1fd0a4f28419497f9722a3daafe3b4186f6b6457e0908390a3603380546001600160a01b0319169055565b600080610f0e84846119a5565b606654604051919250600091610f34916001600160f81b03199130918691602001612550565b60408051601f198184030181529190528051602090910120606090811b901c95945050505050565b6033546001600160a01b03165b90565b6033546000906001600160a01b0316610f836119d8565b6001600160a01b031614905090565b6000805b606e548110156110965784606d6000606e8481548110610fb257fe5b60009182526020808320909101546001600160a01b0316835282019290925260400190206001015414801561101b575083606d6000606e8481548110610ff457fe5b60009182526020808320909101546001600160a01b03168352820192909252604001902054145b801561105e575082606d6000606e848154811061103457fe5b60009182526020808320909101546001600160a01b03168352820192909252604001902060020154145b1561108e57606e818154811061107057fe5b6000918252602090912001546001600160a01b031691506110989050565b600101610f96565b505b9392505050565b606b546001600160a01b031633146110b657600080fd5b81158015906110da575060006110d5826110d06000611939565b6119dc565b60000b135b6110e357600080fd5b60005b606e5481101561118b5782606d6000606e848154811061110257fe5b60009182526020808320909101546001600160a01b0316835282019290925260400190206002015414156111835781606d6000606e848154811061114257fe5b6000918252602080832091909101546001600160a01b03168352820192909252604001902060040180546001600160801b03191660809290921c9190911790555b6001016110e6565b505050565b606082158015906111a057508115155b6111a957600080fd5b60005b606e5481101561130f5783606d6000606e84815481106111c857fe5b60009182526020808320909101546001600160a01b03168352820192909252604001902060020154141561130757606f6000606e838154811061120757fe5b60009182526020808320909101546001600160a01b0316835282810193909352604091820181208682528352818120805483518186028101860190945280845292939092919084015b828210156112fb5760008481526020908190208301805460408051601f60026000196101006001871615020190941693909304928301859004850281018501909152818152928301828280156112e75780601f106112bc576101008083540402835291602001916112e7565b820191906000526020600020905b8154815290600101906020018083116112ca57829003601f168201915b505050505081526020019060010190611250565b5050505091505061071d565b6001016111ac565b5092915050565b6000808360601b90506040517f3d602d80600a3d3981f3363d3d373d3d3d363d7300000000000000000000000081528160148201527f5af43d82803e903d91602b57fd5bf3000000000000000000000000000000000060288201526037816000f09250507efffc2da0b561cae30d9826d37709e9421c4725faebc226cbbb7ef5fc5e7349826040516113a8919061263f565b60405180910390a182511561130f576000826001600160a01b0316846040516113d19190612598565b6000604051808303816000865af19150503d806000811461140e576040519150601f19603f3d011682016040523d82523d6000602084013e611413565b606091505b505090508061071a57600080fd5b600054610100900460ff168061143a575061143a611b25565b80611448575060005460ff16155b61146757604051600160e51b62461bcd02815260040161085e9061284b565b600054610100900460ff16158015611492576000805460ff1961ff0019909116610100171660011790555b603380546001600160a01b0319166001600160a01b0384811691909117918290556040519116906000907f8be0079c531659141344cd1fd0a4f28419497f9722a3daafe3b4186f6b6457e0908290a380156114f3576000805461ff00191690555b5050565b600054610100900460ff16806115105750611510611b25565b8061151e575060005460ff16155b61153d57604051600160e51b62461bcd02815260040161085e9061284b565b600054610100900460ff16158015611568576000805460ff1961ff0019909116610100171660011790555b61157133611421565b606780546001600160a01b03199081166001600160a01b038a811691909117909255606880548216898416179055606980548216888416179055606a80548216878416179055606b80548216868416179055606c805490911691841691909117905580156115e5576000805461ff00191690555b50505050505050565b6000805b606e5481101561164e5782606d6000606e848154811061160e57fe5b60009182526020808320909101546001600160a01b03168352820192909252604001902060020154141561164657600191505061081e565b6001016115f2565b50600092915050565b61165f610f6c565b61167e57604051600160e51b62461bcd02815260040161085e9061283b565b61168781611b2b565b50565b60008160405160200161169d91906125a4565b604051602081830303815290604052805190602001209050919050565b600081516041146116cd5750600061071d565b60208201516040830151606084015160001a7f7fffffffffffffffffffffffffffffff5d576e7357a4501ddfe92f46681b20a0821115611713576000935050505061071d565b8060ff16601b1415801561172b57508060ff16601c14155b1561173c576000935050505061071d565b6001868285856040516000815260200160405260405161175f94939291906127c1565b6020604051602081039080840390855afa158015611781573d6000803e3d6000fd5b5050604051601f190151979650505050505050565b6000806117a38784611bb0565b90507efffc2da0b561cae30d9826d37709e9421c4725faebc226cbbb7ef5fc5e7349816040516117d3919061264d565b60405180910390a1604051600160e01b63cf7a1d770281526001600160a01b0382169063cf7a1d779061180e9089908990899060040161268f565b600060405180830381600087803b15801561182857600080fd5b505af115801561183c573d6000803e3d6000fd5b50929998505050505050505050565b6000805b606e5481101561192e5784606d6000606e848154811061186b57fe5b60009182526020808320909101546001600160a01b031683528201929092526040019020541480156118d4575083606d6000606e84815481106118aa57fe5b60009182526020808320909101546001600160a01b03168352820192909252604001902060010154145b8015611917575082606d6000606e84815481106118ed57fe5b60009182526020808320909101546001600160a01b03168352820192909252604001902060020154145b15611926576001915050611098565b60010161184f565b506000949350505050565b6000816119485750600061081e565b81600061195482611c09565b9050607081101561196d578060700382901b9150611980565b6070811115611980576070810382901c91505b613fff0160701b6dffffffffffffffffffffffffffff919091161760801b905061081e565b600082826040516020016119ba9291906125c4565b60405160208183030381529060405280519060200120905092915050565b3390565b600060016001607f1b03608084901c16600160701b617fff02811115611a0157600080fd5b60016001607f1b03608084901c16600160701b617fff02811115611a2457600080fd5b6001600160801b0319858116908516141580611a505750600160701b617fff02826001600160801b0316105b611a5957600080fd5b6001600160801b03198581169085161415611a795760009250505061071d565b60006001607f1b8660801c6001600160801b03161015905060006001607f1b8660801c6001600160801b0316101590508115611ae4578015611ad557826001600160801b0316846001600160801b031611611ad5576001611ad9565b6000195b94505050505061071d565b8015611af757600194505050505061071d565b826001600160801b0316846001600160801b031611611b1857600019611ad9565b600194505050505061071d565b303b1590565b6001600160a01b038116611b5457604051600160e51b62461bcd02815260040161085e9061281b565b6033546040516001600160a01b038084169216907f8be0079c531659141344cd1fd0a4f28419497f9722a3daafe3b4186f6b6457e090600090a3603380546001600160a01b0319166001600160a01b0392909216919091179055565b600080606060405180602001611bc590611d2a565b601f1982820381018352601f9091011660405290506000611be686866119a5565b9050808251602084016000f59250823b611bff57600080fd5b5090949350505050565b6000808211611c1757600080fd5b6000600160801b8310611c2c57608092831c92015b680100000000000000008310611c4457604092831c92015b6401000000008310611c5857602092831c92015b620100008310611c6a57601092831c92015b6101008310611c7b57600892831c92015b60108310611c8b57600492831c92015b60048310611c9b57600292831c92015b6002831061071d5760010192915050565b828054600181600116156101000203166002900490600052602060002090601f016020900481019282601f10611ced5782800160ff19823516178555611d1a565b82800160010185558215611d1a579182015b82811115611d1a578235825591602001919060010190611cff565b50611d26929150611d37565b5090565b6109a68061296483390190565b610f6991905b80821115611d265760008155600101611d3d565b600061109882356128bd565b600061109882516128bd565b600061109882516128c8565b600061109882356128da565b60006110988235610f69565b60006110988251610f69565b600082601f830112611daa57600080fd5b8135611dbd611db882612882565b61285b565b91508082526020830160208301858383011115611dd957600080fd5b611de483828461290a565b50505092915050565b60008083601f840112611dff57600080fd5b50813567ffffffffffffffff811115611e1757600080fd5b602083019150836001820283011115611e2f57600080fd5b9250929050565b600060208284031215611e4857600080fd5b6000610e888484611d51565b600060208284031215611e6657600080fd5b6000610e888484611d5d565b60008060008060008060c08789031215611e8b57600080fd5b6000611e978989611d51565b9650506020611ea889828a01611d51565b9550506040611eb989828a01611d51565b9450506060611eca89828a01611d51565b9350506080611edb89828a01611d51565b92505060a0611eec89828a01611d51565b9150509295509295509295565b600080600080600060a08688031215611f1157600080fd5b6000611f1d8888611d51565b9550506020611f2e88828901611d51565b9450506040611f3f88828901611d81565b9350506060611f5088828901611d81565b9250506080611f6188828901611d81565b9150509295509295909350565b60008060408385031215611f8157600080fd5b6000611f8d8585611d51565b925050602083013567ffffffffffffffff811115611faa57600080fd5b611fb685828601611d99565b9150509250929050565b600060208284031215611fd257600080fd5b6000610e888484611d69565b600060208284031215611ff057600080fd5b6000610e888484611d81565b60006020828403121561200e57600080fd5b6000610e888484611d8d565b6000806040838503121561202d57600080fd5b60006120398585611d81565b9250506020611fb685828601611d75565b6000806040838503121561205d57600080fd5b60006120698585611d81565b9250506020611fb685828601611d81565b60008060006060848603121561208f57600080fd5b600061209b8686611d81565b93505060206120ac86828701611d81565b92505060406120bd86828701611d81565b9150509250925092565b600080600080606085870312156120dd57600080fd5b60006120e98787611d81565b945050602085013567ffffffffffffffff81111561210657600080fd5b61211287828801611ded565b9350935050604061212587828801611d81565b91505092959194509250565b6000806040838503121561214457600080fd5b60006121508585611d81565b9250506020611fb685828601611d51565b6000806000806080858703121561217757600080fd5b60006121838787611d81565b945050602061219487828801611d51565b93505060406121a587828801611d51565b925050606085013567ffffffffffffffff8111156121c257600080fd5b61212587828801611d99565b600080600080600060a086880312156121e657600080fd5b60006121f28888611d81565b955050602061220388828901611d51565b945050604061221488828901611d51565b935050606086013567ffffffffffffffff81111561223157600080fd5b61223d88828901611d99565b925050608086013567ffffffffffffffff81111561225a57600080fd5b611f6188828901611d99565b6000611098838361233d565b61227b816128f9565b82525050565b61227b816128bd565b61227b612296826128bd565b612942565b60006122a6826128b0565b6122b081856128b4565b9350836020820285016122c2856128aa565b60005b848110156122f95783830388526122dd838351612266565b92506122e8826128aa565b6020989098019791506001016122c5565b50909695505050505050565b61227b816128c8565b61227b816128da565b61227b612323826128cd565b610f69565b61227b81610f69565b61227b61232382610f69565b6000612348826128b0565b61235281856128b4565b9350612362818560208601612916565b61236b81612953565b9093019392505050565b6000612380826128b0565b61238a818561081e565b935061239a818560208601612916565b9290920192915050565b60006123b083856128b4565b93506123bd83858461290a565b61236b83612953565b60006123d3601c8361081e565b7f19457468657265756d205369676e6564204d6573736167653a0a3332000000008152601c0192915050565b600061240c6026836128b4565b7f4f776e61626c653a206e6577206f776e657220697320746865207a65726f20618152600160d01b6564647265737302602082015260400192915050565b600160f41b610445029052565b600160cb1b660acd2c286c2e6d029052565b60006124766011836128b4565b7f496e76616c6964207369676e6174757265000000000000000000000000000000815260200192915050565b60006124af6020836128b4565b7f4f776e61626c653a2063616c6c6572206973206e6f7420746865206f776e6572815260200192915050565b60006124e8602e836128b4565b7f436f6e747261637420696e7374616e63652068617320616c726561647920626581527f656e20696e697469616c697a6564000000000000000000000000000000000000602082015260400192915050565b600061071d6000836128b4565b61227b816128f3565b600061255c8287612317565b60018201915061256c828661228a565b60148201915061257c8285612331565b60208201915061258c8284612331565b50602001949350505050565b60006110988284612375565b60006125af826123c6565b91506125bb8284612331565b50602001919050565b60006125d08285612331565b6020820191506125e0828461228a565b5060140192915050565b60006125f68288612331565b602082019150612606828761228a565b601482019150612616828661228a565b6014820191506126268285612375565b9150612632828461228a565b5060140195945050505050565b6020810161071d8284612281565b6020810161071d8284612272565b608081016126698286612281565b6126766020830185612281565b6126836040830184612328565b610e886060830161244a565b6060810161269d8286612281565b6126aa6020830185612281565b8181036040830152610e85818461233d565b60208082528101611098818461229b565b6020810161071d8284612305565b6020810161071d828461230e565b6020810161071d8284612328565b604081016127058285612328565b6110986020830184612328565b60c081016127208289612328565b61272d6020830188612328565b61273a6040830187612281565b6127476060830186612281565b6127546080830185612281565b61276160a0830184612281565b979650505050505050565b6080810161277a8288612328565b6127876020830187612328565b6127946040830186612328565b81810360608301526127618184866123a4565b604081016127b58284612328565b61071d60208301612457565b608081016127cf8287612328565b6127dc6020830186612547565b6127e96040830185612328565b61076d6060830184612328565b604080825281016128088184866123a4565b90508181036020830152610e888161253a565b6020808252810161071d816123ff565b6020808252810161071d81612469565b6020808252810161071d816124a2565b6020808252810161071d816124db565b60405181810167ffffffffffffffff8111828210171561287a57600080fd5b604052919050565b600067ffffffffffffffff82111561289957600080fd5b506020601f91909101601f19160190565b60200190565b5190565b90815260200190565b600061071d826128e7565b151590565b6001600160f81b03191690565b6001600160801b03191690565b6001600160a01b031690565b60ff1690565b600061071d82600061071d826128bd565b82818337506000910152565b60005b83811015612931578181015183820152602001612919565b838111156105095750506000910152565b600061071d82600061071d8261295d565b601f01601f191690565b60601b9056fe608060405234801561001057600080fd5b50610986806100206000396000f3fe6080604052600436106100705760003560e01c80638f2839701161004e5780638f2839701461015e578063cf7a1d7714610191578063d1f5789414610250578063f851a4401461030657610070565b80633659cfe61461007a5780634f1ef286146100ad5780635c60da1b1461012d575b61007861031b565b005b34801561008657600080fd5b506100786004803603602081101561009d57600080fd5b50356001600160a01b0316610335565b610078600480360360408110156100c357600080fd5b6001600160a01b0382351691908101906040810160208201356401000000008111156100ee57600080fd5b82018360208201111561010057600080fd5b8035906020019184600183028401116401000000008311171561012257600080fd5b50909250905061036f565b34801561013957600080fd5b5061014261041c565b604080516001600160a01b039092168252519081900360200190f35b34801561016a57600080fd5b506100786004803603602081101561018157600080fd5b50356001600160a01b0316610459565b610078600480360360608110156101a757600080fd5b6001600160a01b0382358116926020810135909116918101906060810160408201356401000000008111156101db57600080fd5b8201836020820111156101ed57600080fd5b8035906020019184600183028401116401000000008311171561020f57600080fd5b91908080601f016020809104026020016040519081016040528093929190818152602001838380828437600092019190915250929550610516945050505050565b6100786004803603604081101561026657600080fd5b6001600160a01b03823516919081019060408101602082013564010000000081111561029157600080fd5b8201836020820111156102a357600080fd5b803590602001918460018302840111640100000000831117156102c557600080fd5b91908080601f0160208091040260200160405190810160405280939291908181526020018383808284376000920191909152509295506105a6945050505050565b34801561031257600080fd5b506101426106e6565b610323610711565b61033361032e610774565b610799565b565b61033d6107bd565b6001600160a01b0316336001600160a01b031614156103645761035f816107e2565b61036c565b61036c61031b565b50565b6103776107bd565b6001600160a01b0316336001600160a01b0316141561040f57610399836107e2565b6000836001600160a01b031683836040518083838082843760405192019450600093509091505080830381855af49150503d80600081146103f6576040519150601f19603f3d011682016040523d82523d6000602084013e6103fb565b606091505b505090508061040957600080fd5b50610417565b61041761031b565b505050565b60006104266107bd565b6001600160a01b0316336001600160a01b0316141561044e57610447610774565b9050610456565b61045661031b565b90565b6104616107bd565b6001600160a01b0316336001600160a01b03161415610364576001600160a01b0381166104c257604051600160e51b62461bcd0281526004018080602001828103825260368152602001806108ea6036913960400191505060405180910390fd5b7f7e644d79422f17c01e4894b5f4f588d331ebfa28653d42ae832dc59e38c9798f6104eb6107bd565b604080516001600160a01b03928316815291841660208301528051918290030190a161035f81610822565b6000610520610774565b6001600160a01b03161461053357600080fd5b61053d83826105a6565b604080517f656970313936372e70726f78792e61646d696e00000000000000000000000000815290519081900360130190207fb53127684a568b3173ae13b9f8a6016e243e63b6e8ee1178d6a717850b5d61036000199091011461059d57fe5b61041782610822565b60006105b0610774565b6001600160a01b0316146105c357600080fd5b604080517f656970313936372e70726f78792e696d706c656d656e746174696f6e000000008152905190819003601c0190207f360894a13ba1a3210667c828492db98dca3e2076cc3735a920a3ca505d382bbc6000199091011461062357fe5b61062c82610846565b8051156106e2576000826001600160a01b0316826040518082805190602001908083835b6020831061066f5780518252601f199092019160209182019101610650565b6001836020036101000a038019825116818451168082178552505050505050905001915050600060405180830381855af49150503d80600081146106cf576040519150601f19603f3d011682016040523d82523d6000602084013e6106d4565b606091505b505090508061041757600080fd5b5050565b60006106f06107bd565b6001600160a01b0316336001600160a01b0316141561044e576104476107bd565b6107196107bd565b6001600160a01b0316336001600160a01b0316141561076c57604051600160e51b62461bcd0281526004018080602001828103825260328152602001806108b86032913960400191505060405180910390fd5b610333610333565b7f360894a13ba1a3210667c828492db98dca3e2076cc3735a920a3ca505d382bbc5490565b3660008037600080366000845af43d6000803e8080156107b8573d6000f35b3d6000fd5b7fb53127684a568b3173ae13b9f8a6016e243e63b6e8ee1178d6a717850b5d61035490565b6107eb81610846565b6040516001600160a01b038216907fbc7cd75a20ee27fd9adebab32041f755214dbc6bffa90cc0225b39da2e5c2d3b90600090a250565b7fb53127684a568b3173ae13b9f8a6016e243e63b6e8ee1178d6a717850b5d610355565b61084f816108b1565b61088d57604051600160e51b62461bcd02815260040180806020018281038252603b815260200180610920603b913960400191505060405180910390fd5b7f360894a13ba1a3210667c828492db98dca3e2076cc3735a920a3ca505d382bbc55565b3b15159056fe43616e6e6f742063616c6c2066616c6c6261636b2066756e6374696f6e2066726f6d207468652070726f78792061646d696e43616e6e6f74206368616e6765207468652061646d696e206f6620612070726f787920746f20746865207a65726f206164647265737343616e6e6f742073657420612070726f787920696d706c656d656e746174696f6e20746f2061206e6f6e2d636f6e74726163742061646472657373a165627a7a72305820acd86240912c703ba88ccefef3db77e88d3507353c7c194b0b27eed571ae96c90029a265627a7a72305820ca03bb604bb4c2c347f3516017bdd69d769481b463da122d937a4c272dd9526d6c6578706572696d656e74616cf50037608060405234801561001057600080fd5b50610986806100206000396000f3fe6080604052600436106100705760003560e01c80638f2839701161004e5780638f2839701461015e578063cf7a1d7714610191578063d1f5789414610250578063f851a4401461030657610070565b80633659cfe61461007a5780634f1ef286146100ad5780635c60da1b1461012d575b61007861031b565b005b34801561008657600080fd5b506100786004803603602081101561009d57600080fd5b50356001600160a01b0316610335565b610078600480360360408110156100c357600080fd5b6001600160a01b0382351691908101906040810160208201356401000000008111156100ee57600080fd5b82018360208201111561010057600080fd5b8035906020019184600183028401116401000000008311171561012257600080fd5b50909250905061036f565b34801561013957600080fd5b5061014261041c565b604080516001600160a01b039092168252519081900360200190f35b34801561016a57600080fd5b506100786004803603602081101561018157600080fd5b50356001600160a01b0316610459565b610078600480360360608110156101a757600080fd5b6001600160a01b0382358116926020810135909116918101906060810160408201356401000000008111156101db57600080fd5b8201836020820111156101ed57600080fd5b8035906020019184600183028401116401000000008311171561020f57600080fd5b91908080601f016020809104026020016040519081016040528093929190818152602001838380828437600092019190915250929550610516945050505050565b6100786004803603604081101561026657600080fd5b6001600160a01b03823516919081019060408101602082013564010000000081111561029157600080fd5b8201836020820111156102a357600080fd5b803590602001918460018302840111640100000000831117156102c557600080fd5b91908080601f0160208091040260200160405190810160405280939291908181526020018383808284376000920191909152509295506105a6945050505050565b34801561031257600080fd5b506101426106e6565b610323610711565b61033361032e610774565b610799565b565b61033d6107bd565b6001600160a01b0316336001600160a01b031614156103645761035f816107e2565b61036c565b61036c61031b565b50565b6103776107bd565b6001600160a01b0316336001600160a01b0316141561040f57610399836107e2565b6000836001600160a01b031683836040518083838082843760405192019450600093509091505080830381855af49150503d80600081146103f6576040519150601f19603f3d011682016040523d82523d6000602084013e6103fb565b606091505b505090508061040957600080fd5b50610417565b61041761031b565b505050565b60006104266107bd565b6001600160a01b0316336001600160a01b0316141561044e57610447610774565b9050610456565b61045661031b565b90565b6104616107bd565b6001600160a01b0316336001600160a01b03161415610364576001600160a01b0381166104c257604051600160e51b62461bcd0281526004018080602001828103825260368152602001806108ea6036913960400191505060405180910390fd5b7f7e644d79422f17c01e4894b5f4f588d331ebfa28653d42ae832dc59e38c9798f6104eb6107bd565b604080516001600160a01b03928316815291841660208301528051918290030190a161035f81610822565b6000610520610774565b6001600160a01b03161461053357600080fd5b61053d83826105a6565b604080517f656970313936372e70726f78792e61646d696e00000000000000000000000000815290519081900360130190207fb53127684a568b3173ae13b9f8a6016e243e63b6e8ee1178d6a717850b5d61036000199091011461059d57fe5b61041782610822565b60006105b0610774565b6001600160a01b0316146105c357600080fd5b604080517f656970313936372e70726f78792e696d706c656d656e746174696f6e000000008152905190819003601c0190207f360894a13ba1a3210667c828492db98dca3e2076cc3735a920a3ca505d382bbc6000199091011461062357fe5b61062c82610846565b8051156106e2576000826001600160a01b0316826040518082805190602001908083835b6020831061066f5780518252601f199092019160209182019101610650565b6001836020036101000a038019825116818451168082178552505050505050905001915050600060405180830381855af49150503d80600081146106cf576040519150601f19603f3d011682016040523d82523d6000602084013e6106d4565b606091505b505090508061041757600080fd5b5050565b60006106f06107bd565b6001600160a01b0316336001600160a01b0316141561044e576104476107bd565b6107196107bd565b6001600160a01b0316336001600160a01b0316141561076c57604051600160e51b62461bcd0281526004018080602001828103825260328152602001806108b86032913960400191505060405180910390fd5b610333610333565b7f360894a13ba1a3210667c828492db98dca3e2076cc3735a920a3ca505d382bbc5490565b3660008037600080366000845af43d6000803e8080156107b8573d6000f35b3d6000fd5b7fb53127684a568b3173ae13b9f8a6016e243e63b6e8ee1178d6a717850b5d61035490565b6107eb81610846565b6040516001600160a01b038216907fbc7cd75a20ee27fd9adebab32041f755214dbc6bffa90cc0225b39da2e5c2d3b90600090a250565b7fb53127684a568b3173ae13b9f8a6016e243e63b6e8ee1178d6a717850b5d610355565b61084f816108b1565b61088d57604051600160e51b62461bcd02815260040180806020018281038252603b815260200180610920603b913960400191505060405180910390fd5b7f360894a13ba1a3210667c828492db98dca3e2076cc3735a920a3ca505d382bbc55565b3b15159056fe43616e6e6f742063616c6c2066616c6c6261636b2066756e6374696f6e2066726f6d207468652070726f78792061646d696e43616e6e6f74206368616e6765207468652061646d696e206f6620612070726f787920746f20746865207a65726f206164647265737343616e6e6f742073657420612070726f787920696d706c656d656e746174696f6e20746f2061206e6f6e2d636f6e74726163742061646472657373a165627a7a72305820acd86240912c703ba88ccefef3db77e88d3507353c7c194b0b27eed571ae96c90029",
  "source": "// Registry of registered securities\r\n// (c) Kallol Borah, 2021\r\n\r\npragma solidity 0.5.7;\r\npragma experimental ABIEncoderV2;\r\n\r\nimport \"@openzeppelin/upgrades/contracts/Initializable.sol\";\r\nimport \"@openzeppelin/upgrades/contracts/upgradeability/ProxyFactory.sol\";\r\nimport \"@openzeppelin/contracts-ethereum-package/contracts/ownership/Ownable.sol\";\r\nimport \"../interfaces/ISecuritiesRegistry.sol\";\r\nimport \"../interfaces/IPoolFactory.sol\";\r\nimport \"../interfaces/ViaFactory.sol\";\r\nimport \"../interfaces/VerifiedClient.sol\";\r\nimport \"../utilities/StringUtils.sol\";\r\nimport \"abdk-libraries-solidity/ABDKMathQuad.sol\";\r\n\r\ncontract SecuritiesRegistry is Initializable, Ownable, ProxyFactory, ISecuritiesRegistry{\r\n\r\n    using ABDKMathQuad for bytes16;\r\n    using stringutils for *;\r\n\r\n    ViaFactory private via;\r\n\r\n    address poolFactory;\r\n    address preTradeContract;\r\n    address tradeContract;\r\n    address postTradeContract;\r\n    address clientContract;\r\n\r\n    struct security{\r\n        bytes32 company;\r\n        bytes32 currency;\r\n        bytes32 isin;\r\n        bytes32 creditScore;\r\n        bytes16 price;\r\n        address issuer;\r\n    }\r\n\r\n    mapping(address => security) private securityTokens;\r\n\r\n    address[] private tokens;\r\n\r\n    mapping(address => mapping(bytes32 => string[])) private corporateActions;\r\n    \r\n    //event signalling creation of a security token\r\n    event SecurityCreated(address indexed _securityToken, bytes32 _company, bytes32 _isin);\r\n    //event signalling corporate action\r\n    event CorporateAction(address indexed _securityToken, bytes32 _company, bytes32 _isin, bytes32 _category, string _action);\r\n\r\n    function initialize(address _viaFactory, address _poolFactory, address _preTradeContract, address _tradeContract, address _postTradeContract, address _clientContract) public initializer{\r\n        Ownable.initialize(msg.sender);\r\n        via = ViaFactory(_viaFactory);\r\n        poolFactory = _poolFactory;\r\n        preTradeContract = _preTradeContract;\r\n        tradeContract = _tradeContract;\r\n        postTradeContract = _postTradeContract;\r\n        clientContract = _clientContract;\r\n    }\r\n\r\n    function createSecurity(address _issuer, address _security, bytes32 _currency, bytes32 _company, bytes32 _isin) external {\r\n        require(msg.sender==preTradeContract);\r\n        address cash = via.getTokenByNameType(_currency, \"ViaCash\");\r\n        require(cash!=address(0x0));\r\n        \r\n        if(!isRegistered(_company, _currency, _isin)){\r\n            bytes memory _payload = abi.encodeWithSignature(\"initialize(bytes32,bytes32,address,address,address,address)\", _company, _isin, preTradeContract, tradeContract, postTradeContract, clientContract);\r\n\r\n            address _token = deployMinimal(_security, _payload);\r\n            emit SecurityCreated(_token, _company, _isin);\r\n\r\n            securityTokens[_token] = security(_company, _currency, _isin, \"none\", ABDKMathQuad.fromUInt(0), _issuer);\r\n            tokens.push(_token);\r\n\r\n            IPoolFactory(poolFactory).createPool(_token, cash, _currency, \"DP\");\r\n        }\r\n    }\r\n\r\n    function isRegistered(bytes32 _company, bytes32 _currency, bytes32 _isin) private view returns(bool){\r\n        for(uint i=0; i<tokens.length; i++){\r\n            if( securityTokens[tokens[i]].company==_company &&\r\n                securityTokens[tokens[i]].currency==_currency &&\r\n                securityTokens[tokens[i]].isin==_isin)\r\n                    return true;\r\n        }\r\n        return false;\r\n    }\r\n\r\n    function getToken(bytes32 _currency, bytes32 _company, bytes32 _isin) external view returns(address){\r\n        for(uint i=0; i<tokens.length; i++){\r\n            if( securityTokens[tokens[i]].currency==_currency &&\r\n                securityTokens[tokens[i]].company==_company &&\r\n                securityTokens[tokens[i]].isin==_isin){\r\n                    return tokens[i];\r\n            }\r\n        }\r\n    }\r\n\r\n    function isIsinPresent(bytes32 _isin) external returns(bool){\r\n        for(uint i=0; i<tokens.length; i++){\r\n            if( securityTokens[tokens[i]].isin==_isin){\r\n                    return true;\r\n            }\r\n        }\r\n        return false;\r\n    }\r\n\r\n    function registerCorporateAction(bytes32 _category, string calldata _action, bytes32 _isin) external{\r\n        //only company or a DP/registrar can report corporate action\r\n        require(_isin!=\"\" && _category!=\"\" && stringutils.equal(_action,\"\"));\r\n        for(uint i=0; i<tokens.length; i++){\r\n            if( securityTokens[tokens[i]].isin==_isin && \r\n                (securityTokens[tokens[i]].issuer==msg.sender || VerifiedClient(clientContract).getRole(msg.sender)==\"DP\")){\r\n                corporateActions[tokens[i]][_category].push(_action);\r\n                emit CorporateAction(tokens[i], \r\n                                    securityTokens[tokens[i]].company, \r\n                                    securityTokens[tokens[i]].isin, \r\n                                    _category, _action);\r\n            }\r\n        }\r\n    }\r\n\r\n    function registerCreditScore(bytes32 _company, bytes32 _isin, bytes32 _score) external {\r\n        //only verified admin can report credit score\r\n        require(msg.sender == owner());\r\n        require(_company!=\"\" || _isin!=\"\" && _score!=\"\");\r\n        for(uint i=0; i<tokens.length; i++){\r\n            if(_company==\"\"){\r\n                if(securityTokens[tokens[i]].isin==_isin){\r\n                    securityTokens[tokens[i]].creditScore = _score;\r\n                }\r\n            }\r\n            else if(_isin==\"\"){\r\n                if(securityTokens[tokens[i]].isin!=\"\" && securityTokens[tokens[i]].company==_company){\r\n                    securityTokens[tokens[i]].creditScore = _score;\r\n                }\r\n            }\r\n            else{\r\n                if(securityTokens[tokens[i]].isin==_isin && securityTokens[tokens[i]].company==_company){\r\n                    securityTokens[tokens[i]].creditScore = _score;\r\n                }\r\n            }\r\n        }\r\n    }\r\n\r\n    function registerPrice(bytes32 _isin, bytes16 _price) external {\r\n        //only post trade contract can report price\r\n        require(msg.sender==postTradeContract);\r\n        require(_isin!=\"\" && ABDKMathQuad.cmp(_price, ABDKMathQuad.fromUInt(0))>0);\r\n        for(uint i=0; i<tokens.length; i++){\r\n            if( securityTokens[tokens[i]].isin==_isin){\r\n                securityTokens[tokens[i]].price = _price;\r\n            }\r\n        }\r\n    }\r\n\r\n    function getCorporateActions(bytes32 _isin, bytes32 _category) external view returns(string[] memory){\r\n        require(_isin!=\"\" && _category!=\"\");\r\n        for(uint i=0; i<tokens.length; i++){\r\n            if( securityTokens[tokens[i]].isin==_isin){\r\n                return corporateActions[tokens[i]][_category];\r\n            }\r\n        }\r\n    }\r\n\r\n    function getCreditScore(bytes32 _isin, bytes32 _company) external view returns(bytes32){\r\n        require(_company!=\"\" || _isin!=\"\");\r\n        bool found = false;\r\n        for(uint i=0; i<tokens.length; i++){\r\n            if(_company==\"\" && !found){\r\n                if(securityTokens[tokens[i]].isin==_isin){\r\n                    found = true;\r\n                    return securityTokens[tokens[i]].creditScore;\r\n                }\r\n            }\r\n            else if(_isin==\"\" && !found){\r\n                if(securityTokens[tokens[i]].isin!=\"\" && securityTokens[tokens[i]].company==_company){\r\n                    found = true;\r\n                    return securityTokens[tokens[i]].creditScore;\r\n                }\r\n            }\r\n            else if(!found){\r\n                if(securityTokens[tokens[i]].isin==_isin && securityTokens[tokens[i]].company==_company){\r\n                    found = true;\r\n                    return securityTokens[tokens[i]].creditScore;\r\n                }\r\n            }\r\n        }\r\n    }\r\n\r\n    function getPrice(bytes32 _isin) external view returns(bytes16){\r\n        require(_isin!=\"\");\r\n        for(uint i=0; i<tokens.length; i++){\r\n            if(securityTokens[tokens[i]].isin==_isin){\r\n                return securityTokens[tokens[i]].price;\r\n            }\r\n        }\r\n    }\r\n\r\n}",
  "sourcePath": "D:\\Code\\verified-trades\\contracts\\registry\\SecuritiesRegistry.sol",
  "compiler": {
    "name": "solc",
    "version": "0.5.7+commit.6da8b019.Emscripten.clang"
  },
  "schemaVersion": "3.4.3",
  "updatedAt": "2021-10-28T15:09:08.541Z",
  "networkType": "ethereum",
  "devdoc": {
    "methods": {
      "initialize(address)": {
        "details": "Initializes the contract setting the deployer as the initial owner."
      },
      "isOwner()": {
        "details": "Returns true if the caller is the current owner."
      },
      "owner()": {
        "details": "Returns the address of the current owner."
      },
      "renounceOwnership()": {
        "details": "Leaves the contract without owner. It will not be possible to call `onlyOwner` functions anymore. Can only be called by the current owner.     * > Note: Renouncing ownership will leave the contract without an owner, thereby removing any functionality that is only available to the owner."
      },
      "transferOwnership(address)": {
        "details": "Transfers ownership of the contract to a new account (`newOwner`). Can only be called by the current owner."
      }
    }
  },
  "userdoc": {
    "methods": {}
  }
}