{
  "contractName": "stringutils",
  "abi": [
    {
      "constant": true,
      "inputs": [
        {
          "name": "s",
          "type": "string"
        }
      ],
      "name": "stringToUint",
      "outputs": [
        {
          "name": "",
          "type": "uint256"
        }
      ],
      "payable": false,
      "stateMutability": "pure",
      "type": "function"
    },
    {
      "constant": true,
      "inputs": [
        {
          "name": "strBytes",
          "type": "bytes32"
        },
        {
          "name": "startIndex",
          "type": "uint256"
        },
        {
          "name": "endIndex",
          "type": "uint256"
        }
      ],
      "name": "substring",
      "outputs": [
        {
          "name": "",
          "type": "string"
        }
      ],
      "payable": false,
      "stateMutability": "pure",
      "type": "function"
    },
    {
      "constant": true,
      "inputs": [
        {
          "name": "strBytes",
          "type": "bytes32"
        },
        {
          "name": "startIndex",
          "type": "uint256"
        },
        {
          "name": "endIndex",
          "type": "uint256"
        }
      ],
      "name": "substringinbytes",
      "outputs": [
        {
          "name": "res",
          "type": "bytes32"
        }
      ],
      "payable": false,
      "stateMutability": "pure",
      "type": "function"
    },
    {
      "constant": true,
      "inputs": [
        {
          "name": "a",
          "type": "string"
        },
        {
          "name": "b",
          "type": "string"
        }
      ],
      "name": "append",
      "outputs": [
        {
          "name": "",
          "type": "string"
        }
      ],
      "payable": false,
      "stateMutability": "pure",
      "type": "function"
    },
    {
      "constant": true,
      "inputs": [
        {
          "name": "source",
          "type": "string"
        }
      ],
      "name": "stringToBytes32",
      "outputs": [
        {
          "name": "result",
          "type": "bytes32"
        }
      ],
      "payable": false,
      "stateMutability": "pure",
      "type": "function"
    },
    {
      "constant": true,
      "inputs": [
        {
          "name": "_a",
          "type": "string"
        },
        {
          "name": "_b",
          "type": "string"
        }
      ],
      "name": "compare",
      "outputs": [
        {
          "name": "",
          "type": "int256"
        }
      ],
      "payable": false,
      "stateMutability": "pure",
      "type": "function"
    },
    {
      "constant": true,
      "inputs": [
        {
          "name": "_a",
          "type": "string"
        },
        {
          "name": "_b",
          "type": "string"
        }
      ],
      "name": "equal",
      "outputs": [
        {
          "name": "",
          "type": "bool"
        }
      ],
      "payable": false,
      "stateMutability": "pure",
      "type": "function"
    },
    {
      "constant": true,
      "inputs": [
        {
          "name": "_haystack",
          "type": "string"
        },
        {
          "name": "_needle",
          "type": "string"
        }
      ],
      "name": "indexOf",
      "outputs": [
        {
          "name": "",
          "type": "int256"
        }
      ],
      "payable": false,
      "stateMutability": "pure",
      "type": "function"
    }
  ],
  "bytecode": "0x610cc0610026600b82828239805160001a60731461001957fe5b30600052607381538281f3fe73000000000000000000000000000000000000000030146080604052600436106100925760003560e01c806379c213061161006557806379c21306146105515780638a0807b71461057a578063cfb51928146106a3578063f921e6471461074757610092565b80631bd95155146100975780633a96fdd71461014d57806346bdca9a14610276578063591c515f146103b3575b600080fd5b61013b600480360360208110156100ad57600080fd5b810190602081018135600160201b8111156100c757600080fd5b8201836020820111156100d957600080fd5b803590602001918460018302840111600160201b831117156100fa57600080fd5b91908080601f016020809104026020016040519081016040528093929190818152602001838380828437600092019190915250929550610770945050505050565b60408051918252519081900360200190f35b61013b6004803603604081101561016357600080fd5b810190602081018135600160201b81111561017d57600080fd5b82018360208201111561018f57600080fd5b803590602001918460018302840111600160201b831117156101b057600080fd5b91908080601f0160208091040260200160405190810160405280939291908181526020018383808284376000920191909152509295949360208101935035915050600160201b81111561020257600080fd5b82018360208201111561021457600080fd5b803590602001918460018302840111600160201b8311171561023557600080fd5b91908080601f016020809104026020016040519081016040528093929190818152602001838380828437600092019190915250929550610826945050505050565b61039f6004803603604081101561028c57600080fd5b810190602081018135600160201b8111156102a657600080fd5b8201836020820111156102b857600080fd5b803590602001918460018302840111600160201b831117156102d957600080fd5b91908080601f0160208091040260200160405190810160405280939291908181526020018383808284376000920191909152509295949360208101935035915050600160201b81111561032b57600080fd5b82018360208201111561033d57600080fd5b803590602001918460018302840111600160201b8311171561035e57600080fd5b91908080601f016020809104026020016040519081016040528093929190818152602001838380828437600092019190915250929550610937945050505050565b604080519115158252519081900360200190f35b6104dc600480360360408110156103c957600080fd5b810190602081018135600160201b8111156103e357600080fd5b8201836020820111156103f557600080fd5b803590602001918460018302840111600160201b8311171561041657600080fd5b91908080601f0160208091040260200160405190810160405280939291908181526020018383808284376000920191909152509295949360208101935035915050600160201b81111561046857600080fd5b82018360208201111561047a57600080fd5b803590602001918460018302840111600160201b8311171561049b57600080fd5b91908080601f01602080910402602001604051908101604052809392919081815260200183838082843760009201919091525092955061094b945050505050565b6040805160208082528351818301528351919283929083019185019080838360005b838110156105165781810151838201526020016104fe565b50505050905090810190601f1680156105435780820380516001836020036101000a031916815260200191505b509250505060405180910390f35b61013b6004803603606081101561056757600080fd5b5080359060208101359060400135610a06565b61013b6004803603604081101561059057600080fd5b810190602081018135600160201b8111156105aa57600080fd5b8201836020820111156105bc57600080fd5b803590602001918460018302840111600160201b831117156105dd57600080fd5b91908080601f0160208091040260200160405190810160405280939291908181526020018383808284376000920191909152509295949360208101935035915050600160201b81111561062f57600080fd5b82018360208201111561064157600080fd5b803590602001918460018302840111600160201b8311171561066257600080fd5b91908080601f016020809104026020016040519081016040528093929190818152602001838380828437600092019190915250929550610aa5945050505050565b61013b600480360360208110156106b957600080fd5b810190602081018135600160201b8111156106d357600080fd5b8201836020820111156106e557600080fd5b803590602001918460018302840111600160201b8311171561070657600080fd5b91908080601f016020809104026020016040519081016040528093929190818152602001838380828437600092019190915250929550610bf3945050505050565b6104dc6004803603606081101561075d57600080fd5b5080359060208101359060400135610c11565b600080828180805b835181101561081957603084828151811061078f57fe5b602001015160f81c60f81b60f81c60ff16101580156107cb575060398482815181106107b757fe5b602001015160f81c60f81b60f81c60ff1611155b1561080c5782915060308482815181106107e157fe5b602001015160f81c60f81b60f81c60ff160383600a020192508282111561080757600194505b610811565b600194505b600101610778565b509093505050505b919050565b81518151600091849184919081111561083d575080515b60005b818110156108fb5782818151811061085457fe5b602001015160f81c60f81b6001600160f81b03191684828151811061087557fe5b602001015160f81c60f81b6001600160f81b031916101561089e57600019945050505050610931565b8281815181106108aa57fe5b602001015160f81c60f81b6001600160f81b0319168482815181106108cb57fe5b602001015160f81c60f81b6001600160f81b03191611156108f3576001945050505050610931565b600101610840565b50815183511015610913576000199350505050610931565b8151835111156109295760019350505050610931565b600093505050505b92915050565b60006109438383610826565b159392505050565b606082826040516020018083805190602001908083835b602083106109815780518252601f199092019160209182019101610962565b51815160209384036101000a600019018019909216911617905285519190930192850191508083835b602083106109c95780518252601f1990920191602091820191016109aa565b6001836020036101000a03801982511681845116808217855250505050505090500192505050604051602081830303815290604052905092915050565b600060608383036040519080825280601f01601f191660200182016040528015610a37576020820181803883390190505b509050835b83811015610a8157858160208110610a5057fe5b1a60f81b8286830381518110610a6257fe5b60200101906001600160f81b031916908160001a905350600101610a3c565b5080518190610a96575060009150610a9e9050565b506020015190505b9392505050565b81516000908390839060011180610abd575060018151105b80610ac9575081518151115b15610ada5760001992505050610931565b6fffffffffffffffffffffffffffffffff82511115610aff5760001992505050610931565b6000805b8351811015610be55782600081518110610b1957fe5b602001015160f81c60f81b6001600160f81b031916848281518110610b3a57fe5b602001015160f81c60f81b6001600160f81b0319161415610bdd57600191505b825182108015610b6c57508351828201105b8015610bb95750828281518110610b7f57fe5b602001015160f81c60f81b6001600160f81b0319168483830181518110610ba257fe5b602001015160f81c60f81b6001600160f81b031916145b15610bc957600190910190610b5a565b8251821415610bdd57935061093192505050565b600101610b03565b506000199350505050610931565b80516000908290610c08575060009050610821565b50506020015190565b6060808383036040519080825280601f01601f191660200182016040528015610c41576020820181803883390190505b509050835b83811015610c8b57858160208110610c5a57fe5b1a60f81b8286830381518110610c6c57fe5b60200101906001600160f81b031916908160001a905350600101610c46565b5094935050505056fea165627a7a7230582030d1f41d59ee3881af9cf6909011f6b3f7512373bd13d0267e66283ae7d261ba0029",
  "source": "pragma solidity 0.5.7;\r\n\r\nlibrary stringutils { // Only relevant functions\r\n    \r\n    //added from https://ethereum.stackexchange.com/questions/62371/convert-a-string-to-a-uint256-with-error-handling\r\n    function stringToUint(string memory s) public pure returns (uint) {\r\n        bool hasError = false;\r\n        bytes memory b = bytes(s);\r\n        uint result = 0;\r\n        uint oldResult = 0;\r\n        for (uint i = 0; i < b.length; i++) { // c = b[i] was not needed\r\n            if (uint(uint8(b[i])) >= 48 && uint(uint8(b[i])) <= 57) {\r\n                // store old value so we can check for overflows\r\n                oldResult = result;\r\n                result = result * 10 + (uint(uint8(b[i])) - 48); // bytes and int are not compatible with the operator -.\r\n                // prevent overflows\r\n                if(oldResult > result ) {\r\n                    // we can only get here if the result overflowed and is smaller than last stored value\r\n                    hasError = true;\r\n                }\r\n            } else {\r\n                hasError = true;\r\n            }\r\n        }\r\n        return (result); \r\n    }\r\n\r\n    function substring(bytes32 strBytes, uint startIndex, uint endIndex) public pure returns (string memory) {\r\n        bytes memory result = new bytes(endIndex-startIndex);\r\n        for(uint i = startIndex; i < endIndex; i++) {\r\n            result[i-startIndex] = strBytes[i];\r\n        }\r\n        return string(result);\r\n    }\r\n\r\n    function substringinbytes(bytes32 strBytes, uint startIndex, uint endIndex) public pure returns (bytes32 res) {\r\n        bytes memory result = new bytes(endIndex-startIndex);\r\n        for(uint i = startIndex; i < endIndex; i++) {\r\n            result[i-startIndex] = strBytes[i];\r\n        }\r\n        bytes memory tempEmptyStringTest = bytes(result);\r\n        if (tempEmptyStringTest.length == 0) {\r\n            return 0x0;\r\n        }\r\n        assembly {\r\n            res := mload(add(result, 32))\r\n        }\r\n    }\r\n\r\n    function append(string memory a, string memory b) public pure returns (string memory) {\r\n        return string(abi.encodePacked(a, b));\r\n    }\r\n\r\n    //convert from string to bytes32\r\n    function stringToBytes32(string memory source) public pure returns (bytes32 result) {\r\n        bytes memory tempEmptyStringTest = bytes(source);\r\n        if (tempEmptyStringTest.length == 0) {\r\n            return 0x0;\r\n        }\r\n\r\n        assembly {\r\n            result := mload(add(source, 32))\r\n        }\r\n    }\r\n\r\n    /// @dev Does a byte-by-byte lexicographical comparison of two strings.\r\n    /// @return a negative number if `_a` is smaller, zero if they are equal\r\n    /// and a positive numbe if `_b` is smaller.\r\n    function compare(string memory _a, string memory _b) public pure returns (int) {\r\n        bytes memory a = bytes(_a);\r\n        bytes memory b = bytes(_b);\r\n        uint minLength = a.length;\r\n        if (b.length < minLength) minLength = b.length;\r\n        //@todo unroll the loop into increments of 32 and do full 32 byte comparisons\r\n        for (uint i = 0; i < minLength; i ++)\r\n            if (a[i] < b[i])\r\n                return -1;\r\n            else if (a[i] > b[i])\r\n                return 1;\r\n        if (a.length < b.length)\r\n            return -1;\r\n        else if (a.length > b.length)\r\n            return 1;\r\n        else\r\n            return 0;\r\n    }\r\n\r\n    /// @dev Compares two strings and returns true iff they are equal.\r\n    function equal(string memory _a, string memory _b) public pure returns (bool) {\r\n        return compare(_a, _b) == 0;\r\n    }\r\n\r\n    /// @dev Finds the index of the first occurrence of _needle in _haystack\r\n    function indexOf(string memory _haystack, string memory _needle) public pure returns (int)\r\n    {\r\n    \tbytes memory h = bytes(_haystack);\r\n    \tbytes memory n = bytes(_needle);\r\n    \tif(h.length < 1 || n.length < 1 || (n.length > h.length)) \r\n    \t\treturn -1;\r\n    \telse if(h.length > (2**128 -1)) // since we have to be able to return -1 (if the char isn't found or input error), this function must return an \"int\" type with a max length of (2^128 - 1)\r\n    \t\treturn -1;\t\t\t\t\t\t\t\t\t\r\n    \telse\r\n    \t{\r\n    \t\tuint subindex = 0;\r\n    \t\tfor (uint i = 0; i < h.length; i ++)\r\n    \t\t{\r\n    \t\t\tif (h[i] == n[0]) // found the first char of b\r\n    \t\t\t{\r\n    \t\t\t\tsubindex = 1;\r\n    \t\t\t\twhile(subindex < n.length && (i + subindex) < h.length && h[i + subindex] == n[subindex]) // search until the chars don't match or until we reach the end of a or b\r\n    \t\t\t\t{\r\n    \t\t\t\t\tsubindex++;\r\n    \t\t\t\t}\t\r\n    \t\t\t\tif(subindex == n.length)\r\n    \t\t\t\t\treturn int(i);\r\n    \t\t\t}\r\n    \t\t}\r\n    \t\treturn -1;\r\n    \t}\t\r\n    }\r\n\r\n}\r\n",
  "sourcePath": "D:\\Code\\verified-trades\\contracts\\utilities\\StringUtils.sol",
  "compiler": {
    "name": "solc",
    "version": "0.5.7+commit.6da8b019.Emscripten.clang"
  },
  "schemaVersion": "3.4.3",
  "updatedAt": "2021-11-19T15:31:14.957Z",
  "networkType": "ethereum",
  "devdoc": {
    "methods": {
      "equal(string,string)": {
        "details": "Compares two strings and returns true iff they are equal."
      },
      "indexOf(string,string)": {
        "details": "Finds the index of the first occurrence of _needle in _haystack"
      }
    }
  },
  "userdoc": {
    "methods": {
      "compare(string,string)": {
        "notice": "and a positive numbe if `_b` is smaller."
      }
    }
  }
}