{
  "contractName": "Trade",
  "abi": [
    {
      "constant": false,
      "inputs": [],
      "name": "renounceOwnership",
      "outputs": [],
      "payable": false,
      "stateMutability": "nonpayable",
      "type": "function"
    },
    {
      "constant": true,
      "inputs": [],
      "name": "owner",
      "outputs": [
        {
          "name": "",
          "type": "address"
        }
      ],
      "payable": false,
      "stateMutability": "view",
      "type": "function"
    },
    {
      "constant": true,
      "inputs": [],
      "name": "isOwner",
      "outputs": [
        {
          "name": "",
          "type": "bool"
        }
      ],
      "payable": false,
      "stateMutability": "view",
      "type": "function"
    },
    {
      "constant": false,
      "inputs": [
        {
          "name": "newOwner",
          "type": "address"
        }
      ],
      "name": "transferOwnership",
      "outputs": [],
      "payable": false,
      "stateMutability": "nonpayable",
      "type": "function"
    },
    {
      "anonymous": false,
      "inputs": [
        {
          "indexed": true,
          "name": "previousOwner",
          "type": "address"
        },
        {
          "indexed": true,
          "name": "newOwner",
          "type": "address"
        }
      ],
      "name": "OwnershipTransferred",
      "type": "event"
    },
    {
      "constant": false,
      "inputs": [
        {
          "name": "_viaFactory",
          "type": "address"
        },
        {
          "name": "_settlement",
          "type": "address"
        },
        {
          "name": "_registration",
          "type": "address"
        },
        {
          "name": "_orderpool",
          "type": "address"
        },
        {
          "name": "_poolfactory",
          "type": "address"
        }
      ],
      "name": "initialize",
      "outputs": [],
      "payable": false,
      "stateMutability": "nonpayable",
      "type": "function"
    },
    {
      "constant": false,
      "inputs": [
        {
          "name": "sender",
          "type": "address"
        }
      ],
      "name": "initialize",
      "outputs": [],
      "payable": false,
      "stateMutability": "nonpayable",
      "type": "function"
    },
    {
      "constant": false,
      "inputs": [
        {
          "name": "a",
          "type": "address[]"
        },
        {
          "name": "by",
          "type": "bytes32[]"
        },
        {
          "name": "_price",
          "type": "bytes16"
        },
        {
          "name": "_qty",
          "type": "uint256"
        }
      ],
      "name": "reportTrade",
      "outputs": [],
      "payable": false,
      "stateMutability": "nonpayable",
      "type": "function"
    },
    {
      "constant": false,
      "inputs": [
        {
          "name": "a",
          "type": "address[]"
        },
        {
          "name": "u",
          "type": "uint256[]"
        },
        {
          "name": "b",
          "type": "bytes32[]"
        },
        {
          "name": "by",
          "type": "bytes16[]"
        }
      ],
      "name": "reportOrder",
      "outputs": [],
      "payable": false,
      "stateMutability": "nonpayable",
      "type": "function"
    },
    {
      "constant": false,
      "inputs": [
        {
          "name": "originator",
          "type": "bool"
        }
      ],
      "name": "getOrders",
      "outputs": [
        {
          "name": "",
          "type": "bytes32[]"
        }
      ],
      "payable": false,
      "stateMutability": "nonpayable",
      "type": "function"
    },
    {
      "constant": true,
      "inputs": [
        {
          "name": "ref",
          "type": "bytes32"
        }
      ],
      "name": "getOrder",
      "outputs": [
        {
          "name": "",
          "type": "bytes32[]"
        },
        {
          "name": "",
          "type": "uint256[]"
        }
      ],
      "payable": false,
      "stateMutability": "view",
      "type": "function"
    },
    {
      "constant": true,
      "inputs": [
        {
          "name": "ref",
          "type": "bytes32"
        }
      ],
      "name": "getTrade",
      "outputs": [
        {
          "name": "",
          "type": "bytes16"
        },
        {
          "name": "",
          "type": "bytes16"
        }
      ],
      "payable": false,
      "stateMutability": "view",
      "type": "function"
    },
    {
      "constant": false,
      "inputs": [
        {
          "name": "a",
          "type": "address[]"
        },
        {
          "name": "u",
          "type": "uint256[]"
        },
        {
          "name": "b",
          "type": "bytes32[]"
        },
        {
          "name": "by",
          "type": "bytes16[]"
        }
      ],
      "name": "editOrder",
      "outputs": [],
      "payable": false,
      "stateMutability": "nonpayable",
      "type": "function"
    },
    {
      "constant": false,
      "inputs": [
        {
          "name": "_ref",
          "type": "bytes32"
        },
        {
          "name": "_status",
          "type": "bytes32"
        }
      ],
      "name": "cancelOrder",
      "outputs": [],
      "payable": false,
      "stateMutability": "nonpayable",
      "type": "function"
    }
  ],
  "bytecode": "0x6080604052612666806100136000396000f3fe608060405234801561001057600080fd5b50600436106100cf5760003560e01c80638f32d59b1161008c578063b0aeacc611610066578063b0aeacc6146104af578063c08915031461051e578063c4d66de81461067c578063f2fde38b146106a2576100cf565b80638f32d59b1461042c578063a3b1379914610448578063a47d9d331461048c576100cf565b80630ae5c4b3146100d45780631459457a146101a45780631e058655146101ec5780635778472a1461034a578063715018a6146104005780638da5cb5b14610408575b600080fd5b6101a2600480360360808110156100ea57600080fd5b810190602081018135600160201b81111561010457600080fd5b82018360208201111561011657600080fd5b803590602001918460208302840111600160201b8311171561013757600080fd5b919390929091602081019035600160201b81111561015457600080fd5b82018360208201111561016657600080fd5b803590602001918460208302840111600160201b8311171561018757600080fd5b91935091506001600160801b031981351690602001356106c8565b005b6101a2600480360360a08110156101ba57600080fd5b506001600160a01b0381358116916020810135821691604082013581169160608101358216916080909101351661150b565b6101a26004803603608081101561020257600080fd5b810190602081018135600160201b81111561021c57600080fd5b82018360208201111561022e57600080fd5b803590602001918460208302840111600160201b8311171561024f57600080fd5b919390929091602081019035600160201b81111561026c57600080fd5b82018360208201111561027e57600080fd5b803590602001918460208302840111600160201b8311171561029f57600080fd5b919390929091602081019035600160201b8111156102bc57600080fd5b8201836020820111156102ce57600080fd5b803590602001918460208302840111600160201b831117156102ef57600080fd5b919390929091602081019035600160201b81111561030c57600080fd5b82018360208201111561031e57600080fd5b803590602001918460208302840111600160201b8311171561033f57600080fd5b509092509050611614565b6103676004803603602081101561036057600080fd5b5035611b5c565b604051808060200180602001838103835285818151815260200191508051906020019060200280838360005b838110156103ab578181015183820152602001610393565b50505050905001838103825284818151815260200191508051906020019060200280838360005b838110156103ea5781810151838201526020016103d2565b5050505090500194505050505060405180910390f35b6101a2611d45565b610410611deb565b604080516001600160a01b039092168252519081900360200190f35b610434611dfa565b604080519115158252519081900360200190f35b6104656004803603602081101561045e57600080fd5b5035611e20565b604080516001600160801b0319938416815291909216602082015281519081900390910190f35b6101a2600480360360408110156104a257600080fd5b5080359060200135612007565b6104ce600480360360208110156104c557600080fd5b503515156120c5565b60408051602080825283518183015283519192839290830191858101910280838360005b8381101561050a5781810151838201526020016104f2565b505050509050019250505060405180910390f35b6101a26004803603608081101561053457600080fd5b810190602081018135600160201b81111561054e57600080fd5b82018360208201111561056057600080fd5b803590602001918460208302840111600160201b8311171561058157600080fd5b919390929091602081019035600160201b81111561059e57600080fd5b8201836020820111156105b057600080fd5b803590602001918460208302840111600160201b831117156105d157600080fd5b919390929091602081019035600160201b8111156105ee57600080fd5b82018360208201111561060057600080fd5b803590602001918460208302840111600160201b8311171561062157600080fd5b919390929091602081019035600160201b81111561063e57600080fd5b82018360208201111561065057600080fd5b803590602001918460208302840111600160201b8311171561067157600080fd5b509092509050612237565b6101a26004803603602081101561069257600080fd5b50356001600160a01b031661233c565b6101a2600480360360208110156106b857600080fd5b50356001600160a01b0316612430565b606d5460408051600160e01b63ab986ddf02815233600482015290516001600160a01b039092169163ab986ddf91602480820192602092909190829003018186803b15801561071657600080fd5b505afa15801561072a573d6000803e3d6000fd5b505050506040513d602081101561074057600080fd5b5051151560011461075057600080fd5b60008484600081811061075f57fe5b905060200201358585600181811061077357fe5b6040805160208181019690965291850293909301358184015282518082038401815260609091019092525080519101206069805460018101825560009182527f7fb4302e8e91f9110a6554c2c0a24601252c2a42c2220ca988efcfe39991430801829055606e54919250906001600160a01b0316635fd4b08a898960028181106107f957fe5b905060200201356001600160a01b03166040518263ffffffff1660e01b815260040180826001600160a01b03166001600160a01b0316815260200191505060206040518083038186803b15801561084f57600080fd5b505afa158015610863573d6000803e3d6000fd5b505050506040513d602081101561087957600080fd5b505160408051610120810190915290915080898960008161089657fe5b905060200201356001600160a01b03166001600160a01b03168152602001898960018181106108c157fe5b905060200201356001600160a01b03166001600160a01b03168152602001898960038181106108ec57fe5b905060200201356001600160a01b03166001600160a01b03168152602001856001600160801b03191681526020018281526020018787600381811061092d57fe5b9050602002013581526020018787600281811061094657fe5b6020908102929092013583525081810186905242604092830152600085815260688252828120845181546001600160a01b03199081166001600160a01b039283161783559386015160018084018054871692841692909217909155948601516002830180549095169082161790935560608501516003820180546001600160801b031916608092831c179055850151600482015560a0850151600582015560c0850151600682015560e0850151600782015561010090940151600890940193909355606b5483928392919091169063e58bcfc3908b908b90818110610a2757fe5b905060200201356040518263ffffffff1660e01b81526004018082815260200191505060606040518083038186803b158015610a6257600080fd5b505afa158015610a76573d6000803e3d6000fd5b505050506040513d6060811015610a8c57600080fd5b5080516020820151604090920151909450909250905088886002818110610aaf57fe5b90506020020135600160f41b6104450214156110fa57606b546000906001600160a01b031663a053d9eb8b8b6001818110610ae657fe5b905060200201356040518263ffffffff1660e01b81526004018082815260200191505060206040518083038186803b158015610b2157600080fd5b505afa158015610b35573d6000803e3d6000fd5b505050506040513d6020811015610b4b57600080fd5b5051606b549091506000906001600160a01b031663a053d9eb8c8c8481610b6e57fe5b905060200201356040518263ffffffff1660e01b81526004018082815260200191505060206040518083038186803b158015610ba957600080fd5b505afa158015610bbd573d6000803e3d6000fd5b505050506040513d6020811015610bd357600080fd5b50516040805160028082526060808301845293945090916020830190803883390190505090508881600181518110610c0757fe5b602002602001018181525050610c1c8a612498565b81600281518110610c2957fe5b602090810291909101015260408051600780825261010082019092526060918160200160208202803883390190505090508681600181518110610c6857fe5b6020026020010181815250508581600281518110610c8257fe5b6020026020010181815250508281600381518110610c9c57fe5b6020026020010181815250508381600481518110610cb657fe5b6020026020010181815250508881600581518110610cd057fe5b6020026020010181815250508781600681518110610cea57fe5b6020026020010181815250508e8e6003818110610d0357fe5b905060200201356001600160a01b03166001600160a01b03166306fdde036040518163ffffffff1660e01b815260040160006040518083038186803b158015610d4b57600080fd5b505afa158015610d5f573d6000803e3d6000fd5b505050506040513d6000823e601f3d908101601f191682016040526020811015610d8857600080fd5b810190808051600160201b811115610d9f57600080fd5b82016020810184811115610db257600080fd5b8151600160201b811182820187101715610dcb57600080fd5b5050604051600160e31b6319f6a32502815260206004820181815283516024840152835173__stringutils___________________________975063cfb5192896509394509283926044019185019080838360005b83811015610e38578181015183820152602001610e20565b50505050905090810190601f168015610e655780820380516001836020036101000a031916815260200191505b509250505060206040518083038186803b158015610e8257600080fd5b505af4158015610e96573d6000803e3d6000fd5b505050506040513d6020811015610eac57600080fd5b5051815182906007908110610ebd57fe5b6020908102919091010152604080516003808252608082019092526060918160200160208202803883390190505090508f8f6000818110610efa57fe5b905060200201356001600160a01b031681600181518110610f1757fe5b60200260200101906001600160a01b031690816001600160a01b0316815250508f8f6001818110610f4457fe5b905060200201356001600160a01b031681600281518110610f6157fe5b60200260200101906001600160a01b031690816001600160a01b0316815250508f8f6003818110610f8e57fe5b905060200201356001600160a01b031681600381518110610fab57fe5b6001600160a01b03928316602091820292909201810191909152606a54604051600160e01b63df2fc187028152606060048201908152865160648301528651929094169363df2fc1879387938993889392839260248301926044810192608490910191898201910280838360005b83811015611031578181015183820152602001611019565b50505050905001848103835286818151815260200191508051906020019060200280838360005b83811015611070578181015183820152602001611058565b50505050905001848103825285818151815260200191508051906020019060200280838360005b838110156110af578181015183820152602001611097565b505050509050019650505050505050600060405180830381600087803b1580156110d857600080fd5b505af11580156110ec573d6000803e3d6000fd5b5050505050505050506114fe565b8888600281811061110757fe5b90506020020135600160ec1b620535450214156114fe578a8a600281811061112b57fe5b905060200201356001600160a01b03166001600160a01b03166323b872dd8c8c600181811061115657fe5b905060200201356001600160a01b03168d8d600081811061117357fe5b905060200201356001600160a01b03168961118d8c612498565b6040805163ffffffff871660e01b81526001600160a01b039586166004820152939094166024840152026044820152905160648083019260209291908290030181600087803b1580156111df57600080fd5b505af11580156111f3573d6000803e3d6000fd5b505050506040513d602081101561120957600080fd5b5051156114fe576000816001600160a01b03166323b872dd8d8d600081811061122e57fe5b905060200201356001600160a01b03168e8e600181811061124b57fe5b905060200201356001600160a01b03168a6040518463ffffffff1660e01b815260040180846001600160a01b03166001600160a01b03168152602001836001600160a01b03166001600160a01b031681526020018281526020019350505050602060405180830381600087803b1580156112c457600080fd5b505af11580156112d8573d6000803e3d6000fd5b505050506040513d60208110156112ee57600080fd5b50519050806114fc5733631f0404808b8b60008161130857fe5b90506020020135896040518363ffffffff1660e01b81526004018083815260200182815260200180600160e21b631cd95b1b0281525060200192505050600060405180830381600087803b15801561135f57600080fd5b505af1158015611373573d6000803e3d6000fd5b50505050336001600160a01b0316631f0404808b8b600181811061139357fe5b90506020020135896040518363ffffffff1660e01b81526004018083815260200182815260200180600160e81b626275790281525060200192505050600060405180830381600087803b1580156113e957600080fd5b505af11580156113fd573d6000803e3d6000fd5b505050508b8b600281811061140e57fe5b905060200201356001600160a01b03166001600160a01b03166323b872dd8d8d600081811061143957fe5b905060200201356001600160a01b03168e8e600181811061145657fe5b905060200201356001600160a01b03168a6040518463ffffffff1660e01b815260040180846001600160a01b03166001600160a01b03168152602001836001600160a01b03166001600160a01b031681526020018281526020019350505050602060405180830381600087803b1580156114cf57600080fd5b505af11580156114e3573d6000803e3d6000fd5b505050506040513d60208110156114f957600080fd5b50505b505b5050505050505050505050565b600054610100900460ff16806115245750611524612538565b80611532575060005460ff16155b61157057604051600160e51b62461bcd02815260040180806020018281038252602e81526020018061260d602e913960400191505060405180910390fd5b600054610100900460ff1615801561159b576000805460ff1961ff0019909116610100171660011790555b6115a43361233c565b606a80546001600160a01b03199081166001600160a01b0388811691909117909255606b80548216878416179055606c80548216868416179055606d80548216858416179055606e8054909116918816919091179055801561160c576000805461ff00191690555b505050505050565b606d5460408051600160e01b63ab986ddf02815233600482015290516001600160a01b039092169163ab986ddf91602480820192602092909190829003018186803b15801561166257600080fd5b505afa158015611676573d6000803e3d6000fd5b505050506040513d602081101561168c57600080fd5b5051151560011461169c57600080fd5b6000848460008181106116ab57fe5b6020908102929092013560008181526066909352604090922054919250506001600160a01b031615611b5157888860008181106116e457fe5b6000848152606660209081526040822080546001600160a01b0319166001600160a01b03929094029590950135169190911790925550839083908161172557fe5b600084815260666020908152604090912060020180546001600160801b0319929093029490940135811660801c911617909155508282600181811061176657fe5b600084815260666020908152604090912060020180546001600160801b03199290930294909401351660801c600160801b026001600160801b03919091161790915550868660018181106117b657fe5b905060200201356066600083815260200190815260200160002060080181905550848460018181106117e457fe5b9050602002013560666000838152602001908152602001600020600401819055508484600281811061181257fe5b9050602002013560666000838152602001908152602001600020600301819055508686600081811061184057fe5b9050602002013560666000838152602001908152602001600020600901819055508484600381811061186e57fe5b60008481526066602090815260409091209102929092013560059092019190915550606e546001600160a01b0316635fd4b08a8a8a60018181106118ae57fe5b905060200201356001600160a01b03166040518263ffffffff1660e01b815260040180826001600160a01b03166001600160a01b0316815260200191505060206040518083038186803b15801561190457600080fd5b505afa158015611918573d6000803e3d6000fd5b505050506040513d602081101561192e57600080fd5b50516000828152606660205260409020600601558888600281811061194f57fe5b905060200201356001600160a01b03166001600160a01b03166306fdde036040518163ffffffff1660e01b815260040160006040518083038186803b15801561199757600080fd5b505afa1580156119ab573d6000803e3d6000fd5b505050506040513d6000823e601f3d908101601f1916820160405260208110156119d457600080fd5b810190808051600160201b8111156119eb57600080fd5b820160208101848111156119fe57600080fd5b8151600160201b811182820187101715611a1757600080fd5b5050604051600160e31b6319f6a32502815260206004820181815283516024840152835173__stringutils___________________________975063cfb5192896509394509283926044019185019080838360005b83811015611a84578181015183820152602001611a6c565b50505050905090810190601f168015611ab15780820380516001836020036101000a031916815260200191505b509250505060206040518083038186803b158015611ace57600080fd5b505af4158015611ae2573d6000803e3d6000fd5b505050506040513d6020811015611af857600080fd5b505160008281526066602052604090206007015588886002818110611b1957fe5b600084815260666020908152604090912060010180546001600160a01b0319166001600160a01b039290930294909401351617909155505b505050505050505050565b60408051600480825260a082019092526060918291829160208201608080388339505050600085815260666020526040902060020154909150611ba19060801b612498565b81600181518110611bae57fe5b602090810291909101810191909152600085815260669091526040902060020154611be290600160801b900460801b612498565b81600281518110611bef57fe5b602002602001018181525050606660008581526020019081526020016000206008015481600381518110611c1f57fe5b602002602001018181525050606660008581526020019081526020016000206009015481600481518110611c4f57fe5b602090810291909101015260408051600480825260a0820190925260609181602001602082028038833950505060008681526066602052604090206006015481519192509082906001908110611ca157fe5b602002602001018181525050606660008681526020019081526020016000206007015481600281518110611cd157fe5b602002602001018181525050606660008681526020019081526020016000206004015481600381518110611d0157fe5b602002602001018181525050606660008681526020019081526020016000206005015481600481518110611d3157fe5b602090810291909101015292509050915091565b611d4d611dfa565b611da15760408051600160e51b62461bcd02815260206004820181905260248201527f4f776e61626c653a2063616c6c6572206973206e6f7420746865206f776e6572604482015290519081900360640190fd5b6033546040516000916001600160a01b0316907f8be0079c531659141344cd1fd0a4f28419497f9722a3daafe3b4186f6b6457e0908390a3603380546001600160a01b0319169055565b6033546001600160a01b031690565b6033546000906001600160a01b0316611e1161253e565b6001600160a01b031614905090565b60008181526066602052604081205481906001600160a01b03163314611e4557600080fd5b6069546000805b600086815260666020526040812060010154606980546001600160a01b039092169260689290919087908110611e7e57fe5b600091825260208083209091015483528201929092526040019020600201546001600160a01b0316148015611ee857506068600060698581548110611ebf57fe5b9060005260206000200154815260200190815260200160002060050154600160e81b6242757902145b15611f23576068600060698581548110611efe57fe5b6000918252602080832090910154835282019290925260400190206003015460801b91505b600086815260666020526040812060010154606980546001600160a01b039092169260689290919087908110611f5557fe5b600091825260208083209091015483528201929092526040019020600201546001600160a01b0316148015611fc057506068600060698581548110611f9657fe5b9060005260206000200154815260200190815260200160002060050154600160e21b6314d95b1b02145b15611ffb576068600060698581548110611fd657fe5b6000918252602080832090910154835282019290925260400190206003015460801b90505b60001990920191611e4c565b606d5460408051600160e01b63ab986ddf02815233600482015290516001600160a01b039092169163ab986ddf91602480820192602092909190829003018186803b15801561205557600080fd5b505afa158015612069573d6000803e3d6000fd5b505050506040513d602081101561207f57600080fd5b5051151560011461208f57600080fd5b6000828152606660205260409020546001600160a01b0316156120c15760008281526066602052604090206005018190555b5050565b6067546040805182815260208084028201019091526060919082908280156120f7578160200160208202803883390190505b5090506000841561219a5760005b60675481101561219457336001600160a01b0316606660006067848154811061212a57fe5b600091825260208083209091015483528201929092526040019020546001600160a01b0316141561218c576067818154811061216257fe5b906000526020600020015483838151811061217957fe5b6020026020010181815250508160010191505b600101612105565b5061222d565b60005b60675481101561222b57336001600160a01b031660666000606784815481106121c257fe5b600091825260208083209091015483528201929092526040019020546001600160a01b03161461222357606781815481106121f957fe5b906000526020600020015483838151811061221057fe5b6020026020010181815250508160010191505b60010161219d565b505b509150505b919050565b606d5460408051600160e01b63ab986ddf02815233600482015290516001600160a01b039092169163ab986ddf91602480820192602092909190829003018186803b15801561228557600080fd5b505afa158015612299573d6000803e3d6000fd5b505050506040513d60208110156122af57600080fd5b505115156001146122bf57600080fd5b6000848460008181106122ce57fe5b6020908102929092013560008181526066909352604090922054919250506001600160a01b031661232f57606780546001810182556000919091527f9787eeb91fe3101235e4a76063c7023ecb40f923f97916639c598592fa30d6ae018190555b888860008181106116e457fe5b600054610100900460ff16806123555750612355612538565b80612363575060005460ff16155b6123a157604051600160e51b62461bcd02815260040180806020018281038252602e81526020018061260d602e913960400191505060405180910390fd5b600054610100900460ff161580156123cc576000805460ff1961ff0019909116610100171660011790555b603380546001600160a01b0319166001600160a01b0384811691909117918290556040519116906000907f8be0079c531659141344cd1fd0a4f28419497f9722a3daafe3b4186f6b6457e0908290a380156120c1576000805461ff00191690555050565b612438611dfa565b61248c5760408051600160e51b62461bcd02815260206004820181905260248201527f4f776e61626c653a2063616c6c6572206973206e6f7420746865206f776e6572604482015290519081900360640190fd5b61249581612542565b50565b6000617fff6001600160801b03608084901c1660701c16613fff8110156124c3576000915050612232565b6001607f1b8360801c6001600160801b0316106124df57600080fd5b6140fe8111156124ee57600080fd5b600160701b6dffffffffffffffffffffffffffff608085901c161761406f82101561251f5761406f8290031c612531565b61406f8211156125315761406e1982011b5b9392505050565b303b1590565b3390565b6001600160a01b03811661258a57604051600160e51b62461bcd0281526004018080602001828103825260268152602001806125e76026913960400191505060405180910390fd5b6033546040516001600160a01b038084169216907f8be0079c531659141344cd1fd0a4f28419497f9722a3daafe3b4186f6b6457e090600090a3603380546001600160a01b0319166001600160a01b039290921691909117905556fe4f776e61626c653a206e6577206f776e657220697320746865207a65726f2061646472657373436f6e747261637420696e7374616e63652068617320616c7265616479206265656e20696e697469616c697a6564a165627a7a723058208a81741413f012c67beb5faf743ec9e57c753b1814404126b616753e7c783f010029",
  "source": "// Routing new orders\r\n// (c) Kallol Borah, 2021\r\n\r\npragma solidity 0.5.7;\r\n \r\nimport \"./interfaces/ITrade.sol\";\r\nimport \"./interfaces/IPreTrade.sol\";\r\nimport \"./interfaces/IPostTrade.sol\";\r\nimport \"./registry/Security.sol\";\r\nimport \"./interfaces/IOrderPool.sol\";\r\nimport \"./interfaces/IPoolFactory.sol\";\r\nimport \"./interfaces/ViaCash.sol\";\r\nimport \"./interfaces/ViaFactory.sol\";\r\nimport \"./utilities/StringUtils.sol\";\r\nimport \"abdk-libraries-solidity/ABDKMathQuad.sol\";\r\nimport \"@openzeppelin/upgrades/contracts/Initializable.sol\";\r\nimport \"@openzeppelin/contracts-ethereum-package/contracts/ownership/Ownable.sol\";\r\n\r\ncontract Trade is ITrade, Initializable, Ownable{\r\n\r\n    using ABDKMathQuad for uint256;\r\n    using ABDKMathQuad for int256;\r\n    using ABDKMathQuad for bytes16;\r\n\r\n    using stringutils for *;\r\n\r\n    struct order{\r\n        address party;\r\n        address security;\r\n        bytes16 price;\r\n        bytes16 trigger; \r\n        bytes32 otype;\r\n        bytes32 order;\r\n        bytes32 status;\r\n        bytes32 currency;\r\n        bytes32 securityName;\r\n        uint256 qty;\r\n        uint dt;\r\n    }\r\n\r\n    mapping(bytes32 => order) private orders;\r\n\r\n    bytes32[] orderRefs;\r\n\r\n    struct trade{\r\n        address transferor;\r\n        address transferee;\r\n        address security;\r\n        bytes16 price;\r\n        bytes32 currency;\r\n        bytes32 order;\r\n        bytes32 stype;\r\n        uint256 qty;\r\n        uint dt;\r\n    }\r\n\r\n    mapping(bytes32 => trade) private trades;\r\n\r\n    bytes32[] tradeRefs;\r\n\r\n    address settlement;\r\n    address registration;\r\n    address orderpool;\r\n    address poolfactory;\r\n    ViaFactory private via;\r\n\r\n    function initialize(address _viaFactory, address _settlement, address _registration, address _orderpool, address _poolfactory) public initializer{\r\n        Ownable.initialize(msg.sender);\r\n        settlement = _settlement;\r\n        registration = _registration;\r\n        orderpool = _orderpool;\r\n        poolfactory = _poolfactory;\r\n        via = ViaFactory(_viaFactory);\r\n    }\r\n \r\n    function reportTrade(address[] calldata a, bytes32[] calldata by, bytes16 _price, uint256 _qty) external {\r\n        require(IPoolFactory(poolfactory).confirmPool(msg.sender)==true);\r\n        bytes32 _tradeRef = keccak256(abi.encodePacked(by[0], by[1]));\r\n        tradeRefs.push(_tradeRef);\r\n        bytes32 cashTokenName = via.getName(a[2]);\r\n        trades[_tradeRef]=trade(a[0], a[1], a[3], _price, cashTokenName, by[3], by[2], _qty, now);        \r\n        (bytes32 _isin, bytes32 _company, address _token) = IPreTrade(registration).getSecurity(by[1]);\r\n        if(by[2]==\"DP\"){\r\n            bytes32 _transfereeDPID = IPreTrade(registration).getDP(by[1]);\r\n            bytes32 _transferorDPID = IPreTrade(registration).getDP(by[0]);\r\n            uint[] memory u = new uint[](2);\r\n            u[1]=_qty;\r\n            u[2]=ABDKMathQuad.toUInt(_price);\r\n            bytes32[] memory b = new bytes32[](7);  \r\n            b[1]=_isin;\r\n            b[2]=_company;\r\n            b[3]=_transferorDPID;\r\n            b[4]=_transfereeDPID;\r\n            b[5]=_tradeRef;\r\n            b[6]=cashTokenName;\r\n            b[7]=Security(a[3]).name().stringToBytes32();\r\n            address[] memory ad = new address[](3);\r\n            ad[1]=a[0];\r\n            ad[2]=a[1];\r\n            ad[3]=a[3];\r\n            IPostTrade(settlement).postSettlement(b, u, ad);\r\n        }\r\n        else if(by[2]==\"STP\"){\r\n            if(ViaCash(a[2]).transferFrom(a[1], a[0], ABDKMathQuad.toUInt(_price)*_qty)){\r\n                bool success = Security(_token).transferFrom(a[0], a[1], _qty);\r\n                if(!success){\r\n                    IOrderPool(msg.sender).revertTrade(by[0], _qty, \"sell\");\r\n                    IOrderPool(msg.sender).revertTrade(by[1], _qty, \"buy\");\r\n                    ViaCash(a[2]).transferFrom(a[0], a[1], _qty);\r\n                }\r\n            }\r\n        }\r\n    }\r\n\r\n    function reportOrder(address[] calldata a, uint[] calldata u, bytes32[] calldata b, bytes16[] calldata by) external{\r\n        require(IPoolFactory(poolfactory).confirmPool(msg.sender)==true);\r\n        bytes32 _ref = b[0];\r\n        if(orders[_ref].party==address(0x0))\r\n            orderRefs.push(_ref);\r\n        orders[_ref].party = a[0];\r\n        orders[_ref].price = by[0];\r\n        orders[_ref].trigger = by[1];\r\n        orders[_ref].qty = u[1];\r\n        orders[_ref].order = b[1];\r\n        orders[_ref].otype = b[2];\r\n        orders[_ref].dt = u[0];\r\n        orders[_ref].status = b[3];\r\n        orders[_ref].currency = via.getName(a[1]);\r\n        orders[_ref].securityName = Security(a[2]).name().stringToBytes32();\r\n        orders[_ref].security = a[2];\r\n    }\r\n\r\n    function getOrders(bool originator) external returns(bytes32[] memory){\r\n        uint entries = orderRefs.length;\r\n        bytes32[] memory result = new bytes32[](entries);\r\n        uint entry=0;\r\n        if(originator){\r\n            for(uint i=0; i<orderRefs.length; i++){\r\n                if(orders[orderRefs[i]].party==msg.sender){\r\n                    result[entry]=orderRefs[i];\r\n                    entry=entry+1;\r\n                }\r\n            }\r\n        }\r\n        else{\r\n            for(uint i=0; i<orderRefs.length; i++){\r\n                if(orders[orderRefs[i]].party!=msg.sender){\r\n                    result[entry]=orderRefs[i];\r\n                    entry=entry+1;\r\n                }\r\n            }\r\n        }\r\n        return result;\r\n    }\r\n\r\n    function getOrder(bytes32 ref) external view returns(bytes32[] memory, uint256[] memory){\r\n\r\n        uint256[] memory u = new uint256[](4);\r\n        u[1]= ABDKMathQuad.toUInt(orders[ref].price);\r\n        u[2]= ABDKMathQuad.toUInt(orders[ref].trigger);\r\n        u[3]= orders[ref].qty;\r\n        u[4]= orders[ref].dt;\r\n        bytes32[] memory b = new bytes32[](4);\r\n        b[1]= orders[ref].currency;\r\n        b[2]= orders[ref].securityName;\r\n        b[3]= orders[ref].order;\r\n        b[4]= orders[ref].status;\r\n        return(b, u);\r\n    }\r\n\r\n    //returns bid, ask, last change corresponding to passed order ref\r\n    function getTrade(bytes32 ref) external view returns(bytes16, bytes16){\r\n        require(orders[ref].party==msg.sender);\r\n        uint i;\r\n        bytes16 bid;\r\n        bytes16 ask;\r\n        for(i=tradeRefs.length; i>=0; i--){\r\n            if(trades[tradeRefs[i]].security==orders[ref].security && trades[tradeRefs[i]].order==\"Buy\"){\r\n                bid = trades[tradeRefs[i]].price;\r\n            }\r\n            if(trades[tradeRefs[i]].security==orders[ref].security && trades[tradeRefs[i]].order==\"Sell\"){\r\n                ask = trades[tradeRefs[i]].price;\r\n            }\r\n        }\r\n        return (bid, ask);\r\n    }\r\n\r\n    function editOrder(address[] calldata a, uint[] calldata u, bytes32[] calldata b, bytes16[] calldata by) external{\r\n        require(IPoolFactory(poolfactory).confirmPool(msg.sender)==true);\r\n        bytes32 _ref = b[0];\r\n        if(orders[_ref].party!=address(0x0)){\r\n            orders[_ref].party = a[0];\r\n            orders[_ref].price = by[0];\r\n            orders[_ref].trigger = by[1];\r\n            orders[_ref].qty = u[1];\r\n            orders[_ref].order = b[1];\r\n            orders[_ref].otype = b[2];\r\n            orders[_ref].dt = u[0];\r\n            orders[_ref].status = b[3];\r\n            orders[_ref].currency = via.getName(a[1]);\r\n            orders[_ref].securityName = Security(a[2]).name().stringToBytes32();\r\n            orders[_ref].security = a[2];\r\n        }\r\n    }\r\n\r\n    function cancelOrder(bytes32 _ref, bytes32 _status) external{\r\n        require(IPoolFactory(poolfactory).confirmPool(msg.sender)==true);\r\n        if(orders[_ref].party!=address(0x0)){\r\n            orders[_ref].status = _status;\r\n        }\r\n    }\r\n    \r\n}",
  "sourcePath": "D:/Code/verified-trades/contracts/Trade.sol",
  "compiler": {
    "name": "solc",
    "version": "0.5.7+commit.6da8b019.Emscripten.clang"
  },
  "schemaVersion": "3.3.3",
  "updatedAt": "2021-05-28T03:40:10.518Z",
  "networkType": "ethereum",
  "devdoc": {
    "methods": {
      "initialize(address)": {
        "details": "Initializes the contract setting the deployer as the initial owner."
      },
      "isOwner()": {
        "details": "Returns true if the caller is the current owner."
      },
      "owner()": {
        "details": "Returns the address of the current owner."
      },
      "renounceOwnership()": {
        "details": "Leaves the contract without owner. It will not be possible to call `onlyOwner` functions anymore. Can only be called by the current owner.     * > Note: Renouncing ownership will leave the contract without an owner, thereby removing any functionality that is only available to the owner."
      },
      "transferOwnership(address)": {
        "details": "Transfers ownership of the contract to a new account (`newOwner`). Can only be called by the current owner."
      }
    }
  },
  "userdoc": {
    "methods": {}
  }
}