{
  "contractName": "Trade",
  "abi": [
    {
      "anonymous": false,
      "inputs": [
        {
          "indexed": false,
          "name": "orderReference",
          "type": "bytes32"
        },
        {
          "indexed": false,
          "name": "party",
          "type": "address"
        },
        {
          "indexed": false,
          "name": "price",
          "type": "uint256"
        },
        {
          "indexed": false,
          "name": "amount",
          "type": "uint256"
        },
        {
          "indexed": false,
          "name": "order",
          "type": "bytes32"
        },
        {
          "indexed": false,
          "name": "orderType",
          "type": "bytes32"
        },
        {
          "indexed": false,
          "name": "date",
          "type": "uint256"
        },
        {
          "indexed": false,
          "name": "status",
          "type": "bytes32"
        },
        {
          "indexed": false,
          "name": "currency",
          "type": "bytes32"
        },
        {
          "indexed": false,
          "name": "securityName",
          "type": "bytes32"
        },
        {
          "indexed": false,
          "name": "security",
          "type": "address"
        }
      ],
      "name": "orderNew",
      "type": "event"
    },
    {
      "anonymous": false,
      "inputs": [
        {
          "indexed": false,
          "name": "orderRef",
          "type": "bytes32"
        },
        {
          "indexed": false,
          "name": "party",
          "type": "address"
        },
        {
          "indexed": false,
          "name": "status",
          "type": "bytes32"
        }
      ],
      "name": "orderCancel",
      "type": "event"
    },
    {
      "anonymous": false,
      "inputs": [
        {
          "indexed": false,
          "name": "partyReference",
          "type": "bytes32"
        },
        {
          "indexed": false,
          "name": "counterpartyReference",
          "type": "bytes32"
        },
        {
          "indexed": false,
          "name": "isin",
          "type": "bytes32"
        },
        {
          "indexed": false,
          "name": "company",
          "type": "bytes32"
        },
        {
          "indexed": false,
          "name": "price",
          "type": "uint256"
        },
        {
          "indexed": false,
          "name": "askprice",
          "type": "uint256"
        },
        {
          "indexed": false,
          "name": "currency",
          "type": "bytes32"
        },
        {
          "indexed": false,
          "name": "amount",
          "type": "uint256"
        },
        {
          "indexed": false,
          "name": "status",
          "type": "bytes32"
        },
        {
          "indexed": false,
          "name": "executionDate",
          "type": "uint256"
        }
      ],
      "name": "tradeReport",
      "type": "event"
    },
    {
      "constant": false,
      "inputs": [
        {
          "name": "_viaFactory",
          "type": "address"
        },
        {
          "name": "_settlement",
          "type": "address"
        },
        {
          "name": "_registration",
          "type": "address"
        },
        {
          "name": "_orderpool",
          "type": "address"
        },
        {
          "name": "_poolfactory",
          "type": "address"
        }
      ],
      "name": "initialize",
      "outputs": [],
      "payable": false,
      "stateMutability": "nonpayable",
      "type": "function"
    },
    {
      "constant": false,
      "inputs": [
        {
          "components": [
            {
              "name": "transferor",
              "type": "address"
            },
            {
              "name": "transferee",
              "type": "address"
            },
            {
              "name": "security",
              "type": "address"
            },
            {
              "name": "price",
              "type": "uint256"
            },
            {
              "name": "askprice",
              "type": "uint256"
            },
            {
              "name": "currency",
              "type": "bytes32"
            },
            {
              "name": "order",
              "type": "bytes32"
            },
            {
              "name": "stype",
              "type": "bytes32"
            },
            {
              "name": "qty",
              "type": "uint256"
            },
            {
              "name": "dt",
              "type": "uint256"
            }
          ],
          "name": "newTrade",
          "type": "tuple"
        },
        {
          "name": "partyRef",
          "type": "bytes32"
        },
        {
          "name": "counterpartyRef",
          "type": "bytes32"
        }
      ],
      "name": "reportTrade",
      "outputs": [],
      "payable": false,
      "stateMutability": "nonpayable",
      "type": "function"
    },
    {
      "constant": true,
      "inputs": [
        {
          "name": "ref",
          "type": "bytes32"
        }
      ],
      "name": "getTrade",
      "outputs": [
        {
          "name": "b",
          "type": "uint256"
        },
        {
          "name": "a",
          "type": "uint256"
        }
      ],
      "payable": false,
      "stateMutability": "view",
      "type": "function"
    },
    {
      "constant": false,
      "inputs": [
        {
          "components": [
            {
              "name": "party",
              "type": "address"
            },
            {
              "name": "security",
              "type": "address"
            },
            {
              "name": "price",
              "type": "uint256"
            },
            {
              "name": "otype",
              "type": "bytes32"
            },
            {
              "name": "order",
              "type": "bytes32"
            },
            {
              "name": "status",
              "type": "bytes32"
            },
            {
              "name": "currency",
              "type": "bytes32"
            },
            {
              "name": "securityName",
              "type": "bytes32"
            },
            {
              "name": "qty",
              "type": "uint256"
            },
            {
              "name": "dt",
              "type": "uint256"
            }
          ],
          "name": "newOrder",
          "type": "tuple"
        },
        {
          "name": "ref",
          "type": "bytes32"
        }
      ],
      "name": "reportOrder",
      "outputs": [],
      "payable": false,
      "stateMutability": "nonpayable",
      "type": "function"
    },
    {
      "constant": true,
      "inputs": [
        {
          "name": "originator",
          "type": "bool"
        }
      ],
      "name": "getOrders",
      "outputs": [
        {
          "name": "",
          "type": "bytes32[]"
        }
      ],
      "payable": false,
      "stateMutability": "view",
      "type": "function"
    },
    {
      "constant": true,
      "inputs": [
        {
          "name": "ref",
          "type": "bytes32"
        }
      ],
      "name": "getOrder",
      "outputs": [
        {
          "components": [
            {
              "name": "party",
              "type": "address"
            },
            {
              "name": "security",
              "type": "address"
            },
            {
              "name": "price",
              "type": "uint256"
            },
            {
              "name": "otype",
              "type": "bytes32"
            },
            {
              "name": "order",
              "type": "bytes32"
            },
            {
              "name": "status",
              "type": "bytes32"
            },
            {
              "name": "currency",
              "type": "bytes32"
            },
            {
              "name": "securityName",
              "type": "bytes32"
            },
            {
              "name": "qty",
              "type": "uint256"
            },
            {
              "name": "dt",
              "type": "uint256"
            }
          ],
          "name": "",
          "type": "tuple"
        }
      ],
      "payable": false,
      "stateMutability": "view",
      "type": "function"
    },
    {
      "constant": false,
      "inputs": [
        {
          "components": [
            {
              "name": "party",
              "type": "address"
            },
            {
              "name": "security",
              "type": "address"
            },
            {
              "name": "price",
              "type": "uint256"
            },
            {
              "name": "otype",
              "type": "bytes32"
            },
            {
              "name": "order",
              "type": "bytes32"
            },
            {
              "name": "status",
              "type": "bytes32"
            },
            {
              "name": "currency",
              "type": "bytes32"
            },
            {
              "name": "securityName",
              "type": "bytes32"
            },
            {
              "name": "qty",
              "type": "uint256"
            },
            {
              "name": "dt",
              "type": "uint256"
            }
          ],
          "name": "currentOrder",
          "type": "tuple"
        },
        {
          "name": "ref",
          "type": "bytes32"
        }
      ],
      "name": "editOrder",
      "outputs": [],
      "payable": false,
      "stateMutability": "nonpayable",
      "type": "function"
    },
    {
      "constant": false,
      "inputs": [
        {
          "name": "_ref",
          "type": "bytes32"
        },
        {
          "name": "_status",
          "type": "bytes32"
        }
      ],
      "name": "cancelOrder",
      "outputs": [],
      "payable": false,
      "stateMutability": "nonpayable",
      "type": "function"
    },
    {
      "constant": false,
      "inputs": [
        {
          "name": "tradeRef",
          "type": "bytes32"
        }
      ],
      "name": "tradeSettled",
      "outputs": [],
      "payable": false,
      "stateMutability": "nonpayable",
      "type": "function"
    }
  ],
  "bytecode": "0x608060405234801561001057600080fd5b50612578806100206000396000f3fe608060405234801561001057600080fd5b50600436106100935760003560e01c8063a3b1379911610066578063a3b13799146100fc578063a47d9d331461011d578063b0aeacc614610130578063ca385a9314610150578063fcfd88e91461016357610093565b80631459457a146100985780634218354e146100ad5780635778472a146100c057806365678bfd146100e9575b600080fd5b6100ab6100a6366004611bd0565b610176565b005b6100ab6100bb366004611cc3565b610260565b6100d36100ce366004611cc3565b6102da565b6040516100e09190612453565b60405180910390f35b6100ab6100f7366004611db1565b610380565b61010f61010a366004611cc3565b6104c7565b6040516100e0929190612326565b6100ab61012b366004611cff565b61062b565b61014361013e366004611c7f565b6107f7565b6040516100e09190612255565b6100ab61015e366004611de3565b610930565b6100ab610171366004611db1565b611502565b600054610100900460ff168061018f575061018f6119a8565b8061019d575060005460ff16155b6101c557604051600160e51b62461bcd0281526004016101bc90612443565b60405180910390fd5b600054610100900460ff161580156101f0576000805460ff1961ff0019909116610100171660011790555b603a80546001600160a01b03199081166001600160a01b0388811691909117909255603b80548216878416179055603c80548216868416179055603d80548216858416179055603e80549091169188169190911790558015610258576000805461ff00191690555b505050505050565b603a546001600160a01b0316331461027757600080fd5b600090815260386020526040812080546001600160a01b0319908116825560018201805482169055600282018054909116905560038101829055600481018290556005810182905560068101829055600781018290556008810182905560090155565b6102e26119f5565b6102ea6119f5565b5050604080516101408101825260008381526033602081815284832080546001600160a01b039081168652600182015416828601526002810154958501959095526003850154606085015260048501546080850152600585015460a0850152600685015460c0850152600785015460e085015260088501546101008501529185905290526009909101546101208201525b919050565b603d54604051600160e01b63ab986ddf0281526001600160a01b039091169063ab986ddf906103b390339060040161221f565b60206040518083038186803b1580156103cb57600080fd5b505afa1580156103df573d6000803e3d6000fd5b505050506040513d601f19601f820116820180604052506104039190810190611ca5565b151560011461041157600080fd5b6000818152603360205260409020546001600160a01b0316156104c357600081815260336020908152604091829020805485356001600160a01b039081166001600160a01b031992831617835593860135600283015561010086013560088301556080860135600483015560608601356003830155610120860135600983015560a0860135600583015560c0860135600683015560e08601356007830155600190910180549286013590931691161790555b5050565b60008181526033602052604081205481906001600160a01b031633146104ec57600080fd5b60008381526033602090815260408083206001015460398352818420548452603890925282206002015482916001600160a01b039182169116148015610558575060008581526039602090815260408083205483526038909152902060060154600160e81b6242757902145b1561058657505060008381526039602090815260408083205483526038909152902060038101546004909101545b600085815260336020908152604080832060010154603983528184205484526038909252909120600201546001600160a01b0390811691161480156105f2575060008581526039602090815260408083205483526038909152902060060154600160e21b6314d95b1b02145b156106215750506000838152603960209081526040808320548352603890915290206003810154600490910154905b9092509050915091565b603d54604051600160e01b63ab986ddf0281526001600160a01b039091169063ab986ddf9061065e90339060040161221f565b60206040518083038186803b15801561067657600080fd5b505afa15801561068a573d6000803e3d6000fd5b505050506040513d601f19601f820116820180604052506106ae9190810190611ca5565b15156001146106bc57600080fd5b6000828152603360205260409020546001600160a01b0316156104c357600082815260336020908152604080832060058101859055546001600160a01b031683526036909152812061070d91611a49565b600082815260336020908152604080832080546001600160a01b03199081168255600182018054909116905560028101849055600381018490556004810184905560058101849055600681018490556007810184905560088101849055600901839055603590915290205460348054909190811061078757fe5b600091825260208083209091018290558382526035815260408083208390556033909152908190205490517f07590eb3865798c48e7cb896d58a590640f2438221362eeca15da9a147490bb5916107eb9185916001600160a01b0316908590612274565b60405180910390a15050565b6060811561086057336000908152603660209081526040918290208054835181840281018401909452808452909183018282801561085457602002820191906000526020600020905b815481526020019060010190808311610840575b5050505050905061037b565b60345460408051828152602080840282010190915260609082801561088f578160200160208202803883390190505b5090506000805b60345481101561092457336001600160a01b031660336000603484815481106108bb57fe5b600091825260208083209091015483528201929092526040019020546001600160a01b03161461091c57603481815481106108f257fe5b906000526020600020015483838151811061090957fe5b6020026020010181815250508160010191505b600101610896565b8294505050505061037b565b603d54604051600160e01b63ab986ddf0281526001600160a01b039091169063ab986ddf9061096390339060040161221f565b60206040518083038186803b15801561097b57600080fd5b505afa15801561098f573d6000803e3d6000fd5b505050506040513d601f19601f820116820180604052506109b39190810190611ca5565b15156001146109c157600080fd5b600082826040516020016109d69291906121eb565b60405160208183030381529060405280519060200120905080603960008581526020019081526020016000208190555080603960008481526020019081526020016000208190555060405180610140016040528085600001356001600160a01b03166001600160a01b0316815260200185602001356001600160a01b03166001600160a01b0316815260200185604001356001600160a01b03166001600160a01b0316815260200185606001358152602001856080013581526020018560a0013581526020018560c0013581526020018560e00135815260200185610100013581526020018561012001358152506038600083815260200190815260200160002060008201518160000160006101000a8154816001600160a01b0302191690836001600160a01b0316021790555060208201518160010160006101000a8154816001600160a01b0302191690836001600160a01b0316021790555060408201518160020160006101000a8154816001600160a01b0302191690836001600160a01b03160217905550606082015181600301556080820151816004015560a0820151816005015560c0820151816006015560e08201518160070155610100820151816008015561012082015181600901559050506000806000603b60009054906101000a90046001600160a01b03166001600160a01b0316634a161b2788604001356001600160a01b03166040518263ffffffff1660e01b8152600401610bfc9190612211565b60606040518083038186803b158015610c1457600080fd5b505afa158015610c28573d6000803e3d6000fd5b505050506040513d601f19601f82011682018060405250610c4c9190810190611d2f565b92509250925060004290507fcec40b23a345717720ee8c6dc5820401ed93dcdd02c8599c4e407f40b2f449ae878786868c606001358d608001358e60a001358f610100013589604051610ca799989796959493929190612341565b60405180910390a18760e00135600160f41b61044502141561101957603b54604051600160e01b63e0a87de10281526000916001600160a01b039081169163e0a87de191610d009160208e013590911690600401612211565b60206040518083038186803b158015610d1857600080fd5b505afa158015610d2c573d6000803e3d6000fd5b505050506040513d601f19601f82011682018060405250610d509190810190611ce1565b603b54604051600160e01b63e0a87de10281529192506000916001600160a01b039182169163e0a87de191610d8b918e351690600401612211565b60206040518083038186803b158015610da357600080fd5b505afa158015610db7573d6000803e3d6000fd5b505050506040513d601f19601f82011682018060405250610ddb9190810190611ce1565b9050610de5611a6a565b60408051610220810182526001600160a01b038d35811682526020808f01358216818401528e84013582168385015260008c81526038909152838120600201548451600160e01b6306fdde0302815294519394606086019491909316926306fdde03926004808301939192829003018186803b158015610e6457600080fd5b505afa158015610e78573d6000803e3d6000fd5b505050506040513d6000823e601f3d908101601f19168201604052610ea09190810190611d7c565b604051600160e31b6319f6a32502815273__stringutils___________________________9163cfb5192891610ed99190600401612422565b60206040518083038186803b158015610ef157600080fd5b505af4158015610f05573d6000803e3d6000fd5b505050506040513d601f19601f82011682018060405250610f299190810190611ce1565b8152602001600160c81b6650656e64696e670281526020018381526020018481526020018881526020018781526020018c60a0013581526020018c606001358152602001610f808d606001358e61010001356119af565b81526101008d013560208201526040808201879052336060830152608082018d905260a09091018b9052603a549051600160e21b6302a616a90281529192506001600160a01b031690630a985aa490610fdf9084908c90600401612462565b600060405180830381600087803b158015610ff957600080fd5b505af115801561100d573d6000803e3d6000fd5b505050505050506114f8565b8760e00135600160ec1b620535450214156114f857603e54604051600160e21b632e5ac8010281526000916001600160a01b03169063b96b2004906110669060a08d013590600401612266565b604080518083038186803b15801561107d57600080fd5b505afa158015611091573d6000803e3d6000fd5b505050506040513d601f19601f820116820180604052506110b59190810190611c45565b509050806001600160a01b03166323b872dd8a602001356001600160a01b03168b600001356001600160a01b03166110f68d606001358e61010001356119af565b6040518463ffffffff1660e01b81526004016111149392919061222d565b602060405180830381600087803b15801561112e57600080fd5b505af1158015611142573d6000803e3d6000fd5b505050506040513d601f19601f820116820180604052506111669190810190611ca5565b156114f6576000836001600160a01b03166323b872dd8b600001356001600160a01b03168c602001356001600160a01b03168d61010001356040518463ffffffff1660e01b81526004016111bc9392919061222d565b602060405180830381600087803b1580156111d657600080fd5b505af11580156111ea573d6000803e3d6000fd5b505050506040513d601f19601f8201168201806040525061120e9190810190611ca5565b90508061138557604051600160e71b623e08090281523390631f04048090611241908c906101008f0135906004016123fb565b600060405180830381600087803b15801561125b57600080fd5b505af115801561126f573d6000803e3d6000fd5b5050604051600160e71b623e0809028152339250631f040480915061129f908b906101008f0135906004016123d4565b600060405180830381600087803b1580156112b957600080fd5b505af11580156112cd573d6000803e3d6000fd5b50505050816001600160a01b03166323b872dd8b600001356001600160a01b03168c602001356001600160a01b031661130f8e606001358f61010001356119af565b6040518463ffffffff1660e01b815260040161132d9392919061222d565b602060405180830381600087803b15801561134757600080fd5b505af115801561135b573d6000803e3d6000fd5b505050506040513d601f19601f8201168201806040525061137f9190810190611ca5565b506114f4565b604051600160e11b6309e722a302815233906313ce4546906113ad908c908c90600401612326565b600060405180830381600087803b1580156113c757600080fd5b505af11580156113db573d6000803e3d6000fd5b50505050603360008a8152602001908152602001600020600080820160006101000a8154906001600160a01b0302191690556001820160006101000a8154906001600160a01b03021916905560028201600090556003820160009055600482016000905560058201600090556006820160009055600782016000905560088201600090556009820160009055505060336000898152602001908152602001600020600080820160006101000a8154906001600160a01b0302191690556001820160006101000a8154906001600160a01b0302191690556002820160009055600382016000905560048201600090556005820160009055600682016000905560078201600090556008820160009055600982016000905550505b505b505b5050505050505050565b603d54604051600160e01b63ab986ddf0281526001600160a01b039091169063ab986ddf9061153590339060040161221f565b60206040518083038186803b15801561154d57600080fd5b505afa158015611561573d6000803e3d6000fd5b505050506040513d601f19601f820116820180604052506115859190810190611ca5565b151560011461159357600080fd5b6000818152603360205260409020546001600160a01b03166104c35781600001356001600160a01b03166033600083815260200190815260200160002060000160006101000a8154816001600160a01b0302191690836001600160a01b03160217905550816040013560336000838152602001908152602001600020600201819055508161010001356033600083815260200190815260200160002060080181905550816080013560336000838152602001908152602001600020600401819055508160600135603360008381526020019081526020016000206003018190555081610120013560336000838152602001908152602001600020600901819055508160a0013560336000838152602001908152602001600020600501819055508160c0013560336000838152602001908152602001600020600601819055508160e00135603360008381526020019081526020016000206007018190555081602001356001600160a01b03166033600083815260200190815260200160002060010160006101000a8154816001600160a01b0302191690836001600160a01b0316021790555060348054905060356000838152602001908152602001600020819055506034819080600181540180825580915050906001820390600052602060002001600090919290919091505550603660006033600084815260200190815260200160002060000160009054906101000a90046001600160a01b03166001600160a01b03166001600160a01b03168152602001908152602001600020805490506037600083815260200190815260200160002081905550603660006033600084815260200190815260200160002060000160009054906101000a90046001600160a01b03166001600160a01b03166001600160a01b031681526020019081526020016000208190806001815401808255809150509060018203906000526020600020016000909192909190915055507ff9ceedb302ac77dd81be3ae406e07b83141f282bb79a6316159e4a9cb6fa407e816033600084815260200190815260200160002060000160009054906101000a90046001600160a01b031660336000858152602001908152602001600020600201546033600086815260200190815260200160002060080154603360008781526020019081526020016000206004015460336000888152602001908152602001600020600301546033600089815260200190815260200160002060090154603360008a815260200190815260200160002060050154603360008b815260200190815260200160002060060154603360008c815260200190815260200160002060070154603360008d815260200190815260200160002060010160009054906101000a90046001600160a01b03166040516107eb9b9a99989796959493929190612282565b303b155b90565b6000826119be575060006119ef565b828202828482816119cb57fe5b04146119ec57604051600160e51b62461bcd0281526004016101bc90612433565b90505b92915050565b6040805161014081018252600080825260208201819052918101829052606081018290526080810182905260a0810182905260c0810182905260e08101829052610100810182905261012081019190915290565b5080546000825590600052602060002090810190611a679190611af6565b50565b6040805161022081018252600080825260208201819052918101829052606081018290526080810182905260a0810182905260c0810182905260e08101829052610100810182905261012081018290526101408101829052610160810182905261018081018290526101a081018290526101c081018290526101e0810182905261020081019190915290565b6119ac91905b80821115611b105760008155600101611afc565b5090565b6000611b2082356124e1565b9392505050565b6000611b2082516124e1565b6000611b2082356124f2565b6000611b2082516124f2565b6000611b2082356119ac565b6000611b2082516119ac565b600082601f830112611b7457600080fd5b8151611b87611b82826124a6565b61247f565b91508082526020830160208301858383011115611ba357600080fd5b611bae838284612508565b50505092915050565b60006101408284031215611bca57600080fd5b50919050565b600080600080600060a08688031215611be857600080fd5b6000611bf48888611b14565b9550506020611c0588828901611b14565b9450506040611c1688828901611b14565b9350506060611c2788828901611b14565b9250506080611c3888828901611b14565b9150509295509295909350565b60008060408385031215611c5857600080fd5b6000611c648585611b27565b9250506020611c7585828601611b57565b9150509250929050565b600060208284031215611c9157600080fd5b6000611c9d8484611b33565b949350505050565b600060208284031215611cb757600080fd5b6000611c9d8484611b3f565b600060208284031215611cd557600080fd5b6000611c9d8484611b4b565b600060208284031215611cf357600080fd5b6000611c9d8484611b57565b60008060408385031215611d1257600080fd5b6000611d1e8585611b4b565b9250506020611c7585828601611b4b565b600080600060608486031215611d4457600080fd5b6000611d508686611b57565b9350506020611d6186828701611b57565b9250506040611d7286828701611b27565b9150509250925092565b600060208284031215611d8e57600080fd5b815167ffffffffffffffff811115611da557600080fd5b611c9d84828501611b63565b6000806101608385031215611dc557600080fd5b6000611dd18585611bb7565b925050610140611c7585828601611b4b565b60008060006101808486031215611df957600080fd5b6000611e058686611bb7565b935050610140611e1786828701611b4b565b925050610160611d7286828701611b4b565b6000611e358383611eaa565b505060200190565b611e46816124f7565b82525050565b611e46816124e1565b6000611e60826124d4565b611e6a81856124d8565b9350611e75836124ce565b60005b82811015611ea057611e8b868351611e29565b9550611e96826124ce565b9150600101611e78565b5093949350505050565b611e46816119ac565b611e46611ebf826119ac565b6119ac565b6000611ecf826124d4565b611ed981856124d8565b9350611ee9818560208601612508565b611ef281612534565b9093019392505050565b600160c81b6650656e64696e67029052565b600160e81b62627579029052565b6000611f296021836124d8565b7f536166654d6174683a206d756c7469706c69636174696f6e206f766572666c6f8152600160f81b607702602082015260400192915050565b6000611f6f602e836124d8565b7f436f6e747261637420696e7374616e63652068617320616c726561647920626581527f656e20696e697469616c697a6564000000000000000000000000000000000000602082015260400192915050565b600160e21b631cd95b1b029052565b8051610140830190611fe28482611e4c565b506020820151611ff56020850182611e4c565b5060408201516120086040850182611eaa565b50606082015161201b6060850182611eaa565b50608082015161202e6080850182611eaa565b5060a082015161204160a0850182611eaa565b5060c082015161205460c0850182611eaa565b5060e082015161206760e0850182611eaa565b5061010082015161207c610100850182611eaa565b50610120820151612091610120850182611eaa565b50505050565b80516102208301906120a98482611e4c565b5060208201516120bc6020850182611e4c565b5060408201516120cf6040850182611e4c565b5060608201516120e26060850182611eaa565b5060808201516120f56080850182611eaa565b5060a082015161210860a0850182611eaa565b5060c082015161211b60c0850182611eaa565b5060e082015161212e60e0850182611eaa565b50610100820151612143610100850182611eaa565b50610120820151612158610120850182611eaa565b5061014082015161216d610140850182611eaa565b50610160820151612182610160850182611eaa565b50610180820151612197610180850182611eaa565b506101a08201516121ac6101a0850182611eaa565b506101c08201516121c16101c0850182611e4c565b506101e08201516121d66101e0850182611eaa565b50610200820151612091610200850182611eaa565b60006121f78285611eb3565b6020820191506122078284611eb3565b5060200192915050565b602081016119ef8284611e4c565b602081016119ef8284611e3d565b6060810161223b8286611e4c565b6122486020830185611e4c565b611c9d6040830184611eaa565b60208082528101611b208184611e55565b602081016119ef8284611eaa565b6060810161223b8286611eaa565b6101608101612291828e611eaa565b61229e602083018d611e4c565b6122ab604083018c611eaa565b6122b8606083018b611eaa565b6122c5608083018a611eaa565b6122d260a0830189611eaa565b6122df60c0830188611eaa565b6122ec60e0830187611eaa565b6122fa610100830186611eaa565b612308610120830185611eaa565b612316610140830184611e4c565b9c9b505050505050505050505050565b604081016123348285611eaa565b611b206020830184611eaa565b6101408101612350828c611eaa565b61235d602083018b611eaa565b61236a604083018a611eaa565b6123776060830189611eaa565b6123846080830188611eaa565b61239160a0830187611eaa565b61239e60c0830186611eaa565b6123ab60e0830185611eaa565b6123b86101008301611efc565b6123c6610120830184611eaa565b9a9950505050505050505050565b606081016123e28285611eaa565b6123ef6020830184611eaa565b611b2060408301611f0e565b606081016124098285611eaa565b6124166020830184611eaa565b611b2060408301611fc1565b60208082528101611b208184611ec4565b602080825281016119ef81611f1c565b602080825281016119ef81611f62565b61014081016119ef8284611fd0565b61024081016124718285612097565b611b20610220830184611eaa565b60405181810167ffffffffffffffff8111828210171561249e57600080fd5b604052919050565b600067ffffffffffffffff8211156124bd57600080fd5b506020601f91909101601f19160190565b60200190565b5190565b90815260200190565b60006001600160a01b0382166119ef565b151590565b60006119ef8260006119ef826124e1565b60005b8381101561252357818101518382015260200161250b565b838111156120915750506000910152565b601f01601f19169056fea265627a7a72305820964ae2f9761a0647d550e597789e61122d2a67d11da544674992ddc6439926946c6578706572696d656e74616cf50037",
  "source": "// Routing new orders\r\n// (c) Kallol Borah, 2021\r\n\r\npragma solidity 0.5.7;\r\npragma experimental ABIEncoderV2;\r\n \r\nimport \"./registry/Security.sol\";\r\nimport \"./interfaces/ITrade.sol\";\r\nimport \"./interfaces/IPreTrade.sol\";\r\nimport \"./interfaces/IPostTrade.sol\";\r\nimport \"./interfaces/IOrderPool.sol\";\r\nimport \"./interfaces/IPoolFactory.sol\";\r\nimport \"./interfaces/ViaCash.sol\";\r\nimport \"./interfaces/ViaFactory.sol\";\r\nimport \"./utilities/StringUtils.sol\";\r\nimport \"abdk-libraries-solidity/ABDKMathQuad.sol\";\r\nimport \"@openzeppelin/upgrades/contracts/Initializable.sol\";\r\nimport \"@openzeppelin/contracts-ethereum-package/contracts/math/SafeMath.sol\";\r\n\r\ncontract Trade is ITrade, Initializable {\r\n\r\n    using ABDKMathQuad for uint256;\r\n    using ABDKMathQuad for int256;\r\n    using ABDKMathQuad for bytes16;\r\n\r\n    using stringutils for *;\r\n\r\n    using SafeMath for uint256;\r\n\r\n    //mapping an order reference to order details\r\n    mapping(bytes32 => ITrade.order) private orders;\r\n\r\n    //order references\r\n    bytes32[] orderRefs;\r\n\r\n    //mapping order reference to position in index\r\n    mapping(bytes32 => uint256) private orderIndex;\r\n\r\n    //mapping users to order references\r\n    mapping(address => bytes32[]) private userOrderRefs;\r\n\r\n    //mapping user's order reference to positions\r\n    mapping(bytes32 => uint256) private userOrderIndex;\r\n\r\n    //mapping a trade reference to trade details\r\n    mapping(bytes32 => ITrade.trade) private trades;\r\n\r\n    //mapping order ref to trade reference\r\n    mapping(bytes32 => bytes32) private tradeRefs;\r\n\r\n    address settlement;\r\n    address registration;\r\n    address orderpool;\r\n    address poolfactory;\r\n    ViaFactory private via;\r\n\r\n    event orderNew(\r\n                bytes32 orderReference,\r\n                address party,\r\n                uint256 price,\r\n                uint256 amount,\r\n                bytes32 order, \r\n                bytes32 orderType,\r\n                uint256 date,\r\n                bytes32 status,\r\n                bytes32 currency,\r\n                bytes32 securityName,\r\n                address security\r\n            );\r\n\r\n    event orderCancel(bytes32 orderRef, address party, bytes32 status);\r\n\r\n    event tradeReport(\r\n                    bytes32 partyReference, \r\n                    bytes32 counterpartyReference, \r\n                    bytes32 isin,\r\n                    bytes32 company,\r\n                    uint256 price,\r\n                    uint256 askprice, \r\n                    bytes32 currency, \r\n                    uint256 amount, \r\n                    bytes32 status,\r\n                    uint256 executionDate\r\n                );\r\n\r\n    function initialize(address _viaFactory, address _settlement, address _registration, address _orderpool, address _poolfactory) public initializer{\r\n        settlement = _settlement;\r\n        registration = _registration;\r\n        orderpool = _orderpool;\r\n        poolfactory = _poolfactory;\r\n        via = ViaFactory(_viaFactory);\r\n    }\r\n\r\n    function reportTrade(ITrade.trade calldata newTrade, bytes32 partyRef, bytes32 counterpartyRef) external {\r\n        require(IPoolFactory(poolfactory).confirmPool(msg.sender)==true);\r\n        bytes32 _tradeRef = keccak256(abi.encodePacked(partyRef, counterpartyRef));\r\n        //tradeIndex[_tradeRef] = tradeRefs.length;\r\n        //tradeRefs.push(_tradeRef);\r\n        tradeRefs[partyRef] = _tradeRef;\r\n        tradeRefs[counterpartyRef] = _tradeRef;\r\n        trades[_tradeRef]=trade(newTrade.transferor, \r\n                                newTrade.transferee, \r\n                                newTrade.security,\r\n                                newTrade.price,\r\n                                newTrade.askprice, \r\n                                newTrade.currency, \r\n                                newTrade.order,\r\n                                newTrade.stype,\r\n                                newTrade.qty, \r\n                                newTrade.dt);   \r\n        (bytes32 _isin, bytes32 _company, address _token) = IPreTrade(registration).getSecurity(newTrade.security);\r\n        uint256 _executionDt = now;\r\n        emit tradeReport(partyRef, \r\n                        counterpartyRef, \r\n                        _isin,\r\n                        _company,\r\n                        newTrade.price,\r\n                        newTrade.askprice, \r\n                        newTrade.currency, \r\n                        newTrade.qty, \r\n                        \"Pending\",\r\n                        _executionDt);   \r\n        if(newTrade.stype==\"DP\"){\r\n            bytes32 _transfereeDPID = IPreTrade(registration).getDP(newTrade.transferee);\r\n            bytes32 _transferorDPID = IPreTrade(registration).getDP(newTrade.transferor);\r\n            IPostTrade.settlement memory tradeToSettle = IPostTrade.settlement({\r\n                transferor : newTrade.transferor,\r\n                transferee : newTrade.transferee,\r\n                security : newTrade.security,\r\n                securityName : Security(trades[_tradeRef].security).name().stringToBytes32(),\r\n                status : \"Pending\",\r\n                transferorDPID : _transferorDPID,\r\n                transfereeDPID : _transfereeDPID,\r\n                isin : _isin,\r\n                company : _company,\r\n                currency : newTrade.currency,\r\n                price : newTrade.price,\r\n                consideration : SafeMath.mul(newTrade.price, newTrade.qty),\r\n                unitsToTransfer : newTrade.qty,\r\n                executionDate : _executionDt,\r\n                orderPool : msg.sender,\r\n                partyRef : partyRef,\r\n                counterpartyRef : counterpartyRef\r\n            });            \r\n            IPostTrade(settlement).postSettlement(tradeToSettle, _tradeRef);\r\n        }\r\n        else if(newTrade.stype==\"STP\"){\r\n            (address cashToken, ) = via.getAddressAndType(newTrade.currency);\r\n            if(ViaCash(cashToken).transferFrom(newTrade.transferee, newTrade.transferor, SafeMath.mul(newTrade.price, newTrade.qty))){\r\n                bool success = Security(_token).transferFrom(newTrade.transferor, newTrade.transferee, newTrade.qty);\r\n                if(!success){\r\n                    IOrderPool(msg.sender).revertTrade(partyRef, newTrade.qty, \"sell\");\r\n                    IOrderPool(msg.sender).revertTrade(counterpartyRef, newTrade.qty, \"buy\");\r\n                    ViaCash(cashToken).transferFrom(newTrade.transferor, newTrade.transferee, SafeMath.mul(newTrade.price, newTrade.qty));\r\n                }\r\n                else{\r\n                    IOrderPool(msg.sender).orderFilled(partyRef, counterpartyRef);\r\n                    delete orders[partyRef];\r\n                    delete orders[counterpartyRef];\r\n                }\r\n            }\r\n        }\r\n    }\r\n\r\n    //returns bid, ask, last change corresponding to passed order ref\r\n    function getTrade(bytes32 ref) external view returns(uint256 b, uint256 a){\r\n        require(orders[ref].party==msg.sender);\r\n        uint256 bid=0;\r\n        uint256 ask=0;\r\n        if(trades[tradeRefs[ref]].security==orders[ref].security && trades[tradeRefs[ref]].order==\"Buy\"){\r\n            bid = trades[tradeRefs[ref]].price;\r\n            ask = trades[tradeRefs[ref]].askprice;\r\n        }\r\n        if(trades[tradeRefs[ref]].security==orders[ref].security && trades[tradeRefs[ref]].order==\"Sell\"){\r\n            ask = trades[tradeRefs[ref]].price;\r\n            bid = trades[tradeRefs[ref]].askprice;\r\n        }\r\n        return (bid, ask);\r\n    }\r\n\r\n    function reportOrder(ITrade.order calldata newOrder, bytes32 ref) external {\r\n        require(IPoolFactory(poolfactory).confirmPool(msg.sender)==true);\r\n        if(orders[ref].party==address(0x0)){\r\n            orders[ref].party = newOrder.party;\r\n            orders[ref].price = newOrder.price;\r\n            orders[ref].qty = newOrder.qty;\r\n            orders[ref].order = newOrder.order; \r\n            orders[ref].otype = newOrder.otype;\r\n            orders[ref].dt = newOrder.dt;\r\n            orders[ref].status = newOrder.status;\r\n            orders[ref].currency = newOrder.currency;\r\n            orders[ref].securityName = newOrder.securityName;\r\n            orders[ref].security = newOrder.security;\r\n            orderIndex[ref] = orderRefs.length;\r\n            orderRefs.push(ref);\r\n            userOrderIndex[ref] = userOrderRefs[orders[ref].party].length;\r\n            userOrderRefs[orders[ref].party].push(ref);\r\n            emit orderNew(\r\n                ref,\r\n                orders[ref].party,\r\n                orders[ref].price,\r\n                orders[ref].qty,\r\n                orders[ref].order, \r\n                orders[ref].otype,\r\n                orders[ref].dt,\r\n                orders[ref].status,\r\n                orders[ref].currency,\r\n                orders[ref].securityName,\r\n                orders[ref].security\r\n            );\r\n        }\r\n    }\r\n\r\n    function getOrders(bool originator) external view returns(bytes32[] memory){\r\n        if(originator){\r\n            return userOrderRefs[msg.sender];\r\n        }\r\n        else{\r\n            uint entries = orderRefs.length;\r\n            bytes32[] memory result = new bytes32[](entries);\r\n            uint entry=0;\r\n            uint i;\r\n            for(i=0; i<orderRefs.length; i++){\r\n                if(orders[orderRefs[i]].party!=msg.sender){\r\n                    result[entry]=orderRefs[i];\r\n                    entry=entry+1;\r\n                }\r\n            }\r\n            return result;\r\n        }\r\n    }\r\n\r\n    function getOrder(bytes32 ref) external view returns(ITrade.order memory){\r\n        ITrade.order memory response = ITrade.order({\r\n            party : orders[ref].party,\r\n            security : orders[ref].security,\r\n            price : orders[ref].price,\r\n            otype : orders[ref].otype,\r\n            order : orders[ref].order,\r\n            status : orders[ref].status,\r\n            currency : orders[ref].currency,\r\n            securityName : orders[ref].securityName,\r\n            qty : orders[ref].qty,\r\n            dt : orders[ref].dt\r\n        });\r\n        return(response);\r\n    }   \r\n\r\n    function editOrder(ITrade.order calldata currentOrder, bytes32 ref) external{\r\n        require(IPoolFactory(poolfactory).confirmPool(msg.sender)==true);\r\n        if(orders[ref].party!=address(0x0)){\r\n            orders[ref].party = currentOrder.party;\r\n            orders[ref].price = currentOrder.price;\r\n            orders[ref].qty = currentOrder.qty;\r\n            orders[ref].order = currentOrder.order; \r\n            orders[ref].otype = currentOrder.otype;\r\n            orders[ref].dt = currentOrder.dt;\r\n            orders[ref].status = currentOrder.status;\r\n            orders[ref].currency = currentOrder.currency;\r\n            orders[ref].securityName = currentOrder.securityName;\r\n            orders[ref].security = currentOrder.security;\r\n        }\r\n    }\r\n\r\n    function cancelOrder(bytes32 _ref, bytes32 _status) external{\r\n        require(IPoolFactory(poolfactory).confirmPool(msg.sender)==true);\r\n        if(orders[_ref].party!=address(0x0)){\r\n            orders[_ref].status = _status;\r\n            delete userOrderRefs[orders[_ref].party];\r\n            delete orders[_ref];\r\n            delete orderRefs[orderIndex[_ref]];\r\n            delete orderIndex[_ref];\r\n            emit orderCancel(_ref, orders[_ref].party, _status);\r\n        }\r\n    }\r\n\r\n    function tradeSettled(bytes32 tradeRef) external {\r\n        require(settlement==msg.sender);\r\n        delete trades[tradeRef];\r\n        //delete tradeIndex[tradeRef];\r\n    }\r\n    \r\n}",
  "sourcePath": "D:\\Code\\verified-trades\\contracts\\Trade.sol",
  "compiler": {
    "name": "solc",
    "version": "0.5.7+commit.6da8b019.Emscripten.clang"
  },
  "schemaVersion": "3.4.3",
  "updatedAt": "2022-01-27T17:22:44.472Z",
  "networkType": "ethereum",
  "devdoc": {
    "methods": {}
  },
  "userdoc": {
    "methods": {}
  }
}