{
  "contractName": "Trade",
  "abi": [
    {
      "constant": false,
      "inputs": [],
      "name": "renounceOwnership",
      "outputs": [],
      "payable": false,
      "stateMutability": "nonpayable",
      "type": "function"
    },
    {
      "constant": true,
      "inputs": [],
      "name": "owner",
      "outputs": [
        {
          "name": "",
          "type": "address"
        }
      ],
      "payable": false,
      "stateMutability": "view",
      "type": "function"
    },
    {
      "constant": true,
      "inputs": [],
      "name": "isOwner",
      "outputs": [
        {
          "name": "",
          "type": "bool"
        }
      ],
      "payable": false,
      "stateMutability": "view",
      "type": "function"
    },
    {
      "constant": false,
      "inputs": [
        {
          "name": "newOwner",
          "type": "address"
        }
      ],
      "name": "transferOwnership",
      "outputs": [],
      "payable": false,
      "stateMutability": "nonpayable",
      "type": "function"
    },
    {
      "anonymous": false,
      "inputs": [
        {
          "indexed": true,
          "name": "previousOwner",
          "type": "address"
        },
        {
          "indexed": true,
          "name": "newOwner",
          "type": "address"
        }
      ],
      "name": "OwnershipTransferred",
      "type": "event"
    },
    {
      "constant": false,
      "inputs": [
        {
          "name": "_viaFactory",
          "type": "address"
        },
        {
          "name": "_settlement",
          "type": "address"
        },
        {
          "name": "_registration",
          "type": "address"
        },
        {
          "name": "_orderpool",
          "type": "address"
        },
        {
          "name": "_poolfactory",
          "type": "address"
        }
      ],
      "name": "initialize",
      "outputs": [],
      "payable": false,
      "stateMutability": "nonpayable",
      "type": "function"
    },
    {
      "constant": false,
      "inputs": [
        {
          "name": "sender",
          "type": "address"
        }
      ],
      "name": "initialize",
      "outputs": [],
      "payable": false,
      "stateMutability": "nonpayable",
      "type": "function"
    },
    {
      "constant": false,
      "inputs": [
        {
          "name": "a",
          "type": "address[]"
        },
        {
          "name": "by",
          "type": "bytes32[]"
        },
        {
          "name": "_price",
          "type": "bytes16"
        },
        {
          "name": "_qty",
          "type": "uint256"
        }
      ],
      "name": "reportTrade",
      "outputs": [],
      "payable": false,
      "stateMutability": "nonpayable",
      "type": "function"
    },
    {
      "constant": false,
      "inputs": [
        {
          "name": "a",
          "type": "address[]"
        },
        {
          "name": "u",
          "type": "uint256[]"
        },
        {
          "name": "b",
          "type": "bytes32[]"
        },
        {
          "name": "by",
          "type": "bytes16[]"
        }
      ],
      "name": "reportOrder",
      "outputs": [],
      "payable": false,
      "stateMutability": "nonpayable",
      "type": "function"
    },
    {
      "constant": true,
      "inputs": [
        {
          "name": "originator",
          "type": "bool"
        }
      ],
      "name": "getOrders",
      "outputs": [
        {
          "name": "",
          "type": "bytes32[]"
        }
      ],
      "payable": false,
      "stateMutability": "view",
      "type": "function"
    },
    {
      "constant": true,
      "inputs": [
        {
          "name": "ref",
          "type": "bytes32"
        }
      ],
      "name": "getOrder",
      "outputs": [
        {
          "name": "",
          "type": "bytes32[]"
        },
        {
          "name": "",
          "type": "uint256[]"
        }
      ],
      "payable": false,
      "stateMutability": "view",
      "type": "function"
    },
    {
      "constant": true,
      "inputs": [
        {
          "name": "ref",
          "type": "bytes32"
        }
      ],
      "name": "getTrade",
      "outputs": [
        {
          "name": "",
          "type": "bytes16"
        },
        {
          "name": "",
          "type": "bytes16"
        }
      ],
      "payable": false,
      "stateMutability": "view",
      "type": "function"
    },
    {
      "constant": false,
      "inputs": [
        {
          "name": "a",
          "type": "address[]"
        },
        {
          "name": "u",
          "type": "uint256[]"
        },
        {
          "name": "b",
          "type": "bytes32[]"
        },
        {
          "name": "by",
          "type": "bytes16[]"
        }
      ],
      "name": "editOrder",
      "outputs": [],
      "payable": false,
      "stateMutability": "nonpayable",
      "type": "function"
    },
    {
      "constant": false,
      "inputs": [
        {
          "name": "_ref",
          "type": "bytes32"
        },
        {
          "name": "_status",
          "type": "bytes32"
        }
      ],
      "name": "cancelOrder",
      "outputs": [],
      "payable": false,
      "stateMutability": "nonpayable",
      "type": "function"
    }
  ],
  "bytecode": "0x60806040526126b8806100136000396000f3fe608060405234801561001057600080fd5b50600436106100cf5760003560e01c80638f32d59b1161008c578063b0aeacc611610066578063b0aeacc6146104af578063c08915031461051e578063c4d66de81461067c578063f2fde38b146106a2576100cf565b80638f32d59b1461042c578063a3b1379914610448578063a47d9d331461048c576100cf565b80630ae5c4b3146100d45780631459457a146101a45780631e058655146101ec5780635778472a1461034a578063715018a6146104005780638da5cb5b14610408575b600080fd5b6101a2600480360360808110156100ea57600080fd5b810190602081018135600160201b81111561010457600080fd5b82018360208201111561011657600080fd5b803590602001918460208302840111600160201b8311171561013757600080fd5b919390929091602081019035600160201b81111561015457600080fd5b82018360208201111561016657600080fd5b803590602001918460208302840111600160201b8311171561018757600080fd5b91935091506001600160801b031981351690602001356106c8565b005b6101a2600480360360a08110156101ba57600080fd5b506001600160a01b0381358116916020810135821691604082013581169160608101358216916080909101351661154d565b6101a26004803603608081101561020257600080fd5b810190602081018135600160201b81111561021c57600080fd5b82018360208201111561022e57600080fd5b803590602001918460208302840111600160201b8311171561024f57600080fd5b919390929091602081019035600160201b81111561026c57600080fd5b82018360208201111561027e57600080fd5b803590602001918460208302840111600160201b8311171561029f57600080fd5b919390929091602081019035600160201b8111156102bc57600080fd5b8201836020820111156102ce57600080fd5b803590602001918460208302840111600160201b831117156102ef57600080fd5b919390929091602081019035600160201b81111561030c57600080fd5b82018360208201111561031e57600080fd5b803590602001918460208302840111600160201b8311171561033f57600080fd5b509092509050611656565b6103676004803603602081101561036057600080fd5b5035611b9e565b604051808060200180602001838103835285818151815260200191508051906020019060200280838360005b838110156103ab578181015183820152602001610393565b50505050905001838103825284818151815260200191508051906020019060200280838360005b838110156103ea5781810151838201526020016103d2565b5050505090500194505050505060405180910390f35b6101a2611d83565b610410611e29565b604080516001600160a01b039092168252519081900360200190f35b610434611e38565b604080519115158252519081900360200190f35b6104656004803603602081101561045e57600080fd5b5035611e5e565b604080516001600160801b0319938416815291909216602082015281519081900390910190f35b6101a2600480360360408110156104a257600080fd5b5080359060200135612057565b6104ce600480360360208110156104c557600080fd5b50351515612115565b60408051602080825283518183015283519192839290830191858101910280838360005b8381101561050a5781810151838201526020016104f2565b505050509050019250505060405180910390f35b6101a26004803603608081101561053457600080fd5b810190602081018135600160201b81111561054e57600080fd5b82018360208201111561056057600080fd5b803590602001918460208302840111600160201b8311171561058157600080fd5b919390929091602081019035600160201b81111561059e57600080fd5b8201836020820111156105b057600080fd5b803590602001918460208302840111600160201b831117156105d157600080fd5b919390929091602081019035600160201b8111156105ee57600080fd5b82018360208201111561060057600080fd5b803590602001918460208302840111600160201b8311171561062157600080fd5b919390929091602081019035600160201b81111561063e57600080fd5b82018360208201111561065057600080fd5b803590602001918460208302840111600160201b8311171561067157600080fd5b509092509050612289565b6101a26004803603602081101561069257600080fd5b50356001600160a01b031661238e565b6101a2600480360360208110156106b857600080fd5b50356001600160a01b0316612482565b606d5460408051600160e01b63ab986ddf02815233600482015290516001600160a01b039092169163ab986ddf91602480820192602092909190829003018186803b15801561071657600080fd5b505afa15801561072a573d6000803e3d6000fd5b505050506040513d602081101561074057600080fd5b5051151560011461075057600080fd5b60008484600081811061075f57fe5b905060200201358585600181811061077357fe5b6040805160208181019690965291850293909301358184015282518082038401815260609091019092525080519101206069805460018101825560009182527f7fb4302e8e91f9110a6554c2c0a24601252c2a42c2220ca988efcfe39991430801829055606e54919250906001600160a01b0316635fd4b08a898960028181106107f957fe5b905060200201356001600160a01b03166040518263ffffffff1660e01b815260040180826001600160a01b03166001600160a01b0316815260200191505060206040518083038186803b15801561084f57600080fd5b505afa158015610863573d6000803e3d6000fd5b505050506040513d602081101561087957600080fd5b505160408051610120810190915290915080898960008161089657fe5b905060200201356001600160a01b03166001600160a01b03168152602001898960018181106108c157fe5b905060200201356001600160a01b03166001600160a01b03168152602001898960038181106108ec57fe5b905060200201356001600160a01b03166001600160a01b03168152602001856001600160801b03191681526020018281526020018787600381811061092d57fe5b9050602002013581526020018787600281811061094657fe5b6020908102929092013583525081810186905242604092830152600085815260688252828120845181546001600160a01b03199081166001600160a01b0392831617835593860151600183018054861691831691909117905593850151600282018054909416908516179092556060840151600380840180546001600160801b031916608093841c17905590850151600484015560a0850151600584015560c0850151600684015560e0850151600784015561010090940151600890920191909155606b549092839283921690634a161b27908d908d90818110610a2657fe5b905060200201356001600160a01b03166040518263ffffffff1660e01b815260040180826001600160a01b03166001600160a01b0316815260200191505060606040518083038186803b158015610a7c57600080fd5b505afa158015610a90573d6000803e3d6000fd5b505050506040513d6060811015610aa657600080fd5b5080516020820151604090920151909450909250905088886002818110610ac957fe5b90506020020135600160f41b61044502141561114957606b546000906001600160a01b031663e0a87de18d8d6001818110610b0057fe5b905060200201356001600160a01b03166040518263ffffffff1660e01b815260040180826001600160a01b03166001600160a01b0316815260200191505060206040518083038186803b158015610b5657600080fd5b505afa158015610b6a573d6000803e3d6000fd5b505050506040513d6020811015610b8057600080fd5b5051606b549091506000906001600160a01b031663e0a87de18e8e8481610ba357fe5b905060200201356001600160a01b03166040518263ffffffff1660e01b815260040180826001600160a01b03166001600160a01b0316815260200191505060206040518083038186803b158015610bf957600080fd5b505afa158015610c0d573d6000803e3d6000fd5b505050506040513d6020811015610c2357600080fd5b50516040805160028082526060808301845293945090916020830190803883390190505090508881600081518110610c5757fe5b602002602001018181525050610c6c8a6124ea565b81600181518110610c7957fe5b602090810291909101015260408051600780825261010082019092526060918160200160208202803883390190505090508681600081518110610cb857fe5b6020026020010181815250508581600181518110610cd257fe5b6020026020010181815250508281600281518110610cec57fe5b6020026020010181815250508381600381518110610d0657fe5b6020026020010181815250508881600481518110610d2057fe5b6020026020010181815250508781600581518110610d3a57fe5b60209081029190910181019190915260008a815260689091526040808220600201548151600160e01b6306fdde0302815291516001600160a01b03909116926306fdde039260048082019391829003018186803b158015610d9a57600080fd5b505afa158015610dae573d6000803e3d6000fd5b505050506040513d6000823e601f3d908101601f191682016040526020811015610dd757600080fd5b810190808051600160201b811115610dee57600080fd5b82016020810184811115610e0157600080fd5b8151600160201b811182820187101715610e1a57600080fd5b5050604051600160e31b6319f6a32502815260206004820181815283516024840152835173__stringutils___________________________975063cfb5192896509394509283926044019185019080838360005b83811015610e87578181015183820152602001610e6f565b50505050905090810190601f168015610eb45780820380516001836020036101000a031916815260200191505b509250505060206040518083038186803b158015610ed157600080fd5b505af4158015610ee5573d6000803e3d6000fd5b505050506040513d6020811015610efb57600080fd5b5051815182906006908110610f0c57fe5b6020908102919091010152604080516003808252608082019092526060918160200160208202803883390190505090508f8f6000818110610f4957fe5b905060200201356001600160a01b031681600081518110610f6657fe5b60200260200101906001600160a01b031690816001600160a01b0316815250508f8f6001818110610f9357fe5b905060200201356001600160a01b031681600181518110610fb057fe5b60200260200101906001600160a01b031690816001600160a01b0316815250508f8f6003818110610fdd57fe5b905060200201356001600160a01b031681600281518110610ffa57fe5b6001600160a01b03928316602091820292909201810191909152606a54604051600160e01b63df2fc187028152606060048201908152865160648301528651929094169363df2fc1879387938993889392839260248301926044810192608490910191898201910280838360005b83811015611080578181015183820152602001611068565b50505050905001848103835286818151815260200191508051906020019060200280838360005b838110156110bf5781810151838201526020016110a7565b50505050905001848103825285818151815260200191508051906020019060200280838360005b838110156110fe5781810151838201526020016110e6565b505050509050019650505050505050600060405180830381600087803b15801561112757600080fd5b505af115801561113b573d6000803e3d6000fd5b505050505050505050611540565b8888600281811061115657fe5b90506020020135600160ec1b62053545021415611540578a8a600281811061117a57fe5b905060200201356001600160a01b03166001600160a01b03166323b872dd8c8c60018181106111a557fe5b905060200201356001600160a01b03168d8d60008181106111c257fe5b905060200201356001600160a01b0316896111dc8c6124ea565b6040805163ffffffff871660e01b81526001600160a01b039586166004820152939094166024840152026044820152905160648083019260209291908290030181600087803b15801561122e57600080fd5b505af1158015611242573d6000803e3d6000fd5b505050506040513d602081101561125857600080fd5b505115611540576000816001600160a01b03166323b872dd8d8d600081811061127d57fe5b905060200201356001600160a01b03168e8e600181811061129a57fe5b905060200201356001600160a01b03168a6040518463ffffffff1660e01b815260040180846001600160a01b03166001600160a01b03168152602001836001600160a01b03166001600160a01b031681526020018281526020019350505050602060405180830381600087803b15801561131357600080fd5b505af1158015611327573d6000803e3d6000fd5b505050506040513d602081101561133d57600080fd5b505190508061153e5733631f0404808b8b60008161135757fe5b90506020020135896040518363ffffffff1660e01b81526004018083815260200182815260200180600160e21b631cd95b1b0281525060200192505050600060405180830381600087803b1580156113ae57600080fd5b505af11580156113c2573d6000803e3d6000fd5b50505050336001600160a01b0316631f0404808b8b60018181106113e257fe5b90506020020135896040518363ffffffff1660e01b81526004018083815260200182815260200180600160e81b626275790281525060200192505050600060405180830381600087803b15801561143857600080fd5b505af115801561144c573d6000803e3d6000fd5b505050508b8b600281811061145d57fe5b905060200201356001600160a01b03166001600160a01b03166323b872dd8d8d600081811061148857fe5b905060200201356001600160a01b03168e8e60018181106114a557fe5b905060200201356001600160a01b03168a6114bf8d6124ea565b6040805163ffffffff871660e01b81526001600160a01b039586166004820152939094166024840152026044820152905160648083019260209291908290030181600087803b15801561151157600080fd5b505af1158015611525573d6000803e3d6000fd5b505050506040513d602081101561153b57600080fd5b50505b505b5050505050505050505050565b600054610100900460ff1680611566575061156661258a565b80611574575060005460ff16155b6115b257604051600160e51b62461bcd02815260040180806020018281038252602e81526020018061265f602e913960400191505060405180910390fd5b600054610100900460ff161580156115dd576000805460ff1961ff0019909116610100171660011790555b6115e63361238e565b606a80546001600160a01b03199081166001600160a01b0388811691909117909255606b80548216878416179055606c80548216868416179055606d80548216858416179055606e8054909116918816919091179055801561164e576000805461ff00191690555b505050505050565b606d5460408051600160e01b63ab986ddf02815233600482015290516001600160a01b039092169163ab986ddf91602480820192602092909190829003018186803b1580156116a457600080fd5b505afa1580156116b8573d6000803e3d6000fd5b505050506040513d60208110156116ce57600080fd5b505115156001146116de57600080fd5b6000848460008181106116ed57fe5b6020908102929092013560008181526066909352604090922054919250506001600160a01b031615611b93578888600081811061172657fe5b6000848152606660209081526040822080546001600160a01b0319166001600160a01b03929094029590950135169190911790925550839083908161176757fe5b600084815260666020908152604090912060020180546001600160801b0319929093029490940135811660801c91161790915550828260018181106117a857fe5b600084815260666020908152604090912060020180546001600160801b03199290930294909401351660801c600160801b026001600160801b03919091161790915550868660018181106117f857fe5b9050602002013560666000838152602001908152602001600020600801819055508484600181811061182657fe5b9050602002013560666000838152602001908152602001600020600401819055508484600281811061185457fe5b9050602002013560666000838152602001908152602001600020600301819055508686600081811061188257fe5b905060200201356066600083815260200190815260200160002060090181905550848460038181106118b057fe5b60008481526066602090815260409091209102929092013560059092019190915550606e546001600160a01b0316635fd4b08a8a8a60018181106118f057fe5b905060200201356001600160a01b03166040518263ffffffff1660e01b815260040180826001600160a01b03166001600160a01b0316815260200191505060206040518083038186803b15801561194657600080fd5b505afa15801561195a573d6000803e3d6000fd5b505050506040513d602081101561197057600080fd5b50516000828152606660205260409020600601558888600281811061199157fe5b905060200201356001600160a01b03166001600160a01b03166306fdde036040518163ffffffff1660e01b815260040160006040518083038186803b1580156119d957600080fd5b505afa1580156119ed573d6000803e3d6000fd5b505050506040513d6000823e601f3d908101601f191682016040526020811015611a1657600080fd5b810190808051600160201b811115611a2d57600080fd5b82016020810184811115611a4057600080fd5b8151600160201b811182820187101715611a5957600080fd5b5050604051600160e31b6319f6a32502815260206004820181815283516024840152835173__stringutils___________________________975063cfb5192896509394509283926044019185019080838360005b83811015611ac6578181015183820152602001611aae565b50505050905090810190601f168015611af35780820380516001836020036101000a031916815260200191505b509250505060206040518083038186803b158015611b1057600080fd5b505af4158015611b24573d6000803e3d6000fd5b505050506040513d6020811015611b3a57600080fd5b505160008281526066602052604090206007015588886002818110611b5b57fe5b600084815260666020908152604090912060010180546001600160a01b0319166001600160a01b039290930294909401351617909155505b505050505050505050565b60408051600480825260a082019092526060918291829160208201608080388339505050600085815260666020526040902060020154909150611be39060801b6124ea565b81600081518110611bf057fe5b602090810291909101810191909152600085815260669091526040902060020154611c2490600160801b900460801b6124ea565b81600181518110611c3157fe5b602002602001018181525050606660008581526020019081526020016000206008015481600281518110611c6157fe5b602002602001018181525050606660008581526020019081526020016000206009015481600381518110611c9157fe5b602090810291909101015260408051600480825260a08201909252606091816020016020820280388339505050600086815260666020526040812060060154825192935091839190611cdf57fe5b602002602001018181525050606660008681526020019081526020016000206007015481600181518110611d0f57fe5b602002602001018181525050606660008681526020019081526020016000206004015481600281518110611d3f57fe5b602002602001018181525050606660008681526020019081526020016000206005015481600381518110611d6f57fe5b602090810291909101015292509050915091565b611d8b611e38565b611ddf5760408051600160e51b62461bcd02815260206004820181905260248201527f4f776e61626c653a2063616c6c6572206973206e6f7420746865206f776e6572604482015290519081900360640190fd5b6033546040516000916001600160a01b0316907f8be0079c531659141344cd1fd0a4f28419497f9722a3daafe3b4186f6b6457e0908390a3603380546001600160a01b0319169055565b6033546001600160a01b031690565b6033546000906001600160a01b0316611e4f612590565b6001600160a01b031614905090565b60008181526066602052604081205481906001600160a01b03163314611e8357600080fd5b600080805b60695483101561204c57600086815260666020526040812060010154606980546001600160a01b039092169260689290919087908110611ec457fe5b600091825260208083209091015483528201929092526040019020600201546001600160a01b0316148015611f2e57506068600060698581548110611f0557fe5b9060005260206000200154815260200190815260200160002060050154600160e81b6242757902145b15611f69576068600060698581548110611f4457fe5b6000918252602080832090910154835282019290925260400190206003015460801b91505b600086815260666020526040812060010154606980546001600160a01b039092169260689290919087908110611f9b57fe5b600091825260208083209091015483528201929092526040019020600201546001600160a01b031614801561200657506068600060698581548110611fdc57fe5b9060005260206000200154815260200190815260200160002060050154600160e21b6314d95b1b02145b1561204157606860006069858154811061201c57fe5b6000918252602080832090910154835282019290925260400190206003015460801b90505b600190920191611e88565b909350915050915091565b606d5460408051600160e01b63ab986ddf02815233600482015290516001600160a01b039092169163ab986ddf91602480820192602092909190829003018186803b1580156120a557600080fd5b505afa1580156120b9573d6000803e3d6000fd5b505050506040513d60208110156120cf57600080fd5b505115156001146120df57600080fd5b6000828152606660205260409020546001600160a01b0316156121115760008281526066602052604090206005018190555b5050565b606754604080518281526020808402820101909152606091908290828015612147578160200160208202803883390190505b50905060008085156121eb575060005b6067548110156121e657336001600160a01b0316606660006067848154811061217c57fe5b600091825260208083209091015483528201929092526040019020546001600160a01b031614156121de57606781815481106121b457fe5b90600052602060002001548383815181106121cb57fe5b6020026020010181815250508160010191505b600101612157565b61227d565b5060005b60675481101561227d57336001600160a01b0316606660006067848154811061221457fe5b600091825260208083209091015483528201929092526040019020546001600160a01b031614612275576067818154811061224b57fe5b906000526020600020015483838151811061226257fe5b6020026020010181815250508160010191505b6001016121ef565b5090925050505b919050565b606d5460408051600160e01b63ab986ddf02815233600482015290516001600160a01b039092169163ab986ddf91602480820192602092909190829003018186803b1580156122d757600080fd5b505afa1580156122eb573d6000803e3d6000fd5b505050506040513d602081101561230157600080fd5b5051151560011461231157600080fd5b60008484600081811061232057fe5b6020908102929092013560008181526066909352604090922054919250506001600160a01b031661238157606780546001810182556000919091527f9787eeb91fe3101235e4a76063c7023ecb40f923f97916639c598592fa30d6ae018190555b8888600081811061172657fe5b600054610100900460ff16806123a757506123a761258a565b806123b5575060005460ff16155b6123f357604051600160e51b62461bcd02815260040180806020018281038252602e81526020018061265f602e913960400191505060405180910390fd5b600054610100900460ff1615801561241e576000805460ff1961ff0019909116610100171660011790555b603380546001600160a01b0319166001600160a01b0384811691909117918290556040519116906000907f8be0079c531659141344cd1fd0a4f28419497f9722a3daafe3b4186f6b6457e0908290a38015612111576000805461ff00191690555050565b61248a611e38565b6124de5760408051600160e51b62461bcd02815260206004820181905260248201527f4f776e61626c653a2063616c6c6572206973206e6f7420746865206f776e6572604482015290519081900360640190fd5b6124e781612594565b50565b6000617fff6001600160801b03608084901c1660701c16613fff811015612515576000915050612284565b6001607f1b8360801c6001600160801b03161061253157600080fd5b6140fe81111561254057600080fd5b600160701b6dffffffffffffffffffffffffffff608085901c161761406f8210156125715761406f8290031c612583565b61406f8211156125835761406e1982011b5b9392505050565b303b1590565b3390565b6001600160a01b0381166125dc57604051600160e51b62461bcd0281526004018080602001828103825260268152602001806126396026913960400191505060405180910390fd5b6033546040516001600160a01b038084169216907f8be0079c531659141344cd1fd0a4f28419497f9722a3daafe3b4186f6b6457e090600090a3603380546001600160a01b0319166001600160a01b039290921691909117905556fe4f776e61626c653a206e6577206f776e657220697320746865207a65726f2061646472657373436f6e747261637420696e7374616e63652068617320616c7265616479206265656e20696e697469616c697a6564a165627a7a723058203f142cd783e9de7ec524ab3b910e6eb48ff34f5d223598f5c9638084e299d12b0029",
  "source": "// Routing new orders\r\n// (c) Kallol Borah, 2021\r\n\r\npragma solidity 0.5.7;\r\n \r\nimport \"./interfaces/ITrade.sol\";\r\nimport \"./interfaces/IPreTrade.sol\";\r\nimport \"./interfaces/IPostTrade.sol\";\r\nimport \"./registry/Security.sol\";\r\nimport \"./interfaces/IOrderPool.sol\";\r\nimport \"./interfaces/IPoolFactory.sol\";\r\nimport \"./interfaces/ViaCash.sol\";\r\nimport \"./interfaces/ViaFactory.sol\";\r\nimport \"./utilities/StringUtils.sol\";\r\nimport \"abdk-libraries-solidity/ABDKMathQuad.sol\";\r\nimport \"@openzeppelin/upgrades/contracts/Initializable.sol\";\r\nimport \"@openzeppelin/contracts-ethereum-package/contracts/ownership/Ownable.sol\";\r\n\r\ncontract Trade is ITrade, Initializable, Ownable{\r\n\r\n    using ABDKMathQuad for uint256;\r\n    using ABDKMathQuad for int256;\r\n    using ABDKMathQuad for bytes16;\r\n\r\n    using stringutils for *;\r\n\r\n    struct order{\r\n        address party;\r\n        address security;\r\n        bytes16 price;\r\n        bytes16 trigger; \r\n        bytes32 otype;\r\n        bytes32 order;\r\n        bytes32 status;\r\n        bytes32 currency;\r\n        bytes32 securityName;\r\n        uint256 qty;\r\n        uint dt;\r\n    }\r\n\r\n    mapping(bytes32 => order) private orders;\r\n\r\n    bytes32[] orderRefs;\r\n\r\n    struct trade{\r\n        address transferor;\r\n        address transferee;\r\n        address security;\r\n        bytes16 price;\r\n        bytes32 currency;\r\n        bytes32 order;\r\n        bytes32 stype;\r\n        uint256 qty;\r\n        uint dt;\r\n    }\r\n\r\n    mapping(bytes32 => trade) private trades;\r\n\r\n    bytes32[] tradeRefs;\r\n\r\n    address settlement;\r\n    address registration;\r\n    address orderpool;\r\n    address poolfactory;\r\n    ViaFactory private via;\r\n\r\n    function initialize(address _viaFactory, address _settlement, address _registration, address _orderpool, address _poolfactory) public initializer{\r\n        Ownable.initialize(msg.sender);\r\n        settlement = _settlement;\r\n        registration = _registration;\r\n        orderpool = _orderpool;\r\n        poolfactory = _poolfactory;\r\n        via = ViaFactory(_viaFactory);\r\n    }\r\n \r\n    function reportTrade(address[] calldata a, bytes32[] calldata by, bytes16 _price, uint256 _qty) external {\r\n        require(IPoolFactory(poolfactory).confirmPool(msg.sender)==true);\r\n        bytes32 _tradeRef = keccak256(abi.encodePacked(by[0], by[1]));\r\n        tradeRefs.push(_tradeRef);\r\n        bytes32 cashTokenName = via.getName(a[2]);\r\n        trades[_tradeRef]=trade(a[0], a[1], a[3], _price, cashTokenName, by[3], by[2], _qty, now);        \r\n        (bytes32 _isin, bytes32 _company, address _token) = IPreTrade(registration).getSecurity(a[3]);\r\n        if(by[2]==\"DP\"){\r\n            bytes32 _transfereeDPID = IPreTrade(registration).getDP(a[1]);\r\n            bytes32 _transferorDPID = IPreTrade(registration).getDP(a[0]);\r\n            uint[] memory u = new uint[](2);\r\n            u[0]=_qty;\r\n            u[1]=ABDKMathQuad.toUInt(_price);\r\n            bytes32[] memory b = new bytes32[](7);  \r\n            b[0]=_isin;\r\n            b[1]=_company;\r\n            b[2]=_transferorDPID;\r\n            b[3]=_transfereeDPID;\r\n            b[4]=_tradeRef;\r\n            b[5]=cashTokenName;\r\n            b[6]=Security(trades[_tradeRef].security).name().stringToBytes32();\r\n            address[] memory ad = new address[](3);\r\n            ad[0]=a[0];\r\n            ad[1]=a[1];\r\n            ad[2]=a[3];\r\n            IPostTrade(settlement).postSettlement(b, u, ad);\r\n        }\r\n        else if(by[2]==\"STP\"){\r\n            if(ViaCash(a[2]).transferFrom(a[1], a[0], ABDKMathQuad.toUInt(_price)*_qty)){\r\n                bool success = Security(_token).transferFrom(a[0], a[1], _qty);\r\n                if(!success){\r\n                    IOrderPool(msg.sender).revertTrade(by[0], _qty, \"sell\");\r\n                    IOrderPool(msg.sender).revertTrade(by[1], _qty, \"buy\");\r\n                    ViaCash(a[2]).transferFrom(a[0], a[1], ABDKMathQuad.toUInt(_price)*_qty);\r\n                }\r\n            }\r\n        }\r\n    }\r\n\r\n    function reportOrder(address[] calldata a, uint256[] calldata u, bytes32[] calldata b, bytes16[] calldata by) external {\r\n        require(IPoolFactory(poolfactory).confirmPool(msg.sender)==true);\r\n        bytes32 _ref = b[0];       \r\n        if(orders[_ref].party==address(0x0))\r\n            orderRefs.push(_ref);\r\n        orders[_ref].party = a[0];\r\n        orders[_ref].price = by[0];\r\n        orders[_ref].trigger = by[1];\r\n        orders[_ref].qty = u[1];\r\n        orders[_ref].order = b[1]; \r\n        orders[_ref].otype = b[2];\r\n        orders[_ref].dt = u[0];\r\n        orders[_ref].status = b[3];\r\n        orders[_ref].currency = via.getName(a[1]);\r\n        orders[_ref].securityName = Security(a[2]).name().stringToBytes32();\r\n        orders[_ref].security = a[2];\r\n    }\r\n\r\n    function getOrders(bool originator) external view returns(bytes32[] memory){\r\n        uint entries = orderRefs.length;\r\n        bytes32[] memory result = new bytes32[](entries);\r\n        uint entry=0;\r\n        uint i;\r\n        if(originator){\r\n            for(i=0; i<orderRefs.length; i++){\r\n                if(orders[orderRefs[i]].party==msg.sender){\r\n                    result[entry]=orderRefs[i];\r\n                    entry=entry+1;\r\n                }\r\n            }\r\n        }\r\n        else{\r\n            for(i=0; i<orderRefs.length; i++){\r\n                if(orders[orderRefs[i]].party!=msg.sender){\r\n                    result[entry]=orderRefs[i];\r\n                    entry=entry+1;\r\n                }\r\n            }\r\n        }\r\n        return result;\r\n    }\r\n\r\n    function getOrder(bytes32 ref) external view returns(bytes32[] memory, uint256[] memory){\r\n\r\n        uint256[] memory u = new uint256[](4);\r\n        u[0]= ABDKMathQuad.toUInt(orders[ref].price);\r\n        u[1]= ABDKMathQuad.toUInt(orders[ref].trigger);\r\n        u[2]= orders[ref].qty;\r\n        u[3]= orders[ref].dt;\r\n        bytes32[] memory b = new bytes32[](4);\r\n        b[0]= orders[ref].currency;\r\n        b[1]= orders[ref].securityName;\r\n        b[2]= orders[ref].order;\r\n        b[3]= orders[ref].status;\r\n        return(b, u);\r\n    }\r\n\r\n    //returns bid, ask, last change corresponding to passed order ref\r\n    function getTrade(bytes32 ref) external view returns(bytes16, bytes16){\r\n        require(orders[ref].party==msg.sender);\r\n        uint i;\r\n        bytes16 bid;\r\n        bytes16 ask;\r\n        for(i=0; i<tradeRefs.length; i++){\r\n            if(trades[tradeRefs[i]].security==orders[ref].security && trades[tradeRefs[i]].order==\"Buy\"){\r\n                bid = trades[tradeRefs[i]].price;\r\n            }\r\n            if(trades[tradeRefs[i]].security==orders[ref].security && trades[tradeRefs[i]].order==\"Sell\"){\r\n                ask = trades[tradeRefs[i]].price;\r\n            }\r\n        }\r\n        return (bid, ask);\r\n    }\r\n\r\n    function editOrder(address[] calldata a, uint[] calldata u, bytes32[] calldata b, bytes16[] calldata by) external{\r\n        require(IPoolFactory(poolfactory).confirmPool(msg.sender)==true);\r\n        bytes32 _ref = b[0];\r\n        if(orders[_ref].party!=address(0x0)){\r\n            orders[_ref].party = a[0];\r\n            orders[_ref].price = by[0];\r\n            orders[_ref].trigger = by[1];\r\n            orders[_ref].qty = u[1];\r\n            orders[_ref].order = b[1];\r\n            orders[_ref].otype = b[2];\r\n            orders[_ref].dt = u[0];\r\n            orders[_ref].status = b[3];\r\n            orders[_ref].currency = via.getName(a[1]);\r\n            orders[_ref].securityName = Security(a[2]).name().stringToBytes32();\r\n            orders[_ref].security = a[2];\r\n        }\r\n    }\r\n\r\n    function cancelOrder(bytes32 _ref, bytes32 _status) external{\r\n        require(IPoolFactory(poolfactory).confirmPool(msg.sender)==true);\r\n        if(orders[_ref].party!=address(0x0)){\r\n            orders[_ref].status = _status;\r\n        }\r\n    }\r\n    \r\n}",
  "sourcePath": "D:/Code/verified-trades/contracts/Trade.sol",
  "compiler": {
    "name": "solc",
    "version": "0.5.7+commit.6da8b019.Emscripten.clang"
  },
  "schemaVersion": "3.3.3",
  "updatedAt": "2021-07-02T11:28:00.444Z",
  "networkType": "ethereum",
  "devdoc": {
    "methods": {
      "initialize(address)": {
        "details": "Initializes the contract setting the deployer as the initial owner."
      },
      "isOwner()": {
        "details": "Returns true if the caller is the current owner."
      },
      "owner()": {
        "details": "Returns the address of the current owner."
      },
      "renounceOwnership()": {
        "details": "Leaves the contract without owner. It will not be possible to call `onlyOwner` functions anymore. Can only be called by the current owner.     * > Note: Renouncing ownership will leave the contract without an owner, thereby removing any functionality that is only available to the owner."
      },
      "transferOwnership(address)": {
        "details": "Transfers ownership of the contract to a new account (`newOwner`). Can only be called by the current owner."
      }
    }
  },
  "userdoc": {
    "methods": {}
  }
}