{
  "contractName": "Trade",
  "abi": [
    {
      "anonymous": false,
      "inputs": [
        {
          "indexed": false,
          "name": "orderReference",
          "type": "bytes32"
        },
        {
          "indexed": false,
          "name": "party",
          "type": "address"
        },
        {
          "indexed": false,
          "name": "price",
          "type": "uint256"
        },
        {
          "indexed": false,
          "name": "amount",
          "type": "uint256"
        },
        {
          "indexed": false,
          "name": "order",
          "type": "bytes32"
        },
        {
          "indexed": false,
          "name": "orderType",
          "type": "bytes32"
        },
        {
          "indexed": false,
          "name": "date",
          "type": "uint256"
        },
        {
          "indexed": false,
          "name": "status",
          "type": "bytes32"
        },
        {
          "indexed": false,
          "name": "currency",
          "type": "bytes32"
        },
        {
          "indexed": false,
          "name": "securityName",
          "type": "bytes32"
        },
        {
          "indexed": false,
          "name": "security",
          "type": "address"
        }
      ],
      "name": "orderNew",
      "type": "event"
    },
    {
      "anonymous": false,
      "inputs": [
        {
          "indexed": false,
          "name": "orderRef",
          "type": "bytes32"
        },
        {
          "indexed": false,
          "name": "party",
          "type": "address"
        },
        {
          "indexed": false,
          "name": "status",
          "type": "bytes32"
        }
      ],
      "name": "orderCancel",
      "type": "event"
    },
    {
      "anonymous": false,
      "inputs": [
        {
          "indexed": false,
          "name": "partyReference",
          "type": "bytes32"
        },
        {
          "indexed": false,
          "name": "counterpartyReference",
          "type": "bytes32"
        },
        {
          "indexed": false,
          "name": "isin",
          "type": "bytes32"
        },
        {
          "indexed": false,
          "name": "company",
          "type": "bytes32"
        },
        {
          "indexed": false,
          "name": "price",
          "type": "uint256"
        },
        {
          "indexed": false,
          "name": "askprice",
          "type": "uint256"
        },
        {
          "indexed": false,
          "name": "currency",
          "type": "bytes32"
        },
        {
          "indexed": false,
          "name": "amount",
          "type": "uint256"
        },
        {
          "indexed": false,
          "name": "status",
          "type": "bytes32"
        },
        {
          "indexed": false,
          "name": "executionDate",
          "type": "uint256"
        }
      ],
      "name": "tradeReport",
      "type": "event"
    },
    {
      "constant": false,
      "inputs": [
        {
          "name": "_viaFactory",
          "type": "address"
        },
        {
          "name": "_settlement",
          "type": "address"
        },
        {
          "name": "_registration",
          "type": "address"
        },
        {
          "name": "_orderpool",
          "type": "address"
        },
        {
          "name": "_poolfactory",
          "type": "address"
        },
        {
          "name": "_rates",
          "type": "address"
        }
      ],
      "name": "initialize",
      "outputs": [],
      "payable": false,
      "stateMutability": "nonpayable",
      "type": "function"
    },
    {
      "constant": false,
      "inputs": [
        {
          "components": [
            {
              "name": "transferor",
              "type": "address"
            },
            {
              "name": "transferee",
              "type": "address"
            },
            {
              "name": "security",
              "type": "address"
            },
            {
              "name": "price",
              "type": "uint256"
            },
            {
              "name": "askprice",
              "type": "uint256"
            },
            {
              "name": "currency",
              "type": "bytes32"
            },
            {
              "name": "order",
              "type": "bytes32"
            },
            {
              "name": "stype",
              "type": "bytes32"
            },
            {
              "name": "qty",
              "type": "uint256"
            },
            {
              "name": "dt",
              "type": "uint256"
            }
          ],
          "name": "newTrade",
          "type": "tuple"
        },
        {
          "name": "partyRef",
          "type": "bytes32"
        },
        {
          "name": "counterpartyRef",
          "type": "bytes32"
        }
      ],
      "name": "reportTrade",
      "outputs": [],
      "payable": false,
      "stateMutability": "nonpayable",
      "type": "function"
    },
    {
      "constant": true,
      "inputs": [
        {
          "name": "ref",
          "type": "bytes32"
        }
      ],
      "name": "getTrade",
      "outputs": [
        {
          "name": "b",
          "type": "uint256"
        },
        {
          "name": "a",
          "type": "uint256"
        }
      ],
      "payable": false,
      "stateMutability": "view",
      "type": "function"
    },
    {
      "constant": false,
      "inputs": [
        {
          "components": [
            {
              "name": "party",
              "type": "address"
            },
            {
              "name": "security",
              "type": "address"
            },
            {
              "name": "price",
              "type": "uint256"
            },
            {
              "name": "otype",
              "type": "bytes32"
            },
            {
              "name": "order",
              "type": "bytes32"
            },
            {
              "name": "status",
              "type": "bytes32"
            },
            {
              "name": "currency",
              "type": "bytes32"
            },
            {
              "name": "securityName",
              "type": "bytes32"
            },
            {
              "name": "qty",
              "type": "uint256"
            },
            {
              "name": "dt",
              "type": "uint256"
            }
          ],
          "name": "newOrder",
          "type": "tuple"
        },
        {
          "name": "ref",
          "type": "bytes32"
        }
      ],
      "name": "reportOrder",
      "outputs": [],
      "payable": false,
      "stateMutability": "nonpayable",
      "type": "function"
    },
    {
      "constant": true,
      "inputs": [
        {
          "name": "originator",
          "type": "bool"
        }
      ],
      "name": "getOrders",
      "outputs": [
        {
          "name": "",
          "type": "bytes32[]"
        }
      ],
      "payable": false,
      "stateMutability": "view",
      "type": "function"
    },
    {
      "constant": true,
      "inputs": [
        {
          "name": "ref",
          "type": "bytes32"
        }
      ],
      "name": "getOrder",
      "outputs": [
        {
          "components": [
            {
              "name": "party",
              "type": "address"
            },
            {
              "name": "security",
              "type": "address"
            },
            {
              "name": "price",
              "type": "uint256"
            },
            {
              "name": "otype",
              "type": "bytes32"
            },
            {
              "name": "order",
              "type": "bytes32"
            },
            {
              "name": "status",
              "type": "bytes32"
            },
            {
              "name": "currency",
              "type": "bytes32"
            },
            {
              "name": "securityName",
              "type": "bytes32"
            },
            {
              "name": "qty",
              "type": "uint256"
            },
            {
              "name": "dt",
              "type": "uint256"
            }
          ],
          "name": "",
          "type": "tuple"
        }
      ],
      "payable": false,
      "stateMutability": "view",
      "type": "function"
    },
    {
      "constant": false,
      "inputs": [
        {
          "components": [
            {
              "name": "party",
              "type": "address"
            },
            {
              "name": "security",
              "type": "address"
            },
            {
              "name": "price",
              "type": "uint256"
            },
            {
              "name": "otype",
              "type": "bytes32"
            },
            {
              "name": "order",
              "type": "bytes32"
            },
            {
              "name": "status",
              "type": "bytes32"
            },
            {
              "name": "currency",
              "type": "bytes32"
            },
            {
              "name": "securityName",
              "type": "bytes32"
            },
            {
              "name": "qty",
              "type": "uint256"
            },
            {
              "name": "dt",
              "type": "uint256"
            }
          ],
          "name": "currentOrder",
          "type": "tuple"
        },
        {
          "name": "ref",
          "type": "bytes32"
        }
      ],
      "name": "editOrder",
      "outputs": [],
      "payable": false,
      "stateMutability": "nonpayable",
      "type": "function"
    },
    {
      "constant": false,
      "inputs": [
        {
          "name": "_ref",
          "type": "bytes32"
        },
        {
          "name": "_status",
          "type": "bytes32"
        }
      ],
      "name": "cancelOrder",
      "outputs": [],
      "payable": false,
      "stateMutability": "nonpayable",
      "type": "function"
    },
    {
      "constant": false,
      "inputs": [
        {
          "name": "tradeRef",
          "type": "bytes32"
        }
      ],
      "name": "tradeSettled",
      "outputs": [],
      "payable": false,
      "stateMutability": "nonpayable",
      "type": "function"
    }
  ],
  "bytecode": "0x608060405234801561001057600080fd5b50612987806100206000396000f3fe608060405234801561001057600080fd5b50600436106100935760003560e01c8063a47d9d3311610066578063a47d9d331461010a578063b0aeacc61461011d578063ca385a931461013d578063cc2a9a5b14610150578063fcfd88e91461016357610093565b80634218354e146100985780635778472a146100ad57806365678bfd146100d6578063a3b13799146100e9575b600080fd5b6100ab6100a636600461209d565b610176565b005b6100c06100bb36600461209d565b6101f0565b6040516100cd919061284c565b60405180910390f35b6100ab6100e436600461218b565b610296565b6100fc6100f736600461209d565b6103dd565b6040516100cd929190612712565b6100ab6101183660046120d9565b610541565b61013061012b366004612043565b61070d565b6040516100cd9190612641565b6100ab61014b3660046121bd565b610846565b6100ab61015e366004611f82565b611681565b6100ab61017136600461218b565b611778565b603a546001600160a01b0316331461018d57600080fd5b600090815260386020526040812080546001600160a01b0319908116825560018201805482169055600282018054909116905560038101829055600481018290556005810182905560068101829055600781018290556008810182905560090155565b6101f8611d7c565b610200611d7c565b5050604080516101408101825260008381526033602081815284832080546001600160a01b039081168652600182015416828601526002810154958501959095526003850154606085015260048501546080850152600585015460a0850152600685015460c0850152600785015460e085015260088501546101008501529185905290526009909101546101208201525b919050565b603d54604051600160e01b63ab986ddf0281526001600160a01b039091169063ab986ddf906102c990339060040161260b565b60206040518083038186803b1580156102e157600080fd5b505afa1580156102f5573d6000803e3d6000fd5b505050506040513d601f19601f820116820180604052506103199190810190612061565b151560011461032757600080fd5b6000818152603360205260409020546001600160a01b0316156103d957600081815260336020908152604091829020805485356001600160a01b039081166001600160a01b031992831617835593860135600283015561010086013560088301556080860135600483015560608601356003830155610120860135600983015560a0860135600583015560c0860135600683015560e08601356007830155600190910180549286013590931691161790555b5050565b60008181526033602052604081205481906001600160a01b0316331461040257600080fd5b60008381526033602090815260408083206001015460398352818420548452603890925282206002015482916001600160a01b03918216911614801561046e575060008581526039602090815260408083205483526038909152902060060154600160e81b6242757902145b1561049c57505060008381526039602090815260408083205483526038909152902060038101546004909101545b600085815260336020908152604080832060010154603983528184205484526038909252909120600201546001600160a01b039081169116148015610508575060008581526039602090815260408083205483526038909152902060060154600160e21b6314d95b1b02145b156105375750506000838152603960209081526040808320548352603890915290206003810154600490910154905b9092509050915091565b603d54604051600160e01b63ab986ddf0281526001600160a01b039091169063ab986ddf9061057490339060040161260b565b60206040518083038186803b15801561058c57600080fd5b505afa1580156105a0573d6000803e3d6000fd5b505050506040513d601f19601f820116820180604052506105c49190810190612061565b15156001146105d257600080fd5b6000828152603360205260409020546001600160a01b0316156103d957600082815260336020908152604080832060058101859055546001600160a01b031683526036909152812061062391611dd0565b600082815260336020908152604080832080546001600160a01b03199081168255600182018054909116905560028101849055600381018490556004810184905560058101849055600681018490556007810184905560088101849055600901839055603590915290205460348054909190811061069d57fe5b600091825260208083209091018290558382526035815260408083208390556033909152908190205490517f07590eb3865798c48e7cb896d58a590640f2438221362eeca15da9a147490bb5916107019185916001600160a01b0316908590612660565b60405180910390a15050565b6060811561077657336000908152603660209081526040918290208054835181840281018401909452808452909183018282801561076a57602002820191906000526020600020905b815481526020019060010190808311610756575b50505050509050610291565b6034546040805182815260208084028201019091526060908280156107a5578160200160208202803883390190505b5090506000805b60345481101561083a57336001600160a01b031660336000603484815481106107d157fe5b600091825260208083209091015483528201929092526040019020546001600160a01b031614610832576034818154811061080857fe5b906000526020600020015483838151811061081f57fe5b6020026020010181815250508160010191505b6001016107ac565b82945050505050610291565b603d54604051600160e01b63ab986ddf0281526001600160a01b039091169063ab986ddf9061087990339060040161260b565b60206040518083038186803b15801561089157600080fd5b505afa1580156108a5573d6000803e3d6000fd5b505050506040513d601f19601f820116820180604052506108c99190810190612061565b15156001146108d757600080fd5b600082826040516020016108ec9291906125d7565b60405160208183030381529060405280519060200120905080603960008581526020019081526020016000208190555080603960008481526020019081526020016000208190555060405180610140016040528085600001356001600160a01b03166001600160a01b0316815260200185602001356001600160a01b03166001600160a01b0316815260200185604001356001600160a01b03166001600160a01b0316815260200185606001358152602001856080013581526020018560a0013581526020018560c0013581526020018560e00135815260200185610100013581526020018561012001358152506038600083815260200190815260200160002060008201518160000160006101000a8154816001600160a01b0302191690836001600160a01b0316021790555060208201518160010160006101000a8154816001600160a01b0302191690836001600160a01b0316021790555060408201518160020160006101000a8154816001600160a01b0302191690836001600160a01b03160217905550606082015181600301556080820151816004015560a0820151816005015560c0820151816006015560e08201518160070155610100820151816008015561012082015181600901559050506000806000603b60009054906101000a90046001600160a01b03166001600160a01b0316634a161b2788604001356001600160a01b03166040518263ffffffff1660e01b8152600401610b1291906125fd565b60606040518083038186803b158015610b2a57600080fd5b505afa158015610b3e573d6000803e3d6000fd5b505050506040513d601f19601f82011682018060405250610b629190810190612109565b92509250925060004290507fcec40b23a345717720ee8c6dc5820401ed93dcdd02c8599c4e407f40b2f449ae878786868c606001358d608001358e60a001358f610100013589604051610bbd9998979695949392919061272d565b60405180910390a18760e00135600160f41b610445021415610f2f57603b54604051600160e01b63e0a87de10281526000916001600160a01b039081169163e0a87de191610c169160208e0135909116906004016125fd565b60206040518083038186803b158015610c2e57600080fd5b505afa158015610c42573d6000803e3d6000fd5b505050506040513d601f19601f82011682018060405250610c6691908101906120bb565b603b54604051600160e01b63e0a87de10281529192506000916001600160a01b039182169163e0a87de191610ca1918e3516906004016125fd565b60206040518083038186803b158015610cb957600080fd5b505afa158015610ccd573d6000803e3d6000fd5b505050506040513d601f19601f82011682018060405250610cf191908101906120bb565b9050610cfb611df1565b60408051610220810182526001600160a01b038d35811682526020808f01358216818401528e84013582168385015260008c81526038909152838120600201548451600160e01b6306fdde0302815294519394606086019491909316926306fdde03926004808301939192829003018186803b158015610d7a57600080fd5b505afa158015610d8e573d6000803e3d6000fd5b505050506040513d6000823e601f3d908101601f19168201604052610db69190810190612156565b604051600160e31b6319f6a32502815273__stringutils___________________________9163cfb5192891610def919060040161280e565b60206040518083038186803b158015610e0757600080fd5b505af4158015610e1b573d6000803e3d6000fd5b505050506040513d601f19601f82011682018060405250610e3f91908101906120bb565b8152602001600160c81b6650656e64696e670281526020018381526020018481526020018881526020018781526020018c60a0013581526020018c606001358152602001610e968d606001358e6101000135611c1e565b81526101008d013560208201526040808201879052336060830152608082018d905260a09091018b9052603a549051600160e21b6302a616a90281529192506001600160a01b031690630a985aa490610ef59084908c9060040161285b565b600060405180830381600087803b158015610f0f57600080fd5b505af1158015610f23573d6000803e3d6000fd5b50505050505050611677565b8760e00135600160ec1b6205354502141561167757603e54604051600160e21b632e5ac8010281526000916001600160a01b03169063b96b200490610f7c9060a08d013590600401612652565b604080518083038186803b158015610f9357600080fd5b505afa158015610fa7573d6000803e3d6000fd5b505050506040513d601f19601f82011682018060405250610fcb9190810190612009565b5090506000611073610fe68b606001358c6101000135611c1e565b603f54604051600160e01b63e5f3d3a502815261106e916001600160a01b03169063e5f3d3a5906110199060040161281f565b60206040518083038186803b15801561103157600080fd5b505afa158015611045573d6000803e3d6000fd5b505050506040513d601f19601f82011682018060405250611069919081019061207f565b611c64565b611c1e565b9050600061109361108d8c606001358d6101000135611c1e565b83611d04565b9050826001600160a01b03166323b872dd8c602001356001600160a01b03168d600001356001600160a01b0316846040518463ffffffff1660e01b81526004016110df93929190612619565b602060405180830381600087803b1580156110f957600080fd5b505af115801561110d573d6000803e3d6000fd5b505050506040513d601f19601f820116820180604052506111319190810190612061565b15611673576000856001600160a01b03166323b872dd8d600001356001600160a01b03168e602001356001600160a01b03168f61010001356040518463ffffffff1660e01b815260040161118793929190612619565b602060405180830381600087803b1580156111a157600080fd5b505af11580156111b5573d6000803e3d6000fd5b505050506040513d601f19601f820116820180604052506111d99190810190612061565b905060006001600160a01b0316603f60009054906101000a90046001600160a01b03166001600160a01b031663f4aa13026040518163ffffffff1660e01b815260040160206040518083038186803b15801561123457600080fd5b505afa158015611248573d6000803e3d6000fd5b505050506040513d601f19601f8201168201806040525061126c9190810190611f5c565b6001600160a01b03161461139157836001600160a01b03166323b872dd8d602001356001600160a01b0316603f60009054906101000a90046001600160a01b03166001600160a01b031663f4aa13026040518163ffffffff1660e01b815260040160206040518083038186803b1580156112e557600080fd5b505afa1580156112f9573d6000803e3d6000fd5b505050506040513d601f19601f8201168201806040525061131d9190810190611f5c565b866040518463ffffffff1660e01b815260040161133c93929190612619565b602060405180830381600087803b15801561135657600080fd5b505af115801561136a573d6000803e3d6000fd5b505050506040513d601f19601f8201168201806040525061138e9190810190612061565b90505b8061150257336001600160a01b0316631f0404808c8e61010001356040518363ffffffff1660e01b81526004016113c99291906127e7565b600060405180830381600087803b1580156113e357600080fd5b505af11580156113f7573d6000803e3d6000fd5b50505050336001600160a01b0316631f0404808b8e61010001356040518363ffffffff1660e01b815260040161142e9291906127c0565b600060405180830381600087803b15801561144857600080fd5b505af115801561145c573d6000803e3d6000fd5b50505050836001600160a01b03166323b872dd8d600001356001600160a01b03168e602001356001600160a01b0316856040518463ffffffff1660e01b81526004016114aa93929190612619565b602060405180830381600087803b1580156114c457600080fd5b505af11580156114d8573d6000803e3d6000fd5b505050506040513d601f19601f820116820180604052506114fc9190810190612061565b50611671565b604051600160e11b6309e722a302815233906313ce45469061152a908e908e90600401612712565b600060405180830381600087803b15801561154457600080fd5b505af1158015611558573d6000803e3d6000fd5b50505050603360008c8152602001908152602001600020600080820160006101000a8154906001600160a01b0302191690556001820160006101000a8154906001600160a01b030219169055600282016000905560038201600090556004820160009055600582016000905560068201600090556007820160009055600882016000905560098201600090555050603360008b8152602001908152602001600020600080820160006101000a8154906001600160a01b0302191690556001820160006101000a8154906001600160a01b0302191690556002820160009055600382016000905560048201600090556005820160009055600682016000905560078201600090556008820160009055600982016000905550505b505b5050505b5050505050505050565b600054610100900460ff168061169a575061169a611d46565b806116a8575060005460ff16155b6116d057604051600160e51b62461bcd0281526004016116c79061283c565b60405180910390fd5b600054610100900460ff161580156116fb576000805460ff1961ff0019909116610100171660011790555b603a80546001600160a01b03199081166001600160a01b0389811691909117909255603b80548216888416179055603c80548216878416179055603d80548216868416179055603e805482168a8416179055603f8054909116918416919091179055801561176f576000805461ff00191690555b50505050505050565b603d54604051600160e01b63ab986ddf0281526001600160a01b039091169063ab986ddf906117ab90339060040161260b565b60206040518083038186803b1580156117c357600080fd5b505afa1580156117d7573d6000803e3d6000fd5b505050506040513d601f19601f820116820180604052506117fb9190810190612061565b151560011461180957600080fd5b6000818152603360205260409020546001600160a01b03166103d95781600001356001600160a01b03166033600083815260200190815260200160002060000160006101000a8154816001600160a01b0302191690836001600160a01b03160217905550816040013560336000838152602001908152602001600020600201819055508161010001356033600083815260200190815260200160002060080181905550816080013560336000838152602001908152602001600020600401819055508160600135603360008381526020019081526020016000206003018190555081610120013560336000838152602001908152602001600020600901819055508160a0013560336000838152602001908152602001600020600501819055508160c0013560336000838152602001908152602001600020600601819055508160e00135603360008381526020019081526020016000206007018190555081602001356001600160a01b03166033600083815260200190815260200160002060010160006101000a8154816001600160a01b0302191690836001600160a01b0316021790555060348054905060356000838152602001908152602001600020819055506034819080600181540180825580915050906001820390600052602060002001600090919290919091505550603660006033600084815260200190815260200160002060000160009054906101000a90046001600160a01b03166001600160a01b03166001600160a01b03168152602001908152602001600020805490506037600083815260200190815260200160002081905550603660006033600084815260200190815260200160002060000160009054906101000a90046001600160a01b03166001600160a01b03166001600160a01b031681526020019081526020016000208190806001815401808255809150509060018203906000526020600020016000909192909190915055507ff9ceedb302ac77dd81be3ae406e07b83141f282bb79a6316159e4a9cb6fa407e816033600084815260200190815260200160002060000160009054906101000a90046001600160a01b031660336000858152602001908152602001600020600201546033600086815260200190815260200160002060080154603360008781526020019081526020016000206004015460336000888152602001908152602001600020600301546033600089815260200190815260200160002060090154603360008a815260200190815260200160002060050154603360008b815260200190815260200160002060060154603360008c815260200190815260200160002060070154603360008d815260200190815260200160002060010160009054906101000a90046001600160a01b03166040516107019b9a9998979695949392919061266e565b600082611c2d57506000611c5e565b82820282848281611c3a57fe5b0414611c5b57604051600160e51b62461bcd0281526004016116c79061282c565b90505b92915050565b6000617fff6001600160801b03608084901c1660701c16613fff811015611c8f576000915050610291565b6001607f1b8360801c6001600160801b031610611cab57600080fd5b6140fe811115611cba57600080fd5b600160701b6dffffffffffffffffffffffffffff608085901c161761406f821015611ceb5761406f8290031c611cfd565b61406f821115611cfd5761406e1982011b5b9392505050565b6000611c5b83836040518060400160405280601e81526020017f536166654d6174683a207375627472616374696f6e206f766572666c6f770000815250611d4d565b303b155b90565b60008184841115611d7457604051600160e51b62461bcd0281526004016116c7919061280e565b505050900390565b6040805161014081018252600080825260208201819052918101829052606081018290526080810182905260a0810182905260c0810182905260e08101829052610100810182905261012081019190915290565b5080546000825590600052602060002090810190611dee9190611e7d565b50565b6040805161022081018252600080825260208201819052918101829052606081018290526080810182905260a0810182905260c0810182905260e08101829052610100810182905261012081018290526101408101829052610160810182905261018081018290526101a081018290526101c081018290526101e0810182905261020081019190915290565b611d4a91905b80821115611e975760008155600101611e83565b5090565b6000611c5b82356128da565b6000611c5b82516128da565b6000611c5b82356128eb565b6000611c5b82516128eb565b6000611c5b82516128f0565b6000611c5b8235611d4a565b6000611c5b8251611d4a565b600082601f830112611f0057600080fd5b8151611f13611f0e8261289f565b612878565b91508082526020830160208301858383011115611f2f57600080fd5b611f3a838284612917565b50505092915050565b60006101408284031215611f5657600080fd5b50919050565b600060208284031215611f6e57600080fd5b6000611f7a8484611ea7565b949350505050565b60008060008060008060c08789031215611f9b57600080fd5b6000611fa78989611e9b565b9650506020611fb889828a01611e9b565b9550506040611fc989828a01611e9b565b9450506060611fda89828a01611e9b565b9350506080611feb89828a01611e9b565b92505060a0611ffc89828a01611e9b565b9150509295509295509295565b6000806040838503121561201c57600080fd5b60006120288585611ea7565b925050602061203985828601611ee3565b9150509250929050565b60006020828403121561205557600080fd5b6000611f7a8484611eb3565b60006020828403121561207357600080fd5b6000611f7a8484611ebf565b60006020828403121561209157600080fd5b6000611f7a8484611ecb565b6000602082840312156120af57600080fd5b6000611f7a8484611ed7565b6000602082840312156120cd57600080fd5b6000611f7a8484611ee3565b600080604083850312156120ec57600080fd5b60006120f88585611ed7565b925050602061203985828601611ed7565b60008060006060848603121561211e57600080fd5b600061212a8686611ee3565b935050602061213b86828701611ee3565b925050604061214c86828701611ea7565b9150509250925092565b60006020828403121561216857600080fd5b815167ffffffffffffffff81111561217f57600080fd5b611f7a84828501611eef565b600080610160838503121561219f57600080fd5b60006121ab8585611f43565b92505061014061203985828601611ed7565b600080600061018084860312156121d357600080fd5b60006121df8686611f43565b9350506101406121f186828701611ed7565b92505061016061214c86828701611ed7565b600061220f8383612284565b505060200190565b61222081612906565b82525050565b612220816128da565b600061223a826128cd565b61224481856128d1565b935061224f836128c7565b60005b8281101561227a57612265868351612203565b9550612270826128c7565b9150600101612252565b5093949350505050565b61222081611d4a565b61222061229982611d4a565b611d4a565b60006122a9826128cd565b6122b381856128d1565b93506122c3818560208601612917565b6122cc81612943565b9093019392505050565b600160c81b6650656e64696e67029052565b600160e81b62627579029052565b600160c81b6674726164696e67029052565b60006123156021836128d1565b7f536166654d6174683a206d756c7469706c69636174696f6e206f766572666c6f8152600160f81b607702602082015260400192915050565b600061235b602e836128d1565b7f436f6e747261637420696e7374616e63652068617320616c726561647920626581527f656e20696e697469616c697a6564000000000000000000000000000000000000602082015260400192915050565b600160e21b631cd95b1b029052565b80516101408301906123ce8482612226565b5060208201516123e16020850182612226565b5060408201516123f46040850182612284565b5060608201516124076060850182612284565b50608082015161241a6080850182612284565b5060a082015161242d60a0850182612284565b5060c082015161244060c0850182612284565b5060e082015161245360e0850182612284565b50610100820151612468610100850182612284565b5061012082015161247d610120850182612284565b50505050565b80516102208301906124958482612226565b5060208201516124a86020850182612226565b5060408201516124bb6040850182612226565b5060608201516124ce6060850182612284565b5060808201516124e16080850182612284565b5060a08201516124f460a0850182612284565b5060c082015161250760c0850182612284565b5060e082015161251a60e0850182612284565b5061010082015161252f610100850182612284565b50610120820151612544610120850182612284565b50610140820151612559610140850182612284565b5061016082015161256e610160850182612284565b50610180820151612583610180850182612284565b506101a08201516125986101a0850182612284565b506101c08201516125ad6101c0850182612226565b506101e08201516125c26101e0850182612284565b5061020082015161247d610200850182612284565b60006125e3828561228d565b6020820191506125f3828461228d565b5060200192915050565b60208101611c5e8284612226565b60208101611c5e8284612217565b606081016126278286612226565b6126346020830185612226565b611f7a6040830184612284565b60208082528101611c5b818461222f565b60208101611c5e8284612284565b606081016126278286612284565b610160810161267d828e612284565b61268a602083018d612226565b612697604083018c612284565b6126a4606083018b612284565b6126b1608083018a612284565b6126be60a0830189612284565b6126cb60c0830188612284565b6126d860e0830187612284565b6126e6610100830186612284565b6126f4610120830185612284565b612702610140830184612226565b9c9b505050505050505050505050565b604081016127208285612284565b611cfd6020830184612284565b610140810161273c828c612284565b612749602083018b612284565b612756604083018a612284565b6127636060830189612284565b6127706080830188612284565b61277d60a0830187612284565b61278a60c0830186612284565b61279760e0830185612284565b6127a461010083016122d6565b6127b2610120830184612284565b9a9950505050505050505050565b606081016127ce8285612284565b6127db6020830184612284565b611cfd604083016122e8565b606081016127f58285612284565b6128026020830184612284565b611cfd604083016123ad565b60208082528101611c5b818461229e565b60208101610291826122f6565b60208082528101611c5e81612308565b60208082528101611c5e8161234e565b6101408101611c5e82846123bc565b610240810161286a8285612483565b611cfd610220830184612284565b60405181810167ffffffffffffffff8111828210171561289757600080fd5b604052919050565b600067ffffffffffffffff8211156128b657600080fd5b506020601f91909101601f19160190565b60200190565b5190565b90815260200190565b60006001600160a01b038216611c5e565b151590565b6fffffffffffffffffffffffffffffffff191690565b6000611c5e826000611c5e826128da565b60005b8381101561293257818101518382015260200161291a565b8381111561247d5750506000910152565b601f01601f19169056fea265627a7a723058203056f00b57daf320a7c8147df4d0720f6b00f91b10f2c261903b2e327a635ad76c6578706572696d656e74616cf50037",
  "source": "// Routing new orders\r\n// (c) Kallol Borah, 2021\r\n\r\npragma solidity 0.5.7;\r\npragma experimental ABIEncoderV2;\r\n \r\nimport \"./registry/Security.sol\";\r\nimport \"./interfaces/ITrade.sol\";\r\nimport \"./interfaces/IPreTrade.sol\";\r\nimport \"./interfaces/IPostTrade.sol\";\r\nimport \"./interfaces/IOrderPool.sol\";\r\nimport \"./interfaces/IPoolFactory.sol\";\r\nimport \"./interfaces/ViaCash.sol\";\r\nimport \"./interfaces/ViaFactory.sol\";\r\nimport \"./interfaces/VerifiedRates.sol\";\r\nimport \"./utilities/StringUtils.sol\";\r\nimport \"abdk-libraries-solidity/ABDKMathQuad.sol\";\r\nimport \"@openzeppelin/upgrades/contracts/Initializable.sol\";\r\nimport \"@openzeppelin/contracts-ethereum-package/contracts/math/SafeMath.sol\";\r\n\r\ncontract Trade is ITrade, Initializable {\r\n\r\n    using ABDKMathQuad for uint256;\r\n    using ABDKMathQuad for int256;\r\n    using ABDKMathQuad for bytes16;\r\n\r\n    using stringutils for *;\r\n\r\n    using SafeMath for uint256;\r\n\r\n    //mapping an order reference to order details\r\n    mapping(bytes32 => ITrade.order) private orders;\r\n\r\n    //order references\r\n    bytes32[] private orderRefs;\r\n\r\n    //mapping order reference to position in index\r\n    mapping(bytes32 => uint256) private orderIndex;\r\n\r\n    //mapping users to order references\r\n    mapping(address => bytes32[]) private userOrderRefs;\r\n\r\n    //mapping user's order reference to positions\r\n    mapping(bytes32 => uint256) private userOrderIndex;\r\n\r\n    //mapping a trade reference to trade details\r\n    mapping(bytes32 => ITrade.trade) private trades;\r\n\r\n    //mapping order ref to trade reference\r\n    mapping(bytes32 => bytes32) private tradeRefs;\r\n\r\n    address settlement;\r\n    address registration;\r\n    address orderpool;\r\n    address poolfactory;\r\n    ViaFactory private via;\r\n    VerifiedRates private rates;\r\n\r\n    event orderNew(\r\n                bytes32 orderReference,\r\n                address party,\r\n                uint256 price,\r\n                uint256 amount,\r\n                bytes32 order, \r\n                bytes32 orderType,\r\n                uint256 date,\r\n                bytes32 status,\r\n                bytes32 currency,\r\n                bytes32 securityName,\r\n                address security\r\n            );\r\n\r\n    event orderCancel(bytes32 orderRef, address party, bytes32 status);\r\n\r\n    event tradeReport(\r\n                    bytes32 partyReference, \r\n                    bytes32 counterpartyReference, \r\n                    bytes32 isin,\r\n                    bytes32 company,\r\n                    uint256 price,\r\n                    uint256 askprice, \r\n                    bytes32 currency, \r\n                    uint256 amount, \r\n                    bytes32 status,\r\n                    uint256 executionDate\r\n                );\r\n\r\n    function initialize(address _viaFactory, address _settlement, address _registration, address _orderpool, address _poolfactory, address _rates) public initializer{\r\n        settlement = _settlement;\r\n        registration = _registration;\r\n        orderpool = _orderpool;\r\n        poolfactory = _poolfactory;\r\n        via = ViaFactory(_viaFactory);\r\n        rates = VerifiedRates(_rates);\r\n    }\r\n\r\n    function reportTrade(ITrade.trade calldata newTrade, bytes32 partyRef, bytes32 counterpartyRef) external {\r\n        require(IPoolFactory(poolfactory).confirmPool(msg.sender)==true);\r\n        bytes32 _tradeRef = keccak256(abi.encodePacked(partyRef, counterpartyRef));\r\n        tradeRefs[partyRef] = _tradeRef;\r\n        tradeRefs[counterpartyRef] = _tradeRef;\r\n        trades[_tradeRef]=trade(newTrade.transferor, \r\n                                newTrade.transferee, \r\n                                newTrade.security,\r\n                                newTrade.price,\r\n                                newTrade.askprice, \r\n                                newTrade.currency, \r\n                                newTrade.order,\r\n                                newTrade.stype,\r\n                                newTrade.qty, \r\n                                newTrade.dt);   \r\n        (bytes32 _isin, bytes32 _company, address _token) = IPreTrade(registration).getSecurity(newTrade.security);\r\n        uint256 _executionDt = now;\r\n        emit tradeReport(partyRef, \r\n                        counterpartyRef, \r\n                        _isin,\r\n                        _company,\r\n                        newTrade.price,\r\n                        newTrade.askprice, \r\n                        newTrade.currency, \r\n                        newTrade.qty, \r\n                        \"Pending\",\r\n                        _executionDt);   \r\n        if(newTrade.stype==\"DP\"){\r\n            bytes32 _transfereeDPID = IPreTrade(registration).getDP(newTrade.transferee);\r\n            bytes32 _transferorDPID = IPreTrade(registration).getDP(newTrade.transferor);\r\n            IPostTrade.settlement memory tradeToSettle = IPostTrade.settlement({\r\n                transferor : newTrade.transferor,\r\n                transferee : newTrade.transferee,\r\n                security : newTrade.security,\r\n                securityName : Security(trades[_tradeRef].security).name().stringToBytes32(),\r\n                status : \"Pending\",\r\n                transferorDPID : _transferorDPID,\r\n                transfereeDPID : _transfereeDPID,\r\n                isin : _isin,\r\n                company : _company,\r\n                currency : newTrade.currency,\r\n                price : newTrade.price,\r\n                consideration : SafeMath.mul(newTrade.price, newTrade.qty),\r\n                unitsToTransfer : newTrade.qty,\r\n                executionDate : _executionDt,\r\n                orderPool : msg.sender,\r\n                partyRef : partyRef,\r\n                counterpartyRef : counterpartyRef\r\n            });            \r\n            IPostTrade(settlement).postSettlement(tradeToSettle, _tradeRef);\r\n        }\r\n        else if(newTrade.stype==\"STP\"){\r\n            (address cashToken, ) = via.getAddressAndType(newTrade.currency);\r\n            uint256 fee = SafeMath.mul(SafeMath.mul(newTrade.price, newTrade.qty), ABDKMathQuad.toUInt(rates.getFee(\"trading\")));\r\n            uint256 pay = SafeMath.sub(SafeMath.mul(newTrade.price, newTrade.qty), fee);\r\n            //address feeTo = rates.getFeeToSetter();\r\n            if(ViaCash(cashToken).transferFrom(newTrade.transferee, newTrade.transferor, pay)){\r\n                bool success = Security(_token).transferFrom(newTrade.transferor, newTrade.transferee, newTrade.qty);\r\n                if(rates.getFeeToSetter()!=address(0x0)){\r\n                    success = ViaCash(cashToken).transferFrom(newTrade.transferee, rates.getFeeToSetter(), fee);\r\n                }\r\n                if(!success){\r\n                    IOrderPool(msg.sender).revertTrade(partyRef, newTrade.qty, \"sell\");\r\n                    IOrderPool(msg.sender).revertTrade(counterpartyRef, newTrade.qty, \"buy\");\r\n                    ViaCash(cashToken).transferFrom(newTrade.transferor, newTrade.transferee, pay);\r\n                }\r\n                else{\r\n                    IOrderPool(msg.sender).orderFilled(partyRef, counterpartyRef);\r\n                    delete orders[partyRef];\r\n                    delete orders[counterpartyRef];\r\n                }\r\n            }\r\n        }\r\n    }\r\n\r\n\r\n    //returns bid, ask, last change corresponding to passed order ref\r\n    function getTrade(bytes32 ref) external view returns(uint256 b, uint256 a){\r\n        require(orders[ref].party==msg.sender);\r\n        uint256 bid=0;\r\n        uint256 ask=0;\r\n        if(trades[tradeRefs[ref]].security==orders[ref].security && trades[tradeRefs[ref]].order==\"Buy\"){\r\n            bid = trades[tradeRefs[ref]].price;\r\n            ask = trades[tradeRefs[ref]].askprice;\r\n        }\r\n        if(trades[tradeRefs[ref]].security==orders[ref].security && trades[tradeRefs[ref]].order==\"Sell\"){\r\n            ask = trades[tradeRefs[ref]].price;\r\n            bid = trades[tradeRefs[ref]].askprice;\r\n        }\r\n        return (bid, ask);\r\n    }\r\n\r\n    function reportOrder(ITrade.order calldata newOrder, bytes32 ref) external {\r\n        require(IPoolFactory(poolfactory).confirmPool(msg.sender)==true);\r\n        if(orders[ref].party==address(0x0)){\r\n            orders[ref].party = newOrder.party;\r\n            orders[ref].price = newOrder.price;\r\n            orders[ref].qty = newOrder.qty;\r\n            orders[ref].order = newOrder.order; \r\n            orders[ref].otype = newOrder.otype;\r\n            orders[ref].dt = newOrder.dt;\r\n            orders[ref].status = newOrder.status;\r\n            orders[ref].currency = newOrder.currency;\r\n            orders[ref].securityName = newOrder.securityName;\r\n            orders[ref].security = newOrder.security;\r\n            orderIndex[ref] = orderRefs.length;\r\n            orderRefs.push(ref);\r\n            userOrderIndex[ref] = userOrderRefs[orders[ref].party].length;\r\n            userOrderRefs[orders[ref].party].push(ref);\r\n            emit orderNew(\r\n                ref,\r\n                orders[ref].party,\r\n                orders[ref].price,\r\n                orders[ref].qty,\r\n                orders[ref].order, \r\n                orders[ref].otype,\r\n                orders[ref].dt,\r\n                orders[ref].status,\r\n                orders[ref].currency,\r\n                orders[ref].securityName,\r\n                orders[ref].security\r\n            );\r\n        }\r\n    }\r\n\r\n    function getOrders(bool originator) external view returns(bytes32[] memory){\r\n        if(originator){\r\n            return userOrderRefs[msg.sender];\r\n        }\r\n        else{\r\n            uint entries = orderRefs.length;\r\n            bytes32[] memory result = new bytes32[](entries);\r\n            uint entry=0;\r\n            uint i;\r\n            for(i=0; i<orderRefs.length; i++){\r\n                if(orders[orderRefs[i]].party!=msg.sender){\r\n                    result[entry]=orderRefs[i];\r\n                    entry=entry+1;\r\n                }\r\n            }\r\n            return result;\r\n        }\r\n    }\r\n\r\n    function getOrder(bytes32 ref) external view returns(ITrade.order memory){\r\n        ITrade.order memory response = ITrade.order({\r\n            party : orders[ref].party,\r\n            security : orders[ref].security,\r\n            price : orders[ref].price,\r\n            otype : orders[ref].otype,\r\n            order : orders[ref].order,\r\n            status : orders[ref].status,\r\n            currency : orders[ref].currency,\r\n            securityName : orders[ref].securityName,\r\n            qty : orders[ref].qty,\r\n            dt : orders[ref].dt\r\n        });\r\n        return(response);\r\n    }   \r\n\r\n    function editOrder(ITrade.order calldata currentOrder, bytes32 ref) external{\r\n        require(IPoolFactory(poolfactory).confirmPool(msg.sender)==true);\r\n        if(orders[ref].party!=address(0x0)){\r\n            orders[ref].party = currentOrder.party;\r\n            orders[ref].price = currentOrder.price;\r\n            orders[ref].qty = currentOrder.qty;\r\n            orders[ref].order = currentOrder.order; \r\n            orders[ref].otype = currentOrder.otype;\r\n            orders[ref].dt = currentOrder.dt;\r\n            orders[ref].status = currentOrder.status;\r\n            orders[ref].currency = currentOrder.currency;\r\n            orders[ref].securityName = currentOrder.securityName;\r\n            orders[ref].security = currentOrder.security;\r\n        }\r\n    }\r\n\r\n    function cancelOrder(bytes32 _ref, bytes32 _status) external{\r\n        require(IPoolFactory(poolfactory).confirmPool(msg.sender)==true);\r\n        if(orders[_ref].party!=address(0x0)){\r\n            orders[_ref].status = _status;\r\n            delete userOrderRefs[orders[_ref].party];\r\n            delete orders[_ref];\r\n            delete orderRefs[orderIndex[_ref]];\r\n            delete orderIndex[_ref];\r\n            emit orderCancel(_ref, orders[_ref].party, _status);\r\n        }\r\n    }\r\n\r\n    function tradeSettled(bytes32 tradeRef) external {\r\n        require(settlement==msg.sender);\r\n        delete trades[tradeRef];\r\n    }\r\n    \r\n}",
  "sourcePath": "D:\\Code\\verified-trades\\contracts\\Trade.sol",
  "compiler": {
    "name": "solc",
    "version": "0.5.7+commit.6da8b019.Emscripten.clang"
  },
  "schemaVersion": "3.4.3",
  "updatedAt": "2022-03-12T18:01:02.444Z",
  "networkType": "ethereum",
  "devdoc": {
    "methods": {}
  },
  "userdoc": {
    "methods": {}
  }
}