{
  "contractName": "Trade",
  "abi": [
    {
      "constant": false,
      "inputs": [],
      "name": "renounceOwnership",
      "outputs": [],
      "payable": false,
      "stateMutability": "nonpayable",
      "type": "function"
    },
    {
      "constant": true,
      "inputs": [],
      "name": "owner",
      "outputs": [
        {
          "name": "",
          "type": "address"
        }
      ],
      "payable": false,
      "stateMutability": "view",
      "type": "function"
    },
    {
      "constant": true,
      "inputs": [],
      "name": "isOwner",
      "outputs": [
        {
          "name": "",
          "type": "bool"
        }
      ],
      "payable": false,
      "stateMutability": "view",
      "type": "function"
    },
    {
      "constant": false,
      "inputs": [
        {
          "name": "newOwner",
          "type": "address"
        }
      ],
      "name": "transferOwnership",
      "outputs": [],
      "payable": false,
      "stateMutability": "nonpayable",
      "type": "function"
    },
    {
      "inputs": [],
      "payable": false,
      "stateMutability": "nonpayable",
      "type": "constructor"
    },
    {
      "anonymous": false,
      "inputs": [
        {
          "indexed": false,
          "name": "orderReference",
          "type": "bytes32"
        },
        {
          "indexed": false,
          "name": "party",
          "type": "address"
        },
        {
          "indexed": false,
          "name": "price",
          "type": "uint256"
        },
        {
          "indexed": false,
          "name": "amount",
          "type": "uint256"
        },
        {
          "indexed": false,
          "name": "order",
          "type": "bytes32"
        },
        {
          "indexed": false,
          "name": "orderType",
          "type": "bytes32"
        },
        {
          "indexed": false,
          "name": "date",
          "type": "uint256"
        },
        {
          "indexed": false,
          "name": "status",
          "type": "bytes32"
        },
        {
          "indexed": false,
          "name": "currency",
          "type": "bytes32"
        },
        {
          "indexed": false,
          "name": "securityName",
          "type": "bytes32"
        },
        {
          "indexed": false,
          "name": "security",
          "type": "address"
        }
      ],
      "name": "orderNew",
      "type": "event"
    },
    {
      "anonymous": false,
      "inputs": [
        {
          "indexed": false,
          "name": "orderRef",
          "type": "bytes32"
        },
        {
          "indexed": false,
          "name": "party",
          "type": "address"
        },
        {
          "indexed": false,
          "name": "status",
          "type": "bytes32"
        }
      ],
      "name": "orderCancel",
      "type": "event"
    },
    {
      "anonymous": false,
      "inputs": [
        {
          "indexed": false,
          "name": "isin",
          "type": "bytes32"
        },
        {
          "indexed": false,
          "name": "company",
          "type": "bytes32"
        },
        {
          "indexed": false,
          "name": "price",
          "type": "uint256"
        },
        {
          "indexed": false,
          "name": "currency",
          "type": "bytes32"
        },
        {
          "indexed": false,
          "name": "amount",
          "type": "uint256"
        },
        {
          "indexed": false,
          "name": "transactionType",
          "type": "bytes32"
        },
        {
          "indexed": false,
          "name": "transferor",
          "type": "address"
        },
        {
          "indexed": false,
          "name": "transferee",
          "type": "address"
        }
      ],
      "name": "tradeReport",
      "type": "event"
    },
    {
      "anonymous": false,
      "inputs": [
        {
          "indexed": true,
          "name": "previousOwner",
          "type": "address"
        },
        {
          "indexed": true,
          "name": "newOwner",
          "type": "address"
        }
      ],
      "name": "OwnershipTransferred",
      "type": "event"
    },
    {
      "constant": false,
      "inputs": [
        {
          "name": "_viaFactory",
          "type": "address"
        },
        {
          "name": "_settlement",
          "type": "address"
        },
        {
          "name": "_registration",
          "type": "address"
        },
        {
          "name": "_orderpool",
          "type": "address"
        },
        {
          "name": "_poolfactory",
          "type": "address"
        },
        {
          "name": "_rates",
          "type": "address"
        }
      ],
      "name": "initialize",
      "outputs": [],
      "payable": false,
      "stateMutability": "nonpayable",
      "type": "function"
    },
    {
      "constant": false,
      "inputs": [
        {
          "components": [
            {
              "name": "transferor",
              "type": "address"
            },
            {
              "name": "transferee",
              "type": "address"
            },
            {
              "name": "security",
              "type": "address"
            },
            {
              "name": "price",
              "type": "uint256"
            },
            {
              "name": "askprice",
              "type": "uint256"
            },
            {
              "name": "currency",
              "type": "bytes32"
            },
            {
              "name": "order",
              "type": "bytes32"
            },
            {
              "name": "stype",
              "type": "bytes32"
            },
            {
              "name": "qty",
              "type": "uint256"
            },
            {
              "name": "dt",
              "type": "uint256"
            },
            {
              "name": "txType",
              "type": "bytes32"
            }
          ],
          "name": "newTrade",
          "type": "tuple"
        },
        {
          "name": "partyRef",
          "type": "bytes32"
        },
        {
          "name": "counterpartyRef",
          "type": "bytes32"
        }
      ],
      "name": "reportTrade",
      "outputs": [],
      "payable": false,
      "stateMutability": "nonpayable",
      "type": "function"
    },
    {
      "constant": true,
      "inputs": [
        {
          "name": "ref",
          "type": "bytes32"
        }
      ],
      "name": "getTrade",
      "outputs": [
        {
          "name": "b",
          "type": "uint256"
        },
        {
          "name": "a",
          "type": "uint256"
        }
      ],
      "payable": false,
      "stateMutability": "view",
      "type": "function"
    },
    {
      "constant": false,
      "inputs": [
        {
          "components": [
            {
              "name": "party",
              "type": "address"
            },
            {
              "name": "security",
              "type": "address"
            },
            {
              "name": "price",
              "type": "uint256"
            },
            {
              "name": "otype",
              "type": "bytes32"
            },
            {
              "name": "order",
              "type": "bytes32"
            },
            {
              "name": "status",
              "type": "bytes32"
            },
            {
              "name": "currency",
              "type": "bytes32"
            },
            {
              "name": "securityName",
              "type": "bytes32"
            },
            {
              "name": "qty",
              "type": "uint256"
            },
            {
              "name": "dt",
              "type": "uint256"
            }
          ],
          "name": "newOrder",
          "type": "tuple"
        },
        {
          "name": "ref",
          "type": "bytes32"
        }
      ],
      "name": "reportOrder",
      "outputs": [],
      "payable": false,
      "stateMutability": "nonpayable",
      "type": "function"
    },
    {
      "constant": true,
      "inputs": [
        {
          "name": "originator",
          "type": "bool"
        }
      ],
      "name": "getOrders",
      "outputs": [
        {
          "name": "",
          "type": "bytes32[]"
        }
      ],
      "payable": false,
      "stateMutability": "view",
      "type": "function"
    },
    {
      "constant": true,
      "inputs": [
        {
          "name": "ref",
          "type": "bytes32"
        }
      ],
      "name": "getOrder",
      "outputs": [
        {
          "components": [
            {
              "name": "party",
              "type": "address"
            },
            {
              "name": "security",
              "type": "address"
            },
            {
              "name": "price",
              "type": "uint256"
            },
            {
              "name": "otype",
              "type": "bytes32"
            },
            {
              "name": "order",
              "type": "bytes32"
            },
            {
              "name": "status",
              "type": "bytes32"
            },
            {
              "name": "currency",
              "type": "bytes32"
            },
            {
              "name": "securityName",
              "type": "bytes32"
            },
            {
              "name": "qty",
              "type": "uint256"
            },
            {
              "name": "dt",
              "type": "uint256"
            }
          ],
          "name": "",
          "type": "tuple"
        }
      ],
      "payable": false,
      "stateMutability": "view",
      "type": "function"
    },
    {
      "constant": false,
      "inputs": [
        {
          "components": [
            {
              "name": "party",
              "type": "address"
            },
            {
              "name": "security",
              "type": "address"
            },
            {
              "name": "price",
              "type": "uint256"
            },
            {
              "name": "otype",
              "type": "bytes32"
            },
            {
              "name": "order",
              "type": "bytes32"
            },
            {
              "name": "status",
              "type": "bytes32"
            },
            {
              "name": "currency",
              "type": "bytes32"
            },
            {
              "name": "securityName",
              "type": "bytes32"
            },
            {
              "name": "qty",
              "type": "uint256"
            },
            {
              "name": "dt",
              "type": "uint256"
            }
          ],
          "name": "currentOrder",
          "type": "tuple"
        },
        {
          "name": "ref",
          "type": "bytes32"
        }
      ],
      "name": "editOrder",
      "outputs": [],
      "payable": false,
      "stateMutability": "nonpayable",
      "type": "function"
    },
    {
      "constant": false,
      "inputs": [
        {
          "name": "_ref",
          "type": "bytes32"
        },
        {
          "name": "_status",
          "type": "bytes32"
        }
      ],
      "name": "cancelOrder",
      "outputs": [],
      "payable": false,
      "stateMutability": "nonpayable",
      "type": "function"
    },
    {
      "constant": false,
      "inputs": [
        {
          "name": "tradeRef",
          "type": "bytes32"
        },
        {
          "name": "partyRef",
          "type": "bytes32"
        },
        {
          "name": "counterpartyRef",
          "type": "bytes32"
        }
      ],
      "name": "tradeSettled",
      "outputs": [],
      "payable": false,
      "stateMutability": "nonpayable",
      "type": "function"
    }
  ],
  "bytecode": "0x608060405234801561001057600080fd5b50600061002161007060201b60201c565b600080546001600160a01b0319166001600160a01b0383169081178255604051929350917f8be0079c531659141344cd1fd0a4f28419497f9722a3daafe3b4186f6b6457e0908290a350610074565b3390565b612c7680620000846000396000f3fe608060405234801561001057600080fd5b50600436106100cf5760003560e01c80638f32d59b1161008c578063b0aeacc611610066578063b0aeacc61461019e578063cc2a9a5b146101be578063f2fde38b146101d1578063fcfd88e9146101e4576100cf565b80638f32d59b14610155578063a3b137991461016a578063a47d9d331461018b576100cf565b80632e42a8fa146100d45780635778472a146100e957806365678bfd14610112578063715018a61461012557806382fce88f1461012d5780638da5cb5b14610140575b600080fd5b6100e76100e2366004612480565b6101f7565b005b6100fc6100f7366004612313565b610f80565b6040516101099190612b4b565b60405180910390f35b6100e761012036600461244e565b611025565b6100e76113af565b6100e761013b3660046123d6565b611429565b6101486114d8565b60405161010991906128ee565b61015d6114e8565b6040516101099190612943565b61017d610178366004612313565b61150c565b604051610109929190612a03565b6100e761019936600461234f565b611670565b6101b16101ac3660046122d7565b61183f565b6040516101099190612932565b6100e76101cc366004612250565b611978565b6100e76101df36600461220c565b611a10565b6100e76101f236600461244e565b611a43565b600b54604051600160e01b63ab986ddf0281526001600160a01b039091169063ab986ddf9061022a9033906004016128fc565b60206040518083038186803b15801561024257600080fd5b505afa158015610256573d6000803e3d6000fd5b505050506040513d601f19601f8201168201806040525061027a91908101906122f5565b151560011461028857600080fd5b6000828260405160200161029d9291906128c8565b60405160208183030381529060405280519060200120905080600760008581526020019081526020016000208190555080600760008481526020019081526020016000208190555060405180610160016040528085600001356001600160a01b03166001600160a01b0316815260200185602001356001600160a01b03166001600160a01b0316815260200185604001356001600160a01b03166001600160a01b0316815260200185606001358152602001856080013581526020018560a0013581526020018560c0013581526020018560e001358152602001856101000135815260200185610120013581526020018561014001358152506006600083815260200190815260200160002060008201518160000160006101000a8154816001600160a01b0302191690836001600160a01b0316021790555060208201518160010160006101000a8154816001600160a01b0302191690836001600160a01b0316021790555060408201518160020160006101000a8154816001600160a01b0302191690836001600160a01b03160217905550606082015181600301556080820151816004015560a0820151816005015560c0820151816006015560e082015181600701556101008201518160080155610120820151816009015561014082015181600a01559050506000806000600960009054906101000a90046001600160a01b03166001600160a01b0316634a161b2788604001356001600160a01b03166040518263ffffffff1660e01b81526004016104d991906128ee565b60606040518083038186803b1580156104f157600080fd5b505afa158015610505573d6000803e3d6000fd5b505050506040513d601f19601f820116820180604052506105299190810190612389565b92509250925060004290507f525cc225b9980c5d444b6a80c6d4f4adab5b8e81d34c2857073257fc80aa922284848a606001358b60a001358c61010001358d61014001358e600001356001600160a01b03168f602001356001600160a01b031660405161059d989796959493929190612a1e565b60405180910390a18760e00135600160f41b61044502141561090f57600954604051600160e01b63e0a87de10281526000916001600160a01b039081169163e0a87de1916105f69160208e0135909116906004016128ee565b60206040518083038186803b15801561060e57600080fd5b505afa158015610622573d6000803e3d6000fd5b505050506040513d601f19601f820116820180604052506106469190810190612331565b600954604051600160e01b63e0a87de10281529192506000916001600160a01b039182169163e0a87de191610681918e3516906004016128ee565b60206040518083038186803b15801561069957600080fd5b505afa1580156106ad573d6000803e3d6000fd5b505050506040513d601f19601f820116820180604052506106d19190810190612331565b90506106db61202d565b60408051610220810182526001600160a01b038d35811682526020808f01358216818401528e84013582168385015260008c81526006909152838120600201548451600160e01b6306fdde0302815294519394606086019491909316926306fdde03926004808301939192829003018186803b15801561075a57600080fd5b505afa15801561076e573d6000803e3d6000fd5b505050506040513d6000823e601f3d908101601f191682016040526107969190810190612419565b604051600160e31b6319f6a32502815273__stringutils___________________________9163cfb51928916107cf9190600401612afd565b60206040518083038186803b1580156107e757600080fd5b505af41580156107fb573d6000803e3d6000fd5b505050506040513d601f19601f8201168201806040525061081f9190810190612331565b8152602001600160c81b6650656e64696e670281526020018381526020018481526020018881526020018781526020018c60a0013581526020018c6060013581526020016108768d606001358e6101000135611ee9565b81526101008d013560208201526040808201879052336060830152608082018d905260a09091018b90526008549051600160e21b6302a616a90281529192506001600160a01b031690630a985aa4906108d59084908c90600401612b5a565b600060405180830381600087803b1580156108ef57600080fd5b505af1158015610903573d6000803e3d6000fd5b50505050505050610f76565b8760e00135600160ec1b62053545021415610f7657600c54604051600160e21b633cd163c50281526000916001600160a01b03169063f3458f149061095c9060a08d013590600401612a95565b60206040518083038186803b15801561097457600080fd5b505afa158015610988573d6000803e3d6000fd5b505050506040513d601f19601f820116820180604052506109ac9190810190612232565b90506000610a4c6109c68b606001358c6101000135611ee9565b600d54604051600160e01b63e5f3d3a50281526001600160a01b039091169063e5f3d3a5906109f790600401612b1e565b60206040518083038186803b158015610a0f57600080fd5b505afa158015610a23573d6000803e3d6000fd5b505050506040513d601f19601f82011682018060405250610a479190810190612331565b611ee9565b90506000610a6c610a668c606001358d6101000135611ee9565b83611f2f565b9050826001600160a01b03166323b872dd8c602001356001600160a01b03168d600001356001600160a01b0316846040518463ffffffff1660e01b8152600401610ab89392919061290a565b602060405180830381600087803b158015610ad257600080fd5b505af1158015610ae6573d6000803e3d6000fd5b505050506040513d601f19601f82011682018060405250610b0a91908101906122f5565b15610f72576000856001600160a01b03166323b872dd8d600001356001600160a01b03168e602001356001600160a01b03168f61010001356040518463ffffffff1660e01b8152600401610b609392919061290a565b602060405180830381600087803b158015610b7a57600080fd5b505af1158015610b8e573d6000803e3d6000fd5b505050506040513d601f19601f82011682018060405250610bb291908101906122f5565b905060006001600160a01b0316600d60009054906101000a90046001600160a01b03166001600160a01b031663f4aa13026040518163ffffffff1660e01b815260040160206040518083038186803b158015610c0d57600080fd5b505afa158015610c21573d6000803e3d6000fd5b505050506040513d601f19601f82011682018060405250610c459190810190612232565b6001600160a01b031614158015610c595750805b15610d7557836001600160a01b03166323b872dd8d602001356001600160a01b0316600d60009054906101000a90046001600160a01b03166001600160a01b031663f4aa13026040518163ffffffff1660e01b815260040160206040518083038186803b158015610cc957600080fd5b505afa158015610cdd573d6000803e3d6000fd5b505050506040513d601f19601f82011682018060405250610d019190810190612232565b866040518463ffffffff1660e01b8152600401610d209392919061290a565b602060405180830381600087803b158015610d3a57600080fd5b505af1158015610d4e573d6000803e3d6000fd5b505050506040513d601f19601f82011682018060405250610d7291908101906122f5565b90505b80610ee657336001600160a01b0316631f0404808c8e61010001356040518363ffffffff1660e01b8152600401610dad929190612aaf565b600060405180830381600087803b158015610dc757600080fd5b505af1158015610ddb573d6000803e3d6000fd5b50505050336001600160a01b0316631f0404808b8e61010001356040518363ffffffff1660e01b8152600401610e12929190612ad6565b600060405180830381600087803b158015610e2c57600080fd5b505af1158015610e40573d6000803e3d6000fd5b50505050836001600160a01b03166323b872dd8d600001356001600160a01b03168e602001356001600160a01b0316856040518463ffffffff1660e01b8152600401610e8e9392919061290a565b602060405180830381600087803b158015610ea857600080fd5b505af1158015610ebc573d6000803e3d6000fd5b505050506040513d601f19601f82011682018060405250610ee091908101906122f5565b50610f70565b604051600160e11b6309e722a302815233906313ce454690610f0e908e908e90600401612a03565b600060405180830381600087803b158015610f2857600080fd5b505af1158015610f3c573d6000803e3d6000fd5b50505060008c815260016020526040808220600160d21b65119a5b1b19590260059182018190558e84529190922090910155505b505b5050505b5050505050505050565b610f886120b9565b610f906120b9565b5050604080516101408101825260008381526001602081815284832080546001600160a01b0390811686528184015416828601526002810154958501959095526003850154606085015260048501546080850152600585015460a0850152600685015460c0850152600785015460e085015260088501546101008501529185905290526009909101546101208201525b919050565b600b54604051600160e01b63ab986ddf0281526001600160a01b039091169063ab986ddf906110589033906004016128fc565b60206040518083038186803b15801561107057600080fd5b505afa158015611084573d6000803e3d6000fd5b505050506040513d601f19601f820116820180604052506110a891908101906122f5565b15156001146110b657600080fd5b6000818152600160205260409020546001600160a01b0316156113ab5781600001356001600160a01b03166001600083815260200190815260200160002060000160006101000a8154816001600160a01b0302191690836001600160a01b03160217905550816040013560016000838152602001908152602001600020600201819055508161010001356001600083815260200190815260200160002060080181905550816080013560016000838152602001908152602001600020600401819055508160600135600160008381526020019081526020016000206003018190555081610120013560016000838152602001908152602001600020600901819055508160a0013560016000838152602001908152602001600020600501819055508160c0013560016000838152602001908152602001600020600601819055508160e00135600160008381526020019081526020016000206007018190555081602001356001600160a01b03166001600083815260200190815260200160002060010160006101000a8154816001600160a01b0302191690836001600160a01b031602179055507ff9ceedb302ac77dd81be3ae406e07b83141f282bb79a6316159e4a9cb6fa407e816001600084815260200190815260200160002060000160009054906101000a90046001600160a01b031660016000858152602001908152602001600020600201546001600086815260200190815260200160002060080154600160008781526020019081526020016000206004015460016000888152602001908152602001600020600301546001600089815260200190815260200160002060090154600160008a815260200190815260200160002060050154600160008b815260200190815260200160002060060154600160008c815260200190815260200160002060070154600160008d815260200190815260200160002060010160009054906101000a90046001600160a01b03166040516113a29b9a9998979695949392919061295f565b60405180910390a15b5050565b6113b76114e8565b6113df57604051600160e51b62461bcd0281526004016113d690612b3b565b60405180910390fd5b600080546040516001600160a01b03909116907f8be0079c531659141344cd1fd0a4f28419497f9722a3daafe3b4186f6b6457e0908390a3600080546001600160a01b0319169055565b6008546001600160a01b0316331461144057600080fd5b600092835260066020818152604080862080546001600160a01b03199081168255600180830180548316905560028301805490921690915560038201889055600482018890556005808301899055948201889055600782018890556008820188905560098201889055600a909101879055948652939052828420600160d21b65119a5b1b195902908201819055918452919092200155565b6000546001600160a01b03165b90565b600080546001600160a01b03166114fd611f71565b6001600160a01b031614905090565b60008181526001602052604081205481906001600160a01b0316331461153157600080fd5b6000838152600160208181526040808420909201546007825282842054845260069091529082206002015482916001600160a01b03918216911614801561159e575060008581526007602090815260408083205483526006918290529091200154600160e81b6242757902145b156115cc57505060008381526007602090815260408083205483526006909152902060038101546004909101545b6000858152600160208181526040808420909201546007825282842054845260069091529120600201546001600160a01b039081169116148015611637575060008581526007602090815260408083205483526006918290529091200154600160e21b6314d95b1b02145b156116665750506000838152600760209081526040808320548352600690915290206003810154600490910154905b9092509050915091565b600b54604051600160e01b63ab986ddf0281526001600160a01b039091169063ab986ddf906116a39033906004016128fc565b60206040518083038186803b1580156116bb57600080fd5b505afa1580156116cf573d6000803e3d6000fd5b505050506040513d601f19601f820116820180604052506116f391908101906122f5565b151560011461170157600080fd5b6000828152600160205260409020546001600160a01b0316156113ab5760008281526001602052604090819020600581018390555490517f07590eb3865798c48e7cb896d58a590640f2438221362eeca15da9a147490bb5916117719185916001600160a01b0316908590612951565b60405180910390a16000828152600160209081526040808320546001600160a01b03168352600490915281206117a69161210d565b600082815260016020818152604080842080546001600160a01b031990811682559381018054909416909355600280840185905560038085018690556004850186905560058501869055600685018690556007850186905560088501869055600990940185905592909152909120548154811061181f57fe5b600091825260208083209091018290558382526003905260408120555050565b606081156118a857336000908152600460209081526040918290208054835181840281018401909452808452909183018282801561189c57602002820191906000526020600020905b815481526020019060010190808311611888575b50505050509050611020565b6002546040805182815260208084028201019091526060908280156118d7578160200160208202803883390190505b5090506000805b60025481101561196c57336001600160a01b0316600160006002848154811061190357fe5b600091825260208083209091015483528201929092526040019020546001600160a01b031614611964576002818154811061193a57fe5b906000526020600020015483838151811061195157fe5b6020026020010181815250508160010191505b6001016118de565b82945050505050611020565b6119806114e8565b61199f57604051600160e51b62461bcd0281526004016113d690612b3b565b600880546001600160a01b03199081166001600160a01b039788161790915560098054821695871695909517909455600a8054851693861693909317909255600b80548416918516919091179055600c8054831694841694909417909355600d805490911692909116919091179055565b611a186114e8565b611a3757604051600160e51b62461bcd0281526004016113d690612b3b565b611a4081611f75565b50565b600b54604051600160e01b63ab986ddf0281526001600160a01b039091169063ab986ddf90611a769033906004016128fc565b60206040518083038186803b158015611a8e57600080fd5b505afa158015611aa2573d6000803e3d6000fd5b505050506040513d601f19601f82011682018060405250611ac691908101906122f5565b1515600114611ad457600080fd5b6000818152600160205260409020546001600160a01b03166113ab5781600001356001600160a01b03166001600083815260200190815260200160002060000160006101000a8154816001600160a01b0302191690836001600160a01b03160217905550816040013560016000838152602001908152602001600020600201819055508161010001356001600083815260200190815260200160002060080181905550816080013560016000838152602001908152602001600020600401819055508160600135600160008381526020019081526020016000206003018190555081610120013560016000838152602001908152602001600020600901819055508160a0013560016000838152602001908152602001600020600501819055508160c0013560016000838152602001908152602001600020600601819055508160e00135600160008381526020019081526020016000206007018190555081602001356001600160a01b03166001600083815260200190815260200160002060010160006101000a8154816001600160a01b0302191690836001600160a01b0316021790555060028054905060036000838152602001908152602001600020819055506002819080600181540180825580915050906001820390600052602060002001600090919290919091505550600460006001600084815260200190815260200160002060000160009054906101000a90046001600160a01b03166001600160a01b03166001600160a01b03168152602001908152602001600020805490506005600083815260200190815260200160002081905550600460006001600084815260200190815260200160002060000160009054906101000a90046001600160a01b03166001600160a01b03166001600160a01b031681526020019081526020016000208190806001815401808255809150509060018203906000526020600020016000909192909190915055507ff9ceedb302ac77dd81be3ae406e07b83141f282bb79a6316159e4a9cb6fa407e816001600084815260200190815260200160002060000160009054906101000a90046001600160a01b031660016000858152602001908152602001600020600201546001600086815260200190815260200160002060080154600160008781526020019081526020016000206004015460016000888152602001908152602001600020600301546001600089815260200190815260200160002060090154600160008a815260200190815260200160002060050154600160008b815260200190815260200160002060060154600160008c815260200190815260200160002060070154600160008d815260200190815260200160002060010160009054906101000a90046001600160a01b03166040516113a29b9a9998979695949392919061295f565b600082611ef857506000611f29565b82820282848281611f0557fe5b0414611f2657604051600160e51b62461bcd0281526004016113d690612b2b565b90505b92915050565b6000611f2683836040518060400160405280601e81526020017f536166654d6174683a207375627472616374696f6e206f766572666c6f770000815250611ff9565b3390565b6001600160a01b038116611f9e57604051600160e51b62461bcd0281526004016113d690612b0e565b600080546040516001600160a01b03808516939216917f8be0079c531659141344cd1fd0a4f28419497f9722a3daafe3b4186f6b6457e091a3600080546001600160a01b0319166001600160a01b0392909216919091179055565b6000818484111561202057604051600160e51b62461bcd0281526004016113d69190612afd565b50508183035b9392505050565b6040805161022081018252600080825260208201819052918101829052606081018290526080810182905260a0810182905260c0810182905260e08101829052610100810182905261012081018290526101408101829052610160810182905261018081018290526101a081018290526101c081018290526101e0810182905261020081019190915290565b6040805161014081018252600080825260208201819052918101829052606081018290526080810182905260a0810182905260c0810182905260e08101829052610100810182905261012081019190915290565b5080546000825590600052602060002090810190611a4091906114e591905b80821115612140576000815560010161212c565b5090565b6000611f268235612bd9565b6000611f268251612bd9565b6000611f268235612be4565b6000611f268251612be4565b6000611f2682356114e5565b6000611f2682516114e5565b600082601f83011261219d57600080fd5b81516121b06121ab82612b9e565b612b77565b915080825260208301602083018583830111156121cc57600080fd5b6121d7838284612c06565b50505092915050565b600061014082840312156121f357600080fd5b50919050565b600061016082840312156121f357600080fd5b60006020828403121561221e57600080fd5b600061222a8484612144565b949350505050565b60006020828403121561224457600080fd5b600061222a8484612150565b60008060008060008060c0878903121561226957600080fd5b60006122758989612144565b965050602061228689828a01612144565b955050604061229789828a01612144565b94505060606122a889828a01612144565b93505060806122b989828a01612144565b92505060a06122ca89828a01612144565b9150509295509295509295565b6000602082840312156122e957600080fd5b600061222a848461215c565b60006020828403121561230757600080fd5b600061222a8484612168565b60006020828403121561232557600080fd5b600061222a8484612174565b60006020828403121561234357600080fd5b600061222a8484612180565b6000806040838503121561236257600080fd5b600061236e8585612174565b925050602061237f85828601612174565b9150509250929050565b60008060006060848603121561239e57600080fd5b60006123aa8686612180565b93505060206123bb86828701612180565b92505060406123cc86828701612150565b9150509250925092565b6000806000606084860312156123eb57600080fd5b60006123f78686612174565b935050602061240886828701612174565b92505060406123cc86828701612174565b60006020828403121561242b57600080fd5b815167ffffffffffffffff81111561244257600080fd5b61222a8482850161218c565b600080610160838503121561246257600080fd5b600061246e85856121e0565b92505061014061237f85828601612174565b60008060006101a0848603121561249657600080fd5b60006124a286866121f9565b9350506101606124b486828701612174565b9250506101806123cc86828701612174565b60006124d28383612550565b505060200190565b6124e381612bf5565b82525050565b6124e381612bd9565b60006124fd82612bcc565b6125078185612bd0565b935061251283612bc6565b60005b8281101561253d576125288683516124c6565b955061253382612bc6565b9150600101612515565b5093949350505050565b6124e381612be4565b6124e3816114e5565b6124e3612565826114e5565b6114e5565b600061257582612bcc565b61257f8185612bd0565b935061258f818560208601612c06565b61259881612c32565b9093019392505050565b60006125af602683612bd0565b7f4f776e61626c653a206e6577206f776e657220697320746865207a65726f20618152600160d01b6564647265737302602082015260400192915050565b600160e21b6314d95b1b029052565b600160cb1b660acd2c286c2e6d029052565b600160c81b6674726164696e67029052565b600160e81b62427579029052565b600061263b602183612bd0565b7f536166654d6174683a206d756c7469706c69636174696f6e206f766572666c6f8152600160f81b607702602082015260400192915050565b6000612681602083612bd0565b7f4f776e61626c653a2063616c6c6572206973206e6f7420746865206f776e6572815260200192915050565b80516101408301906126bf84826124e9565b5060208201516126d260208501826124e9565b5060408201516126e56040850182612550565b5060608201516126f86060850182612550565b50608082015161270b6080850182612550565b5060a082015161271e60a0850182612550565b5060c082015161273160c0850182612550565b5060e082015161274460e0850182612550565b50610100820151612759610100850182612550565b5061012082015161276e610120850182612550565b50505050565b805161022083019061278684826124e9565b50602082015161279960208501826124e9565b5060408201516127ac60408501826124e9565b5060608201516127bf6060850182612550565b5060808201516127d26080850182612550565b5060a08201516127e560a0850182612550565b5060c08201516127f860c0850182612550565b5060e082015161280b60e0850182612550565b50610100820151612820610100850182612550565b50610120820151612835610120850182612550565b5061014082015161284a610140850182612550565b5061016082015161285f610160850182612550565b50610180820151612874610180850182612550565b506101a08201516128896101a0850182612550565b506101c082015161289e6101c08501826124e9565b506101e08201516128b36101e0850182612550565b5061020082015161276e610200850182612550565b60006128d48285612559565b6020820191506128e48284612559565b5060200192915050565b60208101611f2982846124e9565b60208101611f2982846124da565b6060810161291882866124e9565b61292560208301856124e9565b61222a6040830184612550565b60208082528101611f2681846124f2565b60208101611f298284612547565b606081016129188286612550565b610160810161296e828e612550565b61297b602083018d6124e9565b612988604083018c612550565b612995606083018b612550565b6129a2608083018a612550565b6129af60a0830189612550565b6129bc60c0830188612550565b6129c960e0830187612550565b6129d7610100830186612550565b6129e5610120830185612550565b6129f36101408301846124e9565b9c9b505050505050505050505050565b60408101612a118285612550565b6120266020830184612550565b6101008101612a2d828b612550565b612a3a602083018a612550565b612a476040830189612550565b612a546060830188612550565b612a616080830187612550565b612a6e60a0830186612550565b612a7b60c08301856124e9565b612a8860e08301846124e9565b9998505050505050505050565b60408101612aa38284612550565b611f29602083016125fc565b60608101612abd8285612550565b612aca6020830184612550565b612026604083016125ed565b60608101612ae48285612550565b612af16020830184612550565b61202660408301612620565b60208082528101611f26818461256a565b60208082528101611f29816125a2565b602081016110208261260e565b60208082528101611f298161262e565b60208082528101611f2981612674565b6101408101611f2982846126ad565b6102408101612b698285612774565b612026610220830184612550565b60405181810167ffffffffffffffff81118282101715612b9657600080fd5b604052919050565b600067ffffffffffffffff821115612bb557600080fd5b506020601f91909101601f19160190565b60200190565b5190565b90815260200190565b6000611f2982612be9565b151590565b6001600160a01b031690565b6000611f29826000611f2982612bd9565b60005b83811015612c21578181015183820152602001612c09565b8381111561276e5750506000910152565b601f01601f19169056fea265627a7a7230582030f253bfe596e6522d9733f12472393d12ee461b9274796db84b5e6f4713b3a96c6578706572696d656e74616cf50037",
  "source": "// Routing new orders\r\n// (c) Kallol Borah, 2021\r\n\r\npragma solidity 0.5.7;\r\npragma experimental ABIEncoderV2;\r\n \r\nimport \"./registry/Security.sol\";\r\nimport \"./interfaces/ITrade.sol\";\r\nimport \"./interfaces/IPreTrade.sol\";\r\nimport \"./interfaces/IPostTrade.sol\";\r\nimport \"./interfaces/IOrderPool.sol\";\r\nimport \"./interfaces/IPoolFactory.sol\";\r\nimport \"./interfaces/ViaCash.sol\";\r\nimport \"./interfaces/ViaFactory.sol\";\r\nimport \"./interfaces/VerifiedRates.sol\";\r\nimport \"./utilities/StringUtils.sol\";\r\nimport \"abdk-libraries-solidity/ABDKMathQuad.sol\";\r\nimport \"@openzeppelin/contracts/ownership/Ownable.sol\";\r\nimport \"@openzeppelin/contracts/math/SafeMath.sol\";\r\n\r\ncontract Trade is ITrade, Ownable {\r\n\r\n    using ABDKMathQuad for uint256;\r\n    using ABDKMathQuad for int256;\r\n    using ABDKMathQuad for bytes16;\r\n\r\n    using stringutils for *;\r\n\r\n    using SafeMath for uint256;\r\n\r\n    //mapping an order reference to order details\r\n    mapping(bytes32 => ITrade.order) private orders;\r\n\r\n    //order references\r\n    bytes32[] private orderRefs;\r\n\r\n    //mapping order reference to position in index\r\n    mapping(bytes32 => uint256) private orderIndex;\r\n\r\n    //mapping users to order references\r\n    mapping(address => bytes32[]) private userOrderRefs;\r\n\r\n    //mapping user's order reference to positions\r\n    mapping(bytes32 => uint256) private userOrderIndex;\r\n\r\n    //mapping a trade reference to trade details\r\n    mapping(bytes32 => ITrade.trade) private trades;\r\n\r\n    //mapping order ref to trade reference\r\n    mapping(bytes32 => bytes32) private tradeRefs;\r\n\r\n    address settlement;\r\n    address registration;\r\n    address orderpool;\r\n    address poolfactory;\r\n    ViaFactory private via;\r\n    VerifiedRates private rates;\r\n\r\n    event orderNew(\r\n                bytes32 orderReference,\r\n                address party,\r\n                uint256 price,\r\n                uint256 amount,\r\n                bytes32 order, \r\n                bytes32 orderType,\r\n                uint256 date,\r\n                bytes32 status,\r\n                bytes32 currency,\r\n                bytes32 securityName,\r\n                address security\r\n            );\r\n\r\n    event orderCancel(bytes32 orderRef, address party, bytes32 status);\r\n\r\n    event tradeReport(                     \r\n                    bytes32 isin,\r\n                    bytes32 company,\r\n                    uint256 price,\r\n                    bytes32 currency, \r\n                    uint256 amount, \r\n                    //uint256 executionDate,\r\n                    bytes32 transactionType,\r\n                    address transferor, \r\n                    address transferee\r\n                );\r\n\r\n    constructor() public Ownable() {\r\n    }\r\n\r\n    function initialize(address _viaFactory, address _settlement, address _registration, address _orderpool, address _poolfactory, address _rates) public onlyOwner{\r\n        settlement = _settlement;\r\n        registration = _registration;\r\n        orderpool = _orderpool;\r\n        poolfactory = _poolfactory;\r\n        via = ViaFactory(_viaFactory);\r\n        rates = VerifiedRates(_rates);\r\n    }\r\n\r\n    function reportTrade(ITrade.trade calldata newTrade, bytes32 partyRef, bytes32 counterpartyRef) external {\r\n        require(IPoolFactory(poolfactory).confirmPool(msg.sender)==true);\r\n        bytes32 _tradeRef = keccak256(abi.encodePacked(partyRef, counterpartyRef));\r\n        tradeRefs[partyRef] = _tradeRef;\r\n        tradeRefs[counterpartyRef] = _tradeRef;\r\n        trades[_tradeRef]=trade(newTrade.transferor, \r\n                                newTrade.transferee, \r\n                                newTrade.security,\r\n                                newTrade.price,\r\n                                newTrade.askprice, \r\n                                newTrade.currency, \r\n                                newTrade.order,\r\n                                newTrade.stype,\r\n                                newTrade.qty, \r\n                                newTrade.dt,\r\n                                newTrade.txType);   \r\n        (bytes32 _isin, bytes32 _company, address _token) = IPreTrade(registration).getSecurity(newTrade.security);\r\n        uint256 _executionDt = now;\r\n        emit tradeReport(\r\n                        _isin,\r\n                        _company,\r\n                        newTrade.price,\r\n                        newTrade.currency, \r\n                        newTrade.qty, \r\n                        //_executionDt,\r\n                        newTrade.txType,\r\n                        newTrade.transferor, \r\n                        newTrade.transferee\r\n                        );   \r\n        if(newTrade.stype==\"DP\"){\r\n            bytes32 _transfereeDPID = IPreTrade(registration).getDP(newTrade.transferee);\r\n            bytes32 _transferorDPID = IPreTrade(registration).getDP(newTrade.transferor);\r\n            IPostTrade.settlement memory tradeToSettle = IPostTrade.settlement({\r\n                transferor : newTrade.transferor,\r\n                transferee : newTrade.transferee,\r\n                security : newTrade.security,\r\n                securityName : Security(trades[_tradeRef].security).name().stringToBytes32(),\r\n                status : \"Pending\",\r\n                transferorDPID : _transferorDPID,\r\n                transfereeDPID : _transfereeDPID,\r\n                isin : _isin,\r\n                company : _company,\r\n                currency : newTrade.currency,\r\n                price : newTrade.price,\r\n                consideration : SafeMath.mul(newTrade.price, newTrade.qty),\r\n                unitsToTransfer : newTrade.qty,\r\n                executionDate : _executionDt,\r\n                orderPool : msg.sender,\r\n                partyRef : partyRef,\r\n                counterpartyRef : counterpartyRef\r\n            });            \r\n            IPostTrade(settlement).postSettlement(tradeToSettle, _tradeRef);\r\n        }\r\n        else if(newTrade.stype==\"STP\"){\r\n            address cashToken = via.getTokenByNameType(newTrade.currency, \"ViaCash\");\r\n            uint256 fee = SafeMath.mul(SafeMath.mul(newTrade.price, newTrade.qty), rates.getFee(\"trading\"));\r\n            uint256 pay = SafeMath.sub(SafeMath.mul(newTrade.price, newTrade.qty), fee);\r\n            if(ViaCash(cashToken).transferFrom(newTrade.transferee, newTrade.transferor, pay)){\r\n                bool success = Security(_token).transferFrom(newTrade.transferor, newTrade.transferee, newTrade.qty);\r\n                if(rates.getFeeToSetter()!=address(0x0) && success){\r\n                    success = ViaCash(cashToken).transferFrom(newTrade.transferee, rates.getFeeToSetter(), fee);\r\n                }\r\n                if(!success){\r\n                    IOrderPool(msg.sender).revertTrade(partyRef, newTrade.qty, \"Sell\");\r\n                    IOrderPool(msg.sender).revertTrade(counterpartyRef, newTrade.qty, \"Buy\");\r\n                    ViaCash(cashToken).transferFrom(newTrade.transferor, newTrade.transferee, pay);\r\n                }\r\n                else{\r\n                    IOrderPool(msg.sender).orderFilled(partyRef, counterpartyRef);\r\n                    orders[partyRef].status = \"Filled\";\r\n                    orders[counterpartyRef].status = \"Filled\";\r\n                }\r\n            }\r\n        }\r\n    }\r\n\r\n\r\n    //returns bid, ask, last change corresponding to passed order ref\r\n    function getTrade(bytes32 ref) external view returns(uint256 b, uint256 a){\r\n        require(orders[ref].party==msg.sender);\r\n        uint256 bid=0;\r\n        uint256 ask=0;\r\n        if(trades[tradeRefs[ref]].security==orders[ref].security && trades[tradeRefs[ref]].order==\"Buy\"){\r\n            bid = trades[tradeRefs[ref]].price;\r\n            ask = trades[tradeRefs[ref]].askprice;\r\n        }\r\n        if(trades[tradeRefs[ref]].security==orders[ref].security && trades[tradeRefs[ref]].order==\"Sell\"){\r\n            ask = trades[tradeRefs[ref]].price;\r\n            bid = trades[tradeRefs[ref]].askprice;\r\n        }\r\n        return (bid, ask);\r\n    }\r\n\r\n    function reportOrder(ITrade.order calldata newOrder, bytes32 ref) external {\r\n        require(IPoolFactory(poolfactory).confirmPool(msg.sender)==true);\r\n        if(orders[ref].party==address(0x0)){\r\n            orders[ref].party = newOrder.party;\r\n            orders[ref].price = newOrder.price;\r\n            orders[ref].qty = newOrder.qty;\r\n            orders[ref].order = newOrder.order; \r\n            orders[ref].otype = newOrder.otype;\r\n            orders[ref].dt = newOrder.dt;\r\n            orders[ref].status = newOrder.status;\r\n            orders[ref].currency = newOrder.currency;\r\n            orders[ref].securityName = newOrder.securityName;\r\n            orders[ref].security = newOrder.security;\r\n            orderIndex[ref] = orderRefs.length;\r\n            orderRefs.push(ref);\r\n            userOrderIndex[ref] = userOrderRefs[orders[ref].party].length;\r\n            userOrderRefs[orders[ref].party].push(ref);\r\n            emit orderNew(\r\n                ref,\r\n                orders[ref].party,\r\n                orders[ref].price,\r\n                orders[ref].qty,\r\n                orders[ref].order, \r\n                orders[ref].otype,\r\n                orders[ref].dt,\r\n                orders[ref].status,\r\n                orders[ref].currency,\r\n                orders[ref].securityName,\r\n                orders[ref].security\r\n            );\r\n        }\r\n    }\r\n\r\n    function getOrders(bool originator) external view returns(bytes32[] memory){\r\n        if(originator){\r\n            return userOrderRefs[msg.sender];\r\n        }\r\n        else{\r\n            uint entries = orderRefs.length;\r\n            bytes32[] memory result = new bytes32[](entries);\r\n            uint entry=0;\r\n            uint i;\r\n            for(i=0; i<orderRefs.length; i++){\r\n                if(orders[orderRefs[i]].party!=msg.sender){\r\n                    result[entry]=orderRefs[i];\r\n                    entry=entry+1;\r\n                }\r\n            }\r\n            return result;\r\n        }\r\n    }\r\n\r\n    function getOrder(bytes32 ref) external view returns(ITrade.order memory){\r\n        ITrade.order memory response = ITrade.order({\r\n            party : orders[ref].party,\r\n            security : orders[ref].security,\r\n            price : orders[ref].price,\r\n            otype : orders[ref].otype,\r\n            order : orders[ref].order,\r\n            status : orders[ref].status,\r\n            currency : orders[ref].currency,\r\n            securityName : orders[ref].securityName,\r\n            qty : orders[ref].qty,\r\n            dt : orders[ref].dt\r\n        });\r\n        return(response);\r\n    }   \r\n\r\n    function editOrder(ITrade.order calldata currentOrder, bytes32 ref) external{\r\n        require(IPoolFactory(poolfactory).confirmPool(msg.sender)==true);\r\n        if(orders[ref].party!=address(0x0)){\r\n            orders[ref].party = currentOrder.party;\r\n            orders[ref].price = currentOrder.price;\r\n            orders[ref].qty = currentOrder.qty;\r\n            orders[ref].order = currentOrder.order; \r\n            orders[ref].otype = currentOrder.otype;\r\n            orders[ref].dt = currentOrder.dt;\r\n            orders[ref].status = currentOrder.status;\r\n            orders[ref].currency = currentOrder.currency;\r\n            orders[ref].securityName = currentOrder.securityName;\r\n            orders[ref].security = currentOrder.security;\r\n\r\n            emit orderNew(\r\n                ref,\r\n                orders[ref].party,\r\n                orders[ref].price,\r\n                orders[ref].qty,\r\n                orders[ref].order, \r\n                orders[ref].otype,\r\n                orders[ref].dt,\r\n                orders[ref].status,\r\n                orders[ref].currency,\r\n                orders[ref].securityName,\r\n                orders[ref].security\r\n            ); \r\n        }\r\n    }\r\n\r\n    function cancelOrder(bytes32 _ref, bytes32 _status) external{\r\n        require(IPoolFactory(poolfactory).confirmPool(msg.sender)==true);\r\n        if(orders[_ref].party!=address(0x0)){\r\n            orders[_ref].status = _status;\r\n            emit orderCancel(_ref, orders[_ref].party, _status);\r\n            delete userOrderRefs[orders[_ref].party];\r\n            delete orders[_ref];\r\n            delete orderRefs[orderIndex[_ref]];\r\n            delete orderIndex[_ref];\r\n        }\r\n    }\r\n\r\n    function tradeSettled(bytes32 tradeRef, bytes32 partyRef, bytes32 counterpartyRef) external {\r\n        require(settlement==msg.sender);\r\n        delete trades[tradeRef];\r\n        orders[partyRef].status = \"Filled\";\r\n        orders[counterpartyRef].status = \"Filled\";\r\n    }\r\n    \r\n}",
  "sourcePath": "D:\\Code\\verified-trades\\contracts\\Trade.sol",
  "compiler": {
    "name": "solc",
    "version": "0.5.7+commit.6da8b019.Emscripten.clang"
  },
  "schemaVersion": "3.4.3",
  "updatedAt": "2022-08-18T07:16:52.258Z",
  "networkType": "ethereum",
  "devdoc": {
    "methods": {
      "isOwner()": {
        "details": "Returns true if the caller is the current owner."
      },
      "owner()": {
        "details": "Returns the address of the current owner."
      },
      "renounceOwnership()": {
        "details": "Leaves the contract without owner. It will not be possible to call `onlyOwner` functions anymore. Can only be called by the current owner.     * NOTE: Renouncing ownership will leave the contract without an owner, thereby removing any functionality that is only available to the owner."
      },
      "transferOwnership(address)": {
        "details": "Transfers ownership of the contract to a new account (`newOwner`). Can only be called by the current owner."
      }
    }
  },
  "userdoc": {
    "methods": {}
  }
}