{
  "contractName": "Trade",
  "abi": [
    {
      "anonymous": false,
      "inputs": [
        {
          "indexed": false,
          "name": "ref",
          "type": "bytes32"
        },
        {
          "indexed": false,
          "name": "party",
          "type": "address"
        },
        {
          "indexed": false,
          "name": "price",
          "type": "uint256"
        },
        {
          "indexed": false,
          "name": "trigger",
          "type": "uint256"
        },
        {
          "indexed": false,
          "name": "qty",
          "type": "uint256"
        },
        {
          "indexed": false,
          "name": "order",
          "type": "bytes32"
        },
        {
          "indexed": false,
          "name": "otype",
          "type": "bytes32"
        },
        {
          "indexed": false,
          "name": "dt",
          "type": "uint256"
        },
        {
          "indexed": false,
          "name": "status",
          "type": "bytes32"
        },
        {
          "indexed": false,
          "name": "currency",
          "type": "bytes32"
        },
        {
          "indexed": false,
          "name": "securityName",
          "type": "bytes32"
        },
        {
          "indexed": false,
          "name": "security",
          "type": "address"
        }
      ],
      "name": "orderNew",
      "type": "event"
    },
    {
      "anonymous": false,
      "inputs": [
        {
          "indexed": false,
          "name": "orderRef",
          "type": "bytes32"
        },
        {
          "indexed": false,
          "name": "party",
          "type": "address"
        },
        {
          "indexed": false,
          "name": "status",
          "type": "bytes32"
        }
      ],
      "name": "orderCancel",
      "type": "event"
    },
    {
      "anonymous": false,
      "inputs": [
        {
          "indexed": false,
          "name": "partyRef",
          "type": "bytes32"
        },
        {
          "indexed": false,
          "name": "counterpartyRef",
          "type": "bytes32"
        },
        {
          "indexed": false,
          "name": "isin",
          "type": "bytes32"
        },
        {
          "indexed": false,
          "name": "company",
          "type": "bytes32"
        },
        {
          "indexed": false,
          "name": "price",
          "type": "uint256"
        },
        {
          "indexed": false,
          "name": "askprice",
          "type": "uint256"
        },
        {
          "indexed": false,
          "name": "currency",
          "type": "bytes32"
        },
        {
          "indexed": false,
          "name": "qty",
          "type": "uint256"
        },
        {
          "indexed": false,
          "name": "status",
          "type": "bytes32"
        },
        {
          "indexed": false,
          "name": "executionDt",
          "type": "uint256"
        }
      ],
      "name": "tradeReport",
      "type": "event"
    },
    {
      "constant": false,
      "inputs": [
        {
          "name": "_viaFactory",
          "type": "address"
        },
        {
          "name": "_settlement",
          "type": "address"
        },
        {
          "name": "_registration",
          "type": "address"
        },
        {
          "name": "_orderpool",
          "type": "address"
        },
        {
          "name": "_poolfactory",
          "type": "address"
        }
      ],
      "name": "initialize",
      "outputs": [],
      "payable": false,
      "stateMutability": "nonpayable",
      "type": "function"
    },
    {
      "constant": false,
      "inputs": [
        {
          "components": [
            {
              "name": "transferor",
              "type": "address"
            },
            {
              "name": "transferee",
              "type": "address"
            },
            {
              "name": "security",
              "type": "address"
            },
            {
              "name": "price",
              "type": "uint256"
            },
            {
              "name": "askprice",
              "type": "uint256"
            },
            {
              "name": "currency",
              "type": "bytes32"
            },
            {
              "name": "order",
              "type": "bytes32"
            },
            {
              "name": "stype",
              "type": "bytes32"
            },
            {
              "name": "qty",
              "type": "uint256"
            },
            {
              "name": "dt",
              "type": "uint256"
            }
          ],
          "name": "newTrade",
          "type": "tuple"
        },
        {
          "name": "partyRef",
          "type": "bytes32"
        },
        {
          "name": "counterpartyRef",
          "type": "bytes32"
        }
      ],
      "name": "reportTrade",
      "outputs": [],
      "payable": false,
      "stateMutability": "nonpayable",
      "type": "function"
    },
    {
      "constant": true,
      "inputs": [
        {
          "name": "ref",
          "type": "bytes32"
        }
      ],
      "name": "getTrade",
      "outputs": [
        {
          "name": "b",
          "type": "uint256"
        },
        {
          "name": "a",
          "type": "uint256"
        }
      ],
      "payable": false,
      "stateMutability": "view",
      "type": "function"
    },
    {
      "constant": false,
      "inputs": [
        {
          "components": [
            {
              "name": "party",
              "type": "address"
            },
            {
              "name": "security",
              "type": "address"
            },
            {
              "name": "price",
              "type": "uint256"
            },
            {
              "name": "trigger",
              "type": "uint256"
            },
            {
              "name": "otype",
              "type": "bytes32"
            },
            {
              "name": "order",
              "type": "bytes32"
            },
            {
              "name": "status",
              "type": "bytes32"
            },
            {
              "name": "currency",
              "type": "bytes32"
            },
            {
              "name": "securityName",
              "type": "bytes32"
            },
            {
              "name": "qty",
              "type": "uint256"
            },
            {
              "name": "dt",
              "type": "uint256"
            }
          ],
          "name": "newOrder",
          "type": "tuple"
        },
        {
          "name": "ref",
          "type": "bytes32"
        }
      ],
      "name": "reportOrder",
      "outputs": [],
      "payable": false,
      "stateMutability": "nonpayable",
      "type": "function"
    },
    {
      "constant": true,
      "inputs": [
        {
          "name": "originator",
          "type": "bool"
        }
      ],
      "name": "getOrders",
      "outputs": [
        {
          "name": "",
          "type": "bytes32[]"
        }
      ],
      "payable": false,
      "stateMutability": "view",
      "type": "function"
    },
    {
      "constant": true,
      "inputs": [
        {
          "name": "ref",
          "type": "bytes32"
        }
      ],
      "name": "getOrder",
      "outputs": [
        {
          "components": [
            {
              "name": "party",
              "type": "address"
            },
            {
              "name": "security",
              "type": "address"
            },
            {
              "name": "price",
              "type": "uint256"
            },
            {
              "name": "trigger",
              "type": "uint256"
            },
            {
              "name": "otype",
              "type": "bytes32"
            },
            {
              "name": "order",
              "type": "bytes32"
            },
            {
              "name": "status",
              "type": "bytes32"
            },
            {
              "name": "currency",
              "type": "bytes32"
            },
            {
              "name": "securityName",
              "type": "bytes32"
            },
            {
              "name": "qty",
              "type": "uint256"
            },
            {
              "name": "dt",
              "type": "uint256"
            }
          ],
          "name": "",
          "type": "tuple"
        }
      ],
      "payable": false,
      "stateMutability": "view",
      "type": "function"
    },
    {
      "constant": false,
      "inputs": [
        {
          "components": [
            {
              "name": "party",
              "type": "address"
            },
            {
              "name": "security",
              "type": "address"
            },
            {
              "name": "price",
              "type": "uint256"
            },
            {
              "name": "trigger",
              "type": "uint256"
            },
            {
              "name": "otype",
              "type": "bytes32"
            },
            {
              "name": "order",
              "type": "bytes32"
            },
            {
              "name": "status",
              "type": "bytes32"
            },
            {
              "name": "currency",
              "type": "bytes32"
            },
            {
              "name": "securityName",
              "type": "bytes32"
            },
            {
              "name": "qty",
              "type": "uint256"
            },
            {
              "name": "dt",
              "type": "uint256"
            }
          ],
          "name": "currentOrder",
          "type": "tuple"
        },
        {
          "name": "ref",
          "type": "bytes32"
        }
      ],
      "name": "editOrder",
      "outputs": [],
      "payable": false,
      "stateMutability": "nonpayable",
      "type": "function"
    },
    {
      "constant": false,
      "inputs": [
        {
          "name": "_ref",
          "type": "bytes32"
        },
        {
          "name": "_status",
          "type": "bytes32"
        }
      ],
      "name": "cancelOrder",
      "outputs": [],
      "payable": false,
      "stateMutability": "nonpayable",
      "type": "function"
    },
    {
      "constant": false,
      "inputs": [
        {
          "name": "tradeRef",
          "type": "bytes32"
        }
      ],
      "name": "tradeSettled",
      "outputs": [],
      "payable": false,
      "stateMutability": "nonpayable",
      "type": "function"
    }
  ],
  "bytecode": "0x608060405234801561001057600080fd5b50612586806100206000396000f3fe608060405234801561001057600080fd5b50600436106100935760003560e01c8063a47d9d3311610066578063a47d9d331461010a578063b0aeacc61461011d578063c89e9b481461013d578063ca385a9314610150578063e1d2a01c1461016357610093565b80631459457a146100985780634218354e146100ad5780635778472a146100c0578063a3b13799146100e9575b600080fd5b6100ab6100a6366004611bb1565b610176565b005b6100ab6100bb366004611ca4565b610260565b6100d36100ce366004611ca4565b6102da565b6040516100e09190612458565b60405180910390f35b6100fc6100f7366004611ca4565b610387565b6040516100e092919061232b565b6100ab610118366004611ce0565b6105d6565b61013061012b366004611c60565b61072a565b6040516100e0919061224b565b6100ab61014b366004611d92565b61089c565b6100ab61015e366004611dc4565b610c7c565b6100ab610171366004611d92565b61185a565b600054610100900460ff168061018f575061018f6119ae565b8061019d575060005460ff16155b6101c557604051600160e51b62461bcd0281526004016101bc90612448565b60405180910390fd5b600054610100900460ff161580156101f0576000805460ff1961ff0019909116610100171660011790555b603780546001600160a01b03199081166001600160a01b0388811691909117909255603880548216878416179055603980548216868416179055603a80548216858416179055603b80549091169188169190911790558015610258576000805461ff00191690555b505050505050565b6037546001600160a01b0316331461027757600080fd5b600090815260356020526040812080546001600160a01b0319908116825560018201805482169055600282018054909116905560038101829055600481018290556005810182905560068101829055600781018290556008810182905560090155565b6102e26119fa565b6102ea6119fa565b5050604080516101608101825260008381526033602081815284832080546001600160a01b039081168652600182015416828601526002810154958501959095526003850154606085015260048501546080850152600585015460a0850152600685015460c0850152600785015460e08501526008850154610100850152600985015461012085015294909152909252600a015461014082015290565b60008181526033602052604081205481906001600160a01b031633146103ac57600080fd5b600080805b6036548310156105cb57600086815260336020526040812060010154603680546001600160a01b0390921692603592909190879081106103ed57fe5b600091825260208083209091015483528201929092526040019020600201546001600160a01b03161480156104575750603560006036858154811061042e57fe5b9060005260206000200154815260200190815260200160002060060154600160e81b6242757902145b156104bd57603560006036858154811061046d57fe5b90600052602060002001548152602001908152602001600020600301549150603560006036858154811061049d57fe5b906000526020600020015481526020019081526020016000206004015490505b600086815260336020526040812060010154603680546001600160a01b0390921692603592909190879081106104ef57fe5b600091825260208083209091015483528201929092526040019020600201546001600160a01b031614801561055a5750603560006036858154811061053057fe5b9060005260206000200154815260200190815260200160002060060154600160e21b6314d95b1b02145b156105c057603560006036858154811061057057fe5b9060005260206000200154815260200190815260200160002060030154905060356000603685815481106105a057fe5b906000526020600020015481526020019081526020016000206004015491505b6001909201916103b1565b909350915050915091565b603a54604051600160e01b63ab986ddf0281526001600160a01b039091169063ab986ddf90610609903390600401612215565b60206040518083038186803b15801561062157600080fd5b505afa158015610635573d6000803e3d6000fd5b505050506040513d601f19601f820116820180604052506106599190810190611c86565b151560011461066757600080fd5b6000828152603360205260409020546001600160a01b0316156107265760008281526033602052604080822080546001600160a01b0319908116825560018201805490911690556002810183905560038101839055600481018390556005810183905560068101839055600781018390556008810183905560098101839055600a01829055517f07590eb3865798c48e7cb896d58a590640f2438221362eeca15da9a147490bb59161071d91859190859061226a565b60405180910390a15b5050565b60345460408051828152602080840282010190915260609190829082801561075c578160200160208202803883390190505b5090506000808515610800575060005b6034548110156107fb57336001600160a01b0316603360006034848154811061079157fe5b600091825260208083209091015483528201929092526040019020546001600160a01b031614156107f357603481815481106107c957fe5b90600052602060002001548383815181106107e057fe5b6020026020010181815250508160010191505b60010161076c565b610892565b5060005b60345481101561089257336001600160a01b0316603360006034848154811061082957fe5b600091825260208083209091015483528201929092526040019020546001600160a01b03161461088a576034818154811061086057fe5b906000526020600020015483838151811061087757fe5b6020026020010181815250508160010191505b600101610804565b5090949350505050565b603a54604051600160e01b63ab986ddf0281526001600160a01b039091169063ab986ddf906108cf903390600401612215565b60206040518083038186803b1580156108e757600080fd5b505afa1580156108fb573d6000803e3d6000fd5b505050506040513d601f19601f8201168201806040525061091f9190810190611c86565b151560011461092d57600080fd5b6000818152603360205260409020546001600160a01b031661072657603481908060018154018082558091505090600182039060005260206000200160009091929091909150555081600001356001600160a01b03166033600083815260200190815260200160002060000160006101000a8154816001600160a01b0302191690836001600160a01b03160217905550816040013560336000838152602001908152602001600020600201819055508160600135603360008381526020019081526020016000206003018190555081610120013560336000838152602001908152602001600020600901819055508160a0013560336000838152602001908152602001600020600501819055508160800135603360008381526020019081526020016000206004018190555081610140013560336000838152602001908152602001600020600a01819055508160c0013560336000838152602001908152602001600020600601819055508160e001356033600083815260200190815260200160002060070181905550816101000135603360008381526020019081526020016000206008018190555081602001356001600160a01b03166033600083815260200190815260200160002060010160006101000a8154816001600160a01b0302191690836001600160a01b031602179055507f33d731cba19b8b86af05e2f68c5f07c28cacb1794b172b59c2dd4f43f4dd7958816033600084815260200190815260200160002060000160009054906101000a90046001600160a01b031660336000858152602001908152602001600020600201546033600086815260200190815260200160002060030154603360008781526020019081526020016000206009015460336000888152602001908152602001600020600501546033600089815260200190815260200160002060040154603360008a8152602001908152602001600020600a0154603360008b815260200190815260200160002060060154603360008c815260200190815260200160002060070154603360008d815260200190815260200160002060080154603360008e815260200190815260200160002060010160009054906101000a90046001600160a01b031660405161071d9c9b9a99989796959493929190612278565b603a54604051600160e01b63ab986ddf0281526001600160a01b039091169063ab986ddf90610caf903390600401612215565b60206040518083038186803b158015610cc757600080fd5b505afa158015610cdb573d6000803e3d6000fd5b505050506040513d601f19601f82011682018060405250610cff9190810190611c86565b1515600114610d0d57600080fd5b60008282604051602001610d229291906121e1565b604051602081830303815290604052805190602001209050603681908060018154018082558091505090600182039060005260206000200160009091929091909150555060405180610140016040528085600001356001600160a01b03166001600160a01b0316815260200185602001356001600160a01b03166001600160a01b0316815260200185604001356001600160a01b03166001600160a01b0316815260200185606001358152602001856080013581526020018560a0013581526020018560c0013581526020018560e00135815260200185610100013581526020018561012001358152506035600083815260200190815260200160002060008201518160000160006101000a8154816001600160a01b0302191690836001600160a01b0316021790555060208201518160010160006101000a8154816001600160a01b0302191690836001600160a01b0316021790555060408201518160020160006101000a8154816001600160a01b0302191690836001600160a01b03160217905550606082015181600301556080820151816004015560a0820151816005015560c0820151816006015560e08201518160070155610100820151816008015561012082015181600901559050506000806000603860009054906101000a90046001600160a01b03166001600160a01b0316634a161b2788604001356001600160a01b03166040518263ffffffff1660e01b8152600401610f449190612207565b60606040518083038186803b158015610f5c57600080fd5b505afa158015610f70573d6000803e3d6000fd5b505050506040513d601f19601f82011682018060405250610f949190810190611d10565b92509250925060004290507fcec40b23a345717720ee8c6dc5820401ed93dcdd02c8599c4e407f40b2f449ae878786868c606001358d608001358e60a001358f610100013589604051610fef99989796959493929190612346565b60405180910390a18760e00135600160f41b61044502141561136157603854604051600160e01b63e0a87de10281526000916001600160a01b039081169163e0a87de1916110489160208e013590911690600401612207565b60206040518083038186803b15801561106057600080fd5b505afa158015611074573d6000803e3d6000fd5b505050506040513d601f19601f820116820180604052506110989190810190611cc2565b603854604051600160e01b63e0a87de10281529192506000916001600160a01b039182169163e0a87de1916110d3918e351690600401612207565b60206040518083038186803b1580156110eb57600080fd5b505afa1580156110ff573d6000803e3d6000fd5b505050506040513d601f19601f820116820180604052506111239190810190611cc2565b905061112d611a56565b60408051610220810182526001600160a01b038d35811682526020808f01358216818401528e84013582168385015260008c81526035909152838120600201548451600160e01b6306fdde0302815294519394606086019491909316926306fdde03926004808301939192829003018186803b1580156111ac57600080fd5b505afa1580156111c0573d6000803e3d6000fd5b505050506040513d6000823e601f3d908101601f191682016040526111e89190810190611d5d565b604051600160e31b6319f6a32502815273__stringutils___________________________9163cfb51928916112219190600401612427565b60206040518083038186803b15801561123957600080fd5b505af415801561124d573d6000803e3d6000fd5b505050506040513d601f19601f820116820180604052506112719190810190611cc2565b8152602001600160c81b6650656e64696e670281526020018381526020018481526020018881526020018781526020018c60a0013581526020018c6060013581526020016112c88d606001358e61010001356119b4565b81526101008d013560208201526040808201879052336060830152608082018d905260a09091018b90526037549051600160e21b6302a616a90281529192506001600160a01b031690630a985aa4906113279084908c90600401612467565b600060405180830381600087803b15801561134157600080fd5b505af1158015611355573d6000803e3d6000fd5b50505050505050611850565b8760e00135600160ec1b6205354502141561185057603b54604051600160e21b632e5ac8010281526000916001600160a01b03169063b96b2004906113ae9060a08d01359060040161225c565b604080518083038186803b1580156113c557600080fd5b505afa1580156113d9573d6000803e3d6000fd5b505050506040513d601f19601f820116820180604052506113fd9190810190611c26565b509050806001600160a01b03166323b872dd8a602001356001600160a01b03168b600001356001600160a01b031661143e8d606001358e61010001356119b4565b6040518463ffffffff1660e01b815260040161145c93929190612223565b602060405180830381600087803b15801561147657600080fd5b505af115801561148a573d6000803e3d6000fd5b505050506040513d601f19601f820116820180604052506114ae9190810190611c86565b1561184e576000836001600160a01b03166323b872dd8b600001356001600160a01b03168c602001356001600160a01b03168d61010001356040518463ffffffff1660e01b815260040161150493929190612223565b602060405180830381600087803b15801561151e57600080fd5b505af1158015611532573d6000803e3d6000fd5b505050506040513d601f19601f820116820180604052506115569190810190611c86565b9050806116cd57604051600160e71b623e08090281523390631f04048090611589908c906101008f013590600401612400565b600060405180830381600087803b1580156115a357600080fd5b505af11580156115b7573d6000803e3d6000fd5b5050604051600160e71b623e0809028152339250631f04048091506115e7908b906101008f0135906004016123d9565b600060405180830381600087803b15801561160157600080fd5b505af1158015611615573d6000803e3d6000fd5b50505050816001600160a01b03166323b872dd8b600001356001600160a01b03168c602001356001600160a01b03166116578e606001358f61010001356119b4565b6040518463ffffffff1660e01b815260040161167593929190612223565b602060405180830381600087803b15801561168f57600080fd5b505af11580156116a3573d6000803e3d6000fd5b505050506040513d601f19601f820116820180604052506116c79190810190611c86565b5061184c565b604051600160e11b6309e722a302815233906313ce4546906116f5908c908c9060040161232b565b600060405180830381600087803b15801561170f57600080fd5b505af1158015611723573d6000803e3d6000fd5b50505050603360008a8152602001908152602001600020600080820160006101000a8154906001600160a01b0302191690556001820160006101000a8154906001600160a01b03021916905560028201600090556003820160009055600482016000905560058201600090556006820160009055600782016000905560088201600090556009820160009055600a820160009055505060336000898152602001908152602001600020600080820160006101000a8154906001600160a01b0302191690556001820160006101000a8154906001600160a01b03021916905560028201600090556003820160009055600482016000905560058201600090556006820160009055600782016000905560088201600090556009820160009055600a82016000905550505b505b505b5050505050505050565b603a54604051600160e01b63ab986ddf0281526001600160a01b039091169063ab986ddf9061188d903390600401612215565b60206040518083038186803b1580156118a557600080fd5b505afa1580156118b9573d6000803e3d6000fd5b505050506040513d601f19601f820116820180604052506118dd9190810190611c86565b15156001146118eb57600080fd5b6000818152603360205260409020546001600160a01b0316156107265760008181526033602090815260409182902080546001600160a01b03199081166001600160a01b038735811691909117835593860135600283015560608601356003830155610120860135600983015560a0860135600583015560808601356004830155610140860135600a83015560c0860135600683015560e08601356007830155610100860135600883015560019091018054909116918501359092161790555050565b303b1590565b6000826119c3575060006119f4565b828202828482816119d057fe5b04146119f157604051600160e51b62461bcd0281526004016101bc90612438565b90505b92915050565b6040805161016081018252600080825260208201819052918101829052606081018290526080810182905260a0810182905260c0810182905260e081018290526101008101829052610120810182905261014081019190915290565b6040805161022081018252600080825260208201819052918101829052606081018290526080810182905260a0810182905260c0810182905260e08101829052610100810182905261012081018290526101408101829052610160810182905261018081018290526101a081018290526101c081018290526101e0810182905261020081019190915290565b6000611aee82356124e6565b9392505050565b6000611aee82516124e6565b6000611aee8235612500565b6000611aee8251612500565b6000611aee82356124f1565b6000611aee82516124f1565b600082601f830112611b4257600080fd5b8151611b55611b50826124ab565b612484565b91508082526020830160208301858383011115611b7157600080fd5b611b7c838284612516565b50505092915050565b60006101608284031215611b9857600080fd5b50919050565b60006101408284031215611b9857600080fd5b600080600080600060a08688031215611bc957600080fd5b6000611bd58888611ae2565b9550506020611be688828901611ae2565b9450506040611bf788828901611ae2565b9350506060611c0888828901611ae2565b9250506080611c1988828901611ae2565b9150509295509295909350565b60008060408385031215611c3957600080fd5b6000611c458585611af5565b9250506020611c5685828601611b25565b9150509250929050565b600060208284031215611c7257600080fd5b6000611c7e8484611b01565b949350505050565b600060208284031215611c9857600080fd5b6000611c7e8484611b0d565b600060208284031215611cb657600080fd5b6000611c7e8484611b19565b600060208284031215611cd457600080fd5b6000611c7e8484611b25565b60008060408385031215611cf357600080fd5b6000611cff8585611b19565b9250506020611c5685828601611b19565b600080600060608486031215611d2557600080fd5b6000611d318686611b25565b9350506020611d4286828701611b25565b9250506040611d5386828701611af5565b9150509250925092565b600060208284031215611d6f57600080fd5b815167ffffffffffffffff811115611d8657600080fd5b611c7e84828501611b31565b6000806101808385031215611da657600080fd5b6000611db28585611b85565b925050610160611c5685828601611b19565b60008060006101808486031215611dda57600080fd5b6000611de68686611b9e565b935050610140611df886828701611b19565b925050610160611d5386828701611b19565b6000611e168383611e8b565b505060200190565b611e2781612505565b82525050565b611e27816124e6565b6000611e41826124d9565b611e4b81856124dd565b9350611e56836124d3565b60005b82811015611e8157611e6c868351611e0a565b9550611e77826124d3565b9150600101611e59565b5093949350505050565b611e27816124f1565b611e27611ea0826124f1565b6124f1565b6000611eb0826124d9565b611eba81856124dd565b9350611eca818560208601612516565b611ed381612542565b9093019392505050565b600160c81b6650656e64696e67029052565b600160e81b62627579029052565b6000611f0a6021836124dd565b7f536166654d6174683a206d756c7469706c69636174696f6e206f766572666c6f8152600160f81b607702602082015260400192915050565b6000611f50602e836124dd565b7f436f6e747261637420696e7374616e63652068617320616c726561647920626581527f656e20696e697469616c697a6564000000000000000000000000000000000000602082015260400192915050565b600160e21b631cd95b1b029052565b8051610160830190611fc38482611e2d565b506020820151611fd66020850182611e2d565b506040820151611fe96040850182611e8b565b506060820151611ffc6060850182611e8b565b50608082015161200f6080850182611e8b565b5060a082015161202260a0850182611e8b565b5060c082015161203560c0850182611e8b565b5060e082015161204860e0850182611e8b565b5061010082015161205d610100850182611e8b565b50610120820151612072610120850182611e8b565b50610140820151612087610140850182611e8b565b50505050565b805161022083019061209f8482611e2d565b5060208201516120b26020850182611e2d565b5060408201516120c56040850182611e2d565b5060608201516120d86060850182611e8b565b5060808201516120eb6080850182611e8b565b5060a08201516120fe60a0850182611e8b565b5060c082015161211160c0850182611e8b565b5060e082015161212460e0850182611e8b565b50610100820151612139610100850182611e8b565b5061012082015161214e610120850182611e8b565b50610140820151612163610140850182611e8b565b50610160820151612178610160850182611e8b565b5061018082015161218d610180850182611e8b565b506101a08201516121a26101a0850182611e8b565b506101c08201516121b76101c0850182611e2d565b506101e08201516121cc6101e0850182611e8b565b50610200820151612087610200850182611e8b565b60006121ed8285611e94565b6020820191506121fd8284611e94565b5060200192915050565b602081016119f48284611e2d565b602081016119f48284611e1e565b606081016122318286611e2d565b61223e6020830185611e2d565b611c7e6040830184611e8b565b60208082528101611aee8184611e36565b602081016119f48284611e8b565b606081016122318286611e8b565b6101808101612287828f611e8b565b612294602083018e611e2d565b6122a1604083018d611e8b565b6122ae606083018c611e8b565b6122bb608083018b611e8b565b6122c860a083018a611e8b565b6122d560c0830189611e8b565b6122e260e0830188611e8b565b6122f0610100830187611e8b565b6122fe610120830186611e8b565b61230c610140830185611e8b565b61231a610160830184611e2d565b9d9c50505050505050505050505050565b604081016123398285611e8b565b611aee6020830184611e8b565b6101408101612355828c611e8b565b612362602083018b611e8b565b61236f604083018a611e8b565b61237c6060830189611e8b565b6123896080830188611e8b565b61239660a0830187611e8b565b6123a360c0830186611e8b565b6123b060e0830185611e8b565b6123bd6101008301611edd565b6123cb610120830184611e8b565b9a9950505050505050505050565b606081016123e78285611e8b565b6123f46020830184611e8b565b611aee60408301611eef565b6060810161240e8285611e8b565b61241b6020830184611e8b565b611aee60408301611fa2565b60208082528101611aee8184611ea5565b602080825281016119f481611efd565b602080825281016119f481611f43565b61016081016119f48284611fb1565b6102408101612476828561208d565b611aee610220830184611e8b565b60405181810167ffffffffffffffff811182821017156124a357600080fd5b604052919050565b600067ffffffffffffffff8211156124c257600080fd5b506020601f91909101601f19160190565b60200190565b5190565b90815260200190565b60006119f4826124f4565b90565b6001600160a01b031690565b151590565b60006119f48260006119f4826124e6565b60005b83811015612531578181015183820152602001612519565b838111156120875750506000910152565b601f01601f19169056fea265627a7a72305820774fcebced4219e1b4c9962c929fdb78a27799c4ed6a366b29a717394e7610c46c6578706572696d656e74616cf50037",
  "source": "// Routing new orders\r\n// (c) Kallol Borah, 2021\r\n\r\npragma solidity 0.5.7;\r\npragma experimental ABIEncoderV2;\r\n \r\nimport \"./registry/Security.sol\";\r\nimport \"./interfaces/ITrade.sol\";\r\nimport \"./interfaces/IPreTrade.sol\";\r\nimport \"./interfaces/IPostTrade.sol\";\r\nimport \"./interfaces/IOrderPool.sol\";\r\nimport \"./interfaces/IPoolFactory.sol\";\r\nimport \"./interfaces/ViaCash.sol\";\r\nimport \"./interfaces/ViaFactory.sol\";\r\nimport \"./utilities/StringUtils.sol\";\r\nimport \"abdk-libraries-solidity/ABDKMathQuad.sol\";\r\nimport \"@openzeppelin/upgrades/contracts/Initializable.sol\";\r\nimport \"@openzeppelin/contracts-ethereum-package/contracts/math/SafeMath.sol\";\r\n\r\ncontract Trade is ITrade, Initializable {\r\n\r\n    using ABDKMathQuad for uint256;\r\n    using ABDKMathQuad for int256;\r\n    using ABDKMathQuad for bytes16;\r\n\r\n    using stringutils for *;\r\n\r\n    using SafeMath for uint256;\r\n\r\n    mapping(bytes32 => ITrade.order) private orders;\r\n\r\n    bytes32[] orderRefs;\r\n\r\n    mapping(bytes32 => ITrade.trade) private trades;\r\n\r\n    bytes32[] tradeRefs;\r\n\r\n    address settlement;\r\n    address registration;\r\n    address orderpool;\r\n    address poolfactory;\r\n    ViaFactory private via;\r\n\r\n    event orderNew(\r\n                bytes32 ref,\r\n                address party,\r\n                uint256 price,\r\n                uint256 trigger,\r\n                uint256 qty,\r\n                bytes32 order, \r\n                bytes32 otype,\r\n                uint256 dt,\r\n                bytes32 status,\r\n                bytes32 currency,\r\n                bytes32 securityName,\r\n                address security\r\n            );\r\n\r\n    event orderCancel(bytes32 orderRef, address party, bytes32 status);\r\n\r\n    event tradeReport(\r\n                    bytes32 partyRef, \r\n                    bytes32 counterpartyRef, \r\n                    bytes32 isin,\r\n                    bytes32 company,\r\n                    uint256 price,\r\n                    uint256 askprice, \r\n                    bytes32 currency, \r\n                    uint256 qty, \r\n                    bytes32 status,\r\n                    uint256 executionDt\r\n                );\r\n\r\n    function initialize(address _viaFactory, address _settlement, address _registration, address _orderpool, address _poolfactory) public initializer{\r\n        settlement = _settlement;\r\n        registration = _registration;\r\n        orderpool = _orderpool;\r\n        poolfactory = _poolfactory;\r\n        via = ViaFactory(_viaFactory);\r\n    }\r\n\r\n    function reportTrade(ITrade.trade calldata newTrade, bytes32 partyRef, bytes32 counterpartyRef) external {\r\n        require(IPoolFactory(poolfactory).confirmPool(msg.sender)==true);\r\n        bytes32 _tradeRef = keccak256(abi.encodePacked(partyRef, counterpartyRef));\r\n        tradeRefs.push(_tradeRef);\r\n        trades[_tradeRef]=trade(newTrade.transferor, \r\n                                newTrade.transferee, \r\n                                newTrade.security,\r\n                                newTrade.price,\r\n                                newTrade.askprice, \r\n                                newTrade.currency, \r\n                                newTrade.order,\r\n                                newTrade.stype,\r\n                                newTrade.qty, \r\n                                newTrade.dt);   \r\n        (bytes32 _isin, bytes32 _company, address _token) = IPreTrade(registration).getSecurity(newTrade.security);\r\n        uint256 _executionDt = now;\r\n        emit tradeReport(partyRef, \r\n                        counterpartyRef, \r\n                        _isin,\r\n                        _company,\r\n                        newTrade.price,\r\n                        newTrade.askprice, \r\n                        newTrade.currency, \r\n                        newTrade.qty, \r\n                        \"Pending\",\r\n                        _executionDt);   \r\n        if(newTrade.stype==\"DP\"){\r\n            bytes32 _transfereeDPID = IPreTrade(registration).getDP(newTrade.transferee);\r\n            bytes32 _transferorDPID = IPreTrade(registration).getDP(newTrade.transferor);\r\n            IPostTrade.settlement memory tradeToSettle = IPostTrade.settlement({\r\n                transferor : newTrade.transferor,\r\n                transferee : newTrade.transferee,\r\n                security : newTrade.security,\r\n                securityName : Security(trades[_tradeRef].security).name().stringToBytes32(),\r\n                status : \"Pending\",\r\n                transferorDPID : _transferorDPID,\r\n                transfereeDPID : _transfereeDPID,\r\n                isin : _isin,\r\n                company : _company,\r\n                currency : newTrade.currency,\r\n                price : newTrade.price,\r\n                consideration : SafeMath.mul(newTrade.price, newTrade.qty),\r\n                unitsToTransfer : newTrade.qty,\r\n                executionDate : _executionDt,\r\n                orderPool : msg.sender,\r\n                partyRef : partyRef,\r\n                counterpartyRef : counterpartyRef\r\n            });            \r\n            IPostTrade(settlement).postSettlement(tradeToSettle, _tradeRef);\r\n        }\r\n        else if(newTrade.stype==\"STP\"){\r\n            (address cashToken, ) = via.getAddressAndType(newTrade.currency);\r\n            if(ViaCash(cashToken).transferFrom(newTrade.transferee, newTrade.transferor, SafeMath.mul(newTrade.price, newTrade.qty))){\r\n                bool success = Security(_token).transferFrom(newTrade.transferor, newTrade.transferee, newTrade.qty);\r\n                if(!success){\r\n                    IOrderPool(msg.sender).revertTrade(partyRef, newTrade.qty, \"sell\");\r\n                    IOrderPool(msg.sender).revertTrade(counterpartyRef, newTrade.qty, \"buy\");\r\n                    ViaCash(cashToken).transferFrom(newTrade.transferor, newTrade.transferee, SafeMath.mul(newTrade.price, newTrade.qty));\r\n                }\r\n                else{\r\n                    IOrderPool(msg.sender).orderFilled(partyRef, counterpartyRef);\r\n                    delete orders[partyRef];\r\n                    delete orders[counterpartyRef];\r\n                }\r\n            }\r\n        }\r\n    }\r\n\r\n    //returns bid, ask, last change corresponding to passed order ref\r\n    function getTrade(bytes32 ref) external view returns(uint256 b, uint256 a){\r\n        require(orders[ref].party==msg.sender);\r\n        uint i;\r\n        uint256 bid=0;\r\n        uint256 ask=0;\r\n        for(i=0; i<tradeRefs.length; i++){\r\n            if(trades[tradeRefs[i]].security==orders[ref].security && trades[tradeRefs[i]].order==\"Buy\"){\r\n                bid = trades[tradeRefs[i]].price;\r\n                ask = trades[tradeRefs[i]].askprice;\r\n            }\r\n            if(trades[tradeRefs[i]].security==orders[ref].security && trades[tradeRefs[i]].order==\"Sell\"){\r\n                ask = trades[tradeRefs[i]].price;\r\n                bid = trades[tradeRefs[i]].askprice;\r\n            }\r\n        }\r\n        return (bid, ask);\r\n    }\r\n\r\n    function reportOrder(ITrade.order calldata newOrder, bytes32 ref) external {\r\n        require(IPoolFactory(poolfactory).confirmPool(msg.sender)==true);\r\n        if(orders[ref].party==address(0x0)){\r\n            orderRefs.push(ref);\r\n            orders[ref].party = newOrder.party;\r\n            orders[ref].price = newOrder.price;\r\n            orders[ref].trigger = newOrder.trigger;\r\n            orders[ref].qty = newOrder.qty;\r\n            orders[ref].order = newOrder.order; \r\n            orders[ref].otype = newOrder.otype;\r\n            orders[ref].dt = newOrder.dt;\r\n            orders[ref].status = newOrder.status;\r\n            orders[ref].currency = newOrder.currency;\r\n            orders[ref].securityName = newOrder.securityName;\r\n            orders[ref].security = newOrder.security;\r\n            emit orderNew(\r\n                ref,\r\n                orders[ref].party,\r\n                orders[ref].price,\r\n                orders[ref].trigger,\r\n                orders[ref].qty,\r\n                orders[ref].order, \r\n                orders[ref].otype,\r\n                orders[ref].dt,\r\n                orders[ref].status,\r\n                orders[ref].currency,\r\n                orders[ref].securityName,\r\n                orders[ref].security\r\n            );\r\n        }\r\n    }\r\n\r\n    function getOrders(bool originator) external view returns(bytes32[] memory){\r\n        uint entries = orderRefs.length;\r\n        bytes32[] memory result = new bytes32[](entries);\r\n        uint entry=0;\r\n        uint i;\r\n        if(originator){\r\n            for(i=0; i<orderRefs.length; i++){\r\n                if(orders[orderRefs[i]].party==msg.sender){\r\n                    result[entry]=orderRefs[i];\r\n                    entry=entry+1;\r\n                }\r\n            }\r\n        }\r\n        else{\r\n            for(i=0; i<orderRefs.length; i++){\r\n                if(orders[orderRefs[i]].party!=msg.sender){\r\n                    result[entry]=orderRefs[i];\r\n                    entry=entry+1;\r\n                }\r\n            }\r\n        }\r\n        return result;\r\n    }\r\n\r\n    function getOrder(bytes32 ref) external view returns(ITrade.order memory){\r\n        ITrade.order memory response = ITrade.order({\r\n            party : orders[ref].party,\r\n            security : orders[ref].security,\r\n            price : orders[ref].price,\r\n            trigger : orders[ref].trigger, \r\n            otype : orders[ref].otype,\r\n            order : orders[ref].order,\r\n            status : orders[ref].status,\r\n            currency : orders[ref].currency,\r\n            securityName : orders[ref].securityName,\r\n            qty : orders[ref].qty,\r\n            dt : orders[ref].dt\r\n        });\r\n        return(response);\r\n    }   \r\n\r\n    function editOrder(ITrade.order calldata currentOrder, bytes32 ref) external{\r\n        require(IPoolFactory(poolfactory).confirmPool(msg.sender)==true);\r\n        if(orders[ref].party!=address(0x0)){\r\n            orders[ref].party = currentOrder.party;\r\n            orders[ref].price = currentOrder.price;\r\n            orders[ref].trigger = currentOrder.trigger;\r\n            orders[ref].qty = currentOrder.qty;\r\n            orders[ref].order = currentOrder.order; \r\n            orders[ref].otype = currentOrder.otype;\r\n            orders[ref].dt = currentOrder.dt;\r\n            orders[ref].status = currentOrder.status;\r\n            orders[ref].currency = currentOrder.currency;\r\n            orders[ref].securityName = currentOrder.securityName;\r\n            orders[ref].security = currentOrder.security;\r\n        }\r\n    }\r\n\r\n    function cancelOrder(bytes32 _ref, bytes32 _status) external{\r\n        require(IPoolFactory(poolfactory).confirmPool(msg.sender)==true);\r\n        if(orders[_ref].party!=address(0x0)){\r\n            orders[_ref].status = _status;\r\n            delete orders[_ref];\r\n            emit orderCancel(_ref, orders[_ref].party, _status);\r\n        }\r\n    }\r\n\r\n    function tradeSettled(bytes32 tradeRef) external {\r\n        require(settlement==msg.sender);\r\n        delete trades[tradeRef];\r\n    }\r\n    \r\n}",
  "sourcePath": "D:\\Code\\verified-trades\\contracts\\Trade.sol",
  "compiler": {
    "name": "solc",
    "version": "0.5.7+commit.6da8b019.Emscripten.clang"
  },
  "schemaVersion": "3.4.3",
  "updatedAt": "2021-12-15T15:18:23.514Z",
  "networkType": "ethereum",
  "devdoc": {
    "methods": {}
  },
  "userdoc": {
    "methods": {}
  }
}