{
  "contractName": "MarketMaker",
  "abi": [
    {
      "anonymous": false,
      "inputs": [
        {
          "indexed": true,
          "internalType": "address",
          "name": "previousOwner",
          "type": "address"
        },
        {
          "indexed": true,
          "internalType": "address",
          "name": "newOwner",
          "type": "address"
        }
      ],
      "name": "OwnershipTransferred",
      "type": "event"
    },
    {
      "inputs": [],
      "name": "factory",
      "outputs": [
        {
          "internalType": "contract IPrimaryIssuePoolFactory",
          "name": "",
          "type": "address"
        }
      ],
      "stateMutability": "view",
      "type": "function"
    },
    {
      "inputs": [],
      "name": "owner",
      "outputs": [
        {
          "internalType": "address",
          "name": "",
          "type": "address"
        }
      ],
      "stateMutability": "view",
      "type": "function"
    },
    {
      "inputs": [],
      "name": "renounceOwnership",
      "outputs": [],
      "stateMutability": "nonpayable",
      "type": "function"
    },
    {
      "inputs": [
        {
          "internalType": "address",
          "name": "newOwner",
          "type": "address"
        }
      ],
      "name": "transferOwnership",
      "outputs": [],
      "stateMutability": "nonpayable",
      "type": "function"
    },
    {
      "inputs": [
        {
          "internalType": "address",
          "name": "_factory",
          "type": "address"
        },
        {
          "internalType": "uint256",
          "name": "_swapFeePercentage",
          "type": "uint256"
        },
        {
          "internalType": "address",
          "name": "_vault",
          "type": "address"
        },
        {
          "internalType": "address",
          "name": "_products",
          "type": "address"
        }
      ],
      "name": "initialize",
      "outputs": [],
      "stateMutability": "nonpayable",
      "type": "function"
    },
    {
      "inputs": [
        {
          "internalType": "bytes32",
          "name": "name",
          "type": "bytes32"
        },
        {
          "internalType": "address",
          "name": "custody",
          "type": "address"
        },
        {
          "internalType": "bytes32",
          "name": "broker",
          "type": "bytes32"
        }
      ],
      "name": "addBroker",
      "outputs": [],
      "stateMutability": "nonpayable",
      "type": "function"
    },
    {
      "inputs": [],
      "name": "setRelayer",
      "outputs": [],
      "stateMutability": "nonpayable",
      "type": "function"
    },
    {
      "inputs": [
        {
          "internalType": "address",
          "name": "owned",
          "type": "address"
        },
        {
          "internalType": "bytes32",
          "name": "isin",
          "type": "bytes32"
        },
        {
          "internalType": "uint256",
          "name": "offered",
          "type": "uint256"
        },
        {
          "internalType": "address",
          "name": "tomatch",
          "type": "address"
        },
        {
          "internalType": "uint256",
          "name": "desired",
          "type": "uint256"
        },
        {
          "internalType": "uint256",
          "name": "min",
          "type": "uint256"
        }
      ],
      "name": "make",
      "outputs": [],
      "stateMutability": "nonpayable",
      "type": "function"
    },
    {
      "inputs": [
        {
          "internalType": "address",
          "name": "security",
          "type": "address"
        },
        {
          "internalType": "uint256",
          "name": "cutoffTime",
          "type": "uint256"
        }
      ],
      "name": "issue",
      "outputs": [],
      "stateMutability": "nonpayable",
      "type": "function"
    },
    {
      "inputs": [
        {
          "internalType": "bytes32",
          "name": "poolId",
          "type": "bytes32"
        },
        {
          "internalType": "address",
          "name": "security",
          "type": "address"
        },
        {
          "internalType": "address",
          "name": "assetIn",
          "type": "address"
        },
        {
          "internalType": "bytes32",
          "name": "assetName",
          "type": "bytes32"
        },
        {
          "internalType": "uint256",
          "name": "amount",
          "type": "uint256"
        },
        {
          "internalType": "address",
          "name": "investor",
          "type": "address"
        },
        {
          "internalType": "uint256",
          "name": "price",
          "type": "uint256"
        }
      ],
      "name": "subscribe",
      "outputs": [],
      "stateMutability": "nonpayable",
      "type": "function"
    },
    {
      "inputs": [
        {
          "internalType": "bytes32",
          "name": "poolId",
          "type": "bytes32"
        }
      ],
      "name": "getSubscribers",
      "outputs": [
        {
          "components": [
            {
              "internalType": "address",
              "name": "investor",
              "type": "address"
            },
            {
              "internalType": "address",
              "name": "asset",
              "type": "address"
            },
            {
              "internalType": "bytes32",
              "name": "name",
              "type": "bytes32"
            },
            {
              "internalType": "uint256",
              "name": "amount",
              "type": "uint256"
            },
            {
              "internalType": "uint256",
              "name": "price",
              "type": "uint256"
            }
          ],
          "internalType": "struct IMarketMaker.subscriptions[]",
          "name": "",
          "type": "tuple[]"
        }
      ],
      "stateMutability": "view",
      "type": "function"
    },
    {
      "inputs": [
        {
          "internalType": "address",
          "name": "security",
          "type": "address"
        }
      ],
      "name": "close",
      "outputs": [
        {
          "internalType": "bytes32[]",
          "name": "",
          "type": "bytes32[]"
        }
      ],
      "stateMutability": "view",
      "type": "function"
    },
    {
      "inputs": [
        {
          "internalType": "bytes32",
          "name": "poolid",
          "type": "bytes32"
        },
        {
          "internalType": "address",
          "name": "investor",
          "type": "address"
        },
        {
          "internalType": "uint256",
          "name": "amnt",
          "type": "uint256"
        },
        {
          "internalType": "address",
          "name": "asset",
          "type": "address"
        }
      ],
      "name": "accept",
      "outputs": [],
      "stateMutability": "nonpayable",
      "type": "function"
    },
    {
      "inputs": [
        {
          "internalType": "bytes32",
          "name": "poolid",
          "type": "bytes32"
        },
        {
          "internalType": "address",
          "name": "investor",
          "type": "address"
        }
      ],
      "name": "reject",
      "outputs": [],
      "stateMutability": "nonpayable",
      "type": "function"
    },
    {
      "inputs": [
        {
          "internalType": "address",
          "name": "security",
          "type": "address"
        },
        {
          "internalType": "uint256",
          "name": "amount",
          "type": "uint256"
        }
      ],
      "name": "withdraw",
      "outputs": [],
      "stateMutability": "nonpayable",
      "type": "function"
    },
    {
      "inputs": [
        {
          "internalType": "bytes32",
          "name": "poolId",
          "type": "bytes32"
        }
      ],
      "name": "settle",
      "outputs": [],
      "stateMutability": "nonpayable",
      "type": "function"
    }
  ],
  "bytecode": "0x6080604052600060035534801561001557600080fd5b50600080546001600160a01b0319163390811782556040519091907f8be0079c531659141344cd1fd0a4f28419497f9722a3daafe3b4186f6b6457e0908290a3612ad0806100646000396000f3fe608060405234801561001057600080fd5b50600436106101005760003560e01c80639251577311610097578063c45a015511610066578063c45a0155146101ed578063c74073a1146101f5578063f2fde38b14610215578063f3fef3a31461022857610100565b8063925157731461019f578063987757dd146101b2578063abc8f606146101c5578063bfa0caa7146101cd57610100565b8063715018a6116100d3578063715018a614610153578063867904b41461015b5780638a0c62f11461016e5780638da5cb5b1461018157610100565b8063358394d8146101055780633f0990281461011a5780634ea9319f1461012d5780636c0afebc14610140575b600080fd5b6101186101133660046123d5565b61023b565b005b610118610128366004612477565b6102f8565b61011861013b366004612313565b610614565b61011861014e36600461249b565b6107d1565b6101186108ee565b6101186101693660046123aa565b610967565b61011861017c366004612543565b6119e8565b610189611ea6565b60405161019691906126ba565b60405180910390f35b6101186101ad36600461250c565b611eb5565b6101186101c0366004612447565b612045565b610118612048565b6101e06101db366004612447565b6120ab565b6040516101969190612804565b610189612158565b6102086102033660046122d4565b612167565b6040516101969190612749565b6101186102233660046122d4565b6121f7565b6101186102363660046123aa565b6122a7565b610243611ea6565b6001600160a01b0316336001600160a01b03161461026057600080fd5b600180546001600160a01b038087166001600160a01b0319928316179092556002805485841692169190911790556003849055811663ad86bc38306102a3611ea6565b6040518363ffffffff1660e01b81526004016102c0929190612716565b600060405180830381600087803b1580156102da57600080fd5b505af11580156102ee573d6000803e3d6000fd5b5050505050505050565b60025460405163f6c0092760e01b81526000916001600160a01b03169063f6c0092790610329908690600401612695565b604080518083038186803b15801561034057600080fd5b505afa158015610354573d6000803e3d6000fd5b505050506040513d601f19601f82011682018060405250810190610378919061236e565b50905060005b6000848152600b602052604090205481101561060e576000848152600b6020526040902080546001600160a01b0385169190839081106103ba57fe5b60009182526020909120600590910201546001600160a01b0316141561060657604080516001808252818301909252606091816020015b6103f96122ab565b8152602001906001900390816103f15790505060408051608081019091529091508060008152602001868152602001600b6000888152602001908152602001600020848154811061044657fe5b60009182526020808320600160059093020191909101546001600160a01b03168352888252600b81526040909120805492909101918590811061048557fe5b906000526020600020906005020160030154815250816000815181106104a757fe5b6020908102919091010152600254604051637362304960e11b81526001600160a01b039091169063e6c46092906104e290849060040161278d565b600060405180830381600087803b1580156104fc57600080fd5b505af1158015610510573d6000803e3d6000fd5b5050506000868152600b6020526040902080549091508390811061053057fe5b906000526020600020906005020160010160009054906101000a90046001600160a01b03166001600160a01b031663a9059cbb85600b6000898152602001908152602001600020858154811061058257fe5b9060005260206000209060050201600301546040518363ffffffff1660e01b81526004016105b1929190612730565b602060405180830381600087803b1580156105cb57600080fd5b505af11580156105df573d6000803e3d6000fd5b505050506040513d601f19601f820116820180604052508101906106039190612427565b50505b60010161037e565b50505050565b6040516370a0823160e01b815284906001600160a01b038816906370a08231906106429033906004016126ba565b60206040518083038186803b15801561065a57600080fd5b505afa15801561066e573d6000803e3d6000fd5b505050506040513d601f19601f82011682018060405250810190610692919061245f565b10156106b95760405162461bcd60e51b81526004016106b0906129e3565b60405180910390fd5b6040516323b872dd60e01b81526001600160a01b038716906323b872dd906106e9903390309089906004016126f2565b602060405180830381600087803b15801561070357600080fd5b505af1158015610717573d6000803e3d6000fd5b505050506040513d601f19601f8201168201806040525081019061073b9190612427565b506001600160a01b039586166000818152600560209081526040808320969099168252949094529583208054336001600160a01b031991821617825560028201939093556001808201959095556003810191909155600490810194909455835492830184559290527f8a35acfbc15ff81a39ae7d344fd709f28e8600b4aa8c65c6b64bfe7fe36bd19b0180549091169091179055565b856001600160a01b03166338fff2d06040518163ffffffff1660e01b8152600401602060405180830381600087803b15801561080c57600080fd5b505af1158015610820573d6000803e3d6000fd5b505050506040513d601f19601f82011682018060405250810190610844919061245f565b871461084f57600080fd5b6000968752600b60209081526040808920815160a0810183526001600160a01b0395861681529785168884019081529188019687526060880195865260808801938452805460018181018355918b52929099209651600590920290960180549184166001600160a01b03199283161781559551978601805498909316971696909617905590516002830155516003820155915160049092019190915550565b336108f7611ea6565b6001600160a01b03161461091d5760405162461bcd60e51b81526004016106b090612a18565b600080546040516001600160a01b03909116907f8be0079c531659141344cd1fd0a4f28419497f9722a3daafe3b4186f6b6457e0908390a3600080546001600160a01b0319169055565b60005b6004548110156119e357826001600160a01b03166004828154811061098b57fe5b6000918252602090912001546001600160a01b031614156119db576040805160028082526060808301845292602083019080368337019050509050600482815481106109d357fe5b600091825260208220015482516001600160a01b039091169183916109f457fe5b6001600160a01b039290921660209283029190910190910152604080516002808252606082810190935281602001602082028036833701905050905060005b60045481101561167d57856001600160a01b031660048281548110610a5457fe5b6000918252602090912001546001600160a01b03161461167557336001600160a01b03166005600060048781548110610a8957fe5b60009182526020808320909101546001600160a01b0316835282019290925260400181206004805491929185908110610abe57fe5b60009182526020808320909101546001600160a01b039081168452908301939093526040909101902054161415611675576005600060048681548110610b0057fe5b60009182526020808320909101546001600160a01b0316835282019290925260400181206004805491929184908110610b3557fe5b60009182526020808320909101546001600160a01b0316835282019290925260400190206001015415611675576005600060048381548110610b7357fe5b60009182526020808320909101546001600160a01b0316835282019290925260400181206004805491929187908110610ba857fe5b60009182526020808320909101546001600160a01b0316835282019290925260400190206001015415611675576005600060048381548110610be657fe5b60009182526020808320909101546001600160a01b0316835282019290925260400181206004805491929187908110610c1b57fe5b9060005260206000200160009054906101000a90046001600160a01b03166001600160a01b03166001600160a01b03168152602001908152602001600020600201546005600060048481548110610c6e57fe5b60009182526020808320909101546001600160a01b0316835282019290925260400181206004805491929188908110610ca357fe5b60009182526020808320909101546001600160a01b0316835282019290925260400190206001015481610cd257fe5b046005600060048781548110610ce457fe5b60009182526020808320909101546001600160a01b0316835282019290925260400181206004805491929185908110610d1957fe5b9060005260206000200160009054906101000a90046001600160a01b03166001600160a01b03166001600160a01b03168152602001908152602001600020600101546005600060048881548110610d6c57fe5b60009182526020808320909101546001600160a01b0316835282019290925260400181206004805491929186908110610da157fe5b60009182526020808320909101546001600160a01b0316835282019290925260400190206003015481610dd057fe5b041115611675576000805b600654811015610e405760048381548110610df257fe5b600091825260209091200154600680546001600160a01b039092169183908110610e1857fe5b6000918252602090912001546001600160a01b03161415610e3857600191505b600101610ddb565b5080610e9157600660048381548110610e5557fe5b60009182526020808320909101548354600181018555938352912090910180546001600160a01b0319166001600160a01b039092169190911790555b6001600160a01b03871660009081526007602052604081206004805491929185908110610eba57fe5b60009182526020808320909101546001600160a01b0316835282019290925260400181205460048054919260059290919089908110610ef557fe5b60009182526020808320909101546001600160a01b0316835282019290925260400181206004805491929186908110610f2a57fe5b9060005260206000200160009054906101000a90046001600160a01b03166001600160a01b03166001600160a01b03168152602001908152602001600020600101546005600060048981548110610f7d57fe5b60009182526020808320909101546001600160a01b0316835282019290925260400181206004805491929187908110610fb257fe5b60009182526020808320909101546001600160a01b0316835282019290925260400190206003015481610fe157fe5b04108061103957506001600160a01b0387166000908152600760205260408120600480549192918590811061101257fe5b60009182526020808320909101546001600160a01b03168352820192909252604001902054155b1561119657600560006004878154811061104f57fe5b60009182526020808320909101546001600160a01b031683528201929092526040018120600480549192918590811061108457fe5b9060005260206000200160009054906101000a90046001600160a01b03166001600160a01b03166001600160a01b031681526020019081526020016000206001015460056000600488815481106110d757fe5b60009182526020808320909101546001600160a01b031683528201929092526040018120600480549192918690811061110c57fe5b60009182526020808320909101546001600160a01b031683528201929092526040019020600301548161113b57fe5b0460076000896001600160a01b03166001600160a01b0316815260200190815260200160002060006004858154811061117057fe5b60009182526020808320909101546001600160a01b031683528201929092526040019020555b6001600160a01b038716600090815260076020526040812060048054919291859081106111bf57fe5b9060005260206000200160009054906101000a90046001600160a01b03166001600160a01b03166001600160a01b0316815260200190815260200160002060010154600560006004858154811061121257fe5b60009182526020808320909101546001600160a01b031683528201929092526040018120600480549192918990811061124757fe5b9060005260206000200160009054906101000a90046001600160a01b03166001600160a01b03166001600160a01b0316815260200190815260200160002060030154600560006004868154811061129a57fe5b60009182526020808320909101546001600160a01b031683528201929092526040018120600480549192918a9081106112cf57fe5b60009182526020808320909101546001600160a01b03168352820192909252604001902060010154816112fe57fe5b04111561146057600560006004848154811061131657fe5b60009182526020808320909101546001600160a01b031683528201929092526040018120600480549192918890811061134b57fe5b9060005260206000200160009054906101000a90046001600160a01b03166001600160a01b03166001600160a01b0316815260200190815260200160002060030154600560006004858154811061139e57fe5b60009182526020808320909101546001600160a01b03168352820192909252604001812060048054919291899081106113d357fe5b60009182526020808320909101546001600160a01b031683528201929092526040019020600101548161140257fe5b0460076000896001600160a01b03166001600160a01b0316815260200190815260200160002060006004858154811061143757fe5b60009182526020808320909101546001600160a01b031683528201929092526040019020600101555b600560006004878154811061147157fe5b60009182526020808320909101546001600160a01b03168352820192909252604001812060048054919291859081106114a657fe5b60009182526020808320909101546001600160a01b039081168452838201949094526040928301822060010154938b1682526007905290812060048054919291869081106114f057fe5b60009182526020808320909101546001600160a01b039081168452838201949094526040928301822060020154938c168252600790529081206004805494909301939092908690811061153f57fe5b60009182526020808320909101546001600160a01b031683528201929092526040018120600201919091556004805460059291908590811061157d57fe5b60009182526020808320909101546001600160a01b03168352820192909252604001812060048054919291889081106115b257fe5b60009182526020808320909101546001600160a01b039081168452838201949094526040928301822060010154938b1682526007905290812060048054919291869081106115fc57fe5b60009182526020808320909101546001600160a01b039081168452838201949094526040928301822060030154938c168252600790529081206004805494909301939092908690811061164b57fe5b60009182526020808320909101546001600160a01b03168352820192909252604001902060030155505b600101610a33565b50600654600090156119d75760006006828154811061169857fe5b9060005260206000200160009054906101000a90046001600160a01b0316905080846001815181106116c657fe5b6001600160a01b0392831660209182029290920181019190915288821660009081526007825260408082209385168252929091529081205484519091859161170a57fe5b6020908102919091018101919091526001600160a01b0380891660009081526007835260408082209285168252919092529020600190810154845190918591811061175157fe5b6020026020010181815250506000600160009054906101000a90046001600160a01b03166001600160a01b0316630428e549896001600160a01b03166395d89b416040518163ffffffff1660e01b815260040160006040518083038186803b1580156117bc57600080fd5b505afa1580156117d0573d6000803e3d6000fd5b505050506040513d6000823e601f3d908101601f191682016040526117f89190810190612581565b846001600160a01b03166395d89b416040518163ffffffff1660e01b815260040160006040518083038186803b15801561183157600080fd5b505afa158015611845573d6000803e3d6000fd5b505050506040513d6000823e601f3d908101601f1916820160405261186d9190810190612581565b88886003548d306040518863ffffffff1660e01b815260040161189697969594939291906128fd565b602060405180830381600087803b1580156118b057600080fd5b505af11580156118c4573d6000803e3d6000fd5b505050506040513d601f19601f820116820180604052508101906118e891906122f7565b6001600160a01b03808a1660008181526005602090815260408083208886168452825280832054938352600882528083206003810180546001600160a01b031916958716959095179094558c84554260019490940193909355825163038fff2d60e41b815292519495509093928516926338fff2d092600480820193929182900301818787803b15801561197b57600080fd5b505af115801561198f573d6000803e3d6000fd5b505050506040513d601f19601f820116820180604052508101906119b3919061245f565b6001600160a01b038a16600090815260086020526040902060020180549192508291fe5b5050505b60010161096a565b505050565b60025460405163f6c0092760e01b81526000916001600160a01b03169063f6c0092790611a19908890600401612695565b604080518083038186803b158015611a3057600080fd5b505afa158015611a44573d6000803e3d6000fd5b505050506040513d601f19601f82011682018060405250810190611a68919061236e565b5090506000805b6000878152600b6020526040902054811015611b04576000878152600b6020526040902080546001600160a01b038816919083908110611aab57fe5b60009182526020909120600590910201546001600160a01b03161415611afc576000878152600b60205260409020805482908110611ae557fe5b906000526020600020906005020160030154820191505b600101611a6f565b5060005b600a54811015611e9d5760005b60096000600a8481548110611b2657fe5b9060005260206000200154815260200190815260200160002080549050811015611e9457846001600160a01b03166306fdde036040518163ffffffff1660e01b815260040160006040518083038186803b158015611b8357600080fd5b505afa158015611b97573d6000803e3d6000fd5b505050506040513d6000823e601f3d908101601f19168201604052611bbf9190810190612581565b604051602001611bcf919061269e565b6040516020818303038152906040528051906020012060096000600a8581548110611bf657fe5b906000526020600020015481526020019081526020016000208281548110611c1a57fe5b906000526020600020906002020160010154604051602001611c3c9190612695565b604051602081830303815290604052805190602001201415611e8c57604080516001808252818301909252606091816020015b611c776122ab565b815260200190600190039081611c6f57905050604080516080810190915290915080600081526020018a8152602001876001600160a01b031681526020018581525081600081518110611cc657fe5b6020908102919091010152600254604051637362304960e11b81526001600160a01b039091169063e6c4609290611d0190849060040161278d565b600060405180830381600087803b158015611d1b57600080fd5b505af1158015611d2f573d6000803e3d6000fd5b50505050856001600160a01b031663a9059cbb60096000600a8781548110611d5357fe5b906000526020600020015481526020019081526020016000208481548110611d7757fe5b60009182526020909120600290910201546040516001600160e01b031960e084901b168152611db4916001600160a01b0316908b90600401612730565b602060405180830381600087803b158015611dce57600080fd5b505af1158015611de2573d6000803e3d6000fd5b505050506040513d601f19601f82011682018060405250810190611e069190612427565b5060405163a9059cbb60e01b81526001600160a01b0387169063a9059cbb90611e37908b908b890390600401612730565b602060405180830381600087803b158015611e5157600080fd5b505af1158015611e65573d6000803e3d6000fd5b505050506040513d601f19601f82011682018060405250810190611e899190612427565b50505b600101611b15565b50600101611b08565b50505050505050565b6000546001600160a01b031690565b611ebd611ea6565b6001600160a01b0316336001600160a01b031614611eda57600080fd5b6000805b600083815260096020526040902054811015611f81576000838152600960205260409020805486919083908110611f1157fe5b9060005260206000209060020201600101541415611f79576000838152600960205260409020805485919083908110611f4657fe5b6000918252602090912060029091020180546001600160a01b0319166001600160a01b0392909216919091179055600191505b600101611ede565b8161203e576000838152600960205260409020805486919060018401908110611fa657fe5b90600052602060002090600202016001018190555083600960008581526020019081526020016000208260010181548110611fdd57fe5b6000918252602082206002919091020180546001600160a01b0319166001600160a01b039390931692909217909155600a805460018101825591527fc65a7bb8d6351c1cf70c95a316cc6a92839c986682d98bc35f958f4883f9d2a8018390555b5050505050565b50565b60025460405163fa6e671d60e01b81526001600160a01b039091169063fa6e671d9061207d90339030906001906004016126ce565b600060405180830381600087803b15801561209757600080fd5b505af115801561060e573d6000803e3d6000fd5b6060600b6000838152602001908152602001600020805480602002602001604051908101604052809291908181526020016000905b8282101561214c5760008481526020908190206040805160a0810182526005860290920180546001600160a01b039081168452600180830154909116848601526002820154928401929092526003810154606084015260040154608083015290835290920191016120e0565b5050505090505b919050565b6001546001600160a01b031681565b6001600160a01b038116600090815260086020526040902054606090421115612153576001600160a01b038216600090815260086020908152604091829020600201805483518184028101840190945280845290918301828280156121eb57602002820191906000526020600020905b8154815260200190600101908083116121d7575b50505050509050612153565b33612200611ea6565b6001600160a01b0316146122265760405162461bcd60e51b81526004016106b090612a18565b6001600160a01b03811661224c5760405162461bcd60e51b81526004016106b09061299d565b600080546040516001600160a01b03808516939216917f8be0079c531659141344cd1fd0a4f28419497f9722a3daafe3b4186f6b6457e091a3600080546001600160a01b0319166001600160a01b0392909216919091179055565b5050565b604080516080810190915280600081526000602082018190526040820181905260609091015290565b6000602082840312156122e5578081fd5b81356122f081612a85565b9392505050565b600060208284031215612308578081fd5b81516122f081612a85565b60008060008060008060c0878903121561232b578182fd5b863561233681612a85565b95506020870135945060408701359350606087013561235481612a85565b9598949750929560808101359460a0909101359350915050565b60008060408385031215612380578182fd5b825161238b81612a85565b60208401519092506003811061239f578182fd5b809150509250929050565b600080604083850312156123bc578182fd5b82356123c781612a85565b946020939093013593505050565b600080600080608085870312156123ea578384fd5b84356123f581612a85565b935060208501359250604085013561240c81612a85565b9150606085013561241c81612a85565b939692955090935050565b600060208284031215612438578081fd5b815180151581146122f0578182fd5b600060208284031215612458578081fd5b5035919050565b600060208284031215612470578081fd5b5051919050565b60008060408385031215612489578182fd5b82359150602083013561239f81612a85565b600080600080600080600060e0888a0312156124b5578081fd5b8735965060208801356124c781612a85565b955060408801356124d781612a85565b9450606088013593506080880135925060a08801356124f581612a85565b8092505060c0880135905092959891949750929550565b600080600060608486031215612520578283fd5b83359250602084013561253281612a85565b929592945050506040919091013590565b60008060008060808587031215612558578182fd5b84359350602085013561256a81612a85565b925060408501359150606085013561241c81612a85565b600060208284031215612592578081fd5b815167ffffffffffffffff808211156125a9578283fd5b818401915084601f8301126125bc578283fd5b8151818111156125ca578384fd5b604051601f8201601f1916810160200183811182821017156125ea578586fd5b604052818152838201602001871015612601578485fd5b612612826020830160208701612a59565b9695505050505050565b6001600160a01b03169052565b6000815180845260208085019450808401835b838110156126585781518752958201959082019060010161263c565b509495945050505050565b15159052565b60008151808452612681816020860160208601612a59565b601f01601f19169290920160200192915050565b90815260200190565b600082516126b0818460208701612a59565b9190910192915050565b6001600160a01b0391909116815260200190565b6001600160a01b039384168152919092166020820152901515604082015260600190565b6001600160a01b039384168152919092166020820152604081019190915260600190565b6001600160a01b0392831681529116602082015260400190565b6001600160a01b03929092168252602082015260400190565b6020808252825182820181905260009190848201906040850190845b8181101561278157835183529284019291840191600101612765565b50909695505050505050565b602080825282518282018190526000919060409081850190868401855b828110156127f75781518051600381106127c057fe5b85528087015187860152858101516001600160a01b03168686015260609081015190850152608090930192908501906001016127aa565b5091979650505050505050565b602080825282518282018190526000919060409081850190868401855b828110156127f757815180516001600160a01b03168552868101516128488887018261261c565b508086015185870152606080820151908601526080908101519085015260a09093019290850190600101612821565b8083101561289f576128898451612a4d565b8252928401926001929092019190840190612877565b50838701519350607f199250828682030160a08701526128bf8185612629565b935050506040850151818584030160c08601526128dc8382612669565b9250505060608401516128f260e0850182612663565b509695505050505050565b600060e0825261291060e083018a612669565b602083820381850152612923828b612669565b84810360408601528951808252828b01935090820190845b8181101561295f5761294d8551612a4d565b8352938301939183019160010161293b565b50508481036060860152612973818a612629565b93505050508460808301528360a083015261299160c083018461261c565b98975050505050505050565b60208082526026908201527f4f776e61626c653a206e6577206f776e657220697320746865207a65726f206160408201526564647265737360d01b606082015260800190565b6020808252818101527f4f66666572656420616d6f756e74206973206e6f7420696e2062616c616e6365604082015260600190565b6020808252818101527f4f776e61626c653a2063616c6c6572206973206e6f7420746865206f776e6572604082015260600190565b6001600160a01b031690565b60005b83811015612a74578181015183820152602001612a5c565b8381111561060e5750506000910152565b6001600160a01b038116811461204557600080fdfea26469706673582212201c4c9b99b6fe7ddf4eb6d34f96ea0432936962c1765bc6a27598a46b2e6399a464736f6c63430007010033",
  "immutableReferences": {},
  "source": "// Verified asset manager\r\n// (c) Kallol Borah, Verified Network, 2021\r\n\r\n//\"SPDX-License-Identifier: UNLICENSED\"\r\n\r\npragma solidity ^0.7.0;\r\npragma experimental ABIEncoderV2;\r\n\r\nimport '@balancer-labs/v2-solidity-utils/contracts/openzeppelin/IERC20.sol';\r\nimport '@balancer-labs/v2-solidity-utils/contracts/openzeppelin/ERC20.sol';\r\nimport '@balancer-labs/v2-solidity-utils/contracts/openzeppelin/Ownable.sol';\r\n\r\nimport '@balancer-labs/v2-vault/contracts/interfaces/IVault.sol';\r\nimport '@balancer-labs/v2-vault/contracts/interfaces/IAsset.sol';\r\n\r\nimport './interfaces/IPrimaryIssuePoolFactory.sol';\r\nimport './interfaces/IPrimaryIssuePool.sol';\r\nimport './interfaces/VerifiedIssues.sol';\r\nimport './interfaces/VerifiedProducts.sol';\r\nimport './interfaces/IMarketMaker.sol';\r\n\r\ncontract MarketMaker is IMarketMaker, Ownable{\r\n\r\n    // balancer variables\r\n    IPrimaryIssuePoolFactory public factory;\r\n    IVault vault;\r\n    uint256 swapFeePercentage=0;\r\n    \r\n    // a token contributed to the primary issue pool has an 'owner' which could be the issuer or market maker\r\n    // the token contributor offers the 'amountOffered' of the token, the token could be the security issued or the its paired token\r\n    // the token contributor specifies the 'amountDesired' of another token (liquidity token) that is paired to the token offered \r\n    // if the token contributor is an issuer, it specifies the 'min' size of an investor's or market maker's bid for liquidity tokens offered\r\n    // if the token contributor is a market maker, it specifies the 'min' size of an issuer's offer for tokens bid \r\n    struct token{\r\n        address owner;\r\n        uint amountOffered;\r\n        uint amountDesired;\r\n        uint min;\r\n        bytes32 isin;\r\n    }\r\n\r\n    // array of offers of security tokens and liquidity tokens to pair them with\r\n    address[] internal offeredTokens;\r\n\r\n    // mapping offered token to liquidity token\r\n    mapping(address => mapping(address => token)) internal mmtokens;\r\n\r\n    struct liquidity{\r\n        uint minPrice;\r\n        uint maxPrice;\r\n        uint amountIssued;\r\n        uint amountOffered;\r\n    }\r\n\r\n    // array of liquidity tokens  \r\n    address[] internal pairedTokens;\r\n\r\n    // mapping qualified liquidity token to its price and amount offered by market makers (LPs)\r\n    mapping(address => mapping(address => liquidity)) internal qltokens;\r\n\r\n    // components of a primary issue of a security token\r\n    struct primary{\r\n        uint256 deadline;\r\n        uint256 startTime;\r\n        bytes32[] pools;\r\n        address issuer;\r\n    }\r\n\r\n    //mapping security to new issues\r\n    mapping(address => primary) internal issues;\r\n\r\n    //mapping new issue to collateral\r\n    //mapping(bytes32 => address) internal collateral;\r\n\r\n    //investments are drawn down to broker's custody accounts for liquidation\r\n    struct account{\r\n        address custodyAccount;\r\n        bytes32 tokenName;\r\n    }\r\n\r\n    mapping(bytes32 => account[]) internal brokerages;\r\n\r\n    bytes32[] internal brokers;\r\n    \r\n    // mapping pool to subscribers that swap in assets into pool\r\n    mapping(bytes32 => IMarketMaker.subscriptions[]) internal investors; \r\n\r\n    function initialize(address _factory, uint256 _swapFeePercentage, address _vault, address _products) public {\r\n        require(msg.sender == owner());\r\n        factory = IPrimaryIssuePoolFactory(_factory);\r\n        vault = IVault(_vault);\r\n        swapFeePercentage = _swapFeePercentage;\r\n        VerifiedProducts(_products).registerPlatform(address(this), owner());\r\n    }\r\n\r\n    function addBroker(bytes32 name, address custody, bytes32 broker) override external {\r\n        require(msg.sender == owner());\r\n        bool found = false;\r\n        uint i;\r\n        for(i=0; i<brokerages[broker].length; i++){\r\n            if(brokerages[broker][i].tokenName==name){\r\n                brokerages[broker][i].custodyAccount = custody;\r\n                found = true;\r\n            }\r\n        }\r\n        if(!found){\r\n            brokerages[broker][i+1].tokenName = name;\r\n            brokerages[broker][i+1].custodyAccount = custody;\r\n            brokers.push(broker);\r\n        }\r\n    }\r\n\r\n    // sets this asset manager as the relayer for the sender who which provides liquidity\r\n    function setRelayer() override external {\r\n        vault.setRelayerApproval(msg.sender, address(this), true);\r\n    }\r\n\r\n    // called by market maker and issuer for adding liquidity\r\n    // 'owned' is the security or token on offer, 'offered' is the amount offered\r\n    // 'tomatch' is the token that is required to be paired, 'desired' is the amount required of the token to be paired\r\n    // 'min' is the minimum amount to be swapped of the 'offered' token if this function is called by issuer\r\n    // 'min' is the minimum fee to be charged for a swap if this function is called by a market maker\r\n    function make(address owned, bytes32 isin, uint offered, address tomatch, uint desired, uint min) override external {\r\n        require(IERC20(owned).balanceOf(msg.sender)>=offered, 'Offered amount is not in balance'); \r\n        IERC20(owned).transferFrom(msg.sender, address(this), offered);\r\n        mmtokens[owned][tomatch].owner = msg.sender;\r\n        mmtokens[owned][tomatch].amountDesired = desired;\r\n        mmtokens[owned][tomatch].amountOffered = offered;\r\n        mmtokens[owned][tomatch].min = min;\r\n        mmtokens[owned][tomatch].isin = isin;\r\n        offeredTokens.push(owned);\r\n    }\r\n\r\n    //called by issuer of 'security' token to open an issue which will last till 'cutoffTime'\r\n    function issue(address security, uint256 cutoffTime) override external {\r\n        for(uint i=0; i<offeredTokens.length; i++){\r\n            // check if security to be issued has been offered by the issuer, and if yes, initialize the issuance\r\n            if(offeredTokens[i]==security){\r\n                IERC20[] memory tokens = new IERC20[](2);\r\n                tokens[0] = IERC20(offeredTokens[i]);\r\n                uint256[] memory prices = new uint256[](2);\r\n                \r\n                // check all offered securities that is not the security to be issued\r\n                for(uint j=0; j<offeredTokens.length; j++){\r\n                    if(offeredTokens[j]!=security){\r\n\r\n                        // check if the request to issue has come from the issuer\r\n                        if(mmtokens[offeredTokens[i]][offeredTokens[j]].owner == msg.sender){\r\n\r\n                            // find tokens offered against security to be issued\r\n                            if(mmtokens[offeredTokens[i]][offeredTokens[j]].amountOffered!=0){\r\n                                if(mmtokens[offeredTokens[j]][offeredTokens[i]].amountOffered!=0){\r\n                                    \r\n                                    // if min offer price for security issued is greater than price desired by market maker (LP)\r\n                                    if(mmtokens[offeredTokens[i]][offeredTokens[j]].min / \r\n                                        mmtokens[offeredTokens[i]][offeredTokens[j]].amountOffered >\r\n                                        mmtokens[offeredTokens[j]][offeredTokens[i]].amountOffered / \r\n                                        mmtokens[offeredTokens[j]][offeredTokens[i]].amountDesired)\r\n                                    {   \r\n                                        // store liquidity tokens    \r\n                                        bool found = false;\r\n                                        for(uint k=0; k<pairedTokens.length; k++){\r\n                                            if(pairedTokens[k]==offeredTokens[j])\r\n                                                found = true;\r\n                                        }\r\n                                        if(!found)\r\n                                            pairedTokens.push(offeredTokens[j]);\r\n\r\n                                        // find and store min price for token offered\r\n                                        if(mmtokens[offeredTokens[i]][offeredTokens[j]].min/\r\n                                            mmtokens[offeredTokens[i]][offeredTokens[j]].amountOffered < \r\n                                            qltokens[security][offeredTokens[j]].minPrice  || qltokens[security][offeredTokens[j]].minPrice==0)\r\n                                        {\r\n                                            qltokens[security][offeredTokens[j]].minPrice = \r\n                                                        mmtokens[offeredTokens[i]][offeredTokens[j]].min/\r\n                                                        mmtokens[offeredTokens[i]][offeredTokens[j]].amountOffered;\r\n                                        }\r\n                                        // find and store max price for token offered\r\n                                        if(mmtokens[offeredTokens[j]][offeredTokens[i]].amountOffered / \r\n                                            mmtokens[offeredTokens[j]][offeredTokens[i]].min > qltokens[security][offeredTokens[j]].maxPrice)\r\n                                        {\r\n                                            qltokens[security][offeredTokens[j]].maxPrice = \r\n                                                        mmtokens[offeredTokens[j]][offeredTokens[i]].amountOffered/\r\n                                                        mmtokens[offeredTokens[j]][offeredTokens[i]].min;                                        \r\n                                        }  \r\n                                        qltokens[security][offeredTokens[j]].amountIssued = \r\n                                                        qltokens[security][offeredTokens[j]].amountIssued + \r\n                                                        mmtokens[offeredTokens[i]][offeredTokens[j]].amountOffered;\r\n                                        qltokens[security][offeredTokens[j]].amountOffered = \r\n                                                        qltokens[security][offeredTokens[j]].amountOffered + \r\n                                                        mmtokens[offeredTokens[j]][offeredTokens[i]].amountOffered;    \r\n                                    }\r\n                                }\r\n                            }\r\n                        }\r\n                    }\r\n                }\r\n                //create primary issue pool if it does not exist already\r\n                for(uint x=0; x<pairedTokens.length; x++){\r\n                    address lptoken = pairedTokens[x];\r\n                    tokens[1] = IERC20(lptoken);\r\n                    prices[0] = qltokens[security][lptoken].minPrice;\r\n                    prices[1] = qltokens[security][lptoken].maxPrice;\r\n                    address newIssue = factory.create(\r\n                        ERC20(security).symbol(),\r\n                        ERC20(lptoken).symbol(),\r\n                        tokens,\r\n                        prices,\r\n                        swapFeePercentage,\r\n                        cutoffTime,\r\n                        address(this)\r\n                    );\r\n                    // store details of new pool created\r\n                    issues[security].issuer = mmtokens[security][lptoken].owner;\r\n                    issues[security].deadline = cutoffTime;\r\n                    issues[security].startTime = block.timestamp;\r\n                    bytes32 pool = IPrimaryIssuePool(newIssue).getPoolId();\r\n                    issues[security].pools[issues[security].pools.length] = pool;\r\n                    //collateral[pool] = lptoken;\r\n                    // join the pool\r\n                    IAsset[] memory _assets = new IAsset[](2);\r\n                    _assets[0] = IAsset(security);\r\n                    _assets[1] = IAsset(lptoken);\r\n                    uint256[] memory _maxAmountsIn = new uint256[](2);\r\n                    _maxAmountsIn[0] = qltokens[security][lptoken].amountIssued;\r\n                    _maxAmountsIn[1] = qltokens[security][lptoken].amountOffered;\r\n                    IVault.JoinPoolRequest memory request = IVault.JoinPoolRequest({\r\n                        assets: _assets,\r\n                        maxAmountsIn: _maxAmountsIn,\r\n                        userData: abi.encodePacked(security),\r\n                        fromInternalBalance: false\r\n                    });                                        \r\n                    vault.joinPool(pool, address(this), address(this), request);\r\n                }\r\n            }\r\n        }\r\n    }\r\n\r\n    // called by pool when assets are swapped in by investors against security tokens issued\r\n    function subscribe(bytes32 poolId, address security, address assetIn, bytes32 assetName, uint256 amount, address investor, uint256 price) override external {\r\n        require(poolId == IPrimaryIssuePool(security).getPoolId());\r\n        investors[poolId].push(IMarketMaker.subscriptions(investor, assetIn, assetName, amount, price));\r\n    }\r\n\r\n    function getSubscribers(bytes32 poolId) override external view returns(subscriptions[] memory){\r\n        return investors[poolId];\r\n    }\r\n\r\n    // called by issuer to close subscription of 'security' issued by it \r\n    function close(address security) override external view returns(bytes32[] memory) {\r\n        if(block.timestamp > issues[security].deadline)\r\n            return issues[security].pools;\r\n    }\r\n\r\n    // called by issuer to accept subscription to issue by investor\r\n    function accept(bytes32 poolid, address investor, uint256 amnt, address asset) override external {\r\n        (address pool, ) = vault.getPool(poolid);\r\n        uint256 invested = 0;\r\n        for(uint i=0; i<investors[poolid].length; i++){\r\n            if(investors[poolid][i].investor == investor)\r\n                invested = invested + investors[poolid][i].amount;\r\n        }\r\n        // transfer subscriptions for allotments to brokerage for asset subscribed with\r\n        for(uint x=0; x<brokers.length; x++){\r\n            for(uint i=0; i<brokerages[brokers[x]].length; i++){\r\n                if(keccak256(abi.encodePacked(brokerages[brokers[x]][i].tokenName))==keccak256(abi.encodePacked(ERC20(asset).name()))){\r\n                    IVault.PoolBalanceOp[] memory ops = new IVault.PoolBalanceOp[](1);\r\n                    ops[0] = IVault.PoolBalanceOp({\r\n                        kind: IVault.PoolBalanceOpKind.WITHDRAW,\r\n                        poolId: poolid,\r\n                        token: IERC20(asset),\r\n                        amount: invested\r\n                    });\r\n                    vault.managePoolBalance(ops);\r\n                    // transfer allotted amount to brokerage\r\n                    IERC20(asset).transfer(brokerages[brokers[x]][i].custodyAccount, amnt);\r\n                    // refund balance to investors\r\n                    IERC20(asset).transfer(investor, invested - amnt);\r\n                }\r\n            }\r\n        }\r\n    }\r\n\r\n    // called by issuer to reject subscription to issue by investor\r\n    function reject(bytes32 poolid, address investor) override external {\r\n        (address pool, ) = vault.getPool(poolid);\r\n        for(uint i=0; i<investors[poolid].length; i++){\r\n            if(investors[poolid][i].investor == investor){\r\n                IVault.PoolBalanceOp[] memory ops = new IVault.PoolBalanceOp[](1);\r\n                ops[0] = IVault.PoolBalanceOp({\r\n                    kind: IVault.PoolBalanceOpKind.WITHDRAW,\r\n                    poolId: poolid,\r\n                    token: IERC20(investors[poolid][i].asset),\r\n                    amount: investors[poolid][i].amount\r\n                });\r\n                vault.managePoolBalance(ops);\r\n                IERC20(investors[poolid][i].asset).transfer(investor, investors[poolid][i].amount);\r\n            }\r\n        }\r\n    }\r\n\r\n    // withdraws liquidity token shares in pool if the issue is not subscribed fully\r\n    function withdraw(address security, uint amount) override external {\r\n               \r\n    }\r\n\r\n    // settles liquidity token shares in pool in favour of market makers for amounts not used in subscription \r\n    function settle(bytes32 poolId) override external {\r\n        \r\n    }   \r\n    \r\n}",
  "sourcePath": "D:\\Code\\verified-liquidity\\balancer\\contracts\\MarketMaker.sol",
  "compiler": {
    "name": "solc",
    "version": "0.7.1+commit.f4a555be.Emscripten.clang"
  },
  "schemaVersion": "3.4.3",
  "updatedAt": "2021-10-31T09:55:15.354Z",
  "devdoc": {
    "kind": "dev",
    "methods": {
      "owner()": {
        "details": "Returns the address of the current owner."
      },
      "renounceOwnership()": {
        "details": "Leaves the contract without owner. It will not be possible to call `onlyOwner` functions anymore. Can only be called by the current owner. NOTE: Renouncing ownership will leave the contract without an owner, thereby removing any functionality that is only available to the owner."
      },
      "transferOwnership(address)": {
        "details": "Transfers ownership of the contract to a new account (`newOwner`). Can only be called by the current owner."
      }
    },
    "version": 1
  },
  "userdoc": {
    "kind": "user",
    "methods": {},
    "version": 1
  }
}