{
  "contractName": "Vault",
  "abi": [
    {
      "constant": true,
      "inputs": [
        {
          "name": "",
          "type": "address"
        },
        {
          "name": "",
          "type": "address"
        },
        {
          "name": "",
          "type": "uint256"
        }
      ],
      "name": "userSnapshots",
      "outputs": [
        {
          "name": "timestamp",
          "type": "uint256"
        },
        {
          "name": "balance",
          "type": "uint256"
        }
      ],
      "payable": false,
      "stateMutability": "view",
      "type": "function"
    },
    {
      "constant": false,
      "inputs": [],
      "name": "renounceOwnership",
      "outputs": [],
      "payable": false,
      "stateMutability": "nonpayable",
      "type": "function"
    },
    {
      "constant": true,
      "inputs": [],
      "name": "owner",
      "outputs": [
        {
          "name": "",
          "type": "address"
        }
      ],
      "payable": false,
      "stateMutability": "view",
      "type": "function"
    },
    {
      "constant": true,
      "inputs": [],
      "name": "isOwner",
      "outputs": [
        {
          "name": "",
          "type": "bool"
        }
      ],
      "payable": false,
      "stateMutability": "view",
      "type": "function"
    },
    {
      "constant": false,
      "inputs": [
        {
          "name": "sender",
          "type": "address"
        }
      ],
      "name": "initialize",
      "outputs": [],
      "payable": false,
      "stateMutability": "nonpayable",
      "type": "function"
    },
    {
      "constant": false,
      "inputs": [
        {
          "name": "newOwner",
          "type": "address"
        }
      ],
      "name": "transferOwnership",
      "outputs": [],
      "payable": false,
      "stateMutability": "nonpayable",
      "type": "function"
    },
    {
      "inputs": [],
      "payable": false,
      "stateMutability": "nonpayable",
      "type": "constructor"
    },
    {
      "anonymous": false,
      "inputs": [
        {
          "indexed": false,
          "name": "creator",
          "type": "bytes32"
        },
        {
          "indexed": false,
          "name": "participant",
          "type": "bytes32"
        }
      ],
      "name": "NewParticipant",
      "type": "event"
    },
    {
      "anonymous": false,
      "inputs": [
        {
          "indexed": false,
          "name": "creator",
          "type": "bytes32"
        },
        {
          "indexed": false,
          "name": "participant",
          "type": "bytes32"
        },
        {
          "indexed": false,
          "name": "txid",
          "type": "uint256"
        }
      ],
      "name": "NewTransaction",
      "type": "event"
    },
    {
      "anonymous": false,
      "inputs": [
        {
          "indexed": false,
          "name": "creator",
          "type": "bytes32"
        },
        {
          "indexed": false,
          "name": "participant",
          "type": "bytes32"
        },
        {
          "indexed": false,
          "name": "txid",
          "type": "uint256"
        }
      ],
      "name": "SignTransaction",
      "type": "event"
    },
    {
      "anonymous": false,
      "inputs": [
        {
          "indexed": false,
          "name": "creator",
          "type": "bytes32"
        },
        {
          "indexed": false,
          "name": "participant",
          "type": "bytes32"
        },
        {
          "indexed": false,
          "name": "confirmation",
          "type": "bool"
        }
      ],
      "name": "SignResponse",
      "type": "event"
    },
    {
      "anonymous": false,
      "inputs": [
        {
          "indexed": true,
          "name": "platform",
          "type": "address"
        },
        {
          "indexed": false,
          "name": "collection",
          "type": "uint256"
        },
        {
          "indexed": false,
          "name": "timestamp",
          "type": "uint256"
        }
      ],
      "name": "feecollection",
      "type": "event"
    },
    {
      "anonymous": false,
      "inputs": [
        {
          "indexed": true,
          "name": "previousOwner",
          "type": "address"
        },
        {
          "indexed": true,
          "name": "newOwner",
          "type": "address"
        }
      ],
      "name": "OwnershipTransferred",
      "type": "event"
    },
    {
      "constant": false,
      "inputs": [
        {
          "name": "_nominee",
          "type": "address"
        }
      ],
      "name": "setDistributor",
      "outputs": [],
      "payable": false,
      "stateMutability": "nonpayable",
      "type": "function"
    },
    {
      "constant": false,
      "inputs": [
        {
          "name": "_fee",
          "type": "uint256"
        }
      ],
      "name": "setCustodyFee",
      "outputs": [],
      "payable": false,
      "stateMutability": "nonpayable",
      "type": "function"
    },
    {
      "constant": false,
      "inputs": [
        {
          "name": "_creator",
          "type": "bytes32"
        },
        {
          "name": "_id",
          "type": "string"
        }
      ],
      "name": "createVault",
      "outputs": [],
      "payable": false,
      "stateMutability": "nonpayable",
      "type": "function"
    },
    {
      "constant": false,
      "inputs": [
        {
          "name": "_creator",
          "type": "bytes32"
        },
        {
          "name": "_id",
          "type": "string"
        },
        {
          "name": "_new",
          "type": "string"
        }
      ],
      "name": "resetPin",
      "outputs": [],
      "payable": false,
      "stateMutability": "nonpayable",
      "type": "function"
    },
    {
      "constant": true,
      "inputs": [],
      "name": "getVaults",
      "outputs": [
        {
          "name": "",
          "type": "bytes32[]"
        }
      ],
      "payable": false,
      "stateMutability": "view",
      "type": "function"
    },
    {
      "constant": false,
      "inputs": [
        {
          "name": "_creator",
          "type": "bytes32"
        },
        {
          "name": "_id",
          "type": "string"
        },
        {
          "name": "_transferee",
          "type": "address"
        }
      ],
      "name": "transferVault",
      "outputs": [],
      "payable": false,
      "stateMutability": "nonpayable",
      "type": "function"
    },
    {
      "constant": true,
      "inputs": [
        {
          "name": "_creator",
          "type": "bytes32"
        },
        {
          "name": "_pin",
          "type": "string"
        }
      ],
      "name": "getCreator",
      "outputs": [
        {
          "name": "",
          "type": "string"
        }
      ],
      "payable": false,
      "stateMutability": "view",
      "type": "function"
    },
    {
      "constant": false,
      "inputs": [
        {
          "name": "_creator",
          "type": "bytes32"
        },
        {
          "name": "_id",
          "type": "string"
        },
        {
          "name": "_participant",
          "type": "bytes32"
        },
        {
          "name": "_shard",
          "type": "string"
        }
      ],
      "name": "addParticipant",
      "outputs": [],
      "payable": false,
      "stateMutability": "nonpayable",
      "type": "function"
    },
    {
      "constant": false,
      "inputs": [
        {
          "name": "_creator",
          "type": "bytes32"
        },
        {
          "name": "_id",
          "type": "string"
        },
        {
          "name": "_participant",
          "type": "bytes32"
        }
      ],
      "name": "removeParticipant",
      "outputs": [],
      "payable": false,
      "stateMutability": "nonpayable",
      "type": "function"
    },
    {
      "constant": false,
      "inputs": [
        {
          "name": "_creator",
          "type": "bytes32"
        },
        {
          "name": "_id",
          "type": "string"
        },
        {
          "name": "_participant",
          "type": "bytes32"
        },
        {
          "name": "_pin",
          "type": "string"
        },
        {
          "name": "_confirmation",
          "type": "bool"
        }
      ],
      "name": "confirmParticipant",
      "outputs": [],
      "payable": false,
      "stateMutability": "nonpayable",
      "type": "function"
    },
    {
      "constant": false,
      "inputs": [
        {
          "name": "_creator",
          "type": "bytes32"
        },
        {
          "name": "_id",
          "type": "string"
        },
        {
          "name": "_minParticipants",
          "type": "uint256"
        }
      ],
      "name": "defineQuorum",
      "outputs": [],
      "payable": false,
      "stateMutability": "nonpayable",
      "type": "function"
    },
    {
      "constant": true,
      "inputs": [
        {
          "name": "_creator",
          "type": "bytes32"
        },
        {
          "name": "_id",
          "type": "string"
        }
      ],
      "name": "getQuorum",
      "outputs": [
        {
          "name": "",
          "type": "uint256"
        }
      ],
      "payable": false,
      "stateMutability": "view",
      "type": "function"
    },
    {
      "constant": false,
      "inputs": [
        {
          "name": "_creator",
          "type": "bytes32"
        },
        {
          "name": "_id",
          "type": "string"
        }
      ],
      "name": "promptSignatures",
      "outputs": [],
      "payable": false,
      "stateMutability": "nonpayable",
      "type": "function"
    },
    {
      "constant": false,
      "inputs": [
        {
          "name": "_creator",
          "type": "bytes32"
        },
        {
          "name": "_id",
          "type": "string"
        },
        {
          "name": "_participant",
          "type": "bytes32"
        },
        {
          "name": "_tx",
          "type": "uint256"
        },
        {
          "name": "_pin",
          "type": "string"
        }
      ],
      "name": "signTransaction",
      "outputs": [],
      "payable": false,
      "stateMutability": "nonpayable",
      "type": "function"
    },
    {
      "constant": true,
      "inputs": [
        {
          "name": "_creator",
          "type": "bytes32"
        },
        {
          "name": "_id",
          "type": "string"
        },
        {
          "name": "_participant",
          "type": "bytes32"
        },
        {
          "name": "_txid",
          "type": "uint256"
        }
      ],
      "name": "checkQuorum",
      "outputs": [
        {
          "name": "",
          "type": "bool"
        }
      ],
      "payable": false,
      "stateMutability": "view",
      "type": "function"
    },
    {
      "constant": true,
      "inputs": [
        {
          "name": "_creator",
          "type": "bytes32"
        },
        {
          "name": "_id",
          "type": "string"
        },
        {
          "name": "_txid",
          "type": "uint256"
        }
      ],
      "name": "getShards",
      "outputs": [
        {
          "name": "",
          "type": "string[]"
        }
      ],
      "payable": false,
      "stateMutability": "view",
      "type": "function"
    },
    {
      "constant": false,
      "inputs": [
        {
          "name": "user",
          "type": "address"
        },
        {
          "name": "token",
          "type": "address"
        }
      ],
      "name": "snapshotBalance",
      "outputs": [],
      "payable": false,
      "stateMutability": "nonpayable",
      "type": "function"
    },
    {
      "constant": false,
      "inputs": [
        {
          "name": "user",
          "type": "address"
        },
        {
          "name": "token",
          "type": "address"
        },
        {
          "name": "fromTime",
          "type": "uint256"
        },
        {
          "name": "toTime",
          "type": "uint256"
        }
      ],
      "name": "calculateAverageBalance",
      "outputs": [],
      "payable": false,
      "stateMutability": "nonpayable",
      "type": "function"
    },
    {
      "constant": false,
      "inputs": [
        {
          "name": "_token",
          "type": "address"
        }
      ],
      "name": "collectCustodyFee",
      "outputs": [
        {
          "name": "",
          "type": "uint256"
        }
      ],
      "payable": false,
      "stateMutability": "nonpayable",
      "type": "function"
    }
  ],
  "bytecode": "0x60806040523480156200001157600080fd5b5062000028336200004060201b620017711760201c565b606680546001600160a01b03191633179055620001cd565b600054610100900460ff1680620000625750620000626200014560201b60201c565b8062000071575060005460ff16155b620000b3576040517f08c379a0000000000000000000000000000000000000000000000000000000008152600401620000aa90620001ac565b60405180910390fd5b600054610100900460ff16158015620000df576000805460ff1961ff0019909116610100171660011790555b603380546001600160a01b0319166001600160a01b0384811691909117918290556040519116906000907f8be0079c531659141344cd1fd0a4f28419497f9722a3daafe3b4186f6b6457e0908290a3801562000141576000805461ff00191690555b5050565b303b1590565b60006200015a602e83620001c4565b7f436f6e747261637420696e7374616e63652068617320616c726561647920626581527f656e20696e697469616c697a6564000000000000000000000000000000000000602082015260400192915050565b60208082528101620001be816200014b565b92915050565b90815260200190565b612ec180620001dd6000396000f3fe608060405234801561001057600080fd5b50600436106101735760003560e01c80637c52c77a116100de578063c4d66de811610097578063dbcc0ef611610071578063dbcc0ef614610342578063e70eedb014610355578063f2fde38b14610368578063f4f331111461037b57610173565b8063c4d66de814610309578063cdc70db21461031c578063d29da2a71461032f57610173565b80637c52c77a1461029357806388a563a7146102a65780638c4b3bcd146102b95780638da5cb5b146102cc5780638f32d59b146102e1578063b418cd88146102e957610173565b80634540dbf4116101305780634540dbf41461021257806348476c7114610225578063715018a61461023857806375619ab514610240578063771800801461025357806378632fb21461027357610173565b806320ffb7fb146101785780632c5e772f1461018d5780633136abd3146101a05780633dbcc3e0146101b3578063424559b8146101dc57806344d00f82146101fd575b600080fd5b61018b6101863660046125df565b61038e565b005b61018b61019b366004612710565b610676565b61018b6101ae3660046123c2565b6106ab565b6101c66101c13660046121e4565b6107fd565b6040516101d39190612df3565b60405180910390f35b6101ef6101ea366004612244565b610936565b6040516101d3929190612cc4565b61020561097d565b6040516101d39190612c94565b6101c6610220366004612310565b6109df565b61018b61023336600461220a565b610aa8565b61018b610bbc565b61018b61024e3660046121e4565b610c2d565b610266610261366004612310565b610c7f565b6040516101d39190612d22565b610286610281366004612562565b610dd2565b6040516101d39190612cb6565b61018b6102a13660046124b6565b611015565b61018b6102b436600461241f565b611191565b61018b6102c7366004612310565b61139e565b6102d4611428565b6040516101d39190612c6b565b610286611437565b6102fc6102f73660046123c2565b61145d565b6040516101d39190612ca5565b61018b6103173660046121e4565b611771565b61018b61032a366004612291565b611847565b61018b61033d366004612310565b611990565b61018b610350366004612365565b611b80565b61018b6103633660046123c2565b611d05565b61018b6103763660046121e4565b611dce565b61018b61038936600461268b565b611e01565b8386868080601f016020809104026020016040519081016040528093929190818152602001838380828437600092019190915250506040516103d69250839150602001612c48565b60408051601f1981840301815282825280516020918201206000868152606a8352929092209192610408929101612c54565b604051602081830303815290604052805190602001201461044757604051600160e51b62461bcd02815260040161043e90612dd3565b60405180910390fd5b838360405160200161045a929190612c3b565b60408051601f19818403018152828252805160209182012060008d8152606d83528381208b82528352929092209192610494929101612c54565b60405160208183030381529060405280519060200120146104b457600080fd5b60005b60008a81526070602052604090205481101561066a5760008a81526070602052604090208054879190839081106104ea57fe5b90600052602060002090600202016000015414156106625760005b60008b815260706020526040902080548390811061051f57fe5b9060005260206000209060020201600101805490508110156106255760008b815260706020526040902080548991908490811061055857fe5b9060005260206000209060020201600101828154811061057457fe5b9060005260206000200154141561058a57610625565b60008b81526070602052604090208054839081106105a457fe5b906000526020600020906002020160010181815481106105c057fe5b90600052602060002001546000141561061d5760008b81526070602052604090208054899190849081106105f057fe5b9060005260206000209060020201600101828154811061060c57fe5b600091825260209091200155610625565b600101610505565b507faff273650e3a4ea06a9841f55dd08ea83018f0c09836f109ccba14823e59de478a888860405161065993929190612cfa565b60405180910390a15b6001016104b7565b50505050505050505050565b60665433906001600160a01b031681146106a557604051600160e51b62461bcd02815260040161043e90612d43565b50606755565b8383838080601f016020809104026020016040519081016040528093929190818152602001838380828437600092019190915250506040516106f39250839150602001612c48565b60408051601f1981840301815282825280516020918201206000868152606a8352929092209192610725929101612c54565b604051602081830303815290604052805190602001201461075b57604051600160e51b62461bcd02815260040161043e90612dd3565b6000868152606c60209081526040808320868452909152902054156107f5576000868152606b60209081526040808320606c835281842087855290925290912054815481106107a657fe5b60009182526020808320909101829055878252606e8152604080832086845290915281206107d39161202f565b6000868152606d6020908152604080832086845290915281206107f59161202f565b505050505050565b6066546000906001600160a01b0316331461082d57604051600160e51b62461bcd02815260040161043e90612d53565b6001600160a01b0382166000908152607260205260409020546108508180611eca565b6001600160a01b0380851660008181526072602052604090819020939093556066549251600160e01b63a9059cbb028152909263a9059cbb9261089a929116908590600401612c79565b602060405180830381600087803b1580156108b457600080fd5b505af11580156108c8573d6000803e3d6000fd5b505050506040513d601f19601f820116820180604052506108ec91908101906122f2565b50306001600160a01b03167feaad90c8664cdf61d60bd7ba6745a881fd1c38d9f4ff0b373b4365cdeeb0f9e88242604051610928929190612cc4565b60405180910390a292915050565b6071602052826000526040600020602052816000526040600020818154811061095b57fe5b6000918252602090912060029091020180546001909101549093509150839050565b336000908152606960209081526040918290208054835181840281018401909452808452606093928301828280156109d457602002820191906000526020600020905b8154815260200190600101908083116109c0575b505050505090505b90565b60008383838080601f01602080910402602001604051908101604052809392919081815260200183838082843760009201919091525050604051610a299250839150602001612c48565b60408051601f1981840301815282825280516020918201206000868152606a8352929092209192610a5b929101612c54565b6040516020818303038152906040528051906020012014610a9157604051600160e51b62461bcd02815260040161043e90612dd3565b50505060009283525050606f602052604090205490565b60665433906001600160a01b03168114610ad757604051600160e51b62461bcd02815260040161043e90612d43565b604051600160e01b6370a082310281526000906001600160a01b038416906370a0823190610b09908790600401612c6b565b60206040518083038186803b158015610b2157600080fd5b505afa158015610b35573d6000803e3d6000fd5b505050506040513d601f19601f82011682018060405250610b59919081019061272e565b6001600160a01b039485166000908152607160209081526040808320969097168252948552858120865180880190975242875286860192835280546001818101835591835295909120955160029095029095019384555192909301919091555050565b610bc4611437565b610be357604051600160e51b62461bcd02815260040161043e90612d73565b6033546040516000916001600160a01b0316907f8be0079c531659141344cd1fd0a4f28419497f9722a3daafe3b4186f6b6457e0908390a3603380546001600160a01b0319169055565b60665433906001600160a01b03168114610c5c57604051600160e51b62461bcd02815260040161043e90612d43565b50606680546001600160a01b0319166001600160a01b0392909216919091179055565b6000838152606b6020526040902054606090610cb057604051600160e51b62461bcd02815260040161043e90612db3565b8282604051602001610cc3929190612c3b565b60408051601f1981840301815282825280516020918201206000888152606d83528381208352929092209192610cfa929101612c54565b6040516020818303038152906040528051906020012014610d3057604051600160e51b62461bcd02815260040161043e90612dc3565b6000848152606a602090815260409182902080548351601f600260001961010060018616150201909316929092049182018490048402810184019094528084529091830182828015610dc35780601f10610d9857610100808354040283529160200191610dc3565b820191906000526020600020905b815481529060010190602001808311610da657829003601f168201915b505050505090505b9392505050565b60008585858080601f01602080910402602001604051908101604052809392919081815260200183838082843760009201919091525050604051610e1c9250839150602001612c48565b60408051601f1981840301815282825280516020918201206000868152606a8352929092209192610e4e929101612c54565b6040516020818303038152906040528051906020012014610e8457604051600160e51b62461bcd02815260040161043e90612dd3565b604051602001610e9390612c60565b60408051601f19818403018152828252805160209182012060008c8152606d83528381208a82528352929092209192610ecd929101612c54565b604051602081830303815290604052805190602001201415610eee57600080fd5b6000805b60008a815260706020526040902054811015610ff35760008a8152607060205260409020805487919083908110610f2557fe5b9060005260206000209060020201600001541415610feb576000805b60008c8152607060205260409020805484908110610f5b57fe5b906000526020600020906002020160010180549050811015610fce5760008c8152607060205260409020805484908110610f9157fe5b90600052602060002090600202016001018181548110610fad57fe5b9060005260206000200154600014610fc6576001909101905b600101610f41565b5060008b8152606f60205260409020548110610fe957600192505b505b600101610ef2565b50801561100457600193505061100a565b60009350505b505095945050505050565b8386868080601f0160208091040260200160405190810160405280939291908181526020018383808284376000920191909152505060405161105d9250839150602001612c48565b60408051601f1981840301815282825280516020918201206000868152606a835292909220919261108f929101612c54565b60405160208183030381529060405280519060200120146110c557604051600160e51b62461bcd02815260040161043e90612dd3565b6000898152606b60205260409020546110dd57600080fd5b8215611149576000898152606d602090815260408083208984529091529020611107908686612073565b507f5472b7fef042e64eae80068ace4f2e4134b2b13f9f86ac9ae86640bae2b903068987600160405161113c93929190612cd2565b60405180910390a1611186565b7f5472b7fef042e64eae80068ace4f2e4134b2b13f9f86ac9ae86640bae2b903068987600060405161117d93929190612cd2565b60405180910390a15b505050505050505050565b8585858080601f016020809104026020016040519081016040528093929190818152602001838380828437600092019190915250506040516111d99250839150602001612c48565b60408051601f1981840301815282825280516020918201206000868152606a835292909220919261120b929101612c54565b604051602081830303815290604052805190602001201461124157604051600160e51b62461bcd02815260040161043e90612dd3565b8383604051602001611254929190612c3b565b60408051601f19818403018152828252805160209182012060008c8152606e83528381208a8252835292909220919261128e929101612c54565b60405160208183030381529060405280519060200120146112cf576000888152606e6020908152604080832088845290915290206112cd908585612073565b505b6000805b60008a8152606b60205260409020548110156113245760008a8152606b6020526040902080548891908390811061130657fe5b9060005260206000200154141561131c57600191505b6001016112d3565b50858914158015611333575080155b15611186576000898152606b602081815260408084208054606c84528286208c875284528286208190559383526001840181558452922001879055517faa6e23bdac31ae314e8eec6a579fd0418f7b5f0bca74e9ef11e78373cec74dd59061117d908b908990612cc4565b6000838152606b6020526040902054156113b757600080fd5b336000908152606960209081526040808320805460018101825590845282842001869055858352606a90915290206113f0908383612073565b5050506000818152606b602081815260408084208054606c845282862084529185208290559282526001810183559183529091200155565b6033546001600160a01b031690565b6033546000906001600160a01b031661144e611efa565b6001600160a01b031614905090565b60608484848080601f016020809104026020016040519081016040528093929190818152602001838380828437600092019190915250506040516114a79250839150602001612c48565b60408051601f1981840301815282825280516020918201206000868152606a83529290922091926114d9929101612c54565b604051602081830303815290604052805190602001201461150f57604051600160e51b62461bcd02815260040161043e90612dd3565b60005b60008881526070602052604090205481101561176557600088815260706020526040902080548691908390811061154557fe5b906000526020600020906002020160000154141561175d576000888152606f6020908152604080832054607090925290912080548390811061158357fe5b9060005260206000209060020201600101805490501061175d576000888152607060205260409020805460609190839081106115bb57fe5b90600052602060002090600202016001018054905060405190808252806020026020018201604052801561160357816020015b60608152602001906001900390816115ee5790505b50905060005b60008a815260706020526040902080548490811061162357fe5b9060005260206000209060020201600101805490508110156117535760008a8152606e602090815260408083206070909252822080549192918690811061166657fe5b9060005260206000209060020201600101838154811061168257fe5b906000526020600020015481526020019081526020016000208054600181600116156101000203166002900480601f01602080910402602001604051908101604052809291908181526020018280546001816001161561010002031660029004801561172f5780601f106117045761010080835404028352916020019161172f565b820191906000526020600020905b81548152906001019060200180831161171257829003601f168201915b505050505082828151811061174057fe5b6020908102919091010152600101611609565b5093506117679050565b600101611512565b505b5050949350505050565b600054610100900460ff168061178a575061178a611efe565b80611798575060005460ff16155b6117b757604051600160e51b62461bcd02815260040161043e90612d83565b600054610100900460ff161580156117e2576000805460ff1961ff0019909116610100171660011790555b603380546001600160a01b0319166001600160a01b0384811691909117918290556040519116906000907f8be0079c531659141344cd1fd0a4f28419497f9722a3daafe3b4186f6b6457e0908290a38015611843576000805461ff00191690555b5050565b60665433906001600160a01b0316811461187657604051600160e51b62461bcd02815260040161043e90612d43565b6001600160a01b03808616600090815260716020908152604080832093881683529290529081209080805b835481101561192c57868482815481106118b757fe5b906000526020600020906002020160000154101580156118f45750858482815481106118df57fe5b90600052602060002090600202016000015411155b156119245783818154811061190557fe5b9060005260206000209060020201600101548301925081806001019250505b6001016118a1565b508015611986576001600160a01b03871660009081526072602052604090205460675461196c9190611967906119628686611f04565b611f37565b611f82565b6001600160a01b0388166000908152607260205260409020555b5050505050505050565b8282828080601f016020809104026020016040519081016040528093929190818152602001838380828437600092019190915250506040516119d89250839150602001612c48565b60408051601f1981840301815282825280516020918201206000868152606a8352929092209192611a0a929101612c54565b6040516020818303038152906040528051906020012014611a4057604051600160e51b62461bcd02815260040161043e90612dd3565b6000858152606b602090815260409182902054825181815281830281019092019092526060918015611a7c578160200160208202803883390190505b5090506068544214611a8e5742611a95565b6068546001015b606855611aa06120f1565b506040805180820182526068548152602080820184815260008a8152607083529384208054600181810180845592875295849020855160029092020190815591518051949591948694611af793850192019061210b565b506000925050505b6000888152606b6020526040902054811015611986576000888152606b6020526040902080547f7f8d3f14b960b3bcf34baea4b46178e331b54a33e565d7d50d77cdfe9e926fe8918a9184908110611b5357fe5b9060005260206000200154606854604051611b7093929190612cfa565b60405180910390a1600101611aff565b8383838080601f01602080910402602001604051908101604052809392919081815260200183838082843760009201919091525050604051611bc89250839150602001612c48565b60408051601f1981840301815282825280516020918201206000868152606a8352929092209192611bfa929101612c54565b6040516020818303038152906040528051906020012014611c3057604051600160e51b62461bcd02815260040161043e90612dd3565b6000805b33600090815260696020526040902054811015611cad57336000908152606960205260409020805489919083908110611c6957fe5b90600052602060002001541415611ca55733600090815260696020526040902080546001935082908110611c9957fe5b60009182526020822001555b600101611c34565b50600181151514611cd357604051600160e51b62461bcd02815260040161043e90612dd3565b5050506001600160a01b0316600090815260696020908152604082208054600181018255908352912001929092555050565b8383838080601f01602080910402602001604051908101604052809392919081815260200183838082843760009201919091525050604051611d4d9250839150602001612c48565b60408051601f1981840301815282825280516020918201206000868152606a8352929092209192611d7f929101612c54565b6040516020818303038152906040528051906020012014611db557604051600160e51b62461bcd02815260040161043e90612dd3565b50506000938452606f6020526040909320929092555050565b611dd6611437565b611df557604051600160e51b62461bcd02815260040161043e90612d73565b611dfe81611faa565b50565b8484848080601f01602080910402602001604051908101604052809392919081815260200183838082843760009201919091525050604051611e499250839150602001612c48565b60408051601f1981840301815282825280516020918201206000868152606a8352929092209192611e7b929101612c54565b6040516020818303038152906040528051906020012014611eb157604051600160e51b62461bcd02815260040161043e90612dd3565b6000878152606a60205260409020611986908585612073565b600082821115611eef57604051600160e51b62461bcd02815260040161043e90612d63565b508082035b92915050565b3390565b303b1590565b600081611f2657604051600160e51b62461bcd02815260040161043e90612da3565b818381611f2f57fe5b049392505050565b6000828202831580611f51575082848281611f4e57fe5b04145b611f7057604051600160e51b62461bcd02815260040161043e90612de3565b670de0b6b3a764000090049392505050565b600082820183811015610dcb57604051600160e51b62461bcd02815260040161043e90612d93565b6001600160a01b038116611fd357604051600160e51b62461bcd02815260040161043e90612d33565b6033546040516001600160a01b038084169216907f8be0079c531659141344cd1fd0a4f28419497f9722a3daafe3b4186f6b6457e090600090a3603380546001600160a01b0319166001600160a01b0392909216919091179055565b50805460018160011615610100020316600290046000825580601f106120555750611dfe565b601f016020900490600052602060002090810190611dfe9190612146565b828054600181600116156101000203166002900490600052602060002090601f016020900481019282601f106120b45782800160ff198235161785556120e1565b828001600101855582156120e1579182015b828111156120e15782358255916020019190600101906120c6565b506120ed929150612146565b5090565b604051806040016040528060008152602001606081525090565b8280548282559060005260206000209081019282156120e1579160200282015b828111156120e157825182559160200191906001019061212b565b6109dc91905b808211156120ed576000815560010161214c565b6000610dcb8235612e25565b6000610dcb8235612e30565b6000610dcb8251612e30565b6000610dcb82356109dc565b60008083601f8401126121a257600080fd5b5081356001600160401b038111156121b957600080fd5b6020830191508360018202830111156121d157600080fd5b9250929050565b6000610dcb82516109dc565b6000602082840312156121f657600080fd5b60006122028484612160565b949350505050565b6000806040838503121561221d57600080fd5b60006122298585612160565b925050602061223a85828601612160565b9150509250929050565b60008060006060848603121561225957600080fd5b60006122658686612160565b935050602061227686828701612160565b925050604061228786828701612184565b9150509250925092565b600080600080608085870312156122a757600080fd5b60006122b38787612160565b94505060206122c487828801612160565b93505060406122d587828801612184565b92505060606122e687828801612184565b91505092959194509250565b60006020828403121561230457600080fd5b60006122028484612178565b60008060006040848603121561232557600080fd5b60006123318686612184565b93505060208401356001600160401b0381111561234d57600080fd5b61235986828701612190565b92509250509250925092565b6000806000806060858703121561237b57600080fd5b60006123878787612184565b94505060208501356001600160401b038111156123a357600080fd5b6123af87828801612190565b935093505060406122e687828801612160565b600080600080606085870312156123d857600080fd5b60006123e48787612184565b94505060208501356001600160401b0381111561240057600080fd5b61240c87828801612190565b935093505060406122e687828801612184565b6000806000806000806080878903121561243857600080fd5b60006124448989612184565b96505060208701356001600160401b0381111561246057600080fd5b61246c89828a01612190565b9550955050604061247f89828a01612184565b93505060608701356001600160401b0381111561249b57600080fd5b6124a789828a01612190565b92509250509295509295509295565b600080600080600080600060a0888a0312156124d157600080fd5b60006124dd8a8a612184565b97505060208801356001600160401b038111156124f957600080fd5b6125058a828b01612190565b965096505060406125188a828b01612184565b94505060608801356001600160401b0381111561253457600080fd5b6125408a828b01612190565b935093505060806125538a828b0161216c565b91505092959891949750929550565b60008060008060006080868803121561257a57600080fd5b60006125868888612184565b95505060208601356001600160401b038111156125a257600080fd5b6125ae88828901612190565b945094505060406125c188828901612184565b92505060606125d288828901612184565b9150509295509295909350565b600080600080600080600060a0888a0312156125fa57600080fd5b60006126068a8a612184565b97505060208801356001600160401b0381111561262257600080fd5b61262e8a828b01612190565b965096505060406126418a828b01612184565b94505060606126528a828b01612184565b93505060808801356001600160401b0381111561266e57600080fd5b61267a8a828b01612190565b925092505092959891949750929550565b6000806000806000606086880312156126a357600080fd5b60006126af8888612184565b95505060208601356001600160401b038111156126cb57600080fd5b6126d788828901612190565b945094505060408601356001600160401b038111156126f557600080fd5b61270188828901612190565b92509250509295509295909350565b60006020828403121561272257600080fd5b60006122028484612184565b60006020828403121561274057600080fd5b600061220284846121d8565b60006127588383612843565b505060200190565b6000610dcb838361286b565b61277581612e25565b82525050565b600061278682612e13565b6127908185612e17565b935061279b83612e01565b60005b828110156127c6576127b186835161274c565b95506127bc82612e01565b915060010161279e565b5093949350505050565b60006127db82612e13565b6127e58185612e17565b9350836020820285016127f785612e01565b60005b8481101561282e578383038852612812838351612760565b925061281d82612e01565b6020989098019791506001016127fa565b50909695505050505050565b61277581612e30565b612775816109dc565b60006128588385612e20565b9350612865838584612e41565b50500190565b600061287682612e13565b6128808185612e17565b9350612890818560208601612e4d565b61289981612e7d565b9093019392505050565b60006128ae82612e13565b6128b88185612e20565b93506128c8818560208601612e4d565b9290920192915050565b6000815460018116600081146128ef576001811461291257612951565b607f60028304166129008187612e20565b60ff1984168152955085019250612951565b600282046129208187612e20565b955061292b85612e07565b60005b8281101561294a5781548882015260019091019060200161292e565b5050850192505b505092915050565b6000612966602683612e17565b7f4f776e61626c653a206e6577206f776e657220697320746865207a65726f20618152600160d01b6564647265737302602082015260400192915050565b60006129b1601783612e17565b7f4e6f7420612076616c6964206469737472696275746f72000000000000000000815260200192915050565b60006129ea601b83612e17565b7f556e617574686f72697a65642066656520636f6c6c656374696f6e0000000000815260200192915050565b6000612a23600c83612e17565b7f5355425f4f564552464c4f570000000000000000000000000000000000000000815260200192915050565b6000612a5c602083612e17565b7f4f776e61626c653a2063616c6c6572206973206e6f7420746865206f776e6572815260200192915050565b6000612a95602e83612e17565b7f436f6e747261637420696e7374616e63652068617320616c726561647920626581527f656e20696e697469616c697a6564000000000000000000000000000000000000602082015260400192915050565b6000612af4600c83612e17565b7f4144445f4f564552464c4f570000000000000000000000000000000000000000815260200192915050565b6000612b2d600d83612e17565b7f5a45524f5f4449564953494f4e00000000000000000000000000000000000000815260200192915050565b6000611ef4600083612e20565b6000612b73601283612e17565b7f57616c6c6574206e6f7420637265617465640000000000000000000000000000815260200192915050565b6000612bac600b83612e17565b600160a91b6a24b73b30b634b2102824a702815260200192915050565b6000612bd6601283612e17565b7f4e6f7420612076616c6964207369676e65720000000000000000000000000000815260200192915050565b6000612c0f600c83612e17565b7f4d554c5f4f564552464c4f570000000000000000000000000000000000000000815260200192915050565b600061220282848661284c565b6000610dcb82846128a3565b6000610dcb82846128d2565b6000611ef482612b59565b60208101611ef4828461276c565b60408101612c87828561276c565b610dcb6020830184612843565b60208082528101610dcb818461277b565b60208082528101610dcb81846127d0565b60208101611ef4828461283a565b60408101612c878285612843565b60608101612ce08286612843565b612ced6020830185612843565b612202604083018461283a565b60608101612d088286612843565b612d156020830185612843565b6122026040830184612843565b60208082528101610dcb818461286b565b60208082528101611ef481612959565b60208082528101611ef4816129a4565b60208082528101611ef4816129dd565b60208082528101611ef481612a16565b60208082528101611ef481612a4f565b60208082528101611ef481612a88565b60208082528101611ef481612ae7565b60208082528101611ef481612b20565b60208082528101611ef481612b66565b60208082528101611ef481612b9f565b60208082528101611ef481612bc9565b60208082528101611ef481612c02565b60208101611ef48284612843565b60200190565b60009081526020902090565b5190565b90815260200190565b919050565b6000611ef482612e35565b151590565b6001600160a01b031690565b82818337506000910152565b60005b83811015612e68578181015183820152602001612e50565b83811115612e77576000848401525b50505050565b601f01601f19169056fea265627a7a72305820f7f25996cab27b7c300baf320725df98ea3c8659de24101a8a369fbd538f93246c6578706572696d656e74616cf50037",
  "source": "// Implementation of the Verified custody vault\r\n// Manages accounts, participants and vault policies\r\n// (c) Kallol Borah, Verified Network, 2021\r\n\r\npragma solidity 0.5.7;\r\npragma experimental ABIEncoderV2;\r\n\r\nimport \"./IVault.sol\";\r\nimport \"./math/Math.sol\";\r\nimport \"./math/FixedPoint.sol\";\r\nimport \"@openzeppelin/contracts-ethereum-package/contracts/ownership/Ownable.sol\";\r\nimport \"@openzeppelin/contracts-ethereum-package/contracts/token/ERC20/IERC20.sol\";\r\nimport \"@openzeppelin/contracts-ethereum-package/contracts/token/ERC20/ERC20Detailed.sol\";\r\n\r\ncontract Vault is IVault, Ownable {\r\n\r\n    using FixedPoint for uint256;\r\n\r\n    //distributor authorized to collect custody fee\r\n    address private distributor;\r\n\r\n    // custody fee as percentage of average assets in balance\r\n    uint256 private custodyfee;\r\n    \r\n    //counter for block timestamp nonce\r\n    uint256 private txid;\r\n\r\n    //mapping of signer address to creator bytes32 id\r\n    mapping(address => bytes32[]) private signers;\r\n\r\n    //mapping signer (its bytes32 ID, eg creator@vault.com) to its address to its token (eg, Google/Apple push notification token)\r\n    mapping(bytes32 => string) private creators;\r\n\r\n    //creating vault by mapping its creator (bytes32 ID, eg, creator@vault.com) to participants (bytes32 IDs, eg, participant@email.com) in the vault\r\n    mapping(bytes32 => bytes32[]) private vaults;\r\n\r\n    //positional index of cosigners for vault. Mapping of vault creator to participant to its position\r\n    mapping(bytes32 => mapping(bytes32 => uint256)) private cosigners;\r\n\r\n    //mapping vault (bytes32 ID, eg creator@vault.com) to participants (bytes32 ID, eg, participant@email.com) to their pin (string)\r\n    mapping(bytes32 => mapping(bytes32 => string)) private pins;\r\n\r\n    //mapping vault (bytes32 ID, eg creator@vault.com) to participants (bytes32 ID, eg, participant@email.com) to their key shard (string)\r\n    mapping(bytes32 => mapping(bytes32 => string)) private shards;\r\n\r\n    //mapping vault (bytes32 ID, eg creator@vault.com) to number of minimum co-signers required for quorum (uint256)\r\n    mapping(bytes32 => uint256) private quorum;\r\n\r\n    //mapping vault (bytes32 ID, eg creator@vault.com) to transactions\r\n    mapping(bytes32 => transaction[]) private transactions;\r\n\r\n    //event that helps notify a participant to confirm PIN and shard\r\n    event NewParticipant(bytes32 creator, bytes32 participant);\r\n\r\n    //event that helps notify a participant to co-sign a transaction\r\n    event NewTransaction(bytes32 creator, bytes32 participant, uint256 txid);\r\n\r\n    //event that helps notify a creator that a transaction has been signed\r\n    event SignTransaction(bytes32 creator, bytes32 participant, uint256 txid);\r\n\r\n    //events signalling acceptance or rejection of co-signing requests\r\n    event SignResponse(bytes32 creator, bytes32 participant, bool confirmation);\r\n\r\n    //event for fee collection\r\n    event feecollection(address indexed platform, uint256 collection, uint256 timestamp);\r\n\r\n    //snapshots for charging custody fee to users\r\n    struct BalanceSnapshot {\r\n        uint256 timestamp;\r\n        uint256 balance;\r\n    }\r\n\r\n    //mapping users to tokens to their balance snapshots\r\n    mapping(address => mapping(address => BalanceSnapshot[])) public userSnapshots;\r\n\r\n    // mapping token address to issuing fee collected\r\n    mapping(address => uint256) private fees;\r\n\r\n    // modifiers\r\n    modifier onlySigner(bytes32 _creator, string memory _id) {\r\n        require(keccak256(abi.encodePacked(creators[_creator])) == keccak256(abi.encodePacked(_id)), 'Not a valid signer');\r\n        _;\r\n    }\r\n\r\n    modifier onlyAuthorized(address _caller) {\r\n        require(_caller==distributor, 'Not a valid distributor');\r\n        _;\r\n    }\r\n\r\n    constructor() public{\r\n        Ownable.initialize(msg.sender);\r\n        distributor = msg.sender;\r\n    }\r\n\r\n    function setDistributor(address _nominee) public onlyAuthorized(msg.sender){\r\n        distributor = _nominee;\r\n    }\r\n\r\n    function setCustodyFee(uint256 _fee) public onlyAuthorized(msg.sender){\r\n        custodyfee = _fee;\r\n    }\r\n\r\n    /**\r\n        This function creates a vault for the creator\r\n        @param _creator vault creator's username, eg, creator@email.com\r\n        @param _id vault creator's unique id using which it can be reached, eg, its Google/APNS token\r\n     */\r\n    function createVault(bytes32 _creator, string calldata _id) external {\r\n        require(vaults[_creator].length==0);\r\n        signers[msg.sender].push(_creator);\r\n        creators[_creator] = _id;\r\n        cosigners[_creator][_creator] = vaults[_creator].length;\r\n        vaults[_creator].push(_creator);\r\n    }\r\n\r\n\r\n    /**\r\n        This function resets the vault owner's unique id\r\n        @param _creator the vault's creator (eg, creator@email.com)\r\n        @param _id vault creator's unique id using which it can be reached, eg, its Google/APNS token\r\n        @param _new vault creator's new unique id\r\n     */\r\n    function resetPin(bytes32 _creator, string calldata _id, string calldata _new) onlySigner(_creator, _id) external {\r\n        creators[_creator] = _new;\r\n    }\r\n\r\n    /**\r\n        This function returns list of vault creators\r\n     */\r\n    function getVaults() external view returns(bytes32[] memory){\r\n        return signers[msg.sender];\r\n    }\r\n\r\n    /**\r\n        This function transfers a vault from the transferor (msg.sender) to transferee\r\n        @param  _creator    vault to transfer\r\n        @param _id          vault creator's unique id using which it can be reached, eg, its Google/APNS token\r\n        @param  _transferee address of the new vault operator\r\n     */\r\n    function transferVault(bytes32 _creator, string calldata _id, address _transferee) onlySigner(_creator, _id) external {\r\n        bool found = false;\r\n        for(uint i=0; i<signers[msg.sender].length; i++){\r\n            if(signers[msg.sender][i]==_creator){\r\n                found = true;\r\n                delete signers[msg.sender][i];\r\n            }\r\n        }\r\n        require(found==true, 'Not a valid signer');\r\n        signers[_transferee].push(_creator);\r\n    }\r\n\r\n    /**\r\n        This function returns the vault creator's unique ID (eg, Google/APNS messaging token)\r\n        @param _creator the vault creator (eg, creator@email.com)\r\n        @return the vault creator's unique ID\r\n     */\r\n    function getCreator(bytes32 _creator, string calldata _pin) external view returns(string memory){  \r\n        require(vaults[_creator].length>0, \"Wallet not created\");   \r\n        require(keccak256(abi.encodePacked(pins[_creator][_creator])) == keccak256(abi.encodePacked(_pin)), \"Invalid PIN\");   \r\n        return creators[_creator];        \r\n    }\r\n\r\n    /**\r\n        This function adds a participant to a vault that belongs to its creator\r\n        @param _creator vault creator's username, eg creator@email.com\r\n        @param _id vault creator's unique id using which it can be reached, eg, its Google/APNS token\r\n        @param _participant vault participant's username, eg participant@email.com\r\n        @param _shard the private key shard of the participant\r\n     */\r\n    function addParticipant(bytes32 _creator, string calldata _id, bytes32 _participant, string calldata _shard) onlySigner(_creator, _id) external {\r\n        //require(vaults[_participant].length>0); //participant does not have a vault yet\r\n        if(keccak256(abi.encodePacked(shards[_creator][_participant]))!=keccak256(abi.encodePacked(_shard)))\r\n            shards[_creator][_participant] = _shard;\r\n        bool present = false;\r\n        for(uint i=0; i<vaults[_creator].length; i++){\r\n            if(vaults[_creator][i]==_participant)\r\n                present = true;\r\n        }\r\n        if(_creator!=_participant && !present){\r\n            cosigners[_creator][_participant] = vaults[_creator].length;\r\n            vaults[_creator].push(_participant); \r\n            emit NewParticipant(_creator, _participant);\r\n        }\r\n    }\r\n\r\n    /**\r\n        This function removes a participant in a vault that belongs to its creator\r\n        @param _creator vault creator's username, eg creator@email.com\r\n        @param _id vault creator's unique id using which it can be reached, eg, its Google/APNS token\r\n        @param _participant vault participant's username, eg participant@email.com\r\n     */\r\n    function removeParticipant(bytes32 _creator, string calldata _id, bytes32 _participant) onlySigner(_creator, _id) external {\r\n        if(cosigners[_creator][_participant] > 0){\r\n            delete vaults[_creator][cosigners[_creator][_participant]];\r\n            delete shards[_creator][_participant];\r\n            delete pins[_creator][_participant];\r\n        }\r\n    } \r\n\r\n    /**\r\n        This function confirms a participant in the vault when the participant sends its private key shard and PIN\r\n        @param _creator the vault's creator (eg, creator@email.com)\r\n        @param _id vault creator's unique id using which it can be reached, eg, its Google/APNS token\r\n        @param _participant the vault's participant (eg, participant@email.com)\r\n        @param _pin the PIN number of the participant\r\n        @param _confirmation true or false\r\n     */\r\n    function confirmParticipant(bytes32 _creator, string calldata _id, bytes32 _participant, string calldata _pin, bool _confirmation) onlySigner(_participant, _id) external {\r\n        require(vaults[_creator].length>0);\r\n        if(_confirmation){\r\n            pins[_creator][_participant] = _pin;\r\n            emit SignResponse(_creator, _participant, true);\r\n        }\r\n        else\r\n           emit SignResponse(_creator, _participant, false); \r\n    }\r\n\r\n    /**\r\n        This function defines the number of participants required to co-sign a transaction\r\n        @param _creator the vault's creator (eg, creator@email.com)\r\n        @param _id vault creator's unique id using which it can be reached, eg, its Google/APNS token\r\n        @param _minParticipants the minimum number of co-signers\r\n     */\r\n    function defineQuorum(bytes32 _creator, string calldata _id, uint256 _minParticipants) onlySigner(_creator, _id) external {\r\n        quorum[_creator] = _minParticipants;\r\n    }\r\n\r\n    /**\r\n        This function retrieves the number of participants required to co-sign a transaction\r\n        @param _creator the vault's creator (eg, creator@email.com)\r\n        @param _id vault creator's unique id using which it can be reached, eg, its Google/APNS token\r\n     */\r\n    function getQuorum(bytes32 _creator, string calldata _id) onlySigner(_creator, _id) external view returns(uint256){\r\n        return quorum[_creator];\r\n    }\r\n\r\n    /**\r\n        This function prompts participants to co-sign a transaction on the vault (ie, the creator's address secured by the quorum of participants)\r\n        @param _creator the vault's creator (eg, creator@email.com)\r\n        @param _id vault creator's unique id using which it can be reached, eg, its Google/APNS token\r\n     */\r\n    function promptSignatures(bytes32 _creator, string calldata _id) onlySigner(_creator, _id) external {\r\n        bytes32[] memory cs = new bytes32[](vaults[_creator].length);\r\n        txid = block.timestamp == txid ? txid + 1 : block.timestamp;\r\n        transaction memory currentTx = transaction({\r\n            datetime : txid,\r\n            cosigners : cs\r\n        });\r\n        transactions[_creator].push(currentTx);\r\n        for(uint256 i=0; i<vaults[_creator].length; i++){\r\n            emit NewTransaction(_creator, vaults[_creator][i], txid);\r\n        }\r\n    }\r\n\r\n    /**\r\n        This function lets a participant co-sign a transaction\r\n        @param _creator the vault's creator (eg, creator@email.com)\r\n        @param _id vault creator's unique id using which it can be reached, eg, its Google/APNS token\r\n        @param _participant the vault's participant (eg, participant@email.com)\r\n        @param _tx transaction identifier\r\n        @param _pin the PIN number of the signer (participant)\r\n     */\r\n    function signTransaction(bytes32 _creator, string calldata _id, bytes32 _participant, uint256 _tx, string calldata _pin) onlySigner(_participant, _id) external {\r\n        require(keccak256(abi.encodePacked(pins[_creator][_participant]))==keccak256(abi.encodePacked(_pin)));\r\n        for(uint i=0; i<transactions[_creator].length; i++){\r\n            if(transactions[_creator][i].datetime==_tx){\r\n                for(uint j=0; j<transactions[_creator][i].cosigners.length; j++){\r\n                    if(transactions[_creator][i].cosigners[j]==_participant)\r\n                        break;\r\n                    if(transactions[_creator][i].cosigners[j]==\"\"){\r\n                        transactions[_creator][i].cosigners[j]=_participant;\r\n                        break;\r\n                    }\r\n                }\r\n                emit SignTransaction(_creator, _participant, _tx);\r\n            }\r\n        }\r\n    }\r\n\r\n    /**\r\n        This function lets the creator check if quorum has been achieved for a particular transaction\r\n        @param _creator vault creator's username, eg creator@email.com\r\n        @param _id vault creator's unique id using which it can be reached, eg, its Google/APNS token\r\n        @param _participant vault participant's username, eg participant@email.com\r\n        @param _txid transaction identifier\r\n     */\r\n    function checkQuorum(bytes32 _creator, string calldata _id, bytes32 _participant, uint256 _txid) onlySigner(_creator, _id) external view returns(bool){\r\n        require(keccak256(abi.encodePacked(pins[_creator][_participant]))!=keccak256(abi.encodePacked(\"\")));\r\n        bool _quorum = false;\r\n        for(uint i=0; i<transactions[_creator].length; i++){\r\n            if(transactions[_creator][i].datetime==_txid){\r\n                uint256 signedCount = 0;\r\n                for (uint256 j = 0; j < transactions[_creator][i].cosigners.length; j++) {\r\n                    if (transactions[_creator][i].cosigners[j] != \"\") {\r\n                        signedCount++;\r\n                    }\r\n                }\r\n                if (signedCount >= quorum[_creator]) {\r\n                    _quorum = true;\r\n                }\r\n            }\r\n        }        \r\n        if(_quorum)\r\n            return true;\r\n        else\r\n            return false;\r\n    }\r\n    \r\n    /**\r\n        This function gets the shard for a participant\r\n        @param _creator vault creator's username, eg creator@email.com\r\n        @param _id vault creator's unique id using which it can be reached, eg, its Google/APNS token\r\n        @param _txid transaction identifier \r\n     */\r\n    function getShards(bytes32 _creator, string calldata _id, uint256 _txid) onlySigner(_creator, _id) external view returns(string[] memory){\r\n        for(uint i=0; i<transactions[_creator].length; i++){\r\n            if(transactions[_creator][i].datetime==_txid){\r\n                if(transactions[_creator][i].cosigners.length >= quorum[_creator]){\r\n                    string[] memory keyShards = new string[](transactions[_creator][i].cosigners.length);\r\n                    for(uint j=0; j<transactions[_creator][i].cosigners.length; j++){\r\n                        keyShards[j] = shards[_creator][transactions[_creator][i].cosigners[j]];                        \r\n                    }\r\n                    //delete transactions[_creator][i];\r\n                    return keyShards;\r\n                }\r\n            }\r\n        }\r\n    }\r\n\r\n    /**\r\n        This function takes a snapshot of the token balance for the user\r\n        @param user user address\r\n        @param token token address\r\n     */\r\n    function snapshotBalance(address user, address token) external onlyAuthorized(msg.sender){\r\n        uint256 currentBalance = IERC20(token).balanceOf(user);\r\n        userSnapshots[user][token].push(BalanceSnapshot(block.timestamp, currentBalance));\r\n    }\r\n\r\n    /**\r\n        This function calculates the average balance for a user and a token\r\n        @param user user address\r\n        @param token token address\r\n        @param fromTime time to start calculating token balance from\r\n        @param toTime time to end calculating token balance \r\n     */\r\n    function calculateAverageBalance(address user, address token, uint256 fromTime, uint256 toTime) external onlyAuthorized(msg.sender) {\r\n        BalanceSnapshot[] storage snapshots = userSnapshots[user][token];\r\n        uint256 total = 0;\r\n        uint256 count = 0;\r\n\r\n        for (uint i = 0; i < snapshots.length; i++) {\r\n            if (snapshots[i].timestamp >= fromTime && snapshots[i].timestamp <= toTime) {\r\n                total += snapshots[i].balance;\r\n                count++;\r\n            }\r\n        }\r\n\r\n        if (count != 0){\r\n            fees[token] = Math.add(fees[token], FixedPoint.mulDown(custodyfee, Math.divDown(total, count)));\r\n        } \r\n    }\r\n\r\n    /**\r\n        This function gets the shard for a participant\r\n        @param _token vault creator's username, eg creator@email.com\r\n     */\r\n    function collectCustodyFee(address _token) external returns(uint256){\r\n        require(msg.sender==distributor, \"Unauthorized fee collection\");\r\n        uint256 feeCollected = fees[_token];        \r\n        fees[_token] = Math.sub(fees[_token], feeCollected);\r\n        IERC20(_token).transfer(distributor, feeCollected);\r\n        emit feecollection(address(this), feeCollected, block.timestamp);\r\n        return feeCollected;\r\n    }\r\n\r\n    /**\r\n     * @dev Returns a scaling factor that, when multiplied to a token amount for `token`, normalizes its balance as if\r\n     * it had 18 decimals.\r\n     */\r\n    function _computeScalingFactor(IERC20 token) internal view returns (uint256) {\r\n        // Tokens that don't implement the `decimals` method are not supported.\r\n        uint256 tokenDecimals = ERC20Detailed(address(token)).decimals();\r\n\r\n        // Tokens with more than 18 decimals are not supported.\r\n        uint256 decimalsDifference = Math.sub(18, tokenDecimals);\r\n        return FixedPoint.one() * 10**decimalsDifference;\r\n    }\r\n\r\n    /**\r\n     * @dev Reverses the `scalingFactor` applied to `amount`, resulting in a smaller or equal value depending on\r\n     * whether it needed scaling or not. The result is rounded down.\r\n     */\r\n    function _downscaleDown(uint256 amount, uint256 scalingFactor) internal pure returns (uint256) {\r\n        return FixedPoint.divDown(amount, scalingFactor);\r\n    }\r\n\r\n    /**\r\n     * @dev Applies `scalingFactor` to `amount`, resulting in a larger or equal value depending on whether it needed\r\n     * scaling or not.\r\n     */\r\n    function _upscale(uint256 amount, uint256 scalingFactor) internal pure returns (uint256) {\r\n        // Upscale rounding wouldn't necessarily always go in the same direction: in a swap for example the balance of\r\n        // token in should be rounded up, and that of token out rounded down. This is the only place where we round in\r\n        // the same direction for all amounts, as the impact of this rounding is expected to be minimal (and there's no\r\n        // rounding error unless `_scalingFactor()` is overriden).\r\n        return FixedPoint.mulDown(amount, scalingFactor);\r\n    }\r\n\r\n}",
  "sourcePath": "D:\\Code\\verified-custody\\backend\\contracts\\Vault.sol",
  "compiler": {
    "name": "solc",
    "version": "0.5.7+commit.6da8b019.Emscripten.clang"
  },
  "schemaVersion": "3.4.16",
  "updatedAt": "2025-06-07T19:25:48.843Z",
  "networkType": "ethereum",
  "devdoc": {
    "methods": {
      "addParticipant(bytes32,string,bytes32,string)": {
        "params": {
          "_creator": "vault creator's username, eg creator@email.com\r",
          "_id": "vault creator's unique id using which it can be reached, eg, its Google/APNS token\r",
          "_participant": "vault participant's username, eg participant@email.com\r",
          "_shard": "the private key shard of the participant\r"
        }
      },
      "calculateAverageBalance(address,address,uint256,uint256)": {
        "params": {
          "fromTime": "time to start calculating token balance from\r",
          "toTime": "time to end calculating token balance \r",
          "token": "token address\r",
          "user": "user address\r"
        }
      },
      "checkQuorum(bytes32,string,bytes32,uint256)": {
        "params": {
          "_creator": "vault creator's username, eg creator@email.com\r",
          "_id": "vault creator's unique id using which it can be reached, eg, its Google/APNS token\r",
          "_participant": "vault participant's username, eg participant@email.com\r",
          "_txid": "transaction identifier\r"
        }
      },
      "collectCustodyFee(address)": {
        "params": {
          "_token": "vault creator's username, eg creator@email.com\r"
        }
      },
      "confirmParticipant(bytes32,string,bytes32,string,bool)": {
        "params": {
          "_confirmation": "true or false\r",
          "_creator": "the vault's creator (eg, creator@email.com)\r",
          "_id": "vault creator's unique id using which it can be reached, eg, its Google/APNS token\r",
          "_participant": "the vault's participant (eg, participant@email.com)\r",
          "_pin": "the PIN number of the participant\r"
        }
      },
      "createVault(bytes32,string)": {
        "params": {
          "_creator": "vault creator's username, eg, creator@email.com\r",
          "_id": "vault creator's unique id using which it can be reached, eg, its Google/APNS token\r"
        }
      },
      "defineQuorum(bytes32,string,uint256)": {
        "params": {
          "_creator": "the vault's creator (eg, creator@email.com)\r",
          "_id": "vault creator's unique id using which it can be reached, eg, its Google/APNS token\r",
          "_minParticipants": "the minimum number of co-signers\r"
        }
      },
      "getCreator(bytes32,string)": {
        "params": {
          "_creator": "the vault creator (eg, creator@email.com)\r"
        },
        "return": "the vault creator's unique ID\r"
      },
      "getQuorum(bytes32,string)": {
        "params": {
          "_creator": "the vault's creator (eg, creator@email.com)\r",
          "_id": "vault creator's unique id using which it can be reached, eg, its Google/APNS token\r"
        }
      },
      "getShards(bytes32,string,uint256)": {
        "params": {
          "_creator": "vault creator's username, eg creator@email.com\r",
          "_id": "vault creator's unique id using which it can be reached, eg, its Google/APNS token\r",
          "_txid": "transaction identifier \r"
        }
      },
      "initialize(address)": {
        "details": "Initializes the contract setting the deployer as the initial owner."
      },
      "isOwner()": {
        "details": "Returns true if the caller is the current owner."
      },
      "owner()": {
        "details": "Returns the address of the current owner."
      },
      "promptSignatures(bytes32,string)": {
        "params": {
          "_creator": "the vault's creator (eg, creator@email.com)\r",
          "_id": "vault creator's unique id using which it can be reached, eg, its Google/APNS token\r"
        }
      },
      "removeParticipant(bytes32,string,bytes32)": {
        "params": {
          "_creator": "vault creator's username, eg creator@email.com\r",
          "_id": "vault creator's unique id using which it can be reached, eg, its Google/APNS token\r",
          "_participant": "vault participant's username, eg participant@email.com\r"
        }
      },
      "renounceOwnership()": {
        "details": "Leaves the contract without owner. It will not be possible to call `onlyOwner` functions anymore. Can only be called by the current owner.     * > Note: Renouncing ownership will leave the contract without an owner, thereby removing any functionality that is only available to the owner."
      },
      "resetPin(bytes32,string,string)": {
        "params": {
          "_creator": "the vault's creator (eg, creator@email.com)\r",
          "_id": "vault creator's unique id using which it can be reached, eg, its Google/APNS token\r",
          "_new": "vault creator's new unique id\r"
        }
      },
      "signTransaction(bytes32,string,bytes32,uint256,string)": {
        "params": {
          "_creator": "the vault's creator (eg, creator@email.com)\r",
          "_id": "vault creator's unique id using which it can be reached, eg, its Google/APNS token\r",
          "_participant": "the vault's participant (eg, participant@email.com)\r",
          "_pin": "the PIN number of the signer (participant)\r",
          "_tx": "transaction identifier\r"
        }
      },
      "snapshotBalance(address,address)": {
        "params": {
          "token": "token address\r",
          "user": "user address\r"
        }
      },
      "transferOwnership(address)": {
        "details": "Transfers ownership of the contract to a new account (`newOwner`). Can only be called by the current owner."
      },
      "transferVault(bytes32,string,address)": {
        "params": {
          "_creator": "vault to transfer\r",
          "_id": "vault creator's unique id using which it can be reached, eg, its Google/APNS token\r",
          "_transferee": "address of the new vault operator\r"
        }
      }
    }
  },
  "userdoc": {
    "methods": {
      "addParticipant(bytes32,string,bytes32,string)": {
        "notice": "This function adds a participant to a vault that belongs to its creator\r"
      },
      "calculateAverageBalance(address,address,uint256,uint256)": {
        "notice": "This function calculates the average balance for a user and a token\r"
      },
      "checkQuorum(bytes32,string,bytes32,uint256)": {
        "notice": "This function lets the creator check if quorum has been achieved for a particular transaction\r"
      },
      "collectCustodyFee(address)": {
        "notice": "This function gets the shard for a participant\r"
      },
      "confirmParticipant(bytes32,string,bytes32,string,bool)": {
        "notice": "This function confirms a participant in the vault when the participant sends its private key shard and PIN\r"
      },
      "createVault(bytes32,string)": {
        "notice": "This function creates a vault for the creator\r"
      },
      "defineQuorum(bytes32,string,uint256)": {
        "notice": "This function defines the number of participants required to co-sign a transaction\r"
      },
      "getCreator(bytes32,string)": {
        "notice": "This function returns the vault creator's unique ID (eg, Google/APNS messaging token)\r"
      },
      "getQuorum(bytes32,string)": {
        "notice": "This function retrieves the number of participants required to co-sign a transaction\r"
      },
      "getShards(bytes32,string,uint256)": {
        "notice": "This function gets the shard for a participant\r"
      },
      "getVaults()": {
        "notice": "This function returns list of vault creators\r"
      },
      "promptSignatures(bytes32,string)": {
        "notice": "This function prompts participants to co-sign a transaction on the vault (ie, the creator's address secured by the quorum of participants)\r"
      },
      "removeParticipant(bytes32,string,bytes32)": {
        "notice": "This function removes a participant in a vault that belongs to its creator\r"
      },
      "resetPin(bytes32,string,string)": {
        "notice": "This function resets the vault owner's unique id\r"
      },
      "signTransaction(bytes32,string,bytes32,uint256,string)": {
        "notice": "This function lets a participant co-sign a transaction\r"
      },
      "snapshotBalance(address,address)": {
        "notice": "This function takes a snapshot of the token balance for the user\r"
      },
      "transferVault(bytes32,string,address)": {
        "notice": "This function transfers a vault from the transferor (msg.sender) to transferee\r"
      }
    }
  }
}