{
  "contractName": "Vault",
  "abi": [
    {
      "constant": false,
      "inputs": [],
      "name": "renounceOwnership",
      "outputs": [],
      "payable": false,
      "stateMutability": "nonpayable",
      "type": "function"
    },
    {
      "constant": true,
      "inputs": [],
      "name": "owner",
      "outputs": [
        {
          "name": "",
          "type": "address"
        }
      ],
      "payable": false,
      "stateMutability": "view",
      "type": "function"
    },
    {
      "constant": true,
      "inputs": [],
      "name": "isOwner",
      "outputs": [
        {
          "name": "",
          "type": "bool"
        }
      ],
      "payable": false,
      "stateMutability": "view",
      "type": "function"
    },
    {
      "constant": false,
      "inputs": [
        {
          "name": "sender",
          "type": "address"
        }
      ],
      "name": "initialize",
      "outputs": [],
      "payable": false,
      "stateMutability": "nonpayable",
      "type": "function"
    },
    {
      "constant": false,
      "inputs": [
        {
          "name": "newOwner",
          "type": "address"
        }
      ],
      "name": "transferOwnership",
      "outputs": [],
      "payable": false,
      "stateMutability": "nonpayable",
      "type": "function"
    },
    {
      "inputs": [],
      "payable": false,
      "stateMutability": "nonpayable",
      "type": "constructor"
    },
    {
      "anonymous": false,
      "inputs": [
        {
          "indexed": false,
          "name": "creator",
          "type": "bytes32"
        },
        {
          "indexed": false,
          "name": "participant",
          "type": "string"
        }
      ],
      "name": "NewParticipant",
      "type": "event"
    },
    {
      "anonymous": false,
      "inputs": [
        {
          "indexed": false,
          "name": "creator",
          "type": "bytes32"
        },
        {
          "indexed": false,
          "name": "participant",
          "type": "string"
        },
        {
          "indexed": false,
          "name": "txid",
          "type": "uint256"
        }
      ],
      "name": "NewTransaction",
      "type": "event"
    },
    {
      "anonymous": false,
      "inputs": [
        {
          "indexed": false,
          "name": "creator",
          "type": "string"
        },
        {
          "indexed": false,
          "name": "participant",
          "type": "bytes32"
        },
        {
          "indexed": false,
          "name": "txid",
          "type": "uint256"
        }
      ],
      "name": "SignTransaction",
      "type": "event"
    },
    {
      "anonymous": false,
      "inputs": [
        {
          "indexed": true,
          "name": "previousOwner",
          "type": "address"
        },
        {
          "indexed": true,
          "name": "newOwner",
          "type": "address"
        }
      ],
      "name": "OwnershipTransferred",
      "type": "event"
    },
    {
      "constant": false,
      "inputs": [
        {
          "name": "_creator",
          "type": "bytes32"
        },
        {
          "name": "_id",
          "type": "string"
        }
      ],
      "name": "createVault",
      "outputs": [],
      "payable": false,
      "stateMutability": "nonpayable",
      "type": "function"
    },
    {
      "constant": true,
      "inputs": [
        {
          "name": "_creator",
          "type": "bytes32"
        }
      ],
      "name": "getCreator",
      "outputs": [
        {
          "name": "",
          "type": "string"
        }
      ],
      "payable": false,
      "stateMutability": "view",
      "type": "function"
    },
    {
      "constant": false,
      "inputs": [
        {
          "name": "_creator",
          "type": "bytes32"
        },
        {
          "name": "_participant",
          "type": "bytes32"
        },
        {
          "name": "_shard",
          "type": "string"
        }
      ],
      "name": "addParticipant",
      "outputs": [],
      "payable": false,
      "stateMutability": "nonpayable",
      "type": "function"
    },
    {
      "constant": false,
      "inputs": [
        {
          "name": "_creator",
          "type": "bytes32"
        },
        {
          "name": "_participant",
          "type": "bytes32"
        }
      ],
      "name": "removeParticipant",
      "outputs": [],
      "payable": false,
      "stateMutability": "nonpayable",
      "type": "function"
    },
    {
      "constant": false,
      "inputs": [
        {
          "name": "_creator",
          "type": "bytes32"
        },
        {
          "name": "_participant",
          "type": "bytes32"
        },
        {
          "name": "_pin",
          "type": "uint256"
        }
      ],
      "name": "confirmParticipant",
      "outputs": [],
      "payable": false,
      "stateMutability": "nonpayable",
      "type": "function"
    },
    {
      "constant": false,
      "inputs": [
        {
          "name": "_creator",
          "type": "bytes32"
        },
        {
          "name": "_minParticipants",
          "type": "uint256"
        }
      ],
      "name": "defineQuorum",
      "outputs": [],
      "payable": false,
      "stateMutability": "nonpayable",
      "type": "function"
    },
    {
      "constant": false,
      "inputs": [
        {
          "name": "_creator",
          "type": "bytes32"
        }
      ],
      "name": "promptSignatures",
      "outputs": [],
      "payable": false,
      "stateMutability": "nonpayable",
      "type": "function"
    },
    {
      "constant": false,
      "inputs": [
        {
          "name": "_creator",
          "type": "bytes32"
        },
        {
          "name": "_participant",
          "type": "bytes32"
        },
        {
          "name": "_tx",
          "type": "uint256"
        },
        {
          "name": "_pin",
          "type": "uint256"
        }
      ],
      "name": "signTransaction",
      "outputs": [],
      "payable": false,
      "stateMutability": "nonpayable",
      "type": "function"
    },
    {
      "constant": true,
      "inputs": [
        {
          "name": "_creator",
          "type": "bytes32"
        },
        {
          "name": "_participant",
          "type": "bytes32"
        },
        {
          "name": "_txid",
          "type": "uint256"
        }
      ],
      "name": "checkQuorum",
      "outputs": [
        {
          "name": "",
          "type": "bool"
        }
      ],
      "payable": false,
      "stateMutability": "view",
      "type": "function"
    },
    {
      "constant": true,
      "inputs": [
        {
          "name": "_creator",
          "type": "bytes32"
        },
        {
          "name": "_txid",
          "type": "uint256"
        }
      ],
      "name": "getShards",
      "outputs": [
        {
          "name": "",
          "type": "string[]"
        }
      ],
      "payable": false,
      "stateMutability": "view",
      "type": "function"
    }
  ],
  "bytecode": "0x60806040523480156200001157600080fd5b5062000028336200002e60201b62000a2e1760201c565b620001bb565b600054610100900460ff1680620000505750620000506200013360201b60201c565b806200005f575060005460ff16155b620000a1576040517f08c379a000000000000000000000000000000000000000000000000000000000815260040162000098906200019a565b60405180910390fd5b600054610100900460ff16158015620000cd576000805460ff1961ff0019909116610100171660011790555b603380546001600160a01b0319166001600160a01b0384811691909117918290556040519116906000907f8be0079c531659141344cd1fd0a4f28419497f9722a3daafe3b4186f6b6457e0908290a380156200012f576000805461ff00191690555b5050565b303b1590565b600062000148602e83620001b2565b7f436f6e747261637420696e7374616e63652068617320616c726561647920626581527f656e20696e697469616c697a6564000000000000000000000000000000000000602082015260400192915050565b60208082528101620001ac8162000139565b92915050565b90815260200190565b61173d80620001cb6000396000f3fe608060405234801561001057600080fd5b50600436106100f55760003560e01c80638f32d59b11610097578063d0097a4711610066578063d0097a47146101e9578063f146da0b146101fc578063f2fde38b1461020f578063fbaeb8f014610222576100f5565b80638f32d59b1461019b578063b59a5c1f146101b0578063c4d66de8146101c3578063d004c1ef146101d6576100f5565b806361544c91116100d357806361544c9114610158578063715018a61461016b5780638c4b3bcd146101735780638da5cb5b14610186576100f5565b8063060a7ef1146100fa578063328433b5146101235780634b03ada014610143575b600080fd5b61010d610108366004611112565b610235565b60405161011a9190611604565b60405180910390f35b610136610131366004611130565b610306565b60405161011a9190611596565b610156610151366004611112565b61059c565b005b610156610166366004611130565b61070e565b6101566107db565b610156610181366004611280565b61084c565b61018e6108f7565b60405161011a9190611582565b6101a3610907565b60405161011a91906115a7565b6101566101be36600461116a565b61092d565b6101566101d13660046110ec565b610a2e565b6101566101e4366004611130565b610b04565b6101566101f736600461121f565b610b4c565b6101a361020a3660046111d2565b610d13565b61015661021d3660046110ec565b610e27565b6101566102303660046111d2565b610e5a565b606061023f610907565b61026757604051600160e51b62461bcd02815260040161025e90611662565b60405180910390fd5b60008281526067602090815260409182902080548351601f6002600019610100600186161502019093169290920491820184900484028101840190945280845290918301828280156102fa5780601f106102cf576101008083540402835291602001916102fa565b820191906000526020600020905b8154815290600101906020018083116102dd57829003601f168201915b50505050509050919050565b336000818152606660205260409020546060918491821461033c57604051600160e51b62461bcd02815260040161025e90611682565b60005b6000868152606d6020526040902054811015610592576000868152606d6020526040902080548691908390811061037257fe5b906000526020600020906002020160000154141561058a576000868152606c6020908152604080832054606d9092529091208054839081106103b057fe5b9060005260206000209060020201600101805490501061058a576000868152606d60205260409020805460609190839081106103e857fe5b90600052602060002090600202016001018054905060405190808252806020026020018201604052801561043057816020015b606081526020019060019003908161041b5790505b50905060005b6000888152606d6020526040902080548490811061045057fe5b906000526020600020906002020160010180549050811015610580576000888152606b60209081526040808320606d909252822080549192918690811061049357fe5b906000526020600020906002020160010183815481106104af57fe5b906000526020600020015481526020019081526020016000208054600181600116156101000203166002900480601f01602080910402602001604051908101604052809291908181526020018280546001816001161561010002031660029004801561055c5780601f106105315761010080835404028352916020019161055c565b820191906000526020600020905b81548152906001019060200180831161053f57829003601f168201915b505050505082828151811061056d57fe5b6020908102919091010152600101610436565b5093506105949050565b60010161033f565b505b505092915050565b3360008181526066602052604090205482919082146105d057604051600160e51b62461bcd02815260040161025e90611682565b6000838152606860209081526040918290205482518181528183028101909201909252606091801561060c578160200160208202803883390190505b50905042610618610f53565b5060408051808201825282815260208082018581526000898152606d8352938420805460018181018084559287529584902085516002909202019081559151805194959194869461066d938501920190610f6d565b506000925050505b60008781526068602052604090205481101561070557600087815260686020526040812080547fb9f1b1319390e9125edbb5e30529c41be1fa56c63f5bfadeb5dbc7c91f127829928a92606792869081106106cc57fe5b90600052602060002001548152602001908152602001600020856040516106f5939291906115d5565b60405180910390a1600101610675565b50505050505050565b33600081815260666020526040902054839190821461074257604051600160e51b62461bcd02815260040161025e90611682565b6000848152606960209081526040808320868452909152902054156107d557600084815260686020908152604080832060698352818420878552909252909120548154811061078d57fe5b60009182526020808320909101829055858252606b8152604080832086845290915281206107ba91610fb8565b6000848152606a602090815260408083208684529091528120555b50505050565b6107e3610907565b61080257604051600160e51b62461bcd02815260040161025e90611662565b6033546040516000916001600160a01b0316907f8be0079c531659141344cd1fd0a4f28419497f9722a3daafe3b4186f6b6457e0908390a3603380546001600160a01b0319169055565b6000838152606860205260409020541561086557600080fd5b336000908152606660205260409020541561089557604051600160e51b62461bcd02815260040161025e90611652565b336000908152606660209081526040808320869055858352606790915290206108bf908383610ffc565b505050600081815260686020818152604080842080546069845282862084529185208290559282526001810183559183529091200155565b6033546001600160a01b03165b90565b6033546000906001600160a01b031661091e610ec4565b6001600160a01b031614905090565b33600081815260666020526040902054859190821461096157604051600160e51b62461bcd02815260040161025e90611682565b60008581526068602052604090205461097957600080fd5b6000868152606b60209081526040808320888452909152902061099d908585610ffc565b508486146109de5760008681526068602081815260408084208054606984528286208b87528452918520829055928252600181018355918352909120018590555b6000858152606760205260409081902090517fa4c1d5645b22448d1a2c7c076b5b28e04b0ba0110fcaaf8391f3510c50dab03e91610a1e918991906115b5565b60405180910390a1505050505050565b600054610100900460ff1680610a475750610a47610ec8565b80610a55575060005460ff16155b610a7457604051600160e51b62461bcd02815260040161025e90611672565b600054610100900460ff16158015610a9f576000805460ff1961ff0019909116610100171660011790555b603380546001600160a01b0319166001600160a01b0384811691909117918290556040519116906000907f8be0079c531659141344cd1fd0a4f28419497f9722a3daafe3b4186f6b6457e0908290a38015610b00576000805461ff00191690555b5050565b336000818152606660205260409020548391908214610b3857604051600160e51b62461bcd02815260040161025e90611682565b50506000918252606c602052604090912055565b336000818152606660205260409020548491908214610b8057604051600160e51b62461bcd02815260040161025e90611682565b6000868152606a602090815260408083208884529091529020548314610ba557600080fd5b60005b6000878152606d6020526040902054811015610cd1576000878152606d60205260409020805486919083908110610bdb57fe5b9060005260206000209060020201600001541415610cc95760005b6000888152606d60205260409020805483908110610c1057fe5b906000526020600020906002020160010180549050811015610cc7576000888152606d60205260409020805483908110610c4657fe5b90600052602060002090600202016001018181548110610c6257fe5b906000526020600020015460001415610cbf576000888152606d60205260409020805488919084908110610c9257fe5b90600052602060002090600202016001018281548110610cae57fe5b600091825260209091200155610cc7565b600101610bf6565b505b600101610ba8565b506000868152606760205260409081902090517f6c67dad2c8ac455f13ebeb988a739172d715b2716599848149b80e6aa37105af91610a1e9188908890611615565b33600081815260666020526040812054909185918214610d4857604051600160e51b62461bcd02815260040161025e90611682565b6000868152606a60209081526040808320888452909152902054610d6b57600080fd5b6000805b6000888152606d6020526040902054811015610e07576000888152606d60205260409020805487919083908110610da257fe5b9060005260206000209060020201600001541415610dff576000888152606c6020908152604080832054606d909252909120805483908110610de057fe5b90600052602060002090600202016001018054905010610dff57600191505b600101610d6f565b508015610e18576001935050610e1e565b60009350505b50509392505050565b610e2f610907565b610e4e57604051600160e51b62461bcd02815260040161025e90611662565b610e5781610ece565b50565b336000818152606660205260409020548391908214610e8e57604051600160e51b62461bcd02815260040161025e90611682565b600085815260686020526040902054610ea657600080fd5b50506000928352606a60209081526040808520938552929052912055565b3390565b303b1590565b6001600160a01b038116610ef757604051600160e51b62461bcd02815260040161025e90611642565b6033546040516001600160a01b038084169216907f8be0079c531659141344cd1fd0a4f28419497f9722a3daafe3b4186f6b6457e090600090a3603380546001600160a01b0319166001600160a01b0392909216919091179055565b604051806040016040528060008152602001606081525090565b828054828255906000526020600020908101928215610fa8579160200282015b82811115610fa8578251825591602001919060010190610f8d565b50610fb492915061106a565b5090565b50805460018160011615610100020316600290046000825580601f10610fde5750610e57565b601f016020900490600052602060002090810190610e57919061106a565b828054600181600116156101000203166002900490600052602060002090601f016020900481019282601f1061103d5782800160ff19823516178555610fa8565b82800160010185558215610fa8579182015b82811115610fa857823582559160200191906001019061104f565b61090491905b80821115610fb45760008155600101611070565b600061109082356116b1565b9392505050565b60006110908235610904565b60008083601f8401126110b557600080fd5b50813567ffffffffffffffff8111156110cd57600080fd5b6020830191508360018202830111156110e557600080fd5b9250929050565b6000602082840312156110fe57600080fd5b600061110a8484611084565b949350505050565b60006020828403121561112457600080fd5b600061110a8484611097565b6000806040838503121561114357600080fd5b600061114f8585611097565b925050602061116085828601611097565b9150509250929050565b6000806000806060858703121561118057600080fd5b600061118c8787611097565b945050602061119d87828801611097565b935050604085013567ffffffffffffffff8111156111ba57600080fd5b6111c6878288016110a3565b95989497509550505050565b6000806000606084860312156111e757600080fd5b60006111f38686611097565b935050602061120486828701611097565b925050604061121586828701611097565b9150509250925092565b6000806000806080858703121561123557600080fd5b60006112418787611097565b945050602061125287828801611097565b935050604061126387828801611097565b925050606061127487828801611097565b91505092959194509250565b60008060006040848603121561129557600080fd5b60006112a18686611097565b935050602084013567ffffffffffffffff8111156112be57600080fd5b6112ca868287016110a3565b92509250509250925092565b6000611090838361136d565b6112eb816116b1565b82525050565b60006112fc826116a4565b61130681856116a8565b93508360208202850161131885611692565b60005b8481101561134f5783830388526113338383516112d6565b925061133e82611692565b60209890980197915060010161131b565b50909695505050505050565b6112eb816116bc565b6112eb81610904565b6000611378826116a4565b61138281856116a8565b93506113928185602086016116cd565b61139b816116f9565b9093019392505050565b6000815460018116600081146113c257600181146113e857610594565b607f60028304166113d381876116a8565b60ff1984168152955050602085019250610594565b600282046113f681876116a8565b955061140185611698565b60005b8281101561142057815488820152600190910190602001611404565b9096019695505050505050565b600061143a6026836116a8565b7f4f776e61626c653a206e6577206f776e657220697320746865207a65726f20618152600160d01b6564647265737302602082015260400192915050565b60006114856020836116a8565b7f5661756c7420666f722063726561746f7220616c726561647920657869737473815260200192915050565b60006114be6020836116a8565b7f4f776e61626c653a2063616c6c6572206973206e6f7420746865206f776e6572815260200192915050565b60006114f7602e836116a8565b7f436f6e747261637420696e7374616e63652068617320616c726561647920626581527f656e20696e697469616c697a6564000000000000000000000000000000000000602082015260400192915050565b60006115566012836116a8565b7f4e6f7420612076616c6964207369676e65720000000000000000000000000000815260200192915050565b6020810161159082846112e2565b92915050565b6020808252810161109081846112f1565b60208101611590828461135b565b604081016115c38285611364565b818103602083015261110a81846113a5565b606081016115e38286611364565b81810360208301526115f581856113a5565b905061110a6040830184611364565b60208082528101611090818461136d565b6060808252810161162681866113a5565b90506116356020830185611364565b61110a6040830184611364565b602080825281016115908161142d565b6020808252810161159081611478565b60208082528101611590816114b1565b60208082528101611590816114ea565b6020808252810161159081611549565b60200190565b60009081526020902090565b5190565b90815260200190565b6000611590826116c1565b151590565b6001600160a01b031690565b60005b838110156116e85781810151838201526020016116d0565b838111156107d55750506000910152565b601f01601f19169056fea265627a7a72305820d9989f63cb7687c463ac7d115e6a1a1ee65de1ea08f3c7f273a85c69a39a9bec6c6578706572696d656e74616cf50037",
  "source": "// Implementation of the Verified custody vault\r\n// Manages accounts, participants and vault policies\r\n// (c) Kallol Borah, Verified Network, 2021\r\n\r\npragma solidity 0.5.7;\r\npragma experimental ABIEncoderV2;\r\n\r\nimport \"./IVault.sol\";\r\nimport \"@openzeppelin/contracts-ethereum-package/contracts/ownership/Ownable.sol\";\r\n\r\ncontract Vault is IVault, Ownable {\r\n\r\n    //mapping of signer address to creator bytes32 id\r\n    mapping(address => bytes32) private signers;\r\n\r\n    //mapping signer (its bytes32 ID, eg creator@vault.com) to its token (eg, Google/Apple push notification token)\r\n    mapping(bytes32 => string) private creators;\r\n\r\n    //creating vault by mapping its creator (bytes32 ID, eg, creator@vault.com) to participants (bytes32 IDs, eg, participant@email.com) in the vault\r\n    mapping(bytes32 => bytes32[]) private vaults;\r\n\r\n    //positional index of cosigners for vault. Mapping of vault creator to participant to its position\r\n    mapping(bytes32 => mapping(bytes32 => uint256)) private cosigners;\r\n\r\n    //mapping vault (bytes32 ID, eg creator@vault.com) to participants (bytes32 ID, eg, participant@email.com) to their pin (uint256)\r\n    mapping(bytes32 => mapping(bytes32 => uint256)) private pins;\r\n\r\n    //mapping vault (bytes32 ID, eg creator@vault.com) to participants (bytes32 ID, eg, participant@email.com) to their key shard (string)\r\n    mapping(bytes32 => mapping(bytes32 => string)) private shards;\r\n\r\n    //mapping vault (bytes32 ID, eg creator@vault.com) to number of minimum co-signers required for quorum (uint256)\r\n    mapping(bytes32 => uint256) private quorum;\r\n\r\n    //mapping vault (bytes32 ID, eg creator@vault.com) to transactions\r\n    mapping(bytes32 => transaction[]) private transactions;\r\n\r\n    //event that helps notify a participant to confirm PIN and shard\r\n    event NewParticipant(bytes32 creator, string participant);\r\n\r\n    //event that helps notify a participant to co-sign a transaction\r\n    event NewTransaction(bytes32 creator, string participant, uint256 txid);\r\n\r\n    //event that helps notify a creator that a transaction has been signed\r\n    event SignTransaction(string creator, bytes32 participant, uint256 txid);\r\n\r\n    // modifiers\r\n    modifier onlySigner(bytes32 _creator, address _sender) {\r\n        require(signers[_sender]==_creator, 'Not a valid signer');\r\n        _;\r\n    }\r\n\r\n    constructor() public{\r\n        Ownable.initialize(msg.sender);\r\n    }\r\n\r\n    /**\r\n        This function creates a vault for the creator\r\n        @param _creator vault creator's username, eg, creator@email.com\r\n        @param _id vault creator's unique id using which it can be reached, eg, its Google/APNS token\r\n     */\r\n    function createVault(bytes32 _creator, string calldata _id) external {\r\n        require(vaults[_creator].length==0);\r\n        require(signers[msg.sender]==\"\", 'Vault for creator already exists');\r\n        signers[msg.sender] = _creator;\r\n        creators[_creator] = _id;\r\n        cosigners[_creator][_creator] = vaults[_creator].length;\r\n        vaults[_creator].push(_creator);\r\n    }\r\n\r\n    /**\r\n        This function returns the vault creator's unique ID (eg, Google/APNS messaging token)\r\n        @param _creator the vault creator (eg, creator@email.com)\r\n        @return the vault creator's unique ID\r\n     */\r\n    function getCreator(bytes32 _creator) onlyOwner external view returns(string memory){        \r\n        return creators[_creator];        \r\n    }\r\n\r\n    /**\r\n        This function adds a participant to a vault that belongs to its creator\r\n        @param _creator vault creator's username, eg creator@email.com\r\n        @param _participant vault participant's username, eg participant@email.com\r\n        @param _shard the private key shard of the participant\r\n     */\r\n    function addParticipant(bytes32 _creator, bytes32 _participant, string calldata _shard) onlySigner(_creator, msg.sender) external {\r\n        require(vaults[_participant].length>0);\r\n        shards[_creator][_participant] = _shard;\r\n        if(_creator!=_participant){\r\n            cosigners[_creator][_participant] = vaults[_creator].length;\r\n            vaults[_creator].push(_participant);\r\n        }\r\n        emit NewParticipant(_creator, creators[_participant]);\r\n    }\r\n\r\n    /**\r\n        This function removes a participant in a vault that belongs to its creator\r\n        @param _creator vault creator's username, eg creator@email.com\r\n        @param _participant vault participant's username, eg participant@email.com\r\n     */\r\n    function removeParticipant(bytes32 _creator, bytes32 _participant) onlySigner(_creator, msg.sender) external {\r\n        if(cosigners[_creator][_participant] > 0){\r\n            delete vaults[_creator][cosigners[_creator][_participant]];\r\n            delete shards[_creator][_participant];\r\n            delete pins[_creator][_participant];\r\n        }\r\n    } \r\n\r\n    /**\r\n        This function confirms a participant in the vault when the participant sends its private key shard and PIN\r\n        @param _creator the vault's creator (eg, creator@email.com)\r\n        @param _participant the vault's participant (eg, participant@email.com)\r\n        @param _pin the PIN number of the participant\r\n     */\r\n    function confirmParticipant(bytes32 _creator, bytes32 _participant, uint256 _pin) onlySigner(_participant, msg.sender) external {\r\n        require(vaults[_creator].length>0);\r\n        pins[_creator][_participant] = _pin;\r\n    }\r\n\r\n    /**\r\n        This function defines the number of participants required to co-sign a transaction\r\n        @param _creator the vault's creator (eg, creator@email.com)\r\n        @param _minParticipants the minimum number of co-signers\r\n     */\r\n    function defineQuorum(bytes32 _creator, uint256 _minParticipants) onlySigner(_creator, msg.sender) external {\r\n        quorum[_creator] = _minParticipants;\r\n    }\r\n\r\n    /**\r\n        This function prompts participants to co-sign a transaction on the vault (ie, the creator's address secured by the quorum of participants)\r\n        @param _creator the vault's creator (eg, creator@email.com)\r\n     */\r\n    function promptSignatures(bytes32 _creator) onlySigner(_creator, msg.sender) external {\r\n        bytes32[] memory cs = new bytes32[](vaults[_creator].length);\r\n        uint256 txid = now;\r\n        transaction memory currentTx = transaction({\r\n            datetime : txid,\r\n            cosigners : cs\r\n        });\r\n        transactions[_creator].push(currentTx);\r\n        for(uint256 i=0; i<vaults[_creator].length; i++){\r\n            emit NewTransaction(_creator, creators[vaults[_creator][i]], txid);\r\n        }\r\n    }\r\n\r\n    /**\r\n        This function lets a participant co-sign a transaction\r\n        @param _creator the vault's creator (eg, creator@email.com)\r\n        @param _participant the vault's participant (eg, participant@email.com)\r\n        @param _tx transaction identifier\r\n        @param _pin the PIN number of the signer (participant)\r\n     */\r\n    function signTransaction(bytes32 _creator, bytes32 _participant, uint256 _tx, uint256 _pin) onlySigner(_participant, msg.sender) external {\r\n        require(pins[_creator][_participant]==_pin);\r\n        for(uint i=0; i<transactions[_creator].length; i++){\r\n            if(transactions[_creator][i].datetime==_tx){\r\n                for(uint j=0; j<transactions[_creator][i].cosigners.length; j++){\r\n                    if(transactions[_creator][i].cosigners[j]==\"\"){\r\n                        transactions[_creator][i].cosigners[j]=_participant;\r\n                        break;\r\n                    }\r\n                }\r\n            }\r\n        }\r\n        emit SignTransaction(creators[_creator], _participant, _tx);\r\n    }\r\n\r\n    /**\r\n        This function lets the creator check if quorum has been achieved for a particular transaction\r\n        @param _creator vault creator's username, eg creator@email.com\r\n        @param _participant vault participant's username, eg participant@email.com\r\n        @param _txid transaction identifier\r\n     */\r\n    function checkQuorum(bytes32 _creator, bytes32 _participant, uint256 _txid) onlySigner(_creator, msg.sender) external view returns(bool){\r\n        require(pins[_creator][_participant]!=0);\r\n        bool _quorum = false;\r\n        for(uint i=0; i<transactions[_creator].length; i++){\r\n            if(transactions[_creator][i].datetime==_txid){\r\n                if(transactions[_creator][i].cosigners.length >= quorum[_creator])\r\n                    _quorum = true;\r\n            }\r\n        }\r\n        if(_quorum)\r\n            return true;\r\n        else\r\n            return false;\r\n    }\r\n    \r\n    /**\r\n        This function gets the shard for a participant\r\n        @param _creator vault creator's username, eg creator@email.com\r\n        @param _txid transaction identifier \r\n     */\r\n    function getShards(bytes32 _creator, uint256 _txid) onlySigner(_creator, msg.sender) external view returns(string[] memory){\r\n        for(uint i=0; i<transactions[_creator].length; i++){\r\n            if(transactions[_creator][i].datetime==_txid){\r\n                if(transactions[_creator][i].cosigners.length >= quorum[_creator]){\r\n                    string[] memory keyShards = new string[](transactions[_creator][i].cosigners.length);\r\n                    for(uint j=0; j<transactions[_creator][i].cosigners.length; j++){\r\n                        keyShards[j] = shards[_creator][transactions[_creator][i].cosigners[j]];                        \r\n                    }\r\n                    //delete transactions[_creator][i];\r\n                    return keyShards;\r\n                }\r\n            }\r\n        }\r\n    }\r\n\r\n}",
  "sourcePath": "D:\\Code\\verified-custody\\backend\\contracts\\Vault.sol",
  "compiler": {
    "name": "solc",
    "version": "0.5.7+commit.6da8b019.Emscripten.clang"
  },
  "schemaVersion": "3.4.3",
  "updatedAt": "2022-06-20T07:12:49.210Z",
  "networkType": "ethereum",
  "devdoc": {
    "methods": {
      "addParticipant(bytes32,bytes32,string)": {
        "params": {
          "_creator": "vault creator's username, eg creator@email.com\r",
          "_participant": "vault participant's username, eg participant@email.com\r",
          "_shard": "the private key shard of the participant\r"
        }
      },
      "checkQuorum(bytes32,bytes32,uint256)": {
        "params": {
          "_creator": "vault creator's username, eg creator@email.com\r",
          "_participant": "vault participant's username, eg participant@email.com\r",
          "_txid": "transaction identifier\r"
        }
      },
      "confirmParticipant(bytes32,bytes32,uint256)": {
        "params": {
          "_creator": "the vault's creator (eg, creator@email.com)\r",
          "_participant": "the vault's participant (eg, participant@email.com)\r",
          "_pin": "the PIN number of the participant\r"
        }
      },
      "createVault(bytes32,string)": {
        "params": {
          "_creator": "vault creator's username, eg, creator@email.com\r",
          "_id": "vault creator's unique id using which it can be reached, eg, its Google/APNS token\r"
        }
      },
      "defineQuorum(bytes32,uint256)": {
        "params": {
          "_creator": "the vault's creator (eg, creator@email.com)\r",
          "_minParticipants": "the minimum number of co-signers\r"
        }
      },
      "getCreator(bytes32)": {
        "params": {
          "_creator": "the vault creator (eg, creator@email.com)\r"
        },
        "return": "the vault creator's unique ID\r"
      },
      "getShards(bytes32,uint256)": {
        "params": {
          "_creator": "vault creator's username, eg creator@email.com\r",
          "_txid": "transaction identifier \r"
        }
      },
      "initialize(address)": {
        "details": "Initializes the contract setting the deployer as the initial owner."
      },
      "isOwner()": {
        "details": "Returns true if the caller is the current owner."
      },
      "owner()": {
        "details": "Returns the address of the current owner."
      },
      "promptSignatures(bytes32)": {
        "params": {
          "_creator": "the vault's creator (eg, creator@email.com)\r"
        }
      },
      "removeParticipant(bytes32,bytes32)": {
        "params": {
          "_creator": "vault creator's username, eg creator@email.com\r",
          "_participant": "vault participant's username, eg participant@email.com\r"
        }
      },
      "renounceOwnership()": {
        "details": "Leaves the contract without owner. It will not be possible to call `onlyOwner` functions anymore. Can only be called by the current owner.     * > Note: Renouncing ownership will leave the contract without an owner, thereby removing any functionality that is only available to the owner."
      },
      "signTransaction(bytes32,bytes32,uint256,uint256)": {
        "params": {
          "_creator": "the vault's creator (eg, creator@email.com)\r",
          "_participant": "the vault's participant (eg, participant@email.com)\r",
          "_pin": "the PIN number of the signer (participant)\r",
          "_tx": "transaction identifier\r"
        }
      },
      "transferOwnership(address)": {
        "details": "Transfers ownership of the contract to a new account (`newOwner`). Can only be called by the current owner."
      }
    }
  },
  "userdoc": {
    "methods": {
      "addParticipant(bytes32,bytes32,string)": {
        "notice": "This function adds a participant to a vault that belongs to its creator\r"
      },
      "checkQuorum(bytes32,bytes32,uint256)": {
        "notice": "This function lets the creator check if quorum has been achieved for a particular transaction\r"
      },
      "confirmParticipant(bytes32,bytes32,uint256)": {
        "notice": "This function confirms a participant in the vault when the participant sends its private key shard and PIN\r"
      },
      "createVault(bytes32,string)": {
        "notice": "This function creates a vault for the creator\r"
      },
      "defineQuorum(bytes32,uint256)": {
        "notice": "This function defines the number of participants required to co-sign a transaction\r"
      },
      "getCreator(bytes32)": {
        "notice": "This function returns the vault creator's unique ID (eg, Google/APNS messaging token)\r"
      },
      "getShards(bytes32,uint256)": {
        "notice": "This function gets the shard for a participant\r"
      },
      "promptSignatures(bytes32)": {
        "notice": "This function prompts participants to co-sign a transaction on the vault (ie, the creator's address secured by the quorum of participants)\r"
      },
      "removeParticipant(bytes32,bytes32)": {
        "notice": "This function removes a participant in a vault that belongs to its creator\r"
      },
      "signTransaction(bytes32,bytes32,uint256,uint256)": {
        "notice": "This function lets a participant co-sign a transaction\r"
      }
    }
  }
}