{
  "contractName": "MarginIssueManager",
  "abi": [
    {
      "anonymous": false,
      "inputs": [
        {
          "indexed": true,
          "internalType": "address",
          "name": "previousOwner",
          "type": "address"
        },
        {
          "indexed": true,
          "internalType": "address",
          "name": "newOwner",
          "type": "address"
        }
      ],
      "name": "OwnershipTransferred",
      "type": "event"
    },
    {
      "anonymous": false,
      "inputs": [
        {
          "indexed": true,
          "internalType": "bytes32",
          "name": "poolId",
          "type": "bytes32"
        },
        {
          "indexed": false,
          "internalType": "address",
          "name": "security",
          "type": "address"
        },
        {
          "indexed": false,
          "internalType": "uint256",
          "name": "timestamp",
          "type": "uint256"
        }
      ],
      "name": "closures",
      "type": "event"
    },
    {
      "anonymous": false,
      "inputs": [
        {
          "indexed": true,
          "internalType": "address",
          "name": "platform",
          "type": "address"
        },
        {
          "indexed": false,
          "internalType": "uint256",
          "name": "collection",
          "type": "uint256"
        },
        {
          "indexed": false,
          "internalType": "uint256",
          "name": "timestamp",
          "type": "uint256"
        }
      ],
      "name": "feecollection",
      "type": "event"
    },
    {
      "anonymous": false,
      "inputs": [
        {
          "indexed": false,
          "internalType": "address",
          "name": "serial",
          "type": "address"
        },
        {
          "indexed": false,
          "internalType": "int256",
          "name": "collateral",
          "type": "int256"
        },
        {
          "indexed": false,
          "internalType": "int256",
          "name": "balance",
          "type": "int256"
        },
        {
          "indexed": false,
          "internalType": "address",
          "name": "trader",
          "type": "address"
        }
      ],
      "name": "ptc",
      "type": "event"
    },
    {
      "anonymous": false,
      "inputs": [
        {
          "indexed": false,
          "internalType": "address",
          "name": "party",
          "type": "address"
        },
        {
          "indexed": false,
          "internalType": "address",
          "name": "counterparty",
          "type": "address"
        },
        {
          "indexed": true,
          "internalType": "address",
          "name": "securityTraded",
          "type": "address"
        },
        {
          "indexed": false,
          "internalType": "uint256",
          "name": "securityAmount",
          "type": "uint256"
        },
        {
          "indexed": false,
          "internalType": "address",
          "name": "currencySettled",
          "type": "address"
        },
        {
          "indexed": false,
          "internalType": "uint256",
          "name": "cashAmount",
          "type": "uint256"
        },
        {
          "indexed": false,
          "internalType": "bytes32",
          "name": "orderRef",
          "type": "bytes32"
        },
        {
          "indexed": false,
          "internalType": "uint256",
          "name": "timestamp",
          "type": "uint256"
        }
      ],
      "name": "subscribers",
      "type": "event"
    },
    {
      "anonymous": false,
      "inputs": [
        {
          "indexed": true,
          "internalType": "bytes32",
          "name": "poolid",
          "type": "bytes32"
        },
        {
          "indexed": false,
          "internalType": "address",
          "name": "transferor",
          "type": "address"
        },
        {
          "indexed": false,
          "internalType": "address",
          "name": "transferee",
          "type": "address"
        },
        {
          "indexed": false,
          "internalType": "uint256",
          "name": "unitsToTransfer",
          "type": "uint256"
        },
        {
          "indexed": false,
          "internalType": "address",
          "name": "security",
          "type": "address"
        },
        {
          "indexed": false,
          "internalType": "address",
          "name": "currency",
          "type": "address"
        },
        {
          "indexed": false,
          "internalType": "uint256",
          "name": "amountPaid",
          "type": "uint256"
        },
        {
          "indexed": false,
          "internalType": "bytes32",
          "name": "cref",
          "type": "bytes32"
        },
        {
          "indexed": false,
          "internalType": "bytes32",
          "name": "ref",
          "type": "bytes32"
        },
        {
          "indexed": false,
          "internalType": "uint256",
          "name": "fee",
          "type": "uint256"
        },
        {
          "indexed": false,
          "internalType": "uint256",
          "name": "timestamp",
          "type": "uint256"
        }
      ],
      "name": "tradeSettled",
      "type": "event"
    },
    {
      "inputs": [],
      "name": "owner",
      "outputs": [
        {
          "internalType": "address",
          "name": "",
          "type": "address"
        }
      ],
      "stateMutability": "view",
      "type": "function",
      "constant": true
    },
    {
      "inputs": [],
      "name": "renounceOwnership",
      "outputs": [],
      "stateMutability": "nonpayable",
      "type": "function"
    },
    {
      "inputs": [
        {
          "internalType": "address",
          "name": "newOwner",
          "type": "address"
        }
      ],
      "name": "transferOwnership",
      "outputs": [],
      "stateMutability": "nonpayable",
      "type": "function"
    },
    {
      "inputs": [
        {
          "internalType": "address",
          "name": "poolFactory",
          "type": "address"
        },
        {
          "internalType": "address",
          "name": "vault",
          "type": "address"
        },
        {
          "internalType": "address",
          "name": "securityFactory",
          "type": "address"
        },
        {
          "internalType": "address",
          "name": "distribution",
          "type": "address"
        }
      ],
      "name": "initialize",
      "outputs": [],
      "stateMutability": "nonpayable",
      "type": "function"
    },
    {
      "inputs": [
        {
          "internalType": "address",
          "name": "security",
          "type": "address"
        },
        {
          "internalType": "bytes32",
          "name": "securityType",
          "type": "bytes32"
        },
        {
          "internalType": "address",
          "name": "currency",
          "type": "address"
        },
        {
          "internalType": "bytes32",
          "name": "cficode",
          "type": "bytes32"
        },
        {
          "internalType": "uint256",
          "name": "securityAmount",
          "type": "uint256"
        },
        {
          "internalType": "uint256",
          "name": "minimumOrderSize",
          "type": "uint256"
        },
        {
          "internalType": "uint256",
          "name": "cashAmount",
          "type": "uint256"
        },
        {
          "internalType": "uint256",
          "name": "margin",
          "type": "uint256"
        },
        {
          "internalType": "uint256",
          "name": "collateral",
          "type": "uint256"
        },
        {
          "internalType": "uint256",
          "name": "tradeFee",
          "type": "uint256"
        }
      ],
      "name": "issueProduct",
      "outputs": [],
      "stateMutability": "nonpayable",
      "type": "function"
    },
    {
      "inputs": [
        {
          "internalType": "address",
          "name": "security",
          "type": "address"
        }
      ],
      "name": "close",
      "outputs": [],
      "stateMutability": "nonpayable",
      "type": "function"
    },
    {
      "inputs": [
        {
          "internalType": "address",
          "name": "cashToken",
          "type": "address"
        },
        {
          "internalType": "uint256",
          "name": "amount",
          "type": "uint256"
        },
        {
          "internalType": "address",
          "name": "security",
          "type": "address"
        }
      ],
      "name": "offerCollateral",
      "outputs": [],
      "stateMutability": "nonpayable",
      "type": "function"
    },
    {
      "inputs": [
        {
          "internalType": "address",
          "name": "cashToken",
          "type": "address"
        },
        {
          "internalType": "uint256",
          "name": "amount",
          "type": "uint256"
        },
        {
          "internalType": "address",
          "name": "security",
          "type": "address"
        }
      ],
      "name": "sendCollateral",
      "outputs": [],
      "stateMutability": "nonpayable",
      "type": "function"
    },
    {
      "inputs": [
        {
          "internalType": "address",
          "name": "party",
          "type": "address"
        },
        {
          "internalType": "address",
          "name": "currency",
          "type": "address"
        }
      ],
      "name": "getCollateral",
      "outputs": [
        {
          "internalType": "int256",
          "name": "",
          "type": "int256"
        }
      ],
      "stateMutability": "view",
      "type": "function",
      "constant": true
    },
    {
      "inputs": [
        {
          "internalType": "address",
          "name": "party",
          "type": "address"
        },
        {
          "internalType": "address",
          "name": "counterparty",
          "type": "address"
        },
        {
          "internalType": "bytes32",
          "name": "orderRef",
          "type": "bytes32"
        },
        {
          "internalType": "address",
          "name": "security",
          "type": "address"
        },
        {
          "internalType": "uint256",
          "name": "securityTraded",
          "type": "uint256"
        },
        {
          "internalType": "address",
          "name": "currency",
          "type": "address"
        },
        {
          "internalType": "uint256",
          "name": "cashTraded",
          "type": "uint256"
        }
      ],
      "name": "onMatch",
      "outputs": [],
      "stateMutability": "nonpayable",
      "type": "function"
    },
    {
      "inputs": [
        {
          "internalType": "bytes32",
          "name": "ref",
          "type": "bytes32"
        },
        {
          "internalType": "bytes32",
          "name": "cref",
          "type": "bytes32"
        },
        {
          "internalType": "address",
          "name": "security",
          "type": "address"
        },
        {
          "internalType": "uint256",
          "name": "securityTraded",
          "type": "uint256"
        },
        {
          "internalType": "address",
          "name": "currency",
          "type": "address"
        },
        {
          "internalType": "uint256",
          "name": "currencyTraded",
          "type": "uint256"
        },
        {
          "internalType": "uint256",
          "name": "executionTime",
          "type": "uint256"
        }
      ],
      "name": "onTrade",
      "outputs": [],
      "stateMutability": "nonpayable",
      "type": "function"
    },
    {
      "inputs": [
        {
          "internalType": "address",
          "name": "security",
          "type": "address"
        },
        {
          "internalType": "address",
          "name": "currency",
          "type": "address"
        },
        {
          "internalType": "uint256",
          "name": "financingPerSec",
          "type": "uint256"
        },
        {
          "internalType": "bool",
          "name": "charge",
          "type": "bool"
        },
        {
          "internalType": "uint256",
          "name": "dividendPerSec",
          "type": "uint256"
        },
        {
          "internalType": "bool",
          "name": "payout",
          "type": "bool"
        },
        {
          "internalType": "uint256",
          "name": "settlementTime",
          "type": "uint256"
        }
      ],
      "name": "onSettle",
      "outputs": [],
      "stateMutability": "nonpayable",
      "type": "function"
    },
    {
      "inputs": [
        {
          "internalType": "address",
          "name": "security",
          "type": "address"
        },
        {
          "internalType": "address",
          "name": "currency",
          "type": "address"
        }
      ],
      "name": "withdraw",
      "outputs": [],
      "stateMutability": "nonpayable",
      "type": "function"
    },
    {
      "inputs": [
        {
          "internalType": "address",
          "name": "_token",
          "type": "address"
        }
      ],
      "name": "getTradingFeeCollected",
      "outputs": [
        {
          "internalType": "uint256",
          "name": "",
          "type": "uint256"
        }
      ],
      "stateMutability": "nonpayable",
      "type": "function"
    }
  ],
  "bytecode": "0x608060405234801561001057600080fd5b50600080546001600160a01b0319163390811782556040519091907f8be0079c531659141344cd1fd0a4f28419497f9722a3daafe3b4186f6b6457e0908290a3613b7e8061005f6000396000f3fe608060405234801561001057600080fd5b50600436106100ea5760003560e01c8063715018a61161008c578063c74073a111610066578063c74073a1146101bc578063f2fde38b146101cf578063f8c8765e146101e2578063f940e385146101f5576100ea565b8063715018a61461018c5780638da5cb5b1461019457806397db1a92146101a9576100ea565b806352226ef0116100c857806352226ef014610140578063541af9d81461015357806359e7e4b1146101665780636b0fd14014610179576100ea565b806302f2fb31146100ef5780632b06b510146101045780632d91674614610117575b600080fd5b6101026100fd36600461332e565b610208565b005b6101026101123660046132b4565b610610565b61012a6101253660046131e9565b610d05565b604051610137919061389e565b60405180910390f35b61012a61014e366004613221565b610e41565b610102610161366004613391565b610e6e565b610102610174366004613411565b6111c4565b610102610187366004613552565b611381565b610102611b5e565b61019c611bc6565b6040516101379190613782565b6101026101b7366004613411565b611bd5565b6101026101ca3660046131e9565b611cc7565b6101026101dd3660046131e9565b612141565b6101026101f0366004613259565b6121bf565b610102610203366004613221565b61221b565b338760005b6001600160a01b03808b166000908152600d60209081526040808320938d168352929052205481101561060457610242613064565b6001600160a01b03808c166000908152600d60209081526040808320938e1683529290522080548390811061027357fe5b600091825260208083206040805160e081018252600790940290910180546001600160a01b0390811680865260018301548216868601526002830154868501526003830154606087015260048301546080870152600583015460a087015260069092015460c086015290855260098352818520908f16855290915290912054909150156104d557871561037a5780516001600160a01b039081166000908152600960209081526040808320938e168352929052205460c082015161034d9190610348908c90610343908a90612496565b6124ac565b6124d7565b81516001600160a01b039081166000908152600960209081526040808320938f16835292905220556103eb565b80516001600160a01b039081166000908152600960209081526040808320938e168352929052205460c08201516103c291906103bd908c90610343908a90612496565b61250b565b81516001600160a01b039081166000908152600960209081526040808320938f16835292905220555b85156104615780516001600160a01b039081166000908152600960209081526040808320938e168352929052205460c08201516104349190610348908a90610343908a90612496565b81516001600160a01b039081166000908152600960209081526040808320938f16835292905220556104cd565b80516001600160a01b039081166000908152600960209081526040808320938e168352929052205460c08201516104a491906103bd908a90610343908a90612496565b81516001600160a01b039081166000908152600960209081526040808320938f16835292905220555b60c081018590525b6020808201516001600160a01b039081166000908152600983526040808220928e16825291909252902054156105fb578515610581576020808201516001600160a01b039081166000908152600983526040808220928e1682529190925290205460c082015161055191906103bd908a90610343908a90612496565b6020808301516001600160a01b039081166000908152600983526040808220928f168252919092529020556105f3565b6020808201516001600160a01b039081166000908152600983526040808220928e1682529190925290205460c08201516105c79190610348908a90610343908a90612496565b6020808301516001600160a01b039081166000908152600983526040808220928f168252919092529020555b60c081018590525b5060010161020d565b50505050505050505050565b338461061a6130b6565b6001600160a01b038088166000908152600560209081526040808320898516845282529182902054825163ab63c60760e01b8152925193169263ab63c607926004808201939291829003018186803b15801561067557600080fd5b505afa158015610689573d6000803e3d6000fd5b505050506040513d601f19601f820116820180604052508101906106ad9190613205565b6001600160a01b0316635778472a896040518263ffffffff1660e01b81526004016106d8919061389e565b60a06040518083038186803b1580156106f057600080fd5b505afa158015610704573d6000803e3d6000fd5b505050506040513d601f19601f8201168201806040525081019061072891906135b9565b6001600160a01b0380891660009081526005602090815260408083208a851684528252808320548151631288bdb960e11b815291519596509294610832946107cd948b949116926325117b729260048083019392829003018186803b15801561079057600080fd5b505afa1580156107a4573d6000803e3d6000fd5b505050506040513d601f19601f820116820180604052508101906107c8919061353a565b61253f565b6001600160a01b03808b1660009081526005602090815260408083208c85168452825291829020548251635c1548fb60e01b8152925161082d948c94921692635c1548fb9260048082019391829003018186803b15801561079057600080fd5b61256b565b9050856001600160a01b031682600001516001600160a01b031614156108e0577f5345edc77b622c0f3a8c26a2a00d501eea3a639312833f694ab86ea057bcf043826000015182600960008f6001600160a01b03166001600160a01b0316815260200190815260200160002060008a6001600160a01b03166001600160a01b03168152602001908152602001600020548e6040516108d3949392919061385a565b60405180910390a1610965565b876001600160a01b031682600001516001600160a01b031614156109655781516001600160a01b03808c166000908152600960209081526040808320938b1683529290528190205490517f5345edc77b622c0f3a8c26a2a00d501eea3a639312833f694ab86ea057bcf0439261095c9290918591908f9061385a565b60405180910390a15b610973828c8c8b8a8661257d565b15610cf857876001600160a01b03167f4f21132feec602e5e9588b602a7ede709b68eed293452dd8745c2c80cb3c3f118c8c8a8a8a8f426040516109bd9796959493929190613816565b60405180910390a2876001600160a01b031682600001516001600160a01b03161480156109ff5750896001600160a01b031682606001516001600160a01b0316145b15610a5f576001600160a01b03808c166000908152600960209081526040808320938a1683529290522054610a3490826124d7565b6001600160a01b03808d166000908152600960209081526040808320938b1683529290522055610ab6565b6001600160a01b03808b166000908152600960209081526040808320938a1683529290522054610a8f90826124d7565b6001600160a01b03808c166000908152600960209081526040808320938b16835292905220555b610abe613064565b6040518060e00160405280886001600160a01b031685600001516001600160a01b0316148015610b0357508c6001600160a01b031685606001516001600160a01b0316145b610b0d578d610b0f565b8c5b6001600160a01b031681526020018a6001600160a01b031685600001516001600160a01b0316148015610b5757508c6001600160a01b031685606001516001600160a01b0316145b610b61578d610b63565b8c5b6001600160a01b031681526020018981526020018781526020018b815260200183815260200160008152509050600d60008a6001600160a01b03166001600160a01b031681526020019081526020016000206000886001600160a01b03166001600160a01b0316815260200190815260200160002081908060018154018082558091505060019003906000526020600020906007020160009091909190915060008201518160000160006101000a8154816001600160a01b0302191690836001600160a01b0316021790555060208201518160010160006101000a8154816001600160a01b0302191690836001600160a01b0316021790555060408201518160020155606082015181600301556080820151816004015560a0820151816005015560c0820151816006015550506001600d60008b6001600160a01b03166001600160a01b031681526020019081526020016000206000896001600160a01b03166001600160a01b031681526020019081526020016000208054905003600e60008c815260200190815260200160002081905550505b5050505050505050505050565b6003546000906001600160a01b03163314610d3b5760405162461bcd60e51b8152600401610d3290613976565b60405180910390fd5b6001600160a01b038216600090815260086020526040902054610d5e8180612496565b6001600160a01b038085166000818152600860205260409081902093909355600354925163a9059cbb60e01b8152909263a9059cbb92610da5929116908590600401613885565b602060405180830381600087803b158015610dbf57600080fd5b505af1158015610dd3573d6000803e3d6000fd5b505050506040513d601f19601f82011682018060405250810190610df7919061351e565b50306001600160a01b03167feaad90c8664cdf61d60bd7ba6745a881fd1c38d9f4ff0b373b4365cdeeb0f9e88242604051610e33929190613acd565b60405180910390a292915050565b6001600160a01b038083166000908152600960209081526040808320938516835292905220545b92915050565b338a878c6001600160a01b03166370a08231336040518263ffffffff1660e01b8152600401610e9d9190613782565b60206040518083038186803b158015610eb557600080fd5b505afa158015610ec9573d6000803e3d6000fd5b505050506040513d601f19601f82011682018060405250810190610eed919061353a565b10158015610f7757506040516370a0823160e01b815286906001600160a01b038c16906370a0823190610f24903390600401613782565b60206040518083038186803b158015610f3c57600080fd5b505afa158015610f50573d6000803e3d6000fd5b505050506040513d601f19601f82011682018060405250810190610f74919061353a565b10155b610f935760405162461bcd60e51b8152600401610d32906139ad565b6040516323b872dd60e01b81526001600160a01b038b16906323b872dd90610fc390339030908b90600401613796565b602060405180830381600087803b158015610fdd57600080fd5b505af1158015610ff1573d6000803e3d6000fd5b505050506040513d601f19601f82011682018060405250810190611015919061351e565b506040516323b872dd60e01b81526001600160a01b038d16906323b872dd9061104690339030908d90600401613796565b602060405180830381600087803b15801561106057600080fd5b505af1158015611074573d6000803e3d6000fd5b505050506040513d601f19601f82011682018060405250810190611098919061351e565b506002546040516372e0f85360e01b81526001600160a01b038e8116926372e0f853926110cd92909116908c90600401613885565b600060405180830381600087803b1580156110e757600080fd5b505af11580156110fb573d6000803e3d6000fd5b505050506111076130e6565b604051806101400160405280604051806040016040528060138152602001722b32b934b334b2b2102837b7b6102a37b5b2b760691b81525081526020016040518060400160405280600381526020016215941560ea1b81525081526020018e6001600160a01b031681526020018d81526020018c6001600160a01b031681526020018b81526020018981526020018781526020018681526020018581525090506111b5818e8b8e8b3361260c565b50505050505050505050505050565b6040516323b872dd60e01b81526001600160a01b038416906323b872dd906111f490339030908790600401613796565b602060405180830381600087803b15801561120e57600080fd5b505af1158015611222573d6000803e3d6000fd5b505050506040513d601f19601f82011682018060405250810190611246919061351e565b50600061125284612785565b905061125e8382612820565b3360009081526009602090815260408083206001600160a01b038916845290915290205490935061129090849061250b565b3360008181526009602090815260408083206001600160a01b038a168452825280832094909455918152600c909152205461131757600b80546001810182557f0175b7a638427703f0dbe7bb9bbf987a2551717b34e79f33b5b1008d1fa01db90180546001600160a01b0319163390811790915590546000918252600c6020526040909120555b6001600160a01b03808316600090815260066020908152604080832054808452600a8352818420948916845293909152902054611354908561256b565b6000918252600a602090815260408084206001600160a01b03909816845296905294902093909355505050565b3385851580159061139157508315155b15611854576001600160a01b038088166000908152600560209081526040808320898516845290915281205490916113cb9116878761282c565b6001600160a01b03808a1660009081526005602090815260408083208b85168452825280832054815163ab63c60760e01b815291519596509294929093169263ab63c6079260048083019392829003018186803b15801561142b57600080fd5b505afa15801561143f573d6000803e3d6000fd5b505050506040513d601f19601f820116820180604052508101906114639190613205565b90506000876001600160a01b0316826001600160a01b0316635778472a8e6040518263ffffffff1660e01b815260040161149d919061389e565b60a06040518083038186803b1580156114b557600080fd5b505afa1580156114c9573d6000803e3d6000fd5b505050506040513d601f19601f820116820180604052508101906114ed91906135b9565b516001600160a01b03161461158157604051632bbc239560e11b81526001600160a01b03831690635778472a90611528908e9060040161389e565b60a06040518083038186803b15801561154057600080fd5b505afa158015611554573d6000803e3d6000fd5b505050506040513d601f19601f8201168201806040525081019061157891906135b9565b60600151611602565b604051632bbc239560e11b81526001600160a01b03831690635778472a906115ad908f9060040161389e565b60a06040518083038186803b1580156115c557600080fd5b505afa1580156115d9573d6000803e3d6000fd5b505050506040513d601f19601f820116820180604052508101906115fd91906135b9565b606001515b6001600160a01b038082166000908152600960209081526040808320938d168352929052205490915061163590846124d7565b6001600160a01b0380831660009081526009602090815260408083208d851684529091529081902092909255905163111303ab60e31b8152908316906388981d589061168d908f908f908e908d9042906004016138e3565b600060405180830381600087803b1580156116a757600080fd5b505af11580156116bb573d6000803e3d6000fd5b5050505060006116cb888b61290b565b90506116dd838e8e8d8c87878b61295c565b5060008c8152600e60205260409020546116f5613064565b8115611797576001600160a01b03808d166000908152600d60209081526040808320938e1683529290522080548390811061172c57fe5b60009182526020918290206040805160e081018252600790930290910180546001600160a01b03908116845260018201541693830193909352600283015490820152600382015460608201526004820154608082015260059091015460a082015260c0810189905290505b60008d8152600e60205260409020549150811561184a576001600160a01b03808d166000908152600d60209081526040808320938e168352929052208054839081106117df57fe5b60009182526020918290206040805160e081018252600790930290910180546001600160a01b03908116845260018201541693830193909352600283015490820152600382015460608201526004820154608082015260059091015460a082015260c0810189905290505b5050505050611b53565b61185c613064565b60008a8152600e602052604090205480156119cb576001600160a01b03808a166000908152600d60209081526040808320938b168352929052208054829081106118a257fe5b600091825260208083206040805160e081018252600790940290910180546001600160a01b0390811680865260018301548216868601526002830154868501526003830154606087015260048301546080870152600583015460a0870190815260069093015460c0870152865260098452828620908d168652909252909220549151909350611931919061250b565b82516001600160a01b0390811660009081526009602090815260408083208c851680855290835281842095909555928d168252600d815282822093825292909252902080548290811061198057fe5b60009182526020822060079091020180546001600160a01b03199081168255600182018054909116905560028101829055600381018290556004810182905560058101829055600601555b506000898152600e60205260409020548015611a80576001600160a01b03808a166000908152600d60209081526040808320938b16835292905220805482908110611a1257fe5b60009182526020918290206040805160e081018252600790930290910180546001600160a01b039081168452600182015416938301939093526002830154908201526003820154606082015260048201546080820152600582015460a082015260069091015460c082015291505b81516001600160a01b039081166000908152600960209081526040808320938b168352929052205460a0830151611ab7919061250b565b82516001600160a01b0390811660009081526009602090815260408083208c851680855290835281842095909555928d168252600d8152828220938252929092529020805482908110611b0657fe5b60009182526020822060079091020180546001600160a01b031990811682556001820180549091169055600281018290556003810182905560048101829055600581018290556006015550505b505050505050505050565b611b7c33611b6a611bc6565b6001600160a01b0316146101aa612c9d565b600080546040516001600160a01b03909116907f8be0079c531659141344cd1fd0a4f28419497f9722a3daafe3b4186f6b6457e0908390a3600080546001600160a01b0319169055565b6000546001600160a01b031690565b6001600160a01b03808216600090815260066020908152604080832054808452600a835281842094881684529390915290205433918391851115611c2b5760405162461bcd60e51b8152600401610d32906139e4565b6000818152600760205260409081902054905163a9059cbb60e01b81526001600160a01b038881169263a9059cbb92611c6c92909116908990600401613885565b602060405180830381600087803b158015611c8657600080fd5b505af1158015611c9a573d6000803e3d6000fd5b505050506040513d601f19601f82011682018060405250810190611cbe919061351e565b50505050505050565b33816000836001600160a01b0316636945c1fd6040518163ffffffff1660e01b815260040160206040518083038186803b158015611d0457600080fd5b505afa158015611d18573d6000803e3d6000fd5b505050506040513d601f19601f82011682018060405250810190611d3c9190613205565b6001600160a01b0380861660009081526006602052604090819020546002549151631f29a8cd60e31b815293945092606092919091169063f94d466890611d8790859060040161389e565b60006040518083038186803b158015611d9f57600080fd5b505afa158015611db3573d6000803e3d6000fd5b505050506040513d6000823e601f3d908101601f19168201604052611ddb9190810190613452565b505090506060611dea82612caf565b90506060825167ffffffffffffffff81118015611e0657600080fd5b50604051908082528060200260200182016040528015611e30578160200160208202803683370190505b509050611e3b613151565b60405180608001604052808481526020018381526020016001620f42406001600160701b0303604051602001611e72929190613906565b60408051808303601f1901815291815290825260006020909201919091526002549051638bdb391360e01b81529192506001600160a01b031690638bdb391390611ec69088903090819087906004016138a7565b600060405180830381600087803b158015611ee057600080fd5b505af1158015611ef4573d6000803e3d6000fd5b50505050847f56eadf552f1d54f8f73fbbf801097c1c4d7bb3d77d5ac2bebfd0a8151642d55a8a42604051611f2a929190613885565b60405180910390a2600085815260076020526040908190205490516370a0823160e01b81526001600160a01b038089169263a9059cbb9291169083906370a0823190611f7a903090600401613782565b60206040518083038186803b158015611f9257600080fd5b505afa158015611fa6573d6000803e3d6000fd5b505050506040513d601f19601f82011682018060405250810190611fca919061353a565b6040518363ffffffff1660e01b8152600401611fe7929190613885565b602060405180830381600087803b15801561200157600080fd5b505af1158015612015573d6000803e3d6000fd5b505050506040513d601f19601f82011682018060405250810190612039919061351e565b50600085815260076020526040908190205490516370a0823160e01b81526001600160a01b03808c169263a9059cbb9291169083906370a0823190612082903090600401613782565b60206040518083038186803b15801561209a57600080fd5b505afa1580156120ae573d6000803e3d6000fd5b505050506040513d601f19601f820116820180604052508101906120d2919061353a565b6040518363ffffffff1660e01b81526004016120ef929190613885565b602060405180830381600087803b15801561210957600080fd5b505af115801561211d573d6000803e3d6000fd5b505050506040513d601f19601f82011682018060405250810190610604919061351e565b61214d33611b6a611bc6565b6121646001600160a01b03821615156101ab612c9d565b600080546040516001600160a01b03808516939216917f8be0079c531659141344cd1fd0a4f28419497f9722a3daafe3b4186f6b6457e091a3600080546001600160a01b0319166001600160a01b0392909216919091179055565b6121cb33611b6a611bc6565b600180546001600160a01b039586166001600160a01b0319918216179091556002805494861694821694909417909355600480549285169284169290921790915560038054919093169116179055565b336000818152600c60205260409020546122475760405162461bcd60e51b8152600401610d3290613949565b60005b6001600160a01b038085166000908152600d60209081526040808320938716835292905220548110156124905761227f613064565b6001600160a01b038086166000908152600d602090815260408083209388168352929052208054839081106122b057fe5b60009182526020918290206040805160e081018252600790930290910180546001600160a01b039081168085526001830154909116948401949094526002810154918301919091526003810154606083015260048101546080830152600581015460a08301526006015460c082015291503314156123ce5780516001600160a01b038181166000908152600960209081526040808320938916808452939091529081902054905163a9059cbb60e01b8152919263a9059cbb926123769290600401613885565b602060405180830381600087803b15801561239057600080fd5b505af11580156123a4573d6000803e3d6000fd5b505050506040513d601f19601f820116820180604052508101906123c8919061351e565b50612487565b60208101516001600160a01b0316331415612487576020808201516001600160a01b0381811660009081526009845260408082209289168083529290945283902054925163a9059cbb60e01b8152909263a9059cbb9261243392909190600401613885565b602060405180830381600087803b15801561244d57600080fd5b505af1158015612461573d6000803e3d6000fd5b505050506040513d601f19601f82011682018060405250810190612485919061351e565b505b5060010161224a565b50505050565b60006124a6838311156001612c9d565b50900390565b60008282026124d08415806124c95750838583816124c657fe5b04145b6003612c9d565b9392505050565b60008183036124d08284128015906124ef5750848213155b80612504575060008412801561250457508482135b6001612c9d565b60008282016124d08284128015906125235750848212155b80612538575060008412801561253857508482125b6000612c9d565b60008282026125598415806124c95750838583816124c657fe5b670de0b6b3a764000090049392505050565b60008282016124d08482101583612c9d565b6000836001600160a01b031687600001516001600160a01b03161480156125b95750846001600160a01b031687606001516001600160a01b0316145b156125c3576125ff565b836001600160a01b031687600001516001600160a01b03161480156125fd5750856001600160a01b031687606001516001600160a01b0316145b505b5060019695505050505050565b6001546040516304f9d33f60e11b81526001600160a01b03909116906309f3a67e9061263c908990600401613a19565b602060405180830381600087803b15801561265657600080fd5b505af115801561266a573d6000803e3d6000fd5b505050506040513d601f19601f8201168201806040525081019061268e9190613205565b6001600160a01b0386811660009081526005602090815260408083208885168452825280832080546001600160a01b0319169585169590951794859055805163038fff2d60e41b815290519294909316926338fff2d09260048083019392829003018186803b15801561270057600080fd5b505afa158015612714573d6000803e3d6000fd5b505050506040513d601f19601f82011682018060405250810190612738919061353a565b6001600160a01b0387811660009081526006602090815260408083208590558483526007909152902080546001600160a01b0319169185169190911790559050611cbe8685878685612cb2565b600080826001600160a01b031663313ce5676040518163ffffffff1660e01b815260040160206040518083038186803b1580156127c157600080fd5b505afa1580156127d5573d6000803e3d6000fd5b505050506040513d601f19601f820116820180604052508101906127f99190613633565b60ff169050600061280b601283612496565b600a0a670de0b6b3a764000002949350505050565b60006124d0838361253f565b600080846001600160a01b031663ced72f876040518163ffffffff1660e01b815260040160206040518083038186803b15801561286857600080fd5b505afa15801561287c573d6000803e3d6000fd5b505050506040513d601f19601f820116820180604052508101906128a0919061353a565b90506128ac838261253f565b905060006128c2826128bd87612785565b61290b565b6001600160a01b0386166000908152600860205260409020549091506128e8908261256b565b6001600160a01b0386166000908152600860205260409020559150509392505050565b600061291a8215156004612c9d565b8261292757506000610e68565b670de0b6b3a76400008381029061294a9085838161294157fe5b04146005612c9d565b82818161295357fe5b04915050610e68565b876001600160a01b03166338fff2d06040518163ffffffff1660e01b815260040160206040518083038186803b15801561299557600080fd5b505afa1580156129a9573d6000803e3d6000fd5b505050506040513d601f19601f820116820180604052508101906129cd919061353a565b7fbe8183e0bf67f74150edc1b1b2ff1b35ca15cb451161a42e3c428c208c46f38f846001600160a01b03168a6001600160a01b0316635778472a8b6040518263ffffffff1660e01b8152600401612a24919061389e565b60a06040518083038186803b158015612a3c57600080fd5b505afa158015612a50573d6000803e3d6000fd5b505050506040513d601f19601f82011682018060405250810190612a7491906135b9565b606001516001600160a01b031614612b0b57604051632bbc239560e11b81526001600160a01b038b1690635778472a90612ab2908c9060040161389e565b60a06040518083038186803b158015612aca57600080fd5b505afa158015612ade573d6000803e3d6000fd5b505050506040513d601f19601f82011682018060405250810190612b0291906135b9565b60600151612b8c565b604051632bbc239560e11b81526001600160a01b038b1690635778472a90612b37908b9060040161389e565b60a06040518083038186803b158015612b4f57600080fd5b505afa158015612b63573d6000803e3d6000fd5b505050506040513d601f19601f82011682018060405250810190612b8791906135b9565b606001515b85888c6001600160a01b0316632541897f6040518163ffffffff1660e01b815260040160206040518083038186803b158015612bc757600080fd5b505afa158015612bdb573d6000803e3d6000fd5b505050506040513d601f19601f82011682018060405250810190612bff9190613205565b8d6001600160a01b0316636945c1fd6040518163ffffffff1660e01b815260040160206040518083038186803b158015612c3857600080fd5b505afa158015612c4c573d6000803e3d6000fd5b505050506040513d601f19601f82011682018060405250810190612c709190613205565b8a8d8f8a42604051612c8b9a999897969594939291906137ba565b60405180910390a25050505050505050565b81612cab57612cab81613011565b5050565b90565b600254604051631f29a8cd60e31b81526060916001600160a01b03169063f94d466890612ce390859060040161389e565b60006040518083038186803b158015612cfb57600080fd5b505afa158015612d0f573d6000803e3d6000fd5b505050506040513d6000823e601f3d908101601f19168201604052612d379190810190613452565b505090506060612d4682612caf565b90506060825167ffffffffffffffff81118015612d6257600080fd5b50604051908082528060200260200182016040528015612d8c578160200160208202803683370190505b5060025460405163095ea7b360e01b81529192506001600160a01b03808a169263095ea7b392612dc29216908990600401613885565b602060405180830381600087803b158015612ddc57600080fd5b505af1158015612df0573d6000803e3d6000fd5b505050506040513d601f19601f82011682018060405250810190612e14919061351e565b5060025460405163095ea7b360e01b81526001600160a01b038a81169263095ea7b392612e4992909116908a90600401613885565b602060405180830381600087803b158015612e6357600080fd5b505af1158015612e77573d6000803e3d6000fd5b505050506040513d601f19601f82011682018060405250810190612e9b919061351e565b5060005b8351811015612f5b57886001600160a01b0316848281518110612ebe57fe5b60200260200101516001600160a01b03161415612ef35786828281518110612ee257fe5b602002602001018181525050612f53565b876001600160a01b0316848281518110612f0957fe5b60200260200101516001600160a01b03161415612f2d5785828281518110612ee257fe5b620f42406001600160701b0303828281518110612f4657fe5b6020026020010181815250505b600101612e9f565b50612f64613151565b6040518060800160405280848152602001838152602001600084604051602001612f8f92919061391e565b60408051808303601f190181529181529082526000602090920191909152600254905163172b958560e31b81529192506001600160a01b03169063b95cac2890612fe39088903090819087906004016138a7565b600060405180830381600087803b158015612ffd57600080fd5b505af11580156111b5573d6000803e3d6000fd5b62461bcd60e51b6000908152602060045260076024526642414c23000030600a808404818106603090810160081b95839006959095019082900491820690940160101b939093010160c81b604452606490fd5b6040518060e0016040528060006001600160a01b0316815260200160006001600160a01b0316815260200160008152602001600081526020016000801916815260200160008152602001600081525090565b6040805160a081019091526000808252602082019081526020016000815260006020820181905260409091015290565b604051806101400160405280606081526020016060815260200160006001600160a01b031681526020016000801916815260200160006001600160a01b0316815260200160008019168152602001600081526020016000815260200160008152602001600081525090565b60405180608001604052806060815260200160608152602001606081526020016000151581525090565b600082601f83011261318b578081fd5b815161319e61319982613b02565b613adb565b8181529150602080830190848101818402860182018710156131bf57600080fd5b60005b848110156131de578151845292820192908201906001016131c2565b505050505092915050565b6000602082840312156131fa578081fd5b81356124d081613b22565b600060208284031215613216578081fd5b81516124d081613b22565b60008060408385031215613233578081fd5b823561323e81613b22565b9150602083013561324e81613b22565b809150509250929050565b6000806000806080858703121561326e578182fd5b843561327981613b22565b9350602085013561328981613b22565b9250604085013561329981613b22565b915060608501356132a981613b22565b939692955090935050565b600080600080600080600060e0888a0312156132ce578283fd5b87356132d981613b22565b965060208801356132e981613b22565b955060408801359450606088013561330081613b22565b93506080880135925060a088013561331781613b22565b8092505060c0880135905092959891949750929550565b600080600080600080600060e0888a031215613348578283fd5b873561335381613b22565b9650602088013561336381613b22565b955060408801359450606088013561337a81613b3a565b93506080880135925060a088013561331781613b3a565b6000806000806000806000806000806101408b8d0312156133b0578384fd5b8a356133bb81613b22565b995060208b0135985060408b01356133d281613b22565b999c989b5098996060810135995060808101359860a0820135985060c0820135975060e082013596506101008201359550610120909101359350915050565b600080600060608486031215613425578081fd5b833561343081613b22565b925060208401359150604084013561344781613b22565b809150509250925092565b600080600060608486031215613466578081fd5b835167ffffffffffffffff8082111561347d578283fd5b818601915086601f830112613490578283fd5b815161349e61319982613b02565b80828252602080830192508086018b8283870289010111156134be578788fd5b8796505b848710156134e95780516134d581613b22565b8452600196909601959281019281016134c2565b508901519097509350505080821115613500578283fd5b5061350d8682870161317b565b925050604084015190509250925092565b60006020828403121561352f578081fd5b81516124d081613b3a565b60006020828403121561354b578081fd5b5051919050565b600080600080600080600060e0888a03121561356c578081fd5b8735965060208801359550604088013561358581613b22565b945060608801359350608088013561359c81613b22565b9699959850939692959460a0840135945060c09093013592915050565b600060a082840312156135ca578081fd5b6135d460a0613adb565b82516135df81613b22565b81526020830151600381106135f2578283fd5b6020820152604083015160058110613608578283fd5b6040820152606083015161361b81613b22565b60608201526080928301519281019290925250919050565b600060208284031215613644578081fd5b815160ff811681146124d0578182fd5b6001600160a01b03169052565b6000815180845260208085019450808401835b8381101561369057815187529582019590820190600101613674565b509495945050505050565b15159052565b60008151808452815b818110156136c6576020818501810151868301820152016136aa565b818111156136d75782602083870101525b50601f01601f19169290920160200192915050565b8051608080845281519084018190526000916020919082019060a0860190845b818110156137315783516001600160a01b03168352928401929184019160010161370c565b50508285015191508581038387015261374a8183613661565b925050506040830151848203604086015261376582826136a1565b915050606083015161377a606086018261369b565b509392505050565b6001600160a01b0391909116815260200190565b6001600160a01b039384168152919092166020820152604081019190915260600190565b6001600160a01b039a8b168152988a1660208a01526040890197909752948816606088015292909616608086015260a085015260c084019490945260e08301939093526101008201929092526101208101919091526101400190565b6001600160a01b03978816815295871660208701526040860194909452919094166060840152608083019390935260a082019290925260c081019190915260e00190565b6001600160a01b03948516815260208101939093526040830191909152909116606082015260800190565b6001600160a01b03929092168252602082015260400190565b90815260200190565b8481526001600160a01b038481166020830152831660408201526080606082018190526000906138d9908301846136ec565b9695505050505050565b948552602085019390935260408401919091526060830152608082015260a00190565b604081016002841061391457fe5b9281526020015290565b60006004841061392a57fe5b838252604060208301526139416040830184613661565b949350505050565b602080825260139082015272556e617574686f72697a65642061636365737360681b604082015260600190565b6020808252601f908201527f556e617574686f72697a656420636f6c6c656374696f6e207265717565737400604082015260600190565b60208082526019908201527f4e6f2062616c616e636520746f2063726561746520706f6f6c00000000000000604082015260600190565b6020808252818101527f496e73756666696369656e7420636f6c6c61746572616c20666f7220706f6f6c604082015260600190565b6000602082528251610140806020850152613a386101608501836136a1565b91506020850151601f19858403016040860152613a5583826136a1565b9250506040850151613a6a6060860182613654565b50606085015160808501526080850151613a8760a0860182613654565b5060a085015160c085015260c085015160e085015260e0850151610100818187015280870151915050610120818187015280870151838701525050508091505092915050565b918252602082015260400190565b60405181810167ffffffffffffffff81118282101715613afa57600080fd5b604052919050565b600067ffffffffffffffff821115613b18578081fd5b5060209081020190565b6001600160a01b0381168114613b3757600080fd5b50565b8015158114613b3757600080fdfea2646970667358221220cd6300f341edc47b4de4c39dd6ff47d32e0d0c621b6f3f26e82cdf46985e4cc464736f6c63430007010033",
  "immutableReferences": {},
  "source": "// Manager for creating margin trading pools\r\n// (c) Kallol Borah, 2023\r\n// \"SPDX-License-Identifier: BUSL1.1\"\r\n\r\npragma solidity 0.7.1;\r\npragma experimental ABIEncoderV2;\r\n\r\nimport \"./interfaces/IFactory.sol\";\r\nimport \"./interfaces/ISecurity.sol\";\r\nimport \"./interfaces/IMarginOrder.sol\";\r\nimport \"./interfaces/IMarginManager.sol\";\r\nimport \"./interfaces/IMarginTradingPool.sol\";\r\nimport \"./interfaces/IMarginTradingPoolFactory.sol\";\r\n\r\nimport '@balancer-labs/v2-vault/contracts/interfaces/IAsset.sol';\r\nimport '@balancer-labs/v2-vault/contracts/interfaces/IVault.sol';\r\n\r\nimport \"@balancer-labs/v2-solidity-utils/contracts/math/Math.sol\";\r\nimport \"@balancer-labs/v2-solidity-utils/contracts/math/FixedPoint.sol\";\r\nimport \"@balancer-labs/v2-solidity-utils/contracts/openzeppelin/ERC20.sol\";\r\nimport \"@balancer-labs/v2-solidity-utils/contracts/openzeppelin/IERC20.sol\";\r\nimport \"@balancer-labs/v2-solidity-utils/contracts/openzeppelin/Ownable.sol\";\r\n\r\ncontract MarginIssueManager is IMarginManager, Ownable {\r\n\r\n    using Math for *;\r\n\r\n    // balancer variables\r\n    address private _poolFactory;    \r\n\r\n    address private _vault;\r\n\r\n    address private _distribution;\r\n\r\n    IFactory private _securityFactory;\r\n\r\n    uint256 private constant _INITIAL_BPT_SUPPLY = 2**(112) - 1;\r\n    uint256 private constant _DEFAULT_MINIMUM_BPT = 1e6;\r\n\r\n    //mapping security address to currency address to pool address\r\n    mapping(address => mapping(address => address)) private pools;\r\n\r\n    //mapping security token to pool id traded\r\n    mapping(address => bytes32) private poolSecurity;\r\n\r\n    //mapping pool id to issuer\r\n    mapping(bytes32 => address) private issuer;\r\n\r\n    //mapping token address to issuing fee collected\r\n    mapping(address => uint256) private fees;\r\n\r\n    //positions mapping trader address to collateral address to positive/negative balance (true for +ve, false for -ve) amount\r\n    mapping(address => mapping(address => int256)) private collateralBalance;\r\n\r\n    //mapping pool id to cash token to collateral amount\r\n    mapping(bytes32 => mapping(address => uint256)) private collateralAmount;\r\n\r\n    //traders\r\n    address[] private traders;\r\n    mapping(address => uint256) private traderIndex;    \r\n\r\n    //positions mapping security to currency to array of trade positions\r\n    mapping(address => mapping(address => IMarginManager.tradePosition[])) private positions;\r\n    //mapping order ref to index of position in positions array\r\n    mapping(bytes32 => uint256) private orders;\r\n\r\n    event tradeSettled( \r\n                        bytes32 indexed poolid,\r\n                        address transferor,\r\n                        address transferee,\r\n                        uint256 unitsToTransfer,\r\n                        address security,\r\n                        address currency,                        \r\n                        uint256 amountPaid,\r\n                        bytes32 cref,\r\n                        bytes32 ref,\r\n                        uint256 fee,\r\n                        uint256 timestamp\r\n                    );\r\n\r\n    event subscribers(address party, address counterparty, address indexed securityTraded, uint256 securityAmount, \r\n                        address currencySettled, uint256 cashAmount, bytes32 orderRef, uint256 timestamp);\r\n\r\n    event closures(bytes32 indexed poolId, address security, uint256 timestamp);\r\n    event feecollection(address indexed platform, uint256 collection, uint256 timestamp);\r\n\r\n    modifier onlyIssueManager(address sender, address security){\r\n        //address DP = _securityFactory.getDP(security);\r\n        //require(DP==sender, \"Unauthorized access\");\r\n        _;\r\n    }\r\n\r\n    modifier onlyTrader(address sender){\r\n        require(traderIndex[sender]!=0, \"Unauthorized access\");\r\n        _;\r\n    }\r\n\r\n    function initialize(address poolFactory, address vault, address securityFactory, address distribution) public onlyOwner {\r\n        _poolFactory = poolFactory;\r\n        _vault = vault;\r\n        _securityFactory = IFactory(securityFactory);\r\n        _distribution = distribution;\r\n    }\r\n\r\n    function issueProduct(address security, bytes32 securityType, address currency, bytes32 cficode, uint256 securityAmount, uint256 minimumOrderSize, uint256 cashAmount,\r\n                                uint256 margin, uint256 collateral, uint256 tradeFee) override external onlyIssueManager(msg.sender, security) {\r\n        require(IERC20(security).balanceOf(msg.sender)>=securityAmount && \r\n                IERC20(currency).balanceOf(msg.sender)>=cashAmount, \"No balance to create pool\");\r\n        ERC20(currency).transferFrom(msg.sender, address(this), cashAmount);\r\n        ERC20(security).transferFrom(msg.sender, address(this), securityAmount);  \r\n        ISecurity(security).whiteList(_vault, securityAmount);      \r\n        IMarginTradingPoolFactory.FactoryPoolParams memory poolparams = IMarginTradingPoolFactory.FactoryPoolParams({\r\n            name : \"Verified Pool Token\",\r\n            symbol : \"VPT\",\r\n            security : security,\r\n            securityType: securityType,\r\n            currency : currency,\r\n            cficode: cficode,\r\n            minOrderSize : minimumOrderSize,\r\n            margin : margin,\r\n            collateral: collateral,\r\n            tradeFeePercentage : tradeFee\r\n        });    \r\n        createPool(poolparams, security, securityAmount, currency, cashAmount, msg.sender);        \r\n    }\r\n\r\n    function createPool(IMarginTradingPoolFactory.FactoryPoolParams memory poolparams, address security, uint256 securityAmount, address currency, uint256 cashAmount, address creator) private {\r\n        pools[security][currency] = IMarginTradingPoolFactory(_poolFactory).create(poolparams);   \r\n        bytes32 poolId = IMarginTradingPool(pools[security][currency]).getPoolId();  \r\n        poolSecurity[security] = poolId; \r\n        issuer[poolId] = creator;\r\n        joinPool(security, currency, securityAmount, cashAmount, poolId);\r\n    }\r\n\r\n    function joinPool(address security, address currency, uint256 securityAmount, uint256 cashAmount, bytes32 poolId) private {\r\n        // join the pool here                \r\n        (IERC20[] memory tokens, , ) = IVault(_vault).getPoolTokens(poolId);\r\n        IAsset[] memory assets = _convertERC20sToAssets(tokens);\r\n        uint256[] memory maxAmountsIn = new uint256[](tokens.length);\r\n        ERC20(currency).approve(_vault, cashAmount);\r\n        ERC20(security).approve(_vault, securityAmount);\r\n        for(uint256 t; t < tokens.length; t++) {\r\n            if(tokens[t]==IERC20(security))\r\n                maxAmountsIn[t] = securityAmount;\r\n            else if(tokens[t]==IERC20(currency))\r\n                maxAmountsIn[t] = cashAmount;\r\n            else \r\n                maxAmountsIn[t] = _INITIAL_BPT_SUPPLY - _DEFAULT_MINIMUM_BPT;//Math.sub(_INITIAL_BPT_SUPPLY, _DEFAULT_MINIMUM_BPT);\r\n        }\r\n        IVault.JoinPoolRequest memory request = IVault.JoinPoolRequest({\r\n            assets: assets,\r\n            maxAmountsIn: maxAmountsIn,\r\n            userData: abi.encode(JoinKind.INIT, maxAmountsIn),\r\n            fromInternalBalance: false\r\n        });         \r\n        IVault(_vault).joinPool(poolId, address(this), address(this), request);\r\n    }\r\n\r\n    function close(address security) override external onlyIssueManager(msg.sender, security) {\r\n        address currency = IMarginTradingPool(security).getCurrency(); \r\n        // exit the pool here   \r\n        bytes32 poolId = poolSecurity[security];\r\n        (IERC20[] memory tokens, , ) = IVault(_vault).getPoolTokens(poolId);\r\n        IAsset[] memory assets = _convertERC20sToAssets(tokens);\r\n        uint256[] memory amountsOut = new uint256[](tokens.length);\r\n        IVault.ExitPoolRequest memory request = IVault.ExitPoolRequest({\r\n            assets: assets,\r\n            minAmountsOut: amountsOut,\r\n            userData: abi.encode(ExitKind.EXACT_BPT_IN_FOR_TOKENS_OUT, _INITIAL_BPT_SUPPLY - _DEFAULT_MINIMUM_BPT),\r\n            toInternalBalance: false\r\n        });         \r\n        IVault(_vault).exitPool(poolId, address(this), payable(address(this)), request);\r\n        emit closures(poolId, security, block.timestamp);\r\n        IERC20(currency).transfer(issuer[poolId], IERC20(currency).balanceOf(address(this)));\r\n        IERC20(security).transfer(issuer[poolId], IERC20(security).balanceOf(address(this)));\r\n    }\r\n    \r\n    function offerCollateral(address cashToken, uint256 amount, address security) override external {\r\n        IERC20(cashToken).transferFrom(msg.sender, address(this), amount);\r\n        uint256 scalingFactor = _computeScalingFactor(IERC20(cashToken));\r\n        amount = _upscale(amount, scalingFactor);\r\n        collateralBalance[msg.sender][cashToken] = Math.add(int(amount), collateralBalance[msg.sender][cashToken]);\r\n        if(traderIndex[msg.sender]==0){\r\n            traders.push(msg.sender);\r\n            traderIndex[msg.sender] = traders.length;\r\n        }\r\n        bytes32 poolId = poolSecurity[security];\r\n        collateralAmount[poolId][cashToken] = Math.add(collateralAmount[poolId][cashToken], amount);\r\n    }\r\n\r\n    function sendCollateral(address cashToken, uint256 amount, address security) override external onlyIssueManager(msg.sender, security){\r\n        bytes32 poolId = poolSecurity[security];\r\n        require(collateralAmount[poolId][cashToken] >= amount, \"Insufficient collateral for pool\");\r\n        IERC20(cashToken).transfer(issuer[poolId], amount);\r\n    }\r\n\r\n    function getCollateral(address party, address currency) external override view returns(int256){\r\n        return collateralBalance[party][currency];\r\n    }\r\n    event ptc(address serial, int collateral, int balance, address trader);\r\n    function onMatch(address party, address counterparty, bytes32 orderRef, address security, uint256 securityTraded, address currency, uint256 cashTraded) external \r\n                            override onlyIssueManager(msg.sender, security) {\r\n        IMarginOrder.order memory order = IMarginOrder(IMarginTradingPool(pools[security][currency]).getOrderbook()).getOrder(orderRef);\r\n        uint256 marginCollateral = Math.add(FixedPoint.mulDown(cashTraded, IMarginTradingPool(pools[security][currency]).getMargin()),\r\n                                            FixedPoint.mulDown(cashTraded, IMarginTradingPool(pools[security][currency]).getCollateral()));\r\n        //for security traded in by counterparty, party is trading in cash to buy security, so margin collateral needs to be checked\r\n        //emit ptc(order.tokenIn, int(marginCollateral), collateralBalance[order.party][currency], order.party);\r\n        if(order.tokenIn==currency){\r\n            emit ptc(order.tokenIn, int(marginCollateral), collateralBalance[party][currency], party);\r\n            /*if(int(marginCollateral) >= collateralBalance[party][currency])\r\n                return true;\r\n            else\r\n                return false;*/\r\n        }\r\n        else if(order.tokenIn==security){\r\n            emit ptc(order.tokenIn, int(marginCollateral), collateralBalance[counterparty][currency], counterparty);\r\n            /*if(int(marginCollateral) >= collateralBalance[counterparty][currency])\r\n                return true;\r\n            else\r\n                return false;*/\r\n        }\r\n        if(pretradeCheck(order, party, counterparty, security, currency, marginCollateral)){   \r\n            emit subscribers(party, counterparty, security, securityTraded, currency, cashTraded, orderRef, block.timestamp);\r\n            if(order.tokenIn==security && order.party==counterparty)\r\n                collateralBalance[party][currency] = Math.sub(collateralBalance[party][currency], int(marginCollateral));\r\n            else\r\n                collateralBalance[counterparty][currency] = Math.sub(collateralBalance[counterparty][currency], int(marginCollateral));\r\n            //record trade position\r\n            IMarginManager.tradePosition memory position = IMarginManager.tradePosition({\r\n                buyer : order.tokenIn==currency && order.party==counterparty ? counterparty : party,\r\n                seller : order.tokenIn==security && order.party==counterparty ? counterparty : party,\r\n                securityAmount : securityTraded,\r\n                cashAmount : cashTraded,\r\n                orderReference : orderRef,\r\n                marginCollateral : marginCollateral,\r\n                timestamp : 0\r\n            });\r\n            positions[security][currency].push(position);\r\n            orders[orderRef] = positions[security][currency].length - 1;\r\n        }\r\n    }\r\n    \r\n    function pretradeCheck(IMarginOrder.order memory order, address party, address counterparty, address security, address currency, uint256 marginCollateral) private view returns(bool){\r\n        //for security traded in by counterparty, party is trading in cash to buy security, so margin collateral needs to be checked\r\n        if(order.tokenIn==security && order.party==counterparty){\r\n            /*if(int(marginCollateral) >= collateralBalance[party][currency])\r\n                return true;\r\n            else\r\n                return false;*/\r\n        }\r\n        else if(order.tokenIn==security && order.party==party){\r\n            /*if(int(marginCollateral) >= collateralBalance[counterparty][currency])\r\n                return true;\r\n            else\r\n                return false;*/\r\n        }\r\n        return true;\r\n    }\r\n\r\n    function onTrade(bytes32 ref, bytes32 cref, address security, uint256 securityTraded, address currency, uint256 currencyTraded, uint256 executionTime) external override onlyIssueManager(msg.sender, security) {\r\n        if(securityTraded!=0 && currencyTraded!=0){ //if trade execution is successful, report trade and update timestamp\r\n            uint256 pay = calculateFee(pools[security][currency], currency, currencyTraded);\r\n            address orderbook = IMarginTradingPool(pools[security][currency]).getOrderbook();\r\n            address party = IMarginOrder(orderbook).getOrder(ref).tokenIn==currency ? \r\n                                        IMarginOrder(orderbook).getOrder(ref).party :\r\n                                        IMarginOrder(orderbook).getOrder(cref).party;\r\n            collateralBalance[party][currency] = Math.sub(collateralBalance[party][currency], int(pay));\r\n            IMarginOrder(orderbook).reportTrade(ref, cref, securityTraded, currencyTraded, block.timestamp);\r\n            uint256 pos = FixedPoint.divDown(currencyTraded, securityTraded);\r\n            tradeReport(orderbook, ref, cref, securityTraded, currencyTraded, party, pos, pay);\r\n            pos = orders[ref];\r\n            IMarginManager.tradePosition memory position;\r\n            if(pos!=0){\r\n                position = positions[security][currency][pos];\r\n                position.timestamp = executionTime;\r\n            }\r\n            pos = orders[cref];\r\n            if(pos!=0){\r\n                position = positions[security][currency][pos];\r\n                position.timestamp = executionTime;\r\n            }\r\n        }\r\n        else{ //if trade execution fails, add back cash \r\n            IMarginManager.tradePosition memory position;\r\n            uint256 pos = orders[ref];\r\n            if(pos!=0){\r\n                position = positions[security][currency][pos];\r\n                collateralBalance[position.buyer][currency] = Math.add(collateralBalance[position.buyer][currency], int(position.marginCollateral));\r\n                delete positions[security][currency][pos];\r\n            }\r\n            pos = orders[cref];\r\n            if(pos!=0)\r\n                position = positions[security][currency][pos];\r\n                collateralBalance[position.buyer][currency] = Math.add(collateralBalance[position.buyer][currency], int(position.marginCollateral));\r\n                delete positions[security][currency][pos];\r\n        }\r\n    }\r\n\r\n    function tradeReport(address orderbook, bytes32 ref, bytes32 cref, uint256 securityTraded, \r\n                            uint256 currencyTraded, address buyer, uint256 price, uint256 pay) private {\r\n        emit tradeSettled( \r\n            IMarginOrder(orderbook).getPoolId(),\r\n            IMarginOrder(orderbook).getOrder(ref).party==buyer ?\r\n                                IMarginOrder(orderbook).getOrder(cref).party :\r\n                                IMarginOrder(orderbook).getOrder(ref).party,\r\n            buyer,\r\n            securityTraded,\r\n            IMarginOrder(orderbook).getSecurity(),\r\n            IMarginOrder(orderbook).getCurrency(),\r\n            currencyTraded,\r\n            cref,\r\n            ref,\r\n            pay,\r\n            block.timestamp\r\n        );\r\n    }    \r\n\r\n    function calculateFee(address pool, address currency, uint256 currencyTraded) private returns(uint256){\r\n        uint256 fee = IMarginTradingPool(pool).getFee();\r\n        fee = FixedPoint.mulDown(currencyTraded, fee);\r\n        uint256 pay = FixedPoint.divDown(fee, _computeScalingFactor(IERC20(currency)));\r\n        fees[currency] = Math.add(fees[currency], pay);\r\n        return pay;\r\n    }\r\n\r\n    function onSettle(address security, address currency, uint256 financingPerSec, bool charge, uint256 dividendPerSec, bool payout, uint256 settlementTime) override external onlyIssueManager(msg.sender, security){\r\n        for(uint256 i=0; i<positions[security][currency].length; i++){\r\n            IMarginManager.tradePosition memory position = positions[security][currency][i];\r\n            if(collateralBalance[position.buyer][currency]!=0){\r\n                if(charge)\r\n                    collateralBalance[position.buyer][currency] = Math.sub(collateralBalance[position.buyer][currency], int(Math.mul(financingPerSec, Math.sub(settlementTime, position.timestamp))));\r\n                else\r\n                    collateralBalance[position.buyer][currency] = Math.add(collateralBalance[position.buyer][currency], int(Math.mul(financingPerSec, Math.sub(settlementTime, position.timestamp))));\r\n                if(payout)\r\n                    collateralBalance[position.buyer][currency] = Math.sub(collateralBalance[position.buyer][currency], int(Math.mul(dividendPerSec, Math.sub(settlementTime, position.timestamp))));\r\n                else\r\n                    collateralBalance[position.buyer][currency] = Math.add(collateralBalance[position.buyer][currency], int(Math.mul(dividendPerSec, Math.sub(settlementTime, position.timestamp))));\r\n                position.timestamp = settlementTime;\r\n            }\r\n            if(collateralBalance[position.seller][currency]!=0){\r\n                if(payout)\r\n                    collateralBalance[position.seller][currency] = Math.add(collateralBalance[position.seller][currency], int(Math.mul(dividendPerSec, Math.sub(settlementTime, position.timestamp))));\r\n                else\r\n                    collateralBalance[position.seller][currency] = Math.sub(collateralBalance[position.seller][currency], int(Math.mul(dividendPerSec, Math.sub(settlementTime, position.timestamp))));\r\n                position.timestamp = settlementTime;\r\n            }\r\n        }\r\n    }    \r\n\r\n    function withdraw(address security, address currency) override external onlyTrader(msg.sender){\r\n        for(uint256 i=0; i<positions[security][currency].length; i++){\r\n            IMarginManager.tradePosition memory position = positions[security][currency][i];\r\n            if(position.buyer==msg.sender){\r\n                IERC20(currency).transfer(position.buyer, uint(collateralBalance[position.buyer][currency]));\r\n                //delete positions[security][currency][orders[position.orderReference]];\r\n            }\r\n            else if(position.seller==msg.sender){\r\n                IERC20(currency).transfer(position.seller, uint(collateralBalance[position.seller][currency]));\r\n                //delete positions[security][currency][orders[position.orderReference]];\r\n            }\r\n        }\r\n    }\r\n\r\n    function getTradingFeeCollected(address _token) override external returns(uint256){\r\n        require(msg.sender==_distribution, \"Unauthorized collection request\");\r\n        uint256 feeCollected = fees[_token];\r\n        fees[_token] = Math.sub(fees[_token], feeCollected);\r\n        IERC20(_token).transfer(_distribution, feeCollected);\r\n        emit feecollection(address(this), feeCollected, block.timestamp);\r\n        return feeCollected;\r\n    }  \r\n\r\n    /**\r\n     * @dev This helper function is a fast and cheap way to convert between IERC20[] and IAsset[] types\r\n     */\r\n    function _convertERC20sToAssets(IERC20[] memory tokens) internal pure returns (IAsset[] memory assets) {\r\n        // solhint-disable-next-line no-inline-assembly\r\n        assembly {\r\n            assets := tokens\r\n        }\r\n    }\r\n\r\n    /**\r\n     * @dev Returns a scaling factor that, when multiplied to a token amount for `token`, normalizes its balance as if\r\n     * it had 18 decimals.\r\n     */\r\n    function _computeScalingFactor(IERC20 token) internal view returns (uint256) {\r\n        // Tokens that don't implement the `decimals` method are not supported.\r\n        uint256 tokenDecimals = ERC20(address(token)).decimals();\r\n\r\n        // Tokens with more than 18 decimals are not supported.\r\n        uint256 decimalsDifference = Math.sub(18, tokenDecimals);\r\n        return FixedPoint.ONE * 10**decimalsDifference;\r\n    }\r\n\r\n    function _upscale(uint256 amount, uint256 scalingFactor) internal pure returns (uint256) {        \r\n        return FixedPoint.mulDown(amount, scalingFactor);\r\n    }\r\n\r\n}",
  "sourcePath": "D:\\Code\\verified-balancer\\contracts\\MarginIssueManager.sol",
  "compiler": {
    "name": "solc",
    "version": "0.7.1+commit.f4a555be.Emscripten.clang"
  },
  "schemaVersion": "3.4.3",
  "updatedAt": "2024-01-28T17:03:25.663Z",
  "networkType": "ethereum",
  "devdoc": {
    "kind": "dev",
    "methods": {
      "owner()": {
        "details": "Returns the address of the current owner."
      },
      "renounceOwnership()": {
        "details": "Leaves the contract without owner. It will not be possible to call `onlyOwner` functions anymore. Can only be called by the current owner. NOTE: Renouncing ownership will leave the contract without an owner, thereby removing any functionality that is only available to the owner."
      },
      "transferOwnership(address)": {
        "details": "Transfers ownership of the contract to a new account (`newOwner`). Can only be called by the current owner."
      }
    },
    "version": 1
  },
  "userdoc": {
    "kind": "user",
    "methods": {},
    "version": 1
  }
}