{
  "contractName": "MarginIssueManager",
  "abi": [
    {
      "anonymous": false,
      "inputs": [
        {
          "indexed": true,
          "internalType": "address",
          "name": "previousOwner",
          "type": "address"
        },
        {
          "indexed": true,
          "internalType": "address",
          "name": "newOwner",
          "type": "address"
        }
      ],
      "name": "OwnershipTransferred",
      "type": "event"
    },
    {
      "anonymous": false,
      "inputs": [
        {
          "indexed": true,
          "internalType": "address",
          "name": "user",
          "type": "address"
        },
        {
          "indexed": false,
          "internalType": "address",
          "name": "currency",
          "type": "address"
        },
        {
          "indexed": false,
          "internalType": "uint256",
          "name": "financing",
          "type": "uint256"
        },
        {
          "indexed": false,
          "internalType": "uint256",
          "name": "dividends",
          "type": "uint256"
        }
      ],
      "name": "PnLSettled",
      "type": "event"
    },
    {
      "anonymous": false,
      "inputs": [
        {
          "indexed": true,
          "internalType": "bytes32",
          "name": "poolId",
          "type": "bytes32"
        },
        {
          "indexed": false,
          "internalType": "address",
          "name": "security",
          "type": "address"
        },
        {
          "indexed": false,
          "internalType": "uint256",
          "name": "timestamp",
          "type": "uint256"
        }
      ],
      "name": "closures",
      "type": "event"
    },
    {
      "anonymous": false,
      "inputs": [
        {
          "indexed": false,
          "internalType": "bytes32",
          "name": "action",
          "type": "bytes32"
        },
        {
          "indexed": true,
          "internalType": "address",
          "name": "user",
          "type": "address"
        },
        {
          "indexed": false,
          "internalType": "address",
          "name": "currency",
          "type": "address"
        },
        {
          "indexed": false,
          "internalType": "int256",
          "name": "balance",
          "type": "int256"
        }
      ],
      "name": "collateral",
      "type": "event"
    },
    {
      "anonymous": false,
      "inputs": [
        {
          "indexed": true,
          "internalType": "address",
          "name": "platform",
          "type": "address"
        },
        {
          "indexed": false,
          "internalType": "uint256",
          "name": "collection",
          "type": "uint256"
        },
        {
          "indexed": false,
          "internalType": "uint256",
          "name": "timestamp",
          "type": "uint256"
        }
      ],
      "name": "feecollection",
      "type": "event"
    },
    {
      "anonymous": false,
      "inputs": [
        {
          "indexed": false,
          "internalType": "address",
          "name": "party",
          "type": "address"
        },
        {
          "indexed": false,
          "internalType": "address",
          "name": "counterparty",
          "type": "address"
        },
        {
          "indexed": true,
          "internalType": "address",
          "name": "securityTraded",
          "type": "address"
        },
        {
          "indexed": false,
          "internalType": "uint256",
          "name": "securityAmount",
          "type": "uint256"
        },
        {
          "indexed": false,
          "internalType": "address",
          "name": "currencySettled",
          "type": "address"
        },
        {
          "indexed": false,
          "internalType": "uint256",
          "name": "cashAmount",
          "type": "uint256"
        },
        {
          "indexed": false,
          "internalType": "bytes32",
          "name": "orderRef",
          "type": "bytes32"
        },
        {
          "indexed": false,
          "internalType": "uint256",
          "name": "timestamp",
          "type": "uint256"
        }
      ],
      "name": "subscribers",
      "type": "event"
    },
    {
      "anonymous": false,
      "inputs": [
        {
          "indexed": true,
          "internalType": "bytes32",
          "name": "poolid",
          "type": "bytes32"
        },
        {
          "indexed": false,
          "internalType": "address",
          "name": "transferor",
          "type": "address"
        },
        {
          "indexed": false,
          "internalType": "address",
          "name": "transferee",
          "type": "address"
        },
        {
          "indexed": false,
          "internalType": "uint256",
          "name": "unitsToTransfer",
          "type": "uint256"
        },
        {
          "indexed": false,
          "internalType": "address",
          "name": "security",
          "type": "address"
        },
        {
          "indexed": false,
          "internalType": "address",
          "name": "currency",
          "type": "address"
        },
        {
          "indexed": false,
          "internalType": "uint256",
          "name": "amountPaid",
          "type": "uint256"
        },
        {
          "indexed": false,
          "internalType": "bytes32",
          "name": "cref",
          "type": "bytes32"
        },
        {
          "indexed": false,
          "internalType": "bytes32",
          "name": "ref",
          "type": "bytes32"
        },
        {
          "indexed": false,
          "internalType": "uint256",
          "name": "fee",
          "type": "uint256"
        },
        {
          "indexed": false,
          "internalType": "uint256",
          "name": "timestamp",
          "type": "uint256"
        }
      ],
      "name": "tradeSettled",
      "type": "event"
    },
    {
      "inputs": [],
      "name": "owner",
      "outputs": [
        {
          "internalType": "address",
          "name": "",
          "type": "address"
        }
      ],
      "stateMutability": "view",
      "type": "function",
      "constant": true
    },
    {
      "inputs": [],
      "name": "renounceOwnership",
      "outputs": [],
      "stateMutability": "nonpayable",
      "type": "function"
    },
    {
      "inputs": [
        {
          "internalType": "address",
          "name": "newOwner",
          "type": "address"
        }
      ],
      "name": "transferOwnership",
      "outputs": [],
      "stateMutability": "nonpayable",
      "type": "function"
    },
    {
      "inputs": [
        {
          "internalType": "address",
          "name": "poolFactory",
          "type": "address"
        },
        {
          "internalType": "address",
          "name": "vault",
          "type": "address"
        },
        {
          "internalType": "address",
          "name": "securityFactory",
          "type": "address"
        },
        {
          "internalType": "address",
          "name": "distribution",
          "type": "address"
        }
      ],
      "name": "initialize",
      "outputs": [],
      "stateMutability": "nonpayable",
      "type": "function"
    },
    {
      "inputs": [
        {
          "internalType": "address",
          "name": "bridge",
          "type": "address"
        }
      ],
      "name": "setBridge",
      "outputs": [],
      "stateMutability": "nonpayable",
      "type": "function"
    },
    {
      "inputs": [
        {
          "internalType": "address",
          "name": "security",
          "type": "address"
        },
        {
          "internalType": "bytes32",
          "name": "securityType",
          "type": "bytes32"
        },
        {
          "internalType": "address",
          "name": "currency",
          "type": "address"
        },
        {
          "internalType": "bytes32",
          "name": "cficode",
          "type": "bytes32"
        },
        {
          "internalType": "uint256",
          "name": "securityAmount",
          "type": "uint256"
        },
        {
          "internalType": "uint256",
          "name": "minimumOrderSize",
          "type": "uint256"
        },
        {
          "internalType": "uint256",
          "name": "cashAmount",
          "type": "uint256"
        },
        {
          "internalType": "uint256",
          "name": "margin",
          "type": "uint256"
        },
        {
          "internalType": "uint256",
          "name": "collateralAmnt",
          "type": "uint256"
        },
        {
          "internalType": "uint256",
          "name": "tradeFee",
          "type": "uint256"
        }
      ],
      "name": "issueProduct",
      "outputs": [],
      "stateMutability": "nonpayable",
      "type": "function"
    },
    {
      "inputs": [
        {
          "internalType": "address",
          "name": "security",
          "type": "address"
        }
      ],
      "name": "close",
      "outputs": [],
      "stateMutability": "nonpayable",
      "type": "function"
    },
    {
      "inputs": [
        {
          "internalType": "address",
          "name": "cashToken",
          "type": "address"
        },
        {
          "internalType": "uint256",
          "name": "amount",
          "type": "uint256"
        },
        {
          "internalType": "address",
          "name": "security",
          "type": "address"
        }
      ],
      "name": "offerCollateral",
      "outputs": [],
      "stateMutability": "nonpayable",
      "type": "function"
    },
    {
      "inputs": [
        {
          "internalType": "address",
          "name": "cashToken",
          "type": "address"
        },
        {
          "internalType": "uint256",
          "name": "amount",
          "type": "uint256"
        },
        {
          "internalType": "address",
          "name": "security",
          "type": "address"
        }
      ],
      "name": "sendCollateral",
      "outputs": [],
      "stateMutability": "nonpayable",
      "type": "function"
    },
    {
      "inputs": [
        {
          "internalType": "bytes32",
          "name": "poolId",
          "type": "bytes32"
        },
        {
          "internalType": "address",
          "name": "currency",
          "type": "address"
        }
      ],
      "name": "getCollateral",
      "outputs": [
        {
          "internalType": "uint256",
          "name": "",
          "type": "uint256"
        }
      ],
      "stateMutability": "view",
      "type": "function",
      "constant": true
    },
    {
      "inputs": [
        {
          "internalType": "address",
          "name": "party",
          "type": "address"
        },
        {
          "internalType": "address",
          "name": "counterparty",
          "type": "address"
        },
        {
          "internalType": "bytes32",
          "name": "orderRef",
          "type": "bytes32"
        },
        {
          "internalType": "address",
          "name": "security",
          "type": "address"
        },
        {
          "internalType": "uint256",
          "name": "securityTraded",
          "type": "uint256"
        },
        {
          "internalType": "address",
          "name": "currency",
          "type": "address"
        },
        {
          "internalType": "uint256",
          "name": "cashTraded",
          "type": "uint256"
        }
      ],
      "name": "onMatch",
      "outputs": [],
      "stateMutability": "nonpayable",
      "type": "function"
    },
    {
      "inputs": [
        {
          "internalType": "bytes32",
          "name": "ref",
          "type": "bytes32"
        },
        {
          "internalType": "bytes32",
          "name": "cref",
          "type": "bytes32"
        },
        {
          "internalType": "address",
          "name": "security",
          "type": "address"
        },
        {
          "internalType": "uint256",
          "name": "securityTraded",
          "type": "uint256"
        },
        {
          "internalType": "address",
          "name": "currency",
          "type": "address"
        },
        {
          "internalType": "uint256",
          "name": "currencyTraded",
          "type": "uint256"
        },
        {
          "internalType": "uint256",
          "name": "executionTime",
          "type": "uint256"
        }
      ],
      "name": "onTrade",
      "outputs": [],
      "stateMutability": "nonpayable",
      "type": "function"
    },
    {
      "inputs": [
        {
          "internalType": "address",
          "name": "security",
          "type": "address"
        },
        {
          "internalType": "address",
          "name": "currency",
          "type": "address"
        },
        {
          "internalType": "uint256",
          "name": "financing",
          "type": "uint256"
        },
        {
          "internalType": "uint256",
          "name": "dividends",
          "type": "uint256"
        },
        {
          "internalType": "uint256",
          "name": "commissions",
          "type": "uint256"
        }
      ],
      "name": "onSettle",
      "outputs": [],
      "stateMutability": "nonpayable",
      "type": "function"
    },
    {
      "inputs": [
        {
          "internalType": "address",
          "name": "security",
          "type": "address"
        },
        {
          "internalType": "address",
          "name": "currency",
          "type": "address"
        },
        {
          "internalType": "uint256",
          "name": "amount",
          "type": "uint256"
        }
      ],
      "name": "withdraw",
      "outputs": [],
      "stateMutability": "nonpayable",
      "type": "function"
    },
    {
      "inputs": [
        {
          "internalType": "address",
          "name": "_token",
          "type": "address"
        }
      ],
      "name": "getTradingFeeCollected",
      "outputs": [
        {
          "internalType": "uint256",
          "name": "",
          "type": "uint256"
        }
      ],
      "stateMutability": "nonpayable",
      "type": "function"
    }
  ],
  "bytecode": "0x608060405234801561001057600080fd5b50600080546001600160a01b0319163390811782556040519091907f8be0079c531659141344cd1fd0a4f28419497f9722a3daafe3b4186f6b6457e0908290a36144838061005f6000396000f3fe608060405234801561001057600080fd5b50600436106100f55760003560e01c8063715018a611610097578063c74073a111610066578063c74073a1146101da578063d9caed12146101ed578063f2fde38b14610200578063f8c8765e14610213576100f5565b8063715018a6146101975780638da5cb5b1461019f5780638dd14802146101b457806397db1a92146101c7576100f5565b8063541af9d8116100d3578063541af9d81461014b57806359e7e4b11461015e5780636b0fd140146101715780636f943a0914610184576100f5565b80632b06b510146100fa5780632d8600f01461010f5780632d91674614610122575b600080fd5b61010d610108366004613a85565b610226565b005b61010d61011d366004613b3f565b6107e6565b6101356101303660046139f2565b610b3d565b60405161014291906140c5565b60405180910390f35b61010d610159366004613b8f565b610c70565b61010d61016c366004613c0f565b61108e565b61010d61017f366004613d83565b61128a565b610135610192366004613d54565b611ba3565b61010d611bcd565b6101a7611c35565b6040516101429190613fb3565b61010d6101c23660046139f2565b611c44565b61010d6101d5366004613c0f565b611c72565b61010d6101e83660046139f2565b611e57565b61010d6101fb366004613aff565b61237d565b61010d61020e3660046139f2565b612bdc565b61010d610221366004613a2a565b612c5a565b60095433906001600160a01b0316811461025b5760405162461bcd60e51b8152600401610252906141c2565b60405180910390fd5b61026361386d565b6001600160a01b038087166000908152600560209081526040808320888516845282529182902054825163ab63c60760e01b8152925193169263ab63c607926004808201939291829003018186803b1580156102be57600080fd5b505afa1580156102d2573d6000803e3d6000fd5b505050506040513d601f19601f820116820180604052508101906102f69190613a0e565b6001600160a01b0316635778472a886040518263ffffffff1660e01b815260040161032191906140c5565b60a06040518083038186803b15801561033957600080fd5b505afa15801561034d573d6000803e3d6000fd5b505050506040513d601f19601f820116820180604052508101906103719190613dea565b6001600160a01b03808816600090815260056020908152604080832089851684528252808320548151631288bdb960e11b81529151959650929461047b94610416948a949116926325117b729260048083019392829003018186803b1580156103d957600080fd5b505afa1580156103ed573d6000803e3d6000fd5b505050506040513d601f19601f820116820180604052508101906104119190613d3c565b612cc2565b6001600160a01b03808a1660009081526005602090815260408083208b85168452825291829020548251635c1548fb60e01b81529251610476948b94921692635c1548fb9260048082019391829003018186803b1580156103d957600080fd5b612cf8565b9050610489828b8784612d11565b156107da57866001600160a01b03167f4f21132feec602e5e9588b602a7ede709b68eed293452dd8745c2c80cb3c3f118b8b8989898e426040516104d39796959493929190614047565b60405180910390a2846001600160a01b031682600001516001600160a01b03161480156105155750896001600160a01b031682606001516001600160a01b0316145b156105ff576001600160a01b03808b166000908152600a602090815260408083209389168352929052205461054a9082612d79565b6001600160a01b03808c166000908152600a602090815260408083208a85168452825280832094909455600f8152838220928b1682529190915220546105909085612cf8565b6001600160a01b038087166000818152600f602090815260408083208d86168452825280832095909555928e16808252600a84528482209282529190925290829020549151909160008051602061442e833981519152916105f29189916142be565b60405180910390a2610656565b6001600160a01b038088166000908152600f602090815260408083209389168352929052205461062f9085612cf8565b6001600160a01b038089166000908152600f60209081526040808320938a16835292905220555b61065e61389d565b6040518060e00160405280876001600160a01b031685600001516001600160a01b03161480156106a357508b6001600160a01b031685606001516001600160a01b0316145b6106ad578c6106af565b8b5b6001600160a01b03168152602001896001600160a01b031685600001516001600160a01b03161480156106f757508b6001600160a01b031685606001516001600160a01b0316145b610701578c610703565b8b5b6001600160a01b03908116825260208083018b905260408084018a905260608085018f90526080808601899052600060a09687018190528f86168152600e85528381208e8716825285528381208054600181810183558284528784208b516007909302018054928a166001600160a01b03199384161781558b890151918101805492909a16919092161790975588850151600288015592880151600387015590870151600486015594860151600585015560c09095015160069093019290925592548c835260109093529020600019919091019055505b50505050505050505050565b6004805460405163e0a87de160e01b8152339288926000926001600160a01b039091169163e0a87de19161081c91869101613fb3565b60206040518083038186803b15801561083457600080fd5b505afa158015610848573d6000803e3d6000fd5b505050506040513d601f19601f8201168201806040525081019061086c9190613a0e565b9050826001600160a01b0316816001600160a01b03161461089f5760405162461bcd60e51b8152600401610252906141ee565b6001600160a01b038088166000818152600f60208181526040808420958e16845294815284832054918152848320938352929092529182205490915b6001600160a01b03808c166000908152600e60209081526040808320938e1683529290522054811015610b305761091061389d565b6001600160a01b03808d166000908152600e60209081526040808320938f1683529290522080548390811061094157fe5b600091825260208083206040805160e081018252600790940290910180546001600160a01b0390811685526001820154169284019290925260028201549083015260038101546060830181905260048201546080840152600582015460a084015260069091015460c08301529092506109c0908c906104119088612dad565b905060006109d68b610411856060015189612dad565b835160405163a9059cbb60e01b81529192506001600160a01b038f169163a9059cbb91610a0791869060040161408b565b602060405180830381600087803b158015610a2157600080fd5b505af1158015610a35573d6000803e3d6000fd5b505050506040513d601f19601f82011682018060405250810190610a599190613d1c565b50825160405163a9059cbb60e01b81526001600160a01b038f169163a9059cbb91610a899190859060040161408b565b602060405180830381600087803b158015610aa357600080fd5b505af1158015610ab7573d6000803e3d6000fd5b505050506040513d601f19601f82011682018060405250810190610adb9190613d1c565b5082600001516001600160a01b03167fbc4b0e4b25b6d562fee641c1927df99c92f6f7de7a0b8fffa836715f47ef150e8e8484604051610b1d939291906140a4565b60405180910390a25050506001016108db565b5050505050505050505050565b6003546000906001600160a01b03163314610b6a5760405162461bcd60e51b81526004016102529061421b565b6001600160a01b038216600090815260086020526040902054610b8d8180612dfe565b6001600160a01b038085166000818152600860205260409081902093909355600354925163a9059cbb60e01b8152909263a9059cbb92610bd492911690859060040161408b565b602060405180830381600087803b158015610bee57600080fd5b505af1158015610c02573d6000803e3d6000fd5b505050506040513d601f19601f82011682018060405250810190610c269190613d1c565b50306001600160a01b03167feaad90c8664cdf61d60bd7ba6745a881fd1c38d9f4ff0b373b4365cdeeb0f9e88242604051610c629291906143c0565b60405180910390a292915050565b6004805460405163e0a87de160e01b815233928d926000926001600160a01b039091169163e0a87de191610ca691869101613fb3565b60206040518083038186803b158015610cbe57600080fd5b505afa158015610cd2573d6000803e3d6000fd5b505050506040513d601f19601f82011682018060405250810190610cf69190613a0e565b9050826001600160a01b0316816001600160a01b031614610d295760405162461bcd60e51b8152600401610252906141ee565b6040516370a0823160e01b815289906001600160a01b038f16906370a0823190610d57903390600401613fb3565b60206040518083038186803b158015610d6f57600080fd5b505afa158015610d83573d6000803e3d6000fd5b505050506040513d601f19601f82011682018060405250810190610da79190613d3c565b10158015610e3157506040516370a0823160e01b815287906001600160a01b038d16906370a0823190610dde903390600401613fb3565b60206040518083038186803b158015610df657600080fd5b505afa158015610e0a573d6000803e3d6000fd5b505050506040513d601f19601f82011682018060405250810190610e2e9190613d3c565b10155b610e4d5760405162461bcd60e51b815260040161025290614252565b6040516323b872dd60e01b81526001600160a01b038c16906323b872dd90610e7d90339030908c90600401613fc7565b602060405180830381600087803b158015610e9757600080fd5b505af1158015610eab573d6000803e3d6000fd5b505050506040513d601f19601f82011682018060405250810190610ecf9190613d1c565b506040516323b872dd60e01b81526001600160a01b038e16906323b872dd90610f0090339030908e90600401613fc7565b602060405180830381600087803b158015610f1a57600080fd5b505af1158015610f2e573d6000803e3d6000fd5b505050506040513d601f19601f82011682018060405250810190610f529190613d1c565b508c6001600160a01b03166372e0f853600260009054906101000a90046001600160a01b03168b6040518363ffffffff1660e01b8152600401610f9692919061408b565b600060405180830381600087803b158015610fb057600080fd5b505af1158015610fc4573d6000803e3d6000fd5b50505050610fd06138ef565b604051806101400160405280604051806040016040528060138152602001722b32b934b334b2b2102837b7b6102a37b5b2b760691b81525081526020016040518060400160405280600381526020016215941560ea1b81525081526020018f6001600160a01b031681526020018e81526020018d6001600160a01b031681526020018c81526020018a815260200188815260200187815260200186815250905061107e818f8c8f8c33612e14565b5050505050505050505050505050565b6040516323b872dd60e01b81526001600160a01b038416906323b872dd906110be90339030908790600401613fc7565b602060405180830381600087803b1580156110d857600080fd5b505af11580156110ec573d6000803e3d6000fd5b505050506040513d601f19601f820116820180604052508101906111109190613d1c565b50600061111c84612f96565b90506111288382613031565b336000908152600a602090815260408083206001600160a01b038916845290915290205490935061115a90849061303d565b336000818152600a602090815260408083206001600160a01b038a168452825280832094909455918152600d90915220546111e157600c80546001810182557fdf6966c971051c3d54ec59162606531493a51404a002842f56009d7e5cf4a8c70180546001600160a01b0319163390811790915590546000918252600d6020526040909120555b6001600160a01b03808316600090815260066020908152604080832054808452600b835281842094891684529390915290205461121e9085612cf8565b6000828152600b602090815260408083206001600160a01b038a168085529083528184209490945533808452600a8352818420948452939091529081902054905160008051602061442e8339815191529161127b9189919061419b565b60405180910390a25050505050565b60095433906001600160a01b031681146112b65760405162461bcd60e51b8152600401610252906141c2565b84158015906112c457508215155b15611785576001600160a01b038087166000908152600560209081526040808320888516845290915281205490916112fe91168686613071565b6001600160a01b0380891660009081526005602090815260408083208a85168452825280832054815163ab63c60760e01b815291519596509294929093169263ab63c6079260048083019392829003018186803b15801561135e57600080fd5b505afa158015611372573d6000803e3d6000fd5b505050506040513d601f19601f820116820180604052508101906113969190613a0e565b90506000866001600160a01b0316826001600160a01b0316635778472a8d6040518263ffffffff1660e01b81526004016113d091906140c5565b60a06040518083038186803b1580156113e857600080fd5b505afa1580156113fc573d6000803e3d6000fd5b505050506040513d601f19601f820116820180604052508101906114209190613dea565b516001600160a01b0316146114b457604051632bbc239560e11b81526001600160a01b03831690635778472a9061145b908d906004016140c5565b60a06040518083038186803b15801561147357600080fd5b505afa158015611487573d6000803e3d6000fd5b505050506040513d601f19601f820116820180604052508101906114ab9190613dea565b60600151611535565b604051632bbc239560e11b81526001600160a01b03831690635778472a906114e0908e906004016140c5565b60a06040518083038186803b1580156114f857600080fd5b505afa15801561150c573d6000803e3d6000fd5b505050506040513d601f19601f820116820180604052508101906115309190613dea565b606001515b60405163111303ab60e31b81529091506001600160a01b038316906388981d589061156c908e908e908d908c90429060040161410a565b600060405180830381600087803b15801561158657600080fd5b505af115801561159a573d6000803e3d6000fd5b505050506115ad828c8c8b8a8689613150565b60008b8152601060205260409020546115c461389d565b6001600160a01b03808c166000908152600e60209081526040808320938d168352929052208054839081106115f557fe5b90600052602060002090600702016040518060e00160405290816000820160009054906101000a90046001600160a01b03166001600160a01b03166001600160a01b031681526020016001820160009054906101000a90046001600160a01b03166001600160a01b03166001600160a01b03168152602001600282015481526020016003820154815260200160048201548152602001600582015481526020016006820154815250509050868160c0018181525050601060008d8152602001908152602001600020549150600e60008c6001600160a01b03166001600160a01b0316815260200190815260200160002060008a6001600160a01b03166001600160a01b03168152602001908152602001600020828154811061171357fe5b60009182526020918290206040805160e081018252600790930290910180546001600160a01b03908116845260018201541693830193909352600283015490820152600382015460608201526004820154608082015260059091015460a082015260c00187905250611b999350505050565b61178d61389d565b6000898152601060209081526040808320546001600160a01b03808c168552600e8452828520908a1685529092529091208054829081106117ca57fe5b600091825260208083206040805160e081018252600790940290910180546001600160a01b0390811680865260018301548216868601526002830154868501526003830154606087015260048301546080870152600583015460a0870190815260069093015460c08701528652600a8452828620908c168652909252909220549151909350611859919061303d565b82516001600160a01b039081166000908152600a602090815260408083208b851680855290835281842095909555928c168252600e81528282209382529290925290208054829081106118a857fe5b60009182526020808320600790920290910180546001600160a01b0319908116825560018201805490911690556002810183905560038101839055600481018390556005810183905560060182905583516001600160a01b03908116808452600a83526040808520928b1685529190925291829020549151909160008051602061442e8339815191529161193d918a916142e5565b60405180910390a2506000888152601060209081526040808320546001600160a01b03808c168552600e8452828520908a16855290925290912080548290811061198357fe5b600091825260208083206040805160e081018252600790940290910180546001600160a01b0390811680865260018301548216868601526002830154868501526003830154606087015260048301546080870152600583015460a0870190815260069093015460c08701528652600a8452828620908c168652909252909220549151909350611a12919061303d565b82516001600160a01b039081166000908152600a602090815260408083208b851680855290835281842095909555928c168252600e8152828220938252929092529020805482908110611a6157fe5b60009182526020808320600790920290910180546001600160a01b0319908116825560018201805490911690556002810183905560038101839055600481018390556005810183905560060182905583516001600160a01b03908116808452600a83526040808520928b1685529190925291829020549151909160008051602061442e83398151915291611af6918a916142e5565b60405180910390a26001600160a01b038089166000908152600f60209081526040808320938a1683529290522054611b2e9086612dfe565b6001600160a01b03808a166000818152600f60208181526040808420958d1684529481528483209590955584528281209181529252902054611b709086612dfe565b6001600160a01b038088166000908152600f60209081526040808320938d168352929052205550505b5050505050505050565b6000828152600b602090815260408083206001600160a01b03851684529091529020545b92915050565b611beb33611bd9611c35565b6001600160a01b0316146101aa613490565b600080546040516001600160a01b03909116907f8be0079c531659141344cd1fd0a4f28419497f9722a3daafe3b4186f6b6457e0908390a3600080546001600160a01b0319169055565b6000546001600160a01b031690565b611c5033611bd9611c35565b600980546001600160a01b0319166001600160a01b0392909216919091179055565b6004805460405163e0a87de160e01b8152339284926000926001600160a01b039091169163e0a87de191611ca891869101613fb3565b60206040518083038186803b158015611cc057600080fd5b505afa158015611cd4573d6000803e3d6000fd5b505050506040513d601f19601f82011682018060405250810190611cf89190613a0e565b9050826001600160a01b0316816001600160a01b031614611d2b5760405162461bcd60e51b8152600401610252906141ee565b6001600160a01b03808516600090815260066020908152604080832054808452600b8352818420948b16845293909152902054861115611d7d5760405162461bcd60e51b815260040161025290614289565b6000818152600b602090815260408083206001600160a01b038b168452909152902054611daa9087612dfe565b6000828152600b602090815260408083206001600160a01b03808d168086529184528285209590955585845260079092529182902054915163a9059cbb60e01b8152909263a9059cbb92611e05929116908a9060040161408b565b602060405180830381600087803b158015611e1f57600080fd5b505af1158015611e33573d6000803e3d6000fd5b505050506040513d601f19601f82011682018060405250810190611b999190613d1c565b6004805460405163e0a87de160e01b8152339284926000926001600160a01b039091169163e0a87de191611e8d91869101613fb3565b60206040518083038186803b158015611ea557600080fd5b505afa158015611eb9573d6000803e3d6000fd5b505050506040513d601f19601f82011682018060405250810190611edd9190613a0e565b9050826001600160a01b0316816001600160a01b031614611f105760405162461bcd60e51b8152600401610252906141ee565b6000846001600160a01b0316636945c1fd6040518163ffffffff1660e01b815260040160206040518083038186803b158015611f4b57600080fd5b505afa158015611f5f573d6000803e3d6000fd5b505050506040513d601f19601f82011682018060405250810190611f839190613a0e565b6001600160a01b0380871660009081526006602052604090819020546002549151631f29a8cd60e31b815293945092606092919091169063f94d466890611fce9085906004016140c5565b60006040518083038186803b158015611fe657600080fd5b505afa158015611ffa573d6000803e3d6000fd5b505050506040513d6000823e601f3d908101601f191682016040526120229190810190613c50565b505090506060612031826134a2565b90506060825167ffffffffffffffff8111801561204d57600080fd5b50604051908082528060200260200182016040528015612077578160200160208202803683370190505b50905061208261395a565b6040518060800160405280848152602001838152602001600160006040516020016120ae92919061412d565b60408051808303601f1901815291815290825260006020909201919091526002549051638bdb391360e01b81529192506001600160a01b031690638bdb3913906121029088903090819087906004016140ce565b600060405180830381600087803b15801561211c57600080fd5b505af1158015612130573d6000803e3d6000fd5b50505050847f56eadf552f1d54f8f73fbbf801097c1c4d7bb3d77d5ac2bebfd0a8151642d55a8b4260405161216692919061408b565b60405180910390a2600085815260076020526040908190205490516370a0823160e01b81526001600160a01b038089169263a9059cbb9291169083906370a08231906121b6903090600401613fb3565b60206040518083038186803b1580156121ce57600080fd5b505afa1580156121e2573d6000803e3d6000fd5b505050506040513d601f19601f820116820180604052508101906122069190613d3c565b6040518363ffffffff1660e01b815260040161222392919061408b565b602060405180830381600087803b15801561223d57600080fd5b505af1158015612251573d6000803e3d6000fd5b505050506040513d601f19601f820116820180604052508101906122759190613d1c565b50600085815260076020526040908190205490516370a0823160e01b81526001600160a01b03808d169263a9059cbb9291169083906370a08231906122be903090600401613fb3565b60206040518083038186803b1580156122d657600080fd5b505afa1580156122ea573d6000803e3d6000fd5b505050506040513d601f19601f8201168201806040525081019061230e9190613d3c565b6040518363ffffffff1660e01b815260040161232b92919061408b565b602060405180830381600087803b15801561234557600080fd5b505af1158015612359573d6000803e3d6000fd5b505050506040513d601f19601f82011682018060405250810190610b309190613d1c565b336000818152600d60205260409020546123a95760405162461bcd60e51b8152600401610252906141ee565b6001600160a01b038416600090815260066020526040812054905b6001600160a01b038087166000908152600e6020908152604080832093891683529290522054811015612bd4576123f961389d565b6001600160a01b038088166000908152600e60209081526040808320938a1683529290522080548390811061242a57fe5b60009182526020918290206040805160e081018252600790930290910180546001600160a01b039081168085526001830154909116948401949094526002810154918301919091526003810154606083015260048101546080830152600581015460a08301526006015460c08201529150331480156124d0575080516001600160a01b039081166000908152600a60209081526040808320938a16835292905290812054135b156128235780516001600160a01b039081166000908152600a60209081526040808320938a168352929052205485136126b95780516001600160a01b038181166000908152600a60209081526040808320938b16808452939091529081902054905163a9059cbb60e01b8152919263a9059cbb92612551929060040161408b565b602060405180830381600087803b15801561256b57600080fd5b505af115801561257f573d6000803e3d6000fd5b505050506040513d601f19601f820116820180604052508101906125a39190613d1c565b506000838152600b602090815260408083206001600160a01b03808b168086529184528285205486519091168552600a84528285209185529252909120546125eb9190612dfe565b6000848152600b602090815260408083206001600160a01b03808c16808652918452828520959095558551909416808452600a8352818420948452939091529081902054905160008051602061442e8339815191529161264d918a9190614170565b60405180910390a280516001600160a01b039081166000908152600a60209081526040808320938a1683529290522054612688908690612dfe565b81516001600160a01b039081166000908152600a60209081526040808320938b16835292905290812055945061281e565b805160405163a9059cbb60e01b81526001600160a01b0388169163a9059cbb916126e89190899060040161408b565b602060405180830381600087803b15801561270257600080fd5b505af1158015612716573d6000803e3d6000fd5b505050506040513d601f19601f8201168201806040525081019061273a9190613d1c565b506000838152600b602090815260408083206001600160a01b038a1684529091529020546127689086612dfe565b6000848152600b602090815260408083206001600160a01b03808c168552925291829020929092558251905191169060008051602061442e833981519152906127b49089908990614170565b60405180910390a280516001600160a01b039081166000908152600a60209081526040808320938a16835292905220546127ee9086612d79565b81516001600160a01b039081166000908152600a60209081526040808320938b1683529290529081209190915594505b612bcb565b60208101516001600160a01b03163314801561286757506020808201516001600160a01b039081166000908152600a83526040808220928a16825291909252812054135b15612bcb576020808201516001600160a01b039081166000908152600a83526040808220928a168252919092529020548513612a5d576020808201516001600160a01b038181166000908152600a84526040808220928b168083529290945283902054925163a9059cbb60e01b8152909263a9059cbb926128ed9290919060040161408b565b602060405180830381600087803b15801561290757600080fd5b505af115801561291b573d6000803e3d6000fd5b505050506040513d601f19601f8201168201806040525081019061293f9190613d1c565b506000838152600b602090815260408083206001600160a01b03808b1680865291845282852054868501519091168552600a84528285209185529252909120546129899190612dfe565b6000848152600b602090815260408083206001600160a01b03808c168086529184528285209590955585830151909416808452600a8352818420948452939091529081902054905160008051602061442e833981519152916129ed918a9190614170565b60405180910390a26020808201516001600160a01b039081166000908152600a83526040808220928a16825291909252902054612a2b908690612dfe565b6020808301516001600160a01b039081166000908152600a83526040808220928b168252919092528120559450612bcb565b602081015160405163a9059cbb60e01b81526001600160a01b0388169163a9059cbb91612a8f9190899060040161408b565b602060405180830381600087803b158015612aa957600080fd5b505af1158015612abd573d6000803e3d6000fd5b505050506040513d601f19601f82011682018060405250810190612ae19190613d1c565b506000838152600b602090815260408083206001600160a01b038a168452909152902054612b0f9086612dfe565b6000848152600b602090815260408083206001600160a01b03808c1685529083529281902093909355830151915191169060008051602061442e83398151915290612b5d9089908990614170565b60405180910390a26020808201516001600160a01b039081166000908152600a83526040808220928a16825291909252902054612b9a9086612d79565b6020808301516001600160a01b039081166000908152600a83526040808220928b1682529190925281209190915594505b506001016123c4565b505050505050565b612be833611bd9611c35565b612bff6001600160a01b03821615156101ab613490565b600080546040516001600160a01b03808516939216917f8be0079c531659141344cd1fd0a4f28419497f9722a3daafe3b4186f6b6457e091a3600080546001600160a01b0319166001600160a01b0392909216919091179055565b612c6633611bd9611c35565b600180546001600160a01b03199081166001600160a01b03968716179091556002805482169486169490941790935560048054841692851692909217909155600380548316919093161790915560098054339216919091179055565b6000828202612ce6841580612cdf575083858381612cdc57fe5b04145b6003613490565b670de0b6b3a764000090049392505050565b6000828201612d0a8482101583613490565b9392505050565b6000826001600160a01b031685600001516001600160a01b03161415612d6d576001600160a01b038085166000908152600a60209081526040808320938716835292905220548213612d6557506001612d71565b506000612d71565b5060015b949350505050565b6000818303612d0a828412801590612d915750848213155b80612da65750600084128015612da657508482135b6001613490565b6000612dbc8215156004613490565b82612dc957506000611bc7565b670de0b6b3a764000083810290612dec90858381612de357fe5b04146005613490565b828181612df557fe5b04915050611bc7565b6000612e0e838311156001613490565b50900390565b6001546040516304f9d33f60e11b81526001600160a01b03909116906309f3a67e90612e4490899060040161430c565b602060405180830381600087803b158015612e5e57600080fd5b505af1158015612e72573d6000803e3d6000fd5b505050506040513d601f19601f82011682018060405250810190612e969190613a0e565b6001600160a01b0386811660009081526005602090815260408083208885168452825280832080546001600160a01b0319169585169590951794859055805163038fff2d60e41b815290519294909316926338fff2d09260048083019392829003018186803b158015612f0857600080fd5b505afa158015612f1c573d6000803e3d6000fd5b505050506040513d601f19601f82011682018060405250810190612f409190613d3c565b6001600160a01b0387811660009081526006602090815260408083208590558483526007909152902080546001600160a01b0319169185169190911790559050612f8d86858786856134a5565b50505050505050565b600080826001600160a01b031663313ce5676040518163ffffffff1660e01b815260040160206040518083038186803b158015612fd257600080fd5b505afa158015612fe6573d6000803e3d6000fd5b505050506040513d601f19601f8201168201806040525081019061300a9190613e64565b60ff169050600061301c601283612dfe565b600a0a670de0b6b3a764000002949350505050565b6000612d0a8383612cc2565b6000828201612d0a8284128015906130555750848212155b8061306a575060008412801561306a57508482125b6000613490565b600080846001600160a01b031663ced72f876040518163ffffffff1660e01b815260040160206040518083038186803b1580156130ad57600080fd5b505afa1580156130c1573d6000803e3d6000fd5b505050506040513d601f19601f820116820180604052508101906130e59190613d3c565b90506130f18382612cc2565b905060006131078261310287612f96565b612dad565b6001600160a01b03861660009081526008602052604090205490915061312d9082612cf8565b6001600160a01b0386166000908152600860205260409020559150509392505050565b866001600160a01b03166338fff2d06040518163ffffffff1660e01b815260040160206040518083038186803b15801561318957600080fd5b505afa15801561319d573d6000803e3d6000fd5b505050506040513d601f19601f820116820180604052508101906131c19190613d3c565b7fbe8183e0bf67f74150edc1b1b2ff1b35ca15cb451161a42e3c428c208c46f38f836001600160a01b0316896001600160a01b0316635778472a8a6040518263ffffffff1660e01b815260040161321891906140c5565b60a06040518083038186803b15801561323057600080fd5b505afa158015613244573d6000803e3d6000fd5b505050506040513d601f19601f820116820180604052508101906132689190613dea565b606001516001600160a01b0316146132ff57604051632bbc239560e11b81526001600160a01b038a1690635778472a906132a6908b906004016140c5565b60a06040518083038186803b1580156132be57600080fd5b505afa1580156132d2573d6000803e3d6000fd5b505050506040513d601f19601f820116820180604052508101906132f69190613dea565b60600151613380565b604051632bbc239560e11b81526001600160a01b038a1690635778472a9061332b908a906004016140c5565b60a06040518083038186803b15801561334357600080fd5b505afa158015613357573d6000803e3d6000fd5b505050506040513d601f19601f8201168201806040525081019061337b9190613dea565b606001515b84878b6001600160a01b0316632541897f6040518163ffffffff1660e01b815260040160206040518083038186803b1580156133bb57600080fd5b505afa1580156133cf573d6000803e3d6000fd5b505050506040513d601f19601f820116820180604052508101906133f39190613a0e565b8c6001600160a01b0316636945c1fd6040518163ffffffff1660e01b815260040160206040518083038186803b15801561342c57600080fd5b505afa158015613440573d6000803e3d6000fd5b505050506040513d601f19601f820116820180604052508101906134649190613a0e565b898c8e8a4260405161347f9a99989796959493929190613feb565b60405180910390a250505050505050565b8161349e5761349e8161381a565b5050565b90565b600254604051631f29a8cd60e31b81526060916001600160a01b03169063f94d4668906134d69085906004016140c5565b60006040518083038186803b1580156134ee57600080fd5b505afa158015613502573d6000803e3d6000fd5b505050506040513d6000823e601f3d908101601f1916820160405261352a9190810190613c50565b505090506060613539826134a2565b90506060825167ffffffffffffffff8111801561355557600080fd5b5060405190808252806020026020018201604052801561357f578160200160208202803683370190505b5060025460405163095ea7b360e01b81529192506001600160a01b03808a169263095ea7b3926135b5921690899060040161408b565b602060405180830381600087803b1580156135cf57600080fd5b505af11580156135e3573d6000803e3d6000fd5b505050506040513d601f19601f820116820180604052508101906136079190613d1c565b5060025460405163095ea7b360e01b81526001600160a01b038a81169263095ea7b39261363c92909116908a9060040161408b565b602060405180830381600087803b15801561365657600080fd5b505af115801561366a573d6000803e3d6000fd5b505050506040513d601f19601f8201168201806040525081019061368e9190613d1c565b5060005b835181101561375557886001600160a01b03168482815181106136b157fe5b60200260200101516001600160a01b031614156136e657868282815181106136d557fe5b60200260200101818152505061374d565b876001600160a01b03168482815181106136fc57fe5b60200260200101516001600160a01b0316141561372057858282815181106136d557fe5b620f42406dffffffffffffffffffffffffffff0382828151811061374057fe5b6020026020010181815250505b600101613692565b5061375e61395a565b604051806080016040528084815260200183815260200160008460405160200161378992919061414d565b60408051808303601f190181529181529082526000602090920191909152600254905163172b958560e31b81529192506001600160a01b03169063b95cac28906137dd9088903090819087906004016140ce565b600060405180830381600087803b1580156137f757600080fd5b505af115801561380b573d6000803e3d6000fd5b50505050505050505050505050565b62461bcd60e51b6000908152602060045260076024526642414c23000030600a808404818106603090810160081b95839006959095019082900491820690940160101b939093010160c81b604452606490fd5b6040805160a081019091526000808252602082019081526020016000815260006020820181905260409091015290565b6040518060e0016040528060006001600160a01b0316815260200160006001600160a01b0316815260200160008152602001600081526020016000801916815260200160008152602001600081525090565b604051806101400160405280606081526020016060815260200160006001600160a01b031681526020016000801916815260200160006001600160a01b0316815260200160008019168152602001600081526020016000815260200160008152602001600081525090565b60405180608001604052806060815260200160608152602001606081526020016000151581525090565b600082601f830112613994578081fd5b81516139a76139a2826143f5565b6143ce565b8181529150602080830190848101818402860182018710156139c857600080fd5b60005b848110156139e7578151845292820192908201906001016139cb565b505050505092915050565b600060208284031215613a03578081fd5b8135612d0a81614415565b600060208284031215613a1f578081fd5b8151612d0a81614415565b60008060008060808587031215613a3f578283fd5b8435613a4a81614415565b93506020850135613a5a81614415565b92506040850135613a6a81614415565b91506060850135613a7a81614415565b939692955090935050565b600080600080600080600060e0888a031215613a9f578283fd5b8735613aaa81614415565b96506020880135613aba81614415565b9550604088013594506060880135613ad181614415565b93506080880135925060a0880135613ae881614415565b8092505060c0880135905092959891949750929550565b600080600060608486031215613b13578283fd5b8335613b1e81614415565b92506020840135613b2e81614415565b929592945050506040919091013590565b600080600080600060a08688031215613b56578081fd5b8535613b6181614415565b94506020860135613b7181614415565b94979496505050506040830135926060810135926080909101359150565b6000806000806000806000806000806101408b8d031215613bae578384fd5b8a35613bb981614415565b995060208b0135985060408b0135613bd081614415565b999c989b5098996060810135995060808101359860a0820135985060c0820135975060e082013596506101008201359550610120909101359350915050565b600080600060608486031215613c23578081fd5b8335613c2e81614415565b9250602084013591506040840135613c4581614415565b809150509250925092565b600080600060608486031215613c64578081fd5b835167ffffffffffffffff80821115613c7b578283fd5b818601915086601f830112613c8e578283fd5b8151613c9c6139a2826143f5565b80828252602080830192508086018b828387028901011115613cbc578788fd5b8796505b84871015613ce7578051613cd381614415565b845260019690960195928101928101613cc0565b508901519097509350505080821115613cfe578283fd5b50613d0b86828701613984565b925050604084015190509250925092565b600060208284031215613d2d578081fd5b81518015158114612d0a578182fd5b600060208284031215613d4d578081fd5b5051919050565b60008060408385031215613d66578182fd5b823591506020830135613d7881614415565b809150509250929050565b600080600080600080600060e0888a031215613d9d578081fd5b87359650602088013595506040880135613db681614415565b9450606088013593506080880135613dcd81614415565b9699959850939692959460a0840135945060c09093013592915050565b600060a08284031215613dfb578081fd5b613e0560a06143ce565b8251613e1081614415565b8152602083015160038110613e23578283fd5b6020820152604083015160058110613e39578283fd5b60408201526060830151613e4c81614415565b60608201526080928301519281019290925250919050565b600060208284031215613e75578081fd5b815160ff81168114612d0a578182fd5b6001600160a01b03169052565b6000815180845260208085019450808401835b83811015613ec157815187529582019590820190600101613ea5565b509495945050505050565b15159052565b60008151808452815b81811015613ef757602081850181015186830182015201613edb565b81811115613f085782602083870101525b50601f01601f19169290920160200192915050565b8051608080845281519084018190526000916020919082019060a0860190845b81811015613f625783516001600160a01b031683529284019291840191600101613f3d565b505082850151915085810383870152613f7b8183613e92565b9250505060408301518482036040860152613f968282613ed2565b9150506060830151613fab6060860182613ecc565b509392505050565b6001600160a01b0391909116815260200190565b6001600160a01b039384168152919092166020820152604081019190915260600190565b6001600160a01b039a8b168152988a1660208a01526040890197909752948816606088015292909616608086015260a085015260c084019490945260e08301939093526101008201929092526101208101919091526101400190565b6001600160a01b03978816815295871660208701526040860194909452919094166060840152608083019390935260a082019290925260c081019190915260e00190565b6001600160a01b03929092168252602082015260400190565b6001600160a01b039390931683526020830191909152604082015260600190565b90815260200190565b8481526001600160a01b0384811660208301528316604082015260806060820181905260009061410090830184613f1d565b9695505050505050565b948552602085019390935260408401919091526060830152608082015260a00190565b604081016002841061413b57fe5b92815260ff9190911660209091015290565b60006004841061415957fe5b83825260406020830152612d716040830184613e92565b681dda5d1a191c985ddb60ba1b81526001600160a01b03929092166020830152604082015260600190565b6437b33332b960d91b81526001600160a01b03929092166020830152604082015260600190565b6020808252601290820152714f6e6c79204272696467652061636365737360701b604082015260600190565b602080825260139082015272556e617574686f72697a65642061636365737360681b604082015260600190565b6020808252601f908201527f556e617574686f72697a656420636f6c6c656374696f6e207265717565737400604082015260600190565b60208082526019908201527f4e6f2062616c616e636520746f2063726561746520706f6f6c00000000000000604082015260600190565b6020808252818101527f496e73756666696369656e7420636f6c6c61746572616c20666f7220706f6f6c604082015260600190565b640dac2e8c6d60db1b81526001600160a01b03929092166020830152604082015260600190565b64747261646560d81b81526001600160a01b03929092166020830152604082015260600190565b600060208252825161014080602085015261432b610160850183613ed2565b91506020850151601f198584030160408601526143488382613ed2565b925050604085015161435d6060860182613e85565b5060608501516080850152608085015161437a60a0860182613e85565b5060a085015160c085015260c085015160e085015260e0850151610100818187015280870151915050610120818187015280870151838701525050508091505092915050565b918252602082015260400190565b60405181810167ffffffffffffffff811182821017156143ed57600080fd5b604052919050565b600067ffffffffffffffff82111561440b578081fd5b5060209081020190565b6001600160a01b038116811461442a57600080fd5b5056fe896969ba85917808c34ce0c7d01780a3e5b3d50257a2a00e90fa564d0e2bab52a264697066735822122002062bcae4df4cf040adf9aed7ddfea059b51aabb976ff1ba36611a80c7e883d64736f6c63430007010033",
  "immutableReferences": {},
  "source": "// Manager for creating margin trading pools\r\n// (c) Kallol Borah, 2023\r\n// \"SPDX-License-Identifier: BUSL1.1\"\r\n\r\npragma solidity 0.7.1;\r\npragma experimental ABIEncoderV2;\r\n\r\nimport \"./interfaces/IFactory.sol\";\r\nimport \"./interfaces/ISecurity.sol\";\r\nimport \"./interfaces/IMarginOrder.sol\";\r\nimport \"./interfaces/IMarginManager.sol\";\r\nimport \"./interfaces/IMarginTradingPool.sol\";\r\nimport \"./interfaces/IMarginTradingPoolFactory.sol\";\r\n\r\nimport '@balancer-labs/v2-vault/contracts/interfaces/IAsset.sol';\r\nimport '@balancer-labs/v2-vault/contracts/interfaces/IVault.sol';\r\n\r\nimport \"@balancer-labs/v2-solidity-utils/contracts/math/Math.sol\";\r\nimport \"@balancer-labs/v2-solidity-utils/contracts/math/FixedPoint.sol\";\r\nimport \"@balancer-labs/v2-solidity-utils/contracts/openzeppelin/ERC20.sol\";\r\nimport \"@balancer-labs/v2-solidity-utils/contracts/openzeppelin/IERC20.sol\";\r\nimport \"@balancer-labs/v2-solidity-utils/contracts/openzeppelin/Ownable.sol\";\r\n\r\ncontract MarginIssueManager is IMarginManager, Ownable {\r\n\r\n    using Math for *;\r\n\r\n    // balancer variables\r\n    address private _poolFactory;    \r\n\r\n    address private _vault;\r\n\r\n    address private _distribution;\r\n\r\n    IFactory private _securityFactory;\r\n\r\n    uint256 private constant _INITIAL_BPT_SUPPLY = 2**(112) - 1;\r\n    uint256 private constant _DEFAULT_MINIMUM_BPT = 1e6;\r\n\r\n    //mapping security address to currency address to pool address\r\n    mapping(address => mapping(address => address)) private pools;\r\n\r\n    //mapping security token to pool id traded\r\n    mapping(address => bytes32) private poolSecurity;\r\n\r\n    //mapping pool id to issuer\r\n    mapping(bytes32 => address) private issuer;\r\n\r\n    //mapping token address to issuing fee collected\r\n    mapping(address => uint256) private fees;\r\n\r\n    //bridge \r\n    address private _bridge;\r\n\r\n    //positions mapping trader address to collateral address to positive/negative balance (true for +ve, false for -ve) amount\r\n    mapping(address => mapping(address => int256)) private collateralBalance;\r\n\r\n    //mapping pool id to cash token to collateral amount\r\n    mapping(bytes32 => mapping(address => uint256)) private collateralAmount;\r\n\r\n    //traders\r\n    address[] private traders;\r\n    mapping(address => uint256) private traderIndex;    \r\n\r\n    //positions mapping security to currency to array of trade positions\r\n    mapping(address => mapping(address => IMarginManager.tradePosition[])) private positions;\r\n\r\n    //position balances mapping buy (security or currency) to sell (security or currency) \r\n    mapping(address => mapping(address => uint256)) private positionBalance;\r\n    \r\n    //mapping order ref to index of position in positions array\r\n    mapping(bytes32 => uint256) private orders;\r\n\r\n    event tradeSettled( \r\n                        bytes32 indexed poolid,\r\n                        address transferor,\r\n                        address transferee,\r\n                        uint256 unitsToTransfer,\r\n                        address security,\r\n                        address currency,                        \r\n                        uint256 amountPaid,\r\n                        bytes32 cref,\r\n                        bytes32 ref,\r\n                        uint256 fee,\r\n                        uint256 timestamp\r\n                    );\r\n\r\n    event subscribers(address party, address counterparty, address indexed securityTraded, uint256 securityAmount, \r\n                        address currencySettled, uint256 cashAmount, bytes32 orderRef, uint256 timestamp);\r\n\r\n    event closures(bytes32 indexed poolId, address security, uint256 timestamp);\r\n    event feecollection(address indexed platform, uint256 collection, uint256 timestamp);\r\n\r\n    event collateral(bytes32 action, address indexed user, address currency, int256 balance);\r\n    event PnLSettled(address indexed user, address currency, uint256 financing, uint256 dividends);\r\n\r\n    modifier onlyIssueManager(address sender, address security){\r\n        address DP = _securityFactory.getDP(security);\r\n        require(DP==sender, \"Unauthorized access\");\r\n        _;\r\n    }\r\n\r\n    modifier onlyTrader(address sender){\r\n        require(traderIndex[sender]!=0, \"Unauthorized access\");\r\n        _;\r\n    }\r\n\r\n    modifier onlyBridge(address sender){\r\n        require(sender==_bridge, \"Only Bridge access\");\r\n        _;\r\n    } \r\n\r\n    function initialize(address poolFactory, address vault, address securityFactory, address distribution) public onlyOwner {\r\n        _poolFactory = poolFactory;\r\n        _vault = vault;\r\n        _securityFactory = IFactory(securityFactory);\r\n        _distribution = distribution;\r\n        _bridge = msg.sender;\r\n    }\r\n\r\n    function setBridge(address bridge) public onlyOwner {\r\n        _bridge = bridge;\r\n    }\r\n\r\n    function issueProduct(address security, bytes32 securityType, address currency, bytes32 cficode, uint256 securityAmount, uint256 minimumOrderSize, uint256 cashAmount,\r\n                                uint256 margin, uint256 collateralAmnt, uint256 tradeFee) override external onlyIssueManager(msg.sender, security) {\r\n        require(IERC20(security).balanceOf(msg.sender)>=securityAmount && \r\n                IERC20(currency).balanceOf(msg.sender)>=cashAmount, \"No balance to create pool\");\r\n        ERC20(currency).transferFrom(msg.sender, address(this), cashAmount);\r\n        ERC20(security).transferFrom(msg.sender, address(this), securityAmount);  \r\n        ISecurity(security).whiteList(_vault, securityAmount);      \r\n        IMarginTradingPoolFactory.FactoryPoolParams memory poolparams = IMarginTradingPoolFactory.FactoryPoolParams({\r\n            name : \"Verified Pool Token\",\r\n            symbol : \"VPT\",\r\n            security : security,\r\n            securityType: securityType,\r\n            currency : currency,\r\n            cficode: cficode,\r\n            minOrderSize : minimumOrderSize,\r\n            margin : margin,\r\n            collateral: collateralAmnt,\r\n            tradeFeePercentage : tradeFee\r\n        });    \r\n        createPool(poolparams, security, securityAmount, currency, cashAmount, msg.sender);        \r\n    }\r\n\r\n    function createPool(IMarginTradingPoolFactory.FactoryPoolParams memory poolparams, address security, uint256 securityAmount, address currency, uint256 cashAmount, address creator) private {\r\n        pools[security][currency] = IMarginTradingPoolFactory(_poolFactory).create(poolparams);   \r\n        bytes32 poolId = IMarginTradingPool(pools[security][currency]).getPoolId();  \r\n        poolSecurity[security] = poolId; \r\n        issuer[poolId] = creator;\r\n        joinPool(security, currency, securityAmount, cashAmount, poolId);\r\n    }\r\n\r\n    function joinPool(address security, address currency, uint256 securityAmount, uint256 cashAmount, bytes32 poolId) private {\r\n        // join the pool here                \r\n        (IERC20[] memory tokens, , ) = IVault(_vault).getPoolTokens(poolId);\r\n        IAsset[] memory assets = _convertERC20sToAssets(tokens);\r\n        uint256[] memory maxAmountsIn = new uint256[](tokens.length);\r\n        ERC20(currency).approve(_vault, cashAmount);\r\n        ERC20(security).approve(_vault, securityAmount);\r\n        for(uint256 t; t < tokens.length; t++) {\r\n            if(tokens[t]==IERC20(security))\r\n                maxAmountsIn[t] = securityAmount;\r\n            else if(tokens[t]==IERC20(currency))\r\n                maxAmountsIn[t] = cashAmount;\r\n            else \r\n                maxAmountsIn[t] = _INITIAL_BPT_SUPPLY - _DEFAULT_MINIMUM_BPT;\r\n        }\r\n        IVault.JoinPoolRequest memory request = IVault.JoinPoolRequest({\r\n            assets: assets,\r\n            maxAmountsIn: maxAmountsIn,\r\n            userData: abi.encode(JoinKind.INIT, maxAmountsIn),\r\n            fromInternalBalance: false\r\n        });         \r\n        IVault(_vault).joinPool(poolId, address(this), address(this), request);\r\n    }\r\n\r\n    function close(address security) override external onlyIssueManager(msg.sender, security) {\r\n        address currency = IMarginTradingPool(security).getCurrency(); \r\n        // exit the pool here   \r\n        bytes32 poolId = poolSecurity[security];\r\n        (IERC20[] memory tokens, , ) = IVault(_vault).getPoolTokens(poolId);\r\n        IAsset[] memory assets = _convertERC20sToAssets(tokens);\r\n        uint256[] memory amountsOut = new uint256[](tokens.length);\r\n        IVault.ExitPoolRequest memory request = IVault.ExitPoolRequest({\r\n            assets: assets,\r\n            minAmountsOut: amountsOut,\r\n            //userData: abi.encode(ExitKind.EXACT_BPT_IN_FOR_TOKENS_OUT, _INITIAL_BPT_SUPPLY - _DEFAULT_MINIMUM_BPT),\r\n            userData: abi.encode(ExitKind.EXACT_BPT_IN_FOR_TOKENS_OUT, 0),\r\n            toInternalBalance: false\r\n        });         \r\n        IVault(_vault).exitPool(poolId, address(this), payable(address(this)), request);\r\n        emit closures(poolId, security, block.timestamp);\r\n        IERC20(currency).transfer(issuer[poolId], IERC20(currency).balanceOf(address(this)));\r\n        IERC20(security).transfer(issuer[poolId], IERC20(security).balanceOf(address(this)));\r\n    }\r\n    \r\n    function offerCollateral(address cashToken, uint256 amount, address security) override external {\r\n        IERC20(cashToken).transferFrom(msg.sender, address(this), amount);\r\n        uint256 scalingFactor = _computeScalingFactor(IERC20(cashToken));\r\n        amount = _upscale(amount, scalingFactor);\r\n        collateralBalance[msg.sender][cashToken] = Math.add(int(amount), collateralBalance[msg.sender][cashToken]);\r\n        if(traderIndex[msg.sender]==0){\r\n            traders.push(msg.sender);\r\n            traderIndex[msg.sender] = traders.length;\r\n        }\r\n        bytes32 poolId = poolSecurity[security];\r\n        collateralAmount[poolId][cashToken] = Math.add(collateralAmount[poolId][cashToken], amount);\r\n        emit collateral(\"offer\", msg.sender, cashToken, collateralBalance[msg.sender][cashToken]);\r\n    }\r\n\r\n    function sendCollateral(address cashToken, uint256 amount, address security) override external onlyIssueManager(msg.sender, security){\r\n        bytes32 poolId = poolSecurity[security];\r\n        require(collateralAmount[poolId][cashToken] >= amount, \"Insufficient collateral for pool\");\r\n        collateralAmount[poolId][cashToken] = Math.sub(collateralAmount[poolId][cashToken], amount);\r\n        IERC20(cashToken).transfer(issuer[poolId], amount);\r\n    }\r\n\r\n    function getCollateral(bytes32 poolId, address currency) external override view returns(uint256){\r\n        return collateralAmount[poolId][currency];\r\n    }\r\n    \r\n    function onMatch(address party, address counterparty, bytes32 orderRef, address security, uint256 securityTraded, address currency, uint256 cashTraded) external \r\n                            override onlyBridge(msg.sender) {\r\n        IMarginOrder.order memory order = IMarginOrder(IMarginTradingPool(pools[security][currency]).getOrderbook()).getOrder(orderRef);\r\n        uint256 marginCollateral = Math.add(FixedPoint.mulDown(cashTraded, IMarginTradingPool(pools[security][currency]).getMargin()),\r\n                                            FixedPoint.mulDown(cashTraded, IMarginTradingPool(pools[security][currency]).getCollateral()));\r\n        //for security traded in by counterparty, party is trading in cash to buy security, so margin collateral needs to be checked        \r\n        if(pretradeCheck(order, party, currency, marginCollateral)){   \r\n            emit subscribers(party, counterparty, security, securityTraded, currency, cashTraded, orderRef, block.timestamp);\r\n            if(order.tokenIn==currency && order.party==party){\r\n                collateralBalance[party][currency] = Math.sub(collateralBalance[party][currency], int(marginCollateral));\r\n                positionBalance[currency][security] = Math.add(positionBalance[currency][security], cashTraded);\r\n                emit collateral(\"match\", party, currency, collateralBalance[party][currency]);\r\n            }\r\n            else{\r\n                positionBalance[security][currency] = Math.add(positionBalance[security][currency], cashTraded);\r\n            }\r\n            //record trade position\r\n            IMarginManager.tradePosition memory position = IMarginManager.tradePosition({\r\n                buyer : order.tokenIn==currency && order.party==counterparty ? counterparty : party,\r\n                seller : order.tokenIn==security && order.party==counterparty ? counterparty : party,\r\n                securityAmount : securityTraded,\r\n                cashAmount : cashTraded,\r\n                orderReference : orderRef,\r\n                marginCollateral : marginCollateral,\r\n                timestamp : 0\r\n            });\r\n            positions[security][currency].push(position);\r\n            orders[orderRef] = positions[security][currency].length - 1;\r\n        }\r\n    }\r\n    \r\n    function pretradeCheck(IMarginOrder.order memory order, address party, address currency, uint256 marginCollateral) private view returns(bool){\r\n        if(order.tokenIn==currency){\r\n            if(collateralBalance[party][currency] >= int(marginCollateral))\r\n                return true;\r\n            else\r\n                return false;\r\n        }\r\n        return true;\r\n    }\r\n\r\n    function onTrade(bytes32 ref, bytes32 cref, address security, uint256 securityTraded, address currency, uint256 currencyTraded, uint256 executionTime) external override onlyBridge(msg.sender) {\r\n        if(securityTraded!=0 && currencyTraded!=0){ //if trade execution is successful, report trade and update timestamp\r\n            uint256 pay = calculateFee(pools[security][currency], currency, currencyTraded);\r\n            address orderbook = IMarginTradingPool(pools[security][currency]).getOrderbook();\r\n            address party = IMarginOrder(orderbook).getOrder(ref).tokenIn==currency ? \r\n                                        IMarginOrder(orderbook).getOrder(ref).party :\r\n                                        IMarginOrder(orderbook).getOrder(cref).party;\r\n            //collateralBalance[party][currency] = Math.sub(collateralBalance[party][currency], int(pay));\r\n            IMarginOrder(orderbook).reportTrade(ref, cref, securityTraded, currencyTraded, block.timestamp);\r\n            tradeReport(orderbook, ref, cref, securityTraded, currencyTraded, party, pay);\r\n            uint256 pos = orders[ref];\r\n            IMarginManager.tradePosition memory position;\r\n            //if(pos!=0){\r\n                position = positions[security][currency][pos];\r\n                position.timestamp = executionTime;\r\n            //}\r\n            pos = orders[cref];\r\n            //if(pos!=0){\r\n                position = positions[security][currency][pos];\r\n                position.timestamp = executionTime;\r\n            //}\r\n        }\r\n        else{ //if trade execution fails, add back cash \r\n            IMarginManager.tradePosition memory position;\r\n            uint256 pos = orders[ref];\r\n            //if(pos!=0){\r\n                position = positions[security][currency][pos];\r\n                collateralBalance[position.buyer][currency] = Math.add(collateralBalance[position.buyer][currency], int(position.marginCollateral));\r\n                delete positions[security][currency][pos];\r\n            //}\r\n            emit collateral(\"trade\", position.buyer, currency, collateralBalance[position.buyer][currency]);\r\n            pos = orders[cref];\r\n            //if(pos!=0){\r\n                position = positions[security][currency][pos];\r\n                collateralBalance[position.buyer][currency] = Math.add(collateralBalance[position.buyer][currency], int(position.marginCollateral));\r\n                delete positions[security][currency][pos];\r\n            //}\r\n            emit collateral(\"trade\", position.buyer, currency, collateralBalance[position.buyer][currency]);\r\n            positionBalance[security][currency] = Math.sub(positionBalance[security][currency], currencyTraded);\r\n            positionBalance[currency][security] = Math.sub(positionBalance[currency][security], currencyTraded);\r\n        }\r\n    }\r\n\r\n    function tradeReport(address orderbook, bytes32 ref, bytes32 cref, uint256 securityTraded, \r\n                            uint256 currencyTraded, address buyer, uint256 pay) private {\r\n        emit tradeSettled( \r\n            IMarginOrder(orderbook).getPoolId(),\r\n            IMarginOrder(orderbook).getOrder(ref).party==buyer ?\r\n                                IMarginOrder(orderbook).getOrder(cref).party :\r\n                                IMarginOrder(orderbook).getOrder(ref).party,\r\n            buyer,\r\n            securityTraded,\r\n            IMarginOrder(orderbook).getSecurity(),\r\n            IMarginOrder(orderbook).getCurrency(),\r\n            currencyTraded,\r\n            cref,\r\n            ref,\r\n            pay,\r\n            block.timestamp\r\n        );\r\n    }    \r\n\r\n    function calculateFee(address pool, address currency, uint256 currencyTraded) private returns(uint256){\r\n        uint256 fee = IMarginTradingPool(pool).getFee();\r\n        fee = FixedPoint.mulDown(currencyTraded, fee);\r\n        uint256 pay = FixedPoint.divDown(fee, _computeScalingFactor(IERC20(currency)));\r\n        fees[currency] = Math.add(fees[currency], pay);\r\n        return pay;\r\n    }\r\n\r\n    function onSettle(address security, address currency, uint256 financing, uint256 dividends, uint256 commissions) override external onlyIssueManager(msg.sender, security){\r\n        uint256 longPositions = positionBalance[currency][security];\r\n        uint256 shortPositions = positionBalance[security][currency];\r\n        for(uint256 i=0; i<positions[security][currency].length; i++){\r\n            IMarginManager.tradePosition memory position = positions[security][currency][i];\r\n            uint256 proratedFinancing = FixedPoint.mulDown(financing, FixedPoint.divDown(position.cashAmount, longPositions));\r\n            uint256 proratedDividends = FixedPoint.mulDown(dividends, FixedPoint.divDown(position.cashAmount, longPositions));\r\n            IERC20(currency).transfer(position.buyer, proratedFinancing);\r\n            IERC20(currency).transfer(position.buyer, proratedDividends);\r\n            emit PnLSettled(position.buyer, currency, proratedFinancing, proratedDividends);\r\n        }\r\n    }\r\n\r\n    /*function onSettle(address security, address currency, uint256 financingPerSec, bool charge, uint256 dividendPerSec, bool payout, uint256 settlementTime) override external onlyIssueManager(msg.sender, security){\r\n        for(uint256 i=0; i<positions[security][currency].length; i++){\r\n            IMarginManager.tradePosition memory position = positions[security][currency][i];\r\n            if(collateralBalance[position.buyer][currency]!=0){\r\n                if(charge)\r\n                    collateralBalance[position.buyer][currency] = Math.sub(collateralBalance[position.buyer][currency], int(Math.mul(financingPerSec, Math.sub(settlementTime, position.timestamp))));\r\n                else if(!charge)\r\n                    collateralBalance[position.buyer][currency] = Math.add(collateralBalance[position.buyer][currency], int(Math.mul(financingPerSec, Math.sub(settlementTime, position.timestamp))));\r\n                if(payout)\r\n                    collateralBalance[position.buyer][currency] = Math.sub(collateralBalance[position.buyer][currency], int(Math.mul(dividendPerSec, Math.sub(settlementTime, position.timestamp))));\r\n                else if(!payout)\r\n                    collateralBalance[position.buyer][currency] = Math.add(collateralBalance[position.buyer][currency], int(Math.mul(dividendPerSec, Math.sub(settlementTime, position.timestamp))));\r\n                position.timestamp = settlementTime;\r\n            }\r\n            if(collateralBalance[position.seller][currency]!=0){\r\n                if(payout)\r\n                    collateralBalance[position.seller][currency] = Math.add(collateralBalance[position.seller][currency], int(Math.mul(dividendPerSec, Math.sub(settlementTime, position.timestamp))));\r\n                else if(!payout)\r\n                    collateralBalance[position.seller][currency] = Math.sub(collateralBalance[position.seller][currency], int(Math.mul(dividendPerSec, Math.sub(settlementTime, position.timestamp))));\r\n                position.timestamp = settlementTime;\r\n            }\r\n        }\r\n    }*/    \r\n\r\n    function withdraw(address security, address currency, uint256 amount) override external onlyTrader(msg.sender){\r\n        bytes32 poolId = poolSecurity[security];\r\n        for(uint256 i=0; i<positions[security][currency].length; i++){\r\n            IMarginManager.tradePosition memory position = positions[security][currency][i];\r\n            if(position.buyer==msg.sender && collateralBalance[position.buyer][currency]>0){\r\n                if(collateralBalance[position.buyer][currency]>=int(amount)){\r\n                    IERC20(currency).transfer(position.buyer, uint(collateralBalance[position.buyer][currency]));\r\n                    collateralAmount[poolId][currency] = Math.sub(collateralAmount[poolId][currency], uint(collateralBalance[position.buyer][currency]));\r\n                    emit collateral(\"withdrawl\", position.buyer, currency, collateralBalance[position.buyer][currency]);\r\n                    amount = Math.sub(amount, uint(collateralBalance[position.buyer][currency]));\r\n                    collateralBalance[position.buyer][currency] = 0;                    \r\n                }\r\n                else{\r\n                    IERC20(currency).transfer(position.buyer, amount);\r\n                    collateralAmount[poolId][currency] = Math.sub(collateralAmount[poolId][currency], amount);   \r\n                    emit collateral(\"withdrawl\", position.buyer, currency, int(amount));                 \r\n                    collateralBalance[position.buyer][currency] = Math.sub(collateralBalance[position.buyer][currency], int(amount)); \r\n                    amount = 0;\r\n                }                \r\n                //delete positions[security][currency][orders[position.orderReference]];\r\n            }\r\n            else if(position.seller==msg.sender && collateralBalance[position.seller][currency]>0){\r\n                if(collateralBalance[position.seller][currency]>=int(amount)){\r\n                    IERC20(currency).transfer(position.seller, uint(collateralBalance[position.seller][currency]));\r\n                    collateralAmount[poolId][currency] = Math.sub(collateralAmount[poolId][currency], uint(collateralBalance[position.seller][currency]));\r\n                    emit collateral(\"withdrawl\", position.seller, currency, collateralBalance[position.seller][currency]);\r\n                    amount = Math.sub(amount, uint(collateralBalance[position.seller][currency]));\r\n                    collateralBalance[position.seller][currency] = 0;                    \r\n                }\r\n                else{\r\n                    IERC20(currency).transfer(position.seller, amount);\r\n                    collateralAmount[poolId][currency] = Math.sub(collateralAmount[poolId][currency], amount);   \r\n                    emit collateral(\"withdrawl\", position.seller, currency, int(amount));                 \r\n                    collateralBalance[position.seller][currency] = Math.sub(collateralBalance[position.seller][currency], int(amount)); \r\n                    amount = 0;\r\n                }\r\n                //delete positions[security][currency][orders[position.orderReference]];\r\n            }\r\n        }\r\n    }\r\n\r\n    function getTradingFeeCollected(address _token) override external returns(uint256){\r\n        require(msg.sender==_distribution, \"Unauthorized collection request\");\r\n        uint256 feeCollected = fees[_token];\r\n        fees[_token] = Math.sub(fees[_token], feeCollected);\r\n        IERC20(_token).transfer(_distribution, feeCollected);\r\n        emit feecollection(address(this), feeCollected, block.timestamp);\r\n        return feeCollected;\r\n    }  \r\n\r\n    /**\r\n     * @dev This helper function is a fast and cheap way to convert between IERC20[] and IAsset[] types\r\n     */\r\n    function _convertERC20sToAssets(IERC20[] memory tokens) internal pure returns (IAsset[] memory assets) {\r\n        // solhint-disable-next-line no-inline-assembly\r\n        assembly {\r\n            assets := tokens\r\n        }\r\n    }\r\n\r\n    /**\r\n     * @dev Returns a scaling factor that, when multiplied to a token amount for `token`, normalizes its balance as if\r\n     * it had 18 decimals.\r\n     */\r\n    function _computeScalingFactor(IERC20 token) internal view returns (uint256) {\r\n        // Tokens that don't implement the `decimals` method are not supported.\r\n        uint256 tokenDecimals = ERC20(address(token)).decimals();\r\n\r\n        // Tokens with more than 18 decimals are not supported.\r\n        uint256 decimalsDifference = Math.sub(18, tokenDecimals);\r\n        return FixedPoint.ONE * 10**decimalsDifference;\r\n    }\r\n\r\n    function _upscale(uint256 amount, uint256 scalingFactor) internal pure returns (uint256) {        \r\n        return FixedPoint.mulDown(amount, scalingFactor);\r\n    }\r\n\r\n}",
  "sourcePath": "D:\\Code\\verified-balancer\\contracts\\MarginIssueManager.sol",
  "compiler": {
    "name": "solc",
    "version": "0.7.1+commit.f4a555be.Emscripten.clang"
  },
  "schemaVersion": "3.4.3",
  "updatedAt": "2024-07-14T10:10:01.135Z",
  "networkType": "ethereum",
  "devdoc": {
    "kind": "dev",
    "methods": {
      "owner()": {
        "details": "Returns the address of the current owner."
      },
      "renounceOwnership()": {
        "details": "Leaves the contract without owner. It will not be possible to call `onlyOwner` functions anymore. Can only be called by the current owner. NOTE: Renouncing ownership will leave the contract without an owner, thereby removing any functionality that is only available to the owner."
      },
      "transferOwnership(address)": {
        "details": "Transfers ownership of the contract to a new account (`newOwner`). Can only be called by the current owner."
      }
    },
    "version": 1
  },
  "userdoc": {
    "kind": "user",
    "methods": {},
    "version": 1
  }
}