{
  "contractName": "MarginIssueManager",
  "abi": [
    {
      "anonymous": false,
      "inputs": [
        {
          "indexed": true,
          "internalType": "address",
          "name": "previousOwner",
          "type": "address"
        },
        {
          "indexed": true,
          "internalType": "address",
          "name": "newOwner",
          "type": "address"
        }
      ],
      "name": "OwnershipTransferred",
      "type": "event"
    },
    {
      "anonymous": false,
      "inputs": [
        {
          "indexed": true,
          "internalType": "bytes32",
          "name": "poolId",
          "type": "bytes32"
        },
        {
          "indexed": false,
          "internalType": "address",
          "name": "security",
          "type": "address"
        },
        {
          "indexed": false,
          "internalType": "uint256",
          "name": "timestamp",
          "type": "uint256"
        }
      ],
      "name": "closures",
      "type": "event"
    },
    {
      "anonymous": false,
      "inputs": [
        {
          "indexed": true,
          "internalType": "address",
          "name": "platform",
          "type": "address"
        },
        {
          "indexed": false,
          "internalType": "uint256",
          "name": "collection",
          "type": "uint256"
        },
        {
          "indexed": false,
          "internalType": "uint256",
          "name": "timestamp",
          "type": "uint256"
        }
      ],
      "name": "feecollection",
      "type": "event"
    },
    {
      "anonymous": false,
      "inputs": [
        {
          "indexed": false,
          "internalType": "address",
          "name": "serial",
          "type": "address"
        },
        {
          "indexed": false,
          "internalType": "int256",
          "name": "collateral",
          "type": "int256"
        },
        {
          "indexed": false,
          "internalType": "int256",
          "name": "balance",
          "type": "int256"
        },
        {
          "indexed": false,
          "internalType": "address",
          "name": "trader",
          "type": "address"
        }
      ],
      "name": "ptc",
      "type": "event"
    },
    {
      "anonymous": false,
      "inputs": [
        {
          "indexed": false,
          "internalType": "address",
          "name": "party",
          "type": "address"
        },
        {
          "indexed": false,
          "internalType": "address",
          "name": "counterparty",
          "type": "address"
        },
        {
          "indexed": true,
          "internalType": "address",
          "name": "securityTraded",
          "type": "address"
        },
        {
          "indexed": false,
          "internalType": "uint256",
          "name": "securityAmount",
          "type": "uint256"
        },
        {
          "indexed": false,
          "internalType": "address",
          "name": "currencySettled",
          "type": "address"
        },
        {
          "indexed": false,
          "internalType": "uint256",
          "name": "cashAmount",
          "type": "uint256"
        },
        {
          "indexed": false,
          "internalType": "bytes32",
          "name": "orderRef",
          "type": "bytes32"
        },
        {
          "indexed": false,
          "internalType": "uint256",
          "name": "timestamp",
          "type": "uint256"
        }
      ],
      "name": "subscribers",
      "type": "event"
    },
    {
      "anonymous": false,
      "inputs": [
        {
          "indexed": true,
          "internalType": "bytes32",
          "name": "poolid",
          "type": "bytes32"
        },
        {
          "indexed": false,
          "internalType": "address",
          "name": "transferor",
          "type": "address"
        },
        {
          "indexed": false,
          "internalType": "address",
          "name": "transferee",
          "type": "address"
        },
        {
          "indexed": false,
          "internalType": "uint256",
          "name": "unitsToTransfer",
          "type": "uint256"
        },
        {
          "indexed": false,
          "internalType": "address",
          "name": "security",
          "type": "address"
        },
        {
          "indexed": false,
          "internalType": "uint256",
          "name": "price",
          "type": "uint256"
        },
        {
          "indexed": false,
          "internalType": "address",
          "name": "currency",
          "type": "address"
        },
        {
          "indexed": false,
          "internalType": "uint256",
          "name": "amountPaid",
          "type": "uint256"
        },
        {
          "indexed": false,
          "internalType": "bytes32",
          "name": "tradeRef",
          "type": "bytes32"
        },
        {
          "indexed": false,
          "internalType": "uint256",
          "name": "fee",
          "type": "uint256"
        },
        {
          "indexed": false,
          "internalType": "uint256",
          "name": "timestamp",
          "type": "uint256"
        }
      ],
      "name": "tradeSettled",
      "type": "event"
    },
    {
      "inputs": [],
      "name": "owner",
      "outputs": [
        {
          "internalType": "address",
          "name": "",
          "type": "address"
        }
      ],
      "stateMutability": "view",
      "type": "function",
      "constant": true
    },
    {
      "inputs": [],
      "name": "renounceOwnership",
      "outputs": [],
      "stateMutability": "nonpayable",
      "type": "function"
    },
    {
      "inputs": [
        {
          "internalType": "address",
          "name": "newOwner",
          "type": "address"
        }
      ],
      "name": "transferOwnership",
      "outputs": [],
      "stateMutability": "nonpayable",
      "type": "function"
    },
    {
      "inputs": [
        {
          "internalType": "address",
          "name": "poolFactory",
          "type": "address"
        },
        {
          "internalType": "address",
          "name": "vault",
          "type": "address"
        },
        {
          "internalType": "address",
          "name": "securityFactory",
          "type": "address"
        },
        {
          "internalType": "address",
          "name": "distribution",
          "type": "address"
        }
      ],
      "name": "initialize",
      "outputs": [],
      "stateMutability": "nonpayable",
      "type": "function"
    },
    {
      "inputs": [
        {
          "internalType": "address",
          "name": "security",
          "type": "address"
        },
        {
          "internalType": "bytes32",
          "name": "securityType",
          "type": "bytes32"
        },
        {
          "internalType": "address",
          "name": "currency",
          "type": "address"
        },
        {
          "internalType": "bytes32",
          "name": "cficode",
          "type": "bytes32"
        },
        {
          "internalType": "uint256",
          "name": "securityAmount",
          "type": "uint256"
        },
        {
          "internalType": "uint256",
          "name": "minimumOrderSize",
          "type": "uint256"
        },
        {
          "internalType": "uint256",
          "name": "cashAmount",
          "type": "uint256"
        },
        {
          "internalType": "uint256",
          "name": "margin",
          "type": "uint256"
        },
        {
          "internalType": "uint256",
          "name": "collateral",
          "type": "uint256"
        },
        {
          "internalType": "uint256",
          "name": "tradeFee",
          "type": "uint256"
        }
      ],
      "name": "issueProduct",
      "outputs": [],
      "stateMutability": "nonpayable",
      "type": "function"
    },
    {
      "inputs": [
        {
          "internalType": "address",
          "name": "security",
          "type": "address"
        }
      ],
      "name": "close",
      "outputs": [],
      "stateMutability": "nonpayable",
      "type": "function"
    },
    {
      "inputs": [
        {
          "internalType": "address",
          "name": "cashToken",
          "type": "address"
        },
        {
          "internalType": "uint256",
          "name": "amount",
          "type": "uint256"
        },
        {
          "internalType": "address",
          "name": "security",
          "type": "address"
        }
      ],
      "name": "offerCollateral",
      "outputs": [],
      "stateMutability": "nonpayable",
      "type": "function"
    },
    {
      "inputs": [
        {
          "internalType": "address",
          "name": "cashToken",
          "type": "address"
        },
        {
          "internalType": "uint256",
          "name": "amount",
          "type": "uint256"
        },
        {
          "internalType": "address",
          "name": "security",
          "type": "address"
        }
      ],
      "name": "sendCollateral",
      "outputs": [],
      "stateMutability": "nonpayable",
      "type": "function"
    },
    {
      "inputs": [
        {
          "internalType": "address",
          "name": "party",
          "type": "address"
        },
        {
          "internalType": "address",
          "name": "counterparty",
          "type": "address"
        },
        {
          "internalType": "bytes32",
          "name": "orderRef",
          "type": "bytes32"
        },
        {
          "internalType": "address",
          "name": "security",
          "type": "address"
        },
        {
          "internalType": "uint256",
          "name": "securityTraded",
          "type": "uint256"
        },
        {
          "internalType": "address",
          "name": "currency",
          "type": "address"
        },
        {
          "internalType": "uint256",
          "name": "cashTraded",
          "type": "uint256"
        }
      ],
      "name": "onMatch",
      "outputs": [],
      "stateMutability": "nonpayable",
      "type": "function"
    },
    {
      "inputs": [
        {
          "internalType": "bytes32",
          "name": "ref",
          "type": "bytes32"
        },
        {
          "internalType": "bytes32",
          "name": "cref",
          "type": "bytes32"
        },
        {
          "internalType": "address",
          "name": "security",
          "type": "address"
        },
        {
          "internalType": "uint256",
          "name": "securityTraded",
          "type": "uint256"
        },
        {
          "internalType": "address",
          "name": "currency",
          "type": "address"
        },
        {
          "internalType": "uint256",
          "name": "currencyTraded",
          "type": "uint256"
        },
        {
          "internalType": "uint256",
          "name": "executionTime",
          "type": "uint256"
        }
      ],
      "name": "onTrade",
      "outputs": [],
      "stateMutability": "nonpayable",
      "type": "function"
    },
    {
      "inputs": [
        {
          "internalType": "address",
          "name": "security",
          "type": "address"
        },
        {
          "internalType": "address",
          "name": "currency",
          "type": "address"
        },
        {
          "internalType": "uint256",
          "name": "financingPerSec",
          "type": "uint256"
        },
        {
          "internalType": "bool",
          "name": "charge",
          "type": "bool"
        },
        {
          "internalType": "uint256",
          "name": "dividendPerSec",
          "type": "uint256"
        },
        {
          "internalType": "bool",
          "name": "payout",
          "type": "bool"
        },
        {
          "internalType": "uint256",
          "name": "settlementTime",
          "type": "uint256"
        }
      ],
      "name": "onSettle",
      "outputs": [],
      "stateMutability": "nonpayable",
      "type": "function"
    },
    {
      "inputs": [
        {
          "internalType": "address",
          "name": "security",
          "type": "address"
        },
        {
          "internalType": "address",
          "name": "currency",
          "type": "address"
        }
      ],
      "name": "withdraw",
      "outputs": [],
      "stateMutability": "nonpayable",
      "type": "function"
    },
    {
      "inputs": [
        {
          "internalType": "address",
          "name": "_token",
          "type": "address"
        }
      ],
      "name": "getTradingFeeCollected",
      "outputs": [
        {
          "internalType": "uint256",
          "name": "",
          "type": "uint256"
        }
      ],
      "stateMutability": "nonpayable",
      "type": "function"
    }
  ],
  "bytecode": "0x608060405234801561001057600080fd5b50600080546001600160a01b0319163390811782556040519091907f8be0079c531659141344cd1fd0a4f28419497f9722a3daafe3b4186f6b6457e0908290a3613adb8061005f6000396000f3fe608060405234801561001057600080fd5b50600436106100cf5760003560e01c8063715018a61161008c578063c74073a111610066578063c74073a11461018e578063f2fde38b146101a1578063f8c8765e146101b4578063f940e385146101c7576100cf565b8063715018a61461015e5780638da5cb5b1461016657806397db1a921461017b576100cf565b806302f2fb31146100d45780632b06b510146100e95780632d916746146100fc578063541af9d81461012557806359e7e4b1146101385780636b0fd1401461014b575b600080fd5b6100e76100e2366004613292565b6101da565b005b6100e76100f7366004613218565b6105e2565b61010f61010a36600461314d565b610c93565b60405161011c9190613803565b60405180910390f35b6100e76101333660046132f5565b610dcf565b6100e7610146366004613375565b611125565b6100e76101593660046134b6565b6112e2565b6100e7611abd565b61016e611b25565b60405161011c91906136e6565b6100e7610189366004613375565b611b34565b6100e761019c36600461314d565b611c26565b6100e76101af36600461314d565b6120a0565b6100e76101c23660046131bd565b61211e565b6100e76101d5366004613185565b61217a565b338760005b6001600160a01b03808b166000908152600d60209081526040808320938d16835292905220548110156105d657610214612fc8565b6001600160a01b03808c166000908152600d60209081526040808320938e1683529290522080548390811061024557fe5b600091825260208083206040805160e081018252600790940290910180546001600160a01b0390811680865260018301548216868601526002830154868501526003830154606087015260048301546080870152600583015460a087015260069092015460c086015290855260098352818520908f16855290915290912054909150156104a757871561034c5780516001600160a01b039081166000908152600960209081526040808320938e168352929052205460c082015161031f919061031a908c90610315908a906123f5565b612410565b61243b565b81516001600160a01b039081166000908152600960209081526040808320938f16835292905220556103bd565b80516001600160a01b039081166000908152600960209081526040808320938e168352929052205460c0820151610394919061038f908c90610315908a906123f5565b61246f565b81516001600160a01b039081166000908152600960209081526040808320938f16835292905220555b85156104335780516001600160a01b039081166000908152600960209081526040808320938e168352929052205460c0820151610406919061031a908a90610315908a906123f5565b81516001600160a01b039081166000908152600960209081526040808320938f168352929052205561049f565b80516001600160a01b039081166000908152600960209081526040808320938e168352929052205460c0820151610476919061038f908a90610315908a906123f5565b81516001600160a01b039081166000908152600960209081526040808320938f16835292905220555b60c081018590525b6020808201516001600160a01b039081166000908152600983526040808220928e16825291909252902054156105cd578515610553576020808201516001600160a01b039081166000908152600983526040808220928e1682529190925290205460c0820151610523919061038f908a90610315908a906123f5565b6020808301516001600160a01b039081166000908152600983526040808220928f168252919092529020556105c5565b6020808201516001600160a01b039081166000908152600983526040808220928e1682529190925290205460c0820151610599919061031a908a90610315908a906123f5565b6020808301516001600160a01b039081166000908152600983526040808220928f168252919092529020555b60c081018590525b506001016101df565b50505050505050505050565b33846105ec61301a565b6001600160a01b038088166000908152600560209081526040808320898516845282529182902054825163ab63c60760e01b8152925193169263ab63c607926004808201939291829003018186803b15801561064757600080fd5b505afa15801561065b573d6000803e3d6000fd5b505050506040513d601f19601f8201168201806040525081019061067f9190613169565b6001600160a01b0316635778472a896040518263ffffffff1660e01b81526004016106aa9190613803565b60a06040518083038186803b1580156106c257600080fd5b505afa1580156106d6573d6000803e3d6000fd5b505050506040513d601f19601f820116820180604052508101906106fa919061351d565b6001600160a01b0380891660009081526005602090815260408083208a851684528252808320548151631288bdb960e11b8152915195965092946108049461079f948b949116926325117b729260048083019392829003018186803b15801561076257600080fd5b505afa158015610776573d6000803e3d6000fd5b505050506040513d601f19601f8201168201806040525081019061079a919061349e565b6124a3565b6001600160a01b03808b1660009081526005602090815260408083208c85168452825291829020548251635c1548fb60e01b815292516107ff948c94921692635c1548fb9260048082019391829003018186803b15801561076257600080fd5b6124cf565b82516060840180516001600160a01b039081166000908152600960209081526040808320938d16835292905281902054915190519394507f5345edc77b622c0f3a8c26a2a00d501eea3a639312833f694ab86ea057bcf0439361086b9392869290916137bf565b60405180910390a1876001600160a01b031682600001516001600160a01b03161480156108ad5750896001600160a01b031682606001516001600160a01b0316145b156108b7576108f3565b876001600160a01b031682600001516001600160a01b03161480156108f157508a6001600160a01b031682606001516001600160a01b0316145b505b610901828c8c8b8a866124e1565b15610c8657876001600160a01b03167f4f21132feec602e5e9588b602a7ede709b68eed293452dd8745c2c80cb3c3f118c8c8a8a8a8f4260405161094b979695949392919061377b565b60405180910390a2876001600160a01b031682600001516001600160a01b031614801561098d5750896001600160a01b031682606001516001600160a01b0316145b156109ed576001600160a01b03808c166000908152600960209081526040808320938a16835292905220546109c2908261243b565b6001600160a01b03808d166000908152600960209081526040808320938b1683529290522055610a44565b6001600160a01b03808b166000908152600960209081526040808320938a1683529290522054610a1d908261243b565b6001600160a01b03808c166000908152600960209081526040808320938b16835292905220555b610a4c612fc8565b6040518060e00160405280886001600160a01b031685600001516001600160a01b0316148015610a9157508c6001600160a01b031685606001516001600160a01b0316145b610a9b578d610a9d565b8c5b6001600160a01b031681526020018a6001600160a01b031685600001516001600160a01b0316148015610ae557508c6001600160a01b031685606001516001600160a01b0316145b610aef578d610af1565b8c5b6001600160a01b031681526020018981526020018781526020018b815260200183815260200160008152509050600d60008a6001600160a01b03166001600160a01b031681526020019081526020016000206000886001600160a01b03166001600160a01b0316815260200190815260200160002081908060018154018082558091505060019003906000526020600020906007020160009091909190915060008201518160000160006101000a8154816001600160a01b0302191690836001600160a01b0316021790555060208201518160010160006101000a8154816001600160a01b0302191690836001600160a01b0316021790555060408201518160020155606082015181600301556080820151816004015560a0820151816005015560c0820151816006015550506001600d60008b6001600160a01b03166001600160a01b031681526020019081526020016000206000896001600160a01b03166001600160a01b031681526020019081526020016000208054905003600e60008c815260200190815260200160002081905550505b5050505050505050505050565b6003546000906001600160a01b03163314610cc95760405162461bcd60e51b8152600401610cc0906138d3565b60405180910390fd5b6001600160a01b038216600090815260086020526040902054610cec81806123f5565b6001600160a01b038085166000818152600860205260409081902093909355600354925163a9059cbb60e01b8152909263a9059cbb92610d339291169085906004016137ea565b602060405180830381600087803b158015610d4d57600080fd5b505af1158015610d61573d6000803e3d6000fd5b505050506040513d601f19601f82011682018060405250810190610d859190613482565b50306001600160a01b03167feaad90c8664cdf61d60bd7ba6745a881fd1c38d9f4ff0b373b4365cdeeb0f9e88242604051610dc1929190613a2a565b60405180910390a292915050565b338a878c6001600160a01b03166370a08231336040518263ffffffff1660e01b8152600401610dfe91906136e6565b60206040518083038186803b158015610e1657600080fd5b505afa158015610e2a573d6000803e3d6000fd5b505050506040513d601f19601f82011682018060405250810190610e4e919061349e565b10158015610ed857506040516370a0823160e01b815286906001600160a01b038c16906370a0823190610e859033906004016136e6565b60206040518083038186803b158015610e9d57600080fd5b505afa158015610eb1573d6000803e3d6000fd5b505050506040513d601f19601f82011682018060405250810190610ed5919061349e565b10155b610ef45760405162461bcd60e51b8152600401610cc09061390a565b6040516323b872dd60e01b81526001600160a01b038b16906323b872dd90610f2490339030908b906004016136fa565b602060405180830381600087803b158015610f3e57600080fd5b505af1158015610f52573d6000803e3d6000fd5b505050506040513d601f19601f82011682018060405250810190610f769190613482565b506040516323b872dd60e01b81526001600160a01b038d16906323b872dd90610fa790339030908d906004016136fa565b602060405180830381600087803b158015610fc157600080fd5b505af1158015610fd5573d6000803e3d6000fd5b505050506040513d601f19601f82011682018060405250810190610ff99190613482565b506002546040516372e0f85360e01b81526001600160a01b038e8116926372e0f8539261102e92909116908c906004016137ea565b600060405180830381600087803b15801561104857600080fd5b505af115801561105c573d6000803e3d6000fd5b5050505061106861304a565b604051806101400160405280604051806040016040528060138152602001722b32b934b334b2b2102837b7b6102a37b5b2b760691b81525081526020016040518060400160405280600381526020016215941560ea1b81525081526020018e6001600160a01b031681526020018d81526020018c6001600160a01b031681526020018b8152602001898152602001878152602001868152602001858152509050611116818e8b8e8b33612570565b50505050505050505050505050565b6040516323b872dd60e01b81526001600160a01b038416906323b872dd90611155903390309087906004016136fa565b602060405180830381600087803b15801561116f57600080fd5b505af1158015611183573d6000803e3d6000fd5b505050506040513d601f19601f820116820180604052508101906111a79190613482565b5060006111b3846126e9565b90506111bf8382612784565b3360009081526009602090815260408083206001600160a01b03891684529091529020549093506111f190849061246f565b3360008181526009602090815260408083206001600160a01b038a168452825280832094909455918152600c909152205461127857600b80546001810182557f0175b7a638427703f0dbe7bb9bbf987a2551717b34e79f33b5b1008d1fa01db90180546001600160a01b0319163390811790915590546000918252600c6020526040909120555b6001600160a01b03808316600090815260066020908152604080832054808452600a83528184209489168452939091529020546112b590856124cf565b6000918252600a602090815260408084206001600160a01b03909816845296905294902093909355505050565b338585158015906112f257508315155b156117b3576001600160a01b0380881660009081526005602090815260408083208985168452909152812054909161132c91168787612790565b6001600160a01b03808a1660009081526005602090815260408083208b85168452825280832054815163ab63c60760e01b815291519596509294929093169263ab63c6079260048083019392829003018186803b15801561138c57600080fd5b505afa1580156113a0573d6000803e3d6000fd5b505050506040513d601f19601f820116820180604052508101906113c49190613169565b90506000876001600160a01b0316826001600160a01b0316635778472a8e6040518263ffffffff1660e01b81526004016113fe9190613803565b60a06040518083038186803b15801561141657600080fd5b505afa15801561142a573d6000803e3d6000fd5b505050506040513d601f19601f8201168201806040525081019061144e919061351d565b516001600160a01b0316146114e257604051632bbc239560e11b81526001600160a01b03831690635778472a90611489908e90600401613803565b60a06040518083038186803b1580156114a157600080fd5b505afa1580156114b5573d6000803e3d6000fd5b505050506040513d601f19601f820116820180604052508101906114d9919061351d565b60600151611563565b604051632bbc239560e11b81526001600160a01b03831690635778472a9061150e908f90600401613803565b60a06040518083038186803b15801561152657600080fd5b505afa15801561153a573d6000803e3d6000fd5b505050506040513d601f19601f8201168201806040525081019061155e919061351d565b606001515b6001600160a01b038082166000908152600960209081526040808320938d1683529290522054909150611596908461243b565b6001600160a01b0380831660009081526009602090815260408083208d851684529091529081902092909255905163c49f3fe360e01b81529083169063c49f3fe3906115ec908f908f908e908d90600401613848565b600060405180830381600087803b15801561160657600080fd5b505af115801561161a573d6000803e3d6000fd5b50505050600061162a888b61286f565b905061163c838e8e8d8c87878b6128c0565b5060008c8152600e6020526040902054611654612fc8565b81156116f6576001600160a01b03808d166000908152600d60209081526040808320938e1683529290522080548390811061168b57fe5b60009182526020918290206040805160e081018252600790930290910180546001600160a01b03908116845260018201541693830193909352600283015490820152600382015460608201526004820154608082015260059091015460a082015260c0810189905290505b60008d8152600e6020526040902054915081156117a9576001600160a01b03808d166000908152600d60209081526040808320938e1683529290522080548390811061173e57fe5b60009182526020918290206040805160e081018252600790930290910180546001600160a01b03908116845260018201541693830193909352600283015490820152600382015460608201526004820154608082015260059091015460a082015260c0810189905290505b5050505050611ab2565b6117bb612fc8565b60008a8152600e6020526040902054801561192a576001600160a01b03808a166000908152600d60209081526040808320938b1683529290522080548290811061180157fe5b600091825260208083206040805160e081018252600790940290910180546001600160a01b0390811680865260018301548216868601526002830154868501526003830154606087015260048301546080870152600583015460a0870190815260069093015460c0870152865260098452828620908d168652909252909220549151909350611890919061246f565b82516001600160a01b0390811660009081526009602090815260408083208c851680855290835281842095909555928d168252600d81528282209382529290925290208054829081106118df57fe5b60009182526020822060079091020180546001600160a01b03199081168255600182018054909116905560028101829055600381018290556004810182905560058101829055600601555b506000898152600e602052604090205480156119df576001600160a01b03808a166000908152600d60209081526040808320938b1683529290522080548290811061197157fe5b60009182526020918290206040805160e081018252600790930290910180546001600160a01b039081168452600182015416938301939093526002830154908201526003820154606082015260048201546080820152600582015460a082015260069091015460c082015291505b81516001600160a01b039081166000908152600960209081526040808320938b168352929052205460a0830151611a16919061246f565b82516001600160a01b0390811660009081526009602090815260408083208c851680855290835281842095909555928d168252600d8152828220938252929092529020805482908110611a6557fe5b60009182526020822060079091020180546001600160a01b031990811682556001820180549091169055600281018290556003810182905560048101829055600581018290556006015550505b505050505050505050565b611adb33611ac9611b25565b6001600160a01b0316146101aa612c01565b600080546040516001600160a01b03909116907f8be0079c531659141344cd1fd0a4f28419497f9722a3daafe3b4186f6b6457e0908390a3600080546001600160a01b0319169055565b6000546001600160a01b031690565b6001600160a01b03808216600090815260066020908152604080832054808452600a835281842094881684529390915290205433918391851115611b8a5760405162461bcd60e51b8152600401610cc090613941565b6000818152600760205260409081902054905163a9059cbb60e01b81526001600160a01b038881169263a9059cbb92611bcb929091169089906004016137ea565b602060405180830381600087803b158015611be557600080fd5b505af1158015611bf9573d6000803e3d6000fd5b505050506040513d601f19601f82011682018060405250810190611c1d9190613482565b50505050505050565b33816000836001600160a01b0316636945c1fd6040518163ffffffff1660e01b815260040160206040518083038186803b158015611c6357600080fd5b505afa158015611c77573d6000803e3d6000fd5b505050506040513d601f19601f82011682018060405250810190611c9b9190613169565b6001600160a01b0380861660009081526006602052604090819020546002549151631f29a8cd60e31b815293945092606092919091169063f94d466890611ce6908590600401613803565b60006040518083038186803b158015611cfe57600080fd5b505afa158015611d12573d6000803e3d6000fd5b505050506040513d6000823e601f3d908101601f19168201604052611d3a91908101906133b6565b505090506060611d4982612c13565b90506060825167ffffffffffffffff81118015611d6557600080fd5b50604051908082528060200260200182016040528015611d8f578160200160208202803683370190505b509050611d9a6130b5565b60405180608001604052808481526020018381526020016001620f42406001600160701b0303604051602001611dd1929190613863565b60408051808303601f1901815291815290825260006020909201919091526002549051638bdb391360e01b81529192506001600160a01b031690638bdb391390611e2590889030908190879060040161380c565b600060405180830381600087803b158015611e3f57600080fd5b505af1158015611e53573d6000803e3d6000fd5b50505050847f56eadf552f1d54f8f73fbbf801097c1c4d7bb3d77d5ac2bebfd0a8151642d55a8a42604051611e899291906137ea565b60405180910390a2600085815260076020526040908190205490516370a0823160e01b81526001600160a01b038089169263a9059cbb9291169083906370a0823190611ed99030906004016136e6565b60206040518083038186803b158015611ef157600080fd5b505afa158015611f05573d6000803e3d6000fd5b505050506040513d601f19601f82011682018060405250810190611f29919061349e565b6040518363ffffffff1660e01b8152600401611f469291906137ea565b602060405180830381600087803b158015611f6057600080fd5b505af1158015611f74573d6000803e3d6000fd5b505050506040513d601f19601f82011682018060405250810190611f989190613482565b50600085815260076020526040908190205490516370a0823160e01b81526001600160a01b03808c169263a9059cbb9291169083906370a0823190611fe19030906004016136e6565b60206040518083038186803b158015611ff957600080fd5b505afa15801561200d573d6000803e3d6000fd5b505050506040513d601f19601f82011682018060405250810190612031919061349e565b6040518363ffffffff1660e01b815260040161204e9291906137ea565b602060405180830381600087803b15801561206857600080fd5b505af115801561207c573d6000803e3d6000fd5b505050506040513d601f19601f820116820180604052508101906105d69190613482565b6120ac33611ac9611b25565b6120c36001600160a01b03821615156101ab612c01565b600080546040516001600160a01b03808516939216917f8be0079c531659141344cd1fd0a4f28419497f9722a3daafe3b4186f6b6457e091a3600080546001600160a01b0319166001600160a01b0392909216919091179055565b61212a33611ac9611b25565b600180546001600160a01b039586166001600160a01b0319918216179091556002805494861694821694909417909355600480549285169284169290921790915560038054919093169116179055565b336000818152600c60205260409020546121a65760405162461bcd60e51b8152600401610cc0906138a6565b60005b6001600160a01b038085166000908152600d60209081526040808320938716835292905220548110156123ef576121de612fc8565b6001600160a01b038086166000908152600d6020908152604080832093881683529290522080548390811061220f57fe5b60009182526020918290206040805160e081018252600790930290910180546001600160a01b039081168085526001830154909116948401949094526002810154918301919091526003810154606083015260048101546080830152600581015460a08301526006015460c0820152915033141561232d5780516001600160a01b038181166000908152600960209081526040808320938916808452939091529081902054905163a9059cbb60e01b8152919263a9059cbb926122d592906004016137ea565b602060405180830381600087803b1580156122ef57600080fd5b505af1158015612303573d6000803e3d6000fd5b505050506040513d601f19601f820116820180604052508101906123279190613482565b506123e6565b60208101516001600160a01b03163314156123e6576020808201516001600160a01b0381811660009081526009845260408082209289168083529290945283902054925163a9059cbb60e01b8152909263a9059cbb92612392929091906004016137ea565b602060405180830381600087803b1580156123ac57600080fd5b505af11580156123c0573d6000803e3d6000fd5b505050506040513d601f19601f820116820180604052508101906123e49190613482565b505b506001016121a9565b50505050565b6000612405838311156001612c01565b508082035b92915050565b600082820261243484158061242d57508385838161242a57fe5b04145b6003612c01565b9392505050565b60008183036124348284128015906124535750848213155b80612468575060008412801561246857508482135b6001612c01565b60008282016124348284128015906124875750848212155b8061249c575060008412801561249c57508482125b6000612c01565b60008282026124bd84158061242d57508385838161242a57fe5b670de0b6b3a764000090049392505050565b60008282016124348482101583612c01565b6000836001600160a01b031687600001516001600160a01b031614801561251d5750846001600160a01b031687606001516001600160a01b0316145b1561252757612563565b836001600160a01b031687600001516001600160a01b03161480156125615750856001600160a01b031687606001516001600160a01b0316145b505b5060019695505050505050565b6001546040516304f9d33f60e11b81526001600160a01b03909116906309f3a67e906125a0908990600401613976565b602060405180830381600087803b1580156125ba57600080fd5b505af11580156125ce573d6000803e3d6000fd5b505050506040513d601f19601f820116820180604052508101906125f29190613169565b6001600160a01b0386811660009081526005602090815260408083208885168452825280832080546001600160a01b0319169585169590951794859055805163038fff2d60e41b815290519294909316926338fff2d09260048083019392829003018186803b15801561266457600080fd5b505afa158015612678573d6000803e3d6000fd5b505050506040513d601f19601f8201168201806040525081019061269c919061349e565b6001600160a01b0387811660009081526006602090815260408083208590558483526007909152902080546001600160a01b0319169185169190911790559050611c1d8685878685612c16565b600080826001600160a01b031663313ce5676040518163ffffffff1660e01b815260040160206040518083038186803b15801561272557600080fd5b505afa158015612739573d6000803e3d6000fd5b505050506040513d601f19601f8201168201806040525081019061275d9190613597565b60ff169050600061276f6012836123f5565b600a0a670de0b6b3a764000002949350505050565b600061243483836124a3565b600080846001600160a01b031663ced72f876040518163ffffffff1660e01b815260040160206040518083038186803b1580156127cc57600080fd5b505afa1580156127e0573d6000803e3d6000fd5b505050506040513d601f19601f82011682018060405250810190612804919061349e565b905061281083826124a3565b9050600061282682612821876126e9565b61286f565b6001600160a01b03861660009081526008602052604090205490915061284c90826124cf565b6001600160a01b0386166000908152600860205260409020559150509392505050565b600061287e8215156004612c01565b8261288b5750600061240a565b670de0b6b3a7640000838102906128ae908583816128a557fe5b04146005612c01565b8281816128b757fe5b0491505061240a565b876001600160a01b03166338fff2d06040518163ffffffff1660e01b815260040160206040518083038186803b1580156128f957600080fd5b505afa15801561290d573d6000803e3d6000fd5b505050506040513d601f19601f82011682018060405250810190612931919061349e565b7fcc00b486fe6d4cfe05556cf9ca0fe586fe7a9dc10051cb7c2e8221d1f0a5fa2f846001600160a01b03168a6001600160a01b0316635778472a8b6040518263ffffffff1660e01b81526004016129889190613803565b60a06040518083038186803b1580156129a057600080fd5b505afa1580156129b4573d6000803e3d6000fd5b505050506040513d601f19601f820116820180604052508101906129d8919061351d565b606001516001600160a01b031614612a6f57604051632bbc239560e11b81526001600160a01b038b1690635778472a90612a16908c90600401613803565b60a06040518083038186803b158015612a2e57600080fd5b505afa158015612a42573d6000803e3d6000fd5b505050506040513d601f19601f82011682018060405250810190612a66919061351d565b60600151612af0565b604051632bbc239560e11b81526001600160a01b038b1690635778472a90612a9b908b90600401613803565b60a06040518083038186803b158015612ab357600080fd5b505afa158015612ac7573d6000803e3d6000fd5b505050506040513d601f19601f82011682018060405250810190612aeb919061351d565b606001515b85888c6001600160a01b0316632541897f6040518163ffffffff1660e01b815260040160206040518083038186803b158015612b2b57600080fd5b505afa158015612b3f573d6000803e3d6000fd5b505050506040513d601f19601f82011682018060405250810190612b639190613169565b878e6001600160a01b0316636945c1fd6040518163ffffffff1660e01b815260040160206040518083038186803b158015612b9d57600080fd5b505afa158015612bb1573d6000803e3d6000fd5b505050506040513d601f19601f82011682018060405250810190612bd59190613169565b8b8f8a42604051612bef9a9998979695949392919061371e565b60405180910390a25050505050505050565b81612c0f57612c0f81612f75565b5050565b90565b600254604051631f29a8cd60e31b81526060916001600160a01b03169063f94d466890612c47908590600401613803565b60006040518083038186803b158015612c5f57600080fd5b505afa158015612c73573d6000803e3d6000fd5b505050506040513d6000823e601f3d908101601f19168201604052612c9b91908101906133b6565b505090506060612caa82612c13565b90506060825167ffffffffffffffff81118015612cc657600080fd5b50604051908082528060200260200182016040528015612cf0578160200160208202803683370190505b5060025460405163095ea7b360e01b81529192506001600160a01b03808a169263095ea7b392612d2692169089906004016137ea565b602060405180830381600087803b158015612d4057600080fd5b505af1158015612d54573d6000803e3d6000fd5b505050506040513d601f19601f82011682018060405250810190612d789190613482565b5060025460405163095ea7b360e01b81526001600160a01b038a81169263095ea7b392612dad92909116908a906004016137ea565b602060405180830381600087803b158015612dc757600080fd5b505af1158015612ddb573d6000803e3d6000fd5b505050506040513d601f19601f82011682018060405250810190612dff9190613482565b5060005b8351811015612ebf57886001600160a01b0316848281518110612e2257fe5b60200260200101516001600160a01b03161415612e575786828281518110612e4657fe5b602002602001018181525050612eb7565b876001600160a01b0316848281518110612e6d57fe5b60200260200101516001600160a01b03161415612e915785828281518110612e4657fe5b620f42406001600160701b0303828281518110612eaa57fe5b6020026020010181815250505b600101612e03565b50612ec86130b5565b6040518060800160405280848152602001838152602001600084604051602001612ef392919061387b565b60408051808303601f190181529181529082526000602090920191909152600254905163172b958560e31b81529192506001600160a01b03169063b95cac2890612f4790889030908190879060040161380c565b600060405180830381600087803b158015612f6157600080fd5b505af1158015611116573d6000803e3d6000fd5b62461bcd60e51b6000908152602060045260076024526642414c23000030600a808404818106603090810160081b95839006959095019082900491820690940160101b939093010160c81b604452606490fd5b6040518060e0016040528060006001600160a01b0316815260200160006001600160a01b0316815260200160008152602001600081526020016000801916815260200160008152602001600081525090565b6040805160a081019091526000808252602082019081526020016000815260006020820181905260409091015290565b604051806101400160405280606081526020016060815260200160006001600160a01b031681526020016000801916815260200160006001600160a01b0316815260200160008019168152602001600081526020016000815260200160008152602001600081525090565b60405180608001604052806060815260200160608152602001606081526020016000151581525090565b600082601f8301126130ef578081fd5b81516131026130fd82613a5f565b613a38565b81815291506020808301908481018184028601820187101561312357600080fd5b60005b8481101561314257815184529282019290820190600101613126565b505050505092915050565b60006020828403121561315e578081fd5b813561243481613a7f565b60006020828403121561317a578081fd5b815161243481613a7f565b60008060408385031215613197578081fd5b82356131a281613a7f565b915060208301356131b281613a7f565b809150509250929050565b600080600080608085870312156131d2578182fd5b84356131dd81613a7f565b935060208501356131ed81613a7f565b925060408501356131fd81613a7f565b9150606085013561320d81613a7f565b939692955090935050565b600080600080600080600060e0888a031215613232578283fd5b873561323d81613a7f565b9650602088013561324d81613a7f565b955060408801359450606088013561326481613a7f565b93506080880135925060a088013561327b81613a7f565b8092505060c0880135905092959891949750929550565b600080600080600080600060e0888a0312156132ac578283fd5b87356132b781613a7f565b965060208801356132c781613a7f565b95506040880135945060608801356132de81613a97565b93506080880135925060a088013561327b81613a97565b6000806000806000806000806000806101408b8d031215613314578384fd5b8a3561331f81613a7f565b995060208b0135985060408b013561333681613a7f565b999c989b5098996060810135995060808101359860a0820135985060c0820135975060e082013596506101008201359550610120909101359350915050565b600080600060608486031215613389578081fd5b833561339481613a7f565b92506020840135915060408401356133ab81613a7f565b809150509250925092565b6000806000606084860312156133ca578081fd5b835167ffffffffffffffff808211156133e1578283fd5b818601915086601f8301126133f4578283fd5b81516134026130fd82613a5f565b80828252602080830192508086018b828387028901011115613422578788fd5b8796505b8487101561344d57805161343981613a7f565b845260019690960195928101928101613426565b508901519097509350505080821115613464578283fd5b50613471868287016130df565b925050604084015190509250925092565b600060208284031215613493578081fd5b815161243481613a97565b6000602082840312156134af578081fd5b5051919050565b600080600080600080600060e0888a0312156134d0578081fd5b873596506020880135955060408801356134e981613a7f565b945060608801359350608088013561350081613a7f565b9699959850939692959460a0840135945060c09093013592915050565b600060a0828403121561352e578081fd5b61353860a0613a38565b825161354381613a7f565b8152602083015160038110613556578283fd5b602082015260408301516005811061356c578283fd5b6040820152606083015161357f81613a7f565b60608201526080928301519281019290925250919050565b6000602082840312156135a8578081fd5b815160ff81168114612434578182fd5b6001600160a01b03169052565b6000815180845260208085019450808401835b838110156135f4578151875295820195908201906001016135d8565b509495945050505050565b15159052565b60008151808452815b8181101561362a5760208185018101518683018201520161360e565b8181111561363b5782602083870101525b50601f01601f19169290920160200192915050565b8051608080845281519084018190526000916020919082019060a0860190845b818110156136955783516001600160a01b031683529284019291840191600101613670565b5050828501519150858103838701526136ae81836135c5565b92505050604083015184820360408601526136c98282613605565b91505060608301516136de60608601826135ff565b509392505050565b6001600160a01b0391909116815260200190565b6001600160a01b039384168152919092166020820152604081019190915260600190565b6001600160a01b039a8b168152988a1660208a0152604089019790975294881660608801526080870193909352951660a085015260c084019490945260e08301939093526101008201929092526101208101919091526101400190565b6001600160a01b03978816815295871660208701526040860194909452919094166060840152608083019390935260a082019290925260c081019190915260e00190565b6001600160a01b03948516815260208101939093526040830191909152909116606082015260800190565b6001600160a01b03929092168252602082015260400190565b90815260200190565b8481526001600160a01b0384811660208301528316604082015260806060820181905260009061383e90830184613650565b9695505050505050565b93845260208401929092526040830152606082015260800190565b604081016002841061387157fe5b9281526020015290565b60006004841061388757fe5b8382526040602083015261389e60408301846135c5565b949350505050565b602080825260139082015272556e617574686f72697a65642061636365737360681b604082015260600190565b6020808252601f908201527f556e617574686f72697a656420636f6c6c656374696f6e207265717565737400604082015260600190565b60208082526019908201527f4e6f2062616c616e636520746f2063726561746520706f6f6c00000000000000604082015260600190565b6020808252818101527f496e73756666696369656e7420636f6c6c61746572616c20666f7220706f6f6c604082015260600190565b6000602082528251610140806020850152613995610160850183613605565b91506020850151601f198584030160408601526139b28382613605565b92505060408501516139c760608601826135b8565b506060850151608085015260808501516139e460a08601826135b8565b5060a085015160c085015260c085015160e085015260e0850151610100818187015280870151915050610120818187015280870151838701525050508091505092915050565b918252602082015260400190565b60405181810167ffffffffffffffff81118282101715613a5757600080fd5b604052919050565b600067ffffffffffffffff821115613a75578081fd5b5060209081020190565b6001600160a01b0381168114613a9457600080fd5b50565b8015158114613a9457600080fdfea26469706673582212201757a83c33c3ff43565804cbe2969ab35aebfce5aa8674bbf57b20ea4c29e30a64736f6c63430007010033",
  "immutableReferences": {},
  "source": "// Manager for creating margin trading pools\r\n// (c) Kallol Borah, 2023\r\n// \"SPDX-License-Identifier: BUSL1.1\"\r\n\r\npragma solidity 0.7.1;\r\npragma experimental ABIEncoderV2;\r\n\r\nimport \"./interfaces/IFactory.sol\";\r\nimport \"./interfaces/ISecurity.sol\";\r\nimport \"./interfaces/IMarginOrder.sol\";\r\nimport \"./interfaces/IMarginManager.sol\";\r\nimport \"./interfaces/IMarginTradingPool.sol\";\r\nimport \"./interfaces/IMarginTradingPoolFactory.sol\";\r\n\r\nimport '@balancer-labs/v2-vault/contracts/interfaces/IAsset.sol';\r\nimport '@balancer-labs/v2-vault/contracts/interfaces/IVault.sol';\r\n\r\nimport \"@balancer-labs/v2-solidity-utils/contracts/math/Math.sol\";\r\nimport \"@balancer-labs/v2-solidity-utils/contracts/math/FixedPoint.sol\";\r\nimport \"@balancer-labs/v2-solidity-utils/contracts/openzeppelin/ERC20.sol\";\r\nimport \"@balancer-labs/v2-solidity-utils/contracts/openzeppelin/IERC20.sol\";\r\nimport \"@balancer-labs/v2-solidity-utils/contracts/openzeppelin/Ownable.sol\";\r\n\r\ncontract MarginIssueManager is IMarginManager, Ownable {\r\n\r\n    using Math for *;\r\n\r\n    // balancer variables\r\n    address private _poolFactory;    \r\n\r\n    address private _vault;\r\n\r\n    address private _distribution;\r\n\r\n    IFactory private _securityFactory;\r\n\r\n    uint256 private constant _INITIAL_BPT_SUPPLY = 2**(112) - 1;\r\n    uint256 private constant _DEFAULT_MINIMUM_BPT = 1e6;\r\n\r\n    //mapping security address to currency address to pool address\r\n    mapping(address => mapping(address => address)) private pools;\r\n\r\n    //mapping security token to pool id traded\r\n    mapping(address => bytes32) private poolSecurity;\r\n\r\n    //mapping pool id to issuer\r\n    mapping(bytes32 => address) private issuer;\r\n\r\n    //mapping token address to issuing fee collected\r\n    mapping(address => uint256) private fees;\r\n\r\n    //positions mapping trader address to collateral address to positive/negative balance (true for +ve, false for -ve) amount\r\n    mapping(address => mapping(address => int256)) private collateralBalance;\r\n\r\n    //mapping pool id to cash token to collateral amount\r\n    mapping(bytes32 => mapping(address => uint256)) private collateralAmount;\r\n\r\n    //traders\r\n    address[] private traders;\r\n    mapping(address => uint256) private traderIndex;    \r\n\r\n    //positions mapping security to currency to array of trade positions\r\n    mapping(address => mapping(address => IMarginManager.tradePosition[])) private positions;\r\n    //mapping order ref to index of position in positions array\r\n    mapping(bytes32 => uint256) private orders;\r\n\r\n    event tradeSettled( \r\n                        bytes32 indexed poolid,\r\n                        address transferor,\r\n                        address transferee,\r\n                        uint256 unitsToTransfer,\r\n                        address security,\r\n                        uint256 price,\r\n                        address currency,\r\n                        //bytes32 settlementStatus,\r\n                        uint256 amountPaid,\r\n                        bytes32 tradeRef,\r\n                        uint256 fee,\r\n                        uint256 timestamp\r\n                    );\r\n\r\n    event subscribers(address party, address counterparty, address indexed securityTraded, uint256 securityAmount, \r\n                        address currencySettled, uint256 cashAmount, bytes32 orderRef, uint256 timestamp);\r\n\r\n    event closures(bytes32 indexed poolId, address security, uint256 timestamp);\r\n    event feecollection(address indexed platform, uint256 collection, uint256 timestamp);\r\n\r\n    modifier onlyIssueManager(address sender, address security){\r\n        //address DP = _securityFactory.getDP(security);\r\n        //require(DP==sender, \"Unauthorized access\");\r\n        _;\r\n    }\r\n\r\n    modifier onlyTrader(address sender){\r\n        require(traderIndex[sender]!=0, \"Unauthorized access\");\r\n        _;\r\n    }\r\n\r\n    function initialize(address poolFactory, address vault, address securityFactory, address distribution) public onlyOwner {\r\n        _poolFactory = poolFactory;\r\n        _vault = vault;\r\n        _securityFactory = IFactory(securityFactory);\r\n        _distribution = distribution;\r\n    }\r\n\r\n    function issueProduct(address security, bytes32 securityType, address currency, bytes32 cficode, uint256 securityAmount, uint256 minimumOrderSize, uint256 cashAmount,\r\n                                uint256 margin, uint256 collateral, uint256 tradeFee) override external onlyIssueManager(msg.sender, security) {\r\n        require(IERC20(security).balanceOf(msg.sender)>=securityAmount && \r\n                IERC20(currency).balanceOf(msg.sender)>=cashAmount, \"No balance to create pool\");\r\n        ERC20(currency).transferFrom(msg.sender, address(this), cashAmount);\r\n        ERC20(security).transferFrom(msg.sender, address(this), securityAmount);  \r\n        ISecurity(security).whiteList(_vault, securityAmount);      \r\n        IMarginTradingPoolFactory.FactoryPoolParams memory poolparams = IMarginTradingPoolFactory.FactoryPoolParams({\r\n            name : \"Verified Pool Token\",\r\n            symbol : \"VPT\",\r\n            security : security,\r\n            securityType: securityType,\r\n            currency : currency,\r\n            cficode: cficode,\r\n            minOrderSize : minimumOrderSize,\r\n            margin : margin,\r\n            collateral: collateral,\r\n            tradeFeePercentage : tradeFee\r\n        });    \r\n        createPool(poolparams, security, securityAmount, currency, cashAmount, msg.sender);        \r\n    }\r\n\r\n    function createPool(IMarginTradingPoolFactory.FactoryPoolParams memory poolparams, address security, uint256 securityAmount, address currency, uint256 cashAmount, address creator) private {\r\n        pools[security][currency] = IMarginTradingPoolFactory(_poolFactory).create(poolparams);   \r\n        bytes32 poolId = IMarginTradingPool(pools[security][currency]).getPoolId();  \r\n        poolSecurity[security] = poolId; \r\n        issuer[poolId] = creator;\r\n        joinPool(security, currency, securityAmount, cashAmount, poolId);\r\n    }\r\n\r\n    function joinPool(address security, address currency, uint256 securityAmount, uint256 cashAmount, bytes32 poolId) private {\r\n        // join the pool here                \r\n        (IERC20[] memory tokens, , ) = IVault(_vault).getPoolTokens(poolId);\r\n        IAsset[] memory assets = _convertERC20sToAssets(tokens);\r\n        uint256[] memory maxAmountsIn = new uint256[](tokens.length);\r\n        ERC20(currency).approve(_vault, cashAmount);\r\n        ERC20(security).approve(_vault, securityAmount);\r\n        for(uint256 t; t < tokens.length; t++) {\r\n            if(tokens[t]==IERC20(security))\r\n                maxAmountsIn[t] = securityAmount;\r\n            else if(tokens[t]==IERC20(currency))\r\n                maxAmountsIn[t] = cashAmount;\r\n            else \r\n                maxAmountsIn[t] = _INITIAL_BPT_SUPPLY - _DEFAULT_MINIMUM_BPT;//Math.sub(_INITIAL_BPT_SUPPLY, _DEFAULT_MINIMUM_BPT);\r\n        }\r\n        IVault.JoinPoolRequest memory request = IVault.JoinPoolRequest({\r\n            assets: assets,\r\n            maxAmountsIn: maxAmountsIn,\r\n            userData: abi.encode(JoinKind.INIT, maxAmountsIn),\r\n            fromInternalBalance: false\r\n        });         \r\n        IVault(_vault).joinPool(poolId, address(this), address(this), request);\r\n    }\r\n\r\n    function close(address security) override external onlyIssueManager(msg.sender, security) {\r\n        address currency = IMarginTradingPool(security).getCurrency(); \r\n        // exit the pool here   \r\n        bytes32 poolId = poolSecurity[security];\r\n        (IERC20[] memory tokens, , ) = IVault(_vault).getPoolTokens(poolId);\r\n        IAsset[] memory assets = _convertERC20sToAssets(tokens);\r\n        uint256[] memory amountsOut = new uint256[](tokens.length);\r\n        IVault.ExitPoolRequest memory request = IVault.ExitPoolRequest({\r\n            assets: assets,\r\n            minAmountsOut: amountsOut,\r\n            userData: abi.encode(ExitKind.EXACT_BPT_IN_FOR_TOKENS_OUT, _INITIAL_BPT_SUPPLY - _DEFAULT_MINIMUM_BPT),\r\n            toInternalBalance: false\r\n        });         \r\n        IVault(_vault).exitPool(poolId, address(this), payable(address(this)), request);\r\n        emit closures(poolId, security, block.timestamp);\r\n        IERC20(currency).transfer(issuer[poolId], IERC20(currency).balanceOf(address(this)));\r\n        IERC20(security).transfer(issuer[poolId], IERC20(security).balanceOf(address(this)));\r\n    }\r\n    \r\n    function offerCollateral(address cashToken, uint256 amount, address security) override external {\r\n        IERC20(cashToken).transferFrom(msg.sender, address(this), amount);\r\n        uint256 scalingFactor = _computeScalingFactor(IERC20(cashToken));\r\n        amount = _upscale(amount, scalingFactor);\r\n        collateralBalance[msg.sender][cashToken] = Math.add(int(amount), collateralBalance[msg.sender][cashToken]);\r\n        if(traderIndex[msg.sender]==0){\r\n            traders.push(msg.sender);\r\n            traderIndex[msg.sender] = traders.length;\r\n        }\r\n        bytes32 poolId = poolSecurity[security];\r\n        collateralAmount[poolId][cashToken] = Math.add(collateralAmount[poolId][cashToken], amount);\r\n    }\r\n\r\n    function sendCollateral(address cashToken, uint256 amount, address security) override external onlyIssueManager(msg.sender, security){\r\n        bytes32 poolId = poolSecurity[security];\r\n        require(collateralAmount[poolId][cashToken] >= amount, \"Insufficient collateral for pool\");\r\n        IERC20(cashToken).transfer(issuer[poolId], amount);\r\n    }\r\n    event ptc(address serial, int collateral, int balance, address trader);\r\n    function onMatch(address party, address counterparty, bytes32 orderRef, address security, uint256 securityTraded, address currency, uint256 cashTraded) external \r\n                            override onlyIssueManager(msg.sender, security) {//returns(bool){\r\n        IMarginOrder.order memory order = IMarginOrder(IMarginTradingPool(pools[security][currency]).getOrderbook()).getOrder(orderRef);\r\n        uint256 marginCollateral = Math.add(FixedPoint.mulDown(cashTraded, IMarginTradingPool(pools[security][currency]).getMargin()),\r\n                                            FixedPoint.mulDown(cashTraded, IMarginTradingPool(pools[security][currency]).getCollateral()));\r\n        //for security traded in by counterparty, party is trading in cash to buy security, so margin collateral needs to be checked\r\n        emit ptc(order.tokenIn, int(marginCollateral), collateralBalance[order.party][currency], order.party);\r\n        if(order.tokenIn==security && order.party==counterparty){\r\n            //emit ptc(1, int(marginCollateral), collateralBalance[party][currency], party);\r\n            /*if(int(marginCollateral) >= collateralBalance[party][currency])\r\n                return true;\r\n            else\r\n                return false;*/\r\n        }\r\n        else if(order.tokenIn==security && order.party==party){\r\n            //emit ptc(2, int(marginCollateral), collateralBalance[counterparty][currency], counterparty);\r\n            /*if(int(marginCollateral) >= collateralBalance[counterparty][currency])\r\n                return true;\r\n            else\r\n                return false;*/\r\n        }\r\n        if(pretradeCheck(order, party, counterparty, security, currency, marginCollateral)){   \r\n            emit subscribers(party, counterparty, security, securityTraded, currency, cashTraded, orderRef, block.timestamp);\r\n            if(order.tokenIn==security && order.party==counterparty)\r\n                collateralBalance[party][currency] = Math.sub(collateralBalance[party][currency], int(marginCollateral));\r\n            else\r\n                collateralBalance[counterparty][currency] = Math.sub(collateralBalance[counterparty][currency], int(marginCollateral));\r\n            //record trade position\r\n            IMarginManager.tradePosition memory position = IMarginManager.tradePosition({\r\n                buyer : order.tokenIn==currency && order.party==counterparty ? counterparty : party,\r\n                seller : order.tokenIn==security && order.party==counterparty ? counterparty : party,\r\n                securityAmount : securityTraded,\r\n                cashAmount : cashTraded,\r\n                orderReference : orderRef,\r\n                marginCollateral : marginCollateral,\r\n                timestamp : 0\r\n            });\r\n            positions[security][currency].push(position);\r\n            orders[orderRef] = positions[security][currency].length - 1;\r\n        }\r\n    }\r\n    \r\n    function pretradeCheck(IMarginOrder.order memory order, address party, address counterparty, address security, address currency, uint256 marginCollateral) private view returns(bool){\r\n        //for security traded in by counterparty, party is trading in cash to buy security, so margin collateral needs to be checked\r\n        if(order.tokenIn==security && order.party==counterparty){\r\n            /*if(int(marginCollateral) >= collateralBalance[party][currency])\r\n                return true;\r\n            else\r\n                return false;*/\r\n        }\r\n        else if(order.tokenIn==security && order.party==party){\r\n            /*if(int(marginCollateral) >= collateralBalance[counterparty][currency])\r\n                return true;\r\n            else\r\n                return false;*/\r\n        }\r\n        return true;\r\n    }\r\n\r\n    function onTrade(bytes32 ref, bytes32 cref, address security, uint256 securityTraded, address currency, uint256 currencyTraded, uint256 executionTime) external override onlyIssueManager(msg.sender, security) {\r\n        if(securityTraded!=0 && currencyTraded!=0){ //if trade execution is successful, report trade and update timestamp\r\n            uint256 pay = calculateFee(pools[security][currency], currency, currencyTraded);\r\n            address orderbook = IMarginTradingPool(pools[security][currency]).getOrderbook();\r\n            address party = IMarginOrder(orderbook).getOrder(ref).tokenIn==currency ? \r\n                                        IMarginOrder(orderbook).getOrder(ref).party :\r\n                                        IMarginOrder(orderbook).getOrder(cref).party;\r\n            collateralBalance[party][currency] = Math.sub(collateralBalance[party][currency], int(pay));\r\n            IMarginOrder(orderbook).reportTrade(ref, cref, securityTraded, currencyTraded);\r\n            uint256 pos = FixedPoint.divDown(currencyTraded, securityTraded);\r\n            tradeReport(orderbook, ref, cref, securityTraded, currencyTraded, party, pos, pay);\r\n            pos = orders[ref];\r\n            IMarginManager.tradePosition memory position;\r\n            if(pos!=0){\r\n                position = positions[security][currency][pos];\r\n                position.timestamp = executionTime;\r\n            }\r\n            pos = orders[cref];\r\n            if(pos!=0){\r\n                position = positions[security][currency][pos];\r\n                position.timestamp = executionTime;\r\n            }\r\n        }\r\n        else{ //if trade execution fails, add back cash \r\n            IMarginManager.tradePosition memory position;\r\n            uint256 pos = orders[ref];\r\n            if(pos!=0){\r\n                position = positions[security][currency][pos];\r\n                collateralBalance[position.buyer][currency] = Math.add(collateralBalance[position.buyer][currency], int(position.marginCollateral));\r\n                delete positions[security][currency][pos];\r\n            }\r\n            pos = orders[cref];\r\n            if(pos!=0)\r\n                position = positions[security][currency][pos];\r\n                collateralBalance[position.buyer][currency] = Math.add(collateralBalance[position.buyer][currency], int(position.marginCollateral));\r\n                delete positions[security][currency][pos];\r\n        }\r\n    }\r\n\r\n    function tradeReport(address orderbook, bytes32 ref, bytes32 cref, uint256 securityTraded, \r\n                            uint256 currencyTraded, address buyer, uint256 price, uint256 pay) private {\r\n        //address seller = IMarginOrder(orderbook).getOrder(ref).party==buyer ?\r\n        //                        IMarginOrder(orderbook).getOrder(cref).party :\r\n        //                        IMarginOrder(orderbook).getOrder(ref).party;\r\n        //address security = IMarginOrder(orderbook).getSecurity();\r\n        //address currency = IMarginOrder(orderbook).getCurrency();\r\n        //bytes32 tradeRef = keccak256(abi.encodePacked(ref, cref));\r\n        emit tradeSettled( \r\n            IMarginOrder(orderbook).getPoolId(),\r\n            //seller,\r\n            IMarginOrder(orderbook).getOrder(ref).party==buyer ?\r\n                                IMarginOrder(orderbook).getOrder(cref).party :\r\n                                IMarginOrder(orderbook).getOrder(ref).party,\r\n            buyer,\r\n            securityTraded,\r\n            //security,\r\n            IMarginOrder(orderbook).getSecurity(),\r\n            price,\r\n            //currency,\r\n            IMarginOrder(orderbook).getCurrency(),\r\n            currencyTraded,\r\n            //tradeRef,\r\n            //cref,\r\n            ref,\r\n            pay,\r\n            block.timestamp\r\n        );\r\n    }    \r\n\r\n    function calculateFee(address pool, address currency, uint256 currencyTraded) private returns(uint256){\r\n        uint256 fee = IMarginTradingPool(pool).getFee();\r\n        fee = FixedPoint.mulDown(currencyTraded, fee);\r\n        uint256 pay = FixedPoint.divDown(fee, _computeScalingFactor(IERC20(currency)));\r\n        fees[currency] = Math.add(fees[currency], pay);\r\n        return pay;\r\n    }\r\n\r\n    function onSettle(address security, address currency, uint256 financingPerSec, bool charge, uint256 dividendPerSec, bool payout, uint256 settlementTime) override external onlyIssueManager(msg.sender, security){\r\n        for(uint256 i=0; i<positions[security][currency].length; i++){\r\n            IMarginManager.tradePosition memory position = positions[security][currency][i];\r\n            if(collateralBalance[position.buyer][currency]!=0){\r\n                if(charge)\r\n                    collateralBalance[position.buyer][currency] = Math.sub(collateralBalance[position.buyer][currency], int(Math.mul(financingPerSec, Math.sub(settlementTime, position.timestamp))));\r\n                else\r\n                    collateralBalance[position.buyer][currency] = Math.add(collateralBalance[position.buyer][currency], int(Math.mul(financingPerSec, Math.sub(settlementTime, position.timestamp))));\r\n                if(payout)\r\n                    collateralBalance[position.buyer][currency] = Math.sub(collateralBalance[position.buyer][currency], int(Math.mul(dividendPerSec, Math.sub(settlementTime, position.timestamp))));\r\n                else\r\n                    collateralBalance[position.buyer][currency] = Math.add(collateralBalance[position.buyer][currency], int(Math.mul(dividendPerSec, Math.sub(settlementTime, position.timestamp))));\r\n                position.timestamp = settlementTime;\r\n            }\r\n            if(collateralBalance[position.seller][currency]!=0){\r\n                if(payout)\r\n                    collateralBalance[position.seller][currency] = Math.add(collateralBalance[position.seller][currency], int(Math.mul(dividendPerSec, Math.sub(settlementTime, position.timestamp))));\r\n                else\r\n                    collateralBalance[position.seller][currency] = Math.sub(collateralBalance[position.seller][currency], int(Math.mul(dividendPerSec, Math.sub(settlementTime, position.timestamp))));\r\n                position.timestamp = settlementTime;\r\n            }\r\n        }\r\n    }    \r\n\r\n    function withdraw(address security, address currency) override external onlyTrader(msg.sender){\r\n        for(uint256 i=0; i<positions[security][currency].length; i++){\r\n            IMarginManager.tradePosition memory position = positions[security][currency][i];\r\n            if(position.buyer==msg.sender){\r\n                IERC20(currency).transfer(position.buyer, uint(collateralBalance[position.buyer][currency]));\r\n                //delete positions[security][currency][orders[position.orderReference]];\r\n            }\r\n            else if(position.seller==msg.sender){\r\n                IERC20(currency).transfer(position.seller, uint(collateralBalance[position.seller][currency]));\r\n                //delete positions[security][currency][orders[position.orderReference]];\r\n            }\r\n        }\r\n    }\r\n\r\n    function getTradingFeeCollected(address _token) override external returns(uint256){\r\n        require(msg.sender==_distribution, \"Unauthorized collection request\");\r\n        uint256 feeCollected = fees[_token];\r\n        fees[_token] = Math.sub(fees[_token], feeCollected);\r\n        IERC20(_token).transfer(_distribution, feeCollected);\r\n        emit feecollection(address(this), feeCollected, block.timestamp);\r\n        return feeCollected;\r\n    }  \r\n\r\n    /**\r\n     * @dev This helper function is a fast and cheap way to convert between IERC20[] and IAsset[] types\r\n     */\r\n    function _convertERC20sToAssets(IERC20[] memory tokens) internal pure returns (IAsset[] memory assets) {\r\n        // solhint-disable-next-line no-inline-assembly\r\n        assembly {\r\n            assets := tokens\r\n        }\r\n    }\r\n\r\n    /**\r\n     * @dev Returns a scaling factor that, when multiplied to a token amount for `token`, normalizes its balance as if\r\n     * it had 18 decimals.\r\n     */\r\n    function _computeScalingFactor(IERC20 token) internal view returns (uint256) {\r\n        // Tokens that don't implement the `decimals` method are not supported.\r\n        uint256 tokenDecimals = ERC20(address(token)).decimals();\r\n\r\n        // Tokens with more than 18 decimals are not supported.\r\n        uint256 decimalsDifference = Math.sub(18, tokenDecimals);\r\n        return FixedPoint.ONE * 10**decimalsDifference;\r\n    }\r\n\r\n    function _upscale(uint256 amount, uint256 scalingFactor) internal pure returns (uint256) {        \r\n        return FixedPoint.mulDown(amount, scalingFactor);\r\n    }\r\n\r\n}",
  "sourcePath": "D:\\Code\\verified-balancer\\contracts\\MarginIssueManager.sol",
  "compiler": {
    "name": "solc",
    "version": "0.7.1+commit.f4a555be.Emscripten.clang"
  },
  "schemaVersion": "3.4.3",
  "updatedAt": "2024-01-22T18:13:49.469Z",
  "networkType": "ethereum",
  "devdoc": {
    "kind": "dev",
    "methods": {
      "owner()": {
        "details": "Returns the address of the current owner."
      },
      "renounceOwnership()": {
        "details": "Leaves the contract without owner. It will not be possible to call `onlyOwner` functions anymore. Can only be called by the current owner. NOTE: Renouncing ownership will leave the contract without an owner, thereby removing any functionality that is only available to the owner."
      },
      "transferOwnership(address)": {
        "details": "Transfers ownership of the contract to a new account (`newOwner`). Can only be called by the current owner."
      }
    },
    "version": 1
  },
  "userdoc": {
    "kind": "user",
    "methods": {},
    "version": 1
  }
}