{
  "contractName": "MarginIssueManager",
  "abi": [
    {
      "anonymous": false,
      "inputs": [
        {
          "indexed": true,
          "internalType": "address",
          "name": "previousOwner",
          "type": "address"
        },
        {
          "indexed": true,
          "internalType": "address",
          "name": "newOwner",
          "type": "address"
        }
      ],
      "name": "OwnershipTransferred",
      "type": "event"
    },
    {
      "anonymous": false,
      "inputs": [
        {
          "indexed": true,
          "internalType": "bytes32",
          "name": "poolId",
          "type": "bytes32"
        },
        {
          "indexed": false,
          "internalType": "address",
          "name": "security",
          "type": "address"
        },
        {
          "indexed": false,
          "internalType": "uint256",
          "name": "timestamp",
          "type": "uint256"
        }
      ],
      "name": "closures",
      "type": "event"
    },
    {
      "anonymous": false,
      "inputs": [
        {
          "indexed": true,
          "internalType": "address",
          "name": "platform",
          "type": "address"
        },
        {
          "indexed": false,
          "internalType": "uint256",
          "name": "collection",
          "type": "uint256"
        },
        {
          "indexed": false,
          "internalType": "uint256",
          "name": "timestamp",
          "type": "uint256"
        }
      ],
      "name": "feecollection",
      "type": "event"
    },
    {
      "anonymous": false,
      "inputs": [
        {
          "indexed": false,
          "internalType": "address",
          "name": "party",
          "type": "address"
        },
        {
          "indexed": false,
          "internalType": "address",
          "name": "counterparty",
          "type": "address"
        },
        {
          "indexed": true,
          "internalType": "address",
          "name": "securityTraded",
          "type": "address"
        },
        {
          "indexed": false,
          "internalType": "uint256",
          "name": "securityAmount",
          "type": "uint256"
        },
        {
          "indexed": false,
          "internalType": "address",
          "name": "currencySettled",
          "type": "address"
        },
        {
          "indexed": false,
          "internalType": "uint256",
          "name": "cashAmount",
          "type": "uint256"
        },
        {
          "indexed": false,
          "internalType": "bytes32",
          "name": "orderRef",
          "type": "bytes32"
        }
      ],
      "name": "subscribers",
      "type": "event"
    },
    {
      "anonymous": false,
      "inputs": [
        {
          "indexed": true,
          "internalType": "bytes32",
          "name": "poolid",
          "type": "bytes32"
        },
        {
          "indexed": false,
          "internalType": "address",
          "name": "transferor",
          "type": "address"
        },
        {
          "indexed": false,
          "internalType": "address",
          "name": "transferee",
          "type": "address"
        },
        {
          "indexed": false,
          "internalType": "uint256",
          "name": "unitsToTransfer",
          "type": "uint256"
        },
        {
          "indexed": false,
          "internalType": "address",
          "name": "security",
          "type": "address"
        },
        {
          "indexed": false,
          "internalType": "uint256",
          "name": "price",
          "type": "uint256"
        },
        {
          "indexed": false,
          "internalType": "address",
          "name": "currency",
          "type": "address"
        },
        {
          "indexed": false,
          "internalType": "uint256",
          "name": "amountPaid",
          "type": "uint256"
        },
        {
          "indexed": false,
          "internalType": "bytes32",
          "name": "tradeRef",
          "type": "bytes32"
        },
        {
          "indexed": false,
          "internalType": "uint256",
          "name": "fee",
          "type": "uint256"
        }
      ],
      "name": "tradeSettled",
      "type": "event"
    },
    {
      "inputs": [],
      "name": "owner",
      "outputs": [
        {
          "internalType": "address",
          "name": "",
          "type": "address"
        }
      ],
      "stateMutability": "view",
      "type": "function",
      "constant": true
    },
    {
      "inputs": [],
      "name": "renounceOwnership",
      "outputs": [],
      "stateMutability": "nonpayable",
      "type": "function"
    },
    {
      "inputs": [
        {
          "internalType": "address",
          "name": "newOwner",
          "type": "address"
        }
      ],
      "name": "transferOwnership",
      "outputs": [],
      "stateMutability": "nonpayable",
      "type": "function"
    },
    {
      "inputs": [
        {
          "internalType": "address",
          "name": "poolFactory",
          "type": "address"
        },
        {
          "internalType": "address",
          "name": "vault",
          "type": "address"
        },
        {
          "internalType": "address",
          "name": "securityFactory",
          "type": "address"
        },
        {
          "internalType": "address",
          "name": "distribution",
          "type": "address"
        }
      ],
      "name": "initialize",
      "outputs": [],
      "stateMutability": "nonpayable",
      "type": "function"
    },
    {
      "inputs": [
        {
          "internalType": "address",
          "name": "security",
          "type": "address"
        },
        {
          "internalType": "bytes32",
          "name": "securityType",
          "type": "bytes32"
        },
        {
          "internalType": "address",
          "name": "currency",
          "type": "address"
        },
        {
          "internalType": "bytes32",
          "name": "cficode",
          "type": "bytes32"
        },
        {
          "internalType": "uint256",
          "name": "securityAmount",
          "type": "uint256"
        },
        {
          "internalType": "uint256",
          "name": "minimumOrderSize",
          "type": "uint256"
        },
        {
          "internalType": "uint256",
          "name": "cashAmount",
          "type": "uint256"
        },
        {
          "internalType": "uint256",
          "name": "margin",
          "type": "uint256"
        },
        {
          "internalType": "uint256",
          "name": "collateral",
          "type": "uint256"
        },
        {
          "internalType": "uint256",
          "name": "tradeFee",
          "type": "uint256"
        }
      ],
      "name": "issueProduct",
      "outputs": [],
      "stateMutability": "nonpayable",
      "type": "function"
    },
    {
      "inputs": [
        {
          "internalType": "address",
          "name": "security",
          "type": "address"
        }
      ],
      "name": "close",
      "outputs": [],
      "stateMutability": "nonpayable",
      "type": "function"
    },
    {
      "inputs": [
        {
          "internalType": "address",
          "name": "cashToken",
          "type": "address"
        },
        {
          "internalType": "uint256",
          "name": "amount",
          "type": "uint256"
        },
        {
          "internalType": "address",
          "name": "security",
          "type": "address"
        }
      ],
      "name": "offerCollateral",
      "outputs": [],
      "stateMutability": "nonpayable",
      "type": "function"
    },
    {
      "inputs": [
        {
          "internalType": "address",
          "name": "cashToken",
          "type": "address"
        },
        {
          "internalType": "uint256",
          "name": "amount",
          "type": "uint256"
        },
        {
          "internalType": "address",
          "name": "security",
          "type": "address"
        }
      ],
      "name": "sendCollateral",
      "outputs": [],
      "stateMutability": "nonpayable",
      "type": "function"
    },
    {
      "inputs": [
        {
          "internalType": "address",
          "name": "party",
          "type": "address"
        },
        {
          "internalType": "address",
          "name": "counterparty",
          "type": "address"
        },
        {
          "internalType": "bytes32",
          "name": "orderRef",
          "type": "bytes32"
        },
        {
          "internalType": "address",
          "name": "security",
          "type": "address"
        },
        {
          "internalType": "uint256",
          "name": "securityTraded",
          "type": "uint256"
        },
        {
          "internalType": "address",
          "name": "currency",
          "type": "address"
        },
        {
          "internalType": "uint256",
          "name": "cashTraded",
          "type": "uint256"
        }
      ],
      "name": "onMatch",
      "outputs": [],
      "stateMutability": "nonpayable",
      "type": "function"
    },
    {
      "inputs": [
        {
          "internalType": "bytes32",
          "name": "ref",
          "type": "bytes32"
        },
        {
          "internalType": "bytes32",
          "name": "cref",
          "type": "bytes32"
        },
        {
          "internalType": "address",
          "name": "security",
          "type": "address"
        },
        {
          "internalType": "uint256",
          "name": "securityTraded",
          "type": "uint256"
        },
        {
          "internalType": "address",
          "name": "currency",
          "type": "address"
        },
        {
          "internalType": "uint256",
          "name": "currencyTraded",
          "type": "uint256"
        },
        {
          "internalType": "uint256",
          "name": "executionTime",
          "type": "uint256"
        }
      ],
      "name": "onTrade",
      "outputs": [],
      "stateMutability": "nonpayable",
      "type": "function"
    },
    {
      "inputs": [
        {
          "internalType": "address",
          "name": "security",
          "type": "address"
        },
        {
          "internalType": "address",
          "name": "currency",
          "type": "address"
        },
        {
          "internalType": "uint256",
          "name": "financingPerSec",
          "type": "uint256"
        },
        {
          "internalType": "bool",
          "name": "charge",
          "type": "bool"
        },
        {
          "internalType": "uint256",
          "name": "dividendPerSec",
          "type": "uint256"
        },
        {
          "internalType": "bool",
          "name": "payout",
          "type": "bool"
        },
        {
          "internalType": "uint256",
          "name": "settlementTime",
          "type": "uint256"
        }
      ],
      "name": "onSettle",
      "outputs": [],
      "stateMutability": "nonpayable",
      "type": "function"
    },
    {
      "inputs": [
        {
          "internalType": "address",
          "name": "security",
          "type": "address"
        },
        {
          "internalType": "address",
          "name": "currency",
          "type": "address"
        }
      ],
      "name": "withdraw",
      "outputs": [],
      "stateMutability": "nonpayable",
      "type": "function"
    },
    {
      "inputs": [
        {
          "internalType": "address",
          "name": "_token",
          "type": "address"
        }
      ],
      "name": "getTradingFeeCollected",
      "outputs": [
        {
          "internalType": "uint256",
          "name": "",
          "type": "uint256"
        }
      ],
      "stateMutability": "nonpayable",
      "type": "function"
    }
  ],
  "bytecode": "0x608060405234801561001057600080fd5b50600080546001600160a01b0319163390811782556040519091907f8be0079c531659141344cd1fd0a4f28419497f9722a3daafe3b4186f6b6457e0908290a3613a538061005f6000396000f3fe608060405234801561001057600080fd5b50600436106100cf5760003560e01c8063715018a61161008c578063c74073a111610066578063c74073a11461018e578063f2fde38b146101a1578063f8c8765e146101b4578063f940e385146101c7576100cf565b8063715018a61461015e5780638da5cb5b1461016657806397db1a921461017b576100cf565b806302f2fb31146100d45780632b06b510146100e95780632d916746146100fc578063541af9d81461012557806359e7e4b1146101385780636b0fd1401461014b575b600080fd5b6100e76100e2366004613251565b6101da565b005b6100e76100f73660046131d7565b6105e2565b61010f61010a36600461310c565b610ba4565b60405161011c9190613793565b60405180910390f35b6100e76101333660046132b4565b610ce0565b6100e7610146366004613334565b611036565b6100e7610159366004613475565b6111f3565b6100e76119ce565b61016e611a36565b60405161011c91906136b3565b6100e7610189366004613334565b611a45565b6100e761019c36600461310c565b611b37565b6100e76101af36600461310c565b611fb1565b6100e76101c236600461317c565b61202f565b6100e76101d5366004613144565b61208b565b338760005b6001600160a01b03808b166000908152600d60209081526040808320938d16835292905220548110156105d657610214612f87565b6001600160a01b03808c166000908152600d60209081526040808320938e1683529290522080548390811061024557fe5b600091825260208083206040805160e081018252600790940290910180546001600160a01b0390811680865260018301548216868601526002830154868501526003830154606087015260048301546080870152600583015460a087015260069092015460c086015290855260098352818520908f16855290915290912054909150156104a757871561034c5780516001600160a01b039081166000908152600960209081526040808320938e168352929052205460c082015161031f919061031a908c90610315908a90612306565b612321565b61234c565b81516001600160a01b039081166000908152600960209081526040808320938f16835292905220556103bd565b80516001600160a01b039081166000908152600960209081526040808320938e168352929052205460c0820151610394919061038f908c90610315908a90612306565b612380565b81516001600160a01b039081166000908152600960209081526040808320938f16835292905220555b85156104335780516001600160a01b039081166000908152600960209081526040808320938e168352929052205460c0820151610406919061031a908a90610315908a90612306565b81516001600160a01b039081166000908152600960209081526040808320938f168352929052205561049f565b80516001600160a01b039081166000908152600960209081526040808320938e168352929052205460c0820151610476919061038f908a90610315908a90612306565b81516001600160a01b039081166000908152600960209081526040808320938f16835292905220555b60c081018590525b6020808201516001600160a01b039081166000908152600983526040808220928e16825291909252902054156105cd578515610553576020808201516001600160a01b039081166000908152600983526040808220928e1682529190925290205460c0820151610523919061038f908a90610315908a90612306565b6020808301516001600160a01b039081166000908152600983526040808220928f168252919092529020556105c5565b6020808201516001600160a01b039081166000908152600983526040808220928e1682529190925290205460c0820151610599919061031a908a90610315908a90612306565b6020808301516001600160a01b039081166000908152600983526040808220928f168252919092529020555b60c081018590525b506001016101df565b50505050505050505050565b33846105ec612fd9565b6001600160a01b038088166000908152600560209081526040808320898516845282529182902054825163ab63c60760e01b8152925193169263ab63c607926004808201939291829003018186803b15801561064757600080fd5b505afa15801561065b573d6000803e3d6000fd5b505050506040513d601f19601f8201168201806040525081019061067f9190613128565b6001600160a01b0316635778472a896040518263ffffffff1660e01b81526004016106aa9190613793565b60a06040518083038186803b1580156106c257600080fd5b505afa1580156106d6573d6000803e3d6000fd5b505050506040513d601f19601f820116820180604052508101906106fa91906134dc565b6001600160a01b0380891660009081526005602090815260408083208a851684528252808320548151631288bdb960e11b8152915195965092946108049461079f948b949116926325117b729260048083019392829003018186803b15801561076257600080fd5b505afa158015610776573d6000803e3d6000fd5b505050506040513d601f19601f8201168201806040525081019061079a919061345d565b6123b4565b6001600160a01b03808b1660009081526005602090815260408083208c85168452825291829020548251635c1548fb60e01b815292516107ff948c94921692635c1548fb9260048082019391829003018186803b15801561076257600080fd5b6123e0565b9050610814828c8c8b8a866123f2565b15610b9757876001600160a01b03167fc068c10148c6aed058e026cc4f45411b5acb09a78f45c1637afa7873ed83c92e8c8c8a8a8a8f60405161085c96959493929190613740565b60405180910390a2876001600160a01b031682600001516001600160a01b031614801561089e5750896001600160a01b031682606001516001600160a01b0316145b156108fe576001600160a01b03808c166000908152600960209081526040808320938a16835292905220546108d3908261234c565b6001600160a01b03808d166000908152600960209081526040808320938b1683529290522055610955565b6001600160a01b03808b166000908152600960209081526040808320938a168352929052205461092e908261234c565b6001600160a01b03808c166000908152600960209081526040808320938b16835292905220555b61095d612f87565b6040518060e00160405280886001600160a01b031685600001516001600160a01b03161480156109a257508c6001600160a01b031685606001516001600160a01b0316145b6109ac578d6109ae565b8c5b6001600160a01b031681526020018a6001600160a01b031685600001516001600160a01b03161480156109f657508c6001600160a01b031685606001516001600160a01b0316145b610a00578d610a02565b8c5b6001600160a01b031681526020018981526020018781526020018b815260200183815260200160008152509050600d60008a6001600160a01b03166001600160a01b031681526020019081526020016000206000886001600160a01b03166001600160a01b0316815260200190815260200160002081908060018154018082558091505060019003906000526020600020906007020160009091909190915060008201518160000160006101000a8154816001600160a01b0302191690836001600160a01b0316021790555060208201518160010160006101000a8154816001600160a01b0302191690836001600160a01b0316021790555060408201518160020155606082015181600301556080820151816004015560a0820151816005015560c0820151816006015550506001600d60008b6001600160a01b03166001600160a01b031681526020019081526020016000206000896001600160a01b03166001600160a01b031681526020019081526020016000208054905003600e60008c815260200190815260200160002081905550505b5050505050505050505050565b6003546000906001600160a01b03163314610bda5760405162461bcd60e51b8152600401610bd190613859565b60405180910390fd5b6001600160a01b038216600090815260086020526040902054610bfd8180612306565b6001600160a01b038085166000818152600860205260409081902093909355600354925163a9059cbb60e01b8152909263a9059cbb92610c4492911690859060040161377a565b602060405180830381600087803b158015610c5e57600080fd5b505af1158015610c72573d6000803e3d6000fd5b505050506040513d601f19601f82011682018060405250810190610c969190613441565b50306001600160a01b03167feaad90c8664cdf61d60bd7ba6745a881fd1c38d9f4ff0b373b4365cdeeb0f9e88242604051610cd29291906136a5565b60405180910390a292915050565b338a878c6001600160a01b03166370a08231336040518263ffffffff1660e01b8152600401610d0f91906136b3565b60206040518083038186803b158015610d2757600080fd5b505afa158015610d3b573d6000803e3d6000fd5b505050506040513d601f19601f82011682018060405250810190610d5f919061345d565b10158015610de957506040516370a0823160e01b815286906001600160a01b038c16906370a0823190610d969033906004016136b3565b60206040518083038186803b158015610dae57600080fd5b505afa158015610dc2573d6000803e3d6000fd5b505050506040513d601f19601f82011682018060405250810190610de6919061345d565b10155b610e055760405162461bcd60e51b8152600401610bd190613890565b6040516323b872dd60e01b81526001600160a01b038b16906323b872dd90610e3590339030908b906004016136c7565b602060405180830381600087803b158015610e4f57600080fd5b505af1158015610e63573d6000803e3d6000fd5b505050506040513d601f19601f82011682018060405250810190610e879190613441565b506040516323b872dd60e01b81526001600160a01b038d16906323b872dd90610eb890339030908d906004016136c7565b602060405180830381600087803b158015610ed257600080fd5b505af1158015610ee6573d6000803e3d6000fd5b505050506040513d601f19601f82011682018060405250810190610f0a9190613441565b506002546040516372e0f85360e01b81526001600160a01b038e8116926372e0f85392610f3f92909116908c9060040161377a565b600060405180830381600087803b158015610f5957600080fd5b505af1158015610f6d573d6000803e3d6000fd5b50505050610f79613009565b604051806101400160405280604051806040016040528060138152602001722b32b934b334b2b2102837b7b6102a37b5b2b760691b81525081526020016040518060400160405280600381526020016215941560ea1b81525081526020018e6001600160a01b031681526020018c6001600160a01b031681526020018d81526020018b8152602001898152602001878152602001868152602001858152509050611027818e8b8e8b336124ea565b50505050505050505050505050565b6040516323b872dd60e01b81526001600160a01b038416906323b872dd90611066903390309087906004016136c7565b602060405180830381600087803b15801561108057600080fd5b505af1158015611094573d6000803e3d6000fd5b505050506040513d601f19601f820116820180604052508101906110b89190613441565b5060006110c484612663565b90506110d083826126fe565b3360009081526009602090815260408083206001600160a01b0389168452909152902054909350611102908490612380565b3360008181526009602090815260408083206001600160a01b038a168452825280832094909455918152600c909152205461118957600b80546001810182557f0175b7a638427703f0dbe7bb9bbf987a2551717b34e79f33b5b1008d1fa01db90180546001600160a01b0319163390811790915590546000918252600c6020526040909120555b6001600160a01b03808316600090815260066020908152604080832054808452600a83528184209489168452939091529020546111c690856123e0565b6000918252600a602090815260408084206001600160a01b03909816845296905294902093909355505050565b3385851580159061120357508315155b156116c4576001600160a01b0380881660009081526005602090815260408083208985168452909152812054909161123d9116878761270a565b6001600160a01b03808a1660009081526005602090815260408083208b85168452825280832054815163ab63c60760e01b815291519596509294929093169263ab63c6079260048083019392829003018186803b15801561129d57600080fd5b505afa1580156112b1573d6000803e3d6000fd5b505050506040513d601f19601f820116820180604052508101906112d59190613128565b90506000876001600160a01b0316826001600160a01b0316635778472a8e6040518263ffffffff1660e01b815260040161130f9190613793565b60a06040518083038186803b15801561132757600080fd5b505afa15801561133b573d6000803e3d6000fd5b505050506040513d601f19601f8201168201806040525081019061135f91906134dc565b516001600160a01b0316146113f357604051632bbc239560e11b81526001600160a01b03831690635778472a9061139a908e90600401613793565b60a06040518083038186803b1580156113b257600080fd5b505afa1580156113c6573d6000803e3d6000fd5b505050506040513d601f19601f820116820180604052508101906113ea91906134dc565b60600151611474565b604051632bbc239560e11b81526001600160a01b03831690635778472a9061141f908f90600401613793565b60a06040518083038186803b15801561143757600080fd5b505afa15801561144b573d6000803e3d6000fd5b505050506040513d601f19601f8201168201806040525081019061146f91906134dc565b606001515b6001600160a01b038082166000908152600960209081526040808320938d16835292905220549091506114a7908461234c565b6001600160a01b0380831660009081526009602090815260408083208d851684529091529081902092909255905163c49f3fe360e01b81529083169063c49f3fe3906114fd908f908f908e908d906004016137ce565b600060405180830381600087803b15801561151757600080fd5b505af115801561152b573d6000803e3d6000fd5b50505050600061153b888b6127e9565b905061154d838e8e8d86868e8b61283a565b5060008c8152600e6020526040902054611565612f87565b8115611607576001600160a01b03808d166000908152600d60209081526040808320938e1683529290522080548390811061159c57fe5b60009182526020918290206040805160e081018252600790930290910180546001600160a01b03908116845260018201541693830193909352600283015490820152600382015460608201526004820154608082015260059091015460a082015260c0810189905290505b60008d8152600e6020526040902054915081156116ba576001600160a01b03808d166000908152600d60209081526040808320938e1683529290522080548390811061164f57fe5b60009182526020918290206040805160e081018252600790930290910180546001600160a01b03908116845260018201541693830193909352600283015490820152600382015460608201526004820154608082015260059091015460a082015260c0810189905290505b50505050506119c3565b6116cc612f87565b60008a8152600e6020526040902054801561183b576001600160a01b03808a166000908152600d60209081526040808320938b1683529290522080548290811061171257fe5b600091825260208083206040805160e081018252600790940290910180546001600160a01b0390811680865260018301548216868601526002830154868501526003830154606087015260048301546080870152600583015460a0870190815260069093015460c0870152865260098452828620908d1686529092529092205491519093506117a19190612380565b82516001600160a01b0390811660009081526009602090815260408083208c851680855290835281842095909555928d168252600d81528282209382529290925290208054829081106117f057fe5b60009182526020822060079091020180546001600160a01b03199081168255600182018054909116905560028101829055600381018290556004810182905560058101829055600601555b506000898152600e602052604090205480156118f0576001600160a01b03808a166000908152600d60209081526040808320938b1683529290522080548290811061188257fe5b60009182526020918290206040805160e081018252600790930290910180546001600160a01b039081168452600182015416938301939093526002830154908201526003820154606082015260048201546080820152600582015460a082015260069091015460c082015291505b81516001600160a01b039081166000908152600960209081526040808320938b168352929052205460a08301516119279190612380565b82516001600160a01b0390811660009081526009602090815260408083208c851680855290835281842095909555928d168252600d815282822093825292909252902080548290811061197657fe5b60009182526020822060079091020180546001600160a01b031990811682556001820180549091169055600281018290556003810182905560048101829055600581018290556006015550505b505050505050505050565b6119ec336119da611a36565b6001600160a01b0316146101aa612bb9565b600080546040516001600160a01b03909116907f8be0079c531659141344cd1fd0a4f28419497f9722a3daafe3b4186f6b6457e0908390a3600080546001600160a01b0319169055565b6000546001600160a01b031690565b6001600160a01b03808216600090815260066020908152604080832054808452600a835281842094881684529390915290205433918391851115611a9b5760405162461bcd60e51b8152600401610bd1906138c7565b6000818152600760205260409081902054905163a9059cbb60e01b81526001600160a01b038881169263a9059cbb92611adc9290911690899060040161377a565b602060405180830381600087803b158015611af657600080fd5b505af1158015611b0a573d6000803e3d6000fd5b505050506040513d601f19601f82011682018060405250810190611b2e9190613441565b50505050505050565b33816000836001600160a01b0316636945c1fd6040518163ffffffff1660e01b815260040160206040518083038186803b158015611b7457600080fd5b505afa158015611b88573d6000803e3d6000fd5b505050506040513d601f19601f82011682018060405250810190611bac9190613128565b6001600160a01b0380861660009081526006602052604090819020546002549151631f29a8cd60e31b815293945092606092919091169063f94d466890611bf7908590600401613793565b60006040518083038186803b158015611c0f57600080fd5b505afa158015611c23573d6000803e3d6000fd5b505050506040513d6000823e601f3d908101601f19168201604052611c4b9190810190613375565b505090506060611c5a82612bcb565b90506060825167ffffffffffffffff81118015611c7657600080fd5b50604051908082528060200260200182016040528015611ca0578160200160208202803683370190505b509050611cab613074565b60405180608001604052808481526020018381526020016001620f42406001600160701b0303604051602001611ce29291906137e9565b60408051808303601f1901815291815290825260006020909201919091526002549051638bdb391360e01b81529192506001600160a01b031690638bdb391390611d3690889030908190879060040161379c565b600060405180830381600087803b158015611d5057600080fd5b505af1158015611d64573d6000803e3d6000fd5b50505050847f56eadf552f1d54f8f73fbbf801097c1c4d7bb3d77d5ac2bebfd0a8151642d55a8a42604051611d9a92919061377a565b60405180910390a2600085815260076020526040908190205490516370a0823160e01b81526001600160a01b038089169263a9059cbb9291169083906370a0823190611dea9030906004016136b3565b60206040518083038186803b158015611e0257600080fd5b505afa158015611e16573d6000803e3d6000fd5b505050506040513d601f19601f82011682018060405250810190611e3a919061345d565b6040518363ffffffff1660e01b8152600401611e5792919061377a565b602060405180830381600087803b158015611e7157600080fd5b505af1158015611e85573d6000803e3d6000fd5b505050506040513d601f19601f82011682018060405250810190611ea99190613441565b50600085815260076020526040908190205490516370a0823160e01b81526001600160a01b03808c169263a9059cbb9291169083906370a0823190611ef29030906004016136b3565b60206040518083038186803b158015611f0a57600080fd5b505afa158015611f1e573d6000803e3d6000fd5b505050506040513d601f19601f82011682018060405250810190611f42919061345d565b6040518363ffffffff1660e01b8152600401611f5f92919061377a565b602060405180830381600087803b158015611f7957600080fd5b505af1158015611f8d573d6000803e3d6000fd5b505050506040513d601f19601f820116820180604052508101906105d69190613441565b611fbd336119da611a36565b611fd46001600160a01b03821615156101ab612bb9565b600080546040516001600160a01b03808516939216917f8be0079c531659141344cd1fd0a4f28419497f9722a3daafe3b4186f6b6457e091a3600080546001600160a01b0319166001600160a01b0392909216919091179055565b61203b336119da611a36565b600180546001600160a01b039586166001600160a01b0319918216179091556002805494861694821694909417909355600480549285169284169290921790915560038054919093169116179055565b336000818152600c60205260409020546120b75760405162461bcd60e51b8152600401610bd19061382c565b60005b6001600160a01b038085166000908152600d6020908152604080832093871683529290522054811015612300576120ef612f87565b6001600160a01b038086166000908152600d6020908152604080832093881683529290522080548390811061212057fe5b60009182526020918290206040805160e081018252600790930290910180546001600160a01b039081168085526001830154909116948401949094526002810154918301919091526003810154606083015260048101546080830152600581015460a08301526006015460c0820152915033141561223e5780516001600160a01b038181166000908152600960209081526040808320938916808452939091529081902054905163a9059cbb60e01b8152919263a9059cbb926121e6929060040161377a565b602060405180830381600087803b15801561220057600080fd5b505af1158015612214573d6000803e3d6000fd5b505050506040513d601f19601f820116820180604052508101906122389190613441565b506122f7565b60208101516001600160a01b03163314156122f7576020808201516001600160a01b0381811660009081526009845260408082209289168083529290945283902054925163a9059cbb60e01b8152909263a9059cbb926122a39290919060040161377a565b602060405180830381600087803b1580156122bd57600080fd5b505af11580156122d1573d6000803e3d6000fd5b505050506040513d601f19601f820116820180604052508101906122f59190613441565b505b506001016120ba565b50505050565b6000612316838311156001612bb9565b508082035b92915050565b600082820261234584158061233e57508385838161233b57fe5b04145b6003612bb9565b9392505050565b60008183036123458284128015906123645750848213155b80612379575060008412801561237957508482135b6001612bb9565b60008282016123458284128015906123985750848212155b806123ad57506000841280156123ad57508482125b6000612bb9565b60008282026123ce84158061233e57508385838161233b57fe5b670de0b6b3a764000090049392505050565b60008282016123458482101583612bb9565b6000836001600160a01b031687600001516001600160a01b031614801561242e5750846001600160a01b031687606001516001600160a01b0316145b15612470576001600160a01b03808716600090815260096020908152604080832093871683529290522054821215612468575060016124e0565b5060006124e0565b836001600160a01b031687600001516001600160a01b03161480156124aa5750856001600160a01b031687606001516001600160a01b0316145b156124e0576001600160a01b03808616600090815260096020908152604080832093871683529290522054821215612468575060015b9695505050505050565b600154604051637bf4635760e11b81526001600160a01b039091169063f7e8c6ae9061251a9089906004016138fc565b602060405180830381600087803b15801561253457600080fd5b505af1158015612548573d6000803e3d6000fd5b505050506040513d601f19601f8201168201806040525081019061256c9190613128565b6001600160a01b0386811660009081526005602090815260408083208885168452825280832080546001600160a01b0319169585169590951794859055805163038fff2d60e41b815290519294909316926338fff2d09260048083019392829003018186803b1580156125de57600080fd5b505afa1580156125f2573d6000803e3d6000fd5b505050506040513d601f19601f82011682018060405250810190612616919061345d565b6001600160a01b0387811660009081526006602090815260408083208590558483526007909152902080546001600160a01b0319169185169190911790559050611b2e8685878685612bce565b600080826001600160a01b031663313ce5676040518163ffffffff1660e01b815260040160206040518083038186803b15801561269f57600080fd5b505afa1580156126b3573d6000803e3d6000fd5b505050506040513d601f19601f820116820180604052508101906126d79190613556565b60ff16905060006126e9601283612306565b600a0a670de0b6b3a764000002949350505050565b600061234583836123b4565b600080846001600160a01b031663ced72f876040518163ffffffff1660e01b815260040160206040518083038186803b15801561274657600080fd5b505afa15801561275a573d6000803e3d6000fd5b505050506040513d601f19601f8201168201806040525081019061277e919061345d565b905061278a83826123b4565b905060006127a08261279b87612663565b6127e9565b6001600160a01b0386166000908152600860205260409020549091506127c690826123e0565b6001600160a01b0386166000908152600860205260409020559150509392505050565b60006127f88215156004612bb9565b826128055750600061231b565b670de0b6b3a7640000838102906128289085838161281f57fe5b04146005612bb9565b82818161283157fe5b0491505061231b565b6000846001600160a01b0316896001600160a01b0316635778472a8a6040518263ffffffff1660e01b81526004016128729190613793565b60a06040518083038186803b15801561288a57600080fd5b505afa15801561289e573d6000803e3d6000fd5b505050506040513d601f19601f820116820180604052508101906128c291906134dc565b606001516001600160a01b03161461295957604051632bbc239560e11b81526001600160a01b038a1690635778472a90612900908b90600401613793565b60a06040518083038186803b15801561291857600080fd5b505afa15801561292c573d6000803e3d6000fd5b505050506040513d601f19601f8201168201806040525081019061295091906134dc565b606001516129da565b604051632bbc239560e11b81526001600160a01b038a1690635778472a90612985908a90600401613793565b60a06040518083038186803b15801561299d57600080fd5b505afa1580156129b1573d6000803e3d6000fd5b505050506040513d601f19601f820116820180604052508101906129d591906134dc565b606001515b90506000896001600160a01b0316632541897f6040518163ffffffff1660e01b815260040160206040518083038186803b158015612a1757600080fd5b505afa158015612a2b573d6000803e3d6000fd5b505050506040513d601f19601f82011682018060405250810190612a4f9190613128565b905060008a6001600160a01b0316636945c1fd6040518163ffffffff1660e01b815260040160206040518083038186803b158015612a8c57600080fd5b505afa158015612aa0573d6000803e3d6000fd5b505050506040513d601f19601f82011682018060405250810190612ac49190613128565b905060008a8a604051602001612adb9291906136a5565b6040516020818303038152906040528051906020012090508b6001600160a01b03166338fff2d06040518163ffffffff1660e01b815260040160206040518083038186803b158015612b2c57600080fd5b505afa158015612b40573d6000803e3d6000fd5b505050506040513d601f19601f82011682018060405250810190612b64919061345d565b7f61b971f054570cadbe9a75ab2f5751d9e0d51744bc5939da4d133e26208ff3e0858a8c878c888d898e604051612ba3999897969594939291906136eb565b60405180910390a2505050505050505050505050565b81612bc757612bc781612f34565b5050565b90565b600254604051631f29a8cd60e31b81526060916001600160a01b03169063f94d466890612bff908590600401613793565b60006040518083038186803b158015612c1757600080fd5b505afa158015612c2b573d6000803e3d6000fd5b505050506040513d6000823e601f3d908101601f19168201604052612c539190810190613375565b505090506060612c6282612bcb565b90506060825167ffffffffffffffff81118015612c7e57600080fd5b50604051908082528060200260200182016040528015612ca8578160200160208202803683370190505b5060025460405163095ea7b360e01b81529192506001600160a01b03808a169263095ea7b392612cde921690899060040161377a565b602060405180830381600087803b158015612cf857600080fd5b505af1158015612d0c573d6000803e3d6000fd5b505050506040513d601f19601f82011682018060405250810190612d309190613441565b5060025460405163095ea7b360e01b81526001600160a01b038a81169263095ea7b392612d6592909116908a9060040161377a565b602060405180830381600087803b158015612d7f57600080fd5b505af1158015612d93573d6000803e3d6000fd5b505050506040513d601f19601f82011682018060405250810190612db79190613441565b5060005b8351811015612e7e57886001600160a01b0316848281518110612dda57fe5b60200260200101516001600160a01b03161415612e0f5786828281518110612dfe57fe5b602002602001018181525050612e76565b876001600160a01b0316848281518110612e2557fe5b60200260200101516001600160a01b03161415612e495785828281518110612dfe57fe5b612e5d6001600160701b03620f4240612306565b828281518110612e6957fe5b6020026020010181815250505b600101612dbb565b50612e87613074565b6040518060800160405280848152602001838152602001600084604051602001612eb2929190613801565b60408051808303601f190181529181529082526000602090920191909152600254905163172b958560e31b81529192506001600160a01b03169063b95cac2890612f0690889030908190879060040161379c565b600060405180830381600087803b158015612f2057600080fd5b505af1158015611027573d6000803e3d6000fd5b62461bcd60e51b6000908152602060045260076024526642414c23000030600a808404818106603090810160081b95839006959095019082900491820690940160101b939093010160c81b604452606490fd5b6040518060e0016040528060006001600160a01b0316815260200160006001600160a01b0316815260200160008152602001600081526020016000801916815260200160008152602001600081525090565b6040805160a081019091526000808252602082019081526020016000815260006020820181905260409091015290565b604051806101400160405280606081526020016060815260200160006001600160a01b0316815260200160006001600160a01b031681526020016000801916815260200160008019168152602001600081526020016000815260200160008152602001600081525090565b60405180608001604052806060815260200160608152602001606081526020016000151581525090565b600082601f8301126130ae578081fd5b81516130c16130bc826139d7565b6139b0565b8181529150602080830190848101818402860182018710156130e257600080fd5b60005b84811015613101578151845292820192908201906001016130e5565b505050505092915050565b60006020828403121561311d578081fd5b8135612345816139f7565b600060208284031215613139578081fd5b8151612345816139f7565b60008060408385031215613156578081fd5b8235613161816139f7565b91506020830135613171816139f7565b809150509250929050565b60008060008060808587031215613191578182fd5b843561319c816139f7565b935060208501356131ac816139f7565b925060408501356131bc816139f7565b915060608501356131cc816139f7565b939692955090935050565b600080600080600080600060e0888a0312156131f1578283fd5b87356131fc816139f7565b9650602088013561320c816139f7565b9550604088013594506060880135613223816139f7565b93506080880135925060a088013561323a816139f7565b8092505060c0880135905092959891949750929550565b600080600080600080600060e0888a03121561326b578283fd5b8735613276816139f7565b96506020880135613286816139f7565b955060408801359450606088013561329d81613a0f565b93506080880135925060a088013561323a81613a0f565b6000806000806000806000806000806101408b8d0312156132d3578384fd5b8a356132de816139f7565b995060208b0135985060408b01356132f5816139f7565b999c989b5098996060810135995060808101359860a0820135985060c0820135975060e082013596506101008201359550610120909101359350915050565b600080600060608486031215613348578081fd5b8335613353816139f7565b925060208401359150604084013561336a816139f7565b809150509250925092565b600080600060608486031215613389578081fd5b835167ffffffffffffffff808211156133a0578283fd5b818601915086601f8301126133b3578283fd5b81516133c16130bc826139d7565b80828252602080830192508086018b8283870289010111156133e1578788fd5b8796505b8487101561340c5780516133f8816139f7565b8452600196909601959281019281016133e5565b508901519097509350505080821115613423578283fd5b506134308682870161309e565b925050604084015190509250925092565b600060208284031215613452578081fd5b815161234581613a0f565b60006020828403121561346e578081fd5b5051919050565b600080600080600080600060e0888a03121561348f578081fd5b873596506020880135955060408801356134a8816139f7565b94506060880135935060808801356134bf816139f7565b9699959850939692959460a0840135945060c09093013592915050565b600060a082840312156134ed578081fd5b6134f760a06139b0565b8251613502816139f7565b8152602083015160038110613515578283fd5b602082015260408301516005811061352b578283fd5b6040820152606083015161353e816139f7565b60608201526080928301519281019290925250919050565b600060208284031215613567578081fd5b815160ff81168114612345578182fd5b6001600160a01b03169052565b6000815180845260208085019450808401835b838110156135b357815187529582019590820190600101613597565b509495945050505050565b15159052565b60008151808452815b818110156135e9576020818501810151868301820152016135cd565b818111156135fa5782602083870101525b50601f01601f19169290920160200192915050565b8051608080845281519084018190526000916020919082019060a0860190845b818110156136545783516001600160a01b03168352928401929184019160010161362f565b50508285015191508581038387015261366d8183613584565b925050506040830151848203604086015261368882826135c4565b915050606083015161369d60608601826135be565b509392505050565b918252602082015260400190565b6001600160a01b0391909116815260200190565b6001600160a01b039384168152919092166020820152604081019190915260600190565b6001600160a01b03998a168152978916602089015260408801969096529387166060870152608086019290925290941660a084015260c083019390935260e08201929092526101008101919091526101200190565b6001600160a01b0396871681529486166020860152604085019390935293166060830152608082019290925260a081019190915260c00190565b6001600160a01b03929092168252602082015260400190565b90815260200190565b8481526001600160a01b038481166020830152831660408201526080606082018190526000906124e09083018461360f565b93845260208401929092526040830152606082015260800190565b60408101600284106137f757fe5b9281526020015290565b60006004841061380d57fe5b838252604060208301526138246040830184613584565b949350505050565b602080825260139082015272556e617574686f72697a65642061636365737360681b604082015260600190565b6020808252601f908201527f556e617574686f72697a656420636f6c6c656374696f6e207265717565737400604082015260600190565b60208082526019908201527f4e6f2062616c616e636520746f2063726561746520706f6f6c00000000000000604082015260600190565b6020808252818101527f496e73756666696369656e7420636f6c6c61746572616c20666f7220706f6f6c604082015260600190565b600060208252825161014080602085015261391b6101608501836135c4565b91506020850151601f1985840301604086015261393883826135c4565b925050604085015161394d6060860182613577565b5060608501516139606080860182613577565b50608085015160a085015260a085015160c085015260c085015160e085015260e0850151610100818187015280870151915050610120818187015280870151838701525050508091505092915050565b60405181810167ffffffffffffffff811182821017156139cf57600080fd5b604052919050565b600067ffffffffffffffff8211156139ed578081fd5b5060209081020190565b6001600160a01b0381168114613a0c57600080fd5b50565b8015158114613a0c57600080fdfea26469706673582212207ef3cd3c854c58bb702b1e4aaf7d7b820470182b8daf29a4504504e033ff142264736f6c63430007010033",
  "immutableReferences": {},
  "source": "// Manager for creating margin trading pools\r\n// (c) Kallol Borah, 2023\r\n// \"SPDX-License-Identifier: BUSL1.1\"\r\n\r\npragma solidity 0.7.1;\r\npragma experimental ABIEncoderV2;\r\n\r\nimport \"./interfaces/IFactory.sol\";\r\nimport \"./interfaces/ISecurity.sol\";\r\nimport \"./interfaces/IMarginOrder.sol\";\r\nimport \"./interfaces/IMarginManager.sol\";\r\nimport \"./interfaces/IMarginTradingPool.sol\";\r\nimport \"./interfaces/IMarginTradingPoolFactory.sol\";\r\n\r\nimport '@balancer-labs/v2-vault/contracts/interfaces/IAsset.sol';\r\nimport '@balancer-labs/v2-vault/contracts/interfaces/IVault.sol';\r\n\r\nimport \"@balancer-labs/v2-solidity-utils/contracts/math/Math.sol\";\r\nimport \"@balancer-labs/v2-solidity-utils/contracts/math/FixedPoint.sol\";\r\nimport \"@balancer-labs/v2-solidity-utils/contracts/openzeppelin/ERC20.sol\";\r\nimport \"@balancer-labs/v2-solidity-utils/contracts/openzeppelin/IERC20.sol\";\r\nimport \"@balancer-labs/v2-solidity-utils/contracts/openzeppelin/Ownable.sol\";\r\n\r\ncontract MarginIssueManager is IMarginManager, Ownable {\r\n\r\n    using Math for *;\r\n\r\n    // balancer variables\r\n    address private _poolFactory;    \r\n\r\n    address private _vault;\r\n\r\n    address private _distribution;\r\n\r\n    IFactory private _securityFactory;\r\n\r\n    uint256 private constant _INITIAL_BPT_SUPPLY = 2**(112) - 1;\r\n    uint256 private constant _DEFAULT_MINIMUM_BPT = 1e6;\r\n\r\n    //mapping security address to currency address to pool address\r\n    mapping(address => mapping(address => address)) private pools;\r\n\r\n    //mapping security token to pool id traded\r\n    mapping(address => bytes32) private poolSecurity;\r\n\r\n    //mapping pool id to issuer\r\n    mapping(bytes32 => address) private issuer;\r\n\r\n    //mapping token address to issuing fee collected\r\n    mapping(address => uint256) private fees;\r\n\r\n    //positions mapping trader address to collateral address to positive/negative balance (true for +ve, false for -ve) amount\r\n    mapping(address => mapping(address => int256)) private collateralBalance;\r\n\r\n    //mapping pool id to cash token to collateral amount\r\n    mapping(bytes32 => mapping(address => uint256)) private collateralAmount;\r\n\r\n    //traders\r\n    address[] private traders;\r\n    mapping(address => uint256) private traderIndex;    \r\n\r\n    //positions mapping security to currency to array of trade positions\r\n    mapping(address => mapping(address => IMarginManager.tradePosition[])) private positions;\r\n    //mapping order ref to index of position in positions array\r\n    mapping(bytes32 => uint256) private orders;\r\n\r\n    event tradeSettled( \r\n                        bytes32 indexed poolid,\r\n                        address transferor,\r\n                        address transferee,\r\n                        uint256 unitsToTransfer,\r\n                        address security,\r\n                        uint256 price,\r\n                        address currency,\r\n                        uint256 amountPaid,\r\n                        bytes32 tradeRef,\r\n                        uint256 fee\r\n                    );\r\n\r\n    event subscribers(address party, address counterparty, address indexed securityTraded, uint256 securityAmount, \r\n                        address currencySettled, uint256 cashAmount, bytes32 orderRef);\r\n\r\n    event closures(bytes32 indexed poolId, address security, uint256 timestamp);\r\n    event feecollection(address indexed platform, uint256 collection, uint256 timestamp);\r\n\r\n    modifier onlyIssueManager(address sender, address security){\r\n        //address DP = _securityFactory.getDP(security);\r\n        //require(DP==sender, \"Unauthorized access\");\r\n        _;\r\n    }\r\n\r\n    modifier onlyTrader(address sender){\r\n        require(traderIndex[sender]!=0, \"Unauthorized access\");\r\n        _;\r\n    }\r\n\r\n    function initialize(address poolFactory, address vault, address securityFactory, address distribution) public onlyOwner {\r\n        _poolFactory = poolFactory;\r\n        _vault = vault;\r\n        _securityFactory = IFactory(securityFactory);\r\n        _distribution = distribution;\r\n    }\r\n\r\n    function issueProduct(address security, bytes32 securityType, address currency, bytes32 cficode, uint256 securityAmount, uint256 minimumOrderSize, uint256 cashAmount,\r\n                                uint256 margin, uint256 collateral, uint256 tradeFee) override external onlyIssueManager(msg.sender, security) {\r\n        require(IERC20(security).balanceOf(msg.sender)>=securityAmount && \r\n                IERC20(currency).balanceOf(msg.sender)>=cashAmount, \"No balance to create pool\");\r\n        ERC20(currency).transferFrom(msg.sender, address(this), cashAmount);\r\n        ERC20(security).transferFrom(msg.sender, address(this), securityAmount);  \r\n        ISecurity(security).whiteList(_vault, securityAmount);      \r\n        IMarginTradingPoolFactory.FactoryPoolParams memory poolparams = IMarginTradingPoolFactory.FactoryPoolParams({\r\n            name : \"Verified Pool Token\",\r\n            symbol : \"VPT\",\r\n            security : security,\r\n            securityType: securityType,\r\n            currency : currency,\r\n            cficode: cficode,\r\n            minOrderSize : minimumOrderSize,\r\n            margin : margin,\r\n            collateral: collateral,\r\n            tradeFeePercentage : tradeFee\r\n        });    \r\n        createPool(poolparams, security, securityAmount, currency, cashAmount, msg.sender);        \r\n    }\r\n\r\n    function createPool(IMarginTradingPoolFactory.FactoryPoolParams memory poolparams, address security, uint256 securityAmount, address currency, uint256 cashAmount, address creator) private {\r\n        pools[security][currency] = IMarginTradingPoolFactory(_poolFactory).create(poolparams);   \r\n        bytes32 poolId = IMarginTradingPool(pools[security][currency]).getPoolId();  \r\n        poolSecurity[security] = poolId; \r\n        issuer[poolId] = creator;\r\n        joinPool(security, currency, securityAmount, cashAmount, poolId);\r\n    }\r\n\r\n    function joinPool(address security, address currency, uint256 securityAmount, uint256 cashAmount, bytes32 poolId) private {\r\n        // join the pool here                \r\n        (IERC20[] memory tokens, , ) = IVault(_vault).getPoolTokens(poolId);\r\n        IAsset[] memory assets = _convertERC20sToAssets(tokens);\r\n        uint256[] memory maxAmountsIn = new uint256[](tokens.length);\r\n        ERC20(currency).approve(_vault, cashAmount);\r\n        ERC20(security).approve(_vault, securityAmount);\r\n        for(uint256 t; t < tokens.length; t++) {\r\n            if(tokens[t]==IERC20(security))\r\n                maxAmountsIn[t] = securityAmount;\r\n            else if(tokens[t]==IERC20(currency))\r\n                maxAmountsIn[t] = cashAmount;\r\n            else \r\n                maxAmountsIn[t] = Math.sub(_INITIAL_BPT_SUPPLY, _DEFAULT_MINIMUM_BPT);\r\n        }\r\n        IVault.JoinPoolRequest memory request = IVault.JoinPoolRequest({\r\n            assets: assets,\r\n            maxAmountsIn: maxAmountsIn,\r\n            userData: abi.encode(JoinKind.INIT, maxAmountsIn),\r\n            fromInternalBalance: false\r\n        });         \r\n        IVault(_vault).joinPool(poolId, address(this), address(this), request);\r\n    }\r\n\r\n    function close(address security) override external onlyIssueManager(msg.sender, security) {\r\n        address currency = IMarginTradingPool(security).getCurrency(); \r\n        // exit the pool here   \r\n        bytes32 poolId = poolSecurity[security];\r\n        (IERC20[] memory tokens, , ) = IVault(_vault).getPoolTokens(poolId);\r\n        IAsset[] memory assets = _convertERC20sToAssets(tokens);\r\n        uint256[] memory amountsOut = new uint256[](tokens.length);\r\n        IVault.ExitPoolRequest memory request = IVault.ExitPoolRequest({\r\n            assets: assets,\r\n            minAmountsOut: amountsOut,\r\n            userData: abi.encode(ExitKind.EXACT_BPT_IN_FOR_TOKENS_OUT, _INITIAL_BPT_SUPPLY - _DEFAULT_MINIMUM_BPT),\r\n            toInternalBalance: false\r\n        });         \r\n        IVault(_vault).exitPool(poolId, address(this), payable(address(this)), request);\r\n        emit closures(poolId, security, block.timestamp);\r\n        IERC20(currency).transfer(issuer[poolId], IERC20(currency).balanceOf(address(this)));\r\n        IERC20(security).transfer(issuer[poolId], IERC20(security).balanceOf(address(this)));\r\n    }\r\n\r\n    function offerCollateral(address cashToken, uint256 amount, address security) override external {\r\n        IERC20(cashToken).transferFrom(msg.sender, address(this), amount);\r\n        uint256 scalingFactor = _computeScalingFactor(IERC20(cashToken));\r\n        amount = _upscale(amount, scalingFactor);\r\n        collateralBalance[msg.sender][cashToken] = Math.add(int(amount), collateralBalance[msg.sender][cashToken]);\r\n        if(traderIndex[msg.sender]==0){\r\n            traders.push(msg.sender);\r\n            traderIndex[msg.sender] = traders.length;\r\n        }\r\n        bytes32 poolId = poolSecurity[security];\r\n        collateralAmount[poolId][cashToken] = Math.add(collateralAmount[poolId][cashToken], amount);\r\n    }\r\n\r\n    function sendCollateral(address cashToken, uint256 amount, address security) override external onlyIssueManager(msg.sender, security){\r\n        bytes32 poolId = poolSecurity[security];\r\n        require(collateralAmount[poolId][cashToken] >= amount, \"Insufficient collateral for pool\");\r\n        IERC20(cashToken).transfer(issuer[poolId], amount);\r\n    }\r\n\r\n    function onMatch(address party, address counterparty, bytes32 orderRef, address security, uint256 securityTraded, address currency, uint256 cashTraded) external \r\n                            override onlyIssueManager(msg.sender, security) {//returns(bool){\r\n        IMarginOrder.order memory order = IMarginOrder(IMarginTradingPool(pools[security][currency]).getOrderbook()).getOrder(orderRef);\r\n        uint256 marginCollateral = Math.add(FixedPoint.mulDown(cashTraded, IMarginTradingPool(pools[security][currency]).getMargin()),\r\n                                            FixedPoint.mulDown(cashTraded, IMarginTradingPool(pools[security][currency]).getCollateral()));\r\n        if(pretradeCheck(order, party, counterparty, security, currency, marginCollateral)){   \r\n            emit subscribers(party, counterparty, security, securityTraded, currency, cashTraded, orderRef);\r\n            if(order.tokenIn==security && order.party==counterparty)\r\n                collateralBalance[party][currency] = Math.sub(collateralBalance[party][currency], int(marginCollateral));\r\n            else\r\n                collateralBalance[counterparty][currency] = Math.sub(collateralBalance[counterparty][currency], int(marginCollateral));\r\n            //record trade position\r\n            IMarginManager.tradePosition memory position = IMarginManager.tradePosition({\r\n                buyer : order.tokenIn==currency && order.party==counterparty ? counterparty : party,\r\n                seller : order.tokenIn==security && order.party==counterparty ? counterparty : party,\r\n                securityAmount : securityTraded,\r\n                cashAmount : cashTraded,\r\n                orderReference : orderRef,\r\n                marginCollateral : marginCollateral,\r\n                timestamp : 0\r\n            });\r\n            positions[security][currency].push(position);\r\n            orders[orderRef] = positions[security][currency].length - 1;\r\n            //return true;\r\n        }\r\n        //return false;\r\n    }\r\n\r\n    function pretradeCheck(IMarginOrder.order memory order, address party, address counterparty, address security, address currency, uint256 marginCollateral) private view returns(bool){\r\n        //for security traded in by counterparty, party is trading in cash to buy security, so margin collateral needs to be checked\r\n        if(order.tokenIn==security && order.party==counterparty){\r\n            if(collateralBalance[party][currency] > int(marginCollateral))\r\n                return true;\r\n            else\r\n                return false;\r\n        }\r\n        else if(order.tokenIn==security && order.party==party){\r\n            if(collateralBalance[counterparty][currency] > int(marginCollateral))\r\n                return true;\r\n            else\r\n                return false;\r\n        }\r\n    }\r\n\r\n    function onTrade(bytes32 ref, bytes32 cref, address security, uint256 securityTraded, address currency, uint256 currencyTraded, uint256 executionTime) external override onlyIssueManager(msg.sender, security) {\r\n        if(securityTraded!=0 && currencyTraded!=0){ //if trade execution is successful, report trade and update timestamp\r\n            uint256 pay = calculateFee(pools[security][currency], currency, currencyTraded);\r\n            address orderbook = IMarginTradingPool(pools[security][currency]).getOrderbook();\r\n            address party = IMarginOrder(orderbook).getOrder(ref).tokenIn==currency ? \r\n                                        IMarginOrder(orderbook).getOrder(ref).party :\r\n                                        IMarginOrder(orderbook).getOrder(cref).party;\r\n            collateralBalance[party][currency] = Math.sub(collateralBalance[party][currency], int(pay));\r\n            IMarginOrder(orderbook).reportTrade(ref, cref, securityTraded, currencyTraded);\r\n            uint256 pos = FixedPoint.divDown(currencyTraded, securityTraded);\r\n            tradeReport(orderbook, ref, cref, securityTraded, party, pos, currencyTraded, pay);\r\n            pos = orders[ref];\r\n            IMarginManager.tradePosition memory position;\r\n            if(pos!=0){\r\n                position = positions[security][currency][pos];\r\n                position.timestamp = executionTime;\r\n            }\r\n            pos = orders[cref];\r\n            if(pos!=0){\r\n                position = positions[security][currency][pos];\r\n                position.timestamp = executionTime;\r\n            }\r\n        }\r\n        else{ //if trade execution fails, add back cash \r\n            IMarginManager.tradePosition memory position;\r\n            uint256 pos = orders[ref];\r\n            if(pos!=0){\r\n                position = positions[security][currency][pos];\r\n                collateralBalance[position.buyer][currency] = Math.add(collateralBalance[position.buyer][currency], int(position.marginCollateral));\r\n                delete positions[security][currency][pos];\r\n            }\r\n            pos = orders[cref];\r\n            if(pos!=0)\r\n                position = positions[security][currency][pos];\r\n                collateralBalance[position.buyer][currency] = Math.add(collateralBalance[position.buyer][currency], int(position.marginCollateral));\r\n                delete positions[security][currency][pos];\r\n        }\r\n    }\r\n\r\n    function tradeReport(address orderbook, bytes32 ref, bytes32 cref, uint256 securityTraded,  \r\n                            address buyer, uint256 price, uint256 currencyTraded, uint256 pay) private {\r\n        address seller = IMarginOrder(orderbook).getOrder(ref).party==buyer ?\r\n                                IMarginOrder(orderbook).getOrder(cref).party :\r\n                                IMarginOrder(orderbook).getOrder(ref).party;\r\n        address security = IMarginOrder(orderbook).getSecurity();\r\n        address currency = IMarginOrder(orderbook).getCurrency();\r\n        bytes32 tradeRef = keccak256(abi.encodePacked(ref, cref));\r\n        emit tradeSettled( \r\n            IMarginOrder(orderbook).getPoolId(),\r\n            seller,\r\n            buyer,\r\n            securityTraded,\r\n            security,\r\n            price,\r\n            currency,\r\n            currencyTraded,\r\n            tradeRef,\r\n            pay\r\n        );\r\n    }    \r\n\r\n    function calculateFee(address pool, address currency, uint256 currencyTraded) private returns(uint256){\r\n        uint256 fee = IMarginTradingPool(pool).getFee();\r\n        fee = FixedPoint.mulDown(currencyTraded, fee);\r\n        uint256 pay = FixedPoint.divDown(fee, _computeScalingFactor(IERC20(currency)));\r\n        fees[currency] = Math.add(fees[currency], pay);\r\n        return pay;\r\n    }\r\n\r\n    function onSettle(address security, address currency, uint256 financingPerSec, bool charge, uint256 dividendPerSec, bool payout, uint256 settlementTime) override external onlyIssueManager(msg.sender, security){\r\n        for(uint256 i=0; i<positions[security][currency].length; i++){\r\n            IMarginManager.tradePosition memory position = positions[security][currency][i];\r\n            if(collateralBalance[position.buyer][currency]!=0){\r\n                if(charge)\r\n                    collateralBalance[position.buyer][currency] = Math.sub(collateralBalance[position.buyer][currency], int(Math.mul(financingPerSec, Math.sub(settlementTime, position.timestamp))));\r\n                else\r\n                    collateralBalance[position.buyer][currency] = Math.add(collateralBalance[position.buyer][currency], int(Math.mul(financingPerSec, Math.sub(settlementTime, position.timestamp))));\r\n                if(payout)\r\n                    collateralBalance[position.buyer][currency] = Math.sub(collateralBalance[position.buyer][currency], int(Math.mul(dividendPerSec, Math.sub(settlementTime, position.timestamp))));\r\n                else\r\n                    collateralBalance[position.buyer][currency] = Math.add(collateralBalance[position.buyer][currency], int(Math.mul(dividendPerSec, Math.sub(settlementTime, position.timestamp))));\r\n                position.timestamp = settlementTime;\r\n            }\r\n            if(collateralBalance[position.seller][currency]!=0){\r\n                if(payout)\r\n                    collateralBalance[position.seller][currency] = Math.add(collateralBalance[position.seller][currency], int(Math.mul(dividendPerSec, Math.sub(settlementTime, position.timestamp))));\r\n                else\r\n                    collateralBalance[position.seller][currency] = Math.sub(collateralBalance[position.seller][currency], int(Math.mul(dividendPerSec, Math.sub(settlementTime, position.timestamp))));\r\n                position.timestamp = settlementTime;\r\n            }\r\n        }\r\n    }    \r\n\r\n    function withdraw(address security, address currency) override external onlyTrader(msg.sender){\r\n        for(uint256 i=0; i<positions[security][currency].length; i++){\r\n            IMarginManager.tradePosition memory position = positions[security][currency][i];\r\n            if(position.buyer==msg.sender){\r\n                IERC20(currency).transfer(position.buyer, uint(collateralBalance[position.buyer][currency]));\r\n                //delete positions[security][currency][orders[position.orderReference]];\r\n            }\r\n            else if(position.seller==msg.sender){\r\n                IERC20(currency).transfer(position.seller, uint(collateralBalance[position.seller][currency]));\r\n                //delete positions[security][currency][orders[position.orderReference]];\r\n            }\r\n        }\r\n    }\r\n\r\n    function getTradingFeeCollected(address _token) override external returns(uint256){\r\n        require(msg.sender==_distribution, \"Unauthorized collection request\");\r\n        uint256 feeCollected = fees[_token];\r\n        fees[_token] = Math.sub(fees[_token], feeCollected);\r\n        IERC20(_token).transfer(_distribution, feeCollected);\r\n        emit feecollection(address(this), feeCollected, block.timestamp);\r\n        return feeCollected;\r\n    }  \r\n\r\n    /**\r\n     * @dev This helper function is a fast and cheap way to convert between IERC20[] and IAsset[] types\r\n     */\r\n    function _convertERC20sToAssets(IERC20[] memory tokens) internal pure returns (IAsset[] memory assets) {\r\n        // solhint-disable-next-line no-inline-assembly\r\n        assembly {\r\n            assets := tokens\r\n        }\r\n    }\r\n\r\n    /**\r\n     * @dev Returns a scaling factor that, when multiplied to a token amount for `token`, normalizes its balance as if\r\n     * it had 18 decimals.\r\n     */\r\n    function _computeScalingFactor(IERC20 token) internal view returns (uint256) {\r\n        // Tokens that don't implement the `decimals` method are not supported.\r\n        uint256 tokenDecimals = ERC20(address(token)).decimals();\r\n\r\n        // Tokens with more than 18 decimals are not supported.\r\n        uint256 decimalsDifference = Math.sub(18, tokenDecimals);\r\n        return FixedPoint.ONE * 10**decimalsDifference;\r\n    }\r\n\r\n    function _upscale(uint256 amount, uint256 scalingFactor) internal pure returns (uint256) {        \r\n        return FixedPoint.mulDown(amount, scalingFactor);\r\n    }\r\n\r\n}",
  "sourcePath": "D:\\Code\\verified-balancer\\contracts\\MarginIssueManager.sol",
  "compiler": {
    "name": "solc",
    "version": "0.7.1+commit.f4a555be.Emscripten.clang"
  },
  "schemaVersion": "3.4.3",
  "updatedAt": "2023-10-23T11:19:25.557Z",
  "networkType": "ethereum",
  "devdoc": {
    "kind": "dev",
    "methods": {
      "owner()": {
        "details": "Returns the address of the current owner."
      },
      "renounceOwnership()": {
        "details": "Leaves the contract without owner. It will not be possible to call `onlyOwner` functions anymore. Can only be called by the current owner. NOTE: Renouncing ownership will leave the contract without an owner, thereby removing any functionality that is only available to the owner."
      },
      "transferOwnership(address)": {
        "details": "Transfers ownership of the contract to a new account (`newOwner`). Can only be called by the current owner."
      }
    },
    "version": 1
  },
  "userdoc": {
    "kind": "user",
    "methods": {},
    "version": 1
  }
}