{
  "contractName": "MarginIssueManager",
  "abi": [
    {
      "anonymous": false,
      "inputs": [
        {
          "indexed": true,
          "internalType": "address",
          "name": "previousOwner",
          "type": "address"
        },
        {
          "indexed": true,
          "internalType": "address",
          "name": "newOwner",
          "type": "address"
        }
      ],
      "name": "OwnershipTransferred",
      "type": "event"
    },
    {
      "anonymous": false,
      "inputs": [
        {
          "indexed": true,
          "internalType": "address",
          "name": "user",
          "type": "address"
        },
        {
          "indexed": false,
          "internalType": "address",
          "name": "security",
          "type": "address"
        },
        {
          "indexed": false,
          "internalType": "address",
          "name": "currency",
          "type": "address"
        },
        {
          "indexed": false,
          "internalType": "int256",
          "name": "financing",
          "type": "int256"
        },
        {
          "indexed": false,
          "internalType": "int256",
          "name": "dividend",
          "type": "int256"
        },
        {
          "indexed": false,
          "internalType": "int256",
          "name": "commission",
          "type": "int256"
        },
        {
          "indexed": false,
          "internalType": "uint256",
          "name": "settlementTime",
          "type": "uint256"
        }
      ],
      "name": "PnLSettled",
      "type": "event"
    },
    {
      "anonymous": false,
      "inputs": [
        {
          "indexed": true,
          "internalType": "bytes32",
          "name": "poolId",
          "type": "bytes32"
        },
        {
          "indexed": false,
          "internalType": "address",
          "name": "security",
          "type": "address"
        },
        {
          "indexed": false,
          "internalType": "uint256",
          "name": "timestamp",
          "type": "uint256"
        }
      ],
      "name": "closures",
      "type": "event"
    },
    {
      "anonymous": false,
      "inputs": [
        {
          "indexed": false,
          "internalType": "bytes32",
          "name": "action",
          "type": "bytes32"
        },
        {
          "indexed": true,
          "internalType": "address",
          "name": "user",
          "type": "address"
        },
        {
          "indexed": false,
          "internalType": "address",
          "name": "currency",
          "type": "address"
        },
        {
          "indexed": false,
          "internalType": "int256",
          "name": "balance",
          "type": "int256"
        },
        {
          "indexed": false,
          "internalType": "uint256",
          "name": "offerTime",
          "type": "uint256"
        }
      ],
      "name": "collateral",
      "type": "event"
    },
    {
      "anonymous": false,
      "inputs": [
        {
          "indexed": true,
          "internalType": "address",
          "name": "platform",
          "type": "address"
        },
        {
          "indexed": false,
          "internalType": "uint256",
          "name": "collection",
          "type": "uint256"
        },
        {
          "indexed": false,
          "internalType": "uint256",
          "name": "timestamp",
          "type": "uint256"
        }
      ],
      "name": "feecollection",
      "type": "event"
    },
    {
      "anonymous": false,
      "inputs": [
        {
          "indexed": false,
          "internalType": "address",
          "name": "party",
          "type": "address"
        },
        {
          "indexed": false,
          "internalType": "address",
          "name": "counterparty",
          "type": "address"
        },
        {
          "indexed": true,
          "internalType": "address",
          "name": "securityTraded",
          "type": "address"
        },
        {
          "indexed": false,
          "internalType": "uint256",
          "name": "securityAmount",
          "type": "uint256"
        },
        {
          "indexed": false,
          "internalType": "address",
          "name": "currencySettled",
          "type": "address"
        },
        {
          "indexed": false,
          "internalType": "uint256",
          "name": "cashAmount",
          "type": "uint256"
        },
        {
          "indexed": false,
          "internalType": "bytes32",
          "name": "orderRef",
          "type": "bytes32"
        },
        {
          "indexed": false,
          "internalType": "uint256",
          "name": "timestamp",
          "type": "uint256"
        }
      ],
      "name": "subscribers",
      "type": "event"
    },
    {
      "anonymous": false,
      "inputs": [
        {
          "indexed": true,
          "internalType": "bytes32",
          "name": "poolid",
          "type": "bytes32"
        },
        {
          "indexed": false,
          "internalType": "address",
          "name": "transferor",
          "type": "address"
        },
        {
          "indexed": false,
          "internalType": "address",
          "name": "transferee",
          "type": "address"
        },
        {
          "indexed": false,
          "internalType": "uint256",
          "name": "unitsToTransfer",
          "type": "uint256"
        },
        {
          "indexed": false,
          "internalType": "address",
          "name": "security",
          "type": "address"
        },
        {
          "indexed": false,
          "internalType": "address",
          "name": "currency",
          "type": "address"
        },
        {
          "indexed": false,
          "internalType": "uint256",
          "name": "amountPaid",
          "type": "uint256"
        },
        {
          "indexed": false,
          "internalType": "bytes32",
          "name": "cref",
          "type": "bytes32"
        },
        {
          "indexed": false,
          "internalType": "bytes32",
          "name": "ref",
          "type": "bytes32"
        },
        {
          "indexed": false,
          "internalType": "uint256",
          "name": "fee",
          "type": "uint256"
        },
        {
          "indexed": false,
          "internalType": "uint256",
          "name": "timestamp",
          "type": "uint256"
        }
      ],
      "name": "tradeSettled",
      "type": "event"
    },
    {
      "inputs": [],
      "name": "owner",
      "outputs": [
        {
          "internalType": "address",
          "name": "",
          "type": "address"
        }
      ],
      "stateMutability": "view",
      "type": "function"
    },
    {
      "inputs": [],
      "name": "renounceOwnership",
      "outputs": [],
      "stateMutability": "nonpayable",
      "type": "function"
    },
    {
      "inputs": [
        {
          "internalType": "address",
          "name": "newOwner",
          "type": "address"
        }
      ],
      "name": "transferOwnership",
      "outputs": [],
      "stateMutability": "nonpayable",
      "type": "function"
    },
    {
      "inputs": [
        {
          "internalType": "address",
          "name": "poolFactory",
          "type": "address"
        },
        {
          "internalType": "address",
          "name": "vault",
          "type": "address"
        },
        {
          "internalType": "address",
          "name": "securityFactory",
          "type": "address"
        },
        {
          "internalType": "address",
          "name": "distribution",
          "type": "address"
        }
      ],
      "name": "initialize",
      "outputs": [],
      "stateMutability": "nonpayable",
      "type": "function"
    },
    {
      "inputs": [
        {
          "internalType": "address",
          "name": "bridge",
          "type": "address"
        }
      ],
      "name": "setBridge",
      "outputs": [],
      "stateMutability": "nonpayable",
      "type": "function"
    },
    {
      "inputs": [
        {
          "internalType": "bytes32",
          "name": "poolId",
          "type": "bytes32"
        }
      ],
      "name": "getPool",
      "outputs": [
        {
          "internalType": "bool",
          "name": "",
          "type": "bool"
        }
      ],
      "stateMutability": "view",
      "type": "function"
    },
    {
      "inputs": [
        {
          "internalType": "address",
          "name": "security",
          "type": "address"
        },
        {
          "internalType": "bytes32",
          "name": "securityType",
          "type": "bytes32"
        },
        {
          "internalType": "address",
          "name": "currency",
          "type": "address"
        },
        {
          "internalType": "bytes32",
          "name": "cficode",
          "type": "bytes32"
        },
        {
          "internalType": "uint256",
          "name": "securityAmount",
          "type": "uint256"
        },
        {
          "internalType": "uint256",
          "name": "minimumOrderSize",
          "type": "uint256"
        },
        {
          "internalType": "uint256",
          "name": "cashAmount",
          "type": "uint256"
        },
        {
          "internalType": "uint256",
          "name": "margin",
          "type": "uint256"
        },
        {
          "internalType": "uint256",
          "name": "collateralAmnt",
          "type": "uint256"
        },
        {
          "internalType": "uint256",
          "name": "tradeFee",
          "type": "uint256"
        }
      ],
      "name": "issueProduct",
      "outputs": [],
      "stateMutability": "nonpayable",
      "type": "function"
    },
    {
      "inputs": [
        {
          "internalType": "address",
          "name": "security",
          "type": "address"
        },
        {
          "internalType": "address",
          "name": "currency",
          "type": "address"
        }
      ],
      "name": "close",
      "outputs": [],
      "stateMutability": "nonpayable",
      "type": "function"
    },
    {
      "inputs": [
        {
          "internalType": "address",
          "name": "cashToken",
          "type": "address"
        },
        {
          "internalType": "uint256",
          "name": "amount",
          "type": "uint256"
        },
        {
          "internalType": "address",
          "name": "security",
          "type": "address"
        }
      ],
      "name": "offerCollateral",
      "outputs": [],
      "stateMutability": "nonpayable",
      "type": "function"
    },
    {
      "inputs": [
        {
          "internalType": "address",
          "name": "cashToken",
          "type": "address"
        },
        {
          "internalType": "uint256",
          "name": "amount",
          "type": "uint256"
        },
        {
          "internalType": "address",
          "name": "security",
          "type": "address"
        }
      ],
      "name": "sendCollateral",
      "outputs": [],
      "stateMutability": "nonpayable",
      "type": "function"
    },
    {
      "inputs": [
        {
          "internalType": "bytes32",
          "name": "poolId",
          "type": "bytes32"
        },
        {
          "internalType": "address",
          "name": "currency",
          "type": "address"
        }
      ],
      "name": "getCollateral",
      "outputs": [
        {
          "internalType": "uint256",
          "name": "",
          "type": "uint256"
        }
      ],
      "stateMutability": "view",
      "type": "function"
    },
    {
      "inputs": [
        {
          "internalType": "address",
          "name": "party",
          "type": "address"
        },
        {
          "internalType": "address",
          "name": "currency",
          "type": "address"
        }
      ],
      "name": "getUserCollateral",
      "outputs": [
        {
          "internalType": "int256",
          "name": "",
          "type": "int256"
        }
      ],
      "stateMutability": "view",
      "type": "function"
    },
    {
      "inputs": [
        {
          "internalType": "address",
          "name": "party",
          "type": "address"
        },
        {
          "internalType": "address",
          "name": "counterparty",
          "type": "address"
        },
        {
          "internalType": "bytes32",
          "name": "orderRef",
          "type": "bytes32"
        },
        {
          "internalType": "address",
          "name": "security",
          "type": "address"
        },
        {
          "internalType": "uint256",
          "name": "securityTraded",
          "type": "uint256"
        },
        {
          "internalType": "address",
          "name": "currency",
          "type": "address"
        },
        {
          "internalType": "uint256",
          "name": "cashTraded",
          "type": "uint256"
        }
      ],
      "name": "onMatch",
      "outputs": [],
      "stateMutability": "nonpayable",
      "type": "function"
    },
    {
      "inputs": [
        {
          "internalType": "bytes32",
          "name": "ref",
          "type": "bytes32"
        },
        {
          "internalType": "bytes32",
          "name": "cref",
          "type": "bytes32"
        },
        {
          "internalType": "address",
          "name": "security",
          "type": "address"
        },
        {
          "internalType": "uint256",
          "name": "securityTraded",
          "type": "uint256"
        },
        {
          "internalType": "address",
          "name": "currency",
          "type": "address"
        },
        {
          "internalType": "uint256",
          "name": "currencyTraded",
          "type": "uint256"
        },
        {
          "internalType": "uint256",
          "name": "executionTime",
          "type": "uint256"
        }
      ],
      "name": "onTrade",
      "outputs": [],
      "stateMutability": "nonpayable",
      "type": "function"
    },
    {
      "inputs": [
        {
          "internalType": "address",
          "name": "security",
          "type": "address"
        },
        {
          "internalType": "address",
          "name": "currency",
          "type": "address"
        },
        {
          "internalType": "int256",
          "name": "financingBidPerSec",
          "type": "int256"
        },
        {
          "internalType": "int256",
          "name": "financingOfferPerSec",
          "type": "int256"
        },
        {
          "internalType": "int256",
          "name": "dividendBidPerSec",
          "type": "int256"
        },
        {
          "internalType": "int256",
          "name": "dividendOfferPerSec",
          "type": "int256"
        },
        {
          "internalType": "int256",
          "name": "swapLong",
          "type": "int256"
        },
        {
          "internalType": "int256",
          "name": "swapShort",
          "type": "int256"
        },
        {
          "internalType": "uint256",
          "name": "settlementTime",
          "type": "uint256"
        }
      ],
      "name": "onSettle",
      "outputs": [],
      "stateMutability": "nonpayable",
      "type": "function"
    },
    {
      "inputs": [
        {
          "internalType": "address",
          "name": "security",
          "type": "address"
        },
        {
          "internalType": "address",
          "name": "currency",
          "type": "address"
        },
        {
          "internalType": "uint256",
          "name": "amount",
          "type": "uint256"
        }
      ],
      "name": "withdraw",
      "outputs": [],
      "stateMutability": "nonpayable",
      "type": "function"
    },
    {
      "inputs": [
        {
          "internalType": "address",
          "name": "_token",
          "type": "address"
        }
      ],
      "name": "getTradingFeeCollected",
      "outputs": [
        {
          "internalType": "uint256",
          "name": "",
          "type": "uint256"
        }
      ],
      "stateMutability": "nonpayable",
      "type": "function"
    }
  ],
  "bytecode": "0x608060405234801561001057600080fd5b50600080546001600160a01b0319163390811782556040519091907f8be0079c531659141344cd1fd0a4f28419497f9722a3daafe3b4186f6b6457e0908290a36148fa8061005f6000396000f3fe608060405234801561001057600080fd5b506004361061010b5760003560e01c8063719dcf4a116100a2578063a55e866811610071578063a55e866814610203578063d9caed1214610216578063f2fde38b14610229578063f6c009271461023c578063f8c8765e1461025c5761010b565b8063719dcf4a146101b55780638da5cb5b146101c85780638dd14802146101dd57806397db1a92146101f05761010b565b806359e7e4b1116100de57806359e7e4b1146101745780636b0fd140146101875780636f943a091461019a578063715018a6146101ad5761010b565b806320f55dfe146101105780632b06b510146101255780632d91674614610138578063541af9d814610161575b600080fd5b61012361011e366004613f05565b61026f565b005b610123610133366004613e8b565b61057f565b61014b610146366004613dc0565b610b03565b604051610158919061451c565b60405180910390f35b61012361016f366004613fb9565b610c38565b610123610182366004614039565b611056565b6101236101953660046141ba565b611254565b61014b6101a8366004614196565b611ad9565b610123611b01565b6101236101c3366004613df8565b611b69565b6101d0612024565b60405161015891906143ea565b6101236101eb366004613dc0565b612033565b6101236101fe366004614039565b612061565b61014b610211366004613df8565b612246565b610123610224366004613f79565b612271565b610123610237366004613dc0565b612ad8565b61024f61024a366004614166565b612b56565b6040516101589190614511565b61012361026a366004613e30565b612b82565b6004805460405163e0a87de160e01b815233928c926000926001600160a01b039091169163e0a87de1916102a5918691016143ea565b60206040518083038186803b1580156102bd57600080fd5b505afa1580156102d1573d6000803e3d6000fd5b505050506040513d601f19601f820116820180604052508101906102f59190613ddc565b9050826001600160a01b0316816001600160a01b0316146103315760405162461bcd60e51b815260040161032890614655565b60405180910390fd5b60005b600e60008e6001600160a01b03166001600160a01b0316815260200190815260200160002060008d6001600160a01b03166001600160a01b03168152602001908152602001600020805490508110156105705761038f613c3b565b600e60008f6001600160a01b03166001600160a01b0316815260200190815260200160002060008e6001600160a01b03166001600160a01b0316815260200190815260200160002082815481106103e257fe5b90600052602060002090600702016040518060e00160405290816000820160009054906101000a90046001600160a01b03166001600160a01b03166001600160a01b031681526020016001820160009054906101000a90046001600160a01b03166001600160a01b03166001600160a01b031681526020016002820154815260200160038201548152602001600482015481526020016005820154815260200160068201548152505090506000600a600083600001516001600160a01b03166001600160a01b0316815260200190815260200160002060008f6001600160a01b03166001600160a01b031681526020019081526020016000205413156104fa576104fa81600001518f8f8e8d8d8c8860c00151612bea565b6000600a600083602001516001600160a01b03166001600160a01b0316815260200190815260200160002060008f6001600160a01b03166001600160a01b031681526020019081526020016000205413156105675761056781602001518f8f8f8e8c8c8860c00151612eee565b50600101610334565b50505050505050505050505050565b60095433906001600160a01b031681146105ab5760405162461bcd60e51b815260040161032890614629565b6105b3613c8d565b6001600160a01b038087166000908152600560209081526040808320888516845282529182902054825163ab63c60760e01b8152925193169263ab63c607926004808201939291829003018186803b15801561060e57600080fd5b505afa158015610622573d6000803e3d6000fd5b505050506040513d601f19601f820116820180604052508101906106469190613ddc565b6001600160a01b0316635778472a886040518263ffffffff1660e01b8152600401610671919061451c565b60a06040518083038186803b15801561068957600080fd5b505afa15801561069d573d6000803e3d6000fd5b505050506040513d601f19601f820116820180604052508101906106c19190614221565b6001600160a01b03808816600090815260056020908152604080832089851684528252808320548151631288bdb960e11b8152915195965092946107cb94610766948a949116926325117b729260048083019392829003018186803b15801561072957600080fd5b505afa15801561073d573d6000803e3d6000fd5b505050506040513d601f19601f82011682018060405250810190610761919061417e565b613100565b6001600160a01b03808a1660009081526005602090815260408083208b85168452825291829020548251635c1548fb60e01b815292516107c6948b94921692635c1548fb9260048082019391829003018186803b15801561072957600080fd5b613136565b90506107d9828b878461314f565b15610af757866001600160a01b03167f4f21132feec602e5e9588b602a7ede709b68eed293452dd8745c2c80cb3c3f118b8b8989898e4260405161082397969594939291906144b4565b60405180910390a2846001600160a01b031682600001516001600160a01b03161480156108655750896001600160a01b031682606001516001600160a01b0316145b156108ee576001600160a01b03808b166000908152600a602090815260408083209389168352929052205461089a90826131b7565b6001600160a01b038b81166000818152600a60209081526040808320948b168352939052829020839055905190916000805160206148a5833981519152916108e59189914290614725565b60405180910390a25b600080866001600160a01b031684600001516001600160a01b0316141561091957508a90508961093d565b886001600160a01b031684600001516001600160a01b0316141561093d57508990508a5b610945613c3b565b6040518060e00160405280846001600160a01b03168152602001836001600160a01b031681526020018a81526020018881526020018c815260200185815260200160008152509050600e60008b6001600160a01b03166001600160a01b031681526020019081526020016000206000896001600160a01b03166001600160a01b0316815260200190815260200160002081908060018154018082558091505060019003906000526020600020906007020160009091909190915060008201518160000160006101000a8154816001600160a01b0302191690836001600160a01b0316021790555060208201518160010160006101000a8154816001600160a01b0302191690836001600160a01b0316021790555060408201518160020155606082015181600301556080820151816004015560a0820151816005015560c0820151816006015550506001600e60008c6001600160a01b03166001600160a01b0316815260200190815260200160002060008a6001600160a01b03166001600160a01b031681526020019081526020016000208054905003601060008d8152602001908152602001600020819055505050505b50505050505050505050565b6003546000906001600160a01b03163314610b305760405162461bcd60e51b815260040161032890614682565b6001600160a01b038216600090815260086020526040902054610b5381806131eb565b6001600160a01b038085166000818152600860205260409081902093909355600354925163a9059cbb60e01b8152909263a9059cbb92610b9a9291169085906004016144f8565b602060405180830381600087803b158015610bb457600080fd5b505af1158015610bc8573d6000803e3d6000fd5b505050506040513d601f19601f82011682018060405250810190610bec9190614146565b50306001600160a01b03167feaad90c8664cdf61d60bd7ba6745a881fd1c38d9f4ff0b373b4365cdeeb0f9e88242604051610c28929190614837565b60405180910390a290505b919050565b6004805460405163e0a87de160e01b815233928d926000926001600160a01b039091169163e0a87de191610c6e918691016143ea565b60206040518083038186803b158015610c8657600080fd5b505afa158015610c9a573d6000803e3d6000fd5b505050506040513d601f19601f82011682018060405250810190610cbe9190613ddc565b9050826001600160a01b0316816001600160a01b031614610cf15760405162461bcd60e51b815260040161032890614655565b6040516370a0823160e01b815289906001600160a01b038f16906370a0823190610d1f9033906004016143ea565b60206040518083038186803b158015610d3757600080fd5b505afa158015610d4b573d6000803e3d6000fd5b505050506040513d601f19601f82011682018060405250810190610d6f919061417e565b10158015610df957506040516370a0823160e01b815287906001600160a01b038d16906370a0823190610da69033906004016143ea565b60206040518083038186803b158015610dbe57600080fd5b505afa158015610dd2573d6000803e3d6000fd5b505050506040513d601f19601f82011682018060405250810190610df6919061417e565b10155b610e155760405162461bcd60e51b8152600401610328906146b9565b6040516323b872dd60e01b81526001600160a01b038c16906323b872dd90610e4590339030908c906004016143fe565b602060405180830381600087803b158015610e5f57600080fd5b505af1158015610e73573d6000803e3d6000fd5b505050506040513d601f19601f82011682018060405250810190610e979190614146565b506040516323b872dd60e01b81526001600160a01b038e16906323b872dd90610ec890339030908e906004016143fe565b602060405180830381600087803b158015610ee257600080fd5b505af1158015610ef6573d6000803e3d6000fd5b505050506040513d601f19601f82011682018060405250810190610f1a9190614146565b508c6001600160a01b03166372e0f853600260009054906101000a90046001600160a01b03168b6040518363ffffffff1660e01b8152600401610f5e9291906144f8565b600060405180830381600087803b158015610f7857600080fd5b505af1158015610f8c573d6000803e3d6000fd5b50505050610f98613cbd565b604051806101400160405280604051806040016040528060138152602001722b32b934b334b2b2102837b7b6102a37b5b2b760691b81525081526020016040518060400160405280600381526020016215941560ea1b81525081526020018f6001600160a01b031681526020018e81526020018d6001600160a01b031681526020018c81526020018a8152602001888152602001878152602001868152509050611046818f8c8f8c33613201565b5050505050505050505050505050565b6040516323b872dd60e01b81526001600160a01b038416906323b872dd90611086903390309087906004016143fe565b602060405180830381600087803b1580156110a057600080fd5b505af11580156110b4573d6000803e3d6000fd5b505050506040513d601f19601f820116820180604052508101906110d89190614146565b5060006110e484613383565b90506110f0838261341e565b336000908152600a602090815260408083206001600160a01b038916845290915290205490935061112290849061342a565b336000818152600a602090815260408083206001600160a01b038a168452825280832094909455918152600d90915220546111a957600c80546001810182557fdf6966c971051c3d54ec59162606531493a51404a002842f56009d7e5cf4a8c70180546001600160a01b0319163390811790915590546000918252600d6020526040909120555b6001600160a01b03808316600090815260066020908152604080832054808452600b83528184209489168452939091529020546111e69085613136565b6000828152600b602090815260408083206001600160a01b038a168085529083528184209490945533808452600a835281842094845293909152908190205490516000805160206148a5833981519152916112459189919042906145fa565b60405180910390a25050505050565b60095433906001600160a01b031681146112805760405162461bcd60e51b815260040161032890614629565b841580159061128e57508215155b1561174f576001600160a01b038087166000908152600560209081526040808320888516845290915281205490916112c89116868661345e565b6001600160a01b0380891660009081526005602090815260408083208a85168452825280832054815163ab63c60760e01b815291519596509294929093169263ab63c6079260048083019392829003018186803b15801561132857600080fd5b505afa15801561133c573d6000803e3d6000fd5b505050506040513d601f19601f820116820180604052508101906113609190613ddc565b90506000866001600160a01b0316826001600160a01b0316635778472a8d6040518263ffffffff1660e01b815260040161139a919061451c565b60a06040518083038186803b1580156113b257600080fd5b505afa1580156113c6573d6000803e3d6000fd5b505050506040513d601f19601f820116820180604052508101906113ea9190614221565b516001600160a01b03161461147e57604051632bbc239560e11b81526001600160a01b03831690635778472a90611425908d9060040161451c565b60a06040518083038186803b15801561143d57600080fd5b505afa158015611451573d6000803e3d6000fd5b505050506040513d601f19601f820116820180604052508101906114759190614221565b606001516114ff565b604051632bbc239560e11b81526001600160a01b03831690635778472a906114aa908e9060040161451c565b60a06040518083038186803b1580156114c257600080fd5b505afa1580156114d6573d6000803e3d6000fd5b505050506040513d601f19601f820116820180604052508101906114fa9190614221565b606001515b60405163111303ab60e31b81529091506001600160a01b038316906388981d5890611536908e908e908d908c904290600401614561565b600060405180830381600087803b15801561155057600080fd5b505af1158015611564573d6000803e3d6000fd5b50505050611577828c8c8b8a8689613526565b60008b81526010602052604090205461158e613c3b565b6001600160a01b03808c166000908152600e60209081526040808320938d168352929052208054839081106115bf57fe5b90600052602060002090600702016040518060e00160405290816000820160009054906101000a90046001600160a01b03166001600160a01b03166001600160a01b031681526020016001820160009054906101000a90046001600160a01b03166001600160a01b03166001600160a01b03168152602001600282015481526020016003820154815260200160048201548152602001600582015481526020016006820154815250509050868160c0018181525050601060008d8152602001908152602001600020549150600e60008c6001600160a01b03166001600160a01b0316815260200190815260200160002060008a6001600160a01b03166001600160a01b0316815260200190815260200160002082815481106116dd57fe5b60009182526020918290206040805160e081018252600790930290910180546001600160a01b03908116845260018201541693830193909352600283015490820152600382015460608201526004820154608082015260059091015460a082015260c00187905250611acf9350505050565b611757613c3b565b6000898152601060209081526040808320546001600160a01b03808c168552600e8452828520908a16855290925290912080548290811061179457fe5b600091825260208083206040805160e081018252600790940290910180546001600160a01b0390811680865260018301548216868601526002830154868501526003830154606087015260048301546080870152600583015460a0870190815260069093015460c08701528652600a8452828620908c168652909252909220549151909350611823919061342a565b82516001600160a01b039081166000908152600a602090815260408083208b851680855290835281842095909555928c168252600e815282822093825292909252902080548290811061187257fe5b60009182526020808320600790920290910180546001600160a01b0319908116825560018201805490911690556002810183905560038101839055600481018390556005810183905560060182905583516001600160a01b03908116808452600a83526040808520928b168552919092529182902054915190916000805160206148a583398151915291611909918a914290614754565b60405180910390a2506000888152601060209081526040808320546001600160a01b03808c168552600e8452828520908a16855290925290912080548290811061194f57fe5b600091825260208083206040805160e081018252600790940290910180546001600160a01b0390811680865260018301548216868601526002830154868501526003830154606087015260048301546080870152600583015460a0870190815260069093015460c08701528652600a8452828620908c1686529092529092205491519093506119de919061342a565b82516001600160a01b039081166000908152600a602090815260408083208b851680855290835281842095909555928c168252600e8152828220938252929092529020805482908110611a2d57fe5b60009182526020808320600790920290910180546001600160a01b0319908116825560018201805490911690556002810183905560038101839055600481018390556005810183905560060182905583516001600160a01b03908116808452600a83526040808520928b168552919092529182902054915190916000805160206148a583398151915291611ac4918a914290614754565b60405180910390a250505b5050505050505050565b6000918252600b602090815260408084206001600160a01b0393909316845291905290205490565b611b1f33611b0d612024565b6001600160a01b0316146101aa613866565b600080546040516001600160a01b03909116907f8be0079c531659141344cd1fd0a4f28419497f9722a3daafe3b4186f6b6457e0908390a3600080546001600160a01b0319169055565b6004805460405163e0a87de160e01b8152339285926000926001600160a01b039091169163e0a87de191611b9f918691016143ea565b60206040518083038186803b158015611bb757600080fd5b505afa158015611bcb573d6000803e3d6000fd5b505050506040513d601f19601f82011682018060405250810190611bef9190613ddc565b9050826001600160a01b0316816001600160a01b031614611c225760405162461bcd60e51b815260040161032890614655565b6001600160a01b0380861660009081526006602052604090819020546002549151631f29a8cd60e31b81529092606092169063f94d466890611c6890859060040161451c565b60006040518083038186803b158015611c8057600080fd5b505afa158015611c94573d6000803e3d6000fd5b505050506040513d6000823e601f3d908101601f19168201604052611cbc919081019061407a565b505090506060611ccb82613878565b90506060825167ffffffffffffffff81118015611ce757600080fd5b50604051908082528060200260200182016040528015611d11578160200160208202803683370190505b509050611d1c613d28565b604051806080016040528084815260200183815260200160016000604051602001611d48929190614584565b60408051808303601f1901815291815290825260006020909201919091526002549051638bdb391360e01b81529192506001600160a01b031690638bdb391390611d9c908890309081908790600401614525565b600060405180830381600087803b158015611db657600080fd5b505af1158015611dca573d6000803e3d6000fd5b50505050847f56eadf552f1d54f8f73fbbf801097c1c4d7bb3d77d5ac2bebfd0a8151642d55a8b42604051611e009291906144f8565b60405180910390a2600085815260076020526040908190205490516370a0823160e01b81526001600160a01b03808c169263a9059cbb9291169083906370a0823190611e509030906004016143ea565b60206040518083038186803b158015611e6857600080fd5b505afa158015611e7c573d6000803e3d6000fd5b505050506040513d601f19601f82011682018060405250810190611ea0919061417e565b6040518363ffffffff1660e01b8152600401611ebd9291906144f8565b602060405180830381600087803b158015611ed757600080fd5b505af1158015611eeb573d6000803e3d6000fd5b505050506040513d601f19601f82011682018060405250810190611f0f9190614146565b50600085815260076020526040908190205490516370a0823160e01b81526001600160a01b03808d169263a9059cbb9291169083906370a0823190611f589030906004016143ea565b60206040518083038186803b158015611f7057600080fd5b505afa158015611f84573d6000803e3d6000fd5b505050506040513d601f19601f82011682018060405250810190611fa8919061417e565b6040518363ffffffff1660e01b8152600401611fc59291906144f8565b602060405180830381600087803b158015611fdf57600080fd5b505af1158015611ff3573d6000803e3d6000fd5b505050506040513d601f19601f820116820180604052508101906120179190614146565b5050505050505050505050565b6000546001600160a01b031690565b61203f33611b0d612024565b600980546001600160a01b0319166001600160a01b0392909216919091179055565b6004805460405163e0a87de160e01b8152339284926000926001600160a01b039091169163e0a87de191612097918691016143ea565b60206040518083038186803b1580156120af57600080fd5b505afa1580156120c3573d6000803e3d6000fd5b505050506040513d601f19601f820116820180604052508101906120e79190613ddc565b9050826001600160a01b0316816001600160a01b03161461211a5760405162461bcd60e51b815260040161032890614655565b6001600160a01b03808516600090815260066020908152604080832054808452600b8352818420948b1684529390915290205486111561216c5760405162461bcd60e51b8152600401610328906146f0565b6000818152600b602090815260408083206001600160a01b038b16845290915290205461219990876131eb565b6000828152600b602090815260408083206001600160a01b03808d168086529184528285209590955585845260079092529182902054915163a9059cbb60e01b8152909263a9059cbb926121f4929116908a906004016144f8565b602060405180830381600087803b15801561220e57600080fd5b505af1158015612222573d6000803e3d6000fd5b505050506040513d601f19601f82011682018060405250810190611acf9190614146565b6001600160a01b039182166000908152600a6020908152604080832093909416825291909152205490565b336000818152600d602052604090205461229d5760405162461bcd60e51b815260040161032890614655565b6001600160a01b038416600090815260066020526040812054905b6001600160a01b038087166000908152600e6020908152604080832093891683529290522054811015612ad0576122ed613c3b565b6001600160a01b038088166000908152600e60209081526040808320938a1683529290522080548390811061231e57fe5b60009182526020918290206040805160e081018252600790930290910180546001600160a01b039081168085526001830154909116948401949094526002810154918301919091526003810154606083015260048101546080830152600581015460a08301526006015460c08201529150331480156123c4575080516001600160a01b039081166000908152600a60209081526040808320938a16835292905290812054135b1561271b5780516001600160a01b039081166000908152600a60209081526040808320938a168352929052205485126125af5780516001600160a01b038181166000908152600a60209081526040808320938b16808452939091529081902054905163a9059cbb60e01b8152919263a9059cbb9261244592906004016144f8565b602060405180830381600087803b15801561245f57600080fd5b505af1158015612473573d6000803e3d6000fd5b505050506040513d601f19601f820116820180604052508101906124979190614146565b506000838152600b602090815260408083206001600160a01b03808b168086529184528285205486519091168552600a84528285209185529252909120546124df91906131eb565b6000848152600b602090815260408083206001600160a01b03808c16808652918452828520959095558551909416808452600a835281842094845293909152908190205490516000805160206148a583398151915291612543918a919042906145c7565b60405180910390a280516001600160a01b039081166000908152600a60209081526040808320938a168352929052205461257e9086906131eb565b81516001600160a01b039081166000908152600a60209081526040808320938b168352929052908120559450612716565b805160405163a9059cbb60e01b81526001600160a01b0388169163a9059cbb916125de919089906004016144f8565b602060405180830381600087803b1580156125f857600080fd5b505af115801561260c573d6000803e3d6000fd5b505050506040513d601f19601f820116820180604052508101906126309190614146565b506000838152600b602090815260408083206001600160a01b038a16845290915290205461265e90866131eb565b6000848152600b602090815260408083206001600160a01b03808c16855292529182902092909255825190519116906000805160206148a5833981519152906126ac908990899042906145c7565b60405180910390a280516001600160a01b039081166000908152600a60209081526040808320938a16835292905220546126e690866131b7565b81516001600160a01b039081166000908152600a60209081526040808320938b1683529290529081209190915594505b612ac7565b60208101516001600160a01b03163314801561275f57506020808201516001600160a01b039081166000908152600a83526040808220928a16825291909252812054135b15612ac7576020808201516001600160a01b039081166000908152600a83526040808220928a168252919092529020548512612957576020808201516001600160a01b038181166000908152600a84526040808220928b168083529290945283902054925163a9059cbb60e01b8152909263a9059cbb926127e5929091906004016144f8565b602060405180830381600087803b1580156127ff57600080fd5b505af1158015612813573d6000803e3d6000fd5b505050506040513d601f19601f820116820180604052508101906128379190614146565b506000838152600b602090815260408083206001600160a01b03808b1680865291845282852054868501519091168552600a845282852091855292529091205461288191906131eb565b6000848152600b602090815260408083206001600160a01b03808c168086529184528285209590955585830151909416808452600a835281842094845293909152908190205490516000805160206148a5833981519152916128e7918a919042906145c7565b60405180910390a26020808201516001600160a01b039081166000908152600a83526040808220928a168252919092529020546129259086906131eb565b6020808301516001600160a01b039081166000908152600a83526040808220928b168252919092528120559450612ac7565b602081015160405163a9059cbb60e01b81526001600160a01b0388169163a9059cbb91612989919089906004016144f8565b602060405180830381600087803b1580156129a357600080fd5b505af11580156129b7573d6000803e3d6000fd5b505050506040513d601f19601f820116820180604052508101906129db9190614146565b506000838152600b602090815260408083206001600160a01b038a168452909152902054612a0990866131eb565b6000848152600b602090815260408083206001600160a01b03808c168552908352928190209390935583015191519116906000805160206148a583398151915290612a59908990899042906145c7565b60405180910390a26020808201516001600160a01b039081166000908152600a83526040808220928a16825291909252902054612a9690866131b7565b6020808301516001600160a01b039081166000908152600a83526040808220928b1682529190925281209190915594505b506001016122b8565b505050505050565b612ae433611b0d612024565b612afb6001600160a01b03821615156101ab613866565b600080546040516001600160a01b03808516939216917f8be0079c531659141344cd1fd0a4f28419497f9722a3daafe3b4186f6b6457e091a3600080546001600160a01b0319166001600160a01b0392909216919091179055565b6000818152600760205260408120546001600160a01b0316612b7a57506000610c33565b506001610c33565b612b8e33611b0d612024565b600180546001600160a01b03199081166001600160a01b03968716179091556002805482169486169490941790935560048054841692851692909217909155600380548316919093161790915560098054339216919091179055565b6000851315612c59576001600160a01b038089166000908152600a60209081526040808320938a1683529290522054612c2e90612c2784846131eb565b87026131b7565b6001600160a01b03808a166000908152600a60209081526040808320938b1683529290522055612cc4565b6000851215612cc4576001600160a01b038089166000908152600a60209081526040808320938a1683529290522054612c9d90612c9684846131eb565b870261342a565b6001600160a01b03808a166000908152600a60209081526040808320938b16835292905220555b6000841315612d33576001600160a01b038089166000908152600a60209081526040808320938a1683529290522054612d0890612d0184846131eb565b86026131b7565b6001600160a01b03808a166000908152600a60209081526040808320938b1683529290522055612d9e565b6000841215612d9e576001600160a01b038089166000908152600a60209081526040808320938a1683529290522054612d7790612d7084846131eb565b860261342a565b6001600160a01b03808a166000908152600a60209081526040808320938b16835292905220555b6000831315612e0d576001600160a01b038089166000908152600a60209081526040808320938a1683529290522054612de290612ddb84846131eb565b85026131b7565b6001600160a01b03808a166000908152600a60209081526040808320938b1683529290522055612e78565b6000831215612e78576001600160a01b038089166000908152600a60209081526040808320938a1683529290522054612e5190612e4a84846131eb565b850261342a565b6001600160a01b03808a166000908152600a60209081526040808320938b16835292905220555b876001600160a01b03167ff76f10f0e1a4d96de83e72f10dc6773179bdcf79f2ba735893488e0913d999598888612eaf86866131eb565b8902612ebb87876131eb565b8902612ec788886131eb565b890242604051612edc96959493929190614422565b60405180910390a25050505050505050565b6000851315612f56576001600160a01b038089166000908152600a60209081526040808320938a1683529290522054612f2b90612c9684846131eb565b6001600160a01b03808a166000908152600a60209081526040808320938b1683529290522055612fba565b6000851215612fba576001600160a01b038089166000908152600a60209081526040808320938a1683529290522054612f9390612c2784846131eb565b6001600160a01b03808a166000908152600a60209081526040808320938b16835292905220555b6000841315613022576001600160a01b038089166000908152600a60209081526040808320938a1683529290522054612ff790612d7084846131eb565b6001600160a01b03808a166000908152600a60209081526040808320938b1683529290522055613086565b6000841215613086576001600160a01b038089166000908152600a60209081526040808320938a168352929052205461305f90612d0184846131eb565b6001600160a01b03808a166000908152600a60209081526040808320938b16835292905220555b60008313156130c3576001600160a01b038089166000908152600a60209081526040808320938a1683529290522054612de290612e4a84846131eb565b6000831215612e78576001600160a01b038089166000908152600a60209081526040808320938a1683529290522054612e5190612ddb84846131eb565b600082820261312484158061311d57508385838161311a57fe5b04145b6003613866565b670de0b6b3a764000090049392505050565b60008282016131488482101583613866565b9392505050565b6000826001600160a01b031685600001516001600160a01b031614156131ab576001600160a01b038085166000908152600a602090815260408083209387168352929052205482136131a3575060016131af565b5060006131af565b5060015b949350505050565b60008183036131488284128015906131cf5750848213155b806131e457506000841280156131e457508482135b6001613866565b60006131fb838311156001613866565b50900390565b6001546040516304f9d33f60e11b81526001600160a01b03909116906309f3a67e90613231908990600401614783565b602060405180830381600087803b15801561324b57600080fd5b505af115801561325f573d6000803e3d6000fd5b505050506040513d601f19601f820116820180604052508101906132839190613ddc565b6001600160a01b0386811660009081526005602090815260408083208885168452825280832080546001600160a01b0319169585169590951794859055805163038fff2d60e41b815290519294909316926338fff2d09260048083019392829003018186803b1580156132f557600080fd5b505afa158015613309573d6000803e3d6000fd5b505050506040513d601f19601f8201168201806040525081019061332d919061417e565b6001600160a01b0387811660009081526006602090815260408083208590558483526007909152902080546001600160a01b031916918516919091179055905061337a868587868561387b565b50505050505050565b600080826001600160a01b031663313ce5676040518163ffffffff1660e01b815260040160206040518083038186803b1580156133bf57600080fd5b505afa1580156133d3573d6000803e3d6000fd5b505050506040513d601f19601f820116820180604052508101906133f7919061429b565b60ff16905060006134096012836131eb565b600a0a670de0b6b3a764000002949350505050565b60006131488383613100565b60008282016131488284128015906134425750848212155b80613457575060008412801561345757508482125b6000613866565b600080846001600160a01b031663ced72f876040518163ffffffff1660e01b815260040160206040518083038186803b15801561349a57600080fd5b505afa1580156134ae573d6000803e3d6000fd5b505050506040513d601f19601f820116820180604052508101906134d2919061417e565b90506134de8382613100565b6001600160a01b0385166000908152600860205260409020549091506135049082613136565b6001600160a01b03851660009081526008602052604090205590509392505050565b866001600160a01b03166338fff2d06040518163ffffffff1660e01b815260040160206040518083038186803b15801561355f57600080fd5b505afa158015613573573d6000803e3d6000fd5b505050506040513d601f19601f82011682018060405250810190613597919061417e565b7fbe8183e0bf67f74150edc1b1b2ff1b35ca15cb451161a42e3c428c208c46f38f836001600160a01b0316896001600160a01b0316635778472a8a6040518263ffffffff1660e01b81526004016135ee919061451c565b60a06040518083038186803b15801561360657600080fd5b505afa15801561361a573d6000803e3d6000fd5b505050506040513d601f19601f8201168201806040525081019061363e9190614221565b606001516001600160a01b0316146136d557604051632bbc239560e11b81526001600160a01b038a1690635778472a9061367c908b9060040161451c565b60a06040518083038186803b15801561369457600080fd5b505afa1580156136a8573d6000803e3d6000fd5b505050506040513d601f19601f820116820180604052508101906136cc9190614221565b60600151613756565b604051632bbc239560e11b81526001600160a01b038a1690635778472a90613701908a9060040161451c565b60a06040518083038186803b15801561371957600080fd5b505afa15801561372d573d6000803e3d6000fd5b505050506040513d601f19601f820116820180604052508101906137519190614221565b606001515b84878b6001600160a01b0316632541897f6040518163ffffffff1660e01b815260040160206040518083038186803b15801561379157600080fd5b505afa1580156137a5573d6000803e3d6000fd5b505050506040513d601f19601f820116820180604052508101906137c99190613ddc565b8c6001600160a01b0316636945c1fd6040518163ffffffff1660e01b815260040160206040518083038186803b15801561380257600080fd5b505afa158015613816573d6000803e3d6000fd5b505050506040513d601f19601f8201168201806040525081019061383a9190613ddc565b898c8e8a426040516138559a99989796959493929190614458565b60405180910390a250505050505050565b816138745761387481613be8565b5050565b90565b600254604051631f29a8cd60e31b81526060916001600160a01b03169063f94d4668906138ac90859060040161451c565b60006040518083038186803b1580156138c457600080fd5b505afa1580156138d8573d6000803e3d6000fd5b505050506040513d6000823e601f3d908101601f19168201604052613900919081019061407a565b50509050606061390f82613878565b90506060825167ffffffffffffffff8111801561392b57600080fd5b50604051908082528060200260200182016040528015613955578160200160208202803683370190505b5060025460405163095ea7b360e01b81529192506001600160a01b03808a169263095ea7b39261398b92169089906004016144f8565b602060405180830381600087803b1580156139a557600080fd5b505af11580156139b9573d6000803e3d6000fd5b505050506040513d601f19601f820116820180604052508101906139dd9190614146565b5060025460405163095ea7b360e01b81526001600160a01b038a81169263095ea7b392613a1292909116908a906004016144f8565b602060405180830381600087803b158015613a2c57600080fd5b505af1158015613a40573d6000803e3d6000fd5b505050506040513d601f19601f82011682018060405250810190613a649190614146565b5060005b8351811015613b3257886001600160a01b0316848281518110613a8757fe5b60200260200101516001600160a01b03161415613abc5786828281518110613aab57fe5b602002602001018181525050613b2a565b876001600160a01b0316848281518110613ad257fe5b60200260200101516001600160a01b03161415613af65785828281518110613aab57fe5b613b116dffffffffffffffffffffffffffff620f42406131eb565b828281518110613b1d57fe5b6020026020010181815250505b600101613a68565b50613b3b613d28565b6040518060800160405280848152602001838152602001600084604051602001613b669291906145a4565b60408051808303601f190181529181529082526000602090920191909152600254905163172b958560e31b81529192506001600160a01b03169063b95cac2890613bba908890309081908790600401614525565b600060405180830381600087803b158015613bd457600080fd5b505af1158015610570573d6000803e3d6000fd5b62461bcd60e51b6000908152602060045260076024526642414c23000030600a808404818106603090810160081b95839006959095019082900491820690940160101b939093010160c81b604452606490fd5b6040518060e0016040528060006001600160a01b0316815260200160006001600160a01b0316815260200160008152602001600081526020016000801916815260200160008152602001600081525090565b6040805160a081019091526000808252602082019081526020016000815260006020820181905260409091015290565b604051806101400160405280606081526020016060815260200160006001600160a01b031681526020016000801916815260200160006001600160a01b0316815260200160008019168152602001600081526020016000815260200160008152602001600081525090565b60405180608001604052806060815260200160608152602001606081526020016000151581525090565b600082601f830112613d62578081fd5b8151613d75613d708261486c565b614845565b818152915060208083019084810181840286018201871015613d9657600080fd5b60005b84811015613db557815184529282019290820190600101613d99565b505050505092915050565b600060208284031215613dd1578081fd5b81356131488161488c565b600060208284031215613ded578081fd5b81516131488161488c565b60008060408385031215613e0a578081fd5b8235613e158161488c565b91506020830135613e258161488c565b809150509250929050565b60008060008060808587031215613e45578182fd5b8435613e508161488c565b93506020850135613e608161488c565b92506040850135613e708161488c565b91506060850135613e808161488c565b939692955090935050565b600080600080600080600060e0888a031215613ea5578283fd5b8735613eb08161488c565b96506020880135613ec08161488c565b9550604088013594506060880135613ed78161488c565b93506080880135925060a0880135613eee8161488c565b8092505060c0880135905092959891949750929550565b60008060008060008060008060006101208a8c031215613f23578182fd5b8935613f2e8161488c565b985060208a0135613f3e8161488c565b989b989a505050506040870135966060810135966080820135965060a0820135955060c0820135945060e08201359350610100909101359150565b600080600060608486031215613f8d578081fd5b8335613f988161488c565b92506020840135613fa88161488c565b929592945050506040919091013590565b6000806000806000806000806000806101408b8d031215613fd8578384fd5b8a35613fe38161488c565b995060208b0135985060408b0135613ffa8161488c565b999c989b5098996060810135995060808101359860a0820135985060c0820135975060e082013596506101008201359550610120909101359350915050565b60008060006060848603121561404d578081fd5b83356140588161488c565b925060208401359150604084013561406f8161488c565b809150509250925092565b60008060006060848603121561408e578081fd5b835167ffffffffffffffff808211156140a5578283fd5b818601915086601f8301126140b8578283fd5b81516140c6613d708261486c565b80828252602080830192508086018b8283870289010111156140e6578788fd5b8796505b848710156141115780516140fd8161488c565b8452600196909601959281019281016140ea565b508901519097509350505080821115614128578283fd5b5061413586828701613d52565b925050604084015190509250925092565b600060208284031215614157578081fd5b81518015158114613148578182fd5b600060208284031215614177578081fd5b5035919050565b60006020828403121561418f578081fd5b5051919050565b600080604083850312156141a8578182fd5b823591506020830135613e258161488c565b600080600080600080600060e0888a0312156141d4578081fd5b873596506020880135955060408801356141ed8161488c565b94506060880135935060808801356142048161488c565b9699959850939692959460a0840135945060c09093013592915050565b600060a08284031215614232578081fd5b61423c60a0614845565b82516142478161488c565b815260208301516003811061425a578283fd5b6020820152604083015160058110614270578283fd5b604082015260608301516142838161488c565b60608201526080928301519281019290925250919050565b6000602082840312156142ac578081fd5b815160ff81168114613148578182fd5b6001600160a01b03169052565b6000815180845260208085019450808401835b838110156142f8578151875295820195908201906001016142dc565b509495945050505050565b15159052565b60008151808452815b8181101561432e57602081850181015186830182015201614312565b8181111561433f5782602083870101525b50601f01601f19169290920160200192915050565b8051608080845281519084018190526000916020919082019060a0860190845b818110156143995783516001600160a01b031683529284019291840191600101614374565b5050828501519150858103838701526143b281836142c9565b92505050604083015184820360408601526143cd8282614309565b91505060608301516143e26060860182614303565b509392505050565b6001600160a01b0391909116815260200190565b6001600160a01b039384168152919092166020820152604081019190915260600190565b6001600160a01b03968716815294909516602085015260408401929092526060830152608082015260a081019190915260c00190565b6001600160a01b039a8b168152988a1660208a01526040890197909752948816606088015292909616608086015260a085015260c084019490945260e08301939093526101008201929092526101208101919091526101400190565b6001600160a01b03978816815295871660208701526040860194909452919094166060840152608083019390935260a082019290925260c081019190915260e00190565b6001600160a01b03929092168252602082015260400190565b901515815260200190565b90815260200190565b8481526001600160a01b0384811660208301528316604082015260806060820181905260009061455790830184614354565b9695505050505050565b948552602085019390935260408401919091526060830152608082015260a00190565b604081016002841061459257fe5b92815260ff9190911660209091015290565b6000600484106145b057fe5b838252604060208301526131af60408301846142c9565b681dda5d1a191c985ddb60ba1b81526001600160a01b039390931660208401526040830191909152606082015260800190565b6437b33332b960d91b81526001600160a01b039390931660208401526040830191909152606082015260800190565b6020808252601290820152714f6e6c79204272696467652061636365737360701b604082015260600190565b602080825260139082015272556e617574686f72697a65642061636365737360681b604082015260600190565b6020808252601f908201527f556e617574686f72697a656420636f6c6c656374696f6e207265717565737400604082015260600190565b60208082526019908201527f4e6f2062616c616e636520746f2063726561746520706f6f6c00000000000000604082015260600190565b6020808252818101527f496e73756666696369656e7420636f6c6c61746572616c20666f7220706f6f6c604082015260600190565b640dac2e8c6d60db1b81526001600160a01b039390931660208401526040830191909152606082015260800190565b64747261646560d81b81526001600160a01b039390931660208401526040830191909152606082015260800190565b60006020825282516101408060208501526147a2610160850183614309565b91506020850151601f198584030160408601526147bf8382614309565b92505060408501516147d460608601826142bc565b506060850151608085015260808501516147f160a08601826142bc565b5060a085015160c085015260c085015160e085015260e0850151610100818187015280870151915050610120818187015280870151838701525050508091505092915050565b918252602082015260400190565b60405181810167ffffffffffffffff8111828210171561486457600080fd5b604052919050565b600067ffffffffffffffff821115614882578081fd5b5060209081020190565b6001600160a01b03811681146148a157600080fd5b5056fe9729135f54e0b4d82a83f156404c915e7232ec9706f1de0aea769af82cc1f8eaa26469706673582212203b494e1b47f710fa5ab3cf8ac3a08590254b2a761013d9a5111d2a2d83dfebe464736f6c63430007010033",
  "immutableReferences": {},
  "source": "// Manager for creating margin trading pools\r\n// (c) Kallol Borah, 2023\r\n// \"SPDX-License-Identifier: BUSL1.1\"\r\n\r\npragma solidity 0.7.1;\r\npragma experimental ABIEncoderV2;\r\n\r\nimport \"./interfaces/IFactory.sol\";\r\nimport \"./interfaces/ISecurity.sol\";\r\nimport \"./interfaces/IMarginOrder.sol\";\r\nimport \"./interfaces/IMarginManager.sol\";\r\nimport \"./interfaces/IMarginTradingPool.sol\";\r\nimport \"./interfaces/IMarginTradingPoolFactory.sol\";\r\n\r\nimport '@balancer-labs/v2-vault/contracts/interfaces/IAsset.sol';\r\nimport '@balancer-labs/v2-vault/contracts/interfaces/IVault.sol';\r\n\r\nimport \"@balancer-labs/v2-solidity-utils/contracts/math/Math.sol\";\r\nimport \"@balancer-labs/v2-solidity-utils/contracts/math/FixedPoint.sol\";\r\nimport \"@balancer-labs/v2-solidity-utils/contracts/openzeppelin/ERC20.sol\";\r\nimport \"@balancer-labs/v2-solidity-utils/contracts/openzeppelin/IERC20.sol\";\r\nimport \"@balancer-labs/v2-solidity-utils/contracts/openzeppelin/Ownable.sol\";\r\n\r\ncontract MarginIssueManager is IMarginManager, Ownable {\r\n\r\n    using Math for *;\r\n\r\n    // balancer variables\r\n    address private _poolFactory;    \r\n\r\n    address private _vault;\r\n\r\n    address private _distribution;\r\n\r\n    IFactory private _securityFactory;\r\n\r\n    uint256 private constant _INITIAL_BPT_SUPPLY = 2**(112) - 1;\r\n    uint256 private constant _DEFAULT_MINIMUM_BPT = 1e6;\r\n\r\n    //mapping security address to currency address to pool address\r\n    mapping(address => mapping(address => address)) private pools;\r\n\r\n    //mapping security token to pool id traded\r\n    mapping(address => bytes32) private poolSecurity;\r\n\r\n    //mapping pool id to issuer\r\n    mapping(bytes32 => address) private issuer;\r\n\r\n    //mapping token address to issuing fee collected\r\n    mapping(address => uint256) private fees;\r\n\r\n    //bridge \r\n    address private _bridge;\r\n\r\n    //positions mapping trader address to collateral address to positive/negative balance (true for +ve, false for -ve) amount\r\n    mapping(address => mapping(address => int256)) private collateralBalance;\r\n\r\n    //mapping pool id to cash token to collateral amount\r\n    mapping(bytes32 => mapping(address => uint256)) private collateralAmount;\r\n\r\n    //traders\r\n    address[] private traders;\r\n    mapping(address => uint256) private traderIndex;    \r\n\r\n    //positions mapping security to currency to array of trade positions\r\n    mapping(address => mapping(address => IMarginManager.tradePosition[])) private positions;\r\n\r\n    //position balances mapping buy (security or currency) to sell (security or currency) \r\n    mapping(address => mapping(address => uint256)) private positionBalance;\r\n    \r\n    //mapping order ref to index of position in positions array\r\n    mapping(bytes32 => uint256) private orders;\r\n\r\n    event tradeSettled( \r\n                        bytes32 indexed poolid,\r\n                        address transferor,\r\n                        address transferee,\r\n                        uint256 unitsToTransfer,\r\n                        address security,\r\n                        address currency,                        \r\n                        uint256 amountPaid,\r\n                        bytes32 cref,\r\n                        bytes32 ref,\r\n                        uint256 fee,\r\n                        uint256 timestamp\r\n                    );\r\n\r\n    event subscribers(address party, address counterparty, address indexed securityTraded, uint256 securityAmount, \r\n                        address currencySettled, uint256 cashAmount, bytes32 orderRef, uint256 timestamp);\r\n\r\n    event closures(bytes32 indexed poolId, address security, uint256 timestamp);\r\n    event feecollection(address indexed platform, uint256 collection, uint256 timestamp);\r\n\r\n    event collateral(bytes32 action, address indexed user, address currency, int256 balance, uint256 offerTime);\r\n    event PnLSettled(address indexed user, address security, address currency, int256 financing, int256 dividend, int256 commission, uint256 settlementTime);\r\n\r\n    modifier onlyIssueManager(address sender, address security){\r\n        address DP = _securityFactory.getDP(security);\r\n        require(DP==sender, \"Unauthorized access\");\r\n        _;\r\n    }\r\n\r\n    modifier onlyTrader(address sender){\r\n        require(traderIndex[sender]!=0, \"Unauthorized access\");\r\n        _;\r\n    }\r\n\r\n    modifier onlyBridge(address sender){\r\n        require(sender==_bridge, \"Only Bridge access\");\r\n        _;\r\n    } \r\n\r\n    function initialize(address poolFactory, address vault, address securityFactory, address distribution) public onlyOwner {\r\n        _poolFactory = poolFactory;\r\n        _vault = vault;\r\n        _securityFactory = IFactory(securityFactory);\r\n        _distribution = distribution;\r\n        _bridge = msg.sender;\r\n    }\r\n\r\n    function setBridge(address bridge) public onlyOwner {\r\n        _bridge = bridge;\r\n    }\r\n\r\n    function getPool(bytes32 poolId) external override view returns(bool){\r\n        if(issuer[poolId]==address(0x0)) \r\n            return false;\r\n        else\r\n            return true;\r\n    }\r\n\r\n    function issueProduct(address security, bytes32 securityType, address currency, bytes32 cficode, uint256 securityAmount, uint256 minimumOrderSize, uint256 cashAmount,\r\n                                uint256 margin, uint256 collateralAmnt, uint256 tradeFee) override external onlyIssueManager(msg.sender, security) {\r\n        require(IERC20(security).balanceOf(msg.sender)>=securityAmount && \r\n                IERC20(currency).balanceOf(msg.sender)>=cashAmount, \"No balance to create pool\");\r\n        ERC20(currency).transferFrom(msg.sender, address(this), cashAmount);\r\n        ERC20(security).transferFrom(msg.sender, address(this), securityAmount);  \r\n        ISecurity(security).whiteList(_vault, securityAmount);      \r\n        IMarginTradingPoolFactory.FactoryPoolParams memory poolparams = IMarginTradingPoolFactory.FactoryPoolParams({\r\n            name : \"Verified Pool Token\",\r\n            symbol : \"VPT\",\r\n            security : security,\r\n            securityType: securityType,\r\n            currency : currency,\r\n            cficode: cficode,\r\n            minOrderSize : minimumOrderSize,\r\n            margin : margin,\r\n            collateral: collateralAmnt,\r\n            tradeFeePercentage : tradeFee\r\n        });    \r\n        createPool(poolparams, security, securityAmount, currency, cashAmount, msg.sender);        \r\n    }\r\n\r\n    function createPool(IMarginTradingPoolFactory.FactoryPoolParams memory poolparams, address security, uint256 securityAmount, address currency, uint256 cashAmount, address creator) private {\r\n        pools[security][currency] = IMarginTradingPoolFactory(_poolFactory).create(poolparams);   \r\n        bytes32 poolId = IMarginTradingPool(pools[security][currency]).getPoolId();  \r\n        poolSecurity[security] = poolId; \r\n        issuer[poolId] = creator;\r\n        joinPool(security, currency, securityAmount, cashAmount, poolId);\r\n    }\r\n\r\n    function joinPool(address security, address currency, uint256 securityAmount, uint256 cashAmount, bytes32 poolId) private {\r\n        // join the pool here                \r\n        (IERC20[] memory tokens, , ) = IVault(_vault).getPoolTokens(poolId);\r\n        IAsset[] memory assets = _convertERC20sToAssets(tokens);\r\n        uint256[] memory maxAmountsIn = new uint256[](tokens.length);\r\n        ERC20(currency).approve(_vault, cashAmount);\r\n        ERC20(security).approve(_vault, securityAmount);\r\n        for(uint256 t; t < tokens.length; t++) {\r\n            if(tokens[t]==IERC20(security))\r\n                maxAmountsIn[t] = securityAmount;\r\n            else if(tokens[t]==IERC20(currency))\r\n                maxAmountsIn[t] = cashAmount;\r\n            else \r\n                maxAmountsIn[t] = Math.sub(_INITIAL_BPT_SUPPLY, _DEFAULT_MINIMUM_BPT);\r\n        }\r\n        IVault.JoinPoolRequest memory request = IVault.JoinPoolRequest({\r\n            assets: assets,\r\n            maxAmountsIn: maxAmountsIn,\r\n            userData: abi.encode(JoinKind.INIT, maxAmountsIn),\r\n            fromInternalBalance: false\r\n        });         \r\n        IVault(_vault).joinPool(poolId, address(this), address(this), request);\r\n    }\r\n\r\n    function close(address security, address currency) override external onlyIssueManager(msg.sender, security) {\r\n        //address currency = IMarginTradingPool(pools[security][currency]).getCurrency(); \r\n        // exit the pool here   \r\n        bytes32 poolId = poolSecurity[security];\r\n        (IERC20[] memory tokens, , ) = IVault(_vault).getPoolTokens(poolId);\r\n        IAsset[] memory assets = _convertERC20sToAssets(tokens);\r\n        uint256[] memory amountsOut = new uint256[](tokens.length);\r\n        IVault.ExitPoolRequest memory request = IVault.ExitPoolRequest({\r\n            assets: assets,\r\n            minAmountsOut: amountsOut,\r\n            userData: abi.encode(ExitKind.EXACT_BPT_IN_FOR_TOKENS_OUT, 0),\r\n            toInternalBalance: false\r\n        });         \r\n        IVault(_vault).exitPool(poolId, address(this), payable(address(this)), request);\r\n        emit closures(poolId, security, block.timestamp);\r\n        IERC20(currency).transfer(issuer[poolId], IERC20(currency).balanceOf(address(this)));\r\n        IERC20(security).transfer(issuer[poolId], IERC20(security).balanceOf(address(this)));\r\n    }\r\n    \r\n    function offerCollateral(address cashToken, uint256 amount, address security) override external {\r\n        IERC20(cashToken).transferFrom(msg.sender, address(this), amount);\r\n        uint256 scalingFactor = _computeScalingFactor(IERC20(cashToken));\r\n        amount = _upscale(amount, scalingFactor);\r\n        collateralBalance[msg.sender][cashToken] = Math.add(int(amount), collateralBalance[msg.sender][cashToken]);\r\n        if(traderIndex[msg.sender]==0){\r\n            traders.push(msg.sender);\r\n            traderIndex[msg.sender] = traders.length;\r\n        }\r\n        bytes32 poolId = poolSecurity[security];\r\n        collateralAmount[poolId][cashToken] = Math.add(collateralAmount[poolId][cashToken], amount);\r\n        emit collateral(\"offer\", msg.sender, cashToken, collateralBalance[msg.sender][cashToken], block.timestamp);\r\n    }\r\n\r\n    function sendCollateral(address cashToken, uint256 amount, address security) override external onlyIssueManager(msg.sender, security){\r\n        bytes32 poolId = poolSecurity[security];\r\n        require(collateralAmount[poolId][cashToken] >= amount, \"Insufficient collateral for pool\");\r\n        collateralAmount[poolId][cashToken] = Math.sub(collateralAmount[poolId][cashToken], amount);\r\n        IERC20(cashToken).transfer(issuer[poolId], amount);\r\n    }\r\n\r\n    function getCollateral(bytes32 poolId, address currency) external override view returns(uint256){\r\n        return collateralAmount[poolId][currency];\r\n    }\r\n\r\n    function getUserCollateral(address party, address currency) external override view returns(int256){\r\n        return collateralBalance[party][currency];\r\n    }\r\n    \r\n    function onMatch(address party, address counterparty, bytes32 orderRef, address security, uint256 securityTraded, address currency, uint256 cashTraded) external \r\n                            override onlyBridge(msg.sender) {\r\n        IMarginOrder.order memory order = IMarginOrder(IMarginTradingPool(pools[security][currency]).getOrderbook()).getOrder(orderRef);\r\n        uint256 marginCollateral = Math.add(FixedPoint.mulDown(cashTraded, IMarginTradingPool(pools[security][currency]).getMargin()),\r\n                                            FixedPoint.mulDown(cashTraded, IMarginTradingPool(pools[security][currency]).getCollateral()));\r\n        //for security traded in by counterparty, party is trading in cash to buy security, so margin collateral needs to be checked        \r\n        if(pretradeCheck(order, party, currency, marginCollateral)){   \r\n            emit subscribers(party, counterparty, security, securityTraded, currency, cashTraded, orderRef, block.timestamp);\r\n            if(order.tokenIn==currency && order.party==party){\r\n                collateralBalance[party][currency] = Math.sub(collateralBalance[party][currency], int(marginCollateral));\r\n                emit collateral(\"match\", party, currency, collateralBalance[party][currency], block.timestamp);\r\n            }\r\n            //record trade position\r\n            address buyer;\r\n            address seller;\r\n            if(order.tokenIn==currency){ //buy order\r\n                buyer = party;\r\n                seller = counterparty;\r\n            }\r\n            else if(order.tokenIn==security){ //sell order\r\n                buyer = counterparty;\r\n                seller = party;\r\n            }\r\n            IMarginManager.tradePosition memory position = IMarginManager.tradePosition({\r\n                //buyer : order.tokenIn==currency && order.party==party ? party : counterparty,\r\n                //seller : order.tokenIn==security && order.party==counterparty ? counterparty : party,\r\n                buyer : buyer,\r\n                seller : seller,\r\n                securityAmount : securityTraded,\r\n                cashAmount : cashTraded,\r\n                orderReference : orderRef,\r\n                marginCollateral : marginCollateral,\r\n                timestamp : 0\r\n            });\r\n            positions[security][currency].push(position);\r\n            orders[orderRef] = positions[security][currency].length - 1;\r\n        }\r\n    }\r\n    \r\n    function pretradeCheck(IMarginOrder.order memory order, address party, address currency, uint256 marginCollateral) private view returns(bool){\r\n        if(order.tokenIn==currency){\r\n            if(collateralBalance[party][currency] >= int(marginCollateral))\r\n                return true;\r\n            else\r\n                return false;\r\n        }\r\n        return true;\r\n    }\r\n\r\n    function onTrade(bytes32 ref, bytes32 cref, address security, uint256 securityTraded, address currency, uint256 currencyTraded, uint256 executionTime) external override onlyBridge(msg.sender) {\r\n        if(securityTraded!=0 && currencyTraded!=0){ //if trade execution is successful, report trade and update timestamp\r\n            uint256 pay = calculateFee(pools[security][currency], currency, currencyTraded);\r\n            address orderbook = IMarginTradingPool(pools[security][currency]).getOrderbook();\r\n            address party = IMarginOrder(orderbook).getOrder(ref).tokenIn==currency ? \r\n                                        IMarginOrder(orderbook).getOrder(ref).party :\r\n                                        IMarginOrder(orderbook).getOrder(cref).party;\r\n            IMarginOrder(orderbook).reportTrade(ref, cref, securityTraded, currencyTraded, block.timestamp);\r\n            tradeReport(orderbook, ref, cref, securityTraded, currencyTraded, party, pay);\r\n            uint256 pos = orders[ref];\r\n            IMarginManager.tradePosition memory position;\r\n            position = positions[security][currency][pos];\r\n            position.timestamp = executionTime;\r\n            pos = orders[cref];\r\n            position = positions[security][currency][pos];\r\n            position.timestamp = executionTime;\r\n        }\r\n        else{ //if trade execution fails, add back cash \r\n            IMarginManager.tradePosition memory position;\r\n            uint256 pos = orders[ref];\r\n            position = positions[security][currency][pos];\r\n            collateralBalance[position.buyer][currency] = Math.add(collateralBalance[position.buyer][currency], int(position.marginCollateral));\r\n            delete positions[security][currency][pos];\r\n            emit collateral(\"trade\", position.buyer, currency, collateralBalance[position.buyer][currency], block.timestamp);\r\n            pos = orders[cref];\r\n            position = positions[security][currency][pos];\r\n            collateralBalance[position.buyer][currency] = Math.add(collateralBalance[position.buyer][currency], int(position.marginCollateral));\r\n            delete positions[security][currency][pos];\r\n            emit collateral(\"trade\", position.buyer, currency, collateralBalance[position.buyer][currency], block.timestamp);\r\n        }\r\n    }\r\n\r\n    function tradeReport(address orderbook, bytes32 ref, bytes32 cref, uint256 securityTraded, \r\n                            uint256 currencyTraded, address buyer, uint256 pay) private {\r\n        emit tradeSettled( \r\n            IMarginOrder(orderbook).getPoolId(),\r\n            IMarginOrder(orderbook).getOrder(ref).party==buyer ?\r\n                                IMarginOrder(orderbook).getOrder(cref).party :\r\n                                IMarginOrder(orderbook).getOrder(ref).party,\r\n            buyer,\r\n            securityTraded,\r\n            IMarginOrder(orderbook).getSecurity(),\r\n            IMarginOrder(orderbook).getCurrency(),\r\n            currencyTraded,\r\n            cref,\r\n            ref,\r\n            pay,\r\n            block.timestamp\r\n        );\r\n    }    \r\n    \r\n    function calculateFee(address pool, address currency, uint256 currencyTraded) private returns(uint256){\r\n        uint256 fee = IMarginTradingPool(pool).getFee();\r\n        fee = FixedPoint.mulDown(currencyTraded, fee);\r\n        //uint256 pay = FixedPoint.divDown(fee, _computeScalingFactor(IERC20(currency)));\r\n        //emit feeTest(IMarginTradingPool(pool).getFee(), fee, pay);\r\n        fees[currency] = Math.add(fees[currency], fee);\r\n        return fee;\r\n    }\r\n\r\n    function onSettle(address security, address currency, int256 financingBidPerSec, int256 financingOfferPerSec, int256 dividendBidPerSec, int256 dividendOfferPerSec, int256 swapLong, int256 swapShort, uint256 settlementTime) override external onlyIssueManager(msg.sender, security){\r\n        for(uint256 i=0; i<positions[security][currency].length; i++){\r\n            IMarginManager.tradePosition memory position = positions[security][currency][i];\r\n            if(collateralBalance[position.buyer][currency]>0){\r\n                buyerCollateralBalance(position.buyer, security, currency, financingOfferPerSec, dividendOfferPerSec, swapLong, settlementTime, position.timestamp);            \r\n            }\r\n            if(collateralBalance[position.seller][currency]>0){\r\n                sellerCollateralBalance(position.seller, security, currency, financingBidPerSec, dividendBidPerSec, swapShort, settlementTime, position.timestamp);\r\n            }\r\n        }\r\n        //if(collateralBalance[msg.sender][currency]!=0){\r\n        //    buyerCollateralBalance(msg.sender, security, currency, financingOfferPerSec, dividendOfferPerSec, swapLong, settlementTime, settlementTime-1000000000);            \r\n        //}\r\n        //if(collateralBalance[msg.sender][currency]!=0){\r\n        //    sellerCollateralBalance(msg.sender, security, currency, financingBidPerSec, dividendBidPerSec, swapShort, settlementTime, position.timestamp);\r\n        //}\r\n    }    \r\n\r\n    function buyerCollateralBalance(address user, address security, address currency, int256 financingOfferPerSec, int256 dividendOfferPerSec, int256 swapLong, uint256 settlementTime, uint256 timestamp) private {\r\n        if(financingOfferPerSec > 0)\r\n            collateralBalance[user][currency] = Math.sub(collateralBalance[user][currency], financingOfferPerSec * int(Math.sub(settlementTime, timestamp)));\r\n        else if(financingOfferPerSec < 0)\r\n            collateralBalance[user][currency] = Math.add(collateralBalance[user][currency], financingOfferPerSec * int(Math.sub(settlementTime, timestamp)));\r\n        if(dividendOfferPerSec > 0)\r\n            collateralBalance[user][currency] = Math.sub(collateralBalance[user][currency], dividendOfferPerSec * int(Math.sub(settlementTime, timestamp)));\r\n        else if(dividendOfferPerSec < 0)\r\n            collateralBalance[user][currency] = Math.add(collateralBalance[user][currency], dividendOfferPerSec * int(Math.sub(settlementTime, timestamp)));\r\n        if(swapLong > 0)\r\n            collateralBalance[user][currency] = Math.sub(collateralBalance[user][currency], swapLong * int(Math.sub(settlementTime, timestamp)));\r\n        else if(swapLong < 0)\r\n            collateralBalance[user][currency] = Math.add(collateralBalance[user][currency], swapLong * int(Math.sub(settlementTime, timestamp)));\r\n        //position.timestamp = settlementTime;\r\n        emit PnLSettled(user, security, currency, financingOfferPerSec * int(Math.sub(settlementTime, timestamp)), dividendOfferPerSec * int(Math.sub(settlementTime, timestamp)), swapLong * int(Math.sub(settlementTime, timestamp)), block.timestamp);\r\n    }\r\n\r\n    function sellerCollateralBalance(address user, address security, address currency, int256 financingBidPerSec, int256 dividendBidPerSec, int256 swapShort, uint256 settlementTime, uint256 timestamp) private {\r\n        if(financingBidPerSec > 0)\r\n            collateralBalance[user][currency] = Math.add(collateralBalance[user][currency], financingBidPerSec * int(Math.sub(settlementTime, timestamp)));\r\n        else if(financingBidPerSec < 0)\r\n            collateralBalance[user][currency] = Math.sub(collateralBalance[user][currency], financingBidPerSec * int(Math.sub(settlementTime, timestamp)));\r\n        if(dividendBidPerSec > 0)\r\n            collateralBalance[user][currency] = Math.add(collateralBalance[user][currency], dividendBidPerSec * int(Math.sub(settlementTime, timestamp)));\r\n        else if(dividendBidPerSec < 0)\r\n            collateralBalance[user][currency] = Math.sub(collateralBalance[user][currency], dividendBidPerSec * int(Math.sub(settlementTime, timestamp)));\r\n        if(swapShort > 0)\r\n            collateralBalance[user][currency] = Math.add(collateralBalance[user][currency], swapShort * int(Math.sub(settlementTime, timestamp)));\r\n        else if(swapShort < 0)\r\n            collateralBalance[user][currency] = Math.sub(collateralBalance[user][currency], swapShort * int(Math.sub(settlementTime, timestamp)));\r\n        //position.timestamp = settlementTime;\r\n        emit PnLSettled(user, security, currency, financingBidPerSec * int(Math.sub(settlementTime, timestamp)), dividendBidPerSec * int(Math.sub(settlementTime, timestamp)), swapShort * int(Math.sub(settlementTime, timestamp)), block.timestamp);\r\n    }\r\n\r\n    function withdraw(address security, address currency, uint256 amount) override external onlyTrader(msg.sender){\r\n        bytes32 poolId = poolSecurity[security];\r\n        for(uint256 i=0; i<positions[security][currency].length; i++){\r\n            IMarginManager.tradePosition memory position = positions[security][currency][i];\r\n            if(position.buyer==msg.sender && collateralBalance[position.buyer][currency]>0){\r\n                if(int(amount) >= collateralBalance[position.buyer][currency]){\r\n                    IERC20(currency).transfer(position.buyer, uint(collateralBalance[position.buyer][currency]));\r\n                    collateralAmount[poolId][currency] = Math.sub(collateralAmount[poolId][currency], uint(collateralBalance[position.buyer][currency]));\r\n                    emit collateral(\"withdrawl\", position.buyer, currency, collateralBalance[position.buyer][currency], block.timestamp);\r\n                    amount = Math.sub(amount, uint(collateralBalance[position.buyer][currency]));\r\n                    collateralBalance[position.buyer][currency] = 0;                    \r\n                }\r\n                else{\r\n                    IERC20(currency).transfer(position.buyer, amount);\r\n                    collateralAmount[poolId][currency] = Math.sub(collateralAmount[poolId][currency], amount);   \r\n                    emit collateral(\"withdrawl\", position.buyer, currency, int(amount), block.timestamp);                 \r\n                    collateralBalance[position.buyer][currency] = Math.sub(collateralBalance[position.buyer][currency], int(amount)); \r\n                    amount = 0;\r\n                }                \r\n                //delete positions[security][currency][orders[position.orderReference]];\r\n            }\r\n            else if(position.seller==msg.sender && collateralBalance[position.seller][currency]>0){\r\n                if(int(amount) >= collateralBalance[position.seller][currency]){\r\n                    IERC20(currency).transfer(position.seller, uint(collateralBalance[position.seller][currency]));\r\n                    collateralAmount[poolId][currency] = Math.sub(collateralAmount[poolId][currency], uint(collateralBalance[position.seller][currency]));\r\n                    emit collateral(\"withdrawl\", position.seller, currency, collateralBalance[position.seller][currency], block.timestamp);\r\n                    amount = Math.sub(amount, uint(collateralBalance[position.seller][currency]));\r\n                    collateralBalance[position.seller][currency] = 0;                    \r\n                }\r\n                else{\r\n                    IERC20(currency).transfer(position.seller, amount);\r\n                    collateralAmount[poolId][currency] = Math.sub(collateralAmount[poolId][currency], amount);   \r\n                    emit collateral(\"withdrawl\", position.seller, currency, int(amount), block.timestamp);                 \r\n                    collateralBalance[position.seller][currency] = Math.sub(collateralBalance[position.seller][currency], int(amount)); \r\n                    amount = 0;\r\n                }\r\n                //delete positions[security][currency][orders[position.orderReference]];\r\n            }\r\n        }\r\n    }\r\n\r\n    function getTradingFeeCollected(address _token) override external returns(uint256){\r\n        require(msg.sender==_distribution, \"Unauthorized collection request\");\r\n        uint256 feeCollected = fees[_token];\r\n        fees[_token] = Math.sub(fees[_token], feeCollected);\r\n        IERC20(_token).transfer(_distribution, feeCollected);\r\n        emit feecollection(address(this), feeCollected, block.timestamp);\r\n        return feeCollected;\r\n    }  \r\n\r\n    /**\r\n     * @dev This helper function is a fast and cheap way to convert between IERC20[] and IAsset[] types\r\n     */\r\n    function _convertERC20sToAssets(IERC20[] memory tokens) internal pure returns (IAsset[] memory assets) {\r\n        // solhint-disable-next-line no-inline-assembly\r\n        assembly {\r\n            assets := tokens\r\n        }\r\n    }\r\n\r\n    /**\r\n     * @dev Returns a scaling factor that, when multiplied to a token amount for `token`, normalizes its balance as if\r\n     * it had 18 decimals.\r\n     */\r\n    function _computeScalingFactor(IERC20 token) internal view returns (uint256) {\r\n        // Tokens that don't implement the `decimals` method are not supported.\r\n        uint256 tokenDecimals = ERC20(address(token)).decimals();\r\n\r\n        // Tokens with more than 18 decimals are not supported.\r\n        uint256 decimalsDifference = Math.sub(18, tokenDecimals);\r\n        return FixedPoint.ONE * 10**decimalsDifference;\r\n    }\r\n\r\n    function _upscale(uint256 amount, uint256 scalingFactor) internal pure returns (uint256) {        \r\n        return FixedPoint.mulDown(amount, scalingFactor);\r\n    }\r\n\r\n}",
  "sourcePath": "D:\\Code\\verified-balancer\\contracts\\MarginIssueManager.sol",
  "compiler": {
    "name": "solc",
    "version": "0.7.1+commit.f4a555be.Emscripten.clang"
  },
  "schemaVersion": "3.4.16",
  "updatedAt": "2025-04-22T15:07:16.710Z",
  "devdoc": {
    "kind": "dev",
    "methods": {
      "owner()": {
        "details": "Returns the address of the current owner."
      },
      "renounceOwnership()": {
        "details": "Leaves the contract without owner. It will not be possible to call `onlyOwner` functions anymore. Can only be called by the current owner. NOTE: Renouncing ownership will leave the contract without an owner, thereby removing any functionality that is only available to the owner."
      },
      "transferOwnership(address)": {
        "details": "Transfers ownership of the contract to a new account (`newOwner`). Can only be called by the current owner."
      }
    },
    "version": 1
  },
  "userdoc": {
    "kind": "user",
    "methods": {},
    "version": 1
  }
}