{
  "contractName": "PrimaryIssueManager",
  "abi": [
    {
      "anonymous": false,
      "inputs": [
        {
          "indexed": true,
          "internalType": "address",
          "name": "previousOwner",
          "type": "address"
        },
        {
          "indexed": true,
          "internalType": "address",
          "name": "newOwner",
          "type": "address"
        }
      ],
      "name": "OwnershipTransferred",
      "type": "event"
    },
    {
      "anonymous": false,
      "inputs": [
        {
          "indexed": false,
          "internalType": "address",
          "name": "security",
          "type": "address"
        },
        {
          "indexed": false,
          "internalType": "bytes32[]",
          "name": "pools",
          "type": "bytes32[]"
        },
        {
          "indexed": false,
          "internalType": "bool",
          "name": "close",
          "type": "bool"
        },
        {
          "indexed": false,
          "internalType": "address",
          "name": "platform",
          "type": "address"
        }
      ],
      "name": "closures",
      "type": "event"
    },
    {
      "anonymous": false,
      "inputs": [
        {
          "indexed": false,
          "internalType": "address",
          "name": "security",
          "type": "address"
        },
        {
          "indexed": false,
          "internalType": "address",
          "name": "platform",
          "type": "address"
        },
        {
          "components": [
            {
              "internalType": "address",
              "name": "owner",
              "type": "address"
            },
            {
              "internalType": "address",
              "name": "tokenOffered",
              "type": "address"
            },
            {
              "internalType": "uint256",
              "name": "underwritten",
              "type": "uint256"
            },
            {
              "internalType": "uint256",
              "name": "subscribed",
              "type": "uint256"
            },
            {
              "internalType": "uint256",
              "name": "earned",
              "type": "uint256"
            }
          ],
          "indexed": false,
          "internalType": "struct IMarketMaker.lp[]",
          "name": "providers",
          "type": "tuple[]"
        }
      ],
      "name": "marketmakers",
      "type": "event"
    },
    {
      "anonymous": false,
      "inputs": [
        {
          "indexed": false,
          "internalType": "address",
          "name": "platform",
          "type": "address"
        }
      ],
      "name": "platforms",
      "type": "event"
    },
    {
      "anonymous": false,
      "inputs": [
        {
          "indexed": false,
          "internalType": "address",
          "name": "security",
          "type": "address"
        },
        {
          "indexed": false,
          "internalType": "address",
          "name": "platform",
          "type": "address"
        },
        {
          "indexed": false,
          "internalType": "bytes32",
          "name": "poolId",
          "type": "bytes32"
        },
        {
          "components": [
            {
              "internalType": "address",
              "name": "investor",
              "type": "address"
            },
            {
              "internalType": "address",
              "name": "asset",
              "type": "address"
            },
            {
              "internalType": "string",
              "name": "name",
              "type": "string"
            },
            {
              "internalType": "uint256",
              "name": "amount",
              "type": "uint256"
            },
            {
              "internalType": "uint256",
              "name": "price",
              "type": "uint256"
            }
          ],
          "indexed": false,
          "internalType": "struct IMarketMaker.subscriptions[]",
          "name": "investors",
          "type": "tuple[]"
        }
      ],
      "name": "subscribers",
      "type": "event"
    },
    {
      "inputs": [],
      "name": "owner",
      "outputs": [
        {
          "internalType": "address",
          "name": "",
          "type": "address"
        }
      ],
      "stateMutability": "view",
      "type": "function",
      "constant": true
    },
    {
      "inputs": [],
      "name": "renounceOwnership",
      "outputs": [],
      "stateMutability": "nonpayable",
      "type": "function"
    },
    {
      "inputs": [
        {
          "internalType": "address",
          "name": "newOwner",
          "type": "address"
        }
      ],
      "name": "transferOwnership",
      "outputs": [],
      "stateMutability": "nonpayable",
      "type": "function"
    },
    {
      "inputs": [
        {
          "internalType": "address",
          "name": "_factory",
          "type": "address"
        },
        {
          "internalType": "uint256",
          "name": "_swapFeePercentage",
          "type": "uint256"
        },
        {
          "internalType": "address",
          "name": "_vault",
          "type": "address"
        },
        {
          "internalType": "address",
          "name": "_products",
          "type": "address"
        },
        {
          "internalType": "address",
          "name": "_liquidity",
          "type": "address"
        },
        {
          "internalType": "address",
          "name": "_client",
          "type": "address"
        },
        {
          "internalType": "address",
          "name": "_bridge",
          "type": "address"
        },
        {
          "internalType": "address",
          "name": "_distribution",
          "type": "address"
        }
      ],
      "name": "initialize",
      "outputs": [],
      "stateMutability": "nonpayable",
      "type": "function"
    },
    {
      "inputs": [
        {
          "internalType": "address",
          "name": "_signer",
          "type": "address"
        }
      ],
      "name": "setSigner",
      "outputs": [],
      "stateMutability": "nonpayable",
      "type": "function"
    },
    {
      "inputs": [
        {
          "internalType": "address",
          "name": "owned",
          "type": "address"
        },
        {
          "internalType": "bytes32",
          "name": "isin",
          "type": "bytes32"
        },
        {
          "internalType": "uint256",
          "name": "offered",
          "type": "uint256"
        },
        {
          "internalType": "address",
          "name": "tomatch",
          "type": "address"
        },
        {
          "internalType": "uint256",
          "name": "desired",
          "type": "uint256"
        },
        {
          "internalType": "uint256",
          "name": "min",
          "type": "uint256"
        },
        {
          "internalType": "address",
          "name": "owner",
          "type": "address"
        },
        {
          "internalType": "string",
          "name": "docs",
          "type": "string"
        }
      ],
      "name": "offer",
      "outputs": [],
      "stateMutability": "nonpayable",
      "type": "function"
    },
    {
      "inputs": [
        {
          "internalType": "address",
          "name": "offered",
          "type": "address"
        }
      ],
      "name": "getOffered",
      "outputs": [
        {
          "components": [
            {
              "internalType": "address",
              "name": "owner",
              "type": "address"
            },
            {
              "internalType": "address",
              "name": "offered",
              "type": "address"
            },
            {
              "internalType": "uint256",
              "name": "amountOffered",
              "type": "uint256"
            },
            {
              "internalType": "uint256",
              "name": "amountDesired",
              "type": "uint256"
            },
            {
              "internalType": "uint256",
              "name": "min",
              "type": "uint256"
            },
            {
              "internalType": "bytes32",
              "name": "isin",
              "type": "bytes32"
            },
            {
              "internalType": "string",
              "name": "offeringdocs",
              "type": "string"
            }
          ],
          "internalType": "struct IMarketMaker.token[]",
          "name": "",
          "type": "tuple[]"
        }
      ],
      "stateMutability": "view",
      "type": "function",
      "constant": true
    },
    {
      "inputs": [
        {
          "internalType": "address",
          "name": "_owned",
          "type": "address"
        },
        {
          "internalType": "address",
          "name": "_tomatch",
          "type": "address"
        }
      ],
      "name": "getOfferMade",
      "outputs": [
        {
          "components": [
            {
              "internalType": "address",
              "name": "owner",
              "type": "address"
            },
            {
              "internalType": "address",
              "name": "offered",
              "type": "address"
            },
            {
              "internalType": "uint256",
              "name": "amountOffered",
              "type": "uint256"
            },
            {
              "internalType": "uint256",
              "name": "amountDesired",
              "type": "uint256"
            },
            {
              "internalType": "uint256",
              "name": "min",
              "type": "uint256"
            },
            {
              "internalType": "bytes32",
              "name": "isin",
              "type": "bytes32"
            },
            {
              "internalType": "string",
              "name": "offeringdocs",
              "type": "string"
            }
          ],
          "internalType": "struct IMarketMaker.token[]",
          "name": "",
          "type": "tuple[]"
        }
      ],
      "stateMutability": "view",
      "type": "function",
      "constant": true
    },
    {
      "inputs": [
        {
          "internalType": "address",
          "name": "_security",
          "type": "address"
        }
      ],
      "name": "getLiquidityProviders",
      "outputs": [
        {
          "components": [
            {
              "internalType": "address",
              "name": "owner",
              "type": "address"
            },
            {
              "internalType": "address",
              "name": "tokenOffered",
              "type": "address"
            },
            {
              "internalType": "uint256",
              "name": "underwritten",
              "type": "uint256"
            },
            {
              "internalType": "uint256",
              "name": "subscribed",
              "type": "uint256"
            },
            {
              "internalType": "uint256",
              "name": "earned",
              "type": "uint256"
            }
          ],
          "internalType": "struct IMarketMaker.lp[]",
          "name": "",
          "type": "tuple[]"
        }
      ],
      "stateMutability": "nonpayable",
      "type": "function"
    },
    {
      "inputs": [
        {
          "internalType": "uint256",
          "name": "_amount",
          "type": "uint256"
        },
        {
          "internalType": "address",
          "name": "_token",
          "type": "address"
        },
        {
          "internalType": "address",
          "name": "_manager",
          "type": "address"
        }
      ],
      "name": "stake",
      "outputs": [],
      "stateMutability": "nonpayable",
      "type": "function"
    },
    {
      "inputs": [
        {
          "internalType": "address",
          "name": "_token",
          "type": "address"
        }
      ],
      "name": "getAllotedStake",
      "outputs": [
        {
          "internalType": "uint256",
          "name": "",
          "type": "uint256"
        }
      ],
      "stateMutability": "view",
      "type": "function",
      "constant": true
    },
    {
      "inputs": [
        {
          "internalType": "address",
          "name": "security",
          "type": "address"
        },
        {
          "internalType": "uint256",
          "name": "cutoffTime",
          "type": "uint256"
        },
        {
          "internalType": "address",
          "name": "issuer",
          "type": "address"
        },
        {
          "internalType": "bytes32",
          "name": "_hashedMessage",
          "type": "bytes32"
        },
        {
          "internalType": "uint8",
          "name": "_v",
          "type": "uint8"
        },
        {
          "internalType": "bytes32",
          "name": "_r",
          "type": "bytes32"
        },
        {
          "internalType": "bytes32",
          "name": "_s",
          "type": "bytes32"
        }
      ],
      "name": "issue",
      "outputs": [],
      "stateMutability": "nonpayable",
      "type": "function"
    },
    {
      "inputs": [
        {
          "internalType": "bytes32",
          "name": "poolId",
          "type": "bytes32"
        },
        {
          "internalType": "address",
          "name": "security",
          "type": "address"
        },
        {
          "internalType": "address",
          "name": "asset",
          "type": "address"
        },
        {
          "internalType": "uint256",
          "name": "amount",
          "type": "uint256"
        },
        {
          "internalType": "address",
          "name": "investor",
          "type": "address"
        },
        {
          "internalType": "uint256",
          "name": "price",
          "type": "uint256"
        },
        {
          "internalType": "bool",
          "name": "paidIn",
          "type": "bool"
        }
      ],
      "name": "subscribe",
      "outputs": [],
      "stateMutability": "nonpayable",
      "type": "function"
    },
    {
      "inputs": [
        {
          "internalType": "bytes32",
          "name": "poolId",
          "type": "bytes32"
        },
        {
          "internalType": "bytes32",
          "name": "_hashedMessage",
          "type": "bytes32"
        },
        {
          "internalType": "uint8",
          "name": "_v",
          "type": "uint8"
        },
        {
          "internalType": "bytes32",
          "name": "_r",
          "type": "bytes32"
        },
        {
          "internalType": "bytes32",
          "name": "_s",
          "type": "bytes32"
        }
      ],
      "name": "getSubscribers",
      "outputs": [
        {
          "components": [
            {
              "internalType": "address",
              "name": "investor",
              "type": "address"
            },
            {
              "internalType": "address",
              "name": "asset",
              "type": "address"
            },
            {
              "internalType": "string",
              "name": "name",
              "type": "string"
            },
            {
              "internalType": "uint256",
              "name": "amount",
              "type": "uint256"
            },
            {
              "internalType": "uint256",
              "name": "price",
              "type": "uint256"
            }
          ],
          "internalType": "struct IMarketMaker.subscriptions[]",
          "name": "",
          "type": "tuple[]"
        }
      ],
      "stateMutability": "nonpayable",
      "type": "function"
    },
    {
      "inputs": [
        {
          "internalType": "address",
          "name": "security",
          "type": "address"
        },
        {
          "internalType": "bool",
          "name": "redeem",
          "type": "bool"
        },
        {
          "internalType": "bytes32",
          "name": "_hashedMessage",
          "type": "bytes32"
        },
        {
          "internalType": "uint8",
          "name": "_v",
          "type": "uint8"
        },
        {
          "internalType": "bytes32",
          "name": "_r",
          "type": "bytes32"
        },
        {
          "internalType": "bytes32",
          "name": "_s",
          "type": "bytes32"
        }
      ],
      "name": "close",
      "outputs": [
        {
          "internalType": "bytes32[]",
          "name": "",
          "type": "bytes32[]"
        },
        {
          "internalType": "bool",
          "name": "",
          "type": "bool"
        }
      ],
      "stateMutability": "nonpayable",
      "type": "function"
    },
    {
      "inputs": [
        {
          "internalType": "bytes32",
          "name": "poolid",
          "type": "bytes32"
        },
        {
          "internalType": "address",
          "name": "investor",
          "type": "address"
        },
        {
          "internalType": "uint256",
          "name": "amnt",
          "type": "uint256"
        },
        {
          "internalType": "address",
          "name": "asset",
          "type": "address"
        },
        {
          "internalType": "bytes32",
          "name": "_hashedMessage",
          "type": "bytes32"
        },
        {
          "internalType": "uint8",
          "name": "_v",
          "type": "uint8"
        },
        {
          "internalType": "bytes32",
          "name": "_r",
          "type": "bytes32"
        },
        {
          "internalType": "bytes32",
          "name": "_s",
          "type": "bytes32"
        }
      ],
      "name": "accept",
      "outputs": [],
      "stateMutability": "nonpayable",
      "type": "function"
    },
    {
      "inputs": [
        {
          "internalType": "bytes32",
          "name": "poolid",
          "type": "bytes32"
        },
        {
          "internalType": "address",
          "name": "investor",
          "type": "address"
        },
        {
          "internalType": "bytes32",
          "name": "_hashedMessage",
          "type": "bytes32"
        },
        {
          "internalType": "uint8",
          "name": "_v",
          "type": "uint8"
        },
        {
          "internalType": "bytes32",
          "name": "_r",
          "type": "bytes32"
        },
        {
          "internalType": "bytes32",
          "name": "_s",
          "type": "bytes32"
        }
      ],
      "name": "reject",
      "outputs": [],
      "stateMutability": "nonpayable",
      "type": "function"
    },
    {
      "inputs": [
        {
          "internalType": "bytes32",
          "name": "poolId",
          "type": "bytes32"
        },
        {
          "internalType": "bytes32",
          "name": "_hashedMessage",
          "type": "bytes32"
        },
        {
          "internalType": "uint8",
          "name": "_v",
          "type": "uint8"
        },
        {
          "internalType": "bytes32",
          "name": "_r",
          "type": "bytes32"
        },
        {
          "internalType": "bytes32",
          "name": "_s",
          "type": "bytes32"
        }
      ],
      "name": "settle",
      "outputs": [],
      "stateMutability": "nonpayable",
      "type": "function"
    },
    {
      "inputs": [
        {
          "internalType": "address",
          "name": "_token",
          "type": "address"
        }
      ],
      "name": "getIssuingFeeCollected",
      "outputs": [
        {
          "internalType": "uint256",
          "name": "",
          "type": "uint256"
        }
      ],
      "stateMutability": "nonpayable",
      "type": "function"
    },
    {
      "inputs": [],
      "name": "getOwner",
      "outputs": [
        {
          "internalType": "address",
          "name": "",
          "type": "address"
        }
      ],
      "stateMutability": "view",
      "type": "function",
      "constant": true
    }
  ],
  "bytecode": "0x6080604052600060035534801561001557600080fd5b50600080546001600160a01b0319163390811782556040519091907f8be0079c531659141344cd1fd0a4f28419497f9722a3daafe3b4186f6b6457e0908290a361537a806100646000396000f3fe608060405234801561001057600080fd5b506004361061012c5760003560e01c8063893d20e8116100ad578063eabc9ac711610071578063eabc9ac71461027a578063f1a163c11461028d578063f2fde38b146102ad578063f3ea66ff146102c0578063f7efef10146102d35761012c565b8063893d20e8146102175780638ac316f11461022c5780638da5cb5b1461023f5780639701bbc314610247578063a7d545db146102675761012c565b80636c19e783116100f45780636c19e783146101a8578063715018a6146101bb5780637aee0a6b146101c35780637dcc0167146101d657806388c4b6ee146101f75761012c565b806301713e35146101315780631f63a35014610146578063390a6f4a1461015957806359d3b2cd1461016c5780635bccd17714610195575b600080fd5b61014461013f36600461446c565b6102e6565b005b610144610154366004614719565b610474565b6101446101673660046143cd565b6105f5565b61017f61017a366004614225565b6106c8565b60405161018c9190614e2c565b60405180910390f35b61017f6101a3366004614225565b6106f0565b6101446101b6366004614225565b6107f7565b610144610825565b6101446101d1366004614654565b61087b565b6101e96101e4366004614295565b610b0c565b60405161018c929190614c18565b61020a610205366004614225565b6110fc565b60405161018c9190614c63565b61021f6111fd565b60405161018c91906149d7565b61014461023a3660046145da565b61120c565b61021f611443565b61025a610255366004614225565b611452565b60405161018c9190614d85565b6101446102753660046147d3565b6115a0565b61014461028836600461467e565b611601565b6102a061029b366004614719565b611788565b60405161018c9190614ce3565b6101446102bb366004614225565b611ba2565b6101446102ce3660046142f8565b611c20565b61025a6102e136600461425d565b611fff565b6000846040516020016102f99190614e71565b60405160208183030381529060405280519060200120905060008160405160200161032491906149a6565b60408051601f19818403018152908290528051602090910120600554634427673360e01b83529092506000916001600160a01b03909116906344276733906103709033906004016149d7565b604080518083038186803b15801561038757600080fd5b505afa15801561039b573d6000803e3d6000fd5b505050506040513d601f19601f820116820180604052508101906103bf91906146f6565b506008546040805160008152602001908190529192506001600160a01b0316906001906103f39085908a908a908a90614e98565b6020604051602081039080840390855afa158015610415573d6000803e3d6000fd5b505050602060405103516001600160a01b0316148061043857508061414d60f01b145b61045d5760405162461bcd60e51b8152600401610454906150fb565b60405180910390fd5b6104688a8a8a61215c565b50505050505050505050565b6000846040516020016104879190614e71565b6040516020818303038152906040528051906020012090506000816040516020016104b291906149a6565b60408051601f19818403018152908290528051602090910120600554634427673360e01b83529092506000916001600160a01b03909116906344276733906104fe9033906004016149d7565b604080518083038186803b15801561051557600080fd5b505afa158015610529573d6000803e3d6000fd5b505050506040513d601f19601f8201168201806040525081019061054d91906146f6565b506008546040805160008152602001908190529192506001600160a01b0316906001906105819085908a908a908a90614e98565b6020604051602081039080840390855afa1580156105a3573d6000803e3d6000fd5b505050602060405103516001600160a01b031614806105c657508061414d60f01b145b6105e25760405162461bcd60e51b815260040161045490615054565b6105eb88613265565b5050505050505050565b61061333610601611443565b6001600160a01b0316146101aa6135be565b600180546001600160a01b03199081166001600160a01b038b8116919091179092556002805482168984161790556004805482168884161790556005805482168684161790556003899055600680548216878416179055600880548216858416179055600780549091169183169190911790556040517fd1313384eb3fd96a3981fd56de6d2735f4385d635b8f2bdf84299e6f86f197ee906106b69030906149d7565b60405180910390a15050505050505050565b3360009081526019602090815260408083206001600160a01b03949094168352929052205490565b6007546000906001600160a01b0316331461071d5760405162461bcd60e51b81526004016104549061514e565b6001600160a01b038083166000818152601a60205260409081902054600754915163a9059cbb60e01b8152909363a9059cbb92610761929116908590600401614bff565b602060405180830381600087803b15801561077b57600080fd5b505af115801561078f573d6000803e3d6000fd5b505050506040513d601f19601f820116820180604052508101906107b391906145a6565b506001600160a01b0383166000908152601a60205260409020546107d790826135d0565b6001600160a01b0384166000908152601a60205260409020559050919050565b61080333610601611443565b600880546001600160a01b0319166001600160a01b0392909216919091179055565b61083133610601611443565b600080546040516001600160a01b03909116907f8be0079c531659141344cd1fd0a4f28419497f9722a3daafe3b4186f6b6457e0908390a3600080546001600160a01b0319169055565b60008460405160200161088e9190614e71565b604051602081830303815290604052805190602001206040516020016108b491906149a6565b60408051601f19818403018152908290528051602090910120600554634427673360e01b83529092506000916001600160a01b03909116906344276733906109009033906004016149d7565b604080518083038186803b15801561091757600080fd5b505afa15801561092b573d6000803e3d6000fd5b505050506040513d601f19601f8201168201806040525081019061094f91906146f6565b506008546040805160008152602001908190529192506001600160a01b031690600190610983908590899089908990614e98565b6020604051602081039080840390855afa1580156109a5573d6000803e3d6000fd5b505050602060405103516001600160a01b031614806109c857508061414d60f01b145b6109e45760405162461bcd60e51b8152600401610454906150a6565b60008881526015602090815260408083206001600160a01b038b1684529091529020548015610b0157600089815260146020526040902080546000198301908110610a2b57fe5b906000526020600020906005020160010160009054906101000a90046001600160a01b03166001600160a01b031663a9059cbb89601460008d81526020019081526020016000206001850381548110610a8057fe5b9060005260206000209060050201600301546040518363ffffffff1660e01b8152600401610aaf929190614bff565b602060405180830381600087803b158015610ac957600080fd5b505af1158015610add573d6000803e3d6000fd5b505050506040513d601f19601f8201168201806040525081019061046891906145a6565b505050505050505050565b606060008086604051602001610b229190614e71565b604051602081830303815290604052805190602001209050600081604051602001610b4d91906149a6565b60408051601f19818403018152908290528051602090910120600554634427673360e01b83529092506000916001600160a01b0390911690634427673390610b999033906004016149d7565b604080518083038186803b158015610bb057600080fd5b505afa158015610bc4573d6000803e3d6000fd5b505050506040513d601f19601f82011682018060405250810190610be891906146f6565b506008546040805160008152602001908190529192506001600160a01b031690600190610c1c9085908c908c908c90614e98565b6020604051602081039080840390855afa158015610c3e573d6000803e3d6000fd5b505050602060405103516001600160a01b03161480610c6157508061414d60f01b145b610c7d5760405162461bcd60e51b815260040161045490615002565b8915610f265760008060005b6001600160a01b038e16600090815260136020526040902060010154811015610f22576001600160a01b038e166000908152601360205260409020600101805482908110610cd357fe5b600091825260208083209091015480835260178252604092839020548351636945c1fd60e01b815293519195506001600160a01b031692636945c1fd926004808301939192829003018186803b158015610d2c57600080fd5b505afa158015610d40573d6000803e3d6000fd5b505050506040513d601f19601f82011682018060405250810190610d649190614241565b600254604051631f29a8cd60e31b81529194506060916001600160a01b039091169063f94d466890610d9a908690600401614e2c565b60006040518083038186803b158015610db257600080fd5b505afa158015610dc6573d6000803e3d6000fd5b505050506040513d6000823e601f3d908101601f19168201604052610dee91908101906144da565b505090506060610dfd826135eb565b90506060825167ffffffffffffffff81118015610e1957600080fd5b50604051908082528060200260200182016040528015610e43578160200160208202803683370190505b509050610e4e613ead565b60405180608001604052808481526020018381526020016001620f42406dffffffffffffffffffffffffffff03604051602001610e8c929190614eb6565b60408051808303601f1901815291815290825260006020909201919091526002549051638bdb391360e01b81529192506001600160a01b031690638bdb391390610ee0908990309081908790600401614e35565b600060405180830381600087803b158015610efa57600080fd5b505af1158015610f0e573d6000803e3d6000fd5b505060019096019550610c89945050505050565b5050505b6001600160a01b038b16600090815260136020526040902054421115611027576001600160a01b038b166000908152601360205260409081902090517f8d8b846820fbf720578ad9824ccdfdc62a57690b892ff41c17dbb3efa078346e91610f97918e916001908101913090614b92565b60405180910390a1601360008c6001600160a01b03166001600160a01b0316815260200190815260200160002060010160018180548060200260200160405190810160405280929190818152602001828054801561101457602002820191906000526020600020905b815481526020019060010190808311611000575b50505050509150945094505050506110f1565b6001600160a01b038b1660009081526013602052604080822090517f8d8b846820fbf720578ad9824ccdfdc62a57690b892ff41c17dbb3efa078346e92611078928f92600190910191903090614b92565b60405180910390a16001600160a01b038b166000908152601360209081526040808320600101805482518185028101850190935280835290939284919083018282801561101457602002820191906000526020600020908154815260200190600101908083116110005750505050509150945094505050505b965096945050505050565b6001600160a01b0381166000908152601060205260409081902090516060917f8ae9edc1f4311efae155464035a368ea0e426fc3285bfe52280e9dbcc4591b3e9161114b9185913091906149eb565b60405180910390a16001600160a01b038216600090815260106020908152604080832080548251818502810185019093528083529193909284015b828210156111f25760008481526020908190206040805160a0810182526005860290920180546001600160a01b03908116845260018083015490911684860152600282015492840192909252600381015460608401526004015460808301529083529092019101611186565b505050509050919050565b6000611207611443565b905090565b60008781526015602090815260408083206001600160a01b03871684529091529020548790879061126a57600089815260146020908152604080832054601583528184206001600160a01b038a168552909252909120600190910190555b82156113e85760008981526016602090815260408083206001600160a01b038b16845290915290205461129d90876135ee565b60008a81526016602090815260408083206001600160a01b03808d16808652918452828520959095558d845260148352818420825160a081018452958b16865292850181905281516306fdde0360e01b815282519395949285019391926306fdde0392600480840193829003018186803b15801561131a57600080fd5b505afa15801561132e573d6000803e3d6000fd5b505050506040513d6000823e601f3d908101601f191682016040526113569190810190614760565b815260208082018a90526040918201889052835460018181018655600095865294829020845160059092020180546001600160a01b039283166001600160a01b03199182161782558584015196820180549790931696169590951790559082015180519293926113cc9260028501920190613ed7565b5060608201518160030155608082015181600401555050610b01565b60008981526016602090815260408083206001600160a01b038b16845290915290205461141590876135d0565b60008a81526016602090815260408083206001600160a01b038c168452909152902055505050505050505050565b6000546001600160a01b031690565b6001600160a01b0381166000908152600b602090815260408083208054825181850281018501909352808352606094339484015b828210156115945760008481526020908190206040805160e0810182526007860290920180546001600160a01b03908116845260018083015490911684860152600280830154858501526003830154606086015260048301546080860152600583015460a086015260068301805485516101009482161594909402600019011691909104601f81018790048702830187019094528382529394919360c0860193919290919083018282801561157c5780601f106115515761010080835404028352916020019161157c565b820191906000526020600020905b81548152906001019060200180831161155f57829003601f168201915b50505050508152505081526020019060010190611486565b50505050915050919050565b6001600160a01b0380821660009081526019602090815260408083209386168352929052205433906115d290856135ee565b6001600160a01b0392831660009081526019602090815260408083209690951682529490945291909220555050565b6000846040516020016116149190614e71565b60405160208183030381529060405280519060200120905060008160405160200161163f91906149a6565b60408051601f19818403018152908290528051602090910120600554634427673360e01b83529092506000916001600160a01b039091169063442767339061168b9033906004016149d7565b604080518083038186803b1580156116a257600080fd5b505afa1580156116b6573d6000803e3d6000fd5b505050506040513d601f19601f820116820180604052508101906116da91906146f6565b506008546040805160008152602001908190529192506001600160a01b03169060019061170e9085908a908a908a90614e98565b6020604051602081039080840390855afa158015611730573d6000803e3d6000fd5b505050602060405103516001600160a01b0316148061175357508061414d60f01b145b61176f5760405162461bcd60e51b8152600401610454906150a6565b61177b8b8b8b8b613607565b5050505050505050505050565b606060008560405160200161179d9190614e71565b6040516020818303038152906040528051906020012090506000816040516020016117c891906149a6565b60408051601f19818403018152908290528051602090910120600554634427673360e01b83529092506000916001600160a01b03909116906344276733906118149033906004016149d7565b604080518083038186803b15801561182b57600080fd5b505afa15801561183f573d6000803e3d6000fd5b505050506040513d601f19601f8201168201806040525081019061186391906146f6565b506008546040805160008152602001908190529192506001600160a01b0316906001906118979085908b908b908b90614e98565b6020604051602081039080840390855afa1580156118b9573d6000803e3d6000fd5b505050602060405103516001600160a01b031614806118dc57508061414d60f01b145b806119f457506004805460008b81526018602052604090819020549051634a161b2760e01b815233936001600160a01b039384169363cd75c7d4938593634a161b279361192d9390921691016149d7565b60206040518083038186803b15801561194557600080fd5b505afa158015611959573d6000803e3d6000fd5b505050506040513d601f19601f8201168201806040525081019061197d9190614241565b6040518263ffffffff1660e01b815260040161199991906149d7565b60206040518083038186803b1580156119b157600080fd5b505afa1580156119c5573d6000803e3d6000fd5b505050506040513d601f19601f820116820180604052508101906119e99190614241565b6001600160a01b0316145b611a105760405162461bcd60e51b815260040161045490614f3d565b60008981526018602090815260408083205460149092529182902091517f5d28c52a362909480acaca416bfff17e5e74b04911768667bfe2277c46fb4ecc92611a66926001600160a01b03169130918e91614a9c565b60405180910390a1600089815260146020908152604080832080548251818502810185019093528083529193909284015b82821015611b905760008481526020908190206040805160a0810182526005860290920180546001600160a01b039081168452600180830154909116848601526002808301805485516101009482161594909402600019011691909104601f8101879004870283018701855280835294959294938601939192909190830182828015611b645780601f10611b3957610100808354040283529160200191611b64565b820191906000526020600020905b815481529060010190602001808311611b4757829003601f168201915b505050505081526020016003820154815260200160048201548152505081526020019060010190611a97565b50505050935050505095945050505050565b611bae33610601611443565b611bc56001600160a01b03821615156101ab6135be565b600080546040516001600160a01b03808516939216917f8be0079c531659141344cd1fd0a4f28419497f9722a3daafe3b4186f6b6457e091a3600080546001600160a01b0319166001600160a01b0392909216919091179055565b600754600160a01b900460ff1615611c4a5760405162461bcd60e51b815260040161045490614f9a565b6007805460ff60a01b1916600160a01b179055600554604051634427673360e01b81526000916001600160a01b031690634427673390611c8e9033906004016149d7565b604080518083038186803b158015611ca557600080fd5b505afa158015611cb9573d6000803e3d6000fd5b505050506040513d601f19601f82011682018060405250810190611cdd91906146f6565b5060048054604051633ea6c82d60e01b81529293506001600160a01b031691633ea6c82d91611d0e918d91016149d7565b60206040518083038186803b158015611d2657600080fd5b505afa158015611d3a573d6000803e3d6000fd5b505050506040513d601f19601f82011682018060405250810190611d5e91906145a6565b151560011480611d7257508061414d60f01b145b611d8e5760405162461bcd60e51b815260040161045490614ef1565b8061414d60f01b1415611ed1573360009081526019602090815260408083206001600160a01b038d168085529252918290205491516370a0823160e01b81526370a0823190611de19030906004016149d7565b60206040518083038186803b158015611df957600080fd5b505afa158015611e0d573d6000803e3d6000fd5b505050506040513d601f19601f82011682018060405250810190611e3191906145c2565b10158015611e6257503360009081526019602090815260408083206001600160a01b038d1684529091529020548711155b15611ecc573360009081526019602090815260408083206001600160a01b038d168452909152902054611e959088613b51565b3360008181526019602090815260408083206001600160a01b038f168452909152902091909155611ecc908a8a8a8a8a8a89613b5f565b611fe7565b6040516370a0823160e01b815287906001600160a01b038b16906370a0823190611eff9087906004016149d7565b60206040518083038186803b158015611f1757600080fd5b505afa158015611f2b573d6000803e3d6000fd5b505050506040513d601f19601f82011682018060405250810190611f4f91906145c2565b10611fe7576040516323b872dd60e01b81526001600160a01b038a16906323b872dd90611f8490869030908c90600401614b6e565b602060405180830381600087803b158015611f9e57600080fd5b505af1158015611fb2573d6000803e3d6000fd5b505050506040513d601f19601f82011682018060405250810190611fd691906145a6565b50611fe7838a8a8a8a8a8a89613b5f565b50506007805460ff60a01b1916905550505050505050565b6001600160a01b038083166000908152600c60209081526040808320938516835292815282822080548451818402810184019095528085526060943394909384015b8282101561214f5760008481526020908190206040805160e0810182526007860290920180546001600160a01b03908116845260018083015490911684860152600280830154858501526003830154606086015260048301546080860152600583015460a086015260068301805485516101009482161594909402600019011691909104601f81018790048702830187019094528382529394919360c086019391929091908301828280156121375780601f1061210c57610100808354040283529160200191612137565b820191906000526020600020905b81548152906001019060200180831161211a57829003601f168201915b50505050508152505081526020019060010190612041565b5050505091505092915050565b6001600160a01b0383166000818152600a60205260408120546009805460001990920193918490811061218b57fe5b6000918252602090912001546001600160a01b0316141561325e5760005b600954811015612adc57856001600160a01b0316600982815481106121ca57fe5b6000918252602090912001546001600160a01b031614612ad457600981815481106121f157fe5b60009182526020808320909101546001600160a01b038981168452600c83526040808520928216808652929093529183208054919550918716929061223257fe5b60009182526020909120600790910201546001600160a01b031614801561229d57506001600160a01b038087166000908152600c602090815260408083209386168352929052908120805490919061228657fe5b906000526020600020906007020160020154600014155b15612ad45760005b6001600160a01b038084166000908152600c60209081526040808320938b1683529290522054811015612ad2576001600160a01b038084166000908152600c60209081526040808320938b1683529290522080548290811061230357fe5b906000526020600020906007020160020154600014612aca576001600160a01b038084166000908152600c60209081526040808320938b1683529290522080546123ab91908390811061235257fe5b60009182526020808320600260079093020191909101546001600160a01b038088168452600c83526040808520918d1685529252912080548490811061239457fe5b906000526020600020906007020160030154613da5565b6001600160a01b038089166000908152600c602090815260408083209388168352929052908120805461243992906123df57fe5b60009182526020808320600460079093020191909101546001600160a01b03808d168452600c83526040808520918a168552925290822080549192909161242257fe5b906000526020600020906007020160020154613da5565b106129c6576001600160a01b038088166000908152600e60209081526040808320938716835292905220546124bc576001600160a01b038781166000818152600d6020908152604080832080546001810182558185528385200180546001600160a01b031916968a1696871790559383529254600e825283832094835293905220555b6001600160a01b038088166000818152600f6020908152604080832094881680845294825280832054938352600c825280832094835293905291822080549192612506926123df57fe5b108061253557506001600160a01b038088166000908152600f6020908152604080832093871683529290522054155b156125d8576001600160a01b038088166000908152600c60209081526040808320938716835292905290812080546125b1929061256e57fe5b60009182526020808320600460079093020191909101546001600160a01b03808c168452600c835260408085209189168552925290822080549192909161242257fe5b6001600160a01b038089166000908152600f60209081526040808320938816835292905220555b6001600160a01b038088166000818152600f60209081526040808320948816835293815283822060010154600c825284832093835292905291909120805461267e91908490811061262557fe5b60009182526020808320600260079093020191909101546001600160a01b038089168452600c83526040808520918e1685529252912080548590811061266757fe5b906000526020600020906007020160040154613da5565b1115612726576001600160a01b038084166000908152600c60209081526040808320938b1683529290522080546126fc9190839081106126ba57fe5b60009182526020808320600260079093020191909101546001600160a01b038088168452600c83526040808520918d1685529252912080548490811061266757fe5b6001600160a01b038089166000908152600f60209081526040808320938816835292905220600101555b6001600160a01b038088166000818152600f6020908152604080832094881680845294825280832060020154938352600c82528083209483529390529182208054612789939061277257fe5b9060005260206000209060070201600201546135ee565b6001600160a01b038881166000818152600f6020908152604080832094891683529381528382206002810195909555600390940154600c855283822092825291909352912080546127e09291908490811061277257fe5b6001600160a01b038089166000818152600f60209081526040808320948916835293815283822060030194909455600c84528281209181529252812080548390811061282857fe5b906000526020600020906007020160020181905550612845613f55565b6040805160a0810182526001600160a01b038087166000908152600c6020908152848220928d168252919091529190912080548291908590811061288557fe5b600091825260208083206007909202909101546001600160a01b0390811684528881168483018190528352600c82526040808420918e1684529152908190208054919092019190859081106128d657fe5b600091825260208083206002600790930201820154845283810183905260409384018390526001600160a01b03808e1680855260108352858520805460018181018355918752848720895160059092020180549185166001600160a01b03199283161781558986015192810180549386169390921692909217905587870151948101949094556060870151600385015560808701516004909401939093558284526011825284842054908a168452600c825284842092845291905291902080549293506129a7928590811061277257fe5b6001600160a01b03891660009081526011602052604090205550612aca565b6001600160a01b038084166000908152600c60209081526040808320938b1683529290529081208054612a5792601992909185908110612a0257fe5b600091825260208083206007909202909101546001600160a01b03908116845283820194909452604092830182208885168352815282822054600c8252838320948d1683529390522080548490811061277257fe5b6001600160a01b038085166000908152600c60209081526040808320938c1683529290529081208054601992919085908110612a8f57fe5b600091825260208083206007909202909101546001600160a01b03908116845283820194909452604092830182209388168252929092529020555b6001016122a5565b505b6001016121a9565b5060005b6001600160a01b0386166000908152600d602052604090205481101561323c576001600160a01b0386166000908152600d60205260408120805483908110612b2457fe5b6000918252602090912001546001600160a01b03169050612b43613f96565b604051806101400160405280896001600160a01b03166306fdde036040518163ffffffff1660e01b815260040160006040518083038186803b158015612b8857600080fd5b505afa158015612b9c573d6000803e3d6000fd5b505050506040513d6000823e601f3d908101601f19168201604052612bc49190810190614760565b8152602001896001600160a01b03166395d89b416040518163ffffffff1660e01b815260040160006040518083038186803b158015612c0257600080fd5b505afa158015612c16573d6000803e3d6000fd5b505050506040513d6000823e601f3d908101601f19168201604052612c3e9190810190614760565b81526001600160a01b03808b16602080840182905291861660408085018290526000838152600f8552818120838252855281812080546060880152600181015460808801526002015460a087015260035460c087015260e086018e9052928352600c84528083209183529252908120805461010090930192909190612cbf57fe5b6000918252602091829020600660079092020101805460408051601f6002600019610100600187161502019094169390930492830185900485028101850190915281815292830182828015612d555780601f10612d2a57610100808354040283529160200191612d55565b820191906000526020600020905b815481529060010190602001808311612d3857829003601f168201915b50505091909252505060015460405163088db13360e21b81529192506000916001600160a01b0390911690632236c4cc90612d94908590600401615191565b602060405180830381600087803b158015612dae57600080fd5b505af1158015612dc2573d6000803e3d6000fd5b505050506040513d601f19601f82011682018060405250810190612de69190614241565b6001600160a01b03808b166000908152600c602090815260408083209388168352929052908120805492935091612e1957fe5b600091825260208083206007909202909101546001600160a01b038c811684526013835260408085206002810180546001600160a01b03191694841694909417909355918c9055815163038fff2d60e41b81529151908516926338fff2d0926004808201939182900301818787803b158015612e9457600080fd5b505af1158015612ea8573d6000803e3d6000fd5b505050506040513d601f19601f82011682018060405250810190612ecc91906145c2565b6001600160a01b03808c1660008181526013602090815260408083206001908101805491820181558452828420018690558583526017825280832080548987166001600160a01b03199182161790915560189092529182902080549091169092179091556002549051631f29a8cd60e31b815292935060609291169063f94d466890612f5c908590600401614e2c565b60006040518083038186803b158015612f7457600080fd5b505afa158015612f88573d6000803e3d6000fd5b505050506040513d6000823e601f3d908101601f19168201604052612fb091908101906144da565b505090506060612fbf826135eb565b90506060825167ffffffffffffffff81118015612fdb57600080fd5b50604051908082528060200260200182016040528015613005578160200160208202803683370190505b50905060005b8351811015613102578d6001600160a01b031684828151811061302a57fe5b60200260200101516001600160a01b03161415613089576001600160a01b03808f166000908152600f60209081526040808320938c1683529290522060020154825183908390811061307857fe5b6020026020010181815250506130fa565b876001600160a01b031684828151811061309f57fe5b60200260200101516001600160a01b031614156130fa576001600160a01b03808f166000908152600f60209081526040808320938c168352929052206003015482518390839081106130ed57fe5b6020026020010181815250505b60010161300b565b5061310b613ead565b6040518060800160405280848152602001838152602001600084604051602001613136929190614ece565b60408051808303601f190181529181529082526000602090920191909152600254905163172b958560e31b81529192506001600160a01b03169063b95cac289061318a908890309081908790600401614e35565b600060405180830381600087803b1580156131a457600080fd5b505af11580156131b8573d6000803e3d6000fd5b50505050600f60008f6001600160a01b03166001600160a01b031681526020019081526020016000206000896001600160a01b03166001600160a01b03168152602001908152602001600020600080820160009055600182016000905560028201600090556003820160009055505050505050505050508080600101915050612ae0565b506001600160a01b0385166000908152600d6020526040812061325e91613ffb565b5050505050565b6000818152601860209081526040808320546001600160a01b039081168452601183528184205485855260178452828520548351636945c1fd60e01b81529351919594921692636945c1fd926004808301939192829003018186803b1580156132cd57600080fd5b505afa1580156132e1573d6000803e3d6000fd5b505050506040513d601f19601f820116820180604052508101906133059190614241565b60008481526016602090815260408083206001600160a01b03851684529091528120546003549293509161333a908390613dc5565b905060008060005b6000888152601860209081526040808320546001600160a01b03168352601090915290205481101561355f576000888152601860209081526040808320546001600160a01b031683526010909152902080546133bd9190839081106133a357fe5b906000526020600020906005020160020154886000613de9565b92506133c98484613dc5565b60065460008a8152601860209081526040808320546001600160a01b0390811684526010909252909120805493955091169163451353f19185918590811061340d57fe5b60009182526020808320600160059093020191909101548d8352601882526040808420546001600160a01b039081168552601090935290922080549190921691908690811061345857fe5b60009182526020909120600590910201546040516001600160e01b031960e086901b1681526134959392916001600160a01b03169060040161524f565b600060405180830381600087803b1580156134af57600080fd5b505af11580156134c3573d6000803e3d6000fd5b5050506000898152601860209081526040808320546001600160a01b031683526010909152902080546135139250839081106134fb57fe5b906000526020600020906005020160040154836135ee565b6000898152601860209081526040808320546001600160a01b031683526010909152902080548390811061354357fe5b6000918252602090912060046005909202010155600101613342565b506001600160a01b0385166000908152601a602052604090205461358390846135ee565b6001600160a01b0386166000908152601a6020908152604080832093909355898252601490529081206135b59161401c565b50505050505050565b816135cc576135cc81613e11565b5050565b60006135e08383111560016135be565b508082035b92915050565b90565b600082820161360084821015836135be565b9392505050565b60008481526015602090815260408083206001600160a01b0387168452909152902054806136475760405162461bcd60e51b815260040161045490614fc1565b6000858152601760209081526040808320548151632541897f60e01b815291516001600160a01b0390911692632541897f9260048082019391829003018186803b15801561369457600080fd5b505afa1580156136a8573d6000803e3d6000fd5b505050506040513d601f19601f820116820180604052508101906136cc9190614241565b60008781526014602052604090208054919250859160001985019081106136ef57fe5b90600052602060002090600502016003015411156137c457826001600160a01b031663a9059cbb86613753601460008b8152602001908152602001600020600187038154811061373b57fe5b90600052602060002090600502016003015488613b51565b6040518363ffffffff1660e01b8152600401613770929190614bff565b602060405180830381600087803b15801561378a57600080fd5b505af115801561379e573d6000803e3d6000fd5b505050506040513d601f19601f820116820180604052508101906137c291906145a6565b505b600091505b6001600160a01b038116600090815260106020526040902054821015613b49576001600160a01b0381811660009081526010602052604090208054918516918490811061381257fe5b60009182526020909120600160059092020101546001600160a01b031614801561383b57508315155b15613b3e576001600160a01b038116600090815260106020526040812080546138a891908590811061386957fe5b90600052602060002090600502016002015460116000856001600160a01b03166001600160a01b03168152602001908152602001600020546000613de9565b60008881526016602090815260408083206001600160a01b0389168452909152812054919250906138da908390613dc5565b905085811115613a10576001600160a01b038381166000908152600c60209081526040808320938916808452939091528120805463a9059cbb929061391b57fe5b906000526020600020906007020160000160009054906101000a90046001600160a01b0316613955896139508b600354613dc5565b6135d0565b6040518363ffffffff1660e01b8152600401613972929190614bff565b602060405180830381600087803b15801561398c57600080fd5b505af11580156139a0573d6000803e3d6000fd5b505050506040513d601f19601f820116820180604052508101906139c491906145a6565b506001600160a01b03831660009081526010602052604090208054613a069190869081106139ee57fe5b906000526020600020906005020160030154876135ee565b5060009550613b3b565b6001600160a01b038381166000908152600c60209081526040808320938916808452939091528120805463a9059cbb9290613a4757fe5b906000526020600020906007020160000160009054906101000a90046001600160a01b0316613a7c8461395086600354613dc5565b6040518363ffffffff1660e01b8152600401613a99929190614bff565b602060405180830381600087803b158015613ab357600080fd5b505af1158015613ac7573d6000803e3d6000fd5b505050506040513d601f19601f82011682018060405250810190613aeb91906145a6565b506001600160a01b03831660009081526010602052604090208054613b2d919086908110613b1557fe5b906000526020600020906005020160030154826135ee565b50613b3886826135d0565b95505b50505b6001909101906137c9565b505050505050565b600061360083836001613e64565b613b6761403d565b506040805160e0810182526001600160a01b038a8116825289811660208084018281528486018b8152606086018a8152608087018a815260a088018f815260c089018b81526000978852600c87528a88208f8a1689528752998720805460018082018355918952978790208a5160078a029091018054918b166001600160a01b03199283161781559651918701805492909a1691161790975591516002840155516003830155516004820155925160058401559351805193949193859392613c36926006850192910190613ed7565b5050506001600160a01b0389166000908152600a6020526040902054613cb157600980546001810182557f6e1540171b6c0c960b71a7020d9f60077f6af931a8bbf590da0223dacf75c7af0180546001600160a01b0319166001600160a01b038c1690811790915590546000918252600a6020526040909120555b6001600160a01b038087166000818152600b60209081526040808320948e168352600c825280832093835292905220805483908110613cec57fe5b6000918252602080832084546001818101875595855291909320600792830290930180549190920290920180546001600160a01b03199081166001600160a01b0394851617825584830154828601805490921694169390931790925560028082015481840155600380830154908401556004808301549084015560058083015490840155600680830180549395613d9694928601939192908116156101000260001901160461408f565b50505050505050505050505050565b6000613db482151560046135be565b818381613dbd57fe5b049392505050565b6000828202613600841580613de2575083858381613ddf57fe5b04145b60036135be565b600081613dff57613dfa8484613da5565b613e09565b613e098484613e7a565b949350505050565b62461bcd60e51b6000908152602060045260076024526642414c23000030600a808404818106603090810160081b95839006959095019082900491820690940160101b939093010160c81b604452606490fd5b6000613e7384841115836135be565b5050900390565b6000613e8982151560046135be565b82613e96575060006135e5565b816001840381613ea257fe5b0460010190506135e5565b60405180608001604052806060815260200160608152602001606081526020016000151581525090565b828054600181600116156101000203166002900490600052602060002090601f016020900481019282601f10613f1857805160ff1916838001178555613f45565b82800160010185558215613f45579182015b82811115613f45578251825591602001919060010190613f2a565b50613f51929150614104565b5090565b6040518060a0016040528060006001600160a01b0316815260200160006001600160a01b031681526020016000815260200160008152602001600081525090565b604051806101400160405280606081526020016060815260200160006001600160a01b0316815260200160006001600160a01b031681526020016000815260200160008152602001600081526020016000815260200160008152602001606081525090565b50805460008255906000526020600020908101906140199190614104565b50565b50805460008255600502906000526020600020908101906140199190614119565b6040518060e0016040528060006001600160a01b0316815260200160006001600160a01b0316815260200160008152602001600081526020016000815260200160008019168152602001606081525090565b828054600181600116156101000203166002900490600052602060002090601f016020900481019282601f106140c85780548555613f45565b82800160010185558215613f4557600052602060002091601f016020900482015b82811115613f455782548255916001019190600101906140e9565b5b80821115613f515760008155600101614105565b80821115613f515780546001600160a01b031990811682556001820180549091169055600061414b6002830182614162565b506000600382018190556004820155600501614119565b50805460018160011615610100020316600290046000825580601f106141885750614019565b601f0160209004906000526020600020908101906140199190614104565b600082601f8301126141b6578081fd5b81516141c96141c482615295565b61526e565b8181529150602080830190848101818402860182018710156141ea57600080fd5b60005b84811015614209578151845292820192908201906001016141ed565b505050505092915050565b803560ff811681146135e557600080fd5b600060208284031215614236578081fd5b813561360081615321565b600060208284031215614252578081fd5b815161360081615321565b6000806040838503121561426f578081fd5b823561427a81615321565b9150602083013561428a81615321565b809150509250929050565b60008060008060008060c087890312156142ad578182fd5b86356142b881615321565b955060208701356142c881615336565b9450604087013593506142de8860608901614214565b92506080870135915060a087013590509295509295509295565b600080600080600080600080610100898b031215614314578182fd5b883561431f81615321565b97506020890135965060408901359550606089013561433d81615321565b94506080890135935060a0890135925060c089013561435b81615321565b915060e089013567ffffffffffffffff811115614376578182fd5b8901601f81018b13614386578182fd5b80356143946141c4826152b5565b8181528c60208385010111156143a8578384fd5b8160208401602083013783602083830101528093505050509295985092959890939650565b600080600080600080600080610100898b0312156143e9578384fd5b88356143f481615321565b975060208901359650604089013561440b81615321565b9550606089013561441b81615321565b9450608089013561442b81615321565b935060a089013561443b81615321565b925060c089013561444b81615321565b915060e089013561445b81615321565b809150509295985092959890939650565b600080600080600080600060e0888a031215614486578081fd5b873561449181615321565b96506020880135955060408801356144a881615321565b9450606088013593506144be8960808a01614214565b925060a0880135915060c0880135905092959891949750929550565b6000806000606084860312156144ee578081fd5b835167ffffffffffffffff80821115614505578283fd5b818601915086601f830112614518578283fd5b81516145266141c482615295565b80828252602080830192508086018b828387028901011115614546578788fd5b8796505b8487101561457157805161455d81615321565b84526001969096019592810192810161454a565b508901519097509350505080821115614588578283fd5b50614595868287016141a6565b925050604084015190509250925092565b6000602082840312156145b7578081fd5b815161360081615336565b6000602082840312156145d3578081fd5b5051919050565b600080600080600080600060e0888a0312156145f4578081fd5b87359650602088013561460681615321565b9550604088013561461681615321565b945060608801359350608088013561462d81615321565b925060a0880135915060c088013561464481615336565b8091505092959891949750929550565b60008060008060008060c0878903121561466c578384fd5b8635955060208701356142c881615321565b600080600080600080600080610100898b03121561469a578182fd5b8835975060208901356146ac81615321565b96506040890135955060608901356146c381615321565b9450608089013593506146d98a60a08b01614214565b925060c0890135915060e089013590509295985092959890939650565b60008060408385031215614708578182fd5b505080516020909101519092909150565b600080600080600060a08688031215614730578283fd5b85359450602086013593506147488760408801614214565b94979396509394606081013594506080013592915050565b600060208284031215614771578081fd5b815167ffffffffffffffff811115614787578182fd5b8201601f81018413614797578182fd5b80516147a56141c4826152b5565b8181528560208385010111156147b9578384fd5b6147ca8260208301602086016152f1565b95945050505050565b6000806000606084860312156147e7578081fd5b8335925060208401356147f981615321565b9150604084013561480981615321565b809150509250925092565b6001600160a01b03169052565b6000815180845260208085019450808401835b8381101561485057815187529582019590820190600101614834565b509495945050505050565b15159052565b600081518084526148798160208601602086016152f1565b601f01601f19169290920160200192915050565b600081546001808216600081146148ab57600181146148c957614907565b60028304607f16865260ff1983166020870152604086019350614907565b600283048087526148d9866152d9565b60005b828110156148fd5781546020828b01015284820191506020810190506148dc565b8801602001955050505b50505092915050565b8051608080845281519084018190526000916020919082019060a0860190845b818110156149555783516001600160a01b031683529284019291840191600101614930565b50508285015191508581038387015261496e8183614821565b92505050604083015184820360408601526149898282614861565b915050606083015161499e606086018261485b565b509392505050565b7f19457468657265756d205369676e6564204d6573736167653a0a3332000000008152601c810191909152603c0190565b6001600160a01b0391909116815260200190565b6000606080830160018060a01b038088168552602081881681870152604091508382870152828754808552608094508488019150888752828720875b82811015614a8b57614a4284614a3d84546152e5565b614814565b614a4f60018301546152e5565b614a5b86860182614814565b5060028201548487015260038201548885015260048201548785015260a090930192600590910190600101614a27565b50919b9a5050505050505050505050565b6000608080830160018060a01b0380891685526020818916818701526040915087828701526060848188015283885480865260a095508589019150858482028a01018a8952848920895b83811015614b5a57609f198c8403018552614b0583614a3d84546152e5565b614b1260018301546152e5565b614b1e88850182614814565b508888840152614b338984016002840161488d565b6003830154848801526004830154938b019390935293860193600590910190600101614ae6565b50909e9d5050505050505050505050505050565b6001600160a01b039384168152919092166020820152604081019190915260600190565b60006080820160018060a01b038088168452602060808186015282885480855260a0870191508986528286209450855b81811015614bde57855483526001958601959284019201614bc2565b50509615156040860152509390931660609092019190915250909392505050565b6001600160a01b03929092168252602082015260400190565b604080825283519082018190526000906020906060840190828701845b82811015614c5157815184529284019290840190600101614c35565b50505093151592019190915250919050565b602080825282518282018190526000919060409081850190868401855b82811015614cd657815180516001600160a01b0316855286810151614ca788870182614814565b508086015185870152606080820151908601526080908101519085015260a09093019290850190600101614c80565b5091979650505050505050565b60208082528251828201819052600091906040908185019080840286018301878501865b83811015614d7757603f19898403018552815160a0614d27858351614814565b88820151614d378a870182614814565b50878201518189870152614d4d82870182614861565b60608481015190880152608093840151939096019290925250509386019390860190600101614d07565b509098975050505050505050565b60208082528251828201819052600091906040908185019080840286018301878501865b83811015614d7757603f19898403018552815160e0614dc9858351614814565b88820151614dd98a870182614814565b508188015185890152606080830151908601526080808301519086015260a0808301519086015260c091820151918501819052614e1881860183614861565b968901969450505090860190600101614da9565b90815260200190565b8481526001600160a01b03848116602083015283166040820152608060608201819052600090614e6790830184614910565b9695505050505050565b908152604060208201819052600690820152654c32746f4c3160d01b606082015260800190565b93845260ff9290921660208401526040830152606082015260800190565b6040810160028410614ec457fe5b9281526020015290565b600060048410614eda57fe5b83825260406020830152613e096040830184614821565b6020808252602c908201527f556e617574686f72697a65642061636365737320746f205072696d617279206960408201526b39b9bab29036b0b730b3b2b960a11b606082015260800190565b60208082526038908201527f556e617574686f72697a6564206163636573732076696577696e67207375627360408201527f6372696265727320696e207072696d61727920706f6f6c2e0000000000000000606082015260800190565b6020808252600d908201526c1058d8d95cdcc81b1bd8dad959609a1b604082015260600190565b60208082526021908201527f4e6f207375627363726962657220666f756e6420666f7220616c6c6f746d656e6040820152601d60fa1b606082015260800190565b60208082526032908201527f556e617574686f72697a65642061636365737320636c6f73696e672069737375604082015271329034b710383934b6b0b93c903837b7b61760711b606082015260800190565b60208082526032908201527f556e617574686f72697a65642061636365737320736574746c696e672070726960408201527136b0b93c903837b7b61031b0b834ba30b61760711b606082015260800190565b60208082526035908201527f556e617574686f72697a656420616363657373206d616b696e6720616c6c6f7460408201527436b2b73a1034b710383934b6b0b93c903837b7b61760591b606082015260800190565b60208082526033908201527f556e617574686f72697a656420616363657373207374617274696e67206973736040820152723ab29034b710383934b6b0b93c903837b7b61760691b606082015260800190565b60208082526023908201527f556e617574686f72697a65642066656520636f6c6c656374696f6e2072657175604082015262195cdd60ea1b606082015260800190565b60006020825282516101408060208501526151b0610160850183614861565b91506020850151601f19808685030160408701526151ce8483614861565b9350604087015191506151e46060870183614814565b606087015191506151f86080870183614814565b608087015160a087015260a087015160c087015260c087015160e087015260e0870151915061010082818801528088015192505061012082818801528088015192505080868503018387015250614e678382614861565b9283526001600160a01b03918216602084015216604082015260600190565b60405181810167ffffffffffffffff8111828210171561528d57600080fd5b604052919050565b600067ffffffffffffffff8211156152ab578081fd5b5060209081020190565b600067ffffffffffffffff8211156152cb578081fd5b50601f01601f191660200190565b60009081526020902090565b6001600160a01b031690565b60005b8381101561530c5781810151838201526020016152f4565b8381111561531b576000848401525b50505050565b6001600160a01b038116811461401957600080fd5b801515811461401957600080fdfea2646970667358221220b9030e2dc46554db1d453a11b6640d296123dc181ec29f0783cfbe93458a8d2864736f6c63430007010033",
  "immutableReferences": {},
  "source": "// Verified asset manager\r\n// (c) Kallol Borah, Verified Network, 2021\r\n\r\n//\"SPDX-License-Identifier: UNLICENSED\"\r\n\r\npragma solidity ^0.7.1;\r\npragma experimental ABIEncoderV2;\r\n\r\nimport '@balancer-labs/v2-solidity-utils/contracts/openzeppelin/IERC20.sol';\r\nimport '@balancer-labs/v2-solidity-utils/contracts/openzeppelin/ERC20.sol';\r\nimport '@balancer-labs/v2-solidity-utils/contracts/openzeppelin/Ownable.sol';\r\nimport \"@balancer-labs/v2-solidity-utils/contracts/math/Math.sol\";\r\n\r\nimport '@balancer-labs/v2-vault/contracts/interfaces/IVault.sol';\r\nimport '@balancer-labs/v2-vault/contracts/interfaces/IAsset.sol';\r\n\r\nimport './interfaces/IPrimaryIssuePoolFactory.sol';\r\nimport './interfaces/IPrimaryIssuePool.sol';\r\n\r\nimport './interfaces/VerifiedClient.sol';\r\nimport './interfaces/IMarketMaker.sol';\r\nimport './interfaces/ILiquidity.sol';\r\nimport './interfaces/IFactory.sol';\r\nimport './interfaces/ISecurity.sol';\r\n\r\ncontract PrimaryIssueManager is IMarketMaker, Ownable {\r\n\r\n    using Math for uint256;\r\n\r\n    // balancer variables\r\n    address private factory;\r\n    address private vault;\r\n    uint256 private swapFeePercentage=0;\r\n\r\n    uint256 private constant _INITIAL_BPT_SUPPLY = 2**(112) - 1;\r\n    uint256 private constant _DEFAULT_MINIMUM_BPT = 1e6;\r\n\r\n    // reference to the Verified factory contract that this asset manager checks security token issues with\r\n    IFactory private products;\r\n\r\n    // reference to the Verified Client contract\r\n    VerifiedClient private client;\r\n\r\n    // reference to the Verified Liquidity contract that provides liquidity (ie, VITTA) to the asset manager to underwrite investments in tokenized securities\r\n    address private LiquidityContract;\r\n\r\n    //distribution contract \r\n    address private distribution;\r\n\r\n    //mutex\r\n    bool private lock;\r\n\r\n    //bridge\r\n    address private bridge;\r\n\r\n    // modifiers\r\n    modifier onlyPool(bytes32 poolId, address security) {\r\n        //require(poolId == IPrimaryIssuePool(security).getPoolId());\r\n        _;\r\n    }\r\n\r\n    modifier onlyLP(address sender) {\r\n        //require(sender==LiquidityContract);\r\n        _;\r\n    }\r\n\r\n    modifier onlyAssetManager(address sender){\r\n        //(bytes32 role, ) = client.getRole(sender);\r\n        //require(role=='AM');\r\n        _;\r\n    }    \r\n\r\n    // list of offered tokens\r\n    address[] internal offeredTokens;\r\n\r\n    // mapping token offered to its position in the list of offered tokens\r\n    mapping(address => uint256) private offeredTokenIndex;\r\n\r\n    // list of tokens to match\r\n    mapping(address => token[]) internal toMatchTokens;\r\n\r\n    // mapping offered token (eg, security token) to a token to match (eg, settlement token)\r\n    mapping(address => mapping(address => token[])) internal mmtokens;\r\n\r\n    // mapping offered token (ie security token) to its paired token \r\n    mapping(address => address[]) internal pairedTokens;\r\n\r\n    // mapping liqudity token to its position in the list of liquidity tokens\r\n    mapping(address => mapping(address => uint256)) private pairedTokenIndex;    \r\n\r\n    // mapping qualified liquidity token to its price and amount offered by market makers (LPs)\r\n    mapping(address => mapping(address => liquidity)) internal qlTokens;\r\n\r\n    // mapping security to liquidity providers\r\n    mapping(address => lp[]) private liquidityProviders;\r\n\r\n    // mapping securities issued in the primary issue pool to total liquidity offered\r\n    mapping(address => uint256) private totalUnderwritten;\r\n\r\n    // mapping pool ids to LPs to the amounts of liquidity they offer\r\n    mapping(bytes32 => mapping(address => uint256)) private underwriters;    \r\n\r\n    // mapping security to new issues in the primary issue pool\r\n    mapping(address => primary) internal issues;\r\n\r\n    // mapping primary issue pool id to subscribers that swap in assets into pool\r\n    mapping(bytes32 => subscriptions[]) internal investors; \r\n\r\n    // mapping primary issue pool id to subscriber and its position in the list of subscribers to the pool\r\n    mapping(bytes32 => mapping(address => uint256)) private subscriberIndex;\r\n\r\n    // mapping pool id to asset to subscription amounts\r\n    mapping(bytes32 => mapping(address => uint256)) private subscribed;\r\n\r\n    // mapping pool id to pool address\r\n    mapping(bytes32 => address) private pools;\r\n\r\n    // mapping pool id to security token offered\r\n    mapping(bytes32 => address) private poolSecurity;   \r\n    \r\n    // LP token allotted\r\n    mapping(address => mapping (address => uint256)) private LPTokenAllotted;\r\n\r\n    // mapping token address to issuing fee collected\r\n    mapping(address => uint256) private fees;\r\n\r\n    event marketmakers(address security, address platform, lp[] providers);\r\n    event subscribers(address security, address platform, bytes32 poolId, subscriptions[] investors);\r\n    event platforms(address platform);\r\n    event closures(address security, bytes32[] pools, bool close, address platform);\r\n\r\n    /**\r\n        Initializes this asset management contract\r\n        @param  _factory            reference to the primary issue pool factory contract\r\n        @param  _swapFeePercentage  percentage of trading fee to be charged by the asset manager\r\n        @param  _vault              reference to the Balancer vault\r\n        @param  _products           reference to the Verified Products contract that this contract reports created primary issue pools to\r\n     */\r\n    function initialize(address _factory, uint256 _swapFeePercentage, address _vault, address _products, address _liquidity, address _client, address _bridge, address _distribution) onlyOwner public {\r\n        factory = _factory;\r\n        vault = _vault;        \r\n        products = IFactory(_products);        \r\n        client = VerifiedClient(_client);\r\n        swapFeePercentage = _swapFeePercentage;\r\n        LiquidityContract = _liquidity;\r\n        bridge = _bridge;\r\n        distribution = _distribution;\r\n        emit platforms(address(this));\r\n    }\r\n\r\n    function setSigner(address _signer) onlyOwner external{\r\n        bridge = _signer;\r\n    }\r\n\r\n    /*function offer(address owned, bytes32 isin, uint offered, address tomatch, uint desired, uint min, address issuer, bytes32 _hashedMessage, uint8 _v, bytes32 _r, bytes32 _s) override external{\r\n        bytes32 payloadHash = keccak256(abi.encode(_hashedMessage, \"L2toL1\"));\r\n        bytes32 messageHash = keccak256(abi.encodePacked(\"\\x19Ethereum Signed Message:\\n32\", payloadHash));\r\n        require(ecrecover(messageHash, _v, _r, _s)== bridge);\r\n        makeOffer(owned, isin, offered, tomatch, desired, min, issuer);\r\n    }*/\r\n    \r\n    /**\r\n        Called by market maker and issuer for adding liquidity\r\n        @param  owned       is the security or settlement token on offer \r\n        @param  offered     is the amount offered\r\n        @param  tomatch     is the liquidity token that is required to be paired\r\n        @param  desired     is the amount required of the liquidity token to be paired\r\n        @param  min         is the minimum amount to be swapped of the 'offered' token \r\n        @param  isin        is the identifier for the security token offered\r\n        @param  owner       is the current holder of the owned token that is offered\r\n        @param  docs        is the ipfs address of the offering docs\r\n     */ \r\n    function offer(address owned, bytes32 isin, uint offered, address tomatch, uint desired, uint min, address owner, string memory docs) override external {\r\n        require(!lock, \"Access locked\");\r\n        lock = true;\r\n        (bytes32 role, ) = client.getRole(msg.sender);\r\n        require(products.checkProduct(owned)==true || role=='AM', \"Unauthorized access to Primary issue manager\");\r\n        if(role==\"AM\"){\r\n            if(ERC20(owned).balanceOf(address(this))>=LPTokenAllotted[msg.sender][owned] && LPTokenAllotted[msg.sender][owned]>=offered){                 \r\n                LPTokenAllotted[msg.sender][owned] = SafeMath.sub(LPTokenAllotted[msg.sender][owned], offered);\r\n                make(msg.sender, owned, isin, offered, tomatch, desired, min, docs); \r\n            }\r\n        }\r\n        else if(ERC20(owned).balanceOf(owner)>=offered){             \r\n            ERC20(owned).transferFrom(owner, address(this), offered);\r\n            make(owner, owned, isin, offered, tomatch, desired, min, docs); \r\n        }\r\n        lock = false;\r\n    }\r\n\r\n    function make(address _owner, address owned, bytes32 _isin, uint _offered, address tomatch, uint _desired, uint _min, string memory _docs) private {\r\n        IMarketMaker.token memory t = IMarketMaker.token({\r\n            owner: _owner,\r\n            offered: owned,\r\n            amountDesired: _desired,\r\n            amountOffered: _offered,\r\n            min: _min,\r\n            isin: _isin,\r\n            offeringdocs: _docs\r\n        });\r\n        uint256 index = mmtokens[owned][tomatch].length;\r\n        mmtokens[owned][tomatch].push(t);\r\n        if(offeredTokenIndex[owned]==0){\r\n            offeredTokens.push(owned);\r\n            offeredTokenIndex[owned] = offeredTokens.length;\r\n        }\r\n        toMatchTokens[tomatch].push(mmtokens[owned][tomatch][index]);                  \r\n    }\r\n\r\n    /**\r\n        Gets tokens to match for offered token\r\n        @param  offered address of offered token\r\n     */\r\n    function getOffered(address offered) override onlyAssetManager(msg.sender) external view returns(IMarketMaker.token[] memory){\r\n        return toMatchTokens[offered];\r\n    }\r\n\r\n    /**\r\n        Gets offer made previously\r\n        @param  _owned      address of token offered\r\n        @param  _tomatch    address of token to match\r\n     */\r\n    function getOfferMade(address _owned, address _tomatch) override onlyAssetManager(msg.sender) external view returns(IMarketMaker.token[] memory){\r\n        return mmtokens[_owned][_tomatch];\r\n    }\r\n\r\n    /**\r\n        Fetches liquidity providers for a security token\r\n        @param  _security   identifier for the security token offered\r\n     */\r\n    function getLiquidityProviders(address _security) override external returns(lp[] memory){\r\n        emit marketmakers(_security, address(this), liquidityProviders[_security]);\r\n        return liquidityProviders[_security];\r\n    }\r\n\r\n    /**\r\n        Called by Liquidity token contract to stake tokens by investors\r\n        @param  _amount     amount of tokens staked to provide liquidity for underwriting investments in tokenized securities\r\n        @param  _token      address of token staked\r\n        @param  _manager    address of asset manager\r\n     */\r\n    function stake(uint256 _amount, address _token, address _manager) override onlyLP(msg.sender) external {\r\n        LPTokenAllotted[_manager][_token] = SafeMath.add(LPTokenAllotted[_manager][_token], _amount);\r\n    }\r\n\r\n    /**\r\n        Gets liquidity allotted for asset manager (message sender)\r\n        @param  _token  address of token allocated earlier to asset manager (message sender)\r\n     */\r\n    function getAllotedStake(address _token) override external view returns(uint256){\r\n        return LPTokenAllotted[msg.sender][_token];\r\n    }    \r\n    \r\n    /**\r\n        Called by issuer of 'security' token to open an issue which will last till 'cutoffTime'\r\n        @param  security    security offered to the primary issue pool\r\n        @param  cutoffTime  time in milliseconds by when offer closes\r\n     */\r\n    function issue(address security, uint256 cutoffTime, address issuer, bytes32 _hashedMessage, uint8 _v, bytes32 _r, bytes32 _s) override external {\r\n        bytes32 payloadHash = keccak256(abi.encode(_hashedMessage, \"L2toL1\"));\r\n        bytes32 messageHash = keccak256(abi.encodePacked(\"\\x19Ethereum Signed Message:\\n32\", payloadHash));\r\n        (bytes32 role, ) = client.getRole(msg.sender);\r\n        require(ecrecover(messageHash, _v, _r, _s)== bridge || role=='AM', \"Unauthorized access starting issue in primary pool.\");\r\n        onIssue(security, cutoffTime, issuer);\r\n    }\r\n    \r\n    function onIssue(address security, uint256 cutoffTime, address issuer) private {\r\n        // check if security to be issued has been offered by the issuer, and if yes, initialize the issuance\r\n        uint i = offeredTokenIndex[security]-1;\r\n        address cash;\r\n        if(offeredTokens[i]==security){            \r\n            \r\n            // check all offered securities that is not the security to be issued\r\n            for(uint j=0; j<offeredTokens.length; j++){\r\n\r\n                if(offeredTokens[j]!=security){\r\n                    cash = offeredTokens[j];\r\n\r\n                    // check if the request to issue has come from the issuer\r\n                    if(mmtokens[security][cash][0].owner == issuer && mmtokens[security][cash][0].amountOffered!=0){\r\n                        \r\n                        for(uint k=0; k<mmtokens[cash][security].length; k++){\r\n\r\n                            // find tokens offered against security to be issued\r\n                            if(mmtokens[cash][security][k].amountOffered!=0){\r\n                                            \r\n                                // if min offer price for security issued is greater than price desired by market maker (LP)\r\n                                if( Math.divDown(mmtokens[security][cash][0].min,\r\n                                    mmtokens[security][cash][0].amountOffered) >=\r\n                                    Math.divDown(mmtokens[cash][security][k].amountOffered,\r\n                                    mmtokens[cash][security][k].amountDesired))\r\n                                {    \r\n                                    // store liquidity tokens    \r\n                                    if(pairedTokenIndex[security][cash]==0){\r\n                                        pairedTokens[security].push(cash);\r\n                                        pairedTokenIndex[security][cash] = pairedTokens[security].length;                                            \r\n                                    }\r\n                                    \r\n                                    // find and store min price for token offered\r\n                                    if(Math.divDown(mmtokens[security][cash][0].min,\r\n                                        mmtokens[security][cash][0].amountOffered) < \r\n                                        qlTokens[security][cash].minPrice  || \r\n                                        qlTokens[security][cash].minPrice==0)\r\n                                    {   \r\n                                        qlTokens[security][cash].minPrice = \r\n                                                    Math.divDown(mmtokens[security][cash][0].min,\r\n                                                    mmtokens[security][cash][0].amountOffered);\r\n                                    }\r\n                                    \r\n                                    // find and store max price for token offered\r\n                                    if(Math.divDown(mmtokens[cash][security][k].amountOffered,\r\n                                        mmtokens[cash][security][k].min) > \r\n                                        qlTokens[security][cash].maxPrice)\r\n                                    {   \r\n                                        qlTokens[security][cash].maxPrice = \r\n                                                    Math.divDown(mmtokens[cash][security][k].amountOffered,\r\n                                                    mmtokens[cash][security][k].min);                                        \r\n                                    }  \r\n                                    \r\n                                    qlTokens[security][cash].amountIssued = \r\n                                                    Math.add(qlTokens[security][cash].amountIssued,\r\n                                                    mmtokens[security][cash][0].amountOffered);\r\n                                    qlTokens[security][cash].amountOffered = \r\n                                                    Math.add(qlTokens[security][cash].amountOffered,\r\n                                                    mmtokens[cash][security][k].amountOffered); \r\n                                    mmtokens[cash][security][k].amountOffered = 0;\r\n\r\n                                    // store qualified liquidity provider info\r\n                                    lp memory provider = lp({\r\n                                        owner : mmtokens[cash][security][k].owner,\r\n                                        tokenOffered : cash,\r\n                                        underwritten : mmtokens[cash][security][k].amountOffered,\r\n                                        subscribed : 0,\r\n                                        earned : 0\r\n                                    });\r\n                                    liquidityProviders[security].push(provider);  \r\n\r\n                                    totalUnderwritten[security] = \r\n                                    SafeMath.add(totalUnderwritten[security], mmtokens[cash][security][k].amountOffered);\r\n                                }\r\n                                else{\r\n                                    //adjust amount underwritten from asset manager's allocated stake                                            \r\n                                    LPTokenAllotted[mmtokens[cash][security][k].owner][cash] = \r\n                                        SafeMath.add(LPTokenAllotted[mmtokens[cash][security][k].owner][cash], mmtokens[cash][security][k].amountOffered);\r\n                                }\r\n                            }\r\n                        }\r\n                    }\r\n                }\r\n            }\r\n            //create primary issue pool if it does not exist already\r\n            for(uint x=0; x<pairedTokens[security].length; x++){\r\n                address lptoken = pairedTokens[security][x];\r\n                IPrimaryIssuePoolFactory.FactoryPoolParams memory poolparams = IPrimaryIssuePoolFactory.FactoryPoolParams({\r\n                    name : ERC20(security).name(),\r\n                    symbol : ERC20(security).symbol(),\r\n                    security : security,\r\n                    currency : lptoken,\r\n                    minimumPrice : qlTokens[security][lptoken].minPrice,\r\n                    basePrice : qlTokens[security][lptoken].maxPrice,\r\n                    maxAmountsIn : qlTokens[security][lptoken].amountIssued,\r\n                    issueFeePercentage : swapFeePercentage,\r\n                    cutOffTime : cutoffTime,\r\n                    offeringdocs: mmtokens[security][lptoken][0].offeringdocs\r\n                });\r\n                address newIssue = IPrimaryIssuePoolFactory(factory).create(poolparams);\r\n                // store details of new pool created\r\n                issues[security].issuer = mmtokens[security][lptoken][0].owner;\r\n                issues[security].deadline = cutoffTime;\r\n                bytes32 pool = IPrimaryIssuePool(newIssue).getPoolId();                \r\n                issues[security].pools.push(pool);\r\n                pools[pool] = newIssue;\r\n                poolSecurity[pool] = security;\r\n                // join the pool here   \r\n                (IERC20[] memory tokens, , ) = IVault(vault).getPoolTokens(pool);\r\n                IAsset[] memory assets = _convertERC20sToAssets(tokens);\r\n                uint256[] memory maxAmountsIn = new uint256[](tokens.length);\r\n                for (uint256 t; t < tokens.length; t++) {\r\n                    if(tokens[t]==IERC20(security))\r\n                        maxAmountsIn[t] = qlTokens[security][lptoken].amountIssued;\r\n                    else if(tokens[t]==IERC20(lptoken))\r\n                        maxAmountsIn[t] = qlTokens[security][lptoken].amountOffered;\r\n                }\r\n                IVault.JoinPoolRequest memory request = IVault.JoinPoolRequest({\r\n                    assets: assets,\r\n                    maxAmountsIn: maxAmountsIn,\r\n                    userData: abi.encode(JoinKind.INIT,maxAmountsIn),\r\n                    fromInternalBalance: false\r\n                });         \r\n                IVault(vault).joinPool(pool, address(this), address(this), request);\r\n                delete qlTokens[security][lptoken];\r\n                //pairedTokenIndex[security][lptoken]=0;\r\n            }\r\n            delete pairedTokens[security];\r\n        }\r\n    }\r\n\r\n    // called by pool when assets are swapped in by investors against security tokens issued\r\n    function subscribe(bytes32 poolId, address security, address asset, uint256 amount, address investor, uint256 price, bool paidIn) override onlyPool(poolId, security) external {\r\n        if(subscriberIndex[poolId][investor]==0)\r\n            subscriberIndex[poolId][investor] = investors[poolId].length+1;\r\n        if(paidIn){\r\n            subscribed[poolId][asset] = Math.add(subscribed[poolId][asset], amount);\r\n            investors[poolId].push(IMarketMaker.subscriptions(investor, asset, ERC20(asset).name(), amount, price));\r\n        }\r\n        else{\r\n            subscribed[poolId][asset] = Math.sub(subscribed[poolId][asset], amount);\r\n        }\r\n    }\r\n\r\n    /**\r\n        Fetches investors (subscribers) to a primary issue pool\r\n        @param   poolId identifier for a primary issue pool for which subscribers are to be returned\r\n     */\r\n    function getSubscribers(bytes32 poolId, bytes32 _hashedMessage, uint8 _v, bytes32 _r, bytes32 _s) override external returns(subscriptions[] memory){\r\n        bytes32 payloadHash = keccak256(abi.encode(_hashedMessage, \"L2toL1\"));\r\n        bytes32 messageHash = keccak256(abi.encodePacked(\"\\x19Ethereum Signed Message:\\n32\", payloadHash));\r\n        (bytes32 role, ) = client.getRole(msg.sender);\r\n        require(ecrecover(messageHash, _v, _r, _s)== bridge || role=='AM' || products.getHolder(products.getSecurity(poolSecurity[poolId]))==msg.sender, \"Unauthorized access viewing subscribers in primary pool.\");\r\n        emit subscribers(poolSecurity[poolId], address(this), poolId, investors[poolId]);\r\n        return investors[poolId];\r\n    }\r\n\r\n    /**\r\n        Called by issuer to close subscription of 'security' issued by it\r\n        @param  security    address of security token\r\n     */  \r\n    function close(address security, bool redeem, bytes32 _hashedMessage, uint8 _v, bytes32 _r, bytes32 _s) override external returns(bytes32[] memory, bool) {\r\n        bytes32 payloadHash = keccak256(abi.encode(_hashedMessage, \"L2toL1\"));\r\n        bytes32 messageHash = keccak256(abi.encodePacked(\"\\x19Ethereum Signed Message:\\n32\", payloadHash));\r\n        (bytes32 role, ) = client.getRole(msg.sender);\r\n        require(ecrecover(messageHash, _v, _r, _s)== bridge || role=='AM', \"Unauthorized access closing issue in primary pool.\");\r\n        if(redeem){\r\n            address currency;\r\n            bytes32 poolId;\r\n            for(uint256 i=0; i<issues[security].pools.length; i++){  \r\n                poolId = issues[security].pools[i];\r\n                currency = IPrimaryIssuePool(pools[poolId]).getCurrency(); \r\n                // exit the pool here   \r\n                (IERC20[] memory tokens, , ) = IVault(vault).getPoolTokens(poolId);\r\n                IAsset[] memory assets = _convertERC20sToAssets(tokens);\r\n                uint256[] memory amountsOut = new uint256[](tokens.length);\r\n                IVault.ExitPoolRequest memory request = IVault.ExitPoolRequest({\r\n                    assets: assets,\r\n                    minAmountsOut: amountsOut,\r\n                    userData: abi.encode(ExitKind.EXACT_BPT_IN_FOR_TOKENS_OUT, _INITIAL_BPT_SUPPLY - _DEFAULT_MINIMUM_BPT),\r\n                    toInternalBalance: false\r\n                });         \r\n                IVault(vault).exitPool(poolId, address(this), payable(address(this)), request);\r\n            }\r\n        }\r\n        if(block.timestamp > issues[security].deadline){            \r\n            emit closures(security, issues[security].pools, true, address(this));\r\n            return (issues[security].pools, true);\r\n        }\r\n        else{            \r\n            emit closures(security, issues[security].pools, false, address(this));\r\n            return (issues[security].pools, false);\r\n        }        \r\n    }    \r\n\r\n    /**\r\n        Called by issuer to accept subscription to issue by investor\r\n        @param  poolid      identifier of primary issue pool in which subscription is made by investor\r\n        @param  investor    address of investor (subscriber)\r\n        @param  amnt        amount of investment (subscription capital) accepted by issuer for which allotment of security tokens are made to investor\r\n        @param  asset       address of asset which is used by investor to subscribe to the issue\r\n     */ \r\n    function accept(bytes32 poolid, address investor, uint256 amnt, address asset, bytes32 _hashedMessage, uint8 _v, bytes32 _r, bytes32 _s) override external {\r\n        bytes32 payloadHash = keccak256(abi.encode(_hashedMessage, \"L2toL1\"));\r\n        bytes32 messageHash = keccak256(abi.encodePacked(\"\\x19Ethereum Signed Message:\\n32\", payloadHash));\r\n        (bytes32 role, ) = client.getRole(msg.sender);\r\n        require(ecrecover(messageHash, _v, _r, _s)== bridge || role=='AM', \"Unauthorized access making allotment in primary pool.\");\r\n        onAccept(poolid, investor, amnt, asset);\r\n    }\r\n\r\n    function onAccept(bytes32 poolid, address investor, uint256 amnt, address asset) private {\r\n        uint256 i = subscriberIndex[poolid][investor];\r\n        require(i>0, \"No subscriber found for allotment\");\r\n        // transfer subscriptions for allotments to asset manager for asset subscribed with\r\n        address issued = IPrimaryIssuePool(pools[poolid]).getSecurity();\r\n        // refund balance to investors\r\n        if(investors[poolid][i-1].amount > amnt){\r\n            IERC20(asset).transfer(investor, SafeMath.sub(investors[poolid][i-1].amount, amnt));\r\n        }\r\n        for(i=0; i<liquidityProviders[issued].length; i++){\r\n            if(liquidityProviders[issued][i].tokenOffered==asset && amnt!=0){\r\n                uint256 proportionUnderwritten = Math.div(liquidityProviders[issued][i].underwritten, totalUnderwritten[issued], false);\r\n                uint256 prorataAmount = Math.mul(proportionUnderwritten, subscribed[poolid][asset]);\r\n                // transfer allotted amount to asset manager\r\n                if(prorataAmount > amnt){\r\n                    IERC20(asset).transfer(mmtokens[issued][asset][0].owner, Math.sub(amnt, Math.mul(amnt, swapFeePercentage)));\r\n                    SafeMath.add(liquidityProviders[issued][i].subscribed, amnt);\r\n                    amnt = 0;\r\n                }\r\n                else{\r\n                    IERC20(asset).transfer(mmtokens[issued][asset][0].owner, Math.sub(prorataAmount, Math.mul(prorataAmount, swapFeePercentage)));\r\n                    SafeMath.add(liquidityProviders[issued][i].subscribed, prorataAmount);\r\n                    amnt = Math.sub(amnt, prorataAmount);\r\n                }\r\n            }\r\n        }\r\n    }\r\n\r\n    /**\r\n        Called by issuer to reject subscription to issue by investor\r\n        @param  poolid      identifier for primary issue pool to which investor has subscribed\r\n        @param  investor    address of investor (subscriber)\r\n     */ \r\n    function reject(bytes32 poolid, address investor, bytes32 _hashedMessage, uint8 _v, bytes32 _r, bytes32 _s) override external {\r\n        bytes32 messageHash = keccak256(abi.encodePacked(\"\\x19Ethereum Signed Message:\\n32\", keccak256(abi.encode(_hashedMessage, \"L2toL1\"))));\r\n        (bytes32 role, ) = client.getRole(msg.sender);\r\n        require(ecrecover(messageHash, _v, _r, _s)== bridge || role=='AM', \"Unauthorized access making allotment in primary pool.\");\r\n        uint256 i = subscriberIndex[poolid][investor];\r\n        if(i>0){\r\n            IERC20(investors[poolid][i-1].asset).transfer(investor, investors[poolid][i-1].amount);\r\n        }\r\n    }    \r\n\r\n    /**\r\n        Called by product issuer to settle distribution of fee income arising from investment underwritten in the primary issue pool\r\n        @param  poolId  identifier for primary issue pool\r\n     */  \r\n    function settle(bytes32 poolId, bytes32 _hashedMessage, uint8 _v, bytes32 _r, bytes32 _s) override external {\r\n        bytes32 payloadHash = keccak256(abi.encode(_hashedMessage, \"L2toL1\"));\r\n        bytes32 messageHash = keccak256(abi.encodePacked(\"\\x19Ethereum Signed Message:\\n32\", payloadHash));\r\n        (bytes32 role, ) = client.getRole(msg.sender);\r\n        require(ecrecover(messageHash, _v, _r, _s)== bridge || role=='AM', \"Unauthorized access settling primary pool capital.\");\r\n        onSettle(poolId);\r\n    }\r\n\r\n    function onSettle(bytes32 poolId) private {        \r\n        uint256 totalLiquidityProvided = totalUnderwritten[poolSecurity[poolId]];\r\n        address currency = IPrimaryIssuePool(pools[poolId]).getCurrency(); \r\n        uint256 totalCapitalRaised = subscribed[poolId][currency];\r\n        uint256 issuingFee = Math.mul(totalCapitalRaised, swapFeePercentage);\r\n        uint256 prorataLiquidityProvided =0;\r\n        uint256 underwritingFee = 0;\r\n        for(uint i=0; i<liquidityProviders[poolSecurity[poolId]].length; i++){\r\n            prorataLiquidityProvided = Math.div(liquidityProviders[poolSecurity[poolId]][i].underwritten, totalLiquidityProvided, false);\r\n            underwritingFee = Math.mul(issuingFee, prorataLiquidityProvided);\r\n            ILiquidity(LiquidityContract).distribute(underwritingFee, \r\n                                                    liquidityProviders[poolSecurity[poolId]][i].tokenOffered,\r\n                                                    liquidityProviders[poolSecurity[poolId]][i].owner);\r\n            liquidityProviders[poolSecurity[poolId]][i].earned = Math.add(liquidityProviders[poolSecurity[poolId]][i].earned, underwritingFee);\r\n        }\r\n        fees[currency] = Math.add(fees[currency], issuingFee);\r\n        delete investors[poolId];   \r\n    }   \r\n\r\n    function getIssuingFeeCollected(address _token) override external returns(uint256){\r\n        require(msg.sender==distribution, \"Unauthorized fee collection request\");\r\n        uint256 feeCollected = fees[_token];\r\n        IERC20(_token).transfer(distribution, feeCollected);\r\n        fees[_token] = Math.sub(fees[_token], feeCollected);\r\n        return feeCollected;\r\n    }\r\n\r\n    function getOwner() override external view returns(address){\r\n        return owner();\r\n    }\r\n\r\n    /**\r\n     * @dev This helper function is a fast and cheap way to convert between IERC20[] and IAsset[] types\r\n     */\r\n    function _convertERC20sToAssets(IERC20[] memory tokens) internal pure returns (IAsset[] memory assets) {\r\n        // solhint-disable-next-line no-inline-assembly\r\n        assembly {\r\n            assets := tokens\r\n        }\r\n    }\r\n   \r\n}",
  "sourcePath": "D:\\Code\\verified-balancer\\contracts\\PrimaryIssueManager.sol",
  "compiler": {
    "name": "solc",
    "version": "0.7.1+commit.f4a555be.Emscripten.clang"
  },
  "schemaVersion": "3.4.3",
  "updatedAt": "2023-01-13T12:46:01.849Z",
  "networkType": "ethereum",
  "devdoc": {
    "kind": "dev",
    "methods": {
      "accept(bytes32,address,uint256,address,bytes32,uint8,bytes32,bytes32)": {
        "params": {
          "amnt": "amount of investment (subscription capital) accepted by issuer for which allotment of security tokens are made to investor",
          "asset": "address of asset which is used by investor to subscribe to the issue",
          "investor": "address of investor (subscriber)",
          "poolid": "identifier of primary issue pool in which subscription is made by investor"
        }
      },
      "close(address,bool,bytes32,uint8,bytes32,bytes32)": {
        "params": {
          "security": "address of security token"
        }
      },
      "getAllotedStake(address)": {
        "params": {
          "_token": "address of token allocated earlier to asset manager (message sender)"
        }
      },
      "getLiquidityProviders(address)": {
        "params": {
          "_security": "identifier for the security token offered"
        }
      },
      "getOfferMade(address,address)": {
        "params": {
          "_owned": "address of token offered",
          "_tomatch": "address of token to match"
        }
      },
      "getOffered(address)": {
        "params": {
          "offered": "address of offered token"
        }
      },
      "getSubscribers(bytes32,bytes32,uint8,bytes32,bytes32)": {
        "params": {
          "poolId": "identifier for a primary issue pool for which subscribers are to be returned"
        }
      },
      "initialize(address,uint256,address,address,address,address,address,address)": {
        "params": {
          "_factory": "reference to the primary issue pool factory contract",
          "_products": "reference to the Verified Products contract that this contract reports created primary issue pools to",
          "_swapFeePercentage": "percentage of trading fee to be charged by the asset manager",
          "_vault": "reference to the Balancer vault"
        }
      },
      "issue(address,uint256,address,bytes32,uint8,bytes32,bytes32)": {
        "params": {
          "cutoffTime": "time in milliseconds by when offer closes",
          "security": "security offered to the primary issue pool"
        }
      },
      "offer(address,bytes32,uint256,address,uint256,uint256,address,string)": {
        "params": {
          "desired": "is the amount required of the liquidity token to be paired",
          "docs": "is the ipfs address of the offering docs",
          "isin": "is the identifier for the security token offered",
          "min": "is the minimum amount to be swapped of the 'offered' token ",
          "offered": "is the amount offered",
          "owned": "is the security or settlement token on offer ",
          "owner": "is the current holder of the owned token that is offered",
          "tomatch": "is the liquidity token that is required to be paired"
        }
      },
      "owner()": {
        "details": "Returns the address of the current owner."
      },
      "reject(bytes32,address,bytes32,uint8,bytes32,bytes32)": {
        "params": {
          "investor": "address of investor (subscriber)",
          "poolid": "identifier for primary issue pool to which investor has subscribed"
        }
      },
      "renounceOwnership()": {
        "details": "Leaves the contract without owner. It will not be possible to call `onlyOwner` functions anymore. Can only be called by the current owner. NOTE: Renouncing ownership will leave the contract without an owner, thereby removing any functionality that is only available to the owner."
      },
      "settle(bytes32,bytes32,uint8,bytes32,bytes32)": {
        "params": {
          "poolId": "identifier for primary issue pool"
        }
      },
      "stake(uint256,address,address)": {
        "params": {
          "_amount": "amount of tokens staked to provide liquidity for underwriting investments in tokenized securities",
          "_manager": "address of asset manager",
          "_token": "address of token staked"
        }
      },
      "transferOwnership(address)": {
        "details": "Transfers ownership of the contract to a new account (`newOwner`). Can only be called by the current owner."
      }
    },
    "version": 1
  },
  "userdoc": {
    "kind": "user",
    "methods": {
      "accept(bytes32,address,uint256,address,bytes32,uint8,bytes32,bytes32)": {
        "notice": "Called by issuer to accept subscription to issue by investor"
      },
      "close(address,bool,bytes32,uint8,bytes32,bytes32)": {
        "notice": "Called by issuer to close subscription of 'security' issued by it"
      },
      "getAllotedStake(address)": {
        "notice": "Gets liquidity allotted for asset manager (message sender)"
      },
      "getLiquidityProviders(address)": {
        "notice": "Fetches liquidity providers for a security token"
      },
      "getOfferMade(address,address)": {
        "notice": "Gets offer made previously"
      },
      "getOffered(address)": {
        "notice": "Gets tokens to match for offered token"
      },
      "getSubscribers(bytes32,bytes32,uint8,bytes32,bytes32)": {
        "notice": "Fetches investors (subscribers) to a primary issue pool"
      },
      "initialize(address,uint256,address,address,address,address,address,address)": {
        "notice": "Initializes this asset management contract"
      },
      "issue(address,uint256,address,bytes32,uint8,bytes32,bytes32)": {
        "notice": "Called by issuer of 'security' token to open an issue which will last till 'cutoffTime'"
      },
      "offer(address,bytes32,uint256,address,uint256,uint256,address,string)": {
        "notice": "Called by market maker and issuer for adding liquidity"
      },
      "reject(bytes32,address,bytes32,uint8,bytes32,bytes32)": {
        "notice": "Called by issuer to reject subscription to issue by investor"
      },
      "settle(bytes32,bytes32,uint8,bytes32,bytes32)": {
        "notice": "Called by product issuer to settle distribution of fee income arising from investment underwritten in the primary issue pool"
      },
      "stake(uint256,address,address)": {
        "notice": "Called by Liquidity token contract to stake tokens by investors"
      }
    },
    "version": 1
  }
}