{
  "contractName": "SecondaryIssueManager",
  "abi": [
    {
      "anonymous": false,
      "inputs": [
        {
          "indexed": true,
          "internalType": "address",
          "name": "previousOwner",
          "type": "address"
        },
        {
          "indexed": true,
          "internalType": "address",
          "name": "newOwner",
          "type": "address"
        }
      ],
      "name": "OwnershipTransferred",
      "type": "event"
    },
    {
      "anonymous": false,
      "inputs": [
        {
          "indexed": true,
          "internalType": "address",
          "name": "transferor",
          "type": "address"
        },
        {
          "indexed": true,
          "internalType": "address",
          "name": "transferee",
          "type": "address"
        },
        {
          "indexed": false,
          "internalType": "uint256",
          "name": "unitsToTransfer",
          "type": "uint256"
        },
        {
          "indexed": false,
          "internalType": "address",
          "name": "security",
          "type": "address"
        },
        {
          "indexed": false,
          "internalType": "uint256",
          "name": "price",
          "type": "uint256"
        },
        {
          "indexed": false,
          "internalType": "address",
          "name": "currency",
          "type": "address"
        }
      ],
      "name": "tradeSettled",
      "type": "event"
    },
    {
      "inputs": [],
      "name": "factory",
      "outputs": [
        {
          "internalType": "contract ISecondaryIssuePoolFactory",
          "name": "",
          "type": "address"
        }
      ],
      "stateMutability": "view",
      "type": "function",
      "constant": true
    },
    {
      "inputs": [],
      "name": "owner",
      "outputs": [
        {
          "internalType": "address",
          "name": "",
          "type": "address"
        }
      ],
      "stateMutability": "view",
      "type": "function",
      "constant": true
    },
    {
      "inputs": [],
      "name": "renounceOwnership",
      "outputs": [],
      "stateMutability": "nonpayable",
      "type": "function"
    },
    {
      "inputs": [
        {
          "internalType": "address",
          "name": "newOwner",
          "type": "address"
        }
      ],
      "name": "transferOwnership",
      "outputs": [],
      "stateMutability": "nonpayable",
      "type": "function"
    },
    {
      "inputs": [
        {
          "internalType": "address",
          "name": "_factory",
          "type": "address"
        },
        {
          "internalType": "uint256",
          "name": "_issueFeePercentage",
          "type": "uint256"
        },
        {
          "internalType": "address",
          "name": "_client",
          "type": "address"
        }
      ],
      "name": "initialize",
      "outputs": [],
      "stateMutability": "nonpayable",
      "type": "function"
    },
    {
      "inputs": [
        {
          "internalType": "address",
          "name": "_signer",
          "type": "address"
        }
      ],
      "name": "setSigner",
      "outputs": [],
      "stateMutability": "nonpayable",
      "type": "function"
    },
    {
      "inputs": [
        {
          "internalType": "address",
          "name": "security",
          "type": "address"
        },
        {
          "internalType": "address",
          "name": "currency",
          "type": "address"
        },
        {
          "internalType": "uint256",
          "name": "amount",
          "type": "uint256"
        },
        {
          "internalType": "bytes32",
          "name": "id",
          "type": "bytes32"
        },
        {
          "internalType": "bytes32",
          "name": "_hashedMessage",
          "type": "bytes32"
        },
        {
          "internalType": "uint8",
          "name": "_v",
          "type": "uint8"
        },
        {
          "internalType": "bytes32",
          "name": "_r",
          "type": "bytes32"
        },
        {
          "internalType": "bytes32",
          "name": "_s",
          "type": "bytes32"
        }
      ],
      "name": "issueSecondary",
      "outputs": [],
      "stateMutability": "nonpayable",
      "type": "function"
    },
    {
      "inputs": [
        {
          "components": [
            {
              "internalType": "bytes32",
              "name": "partyRef",
              "type": "bytes32"
            },
            {
              "internalType": "bool",
              "name": "partySwapIn",
              "type": "bool"
            },
            {
              "internalType": "string",
              "name": "partyTokenIn",
              "type": "string"
            },
            {
              "internalType": "uint256",
              "name": "partyInAmount",
              "type": "uint256"
            },
            {
              "internalType": "address",
              "name": "party",
              "type": "address"
            },
            {
              "internalType": "bytes32",
              "name": "counterpartyRef",
              "type": "bytes32"
            },
            {
              "internalType": "bool",
              "name": "counterpartySwapIn",
              "type": "bool"
            },
            {
              "internalType": "string",
              "name": "counterpartyTokenIn",
              "type": "string"
            },
            {
              "internalType": "uint256",
              "name": "counterpartyInAmount",
              "type": "uint256"
            },
            {
              "internalType": "address",
              "name": "counterparty",
              "type": "address"
            },
            {
              "internalType": "address",
              "name": "security",
              "type": "address"
            },
            {
              "internalType": "address",
              "name": "currency",
              "type": "address"
            },
            {
              "internalType": "uint256",
              "name": "price",
              "type": "uint256"
            },
            {
              "internalType": "enum IOrder.OrderType",
              "name": "otype",
              "type": "uint8"
            },
            {
              "internalType": "uint256",
              "name": "dt",
              "type": "uint256"
            }
          ],
          "internalType": "struct ITrade.trade",
          "name": "tradeToReport",
          "type": "tuple"
        },
        {
          "internalType": "contract IOrder",
          "name": "orderbook",
          "type": "address"
        }
      ],
      "name": "requestSettlement",
      "outputs": [],
      "stateMutability": "nonpayable",
      "type": "function"
    },
    {
      "inputs": [
        {
          "internalType": "bytes32",
          "name": "dpid",
          "type": "bytes32"
        }
      ],
      "name": "getSettlementRequests",
      "outputs": [
        {
          "internalType": "bytes32[]",
          "name": "",
          "type": "bytes32[]"
        }
      ],
      "stateMutability": "view",
      "type": "function",
      "constant": true
    },
    {
      "inputs": [
        {
          "internalType": "bytes32",
          "name": "ref",
          "type": "bytes32"
        }
      ],
      "name": "getSettlementRequest",
      "outputs": [
        {
          "components": [
            {
              "internalType": "address",
              "name": "transferor",
              "type": "address"
            },
            {
              "internalType": "address",
              "name": "transferee",
              "type": "address"
            },
            {
              "internalType": "address",
              "name": "security",
              "type": "address"
            },
            {
              "internalType": "bytes32",
              "name": "status",
              "type": "bytes32"
            },
            {
              "internalType": "bytes32",
              "name": "transferorDPID",
              "type": "bytes32"
            },
            {
              "internalType": "bytes32",
              "name": "transfereeDPID",
              "type": "bytes32"
            },
            {
              "internalType": "address",
              "name": "currency",
              "type": "address"
            },
            {
              "internalType": "uint256",
              "name": "price",
              "type": "uint256"
            },
            {
              "internalType": "uint256",
              "name": "askprice",
              "type": "uint256"
            },
            {
              "internalType": "uint256",
              "name": "unitsToTransfer",
              "type": "uint256"
            },
            {
              "internalType": "uint256",
              "name": "consideration",
              "type": "uint256"
            },
            {
              "internalType": "uint256",
              "name": "executionDate",
              "type": "uint256"
            },
            {
              "internalType": "contract IOrder",
              "name": "orderPool",
              "type": "address"
            },
            {
              "internalType": "bytes32",
              "name": "partyRef",
              "type": "bytes32"
            },
            {
              "internalType": "bytes32",
              "name": "counterpartyRef",
              "type": "bytes32"
            }
          ],
          "internalType": "struct ISettlor.settlement",
          "name": "",
          "type": "tuple"
        }
      ],
      "stateMutability": "view",
      "type": "function",
      "constant": true
    },
    {
      "inputs": [
        {
          "internalType": "bytes32",
          "name": "ref",
          "type": "bytes32"
        },
        {
          "internalType": "bytes32",
          "name": "status",
          "type": "bytes32"
        }
      ],
      "name": "setSettlementStatus",
      "outputs": [],
      "stateMutability": "nonpayable",
      "type": "function"
    },
    {
      "inputs": [
        {
          "internalType": "bytes32",
          "name": "ref",
          "type": "bytes32"
        }
      ],
      "name": "getTrade",
      "outputs": [
        {
          "internalType": "uint256",
          "name": "",
          "type": "uint256"
        },
        {
          "internalType": "uint256",
          "name": "",
          "type": "uint256"
        }
      ],
      "stateMutability": "view",
      "type": "function",
      "constant": true
    }
  ],
  "bytecode": "0x608060405234801561001057600080fd5b50600080546001600160a01b0319163390811782556040519091907f8be0079c531659141344cd1fd0a4f28419497f9722a3daafe3b4186f6b6457e0908290a36122178061005f6000396000f3fe608060405234801561001057600080fd5b50600436106100b45760003560e01c80638da5cb5b116100715780638da5cb5b14610145578063a3b137991461015a578063b4628cc51461017b578063c350a1b51461018e578063c45a0155146101a1578063f2fde38b146101a9576100b4565b806304967159146100b95780632ac53ebd146100ce5780636c19e783146100f7578063715018a61461010a57806379a7dc0e146101125780637dd645db14610132575b600080fd5b6100cc6100c7366004611b0a565b6101bc565b005b6100e16100dc366004611ada565b610aee565b6040516100ee9190611e28565b60405180910390f35b6100cc6101053660046119c7565b610be8565b6100cc610c28565b610125610120366004611ada565b610c7e565b6040516100ee9190612046565b6100cc6101403660046119ff565b610d5a565b61014d611166565b6040516100ee9190611df0565b61016d610168366004611ada565b611175565b6040516100ee929190611d6d565b6100cc610189366004611bc1565b611192565b6100cc61019c366004611a7d565b611679565b61014d6116b9565b6100cc6101b73660046119c7565b6116c8565b600654604051634427673360e01b815260009182916001600160a01b03909116906344276733906101f1903390600401611df0565b604080518083038186803b15801561020857600080fd5b505afa15801561021c573d6000803e3d6000fd5b505050506040513d601f19601f820116820180604052508101906102409190611b2b565b915091508161044560f41b146102715760405162461bcd60e51b815260040161026890611fb3565b60405180910390fd5b600084815260036020526040902060048101546005909101548282148061029757508083145b6102b35760405162461bcd60e51b815260040161026890611f2b565b8466436f6e6669726d60c81b14806102d35750846514995a9958dd60d21b145b6102ef5760405162461bcd60e51b815260040161026890611f7c565b600086815260036020819052604082200186905566436f6e6669726d60c81b8614156109b757600087815260036020526040812060078101546009909101546103389190611746565b6000898152600360205260409081902060068101546001820154915492516323b872dd60e01b81529394506001600160a01b03908116936323b872dd936103889383169216908690600401611e04565b602060405180830381600087803b1580156103a257600080fd5b505af11580156103b6573d6000803e3d6000fd5b505050506040513d601f19601f820116820180604052508101906103da9190611abe565b156109b1576000888152600360205260409081902060028101548154600183015460099093015493516323b872dd60e01b81526001600160a01b03928316946323b872dd9461043194938416931691600401611e04565b602060405180830381600087803b15801561044b57600080fd5b505af115801561045f573d6000803e3d6000fd5b505050506040513d601f19601f820116820180604052508101906104839190611abe565b915081156107f55760008881526003602052604090819020600c810154600d820154600e9092015492516309e722a360e11b81526001600160a01b03909116926313ce4546926104d892909190600401611d6d565b600060405180830381600087803b1580156104f257600080fd5b505af1158015610506573d6000803e3d6000fd5b50505060008981526003602052604090819020600c810154600d820154600e9092015492516304d6892760e41b81526001600160a01b039091169350634d689270926105559291600401611d6d565b600060405180830381600087803b15801561056f57600080fd5b505af1158015610583573d6000803e3d6000fd5b505050600089815260036020526040908190206001810154815460098301546002840154600785015460069095015495516001600160a01b039485169750928416957fdb2a2159f49495b71579b052eff497e50c97deeb73b10e7e46de4f669dcb58f7956105fb959394928416939092911690612119565b60405180910390a360005b6000858152600460205260409020548110156106e957600085815260046020526040902080548a91908390811061063957fe5b906000526020600020015414156106e1576000858152600460205260409020546000190181141561068e57600085815260046020526040902080548290811061067e57fe5b60009182526020822001556106e1565b60008581526004602052604090208054600183019081106106ab57fe5b90600052602060002001546004600087815260200190815260200160002082815481106106d457fe5b6000918252602090912001555b600101610606565b5060005b6000848152600460205260409020548110156107d057600084815260046020526040902080548a91908390811061072057fe5b906000526020600020015414156107c8576000848152600460205260409020546000190181141561077557600084815260046020526040902080548290811061076557fe5b60009182526020822001556107c8565b600084815260046020526040902080546001830190811061079257fe5b90600052602060002001546004600086815260200190815260200160002082815481106107bb57fe5b6000918252602090912001555b6001016106ed565b50600088815260036020819052604090912066436f6e6669726d60c81b9101556109b1565b60008881526003602052604090819020600c810154600d8201546009909201549251634c4d820960e01b81526001600160a01b0390911692634c4d82099261084592909190600190600401611e93565b600060405180830381600087803b15801561085f57600080fd5b505af1158015610873573d6000803e3d6000fd5b505050600089815260036020526040808220600c810154600e820154600a909201549251634c4d820960e01b81526001600160a01b039091169450634c4d8209936108c19391600401611e93565b600060405180830381600087803b1580156108db57600080fd5b505af11580156108ef573d6000803e3d6000fd5b505050600089815260036020526040908190206006810154815460019092015492516323b872dd60e01b81526001600160a01b0391821694506323b872dd936109419383169216908690600401611e04565b602060405180830381600087803b15801561095b57600080fd5b505af115801561096f573d6000803e3d6000fd5b505050506040513d601f19601f820116820180604052508101906109939190611abe565b5060008881526003602081905260409091206311985a5b60e21b9101555b50610ae5565b856514995a9958dd60d21b1415610ae55760008781526003602052604090819020600c810154600d8201546009909201549251634c4d820960e01b81526001600160a01b0390911692634c4d820992610a1892909190600190600401611e93565b600060405180830381600087803b158015610a3257600080fd5b505af1158015610a46573d6000803e3d6000fd5b505050600088815260036020526040808220600c810154600e820154600a909201549251634c4d820960e01b81526001600160a01b039091169450634c4d820993610a949391600401611e93565b600060405180830381600087803b158015610aae57600080fd5b505af1158015610ac2573d6000803e3d6000fd5b50505060008881526003602081905260409091206514995a9958dd60d21b910155505b50505050505050565b600654604051634427673360e01b81526060916000916001600160a01b0390911690634427673390610b24903390600401611df0565b604080518083038186803b158015610b3b57600080fd5b505afa158015610b4f573d6000803e3d6000fd5b505050506040513d601f19601f82011682018060405250810190610b739190611b2b565b5090508061044560f41b14610b8757600080fd5b60008381526004602090815260409182902080548351818402810184019094528084529091830182828015610bdb57602002820191906000526020600020905b815481526020019060010190808311610bc7575b5050505050915050919050565b610c0633610bf4611166565b6001600160a01b0316146101aa611773565b600780546001600160a01b0319166001600160a01b0392909216919091179055565b610c3433610bf4611166565b600080546040516001600160a01b03909116907f8be0079c531659141344cd1fd0a4f28419497f9722a3daafe3b4186f6b6457e0908390a3600080546001600160a01b0319169055565b610c866118d3565b81610c9057600080fd5b5060009081526003602081815260409283902083516101e08101855281546001600160a01b0390811682526001830154811693820193909352600282015483169481019490945291820154606084015260048201546080840152600582015460a08401526006820154811660c0840152600782015460e084015260088201546101008401526009820154610120840152600a820154610140840152600b820154610160840152600c82015416610180830152600d8101546101a0830152600e01546101c082015290565b600084604051602001610d6d9190611e6c565b604051602081830303815290604052805190602001209050600081604051602001610d989190611d97565b60408051601f19818403018152828252805160209182012060075460008552939091019182905292506001600160a01b0390911690600190610de1908490899089908990611eb9565b6020604051602081039080840390855afa158015610e03573d6000803e3d6000fd5b505050602060405103516001600160a01b03161480610fad57506040516370a0823160e01b815288906001600160a01b038c16906370a0823190610e4b903390600401611df0565b60206040518083038186803b158015610e6357600080fd5b505afa158015610e77573d6000803e3d6000fd5b505050506040513d601f19601f82011682018060405250810190610e9b9190611af2565b11158015610f2557506040516370a0823160e01b81526000906001600160a01b038c16906370a0823190610ed3903390600401611df0565b60206040518083038186803b158015610eeb57600080fd5b505afa158015610eff573d6000803e3d6000fd5b505050506040513d601f19601f82011682018060405250810190610f239190611af2565b115b8015610fad57506040516370a0823160e01b81526000906001600160a01b038b16906370a0823190610f5b903390600401611df0565b60206040518083038186803b158015610f7357600080fd5b505afa158015610f87573d6000803e3d6000fd5b505050506040513d601f19601f82011682018060405250810190610fab9190611af2565b115b610fb657600080fd5b6000600160009054906101000a90046001600160a01b03166001600160a01b03166374dcc7a48c6001600160a01b03166306fdde036040518163ffffffff1660e01b815260040160006040518083038186803b15801561101557600080fd5b505afa158015611029573d6000803e3d6000fd5b505050506040513d6000823e601f3d908101601f191682016040526110519190810190611b4e565b8d6001600160a01b03166395d89b416040518163ffffffff1660e01b815260040160006040518083038186803b15801561108a57600080fd5b505afa15801561109e573d6000803e3d6000fd5b505050506040513d6000823e601f3d908101601f191682016040526110c69190810190611b4e565b8e8e8e6002546040518763ffffffff1660e01b81526004016110ed96959493929190611ed7565b602060405180830381600087803b15801561110757600080fd5b505af115801561111b573d6000803e3d6000fd5b505050506040513d601f19601f8201168201806040525081019061113f91906119e3565b6001600160a01b031660009081526005602052604090209790975550505050505050505050565b6000546001600160a01b031690565b600090815260036020526040902060078101546008909101549091565b336000908152600560205260409020546111be5760405162461bcd60e51b815260040161026890612000565b60006040516020016111cf90611ddc565b6040516020818303038152906040528051906020012083604001516040516020016111fa9190611d7b565b604051602081830303815290604052805190602001201461122057826101200151611226565b82608001515b9050600060405160200161123990611dc8565b6040516020818303038152906040528051906020012084604001516040516020016112649190611d7b565b604051602081830303815290604052805190602001201461128a57836101200151611290565b83608001515b905060006040516020016112a390611ddc565b6040516020818303038152906040528051906020012085604001516040516020016112ce9190611d7b565b60405160208183030381529060405280519060200120146112f4578461010001516112fa565b84606001515b9050600061130784611785565b9050600061131484611785565b905061131e6118d3565b604051806101e00160405280876001600160a01b03168152602001866001600160a01b031681526020018961014001516001600160a01b031681526020016650656e64696e6760c81b81526020018381526020018481526020018961016001516001600160a01b0316815260200189610180015181526020016114086040516020016113a990611dc8565b604051602081830303815290604052805190602001208b604001516040516020016113d49190611d7b565b60405160208183030381529060405280519060200120146113fa578a6101000151611400565b8a606001515b876000611805565b81526020018581526020016114228a610180015187611746565b8152602001896101c001518152602001886001600160a01b0316815260200160405160200161145090611ddc565b604051602081830303815290604052805190602001208a6040015160405160200161147b9190611d7b565b60405160208183030381529060405280519060200120146114a0578960a001516114a3565b89515b81526020016040516020016114b790611ddc565b604051602081830303815290604052805190602001208a604001516040516020016114e29190611d7b565b6040516020818303038152906040528051906020012014611507578960a0015161150a565b89515b9052885160a08a015160405192935060009261152a929190602001611d6d565b60408051808303601f19018152918152815160209283012060008181526003808552838220875181546001600160a01b03199081166001600160a01b0392831617835589880151600180850180548416928516929092179091558a880151600285018054841691851691909117905560608b01519484019490945560808a0151600480850182905560a08c018051600587015560c08d0151600687018054861691871691909117905560e08d015160078701556101008d015160088701556101208d015160098701556101408d0151600a8701556101608d0151600b8701556101808d0151600c870180549095169516949094179092556101a08b0151600d8501556101c0909a0151600e909301929092559783528552838220805480830182559083528583200183905595518152918220805495860181558252919020909201919091555050505050505050565b61168533610bf4611166565b600180546001600160a01b039485166001600160a01b03199182161790915560029290925560068054919093169116179055565b6001546001600160a01b031681565b6116d433610bf4611166565b6116eb6001600160a01b03821615156101ab611773565b600080546040516001600160a01b03808516939216917f8be0079c531659141344cd1fd0a4f28419497f9722a3daafe3b4186f6b6457e091a3600080546001600160a01b0319166001600160a01b0392909216919091179055565b600082820261176a84158061176357508385838161176057fe5b04145b6003611773565b90505b92915050565b81611781576117818161182d565b5050565b60065460405162157d5560e61b81526000916001600160a01b03169063055f5540906117b5908590600401611df0565b60206040518083038186803b1580156117cd57600080fd5b505afa1580156117e1573d6000803e3d6000fd5b505050506040513d601f19601f8201168201806040525081019061176d9190611af2565b60008161181b576118168484611880565b611825565b61182584846118a0565b949350505050565b62461bcd60e51b6000908152602060045260076024526642414c23000030600a808404818106603090810160081b95839006959095019082900491820690940160101b939093010160c81b604452606490fd5b600061188f8215156004611773565b81838161189857fe5b049392505050565b60006118af8215156004611773565b826118bc5750600061176d565b8160018403816118c857fe5b04600101905061176d565b604080516101e081018252600080825260208201819052918101829052606081018290526080810182905260a0810182905260c0810182905260e08101829052610100810182905261012081018290526101408101829052610160810182905261018081018290526101a081018290526101c081019190915290565b803561176d816121bb565b803561176d816121d3565b80356003811061176d57600080fd5b600082601f830112611984578081fd5b813561199761199282612167565b612140565b91508082528360208285010111156119ae57600080fd5b8060208401602084013760009082016020015292915050565b6000602082840312156119d8578081fd5b813561176a816121bb565b6000602082840312156119f4578081fd5b815161176a816121bb565b600080600080600080600080610100898b031215611a1b578384fd5b8835611a26816121bb565b97506020890135611a36816121bb565b965060408901359550606089013594506080890135935060a089013560ff81168114611a60578384fd5b979a969950949793969295929450505060c08201359160e0013590565b600080600060608486031215611a91578283fd5b8335611a9c816121bb565b9250602084013591506040840135611ab3816121bb565b809150509250925092565b600060208284031215611acf578081fd5b815161176a816121d3565b600060208284031215611aeb578081fd5b5035919050565b600060208284031215611b03578081fd5b5051919050565b60008060408385031215611b1c578182fd5b50508035926020909101359150565b60008060408385031215611b3d578182fd5b505080516020909101519092909150565b600060208284031215611b5f578081fd5b815167ffffffffffffffff811115611b75578182fd5b8201601f81018413611b85578182fd5b8051611b9361199282612167565b818152856020838501011115611ba7578384fd5b611bb882602083016020860161218b565b95945050505050565b60008060408385031215611bd3578182fd5b823567ffffffffffffffff80821115611bea578384fd5b81850191506101e0808388031215611c00578485fd5b611c0981612140565b905082358152611c1c876020850161195a565b6020820152604083013582811115611c32578586fd5b611c3e88828601611974565b60408301525060608301356060820152611c5b876080850161194f565b608082015260a083013560a0820152611c778760c0850161195a565b60c082015260e083013582811115611c8d578586fd5b611c9988828601611974565b60e08301525061010083810135908201526101209150611cbb8783850161194f565b828201526101409150611cd08783850161194f565b828201526101609150611ce58783850161194f565b82820152610180915081830135828201526101a09150611d0787838501611965565b828201526101c091508183013582820152809450505050611d2b846020850161194f565b90509250929050565b6001600160a01b03169052565b60008151808452611d5981602086016020860161218b565b601f01601f19169290920160200192915050565b918252602082015260400190565b60008251611d8d81846020870161218b565b9190910192915050565b7f19457468657265756d205369676e6564204d6573736167653a0a3332000000008152601c810191909152603c0190565b6763757272656e637960c01b815260080190565b67736563757269747960c01b815260080190565b6001600160a01b0391909116815260200190565b6001600160a01b039384168152919092166020820152604081019190915260600190565b6020808252825182820181905260009190848201906040850190845b81811015611e6057835183529284019291840191600101611e44565b50909695505050505050565b908152604060208201819052600690820152654c32746f4c3160d01b606082015260800190565b838152602081018390526060810160028310611eab57fe5b826040830152949350505050565b93845260ff9290921660208401526040830152606082015260800190565b600060c08252611eea60c0830189611d41565b8281036020840152611efc8189611d41565b6001600160a01b03978816604085015295909616606083015250608081019290925260a0909101529392505050565b60208082526031908201527f536574746c656d656e7420646f6e6520627920696e76616c6964206465706f736040820152701a5d185c9e481c185c9d1a58da5c185b9d607a1b606082015260800190565b60208082526019908201527f536574746c656d656e742073746174757320696e76616c696400000000000000604082015260600190565b6020808252602d908201527f536574746c656d656e74206e6f7420646f6e65206279206465706f736974617260408201526c1e481c185c9d1a58da5c185b9d609a1b606082015260800190565b60208082526026908201527f536574746c656d656e74207265717565737465642066726f6d20696e76616c6960408201526519081c1bdbdb60d21b606082015260800190565b60006101e08201905061205a828451611d34565b602083015161206c6020840182611d34565b50604083015161207f6040840182611d34565b50606083015160608301526080830151608083015260a083015160a083015260c08301516120b060c0840182611d34565b5060e083810151908301526101008084015190830152610120808401519083015261014080840151908301526101608084015190830152610180808401516120fa82850182611d34565b50506101a083810151908301526101c092830151929091019190915290565b9384526001600160a01b039283166020850152604084019190915216606082015260800190565b60405181810167ffffffffffffffff8111828210171561215f57600080fd5b604052919050565b600067ffffffffffffffff82111561217d578081fd5b50601f01601f191660200190565b60005b838110156121a657818101518382015260200161218e565b838111156121b5576000848401525b50505050565b6001600160a01b03811681146121d057600080fd5b50565b80151581146121d057600080fdfea26469706673582212205ec32752bb5f24dd7421b7bd1b25af75511b9063902a9ae767e39f3186fd18b264736f6c63430007010033",
  "immutableReferences": {},
  "source": "// External interface for settlement of trades\n// (c) Kallol Borah, 2022\n// \"SPDX-License-Identifier: BUSL1.1\"\n\npragma solidity 0.7.1;\npragma experimental ABIEncoderV2;\n\nimport \"./interfaces/ISettlor.sol\";\nimport \"./interfaces/IOrder.sol\";\nimport \"./interfaces/ITrade.sol\";\nimport './interfaces/VerifiedClient.sol';\nimport \"./interfaces/ISecondaryIssuePool.sol\";\nimport \"./interfaces/ISecondaryIssuePoolFactory.sol\";\n\nimport \"@balancer-labs/v2-solidity-utils/contracts/math/Math.sol\";\nimport \"@balancer-labs/v2-solidity-utils/contracts/openzeppelin/ERC20.sol\";\nimport \"@balancer-labs/v2-solidity-utils/contracts/openzeppelin/IERC20.sol\";\nimport \"@balancer-labs/v2-solidity-utils/contracts/openzeppelin/Ownable.sol\";\n \ncontract SecondaryIssueManager is ISettlor, Ownable {\n\n    using Math for uint256;\n\n    // balancer variables\n    ISecondaryIssuePoolFactory public factory;\n\n    //fee\n    uint256 fee;\n\n    // mapping settlement ref to trade execution data\n    mapping(bytes32 => ISettlor.settlement) settlements;\n\n    //mapping depository participants to trades they are part of\n    mapping(bytes32 => bytes32[]) private trades;\n\n    //mapping pool address to pool id\n    mapping(address => bytes32) private pools;\n\n    // reference to the Verified Client contract\n    VerifiedClient client;\n\n    address private bridge;\n\n    event tradeSettled(address indexed transferor,\n                        address indexed transferee,\n                        uint256 unitsToTransfer,\n                        address security,\n                        uint256 price,\n                        address currency\n                    );\n\n    /**\n        Initializes this asset management contract\n        @param  _factory            reference to the secondary issue pool factory contract\n        @param  _issueFeePercentage  percentage of trading fee to be charged by the asset manager\n        @param  _client             address of Verified client contract\n     */\n    function initialize(address _factory, uint256 _issueFeePercentage, address _client) onlyOwner public {\n        factory = ISecondaryIssuePoolFactory(_factory);\n        fee = _issueFeePercentage;\n        client = VerifiedClient(_client);\n    }\n\n    function setSigner(address _signer) onlyOwner external{\n        bridge = _signer;\n    }\n\n    /**\n        Joins existing (secondary) tokenized assets into pool by primary issue token holders\n        @param  security    reference to asset issued\n        @param  currency    reference to cash (settlement) token\n        @param  amount      amount of asset issued in pool\n        @param  id          identifier (eg, ISIN) for asset issued\n     */\n    function issueSecondary(address security, address currency, uint256 amount, bytes32 id, bytes32 _hashedMessage, uint8 _v, bytes32 _r, bytes32 _s) override external {\n        bytes32 payloadHash = keccak256(abi.encode(_hashedMessage, \"L2toL1\"));\n        bytes32 messageHash = keccak256(abi.encodePacked(\"\\x19Ethereum Signed Message:\\n32\", payloadHash));\n        require(ecrecover(messageHash, _v, _r, _s)== bridge || (IERC20(security).balanceOf(msg.sender)<=amount &&\n                            IERC20(security).balanceOf(msg.sender)>0 && IERC20(currency).balanceOf(msg.sender)>0));\n        address pool = factory.create(\n            ERC20(security).name(),\n            ERC20(security).symbol(),\n            security,\n            currency,\n            amount,\n            fee\n        );\n        pools[pool] = id;\n        // initialize the pool here                \n        //ISecondaryIssuePool(pool).initialize();\n    }\n\n    /**\n        Used by Secondary pools to request settlement for trades\n        @param  tradeToReport     data structure holding order matching data\n     */\n    function requestSettlement(ITrade.trade memory tradeToReport, IOrder orderbook) override external {\n        require(pools[msg.sender]!=\"\", \"Settlement requested from invalid pool\");\n        address party = keccak256(abi.encodePacked(tradeToReport.partyTokenIn))==keccak256(abi.encodePacked(\"security\")) ? tradeToReport.party : tradeToReport.counterparty;\n        address counterparty = keccak256(abi.encodePacked(tradeToReport.partyTokenIn))==keccak256(abi.encodePacked(\"currency\")) ? tradeToReport.party : tradeToReport.counterparty;\n        uint256 amount = keccak256(abi.encodePacked(tradeToReport.partyTokenIn))==keccak256(abi.encodePacked(\"security\")) ? tradeToReport.partyInAmount : tradeToReport.counterpartyInAmount;\n        bytes32 _transfereeDPID = getTransferAgent(party);\n        bytes32 _transferorDPID = getTransferAgent(counterparty);\n        ISettlor.settlement memory tradeToSettle = ISettlor.settlement({\n            transferor: party,\n            transferee: counterparty,\n            security: tradeToReport.security,\n            status: \"Pending\",\n            currency: tradeToReport.currency,\n            price: tradeToReport.price,\n            askprice: Math.div(keccak256(abi.encodePacked(tradeToReport.partyTokenIn))==keccak256(abi.encodePacked(\"currency\")) ? tradeToReport.partyInAmount : tradeToReport.counterpartyInAmount, amount, false),\n            unitsToTransfer: amount,\n            consideration: Math.mul(tradeToReport.price, amount),\n            executionDate: tradeToReport.dt,\n            partyRef: keccak256(abi.encodePacked(tradeToReport.partyTokenIn))==keccak256(abi.encodePacked(\"security\")) ? tradeToReport.partyRef : tradeToReport.counterpartyRef,\n            counterpartyRef: keccak256(abi.encodePacked(tradeToReport.partyTokenIn))==keccak256(abi.encodePacked(\"security\")) ? tradeToReport.partyRef : tradeToReport.counterpartyRef,\n            transferorDPID: _transferorDPID,\n            transfereeDPID: _transfereeDPID,\n            orderPool: orderbook\n        });\n        bytes32 ref = keccak256(abi.encodePacked(tradeToReport.partyRef, tradeToReport.counterpartyRef));\n        settlements[ref] = tradeToSettle;\n        trades[tradeToSettle.transferorDPID].push(ref);\n        trades[tradeToSettle.transfereeDPID].push(ref);\n    }\n    \n    /**\n        Fetches trade settlement requests for depository participant\n        @param  dpid         identifier of depository participant (eg, transfer agent) that is authorized to settle the asset \n     */\n    function getSettlementRequests(bytes32 dpid) override external view returns(bytes32[] memory){\n        (bytes32 role, ) = client.getRole(msg.sender);\n        require(role=='DP');\n        return trades[dpid];\n    }\n\n    /**\n        Fetches a specific trade settlement request        \n        @param  ref         reference to the trade\n     */\n    function getSettlementRequest(bytes32 ref) override external view returns(settlement memory){\n        require(ref!=\"\"); \n        return settlements[ref];\n    }\n    \n    /**\n        Sets settlement status for trades executed\n        @param  ref         reference to the trade executed\n        @param  status      settlement status\n     */\n    function setSettlementStatus(bytes32 ref, bytes32 status) override external{\n        (bytes32 role, bytes32 id) = client.getRole(msg.sender);\n        require(role=='DP', \"Settlement not done by depositary participant\");\n        bytes32 transferorDPID = settlements[ref].transferorDPID;\n        bytes32 transfereeDPID = settlements[ref].transfereeDPID;\n        require(id==transferorDPID || id==transfereeDPID, \"Settlement done by invalid depositary participant\");\n        require(status==\"Confirm\" || status==\"Reject\", \"Settlement status invalid\");\n        settlements[ref].status = status;\n        bool success;\n        if(status==\"Confirm\"){\n            uint256 pay = Math.mul(settlements[ref].price, settlements[ref].unitsToTransfer);\n            if(IERC20(settlements[ref].currency).transferFrom(settlements[ref].transferee, settlements[ref].transferor, pay)){                \n                success = IERC20(settlements[ref].security).transferFrom(settlements[ref].transferor, \n                                                                settlements[ref].transferee, \n                                                                settlements[ref].unitsToTransfer);\n                if(success){\n                    IOrder(settlements[ref].orderPool).orderFilled(settlements[ref].partyRef, settlements[ref].counterpartyRef);\n                    IOrder(settlements[ref].orderPool).tradeSettled(settlements[ref].partyRef, settlements[ref].counterpartyRef);\n                    emit tradeSettled(settlements[ref].transferor, \n                                        settlements[ref].transferee, \n                                        settlements[ref].unitsToTransfer,\n                                        settlements[ref].security,\n                                        settlements[ref].price,\n                                        settlements[ref].currency\n                                    );\n                    for(uint i=0; i<trades[transferorDPID].length; i++){\n                        if(trades[transferorDPID][i]==ref){\n                            if(i==trades[transferorDPID].length-1)\n                                delete trades[transferorDPID][i];\n                            else\n                                trades[transferorDPID][i] = trades[transferorDPID][i+1];\n                        }\n                    }\n                    for(uint i=0; i<trades[transfereeDPID].length; i++){\n                        if(trades[transfereeDPID][i]==ref){\n                            if(i==trades[transfereeDPID].length-1)\n                                delete trades[transfereeDPID][i];\n                            else\n                                trades[transfereeDPID][i] = trades[transfereeDPID][i+1];\n                        }\n                    }\n                    settlements[ref].status = \"Confirm\";\n                }\n                else{\n                    IOrder(settlements[ref].orderPool).revertTrade(settlements[ref].partyRef, settlements[ref].unitsToTransfer, IOrder.Order.Sell);\n                    IOrder(settlements[ref].orderPool).revertTrade(settlements[ref].counterpartyRef, settlements[ref].consideration, IOrder.Order.Buy);\n                    IERC20(settlements[ref].currency).transferFrom(settlements[ref].transferor, settlements[ref].transferee, pay);\n                    settlements[ref].status = \"Fail\";\n                }\n            }\n        }\n        else if(status==\"Reject\"){\n            IOrder(settlements[ref].orderPool).revertTrade(settlements[ref].partyRef, settlements[ref].unitsToTransfer, IOrder.Order.Sell);\n            IOrder(settlements[ref].orderPool).revertTrade(settlements[ref].counterpartyRef, settlements[ref].consideration, IOrder.Order.Buy);\n            settlements[ref].status = \"Reject\";\n        }            \n    }\n\n    function getTrade(bytes32 ref) external view override returns (uint256, uint256) {\n        return (settlements[ref].price, settlements[ref].askprice);\n    }\n\n    /**\n        Gets transfer agent for any of the parties in the trade\n        @param  party         reference to the party or counterparty in a trade\n     */\n    function getTransferAgent(address party) private view returns(bytes32){\n        return(client.getTransferAgent(party));\n    }    \n\n}",
  "sourcePath": "D:\\Code\\verified-balancer\\contracts\\SecondaryIssueManager.sol",
  "compiler": {
    "name": "solc",
    "version": "0.7.1+commit.f4a555be.Emscripten.clang"
  },
  "schemaVersion": "3.4.3",
  "updatedAt": "2022-12-06T05:54:25.166Z",
  "networkType": "ethereum",
  "devdoc": {
    "kind": "dev",
    "methods": {
      "getSettlementRequest(bytes32)": {
        "params": {
          "ref": "reference to the trade"
        }
      },
      "getSettlementRequests(bytes32)": {
        "params": {
          "dpid": "identifier of depository participant (eg, transfer agent) that is authorized to settle the asset "
        }
      },
      "initialize(address,uint256,address)": {
        "params": {
          "_client": "address of Verified client contract",
          "_factory": "reference to the secondary issue pool factory contract",
          "_issueFeePercentage": "percentage of trading fee to be charged by the asset manager"
        }
      },
      "issueSecondary(address,address,uint256,bytes32,bytes32,uint8,bytes32,bytes32)": {
        "params": {
          "amount": "amount of asset issued in pool",
          "currency": "reference to cash (settlement) token",
          "id": "identifier (eg, ISIN) for asset issued",
          "security": "reference to asset issued"
        }
      },
      "owner()": {
        "details": "Returns the address of the current owner."
      },
      "renounceOwnership()": {
        "details": "Leaves the contract without owner. It will not be possible to call `onlyOwner` functions anymore. Can only be called by the current owner. NOTE: Renouncing ownership will leave the contract without an owner, thereby removing any functionality that is only available to the owner."
      },
      "requestSettlement((bytes32,bool,string,uint256,address,bytes32,bool,string,uint256,address,address,address,uint256,uint8,uint256),address)": {
        "params": {
          "tradeToReport": "data structure holding order matching data"
        }
      },
      "setSettlementStatus(bytes32,bytes32)": {
        "params": {
          "ref": "reference to the trade executed",
          "status": "settlement status"
        }
      },
      "transferOwnership(address)": {
        "details": "Transfers ownership of the contract to a new account (`newOwner`). Can only be called by the current owner."
      }
    },
    "version": 1
  },
  "userdoc": {
    "kind": "user",
    "methods": {
      "getSettlementRequest(bytes32)": {
        "notice": "Fetches a specific trade settlement request        "
      },
      "getSettlementRequests(bytes32)": {
        "notice": "Fetches trade settlement requests for depository participant"
      },
      "initialize(address,uint256,address)": {
        "notice": "Initializes this asset management contract"
      },
      "issueSecondary(address,address,uint256,bytes32,bytes32,uint8,bytes32,bytes32)": {
        "notice": "Joins existing (secondary) tokenized assets into pool by primary issue token holders"
      },
      "requestSettlement((bytes32,bool,string,uint256,address,bytes32,bool,string,uint256,address,address,address,uint256,uint8,uint256),address)": {
        "notice": "Used by Secondary pools to request settlement for trades"
      },
      "setSettlementStatus(bytes32,bytes32)": {
        "notice": "Sets settlement status for trades executed"
      }
    },
    "version": 1
  }
}