{
  "contractName": "SecondaryIssueManager",
  "abi": [
    {
      "anonymous": false,
      "inputs": [
        {
          "indexed": true,
          "internalType": "address",
          "name": "previousOwner",
          "type": "address"
        },
        {
          "indexed": true,
          "internalType": "address",
          "name": "newOwner",
          "type": "address"
        }
      ],
      "name": "OwnershipTransferred",
      "type": "event"
    },
    {
      "anonymous": false,
      "inputs": [
        {
          "indexed": true,
          "internalType": "bytes32",
          "name": "poolId",
          "type": "bytes32"
        },
        {
          "indexed": false,
          "internalType": "address",
          "name": "security",
          "type": "address"
        },
        {
          "indexed": false,
          "internalType": "uint256",
          "name": "timestamp",
          "type": "uint256"
        }
      ],
      "name": "closures",
      "type": "event"
    },
    {
      "anonymous": false,
      "inputs": [
        {
          "indexed": true,
          "internalType": "address",
          "name": "platform",
          "type": "address"
        },
        {
          "indexed": false,
          "internalType": "uint256",
          "name": "collection",
          "type": "uint256"
        },
        {
          "indexed": false,
          "internalType": "uint256",
          "name": "timestamp",
          "type": "uint256"
        }
      ],
      "name": "feecollection",
      "type": "event"
    },
    {
      "anonymous": false,
      "inputs": [
        {
          "indexed": false,
          "internalType": "bytes32",
          "name": "poolId",
          "type": "bytes32"
        },
        {
          "indexed": false,
          "internalType": "address",
          "name": "seller",
          "type": "address"
        },
        {
          "indexed": false,
          "internalType": "address",
          "name": "investor",
          "type": "address"
        },
        {
          "indexed": true,
          "internalType": "address",
          "name": "securityTraded",
          "type": "address"
        },
        {
          "indexed": false,
          "internalType": "address",
          "name": "currencySettled",
          "type": "address"
        },
        {
          "indexed": false,
          "internalType": "uint256",
          "name": "amount",
          "type": "uint256"
        },
        {
          "indexed": false,
          "internalType": "uint256",
          "name": "price",
          "type": "uint256"
        },
        {
          "indexed": false,
          "internalType": "bytes32",
          "name": "tradeRef",
          "type": "bytes32"
        },
        {
          "indexed": false,
          "internalType": "bytes32",
          "name": "DPID",
          "type": "bytes32"
        },
        {
          "indexed": false,
          "internalType": "uint256",
          "name": "timestamp",
          "type": "uint256"
        }
      ],
      "name": "subscribers",
      "type": "event"
    },
    {
      "anonymous": false,
      "inputs": [
        {
          "indexed": true,
          "internalType": "bytes32",
          "name": "poolid",
          "type": "bytes32"
        },
        {
          "indexed": false,
          "internalType": "address",
          "name": "transferor",
          "type": "address"
        },
        {
          "indexed": false,
          "internalType": "address",
          "name": "transferee",
          "type": "address"
        },
        {
          "indexed": false,
          "internalType": "uint256",
          "name": "unitsToTransfer",
          "type": "uint256"
        },
        {
          "indexed": false,
          "internalType": "address",
          "name": "security",
          "type": "address"
        },
        {
          "indexed": false,
          "internalType": "uint256",
          "name": "price",
          "type": "uint256"
        },
        {
          "indexed": false,
          "internalType": "address",
          "name": "currency",
          "type": "address"
        },
        {
          "indexed": false,
          "internalType": "bytes32",
          "name": "settlementStatus",
          "type": "bytes32"
        },
        {
          "indexed": false,
          "internalType": "bytes32",
          "name": "tradeRef",
          "type": "bytes32"
        },
        {
          "indexed": false,
          "internalType": "uint256",
          "name": "fee",
          "type": "uint256"
        },
        {
          "indexed": false,
          "internalType": "uint256",
          "name": "timestamp",
          "type": "uint256"
        }
      ],
      "name": "tradeSettled",
      "type": "event"
    },
    {
      "inputs": [],
      "name": "owner",
      "outputs": [
        {
          "internalType": "address",
          "name": "",
          "type": "address"
        }
      ],
      "stateMutability": "view",
      "type": "function",
      "constant": true
    },
    {
      "inputs": [],
      "name": "renounceOwnership",
      "outputs": [],
      "stateMutability": "nonpayable",
      "type": "function"
    },
    {
      "inputs": [
        {
          "internalType": "address",
          "name": "newOwner",
          "type": "address"
        }
      ],
      "name": "transferOwnership",
      "outputs": [],
      "stateMutability": "nonpayable",
      "type": "function"
    },
    {
      "inputs": [
        {
          "internalType": "address",
          "name": "_factory",
          "type": "address"
        },
        {
          "internalType": "uint256",
          "name": "_issueFeePercentage",
          "type": "uint256"
        },
        {
          "internalType": "address",
          "name": "_client",
          "type": "address"
        },
        {
          "internalType": "address",
          "name": "_vault",
          "type": "address"
        },
        {
          "internalType": "address",
          "name": "_distribution",
          "type": "address"
        },
        {
          "internalType": "address",
          "name": "_products",
          "type": "address"
        }
      ],
      "name": "initialize",
      "outputs": [],
      "stateMutability": "nonpayable",
      "type": "function"
    },
    {
      "inputs": [
        {
          "internalType": "uint256",
          "name": "_fee",
          "type": "uint256"
        }
      ],
      "name": "setFee",
      "outputs": [],
      "stateMutability": "nonpayable",
      "type": "function"
    },
    {
      "inputs": [
        {
          "internalType": "address",
          "name": "security",
          "type": "address"
        },
        {
          "internalType": "address",
          "name": "currency",
          "type": "address"
        },
        {
          "internalType": "uint256",
          "name": "securityOutstanding",
          "type": "uint256"
        },
        {
          "internalType": "uint256",
          "name": "securityOffered",
          "type": "uint256"
        },
        {
          "internalType": "uint256",
          "name": "minSecurityOrder",
          "type": "uint256"
        },
        {
          "internalType": "uint256",
          "name": "cashAmount",
          "type": "uint256"
        }
      ],
      "name": "issueSecondary",
      "outputs": [],
      "stateMutability": "nonpayable",
      "type": "function"
    },
    {
      "inputs": [
        {
          "internalType": "address",
          "name": "security",
          "type": "address"
        },
        {
          "internalType": "address",
          "name": "currency",
          "type": "address"
        },
        {
          "internalType": "uint256",
          "name": "swapfee",
          "type": "uint256"
        }
      ],
      "name": "setIssuingFee",
      "outputs": [],
      "stateMutability": "nonpayable",
      "type": "function"
    },
    {
      "inputs": [
        {
          "components": [
            {
              "internalType": "address",
              "name": "partyAddress",
              "type": "address"
            },
            {
              "internalType": "bytes32",
              "name": "partyRef",
              "type": "bytes32"
            },
            {
              "internalType": "bytes32",
              "name": "counterpartyRef",
              "type": "bytes32"
            },
            {
              "internalType": "uint256",
              "name": "dt",
              "type": "uint256"
            },
            {
              "internalType": "uint256",
              "name": "securityTraded",
              "type": "uint256"
            },
            {
              "internalType": "uint256",
              "name": "currencyTraded",
              "type": "uint256"
            }
          ],
          "internalType": "struct ITrade.trade",
          "name": "tradeToReport",
          "type": "tuple"
        },
        {
          "internalType": "contract IOrder",
          "name": "orderbook",
          "type": "address"
        }
      ],
      "name": "requestSettlement",
      "outputs": [],
      "stateMutability": "nonpayable",
      "type": "function"
    },
    {
      "inputs": [
        {
          "internalType": "bytes32",
          "name": "dpid",
          "type": "bytes32"
        },
        {
          "internalType": "bytes32",
          "name": "poolId",
          "type": "bytes32"
        }
      ],
      "name": "getSettlementRequests",
      "outputs": [
        {
          "internalType": "bytes32[]",
          "name": "",
          "type": "bytes32[]"
        }
      ],
      "stateMutability": "view",
      "type": "function",
      "constant": true
    },
    {
      "inputs": [
        {
          "internalType": "bytes32",
          "name": "ref",
          "type": "bytes32"
        }
      ],
      "name": "getSettlementRequest",
      "outputs": [
        {
          "components": [
            {
              "internalType": "contract IOrder",
              "name": "orderPool",
              "type": "address"
            },
            {
              "internalType": "address",
              "name": "transferor",
              "type": "address"
            },
            {
              "internalType": "address",
              "name": "transferee",
              "type": "address"
            },
            {
              "internalType": "address",
              "name": "security",
              "type": "address"
            },
            {
              "internalType": "address",
              "name": "currency",
              "type": "address"
            },
            {
              "internalType": "bytes32",
              "name": "status",
              "type": "bytes32"
            },
            {
              "internalType": "bytes32",
              "name": "DPID",
              "type": "bytes32"
            },
            {
              "internalType": "uint256",
              "name": "price",
              "type": "uint256"
            },
            {
              "internalType": "uint256",
              "name": "unitsToTransfer",
              "type": "uint256"
            },
            {
              "internalType": "uint256",
              "name": "consideration",
              "type": "uint256"
            },
            {
              "internalType": "uint256",
              "name": "executionDate",
              "type": "uint256"
            },
            {
              "internalType": "bytes32",
              "name": "partyRef",
              "type": "bytes32"
            },
            {
              "internalType": "bytes32",
              "name": "counterpartyRef",
              "type": "bytes32"
            }
          ],
          "internalType": "struct ISettlor.settlement",
          "name": "",
          "type": "tuple"
        }
      ],
      "stateMutability": "view",
      "type": "function",
      "constant": true
    },
    {
      "inputs": [
        {
          "internalType": "bytes32",
          "name": "poolId",
          "type": "bytes32"
        }
      ],
      "name": "close",
      "outputs": [],
      "stateMutability": "nonpayable",
      "type": "function"
    },
    {
      "inputs": [
        {
          "internalType": "bytes32",
          "name": "ref",
          "type": "bytes32"
        },
        {
          "internalType": "bytes32",
          "name": "status",
          "type": "bytes32"
        }
      ],
      "name": "setSettlementStatus",
      "outputs": [],
      "stateMutability": "nonpayable",
      "type": "function"
    },
    {
      "inputs": [
        {
          "internalType": "bytes32",
          "name": "poolId",
          "type": "bytes32"
        }
      ],
      "name": "getSubscribers",
      "outputs": [
        {
          "components": [
            {
              "internalType": "address",
              "name": "investor",
              "type": "address"
            },
            {
              "internalType": "address",
              "name": "asset",
              "type": "address"
            },
            {
              "internalType": "address",
              "name": "currency",
              "type": "address"
            },
            {
              "internalType": "uint256",
              "name": "amount",
              "type": "uint256"
            },
            {
              "internalType": "uint256",
              "name": "price",
              "type": "uint256"
            }
          ],
          "internalType": "struct ISettlor.subscriptions[]",
          "name": "",
          "type": "tuple[]"
        }
      ],
      "stateMutability": "view",
      "type": "function",
      "constant": true
    },
    {
      "inputs": [
        {
          "internalType": "address",
          "name": "_token",
          "type": "address"
        }
      ],
      "name": "getTradingFeeCollected",
      "outputs": [
        {
          "internalType": "uint256",
          "name": "",
          "type": "uint256"
        }
      ],
      "stateMutability": "nonpayable",
      "type": "function"
    }
  ],
  "bytecode": "0x608060405234801561001057600080fd5b50600080546001600160a01b0319163390811782556040519091907f8be0079c531659141344cd1fd0a4f28419497f9722a3daafe3b4186f6b6457e0908290a36138cb8061005f6000396000f3fe608060405234801561001057600080fd5b50600436106100ea5760003560e01c80638da5cb5b1161008c578063b431657c11610066578063b431657c146101c9578063bfa0caa7146101dc578063c9fca3c7146101fc578063f2fde38b1461021c576100ea565b80638da5cb5b1461018e578063905ec5ce146101a3578063a2dc2ab7146101b6576100ea565b806369fe0e2d116100c857806369fe0e2d14610140578063715018a61461015357806371eedc7f1461015b57806379a7dc0e1461016e576100ea565b806304967159146100ef5780632d9167461461010457806339c79e0c1461012d575b600080fd5b6101026100fd3660046130ee565b61022f565b005b610117610112366004612e8a565b610314565b60405161012491906134ea565b60405180910390f35b61010261013b3660046130be565b610447565b61010261014e3660046130be565b6109ad565b6101026109d0565b610102610169366004613189565b610a26565b61018161017c3660046130be565b6111c8565b604051610124919061377a565b6101966112a3565b604051610124919061336f565b6101026101b1366004612f02565b6112b2565b6101026101c4366004612f5a565b611b8e565b6101026101d7366004612ec2565b611c00565b6101ef6101ea3660046130be565b611ce7565b6040516101249190613461565b61020f61020a3660046130ee565b611e58565b604051610124919061341d565b61010261022a366004612e8a565b611f88565b60008281526006602052604080822060030154600f54915163e0a87de160e01b815233936001600160a01b03928316939092169063e0a87de19061027790859060040161336f565b60206040518083038186803b15801561028f57600080fd5b505afa1580156102a3573d6000803e3d6000fd5b505050506040513d601f19601f820116820180604052508101906102c79190612ea6565b9050826001600160a01b0316816001600160a01b0316146103035760405162461bcd60e51b81526004016102fa90613615565b60405180910390fd5b61030d8585612006565b5050505050565b6010546000906001600160a01b031633146103415760405162461bcd60e51b81526004016102fa9061366d565b6001600160a01b0382166000908152600d60205260409020546103648180612a4e565b6001600160a01b038085166000818152600d60205260409081902093909355601054925163a9059cbb60e01b8152909263a9059cbb926103ab929116908590600401613404565b602060405180830381600087803b1580156103c557600080fd5b505af11580156103d9573d6000803e3d6000fd5b505050506040513d601f19601f820116820180604052508101906103fd919061309e565b50306001600160a01b03167feaad90c8664cdf61d60bd7ba6745a881fd1c38d9f4ff0b373b4365cdeeb0f9e88242604051610439929190613361565b60405180910390a292915050565b6000818152600a602052604080822054600f54915163e0a87de160e01b815233936001600160a01b03928316939092169063e0a87de19061048c90859060040161336f565b60206040518083038186803b1580156104a457600080fd5b505afa1580156104b8573d6000803e3d6000fd5b505050506040513d601f19601f820116820180604052508101906104dc9190612ea6565b9050826001600160a01b0316816001600160a01b03161461050f5760405162461bcd60e51b81526004016102fa90613615565b6000848152600960209081526040808320548151636945c1fd60e01b815291516001600160a01b0390911692636945c1fd9260048082019391829003018186803b15801561055c57600080fd5b505afa158015610570573d6000803e3d6000fd5b505050506040513d601f19601f820116820180604052508101906105949190612ea6565b600254604051631f29a8cd60e31b81529192506060916001600160a01b039091169063f94d4668906105ca9089906004016134ea565b60006040518083038186803b1580156105e257600080fd5b505afa1580156105f6573d6000803e3d6000fd5b505050506040513d6000823e601f3d908101601f1916820160405261061e9190810190612fd2565b50509050606061062d82612a69565b90506060825167ffffffffffffffff8111801561064957600080fd5b50604051908082528060200260200182016040528015610673578160200160208202803683370190505b50905061067e612d29565b6040518060800160405280848152602001838152602001600160006040516020016106aa929190613593565b60408051808303601f1901815291815290825260006020909201919091526002549051638bdb391360e01b81529192506001600160a01b031690638bdb3913906106fe908c903090819087906004016134f3565b600060405180830381600087803b15801561071857600080fd5b505af115801561072c573d6000803e3d6000fd5b50505060008a8152600a6020526040908190205490518b92507f56eadf552f1d54f8f73fbbf801097c1c4d7bb3d77d5ac2bebfd0a8151642d55a9161077e916001600160a01b03909116904290613404565b60405180910390a26000898152600b6020526040908190205490516370a0823160e01b81526001600160a01b038088169263a9059cbb9291169083906370a08231906107ce90309060040161336f565b60206040518083038186803b1580156107e657600080fd5b505afa1580156107fa573d6000803e3d6000fd5b505050506040513d601f19601f8201168201806040525081019061081e91906130d6565b6040518363ffffffff1660e01b815260040161083b929190613404565b602060405180830381600087803b15801561085557600080fd5b505af1158015610869573d6000803e3d6000fd5b505050506040513d601f19601f8201168201806040525081019061088d919061309e565b506000898152600a6020818152604080842054600b8352938190205492909152516370a0823160e01b81526001600160a01b039283169263a9059cbb92169083906370a08231906108e290309060040161336f565b60206040518083038186803b1580156108fa57600080fd5b505afa15801561090e573d6000803e3d6000fd5b505050506040513d601f19601f8201168201806040525081019061093291906130d6565b6040518363ffffffff1660e01b815260040161094f929190613404565b602060405180830381600087803b15801561096957600080fd5b505af115801561097d573d6000803e3d6000fd5b505050506040513d601f19601f820116820180604052508101906109a1919061309e565b50505050505050505050565b6109cb336109b96112a3565b6001600160a01b0316146101aa612a6c565b600355565b6109dc336109b96112a3565b600080546040516001600160a01b03909116907f8be0079c531659141344cd1fd0a4f28419497f9722a3daafe3b4186f6b6457e0908390a3600080546001600160a01b0319169055565b33600090815260086020526040902054610a525760405162461bcd60e51b81526004016102fa9061374c565b610a5a612d53565b6020830151604051632bbc239560e11b81526001600160a01b03841691635778472a91610a8a91906004016134ea565b60a06040518083038186803b158015610aa257600080fd5b505afa158015610ab6573d6000803e3d6000fd5b505050506040513d601f19601f82011682018060405250810190610ada919061310f565b9050610ae4612d53565b6040808501519051632bbc239560e11b81526001600160a01b03851691635778472a91610b1491906004016134ea565b60a06040518083038186803b158015610b2c57600080fd5b505afa158015610b40573d6000803e3d6000fd5b505050506040513d601f19601f82011682018060405250810190610b64919061310f565b90506000836001600160a01b0316632541897f6040518163ffffffff1660e01b815260040160206040518083038186803b158015610ba157600080fd5b505afa158015610bb5573d6000803e3d6000fd5b505050506040513d601f19601f82011682018060405250810190610bd99190612ea6565b90506000846001600160a01b0316636945c1fd6040518163ffffffff1660e01b815260040160206040518083038186803b158015610c1657600080fd5b505afa158015610c2a573d6000803e3d6000fd5b505050506040513d601f19601f82011682018060405250810190610c4e9190612ea6565b90506000826001600160a01b031685602001516001600160a01b031614610c76578351610c79565b84515b90506000826001600160a01b031685602001516001600160a01b031614610ca1578551610ca4565b84515b60808901519091506000610cb786612a7e565b90506000610cde610cd48c60a00151610ccf89612b8a565b612c25565b8c60800151612c31565b9050610ce8612d82565b604051806101a001604052808c6001600160a01b03168152602001876001600160a01b03168152602001866001600160a01b03168152602001896001600160a01b03168152602001886001600160a01b031681526020016650656e64696e6760c81b8152602001848152602001838152602001858152602001610d728e60a00151610ccf8b612b8a565b81526020018d606001518152602001896001600160a01b03168c602001516001600160a01b031614610da8578d60400151610dae565b8d602001515b8152602001886001600160a01b03168b602001516001600160a01b031614610dda578d60200151610de0565b8d604001515b815250905060008c602001518d60400151604051602001610e02929190613361565b60408051808303601f1901815291815281516020928301206000818152600680855290839020865181546001600160a01b03199081166001600160a01b0392831617835595880151600183018054881691831691909117905593870151600282018054871691861691909117905560608701516003820180548716918616919091179055608087015160048201805490961694169390931790935560a0850151600583015560c08501519282019290925560e0840151600782015561010084015160088201556101208401516009820155610140840151600a820155610160840151600b820155610180840151600c909101559050610eff612dee565b6040518060a00160405280886001600160a01b031681526020018b6001600160a01b031681526020018a6001600160a01b0316815260200187815260200185815250905060008d6001600160a01b03166338fff2d06040518163ffffffff1660e01b815260040160206040518083038186803b158015610f7e57600080fd5b505afa158015610f92573d6000803e3d6000fd5b505050506040513d601f19601f82011682018060405250810190610fb691906130d6565b9050600c600082815260200190815260200160002082908060018154018082558091505060019003906000526020600020906005020160009091909190915060008201518160000160006101000a8154816001600160a01b0302191690836001600160a01b0316021790555060208201518160010160006101000a8154816001600160a01b0302191690836001600160a01b0316021790555060408201518160020160006101000a8154816001600160a01b0302191690836001600160a01b03160217905550606082015181600301556080820151816004015550508a6001600160a01b03167f0dd4a121adafd4537e046c792647be3f3978f362ad83b50586e249ae8641de2f828b8b8e8c88608001518a8c60c00151426040516110e39998979695949392919061352f565b60405180910390a260c084015160009081526007602090815260408083208054600181018255908452918320909101859055600f54905163e0a87de160e01b81526001600160a01b039091169063e0a87de190611144908f9060040161336f565b60206040518083038186803b15801561115c57600080fd5b505afa158015611170573d6000803e3d6000fd5b505050506040513d601f19601f820116820180604052508101906111949190612ea6565b6001600160a01b031614156111b7576111b78366436f6e6669726d60c81b612006565b505050505050505050505050505050565b6111d0612d82565b816111ed5760405162461bcd60e51b81526004016102fa90613642565b5060009081526006602081815260409283902083516101a08101855281546001600160a01b0390811682526001830154811693820193909352600282015483169481019490945260038101548216606085015260048101549091166080840152600581015460a08401529081015460c0830152600781015460e083015260088101546101008301526009810154610120830152600a810154610140830152600b810154610160830152600c015461018082015290565b6000546001600160a01b031690565b600f5460405163e0a87de160e01b8152339188916000916001600160a01b03169063e0a87de1906112e790859060040161336f565b60206040518083038186803b1580156112ff57600080fd5b505afa158015611313573d6000803e3d6000fd5b505050506040513d601f19601f820116820180604052508101906113379190612ea6565b9050826001600160a01b0316816001600160a01b03161461136a5760405162461bcd60e51b81526004016102fa90613615565b6040516370a0823160e01b815286906001600160a01b038b16906370a082319061139890339060040161336f565b60206040518083038186803b1580156113b057600080fd5b505afa1580156113c4573d6000803e3d6000fd5b505050506040513d601f19601f820116820180604052508101906113e891906130d6565b101580156113f65750848610155b801561147e57506040516370a0823160e01b815284906001600160a01b038a16906370a082319061142b90339060040161336f565b60206040518083038186803b15801561144357600080fd5b505afa158015611457573d6000803e3d6000fd5b505050506040513d601f19601f8201168201806040525081019061147b91906130d6565b10155b61149a5760405162461bcd60e51b81526004016102fa906136a4565b6040516323b872dd60e01b81526001600160a01b038916906323b872dd906114ca90339030908990600401613383565b602060405180830381600087803b1580156114e457600080fd5b505af11580156114f8573d6000803e3d6000fd5b505050506040513d601f19601f8201168201806040525081019061151c919061309e565b506040516323b872dd60e01b81526001600160a01b038a16906323b872dd9061154d90339030908b90600401613383565b602060405180830381600087803b15801561156757600080fd5b505af115801561157b573d6000803e3d6000fd5b505050506040513d601f19601f8201168201806040525081019061159f919061309e565b506002546040516372e0f85360e01b81526001600160a01b038b8116926372e0f853926115d492909116908b90600401613404565b600060405180830381600087803b1580156115ee57600080fd5b505af1158015611602573d6000803e3d6000fd5b5050600154600354604051631d3731e960e21b8152600094506001600160a01b0390921692506374dcc7a491611640918e918e918c916004016136db565b602060405180830381600087803b15801561165a57600080fd5b505af115801561166e573d6000803e3d6000fd5b505050506040513d601f19601f820116820180604052508101906116929190612ea6565b90506000816001600160a01b03166338fff2d06040518163ffffffff1660e01b815260040160206040518083038186803b1580156116cf57600080fd5b505afa1580156116e3573d6000803e3d6000fd5b505050506040513d601f19601f8201168201806040525081019061170791906130d6565b90508a600a600083815260200190815260200160002060006101000a8154816001600160a01b0302191690836001600160a01b0316021790555033600b600083815260200190815260200160002060006101000a8154816001600160a01b0302191690836001600160a01b031602179055508060086000846001600160a01b03166001600160a01b0316815260200190815260200160002081905550816009600083815260200190815260200160002060006101000a8154816001600160a01b0302191690836001600160a01b031602179055506060600260009054906101000a90046001600160a01b03166001600160a01b031663f94d4668836040518263ffffffff1660e01b815260040161181e91906134ea565b60006040518083038186803b15801561183657600080fd5b505afa15801561184a573d6000803e3d6000fd5b505050506040513d6000823e601f3d908101601f191682016040526118729190810190612fd2565b50509050606061188182612a69565b90506060825167ffffffffffffffff8111801561189d57600080fd5b506040519080825280602002602001820160405280156118c7578160200160208202803683370190505b5090508c6001600160a01b031663095ea7b3600260009054906101000a90046001600160a01b03168b6040518363ffffffff1660e01b815260040161190d929190613404565b602060405180830381600087803b15801561192757600080fd5b505af115801561193b573d6000803e3d6000fd5b505050506040513d601f19601f8201168201806040525081019061195f919061309e565b508d6001600160a01b031663095ea7b3600260009054906101000a90046001600160a01b03168d6040518363ffffffff1660e01b81526004016119a3929190613404565b602060405180830381600087803b1580156119bd57600080fd5b505af11580156119d1573d6000803e3d6000fd5b505050506040513d601f19601f820116820180604052508101906119f5919061309e565b5060005b8351811015611ac3578e6001600160a01b0316848281518110611a1857fe5b60200260200101516001600160a01b03161415611a4d578b828281518110611a3c57fe5b602002602001018181525050611abb565b8d6001600160a01b0316848281518110611a6357fe5b60200260200101516001600160a01b03161415611a875789828281518110611a3c57fe5b611aa26dffffffffffffffffffffffffffff620f4240612a4e565b828281518110611aae57fe5b6020026020010181815250505b6001016119f9565b50611acc612d29565b6040518060800160405280848152602001838152602001600084604051602001611af79291906135b3565b60408051808303601f190181529181529082526000602090920191909152600254905163172b958560e31b81529192506001600160a01b03169063b95cac2890611b4b9088903090819087906004016134f3565b600060405180830381600087803b158015611b6557600080fd5b505af1158015611b79573d6000803e3d6000fd5b50505050505050505050505050505050505050565b611b9a336109b96112a3565b600180546001600160a01b03199081166001600160a01b0398891617909155600395909555600e805486169487169490941790935560028054851692861692909217909155600f8054841692851692909217909155601080549092169216919091179055565b600f5460405163e0a87de160e01b8152339185916000916001600160a01b03169063e0a87de190611c3590859060040161336f565b60206040518083038186803b158015611c4d57600080fd5b505afa158015611c61573d6000803e3d6000fd5b505050506040513d601f19601f82011682018060405250810190611c859190612ea6565b9050826001600160a01b0316816001600160a01b031614611cb85760405162461bcd60e51b81526004016102fa90613615565b5050506001600160a01b0392831660009081526005602090815260408083209490951682529290925291902055565b6000818152600a602052604080822054600f54915163e0a87de160e01b815260609333936001600160a01b0393841693919291169063e0a87de190611d3090859060040161336f565b60206040518083038186803b158015611d4857600080fd5b505afa158015611d5c573d6000803e3d6000fd5b505050506040513d601f19601f82011682018060405250810190611d809190612ea6565b9050826001600160a01b0316816001600160a01b031614611db35760405162461bcd60e51b81526004016102fa90613615565b6000858152600c6020908152604080832080548251818502810185019093528083529193909284015b82821015611e4a5760008481526020908190206040805160a0810182526005860290920180546001600160a01b039081168452600180830154821685870152600283015490911692840192909252600381015460608401526004015460808301529083529092019101611ddc565b505050509350505050919050565b6000818152600a602052604080822054600f54915163e0a87de160e01b815260609333936001600160a01b0393841693919291169063e0a87de190611ea190859060040161336f565b60206040518083038186803b158015611eb957600080fd5b505afa158015611ecd573d6000803e3d6000fd5b505050506040513d601f19601f82011682018060405250810190611ef19190612ea6565b9050826001600160a01b0316816001600160a01b031614611f245760405162461bcd60e51b81526004016102fa90613615565b60008681526007602090815260409182902080548351818402810184019094528084529091830182828015611f7857602002820191906000526020600020905b815481526020019060010190808311611f64575b5050505050935050505092915050565b611f94336109b96112a3565b611fab6001600160a01b03821615156101ab612a6c565b600080546040516001600160a01b03808516939216917f8be0079c531659141344cd1fd0a4f28419497f9722a3daafe3b4186f6b6457e091a3600080546001600160a01b0319166001600160a01b0392909216919091179055565b6000828152600660208190526040822001549066436f6e6669726d60c81b8314806120395750826514995a9958dd60d21b145b6120555760405162461bcd60e51b81526004016102fa906135de565b600084815260066020908152604080832060038101546001600160a01b03908116855260058452828520600490920154168452909152902054156120e0576000848152600660209081526040808320600981015460038201546001600160a01b039081168652600585528386206004909301541685529252909120546120db9190612c82565b6120ff565b6000848152600660205260409020600901546003546120ff9190612c82565b600481815560008681526006602052604081209091015490916121339161212e906001600160a01b0316612b8a565b612c31565b90508366436f6e6669726d60c81b148015612169575060008581526006602052604090206005015466436f6e6669726d60c81b14155b801561218d57506000858152600660205260409020600501546311985a5b60e21b14155b156126b9576000858152600660209081526040808320600401546001600160a01b03168352600d9091529020546121c49082612cb8565b6000868152600660208181526040808420600480820180546001600160a01b039081168852600d865284882098909855958c905293909252925460019091015492516323b872dd60e01b8152908416936323b872dd9361222b939116913091879101613383565b602060405180830381600087803b15801561224557600080fd5b505af1158015612259573d6000803e3d6000fd5b505050506040513d601f19601f8201168201806040525081019061227d919061309e565b1561241257600085815260066020526040908190208054600b820154600c830154600a9093015493516381b5da1d60e01b81526001600160a01b03909216936381b5da1d936122d19390919060040161357d565b600060405180830381600087803b1580156122eb57600080fd5b505af11580156122ff573d6000803e3d6000fd5b5050505060005b6000848152600760205260409020548110156123e957600084815260076020526040902080548791908390811061233957fe5b906000526020600020015414156123e1576000848152600760205260409020546000190181141561238e57600084815260076020526040902080548290811061237e57fe5b60009182526020822001556123e1565b60008481526007602052604090208054600183019081106123ab57fe5b90600052602060002001546007600086815260200190815260200160002082815481106123d457fe5b6000918252602090912001555b600101612306565b50600085815260066020526040902066436f6e6669726d60c81b600590910155600191506126b4565b600085815260066020526040812060098101546004909101546124479190612442906001600160a01b0316612b8a565b612cca565b600087815260066020526040908190208054600b820154600883015460079093015493516307ef938960e41b81529495506001600160a01b0390911693637ef9389093612497939160040161357d565b600060405180830381600087803b1580156124b157600080fd5b505af11580156124c5573d6000803e3d6000fd5b505050600087815260066020526040908190208054600c82015460079092015492516307ef938960e41b81526001600160a01b039091169350637ef9389092612514929186919060040161357d565b600060405180830381600087803b15801561252e57600080fd5b505af1158015612542573d6000803e3d6000fd5b50505060008781526006602052604090819020600480820154600183015460029093015493516323b872dd60e01b81526001600160a01b0391821695506323b872dd9461259794831693921691879101613383565b602060405180830381600087803b1580156125b157600080fd5b505af11580156125c5573d6000803e3d6000fd5b505050506040513d601f19601f820116820180604052508101906125e9919061309e565b506000868152600660205260409081902060038101546002820154600183015460089093015493516323b872dd60e01b81526001600160a01b03928316946323b872dd9461263f94938416931691600401613383565b602060405180830381600087803b15801561265957600080fd5b505af115801561266d573d6000803e3d6000fd5b505050506040513d601f19601f82011682018060405250810190612691919061309e565b505060008581526006602052604090206311985a5b60e21b600590910155600191505b61288f565b836514995a9958dd60d21b1480156126eb57506000858152600660205260409020600501546514995a9958dd60d21b14155b1561288f57600085815260066020526040812060098101546004909101546127209190612442906001600160a01b0316612b8a565b60008781526006602052604090819020600480820154600183015460029093015493516323b872dd60e01b81529495506001600160a01b03908116946323b872dd9461277494831693921691879101613383565b602060405180830381600087803b15801561278e57600080fd5b505af11580156127a2573d6000803e3d6000fd5b505050506040513d601f19601f820116820180604052508101906127c6919061309e565b506000868152600660205260409081902060038101546002820154600183015460089093015493516323b872dd60e01b81526001600160a01b03928316946323b872dd9461281c94938416931691600401613383565b602060405180830381600087803b15801561283657600080fd5b505af115801561284a573d6000803e3d6000fd5b505050506040513d601f19601f8201168201806040525081019061286e919061309e565b505060008581526006602052604090206514995a9958dd60d21b6005909101555b600085815260066020908152604080832054815163038fff2d60e41b815291516001600160a01b03909116926338fff2d09260048082019391829003018186803b1580156128dc57600080fd5b505afa1580156128f0573d6000803e3d6000fd5b505050506040513d601f19601f8201168201806040525081019061291491906130d6565b9050807f85da739f35224c9e70f00cc38f01a704522dd70184a2105bf841163edb96ba506006600089815260200190815260200160002060010160009054906101000a90046001600160a01b0316600660008a815260200190815260200160002060020160009054906101000a90046001600160a01b0316600660008b815260200190815260200160002060080154600660008c815260200190815260200160002060030160009054906101000a90046001600160a01b0316600660008d815260200190815260200160002060070154600660008e815260200190815260200160002060040160009054906101000a90046001600160a01b0316600660008f8152602001908152602001600020600501548e8b42604051612a3e9a999897969594939291906133a7565b60405180910390a2505050505050565b6000612a5e838311156001612a6c565b508082035b92915050565b90565b81612a7a57612a7a81612cd6565b5050565b600f5460405163e0a87de160e01b815260009182916001600160a01b039091169063e0a87de190612ab390869060040161336f565b60206040518083038186803b158015612acb57600080fd5b505afa158015612adf573d6000803e3d6000fd5b505050506040513d601f19601f82011682018060405250810190612b039190612ea6565b600e5460405162157d5560e61b81529192506001600160a01b03169063055f554090612b3390849060040161336f565b60206040518083038186803b158015612b4b57600080fd5b505afa158015612b5f573d6000803e3d6000fd5b505050506040513d601f19601f82011682018060405250810190612b8391906130d6565b9392505050565b600080826001600160a01b031663313ce5676040518163ffffffff1660e01b815260040160206040518083038186803b158015612bc657600080fd5b505afa158015612bda573d6000803e3d6000fd5b505050506040513d601f19601f82011682018060405250810190612bfe9190613212565b60ff1690506000612c10601283612a4e565b600a0a670de0b6b3a764000002949350505050565b6000612b838383612c82565b6000612c408215156004612a6c565b82612c4d57506000612a63565b670de0b6b3a764000083810290612c7090858381612c6757fe5b04146005612a6c565b828181612c7957fe5b04915050612a63565b6000828202612ca6841580612c9f575083858381612c9c57fe5b04145b6003612a6c565b670de0b6b3a764000090049392505050565b6000828201612b838482101583612a6c565b6000612b838383612c31565b62461bcd60e51b6000908152602060045260076024526642414c23000030600a808404818106603090810160081b95839006959095019082900491820690940160101b939093010160c81b604452606490fd5b60405180608001604052806060815260200160608152602001606081526020016000151581525090565b6040805160a0810182526000808252602082018190529091820190815260200160008152602001600081525090565b604080516101a081018252600080825260208201819052918101829052606081018290526080810182905260a0810182905260c0810182905260e08101829052610100810182905261012081018290526101408101829052610160810182905261018081019190915290565b6040805160a08101825260008082526020820181905291810182905260608101829052608081019190915290565b600082601f830112612e2c578081fd5b8151612e3f612e3a8261385d565b613836565b818152915060208083019084810181840286018201871015612e6057600080fd5b60005b84811015612e7f57815184529282019290820190600101612e63565b505050505092915050565b600060208284031215612e9b578081fd5b8135612b838161387d565b600060208284031215612eb7578081fd5b8151612b838161387d565b600080600060608486031215612ed6578182fd5b8335612ee18161387d565b92506020840135612ef18161387d565b929592945050506040919091013590565b60008060008060008060c08789031215612f1a578182fd5b8635612f258161387d565b95506020870135612f358161387d565b95989597505050506040840135936060810135936080820135935060a0909101359150565b60008060008060008060c08789031215612f72578182fd5b8635612f7d8161387d565b9550602087013594506040870135612f948161387d565b93506060870135612fa48161387d565b92506080870135612fb48161387d565b915060a0870135612fc48161387d565b809150509295509295509295565b600080600060608486031215612fe6578081fd5b835167ffffffffffffffff80821115612ffd578283fd5b818601915086601f830112613010578283fd5b815161301e612e3a8261385d565b80828252602080830192508086018b82838702890101111561303e578788fd5b8796505b848710156130695780516130558161387d565b845260019690960195928101928101613042565b508901519097509350505080821115613080578283fd5b5061308d86828701612e1c565b925050604084015190509250925092565b6000602082840312156130af578081fd5b81518015158114612b83578182fd5b6000602082840312156130cf578081fd5b5035919050565b6000602082840312156130e7578081fd5b5051919050565b60008060408385031215613100578182fd5b50508035926020909101359150565b600060a08284031215613120578081fd5b61312a60a0613836565b82516131358161387d565b815260208301516131458161387d565b602082015260408301516003811061315b578283fd5b6040820152606083015160058110613171578283fd5b60608201526080928301519281019290925250919050565b60008082840360e081121561319c578283fd5b60c08112156131a9578283fd5b506131b460c0613836565b83356131bf8161387d565b808252506020840135602082015260408401356040820152606084013560608201526080840135608082015260a084013560a08201528092505060c08301356132078161387d565b809150509250929050565b600060208284031215613223578081fd5b815160ff81168114612b83578182fd5b6001600160a01b03169052565b6000815180845260208085019450808401835b8381101561326f57815187529582019590820190600101613253565b509495945050505050565b15159052565b60008151808452815b818110156132a557602081850181015186830182015201613289565b818111156132b65782602083870101525b50601f01601f19169290920160200192915050565b8051608080845281519084018190526000916020919082019060a0860190845b818110156133105783516001600160a01b0316835292840192918401916001016132eb565b5050828501519150858103838701526133298183613240565b92505050604083015184820360408601526133448282613280565b9150506060830151613359606086018261327a565b509392505050565b918252602082015260400190565b6001600160a01b0391909116815260200190565b6001600160a01b039384168152919092166020820152604081019190915260600190565b6001600160a01b039a8b168152988a1660208a0152604089019790975294881660608801526080870193909352951660a085015260c084019490945260e08301939093526101008201929092526101208101919091526101400190565b6001600160a01b03929092168252602082015260400190565b6020808252825182820181905260009190848201906040850190845b8181101561345557835183529284019291840191600101613439565b50909695505050505050565b602080825282518282018190526000919060409081850190868401855b828110156134dd57815180516001600160a01b03168552868101516134a588870182613233565b50858101516134b687870182613233565b50606081810151908601526080908101519085015260a0909301929085019060010161347e565b5091979650505050505050565b90815260200190565b8481526001600160a01b03848116602083015283166040820152608060608201819052600090613525908301846132cb565b9695505050505050565b9889526001600160a01b0397881660208a01529587166040890152939095166060870152608086019190915260a085015260c084019290925260e08301919091526101008201526101200190565b9283526020830191909152604082015260600190565b60408101600284106135a157fe5b92815260ff9190911660209091015290565b6000600484106135bf57fe5b838252604060208301526135d66040830184613240565b949350505050565b60208082526019908201527f536574746c656d656e742073746174757320696e76616c696400000000000000604082015260600190565b6020808252601390820152724f6e6c79206973737565206d616e616765727360681b604082015260600190565b602080825260119082015270496e76616c6964207265666572656e636560781b604082015260600190565b6020808252601f908201527f556e617574686f72697a656420636f6c6c656374696f6e207265717565737400604082015260600190565b60208082526019908201527f4e6f2062616c616e636520746f2063726561746520706f6f6c00000000000000604082015260600190565b60c0808252601390820152722b32b934b334b2b2102837b7b6102a37b5b2b760691b60e0820152610100602082018190526003908201526215941560ea1b6101208201526001600160a01b039485166040820152929093166060830152608082015260a08101919091526101400190565b602080825260149082015273125b9d985b1a59081c1bdbdb081c995c5d595cdd60621b604082015260600190565b60006101a08201905061378e828451613233565b60208301516137a06020840182613233565b5060408301516137b36040840182613233565b5060608301516137c66060840182613233565b5060808301516137d96080840182613233565b5060a0838101519083015260c0808401519083015260e08084015190830152610100808401519083015261012080840151908301526101408084015190830152610160808401519083015261018092830151929091019190915290565b60405181810167ffffffffffffffff8111828210171561385557600080fd5b604052919050565b600067ffffffffffffffff821115613873578081fd5b5060209081020190565b6001600160a01b038116811461389257600080fd5b5056fea26469706673582212201ea5584509985bae51ca487af68b79bc8e8dbb078a5b44e840da7c8b6785940964736f6c63430007010033",
  "immutableReferences": {},
  "source": "// External interface for settlement of trades\n// (c) Kallol Borah, 2022\n// \"SPDX-License-Identifier: BUSL1.1\"\n\npragma solidity 0.7.1;\npragma experimental ABIEncoderV2;\n\nimport \"./interfaces/ISettlor.sol\";\nimport \"./interfaces/IOrder.sol\";\nimport \"./interfaces/ITrade.sol\";\nimport \"./interfaces/IFactory.sol\";\nimport \"./interfaces/ISecurity.sol\";\nimport \"./interfaces/VerifiedClient.sol\";\nimport \"./interfaces/ISecondaryIssuePool.sol\";\nimport \"./interfaces/ISecondaryIssuePoolFactory.sol\";\n\nimport \"@balancer-labs/v2-solidity-utils/contracts/math/Math.sol\";\nimport \"@balancer-labs/v2-solidity-utils/contracts/math/FixedPoint.sol\";\nimport \"@balancer-labs/v2-solidity-utils/contracts/openzeppelin/ERC20.sol\";\nimport \"@balancer-labs/v2-solidity-utils/contracts/openzeppelin/IERC20.sol\";\nimport \"@balancer-labs/v2-solidity-utils/contracts/openzeppelin/Ownable.sol\";\n \ncontract SecondaryIssueManager is ISettlor, Ownable {\n\n    using Math for uint256;\n    using FixedPoint for uint256;\n\n    // balancer variables\n    address private factory;    \n\n    address private vault;\n\n    // standard fee\n    uint256 private fee;\n    uint256 private settlementFee;\n\n    // mapping security to currency to fee set for it by DP\n    mapping(address => mapping(address => uint256)) private customFee;\n\n    // mapping settlement ref to trade execution data\n    mapping(bytes32 => ISettlor.settlement) settlements;\n\n    //mapping depository participants to trades they are part of\n    mapping(bytes32 => bytes32[]) private trades;\n\n    //mapping pool address to pool id\n    mapping(address => bytes32) private pools;\n\n    //mapping pool id to pool address\n    mapping(bytes32 => address) private poolAddress;\n\n    //mapping pool id to security token traded\n    mapping(bytes32 => address) private poolSecurity;\n\n    //mapping pool id to issuer\n    mapping(bytes32 => address) private issuer;\n\n    //mapping pool id to investors\n    mapping(bytes32 => subscriptions[]) internal investors; \n\n    // mapping token address to issuing fee collected\n    mapping(address => uint256) private fees;\n\n    // reference to the Verified Client contract\n    VerifiedClient private client;\n\n    // reference to the Verified factory contract that this asset manager checks security token issues with\n    IFactory private products;\n\n    address private distribution;\n\n    uint256 private constant _INITIAL_BPT_SUPPLY = 2**(112) - 1;\n    uint256 private constant _DEFAULT_MINIMUM_BPT = 1e6;\n\n    event tradeSettled( \n        bytes32 indexed poolid,\n        address transferor,\n        address transferee,\n        uint256 unitsToTransfer,\n        address security,\n        uint256 price,\n        address currency,\n        bytes32 settlementStatus,\n        bytes32 tradeRef,\n        uint256 fee,\n        uint256 timestamp\n    );\n\n    event subscribers(bytes32 poolId, address seller, address investor, \n                        address indexed securityTraded, address currencySettled, uint256 amount, uint256 price,\n                        bytes32 tradeRef, bytes32 DPID, uint256 timestamp);\n\n    event closures(bytes32 indexed poolId, address security, uint256 timestamp);\n    event feecollection(address indexed platform, uint256 collection, uint256 timestamp);\n\n    modifier onlyIssueManager(address sender, address security){\n        address DP = products.getDP(security);\n        require(DP==sender, \"Only issue managers\");\n        _;\n    }\n\n    /**\n        Initializes this asset management contract\n        @param  _factory            reference to the secondary issue pool factory contract\n        @param  _issueFeePercentage  percentage of trading fee to be charged by the asset manager\n        @param  _client             address of Verified client contract\n        @param  _vault              address of balancer vault\n     */\n    function initialize(address _factory, uint256 _issueFeePercentage, address _client, address _vault, address _distribution, address _products) public onlyOwner {\n        factory = _factory;\n        fee = _issueFeePercentage;\n        client = VerifiedClient(_client);\n        vault = _vault;\n        products = IFactory(_products);\n        distribution = _distribution;\n    }\n\n    function setFee(uint256 _fee) public onlyOwner {\n        fee = _fee;\n    }\n    \n    /**\n        Joins existing (secondary) tokenized assets into pool by primary issue token holders\n        @param  security            reference to asset issued\n        @param  currency            reference to cash (settlement) token\n        @param  securityOutstanding total number of securities outstanding\n        @param  securityOffered     amount of security to issue\n        @param  minSecurityOrder    minimum order size of securities issued in pool\n        @param  cashAmount          amount of currency issued in pool\n     */\n    function issueSecondary(address security, address currency, uint256 securityOutstanding, uint256 securityOffered, uint256 minSecurityOrder, uint256 cashAmount) override external onlyIssueManager(msg.sender, security){\n        require(IERC20(security).balanceOf(msg.sender)>=securityOffered && securityOffered>=minSecurityOrder && IERC20(currency).balanceOf(msg.sender)>=cashAmount\n                , \"No balance to create pool\");\n        ERC20(currency).transferFrom(msg.sender, address(this), cashAmount);\n        ERC20(security).transferFrom(msg.sender, address(this), securityOffered);\n        ISecurity(security).whiteList(vault, securityOutstanding);   \n        address pool = ISecondaryIssuePoolFactory(factory).create(\n            \"Verified Pool Token\",\n            \"VPT\",\n            security,\n            currency,\n            minSecurityOrder,\n            fee\n        ); \n        bytes32 poolId = ISecondaryIssuePool(pool).getPoolId();  \n        poolSecurity[poolId] = security; \n        issuer[poolId] = msg.sender;\n        pools[pool] = poolId;\n        poolAddress[poolId] = pool;\n        // join the pool here                \n        (IERC20[] memory tokens, , ) = IVault(vault).getPoolTokens(poolId);\n        IAsset[] memory assets = _convertERC20sToAssets(tokens);\n        uint256[] memory maxAmountsIn = new uint256[](tokens.length);\n        ERC20(currency).approve(vault, cashAmount);\n        ERC20(security).approve(vault, securityOffered);\n        for(uint256 t; t < tokens.length; t++) {\n            if(tokens[t]==IERC20(security))\n                maxAmountsIn[t] = securityOffered;\n            else if(tokens[t]==IERC20(currency))\n                maxAmountsIn[t] = cashAmount;\n            else \n                maxAmountsIn[t] = Math.sub(_INITIAL_BPT_SUPPLY, _DEFAULT_MINIMUM_BPT);\n        }\n        IVault.JoinPoolRequest memory request = IVault.JoinPoolRequest({\n            assets: assets,\n            maxAmountsIn: maxAmountsIn,\n            userData: abi.encode(JoinKind.INIT, maxAmountsIn),\n            fromInternalBalance: false\n        });         \n        IVault(vault).joinPool(poolId, address(this), address(this), request);\n    }\n\n    function setIssuingFee(address security, address currency, uint256 swapfee) override external onlyIssueManager(msg.sender, security) {\n        customFee[security][currency] = swapfee;\n    }\n    \n    \n    /**\n        Used by Secondary pools to request settlement for trades\n        @param  tradeToReport     data structure holding order matching data\n     */\n    function requestSettlement(ITrade.trade memory tradeToReport, IOrder orderbook) override external {\n        require(pools[msg.sender]!=\"\", \"Invalid pool request\");\n        IOrder.order memory orderByParty = orderbook.getOrder(tradeToReport.partyRef);\n        IOrder.order memory orderByCounterparty = orderbook.getOrder(tradeToReport.counterpartyRef);\n        address securityTraded = orderbook.getSecurity(); \n        address currencySettled = orderbook.getCurrency();\n        address party = orderByParty.tokenIn==securityTraded ? orderByParty.party : orderByCounterparty.party;\n        address counterparty = orderByCounterparty.tokenIn==currencySettled ? orderByCounterparty.party : orderByParty.party;\n        uint256 amount = tradeToReport.securityTraded; \n        bytes32 _DPID = getTransferAgent(securityTraded);\n        uint256 price = FixedPoint.divDown(_upscale(tradeToReport.currencyTraded, _computeScalingFactor(IERC20(currencySettled))), tradeToReport.securityTraded);\n        ISettlor.settlement memory tradeToSettle = ISettlor.settlement({\n            transferor: party, //sells securities\n            transferee: counterparty, //buys securities\n            security: securityTraded,\n            status: \"Pending\",\n            currency: currencySettled,\n            price: price,\n            unitsToTransfer: amount,\n            consideration: _upscale(tradeToReport.currencyTraded, _computeScalingFactor(IERC20(currencySettled))),\n            executionDate: tradeToReport.dt,\n            partyRef: orderByParty.tokenIn==securityTraded ? tradeToReport.partyRef : tradeToReport.counterpartyRef,\n            counterpartyRef: orderByCounterparty.tokenIn==currencySettled ? tradeToReport.counterpartyRef : tradeToReport.partyRef,\n            DPID: _DPID,\n            orderPool: orderbook\n        });\n        bytes32 ref = keccak256(abi.encodePacked(tradeToReport.partyRef, tradeToReport.counterpartyRef));\n        //if(settlements[ref].transferor==address(0x0)){\n            settlements[ref] = tradeToSettle;\n            ISettlor.subscriptions memory subscription = ISettlor.subscriptions({\n                investor: counterparty, //buyer of securities\n                asset: securityTraded,\n                currency: currencySettled, \n                amount: amount,   \n                price: price \n            });\n            bytes32 poolId = orderbook.getPoolId();\n            investors[poolId].push(subscription);\n            emit subscribers(poolId, party, counterparty, securityTraded, currencySettled, amount, subscription.price, ref, tradeToSettle.DPID, block.timestamp);\n            trades[tradeToSettle.DPID].push(ref);\n            if(products.getDP(securityTraded)==address(0x0)) //if the issue is not managed\n                setSettlement(ref, \"Confirm\");\n        //}\n    }\n    \n    /**\n        Fetches trade settlement requests for depository participant\n        @param  dpid         identifier of depository participant (eg, transfer agent) that is authorized to settle the asset \n     */\n    function getSettlementRequests(bytes32 dpid, bytes32 poolId) override external view onlyIssueManager(msg.sender, poolSecurity[poolId]) returns(bytes32[] memory){\n        return trades[dpid];\n    }\n\n    /**\n        Fetches a specific trade settlement request        \n        @param  ref         reference to the trade\n     */\n    function getSettlementRequest(bytes32 ref) override external view returns(settlement memory){\n        require(ref!=\"\", \"Invalid reference\"); \n        return settlements[ref];\n    }\n    \n    function close(bytes32 poolId) override external onlyIssueManager(msg.sender, poolSecurity[poolId]) {\n        address currency = ISecondaryIssuePool(poolAddress[poolId]).getCurrency(); \n        // exit the pool here   \n        (IERC20[] memory tokens, , ) = IVault(vault).getPoolTokens(poolId);\n        IAsset[] memory assets = _convertERC20sToAssets(tokens);\n        uint256[] memory amountsOut = new uint256[](tokens.length);\n        IVault.ExitPoolRequest memory request = IVault.ExitPoolRequest({\n            assets: assets,\n            minAmountsOut: amountsOut,\n            userData: abi.encode(ExitKind.EXACT_BPT_IN_FOR_TOKENS_OUT, 0),\n            toInternalBalance: false\n        });         \n        IVault(vault).exitPool(poolId, address(this), payable(address(this)), request);\n        emit closures(poolId, poolSecurity[poolId], block.timestamp);\n        IERC20(currency).transfer(issuer[poolId], IERC20(currency).balanceOf(address(this)));\n        IERC20(poolSecurity[poolId]).transfer(issuer[poolId], IERC20(poolSecurity[poolId]).balanceOf(address(this)));\n    }\n    \n    /**\n        Sets settlement status for trades executed\n        @param  ref         reference to the trade executed\n        @param  status      settlement status\n     */\n    function setSettlementStatus(bytes32 ref, bytes32 status) override external onlyIssueManager(msg.sender, settlements[ref].security){\n        setSettlement(ref, status);\n    }\n    \n    function setSettlement(bytes32 ref, bytes32 status) private {\n        bytes32 DPID = settlements[ref].DPID;\n        bool settled = false;\n        require(status==\"Confirm\" || status==\"Reject\", \"Settlement status invalid\");\n        settlementFee = customFee[settlements[ref].security][settlements[ref].currency]==0 ? FixedPoint.mulDown(settlements[ref].consideration, fee)\n                    : FixedPoint.mulDown(settlements[ref].consideration, customFee[settlements[ref].security][settlements[ref].currency]);\n        uint256 pay = FixedPoint.divDown(settlementFee, _computeScalingFactor(IERC20(settlements[ref].currency)));\n        if(status==\"Confirm\" && settlements[ref].status!=\"Confirm\" && settlements[ref].status!=\"Fail\"){            \n            fees[settlements[ref].currency] = Math.add(fees[settlements[ref].currency], pay);\n            if(IERC20(settlements[ref].currency).transferFrom(settlements[ref].transferor, address(this), pay)){  //seller pays the fee after getting paid from pool          \n                settlements[ref].orderPool.orderFilled(settlements[ref].partyRef, settlements[ref].counterpartyRef, settlements[ref].executionDate);\n                for(uint i=0; i<trades[DPID].length; i++){\n                    if(trades[DPID][i]==ref){\n                        if(i==trades[DPID].length-1)\n                            delete trades[DPID][i];\n                        else\n                            trades[DPID][i] = trades[DPID][i+1];\n                    }\n                }\n                settlements[ref].status = \"Confirm\";    \n                settled = true;            \n            }\n            else{\n                uint256 consideration = _downscaleDown(settlements[ref].consideration, _computeScalingFactor(IERC20(settlements[ref].currency)));\n                settlements[ref].orderPool.revertTrade(settlements[ref].partyRef, settlements[ref].unitsToTransfer, settlements[ref].price);\n                settlements[ref].orderPool.revertTrade(settlements[ref].counterpartyRef, consideration, settlements[ref].price);\n                IERC20(settlements[ref].currency).transferFrom(settlements[ref].transferor, settlements[ref].transferee, consideration);\n                IERC20(settlements[ref].security).transferFrom(settlements[ref].transferee, settlements[ref].transferor, settlements[ref].unitsToTransfer);\n                settlements[ref].status = \"Fail\";\n                settled = true;\n            }\n        }\n        else if(status==\"Reject\" && settlements[ref].status!=\"Reject\"){\n            uint256 consideration = _downscaleDown(settlements[ref].consideration, _computeScalingFactor(IERC20(settlements[ref].currency)));\n            IERC20(settlements[ref].currency).transferFrom(settlements[ref].transferor, settlements[ref].transferee, consideration);\n            IERC20(settlements[ref].security).transferFrom(settlements[ref].transferee, settlements[ref].transferor, settlements[ref].unitsToTransfer);\n            settlements[ref].status = \"Reject\";\n            settled == true;\n        }\n        //if(settled){\n            bytes32 poolId = settlements[ref].orderPool.getPoolId();\n            emit tradeSettled(\n                            poolId,\n                            settlements[ref].transferor, \n                            settlements[ref].transferee, \n                            settlements[ref].unitsToTransfer,\n                            settlements[ref].security,\n                            settlements[ref].price,\n                            settlements[ref].currency,\n                            settlements[ref].status,\n                            ref,\n                            pay,\n                            block.timestamp\n                        );  \n        //}          \n    }\n\n    /**\n        Retrieve investors in secondary pools\n        @param  poolId  pool identity\n     */\n    function getSubscribers(bytes32 poolId) override external view onlyIssueManager(msg.sender, poolSecurity[poolId]) returns(ISettlor.subscriptions[] memory){\n        return investors[poolId];\n    }\n\n    /**\n        Gets transfer agent for the security in the trade\n        @param  security  address of security traded\n     */\n    function getTransferAgent(address security) private view returns(bytes32){\n        address dp = products.getDP(security);\n        return(client.getTransferAgent(dp));\n    } \n\n    /**\n        Fetch trading fee collected in Balancer vault\n        @param  _token  address of token in which fee is collected\n     */\n    function getTradingFeeCollected(address _token) override external returns(uint256){\n        require(msg.sender==distribution, \"Unauthorized collection request\");\n        uint256 feeCollected = fees[_token];\n        fees[_token] = Math.sub(fees[_token], feeCollected);\n        IERC20(_token).transfer(distribution, feeCollected);\n        emit feecollection(address(this), feeCollected, block.timestamp);\n        return feeCollected;\n    }   \n\n    /**\n     * @dev This helper function is a fast and cheap way to convert between IERC20[] and IAsset[] types\n     */\n    function _convertERC20sToAssets(IERC20[] memory tokens) internal pure returns (IAsset[] memory assets) {\n        // solhint-disable-next-line no-inline-assembly\n        assembly {\n            assets := tokens\n        }\n    }\n\n    /**\n     * @dev Returns a scaling factor that, when multiplied to a token amount for `token`, normalizes its balance as if\n     * it had 18 decimals.\n     */\n    function _computeScalingFactor(IERC20 token) internal view returns (uint256) {\n        // Tokens that don't implement the `decimals` method are not supported.\n        uint256 tokenDecimals = ERC20(address(token)).decimals();\n\n        // Tokens with more than 18 decimals are not supported.\n        uint256 decimalsDifference = Math.sub(18, tokenDecimals);\n        return FixedPoint.ONE * 10**decimalsDifference;\n    }\n\n    /**\n     * @dev Reverses the `scalingFactor` applied to `amount`, resulting in a smaller or equal value depending on\n     * whether it needed scaling or not. The result is rounded down.\n     */\n    function _downscaleDown(uint256 amount, uint256 scalingFactor) internal pure returns (uint256) {\n        return FixedPoint.divDown(amount, scalingFactor);\n    }\n\n    /**\n     * @dev Applies `scalingFactor` to `amount`, resulting in a larger or equal value depending on whether it needed\n     * scaling or not.\n     */\n    function _upscale(uint256 amount, uint256 scalingFactor) internal pure returns (uint256) {\n        // Upscale rounding wouldn't necessarily always go in the same direction: in a swap for example the balance of\n        // token in should be rounded up, and that of token out rounded down. This is the only place where we round in\n        // the same direction for all amounts, as the impact of this rounding is expected to be minimal (and there's no\n        // rounding error unless `_scalingFactor()` is overriden).\n        return FixedPoint.mulDown(amount, scalingFactor);\n    }\n\n}",
  "sourcePath": "D:\\Code\\verified-balancer\\contracts\\SecondaryIssueManager.sol",
  "compiler": {
    "name": "solc",
    "version": "0.7.1+commit.f4a555be.Emscripten.clang"
  },
  "schemaVersion": "3.4.3",
  "updatedAt": "2024-07-22T12:00:58.960Z",
  "networkType": "ethereum",
  "devdoc": {
    "kind": "dev",
    "methods": {
      "getSettlementRequest(bytes32)": {
        "params": {
          "ref": "reference to the trade"
        }
      },
      "getSettlementRequests(bytes32,bytes32)": {
        "params": {
          "dpid": "identifier of depository participant (eg, transfer agent) that is authorized to settle the asset "
        }
      },
      "getSubscribers(bytes32)": {
        "params": {
          "poolId": "pool identity"
        }
      },
      "getTradingFeeCollected(address)": {
        "params": {
          "_token": "address of token in which fee is collected"
        }
      },
      "initialize(address,uint256,address,address,address,address)": {
        "params": {
          "_client": "address of Verified client contract",
          "_factory": "reference to the secondary issue pool factory contract",
          "_issueFeePercentage": "percentage of trading fee to be charged by the asset manager",
          "_vault": "address of balancer vault"
        }
      },
      "issueSecondary(address,address,uint256,uint256,uint256,uint256)": {
        "params": {
          "cashAmount": "amount of currency issued in pool",
          "currency": "reference to cash (settlement) token",
          "minSecurityOrder": "minimum order size of securities issued in pool",
          "security": "reference to asset issued",
          "securityOffered": "amount of security to issue",
          "securityOutstanding": "total number of securities outstanding"
        }
      },
      "owner()": {
        "details": "Returns the address of the current owner."
      },
      "renounceOwnership()": {
        "details": "Leaves the contract without owner. It will not be possible to call `onlyOwner` functions anymore. Can only be called by the current owner. NOTE: Renouncing ownership will leave the contract without an owner, thereby removing any functionality that is only available to the owner."
      },
      "requestSettlement((address,bytes32,bytes32,uint256,uint256,uint256),address)": {
        "params": {
          "tradeToReport": "data structure holding order matching data"
        }
      },
      "setSettlementStatus(bytes32,bytes32)": {
        "params": {
          "ref": "reference to the trade executed",
          "status": "settlement status"
        }
      },
      "transferOwnership(address)": {
        "details": "Transfers ownership of the contract to a new account (`newOwner`). Can only be called by the current owner."
      }
    },
    "version": 1
  },
  "userdoc": {
    "kind": "user",
    "methods": {
      "getSettlementRequest(bytes32)": {
        "notice": "Fetches a specific trade settlement request        "
      },
      "getSettlementRequests(bytes32,bytes32)": {
        "notice": "Fetches trade settlement requests for depository participant"
      },
      "getSubscribers(bytes32)": {
        "notice": "Retrieve investors in secondary pools"
      },
      "getTradingFeeCollected(address)": {
        "notice": "Fetch trading fee collected in Balancer vault"
      },
      "initialize(address,uint256,address,address,address,address)": {
        "notice": "Initializes this asset management contract"
      },
      "issueSecondary(address,address,uint256,uint256,uint256,uint256)": {
        "notice": "Joins existing (secondary) tokenized assets into pool by primary issue token holders"
      },
      "requestSettlement((address,bytes32,bytes32,uint256,uint256,uint256),address)": {
        "notice": "Used by Secondary pools to request settlement for trades"
      },
      "setSettlementStatus(bytes32,bytes32)": {
        "notice": "Sets settlement status for trades executed"
      }
    },
    "version": 1
  }
}