{
  "contractName": "SecondaryIssueManager",
  "abi": [
    {
      "anonymous": false,
      "inputs": [
        {
          "indexed": true,
          "internalType": "address",
          "name": "previousOwner",
          "type": "address"
        },
        {
          "indexed": true,
          "internalType": "address",
          "name": "newOwner",
          "type": "address"
        }
      ],
      "name": "OwnershipTransferred",
      "type": "event"
    },
    {
      "anonymous": false,
      "inputs": [
        {
          "indexed": false,
          "internalType": "address",
          "name": "currency",
          "type": "address"
        },
        {
          "indexed": false,
          "internalType": "address",
          "name": "issuer",
          "type": "address"
        },
        {
          "indexed": false,
          "internalType": "uint256",
          "name": "currencyBalance",
          "type": "uint256"
        },
        {
          "indexed": false,
          "internalType": "address",
          "name": "security",
          "type": "address"
        },
        {
          "indexed": false,
          "internalType": "uint256",
          "name": "securityBalance",
          "type": "uint256"
        }
      ],
      "name": "closure",
      "type": "event"
    },
    {
      "anonymous": false,
      "inputs": [
        {
          "indexed": true,
          "internalType": "bytes32",
          "name": "poolId",
          "type": "bytes32"
        },
        {
          "indexed": false,
          "internalType": "address",
          "name": "security",
          "type": "address"
        },
        {
          "indexed": false,
          "internalType": "uint256",
          "name": "timestamp",
          "type": "uint256"
        }
      ],
      "name": "closures",
      "type": "event"
    },
    {
      "anonymous": false,
      "inputs": [
        {
          "indexed": false,
          "internalType": "bytes32",
          "name": "poolId",
          "type": "bytes32"
        },
        {
          "indexed": false,
          "internalType": "address",
          "name": "seller",
          "type": "address"
        },
        {
          "indexed": false,
          "internalType": "address",
          "name": "investor",
          "type": "address"
        },
        {
          "indexed": true,
          "internalType": "address",
          "name": "securityTraded",
          "type": "address"
        },
        {
          "indexed": false,
          "internalType": "address",
          "name": "currencySettled",
          "type": "address"
        },
        {
          "indexed": false,
          "internalType": "uint256",
          "name": "amount",
          "type": "uint256"
        },
        {
          "indexed": false,
          "internalType": "uint256",
          "name": "price",
          "type": "uint256"
        },
        {
          "indexed": false,
          "internalType": "bytes32",
          "name": "tradeRef",
          "type": "bytes32"
        },
        {
          "indexed": false,
          "internalType": "bytes32",
          "name": "DPID",
          "type": "bytes32"
        },
        {
          "indexed": false,
          "internalType": "uint256",
          "name": "timestamp",
          "type": "uint256"
        }
      ],
      "name": "subscribers",
      "type": "event"
    },
    {
      "anonymous": false,
      "inputs": [
        {
          "indexed": true,
          "internalType": "bytes32",
          "name": "poolid",
          "type": "bytes32"
        },
        {
          "indexed": false,
          "internalType": "address",
          "name": "transferor",
          "type": "address"
        },
        {
          "indexed": false,
          "internalType": "address",
          "name": "transferee",
          "type": "address"
        },
        {
          "indexed": false,
          "internalType": "uint256",
          "name": "unitsToTransfer",
          "type": "uint256"
        },
        {
          "indexed": false,
          "internalType": "address",
          "name": "security",
          "type": "address"
        },
        {
          "indexed": false,
          "internalType": "uint256",
          "name": "price",
          "type": "uint256"
        },
        {
          "indexed": false,
          "internalType": "address",
          "name": "currency",
          "type": "address"
        },
        {
          "indexed": false,
          "internalType": "bytes32",
          "name": "settlementStatus",
          "type": "bytes32"
        },
        {
          "indexed": false,
          "internalType": "bytes32",
          "name": "tradeRef",
          "type": "bytes32"
        },
        {
          "indexed": false,
          "internalType": "uint256",
          "name": "fee",
          "type": "uint256"
        }
      ],
      "name": "tradeSettled",
      "type": "event"
    },
    {
      "inputs": [],
      "name": "owner",
      "outputs": [
        {
          "internalType": "address",
          "name": "",
          "type": "address"
        }
      ],
      "stateMutability": "view",
      "type": "function",
      "constant": true
    },
    {
      "inputs": [],
      "name": "renounceOwnership",
      "outputs": [],
      "stateMutability": "nonpayable",
      "type": "function"
    },
    {
      "inputs": [
        {
          "internalType": "address",
          "name": "newOwner",
          "type": "address"
        }
      ],
      "name": "transferOwnership",
      "outputs": [],
      "stateMutability": "nonpayable",
      "type": "function"
    },
    {
      "inputs": [
        {
          "internalType": "address",
          "name": "_factory",
          "type": "address"
        },
        {
          "internalType": "uint256",
          "name": "_issueFeePercentage",
          "type": "uint256"
        },
        {
          "internalType": "address",
          "name": "_client",
          "type": "address"
        },
        {
          "internalType": "address",
          "name": "_vault",
          "type": "address"
        },
        {
          "internalType": "address",
          "name": "_distribution",
          "type": "address"
        },
        {
          "internalType": "address",
          "name": "_products",
          "type": "address"
        }
      ],
      "name": "initialize",
      "outputs": [],
      "stateMutability": "nonpayable",
      "type": "function"
    },
    {
      "inputs": [
        {
          "internalType": "address",
          "name": "security",
          "type": "address"
        },
        {
          "internalType": "address",
          "name": "currency",
          "type": "address"
        },
        {
          "internalType": "uint256",
          "name": "securityAmount",
          "type": "uint256"
        },
        {
          "internalType": "uint256",
          "name": "minSecurityOrder",
          "type": "uint256"
        },
        {
          "internalType": "uint256",
          "name": "cashAmount",
          "type": "uint256"
        }
      ],
      "name": "issueSecondary",
      "outputs": [],
      "stateMutability": "nonpayable",
      "type": "function"
    },
    {
      "inputs": [
        {
          "components": [
            {
              "internalType": "address",
              "name": "partyAddress",
              "type": "address"
            },
            {
              "internalType": "bytes32",
              "name": "partyRef",
              "type": "bytes32"
            },
            {
              "internalType": "bytes32",
              "name": "counterpartyRef",
              "type": "bytes32"
            },
            {
              "internalType": "uint256",
              "name": "dt",
              "type": "uint256"
            },
            {
              "internalType": "uint256",
              "name": "securityTraded",
              "type": "uint256"
            },
            {
              "internalType": "uint256",
              "name": "currencyTraded",
              "type": "uint256"
            }
          ],
          "internalType": "struct ITrade.trade",
          "name": "tradeToReport",
          "type": "tuple"
        },
        {
          "internalType": "contract IOrder",
          "name": "orderbook",
          "type": "address"
        }
      ],
      "name": "requestSettlement",
      "outputs": [],
      "stateMutability": "nonpayable",
      "type": "function"
    },
    {
      "inputs": [
        {
          "internalType": "bytes32",
          "name": "dpid",
          "type": "bytes32"
        },
        {
          "internalType": "bytes32",
          "name": "poolId",
          "type": "bytes32"
        }
      ],
      "name": "getSettlementRequests",
      "outputs": [
        {
          "internalType": "bytes32[]",
          "name": "",
          "type": "bytes32[]"
        }
      ],
      "stateMutability": "view",
      "type": "function",
      "constant": true
    },
    {
      "inputs": [
        {
          "internalType": "bytes32",
          "name": "ref",
          "type": "bytes32"
        }
      ],
      "name": "getSettlementRequest",
      "outputs": [
        {
          "components": [
            {
              "internalType": "address",
              "name": "transferor",
              "type": "address"
            },
            {
              "internalType": "address",
              "name": "transferee",
              "type": "address"
            },
            {
              "internalType": "address",
              "name": "security",
              "type": "address"
            },
            {
              "internalType": "bytes32",
              "name": "status",
              "type": "bytes32"
            },
            {
              "internalType": "bytes32",
              "name": "DPID",
              "type": "bytes32"
            },
            {
              "internalType": "address",
              "name": "currency",
              "type": "address"
            },
            {
              "internalType": "uint256",
              "name": "price",
              "type": "uint256"
            },
            {
              "internalType": "uint256",
              "name": "unitsToTransfer",
              "type": "uint256"
            },
            {
              "internalType": "uint256",
              "name": "consideration",
              "type": "uint256"
            },
            {
              "internalType": "uint256",
              "name": "executionDate",
              "type": "uint256"
            },
            {
              "internalType": "contract IOrder",
              "name": "orderPool",
              "type": "address"
            },
            {
              "internalType": "bytes32",
              "name": "partyRef",
              "type": "bytes32"
            },
            {
              "internalType": "bytes32",
              "name": "counterpartyRef",
              "type": "bytes32"
            }
          ],
          "internalType": "struct ISettlor.settlement",
          "name": "",
          "type": "tuple"
        }
      ],
      "stateMutability": "view",
      "type": "function",
      "constant": true
    },
    {
      "inputs": [
        {
          "internalType": "bytes32",
          "name": "poolId",
          "type": "bytes32"
        }
      ],
      "name": "close",
      "outputs": [],
      "stateMutability": "nonpayable",
      "type": "function"
    },
    {
      "inputs": [
        {
          "internalType": "bytes32",
          "name": "ref",
          "type": "bytes32"
        },
        {
          "internalType": "bytes32",
          "name": "status",
          "type": "bytes32"
        }
      ],
      "name": "setSettlementStatus",
      "outputs": [],
      "stateMutability": "nonpayable",
      "type": "function"
    },
    {
      "inputs": [
        {
          "internalType": "bytes32",
          "name": "poolId",
          "type": "bytes32"
        }
      ],
      "name": "getSubscribers",
      "outputs": [
        {
          "components": [
            {
              "internalType": "address",
              "name": "investor",
              "type": "address"
            },
            {
              "internalType": "address",
              "name": "asset",
              "type": "address"
            },
            {
              "internalType": "address",
              "name": "currency",
              "type": "address"
            },
            {
              "internalType": "uint256",
              "name": "amount",
              "type": "uint256"
            },
            {
              "internalType": "uint256",
              "name": "price",
              "type": "uint256"
            }
          ],
          "internalType": "struct ISettlor.subscriptions[]",
          "name": "",
          "type": "tuple[]"
        }
      ],
      "stateMutability": "view",
      "type": "function",
      "constant": true
    },
    {
      "inputs": [
        {
          "internalType": "address",
          "name": "_token",
          "type": "address"
        }
      ],
      "name": "getTradingFeeCollected",
      "outputs": [
        {
          "internalType": "uint256",
          "name": "",
          "type": "uint256"
        }
      ],
      "stateMutability": "nonpayable",
      "type": "function"
    }
  ],
  "bytecode": "0x608060405234801561001057600080fd5b50600080546001600160a01b0319163390811782556040519091907f8be0079c531659141344cd1fd0a4f28419497f9722a3daafe3b4186f6b6457e0908290a36135af8061005f6000396000f3fe608060405234801561001057600080fd5b50600436106100b45760003560e01c806379a7dc0e1161007157806379a7dc0e146101385780638da5cb5b14610158578063a2dc2ab71461016d578063bfa0caa714610180578063c9fca3c7146101a0578063f2fde38b146101c0576100b4565b806304967159146100b957806306d53a93146100ce5780632d916746146100e157806339c79e0c1461010a578063715018a61461011d57806371eedc7f14610125575b600080fd5b6100cc6100c7366004612dac565b6101d3565b005b6100cc6100dc366004612bc8565b6102ba565b6100f46100ef366004612b90565b610b46565b60405161010191906131d3565b60405180910390f35b6100cc610118366004612d7c565b610c36565b6100cc6110e7565b6100cc610133366004612e47565b61114f565b61014b610146366004612d7c565b611911565b604051610101919061345b565b6101606119ea565b604051610101919061302d565b6100cc61017b366004612c18565b6119f9565b61019361018e366004612d7c565b611a6b565b604051610101919061314a565b6101b36101ae366004612dac565b611bdc565b6040516101019190613106565b6100cc6101ce366004612b90565b611d0c565b600082815260046020819052604080832060020154600c54915163e0a87de160e01b815233946001600160a01b039283169490939092169163e0a87de19161021d9186910161302d565b60206040518083038186803b15801561023557600080fd5b505afa158015610249573d6000803e3d6000fd5b505050506040513d601f19601f8201168201806040525081019061026d9190612bac565b9050826001600160a01b0316816001600160a01b0316146102a95760405162461bcd60e51b81526004016102a0906132f6565b60405180910390fd5b6102b38585611d8a565b5050505050565b600c5460405163e0a87de160e01b8152339187916000916001600160a01b03169063e0a87de1906102ef90859060040161302d565b60206040518083038186803b15801561030757600080fd5b505afa15801561031b573d6000803e3d6000fd5b505050506040513d601f19601f8201168201806040525081019061033f9190612bac565b9050826001600160a01b0316816001600160a01b0316146103725760405162461bcd60e51b81526004016102a0906132f6565b6040516370a0823160e01b815286906001600160a01b038a16906370a08231906103a090339060040161302d565b60206040518083038186803b1580156103b857600080fd5b505afa1580156103cc573d6000803e3d6000fd5b505050506040513d601f19601f820116820180604052508101906103f09190612d94565b101580156103fe5750848610155b801561048657506040516370a0823160e01b815284906001600160a01b038916906370a082319061043390339060040161302d565b60206040518083038186803b15801561044b57600080fd5b505afa15801561045f573d6000803e3d6000fd5b505050506040513d601f19601f820116820180604052508101906104839190612d94565b10155b6104a25760405162461bcd60e51b81526004016102a090613385565b6040516323b872dd60e01b81526001600160a01b038816906323b872dd906104d290339030908990600401613041565b602060405180830381600087803b1580156104ec57600080fd5b505af1158015610500573d6000803e3d6000fd5b505050506040513d601f19601f820116820180604052508101906105249190612d5c565b506040516323b872dd60e01b81526001600160a01b038916906323b872dd9061055590339030908b90600401613041565b602060405180830381600087803b15801561056f57600080fd5b505af1158015610583573d6000803e3d6000fd5b505050506040513d601f19601f820116820180604052508101906105a79190612d5c565b506002546040516372e0f85360e01b81526001600160a01b038a8116926372e0f853926105dc92909116908a906004016130ed565b600060405180830381600087803b1580156105f657600080fd5b505af115801561060a573d6000803e3d6000fd5b5050600154600354604051631d3731e960e21b8152600094506001600160a01b0390921692506374dcc7a491610648918d918d918c916004016133bc565b602060405180830381600087803b15801561066257600080fd5b505af1158015610676573d6000803e3d6000fd5b505050506040513d601f19601f8201168201806040525081019061069a9190612bac565b90506000816001600160a01b03166338fff2d06040518163ffffffff1660e01b815260040160206040518083038186803b1580156106d757600080fd5b505afa1580156106eb573d6000803e3d6000fd5b505050506040513d601f19601f8201168201806040525081019061070f9190612d94565b9050896007600083815260200190815260200160002060006101000a8154816001600160a01b0302191690836001600160a01b03160217905550336008600083815260200190815260200160002060006101000a8154816001600160a01b0302191690836001600160a01b031602179055508060066000846001600160a01b03166001600160a01b03168152602001908152602001600020819055506060600260009054906101000a90046001600160a01b03166001600160a01b031663f94d4668836040518263ffffffff1660e01b81526004016107ee91906131d3565b60006040518083038186803b15801561080657600080fd5b505afa15801561081a573d6000803e3d6000fd5b505050506040513d6000823e601f3d908101601f191682016040526108429190810190612c90565b50509050606061085182612754565b90506060825167ffffffffffffffff8111801561086d57600080fd5b50604051908082528060200260200182016040528015610897578160200160208202803683370190505b5060025460405163095ea7b360e01b81529192506001600160a01b03808f169263095ea7b3926108cd9216908d906004016130ed565b602060405180830381600087803b1580156108e757600080fd5b505af11580156108fb573d6000803e3d6000fd5b505050506040513d601f19601f8201168201806040525081019061091f9190612d5c565b508c6001600160a01b031663095ea7b3600260009054906101000a90046001600160a01b03168d6040518363ffffffff1660e01b81526004016109639291906130ed565b602060405180830381600087803b15801561097d57600080fd5b505af1158015610991573d6000803e3d6000fd5b505050506040513d601f19601f820116820180604052508101906109b59190612d5c565b5060005b8351811015610a7c578d6001600160a01b03168482815181106109d857fe5b60200260200101516001600160a01b03161415610a0d578b8282815181106109fc57fe5b602002602001018181525050610a74565b8c6001600160a01b0316848281518110610a2357fe5b60200260200101516001600160a01b03161415610a4757898282815181106109fc57fe5b610a5b6001600160701b03620f4240612757565b828281518110610a6757fe5b6020026020010181815250505b6001016109b9565b50610a85612a2f565b6040518060800160405280848152602001838152602001600084604051602001610ab0929190613294565b60408051808303601f190181529181529082526000602090920191909152600254905163172b958560e31b81529192506001600160a01b03169063b95cac2890610b049088903090819087906004016131dc565b600060405180830381600087803b158015610b1e57600080fd5b505af1158015610b32573d6000803e3d6000fd5b505050505050505050505050505050505050565b600d546000906001600160a01b03163314610b735760405162461bcd60e51b81526004016102a09061334e565b6001600160a01b0382166000908152600a6020526040902054610b968180612757565b6001600160a01b038085166000818152600a60205260409081902093909355600d54925163a9059cbb60e01b8152909263a9059cbb92610bdd9291169085906004016130ed565b602060405180830381600087803b158015610bf757600080fd5b505af1158015610c0b573d6000803e3d6000fd5b505050506040513d601f19601f82011682018060405250810190610c2f9190612d5c565b5092915050565b60008181526007602052604080822054600c54915163e0a87de160e01b815233936001600160a01b03928316939092169063e0a87de190610c7b90859060040161302d565b60206040518083038186803b158015610c9357600080fd5b505afa158015610ca7573d6000803e3d6000fd5b505050506040513d601f19601f82011682018060405250810190610ccb9190612bac565b9050826001600160a01b0316816001600160a01b031614610cfe5760405162461bcd60e51b81526004016102a0906132f6565b6000848152600760209081526040808320548151636945c1fd60e01b815291516001600160a01b0390911692636945c1fd9260048082019391829003018186803b158015610d4b57600080fd5b505afa158015610d5f573d6000803e3d6000fd5b505050506040513d601f19601f82011682018060405250810190610d839190612bac565b600254604051631f29a8cd60e31b81529192506060916001600160a01b039091169063f94d466890610db99089906004016131d3565b60006040518083038186803b158015610dd157600080fd5b505afa158015610de5573d6000803e3d6000fd5b505050506040513d6000823e601f3d908101601f19168201604052610e0d9190810190612c90565b505090506060610e1c82612754565b90506060825167ffffffffffffffff81118015610e3857600080fd5b50604051908082528060200260200182016040528015610e62578160200160208202803683370190505b509050610e6d612a2f565b60405180608001604052808481526020018381526020016001620f42406001600160701b0303604051602001610ea492919061327c565b60408051808303601f1901815291815290825260006020909201919091526002549051638bdb391360e01b81529192506001600160a01b031690638bdb391390610ef8908c903090819087906004016131dc565b600060405180830381600087803b158015610f1257600080fd5b505af1158015610f26573d6000803e3d6000fd5b50505060008a815260076020526040908190205490518b92507f56eadf552f1d54f8f73fbbf801097c1c4d7bb3d77d5ac2bebfd0a8151642d55a91610f78916001600160a01b039091169042906130ed565b60405180910390a2600089815260086020526040908190205490516370a0823160e01b81527f0fe0f3064b29829cfd9d18aed3353e1cd349c7c77569640c36167bfaf3461f479187916001600160a01b03918216918316906370a0823190610fe490309060040161302d565b60206040518083038186803b158015610ffc57600080fd5b505afa158015611010573d6000803e3d6000fd5b505050506040513d601f19601f820116820180604052508101906110349190612d94565b60008d815260076020526040908190205490516370a0823160e01b81526001600160a01b039091169081906370a082319061107390309060040161302d565b60206040518083038186803b15801561108b57600080fd5b505afa15801561109f573d6000803e3d6000fd5b505050506040513d601f19601f820116820180604052508101906110c39190612d94565b6040516110d4959493929190613065565b60405180910390a1505050505050505050565b611105336110f36119ea565b6001600160a01b0316146101aa612772565b600080546040516001600160a01b03909116907f8be0079c531659141344cd1fd0a4f28419497f9722a3daafe3b4186f6b6457e0908390a3600080546001600160a01b0319169055565b3360009081526006602052604090205461117b5760405162461bcd60e51b81526004016102a09061342d565b611183612a59565b6020830151604051632bbc239560e11b81526001600160a01b03841691635778472a916111b391906004016131d3565b60a06040518083038186803b1580156111cb57600080fd5b505afa1580156111df573d6000803e3d6000fd5b505050506040513d601f19601f820116820180604052508101906112039190612dcd565b905061120d612a59565b6040808501519051632bbc239560e11b81526001600160a01b03851691635778472a9161123d91906004016131d3565b60a06040518083038186803b15801561125557600080fd5b505afa158015611269573d6000803e3d6000fd5b505050506040513d601f19601f8201168201806040525081019061128d9190612dcd565b90506000836001600160a01b0316632541897f6040518163ffffffff1660e01b815260040160206040518083038186803b1580156112ca57600080fd5b505afa1580156112de573d6000803e3d6000fd5b505050506040513d601f19601f820116820180604052508101906113029190612bac565b90506000846001600160a01b0316636945c1fd6040518163ffffffff1660e01b815260040160206040518083038186803b15801561133f57600080fd5b505afa158015611353573d6000803e3d6000fd5b505050506040513d601f19601f820116820180604052508101906113779190612bac565b90506000826001600160a01b031685602001516001600160a01b03161461139f5783516113a2565b84515b90506000826001600160a01b031685602001516001600160a01b0316146113ca5785516113cd565b84515b608089015190915060006113e086612784565b905060006114076113fd8c60a001516113f889612890565b61292b565b8c60800151612937565b9050611411612a88565b604051806101a00160405280876001600160a01b03168152602001866001600160a01b03168152602001896001600160a01b031681526020016650656e64696e6760c81b8152602001848152602001886001600160a01b0316815260200183815260200185815260200161148c8e60a001516113f88b612890565b81526020018d6060015181526020018c6001600160a01b03168152602001896001600160a01b03168c602001516001600160a01b0316146114d1578d604001516114d7565b8d602001515b8152602001886001600160a01b03168b602001516001600160a01b031614611503578d60200151611509565b8d604001515b815250905060008c602001518d6040015160405160200161152b92919061301f565b60408051601f198184030181529181528151602092830120600081815260049093529120549091506001600160a01b031661190257600081815260046020818152604092839020855181546001600160a01b03199081166001600160a01b039283161783559287015160018301805485169183169190911790559386015160028201805484169186169190911790556060860151600382015560808601519281019290925560a0850151600583018054831691851691909117905560c0850151600683015560e0850151600783015561010085015160088301556101208501516009830155610140850151600a83018054909216931692909217909155610160830151600b820155610180830151600c90910155611647612af4565b6040518060a00160405280886001600160a01b031681526020018b6001600160a01b031681526020018a6001600160a01b0316815260200187815260200185815250905060008d6001600160a01b03166338fff2d06040518163ffffffff1660e01b815260040160206040518083038186803b1580156116c657600080fd5b505afa1580156116da573d6000803e3d6000fd5b505050506040513d601f19601f820116820180604052508101906116fe9190612d94565b90506009600082815260200190815260200160002082908060018154018082558091505060019003906000526020600020906005020160009091909190915060008201518160000160006101000a8154816001600160a01b0302191690836001600160a01b0316021790555060208201518160010160006101000a8154816001600160a01b0302191690836001600160a01b0316021790555060408201518160020160006101000a8154816001600160a01b0302191690836001600160a01b03160217905550606082015181600301556080820151816004015550508a6001600160a01b03167f0dd4a121adafd4537e046c792647be3f3978f362ad83b50586e249ae8641de2f828b8b8e8c88608001518a8c608001514260405161182b99989796959493929190613218565b60405180910390a2608084015160009081526005602090815260408083208054600181018255908452918320909101859055600c54905163e0a87de160e01b81526001600160a01b039091169063e0a87de19061188c908f9060040161302d565b60206040518083038186803b1580156118a457600080fd5b505afa1580156118b8573d6000803e3d6000fd5b505050506040513d601f19601f820116820180604052508101906118dc9190612bac565b6001600160a01b031614156118ff576118ff8366436f6e6669726d60c81b611d8a565b50505b50505050505050505050505050565b611919612a88565b816119365760405162461bcd60e51b81526004016102a090613323565b5060009081526004602081815260409283902083516101a08101855281546001600160a01b03908116825260018301548116938201939093526002820154831694810194909452600381015460608501529182015460808401526005820154811660a0840152600682015460c0840152600782015460e084015260088201546101008401526009820154610120840152600a82015416610140830152600b810154610160830152600c015461018082015290565b6000546001600160a01b031690565b611a05336110f36119ea565b600180546001600160a01b03199081166001600160a01b0398891617909155600395909555600b805486169487169490941790935560028054851692861692909217909155600c8054841692851692909217909155600d80549092169216919091179055565b60008181526007602052604080822054600c54915163e0a87de160e01b815260609333936001600160a01b0393841693919291169063e0a87de190611ab490859060040161302d565b60206040518083038186803b158015611acc57600080fd5b505afa158015611ae0573d6000803e3d6000fd5b505050506040513d601f19601f82011682018060405250810190611b049190612bac565b9050826001600160a01b0316816001600160a01b031614611b375760405162461bcd60e51b81526004016102a0906132f6565b600085815260096020908152604080832080548251818502810185019093528083529193909284015b82821015611bce5760008481526020908190206040805160a0810182526005860290920180546001600160a01b039081168452600180830154821685870152600283015490911692840192909252600381015460608401526004015460808301529083529092019101611b60565b505050509350505050919050565b60008181526007602052604080822054600c54915163e0a87de160e01b815260609333936001600160a01b0393841693919291169063e0a87de190611c2590859060040161302d565b60206040518083038186803b158015611c3d57600080fd5b505afa158015611c51573d6000803e3d6000fd5b505050506040513d601f19601f82011682018060405250810190611c759190612bac565b9050826001600160a01b0316816001600160a01b031614611ca85760405162461bcd60e51b81526004016102a0906132f6565b60008681526005602090815260409182902080548351818402810184019094528084529091830182828015611cfc57602002820191906000526020600020905b815481526020019060010190808311611ce8575b5050505050935050505092915050565b611d18336110f36119ea565b611d2f6001600160a01b03821615156101ab612772565b600080546040516001600160a01b03808516939216917f8be0079c531659141344cd1fd0a4f28419497f9722a3daafe3b4186f6b6457e091a3600080546001600160a01b0319166001600160a01b0392909216919091179055565b6000828152600460208190526040822001549066436f6e6669726d60c81b831480611dbd5750826514995a9958dd60d21b145b611dd95760405162461bcd60e51b81526004016102a0906132bf565b600084815260046020526040902060080154600354611df89190612988565b60038190556000858152600460205260408120600501549091611e2c91611e27906001600160a01b0316612890565b612937565b90508366436f6e6669726d60c81b148015611e62575060008581526004602052604090206003015466436f6e6669726d60c81b14155b8015611e8657506000858152600460205260409020600301546311985a5b60e21b14155b156123b7576000858152600460209081526040808320600501546001600160a01b03168352600a909152902054611ebd90826129be565b60008681526004602081815260408084206005810180546001600160a01b039081168752600a855283872097909755948b9052918390529254905492516323b872dd60e01b8152908416936323b872dd93611f1f939116913091879101613041565b602060405180830381600087803b158015611f3957600080fd5b505af1158015611f4d573d6000803e3d6000fd5b505050506040513d601f19601f82011682018060405250810190611f719190612d5c565b1561210857600085815260046020819052604091829020600a810154600b820154600c83015460099093015494516381b5da1d60e01b81526001600160a01b03909216946381b5da1d94611fc794929301613266565b600060405180830381600087803b158015611fe157600080fd5b505af1158015611ff5573d6000803e3d6000fd5b5050505060005b6000848152600560205260409020548110156120df57600084815260056020526040902080548791908390811061202f57fe5b906000526020600020015414156120d7576000848152600560205260409020546000190181141561208457600084815260056020526040902080548290811061207457fe5b60009182526020822001556120d7565b60008481526005602052604090208054600183019081106120a157fe5b90600052602060002001546005600086815260200190815260200160002082815481106120ca57fe5b6000918252602090912001555b600101611ffc565b50600085815260046020526040902066436f6e6669726d60c81b600390910155600191506123b2565b6000858152600460205260408120600881015460059091015461213d9190612138906001600160a01b0316612890565b6129d0565b600087815260046020819052604091829020600a810154600b820154600783015460069093015494516307ef938960e41b81529596506001600160a01b0390911694637ef938909461219494929392909101613266565b600060405180830381600087803b1580156121ae57600080fd5b505af11580156121c2573d6000803e3d6000fd5b505050600087815260046020819052604091829020600a810154600c82015460069092015493516307ef938960e41b81526001600160a01b039091169450637ef938909361221293879201613266565b600060405180830381600087803b15801561222c57600080fd5b505af1158015612240573d6000803e3d6000fd5b5050506000878152600460208190526040918290206005810154815460019092015493516323b872dd60e01b81526001600160a01b0391821695506323b872dd946122949493831693921691879101613041565b602060405180830381600087803b1580156122ae57600080fd5b505af11580156122c2573d6000803e3d6000fd5b505050506040513d601f19601f820116820180604052508101906122e69190612d5c565b5060008681526004602081905260409182902060028101546001820154825460079093015494516323b872dd60e01b81526001600160a01b03928316956323b872dd9561233d959385169490931692909101613041565b602060405180830381600087803b15801561235757600080fd5b505af115801561236b573d6000803e3d6000fd5b505050506040513d601f19601f8201168201806040525081019061238f9190612d5c565b505060008581526004602052604090206311985a5b60e21b600390910155600191505b61258d565b836514995a9958dd60d21b1480156123e957506000858152600460205260409020600301546514995a9958dd60d21b14155b1561258d576000858152600460205260408120600881015460059091015461241e9190612138906001600160a01b0316612890565b6000878152600460208190526040918290206005810154815460019092015493516323b872dd60e01b81529495506001600160a01b03908116946323b872dd946124719493831693921691879101613041565b602060405180830381600087803b15801561248b57600080fd5b505af115801561249f573d6000803e3d6000fd5b505050506040513d601f19601f820116820180604052508101906124c39190612d5c565b5060008681526004602081905260409182902060028101546001820154825460079093015494516323b872dd60e01b81526001600160a01b03928316956323b872dd9561251a959385169490931692909101613041565b602060405180830381600087803b15801561253457600080fd5b505af1158015612548573d6000803e3d6000fd5b505050506040513d601f19601f8201168201806040525081019061256c9190612d5c565b505060008581526004602052604090206514995a9958dd60d21b6003909101555b81156102b3576000858152600460208181526040808420600a0154815163038fff2d60e41b815291516001600160a01b03909116936338fff2d0938382019390929190829003018186803b1580156125e457600080fd5b505afa1580156125f8573d6000803e3d6000fd5b505050506040513d601f19601f8201168201806040525081019061261c9190612d94565b9050807f20bc58ab7015bb746413e8ea58a156a1b772a58e47523f8e2e54195b80a7beef6004600089815260200190815260200160002060000160009054906101000a90046001600160a01b0316600460008a815260200190815260200160002060010160009054906101000a90046001600160a01b0316600460008b815260200190815260200160002060070154600460008c815260200190815260200160002060020160009054906101000a90046001600160a01b0316600460008d815260200190815260200160002060060154600460008e815260200190815260200160002060050160009054906101000a90046001600160a01b0316600460008f8152602001908152602001600020600301548e8b60405161274499989796959493929190613098565b60405180910390a2505050505050565b90565b6000612767838311156001612772565b508082035b92915050565b8161278057612780816129dc565b5050565b600c5460405163e0a87de160e01b815260009182916001600160a01b039091169063e0a87de1906127b990869060040161302d565b60206040518083038186803b1580156127d157600080fd5b505afa1580156127e5573d6000803e3d6000fd5b505050506040513d601f19601f820116820180604052508101906128099190612bac565b600b5460405162157d5560e61b81529192506001600160a01b03169063055f55409061283990849060040161302d565b60206040518083038186803b15801561285157600080fd5b505afa158015612865573d6000803e3d6000fd5b505050506040513d601f19601f820116820180604052508101906128899190612d94565b9392505050565b600080826001600160a01b031663313ce5676040518163ffffffff1660e01b815260040160206040518083038186803b1580156128cc57600080fd5b505afa1580156128e0573d6000803e3d6000fd5b505050506040513d601f19601f820116820180604052508101906129049190612ed0565b60ff1690506000612916601283612757565b600a0a670de0b6b3a764000002949350505050565b60006128898383612988565b60006129468215156004612772565b826129535750600061276c565b670de0b6b3a7640000838102906129769085838161296d57fe5b04146005612772565b82818161297f57fe5b0491505061276c565b60008282026129ac8415806129a55750838583816129a257fe5b04145b6003612772565b670de0b6b3a764000090049392505050565b60008282016128898482101583612772565b60006128898383612937565b62461bcd60e51b6000908152602060045260076024526642414c23000030600a808404818106603090810160081b95839006959095019082900491820690940160101b939093010160c81b604452606490fd5b60405180608001604052806060815260200160608152602001606081526020016000151581525090565b6040805160a0810182526000808252602082018190529091820190815260200160008152602001600081525090565b604080516101a081018252600080825260208201819052918101829052606081018290526080810182905260a0810182905260c0810182905260e08101829052610100810182905261012081018290526101408101829052610160810182905261018081019190915290565b6040805160a08101825260008082526020820181905291810182905260608101829052608081019190915290565b600082601f830112612b32578081fd5b8151612b45612b4082613541565b61351a565b818152915060208083019084810181840286018201871015612b6657600080fd5b60005b84811015612b8557815184529282019290820190600101612b69565b505050505092915050565b600060208284031215612ba1578081fd5b813561288981613561565b600060208284031215612bbd578081fd5b815161288981613561565b600080600080600060a08688031215612bdf578081fd5b8535612bea81613561565b94506020860135612bfa81613561565b94979496505050506040830135926060810135926080909101359150565b60008060008060008060c08789031215612c30578081fd5b8635612c3b81613561565b9550602087013594506040870135612c5281613561565b93506060870135612c6281613561565b92506080870135612c7281613561565b915060a0870135612c8281613561565b809150509295509295509295565b600080600060608486031215612ca4578283fd5b835167ffffffffffffffff80821115612cbb578485fd5b818601915086601f830112612cce578485fd5b8151612cdc612b4082613541565b80828252602080830192508086018b828387028901011115612cfc57898afd5b8996505b84871015612d27578051612d1381613561565b845260019690960195928101928101612d00565b508901519097509350505080821115612d3e578384fd5b50612d4b86828701612b22565b925050604084015190509250925092565b600060208284031215612d6d578081fd5b81518015158114612889578182fd5b600060208284031215612d8d578081fd5b5035919050565b600060208284031215612da5578081fd5b5051919050565b60008060408385031215612dbe578182fd5b50508035926020909101359150565b600060a08284031215612dde578081fd5b612de860a061351a565b8251612df381613561565b81526020830151612e0381613561565b6020820152604083015160038110612e19578283fd5b6040820152606083015160058110612e2f578283fd5b60608201526080928301519281019290925250919050565b60008082840360e0811215612e5a578283fd5b60c0811215612e67578283fd5b50612e7260c061351a565b8335612e7d81613561565b808252506020840135602082015260408401356040820152606084013560608201526080840135608082015260a084013560a08201528092505060c0830135612ec581613561565b809150509250929050565b600060208284031215612ee1578081fd5b815160ff81168114612889578182fd5b6001600160a01b03169052565b6000815180845260208085019450808401835b83811015612f2d57815187529582019590820190600101612f11565b509495945050505050565b15159052565b60008151808452815b81811015612f6357602081850181015186830182015201612f47565b81811115612f745782602083870101525b50601f01601f19169290920160200192915050565b8051608080845281519084018190526000916020919082019060a0860190845b81811015612fce5783516001600160a01b031683529284019291840191600101612fa9565b505082850151915085810383870152612fe78183612efe565b92505050604083015184820360408601526130028282612f3e565b91505060608301516130176060860182612f38565b509392505050565b918252602082015260400190565b6001600160a01b0391909116815260200190565b6001600160a01b039384168152919092166020820152604081019190915260600190565b6001600160a01b039586168152938516602085015260408401929092529092166060820152608081019190915260a00190565b6001600160a01b03998a168152978916602089015260408801969096529387166060870152608086019290925290941660a084015260c083019390935260e08201929092526101008101919091526101200190565b6001600160a01b03929092168252602082015260400190565b6020808252825182820181905260009190848201906040850190845b8181101561313e57835183529284019291840191600101613122565b50909695505050505050565b602080825282518282018190526000919060409081850190868401855b828110156131c657815180516001600160a01b031685528681015161318e88870182612ef1565b508581015161319f87870182612ef1565b50606081810151908601526080908101519085015260a09093019290850190600101613167565b5091979650505050505050565b90815260200190565b8481526001600160a01b0384811660208301528316604082015260806060820181905260009061320e90830184612f89565b9695505050505050565b9889526001600160a01b0397881660208a01529587166040890152939095166060870152608086019190915260a085015260c084019290925260e08301919091526101008201526101200190565b9283526020830191909152604082015260600190565b604081016002841061328a57fe5b9281526020015290565b6000600484106132a057fe5b838252604060208301526132b76040830184612efe565b949350505050565b60208082526019908201527f536574746c656d656e742073746174757320696e76616c696400000000000000604082015260600190565b6020808252601390820152724f6e6c79206973737565206d616e616765727360681b604082015260600190565b602080825260119082015270496e76616c6964207265666572656e636560781b604082015260600190565b6020808252601f908201527f556e617574686f72697a656420636f6c6c656374696f6e207265717565737400604082015260600190565b60208082526019908201527f4e6f2062616c616e636520746f2063726561746520706f6f6c00000000000000604082015260600190565b60c0808252601390820152722b32b934b334b2b2102837b7b6102a37b5b2b760691b60e0820152610100602082018190526003908201526215941560ea1b6101208201526001600160a01b039485166040820152929093166060830152608082015260a08101919091526101400190565b602080825260149082015273125b9d985b1a59081c1bdbdb081c995c5d595cdd60621b604082015260600190565b60006101a08201905061346f828451612ef1565b60208301516134816020840182612ef1565b5060408301516134946040840182612ef1565b50606083015160608301526080830151608083015260a08301516134bb60a0840182612ef1565b5060c083015160c083015260e083015160e0830152610100808401518184015250610120808401518184015250610140808401516134fb82850182612ef1565b5050610160838101519083015261018092830151929091019190915290565b60405181810167ffffffffffffffff8111828210171561353957600080fd5b604052919050565b600067ffffffffffffffff821115613557578081fd5b5060209081020190565b6001600160a01b038116811461357657600080fd5b5056fea26469706673582212202062468f03cb9fbb0753f8a6f04296e12e02cd280d67182e69fe4b176942b5d364736f6c63430007010033",
  "immutableReferences": {},
  "source": "// External interface for settlement of trades\n// (c) Kallol Borah, 2022\n// \"SPDX-License-Identifier: BUSL1.1\"\n\npragma solidity 0.7.1;\npragma experimental ABIEncoderV2;\n\nimport \"./interfaces/ISettlor.sol\";\nimport \"./interfaces/IOrder.sol\";\nimport \"./interfaces/ITrade.sol\";\nimport \"./interfaces/IFactory.sol\";\nimport \"./interfaces/ISecurity.sol\";\nimport \"./interfaces/VerifiedClient.sol\";\nimport \"./interfaces/ISecondaryIssuePool.sol\";\nimport \"./interfaces/ISecondaryIssuePoolFactory.sol\";\n\nimport \"@balancer-labs/v2-solidity-utils/contracts/math/Math.sol\";\nimport \"@balancer-labs/v2-solidity-utils/contracts/math/FixedPoint.sol\";\nimport \"@balancer-labs/v2-solidity-utils/contracts/openzeppelin/ERC20.sol\";\nimport \"@balancer-labs/v2-solidity-utils/contracts/openzeppelin/IERC20.sol\";\nimport \"@balancer-labs/v2-solidity-utils/contracts/openzeppelin/Ownable.sol\";\n \ncontract SecondaryIssueManager is ISettlor, Ownable {\n\n    using Math for uint256;\n    using FixedPoint for uint256;\n\n    // balancer variables\n    address private factory;    \n\n    address private vault;\n\n    //fee\n    uint256 private fee;\n\n    // mapping settlement ref to trade execution data\n    mapping(bytes32 => ISettlor.settlement) settlements;\n\n    //mapping depository participants to trades they are part of\n    mapping(bytes32 => bytes32[]) private trades;\n\n    //mapping pool address to pool id\n    mapping(address => bytes32) private pools;\n\n    //mapping pool id to security token traded\n    mapping(bytes32 => address) private poolSecurity;\n\n    //mapping pool id to issuer\n    mapping(bytes32 => address) private issuer;\n\n    //mapping pool id to investors\n    mapping(bytes32 => subscriptions[]) internal investors; \n\n    // mapping token address to issuing fee collected\n    mapping(address => uint256) private fees;\n\n    // reference to the Verified Client contract\n    VerifiedClient private client;\n\n    // reference to the Verified factory contract that this asset manager checks security token issues with\n    IFactory private products;\n\n    address private distribution;\n\n    uint256 private constant _INITIAL_BPT_SUPPLY = 2**(112) - 1;\n    uint256 private constant _DEFAULT_MINIMUM_BPT = 1e6;\n\n    event tradeSettled( \n        bytes32 indexed poolid,\n        address transferor,\n        address transferee,\n        uint256 unitsToTransfer,\n        address security,\n        uint256 price,\n        address currency,\n        bytes32 settlementStatus,\n        bytes32 tradeRef,\n        uint256 fee\n    );\n\n    event subscribers(bytes32 poolId, address seller, address investor, \n                        address indexed securityTraded, address currencySettled, uint256 amount, uint256 price,\n                        bytes32 tradeRef, bytes32 DPID, uint256 timestamp);\n\n    event closures(bytes32 indexed poolId, address security, uint256 timestamp);\n\n    modifier onlyIssueManager(address sender, address security){\n        address DP = products.getDP(security);\n        require(DP==sender, \"Only issue managers\");\n        _;\n    }\n\n    /**\n        Initializes this asset management contract\n        @param  _factory            reference to the secondary issue pool factory contract\n        @param  _issueFeePercentage  percentage of trading fee to be charged by the asset manager\n        @param  _client             address of Verified client contract\n        @param  _vault              address of balancer vault\n     */\n    function initialize(address _factory, uint256 _issueFeePercentage, address _client, address _vault, address _distribution, address _products) public onlyOwner {\n        factory = _factory;\n        fee = _issueFeePercentage;\n        client = VerifiedClient(_client);\n        vault = _vault;\n        products = IFactory(_products);\n        distribution = _distribution;\n    }\n\n    /**\n        Joins existing (secondary) tokenized assets into pool by primary issue token holders\n        @param  security            reference to asset issued\n        @param  currency            reference to cash (settlement) token\n        @param  securityAmount      amount of security to issue\n        @param  minSecurityOrder    minimum order size of securities issued in pool\n        @param  cashAmount          amount of currency issued in pool\n     */\n    function issueSecondary(address security, address currency, uint256 securityAmount, uint256 minSecurityOrder, uint256 cashAmount) override external onlyIssueManager(msg.sender, security){\n        require(IERC20(security).balanceOf(msg.sender)>=securityAmount && securityAmount>=minSecurityOrder\n                && IERC20(currency).balanceOf(msg.sender)>=cashAmount\n                , \"No balance to create pool\");\n        ERC20(currency).transferFrom(msg.sender, address(this), cashAmount);\n        ERC20(security).transferFrom(msg.sender, address(this), securityAmount);  \n        ISecurity(security).whiteList(vault, securityAmount);      \n        address pool = ISecondaryIssuePoolFactory(factory).create(\n            \"Verified Pool Token\",\n            \"VPT\",\n            security,\n            currency,\n            minSecurityOrder,\n            fee\n        ); \n        bytes32 poolId = ISecondaryIssuePool(pool).getPoolId();  \n        poolSecurity[poolId] = security; \n        issuer[poolId] = msg.sender;\n        pools[pool] = poolId;\n        // join the pool here                \n        (IERC20[] memory tokens, , ) = IVault(vault).getPoolTokens(poolId);\n        IAsset[] memory assets = _convertERC20sToAssets(tokens);\n        uint256[] memory maxAmountsIn = new uint256[](tokens.length);\n        ERC20(currency).approve(vault, cashAmount);\n        ERC20(security).approve(vault, securityAmount);\n        for (uint256 t; t < tokens.length; t++) {\n            if(tokens[t]==IERC20(security))\n                maxAmountsIn[t] = securityAmount;\n            else if(tokens[t]==IERC20(currency))\n                maxAmountsIn[t] = cashAmount;\n            else \n                maxAmountsIn[t] = Math.sub(_INITIAL_BPT_SUPPLY, _DEFAULT_MINIMUM_BPT);\n        }\n        IVault.JoinPoolRequest memory request = IVault.JoinPoolRequest({\n            assets: assets,\n            maxAmountsIn: maxAmountsIn,\n            userData: abi.encode(JoinKind.INIT, maxAmountsIn),\n            fromInternalBalance: false\n        });         \n        IVault(vault).joinPool(poolId, address(this), address(this), request);\n    }\n    \n    /**\n        Used by Secondary pools to request settlement for trades\n        @param  tradeToReport     data structure holding order matching data\n     */\n    function requestSettlement(ITrade.trade memory tradeToReport, IOrder orderbook) override external {\n        require(pools[msg.sender]!=\"\", \"Invalid pool request\");\n        IOrder.order memory orderByParty = orderbook.getOrder(tradeToReport.partyRef);\n        IOrder.order memory orderByCounterparty = orderbook.getOrder(tradeToReport.counterpartyRef);\n        address securityTraded = orderbook.getSecurity(); \n        address currencySettled = orderbook.getCurrency();\n        address party = orderByParty.tokenIn==securityTraded ? orderByParty.party : orderByCounterparty.party;\n        address counterparty = orderByCounterparty.tokenIn==currencySettled ? orderByCounterparty.party : orderByParty.party;\n        uint256 amount = tradeToReport.securityTraded; \n        bytes32 _DPID = getTransferAgent(securityTraded);\n        uint256 price = FixedPoint.divDown(_upscale(tradeToReport.currencyTraded, _computeScalingFactor(IERC20(currencySettled))), tradeToReport.securityTraded);\n        ISettlor.settlement memory tradeToSettle = ISettlor.settlement({\n            transferor: party, //sells securities\n            transferee: counterparty, //buys securities\n            security: securityTraded,\n            status: \"Pending\",\n            currency: currencySettled,\n            price: price,\n            unitsToTransfer: amount,\n            consideration: _upscale(tradeToReport.currencyTraded, _computeScalingFactor(IERC20(currencySettled))),\n            executionDate: tradeToReport.dt,\n            partyRef: orderByParty.tokenIn==securityTraded ? tradeToReport.partyRef : tradeToReport.counterpartyRef,\n            counterpartyRef: orderByCounterparty.tokenIn==currencySettled ? tradeToReport.counterpartyRef : tradeToReport.partyRef,\n            DPID: _DPID,\n            orderPool: orderbook\n        });\n        bytes32 ref = keccak256(abi.encodePacked(tradeToReport.partyRef, tradeToReport.counterpartyRef));\n        if(settlements[ref].transferor==address(0x0)){\n            settlements[ref] = tradeToSettle;\n            ISettlor.subscriptions memory subscription = ISettlor.subscriptions({\n                investor: counterparty, //buyer of securities\n                asset: securityTraded,\n                currency: currencySettled, \n                amount: amount,   \n                price: price\n            });\n            bytes32 poolId = orderbook.getPoolId();\n            investors[poolId].push(subscription);\n            emit subscribers(poolId, party, counterparty, securityTraded, currencySettled, amount, subscription.price, ref, tradeToSettle.DPID, block.timestamp);\n            trades[tradeToSettle.DPID].push(ref);\n            if(products.getDP(securityTraded)==address(0x0)) //if the issue is not managed\n                setSettlement(ref, \"Confirm\");\n        }\n    }\n    \n    /**\n        Fetches trade settlement requests for depository participant\n        @param  dpid         identifier of depository participant (eg, transfer agent) that is authorized to settle the asset \n     */\n    function getSettlementRequests(bytes32 dpid, bytes32 poolId) override external view onlyIssueManager(msg.sender, poolSecurity[poolId]) returns(bytes32[] memory){\n        /*if(poolId!=\"\"){\n            bytes32[] memory refs = new bytes32[](trades[dpid].length);\n            uint j=0;\n            for(uint256 i=0; i<trades[dpid].length; i++){\n                 IOrder ob = settlements[trades[dpid][i]].orderPool;\n                 bytes32 poolid = ob.getPoolId();\n                 if(poolid==poolId){\n                     refs[j] == trades[dpid][i];\n                     j++;\n                 }\n            }\n            return refs;\n        }\n        else{*/\n            return trades[dpid];\n        //}\n    }\n\n    /**\n        Fetches a specific trade settlement request        \n        @param  ref         reference to the trade\n     */\n    function getSettlementRequest(bytes32 ref) override external view returns(settlement memory){\n        require(ref!=\"\", \"Invalid reference\"); \n        return settlements[ref];\n    }\n    event closure(address currency, address issuer, uint256 currencyBalance, address security, uint256 securityBalance);\n    function close(bytes32 poolId) override external onlyIssueManager(msg.sender, poolSecurity[poolId]) {\n        address currency = ISecondaryIssuePool(poolSecurity[poolId]).getCurrency(); \n        // exit the pool here   \n        (IERC20[] memory tokens, , ) = IVault(vault).getPoolTokens(poolId);\n        IAsset[] memory assets = _convertERC20sToAssets(tokens);\n        uint256[] memory amountsOut = new uint256[](tokens.length);\n        IVault.ExitPoolRequest memory request = IVault.ExitPoolRequest({\n            assets: assets,\n            minAmountsOut: amountsOut,\n            userData: abi.encode(ExitKind.EXACT_BPT_IN_FOR_TOKENS_OUT, _INITIAL_BPT_SUPPLY - _DEFAULT_MINIMUM_BPT),\n            toInternalBalance: false\n        });         \n        IVault(vault).exitPool(poolId, address(this), payable(address(this)), request);\n        emit closures(poolId, poolSecurity[poolId], block.timestamp);\n        emit closure(currency, issuer[poolId], IERC20(currency).balanceOf(address(this)), poolSecurity[poolId], IERC20(poolSecurity[poolId]).balanceOf(address(this)));\n        //IERC20(currency).transfer(issuer[poolId], IERC20(currency).balanceOf(address(this)));\n        //IERC20(poolSecurity[poolId]).transfer(issuer[poolId], IERC20(poolSecurity[poolId]).balanceOf(address(this)));\n    }\n    \n    /**\n        Sets settlement status for trades executed\n        @param  ref         reference to the trade executed\n        @param  status      settlement status\n     */\n    function setSettlementStatus(bytes32 ref, bytes32 status) override external onlyIssueManager(msg.sender, settlements[ref].security){\n        setSettlement(ref, status);\n    }\n\n    function setSettlement(bytes32 ref, bytes32 status) private {\n        bytes32 DPID = settlements[ref].DPID;\n        bool settled = false;\n        require(status==\"Confirm\" || status==\"Reject\", \"Settlement status invalid\");\n        fee = FixedPoint.mulDown(settlements[ref].consideration, fee);\n        uint256 pay = FixedPoint.divDown(fee, _computeScalingFactor(IERC20(settlements[ref].currency)));\n        if(status==\"Confirm\" && settlements[ref].status!=\"Confirm\" && settlements[ref].status!=\"Fail\"){            \n            fees[settlements[ref].currency] = Math.add(fees[settlements[ref].currency], pay);\n            if(IERC20(settlements[ref].currency).transferFrom(settlements[ref].transferor, address(this), pay)){  //seller pays the fee after getting paid from pool          \n                settlements[ref].orderPool.orderFilled(settlements[ref].partyRef, settlements[ref].counterpartyRef, settlements[ref].executionDate);\n                for(uint i=0; i<trades[DPID].length; i++){\n                    if(trades[DPID][i]==ref){\n                        if(i==trades[DPID].length-1)\n                            delete trades[DPID][i];\n                        else\n                            trades[DPID][i] = trades[DPID][i+1];\n                    }\n                }\n                settlements[ref].status = \"Confirm\";    \n                settled = true;            \n            }\n            else{\n                uint256 consideration = _downscaleDown(settlements[ref].consideration, _computeScalingFactor(IERC20(settlements[ref].currency)));\n                settlements[ref].orderPool.revertTrade(settlements[ref].partyRef, settlements[ref].unitsToTransfer, settlements[ref].price);\n                settlements[ref].orderPool.revertTrade(settlements[ref].counterpartyRef, consideration, settlements[ref].price);\n                IERC20(settlements[ref].currency).transferFrom(settlements[ref].transferor, settlements[ref].transferee, consideration);\n                IERC20(settlements[ref].security).transferFrom(settlements[ref].transferee, settlements[ref].transferor, settlements[ref].unitsToTransfer);\n                settlements[ref].status = \"Fail\";\n                settled = true;\n            }\n        }\n        else if(status==\"Reject\" && settlements[ref].status!=\"Reject\"){\n            uint256 consideration = _downscaleDown(settlements[ref].consideration, _computeScalingFactor(IERC20(settlements[ref].currency)));\n            IERC20(settlements[ref].currency).transferFrom(settlements[ref].transferor, settlements[ref].transferee, consideration);\n            IERC20(settlements[ref].security).transferFrom(settlements[ref].transferee, settlements[ref].transferor, settlements[ref].unitsToTransfer);\n            settlements[ref].status = \"Reject\";\n            settled == true;\n        }\n        if(settled){\n            bytes32 poolId = settlements[ref].orderPool.getPoolId();\n            emit tradeSettled(\n                            poolId,\n                            settlements[ref].transferor, \n                            settlements[ref].transferee, \n                            settlements[ref].unitsToTransfer,\n                            settlements[ref].security,\n                            settlements[ref].price,\n                            settlements[ref].currency,\n                            settlements[ref].status,\n                            ref,\n                            pay\n                        );  \n        }          \n    }\n\n    /**\n        Retrieve investors in secondary pools\n        @param  poolId  pool identity\n     */\n    function getSubscribers(bytes32 poolId) override external view onlyIssueManager(msg.sender, poolSecurity[poolId]) returns(ISettlor.subscriptions[] memory){\n        return investors[poolId];\n    }\n\n    /**\n        Gets transfer agent for the security in the trade\n        @param  security  address of security traded\n     */\n    function getTransferAgent(address security) private view returns(bytes32){\n        address dp = products.getDP(security);\n        return(client.getTransferAgent(dp));\n    } \n\n    /**\n        Fetch trading fee collected in Balancer vault\n        @param  _token  address of token in which fee is collected\n     */\n    function getTradingFeeCollected(address _token) override external returns(uint256){\n        require(msg.sender==distribution, \"Unauthorized collection request\");\n        uint256 feeCollected = fees[_token];\n        fees[_token] = Math.sub(fees[_token], feeCollected);\n        IERC20(_token).transfer(distribution, feeCollected);\n        return feeCollected;\n    }   \n\n    /**\n     * @dev This helper function is a fast and cheap way to convert between IERC20[] and IAsset[] types\n     */\n    function _convertERC20sToAssets(IERC20[] memory tokens) internal pure returns (IAsset[] memory assets) {\n        // solhint-disable-next-line no-inline-assembly\n        assembly {\n            assets := tokens\n        }\n    }\n\n    /**\n     * @dev Returns a scaling factor that, when multiplied to a token amount for `token`, normalizes its balance as if\n     * it had 18 decimals.\n     */\n    function _computeScalingFactor(IERC20 token) internal view returns (uint256) {\n        // Tokens that don't implement the `decimals` method are not supported.\n        uint256 tokenDecimals = ERC20(address(token)).decimals();\n\n        // Tokens with more than 18 decimals are not supported.\n        uint256 decimalsDifference = Math.sub(18, tokenDecimals);\n        return FixedPoint.ONE * 10**decimalsDifference;\n    }\n\n    /**\n     * @dev Reverses the `scalingFactor` applied to `amount`, resulting in a smaller or equal value depending on\n     * whether it needed scaling or not. The result is rounded down.\n     */\n    function _downscaleDown(uint256 amount, uint256 scalingFactor) internal pure returns (uint256) {\n        return FixedPoint.divDown(amount, scalingFactor);\n    }\n\n    /**\n     * @dev Applies `scalingFactor` to `amount`, resulting in a larger or equal value depending on whether it needed\n     * scaling or not.\n     */\n    function _upscale(uint256 amount, uint256 scalingFactor) internal pure returns (uint256) {\n        // Upscale rounding wouldn't necessarily always go in the same direction: in a swap for example the balance of\n        // token in should be rounded up, and that of token out rounded down. This is the only place where we round in\n        // the same direction for all amounts, as the impact of this rounding is expected to be minimal (and there's no\n        // rounding error unless `_scalingFactor()` is overriden).\n        return FixedPoint.mulDown(amount, scalingFactor);\n    }\n\n}",
  "sourcePath": "D:\\Code\\verified-balancer\\contracts\\SecondaryIssueManager.sol",
  "compiler": {
    "name": "solc",
    "version": "0.7.1+commit.f4a555be.Emscripten.clang"
  },
  "schemaVersion": "3.4.3",
  "updatedAt": "2023-04-26T00:30:26.224Z",
  "networkType": "ethereum",
  "devdoc": {
    "kind": "dev",
    "methods": {
      "getSettlementRequest(bytes32)": {
        "params": {
          "ref": "reference to the trade"
        }
      },
      "getSettlementRequests(bytes32,bytes32)": {
        "params": {
          "dpid": "identifier of depository participant (eg, transfer agent) that is authorized to settle the asset "
        }
      },
      "getSubscribers(bytes32)": {
        "params": {
          "poolId": "pool identity"
        }
      },
      "getTradingFeeCollected(address)": {
        "params": {
          "_token": "address of token in which fee is collected"
        }
      },
      "initialize(address,uint256,address,address,address,address)": {
        "params": {
          "_client": "address of Verified client contract",
          "_factory": "reference to the secondary issue pool factory contract",
          "_issueFeePercentage": "percentage of trading fee to be charged by the asset manager",
          "_vault": "address of balancer vault"
        }
      },
      "issueSecondary(address,address,uint256,uint256,uint256)": {
        "params": {
          "cashAmount": "amount of currency issued in pool",
          "currency": "reference to cash (settlement) token",
          "minSecurityOrder": "minimum order size of securities issued in pool",
          "security": "reference to asset issued",
          "securityAmount": "amount of security to issue"
        }
      },
      "owner()": {
        "details": "Returns the address of the current owner."
      },
      "renounceOwnership()": {
        "details": "Leaves the contract without owner. It will not be possible to call `onlyOwner` functions anymore. Can only be called by the current owner. NOTE: Renouncing ownership will leave the contract without an owner, thereby removing any functionality that is only available to the owner."
      },
      "requestSettlement((address,bytes32,bytes32,uint256,uint256,uint256),address)": {
        "params": {
          "tradeToReport": "data structure holding order matching data"
        }
      },
      "setSettlementStatus(bytes32,bytes32)": {
        "params": {
          "ref": "reference to the trade executed",
          "status": "settlement status"
        }
      },
      "transferOwnership(address)": {
        "details": "Transfers ownership of the contract to a new account (`newOwner`). Can only be called by the current owner."
      }
    },
    "version": 1
  },
  "userdoc": {
    "kind": "user",
    "methods": {
      "getSettlementRequest(bytes32)": {
        "notice": "Fetches a specific trade settlement request        "
      },
      "getSettlementRequests(bytes32,bytes32)": {
        "notice": "Fetches trade settlement requests for depository participant"
      },
      "getSubscribers(bytes32)": {
        "notice": "Retrieve investors in secondary pools"
      },
      "getTradingFeeCollected(address)": {
        "notice": "Fetch trading fee collected in Balancer vault"
      },
      "initialize(address,uint256,address,address,address,address)": {
        "notice": "Initializes this asset management contract"
      },
      "issueSecondary(address,address,uint256,uint256,uint256)": {
        "notice": "Joins existing (secondary) tokenized assets into pool by primary issue token holders"
      },
      "requestSettlement((address,bytes32,bytes32,uint256,uint256,uint256),address)": {
        "notice": "Used by Secondary pools to request settlement for trades"
      },
      "setSettlementStatus(bytes32,bytes32)": {
        "notice": "Sets settlement status for trades executed"
      }
    },
    "version": 1
  }
}