{
  "contractName": "SecondaryIssueManager",
  "abi": [
    {
      "anonymous": false,
      "inputs": [
        {
          "indexed": true,
          "internalType": "address",
          "name": "previousOwner",
          "type": "address"
        },
        {
          "indexed": true,
          "internalType": "address",
          "name": "newOwner",
          "type": "address"
        }
      ],
      "name": "OwnershipTransferred",
      "type": "event"
    },
    {
      "anonymous": false,
      "inputs": [
        {
          "indexed": false,
          "internalType": "uint256",
          "name": "consideration",
          "type": "uint256"
        },
        {
          "indexed": false,
          "internalType": "uint256",
          "name": "fee",
          "type": "uint256"
        },
        {
          "indexed": false,
          "internalType": "uint256",
          "name": "toPay",
          "type": "uint256"
        }
      ],
      "name": "payFees",
      "type": "event"
    },
    {
      "anonymous": false,
      "inputs": [
        {
          "indexed": false,
          "internalType": "address",
          "name": "platform",
          "type": "address"
        },
        {
          "indexed": false,
          "internalType": "bytes32",
          "name": "poolId",
          "type": "bytes32"
        },
        {
          "indexed": false,
          "internalType": "address",
          "name": "party",
          "type": "address"
        },
        {
          "indexed": false,
          "internalType": "address",
          "name": "counterparty",
          "type": "address"
        },
        {
          "indexed": true,
          "internalType": "address",
          "name": "securityTraded",
          "type": "address"
        },
        {
          "indexed": false,
          "internalType": "address",
          "name": "currencySettled",
          "type": "address"
        },
        {
          "indexed": false,
          "internalType": "uint256",
          "name": "amount",
          "type": "uint256"
        },
        {
          "indexed": false,
          "internalType": "uint256",
          "name": "price",
          "type": "uint256"
        },
        {
          "indexed": false,
          "internalType": "bytes32",
          "name": "tradeRef",
          "type": "bytes32"
        },
        {
          "indexed": false,
          "internalType": "bytes32",
          "name": "DPID",
          "type": "bytes32"
        }
      ],
      "name": "subscribers",
      "type": "event"
    },
    {
      "anonymous": false,
      "inputs": [
        {
          "indexed": true,
          "internalType": "bytes32",
          "name": "poolid",
          "type": "bytes32"
        },
        {
          "indexed": false,
          "internalType": "address",
          "name": "transferor",
          "type": "address"
        },
        {
          "indexed": false,
          "internalType": "address",
          "name": "transferee",
          "type": "address"
        },
        {
          "indexed": false,
          "internalType": "uint256",
          "name": "unitsToTransfer",
          "type": "uint256"
        },
        {
          "indexed": false,
          "internalType": "address",
          "name": "security",
          "type": "address"
        },
        {
          "indexed": false,
          "internalType": "uint256",
          "name": "price",
          "type": "uint256"
        },
        {
          "indexed": false,
          "internalType": "address",
          "name": "currency",
          "type": "address"
        },
        {
          "indexed": false,
          "internalType": "bytes32",
          "name": "settlementStatus",
          "type": "bytes32"
        }
      ],
      "name": "tradeSettled",
      "type": "event"
    },
    {
      "inputs": [],
      "name": "owner",
      "outputs": [
        {
          "internalType": "address",
          "name": "",
          "type": "address"
        }
      ],
      "stateMutability": "view",
      "type": "function",
      "constant": true
    },
    {
      "inputs": [],
      "name": "renounceOwnership",
      "outputs": [],
      "stateMutability": "nonpayable",
      "type": "function"
    },
    {
      "inputs": [
        {
          "internalType": "address",
          "name": "newOwner",
          "type": "address"
        }
      ],
      "name": "transferOwnership",
      "outputs": [],
      "stateMutability": "nonpayable",
      "type": "function"
    },
    {
      "inputs": [
        {
          "internalType": "address",
          "name": "_factory",
          "type": "address"
        },
        {
          "internalType": "uint256",
          "name": "_issueFeePercentage",
          "type": "uint256"
        },
        {
          "internalType": "address",
          "name": "_client",
          "type": "address"
        },
        {
          "internalType": "address",
          "name": "_vault",
          "type": "address"
        },
        {
          "internalType": "address",
          "name": "_distribution",
          "type": "address"
        },
        {
          "internalType": "address",
          "name": "_products",
          "type": "address"
        }
      ],
      "name": "initialize",
      "outputs": [],
      "stateMutability": "nonpayable",
      "type": "function"
    },
    {
      "inputs": [
        {
          "internalType": "address",
          "name": "security",
          "type": "address"
        },
        {
          "internalType": "address",
          "name": "currency",
          "type": "address"
        },
        {
          "internalType": "uint256",
          "name": "securityAmount",
          "type": "uint256"
        },
        {
          "internalType": "uint256",
          "name": "minSecurityOrder",
          "type": "uint256"
        },
        {
          "internalType": "uint256",
          "name": "cashAmount",
          "type": "uint256"
        }
      ],
      "name": "issueSecondary",
      "outputs": [],
      "stateMutability": "nonpayable",
      "type": "function"
    },
    {
      "inputs": [
        {
          "components": [
            {
              "internalType": "bytes32",
              "name": "partyRef",
              "type": "bytes32"
            },
            {
              "internalType": "address",
              "name": "partyAddress",
              "type": "address"
            },
            {
              "internalType": "bytes32",
              "name": "counterpartyRef",
              "type": "bytes32"
            },
            {
              "internalType": "uint256",
              "name": "price",
              "type": "uint256"
            },
            {
              "internalType": "uint256",
              "name": "dt",
              "type": "uint256"
            },
            {
              "internalType": "uint256",
              "name": "securityTraded",
              "type": "uint256"
            },
            {
              "internalType": "uint256",
              "name": "currencyTraded",
              "type": "uint256"
            }
          ],
          "internalType": "struct ITrade.trade",
          "name": "tradeToReport",
          "type": "tuple"
        },
        {
          "internalType": "contract IOrder",
          "name": "orderbook",
          "type": "address"
        }
      ],
      "name": "requestSettlement",
      "outputs": [],
      "stateMutability": "nonpayable",
      "type": "function"
    },
    {
      "inputs": [
        {
          "internalType": "bytes32",
          "name": "dpid",
          "type": "bytes32"
        },
        {
          "internalType": "bytes32",
          "name": "poolId",
          "type": "bytes32"
        }
      ],
      "name": "getSettlementRequests",
      "outputs": [
        {
          "internalType": "bytes32[]",
          "name": "",
          "type": "bytes32[]"
        }
      ],
      "stateMutability": "view",
      "type": "function",
      "constant": true
    },
    {
      "inputs": [
        {
          "internalType": "bytes32",
          "name": "ref",
          "type": "bytes32"
        }
      ],
      "name": "getSettlementRequest",
      "outputs": [
        {
          "components": [
            {
              "internalType": "address",
              "name": "transferor",
              "type": "address"
            },
            {
              "internalType": "address",
              "name": "transferee",
              "type": "address"
            },
            {
              "internalType": "address",
              "name": "security",
              "type": "address"
            },
            {
              "internalType": "bytes32",
              "name": "status",
              "type": "bytes32"
            },
            {
              "internalType": "bytes32",
              "name": "DPID",
              "type": "bytes32"
            },
            {
              "internalType": "address",
              "name": "currency",
              "type": "address"
            },
            {
              "internalType": "uint256",
              "name": "price",
              "type": "uint256"
            },
            {
              "internalType": "uint256",
              "name": "unitsToTransfer",
              "type": "uint256"
            },
            {
              "internalType": "uint256",
              "name": "consideration",
              "type": "uint256"
            },
            {
              "internalType": "uint256",
              "name": "executionDate",
              "type": "uint256"
            },
            {
              "internalType": "contract IOrder",
              "name": "orderPool",
              "type": "address"
            },
            {
              "internalType": "bytes32",
              "name": "partyRef",
              "type": "bytes32"
            },
            {
              "internalType": "bytes32",
              "name": "counterpartyRef",
              "type": "bytes32"
            }
          ],
          "internalType": "struct ISettlor.settlement",
          "name": "",
          "type": "tuple"
        }
      ],
      "stateMutability": "view",
      "type": "function",
      "constant": true
    },
    {
      "inputs": [
        {
          "internalType": "bytes32",
          "name": "ref",
          "type": "bytes32"
        },
        {
          "internalType": "bytes32",
          "name": "status",
          "type": "bytes32"
        }
      ],
      "name": "setSettlementStatus",
      "outputs": [],
      "stateMutability": "nonpayable",
      "type": "function"
    },
    {
      "inputs": [
        {
          "internalType": "bytes32",
          "name": "poolId",
          "type": "bytes32"
        }
      ],
      "name": "getSubscribers",
      "outputs": [
        {
          "components": [
            {
              "internalType": "address",
              "name": "investor",
              "type": "address"
            },
            {
              "internalType": "address",
              "name": "asset",
              "type": "address"
            },
            {
              "internalType": "address",
              "name": "currency",
              "type": "address"
            },
            {
              "internalType": "uint256",
              "name": "amount",
              "type": "uint256"
            },
            {
              "internalType": "uint256",
              "name": "price",
              "type": "uint256"
            }
          ],
          "internalType": "struct ISettlor.subscriptions[]",
          "name": "",
          "type": "tuple[]"
        }
      ],
      "stateMutability": "view",
      "type": "function",
      "constant": true
    },
    {
      "inputs": [
        {
          "internalType": "address",
          "name": "_token",
          "type": "address"
        }
      ],
      "name": "getTradingFeeCollected",
      "outputs": [
        {
          "internalType": "uint256",
          "name": "",
          "type": "uint256"
        }
      ],
      "stateMutability": "nonpayable",
      "type": "function"
    }
  ],
  "bytecode": "0x608060405234801561001057600080fd5b50600080546001600160a01b0319163390811782556040519091907f8be0079c531659141344cd1fd0a4f28419497f9722a3daafe3b4186f6b6457e0908290a361343e8061005f6000396000f3fe608060405234801561001057600080fd5b50600436106100a95760003560e01c806379a7dc0e1161007157806379a7dc0e1461011a5780638da5cb5b1461013a578063a2dc2ab71461014f578063bfa0caa714610162578063c9fca3c714610182578063f2fde38b146101a2576100a9565b806304967159146100ae57806304aec4f9146100c357806306d53a93146100d65780632d916746146100e9578063715018a614610112575b600080fd5b6100c16100bc366004612abb565b6101b5565b005b6100c16100d1366004612c54565b61029c565b6100c16100e43660046128d7565b610ae5565b6100fc6100f736600461289f565b611416565b6040516101099190612f41565b60405180910390f35b6100c161151d565b61012d610128366004612a8b565b611585565b60405161010991906132ae565b61014261165e565b6040516101099190612d8d565b6100c161015d366004612927565b61166d565b610175610170366004612a8b565b6116df565b6040516101099190612eb8565b610195610190366004612abb565b611850565b6040516101099190612e74565b6100c16101b036600461289f565b611a0a565b600082815260046020819052604080832060020154600b54915163e0a87de160e01b815233946001600160a01b039283169490939092169163e0a87de1916101ff91869101612d8d565b60206040518083038186803b15801561021757600080fd5b505afa15801561022b573d6000803e3d6000fd5b505050506040513d601f19601f8201168201806040525081019061024f91906128bb565b9050826001600160a01b0316816001600160a01b03161461028b5760405162461bcd60e51b815260040161028290613251565b60405180910390fd5b6102958585611a88565b5050505050565b336000908152600660205260409020546102c85760405162461bcd60e51b8152600401610282906131c8565b6102d06126d3565b8251604051632bbc239560e11b81526001600160a01b03841691635778472a916102fd9190600401612f41565b6101406040518083038186803b15801561031657600080fd5b505afa15801561032a573d6000803e3d6000fd5b505050506040513d601f19601f8201168201806040525081019061034e9190612b95565b90506103586126d3565b6040808501519051632bbc239560e11b81526001600160a01b03851691635778472a916103889190600401612f41565b6101406040518083038186803b1580156103a157600080fd5b505afa1580156103b5573d6000803e3d6000fd5b505050506040513d601f19601f820116820180604052508101906103d99190612b95565b90506000836001600160a01b0316632541897f6040518163ffffffff1660e01b815260040160206040518083038186803b15801561041657600080fd5b505afa15801561042a573d6000803e3d6000fd5b505050506040513d601f19601f8201168201806040525081019061044e91906128bb565b90506000846001600160a01b0316636945c1fd6040518163ffffffff1660e01b815260040160206040518083038186803b15801561048b57600080fd5b505afa15801561049f573d6000803e3d6000fd5b505050506040513d601f19601f820116820180604052508101906104c391906128bb565b90506000826001600160a01b031685602001516001600160a01b031614806105005750816001600160a01b031685604001516001600160a01b0316145b61050e578360e00151610514565b8460e001515b90506000826001600160a01b031685602001516001600160a01b031614806105515750836001600160a01b031685604001516001600160a01b0316145b61055f578560e00151610565565b8460e001515b60a08901519091506000610578866123fd565b905061058261272a565b604051806101a00160405280866001600160a01b03168152602001856001600160a01b03168152602001886001600160a01b031681526020016650656e64696e6760c81b8152602001838152602001876001600160a01b031681526020016105f68d606001516105f18a612509565b6125a4565b81526020018481526020016106178d60c001516106128a612509565b6125b0565b81526020018c6080015181526020018b6001600160a01b03168152602001886001600160a01b03168b602001516001600160a01b0316148061066e5750876001600160a01b03168b604001516001600160a01b0316145b61067c578c6040015161067f565b8c515b8152602001876001600160a01b03168a602001516001600160a01b031614806106bd5750886001600160a01b03168a604001516001600160a01b0316145b6106c8578c516106ce565b8c604001515b815250905060008b600001518c604001516040516020016106f0929190612d7f565b60408051601f198184030181529181528151602092830120600081815260049093529120549091506001600160a01b0316610ad757600081815260046020818152604092839020855181546001600160a01b03199081166001600160a01b039283161783559287015160018301805485169183169190911790559386015160028201805484169186169190911790556060860151600382015560808601519281019290925560a0850151600583018054831691851691909117905560c0850151600683015560e0850151600783015561010085015160088301556101208501516009830155610140850151600a83018054909216931692909217909155610160830151600b820155610180830151600c9091015561080c612796565b6040518060a00160405280876001600160a01b031681526020018a6001600160a01b03168152602001896001600160a01b0316815260200186815260200161085b8f606001516105f18c612509565b815250905060008c6001600160a01b03166338fff2d06040518163ffffffff1660e01b815260040160206040518083038186803b15801561089b57600080fd5b505afa1580156108af573d6000803e3d6000fd5b505050506040513d601f19601f820116820180604052508101906108d39190612aa3565b90506008600082815260200190815260200160002082908060018154018082558091505060019003906000526020600020906005020160009091909190915060008201518160000160006101000a8154816001600160a01b0302191690836001600160a01b0316021790555060208201518160010160006101000a8154816001600160a01b0302191690836001600160a01b0316021790555060408201518160020160006101000a8154816001600160a01b0302191690836001600160a01b0316021790555060608201518160030155608082015181600401555050896001600160a01b03167fab0c1b0f8a2aa65eafa61c088c2b5112bac9f59c4e56a9f17e9f3ec7e48df20030838b8b8e8c89608001518b8d60800151604051610a0099989796959493929190612e05565b60405180910390a2608084015160009081526005602090815260408083208054600181018255908452918320909101859055600b54905163e0a87de160e01b81526001600160a01b039091169063e0a87de190610a61908e90600401612d8d565b60206040518083038186803b158015610a7957600080fd5b505afa158015610a8d573d6000803e3d6000fd5b505050506040513d601f19601f82011682018060405250810190610ab191906128bb565b6001600160a01b03161415610ad457610ad48366436f6e6669726d60c81b611a88565b50505b505050505050505050505050565b600b5460405163e0a87de160e01b8152339187916000916001600160a01b03169063e0a87de190610b1a908590600401612d8d565b60206040518083038186803b158015610b3257600080fd5b505afa158015610b46573d6000803e3d6000fd5b505050506040513d601f19601f82011682018060405250810190610b6a91906128bb565b9050826001600160a01b0316816001600160a01b031614610b9d5760405162461bcd60e51b815260040161028290613251565b6040516370a0823160e01b815286906001600160a01b038a16906370a0823190610bcb903390600401612d8d565b60206040518083038186803b158015610be357600080fd5b505afa158015610bf7573d6000803e3d6000fd5b505050506040513d601f19601f82011682018060405250810190610c1b9190612aa3565b10158015610c295750848610155b8015610cb157506040516370a0823160e01b815284906001600160a01b038916906370a0823190610c5e903390600401612d8d565b60206040518083038186803b158015610c7657600080fd5b505afa158015610c8a573d6000803e3d6000fd5b505050506040513d601f19601f82011682018060405250810190610cae9190612aa3565b10155b610ccd5760405162461bcd60e51b815260040161028290613111565b6040516323b872dd60e01b81526001600160a01b038816906323b872dd90610cfd90339030908990600401612da1565b602060405180830381600087803b158015610d1757600080fd5b505af1158015610d2b573d6000803e3d6000fd5b505050506040513d601f19601f82011682018060405250810190610d4f9190612a6b565b506040516323b872dd60e01b81526001600160a01b038916906323b872dd90610d8090339030908b90600401612da1565b602060405180830381600087803b158015610d9a57600080fd5b505af1158015610dae573d6000803e3d6000fd5b505050506040513d601f19601f82011682018060405250810190610dd29190612a6b565b506002546040516372e0f85360e01b81526001600160a01b038a8116926372e0f85392610e0792909116908a90600401612e5b565b600060405180830381600087803b158015610e2157600080fd5b505af1158015610e35573d6000803e3d6000fd5b505050506000600160009054906101000a90046001600160a01b03166001600160a01b03166374dcc7a48a6001600160a01b03166306fdde036040518163ffffffff1660e01b815260040160006040518083038186803b158015610e9857600080fd5b505afa158015610eac573d6000803e3d6000fd5b505050506040513d6000823e601f3d908101601f19168201604052610ed49190810190612b09565b8b6001600160a01b03166395d89b416040518163ffffffff1660e01b815260040160006040518083038186803b158015610f0d57600080fd5b505afa158015610f21573d6000803e3d6000fd5b505050506040513d6000823e601f3d908101601f19168201604052610f499190810190612b09565b8c8c8b6003546040518763ffffffff1660e01b8152600401610f7096959493929190613086565b602060405180830381600087803b158015610f8a57600080fd5b505af1158015610f9e573d6000803e3d6000fd5b505050506040513d601f19601f82011682018060405250810190610fc291906128bb565b90506000816001600160a01b03166338fff2d06040518163ffffffff1660e01b815260040160206040518083038186803b158015610fff57600080fd5b505afa158015611013573d6000803e3d6000fd5b505050506040513d601f19601f820116820180604052508101906110379190612aa3565b9050896007600083815260200190815260200160002060006101000a8154816001600160a01b0302191690836001600160a01b031602179055508060066000846001600160a01b03166001600160a01b03168152602001908152602001600020819055506060600260009054906101000a90046001600160a01b03166001600160a01b031663f94d4668836040518263ffffffff1660e01b81526004016110de9190612f41565b60006040518083038186803b1580156110f657600080fd5b505afa15801561110a573d6000803e3d6000fd5b505050506040513d6000823e601f3d908101601f19168201604052611132919081019061299f565b505090506060611141826125bc565b90506060825167ffffffffffffffff8111801561115d57600080fd5b50604051908082528060200260200182016040528015611187578160200160208202803683370190505b5060025460405163095ea7b360e01b81529192506001600160a01b03808f169263095ea7b3926111bd9216908d90600401612e5b565b602060405180830381600087803b1580156111d757600080fd5b505af11580156111eb573d6000803e3d6000fd5b505050506040513d601f19601f8201168201806040525081019061120f9190612a6b565b508c6001600160a01b031663095ea7b3600260009054906101000a90046001600160a01b03168d6040518363ffffffff1660e01b8152600401611253929190612e5b565b602060405180830381600087803b15801561126d57600080fd5b505af1158015611281573d6000803e3d6000fd5b505050506040513d601f19601f820116820180604052508101906112a59190612a6b565b5060005b835181101561134c578d6001600160a01b03168482815181106112c857fe5b60200260200101516001600160a01b031614156112fd578b8282815181106112ec57fe5b602002602001018181525050611344565b8c6001600160a01b031684828151811061131357fe5b60200260200101516001600160a01b03161415611344578982828151811061133757fe5b6020026020010181815250505b6001016112a9565b506113556127c4565b604051806080016040528084815260200183815260200160008460405160200161138092919061305b565b60408051808303601f190181529181529082526000602090920191909152600254905163172b958560e31b81529192506001600160a01b03169063b95cac28906113d4908890309081908790600401612f4a565b600060405180830381600087803b1580156113ee57600080fd5b505af1158015611402573d6000803e3d6000fd5b505050505050505050505050505050505050565b600c546000906001600160a01b031633146114435760405162461bcd60e51b81526004016102829061320e565b6001600160a01b038083166000818152600960205260409081902054600c54915163a9059cbb60e01b8152909363a9059cbb92611487929116908590600401612e5b565b602060405180830381600087803b1580156114a157600080fd5b505af11580156114b5573d6000803e3d6000fd5b505050506040513d601f19601f820116820180604052508101906114d99190612a6b565b506001600160a01b0383166000908152600960205260409020546114fd90826125bf565b6001600160a01b0384166000908152600960205260409020559050919050565b61153b3361152961165e565b6001600160a01b0316146101aa6125d5565b600080546040516001600160a01b03909116907f8be0079c531659141344cd1fd0a4f28419497f9722a3daafe3b4186f6b6457e0908390a3600080546001600160a01b0319169055565b61158d61272a565b816115aa5760405162461bcd60e51b81526004016102829061315f565b5060009081526004602081815260409283902083516101a08101855281546001600160a01b03908116825260018301548116938201939093526002820154831694810194909452600381015460608501529182015460808401526005820154811660a0840152600682015460c0840152600782015460e084015260088201546101008401526009820154610120840152600a82015416610140830152600b810154610160830152600c015461018082015290565b6000546001600160a01b031690565b6116793361152961165e565b600180546001600160a01b03199081166001600160a01b0398891617909155600395909555600a805486169487169490941790935560028054851692861692909217909155600b8054841692851692909217909155600c80549092169216919091179055565b60008181526007602052604080822054600b54915163e0a87de160e01b815260609333936001600160a01b0393841693919291169063e0a87de190611728908590600401612d8d565b60206040518083038186803b15801561174057600080fd5b505afa158015611754573d6000803e3d6000fd5b505050506040513d601f19601f8201168201806040525081019061177891906128bb565b9050826001600160a01b0316816001600160a01b0316146117ab5760405162461bcd60e51b815260040161028290613251565b600085815260086020908152604080832080548251818502810185019093528083529193909284015b828210156118425760008481526020908190206040805160a0810182526005860290920180546001600160a01b0390811684526001808301548216858701526002830154909116928401929092526003810154606084015260040154608083015290835290920191016117d4565b505050509350505050919050565b600a54604051634427673360e01b81526060916000916001600160a01b0390911690634427673390611886903390600401612d8d565b60606040518083038186803b15801561189e57600080fd5b505afa1580156118b2573d6000803e3d6000fd5b505050506040513d601f19601f820116820180604052508101906118d69190612adc565b5050600b5460008581526007602052604080822054905163e0a87de160e01b815293945090926001600160a01b039283169263e0a87de19261191d92911690600401612d8d565b60206040518083038186803b15801561193557600080fd5b505afa158015611949573d6000803e3d6000fd5b505050506040513d601f19601f8201168201806040525081019061196d91906128bb565b90508161044560f41b148061198a57506001600160a01b03811633145b6119a65760405162461bcd60e51b81526004016102829061315f565b600085815260056020908152604091829020805483518184028101840190945280845290918301828280156119fa57602002820191906000526020600020905b8154815260200190600101908083116119e6575b5050505050925050505b92915050565b611a163361152961165e565b611a2d6001600160a01b03821615156101ab6125d5565b600080546040516001600160a01b03808516939216917f8be0079c531659141344cd1fd0a4f28419497f9722a3daafe3b4186f6b6457e091a3600080546001600160a01b0319166001600160a01b0392909216919091179055565b6000828152600460208190526040822001549066436f6e6669726d60c81b831480611abb5750826514995a9958dd60d21b145b611ad75760405162461bcd60e51b8152600401610282906130da565b600084815260046020526040902060080154600354611af691906125e7565b60038190556000858152600460205260408120600501549091611b2a91611b25906001600160a01b0316612509565b61261d565b90508366436f6e6669726d60c81b148015611b60575060008581526004602052604090206003015466436f6e6669726d60c81b14155b8015611b8457506000858152600460205260409020600301546311985a5b60e21b14155b1561210f576000858152600460209081526040808320600501546001600160a01b031683526009909152902054611bbb908261266e565b600086815260046020818152604080842060058101546001600160a01b031685526009835281852095909555928990525260089091015460035491517f2c12bee2b721b184f53454a63a5d1e0435e8ecd2429bbd55093350dc18819ef392611c259291859061301b565b60405180910390a16000858152600460208190526040918290206005810154905492516323b872dd60e01b81526001600160a01b03918216936323b872dd93611c7693909116913091879101612da1565b602060405180830381600087803b158015611c9057600080fd5b505af1158015611ca4573d6000803e3d6000fd5b505050506040513d601f19601f82011682018060405250810190611cc89190612a6b565b15611e5f57600085815260046020819052604091829020600a810154600b820154600c83015460099093015494516381b5da1d60e01b81526001600160a01b03909216946381b5da1d94611d1e9492930161301b565b600060405180830381600087803b158015611d3857600080fd5b505af1158015611d4c573d6000803e3d6000fd5b5050505060005b600084815260056020526040902054811015611e36576000848152600560205260409020805487919083908110611d8657fe5b90600052602060002001541415611e2e5760008481526005602052604090205460001901811415611ddb576000848152600560205260409020805482908110611dcb57fe5b6000918252602082200155611e2e565b6000848152600560205260409020805460018301908110611df857fe5b9060005260206000200154600560008681526020019081526020016000208281548110611e2157fe5b6000918252602090912001555b600101611d53565b50600085815260046020526040902066436f6e6669726d60c81b6003909101556001915061210a565b60008581526004602052604081206008810154600590910154611e8f91906105f1906001600160a01b0316612509565b600087815260046020819052604091829020600a810154600b820154600783015460099093015494516315e319fb60e31b81529596506001600160a01b039091169463af18cfd894611ee79492939260019201613031565b600060405180830381600087803b158015611f0157600080fd5b505af1158015611f15573d6000803e3d6000fd5b5050506000878152600460208190526040808320600a810154600c82015460099092015492516315e319fb60e31b81526001600160a01b03909116955063af18cfd894611f6a94929388939192909101613031565b600060405180830381600087803b158015611f8457600080fd5b505af1158015611f98573d6000803e3d6000fd5b5050506000878152600460208190526040918290206005810154815460019092015493516323b872dd60e01b81526001600160a01b0391821695506323b872dd94611fec9493831693921691879101612da1565b602060405180830381600087803b15801561200657600080fd5b505af115801561201a573d6000803e3d6000fd5b505050506040513d601f19601f8201168201806040525081019061203e9190612a6b565b5060008681526004602081905260409182902060028101546001820154825460079093015494516323b872dd60e01b81526001600160a01b03928316956323b872dd95612095959385169490931692909101612da1565b602060405180830381600087803b1580156120af57600080fd5b505af11580156120c3573d6000803e3d6000fd5b505050506040513d601f19601f820116820180604052508101906120e79190612a6b565b505060008581526004602052604090206311985a5b60e21b600390910155600191505b6122e5565b836514995a9958dd60d21b14801561214157506000858152600460205260409020600301546514995a9958dd60d21b14155b156122e5576000858152600460205260408120600881015460059091015461217691906105f1906001600160a01b0316612509565b6000878152600460208190526040918290206005810154815460019092015493516323b872dd60e01b81529495506001600160a01b03908116946323b872dd946121c99493831693921691879101612da1565b602060405180830381600087803b1580156121e357600080fd5b505af11580156121f7573d6000803e3d6000fd5b505050506040513d601f19601f8201168201806040525081019061221b9190612a6b565b5060008681526004602081905260409182902060028101546001820154825460079093015494516323b872dd60e01b81526001600160a01b03928316956323b872dd95612272959385169490931692909101612da1565b602060405180830381600087803b15801561228c57600080fd5b505af11580156122a0573d6000803e3d6000fd5b505050506040513d601f19601f820116820180604052508101906122c49190612a6b565b505060008581526004602052604090206514995a9958dd60d21b6003909101555b8115610295576000858152600460208181526040808420600a0154815163038fff2d60e41b815291516001600160a01b03909116936338fff2d0938382019390929190829003018186803b15801561233c57600080fd5b505afa158015612350573d6000803e3d6000fd5b505050506040513d601f19601f820116820180604052508101906123749190612aa3565b60008781526004602052604090819020805460018201546007830154600284015460068501546005860154600390960154965197985088977f64a47302c75ec00bcd2175926812e38c3aa26b068ec1680f0ded24868e57a705976123ed976001600160a01b039788169796871696948516941691612dc5565b60405180910390a2505050505050565b600b5460405163e0a87de160e01b815260009182916001600160a01b039091169063e0a87de190612432908690600401612d8d565b60206040518083038186803b15801561244a57600080fd5b505afa15801561245e573d6000803e3d6000fd5b505050506040513d601f19601f8201168201806040525081019061248291906128bb565b600a5460405162157d5560e61b81529192506001600160a01b03169063055f5540906124b2908490600401612d8d565b60206040518083038186803b1580156124ca57600080fd5b505afa1580156124de573d6000803e3d6000fd5b505050506040513d601f19601f820116820180604052508101906125029190612aa3565b9392505050565b600080826001600160a01b031663313ce5676040518163ffffffff1660e01b815260040160206040518083038186803b15801561254557600080fd5b505afa158015612559573d6000803e3d6000fd5b505050506040513d601f19601f8201168201806040525081019061257d9190612ce5565b60ff169050600061258f6012836125bf565b600a0a670de0b6b3a764000002949350505050565b6000612502838361261d565b600061250283836125e7565b90565b60006125cf8383111560016125d5565b50900390565b816125e3576125e381612680565b5050565b600082820261260b84158061260457508385838161260157fe5b04145b60036125d5565b670de0b6b3a764000090049392505050565b600061262c82151560046125d5565b8261263957506000611a04565b670de0b6b3a76400008381029061265c9085838161265357fe5b041460056125d5565b82818161266557fe5b04915050611a04565b600082820161250284821015836125d5565b62461bcd60e51b6000908152602060045260076024526642414c23000030600a808404818106603090810160081b95839006959095019082900491820690940160101b939093010160c81b604452606490fd5b60408051610140810190915280600081526000602082018190526040820181905260609091019081526020016000815260200160008152600060208201819052604082018190526060820181905260809091015290565b604080516101a081018252600080825260208201819052918101829052606081018290526080810182905260a0810182905260c0810182905260e08101829052610100810182905261012081018290526101408101829052610160810182905261018081019190915290565b6040805160a08101825260008082526020820181905291810182905260608101829052608081019190915290565b60405180608001604052806060815260200160608152602001606081526020016000151581525090565b8051611a04816133f0565b600082601f830112612809578081fd5b815161281c61281782613394565b61336d565b81815291506020808301908481018184028601820187101561283d57600080fd5b60005b8481101561285c57815184529282019290820190600101612840565b505050505092915050565b8035611a04816133f0565b805160058110611a0457600080fd5b805160038110611a0457600080fd5b805160028110611a0457600080fd5b6000602082840312156128b0578081fd5b8135612502816133f0565b6000602082840312156128cc578081fd5b8151612502816133f0565b600080600080600060a086880312156128ee578081fd5b85356128f9816133f0565b94506020860135612909816133f0565b94979496505050506040830135926060810135926080909101359150565b60008060008060008060c0878903121561293f578081fd5b863561294a816133f0565b9550602087013594506040870135612961816133f0565b93506060870135612971816133f0565b92506080870135612981816133f0565b915060a0870135612991816133f0565b809150509295509295509295565b6000806000606084860312156129b3578081fd5b835167ffffffffffffffff808211156129ca578283fd5b818601915086601f8301126129dd578283fd5b81516129eb61281782613394565b80828252602080830192508086018b828387028901011115612a0b578788fd5b8796505b84871015612a36578051612a22816133f0565b845260019690960195928101928101612a0f565b508901519097509350505080821115612a4d578283fd5b50612a5a868287016127f9565b925050604084015190509250925092565b600060208284031215612a7c578081fd5b81518015158114612502578182fd5b600060208284031215612a9c578081fd5b5035919050565b600060208284031215612ab4578081fd5b5051919050565b60008060408385031215612acd578182fd5b50508035926020909101359150565b600080600060608486031215612af0578081fd5b8351925060208401519150604084015190509250925092565b600060208284031215612b1a578081fd5b815167ffffffffffffffff80821115612b31578283fd5b818401915084601f830112612b44578283fd5b815181811115612b52578384fd5b612b65601f8201601f191660200161336d565b9150808252856020828501011115612b7b578384fd5b612b8c8160208401602086016133c0565b50949350505050565b6000610140808385031215612ba8578182fd5b612bb18161336d565b9050612bbd8484612890565b8152612bcc84602085016127ee565b6020820152612bde84604085016127ee565b6040820152612bf08460608501612881565b6060820152612c028460808501612890565b6080820152612c148460a08501612872565b60a082015260c083015160c0820152612c308460e085016127ee565b60e08201526101008381015190820152610120928301519281019290925250919050565b600080828403610100811215612c68578283fd5b60e0811215612c75578283fd5b50612c8060e061336d565b833581526020840135612c92816133f0565b8060208301525060408401356040820152606084013560608201526080840135608082015260a084013560a082015260c084013560c082015280925050612cdc8460e08501612867565b90509250929050565b600060208284031215612cf6578081fd5b815160ff81168114612502578182fd5b6001600160a01b03169052565b6000815180845260208085019450808401835b83811015612d4257815187529582019590820190600101612d26565b509495945050505050565b15159052565b60008151808452612d6b8160208601602086016133c0565b601f01601f19169290920160200192915050565b918252602082015260400190565b6001600160a01b0391909116815260200190565b6001600160a01b039384168152919092166020820152604081019190915260600190565b6001600160a01b039788168152958716602087015260408601949094529185166060850152608084015290921660a082015260c081019190915260e00190565b6001600160a01b03998a16815260208101989098529588166040880152938716606087015291909516608085015260a084019490945260c083019390935260e08201929092526101008101919091526101200190565b6001600160a01b03929092168252602082015260400190565b6020808252825182820181905260009190848201906040850190845b81811015612eac57835183529284019291840191600101612e90565b50909695505050505050565b602080825282518282018190526000919060409081850190868401855b82811015612f3457815180516001600160a01b0316855286810151612efc88870182612d06565b5085810151612f0d87870182612d06565b50606081810151908601526080908101519085015260a09093019290850190600101612ed5565b5091979650505050505050565b90815260200190565b8481526001600160a01b038481166020808401919091529084166040830152608060608301819052835181840191909152805161010084018190526000929182019083906101208601905b80831015612fbd57612fa784516133b4565b8252928401926001929092019190840190612f95565b50838701519350607f199250828682030160a0870152612fdd8185612d13565b935050506040850151818584030160c0860152612ffa8382612d53565b92505050606084015161301060e0850182612d4d565b509695505050505050565b9283526020830191909152604082015260600190565b84815260208101849052608081016002841061304957fe5b60408201939093526060015292915050565b60006004841061306757fe5b8382526040602083015261307e6040830184612d13565b949350505050565b600060c0825261309960c0830189612d53565b82810360208401526130ab8189612d53565b6001600160a01b03978816604085015295909616606083015250608081019290925260a0909101529392505050565b60208082526019908201527f536574746c656d656e742073746174757320696e76616c696400000000000000604082015260600190565b6020808252602e908201527f496e73756666696369656e742062616c616e63657320746f206372656174652060408201526d1cd958dbdb99185c9e481c1bdbdb60921b606082015260800190565b60208082526043908201527f536574746c656d656e742072657175657374732063616e206f6e6c792062652060408201527f666574636865642062792061206465706f736974617279207061727469636970606082015262185b9d60ea1b608082015260a00190565b60208082526026908201527f536574746c656d656e74207265717565737465642066726f6d20696e76616c6960408201526519081c1bdbdb60d21b606082015260800190565b60208082526023908201527f556e617574686f72697a65642066656520636f6c6c656374696f6e2072657175604082015262195cdd60ea1b606082015260800190565b60208082526037908201527f556e617574686f72697a6564206163636573732c206f6e6c792069737375652060408201527f6d616e61676572732061726520617574686f72697a6564000000000000000000606082015260800190565b60006101a0820190506132c2828451612d06565b60208301516132d46020840182612d06565b5060408301516132e76040840182612d06565b50606083015160608301526080830151608083015260a083015161330e60a0840182612d06565b5060c083015160c083015260e083015160e08301526101008084015181840152506101208084015181840152506101408084015161334e82850182612d06565b5050610160838101519083015261018092830151929091019190915290565b60405181810167ffffffffffffffff8111828210171561338c57600080fd5b604052919050565b600067ffffffffffffffff8211156133aa578081fd5b5060209081020190565b6001600160a01b031690565b60005b838110156133db5781810151838201526020016133c3565b838111156133ea576000848401525b50505050565b6001600160a01b038116811461340557600080fd5b5056fea26469706673582212201935ed0373f8d144f9c4ae52c3ba9ed281cc9b3b00e4053365871e9a50039f8264736f6c63430007010033",
  "immutableReferences": {},
  "source": "// External interface for settlement of trades\n// (c) Kallol Borah, 2022\n// \"SPDX-License-Identifier: BUSL1.1\"\n\npragma solidity 0.7.1;\npragma experimental ABIEncoderV2;\n\nimport \"./interfaces/ISettlor.sol\";\nimport \"./interfaces/IOrder.sol\";\nimport \"./interfaces/ITrade.sol\";\nimport \"./interfaces/IFactory.sol\";\nimport \"./interfaces/ISecurity.sol\";\nimport \"./interfaces/VerifiedClient.sol\";\nimport \"./interfaces/ISecondaryIssuePool.sol\";\nimport \"./interfaces/ISecondaryIssuePoolFactory.sol\";\n\nimport \"@balancer-labs/v2-solidity-utils/contracts/math/Math.sol\";\nimport \"@balancer-labs/v2-solidity-utils/contracts/math/FixedPoint.sol\";\nimport \"@balancer-labs/v2-solidity-utils/contracts/openzeppelin/ERC20.sol\";\nimport \"@balancer-labs/v2-solidity-utils/contracts/openzeppelin/IERC20.sol\";\nimport \"@balancer-labs/v2-solidity-utils/contracts/openzeppelin/Ownable.sol\";\n \ncontract SecondaryIssueManager is ISettlor, Ownable {\n\n    using Math for uint256;\n    using FixedPoint for uint256;\n\n    // balancer variables\n    address private factory;    \n\n    address private vault;\n\n    //fee\n    uint256 private fee;\n\n    // mapping settlement ref to trade execution data\n    mapping(bytes32 => ISettlor.settlement) settlements;\n\n    //mapping depository participants to trades they are part of\n    mapping(bytes32 => bytes32[]) private trades;\n\n    //mapping pool address to pool id\n    mapping(address => bytes32) private pools;\n\n    //mapping pool id to security token traded\n    mapping(bytes32 => address) private poolSecurity;\n\n    //mapping pool id to investors\n    mapping(bytes32 => subscriptions[]) internal investors; \n\n    // mapping token address to issuing fee collected\n    mapping(address => uint256) private fees;\n\n    // reference to the Verified Client contract\n    VerifiedClient private client;\n\n    // reference to the Verified factory contract that this asset manager checks security token issues with\n    IFactory private products;\n\n    address private distribution;\n\n    event tradeSettled( \n                        bytes32 indexed poolid,\n                        address transferor,\n                        address transferee,\n                        uint256 unitsToTransfer,\n                        address security,\n                        uint256 price,\n                        address currency,\n                        bytes32 settlementStatus\n                    );\n\n    event subscribers(address platform, bytes32 poolId, address party, address counterparty, \n                        address indexed securityTraded, address currencySettled, uint256 amount, uint256 price,\n                        bytes32 tradeRef, bytes32 DPID);\n\n    modifier onlyIssueManager(address sender, address security){\n        address DP = products.getDP(security);\n        require(DP==sender, \"Unauthorized access, only issue managers are authorized\");\n        _;\n    }\n\n    /**\n        Initializes this asset management contract\n        @param  _factory            reference to the secondary issue pool factory contract\n        @param  _issueFeePercentage  percentage of trading fee to be charged by the asset manager\n        @param  _client             address of Verified client contract\n        @param  _vault              address of balancer vault\n     */\n    function initialize(address _factory, uint256 _issueFeePercentage, address _client, address _vault, address _distribution, address _products) onlyOwner public {\n        factory = _factory;\n        fee = _issueFeePercentage;\n        client = VerifiedClient(_client);\n        vault = _vault;\n        products = IFactory(_products);\n        distribution = _distribution;\n    }\n\n    /**\n        Joins existing (secondary) tokenized assets into pool by primary issue token holders\n        @param  security            reference to asset issued\n        @param  currency            reference to cash (settlement) token\n        @param  securityAmount      amount of security to issue\n        @param  minSecurityOrder    minimum order size of securities issued in pool\n        @param  cashAmount          amount of currency issued in pool\n     */\n    function issueSecondary(address security, address currency, uint256 securityAmount, uint256 minSecurityOrder, uint256 cashAmount) override onlyIssueManager(msg.sender, security) external {\n        //(bytes32 role, , ) = client.getRole(msg.sender);\n        require(IERC20(security).balanceOf(msg.sender)>=securityAmount && securityAmount>=minSecurityOrder\n                && IERC20(currency).balanceOf(msg.sender)>=cashAmount /*&& (products.getDP(security)==msg.sender || role=='DP'), \"Unauthorized access to secondary issue manager\"*/\n                , \"Insufficient balances to create secondary pool\");\n        ERC20(currency).transferFrom(msg.sender, address(this), cashAmount);\n        ERC20(security).transferFrom(msg.sender, address(this), securityAmount);  \n        ISecurity(security).whiteList(vault, securityAmount);      \n        address pool = ISecondaryIssuePoolFactory(factory).create(\n            ERC20(security).name(),\n            ERC20(security).symbol(),\n            security,\n            currency,\n            minSecurityOrder,\n            //_upscale(minSecurityOrder, _computeScalingFactor(IERC20(security))),\n            fee\n        ); \n        bytes32 poolId = ISecondaryIssuePool(pool).getPoolId();  \n        poolSecurity[poolId] = security; \n        pools[pool] = poolId;\n        // join the pool here                \n        (IERC20[] memory tokens, , ) = IVault(vault).getPoolTokens(poolId);\n        IAsset[] memory assets = _convertERC20sToAssets(tokens);\n        uint256[] memory maxAmountsIn = new uint256[](tokens.length);\n        ERC20(currency).approve(vault, cashAmount);\n        ERC20(security).approve(vault, securityAmount);\n        for (uint256 t; t < tokens.length; t++) {\n            if(tokens[t]==IERC20(security))\n                maxAmountsIn[t] = securityAmount;\n            else if(tokens[t]==IERC20(currency))\n                maxAmountsIn[t] = cashAmount;\n        }\n        IVault.JoinPoolRequest memory request = IVault.JoinPoolRequest({\n            assets: assets,\n            maxAmountsIn: maxAmountsIn,\n            userData: abi.encode(JoinKind.INIT, maxAmountsIn),\n            fromInternalBalance: false\n        });         \n        IVault(vault).joinPool(poolId, address(this), address(this), request);\n    }\n    \n    /**\n        Used by Secondary pools to request settlement for trades\n        @param  tradeToReport     data structure holding order matching data\n     */\n    function requestSettlement(ITrade.trade memory tradeToReport, IOrder orderbook) override external {\n        require(pools[msg.sender]!=\"\", \"Settlement requested from invalid pool\");\n        IOrder.order memory orderByParty = orderbook.getOrder(tradeToReport.partyRef);\n        IOrder.order memory orderByCounterparty = orderbook.getOrder(tradeToReport.counterpartyRef);\n        address securityTraded = orderbook.getSecurity(); \n        address currencySettled = orderbook.getCurrency();\n        address party = orderByParty.tokenIn==securityTraded || orderByParty.tokenOut==currencySettled ? orderByParty.party : orderByCounterparty.party;\n        address counterparty = orderByCounterparty.tokenIn==currencySettled || orderByCounterparty.tokenOut==securityTraded ? orderByCounterparty.party : orderByParty.party;\n        uint256 amount = tradeToReport.securityTraded; //orderByParty.tokenIn==securityTraded ? tradeToReport.securityTraded : tradeToReport.currencyTraded;\n        bytes32 _DPID = getTransferAgent(securityTraded);\n        ISettlor.settlement memory tradeToSettle = ISettlor.settlement({\n            transferor: party,\n            transferee: counterparty,\n            security: securityTraded,\n            status: \"Pending\",\n            currency: currencySettled,\n            price: _downscaleDown(tradeToReport.price, _computeScalingFactor(IERC20(currencySettled))),\n            unitsToTransfer: amount,\n            consideration: _upscale(tradeToReport.currencyTraded, _computeScalingFactor(IERC20(currencySettled))),\n            executionDate: tradeToReport.dt,\n            partyRef: orderByParty.tokenIn==securityTraded || orderByParty.tokenOut==currencySettled ? tradeToReport.partyRef : tradeToReport.counterpartyRef,\n            counterpartyRef: orderByCounterparty.tokenIn==currencySettled || orderByCounterparty.tokenOut==securityTraded ? tradeToReport.counterpartyRef : tradeToReport.partyRef,\n            DPID: _DPID,\n            orderPool: orderbook\n        });\n        bytes32 ref = keccak256(abi.encodePacked(tradeToReport.partyRef, tradeToReport.counterpartyRef));\n        if(settlements[ref].transferor==address(0x0)){\n            settlements[ref] = tradeToSettle;\n            ISettlor.subscriptions memory subscription = ISettlor.subscriptions({\n                investor: counterparty,\n                asset: securityTraded,\n                currency: currencySettled, \n                amount: amount,   \n                price: _downscaleDown(tradeToReport.price, _computeScalingFactor(IERC20(currencySettled)))\n            });\n            bytes32 poolId = orderbook.getPoolId();\n            investors[poolId].push(subscription);\n            emit subscribers(address(this), poolId, party, counterparty, securityTraded, currencySettled, amount, subscription.price, ref, tradeToSettle.DPID);\n            trades[tradeToSettle.DPID].push(ref);\n            if(products.getDP(securityTraded)==address(0x0))\n                setSettlement(ref, \"Confirm\");\n        }\n    }\n    \n    /**\n        Fetches trade settlement requests for depository participant\n        @param  dpid         identifier of depository participant (eg, transfer agent) that is authorized to settle the asset \n     */\n    function getSettlementRequests(bytes32 dpid, bytes32 poolId) override external view returns(bytes32[] memory){\n        (bytes32 role, , ) = client.getRole(msg.sender);\n        address DP = products.getDP(poolSecurity[poolId]);\n        require(role=='DP' || DP==msg.sender, \"Settlement requests can only be fetched by a depositary participant\");\n        /*if(poolId!=\"\"){\n            bytes32[] memory refs = new bytes32[](trades[dpid].length);\n            uint j=0;\n            for(uint256 i=0; i<trades[dpid].length; i++){\n                 IOrder ob = settlements[trades[dpid][i]].orderPool;\n                 bytes32 poolid = ob.getPoolId();\n                 if(poolid==poolId){\n                     refs[j] == trades[dpid][i];\n                     j++;\n                 }\n            }\n            return refs;\n        }\n        else{*/\n            return trades[dpid];\n        //}\n    }\n\n    /**\n        Fetches a specific trade settlement request        \n        @param  ref         reference to the trade\n     */\n    function getSettlementRequest(bytes32 ref) override external view returns(settlement memory){\n        require(ref!=\"\", \"Settlement requests can only be fetched by a depositary participant\"); \n        return settlements[ref];\n    }\n    event payFees(uint256 consideration, uint256 fee, uint256 toPay);\n    /**\n        Sets settlement status for trades executed\n        @param  ref         reference to the trade executed\n        @param  status      settlement status\n     */\n    function setSettlementStatus(bytes32 ref, bytes32 status) override onlyIssueManager(msg.sender, settlements[ref].security) external{\n        //(bytes32 role, , ) = client.getRole(msg.sender);\n        //address DP = products.getDP(settlements[ref].security);\n        //require(role=='DP' || DP==msg.sender, \"Settlement not done by depositary participant\");\n        setSettlement(ref, status);\n    }\n\n    function setSettlement(bytes32 ref, bytes32 status) private {\n        bytes32 DPID = settlements[ref].DPID;\n        bool settled = false;\n        require(status==\"Confirm\" || status==\"Reject\", \"Settlement status invalid\");\n        fee = FixedPoint.mulDown(settlements[ref].consideration, fee);\n        uint256 pay = FixedPoint.divDown(fee, _computeScalingFactor(IERC20(settlements[ref].currency)));\n        if(status==\"Confirm\" && settlements[ref].status!=\"Confirm\" && settlements[ref].status!=\"Fail\"){            \n            fees[settlements[ref].currency] = Math.add(fees[settlements[ref].currency], pay);\n            emit payFees(settlements[ref].consideration, fee, pay);\n            if(IERC20(settlements[ref].currency).transferFrom(settlements[ref].transferor, address(this), pay)){                \n                settlements[ref].orderPool.orderFilled(settlements[ref].partyRef, settlements[ref].counterpartyRef, settlements[ref].executionDate);\n                for(uint i=0; i<trades[DPID].length; i++){\n                    if(trades[DPID][i]==ref){\n                        if(i==trades[DPID].length-1)\n                            delete trades[DPID][i];\n                        else\n                            trades[DPID][i] = trades[DPID][i+1];\n                    }\n                }\n                settlements[ref].status = \"Confirm\";    \n                settled = true;            \n            }\n            else{\n                uint256 consideration = _downscaleDown(settlements[ref].consideration, _computeScalingFactor(IERC20(settlements[ref].currency)));\n                settlements[ref].orderPool.revertTrade(settlements[ref].partyRef, settlements[ref].unitsToTransfer, IOrder.Order.Sell, settlements[ref].executionDate);\n                settlements[ref].orderPool.revertTrade(settlements[ref].counterpartyRef, consideration, IOrder.Order.Buy, settlements[ref].executionDate);\n                IERC20(settlements[ref].currency).transferFrom(settlements[ref].transferor, settlements[ref].transferee, consideration);\n                IERC20(settlements[ref].security).transferFrom(settlements[ref].transferee, settlements[ref].transferor, settlements[ref].unitsToTransfer);\n                settlements[ref].status = \"Fail\";\n                settled = true;\n            }\n        }\n        else if(status==\"Reject\" && settlements[ref].status!=\"Reject\"){\n            uint256 consideration = _downscaleDown(settlements[ref].consideration, _computeScalingFactor(IERC20(settlements[ref].currency)));\n            IERC20(settlements[ref].currency).transferFrom(settlements[ref].transferor, settlements[ref].transferee, consideration);\n            IERC20(settlements[ref].security).transferFrom(settlements[ref].transferee, settlements[ref].transferor, settlements[ref].unitsToTransfer);\n            settlements[ref].status = \"Reject\";\n            settled == true;\n        }\n        if(settled){\n            bytes32 poolId = settlements[ref].orderPool.getPoolId();\n            emit tradeSettled(\n                            poolId,\n                            settlements[ref].transferor, \n                            settlements[ref].transferee, \n                            settlements[ref].unitsToTransfer,\n                            settlements[ref].security,\n                            settlements[ref].price,\n                            settlements[ref].currency,\n                            settlements[ref].status\n                        );  \n        }          \n    }\n\n    /**\n        Retrieve investors in secondary pools\n        @param  poolId  pool identity\n     */\n    function getSubscribers(bytes32 poolId) override onlyIssueManager(msg.sender, poolSecurity[poolId]) external view returns(ISettlor.subscriptions[] memory){\n        //(bytes32 role, , ) = client.getRole(msg.sender);\n        //require(role=='DP' || role=='Admin' || products.getHolder(poolSecurity[poolId])==msg.sender, \"Unauthorized access viewing subscribers in secondary pool.\");\n        return investors[poolId];\n    }\n\n    /**\n        Gets transfer agent for the security in the trade\n        @param  security  address of security traded\n     */\n    function getTransferAgent(address security) private view returns(bytes32){\n        address dp = products.getDP(security);\n        return(client.getTransferAgent(dp));\n    } \n\n    /**\n        Fetch trading fee collected in Balancer vault\n        @param  _token  address of token in which fee is collected\n     */\n    function getTradingFeeCollected(address _token) override external returns(uint256){\n        require(msg.sender==distribution, \"Unauthorized fee collection request\");\n        uint256 feeCollected = fees[_token];\n        IERC20(_token).transfer(distribution, feeCollected);\n        fees[_token] = Math.sub(fees[_token], feeCollected);\n        return feeCollected;\n    }   \n\n    /**\n     * @dev This helper function is a fast and cheap way to convert between IERC20[] and IAsset[] types\n     */\n    function _convertERC20sToAssets(IERC20[] memory tokens) internal pure returns (IAsset[] memory assets) {\n        // solhint-disable-next-line no-inline-assembly\n        assembly {\n            assets := tokens\n        }\n    }\n\n    /**\n     * @dev Returns a scaling factor that, when multiplied to a token amount for `token`, normalizes its balance as if\n     * it had 18 decimals.\n     */\n    function _computeScalingFactor(IERC20 token) internal view returns (uint256) {\n        // Tokens that don't implement the `decimals` method are not supported.\n        uint256 tokenDecimals = ERC20(address(token)).decimals();\n\n        // Tokens with more than 18 decimals are not supported.\n        uint256 decimalsDifference = Math.sub(18, tokenDecimals);\n        return FixedPoint.ONE * 10**decimalsDifference;\n    }\n\n    /**\n     * @dev Reverses the `scalingFactor` applied to `amount`, resulting in a smaller or equal value depending on\n     * whether it needed scaling or not. The result is rounded down.\n     */\n    function _downscaleDown(uint256 amount, uint256 scalingFactor) internal pure returns (uint256) {\n        return FixedPoint.divDown(amount, scalingFactor);\n    }\n\n    /**\n     * @dev Applies `scalingFactor` to `amount`, resulting in a larger or equal value depending on whether it needed\n     * scaling or not.\n     */\n    function _upscale(uint256 amount, uint256 scalingFactor) internal pure returns (uint256) {\n        // Upscale rounding wouldn't necessarily always go in the same direction: in a swap for example the balance of\n        // token in should be rounded up, and that of token out rounded down. This is the only place where we round in\n        // the same direction for all amounts, as the impact of this rounding is expected to be minimal (and there's no\n        // rounding error unless `_scalingFactor()` is overriden).\n        return FixedPoint.mulDown(amount, scalingFactor);\n    }\n\n}",
  "sourcePath": "D:\\Code\\verified-balancer\\contracts\\SecondaryIssueManager.sol",
  "compiler": {
    "name": "solc",
    "version": "0.7.1+commit.f4a555be.Emscripten.clang"
  },
  "schemaVersion": "3.4.3",
  "updatedAt": "2023-03-05T01:35:49.234Z",
  "networkType": "ethereum",
  "devdoc": {
    "kind": "dev",
    "methods": {
      "getSettlementRequest(bytes32)": {
        "params": {
          "ref": "reference to the trade"
        }
      },
      "getSettlementRequests(bytes32,bytes32)": {
        "params": {
          "dpid": "identifier of depository participant (eg, transfer agent) that is authorized to settle the asset "
        }
      },
      "getSubscribers(bytes32)": {
        "params": {
          "poolId": "pool identity"
        }
      },
      "getTradingFeeCollected(address)": {
        "params": {
          "_token": "address of token in which fee is collected"
        }
      },
      "initialize(address,uint256,address,address,address,address)": {
        "params": {
          "_client": "address of Verified client contract",
          "_factory": "reference to the secondary issue pool factory contract",
          "_issueFeePercentage": "percentage of trading fee to be charged by the asset manager",
          "_vault": "address of balancer vault"
        }
      },
      "issueSecondary(address,address,uint256,uint256,uint256)": {
        "params": {
          "cashAmount": "amount of currency issued in pool",
          "currency": "reference to cash (settlement) token",
          "minSecurityOrder": "minimum order size of securities issued in pool",
          "security": "reference to asset issued",
          "securityAmount": "amount of security to issue"
        }
      },
      "owner()": {
        "details": "Returns the address of the current owner."
      },
      "renounceOwnership()": {
        "details": "Leaves the contract without owner. It will not be possible to call `onlyOwner` functions anymore. Can only be called by the current owner. NOTE: Renouncing ownership will leave the contract without an owner, thereby removing any functionality that is only available to the owner."
      },
      "requestSettlement((bytes32,address,bytes32,uint256,uint256,uint256,uint256),address)": {
        "params": {
          "tradeToReport": "data structure holding order matching data"
        }
      },
      "setSettlementStatus(bytes32,bytes32)": {
        "params": {
          "ref": "reference to the trade executed",
          "status": "settlement status"
        }
      },
      "transferOwnership(address)": {
        "details": "Transfers ownership of the contract to a new account (`newOwner`). Can only be called by the current owner."
      }
    },
    "version": 1
  },
  "userdoc": {
    "kind": "user",
    "methods": {
      "getSettlementRequest(bytes32)": {
        "notice": "Fetches a specific trade settlement request        "
      },
      "getSettlementRequests(bytes32,bytes32)": {
        "notice": "Fetches trade settlement requests for depository participant"
      },
      "getSubscribers(bytes32)": {
        "notice": "Retrieve investors in secondary pools"
      },
      "getTradingFeeCollected(address)": {
        "notice": "Fetch trading fee collected in Balancer vault"
      },
      "initialize(address,uint256,address,address,address,address)": {
        "notice": "Initializes this asset management contract"
      },
      "issueSecondary(address,address,uint256,uint256,uint256)": {
        "notice": "Joins existing (secondary) tokenized assets into pool by primary issue token holders"
      },
      "requestSettlement((bytes32,address,bytes32,uint256,uint256,uint256,uint256),address)": {
        "notice": "Used by Secondary pools to request settlement for trades"
      },
      "setSettlementStatus(bytes32,bytes32)": {
        "notice": "Sets settlement status for trades executed"
      }
    },
    "version": 1
  }
}