{
  "contractName": "SecondaryIssueManager",
  "abi": [
    {
      "anonymous": false,
      "inputs": [
        {
          "indexed": true,
          "internalType": "address",
          "name": "previousOwner",
          "type": "address"
        },
        {
          "indexed": true,
          "internalType": "address",
          "name": "newOwner",
          "type": "address"
        }
      ],
      "name": "OwnershipTransferred",
      "type": "event"
    },
    {
      "anonymous": false,
      "inputs": [
        {
          "indexed": false,
          "internalType": "bytes32",
          "name": "poolId",
          "type": "bytes32"
        },
        {
          "indexed": false,
          "internalType": "address",
          "name": "party",
          "type": "address"
        },
        {
          "indexed": false,
          "internalType": "address",
          "name": "counterparty",
          "type": "address"
        },
        {
          "indexed": true,
          "internalType": "address",
          "name": "securityTraded",
          "type": "address"
        },
        {
          "indexed": false,
          "internalType": "address",
          "name": "currencySettled",
          "type": "address"
        },
        {
          "indexed": false,
          "internalType": "uint256",
          "name": "amount",
          "type": "uint256"
        },
        {
          "indexed": false,
          "internalType": "uint256",
          "name": "price",
          "type": "uint256"
        },
        {
          "indexed": false,
          "internalType": "bytes32",
          "name": "tradeRef",
          "type": "bytes32"
        },
        {
          "indexed": false,
          "internalType": "bytes32",
          "name": "DPID",
          "type": "bytes32"
        },
        {
          "indexed": false,
          "internalType": "uint256",
          "name": "timestamp",
          "type": "uint256"
        }
      ],
      "name": "subscribers",
      "type": "event"
    },
    {
      "anonymous": false,
      "inputs": [
        {
          "indexed": true,
          "internalType": "bytes32",
          "name": "poolid",
          "type": "bytes32"
        },
        {
          "indexed": false,
          "internalType": "address",
          "name": "transferor",
          "type": "address"
        },
        {
          "indexed": false,
          "internalType": "address",
          "name": "transferee",
          "type": "address"
        },
        {
          "indexed": false,
          "internalType": "uint256",
          "name": "unitsToTransfer",
          "type": "uint256"
        },
        {
          "indexed": false,
          "internalType": "address",
          "name": "security",
          "type": "address"
        },
        {
          "indexed": false,
          "internalType": "uint256",
          "name": "price",
          "type": "uint256"
        },
        {
          "indexed": false,
          "internalType": "address",
          "name": "currency",
          "type": "address"
        },
        {
          "indexed": false,
          "internalType": "bytes32",
          "name": "settlementStatus",
          "type": "bytes32"
        },
        {
          "indexed": false,
          "internalType": "bytes32",
          "name": "tradeRef",
          "type": "bytes32"
        },
        {
          "indexed": false,
          "internalType": "uint256",
          "name": "fee",
          "type": "uint256"
        }
      ],
      "name": "tradeSettled",
      "type": "event"
    },
    {
      "inputs": [],
      "name": "owner",
      "outputs": [
        {
          "internalType": "address",
          "name": "",
          "type": "address"
        }
      ],
      "stateMutability": "view",
      "type": "function",
      "constant": true
    },
    {
      "inputs": [],
      "name": "renounceOwnership",
      "outputs": [],
      "stateMutability": "nonpayable",
      "type": "function"
    },
    {
      "inputs": [
        {
          "internalType": "address",
          "name": "newOwner",
          "type": "address"
        }
      ],
      "name": "transferOwnership",
      "outputs": [],
      "stateMutability": "nonpayable",
      "type": "function"
    },
    {
      "inputs": [
        {
          "internalType": "address",
          "name": "_factory",
          "type": "address"
        },
        {
          "internalType": "uint256",
          "name": "_issueFeePercentage",
          "type": "uint256"
        },
        {
          "internalType": "address",
          "name": "_client",
          "type": "address"
        },
        {
          "internalType": "address",
          "name": "_vault",
          "type": "address"
        },
        {
          "internalType": "address",
          "name": "_distribution",
          "type": "address"
        },
        {
          "internalType": "address",
          "name": "_products",
          "type": "address"
        }
      ],
      "name": "initialize",
      "outputs": [],
      "stateMutability": "nonpayable",
      "type": "function"
    },
    {
      "inputs": [
        {
          "internalType": "address",
          "name": "security",
          "type": "address"
        },
        {
          "internalType": "address",
          "name": "currency",
          "type": "address"
        },
        {
          "internalType": "uint256",
          "name": "securityAmount",
          "type": "uint256"
        },
        {
          "internalType": "uint256",
          "name": "minSecurityOrder",
          "type": "uint256"
        },
        {
          "internalType": "uint256",
          "name": "cashAmount",
          "type": "uint256"
        }
      ],
      "name": "issueSecondary",
      "outputs": [],
      "stateMutability": "nonpayable",
      "type": "function"
    },
    {
      "inputs": [
        {
          "components": [
            {
              "internalType": "address",
              "name": "partyAddress",
              "type": "address"
            },
            {
              "internalType": "bytes32",
              "name": "partyRef",
              "type": "bytes32"
            },
            {
              "internalType": "bytes32",
              "name": "counterpartyRef",
              "type": "bytes32"
            },
            {
              "internalType": "uint256",
              "name": "dt",
              "type": "uint256"
            },
            {
              "internalType": "uint256",
              "name": "securityTraded",
              "type": "uint256"
            },
            {
              "internalType": "uint256",
              "name": "currencyTraded",
              "type": "uint256"
            }
          ],
          "internalType": "struct ITrade.trade",
          "name": "tradeToReport",
          "type": "tuple"
        },
        {
          "internalType": "contract IOrder",
          "name": "orderbook",
          "type": "address"
        }
      ],
      "name": "requestSettlement",
      "outputs": [],
      "stateMutability": "nonpayable",
      "type": "function"
    },
    {
      "inputs": [
        {
          "internalType": "bytes32",
          "name": "dpid",
          "type": "bytes32"
        },
        {
          "internalType": "bytes32",
          "name": "poolId",
          "type": "bytes32"
        }
      ],
      "name": "getSettlementRequests",
      "outputs": [
        {
          "internalType": "bytes32[]",
          "name": "",
          "type": "bytes32[]"
        }
      ],
      "stateMutability": "view",
      "type": "function",
      "constant": true
    },
    {
      "inputs": [
        {
          "internalType": "bytes32",
          "name": "ref",
          "type": "bytes32"
        }
      ],
      "name": "getSettlementRequest",
      "outputs": [
        {
          "components": [
            {
              "internalType": "address",
              "name": "transferor",
              "type": "address"
            },
            {
              "internalType": "address",
              "name": "transferee",
              "type": "address"
            },
            {
              "internalType": "address",
              "name": "security",
              "type": "address"
            },
            {
              "internalType": "bytes32",
              "name": "status",
              "type": "bytes32"
            },
            {
              "internalType": "bytes32",
              "name": "DPID",
              "type": "bytes32"
            },
            {
              "internalType": "address",
              "name": "currency",
              "type": "address"
            },
            {
              "internalType": "uint256",
              "name": "price",
              "type": "uint256"
            },
            {
              "internalType": "uint256",
              "name": "unitsToTransfer",
              "type": "uint256"
            },
            {
              "internalType": "uint256",
              "name": "consideration",
              "type": "uint256"
            },
            {
              "internalType": "uint256",
              "name": "executionDate",
              "type": "uint256"
            },
            {
              "internalType": "contract IOrder",
              "name": "orderPool",
              "type": "address"
            },
            {
              "internalType": "bytes32",
              "name": "partyRef",
              "type": "bytes32"
            },
            {
              "internalType": "bytes32",
              "name": "counterpartyRef",
              "type": "bytes32"
            }
          ],
          "internalType": "struct ISettlor.settlement",
          "name": "",
          "type": "tuple"
        }
      ],
      "stateMutability": "view",
      "type": "function",
      "constant": true
    },
    {
      "inputs": [
        {
          "internalType": "bytes32",
          "name": "ref",
          "type": "bytes32"
        },
        {
          "internalType": "bytes32",
          "name": "status",
          "type": "bytes32"
        }
      ],
      "name": "setSettlementStatus",
      "outputs": [],
      "stateMutability": "nonpayable",
      "type": "function"
    },
    {
      "inputs": [
        {
          "internalType": "bytes32",
          "name": "poolId",
          "type": "bytes32"
        }
      ],
      "name": "getSubscribers",
      "outputs": [
        {
          "components": [
            {
              "internalType": "address",
              "name": "investor",
              "type": "address"
            },
            {
              "internalType": "address",
              "name": "asset",
              "type": "address"
            },
            {
              "internalType": "address",
              "name": "currency",
              "type": "address"
            },
            {
              "internalType": "uint256",
              "name": "amount",
              "type": "uint256"
            },
            {
              "internalType": "uint256",
              "name": "price",
              "type": "uint256"
            }
          ],
          "internalType": "struct ISettlor.subscriptions[]",
          "name": "",
          "type": "tuple[]"
        }
      ],
      "stateMutability": "view",
      "type": "function",
      "constant": true
    },
    {
      "inputs": [
        {
          "internalType": "address",
          "name": "_token",
          "type": "address"
        }
      ],
      "name": "getTradingFeeCollected",
      "outputs": [
        {
          "internalType": "uint256",
          "name": "",
          "type": "uint256"
        }
      ],
      "stateMutability": "nonpayable",
      "type": "function"
    }
  ],
  "bytecode": "0x608060405234801561001057600080fd5b50600080546001600160a01b0319163390811782556040519091907f8be0079c531659141344cd1fd0a4f28419497f9722a3daafe3b4186f6b6457e0908290a36131578061005f6000396000f3fe608060405234801561001057600080fd5b50600436106100a95760003560e01c806379a7dc0e1161007157806379a7dc0e1461011a5780638da5cb5b1461013a578063a2dc2ab71461014f578063bfa0caa714610162578063c9fca3c714610182578063f2fde38b146101a2576100a9565b806304967159146100ae57806306d53a93146100c35780632d916746146100d6578063715018a6146100ff57806371eedc7f14610107575b600080fd5b6100c16100bc3660046128eb565b6101b5565b005b6100c16100d1366004612707565b61029c565b6100e96100e43660046126cf565b610af7565b6040516100f69190612c49565b60405180910390f35b6100c1610bfe565b6100c1610115366004612986565b610c66565b61012d6101283660046128bb565b611439565b6040516100f69190612ff7565b610142611512565b6040516100f69190612ad6565b6100c161015d366004612757565b611521565b6101756101703660046128bb565b611593565b6040516100f69190612bc0565b6101956101903660046128eb565b611704565b6040516100f69190612b7c565b6100c16101b03660046126cf565b611834565b600082815260046020819052604080832060020154600b54915163e0a87de160e01b815233946001600160a01b039283169490939092169163e0a87de1916101ff91869101612ad6565b60206040518083038186803b15801561021757600080fd5b505afa15801561022b573d6000803e3d6000fd5b505050506040513d601f19601f8201168201806040525081019061024f91906126eb565b9050826001600160a01b0316816001600160a01b03161461028b5760405162461bcd60e51b815260040161028290612f9a565b60405180910390fd5b61029585856118b2565b5050505050565b600b5460405163e0a87de160e01b8152339187916000916001600160a01b03169063e0a87de1906102d1908590600401612ad6565b60206040518083038186803b1580156102e957600080fd5b505afa1580156102fd573d6000803e3d6000fd5b505050506040513d601f19601f8201168201806040525081019061032191906126eb565b9050826001600160a01b0316816001600160a01b0316146103545760405162461bcd60e51b815260040161028290612f9a565b6040516370a0823160e01b815286906001600160a01b038a16906370a0823190610382903390600401612ad6565b60206040518083038186803b15801561039a57600080fd5b505afa1580156103ae573d6000803e3d6000fd5b505050506040513d601f19601f820116820180604052508101906103d291906128d3565b101580156103e05750848610155b801561046857506040516370a0823160e01b815284906001600160a01b038916906370a0823190610415903390600401612ad6565b60206040518083038186803b15801561042d57600080fd5b505afa158015610441573d6000803e3d6000fd5b505050506040513d601f19601f8201168201806040525081019061046591906128d3565b10155b6104845760405162461bcd60e51b815260040161028290612de9565b6040516323b872dd60e01b81526001600160a01b038816906323b872dd906104b490339030908990600401612aea565b602060405180830381600087803b1580156104ce57600080fd5b505af11580156104e2573d6000803e3d6000fd5b505050506040513d601f19601f82011682018060405250810190610506919061289b565b506040516323b872dd60e01b81526001600160a01b038916906323b872dd9061053790339030908b90600401612aea565b602060405180830381600087803b15801561055157600080fd5b505af1158015610565573d6000803e3d6000fd5b505050506040513d601f19601f82011682018060405250810190610589919061289b565b506002546040516372e0f85360e01b81526001600160a01b038a8116926372e0f853926105be92909116908a90600401612b63565b600060405180830381600087803b1580156105d857600080fd5b505af11580156105ec573d6000803e3d6000fd5b5050600154600354604051631d3731e960e21b8152600094506001600160a01b0390921692506374dcc7a49161062a918d918d918c91600401612f29565b602060405180830381600087803b15801561064457600080fd5b505af1158015610658573d6000803e3d6000fd5b505050506040513d601f19601f8201168201806040525081019061067c91906126eb565b90506000816001600160a01b03166338fff2d06040518163ffffffff1660e01b815260040160206040518083038186803b1580156106b957600080fd5b505afa1580156106cd573d6000803e3d6000fd5b505050506040513d601f19601f820116820180604052508101906106f191906128d3565b9050896007600083815260200190815260200160002060006101000a8154816001600160a01b0302191690836001600160a01b031602179055508060066000846001600160a01b03166001600160a01b03168152602001908152602001600020819055506060600260009054906101000a90046001600160a01b03166001600160a01b031663f94d4668836040518263ffffffff1660e01b81526004016107989190612c49565b60006040518083038186803b1580156107b057600080fd5b505afa1580156107c4573d6000803e3d6000fd5b505050506040513d6000823e601f3d908101601f191682016040526107ec91908101906127cf565b5050905060606107fb82612277565b90506060825167ffffffffffffffff8111801561081757600080fd5b50604051908082528060200260200182016040528015610841578160200160208202803683370190505b5060025460405163095ea7b360e01b81529192506001600160a01b03808f169263095ea7b3926108779216908d90600401612b63565b602060405180830381600087803b15801561089157600080fd5b505af11580156108a5573d6000803e3d6000fd5b505050506040513d601f19601f820116820180604052508101906108c9919061289b565b508c6001600160a01b031663095ea7b3600260009054906101000a90046001600160a01b03168d6040518363ffffffff1660e01b815260040161090d929190612b63565b602060405180830381600087803b15801561092757600080fd5b505af115801561093b573d6000803e3d6000fd5b505050506040513d601f19601f8201168201806040525081019061095f919061289b565b5060005b8351811015610a2d578d6001600160a01b031684828151811061098257fe5b60200260200101516001600160a01b031614156109b7578b8282815181106109a657fe5b602002602001018181525050610a25565b8c6001600160a01b03168482815181106109cd57fe5b60200260200101516001600160a01b031614156109f157898282815181106109a657fe5b610a0c6dffffffffffffffffffffffffffff620f424061227a565b828281518110610a1857fe5b6020026020010181815250505b600101610963565b50610a3661256e565b6040518060800160405280848152602001838152602001600084604051602001610a61929190612d87565b60408051808303601f190181529181529082526000602090920191909152600254905163172b958560e31b81529192506001600160a01b03169063b95cac2890610ab5908890309081908790600401612ca0565b600060405180830381600087803b158015610acf57600080fd5b505af1158015610ae3573d6000803e3d6000fd5b505050505050505050505050505050505050565b600c546000906001600160a01b03163314610b245760405162461bcd60e51b815260040161028290612ee6565b6001600160a01b038083166000818152600960205260409081902054600c54915163a9059cbb60e01b8152909363a9059cbb92610b68929116908590600401612b63565b602060405180830381600087803b158015610b8257600080fd5b505af1158015610b96573d6000803e3d6000fd5b505050506040513d601f19601f82011682018060405250810190610bba919061289b565b506001600160a01b038316600090815260096020526040902054610bde908261227a565b6001600160a01b0384166000908152600960205260409020559050919050565b610c1c33610c0a611512565b6001600160a01b0316146101aa612295565b600080546040516001600160a01b03909116907f8be0079c531659141344cd1fd0a4f28419497f9722a3daafe3b4186f6b6457e0908390a3600080546001600160a01b0319169055565b33600090815260066020526040902054610c925760405162461bcd60e51b815260040161028290612ea0565b610c9a612598565b6020830151604051632bbc239560e11b81526001600160a01b03841691635778472a91610cca9190600401612c49565b60a06040518083038186803b158015610ce257600080fd5b505afa158015610cf6573d6000803e3d6000fd5b505050506040513d601f19601f82011682018060405250810190610d1a919061290c565b9050610d24612598565b6040808501519051632bbc239560e11b81526001600160a01b03851691635778472a91610d549190600401612c49565b60a06040518083038186803b158015610d6c57600080fd5b505afa158015610d80573d6000803e3d6000fd5b505050506040513d601f19601f82011682018060405250810190610da4919061290c565b90506000836001600160a01b0316632541897f6040518163ffffffff1660e01b815260040160206040518083038186803b158015610de157600080fd5b505afa158015610df5573d6000803e3d6000fd5b505050506040513d601f19601f82011682018060405250810190610e1991906126eb565b90506000846001600160a01b0316636945c1fd6040518163ffffffff1660e01b815260040160206040518083038186803b158015610e5657600080fd5b505afa158015610e6a573d6000803e3d6000fd5b505050506040513d601f19601f82011682018060405250810190610e8e91906126eb565b90506000826001600160a01b031685602001516001600160a01b031614610eb6578351610eb9565b84515b90506000826001600160a01b031685602001516001600160a01b031614610ee1578551610ee4565b84515b60808901519091506000610ef7866122a7565b90506000610f0d8b60a001518c608001516123b3565b9050610f176125c7565b604051806101a00160405280876001600160a01b03168152602001866001600160a01b03168152602001896001600160a01b031681526020016650656e64696e6760c81b8152602001848152602001886001600160a01b03168152602001610f8784610f828b6123d3565b61246e565b8152602001858152602001610fa88e60a00151610fa38b6123d3565b61247a565b81526020018d6060015181526020018c6001600160a01b03168152602001896001600160a01b03168c602001516001600160a01b031614610fed578d60400151610ff3565b8d602001515b8152602001886001600160a01b03168b602001516001600160a01b03161461101f578d60200151611025565b8d604001515b815250905060008c602001518d60400151604051602001611047929190612ac8565b60408051601f198184030181529181528151602092830120600081815260049093529120549091506001600160a01b031661142a57600081815260046020818152604092839020855181546001600160a01b03199081166001600160a01b039283161783559287015160018301805485169183169190911790559386015160028201805484169186169190911790556060860151600382015560808601519281019290925560a0850151600583018054831691851691909117905560c0850151600683015560e0850151600783015561010085015160088301556101208501516009830155610140850151600a83018054909216931692909217909155610160830151600b820155610180830151600c90910155611163612633565b6040518060a00160405280886001600160a01b031681526020018b6001600160a01b031681526020018a6001600160a01b031681526020018781526020016111ae86610f828d6123d3565b815250905060008d6001600160a01b03166338fff2d06040518163ffffffff1660e01b815260040160206040518083038186803b1580156111ee57600080fd5b505afa158015611202573d6000803e3d6000fd5b505050506040513d601f19601f8201168201806040525081019061122691906128d3565b90506008600082815260200190815260200160002082908060018154018082558091505060019003906000526020600020906005020160009091909190915060008201518160000160006101000a8154816001600160a01b0302191690836001600160a01b0316021790555060208201518160010160006101000a8154816001600160a01b0302191690836001600160a01b0316021790555060408201518160020160006101000a8154816001600160a01b0302191690836001600160a01b03160217905550606082015181600301556080820151816004015550508a6001600160a01b03167f0dd4a121adafd4537e046c792647be3f3978f362ad83b50586e249ae8641de2f828b8b8e8c88608001518a8c608001514260405161135399989796959493929190612c52565b60405180910390a2608084015160009081526005602090815260408083208054600181018255908452918320909101859055600b54905163e0a87de160e01b81526001600160a01b039091169063e0a87de1906113b4908f90600401612ad6565b60206040518083038186803b1580156113cc57600080fd5b505afa1580156113e0573d6000803e3d6000fd5b505050506040513d601f19601f8201168201806040525081019061140491906126eb565b6001600160a01b03161415611427576114278366436f6e6669726d60c81b6118b2565b50505b50505050505050505050505050565b6114416125c7565b8161145e5760405162461bcd60e51b815260040161028290612e37565b5060009081526004602081815260409283902083516101a08101855281546001600160a01b03908116825260018301548116938201939093526002820154831694810194909452600381015460608501529182015460808401526005820154811660a0840152600682015460c0840152600782015460e084015260088201546101008401526009820154610120840152600a82015416610140830152600b810154610160830152600c015461018082015290565b6000546001600160a01b031690565b61152d33610c0a611512565b600180546001600160a01b03199081166001600160a01b0398891617909155600395909555600a805486169487169490941790935560028054851692861692909217909155600b8054841692851692909217909155600c80549092169216919091179055565b60008181526007602052604080822054600b54915163e0a87de160e01b815260609333936001600160a01b0393841693919291169063e0a87de1906115dc908590600401612ad6565b60206040518083038186803b1580156115f457600080fd5b505afa158015611608573d6000803e3d6000fd5b505050506040513d601f19601f8201168201806040525081019061162c91906126eb565b9050826001600160a01b0316816001600160a01b03161461165f5760405162461bcd60e51b815260040161028290612f9a565b600085815260086020908152604080832080548251818502810185019093528083529193909284015b828210156116f65760008481526020908190206040805160a0810182526005860290920180546001600160a01b039081168452600180830154821685870152600283015490911692840192909252600381015460608401526004015460808301529083529092019101611688565b505050509350505050919050565b60008181526007602052604080822054600b54915163e0a87de160e01b815260609333936001600160a01b0393841693919291169063e0a87de19061174d908590600401612ad6565b60206040518083038186803b15801561176557600080fd5b505afa158015611779573d6000803e3d6000fd5b505050506040513d601f19601f8201168201806040525081019061179d91906126eb565b9050826001600160a01b0316816001600160a01b0316146117d05760405162461bcd60e51b815260040161028290612f9a565b6000868152600560209081526040918290208054835181840281018401909452808452909183018282801561182457602002820191906000526020600020905b815481526020019060010190808311611810575b5050505050935050505092915050565b61184033610c0a611512565b6118576001600160a01b03821615156101ab612295565b600080546040516001600160a01b03808516939216917f8be0079c531659141344cd1fd0a4f28419497f9722a3daafe3b4186f6b6457e091a3600080546001600160a01b0319166001600160a01b0392909216919091179055565b6000828152600460208190526040822001549066436f6e6669726d60c81b8314806118e55750826514995a9958dd60d21b145b6119015760405162461bcd60e51b815260040161028290612db2565b6000848152600460205260409020600801546003546119209190612482565b600381905560008581526004602052604081206005015490916119549161194f906001600160a01b03166123d3565b6124b8565b90508366436f6e6669726d60c81b14801561198a575060008581526004602052604090206003015466436f6e6669726d60c81b14155b80156119ae57506000858152600460205260409020600301546311985a5b60e21b14155b15611eda576000858152600460209081526040808320600501546001600160a01b0316835260099091529020546119e59082612509565b60008681526004602081815260408084206005810180546001600160a01b0390811687526009855283872097909755948b9052918390529254905492516323b872dd60e01b8152908416936323b872dd93611a47939116913091879101612aea565b602060405180830381600087803b158015611a6157600080fd5b505af1158015611a75573d6000803e3d6000fd5b505050506040513d601f19601f82011682018060405250810190611a99919061289b565b15611c3057600085815260046020819052604091829020600a810154600b820154600c83015460099093015494516381b5da1d60e01b81526001600160a01b03909216946381b5da1d94611aef94929301612d71565b600060405180830381600087803b158015611b0957600080fd5b505af1158015611b1d573d6000803e3d6000fd5b5050505060005b600084815260056020526040902054811015611c07576000848152600560205260409020805487919083908110611b5757fe5b90600052602060002001541415611bff5760008481526005602052604090205460001901811415611bac576000848152600560205260409020805482908110611b9c57fe5b6000918252602082200155611bff565b6000848152600560205260409020805460018301908110611bc957fe5b9060005260206000200154600560008681526020019081526020016000208281548110611bf257fe5b6000918252602090912001555b600101611b24565b50600085815260046020526040902066436f6e6669726d60c81b60039091015560019150611ed5565b60008581526004602052604081206008810154600590910154611c609190610f82906001600160a01b03166123d3565b600087815260046020819052604091829020600a810154600b820154600783015460069093015494516307ef938960e41b81529596506001600160a01b0390911694637ef9389094611cb794929392909101612d71565b600060405180830381600087803b158015611cd157600080fd5b505af1158015611ce5573d6000803e3d6000fd5b505050600087815260046020819052604091829020600a810154600c82015460069092015493516307ef938960e41b81526001600160a01b039091169450637ef9389093611d3593879201612d71565b600060405180830381600087803b158015611d4f57600080fd5b505af1158015611d63573d6000803e3d6000fd5b5050506000878152600460208190526040918290206005810154815460019092015493516323b872dd60e01b81526001600160a01b0391821695506323b872dd94611db79493831693921691879101612aea565b602060405180830381600087803b158015611dd157600080fd5b505af1158015611de5573d6000803e3d6000fd5b505050506040513d601f19601f82011682018060405250810190611e09919061289b565b5060008681526004602081905260409182902060028101546001820154825460079093015494516323b872dd60e01b81526001600160a01b03928316956323b872dd95611e60959385169490931692909101612aea565b602060405180830381600087803b158015611e7a57600080fd5b505af1158015611e8e573d6000803e3d6000fd5b505050506040513d601f19601f82011682018060405250810190611eb2919061289b565b505060008581526004602052604090206311985a5b60e21b600390910155600191505b6120b0565b836514995a9958dd60d21b148015611f0c57506000858152600460205260409020600301546514995a9958dd60d21b14155b156120b05760008581526004602052604081206008810154600590910154611f419190610f82906001600160a01b03166123d3565b6000878152600460208190526040918290206005810154815460019092015493516323b872dd60e01b81529495506001600160a01b03908116946323b872dd94611f949493831693921691879101612aea565b602060405180830381600087803b158015611fae57600080fd5b505af1158015611fc2573d6000803e3d6000fd5b505050506040513d601f19601f82011682018060405250810190611fe6919061289b565b5060008681526004602081905260409182902060028101546001820154825460079093015494516323b872dd60e01b81526001600160a01b03928316956323b872dd9561203d959385169490931692909101612aea565b602060405180830381600087803b15801561205757600080fd5b505af115801561206b573d6000803e3d6000fd5b505050506040513d601f19601f8201168201806040525081019061208f919061289b565b505060008581526004602052604090206514995a9958dd60d21b6003909101555b8115610295576000858152600460208181526040808420600a0154815163038fff2d60e41b815291516001600160a01b03909116936338fff2d0938382019390929190829003018186803b15801561210757600080fd5b505afa15801561211b573d6000803e3d6000fd5b505050506040513d601f19601f8201168201806040525081019061213f91906128d3565b9050807f20bc58ab7015bb746413e8ea58a156a1b772a58e47523f8e2e54195b80a7beef6004600089815260200190815260200160002060000160009054906101000a90046001600160a01b0316600460008a815260200190815260200160002060010160009054906101000a90046001600160a01b0316600460008b815260200190815260200160002060070154600460008c815260200190815260200160002060020160009054906101000a90046001600160a01b0316600460008d815260200190815260200160002060060154600460008e815260200190815260200160002060050160009054906101000a90046001600160a01b0316600460008f8152602001908152602001600020600301548e8b60405161226799989796959493929190612b0e565b60405180910390a2505050505050565b90565b600061228a838311156001612295565b508082035b92915050565b816122a3576122a38161251b565b5050565b600b5460405163e0a87de160e01b815260009182916001600160a01b039091169063e0a87de1906122dc908690600401612ad6565b60206040518083038186803b1580156122f457600080fd5b505afa158015612308573d6000803e3d6000fd5b505050506040513d601f19601f8201168201806040525081019061232c91906126eb565b600a5460405162157d5560e61b81529192506001600160a01b03169063055f55409061235c908490600401612ad6565b60206040518083038186803b15801561237457600080fd5b505afa158015612388573d6000803e3d6000fd5b505050506040513d601f19601f820116820180604052508101906123ac91906128d3565b9392505050565b60006123c28215156004612295565b8183816123cb57fe5b049392505050565b600080826001600160a01b031663313ce5676040518163ffffffff1660e01b815260040160206040518083038186803b15801561240f57600080fd5b505afa158015612423573d6000803e3d6000fd5b505050506040513d601f19601f820116820180604052508101906124479190612a0f565b60ff169050600061245960128361227a565b600a0a670de0b6b3a764000002949350505050565b60006123ac83836124b8565b60006123ac83835b60008282026124a684158061249f57508385838161249c57fe5b04145b6003612295565b670de0b6b3a764000090049392505050565b60006124c78215156004612295565b826124d45750600061228f565b670de0b6b3a7640000838102906124f7908583816124ee57fe5b04146005612295565b82818161250057fe5b0491505061228f565b60008282016123ac8482101583612295565b62461bcd60e51b6000908152602060045260076024526642414c23000030600a808404818106603090810160081b95839006959095019082900491820690940160101b939093010160c81b604452606490fd5b60405180608001604052806060815260200160608152602001606081526020016000151581525090565b6040805160a0810182526000808252602082018190529091820190815260200160008152602001600081525090565b604080516101a081018252600080825260208201819052918101829052606081018290526080810182905260a0810182905260c0810182905260e08101829052610100810182905261012081018290526101408101829052610160810182905261018081019190915290565b6040805160a08101825260008082526020820181905291810182905260608101829052608081019190915290565b600082601f830112612671578081fd5b815161268461267f826130dd565b6130b6565b8181529150602080830190848101818402860182018710156126a557600080fd5b60005b848110156126c4578151845292820192908201906001016126a8565b505050505092915050565b6000602082840312156126e0578081fd5b81356123ac81613109565b6000602082840312156126fc578081fd5b81516123ac81613109565b600080600080600060a0868803121561271e578081fd5b853561272981613109565b9450602086013561273981613109565b94979496505050506040830135926060810135926080909101359150565b60008060008060008060c0878903121561276f578081fd5b863561277a81613109565b955060208701359450604087013561279181613109565b935060608701356127a181613109565b925060808701356127b181613109565b915060a08701356127c181613109565b809150509295509295509295565b6000806000606084860312156127e3578283fd5b835167ffffffffffffffff808211156127fa578485fd5b818601915086601f83011261280d578485fd5b815161281b61267f826130dd565b80828252602080830192508086018b82838702890101111561283b57898afd5b8996505b8487101561286657805161285281613109565b84526001969096019592810192810161283f565b50890151909750935050508082111561287d578384fd5b5061288a86828701612661565b925050604084015190509250925092565b6000602082840312156128ac578081fd5b815180151581146123ac578182fd5b6000602082840312156128cc578081fd5b5035919050565b6000602082840312156128e4578081fd5b5051919050565b600080604083850312156128fd578182fd5b50508035926020909101359150565b600060a0828403121561291d578081fd5b61292760a06130b6565b825161293281613109565b8152602083015161294281613109565b6020820152604083015160038110612958578283fd5b604082015260608301516005811061296e578283fd5b60608201526080928301519281019290925250919050565b60008082840360e0811215612999578283fd5b60c08112156129a6578283fd5b506129b160c06130b6565b83356129bc81613109565b808252506020840135602082015260408401356040820152606084013560608201526080840135608082015260a084013560a08201528092505060c0830135612a0481613109565b809150509250929050565b600060208284031215612a20578081fd5b815160ff811681146123ac578182fd5b6001600160a01b03169052565b6000815180845260208085019450808401835b83811015612a6c57815187529582019590820190600101612a50565b509495945050505050565b15159052565b60008151808452815b81811015612aa257602081850181015186830182015201612a86565b81811115612ab35782602083870101525b50601f01601f19169290920160200192915050565b918252602082015260400190565b6001600160a01b0391909116815260200190565b6001600160a01b039384168152919092166020820152604081019190915260600190565b6001600160a01b03998a168152978916602089015260408801969096529387166060870152608086019290925290941660a084015260c083019390935260e08201929092526101008101919091526101200190565b6001600160a01b03929092168252602082015260400190565b6020808252825182820181905260009190848201906040850190845b81811015612bb457835183529284019291840191600101612b98565b50909695505050505050565b602080825282518282018190526000919060409081850190868401855b82811015612c3c57815180516001600160a01b0316855286810151612c0488870182612a30565b5085810151612c1587870182612a30565b50606081810151908601526080908101519085015260a09093019290850190600101612bdd565b5091979650505050505050565b90815260200190565b9889526001600160a01b0397881660208a01529587166040890152939095166060870152608086019190915260a085015260c084019290925260e08301919091526101008201526101200190565b8481526001600160a01b038481166020808401919091529084166040830152608060608301819052835181840191909152805161010084018190526000929182019083906101208601905b80831015612d1357612cfd84516130fd565b8252928401926001929092019190840190612ceb565b50838701519350607f199250828682030160a0870152612d338185612a3d565b935050506040850151818584030160c0860152612d508382612a7d565b925050506060840151612d6660e0850182612a77565b509695505050505050565b9283526020830191909152604082015260600190565b600060048410612d9357fe5b83825260406020830152612daa6040830184612a3d565b949350505050565b60208082526019908201527f536574746c656d656e742073746174757320696e76616c696400000000000000604082015260600190565b6020808252602e908201527f496e73756666696369656e742062616c616e63657320746f206372656174652060408201526d1cd958dbdb99185c9e481c1bdbdb60921b606082015260800190565b60208082526043908201527f536574746c656d656e742072657175657374732063616e206f6e6c792062652060408201527f666574636865642062792061206465706f736974617279207061727469636970606082015262185b9d60ea1b608082015260a00190565b60208082526026908201527f536574746c656d656e74207265717565737465642066726f6d20696e76616c6960408201526519081c1bdbdb60d21b606082015260800190565b60208082526023908201527f556e617574686f72697a65642066656520636f6c6c656374696f6e2072657175604082015262195cdd60ea1b606082015260800190565b60c0808252601390820152722b32b934b334b2b2102837b7b6102a37b5b2b760691b60e0820152610100602082018190526003908201526215941560ea1b6101208201526001600160a01b039485166040820152929093166060830152608082015260a08101919091526101400190565b60208082526037908201527f556e617574686f72697a6564206163636573732c206f6e6c792069737375652060408201527f6d616e61676572732061726520617574686f72697a6564000000000000000000606082015260800190565b60006101a08201905061300b828451612a30565b602083015161301d6020840182612a30565b5060408301516130306040840182612a30565b50606083015160608301526080830151608083015260a083015161305760a0840182612a30565b5060c083015160c083015260e083015160e08301526101008084015181840152506101208084015181840152506101408084015161309782850182612a30565b5050610160838101519083015261018092830151929091019190915290565b60405181810167ffffffffffffffff811182821017156130d557600080fd5b604052919050565b600067ffffffffffffffff8211156130f3578081fd5b5060209081020190565b6001600160a01b031690565b6001600160a01b038116811461311e57600080fd5b5056fea26469706673582212202d2269dfe43fcc424c457551ed8a494094dc9cf6d0abb044a4ec89aec998471b64736f6c63430007010033",
  "immutableReferences": {},
  "source": "// External interface for settlement of trades\n// (c) Kallol Borah, 2022\n// \"SPDX-License-Identifier: BUSL1.1\"\n\npragma solidity 0.7.1;\npragma experimental ABIEncoderV2;\n\nimport \"./interfaces/ISettlor.sol\";\nimport \"./interfaces/IOrder.sol\";\nimport \"./interfaces/ITrade.sol\";\nimport \"./interfaces/IFactory.sol\";\nimport \"./interfaces/ISecurity.sol\";\nimport \"./interfaces/VerifiedClient.sol\";\nimport \"./interfaces/ISecondaryIssuePool.sol\";\nimport \"./interfaces/ISecondaryIssuePoolFactory.sol\";\n\nimport \"@balancer-labs/v2-solidity-utils/contracts/math/Math.sol\";\nimport \"@balancer-labs/v2-solidity-utils/contracts/math/FixedPoint.sol\";\nimport \"@balancer-labs/v2-solidity-utils/contracts/openzeppelin/ERC20.sol\";\nimport \"@balancer-labs/v2-solidity-utils/contracts/openzeppelin/IERC20.sol\";\nimport \"@balancer-labs/v2-solidity-utils/contracts/openzeppelin/Ownable.sol\";\n \ncontract SecondaryIssueManager is ISettlor, Ownable {\n\n    using Math for uint256;\n    using FixedPoint for uint256;\n\n    // balancer variables\n    address private factory;    \n\n    address private vault;\n\n    //fee\n    uint256 private fee;\n\n    // mapping settlement ref to trade execution data\n    mapping(bytes32 => ISettlor.settlement) settlements;\n\n    //mapping depository participants to trades they are part of\n    mapping(bytes32 => bytes32[]) private trades;\n\n    //mapping pool address to pool id\n    mapping(address => bytes32) private pools;\n\n    //mapping pool id to security token traded\n    mapping(bytes32 => address) private poolSecurity;\n\n    //mapping pool id to investors\n    mapping(bytes32 => subscriptions[]) internal investors; \n\n    // mapping token address to issuing fee collected\n    mapping(address => uint256) private fees;\n\n    // reference to the Verified Client contract\n    VerifiedClient private client;\n\n    // reference to the Verified factory contract that this asset manager checks security token issues with\n    IFactory private products;\n\n    address private distribution;\n\n    uint256 private constant _INITIAL_BPT_SUPPLY = 2**(112) - 1;\n    uint256 private constant _DEFAULT_MINIMUM_BPT = 1e6;\n\n    event tradeSettled( \n                        bytes32 indexed poolid,\n                        address transferor,\n                        address transferee,\n                        uint256 unitsToTransfer,\n                        address security,\n                        uint256 price,\n                        address currency,\n                        bytes32 settlementStatus,\n                        bytes32 tradeRef,\n                        uint256 fee\n                    );\n\n    event subscribers(bytes32 poolId, address party, address counterparty, \n                        address indexed securityTraded, address currencySettled, uint256 amount, uint256 price,\n                        bytes32 tradeRef, bytes32 DPID, uint256 timestamp);\n\n    modifier onlyIssueManager(address sender, address security){\n        address DP = products.getDP(security);\n        require(DP==sender, \"Unauthorized access, only issue managers are authorized\");\n        _;\n    }\n\n    /**\n        Initializes this asset management contract\n        @param  _factory            reference to the secondary issue pool factory contract\n        @param  _issueFeePercentage  percentage of trading fee to be charged by the asset manager\n        @param  _client             address of Verified client contract\n        @param  _vault              address of balancer vault\n     */\n    function initialize(address _factory, uint256 _issueFeePercentage, address _client, address _vault, address _distribution, address _products) onlyOwner public {\n        factory = _factory;\n        fee = _issueFeePercentage;\n        client = VerifiedClient(_client);\n        vault = _vault;\n        products = IFactory(_products);\n        distribution = _distribution;\n    }\n\n    /**\n        Joins existing (secondary) tokenized assets into pool by primary issue token holders\n        @param  security            reference to asset issued\n        @param  currency            reference to cash (settlement) token\n        @param  securityAmount      amount of security to issue\n        @param  minSecurityOrder    minimum order size of securities issued in pool\n        @param  cashAmount          amount of currency issued in pool\n     */\n    function issueSecondary(address security, address currency, uint256 securityAmount, uint256 minSecurityOrder, uint256 cashAmount) override onlyIssueManager(msg.sender, security) external {\n        require(IERC20(security).balanceOf(msg.sender)>=securityAmount && securityAmount>=minSecurityOrder\n                && IERC20(currency).balanceOf(msg.sender)>=cashAmount\n                , \"Insufficient balances to create secondary pool\");\n        ERC20(currency).transferFrom(msg.sender, address(this), cashAmount);\n        ERC20(security).transferFrom(msg.sender, address(this), securityAmount);  \n        ISecurity(security).whiteList(vault, securityAmount);      \n        address pool = ISecondaryIssuePoolFactory(factory).create(\n            'Verified Pool Token',\n            'VPT',\n            security,\n            currency,\n            minSecurityOrder,\n            fee\n        ); \n        bytes32 poolId = ISecondaryIssuePool(pool).getPoolId();  \n        poolSecurity[poolId] = security; \n        pools[pool] = poolId;\n        // join the pool here                \n        (IERC20[] memory tokens, , ) = IVault(vault).getPoolTokens(poolId);\n        IAsset[] memory assets = _convertERC20sToAssets(tokens);\n        uint256[] memory maxAmountsIn = new uint256[](tokens.length);\n        ERC20(currency).approve(vault, cashAmount);\n        ERC20(security).approve(vault, securityAmount);\n        for (uint256 t; t < tokens.length; t++) {\n            if(tokens[t]==IERC20(security))\n                maxAmountsIn[t] = securityAmount;\n            else if(tokens[t]==IERC20(currency))\n                maxAmountsIn[t] = cashAmount;\n            else \n                maxAmountsIn[t] = Math.sub(_INITIAL_BPT_SUPPLY, _DEFAULT_MINIMUM_BPT);\n        }\n        IVault.JoinPoolRequest memory request = IVault.JoinPoolRequest({\n            assets: assets,\n            maxAmountsIn: maxAmountsIn,\n            userData: abi.encode(JoinKind.INIT, maxAmountsIn),\n            fromInternalBalance: false\n        });         \n        IVault(vault).joinPool(poolId, address(this), address(this), request);\n    }\n    \n    /**\n        Used by Secondary pools to request settlement for trades\n        @param  tradeToReport     data structure holding order matching data\n     */\n    function requestSettlement(ITrade.trade memory tradeToReport, IOrder orderbook) override external {\n        require(pools[msg.sender]!=\"\", \"Settlement requested from invalid pool\");\n        IOrder.order memory orderByParty = orderbook.getOrder(tradeToReport.partyRef);\n        IOrder.order memory orderByCounterparty = orderbook.getOrder(tradeToReport.counterpartyRef);\n        address securityTraded = orderbook.getSecurity(); \n        address currencySettled = orderbook.getCurrency();\n        address party = orderByParty.tokenIn==securityTraded ? orderByParty.party : orderByCounterparty.party;\n        address counterparty = orderByCounterparty.tokenIn==currencySettled ? orderByCounterparty.party : orderByParty.party;\n        uint256 amount = tradeToReport.securityTraded; \n        bytes32 _DPID = getTransferAgent(securityTraded);\n        uint256 price = Math.divDown(tradeToReport.currencyTraded, tradeToReport.securityTraded);\n        ISettlor.settlement memory tradeToSettle = ISettlor.settlement({\n            transferor: party,\n            transferee: counterparty,\n            security: securityTraded,\n            status: \"Pending\",\n            currency: currencySettled,\n            price: _downscaleDown(price, _computeScalingFactor(IERC20(currencySettled))),\n            unitsToTransfer: amount,\n            consideration: _upscale(tradeToReport.currencyTraded, _computeScalingFactor(IERC20(currencySettled))),\n            executionDate: tradeToReport.dt,\n            partyRef: orderByParty.tokenIn==securityTraded ? tradeToReport.partyRef : tradeToReport.counterpartyRef,\n            counterpartyRef: orderByCounterparty.tokenIn==currencySettled ? tradeToReport.counterpartyRef : tradeToReport.partyRef,\n            DPID: _DPID,\n            orderPool: orderbook\n        });\n        bytes32 ref = keccak256(abi.encodePacked(tradeToReport.partyRef, tradeToReport.counterpartyRef));\n        if(settlements[ref].transferor==address(0x0)){\n            settlements[ref] = tradeToSettle;\n            ISettlor.subscriptions memory subscription = ISettlor.subscriptions({\n                investor: counterparty,\n                asset: securityTraded,\n                currency: currencySettled, \n                amount: amount,   \n                price: _downscaleDown(price, _computeScalingFactor(IERC20(currencySettled)))\n            });\n            bytes32 poolId = orderbook.getPoolId();\n            investors[poolId].push(subscription);\n            emit subscribers(poolId, party, counterparty, securityTraded, currencySettled, amount, subscription.price, ref, tradeToSettle.DPID, block.timestamp);\n            trades[tradeToSettle.DPID].push(ref);\n            if(products.getDP(securityTraded)==address(0x0))\n                setSettlement(ref, \"Confirm\");\n        }\n    }\n    \n    /**\n        Fetches trade settlement requests for depository participant\n        @param  dpid         identifier of depository participant (eg, transfer agent) that is authorized to settle the asset \n     */\n    function getSettlementRequests(bytes32 dpid, bytes32 poolId) override onlyIssueManager(msg.sender, poolSecurity[poolId]) external view returns(bytes32[] memory){\n        /*if(poolId!=\"\"){\n            bytes32[] memory refs = new bytes32[](trades[dpid].length);\n            uint j=0;\n            for(uint256 i=0; i<trades[dpid].length; i++){\n                 IOrder ob = settlements[trades[dpid][i]].orderPool;\n                 bytes32 poolid = ob.getPoolId();\n                 if(poolid==poolId){\n                     refs[j] == trades[dpid][i];\n                     j++;\n                 }\n            }\n            return refs;\n        }\n        else{*/\n            return trades[dpid];\n        //}\n    }\n\n    /**\n        Fetches a specific trade settlement request        \n        @param  ref         reference to the trade\n     */\n    function getSettlementRequest(bytes32 ref) override external view returns(settlement memory){\n        require(ref!=\"\", \"Settlement requests can only be fetched by a depositary participant\"); \n        return settlements[ref];\n    }\n    \n    /**\n        Sets settlement status for trades executed\n        @param  ref         reference to the trade executed\n        @param  status      settlement status\n     */\n    function setSettlementStatus(bytes32 ref, bytes32 status) override onlyIssueManager(msg.sender, settlements[ref].security) external{\n        setSettlement(ref, status);\n    }\n\n    function setSettlement(bytes32 ref, bytes32 status) private {\n        bytes32 DPID = settlements[ref].DPID;\n        bool settled = false;\n        require(status==\"Confirm\" || status==\"Reject\", \"Settlement status invalid\");\n        fee = FixedPoint.mulDown(settlements[ref].consideration, fee);\n        uint256 pay = FixedPoint.divDown(fee, _computeScalingFactor(IERC20(settlements[ref].currency)));\n        if(status==\"Confirm\" && settlements[ref].status!=\"Confirm\" && settlements[ref].status!=\"Fail\"){            \n            fees[settlements[ref].currency] = Math.add(fees[settlements[ref].currency], pay);\n            if(IERC20(settlements[ref].currency).transferFrom(settlements[ref].transferor, address(this), pay)){                \n                settlements[ref].orderPool.orderFilled(settlements[ref].partyRef, settlements[ref].counterpartyRef, settlements[ref].executionDate);\n                for(uint i=0; i<trades[DPID].length; i++){\n                    if(trades[DPID][i]==ref){\n                        if(i==trades[DPID].length-1)\n                            delete trades[DPID][i];\n                        else\n                            trades[DPID][i] = trades[DPID][i+1];\n                    }\n                }\n                settlements[ref].status = \"Confirm\";    \n                settled = true;            \n            }\n            else{\n                uint256 consideration = _downscaleDown(settlements[ref].consideration, _computeScalingFactor(IERC20(settlements[ref].currency)));\n                settlements[ref].orderPool.revertTrade(settlements[ref].partyRef, settlements[ref].unitsToTransfer, settlements[ref].price);\n                settlements[ref].orderPool.revertTrade(settlements[ref].counterpartyRef, consideration, settlements[ref].price);\n                IERC20(settlements[ref].currency).transferFrom(settlements[ref].transferor, settlements[ref].transferee, consideration);\n                IERC20(settlements[ref].security).transferFrom(settlements[ref].transferee, settlements[ref].transferor, settlements[ref].unitsToTransfer);\n                settlements[ref].status = \"Fail\";\n                settled = true;\n            }\n        }\n        else if(status==\"Reject\" && settlements[ref].status!=\"Reject\"){\n            uint256 consideration = _downscaleDown(settlements[ref].consideration, _computeScalingFactor(IERC20(settlements[ref].currency)));\n            IERC20(settlements[ref].currency).transferFrom(settlements[ref].transferor, settlements[ref].transferee, consideration);\n            IERC20(settlements[ref].security).transferFrom(settlements[ref].transferee, settlements[ref].transferor, settlements[ref].unitsToTransfer);\n            settlements[ref].status = \"Reject\";\n            settled == true;\n        }\n        if(settled){\n            bytes32 poolId = settlements[ref].orderPool.getPoolId();\n            emit tradeSettled(\n                            poolId,\n                            settlements[ref].transferor, \n                            settlements[ref].transferee, \n                            settlements[ref].unitsToTransfer,\n                            settlements[ref].security,\n                            settlements[ref].price,\n                            settlements[ref].currency,\n                            settlements[ref].status,\n                            ref,\n                            pay\n                        );  \n        }          \n    }\n\n    /**\n        Retrieve investors in secondary pools\n        @param  poolId  pool identity\n     */\n    function getSubscribers(bytes32 poolId) override onlyIssueManager(msg.sender, poolSecurity[poolId]) external view returns(ISettlor.subscriptions[] memory){\n        return investors[poolId];\n    }\n\n    /**\n        Gets transfer agent for the security in the trade\n        @param  security  address of security traded\n     */\n    function getTransferAgent(address security) private view returns(bytes32){\n        address dp = products.getDP(security);\n        return(client.getTransferAgent(dp));\n    } \n\n    /**\n        Fetch trading fee collected in Balancer vault\n        @param  _token  address of token in which fee is collected\n     */\n    function getTradingFeeCollected(address _token) override external returns(uint256){\n        require(msg.sender==distribution, \"Unauthorized fee collection request\");\n        uint256 feeCollected = fees[_token];\n        IERC20(_token).transfer(distribution, feeCollected);\n        fees[_token] = Math.sub(fees[_token], feeCollected);\n        return feeCollected;\n    }   \n\n    /**\n     * @dev This helper function is a fast and cheap way to convert between IERC20[] and IAsset[] types\n     */\n    function _convertERC20sToAssets(IERC20[] memory tokens) internal pure returns (IAsset[] memory assets) {\n        // solhint-disable-next-line no-inline-assembly\n        assembly {\n            assets := tokens\n        }\n    }\n\n    /**\n     * @dev Returns a scaling factor that, when multiplied to a token amount for `token`, normalizes its balance as if\n     * it had 18 decimals.\n     */\n    function _computeScalingFactor(IERC20 token) internal view returns (uint256) {\n        // Tokens that don't implement the `decimals` method are not supported.\n        uint256 tokenDecimals = ERC20(address(token)).decimals();\n\n        // Tokens with more than 18 decimals are not supported.\n        uint256 decimalsDifference = Math.sub(18, tokenDecimals);\n        return FixedPoint.ONE * 10**decimalsDifference;\n    }\n\n    /**\n     * @dev Reverses the `scalingFactor` applied to `amount`, resulting in a smaller or equal value depending on\n     * whether it needed scaling or not. The result is rounded down.\n     */\n    function _downscaleDown(uint256 amount, uint256 scalingFactor) internal pure returns (uint256) {\n        return FixedPoint.divDown(amount, scalingFactor);\n    }\n\n    /**\n     * @dev Applies `scalingFactor` to `amount`, resulting in a larger or equal value depending on whether it needed\n     * scaling or not.\n     */\n    function _upscale(uint256 amount, uint256 scalingFactor) internal pure returns (uint256) {\n        // Upscale rounding wouldn't necessarily always go in the same direction: in a swap for example the balance of\n        // token in should be rounded up, and that of token out rounded down. This is the only place where we round in\n        // the same direction for all amounts, as the impact of this rounding is expected to be minimal (and there's no\n        // rounding error unless `_scalingFactor()` is overriden).\n        return FixedPoint.mulDown(amount, scalingFactor);\n    }\n\n}",
  "sourcePath": "D:\\Code\\verified-balancer\\contracts\\SecondaryIssueManager.sol",
  "compiler": {
    "name": "solc",
    "version": "0.7.1+commit.f4a555be.Emscripten.clang"
  },
  "schemaVersion": "3.4.3",
  "updatedAt": "2023-04-09T01:30:26.685Z",
  "networkType": "ethereum",
  "devdoc": {
    "kind": "dev",
    "methods": {
      "getSettlementRequest(bytes32)": {
        "params": {
          "ref": "reference to the trade"
        }
      },
      "getSettlementRequests(bytes32,bytes32)": {
        "params": {
          "dpid": "identifier of depository participant (eg, transfer agent) that is authorized to settle the asset "
        }
      },
      "getSubscribers(bytes32)": {
        "params": {
          "poolId": "pool identity"
        }
      },
      "getTradingFeeCollected(address)": {
        "params": {
          "_token": "address of token in which fee is collected"
        }
      },
      "initialize(address,uint256,address,address,address,address)": {
        "params": {
          "_client": "address of Verified client contract",
          "_factory": "reference to the secondary issue pool factory contract",
          "_issueFeePercentage": "percentage of trading fee to be charged by the asset manager",
          "_vault": "address of balancer vault"
        }
      },
      "issueSecondary(address,address,uint256,uint256,uint256)": {
        "params": {
          "cashAmount": "amount of currency issued in pool",
          "currency": "reference to cash (settlement) token",
          "minSecurityOrder": "minimum order size of securities issued in pool",
          "security": "reference to asset issued",
          "securityAmount": "amount of security to issue"
        }
      },
      "owner()": {
        "details": "Returns the address of the current owner."
      },
      "renounceOwnership()": {
        "details": "Leaves the contract without owner. It will not be possible to call `onlyOwner` functions anymore. Can only be called by the current owner. NOTE: Renouncing ownership will leave the contract without an owner, thereby removing any functionality that is only available to the owner."
      },
      "requestSettlement((address,bytes32,bytes32,uint256,uint256,uint256),address)": {
        "params": {
          "tradeToReport": "data structure holding order matching data"
        }
      },
      "setSettlementStatus(bytes32,bytes32)": {
        "params": {
          "ref": "reference to the trade executed",
          "status": "settlement status"
        }
      },
      "transferOwnership(address)": {
        "details": "Transfers ownership of the contract to a new account (`newOwner`). Can only be called by the current owner."
      }
    },
    "version": 1
  },
  "userdoc": {
    "kind": "user",
    "methods": {
      "getSettlementRequest(bytes32)": {
        "notice": "Fetches a specific trade settlement request        "
      },
      "getSettlementRequests(bytes32,bytes32)": {
        "notice": "Fetches trade settlement requests for depository participant"
      },
      "getSubscribers(bytes32)": {
        "notice": "Retrieve investors in secondary pools"
      },
      "getTradingFeeCollected(address)": {
        "notice": "Fetch trading fee collected in Balancer vault"
      },
      "initialize(address,uint256,address,address,address,address)": {
        "notice": "Initializes this asset management contract"
      },
      "issueSecondary(address,address,uint256,uint256,uint256)": {
        "notice": "Joins existing (secondary) tokenized assets into pool by primary issue token holders"
      },
      "requestSettlement((address,bytes32,bytes32,uint256,uint256,uint256),address)": {
        "notice": "Used by Secondary pools to request settlement for trades"
      },
      "setSettlementStatus(bytes32,bytes32)": {
        "notice": "Sets settlement status for trades executed"
      }
    },
    "version": 1
  }
}