{
  "contractName": "SecondaryIssueManager",
  "abi": [
    {
      "anonymous": false,
      "inputs": [
        {
          "indexed": true,
          "internalType": "address",
          "name": "previousOwner",
          "type": "address"
        },
        {
          "indexed": true,
          "internalType": "address",
          "name": "newOwner",
          "type": "address"
        }
      ],
      "name": "OwnershipTransferred",
      "type": "event"
    },
    {
      "anonymous": false,
      "inputs": [
        {
          "indexed": false,
          "internalType": "uint256",
          "name": "consideration",
          "type": "uint256"
        },
        {
          "indexed": false,
          "internalType": "uint256",
          "name": "fee",
          "type": "uint256"
        },
        {
          "indexed": false,
          "internalType": "uint256",
          "name": "toPay",
          "type": "uint256"
        }
      ],
      "name": "payFees",
      "type": "event"
    },
    {
      "anonymous": false,
      "inputs": [
        {
          "indexed": false,
          "internalType": "address",
          "name": "platform",
          "type": "address"
        },
        {
          "indexed": false,
          "internalType": "bytes32",
          "name": "poolId",
          "type": "bytes32"
        },
        {
          "indexed": false,
          "internalType": "address",
          "name": "counterparty",
          "type": "address"
        },
        {
          "indexed": false,
          "internalType": "address",
          "name": "securityTraded",
          "type": "address"
        },
        {
          "indexed": false,
          "internalType": "address",
          "name": "currencySettled",
          "type": "address"
        },
        {
          "indexed": false,
          "internalType": "uint256",
          "name": "amount",
          "type": "uint256"
        },
        {
          "indexed": false,
          "internalType": "uint256",
          "name": "price",
          "type": "uint256"
        }
      ],
      "name": "subscribers",
      "type": "event"
    },
    {
      "anonymous": false,
      "inputs": [
        {
          "indexed": true,
          "internalType": "address",
          "name": "transferor",
          "type": "address"
        },
        {
          "indexed": true,
          "internalType": "address",
          "name": "transferee",
          "type": "address"
        },
        {
          "indexed": false,
          "internalType": "uint256",
          "name": "unitsToTransfer",
          "type": "uint256"
        },
        {
          "indexed": false,
          "internalType": "address",
          "name": "security",
          "type": "address"
        },
        {
          "indexed": false,
          "internalType": "uint256",
          "name": "price",
          "type": "uint256"
        },
        {
          "indexed": false,
          "internalType": "address",
          "name": "currency",
          "type": "address"
        }
      ],
      "name": "tradeSettled",
      "type": "event"
    },
    {
      "inputs": [],
      "name": "owner",
      "outputs": [
        {
          "internalType": "address",
          "name": "",
          "type": "address"
        }
      ],
      "stateMutability": "view",
      "type": "function",
      "constant": true
    },
    {
      "inputs": [],
      "name": "renounceOwnership",
      "outputs": [],
      "stateMutability": "nonpayable",
      "type": "function"
    },
    {
      "inputs": [
        {
          "internalType": "address",
          "name": "newOwner",
          "type": "address"
        }
      ],
      "name": "transferOwnership",
      "outputs": [],
      "stateMutability": "nonpayable",
      "type": "function"
    },
    {
      "inputs": [
        {
          "internalType": "address",
          "name": "_factory",
          "type": "address"
        },
        {
          "internalType": "uint256",
          "name": "_issueFeePercentage",
          "type": "uint256"
        },
        {
          "internalType": "address",
          "name": "_client",
          "type": "address"
        },
        {
          "internalType": "address",
          "name": "_vault",
          "type": "address"
        },
        {
          "internalType": "address",
          "name": "_distribution",
          "type": "address"
        },
        {
          "internalType": "address",
          "name": "_products",
          "type": "address"
        }
      ],
      "name": "initialize",
      "outputs": [],
      "stateMutability": "nonpayable",
      "type": "function"
    },
    {
      "inputs": [
        {
          "internalType": "address",
          "name": "_signer",
          "type": "address"
        }
      ],
      "name": "setSigner",
      "outputs": [],
      "stateMutability": "nonpayable",
      "type": "function"
    },
    {
      "inputs": [
        {
          "internalType": "address",
          "name": "security",
          "type": "address"
        },
        {
          "internalType": "address",
          "name": "currency",
          "type": "address"
        },
        {
          "internalType": "uint256",
          "name": "securityAmount",
          "type": "uint256"
        },
        {
          "internalType": "uint256",
          "name": "minSecurityOrder",
          "type": "uint256"
        },
        {
          "internalType": "uint256",
          "name": "cashAmount",
          "type": "uint256"
        },
        {
          "internalType": "bytes32",
          "name": "_hashedMessage",
          "type": "bytes32"
        },
        {
          "internalType": "uint8",
          "name": "_v",
          "type": "uint8"
        },
        {
          "internalType": "bytes32",
          "name": "_r",
          "type": "bytes32"
        },
        {
          "internalType": "bytes32",
          "name": "_s",
          "type": "bytes32"
        }
      ],
      "name": "issueSecondary",
      "outputs": [],
      "stateMutability": "nonpayable",
      "type": "function"
    },
    {
      "inputs": [
        {
          "components": [
            {
              "internalType": "bytes32",
              "name": "partyRef",
              "type": "bytes32"
            },
            {
              "internalType": "address",
              "name": "partyAddress",
              "type": "address"
            },
            {
              "internalType": "bytes32",
              "name": "counterpartyRef",
              "type": "bytes32"
            },
            {
              "internalType": "uint256",
              "name": "price",
              "type": "uint256"
            },
            {
              "internalType": "uint256",
              "name": "dt",
              "type": "uint256"
            },
            {
              "internalType": "uint256",
              "name": "securityTraded",
              "type": "uint256"
            },
            {
              "internalType": "uint256",
              "name": "currencyTraded",
              "type": "uint256"
            }
          ],
          "internalType": "struct ITrade.trade",
          "name": "tradeToReport",
          "type": "tuple"
        },
        {
          "internalType": "contract IOrder",
          "name": "orderbook",
          "type": "address"
        }
      ],
      "name": "requestSettlement",
      "outputs": [],
      "stateMutability": "nonpayable",
      "type": "function"
    },
    {
      "inputs": [
        {
          "internalType": "bytes32",
          "name": "dpid",
          "type": "bytes32"
        },
        {
          "internalType": "bytes32",
          "name": "poolId",
          "type": "bytes32"
        }
      ],
      "name": "getSettlementRequests",
      "outputs": [
        {
          "internalType": "bytes32[]",
          "name": "",
          "type": "bytes32[]"
        }
      ],
      "stateMutability": "view",
      "type": "function",
      "constant": true
    },
    {
      "inputs": [
        {
          "internalType": "bytes32",
          "name": "ref",
          "type": "bytes32"
        }
      ],
      "name": "getSettlementRequest",
      "outputs": [
        {
          "components": [
            {
              "internalType": "address",
              "name": "transferor",
              "type": "address"
            },
            {
              "internalType": "address",
              "name": "transferee",
              "type": "address"
            },
            {
              "internalType": "address",
              "name": "security",
              "type": "address"
            },
            {
              "internalType": "bytes32",
              "name": "status",
              "type": "bytes32"
            },
            {
              "internalType": "bytes32",
              "name": "transferorDPID",
              "type": "bytes32"
            },
            {
              "internalType": "bytes32",
              "name": "transfereeDPID",
              "type": "bytes32"
            },
            {
              "internalType": "address",
              "name": "currency",
              "type": "address"
            },
            {
              "internalType": "uint256",
              "name": "price",
              "type": "uint256"
            },
            {
              "internalType": "uint256",
              "name": "askprice",
              "type": "uint256"
            },
            {
              "internalType": "uint256",
              "name": "unitsToTransfer",
              "type": "uint256"
            },
            {
              "internalType": "uint256",
              "name": "consideration",
              "type": "uint256"
            },
            {
              "internalType": "uint256",
              "name": "executionDate",
              "type": "uint256"
            },
            {
              "internalType": "contract IOrder",
              "name": "orderPool",
              "type": "address"
            },
            {
              "internalType": "bytes32",
              "name": "partyRef",
              "type": "bytes32"
            },
            {
              "internalType": "bytes32",
              "name": "counterpartyRef",
              "type": "bytes32"
            }
          ],
          "internalType": "struct ISettlor.settlement",
          "name": "",
          "type": "tuple"
        }
      ],
      "stateMutability": "view",
      "type": "function",
      "constant": true
    },
    {
      "inputs": [
        {
          "internalType": "bytes32",
          "name": "ref",
          "type": "bytes32"
        },
        {
          "internalType": "bytes32",
          "name": "status",
          "type": "bytes32"
        }
      ],
      "name": "setSettlementStatus",
      "outputs": [],
      "stateMutability": "nonpayable",
      "type": "function"
    },
    {
      "inputs": [
        {
          "internalType": "bytes32",
          "name": "poolId",
          "type": "bytes32"
        }
      ],
      "name": "getSubscribers",
      "outputs": [
        {
          "components": [
            {
              "internalType": "address",
              "name": "investor",
              "type": "address"
            },
            {
              "internalType": "address",
              "name": "asset",
              "type": "address"
            },
            {
              "internalType": "address",
              "name": "currency",
              "type": "address"
            },
            {
              "internalType": "uint256",
              "name": "amount",
              "type": "uint256"
            },
            {
              "internalType": "uint256",
              "name": "price",
              "type": "uint256"
            }
          ],
          "internalType": "struct ISettlor.subscriptions[]",
          "name": "",
          "type": "tuple[]"
        }
      ],
      "stateMutability": "view",
      "type": "function",
      "constant": true
    },
    {
      "inputs": [
        {
          "internalType": "bytes32",
          "name": "ref",
          "type": "bytes32"
        }
      ],
      "name": "getTrade",
      "outputs": [
        {
          "internalType": "uint256",
          "name": "",
          "type": "uint256"
        },
        {
          "internalType": "uint256",
          "name": "",
          "type": "uint256"
        }
      ],
      "stateMutability": "view",
      "type": "function",
      "constant": true
    },
    {
      "inputs": [
        {
          "internalType": "address",
          "name": "_token",
          "type": "address"
        }
      ],
      "name": "getTradingFeeCollected",
      "outputs": [
        {
          "internalType": "uint256",
          "name": "",
          "type": "uint256"
        }
      ],
      "stateMutability": "nonpayable",
      "type": "function"
    }
  ],
  "bytecode": "0x608060405234801561001057600080fd5b50600080546001600160a01b0319163390811782556040519091907f8be0079c531659141344cd1fd0a4f28419497f9722a3daafe3b4186f6b6457e0908290a36139898061005f6000396000f3fe608060405234801561001057600080fd5b50600436106100cf5760003560e01c80638da5cb5b1161008c578063bfa0caa711610066578063bfa0caa7146101a9578063c9fca3c7146101c9578063d504ca2d146101e9578063f2fde38b146101fc576100cf565b80638da5cb5b14610160578063a2dc2ab714610175578063a3b1379914610188576100cf565b806304967159146100d457806304aec4f9146100e95780632d916746146100fc5780636c19e78314610125578063715018a61461013857806379a7dc0e14610140575b600080fd5b6100e76100e2366004612f7e565b61020f565b005b6100e76100f7366004613117565b61106d565b61010f61010a366004612d2d565b61186b565b60405161011c91906133ac565b60405180910390f35b6100e7610133366004612d2d565b611972565b6100e76119b2565b61015361014e366004612f4e565b611a08565b60405161011c91906137af565b610168611af7565b60405161011c919061324b565b6100e7610183366004612dea565b611b06565b61019b610196366004612f4e565b611b78565b60405161011c92919061323d565b6101bc6101b7366004612f4e565b611b95565b60405161011c9190613323565b6101dc6101d7366004612f7e565b611e12565b60405161011c91906132df565b6100e76101f7366004612d65565b611f23565b6100e761020a366004612d2d565b6127ed565b600a54604051634427673360e01b815260009182916001600160a01b039091169063442767339061024490339060040161324b565b60606040518083038186803b15801561025c57600080fd5b505afa158015610270573d6000803e3d6000fd5b505050506040513d601f19601f820116820180604052508101906102949190612f9f565b50915091508161044560f41b146102c65760405162461bcd60e51b81526004016102bd9061362e565b60405180910390fd5b600084815260046020819052604090912090810154600590910154828214806102ee57508083145b61030a5760405162461bcd60e51b81526004016102bd9061353d565b8466436f6e6669726d60c81b148061032a5750846514995a9958dd60d21b145b6103465760405162461bcd60e51b81526004016102bd9061358e565b6000868152600460205260408120600a8101546006909101546103b49161038b91610383919061037e906001600160a01b031661286b565b612906565b600354612919565b6000898152600460205260409020600601546103af906001600160a01b031661286b565b61293d565b90508566436f6e6669726d60c81b1480156103ea575060008781526004602052604090206003015466436f6e6669726d60c81b14155b801561040e57506000878152600460205260409020600301546311985a5b60e21b14155b15610c93576000878152600460209081526040808320600601546001600160a01b0316835260099091529020546104459082612949565b600088815260046020818152604080842060068101546001600160a01b031685526009835281852095909555928b905252600a9091015460035491517f2c12bee2b721b184f53454a63a5d1e0435e8ecd2429bbd55093350dc18819ef3926104af92918590613486565b60405180910390a160008781526004602081905260409182902060060154915163095ea7b360e01b81526001600160a01b039092169163095ea7b3916104f99130918691016132c6565b602060405180830381600087803b15801561051357600080fd5b505af1158015610527573d6000803e3d6000fd5b505050506040513d601f19601f8201168201806040525081019061054b9190612f2e565b506000878152600460208190526040918290206006810154905492516323b872dd60e01b81526001600160a01b03918216936323b872dd936105959390911691309187910161325f565b602060405180830381600087803b1580156105af57600080fd5b505af11580156105c3573d6000803e3d6000fd5b505050506040513d601f19601f820116820180604052508101906105e79190612f2e565b156108dd57600087815260046020819052604091829020600c810154600d820154600e830154600b9093015494516381b5da1d60e01b81526001600160a01b03909216946381b5da1d9461063d94929301613486565b600060405180830381600087803b15801561065757600080fd5b505af115801561066b573d6000803e3d6000fd5b505050600088815260046020526040908190206001810154815460098301546002840154600785015460069095015495516001600160a01b039485169750928416957fdb2a2159f49495b71579b052eff497e50c97deeb73b10e7e46de4f669dcb58f7956106e3959394928416939092911690613882565b60405180910390a360005b6000848152600560205260409020548110156107d157600084815260056020526040902080548991908390811061072157fe5b906000526020600020015414156107c9576000848152600560205260409020546000190181141561077657600084815260056020526040902080548290811061076657fe5b60009182526020822001556107c9565b600084815260056020526040902080546001830190811061079357fe5b90600052602060002001546005600086815260200190815260200160002082815481106107bc57fe5b6000918252602090912001555b6001016106ee565b5060005b6000838152600560205260409020548110156108b857600083815260056020526040902080548991908390811061080857fe5b906000526020600020015414156108b0576000838152600560205260409020546000190181141561085d57600083815260056020526040902080548290811061084d57fe5b60009182526020822001556108b0565b600083815260056020526040902080546001830190811061087a57fe5b90600052602060002001546005600085815260200190815260200160002082815481106108a357fe5b6000918252602090912001555b6001016107d5565b50600087815260046020526040902066436f6e6669726d60c81b600390910155610c8e565b600087815260046020819052604091829020600c810154600d8201546009830154600b9093015494516315e319fb60e31b81526001600160a01b039092169463af18cfd894610932949293600192910161349c565b600060405180830381600087803b15801561094c57600080fd5b505af1158015610960573d6000803e3d6000fd5b5050506000888152600460208190526040808320600c810154600e820154600a830154600b9093015493516315e319fb60e31b81526001600160a01b03909216965063af18cfd8956109b8959194909290910161349c565b600060405180830381600087803b1580156109d257600080fd5b505af11580156109e6573d6000803e3d6000fd5b5050506000888152600460208190526040918290206006810154600a90910154925163095ea7b360e01b81526001600160a01b03909116935063095ea7b392610a31923092016132c6565b602060405180830381600087803b158015610a4b57600080fd5b505af1158015610a5f573d6000803e3d6000fd5b505050506040513d601f19601f82011682018060405250810190610a839190612f2e565b506000878152600460208190526040918290206002810154600990910154925163095ea7b360e01b81526001600160a01b039091169263095ea7b392610acc92309291016132c6565b602060405180830381600087803b158015610ae657600080fd5b505af1158015610afa573d6000803e3d6000fd5b505050506040513d601f19601f82011682018060405250810190610b1e9190612f2e565b50600087815260046020819052604091829020600681015481546001830154600a9093015494516323b872dd60e01b81526001600160a01b03928316956323b872dd95610b7595938516949093169290910161325f565b602060405180830381600087803b158015610b8f57600080fd5b505af1158015610ba3573d6000803e3d6000fd5b505050506040513d601f19601f82011682018060405250810190610bc79190612f2e565b5060008781526004602081905260409182902060028101546001820154825460099093015494516323b872dd60e01b81526001600160a01b03928316956323b872dd95610c1e95938516949093169290910161325f565b602060405180830381600087803b158015610c3857600080fd5b505af1158015610c4c573d6000803e3d6000fd5b505050506040513d601f19601f82011682018060405250810190610c709190612f2e565b5060008781526004602052604090206311985a5b60e21b6003909101555b611064565b856514995a9958dd60d21b141561106457600087815260046020819052604091829020600c810154600d8201546009830154600b9093015494516315e319fb60e31b81526001600160a01b039092169463af18cfd894610cf9949293600192910161349c565b600060405180830381600087803b158015610d1357600080fd5b505af1158015610d27573d6000803e3d6000fd5b5050506000888152600460208190526040808320600c810154600e820154600a830154600b9093015493516315e319fb60e31b81526001600160a01b03909216965063af18cfd895610d7f959194909290910161349c565b600060405180830381600087803b158015610d9957600080fd5b505af1158015610dad573d6000803e3d6000fd5b50505060008881526004602081905260409182902060068101548154600a90920154935163095ea7b360e01b81526001600160a01b03918216955063095ea7b394610dfd949390921692016132c6565b602060405180830381600087803b158015610e1757600080fd5b505af1158015610e2b573d6000803e3d6000fd5b505050506040513d601f19601f82011682018060405250810190610e4f9190612f2e565b5060008781526004602081905260409182902060028101546001820154600990920154935163095ea7b360e01b81526001600160a01b039182169463095ea7b394610ea094909316929091016132c6565b602060405180830381600087803b158015610eba57600080fd5b505af1158015610ece573d6000803e3d6000fd5b505050506040513d601f19601f82011682018060405250810190610ef29190612f2e565b50600087815260046020819052604091829020600681015481546001830154600a9093015494516323b872dd60e01b81526001600160a01b03928316956323b872dd95610f4995938516949093169290910161325f565b602060405180830381600087803b158015610f6357600080fd5b505af1158015610f77573d6000803e3d6000fd5b505050506040513d601f19601f82011682018060405250810190610f9b9190612f2e565b5060008781526004602081905260409182902060028101546001820154825460099093015494516323b872dd60e01b81526001600160a01b03928316956323b872dd95610ff295938516949093169290910161325f565b602060405180830381600087803b15801561100c57600080fd5b505af1158015611020573d6000803e3d6000fd5b505050506040513d601f19601f820116820180604052508101906110449190612f2e565b5060008781526004602052604090206514995a9958dd60d21b6003909101555b50505050505050565b336000908152600660205260409020546110995760405162461bcd60e51b81526004016102bd906136c9565b6110a1612b51565b8251604051632bbc239560e11b81526001600160a01b03841691635778472a916110ce91906004016133ac565b6101406040518083038186803b1580156110e757600080fd5b505afa1580156110fb573d6000803e3d6000fd5b505050506040513d601f19601f8201168201806040525081019061111f9190613058565b9050611129612b51565b6040808501519051632bbc239560e11b81526001600160a01b03851691635778472a9161115991906004016133ac565b6101406040518083038186803b15801561117257600080fd5b505afa158015611186573d6000803e3d6000fd5b505050506040513d601f19601f820116820180604052508101906111aa9190613058565b90506000836001600160a01b0316632541897f6040518163ffffffff1660e01b815260040160206040518083038186803b1580156111e757600080fd5b505afa1580156111fb573d6000803e3d6000fd5b505050506040513d601f19601f8201168201806040525081019061121f9190612d49565b90506000846001600160a01b0316636945c1fd6040518163ffffffff1660e01b815260040160206040518083038186803b15801561125c57600080fd5b505afa158015611270573d6000803e3d6000fd5b505050506040513d601f19601f820116820180604052508101906112949190612d49565b90506000826001600160a01b031685602001516001600160a01b031614806112d15750816001600160a01b031685604001516001600160a01b0316145b6112df578360e001516112e5565b8460e001515b90506000826001600160a01b031685602001516001600160a01b031614806113225750836001600160a01b031685604001516001600160a01b0316145b611330578560e00151611336565b8460e001515b60a089015190915060006113498461295b565b905060006113568461295b565b9050611360612ba8565b604051806101e00160405280876001600160a01b03168152602001866001600160a01b03168152602001896001600160a01b031681526020016650656e64696e6760c81b8152602001838152602001848152602001886001600160a01b031681526020018d606001518152602001611406896001600160a01b03168d602001516001600160a01b0316146113f8578e60a001516113fe565b8e60c001515b8760006129db565b81526020018581526020018d60c0015181526020018d6080015181526020018c6001600160a01b03168152602001896001600160a01b03168c602001516001600160a01b0316148061146d5750886001600160a01b03168c604001516001600160a01b0316145b61147b578d6040015161147e565b8d515b8152602001886001600160a01b03168b602001516001600160a01b031614806114bc5750896001600160a01b03168b604001516001600160a01b0316145b6114c7578d516114cd565b8d604001515b815250905060008c600001518d604001516040516020016114ef92919061323d565b60408051601f198184030181529181528151602092830120600081815260049093529120549091506001600160a01b031661185c57600081815260046020818152604092839020855181546001600160a01b03199081166001600160a01b039283161783559287015160018301805485169183169190911790559386015160028201805484169186169190911790556060860151600382015560808601519281019290925560a0850151600583015560c0850151600683018054831691851691909117905560e0850151600783015561010085015160088301556101208501516009830155610140850151600a830155610160850151600b830155610180850151600c830180549092169316929092179091556101a0830151600d8201556101c0830151600e90910155611621612c24565b6040518060a00160405280886001600160a01b031681526020018b6001600160a01b031681526020018a6001600160a01b031681526020018781526020018f60600151815250905060008d6001600160a01b03166338fff2d06040518163ffffffff1660e01b815260040160206040518083038186803b1580156116a457600080fd5b505afa1580156116b8573d6000803e3d6000fd5b505050506040513d601f19601f820116820180604052508101906116dc9190612f66565b90506008600082815260200190815260200160002082908060018154018082558091505060019003906000526020600020906005020160009091909190915060008201518160000160006101000a8154816001600160a01b0302191690836001600160a01b0316021790555060208201518160010160006101000a8154816001600160a01b0302191690836001600160a01b0316021790555060408201518160020160006101000a8154816001600160a01b0302191690836001600160a01b03160217905550606082015181600301556080820151816004015550507fc0ea3acdee5ec205e698bdc9d969e03ac2e95653b354ab866e6089c6ae15848330828a8e8e8c88608001516040516117f79796959493929190613283565b60405180910390a160808401805160009081526005602090815260408220805460018101825590835291200184905560a08501519051146118595760a08401516000908152600560209081526040822080546001810182559083529120018390555b50505b50505050505050505050505050565b600d546000906001600160a01b031633146118985760405162461bcd60e51b81526004016102bd9061376c565b6001600160a01b038083166000818152600960205260409081902054600d54915163a9059cbb60e01b8152909363a9059cbb926118dc9291169085906004016132c6565b602060405180830381600087803b1580156118f657600080fd5b505af115801561190a573d6000803e3d6000fd5b505050506040513d601f19601f8201168201806040525081019061192e9190612f2e565b506001600160a01b0383166000908152600960205260409020546119529082612a03565b6001600160a01b0384166000908152600960205260409020559050919050565b6119903361197e611af7565b6001600160a01b0316146101aa612a19565b600c80546001600160a01b0319166001600160a01b0392909216919091179055565b6119be3361197e611af7565b600080546040516001600160a01b03909116907f8be0079c531659141344cd1fd0a4f28419497f9722a3daafe3b4186f6b6457e0908390a3600080546001600160a01b0319169055565b611a10612ba8565b81611a2d5760405162461bcd60e51b81526004016102bd906135c5565b5060009081526004602081815260409283902083516101e08101855281546001600160a01b0390811682526001830154811693820193909352600282015483169481019490945260038101546060850152918201546080840152600582015460a08401526006820154811660c0840152600782015460e084015260088201546101008401526009820154610120840152600a820154610140840152600b820154610160840152600c82015416610180830152600d8101546101a0830152600e01546101c082015290565b6000546001600160a01b031690565b611b123361197e611af7565b600180546001600160a01b03199081166001600160a01b0398891617909155600395909555600a805486169487169490941790935560028054851692861692909217909155600b8054841692851692909217909155600d80549092169216919091179055565b600090815260046020526040902060078101546008909101549091565b600a54604051634427673360e01b815260609160009182916001600160a01b031690634427673390611bcb90339060040161324b565b60606040518083038186803b158015611be357600080fd5b505afa158015611bf7573d6000803e3d6000fd5b505050506040513d601f19601f82011682018060405250810190611c1b9190612f9f565b50915091508161044560f41b1480611c3a5750816420b236b4b760d91b145b80611d525750600b5460008581526007602052604090819020549051634a161b2760e01b815233926001600160a01b039081169263cd75c7d4928492634a161b2792611c8b9291169060040161324b565b60206040518083038186803b158015611ca357600080fd5b505afa158015611cb7573d6000803e3d6000fd5b505050506040513d601f19601f82011682018060405250810190611cdb9190612d49565b6040518263ffffffff1660e01b8152600401611cf7919061324b565b60206040518083038186803b158015611d0f57600080fd5b505afa158015611d23573d6000803e3d6000fd5b505050506040513d601f19601f82011682018060405250810190611d479190612d49565b6001600160a01b0316145b611d6e5760405162461bcd60e51b81526004016102bd9061370f565b600084815260086020908152604080832080548251818502810185019093528083529193909284015b82821015611e055760008481526020908190206040805160a0810182526005860290920180546001600160a01b039081168452600180830154821685870152600283015490911692840192909252600381015460608401526004015460808301529083529092019101611d97565b5050505092505050919050565b600a54604051634427673360e01b81526060916000916001600160a01b0390911690634427673390611e4890339060040161324b565b60606040518083038186803b158015611e6057600080fd5b505afa158015611e74573d6000803e3d6000fd5b505050506040513d601f19601f82011682018060405250810190611e989190612f9f565b505090508061044560f41b14611ec05760405162461bcd60e51b81526004016102bd906135c5565b60008481526005602090815260409182902080548351818402810184019094528084529091830182828015611f1457602002820191906000526020600020905b815481526020019060010190808311611f00575b50505050509150505b92915050565b600a54604051634427673360e01b81526000916001600160a01b031690634427673390611f5490339060040161324b565b60606040518083038186803b158015611f6c57600080fd5b505afa158015611f80573d6000803e3d6000fd5b505050506040513d601f19601f82011682018060405250810190611fa49190612f9f565b50509050878a6001600160a01b03166370a08231336040518263ffffffff1660e01b8152600401611fd5919061324b565b60206040518083038186803b158015611fed57600080fd5b505afa158015612001573d6000803e3d6000fd5b505050506040513d601f19601f820116820180604052508101906120259190612f66565b101580156120335750868810155b80156120bb57506040516370a0823160e01b815286906001600160a01b038b16906370a082319061206890339060040161324b565b60206040518083038186803b15801561208057600080fd5b505afa158015612094573d6000803e3d6000fd5b505050506040513d601f19601f820116820180604052508101906120b89190612f66565b10155b80156120dc57508061044560f41b14806120dc5750806420b236b4b760d91b145b6120f85760405162461bcd60e51b81526004016102bd9061367b565b6040516323b872dd60e01b81526001600160a01b038a16906323b872dd9061212890339030908b9060040161325f565b602060405180830381600087803b15801561214257600080fd5b505af1158015612156573d6000803e3d6000fd5b505050506040513d601f19601f8201168201806040525081019061217a9190612f2e565b506040516323b872dd60e01b81526001600160a01b038b16906323b872dd906121ab90339030908d9060040161325f565b602060405180830381600087803b1580156121c557600080fd5b505af11580156121d9573d6000803e3d6000fd5b505050506040513d601f19601f820116820180604052508101906121fd9190612f2e565b506000600160009054906101000a90046001600160a01b03166001600160a01b03166374dcc7a48c6001600160a01b03166306fdde036040518163ffffffff1660e01b815260040160006040518083038186803b15801561225d57600080fd5b505afa158015612271573d6000803e3d6000fd5b505050506040513d6000823e601f3d908101601f191682016040526122999190810190612fcc565b8d6001600160a01b03166395d89b416040518163ffffffff1660e01b815260040160006040518083038186803b1580156122d257600080fd5b505afa1580156122e6573d6000803e3d6000fd5b505050506040513d6000823e601f3d908101601f1916820160405261230e9190810190612fcc565b8e8e8d6003546040518763ffffffff1660e01b8152600401612335969594939291906134e9565b602060405180830381600087803b15801561234f57600080fd5b505af1158015612363573d6000803e3d6000fd5b505050506040513d601f19601f820116820180604052508101906123879190612d49565b90506000816001600160a01b03166338fff2d06040518163ffffffff1660e01b815260040160206040518083038186803b1580156123c457600080fd5b505afa1580156123d8573d6000803e3d6000fd5b505050506040513d601f19601f820116820180604052508101906123fc9190612f66565b90508b6007600083815260200190815260200160002060006101000a8154816001600160a01b0302191690836001600160a01b031602179055508060066000846001600160a01b03166001600160a01b03168152602001908152602001600020819055506060600260009054906101000a90046001600160a01b03166001600160a01b031663f94d4668836040518263ffffffff1660e01b81526004016124a391906133ac565b60006040518083038186803b1580156124bb57600080fd5b505afa1580156124cf573d6000803e3d6000fd5b505050506040513d6000823e601f3d908101601f191682016040526124f79190810190612e62565b50509050606061250682612a2b565b90506060825167ffffffffffffffff8111801561252257600080fd5b5060405190808252806020026020018201604052801561254c578160200160208202803683370190505b5090508d6001600160a01b031663095ea7b3600260009054906101000a90046001600160a01b03168d6040518363ffffffff1660e01b81526004016125929291906132c6565b602060405180830381600087803b1580156125ac57600080fd5b505af11580156125c0573d6000803e3d6000fd5b505050506040513d601f19601f820116820180604052508101906125e49190612f2e565b508e6001600160a01b031663095ea7b3600260009054906101000a90046001600160a01b03168f6040518363ffffffff1660e01b81526004016126289291906132c6565b602060405180830381600087803b15801561264257600080fd5b505af1158015612656573d6000803e3d6000fd5b505050506040513d601f19601f8201168201806040525081019061267a9190612f2e565b5060005b8351811015612721578f6001600160a01b031684828151811061269d57fe5b60200260200101516001600160a01b031614156126d2578d8282815181106126c157fe5b602002602001018181525050612719565b8e6001600160a01b03168482815181106126e857fe5b60200260200101516001600160a01b03161415612719578b82828151811061270c57fe5b6020026020010181815250505b60010161267e565b5061272a612c52565b60405180608001604052808481526020018381526020016000846040516020016127559291906134c6565b60408051808303601f190181529181529082526000602090920191909152600254905163172b958560e31b81529192506001600160a01b03169063b95cac28906127a99088903090819087906004016133b5565b600060405180830381600087803b1580156127c357600080fd5b505af11580156127d7573d6000803e3d6000fd5b5050505050505050505050505050505050505050565b6127f93361197e611af7565b6128106001600160a01b03821615156101ab612a19565b600080546040516001600160a01b03808516939216917f8be0079c531659141344cd1fd0a4f28419497f9722a3daafe3b4186f6b6457e091a3600080546001600160a01b0319166001600160a01b0392909216919091179055565b600080826001600160a01b031663313ce5676040518163ffffffff1660e01b815260040160206040518083038186803b1580156128a757600080fd5b505afa1580156128bb573d6000803e3d6000fd5b505050506040513d601f19601f820116820180604052508101906128df91906131a8565b60ff16905060006128f1601283612a03565b600a0a670de0b6b3a764000002949350505050565b60006129128383612a2e565b9392505050565b600082820261291284158061293657508385838161293357fe5b04145b6003612a19565b60006129128383612a5a565b60008282016129128482101583612a19565b600a5460405162157d5560e61b81526000916001600160a01b03169063055f55409061298b90859060040161324b565b60206040518083038186803b1580156129a357600080fd5b505afa1580156129b7573d6000803e3d6000fd5b505050506040513d601f19601f82011682018060405250810190611f1d9190612f66565b6000816129f1576129ec8484612aab565b6129fb565b6129fb8484612acb565b949350505050565b6000612a13838311156001612a19565b50900390565b81612a2757612a2781612afe565b5050565b90565b6000828202612a4884158061293657508385838161293357fe5b670de0b6b3a764000090049392505050565b6000612a698215156004612a19565b82612a7657506000611f1d565b670de0b6b3a764000083810290612a9990858381612a9057fe5b04146005612a19565b828181612aa257fe5b04915050611f1d565b6000612aba8215156004612a19565b818381612ac357fe5b049392505050565b6000612ada8215156004612a19565b82612ae757506000611f1d565b816001840381612af357fe5b046001019050611f1d565b62461bcd60e51b6000908152602060045260076024526642414c23000030600a808404818106603090810160081b95839006959095019082900491820690940160101b939093010160c81b604452606490fd5b60408051610140810190915280600081526000602082018190526040820181905260609091019081526020016000815260200160008152600060208201819052604082018190526060820181905260809091015290565b604080516101e081018252600080825260208201819052918101829052606081018290526080810182905260a0810182905260c0810182905260e08101829052610100810182905261012081018290526101408101829052610160810182905261018081018290526101a081018290526101c081019190915290565b6040805160a08101825260008082526020820181905291810182905260608101829052608081019190915290565b60405180608001604052806060815260200160608152602001606081526020016000151581525090565b8051611f1d8161392c565b600082601f830112612c97578081fd5b8151612caa612ca5826138d0565b6138a9565b818152915060208083019084810181840286018201871015612ccb57600080fd5b60005b84811015612cea57815184529282019290820190600101612cce565b505050505092915050565b8035611f1d8161392c565b805160058110611f1d57600080fd5b805160038110611f1d57600080fd5b805160028110611f1d57600080fd5b600060208284031215612d3e578081fd5b81356129128161392c565b600060208284031215612d5a578081fd5b81516129128161392c565b60008060008060008060008060006101208a8c031215612d83578485fd5b8935612d8e8161392c565b985060208a0135612d9e8161392c565b975060408a0135965060608a0135955060808a0135945060a08a0135935060c08a0135612dca81613944565b8093505060e08a013591506101008a013590509295985092959850929598565b60008060008060008060c08789031215612e02578384fd5b8635612e0d8161392c565b9550602087013594506040870135612e248161392c565b93506060870135612e348161392c565b92506080870135612e448161392c565b915060a0870135612e548161392c565b809150509295509295509295565b600080600060608486031215612e76578081fd5b835167ffffffffffffffff80821115612e8d578283fd5b818601915086601f830112612ea0578283fd5b8151612eae612ca5826138d0565b80828252602080830192508086018b828387028901011115612ece578788fd5b8796505b84871015612ef9578051612ee58161392c565b845260019690960195928101928101612ed2565b508901519097509350505080821115612f10578283fd5b50612f1d86828701612c87565b925050604084015190509250925092565b600060208284031215612f3f578081fd5b81518015158114612912578182fd5b600060208284031215612f5f578081fd5b5035919050565b600060208284031215612f77578081fd5b5051919050565b60008060408385031215612f90578182fd5b50508035926020909101359150565b600080600060608486031215612fb3578081fd5b8351925060208401519150604084015190509250925092565b600060208284031215612fdd578081fd5b815167ffffffffffffffff80821115612ff4578283fd5b818401915084601f830112613007578283fd5b815181811115613015578384fd5b613028601f8201601f19166020016138a9565b915080825285602082850101111561303e578384fd5b61304f8160208401602086016138fc565b50949350505050565b600061014080838503121561306b578182fd5b613074816138a9565b90506130808484612d1e565b815261308f8460208501612c7c565b60208201526130a18460408501612c7c565b60408201526130b38460608501612d0f565b60608201526130c58460808501612d1e565b60808201526130d78460a08501612d00565b60a082015260c083015160c08201526130f38460e08501612c7c565b60e08201526101008381015190820152610120928301519281019290925250919050565b60008082840361010081121561312b578283fd5b60e0811215613138578283fd5b5061314360e06138a9565b8335815260208401356131558161392c565b8060208301525060408401356040820152606084013560608201526080840135608082015260a084013560a082015260c084013560c08201528092505061319f8460e08501612cf5565b90509250929050565b6000602082840312156131b9578081fd5b815161291281613944565b6001600160a01b03169052565b6000815180845260208085019450808401835b83811015613200578151875295820195908201906001016131e4565b509495945050505050565b15159052565b600081518084526132298160208601602086016138fc565b601f01601f19169290920160200192915050565b918252602082015260400190565b6001600160a01b0391909116815260200190565b6001600160a01b039384168152919092166020820152604081019190915260600190565b6001600160a01b039788168152602081019690965293861660408601529185166060850152909316608083015260a082019290925260c081019190915260e00190565b6001600160a01b03929092168252602082015260400190565b6020808252825182820181905260009190848201906040850190845b81811015613317578351835292840192918401916001016132fb565b50909695505050505050565b602080825282518282018190526000919060409081850190868401855b8281101561339f57815180516001600160a01b0316855286810151613367888701826131c4565b5085810151613378878701826131c4565b50606081810151908601526080908101519085015260a09093019290850190600101613340565b5091979650505050505050565b90815260200190565b8481526001600160a01b038481166020808401919091529084166040830152608060608301819052835181840191909152805161010084018190526000929182019083906101208601905b808310156134285761341284516138f0565b8252928401926001929092019190840190613400565b50838701519350607f199250828682030160a087015261344881856131d1565b935050506040850151818584030160c08601526134658382613211565b92505050606084015161347b60e085018261320b565b509695505050505050565b9283526020830191909152604082015260600190565b8481526020810184905260808101600284106134b457fe5b60408201939093526060015292915050565b6000600484106134d257fe5b838252604060208301526129fb60408301846131d1565b600060c082526134fc60c0830189613211565b828103602084015261350e8189613211565b6001600160a01b03978816604085015295909616606083015250608081019290925260a0909101529392505050565b60208082526031908201527f536574746c656d656e7420646f6e6520627920696e76616c6964206465706f736040820152701a5d185c9e481c185c9d1a58da5c185b9d607a1b606082015260800190565b60208082526019908201527f536574746c656d656e742073746174757320696e76616c696400000000000000604082015260600190565b60208082526043908201527f536574746c656d656e742072657175657374732063616e206f6e6c792062652060408201527f666574636865642062792061206465706f736974617279207061727469636970606082015262185b9d60ea1b608082015260a00190565b6020808252602d908201527f536574746c656d656e74206e6f7420646f6e65206279206465706f736974617260408201526c1e481c185c9d1a58da5c185b9d609a1b606082015260800190565b6020808252602e908201527f556e617574686f72697a65642061636365737320746f207365636f6e6461727960408201526d1034b9b9bab29036b0b730b3b2b960911b606082015260800190565b60208082526026908201527f536574746c656d656e74207265717565737465642066726f6d20696e76616c6960408201526519081c1bdbdb60d21b606082015260800190565b6020808252603a908201527f556e617574686f72697a6564206163636573732076696577696e67207375627360408201527f6372696265727320696e207365636f6e6461727920706f6f6c2e000000000000606082015260800190565b60208082526023908201527f556e617574686f72697a65642066656520636f6c6c656374696f6e2072657175604082015262195cdd60ea1b606082015260800190565b60006101e0820190506137c38284516131c4565b60208301516137d560208401826131c4565b5060408301516137e860408401826131c4565b50606083015160608301526080830151608083015260a083015160a083015260c083015161381960c08401826131c4565b5060e08381015190830152610100808401519083015261012080840151908301526101408084015190830152610160808401519083015261018080840151613863828501826131c4565b50506101a083810151908301526101c092830151929091019190915290565b9384526001600160a01b039283166020850152604084019190915216606082015260800190565b60405181810167ffffffffffffffff811182821017156138c857600080fd5b604052919050565b600067ffffffffffffffff8211156138e6578081fd5b5060209081020190565b6001600160a01b031690565b60005b838110156139175781810151838201526020016138ff565b83811115613926576000848401525b50505050565b6001600160a01b038116811461394157600080fd5b50565b60ff8116811461394157600080fdfea2646970667358221220e798ef551259363015190ef70e80720f0f7df04c655b4284a20354a342310de064736f6c63430007010033",
  "immutableReferences": {},
  "source": "// External interface for settlement of trades\n// (c) Kallol Borah, 2022\n// \"SPDX-License-Identifier: BUSL1.1\"\n\npragma solidity 0.7.1;\npragma experimental ABIEncoderV2;\n\nimport \"./interfaces/ISettlor.sol\";\nimport \"./interfaces/IOrder.sol\";\nimport \"./interfaces/ITrade.sol\";\nimport './interfaces/IFactory.sol';\nimport './interfaces/VerifiedClient.sol';\nimport \"./interfaces/ISecondaryIssuePool.sol\";\nimport \"./interfaces/ISecondaryIssuePoolFactory.sol\";\n\nimport \"@balancer-labs/v2-solidity-utils/contracts/math/Math.sol\";\nimport \"@balancer-labs/v2-solidity-utils/contracts/math/FixedPoint.sol\";\nimport \"@balancer-labs/v2-solidity-utils/contracts/openzeppelin/ERC20.sol\";\nimport \"@balancer-labs/v2-solidity-utils/contracts/openzeppelin/IERC20.sol\";\nimport \"@balancer-labs/v2-solidity-utils/contracts/openzeppelin/Ownable.sol\";\n \ncontract SecondaryIssueManager is ISettlor, Ownable {\n\n    using Math for uint256;\n    using FixedPoint for uint256;\n\n    // balancer variables\n    address private factory;    \n\n    address private vault;\n\n    //fee\n    uint256 private fee;\n\n    // mapping settlement ref to trade execution data\n    mapping(bytes32 => ISettlor.settlement) settlements;\n\n    //mapping depository participants to trades they are part of\n    mapping(bytes32 => bytes32[]) private trades;\n\n    //mapping pool address to pool id\n    mapping(address => bytes32) private pools;\n\n    //mapping pool id to security token traded\n    mapping(bytes32 => address) private poolSecurity;\n\n    //mapping pool id to investors\n    mapping(bytes32 => subscriptions[]) internal investors; \n\n    // mapping token address to issuing fee collected\n    mapping(address => uint256) private fees;\n\n    // reference to the Verified Client contract\n    VerifiedClient private client;\n\n    // reference to the Verified factory contract that this asset manager checks security token issues with\n    IFactory private products;\n\n    address private bridge;\n\n    address private distribution;\n\n    event tradeSettled(address indexed transferor,\n                        address indexed transferee,\n                        uint256 unitsToTransfer,\n                        address security,\n                        uint256 price,\n                        address currency\n                    );\n\n    event subscribers(address platform, bytes32 poolId, address counterparty, address securityTraded, address currencySettled, uint256 amount, uint256 price);\n\n    /**\n        Initializes this asset management contract\n        @param  _factory            reference to the secondary issue pool factory contract\n        @param  _issueFeePercentage  percentage of trading fee to be charged by the asset manager\n        @param  _client             address of Verified client contract\n        @param  _vault              address of balancer vault\n     */\n    function initialize(address _factory, uint256 _issueFeePercentage, address _client, address _vault, address _distribution, address _products) onlyOwner public {\n        factory = _factory;\n        fee = _issueFeePercentage;\n        client = VerifiedClient(_client);\n        vault = _vault;\n        products = IFactory(_products);\n        distribution = _distribution;\n    }\n\n    function setSigner(address _signer) onlyOwner external{\n        bridge = _signer;\n    }\n\n    /**\n        Joins existing (secondary) tokenized assets into pool by primary issue token holders\n        @param  security            reference to asset issued\n        @param  currency            reference to cash (settlement) token\n        @param  securityAmount      amount of security to issue\n        @param  minSecurityOrder    minimum order size of securities issued in pool\n        @param  cashAmount          amount of currency issued in pool\n     */\n    function issueSecondary(address security, address currency, uint256 securityAmount, uint256 minSecurityOrder, uint256 cashAmount, bytes32 _hashedMessage, uint8 _v, bytes32 _r, bytes32 _s) override external {\n        //bytes32 payloadHash = keccak256(abi.encode(_hashedMessage, \"L2toL1\"));\n        //bytes32 messageHash = keccak256(abi.encodePacked(\"\\x19Ethereum Signed Message:\\n32\", payloadHash));\n        (bytes32 role, , ) = client.getRole(msg.sender);\n        require(/*ecrecover(messageHash, _v, _r, _s)== bridge ||*/ (IERC20(security).balanceOf(msg.sender)>=securityAmount && securityAmount>=minSecurityOrder\n                && IERC20(currency).balanceOf(msg.sender)>=cashAmount && (role=='DP' || role=='Admin')), \"Unauthorized access to secondary issue manager\");\n        ERC20(currency).transferFrom(msg.sender, address(this), cashAmount);\n        ERC20(security).transferFrom(msg.sender, address(this), securityAmount);        \n        address pool = ISecondaryIssuePoolFactory(factory).create(\n            ERC20(security).name(),\n            ERC20(security).symbol(),\n            security,\n            currency,\n            minSecurityOrder,\n            fee\n        );                \n        bytes32 poolId = ISecondaryIssuePool(pool).getPoolId();  \n        poolSecurity[poolId] = security; \n        pools[pool] = poolId;\n        // join the pool here                \n        (IERC20[] memory tokens, , ) = IVault(vault).getPoolTokens(poolId);\n        IAsset[] memory assets = _convertERC20sToAssets(tokens);\n        uint256[] memory maxAmountsIn = new uint256[](tokens.length);\n        ERC20(currency).approve(vault, cashAmount);\n        ERC20(security).approve(vault, securityAmount);\n        for (uint256 t; t < tokens.length; t++) {\n            if(tokens[t]==IERC20(security))\n                maxAmountsIn[t] = securityAmount;\n            else if(tokens[t]==IERC20(currency))\n                maxAmountsIn[t] = cashAmount;\n        }\n        IVault.JoinPoolRequest memory request = IVault.JoinPoolRequest({\n            assets: assets,\n            maxAmountsIn: maxAmountsIn,\n            userData: abi.encode(JoinKind.INIT, maxAmountsIn),\n            fromInternalBalance: false\n        });         \n        IVault(vault).joinPool(poolId, address(this), address(this), request);\n    }\n    \n    /**\n        Used by Secondary pools to request settlement for trades\n        @param  tradeToReport     data structure holding order matching data\n     */\n    function requestSettlement(ITrade.trade memory tradeToReport, IOrder orderbook) override external {\n        require(pools[msg.sender]!=\"\", \"Settlement requested from invalid pool\");\n        IOrder.order memory orderByParty = orderbook.getOrder(tradeToReport.partyRef);\n        IOrder.order memory orderByCounterparty = orderbook.getOrder(tradeToReport.counterpartyRef);\n        address securityTraded = orderbook.getSecurity(); \n        address currencySettled = orderbook.getCurrency();\n        address party = orderByParty.tokenIn==securityTraded || orderByParty.tokenOut==currencySettled ? orderByParty.party : orderByCounterparty.party;\n        address counterparty = orderByCounterparty.tokenIn==currencySettled || orderByCounterparty.tokenOut==securityTraded ? orderByCounterparty.party : orderByParty.party;\n        uint256 amount = tradeToReport.securityTraded; //orderByParty.tokenIn==securityTraded ? tradeToReport.securityTraded : tradeToReport.currencyTraded;\n        bytes32 _transfereeDPID = getTransferAgent(party);\n        bytes32 _transferorDPID = getTransferAgent(counterparty);\n        ISettlor.settlement memory tradeToSettle = ISettlor.settlement({\n            transferor: party,\n            transferee: counterparty,\n            security: securityTraded,\n            status: \"Pending\",\n            currency: currencySettled,\n            price: tradeToReport.price,\n            askprice: Math.div(orderByParty.tokenIn==currencySettled ? tradeToReport.currencyTraded : tradeToReport.securityTraded, amount, false),\n            unitsToTransfer: amount,\n            consideration: tradeToReport.currencyTraded,//_downscaleDown(tradeToReport.currencyTraded, _computeScalingFactor(IERC20(currencySettled))), //Math.mul(tradeToReport.price, amount),\n            executionDate: tradeToReport.dt,\n            partyRef: orderByParty.tokenIn==securityTraded || orderByParty.tokenOut==currencySettled ? tradeToReport.partyRef : tradeToReport.counterpartyRef,\n            counterpartyRef: orderByCounterparty.tokenIn==currencySettled || orderByCounterparty.tokenOut==securityTraded ? tradeToReport.counterpartyRef : tradeToReport.partyRef,\n            transferorDPID: _transferorDPID,\n            transfereeDPID: _transfereeDPID,\n            orderPool: orderbook\n        });\n        bytes32 ref = keccak256(abi.encodePacked(tradeToReport.partyRef, tradeToReport.counterpartyRef));\n        if(settlements[ref].transferor==address(0x0)){\n            settlements[ref] = tradeToSettle;\n            ISettlor.subscriptions memory subscription = ISettlor.subscriptions({\n                investor: counterparty,\n                asset: securityTraded,\n                currency: currencySettled, \n                amount: amount,   \n                price: tradeToReport.price\n            });\n            bytes32 poolId = orderbook.getPoolId();\n            //investors[orderbook.getPoolId()].push(ISettlor.subscriptions(counterparty, securityTraded, currencySettled, amount, tradeToReport.price));\n            investors[poolId].push(subscription);\n            emit subscribers(address(this), poolId, counterparty, securityTraded, currencySettled, amount, subscription.price);\n            trades[tradeToSettle.transferorDPID].push(ref);\n            if(tradeToSettle.transferorDPID != tradeToSettle.transfereeDPID)\n                trades[tradeToSettle.transfereeDPID].push(ref);\n        }\n    }\n    \n    /**\n        Fetches trade settlement requests for depository participant\n        @param  dpid         identifier of depository participant (eg, transfer agent) that is authorized to settle the asset \n     */\n    function getSettlementRequests(bytes32 dpid, bytes32 poolId) override external view returns(bytes32[] memory){\n        (bytes32 role, , ) = client.getRole(msg.sender);\n        require(role=='DP', \"Settlement requests can only be fetched by a depositary participant\");\n        /*if(poolId!=\"\"){\n            bytes32[] memory refs = new bytes32[](trades[dpid].length);\n            uint j=0;\n            for(uint256 i=0; i<trades[dpid].length; i++){\n                 IOrder ob = settlements[trades[dpid][i]].orderPool;\n                 bytes32 poolid = ob.getPoolId();\n                 if(poolid==poolId){\n                     refs[j] == trades[dpid][i];\n                     j++;\n                 }\n            }\n            return refs;\n        }\n        else{*/\n            return trades[dpid];\n        //}\n    }\n\n    /**\n        Fetches a specific trade settlement request        \n        @param  ref         reference to the trade\n     */\n    function getSettlementRequest(bytes32 ref) override external view returns(settlement memory){\n        require(ref!=\"\", \"Settlement requests can only be fetched by a depositary participant\"); \n        return settlements[ref];\n    }\n    event payFees(uint256 consideration, uint256 fee, uint256 toPay);\n    /**\n        Sets settlement status for trades executed\n        @param  ref         reference to the trade executed\n        @param  status      settlement status\n     */\n    function setSettlementStatus(bytes32 ref, bytes32 status) override external{\n        (bytes32 role, bytes32 id, ) = client.getRole(msg.sender);\n        require(role=='DP', \"Settlement not done by depositary participant\");\n        bytes32 transferorDPID = settlements[ref].transferorDPID;\n        bytes32 transfereeDPID = settlements[ref].transfereeDPID;\n        require(id==transferorDPID || id==transfereeDPID, \"Settlement done by invalid depositary participant\");\n        require(status==\"Confirm\" || status==\"Reject\", \"Settlement status invalid\");\n        uint256 pay = _downscaleDown(Math.mul(_upscale(settlements[ref].consideration, _computeScalingFactor(IERC20(settlements[ref].currency))), fee), _computeScalingFactor(IERC20(settlements[ref].currency)));\n        //uint256 pay = _downscaleDown(settlements[ref].consideration, _computeScalingFactor(IERC20(settlements[ref].currency)));//settlements[ref].consideration; \n        if(status==\"Confirm\" && settlements[ref].status!=\"Confirm\" && settlements[ref].status!=\"Fail\"){            \n            fees[settlements[ref].currency] = Math.add(fees[settlements[ref].currency], pay);\n            emit payFees(settlements[ref].consideration, fee, pay);\n            IERC20(settlements[ref].currency).approve(address(this), pay);\n            if(IERC20(settlements[ref].currency).transferFrom(settlements[ref].transferor, address(this), pay)){                \n                settlements[ref].orderPool.orderFilled(settlements[ref].partyRef, settlements[ref].counterpartyRef, settlements[ref].executionDate);\n                emit tradeSettled(settlements[ref].transferor, \n                                    settlements[ref].transferee, \n                                    settlements[ref].unitsToTransfer,\n                                    settlements[ref].security,\n                                    settlements[ref].price,\n                                    settlements[ref].currency\n                                );\n                for(uint i=0; i<trades[transferorDPID].length; i++){\n                    if(trades[transferorDPID][i]==ref){\n                        if(i==trades[transferorDPID].length-1)\n                            delete trades[transferorDPID][i];\n                        else\n                            trades[transferorDPID][i] = trades[transferorDPID][i+1];\n                    }\n                }\n                for(uint i=0; i<trades[transfereeDPID].length; i++){\n                    if(trades[transfereeDPID][i]==ref){\n                        if(i==trades[transfereeDPID].length-1)\n                            delete trades[transfereeDPID][i];\n                        else\n                            trades[transfereeDPID][i] = trades[transfereeDPID][i+1];\n                    }\n                }\n                settlements[ref].status = \"Confirm\";                \n            }\n            else{\n                settlements[ref].orderPool.revertTrade(settlements[ref].partyRef, settlements[ref].unitsToTransfer, IOrder.Order.Sell, settlements[ref].executionDate);\n                settlements[ref].orderPool.revertTrade(settlements[ref].counterpartyRef, settlements[ref].consideration, IOrder.Order.Buy, settlements[ref].executionDate);\n                IERC20(settlements[ref].currency).approve(address(this), settlements[ref].consideration);\n                IERC20(settlements[ref].security).approve(address(this), settlements[ref].unitsToTransfer);\n                IERC20(settlements[ref].currency).transferFrom(settlements[ref].transferor, settlements[ref].transferee, settlements[ref].consideration);\n                IERC20(settlements[ref].security).transferFrom(settlements[ref].transferee, settlements[ref].transferor, settlements[ref].unitsToTransfer);\n                settlements[ref].status = \"Fail\";\n            }\n        }\n        else if(status==\"Reject\"){\n            settlements[ref].orderPool.revertTrade(settlements[ref].partyRef, settlements[ref].unitsToTransfer, IOrder.Order.Sell, settlements[ref].executionDate);\n            settlements[ref].orderPool.revertTrade(settlements[ref].counterpartyRef, settlements[ref].consideration, IOrder.Order.Buy, settlements[ref].executionDate);\n            IERC20(settlements[ref].currency).approve(settlements[ref].transferor, settlements[ref].consideration);\n            IERC20(settlements[ref].security).approve(settlements[ref].transferee, settlements[ref].unitsToTransfer);\n            IERC20(settlements[ref].currency).transferFrom(settlements[ref].transferor, settlements[ref].transferee, settlements[ref].consideration);\n            IERC20(settlements[ref].security).transferFrom(settlements[ref].transferee, settlements[ref].transferor, settlements[ref].unitsToTransfer);\n            settlements[ref].status = \"Reject\";\n        }            \n    }\n\n    /**\n        Retrieve investors in secondary pools\n        @param  poolId  pool identity\n     */\n    function getSubscribers(bytes32 poolId) override external view returns(ISettlor.subscriptions[] memory){\n        (bytes32 role, bytes32 id, ) = client.getRole(msg.sender);\n        require(role=='DP' || role=='Admin' || products.getHolder(products.getSecurity(poolSecurity[poolId]))==msg.sender, \"Unauthorized access viewing subscribers in secondary pool.\");\n        return investors[poolId];\n    }\n\n    /**\n        Retrieve trade settlement\n        @param  ref settlement reference\n     */\n    function getTrade(bytes32 ref) external view override returns (uint256, uint256) {\n        return (settlements[ref].price, settlements[ref].askprice);\n    }\n\n    /**\n        Gets transfer agent for any of the parties in the trade\n        @param  party         reference to the party or counterparty in a trade\n     */\n    function getTransferAgent(address party) private view returns(bytes32){\n        return(client.getTransferAgent(party));\n    } \n\n    /**\n        Fetch trading fee collected in Balancer vault\n        @param  _token  address of token in which fee is collected\n     */\n    function getTradingFeeCollected(address _token) override external returns(uint256){\n        require(msg.sender==distribution, \"Unauthorized fee collection request\");\n        /*IERC20[] memory tokens = new IERC20[](1);\n        tokens[0] = IERC20(_token);\n        uint256[] memory amounts = IVault(vault).getProtocolFeesCollector().getCollectedFeeAmounts(tokens);\n        IVault(vault).getProtocolFeesCollector().withdrawCollectedFees(tokens, amounts, distribution);\n        return amounts[0];*/\n        uint256 feeCollected = fees[_token];\n        IERC20(_token).transfer(distribution, feeCollected);\n        fees[_token] = Math.sub(fees[_token], feeCollected);\n        return feeCollected;\n    }   \n\n    /**\n     * @dev This helper function is a fast and cheap way to convert between IERC20[] and IAsset[] types\n     */\n    function _convertERC20sToAssets(IERC20[] memory tokens) internal pure returns (IAsset[] memory assets) {\n        // solhint-disable-next-line no-inline-assembly\n        assembly {\n            assets := tokens\n        }\n    }\n\n    /**\n     * @dev Returns a scaling factor that, when multiplied to a token amount for `token`, normalizes its balance as if\n     * it had 18 decimals.\n     */\n    function _computeScalingFactor(IERC20 token) internal view returns (uint256) {\n        // Tokens that don't implement the `decimals` method are not supported.\n        uint256 tokenDecimals = ERC20(address(token)).decimals();\n\n        // Tokens with more than 18 decimals are not supported.\n        uint256 decimalsDifference = Math.sub(18, tokenDecimals);\n        return FixedPoint.ONE * 10**decimalsDifference;\n    }\n\n    /**\n     * @dev Reverses the `scalingFactor` applied to `amount`, resulting in a smaller or equal value depending on\n     * whether it needed scaling or not. The result is rounded down.\n     */\n    function _downscaleDown(uint256 amount, uint256 scalingFactor) internal pure returns (uint256) {\n        return FixedPoint.divDown(amount, scalingFactor);\n    }\n\n    /**\n     * @dev Applies `scalingFactor` to `amount`, resulting in a larger or equal value depending on whether it needed\n     * scaling or not.\n     */\n    function _upscale(uint256 amount, uint256 scalingFactor) internal pure returns (uint256) {\n        // Upscale rounding wouldn't necessarily always go in the same direction: in a swap for example the balance of\n        // token in should be rounded up, and that of token out rounded down. This is the only place where we round in\n        // the same direction for all amounts, as the impact of this rounding is expected to be minimal (and there's no\n        // rounding error unless `_scalingFactor()` is overriden).\n        return FixedPoint.mulDown(amount, scalingFactor);\n    }\n\n}",
  "sourcePath": "D:\\Code\\verified-balancer\\contracts\\SecondaryIssueManager.sol",
  "compiler": {
    "name": "solc",
    "version": "0.7.1+commit.f4a555be.Emscripten.clang"
  },
  "schemaVersion": "3.4.3",
  "updatedAt": "2023-02-10T10:48:38.977Z",
  "networkType": "ethereum",
  "devdoc": {
    "kind": "dev",
    "methods": {
      "getSettlementRequest(bytes32)": {
        "params": {
          "ref": "reference to the trade"
        }
      },
      "getSettlementRequests(bytes32,bytes32)": {
        "params": {
          "dpid": "identifier of depository participant (eg, transfer agent) that is authorized to settle the asset "
        }
      },
      "getSubscribers(bytes32)": {
        "params": {
          "poolId": "pool identity"
        }
      },
      "getTrade(bytes32)": {
        "params": {
          "ref": "settlement reference"
        }
      },
      "getTradingFeeCollected(address)": {
        "params": {
          "_token": "address of token in which fee is collected"
        }
      },
      "initialize(address,uint256,address,address,address,address)": {
        "params": {
          "_client": "address of Verified client contract",
          "_factory": "reference to the secondary issue pool factory contract",
          "_issueFeePercentage": "percentage of trading fee to be charged by the asset manager",
          "_vault": "address of balancer vault"
        }
      },
      "issueSecondary(address,address,uint256,uint256,uint256,bytes32,uint8,bytes32,bytes32)": {
        "params": {
          "cashAmount": "amount of currency issued in pool",
          "currency": "reference to cash (settlement) token",
          "minSecurityOrder": "minimum order size of securities issued in pool",
          "security": "reference to asset issued",
          "securityAmount": "amount of security to issue"
        }
      },
      "owner()": {
        "details": "Returns the address of the current owner."
      },
      "renounceOwnership()": {
        "details": "Leaves the contract without owner. It will not be possible to call `onlyOwner` functions anymore. Can only be called by the current owner. NOTE: Renouncing ownership will leave the contract without an owner, thereby removing any functionality that is only available to the owner."
      },
      "requestSettlement((bytes32,address,bytes32,uint256,uint256,uint256,uint256),address)": {
        "params": {
          "tradeToReport": "data structure holding order matching data"
        }
      },
      "setSettlementStatus(bytes32,bytes32)": {
        "params": {
          "ref": "reference to the trade executed",
          "status": "settlement status"
        }
      },
      "transferOwnership(address)": {
        "details": "Transfers ownership of the contract to a new account (`newOwner`). Can only be called by the current owner."
      }
    },
    "version": 1
  },
  "userdoc": {
    "kind": "user",
    "methods": {
      "getSettlementRequest(bytes32)": {
        "notice": "Fetches a specific trade settlement request        "
      },
      "getSettlementRequests(bytes32,bytes32)": {
        "notice": "Fetches trade settlement requests for depository participant"
      },
      "getSubscribers(bytes32)": {
        "notice": "Retrieve investors in secondary pools"
      },
      "getTrade(bytes32)": {
        "notice": "Retrieve trade settlement"
      },
      "getTradingFeeCollected(address)": {
        "notice": "Fetch trading fee collected in Balancer vault"
      },
      "initialize(address,uint256,address,address,address,address)": {
        "notice": "Initializes this asset management contract"
      },
      "issueSecondary(address,address,uint256,uint256,uint256,bytes32,uint8,bytes32,bytes32)": {
        "notice": "Joins existing (secondary) tokenized assets into pool by primary issue token holders"
      },
      "requestSettlement((bytes32,address,bytes32,uint256,uint256,uint256,uint256),address)": {
        "notice": "Used by Secondary pools to request settlement for trades"
      },
      "setSettlementStatus(bytes32,bytes32)": {
        "notice": "Sets settlement status for trades executed"
      }
    },
    "version": 1
  }
}