{
  "contractName": "SecondaryIssueManager",
  "abi": [
    {
      "anonymous": false,
      "inputs": [
        {
          "indexed": true,
          "internalType": "address",
          "name": "previousOwner",
          "type": "address"
        },
        {
          "indexed": true,
          "internalType": "address",
          "name": "newOwner",
          "type": "address"
        }
      ],
      "name": "OwnershipTransferred",
      "type": "event"
    },
    {
      "anonymous": false,
      "inputs": [
        {
          "indexed": false,
          "internalType": "address",
          "name": "security",
          "type": "address"
        },
        {
          "indexed": false,
          "internalType": "address",
          "name": "platform",
          "type": "address"
        },
        {
          "indexed": false,
          "internalType": "bytes32",
          "name": "poolId",
          "type": "bytes32"
        },
        {
          "components": [
            {
              "internalType": "address",
              "name": "investor",
              "type": "address"
            },
            {
              "internalType": "address",
              "name": "asset",
              "type": "address"
            },
            {
              "internalType": "address",
              "name": "currency",
              "type": "address"
            },
            {
              "internalType": "uint256",
              "name": "amount",
              "type": "uint256"
            },
            {
              "internalType": "uint256",
              "name": "price",
              "type": "uint256"
            }
          ],
          "indexed": false,
          "internalType": "struct ISettlor.subscriptions[]",
          "name": "investors",
          "type": "tuple[]"
        }
      ],
      "name": "subscribers",
      "type": "event"
    },
    {
      "anonymous": false,
      "inputs": [
        {
          "indexed": true,
          "internalType": "address",
          "name": "transferor",
          "type": "address"
        },
        {
          "indexed": true,
          "internalType": "address",
          "name": "transferee",
          "type": "address"
        },
        {
          "indexed": false,
          "internalType": "uint256",
          "name": "unitsToTransfer",
          "type": "uint256"
        },
        {
          "indexed": false,
          "internalType": "address",
          "name": "security",
          "type": "address"
        },
        {
          "indexed": false,
          "internalType": "uint256",
          "name": "price",
          "type": "uint256"
        },
        {
          "indexed": false,
          "internalType": "address",
          "name": "currency",
          "type": "address"
        }
      ],
      "name": "tradeSettled",
      "type": "event"
    },
    {
      "inputs": [],
      "name": "owner",
      "outputs": [
        {
          "internalType": "address",
          "name": "",
          "type": "address"
        }
      ],
      "stateMutability": "view",
      "type": "function",
      "constant": true
    },
    {
      "inputs": [],
      "name": "renounceOwnership",
      "outputs": [],
      "stateMutability": "nonpayable",
      "type": "function"
    },
    {
      "inputs": [
        {
          "internalType": "address",
          "name": "newOwner",
          "type": "address"
        }
      ],
      "name": "transferOwnership",
      "outputs": [],
      "stateMutability": "nonpayable",
      "type": "function"
    },
    {
      "inputs": [
        {
          "internalType": "address",
          "name": "_factory",
          "type": "address"
        },
        {
          "internalType": "uint256",
          "name": "_issueFeePercentage",
          "type": "uint256"
        },
        {
          "internalType": "address",
          "name": "_client",
          "type": "address"
        },
        {
          "internalType": "address",
          "name": "_vault",
          "type": "address"
        },
        {
          "internalType": "address",
          "name": "_distribution",
          "type": "address"
        },
        {
          "internalType": "address",
          "name": "_products",
          "type": "address"
        }
      ],
      "name": "initialize",
      "outputs": [],
      "stateMutability": "nonpayable",
      "type": "function"
    },
    {
      "inputs": [
        {
          "internalType": "address",
          "name": "_signer",
          "type": "address"
        }
      ],
      "name": "setSigner",
      "outputs": [],
      "stateMutability": "nonpayable",
      "type": "function"
    },
    {
      "inputs": [
        {
          "internalType": "address",
          "name": "security",
          "type": "address"
        },
        {
          "internalType": "address",
          "name": "currency",
          "type": "address"
        },
        {
          "internalType": "uint256",
          "name": "securityAmount",
          "type": "uint256"
        },
        {
          "internalType": "uint256",
          "name": "minSecurityOrder",
          "type": "uint256"
        },
        {
          "internalType": "uint256",
          "name": "cashAmount",
          "type": "uint256"
        },
        {
          "internalType": "bytes32",
          "name": "_hashedMessage",
          "type": "bytes32"
        },
        {
          "internalType": "uint8",
          "name": "_v",
          "type": "uint8"
        },
        {
          "internalType": "bytes32",
          "name": "_r",
          "type": "bytes32"
        },
        {
          "internalType": "bytes32",
          "name": "_s",
          "type": "bytes32"
        }
      ],
      "name": "issueSecondary",
      "outputs": [],
      "stateMutability": "nonpayable",
      "type": "function"
    },
    {
      "inputs": [
        {
          "components": [
            {
              "internalType": "bytes32",
              "name": "partyRef",
              "type": "bytes32"
            },
            {
              "internalType": "uint256",
              "name": "partyInAmount",
              "type": "uint256"
            },
            {
              "internalType": "bytes32",
              "name": "counterpartyRef",
              "type": "bytes32"
            },
            {
              "internalType": "uint256",
              "name": "counterpartyInAmount",
              "type": "uint256"
            },
            {
              "internalType": "uint256",
              "name": "price",
              "type": "uint256"
            },
            {
              "internalType": "uint256",
              "name": "dt",
              "type": "uint256"
            }
          ],
          "internalType": "struct ITrade.trade",
          "name": "tradeToReport",
          "type": "tuple"
        },
        {
          "internalType": "contract IOrder",
          "name": "orderbook",
          "type": "address"
        }
      ],
      "name": "requestSettlement",
      "outputs": [],
      "stateMutability": "nonpayable",
      "type": "function"
    },
    {
      "inputs": [
        {
          "internalType": "bytes32",
          "name": "dpid",
          "type": "bytes32"
        },
        {
          "internalType": "bytes32",
          "name": "poolId",
          "type": "bytes32"
        }
      ],
      "name": "getSettlementRequests",
      "outputs": [
        {
          "internalType": "bytes32[]",
          "name": "",
          "type": "bytes32[]"
        }
      ],
      "stateMutability": "view",
      "type": "function",
      "constant": true
    },
    {
      "inputs": [
        {
          "internalType": "bytes32",
          "name": "ref",
          "type": "bytes32"
        }
      ],
      "name": "getSettlementRequest",
      "outputs": [
        {
          "components": [
            {
              "internalType": "address",
              "name": "transferor",
              "type": "address"
            },
            {
              "internalType": "address",
              "name": "transferee",
              "type": "address"
            },
            {
              "internalType": "address",
              "name": "security",
              "type": "address"
            },
            {
              "internalType": "bytes32",
              "name": "status",
              "type": "bytes32"
            },
            {
              "internalType": "bytes32",
              "name": "transferorDPID",
              "type": "bytes32"
            },
            {
              "internalType": "bytes32",
              "name": "transfereeDPID",
              "type": "bytes32"
            },
            {
              "internalType": "address",
              "name": "currency",
              "type": "address"
            },
            {
              "internalType": "uint256",
              "name": "price",
              "type": "uint256"
            },
            {
              "internalType": "uint256",
              "name": "askprice",
              "type": "uint256"
            },
            {
              "internalType": "uint256",
              "name": "unitsToTransfer",
              "type": "uint256"
            },
            {
              "internalType": "uint256",
              "name": "consideration",
              "type": "uint256"
            },
            {
              "internalType": "uint256",
              "name": "executionDate",
              "type": "uint256"
            },
            {
              "internalType": "contract IOrder",
              "name": "orderPool",
              "type": "address"
            },
            {
              "internalType": "bytes32",
              "name": "partyRef",
              "type": "bytes32"
            },
            {
              "internalType": "bytes32",
              "name": "counterpartyRef",
              "type": "bytes32"
            }
          ],
          "internalType": "struct ISettlor.settlement",
          "name": "",
          "type": "tuple"
        }
      ],
      "stateMutability": "view",
      "type": "function",
      "constant": true
    },
    {
      "inputs": [
        {
          "internalType": "bytes32",
          "name": "ref",
          "type": "bytes32"
        },
        {
          "internalType": "bytes32",
          "name": "status",
          "type": "bytes32"
        }
      ],
      "name": "setSettlementStatus",
      "outputs": [],
      "stateMutability": "nonpayable",
      "type": "function"
    },
    {
      "inputs": [
        {
          "internalType": "bytes32",
          "name": "poolId",
          "type": "bytes32"
        },
        {
          "internalType": "bytes32",
          "name": "_hashedMessage",
          "type": "bytes32"
        },
        {
          "internalType": "uint8",
          "name": "_v",
          "type": "uint8"
        },
        {
          "internalType": "bytes32",
          "name": "_r",
          "type": "bytes32"
        },
        {
          "internalType": "bytes32",
          "name": "_s",
          "type": "bytes32"
        }
      ],
      "name": "getSubscribers",
      "outputs": [
        {
          "components": [
            {
              "internalType": "address",
              "name": "investor",
              "type": "address"
            },
            {
              "internalType": "address",
              "name": "asset",
              "type": "address"
            },
            {
              "internalType": "address",
              "name": "currency",
              "type": "address"
            },
            {
              "internalType": "uint256",
              "name": "amount",
              "type": "uint256"
            },
            {
              "internalType": "uint256",
              "name": "price",
              "type": "uint256"
            }
          ],
          "internalType": "struct ISettlor.subscriptions[]",
          "name": "",
          "type": "tuple[]"
        }
      ],
      "stateMutability": "nonpayable",
      "type": "function"
    },
    {
      "inputs": [
        {
          "internalType": "bytes32",
          "name": "ref",
          "type": "bytes32"
        }
      ],
      "name": "getTrade",
      "outputs": [
        {
          "internalType": "uint256",
          "name": "",
          "type": "uint256"
        },
        {
          "internalType": "uint256",
          "name": "",
          "type": "uint256"
        }
      ],
      "stateMutability": "view",
      "type": "function",
      "constant": true
    },
    {
      "inputs": [
        {
          "internalType": "address",
          "name": "_token",
          "type": "address"
        }
      ],
      "name": "getTradingFeeCollected",
      "outputs": [
        {
          "internalType": "uint256",
          "name": "",
          "type": "uint256"
        }
      ],
      "stateMutability": "nonpayable",
      "type": "function"
    }
  ],
  "bytecode": "0x608060405234801561001057600080fd5b50600080546001600160a01b0319163390811782556040519091907f8be0079c531659141344cd1fd0a4f28419497f9722a3daafe3b4186f6b6457e0908290a361300b8061005f6000396000f3fe608060405234801561001057600080fd5b50600436106100cf5760003560e01c80638da5cb5b1161008c578063c9fca3c711610066578063c9fca3c7146101a9578063d504ca2d146101c9578063f1a163c1146101dc578063f2fde38b146101fc576100cf565b80638da5cb5b14610160578063a2dc2ab714610175578063a3b1379914610188576100cf565b806304967159146100d457806313b63094146100e95780632d916746146100fc5780636c19e78314610125578063715018a61461013857806379a7dc0e14610140575b600080fd5b6100e76100e2366004612543565b61020f565b005b6100e76100f7366004612719565b610c8c565b61010f61010a3660046122f5565b610f26565b60405161011c9190612a28565b60405180910390f35b6100e76101333660046122f5565b61102d565b6100e761106d565b61015361014e366004612513565b6110c3565b60405161011c9190612e32565b6101686111b2565b60405161011c9190612841565b6100e76101833660046123af565b6111c1565b61019b610196366004612513565b611233565b60405161011c929190612f2c565b6101bc6101b7366004612543565b611250565b60405161011c919061295b565b6100e76101d736600461232d565b6114eb565b6101ef6101ea366004612587565b611d0f565b60405161011c919061299f565b6100e761020a3660046122f5565b612008565b600a54604051634427673360e01b815260009182916001600160a01b0390911690634427673390610244903390600401612841565b604080518083038186803b15801561025b57600080fd5b505afa15801561026f573d6000803e3d6000fd5b505050506040513d601f19601f820116820180604052508101906102939190612564565b915091508161044560f41b146102c45760405162461bcd60e51b81526004016102bb90612cf7565b60405180910390fd5b600084815260046020819052604090912090810154600590910154828214806102ec57508083145b6103085760405162461bcd60e51b81526004016102bb90612c06565b8466436f6e6669726d60c81b14806103285750846514995a9958dd60d21b145b6103445760405162461bcd60e51b81526004016102bb90612c57565b600086815260046020526040812060038101879055600781015460099091015461036e9190612086565b90508566436f6e6669726d60c81b14156109fa576000878152600460209081526040808320600601546001600160a01b0316835260099091529020546003546103c291906103bd908490612086565b6120b1565b60008881526004602081815260408084206006810180546001600160a01b0390811687526009855292862096909655938c905291905291549054600354918316926323b872dd929116903090610419908690612086565b6040518463ffffffff1660e01b815260040161043793929190612855565b602060405180830381600087803b15801561045157600080fd5b505af1158015610465573d6000803e3d6000fd5b505050506040513d601f19601f8201168201806040525081019061048991906124f3565b1561077f57600087815260046020819052604091829020600c810154600d820154600e830154600b9093015494516381b5da1d60e01b81526001600160a01b03909216946381b5da1d946104df94929301612b02565b600060405180830381600087803b1580156104f957600080fd5b505af115801561050d573d6000803e3d6000fd5b505050600088815260046020526040908190206001810154815460098301546002840154600785015460069095015495516001600160a01b039485169750928416957fdb2a2159f49495b71579b052eff497e50c97deeb73b10e7e46de4f669dcb58f795610585959394928416939092911690612f05565b60405180910390a360005b6000848152600560205260409020548110156106735760008481526005602052604090208054899190839081106105c357fe5b9060005260206000200154141561066b576000848152600560205260409020546000190181141561061857600084815260056020526040902080548290811061060857fe5b600091825260208220015561066b565b600084815260056020526040902080546001830190811061063557fe5b906000526020600020015460056000868152602001908152602001600020828154811061065e57fe5b6000918252602090912001555b600101610590565b5060005b60008381526005602052604090205481101561075a5760008381526005602052604090208054899190839081106106aa57fe5b9060005260206000200154141561075257600083815260056020526040902054600019018114156106ff5760008381526005602052604090208054829081106106ef57fe5b6000918252602082200155610752565b600083815260056020526040902080546001830190811061071c57fe5b906000526020600020015460056000858152602001908152602001600020828154811061074557fe5b6000918252602090912001555b600101610677565b50600087815260046020526040902066436f6e6669726d60c81b6003909101556109f5565b600087815260046020819052604091829020600c810154600d8201546009830154600b9093015494516315e319fb60e31b81526001600160a01b039092169463af18cfd8946107d49492936001929101612b3f565b600060405180830381600087803b1580156107ee57600080fd5b505af1158015610802573d6000803e3d6000fd5b5050506000888152600460208190526040808320600c810154600e820154600a830154600b9093015493516315e319fb60e31b81526001600160a01b03909216965063af18cfd89561085a9591949092909101612b3f565b600060405180830381600087803b15801561087457600080fd5b505af1158015610888573d6000803e3d6000fd5b5050506000888152600460208190526040918290206006810154815460019092015493516323b872dd60e01b81526001600160a01b0391821695506323b872dd946108dc9493831693921691879101612855565b602060405180830381600087803b1580156108f657600080fd5b505af115801561090a573d6000803e3d6000fd5b505050506040513d601f19601f8201168201806040525081019061092e91906124f3565b5060008781526004602081905260409182902060028101546001820154825460099093015494516323b872dd60e01b81526001600160a01b03928316956323b872dd95610985959385169490931692909101612855565b602060405180830381600087803b15801561099f57600080fd5b505af11580156109b3573d6000803e3d6000fd5b505050506040513d601f19601f820116820180604052508101906109d791906124f3565b5060008781526004602052604090206311985a5b60e21b6003909101555b610c83565b856514995a9958dd60d21b1415610c8357600087815260046020819052604091829020600c810154600d8201546009830154600b9093015494516315e319fb60e31b81526001600160a01b039092169463af18cfd894610a609492936001929101612b3f565b600060405180830381600087803b158015610a7a57600080fd5b505af1158015610a8e573d6000803e3d6000fd5b5050506000888152600460208190526040808320600c810154600e820154600a830154600b9093015493516315e319fb60e31b81526001600160a01b03909216965063af18cfd895610ae69591949092909101612b3f565b600060405180830381600087803b158015610b0057600080fd5b505af1158015610b14573d6000803e3d6000fd5b5050506000888152600460208190526040918290206006810154815460019092015493516323b872dd60e01b81526001600160a01b0391821695506323b872dd94610b689493831693921691879101612855565b602060405180830381600087803b158015610b8257600080fd5b505af1158015610b96573d6000803e3d6000fd5b505050506040513d601f19601f82011682018060405250810190610bba91906124f3565b5060008781526004602081905260409182902060028101546001820154825460099093015494516323b872dd60e01b81526001600160a01b03928316956323b872dd95610c11959385169490931692909101612855565b602060405180830381600087803b158015610c2b57600080fd5b505af1158015610c3f573d6000803e3d6000fd5b505050506040513d601f19601f82011682018060405250810190610c6391906124f3565b5060008781526004602052604090206514995a9958dd60d21b6003909101555b50505050505050565b610c94612141565b8251604051632bbc239560e11b81526001600160a01b03841691635778472a91610cc19190600401612a28565b6101406040518083038186803b158015610cda57600080fd5b505afa158015610cee573d6000803e3d6000fd5b505050506040513d601f19601f82011682018060405250810190610d12919061265a565b9050610d1c612141565b6040808501519051632bbc239560e11b81526001600160a01b03851691635778472a91610d4c9190600401612a28565b6101406040518083038186803b158015610d6557600080fd5b505afa158015610d79573d6000803e3d6000fd5b505050506040513d601f19601f82011682018060405250810190610d9d919061265a565b90506000836001600160a01b0316632541897f6040518163ffffffff1660e01b815260040160206040518083038186803b158015610dda57600080fd5b505afa158015610dee573d6000803e3d6000fd5b505050506040513d601f19601f82011682018060405250810190610e129190612311565b90506000846001600160a01b0316636945c1fd6040518163ffffffff1660e01b815260040160206040518083038186803b158015610e4f57600080fd5b505afa158015610e63573d6000803e3d6000fd5b505050506040513d601f19601f82011682018060405250810190610e879190612311565b90506000826001600160a01b031685602001516001600160a01b031614610eb2578360e00151610eb8565b8460e001515b90506000836001600160a01b031685602001516001600160a01b031614610ee3578560e00151610ee9565b8460e001515b90506000846001600160a01b031687602001516001600160a01b031614610f14578860600151610f1a565b88602001515b50505050505050505050565b600d546000906001600160a01b03163314610f535760405162461bcd60e51b81526004016102bb90612def565b6001600160a01b038083166000818152600960205260409081902054600d54915163a9059cbb60e01b8152909363a9059cbb92610f97929116908590600401612942565b602060405180830381600087803b158015610fb157600080fd5b505af1158015610fc5573d6000803e3d6000fd5b505050506040513d601f19601f82011682018060405250810190610fe991906124f3565b506001600160a01b03831660009081526009602052604090205461100d90826120c3565b6001600160a01b0384166000908152600960205260409020559050919050565b61104b336110396111b2565b6001600160a01b0316146101aa6120d9565b600c80546001600160a01b0319166001600160a01b0392909216919091179055565b611079336110396111b2565b600080546040516001600160a01b03909116907f8be0079c531659141344cd1fd0a4f28419497f9722a3daafe3b4186f6b6457e0908390a3600080546001600160a01b0319169055565b6110cb612198565b816110e85760405162461bcd60e51b81526004016102bb90612c8e565b5060009081526004602081815260409283902083516101e08101855281546001600160a01b0390811682526001830154811693820193909352600282015483169481019490945260038101546060850152918201546080840152600582015460a08401526006820154811660c0840152600782015460e084015260088201546101008401526009820154610120840152600a820154610140840152600b820154610160840152600c82015416610180830152600d8101546101a0830152600e01546101c082015290565b6000546001600160a01b031690565b6111cd336110396111b2565b600180546001600160a01b03199081166001600160a01b0398891617909155600395909555600a805486169487169490941790935560028054851692861692909217909155600b8054841692851692909217909155600d80549092169216919091179055565b600090815260046020526040902060078101546008909101549091565b600a54604051634427673360e01b81526060916000916001600160a01b0390911690634427673390611286903390600401612841565b604080518083038186803b15801561129d57600080fd5b505afa1580156112b1573d6000803e3d6000fd5b505050506040513d601f19601f820116820180604052508101906112d59190612564565b5090508061044560f41b146112fc5760405162461bcd60e51b81526004016102bb90612c8e565b82611362576000848152600560209081526040918290208054835181840281018401909452808452909183018282801561135557602002820191906000526020600020905b815481526020019060010190808311611341575b50505050509150506114e5565b60008481526005602052604090205460609067ffffffffffffffff8111801561138a57600080fd5b506040519080825280602002602001820160405280156113b4578160200160208202803683370190505b5090506000805b6000878152600560205260409020548110156114de57600087815260056020526040812080546004918391859081106113f057fe5b90600052602060002001548152602001908152602001600020600c0160009054906101000a90046001600160a01b0316905086816001600160a01b03166338fff2d06040518163ffffffff1660e01b815260040160206040518083038186803b15801561145c57600080fd5b505afa158015611470573d6000803e3d6000fd5b505050506040513d601f19601f82011682018060405250810190611494919061252b565b14156114d55760008881526005602052604090208054839081106114b457fe5b90600052602060002001548484815181106114cb57fe5b5050600190930192505b506001016113bb565b5090925050505b92915050565b6040516370a0823160e01b815287906001600160a01b038b16906370a0823190611519903390600401612841565b60206040518083038186803b15801561153157600080fd5b505afa158015611545573d6000803e3d6000fd5b505050506040513d601f19601f82011682018060405250810190611569919061252b565b101580156115775750858710155b80156115ff57506040516370a0823160e01b815285906001600160a01b038a16906370a08231906115ac903390600401612841565b60206040518083038186803b1580156115c457600080fd5b505afa1580156115d8573d6000803e3d6000fd5b505050506040513d601f19601f820116820180604052508101906115fc919061252b565b10155b61161b5760405162461bcd60e51b81526004016102bb90612d44565b6040516323b872dd60e01b81526001600160a01b038916906323b872dd9061164b90339030908a90600401612855565b602060405180830381600087803b15801561166557600080fd5b505af1158015611679573d6000803e3d6000fd5b505050506040513d601f19601f8201168201806040525081019061169d91906124f3565b506040516323b872dd60e01b81526001600160a01b038a16906323b872dd906116ce90339030908c90600401612855565b602060405180830381600087803b1580156116e857600080fd5b505af11580156116fc573d6000803e3d6000fd5b505050506040513d601f19601f8201168201806040525081019061172091906124f3565b506000600160009054906101000a90046001600160a01b03166001600160a01b03166374dcc7a48b6001600160a01b03166306fdde036040518163ffffffff1660e01b815260040160006040518083038186803b15801561178057600080fd5b505afa158015611794573d6000803e3d6000fd5b505050506040513d6000823e601f3d908101601f191682016040526117bc91908101906125ce565b8c6001600160a01b03166395d89b416040518163ffffffff1660e01b815260040160006040518083038186803b1580156117f557600080fd5b505afa158015611809573d6000803e3d6000fd5b505050506040513d6000823e601f3d908101601f1916820160405261183191908101906125ce565b8d8d8c6003546040518763ffffffff1660e01b815260040161185896959493929190612bb2565b602060405180830381600087803b15801561187257600080fd5b505af1158015611886573d6000803e3d6000fd5b505050506040513d601f19601f820116820180604052508101906118aa9190612311565b90506000816001600160a01b03166338fff2d06040518163ffffffff1660e01b815260040160206040518083038186803b1580156118e757600080fd5b505afa1580156118fb573d6000803e3d6000fd5b505050506040513d601f19601f8201168201806040525081019061191f919061252b565b90508a6007600083815260200190815260200160002060006101000a8154816001600160a01b0302191690836001600160a01b031602179055508060066000846001600160a01b03166001600160a01b03168152602001908152602001600020819055506060600260009054906101000a90046001600160a01b03166001600160a01b031663f94d4668836040518263ffffffff1660e01b81526004016119c69190612a28565b60006040518083038186803b1580156119de57600080fd5b505afa1580156119f2573d6000803e3d6000fd5b505050506040513d6000823e601f3d908101601f19168201604052611a1a9190810190612427565b505090506060611a29826120eb565b90506060825167ffffffffffffffff81118015611a4557600080fd5b50604051908082528060200260200182016040528015611a6f578160200160208202803683370190505b5090508c6001600160a01b031663095ea7b3600260009054906101000a90046001600160a01b03168c6040518363ffffffff1660e01b8152600401611ab5929190612942565b602060405180830381600087803b158015611acf57600080fd5b505af1158015611ae3573d6000803e3d6000fd5b505050506040513d601f19601f82011682018060405250810190611b0791906124f3565b508d6001600160a01b031663095ea7b3600260009054906101000a90046001600160a01b03168e6040518363ffffffff1660e01b8152600401611b4b929190612942565b602060405180830381600087803b158015611b6557600080fd5b505af1158015611b79573d6000803e3d6000fd5b505050506040513d601f19601f82011682018060405250810190611b9d91906124f3565b5060005b8351811015611c44578e6001600160a01b0316848281518110611bc057fe5b60200260200101516001600160a01b03161415611bf5578c828281518110611be457fe5b602002602001018181525050611c3c565b8d6001600160a01b0316848281518110611c0b57fe5b60200260200101516001600160a01b03161415611c3c578a828281518110611c2f57fe5b6020026020010181815250505b600101611ba1565b50611c4d612214565b6040518060800160405280848152602001838152602001600084604051602001611c78929190612b87565b60408051808303601f190181529181529082526000602090920191909152600254905163172b958560e31b81529192506001600160a01b03169063b95cac2890611ccc908890309081908790600401612a31565b600060405180830381600087803b158015611ce657600080fd5b505af1158015611cfa573d6000803e3d6000fd5b50505050505050505050505050505050505050565b6060600085604051602001611d249190612b18565b604051602081830303815290604052805190602001209050600081604051602001611d4f9190612810565b60408051601f198184030181528282528051602091820120600c5460008552939091019182905292506001600160a01b0390911690600190611d989084908a908a908a90612b69565b6020604051602081039080840390855afa158015611dba573d6000803e3d6000fd5b505050602060405103516001600160a01b03161480611ee65750600b5460008981526007602052604090819020549051634a161b2760e01b815233926001600160a01b039081169263cd75c7d4928492634a161b2792611e1f92911690600401612841565b60206040518083038186803b158015611e3757600080fd5b505afa158015611e4b573d6000803e3d6000fd5b505050506040513d601f19601f82011682018060405250810190611e6f9190612311565b6040518263ffffffff1660e01b8152600401611e8b9190612841565b60206040518083038186803b158015611ea357600080fd5b505afa158015611eb7573d6000803e3d6000fd5b505050506040513d601f19601f82011682018060405250810190611edb9190612311565b6001600160a01b0316145b611f025760405162461bcd60e51b81526004016102bb90612d92565b60008881526007602090815260408083205460089092529182902091517fe804af70c0bbbd9ac69c10dc694dbc850d65bccf5aab17d1b159b3dd6222ff0a92611f58926001600160a01b03169130918d91612879565b60405180910390a1600088815260086020908152604080832080548251818502810185019093528083529193909284015b82821015611ff75760008481526020908190206040805160a0810182526005860290920180546001600160a01b039081168452600180830154821685870152600283015490911692840192909252600381015460608401526004015460808301529083529092019101611f89565b505050509250505095945050505050565b612014336110396111b2565b61202b6001600160a01b03821615156101ab6120d9565b600080546040516001600160a01b03808516939216917f8be0079c531659141344cd1fd0a4f28419497f9722a3daafe3b4186f6b6457e091a3600080546001600160a01b0319166001600160a01b0392909216919091179055565b60008282026120aa8415806120a35750838583816120a057fe5b04145b60036120d9565b9392505050565b60008282016120aa84821015836120d9565b60006120d38383111560016120d9565b50900390565b816120e7576120e7816120ee565b5050565b90565b62461bcd60e51b6000908152602060045260076024526642414c23000030600a808404818106603090810160081b95839006959095019082900491820690940160101b939093010160c81b604452606490fd5b60408051610140810190915280600081526000602082018190526040820181905260609091019081526020016000815260200160008152600060208201819052604082018190526060820181905260809091015290565b604080516101e081018252600080825260208201819052918101829052606081018290526080810182905260a0810182905260c0810182905260e08101829052610100810182905261012081018290526101408101829052610160810182905261018081018290526101a081018290526101c081019190915290565b60405180608001604052806060815260200160608152602001606081526020016000151581525090565b80516114e581612fbd565b600082601f830112612259578081fd5b815161226c61226782612f61565b612f3a565b81815291506020808301908481018184028601820187101561228d57600080fd5b60005b848110156122ac57815184529282019290820190600101612290565b505050505092915050565b8051600581106114e557600080fd5b8051600381106114e557600080fd5b8051600281106114e557600080fd5b803560ff811681146114e557600080fd5b600060208284031215612306578081fd5b81356120aa81612fbd565b600060208284031215612322578081fd5b81516120aa81612fbd565b60008060008060008060008060006101208a8c03121561234b578485fd5b893561235681612fbd565b985060208a013561236681612fbd565b975060408a0135965060608a0135955060808a0135945060a08a013593506123918b60c08c016122e4565b925060e08a013591506101008a013590509295985092959850929598565b60008060008060008060c087890312156123c7578182fd5b86356123d281612fbd565b95506020870135945060408701356123e981612fbd565b935060608701356123f981612fbd565b9250608087013561240981612fbd565b915060a087013561241981612fbd565b809150509295509295509295565b60008060006060848603121561243b578081fd5b835167ffffffffffffffff80821115612452578283fd5b818601915086601f830112612465578283fd5b815161247361226782612f61565b80828252602080830192508086018b828387028901011115612493578788fd5b8796505b848710156124be5780516124aa81612fbd565b845260019690960195928101928101612497565b5089015190975093505050808211156124d5578283fd5b506124e286828701612249565b925050604084015190509250925092565b600060208284031215612504578081fd5b815180151581146120aa578182fd5b600060208284031215612524578081fd5b5035919050565b60006020828403121561253c578081fd5b5051919050565b60008060408385031215612555578182fd5b50508035926020909101359150565b60008060408385031215612576578182fd5b505080516020909101519092909150565b600080600080600060a0868803121561259e578283fd5b85359450602086013593506125b687604088016122e4565b94979396509394606081013594506080013592915050565b6000602082840312156125df578081fd5b815167ffffffffffffffff808211156125f6578283fd5b818401915084601f830112612609578283fd5b815181811115612617578384fd5b61262a601f8201601f1916602001612f3a565b9150808252856020828501011115612640578384fd5b612651816020840160208601612f8d565b50949350505050565b600061014080838503121561266d578182fd5b61267681612f3a565b905061268284846122d5565b8152612691846020850161223e565b60208201526126a3846040850161223e565b60408201526126b584606085016122c6565b60608201526126c784608085016122d5565b60808201526126d98460a085016122b7565b60a082015260c083015160c08201526126f58460e0850161223e565b60e08201526101008381015190820152610120928301519281019290925250919050565b60008082840360e081121561272c578283fd5b60c0811215612739578283fd5b5061274460c0612f3a565b833581526020840135602082015260408401356040820152606084013560608201526080840135608082015260a084013560a08201528092505060c083013561278c81612fbd565b809150509250929050565b6001600160a01b03169052565b6000815180845260208085019450808401835b838110156127d3578151875295820195908201906001016127b7565b509495945050505050565b15159052565b600081518084526127fc816020860160208601612f8d565b601f01601f19169290920160200192915050565b7f19457468657265756d205369676e6564204d6573736167653a0a3332000000008152601c810191909152603c0190565b6001600160a01b0391909116815260200190565b6001600160a01b039384168152919092166020820152604081019190915260600190565b6000608080830160018060a01b0380891685526020818916818701526040915087828701526060848188015283885480865260a095508589019150898852838820885b8281101561292f576128d7846128d28454612f81565b612797565b6128e46001830154612f81565b6128f087860182612797565b506128fe6002830154612f81565b61290a88860182612797565b50600382015484860152600482015489850152928701926005909101906001016128bc565b50919d9c50505050505050505050505050565b6001600160a01b03929092168252602082015260400190565b6020808252825182820181905260009190848201906040850190845b8181101561299357835183529284019291840191600101612977565b50909695505050505050565b602080825282518282018190526000919060409081850190868401855b82811015612a1b57815180516001600160a01b03168552868101516129e388870182612797565b50858101516129f487870182612797565b50606081810151908601526080908101519085015260a090930192908501906001016129bc565b5091979650505050505050565b90815260200190565b8481526001600160a01b038481166020808401919091529084166040830152608060608301819052835181840191909152805161010084018190526000929182019083906101208601905b80831015612aa457612a8e8451612f81565b8252928401926001929092019190840190612a7c565b50838701519350607f199250828682030160a0870152612ac481856127a4565b935050506040850151818584030160c0860152612ae183826127e4565b925050506060840151612af760e08501826127de565b509695505050505050565b9283526020830191909152604082015260600190565b908152604060208201819052600690820152654c32746f4c3160d01b606082015260800190565b848152602081018490526080810160028410612b5757fe5b60408201939093526060015292915050565b93845260ff9290921660208401526040830152606082015260800190565b600060048410612b9357fe5b83825260406020830152612baa60408301846127a4565b949350505050565b600060c08252612bc560c08301896127e4565b8281036020840152612bd781896127e4565b6001600160a01b03978816604085015295909616606083015250608081019290925260a0909101529392505050565b60208082526031908201527f536574746c656d656e7420646f6e6520627920696e76616c6964206465706f736040820152701a5d185c9e481c185c9d1a58da5c185b9d607a1b606082015260800190565b60208082526019908201527f536574746c656d656e742073746174757320696e76616c696400000000000000604082015260600190565b60208082526043908201527f536574746c656d656e742072657175657374732063616e206f6e6c792062652060408201527f666574636865642062792061206465706f736974617279207061727469636970606082015262185b9d60ea1b608082015260a00190565b6020808252602d908201527f536574746c656d656e74206e6f7420646f6e65206279206465706f736974617260408201526c1e481c185c9d1a58da5c185b9d609a1b606082015260800190565b6020808252602e908201527f556e617574686f72697a65642061636365737320746f207365636f6e6461727960408201526d1034b9b9bab29036b0b730b3b2b960911b606082015260800190565b6020808252603a908201527f556e617574686f72697a6564206163636573732076696577696e67207375627360408201527f6372696265727320696e207365636f6e6461727920706f6f6c2e000000000000606082015260800190565b60208082526023908201527f556e617574686f72697a65642066656520636f6c6c656374696f6e2072657175604082015262195cdd60ea1b606082015260800190565b60006101e082019050612e46828451612797565b6020830151612e586020840182612797565b506040830151612e6b6040840182612797565b50606083015160608301526080830151608083015260a083015160a083015260c0830151612e9c60c0840182612797565b5060e08381015190830152610100808401519083015261012080840151908301526101408084015190830152610160808401519083015261018080840151612ee682850182612797565b50506101a083810151908301526101c092830151929091019190915290565b9384526001600160a01b039283166020850152604084019190915216606082015260800190565b918252602082015260400190565b60405181810167ffffffffffffffff81118282101715612f5957600080fd5b604052919050565b600067ffffffffffffffff821115612f77578081fd5b5060209081020190565b6001600160a01b031690565b60005b83811015612fa8578181015183820152602001612f90565b83811115612fb7576000848401525b50505050565b6001600160a01b0381168114612fd257600080fd5b5056fea264697066735822122033b82d9cc2d06e6cbca24bae72f0af8ccc1c36ffd9d1f045e6cb2fbc725874f264736f6c63430007010033",
  "immutableReferences": {},
  "source": "// External interface for settlement of trades\n// (c) Kallol Borah, 2022\n// \"SPDX-License-Identifier: BUSL1.1\"\n\npragma solidity 0.7.1;\npragma experimental ABIEncoderV2;\n\nimport \"./interfaces/ISettlor.sol\";\nimport \"./interfaces/IOrder.sol\";\nimport \"./interfaces/ITrade.sol\";\nimport './interfaces/IFactory.sol';\nimport './interfaces/VerifiedClient.sol';\nimport \"./interfaces/ISecondaryIssuePool.sol\";\nimport \"./interfaces/ISecondaryIssuePoolFactory.sol\";\n\nimport \"@balancer-labs/v2-solidity-utils/contracts/math/Math.sol\";\nimport \"@balancer-labs/v2-solidity-utils/contracts/math/FixedPoint.sol\";\nimport \"@balancer-labs/v2-solidity-utils/contracts/openzeppelin/ERC20.sol\";\nimport \"@balancer-labs/v2-solidity-utils/contracts/openzeppelin/IERC20.sol\";\nimport \"@balancer-labs/v2-solidity-utils/contracts/openzeppelin/Ownable.sol\";\n \ncontract SecondaryIssueManager is ISettlor, Ownable {\n\n    using Math for uint256;\n    using FixedPoint for uint256;\n\n    // balancer variables\n    address private factory;    \n\n    address private vault;\n\n    //fee\n    uint256 private fee;\n\n    // mapping settlement ref to trade execution data\n    mapping(bytes32 => ISettlor.settlement) settlements;\n\n    //mapping depository participants to trades they are part of\n    mapping(bytes32 => bytes32[]) private trades;\n\n    //mapping pool address to pool id\n    mapping(address => bytes32) private pools;\n\n    //mapping pool id to security token traded\n    mapping(bytes32 => address) private poolSecurity;\n\n    //mapping pool id to investors\n    mapping(bytes32 => subscriptions[]) internal investors; \n\n    // mapping token address to issuing fee collected\n    mapping(address => uint256) private fees;\n\n    // reference to the Verified Client contract\n    VerifiedClient private client;\n\n    // reference to the Verified factory contract that this asset manager checks security token issues with\n    IFactory private products;\n\n    address private bridge;\n\n    address private distribution;\n\n    event tradeSettled(address indexed transferor,\n                        address indexed transferee,\n                        uint256 unitsToTransfer,\n                        address security,\n                        uint256 price,\n                        address currency\n                    );\n\n    event subscribers(address security, address platform, bytes32 poolId, subscriptions[] investors);\n\n    /**\n        Initializes this asset management contract\n        @param  _factory            reference to the secondary issue pool factory contract\n        @param  _issueFeePercentage  percentage of trading fee to be charged by the asset manager\n        @param  _client             address of Verified client contract\n        @param  _vault              address of balancer vault\n     */\n    function initialize(address _factory, uint256 _issueFeePercentage, address _client, address _vault, address _distribution, address _products) onlyOwner public {\n        factory = _factory;\n        fee = _issueFeePercentage;\n        client = VerifiedClient(_client);\n        vault = _vault;\n        products = IFactory(_products);\n        distribution = _distribution;\n    }\n\n    function setSigner(address _signer) onlyOwner external{\n        bridge = _signer;\n    }\n\n    /**\n        Joins existing (secondary) tokenized assets into pool by primary issue token holders\n        @param  security            reference to asset issued\n        @param  currency            reference to cash (settlement) token\n        @param  securityAmount      amount of security to issue\n        @param  minSecurityOrder    minimum order size of securities issued in pool\n        @param  cashAmount          amount of currency issued in pool\n     */\n    function issueSecondary(address security, address currency, uint256 securityAmount, uint256 minSecurityOrder, uint256 cashAmount, bytes32 _hashedMessage, uint8 _v, bytes32 _r, bytes32 _s) override external {\n        //bytes32 payloadHash = keccak256(abi.encode(_hashedMessage, \"L2toL1\"));\n        //bytes32 messageHash = keccak256(abi.encodePacked(\"\\x19Ethereum Signed Message:\\n32\", payloadHash));\n        //(bytes32 role, ) = client.getRole(msg.sender);\n        require(/*ecrecover(messageHash, _v, _r, _s)== bridge ||*/ (IERC20(security).balanceOf(msg.sender)>=securityAmount && securityAmount>=minSecurityOrder\n                && IERC20(currency).balanceOf(msg.sender)>=cashAmount /*&& role=='AM'*/), \"Unauthorized access to secondary issue manager\");\n        ERC20(currency).transferFrom(msg.sender, address(this), cashAmount);\n        ERC20(security).transferFrom(msg.sender, address(this), securityAmount);        \n        address pool = ISecondaryIssuePoolFactory(factory).create(\n            ERC20(security).name(),\n            ERC20(security).symbol(),\n            security,\n            currency,\n            minSecurityOrder,\n            fee\n        );                \n        bytes32 poolId = ISecondaryIssuePool(pool).getPoolId();  \n        poolSecurity[poolId] = security; \n        pools[pool] = poolId;\n        // join the pool here                \n        (IERC20[] memory tokens, , ) = IVault(vault).getPoolTokens(poolId);\n        IAsset[] memory assets = _convertERC20sToAssets(tokens);\n        uint256[] memory maxAmountsIn = new uint256[](tokens.length);\n        ERC20(currency).approve(vault, cashAmount);\n        ERC20(security).approve(vault, securityAmount);\n        for (uint256 t; t < tokens.length; t++) {\n            if(tokens[t]==IERC20(security))\n                maxAmountsIn[t] = securityAmount;\n            else if(tokens[t]==IERC20(currency))\n                maxAmountsIn[t] = cashAmount;\n        }\n        IVault.JoinPoolRequest memory request = IVault.JoinPoolRequest({\n            assets: assets,\n            maxAmountsIn: maxAmountsIn,\n            userData: abi.encode(JoinKind.INIT, maxAmountsIn),\n            fromInternalBalance: false\n        });         \n        IVault(vault).joinPool(poolId, address(this), address(this), request);\n    }\n\n    /**\n        Used by Secondary pools to request settlement for trades\n        @param  tradeToReport     data structure holding order matching data\n     */\n    function requestSettlement(ITrade.trade memory tradeToReport, IOrder orderbook) override external {\n        //require(pools[msg.sender]!=\"\", \"Settlement requested from invalid pool\");\n        IOrder.order memory orderByParty = IOrder(orderbook).getOrder(tradeToReport.partyRef);\n        IOrder.order memory orderByCounterparty = IOrder(orderbook).getOrder(tradeToReport.counterpartyRef);\n        address securityTraded = IOrder(orderbook).getSecurity(); \n        address currencySettled = IOrder(orderbook).getCurrency();\n        address party = orderByParty.tokenIn==securityTraded ? orderByParty.party : orderByCounterparty.party;\n        address counterparty = orderByCounterparty.tokenIn==securityTraded ? orderByCounterparty.party : orderByParty.party;\n        uint256 amount = orderByParty.tokenIn==securityTraded ? tradeToReport.partyInAmount : tradeToReport.counterpartyInAmount;\n        /*bytes32 _transfereeDPID = getTransferAgent(party);\n        bytes32 _transferorDPID = getTransferAgent(counterparty);\n        ISettlor.settlement memory tradeToSettle = ISettlor.settlement({\n            transferor: party,\n            transferee: counterparty,\n            security: securityTraded,\n            status: \"Pending\",\n            currency: currencySettled,\n            price: tradeToReport.price,\n            askprice: Math.div(orderByParty.tokenIn==currencySettled ? tradeToReport.partyInAmount : tradeToReport.counterpartyInAmount, amount, false),\n            unitsToTransfer: amount,\n            consideration: Math.mul(tradeToReport.price, amount),\n            executionDate: tradeToReport.dt,\n            partyRef: orderByParty.tokenIn==securityTraded ? tradeToReport.partyRef : tradeToReport.counterpartyRef,\n            counterpartyRef: orderByCounterparty.tokenIn==securityTraded ? tradeToReport.counterpartyRef : tradeToReport.partyRef,\n            transferorDPID: _transferorDPID,\n            transfereeDPID: _transfereeDPID,\n            orderPool: orderbook\n        });\n        bytes32 ref = keccak256(abi.encodePacked(tradeToReport.partyRef, tradeToReport.counterpartyRef));\n        if(settlements[ref].transferor==address(0x0)){\n            settlements[ref] = tradeToSettle;\n            investors[IOrder(orderbook).getPoolId()].push(ISettlor.subscriptions(counterparty, securityTraded, currencySettled, amount, tradeToReport.price));\n            trades[tradeToSettle.transferorDPID].push(ref);\n            trades[tradeToSettle.transfereeDPID].push(ref);\n        }*/\n    }\n    \n    /**\n        Fetches trade settlement requests for depository participant\n        @param  dpid         identifier of depository participant (eg, transfer agent) that is authorized to settle the asset \n     */\n    function getSettlementRequests(bytes32 dpid, bytes32 poolId) override external view returns(bytes32[] memory){\n        (bytes32 role, ) = client.getRole(msg.sender);\n        require(role=='DP', \"Settlement requests can only be fetched by a depositary participant\");\n        if(poolId==\"\"){\n            return trades[dpid];\n        }\n        else{\n            bytes32[] memory refs = new bytes32[](trades[dpid].length);\n            uint j=0;\n            for(uint256 i=0; i<trades[dpid].length; i++){\n                 IOrder ob = settlements[trades[dpid][i]].orderPool;\n                 if(IOrder(ob).getPoolId()==poolId){\n                     refs[j] == trades[dpid][i];\n                     j++;\n                 }\n            }\n            return refs;\n        }\n    }\n\n    /**\n        Fetches a specific trade settlement request        \n        @param  ref         reference to the trade\n     */\n    function getSettlementRequest(bytes32 ref) override external view returns(settlement memory){\n        require(ref!=\"\", \"Settlement requests can only be fetched by a depositary participant\"); \n        return settlements[ref];\n    }\n    \n    /**\n        Sets settlement status for trades executed\n        @param  ref         reference to the trade executed\n        @param  status      settlement status\n     */\n    function setSettlementStatus(bytes32 ref, bytes32 status) override external{\n        (bytes32 role, bytes32 id) = client.getRole(msg.sender);\n        require(role=='DP', \"Settlement not done by depositary participant\");\n        bytes32 transferorDPID = settlements[ref].transferorDPID;\n        bytes32 transfereeDPID = settlements[ref].transfereeDPID;\n        require(id==transferorDPID || id==transfereeDPID, \"Settlement done by invalid depositary participant\");\n        require(status==\"Confirm\" || status==\"Reject\", \"Settlement status invalid\");\n        settlements[ref].status = status;\n        uint256 pay = Math.mul(settlements[ref].price, settlements[ref].unitsToTransfer);\n        if(status==\"Confirm\"){            \n            fees[settlements[ref].currency] = Math.add(fees[settlements[ref].currency], Math.mul(pay, fee));\n            if(IERC20(settlements[ref].currency).transferFrom(settlements[ref].transferor, address(this), Math.mul(pay, fee))){                \n                IOrder(settlements[ref].orderPool).orderFilled(settlements[ref].partyRef, settlements[ref].counterpartyRef, settlements[ref].executionDate);\n                emit tradeSettled(settlements[ref].transferor, \n                                    settlements[ref].transferee, \n                                    settlements[ref].unitsToTransfer,\n                                    settlements[ref].security,\n                                    settlements[ref].price,\n                                    settlements[ref].currency\n                                );\n                for(uint i=0; i<trades[transferorDPID].length; i++){\n                    if(trades[transferorDPID][i]==ref){\n                        if(i==trades[transferorDPID].length-1)\n                            delete trades[transferorDPID][i];\n                        else\n                            trades[transferorDPID][i] = trades[transferorDPID][i+1];\n                    }\n                }\n                for(uint i=0; i<trades[transfereeDPID].length; i++){\n                    if(trades[transfereeDPID][i]==ref){\n                        if(i==trades[transfereeDPID].length-1)\n                            delete trades[transfereeDPID][i];\n                        else\n                            trades[transfereeDPID][i] = trades[transfereeDPID][i+1];\n                    }\n                }\n                settlements[ref].status = \"Confirm\";                \n            }\n            else{\n                IOrder(settlements[ref].orderPool).revertTrade(settlements[ref].partyRef, settlements[ref].unitsToTransfer, IOrder.Order.Sell, settlements[ref].executionDate);\n                IOrder(settlements[ref].orderPool).revertTrade(settlements[ref].counterpartyRef, settlements[ref].consideration, IOrder.Order.Buy, settlements[ref].executionDate);\n                IERC20(settlements[ref].currency).transferFrom(settlements[ref].transferor, settlements[ref].transferee, pay);\n                IERC20(settlements[ref].security).transferFrom(settlements[ref].transferee, settlements[ref].transferor, settlements[ref].unitsToTransfer);\n                settlements[ref].status = \"Fail\";\n            }\n        }\n        else if(status==\"Reject\"){\n            IOrder(settlements[ref].orderPool).revertTrade(settlements[ref].partyRef, settlements[ref].unitsToTransfer, IOrder.Order.Sell, settlements[ref].executionDate);\n            IOrder(settlements[ref].orderPool).revertTrade(settlements[ref].counterpartyRef, settlements[ref].consideration, IOrder.Order.Buy, settlements[ref].executionDate);\n            IERC20(settlements[ref].currency).transferFrom(settlements[ref].transferor, settlements[ref].transferee, pay);\n            IERC20(settlements[ref].security).transferFrom(settlements[ref].transferee, settlements[ref].transferor, settlements[ref].unitsToTransfer);\n            settlements[ref].status = \"Reject\";\n        }            \n    }\n\n    /**\n        Retrieve investors in secondary pools\n        @param  poolId  pool identity\n     */\n    function getSubscribers(bytes32 poolId, bytes32 _hashedMessage, uint8 _v, bytes32 _r, bytes32 _s) override external returns(subscriptions[] memory){\n        bytes32 payloadHash = keccak256(abi.encode(_hashedMessage, \"L2toL1\"));\n        bytes32 messageHash = keccak256(abi.encodePacked(\"\\x19Ethereum Signed Message:\\n32\", payloadHash));\n        require(ecrecover(messageHash, _v, _r, _s)== bridge || products.getHolder(products.getSecurity(poolSecurity[poolId]))==msg.sender, \"Unauthorized access viewing subscribers in secondary pool.\");\n        emit subscribers(poolSecurity[poolId], address(this), poolId, investors[poolId]);\n        return investors[poolId];\n    }\n\n    /**\n        Retrieve trade settlement\n        @param  ref settlement reference\n     */\n    function getTrade(bytes32 ref) external view override returns (uint256, uint256) {\n        return (settlements[ref].price, settlements[ref].askprice);\n    }\n\n    /**\n        Gets transfer agent for any of the parties in the trade\n        @param  party         reference to the party or counterparty in a trade\n     */\n    function getTransferAgent(address party) private view returns(bytes32){\n        return(client.getTransferAgent(party));\n    } \n\n    /**\n        Fetch trading fee collected in Balancer vault\n        @param  _token  address of token in which fee is collected\n     */\n    function getTradingFeeCollected(address _token) override external returns(uint256){\n        require(msg.sender==distribution, \"Unauthorized fee collection request\");\n        /*IERC20[] memory tokens = new IERC20[](1);\n        tokens[0] = IERC20(_token);\n        uint256[] memory amounts = IVault(vault).getProtocolFeesCollector().getCollectedFeeAmounts(tokens);\n        IVault(vault).getProtocolFeesCollector().withdrawCollectedFees(tokens, amounts, distribution);\n        return amounts[0];*/\n        uint256 feeCollected = fees[_token];\n        IERC20(_token).transfer(distribution, feeCollected);\n        fees[_token] = Math.sub(fees[_token], feeCollected);\n        return feeCollected;\n    }   \n\n    /**\n     * @dev This helper function is a fast and cheap way to convert between IERC20[] and IAsset[] types\n     */\n    function _convertERC20sToAssets(IERC20[] memory tokens) internal pure returns (IAsset[] memory assets) {\n        // solhint-disable-next-line no-inline-assembly\n        assembly {\n            assets := tokens\n        }\n    }\n\n    /**\n     * @dev Applies `scalingFactor` to `amount`, resulting in a larger or equal value depending on whether it needed\n     * scaling or not.\n     */\n    function _upscale(uint256 amount, uint256 scalingFactor) internal pure returns (uint256) {\n        // Upscale rounding wouldn't necessarily always go in the same direction: in a swap for example the balance of\n        // token in should be rounded up, and that of token out rounded down. This is the only place where we round in\n        // the same direction for all amounts, as the impact of this rounding is expected to be minimal (and there's no\n        // rounding error unless `_scalingFactor()` is overriden).\n        return FixedPoint.mulDown(amount, scalingFactor);\n    }\n\n    /**\n     * @dev Reverses the `scalingFactor` applied to `amount`, resulting in a smaller or equal value depending on\n     * whether it needed scaling or not. The result is rounded down.\n     */\n    function _downscaleDown(uint256 amount, uint256 scalingFactor) internal pure returns (uint256) {\n        return FixedPoint.divDown(amount, scalingFactor);\n    }\n\n    /**\n     * @dev Reverses the `scalingFactor` applied to `amount`, resulting in a smaller or equal value depending on\n     * whether it needed scaling or not. The result is rounded up.\n     */\n    function _downscaleUp(uint256 amount, uint256 scalingFactor) internal pure returns (uint256) {\n        return FixedPoint.divUp(amount, scalingFactor);\n    }\n\n}",
  "sourcePath": "D:\\Code\\verified-balancer\\contracts\\SecondaryIssueManager.sol",
  "compiler": {
    "name": "solc",
    "version": "0.7.1+commit.f4a555be.Emscripten.clang"
  },
  "schemaVersion": "3.4.3",
  "updatedAt": "2023-01-25T10:48:02.480Z",
  "networkType": "ethereum",
  "devdoc": {
    "kind": "dev",
    "methods": {
      "getSettlementRequest(bytes32)": {
        "params": {
          "ref": "reference to the trade"
        }
      },
      "getSettlementRequests(bytes32,bytes32)": {
        "params": {
          "dpid": "identifier of depository participant (eg, transfer agent) that is authorized to settle the asset "
        }
      },
      "getSubscribers(bytes32,bytes32,uint8,bytes32,bytes32)": {
        "params": {
          "poolId": "pool identity"
        }
      },
      "getTrade(bytes32)": {
        "params": {
          "ref": "settlement reference"
        }
      },
      "getTradingFeeCollected(address)": {
        "params": {
          "_token": "address of token in which fee is collected"
        }
      },
      "initialize(address,uint256,address,address,address,address)": {
        "params": {
          "_client": "address of Verified client contract",
          "_factory": "reference to the secondary issue pool factory contract",
          "_issueFeePercentage": "percentage of trading fee to be charged by the asset manager",
          "_vault": "address of balancer vault"
        }
      },
      "issueSecondary(address,address,uint256,uint256,uint256,bytes32,uint8,bytes32,bytes32)": {
        "params": {
          "cashAmount": "amount of currency issued in pool",
          "currency": "reference to cash (settlement) token",
          "minSecurityOrder": "minimum order size of securities issued in pool",
          "security": "reference to asset issued",
          "securityAmount": "amount of security to issue"
        }
      },
      "owner()": {
        "details": "Returns the address of the current owner."
      },
      "renounceOwnership()": {
        "details": "Leaves the contract without owner. It will not be possible to call `onlyOwner` functions anymore. Can only be called by the current owner. NOTE: Renouncing ownership will leave the contract without an owner, thereby removing any functionality that is only available to the owner."
      },
      "requestSettlement((bytes32,uint256,bytes32,uint256,uint256,uint256),address)": {
        "params": {
          "tradeToReport": "data structure holding order matching data"
        }
      },
      "setSettlementStatus(bytes32,bytes32)": {
        "params": {
          "ref": "reference to the trade executed",
          "status": "settlement status"
        }
      },
      "transferOwnership(address)": {
        "details": "Transfers ownership of the contract to a new account (`newOwner`). Can only be called by the current owner."
      }
    },
    "version": 1
  },
  "userdoc": {
    "kind": "user",
    "methods": {
      "getSettlementRequest(bytes32)": {
        "notice": "Fetches a specific trade settlement request        "
      },
      "getSettlementRequests(bytes32,bytes32)": {
        "notice": "Fetches trade settlement requests for depository participant"
      },
      "getSubscribers(bytes32,bytes32,uint8,bytes32,bytes32)": {
        "notice": "Retrieve investors in secondary pools"
      },
      "getTrade(bytes32)": {
        "notice": "Retrieve trade settlement"
      },
      "getTradingFeeCollected(address)": {
        "notice": "Fetch trading fee collected in Balancer vault"
      },
      "initialize(address,uint256,address,address,address,address)": {
        "notice": "Initializes this asset management contract"
      },
      "issueSecondary(address,address,uint256,uint256,uint256,bytes32,uint8,bytes32,bytes32)": {
        "notice": "Joins existing (secondary) tokenized assets into pool by primary issue token holders"
      },
      "requestSettlement((bytes32,uint256,bytes32,uint256,uint256,uint256),address)": {
        "notice": "Used by Secondary pools to request settlement for trades"
      },
      "setSettlementStatus(bytes32,bytes32)": {
        "notice": "Sets settlement status for trades executed"
      }
    },
    "version": 1
  }
}