{
  "contractName": "SecondaryIssueManager",
  "abi": [
    {
      "anonymous": false,
      "inputs": [
        {
          "indexed": true,
          "internalType": "address",
          "name": "previousOwner",
          "type": "address"
        },
        {
          "indexed": true,
          "internalType": "address",
          "name": "newOwner",
          "type": "address"
        }
      ],
      "name": "OwnershipTransferred",
      "type": "event"
    },
    {
      "anonymous": false,
      "inputs": [
        {
          "indexed": false,
          "internalType": "address",
          "name": "security",
          "type": "address"
        },
        {
          "indexed": false,
          "internalType": "address",
          "name": "platform",
          "type": "address"
        },
        {
          "indexed": false,
          "internalType": "bytes32",
          "name": "poolId",
          "type": "bytes32"
        },
        {
          "components": [
            {
              "internalType": "address",
              "name": "investor",
              "type": "address"
            },
            {
              "internalType": "address",
              "name": "asset",
              "type": "address"
            },
            {
              "internalType": "address",
              "name": "currency",
              "type": "address"
            },
            {
              "internalType": "uint256",
              "name": "amount",
              "type": "uint256"
            },
            {
              "internalType": "uint256",
              "name": "price",
              "type": "uint256"
            }
          ],
          "indexed": false,
          "internalType": "struct ISettlor.subscriptions[]",
          "name": "investors",
          "type": "tuple[]"
        }
      ],
      "name": "subscribers",
      "type": "event"
    },
    {
      "anonymous": false,
      "inputs": [
        {
          "indexed": true,
          "internalType": "address",
          "name": "transferor",
          "type": "address"
        },
        {
          "indexed": true,
          "internalType": "address",
          "name": "transferee",
          "type": "address"
        },
        {
          "indexed": false,
          "internalType": "uint256",
          "name": "unitsToTransfer",
          "type": "uint256"
        },
        {
          "indexed": false,
          "internalType": "address",
          "name": "security",
          "type": "address"
        },
        {
          "indexed": false,
          "internalType": "uint256",
          "name": "price",
          "type": "uint256"
        },
        {
          "indexed": false,
          "internalType": "address",
          "name": "currency",
          "type": "address"
        }
      ],
      "name": "tradeSettled",
      "type": "event"
    },
    {
      "inputs": [],
      "name": "factory",
      "outputs": [
        {
          "internalType": "contract ISecondaryIssuePoolFactory",
          "name": "",
          "type": "address"
        }
      ],
      "stateMutability": "view",
      "type": "function",
      "constant": true
    },
    {
      "inputs": [],
      "name": "owner",
      "outputs": [
        {
          "internalType": "address",
          "name": "",
          "type": "address"
        }
      ],
      "stateMutability": "view",
      "type": "function",
      "constant": true
    },
    {
      "inputs": [],
      "name": "renounceOwnership",
      "outputs": [],
      "stateMutability": "nonpayable",
      "type": "function"
    },
    {
      "inputs": [
        {
          "internalType": "address",
          "name": "newOwner",
          "type": "address"
        }
      ],
      "name": "transferOwnership",
      "outputs": [],
      "stateMutability": "nonpayable",
      "type": "function"
    },
    {
      "inputs": [
        {
          "internalType": "address",
          "name": "_factory",
          "type": "address"
        },
        {
          "internalType": "uint256",
          "name": "_issueFeePercentage",
          "type": "uint256"
        },
        {
          "internalType": "address",
          "name": "_client",
          "type": "address"
        },
        {
          "internalType": "address",
          "name": "_vault",
          "type": "address"
        },
        {
          "internalType": "address",
          "name": "_distribution",
          "type": "address"
        },
        {
          "internalType": "address",
          "name": "_products",
          "type": "address"
        }
      ],
      "name": "initialize",
      "outputs": [],
      "stateMutability": "nonpayable",
      "type": "function"
    },
    {
      "inputs": [
        {
          "internalType": "address",
          "name": "_signer",
          "type": "address"
        }
      ],
      "name": "setSigner",
      "outputs": [],
      "stateMutability": "nonpayable",
      "type": "function"
    },
    {
      "inputs": [
        {
          "internalType": "address",
          "name": "security",
          "type": "address"
        },
        {
          "internalType": "address",
          "name": "currency",
          "type": "address"
        },
        {
          "internalType": "uint256",
          "name": "securityAmount",
          "type": "uint256"
        },
        {
          "internalType": "uint256",
          "name": "cashAmount",
          "type": "uint256"
        },
        {
          "internalType": "bytes32",
          "name": "_hashedMessage",
          "type": "bytes32"
        },
        {
          "internalType": "uint8",
          "name": "_v",
          "type": "uint8"
        },
        {
          "internalType": "bytes32",
          "name": "_r",
          "type": "bytes32"
        },
        {
          "internalType": "bytes32",
          "name": "_s",
          "type": "bytes32"
        }
      ],
      "name": "issueSecondary",
      "outputs": [],
      "stateMutability": "nonpayable",
      "type": "function"
    },
    {
      "inputs": [
        {
          "components": [
            {
              "internalType": "bytes32",
              "name": "partyRef",
              "type": "bytes32"
            },
            {
              "internalType": "uint256",
              "name": "partyInAmount",
              "type": "uint256"
            },
            {
              "internalType": "bytes32",
              "name": "counterpartyRef",
              "type": "bytes32"
            },
            {
              "internalType": "uint256",
              "name": "counterpartyInAmount",
              "type": "uint256"
            },
            {
              "internalType": "uint256",
              "name": "price",
              "type": "uint256"
            },
            {
              "internalType": "uint256",
              "name": "dt",
              "type": "uint256"
            }
          ],
          "internalType": "struct ITrade.trade",
          "name": "tradeToReport",
          "type": "tuple"
        },
        {
          "internalType": "contract IOrder",
          "name": "orderbook",
          "type": "address"
        }
      ],
      "name": "requestSettlement",
      "outputs": [],
      "stateMutability": "nonpayable",
      "type": "function"
    },
    {
      "inputs": [
        {
          "internalType": "bytes32",
          "name": "dpid",
          "type": "bytes32"
        }
      ],
      "name": "getSettlementRequests",
      "outputs": [
        {
          "internalType": "bytes32[]",
          "name": "",
          "type": "bytes32[]"
        }
      ],
      "stateMutability": "view",
      "type": "function",
      "constant": true
    },
    {
      "inputs": [
        {
          "internalType": "bytes32",
          "name": "ref",
          "type": "bytes32"
        }
      ],
      "name": "getSettlementRequest",
      "outputs": [
        {
          "components": [
            {
              "internalType": "address",
              "name": "transferor",
              "type": "address"
            },
            {
              "internalType": "address",
              "name": "transferee",
              "type": "address"
            },
            {
              "internalType": "address",
              "name": "security",
              "type": "address"
            },
            {
              "internalType": "bytes32",
              "name": "status",
              "type": "bytes32"
            },
            {
              "internalType": "bytes32",
              "name": "transferorDPID",
              "type": "bytes32"
            },
            {
              "internalType": "bytes32",
              "name": "transfereeDPID",
              "type": "bytes32"
            },
            {
              "internalType": "address",
              "name": "currency",
              "type": "address"
            },
            {
              "internalType": "uint256",
              "name": "price",
              "type": "uint256"
            },
            {
              "internalType": "uint256",
              "name": "askprice",
              "type": "uint256"
            },
            {
              "internalType": "uint256",
              "name": "unitsToTransfer",
              "type": "uint256"
            },
            {
              "internalType": "uint256",
              "name": "consideration",
              "type": "uint256"
            },
            {
              "internalType": "uint256",
              "name": "executionDate",
              "type": "uint256"
            },
            {
              "internalType": "contract IOrder",
              "name": "orderPool",
              "type": "address"
            },
            {
              "internalType": "bytes32",
              "name": "partyRef",
              "type": "bytes32"
            },
            {
              "internalType": "bytes32",
              "name": "counterpartyRef",
              "type": "bytes32"
            }
          ],
          "internalType": "struct ISettlor.settlement",
          "name": "",
          "type": "tuple"
        }
      ],
      "stateMutability": "view",
      "type": "function",
      "constant": true
    },
    {
      "inputs": [
        {
          "internalType": "bytes32",
          "name": "ref",
          "type": "bytes32"
        },
        {
          "internalType": "bytes32",
          "name": "status",
          "type": "bytes32"
        }
      ],
      "name": "setSettlementStatus",
      "outputs": [],
      "stateMutability": "nonpayable",
      "type": "function"
    },
    {
      "inputs": [
        {
          "internalType": "bytes32",
          "name": "poolId",
          "type": "bytes32"
        },
        {
          "internalType": "bytes32",
          "name": "_hashedMessage",
          "type": "bytes32"
        },
        {
          "internalType": "uint8",
          "name": "_v",
          "type": "uint8"
        },
        {
          "internalType": "bytes32",
          "name": "_r",
          "type": "bytes32"
        },
        {
          "internalType": "bytes32",
          "name": "_s",
          "type": "bytes32"
        }
      ],
      "name": "getSubscribers",
      "outputs": [
        {
          "components": [
            {
              "internalType": "address",
              "name": "investor",
              "type": "address"
            },
            {
              "internalType": "address",
              "name": "asset",
              "type": "address"
            },
            {
              "internalType": "address",
              "name": "currency",
              "type": "address"
            },
            {
              "internalType": "uint256",
              "name": "amount",
              "type": "uint256"
            },
            {
              "internalType": "uint256",
              "name": "price",
              "type": "uint256"
            }
          ],
          "internalType": "struct ISettlor.subscriptions[]",
          "name": "",
          "type": "tuple[]"
        }
      ],
      "stateMutability": "nonpayable",
      "type": "function"
    },
    {
      "inputs": [
        {
          "internalType": "bytes32",
          "name": "ref",
          "type": "bytes32"
        }
      ],
      "name": "getTrade",
      "outputs": [
        {
          "internalType": "uint256",
          "name": "",
          "type": "uint256"
        },
        {
          "internalType": "uint256",
          "name": "",
          "type": "uint256"
        }
      ],
      "stateMutability": "view",
      "type": "function",
      "constant": true
    },
    {
      "inputs": [
        {
          "internalType": "address",
          "name": "_token",
          "type": "address"
        }
      ],
      "name": "getTradingFeeCollected",
      "outputs": [
        {
          "internalType": "uint256",
          "name": "",
          "type": "uint256"
        }
      ],
      "stateMutability": "nonpayable",
      "type": "function"
    }
  ],
  "bytecode": "0x608060405234801561001057600080fd5b50600080546001600160a01b0319163390811782556040519091907f8be0079c531659141344cd1fd0a4f28419497f9722a3daafe3b4186f6b6457e0908290a36133ca8061005f6000396000f3fe608060405234801561001057600080fd5b50600436106100ea5760003560e01c80638da5cb5b1161008c578063c45a015511610066578063c45a0155146101e4578063e94a5aa6146101ec578063f1a163c1146101ff578063f2fde38b1461021f576100ea565b80638da5cb5b1461019b578063a2dc2ab7146101b0578063a3b13799146101c3576100ea565b80632d916746116100c85780632d916746146101405780636c19e78314610160578063715018a61461017357806379a7dc0e1461017b576100ea565b806304967159146100ef57806313b63094146101045780632ac53ebd14610117575b600080fd5b6101026100fd366004612870565b610232565b005b610102610112366004612a46565b610b08565b61012a610125366004612840565b6112f1565b6040516101379190612cb5565b60405180910390f35b61015361014e3660046125f9565b6113fe565b6040516101379190612dda565b61010261016e3660046125f9565b611673565b6101026116b3565b61018e610189366004612840565b611709565b60405161013791906131ff565b6101a36117f8565b6040516101379190612bb4565b6101026101be3660046126a9565b611807565b6101d66101d1366004612840565b611879565b604051610137929190612b75565b6101a3611896565b6101026101fa366004612631565b6118a5565b61021261020d3660046128b4565b611f3e565b6040516101379190612d51565b61010261022d3660046125f9565b612237565b600a54604051634427673360e01b815260009182916001600160a01b0390911690634427673390610267903390600401612bb4565b604080518083038186803b15801561027e57600080fd5b505afa158015610292573d6000803e3d6000fd5b505050506040513d601f19601f820116820180604052508101906102b69190612891565b915091508161044560f41b146102e75760405162461bcd60e51b81526004016102de9061307e565b60405180910390fd5b600084815260056020819052604090912060048101549101548282148061030d57508083145b6103295760405162461bcd60e51b81526004016102de90612f8d565b8466436f6e6669726d60c81b14806103495750846514995a9958dd60d21b145b6103655760405162461bcd60e51b81526004016102de90612fde565b600086815260056020526040812060030186905566436f6e6669726d60c81b8614156109c357600087815260056020526040812060078101546009909101546103ae91906122b5565b6000898152600560205260409081902060068101546001820154915492516323b872dd60e01b81529394506001600160a01b03908116936323b872dd936103fe9383169216908690600401612c91565b602060405180830381600087803b15801561041857600080fd5b505af115801561042c573d6000803e3d6000fd5b505050506040513d601f19601f820116820180604052508101906104509190612820565b156109bd576000888152600560205260409081902060028101548154600183015460099093015493516323b872dd60e01b81526001600160a01b03928316946323b872dd946104a794938416931691600401612c91565b602060405180830381600087803b1580156104c157600080fd5b505af11580156104d5573d6000803e3d6000fd5b505050506040513d601f19601f820116820180604052508101906104f99190612820565b915081156107f35760008881526005602052604090819020600c810154600d820154600e830154600b9093015493516381b5da1d60e01b81526001600160a01b03909216936381b5da1d9361055393909190600401612eb4565b600060405180830381600087803b15801561056d57600080fd5b505af1158015610581573d6000803e3d6000fd5b505050600089815260056020526040908190206001810154815460098301546002840154600785015460069095015495516001600160a01b039485169750928416957fdb2a2159f49495b71579b052eff497e50c97deeb73b10e7e46de4f669dcb58f7956105f99593949284169390929116906132d2565b60405180910390a360005b6000858152600660205260409020548110156106e757600085815260066020526040902080548a91908390811061063757fe5b906000526020600020015414156106df576000858152600660205260409020546000190181141561068c57600085815260066020526040902080548290811061067c57fe5b60009182526020822001556106df565b60008581526006602052604090208054600183019081106106a957fe5b90600052602060002001546006600087815260200190815260200160002082815481106106d257fe5b6000918252602090912001555b600101610604565b5060005b6000848152600660205260409020548110156107ce57600084815260066020526040902080548a91908390811061071e57fe5b906000526020600020015414156107c6576000848152600660205260409020546000190181141561077357600084815260066020526040902080548290811061076357fe5b60009182526020822001556107c6565b600084815260066020526040902080546001830190811061079057fe5b90600052602060002001546006600086815260200190815260200160002082815481106107b957fe5b6000918252602090912001555b6001016106eb565b50600088815260056020526040902066436f6e6669726d60c81b6003909101556109bd565b60008881526005602052604090819020600c810154600d8201546009830154600b9093015493516315e319fb60e31b81526001600160a01b039092169363af18cfd893610847939091600191600401612ef1565b600060405180830381600087803b15801561086157600080fd5b505af1158015610875573d6000803e3d6000fd5b505050600089815260056020526040808220600c810154600e820154600a830154600b9093015493516315e319fb60e31b81526001600160a01b03909216955063af18cfd8946108cd94919392909190600401612ef1565b600060405180830381600087803b1580156108e757600080fd5b505af11580156108fb573d6000803e3d6000fd5b505050600089815260056020526040908190206006810154815460019092015492516323b872dd60e01b81526001600160a01b0391821694506323b872dd9361094d9383169216908690600401612c91565b602060405180830381600087803b15801561096757600080fd5b505af115801561097b573d6000803e3d6000fd5b505050506040513d601f19601f8201168201806040525081019061099f9190612820565b5060008881526005602052604090206311985a5b60e21b6003909101555b50610aff565b856514995a9958dd60d21b1415610aff5760008781526005602052604090819020600c810154600d8201546009830154600b9093015493516315e319fb60e31b81526001600160a01b039092169363af18cfd893610a28939091600191600401612ef1565b600060405180830381600087803b158015610a4257600080fd5b505af1158015610a56573d6000803e3d6000fd5b505050600088815260056020526040808220600c810154600e820154600a830154600b9093015493516315e319fb60e31b81526001600160a01b03909216955063af18cfd894610aae94919392909190600401612ef1565b600060405180830381600087803b158015610ac857600080fd5b505af1158015610adc573d6000803e3d6000fd5b50505060008881526005602052604090206514995a9958dd60d21b600390910155505b50505050505050565b33600090815260076020526040902054610b345760405162461bcd60e51b81526004016102de90613119565b610b3c612445565b8251604051632bbc239560e11b81526001600160a01b03841691635778472a91610b699190600401612dda565b6101406040518083038186803b158015610b8257600080fd5b505afa158015610b96573d6000803e3d6000fd5b505050506040513d601f19601f82011682018060405250810190610bba9190612987565b9050610bc4612445565b6040808501519051632bbc239560e11b81526001600160a01b03851691635778472a91610bf49190600401612dda565b6101406040518083038186803b158015610c0d57600080fd5b505afa158015610c21573d6000803e3d6000fd5b505050506040513d601f19601f82011682018060405250810190610c459190612987565b90506000836001600160a01b0316632541897f6040518163ffffffff1660e01b815260040160206040518083038186803b158015610c8257600080fd5b505afa158015610c96573d6000803e3d6000fd5b505050506040513d601f19601f82011682018060405250810190610cba9190612615565b90506000846001600160a01b0316636945c1fd6040518163ffffffff1660e01b815260040160206040518083038186803b158015610cf757600080fd5b505afa158015610d0b573d6000803e3d6000fd5b505050506040513d601f19601f82011682018060405250810190610d2f9190612615565b90506000826001600160a01b031685602001516001600160a01b031614610d5a578360e00151610d60565b8460e001515b90506000836001600160a01b031685602001516001600160a01b031614610d8b578560e00151610d91565b8460e001515b90506000846001600160a01b031687602001516001600160a01b031614610dbc578860600151610dc2565b88602001515b90506000610dcf846122e2565b90506000610ddc846122e2565b9050610de661249c565b604051806101e00160405280876001600160a01b03168152602001866001600160a01b03168152602001896001600160a01b031681526020016650656e64696e6760c81b8152602001838152602001848152602001886001600160a01b031681526020018d608001518152602001610e8c896001600160a01b03168d602001516001600160a01b031614610e7e578e60600151610e84565b8e602001515b876000612362565b8152602001858152602001610ea58e60800151876122b5565b81526020018d60a0015181526020018c6001600160a01b03168152602001896001600160a01b03168c602001516001600160a01b031614610eea578d60400151610eed565b8d515b8152602001896001600160a01b03168b602001516001600160a01b031614610f16578d51610f1c565b8d604001515b815250905060008c600001518d60400151604051602001610f3e929190612b75565b60408051601f198184030181529181528151602092830120600081815260059093529120549091506001600160a01b03166112e257816005600083815260200190815260200160002060008201518160000160006101000a8154816001600160a01b0302191690836001600160a01b0316021790555060208201518160010160006101000a8154816001600160a01b0302191690836001600160a01b0316021790555060408201518160020160006101000a8154816001600160a01b0302191690836001600160a01b03160217905550606082015181600301556080820151816004015560a0820151816005015560c08201518160060160006101000a8154816001600160a01b0302191690836001600160a01b0316021790555060e082015181600701556101008201518160080155610120820151816009015561014082015181600a015561016082015181600b015561018082015181600c0160006101000a8154816001600160a01b0302191690836001600160a01b031602179055506101a082015181600d01556101c082015181600e0155905050600960008d6001600160a01b03166338fff2d06040518163ffffffff1660e01b815260040160206040518083038186803b15801561111357600080fd5b505afa158015611127573d6000803e3d6000fd5b505050506040513d601f19601f8201168201806040525081019061114b9190612858565b81526020019081526020016000206040518060a00160405280886001600160a01b031681526020018b6001600160a01b031681526020018a6001600160a01b031681526020018781526020018f60800151815250908060018154018082558091505060019003906000526020600020906005020160009091909190915060008201518160000160006101000a8154816001600160a01b0302191690836001600160a01b0316021790555060208201518160010160006101000a8154816001600160a01b0302191690836001600160a01b0316021790555060408201518160020160006101000a8154816001600160a01b0302191690836001600160a01b03160217905550606082015181600301556080820151816004015550506006600083608001518152602001908152602001600020819080600181540180825580915050600190039060005260206000200160009091909190915055600660008360a0015181526020019081526020016000208190806001815401808255809150506001900390600052602060002001600090919091909150555b50505050505050505050505050565b600a54604051634427673360e01b81526060916000916001600160a01b0390911690634427673390611327903390600401612bb4565b604080518083038186803b15801561133e57600080fd5b505afa158015611352573d6000803e3d6000fd5b505050506040513d601f19601f820116820180604052508101906113769190612891565b5090508061044560f41b1461139d5760405162461bcd60e51b81526004016102de90613015565b600083815260066020908152604091829020805483518184028101840190945280845290918301828280156113f157602002820191906000526020600020905b8154815260200190600101908083116113dd575b5050505050915050919050565b600c546000906001600160a01b0316331461142b5760405162461bcd60e51b81526004016102de906131bc565b60408051600180825281830190925260609160208083019080368337019050509050828160008151811061145b57fe5b6001600160a01b039283166020918202929092018101919091526003546040805163d2946c2b60e01b81529051606094929092169263d2946c2b92600480840193829003018186803b1580156114b057600080fd5b505afa1580156114c4573d6000803e3d6000fd5b505050506040513d601f19601f820116820180604052508101906114e89190612615565b6001600160a01b031663e42abf35836040518263ffffffff1660e01b81526004016115139190612cf9565b60006040518083038186803b15801561152b57600080fd5b505afa15801561153f573d6000803e3d6000fd5b505050506040513d6000823e601f3d908101601f1916820160405261156791908101906127ed565b9050600360009054906101000a90046001600160a01b03166001600160a01b031663d2946c2b6040518163ffffffff1660e01b815260040160206040518083038186803b1580156115b757600080fd5b505afa1580156115cb573d6000803e3d6000fd5b505050506040513d601f19601f820116820180604052508101906115ef9190612615565b600c546040516336d77d5b60e11b81526001600160a01b0392831692636daefab69261162392879287921690600401612d13565b600060405180830381600087803b15801561163d57600080fd5b505af1158015611651573d6000803e3d6000fd5b505050508060008151811061166257fe5b602002602001015192505050919050565b6116913361167f6117f8565b6001600160a01b0316146101aa61238a565b600b80546001600160a01b0319166001600160a01b0392909216919091179055565b6116bf3361167f6117f8565b600080546040516001600160a01b03909116907f8be0079c531659141344cd1fd0a4f28419497f9722a3daafe3b4186f6b6457e0908390a3600080546001600160a01b0319169055565b61171161249c565b8161172e5760405162461bcd60e51b81526004016102de90613015565b5060009081526005602081815260409283902083516101e08101855281546001600160a01b0390811682526001830154811693820193909352600282015483169481019490945260038101546060850152600481015460808501529182015460a08401526006820154811660c0840152600782015460e084015260088201546101008401526009820154610120840152600a820154610140840152600b820154610160840152600c82015416610180830152600d8101546101a0830152600e01546101c082015290565b6000546001600160a01b031690565b6118133361167f6117f8565b600180546001600160a01b03199081166001600160a01b0398891617909155600495909555600a80548616948716949094179093556003805485169286169290921790915560028054841692851692909217909155600c80549092169216919091179055565b600090815260056020526040902060078101546008909101549091565b6001546001600160a01b031681565b6000846040516020016118b89190612eca565b6040516020818303038152906040528051906020012090506000816040516020016118e39190612b83565b60408051601f198184030181528282528051602091820120600b5460008552939091019182905292506001600160a01b039091169060019061192c908490899089908990612f1b565b6020604051602081039080840390855afa15801561194e573d6000803e3d6000fd5b505050602060405103516001600160a01b03161480611a7057506040516370a0823160e01b815288906001600160a01b038c16906370a0823190611996903390600401612bb4565b60206040518083038186803b1580156119ae57600080fd5b505afa1580156119c2573d6000803e3d6000fd5b505050506040513d601f19601f820116820180604052508101906119e69190612858565b10158015611a7057506040516370a0823160e01b815287906001600160a01b038b16906370a0823190611a1d903390600401612bb4565b60206040518083038186803b158015611a3557600080fd5b505afa158015611a49573d6000803e3d6000fd5b505050506040513d601f19601f82011682018060405250810190611a6d9190612858565b10155b611a8c5760405162461bcd60e51b81526004016102de906130cb565b6000600160009054906101000a90046001600160a01b03166001600160a01b03166374dcc7a48c6001600160a01b03166306fdde036040518163ffffffff1660e01b815260040160006040518083038186803b158015611aeb57600080fd5b505afa158015611aff573d6000803e3d6000fd5b505050506040513d6000823e601f3d908101601f19168201604052611b2791908101906128fb565b8d6001600160a01b03166395d89b416040518163ffffffff1660e01b815260040160006040518083038186803b158015611b6057600080fd5b505afa158015611b74573d6000803e3d6000fd5b505050506040513d6000823e601f3d908101601f19168201604052611b9c91908101906128fb565b8e8e8e6004546040518763ffffffff1660e01b8152600401611bc396959493929190612f39565b602060405180830381600087803b158015611bdd57600080fd5b505af1158015611bf1573d6000803e3d6000fd5b505050506040513d601f19601f82011682018060405250810190611c159190612615565b90506000816001600160a01b03166338fff2d06040518163ffffffff1660e01b815260040160206040518083038186803b158015611c5257600080fd5b505afa158015611c66573d6000803e3d6000fd5b505050506040513d601f19601f82011682018060405250810190611c8a9190612858565b90508b6008600083815260200190815260200160002060006101000a8154816001600160a01b0302191690836001600160a01b031602179055508060076000846001600160a01b03166001600160a01b03168152602001908152602001600020819055506060600360009054906101000a90046001600160a01b03166001600160a01b031663f94d4668836040518263ffffffff1660e01b8152600401611d319190612dda565b60006040518083038186803b158015611d4957600080fd5b505afa158015611d5d573d6000803e3d6000fd5b505050506040513d6000823e601f3d908101601f19168201604052611d859190810190612721565b505090506060611d948261239c565b90506060825167ffffffffffffffff81118015611db057600080fd5b50604051908082528060200260200182016040528015611dda578160200160208202803683370190505b50905060005b8351811015611e83578f6001600160a01b0316848281518110611dff57fe5b60200260200101516001600160a01b03161415611e34578d828281518110611e2357fe5b602002602001018181525050611e7b565b8e6001600160a01b0316848281518110611e4a57fe5b60200260200101516001600160a01b03161415611e7b578c828281518110611e6e57fe5b6020026020010181815250505b600101611de0565b50611e8c612518565b50604080516080810182528381526020808201849052825180840184526002815261060f60f31b918101919091528183015260006060820152600354915163172b958560e31b815290916001600160a01b03169063b95cac2890611efa908890309081908790600401612de3565b600060405180830381600087803b158015611f1457600080fd5b505af1158015611f28573d6000803e3d6000fd5b5050505050505050505050505050505050505050565b6060600085604051602001611f539190612eca565b604051602081830303815290604052805190602001209050600081604051602001611f7e9190612b83565b60408051601f198184030181528282528051602091820120600b5460008552939091019182905292506001600160a01b0390911690600190611fc79084908a908a908a90612f1b565b6020604051602081039080840390855afa158015611fe9573d6000803e3d6000fd5b505050602060405103516001600160a01b03161480612115575060025460008981526008602052604090819020549051634a161b2760e01b815233926001600160a01b039081169263cd75c7d4928492634a161b279261204e92911690600401612bb4565b60206040518083038186803b15801561206657600080fd5b505afa15801561207a573d6000803e3d6000fd5b505050506040513d601f19601f8201168201806040525081019061209e9190612615565b6040518263ffffffff1660e01b81526004016120ba9190612bb4565b60206040518083038186803b1580156120d257600080fd5b505afa1580156120e6573d6000803e3d6000fd5b505050506040513d601f19601f8201168201806040525081019061210a9190612615565b6001600160a01b0316145b6121315760405162461bcd60e51b81526004016102de9061315f565b60008881526008602090815260408083205460099092529182902091517fe804af70c0bbbd9ac69c10dc694dbc850d65bccf5aab17d1b159b3dd6222ff0a92612187926001600160a01b03169130918d91612bc8565b60405180910390a1600088815260096020908152604080832080548251818502810185019093528083529193909284015b828210156122265760008481526020908190206040805160a0810182526005860290920180546001600160a01b0390811684526001808301548216858701526002830154909116928401929092526003810154606084015260040154608083015290835290920191016121b8565b505050509250505095945050505050565b6122433361167f6117f8565b61225a6001600160a01b03821615156101ab61238a565b600080546040516001600160a01b03808516939216917f8be0079c531659141344cd1fd0a4f28419497f9722a3daafe3b4186f6b6457e091a3600080546001600160a01b0319166001600160a01b0392909216919091179055565b60008282026122d98415806122d25750838583816122cf57fe5b04145b600361238a565b90505b92915050565b600a5460405162157d5560e61b81526000916001600160a01b03169063055f554090612312908590600401612bb4565b60206040518083038186803b15801561232a57600080fd5b505afa15801561233e573d6000803e3d6000fd5b505050506040513d601f19601f820116820180604052508101906122dc9190612858565b60008161237857612373848461239f565b612382565b61238284846123bf565b949350505050565b8161239857612398816123f2565b5050565b90565b60006123ae821515600461238a565b8183816123b757fe5b049392505050565b60006123ce821515600461238a565b826123db575060006122dc565b8160018403816123e757fe5b0460010190506122dc565b62461bcd60e51b6000908152602060045260076024526642414c23000030600a808404818106603090810160081b95839006959095019082900491820690940160101b939093010160c81b604452606490fd5b60408051610140810190915280600081526000602082018190526040820181905260609091019081526020016000815260200160008152600060208201819052604082018190526060820181905260809091015290565b604080516101e081018252600080825260208201819052918101829052606081018290526080810182905260a0810182905260c0810182905260e08101829052610100810182905261012081018290526101408101829052610160810182905261018081018290526101a081018290526101c081019190915290565b60405180608001604052806060815260200160608152602001606081526020016000151581525090565b80516122dc8161337c565b600082601f83011261255d578081fd5b815161257061256b82613320565b6132f9565b81815291506020808301908481018184028601820187101561259157600080fd5b60005b848110156125b057815184529282019290820190600101612594565b505050505092915050565b8051600581106122dc57600080fd5b8051600381106122dc57600080fd5b8051600281106122dc57600080fd5b803560ff811681146122dc57600080fd5b60006020828403121561260a578081fd5b81356122d98161337c565b600060208284031215612626578081fd5b81516122d98161337c565b600080600080600080600080610100898b03121561264d578384fd5b88356126588161337c565b975060208901356126688161337c565b965060408901359550606089013594506080890135935061268c8a60a08b016125e8565b925060c0890135915060e089013590509295985092959890939650565b60008060008060008060c087890312156126c1578384fd5b86356126cc8161337c565b95506020870135945060408701356126e38161337c565b935060608701356126f38161337c565b925060808701356127038161337c565b915060a08701356127138161337c565b809150509295509295509295565b600080600060608486031215612735578081fd5b835167ffffffffffffffff8082111561274c578283fd5b818601915086601f83011261275f578283fd5b815161276d61256b82613320565b80828252602080830192508086018b82838702890101111561278d578788fd5b8796505b848710156127b85780516127a48161337c565b845260019690960195928101928101612791565b5089015190975093505050808211156127cf578283fd5b506127dc8682870161254d565b925050604084015190509250925092565b6000602082840312156127fe578081fd5b815167ffffffffffffffff811115612814578182fd5b6123828482850161254d565b600060208284031215612831578081fd5b815180151581146122d9578182fd5b600060208284031215612851578081fd5b5035919050565b600060208284031215612869578081fd5b5051919050565b60008060408385031215612882578182fd5b50508035926020909101359150565b600080604083850312156128a3578182fd5b505080516020909101519092909150565b600080600080600060a086880312156128cb578283fd5b85359450602086013593506128e387604088016125e8565b94979396509394606081013594506080013592915050565b60006020828403121561290c578081fd5b815167ffffffffffffffff80821115612923578283fd5b818401915084601f830112612936578283fd5b815181811115612944578384fd5b612957601f8201601f19166020016132f9565b915080825285602082850101111561296d578384fd5b61297e81602084016020860161334c565b50949350505050565b600061014080838503121561299a578182fd5b6129a3816132f9565b90506129af84846125d9565b81526129be8460208501612542565b60208201526129d08460408501612542565b60408201526129e284606085016125ca565b60608201526129f484608085016125d9565b6080820152612a068460a085016125bb565b60a082015260c083015160c0820152612a228460e08501612542565b60e08201526101008381015190820152610120928301519281019290925250919050565b60008082840360e0811215612a59578283fd5b60c0811215612a66578283fd5b50612a7160c06132f9565b833581526020840135602082015260408401356040820152606084013560608201526080840135608082015260a084013560a08201528092505060c0830135612ab98161337c565b809150509250929050565b6001600160a01b03169052565b6000815180845260208085019450808401835b83811015612b095781516001600160a01b031687529582019590820190600101612ae4565b509495945050505050565b6000815180845260208085019450808401835b83811015612b0957815187529582019590820190600101612b27565b15159052565b60008151808452612b6181602086016020860161334c565b601f01601f19169290920160200192915050565b918252602082015260400190565b7f19457468657265756d205369676e6564204d6573736167653a0a3332000000008152601c810191909152603c0190565b6001600160a01b0391909116815260200190565b6000608080830160018060a01b0380891685526020818916818701526040915087828701526060848188015283885480865260a095508589019150898852838820885b82811015612c7e57612c2684612c218454613340565b612ac4565b612c336001830154613340565b612c3f87860182612ac4565b50612c4d6002830154613340565b612c5988860182612ac4565b5060038201548486015260048201548985015292870192600590910190600101612c0b565b50919d9c50505050505050505050505050565b6001600160a01b039384168152919092166020820152604081019190915260600190565b6020808252825182820181905260009190848201906040850190845b81811015612ced57835183529284019291840191600101612cd1565b50909695505050505050565b600060208252612d0c6020830184612ad1565b9392505050565b600060608252612d266060830186612ad1565b8281036020840152612d388186612b14565b91505060018060a01b0383166040830152949350505050565b602080825282518282018190526000919060409081850190868401855b82811015612dcd57815180516001600160a01b0316855286810151612d9588870182612ac4565b5085810151612da687870182612ac4565b50606081810151908601526080908101519085015260a09093019290850190600101612d6e565b5091979650505050505050565b90815260200190565b8481526001600160a01b038481166020808401919091529084166040830152608060608301819052835181840191909152805161010084018190526000929182019083906101208601905b80831015612e5657612e408451613340565b8252928401926001929092019190840190612e2e565b50838701519350607f199250828682030160a0870152612e768185612b14565b935050506040850151818584030160c0860152612e938382612b49565b925050506060840151612ea960e0850182612b43565b509695505050505050565b9283526020830191909152604082015260600190565b908152604060208201819052600690820152654c32746f4c3160d01b606082015260800190565b848152602081018490526080810160028410612f0957fe5b60408201939093526060015292915050565b93845260ff9290921660208401526040830152606082015260800190565b600060c08252612f4c60c0830189612b49565b8281036020840152612f5e8189612b49565b6001600160a01b03978816604085015295909616606083015250608081019290925260a0909101529392505050565b60208082526031908201527f536574746c656d656e7420646f6e6520627920696e76616c6964206465706f736040820152701a5d185c9e481c185c9d1a58da5c185b9d607a1b606082015260800190565b60208082526019908201527f536574746c656d656e742073746174757320696e76616c696400000000000000604082015260600190565b60208082526043908201527f536574746c656d656e742072657175657374732063616e206f6e6c792062652060408201527f666574636865642062792061206465706f736974617279207061727469636970606082015262185b9d60ea1b608082015260a00190565b6020808252602d908201527f536574746c656d656e74206e6f7420646f6e65206279206465706f736974617260408201526c1e481c185c9d1a58da5c185b9d609a1b606082015260800190565b6020808252602e908201527f556e617574686f72697a65642061636365737320746f207365636f6e6461727960408201526d1034b9b9bab29036b0b730b3b2b960911b606082015260800190565b60208082526026908201527f536574746c656d656e74207265717565737465642066726f6d20696e76616c6960408201526519081c1bdbdb60d21b606082015260800190565b6020808252603a908201527f556e617574686f72697a6564206163636573732076696577696e67207375627360408201527f6372696265727320696e207365636f6e6461727920706f6f6c2e000000000000606082015260800190565b60208082526023908201527f556e617574686f72697a65642066656520636f6c6c656374696f6e2072657175604082015262195cdd60ea1b606082015260800190565b60006101e082019050613213828451612ac4565b60208301516132256020840182612ac4565b5060408301516132386040840182612ac4565b50606083015160608301526080830151608083015260a083015160a083015260c083015161326960c0840182612ac4565b5060e083810151908301526101008084015190830152610120808401519083015261014080840151908301526101608084015190830152610180808401516132b382850182612ac4565b50506101a083810151908301526101c092830151929091019190915290565b9384526001600160a01b039283166020850152604084019190915216606082015260800190565b60405181810167ffffffffffffffff8111828210171561331857600080fd5b604052919050565b600067ffffffffffffffff821115613336578081fd5b5060209081020190565b6001600160a01b031690565b60005b8381101561336757818101518382015260200161334f565b83811115613376576000848401525b50505050565b6001600160a01b038116811461339157600080fd5b5056fea2646970667358221220826d14cca699c5a3776b59c2e29d06cbb03101cc929324ed8524779b2dabe67564736f6c63430007010033",
  "immutableReferences": {},
  "source": "// External interface for settlement of trades\n// (c) Kallol Borah, 2022\n// \"SPDX-License-Identifier: BUSL1.1\"\n\npragma solidity 0.7.1;\npragma experimental ABIEncoderV2;\n\nimport \"./interfaces/ISettlor.sol\";\nimport \"./interfaces/IOrder.sol\";\nimport \"./interfaces/ITrade.sol\";\nimport './interfaces/IFactory.sol';\nimport './interfaces/VerifiedClient.sol';\nimport \"./interfaces/ISecondaryIssuePool.sol\";\nimport \"./interfaces/ISecondaryIssuePoolFactory.sol\";\n\nimport \"@balancer-labs/v2-solidity-utils/contracts/math/Math.sol\";\nimport \"@balancer-labs/v2-solidity-utils/contracts/openzeppelin/ERC20.sol\";\nimport \"@balancer-labs/v2-solidity-utils/contracts/openzeppelin/IERC20.sol\";\nimport \"@balancer-labs/v2-solidity-utils/contracts/openzeppelin/Ownable.sol\";\n \ncontract SecondaryIssueManager is ISettlor, Ownable {\n\n    using Math for uint256;\n\n    // balancer variables\n    ISecondaryIssuePoolFactory public factory;\n\n    // reference to the Verified factory contract that this asset manager checks security token issues with\n    IFactory products;\n\n    IVault vault;\n\n    //fee\n    uint256 fee;\n\n    // mapping settlement ref to trade execution data\n    mapping(bytes32 => ISettlor.settlement) settlements;\n\n    //mapping depository participants to trades they are part of\n    mapping(bytes32 => bytes32[]) private trades;\n\n    //mapping pool address to pool id\n    mapping(address => bytes32) private pools;\n\n    //mapping pool id to security token traded\n    mapping(bytes32 => address) private poolSecurity;\n\n    //mapping pool id to investors\n    mapping(bytes32 => subscriptions[]) internal investors; \n\n    // reference to the Verified Client contract\n    VerifiedClient client;\n\n    address private bridge;\n\n    address private distribution;\n\n    event tradeSettled(address indexed transferor,\n                        address indexed transferee,\n                        uint256 unitsToTransfer,\n                        address security,\n                        uint256 price,\n                        address currency\n                    );\n\n    event subscribers(address security, address platform, bytes32 poolId, subscriptions[] investors);\n\n    /**\n        Initializes this asset management contract\n        @param  _factory            reference to the secondary issue pool factory contract\n        @param  _issueFeePercentage  percentage of trading fee to be charged by the asset manager\n        @param  _client             address of Verified client contract\n        @param  _vault              address of balancer vault\n     */\n    function initialize(address _factory, uint256 _issueFeePercentage, address _client, address _vault, address _distribution, address _products) onlyOwner public {\n        factory = ISecondaryIssuePoolFactory(_factory);\n        fee = _issueFeePercentage;\n        client = VerifiedClient(_client);\n        vault = IVault(_vault);\n        products = IFactory(_products);\n        distribution = _distribution;\n    }\n\n    function setSigner(address _signer) onlyOwner external{\n        bridge = _signer;\n    }\n\n    /**\n        Joins existing (secondary) tokenized assets into pool by primary issue token holders\n        @param  security            reference to asset issued\n        @param  currency            reference to cash (settlement) token\n        @param  securityAmount      amount of security issued in pool\n        @param  cashAmount          amount of currency issued in pool\n     */\n    function issueSecondary(address security, address currency, uint256 securityAmount, uint256 cashAmount, bytes32 _hashedMessage, uint8 _v, bytes32 _r, bytes32 _s) override external {\n        bytes32 payloadHash = keccak256(abi.encode(_hashedMessage, \"L2toL1\"));\n        bytes32 messageHash = keccak256(abi.encodePacked(\"\\x19Ethereum Signed Message:\\n32\", payloadHash));\n        require(ecrecover(messageHash, _v, _r, _s)== bridge || (IERC20(security).balanceOf(msg.sender)>=securityAmount \n                            && IERC20(currency).balanceOf(msg.sender)>=cashAmount), \"Unauthorized access to secondary issue manager\");\n        address pool = factory.create(\n            ERC20(security).name(),\n            ERC20(security).symbol(),\n            security,\n            currency,\n            securityAmount,\n            fee\n        );                \n        bytes32 poolId = ISecondaryIssuePool(pool).getPoolId();  \n        poolSecurity[poolId] = security; \n        pools[pool] = poolId;\n        // join the pool here                \n        /*IAsset[] memory assetPair = new IAsset[](3);\n        assetPair[0] = IAsset(security);\n        assetPair[1] = IAsset(pool);\n        assetPair[2] = IAsset(currency);\n        uint256[] memory amountsIn = new uint256[](3);\n        amountsIn[0] = securityAmount;\n        amountsIn[1] = 0;\n        amountsIn[2] = cashAmount;*/\n        (IERC20[] memory tokens, , ) = vault.getPoolTokens(poolId);\n        IAsset[] memory assets = _convertERC20sToAssets(tokens);\n        uint256[] memory maxAmountsIn = new uint256[](tokens.length);\n        for (uint256 t; t < tokens.length; t++) {\n            if(tokens[t]==IERC20(security))\n                maxAmountsIn[t] = securityAmount;\n            else if(tokens[t]==IERC20(currency))\n                maxAmountsIn[t] = cashAmount;\n        }\n        IVault.JoinPoolRequest memory request = IVault.JoinPoolRequest({\n            assets: assets,\n            maxAmountsIn: maxAmountsIn,\n            userData: '0x',\n            fromInternalBalance: false\n        });         \n        vault.joinPool(poolId, address(this), address(this), request);\n    }\n\n    /**\n        Used by Secondary pools to request settlement for trades\n        @param  tradeToReport     data structure holding order matching data\n     */\n    function requestSettlement(ITrade.trade memory tradeToReport, IOrder orderbook) override external {\n        require(pools[msg.sender]!=\"\", \"Settlement requested from invalid pool\");\n        IOrder.order memory orderByParty = IOrder(orderbook).getOrder(tradeToReport.partyRef);\n        IOrder.order memory orderByCounterparty = IOrder(orderbook).getOrder(tradeToReport.counterpartyRef);\n        address securityTraded = IOrder(orderbook).getSecurity(); \n        address currencySettled = IOrder(orderbook).getCurrency();\n        address party = orderByParty.tokenIn==securityTraded ? orderByParty.party : orderByCounterparty.party;\n        address counterparty = orderByCounterparty.tokenIn==securityTraded ? orderByCounterparty.party : orderByParty.party;\n        uint256 amount = orderByParty.tokenIn==securityTraded ? tradeToReport.partyInAmount : tradeToReport.counterpartyInAmount;\n        bytes32 _transfereeDPID = getTransferAgent(party);\n        bytes32 _transferorDPID = getTransferAgent(counterparty);\n        ISettlor.settlement memory tradeToSettle = ISettlor.settlement({\n            transferor: party,\n            transferee: counterparty,\n            security: securityTraded,\n            status: \"Pending\",\n            currency: currencySettled,\n            price: tradeToReport.price,\n            askprice: Math.div(orderByParty.tokenIn==currencySettled ? tradeToReport.partyInAmount : tradeToReport.counterpartyInAmount, amount, false),\n            unitsToTransfer: amount,\n            consideration: Math.mul(tradeToReport.price, amount),\n            executionDate: tradeToReport.dt,\n            partyRef: orderByParty.tokenIn==securityTraded ? tradeToReport.partyRef : tradeToReport.counterpartyRef,\n            counterpartyRef: orderByCounterparty.tokenIn==securityTraded ? tradeToReport.counterpartyRef : tradeToReport.partyRef,\n            transferorDPID: _transferorDPID,\n            transfereeDPID: _transfereeDPID,\n            orderPool: orderbook\n        });\n        bytes32 ref = keccak256(abi.encodePacked(tradeToReport.partyRef, tradeToReport.counterpartyRef));\n        if(settlements[ref].transferor==address(0x0)){\n            settlements[ref] = tradeToSettle;\n            investors[IOrder(orderbook).getPoolId()].push(ISettlor.subscriptions(counterparty, securityTraded, currencySettled, amount, tradeToReport.price));\n            trades[tradeToSettle.transferorDPID].push(ref);\n            trades[tradeToSettle.transfereeDPID].push(ref);\n        }\n    }\n    \n    /**\n        Fetches trade settlement requests for depository participant\n        @param  dpid         identifier of depository participant (eg, transfer agent) that is authorized to settle the asset \n     */\n    function getSettlementRequests(bytes32 dpid) override external view returns(bytes32[] memory){\n        (bytes32 role, ) = client.getRole(msg.sender);\n        require(role=='DP', \"Settlement requests can only be fetched by a depositary participant\");\n        return trades[dpid];\n    }\n\n    /**\n        Fetches a specific trade settlement request        \n        @param  ref         reference to the trade\n     */\n    function getSettlementRequest(bytes32 ref) override external view returns(settlement memory){\n        require(ref!=\"\", \"Settlement requests can only be fetched by a depositary participant\"); \n        return settlements[ref];\n    }\n    \n    /**\n        Sets settlement status for trades executed\n        @param  ref         reference to the trade executed\n        @param  status      settlement status\n     */\n    function setSettlementStatus(bytes32 ref, bytes32 status) override external{\n        (bytes32 role, bytes32 id) = client.getRole(msg.sender);\n        require(role=='DP', \"Settlement not done by depositary participant\");\n        bytes32 transferorDPID = settlements[ref].transferorDPID;\n        bytes32 transfereeDPID = settlements[ref].transfereeDPID;\n        require(id==transferorDPID || id==transfereeDPID, \"Settlement done by invalid depositary participant\");\n        require(status==\"Confirm\" || status==\"Reject\", \"Settlement status invalid\");\n        settlements[ref].status = status;\n        bool success;\n        if(status==\"Confirm\"){\n            uint256 pay = Math.mul(settlements[ref].price, settlements[ref].unitsToTransfer);\n            if(IERC20(settlements[ref].currency).transferFrom(settlements[ref].transferee, settlements[ref].transferor, pay)){                \n                success = IERC20(settlements[ref].security).transferFrom(settlements[ref].transferor, \n                                                                settlements[ref].transferee, \n                                                                settlements[ref].unitsToTransfer);\n                if(success){\n                    IOrder(settlements[ref].orderPool).orderFilled(settlements[ref].partyRef, settlements[ref].counterpartyRef, settlements[ref].executionDate);\n                    emit tradeSettled(settlements[ref].transferor, \n                                        settlements[ref].transferee, \n                                        settlements[ref].unitsToTransfer,\n                                        settlements[ref].security,\n                                        settlements[ref].price,\n                                        settlements[ref].currency\n                                    );\n                    for(uint i=0; i<trades[transferorDPID].length; i++){\n                        if(trades[transferorDPID][i]==ref){\n                            if(i==trades[transferorDPID].length-1)\n                                delete trades[transferorDPID][i];\n                            else\n                                trades[transferorDPID][i] = trades[transferorDPID][i+1];\n                        }\n                    }\n                    for(uint i=0; i<trades[transfereeDPID].length; i++){\n                        if(trades[transfereeDPID][i]==ref){\n                            if(i==trades[transfereeDPID].length-1)\n                                delete trades[transfereeDPID][i];\n                            else\n                                trades[transfereeDPID][i] = trades[transfereeDPID][i+1];\n                        }\n                    }\n                    settlements[ref].status = \"Confirm\";\n                }\n                else{\n                    IOrder(settlements[ref].orderPool).revertTrade(settlements[ref].partyRef, settlements[ref].unitsToTransfer, IOrder.Order.Sell, settlements[ref].executionDate);\n                    IOrder(settlements[ref].orderPool).revertTrade(settlements[ref].counterpartyRef, settlements[ref].consideration, IOrder.Order.Buy, settlements[ref].executionDate);\n                    IERC20(settlements[ref].currency).transferFrom(settlements[ref].transferor, settlements[ref].transferee, pay);\n                    settlements[ref].status = \"Fail\";\n                }\n            }\n        }\n        else if(status==\"Reject\"){\n            IOrder(settlements[ref].orderPool).revertTrade(settlements[ref].partyRef, settlements[ref].unitsToTransfer, IOrder.Order.Sell, settlements[ref].executionDate);\n            IOrder(settlements[ref].orderPool).revertTrade(settlements[ref].counterpartyRef, settlements[ref].consideration, IOrder.Order.Buy, settlements[ref].executionDate);\n            settlements[ref].status = \"Reject\";\n        }            \n    }\n\n    /**\n        Retrieve investors in secondary pools\n        @param  poolId  pool identity\n     */\n    function getSubscribers(bytes32 poolId, bytes32 _hashedMessage, uint8 _v, bytes32 _r, bytes32 _s) override external returns(subscriptions[] memory){\n        bytes32 payloadHash = keccak256(abi.encode(_hashedMessage, \"L2toL1\"));\n        bytes32 messageHash = keccak256(abi.encodePacked(\"\\x19Ethereum Signed Message:\\n32\", payloadHash));\n        require(ecrecover(messageHash, _v, _r, _s)== bridge || products.getHolder(products.getSecurity(poolSecurity[poolId]))==msg.sender, \"Unauthorized access viewing subscribers in secondary pool.\");\n        emit subscribers(poolSecurity[poolId], address(this), poolId, investors[poolId]);\n        return investors[poolId];\n    }\n\n    /**\n        Retrieve trade settlement\n        @param  ref settlement reference\n     */\n    function getTrade(bytes32 ref) external view override returns (uint256, uint256) {\n        return (settlements[ref].price, settlements[ref].askprice);\n    }\n\n    /**\n        Gets transfer agent for any of the parties in the trade\n        @param  party         reference to the party or counterparty in a trade\n     */\n    function getTransferAgent(address party) private view returns(bytes32){\n        return(client.getTransferAgent(party));\n    } \n\n    /**\n        Fetch trading fee collected in Balancer vault\n        @param  _token  address of token in which fee is collected\n     */\n    function getTradingFeeCollected(address _token) override external returns(uint256){\n        require(msg.sender==distribution, \"Unauthorized fee collection request\");\n        IERC20[] memory tokens = new IERC20[](1);\n        tokens[0] = IERC20(_token);\n        uint256[] memory amounts = vault.getProtocolFeesCollector().getCollectedFeeAmounts(tokens);\n        vault.getProtocolFeesCollector().withdrawCollectedFees(tokens, amounts, distribution);\n        return amounts[0];\n    }   \n\n    /**\n     * @dev This helper function is a fast and cheap way to convert between IERC20[] and IAsset[] types\n     */\n    function _convertERC20sToAssets(IERC20[] memory tokens) internal pure returns (IAsset[] memory assets) {\n        // solhint-disable-next-line no-inline-assembly\n        assembly {\n            assets := tokens\n        }\n    }\n\n}",
  "sourcePath": "D:\\Code\\verified-balancer\\contracts\\SecondaryIssueManager.sol",
  "compiler": {
    "name": "solc",
    "version": "0.7.1+commit.f4a555be.Emscripten.clang"
  },
  "schemaVersion": "3.4.3",
  "updatedAt": "2023-01-06T17:15:02.943Z",
  "networkType": "ethereum",
  "devdoc": {
    "kind": "dev",
    "methods": {
      "getSettlementRequest(bytes32)": {
        "params": {
          "ref": "reference to the trade"
        }
      },
      "getSettlementRequests(bytes32)": {
        "params": {
          "dpid": "identifier of depository participant (eg, transfer agent) that is authorized to settle the asset "
        }
      },
      "getSubscribers(bytes32,bytes32,uint8,bytes32,bytes32)": {
        "params": {
          "poolId": "pool identity"
        }
      },
      "getTrade(bytes32)": {
        "params": {
          "ref": "settlement reference"
        }
      },
      "getTradingFeeCollected(address)": {
        "params": {
          "_token": "address of token in which fee is collected"
        }
      },
      "initialize(address,uint256,address,address,address,address)": {
        "params": {
          "_client": "address of Verified client contract",
          "_factory": "reference to the secondary issue pool factory contract",
          "_issueFeePercentage": "percentage of trading fee to be charged by the asset manager",
          "_vault": "address of balancer vault"
        }
      },
      "issueSecondary(address,address,uint256,uint256,bytes32,uint8,bytes32,bytes32)": {
        "params": {
          "cashAmount": "amount of currency issued in pool",
          "currency": "reference to cash (settlement) token",
          "security": "reference to asset issued",
          "securityAmount": "amount of security issued in pool"
        }
      },
      "owner()": {
        "details": "Returns the address of the current owner."
      },
      "renounceOwnership()": {
        "details": "Leaves the contract without owner. It will not be possible to call `onlyOwner` functions anymore. Can only be called by the current owner. NOTE: Renouncing ownership will leave the contract without an owner, thereby removing any functionality that is only available to the owner."
      },
      "requestSettlement((bytes32,uint256,bytes32,uint256,uint256,uint256),address)": {
        "params": {
          "tradeToReport": "data structure holding order matching data"
        }
      },
      "setSettlementStatus(bytes32,bytes32)": {
        "params": {
          "ref": "reference to the trade executed",
          "status": "settlement status"
        }
      },
      "transferOwnership(address)": {
        "details": "Transfers ownership of the contract to a new account (`newOwner`). Can only be called by the current owner."
      }
    },
    "version": 1
  },
  "userdoc": {
    "kind": "user",
    "methods": {
      "getSettlementRequest(bytes32)": {
        "notice": "Fetches a specific trade settlement request        "
      },
      "getSettlementRequests(bytes32)": {
        "notice": "Fetches trade settlement requests for depository participant"
      },
      "getSubscribers(bytes32,bytes32,uint8,bytes32,bytes32)": {
        "notice": "Retrieve investors in secondary pools"
      },
      "getTrade(bytes32)": {
        "notice": "Retrieve trade settlement"
      },
      "getTradingFeeCollected(address)": {
        "notice": "Fetch trading fee collected in Balancer vault"
      },
      "initialize(address,uint256,address,address,address,address)": {
        "notice": "Initializes this asset management contract"
      },
      "issueSecondary(address,address,uint256,uint256,bytes32,uint8,bytes32,bytes32)": {
        "notice": "Joins existing (secondary) tokenized assets into pool by primary issue token holders"
      },
      "requestSettlement((bytes32,uint256,bytes32,uint256,uint256,uint256),address)": {
        "notice": "Used by Secondary pools to request settlement for trades"
      },
      "setSettlementStatus(bytes32,bytes32)": {
        "notice": "Sets settlement status for trades executed"
      }
    },
    "version": 1
  }
}