{
  "contractName": "SecondaryIssueManager",
  "abi": [
    {
      "anonymous": false,
      "inputs": [
        {
          "indexed": true,
          "internalType": "address",
          "name": "previousOwner",
          "type": "address"
        },
        {
          "indexed": true,
          "internalType": "address",
          "name": "newOwner",
          "type": "address"
        }
      ],
      "name": "OwnershipTransferred",
      "type": "event"
    },
    {
      "anonymous": false,
      "inputs": [
        {
          "indexed": false,
          "internalType": "uint256",
          "name": "consideration",
          "type": "uint256"
        },
        {
          "indexed": false,
          "internalType": "uint256",
          "name": "fee",
          "type": "uint256"
        },
        {
          "indexed": false,
          "internalType": "uint256",
          "name": "toPay",
          "type": "uint256"
        }
      ],
      "name": "payFees",
      "type": "event"
    },
    {
      "anonymous": false,
      "inputs": [
        {
          "indexed": false,
          "internalType": "address",
          "name": "platform",
          "type": "address"
        },
        {
          "indexed": false,
          "internalType": "bytes32",
          "name": "poolId",
          "type": "bytes32"
        },
        {
          "indexed": false,
          "internalType": "address",
          "name": "party",
          "type": "address"
        },
        {
          "indexed": false,
          "internalType": "address",
          "name": "counterparty",
          "type": "address"
        },
        {
          "indexed": true,
          "internalType": "address",
          "name": "securityTraded",
          "type": "address"
        },
        {
          "indexed": false,
          "internalType": "address",
          "name": "currencySettled",
          "type": "address"
        },
        {
          "indexed": false,
          "internalType": "uint256",
          "name": "amount",
          "type": "uint256"
        },
        {
          "indexed": false,
          "internalType": "uint256",
          "name": "price",
          "type": "uint256"
        },
        {
          "indexed": false,
          "internalType": "bytes32",
          "name": "tradeRef",
          "type": "bytes32"
        },
        {
          "indexed": false,
          "internalType": "bytes32",
          "name": "transferorDPID",
          "type": "bytes32"
        },
        {
          "indexed": false,
          "internalType": "bytes32",
          "name": "transfereeDPID",
          "type": "bytes32"
        }
      ],
      "name": "subscribers",
      "type": "event"
    },
    {
      "anonymous": false,
      "inputs": [
        {
          "indexed": false,
          "internalType": "address",
          "name": "transferor",
          "type": "address"
        },
        {
          "indexed": false,
          "internalType": "address",
          "name": "transferee",
          "type": "address"
        },
        {
          "indexed": false,
          "internalType": "uint256",
          "name": "unitsToTransfer",
          "type": "uint256"
        },
        {
          "indexed": true,
          "internalType": "address",
          "name": "security",
          "type": "address"
        },
        {
          "indexed": false,
          "internalType": "uint256",
          "name": "price",
          "type": "uint256"
        },
        {
          "indexed": false,
          "internalType": "address",
          "name": "currency",
          "type": "address"
        }
      ],
      "name": "tradeSettled",
      "type": "event"
    },
    {
      "inputs": [],
      "name": "owner",
      "outputs": [
        {
          "internalType": "address",
          "name": "",
          "type": "address"
        }
      ],
      "stateMutability": "view",
      "type": "function",
      "constant": true
    },
    {
      "inputs": [],
      "name": "renounceOwnership",
      "outputs": [],
      "stateMutability": "nonpayable",
      "type": "function"
    },
    {
      "inputs": [
        {
          "internalType": "address",
          "name": "newOwner",
          "type": "address"
        }
      ],
      "name": "transferOwnership",
      "outputs": [],
      "stateMutability": "nonpayable",
      "type": "function"
    },
    {
      "inputs": [
        {
          "internalType": "address",
          "name": "_factory",
          "type": "address"
        },
        {
          "internalType": "uint256",
          "name": "_issueFeePercentage",
          "type": "uint256"
        },
        {
          "internalType": "address",
          "name": "_client",
          "type": "address"
        },
        {
          "internalType": "address",
          "name": "_vault",
          "type": "address"
        },
        {
          "internalType": "address",
          "name": "_distribution",
          "type": "address"
        },
        {
          "internalType": "address",
          "name": "_products",
          "type": "address"
        }
      ],
      "name": "initialize",
      "outputs": [],
      "stateMutability": "nonpayable",
      "type": "function"
    },
    {
      "inputs": [
        {
          "internalType": "address",
          "name": "_signer",
          "type": "address"
        }
      ],
      "name": "setSigner",
      "outputs": [],
      "stateMutability": "nonpayable",
      "type": "function"
    },
    {
      "inputs": [
        {
          "internalType": "address",
          "name": "security",
          "type": "address"
        },
        {
          "internalType": "address",
          "name": "currency",
          "type": "address"
        },
        {
          "internalType": "uint256",
          "name": "securityAmount",
          "type": "uint256"
        },
        {
          "internalType": "uint256",
          "name": "minSecurityOrder",
          "type": "uint256"
        },
        {
          "internalType": "uint256",
          "name": "cashAmount",
          "type": "uint256"
        }
      ],
      "name": "issueSecondary",
      "outputs": [],
      "stateMutability": "nonpayable",
      "type": "function"
    },
    {
      "inputs": [
        {
          "components": [
            {
              "internalType": "bytes32",
              "name": "partyRef",
              "type": "bytes32"
            },
            {
              "internalType": "address",
              "name": "partyAddress",
              "type": "address"
            },
            {
              "internalType": "bytes32",
              "name": "counterpartyRef",
              "type": "bytes32"
            },
            {
              "internalType": "uint256",
              "name": "price",
              "type": "uint256"
            },
            {
              "internalType": "uint256",
              "name": "dt",
              "type": "uint256"
            },
            {
              "internalType": "uint256",
              "name": "securityTraded",
              "type": "uint256"
            },
            {
              "internalType": "uint256",
              "name": "currencyTraded",
              "type": "uint256"
            }
          ],
          "internalType": "struct ITrade.trade",
          "name": "tradeToReport",
          "type": "tuple"
        },
        {
          "internalType": "contract IOrder",
          "name": "orderbook",
          "type": "address"
        }
      ],
      "name": "requestSettlement",
      "outputs": [],
      "stateMutability": "nonpayable",
      "type": "function"
    },
    {
      "inputs": [
        {
          "internalType": "bytes32",
          "name": "dpid",
          "type": "bytes32"
        },
        {
          "internalType": "bytes32",
          "name": "poolId",
          "type": "bytes32"
        }
      ],
      "name": "getSettlementRequests",
      "outputs": [
        {
          "internalType": "bytes32[]",
          "name": "",
          "type": "bytes32[]"
        }
      ],
      "stateMutability": "view",
      "type": "function",
      "constant": true
    },
    {
      "inputs": [
        {
          "internalType": "bytes32",
          "name": "ref",
          "type": "bytes32"
        }
      ],
      "name": "getSettlementRequest",
      "outputs": [
        {
          "components": [
            {
              "internalType": "address",
              "name": "transferor",
              "type": "address"
            },
            {
              "internalType": "address",
              "name": "transferee",
              "type": "address"
            },
            {
              "internalType": "address",
              "name": "security",
              "type": "address"
            },
            {
              "internalType": "bytes32",
              "name": "status",
              "type": "bytes32"
            },
            {
              "internalType": "bytes32",
              "name": "transferorDPID",
              "type": "bytes32"
            },
            {
              "internalType": "bytes32",
              "name": "transfereeDPID",
              "type": "bytes32"
            },
            {
              "internalType": "address",
              "name": "currency",
              "type": "address"
            },
            {
              "internalType": "uint256",
              "name": "price",
              "type": "uint256"
            },
            {
              "internalType": "uint256",
              "name": "askprice",
              "type": "uint256"
            },
            {
              "internalType": "uint256",
              "name": "unitsToTransfer",
              "type": "uint256"
            },
            {
              "internalType": "uint256",
              "name": "consideration",
              "type": "uint256"
            },
            {
              "internalType": "uint256",
              "name": "executionDate",
              "type": "uint256"
            },
            {
              "internalType": "contract IOrder",
              "name": "orderPool",
              "type": "address"
            },
            {
              "internalType": "bytes32",
              "name": "partyRef",
              "type": "bytes32"
            },
            {
              "internalType": "bytes32",
              "name": "counterpartyRef",
              "type": "bytes32"
            }
          ],
          "internalType": "struct ISettlor.settlement",
          "name": "",
          "type": "tuple"
        }
      ],
      "stateMutability": "view",
      "type": "function",
      "constant": true
    },
    {
      "inputs": [
        {
          "internalType": "bytes32",
          "name": "ref",
          "type": "bytes32"
        },
        {
          "internalType": "bytes32",
          "name": "status",
          "type": "bytes32"
        }
      ],
      "name": "setSettlementStatus",
      "outputs": [],
      "stateMutability": "nonpayable",
      "type": "function"
    },
    {
      "inputs": [
        {
          "internalType": "bytes32",
          "name": "poolId",
          "type": "bytes32"
        }
      ],
      "name": "getSubscribers",
      "outputs": [
        {
          "components": [
            {
              "internalType": "address",
              "name": "investor",
              "type": "address"
            },
            {
              "internalType": "address",
              "name": "asset",
              "type": "address"
            },
            {
              "internalType": "address",
              "name": "currency",
              "type": "address"
            },
            {
              "internalType": "uint256",
              "name": "amount",
              "type": "uint256"
            },
            {
              "internalType": "uint256",
              "name": "price",
              "type": "uint256"
            }
          ],
          "internalType": "struct ISettlor.subscriptions[]",
          "name": "",
          "type": "tuple[]"
        }
      ],
      "stateMutability": "view",
      "type": "function",
      "constant": true
    },
    {
      "inputs": [
        {
          "internalType": "bytes32",
          "name": "ref",
          "type": "bytes32"
        }
      ],
      "name": "getTrade",
      "outputs": [
        {
          "internalType": "uint256",
          "name": "",
          "type": "uint256"
        },
        {
          "internalType": "uint256",
          "name": "",
          "type": "uint256"
        }
      ],
      "stateMutability": "view",
      "type": "function",
      "constant": true
    },
    {
      "inputs": [
        {
          "internalType": "address",
          "name": "_token",
          "type": "address"
        }
      ],
      "name": "getTradingFeeCollected",
      "outputs": [
        {
          "internalType": "uint256",
          "name": "",
          "type": "uint256"
        }
      ],
      "stateMutability": "nonpayable",
      "type": "function"
    }
  ],
  "bytecode": "0x608060405234801561001057600080fd5b50600080546001600160a01b0319163390811782556040519091907f8be0079c531659141344cd1fd0a4f28419497f9722a3daafe3b4186f6b6457e0908290a36134668061005f6000396000f3fe608060405234801561001057600080fd5b50600436106100cf5760003560e01c806379a7dc0e1161008c578063a3b1379911610066578063a3b137991461019b578063bfa0caa7146101bc578063c9fca3c7146101dc578063f2fde38b146101fc576100cf565b806379a7dc0e146101535780638da5cb5b14610173578063a2dc2ab714610188576100cf565b806304967159146100d457806304aec4f9146100e957806306d53a93146100fc5780632d9167461461010f5780636c19e78314610138578063715018a61461014b575b600080fd5b6100e76100e2366004612a3b565b61020f565b005b6100e76100f7366004612bd4565b610c94565b6100e761010a366004612857565b6114b9565b61012261011d36600461281f565b611d31565b60405161012f9190612eb7565b60405180910390f35b6100e761014636600461281f565b611e38565b6100e7611e78565b610166610161366004612a0b565b611ece565b60405161012f91906132c2565b61017b611fbd565b60405161012f9190612d0d565b6100e76101963660046128a7565b611fcc565b6101ae6101a9366004612a0b565b61203e565b60405161012f929190612cff565b6101cf6101ca366004612a0b565b61205b565b60405161012f9190612e2e565b6101ef6101ea366004612a3b565b612263565b60405161012f9190612dea565b6100e761020a36600461281f565b612374565b600a54604051634427673360e01b815260009182916001600160a01b0390911690634427673390610244903390600401612d0d565b60606040518083038186803b15801561025c57600080fd5b505afa158015610270573d6000803e3d6000fd5b505050506040513d601f19601f820116820180604052508101906102949190612a5c565b50915091508161044560f41b146102c65760405162461bcd60e51b81526004016102bd90613141565b60405180910390fd5b600084815260046020819052604090912090810154600590910154828214806102ee57508083145b61030a5760405162461bcd60e51b81526004016102bd90613050565b8466436f6e6669726d60c81b148061032a5750846514995a9958dd60d21b145b6103465760405162461bcd60e51b81526004016102bd906130a1565b6000868152600460205260409020600a015460035461036591906123f2565b6003819055600087815260046020526040812060060154909161039991610394906001600160a01b0316612428565b6124c3565b90508566436f6e6669726d60c81b1480156103cf575060008781526004602052604090206003015466436f6e6669726d60c81b14155b80156103f357506000878152600460205260409020600301546311985a5b60e21b14155b15610adb576000878152600460209081526040808320600601546001600160a01b03168352600990915290205461042a9082612514565b600088815260046020818152604080842060068101546001600160a01b031685526009835281852095909555928b905252600a9091015460035491517f2c12bee2b721b184f53454a63a5d1e0435e8ecd2429bbd55093350dc18819ef39261049492918590612f91565b60405180910390a16000878152600460208190526040918290206006810154905492516323b872dd60e01b81526001600160a01b03918216936323b872dd936104e593909116913091879101612d21565b602060405180830381600087803b1580156104ff57600080fd5b505af1158015610513573d6000803e3d6000fd5b505050506040513d601f19601f8201168201806040525081019061053791906129eb565b1561082a57600087815260046020819052604091829020600c810154600d820154600e830154600b9093015494516381b5da1d60e01b81526001600160a01b03909216946381b5da1d9461058d94929301612f91565b600060405180830381600087803b1580156105a757600080fd5b505af11580156105bb573d6000803e3d6000fd5b505050600088815260046020526040908190206002810154815460018301546009840154600785015460069095015495516001600160a01b0394851697507fdb2a2159f49495b71579b052eff497e50c97deeb73b10e7e46de4f669dcb58f79661063096948616959384169492931690612d45565b60405180910390a260005b60008481526005602052604090205481101561071e57600084815260056020526040902080548991908390811061066e57fe5b9060005260206000200154141561071657600084815260056020526040902054600019018114156106c35760008481526005602052604090208054829081106106b357fe5b6000918252602082200155610716565b60008481526005602052604090208054600183019081106106e057fe5b906000526020600020015460056000868152602001908152602001600020828154811061070957fe5b6000918252602090912001555b60010161063b565b5060005b60008381526005602052604090205481101561080557600083815260056020526040902080548991908390811061075557fe5b906000526020600020015414156107fd57600083815260056020526040902054600019018114156107aa57600083815260056020526040902080548290811061079a57fe5b60009182526020822001556107fd565b60008381526005602052604090208054600183019081106107c757fe5b90600052602060002001546005600085815260200190815260200160002082815481106107f057fe5b6000918252602090912001555b600101610722565b50600087815260046020526040902066436f6e6669726d60c81b600390910155610ad6565b6000878152600460205260408120600a81015460069091015461085f919061085a906001600160a01b0316612428565b61252d565b600089815260046020819052604091829020600c810154600d8201546009830154600b9093015494516315e319fb60e31b81529596506001600160a01b039091169463af18cfd8946108b79492939260019201612fa7565b600060405180830381600087803b1580156108d157600080fd5b505af11580156108e5573d6000803e3d6000fd5b5050506000898152600460208190526040808320600c810154600e820154600b9092015492516315e319fb60e31b81526001600160a01b03909116955063af18cfd89461093a94929388939192909101612fa7565b600060405180830381600087803b15801561095457600080fd5b505af1158015610968573d6000803e3d6000fd5b5050506000898152600460208190526040918290206006810154815460019092015493516323b872dd60e01b81526001600160a01b0391821695506323b872dd946109bc9493831693921691879101612d21565b602060405180830381600087803b1580156109d657600080fd5b505af11580156109ea573d6000803e3d6000fd5b505050506040513d601f19601f82011682018060405250810190610a0e91906129eb565b5060008881526004602081905260409182902060028101546001820154825460099093015494516323b872dd60e01b81526001600160a01b03928316956323b872dd95610a65959385169490931692909101612d21565b602060405180830381600087803b158015610a7f57600080fd5b505af1158015610a93573d6000803e3d6000fd5b505050506040513d601f19601f82011682018060405250810190610ab791906129eb565b505060008781526004602052604090206311985a5b60e21b6003909101555b610c8b565b856514995a9958dd60d21b1415610c8b576000878152600460205260408120600a810154600690910154610b1c919061085a906001600160a01b0316612428565b6000898152600460208190526040918290206006810154815460019092015493516323b872dd60e01b81529495506001600160a01b03908116946323b872dd94610b6f9493831693921691879101612d21565b602060405180830381600087803b158015610b8957600080fd5b505af1158015610b9d573d6000803e3d6000fd5b505050506040513d601f19601f82011682018060405250810190610bc191906129eb565b5060008881526004602081905260409182902060028101546001820154825460099093015494516323b872dd60e01b81526001600160a01b03928316956323b872dd95610c18959385169490931692909101612d21565b602060405180830381600087803b158015610c3257600080fd5b505af1158015610c46573d6000803e3d6000fd5b505050506040513d601f19601f82011682018060405250810190610c6a91906129eb565b505060008781526004602052604090206514995a9958dd60d21b6003909101555b50505050505050565b33600090815260066020526040902054610cc05760405162461bcd60e51b81526004016102bd906131dc565b610cc8612643565b8251604051632bbc239560e11b81526001600160a01b03841691635778472a91610cf59190600401612eb7565b6101406040518083038186803b158015610d0e57600080fd5b505afa158015610d22573d6000803e3d6000fd5b505050506040513d601f19601f82011682018060405250810190610d469190612b15565b9050610d50612643565b6040808501519051632bbc239560e11b81526001600160a01b03851691635778472a91610d809190600401612eb7565b6101406040518083038186803b158015610d9957600080fd5b505afa158015610dad573d6000803e3d6000fd5b505050506040513d601f19601f82011682018060405250810190610dd19190612b15565b90506000836001600160a01b0316632541897f6040518163ffffffff1660e01b815260040160206040518083038186803b158015610e0e57600080fd5b505afa158015610e22573d6000803e3d6000fd5b505050506040513d601f19601f82011682018060405250810190610e46919061283b565b90506000846001600160a01b0316636945c1fd6040518163ffffffff1660e01b815260040160206040518083038186803b158015610e8357600080fd5b505afa158015610e97573d6000803e3d6000fd5b505050506040513d601f19601f82011682018060405250810190610ebb919061283b565b90506000826001600160a01b031685602001516001600160a01b03161480610ef85750816001600160a01b031685604001516001600160a01b0316145b610f06578360e00151610f0c565b8460e001515b90506000826001600160a01b031685602001516001600160a01b03161480610f495750836001600160a01b031685604001516001600160a01b0316145b610f57578560e00151610f5d565b8460e001515b60a08901519091506000610f7084612539565b90506000610f7d84612539565b9050610f8761269a565b604051806101e00160405280876001600160a01b03168152602001866001600160a01b03168152602001896001600160a01b031681526020016650656e64696e6760c81b8152602001838152602001848152602001886001600160a01b031681526020018d60600151815260200161102b896001600160a01b03168d602001516001600160a01b03161461101f578e60a00151611025565b8e60c001515b876124c3565b815260200185815260200161104c8e60c001516110478b612428565b6125b9565b81526020018d6080015181526020018c6001600160a01b03168152602001896001600160a01b03168c602001516001600160a01b031614806110a35750886001600160a01b03168c604001516001600160a01b0316145b6110b1578d604001516110b4565b8d515b8152602001886001600160a01b03168b602001516001600160a01b031614806110f25750896001600160a01b03168b604001516001600160a01b0316145b6110fd578d51611103565b8d604001515b815250905060008c600001518d60400151604051602001611125929190612cff565b60408051601f198184030181529181528151602092830120600081815260049093529120549091506001600160a01b03166114aa57600081815260046020818152604092839020855181546001600160a01b03199081166001600160a01b039283161783559287015160018301805485169183169190911790559386015160028201805484169186169190911790556060860151600382015560808601519281019290925560a0850151600583015560c0850151600683018054831691851691909117905560e0850151600783015561010085015160088301556101208501516009830155610140850151600a830155610160850151600b830155610180850151600c830180549092169316929092179091556101a0830151600d8201556101c0830151600e90910155611257612716565b6040518060a00160405280886001600160a01b031681526020018b6001600160a01b031681526020018a6001600160a01b031681526020018781526020018f60600151815250905060008d6001600160a01b03166338fff2d06040518163ffffffff1660e01b815260040160206040518083038186803b1580156112da57600080fd5b505afa1580156112ee573d6000803e3d6000fd5b505050506040513d601f19601f820116820180604052508101906113129190612a23565b90506008600082815260200190815260200160002082908060018154018082558091505060019003906000526020600020906005020160009091909190915060008201518160000160006101000a8154816001600160a01b0302191690836001600160a01b0316021790555060208201518160010160006101000a8154816001600160a01b0302191690836001600160a01b0316021790555060408201518160020160006101000a8154816001600160a01b0302191690836001600160a01b03160217905550606082015181600301556080820151816004015550508a6001600160a01b03167fbc9eb1cb09b666542f20e5a0ff81567b379b2f46229dba2d27b879279395c94d30838c8c8f8d89608001518b8d608001518e60a001516040516114459a99989796959493929190612d75565b60405180910390a260808401805160009081526005602090815260408220805460018101825590835291200184905560a08501519051146114a75760a08401516000908152600560209081526040822080546001810182559083529120018390555b50505b50505050505050505050505050565b600a54604051634427673360e01b81526000916001600160a01b0316906344276733906114ea903390600401612d0d565b60606040518083038186803b15801561150257600080fd5b505afa158015611516573d6000803e3d6000fd5b505050506040513d601f19601f8201168201806040525081019061153a9190612a5c565b5050905083866001600160a01b03166370a08231336040518263ffffffff1660e01b815260040161156b9190612d0d565b60206040518083038186803b15801561158357600080fd5b505afa158015611597573d6000803e3d6000fd5b505050506040513d601f19601f820116820180604052508101906115bb9190612a23565b101580156115c95750828410155b801561165157506040516370a0823160e01b815282906001600160a01b038716906370a08231906115fe903390600401612d0d565b60206040518083038186803b15801561161657600080fd5b505afa15801561162a573d6000803e3d6000fd5b505050506040513d601f19601f8201168201806040525081019061164e9190612a23565b10155b801561167257508061044560f41b14806116725750806420b236b4b760d91b145b61168e5760405162461bcd60e51b81526004016102bd9061318e565b6040516323b872dd60e01b81526001600160a01b038616906323b872dd906116be90339030908790600401612d21565b602060405180830381600087803b1580156116d857600080fd5b505af11580156116ec573d6000803e3d6000fd5b505050506040513d601f19601f8201168201806040525081019061171091906129eb565b506040516323b872dd60e01b81526001600160a01b038716906323b872dd9061174190339030908990600401612d21565b602060405180830381600087803b15801561175b57600080fd5b505af115801561176f573d6000803e3d6000fd5b505050506040513d601f19601f8201168201806040525081019061179391906129eb565b506000600160009054906101000a90046001600160a01b03166001600160a01b03166374dcc7a4886001600160a01b03166306fdde036040518163ffffffff1660e01b815260040160006040518083038186803b1580156117f357600080fd5b505afa158015611807573d6000803e3d6000fd5b505050506040513d6000823e601f3d908101601f1916820160405261182f9190810190612a89565b896001600160a01b03166395d89b416040518163ffffffff1660e01b815260040160006040518083038186803b15801561186857600080fd5b505afa15801561187c573d6000803e3d6000fd5b505050506040513d6000823e601f3d908101601f191682016040526118a49190810190612a89565b8a8a6118b38a6110478f612428565b6003546040518763ffffffff1660e01b81526004016118d796959493929190612ffc565b602060405180830381600087803b1580156118f157600080fd5b505af1158015611905573d6000803e3d6000fd5b505050506040513d601f19601f82011682018060405250810190611929919061283b565b90506000816001600160a01b03166338fff2d06040518163ffffffff1660e01b815260040160206040518083038186803b15801561196657600080fd5b505afa15801561197a573d6000803e3d6000fd5b505050506040513d601f19601f8201168201806040525081019061199e9190612a23565b600081815260076020908152604080832080546001600160a01b0319166001600160a01b038e81169190911790915586811684526006909252918290208390556002549151631f29a8cd60e31b815292935060609291169063f94d466890611a0a908590600401612eb7565b60006040518083038186803b158015611a2257600080fd5b505afa158015611a36573d6000803e3d6000fd5b505050506040513d6000823e601f3d908101601f19168201604052611a5e919081019061291f565b505090506060611a6d826125c5565b90506060825167ffffffffffffffff81118015611a8957600080fd5b50604051908082528060200260200182016040528015611ab3578160200160208202803683370190505b5060025460405163095ea7b360e01b81529192506001600160a01b03808d169263095ea7b392611ae99216908b90600401612dd1565b602060405180830381600087803b158015611b0357600080fd5b505af1158015611b17573d6000803e3d6000fd5b505050506040513d601f19601f82011682018060405250810190611b3b91906129eb565b5060025460405163095ea7b360e01b81526001600160a01b038d81169263095ea7b392611b7092909116908d90600401612dd1565b602060405180830381600087803b158015611b8a57600080fd5b505af1158015611b9e573d6000803e3d6000fd5b505050506040513d601f19601f82011682018060405250810190611bc291906129eb565b5060005b8351811015611c69578b6001600160a01b0316848281518110611be557fe5b60200260200101516001600160a01b03161415611c1a5789828281518110611c0957fe5b602002602001018181525050611c61565b8a6001600160a01b0316848281518110611c3057fe5b60200260200101516001600160a01b03161415611c615787828281518110611c5457fe5b6020026020010181815250505b600101611bc6565b50611c72612744565b6040518060800160405280848152602001838152602001600084604051602001611c9d929190612fd1565b60408051808303601f190181529181529082526000602090920191909152600254905163172b958560e31b81529192506001600160a01b03169063b95cac2890611cf1908890309081908790600401612ec0565b600060405180830381600087803b158015611d0b57600080fd5b505af1158015611d1f573d6000803e3d6000fd5b50505050505050505050505050505050565b600d546000906001600160a01b03163314611d5e5760405162461bcd60e51b81526004016102bd9061327f565b6001600160a01b038083166000818152600960205260409081902054600d54915163a9059cbb60e01b8152909363a9059cbb92611da2929116908590600401612dd1565b602060405180830381600087803b158015611dbc57600080fd5b505af1158015611dd0573d6000803e3d6000fd5b505050506040513d601f19601f82011682018060405250810190611df491906129eb565b506001600160a01b038316600090815260096020526040902054611e1890826125c8565b6001600160a01b0384166000908152600960205260409020559050919050565b611e5633611e44611fbd565b6001600160a01b0316146101aa6125de565b600c80546001600160a01b0319166001600160a01b0392909216919091179055565b611e8433611e44611fbd565b600080546040516001600160a01b03909116907f8be0079c531659141344cd1fd0a4f28419497f9722a3daafe3b4186f6b6457e0908390a3600080546001600160a01b0319169055565b611ed661269a565b81611ef35760405162461bcd60e51b81526004016102bd906130d8565b5060009081526004602081815260409283902083516101e08101855281546001600160a01b0390811682526001830154811693820193909352600282015483169481019490945260038101546060850152918201546080840152600582015460a08401526006820154811660c0840152600782015460e084015260088201546101008401526009820154610120840152600a820154610140840152600b820154610160840152600c82015416610180830152600d8101546101a0830152600e01546101c082015290565b6000546001600160a01b031690565b611fd833611e44611fbd565b600180546001600160a01b03199081166001600160a01b0398891617909155600395909555600a805486169487169490941790935560028054851692861692909217909155600b8054841692851692909217909155600d80549092169216919091179055565b600090815260046020526040902060078101546008909101549091565b600a54604051634427673360e01b81526060916000916001600160a01b0390911690634427673390612091903390600401612d0d565b60606040518083038186803b1580156120a957600080fd5b505afa1580156120bd573d6000803e3d6000fd5b505050506040513d601f19601f820116820180604052508101906120e19190612a5c565b505090508061044560f41b14806120ff5750806420b236b4b760d91b145b806121a45750600b546000848152600760205260409081902054905163335d71f560e21b815233926001600160a01b039081169263cd75c7d4926121499290911690600401612d0d565b60206040518083038186803b15801561216157600080fd5b505afa158015612175573d6000803e3d6000fd5b505050506040513d601f19601f82011682018060405250810190612199919061283b565b6001600160a01b0316145b6121c05760405162461bcd60e51b81526004016102bd90613222565b600083815260086020908152604080832080548251818502810185019093528083529193909284015b828210156122575760008481526020908190206040805160a0810182526005860290920180546001600160a01b0390811684526001808301548216858701526002830154909116928401929092526003810154606084015260040154608083015290835290920191016121e9565b50505050915050919050565b600a54604051634427673360e01b81526060916000916001600160a01b0390911690634427673390612299903390600401612d0d565b60606040518083038186803b1580156122b157600080fd5b505afa1580156122c5573d6000803e3d6000fd5b505050506040513d601f19601f820116820180604052508101906122e99190612a5c565b505090508061044560f41b146123115760405162461bcd60e51b81526004016102bd906130d8565b6000848152600560209081526040918290208054835181840281018401909452808452909183018282801561236557602002820191906000526020600020905b815481526020019060010190808311612351575b50505050509150505b92915050565b61238033611e44611fbd565b6123976001600160a01b03821615156101ab6125de565b600080546040516001600160a01b03808516939216917f8be0079c531659141344cd1fd0a4f28419497f9722a3daafe3b4186f6b6457e091a3600080546001600160a01b0319166001600160a01b0392909216919091179055565b600082820261241684158061240f57508385838161240c57fe5b04145b60036125de565b670de0b6b3a764000090049392505050565b600080826001600160a01b031663313ce5676040518163ffffffff1660e01b815260040160206040518083038186803b15801561246457600080fd5b505afa158015612478573d6000803e3d6000fd5b505050506040513d601f19601f8201168201806040525081019061249c9190612c65565b60ff16905060006124ae6012836125c8565b600a0a670de0b6b3a764000002949350505050565b60006124d282151560046125de565b826124df5750600061236e565b670de0b6b3a764000083810290612502908583816124f957fe5b041460056125de565b82818161250b57fe5b0491505061236e565b600082820161252684821015836125de565b9392505050565b600061252683836124c3565b600a5460405162157d5560e61b81526000916001600160a01b03169063055f554090612569908590600401612d0d565b60206040518083038186803b15801561258157600080fd5b505afa158015612595573d6000803e3d6000fd5b505050506040513d601f19601f8201168201806040525081019061236e9190612a23565b600061252683836123f2565b90565b60006125d88383111560016125de565b50900390565b816125ec576125ec816125f0565b5050565b62461bcd60e51b6000908152602060045260076024526642414c23000030600a808404818106603090810160081b95839006959095019082900491820690940160101b939093010160c81b604452606490fd5b60408051610140810190915280600081526000602082018190526040820181905260609091019081526020016000815260200160008152600060208201819052604082018190526060820181905260809091015290565b604080516101e081018252600080825260208201819052918101829052606081018290526080810182905260a0810182905260c0810182905260e08101829052610100810182905261012081018290526101408101829052610160810182905261018081018290526101a081018290526101c081019190915290565b6040805160a08101825260008082526020820181905291810182905260608101829052608081019190915290565b60405180608001604052806060815260200160608152602001606081526020016000151581525090565b805161236e81613418565b600082601f830112612789578081fd5b815161279c612797826133bc565b613395565b8181529150602080830190848101818402860182018710156127bd57600080fd5b60005b848110156127dc578151845292820192908201906001016127c0565b505050505092915050565b803561236e81613418565b80516005811061236e57600080fd5b80516003811061236e57600080fd5b80516002811061236e57600080fd5b600060208284031215612830578081fd5b813561252681613418565b60006020828403121561284c578081fd5b815161252681613418565b600080600080600060a0868803121561286e578081fd5b853561287981613418565b9450602086013561288981613418565b94979496505050506040830135926060810135926080909101359150565b60008060008060008060c087890312156128bf578081fd5b86356128ca81613418565b95506020870135945060408701356128e181613418565b935060608701356128f181613418565b9250608087013561290181613418565b915060a087013561291181613418565b809150509295509295509295565b600080600060608486031215612933578081fd5b835167ffffffffffffffff8082111561294a578283fd5b818601915086601f83011261295d578283fd5b815161296b612797826133bc565b80828252602080830192508086018b82838702890101111561298b578788fd5b8796505b848710156129b65780516129a281613418565b84526001969096019592810192810161298f565b5089015190975093505050808211156129cd578283fd5b506129da86828701612779565b925050604084015190509250925092565b6000602082840312156129fc578081fd5b81518015158114612526578182fd5b600060208284031215612a1c578081fd5b5035919050565b600060208284031215612a34578081fd5b5051919050565b60008060408385031215612a4d578182fd5b50508035926020909101359150565b600080600060608486031215612a70578081fd5b8351925060208401519150604084015190509250925092565b600060208284031215612a9a578081fd5b815167ffffffffffffffff80821115612ab1578283fd5b818401915084601f830112612ac4578283fd5b815181811115612ad2578384fd5b612ae5601f8201601f1916602001613395565b9150808252856020828501011115612afb578384fd5b612b0c8160208401602086016133e8565b50949350505050565b6000610140808385031215612b28578182fd5b612b3181613395565b9050612b3d8484612810565b8152612b4c846020850161276e565b6020820152612b5e846040850161276e565b6040820152612b708460608501612801565b6060820152612b828460808501612810565b6080820152612b948460a085016127f2565b60a082015260c083015160c0820152612bb08460e0850161276e565b60e08201526101008381015190820152610120928301519281019290925250919050565b600080828403610100811215612be8578283fd5b60e0811215612bf5578283fd5b50612c0060e0613395565b833581526020840135612c1281613418565b8060208301525060408401356040820152606084013560608201526080840135608082015260a084013560a082015260c084013560c082015280925050612c5c8460e085016127e7565b90509250929050565b600060208284031215612c76578081fd5b815160ff81168114612526578182fd5b6001600160a01b03169052565b6000815180845260208085019450808401835b83811015612cc257815187529582019590820190600101612ca6565b509495945050505050565b15159052565b60008151808452612ceb8160208601602086016133e8565b601f01601f19169290920160200192915050565b918252602082015260400190565b6001600160a01b0391909116815260200190565b6001600160a01b039384168152919092166020820152604081019190915260600190565b6001600160a01b039586168152938516602085015260408401929092526060830152909116608082015260a00190565b6001600160a01b039a8b16815260208101999099529689166040890152948816606088015292909616608086015260a085015260c084019490945260e08301939093526101008201929092526101208101919091526101400190565b6001600160a01b03929092168252602082015260400190565b6020808252825182820181905260009190848201906040850190845b81811015612e2257835183529284019291840191600101612e06565b50909695505050505050565b602080825282518282018190526000919060409081850190868401855b82811015612eaa57815180516001600160a01b0316855286810151612e7288870182612c86565b5085810151612e8387870182612c86565b50606081810151908601526080908101519085015260a09093019290850190600101612e4b565b5091979650505050505050565b90815260200190565b8481526001600160a01b038481166020808401919091529084166040830152608060608301819052835181840191909152805161010084018190526000929182019083906101208601905b80831015612f3357612f1d84516133dc565b8252928401926001929092019190840190612f0b565b50838701519350607f199250828682030160a0870152612f538185612c93565b935050506040850151818584030160c0860152612f708382612cd3565b925050506060840151612f8660e0850182612ccd565b509695505050505050565b9283526020830191909152604082015260600190565b848152602081018490526080810160028410612fbf57fe5b60408201939093526060015292915050565b600060048410612fdd57fe5b83825260406020830152612ff46040830184612c93565b949350505050565b600060c0825261300f60c0830189612cd3565b82810360208401526130218189612cd3565b6001600160a01b03978816604085015295909616606083015250608081019290925260a0909101529392505050565b60208082526031908201527f536574746c656d656e7420646f6e6520627920696e76616c6964206465706f736040820152701a5d185c9e481c185c9d1a58da5c185b9d607a1b606082015260800190565b60208082526019908201527f536574746c656d656e742073746174757320696e76616c696400000000000000604082015260600190565b60208082526043908201527f536574746c656d656e742072657175657374732063616e206f6e6c792062652060408201527f666574636865642062792061206465706f736974617279207061727469636970606082015262185b9d60ea1b608082015260a00190565b6020808252602d908201527f536574746c656d656e74206e6f7420646f6e65206279206465706f736974617260408201526c1e481c185c9d1a58da5c185b9d609a1b606082015260800190565b6020808252602e908201527f556e617574686f72697a65642061636365737320746f207365636f6e6461727960408201526d1034b9b9bab29036b0b730b3b2b960911b606082015260800190565b60208082526026908201527f536574746c656d656e74207265717565737465642066726f6d20696e76616c6960408201526519081c1bdbdb60d21b606082015260800190565b6020808252603a908201527f556e617574686f72697a6564206163636573732076696577696e67207375627360408201527f6372696265727320696e207365636f6e6461727920706f6f6c2e000000000000606082015260800190565b60208082526023908201527f556e617574686f72697a65642066656520636f6c6c656374696f6e2072657175604082015262195cdd60ea1b606082015260800190565b60006101e0820190506132d6828451612c86565b60208301516132e86020840182612c86565b5060408301516132fb6040840182612c86565b50606083015160608301526080830151608083015260a083015160a083015260c083015161332c60c0840182612c86565b5060e0838101519083015261010080840151908301526101208084015190830152610140808401519083015261016080840151908301526101808084015161337682850182612c86565b50506101a083810151908301526101c092830151929091019190915290565b60405181810167ffffffffffffffff811182821017156133b457600080fd5b604052919050565b600067ffffffffffffffff8211156133d2578081fd5b5060209081020190565b6001600160a01b031690565b60005b838110156134035781810151838201526020016133eb565b83811115613412576000848401525b50505050565b6001600160a01b038116811461342d57600080fd5b5056fea2646970667358221220b663ad2f6518bf1c09d550ec710ef671677a337e7c4020b5e6cb34c9fa4a309b64736f6c63430007010033",
  "immutableReferences": {},
  "source": "// External interface for settlement of trades\n// (c) Kallol Borah, 2022\n// \"SPDX-License-Identifier: BUSL1.1\"\n\npragma solidity 0.7.1;\npragma experimental ABIEncoderV2;\n\nimport \"./interfaces/ISettlor.sol\";\nimport \"./interfaces/IOrder.sol\";\nimport \"./interfaces/ITrade.sol\";\nimport './interfaces/IFactory.sol';\nimport './interfaces/VerifiedClient.sol';\nimport \"./interfaces/ISecondaryIssuePool.sol\";\nimport \"./interfaces/ISecondaryIssuePoolFactory.sol\";\n\nimport \"@balancer-labs/v2-solidity-utils/contracts/math/Math.sol\";\nimport \"@balancer-labs/v2-solidity-utils/contracts/math/FixedPoint.sol\";\nimport \"@balancer-labs/v2-solidity-utils/contracts/openzeppelin/ERC20.sol\";\nimport \"@balancer-labs/v2-solidity-utils/contracts/openzeppelin/IERC20.sol\";\nimport \"@balancer-labs/v2-solidity-utils/contracts/openzeppelin/Ownable.sol\";\n \ncontract SecondaryIssueManager is ISettlor, Ownable {\n\n    using Math for uint256;\n    using FixedPoint for uint256;\n\n    // balancer variables\n    address private factory;    \n\n    address private vault;\n\n    //fee\n    uint256 private fee;\n\n    // mapping settlement ref to trade execution data\n    mapping(bytes32 => ISettlor.settlement) settlements;\n\n    //mapping depository participants to trades they are part of\n    mapping(bytes32 => bytes32[]) private trades;\n\n    //mapping pool address to pool id\n    mapping(address => bytes32) private pools;\n\n    //mapping pool id to security token traded\n    mapping(bytes32 => address) private poolSecurity;\n\n    //mapping pool id to investors\n    mapping(bytes32 => subscriptions[]) internal investors; \n\n    // mapping token address to issuing fee collected\n    mapping(address => uint256) private fees;\n\n    // reference to the Verified Client contract\n    VerifiedClient private client;\n\n    // reference to the Verified factory contract that this asset manager checks security token issues with\n    IFactory private products;\n\n    address private bridge;\n\n    address private distribution;\n\n    event tradeSettled(address transferor,\n                        address transferee,\n                        uint256 unitsToTransfer,\n                        address indexed security,\n                        uint256 price,\n                        address currency\n                    );\n\n    event subscribers(address platform, bytes32 poolId, address party, address counterparty, \n                        address indexed securityTraded, address currencySettled, uint256 amount, uint256 price,\n                        bytes32 tradeRef, bytes32 transferorDPID, bytes32 transfereeDPID);\n\n    /**\n        Initializes this asset management contract\n        @param  _factory            reference to the secondary issue pool factory contract\n        @param  _issueFeePercentage  percentage of trading fee to be charged by the asset manager\n        @param  _client             address of Verified client contract\n        @param  _vault              address of balancer vault\n     */\n    function initialize(address _factory, uint256 _issueFeePercentage, address _client, address _vault, address _distribution, address _products) onlyOwner public {\n        factory = _factory;\n        fee = _issueFeePercentage;\n        client = VerifiedClient(_client);\n        vault = _vault;\n        products = IFactory(_products);\n        distribution = _distribution;\n    }\n\n    function setSigner(address _signer) onlyOwner external{\n        bridge = _signer;\n    }\n\n    /**\n        Joins existing (secondary) tokenized assets into pool by primary issue token holders\n        @param  security            reference to asset issued\n        @param  currency            reference to cash (settlement) token\n        @param  securityAmount      amount of security to issue\n        @param  minSecurityOrder    minimum order size of securities issued in pool\n        @param  cashAmount          amount of currency issued in pool\n     */\n    function issueSecondary(address security, address currency, uint256 securityAmount, uint256 minSecurityOrder, uint256 cashAmount) override external {\n        (bytes32 role, , ) = client.getRole(msg.sender);\n        require((IERC20(security).balanceOf(msg.sender)>=securityAmount && securityAmount>=minSecurityOrder\n                && IERC20(currency).balanceOf(msg.sender)>=cashAmount && (role=='DP' || role=='Admin')), \"Unauthorized access to secondary issue manager\");\n        ERC20(currency).transferFrom(msg.sender, address(this), cashAmount);\n        ERC20(security).transferFrom(msg.sender, address(this), securityAmount);        \n        address pool = ISecondaryIssuePoolFactory(factory).create(\n            ERC20(security).name(),\n            ERC20(security).symbol(),\n            security,\n            currency,\n            _upscale(minSecurityOrder, _computeScalingFactor(IERC20(security))),\n            fee\n        );                \n        bytes32 poolId = ISecondaryIssuePool(pool).getPoolId();  \n        poolSecurity[poolId] = security; \n        pools[pool] = poolId;\n        // join the pool here                \n        (IERC20[] memory tokens, , ) = IVault(vault).getPoolTokens(poolId);\n        IAsset[] memory assets = _convertERC20sToAssets(tokens);\n        uint256[] memory maxAmountsIn = new uint256[](tokens.length);\n        ERC20(currency).approve(vault, cashAmount);\n        ERC20(security).approve(vault, securityAmount);\n        for (uint256 t; t < tokens.length; t++) {\n            if(tokens[t]==IERC20(security))\n                maxAmountsIn[t] = securityAmount;\n            else if(tokens[t]==IERC20(currency))\n                maxAmountsIn[t] = cashAmount;\n        }\n        IVault.JoinPoolRequest memory request = IVault.JoinPoolRequest({\n            assets: assets,\n            maxAmountsIn: maxAmountsIn,\n            userData: abi.encode(JoinKind.INIT, maxAmountsIn),\n            fromInternalBalance: false\n        });         \n        IVault(vault).joinPool(poolId, address(this), address(this), request);\n    }\n    \n    /**\n        Used by Secondary pools to request settlement for trades\n        @param  tradeToReport     data structure holding order matching data\n     */\n    function requestSettlement(ITrade.trade memory tradeToReport, IOrder orderbook) override external {\n        require(pools[msg.sender]!=\"\", \"Settlement requested from invalid pool\");\n        IOrder.order memory orderByParty = orderbook.getOrder(tradeToReport.partyRef);\n        IOrder.order memory orderByCounterparty = orderbook.getOrder(tradeToReport.counterpartyRef);\n        address securityTraded = orderbook.getSecurity(); \n        address currencySettled = orderbook.getCurrency();\n        address party = orderByParty.tokenIn==securityTraded || orderByParty.tokenOut==currencySettled ? orderByParty.party : orderByCounterparty.party;\n        address counterparty = orderByCounterparty.tokenIn==currencySettled || orderByCounterparty.tokenOut==securityTraded ? orderByCounterparty.party : orderByParty.party;\n        uint256 amount = tradeToReport.securityTraded; //orderByParty.tokenIn==securityTraded ? tradeToReport.securityTraded : tradeToReport.currencyTraded;\n        bytes32 _transfereeDPID = getTransferAgent(party);\n        bytes32 _transferorDPID = getTransferAgent(counterparty);\n        ISettlor.settlement memory tradeToSettle = ISettlor.settlement({\n            transferor: party,\n            transferee: counterparty,\n            security: securityTraded,\n            status: \"Pending\",\n            currency: currencySettled,\n            price: tradeToReport.price,\n            askprice: FixedPoint.divDown(orderByParty.tokenIn==currencySettled ? tradeToReport.currencyTraded : tradeToReport.securityTraded, amount),\n            unitsToTransfer: amount,\n            consideration: _upscale(tradeToReport.currencyTraded, _computeScalingFactor(IERC20(currencySettled))),\n            executionDate: tradeToReport.dt,\n            partyRef: orderByParty.tokenIn==securityTraded || orderByParty.tokenOut==currencySettled ? tradeToReport.partyRef : tradeToReport.counterpartyRef,\n            counterpartyRef: orderByCounterparty.tokenIn==currencySettled || orderByCounterparty.tokenOut==securityTraded ? tradeToReport.counterpartyRef : tradeToReport.partyRef,\n            transferorDPID: _transferorDPID,\n            transfereeDPID: _transfereeDPID,\n            orderPool: orderbook\n        });\n        bytes32 ref = keccak256(abi.encodePacked(tradeToReport.partyRef, tradeToReport.counterpartyRef));\n        if(settlements[ref].transferor==address(0x0)){\n            settlements[ref] = tradeToSettle;\n            ISettlor.subscriptions memory subscription = ISettlor.subscriptions({\n                investor: counterparty,\n                asset: securityTraded,\n                currency: currencySettled, \n                amount: amount,   \n                price: tradeToReport.price\n            });\n            bytes32 poolId = orderbook.getPoolId();\n            //investors[orderbook.getPoolId()].push(ISettlor.subscriptions(counterparty, securityTraded, currencySettled, amount, tradeToReport.price));\n            investors[poolId].push(subscription);\n            emit subscribers(address(this), poolId, party, counterparty, securityTraded, currencySettled, amount, subscription.price, ref, tradeToSettle.transferorDPID, tradeToSettle.transfereeDPID);\n            trades[tradeToSettle.transferorDPID].push(ref);\n            if(tradeToSettle.transferorDPID != tradeToSettle.transfereeDPID)\n                trades[tradeToSettle.transfereeDPID].push(ref);\n        }\n    }\n    \n    /**\n        Fetches trade settlement requests for depository participant\n        @param  dpid         identifier of depository participant (eg, transfer agent) that is authorized to settle the asset \n     */\n    function getSettlementRequests(bytes32 dpid, bytes32 poolId) override external view returns(bytes32[] memory){\n        (bytes32 role, , ) = client.getRole(msg.sender);\n        require(role=='DP', \"Settlement requests can only be fetched by a depositary participant\");\n        /*if(poolId!=\"\"){\n            bytes32[] memory refs = new bytes32[](trades[dpid].length);\n            uint j=0;\n            for(uint256 i=0; i<trades[dpid].length; i++){\n                 IOrder ob = settlements[trades[dpid][i]].orderPool;\n                 bytes32 poolid = ob.getPoolId();\n                 if(poolid==poolId){\n                     refs[j] == trades[dpid][i];\n                     j++;\n                 }\n            }\n            return refs;\n        }\n        else{*/\n            return trades[dpid];\n        //}\n    }\n\n    /**\n        Fetches a specific trade settlement request        \n        @param  ref         reference to the trade\n     */\n    function getSettlementRequest(bytes32 ref) override external view returns(settlement memory){\n        require(ref!=\"\", \"Settlement requests can only be fetched by a depositary participant\"); \n        return settlements[ref];\n    }\n    event payFees(uint256 consideration, uint256 fee, uint256 toPay);\n    /**\n        Sets settlement status for trades executed\n        @param  ref         reference to the trade executed\n        @param  status      settlement status\n     */\n    function setSettlementStatus(bytes32 ref, bytes32 status) override external{\n        (bytes32 role, bytes32 id, ) = client.getRole(msg.sender);\n        require(role=='DP', \"Settlement not done by depositary participant\");\n        bytes32 transferorDPID = settlements[ref].transferorDPID;\n        bytes32 transfereeDPID = settlements[ref].transfereeDPID;\n        require(id==transferorDPID || id==transfereeDPID, \"Settlement done by invalid depositary participant\");\n        require(status==\"Confirm\" || status==\"Reject\", \"Settlement status invalid\");\n        //fee = Math.mul(settlements[ref].consideration, fee);\n        //uint256 pay = FixedPoint.divDown(fee, FixedPoint.ONE * _computeScalingFactor(IERC20(settlements[ref].currency)));\n        fee = FixedPoint.mulDown(settlements[ref].consideration, fee);\n        uint256 pay = FixedPoint.divDown(fee, _computeScalingFactor(IERC20(settlements[ref].currency)));\n        if(status==\"Confirm\" && settlements[ref].status!=\"Confirm\" && settlements[ref].status!=\"Fail\"){            \n            fees[settlements[ref].currency] = Math.add(fees[settlements[ref].currency], pay);\n            emit payFees(settlements[ref].consideration, fee, pay);\n            //IERC20(settlements[ref].currency).approve(address(this), pay);\n            if(IERC20(settlements[ref].currency).transferFrom(settlements[ref].transferor, address(this), pay)){                \n                settlements[ref].orderPool.orderFilled(settlements[ref].partyRef, settlements[ref].counterpartyRef, settlements[ref].executionDate);\n                emit tradeSettled(settlements[ref].transferor, \n                                    settlements[ref].transferee, \n                                    settlements[ref].unitsToTransfer,\n                                    settlements[ref].security,\n                                    settlements[ref].price,\n                                    settlements[ref].currency\n                                );\n                for(uint i=0; i<trades[transferorDPID].length; i++){\n                    if(trades[transferorDPID][i]==ref){\n                        if(i==trades[transferorDPID].length-1)\n                            delete trades[transferorDPID][i];\n                        else\n                            trades[transferorDPID][i] = trades[transferorDPID][i+1];\n                    }\n                }\n                for(uint i=0; i<trades[transfereeDPID].length; i++){\n                    if(trades[transfereeDPID][i]==ref){\n                        if(i==trades[transfereeDPID].length-1)\n                            delete trades[transfereeDPID][i];\n                        else\n                            trades[transfereeDPID][i] = trades[transfereeDPID][i+1];\n                    }\n                }\n                settlements[ref].status = \"Confirm\";                \n            }\n            else{\n                uint256 consideration = _downscaleDown(settlements[ref].consideration, _computeScalingFactor(IERC20(settlements[ref].currency)));\n                settlements[ref].orderPool.revertTrade(settlements[ref].partyRef, settlements[ref].unitsToTransfer, IOrder.Order.Sell, settlements[ref].executionDate);\n                settlements[ref].orderPool.revertTrade(settlements[ref].counterpartyRef, consideration, IOrder.Order.Buy, settlements[ref].executionDate);\n                IERC20(settlements[ref].currency).transferFrom(settlements[ref].transferor, settlements[ref].transferee, consideration);\n                IERC20(settlements[ref].security).transferFrom(settlements[ref].transferee, settlements[ref].transferor, settlements[ref].unitsToTransfer);\n                settlements[ref].status = \"Fail\";\n            }\n        }\n        else if(status==\"Reject\"){\n            uint256 consideration = _downscaleDown(settlements[ref].consideration, _computeScalingFactor(IERC20(settlements[ref].currency)));\n            //settlements[ref].orderPool.revertTrade(settlements[ref].partyRef, settlements[ref].unitsToTransfer, IOrder.Order.Sell, settlements[ref].executionDate);\n            //settlements[ref].orderPool.revertTrade(settlements[ref].counterpartyRef, consideration, IOrder.Order.Buy, settlements[ref].executionDate);\n            IERC20(settlements[ref].currency).transferFrom(settlements[ref].transferor, settlements[ref].transferee, consideration);\n            IERC20(settlements[ref].security).transferFrom(settlements[ref].transferee, settlements[ref].transferor, settlements[ref].unitsToTransfer);\n            settlements[ref].status = \"Reject\";\n        }            \n    }\n\n    /**\n        Retrieve investors in secondary pools\n        @param  poolId  pool identity\n     */\n    function getSubscribers(bytes32 poolId) override external view returns(ISettlor.subscriptions[] memory){\n        (bytes32 role, , ) = client.getRole(msg.sender);\n        require(role=='DP' || role=='Admin' || products.getHolder(poolSecurity[poolId])==msg.sender, \"Unauthorized access viewing subscribers in secondary pool.\");\n        return investors[poolId];\n    }\n\n    /**\n        Retrieve trade settlement\n        @param  ref settlement reference\n     */\n    function getTrade(bytes32 ref) external view override returns (uint256, uint256) {\n        return (settlements[ref].price, settlements[ref].askprice);\n    }\n\n    /**\n        Gets transfer agent for any of the parties in the trade\n        @param  party         reference to the party or counterparty in a trade\n     */\n    function getTransferAgent(address party) private view returns(bytes32){\n        return(client.getTransferAgent(party));\n    } \n\n    /**\n        Fetch trading fee collected in Balancer vault\n        @param  _token  address of token in which fee is collected\n     */\n    function getTradingFeeCollected(address _token) override external returns(uint256){\n        require(msg.sender==distribution, \"Unauthorized fee collection request\");\n        /*IERC20[] memory tokens = new IERC20[](1);\n        tokens[0] = IERC20(_token);\n        uint256[] memory amounts = IVault(vault).getProtocolFeesCollector().getCollectedFeeAmounts(tokens);\n        IVault(vault).getProtocolFeesCollector().withdrawCollectedFees(tokens, amounts, distribution);\n        return amounts[0];*/\n        uint256 feeCollected = fees[_token];\n        IERC20(_token).transfer(distribution, feeCollected);\n        fees[_token] = Math.sub(fees[_token], feeCollected);\n        return feeCollected;\n    }   \n\n    /**\n     * @dev This helper function is a fast and cheap way to convert between IERC20[] and IAsset[] types\n     */\n    function _convertERC20sToAssets(IERC20[] memory tokens) internal pure returns (IAsset[] memory assets) {\n        // solhint-disable-next-line no-inline-assembly\n        assembly {\n            assets := tokens\n        }\n    }\n\n    /**\n     * @dev Returns a scaling factor that, when multiplied to a token amount for `token`, normalizes its balance as if\n     * it had 18 decimals.\n     */\n    function _computeScalingFactor(IERC20 token) internal view returns (uint256) {\n        // Tokens that don't implement the `decimals` method are not supported.\n        uint256 tokenDecimals = ERC20(address(token)).decimals();\n\n        // Tokens with more than 18 decimals are not supported.\n        uint256 decimalsDifference = Math.sub(18, tokenDecimals);\n        return FixedPoint.ONE * 10**decimalsDifference;\n    }\n\n    /**\n     * @dev Reverses the `scalingFactor` applied to `amount`, resulting in a smaller or equal value depending on\n     * whether it needed scaling or not. The result is rounded down.\n     */\n    function _downscaleDown(uint256 amount, uint256 scalingFactor) internal pure returns (uint256) {\n        return FixedPoint.divDown(amount, scalingFactor);\n    }\n\n    /**\n     * @dev Applies `scalingFactor` to `amount`, resulting in a larger or equal value depending on whether it needed\n     * scaling or not.\n     */\n    function _upscale(uint256 amount, uint256 scalingFactor) internal pure returns (uint256) {\n        // Upscale rounding wouldn't necessarily always go in the same direction: in a swap for example the balance of\n        // token in should be rounded up, and that of token out rounded down. This is the only place where we round in\n        // the same direction for all amounts, as the impact of this rounding is expected to be minimal (and there's no\n        // rounding error unless `_scalingFactor()` is overriden).\n        return FixedPoint.mulDown(amount, scalingFactor);\n    }\n\n}",
  "sourcePath": "D:\\Code\\verified-balancer\\contracts\\SecondaryIssueManager.sol",
  "compiler": {
    "name": "solc",
    "version": "0.7.1+commit.f4a555be.Emscripten.clang"
  },
  "schemaVersion": "3.4.3",
  "updatedAt": "2023-02-26T00:55:13.947Z",
  "networkType": "ethereum",
  "devdoc": {
    "kind": "dev",
    "methods": {
      "getSettlementRequest(bytes32)": {
        "params": {
          "ref": "reference to the trade"
        }
      },
      "getSettlementRequests(bytes32,bytes32)": {
        "params": {
          "dpid": "identifier of depository participant (eg, transfer agent) that is authorized to settle the asset "
        }
      },
      "getSubscribers(bytes32)": {
        "params": {
          "poolId": "pool identity"
        }
      },
      "getTrade(bytes32)": {
        "params": {
          "ref": "settlement reference"
        }
      },
      "getTradingFeeCollected(address)": {
        "params": {
          "_token": "address of token in which fee is collected"
        }
      },
      "initialize(address,uint256,address,address,address,address)": {
        "params": {
          "_client": "address of Verified client contract",
          "_factory": "reference to the secondary issue pool factory contract",
          "_issueFeePercentage": "percentage of trading fee to be charged by the asset manager",
          "_vault": "address of balancer vault"
        }
      },
      "issueSecondary(address,address,uint256,uint256,uint256)": {
        "params": {
          "cashAmount": "amount of currency issued in pool",
          "currency": "reference to cash (settlement) token",
          "minSecurityOrder": "minimum order size of securities issued in pool",
          "security": "reference to asset issued",
          "securityAmount": "amount of security to issue"
        }
      },
      "owner()": {
        "details": "Returns the address of the current owner."
      },
      "renounceOwnership()": {
        "details": "Leaves the contract without owner. It will not be possible to call `onlyOwner` functions anymore. Can only be called by the current owner. NOTE: Renouncing ownership will leave the contract without an owner, thereby removing any functionality that is only available to the owner."
      },
      "requestSettlement((bytes32,address,bytes32,uint256,uint256,uint256,uint256),address)": {
        "params": {
          "tradeToReport": "data structure holding order matching data"
        }
      },
      "setSettlementStatus(bytes32,bytes32)": {
        "params": {
          "ref": "reference to the trade executed",
          "status": "settlement status"
        }
      },
      "transferOwnership(address)": {
        "details": "Transfers ownership of the contract to a new account (`newOwner`). Can only be called by the current owner."
      }
    },
    "version": 1
  },
  "userdoc": {
    "kind": "user",
    "methods": {
      "getSettlementRequest(bytes32)": {
        "notice": "Fetches a specific trade settlement request        "
      },
      "getSettlementRequests(bytes32,bytes32)": {
        "notice": "Fetches trade settlement requests for depository participant"
      },
      "getSubscribers(bytes32)": {
        "notice": "Retrieve investors in secondary pools"
      },
      "getTrade(bytes32)": {
        "notice": "Retrieve trade settlement"
      },
      "getTradingFeeCollected(address)": {
        "notice": "Fetch trading fee collected in Balancer vault"
      },
      "initialize(address,uint256,address,address,address,address)": {
        "notice": "Initializes this asset management contract"
      },
      "issueSecondary(address,address,uint256,uint256,uint256)": {
        "notice": "Joins existing (secondary) tokenized assets into pool by primary issue token holders"
      },
      "requestSettlement((bytes32,address,bytes32,uint256,uint256,uint256,uint256),address)": {
        "notice": "Used by Secondary pools to request settlement for trades"
      },
      "setSettlementStatus(bytes32,bytes32)": {
        "notice": "Sets settlement status for trades executed"
      }
    },
    "version": 1
  }
}