{
    "contractName": "Bonds",
    "abi": [
        {
            "constant": false,
            "inputs": [
                {
                    "name": "platform",
                    "type": "address"
                },
                {
                    "name": "securityToken",
                    "type": "address"
                },
                {
                    "name": "pools",
                    "type": "bytes32[]"
                },
                {
                    "name": "status",
                    "type": "bool"
                },
                {
                    "name": "_hashedMessage",
                    "type": "bytes32"
                },
                {
                    "name": "_v",
                    "type": "uint8"
                },
                {
                    "name": "_r",
                    "type": "bytes32"
                },
                {
                    "name": "_s",
                    "type": "bytes32"
                }
            ],
            "name": "setPlatformPools",
            "outputs": [],
            "payable": false,
            "stateMutability": "nonpayable",
            "type": "function"
        },
        {
            "constant": false,
            "inputs": [
                {
                    "name": "_byTime",
                    "type": "uint256"
                }
            ],
            "name": "isAllPaidFor",
            "outputs": [
                {
                    "name": "",
                    "type": "address[]"
                }
            ],
            "payable": false,
            "stateMutability": "nonpayable",
            "type": "function"
        },
        {
            "constant": false,
            "inputs": [
                {
                    "name": "platform",
                    "type": "address"
                },
                {
                    "name": "pool",
                    "type": "bytes32"
                },
                {
                    "components": [
                        {
                            "name": "investor",
                            "type": "address"
                        },
                        {
                            "name": "asset",
                            "type": "address"
                        },
                        {
                            "name": "name",
                            "type": "bytes32"
                        },
                        {
                            "name": "amount",
                            "type": "uint256"
                        },
                        {
                            "name": "price",
                            "type": "uint256"
                        }
                    ],
                    "name": "eois",
                    "type": "tuple[]"
                },
                {
                    "name": "_hashedMessage",
                    "type": "bytes32"
                },
                {
                    "name": "_v",
                    "type": "uint8"
                },
                {
                    "name": "_r",
                    "type": "bytes32"
                },
                {
                    "name": "_s",
                    "type": "bytes32"
                }
            ],
            "name": "setPlatformSubscribers",
            "outputs": [],
            "payable": false,
            "stateMutability": "nonpayable",
            "type": "function"
        },
        {
            "constant": false,
            "inputs": [
                {
                    "name": "_signer",
                    "type": "address"
                }
            ],
            "name": "setSigner",
            "outputs": [],
            "payable": false,
            "stateMutability": "nonpayable",
            "type": "function"
        },
        {
            "constant": false,
            "inputs": [],
            "name": "renounceOwnership",
            "outputs": [],
            "payable": false,
            "stateMutability": "nonpayable",
            "type": "function"
        },
        {
            "constant": false,
            "inputs": [
                {
                    "name": "_beneficiary",
                    "type": "address"
                },
                {
                    "name": "_currency",
                    "type": "bytes32"
                },
                {
                    "name": "_amount",
                    "type": "uint256"
                }
            ],
            "name": "payOut",
            "outputs": [],
            "payable": false,
            "stateMutability": "nonpayable",
            "type": "function"
        },
        {
            "constant": false,
            "inputs": [
                {
                    "name": "_productReference",
                    "type": "bytes32"
                },
                {
                    "name": "_productCategory",
                    "type": "bytes32"
                },
                {
                    "name": "_issuer",
                    "type": "address"
                },
                {
                    "name": "_registrar",
                    "type": "address"
                },
                {
                    "name": "_owner",
                    "type": "address"
                },
                {
                    "name": "_securityContract",
                    "type": "address"
                },
                {
                    "name": "_securityRegistriesContract",
                    "type": "address"
                },
                {
                    "name": "_viaFactoryContract",
                    "type": "address"
                },
                {
                    "name": "_poolFactoryContract",
                    "type": "address"
                },
                {
                    "name": "_bridge",
                    "type": "address"
                }
            ],
            "name": "initialize",
            "outputs": [],
            "payable": false,
            "stateMutability": "nonpayable",
            "type": "function"
        },
        {
            "constant": false,
            "inputs": [
                {
                    "name": "platform",
                    "type": "address"
                }
            ],
            "name": "getLiquidityProviders",
            "outputs": [
                {
                    "components": [
                        {
                            "name": "owner",
                            "type": "address"
                        },
                        {
                            "name": "amountOffered",
                            "type": "uint256"
                        },
                        {
                            "name": "amountDesired",
                            "type": "uint256"
                        },
                        {
                            "name": "min",
                            "type": "uint256"
                        },
                        {
                            "name": "isin",
                            "type": "bytes32"
                        }
                    ],
                    "name": "",
                    "type": "tuple[]"
                }
            ],
            "payable": false,
            "stateMutability": "nonpayable",
            "type": "function"
        },
        {
            "constant": true,
            "inputs": [],
            "name": "getOwner",
            "outputs": [
                {
                    "name": "",
                    "type": "address"
                }
            ],
            "payable": false,
            "stateMutability": "view",
            "type": "function"
        },
        {
            "constant": true,
            "inputs": [],
            "name": "owner",
            "outputs": [
                {
                    "name": "",
                    "type": "address"
                }
            ],
            "payable": false,
            "stateMutability": "view",
            "type": "function"
        },
        {
            "constant": true,
            "inputs": [],
            "name": "isOwner",
            "outputs": [
                {
                    "name": "",
                    "type": "bool"
                }
            ],
            "payable": false,
            "stateMutability": "view",
            "type": "function"
        },
        {
            "constant": true,
            "inputs": [],
            "name": "getBeneficiaries",
            "outputs": [
                {
                    "name": "",
                    "type": "address[]"
                }
            ],
            "payable": false,
            "stateMutability": "view",
            "type": "function"
        },
        {
            "constant": false,
            "inputs": [
                {
                    "name": "_liquidityPlatform",
                    "type": "address"
                }
            ],
            "name": "registerPlatform",
            "outputs": [],
            "payable": false,
            "stateMutability": "nonpayable",
            "type": "function"
        },
        {
            "constant": false,
            "inputs": [],
            "name": "getDateOfIssue",
            "outputs": [
                {
                    "name": "day",
                    "type": "uint256"
                },
                {
                    "name": "month",
                    "type": "uint256"
                },
                {
                    "name": "year",
                    "type": "uint256"
                }
            ],
            "payable": false,
            "stateMutability": "nonpayable",
            "type": "function"
        },
        {
            "constant": false,
            "inputs": [
                {
                    "name": "platform",
                    "type": "address"
                },
                {
                    "components": [
                        {
                            "name": "owner",
                            "type": "address"
                        },
                        {
                            "name": "amountOffered",
                            "type": "uint256"
                        },
                        {
                            "name": "amountDesired",
                            "type": "uint256"
                        },
                        {
                            "name": "min",
                            "type": "uint256"
                        },
                        {
                            "name": "isin",
                            "type": "bytes32"
                        }
                    ],
                    "name": "lps",
                    "type": "tuple[]"
                },
                {
                    "name": "_hashedMessage",
                    "type": "bytes32"
                },
                {
                    "name": "_v",
                    "type": "uint8"
                },
                {
                    "name": "_r",
                    "type": "bytes32"
                },
                {
                    "name": "_s",
                    "type": "bytes32"
                }
            ],
            "name": "setLiquidityProviders",
            "outputs": [],
            "payable": false,
            "stateMutability": "nonpayable",
            "type": "function"
        },
        {
            "constant": false,
            "inputs": [
                {
                    "name": "newOwner",
                    "type": "address"
                }
            ],
            "name": "transferOwnership",
            "outputs": [],
            "payable": false,
            "stateMutability": "nonpayable",
            "type": "function"
        },
        {
            "constant": false,
            "inputs": [
                {
                    "name": "_beneficiary",
                    "type": "address"
                }
            ],
            "name": "getPaymentStatusFor",
            "outputs": [
                {
                    "components": [
                        {
                            "name": "currency",
                            "type": "bytes32"
                        },
                        {
                            "name": "amount",
                            "type": "uint256"
                        },
                        {
                            "name": "payoutDate",
                            "type": "uint256"
                        },
                        {
                            "name": "payer",
                            "type": "address"
                        }
                    ],
                    "name": "",
                    "type": "tuple[]"
                }
            ],
            "payable": false,
            "stateMutability": "nonpayable",
            "type": "function"
        },
        {
            "anonymous": false,
            "inputs": [
                {
                    "indexed": false,
                    "name": "issueSize",
                    "type": "uint256"
                },
                {
                    "indexed": false,
                    "name": "offerPrice",
                    "type": "uint256"
                },
                {
                    "indexed": false,
                    "name": "minAskPrice",
                    "type": "uint256"
                },
                {
                    "indexed": false,
                    "name": "minSubscription",
                    "type": "uint256"
                },
                {
                    "indexed": false,
                    "name": "currency",
                    "type": "bytes32"
                },
                {
                    "indexed": false,
                    "name": "security",
                    "type": "address"
                },
                {
                    "indexed": false,
                    "name": "offerType",
                    "type": "bytes32"
                },
                {
                    "indexed": false,
                    "name": "isin",
                    "type": "bytes32"
                },
                {
                    "indexed": false,
                    "name": "status",
                    "type": "bytes32"
                },
                {
                    "indexed": false,
                    "name": "productCategory",
                    "type": "bytes32"
                }
            ],
            "name": "issued",
            "type": "event"
        },
        {
            "anonymous": false,
            "inputs": [
                {
                    "indexed": false,
                    "name": "security",
                    "type": "address"
                },
                {
                    "indexed": false,
                    "name": "status",
                    "type": "bytes32"
                }
            ],
            "name": "offered",
            "type": "event"
        },
        {
            "anonymous": false,
            "inputs": [
                {
                    "indexed": false,
                    "name": "security",
                    "type": "address"
                },
                {
                    "indexed": false,
                    "name": "status",
                    "type": "bytes32"
                }
            ],
            "name": "opened",
            "type": "event"
        },
        {
            "anonymous": false,
            "inputs": [
                {
                    "indexed": false,
                    "name": "security",
                    "type": "address"
                },
                {
                    "indexed": false,
                    "name": "status",
                    "type": "bytes32"
                }
            ],
            "name": "closed",
            "type": "event"
        },
        {
            "anonymous": false,
            "inputs": [
                {
                    "indexed": false,
                    "name": "security",
                    "type": "address"
                },
                {
                    "indexed": false,
                    "name": "status",
                    "type": "bytes32"
                }
            ],
            "name": "allotted",
            "type": "event"
        },
        {
            "anonymous": false,
            "inputs": [
                {
                    "indexed": false,
                    "name": "platform",
                    "type": "address"
                },
                {
                    "indexed": false,
                    "name": "security",
                    "type": "address"
                },
                {
                    "indexed": false,
                    "name": "isin",
                    "type": "bytes32"
                },
                {
                    "indexed": false,
                    "name": "issueSize",
                    "type": "uint256"
                },
                {
                    "indexed": false,
                    "name": "currency",
                    "type": "address"
                },
                {
                    "indexed": false,
                    "name": "offerPrice",
                    "type": "uint256"
                },
                {
                    "indexed": false,
                    "name": "minAskPrice",
                    "type": "uint256"
                },
                {
                    "indexed": false,
                    "name": "minSubscription",
                    "type": "uint256"
                },
                {
                    "indexed": false,
                    "name": "issuer",
                    "type": "address"
                }
            ],
            "name": "offer",
            "type": "event"
        },
        {
            "anonymous": false,
            "inputs": [
                {
                    "indexed": false,
                    "name": "platform",
                    "type": "address"
                },
                {
                    "indexed": false,
                    "name": "security",
                    "type": "address"
                },
                {
                    "indexed": false,
                    "name": "cutOffTime",
                    "type": "uint256"
                },
                {
                    "indexed": false,
                    "name": "issuer",
                    "type": "address"
                }
            ],
            "name": "start",
            "type": "event"
        },
        {
            "anonymous": false,
            "inputs": [
                {
                    "indexed": false,
                    "name": "platform",
                    "type": "address"
                },
                {
                    "indexed": false,
                    "name": "security",
                    "type": "address"
                },
                {
                    "indexed": false,
                    "name": "issuer",
                    "type": "address"
                }
            ],
            "name": "close",
            "type": "event"
        },
        {
            "anonymous": false,
            "inputs": [
                {
                    "indexed": false,
                    "name": "platform",
                    "type": "address"
                },
                {
                    "indexed": false,
                    "name": "pool",
                    "type": "bytes32"
                },
                {
                    "indexed": false,
                    "name": "issuer",
                    "type": "address"
                }
            ],
            "name": "subscriptions",
            "type": "event"
        },
        {
            "anonymous": false,
            "inputs": [
                {
                    "indexed": false,
                    "name": "platform",
                    "type": "address"
                },
                {
                    "indexed": false,
                    "name": "pool",
                    "type": "bytes32"
                },
                {
                    "indexed": false,
                    "name": "investor",
                    "type": "address"
                },
                {
                    "indexed": false,
                    "name": "amount",
                    "type": "uint256"
                },
                {
                    "indexed": false,
                    "name": "asset",
                    "type": "address"
                },
                {
                    "indexed": false,
                    "name": "issuer",
                    "type": "address"
                }
            ],
            "name": "accept",
            "type": "event"
        },
        {
            "anonymous": false,
            "inputs": [
                {
                    "indexed": false,
                    "name": "platform",
                    "type": "address"
                },
                {
                    "indexed": false,
                    "name": "pool",
                    "type": "bytes32"
                },
                {
                    "indexed": false,
                    "name": "issuer",
                    "type": "address"
                }
            ],
            "name": "settle",
            "type": "event"
        },
        {
            "anonymous": false,
            "inputs": [
                {
                    "indexed": false,
                    "name": "platform",
                    "type": "address"
                },
                {
                    "indexed": false,
                    "name": "pool",
                    "type": "bytes32"
                },
                {
                    "indexed": false,
                    "name": "investor",
                    "type": "address"
                },
                {
                    "indexed": false,
                    "name": "issuer",
                    "type": "address"
                }
            ],
            "name": "reject",
            "type": "event"
        },
        {
            "anonymous": false,
            "inputs": [
                {
                    "indexed": false,
                    "name": "platform",
                    "type": "address"
                },
                {
                    "indexed": false,
                    "name": "security",
                    "type": "address"
                },
                {
                    "indexed": false,
                    "name": "issuer",
                    "type": "address"
                }
            ],
            "name": "getLP",
            "type": "event"
        },
        {
            "anonymous": false,
            "inputs": [
                {
                    "indexed": true,
                    "name": "previousOwner",
                    "type": "address"
                },
                {
                    "indexed": true,
                    "name": "newOwner",
                    "type": "address"
                }
            ],
            "name": "OwnershipTransferred",
            "type": "event"
        },
        {
            "constant": false,
            "inputs": [
                {
                    "name": "_issueSize",
                    "type": "uint256"
                },
                {
                    "name": "_offerPrice",
                    "type": "uint256"
                },
                {
                    "name": "_minAskPrice",
                    "type": "uint256"
                },
                {
                    "name": "_minSubscription",
                    "type": "uint256"
                },
                {
                    "name": "_couponPaymentCycle",
                    "type": "uint256"
                },
                {
                    "name": "_tenure",
                    "type": "uint256"
                },
                {
                    "name": "_currency",
                    "type": "bytes32"
                },
                {
                    "name": "_offerType",
                    "type": "bytes32"
                },
                {
                    "name": "_isin",
                    "type": "bytes32"
                },
                {
                    "name": "_offeringDocuments",
                    "type": "string"
                }
            ],
            "name": "issueBond",
            "outputs": [],
            "payable": false,
            "stateMutability": "nonpayable",
            "type": "function"
        },
        {
            "constant": true,
            "inputs": [],
            "name": "getBond",
            "outputs": [
                {
                    "components": [
                        {
                            "name": "issueSize",
                            "type": "uint256"
                        },
                        {
                            "name": "coupon",
                            "type": "uint256"
                        },
                        {
                            "name": "offerPrice",
                            "type": "uint256"
                        },
                        {
                            "name": "minAskPrice",
                            "type": "uint256"
                        },
                        {
                            "name": "minSubscription",
                            "type": "uint256"
                        },
                        {
                            "name": "currency",
                            "type": "bytes32"
                        },
                        {
                            "name": "security",
                            "type": "address"
                        }
                    ],
                    "name": "",
                    "type": "tuple[]"
                },
                {
                    "components": [
                        {
                            "name": "offerType",
                            "type": "bytes32"
                        },
                        {
                            "name": "couponPaymentCycle",
                            "type": "uint256"
                        },
                        {
                            "name": "tenure",
                            "type": "uint256"
                        },
                        {
                            "name": "isin",
                            "type": "bytes32"
                        },
                        {
                            "name": "status",
                            "type": "bytes32"
                        },
                        {
                            "name": "offeringDocuments",
                            "type": "string"
                        }
                    ],
                    "name": "",
                    "type": "tuple"
                }
            ],
            "payable": false,
            "stateMutability": "view",
            "type": "function"
        },
        {
            "constant": false,
            "inputs": [],
            "name": "askOffers",
            "outputs": [],
            "payable": false,
            "stateMutability": "nonpayable",
            "type": "function"
        },
        {
            "constant": false,
            "inputs": [
                {
                    "name": "cutOffTime",
                    "type": "uint256"
                }
            ],
            "name": "startIssue",
            "outputs": [],
            "payable": false,
            "stateMutability": "nonpayable",
            "type": "function"
        },
        {
            "constant": false,
            "inputs": [],
            "name": "getSubscribers",
            "outputs": [
                {
                    "components": [
                        {
                            "name": "currency",
                            "type": "bytes32"
                        },
                        {
                            "name": "amount",
                            "type": "uint256"
                        },
                        {
                            "name": "price",
                            "type": "uint256"
                        },
                        {
                            "name": "poolid",
                            "type": "bytes32"
                        },
                        {
                            "name": "status",
                            "type": "bool"
                        },
                        {
                            "name": "platform",
                            "type": "address"
                        },
                        {
                            "name": "investor",
                            "type": "address"
                        },
                        {
                            "name": "asset",
                            "type": "address"
                        }
                    ],
                    "name": "",
                    "type": "tuple[]"
                }
            ],
            "payable": false,
            "stateMutability": "nonpayable",
            "type": "function"
        },
        {
            "constant": false,
            "inputs": [
                {
                    "name": "_allotment",
                    "type": "bytes32"
                },
                {
                    "name": "_platform",
                    "type": "address"
                },
                {
                    "name": "_pool",
                    "type": "bytes32"
                },
                {
                    "name": "_investor",
                    "type": "address"
                },
                {
                    "name": "_amount",
                    "type": "uint256"
                },
                {
                    "name": "_asset",
                    "type": "address"
                }
            ],
            "name": "allotIssue",
            "outputs": [],
            "payable": false,
            "stateMutability": "nonpayable",
            "type": "function"
        },
        {
            "constant": false,
            "inputs": [
                {
                    "name": "_currency",
                    "type": "address"
                }
            ],
            "name": "computeNextInstallment",
            "outputs": [
                {
                    "name": "nextInstallment",
                    "type": "uint256"
                }
            ],
            "payable": false,
            "stateMutability": "nonpayable",
            "type": "function"
        },
        {
            "constant": true,
            "inputs": [
                {
                    "name": "_beneficiary",
                    "type": "address"
                }
            ],
            "name": "getPaymentAmountFor",
            "outputs": [
                {
                    "name": "paid",
                    "type": "uint256"
                }
            ],
            "payable": false,
            "stateMutability": "view",
            "type": "function"
        },
        {
            "constant": true,
            "inputs": [],
            "name": "getmaturityDate",
            "outputs": [
                {
                    "name": "day",
                    "type": "uint256"
                },
                {
                    "name": "month",
                    "type": "uint256"
                },
                {
                    "name": "year",
                    "type": "uint256"
                }
            ],
            "payable": false,
            "stateMutability": "view",
            "type": "function"
        },
        {
            "constant": true,
            "inputs": [],
            "name": "getfirstCouponDate",
            "outputs": [
                {
                    "name": "day",
                    "type": "uint256"
                },
                {
                    "name": "month",
                    "type": "uint256"
                },
                {
                    "name": "year",
                    "type": "uint256"
                }
            ],
            "payable": false,
            "stateMutability": "view",
            "type": "function"
        },
        {
            "constant": true,
            "inputs": [],
            "name": "computeNextCouponDate",
            "outputs": [
                {
                    "name": "day",
                    "type": "uint256"
                },
                {
                    "name": "month",
                    "type": "uint256"
                },
                {
                    "name": "year",
                    "type": "uint256"
                }
            ],
            "payable": false,
            "stateMutability": "view",
            "type": "function"
        },
        {
            "constant": true,
            "inputs": [],
            "name": "getcouponFrequencyInMonths",
            "outputs": [
                {
                    "name": "couponFrequency",
                    "type": "uint256"
                }
            ],
            "payable": false,
            "stateMutability": "view",
            "type": "function"
        },
        {
            "constant": true,
            "inputs": [
                {
                    "name": "_currency",
                    "type": "address"
                }
            ],
            "name": "getinterestRateInBips",
            "outputs": [
                {
                    "name": "interestRate",
                    "type": "uint256"
                }
            ],
            "payable": false,
            "stateMutability": "view",
            "type": "function"
        }
    ],
    "bytecode": "0x60806040526000620000166200006a60201b60201c565b603380546001600160a01b0319166001600160a01b038316908117909155604051919250906000907f8be0079c531659141344cd1fd0a4f28419497f9722a3daafe3b4186f6b6457e0908290a3506200006e565b3390565b614829806200007e6000396000f3fe608060405234801561001057600080fd5b50600436106101da5760003560e01c806388c4b6ee11610104578063b43ea066116100a2578063f010e2c211610071578063f010e2c2146103b4578063f0f13024146103c7578063f2fde38b146103da578063f76ebabb146103ed576101da565b8063b43ea0661461037e578063d3340fb614610386578063d608898114610399578063dc442029146103ac576101da565b80638f32d59b116100de5780638f32d59b14610343578063913b722c14610358578063982b256814610360578063ac98247214610368576101da565b806388c4b6ee14610306578063893d20e8146103265780638da5cb5b1461033b576101da565b80634dbad18c1161017c5780636c19e7831161014b5780636c19e783146102c5578063715018a6146102d857806384155600146102e057806386b2f46c146102f3576101da565b80634dbad18c1461027557806358ce1f79146102885780635e075a431461029b57806366f2f9c0146102b2576101da565b806321ec2b42116101b857806321ec2b421461022557806323b83a5e146102385780633cb4bd63146102585780634274515d14610260576101da565b806305cc61ad146101df5780631085c0b0146101fd5780631bafe1b914610212575b600080fd5b6101e761040d565b6040516101f4919061458d565b60405180910390f35b61021061020b3660046136c8565b610bf5565b005b6102106102203660046139e9565b610d1b565b610210610233366004613b67565b61106f565b61024b610246366004613b49565b61138d565b6040516101f49190614557565b61021061150b565b610268611ad8565b6040516101f491906145ce565b610210610283366004613873565b611b4d565b610268610296366004613684565b611dd4565b6102a3611e98565b6040516101f4939291906145dc565b6102686102c0366004613684565b611f27565b6102106102d3366004613684565b611f98565b610210611fea565b6102106102ee36600461392b565b61205b565b610210610301366004613a70565b612206565b610319610314366004613684565b612404565b6040516101f491906145af565b61032e6124f5565b6040516101f491906142de565b61032e612505565b61034b612514565b6040516101f491906145c0565b61024b61253a565b6102a36125cf565b610370612633565b6040516101f4929190614568565b6102a36129ec565b610210610394366004613684565b612ac3565b6102686103a7366004613684565b612b2c565b6102a3612b99565b6102106103c2366004613b49565b612bfe565b6102106103d5366004613794565b612e03565b6102106103e8366004613684565b613008565b6104006103fb366004613684565b61303b565b6040516101f4919061459e565b60385460609033906001600160a01b0316811461042957600080fd5b60005b604154811015610b2c5760005b604254811015610b23576000604d60006042848154811061045657fe5b60009182526020808320909101546001600160a01b031683528201929092526040019020541180156104c057506000604d60006042848154811061049657fe5b60009182526020808320909101546001600160a01b03168352820192909252604001902060020154115b15610b1b576000604d6000604284815481106104d857fe5b60009182526020808320909101546001600160a01b03908116845290830193909352604090910181206006015460418054919093169350606092604a92918790811061052057fe5b60009182526020808320909101546001600160a01b039081168452838201949094526040928301822093861682529283528190208054825181850281018501909352808352919290919083018282801561059957602002820191906000526020600020905b815481526020019060010190808311610585575b505050505090506000604b6000604187815481106105b357fe5b60009182526020808320909101546001600160a01b039081168452838201949094526040928301822093871682529290925290205460ff169050801561063c57600160d21b6510db1bdcd959026052556040517f740ceeecb0c18ce3fa5eea6dd340f21c17bc1af2554ba4931954bfa38bacd18b906106339085906144ee565b60405180910390a15b60005b8251811015610b16577f9722fc67361d52da42c0f7876e69e09ab138fb52d29943d4e974db9621bcc42f6041878154811061067657fe5b9060005260206000200160009054906101000a90046001600160a01b03168483815181106106a057fe5b6020026020010151306040516106b893929190614451565b60405180910390a16060604c6000604189815481106106d357fe5b60009182526020808320909101546001600160a01b031683528201929092526040018120855190919086908590811061070857fe5b60200260200101518152602001908152602001600020805480602002602001604051908101604052809291908181526020016000905b828210156107aa5760008481526020908190206040805160a0810182526005860290920180546001600160a01b0390811684526001808301549091168486015260028201549284019290925260038101546060840152600401546080830152908352909201910161073e565b509293506000925050505b8151811015610b0c57603454600090815260476020526040902054604180548a9081106107de57fe5b600091825260208083209091015460345483526047909152604090912080546001600160a01b03909216918390811061081357fe5b906000526020600020906007020160040160016101000a8154816001600160a01b0302191690836001600160a01b0316021790555085848151811061085457fe5b6020026020010151604760006034548152602001908152602001600020828154811061087c57fe5b90600052602060002090600702016003018190555082828151811061089d57fe5b60200260200101516060015160476000603454815260200190815260200160002082815481106108c957fe5b9060005260206000209060070201600101819055508282815181106108ea57fe5b602002602001015160800151604760006034548152602001908152602001600020828154811061091657fe5b90600052602060002090600702016002018190555082828151811061093757fe5b602002602001015160400151604760006034548152602001908152602001600020828154811061096357fe5b90600052602060002090600702016000018190555082828151811061098457fe5b60200260200101516000015160476000603454815260200190815260200160002082815481106109b057fe5b906000526020600020906007020160050160006101000a8154816001600160a01b0302191690836001600160a01b031602179055508282815181106109f157fe5b6020026020010151602001516047600060345481526020019081526020016000208281548110610a1d57fe5b6000918252602082206007919091020160060180546001600160a01b0319166001600160a01b039390931692909217909155805b604454811015610ab157848481518110610a6757fe5b6020026020010151600001516001600160a01b031660448281548110610a8957fe5b6000918252602090912001546001600160a01b03161415610aa957600191505b600101610a51565b5080610b02576044848481518110610ac557fe5b6020908102919091018101515182546001810184556000938452919092200180546001600160a01b0319166001600160a01b039092169190911790555b50506001016107b5565b505060010161063f565b505050505b600101610439565b5060010161042c565b50603454600090815260476020908152604080832080548251818502810185019093528083529193909284015b82821015610bea57600084815260209081902060408051610100808201835260078702909301805482526001808201548387015260028201549383019390935260038101546060830152600481015460ff8116151560808401526001600160a01b03949004841660a08301526005810154841660c08301526006015490921660e08301529083529092019101610b59565b5050505091505b5090565b600084604051602001610c089190614611565b604051602081830303815290604052805190602001209050600081604051602001610c3391906142be565b60408051601f19818403018152828252805160209182012060465460008552939091019182905292506001600160a01b0390911690600190610c7c908490899089908990614630565b6020604051602081039080840390855afa158015610c9e573d6000803e3d6000fd5b505050602060405103516001600160a01b031614610cbb57600080fd5b6001600160a01b038b81166000818152604b60209081526040808320948f16808452948252808320805460ff19168d1515179055928252604a8152828220938252929092529020610d0d908a8a6132ff565b505050505050505050505050565b60385433906001600160a01b03168114610d3457600080fd5b42604055600160d21b651858d8d95c1d02871415610fca5760005b603454600090815260476020526040902054811015610f8957856047600060345481526020019081526020016000208281548110610d8957fe5b906000526020600020906007020160030154148015610dec5750846001600160a01b03166047600060345481526020019081526020016000208281548110610dcd57fe5b60009182526020909120600560079092020101546001600160a01b0316145b8015610e295750836047600060345481526020019081526020016000208281548110610e1457fe5b90600052602060002090600702016001015410155b8015610e795750826001600160a01b03166047600060345481526020019081526020016000208281548110610e5a57fe5b60009182526020909120600660079092020101546001600160a01b0316145b15610f81577f0f8f344b7d42ec42f5f30afff6d1aa26ae6f511fd8fef4a18187b4b73f87cc9d878787878730604051610eb796959493929190614494565b60405180910390a16034546000908152604760205260409020805482908110610edc57fe5b506000908152805b604554811015610f2d57866001600160a01b031660458281548110610f0557fe5b6000918252602090912001546001600160a01b03161415610f2557600191505b600101610ee4565b5080610f7f57604580546001810182556000919091527fa80a8fcc11760162f08bb091d2c9389d07f2b73d0e996161dfac6f1043b5fc0b0180546001600160a01b0319166001600160a01b0388161790555b505b600101610d4f565b507f55cf15e1fee806bf583ba648f6d07f433ba88a4125a3a4fabb2283c88e127402868630604051610fbd93929190614451565b60405180910390a161101c565b86600160d21b651c995a9958dd02141561101c577f7f9488e51e1666cb4b80eb89a66e6f7baba0e494bbcede98ccd0a2a6f6ea662686868630604051611013949392919061446c565b60405180910390a15b600160c21b67105b1b1bdd1d1959026052556040517f03b095f68fee05efe5e24b3561adcaff741870d703b9bce62535d572cc084a309061105e903090614522565b60405180910390a150505050505050565b60385433906001600160a01b0316811461108857600080fd5b603554600160d81b64426f6e647302146110a157600080fd5b603b54603454604051600160e21b633d3f3fe902815230926001600160a01b03169163f4fcffa4916110d691906004016145ce565b60206040518083038186803b1580156110ee57600080fd5b505afa158015611102573d6000803e3d6000fd5b505050506040513d601f19601f8201168201806040525061112691908101906136aa565b6001600160a01b03161461113957600080fd5b603e54604051600160e21b633cd163c50281526000916001600160a01b03169063f3458f149061116d908a906004016145f7565b60206040518083038186803b15801561118557600080fd5b505afa158015611199573d6000803e3d6000fd5b505050506040513d601f19601f820116820180604052506111bd91908101906136aa565b603e54604051600160e01b63f429f19b0281529192506001600160a01b03169063f429f19b906111f19084906004016142de565b60206040518083038186803b15801561120957600080fd5b505afa15801561121d573d6000803e3d6000fd5b505050506040513d601f19601f8201168201806040525061124191908101906139cb565b600160cb1b660acd2c286c2e6d021461125957600080fd5b6001600160a01b0381166000908152604360205260409020546112d157604280546001810182557f38dfe4635b27babeca8be38d3b448cb5161a639b899a14825ba9c8d7892eb8c30180546001600160a01b0319166001600160a01b0384169081179091559054600091825260436020526040909120555b6001600160a01b0381166000908152604d602052604090208d8155600281018d9055600381018c9055600481018b9055600501879055604e869055604f8990556050889055605185905561132760538585613346565b50600160d21b65125cdcdd5959026052556040517f9db73b9e34b67b0482a252ae5e5448652d5745ede72cfa129660d76c3722598390611376908f908f908f908f908d9030908e908e90614695565b60405180910390a150505050505050505050505050565b60385460609033906001600160a01b03168114806113b857506037546001600160a01b038281169116145b6113c157600080fd5b60455460408051828152602080840282010190915260609180156113ef578160200160208202803883390190505b5090506000805b6045548110156115015760006001604860006045858154811061141557fe5b60009182526020808320909101546001600160a01b03168352820192909252604001812054604580549390910393506048928590811061145157fe5b60009182526020808320909101546001600160a01b03168352820192909252604001902080548290811061148157fe5b9060005260206000209060040201600201548711156114f857604582815481106114a757fe5b9060005260206000200160009054906101000a90046001600160a01b03168484815181106114d157fe5b60200260200101906001600160a01b031690816001600160a01b0316815250508260010192505b506001016113f6565b5090949350505050565b60385433906001600160a01b0316811461152457600080fd5b60008080808080805b604254811015611ace57604e600301549650604d60006042838154811061155057fe5b60009182526020808320909101546001600160a01b0316835282019290925260400181206005015460428054919850604d92918490811061158d57fe5b60009182526020808320909101546001600160a01b0316835282019290925260400181205460428054919750604d9291849081106115c757fe5b60009182526020808320909101546001600160a01b0316835282019290925260400181206002015460428054919650604d92918490811061160457fe5b60009182526020808320909101546001600160a01b0316835282019290925260400181206003015460428054919550604d92918490811061164157fe5b60009182526020808320909101546001600160a01b031683528201929092526040019020600401549150841580159061167a5750600084115b15611ac657603d54603b54603454604051600160e11b63522127410281526001600160a01b0393841693632df8d8fd93169163a4424e82916116bf91906004016145ce565b60206040518083038186803b1580156116d757600080fd5b505afa1580156116eb573d6000803e3d6000fd5b505050506040513d601f19601f8201168201806040525061170f91908101906136aa565b603c54603b54603454604051600160e01b63572d82990281526001600160a01b03938416938d93169163572d82999161174b91906004016145ce565b60206040518083038186803b15801561176357600080fd5b505afa158015611777573d6000803e3d6000fd5b505050506040513d601f19601f8201168201806040525061179b91908101906139cb565b8c6040518663ffffffff1660e01b81526004016117bc95949392919061433c565b600060405180830381600087803b1580156117d657600080fd5b505af11580156117ea573d6000803e3d6000fd5b5050603d54603b54603454604051600160e01b63572d82990281526001600160a01b039384169550639c3acea094508b939092169163572d829991611831916004016145ce565b60206040518083038186803b15801561184957600080fd5b505afa15801561185d573d6000803e3d6000fd5b505050506040513d601f19601f8201168201806040525061188191908101906139cb565b8a6040518463ffffffff1660e01b81526004016118a0939291906145dc565b60206040518083038186803b1580156118b857600080fd5b505afa1580156118cc573d6000803e3d6000fd5b505050506040513d601f19601f820116820180604052506118f091908101906136aa565b603980546001600160a01b0319166001600160a01b039283161790819055604051600160e01b6340c10f190281529116906340c10f1990611937903090899060040161453c565b600060405180830381600087803b15801561195157600080fd5b505af1158015611965573d6000803e3d6000fd5b5050603954604280546001600160a01b039092169350604d92506000918590811061198c57fe5b6000918252602080832091909101546001600160a01b039081168452908301939093526040918201902060060180546001600160a01b03191693831693909317909255600160ca1b6613d999995c99590260525560395491517ff4503fa8a89133c55d060f625dd7c591b559496759626476dd2233e41ea9ad3292611a12921690614508565b60405180910390a160005b604154811015611ac4577f2cdff49e5121f5e17f9517915fa31e1f24f42e3fcbe940daa66f39108de4bdaf60418281548110611a5557fe5b600091825260209091200154603954604280546001600160a01b0393841693909216918c918b9188908110611a8657fe5b600091825260209091200154604051611ab495949392916001600160a01b0316908c908c908c903090614396565b60405180910390a1600101611a1d565b505b60010161152d565b5050505050505050565b60385460009033906001600160a01b0316811480611b0357506037546001600160a01b038281169116145b611b0c57600080fd5b603554600160d81b64426f6e64730214611b2557600080fd5b6000611b38604054604e6001015461310b565b9050611b4681604054613121565b9250505090565b600084604051602001611b609190614611565b604051602081830303815290604052805190602001209050600081604051602001611b8b91906142be565b60408051601f19818403018152828252805160209182012060465460008552939091019182905292506001600160a01b0390911690600190611bd4908490899089908990614630565b6020604051602081039080840390855afa158015611bf6573d6000803e3d6000fd5b505050602060405103516001600160a01b031614611c1357600080fd5b60005b87811015611dc757611c266133b3565b6040518060a001604052808b8b85818110611c3d57fe5b905060a00201600001356001600160a01b03166001600160a01b031681526020018b8b85818110611c6a57fe5b905060a00201602001356001600160a01b03166001600160a01b031681526020018b8b85818110611c9757fe5b905060a002016040013581526020018b8b85818110611cb257fe5b905060a002016060013581526020018b8b85818110611ccd57fe5b905060a00201608001358152509050604c60008d6001600160a01b03166001600160a01b0316815260200190815260200160002060008c8152602001908152602001600020819080600181540180825580915050906001820390600052602060002090600502016000909192909190915060008201518160000160006101000a8154816001600160a01b0302191690836001600160a01b0316021790555060208201518160010160006101000a8154816001600160a01b0302191690836001600160a01b03160217905550604082015181600201556060820151816003015560808201518160040155505050508080600101915050611c16565b5050505050505050505050565b60385460009033906001600160a01b0316811480611dff57506037546001600160a01b038281169116145b611e0857600080fd5b603554600160d81b64426f6e64730214611e2157600080fd5b6000604e60010154611e3542604054613178565b81611e3c57fe5b0490506000805b82811015611e8f576001600160a01b0386166000908152604860205260409020805482908110611e6f57fe5b600091825260209091206001600490920201810154929092019101611e43565b50949350505050565b6038546000908190819033906001600160a01b0316811480611ec757506037546001600160a01b038281169116145b611ed057600080fd5b603554600160d81b64426f6e64730214611ee957600080fd5b6000611efc604054604e6001015461310b565b9050611f0781613188565b611f10826131a3565b611f19836131be565b945094509450505b50909192565b60385460009033906001600160a01b0316811480611f5257506037546001600160a01b038281169116145b611f5b57600080fd5b603554600160d81b64426f6e64730214611f7457600080fd5b50506001600160a01b03166000908152604d60205260409020600101546045540290565b611fa0612514565b611fc857604051600160e51b62461bcd028152600401611fbf90614675565b60405180910390fd5b604680546001600160a01b0319166001600160a01b0392909216919091179055565b611ff2612514565b61201157604051600160e51b62461bcd028152600401611fbf90614675565b6033546040516000916001600160a01b0316907f8be0079c531659141344cd1fd0a4f28419497f9722a3daafe3b4186f6b6457e0908390a3603380546001600160a01b0319169055565b60385433906001600160a01b031681148061208357506037546001600160a01b038281169116145b61208c57600080fd5b603e54604051600160e21b632e5ac80102815260009182916001600160a01b039091169063b96b2004906120c49088906004016145ce565b604080518083038186803b1580156120db57600080fd5b505afa1580156120ef573d6000803e3d6000fd5b505050506040513d601f19601f820116820180604052506121139190810190613839565b9150915080600160cb1b660acd2c286c2e6d0214156121fe57604051600160e01b6323b872dd0281526001600160a01b038316906323b872dd9061215f9033908a9089906004016142ec565b602060405180830381600087803b15801561217957600080fd5b505af115801561218d573d6000803e3d6000fd5b505050506040513d601f19601f820116820180604052506121b191908101906139ad565b156121fe576121be6133e1565b5060408051608081018252868152602080820187905242828401523360608301526001600160a01b03891660009081526048909152919091208054829190fe5b505050505050565b600054610100900460ff168061221f575061221f6131da565b8061222d575060005460ff16155b61224c57604051600160e51b62461bcd028152600401611fbf90614685565b600054610100900460ff16158015612277576000805460ff1961ff0019909116610100171660011790555b603680546001600160a01b03199081166001600160a01b038a81169190911790925560348d905560358c90556037805482168c84161790556038805482168b8416179055603b8054339083161790819055603c805483168a8516179055603d80548316898516179055603e80548316888516179055603f80548316878516179055604680549092168584161790915560408051600160e11b630fdf2a9702815290516060939290921691631fbe552e91600480820192600092909190829003018186803b15801561234757600080fd5b505afa15801561235b573d6000803e3d6000fd5b505050506040513d6000823e601f3d908101601f191682016040526123839190810190613978565b905060005b81518110156123e457604182828151811061239f57fe5b60209081029190910181015182546001808201855560009485529290932090920180546001600160a01b0319166001600160a01b039093169290921790915501612388565b50508015611dc7576000805461ff00191690555050505050505050505050565b6039546040516060917fc203fec4e82c5cb8ac9144da60520b86a76f49ebac45ffaabc45def236be0cb9916124489185916001600160a01b03909116903090614314565b60405180910390a16001600160a01b038216600090815260496020908152604080832080548251818502810185019093528083529193909284015b828210156124ea5760008481526020908190206040805160a0810182526005860290920180546001600160a01b0316835260018082015484860152600282015492840192909252600381015460608401526004015460808301529083529092019101612483565b505050509050919050565b6036546001600160a01b03165b90565b6033546001600160a01b031690565b6033546000906001600160a01b031661252b6131e0565b6001600160a01b031614905090565b60385460609033906001600160a01b031681148061256557506037546001600160a01b038281169116145b61256e57600080fd5b60458054806020026020016040519081016040528092919081815260200182805480156125c457602002820191906000526020600020905b81546001600160a01b031681526001909101906020018083116125a6575b505050505091505090565b6038546000908190819033906001600160a01b03168114806125fe57506037546001600160a01b038281169116145b61260757600080fd5b603554600160d81b64426f6e6473021461262057600080fd5b6000611efc604054604e6002015461310b565b606061263d613408565b604254604080518281526020808402820101909152606091801561267b57816020015b61266861343f565b8152602001906001900390816126605790505b50905061268661343f565b60005b604254811015612915576040518060e00160405280604d6000604285815481106126af57fe5b9060005260206000200160009054906101000a90046001600160a01b03166001600160a01b03166001600160a01b03168152602001908152602001600020600001548152602001604d60006042858154811061270757fe5b9060005260206000200160009054906101000a90046001600160a01b03166001600160a01b03166001600160a01b03168152602001908152602001600020600101548152602001604d60006042858154811061275f57fe5b9060005260206000200160009054906101000a90046001600160a01b03166001600160a01b03166001600160a01b03168152602001908152602001600020600201548152602001604d6000604285815481106127b757fe5b9060005260206000200160009054906101000a90046001600160a01b03166001600160a01b03166001600160a01b03168152602001908152602001600020600301548152602001604d60006042858154811061280f57fe5b9060005260206000200160009054906101000a90046001600160a01b03166001600160a01b03166001600160a01b03168152602001908152602001600020600401548152602001604d60006042858154811061286757fe5b9060005260206000200160009054906101000a90046001600160a01b03166001600160a01b03166001600160a01b03168152602001908152602001600020600501548152602001604d6000604285815481106128bf57fe5b60009182526020808320909101546001600160a01b0390811684529083019390935260409091019020600601541690528351909250829084908390811061290257fe5b6020908102919091010152600101612689565b506040805160c081018252604e80548252604f54602080840191909152605054838501526051546060840152605254608084015260538054855160026001831615610100026000190190921691909104601f81018490048402820184019096528581528795939493859360a086019391908301828280156129d75780601f106129ac576101008083540402835291602001916129d7565b820191906000526020600020905b8154815290600101906020018083116129ba57829003601f168201915b50505050508152505090509350935050509091565b6038546000908190819033906001600160a01b0316811480612a1b57506037546001600160a01b038281169116145b612a2457600080fd5b603554600160d81b64426f6e64730214612a3d57600080fd5b60005b604f5460505481612a4d57fe5b04811015612abc5742612a6c60405483600101604e600101540261310b565b1115612ab4576000612a8a60405483600101604e600101540261310b565b9050612a9581613188565b612a9e826131a3565b612aa7836131be565b9550955095505050611f21565b600101612a40565b5050909192565b603b546001600160a01b03163314612ada57600080fd5b604180546001810182556000919091527f7c9785e8241615bc80415d89775984a1337d15dc1bf4ce50f41988b2a2b336a70180546001600160a01b0319166001600160a01b0392909216919091179055565b60385460009033906001600160a01b0316811480612b5757506037546001600160a01b038281169116145b612b6057600080fd5b603554600160d81b64426f6e64730214612b7957600080fd5b50506001600160a01b03166000908152604d602052604090206001015490565b6038546000908190819033906001600160a01b0316811480612bc857506037546001600160a01b038281169116145b612bd157600080fd5b612bdc604054613188565b612be76040546131a3565b612bf26040546131be565b93509350935050909192565b60385433906001600160a01b03168114612c1757600080fd5b600080805b604154811015612dfc5760005b604254811015612df3576000604d600060428481548110612c4657fe5b60009182526020808320909101546001600160a01b03168352820192909252604001902054118015612cb057506000604d600060428481548110612c8657fe5b60009182526020808320909101546001600160a01b03168352820192909252604001902060020154115b15612deb577f9fcde577dcaf28917e44ca3badd85e622253b099d64d02fdb539ae2e281fc75560418381548110612ce357fe5b9060005260206000200160009054906101000a90046001600160a01b0316604d600060428581548110612d1257fe5b60009182526020808320909101546001600160a01b0390811684529083019390935260409182019020600601549051612d54939291909116908a90309061441c565b60405180910390a1600160ca1b6614dd185c9d195902604e600401819055507f9a17155a17018d770a1d614ea564978a64992afbd4577a46f3797f7102c260e8604d600060428481548110612da557fe5b60009182526020808320909101546001600160a01b0390811684529083019390935260409182019020600601549051612de2929190911690614508565b60405180910390a15b600101612c29565b50600101612c1c565b5050505050565b600084604051602001612e169190614611565b604051602081830303815290604052805190602001209050600081604051602001612e4191906142be565b60408051601f19818403018152828252805160209182012060465460008552939091019182905292506001600160a01b0390911690600190612e8a908490899089908990614630565b6020604051602081039080840390855afa158015612eac573d6000803e3d6000fd5b505050602060405103516001600160a01b031614612ec957600080fd5b60005b87811015612ffc57612edc613488565b6040518060a001604052808b8b85818110612ef357fe5b905060a00201600001356001600160a01b03166001600160a01b031681526020018b8b85818110612f2057fe5b905060a002016020013581526020018b8b85818110612f3b57fe5b905060a002016040013581526020018b8b85818110612f5657fe5b905060a002016060013581526020018b8b85818110612f7157fe5b60a00291909101608090810135909252506001600160a01b038d8116600090815260496020908152604080832080546001808201835591855293839020875160059095020180546001600160a01b0319169490951693909317845590850151838301558401516002830155606084015160038301559290910151600490910155919091019050612ecc565b50505050505050505050565b613010612514565b61302f57604051600160e51b62461bcd028152600401611fbf90614675565b613038816131e4565b50565b60385460609033906001600160a01b031681148061306657506037546001600160a01b038281169116145b61306f57600080fd5b6001600160a01b038316600090815260486020908152604080832080548251818502810185019093528083529193909284015b828210156130ff57600084815260209081902060408051608081018252600486029092018054835260018082015484860152600282015492840192909252600301546001600160a01b0316606083015290835290920191016130a2565b50505050915050919050565b8181018281101561311b57600080fd5b92915050565b60008183111561313057600080fd5b60008080808080613146620151808a5b04613269565b9197509550935061315a6201518089613140565b50600c97880297909102019590950393909303979650505050505050565b8082038281111561311b57600080fd5b600080806131996201518085613140565b9695505050505050565b600080806131b46201518085613140565b5095945050505050565b600080806131cf6201518085613140565b509095945050505050565b303b1590565b3390565b6001600160a01b03811661320d57604051600160e51b62461bcd028152600401611fbf90614665565b6033546040516001600160a01b038084169216907f8be0079c531659141344cd1fd0a4f28419497f9722a3daafe3b4186f6b6457e090600090a3603380546001600160a01b0319166001600160a01b0392909216919091179055565b60008080836226496581018262023ab1600483020590506004600362023ab18302010590910390600062164b09610fa0600185010205905060046105b58202058303601f019250600061098f84605002816132c057fe5b0590506000605061098f83020585039050600b820560301994909401606402929092018301996002600c90940290910392909201975095509350505050565b82805482825590600052602060002090810192821561333a579160200282015b8281111561333a57823582559160200191906001019061331f565b50610bf19291506134c3565b828054600181600116156101000203166002900490600052602060002090601f016020900481019282601f106133875782800160ff1982351617855561333a565b8280016001018555821561333a579182018281111561333a57823582559160200191906001019061331f565b6040805160a08101825260008082526020820181905291810182905260608101829052608081019190915290565b60408051608081018252600080825260208201819052918101829052606081019190915290565b6040805160c0810182526000808252602082018190529181018290526060808201839052608082019290925260a081019190915290565b6040518060e0016040528060008152602001600081526020016000815260200160008152602001600081526020016000801916815260200160006001600160a01b031681525090565b6040518060a0016040528060006001600160a01b03168152602001600081526020016000815260200160008152602001600080191681525090565b61250291905b80821115610bf157600081556001016134c9565b60006134e98235614786565b9392505050565b60006134e98251614786565b600082601f83011261350d57600080fd5b815161352061351b8261474d565b614726565b9150818183526020840193506020810190508385602084028201111561354557600080fd5b60005b83811015613571578161355b88826134f0565b8452506020928301929190910190600101613548565b5050505092915050565b60008083601f84011261358d57600080fd5b50813567ffffffffffffffff8111156135a557600080fd5b6020830191508360208202830111156135bd57600080fd5b9250929050565b60008083601f8401126135d657600080fd5b50813567ffffffffffffffff8111156135ee57600080fd5b6020830191508360a08202830111156135bd57600080fd5b60006134e98235614791565b60006134e98251614791565b60006134e98235612502565b60006134e98251612502565b60008083601f84011261364857600080fd5b50813567ffffffffffffffff81111561366057600080fd5b6020830191508360018202830111156135bd57600080fd5b60006134e982356147a2565b60006020828403121561369657600080fd5b60006136a284846134dd565b949350505050565b6000602082840312156136bc57600080fd5b60006136a284846134f0565b60008060008060008060008060006101008a8c0312156136e757600080fd5b60006136f38c8c6134dd565b99505060206137048c828d016134dd565b98505060408a013567ffffffffffffffff81111561372157600080fd5b61372d8c828d0161357b565b975097505060606137408c828d01613606565b95505060806137518c828d0161361e565b94505060a06137628c828d01613678565b93505060c06137738c828d0161361e565b92505060e06137848c828d0161361e565b9150509295985092959850929598565b600080600080600080600060c0888a0312156137af57600080fd5b60006137bb8a8a6134dd565b975050602088013567ffffffffffffffff8111156137d857600080fd5b6137e48a828b016135c4565b965096505060406137f78a828b0161361e565b94505060606138088a828b01613678565b93505060806138198a828b0161361e565b92505060a061382a8a828b0161361e565b91505092959891949750929550565b6000806040838503121561384c57600080fd5b600061385885856134f0565b92505060206138698582860161362a565b9150509250929050565b60008060008060008060008060e0898b03121561388f57600080fd5b600061389b8b8b6134dd565b98505060206138ac8b828c0161361e565b975050604089013567ffffffffffffffff8111156138c957600080fd5b6138d58b828c016135c4565b965096505060606138e88b828c0161361e565b94505060806138f98b828c01613678565b93505060a061390a8b828c0161361e565b92505060c061391b8b828c0161361e565b9150509295985092959890939650565b60008060006060848603121561394057600080fd5b600061394c86866134dd565b935050602061395d8682870161361e565b925050604061396e8682870161361e565b9150509250925092565b60006020828403121561398a57600080fd5b815167ffffffffffffffff8111156139a157600080fd5b6136a2848285016134fc565b6000602082840312156139bf57600080fd5b60006136a28484613612565b6000602082840312156139dd57600080fd5b60006136a2848461362a565b60008060008060008060c08789031215613a0257600080fd5b6000613a0e898961361e565b9650506020613a1f89828a016134dd565b9550506040613a3089828a0161361e565b9450506060613a4189828a016134dd565b9350506080613a5289828a0161361e565b92505060a0613a6389828a016134dd565b9150509295509295509295565b6000806000806000806000806000806101408b8d031215613a9057600080fd5b6000613a9c8d8d61361e565b9a50506020613aad8d828e0161361e565b9950506040613abe8d828e016134dd565b9850506060613acf8d828e016134dd565b9750506080613ae08d828e016134dd565b96505060a0613af18d828e016134dd565b95505060c0613b028d828e016134dd565b94505060e0613b138d828e016134dd565b935050610100613b258d828e016134dd565b925050610120613b378d828e016134dd565b9150509295989b9194979a5092959850565b600060208284031215613b5b57600080fd5b60006136a2848461361e565b60008060008060008060008060008060006101408c8e031215613b8957600080fd5b6000613b958e8e61361e565b9b50506020613ba68e828f0161361e565b9a50506040613bb78e828f0161361e565b9950506060613bc88e828f0161361e565b9850506080613bd98e828f0161361e565b97505060a0613bea8e828f0161361e565b96505060c0613bfb8e828f0161361e565b95505060e0613c0c8e828f0161361e565b945050610100613c1e8e828f0161361e565b9350506101208c013567ffffffffffffffff811115613c3c57600080fd5b613c488e828f01613636565b92509250509295989b509295989b9093969950565b6000613c698383613cd1565b505060200190565b6000613c7d83836140ee565b505060e00190565b6000613c918383614177565b50506101000190565b6000613ca6838361420e565b505060800190565b6000613cba8383614258565b505060a00190565b613ccb816147a8565b82525050565b613ccb81614786565b6000613ce582614774565b613cef8185614778565b9350613cfa8361476e565b60005b82811015613d2557613d10868351613c5d565b9550613d1b8261476e565b9150600101613cfd565b5093949350505050565b6000613d3a82614774565b613d448185614778565b9350613d4f8361476e565b60005b82811015613d2557613d65868351613c71565b9550613d708261476e565b9150600101613d52565b6000613d8582614774565b613d8f8185614778565b9350613d9a8361476e565b60005b82811015613d2557613db0868351613c85565b9550613dbb8261476e565b9150600101613d9d565b6000613dd082614774565b613dda8185614778565b9350613de58361476e565b60005b82811015613d2557613dfb868351613c9a565b9550613e068261476e565b9150600101613de8565b6000613e1b82614774565b613e258185614778565b9350613e308361476e565b60005b82811015613d2557613e46868351613cae565b9550613e518261476e565b9150600101613e33565b613ccb81614791565b613ccb81612502565b613ccb613e7982612502565b612502565b6000613e8982614774565b613e938185614778565b9350613ea38185602086016147b9565b613eac816147e5565b9093019392505050565b600160d21b65125cdcdd5959029052565b6000613ed4601c83614781565b7f19457468657265756d205369676e6564204d6573736167653a0a3332000000008152601c0192915050565b600160d21b6510db1bdcd959029052565b6000613f1e602683614778565b7f4f776e61626c653a206e6577206f776e657220697320746865207a65726f20618152600160d01b6564647265737302602082015260400192915050565b600160f41b610445029052565b600160d81b64426f6e6473029052565b600160cb1b660acd2c286c2e6d029052565b600160ca1b6613d999995c9959029052565b6000613faa602083614778565b7f4f776e61626c653a2063616c6c6572206973206e6f7420746865206f776e6572815260200192915050565b6000613fe3602e83614778565b7f436f6e747261637420696e7374616e63652068617320616c726561647920626581527f656e20696e697469616c697a6564000000000000000000000000000000000000602082015260400192915050565b6000614042600683614778565b600160d01b654c32746f4c3102815260200192915050565b600160c21b67105b1b1bdd1d1959029052565b805160009060c08401906140818582613e64565b5060208301516140946020860182613e64565b5060408301516140a76040860182613e64565b5060608301516140ba6060860182613e64565b5060808301516140cd6080860182613e64565b5060a083015184820360a08601526140e58282613e7e565b95945050505050565b805160e08301906140ff8482613e64565b5060208201516141126020850182613e64565b5060408201516141256040850182613e64565b5060608201516141386060850182613e64565b50608082015161414b6080850182613e64565b5060a082015161415e60a0850182613e64565b5060c082015161417160c0850182613cd1565b50505050565b80516101008301906141898482613e64565b50602082015161419c6020850182613e64565b5060408201516141af6040850182613e64565b5060608201516141c26060850182613e64565b5060808201516141d56080850182613e5b565b5060a08201516141e860a0850182613cd1565b5060c08201516141fb60c0850182613cd1565b5060e082015161417160e0850182613cd1565b8051608083019061421f8482613e64565b5060208201516142326020850182613e64565b5060408201516142456040850182613e64565b5060608201516141716060850182613cd1565b805160a08301906142698482613cd1565b50602082015161427c6020850182613e64565b50604082015161428f6040850182613e64565b5060608201516142a26060850182613e64565b5060808201516141716080850182613e64565b613ccb816147a2565b60006142c982613ec7565b91506142d58284613e6d565b50602001919050565b6020810161311b8284613cd1565b606081016142fa8286613cc2565b6143076020830185613cd1565b6136a26040830184613e64565b606081016143228286613cd1565b61432f6020830185613cd1565b6136a26040830184613cd1565b60e0810161434a8288613cd1565b6143576020830187613cd1565b6143646040830186613e64565b6143716060830185613e64565b61437e6080830184613e64565b61438a60a08301613f5c565b61319960c08301613f69565b61012081016143a5828c613cd1565b6143b2602083018b613cd1565b6143bf604083018a613e64565b6143cc6060830189613e64565b6143d96080830188613cd1565b6143e660a0830187613e64565b6143f360c0830186613e64565b61440060e0830185613e64565b61440e610100830184613cd1565b9a9950505050505050505050565b6080810161442a8287613cd1565b6144376020830186613cd1565b6144446040830185613e64565b6140e56060830184613cd1565b6060810161445f8286613cd1565b61432f6020830185613e64565b6080810161447a8287613cd1565b6144876020830186613e64565b6144446040830185613cd1565b60c081016144a28289613cd1565b6144af6020830188613e64565b6144bc6040830187613cd1565b6144c96060830186613e64565b6144d66080830185613cd1565b6144e360a0830184613cd1565b979650505050505050565b604081016144fc8284613cd1565b61311b60208301613f00565b604081016145168284613cd1565b61311b60208301613f8b565b604081016145308284613cd1565b61311b6020830161405a565b6040810161454a8285613cd1565b6134e96020830184613e64565b602080825281016134e98184613cda565b604080825281016145798185613d2f565b905081810360208301526136a2818461406d565b602080825281016134e98184613d7a565b602080825281016134e98184613dc5565b602080825281016134e98184613e10565b6020810161311b8284613e5b565b6020810161311b8284613e64565b606081016145ea8286613e64565b6143076020830185613e64565b604081016146058284613e64565b61311b60208301613f79565b6040810161461f8284613e64565b81810360208301526134e981614035565b6080810161463e8287613e64565b61464b60208301866142b5565b6146586040830185613e64565b6140e56060830184613e64565b6020808252810161311b81613f11565b6020808252810161311b81613f9d565b6020808252810161311b81613fd6565b61014081016146a4828b613e64565b6146b1602083018a613e64565b6146be6040830189613e64565b6146cb6060830188613e64565b6146d86080830187613e64565b6146e560a0830186613cd1565b6146f260c0830185613e64565b6146ff60e0830184613e64565b61470c6101008301613eb6565b6147196101208301613f69565b9998505050505050505050565b60405181810167ffffffffffffffff8111828210171561474557600080fd5b604052919050565b600067ffffffffffffffff82111561476457600080fd5b5060209081020190565b60200190565b5190565b90815260200190565b919050565b600061311b82614796565b151590565b6001600160a01b031690565b60ff1690565b600061311b82600061311b82614786565b60005b838110156147d45781810151838201526020016147bc565b838111156141715750506000910152565b601f01601f19169056fea265627a7a72305820f3b7a6e5588ea366ca5fed9cd69d26986ec243d4cd36a54cc8ea5a977c2d64c36c6578706572696d656e74616cf50037",
    "source": "// Basic functions to be implemented by any bond\r\n// (c) Kallol Borah, Verified Network, 2022\r\n\r\npragma solidity 0.5.7;\r\npragma experimental ABIEncoderV2;\r\n\r\nimport \"./interfaces/IBond.sol\";\r\nimport \"./Issues.sol\";\r\n\r\ncontract Bonds is Bond, Issues {\r\n\r\n    //mapping of asked currency to issue details\r\n    mapping(address => Bond.currencySpecificBondAttribs) private bonds;\r\n    Bond.commonBondAttribs bondIssue;\r\n\r\n    modifier onlyDP(address sender){\r\n        require(registrar==sender);\r\n        _;\r\n    }\r\n\r\n    function issueBond(uint256 _issueSize,\r\n                        uint256 _offerPrice, \r\n                        uint256 _minAskPrice, \r\n                        uint256 _minSubscription,\r\n                        uint256 _couponPaymentCycle, \r\n                        uint256 _tenure,\r\n                        bytes32 _currency,\r\n                        bytes32 _offerType,\r\n                        bytes32 _isin,\r\n                        string calldata _offeringDocuments\r\n                        ) external onlyDP(msg.sender){\r\n        require(category==\"Bonds\");\r\n        require(VerifiedProducts(productContract).getIssue(productRef)==address(this));\r\n        address currencyAddress = ViaFactory(viaFactoryContract).getTokenByNameType(_currency,\"ViaCash\");\r\n        require(ViaFactory(viaFactoryContract).getType(currencyAddress) == \"ViaCash\");\r\n        if(currencyIndex[currencyAddress]==0){\r\n            currencies.push(currencyAddress);\r\n            currencyIndex[currencyAddress]=currencies.length;\r\n        }\r\n        bonds[currencyAddress].issueSize = _issueSize;\r\n        bonds[currencyAddress].offerPrice = _offerPrice;\r\n        bonds[currencyAddress].minAskPrice = _minAskPrice;    \r\n        bonds[currencyAddress].minSubscription = _minSubscription;    \r\n        bonds[currencyAddress].currency = _currency;\r\n        bondIssue.offerType = _offerType;\r\n        bondIssue.couponPaymentCycle = _couponPaymentCycle; \r\n        bondIssue.tenure = _tenure; \r\n        bondIssue.isin = _isin;\r\n        bondIssue.offeringDocuments = _offeringDocuments;\r\n        bondIssue.status = \"Issued\";\r\n        emit issued (\r\n            _issueSize,\r\n            _offerPrice, \r\n            _minAskPrice,   \r\n            _minSubscription,\r\n            _currency,\r\n            address(this),\r\n            _offerType,\r\n            _isin,\r\n            \"Issued\",\r\n            \"Bonds\"\r\n        );\r\n    }\r\n\r\n    function getBond() external view returns(Bond.currencySpecificBondAttribs[] memory, Bond.commonBondAttribs memory){\r\n        Bond.currencySpecificBondAttribs[] memory notes = new Bond.currencySpecificBondAttribs[](currencies.length);\r\n        Bond.currencySpecificBondAttribs memory bond;\r\n        for(uint i=0; i<currencies.length; i++){\r\n            bond = Bond.currencySpecificBondAttribs({\r\n                issueSize : bonds[currencies[i]].issueSize,\r\n                coupon : bonds[currencies[i]].coupon,\r\n                offerPrice : bonds[currencies[i]].offerPrice, \r\n                minAskPrice : bonds[currencies[i]].minAskPrice, \r\n                minSubscription : bonds[currencies[i]].minSubscription,\r\n                currency : bonds[currencies[i]].currency,\r\n                security : bonds[currencies[i]].security\r\n            });\r\n            notes[i] = bond;\r\n        }\r\n        return (notes, bondIssue);\r\n    }\r\n\r\n    function askOffers() external onlyDP(msg.sender){\r\n        bytes32 isin;\r\n        bytes32 currency;\r\n        uint256 issueSize;\r\n        uint256 offerPrice; \r\n        uint256 minAskPrice; \r\n        uint256 minSubscription;\r\n        for(uint i=0; i<currencies.length; i++){\r\n            isin = bondIssue.isin;\r\n            currency = bonds[currencies[i]].currency;\r\n            issueSize = bonds[currencies[i]].issueSize;\r\n            offerPrice = bonds[currencies[i]].offerPrice;\r\n            minAskPrice = bonds[currencies[i]].minAskPrice;\r\n            minSubscription = bonds[currencies[i]].minSubscription;\r\n            if(issueSize>0 && offerPrice>0){  \r\n                ISecuritiesRegistry(securityRegistriesContract).createSecurity(VerifiedProducts(productContract).getIssuerAddress(productRef),\r\n                                                            securityContract,\r\n                                                            currency,\r\n                                                            VerifiedProducts(productContract).getIssuerName(productRef),\r\n                                                            isin, \"DP\", \"Bonds\");\r\n                security = ISecuritiesRegistry(securityRegistriesContract).getToken(currency,\r\n                                                                                    VerifiedProducts(productContract).getIssuerName(productRef),\r\n                                                                                    isin);\r\n                ISecurity(security).mint(address(this), issueSize);\r\n                bonds[currencies[i]].security = security;\r\n                bondIssue.status = \"Offered\";\r\n                emit offered(security, \"Offered\");\r\n                //offer the issue on defi platforms\r\n                for(uint j=0; j<platforms.length; j++){\r\n                    //IMarketMaker(platforms[j]).offer(security, isin, issueSize, currencies[i], offerPrice, minAskPrice);//, minSubscription);\r\n                    emit offer(platforms[j], security, isin, issueSize, currencies[i], offerPrice, minAskPrice, minSubscription, address(this));\r\n                }\r\n            }\r\n        }\r\n    }\r\n\r\n    function startIssue(uint256 cutOffTime) external onlyDP(msg.sender){\r\n        address securityToken;\r\n        address orderPool;\r\n        for(uint i=0; i<platforms.length; i++){\r\n            for(uint j=0; j<currencies.length; j++){\r\n                if(bonds[currencies[j]].issueSize > 0 && bonds[currencies[j]].offerPrice > 0){\r\n                    //IMarketMaker(platforms[i]).issue(bonds[currencies[j]].security, cutOffTime);\r\n                    emit start(platforms[i], bonds[currencies[j]].security, cutOffTime, address(this));\r\n                    //offer security on the verified network\r\n                    //securityToken = ISecuritiesRegistry(securityRegistriesContract).getToken(bonds[currencies[j]].currency, VerifiedProducts(productContract).getIssuerName(productRef), bondIssue.isin);\r\n                    //orderPool = IPoolFactory(poolFactoryContract).getPool(securityToken, currencies[j]);\r\n                    //IOrderPool(orderPool).newOrder(securityToken, currencies[j], bonds[currencies[j]].offerPrice, bonds[currencies[j]].issueSize, \"Limit\", \"Sell\");\r\n                    bondIssue.status = \"Started\";\r\n                    emit opened(bonds[currencies[j]].security, \"Offered\");\r\n                }\r\n            }\r\n        }\r\n    }\r\n\r\n    function getSubscribers() external onlyDP(msg.sender) returns(VerifiedIssues.ioi[] memory) {\r\n        for(uint i=0; i<platforms.length; i++){\r\n            for(uint k=0; k<currencies.length; k++){\r\n                if(bonds[currencies[k]].issueSize > 0 && bonds[currencies[k]].offerPrice > 0){\r\n                    address securitytoken;\r\n                    securitytoken = bonds[currencies[k]].security;\r\n                    //(bytes32[] memory pools, bool issueClosed) = IMarketMaker(platforms[i]).close(securitytoken);\r\n                    //emit close(platforms[i], securitytoken, address(this));\r\n                    bytes32[] memory pools = poolsOnClose[platforms[i]][securitytoken];\r\n                    bool issueClosed = issueCloseStatus[platforms[i]][securitytoken];\r\n                    if(issueClosed){\r\n                        bondIssue.status = \"Closed\";\r\n                        emit closed(securitytoken, \"Closed\");\r\n                    }\r\n                    for(uint j=0; j<pools.length; j++){\r\n                        //IMarketMaker.subscriptions[] memory subs = IMarketMaker(platforms[i]).getSubscribers(pools[j]);\r\n                        emit subscriptions(platforms[i], pools[j], address(this));\r\n                        IMarketMaker.subscriptions[] memory subs = subscribersOnClose[platforms[i]][pools[j]]; \r\n                        for(uint l=0; l<subs.length; l++){\r\n                            uint256 count = subscribers[productRef].length;\r\n                            subscribers[productRef][count].platform = platforms[i];\r\n                            subscribers[productRef][count].poolid = pools[j];\r\n                            subscribers[productRef][count].amount = subs[l].amount;\r\n                            subscribers[productRef][count].price = subs[l].price;\r\n                            subscribers[productRef][count].currency = subs[l].name;\r\n                            subscribers[productRef][count].investor = subs[l].investor;\r\n                            subscribers[productRef][count].asset = subs[l].asset;\r\n                            bool found = false;\r\n                            for(uint x=0; x<investors.length; x++){\r\n                                if(investors[x]==subs[l].investor)\r\n                                    found = true;\r\n                            }\r\n                            if(!found)\r\n                                investors.push(subs[l].investor);\r\n                        }\r\n                    }\r\n                }\r\n            }\r\n        }\r\n        return subscribers[productRef];\r\n    }\r\n\r\n    function allotIssue(bytes32 _allotment, address _platform, bytes32 _pool, address _investor, uint256 _amount, address _asset) external onlyDP(msg.sender){\r\n        timeOfIssue = now;\r\n        if(_allotment==\"accept\"){\r\n            for(uint i=0; i<subscribers[productRef].length; i++){\r\n                if(subscribers[productRef][i].poolid==_pool &&\r\n                   subscribers[productRef][i].investor==_investor &&\r\n                   subscribers[productRef][i].amount >= _amount &&\r\n                   subscribers[productRef][i].asset == _asset\r\n                   ){\r\n                    //IMarketMaker(_platform).accept(_pool, _investor, _amount, _asset);\r\n                    emit accept(_platform, _pool, _investor, _amount, _asset, address(this));\r\n                    subscribers[productRef][i].status == true;\r\n                    bool found = false;\r\n                    for(uint j=0; j<beneficiaries.length; j++){\r\n                        if(beneficiaries[j]==_investor)\r\n                            found = true;\r\n                    }\r\n                    if(!found)\r\n                        beneficiaries.push(_investor);\r\n                }\r\n            }\r\n            //IMarketMaker(_platform).settle(_pool);\r\n            emit settle(_platform, _pool, address(this));\r\n        }\r\n        else if(_allotment==\"reject\"){\r\n            //IMarketMaker(_platform).reject(_pool, _investor);\r\n            emit reject(_platform, _pool, _investor, address(this));\r\n        }\r\n        bondIssue.status = \"Allotted\";\r\n        emit allotted(address(this), \"Allotted\");\r\n    }\r\n\r\n    function computeNextInstallment(address _currency) external onlyDPorIssuer(msg.sender) returns(uint256 nextInstallment){\r\n        require(category==\"Bonds\");\r\n        return (beneficiaries.length * bonds[_currency].coupon);\r\n    }\r\n\r\n    function getPaymentAmountFor(address _beneficiary) external onlyDPorIssuer(msg.sender) view returns(uint256 paid){\r\n        require(category==\"Bonds\");\r\n        uint256 installments = BokkyPooBahsDateTimeLibrary.subSeconds(now, timeOfIssue)/bondIssue.couponPaymentCycle;\r\n        uint256 paymentMade = 0;\r\n        for(uint i=0; i<installments; i++){\r\n            paymentMade = paymentMade + payouts[_beneficiary][i].amount;\r\n        }\r\n        return (paymentMade);\r\n    }\r\n\r\n    function getmaturityDate() external onlyDPorIssuer(msg.sender) view returns(uint256 day, uint256 month, uint256 year){\r\n        require(category==\"Bonds\");\r\n        uint256 maturityDate = BokkyPooBahsDateTimeLibrary.addSeconds(timeOfIssue, bondIssue.tenure);\r\n        return (BokkyPooBahsDateTimeLibrary.getDay(maturityDate),\r\n                BokkyPooBahsDateTimeLibrary.getMonth(maturityDate),\r\n                BokkyPooBahsDateTimeLibrary.getYear(maturityDate));\r\n    }\r\n\r\n    function getfirstCouponDate() external onlyDPorIssuer(msg.sender) view returns(uint256 day, uint256 month, uint256 year){\r\n        require(category==\"Bonds\");\r\n        uint256 couponDate = BokkyPooBahsDateTimeLibrary.addSeconds(timeOfIssue, bondIssue.couponPaymentCycle);\r\n        return (BokkyPooBahsDateTimeLibrary.getDay(couponDate),\r\n                BokkyPooBahsDateTimeLibrary.getMonth(couponDate),\r\n                BokkyPooBahsDateTimeLibrary.getYear(couponDate));\r\n    }\r\n\r\n    function computeNextCouponDate() external onlyDPorIssuer(msg.sender) view returns(uint256 day, uint256 month, uint256 year){\r\n        require(category==\"Bonds\");\r\n        for(uint i=0; i<(bondIssue.tenure/bondIssue.couponPaymentCycle); i++){\r\n            if(BokkyPooBahsDateTimeLibrary.addSeconds(timeOfIssue, (bondIssue.couponPaymentCycle*(i+1)))>now){\r\n                uint256 nextDate = BokkyPooBahsDateTimeLibrary.addSeconds(timeOfIssue, (bondIssue.couponPaymentCycle*(i+1)));\r\n                return (BokkyPooBahsDateTimeLibrary.getDay(nextDate),\r\n                        BokkyPooBahsDateTimeLibrary.getMonth(nextDate),\r\n                        BokkyPooBahsDateTimeLibrary.getYear(nextDate));\r\n            }\r\n        }\r\n    }\r\n    \r\n    function getcouponFrequencyInMonths() onlyDPorIssuer(msg.sender) view external returns(uint256 couponFrequency){\r\n        require(category==\"Bonds\");\r\n        uint256 firstCouponDate = BokkyPooBahsDateTimeLibrary.addSeconds(timeOfIssue, bondIssue.couponPaymentCycle);\r\n        return BokkyPooBahsDateTimeLibrary.diffMonths(firstCouponDate, timeOfIssue);\r\n    }\r\n\r\n    function getinterestRateInBips(address _currency) external onlyDPorIssuer(msg.sender) view returns(uint256 interestRate){\r\n        require(category==\"Bonds\");\r\n        return bonds[_currency].coupon;\r\n    }\r\n\r\n\r\n}",
    "sourcePath": "D:\\Code\\verified-securities-L2\\securities\\contracts\\Bonds.sol",
    "compiler": {
        "name": "solc",
        "version": "0.5.7+commit.6da8b019.Emscripten.clang"
    },
    "schemaVersion": "3.4.3",
    "updatedAt": "2022-06-06T06:19:10.024Z",
    "networkType": "ethereum",
    "devdoc": {
        "methods": {
            "isOwner()": {
                "details": "Returns true if the caller is the current owner."
            },
            "owner()": {
                "details": "Returns the address of the current owner."
            },
            "renounceOwnership()": {
                "details": "Leaves the contract without owner. It will not be possible to call `onlyOwner` functions anymore. Can only be called by the current owner.     * NOTE: Renouncing ownership will leave the contract without an owner, thereby removing any functionality that is only available to the owner."
            },
            "transferOwnership(address)": {
                "details": "Transfers ownership of the contract to a new account (`newOwner`). Can only be called by the current owner."
            }
        }
    },
    "userdoc": {
        "methods": {}
    }
}