{
    "contractName": "Bonds",
    "abi": [
        {
            "constant": false,
            "inputs": [
                {
                    "name": "_byTime",
                    "type": "uint256"
                }
            ],
            "name": "isAllPaidFor",
            "outputs": [
                {
                    "name": "",
                    "type": "address[]"
                }
            ],
            "payable": false,
            "stateMutability": "nonpayable",
            "type": "function"
        },
        {
            "constant": false,
            "inputs": [
                {
                    "name": "platform",
                    "type": "address"
                },
                {
                    "components": [
                        {
                            "name": "owner",
                            "type": "address"
                        },
                        {
                            "name": "amountOffered",
                            "type": "uint256"
                        },
                        {
                            "name": "amountDesired",
                            "type": "uint256"
                        },
                        {
                            "name": "min",
                            "type": "uint256"
                        },
                        {
                            "name": "isin",
                            "type": "bytes32"
                        }
                    ],
                    "name": "lps",
                    "type": "tuple[]"
                }
            ],
            "name": "setLiquidityProviders",
            "outputs": [],
            "payable": false,
            "stateMutability": "nonpayable",
            "type": "function"
        },
        {
            "constant": false,
            "inputs": [
                {
                    "name": "_beneficiary",
                    "type": "address"
                },
                {
                    "name": "_currency",
                    "type": "bytes32"
                },
                {
                    "name": "_amount",
                    "type": "uint256"
                }
            ],
            "name": "payOut",
            "outputs": [],
            "payable": false,
            "stateMutability": "nonpayable",
            "type": "function"
        },
        {
            "constant": false,
            "inputs": [
                {
                    "name": "platform",
                    "type": "address"
                }
            ],
            "name": "getLiquidityProviders",
            "outputs": [
                {
                    "components": [
                        {
                            "name": "owner",
                            "type": "address"
                        },
                        {
                            "name": "tokenOffered",
                            "type": "address"
                        },
                        {
                            "name": "underwritten",
                            "type": "uint256"
                        },
                        {
                            "name": "subscribed",
                            "type": "uint256"
                        },
                        {
                            "name": "earned",
                            "type": "uint256"
                        }
                    ],
                    "name": "",
                    "type": "tuple[]"
                }
            ],
            "payable": false,
            "stateMutability": "nonpayable",
            "type": "function"
        },
        {
            "constant": true,
            "inputs": [],
            "name": "getOwner",
            "outputs": [
                {
                    "name": "",
                    "type": "address"
                }
            ],
            "payable": false,
            "stateMutability": "view",
            "type": "function"
        },
        {
            "constant": true,
            "inputs": [],
            "name": "getBeneficiaries",
            "outputs": [
                {
                    "name": "",
                    "type": "address[]"
                }
            ],
            "payable": false,
            "stateMutability": "view",
            "type": "function"
        },
        {
            "constant": false,
            "inputs": [
                {
                    "name": "_productReference",
                    "type": "bytes32"
                },
                {
                    "name": "_productCategory",
                    "type": "bytes32"
                },
                {
                    "name": "_issuer",
                    "type": "address"
                },
                {
                    "name": "_registrar",
                    "type": "address"
                },
                {
                    "name": "_owner",
                    "type": "address"
                },
                {
                    "name": "_securityContract",
                    "type": "address"
                },
                {
                    "name": "_securityRegistriesContract",
                    "type": "address"
                },
                {
                    "name": "_viaFactoryContract",
                    "type": "address"
                },
                {
                    "name": "_poolFactoryContract",
                    "type": "address"
                }
            ],
            "name": "initialize",
            "outputs": [],
            "payable": false,
            "stateMutability": "nonpayable",
            "type": "function"
        },
        {
            "constant": false,
            "inputs": [
                {
                    "name": "_liquidityPlatform",
                    "type": "address"
                }
            ],
            "name": "registerPlatform",
            "outputs": [],
            "payable": false,
            "stateMutability": "nonpayable",
            "type": "function"
        },
        {
            "constant": false,
            "inputs": [],
            "name": "getDateOfIssue",
            "outputs": [
                {
                    "name": "day",
                    "type": "uint256"
                },
                {
                    "name": "month",
                    "type": "uint256"
                },
                {
                    "name": "year",
                    "type": "uint256"
                }
            ],
            "payable": false,
            "stateMutability": "nonpayable",
            "type": "function"
        },
        {
            "constant": false,
            "inputs": [
                {
                    "name": "platform",
                    "type": "address"
                },
                {
                    "name": "securityToken",
                    "type": "address"
                },
                {
                    "name": "pools",
                    "type": "bytes32[]"
                },
                {
                    "name": "status",
                    "type": "bool"
                }
            ],
            "name": "setPlatformPools",
            "outputs": [],
            "payable": false,
            "stateMutability": "nonpayable",
            "type": "function"
        },
        {
            "constant": false,
            "inputs": [
                {
                    "name": "_beneficiary",
                    "type": "address"
                }
            ],
            "name": "getPaymentStatusFor",
            "outputs": [
                {
                    "components": [
                        {
                            "name": "currency",
                            "type": "bytes32"
                        },
                        {
                            "name": "amount",
                            "type": "uint256"
                        },
                        {
                            "name": "payoutDate",
                            "type": "uint256"
                        },
                        {
                            "name": "payer",
                            "type": "address"
                        }
                    ],
                    "name": "",
                    "type": "tuple[]"
                }
            ],
            "payable": false,
            "stateMutability": "nonpayable",
            "type": "function"
        },
        {
            "constant": false,
            "inputs": [
                {
                    "name": "platform",
                    "type": "address"
                },
                {
                    "name": "pool",
                    "type": "bytes32"
                },
                {
                    "components": [
                        {
                            "name": "investor",
                            "type": "address"
                        },
                        {
                            "name": "asset",
                            "type": "address"
                        },
                        {
                            "name": "name",
                            "type": "bytes32"
                        },
                        {
                            "name": "amount",
                            "type": "uint256"
                        },
                        {
                            "name": "price",
                            "type": "uint256"
                        }
                    ],
                    "name": "eois",
                    "type": "tuple[]"
                }
            ],
            "name": "setPlatformSubscribers",
            "outputs": [],
            "payable": false,
            "stateMutability": "nonpayable",
            "type": "function"
        },
        {
            "anonymous": false,
            "inputs": [
                {
                    "indexed": false,
                    "name": "issueSize",
                    "type": "uint256"
                },
                {
                    "indexed": false,
                    "name": "offerPrice",
                    "type": "uint256"
                },
                {
                    "indexed": false,
                    "name": "minAskPrice",
                    "type": "uint256"
                },
                {
                    "indexed": false,
                    "name": "minSubscription",
                    "type": "uint256"
                },
                {
                    "indexed": false,
                    "name": "currency",
                    "type": "bytes32"
                },
                {
                    "indexed": false,
                    "name": "security",
                    "type": "address"
                },
                {
                    "indexed": false,
                    "name": "offerType",
                    "type": "bytes32"
                },
                {
                    "indexed": false,
                    "name": "isin",
                    "type": "bytes32"
                },
                {
                    "indexed": false,
                    "name": "status",
                    "type": "bytes32"
                },
                {
                    "indexed": false,
                    "name": "productCategory",
                    "type": "bytes32"
                }
            ],
            "name": "issued",
            "type": "event"
        },
        {
            "anonymous": false,
            "inputs": [
                {
                    "indexed": false,
                    "name": "security",
                    "type": "address"
                },
                {
                    "indexed": false,
                    "name": "status",
                    "type": "bytes32"
                }
            ],
            "name": "offered",
            "type": "event"
        },
        {
            "anonymous": false,
            "inputs": [
                {
                    "indexed": false,
                    "name": "security",
                    "type": "address"
                },
                {
                    "indexed": false,
                    "name": "status",
                    "type": "bytes32"
                }
            ],
            "name": "opened",
            "type": "event"
        },
        {
            "anonymous": false,
            "inputs": [
                {
                    "indexed": false,
                    "name": "security",
                    "type": "address"
                },
                {
                    "indexed": false,
                    "name": "status",
                    "type": "bytes32"
                }
            ],
            "name": "closed",
            "type": "event"
        },
        {
            "anonymous": false,
            "inputs": [
                {
                    "indexed": false,
                    "name": "security",
                    "type": "address"
                },
                {
                    "indexed": false,
                    "name": "status",
                    "type": "bytes32"
                }
            ],
            "name": "allotted",
            "type": "event"
        },
        {
            "anonymous": false,
            "inputs": [
                {
                    "indexed": false,
                    "name": "platform",
                    "type": "address"
                },
                {
                    "indexed": false,
                    "name": "security",
                    "type": "address"
                },
                {
                    "indexed": false,
                    "name": "isin",
                    "type": "bytes32"
                },
                {
                    "indexed": false,
                    "name": "issueSize",
                    "type": "uint256"
                },
                {
                    "indexed": false,
                    "name": "currency",
                    "type": "address"
                },
                {
                    "indexed": false,
                    "name": "offerPrice",
                    "type": "uint256"
                },
                {
                    "indexed": false,
                    "name": "minAskPrice",
                    "type": "uint256"
                },
                {
                    "indexed": false,
                    "name": "minSubscription",
                    "type": "uint256"
                },
                {
                    "indexed": false,
                    "name": "issuer",
                    "type": "address"
                }
            ],
            "name": "offer",
            "type": "event"
        },
        {
            "anonymous": false,
            "inputs": [
                {
                    "indexed": false,
                    "name": "platform",
                    "type": "address"
                },
                {
                    "indexed": false,
                    "name": "security",
                    "type": "address"
                },
                {
                    "indexed": false,
                    "name": "cutOffTime",
                    "type": "uint256"
                },
                {
                    "indexed": false,
                    "name": "issuer",
                    "type": "address"
                }
            ],
            "name": "start",
            "type": "event"
        },
        {
            "anonymous": false,
            "inputs": [
                {
                    "indexed": false,
                    "name": "platform",
                    "type": "address"
                },
                {
                    "indexed": false,
                    "name": "security",
                    "type": "address"
                },
                {
                    "indexed": false,
                    "name": "issuer",
                    "type": "address"
                }
            ],
            "name": "close",
            "type": "event"
        },
        {
            "anonymous": false,
            "inputs": [
                {
                    "indexed": false,
                    "name": "platform",
                    "type": "address"
                },
                {
                    "indexed": false,
                    "name": "pool",
                    "type": "bytes32"
                },
                {
                    "indexed": false,
                    "name": "issuer",
                    "type": "address"
                }
            ],
            "name": "subscriptions",
            "type": "event"
        },
        {
            "anonymous": false,
            "inputs": [
                {
                    "indexed": false,
                    "name": "platform",
                    "type": "address"
                },
                {
                    "indexed": false,
                    "name": "pool",
                    "type": "bytes32"
                },
                {
                    "indexed": false,
                    "name": "investor",
                    "type": "address"
                },
                {
                    "indexed": false,
                    "name": "amount",
                    "type": "uint256"
                },
                {
                    "indexed": false,
                    "name": "asset",
                    "type": "address"
                },
                {
                    "indexed": false,
                    "name": "issuer",
                    "type": "address"
                }
            ],
            "name": "accept",
            "type": "event"
        },
        {
            "anonymous": false,
            "inputs": [
                {
                    "indexed": false,
                    "name": "platform",
                    "type": "address"
                },
                {
                    "indexed": false,
                    "name": "pool",
                    "type": "bytes32"
                },
                {
                    "indexed": false,
                    "name": "issuer",
                    "type": "address"
                }
            ],
            "name": "settle",
            "type": "event"
        },
        {
            "anonymous": false,
            "inputs": [
                {
                    "indexed": false,
                    "name": "platform",
                    "type": "address"
                },
                {
                    "indexed": false,
                    "name": "pool",
                    "type": "bytes32"
                },
                {
                    "indexed": false,
                    "name": "investor",
                    "type": "address"
                },
                {
                    "indexed": false,
                    "name": "issuer",
                    "type": "address"
                }
            ],
            "name": "reject",
            "type": "event"
        },
        {
            "anonymous": false,
            "inputs": [
                {
                    "indexed": false,
                    "name": "platform",
                    "type": "address"
                },
                {
                    "indexed": false,
                    "name": "security",
                    "type": "address"
                },
                {
                    "indexed": false,
                    "name": "issuer",
                    "type": "address"
                }
            ],
            "name": "getLP",
            "type": "event"
        },
        {
            "constant": false,
            "inputs": [
                {
                    "name": "_issueSize",
                    "type": "uint256"
                },
                {
                    "name": "_offerPrice",
                    "type": "uint256"
                },
                {
                    "name": "_minAskPrice",
                    "type": "uint256"
                },
                {
                    "name": "_minSubscription",
                    "type": "uint256"
                },
                {
                    "name": "_couponPaymentCycle",
                    "type": "uint256"
                },
                {
                    "name": "_tenure",
                    "type": "uint256"
                },
                {
                    "name": "_currency",
                    "type": "bytes32"
                },
                {
                    "name": "_offerType",
                    "type": "bytes32"
                },
                {
                    "name": "_isin",
                    "type": "bytes32"
                },
                {
                    "name": "_offeringDocuments",
                    "type": "string"
                }
            ],
            "name": "issueBond",
            "outputs": [],
            "payable": false,
            "stateMutability": "nonpayable",
            "type": "function"
        },
        {
            "constant": true,
            "inputs": [],
            "name": "getBond",
            "outputs": [
                {
                    "components": [
                        {
                            "name": "issueSize",
                            "type": "uint256"
                        },
                        {
                            "name": "coupon",
                            "type": "uint256"
                        },
                        {
                            "name": "offerPrice",
                            "type": "uint256"
                        },
                        {
                            "name": "minAskPrice",
                            "type": "uint256"
                        },
                        {
                            "name": "minSubscription",
                            "type": "uint256"
                        },
                        {
                            "name": "currency",
                            "type": "bytes32"
                        },
                        {
                            "name": "security",
                            "type": "address"
                        }
                    ],
                    "name": "",
                    "type": "tuple[]"
                },
                {
                    "components": [
                        {
                            "name": "offerType",
                            "type": "bytes32"
                        },
                        {
                            "name": "couponPaymentCycle",
                            "type": "uint256"
                        },
                        {
                            "name": "tenure",
                            "type": "uint256"
                        },
                        {
                            "name": "isin",
                            "type": "bytes32"
                        },
                        {
                            "name": "status",
                            "type": "bytes32"
                        },
                        {
                            "name": "offeringDocuments",
                            "type": "string"
                        }
                    ],
                    "name": "",
                    "type": "tuple"
                }
            ],
            "payable": false,
            "stateMutability": "view",
            "type": "function"
        },
        {
            "constant": false,
            "inputs": [],
            "name": "askOffers",
            "outputs": [],
            "payable": false,
            "stateMutability": "nonpayable",
            "type": "function"
        },
        {
            "constant": false,
            "inputs": [
                {
                    "name": "cutOffTime",
                    "type": "uint256"
                }
            ],
            "name": "startIssue",
            "outputs": [],
            "payable": false,
            "stateMutability": "nonpayable",
            "type": "function"
        },
        {
            "constant": false,
            "inputs": [],
            "name": "getSubscribers",
            "outputs": [
                {
                    "components": [
                        {
                            "name": "currency",
                            "type": "bytes32"
                        },
                        {
                            "name": "amount",
                            "type": "uint256"
                        },
                        {
                            "name": "price",
                            "type": "uint256"
                        },
                        {
                            "name": "poolid",
                            "type": "bytes32"
                        },
                        {
                            "name": "status",
                            "type": "bool"
                        },
                        {
                            "name": "platform",
                            "type": "address"
                        },
                        {
                            "name": "investor",
                            "type": "address"
                        },
                        {
                            "name": "asset",
                            "type": "address"
                        }
                    ],
                    "name": "",
                    "type": "tuple[]"
                }
            ],
            "payable": false,
            "stateMutability": "nonpayable",
            "type": "function"
        },
        {
            "constant": false,
            "inputs": [
                {
                    "name": "_allotment",
                    "type": "bytes32"
                },
                {
                    "name": "_platform",
                    "type": "address"
                },
                {
                    "name": "_pool",
                    "type": "bytes32"
                },
                {
                    "name": "_investor",
                    "type": "address"
                },
                {
                    "name": "_amount",
                    "type": "uint256"
                },
                {
                    "name": "_asset",
                    "type": "address"
                }
            ],
            "name": "allotIssue",
            "outputs": [],
            "payable": false,
            "stateMutability": "nonpayable",
            "type": "function"
        },
        {
            "constant": false,
            "inputs": [
                {
                    "name": "_currency",
                    "type": "address"
                }
            ],
            "name": "computeNextInstallment",
            "outputs": [
                {
                    "name": "nextInstallment",
                    "type": "uint256"
                }
            ],
            "payable": false,
            "stateMutability": "nonpayable",
            "type": "function"
        },
        {
            "constant": true,
            "inputs": [
                {
                    "name": "_beneficiary",
                    "type": "address"
                }
            ],
            "name": "getPaymentAmountFor",
            "outputs": [
                {
                    "name": "paid",
                    "type": "uint256"
                }
            ],
            "payable": false,
            "stateMutability": "view",
            "type": "function"
        },
        {
            "constant": true,
            "inputs": [],
            "name": "getmaturityDate",
            "outputs": [
                {
                    "name": "day",
                    "type": "uint256"
                },
                {
                    "name": "month",
                    "type": "uint256"
                },
                {
                    "name": "year",
                    "type": "uint256"
                }
            ],
            "payable": false,
            "stateMutability": "view",
            "type": "function"
        },
        {
            "constant": true,
            "inputs": [],
            "name": "getfirstCouponDate",
            "outputs": [
                {
                    "name": "day",
                    "type": "uint256"
                },
                {
                    "name": "month",
                    "type": "uint256"
                },
                {
                    "name": "year",
                    "type": "uint256"
                }
            ],
            "payable": false,
            "stateMutability": "view",
            "type": "function"
        },
        {
            "constant": true,
            "inputs": [],
            "name": "computeNextCouponDate",
            "outputs": [
                {
                    "name": "day",
                    "type": "uint256"
                },
                {
                    "name": "month",
                    "type": "uint256"
                },
                {
                    "name": "year",
                    "type": "uint256"
                }
            ],
            "payable": false,
            "stateMutability": "view",
            "type": "function"
        },
        {
            "constant": true,
            "inputs": [],
            "name": "getcouponFrequencyInMonths",
            "outputs": [
                {
                    "name": "couponFrequency",
                    "type": "uint256"
                }
            ],
            "payable": false,
            "stateMutability": "view",
            "type": "function"
        },
        {
            "constant": true,
            "inputs": [
                {
                    "name": "_currency",
                    "type": "address"
                }
            ],
            "name": "getinterestRateInBips",
            "outputs": [
                {
                    "name": "interestRate",
                    "type": "uint256"
                }
            ],
            "payable": false,
            "stateMutability": "view",
            "type": "function"
        }
    ],
    "bytecode": "0x608060405234801561001057600080fd5b5061419b806100206000396000f3fe608060405234801561001057600080fd5b50600436106101735760003560e01c8063893d20e8116100de578063d3340fb611610097578063f010e2c211610071578063f010e2c214610302578063f5adf2ff14610315578063f76ebabb14610328578063fdf4bf5d1461034857610173565b8063d3340fb6146102d4578063d6088981146102e7578063dc442029146102fa57610173565b8063893d20e81461027e578063913b722c14610293578063982b25681461029b578063ac982472146102a3578063b43ea066146102b9578063b648ba6e146102c157610173565b80634274515d116101305780634274515d146101f957806358ce1f791461020e5780635e075a431461022157806366f2f9c014610238578063841556001461024b57806388c4b6ee1461025e57610173565b806305cc61ad146101785780631bafe1b91461019657806321ec2b42146101ab57806323b83a5e146101be5780633824240c146101de5780633cb4bd63146101f1575b600080fd5b61018061035b565b60405161018d9190613f3c565b60405180910390f35b6101a96101a4366004613547565b610a57565b005b6101a96101b93660046136b0565b610e20565b6101d16101cc366004613692565b61113e565b60405161018d9190613f06565b6101a96101ec366004613315565b6112bc565b6101a96113f5565b610201611a6f565b60405161018d9190613f6f565b61020161021c366004613253565b611ae4565b610229611ba8565b60405161018d93929190613fcd565b610201610246366004613253565b611c37565b6101a961025936600461340d565b611ca8565b61027161026c366004613253565b611e53565b60405161018d9190613f4d565b610286611ea4565b60405161018d9190613d05565b6101d1611eb4565b610229611f49565b6102ab611fad565b60405161018d929190613f17565b610229612366565b6101a96102cf3660046135ce565b61243d565b6101a96102e2366004613253565b612638565b6102016102f5366004613253565b6126a1565b61022961270e565b6101a9610310366004613692565b612773565b6101a9610323366004613297565b61298d565b61033b610336366004613253565b6129df565b60405161018d9190613f5e565b6101a96103563660046133a5565b612aaf565b60375460609033906001600160a01b0316811461037757600080fd5b60005b60405481101561098e5760005b604154811015610985576000604b6000604184815481106103a457fe5b60009182526020808320909101546001600160a01b0316835282019290925260400190205411801561040e57506000604b6000604184815481106103e457fe5b60009182526020808320909101546001600160a01b03168352820192909252604001902060020154115b1561097d576000604b60006041848154811061042657fe5b60009182526020808320909101546001600160a01b0390811684529083019390935260409182018120600601548254931693506060929091908690811061046957fe5b600091825260209091200154604051600160e01b63c74073a10281526001600160a01b039091169063c74073a1906104a5908690600401613d05565b600060405180830381600087803b1580156104bf57600080fd5b505af11580156104d3573d6000803e3d6000fd5b505050506040513d6000823e601f3d908101601f191682016040526104fb919081019061348f565b91509150801561054e57600160d21b6510db1bdcd959026050556040517f740ceeecb0c18ce3fa5eea6dd340f21c17bc1af2554ba4931954bfa38bacd18b90610545908590613e9d565b60405180910390a15b60005b82518110156109785760606040878154811061056957fe5b60009182526020909120015484516001600160a01b039091169063bfa0caa79086908590811061059557fe5b60200260200101516040518263ffffffff1660e01b81526004016105b99190613f6f565b600060405180830381600087803b1580156105d357600080fd5b505af11580156105e7573d6000803e3d6000fd5b505050506040513d6000823e601f3d908101601f1916820160405261060f91908101906134d6565b905060005b815181101561096e57603354600090815260456020526040908190205481549091908a90811061064057fe5b600091825260208083209091015460335483526045909152604090912080546001600160a01b03909216918390811061067557fe5b906000526020600020906007020160040160016101000a8154816001600160a01b0302191690836001600160a01b031602179055508584815181106106b657fe5b602002602001015160456000603354815260200190815260200160002082815481106106de57fe5b9060005260206000209060070201600301819055508282815181106106ff57fe5b602002602001015160600151604560006033548152602001908152602001600020828154811061072b57fe5b90600052602060002090600702016001018190555082828151811061074c57fe5b602002602001015160800151604560006033548152602001908152602001600020828154811061077857fe5b90600052602060002090600702016002018190555082828151811061079957fe5b60200260200101516040015160456000603354815260200190815260200160002082815481106107c557fe5b9060005260206000209060070201600001819055508282815181106107e657fe5b602002602001015160000151604560006033548152602001908152602001600020828154811061081257fe5b906000526020600020906007020160050160006101000a8154816001600160a01b0302191690836001600160a01b0316021790555082828151811061085357fe5b602002602001015160200151604560006033548152602001908152602001600020828154811061087f57fe5b6000918252602082206007919091020160060180546001600160a01b0319166001600160a01b039390931692909217909155805b604354811015610913578484815181106108c957fe5b6020026020010151600001516001600160a01b0316604382815481106108eb57fe5b6000918252602090912001546001600160a01b0316141561090b57600191505b6001016108b3565b508061096457604384848151811061092757fe5b6020908102919091018101515182546001810184556000938452919092200180546001600160a01b0319166001600160a01b039092169190911790555b5050600101610614565b5050600101610551565b505050505b600101610387565b5060010161037a565b50603354600090815260456020908152604080832080548251818502810185019093528083529193909284015b82821015610a4c57600084815260209081902060408051610100808201835260078702909301805482526001808201548387015260028201549383019390935260038101546060830152600481015460ff8116151560808401526001600160a01b03949004841660a08301526005810154841660c08301526006015490921660e083015290835290920191016109bb565b5050505091505b5090565b60375433906001600160a01b03168114610a7057600080fd5b42603f55600160d21b651858d8d95c1d02871415610d555760005b603354600090815260456020526040902054811015610cee57856045600060335481526020019081526020016000208281548110610ac557fe5b906000526020600020906007020160030154148015610b285750846001600160a01b03166045600060335481526020019081526020016000208281548110610b0957fe5b60009182526020909120600560079092020101546001600160a01b0316145b8015610b655750836045600060335481526020019081526020016000208281548110610b5057fe5b90600052602060002090600702016001015410155b8015610bb55750826001600160a01b03166045600060335481526020019081526020016000208281548110610b9657fe5b60009182526020909120600660079092020101546001600160a01b0316145b15610ce657604051600160e01b638a0c62f10281526001600160a01b03881690638a0c62f190610bef908990899089908990600401613f98565b600060405180830381600087803b158015610c0957600080fd5b505af1158015610c1d573d6000803e3d6000fd5b505050506045600060335481526020019081526020016000208181548110610c4157fe5b506000908152805b604454811015610c9257866001600160a01b031660448281548110610c6a57fe5b6000918252602090912001546001600160a01b03161415610c8a57600191505b600101610c49565b5080610ce457604480546001810182556000919091527f9b22d3d61959b4d3528b1d8ba932c96fbe302b36a1aad1d95cab54f9e0a135ea0180546001600160a01b0319166001600160a01b0388161790555b505b600101610a8b565b50604051600160e01b63987757dd0281526001600160a01b0387169063987757dd90610d1e908890600401613f6f565b600060405180830381600087803b158015610d3857600080fd5b505af1158015610d4c573d6000803e3d6000fd5b50505050610dcd565b86600160d21b651c995a9958dd021415610dcd57604051600160e31b6307e132050281526001600160a01b03871690633f09902890610d9a9088908890600401613f7d565b600060405180830381600087803b158015610db457600080fd5b505af1158015610dc8573d6000803e3d6000fd5b505050505b600160c21b67105b1b1bdd1d1959026050556040517f03b095f68fee05efe5e24b3561adcaff741870d703b9bce62535d572cc084a3090610e0f903090613ed1565b60405180910390a150505050505050565b60375433906001600160a01b03168114610e3957600080fd5b603454600160d81b64426f6e64730214610e5257600080fd5b603a54603354604051600160e21b633d3f3fe902815230926001600160a01b03169163f4fcffa491610e879190600401613f6f565b60206040518083038186803b158015610e9f57600080fd5b505afa158015610eb3573d6000803e3d6000fd5b505050506040513d601f19601f82011682018060405250610ed79190810190613279565b6001600160a01b031614610eea57600080fd5b603d54604051600160e21b633cd163c50281526000916001600160a01b03169063f3458f1490610f1e908a90600401613fe8565b60206040518083038186803b158015610f3657600080fd5b505afa158015610f4a573d6000803e3d6000fd5b505050506040513d601f19601f82011682018060405250610f6e9190810190613279565b603d54604051600160e01b63f429f19b0281529192506001600160a01b03169063f429f19b90610fa2908490600401613d05565b60206040518083038186803b158015610fba57600080fd5b505afa158015610fce573d6000803e3d6000fd5b505050506040513d601f19601f82011682018060405250610ff29190810190613529565b600160cb1b660acd2c286c2e6d021461100a57600080fd5b6001600160a01b03811660009081526042602052604090205461108257604180546001810182557f7c9785e8241615bc80415d89775984a1337d15dc1bf4ce50f41988b2a2b336a70180546001600160a01b0319166001600160a01b0384169081179091559054600091825260426020526040909120555b6001600160a01b0381166000908152604b602052604090208d8155600281018d9055600381018c9055600481018b9055600501879055604c869055604d899055604e889055604f8590556110d860518585612d75565b50600160d21b65125cdcdd5959026050556040517f9db73b9e34b67b0482a252ae5e5448652d5745ede72cfa129660d76c3722598390611127908f908f908f908f908d9030908e908e90614012565b60405180910390a150505050505050505050505050565b60375460609033906001600160a01b031681148061116957506036546001600160a01b038281169116145b61117257600080fd5b60445460408051828152602080840282010190915260609180156111a0578160200160208202803883390190505b5090506000805b6044548110156112b2576000600160466000604485815481106111c657fe5b60009182526020808320909101546001600160a01b03168352820192909252604001812054604480549390910393506046928590811061120257fe5b60009182526020808320909101546001600160a01b03168352820192909252604001902080548290811061123257fe5b9060005260206000209060040201600201548711156112a9576044828154811061125857fe5b9060005260206000200160009054906101000a90046001600160a01b031684848151811061128257fe5b60200260200101906001600160a01b031690816001600160a01b0316815250508260010192505b506001016111a7565b5090949350505050565b60005b818110156113ef576112cf612def565b6040518060a001604052808585858181106112e657fe5b905060a00201600001356001600160a01b03166001600160a01b0316815260200185858581811061131357fe5b905060a0020160200135815260200185858581811061132e57fe5b905060a0020160400135815260200185858581811061134957fe5b905060a0020160600135815260200185858581811061136457fe5b60a00291909101608090810135909252506001600160a01b03878116600090815260476020908152604080832080546001808201835591855293839020875160059095020180546001600160a01b03191694909516939093178455908501518383015584015160028301556060840151600383015592909101516004909101559190910190506112bf565b50505050565b60375433906001600160a01b0316811461140e57600080fd5b60008080808080805b604154811015611a6557604c600301549650604b60006041838154811061143a57fe5b60009182526020808320909101546001600160a01b0316835282019290925260400181206005015460418054919850604b92918490811061147757fe5b60009182526020808320909101546001600160a01b0316835282019290925260400181205460418054919750604b9291849081106114b157fe5b60009182526020808320909101546001600160a01b0316835282019290925260400181206002015460418054919650604b9291849081106114ee57fe5b60009182526020808320909101546001600160a01b0316835282019290925260400181206003015460418054919550604b92918490811061152b57fe5b60009182526020808320909101546001600160a01b03168352820192909252604001902060040154915084158015906115645750600084115b15611a5d57603c54603a54603354604051600160e11b63522127410281526001600160a01b0393841693632df8d8fd93169163a4424e82916115a99190600401613f6f565b60206040518083038186803b1580156115c157600080fd5b505afa1580156115d5573d6000803e3d6000fd5b505050506040513d601f19601f820116820180604052506115f99190810190613279565b603b54603a54603354604051600160e01b63572d82990281526001600160a01b03938416938d93169163572d8299916116359190600401613f6f565b60206040518083038186803b15801561164d57600080fd5b505afa158015611661573d6000803e3d6000fd5b505050506040513d601f19601f820116820180604052506116859190810190613529565b8c6040518663ffffffff1660e01b81526004016116a6959493929190613d63565b600060405180830381600087803b1580156116c057600080fd5b505af11580156116d4573d6000803e3d6000fd5b5050603c54603a54603354604051600160e01b63572d82990281526001600160a01b039384169550639c3acea094508b939092169163572d82999161171b91600401613f6f565b60206040518083038186803b15801561173357600080fd5b505afa158015611747573d6000803e3d6000fd5b505050506040513d601f19601f8201168201806040525061176b9190810190613529565b8a6040518463ffffffff1660e01b815260040161178a93929190613fcd565b60206040518083038186803b1580156117a257600080fd5b505afa1580156117b6573d6000803e3d6000fd5b505050506040513d601f19601f820116820180604052506117da9190810190613279565b603880546001600160a01b0319166001600160a01b039283161790819055604051600160e01b6340c10f190281529116906340c10f19906118219030908990600401613eeb565b600060405180830381600087803b15801561183b57600080fd5b505af115801561184f573d6000803e3d6000fd5b5050603854604180546001600160a01b039092169350604b92506000918590811061187657fe5b6000918252602080832091909101546001600160a01b039081168452908301939093526040918201902060060180546001600160a01b03191693831693909317909255600160ca1b6613d999995c99590260505560385491517ff4503fa8a89133c55d060f625dd7c591b559496759626476dd2233e41ea9ad32926118fc921690613eb7565b60405180910390a160005b604054811015611a5b576040818154811061191e57fe5b600091825260209091200154603854604180546001600160a01b03938416936333d019bb9316918c918b91908890811061195457fe5b60009182526020909120015460405163ffffffff861660e01b815261198c949392916001600160a01b0316908c908c90600401613e43565b600060405180830381600087803b1580156119a657600080fd5b505af11580156119ba573d6000803e3d6000fd5b505050507f2cdff49e5121f5e17f9517915fa31e1f24f42e3fcbe940daa66f39108de4bdaf604082815481106119ec57fe5b600091825260209091200154603854604180546001600160a01b0393841693909216918c918b9188908110611a1d57fe5b600091825260209091200154604051611a4b95949392916001600160a01b0316908c908c908c903090613dbd565b60405180910390a1600101611907565b505b600101611417565b5050505050505050565b60375460009033906001600160a01b0316811480611a9a57506036546001600160a01b038281169116145b611aa357600080fd5b603454600160d81b64426f6e64730214611abc57600080fd5b6000611acf603f54604c60010154612c0a565b9050611add81603f54612c20565b9250505090565b60375460009033906001600160a01b0316811480611b0f57506036546001600160a01b038281169116145b611b1857600080fd5b603454600160d81b64426f6e64730214611b3157600080fd5b6000604c60010154611b4542603f54612c77565b81611b4c57fe5b0490506000805b82811015611b9f576001600160a01b0386166000908152604660205260409020805482908110611b7f57fe5b600091825260209091206001600490920201810154929092019101611b53565b50949350505050565b6037546000908190819033906001600160a01b0316811480611bd757506036546001600160a01b038281169116145b611be057600080fd5b603454600160d81b64426f6e64730214611bf957600080fd5b6000611c0c603f54604c60010154612c0a565b9050611c1781612c87565b611c2082612ca2565b611c2983612cbd565b945094509450505b50909192565b60375460009033906001600160a01b0316811480611c6257506036546001600160a01b038281169116145b611c6b57600080fd5b603454600160d81b64426f6e64730214611c8457600080fd5b50506001600160a01b03166000908152604b60205260409020600101546044540290565b60375433906001600160a01b0316811480611cd057506036546001600160a01b038281169116145b611cd957600080fd5b603d54604051600160e21b632e5ac80102815260009182916001600160a01b039091169063b96b200490611d11908890600401613f6f565b604080518083038186803b158015611d2857600080fd5b505afa158015611d3c573d6000803e3d6000fd5b505050506040513d601f19601f82011682018060405250611d60919081019061336b565b9150915080600160cb1b660acd2c286c2e6d021415611e4b57604051600160e01b6323b872dd0281526001600160a01b038316906323b872dd90611dac9033908a908990600401613d13565b602060405180830381600087803b158015611dc657600080fd5b505af1158015611dda573d6000803e3d6000fd5b505050506040513d601f19601f82011682018060405250611dfe919081019061350b565b15611e4b57611e0b612e2a565b5060408051608081018252868152602080820187905242828401523360608301526001600160a01b03891660009081526046909152919091208054829190fe5b505050505050565b6038546040516060917fc203fec4e82c5cb8ac9144da60520b86a76f49ebac45ffaabc45def236be0cb991611e979185916001600160a01b03909116903090613d3b565b60405180910390a1919050565b6035546001600160a01b03165b90565b60375460609033906001600160a01b0316811480611edf57506036546001600160a01b038281169116145b611ee857600080fd5b6044805480602002602001604051908101604052809291908181526020018280548015611f3e57602002820191906000526020600020905b81546001600160a01b03168152600190910190602001808311611f20575b505050505091505090565b6037546000908190819033906001600160a01b0316811480611f7857506036546001600160a01b038281169116145b611f8157600080fd5b603454600160d81b64426f6e64730214611f9a57600080fd5b6000611c0c603f54604c60020154612c0a565b6060611fb7612e51565b6041546040805182815260208084028201019091526060918015611ff557816020015b611fe2612e88565b815260200190600190039081611fda5790505b509050612000612e88565b60005b60415481101561228f576040518060e00160405280604b60006041858154811061202957fe5b9060005260206000200160009054906101000a90046001600160a01b03166001600160a01b03166001600160a01b03168152602001908152602001600020600001548152602001604b60006041858154811061208157fe5b9060005260206000200160009054906101000a90046001600160a01b03166001600160a01b03166001600160a01b03168152602001908152602001600020600101548152602001604b6000604185815481106120d957fe5b9060005260206000200160009054906101000a90046001600160a01b03166001600160a01b03166001600160a01b03168152602001908152602001600020600201548152602001604b60006041858154811061213157fe5b9060005260206000200160009054906101000a90046001600160a01b03166001600160a01b03166001600160a01b03168152602001908152602001600020600301548152602001604b60006041858154811061218957fe5b9060005260206000200160009054906101000a90046001600160a01b03166001600160a01b03166001600160a01b03168152602001908152602001600020600401548152602001604b6000604185815481106121e157fe5b9060005260206000200160009054906101000a90046001600160a01b03166001600160a01b03166001600160a01b03168152602001908152602001600020600501548152602001604b60006041858154811061223957fe5b60009182526020808320909101546001600160a01b0390811684529083019390935260409091019020600601541690528351909250829084908390811061227c57fe5b6020908102919091010152600101612003565b506040805160c081018252604c80548252604d54602080840191909152604e5483850152604f546060840152605054608084015260518054855160026001831615610100026000190190921691909104601f81018490048402820184019096528581528795939493859360a086019391908301828280156123515780601f1061232657610100808354040283529160200191612351565b820191906000526020600020905b81548152906001019060200180831161233457829003601f168201915b50505050508152505090509350935050509091565b6037546000908190819033906001600160a01b031681148061239557506036546001600160a01b038281169116145b61239e57600080fd5b603454600160d81b64426f6e647302146123b757600080fd5b60005b604d54604e54816123c757fe5b0481101561243657426123e6603f5483600101604c6001015402612c0a565b111561242e576000612404603f5483600101604c6001015402612c0a565b905061240f81612c87565b61241882612ca2565b61242183612cbd565b9550955095505050611c31565b6001016123ba565b5050909192565b600054610100900460ff16806124565750612456612cd9565b80612464575060005460ff16155b61248c57604051600160e51b62461bcd02815260040161248390614002565b60405180910390fd5b600054610100900460ff161580156124b7576000805460ff1961ff0019909116610100171660011790555b603580546001600160a01b03199081166001600160a01b038981169190911790925560338c905560348b90556036805482168b84161790556037805482168a8416179055603a8054339083161790819055603b80548316898516179055603c80548316888516179055603d80548316878516179055603e80549092168584161790915560408051600160e11b630fdf2a9702815290516060939290921691631fbe552e91600480820192600092909190829003018186803b15801561257b57600080fd5b505afa15801561258f573d6000803e3d6000fd5b505050506040513d6000823e601f3d908101601f191682016040526125b7919081019061345a565b905060005b81518110156126185760408282815181106125d357fe5b60209081029190910181015182546001808201855560009485529290932090920180546001600160a01b0319166001600160a01b0390931692909217909155016125bc565b5050801561262c576000805461ff00191690555b50505050505050505050565b603a546001600160a01b0316331461264f57600080fd5b604080546001810182556000919091527f352feee0eea125f11f791c1b77524172e9bc20f1b719b6cef0fc24f64db8e15e0180546001600160a01b0319166001600160a01b0392909216919091179055565b60375460009033906001600160a01b03168114806126cc57506036546001600160a01b038281169116145b6126d557600080fd5b603454600160d81b64426f6e647302146126ee57600080fd5b50506001600160a01b03166000908152604b602052604090206001015490565b6037546000908190819033906001600160a01b031681148061273d57506036546001600160a01b038281169116145b61274657600080fd5b612751603f54612c87565b61275c603f54612ca2565b612767603f54612cbd565b93509350935050909192565b60375433906001600160a01b0316811461278c57600080fd5b600080805b6040548110156129865760005b60415481101561297d576000604b6000604184815481106127bb57fe5b60009182526020808320909101546001600160a01b0316835282019290925260400190205411801561282557506000604b6000604184815481106127fb57fe5b60009182526020808320909101546001600160a01b03168352820192909252604001902060020154115b15612975576040828154811061283757fe5b6000918252602082200154604180546001600160a01b039092169263867904b492604b92908690811061286657fe5b60009182526020808320909101546001600160a01b039081168452908301939093526040918201902060060154905163ffffffff841660e01b81526128b49291909116908a90600401613eeb565b600060405180830381600087803b1580156128ce57600080fd5b505af11580156128e2573d6000803e3d6000fd5b50505050600160ca1b6614dd185c9d195902604c600401819055507f9a17155a17018d770a1d614ea564978a64992afbd4577a46f3797f7102c260e8604b60006041848154811061292f57fe5b60009182526020808320909101546001600160a01b039081168452908301939093526040918201902060060154905161296c929190911690613eb7565b60405180910390a15b60010161279e565b50600101612791565b5050505050565b6001600160a01b038581166000818152604960209081526040808320948916808452948252808320805460ff191687151517905592825260488152828220938252929092529020611e4b908484612ed1565b60375460609033906001600160a01b0316811480612a0a57506036546001600160a01b038281169116145b612a1357600080fd5b6001600160a01b038316600090815260466020908152604080832080548251818502810185019093528083529193909284015b82821015612aa357600084815260209081902060408051608081018252600486029092018054835260018082015484860152600282015492840192909252600301546001600160a01b031660608301529083529092019101612a46565b50505050915050919050565b60005b8181101561298657612ac2612f0b565b6040518060a00160405280858585818110612ad957fe5b905060a00201600001356001600160a01b03166001600160a01b03168152602001858585818110612b0657fe5b905060a00201602001356001600160a01b03166001600160a01b03168152602001858585818110612b3357fe5b905060a00201604001358152602001858585818110612b4e57fe5b905060a00201606001358152602001858585818110612b6957fe5b608060a0909102929092018201359092526001600160a01b03808a166000908152604a602090815260408083208c8452825280832080546001818101835591855293839020885160059095020180549486166001600160a01b03199586161781559288015183820180549190961694169390931790935591850151600283015560608501516003830155939091015160049091015550919091019050612ab2565b81810182811015612c1a57600080fd5b92915050565b600081831115612c2f57600080fd5b60008080808080612c45620151808a5b04612cdf565b91975095509350612c596201518089612c3f565b50600c97880297909102019590950393909303979650505050505050565b80820382811115612c1a57600080fd5b60008080612c986201518085612c3f565b9695505050505050565b60008080612cb36201518085612c3f565b5095945050505050565b60008080612cce6201518085612c3f565b509095945050505050565b303b1590565b60008080836226496581018262023ab1600483020590506004600362023ab18302010590910390600062164b09610fa0600185010205905060046105b58202058303601f019250600061098f8460500281612d3657fe5b0590506000605061098f83020585039050600b820560301994909401606402929092018301996002600c90940290910392909201975095509350505050565b828054600181600116156101000203166002900490600052602060002090601f016020900481019282601f10612db65782800160ff19823516178555612de3565b82800160010185558215612de3579182015b82811115612de3578235825591602001919060010190612dc8565b50610a53929150612f39565b6040518060a0016040528060006001600160a01b03168152602001600081526020016000815260200160008152602001600080191681525090565b60408051608081018252600080825260208201819052918101829052606081019190915290565b6040805160c0810182526000808252602082018190529181018290526060808201839052608082019290925260a081019190915290565b6040518060e0016040528060008152602001600081526020016000815260200160008152602001600081526020016000801916815260200160006001600160a01b031681525090565b828054828255906000526020600020908101928215612de35791602002820182811115612de3578235825591602001919060010190612dc8565b6040805160a08101825260008082526020820181905291810182905260608101829052608081019190915290565b611eb191905b80821115610a535760008155600101612f3f565b6000612f5f82356140fe565b9392505050565b6000612f5f82516140fe565b600082601f830112612f8357600080fd5b8151612f96612f91826140ca565b6140a3565b91508181835260208401935060208101905083856020840282011115612fbb57600080fd5b60005b83811015612fe75781612fd18882612f66565b8452506020928301929190910190600101612fbe565b5050505092915050565b60008083601f84011261300357600080fd5b50813567ffffffffffffffff81111561301b57600080fd5b60208301915083602082028301111561303357600080fd5b9250929050565b600082601f83011261304b57600080fd5b8151613059612f91826140ca565b9150818183526020840193506020810190508385602084028201111561307e57600080fd5b60005b83811015612fe757816130948882613182565b8452506020928301929190910190600101613081565b60008083601f8401126130bc57600080fd5b50813567ffffffffffffffff8111156130d457600080fd5b6020830191508360a082028301111561303357600080fd5b600082601f8301126130fd57600080fd5b815161310b612f91826140ca565b915081818352602084019350602081019050838560a084028201111561313057600080fd5b60005b83811015612fe7578161314688826131d0565b84525060209092019160a09190910190600101613133565b6000612f5f8235614109565b6000612f5f8251614109565b6000612f5f8235611eb1565b6000612f5f8251611eb1565b60008083601f8401126131a057600080fd5b50813567ffffffffffffffff8111156131b857600080fd5b60208301915083600182028301111561303357600080fd5b600060a082840312156131e257600080fd5b6131ec60a06140a3565b905060006131fa8484612f66565b825250602061320b84848301612f66565b602083015250604061321f84828501613182565b604083015250606061323384828501613182565b606083015250608061324784828501613182565b60808301525092915050565b60006020828403121561326557600080fd5b60006132718484612f53565b949350505050565b60006020828403121561328b57600080fd5b60006132718484612f66565b6000806000806000608086880312156132af57600080fd5b60006132bb8888612f53565b95505060206132cc88828901612f53565b945050604086013567ffffffffffffffff8111156132e957600080fd5b6132f588828901612ff1565b935093505060606133088882890161315e565b9150509295509295909350565b60008060006040848603121561332a57600080fd5b60006133368686612f53565b935050602084013567ffffffffffffffff81111561335357600080fd5b61335f868287016130aa565b92509250509250925092565b6000806040838503121561337e57600080fd5b600061338a8585612f66565b925050602061339b85828601613182565b9150509250929050565b600080600080606085870312156133bb57600080fd5b60006133c78787612f53565b94505060206133d887828801613176565b935050604085013567ffffffffffffffff8111156133f557600080fd5b613401878288016130aa565b95989497509550505050565b60008060006060848603121561342257600080fd5b600061342e8686612f53565b935050602061343f86828701613176565b925050604061345086828701613176565b9150509250925092565b60006020828403121561346c57600080fd5b815167ffffffffffffffff81111561348357600080fd5b61327184828501612f72565b600080604083850312156134a257600080fd5b825167ffffffffffffffff8111156134b957600080fd5b6134c58582860161303a565b925050602061339b8582860161316a565b6000602082840312156134e857600080fd5b815167ffffffffffffffff8111156134ff57600080fd5b613271848285016130ec565b60006020828403121561351d57600080fd5b6000613271848461316a565b60006020828403121561353b57600080fd5b60006132718484613182565b60008060008060008060c0878903121561356057600080fd5b600061356c8989613176565b965050602061357d89828a01612f53565b955050604061358e89828a01613176565b945050606061359f89828a01612f53565b93505060806135b089828a01613176565b92505060a06135c189828a01612f53565b9150509295509295509295565b60008060008060008060008060006101208a8c0312156135ed57600080fd5b60006135f98c8c613176565b995050602061360a8c828d01613176565b985050604061361b8c828d01612f53565b975050606061362c8c828d01612f53565b965050608061363d8c828d01612f53565b95505060a061364e8c828d01612f53565b94505060c061365f8c828d01612f53565b93505060e06136708c828d01612f53565b9250506101006136828c828d01612f53565b9150509295985092959850929598565b6000602082840312156136a457600080fd5b60006132718484613176565b60008060008060008060008060008060006101408c8e0312156136d257600080fd5b60006136de8e8e613176565b9b505060206136ef8e828f01613176565b9a505060406137008e828f01613176565b99505060606137118e828f01613176565b98505060806137228e828f01613176565b97505060a06137338e828f01613176565b96505060c06137448e828f01613176565b95505060e06137558e828f01613176565b9450506101006137678e828f01613176565b9350506101208c013567ffffffffffffffff81111561378557600080fd5b6137918e828f0161318e565b92509250509295989b509295989b9093969950565b60006137b2838361381a565b505060200190565b60006137c68383613b44565b505060e00190565b60006137da8383613bc7565b50506101000190565b60006137ef8383613c5e565b505060a00190565b60006138038383613cbb565b505060800190565b6138148161411a565b82525050565b613814816140fe565b600061382e826140f1565b61383881856140f5565b9350613843836140eb565b60005b8281101561386e576138598683516137a6565b9550613864826140eb565b9150600101613846565b5093949350505050565b6000613883826140f1565b61388d81856140f5565b9350613898836140eb565b60005b8281101561386e576138ae8683516137ba565b95506138b9826140eb565b915060010161389b565b60006138ce826140f1565b6138d881856140f5565b93506138e3836140eb565b60005b8281101561386e576138f98683516137ce565b9550613904826140eb565b91506001016138e6565b6000613919826140f1565b61392381856140f5565b935061392e836140eb565b60005b8281101561386e576139448683516137e3565b955061394f826140eb565b9150600101613931565b6000613964826140f1565b61396e81856140f5565b9350613979836140eb565b60005b8281101561386e5761398f8683516137f7565b955061399a826140eb565b915060010161397c565b61381481614109565b61381481611eb1565b60006139c1826140f1565b6139cb81856140f5565b93506139db81856020860161412b565b6139e481614157565b9093019392505050565b600160d21b65125cdcdd5959029052565b600160d21b6510db1bdcd959029052565b600160f41b610445029052565b600160d81b64426f6e6473029052565b600160cb1b660acd2c286c2e6d029052565b600160ca1b6613d999995c9959029052565b6000613a5e602e836140f5565b7f436f6e747261637420696e7374616e63652068617320616c726561647920626581527f656e20696e697469616c697a6564000000000000000000000000000000000000602082015260400192915050565b600160c21b67105b1b1bdd1d1959029052565b805160009060c0840190613ad785826139ad565b506020830151613aea60208601826139ad565b506040830151613afd60408601826139ad565b506060830151613b1060608601826139ad565b506080830151613b2360808601826139ad565b5060a083015184820360a0860152613b3b82826139b6565b95945050505050565b805160e0830190613b5584826139ad565b506020820151613b6860208501826139ad565b506040820151613b7b60408501826139ad565b506060820151613b8e60608501826139ad565b506080820151613ba160808501826139ad565b5060a0820151613bb460a08501826139ad565b5060c08201516113ef60c085018261381a565b8051610100830190613bd984826139ad565b506020820151613bec60208501826139ad565b506040820151613bff60408501826139ad565b506060820151613c1260608501826139ad565b506080820151613c2560808501826139a4565b5060a0820151613c3860a085018261381a565b5060c0820151613c4b60c085018261381a565b5060e08201516113ef60e085018261381a565b805160a0830190613c6f848261381a565b506020820151613c82602085018261381a565b506040820151613c9560408501826139ad565b506060820151613ca860608501826139ad565b5060808201516113ef60808501826139ad565b80516080830190613ccc84826139ad565b506020820151613cdf60208501826139ad565b506040820151613cf260408501826139ad565b5060608201516113ef606085018261381a565b60208101612c1a828461381a565b60608101613d21828661380b565b613d2e602083018561381a565b61327160408301846139ad565b60608101613d49828661381a565b613d56602083018561381a565b613271604083018461381a565b60e08101613d71828861381a565b613d7e602083018761381a565b613d8b60408301866139ad565b613d9860608301856139ad565b613da560808301846139ad565b613db160a08301613a10565b612c9860c08301613a1d565b6101208101613dcc828c61381a565b613dd9602083018b61381a565b613de6604083018a6139ad565b613df360608301896139ad565b613e00608083018861381a565b613e0d60a08301876139ad565b613e1a60c08301866139ad565b613e2760e08301856139ad565b613e3561010083018461381a565b9a9950505050505050505050565b60c08101613e51828961381a565b613e5e60208301886139ad565b613e6b60408301876139ad565b613e78606083018661381a565b613e8560808301856139ad565b613e9260a08301846139ad565b979650505050505050565b60408101613eab828461381a565b612c1a602083016139ff565b60408101613ec5828461381a565b612c1a60208301613a3f565b60408101613edf828461381a565b612c1a60208301613ab0565b60408101613ef9828561381a565b612f5f60208301846139ad565b60208082528101612f5f8184613823565b60408082528101613f288185613878565b905081810360208301526132718184613ac3565b60208082528101612f5f81846138c3565b60208082528101612f5f818461390e565b60208082528101612f5f8184613959565b60208101612c1a82846139ad565b60408101613f8b82856139ad565b612f5f602083018461381a565b60808101613fa682876139ad565b613fb3602083018661381a565b613fc060408301856139ad565b613b3b606083018461381a565b60608101613fdb82866139ad565b613d2e60208301856139ad565b60408101613ff682846139ad565b612c1a60208301613a2d565b60208082528101612c1a81613a51565b6101408101614021828b6139ad565b61402e602083018a6139ad565b61403b60408301896139ad565b61404860608301886139ad565b61405560808301876139ad565b61406260a083018661381a565b61406f60c08301856139ad565b61407c60e08301846139ad565b61408961010083016139ee565b6140966101208301613a1d565b9998505050505050505050565b60405181810167ffffffffffffffff811182821017156140c257600080fd5b604052919050565b600067ffffffffffffffff8211156140e157600080fd5b5060209081020190565b60200190565b5190565b90815260200190565b6000612c1a8261410e565b151590565b6001600160a01b031690565b6000612c1a826000612c1a826140fe565b60005b8381101561414657818101518382015260200161412e565b838111156113ef5750506000910152565b601f01601f19169056fea265627a7a72305820537a826a340bbf4a441e292734c45988f5e671f9302ed9d84edad1a37a21b5736c6578706572696d656e74616cf50037",
    "source": "// Basic functions to be implemented by any bond\r\n// (c) Kallol Borah, Verified Network, 2022\r\n\r\npragma solidity 0.5.7;\r\npragma experimental ABIEncoderV2;\r\n\r\nimport \"./interfaces/IBond.sol\";\r\nimport \"./Issues.sol\";\r\n\r\ncontract Bonds is Bond, Issues {\r\n\r\n    //mapping of asked currency to issue details\r\n    mapping(address => Bond.currencySpecificBondAttribs) private bonds;\r\n    Bond.commonBondAttribs bondIssue;\r\n\r\n    modifier onlyDP(address sender){\r\n        require(registrar==sender);\r\n        _;\r\n    }\r\n\r\n    function issueBond(uint256 _issueSize,\r\n                        uint256 _offerPrice, \r\n                        uint256 _minAskPrice, \r\n                        uint256 _minSubscription,\r\n                        uint256 _couponPaymentCycle, \r\n                        uint256 _tenure,\r\n                        bytes32 _currency,\r\n                        bytes32 _offerType,\r\n                        bytes32 _isin,\r\n                        string calldata _offeringDocuments\r\n                        ) external onlyDP(msg.sender){\r\n        require(category==\"Bonds\");\r\n        require(VerifiedProducts(productContract).getIssue(productRef)==address(this));\r\n        address currencyAddress = ViaFactory(viaFactoryContract).getTokenByNameType(_currency,\"ViaCash\");\r\n        require(ViaFactory(viaFactoryContract).getType(currencyAddress) == \"ViaCash\");\r\n        if(currencyIndex[currencyAddress]==0){\r\n            currencies.push(currencyAddress);\r\n            currencyIndex[currencyAddress]=currencies.length;\r\n        }\r\n        bonds[currencyAddress].issueSize = _issueSize;\r\n        bonds[currencyAddress].offerPrice = _offerPrice;\r\n        bonds[currencyAddress].minAskPrice = _minAskPrice;    \r\n        bonds[currencyAddress].minSubscription = _minSubscription;    \r\n        bonds[currencyAddress].currency = _currency;\r\n        bondIssue.offerType = _offerType;\r\n        bondIssue.couponPaymentCycle = _couponPaymentCycle; \r\n        bondIssue.tenure = _tenure; \r\n        bondIssue.isin = _isin;\r\n        bondIssue.offeringDocuments = _offeringDocuments;\r\n        bondIssue.status = \"Issued\";\r\n        emit issued (\r\n            _issueSize,\r\n            _offerPrice, \r\n            _minAskPrice,   \r\n            _minSubscription,\r\n            _currency,\r\n            address(this),\r\n            _offerType,\r\n            _isin,\r\n            \"Issued\",\r\n            \"Bonds\"\r\n        );\r\n    }\r\n\r\n    function getBond() external view returns(Bond.currencySpecificBondAttribs[] memory, Bond.commonBondAttribs memory){\r\n        Bond.currencySpecificBondAttribs[] memory notes = new Bond.currencySpecificBondAttribs[](currencies.length);\r\n        Bond.currencySpecificBondAttribs memory bond;\r\n        for(uint i=0; i<currencies.length; i++){\r\n            bond = Bond.currencySpecificBondAttribs({\r\n                issueSize : bonds[currencies[i]].issueSize,\r\n                coupon : bonds[currencies[i]].coupon,\r\n                offerPrice : bonds[currencies[i]].offerPrice, \r\n                minAskPrice : bonds[currencies[i]].minAskPrice, \r\n                minSubscription : bonds[currencies[i]].minSubscription,\r\n                currency : bonds[currencies[i]].currency,\r\n                security : bonds[currencies[i]].security\r\n            });\r\n            notes[i] = bond;\r\n        }\r\n        return (notes, bondIssue);\r\n    }\r\n\r\n    function askOffers() external onlyDP(msg.sender){\r\n        bytes32 isin;\r\n        bytes32 currency;\r\n        uint256 issueSize;\r\n        uint256 offerPrice; \r\n        uint256 minAskPrice; \r\n        uint256 minSubscription;\r\n        for(uint i=0; i<currencies.length; i++){\r\n            isin = bondIssue.isin;\r\n            currency = bonds[currencies[i]].currency;\r\n            issueSize = bonds[currencies[i]].issueSize;\r\n            offerPrice = bonds[currencies[i]].offerPrice;\r\n            minAskPrice = bonds[currencies[i]].minAskPrice;\r\n            minSubscription = bonds[currencies[i]].minSubscription;\r\n            if(issueSize>0 && offerPrice>0){  \r\n                ISecuritiesRegistry(securityRegistriesContract).createSecurity(VerifiedProducts(productContract).getIssuerAddress(productRef),\r\n                                                            securityContract,\r\n                                                            currency,\r\n                                                            VerifiedProducts(productContract).getIssuerName(productRef),\r\n                                                            isin, \"DP\", \"Bonds\");\r\n                security = ISecuritiesRegistry(securityRegistriesContract).getToken(currency,\r\n                                                                                    VerifiedProducts(productContract).getIssuerName(productRef),\r\n                                                                                    isin);\r\n                ISecurity(security).mint(address(this), issueSize);\r\n                bonds[currencies[i]].security = security;\r\n                bondIssue.status = \"Offered\";\r\n                emit offered(security, \"Offered\");\r\n                //offer the issue on defi platforms\r\n                for(uint j=0; j<platforms.length; j++){\r\n                    IMarketMaker(platforms[j]).offer(security, isin, issueSize, currencies[i], offerPrice, minAskPrice);//, minSubscription);\r\n                    emit offer(platforms[j], security, isin, issueSize, currencies[i], offerPrice, minAskPrice, minSubscription, address(this));\r\n                }\r\n            }\r\n        }\r\n    }\r\n\r\n    function startIssue(uint256 cutOffTime) external onlyDP(msg.sender){\r\n        address securityToken;\r\n        address orderPool;\r\n        for(uint i=0; i<platforms.length; i++){\r\n            for(uint j=0; j<currencies.length; j++){\r\n                if(bonds[currencies[j]].issueSize > 0 && bonds[currencies[j]].offerPrice > 0){\r\n                    IMarketMaker(platforms[i]).issue(bonds[currencies[j]].security, cutOffTime);\r\n                    //emit start(platforms[i], bonds[currencies[j]].security, cutOffTime, address(this));\r\n                    //offer security on the verified network\r\n                    //securityToken = ISecuritiesRegistry(securityRegistriesContract).getToken(bonds[currencies[j]].currency, VerifiedProducts(productContract).getIssuerName(productRef), bondIssue.isin);\r\n                    //orderPool = IPoolFactory(poolFactoryContract).getPool(securityToken, currencies[j]);\r\n                    //IOrderPool(orderPool).newOrder(securityToken, currencies[j], bonds[currencies[j]].offerPrice, bonds[currencies[j]].issueSize, \"Limit\", \"Sell\");\r\n                    bondIssue.status = \"Started\";\r\n                    emit opened(bonds[currencies[j]].security, \"Offered\");\r\n                }\r\n            }\r\n        }\r\n    }\r\n\r\n    function getSubscribers() external onlyDP(msg.sender) returns(VerifiedIssues.ioi[] memory) {\r\n        for(uint i=0; i<platforms.length; i++){\r\n            for(uint k=0; k<currencies.length; k++){\r\n                if(bonds[currencies[k]].issueSize > 0 && bonds[currencies[k]].offerPrice > 0){\r\n                    address securitytoken;\r\n                    securitytoken = bonds[currencies[k]].security;\r\n                    (bytes32[] memory pools, bool issueClosed) = IMarketMaker(platforms[i]).close(securitytoken);\r\n                    //emit close(platforms[i], securitytoken, address(this));\r\n                    //bytes32[] memory pools = poolsOnClose[platforms[i]][securitytoken];\r\n                    //bool issueClosed = issueCloseStatus[platforms[i]][securitytoken];\r\n                    if(issueClosed){\r\n                        bondIssue.status = \"Closed\";\r\n                        emit closed(securitytoken, \"Closed\");\r\n                    }\r\n                    for(uint j=0; j<pools.length; j++){\r\n                        IMarketMaker.subscriptions[] memory subs = IMarketMaker(platforms[i]).getSubscribers(pools[j]);\r\n                        //emit subscriptions(platforms[i], pools[j], address(this));\r\n                        //IMarketMaker.subscriptions[] memory subs = subscribersOnClose[platforms[i]][pools[j]]; \r\n                        for(uint l=0; l<subs.length; l++){\r\n                            uint256 count = subscribers[productRef].length;\r\n                            subscribers[productRef][count].platform = platforms[i];\r\n                            subscribers[productRef][count].poolid = pools[j];\r\n                            subscribers[productRef][count].amount = subs[l].amount;\r\n                            subscribers[productRef][count].price = subs[l].price;\r\n                            subscribers[productRef][count].currency = subs[l].name;\r\n                            subscribers[productRef][count].investor = subs[l].investor;\r\n                            subscribers[productRef][count].asset = subs[l].asset;\r\n                            bool found = false;\r\n                            for(uint x=0; x<investors.length; x++){\r\n                                if(investors[x]==subs[l].investor)\r\n                                    found = true;\r\n                            }\r\n                            if(!found)\r\n                                investors.push(subs[l].investor);\r\n                        }\r\n                    }\r\n                }\r\n            }\r\n        }\r\n        return subscribers[productRef];\r\n    }\r\n\r\n    function allotIssue(bytes32 _allotment, address _platform, bytes32 _pool, address _investor, uint256 _amount, address _asset) external onlyDP(msg.sender){\r\n        timeOfIssue = now;\r\n        if(_allotment==\"accept\"){\r\n            for(uint i=0; i<subscribers[productRef].length; i++){\r\n                if(subscribers[productRef][i].poolid==_pool &&\r\n                   subscribers[productRef][i].investor==_investor &&\r\n                   subscribers[productRef][i].amount >= _amount &&\r\n                   subscribers[productRef][i].asset == _asset\r\n                   ){\r\n                    IMarketMaker(_platform).accept(_pool, _investor, _amount, _asset);\r\n                    //emit accept(_platform, _pool, _investor, _amount, _asset, address(this));\r\n                    subscribers[productRef][i].status == true;\r\n                    bool found = false;\r\n                    for(uint j=0; j<beneficiaries.length; j++){\r\n                        if(beneficiaries[j]==_investor)\r\n                            found = true;\r\n                    }\r\n                    if(!found)\r\n                        beneficiaries.push(_investor);\r\n                }\r\n            }\r\n            IMarketMaker(_platform).settle(_pool);\r\n            //emit settle(_platform, _pool, address(this));\r\n        }\r\n        else if(_allotment==\"reject\"){\r\n            IMarketMaker(_platform).reject(_pool, _investor);\r\n            //emit reject(_platform, _pool, _investor, address(this));\r\n        }\r\n        bondIssue.status = \"Allotted\";\r\n        emit allotted(address(this), \"Allotted\");\r\n    }\r\n\r\n    function computeNextInstallment(address _currency) external onlyDPorIssuer(msg.sender) returns(uint256 nextInstallment){\r\n        require(category==\"Bonds\");\r\n        return (beneficiaries.length * bonds[_currency].coupon);\r\n    }\r\n\r\n    function getPaymentAmountFor(address _beneficiary) external onlyDPorIssuer(msg.sender) view returns(uint256 paid){\r\n        require(category==\"Bonds\");\r\n        uint256 installments = BokkyPooBahsDateTimeLibrary.subSeconds(now, timeOfIssue)/bondIssue.couponPaymentCycle;\r\n        uint256 paymentMade = 0;\r\n        for(uint i=0; i<installments; i++){\r\n            paymentMade = paymentMade + payouts[_beneficiary][i].amount;\r\n        }\r\n        return (paymentMade);\r\n    }\r\n\r\n    function getmaturityDate() external onlyDPorIssuer(msg.sender) view returns(uint256 day, uint256 month, uint256 year){\r\n        require(category==\"Bonds\");\r\n        uint256 maturityDate = BokkyPooBahsDateTimeLibrary.addSeconds(timeOfIssue, bondIssue.tenure);\r\n        return (BokkyPooBahsDateTimeLibrary.getDay(maturityDate),\r\n                BokkyPooBahsDateTimeLibrary.getMonth(maturityDate),\r\n                BokkyPooBahsDateTimeLibrary.getYear(maturityDate));\r\n    }\r\n\r\n    function getfirstCouponDate() external onlyDPorIssuer(msg.sender) view returns(uint256 day, uint256 month, uint256 year){\r\n        require(category==\"Bonds\");\r\n        uint256 couponDate = BokkyPooBahsDateTimeLibrary.addSeconds(timeOfIssue, bondIssue.couponPaymentCycle);\r\n        return (BokkyPooBahsDateTimeLibrary.getDay(couponDate),\r\n                BokkyPooBahsDateTimeLibrary.getMonth(couponDate),\r\n                BokkyPooBahsDateTimeLibrary.getYear(couponDate));\r\n    }\r\n\r\n    function computeNextCouponDate() external onlyDPorIssuer(msg.sender) view returns(uint256 day, uint256 month, uint256 year){\r\n        require(category==\"Bonds\");\r\n        for(uint i=0; i<(bondIssue.tenure/bondIssue.couponPaymentCycle); i++){\r\n            if(BokkyPooBahsDateTimeLibrary.addSeconds(timeOfIssue, (bondIssue.couponPaymentCycle*(i+1)))>now){\r\n                uint256 nextDate = BokkyPooBahsDateTimeLibrary.addSeconds(timeOfIssue, (bondIssue.couponPaymentCycle*(i+1)));\r\n                return (BokkyPooBahsDateTimeLibrary.getDay(nextDate),\r\n                        BokkyPooBahsDateTimeLibrary.getMonth(nextDate),\r\n                        BokkyPooBahsDateTimeLibrary.getYear(nextDate));\r\n            }\r\n        }\r\n    }\r\n    \r\n    function getcouponFrequencyInMonths() onlyDPorIssuer(msg.sender) view external returns(uint256 couponFrequency){\r\n        require(category==\"Bonds\");\r\n        uint256 firstCouponDate = BokkyPooBahsDateTimeLibrary.addSeconds(timeOfIssue, bondIssue.couponPaymentCycle);\r\n        return BokkyPooBahsDateTimeLibrary.diffMonths(firstCouponDate, timeOfIssue);\r\n    }\r\n\r\n    function getinterestRateInBips(address _currency) external onlyDPorIssuer(msg.sender) view returns(uint256 interestRate){\r\n        require(category==\"Bonds\");\r\n        return bonds[_currency].coupon;\r\n    }\r\n\r\n\r\n}",
    "sourcePath": "D:\\Code\\verified-securities\\securities\\contracts\\Bonds.sol",
    "compiler": {
        "name": "solc",
        "version": "0.5.7+commit.6da8b019.Emscripten.clang"
    },
    "schemaVersion": "3.4.3",
    "updatedAt": "2022-04-27T04:00:02.131Z",
    "networkType": "ethereum",
    "devdoc": {
        "methods": {}
    },
    "userdoc": {
        "methods": {}
    }
}