{
    "contractName": "Security",
    "abi": [
        {
            "constant": true,
            "inputs": [],
            "name": "totalSupply",
            "outputs": [
                {
                    "name": "",
                    "type": "uint256"
                }
            ],
            "payable": false,
            "stateMutability": "view",
            "type": "function"
        },
        {
            "constant": true,
            "inputs": [
                {
                    "name": "time",
                    "type": "uint256"
                }
            ],
            "name": "snapshotTotalSupply",
            "outputs": [
                {
                    "name": "",
                    "type": "uint256"
                }
            ],
            "payable": false,
            "stateMutability": "view",
            "type": "function"
        },
        {
            "constant": true,
            "inputs": [
                {
                    "name": "time",
                    "type": "uint256"
                },
                {
                    "name": "owner",
                    "type": "address"
                }
            ],
            "name": "snapshotBalanceOf",
            "outputs": [
                {
                    "name": "",
                    "type": "uint256"
                }
            ],
            "payable": false,
            "stateMutability": "view",
            "type": "function"
        },
        {
            "constant": true,
            "inputs": [
                {
                    "name": "account",
                    "type": "address"
                }
            ],
            "name": "balanceOf",
            "outputs": [
                {
                    "name": "",
                    "type": "uint256"
                }
            ],
            "payable": false,
            "stateMutability": "view",
            "type": "function"
        },
        {
            "constant": false,
            "inputs": [],
            "name": "renounceOwnership",
            "outputs": [],
            "payable": false,
            "stateMutability": "nonpayable",
            "type": "function"
        },
        {
            "constant": true,
            "inputs": [],
            "name": "owner",
            "outputs": [
                {
                    "name": "",
                    "type": "address"
                }
            ],
            "payable": false,
            "stateMutability": "view",
            "type": "function"
        },
        {
            "constant": true,
            "inputs": [],
            "name": "isOwner",
            "outputs": [
                {
                    "name": "",
                    "type": "bool"
                }
            ],
            "payable": false,
            "stateMutability": "view",
            "type": "function"
        },
        {
            "constant": true,
            "inputs": [],
            "name": "isPaused",
            "outputs": [
                {
                    "name": "",
                    "type": "bool"
                }
            ],
            "payable": false,
            "stateMutability": "view",
            "type": "function"
        },
        {
            "constant": true,
            "inputs": [
                {
                    "name": "owner",
                    "type": "address"
                },
                {
                    "name": "spender",
                    "type": "address"
                }
            ],
            "name": "allowance",
            "outputs": [
                {
                    "name": "",
                    "type": "uint256"
                }
            ],
            "payable": false,
            "stateMutability": "view",
            "type": "function"
        },
        {
            "constant": false,
            "inputs": [
                {
                    "name": "newOwner",
                    "type": "address"
                }
            ],
            "name": "transferOwnership",
            "outputs": [],
            "payable": false,
            "stateMutability": "nonpayable",
            "type": "function"
        },
        {
            "constant": true,
            "inputs": [],
            "name": "getNextSnapshots",
            "outputs": [
                {
                    "name": "",
                    "type": "uint256[]"
                }
            ],
            "payable": false,
            "stateMutability": "view",
            "type": "function"
        },
        {
            "anonymous": false,
            "inputs": [
                {
                    "indexed": true,
                    "name": "enforcer",
                    "type": "address"
                },
                {
                    "indexed": true,
                    "name": "owner",
                    "type": "address"
                }
            ],
            "name": "Freeze",
            "type": "event"
        },
        {
            "anonymous": false,
            "inputs": [
                {
                    "indexed": true,
                    "name": "enforcer",
                    "type": "address"
                },
                {
                    "indexed": true,
                    "name": "owner",
                    "type": "address"
                }
            ],
            "name": "Unfreeze",
            "type": "event"
        },
        {
            "anonymous": false,
            "inputs": [
                {
                    "indexed": true,
                    "name": "owner",
                    "type": "address"
                },
                {
                    "indexed": false,
                    "name": "amount",
                    "type": "uint256"
                }
            ],
            "name": "Burn",
            "type": "event"
        },
        {
            "anonymous": false,
            "inputs": [
                {
                    "indexed": true,
                    "name": "beneficiary",
                    "type": "address"
                },
                {
                    "indexed": false,
                    "name": "amount",
                    "type": "uint256"
                }
            ],
            "name": "Mint",
            "type": "event"
        },
        {
            "anonymous": false,
            "inputs": [
                {
                    "indexed": true,
                    "name": "oldTime",
                    "type": "uint256"
                },
                {
                    "indexed": true,
                    "name": "newTime",
                    "type": "uint256"
                }
            ],
            "name": "SnapshotSchedule",
            "type": "event"
        },
        {
            "anonymous": false,
            "inputs": [
                {
                    "indexed": true,
                    "name": "time",
                    "type": "uint256"
                }
            ],
            "name": "SnapshotUnschedule",
            "type": "event"
        },
        {
            "anonymous": false,
            "inputs": [
                {
                    "indexed": true,
                    "name": "from",
                    "type": "address"
                },
                {
                    "indexed": true,
                    "name": "to",
                    "type": "address"
                },
                {
                    "indexed": false,
                    "name": "value",
                    "type": "uint256"
                }
            ],
            "name": "Transfer",
            "type": "event"
        },
        {
            "anonymous": false,
            "inputs": [
                {
                    "indexed": true,
                    "name": "owner",
                    "type": "address"
                },
                {
                    "indexed": true,
                    "name": "spender",
                    "type": "address"
                },
                {
                    "indexed": false,
                    "name": "value",
                    "type": "uint256"
                }
            ],
            "name": "Approval",
            "type": "event"
        },
        {
            "anonymous": false,
            "inputs": [],
            "name": "Paused",
            "type": "event"
        },
        {
            "anonymous": false,
            "inputs": [],
            "name": "Unpaused",
            "type": "event"
        },
        {
            "anonymous": false,
            "inputs": [
                {
                    "indexed": true,
                    "name": "previousOwner",
                    "type": "address"
                },
                {
                    "indexed": true,
                    "name": "newOwner",
                    "type": "address"
                }
            ],
            "name": "OwnershipTransferred",
            "type": "event"
        },
        {
            "constant": false,
            "inputs": [
                {
                    "name": "name_",
                    "type": "bytes32"
                },
                {
                    "name": "symbol_",
                    "type": "bytes32"
                },
                {
                    "name": "_owner",
                    "type": "address"
                },
                {
                    "name": "issuer",
                    "type": "address"
                }
            ],
            "name": "initialize",
            "outputs": [],
            "payable": false,
            "stateMutability": "nonpayable",
            "type": "function"
        },
        {
            "constant": false,
            "inputs": [
                {
                    "name": "sender",
                    "type": "address"
                }
            ],
            "name": "initialize",
            "outputs": [],
            "payable": false,
            "stateMutability": "nonpayable",
            "type": "function"
        },
        {
            "constant": true,
            "inputs": [],
            "name": "name",
            "outputs": [
                {
                    "name": "",
                    "type": "string"
                }
            ],
            "payable": false,
            "stateMutability": "view",
            "type": "function"
        },
        {
            "constant": true,
            "inputs": [],
            "name": "symbol",
            "outputs": [
                {
                    "name": "",
                    "type": "string"
                }
            ],
            "payable": false,
            "stateMutability": "view",
            "type": "function"
        },
        {
            "constant": true,
            "inputs": [],
            "name": "decimals",
            "outputs": [
                {
                    "name": "",
                    "type": "uint8"
                }
            ],
            "payable": false,
            "stateMutability": "view",
            "type": "function"
        },
        {
            "constant": false,
            "inputs": [
                {
                    "name": "issuer",
                    "type": "address"
                },
                {
                    "name": "amount",
                    "type": "uint256"
                }
            ],
            "name": "mintToken",
            "outputs": [],
            "payable": false,
            "stateMutability": "nonpayable",
            "type": "function"
        },
        {
            "constant": false,
            "inputs": [
                {
                    "name": "transferor",
                    "type": "address"
                },
                {
                    "name": "transferee",
                    "type": "address"
                },
                {
                    "name": "amount",
                    "type": "uint256"
                }
            ],
            "name": "transferToken",
            "outputs": [],
            "payable": false,
            "stateMutability": "nonpayable",
            "type": "function"
        },
        {
            "constant": false,
            "inputs": [
                {
                    "name": "spender",
                    "type": "address"
                },
                {
                    "name": "amount",
                    "type": "uint256"
                }
            ],
            "name": "whiteList",
            "outputs": [],
            "payable": false,
            "stateMutability": "nonpayable",
            "type": "function"
        },
        {
            "constant": false,
            "inputs": [
                {
                    "name": "recipient",
                    "type": "address"
                },
                {
                    "name": "amount",
                    "type": "uint256"
                }
            ],
            "name": "transfer",
            "outputs": [
                {
                    "name": "",
                    "type": "bool"
                }
            ],
            "payable": false,
            "stateMutability": "nonpayable",
            "type": "function"
        },
        {
            "constant": false,
            "inputs": [
                {
                    "name": "spender",
                    "type": "address"
                },
                {
                    "name": "amount",
                    "type": "uint256"
                }
            ],
            "name": "approve",
            "outputs": [
                {
                    "name": "",
                    "type": "bool"
                }
            ],
            "payable": false,
            "stateMutability": "nonpayable",
            "type": "function"
        },
        {
            "constant": false,
            "inputs": [
                {
                    "name": "sender",
                    "type": "address"
                },
                {
                    "name": "recipient",
                    "type": "address"
                },
                {
                    "name": "amount",
                    "type": "uint256"
                }
            ],
            "name": "transferFrom",
            "outputs": [
                {
                    "name": "",
                    "type": "bool"
                }
            ],
            "payable": false,
            "stateMutability": "nonpayable",
            "type": "function"
        },
        {
            "constant": false,
            "inputs": [
                {
                    "name": "spender",
                    "type": "address"
                },
                {
                    "name": "addedValue",
                    "type": "uint256"
                }
            ],
            "name": "increaseAllowance",
            "outputs": [
                {
                    "name": "",
                    "type": "bool"
                }
            ],
            "payable": false,
            "stateMutability": "nonpayable",
            "type": "function"
        },
        {
            "constant": false,
            "inputs": [
                {
                    "name": "spender",
                    "type": "address"
                },
                {
                    "name": "subtractedValue",
                    "type": "uint256"
                }
            ],
            "name": "decreaseAllowance",
            "outputs": [
                {
                    "name": "",
                    "type": "bool"
                }
            ],
            "payable": false,
            "stateMutability": "nonpayable",
            "type": "function"
        },
        {
            "constant": false,
            "inputs": [
                {
                    "name": "holder",
                    "type": "address"
                },
                {
                    "name": "amount",
                    "type": "uint256"
                }
            ],
            "name": "freeze",
            "outputs": [],
            "payable": false,
            "stateMutability": "nonpayable",
            "type": "function"
        },
        {
            "constant": false,
            "inputs": [
                {
                    "name": "holder",
                    "type": "address"
                }
            ],
            "name": "unfreeze",
            "outputs": [],
            "payable": false,
            "stateMutability": "nonpayable",
            "type": "function"
        },
        {
            "constant": true,
            "inputs": [
                {
                    "name": "account",
                    "type": "address"
                }
            ],
            "name": "frozen",
            "outputs": [
                {
                    "name": "",
                    "type": "uint256"
                }
            ],
            "payable": false,
            "stateMutability": "view",
            "type": "function"
        },
        {
            "constant": false,
            "inputs": [
                {
                    "name": "holder",
                    "type": "address"
                },
                {
                    "name": "amount",
                    "type": "uint256"
                }
            ],
            "name": "burn",
            "outputs": [],
            "payable": false,
            "stateMutability": "nonpayable",
            "type": "function"
        },
        {
            "constant": false,
            "inputs": [],
            "name": "burnAll",
            "outputs": [],
            "payable": false,
            "stateMutability": "nonpayable",
            "type": "function"
        },
        {
            "constant": false,
            "inputs": [
                {
                    "name": "time",
                    "type": "uint256"
                }
            ],
            "name": "scheduleSnapshot",
            "outputs": [],
            "payable": false,
            "stateMutability": "nonpayable",
            "type": "function"
        },
        {
            "constant": false,
            "inputs": [
                {
                    "name": "oldTime",
                    "type": "uint256"
                },
                {
                    "name": "newTime",
                    "type": "uint256"
                }
            ],
            "name": "rescheduleSnapshot",
            "outputs": [],
            "payable": false,
            "stateMutability": "nonpayable",
            "type": "function"
        },
        {
            "constant": false,
            "inputs": [
                {
                    "name": "time",
                    "type": "uint256"
                }
            ],
            "name": "unscheduleSnapshot",
            "outputs": [],
            "payable": false,
            "stateMutability": "nonpayable",
            "type": "function"
        },
        {
            "constant": false,
            "inputs": [],
            "name": "pause",
            "outputs": [],
            "payable": false,
            "stateMutability": "nonpayable",
            "type": "function"
        },
        {
            "constant": false,
            "inputs": [],
            "name": "unpause",
            "outputs": [],
            "payable": false,
            "stateMutability": "nonpayable",
            "type": "function"
        }
    ],
    "bytecode": "0x60806040526131f4806100136000396000f3fe608060405234801561001057600080fd5b50600436106102065760003560e01c80638da5cb5b1161011a578063b187bd26116100ad578063dd62ed3e1161007c578063dd62ed3e14610623578063e20c35e514610651578063f2fde38b1461066e578063f5537ede14610694578063fb78ed40146106ca57610206565b8063b187bd26146105ac578063c4d66de8146105b4578063d0516650146105da578063d21268ef1461060057610206565b80639dc29fac116100e95780639dc29fac1461050b578063a312e15514610537578063a457c2d714610554578063a9059cbb1461058057610206565b80638da5cb5b146104cf5780638f32d59b146104f357806395d89b41146104fb5780639975038c1461050357610206565b80633f4ba83a1161019d57806370a082311161016c57806370a0823114610441578063715018a61461046757806372e0f8531461046f57806379c650681461049b5780638456cb59146104c757610206565b80633f4ba83a146103ca57806345c8b1a6146103d25780635ee7a942146103f8578063634daf761461041557610206565b806323b872dd116101d957806323b872dd1461031e57806324bce60c14610354578063313ce56714610380578063395093511461039e57610206565b806306fdde031461020b578063095ea7b31461028857806318160ddd146102c85780631f57365e146102e2575b600080fd5b610213610722565b6040805160208082528351818301528351919283929083019185019080838360005b8381101561024d578181015183820152602001610235565b50505050905090810190601f16801561027a5780820380516001836020036101000a031916815260200191505b509250505060405180910390f35b6102b46004803603604081101561029e57600080fd5b506001600160a01b0381351690602001356107b9565b604080519115158252519081900360200190f35b6102d0610900565b60408051918252519081900360200190f35b61031c600480360360808110156102f857600080fd5b508035906020810135906001600160a01b0360408201358116916060013516610906565b005b6102b46004803603606081101561033457600080fd5b506001600160a01b03813581169160208101359091169060400135610a2b565b61031c6004803603604081101561036a57600080fd5b506001600160a01b038135169060200135610cb9565b610388610e09565b6040805160ff9092168252519081900360200190f35b6102b4600480360360408110156103b457600080fd5b506001600160a01b038135169060200135610e0e565b61031c610e53565b61031c600480360360208110156103e857600080fd5b50356001600160a01b0316610f41565b6102d06004803603602081101561040e57600080fd5b503561108e565b6102d06004803603604081101561042b57600080fd5b50803590602001356001600160a01b03166110c0565b6102d06004803603602081101561045757600080fd5b50356001600160a01b0316611109565b61031c611124565b61031c6004803603604081101561048557600080fd5b506001600160a01b0381351690602001356111b8565b61031c600480360360408110156104b157600080fd5b506001600160a01b038135169060200135611306565b61031c6113ea565b6104d76114d5565b604080516001600160a01b039092168252519081900360200190f35b6102b46114e4565b61021361150a565b61031c61156b565b61031c6004803603604081101561052157600080fd5b506001600160a01b038135169060200135611719565b61031c6004803603602081101561054d57600080fd5b5035611866565b6102b46004803603604081101561056a57600080fd5b506001600160a01b038135169060200135611962565b6102b46004803603604081101561059657600080fd5b506001600160a01b0381351690602001356119aa565b6102b4611c09565b61031c600480360360208110156105ca57600080fd5b50356001600160a01b0316611c12565b6102d0600480360360208110156105f057600080fd5b50356001600160a01b0316611d06565b61031c6004803603604081101561061657600080fd5b5080359060200135611d35565b6102d06004803603604081101561063957600080fd5b506001600160a01b0381358116916020013516611e37565b61031c6004803603602081101561066757600080fd5b5035611e62565b61031c6004803603602081101561068457600080fd5b50356001600160a01b0316611f5e565b61031c600480360360608110156106aa57600080fd5b506001600160a01b03813581169160208101359091169060400135611fb1565b6106d261207a565b60408051602080825283518183015283519192839290830191858101910280838360005b8381101561070e5781810151838201526020016106f6565b505050509050019250505060405180910390f35b60a18054604080516020601f60026000196101006001881615020190951694909404938401819004810282018101909252828152606093909290918301828280156107ae5780601f10610783576101008083540402835291602001916107ae565b820191906000526020600020905b81548152906001019060200180831161079157829003601f168201915b505050505090505b90565b6001600160a01b038216600090815260a76020526040812054839083908111158061087d5750816001600160a01b03166107f16114d5565b6001600160a01b031663e0a87de1306040518263ffffffff1660e01b815260040180826001600160a01b03166001600160a01b0316815260200191505060206040518083038186803b15801561084657600080fd5b505afa15801561085a573d6000803e3d6000fd5b505050506040513d602081101561087057600080fd5b50516001600160a01b0316145b80610895575060a3546001600160a01b038381169116145b6108d357604051600160e51b62461bcd0281526004018080602001828103825260268152602001806130306026913960400191505060405180910390fd5b60665460ff16156108e357600080fd5b6108f56108ee6120d1565b86866120d5565b506001949350505050565b60695490565b600054610100900460ff168061091f575061091f6121c7565b8061092d575060005460ff16155b61096b57604051600160e51b62461bcd02815260040180806020018281038252602e8152602001806130e4602e913960400191505060405180910390fd5b600054610100900460ff16158015610996576000805460ff1961ff0019909116610100171660011790555b61099f83611c12565b60408051602080820188905282518083038201815291830190925280516109ca9260a1920190612edc565b5060408051602080820187905282518083038201815291830190925280516109f69260a2920190612edc565b5060a380546001600160a01b0319166001600160a01b0384161790558015610a24576000805461ff00191690555b5050505050565b6000610a356120d1565b6001600160a01b038116600090815260a76020526040902054839081111580610af75750816001600160a01b0316610a6b6114d5565b6001600160a01b031663e0a87de1306040518263ffffffff1660e01b815260040180826001600160a01b03166001600160a01b0316815260200191505060206040518083038186803b158015610ac057600080fd5b505afa158015610ad4573d6000803e3d6000fd5b505050506040513d6020811015610aea57600080fd5b50516001600160a01b0316145b80610b0f575060a3546001600160a01b038381169116145b610b4d57604051600160e51b62461bcd0281526004018080602001828103825260268152602001806130306026913960400191505060405180910390fd5b60665460ff1615610b5d57600080fd5b6001600160a01b038616600090815260a66020526040902054610b8f85610b8389611109565b9063ffffffff6121cd16565b1015610be55760408051600160e51b62461bcd02815260206004820152601560248201527f46756e6473207472616e736665722066726f7a656e0000000000000000000000604482015290519081900360640190fd5b610bf0868686612216565b610bfb868686612271565b610c4786610c076120d1565b610c428760405180606001604052806028815260200161309c60289139610c358c610c306120d1565b611e37565b919063ffffffff6123d516565b6120d5565b6001600160a01b038516600090815260a56020526040902054610cad5760a4805460018101825560008051602061307c8339815191520180546001600160a01b0319166001600160a01b0388169081179091559054600091825260a56020526040909120555b50600195945050505050565b610cc16120d1565b806001600160a01b0316610cd36114d5565b6001600160a01b031663e0a87de1306040518263ffffffff1660e01b815260040180826001600160a01b03166001600160a01b0316815260200191505060206040518083038186803b158015610d2857600080fd5b505afa158015610d3c573d6000803e3d6000fd5b505050506040513d6020811015610d5257600080fd5b50516001600160a01b031614610d9c57604051600160e51b62461bcd02815260040180806020018281038252602e815260200180613002602e913960400191505060405180910390fd5b60665460ff1615610dac57600080fd5b6001600160a01b038316600081815260a660205260409020839055610dcf6120d1565b6001600160a01b03167f51d18786e9cb144f87d46e7b796309ea84c7c687d91e09c97f051eacf59bc52860405160405180910390a3505050565b601290565b60665460009060ff1615610e2157600080fd5b610e49610e2c6120d1565b84610c4285610e3d88610c306120d1565b9063ffffffff61246f16565b5060015b92915050565b610e5b6120d1565b806001600160a01b0316610e6d6114d5565b6001600160a01b031663e0a87de1306040518263ffffffff1660e01b815260040180826001600160a01b03166001600160a01b0316815260200191505060206040518083038186803b158015610ec257600080fd5b505afa158015610ed6573d6000803e3d6000fd5b505050506040513d6020811015610eec57600080fd5b50516001600160a01b031614610f3657604051600160e51b62461bcd02815260040180806020018281038252602e815260200180613002602e913960400191505060405180910390fd5b610f3e6124cc565b50565b610f496120d1565b806001600160a01b0316610f5b6114d5565b6001600160a01b031663e0a87de1306040518263ffffffff1660e01b815260040180826001600160a01b03166001600160a01b0316815260200191505060206040518083038186803b158015610fb057600080fd5b505afa158015610fc4573d6000803e3d6000fd5b505050506040513d6020811015610fda57600080fd5b50516001600160a01b03161461102457604051600160e51b62461bcd02815260040180806020018281038252602e815260200180613002602e913960400191505060405180910390fd5b60665460ff161561103457600080fd5b6001600160a01b038216600081815260a660205260408120556110556120d1565b6001600160a01b03167f4f3ab9ff0cc4f039268532098e01239544b0420171876e36889d01c62c784c7960405160405180910390a35050565b600080600061109e84609d612501565b91509150816110b4576110af610900565b6110b6565b805b925050505b919050565b6001600160a01b0381166000908152609c60205260408120819081906110e7908690612501565b91509150816110fe576110f984611109565b611100565b805b95945050505050565b6001600160a01b031660009081526067602052604090205490565b61112c6114e4565b61116e5760408051600160e51b62461bcd02815260206004820181905260248201526000805160206130c4833981519152604482015290519081900360640190fd5b6033546040516000916001600160a01b0316907f8be0079c531659141344cd1fd0a4f28419497f9722a3daafe3b4186f6b6457e0908390a3603380546001600160a01b0319169055565b6111c06120d1565b6001600160a01b038116600090815260a760205260409020548290811115806112825750816001600160a01b03166111f66114d5565b6001600160a01b031663e0a87de1306040518263ffffffff1660e01b815260040180826001600160a01b03166001600160a01b0316815260200191505060206040518083038186803b15801561124b57600080fd5b505afa15801561125f573d6000803e3d6000fd5b505050506040513d602081101561127557600080fd5b50516001600160a01b0316145b8061129a575060a3546001600160a01b038381169116145b6112d857604051600160e51b62461bcd0281526004018080602001828103825260268152602001806130306026913960400191505060405180910390fd5b60665460ff16156112e857600080fd5b50506001600160a01b03909116600090815260a76020526040902055565b61130e6114e4565b6113505760408051600160e51b62461bcd02815260206004820181905260248201526000805160206130c4833981519152604482015290519081900360640190fd5b61135c60008383612216565b6113668282612557565b60a4805460018101825560008051602061307c8339815191520180546001600160a01b0319166001600160a01b0385169081179091559054600082815260a5602090815260409182902092909255805184815290517f0f6798a560793a54c3bcfe86a93cde1e73087d944c0ea20544137d4121396885929181900390910190a25050565b6113f26120d1565b806001600160a01b03166114046114d5565b6001600160a01b031663e0a87de1306040518263ffffffff1660e01b815260040180826001600160a01b03166001600160a01b0316815260200191505060206040518083038186803b15801561145957600080fd5b505afa15801561146d573d6000803e3d6000fd5b505050506040513d602081101561148357600080fd5b50516001600160a01b0316146114cd57604051600160e51b62461bcd02815260040180806020018281038252602e815260200180613002602e913960400191505060405180910390fd5b610f3e61264c565b6033546001600160a01b031690565b6033546000906001600160a01b03166114fb6120d1565b6001600160a01b031614905090565b60a28054604080516020601f60026000196101006001881615020190951694909404938401819004810282018101909252828152606093909290918301828280156107ae5780601f10610783576101008083540402835291602001916107ae565b6115736120d1565b806001600160a01b03166115856114d5565b6001600160a01b031663e0a87de1306040518263ffffffff1660e01b815260040180826001600160a01b03166001600160a01b0316815260200191505060206040518083038186803b1580156115da57600080fd5b505afa1580156115ee573d6000803e3d6000fd5b505050506040513d602081101561160457600080fd5b50516001600160a01b03161461164e57604051600160e51b62461bcd02815260040180806020018281038252602e815260200180613002602e913960400191505060405180910390fd5b60665460ff161561165e57600080fd5b60005b60a454811015611715576116ca60a4828154811061167b57fe5b9060005260206000200160009054906101000a90046001600160a01b031660006116c560a485815481106116ab57fe5b6000918252602090912001546001600160a01b0316611109565b612216565b61170d60a482815481106116da57fe5b9060005260206000200160009054906101000a90046001600160a01b031661170860a484815481106116ab57fe5b612684565b600101611661565b5050565b6117216120d1565b806001600160a01b03166117336114d5565b6001600160a01b031663e0a87de1306040518263ffffffff1660e01b815260040180826001600160a01b03166001600160a01b0316815260200191505060206040518083038186803b15801561178857600080fd5b505afa15801561179c573d6000803e3d6000fd5b505050506040513d60208110156117b257600080fd5b50516001600160a01b0316146117fc57604051600160e51b62461bcd02815260040180806020018281038252602e815260200180613002602e913960400191505060405180910390fd5b60665460ff161561180c57600080fd5b61181883600084612216565b6118228383612684565b6040805183815290516001600160a01b038516917fcc16f5dbb4873280815c1ee09dbd06736cffcc184412cf7a71a0fdb75d397ca5919081900360200190a2505050565b61186e6120d1565b806001600160a01b03166118806114d5565b6001600160a01b031663e0a87de1306040518263ffffffff1660e01b815260040180826001600160a01b03166001600160a01b0316815260200191505060206040518083038186803b1580156118d557600080fd5b505afa1580156118e9573d6000803e3d6000fd5b505050506040513d60208110156118ff57600080fd5b50516001600160a01b03161461194957604051600160e51b62461bcd02815260040180806020018281038252602e815260200180613002602e913960400191505060405180910390fd5b60665460ff161561195957600080fd5b61171582612783565b60665460009060ff161561197557600080fd5b610e496119806120d1565b84610c42856040518060600160405280602581526020016131a460259139610c3589610c306120d1565b60006119b46120d1565b6001600160a01b038116600090815260a76020526040902054839081111580611a765750816001600160a01b03166119ea6114d5565b6001600160a01b031663e0a87de1306040518263ffffffff1660e01b815260040180826001600160a01b03166001600160a01b0316815260200191505060206040518083038186803b158015611a3f57600080fd5b505afa158015611a53573d6000803e3d6000fd5b505050506040513d6020811015611a6957600080fd5b50516001600160a01b0316145b80611a8e575060a3546001600160a01b038381169116145b611acc57604051600160e51b62461bcd0281526004018080602001828103825260268152602001806130306026913960400191505060405180910390fd5b60665460ff1615611adc57600080fd5b60a66000611ae86120d1565b6001600160a01b03166001600160a01b0316815260200190815260200160002054611b1d85610b83611b186120d1565b611109565b1015611b735760408051600160e51b62461bcd02815260206004820152601560248201527f46756e6473207472616e736665722066726f7a656e0000000000000000000000604482015290519081900360640190fd5b611b85611b7e6120d1565b8686612216565b611b97611b906120d1565b8686612271565b6001600160a01b038516600090815260a560205260409020546108f55760a4805460018101825560008051602061307c8339815191520180546001600160a01b0388166001600160a01b031990911681179091559054600091825260a560205260409091205560019250505092915050565b60665460ff1690565b600054610100900460ff1680611c2b5750611c2b6121c7565b80611c39575060005460ff16155b611c7757604051600160e51b62461bcd02815260040180806020018281038252602e8152602001806130e4602e913960400191505060405180910390fd5b600054610100900460ff16158015611ca2576000805460ff1961ff0019909116610100171660011790555b603380546001600160a01b0319166001600160a01b0384811691909117918290556040519116906000907f8be0079c531659141344cd1fd0a4f28419497f9722a3daafe3b4186f6b6457e0908290a38015611715576000805461ff00191690555050565b60665460009060ff1615611d1957600080fd5b506001600160a01b0316600090815260a6602052604090205490565b611d3d6120d1565b806001600160a01b0316611d4f6114d5565b6001600160a01b031663e0a87de1306040518263ffffffff1660e01b815260040180826001600160a01b03166001600160a01b0316815260200191505060206040518083038186803b158015611da457600080fd5b505afa158015611db8573d6000803e3d6000fd5b505050506040513d6020811015611dce57600080fd5b50516001600160a01b031614611e1857604051600160e51b62461bcd02815260040180806020018281038252602e815260200180613002602e913960400191505060405180910390fd5b60665460ff1615611e2857600080fd5b611e32838361288b565b505050565b6001600160a01b03918216600090815260686020908152604080832093909416825291909152205490565b611e6a6120d1565b806001600160a01b0316611e7c6114d5565b6001600160a01b031663e0a87de1306040518263ffffffff1660e01b815260040180826001600160a01b03166001600160a01b0316815260200191505060206040518083038186803b158015611ed157600080fd5b505afa158015611ee5573d6000803e3d6000fd5b505050506040513d6020811015611efb57600080fd5b50516001600160a01b031614611f4557604051600160e51b62461bcd02815260040180806020018281038252602e815260200180613002602e913960400191505060405180910390fd5b60665460ff1615611f5557600080fd5b61171582612a32565b611f666114e4565b611fa85760408051600160e51b62461bcd02815260206004820181905260248201526000805160206130c4833981519152604482015290519081900360640190fd5b610f3e81612b1f565b611fb96114e4565b611ffb5760408051600160e51b62461bcd02815260206004820181905260248201526000805160206130c4833981519152604482015290519081900360640190fd5b612006838383612216565b612011838383612271565b6001600160a01b038216600090815260a56020526040902054611e32575060a4805460018101825560008051602061307c8339815191520180546001600160a01b0319166001600160a01b0393909316928317905554600091825260a560205260409091205550565b606060a08054806020026020016040519081016040528092919081815260200182805480156107ae57602002820191906000526020600020905b8154815260200190600101908083116120b4575050505050905090565b3390565b6001600160a01b03831661211d57604051600160e51b62461bcd0281526004018080602001828103825260248152602001806131586024913960400191505060405180910390fd5b6001600160a01b03821661216557604051600160e51b62461bcd028152600401808060200182810382526022815260200180612fe06022913960400191505060405180910390fd5b6001600160a01b03808416600081815260686020908152604080832094871680845294825291829020859055815185815291517f8c5be1e5ebec7d5bd14f71427d1e84f3dd0314c0f7b2291e5b200ac8c7c3b9259281900390910190a3505050565b303b1590565b600061220f83836040518060400160405280601e81526020017f536166654d6174683a207375627472616374696f6e206f766572666c6f7700008152506123d5565b9392505050565b61221e612bc3565b6001600160a01b038316156122605761223683612be2565b6001600160a01b038216156122535761224e82612be2565b61225b565b61225b612c0c565b611e32565b61226982612be2565b611e32612c0c565b6001600160a01b0383166122b957604051600160e51b62461bcd0281526004018080602001828103825260258152602001806131336025913960400191505060405180910390fd5b6001600160a01b03821661230157604051600160e51b62461bcd028152600401808060200182810382526023815260200180612f756023913960400191505060405180910390fd5b61234481604051806060016040528060268152602001613056602691396001600160a01b038616600090815260676020526040902054919063ffffffff6123d516565b6001600160a01b038085166000908152606760205260408082209390935590841681522054612379908263ffffffff61246f16565b6001600160a01b0380841660008181526067602090815260409182902094909455805185815290519193928716927fddf252ad1be2c89b69c2b068fc378daa952ba7f163c4a11628f55a4df523b3ef92918290030190a3505050565b6000818484111561246757604051600160e51b62461bcd0281526004018080602001828103825283818151815260200191508051906020019080838360005b8381101561242c578181015183820152602001612414565b50505050905090810190601f1680156124595780820380516001836020036101000a031916815260200191505b509250505060405180910390fd5b505050900390565b60008282018381101561220f5760408051600160e51b62461bcd02815260206004820152601b60248201527f536166654d6174683a206164646974696f6e206f766572666c6f770000000000604482015290519081900360640190fd5b6066805460ff191690556040517fa45f47fdea8a1efdd9029a5691c7f759c32b7c698632b563573e155625d1693390600090a1565b60008080612515848663ffffffff612c1b16565b845490915081141561252e575060009150819050612550565b600184600101828154811061253f57fe5b906000526020600020015492509250505b9250929050565b6001600160a01b0382166125b55760408051600160e51b62461bcd02815260206004820152601f60248201527f45524332303a206d696e7420746f20746865207a65726f206164647265737300604482015290519081900360640190fd5b6069546125c8908263ffffffff61246f16565b6069556001600160a01b0382166000908152606760205260409020546125f4908263ffffffff61246f16565b6001600160a01b03831660008181526067602090815260408083209490945583518581529351929391927fddf252ad1be2c89b69c2b068fc378daa952ba7f163c4a11628f55a4df523b3ef9281900390910190a35050565b6066805460ff191660011790556040517f9e87fac88ff661f02d44f95383c817fece4bce600a3dab7a54406878b965e75290600090a1565b6001600160a01b0382166126cc57604051600160e51b62461bcd0281526004018080602001828103825260218152602001806131126021913960400191505060405180910390fd5b61270f81604051806060016040528060228152602001612f98602291396001600160a01b038516600090815260676020526040902054919063ffffffff6123d516565b6001600160a01b03831660009081526067602052604090205560695461273b908263ffffffff6121cd16565b6069556040805182815290516000916001600160a01b038516917fddf252ad1be2c89b69c2b068fc378daa952ba7f163c4a11628f55a4df523b3ef9181900360200190a35050565b8042106127da5760408051600160e51b62461bcd02815260206004820152601e60248201527f536e617073686f74207363686564756c656420696e2074686520706173740000604482015290519081900360640190fd5b60006127e582612cbc565b509050801561282857604051600160e51b62461bcd02815260040180806020018281038252602881526020018061317c6028913960400191505060405180910390fd5b60a0805460018101825560009182527f78fdc8d422c49ced035a9edf18d00d3c6a8d81df210f3e5e448e045e77b41e88018390556040518391907fe2ad3b1abe53383dbe6359f02f11ae76d91cfab321b37083b16e1d96a81d4183908290a35050565b8142106128e25760408051600160e51b62461bcd02815260206004820152601560248201527f536e617073686f7420616c726561647920646f6e650000000000000000000000604482015290519081900360640190fd5b8042106129395760408051600160e51b62461bcd02815260206004820152601e60248201527f536e617073686f74207363686564756c656420696e2074686520706173740000604482015290519081900360640190fd5b600061294482612cbc565b509050801561298757604051600160e51b62461bcd02815260040180806020018281038252602881526020018061317c6028913960400191505060405180910390fd5b60008061299385612cbc565b91509150816129e45760408051600160e51b62461bcd0281526020600482015260126024820152600160721b7114db985c1cda1bdd081b9bdd08199bdd5b9902604482015290519081900360640190fd5b8360a082815481106129f257fe5b6000918252602082200191909155604051859187917fe2ad3b1abe53383dbe6359f02f11ae76d91cfab321b37083b16e1d96a81d41839190a35050505050565b804210612a895760408051600160e51b62461bcd02815260206004820152601560248201527f536e617073686f7420616c726561647920646f6e650000000000000000000000604482015290519081900360640190fd5b600080612a9583612cbc565b9150915081612ae65760408051600160e51b62461bcd0281526020600482015260126024820152600160721b7114db985c1cda1bdd081b9bdd08199bdd5b9902604482015290519081900360640190fd5b612aef81612d0b565b60405183907f06e2498f5548e5491bfe985562cc494131eae56b5b6543b59129c8886f129f6590600090a2505050565b6001600160a01b038116612b6757604051600160e51b62461bcd028152600401808060200182810382526026815260200180612fba6026913960400191505060405180910390fd5b6033546040516001600160a01b038084169216907f8be0079c531659141344cd1fd0a4f28419497f9722a3daafe3b4186f6b6457e090600090a3603380546001600160a01b0319166001600160a01b0392909216919091179055565b6000612bcd612d65565b90508015610f3e57609f819055610f3e612df0565b6001600160a01b0381166000908152609c60205260409020610f3e90612c0783611109565b612e32565b612c19609d612c07610900565b565b8154600090612c2c57506000610e4d565b82546000905b80821015612c7b576000612c468383612e7c565b905084868281548110612c5557fe5b90600052602060002001541115612c6e57809150612c75565b8060010192505b50612c32565b600082118015612ca3575083856001840381548110612c9657fe5b9060005260206000200154145b15612cb45750600019019050610e4d565b509050610e4d565b600080805b60a054811015612cfd578360a08281548110612cd957fe5b90600052602060002001541415612cf557600192509050612d06565b600101612cc1565b50600091508190505b915091565b60a080546000198101908110612d1d57fe5b906000526020600020015460a08281548110612d3557fe5b60009182526020909120015560a0805480612d4c57fe5b6001900381819060005260206000200160009055905550565b60a054600090612d77575060006107b6565b6000805b60a054811015612dea574260a08281548110612d9357fe5b906000526020600020015411158015612dc257508160a08281548110612db557fe5b9060005260206000200154115b15612de25760a08181548110612dd457fe5b906000526020600020015491505b600101612d7b565b50905090565b60005b60a054811015610f3e574260a08281548110612e0b57fe5b906000526020600020015411612e2957612e2481612d0b565b612e2d565b6001015b612df3565b6000612e3c612ea1565b905080612e4884612ea7565b1015611e32578254600180820185556000858152602080822090930193909355938401805494850181558252902090910155565b60006002808306600285060181612e8f57fe5b04600283046002850401019392505050565b609f5490565b8054600090612eb8575060006110bb565b815482906000198101908110612eca57fe5b906000526020600020015490506110bb565b828054600181600116156101000203166002900490600052602060002090601f016020900481019282601f10612f1d57805160ff1916838001178555612f4a565b82800160010185558215612f4a579182015b82811115612f4a578251825591602001919060010190612f2f565b50612f56929150612f5a565b5090565b6107b691905b80821115612f565760008155600101612f6056fe45524332303a207472616e7366657220746f20746865207a65726f206164647265737345524332303a206275726e20616d6f756e7420657863656564732062616c616e63654f776e61626c653a206e6577206f776e657220697320746865207a65726f206164647265737345524332303a20617070726f766520746f20746865207a65726f2061646472657373556e617574686f72697a656420726571756573742c206f6e6c7920697373756572732061726520616c6c6f77656457616c6c65742073656e64696e672072657175657374206e6f742077686974656c697374656445524332303a207472616e7366657220616d6f756e7420657863656564732062616c616e6365e434dc35da084cf8d7e8186688ea2dacb53db7003d427af3abf351bd9d0a4e8d45524332303a207472616e7366657220616d6f756e74206578636565647320616c6c6f77616e63654f776e61626c653a2063616c6c6572206973206e6f7420746865206f776e6572436f6e747261637420696e7374616e63652068617320616c7265616479206265656e20696e697469616c697a656445524332303a206275726e2066726f6d20746865207a65726f206164647265737345524332303a207472616e736665722066726f6d20746865207a65726f206164647265737345524332303a20617070726f76652066726f6d20746865207a65726f2061646472657373536e617073686f7420616c7265616479207363686564756c656420666f7220746869732074696d6545524332303a2064656372656173656420616c6c6f77616e63652062656c6f77207a65726fa165627a7a72305820ef877ad09e6a0bdacf874fdb7bf927bd262c9a889397b8bc8a0a9c9116dffbe90029",
    "source": "// Verified securities manager that updates holdings of securities by users\r\n// (c) Kallol Borah, 2021\r\n\r\npragma solidity 0.5.7;\r\n\r\nimport \"./Snapshot.sol\";\r\nimport \"./utilities/Pausable.sol\";\r\nimport \"./interfaces/IFactory.sol\";\r\nimport \"./interfaces/ISecurity.sol\";\r\nimport \"@openzeppelin/contracts-ethereum-package/contracts/ownership/Ownable.sol\";\r\n\r\ncontract Security is ISecurity, Ownable, Pausable, Snapshot {\r\n\r\n    string private _name;\r\n    string private _symbol;\r\n\r\n    //issuer of this security token or the assigned depositary participant\r\n    address private _issuer;\r\n\r\n    //this security token's holders\r\n    address[] private holders;\r\n\r\n    //mapping holders to index\r\n    mapping(address => uint256) private holderIndex;\r\n\r\n    //mapping security token holders to amounts frozen in account (0 means all frozen)\r\n    mapping(address => uint256) private froze;\r\n\r\n    //mapping whitelisted wallets to any spend cap on them (0 means no cap)\r\n    mapping(address => uint256) private whitelisted;\r\n\r\n    /**\r\n     * @dev Emitted when an address is frozen.\r\n     */\r\n    event Freeze(address indexed enforcer, address indexed owner);\r\n\r\n    /**\r\n     * @dev Emitted when an address is unfrozen.\r\n     */\r\n    event Unfreeze(address indexed enforcer, address indexed owner);\r\n\r\n    event Burn(address indexed owner, uint256 amount);\r\n\r\n    event Mint(address indexed beneficiary, uint256 amount);\r\n\r\n    modifier onlyIssueManager (address sender){\r\n        require(IFactory(owner()).getDP(address(this))==sender, \"Unauthorized request, only issuers are allowed\");\r\n        _;\r\n    }\r\n\r\n    modifier onlyWhiteListed (address sender, uint256 amount){\r\n        require(whitelisted[sender] >= amount || IFactory(owner()).getDP(address(this))==sender || sender==_issuer, \"Wallet sending request not whitelisted\");\r\n        _;\r\n    }\r\n\r\n    /**\r\n     * @dev Sets the values for {name} and {symbol}.\r\n     *\r\n     * The default value of {decimals} is 18. To select a different value for\r\n     * {decimals} you should overload it.\r\n     *\r\n     * All two of these values are immutable: they can only be set once during\r\n     * construction.\r\n     */\r\n    function initialize(bytes32 name_, bytes32 symbol_, address _owner, address issuer) public initializer {\r\n        Ownable.initialize(_owner);\r\n        _name = string(abi.encodePacked(name_));\r\n        _symbol = string(abi.encodePacked(symbol_));\r\n        _issuer = issuer;\r\n    }\r\n\r\n    /**\r\n     * @dev Returns the name of the token.\r\n     */\r\n    function name() public view returns (string memory) {\r\n        return _name;\r\n    }\r\n\r\n    /**\r\n     * @dev Returns the symbol of the token, usually a shorter version of the\r\n     * name.\r\n     */\r\n    function symbol() public view returns (string memory) {\r\n        return _symbol;\r\n    }\r\n\r\n    /**\r\n     * Securities are indivisible, so returning decimal 0\r\n     */\r\n    function decimals() public view returns (uint8) {\r\n        return 18;\r\n    }\r\n\r\n    function mintToken(address issuer, uint256 amount) onlyOwner external{\r\n        _beforeTokenTransfer(address(0x0), issuer, amount);\r\n        _mint(issuer, amount);\r\n        holders.push(issuer);\r\n        holderIndex[issuer]=holders.length;\r\n        emit Mint(issuer, amount);\r\n    }\r\n\r\n    function transferToken(address transferor, address transferee, uint256 amount) onlyOwner external{\r\n        _beforeTokenTransfer(transferor, transferee, amount);\r\n        _transfer(transferor, transferee, amount);\r\n        if(holderIndex[transferee]==0){\r\n            holders.push(transferee);\r\n            holderIndex[transferee]=holders.length;\r\n        }\r\n    }\r\n\r\n    function whiteList(address spender, uint256 amount) onlyWhiteListed(_msgSender(), amount) external {\r\n        require(paused == false);\r\n        whitelisted[spender] = amount;\r\n    }\r\n\r\n    //can be used by primary and secondary issue manager contracts. These whitelisted contracts can also be frozen by the issuer.\r\n    function transfer(address recipient, uint256 amount) onlyWhiteListed(_msgSender(), amount) public returns (bool) {\r\n        require(paused == false);\r\n        require(balanceOf(_msgSender()).sub(amount) >= froze[_msgSender()], \"Funds transfer frozen\");\r\n        _beforeTokenTransfer(_msgSender(), recipient, amount);\r\n        _transfer(_msgSender(), recipient, amount);\r\n        if(holderIndex[recipient]==0){\r\n            holders.push(recipient);\r\n            holderIndex[recipient]=holders.length;\r\n        }\r\n        return true;\r\n    }\r\n\r\n    //called by user wallets to approve vaults to transfer tokens from them to the vault. \r\n    //Vaults need to be whitelisted by primary and secondary issue managers.\r\n    function approve(address spender, uint256 amount) onlyWhiteListed(spender, amount) public returns (bool) {\r\n        require(paused == false);\r\n        _approve(_msgSender(), spender, amount);\r\n        return true;\r\n    }\r\n\r\n    //can be used by primary and secondary issue manager contracts, as well as vaults to swap tokens from user wallets that have approved the vault.\r\n    function transferFrom(address sender, address recipient, uint256 amount) onlyWhiteListed(_msgSender(), amount) public returns (bool) {\r\n        require(paused == false);\r\n        require(balanceOf(sender).sub(amount) >= froze[sender], \"Funds transfer frozen\");\r\n        _beforeTokenTransfer(sender, recipient, amount);\r\n        _transfer(sender, recipient, amount);\r\n        _approve(sender, _msgSender(), allowance(sender, _msgSender()).sub(amount, \"ERC20: transfer amount exceeds allowance\"));\r\n        if(holderIndex[recipient]==0){\r\n            holders.push(recipient);\r\n            holderIndex[recipient]=holders.length;\r\n        }\r\n        return true;\r\n    }\r\n\r\n    function increaseAllowance(address spender, uint256 addedValue) public returns (bool) {\r\n        require(paused == false);\r\n        _approve(_msgSender(), spender, allowance(spender, _msgSender()).add(addedValue));\r\n        return true;\r\n    }\r\n\r\n    function decreaseAllowance(address spender, uint256 subtractedValue) public returns (bool) {\r\n        require(paused == false);\r\n        _approve(_msgSender(), spender, allowance(spender, _msgSender()).sub(subtractedValue, \"ERC20: decreased allowance below zero\"));\r\n        return true;\r\n    }\r\n\r\n    function freeze(address holder, uint256 amount) onlyIssueManager(_msgSender()) public {\r\n        require(paused == false);\r\n        froze[holder] = amount;\r\n        emit Freeze(_msgSender(), holder);\r\n    }\r\n\r\n    function unfreeze(address holder) onlyIssueManager(_msgSender()) public {\r\n        require(paused == false);\r\n        froze[holder] = 0;\r\n        emit Unfreeze(_msgSender(), holder);\r\n    }\r\n\r\n    function frozen(address account) public view returns (uint256) {\r\n        require(paused == false);\r\n        return froze[account];\r\n    }\r\n\r\n    function burn(address holder, uint256 amount) onlyIssueManager(_msgSender()) public {\r\n        require(paused == false);\r\n        _beforeTokenTransfer(holder, address(0x0), amount);\r\n        _burn(holder, amount);       \r\n        emit Burn(holder, amount); \r\n    }\r\n\r\n    function burnAll() onlyIssueManager(_msgSender()) public {\r\n        require(paused == false);\r\n        for(uint256 i=0; i<holders.length; i++){\r\n            _beforeTokenTransfer(holders[i], address(0x0), balanceOf(holders[i]));\r\n            _burn(holders[i], balanceOf(holders[i]));\r\n        }    \r\n    }\r\n\r\n    function scheduleSnapshot(uint256 time) onlyIssueManager(_msgSender()) public {\r\n        require(paused == false);\r\n        _scheduleSnapshot(time);\r\n    }\r\n\r\n    function rescheduleSnapshot(uint256 oldTime, uint256 newTime) onlyIssueManager(_msgSender()) public {\r\n        require(paused == false);\r\n        _rescheduleSnapshot(oldTime, newTime);\r\n    }\r\n\r\n    function unscheduleSnapshot(uint256 time) onlyIssueManager(_msgSender()) public {\r\n        require(paused == false);\r\n        _unscheduleSnapshot(time);\r\n    }\r\n\r\n    function pause() onlyIssueManager(_msgSender()) public {\r\n        _pause();\r\n    }\r\n\r\n    function unpause() onlyIssueManager(_msgSender()) public {\r\n        _unpause();\r\n    }\r\n\r\n}\r\n\r\n",
    "sourcePath": "D:\\Code\\verified-securities\\contracts\\Security.sol",
    "compiler": {
        "name": "solc",
        "version": "0.5.7+commit.6da8b019.Emscripten.clang"
    },
    "schemaVersion": "3.4.3",
    "updatedAt": "2023-03-21T13:11:36.176Z",
    "networkType": "ethereum",
    "devdoc": {
        "methods": {
            "allowance(address,address)": {
                "details": "See {IERC20-allowance}."
            },
            "balanceOf(address)": {
                "details": "See {IERC20-balanceOf}."
            },
            "initialize(address)": {
                "details": "Initializes the contract setting the deployer as the initial owner."
            },
            "initialize(bytes32,bytes32,address,address)": {
                "details": "Sets the values for {name} and {symbol}.\r      * The default value of {decimals} is 18. To select a different value for\r {decimals} you should overload it.\r      * All two of these values are immutable: they can only be set once during\r construction.\r"
            },
            "isOwner()": {
                "details": "Returns true if the caller is the current owner."
            },
            "isPaused()": {
                "return": "True: contract is paused\rFalse: contract is not paused\r"
            },
            "name()": {
                "details": "Returns the name of the token.\r"
            },
            "owner()": {
                "details": "Returns the address of the current owner."
            },
            "renounceOwnership()": {
                "details": "Leaves the contract without owner. It will not be possible to call `onlyOwner` functions anymore. Can only be called by the current owner.     * > Note: Renouncing ownership will leave the contract without an owner, thereby removing any functionality that is only available to the owner."
            },
            "symbol()": {
                "details": "Returns the symbol of the token, usually a shorter version of the\r name.\r"
            },
            "totalSupply()": {
                "details": "See {IERC20-totalSupply}."
            },
            "transferOwnership(address)": {
                "details": "Transfers ownership of the contract to a new account (`newOwner`). Can only be called by the current owner."
            }
        }
    },
    "userdoc": {
        "methods": {
            "decimals()": {
                "notice": "Securities are indivisible, so returning decimal 0\r"
            },
            "isPaused()": {
                "notice": "returns whether or not the contract is paused\r"
            }
        }
    }
}