{
    "contractName": "Stocks",
    "abi": [
        {
            "constant": false,
            "inputs": [
                {
                    "name": "platform",
                    "type": "address"
                },
                {
                    "name": "securityToken",
                    "type": "address"
                },
                {
                    "name": "pools",
                    "type": "bytes32[]"
                },
                {
                    "name": "status",
                    "type": "bool"
                },
                {
                    "name": "_hashedMessage",
                    "type": "bytes32"
                },
                {
                    "name": "_v",
                    "type": "uint8"
                },
                {
                    "name": "_r",
                    "type": "bytes32"
                },
                {
                    "name": "_s",
                    "type": "bytes32"
                }
            ],
            "name": "setPlatformPools",
            "outputs": [],
            "payable": false,
            "stateMutability": "nonpayable",
            "type": "function"
        },
        {
            "constant": false,
            "inputs": [
                {
                    "name": "_issue",
                    "type": "address"
                }
            ],
            "name": "settleIssue",
            "outputs": [],
            "payable": false,
            "stateMutability": "nonpayable",
            "type": "function"
        },
        {
            "constant": false,
            "inputs": [
                {
                    "name": "_byTime",
                    "type": "uint256"
                }
            ],
            "name": "isAllPaidFor",
            "outputs": [
                {
                    "name": "",
                    "type": "address[]"
                }
            ],
            "payable": false,
            "stateMutability": "nonpayable",
            "type": "function"
        },
        {
            "constant": false,
            "inputs": [
                {
                    "name": "platform",
                    "type": "address"
                },
                {
                    "name": "pool",
                    "type": "bytes32"
                },
                {
                    "components": [
                        {
                            "name": "investor",
                            "type": "address"
                        },
                        {
                            "name": "asset",
                            "type": "address"
                        },
                        {
                            "name": "name",
                            "type": "bytes32"
                        },
                        {
                            "name": "amount",
                            "type": "uint256"
                        },
                        {
                            "name": "price",
                            "type": "uint256"
                        }
                    ],
                    "name": "eois",
                    "type": "tuple[]"
                },
                {
                    "name": "_hashedMessage",
                    "type": "bytes32"
                },
                {
                    "name": "_v",
                    "type": "uint8"
                },
                {
                    "name": "_r",
                    "type": "bytes32"
                },
                {
                    "name": "_s",
                    "type": "bytes32"
                }
            ],
            "name": "setPlatformSubscribers",
            "outputs": [],
            "payable": false,
            "stateMutability": "nonpayable",
            "type": "function"
        },
        {
            "constant": false,
            "inputs": [
                {
                    "name": "_signer",
                    "type": "address"
                }
            ],
            "name": "setSigner",
            "outputs": [],
            "payable": false,
            "stateMutability": "nonpayable",
            "type": "function"
        },
        {
            "constant": false,
            "inputs": [],
            "name": "renounceOwnership",
            "outputs": [],
            "payable": false,
            "stateMutability": "nonpayable",
            "type": "function"
        },
        {
            "constant": false,
            "inputs": [
                {
                    "name": "_beneficiary",
                    "type": "address"
                },
                {
                    "name": "_currency",
                    "type": "bytes32"
                },
                {
                    "name": "_amount",
                    "type": "uint256"
                }
            ],
            "name": "payOut",
            "outputs": [],
            "payable": false,
            "stateMutability": "nonpayable",
            "type": "function"
        },
        {
            "constant": false,
            "inputs": [
                {
                    "name": "_productReference",
                    "type": "bytes32"
                },
                {
                    "name": "_productCategory",
                    "type": "bytes32"
                },
                {
                    "name": "_issuer",
                    "type": "address"
                },
                {
                    "name": "_registrar",
                    "type": "address"
                },
                {
                    "name": "_owner",
                    "type": "address"
                },
                {
                    "name": "_securityContract",
                    "type": "address"
                },
                {
                    "name": "_securityRegistriesContract",
                    "type": "address"
                },
                {
                    "name": "_viaFactoryContract",
                    "type": "address"
                },
                {
                    "name": "_poolFactoryContract",
                    "type": "address"
                },
                {
                    "name": "_bridge",
                    "type": "address"
                }
            ],
            "name": "initialize",
            "outputs": [],
            "payable": false,
            "stateMutability": "nonpayable",
            "type": "function"
        },
        {
            "constant": true,
            "inputs": [],
            "name": "getOwner",
            "outputs": [
                {
                    "name": "",
                    "type": "address"
                }
            ],
            "payable": false,
            "stateMutability": "view",
            "type": "function"
        },
        {
            "constant": true,
            "inputs": [],
            "name": "owner",
            "outputs": [
                {
                    "name": "",
                    "type": "address"
                }
            ],
            "payable": false,
            "stateMutability": "view",
            "type": "function"
        },
        {
            "constant": true,
            "inputs": [],
            "name": "isOwner",
            "outputs": [
                {
                    "name": "",
                    "type": "bool"
                }
            ],
            "payable": false,
            "stateMutability": "view",
            "type": "function"
        },
        {
            "constant": true,
            "inputs": [],
            "name": "getBeneficiaries",
            "outputs": [
                {
                    "name": "",
                    "type": "address[]"
                }
            ],
            "payable": false,
            "stateMutability": "view",
            "type": "function"
        },
        {
            "constant": false,
            "inputs": [
                {
                    "name": "_liquidityPlatform",
                    "type": "address"
                }
            ],
            "name": "registerPlatform",
            "outputs": [],
            "payable": false,
            "stateMutability": "nonpayable",
            "type": "function"
        },
        {
            "constant": false,
            "inputs": [],
            "name": "getDateOfIssue",
            "outputs": [
                {
                    "name": "day",
                    "type": "uint256"
                },
                {
                    "name": "month",
                    "type": "uint256"
                },
                {
                    "name": "year",
                    "type": "uint256"
                }
            ],
            "payable": false,
            "stateMutability": "nonpayable",
            "type": "function"
        },
        {
            "constant": false,
            "inputs": [
                {
                    "name": "newOwner",
                    "type": "address"
                }
            ],
            "name": "transferOwnership",
            "outputs": [],
            "payable": false,
            "stateMutability": "nonpayable",
            "type": "function"
        },
        {
            "constant": false,
            "inputs": [
                {
                    "name": "_beneficiary",
                    "type": "address"
                }
            ],
            "name": "getPaymentStatusFor",
            "outputs": [
                {
                    "components": [
                        {
                            "name": "currency",
                            "type": "bytes32"
                        },
                        {
                            "name": "amount",
                            "type": "uint256"
                        },
                        {
                            "name": "payoutDate",
                            "type": "uint256"
                        },
                        {
                            "name": "payer",
                            "type": "address"
                        }
                    ],
                    "name": "",
                    "type": "tuple[]"
                }
            ],
            "payable": false,
            "stateMutability": "nonpayable",
            "type": "function"
        },
        {
            "anonymous": false,
            "inputs": [
                {
                    "indexed": false,
                    "name": "issueSize",
                    "type": "uint256"
                },
                {
                    "indexed": false,
                    "name": "offerPrice",
                    "type": "uint256"
                },
                {
                    "indexed": false,
                    "name": "minAskPrice",
                    "type": "uint256"
                },
                {
                    "indexed": false,
                    "name": "minSubscription",
                    "type": "uint256"
                },
                {
                    "indexed": false,
                    "name": "currency",
                    "type": "bytes32"
                },
                {
                    "indexed": false,
                    "name": "security",
                    "type": "address"
                },
                {
                    "indexed": false,
                    "name": "offerType",
                    "type": "bytes32"
                },
                {
                    "indexed": false,
                    "name": "isin",
                    "type": "bytes32"
                },
                {
                    "indexed": false,
                    "name": "status",
                    "type": "bytes32"
                },
                {
                    "indexed": false,
                    "name": "productCategory",
                    "type": "bytes32"
                }
            ],
            "name": "issued",
            "type": "event"
        },
        {
            "anonymous": false,
            "inputs": [
                {
                    "indexed": false,
                    "name": "security",
                    "type": "address"
                },
                {
                    "indexed": false,
                    "name": "status",
                    "type": "bytes32"
                }
            ],
            "name": "offered",
            "type": "event"
        },
        {
            "anonymous": false,
            "inputs": [
                {
                    "indexed": false,
                    "name": "security",
                    "type": "address"
                },
                {
                    "indexed": false,
                    "name": "status",
                    "type": "bytes32"
                }
            ],
            "name": "closed",
            "type": "event"
        },
        {
            "anonymous": false,
            "inputs": [
                {
                    "indexed": false,
                    "name": "security",
                    "type": "address"
                },
                {
                    "indexed": false,
                    "name": "status",
                    "type": "bytes32"
                }
            ],
            "name": "allotted",
            "type": "event"
        },
        {
            "anonymous": false,
            "inputs": [
                {
                    "indexed": false,
                    "name": "platform",
                    "type": "address"
                },
                {
                    "indexed": false,
                    "name": "security",
                    "type": "address"
                },
                {
                    "indexed": false,
                    "name": "isin",
                    "type": "bytes32"
                },
                {
                    "indexed": false,
                    "name": "issueSize",
                    "type": "uint256"
                },
                {
                    "indexed": false,
                    "name": "currency",
                    "type": "address"
                },
                {
                    "indexed": false,
                    "name": "offerPrice",
                    "type": "uint256"
                },
                {
                    "indexed": false,
                    "name": "minAskPrice",
                    "type": "uint256"
                },
                {
                    "indexed": false,
                    "name": "minSubscription",
                    "type": "uint256"
                },
                {
                    "indexed": false,
                    "name": "issuer",
                    "type": "address"
                }
            ],
            "name": "offer",
            "type": "event"
        },
        {
            "anonymous": false,
            "inputs": [
                {
                    "indexed": false,
                    "name": "platform",
                    "type": "address"
                },
                {
                    "indexed": false,
                    "name": "security",
                    "type": "address"
                },
                {
                    "indexed": false,
                    "name": "cutOffTime",
                    "type": "uint256"
                },
                {
                    "indexed": false,
                    "name": "issuer",
                    "type": "address"
                }
            ],
            "name": "start",
            "type": "event"
        },
        {
            "anonymous": false,
            "inputs": [
                {
                    "indexed": false,
                    "name": "platform",
                    "type": "address"
                },
                {
                    "indexed": false,
                    "name": "security",
                    "type": "address"
                },
                {
                    "indexed": false,
                    "name": "issuer",
                    "type": "address"
                }
            ],
            "name": "close",
            "type": "event"
        },
        {
            "anonymous": false,
            "inputs": [
                {
                    "indexed": false,
                    "name": "platform",
                    "type": "address"
                },
                {
                    "indexed": false,
                    "name": "pool",
                    "type": "bytes32"
                },
                {
                    "indexed": false,
                    "name": "issuer",
                    "type": "address"
                }
            ],
            "name": "subscriptions",
            "type": "event"
        },
        {
            "anonymous": false,
            "inputs": [
                {
                    "indexed": false,
                    "name": "platform",
                    "type": "address"
                },
                {
                    "indexed": false,
                    "name": "pool",
                    "type": "bytes32"
                },
                {
                    "indexed": false,
                    "name": "investor",
                    "type": "address"
                },
                {
                    "indexed": false,
                    "name": "amount",
                    "type": "uint256"
                },
                {
                    "indexed": false,
                    "name": "asset",
                    "type": "address"
                },
                {
                    "indexed": false,
                    "name": "issuer",
                    "type": "address"
                }
            ],
            "name": "accept",
            "type": "event"
        },
        {
            "anonymous": false,
            "inputs": [
                {
                    "indexed": false,
                    "name": "platform",
                    "type": "address"
                },
                {
                    "indexed": false,
                    "name": "pool",
                    "type": "bytes32"
                },
                {
                    "indexed": false,
                    "name": "issuer",
                    "type": "address"
                }
            ],
            "name": "settle",
            "type": "event"
        },
        {
            "anonymous": false,
            "inputs": [
                {
                    "indexed": false,
                    "name": "platform",
                    "type": "address"
                },
                {
                    "indexed": false,
                    "name": "pool",
                    "type": "bytes32"
                },
                {
                    "indexed": false,
                    "name": "investor",
                    "type": "address"
                },
                {
                    "indexed": false,
                    "name": "issuer",
                    "type": "address"
                }
            ],
            "name": "reject",
            "type": "event"
        },
        {
            "anonymous": false,
            "inputs": [
                {
                    "indexed": false,
                    "name": "platform",
                    "type": "address"
                },
                {
                    "indexed": false,
                    "name": "security",
                    "type": "address"
                },
                {
                    "indexed": false,
                    "name": "issuer",
                    "type": "address"
                }
            ],
            "name": "getLP",
            "type": "event"
        },
        {
            "anonymous": false,
            "inputs": [
                {
                    "indexed": true,
                    "name": "previousOwner",
                    "type": "address"
                },
                {
                    "indexed": true,
                    "name": "newOwner",
                    "type": "address"
                }
            ],
            "name": "OwnershipTransferred",
            "type": "event"
        },
        {
            "constant": false,
            "inputs": [
                {
                    "name": "_issueSize",
                    "type": "uint256"
                },
                {
                    "name": "_offerPrice",
                    "type": "uint256"
                },
                {
                    "name": "_minAskPrice",
                    "type": "uint256"
                },
                {
                    "name": "_minSubscription",
                    "type": "uint256"
                },
                {
                    "name": "_currency",
                    "type": "bytes32"
                },
                {
                    "name": "_offerType",
                    "type": "bytes32"
                },
                {
                    "name": "_isin",
                    "type": "bytes32"
                },
                {
                    "name": "_offeringDocuments",
                    "type": "string"
                }
            ],
            "name": "issueShare",
            "outputs": [],
            "payable": false,
            "stateMutability": "nonpayable",
            "type": "function"
        },
        {
            "constant": true,
            "inputs": [],
            "name": "getShare",
            "outputs": [
                {
                    "components": [
                        {
                            "name": "issueSize",
                            "type": "uint256"
                        },
                        {
                            "name": "faceValue",
                            "type": "uint256"
                        },
                        {
                            "name": "offerPrice",
                            "type": "uint256"
                        },
                        {
                            "name": "minAskPrice",
                            "type": "uint256"
                        },
                        {
                            "name": "minSubscription",
                            "type": "uint256"
                        },
                        {
                            "name": "currency",
                            "type": "bytes32"
                        },
                        {
                            "name": "security",
                            "type": "address"
                        }
                    ],
                    "name": "",
                    "type": "tuple[]"
                },
                {
                    "components": [
                        {
                            "name": "offerType",
                            "type": "bytes32"
                        },
                        {
                            "name": "isin",
                            "type": "bytes32"
                        },
                        {
                            "name": "status",
                            "type": "bytes32"
                        },
                        {
                            "name": "offeringDocuments",
                            "type": "string"
                        }
                    ],
                    "name": "",
                    "type": "tuple"
                }
            ],
            "payable": false,
            "stateMutability": "view",
            "type": "function"
        },
        {
            "constant": false,
            "inputs": [],
            "name": "askOffers",
            "outputs": [],
            "payable": false,
            "stateMutability": "nonpayable",
            "type": "function"
        },
        {
            "constant": false,
            "inputs": [
                {
                    "name": "cutOffTime",
                    "type": "uint256"
                }
            ],
            "name": "startIssue",
            "outputs": [],
            "payable": false,
            "stateMutability": "nonpayable",
            "type": "function"
        },
        {
            "constant": false,
            "inputs": [],
            "name": "getSubscribers",
            "outputs": [
                {
                    "components": [
                        {
                            "name": "currency",
                            "type": "bytes32"
                        },
                        {
                            "name": "amount",
                            "type": "uint256"
                        },
                        {
                            "name": "price",
                            "type": "uint256"
                        },
                        {
                            "name": "poolid",
                            "type": "bytes32"
                        },
                        {
                            "name": "status",
                            "type": "bool"
                        },
                        {
                            "name": "platform",
                            "type": "address"
                        },
                        {
                            "name": "investor",
                            "type": "address"
                        },
                        {
                            "name": "asset",
                            "type": "address"
                        }
                    ],
                    "name": "",
                    "type": "tuple[]"
                }
            ],
            "payable": false,
            "stateMutability": "nonpayable",
            "type": "function"
        },
        {
            "constant": false,
            "inputs": [
                {
                    "name": "_allotment",
                    "type": "bytes32"
                },
                {
                    "name": "_platform",
                    "type": "address"
                },
                {
                    "name": "_pool",
                    "type": "bytes32"
                },
                {
                    "name": "_investor",
                    "type": "address"
                },
                {
                    "name": "_amount",
                    "type": "uint256"
                },
                {
                    "name": "_asset",
                    "type": "address"
                }
            ],
            "name": "allotIssue",
            "outputs": [],
            "payable": false,
            "stateMutability": "nonpayable",
            "type": "function"
        }
    ],
    "bytecode": "0x6080604052600061001461006760201b60201c565b603380546001600160a01b0319166001600160a01b038316908117909155604051919250906000907f8be0079c531659141344cd1fd0a4f28419497f9722a3daafe3b4186f6b6457e0908290a35061006b565b3390565b613e3e806200007b6000396000f3fe608060405234801561001057600080fd5b50600436106101425760003560e01c806384155600116100b8578063913b722c1161007c578063913b722c14610277578063d3340fb61461027f578063dc44202914610292578063f010e2c2146102a9578063f2fde38b146102bc578063f76ebabb146102cf57610142565b8063841556001461021f57806386b2f46c14610232578063893d20e8146102455780638da5cb5b1461025a5780638f32d59b1461026257610142565b806323b83a5e1161010a57806323b83a5e146101b35780633cb4bd63146101d35780634dbad18c146101db5780636c19e783146101ee578063715018a614610201578063752987341461020957610142565b806305cc61ad1461014757806307c5ae70146101655780631085c0b01461017a5780631bafe1b91461018d5780631cf06594146101a0575b600080fd5b61014f6102ef565b60405161015c9190613bb3565b60405180910390f35b61017861017336600461329f565b610ad7565b005b610178610188366004612ea5565b610dea565b61017861019b366004613121565b610f10565b6101786101ae366004612e61565b611229565b6101c66101c1366004613281565b6113aa565b60405161015c9190613b7d565b610178611528565b6101786101e9366004612fab565b611af7565b6101786101fc366004612e61565b611d7e565b610178611dd0565b610211611e41565b60405161015c929190613b8e565b61017861022d366004613063565b6121ea565b6101786102403660046131a8565b612395565b61024d612593565b60405161015c919061390b565b61024d6125a3565b61026a6125b2565b60405161015c9190613bd5565b6101c66125d8565b61017861028d366004612e61565b61266d565b61029a6126bf565b60405161015c93929190613bf1565b6101786102b7366004613281565b612724565b6101786102ca366004612e61565b6128ac565b6102e26102dd366004612e61565b6128df565b60405161015c9190613bc4565b60385460609033906001600160a01b0316811461030b57600080fd5b60005b604154811015610a0e5760005b604254811015610a05576000604c60006042848154811061033857fe5b60009182526020808320909101546001600160a01b031683528201929092526040019020541180156103a257506000604c60006042848154811061037857fe5b60009182526020808320909101546001600160a01b03168352820192909252604001902060020154115b156109fd576000604c6000604284815481106103ba57fe5b60009182526020808320909101546001600160a01b03908116845290830193909352604090910181206006015460418054919093169350606092604992918790811061040257fe5b60009182526020808320909101546001600160a01b039081168452838201949094526040928301822093861682529283528190208054825181850281018501909352808352919290919083018282801561047b57602002820191906000526020600020905b815481526020019060010190808311610467575b505050505090506000604a60006041878154811061049557fe5b60009182526020808320909101546001600160a01b039081168452838201949094526040928301822093871682529290925290205460ff169050801561051e57600160d21b6510db1bdcd95902604f556040517f740ceeecb0c18ce3fa5eea6dd340f21c17bc1af2554ba4931954bfa38bacd18b90610515908590613b14565b60405180910390a15b60005b82518110156109f8577f9722fc67361d52da42c0f7876e69e09ab138fb52d29943d4e974db9621bcc42f6041878154811061055857fe5b9060005260206000200160009054906101000a90046001600160a01b031684838151811061058257fe5b60200260200101513060405161059a93929190613a75565b60405180910390a16060604b6000604189815481106105b557fe5b60009182526020808320909101546001600160a01b03168352820192909252604001812085519091908690859081106105ea57fe5b60200260200101518152602001908152602001600020805480602002602001604051908101604052809291908181526020016000905b8282101561068c5760008481526020908190206040805160a0810182526005860290920180546001600160a01b03908116845260018083015490911684860152600282015492840192909252600381015460608401526004015460808301529083529092019101610620565b509293506000925050505b81518110156109ee57603454600090815260476020526040902054604180548a9081106106c057fe5b600091825260208083209091015460345483526047909152604090912080546001600160a01b0390921691839081106106f557fe5b906000526020600020906007020160040160016101000a8154816001600160a01b0302191690836001600160a01b0316021790555085848151811061073657fe5b6020026020010151604760006034548152602001908152602001600020828154811061075e57fe5b90600052602060002090600702016003018190555082828151811061077f57fe5b60200260200101516060015160476000603454815260200190815260200160002082815481106107ab57fe5b9060005260206000209060070201600101819055508282815181106107cc57fe5b60200260200101516080015160476000603454815260200190815260200160002082815481106107f857fe5b90600052602060002090600702016002018190555082828151811061081957fe5b602002602001015160400151604760006034548152602001908152602001600020828154811061084557fe5b90600052602060002090600702016000018190555082828151811061086657fe5b602002602001015160000151604760006034548152602001908152602001600020828154811061089257fe5b906000526020600020906007020160050160006101000a8154816001600160a01b0302191690836001600160a01b031602179055508282815181106108d357fe5b60200260200101516020015160476000603454815260200190815260200160002082815481106108ff57fe5b6000918252602082206007919091020160060180546001600160a01b0319166001600160a01b039390931692909217909155805b6044548110156109935784848151811061094957fe5b6020026020010151600001516001600160a01b03166044828154811061096b57fe5b6000918252602090912001546001600160a01b0316141561098b57600191505b600101610933565b50806109e45760448484815181106109a757fe5b6020908102919091018101515182546001810184556000938452919092200180546001600160a01b0319166001600160a01b039092169190911790555b5050600101610697565b5050600101610521565b505050505b60010161031b565b5060010161030e565b50603454600090815260476020908152604080832080548251818502810185019093528083529193909284015b82821015610acc57600084815260209081902060408051610100808201835260078702909301805482526001808201548387015260028201549383019390935260038101546060830152600481015460ff8116151560808401526001600160a01b03949004841660a08301526005810154841660c08301526006015490921660e08301529083529092019101610a3b565b5050505091505b5090565b60385433906001600160a01b03168114610af057600080fd5b603554600160d01b655368617265730214610b0a57600080fd5b603b54603454604051600160e21b633d3f3fe902815230926001600160a01b03169163f4fcffa491610b3f9190600401613be3565b60206040518083038186803b158015610b5757600080fd5b505afa158015610b6b573d6000803e3d6000fd5b505050506040513d601f19601f82011682018060405250610b8f9190810190612e87565b6001600160a01b031614610ba257600080fd5b603e54604051600160e21b633cd163c50281526000916001600160a01b03169063f3458f1490610bd6908a90600401613c0c565b60206040518083038186803b158015610bee57600080fd5b505afa158015610c02573d6000803e3d6000fd5b505050506040513d601f19601f82011682018060405250610c269190810190612e87565b603e54604051600160e01b63f429f19b0281529192506001600160a01b03169063f429f19b90610c5a90849060040161390b565b60206040518083038186803b158015610c7257600080fd5b505afa158015610c86573d6000803e3d6000fd5b505050506040513d601f19601f82011682018060405250610caa9190810190613103565b600160cb1b660acd2c286c2e6d0214610cc257600080fd5b6001600160a01b038116600090815260436020526040902054610d3a57604280546001810182557f38dfe4635b27babeca8be38d3b448cb5161a639b899a14825ba9c8d7892eb8c30180546001600160a01b0319166001600160a01b0384169081179091559054600091825260436020526040909120555b6001600160a01b0381166000908152604c602052604090208b8155600281018b9055600381018a905560048101899055600501879055604d869055604e859055610d8660508585612b28565b50600160d21b65125cdcdd595902604f556040517f9db73b9e34b67b0482a252ae5e5448652d5745ede72cfa129660d76c3722598390610dd5908d908d908d908d908d9030908e908e90613caa565b60405180910390a15050505050505050505050565b600084604051602001610dfd9190613c26565b604051602081830303815290604052805190602001209050600081604051602001610e2891906138eb565b60408051601f19818403018152828252805160209182012060465460008552939091019182905292506001600160a01b0390911690600190610e71908490899089908990613c45565b6020604051602081039080840390855afa158015610e93573d6000803e3d6000fd5b505050602060405103516001600160a01b031614610eb057600080fd5b6001600160a01b038b81166000818152604a60209081526040808320948f16808452948252808320805460ff19168d151517905592825260498152828220938252929092529020610f02908a8a612ba2565b505050505050505050505050565b60385433906001600160a01b03168114610f2957600080fd5b42604055600160d21b651858d8d95c1d028714156111845760005b60345460009081526047602052604090205481101561117e57856047600060345481526020019081526020016000208281548110610f7e57fe5b906000526020600020906007020160030154148015610fe15750846001600160a01b03166047600060345481526020019081526020016000208281548110610fc257fe5b60009182526020909120600560079092020101546001600160a01b0316145b801561101e575083604760006034548152602001908152602001600020828154811061100957fe5b90600052602060002090600702016001015410155b801561106e5750826001600160a01b0316604760006034548152602001908152602001600020828154811061104f57fe5b60009182526020909120600660079092020101546001600160a01b0316145b15611176577f0f8f344b7d42ec42f5f30afff6d1aa26ae6f511fd8fef4a18187b4b73f87cc9d8787878787306040516110ac96959493929190613ac5565b60405180910390a160345460009081526047602052604090208054829081106110d157fe5b506000908152805b60455481101561112257866001600160a01b0316604582815481106110fa57fe5b6000918252602090912001546001600160a01b0316141561111a57600191505b6001016110d9565b508061117457604580546001810182556000919091527fa80a8fcc11760162f08bb091d2c9389d07f2b73d0e996161dfac6f1043b5fc0b0180546001600160a01b0319166001600160a01b0388161790555b505b600101610f44565b506111d6565b86600160d21b651c995a9958dd0214156111d6577f7f9488e51e1666cb4b80eb89a66e6f7baba0e494bbcede98ccd0a2a6f6ea6626868686306040516111cd9493929190613a9d565b60405180910390a15b600160c21b67105b1b1bdd1d195902604f556040517f03b095f68fee05efe5e24b3561adcaff741870d703b9bce62535d572cc084a3090611218903090613b48565b60405180910390a150505050505050565b60005b6041548110156113a6576000604960006041848154811061124957fe5b60009182526020808320909101546001600160a01b0390811684528382019490945260409283018220938716825292909252902054111561139e5760005b604960006041848154811061129857fe5b60009182526020808320909101546001600160a01b039081168452838201949094526040928301822093871682529290925290205481101561139c577f55cf15e1fee806bf583ba648f6d07f433ba88a4125a3a4fabb2283c88e1274026041838154811061130257fe5b9060005260206000200160009054906101000a90046001600160a01b0316604960006041868154811061133157fe5b60009182526020808320909101546001600160a01b0390811684528382019490945260409283018220938916825292909252902080548490811061137157fe5b90600052602060002001548560405161138c93929190613a75565b60405180910390a1600101611287565b505b60010161122c565b5050565b60385460609033906001600160a01b03168114806113d557506037546001600160a01b038281169116145b6113de57600080fd5b604554604080518281526020808402820101909152606091801561140c578160200160208202803883390190505b5090506000805b60455481101561151e5760006001604860006045858154811061143257fe5b60009182526020808320909101546001600160a01b03168352820192909252604001812054604580549390910393506048928590811061146e57fe5b60009182526020808320909101546001600160a01b03168352820192909252604001902080548290811061149e57fe5b90600052602060002090600402016002015487111561151557604582815481106114c457fe5b9060005260206000200160009054906101000a90046001600160a01b03168484815181106114ee57fe5b60200260200101906001600160a01b031690816001600160a01b0316815250508260010192505b50600101611413565b5090949350505050565b60385433906001600160a01b0316811461154157600080fd5b60008080808080805b604254811015611aed57604d600101549650604c60006042838154811061156d57fe5b60009182526020808320909101546001600160a01b0316835282019290925260400181206005015460428054919850604c9291849081106115aa57fe5b60009182526020808320909101546001600160a01b0316835282019290925260400181205460428054919750604c9291849081106115e457fe5b60009182526020808320909101546001600160a01b0316835282019290925260400181206002015460428054919650604c92918490811061162157fe5b60009182526020808320909101546001600160a01b0316835282019290925260400181206003015460428054919550604c92918490811061165e57fe5b60009182526020808320909101546001600160a01b03168352820192909252604001902060040154915084158015906116975750600084115b15611ae557603d54603b54603454604051600160e11b63522127410281526001600160a01b039384169363cfcbca1d93169163a4424e82916116dc9190600401613be3565b60206040518083038186803b1580156116f457600080fd5b505afa158015611708573d6000803e3d6000fd5b505050506040513d601f19601f8201168201806040525061172c9190810190612e87565b603c54603b54603454604051600160e01b63572d82990281526001600160a01b03938416938d93169163572d8299916117689190600401613be3565b60206040518083038186803b15801561178057600080fd5b505afa158015611794573d6000803e3d6000fd5b505050506040513d601f19601f820116820180604052506117b89190810190613103565b8c8b6040518763ffffffff1660e01b81526004016117db96959493929190613947565b600060405180830381600087803b1580156117f557600080fd5b505af1158015611809573d6000803e3d6000fd5b5050603d54603b54603454604051600160e01b63572d82990281526001600160a01b039384169550639c3acea094508b939092169163572d82999161185091600401613be3565b60206040518083038186803b15801561186857600080fd5b505afa15801561187c573d6000803e3d6000fd5b505050506040513d601f19601f820116820180604052506118a09190810190613103565b8a6040518463ffffffff1660e01b81526004016118bf93929190613bf1565b60206040518083038186803b1580156118d757600080fd5b505afa1580156118eb573d6000803e3d6000fd5b505050506040513d601f19601f8201168201806040525061190f9190810190612e87565b603980546001600160a01b0319166001600160a01b039283161790819055604051600160e01b6340c10f190281529116906340c10f19906119569030908990600401613b62565b600060405180830381600087803b15801561197057600080fd5b505af1158015611984573d6000803e3d6000fd5b5050603954604280546001600160a01b039092169350604c9250600091859081106119ab57fe5b6000918252602080832091909101546001600160a01b039081168452908301939093526040918201902060060180546001600160a01b03191693831693909317909255600160ca1b6613d999995c995902604f5560395491517ff4503fa8a89133c55d060f625dd7c591b559496759626476dd2233e41ea9ad3292611a31921690613b2e565b60405180910390a160005b604154811015611ae3577f2cdff49e5121f5e17f9517915fa31e1f24f42e3fcbe940daa66f39108de4bdaf60418281548110611a7457fe5b600091825260209091200154603954604280546001600160a01b0393841693909216918c918b9188908110611aa557fe5b600091825260209091200154604051611ad395949392916001600160a01b0316908c908c908c9030906139ba565b60405180910390a1600101611a3c565b505b60010161154a565b5050505050505050565b600084604051602001611b0a9190613c26565b604051602081830303815290604052805190602001209050600081604051602001611b3591906138eb565b60408051601f19818403018152828252805160209182012060465460008552939091019182905292506001600160a01b0390911690600190611b7e908490899089908990613c45565b6020604051602081039080840390855afa158015611ba0573d6000803e3d6000fd5b505050602060405103516001600160a01b031614611bbd57600080fd5b60005b87811015611d7157611bd0612bdc565b6040518060a001604052808b8b85818110611be757fe5b905060a00201600001356001600160a01b03166001600160a01b031681526020018b8b85818110611c1457fe5b905060a00201602001356001600160a01b03166001600160a01b031681526020018b8b85818110611c4157fe5b905060a002016040013581526020018b8b85818110611c5c57fe5b905060a002016060013581526020018b8b85818110611c7757fe5b905060a00201608001358152509050604b60008d6001600160a01b03166001600160a01b0316815260200190815260200160002060008c8152602001908152602001600020819080600181540180825580915050906001820390600052602060002090600502016000909192909190915060008201518160000160006101000a8154816001600160a01b0302191690836001600160a01b0316021790555060208201518160010160006101000a8154816001600160a01b0302191690836001600160a01b03160217905550604082015181600201556060820151816003015560808201518160040155505050508080600101915050611bc0565b5050505050505050505050565b611d866125b2565b611dae57604051600160e51b62461bcd028152600401611da590613c8a565b60405180910390fd5b604680546001600160a01b0319166001600160a01b0392909216919091179055565b611dd86125b2565b611df757604051600160e51b62461bcd028152600401611da590613c8a565b6033546040516000916001600160a01b0316907f8be0079c531659141344cd1fd0a4f28419497f9722a3daafe3b4186f6b6457e0908390a3603380546001600160a01b0319169055565b6060611e4b612c0a565b6042546040805182815260208084028201019091526060918015611e8957816020015b611e76612c30565b815260200190600190039081611e6e5790505b509050611e94612c30565b60005b604254811015612123576040518060e00160405280604c600060428581548110611ebd57fe5b9060005260206000200160009054906101000a90046001600160a01b03166001600160a01b03166001600160a01b03168152602001908152602001600020600001548152602001604c600060428581548110611f1557fe5b9060005260206000200160009054906101000a90046001600160a01b03166001600160a01b03166001600160a01b03168152602001908152602001600020600101548152602001604c600060428581548110611f6d57fe5b9060005260206000200160009054906101000a90046001600160a01b03166001600160a01b03166001600160a01b03168152602001908152602001600020600201548152602001604c600060428581548110611fc557fe5b9060005260206000200160009054906101000a90046001600160a01b03166001600160a01b03166001600160a01b03168152602001908152602001600020600301548152602001604c60006042858154811061201d57fe5b9060005260206000200160009054906101000a90046001600160a01b03166001600160a01b03166001600160a01b03168152602001908152602001600020600401548152602001604c60006042858154811061207557fe5b9060005260206000200160009054906101000a90046001600160a01b03166001600160a01b03166001600160a01b03168152602001908152602001600020600501548152602001604c6000604285815481106120cd57fe5b60009182526020808320909101546001600160a01b0390811684529083019390935260409091019020600601541690528351909250829084908390811061211057fe5b6020908102919091010152600101611e97565b5060408051608081018252604d80548252604e54602080840191909152604f548385015260508054855160026001831615610100026000190190921691909104601f810184900484028201840190965285815287959394938593606086019391908301828280156121d55780601f106121aa576101008083540402835291602001916121d5565b820191906000526020600020905b8154815290600101906020018083116121b857829003601f168201915b50505050508152505090509350935050509091565b60385433906001600160a01b031681148061221257506037546001600160a01b038281169116145b61221b57600080fd5b603e54604051600160e21b632e5ac80102815260009182916001600160a01b039091169063b96b200490612253908890600401613be3565b604080518083038186803b15801561226a57600080fd5b505afa15801561227e573d6000803e3d6000fd5b505050506040513d601f19601f820116820180604052506122a29190810190612f71565b9150915080600160cb1b660acd2c286c2e6d02141561238d57604051600160e01b6323b872dd0281526001600160a01b038316906323b872dd906122ee9033908a90899060040161391f565b602060405180830381600087803b15801561230857600080fd5b505af115801561231c573d6000803e3d6000fd5b505050506040513d601f19601f8201168201806040525061234091908101906130e5565b1561238d5761234d612c79565b5060408051608081018252868152602080820187905242828401523360608301526001600160a01b03891660009081526048909152919091208054829190fe5b505050505050565b600054610100900460ff16806123ae57506123ae6129af565b806123bc575060005460ff16155b6123db57604051600160e51b62461bcd028152600401611da590613c9a565b600054610100900460ff16158015612406576000805460ff1961ff0019909116610100171660011790555b603680546001600160a01b03199081166001600160a01b038a81169190911790925560348d905560358c90556037805482168c84161790556038805482168b8416179055603b8054339083161790819055603c805483168a8516179055603d80548316898516179055603e80548316888516179055603f80548316878516179055604680549092168584161790915560408051600160e11b630fdf2a9702815290516060939290921691631fbe552e91600480820192600092909190829003018186803b1580156124d657600080fd5b505afa1580156124ea573d6000803e3d6000fd5b505050506040513d6000823e601f3d908101601f1916820160405261251291908101906130b0565b905060005b815181101561257357604182828151811061252e57fe5b60209081029190910181015182546001808201855560009485529290932090920180546001600160a01b0319166001600160a01b039093169290921790915501612517565b50508015611d71576000805461ff00191690555050505050505050505050565b6036546001600160a01b03165b90565b6033546001600160a01b031690565b6033546000906001600160a01b03166125c96129b5565b6001600160a01b031614905090565b60385460609033906001600160a01b031681148061260357506037546001600160a01b038281169116145b61260c57600080fd5b604580548060200260200160405190810160405280929190818152602001828054801561266257602002820191906000526020600020905b81546001600160a01b03168152600190910190602001808311612644575b505050505091505090565b604180546001810182556000919091527f7c9785e8241615bc80415d89775984a1337d15dc1bf4ce50f41988b2a2b336a70180546001600160a01b0319166001600160a01b0392909216919091179055565b6038546000908190819033906001600160a01b03168114806126ee57506037546001600160a01b038281169116145b6126f757600080fd5b6127026040546129b9565b61270d6040546129d6565b6127186040546129f1565b93509350935050909192565b60385433906001600160a01b0316811461273d57600080fd5b600080805b6041548110156128a55760005b60425481101561289c576000604c60006042848154811061276c57fe5b60009182526020808320909101546001600160a01b031683528201929092526040019020541180156127d657506000604c6000604284815481106127ac57fe5b60009182526020808320909101546001600160a01b03168352820192909252604001902060020154115b15612894577f9fcde577dcaf28917e44ca3badd85e622253b099d64d02fdb539ae2e281fc7556041838154811061280957fe5b9060005260206000200160009054906101000a90046001600160a01b0316604c60006042858154811061283857fe5b60009182526020808320909101546001600160a01b039081168452908301939093526040918201902060060154905161287a939291909116908a903090613a40565b60405180910390a1600160ca1b6614dd185c9d195902604f555b60010161274f565b50600101612742565b5050505050565b6128b46125b2565b6128d357604051600160e51b62461bcd028152600401611da590613c8a565b6128dc81612a0d565b50565b60385460609033906001600160a01b031681148061290a57506037546001600160a01b038281169116145b61291357600080fd5b6001600160a01b038316600090815260486020908152604080832080548251818502810185019093528083529193909284015b828210156129a357600084815260209081902060408051608081018252600486029092018054835260018082015484860152600282015492840192909252600301546001600160a01b031660608301529083529092019101612946565b50505050915050919050565b303b1590565b3390565b600080806129cc62015180855b04612a92565b9695505050505050565b600080806129e762015180856129c6565b5095945050505050565b60008080612a0262015180856129c6565b509095945050505050565b6001600160a01b038116612a3657604051600160e51b62461bcd028152600401611da590613c7a565b6033546040516001600160a01b038084169216907f8be0079c531659141344cd1fd0a4f28419497f9722a3daafe3b4186f6b6457e090600090a3603380546001600160a01b0319166001600160a01b0392909216919091179055565b60008080836226496581018262023ab1600483020590506004600362023ab18302010590910390600062164b09610fa0600185010205905060046105b58202058303601f019250600061098f8460500281612ae957fe5b0590506000605061098f83020585039050600b820560301994909401606402929092018301996002600c90940290910392909201975095509350505050565b828054600181600116156101000203166002900490600052602060002090601f016020900481019282601f10612b695782800160ff19823516178555612b96565b82800160010185558215612b96579182015b82811115612b96578235825591602001919060010190612b7b565b50610ad3929150612ca0565b828054828255906000526020600020908101928215612b965791602002820182811115612b96578235825591602001919060010190612b7b565b6040805160a08101825260008082526020820181905291810182905260608101829052608081019190915290565b604080516080810182526000808252602082018190529181019190915260608082015290565b6040518060e0016040528060008152602001600081526020016000815260200160008152602001600081526020016000801916815260200160006001600160a01b031681525090565b60408051608081018252600080825260208201819052918101829052606081019190915290565b6125a091905b80821115610ad35760008155600101612ca6565b6000612cc68235613d9b565b9392505050565b6000612cc68251613d9b565b600082601f830112612cea57600080fd5b8151612cfd612cf882613d62565b613d3b565b91508181835260208401935060208101905083856020840282011115612d2257600080fd5b60005b83811015612d4e5781612d388882612ccd565b8452506020928301929190910190600101612d25565b5050505092915050565b60008083601f840112612d6a57600080fd5b50813567ffffffffffffffff811115612d8257600080fd5b602083019150836020820283011115612d9a57600080fd5b9250929050565b60008083601f840112612db357600080fd5b50813567ffffffffffffffff811115612dcb57600080fd5b6020830191508360a0820283011115612d9a57600080fd5b6000612cc68235613da6565b6000612cc68251613da6565b6000612cc682356125a0565b6000612cc682516125a0565b60008083601f840112612e2557600080fd5b50813567ffffffffffffffff811115612e3d57600080fd5b602083019150836001820283011115612d9a57600080fd5b6000612cc68235613db7565b600060208284031215612e7357600080fd5b6000612e7f8484612cba565b949350505050565b600060208284031215612e9957600080fd5b6000612e7f8484612ccd565b60008060008060008060008060006101008a8c031215612ec457600080fd5b6000612ed08c8c612cba565b9950506020612ee18c828d01612cba565b98505060408a013567ffffffffffffffff811115612efe57600080fd5b612f0a8c828d01612d58565b97509750506060612f1d8c828d01612de3565b9550506080612f2e8c828d01612dfb565b94505060a0612f3f8c828d01612e55565b93505060c0612f508c828d01612dfb565b92505060e0612f618c828d01612dfb565b9150509295985092959850929598565b60008060408385031215612f8457600080fd5b6000612f908585612ccd565b9250506020612fa185828601612e07565b9150509250929050565b60008060008060008060008060e0898b031215612fc757600080fd5b6000612fd38b8b612cba565b9850506020612fe48b828c01612dfb565b975050604089013567ffffffffffffffff81111561300157600080fd5b61300d8b828c01612da1565b965096505060606130208b828c01612dfb565b94505060806130318b828c01612e55565b93505060a06130428b828c01612dfb565b92505060c06130538b828c01612dfb565b9150509295985092959890939650565b60008060006060848603121561307857600080fd5b60006130848686612cba565b935050602061309586828701612dfb565b92505060406130a686828701612dfb565b9150509250925092565b6000602082840312156130c257600080fd5b815167ffffffffffffffff8111156130d957600080fd5b612e7f84828501612cd9565b6000602082840312156130f757600080fd5b6000612e7f8484612def565b60006020828403121561311557600080fd5b6000612e7f8484612e07565b60008060008060008060c0878903121561313a57600080fd5b60006131468989612dfb565b965050602061315789828a01612cba565b955050604061316889828a01612dfb565b945050606061317989828a01612cba565b935050608061318a89828a01612dfb565b92505060a061319b89828a01612cba565b9150509295509295509295565b6000806000806000806000806000806101408b8d0312156131c857600080fd5b60006131d48d8d612dfb565b9a505060206131e58d828e01612dfb565b99505060406131f68d828e01612cba565b98505060606132078d828e01612cba565b97505060806132188d828e01612cba565b96505060a06132298d828e01612cba565b95505060c061323a8d828e01612cba565b94505060e061324b8d828e01612cba565b93505061010061325d8d828e01612cba565b92505061012061326f8d828e01612cba565b9150509295989b9194979a5092959850565b60006020828403121561329357600080fd5b6000612e7f8484612dfb565b60008060008060008060008060006101008a8c0312156132be57600080fd5b60006132ca8c8c612dfb565b99505060206132db8c828d01612dfb565b98505060406132ec8c828d01612dfb565b97505060606132fd8c828d01612dfb565b965050608061330e8c828d01612dfb565b95505060a061331f8c828d01612dfb565b94505060c06133308c828d01612dfb565b93505060e08a013567ffffffffffffffff81111561334d57600080fd5b6133598c828d01612e13565b92509250509295985092959850929598565b600061337783836133cb565b505060200190565b600061338b8383613778565b505060e00190565b600061339f8383613801565b50506101000190565b60006133b48383613898565b505060800190565b6133c581613dbd565b82525050565b6133c581613d9b565b60006133df82613d89565b6133e98185613d8d565b93506133f483613d83565b60005b8281101561341f5761340a86835161336b565b955061341582613d83565b91506001016133f7565b5093949350505050565b600061343482613d89565b61343e8185613d8d565b935061344983613d83565b60005b8281101561341f5761345f86835161337f565b955061346a82613d83565b915060010161344c565b600061347f82613d89565b6134898185613d8d565b935061349483613d83565b60005b8281101561341f576134aa868351613393565b95506134b582613d83565b9150600101613497565b60006134ca82613d89565b6134d48185613d8d565b93506134df83613d83565b60005b8281101561341f576134f58683516133a8565b955061350082613d83565b91506001016134e2565b6133c581613da6565b6133c5816125a0565b6133c5613528826125a0565b6125a0565b600061353882613d89565b6135428185613d8d565b9350613552818560208601613dce565b61355b81613dfa565b9093019392505050565b600160d21b65125cdcdd5959029052565b6000613583601c83613d96565b7f19457468657265756d205369676e6564204d6573736167653a0a3332000000008152601c0192915050565b600160d21b6510db1bdcd959029052565b60006135cd602683613d8d565b7f4f776e61626c653a206e6577206f776e657220697320746865207a65726f20618152600160d01b6564647265737302602082015260400192915050565b600160f41b610445029052565b600160cb1b660acd2c286c2e6d029052565b600160ca1b6613d999995c9959029052565b6000613649602083613d8d565b7f4f776e61626c653a2063616c6c6572206973206e6f7420746865206f776e6572815260200192915050565b6000613682602e83613d8d565b7f436f6e747261637420696e7374616e63652068617320616c726561647920626581527f656e20696e697469616c697a6564000000000000000000000000000000000000602082015260400192915050565b60006136e1600683613d8d565b600160d01b654c32746f4c3102815260200192915050565b600160d01b65536861726573029052565b600160c21b67105b1b1bdd1d1959029052565b805160009060808401906137318582613513565b5060208301516137446020860182613513565b5060408301516137576040860182613513565b506060830151848203606086015261376f828261352d565b95945050505050565b805160e08301906137898482613513565b50602082015161379c6020850182613513565b5060408201516137af6040850182613513565b5060608201516137c26060850182613513565b5060808201516137d56080850182613513565b5060a08201516137e860a0850182613513565b5060c08201516137fb60c08501826133cb565b50505050565b80516101008301906138138482613513565b5060208201516138266020850182613513565b5060408201516138396040850182613513565b50606082015161384c6060850182613513565b50608082015161385f608085018261350a565b5060a082015161387260a08501826133cb565b5060c082015161388560c08501826133cb565b5060e08201516137fb60e08501826133cb565b805160808301906138a98482613513565b5060208201516138bc6020850182613513565b5060408201516138cf6040850182613513565b5060608201516137fb60608501826133cb565b6133c581613db7565b60006138f682613576565b9150613902828461351c565b50602001919050565b6020810161391982846133cb565b92915050565b6060810161392d82866133bc565b61393a60208301856133cb565b612e7f6040830184613513565b610100810161395682896133cb565b61396360208301886133cb565b6139706040830187613513565b61397d6060830186613513565b61398a6080830185613513565b61399660a0830161360b565b6139a260c083016136f9565b6139af60e0830184613513565b979650505050505050565b61012081016139c9828c6133cb565b6139d6602083018b6133cb565b6139e3604083018a613513565b6139f06060830189613513565b6139fd60808301886133cb565b613a0a60a0830187613513565b613a1760c0830186613513565b613a2460e0830185613513565b613a326101008301846133cb565b9a9950505050505050505050565b60808101613a4e82876133cb565b613a5b60208301866133cb565b613a686040830185613513565b61376f60608301846133cb565b60608101613a8382866133cb565b613a906020830185613513565b612e7f60408301846133cb565b60808101613aab82876133cb565b613ab86020830186613513565b613a6860408301856133cb565b60c08101613ad382896133cb565b613ae06020830188613513565b613aed60408301876133cb565b613afa6060830186613513565b613b0760808301856133cb565b6139af60a08301846133cb565b60408101613b2282846133cb565b613919602083016135af565b60408101613b3c82846133cb565b6139196020830161362a565b60408101613b5682846133cb565b6139196020830161370a565b60408101613b7082856133cb565b612cc66020830184613513565b60208082528101612cc681846133d4565b60408082528101613b9f8185613429565b90508181036020830152612e7f818461371d565b60208082528101612cc68184613474565b60208082528101612cc681846134bf565b60208101613919828461350a565b602081016139198284613513565b60608101613bff8286613513565b61393a6020830185613513565b60408101613c1a8284613513565b61391960208301613618565b60408101613c348284613513565b8181036020830152612cc6816136d4565b60808101613c538287613513565b613c6060208301866138e2565b613c6d6040830185613513565b61376f6060830184613513565b60208082528101613919816135c0565b602080825281016139198161363c565b6020808252810161391981613675565b6101408101613cb9828b613513565b613cc6602083018a613513565b613cd36040830189613513565b613ce06060830188613513565b613ced6080830187613513565b613cfa60a08301866133cb565b613d0760c0830185613513565b613d1460e0830184613513565b613d216101008301613565565b613d2e61012083016136f9565b9998505050505050505050565b60405181810167ffffffffffffffff81118282101715613d5a57600080fd5b604052919050565b600067ffffffffffffffff821115613d7957600080fd5b5060209081020190565b60200190565b5190565b90815260200190565b919050565b600061391982613dab565b151590565b6001600160a01b031690565b60ff1690565b600061391982600061391982613d9b565b60005b83811015613de9578181015183820152602001613dd1565b838111156137fb5750506000910152565b601f01601f19169056fea265627a7a72305820613a887b7e4410d84b3655ba0024414c77135bcb544dea5b60c418babf849ed56c6578706572696d656e74616cf50037",
    "source": "// Basic functions to be implemented by any stock\r\n// (c) Kallol Borah, Verified Network, 2022\r\n\r\npragma solidity 0.5.7;\r\npragma experimental ABIEncoderV2;\r\n\r\nimport \"./interfaces/IShare.sol\";\r\nimport \"./Issues.sol\";\r\n\r\ncontract Stocks is Share, Issues {\r\n\r\n    //mapping of asked currency to issue details\r\n    mapping(address => Share.currencySpecificStockAttribs) private shares;\r\n    Share.commonStockAttribs stockIssue;\r\n\r\n    modifier onlyDP(address sender){\r\n        require(registrar==sender);\r\n        _;\r\n    }\r\n\r\n    function issueShare(uint256 _issueSize,\r\n                        uint256 _offerPrice, \r\n                        uint256 _minAskPrice, \r\n                        uint256 _minSubscription,\r\n                        bytes32 _currency,\r\n                        bytes32 _offerType,\r\n                        bytes32 _isin,\r\n                        string calldata _offeringDocuments\r\n                        ) external onlyDP(msg.sender){\r\n        require(category==\"Shares\");\r\n        require(VerifiedProducts(productContract).getIssue(productRef)==address(this));\r\n        address currencyAddress = ViaFactory(viaFactoryContract).getTokenByNameType(_currency,\"ViaCash\");\r\n        require(ViaFactory(viaFactoryContract).getType(currencyAddress) == \"ViaCash\");\r\n        if(currencyIndex[currencyAddress]==0){\r\n            currencies.push(currencyAddress);\r\n            currencyIndex[currencyAddress]=currencies.length;\r\n        }\r\n        shares[currencyAddress].issueSize = _issueSize;\r\n        shares[currencyAddress].offerPrice = _offerPrice;\r\n        shares[currencyAddress].minAskPrice = _minAskPrice;\r\n        shares[currencyAddress].minSubscription = _minSubscription;\r\n        shares[currencyAddress].currency = _currency;\r\n        stockIssue.offerType = _offerType;\r\n        stockIssue.isin = _isin;        \r\n        stockIssue.offeringDocuments = _offeringDocuments;  \r\n        stockIssue.status = \"Issued\";    \r\n        emit issued (\r\n            _issueSize,\r\n            _offerPrice, \r\n            _minAskPrice,   \r\n            _minSubscription,\r\n            _currency,\r\n            address(this),\r\n            _offerType,\r\n            _isin,\r\n            \"Issued\",\r\n            \"Shares\"\r\n        );  \r\n    }\r\n\r\n    function getShare() external view returns(Share.currencySpecificStockAttribs[] memory, Share.commonStockAttribs memory){\r\n        Share.currencySpecificStockAttribs[] memory stocks = new Share.currencySpecificStockAttribs[](currencies.length);\r\n        Share.currencySpecificStockAttribs memory share;\r\n        for(uint i=0; i<currencies.length; i++){\r\n            share = Share.currencySpecificStockAttribs({\r\n                issueSize : shares[currencies[i]].issueSize,\r\n                faceValue : shares[currencies[i]].faceValue,\r\n                offerPrice : shares[currencies[i]].offerPrice, \r\n                minAskPrice : shares[currencies[i]].minAskPrice,  \r\n                minSubscription : shares[currencies[i]].minSubscription,\r\n                currency : shares[currencies[i]].currency,\r\n                security : shares[currencies[i]].security\r\n            });\r\n            stocks[i] = share;\r\n        }\r\n        return (stocks, stockIssue);\r\n    }\r\n\r\n    function askOffers() external onlyDP(msg.sender){\r\n        bytes32 isin;\r\n        bytes32 currency;\r\n        uint256 issueSize;\r\n        uint256 offerPrice; \r\n        uint256 minAskPrice; \r\n        uint256 minSubscription;\r\n        for(uint i=0; i<currencies.length; i++){\r\n            isin = stockIssue.isin;\r\n            currency = shares[currencies[i]].currency;\r\n            issueSize = shares[currencies[i]].issueSize;\r\n            offerPrice = shares[currencies[i]].offerPrice;\r\n            minAskPrice = shares[currencies[i]].minAskPrice;    \r\n            minSubscription = shares[currencies[i]].minSubscription;  \r\n            if(issueSize>0 && offerPrice>0){          \r\n                ISecuritiesRegistry(securityRegistriesContract).createSecurity(VerifiedProducts(productContract).getIssuerAddress(productRef),\r\n                                                            securityContract,\r\n                                                            currency,\r\n                                                            VerifiedProducts(productContract).getIssuerName(productRef),\r\n                                                            isin, \"DP\", \"Shares\", issueSize);\r\n                security = ISecuritiesRegistry(securityRegistriesContract).getToken(currency,\r\n                                                                                    VerifiedProducts(productContract).getIssuerName(productRef),\r\n                                                                                    isin);\r\n                ISecurity(security).mint(address(this), issueSize);\r\n                shares[currencies[i]].security = security;\r\n                stockIssue.status = \"Offered\";\r\n                emit offered(security, \"Offered\");\r\n                //offer the issue on defi platforms\r\n                for(uint j=0; j<platforms.length; j++){\r\n                    //IMarketMaker(platforms[j]).offer(security, isin, issueSize, currencies[i], offerPrice, minAskPrice);//, minSubscription);\r\n                    emit offer(platforms[j], security, isin, issueSize, currencies[i], offerPrice, minAskPrice, minSubscription, address(this));\r\n                }\r\n            }\r\n        }       \r\n    }\r\n    \r\n    function startIssue(uint256 cutOffTime) external onlyDP(msg.sender){\r\n        address securityToken;\r\n        address orderPool;\r\n        for(uint i=0; i<platforms.length; i++){\r\n            for(uint j=0; j<currencies.length; j++){\r\n                if(shares[currencies[j]].issueSize > 0 && shares[currencies[j]].offerPrice > 0){\r\n                    //IMarketMaker(platforms[i]).issue(shares[currencies[j]].security, cutOffTime);\r\n                    emit start(platforms[i], shares[currencies[j]].security, cutOffTime, address(this));\r\n                    //offer security on the verified network\r\n                    //securityToken = ISecuritiesRegistry(securityRegistriesContract).getToken(shares[currencies[j]].currency, VerifiedProducts(productContract).getIssuerName(productRef), stockIssue.isin);\r\n                    //orderPool = IPoolFactory(poolFactoryContract).getPool(securityToken, currencies[j]);\r\n                    //IOrderPool(orderPool).newOrder(securityToken, currencies[j], shares[currencies[j]].offerPrice, shares[currencies[j]].issueSize, \"Market\", \"Sell\");\r\n                    stockIssue.status = \"Started\";\r\n                }\r\n            }\r\n        }        \r\n    }\r\n\r\n    function getSubscribers() external onlyDP(msg.sender) returns(VerifiedIssues.ioi[] memory) {\r\n        for(uint i=0; i<platforms.length; i++){\r\n            for(uint k=0; k<currencies.length; k++){\r\n                if(shares[currencies[k]].issueSize > 0 && shares[currencies[k]].offerPrice > 0){\r\n                    address securitytoken;\r\n                    securitytoken = shares[currencies[k]].security;\r\n                    //(bytes32[] memory pools, bool issueClosed) = IMarketMaker(platforms[i]).close(securitytoken);\r\n                    //emit close(platforms[i], securitytoken, address(this));\r\n                    bytes32[] memory pools = poolsOnClose[platforms[i]][securitytoken];\r\n                    bool issueClosed = issueCloseStatus[platforms[i]][securitytoken];\r\n                    if(issueClosed){\r\n                        stockIssue.status = \"Closed\";\r\n                        emit closed(securitytoken, \"Closed\");\r\n                    }\r\n                    for(uint j=0; j<pools.length; j++){\r\n                        //IMarketMaker.subscriptions[] memory subs = IMarketMaker(platforms[i]).getSubscribers(pools[j]);\r\n                        emit subscriptions(platforms[i], pools[j], address(this));\r\n                        IMarketMaker.subscriptions[] memory subs = subscribersOnClose[platforms[i]][pools[j]]; \r\n                        for(uint l=0; l<subs.length; l++){\r\n                            uint256 count = subscribers[productRef].length;\r\n                            subscribers[productRef][count].platform = platforms[i];\r\n                            subscribers[productRef][count].poolid = pools[j];\r\n                            subscribers[productRef][count].amount = subs[l].amount;\r\n                            subscribers[productRef][count].price = subs[l].price;\r\n                            subscribers[productRef][count].currency = subs[l].name;\r\n                            subscribers[productRef][count].investor = subs[l].investor;\r\n                            subscribers[productRef][count].asset = subs[l].asset;\r\n                            bool found = false;\r\n                            for(uint x=0; x<investors.length; x++){\r\n                                if(investors[x]==subs[l].investor)\r\n                                    found = true;\r\n                            }\r\n                            if(!found)\r\n                                investors.push(subs[l].investor);\r\n                        }\r\n                    }\r\n                }\r\n            }\r\n        }\r\n        return subscribers[productRef];\r\n    }\r\n\r\n    function allotIssue(bytes32 _allotment, address _platform, bytes32 _pool, address _investor, uint256 _amount, address _asset) external onlyDP(msg.sender){\r\n        timeOfIssue = now;\r\n        if(_allotment==\"accept\"){\r\n            for(uint i=0; i<subscribers[productRef].length; i++){\r\n                if(subscribers[productRef][i].poolid==_pool &&\r\n                   subscribers[productRef][i].investor==_investor &&\r\n                   subscribers[productRef][i].amount >= _amount &&\r\n                   subscribers[productRef][i].asset == _asset\r\n                   ){\r\n                    //IMarketMaker(_platform).accept(_pool, _investor, _amount, _asset);\r\n                    emit accept(_platform, _pool, _investor, _amount, _asset, address(this));\r\n                    subscribers[productRef][i].status == true; \r\n                    bool found = false;\r\n                    for(uint j=0; j<beneficiaries.length; j++){\r\n                        if(beneficiaries[j]==_investor)\r\n                            found = true;\r\n                    }\r\n                    if(!found)\r\n                        beneficiaries.push(_investor);\r\n                }\r\n            }\r\n            //IMarketMaker(_platform).settle(_pool);\r\n            //emit settle(_platform, _pool, address(this));\r\n        }\r\n        else if(_allotment==\"reject\"){\r\n            //IMarketMaker(_platform).reject(_pool, _investor);\r\n            emit reject(_platform, _pool, _investor, address(this));\r\n        }\r\n        stockIssue.status = \"Allotted\";\r\n        emit allotted(address(this), \"Allotted\");\r\n    }      \r\n\r\n}\r\n\r\n",
    "sourcePath": "D:\\Code\\verified-securities-L2\\securities\\contracts\\Stocks.sol",
    "compiler": {
        "name": "solc",
        "version": "0.5.7+commit.6da8b019.Emscripten.clang"
    },
    "schemaVersion": "3.4.3",
    "updatedAt": "2022-07-17T14:40:57.114Z",
    "networkType": "ethereum",
    "devdoc": {
        "methods": {
            "isOwner()": {
                "details": "Returns true if the caller is the current owner."
            },
            "owner()": {
                "details": "Returns the address of the current owner."
            },
            "renounceOwnership()": {
                "details": "Leaves the contract without owner. It will not be possible to call `onlyOwner` functions anymore. Can only be called by the current owner.     * NOTE: Renouncing ownership will leave the contract without an owner, thereby removing any functionality that is only available to the owner."
            },
            "transferOwnership(address)": {
                "details": "Transfers ownership of the contract to a new account (`newOwner`). Can only be called by the current owner."
            }
        }
    },
    "userdoc": {
        "methods": {}
    }
}