{
    "contractName": "Stocks",
    "abi": [
        {
            "constant": false,
            "inputs": [
                {
                    "name": "_byTime",
                    "type": "uint256"
                }
            ],
            "name": "isAllPaidFor",
            "outputs": [
                {
                    "name": "",
                    "type": "address[]"
                }
            ],
            "payable": false,
            "stateMutability": "nonpayable",
            "type": "function"
        },
        {
            "constant": false,
            "inputs": [
                {
                    "name": "platform",
                    "type": "address"
                },
                {
                    "components": [
                        {
                            "name": "owner",
                            "type": "address"
                        },
                        {
                            "name": "amountOffered",
                            "type": "uint256"
                        },
                        {
                            "name": "amountDesired",
                            "type": "uint256"
                        },
                        {
                            "name": "min",
                            "type": "uint256"
                        },
                        {
                            "name": "isin",
                            "type": "bytes32"
                        }
                    ],
                    "name": "lps",
                    "type": "tuple[]"
                }
            ],
            "name": "setLiquidityProviders",
            "outputs": [],
            "payable": false,
            "stateMutability": "nonpayable",
            "type": "function"
        },
        {
            "constant": false,
            "inputs": [
                {
                    "name": "_beneficiary",
                    "type": "address"
                },
                {
                    "name": "_currency",
                    "type": "bytes32"
                },
                {
                    "name": "_amount",
                    "type": "uint256"
                }
            ],
            "name": "payOut",
            "outputs": [],
            "payable": false,
            "stateMutability": "nonpayable",
            "type": "function"
        },
        {
            "constant": false,
            "inputs": [
                {
                    "name": "platform",
                    "type": "address"
                }
            ],
            "name": "getLiquidityProviders",
            "outputs": [
                {
                    "components": [
                        {
                            "name": "owner",
                            "type": "address"
                        },
                        {
                            "name": "tokenOffered",
                            "type": "address"
                        },
                        {
                            "name": "underwritten",
                            "type": "uint256"
                        },
                        {
                            "name": "subscribed",
                            "type": "uint256"
                        },
                        {
                            "name": "earned",
                            "type": "uint256"
                        }
                    ],
                    "name": "",
                    "type": "tuple[]"
                }
            ],
            "payable": false,
            "stateMutability": "nonpayable",
            "type": "function"
        },
        {
            "constant": true,
            "inputs": [],
            "name": "getOwner",
            "outputs": [
                {
                    "name": "",
                    "type": "address"
                }
            ],
            "payable": false,
            "stateMutability": "view",
            "type": "function"
        },
        {
            "constant": true,
            "inputs": [],
            "name": "getBeneficiaries",
            "outputs": [
                {
                    "name": "",
                    "type": "address[]"
                }
            ],
            "payable": false,
            "stateMutability": "view",
            "type": "function"
        },
        {
            "constant": false,
            "inputs": [
                {
                    "name": "_productReference",
                    "type": "bytes32"
                },
                {
                    "name": "_productCategory",
                    "type": "bytes32"
                },
                {
                    "name": "_issuer",
                    "type": "address"
                },
                {
                    "name": "_registrar",
                    "type": "address"
                },
                {
                    "name": "_owner",
                    "type": "address"
                },
                {
                    "name": "_securityContract",
                    "type": "address"
                },
                {
                    "name": "_securityRegistriesContract",
                    "type": "address"
                },
                {
                    "name": "_viaFactoryContract",
                    "type": "address"
                },
                {
                    "name": "_poolFactoryContract",
                    "type": "address"
                }
            ],
            "name": "initialize",
            "outputs": [],
            "payable": false,
            "stateMutability": "nonpayable",
            "type": "function"
        },
        {
            "constant": false,
            "inputs": [
                {
                    "name": "_liquidityPlatform",
                    "type": "address"
                }
            ],
            "name": "registerPlatform",
            "outputs": [],
            "payable": false,
            "stateMutability": "nonpayable",
            "type": "function"
        },
        {
            "constant": false,
            "inputs": [],
            "name": "getDateOfIssue",
            "outputs": [
                {
                    "name": "day",
                    "type": "uint256"
                },
                {
                    "name": "month",
                    "type": "uint256"
                },
                {
                    "name": "year",
                    "type": "uint256"
                }
            ],
            "payable": false,
            "stateMutability": "nonpayable",
            "type": "function"
        },
        {
            "constant": false,
            "inputs": [
                {
                    "name": "platform",
                    "type": "address"
                },
                {
                    "name": "securityToken",
                    "type": "address"
                },
                {
                    "name": "pools",
                    "type": "bytes32[]"
                },
                {
                    "name": "status",
                    "type": "bool"
                }
            ],
            "name": "setPlatformPools",
            "outputs": [],
            "payable": false,
            "stateMutability": "nonpayable",
            "type": "function"
        },
        {
            "constant": false,
            "inputs": [
                {
                    "name": "_beneficiary",
                    "type": "address"
                }
            ],
            "name": "getPaymentStatusFor",
            "outputs": [
                {
                    "components": [
                        {
                            "name": "currency",
                            "type": "bytes32"
                        },
                        {
                            "name": "amount",
                            "type": "uint256"
                        },
                        {
                            "name": "payoutDate",
                            "type": "uint256"
                        },
                        {
                            "name": "payer",
                            "type": "address"
                        }
                    ],
                    "name": "",
                    "type": "tuple[]"
                }
            ],
            "payable": false,
            "stateMutability": "nonpayable",
            "type": "function"
        },
        {
            "constant": false,
            "inputs": [
                {
                    "name": "platform",
                    "type": "address"
                },
                {
                    "name": "pool",
                    "type": "bytes32"
                },
                {
                    "components": [
                        {
                            "name": "investor",
                            "type": "address"
                        },
                        {
                            "name": "asset",
                            "type": "address"
                        },
                        {
                            "name": "name",
                            "type": "bytes32"
                        },
                        {
                            "name": "amount",
                            "type": "uint256"
                        },
                        {
                            "name": "price",
                            "type": "uint256"
                        }
                    ],
                    "name": "eois",
                    "type": "tuple[]"
                }
            ],
            "name": "setPlatformSubscribers",
            "outputs": [],
            "payable": false,
            "stateMutability": "nonpayable",
            "type": "function"
        },
        {
            "anonymous": false,
            "inputs": [
                {
                    "indexed": false,
                    "name": "issueSize",
                    "type": "uint256"
                },
                {
                    "indexed": false,
                    "name": "offerPrice",
                    "type": "uint256"
                },
                {
                    "indexed": false,
                    "name": "minAskPrice",
                    "type": "uint256"
                },
                {
                    "indexed": false,
                    "name": "minSubscription",
                    "type": "uint256"
                },
                {
                    "indexed": false,
                    "name": "currency",
                    "type": "bytes32"
                },
                {
                    "indexed": false,
                    "name": "security",
                    "type": "address"
                },
                {
                    "indexed": false,
                    "name": "offerType",
                    "type": "bytes32"
                },
                {
                    "indexed": false,
                    "name": "isin",
                    "type": "bytes32"
                },
                {
                    "indexed": false,
                    "name": "status",
                    "type": "bytes32"
                },
                {
                    "indexed": false,
                    "name": "productCategory",
                    "type": "bytes32"
                }
            ],
            "name": "issued",
            "type": "event"
        },
        {
            "anonymous": false,
            "inputs": [
                {
                    "indexed": false,
                    "name": "security",
                    "type": "address"
                },
                {
                    "indexed": false,
                    "name": "status",
                    "type": "bytes32"
                }
            ],
            "name": "offered",
            "type": "event"
        },
        {
            "anonymous": false,
            "inputs": [
                {
                    "indexed": false,
                    "name": "security",
                    "type": "address"
                },
                {
                    "indexed": false,
                    "name": "status",
                    "type": "bytes32"
                }
            ],
            "name": "opened",
            "type": "event"
        },
        {
            "anonymous": false,
            "inputs": [
                {
                    "indexed": false,
                    "name": "security",
                    "type": "address"
                },
                {
                    "indexed": false,
                    "name": "status",
                    "type": "bytes32"
                }
            ],
            "name": "closed",
            "type": "event"
        },
        {
            "anonymous": false,
            "inputs": [
                {
                    "indexed": false,
                    "name": "security",
                    "type": "address"
                },
                {
                    "indexed": false,
                    "name": "status",
                    "type": "bytes32"
                }
            ],
            "name": "allotted",
            "type": "event"
        },
        {
            "anonymous": false,
            "inputs": [
                {
                    "indexed": false,
                    "name": "platform",
                    "type": "address"
                },
                {
                    "indexed": false,
                    "name": "security",
                    "type": "address"
                },
                {
                    "indexed": false,
                    "name": "isin",
                    "type": "bytes32"
                },
                {
                    "indexed": false,
                    "name": "issueSize",
                    "type": "uint256"
                },
                {
                    "indexed": false,
                    "name": "currency",
                    "type": "address"
                },
                {
                    "indexed": false,
                    "name": "offerPrice",
                    "type": "uint256"
                },
                {
                    "indexed": false,
                    "name": "minAskPrice",
                    "type": "uint256"
                },
                {
                    "indexed": false,
                    "name": "minSubscription",
                    "type": "uint256"
                },
                {
                    "indexed": false,
                    "name": "issuer",
                    "type": "address"
                }
            ],
            "name": "offer",
            "type": "event"
        },
        {
            "anonymous": false,
            "inputs": [
                {
                    "indexed": false,
                    "name": "platform",
                    "type": "address"
                },
                {
                    "indexed": false,
                    "name": "security",
                    "type": "address"
                },
                {
                    "indexed": false,
                    "name": "cutOffTime",
                    "type": "uint256"
                },
                {
                    "indexed": false,
                    "name": "issuer",
                    "type": "address"
                }
            ],
            "name": "start",
            "type": "event"
        },
        {
            "anonymous": false,
            "inputs": [
                {
                    "indexed": false,
                    "name": "platform",
                    "type": "address"
                },
                {
                    "indexed": false,
                    "name": "security",
                    "type": "address"
                },
                {
                    "indexed": false,
                    "name": "issuer",
                    "type": "address"
                }
            ],
            "name": "close",
            "type": "event"
        },
        {
            "anonymous": false,
            "inputs": [
                {
                    "indexed": false,
                    "name": "platform",
                    "type": "address"
                },
                {
                    "indexed": false,
                    "name": "pool",
                    "type": "bytes32"
                },
                {
                    "indexed": false,
                    "name": "issuer",
                    "type": "address"
                }
            ],
            "name": "subscriptions",
            "type": "event"
        },
        {
            "anonymous": false,
            "inputs": [
                {
                    "indexed": false,
                    "name": "platform",
                    "type": "address"
                },
                {
                    "indexed": false,
                    "name": "pool",
                    "type": "bytes32"
                },
                {
                    "indexed": false,
                    "name": "investor",
                    "type": "address"
                },
                {
                    "indexed": false,
                    "name": "amount",
                    "type": "uint256"
                },
                {
                    "indexed": false,
                    "name": "asset",
                    "type": "address"
                },
                {
                    "indexed": false,
                    "name": "issuer",
                    "type": "address"
                }
            ],
            "name": "accept",
            "type": "event"
        },
        {
            "anonymous": false,
            "inputs": [
                {
                    "indexed": false,
                    "name": "platform",
                    "type": "address"
                },
                {
                    "indexed": false,
                    "name": "pool",
                    "type": "bytes32"
                },
                {
                    "indexed": false,
                    "name": "issuer",
                    "type": "address"
                }
            ],
            "name": "settle",
            "type": "event"
        },
        {
            "anonymous": false,
            "inputs": [
                {
                    "indexed": false,
                    "name": "platform",
                    "type": "address"
                },
                {
                    "indexed": false,
                    "name": "pool",
                    "type": "bytes32"
                },
                {
                    "indexed": false,
                    "name": "investor",
                    "type": "address"
                },
                {
                    "indexed": false,
                    "name": "issuer",
                    "type": "address"
                }
            ],
            "name": "reject",
            "type": "event"
        },
        {
            "anonymous": false,
            "inputs": [
                {
                    "indexed": false,
                    "name": "platform",
                    "type": "address"
                },
                {
                    "indexed": false,
                    "name": "security",
                    "type": "address"
                },
                {
                    "indexed": false,
                    "name": "issuer",
                    "type": "address"
                }
            ],
            "name": "getLP",
            "type": "event"
        },
        {
            "constant": false,
            "inputs": [
                {
                    "name": "_issueSize",
                    "type": "uint256"
                },
                {
                    "name": "_offerPrice",
                    "type": "uint256"
                },
                {
                    "name": "_minAskPrice",
                    "type": "uint256"
                },
                {
                    "name": "_minSubscription",
                    "type": "uint256"
                },
                {
                    "name": "_currency",
                    "type": "bytes32"
                },
                {
                    "name": "_offerType",
                    "type": "bytes32"
                },
                {
                    "name": "_isin",
                    "type": "bytes32"
                },
                {
                    "name": "_offeringDocuments",
                    "type": "string"
                }
            ],
            "name": "issueShare",
            "outputs": [],
            "payable": false,
            "stateMutability": "nonpayable",
            "type": "function"
        },
        {
            "constant": true,
            "inputs": [],
            "name": "getShare",
            "outputs": [
                {
                    "components": [
                        {
                            "name": "issueSize",
                            "type": "uint256"
                        },
                        {
                            "name": "faceValue",
                            "type": "uint256"
                        },
                        {
                            "name": "offerPrice",
                            "type": "uint256"
                        },
                        {
                            "name": "minAskPrice",
                            "type": "uint256"
                        },
                        {
                            "name": "minSubscription",
                            "type": "uint256"
                        },
                        {
                            "name": "currency",
                            "type": "bytes32"
                        },
                        {
                            "name": "security",
                            "type": "address"
                        }
                    ],
                    "name": "",
                    "type": "tuple[]"
                },
                {
                    "components": [
                        {
                            "name": "offerType",
                            "type": "bytes32"
                        },
                        {
                            "name": "isin",
                            "type": "bytes32"
                        },
                        {
                            "name": "status",
                            "type": "bytes32"
                        },
                        {
                            "name": "offeringDocuments",
                            "type": "string"
                        }
                    ],
                    "name": "",
                    "type": "tuple"
                }
            ],
            "payable": false,
            "stateMutability": "view",
            "type": "function"
        },
        {
            "constant": false,
            "inputs": [],
            "name": "askOffers",
            "outputs": [],
            "payable": false,
            "stateMutability": "nonpayable",
            "type": "function"
        },
        {
            "constant": false,
            "inputs": [
                {
                    "name": "cutOffTime",
                    "type": "uint256"
                }
            ],
            "name": "startIssue",
            "outputs": [],
            "payable": false,
            "stateMutability": "nonpayable",
            "type": "function"
        },
        {
            "constant": false,
            "inputs": [],
            "name": "getSubscribers",
            "outputs": [
                {
                    "components": [
                        {
                            "name": "currency",
                            "type": "bytes32"
                        },
                        {
                            "name": "amount",
                            "type": "uint256"
                        },
                        {
                            "name": "price",
                            "type": "uint256"
                        },
                        {
                            "name": "poolid",
                            "type": "bytes32"
                        },
                        {
                            "name": "status",
                            "type": "bool"
                        },
                        {
                            "name": "platform",
                            "type": "address"
                        },
                        {
                            "name": "investor",
                            "type": "address"
                        },
                        {
                            "name": "asset",
                            "type": "address"
                        }
                    ],
                    "name": "",
                    "type": "tuple[]"
                }
            ],
            "payable": false,
            "stateMutability": "nonpayable",
            "type": "function"
        },
        {
            "constant": false,
            "inputs": [
                {
                    "name": "_allotment",
                    "type": "bytes32"
                },
                {
                    "name": "_platform",
                    "type": "address"
                },
                {
                    "name": "_pool",
                    "type": "bytes32"
                },
                {
                    "name": "_investor",
                    "type": "address"
                },
                {
                    "name": "_amount",
                    "type": "uint256"
                },
                {
                    "name": "_asset",
                    "type": "address"
                }
            ],
            "name": "allotIssue",
            "outputs": [],
            "payable": false,
            "stateMutability": "nonpayable",
            "type": "function"
        }
    ],
    "bytecode": "0x608060405234801561001057600080fd5b50613bde806100206000396000f3fe608060405234801561001057600080fd5b50600436106101165760003560e01c8063893d20e8116100a2578063dc44202911610071578063dc44202914610228578063f010e2c21461023f578063f5adf2ff14610252578063f76ebabb14610265578063fdf4bf5d1461028557610116565b8063893d20e8146101e5578063913b722c146101fa578063b648ba6e14610202578063d3340fb61461021557610116565b80633824240c116100e95780633824240c146101815780633cb4bd6314610194578063752987341461019c57806384155600146101b257806388c4b6ee146101c557610116565b806305cc61ad1461011b57806307c5ae70146101395780631bafe1b91461014e57806323b83a5e14610161575b600080fd5b610123610298565b60405161013091906139cf565b60405180910390f35b61014c6101473660046130ee565b610a7f565b005b61014c61015c366004612f85565b610d92565b61017461016f3660046130d0565b6110e6565b6040516101309190613999565b61014c61018f366004612d9a565b611264565b61014c61139d565b6101a461196a565b6040516101309291906139aa565b61014c6101c0366004612e92565b611d13565b6101d86101d3366004612cd8565b611ebe565b60405161013091906139e0565b6101ed611f9b565b6040516101309190613706565b610174611fab565b61014c61021036600461300c565b612040565b61014c610223366004612cd8565b61223b565b6102306122a4565b60405161013093929190613a10565b61014c61024d3660046130d0565b612309565b61014c610260366004612d1c565b61250e565b610278610273366004612cd8565b612560565b60405161013091906139f1565b61014c610293366004612e2a565b612630565b60375460609033906001600160a01b031681146102b457600080fd5b60005b6040548110156109b65760005b6041548110156109ad576000604b6000604184815481106102e157fe5b60009182526020808320909101546001600160a01b0316835282019290925260400190205411801561034b57506000604b60006041848154811061032157fe5b60009182526020808320909101546001600160a01b03168352820192909252604001902060020154115b156109a5576000604b60006041848154811061036357fe5b60009182526020808320909101546001600160a01b03908116845290830193909352604091820181206006015482549316935060609260489290879081106103a757fe5b60009182526020808320909101546001600160a01b039081168452838201949094526040928301822093861682529283528190208054825181850281018501909352808352919290919083018282801561042057602002820191906000526020600020905b81548152602001906001019080831161040c575b505050505090506000604960006040878154811061043a57fe5b60009182526020808320909101546001600160a01b039081168452838201949094526040928301822093871682529290925290205460ff16905080156104c357600160d21b6510db1bdcd95902604e556040517f740ceeecb0c18ce3fa5eea6dd340f21c17bc1af2554ba4931954bfa38bacd18b906104ba908590613916565b60405180910390a15b60005b82518110156109a0577f9722fc67361d52da42c0f7876e69e09ab138fb52d29943d4e974db9621bcc42f604087815481106104fd57fe5b9060005260206000200160009054906101000a90046001600160a01b031684838151811061052757fe5b60200260200101513060405161053f93929190613879565b60405180910390a16060604a60006040898154811061055a57fe5b60009182526020808320909101546001600160a01b031683528201929092526040018120855190919086908590811061058f57fe5b60200260200101518152602001908152602001600020805480602002602001604051908101604052809291908181526020016000905b828210156106315760008481526020908190206040805160a0810182526005860290920180546001600160a01b039081168452600180830154909116848601526002820154928401929092526003810154606084015260040154608083015290835290920191016105c5565b509293506000925050505b815181101561099657603354600090815260456020526040908190205481549091908a90811061066857fe5b600091825260208083209091015460335483526045909152604090912080546001600160a01b03909216918390811061069d57fe5b906000526020600020906007020160040160016101000a8154816001600160a01b0302191690836001600160a01b031602179055508584815181106106de57fe5b6020026020010151604560006033548152602001908152602001600020828154811061070657fe5b90600052602060002090600702016003018190555082828151811061072757fe5b602002602001015160600151604560006033548152602001908152602001600020828154811061075357fe5b90600052602060002090600702016001018190555082828151811061077457fe5b60200260200101516080015160456000603354815260200190815260200160002082815481106107a057fe5b9060005260206000209060070201600201819055508282815181106107c157fe5b60200260200101516040015160456000603354815260200190815260200160002082815481106107ed57fe5b90600052602060002090600702016000018190555082828151811061080e57fe5b602002602001015160000151604560006033548152602001908152602001600020828154811061083a57fe5b906000526020600020906007020160050160006101000a8154816001600160a01b0302191690836001600160a01b0316021790555082828151811061087b57fe5b60200260200101516020015160456000603354815260200190815260200160002082815481106108a757fe5b6000918252602082206007919091020160060180546001600160a01b0319166001600160a01b039390931692909217909155805b60435481101561093b578484815181106108f157fe5b6020026020010151600001516001600160a01b03166043828154811061091357fe5b6000918252602090912001546001600160a01b0316141561093357600191505b6001016108db565b508061098c57604384848151811061094f57fe5b6020908102919091018101515182546001810184556000938452919092200180546001600160a01b0319166001600160a01b039092169190911790555b505060010161063c565b50506001016104c6565b505050505b6001016102c4565b506001016102b7565b50603354600090815260456020908152604080832080548251818502810185019093528083529193909284015b82821015610a7457600084815260209081902060408051610100808201835260078702909301805482526001808201548387015260028201549383019390935260038101546060830152600481015460ff8116151560808401526001600160a01b03949004841660a08301526005810154841660c08301526006015490921660e083015290835290920191016109e3565b5050505091505b5090565b60375433906001600160a01b03168114610a9857600080fd5b603454600160d01b655368617265730214610ab257600080fd5b603a54603354604051600160e21b633d3f3fe902815230926001600160a01b03169163f4fcffa491610ae79190600401613a02565b60206040518083038186803b158015610aff57600080fd5b505afa158015610b13573d6000803e3d6000fd5b505050506040513d601f19601f82011682018060405250610b379190810190612cfe565b6001600160a01b031614610b4a57600080fd5b603d54604051600160e21b633cd163c50281526000916001600160a01b03169063f3458f1490610b7e908a90600401613a2b565b60206040518083038186803b158015610b9657600080fd5b505afa158015610baa573d6000803e3d6000fd5b505050506040513d601f19601f82011682018060405250610bce9190810190612cfe565b603d54604051600160e01b63f429f19b0281529192506001600160a01b03169063f429f19b90610c02908490600401613706565b60206040518083038186803b158015610c1a57600080fd5b505afa158015610c2e573d6000803e3d6000fd5b505050506040513d601f19601f82011682018060405250610c529190810190612f67565b600160cb1b660acd2c286c2e6d0214610c6a57600080fd5b6001600160a01b038116600090815260426020526040902054610ce257604180546001810182557f7c9785e8241615bc80415d89775984a1337d15dc1bf4ce50f41988b2a2b336a70180546001600160a01b0319166001600160a01b0384169081179091559054600091825260426020526040909120555b6001600160a01b0381166000908152604b602052604090208b8155600281018b9055600381018a905560048101899055600501879055604c869055604d859055610d2e604f858561287b565b50600160d21b65125cdcdd595902604e556040517f9db73b9e34b67b0482a252ae5e5448652d5745ede72cfa129660d76c3722598390610d7d908d908d908d908d908d9030908e908e90613a55565b60405180910390a15050505050505050505050565b60375433906001600160a01b03168114610dab57600080fd5b42603f55600160d21b651858d8d95c1d028714156110415760005b60335460009081526045602052604090205481101561100057856045600060335481526020019081526020016000208281548110610e0057fe5b906000526020600020906007020160030154148015610e635750846001600160a01b03166045600060335481526020019081526020016000208281548110610e4457fe5b60009182526020909120600560079092020101546001600160a01b0316145b8015610ea05750836045600060335481526020019081526020016000208281548110610e8b57fe5b90600052602060002090600702016001015410155b8015610ef05750826001600160a01b03166045600060335481526020019081526020016000208281548110610ed157fe5b60009182526020909120600660079092020101546001600160a01b0316145b15610ff8577f0f8f344b7d42ec42f5f30afff6d1aa26ae6f511fd8fef4a18187b4b73f87cc9d878787878730604051610f2e969594939291906138bc565b60405180910390a16033546000908152604560205260409020805482908110610f5357fe5b506000908152805b604454811015610fa457866001600160a01b031660448281548110610f7c57fe5b6000918252602090912001546001600160a01b03161415610f9c57600191505b600101610f5b565b5080610ff657604480546001810182556000919091527f9b22d3d61959b4d3528b1d8ba932c96fbe302b36a1aad1d95cab54f9e0a135ea0180546001600160a01b0319166001600160a01b0388161790555b505b600101610dc6565b507f55cf15e1fee806bf583ba648f6d07f433ba88a4125a3a4fabb2283c88e12740286863060405161103493929190613879565b60405180910390a1611093565b86600160d21b651c995a9958dd021415611093577f7f9488e51e1666cb4b80eb89a66e6f7baba0e494bbcede98ccd0a2a6f6ea66268686863060405161108a9493929190613894565b60405180910390a15b600160c21b67105b1b1bdd1d195902604e556040517f03b095f68fee05efe5e24b3561adcaff741870d703b9bce62535d572cc084a30906110d590309061394a565b60405180910390a150505050505050565b60375460609033906001600160a01b031681148061111157506036546001600160a01b038281169116145b61111a57600080fd5b6044546040805182815260208084028201019091526060918015611148578160200160208202803883390190505b5090506000805b60445481101561125a5760006001604660006044858154811061116e57fe5b60009182526020808320909101546001600160a01b0316835282019290925260400181205460448054939091039350604692859081106111aa57fe5b60009182526020808320909101546001600160a01b0316835282019290925260400190208054829081106111da57fe5b906000526020600020906004020160020154871115611251576044828154811061120057fe5b9060005260206000200160009054906101000a90046001600160a01b031684848151811061122a57fe5b60200260200101906001600160a01b031690816001600160a01b0316815250508260010192505b5060010161114f565b5090949350505050565b60005b81811015611397576112776128f5565b6040518060a0016040528085858581811061128e57fe5b905060a00201600001356001600160a01b03166001600160a01b031681526020018585858181106112bb57fe5b905060a002016020013581526020018585858181106112d657fe5b905060a002016040013581526020018585858181106112f157fe5b905060a0020160600135815260200185858581811061130c57fe5b60a00291909101608090810135909252506001600160a01b03878116600090815260476020908152604080832080546001808201835591855293839020875160059095020180546001600160a01b0319169490951693909317845590850151838301558401516002830155606084015160038301559290910151600490910155919091019050611267565b50505050565b60375433906001600160a01b031681146113b657600080fd5b60008080808080805b60415481101561196057604c600101549650604b6000604183815481106113e257fe5b60009182526020808320909101546001600160a01b0316835282019290925260400181206005015460418054919850604b92918490811061141f57fe5b60009182526020808320909101546001600160a01b0316835282019290925260400181205460418054919750604b92918490811061145957fe5b60009182526020808320909101546001600160a01b0316835282019290925260400181206002015460418054919650604b92918490811061149657fe5b60009182526020808320909101546001600160a01b0316835282019290925260400181206003015460418054919550604b9291849081106114d357fe5b60009182526020808320909101546001600160a01b031683528201929092526040019020600401549150841580159061150c5750600084115b1561195857603c54603a54603354604051600160e11b63522127410281526001600160a01b0393841693632df8d8fd93169163a4424e82916115519190600401613a02565b60206040518083038186803b15801561156957600080fd5b505afa15801561157d573d6000803e3d6000fd5b505050506040513d601f19601f820116820180604052506115a19190810190612cfe565b603b54603a54603354604051600160e01b63572d82990281526001600160a01b03938416938d93169163572d8299916115dd9190600401613a02565b60206040518083038186803b1580156115f557600080fd5b505afa158015611609573d6000803e3d6000fd5b505050506040513d601f19601f8201168201806040525061162d9190810190612f67565b8c6040518663ffffffff1660e01b815260040161164e959493929190613764565b600060405180830381600087803b15801561166857600080fd5b505af115801561167c573d6000803e3d6000fd5b5050603c54603a54603354604051600160e01b63572d82990281526001600160a01b039384169550639c3acea094508b939092169163572d8299916116c391600401613a02565b60206040518083038186803b1580156116db57600080fd5b505afa1580156116ef573d6000803e3d6000fd5b505050506040513d601f19601f820116820180604052506117139190810190612f67565b8a6040518463ffffffff1660e01b815260040161173293929190613a10565b60206040518083038186803b15801561174a57600080fd5b505afa15801561175e573d6000803e3d6000fd5b505050506040513d601f19601f820116820180604052506117829190810190612cfe565b603880546001600160a01b0319166001600160a01b039283161790819055604051600160e01b6340c10f190281529116906340c10f19906117c9903090899060040161397e565b600060405180830381600087803b1580156117e357600080fd5b505af11580156117f7573d6000803e3d6000fd5b5050603854604180546001600160a01b039092169350604b92506000918590811061181e57fe5b6000918252602080832091909101546001600160a01b039081168452908301939093526040918201902060060180546001600160a01b03191693831693909317909255600160ca1b6613d999995c995902604e5560385491517ff4503fa8a89133c55d060f625dd7c591b559496759626476dd2233e41ea9ad32926118a4921690613930565b60405180910390a160005b604054811015611956577f2cdff49e5121f5e17f9517915fa31e1f24f42e3fcbe940daa66f39108de4bdaf604082815481106118e757fe5b600091825260209091200154603854604180546001600160a01b0393841693909216918c918b918890811061191857fe5b60009182526020909120015460405161194695949392916001600160a01b0316908c908c908c9030906137be565b60405180910390a16001016118af565b505b6001016113bf565b5050505050505050565b6060611974612930565b60415460408051828152602080840282010190915260609180156119b257816020015b61199f612956565b8152602001906001900390816119975790505b5090506119bd612956565b60005b604154811015611c4c576040518060e00160405280604b6000604185815481106119e657fe5b9060005260206000200160009054906101000a90046001600160a01b03166001600160a01b03166001600160a01b03168152602001908152602001600020600001548152602001604b600060418581548110611a3e57fe5b9060005260206000200160009054906101000a90046001600160a01b03166001600160a01b03166001600160a01b03168152602001908152602001600020600101548152602001604b600060418581548110611a9657fe5b9060005260206000200160009054906101000a90046001600160a01b03166001600160a01b03166001600160a01b03168152602001908152602001600020600201548152602001604b600060418581548110611aee57fe5b9060005260206000200160009054906101000a90046001600160a01b03166001600160a01b03166001600160a01b03168152602001908152602001600020600301548152602001604b600060418581548110611b4657fe5b9060005260206000200160009054906101000a90046001600160a01b03166001600160a01b03166001600160a01b03168152602001908152602001600020600401548152602001604b600060418581548110611b9e57fe5b9060005260206000200160009054906101000a90046001600160a01b03166001600160a01b03166001600160a01b03168152602001908152602001600020600501548152602001604b600060418581548110611bf657fe5b60009182526020808320909101546001600160a01b03908116845290830193909352604090910190206006015416905283519092508290849083908110611c3957fe5b60209081029190910101526001016119c0565b5060408051608081018252604c80548252604d54602080840191909152604e5483850152604f8054855160026001831615610100026000190190921691909104601f81018490048402820184019096528581528795939493859360608601939190830182828015611cfe5780601f10611cd357610100808354040283529160200191611cfe565b820191906000526020600020905b815481529060010190602001808311611ce157829003601f168201915b50505050508152505090509350935050509091565b60375433906001600160a01b0316811480611d3b57506036546001600160a01b038281169116145b611d4457600080fd5b603d54604051600160e21b632e5ac80102815260009182916001600160a01b039091169063b96b200490611d7c908890600401613a02565b604080518083038186803b158015611d9357600080fd5b505afa158015611da7573d6000803e3d6000fd5b505050506040513d601f19601f82011682018060405250611dcb9190810190612df0565b9150915080600160cb1b660acd2c286c2e6d021415611eb657604051600160e01b6323b872dd0281526001600160a01b038316906323b872dd90611e179033908a908990600401613714565b602060405180830381600087803b158015611e3157600080fd5b505af1158015611e45573d6000803e3d6000fd5b505050506040513d601f19601f82011682018060405250611e699190810190612f49565b15611eb657611e7661299f565b5060408051608081018252868152602080820187905242828401523360608301526001600160a01b03891660009081526046909152919091208054829190fe5b505050505050565b6038546040516060917fc203fec4e82c5cb8ac9144da60520b86a76f49ebac45ffaabc45def236be0cb991611f029185916001600160a01b0390911690309061373c565b60405180910390a1603854604051600160e11b6344625b770281526001600160a01b03848116926388c4b6ee92611f3f9290911690600401613706565b600060405180830381600087803b158015611f5957600080fd5b505af1158015611f6d573d6000803e3d6000fd5b505050506040513d6000823e601f3d908101601f19168201604052611f959190810190612f14565b92915050565b6035546001600160a01b03165b90565b60375460609033906001600160a01b0316811480611fd657506036546001600160a01b038281169116145b611fdf57600080fd5b604480548060200260200160405190810160405280929190818152602001828054801561203557602002820191906000526020600020905b81546001600160a01b03168152600190910190602001808311612017575b505050505091505090565b600054610100900460ff1680612059575061205961278b565b80612067575060005460ff16155b61208f57604051600160e51b62461bcd02815260040161208690613a45565b60405180910390fd5b600054610100900460ff161580156120ba576000805460ff1961ff0019909116610100171660011790555b603580546001600160a01b03199081166001600160a01b038981169190911790925560338c905560348b90556036805482168b84161790556037805482168a8416179055603a8054339083161790819055603b80548316898516179055603c80548316888516179055603d80548316878516179055603e80549092168584161790915560408051600160e11b630fdf2a9702815290516060939290921691631fbe552e91600480820192600092909190829003018186803b15801561217e57600080fd5b505afa158015612192573d6000803e3d6000fd5b505050506040513d6000823e601f3d908101601f191682016040526121ba9190810190612edf565b905060005b815181101561221b5760408282815181106121d657fe5b60209081029190910181015182546001808201855560009485529290932090920180546001600160a01b0319166001600160a01b0390931692909217909155016121bf565b5050801561222f576000805461ff00191690555b50505050505050505050565b603a546001600160a01b0316331461225257600080fd5b604080546001810182556000919091527f352feee0eea125f11f791c1b77524172e9bc20f1b719b6cef0fc24f64db8e15e0180546001600160a01b0319166001600160a01b0392909216919091179055565b6037546000908190819033906001600160a01b03168114806122d357506036546001600160a01b038281169116145b6122dc57600080fd5b6122e7603f54612791565b6122f2603f546127ae565b6122fd603f546127c9565b93509350935050909192565b60375433906001600160a01b0316811461232257600080fd5b600080805b6040548110156125075760005b6041548110156124fe576000604b60006041848154811061235157fe5b60009182526020808320909101546001600160a01b031683528201929092526040019020541180156123bb57506000604b60006041848154811061239157fe5b60009182526020808320909101546001600160a01b03168352820192909252604001902060020154115b156124f6577f9fcde577dcaf28917e44ca3badd85e622253b099d64d02fdb539ae2e281fc755604083815481106123ee57fe5b9060005260206000200160009054906101000a90046001600160a01b0316604b60006041858154811061241d57fe5b60009182526020808320909101546001600160a01b039081168452908301939093526040918201902060060154905161245f939291909116908a903090613844565b60405180910390a1600160ca1b6614dd185c9d195902604c600201819055507f9a17155a17018d770a1d614ea564978a64992afbd4577a46f3797f7102c260e8604b6000604184815481106124b057fe5b60009182526020808320909101546001600160a01b03908116845290830193909352604091820190206006015490516124ed929190911690613964565b60405180910390a15b600101612334565b50600101612327565b5050505050565b6001600160a01b038581166000818152604960209081526040808320948916808452948252808320805460ff191687151517905592825260488152828220938252929092529020611eb69084846129c6565b60375460609033906001600160a01b031681148061258b57506036546001600160a01b038281169116145b61259457600080fd5b6001600160a01b038316600090815260466020908152604080832080548251818502810185019093528083529193909284015b8282101561262457600084815260209081902060408051608081018252600486029092018054835260018082015484860152600282015492840192909252600301546001600160a01b0316606083015290835290920191016125c7565b50505050915050919050565b60005b8181101561250757612643612a00565b6040518060a0016040528085858581811061265a57fe5b905060a00201600001356001600160a01b03166001600160a01b0316815260200185858581811061268757fe5b905060a00201602001356001600160a01b03166001600160a01b031681526020018585858181106126b457fe5b905060a002016040013581526020018585858181106126cf57fe5b905060a002016060013581526020018585858181106126ea57fe5b608060a0909102929092018201359092526001600160a01b03808a166000908152604a602090815260408083208c8452825280832080546001818101835591855293839020885160059095020180549486166001600160a01b03199586161781559288015183820180549190961694169390931790935591850151600283015560608501516003830155939091015160049091015550919091019050612633565b303b1590565b600080806127a462015180855b046127e5565b9695505050505050565b600080806127bf620151808561279e565b5095945050505050565b600080806127da620151808561279e565b509095945050505050565b60008080836226496581018262023ab1600483020590506004600362023ab18302010590910390600062164b09610fa0600185010205905060046105b58202058303601f019250600061098f846050028161283c57fe5b0590506000605061098f83020585039050600b820560301994909401606402929092018301996002600c90940290910392909201975095509350505050565b828054600181600116156101000203166002900490600052602060002090601f016020900481019282601f106128bc5782800160ff198235161785556128e9565b828001600101855582156128e9579182015b828111156128e95782358255916020019190600101906128ce565b50610a7b929150612a2e565b6040518060a0016040528060006001600160a01b03168152602001600081526020016000815260200160008152602001600080191681525090565b604080516080810182526000808252602082018190529181019190915260608082015290565b6040518060e0016040528060008152602001600081526020016000815260200160008152602001600081526020016000801916815260200160006001600160a01b031681525090565b60408051608081018252600080825260208201819052918101829052606081019190915290565b8280548282559060005260206000209081019282156128e957916020028201828111156128e95782358255916020019190600101906128ce565b6040805160a08101825260008082526020820181905291810182905260608101829052608081019190915290565b611fa891905b80821115610a7b5760008155600101612a34565b6000612a548235613b41565b9392505050565b6000612a548251613b41565b600082601f830112612a7857600080fd5b8151612a8b612a8682613b0d565b613ae6565b91508181835260208401935060208101905083856020840282011115612ab057600080fd5b60005b83811015612adc5781612ac68882612a5b565b8452506020928301929190910190600101612ab3565b5050505092915050565b60008083601f840112612af857600080fd5b50813567ffffffffffffffff811115612b1057600080fd5b602083019150836020820283011115612b2857600080fd5b9250929050565b600082601f830112612b4057600080fd5b8151612b4e612a8682613b0d565b915081818352602084019350602081019050838560a0840282011115612b7357600080fd5b60005b83811015612adc5781612b898882612c55565b84525060209092019160a09190910190600101612b76565b60008083601f840112612bb357600080fd5b50813567ffffffffffffffff811115612bcb57600080fd5b6020830191508360a0820283011115612b2857600080fd5b6000612a548235613b4c565b6000612a548251613b4c565b6000612a548235611fa8565b6000612a548251611fa8565b60008083601f840112612c2557600080fd5b50813567ffffffffffffffff811115612c3d57600080fd5b602083019150836001820283011115612b2857600080fd5b600060a08284031215612c6757600080fd5b612c7160a0613ae6565b90506000612c7f8484612a5b565b8252506020612c9084848301612a5b565b6020830152506040612ca484828501612c07565b6040830152506060612cb884828501612c07565b6060830152506080612ccc84828501612c07565b60808301525092915050565b600060208284031215612cea57600080fd5b6000612cf68484612a48565b949350505050565b600060208284031215612d1057600080fd5b6000612cf68484612a5b565b600080600080600060808688031215612d3457600080fd5b6000612d408888612a48565b9550506020612d5188828901612a48565b945050604086013567ffffffffffffffff811115612d6e57600080fd5b612d7a88828901612ae6565b93509350506060612d8d88828901612be3565b9150509295509295909350565b600080600060408486031215612daf57600080fd5b6000612dbb8686612a48565b935050602084013567ffffffffffffffff811115612dd857600080fd5b612de486828701612ba1565b92509250509250925092565b60008060408385031215612e0357600080fd5b6000612e0f8585612a5b565b9250506020612e2085828601612c07565b9150509250929050565b60008060008060608587031215612e4057600080fd5b6000612e4c8787612a48565b9450506020612e5d87828801612bfb565b935050604085013567ffffffffffffffff811115612e7a57600080fd5b612e8687828801612ba1565b95989497509550505050565b600080600060608486031215612ea757600080fd5b6000612eb38686612a48565b9350506020612ec486828701612bfb565b9250506040612ed586828701612bfb565b9150509250925092565b600060208284031215612ef157600080fd5b815167ffffffffffffffff811115612f0857600080fd5b612cf684828501612a67565b600060208284031215612f2657600080fd5b815167ffffffffffffffff811115612f3d57600080fd5b612cf684828501612b2f565b600060208284031215612f5b57600080fd5b6000612cf68484612bef565b600060208284031215612f7957600080fd5b6000612cf68484612c07565b60008060008060008060c08789031215612f9e57600080fd5b6000612faa8989612bfb565b9650506020612fbb89828a01612a48565b9550506040612fcc89828a01612bfb565b9450506060612fdd89828a01612a48565b9350506080612fee89828a01612bfb565b92505060a0612fff89828a01612a48565b9150509295509295509295565b60008060008060008060008060006101208a8c03121561302b57600080fd5b60006130378c8c612bfb565b99505060206130488c828d01612bfb565b98505060406130598c828d01612a48565b975050606061306a8c828d01612a48565b965050608061307b8c828d01612a48565b95505060a061308c8c828d01612a48565b94505060c061309d8c828d01612a48565b93505060e06130ae8c828d01612a48565b9250506101006130c08c828d01612a48565b9150509295985092959850929598565b6000602082840312156130e257600080fd5b6000612cf68484612bfb565b60008060008060008060008060006101008a8c03121561310d57600080fd5b60006131198c8c612bfb565b995050602061312a8c828d01612bfb565b985050604061313b8c828d01612bfb565b975050606061314c8c828d01612bfb565b965050608061315d8c828d01612bfb565b95505060a061316e8c828d01612bfb565b94505060c061317f8c828d01612bfb565b93505060e08a013567ffffffffffffffff81111561319c57600080fd5b6131a88c828d01612c13565b92509250509295985092959850929598565b60006131c6838361322e565b505060200190565b60006131da8383613545565b505060e00190565b60006131ee83836135c8565b50506101000190565b6000613203838361365f565b505060a00190565b600061321783836136bc565b505060800190565b61322881613b5d565b82525050565b61322881613b41565b600061324282613b34565b61324c8185613b38565b935061325783613b2e565b60005b828110156132825761326d8683516131ba565b955061327882613b2e565b915060010161325a565b5093949350505050565b600061329782613b34565b6132a18185613b38565b93506132ac83613b2e565b60005b82811015613282576132c28683516131ce565b95506132cd82613b2e565b91506001016132af565b60006132e282613b34565b6132ec8185613b38565b93506132f783613b2e565b60005b828110156132825761330d8683516131e2565b955061331882613b2e565b91506001016132fa565b600061332d82613b34565b6133378185613b38565b935061334283613b2e565b60005b82811015613282576133588683516131f7565b955061336382613b2e565b9150600101613345565b600061337882613b34565b6133828185613b38565b935061338d83613b2e565b60005b82811015613282576133a386835161320b565b95506133ae82613b2e565b9150600101613390565b61322881613b4c565b61322881611fa8565b60006133d582613b34565b6133df8185613b38565b93506133ef818560208601613b6e565b6133f881613b9a565b9093019392505050565b600160d21b65125cdcdd5959029052565b600160d21b6510db1bdcd959029052565b600160f41b610445029052565b600160cb1b660acd2c286c2e6d029052565b600160ca1b6613d999995c9959029052565b6000613462602e83613b38565b7f436f6e747261637420696e7374616e63652068617320616c726561647920626581527f656e20696e697469616c697a6564000000000000000000000000000000000000602082015260400192915050565b600160d01b65536861726573029052565b600160c21b67105b1b1bdd1d1959029052565b600160ca1b6614dd185c9d1959029052565b805160009060808401906134fe85826133c1565b50602083015161351160208601826133c1565b50604083015161352460408601826133c1565b506060830151848203606086015261353c82826133ca565b95945050505050565b805160e083019061355684826133c1565b50602082015161356960208501826133c1565b50604082015161357c60408501826133c1565b50606082015161358f60608501826133c1565b5060808201516135a260808501826133c1565b5060a08201516135b560a08501826133c1565b5060c082015161139760c085018261322e565b80516101008301906135da84826133c1565b5060208201516135ed60208501826133c1565b50604082015161360060408501826133c1565b50606082015161361360608501826133c1565b50608082015161362660808501826133b8565b5060a082015161363960a085018261322e565b5060c082015161364c60c085018261322e565b5060e082015161139760e085018261322e565b805160a0830190613670848261322e565b506020820151613683602085018261322e565b50604082015161369660408501826133c1565b5060608201516136a960608501826133c1565b50608082015161139760808501826133c1565b805160808301906136cd84826133c1565b5060208201516136e060208501826133c1565b5060408201516136f360408501826133c1565b506060820151611397606085018261322e565b60208101611f95828461322e565b60608101613722828661321f565b61372f602083018561322e565b612cf660408301846133c1565b6060810161374a828661322e565b613757602083018561322e565b612cf6604083018461322e565b60e08101613772828861322e565b61377f602083018761322e565b61378c60408301866133c1565b61379960608301856133c1565b6137a660808301846133c1565b6137b260a08301613424565b6127a460c083016134b4565b61012081016137cd828c61322e565b6137da602083018b61322e565b6137e7604083018a6133c1565b6137f460608301896133c1565b613801608083018861322e565b61380e60a08301876133c1565b61381b60c08301866133c1565b61382860e08301856133c1565b61383661010083018461322e565b9a9950505050505050505050565b60808101613852828761322e565b61385f602083018661322e565b61386c60408301856133c1565b61353c606083018461322e565b60608101613887828661322e565b61375760208301856133c1565b608081016138a2828761322e565b6138af60208301866133c1565b61386c604083018561322e565b60c081016138ca828961322e565b6138d760208301886133c1565b6138e4604083018761322e565b6138f160608301866133c1565b6138fe608083018561322e565b61390b60a083018461322e565b979650505050505050565b60408101613924828461322e565b611f9560208301613413565b6040810161393e828461322e565b611f9560208301613443565b60408101613958828461322e565b611f95602083016134c5565b60408101613972828461322e565b611f95602083016134d8565b6040810161398c828561322e565b612a5460208301846133c1565b60208082528101612a548184613237565b604080825281016139bb818561328c565b90508181036020830152612cf681846134ea565b60208082528101612a5481846132d7565b60208082528101612a548184613322565b60208082528101612a54818461336d565b60208101611f9582846133c1565b60608101613a1e82866133c1565b61372f60208301856133c1565b60408101613a3982846133c1565b611f9560208301613431565b60208082528101611f9581613455565b6101408101613a64828b6133c1565b613a71602083018a6133c1565b613a7e60408301896133c1565b613a8b60608301886133c1565b613a9860808301876133c1565b613aa560a083018661322e565b613ab260c08301856133c1565b613abf60e08301846133c1565b613acc6101008301613402565b613ad961012083016134b4565b9998505050505050505050565b60405181810167ffffffffffffffff81118282101715613b0557600080fd5b604052919050565b600067ffffffffffffffff821115613b2457600080fd5b5060209081020190565b60200190565b5190565b90815260200190565b6000611f9582613b51565b151590565b6001600160a01b031690565b6000611f95826000611f9582613b41565b60005b83811015613b89578181015183820152602001613b71565b838111156113975750506000910152565b601f01601f19169056fea265627a7a723058207cf5cdc36989958ee4e2a2f8387414c1384aadfb84f397116f573f2de93b78a36c6578706572696d656e74616cf50037",
    "source": "// Basic functions to be implemented by any stock\r\n// (c) Kallol Borah, Verified Network, 2022\r\n\r\npragma solidity 0.5.7;\r\npragma experimental ABIEncoderV2;\r\n\r\nimport \"./interfaces/IShare.sol\";\r\nimport \"./Issues.sol\";\r\n\r\ncontract Stocks is Share, Issues {\r\n\r\n    //mapping of asked currency to issue details\r\n    mapping(address => Share.currencySpecificStockAttribs) private shares;\r\n    Share.commonStockAttribs stockIssue;\r\n\r\n    modifier onlyDP(address sender){\r\n        require(registrar==sender);\r\n        _;\r\n    }\r\n\r\n    function issueShare(uint256 _issueSize,\r\n                        uint256 _offerPrice, \r\n                        uint256 _minAskPrice, \r\n                        uint256 _minSubscription,\r\n                        bytes32 _currency,\r\n                        bytes32 _offerType,\r\n                        bytes32 _isin,\r\n                        string calldata _offeringDocuments\r\n                        ) external onlyDP(msg.sender){\r\n        require(category==\"Shares\");\r\n        require(VerifiedProducts(productContract).getIssue(productRef)==address(this));\r\n        address currencyAddress = ViaFactory(viaFactoryContract).getTokenByNameType(_currency,\"ViaCash\");\r\n        require(ViaFactory(viaFactoryContract).getType(currencyAddress) == \"ViaCash\");\r\n        if(currencyIndex[currencyAddress]==0){\r\n            currencies.push(currencyAddress);\r\n            currencyIndex[currencyAddress]=currencies.length;\r\n        }\r\n        shares[currencyAddress].issueSize = _issueSize;\r\n        shares[currencyAddress].offerPrice = _offerPrice;\r\n        shares[currencyAddress].minAskPrice = _minAskPrice;\r\n        shares[currencyAddress].minSubscription = _minSubscription;\r\n        shares[currencyAddress].currency = _currency;\r\n        stockIssue.offerType = _offerType;\r\n        stockIssue.isin = _isin;        \r\n        stockIssue.offeringDocuments = _offeringDocuments;  \r\n        stockIssue.status = \"Issued\";    \r\n        emit issued (\r\n            _issueSize,\r\n            _offerPrice, \r\n            _minAskPrice,   \r\n            _minSubscription,\r\n            _currency,\r\n            address(this),\r\n            _offerType,\r\n            _isin,\r\n            \"Issued\",\r\n            \"Shares\"\r\n        );  \r\n    }\r\n\r\n    function getShare() external view returns(Share.currencySpecificStockAttribs[] memory, Share.commonStockAttribs memory){\r\n        Share.currencySpecificStockAttribs[] memory stocks = new Share.currencySpecificStockAttribs[](currencies.length);\r\n        Share.currencySpecificStockAttribs memory share;\r\n        for(uint i=0; i<currencies.length; i++){\r\n            share = Share.currencySpecificStockAttribs({\r\n                issueSize : shares[currencies[i]].issueSize,\r\n                faceValue : shares[currencies[i]].faceValue,\r\n                offerPrice : shares[currencies[i]].offerPrice, \r\n                minAskPrice : shares[currencies[i]].minAskPrice,  \r\n                minSubscription : shares[currencies[i]].minSubscription,\r\n                currency : shares[currencies[i]].currency,\r\n                security : shares[currencies[i]].security\r\n            });\r\n            stocks[i] = share;\r\n        }\r\n        return (stocks, stockIssue);\r\n    }\r\n\r\n    function askOffers() external onlyDP(msg.sender){\r\n        bytes32 isin;\r\n        bytes32 currency;\r\n        uint256 issueSize;\r\n        uint256 offerPrice; \r\n        uint256 minAskPrice; \r\n        uint256 minSubscription;\r\n        for(uint i=0; i<currencies.length; i++){\r\n            isin = stockIssue.isin;\r\n            currency = shares[currencies[i]].currency;\r\n            issueSize = shares[currencies[i]].issueSize;\r\n            offerPrice = shares[currencies[i]].offerPrice;\r\n            minAskPrice = shares[currencies[i]].minAskPrice;    \r\n            minSubscription = shares[currencies[i]].minSubscription;  \r\n            if(issueSize>0 && offerPrice>0){          \r\n                ISecuritiesRegistry(securityRegistriesContract).createSecurity(VerifiedProducts(productContract).getIssuerAddress(productRef),\r\n                                                            securityContract,\r\n                                                            currency,\r\n                                                            VerifiedProducts(productContract).getIssuerName(productRef),\r\n                                                            isin, \"DP\", \"Shares\");\r\n                security = ISecuritiesRegistry(securityRegistriesContract).getToken(currency,\r\n                                                                                    VerifiedProducts(productContract).getIssuerName(productRef),\r\n                                                                                    isin);\r\n                ISecurity(security).mint(address(this), issueSize);\r\n                shares[currencies[i]].security = security;\r\n                stockIssue.status = \"Offered\";\r\n                emit offered(security, \"Offered\");\r\n                //offer the issue on defi platforms\r\n                for(uint j=0; j<platforms.length; j++){\r\n                    //IMarketMaker(platforms[j]).offer(security, isin, issueSize, currencies[i], offerPrice, minAskPrice);//, minSubscription);\r\n                    emit offer(platforms[j], security, isin, issueSize, currencies[i], offerPrice, minAskPrice, minSubscription, address(this));\r\n                }\r\n            }\r\n        }       \r\n    }\r\n    \r\n    function startIssue(uint256 cutOffTime) external onlyDP(msg.sender){\r\n        address securityToken;\r\n        address orderPool;\r\n        for(uint i=0; i<platforms.length; i++){\r\n            for(uint j=0; j<currencies.length; j++){\r\n                if(shares[currencies[j]].issueSize > 0 && shares[currencies[j]].offerPrice > 0){\r\n                    //IMarketMaker(platforms[i]).issue(shares[currencies[j]].security, cutOffTime);\r\n                    emit start(platforms[i], shares[currencies[j]].security, cutOffTime, address(this));\r\n                    //offer security on the verified network\r\n                    //securityToken = ISecuritiesRegistry(securityRegistriesContract).getToken(shares[currencies[j]].currency, VerifiedProducts(productContract).getIssuerName(productRef), stockIssue.isin);\r\n                    //orderPool = IPoolFactory(poolFactoryContract).getPool(securityToken, currencies[j]);\r\n                    //IOrderPool(orderPool).newOrder(securityToken, currencies[j], shares[currencies[j]].offerPrice, shares[currencies[j]].issueSize, \"Market\", \"Sell\");\r\n                    stockIssue.status = \"Started\";\r\n                    emit opened(shares[currencies[j]].security, \"Started\");\r\n                }\r\n            }\r\n        }        \r\n    }\r\n\r\n    function getSubscribers() external onlyDP(msg.sender) returns(VerifiedIssues.ioi[] memory) {\r\n        for(uint i=0; i<platforms.length; i++){\r\n            for(uint k=0; k<currencies.length; k++){\r\n                if(shares[currencies[k]].issueSize > 0 && shares[currencies[k]].offerPrice > 0){\r\n                    address securitytoken;\r\n                    securitytoken = shares[currencies[k]].security;\r\n                    //(bytes32[] memory pools, bool issueClosed) = IMarketMaker(platforms[i]).close(securitytoken);\r\n                    //emit close(platforms[i], securitytoken, address(this));\r\n                    bytes32[] memory pools = poolsOnClose[platforms[i]][securitytoken];\r\n                    bool issueClosed = issueCloseStatus[platforms[i]][securitytoken];\r\n                    if(issueClosed){\r\n                        stockIssue.status = \"Closed\";\r\n                        emit closed(securitytoken, \"Closed\");\r\n                    }\r\n                    for(uint j=0; j<pools.length; j++){\r\n                        //IMarketMaker.subscriptions[] memory subs = IMarketMaker(platforms[i]).getSubscribers(pools[j]);\r\n                        emit subscriptions(platforms[i], pools[j], address(this));\r\n                        IMarketMaker.subscriptions[] memory subs = subscribersOnClose[platforms[i]][pools[j]]; \r\n                        for(uint l=0; l<subs.length; l++){\r\n                            uint256 count = subscribers[productRef].length;\r\n                            subscribers[productRef][count].platform = platforms[i];\r\n                            subscribers[productRef][count].poolid = pools[j];\r\n                            subscribers[productRef][count].amount = subs[l].amount;\r\n                            subscribers[productRef][count].price = subs[l].price;\r\n                            subscribers[productRef][count].currency = subs[l].name;\r\n                            subscribers[productRef][count].investor = subs[l].investor;\r\n                            subscribers[productRef][count].asset = subs[l].asset;\r\n                            bool found = false;\r\n                            for(uint x=0; x<investors.length; x++){\r\n                                if(investors[x]==subs[l].investor)\r\n                                    found = true;\r\n                            }\r\n                            if(!found)\r\n                                investors.push(subs[l].investor);\r\n                        }\r\n                    }\r\n                }\r\n            }\r\n        }\r\n        return subscribers[productRef];\r\n    }\r\n\r\n    function allotIssue(bytes32 _allotment, address _platform, bytes32 _pool, address _investor, uint256 _amount, address _asset) external onlyDP(msg.sender){\r\n        timeOfIssue = now;\r\n        if(_allotment==\"accept\"){\r\n            for(uint i=0; i<subscribers[productRef].length; i++){\r\n                if(subscribers[productRef][i].poolid==_pool &&\r\n                   subscribers[productRef][i].investor==_investor &&\r\n                   subscribers[productRef][i].amount >= _amount &&\r\n                   subscribers[productRef][i].asset == _asset\r\n                   ){\r\n                    //IMarketMaker(_platform).accept(_pool, _investor, _amount, _asset);\r\n                    emit accept(_platform, _pool, _investor, _amount, _asset, address(this));\r\n                    subscribers[productRef][i].status == true; \r\n                    bool found = false;\r\n                    for(uint j=0; j<beneficiaries.length; j++){\r\n                        if(beneficiaries[j]==_investor)\r\n                            found = true;\r\n                    }\r\n                    if(!found)\r\n                        beneficiaries.push(_investor);\r\n                }\r\n            }\r\n            //IMarketMaker(_platform).settle(_pool);\r\n            emit settle(_platform, _pool, address(this));\r\n        }\r\n        else if(_allotment==\"reject\"){\r\n            //IMarketMaker(_platform).reject(_pool, _investor);\r\n            emit reject(_platform, _pool, _investor, address(this));\r\n        }\r\n        stockIssue.status = \"Allotted\";\r\n        emit allotted(address(this), \"Allotted\");\r\n    }\r\n\r\n}\r\n\r\n",
    "sourcePath": "D:\\Code\\verified-securities\\securities\\contracts\\Stocks.sol",
    "compiler": {
        "name": "solc",
        "version": "0.5.7+commit.6da8b019.Emscripten.clang"
    },
    "schemaVersion": "3.4.3",
    "updatedAt": "2022-05-11T13:31:16.226Z",
    "networkType": "ethereum",
    "devdoc": {
        "methods": {}
    },
    "userdoc": {
        "methods": {}
    }
}