{
  "contractName": "Bond",
  "abi": [
    {
      "constant": true,
      "inputs": [],
      "name": "name",
      "outputs": [
        {
          "name": "",
          "type": "string"
        }
      ],
      "payable": false,
      "stateMutability": "view",
      "type": "function"
    },
    {
      "constant": false,
      "inputs": [],
      "name": "renounceOwnership",
      "outputs": [],
      "payable": false,
      "stateMutability": "nonpayable",
      "type": "function"
    },
    {
      "constant": true,
      "inputs": [],
      "name": "owner",
      "outputs": [
        {
          "name": "",
          "type": "address"
        }
      ],
      "payable": false,
      "stateMutability": "view",
      "type": "function"
    },
    {
      "constant": true,
      "inputs": [],
      "name": "isOwner",
      "outputs": [
        {
          "name": "",
          "type": "bool"
        }
      ],
      "payable": false,
      "stateMutability": "view",
      "type": "function"
    },
    {
      "constant": true,
      "inputs": [],
      "name": "symbol",
      "outputs": [
        {
          "name": "",
          "type": "string"
        }
      ],
      "payable": false,
      "stateMutability": "view",
      "type": "function"
    },
    {
      "constant": true,
      "inputs": [],
      "name": "isPaused",
      "outputs": [
        {
          "name": "",
          "type": "bool"
        }
      ],
      "payable": false,
      "stateMutability": "view",
      "type": "function"
    },
    {
      "constant": false,
      "inputs": [
        {
          "name": "newOwner",
          "type": "address"
        }
      ],
      "name": "transferOwnership",
      "outputs": [],
      "payable": false,
      "stateMutability": "nonpayable",
      "type": "function"
    },
    {
      "payable": true,
      "stateMutability": "payable",
      "type": "fallback"
    },
    {
      "anonymous": false,
      "inputs": [
        {
          "indexed": true,
          "name": "issuer",
          "type": "address"
        },
        {
          "indexed": false,
          "name": "currency",
          "type": "bytes32"
        },
        {
          "indexed": false,
          "name": "amount",
          "type": "uint256"
        }
      ],
      "name": "BondIssueRequest",
      "type": "event"
    },
    {
      "anonymous": false,
      "inputs": [
        {
          "indexed": true,
          "name": "issuer",
          "type": "address"
        },
        {
          "indexed": false,
          "name": "collateralCurrency",
          "type": "bytes32"
        },
        {
          "indexed": false,
          "name": "issuedAmount",
          "type": "uint256"
        },
        {
          "indexed": false,
          "name": "token",
          "type": "address"
        }
      ],
      "name": "BondIssued",
      "type": "event"
    },
    {
      "anonymous": false,
      "inputs": [
        {
          "indexed": true,
          "name": "redeemer",
          "type": "address"
        },
        {
          "indexed": false,
          "name": "redemptionCurrency",
          "type": "bytes32"
        },
        {
          "indexed": false,
          "name": "redemptionAmount",
          "type": "uint256"
        },
        {
          "indexed": false,
          "name": "token",
          "type": "address"
        }
      ],
      "name": "BondRedeemed",
      "type": "event"
    },
    {
      "anonymous": false,
      "inputs": [
        {
          "indexed": true,
          "name": "purchaser",
          "type": "address"
        },
        {
          "indexed": false,
          "name": "paidInCurrency",
          "type": "bytes32"
        },
        {
          "indexed": false,
          "name": "purchasedAmount",
          "type": "uint256"
        },
        {
          "indexed": false,
          "name": "token",
          "type": "address"
        }
      ],
      "name": "BondPurchased",
      "type": "event"
    },
    {
      "anonymous": false,
      "inputs": [],
      "name": "Paused",
      "type": "event"
    },
    {
      "anonymous": false,
      "inputs": [],
      "name": "Unpaused",
      "type": "event"
    },
    {
      "anonymous": false,
      "inputs": [
        {
          "indexed": true,
          "name": "previousOwner",
          "type": "address"
        },
        {
          "indexed": true,
          "name": "newOwner",
          "type": "address"
        }
      ],
      "name": "OwnershipTransferred",
      "type": "event"
    },
    {
      "constant": false,
      "inputs": [
        {
          "name": "_name",
          "type": "bytes32"
        },
        {
          "name": "_currency",
          "type": "bytes32"
        },
        {
          "name": "_owner",
          "type": "address"
        },
        {
          "name": "_fee",
          "type": "address"
        }
      ],
      "name": "initialize",
      "outputs": [],
      "payable": false,
      "stateMutability": "nonpayable",
      "type": "function"
    },
    {
      "constant": false,
      "inputs": [
        {
          "name": "sender",
          "type": "address"
        }
      ],
      "name": "initialize",
      "outputs": [],
      "payable": false,
      "stateMutability": "nonpayable",
      "type": "function"
    },
    {
      "constant": false,
      "inputs": [
        {
          "name": "_signer",
          "type": "address"
        }
      ],
      "name": "setSigner",
      "outputs": [],
      "payable": false,
      "stateMutability": "nonpayable",
      "type": "function"
    },
    {
      "constant": false,
      "inputs": [
        {
          "name": "_token",
          "type": "address"
        },
        {
          "name": "_name",
          "type": "bytes32"
        }
      ],
      "name": "supportTokens",
      "outputs": [],
      "payable": false,
      "stateMutability": "nonpayable",
      "type": "function"
    },
    {
      "constant": true,
      "inputs": [
        {
          "name": "_token",
          "type": "address"
        }
      ],
      "name": "checkSupportForToken",
      "outputs": [
        {
          "name": "",
          "type": "bool"
        }
      ],
      "payable": false,
      "stateMutability": "view",
      "type": "function"
    },
    {
      "constant": false,
      "inputs": [
        {
          "name": "_token",
          "type": "address"
        },
        {
          "name": "_amount",
          "type": "uint256"
        },
        {
          "name": "_buyer",
          "type": "address"
        }
      ],
      "name": "requestIssue",
      "outputs": [],
      "payable": false,
      "stateMutability": "nonpayable",
      "type": "function"
    },
    {
      "constant": false,
      "inputs": [
        {
          "name": "amount",
          "type": "uint256"
        },
        {
          "name": "issuer",
          "type": "address"
        },
        {
          "name": "currency",
          "type": "bytes32"
        },
        {
          "name": "issuedBond",
          "type": "address"
        },
        {
          "name": "_hashedMessage",
          "type": "bytes32"
        },
        {
          "name": "_v",
          "type": "uint8"
        },
        {
          "name": "_r",
          "type": "bytes32"
        },
        {
          "name": "_s",
          "type": "bytes32"
        }
      ],
      "name": "addIssuedBalance",
      "outputs": [],
      "payable": false,
      "stateMutability": "nonpayable",
      "type": "function"
    },
    {
      "constant": false,
      "inputs": [
        {
          "name": "amount",
          "type": "uint256"
        },
        {
          "name": "purchaser",
          "type": "address"
        },
        {
          "name": "currency",
          "type": "bytes32"
        },
        {
          "name": "purchasedBond",
          "type": "address"
        },
        {
          "name": "_hashedMessage",
          "type": "bytes32"
        },
        {
          "name": "_v",
          "type": "uint8"
        },
        {
          "name": "_r",
          "type": "bytes32"
        },
        {
          "name": "_s",
          "type": "bytes32"
        }
      ],
      "name": "purchase",
      "outputs": [],
      "payable": false,
      "stateMutability": "nonpayable",
      "type": "function"
    },
    {
      "constant": false,
      "inputs": [
        {
          "name": "amount",
          "type": "uint256"
        },
        {
          "name": "payOutTo",
          "type": "address"
        },
        {
          "name": "currency",
          "type": "bytes32"
        },
        {
          "name": "redeemedToken",
          "type": "address"
        },
        {
          "name": "_hashedMessage",
          "type": "bytes32"
        },
        {
          "name": "_v",
          "type": "uint8"
        },
        {
          "name": "_r",
          "type": "bytes32"
        },
        {
          "name": "_s",
          "type": "bytes32"
        }
      ],
      "name": "redeemBond",
      "outputs": [],
      "payable": false,
      "stateMutability": "nonpayable",
      "type": "function"
    },
    {
      "constant": false,
      "inputs": [],
      "name": "pause",
      "outputs": [],
      "payable": false,
      "stateMutability": "nonpayable",
      "type": "function"
    },
    {
      "constant": false,
      "inputs": [],
      "name": "unpause",
      "outputs": [],
      "payable": false,
      "stateMutability": "nonpayable",
      "type": "function"
    }
  ],
  "bytecode": "0x608060405261205c806100136000396000f3fe6080604052600436106101095760003560e01c8063715018a6116100955780638f32d59b116100645780638f32d59b1461050a57806395d89b411461051f578063b187bd2614610534578063c4d66de814610549578063f2fde38b1461057c57610109565b8063715018a61461044c578063720bd707146104615780638456cb59146104c45780638da5cb5b146104d957610109565b80633f66e3dd116100dc5780633f66e3dd146102c9578063464ff5e61461032c5780634ba3f9881461038f5780635d4f5b1c146103d25780636c19e7831461041957610109565b806306fdde03146101a85780631f57365e146102325780632ceafc271461027b5780633f4ba83a146102b4575b3461011357600080fd5b361561011e57600080fd5b60665460ff161561012e57600080fd5b336000908152607060209081526040808320600160d91b6432ba3432b90284529091529020546101699060801b610164346105af565b610615565b336000908152607060209081526040808320600160d91b6432ba3432b9028452909152902080546001600160801b03191660809290921c919091179055005b3480156101b457600080fd5b506101bd610a1b565b6040805160208082528351818301528351919283929083019185019080838360005b838110156101f75781810151838201526020016101df565b50505050905090810190601f1680156102245780820380516001836020036101000a031916815260200191505b509250505060405180910390f35b34801561023e57600080fd5b506102796004803603608081101561025557600080fd5b508035906020810135906001600160a01b0360408201358116916060013516610aa9565b005b34801561028757600080fd5b506102796004803603604081101561029e57600080fd5b506001600160a01b038135169060200135610cbb565b3480156102c057600080fd5b50610279610dd5565b3480156102d557600080fd5b5061027960048036036101008110156102ed57600080fd5b508035906001600160a01b0360208201358116916040810135916060820135169060808101359060ff60a0820135169060c08101359060e00135610e29565b34801561033857600080fd5b50610279600480360361010081101561035057600080fd5b508035906001600160a01b0360208201358116916040810135916060820135169060808101359060ff60a0820135169060c08101359060e0013561103a565b34801561039b57600080fd5b50610279600480360360608110156103b257600080fd5b506001600160a01b038135811691602081013591604090910135166112bd565b3480156103de57600080fd5b50610405600480360360208110156103f557600080fd5b50356001600160a01b0316611624565b604080519115158252519081900360200190f35b34801561042557600080fd5b506102796004803603602081101561043c57600080fd5b50356001600160a01b0316611652565b34801561045857600080fd5b506102796116c4565b34801561046d57600080fd5b50610279600480360361010081101561048557600080fd5b508035906001600160a01b0360208201358116916040810135916060820135169060808101359060ff60a0820135169060c08101359060e00135611758565b3480156104d057600080fd5b506102796119b7565b3480156104e557600080fd5b506104ee611a09565b604080516001600160a01b039092168252519081900360200190f35b34801561051657600080fd5b50610405611a19565b34801561052b57600080fd5b506101bd611a3f565b34801561054057600080fd5b50610405611a9a565b34801561055557600080fd5b506102796004803603602081101561056c57600080fd5b50356001600160a01b0316611aa3565b34801561058857600080fd5b506102796004803603602081101561059f57600080fd5b50356001600160a01b0316611b97565b6000816105be57506000610610565b8160006105ca82611bed565b905060708110156105e3578060700382901b91506105f6565b60708111156105f6576070810382901c91505b613fff0160701b6001600160701b03919091161760801b90505b919050565b6000617fff6001600160801b03608085811c8216607090811c8416939186901c90921690911c81169082141561068b5780617fff1415610681576001600160801b0319858116908516141561066e578492505050610a15565b50600160ef1b61ffff029150610a159050565b8492505050610a15565b80617fff141561069f578392505050610a15565b6001607f1b608086901c6001600160801b0381169190911015906001600160701b0316836106d057600193506106d7565b600160701b175b6001607f1b608087901c6001600160801b0381169190911015906001600160701b031684610708576001945061070f565b600160701b175b8261073f576001600160801b03198816600160ff1b1461072f5787610732565b60005b9650505050505050610a15565b8061075f576001600160801b03198916600160ff1b1461072f5788610732565b848603841515831515141561086d5760708113156107865789975050505050505050610a15565b60008113156107985790811c906107c7565b606f198112156107b15788975050505050505050610a15565b60008112156107c7578060000384901c93508596505b92810192600160711b84106107e2576001968701969390931c925b86617fff141561081757846107ff57600160f01b617fff02610809565b6001600160f01b03195b975050505050505050610a15565b600160701b84101561082c5760009650610839565b6001600160701b03841693505b83607088901b8661084b576000610851565b6001607f1b5b6001600160801b0316171760801b975050505050505050610a15565b600081131561088857600184901b935060018703965061089f565b600081121561089f57600182901b91506001860396505b60708113156108b157600191506108fe565b60018113156108ce576001810360018303901c60010191506108fe565b606f198112156108e157600193506108fe565b6000198112156108fe576001816000030360018503901c60010193505b81841061090f578184039350610918565b83820393508294505b8361092e575060009650610a1595505050505050565b600061093985611bed565b9050806071141561095f57600185901c6001600160701b031694506001880197506109ae565b60708110156109a15760708190038089111561098e578086901b6001600160701b03169550808903985061099b565b600098600019019590951b945b506109ae565b6001600160701b03851694505b87617fff14156109e457856109cb57600160f01b617fff026109d5565b6001600160f01b03195b98505050505050505050610a15565b84607089901b876109f65760006109fc565b6001607f1b5b6001600160801b0316171760801b985050505050505050505b92915050565b6067805460408051602060026001851615610100026000190190941693909304601f81018490048402820184019092528181529291830182828015610aa15780601f10610a7657610100808354040283529160200191610aa1565b820191906000526020600020905b815481529060010190602001808311610a8457829003601f168201915b505050505081565b600054610100900460ff1680610ac25750610ac2611c90565b80610ad0575060005460ff16155b610b0e57604051600160e51b62461bcd02815260040180806020018281038252602e815260200180612003602e913960400191505060405180910390fd5b600054610100900460ff16158015610b39576000805460ff1961ff0019909116610100171660011790555b610b4283611aa3565b606b80546001600160a01b031916331790556040805160208082018890528251808303820181529183019092528051610b7f926067920190611f0d565b5060408051600160e01b63f921e6470281526004810187905260006024820181905260056044830152915173__stringutils___________________________9263f921e6479260648082019391829003018186803b158015610be157600080fd5b505af4158015610bf5573d6000803e3d6000fd5b505050506040513d6000823e601f3d908101601f191682016040526020811015610c1e57600080fd5b810190808051640100000000811115610c3657600080fd5b82016020810184811115610c4957600080fd5b8151640100000000811182820187101715610c6357600080fd5b50508051610c7c94506068935060209091019150611f0d565b506069859055606a849055606c80546001600160a01b0319166001600160a01b0384161790558015610cb4576000805461ff00191690555b5050505050565b610cc3611a19565b610d055760408051600160e51b62461bcd0281526020600482018190526024820152600080516020611fe3833981519152604482015290519081900360640190fd5b6001600160a01b038216600090815260736020526040902054610dd157610d2a611f8b565b506040805180820182528281526001600160a01b03848116602080840182815260728054600181018255600082815296517fdffbd64cc7c1a7eb27984335d9416d51137a03d3fabec7141025c62663253fe160029092029182015591517fdffbd64cc7c1a7eb27984335d9416d51137a03d3fabec7141025c62663253fe290920180546001600160a01b031916929095169190911790935591549083526073909152919020555b5050565b610ddd611a19565b610e1f5760408051600160e51b62461bcd0281526020600482018190526024820152600080516020611fe3833981519152604482015290519081900360640190fd5b610e27611c96565b565b60606040518060400160405280601c81526020017f19457468657265756d205369676e6564204d6573736167653a0a3332000000008152509050600081866040516020018083805190602001908083835b60208310610e995780518252601f199092019160209182019101610e7a565b51815160209384036101000a600019018019909216911617905292019384525060408051808503815284830180835281519184019190912060009182905282860180845281905260ff8c166060870152608086018b905260a086018a90529151919650945060019360c08082019450601f19830192918290030190855afa158015610f28573d6000803e3d6000fd5b5050604051601f1901516066549092506001600160a01b0380841661010090920416149050610f5657600080fd5b606b5460408051600160e01b632ea77917028152600160ca1b66159a58509bdb99026004820152602481018c9052905130926001600160a01b031691632ea77917916044808301926020929190829003018186803b158015610fb757600080fd5b505afa158015610fcb573d6000803e3d6000fd5b505050506040513d6020811015610fe157600080fd5b50516001600160a01b0316141561102d576001600160a01b038881166000818152606f6020908152604080832054909416808352606d82528483209383529290529190912080548c9190fe5b5050505050505050505050565b60606040518060400160405280601c81526020017f19457468657265756d205369676e6564204d6573736167653a0a3332000000008152509050600081866040516020018083805190602001908083835b602083106110aa5780518252601f19909201916020918201910161108b565b51815160209384036101000a600019018019909216911617905292019384525060408051808503815284830180835281519184019190912060009182905282860180845281905260ff8c166060870152608086018b905260a086018a90529151919650945060019360c08082019450601f19830192918290030190855afa158015611139573d6000803e3d6000fd5b5050604051601f1901516066549092506001600160a01b038084166101009092041614905061116757600080fd5b606b5460408051600160e01b632ea77917028152600160ca1b66159a58509bdb99026004820152602481018c9052905130926001600160a01b031691632ea77917916044808301926020929190829003018186803b1580156111c857600080fd5b505afa1580156111dc573d6000803e3d6000fd5b505050506040513d60208110156111f257600080fd5b50516001600160a01b0316141561102d5761120c8b6105af565b6001600160a01b038b81166000818152606d60209081526040808320948e168084529482528083206001810180546001600160801b03191660809890981c9790971790965560039095018e9055606f81529084902080546001600160a01b0319168317905583518d81529081018f90528084019290925291517f0374c98cc473258135c2b4fe78a223aed02348572d6786136e30f6c1e7a67dd0916060908290030190a25050505050505050505050565b60665460ff16156113185760408051600160e51b62461bcd02815260206004820152601860248201527f436f6e747261637420696e207061757365642073746174650000000000000000604482015290519081900360640190fd5b6001600160a01b0383166000908152607360205260408120541561133a575060015b80156114b9576001600160a01b03841660009081526073602052604081205460728054909190811061136857fe5b6000918252602080832060029092029091015460408051600160e01b6323b872dd0281523360048201523060248201526044810189905290519194506001600160a01b038916936323b872dd9360648084019491939192918390030190829087803b1580156113d657600080fd5b505af11580156113ea573d6000803e3d6000fd5b505050506040513d602081101561140057600080fd5b5051156114b3576001600160a01b038316600090815260716020908152604080832084845290915290205461143b9060801b610164866105af565b6001600160a01b038416600081815260716020908152604080832086845282529182902080546001600160801b03191660809590951c949094179093558051848152928301879052805191927f4436a6654a7129488fb9eb2ae15ce2049af46f230597828facbd096053ab0924929081900390910190a25b5061161e565b336000908152607060209081526040808320600160d91b6432ba3432b90284529091528120546114f49060801b6114ef866105af565b611ccb565b60000b1261161e57336000908152607060209081526040808320600160d91b6432ba3432b90284529091529020546115379060801b611532856105af565b611e14565b336000908152607060209081526040808320600160d91b6432ba3432b90280855290835281842080546001600160801b031916608096871c1790556001600160a01b03871684526071835281842090845290915290205461159c911b610164856105af565b6001600160a01b0383166000818152607160209081526040808320600160d91b6432ba3432b9028085529083529281902080546001600160801b03191660809690961c9590951790945583519182528101869052825191927f4436a6654a7129488fb9eb2ae15ce2049af46f230597828facbd096053ab092492918290030190a25b50505050565b6001600160a01b0381166000908152607360205260408120541561164a57506001610610565b506000610610565b61165a611a19565b61169c5760408051600160e51b62461bcd0281526020600482018190526024820152600080516020611fe3833981519152604482015290519081900360640190fd5b606680546001600160a01b0390921661010002610100600160a81b0319909216919091179055565b6116cc611a19565b61170e5760408051600160e51b62461bcd0281526020600482018190526024820152600080516020611fe3833981519152604482015290519081900360640190fd5b6033546040516000916001600160a01b0316907f8be0079c531659141344cd1fd0a4f28419497f9722a3daafe3b4186f6b6457e0908390a3603380546001600160a01b0319169055565b60606040518060400160405280601c81526020017f19457468657265756d205369676e6564204d6573736167653a0a3332000000008152509050600081866040516020018083805190602001908083835b602083106117c85780518252601f1990920191602091820191016117a9565b51815160209384036101000a600019018019909216911617905292019384525060408051808503815284830180835281519184019190912060009182905282860180845281905260ff8c166060870152608086018b905260a086018a90529151919650945060019360c08082019450601f19830192918290030190855afa158015611857573d6000803e3d6000fd5b5050604051601f1901516066549092506001600160a01b038084166101009092041614905061188557600080fd5b88600160d91b6432ba3432b90214156118d4576040516001600160a01b038b16908c156108fc02908d906000818181858888f193505050501580156118ce573d6000803e3d6000fd5b5061195d565b60408051600160e01b6323b872dd0281523060048201526001600160a01b038c81166024830152604482018e90529151918a16916323b872dd916064808201926020929091908290030181600087803b15801561193057600080fd5b505af1158015611944573d6000803e3d6000fd5b505050506040513d602081101561195a57600080fd5b50505b604080518a8152602081018d90526001600160a01b038a8116828401529151918c16917f93671572d5a2c485b580939eaa77af90adb49104e41459a5ec7e945482a20ef19181900360600190a25050505050505050505050565b6119bf611a19565b611a015760408051600160e51b62461bcd0281526020600482018190526024820152600080516020611fe3833981519152604482015290519081900360640190fd5b610e27611e2d565b6033546001600160a01b03165b90565b6033546000906001600160a01b0316611a30611e65565b6001600160a01b031614905090565b6068805460408051602060026001851615610100026000190190941693909304601f81018490048402820184019092528181529291830182828015610aa15780601f10610a7657610100808354040283529160200191610aa1565b60665460ff1690565b600054610100900460ff1680611abc5750611abc611c90565b80611aca575060005460ff16155b611b0857604051600160e51b62461bcd02815260040180806020018281038252602e815260200180612003602e913960400191505060405180910390fd5b600054610100900460ff16158015611b33576000805460ff1961ff0019909116610100171660011790555b603380546001600160a01b0319166001600160a01b0384811691909117918290556040519116906000907f8be0079c531659141344cd1fd0a4f28419497f9722a3daafe3b4186f6b6457e0908290a38015610dd1576000805461ff00191690555050565b611b9f611a19565b611be15760408051600160e51b62461bcd0281526020600482018190526024820152600080516020611fe3833981519152604482015290519081900360640190fd5b611bea81611e69565b50565b6000808211611bfb57600080fd5b6000600160801b8310611c1057608092831c92015b680100000000000000008310611c2857604092831c92015b6401000000008310611c3c57602092831c92015b620100008310611c4e57601092831c92015b6101008310611c5f57600892831c92015b60108310611c6f57600492831c92015b60048310611c7f57600292831c92015b60028310610a155760010192915050565b303b1590565b6066805460ff191690556040517fa45f47fdea8a1efdd9029a5691c7f759c32b7c698632b563573e155625d1693390600090a1565b600060016001607f1b03608084901c16600160701b617fff02811115611cf057600080fd5b60016001607f1b03608084901c16600160701b617fff02811115611d1357600080fd5b6001600160801b0319858116908516141580611d3f5750600160701b617fff02826001600160801b0316105b611d4857600080fd5b6001600160801b03198581169085161415611d6857600092505050610a15565b60006001607f1b8660801c6001600160801b03161015905060006001607f1b8660801c6001600160801b0316101590508115611dd3578015611dc457826001600160801b0316846001600160801b031611611dc4576001611dc8565b6000195b945050505050610a15565b8015611de6576001945050505050610a15565b826001600160801b0316846001600160801b031611611e0757600019611dc8565b6001945050505050610a15565b6000611e2683600160ff1b8418610615565b9392505050565b6066805460ff191660011790556040517f9e87fac88ff661f02d44f95383c817fece4bce600a3dab7a54406878b965e75290600090a1565b3390565b6001600160a01b038116611eb157604051600160e51b62461bcd028152600401808060200182810382526026815260200180611fbd6026913960400191505060405180910390fd5b6033546040516001600160a01b038084169216907f8be0079c531659141344cd1fd0a4f28419497f9722a3daafe3b4186f6b6457e090600090a3603380546001600160a01b0319166001600160a01b0392909216919091179055565b828054600181600116156101000203166002900490600052602060002090601f016020900481019282601f10611f4e57805160ff1916838001178555611f7b565b82800160010185558215611f7b579182015b82811115611f7b578251825591602001919060010190611f60565b50611f87929150611fa2565b5090565b604080518082019091526000808252602082015290565b611a1691905b80821115611f875760008155600101611fa856fe4f776e61626c653a206e6577206f776e657220697320746865207a65726f20616464726573734f776e61626c653a2063616c6c6572206973206e6f7420746865206f776e6572436f6e747261637420696e7374616e63652068617320616c7265616479206265656e20696e697469616c697a6564a165627a7a72305820ab3f6083d3a2b5c0eefbb87f4eaae0997c6cc317981def0848d9984aecb2517d0029",
  "source": "// Verified bond manager\r\n// (c) Kallol Borah, 2021\r\n\r\npragma solidity 0.5.7;\r\n\r\nimport \"./interfaces/ViaCash.sol\";\r\nimport \"./interfaces/ViaBond.sol\";\r\nimport \"./interfaces/ViaFactory.sol\";\r\nimport \"./interfaces/VerifiedRates.sol\";\r\nimport \"./utilities/Pausable.sol\";\r\nimport \"./utilities/StringUtils.sol\";\r\nimport \"abdk-libraries-solidity/ABDKMathQuad.sol\";\r\nimport \"@openzeppelin/upgrades/contracts/Initializable.sol\";\r\nimport \"@openzeppelin/contracts-ethereum-package/contracts/ownership/Ownable.sol\";\r\nimport \"@openzeppelin/contracts-ethereum-package/contracts/token/ERC20/IERC20.sol\";\r\n\r\ncontract Bond is ViaBond, Initializable, Ownable, Pausable {\r\n\r\n    using stringutils for *;\r\n\r\n    using ABDKMathQuad for uint256;\r\n    using ABDKMathQuad for int256;\r\n    using ABDKMathQuad for bytes16;\r\n\r\n    //address of bridge\r\n    address bridge;\r\n\r\n    //name of Verified token (eg, Via-USD)\r\n    string public name;\r\n    string public symbol;\r\n    bytes32 private bondName;\r\n    bytes32 private bondCurrency;\r\n\r\n    //verified token factory address\r\n    ViaFactory private factory;\r\n    \r\n    //verified rates\r\n    VerifiedRates private rates;   \r\n    \r\n    //a Verified bond has some value, corresponds to a fiat currency\r\n    //can have many purchasers and a issuer that have agreed to a zero coupon rate which determines the start price of the bond\r\n    //and a tenure in unix timestamps of seconds counted from 1970-01-01. Verified bonds are of one year tenure.\r\n    struct bond{\r\n        address[] counterParties;\r\n        bytes16 parValue;               //face value of bond issued or purchased in the bond's currency\r\n        bytes16 purchasedIssueAmount;   //amount purchased at price of bond for paidInCurrency\r\n        bytes16 paidInAmount;           //amount paid in as collateral for issue of bond or as payment for purchase of bond\r\n        bytes32 paidInCurrency;         //currency denomination of collateral for issue or payment for purchase of bond\r\n    }\r\n\r\n    //mapping issuer (address) to address of bond token (address) which acts as identifier for bonds on offer\r\n    mapping(address => mapping (address => bond)) private issues;\r\n\r\n    //mapping purchaser (address) to address of bond token (address) which acts as identifier for bonds subscribed\r\n    mapping(address => mapping (address => bond)) private purchases;\r\n\r\n    //mapping issued bond (address) to issuer (address)\r\n    mapping(address => address) private issuers;\r\n    \r\n    //mapping to party => currency deposited => amount\r\n    mapping(address => mapping(bytes32 => bytes16)) private L1deposits;\r\n    mapping(address => mapping(bytes32 => bytes16)) private L2deposits;\r\n\r\n    //supported ERC20 tokens for issuing Verified bond tokens\r\n    ViaCash.token[] private tokens;\r\n    mapping(address => uint256) private tokenIndex;\r\n\r\n    event BondIssueRequest(address indexed issuer, bytes32 currency, uint256 amount);\r\n    event BondIssued(address indexed issuer, bytes32 collateralCurrency, uint256 issuedAmount, address token);\r\n    event BondRedeemed(address indexed redeemer, bytes32 redemptionCurrency, uint256 redemptionAmount, address token);\r\n    event BondPurchased(address indexed purchaser, bytes32 paidInCurrency, uint256 purchasedAmount, address token);\r\n\r\n    function initialize(bytes32 _name, bytes32 _currency, address _owner, address _fee) public initializer {\r\n        Ownable.initialize(_owner);\r\n        factory = ViaFactory(msg.sender);\r\n        name = string(abi.encodePacked(_name));\r\n        symbol = _name.substring(0,5);\r\n        bondName = _name;\r\n        bondCurrency = _currency;\r\n        rates = VerifiedRates(_fee);\r\n    }\r\n\r\n    function setSigner(address _signer) onlyOwner external{\r\n        bridge = _signer;\r\n    }\r\n\r\n    //handling pay in of ether for issue of via bond tokens\r\n    function() external payable{\r\n        //ether paid in\r\n        require(msg.value !=0);\r\n        //only to pay in ether\r\n        require(msg.data.length==0);\r\n        // contract must not be paused\r\n        require(paused == false);\r\n        //check aml status\r\n        //require(fee.amlCheck(msg.sender)==true); \r\n        //issue verified bond tokens\r\n        L1deposits[msg.sender][\"ether\"] = ABDKMathQuad.add(L1deposits[msg.sender][\"ether\"], ABDKMathQuad.fromUInt(msg.value));  \r\n    }\r\n\r\n    /**\r\n        Specifies list of supported tokens that can be deposited to issue Verified cash tokens\r\n        @param  _token  address of token supported\r\n        @param  _name   name of token supported\r\n     */\r\n    function supportTokens(address _token, bytes32 _name) onlyOwner external {\r\n        if(tokenIndex[_token]==0){\r\n            ViaCash.token memory t = ViaCash.token ({\r\n                tokenName: _name,\r\n                tokenAddress: _token\r\n            });\r\n            tokens.push(t);\r\n            tokenIndex[_token] = tokens.length;\r\n        }\r\n    }\r\n\r\n    /**\r\n        Checks if a specified token is supported for issuing Verified cash tokens\r\n        @param  _token  token that is supported for issuing cash tokens\r\n     */\r\n    function checkSupportForToken(address _token) external view returns(bool){\r\n        if(tokenIndex[_token]>0)\r\n            return true;\r\n        else\r\n            return false;\r\n    }\r\n\r\n    /**\r\n        Used by external apps (eg, exchange, wallet) to buy Verified bond token \r\n        @param  _token  address of token used by investor to buy the bond token\r\n        @param  _amount amount of token that is transferred from investor to this bond token issuing contract\r\n     */\r\n    function requestIssue(address _token, uint256 _amount, address _buyer) external {\r\n        require(paused == false, \"Contract in paused state\");\r\n        bool found = false;\r\n        if(tokenIndex[_token]>0)\r\n            found = true;\r\n        if(found){\r\n            bytes32 currencyName = tokens[tokenIndex[_token]].tokenName;\r\n            if(IERC20(_token).transferFrom(msg.sender, address(this), _amount)){\r\n                L2deposits[_buyer][currencyName] = ABDKMathQuad.add(L2deposits[_buyer][currencyName], ABDKMathQuad.fromUInt(_amount));\r\n                emit BondIssueRequest(_buyer, currencyName, _amount);\r\n            }\r\n        }\r\n        else if(ABDKMathQuad.cmp(L1deposits[msg.sender][\"ether\"], ABDKMathQuad.fromUInt(_amount))>=0){\r\n            L1deposits[msg.sender][\"ether\"] = ABDKMathQuad.sub(L1deposits[msg.sender][\"ether\"], ABDKMathQuad.fromUInt(_amount));\r\n            L2deposits[_buyer][\"ether\"] = ABDKMathQuad.add(L2deposits[_buyer][\"ether\"], ABDKMathQuad.fromUInt(_amount));\r\n            emit BondIssueRequest(_buyer, \"ether\", _amount);                \r\n        }\r\n    }\r\n    \r\n    //adds issued Verified bond tokens to user balances\r\n    function addIssuedBalance(uint256 amount, address issuer, bytes32 currency, address issuedBond, bytes32 _hashedMessage, uint8 _v, bytes32 _r, bytes32 _s) \r\n                        external {\r\n        bytes memory prefix = \"\\x19Ethereum Signed Message:\\n32\";\r\n        bytes32 prefixedHashMessage = keccak256(abi.encodePacked(prefix, _hashedMessage));\r\n        address signer = ecrecover(prefixedHashMessage, _v, _r, _s);\r\n        require(signer==bridge);\r\n        if(factory.getIssuer(\"ViaBond\", currency)==address(this)){\r\n            issues[issuer][issuedBond].parValue = ABDKMathQuad.fromUInt(amount);\r\n            issues[issuer][issuedBond].paidInCurrency = currency;\r\n            issuers[issuedBond] = issuer;\r\n            emit BondIssued(issuer, currency, amount, issuedBond);\r\n        }\r\n    }\r\n\r\n    //adds purchased Verified bond tokens to user balances   \r\n    function purchase(uint256 amount, address purchaser, bytes32 currency, address purchasedBond, bytes32 _hashedMessage, uint8 _v, bytes32 _r, bytes32 _s) \r\n                        external {\r\n        bytes memory prefix = \"\\x19Ethereum Signed Message:\\n32\";\r\n        bytes32 prefixedHashMessage = keccak256(abi.encodePacked(prefix, _hashedMessage));\r\n        address signer = ecrecover(prefixedHashMessage, _v, _r, _s);\r\n        require(signer==bridge);\r\n        if(factory.getIssuer(\"ViaBond\", currency)==address(this)){\r\n            address issuer = issuers[purchasedBond];\r\n            issues[issuer][purchasedBond].counterParties[issues[issuer][purchasedBond].counterParties.length] = purchaser;\r\n            issues[issuer][purchasedBond].purchasedIssueAmount = ABDKMathQuad.add(issues[issuer][purchasedBond].purchasedIssueAmount, ABDKMathQuad.fromUInt(amount)); \r\n            purchases[purchaser][purchasedBond].counterParties.push(issuer);\r\n            purchases[purchaser][purchasedBond].purchasedIssueAmount = ABDKMathQuad.add(purchases[purchaser][purchasedBond].purchasedIssueAmount, ABDKMathQuad.fromUInt(amount));\r\n            purchases[purchaser][purchasedBond].paidInCurrency = currency;\r\n            emit BondPurchased(purchaser, currency, amount, purchasedBond);\r\n        }\r\n    }\r\n    \r\n    //redeems issued Verified bond\r\n    function redeemBond(uint256 amount, address payOutTo, bytes32 currency, address redeemedToken, bytes32 _hashedMessage, uint8 _v, bytes32 _r, bytes32 _s) \r\n                        external {\r\n        bytes memory prefix = \"\\x19Ethereum Signed Message:\\n32\";\r\n        bytes32 prefixedHashMessage = keccak256(abi.encodePacked(prefix, _hashedMessage));\r\n        address signer = ecrecover(prefixedHashMessage, _v, _r, _s);\r\n        require(signer==bridge);\r\n        if(currency==\"ether\")\r\n            address(uint160(payOutTo)).transfer(amount); \r\n        else{\r\n            IERC20(redeemedToken).transferFrom(address(this), payOutTo, amount);\r\n        }\r\n        emit BondRedeemed(payOutTo, currency, amount, redeemedToken);\r\n    }\r\n    \r\n    function pause() onlyOwner public {\r\n        _pause();\r\n    }\r\n\r\n    function unpause() onlyOwner public {\r\n        _unpause();\r\n    }\r\n    \r\n}",
  "sourcePath": "D:\\Code\\verified-quorum\\payments\\contracts\\Bond.sol",
  "compiler": {
    "name": "solc",
    "version": "0.5.7+commit.6da8b019.Emscripten.clang"
  },
  "schemaVersion": "3.4.3",
  "updatedAt": "2022-04-03T12:29:36.081Z",
  "networkType": "ethereum",
  "devdoc": {
    "methods": {
      "checkSupportForToken(address)": {
        "params": {
          "_token": "token that is supported for issuing cash tokens\r"
        }
      },
      "initialize(address)": {
        "details": "Initializes the contract setting the deployer as the initial owner."
      },
      "isOwner()": {
        "details": "Returns true if the caller is the current owner."
      },
      "isPaused()": {
        "return": "True: contract is paused\rFalse: contract is not paused\r"
      },
      "owner()": {
        "details": "Returns the address of the current owner."
      },
      "renounceOwnership()": {
        "details": "Leaves the contract without owner. It will not be possible to call `onlyOwner` functions anymore. Can only be called by the current owner.     * > Note: Renouncing ownership will leave the contract without an owner, thereby removing any functionality that is only available to the owner."
      },
      "requestIssue(address,uint256,address)": {
        "params": {
          "_amount": "amount of token that is transferred from investor to this bond token issuing contract\r",
          "_token": "address of token used by investor to buy the bond token\r"
        }
      },
      "supportTokens(address,bytes32)": {
        "params": {
          "_name": "name of token supported\r",
          "_token": "address of token supported\r"
        }
      },
      "transferOwnership(address)": {
        "details": "Transfers ownership of the contract to a new account (`newOwner`). Can only be called by the current owner."
      }
    }
  },
  "userdoc": {
    "methods": {
      "checkSupportForToken(address)": {
        "notice": "Checks if a specified token is supported for issuing Verified cash tokens\r"
      },
      "isPaused()": {
        "notice": "returns whether or not the contract is paused\r"
      },
      "requestIssue(address,uint256,address)": {
        "notice": "Used by external apps (eg, exchange, wallet) to buy Verified bond token \r"
      },
      "supportTokens(address,bytes32)": {
        "notice": "Specifies list of supported tokens that can be deposited to issue Verified cash tokens\r"
      }
    }
  }
}