{
  "contractName": "Bond",
  "abi": [
    {
      "constant": true,
      "inputs": [],
      "name": "name",
      "outputs": [
        {
          "name": "",
          "type": "string"
        }
      ],
      "payable": false,
      "stateMutability": "view",
      "type": "function"
    },
    {
      "constant": false,
      "inputs": [],
      "name": "renounceOwnership",
      "outputs": [],
      "payable": false,
      "stateMutability": "nonpayable",
      "type": "function"
    },
    {
      "constant": true,
      "inputs": [],
      "name": "owner",
      "outputs": [
        {
          "name": "",
          "type": "address"
        }
      ],
      "payable": false,
      "stateMutability": "view",
      "type": "function"
    },
    {
      "constant": true,
      "inputs": [],
      "name": "isOwner",
      "outputs": [
        {
          "name": "",
          "type": "bool"
        }
      ],
      "payable": false,
      "stateMutability": "view",
      "type": "function"
    },
    {
      "constant": true,
      "inputs": [],
      "name": "symbol",
      "outputs": [
        {
          "name": "",
          "type": "string"
        }
      ],
      "payable": false,
      "stateMutability": "view",
      "type": "function"
    },
    {
      "constant": true,
      "inputs": [],
      "name": "isPaused",
      "outputs": [
        {
          "name": "",
          "type": "bool"
        }
      ],
      "payable": false,
      "stateMutability": "view",
      "type": "function"
    },
    {
      "constant": false,
      "inputs": [
        {
          "name": "newOwner",
          "type": "address"
        }
      ],
      "name": "transferOwnership",
      "outputs": [],
      "payable": false,
      "stateMutability": "nonpayable",
      "type": "function"
    },
    {
      "payable": true,
      "stateMutability": "payable",
      "type": "fallback"
    },
    {
      "anonymous": false,
      "inputs": [
        {
          "indexed": true,
          "name": "issuer",
          "type": "address"
        },
        {
          "indexed": false,
          "name": "currency",
          "type": "bytes32"
        },
        {
          "indexed": false,
          "name": "amount",
          "type": "uint256"
        }
      ],
      "name": "BondIssueRequest",
      "type": "event"
    },
    {
      "anonymous": false,
      "inputs": [
        {
          "indexed": true,
          "name": "issuer",
          "type": "address"
        },
        {
          "indexed": false,
          "name": "collateralCurrency",
          "type": "bytes32"
        },
        {
          "indexed": false,
          "name": "issuedAmount",
          "type": "uint256"
        },
        {
          "indexed": false,
          "name": "token",
          "type": "address"
        }
      ],
      "name": "BondIssued",
      "type": "event"
    },
    {
      "anonymous": false,
      "inputs": [
        {
          "indexed": true,
          "name": "redeemer",
          "type": "address"
        },
        {
          "indexed": false,
          "name": "redemptionCurrency",
          "type": "bytes32"
        },
        {
          "indexed": false,
          "name": "redemptionAmount",
          "type": "uint256"
        },
        {
          "indexed": false,
          "name": "token",
          "type": "address"
        }
      ],
      "name": "BondRedeemed",
      "type": "event"
    },
    {
      "anonymous": false,
      "inputs": [
        {
          "indexed": true,
          "name": "purchaser",
          "type": "address"
        },
        {
          "indexed": false,
          "name": "paidInCurrency",
          "type": "bytes32"
        },
        {
          "indexed": false,
          "name": "purchasedAmount",
          "type": "uint256"
        },
        {
          "indexed": false,
          "name": "token",
          "type": "address"
        }
      ],
      "name": "BondPurchased",
      "type": "event"
    },
    {
      "anonymous": false,
      "inputs": [],
      "name": "Paused",
      "type": "event"
    },
    {
      "anonymous": false,
      "inputs": [],
      "name": "Unpaused",
      "type": "event"
    },
    {
      "anonymous": false,
      "inputs": [
        {
          "indexed": true,
          "name": "previousOwner",
          "type": "address"
        },
        {
          "indexed": true,
          "name": "newOwner",
          "type": "address"
        }
      ],
      "name": "OwnershipTransferred",
      "type": "event"
    },
    {
      "constant": false,
      "inputs": [
        {
          "name": "_name",
          "type": "bytes32"
        },
        {
          "name": "_currency",
          "type": "bytes32"
        },
        {
          "name": "_owner",
          "type": "address"
        },
        {
          "name": "_fee",
          "type": "address"
        },
        {
          "name": "_bridge",
          "type": "address"
        }
      ],
      "name": "initialize",
      "outputs": [],
      "payable": false,
      "stateMutability": "nonpayable",
      "type": "function"
    },
    {
      "constant": false,
      "inputs": [
        {
          "name": "sender",
          "type": "address"
        }
      ],
      "name": "initialize",
      "outputs": [],
      "payable": false,
      "stateMutability": "nonpayable",
      "type": "function"
    },
    {
      "constant": false,
      "inputs": [
        {
          "name": "_signer",
          "type": "address"
        }
      ],
      "name": "setSigner",
      "outputs": [],
      "payable": false,
      "stateMutability": "nonpayable",
      "type": "function"
    },
    {
      "constant": false,
      "inputs": [
        {
          "name": "_token",
          "type": "address"
        },
        {
          "name": "_name",
          "type": "bytes32"
        }
      ],
      "name": "supportTokens",
      "outputs": [],
      "payable": false,
      "stateMutability": "nonpayable",
      "type": "function"
    },
    {
      "constant": true,
      "inputs": [
        {
          "name": "_token",
          "type": "address"
        }
      ],
      "name": "checkSupportForToken",
      "outputs": [
        {
          "name": "",
          "type": "bool"
        }
      ],
      "payable": false,
      "stateMutability": "view",
      "type": "function"
    },
    {
      "constant": true,
      "inputs": [],
      "name": "getSupportedTokens",
      "outputs": [
        {
          "components": [
            {
              "name": "tokenName",
              "type": "bytes32"
            },
            {
              "name": "tokenAddress",
              "type": "address"
            }
          ],
          "name": "",
          "type": "tuple[]"
        }
      ],
      "payable": false,
      "stateMutability": "view",
      "type": "function"
    },
    {
      "constant": false,
      "inputs": [
        {
          "name": "_token",
          "type": "address"
        },
        {
          "name": "_amount",
          "type": "uint256"
        },
        {
          "name": "_buyer",
          "type": "address"
        }
      ],
      "name": "requestIssue",
      "outputs": [],
      "payable": false,
      "stateMutability": "nonpayable",
      "type": "function"
    },
    {
      "constant": false,
      "inputs": [
        {
          "name": "amount",
          "type": "uint256"
        },
        {
          "name": "issuer",
          "type": "address"
        },
        {
          "name": "currency",
          "type": "bytes32"
        },
        {
          "name": "issuedBond",
          "type": "address"
        },
        {
          "name": "_hashedMessage",
          "type": "bytes32"
        },
        {
          "name": "_v",
          "type": "uint8"
        },
        {
          "name": "_r",
          "type": "bytes32"
        },
        {
          "name": "_s",
          "type": "bytes32"
        }
      ],
      "name": "addIssuedBalance",
      "outputs": [],
      "payable": false,
      "stateMutability": "nonpayable",
      "type": "function"
    },
    {
      "constant": false,
      "inputs": [
        {
          "name": "amount",
          "type": "uint256"
        },
        {
          "name": "purchaser",
          "type": "address"
        },
        {
          "name": "currency",
          "type": "bytes32"
        },
        {
          "name": "purchasedBond",
          "type": "address"
        },
        {
          "name": "_hashedMessage",
          "type": "bytes32"
        },
        {
          "name": "_v",
          "type": "uint8"
        },
        {
          "name": "_r",
          "type": "bytes32"
        },
        {
          "name": "_s",
          "type": "bytes32"
        }
      ],
      "name": "purchase",
      "outputs": [],
      "payable": false,
      "stateMutability": "nonpayable",
      "type": "function"
    },
    {
      "constant": false,
      "inputs": [
        {
          "name": "amount",
          "type": "uint256"
        },
        {
          "name": "payOutTo",
          "type": "address"
        },
        {
          "name": "currency",
          "type": "bytes32"
        },
        {
          "name": "redeemedToken",
          "type": "address"
        },
        {
          "name": "_hashedMessage",
          "type": "bytes32"
        },
        {
          "name": "_v",
          "type": "uint8"
        },
        {
          "name": "_r",
          "type": "bytes32"
        },
        {
          "name": "_s",
          "type": "bytes32"
        }
      ],
      "name": "redeemBond",
      "outputs": [],
      "payable": false,
      "stateMutability": "nonpayable",
      "type": "function"
    },
    {
      "constant": false,
      "inputs": [],
      "name": "pause",
      "outputs": [],
      "payable": false,
      "stateMutability": "nonpayable",
      "type": "function"
    },
    {
      "constant": false,
      "inputs": [],
      "name": "unpause",
      "outputs": [],
      "payable": false,
      "stateMutability": "nonpayable",
      "type": "function"
    }
  ],
  "bytecode": "0x6080604052612710806100136000396000f3fe6080604052600436106101145760003560e01c8063715018a6116100a057806395d89b411161006457806395d89b4114610363578063b187bd2614610378578063c4d66de81461038d578063d3c7c2c7146103ad578063f2fde38b146103cf57610114565b8063715018a6146102e2578063720bd707146102f75780638456cb59146103175780638da5cb5b1461032c5780638f32d59b1461034e57610114565b806346499770116100e75780634649977014610235578063464ff5e6146102555780634ba3f988146102755780635d4f5b1c146102955780636c19e783146102c257610114565b806306fdde03146101b35780632ceafc27146101de5780633f4ba83a146102005780633f66e3dd14610215575b3461011e57600080fd5b361561012957600080fd5b60665460ff161561013957600080fd5b336000908152607060209081526040808320600160d91b6432ba3432b90284529091529020546101749060801b61016f346103ef565b610455565b336000908152607060209081526040808320600160d91b6432ba3432b9028452909152902080546001600160801b03191660809290921c919091179055005b3480156101bf57600080fd5b506101c861085b565b6040516101d59190612583565b60405180910390f35b3480156101ea57600080fd5b506101fe6101f9366004611f72565b6108e9565b005b34801561020c57600080fd5b506101fe6109e9565b34801561022157600080fd5b506101fe6102303660046120c1565b610a1a565b34801561024157600080fd5b506101fe610250366004612017565b610eb8565b34801561026157600080fd5b506101fe6102703660046120c1565b611086565b34801561028157600080fd5b506101fe610290366004611fac565b6112a3565b3480156102a157600080fd5b506102b56102b0366004611f2e565b6115d0565b6040516101d591906124ad565b3480156102ce57600080fd5b506101fe6102dd366004611f2e565b6115fe565b3480156102ee57600080fd5b506101fe61164d565b34801561030357600080fd5b506101fe6103123660046120c1565b6116be565b34801561032357600080fd5b506101fe6118a8565b34801561033857600080fd5b506103416118d7565b6040516101d5919061244b565b34801561035a57600080fd5b506102b56118e7565b34801561036f57600080fd5b506101c861190d565b34801561038457600080fd5b506102b5611968565b34801561039957600080fd5b506101fe6103a8366004611f2e565b611971565b3480156103b957600080fd5b506103c2611a46565b6040516101d5919061249c565b3480156103db57600080fd5b506101fe6103ea366004611f2e565b611abb565b6000816103fe57506000610450565b81600061040a82611aee565b90506070811015610423578060700382901b9150610436565b6070811115610436576070810382901c91505b613fff0160701b6001600160701b03919091161760801b90505b919050565b6000617fff6001600160801b03608085811c8216607090811c8416939186901c90921690911c8116908214156104cb5780617fff14156104c1576001600160801b031985811690851614156104ae578492505050610855565b50600160ef1b61ffff0291506108559050565b8492505050610855565b80617fff14156104df578392505050610855565b6001607f1b608086901c6001600160801b0381169190911015906001600160701b0316836105105760019350610517565b600160701b175b6001607f1b608087901c6001600160801b0381169190911015906001600160701b031684610548576001945061054f565b600160701b175b8261057f576001600160801b03198816600160ff1b1461056f5787610572565b60005b9650505050505050610855565b8061059f576001600160801b03198916600160ff1b1461056f5788610572565b84860384151583151514156106ad5760708113156105c65789975050505050505050610855565b60008113156105d85790811c90610607565b606f198112156105f15788975050505050505050610855565b6000811215610607578060000384901c93508596505b92810192600160711b8410610622576001968701969390931c925b86617fff1415610657578461063f57600160f01b617fff02610649565b6001600160f01b03195b975050505050505050610855565b600160701b84101561066c5760009650610679565b6001600160701b03841693505b83607088901b8661068b576000610691565b6001607f1b5b6001600160801b0316171760801b975050505050505050610855565b60008113156106c857600184901b93506001870396506106df565b60008112156106df57600182901b91506001860396505b60708113156106f1576001915061073e565b600181131561070e576001810360018303901c600101915061073e565b606f19811215610721576001935061073e565b60001981121561073e576001816000030360018503901c60010193505b81841061074f578184039350610758565b83820393508294505b8361076e57506000965061085595505050505050565b600061077985611aee565b9050806071141561079f57600185901c6001600160701b031694506001880197506107ee565b60708110156107e1576070819003808911156107ce578086901b6001600160701b0316955080890398506107db565b600098600019019590951b945b506107ee565b6001600160701b03851694505b87617fff1415610824578561080b57600160f01b617fff02610815565b6001600160f01b03195b98505050505050505050610855565b84607089901b8761083657600061083c565b6001607f1b5b6001600160801b0316171760801b985050505050505050505b92915050565b6067805460408051602060026001851615610100026000190190941693909304601f810184900484028201840190925281815292918301828280156108e15780601f106108b6576101008083540402835291602001916108e1565b820191906000526020600020905b8154815290600101906020018083116108c457829003601f168201915b505050505081565b6108f16118e7565b61091957604051600160e51b62461bcd028152600401610910906125db565b60405180910390fd5b6001600160a01b0382166000908152607360205260409020546109e55761093e611def565b506040805180820182528281526001600160a01b03848116602080840182815260728054600181018255600082815296517fdffbd64cc7c1a7eb27984335d9416d51137a03d3fabec7141025c62663253fe160029092029182015591517fdffbd64cc7c1a7eb27984335d9416d51137a03d3fabec7141025c62663253fe290920180546001600160a01b031916929095169190911790935591549083526073909152919020555b5050565b6109f16118e7565b610a1057604051600160e51b62461bcd028152600401610910906125db565b610a18611b91565b565b600084604051602001610a2d91906124e3565b604051602081830303815290604052805190602001209050600081604051602001610a589190612434565b604051602081830303815290604052805190602001209050606660019054906101000a90046001600160a01b03166001600160a01b031660018287878760405160008152602001604052604051610ab29493929190612545565b6020604051602081039080840390855afa158015610ad4573d6000803e3d6000fd5b505050602060405103516001600160a01b031614610af157600080fd5b606b54604051600160e01b632ea7791702815230916001600160a01b031690632ea7791790610b24908c906004016125be565b60206040518083038186803b158015610b3c57600080fd5b505afa158015610b50573d6000803e3d6000fd5b505050506040513d601f19601f82011682018060405250610b749190810190611f54565b6001600160a01b03161415610eac576000606f6000896001600160a01b03166001600160a01b0316815260200190815260200160002060009054906101000a90046001600160a01b03169050606d6000826001600160a01b03166001600160a01b031681526020019081526020016000206000896001600160a01b03166001600160a01b031681526020019081526020016000206000018a90806001815401808255809150509060018203906000526020600020016000909192909190916101000a8154816001600160a01b0302191690836001600160a01b0316021790555050610cba606d6000836001600160a01b03166001600160a01b0316815260200190815260200160002060008a6001600160a01b03166001600160a01b0316815260200190815260200160002060010160109054906101000a900460801b61016f8d6103ef565b606d6000836001600160a01b03166001600160a01b0316815260200190815260200160002060008a6001600160a01b03166001600160a01b0316815260200190815260200160002060010160106101000a8154816001600160801b03021916908360801c0217905550606e60008b6001600160a01b03166001600160a01b031681526020019081526020016000206000896001600160a01b03166001600160a01b031681526020019081526020016000206000018190806001815401808255809150509060018203906000526020600020016000909192909190916101000a8154816001600160a01b0302191690836001600160a01b0316021790555050610e1d606e60008c6001600160a01b03166001600160a01b0316815260200190815260200160002060008a6001600160a01b03166001600160a01b0316815260200190815260200160002060010160109054906101000a900460801b61016f8d6103ef565b6001600160a01b038b81166000818152606e60209081526040808320948e16835293905282902060018101805460809590951c600160801b026001600160801b039095169490941790935560039092018b9055517f28941375b90ddb023a4c1149e157b4289100de23ecc1a208c7ba68fd31b8aa8290610ea2908c908f908d9061251d565b60405180910390a2505b50505050505050505050565b600054610100900460ff1680610ed15750610ed1611bc6565b80610edf575060005460ff16155b610efe57604051600160e51b62461bcd028152600401610910906125eb565b600054610100900460ff16158015610f29576000805460ff1961ff0019909116610100171660011790555b610f3284611971565b606b80546001600160a01b03191633179055604051610f5590879060200161241f565b60405160208183030381529060405260679080519060200190610f79929190611e06565b50604051600160e01b63f921e64702815273__stringutils___________________________9063f921e64790610fba9089906000906005906004016124bb565b60006040518083038186803b158015610fd257600080fd5b505af4158015610fe6573d6000803e3d6000fd5b505050506040513d6000823e601f3d908101601f1916820160405261100e919081019061208c565b805161102291606891602090910190611e06565b506069869055606a859055606c80546001600160a01b0319166001600160a01b038581169190911790915560668054610100600160a81b03191661010092851692909202919091179055801561107e576000805461ff00191690555b505050505050565b60008460405160200161109991906124e3565b6040516020818303038152906040528051906020012090506000816040516020016110c49190612434565b604051602081830303815290604052805190602001209050606660019054906101000a90046001600160a01b03166001600160a01b03166001828787876040516000815260200160405260405161111e9493929190612545565b6020604051602081039080840390855afa158015611140573d6000803e3d6000fd5b505050602060405103516001600160a01b03161461115d57600080fd5b606b54604051600160e01b632ea7791702815230916001600160a01b031690632ea7791790611190908c906004016125be565b60206040518083038186803b1580156111a857600080fd5b505afa1580156111bc573d6000803e3d6000fd5b505050506040513d601f19601f820116820180604052506111e09190810190611f54565b6001600160a01b03161415610eac576111f88a6103ef565b6001600160a01b038a81166000818152606d60209081526040808320948d1683529381528382206001810180546001600160801b03191660809790971c9690961790955560039094018c9055606f9093529181902080546001600160a01b03191683179055517f0374c98cc473258135c2b4fe78a223aed02348572d6786136e30f6c1e7a67dd09061128f908b908e908c9061251d565b60405180910390a250505050505050505050565b60665460ff16156112c957604051600160e51b62461bcd028152600401610910906125cb565b6001600160a01b038316600090815260736020526040812054156112eb575060015b8015611466576001600160a01b03841660009081526073602052604081205460728054909190811061131957fe5b9060005260206000209060020201600001549050846001600160a01b03166323b872dd3330876040518463ffffffff1660e01b815260040161135d93929190612459565b602060405180830381600087803b15801561137757600080fd5b505af115801561138b573d6000803e3d6000fd5b505050506040513d601f19601f820116820180604052506113af9190810190611ff9565b15611460576001600160a01b03831660009081526071602090815260408083208484529091529020546113e89060801b61016f866103ef565b6001600160a01b03841660008181526071602090815260408083208684529091529081902080546001600160801b03191660809490941c9390931790925590517f4436a6654a7129488fb9eb2ae15ce2049af46f230597828facbd096053ab0924906114579084908890612502565b60405180910390a25b506115ca565b336000908152607060209081526040808320600160d91b6432ba3432b90284529091528120546114a19060801b61149c866103ef565b611bcc565b60000b126115ca57336000908152607060209081526040808320600160d91b6432ba3432b90284529091529020546114e49060801b6114df856103ef565b611d15565b336000908152607060209081526040808320600160d91b6432ba3432b90280855290835281842080546001600160801b031916608096871c1790556001600160a01b038716845260718352818420908452909152902054611549911b61016f856103ef565b6001600160a01b0383166000818152607160209081526040808320600160d91b6432ba3432b90284529091529081902080546001600160801b03191660809490941c9390931790925590517f4436a6654a7129488fb9eb2ae15ce2049af46f230597828facbd096053ab0924906115c1908690612594565b60405180910390a25b50505050565b6001600160a01b038116600090815260736020526040812054156115f657506001610450565b506000610450565b6116066118e7565b61162557604051600160e51b62461bcd028152600401610910906125db565b606680546001600160a01b0390921661010002610100600160a81b0319909216919091179055565b6116556118e7565b61167457604051600160e51b62461bcd028152600401610910906125db565b6033546040516000916001600160a01b0316907f8be0079c531659141344cd1fd0a4f28419497f9722a3daafe3b4186f6b6457e0908390a3603380546001600160a01b0319169055565b6000846040516020016116d191906124e3565b6040516020818303038152906040528051906020012090506000816040516020016116fc9190612434565b604051602081830303815290604052805190602001209050606660019054906101000a90046001600160a01b03166001600160a01b0316600182878787604051600081526020016040526040516117569493929190612545565b6020604051602081039080840390855afa158015611778573d6000803e3d6000fd5b505050602060405103516001600160a01b03161461179557600080fd5b87600160d91b6432ba3432b90214156117e4576040516001600160a01b038a16908b156108fc02908c906000818181858888f193505050501580156117de573d6000803e3d6000fd5b5061186b565b604051600160e01b6323b872dd0281526001600160a01b038816906323b872dd906118179030908d908f90600401612481565b602060405180830381600087803b15801561183157600080fd5b505af1158015611845573d6000803e3d6000fd5b505050506040513d601f19601f820116820180604052506118699190810190611ff9565b505b886001600160a01b03167f93671572d5a2c485b580939eaa77af90adb49104e41459a5ec7e945482a20ef1898c8a60405161128f9392919061251d565b6118b06118e7565b6118cf57604051600160e51b62461bcd028152600401610910906125db565b610a18611d2e565b6033546001600160a01b03165b90565b6033546000906001600160a01b03166118fe611d66565b6001600160a01b031614905090565b6068805460408051602060026001851615610100026000190190941693909304601f810184900484028201840190925281815292918301828280156108e15780601f106108b6576101008083540402835291602001916108e1565b60665460ff1690565b600054610100900460ff168061198a575061198a611bc6565b80611998575060005460ff16155b6119b757604051600160e51b62461bcd028152600401610910906125eb565b600054610100900460ff161580156119e2576000805460ff1961ff0019909116610100171660011790555b603380546001600160a01b0319166001600160a01b0384811691909117918290556040519116906000907f8be0079c531659141344cd1fd0a4f28419497f9722a3daafe3b4186f6b6457e0908290a380156109e5576000805461ff00191690555050565b60606072805480602002602001604051908101604052809291908181526020016000905b82821015611ab25760008481526020908190206040805180820190915260028502909101805482526001908101546001600160a01b0316828401529083529092019101611a6a565b50505050905090565b611ac36118e7565b611ae257604051600160e51b62461bcd028152600401610910906125db565b611aeb81611d6a565b50565b6000808211611afc57600080fd5b6000600160801b8310611b1157608092831c92015b680100000000000000008310611b2957604092831c92015b6401000000008310611b3d57602092831c92015b620100008310611b4f57601092831c92015b6101008310611b6057600892831c92015b60108310611b7057600492831c92015b60048310611b8057600292831c92015b600283106108555760010192915050565b6066805460ff191690556040517fa45f47fdea8a1efdd9029a5691c7f759c32b7c698632b563573e155625d1693390600090a1565b303b1590565b600060016001607f1b03608084901c16600160701b617fff02811115611bf157600080fd5b60016001607f1b03608084901c16600160701b617fff02811115611c1457600080fd5b6001600160801b0319858116908516141580611c405750600160701b617fff02826001600160801b0316105b611c4957600080fd5b6001600160801b03198581169085161415611c6957600092505050610855565b60006001607f1b8660801c6001600160801b03161015905060006001607f1b8660801c6001600160801b0316101590508115611cd4578015611cc557826001600160801b0316846001600160801b031611611cc5576001611cc9565b6000195b945050505050610855565b8015611ce7576001945050505050610855565b826001600160801b0316846001600160801b031611611d0857600019611cc9565b6001945050505050610855565b6000611d2783600160ff1b8418610455565b9392505050565b6066805460ff191660011790556040517f9e87fac88ff661f02d44f95383c817fece4bce600a3dab7a54406878b965e75290600090a1565b3390565b6001600160a01b038116611d9357604051600160e51b62461bcd028152600401610910906125ae565b6033546040516001600160a01b038084169216907f8be0079c531659141344cd1fd0a4f28419497f9722a3daafe3b4186f6b6457e090600090a3603380546001600160a01b0319166001600160a01b0392909216919091179055565b604080518082019091526000808252602082015290565b828054600181600116156101000203166002900490600052602060002090601f016020900481019282601f10611e4757805160ff1916838001178555611e74565b82800160010185558215611e74579182015b82811115611e74578251825591602001919060010190611e59565b50611e80929150611e84565b5090565b6118e491905b80821115611e805760008155600101611e8a565b6000611d27823561265d565b6000611d27825161265d565b6000611d278251612668565b6000611d2782356118e4565b600082601f830112611edf57600080fd5b8151611ef2611eed82612622565b6125fb565b91508082526020830160208301858383011115611f0e57600080fd5b611f198382846126a0565b50505092915050565b6000611d278235612679565b600060208284031215611f4057600080fd5b6000611f4c8484611e9e565b949350505050565b600060208284031215611f6657600080fd5b6000611f4c8484611eaa565b60008060408385031215611f8557600080fd5b6000611f918585611e9e565b9250506020611fa285828601611ec2565b9150509250929050565b600080600060608486031215611fc157600080fd5b6000611fcd8686611e9e565b9350506020611fde86828701611ec2565b9250506040611fef86828701611e9e565b9150509250925092565b60006020828403121561200b57600080fd5b6000611f4c8484611eb6565b600080600080600060a0868803121561202f57600080fd5b600061203b8888611ec2565b955050602061204c88828901611ec2565b945050604061205d88828901611e9e565b935050606061206e88828901611e9e565b925050608061207f88828901611e9e565b9150509295509295909350565b60006020828403121561209e57600080fd5b815167ffffffffffffffff8111156120b557600080fd5b611f4c84828501611ece565b600080600080600080600080610100898b0312156120de57600080fd5b60006120ea8b8b611ec2565b98505060206120fb8b828c01611e9e565b975050604061210c8b828c01611ec2565b965050606061211d8b828c01611e9e565b955050608061212e8b828c01611ec2565b94505060a061213f8b828c01611f22565b93505060c06121508b828c01611ec2565b92505060e06121618b828c01611ec2565b9150509295985092959890939650565b600061217d83836123f2565b505060400190565b61218e8161267f565b82525050565b61218e8161265d565b60006121a882612650565b6121b28185612654565b93506121bd8361264a565b60005b828110156121e8576121d3868351612171565b95506121de8261264a565b91506001016121c0565b5093949350505050565b61218e81612668565b61218e816118e4565b61218e612210826118e4565b6118e4565b61218e8161268a565b600061222982612650565b6122338185612654565b93506122438185602086016126a0565b61224c816126cc565b9093019392505050565b600160d91b6432ba3432b9029052565b6000612273601c83610450565b7f19457468657265756d205369676e6564204d6573736167653a0a3332000000008152601c0192915050565b60006122ac602683612654565b7f4f776e61626c653a206e6577206f776e657220697320746865207a65726f20618152600160d01b6564647265737302602082015260400192915050565b600160ca1b66159a58509bdb99029052565b6000612309601883612654565b7f436f6e747261637420696e207061757365642073746174650000000000000000815260200192915050565b6000612342602083612654565b7f4f776e61626c653a2063616c6c6572206973206e6f7420746865206f776e6572815260200192915050565b600061237b602e83612654565b7f436f6e747261637420696e7374616e63652068617320616c726561647920626581527f656e20696e697469616c697a6564000000000000000000000000000000000000602082015260400192915050565b60006123da600683612654565b600160d01b654c32746f4c3102815260200192915050565b8051604083019061240384826121fb565b5060208201516115ca6020850182612194565b61218e81612679565b600061242b8284612204565b50602001919050565b600061243f82612266565b915061242b8284612204565b602081016108558284612194565b606081016124678286612185565b6124746020830185612185565b611f4c60408301846121fb565b6060810161248f8286612185565b6124746020830185612194565b60208082528101611d27818461219d565b6020810161085582846121f2565b606081016124c982866121fb565b6124d66020830185612215565b611f4c6040830184612215565b604081016124f182846121fb565b8181036020830152611d27816123cd565b6040810161251082856121fb565b611d2760208301846121fb565b6060810161252b82866121fb565b61253860208301856121fb565b611f4c6040830184612194565b6080810161255382876121fb565b6125606020830186612416565b61256d60408301856121fb565b61257a60608301846121fb565b95945050505050565b60208082528101611d27818461221e565b604081016125a182612256565b61085560208301846121fb565b602080825281016108558161229f565b604081016125a1826122ea565b60208082528101610855816122fc565b6020808252810161085581612335565b602080825281016108558161236e565b60405181810167ffffffffffffffff8111828210171561261a57600080fd5b604052919050565b600067ffffffffffffffff82111561263957600080fd5b506020601f91909101601f19160190565b60200190565b5190565b90815260200190565b60006108558261266d565b151590565b6001600160a01b031690565b60ff1690565b600061085582612695565b6000610855826118e4565b60006108558261265d565b60005b838110156126bb5781810151838201526020016126a3565b838111156115ca5750506000910152565b601f01601f19169056fea265627a7a72305820ac2f317565c43efa2691ea78cc20059a18494e11e4a86660d72c1c17177aa59e6c6578706572696d656e74616cf50037",
  "source": "// Verified bond manager\r\n// (c) Kallol Borah, 2021\r\n\r\npragma solidity 0.5.7;\r\npragma experimental ABIEncoderV2;\r\n\r\nimport \"./interfaces/IBond.sol\";\r\nimport \"./interfaces/IFactory.sol\";\r\nimport \"./interfaces/IRates.sol\";\r\nimport \"./utilities/Pausable.sol\";\r\nimport \"./utilities/StringUtils.sol\";\r\nimport \"abdk-libraries-solidity/ABDKMathQuad.sol\";\r\nimport \"@openzeppelin/upgrades/contracts/Initializable.sol\";\r\nimport \"@openzeppelin/contracts-ethereum-package/contracts/ownership/Ownable.sol\";\r\nimport \"@openzeppelin/contracts-ethereum-package/contracts/token/ERC20/IERC20.sol\";\r\n\r\ncontract Bond is IBond, Initializable, Ownable, Pausable {\r\n\r\n    using stringutils for *;\r\n\r\n    using ABDKMathQuad for uint256;\r\n    using ABDKMathQuad for int256;\r\n    using ABDKMathQuad for bytes16;\r\n\r\n    //address of bridge\r\n    address bridge;\r\n\r\n    //name of Verified token (eg, Via-USD)\r\n    string public name;\r\n    string public symbol;\r\n    bytes32 private bondName;\r\n    bytes32 private bondCurrency;\r\n\r\n    //verified token factory address\r\n    IFactory private factory;\r\n    \r\n    //verified rates\r\n    IRates private rates;   \r\n    \r\n    //a Verified bond has some value, corresponds to a fiat currency\r\n    //can have many purchasers and a issuer that have agreed to a zero coupon rate which determines the start price of the bond\r\n    //and a tenure in unix timestamps of seconds counted from 1970-01-01. Verified bonds are of one year tenure.\r\n    struct bond{\r\n        address[] counterParties;\r\n        bytes16 parValue;               //face value of bond issued or purchased in the bond's currency\r\n        bytes16 purchasedIssueAmount;   //amount purchased at price of bond for paidInCurrency\r\n        bytes16 paidInAmount;           //amount paid in as collateral for issue of bond or as payment for purchase of bond\r\n        bytes32 paidInCurrency;         //currency denomination of collateral for issue or payment for purchase of bond\r\n    }\r\n\r\n    //mapping issuer (address) to address of bond token (address) which acts as identifier for bonds on offer\r\n    mapping(address => mapping (address => bond)) private issues;\r\n\r\n    //mapping purchaser (address) to address of bond token (address) which acts as identifier for bonds subscribed\r\n    mapping(address => mapping (address => bond)) private purchases;\r\n\r\n    //mapping issued bond (address) to issuer (address)\r\n    mapping(address => address) private issuers;\r\n    \r\n    //mapping to party => currency deposited => amount\r\n    mapping(address => mapping(bytes32 => bytes16)) private L1deposits;\r\n    mapping(address => mapping(bytes32 => bytes16)) private L2deposits;\r\n\r\n    //supported ERC20 tokens for issuing Verified bond tokens\r\n    IBond.token[] private tokens;\r\n    mapping(address => uint256) private tokenIndex;\r\n\r\n    event BondIssueRequest(address indexed issuer, bytes32 currency, uint256 amount);\r\n    event BondIssued(address indexed issuer, bytes32 collateralCurrency, uint256 issuedAmount, address token);\r\n    event BondRedeemed(address indexed redeemer, bytes32 redemptionCurrency, uint256 redemptionAmount, address token);\r\n    event BondPurchased(address indexed purchaser, bytes32 paidInCurrency, uint256 purchasedAmount, address token);\r\n\r\n    function initialize(bytes32 _name, bytes32 _currency, address _owner, address _fee, address _bridge) public initializer {\r\n        Ownable.initialize(_owner);\r\n        factory = IFactory(msg.sender);\r\n        name = string(abi.encodePacked(_name));\r\n        symbol = _name.substring(0,5);\r\n        bondName = _name;\r\n        bondCurrency = _currency;\r\n        rates = IRates(_fee);\r\n        bridge = _bridge;\r\n    }\r\n\r\n    function setSigner(address _signer) onlyOwner external{\r\n        bridge = _signer;\r\n    }\r\n\r\n    //handling pay in of ether for issue of via bond tokens\r\n    function() external payable{\r\n        //ether paid in\r\n        require(msg.value !=0);\r\n        //only to pay in ether\r\n        require(msg.data.length==0);\r\n        // contract must not be paused\r\n        require(paused == false);\r\n        //check aml status\r\n        //require(fee.amlCheck(msg.sender)==true); \r\n        //issue verified bond tokens\r\n        L1deposits[msg.sender][\"ether\"] = ABDKMathQuad.add(L1deposits[msg.sender][\"ether\"], ABDKMathQuad.fromUInt(msg.value));  \r\n    }\r\n\r\n    /**\r\n        Specifies list of supported tokens that can be deposited to issue Verified cash tokens\r\n        @param  _token  address of token supported\r\n        @param  _name   name of token supported\r\n     */\r\n    function supportTokens(address _token, bytes32 _name) onlyOwner external {\r\n        if(tokenIndex[_token]==0){\r\n            IBond.token memory t = IBond.token ({\r\n                tokenName: _name,\r\n                tokenAddress: _token\r\n            });\r\n            tokens.push(t);\r\n            tokenIndex[_token] = tokens.length;\r\n        }\r\n    }\r\n\r\n    /**\r\n        Checks if a specified token is supported for issuing Verified cash tokens\r\n        @param  _token  token that is supported for issuing cash tokens\r\n     */\r\n    function checkSupportForToken(address _token) external view returns(bool){\r\n        if(tokenIndex[_token]>0)\r\n            return true;\r\n        else\r\n            return false;\r\n    }\r\n\r\n    /**\r\n        Returns array of tokens supported\r\n     */\r\n    function getSupportedTokens() external view returns(IBond.token[] memory){\r\n        return tokens;\r\n    }\r\n\r\n    /**\r\n        Used by external apps (eg, exchange, wallet) to buy Verified bond token \r\n        @param  _token  address of token used by investor to buy the bond token\r\n        @param  _amount amount of token that is transferred from investor to this bond token issuing contract\r\n     */\r\n    function requestIssue(address _token, uint256 _amount, address _buyer) external {\r\n        require(paused == false, \"Contract in paused state\");\r\n        bool found = false;\r\n        if(tokenIndex[_token]>0)\r\n            found = true;\r\n        if(found){\r\n            bytes32 currencyName = tokens[tokenIndex[_token]].tokenName;\r\n            if(IERC20(_token).transferFrom(msg.sender, address(this), _amount)){\r\n                L2deposits[_buyer][currencyName] = ABDKMathQuad.add(L2deposits[_buyer][currencyName], ABDKMathQuad.fromUInt(_amount));\r\n                emit BondIssueRequest(_buyer, currencyName, _amount);\r\n            }\r\n        }\r\n        else if(ABDKMathQuad.cmp(L1deposits[msg.sender][\"ether\"], ABDKMathQuad.fromUInt(_amount))>=0){\r\n            L1deposits[msg.sender][\"ether\"] = ABDKMathQuad.sub(L1deposits[msg.sender][\"ether\"], ABDKMathQuad.fromUInt(_amount));\r\n            L2deposits[_buyer][\"ether\"] = ABDKMathQuad.add(L2deposits[_buyer][\"ether\"], ABDKMathQuad.fromUInt(_amount));\r\n            emit BondIssueRequest(_buyer, \"ether\", _amount);                \r\n        }\r\n    }\r\n    \r\n    //adds issued Verified bond tokens to user balances\r\n    function addIssuedBalance(uint256 amount, address issuer, bytes32 currency, address issuedBond, bytes32 _hashedMessage, uint8 _v, bytes32 _r, bytes32 _s) \r\n                        external {\r\n        bytes32 payloadHash = keccak256(abi.encode(_hashedMessage, \"L2toL1\"));\r\n        bytes32 messageHash = keccak256(abi.encodePacked(\"\\x19Ethereum Signed Message:\\n32\", payloadHash));\r\n        require(ecrecover(messageHash, _v, _r, _s)== bridge);\r\n        if(factory.getIssuer(\"ViaBond\", currency)==address(this)){\r\n            issues[issuer][issuedBond].parValue = ABDKMathQuad.fromUInt(amount);\r\n            issues[issuer][issuedBond].paidInCurrency = currency;\r\n            issuers[issuedBond] = issuer;\r\n            emit BondIssued(issuer, currency, amount, issuedBond);\r\n        }\r\n    }\r\n\r\n    //adds purchased Verified bond tokens to user balances   \r\n    function purchase(uint256 amount, address purchaser, bytes32 currency, address purchasedBond, bytes32 _hashedMessage, uint8 _v, bytes32 _r, bytes32 _s) \r\n                        external {\r\n        bytes32 payloadHash = keccak256(abi.encode(_hashedMessage, \"L2toL1\"));\r\n        bytes32 messageHash = keccak256(abi.encodePacked(\"\\x19Ethereum Signed Message:\\n32\", payloadHash));\r\n        require(ecrecover(messageHash, _v, _r, _s)== bridge);\r\n        if(factory.getIssuer(\"ViaBond\", currency)==address(this)){\r\n            address issuer = issuers[purchasedBond];\r\n            issues[issuer][purchasedBond].counterParties.push(purchaser);\r\n            issues[issuer][purchasedBond].purchasedIssueAmount = ABDKMathQuad.add(issues[issuer][purchasedBond].purchasedIssueAmount, ABDKMathQuad.fromUInt(amount)); \r\n            purchases[purchaser][purchasedBond].counterParties.push(issuer);\r\n            purchases[purchaser][purchasedBond].purchasedIssueAmount = ABDKMathQuad.add(purchases[purchaser][purchasedBond].purchasedIssueAmount, ABDKMathQuad.fromUInt(amount));\r\n            purchases[purchaser][purchasedBond].paidInCurrency = currency;\r\n            emit BondPurchased(purchaser, currency, amount, purchasedBond);\r\n        }\r\n    }\r\n    \r\n    //redeems issued Verified bond\r\n    function redeemBond(uint256 amount, address payOutTo, bytes32 currency, address redeemedToken, bytes32 _hashedMessage, uint8 _v, bytes32 _r, bytes32 _s) \r\n                        external {\r\n        bytes32 payloadHash = keccak256(abi.encode(_hashedMessage, \"L2toL1\"));\r\n        bytes32 messageHash = keccak256(abi.encodePacked(\"\\x19Ethereum Signed Message:\\n32\", payloadHash));\r\n        require(ecrecover(messageHash, _v, _r, _s)== bridge);\r\n        if(currency==\"ether\")\r\n            address(uint160(payOutTo)).transfer(amount); \r\n        else{\r\n            IERC20(redeemedToken).transferFrom(address(this), payOutTo, amount);\r\n        }\r\n        emit BondRedeemed(payOutTo, currency, amount, redeemedToken);\r\n    }\r\n    \r\n    function pause() onlyOwner public {\r\n        _pause();\r\n    }\r\n\r\n    function unpause() onlyOwner public {\r\n        _unpause();\r\n    }\r\n    \r\n}",
  "sourcePath": "D:\\Code\\verified-quorum\\payments\\contracts\\Bond.sol",
  "compiler": {
    "name": "solc",
    "version": "0.5.7+commit.6da8b019.Emscripten.clang"
  },
  "schemaVersion": "3.4.3",
  "updatedAt": "2022-05-13T09:57:34.389Z",
  "networkType": "ethereum",
  "devdoc": {
    "methods": {
      "checkSupportForToken(address)": {
        "params": {
          "_token": "token that is supported for issuing cash tokens\r"
        }
      },
      "initialize(address)": {
        "details": "Initializes the contract setting the deployer as the initial owner."
      },
      "isOwner()": {
        "details": "Returns true if the caller is the current owner."
      },
      "isPaused()": {
        "return": "True: contract is paused\rFalse: contract is not paused\r"
      },
      "owner()": {
        "details": "Returns the address of the current owner."
      },
      "renounceOwnership()": {
        "details": "Leaves the contract without owner. It will not be possible to call `onlyOwner` functions anymore. Can only be called by the current owner.     * > Note: Renouncing ownership will leave the contract without an owner, thereby removing any functionality that is only available to the owner."
      },
      "requestIssue(address,uint256,address)": {
        "params": {
          "_amount": "amount of token that is transferred from investor to this bond token issuing contract\r",
          "_token": "address of token used by investor to buy the bond token\r"
        }
      },
      "supportTokens(address,bytes32)": {
        "params": {
          "_name": "name of token supported\r",
          "_token": "address of token supported\r"
        }
      },
      "transferOwnership(address)": {
        "details": "Transfers ownership of the contract to a new account (`newOwner`). Can only be called by the current owner."
      }
    }
  },
  "userdoc": {
    "methods": {
      "checkSupportForToken(address)": {
        "notice": "Checks if a specified token is supported for issuing Verified cash tokens\r"
      },
      "getSupportedTokens()": {
        "notice": "Returns array of tokens supported\r"
      },
      "isPaused()": {
        "notice": "returns whether or not the contract is paused\r"
      },
      "requestIssue(address,uint256,address)": {
        "notice": "Used by external apps (eg, exchange, wallet) to buy Verified bond token \r"
      },
      "supportTokens(address,bytes32)": {
        "notice": "Specifies list of supported tokens that can be deposited to issue Verified cash tokens\r"
      }
    }
  }
}