{
  "contractName": "Factory",
  "abi": [
    {
      "constant": true,
      "inputs": [
        {
          "name": "",
          "type": "uint256"
        }
      ],
      "name": "issues",
      "outputs": [
        {
          "name": "",
          "type": "address"
        }
      ],
      "payable": false,
      "stateMutability": "view",
      "type": "function"
    },
    {
      "constant": true,
      "inputs": [
        {
          "name": "_salt",
          "type": "uint256"
        },
        {
          "name": "_logic",
          "type": "address"
        },
        {
          "name": "_admin",
          "type": "address"
        },
        {
          "name": "_data",
          "type": "bytes"
        },
        {
          "name": "_signature",
          "type": "bytes"
        }
      ],
      "name": "getSigner",
      "outputs": [
        {
          "name": "",
          "type": "address"
        }
      ],
      "payable": false,
      "stateMutability": "view",
      "type": "function"
    },
    {
      "constant": false,
      "inputs": [
        {
          "name": "_salt",
          "type": "uint256"
        },
        {
          "name": "_logic",
          "type": "address"
        },
        {
          "name": "_admin",
          "type": "address"
        },
        {
          "name": "_data",
          "type": "bytes"
        },
        {
          "name": "_signature",
          "type": "bytes"
        }
      ],
      "name": "deploySigned",
      "outputs": [
        {
          "name": "",
          "type": "address"
        }
      ],
      "payable": false,
      "stateMutability": "nonpayable",
      "type": "function"
    },
    {
      "constant": true,
      "inputs": [
        {
          "name": "",
          "type": "uint256"
        }
      ],
      "name": "tokens",
      "outputs": [
        {
          "name": "",
          "type": "address"
        }
      ],
      "payable": false,
      "stateMutability": "view",
      "type": "function"
    },
    {
      "constant": false,
      "inputs": [
        {
          "name": "_salt",
          "type": "uint256"
        },
        {
          "name": "_logic",
          "type": "address"
        },
        {
          "name": "_admin",
          "type": "address"
        },
        {
          "name": "_data",
          "type": "bytes"
        }
      ],
      "name": "deploy",
      "outputs": [
        {
          "name": "",
          "type": "address"
        }
      ],
      "payable": false,
      "stateMutability": "nonpayable",
      "type": "function"
    },
    {
      "constant": true,
      "inputs": [
        {
          "name": "",
          "type": "address"
        }
      ],
      "name": "token",
      "outputs": [
        {
          "name": "tokenType",
          "type": "bytes32"
        },
        {
          "name": "name",
          "type": "bytes32"
        }
      ],
      "payable": false,
      "stateMutability": "view",
      "type": "function"
    },
    {
      "constant": false,
      "inputs": [],
      "name": "renounceOwnership",
      "outputs": [],
      "payable": false,
      "stateMutability": "nonpayable",
      "type": "function"
    },
    {
      "constant": true,
      "inputs": [
        {
          "name": "_salt",
          "type": "uint256"
        },
        {
          "name": "_sender",
          "type": "address"
        }
      ],
      "name": "getDeploymentAddress",
      "outputs": [
        {
          "name": "",
          "type": "address"
        }
      ],
      "payable": false,
      "stateMutability": "view",
      "type": "function"
    },
    {
      "constant": true,
      "inputs": [],
      "name": "owner",
      "outputs": [
        {
          "name": "",
          "type": "address"
        }
      ],
      "payable": false,
      "stateMutability": "view",
      "type": "function"
    },
    {
      "constant": true,
      "inputs": [],
      "name": "isOwner",
      "outputs": [
        {
          "name": "",
          "type": "bool"
        }
      ],
      "payable": false,
      "stateMutability": "view",
      "type": "function"
    },
    {
      "constant": false,
      "inputs": [
        {
          "name": "_logic",
          "type": "address"
        },
        {
          "name": "_data",
          "type": "bytes"
        }
      ],
      "name": "deployMinimal",
      "outputs": [
        {
          "name": "proxy",
          "type": "address"
        }
      ],
      "payable": false,
      "stateMutability": "nonpayable",
      "type": "function"
    },
    {
      "constant": false,
      "inputs": [
        {
          "name": "newOwner",
          "type": "address"
        }
      ],
      "name": "transferOwnership",
      "outputs": [],
      "payable": false,
      "stateMutability": "nonpayable",
      "type": "function"
    },
    {
      "anonymous": false,
      "inputs": [
        {
          "indexed": true,
          "name": "security",
          "type": "address"
        },
        {
          "indexed": false,
          "name": "issuer",
          "type": "address"
        },
        {
          "indexed": false,
          "name": "isin",
          "type": "bytes32"
        },
        {
          "indexed": false,
          "name": "currency",
          "type": "bytes32"
        }
      ],
      "name": "securitiesAdded",
      "type": "event"
    },
    {
      "anonymous": false,
      "inputs": [
        {
          "indexed": true,
          "name": "issuer",
          "type": "address"
        },
        {
          "indexed": false,
          "name": "tokenName",
          "type": "bytes32"
        },
        {
          "indexed": false,
          "name": "tokenType",
          "type": "bytes32"
        }
      ],
      "name": "IssuerCreated",
      "type": "event"
    },
    {
      "anonymous": false,
      "inputs": [
        {
          "indexed": true,
          "name": "previousOwner",
          "type": "address"
        },
        {
          "indexed": true,
          "name": "newOwner",
          "type": "address"
        }
      ],
      "name": "OwnershipTransferred",
      "type": "event"
    },
    {
      "anonymous": false,
      "inputs": [
        {
          "indexed": false,
          "name": "proxy",
          "type": "address"
        }
      ],
      "name": "ProxyCreated",
      "type": "event"
    },
    {
      "constant": false,
      "inputs": [
        {
          "name": "_security",
          "type": "address"
        },
        {
          "name": "_bridge",
          "type": "address"
        }
      ],
      "name": "initialize",
      "outputs": [],
      "payable": false,
      "stateMutability": "nonpayable",
      "type": "function"
    },
    {
      "constant": false,
      "inputs": [
        {
          "name": "sender",
          "type": "address"
        }
      ],
      "name": "initialize",
      "outputs": [],
      "payable": false,
      "stateMutability": "nonpayable",
      "type": "function"
    },
    {
      "constant": false,
      "inputs": [
        {
          "name": "_signer",
          "type": "address"
        }
      ],
      "name": "setSigner",
      "outputs": [],
      "payable": false,
      "stateMutability": "nonpayable",
      "type": "function"
    },
    {
      "constant": true,
      "inputs": [],
      "name": "getTokenCount",
      "outputs": [
        {
          "name": "tokenCount",
          "type": "uint256"
        }
      ],
      "payable": false,
      "stateMutability": "view",
      "type": "function"
    },
    {
      "constant": true,
      "inputs": [
        {
          "name": "n",
          "type": "uint256"
        }
      ],
      "name": "getToken",
      "outputs": [
        {
          "name": "",
          "type": "address"
        }
      ],
      "payable": false,
      "stateMutability": "view",
      "type": "function"
    },
    {
      "constant": true,
      "inputs": [
        {
          "name": "viaAddress",
          "type": "address"
        }
      ],
      "name": "getName",
      "outputs": [
        {
          "name": "",
          "type": "bytes32"
        }
      ],
      "payable": false,
      "stateMutability": "view",
      "type": "function"
    },
    {
      "constant": true,
      "inputs": [
        {
          "name": "viaAddress",
          "type": "address"
        }
      ],
      "name": "getType",
      "outputs": [
        {
          "name": "",
          "type": "bytes32"
        }
      ],
      "payable": false,
      "stateMutability": "view",
      "type": "function"
    },
    {
      "constant": true,
      "inputs": [
        {
          "name": "viaAddress",
          "type": "address"
        }
      ],
      "name": "getNameAndType",
      "outputs": [
        {
          "name": "",
          "type": "bytes32"
        },
        {
          "name": "",
          "type": "bytes32"
        }
      ],
      "payable": false,
      "stateMutability": "view",
      "type": "function"
    },
    {
      "constant": true,
      "inputs": [
        {
          "name": "tokenName",
          "type": "bytes32"
        },
        {
          "name": "tokenType",
          "type": "bytes32"
        }
      ],
      "name": "getTokenByNameType",
      "outputs": [
        {
          "name": "",
          "type": "address"
        }
      ],
      "payable": false,
      "stateMutability": "view",
      "type": "function"
    },
    {
      "constant": true,
      "inputs": [
        {
          "name": "tokenType",
          "type": "bytes32"
        },
        {
          "name": "tokenName",
          "type": "bytes32"
        }
      ],
      "name": "getIssuer",
      "outputs": [
        {
          "name": "",
          "type": "address"
        }
      ],
      "payable": false,
      "stateMutability": "view",
      "type": "function"
    },
    {
      "constant": true,
      "inputs": [],
      "name": "getIssues",
      "outputs": [
        {
          "name": "",
          "type": "address[]"
        }
      ],
      "payable": false,
      "stateMutability": "view",
      "type": "function"
    },
    {
      "constant": false,
      "inputs": [
        {
          "name": "_target",
          "type": "address"
        },
        {
          "name": "tokenName",
          "type": "bytes32"
        },
        {
          "name": "tokenType",
          "type": "bytes32"
        },
        {
          "name": "tokenCurrency",
          "type": "bytes32"
        },
        {
          "name": "feeRate",
          "type": "address"
        }
      ],
      "name": "createIssuer",
      "outputs": [],
      "payable": false,
      "stateMutability": "nonpayable",
      "type": "function"
    },
    {
      "constant": false,
      "inputs": [
        {
          "name": "security",
          "type": "address"
        },
        {
          "name": "company",
          "type": "bytes32"
        },
        {
          "name": "isin",
          "type": "bytes32"
        },
        {
          "name": "currency",
          "type": "bytes32"
        },
        {
          "name": "issuer",
          "type": "address"
        },
        {
          "name": "_hashedMessage",
          "type": "bytes32"
        },
        {
          "name": "_v",
          "type": "uint8"
        },
        {
          "name": "_r",
          "type": "bytes32"
        },
        {
          "name": "_s",
          "type": "bytes32"
        }
      ],
      "name": "issueSecurity",
      "outputs": [],
      "payable": false,
      "stateMutability": "nonpayable",
      "type": "function"
    },
    {
      "constant": true,
      "inputs": [
        {
          "name": "security",
          "type": "address"
        }
      ],
      "name": "getHolder",
      "outputs": [
        {
          "name": "",
          "type": "address"
        }
      ],
      "payable": false,
      "stateMutability": "view",
      "type": "function"
    },
    {
      "constant": true,
      "inputs": [
        {
          "name": "securityToken",
          "type": "address"
        }
      ],
      "name": "getSecurity",
      "outputs": [
        {
          "name": "",
          "type": "address"
        }
      ],
      "payable": false,
      "stateMutability": "view",
      "type": "function"
    },
    {
      "constant": true,
      "inputs": [
        {
          "name": "security",
          "type": "address"
        },
        {
          "name": "issuer",
          "type": "address"
        }
      ],
      "name": "getSecurityToken",
      "outputs": [
        {
          "name": "",
          "type": "address"
        },
        {
          "name": "",
          "type": "bytes32"
        },
        {
          "name": "",
          "type": "bytes32"
        },
        {
          "name": "",
          "type": "bytes32"
        }
      ],
      "payable": false,
      "stateMutability": "view",
      "type": "function"
    },
    {
      "constant": false,
      "inputs": [
        {
          "name": "security",
          "type": "address"
        },
        {
          "name": "transferor",
          "type": "address"
        },
        {
          "name": "transferee",
          "type": "address"
        },
        {
          "name": "amount",
          "type": "uint256"
        },
        {
          "name": "_hashedMessage",
          "type": "bytes32"
        },
        {
          "name": "_v",
          "type": "uint8"
        },
        {
          "name": "_r",
          "type": "bytes32"
        },
        {
          "name": "_s",
          "type": "bytes32"
        }
      ],
      "name": "addBalance",
      "outputs": [],
      "payable": false,
      "stateMutability": "nonpayable",
      "type": "function"
    },
    {
      "constant": true,
      "inputs": [
        {
          "name": "issue",
          "type": "address"
        }
      ],
      "name": "checkProduct",
      "outputs": [
        {
          "name": "",
          "type": "bool"
        }
      ],
      "payable": false,
      "stateMutability": "view",
      "type": "function"
    }
  ],
  "bytecode": "0x6080604081905261001060a0610034565b601f1982820381018352601f90910116604052805160209190910120600055610042565b6109a680620032cd83390190565b61327b80620000526000396000f3fe608060405234801561001057600080fd5b50600436106101da5760003560e01c80636d46a1db11610104578063c4d66de8116100a2578063eb8a3a4411610071578063eb8a3a44146109ba578063f2fde38b14610a17578063f3458f1414610a3d578063f429f19b14610a60576101da565b8063c4d66de81461090f578063cd75c7d414610935578063cf0438f01461095b578063e4b50cb81461099d576101da565b806381ae1f5b116100de57806381ae1f5b1461081f5780638da5cb5b1461084b5780638f32d59b14610853578063b3eeb5e21461085b576101da565b80636d46a1db146107e9578063715018a61461080f57806378a8956714610817576101da565b80634434f9731161017c5780635fd4b08a1161014b5780635fd4b08a146106885780636150864c146106c0578063668151a7146107845780636c19e783146107c3576101da565b80634434f973146105bf578063485cc955146106175780634a161b27146106455780634f64b2be1461066b576101da565b80632ea77917116101b85780632ea77917146103bb578063332d6626146103de5780633d07d20b146105275780633ea6c82d14610585576101da565b806304e15de5146101df578063093e034414610218578063290f8f5614610272575b600080fd5b6101fc600480360360208110156101f557600080fd5b5035610a86565b604080516001600160a01b039092168252519081900360200190f35b610270600480360361010081101561022f57600080fd5b506001600160a01b03813581169160208101358216916040820135169060608101359060808101359060ff60a0820135169060c08101359060e00135610aad565b005b6101fc600480360360a081101561028857600080fd5b8135916001600160a01b03602082013581169260408301359091169190810190608081016060820135600160201b8111156102c257600080fd5b8201836020820111156102d457600080fd5b803590602001918460018302840111600160201b831117156102f557600080fd5b91908080601f0160208091040260200160405190810160405280939291908181526020018383808284376000920191909152509295949360208101935035915050600160201b81111561034757600080fd5b82018360208201111561035957600080fd5b803590602001918460018302840111600160201b8311171561037a57600080fd5b91908080601f016020809104026020016040519081016040528093929190818152602001838380828437600092019190915250929550610e60945050505050565b6101fc600480360360408110156103d157600080fd5b5080359060200135610f4f565b6101fc600480360360a08110156103f457600080fd5b8135916001600160a01b03602082013581169260408301359091169190810190608081016060820135600160201b81111561042e57600080fd5b82018360208201111561044057600080fd5b803590602001918460018302840111600160201b8311171561046157600080fd5b91908080601f0160208091040260200160405190810160405280939291908181526020018383808284376000920191909152509295949360208101935035915050600160201b8111156104b357600080fd5b8201836020820111156104c557600080fd5b803590602001918460018302840111600160201b831117156104e657600080fd5b91908080601f016020809104026020016040519081016040528093929190818152602001838380828437600092019190915250929550610f79945050505050565b6105556004803603604081101561053d57600080fd5b506001600160a01b0381358116916020013516610ff6565b604080516001600160a01b0390951685526020850193909352838301919091526060830152519081900360800190f35b6105ab6004803603602081101561059b57600080fd5b50356001600160a01b0316611033565b604080519115158252519081900360200190f35b6105c761108c565b60408051602080825283518183015283519192839290830191858101910280838360005b838110156106035781810151838201526020016105eb565b505050509050019250505060405180910390f35b6102706004803603604081101561062d57600080fd5b506001600160a01b03813581169160200135166110ee565b6101fc6004803603602081101561065b57600080fd5b50356001600160a01b03166111cd565b6101fc6004803603602081101561068157600080fd5b50356111eb565b6106ae6004803603602081101561069e57600080fd5b50356001600160a01b03166111f8565b60408051918252519081900360200190f35b6101fc600480360360808110156106d657600080fd5b8135916001600160a01b03602082013581169260408301359091169190810190608081016060820135600160201b81111561071057600080fd5b82018360208201111561072257600080fd5b803590602001918460018302840111600160201b8311171561074357600080fd5b91908080601f016020809104026020016040519081016040528093929190818152602001838380828437600092019190915250929550611216945050505050565b6107aa6004803603602081101561079a57600080fd5b50356001600160a01b031661122e565b6040805192835260208301919091528051918290030190f35b610270600480360360208110156107d957600080fd5b50356001600160a01b0316611250565b6107aa600480360360208110156107ff57600080fd5b50356001600160a01b03166112bc565b6102706112d5565b6106ae611369565b6101fc6004803603604081101561083557600080fd5b50803590602001356001600160a01b031661136f565b6101fc6113d4565b6105ab6113e3565b6101fc6004803603604081101561087157600080fd5b6001600160a01b038235169190810190604081016020820135600160201b81111561089b57600080fd5b8201836020820111156108ad57600080fd5b803590602001918460018302840111600160201b831117156108ce57600080fd5b91908080601f016020809104026020016040519081016040528093929190818152602001838380828437600092019190915250929550611409945050505050565b6102706004803603602081101561092557600080fd5b50356001600160a01b031661156a565b6101fc6004803603602081101561094b57600080fd5b50356001600160a01b031661165e565b610270600480360360a081101561097157600080fd5b506001600160a01b0381358116916020810135916040820135916060810135916080909101351661167c565b6101fc600480360360208110156109b357600080fd5b5035611931565b61027060048036036101208110156109d157600080fd5b506001600160a01b0381358116916020810135916040820135916060810135916080820135169060a08101359060ff60c0820135169060e081013590610100013561195b565b61027060048036036020811015610a2d57600080fd5b50356001600160a01b0316611df2565b6101fc60048036036040811015610a5357600080fd5b5080359060200135611e48565b6106ae60048036036020811015610a7657600080fd5b50356001600160a01b0316611f09565b606a8181548110610a9357fe5b6000918252602090912001546001600160a01b0316905081565b60408051602080820187905281830183905260066060830152600160d01b654c32746f4c31026080808401919091528351808403909101815260a0830184528051908201207f19457468657265756d205369676e6564204d6573736167653a0a33320000000060c084015260dc8084018290528451808503909101815260fc8401808652815191840191909120606f54600090925261011c850180875281905260ff891661013c86015261015c850188905261017c850187905294519194936001600160a01b039091169260019261019c80840193601f198301929081900390910190855afa158015610ba4573d6000803e3d6000fd5b505050602060405103516001600160a01b03161480610bdc57506001600160a01b038a81166000908152606c60205260409020541633145b610c1a57604051600160e51b62461bcd02815260040180806020018281038252602d8152602001806131af602d913960400191505060405180910390fd5b6001600160a01b03891615610d8d576001600160a01b03808b166000908152606b60209081526040808320938c1683529290522060040154610c679060801b610c6289611f24565b611f89565b6001600160a01b038b81166000908152606b602090815260408083208d85168452909152808220600490810180546001600160801b031916608096871c179055928d16825290200154610cc3911b610cbe89611f24565b61238d565b6001600160a01b038b81166000818152606b602090815260408083208f8616808552818452828520600490810180546001600160801b03191660809a909a1c99909917909855948452606c83528184205486168452909152808220600301548151600160e11b637aa9bf6f028152958601939093528c84166024860152604485018c905251919092169263f5537ede92606480830193919282900301818387803b158015610d7057600080fd5b505af1158015610d84573d6000803e3d6000fd5b50505050610e54565b610d9687611f24565b6001600160a01b038b81166000818152606b602090815260408083208e8616808552818452828520600490810180546001600160801b03191660809a909a1c99909917909855948452606c83528184205486168452909152808220600301548151600160e31b630f38ca0d02815295860193909352602485018c90525191909216926379c6506892604480830193919282900301818387803b158015610e3b57600080fd5b505af1158015610e4f573d6000803e3d6000fd5b505050505b50505050505050505050565b600080610f38878787873060405160200180868152602001856001600160a01b03166001600160a01b031660601b8152601401846001600160a01b03166001600160a01b031660601b815260140183805190602001908083835b60208310610ed95780518252601f199092019160209182019101610eba565b6001836020036101000a038019825116818451168082178552505050505050905001826001600160a01b03166001600160a01b031660601b815260140195505050505050604051602081830303815290604052805190602001206123a6565b9050610f4481846123f7565b979650505050505050565b60008281526068602090815260408083208484529091529020546001600160a01b03165b92915050565b600080610f898787878787610e60565b90506001600160a01b038116610fe95760408051600160e51b62461bcd02815260206004820152601160248201527f496e76616c6964207369676e6174757265000000000000000000000000000000604482015290519081900360640190fd5b610f4487878787856124e5565b6001600160a01b039182166000908152606b6020908152604080832093851683529290522060038101546002820154600183015492549190931693565b6001600160a01b038181166000908152606d602052604081205490911615158061107657506001600160a01b038281166000908152606c60205260409020541615155b1561108357506001611087565b5060005b919050565b6060606a8054806020026020016040519081016040528092919081815260200182805480156110e457602002820191906000526020600020905b81546001600160a01b031681526001909101906020018083116110c6575b5050505050905090565b600154610100900460ff16806111075750611107612619565b80611115575060015460ff16155b61115357604051600160e51b62461bcd02815260040180806020018281038252602e815260200180613222602e913960400191505060405180910390fd5b600154610100900460ff1615801561117d576001805460ff1961ff00199091166101001716811790555b6111863361156a565b606e80546001600160a01b038086166001600160a01b031992831617909255606f80549285169290911691909117905580156111c8576001805461ff00191690555b505050565b6001600160a01b039081166000908152606d60205260409020541690565b60698181548110610a9357fe5b6001600160a01b031660009081526067602052604090206001015490565b600061122585858585336124e5565b95945050505050565b6001600160a01b03166000908152606760205260409020600181015490549091565b6112586113e3565b61129a5760408051600160e51b62461bcd0281526020600482018190526024820152600080516020613202833981519152604482015290519081900360640190fd5b606f80546001600160a01b0319166001600160a01b0392909216919091179055565b6067602052600090815260409020805460019091015482565b6112dd6113e3565b61131f5760408051600160e51b62461bcd0281526020600482018190526024820152600080516020613202833981519152604482015290519081900360640190fd5b6034546040516000916001600160a01b0316907f8be0079c531659141344cd1fd0a4f28419497f9722a3daafe3b4186f6b6457e0908390a3603480546001600160a01b0319169055565b60695490565b60008061137c848461261f565b600054604080516001600160f81b031960208083019190915230606090811b602184015260358301959095526055808301949094528251808303909401845260759091019091528151910120811b901c949350505050565b6034546001600160a01b031690565b6034546000906001600160a01b03166113fa612658565b6001600160a01b031614905090565b6000808360601b90506040517f3d602d80600a3d3981f3363d3d373d3d3d363d7300000000000000000000000081528160148201527f5af43d82803e903d91602b57fd5bf3000000000000000000000000000000000060288201526037816000f0604080516001600160a01b038316815290519194507efffc2da0b561cae30d9826d37709e9421c4725faebc226cbbb7ef5fc5e7349925081900360200190a1825115611563576000826001600160a01b0316846040518082805190602001908083835b602083106114ec5780518252601f1990920191602091820191016114cd565b6001836020036101000a0380198251168184511680821785525050505050509050019150506000604051808303816000865af19150503d806000811461154e576040519150601f19603f3d011682016040523d82523d6000602084013e611553565b606091505b505090508061156157600080fd5b505b5092915050565b600154610100900460ff16806115835750611583612619565b80611591575060015460ff16155b6115cf57604051600160e51b62461bcd02815260040180806020018281038252602e815260200180613222602e913960400191505060405180910390fd5b600154610100900460ff161580156115f9576001805460ff1961ff00199091166101001716811790555b603480546001600160a01b0319166001600160a01b0384811691909117918290556040519116906000907f8be0079c531659141344cd1fd0a4f28419497f9722a3daafe3b4186f6b6457e0908290a3801561165a576001805461ff00191690555b5050565b6001600160a01b039081166000908152606c60205260409020541690565b6116846113e3565b6116c65760408051600160e51b62461bcd0281526020600482018190526024820152600080516020613202833981519152604482015290519081900360640190fd5b606084836116d26113d4565b606f5460408051602481019590955260448501939093526001600160a01b03918216606485015281861660848501521660a4808401919091528151808403909101815260c490920190526020810180516001600160e01b0316600160e41b630464997702179052905060006117478783611409565b9050806001600160a01b03167fc86ce51250387b92cfaa914f7afcac92982a98daa3e1b3dd6be12f8be38af5988787604051808381526020018281526020019250505060405180910390a284600160e31b63086c2e6d02141561185f57604080518082018252600160cb1b660acd2c286c2e6d02815260208082018781526001600160a01b0385166000818152606784528581209451855591516001948501556069805494850190557f7fb4302e8e91f9110a6554c2c0a24601252c2a42c2220ca988efcfe39991430890930180546001600160a01b031990811685179091558882527f86682a7e3c9ea5ac84dc001f2f1f8323db283f66552d8a902d495172bcc216ae909252929092208054909216179055611928565b84600160e21b63109bdb9902141561192857604080518082018252600160ca1b66159a58509bdb9902815260208082018781526001600160a01b0385166000818152606784528581209451855591516001948501556069805494850190557f7fb4302e8e91f9110a6554c2c0a24601252c2a42c2220ca988efcfe39991430890930180546001600160a01b031990811685179091558882527fb3bd0f6dd7a61183d735fce749f5fe8b14c9ee68735195a43f8cebd6de0024d69092529290922080549092161790555b50505050505050565b60006069828154811061194057fe5b6000918252602090912001546001600160a01b031692915050565b60408051602080820187905281830183905260066060830152600160d01b654c32746f4c31026080808401919091528351808403909101815260a0830184528051908201207f19457468657265756d205369676e6564204d6573736167653a0a33320000000060c084015260dc8084018290528451808503909101815260fc8401808652815191840191909120606f54600090925261011c850180875281905260ff891661013c86015261015c850188905261017c850187905294519194936001600160a01b039091169260019261019c80840193601f198301929081900390910190855afa158015611a52573d6000803e3d6000fd5b505050602060405103516001600160a01b03161480611a7957506001600160a01b03871633145b611acd5760408051600160e51b62461bcd02815260206004820181905260248201527f556e617574686f72697a656420697373756572206f662073656375726974792e604482015290519081900360640190fd5b606f5460408051602481018d9052604481018c90523060648201526001600160a01b039283166084808301919091528251808303909101815260a49091019091526020810180516001600160e01b0316600160e11b630fab9b2f02179052606e549091600091611b3e911683611409565b90508a606b60008f6001600160a01b03166001600160a01b0316815260200190815260200160002060008b6001600160a01b03166001600160a01b03168152602001908152602001600020600201819055508b606b60008f6001600160a01b03166001600160a01b0316815260200190815260200160002060008b6001600160a01b03166001600160a01b031681526020019081526020016000206001018190555089606b60008f6001600160a01b03166001600160a01b0316815260200190815260200160002060008b6001600160a01b03166001600160a01b031681526020019081526020016000206000018190555080606b60008f6001600160a01b03166001600160a01b0316815260200190815260200160002060008b6001600160a01b03166001600160a01b0316815260200190815260200160002060030160006101000a8154816001600160a01b0302191690836001600160a01b0316021790555088606c60008f6001600160a01b03166001600160a01b0316815260200190815260200160002060006101000a8154816001600160a01b0302191690836001600160a01b031602179055508c606d6000836001600160a01b03166001600160a01b0316815260200190815260200160002060006101000a8154816001600160a01b0302191690836001600160a01b03160217905550606a8190806001815401808255809150509060018203906000526020600020016000909192909190916101000a8154816001600160a01b0302191690836001600160a01b0316021790555050806001600160a01b03167fc6dcd9892d96224f2231ea63929a93993cc13ba35ed4f182333a05ad231e3a318a8d8d60405180846001600160a01b03166001600160a01b03168152602001838152602001828152602001935050505060405180910390a250505050505050505050505050565b611dfa6113e3565b611e3c5760408051600160e51b62461bcd0281526020600482018190526024820152600080516020613202833981519152604482015290519081900360640190fd5b611e458161265c565b50565b6000805b60695481101561156357836067600060698481548110611e6857fe5b60009182526020808320909101546001600160a01b03168352820192909252604001902060010154148015611ed15750826067600060698481548110611eaa57fe5b60009182526020808320909101546001600160a01b03168352820192909252604001902054145b15611f015760698181548110611ee357fe5b6000918252602090912001546001600160a01b03169150610f739050565b600101611e4c565b6001600160a01b031660009081526067602052604090205490565b600081611f3357506000611087565b816000611f3f82612700565b90506070811015611f58578060700382901b9150611f6b565b6070811115611f6b576070810382901c91505b613fff0160701b6001600160701b03919091161760801b9050611087565b6000617fff6001600160801b03608085811c8216607090811c8416939186901c90921690911c811690821415611fff5780617fff1415611ff5576001600160801b03198581169085161415611fe2578492505050610f73565b50600160ef1b61ffff029150610f739050565b8492505050610f73565b80617fff1415612013578392505050610f73565b6001607f1b608086901c6001600160801b0381169190911015906001600160701b031683612044576001935061204b565b600160701b175b6001607f1b608087901c6001600160801b0381169190911015906001600160701b03168461207c5760019450612083565b600160701b175b826120b3576001600160801b03198816600160ff1b146120a357876120a6565b60005b9650505050505050610f73565b806120d3576001600160801b03198916600160ff1b146120a357886120a6565b84860384151583151514156121e15760708113156120fa5789975050505050505050610f73565b600081131561210c5790811c9061213b565b606f198112156121255788975050505050505050610f73565b600081121561213b578060000384901c93508596505b92810192600160711b8410612156576001968701969390931c925b86617fff141561218b578461217357600160f01b617fff0261217d565b6001600160f01b03195b975050505050505050610f73565b600160701b8410156121a057600096506121ad565b6001600160701b03841693505b83607088901b866121bf5760006121c5565b6001607f1b5b6001600160801b0316171760801b975050505050505050610f73565b60008113156121fc57600184901b9350600187039650612213565b600081121561221357600182901b91506001860396505b60708113156122255760019150612272565b6001811315612242576001810360018303901c6001019150612272565b606f198112156122555760019350612272565b600019811215612272576001816000030360018503901c60010193505b81841061228357818403935061228c565b83820393508294505b836122a2575060009650610f7395505050505050565b60006122ad85612700565b905080607114156122d357600185901c6001600160701b03169450600188019750612322565b607081101561231557607081900380891115612302578086901b6001600160701b03169550808903985061230f565b600098600019019590951b945b50612322565b6001600160701b03851694505b87617fff1415612358578561233f57600160f01b617fff02612349565b6001600160f01b03195b98505050505050505050610f73565b84607089901b8761236a576000612370565b6001607f1b5b6001600160801b0316171760801b98505050505050505050610f73565b600061239f83600160ff1b8418611f89565b9392505050565b604080517f19457468657265756d205369676e6564204d6573736167653a0a333200000000602080830191909152603c8083019490945282518083039094018452605c909101909152815191012090565b6000815160411461240a57506000610f73565b60208201516040830151606084015160001a7f7fffffffffffffffffffffffffffffff5d576e7357a4501ddfe92f46681b20a08211156124505760009350505050610f73565b8060ff16601b1415801561246857508060ff16601c14155b156124795760009350505050610f73565b6040805160008152602080820180845289905260ff8416828401526060820186905260808201859052915160019260a0808401939192601f1981019281900390910190855afa1580156124d0573d6000803e3d6000fd5b5050604051601f190151979650505050505050565b6000806124f287846127a2565b604080516001600160a01b038316815290519192507efffc2da0b561cae30d9826d37709e9421c4725faebc226cbbb7ef5fc5e7349919081900360200190a1604051600160e01b63cf7a1d770281526001600160a01b038781166004830190815287821660248401526060604484019081528751606485015287519285169363cf7a1d77938b938b938b939192909160840190602085019080838360005b838110156125a8578181015183820152602001612590565b50505050905090810190601f1680156125d55780820380516001836020036101000a031916815260200191505b50945050505050600060405180830381600087803b1580156125f657600080fd5b505af115801561260a573d6000803e3d6000fd5b50929998505050505050505050565b303b1590565b604080516020808201949094526001600160a01b039290921660601b828201528051808303603401815260549092019052805191012090565b3390565b6001600160a01b0381166126a457604051600160e51b62461bcd0281526004018080602001828103825260268152602001806131dc6026913960400191505060405180910390fd5b6034546040516001600160a01b038084169216907f8be0079c531659141344cd1fd0a4f28419497f9722a3daafe3b4186f6b6457e090600090a3603480546001600160a01b0319166001600160a01b0392909216919091179055565b600080821161270e57600080fd5b6000600160801b831061272357608092831c92015b68010000000000000000831061273b57604092831c92015b600160201b831061274e57602092831c92015b62010000831061276057601092831c92015b610100831061277157600892831c92015b6010831061278157600492831c92015b6004831061279157600292831c92015b60028310610f735760010192915050565b6000806060604051806020016127b7906127fb565b601f1982820381018352601f90910116604052905060006127d8868661261f565b9050808251602084016000f59250823b6127f157600080fd5b5090949350505050565b6109a6806128098339019056fe608060405234801561001057600080fd5b50610986806100206000396000f3fe6080604052600436106100705760003560e01c80638f2839701161004e5780638f2839701461015e578063cf7a1d7714610191578063d1f5789414610250578063f851a4401461030657610070565b80633659cfe61461007a5780634f1ef286146100ad5780635c60da1b1461012d575b61007861031b565b005b34801561008657600080fd5b506100786004803603602081101561009d57600080fd5b50356001600160a01b0316610335565b610078600480360360408110156100c357600080fd5b6001600160a01b0382351691908101906040810160208201356401000000008111156100ee57600080fd5b82018360208201111561010057600080fd5b8035906020019184600183028401116401000000008311171561012257600080fd5b50909250905061036f565b34801561013957600080fd5b5061014261041c565b604080516001600160a01b039092168252519081900360200190f35b34801561016a57600080fd5b506100786004803603602081101561018157600080fd5b50356001600160a01b0316610459565b610078600480360360608110156101a757600080fd5b6001600160a01b0382358116926020810135909116918101906060810160408201356401000000008111156101db57600080fd5b8201836020820111156101ed57600080fd5b8035906020019184600183028401116401000000008311171561020f57600080fd5b91908080601f016020809104026020016040519081016040528093929190818152602001838380828437600092019190915250929550610516945050505050565b6100786004803603604081101561026657600080fd5b6001600160a01b03823516919081019060408101602082013564010000000081111561029157600080fd5b8201836020820111156102a357600080fd5b803590602001918460018302840111640100000000831117156102c557600080fd5b91908080601f0160208091040260200160405190810160405280939291908181526020018383808284376000920191909152509295506105a6945050505050565b34801561031257600080fd5b506101426106e6565b610323610711565b61033361032e610774565b610799565b565b61033d6107bd565b6001600160a01b0316336001600160a01b031614156103645761035f816107e2565b61036c565b61036c61031b565b50565b6103776107bd565b6001600160a01b0316336001600160a01b0316141561040f57610399836107e2565b6000836001600160a01b031683836040518083838082843760405192019450600093509091505080830381855af49150503d80600081146103f6576040519150601f19603f3d011682016040523d82523d6000602084013e6103fb565b606091505b505090508061040957600080fd5b50610417565b61041761031b565b505050565b60006104266107bd565b6001600160a01b0316336001600160a01b0316141561044e57610447610774565b9050610456565b61045661031b565b90565b6104616107bd565b6001600160a01b0316336001600160a01b03161415610364576001600160a01b0381166104c257604051600160e51b62461bcd0281526004018080602001828103825260368152602001806108ea6036913960400191505060405180910390fd5b7f7e644d79422f17c01e4894b5f4f588d331ebfa28653d42ae832dc59e38c9798f6104eb6107bd565b604080516001600160a01b03928316815291841660208301528051918290030190a161035f81610822565b6000610520610774565b6001600160a01b03161461053357600080fd5b61053d83826105a6565b604080517f656970313936372e70726f78792e61646d696e00000000000000000000000000815290519081900360130190207fb53127684a568b3173ae13b9f8a6016e243e63b6e8ee1178d6a717850b5d61036000199091011461059d57fe5b61041782610822565b60006105b0610774565b6001600160a01b0316146105c357600080fd5b604080517f656970313936372e70726f78792e696d706c656d656e746174696f6e000000008152905190819003601c0190207f360894a13ba1a3210667c828492db98dca3e2076cc3735a920a3ca505d382bbc6000199091011461062357fe5b61062c82610846565b8051156106e2576000826001600160a01b0316826040518082805190602001908083835b6020831061066f5780518252601f199092019160209182019101610650565b6001836020036101000a038019825116818451168082178552505050505050905001915050600060405180830381855af49150503d80600081146106cf576040519150601f19603f3d011682016040523d82523d6000602084013e6106d4565b606091505b505090508061041757600080fd5b5050565b60006106f06107bd565b6001600160a01b0316336001600160a01b0316141561044e576104476107bd565b6107196107bd565b6001600160a01b0316336001600160a01b0316141561076c57604051600160e51b62461bcd0281526004018080602001828103825260328152602001806108b86032913960400191505060405180910390fd5b610333610333565b7f360894a13ba1a3210667c828492db98dca3e2076cc3735a920a3ca505d382bbc5490565b3660008037600080366000845af43d6000803e8080156107b8573d6000f35b3d6000fd5b7fb53127684a568b3173ae13b9f8a6016e243e63b6e8ee1178d6a717850b5d61035490565b6107eb81610846565b6040516001600160a01b038216907fbc7cd75a20ee27fd9adebab32041f755214dbc6bffa90cc0225b39da2e5c2d3b90600090a250565b7fb53127684a568b3173ae13b9f8a6016e243e63b6e8ee1178d6a717850b5d610355565b61084f816108b1565b61088d57604051600160e51b62461bcd02815260040180806020018281038252603b815260200180610920603b913960400191505060405180910390fd5b7f360894a13ba1a3210667c828492db98dca3e2076cc3735a920a3ca505d382bbc55565b3b15159056fe43616e6e6f742063616c6c2066616c6c6261636b2066756e6374696f6e2066726f6d207468652070726f78792061646d696e43616e6e6f74206368616e6765207468652061646d696e206f6620612070726f787920746f20746865207a65726f206164647265737343616e6e6f742073657420612070726f787920696d706c656d656e746174696f6e20746f2061206e6f6e2d636f6e74726163742061646472657373a165627a7a72305820acd86240912c703ba88ccefef3db77e88d3507353c7c194b0b27eed571ae96c90029556e617574686f72697a656420617474656d707420746f206164642073656375726974792062616c616e63652e4f776e61626c653a206e6577206f776e657220697320746865207a65726f20616464726573734f776e61626c653a2063616c6c6572206973206e6f7420746865206f776e6572436f6e747261637420696e7374616e63652068617320616c7265616479206265656e20696e697469616c697a6564a165627a7a723058202fb5fd103a0c632348afc5555422fa7f4483480ebeb5885b1bbb851613d432c40029608060405234801561001057600080fd5b50610986806100206000396000f3fe6080604052600436106100705760003560e01c80638f2839701161004e5780638f2839701461015e578063cf7a1d7714610191578063d1f5789414610250578063f851a4401461030657610070565b80633659cfe61461007a5780634f1ef286146100ad5780635c60da1b1461012d575b61007861031b565b005b34801561008657600080fd5b506100786004803603602081101561009d57600080fd5b50356001600160a01b0316610335565b610078600480360360408110156100c357600080fd5b6001600160a01b0382351691908101906040810160208201356401000000008111156100ee57600080fd5b82018360208201111561010057600080fd5b8035906020019184600183028401116401000000008311171561012257600080fd5b50909250905061036f565b34801561013957600080fd5b5061014261041c565b604080516001600160a01b039092168252519081900360200190f35b34801561016a57600080fd5b506100786004803603602081101561018157600080fd5b50356001600160a01b0316610459565b610078600480360360608110156101a757600080fd5b6001600160a01b0382358116926020810135909116918101906060810160408201356401000000008111156101db57600080fd5b8201836020820111156101ed57600080fd5b8035906020019184600183028401116401000000008311171561020f57600080fd5b91908080601f016020809104026020016040519081016040528093929190818152602001838380828437600092019190915250929550610516945050505050565b6100786004803603604081101561026657600080fd5b6001600160a01b03823516919081019060408101602082013564010000000081111561029157600080fd5b8201836020820111156102a357600080fd5b803590602001918460018302840111640100000000831117156102c557600080fd5b91908080601f0160208091040260200160405190810160405280939291908181526020018383808284376000920191909152509295506105a6945050505050565b34801561031257600080fd5b506101426106e6565b610323610711565b61033361032e610774565b610799565b565b61033d6107bd565b6001600160a01b0316336001600160a01b031614156103645761035f816107e2565b61036c565b61036c61031b565b50565b6103776107bd565b6001600160a01b0316336001600160a01b0316141561040f57610399836107e2565b6000836001600160a01b031683836040518083838082843760405192019450600093509091505080830381855af49150503d80600081146103f6576040519150601f19603f3d011682016040523d82523d6000602084013e6103fb565b606091505b505090508061040957600080fd5b50610417565b61041761031b565b505050565b60006104266107bd565b6001600160a01b0316336001600160a01b0316141561044e57610447610774565b9050610456565b61045661031b565b90565b6104616107bd565b6001600160a01b0316336001600160a01b03161415610364576001600160a01b0381166104c257604051600160e51b62461bcd0281526004018080602001828103825260368152602001806108ea6036913960400191505060405180910390fd5b7f7e644d79422f17c01e4894b5f4f588d331ebfa28653d42ae832dc59e38c9798f6104eb6107bd565b604080516001600160a01b03928316815291841660208301528051918290030190a161035f81610822565b6000610520610774565b6001600160a01b03161461053357600080fd5b61053d83826105a6565b604080517f656970313936372e70726f78792e61646d696e00000000000000000000000000815290519081900360130190207fb53127684a568b3173ae13b9f8a6016e243e63b6e8ee1178d6a717850b5d61036000199091011461059d57fe5b61041782610822565b60006105b0610774565b6001600160a01b0316146105c357600080fd5b604080517f656970313936372e70726f78792e696d706c656d656e746174696f6e000000008152905190819003601c0190207f360894a13ba1a3210667c828492db98dca3e2076cc3735a920a3ca505d382bbc6000199091011461062357fe5b61062c82610846565b8051156106e2576000826001600160a01b0316826040518082805190602001908083835b6020831061066f5780518252601f199092019160209182019101610650565b6001836020036101000a038019825116818451168082178552505050505050905001915050600060405180830381855af49150503d80600081146106cf576040519150601f19603f3d011682016040523d82523d6000602084013e6106d4565b606091505b505090508061041757600080fd5b5050565b60006106f06107bd565b6001600160a01b0316336001600160a01b0316141561044e576104476107bd565b6107196107bd565b6001600160a01b0316336001600160a01b0316141561076c57604051600160e51b62461bcd0281526004018080602001828103825260328152602001806108b86032913960400191505060405180910390fd5b610333610333565b7f360894a13ba1a3210667c828492db98dca3e2076cc3735a920a3ca505d382bbc5490565b3660008037600080366000845af43d6000803e8080156107b8573d6000f35b3d6000fd5b7fb53127684a568b3173ae13b9f8a6016e243e63b6e8ee1178d6a717850b5d61035490565b6107eb81610846565b6040516001600160a01b038216907fbc7cd75a20ee27fd9adebab32041f755214dbc6bffa90cc0225b39da2e5c2d3b90600090a250565b7fb53127684a568b3173ae13b9f8a6016e243e63b6e8ee1178d6a717850b5d610355565b61084f816108b1565b61088d57604051600160e51b62461bcd02815260040180806020018281038252603b815260200180610920603b913960400191505060405180910390fd5b7f360894a13ba1a3210667c828492db98dca3e2076cc3735a920a3ca505d382bbc55565b3b15159056fe43616e6e6f742063616c6c2066616c6c6261636b2066756e6374696f6e2066726f6d207468652070726f78792061646d696e43616e6e6f74206368616e6765207468652061646d696e206f6620612070726f787920746f20746865207a65726f206164647265737343616e6e6f742073657420612070726f787920696d706c656d656e746174696f6e20746f2061206e6f6e2d636f6e74726163742061646472657373a165627a7a72305820acd86240912c703ba88ccefef3db77e88d3507353c7c194b0b27eed571ae96c90029",
  "source": "// Factory for Verified cash and bond tokens\r\n// (c) Kallol Borah, 2021\r\n\r\npragma solidity 0.5.7;\r\n\r\nimport \"./interfaces/IFactory.sol\";\r\nimport \"./interfaces/ISecurity.sol\";\r\nimport \"abdk-libraries-solidity/ABDKMathQuad.sol\";\r\nimport \"@openzeppelin/upgrades/contracts/Initializable.sol\";\r\nimport \"@openzeppelin/upgrades/contracts/upgradeability/ProxyFactory.sol\";\r\nimport \"@openzeppelin/contracts-ethereum-package/contracts/ownership/Ownable.sol\";\r\nimport \"@openzeppelin/contracts-ethereum-package/contracts/token/ERC20/ERC20.sol\";\r\n\r\ncontract Factory is IFactory, ProxyFactory, Initializable, Ownable{\r\n\r\n    using ABDKMathQuad for uint256;\r\n    using ABDKMathQuad for int256;\r\n    using ABDKMathQuad for bytes16;\r\n\r\n    //events\r\n    event securitiesAdded(address indexed security, address issuer, bytes32 isin, bytes32 currency);\r\n    event IssuerCreated(address indexed issuer, bytes32 tokenName, bytes32 tokenType);\r\n\r\n    struct via{\r\n        bytes32 tokenType;\r\n        bytes32 name;        \r\n    }\r\n\r\n    struct securities{\r\n        bytes32 currency;\r\n        bytes32 company;\r\n        bytes32 isin;\r\n        address token;\r\n        bytes16 amount;\r\n    }\r\n\r\n    //addresses of all Via proxies\r\n    mapping(address => via) public token;\r\n\r\n    //mapping token type to token name to issuer address\r\n    mapping(bytes32 => mapping(bytes32 => address)) issuers;\r\n\r\n    address[] public tokens;\r\n    address[] public issues;\r\n\r\n    //mapping security to holder to securities struct\r\n    mapping(address => mapping(address => securities)) private securitiesHoldings;\r\n\r\n    //mapping security to issuer\r\n    mapping(address => address) private holders;\r\n    mapping(address => address) private securityTokens;\r\n\r\n    address private securityAddress;\r\n\r\n    address private bridge;\r\n\r\n    modifier onlySigner(bytes32 _hashedMessage, uint8 _v, bytes32 _r, bytes32 _s){\r\n        bytes32 payloadHash = keccak256(abi.encode(_hashedMessage, \"L2toL1\"));\r\n        bytes32 messageHash = keccak256(abi.encodePacked(\"\\x19Ethereum Signed Message:\\n32\", payloadHash));\r\n        require(ecrecover(messageHash, _v, _r, _s)== bridge);\r\n        _;\r\n    }\r\n\r\n    function initialize(address _security, address _bridge) public initializer{\r\n        Ownable.initialize(msg.sender);\r\n        securityAddress = _security;\r\n        bridge = _bridge;\r\n    }\r\n\r\n    function setSigner(address _signer) onlyOwner external{\r\n        bridge = _signer;\r\n    }\r\n\r\n    function getTokenCount() external view returns(uint tokenCount) {\r\n        return tokens.length;\r\n    }\r\n\r\n    function getToken(uint256 n) external view returns(address){\r\n        return tokens[n];\r\n    }\r\n\r\n    function getName(address viaAddress) external view returns(bytes32) {\r\n        return token[viaAddress].name;\r\n    }\r\n\r\n    function getType(address viaAddress) external view returns(bytes32) {\r\n        return token[viaAddress].tokenType;\r\n    }\r\n\r\n    function getNameAndType(address viaAddress) external view returns(bytes32, bytes32){\r\n        return (token[viaAddress].name, token[viaAddress].tokenType);\r\n    }\r\n\r\n    function getTokenByNameType(bytes32 tokenName, bytes32 tokenType) external view returns(address){\r\n        for(uint256 q=0; q<tokens.length; q++){\r\n            if(token[tokens[q]].name == tokenName && token[tokens[q]].tokenType == tokenType)\r\n                return tokens[q];\r\n        }\r\n    }\r\n\r\n    function getIssuer(bytes32 tokenType, bytes32 tokenName) external view returns(address){\r\n        return issuers[tokenType][tokenName];\r\n    }\r\n\r\n    function getIssues() external view returns(address[] memory){\r\n        return issues;\r\n    }\r\n\r\n    function createIssuer(address _target, bytes32 tokenName, bytes32 tokenType, bytes32 tokenCurrency, address feeRate) onlyOwner external{\r\n        bytes memory _payload = abi.encodeWithSignature(\"initialize(bytes32,bytes32,address,address,address)\", tokenName, tokenCurrency, owner(), feeRate, bridge);\r\n\r\n        // Deploy proxy\r\n        address _issuer = deployMinimal(_target, _payload);\r\n        emit IssuerCreated(_issuer, tokenName, tokenType);\r\n\r\n        if(tokenType == \"Cash\"){\r\n            token[_issuer] = via(\"ViaCash\", tokenCurrency);\r\n            tokens.push(_issuer);\r\n            issuers[\"ViaCash\"][tokenCurrency] = _issuer;\r\n        }\r\n        else if(tokenType == \"Bond\"){\r\n            token[_issuer] = via(\"ViaBond\", tokenCurrency);\r\n            tokens.push(_issuer);\r\n            issuers[\"ViaBond\"][tokenCurrency] = _issuer;\r\n        }\r\n\r\n    }\r\n\r\n    function issueSecurity(address security, bytes32 company, bytes32 isin, bytes32 currency, address issuer, bytes32 _hashedMessage, uint8 _v, bytes32 _r, bytes32 _s) \r\n                            external {  \r\n        bytes32 payloadHash = keccak256(abi.encode(_hashedMessage, \"L2toL1\"));\r\n        bytes32 messageHash = keccak256(abi.encodePacked(\"\\x19Ethereum Signed Message:\\n32\", payloadHash));\r\n        require(ecrecover(messageHash, _v, _r, _s)== bridge || issuer==msg.sender, \"Unauthorized issuer of security.\");\r\n\r\n        bytes memory _payload = abi.encodeWithSignature(\"initialize(bytes32,bytes32,address,address)\", company, isin, address(this), bridge);\r\n        // Deploy proxy\r\n        address _securityToken = deployMinimal(securityAddress, _payload);\r\n\r\n        securitiesHoldings[security][issuer].isin= isin;\r\n        securitiesHoldings[security][issuer].company = company;\r\n        securitiesHoldings[security][issuer].currency= currency;\r\n        securitiesHoldings[security][issuer].token = _securityToken;\r\n        holders[security] = issuer;   \r\n        securityTokens[_securityToken] = security;\r\n        issues.push(_securityToken);\r\n\r\n        emit securitiesAdded(_securityToken, issuer, isin, currency);\r\n    }\r\n\r\n    function getHolder(address security) external view returns(address){\r\n        return holders[security];\r\n    }\r\n\r\n    function getSecurity(address securityToken) external view returns(address){\r\n        return securityTokens[securityToken];\r\n    }\r\n\r\n    function getSecurityToken(address security, address issuer) external view returns(address, bytes32, bytes32, bytes32){\r\n        return (securitiesHoldings[security][issuer].token, \r\n                securitiesHoldings[security][issuer].isin,\r\n                securitiesHoldings[security][issuer].company,\r\n                securitiesHoldings[security][issuer].currency);\r\n    }\r\n    \r\n    function addBalance(address security, address transferor, address transferee, uint256 amount, bytes32 _hashedMessage, uint8 _v, bytes32 _r, bytes32 _s) \r\n                            external {\r\n        bytes32 payloadHash = keccak256(abi.encode(_hashedMessage, \"L2toL1\"));\r\n        bytes32 messageHash = keccak256(abi.encodePacked(\"\\x19Ethereum Signed Message:\\n32\", payloadHash));\r\n        require(ecrecover(messageHash, _v, _r, _s)== bridge || holders[security]==msg.sender, \"Unauthorized attempt to add security balance.\");\r\n\r\n        if(transferor!=address(0x0)){\r\n            securitiesHoldings[security][transferee].amount= ABDKMathQuad.add(securitiesHoldings[security][transferee].amount, ABDKMathQuad.fromUInt(amount));\r\n            securitiesHoldings[security][transferor].amount= ABDKMathQuad.sub(securitiesHoldings[security][transferor].amount, ABDKMathQuad.fromUInt(amount));\r\n            ISecurity(securitiesHoldings[security][holders[security]].token).transferToken(transferor, transferee, amount);\r\n        } else {\r\n            securitiesHoldings[security][transferee].amount= ABDKMathQuad.fromUInt(amount);\r\n            ISecurity(securitiesHoldings[security][holders[security]].token).mintToken(transferee, amount);\r\n        }\r\n    }\r\n\r\n    function checkProduct(address issue) external view returns(bool){\r\n        if(securityTokens[issue]!=address(0x0) || holders[issue]!=address(0x0))\r\n            return true;\r\n        else\r\n            return false;\r\n    }\r\n    \r\n}",
  "sourcePath": "D:\\Code\\verified-payments-L1\\contracts\\Factory.sol",
  "compiler": {
    "name": "solc",
    "version": "0.5.7+commit.6da8b019.Emscripten.clang"
  },
  "schemaVersion": "3.4.3",
  "updatedAt": "2022-12-30T10:47:39.201Z",
  "networkType": "ethereum",
  "devdoc": {
    "methods": {
      "initialize(address)": {
        "details": "Initializes the contract setting the deployer as the initial owner."
      },
      "isOwner()": {
        "details": "Returns true if the caller is the current owner."
      },
      "owner()": {
        "details": "Returns the address of the current owner."
      },
      "renounceOwnership()": {
        "details": "Leaves the contract without owner. It will not be possible to call `onlyOwner` functions anymore. Can only be called by the current owner.     * > Note: Renouncing ownership will leave the contract without an owner, thereby removing any functionality that is only available to the owner."
      },
      "transferOwnership(address)": {
        "details": "Transfers ownership of the contract to a new account (`newOwner`). Can only be called by the current owner."
      }
    }
  },
  "userdoc": {
    "methods": {}
  }
}