{
  "contractName": "L1Factory",
  "abi": [
    {
      "constant": true,
      "inputs": [
        {
          "name": "_salt",
          "type": "uint256"
        },
        {
          "name": "_logic",
          "type": "address"
        },
        {
          "name": "_admin",
          "type": "address"
        },
        {
          "name": "_data",
          "type": "bytes"
        },
        {
          "name": "_signature",
          "type": "bytes"
        }
      ],
      "name": "getSigner",
      "outputs": [
        {
          "name": "",
          "type": "address"
        }
      ],
      "payable": false,
      "stateMutability": "view",
      "type": "function"
    },
    {
      "constant": false,
      "inputs": [
        {
          "name": "_salt",
          "type": "uint256"
        },
        {
          "name": "_logic",
          "type": "address"
        },
        {
          "name": "_admin",
          "type": "address"
        },
        {
          "name": "_data",
          "type": "bytes"
        },
        {
          "name": "_signature",
          "type": "bytes"
        }
      ],
      "name": "deploySigned",
      "outputs": [
        {
          "name": "",
          "type": "address"
        }
      ],
      "payable": false,
      "stateMutability": "nonpayable",
      "type": "function"
    },
    {
      "constant": true,
      "inputs": [
        {
          "name": "",
          "type": "uint256"
        }
      ],
      "name": "tokens",
      "outputs": [
        {
          "name": "",
          "type": "address"
        }
      ],
      "payable": false,
      "stateMutability": "view",
      "type": "function"
    },
    {
      "constant": false,
      "inputs": [
        {
          "name": "_salt",
          "type": "uint256"
        },
        {
          "name": "_logic",
          "type": "address"
        },
        {
          "name": "_admin",
          "type": "address"
        },
        {
          "name": "_data",
          "type": "bytes"
        }
      ],
      "name": "deploy",
      "outputs": [
        {
          "name": "",
          "type": "address"
        }
      ],
      "payable": false,
      "stateMutability": "nonpayable",
      "type": "function"
    },
    {
      "constant": true,
      "inputs": [
        {
          "name": "",
          "type": "address"
        }
      ],
      "name": "token",
      "outputs": [
        {
          "name": "tokenType",
          "type": "bytes32"
        },
        {
          "name": "name",
          "type": "bytes32"
        }
      ],
      "payable": false,
      "stateMutability": "view",
      "type": "function"
    },
    {
      "constant": false,
      "inputs": [],
      "name": "renounceOwnership",
      "outputs": [],
      "payable": false,
      "stateMutability": "nonpayable",
      "type": "function"
    },
    {
      "constant": true,
      "inputs": [
        {
          "name": "_salt",
          "type": "uint256"
        },
        {
          "name": "_sender",
          "type": "address"
        }
      ],
      "name": "getDeploymentAddress",
      "outputs": [
        {
          "name": "",
          "type": "address"
        }
      ],
      "payable": false,
      "stateMutability": "view",
      "type": "function"
    },
    {
      "constant": true,
      "inputs": [],
      "name": "owner",
      "outputs": [
        {
          "name": "",
          "type": "address"
        }
      ],
      "payable": false,
      "stateMutability": "view",
      "type": "function"
    },
    {
      "constant": true,
      "inputs": [],
      "name": "isOwner",
      "outputs": [
        {
          "name": "",
          "type": "bool"
        }
      ],
      "payable": false,
      "stateMutability": "view",
      "type": "function"
    },
    {
      "constant": false,
      "inputs": [
        {
          "name": "_logic",
          "type": "address"
        },
        {
          "name": "_data",
          "type": "bytes"
        }
      ],
      "name": "deployMinimal",
      "outputs": [
        {
          "name": "proxy",
          "type": "address"
        }
      ],
      "payable": false,
      "stateMutability": "nonpayable",
      "type": "function"
    },
    {
      "constant": false,
      "inputs": [
        {
          "name": "newOwner",
          "type": "address"
        }
      ],
      "name": "transferOwnership",
      "outputs": [],
      "payable": false,
      "stateMutability": "nonpayable",
      "type": "function"
    },
    {
      "anonymous": false,
      "inputs": [
        {
          "indexed": true,
          "name": "_address",
          "type": "address"
        },
        {
          "indexed": false,
          "name": "tokenName",
          "type": "bytes32"
        },
        {
          "indexed": false,
          "name": "tokenType",
          "type": "bytes32"
        }
      ],
      "name": "IssuerCreated",
      "type": "event"
    },
    {
      "anonymous": false,
      "inputs": [
        {
          "indexed": true,
          "name": "previousOwner",
          "type": "address"
        },
        {
          "indexed": true,
          "name": "newOwner",
          "type": "address"
        }
      ],
      "name": "OwnershipTransferred",
      "type": "event"
    },
    {
      "anonymous": false,
      "inputs": [
        {
          "indexed": false,
          "name": "proxy",
          "type": "address"
        }
      ],
      "name": "ProxyCreated",
      "type": "event"
    },
    {
      "constant": false,
      "inputs": [],
      "name": "initialize",
      "outputs": [],
      "payable": false,
      "stateMutability": "nonpayable",
      "type": "function"
    },
    {
      "constant": false,
      "inputs": [
        {
          "name": "sender",
          "type": "address"
        }
      ],
      "name": "initialize",
      "outputs": [],
      "payable": false,
      "stateMutability": "nonpayable",
      "type": "function"
    },
    {
      "constant": true,
      "inputs": [],
      "name": "getTokenCount",
      "outputs": [
        {
          "name": "tokenCount",
          "type": "uint256"
        }
      ],
      "payable": false,
      "stateMutability": "view",
      "type": "function"
    },
    {
      "constant": true,
      "inputs": [
        {
          "name": "n",
          "type": "uint256"
        }
      ],
      "name": "getToken",
      "outputs": [
        {
          "name": "",
          "type": "address"
        }
      ],
      "payable": false,
      "stateMutability": "view",
      "type": "function"
    },
    {
      "constant": true,
      "inputs": [
        {
          "name": "viaAddress",
          "type": "address"
        }
      ],
      "name": "getName",
      "outputs": [
        {
          "name": "",
          "type": "bytes32"
        }
      ],
      "payable": false,
      "stateMutability": "view",
      "type": "function"
    },
    {
      "constant": true,
      "inputs": [
        {
          "name": "viaAddress",
          "type": "address"
        }
      ],
      "name": "getType",
      "outputs": [
        {
          "name": "",
          "type": "bytes32"
        }
      ],
      "payable": false,
      "stateMutability": "view",
      "type": "function"
    },
    {
      "constant": true,
      "inputs": [
        {
          "name": "viaAddress",
          "type": "address"
        }
      ],
      "name": "getNameAndType",
      "outputs": [
        {
          "name": "",
          "type": "bytes32"
        },
        {
          "name": "",
          "type": "bytes32"
        }
      ],
      "payable": false,
      "stateMutability": "view",
      "type": "function"
    },
    {
      "constant": true,
      "inputs": [
        {
          "name": "tokenName",
          "type": "bytes32"
        },
        {
          "name": "tokenType",
          "type": "bytes32"
        }
      ],
      "name": "getTokenByNameType",
      "outputs": [
        {
          "name": "",
          "type": "address"
        }
      ],
      "payable": false,
      "stateMutability": "view",
      "type": "function"
    },
    {
      "constant": true,
      "inputs": [
        {
          "name": "tokenType",
          "type": "bytes32"
        },
        {
          "name": "tokenName",
          "type": "bytes32"
        }
      ],
      "name": "getIssuer",
      "outputs": [
        {
          "name": "",
          "type": "address"
        }
      ],
      "payable": false,
      "stateMutability": "view",
      "type": "function"
    },
    {
      "constant": false,
      "inputs": [
        {
          "name": "_target",
          "type": "address"
        },
        {
          "name": "tokenName",
          "type": "bytes32"
        },
        {
          "name": "tokenType",
          "type": "bytes32"
        },
        {
          "name": "tokenCurrency",
          "type": "bytes32"
        },
        {
          "name": "feeRate",
          "type": "address"
        },
        {
          "name": "bridge",
          "type": "address"
        }
      ],
      "name": "createIssuer",
      "outputs": [],
      "payable": false,
      "stateMutability": "nonpayable",
      "type": "function"
    }
  ],
  "bytecode": "0x6080604081905261001060a0610034565b601f1982820381018352601f90910116604052805160209190910120600055610041565b6109a68061208083390190565b612030806100506000396000f3fe608060405234801561001057600080fd5b50600436106101375760003560e01c80638129fc1c116100b8578063b3eeb5e21161007c578063b3eeb5e21461063d578063c4d66de8146106f1578063e4b50cb814610717578063f2fde38b14610734578063f3458f141461075a578063f429f19b1461077d57610137565b80638129fc1c1461059d57806381ae1f5b146105a5578063855fae36146105d15780638da5cb5b146106195780638f32d59b1461062157610137565b80636150864c116100ff5780636150864c14610462578063668151a7146105265780636d46a1db14610565578063715018a61461058b57806378a895671461059557610137565b8063290f8f561461013c5780632ea77917146102a1578063332d6626146102c45780634f64b2be1461040d5780635fd4b08a1461042a575b600080fd5b610285600480360360a081101561015257600080fd5b8135916001600160a01b03602082013581169260408301359091169190810190608081016060820135600160201b81111561018c57600080fd5b82018360208201111561019e57600080fd5b803590602001918460018302840111600160201b831117156101bf57600080fd5b91908080601f0160208091040260200160405190810160405280939291908181526020018383808284376000920191909152509295949360208101935035915050600160201b81111561021157600080fd5b82018360208201111561022357600080fd5b803590602001918460018302840111600160201b8311171561024457600080fd5b91908080601f0160208091040260200160405190810160405280939291908181526020018383808284376000920191909152509295506107a3945050505050565b604080516001600160a01b039092168252519081900360200190f35b610285600480360360408110156102b757600080fd5b5080359060200135610892565b610285600480360360a08110156102da57600080fd5b8135916001600160a01b03602082013581169260408301359091169190810190608081016060820135600160201b81111561031457600080fd5b82018360208201111561032657600080fd5b803590602001918460018302840111600160201b8311171561034757600080fd5b91908080601f0160208091040260200160405190810160405280939291908181526020018383808284376000920191909152509295949360208101935035915050600160201b81111561039957600080fd5b8201836020820111156103ab57600080fd5b803590602001918460018302840111600160201b831117156103cc57600080fd5b91908080601f0160208091040260200160405190810160405280939291908181526020018383808284376000920191909152509295506108bc945050505050565b6102856004803603602081101561042357600080fd5b5035610939565b6104506004803603602081101561044057600080fd5b50356001600160a01b0316610960565b60408051918252519081900360200190f35b6102856004803603608081101561047857600080fd5b8135916001600160a01b03602082013581169260408301359091169190810190608081016060820135600160201b8111156104b257600080fd5b8201836020820111156104c457600080fd5b803590602001918460018302840111600160201b831117156104e557600080fd5b91908080601f01602080910402602001604051908101604052809392919081815260200183838082843760009201919091525092955061097e945050505050565b61054c6004803603602081101561053c57600080fd5b50356001600160a01b0316610996565b6040805192835260208301919091528051918290030190f35b61054c6004803603602081101561057b57600080fd5b50356001600160a01b03166109b8565b6105936109d1565b005b610450610a77565b610593610a7d565b610285600480360360408110156105bb57600080fd5b50803590602001356001600160a01b0316610b2a565b610593600480360360c08110156105e757600080fd5b506001600160a01b038135811691602081013591604082013591606081013591608082013581169160a0013516610b8f565b610285610e55565b610629610e64565b604080519115158252519081900360200190f35b6102856004803603604081101561065357600080fd5b6001600160a01b038235169190810190604081016020820135600160201b81111561067d57600080fd5b82018360208201111561068f57600080fd5b803590602001918460018302840111600160201b831117156106b057600080fd5b91908080601f016020809104026020016040519081016040528093929190818152602001838380828437600092019190915250929550610e8a945050505050565b6105936004803603602081101561070757600080fd5b50356001600160a01b0316610feb565b6102856004803603602081101561072d57600080fd5b50356110df565b6105936004803603602081101561074a57600080fd5b50356001600160a01b0316611109565b6102856004803603604081101561077057600080fd5b508035906020013561116e565b6104506004803603602081101561079357600080fd5b50356001600160a01b031661122f565b60008061087b878787873060405160200180868152602001856001600160a01b03166001600160a01b031660601b8152601401846001600160a01b03166001600160a01b031660601b815260140183805190602001908083835b6020831061081c5780518252601f1990920191602091820191016107fd565b6001836020036101000a038019825116818451168082178552505050505050905001826001600160a01b03166001600160a01b031660601b8152601401955050505050506040516020818303038152906040528051906020012061124a565b9050610887818461129b565b979650505050505050565b60008281526068602090815260408083208484529091529020546001600160a01b03165b92915050565b6000806108cc87878787876107a3565b90506001600160a01b03811661092c5760408051600160e51b62461bcd02815260206004820152601160248201527f496e76616c6964207369676e6174757265000000000000000000000000000000604482015290519081900360640190fd5b6108878787878785611389565b6069818154811061094657fe5b6000918252602090912001546001600160a01b0316905081565b6001600160a01b031660009081526067602052604090206001015490565b600061098d8585858533611389565b95945050505050565b6001600160a01b03166000908152606760205260409020600181015490549091565b6067602052600090815260409020805460019091015482565b6109d9610e64565b610a2d5760408051600160e51b62461bcd02815260206004820181905260248201527f4f776e61626c653a2063616c6c6572206973206e6f7420746865206f776e6572604482015290519081900360640190fd5b6034546040516000916001600160a01b0316907f8be0079c531659141344cd1fd0a4f28419497f9722a3daafe3b4186f6b6457e0908390a3603480546001600160a01b0319169055565b60695490565b600154610100900460ff1680610a965750610a966114bd565b80610aa4575060015460ff16155b610ae257604051600160e51b62461bcd02815260040180806020018281038252602e815260200180611fd7602e913960400191505060405180910390fd5b600154610100900460ff16158015610b0c576001805460ff1961ff00199091166101001716811790555b610b1533610feb565b8015610b27576001805461ff00191690555b50565b600080610b3784846114c3565b600054604080516001600160f81b031960208083019190915230606090811b602184015260358301959095526055808301949094528251808303909401845260759091019091528151910120811b901c949350505050565b610b97610e64565b610beb5760408051600160e51b62461bcd02815260206004820181905260248201527f4f776e61626c653a2063616c6c6572206973206e6f7420746865206f776e6572604482015290519081900360640190fd5b60608584610bf7610e55565b60408051602481019490945260448401929092526001600160a01b0390811660648401528086166084840152841660a4808401919091528151808403909101815260c490920190526020810180516001600160e01b0316600160e41b63046499770217905290506000610c6a8883610e8a565b9050806001600160a01b03167fc86ce51250387b92cfaa914f7afcac92982a98daa3e1b3dd6be12f8be38af5988888604051808381526020018281526020019250505060405180910390a285600160e31b63086c2e6d021415610d8257604080518082018252600160cb1b660acd2c286c2e6d02815260208082018881526001600160a01b0385166000818152606784528581209451855591516001948501556069805494850190557f7fb4302e8e91f9110a6554c2c0a24601252c2a42c2220ca988efcfe39991430890930180546001600160a01b031990811685179091558982527f86682a7e3c9ea5ac84dc001f2f1f8323db283f66552d8a902d495172bcc216ae909252929092208054909216179055610e4b565b85600160e21b63109bdb99021415610e4b57604080518082018252600160ca1b66159a58509bdb9902815260208082018881526001600160a01b0385166000818152606784528581209451855591516001948501556069805494850190557f7fb4302e8e91f9110a6554c2c0a24601252c2a42c2220ca988efcfe39991430890930180546001600160a01b031990811685179091558982527fb3bd0f6dd7a61183d735fce749f5fe8b14c9ee68735195a43f8cebd6de0024d69092529290922080549092161790555b5050505050505050565b6034546001600160a01b031690565b6034546000906001600160a01b0316610e7b6114fc565b6001600160a01b031614905090565b6000808360601b90506040517f3d602d80600a3d3981f3363d3d373d3d3d363d7300000000000000000000000081528160148201527f5af43d82803e903d91602b57fd5bf3000000000000000000000000000000000060288201526037816000f0604080516001600160a01b038316815290519194507efffc2da0b561cae30d9826d37709e9421c4725faebc226cbbb7ef5fc5e7349925081900360200190a1825115610fe4576000826001600160a01b0316846040518082805190602001908083835b60208310610f6d5780518252601f199092019160209182019101610f4e565b6001836020036101000a0380198251168184511680821785525050505050509050019150506000604051808303816000865af19150503d8060008114610fcf576040519150601f19603f3d011682016040523d82523d6000602084013e610fd4565b606091505b5050905080610fe257600080fd5b505b5092915050565b600154610100900460ff168061100457506110046114bd565b80611012575060015460ff16155b61105057604051600160e51b62461bcd02815260040180806020018281038252602e815260200180611fd7602e913960400191505060405180910390fd5b600154610100900460ff1615801561107a576001805460ff1961ff00199091166101001716811790555b603480546001600160a01b0319166001600160a01b0384811691909117918290556040519116906000907f8be0079c531659141344cd1fd0a4f28419497f9722a3daafe3b4186f6b6457e0908290a380156110db576001805461ff00191690555b5050565b6000606982815481106110ee57fe5b6000918252602090912001546001600160a01b031692915050565b611111610e64565b6111655760408051600160e51b62461bcd02815260206004820181905260248201527f4f776e61626c653a2063616c6c6572206973206e6f7420746865206f776e6572604482015290519081900360640190fd5b610b2781611500565b6000805b606954811015610fe45783606760006069848154811061118e57fe5b60009182526020808320909101546001600160a01b031683528201929092526040019020600101541480156111f757508260676000606984815481106111d057fe5b60009182526020808320909101546001600160a01b03168352820192909252604001902054145b15611227576069818154811061120957fe5b6000918252602090912001546001600160a01b031691506108b69050565b600101611172565b6001600160a01b031660009081526067602052604090205490565b604080517f19457468657265756d205369676e6564204d6573736167653a0a333200000000602080830191909152603c8083019490945282518083039094018452605c909101909152815191012090565b600081516041146112ae575060006108b6565b60208201516040830151606084015160001a7f7fffffffffffffffffffffffffffffff5d576e7357a4501ddfe92f46681b20a08211156112f457600093505050506108b6565b8060ff16601b1415801561130c57508060ff16601c14155b1561131d57600093505050506108b6565b6040805160008152602080820180845289905260ff8416828401526060820186905260808201859052915160019260a0808401939192601f1981019281900390910190855afa158015611374573d6000803e3d6000fd5b5050604051601f190151979650505050505050565b60008061139687846115a4565b604080516001600160a01b038316815290519192507efffc2da0b561cae30d9826d37709e9421c4725faebc226cbbb7ef5fc5e7349919081900360200190a1604051600160e01b63cf7a1d770281526001600160a01b038781166004830190815287821660248401526060604484019081528751606485015287519285169363cf7a1d77938b938b938b939192909160840190602085019080838360005b8381101561144c578181015183820152602001611434565b50505050905090810190601f1680156114795780820380516001836020036101000a031916815260200191505b50945050505050600060405180830381600087803b15801561149a57600080fd5b505af11580156114ae573d6000803e3d6000fd5b50929998505050505050505050565b303b1590565b604080516020808201949094526001600160a01b039290921660601b828201528051808303603401815260549092019052805191012090565b3390565b6001600160a01b03811661154857604051600160e51b62461bcd028152600401808060200182810382526026815260200180611fb16026913960400191505060405180910390fd5b6034546040516001600160a01b038084169216907f8be0079c531659141344cd1fd0a4f28419497f9722a3daafe3b4186f6b6457e090600090a3603480546001600160a01b0319166001600160a01b0392909216919091179055565b6000806060604051806020016115b9906115fd565b601f1982820381018352601f90910116604052905060006115da86866114c3565b9050808251602084016000f59250823b6115f357600080fd5b5090949350505050565b6109a68061160b8339019056fe608060405234801561001057600080fd5b50610986806100206000396000f3fe6080604052600436106100705760003560e01c80638f2839701161004e5780638f2839701461015e578063cf7a1d7714610191578063d1f5789414610250578063f851a4401461030657610070565b80633659cfe61461007a5780634f1ef286146100ad5780635c60da1b1461012d575b61007861031b565b005b34801561008657600080fd5b506100786004803603602081101561009d57600080fd5b50356001600160a01b0316610335565b610078600480360360408110156100c357600080fd5b6001600160a01b0382351691908101906040810160208201356401000000008111156100ee57600080fd5b82018360208201111561010057600080fd5b8035906020019184600183028401116401000000008311171561012257600080fd5b50909250905061036f565b34801561013957600080fd5b5061014261041c565b604080516001600160a01b039092168252519081900360200190f35b34801561016a57600080fd5b506100786004803603602081101561018157600080fd5b50356001600160a01b0316610459565b610078600480360360608110156101a757600080fd5b6001600160a01b0382358116926020810135909116918101906060810160408201356401000000008111156101db57600080fd5b8201836020820111156101ed57600080fd5b8035906020019184600183028401116401000000008311171561020f57600080fd5b91908080601f016020809104026020016040519081016040528093929190818152602001838380828437600092019190915250929550610516945050505050565b6100786004803603604081101561026657600080fd5b6001600160a01b03823516919081019060408101602082013564010000000081111561029157600080fd5b8201836020820111156102a357600080fd5b803590602001918460018302840111640100000000831117156102c557600080fd5b91908080601f0160208091040260200160405190810160405280939291908181526020018383808284376000920191909152509295506105a6945050505050565b34801561031257600080fd5b506101426106e6565b610323610711565b61033361032e610774565b610799565b565b61033d6107bd565b6001600160a01b0316336001600160a01b031614156103645761035f816107e2565b61036c565b61036c61031b565b50565b6103776107bd565b6001600160a01b0316336001600160a01b0316141561040f57610399836107e2565b6000836001600160a01b031683836040518083838082843760405192019450600093509091505080830381855af49150503d80600081146103f6576040519150601f19603f3d011682016040523d82523d6000602084013e6103fb565b606091505b505090508061040957600080fd5b50610417565b61041761031b565b505050565b60006104266107bd565b6001600160a01b0316336001600160a01b0316141561044e57610447610774565b9050610456565b61045661031b565b90565b6104616107bd565b6001600160a01b0316336001600160a01b03161415610364576001600160a01b0381166104c257604051600160e51b62461bcd0281526004018080602001828103825260368152602001806108ea6036913960400191505060405180910390fd5b7f7e644d79422f17c01e4894b5f4f588d331ebfa28653d42ae832dc59e38c9798f6104eb6107bd565b604080516001600160a01b03928316815291841660208301528051918290030190a161035f81610822565b6000610520610774565b6001600160a01b03161461053357600080fd5b61053d83826105a6565b604080517f656970313936372e70726f78792e61646d696e00000000000000000000000000815290519081900360130190207fb53127684a568b3173ae13b9f8a6016e243e63b6e8ee1178d6a717850b5d61036000199091011461059d57fe5b61041782610822565b60006105b0610774565b6001600160a01b0316146105c357600080fd5b604080517f656970313936372e70726f78792e696d706c656d656e746174696f6e000000008152905190819003601c0190207f360894a13ba1a3210667c828492db98dca3e2076cc3735a920a3ca505d382bbc6000199091011461062357fe5b61062c82610846565b8051156106e2576000826001600160a01b0316826040518082805190602001908083835b6020831061066f5780518252601f199092019160209182019101610650565b6001836020036101000a038019825116818451168082178552505050505050905001915050600060405180830381855af49150503d80600081146106cf576040519150601f19603f3d011682016040523d82523d6000602084013e6106d4565b606091505b505090508061041757600080fd5b5050565b60006106f06107bd565b6001600160a01b0316336001600160a01b0316141561044e576104476107bd565b6107196107bd565b6001600160a01b0316336001600160a01b0316141561076c57604051600160e51b62461bcd0281526004018080602001828103825260328152602001806108b86032913960400191505060405180910390fd5b610333610333565b7f360894a13ba1a3210667c828492db98dca3e2076cc3735a920a3ca505d382bbc5490565b3660008037600080366000845af43d6000803e8080156107b8573d6000f35b3d6000fd5b7fb53127684a568b3173ae13b9f8a6016e243e63b6e8ee1178d6a717850b5d61035490565b6107eb81610846565b6040516001600160a01b038216907fbc7cd75a20ee27fd9adebab32041f755214dbc6bffa90cc0225b39da2e5c2d3b90600090a250565b7fb53127684a568b3173ae13b9f8a6016e243e63b6e8ee1178d6a717850b5d610355565b61084f816108b1565b61088d57604051600160e51b62461bcd02815260040180806020018281038252603b815260200180610920603b913960400191505060405180910390fd5b7f360894a13ba1a3210667c828492db98dca3e2076cc3735a920a3ca505d382bbc55565b3b15159056fe43616e6e6f742063616c6c2066616c6c6261636b2066756e6374696f6e2066726f6d207468652070726f78792061646d696e43616e6e6f74206368616e6765207468652061646d696e206f6620612070726f787920746f20746865207a65726f206164647265737343616e6e6f742073657420612070726f787920696d706c656d656e746174696f6e20746f2061206e6f6e2d636f6e74726163742061646472657373a165627a7a72305820acd86240912c703ba88ccefef3db77e88d3507353c7c194b0b27eed571ae96c900294f776e61626c653a206e6577206f776e657220697320746865207a65726f2061646472657373436f6e747261637420696e7374616e63652068617320616c7265616479206265656e20696e697469616c697a6564a165627a7a7230582043520f6243e637490fcf86d48f3535945ac1103dc8fc81980a7ccca9567aa62e0029608060405234801561001057600080fd5b50610986806100206000396000f3fe6080604052600436106100705760003560e01c80638f2839701161004e5780638f2839701461015e578063cf7a1d7714610191578063d1f5789414610250578063f851a4401461030657610070565b80633659cfe61461007a5780634f1ef286146100ad5780635c60da1b1461012d575b61007861031b565b005b34801561008657600080fd5b506100786004803603602081101561009d57600080fd5b50356001600160a01b0316610335565b610078600480360360408110156100c357600080fd5b6001600160a01b0382351691908101906040810160208201356401000000008111156100ee57600080fd5b82018360208201111561010057600080fd5b8035906020019184600183028401116401000000008311171561012257600080fd5b50909250905061036f565b34801561013957600080fd5b5061014261041c565b604080516001600160a01b039092168252519081900360200190f35b34801561016a57600080fd5b506100786004803603602081101561018157600080fd5b50356001600160a01b0316610459565b610078600480360360608110156101a757600080fd5b6001600160a01b0382358116926020810135909116918101906060810160408201356401000000008111156101db57600080fd5b8201836020820111156101ed57600080fd5b8035906020019184600183028401116401000000008311171561020f57600080fd5b91908080601f016020809104026020016040519081016040528093929190818152602001838380828437600092019190915250929550610516945050505050565b6100786004803603604081101561026657600080fd5b6001600160a01b03823516919081019060408101602082013564010000000081111561029157600080fd5b8201836020820111156102a357600080fd5b803590602001918460018302840111640100000000831117156102c557600080fd5b91908080601f0160208091040260200160405190810160405280939291908181526020018383808284376000920191909152509295506105a6945050505050565b34801561031257600080fd5b506101426106e6565b610323610711565b61033361032e610774565b610799565b565b61033d6107bd565b6001600160a01b0316336001600160a01b031614156103645761035f816107e2565b61036c565b61036c61031b565b50565b6103776107bd565b6001600160a01b0316336001600160a01b0316141561040f57610399836107e2565b6000836001600160a01b031683836040518083838082843760405192019450600093509091505080830381855af49150503d80600081146103f6576040519150601f19603f3d011682016040523d82523d6000602084013e6103fb565b606091505b505090508061040957600080fd5b50610417565b61041761031b565b505050565b60006104266107bd565b6001600160a01b0316336001600160a01b0316141561044e57610447610774565b9050610456565b61045661031b565b90565b6104616107bd565b6001600160a01b0316336001600160a01b03161415610364576001600160a01b0381166104c257604051600160e51b62461bcd0281526004018080602001828103825260368152602001806108ea6036913960400191505060405180910390fd5b7f7e644d79422f17c01e4894b5f4f588d331ebfa28653d42ae832dc59e38c9798f6104eb6107bd565b604080516001600160a01b03928316815291841660208301528051918290030190a161035f81610822565b6000610520610774565b6001600160a01b03161461053357600080fd5b61053d83826105a6565b604080517f656970313936372e70726f78792e61646d696e00000000000000000000000000815290519081900360130190207fb53127684a568b3173ae13b9f8a6016e243e63b6e8ee1178d6a717850b5d61036000199091011461059d57fe5b61041782610822565b60006105b0610774565b6001600160a01b0316146105c357600080fd5b604080517f656970313936372e70726f78792e696d706c656d656e746174696f6e000000008152905190819003601c0190207f360894a13ba1a3210667c828492db98dca3e2076cc3735a920a3ca505d382bbc6000199091011461062357fe5b61062c82610846565b8051156106e2576000826001600160a01b0316826040518082805190602001908083835b6020831061066f5780518252601f199092019160209182019101610650565b6001836020036101000a038019825116818451168082178552505050505050905001915050600060405180830381855af49150503d80600081146106cf576040519150601f19603f3d011682016040523d82523d6000602084013e6106d4565b606091505b505090508061041757600080fd5b5050565b60006106f06107bd565b6001600160a01b0316336001600160a01b0316141561044e576104476107bd565b6107196107bd565b6001600160a01b0316336001600160a01b0316141561076c57604051600160e51b62461bcd0281526004018080602001828103825260328152602001806108b86032913960400191505060405180910390fd5b610333610333565b7f360894a13ba1a3210667c828492db98dca3e2076cc3735a920a3ca505d382bbc5490565b3660008037600080366000845af43d6000803e8080156107b8573d6000f35b3d6000fd5b7fb53127684a568b3173ae13b9f8a6016e243e63b6e8ee1178d6a717850b5d61035490565b6107eb81610846565b6040516001600160a01b038216907fbc7cd75a20ee27fd9adebab32041f755214dbc6bffa90cc0225b39da2e5c2d3b90600090a250565b7fb53127684a568b3173ae13b9f8a6016e243e63b6e8ee1178d6a717850b5d610355565b61084f816108b1565b61088d57604051600160e51b62461bcd02815260040180806020018281038252603b815260200180610920603b913960400191505060405180910390fd5b7f360894a13ba1a3210667c828492db98dca3e2076cc3735a920a3ca505d382bbc55565b3b15159056fe43616e6e6f742063616c6c2066616c6c6261636b2066756e6374696f6e2066726f6d207468652070726f78792061646d696e43616e6e6f74206368616e6765207468652061646d696e206f6620612070726f787920746f20746865207a65726f206164647265737343616e6e6f742073657420612070726f787920696d706c656d656e746174696f6e20746f2061206e6f6e2d636f6e74726163742061646472657373a165627a7a72305820acd86240912c703ba88ccefef3db77e88d3507353c7c194b0b27eed571ae96c90029",
  "source": "// Factory for Verified cash and bond tokens\r\n// (c) Kallol Borah, 2021\r\n\r\npragma solidity 0.5.7;\r\n\r\nimport \"./interfaces/IFactory.sol\";\r\nimport \"@openzeppelin/upgrades/contracts/Initializable.sol\";\r\nimport \"@openzeppelin/upgrades/contracts/upgradeability/ProxyFactory.sol\";\r\nimport \"@openzeppelin/contracts-ethereum-package/contracts/ownership/Ownable.sol\";\r\n\r\ncontract L1Factory is IFactory, ProxyFactory, Initializable, Ownable{\r\n\r\n    event IssuerCreated(address indexed _address, bytes32 tokenName, bytes32 tokenType);\r\n\r\n    struct via{\r\n        bytes32 tokenType;\r\n        bytes32 name;        \r\n    }\r\n\r\n    //addresses of all Via proxies\r\n    mapping(address => via) public token;\r\n\r\n    //mapping token type to token name to issuer address\r\n    mapping(bytes32 => mapping(bytes32 => address)) issuers;\r\n\r\n    address[] public tokens;\r\n\r\n    function initialize() public initializer{\r\n        Ownable.initialize(msg.sender);\r\n    }\r\n\r\n    function getTokenCount() external view returns(uint tokenCount) {\r\n        return tokens.length;\r\n    }\r\n\r\n    function getToken(uint256 n) external view returns(address){\r\n        return tokens[n];\r\n    }\r\n\r\n    function getName(address viaAddress) external view returns(bytes32) {\r\n        return token[viaAddress].name;\r\n    }\r\n\r\n    function getType(address viaAddress) external view returns(bytes32) {\r\n        return token[viaAddress].tokenType;\r\n    }\r\n\r\n    function getNameAndType(address viaAddress) external view returns(bytes32, bytes32){\r\n        return (token[viaAddress].name, token[viaAddress].tokenType);\r\n    }\r\n\r\n    function getTokenByNameType(bytes32 tokenName, bytes32 tokenType) external view returns(address){\r\n        for(uint256 q=0; q<tokens.length; q++){\r\n            if(token[tokens[q]].name == tokenName && token[tokens[q]].tokenType == tokenType)\r\n                return tokens[q];\r\n        }\r\n    }\r\n\r\n    function getIssuer(bytes32 tokenType, bytes32 tokenName) external view returns(address){\r\n        return issuers[tokenType][tokenName];\r\n    }\r\n\r\n    function createIssuer(address _target, bytes32 tokenName, bytes32 tokenType, bytes32 tokenCurrency, address feeRate, address bridge) onlyOwner external{\r\n        bytes memory _payload = abi.encodeWithSignature(\"initialize(bytes32,bytes32,address,address,address)\", tokenName, tokenCurrency, owner(), feeRate, bridge);\r\n\r\n        // Deploy proxy\r\n        address _issuer = deployMinimal(_target, _payload);\r\n        emit IssuerCreated(_issuer, tokenName, tokenType);\r\n\r\n        if(tokenType == \"Cash\"){\r\n            token[_issuer] = via(\"ViaCash\", tokenCurrency);\r\n            tokens.push(_issuer);\r\n            issuers[\"ViaCash\"][tokenCurrency] = _issuer;\r\n        }\r\n        else if(tokenType == \"Bond\"){\r\n            token[_issuer] = via(\"ViaBond\", tokenCurrency);\r\n            tokens.push(_issuer);\r\n            issuers[\"ViaBond\"][tokenCurrency] = _issuer;\r\n        }\r\n\r\n    }\r\n    \r\n}",
  "sourcePath": "D:\\Code\\verified-quorum\\payments\\contracts\\L1Factory.sol",
  "compiler": {
    "name": "solc",
    "version": "0.5.7+commit.6da8b019.Emscripten.clang"
  },
  "schemaVersion": "3.4.3",
  "updatedAt": "2022-05-11T12:32:08.933Z",
  "networkType": "ethereum",
  "devdoc": {
    "methods": {
      "initialize(address)": {
        "details": "Initializes the contract setting the deployer as the initial owner."
      },
      "isOwner()": {
        "details": "Returns true if the caller is the current owner."
      },
      "owner()": {
        "details": "Returns the address of the current owner."
      },
      "renounceOwnership()": {
        "details": "Leaves the contract without owner. It will not be possible to call `onlyOwner` functions anymore. Can only be called by the current owner.     * > Note: Renouncing ownership will leave the contract without an owner, thereby removing any functionality that is only available to the owner."
      },
      "transferOwnership(address)": {
        "details": "Transfers ownership of the contract to a new account (`newOwner`). Can only be called by the current owner."
      }
    }
  },
  "userdoc": {
    "methods": {}
  }
}