{
  "contractName": "L1Security",
  "abi": [
    {
      "constant": true,
      "inputs": [
        {
          "name": "",
          "type": "uint256"
        }
      ],
      "name": "holders",
      "outputs": [
        {
          "name": "",
          "type": "address"
        }
      ],
      "payable": false,
      "stateMutability": "view",
      "type": "function"
    },
    {
      "constant": false,
      "inputs": [],
      "name": "renounceOwnership",
      "outputs": [],
      "payable": false,
      "stateMutability": "nonpayable",
      "type": "function"
    },
    {
      "constant": true,
      "inputs": [],
      "name": "owner",
      "outputs": [
        {
          "name": "",
          "type": "address"
        }
      ],
      "payable": false,
      "stateMutability": "view",
      "type": "function"
    },
    {
      "constant": true,
      "inputs": [],
      "name": "isOwner",
      "outputs": [
        {
          "name": "",
          "type": "bool"
        }
      ],
      "payable": false,
      "stateMutability": "view",
      "type": "function"
    },
    {
      "constant": true,
      "inputs": [],
      "name": "isPaused",
      "outputs": [
        {
          "name": "",
          "type": "bool"
        }
      ],
      "payable": false,
      "stateMutability": "view",
      "type": "function"
    },
    {
      "constant": false,
      "inputs": [
        {
          "name": "newOwner",
          "type": "address"
        }
      ],
      "name": "transferOwnership",
      "outputs": [],
      "payable": false,
      "stateMutability": "nonpayable",
      "type": "function"
    },
    {
      "anonymous": false,
      "inputs": [],
      "name": "Paused",
      "type": "event"
    },
    {
      "anonymous": false,
      "inputs": [],
      "name": "Unpaused",
      "type": "event"
    },
    {
      "anonymous": false,
      "inputs": [
        {
          "indexed": true,
          "name": "previousOwner",
          "type": "address"
        },
        {
          "indexed": true,
          "name": "newOwner",
          "type": "address"
        }
      ],
      "name": "OwnershipTransferred",
      "type": "event"
    },
    {
      "constant": false,
      "inputs": [],
      "name": "initialize",
      "outputs": [],
      "payable": false,
      "stateMutability": "nonpayable",
      "type": "function"
    },
    {
      "constant": false,
      "inputs": [
        {
          "name": "sender",
          "type": "address"
        }
      ],
      "name": "initialize",
      "outputs": [],
      "payable": false,
      "stateMutability": "nonpayable",
      "type": "function"
    },
    {
      "constant": false,
      "inputs": [
        {
          "name": "_signer",
          "type": "address"
        }
      ],
      "name": "setSigner",
      "outputs": [],
      "payable": false,
      "stateMutability": "nonpayable",
      "type": "function"
    },
    {
      "constant": false,
      "inputs": [
        {
          "name": "isin",
          "type": "bytes32"
        },
        {
          "name": "amount",
          "type": "uint256"
        },
        {
          "name": "tokenHolder",
          "type": "address"
        },
        {
          "name": "currency",
          "type": "bytes32"
        },
        {
          "name": "_hashedMessage",
          "type": "bytes32"
        },
        {
          "name": "_v",
          "type": "uint8"
        },
        {
          "name": "_r",
          "type": "bytes32"
        },
        {
          "name": "_s",
          "type": "bytes32"
        }
      ],
      "name": "addToBalance",
      "outputs": [],
      "payable": false,
      "stateMutability": "nonpayable",
      "type": "function"
    },
    {
      "constant": false,
      "inputs": [
        {
          "name": "isin",
          "type": "bytes32"
        },
        {
          "name": "transferor",
          "type": "address"
        },
        {
          "name": "amount",
          "type": "uint256"
        },
        {
          "name": "transferee",
          "type": "address"
        },
        {
          "name": "currency",
          "type": "bytes32"
        },
        {
          "name": "_hashedMessage",
          "type": "bytes32"
        },
        {
          "name": "_v",
          "type": "uint8"
        },
        {
          "name": "_r",
          "type": "bytes32"
        },
        {
          "name": "_s",
          "type": "bytes32"
        }
      ],
      "name": "transferBalance",
      "outputs": [],
      "payable": false,
      "stateMutability": "nonpayable",
      "type": "function"
    }
  ],
  "bytecode": "0x6080604052610fd6806100136000396000f3fe608060405234801561001057600080fd5b50600436106100a95760003560e01c80638da5cb5b116100715780638da5cb5b146101735780638f32d59b1461017b578063af7139b914610197578063b187bd26146101f4578063c4d66de8146101fc578063f2fde38b14610222576100a9565b80631f5ceadc146100ae5780632a11ced0146101045780636c19e7831461013d578063715018a6146101635780638129fc1c1461016b575b600080fd5b61010260048036036101008110156100c557600080fd5b508035906020810135906001600160a01b036040820135169060608101359060808101359060ff60a0820135169060c08101359060e00135610248565b005b6101216004803603602081101561011a57600080fd5b5035610266565b604080516001600160a01b039092168252519081900360200190f35b6101026004803603602081101561015357600080fd5b50356001600160a01b031661028d565b61010261030b565b6101026103b1565b61012161045f565b61018361046e565b604080519115158252519081900360200190f35b61010260048036036101208110156101ae57600080fd5b508035906001600160a01b0360208201358116916040810135916060820135169060808101359060a08101359060ff60c0820135169060e0810135906101000135610494565b61018361059f565b6101026004803603602081101561021257600080fd5b50356001600160a01b03166105a8565b6101026004803603602081101561023857600080fd5b50356001600160a01b031661069d565b61025c8861025589610702565b8888610768565b5050505050505050565b6068818154811061027357fe5b6000918252602090912001546001600160a01b0316905081565b61029561046e565b6102e95760408051600160e51b62461bcd02815260206004820181905260248201527f4f776e61626c653a2063616c6c6572206973206e6f7420746865206f776e6572604482015290519081900360640190fd5b606980546001600160a01b0319166001600160a01b0392909216919091179055565b61031361046e565b6103675760408051600160e51b62461bcd02815260206004820181905260248201527f4f776e61626c653a2063616c6c6572206973206e6f7420746865206f776e6572604482015290519081900360640190fd5b6033546040516000916001600160a01b0316907f8be0079c531659141344cd1fd0a4f28419497f9722a3daafe3b4186f6b6457e0908390a3603380546001600160a01b0319169055565b600054610100900460ff16806103ca57506103ca61089d565b806103d8575060005460ff16155b61041657604051600160e51b62461bcd02815260040180806020018281038252602e815260200180610f7d602e913960400191505060405180910390fd5b600054610100900460ff16158015610441576000805460ff1961ff0019909116610100171660011790555b61044a336105a8565b801561045c576000805461ff00191690555b50565b6033546001600160a01b031690565b6033546000906001600160a01b03166104856108a3565b6001600160a01b031614905090565b6001600160a01b03881660009081526067602090815260408083208c84529091528120546104cd9060801b6104c88a610702565b6108a7565b60000b12156104db57600080fd5b6001600160a01b03881660009081526067602090815260408083208c84529091529020546105149060801b61050f89610702565b6109f2565b6001600160a01b03891660009081526067602090815260408083208d8452909152812080546001600160801b031916608093841c1790819055610558921b906108a7565b60000b610587576001600160a01b03881660009081526067602090815260408083208c84529091528120600101555b6105948961025589610702565b505050505050505050565b60665460ff1690565b600054610100900460ff16806105c157506105c161089d565b806105cf575060005460ff16155b61060d57604051600160e51b62461bcd02815260040180806020018281038252602e815260200180610f7d602e913960400191505060405180910390fd5b600054610100900460ff16158015610638576000805460ff1961ff0019909116610100171660011790555b603380546001600160a01b0319166001600160a01b0384811691909117918290556040519116906000907f8be0079c531659141344cd1fd0a4f28419497f9722a3daafe3b4186f6b6457e0908290a38015610699576000805461ff00191690555b5050565b6106a561046e565b6106f95760408051600160e51b62461bcd02815260206004820181905260248201527f4f776e61626c653a2063616c6c6572206973206e6f7420746865206f776e6572604482015290519081900360640190fd5b61045c81610a0b565b60008161071157506000610763565b81600061071d82610aaf565b90506070811015610736578060700382901b9150610749565b6070811115610749576070810382901c91505b613fff0160701b6001600160701b03919091161760801b90505b919050565b6001600160a01b038216600090815260676020908152604080832087845290915281205461079c9160809190911b906108a7565b60000b60011415610818576001600160a01b03821660009081526067602090815260408083208784529091529020546107d89060801b84610b52565b6001600160a01b0383166000908152606760209081526040808320888452909152902080546001600160801b03191660809290921c919091179055610897565b6001600160a01b0382166000818152606760209081526040808320888452909152812080546001600160801b031916608087901c17815560019081018490556068805491820181559091527fa2153420d844928b4421650203c77babc8b33d7f2e7b450e2966db0c220977530180546001600160a01b03191690911790555b50505050565b303b1590565b3390565b600060016001607f1b03608084901c16600160701b617fff028111156108cc57600080fd5b60016001607f1b03608084901c16600160701b617fff028111156108ef57600080fd5b6001600160801b031985811690851614158061091b5750600160701b617fff02826001600160801b0316105b61092457600080fd5b6001600160801b03198581169085161415610944576000925050506109ec565b60006001607f1b8660801c6001600160801b03161015905060006001607f1b8660801c6001600160801b03161015905081156109af5780156109a057826001600160801b0316846001600160801b0316116109a05760016109a4565b6000195b9450505050506109ec565b80156109c25760019450505050506109ec565b826001600160801b0316846001600160801b0316116109e3576000196109a4565b60019450505050505b92915050565b6000610a0483600160ff1b8418610b52565b9392505050565b6001600160a01b038116610a5357604051600160e51b62461bcd028152600401808060200182810382526026815260200180610f576026913960400191505060405180910390fd5b6033546040516001600160a01b038084169216907f8be0079c531659141344cd1fd0a4f28419497f9722a3daafe3b4186f6b6457e090600090a3603380546001600160a01b0319166001600160a01b0392909216919091179055565b6000808211610abd57600080fd5b6000600160801b8310610ad257608092831c92015b680100000000000000008310610aea57604092831c92015b6401000000008310610afe57602092831c92015b620100008310610b1057601092831c92015b6101008310610b2157600892831c92015b60108310610b3157600492831c92015b60048310610b4157600292831c92015b600283106109ec5760010192915050565b6000617fff6001600160801b03608085811c8216607090811c8416939186901c90921690911c811690821415610bc85780617fff1415610bbe576001600160801b03198581169085161415610bab5784925050506109ec565b50600160ef1b61ffff0291506109ec9050565b84925050506109ec565b80617fff1415610bdc5783925050506109ec565b6001607f1b608086901c6001600160801b0381169190911015906001600160701b031683610c0d5760019350610c14565b600160701b175b6001607f1b608087901c6001600160801b0381169190911015906001600160701b031684610c455760019450610c4c565b600160701b175b82610c7c576001600160801b03198816600160ff1b14610c6c5787610c6f565b60005b96505050505050506109ec565b80610c9c576001600160801b03198916600160ff1b14610c6c5788610c6f565b8486038415158315151415610daa576070811315610cc357899750505050505050506109ec565b6000811315610cd55790811c90610d04565b606f19811215610cee57889750505050505050506109ec565b6000811215610d04578060000384901c93508596505b92810192600160711b8410610d1f576001968701969390931c925b86617fff1415610d545784610d3c57600160f01b617fff02610d46565b6001600160f01b03195b9750505050505050506109ec565b600160701b841015610d695760009650610d76565b6001600160701b03841693505b83607088901b86610d88576000610d8e565b6001607f1b5b6001600160801b0316171760801b9750505050505050506109ec565b6000811315610dc557600184901b9350600187039650610ddc565b6000811215610ddc57600182901b91506001860396505b6070811315610dee5760019150610e3b565b6001811315610e0b576001810360018303901c6001019150610e3b565b606f19811215610e1e5760019350610e3b565b600019811215610e3b576001816000030360018503901c60010193505b818410610e4c578184039350610e55565b83820393508294505b83610e6b5750600096506109ec95505050505050565b6000610e7685610aaf565b90508060711415610e9c57600185901c6001600160701b03169450600188019750610eeb565b6070811015610ede57607081900380891115610ecb578086901b6001600160701b031695508089039850610ed8565b600098600019019590951b945b50610eeb565b6001600160701b03851694505b87617fff1415610f215785610f0857600160f01b617fff02610f12565b6001600160f01b03195b985050505050505050506109ec565b84607089901b87610f33576000610f39565b6001607f1b5b6001600160801b0316171760801b985050505050505050506109ec56fe4f776e61626c653a206e6577206f776e657220697320746865207a65726f2061646472657373436f6e747261637420696e7374616e63652068617320616c7265616479206265656e20696e697469616c697a6564a165627a7a72305820a4863cee9147f1ff54af00c67ee8cd4c97229763e2dce64beee746ba58d68a0b0029",
  "source": "// Verified securities manager that updates holdings of securities by users\r\n// (c) Kallol Borah, 2021\r\n\r\npragma solidity 0.5.7;\r\n\r\nimport \"./utilities/Pausable.sol\";\r\nimport \"abdk-libraries-solidity/ABDKMathQuad.sol\";\r\nimport \"@openzeppelin/upgrades/contracts/Initializable.sol\";\r\nimport \"@openzeppelin/contracts-ethereum-package/contracts/ownership/Ownable.sol\";\r\nimport \"@openzeppelin/contracts-ethereum-package/contracts/token/ERC20/ERC20.sol\";\r\n\r\ncontract L1Security is Initializable, Ownable, Pausable {\r\n\r\n    using ABDKMathQuad for uint256;\r\n    using ABDKMathQuad for int256;\r\n    using ABDKMathQuad for bytes16;\r\n\r\n    struct securities{\r\n        bytes16 amount;\r\n        bytes32 currency;\r\n    }\r\n\r\n    //mapping token holders to isin to securities struct\r\n    mapping(address => mapping(bytes32 => securities)) private securitiesHoldings;\r\n\r\n    address[] public holders;\r\n\r\n    //bridge\r\n    address bridge;\r\n\r\n    function initialize() public initializer{\r\n        Ownable.initialize(msg.sender);\r\n    }\r\n\r\n    function setSigner(address _signer) onlyOwner external{\r\n        bridge = _signer;\r\n    }\r\n\r\n    //called by L2 network to add issued security tokens to user balances\r\n    function addToBalance(bytes32 isin, uint256 amount, address tokenHolder, bytes32 currency, bytes32 _hashedMessage, uint8 _v, bytes32 _r, bytes32 _s) \r\n                            external {\r\n        /*bytes memory prefix = \"\\x19Ethereum Signed Message:\\n32\";\r\n        bytes32 prefixedHashMessage = keccak256(abi.encodePacked(prefix, _hashedMessage));\r\n        address signer = ecrecover(prefixedHashMessage, _v, _r, _s);\r\n        require(signer==bridge);*/\r\n        addBalance(isin, ABDKMathQuad.fromUInt(amount), tokenHolder, currency);\r\n    }\r\n\r\n    //adds issued security tokens to user balances\r\n    function addBalance(bytes32 isin, bytes16 amount, address tokenHolder, bytes32 currency) private{\r\n        if(ABDKMathQuad.cmp(securitiesHoldings[tokenHolder][isin].amount,0)==1){\r\n            securitiesHoldings[tokenHolder][isin].amount= ABDKMathQuad.add(securitiesHoldings[tokenHolder][isin].amount, amount);\r\n        } else{\r\n            securitiesHoldings[tokenHolder][isin].amount= amount;\r\n            securitiesHoldings[tokenHolder][isin].currency= currency;\r\n            holders.push(tokenHolder);\r\n        }\r\n    }\r\n\r\n    //transfers security token balance from one user to another\r\n    function transferBalance(bytes32 isin, address transferor, uint256 amount, address transferee, bytes32 currency, bytes32 _hashedMessage, uint8 _v, bytes32 _r, bytes32 _s) \r\n                            external {\r\n        /*bytes memory prefix = \"\\x19Ethereum Signed Message:\\n32\";\r\n        bytes32 prefixedHashMessage = keccak256(abi.encodePacked(prefix, _hashedMessage));\r\n        address signer = ecrecover(prefixedHashMessage, _v, _r, _s);\r\n        require(signer==bridge);*/\r\n        require(ABDKMathQuad.cmp(securitiesHoldings[transferor][isin].amount, ABDKMathQuad.fromUInt(amount))>=0);\r\n        securitiesHoldings[transferor][isin].amount= ABDKMathQuad.sub(securitiesHoldings[transferor][isin].amount, ABDKMathQuad.fromUInt(amount));\r\n        if(ABDKMathQuad.cmp(securitiesHoldings[transferor][isin].amount,0)==0){\r\n            securitiesHoldings[transferor][isin].currency=\"\";\r\n        }\r\n        addBalance(isin, ABDKMathQuad.fromUInt(amount), transferee, currency);\r\n    }\r\n\r\n}\r\n\r\n",
  "sourcePath": "D:\\Code\\verified-quorum\\payments\\contracts\\L1Security.sol",
  "compiler": {
    "name": "solc",
    "version": "0.5.7+commit.6da8b019.Emscripten.clang"
  },
  "schemaVersion": "3.4.3",
  "updatedAt": "2022-05-06T11:14:02.167Z",
  "networkType": "ethereum",
  "devdoc": {
    "methods": {
      "initialize(address)": {
        "details": "Initializes the contract setting the deployer as the initial owner."
      },
      "isOwner()": {
        "details": "Returns true if the caller is the current owner."
      },
      "isPaused()": {
        "return": "True: contract is paused\rFalse: contract is not paused\r"
      },
      "owner()": {
        "details": "Returns the address of the current owner."
      },
      "renounceOwnership()": {
        "details": "Leaves the contract without owner. It will not be possible to call `onlyOwner` functions anymore. Can only be called by the current owner.     * > Note: Renouncing ownership will leave the contract without an owner, thereby removing any functionality that is only available to the owner."
      },
      "transferOwnership(address)": {
        "details": "Transfers ownership of the contract to a new account (`newOwner`). Can only be called by the current owner."
      }
    }
  },
  "userdoc": {
    "methods": {
      "isPaused()": {
        "notice": "returns whether or not the contract is paused\r"
      }
    }
  }
}