{
  "contractName": "Security",
  "abi": [
    {
      "constant": true,
      "inputs": [
        {
          "name": "",
          "type": "uint256"
        }
      ],
      "name": "holders",
      "outputs": [
        {
          "name": "",
          "type": "address"
        }
      ],
      "payable": false,
      "stateMutability": "view",
      "type": "function"
    },
    {
      "constant": false,
      "inputs": [],
      "name": "renounceOwnership",
      "outputs": [],
      "payable": false,
      "stateMutability": "nonpayable",
      "type": "function"
    },
    {
      "constant": true,
      "inputs": [],
      "name": "owner",
      "outputs": [
        {
          "name": "",
          "type": "address"
        }
      ],
      "payable": false,
      "stateMutability": "view",
      "type": "function"
    },
    {
      "constant": true,
      "inputs": [],
      "name": "isOwner",
      "outputs": [
        {
          "name": "",
          "type": "bool"
        }
      ],
      "payable": false,
      "stateMutability": "view",
      "type": "function"
    },
    {
      "constant": true,
      "inputs": [],
      "name": "isPaused",
      "outputs": [
        {
          "name": "",
          "type": "bool"
        }
      ],
      "payable": false,
      "stateMutability": "view",
      "type": "function"
    },
    {
      "constant": false,
      "inputs": [
        {
          "name": "newOwner",
          "type": "address"
        }
      ],
      "name": "transferOwnership",
      "outputs": [],
      "payable": false,
      "stateMutability": "nonpayable",
      "type": "function"
    },
    {
      "anonymous": false,
      "inputs": [
        {
          "indexed": true,
          "name": "tokenHolder",
          "type": "address"
        },
        {
          "indexed": false,
          "name": "isin",
          "type": "bytes32"
        },
        {
          "indexed": false,
          "name": "currency",
          "type": "bytes32"
        },
        {
          "indexed": false,
          "name": "amount",
          "type": "uint256"
        }
      ],
      "name": "securitiesAdded",
      "type": "event"
    },
    {
      "anonymous": false,
      "inputs": [],
      "name": "Paused",
      "type": "event"
    },
    {
      "anonymous": false,
      "inputs": [],
      "name": "Unpaused",
      "type": "event"
    },
    {
      "anonymous": false,
      "inputs": [
        {
          "indexed": true,
          "name": "previousOwner",
          "type": "address"
        },
        {
          "indexed": true,
          "name": "newOwner",
          "type": "address"
        }
      ],
      "name": "OwnershipTransferred",
      "type": "event"
    },
    {
      "constant": false,
      "inputs": [],
      "name": "initialize",
      "outputs": [],
      "payable": false,
      "stateMutability": "nonpayable",
      "type": "function"
    },
    {
      "constant": false,
      "inputs": [
        {
          "name": "sender",
          "type": "address"
        }
      ],
      "name": "initialize",
      "outputs": [],
      "payable": false,
      "stateMutability": "nonpayable",
      "type": "function"
    },
    {
      "constant": false,
      "inputs": [
        {
          "name": "_signer",
          "type": "address"
        }
      ],
      "name": "setSigner",
      "outputs": [],
      "payable": false,
      "stateMutability": "nonpayable",
      "type": "function"
    },
    {
      "constant": false,
      "inputs": [
        {
          "name": "isin",
          "type": "bytes32"
        },
        {
          "name": "amount",
          "type": "uint256"
        },
        {
          "name": "tokenHolder",
          "type": "address"
        },
        {
          "name": "currency",
          "type": "bytes32"
        },
        {
          "name": "_hashedMessage",
          "type": "bytes32"
        },
        {
          "name": "_v",
          "type": "uint8"
        },
        {
          "name": "_r",
          "type": "bytes32"
        },
        {
          "name": "_s",
          "type": "bytes32"
        }
      ],
      "name": "addToBalance",
      "outputs": [],
      "payable": false,
      "stateMutability": "nonpayable",
      "type": "function"
    },
    {
      "constant": false,
      "inputs": [
        {
          "name": "isin",
          "type": "bytes32"
        },
        {
          "name": "transferor",
          "type": "address"
        },
        {
          "name": "amount",
          "type": "uint256"
        },
        {
          "name": "transferee",
          "type": "address"
        },
        {
          "name": "currency",
          "type": "bytes32"
        },
        {
          "name": "_hashedMessage",
          "type": "bytes32"
        },
        {
          "name": "_v",
          "type": "uint8"
        },
        {
          "name": "_r",
          "type": "bytes32"
        },
        {
          "name": "_s",
          "type": "bytes32"
        }
      ],
      "name": "transferBalance",
      "outputs": [],
      "payable": false,
      "stateMutability": "nonpayable",
      "type": "function"
    }
  ],
  "bytecode": "0x60806040526112ed806100136000396000f3fe608060405234801561001057600080fd5b50600436106100a95760003560e01c80638da5cb5b116100715780638da5cb5b146101735780638f32d59b1461017b578063af7139b914610197578063b187bd26146101f4578063c4d66de8146101fc578063f2fde38b14610222576100a9565b80631f5ceadc146100ae5780632a11ced0146101045780636c19e7831461013d578063715018a6146101635780638129fc1c1461016b575b600080fd5b61010260048036036101008110156100c557600080fd5b508035906020810135906001600160a01b036040820135169060608101359060808101359060ff60a0820135169060c08101359060e00135610248565b005b6101216004803603602081101561011a57600080fd5b503561037c565b604080516001600160a01b039092168252519081900360200190f35b6101026004803603602081101561015357600080fd5b50356001600160a01b03166103a3565b610102610421565b6101026104c7565b610121610575565b610183610584565b604080519115158252519081900360200190f35b61010260048036036101208110156101ae57600080fd5b508035906001600160a01b0360208201358116916040810135916060820135169060808101359060a08101359060ff60c0820135169060e08101359061010001356105aa565b6101836107cb565b6101026004803603602081101561021257600080fd5b50356001600160a01b03166107d4565b6101026004803603602081101561023857600080fd5b50356001600160a01b03166108c9565b60408051602080820187905281830183905260066060830152600160d01b654c32746f4c31026080808401919091528351808403909101815260a0830184528051908201207f19457468657265756d205369676e6564204d6573736167653a0a33320000000060c084015260dc8084018290528451808503909101815260fc8401808652815191840191909120606954600090925261011c850180875281905260ff891661013c86015261015c850188905261017c850187905294519194936001600160a01b039091169260019261019c80840193601f198301929081900390910190855afa15801561033f573d6000803e3d6000fd5b505050602060405103516001600160a01b03161461035c57600080fd5b6103708a6103698b61092e565b8a8a610994565b50505050505050505050565b6068818154811061038957fe5b6000918252602090912001546001600160a01b0316905081565b6103ab610584565b6103ff5760408051600160e51b62461bcd02815260206004820181905260248201527f4f776e61626c653a2063616c6c6572206973206e6f7420746865206f776e6572604482015290519081900360640190fd5b606980546001600160a01b0319166001600160a01b0392909216919091179055565b610429610584565b61047d5760408051600160e51b62461bcd02815260206004820181905260248201527f4f776e61626c653a2063616c6c6572206973206e6f7420746865206f776e6572604482015290519081900360640190fd5b6033546040516000916001600160a01b0316907f8be0079c531659141344cd1fd0a4f28419497f9722a3daafe3b4186f6b6457e0908390a3603380546001600160a01b0319169055565b600054610100900460ff16806104e057506104e0610b1c565b806104ee575060005460ff16155b61052c57604051600160e51b62461bcd02815260040180806020018281038252602e815260200180611294602e913960400191505060405180910390fd5b600054610100900460ff16158015610557576000805460ff1961ff0019909116610100171660011790555b610560336107d4565b8015610572576000805461ff00191690555b50565b6033546001600160a01b031690565b6033546000906001600160a01b031661059b610b22565b6001600160a01b031614905090565b60408051602080820187905281830183905260066060830152600160d01b654c32746f4c31026080808401919091528351808403909101815260a0830184528051908201207f19457468657265756d205369676e6564204d6573736167653a0a33320000000060c084015260dc8084018290528451808503909101815260fc8401808652815191840191909120606954600090925261011c850180875281905260ff891661013c86015261015c850188905261017c850187905294519194936001600160a01b039091169260019261019c80840193601f198301929081900390910190855afa1580156106a1573d6000803e3d6000fd5b505050602060405103516001600160a01b0316146106be57600080fd5b6001600160a01b038a1660009081526067602090815260408083208e84529091528120546106f79060801b6106f28c61092e565b610b26565b60000b121561070557600080fd5b6001600160a01b038a1660009081526067602090815260408083208e845290915290205461073e9060801b6107398b61092e565b610c71565b6001600160a01b038b1660009081526067602090815260408083208f8452909152812080546001600160801b031916608093841c1790819055610782921b90610b26565b60000b6107b1576001600160a01b038a1660009081526067602090815260408083208e84529091528120600101555b6107be8b6103698b61092e565b5050505050505050505050565b60665460ff1690565b600054610100900460ff16806107ed57506107ed610b1c565b806107fb575060005460ff16155b61083957604051600160e51b62461bcd02815260040180806020018281038252602e815260200180611294602e913960400191505060405180910390fd5b600054610100900460ff16158015610864576000805460ff1961ff0019909116610100171660011790555b603380546001600160a01b0319166001600160a01b0384811691909117918290556040519116906000907f8be0079c531659141344cd1fd0a4f28419497f9722a3daafe3b4186f6b6457e0908290a380156108c5576000805461ff00191690555b5050565b6108d1610584565b6109255760408051600160e51b62461bcd02815260206004820181905260248201527f4f776e61626c653a2063616c6c6572206973206e6f7420746865206f776e6572604482015290519081900360640190fd5b61057281610c8a565b60008161093d5750600061098f565b81600061094982610d2e565b90506070811015610962578060700382901b9150610975565b6070811115610975576070810382901c91505b613fff0160701b6001600160701b03919091161760801b90505b919050565b6001600160a01b03821660009081526067602090815260408083208784529091528120546109c89160809190911b90610b26565b60000b60011415610a44576001600160a01b0382166000908152606760209081526040808320878452909152902054610a049060801b84610dd1565b6001600160a01b0383166000908152606760209081526040808320888452909152902080546001600160801b03191660809290921c919091179055610ac3565b6001600160a01b0382166000818152606760209081526040808320888452909152812080546001600160801b031916608087901c17815560019081018490556068805491820181559091527fa2153420d844928b4421650203c77babc8b33d7f2e7b450e2966db0c220977530180546001600160a01b03191690911790555b816001600160a01b03167f5797f457d0db576b80a01730b11c1d3fdfa0e84d5091c7a1d9a15f5d0ccdcb308583610af9876111d5565b60408051938452602084019290925282820152519081900360600190a250505050565b303b1590565b3390565b600060016001607f1b03608084901c16600160701b617fff02811115610b4b57600080fd5b60016001607f1b03608084901c16600160701b617fff02811115610b6e57600080fd5b6001600160801b0319858116908516141580610b9a5750600160701b617fff02826001600160801b0316105b610ba357600080fd5b6001600160801b03198581169085161415610bc357600092505050610c6b565b60006001607f1b8660801c6001600160801b03161015905060006001607f1b8660801c6001600160801b0316101590508115610c2e578015610c1f57826001600160801b0316846001600160801b031611610c1f576001610c23565b6000195b945050505050610c6b565b8015610c41576001945050505050610c6b565b826001600160801b0316846001600160801b031611610c6257600019610c23565b60019450505050505b92915050565b6000610c8383600160ff1b8418610dd1565b9392505050565b6001600160a01b038116610cd257604051600160e51b62461bcd02815260040180806020018281038252602681526020018061126e6026913960400191505060405180910390fd5b6033546040516001600160a01b038084169216907f8be0079c531659141344cd1fd0a4f28419497f9722a3daafe3b4186f6b6457e090600090a3603380546001600160a01b0319166001600160a01b0392909216919091179055565b6000808211610d3c57600080fd5b6000600160801b8310610d5157608092831c92015b680100000000000000008310610d6957604092831c92015b6401000000008310610d7d57602092831c92015b620100008310610d8f57601092831c92015b6101008310610da057600892831c92015b60108310610db057600492831c92015b60048310610dc057600292831c92015b60028310610c6b5760010192915050565b6000617fff6001600160801b03608085811c8216607090811c8416939186901c90921690911c811690821415610e475780617fff1415610e3d576001600160801b03198581169085161415610e2a578492505050610c6b565b50600160ef1b61ffff029150610c6b9050565b8492505050610c6b565b80617fff1415610e5b578392505050610c6b565b6001607f1b608086901c6001600160801b0381169190911015906001600160701b031683610e8c5760019350610e93565b600160701b175b6001607f1b608087901c6001600160801b0381169190911015906001600160701b031684610ec45760019450610ecb565b600160701b175b82610efb576001600160801b03198816600160ff1b14610eeb5787610eee565b60005b9650505050505050610c6b565b80610f1b576001600160801b03198916600160ff1b14610eeb5788610eee565b8486038415158315151415611029576070811315610f425789975050505050505050610c6b565b6000811315610f545790811c90610f83565b606f19811215610f6d5788975050505050505050610c6b565b6000811215610f83578060000384901c93508596505b92810192600160711b8410610f9e576001968701969390931c925b86617fff1415610fd35784610fbb57600160f01b617fff02610fc5565b6001600160f01b03195b975050505050505050610c6b565b600160701b841015610fe85760009650610ff5565b6001600160701b03841693505b83607088901b8661100757600061100d565b6001607f1b5b6001600160801b0316171760801b975050505050505050610c6b565b600081131561104457600184901b935060018703965061105b565b600081121561105b57600182901b91506001860396505b607081131561106d57600191506110ba565b600181131561108a576001810360018303901c60010191506110ba565b606f1981121561109d57600193506110ba565b6000198112156110ba576001816000030360018503901c60010193505b8184106110cb5781840393506110d4565b83820393508294505b836110ea575060009650610c6b95505050505050565b60006110f585610d2e565b9050806071141561111b57600185901c6001600160701b0316945060018801975061116a565b607081101561115d5760708190038089111561114a578086901b6001600160701b031695508089039850611157565b600098600019019590951b945b5061116a565b6001600160701b03851694505b87617fff14156111a0578561118757600160f01b617fff02611191565b6001600160f01b03195b98505050505050505050610c6b565b84607089901b876111b25760006111b8565b6001607f1b5b6001600160801b0316171760801b98505050505050505050610c6b565b6000617fff6001600160801b03608084901c1660701c16613fff81101561120057600091505061098f565b6001607f1b8360801c6001600160801b03161061121c57600080fd5b6140fe81111561122b57600080fd5b600160701b6001600160701b03608085901c161761406f8210156112555761406f8290031c610c83565b61406f821115610c835761406e1982011b939250505056fe4f776e61626c653a206e6577206f776e657220697320746865207a65726f2061646472657373436f6e747261637420696e7374616e63652068617320616c7265616479206265656e20696e697469616c697a6564a165627a7a723058205f034ae32086b61fb06f93c0a1d603db0431cfa1d7b69876b399bb9d4974d8eb0029",
  "source": "// Verified securities manager that updates holdings of securities by users\r\n// (c) Kallol Borah, 2021\r\n\r\npragma solidity 0.5.7;\r\n\r\nimport \"./utilities/Pausable.sol\";\r\nimport \"abdk-libraries-solidity/ABDKMathQuad.sol\";\r\nimport \"@openzeppelin/upgrades/contracts/Initializable.sol\";\r\nimport \"@openzeppelin/contracts-ethereum-package/contracts/ownership/Ownable.sol\";\r\nimport \"@openzeppelin/contracts-ethereum-package/contracts/token/ERC20/ERC20.sol\";\r\n\r\ncontract Security is Initializable, Ownable, Pausable {\r\n\r\n    using ABDKMathQuad for uint256;\r\n    using ABDKMathQuad for int256;\r\n    using ABDKMathQuad for bytes16;\r\n\r\n    struct securities{\r\n        bytes16 amount;\r\n        bytes32 currency;\r\n    }\r\n\r\n    //mapping token holders to isin to securities struct\r\n    mapping(address => mapping(bytes32 => securities)) private securitiesHoldings;\r\n\r\n    address[] public holders;\r\n\r\n    //bridge\r\n    address bridge;\r\n\r\n    //events\r\n    event securitiesAdded(address indexed tokenHolder, bytes32 isin, bytes32 currency, uint256 amount); \r\n\r\n    modifier onlySigner(bytes32 _hashedMessage, uint8 _v, bytes32 _r, bytes32 _s){\r\n        bytes32 payloadHash = keccak256(abi.encode(_hashedMessage, \"L2toL1\"));\r\n        bytes32 messageHash = keccak256(abi.encodePacked(\"\\x19Ethereum Signed Message:\\n32\", payloadHash));\r\n        require(ecrecover(messageHash, _v, _r, _s)== bridge);\r\n        _;\r\n    }\r\n\r\n    function initialize() public initializer{\r\n        Ownable.initialize(msg.sender);\r\n    }\r\n\r\n    function setSigner(address _signer) onlyOwner external{\r\n        bridge = _signer;\r\n    }\r\n    \r\n    //called by L2 network to add issued security tokens to user balances\r\n    function addToBalance(bytes32 isin, uint256 amount, address tokenHolder, bytes32 currency, bytes32 _hashedMessage, uint8 _v, bytes32 _r, bytes32 _s) \r\n                            external {  \r\n        bytes32 payloadHash = keccak256(abi.encode(_hashedMessage, \"L2toL1\"));\r\n        bytes32 messageHash = keccak256(abi.encodePacked(\"\\x19Ethereum Signed Message:\\n32\", payloadHash));\r\n        require(ecrecover(messageHash, _v, _r, _s)== bridge);\r\n        addBalance(isin, ABDKMathQuad.fromUInt(amount), tokenHolder, currency);        \r\n    }\r\n\r\n    //adds issued security tokens to user balances\r\n    function addBalance(bytes32 isin, bytes16 amount, address tokenHolder, bytes32 currency) private{\r\n        if(ABDKMathQuad.cmp(securitiesHoldings[tokenHolder][isin].amount,0)==1){\r\n            securitiesHoldings[tokenHolder][isin].amount= ABDKMathQuad.add(securitiesHoldings[tokenHolder][isin].amount, amount);\r\n        } else{\r\n            securitiesHoldings[tokenHolder][isin].amount= amount;\r\n            securitiesHoldings[tokenHolder][isin].currency= currency;\r\n            holders.push(tokenHolder);\r\n        }\r\n        emit securitiesAdded(tokenHolder, isin, currency, ABDKMathQuad.toUInt(amount));\r\n    }\r\n\r\n    //transfers security token balance from one user to another\r\n    function transferBalance(bytes32 isin, address transferor, uint256 amount, address transferee, bytes32 currency, bytes32 _hashedMessage, uint8 _v, bytes32 _r, bytes32 _s) \r\n                            external {\r\n        bytes32 payloadHash = keccak256(abi.encode(_hashedMessage, \"L2toL1\"));\r\n        bytes32 messageHash = keccak256(abi.encodePacked(\"\\x19Ethereum Signed Message:\\n32\", payloadHash));\r\n        require(ecrecover(messageHash, _v, _r, _s)== bridge);\r\n        require(ABDKMathQuad.cmp(securitiesHoldings[transferor][isin].amount, ABDKMathQuad.fromUInt(amount))>=0);\r\n        securitiesHoldings[transferor][isin].amount= ABDKMathQuad.sub(securitiesHoldings[transferor][isin].amount, ABDKMathQuad.fromUInt(amount));\r\n        if(ABDKMathQuad.cmp(securitiesHoldings[transferor][isin].amount,0)==0){\r\n            securitiesHoldings[transferor][isin].currency=\"\";\r\n        }\r\n        addBalance(isin, ABDKMathQuad.fromUInt(amount), transferee, currency);\r\n    }\r\n\r\n}\r\n\r\n",
  "sourcePath": "D:\\Code\\verified-quorum\\payments\\contracts\\Security.sol",
  "compiler": {
    "name": "solc",
    "version": "0.5.7+commit.6da8b019.Emscripten.clang"
  },
  "schemaVersion": "3.4.3",
  "updatedAt": "2022-05-13T09:57:34.479Z",
  "networkType": "ethereum",
  "devdoc": {
    "methods": {
      "initialize(address)": {
        "details": "Initializes the contract setting the deployer as the initial owner."
      },
      "isOwner()": {
        "details": "Returns true if the caller is the current owner."
      },
      "isPaused()": {
        "return": "True: contract is paused\rFalse: contract is not paused\r"
      },
      "owner()": {
        "details": "Returns the address of the current owner."
      },
      "renounceOwnership()": {
        "details": "Leaves the contract without owner. It will not be possible to call `onlyOwner` functions anymore. Can only be called by the current owner.     * > Note: Renouncing ownership will leave the contract without an owner, thereby removing any functionality that is only available to the owner."
      },
      "transferOwnership(address)": {
        "details": "Transfers ownership of the contract to a new account (`newOwner`). Can only be called by the current owner."
      }
    }
  },
  "userdoc": {
    "methods": {
      "isPaused()": {
        "notice": "returns whether or not the contract is paused\r"
      }
    }
  }
}