{
  "contractName": "Client",
  "abi": [
    {
      "anonymous": false,
      "inputs": [
        {
          "indexed": false,
          "internalType": "address",
          "name": "manager",
          "type": "address"
        },
        {
          "indexed": true,
          "internalType": "address",
          "name": "submanager",
          "type": "address"
        },
        {
          "indexed": false,
          "internalType": "bytes32",
          "name": "role",
          "type": "bytes32"
        },
        {
          "indexed": false,
          "internalType": "bytes32",
          "name": "country",
          "type": "bytes32"
        },
        {
          "indexed": false,
          "internalType": "bytes32",
          "name": "managerId",
          "type": "bytes32"
        }
      ],
      "name": "ManagerAdded",
      "type": "event"
    },
    {
      "anonymous": false,
      "inputs": [
        {
          "indexed": false,
          "internalType": "address",
          "name": "manager",
          "type": "address"
        },
        {
          "indexed": true,
          "internalType": "address",
          "name": "submanager",
          "type": "address"
        },
        {
          "indexed": false,
          "internalType": "bytes32",
          "name": "role",
          "type": "bytes32"
        },
        {
          "indexed": false,
          "internalType": "bytes32",
          "name": "country",
          "type": "bytes32"
        }
      ],
      "name": "ManagerRemoved",
      "type": "event"
    },
    {
      "anonymous": false,
      "inputs": [
        {
          "indexed": true,
          "internalType": "address",
          "name": "previousOwner",
          "type": "address"
        },
        {
          "indexed": true,
          "internalType": "address",
          "name": "newOwner",
          "type": "address"
        }
      ],
      "name": "OwnershipTransferred",
      "type": "event"
    },
    {
      "inputs": [],
      "name": "owner",
      "outputs": [
        {
          "internalType": "address",
          "name": "",
          "type": "address"
        }
      ],
      "stateMutability": "view",
      "type": "function",
      "constant": true
    },
    {
      "inputs": [],
      "name": "renounceOwnership",
      "outputs": [],
      "stateMutability": "nonpayable",
      "type": "function"
    },
    {
      "inputs": [
        {
          "internalType": "address",
          "name": "newOwner",
          "type": "address"
        }
      ],
      "name": "transferOwnership",
      "outputs": [],
      "stateMutability": "nonpayable",
      "type": "function"
    },
    {
      "inputs": [
        {
          "internalType": "address",
          "name": "_signer",
          "type": "address"
        }
      ],
      "name": "initialize",
      "outputs": [],
      "stateMutability": "nonpayable",
      "type": "function"
    },
    {
      "inputs": [
        {
          "internalType": "address",
          "name": "_signer",
          "type": "address"
        }
      ],
      "name": "setSigner",
      "outputs": [],
      "stateMutability": "nonpayable",
      "type": "function"
    },
    {
      "inputs": [
        {
          "internalType": "address",
          "name": "_manager",
          "type": "address"
        },
        {
          "internalType": "address",
          "name": "_submanager",
          "type": "address"
        },
        {
          "internalType": "bytes32",
          "name": "_country",
          "type": "bytes32"
        },
        {
          "internalType": "bytes32",
          "name": "_role",
          "type": "bytes32"
        },
        {
          "internalType": "bytes32",
          "name": "_id",
          "type": "bytes32"
        },
        {
          "internalType": "bytes32",
          "name": "_hashedMessage",
          "type": "bytes32"
        },
        {
          "internalType": "uint8",
          "name": "_v",
          "type": "uint8"
        },
        {
          "internalType": "bytes32",
          "name": "_r",
          "type": "bytes32"
        },
        {
          "internalType": "bytes32",
          "name": "_s",
          "type": "bytes32"
        }
      ],
      "name": "addRole",
      "outputs": [],
      "stateMutability": "nonpayable",
      "type": "function"
    },
    {
      "inputs": [
        {
          "internalType": "address",
          "name": "_user",
          "type": "address"
        }
      ],
      "name": "getRole",
      "outputs": [
        {
          "internalType": "bytes32",
          "name": "",
          "type": "bytes32"
        },
        {
          "internalType": "bytes32",
          "name": "",
          "type": "bytes32"
        }
      ],
      "stateMutability": "view",
      "type": "function",
      "constant": true
    },
    {
      "inputs": [
        {
          "internalType": "address",
          "name": "_manager",
          "type": "address"
        },
        {
          "internalType": "address",
          "name": "_submanager",
          "type": "address"
        },
        {
          "internalType": "bytes32",
          "name": "_country",
          "type": "bytes32"
        },
        {
          "internalType": "bytes32",
          "name": "_role",
          "type": "bytes32"
        },
        {
          "internalType": "bytes32",
          "name": "_hashedMessage",
          "type": "bytes32"
        },
        {
          "internalType": "uint8",
          "name": "_v",
          "type": "uint8"
        },
        {
          "internalType": "bytes32",
          "name": "_r",
          "type": "bytes32"
        },
        {
          "internalType": "bytes32",
          "name": "_s",
          "type": "bytes32"
        }
      ],
      "name": "removeRole",
      "outputs": [],
      "stateMutability": "nonpayable",
      "type": "function"
    },
    {
      "inputs": [
        {
          "internalType": "address",
          "name": "client",
          "type": "address"
        },
        {
          "internalType": "bytes32",
          "name": "name",
          "type": "bytes32"
        },
        {
          "internalType": "bytes32",
          "name": "surname",
          "type": "bytes32"
        },
        {
          "internalType": "bytes32",
          "name": "country",
          "type": "bytes32"
        },
        {
          "internalType": "uint256",
          "name": "status",
          "type": "uint256"
        },
        {
          "internalType": "bytes32",
          "name": "_hashedMessage",
          "type": "bytes32"
        },
        {
          "internalType": "uint8",
          "name": "_v",
          "type": "uint8"
        },
        {
          "internalType": "bytes32",
          "name": "_r",
          "type": "bytes32"
        },
        {
          "internalType": "bytes32",
          "name": "_s",
          "type": "bytes32"
        }
      ],
      "name": "KycUpdate",
      "outputs": [],
      "stateMutability": "nonpayable",
      "type": "function"
    },
    {
      "inputs": [
        {
          "internalType": "address",
          "name": "party",
          "type": "address"
        }
      ],
      "name": "getTransferAgent",
      "outputs": [
        {
          "internalType": "bytes32",
          "name": "",
          "type": "bytes32"
        }
      ],
      "stateMutability": "view",
      "type": "function",
      "constant": true
    }
  ],
  "bytecode": "0x608060405234801561001057600080fd5b50600061001b61006a565b600080546001600160a01b0319166001600160a01b0383169081178255604051929350917f8be0079c531659141344cd1fd0a4f28419497f9722a3daafe3b4186f6b6457e0908290a35061006e565b3390565b61118b8061007d6000396000f3fe608060405234801561001057600080fd5b506004361061009e5760003560e01c80638d0cbe91116100665780638d0cbe91146101a95780638da5cb5b14610201578063c4d66de81461017b578063e639e9a214610225578063f2fde38b146102805761009e565b8063055f5540146100a357806344276733146100db57806348566e1d1461011a5780636c19e7831461017b578063715018a6146101a1575b600080fd5b6100c9600480360360208110156100b957600080fd5b50356001600160a01b03166102a6565b60408051918252519081900360200190f35b610101600480360360208110156100f157600080fd5b50356001600160a01b03166102d4565b6040805192835260208301919091528051918290030190f35b610179600480360361012081101561013157600080fd5b506001600160a01b03813581169160208101359091169060408101359060608101359060808101359060a08101359060ff60c0820135169060e081013590610100013561040c565b005b6101796004803603602081101561019157600080fd5b50356001600160a01b0316610669565b6101796106ff565b61017960048036036101008110156101c057600080fd5b506001600160a01b03813581169160208101359091169060408101359060608101359060808101359060ff60a0820135169060c08101359060e001356107bd565b610209610b15565b604080516001600160a01b039092168252519081900360200190f35b610179600480360361012081101561023c57600080fd5b506001600160a01b038135169060208101359060408101359060608101359060808101359060a08101359060ff60c0820135169060e0810135906101000135610b24565b6101796004803603602081101561029657600080fd5b50356001600160a01b0316610d65565b6001600160a01b03908116600090815260046020908152604080832054909316825260059052206003015490565b6001600160a01b038116600090815260076020526040812054819080156103c857836001600160a01b03166006600183038154811061030f57fe5b6000918252602090912001546001600160a01b031614156103c857600560006006600184038154811061033e57fe5b9060005260206000200160009054906101000a90046001600160a01b03166001600160a01b03166001600160a01b0316815260200190815260200160002060020154600560006006600185038154811061039457fe5b60009182526020808320909101546001600160a01b0316835282019290925260400190206003015490935091506104079050565b6103d0610b15565b6001600160a01b0316846001600160a01b031614156103fe576420b236b4b760d91b60009250925050610407565b60008092509250505b915091565b60408051602080820187905281830183905260066060830152654c32746f4c3160d01b6080808401919091528351808403909101815260a0830184528051908201207f19457468657265756d205369676e6564204d6573736167653a0a33320000000060c084015260dc8084018290528451808503909101815260fc840180865281519184019190912060018054600090935261011c860180885282905260ff8a1661013c87015261015c860189905261017c86018890529551929590946001600160a01b0390921693909261019c80840193601f198301929081900390910190855afa158015610501573d6000803e3d6000fd5b505050602060405103516001600160a01b03161461051e57600080fd5b876821bab9ba37b234b0b760b91b148061053c57508761414d60f01b145b8061054b57508761044560f41b145b8061055e5750876512d650d0535360d21b145b61056757600080fd5b60068054600180820183557ff652222313e28459528d920b65115c16c04f3efc82aaedc97be59f3f377c0d3f90910180546001600160a01b03199081166001600160a01b038f81169182179093559354600094855260076020908152604080872092909255600590529093208054909316908e1617825581018a90556002810189905560030187905561044560f41b881415610607576106078a8a610e79565b604080516001600160a01b038d81168252602082018b90528183018c9052606082018a90529151918c16917fefc0db5f83f77f89452c2f94b82b44e255b3488e98d72feed0d80672ae36c8cc9181900360800190a25050505050505050505050565b610671610f53565b6001600160a01b0316610682610b15565b6001600160a01b0316146106dd576040805162461bcd60e51b815260206004820181905260248201527f4f776e61626c653a2063616c6c6572206973206e6f7420746865206f776e6572604482015290519081900360640190fd5b600180546001600160a01b0319166001600160a01b0392909216919091179055565b610707610f53565b6001600160a01b0316610718610b15565b6001600160a01b031614610773576040805162461bcd60e51b815260206004820181905260248201527f4f776e61626c653a2063616c6c6572206973206e6f7420746865206f776e6572604482015290519081900360640190fd5b600080546040516001600160a01b03909116907f8be0079c531659141344cd1fd0a4f28419497f9722a3daafe3b4186f6b6457e0908390a3600080546001600160a01b0319169055565b60408051602080820187905281830183905260066060830152654c32746f4c3160d01b6080808401919091528351808403909101815260a0830184528051908201207f19457468657265756d205369676e6564204d6573736167653a0a33320000000060c084015260dc8084018290528451808503909101815260fc840180865281519184019190912060018054600090935261011c860180885282905260ff8a1661013c87015261015c860189905261017c86018890529551929590946001600160a01b0390921693909261019c80840193601f198301929081900390910190855afa1580156108b2573d6000803e3d6000fd5b505050602060405103516001600160a01b0316146108cf57600080fd5b866821bab9ba37b234b0b760b91b14806108ed57508661414d60f01b145b806108fc57508661044560f41b145b8061090f5750866512d650d0535360d21b145b61091857600080fd5b6001600160a01b0389166000908152600760205260409020548015610aa357896001600160a01b03166006600183038154811061095157fe5b6000918252602090912001546001600160a01b03161480156109ad575087600560006006600185038154811061098357fe5b60009182526020808320909101546001600160a01b03168352820192909252604001902060020154145b80156109f357508860056000600660018503815481106109c957fe5b60009182526020808320909101546001600160a01b03168352820192909252604001902060010154145b8015610a4557508a6001600160a01b03166005600060066001850381548110610a1857fe5b60009182526020808320909101546001600160a01b03908116845290830193909352604090910190205416145b15610aa3576005600060066001840381548110610a5e57fe5b60009182526020808320909101546001600160a01b03168352820192909252604001812080546001600160a01b03191681556001810182905560028101829055600301555b8761044560f41b1415610aba57610aba8a8a610f57565b604080516001600160a01b038d81168252602082018b90528183018c90529151918c16917f2d599c6854d4b4c59b4e99fde5e3cb617739de62ed97ff059d0305bcba6c8aac9181900360600190a25050505050505050505050565b6000546001600160a01b031690565b60408051602080820187905281830183905260066060830152654c32746f4c3160d01b6080808401919091528351808403909101815260a0830184528051908201207f19457468657265756d205369676e6564204d6573736167653a0a33320000000060c084015260dc8084018290528451808503909101815260fc840180865281519184019190912060018054600090935261011c860180885282905260ff8a1661013c87015261015c860189905261017c86018890529551929590946001600160a01b0390921693909261019c80840193601f198301929081900390910190855afa158015610c19573d6000803e3d6000fd5b505050602060405103516001600160a01b031614610c3657600080fd5b89600260008d6001600160a01b03166001600160a01b031681526020019081526020016000206000018190555088600260008d6001600160a01b03166001600160a01b031681526020019081526020016000206001018190555086600260008d6001600160a01b03166001600160a01b031681526020019081526020016000206002018190555087600260008d6001600160a01b03166001600160a01b0316815260200190815260200160002060030181905550600360008981526020019081526020016000208b9080600181540180825580915050600190039060005260206000200160009091909190916101000a8154816001600160a01b0302191690836001600160a01b03160217905550610d588b896518db1a595b9d60d21b611035565b5050505050505050505050565b610d6d610f53565b6001600160a01b0316610d7e610b15565b6001600160a01b031614610dd9576040805162461bcd60e51b815260206004820181905260248201527f4f776e61626c653a2063616c6c6572206973206e6f7420746865206f776e6572604482015290519081900360640190fd5b6001600160a01b038116610e1e5760405162461bcd60e51b81526004018080602001828103825260268152602001806111306026913960400191505060405180910390fd5b600080546040516001600160a01b03808516939216917f8be0079c531659141344cd1fd0a4f28419497f9722a3daafe3b4186f6b6457e091a3600080546001600160a01b0319166001600160a01b0392909216919091179055565b60005b600082815260036020526040902054811015610f4e5760008281526003602052604081208054600491839185908110610eb157fe5b60009182526020808320909101546001600160a01b039081168452908301939093526040909101902054161415610f46578260046000600360008681526020019081526020016000208481548110610f0557fe5b6000918252602080832091909101546001600160a01b039081168452908301939093526040909101902080546001600160a01b031916929091169190911790555b600101610e7c565b505050565b3390565b60005b600082815260036020526040902054811015610f4e57826001600160a01b031660046000600360008681526020019081526020016000208481548110610f9c57fe5b60009182526020808320909101546001600160a01b03908116845290830193909352604090910190205416141561102d5760008281526003602052604081208054600491839185908110610fec57fe5b6000918252602080832091909101546001600160a01b039081168452908301939093526040909101902080546001600160a01b031916929091169190911790555b600101610f5a565b806518db1a595b9d60d21b1415610f4e5760005b6006548110156111295782600560006006848154811061106557fe5b60009182526020808320909101546001600160a01b031683528201929092526040019020600101541480156110d6575060056000600683815481106110a657fe5b60009182526020808320909101546001600160a01b0316835282019290925260400190206002015461044560f41b145b1561112157600681815481106110e857fe5b60009182526020808320909101546001600160a01b0387811684526004909252604090922080546001600160a01b031916919092161790555b600101611049565b5050505056fe4f776e61626c653a206e6577206f776e657220697320746865207a65726f2061646472657373a264697066735822122045e3b09e768ed000c25e0a987ec0b3884b9c2b09553806a4155d97b003d8bd1f64736f6c634300060c0033",
  "immutableReferences": {},
  "source": "// Verified managers\r\n// (c) Kallol Borah, Verified Network, 2021\r\n\r\n//\"SPDX-License-Identifier: UNLICENSED\"\r\n\r\npragma solidity ^0.6.12;\r\n\r\nimport \"./interfaces/VerifiedClient.sol\";\r\nimport \"@openzeppelin/contracts/access/Ownable.sol\";\r\n\r\ncontract Client is VerifiedClient, Ownable {\r\n    \r\n    //bridge\r\n    address bridge;\r\n\r\n    struct role{\r\n        address manager;\r\n        bytes32 country;\r\n        bytes32 role;\r\n        bytes32 id;\r\n    }\r\n\r\n    struct user{\r\n        bytes32 name;\r\n        bytes32 surname;\r\n        uint256 kycstatus; //3 for pass, 1 for pending\r\n        bytes32 country;\r\n    }\r\n\r\n    //mapping of client address to user attributes\r\n    mapping(address => user) private clients;\r\n\r\n    //storing users for each country\r\n    mapping(bytes32 => address[]) private usersbyCountry;\r\n\r\n    //mapping of client to manager\r\n    mapping(address => address) private managers;\r\n\r\n    //mapping of a manager to its sub managers\r\n    mapping(address=> role) private roles;\r\n\r\n    //storing submanagers\r\n    address[] submanagers;\r\n\r\n    //submanager index\r\n    mapping(address => uint256) private managerIndex;\r\n\r\n    event ManagerAdded(address manager, address indexed submanager, bytes32 role, bytes32 country, bytes32 managerId);\r\n    event ManagerRemoved(address manager, address indexed submanager, bytes32 role, bytes32 country);\r\n\r\n    function initialize(address _signer) onlyOwner public {\r\n        bridge = _signer;\r\n    }\r\n\r\n    function setSigner(address _signer) onlyOwner override external{\r\n        bridge = _signer;\r\n    }\r\n    \r\n    function addRole(address _manager, address _submanager, bytes32 _country, bytes32 _role, bytes32 _id, bytes32 _hashedMessage, uint8 _v, bytes32 _r, bytes32 _s) \r\n                            override external {\r\n        bytes32 payloadHash = keccak256(abi.encode(_hashedMessage, \"L2toL1\"));\r\n        bytes32 messageHash = keccak256(abi.encodePacked(\"\\x19Ethereum Signed Message:\\n32\", payloadHash));\r\n        require(ecrecover(messageHash, _v, _r, _s)== bridge);\r\n        require(_role==\"Custodian\" || _role==\"AM\" || _role==\"DP\" || _role==\"KYCAML\");\r\n        submanagers.push(_submanager);\r\n        managerIndex[_submanager] = submanagers.length;\r\n        roles[_submanager].manager = _manager;\r\n        roles[_submanager].country = _country;\r\n        roles[_submanager].role = _role;\r\n        roles[_submanager].id = _id;\r\n        if(_role==\"DP\")\r\n            assignManagerToUser(_submanager, _country);\r\n        emit ManagerAdded(_manager, _submanager, _role, _country, _id);\r\n    }\r\n\r\n    function getRole(address _user) override external view returns(bytes32, bytes32){\r\n        uint256 position = managerIndex[_user];\r\n        if(position>0){\r\n            if(submanagers[position-1]==_user){\r\n                return (roles[submanagers[position-1]].role, roles[submanagers[position-1]].id);\r\n            }\r\n        }\r\n        if(_user==owner())\r\n            return (\"Admin\",\"\");\r\n        else\r\n            return (\"\",\"\");\r\n    }\r\n\r\n    function removeRole(address _manager, address _submanager, bytes32 _country, bytes32 _role, bytes32 _hashedMessage, uint8 _v, bytes32 _r, bytes32 _s) \r\n                            override external {\r\n        bytes32 payloadHash = keccak256(abi.encode(_hashedMessage, \"L2toL1\"));\r\n        bytes32 messageHash = keccak256(abi.encodePacked(\"\\x19Ethereum Signed Message:\\n32\", payloadHash));\r\n        require(ecrecover(messageHash, _v, _r, _s)== bridge);\r\n        require(_role==\"Custodian\" || _role==\"AM\" || _role==\"DP\" || _role==\"KYCAML\");\r\n        uint256 position = managerIndex[_submanager];\r\n        if(position>0){\r\n            if( submanagers[position-1]==_submanager &&\r\n                roles[submanagers[position-1]].role==_role && \r\n                roles[submanagers[position-1]].country==_country &&\r\n                roles[submanagers[position-1]].manager==_manager){\r\n                delete(roles[submanagers[position-1]]);\r\n            }\r\n        }\r\n        if(_role==\"DP\")\r\n            unassignManagerFromUser(_submanager, _country);\r\n        emit ManagerRemoved(_manager, _submanager, _role, _country);\r\n    }\r\n\r\n    function KycUpdate(address client, bytes32 name, bytes32 surname, bytes32 country, uint status, bytes32 _hashedMessage, uint8 _v, bytes32 _r, bytes32 _s) override external {\r\n        bytes32 payloadHash = keccak256(abi.encode(_hashedMessage, \"L2toL1\"));\r\n        bytes32 messageHash = keccak256(abi.encodePacked(\"\\x19Ethereum Signed Message:\\n32\", payloadHash));\r\n        require(ecrecover(messageHash, _v, _r, _s)== bridge);\r\n        clients[client].name = name;\r\n        clients[client].surname = surname;\r\n        clients[client].kycstatus = status;\r\n        clients[client].country = country;\r\n        usersbyCountry[country].push(client);\r\n        matchManagerToClient(client, country, \"client\");\r\n    }\r\n\r\n    function matchManagerToClient(address client, bytes32 country, bytes32 userRole) private {\r\n        if(userRole==\"client\"){\r\n            for(uint256 i=0; i<submanagers.length; i++){\r\n                if(roles[submanagers[i]].country==country && roles[submanagers[i]].role==\"DP\"){\r\n                    managers[client] = submanagers[i];\r\n                }\r\n            }\r\n        }\r\n    }\r\n\r\n    function unassignManagerFromUser(address _submanager, bytes32 _country) private {\r\n        for(uint256 i=0; i<usersbyCountry[_country].length; i++){\r\n            if(managers[usersbyCountry[_country][i]]==_submanager)\r\n                managers[usersbyCountry[_country][i]] = address(0x0);\r\n        }\r\n    }\r\n\r\n    function assignManagerToUser(address _submanager, bytes32 _country) private {\r\n        for(uint256 i=0; i<usersbyCountry[_country].length; i++){\r\n            if(managers[usersbyCountry[_country][i]]==address(0x0))\r\n                managers[usersbyCountry[_country][i]] = _submanager;\r\n        }\r\n    }\r\n\r\n    /**\r\n        Gets transfer agent for any of the parties in the trade\r\n        @param  party         reference to the party or counterparty in a trade\r\n     */\r\n    function getTransferAgent(address party) override external view returns(bytes32){\r\n        return(roles[managers[party]].id);\r\n    }\r\n\r\n}",
  "sourcePath": "D:\\Code\\kyber-verified\\contracts\\Client.sol",
  "compiler": {
    "name": "solc",
    "version": "0.6.12+commit.27d51765.Emscripten.clang"
  },
  "schemaVersion": "3.4.3",
  "updatedAt": "2022-09-21T07:13:02.960Z",
  "networkType": "ethereum",
  "devdoc": {
    "kind": "dev",
    "methods": {
      "getTransferAgent(address)": {
        "params": {
          "party": "reference to the party or counterparty in a trade"
        }
      },
      "owner()": {
        "details": "Returns the address of the current owner."
      },
      "renounceOwnership()": {
        "details": "Leaves the contract without owner. It will not be possible to call `onlyOwner` functions anymore. Can only be called by the current owner. NOTE: Renouncing ownership will leave the contract without an owner, thereby removing any functionality that is only available to the owner."
      },
      "transferOwnership(address)": {
        "details": "Transfers ownership of the contract to a new account (`newOwner`). Can only be called by the current owner."
      }
    },
    "version": 1
  },
  "userdoc": {
    "kind": "user",
    "methods": {
      "getTransferAgent(address)": {
        "notice": "Gets transfer agent for any of the parties in the trade"
      }
    },
    "version": 1
  }
}