{
  "contractName": "DMMPool",
  "abi": [
    {
      "inputs": [],
      "stateMutability": "nonpayable",
      "type": "constructor"
    },
    {
      "anonymous": false,
      "inputs": [
        {
          "indexed": true,
          "internalType": "address",
          "name": "owner",
          "type": "address"
        },
        {
          "indexed": true,
          "internalType": "address",
          "name": "spender",
          "type": "address"
        },
        {
          "indexed": false,
          "internalType": "uint256",
          "name": "value",
          "type": "uint256"
        }
      ],
      "name": "Approval",
      "type": "event"
    },
    {
      "anonymous": false,
      "inputs": [
        {
          "indexed": true,
          "internalType": "address",
          "name": "sender",
          "type": "address"
        },
        {
          "indexed": false,
          "internalType": "uint256",
          "name": "amount0",
          "type": "uint256"
        },
        {
          "indexed": false,
          "internalType": "uint256",
          "name": "amount1",
          "type": "uint256"
        },
        {
          "indexed": true,
          "internalType": "address",
          "name": "to",
          "type": "address"
        }
      ],
      "name": "Burn",
      "type": "event"
    },
    {
      "anonymous": false,
      "inputs": [
        {
          "indexed": true,
          "internalType": "address",
          "name": "sender",
          "type": "address"
        },
        {
          "indexed": false,
          "internalType": "uint256",
          "name": "amount0",
          "type": "uint256"
        },
        {
          "indexed": false,
          "internalType": "uint256",
          "name": "amount1",
          "type": "uint256"
        }
      ],
      "name": "Mint",
      "type": "event"
    },
    {
      "anonymous": false,
      "inputs": [
        {
          "indexed": true,
          "internalType": "address",
          "name": "sender",
          "type": "address"
        },
        {
          "indexed": false,
          "internalType": "uint256",
          "name": "amount0In",
          "type": "uint256"
        },
        {
          "indexed": false,
          "internalType": "uint256",
          "name": "amount1In",
          "type": "uint256"
        },
        {
          "indexed": false,
          "internalType": "uint256",
          "name": "amount0Out",
          "type": "uint256"
        },
        {
          "indexed": false,
          "internalType": "uint256",
          "name": "amount1Out",
          "type": "uint256"
        },
        {
          "indexed": true,
          "internalType": "address",
          "name": "to",
          "type": "address"
        },
        {
          "indexed": false,
          "internalType": "uint256",
          "name": "feeInPrecision",
          "type": "uint256"
        }
      ],
      "name": "Swap",
      "type": "event"
    },
    {
      "anonymous": false,
      "inputs": [
        {
          "indexed": false,
          "internalType": "uint256",
          "name": "vReserve0",
          "type": "uint256"
        },
        {
          "indexed": false,
          "internalType": "uint256",
          "name": "vReserve1",
          "type": "uint256"
        },
        {
          "indexed": false,
          "internalType": "uint256",
          "name": "reserve0",
          "type": "uint256"
        },
        {
          "indexed": false,
          "internalType": "uint256",
          "name": "reserve1",
          "type": "uint256"
        }
      ],
      "name": "Sync",
      "type": "event"
    },
    {
      "anonymous": false,
      "inputs": [
        {
          "indexed": true,
          "internalType": "address",
          "name": "from",
          "type": "address"
        },
        {
          "indexed": true,
          "internalType": "address",
          "name": "to",
          "type": "address"
        },
        {
          "indexed": false,
          "internalType": "uint256",
          "name": "value",
          "type": "uint256"
        }
      ],
      "name": "Transfer",
      "type": "event"
    },
    {
      "anonymous": false,
      "inputs": [
        {
          "indexed": false,
          "internalType": "uint256",
          "name": "shortEMA",
          "type": "uint256"
        },
        {
          "indexed": false,
          "internalType": "uint256",
          "name": "longEMA",
          "type": "uint256"
        },
        {
          "indexed": false,
          "internalType": "uint128",
          "name": "lastBlockVolume",
          "type": "uint128"
        },
        {
          "indexed": false,
          "internalType": "uint256",
          "name": "skipBlock",
          "type": "uint256"
        }
      ],
      "name": "UpdateEMA",
      "type": "event"
    },
    {
      "inputs": [],
      "name": "MINIMUM_LIQUIDITY",
      "outputs": [
        {
          "internalType": "uint256",
          "name": "",
          "type": "uint256"
        }
      ],
      "stateMutability": "view",
      "type": "function"
    },
    {
      "inputs": [],
      "name": "PERMIT_TYPEHASH",
      "outputs": [
        {
          "internalType": "bytes32",
          "name": "",
          "type": "bytes32"
        }
      ],
      "stateMutability": "view",
      "type": "function"
    },
    {
      "inputs": [
        {
          "internalType": "address",
          "name": "owner",
          "type": "address"
        },
        {
          "internalType": "address",
          "name": "spender",
          "type": "address"
        }
      ],
      "name": "allowance",
      "outputs": [
        {
          "internalType": "uint256",
          "name": "",
          "type": "uint256"
        }
      ],
      "stateMutability": "view",
      "type": "function"
    },
    {
      "inputs": [],
      "name": "ampBps",
      "outputs": [
        {
          "internalType": "uint32",
          "name": "",
          "type": "uint32"
        }
      ],
      "stateMutability": "view",
      "type": "function"
    },
    {
      "inputs": [
        {
          "internalType": "address",
          "name": "spender",
          "type": "address"
        },
        {
          "internalType": "uint256",
          "name": "amount",
          "type": "uint256"
        }
      ],
      "name": "approve",
      "outputs": [
        {
          "internalType": "bool",
          "name": "",
          "type": "bool"
        }
      ],
      "stateMutability": "nonpayable",
      "type": "function"
    },
    {
      "inputs": [
        {
          "internalType": "address",
          "name": "account",
          "type": "address"
        }
      ],
      "name": "balanceOf",
      "outputs": [
        {
          "internalType": "uint256",
          "name": "",
          "type": "uint256"
        }
      ],
      "stateMutability": "view",
      "type": "function"
    },
    {
      "inputs": [],
      "name": "decimals",
      "outputs": [
        {
          "internalType": "uint8",
          "name": "",
          "type": "uint8"
        }
      ],
      "stateMutability": "view",
      "type": "function"
    },
    {
      "inputs": [
        {
          "internalType": "address",
          "name": "spender",
          "type": "address"
        },
        {
          "internalType": "uint256",
          "name": "subtractedValue",
          "type": "uint256"
        }
      ],
      "name": "decreaseAllowance",
      "outputs": [
        {
          "internalType": "bool",
          "name": "",
          "type": "bool"
        }
      ],
      "stateMutability": "nonpayable",
      "type": "function"
    },
    {
      "inputs": [],
      "name": "domainSeparator",
      "outputs": [
        {
          "internalType": "bytes32",
          "name": "",
          "type": "bytes32"
        }
      ],
      "stateMutability": "view",
      "type": "function"
    },
    {
      "inputs": [],
      "name": "factory",
      "outputs": [
        {
          "internalType": "contract IDMMFactory",
          "name": "",
          "type": "address"
        }
      ],
      "stateMutability": "view",
      "type": "function"
    },
    {
      "inputs": [],
      "name": "getVolumeTrendData",
      "outputs": [
        {
          "internalType": "uint128",
          "name": "_shortEMA",
          "type": "uint128"
        },
        {
          "internalType": "uint128",
          "name": "_longEMA",
          "type": "uint128"
        },
        {
          "internalType": "uint128",
          "name": "_currentBlockVolume",
          "type": "uint128"
        },
        {
          "internalType": "uint128",
          "name": "_lastTradeBlock",
          "type": "uint128"
        }
      ],
      "stateMutability": "view",
      "type": "function"
    },
    {
      "inputs": [
        {
          "internalType": "address",
          "name": "spender",
          "type": "address"
        },
        {
          "internalType": "uint256",
          "name": "addedValue",
          "type": "uint256"
        }
      ],
      "name": "increaseAllowance",
      "outputs": [
        {
          "internalType": "bool",
          "name": "",
          "type": "bool"
        }
      ],
      "stateMutability": "nonpayable",
      "type": "function"
    },
    {
      "inputs": [],
      "name": "kLast",
      "outputs": [
        {
          "internalType": "uint256",
          "name": "",
          "type": "uint256"
        }
      ],
      "stateMutability": "view",
      "type": "function"
    },
    {
      "inputs": [
        {
          "internalType": "address",
          "name": "",
          "type": "address"
        }
      ],
      "name": "nonces",
      "outputs": [
        {
          "internalType": "uint256",
          "name": "",
          "type": "uint256"
        }
      ],
      "stateMutability": "view",
      "type": "function"
    },
    {
      "inputs": [
        {
          "internalType": "address",
          "name": "owner",
          "type": "address"
        },
        {
          "internalType": "address",
          "name": "spender",
          "type": "address"
        },
        {
          "internalType": "uint256",
          "name": "value",
          "type": "uint256"
        },
        {
          "internalType": "uint256",
          "name": "deadline",
          "type": "uint256"
        },
        {
          "internalType": "uint8",
          "name": "v",
          "type": "uint8"
        },
        {
          "internalType": "bytes32",
          "name": "r",
          "type": "bytes32"
        },
        {
          "internalType": "bytes32",
          "name": "s",
          "type": "bytes32"
        }
      ],
      "name": "permit",
      "outputs": [],
      "stateMutability": "nonpayable",
      "type": "function"
    },
    {
      "inputs": [],
      "name": "token0",
      "outputs": [
        {
          "internalType": "contract IERC20",
          "name": "",
          "type": "address"
        }
      ],
      "stateMutability": "view",
      "type": "function"
    },
    {
      "inputs": [],
      "name": "token1",
      "outputs": [
        {
          "internalType": "contract IERC20",
          "name": "",
          "type": "address"
        }
      ],
      "stateMutability": "view",
      "type": "function"
    },
    {
      "inputs": [],
      "name": "totalSupply",
      "outputs": [
        {
          "internalType": "uint256",
          "name": "",
          "type": "uint256"
        }
      ],
      "stateMutability": "view",
      "type": "function"
    },
    {
      "inputs": [
        {
          "internalType": "address",
          "name": "recipient",
          "type": "address"
        },
        {
          "internalType": "uint256",
          "name": "amount",
          "type": "uint256"
        }
      ],
      "name": "transfer",
      "outputs": [
        {
          "internalType": "bool",
          "name": "",
          "type": "bool"
        }
      ],
      "stateMutability": "nonpayable",
      "type": "function"
    },
    {
      "inputs": [
        {
          "internalType": "address",
          "name": "sender",
          "type": "address"
        },
        {
          "internalType": "address",
          "name": "recipient",
          "type": "address"
        },
        {
          "internalType": "uint256",
          "name": "amount",
          "type": "uint256"
        }
      ],
      "name": "transferFrom",
      "outputs": [
        {
          "internalType": "bool",
          "name": "",
          "type": "bool"
        }
      ],
      "stateMutability": "nonpayable",
      "type": "function"
    },
    {
      "inputs": [
        {
          "internalType": "contract IERC20",
          "name": "_token0",
          "type": "address"
        },
        {
          "internalType": "contract IERC20",
          "name": "_token1",
          "type": "address"
        },
        {
          "internalType": "uint32",
          "name": "_ampBps",
          "type": "uint32"
        }
      ],
      "name": "initialize",
      "outputs": [],
      "stateMutability": "nonpayable",
      "type": "function"
    },
    {
      "inputs": [
        {
          "internalType": "address",
          "name": "to",
          "type": "address"
        }
      ],
      "name": "mint",
      "outputs": [
        {
          "internalType": "uint256",
          "name": "liquidity",
          "type": "uint256"
        }
      ],
      "stateMutability": "nonpayable",
      "type": "function"
    },
    {
      "inputs": [
        {
          "internalType": "address",
          "name": "to",
          "type": "address"
        }
      ],
      "name": "burn",
      "outputs": [
        {
          "internalType": "uint256",
          "name": "amount0",
          "type": "uint256"
        },
        {
          "internalType": "uint256",
          "name": "amount1",
          "type": "uint256"
        }
      ],
      "stateMutability": "nonpayable",
      "type": "function"
    },
    {
      "inputs": [
        {
          "internalType": "uint256",
          "name": "amount0Out",
          "type": "uint256"
        },
        {
          "internalType": "uint256",
          "name": "amount1Out",
          "type": "uint256"
        },
        {
          "internalType": "address",
          "name": "to",
          "type": "address"
        },
        {
          "internalType": "bytes",
          "name": "callbackData",
          "type": "bytes"
        }
      ],
      "name": "swap",
      "outputs": [],
      "stateMutability": "nonpayable",
      "type": "function"
    },
    {
      "inputs": [
        {
          "internalType": "address",
          "name": "to",
          "type": "address"
        }
      ],
      "name": "skim",
      "outputs": [],
      "stateMutability": "nonpayable",
      "type": "function"
    },
    {
      "inputs": [],
      "name": "sync",
      "outputs": [],
      "stateMutability": "nonpayable",
      "type": "function"
    },
    {
      "inputs": [],
      "name": "getTradeInfo",
      "outputs": [
        {
          "internalType": "uint112",
          "name": "_reserve0",
          "type": "uint112"
        },
        {
          "internalType": "uint112",
          "name": "_reserve1",
          "type": "uint112"
        },
        {
          "internalType": "uint112",
          "name": "_vReserve0",
          "type": "uint112"
        },
        {
          "internalType": "uint112",
          "name": "_vReserve1",
          "type": "uint112"
        },
        {
          "internalType": "uint256",
          "name": "feeInPrecision",
          "type": "uint256"
        }
      ],
      "stateMutability": "view",
      "type": "function"
    },
    {
      "inputs": [],
      "name": "getReserves",
      "outputs": [
        {
          "internalType": "uint112",
          "name": "_reserve0",
          "type": "uint112"
        },
        {
          "internalType": "uint112",
          "name": "_reserve1",
          "type": "uint112"
        }
      ],
      "stateMutability": "view",
      "type": "function"
    },
    {
      "inputs": [],
      "name": "name",
      "outputs": [
        {
          "internalType": "string",
          "name": "",
          "type": "string"
        }
      ],
      "stateMutability": "view",
      "type": "function"
    },
    {
      "inputs": [],
      "name": "symbol",
      "outputs": [
        {
          "internalType": "string",
          "name": "",
          "type": "string"
        }
      ],
      "stateMutability": "view",
      "type": "function"
    }
  ],
  "bytecode": "0x60806040523480156200001157600080fd5b5060006040518060400160405280600b81526020016a04b79626572444d4d204c560ac1b815250604051806040016040528060068152602001650444d4d2d4c560d41b815250604051806040016040528060018152602001603160f81b815250828281600390805190602001906200008b929190620001ee565b508051620000a1906004906020840190620001ee565b50506005805460ff19166012179055508251602093840120815191840191909120604080517f8b73c3c69bb8fe3d512ecc4cf759cc79239f7b179b0ffacaa9a75d522b39400f818701528082019390935260608301919091524660808301523060a0808401919091528151808403909101815260c09092019052805192019190912060065550600160085560098054600160801b6001600160801b038085169182026001600160801b03199093169190911716179055620001624362000198565b600a80546001600160801b03928316600160801b02921691909117905550600b80546001600160a01b0319163317905562000280565b60006001600160801b03821115620001ea576040805162461bcd60e51b815260206004820152601060248201526f0deeccae4ccd8deee40ead2dce86264760831b604482015290519081900360640190fd5b5090565b828054600181600116156101000203166002900490600052602060002090601f016020900481019282601f106200023157805160ff191683800117855562000261565b8280016001018555821562000261579182015b828111156200026157825182559160200191906001019062000244565b50620001ea9291505b80821115620001ea57600081556001016200026a565b613c2080620002906000396000f3fe608060405234801561001057600080fd5b50600436106101da5760003560e01c80637464fc3d11610104578063bc25cf77116100a2578063d669402711610071578063d669402714610667578063dd62ed3e146106aa578063f698da25146106d8578063fff6cae9146106e0576101da565b8063bc25cf77146105e0578063c45a015514610606578063d21220a71461060e578063d505accf14610616576101da565b806395d89b41116100de57806395d89b4114610578578063a457c2d714610580578063a9059cbb146105ac578063ba9a7a56146105d8576101da565b80637464fc3d1461050b5780637ecebe001461051357806389afcb4414610539576101da565b806323b872dd1161017c57806349386b161161014b57806349386b16146104615780636a627842146104825780636ecf2b22146104a857806370a08231146104e5576101da565b806323b872dd146103d957806330adf81f1461040f578063313ce567146104175780633950935114610435576101da565b8063095ea7b3116101b8578063095ea7b31461031f5780630d94d50b1461035f5780630dfe16811461039b57806318160ddd146103bf576101da565b8063022c0d9f146101df57806306fdde031461026b5780630902f1ac146102e8575b600080fd5b610269600480360360808110156101f557600080fd5b8135916020810135916001600160a01b036040830135169190810190608081016060820135600160201b81111561022b57600080fd5b82018360208201111561023d57600080fd5b803590602001918460018302840111600160201b8311171561025e57600080fd5b5090925090506106e8565b005b610273610c31565b6040805160208082528351818301528351919283929083019185019080838360005b838110156102ad578181015183820152602001610295565b50505050905090810190601f1680156102da5780820380516001836020036101000a031916815260200191505b509250505060405180910390f35b6102f0610f6d565b60405180836001600160701b03168152602001826001600160701b031681526020019250505060405180910390f35b61034b6004803603604081101561033557600080fd5b506001600160a01b038135169060200135610f88565b604080519115158252519081900360200190f35b610367610fa6565b604080516001600160801b039586168152938516602085015291841683830152909216606082015290519081900360800190f35b6103a3610fcf565b604080516001600160a01b039092168252519081900360200190f35b6103c7610fde565b60408051918252519081900360200190f35b61034b600480360360608110156103ef57600080fd5b506001600160a01b03813581169160208101359091169060400135610fe4565b6103c761106c565b61041f611090565b6040805160ff9092168252519081900360200190f35b61034b6004803603604081101561044b57600080fd5b506001600160a01b038135169060200135611099565b6104696110e7565b6040805163ffffffff9092168252519081900360200190f35b6103c76004803603602081101561049857600080fd5b50356001600160a01b03166110fa565b610269600480360360608110156104be57600080fd5b5080356001600160a01b03908116916020810135909116906040013563ffffffff166114a1565b6103c7600480360360208110156104fb57600080fd5b50356001600160a01b0316611546565b6103c7611565565b6103c76004803603602081101561052957600080fd5b50356001600160a01b031661156b565b61055f6004803603602081101561054f57600080fd5b50356001600160a01b031661157d565b6040805192835260208301919091528051918290030190f35b610273611a26565b61034b6004803603604081101561059657600080fd5b506001600160a01b038135169060200135611cc7565b61034b600480360360408110156105c257600080fd5b506001600160a01b038135169060200135611d2f565b6103c7611d43565b610269600480360360208110156105f657600080fd5b50356001600160a01b0316611d49565b6103a3611ec0565b6103a3611ecf565b610269600480360360e081101561062c57600080fd5b506001600160a01b03813581169160208101359091169060408101359060608101359060ff6080820135169060a08101359060c00135611ede565b61066f6120e2565b604080516001600160701b03968716815294861660208601529285168484015293166060830152608082019290925290519081900360a00190f35b6103c7600480360360408110156106c057600080fd5b506001600160a01b0381358116916020013516612153565b6103c761217e565b610269612184565b6002600854141561072e576040805162461bcd60e51b815260206004820152601f60248201526000805160206139f5833981519152604482015290519081900360640190fd5b6002600855841515806107415750600084115b610792576040805162461bcd60e51b815260206004820152601f60248201527f444d4d3a20494e53554646494349454e545f4f55545055545f414d4f554e5400604482015290519081900360640190fd5b600061079c6139a9565b6107a46123c9565b80519193509150871080156107bc5750806020015186105b61080d576040805162461bcd60e51b815260206004820152601b60248201527f444d4d3a20494e53554646494349454e545f4c49515549444954590000000000604482015290519081900360640190fd5b6108156139a9565b600c54600d546001600160a01b0391821691908116908816821480159061084e5750806001600160a01b0316886001600160a01b031614155b610891576040805162461bcd60e51b815260206004820152600f60248201526e444d4d3a20494e56414c49445f544f60881b604482015290519081900360640190fd5b89156108ab576108ab6001600160a01b038316898c612430565b88156108c5576108c56001600160a01b038216898b612430565b851561097757876001600160a01b03166381279c7e338c8c8b8b6040518663ffffffff1660e01b815260040180866001600160a01b03168152602001858152602001848152602001806020018281038252848482818152602001925080828437600081840152601f19601f8201169050808301925050509650505050505050600060405180830381600087803b15801561095e57600080fd5b505af1158015610972573d6000803e3d6000fd5b505050505b604080516370a0823160e01b815230600482015290516001600160a01b038416916370a08231916024808301926020929190829003018186803b1580156109bd57600080fd5b505afa1580156109d1573d6000803e3d6000fd5b505050506040513d60208110156109e757600080fd5b50518352604080516370a0823160e01b815230600482015290516001600160a01b038316916370a08231916024808301926020929190829003018186803b158015610a3157600080fd5b505afa158015610a45573d6000803e3d6000fd5b505050506040513d6020811015610a5b57600080fd5b505160208401528415610aaf57835183516040860151610a869291610a809190612487565b906124e1565b6040840152602080850151908401516060860151610aa99291610a809190612487565b60608401525b5050815181516000918a900310610ac7576000610ad2565b82518251908a900390035b9050600088846020015103836020015111610aee576000610afc565b888460200151038360200151035b90506000821180610b0d5750600081115b610b5e576040805162461bcd60e51b815260206004820152601e60248201527f444d4d3a20494e53554646494349454e545f494e5055545f414d4f554e540000604482015290519081900360640190fd5b6000610bb8838388610b71578751610b77565b87604001515b89610b86578860200151610b8c565b88606001515b8a610b98578851610b9e565b88604001515b8b610bad578960200151610bb3565b89606001515b61253e565b9050610bc48685612659565b60408051848152602081018490528082018d9052606081018c90526080810183905290516001600160a01b038b169133917f606ecd02b3e3b4778f8e97b2e03351de14224efaa5fa64e62200afc9395c24999181900360a00190a350506001600855505050505050505050565b600c54600d54604080516395d89b4160e01b815290516060936001600160a01b0390811693169183916395d89b4191600480820192600092909190829003018186803b158015610c8057600080fd5b505afa158015610c94573d6000803e3d6000fd5b505050506040513d6000823e601f3d908101601f191682016040526020811015610cbd57600080fd5b8101908080516040519392919084600160201b821115610cdc57600080fd5b908301906020820185811115610cf157600080fd5b8251600160201b811182820188101715610d0a57600080fd5b82525081516020918201929091019080838360005b83811015610d37578181015183820152602001610d1f565b50505050905090810190601f168015610d645780820380516001836020036101000a031916815260200191505b50604052505050816001600160a01b03166395d89b416040518163ffffffff1660e01b815260040160006040518083038186803b158015610da457600080fd5b505afa158015610db8573d6000803e3d6000fd5b505050506040513d6000823e601f3d908101601f191682016040526020811015610de157600080fd5b8101908080516040519392919084600160201b821115610e0057600080fd5b908301906020820185811115610e1557600080fd5b8251600160201b811182820188101715610e2e57600080fd5b82525081516020918201929091019080838360005b83811015610e5b578181015183820152602001610e43565b50505050905090810190601f168015610e885780820380516001836020036101000a031916815260200191505b5060405250505060405160200180806b025bcb132b92226a6902628160a51b815250600c0183805190602001908083835b60208310610ed85780518252601f199092019160209182019101610eb9565b6001836020036101000a03801982511681845116808217855250505050505090500180602d60f81b81525060010182805190602001908083835b60208310610f315780518252601f199092019160209182019101610f12565b6001836020036101000a038019825116818451168082178552505050505050905001925050506040516020818303038152906040529250505090565b600e546001600160701b0380821692600160701b9092041690565b6000610f9c610f9561279a565b848461279e565b5060015b92915050565b600954600a546001600160801b0380831693600160801b93849004821693838316930490911690565b600c546001600160a01b031681565b60025490565b6000610ff184848461288a565b61106184610ffd61279a565b61105c85604051806060016040528060288152602001613ae8602891396001600160a01b038a1660009081526001602052604081209061103b61279a565b6001600160a01b0316815260208101919091526040016000205491906129e5565b61279e565b5060015b9392505050565b7f6e71edae12b1b97f4d1f60370fef10105fa2faae0126114a169c64845d6126c981565b60055460ff1690565b6000610f9c6110a661279a565b8461105c85600160006110b761279a565b6001600160a01b03908116825260208083019390935260409182016000908120918c168152925290205490612487565b600e54600160e01b900463ffffffff1681565b600060026008541415611142576040805162461bcd60e51b815260206004820152601f60248201526000805160206139f5833981519152604482015290519081900360640190fd5b600260085560006111516139a9565b6111596123c9565b915091506111656139a9565b600c54604080516370a0823160e01b815230600482015290516001600160a01b03909216916370a0823191602480820192602092909190829003018186803b1580156111b057600080fd5b505afa1580156111c4573d6000803e3d6000fd5b505050506040513d60208110156111da57600080fd5b50518152600d54604080516370a0823160e01b815230600482015290516001600160a01b03909216916370a0823191602480820192602092909190829003018186803b15801561122957600080fd5b505afa15801561123d573d6000803e3d6000fd5b505050506040513d602081101561125357600080fd5b505160208201528151815160009161126b91906124e1565b9050600061128a846020015184602001516124e190919063ffffffff16565b905060006112988686612a7c565b905060006112a4610fde565b90508061133b57861561130e57600e54855163ffffffff600160e01b909204821691612710916112d6918490612c3a16565b816112dd57fe5b0460408701526020860151612710906112ff9063ffffffff80851690612c3a16565b8161130657fe5b046060870152505b6113266103e8610a806113218787612c3a565b612c93565b97506113366000196103e8612ce4565b6113ee565b85516113789061134b8684612c3a565b8161135257fe5b04876020015161136b8487612c3a90919063ffffffff16565b8161137257fe5b04612dd4565b975086156113ee57600061138c8983612487565b90506113bb826113a9838a60400151612c3a90919063ffffffff16565b816113b057fe5b048760000151612dea565b604087015260608701516113e79083906113d59084612c3a565b816113dc57fe5b048760200151612dea565b6060870152505b6000881161142d5760405162461bcd60e51b8152600401808060200182810382526022815260200180613b106022913960400191505060405180910390fd5b6114378989612ce4565b6114418786612659565b8115611455576114518786612dfa565b6010555b6040805185815260208101859052815133927f4c209b5fc8ad50758f13e2e1088ba56a560dff690a1c6fef26394f4c03821c4f928290030190a250506001600855509395945050505050565b600b546001600160a01b031633146114f1576040805162461bcd60e51b815260206004820152600e60248201526d2226a69d102327a92124a22222a760911b604482015290519081900360640190fd5b600c80546001600160a01b039485166001600160a01b031991821617909155600d805493909416921691909117909155600e805463ffffffff909216600160e01b026001600160e01b03909216919091179055565b6001600160a01b0381166000908152602081905260409020545b919050565b60105481565b60076020526000908152604090205481565b600080600260085414156115c6576040805162461bcd60e51b815260206004820152601f60248201526000805160206139f5833981519152604482015290519081900360640190fd5b600260085560006115d56139a9565b6115dd6123c9565b600c54600d54604080516370a0823160e01b815230600482015290519496509294506001600160a01b039182169391169160009184916370a08231916024808301926020929190829003018186803b15801561163857600080fd5b505afa15801561164c573d6000803e3d6000fd5b505050506040513d602081101561166257600080fd5b5051604080516370a0823160e01b815230600482015290519192506000916001600160a01b038516916370a08231916024808301926020929190829003018186803b1580156116b057600080fd5b505afa1580156116c4573d6000803e3d6000fd5b505050506040513d60208110156116da57600080fd5b5051855190915082108015906116f4575084602001518110155b61173c576040805162461bcd60e51b8152602060048201526014602482015273444d4d3a20554e53594e435f524553455256455360601b604482015290519081900360640190fd5b600061174730611546565b905060006117558888612a7c565b90506000611761610fde565b90508061176e8487612c3a565b8161177557fe5b049a50806117838486612c3a565b8161178a57fe5b04995060008b11801561179d575060008a115b6117d85760405162461bcd60e51b8152600401808060200182810382526022815260200180613aa56022913960400191505060405180910390fd5b6117e23084612e20565b6117f66001600160a01b0388168d8d612430565b61180a6001600160a01b0387168d8c612430565b6118126139a9565b604080516370a0823160e01b815230600482015290516001600160a01b038a16916370a08231916024808301926020929190829003018186803b15801561185857600080fd5b505afa15801561186c573d6000803e3d6000fd5b505050506040513d602081101561188257600080fd5b50518152604080516370a0823160e01b815230600482015290516001600160a01b038916916370a08231916024808301926020929190829003018186803b1580156118cc57600080fd5b505afa1580156118e0573d6000803e3d6000fd5b505050506040513d60208110156118f657600080fd5b50516020820152891561199e578851815160009161193c916119189086612c3a565b8161191f57fe5b048b6020015161136b868660200151612c3a90919063ffffffff16565b905061196b83611959838d60400151612c3a90919063ffffffff16565b8161196057fe5b048360000151612dea565b604083015260608a01516119979084906119859084612c3a565b8161198c57fe5b048360200151612dea565b6060830152505b6119a88a82612659565b82156119bc576119b88a82612dfa565b6010555b8c6001600160a01b0316336001600160a01b03167fdccd412f0b1252819cb1fd330b93224ca42612892bb3f4f789976e6d819364968e8e604051808381526020018281526020019250505060405180910390a3505050505050505050506001600881905550915091565b600c54600d54604080516395d89b4160e01b815290516060936001600160a01b0390811693169183916395d89b4191600480820192600092909190829003018186803b158015611a7557600080fd5b505afa158015611a89573d6000803e3d6000fd5b505050506040513d6000823e601f3d908101601f191682016040526020811015611ab257600080fd5b8101908080516040519392919084600160201b821115611ad157600080fd5b908301906020820185811115611ae657600080fd5b8251600160201b811182820188101715611aff57600080fd5b82525081516020918201929091019080838360005b83811015611b2c578181015183820152602001611b14565b50505050905090810190601f168015611b595780820380516001836020036101000a031916815260200191505b50604052505050816001600160a01b03166395d89b416040518163ffffffff1660e01b815260040160006040518083038186803b158015611b9957600080fd5b505afa158015611bad573d6000803e3d6000fd5b505050506040513d6000823e601f3d908101601f191682016040526020811015611bd657600080fd5b8101908080516040519392919084600160201b821115611bf557600080fd5b908301906020820185811115611c0a57600080fd5b8251600160201b811182820188101715611c2357600080fd5b82525081516020918201929091019080838360005b83811015611c50578181015183820152602001611c38565b50505050905090810190601f168015611c7d5780820380516001836020036101000a031916815260200191505b5060405250505060405160200180806602226a696a628160cd1b815250600701838051906020019080838360208310610ed85780518252601f199092019160209182019101610eb9565b6000610f9c611cd461279a565b8461105c85604051806060016040528060258152602001613bc66025913960016000611cfe61279a565b6001600160a01b03908116825260208083019390935260409182016000908120918d168152925290205491906129e5565b6000610f9c611d3c61279a565b848461288a565b6103e881565b60026008541415611d8f576040805162461bcd60e51b815260206004820152601f60248201526000805160206139f5833981519152604482015290519081900360640190fd5b6002600855600e54600c54604080516370a0823160e01b81523060048201529051611e3c938593611e29936001600160701b03909216926001600160a01b03909116916370a08231916024808301926020929190829003018186803b158015611df757600080fd5b505afa158015611e0b573d6000803e3d6000fd5b505050506040513d6020811015611e2157600080fd5b5051906124e1565b600c546001600160a01b03169190612430565b600e54600d54604080516370a0823160e01b81523060048201529051611eb8938593611ea593600160701b9092046001600160701b0316926001600160a01b03909116916370a08231916024808301926020929190829003018186803b158015611df757600080fd5b600d546001600160a01b03169190612430565b506001600855565b600b546001600160a01b031681565b600d546001600160a01b031681565b42841015611f2a576040805162461bcd60e51b8152602060048201526014602482015273115490cc8c14195c9b5a5d0e881156141254915160621b604482015290519081900360640190fd5b6006546001600160a01b0380891660008181526007602090815260408083208054600180820190925582517f6e71edae12b1b97f4d1f60370fef10105fa2faae0126114a169c64845d6126c98186015280840196909652958d166060860152608085018c905260a085019590955260c08085018b90528151808603909101815260e08501825280519083012061190160f01b6101008601526101028501969096526101228085019690965280518085039096018652610142840180825286519683019690962095839052610162840180825286905260ff89166101828501526101a284018890526101c28401879052519193926101e280820193601f1981019281900390910190855afa158015612045573d6000803e3d6000fd5b5050604051601f1901519150506001600160a01b0381161580159061207b5750886001600160a01b0316816001600160a01b0316145b6120cc576040805162461bcd60e51b815260206004820152601e60248201527f45524332305065726d69743a20494e56414c49445f5349474e41545552450000604482015290519081900360640190fd5b6120d789898961279e565b505050505050505050565b600e54600f546001600160701b0380831692600160701b808204831693838116939190041690600090600160e01b900463ffffffff16612710811415612129578593508492505b600061213443612f1c565b905061214861214282613030565b836131e3565b925050509091929394565b6001600160a01b03918216600090815260016020908152604080832093909416825291909152205490565b60065481565b600260085414156121ca576040805162461bcd60e51b815260206004820152601f60248201526000805160206139f5833981519152604482015290519081900360640190fd5b600260085560006121d96139a9565b6121e16123c9565b9150915060006121f18383612a7c565b90506121fb6139a9565b600c54604080516370a0823160e01b815230600482015290516001600160a01b03909216916370a0823191602480820192602092909190829003018186803b15801561224657600080fd5b505afa15801561225a573d6000803e3d6000fd5b505050506040513d602081101561227057600080fd5b50518152600d54604080516370a0823160e01b815230600482015290516001600160a01b03909216916370a0823191602480820192602092909190829003018186803b1580156122bf57600080fd5b505afa1580156122d3573d6000803e3d6000fd5b505050506040513d60208110156122e957600080fd5b5051602082015283156123a0576000612300610fde565b8451835191925060009161233d91906123199085612c3a565b8161232057fe5b04866020015161136b858760200151612c3a90919063ffffffff16565b905061236c8261235a838860400151612c3a90919063ffffffff16565b8161236157fe5b048460000151612dea565b604084015260608501516123989083906123869084612c3a565b8161238d57fe5b048460200151612dea565b606084015250505b6123aa8482612659565b81156123be576123ba8482612dfa565b6010555b505060016008555050565b60006123d36139a9565b600e546001600160701b038082168352600160701b820416602083015263ffffffff600160e01b90910416612710148015925061242c57600f546001600160701b038082166040840152600160701b9091041660608201525b9091565b604080516001600160a01b038416602482015260448082018490528251808303909101815260649091019091526020810180516001600160e01b031663a9059cbb60e01b17905261248290849061323f565b505050565b600082820183811015611065576040805162461bcd60e51b815260206004820152601b60248201527f536166654d6174683a206164646974696f6e206f766572666c6f770000000000604482015290519081900360640190fd5b600082821115612538576040805162461bcd60e51b815260206004820152601e60248201527f536166654d6174683a207375627472616374696f6e206f766572666c6f770000604482015290519081900360640190fd5b50900390565b60008061255f88612559876125538a8c612c3a565b906132f0565b90612487565b9050600061256d4383613357565b905061259061257b82613030565b600e54600160e01b900463ffffffff166131e3565b925060006125a686670de0b6b3a7640000612c3a565b90506125bc6125b58b86612c3a565b82906124e1565b9050670de0b6b3a76400008104905060006125df86670de0b6b3a7640000612c3a565b90506125ee6125b58b87612c3a565b670de0b6b3a7640000900490506126058989612c3a565b61260f8383612c3a565b101561264b576040805162461bcd60e51b8152602060048201526006602482015265444d4d3a204b60d01b604482015290519081900360640190fd5b505050509695505050505050565b805161266490613594565b600e80546001600160701b0319166001600160701b0392909216919091179055602081015161269290613594565b600e806101000a8154816001600160701b0302191690836001600160701b0316021790555081156127425780516040820151108015906126da57508060200151816060015110155b6126e057fe5b6126ed8160400151613594565b600f80546001600160701b0319166001600160701b0392909216919091179055606081015161271b90613594565b600f600e6101000a8154816001600160701b0302191690836001600160701b031602179055505b6040808201516060808401518451602080870151865195865290850192909252838501529082015290517f2f9d55abfefdfd4c3a83e00a1b419b3c2fe4b83100c559f0e2213e57f6e0bba99181900360800190a15050565b3390565b6001600160a01b0383166127e35760405162461bcd60e51b8152600401808060200182810382526024815260200180613b786024913960400191505060405180910390fd5b6001600160a01b0382166128285760405162461bcd60e51b8152600401808060200182810382526022815260200180613a376022913960400191505060405180910390fd5b6001600160a01b03808416600081815260016020908152604080832094871680845294825291829020859055815185815291517f8c5be1e5ebec7d5bd14f71427d1e84f3dd0314c0f7b2291e5b200ac8c7c3b9259281900390910190a3505050565b6001600160a01b0383166128cf5760405162461bcd60e51b8152600401808060200182810382526025815260200180613b536025913960400191505060405180910390fd5b6001600160a01b0382166129145760405162461bcd60e51b81526004018080602001828103825260238152602001806139d26023913960400191505060405180910390fd5b61291f838383612482565b61295c81604051806060016040528060268152602001613a59602691396001600160a01b03861660009081526020819052604090205491906129e5565b6001600160a01b03808516600090815260208190526040808220939093559084168152205461298b9082612487565b6001600160a01b038084166000818152602081815260409182902094909455805185815290519193928716927fddf252ad1be2c89b69c2b068fc378daa952ba7f163c4a11628f55a4df523b3ef92918290030190a3505050565b60008184841115612a745760405162461bcd60e51b81526004018080602001828103825283818151815260200191508051906020019080838360005b83811015612a39578181015183820152602001612a21565b50505050905090810190601f168015612a665780820380516001836020036101000a031916815260200191505b509250505060405180910390fd5b505050900390565b6000806000600b60009054906101000a90046001600160a01b03166001600160a01b031663ad5cb2e16040518163ffffffff1660e01b8152600401604080518083038186803b158015612ace57600080fd5b505afa158015612ae2573d6000803e3d6000fd5b505050506040513d6040811015612af857600080fd5b5080516020909101516010546001600160a01b038316151595509193509150600086612b25578551612b2b565b85604001515b9050600087612b3e578660200151612b44565b86606001515b90508515612c23578215612c1e57600083830284848281612b6157fe5b041415612b8657612b7f612b7861132183866132f0565b85906124e1565b9150612ba3565b612ba0612b7861132186612b9a89886132f0565b90612c3a565b91505b6000612bcb612bc385612553888e60200151612c3a90919063ffffffff16565b8b5190612487565b90506000612be38861ffff16612b9a86612b9a610fde565b90506000612bf7611388612b9a85886124e1565b90506000818381612c0457fe5b0490508015612c1757612c178b82612ce4565b5050505050505b612c2f565b8215612c2f5760006010555b505050505092915050565b600082612c4957506000610fa0565b82820282848281612c5657fe5b04146110655760405162461bcd60e51b8152600401808060200182810382526021815260200180613ac76021913960400191505060405180910390fd5b60006003821115612cd6575080600160028204015b81811015612cd057809150600281828581612cbf57fe5b040181612cc857fe5b049050612ca8565b50611560565b811561156057506001919050565b6001600160a01b038216612d3f576040805162461bcd60e51b815260206004820152601f60248201527f45524332303a206d696e7420746f20746865207a65726f206164647265737300604482015290519081900360640190fd5b612d4b60008383612482565b600254612d589082612487565b6002556001600160a01b038216600090815260208190526040902054612d7e9082612487565b6001600160a01b0383166000818152602081815260408083209490945583518581529351929391927fddf252ad1be2c89b69c2b068fc378daa952ba7f163c4a11628f55a4df523b3ef9281900390910190a35050565b6000818310612de35781611065565b5090919050565b600081831015612de35781611065565b600082612e0e576020820151825102611065565b50606081015160409091015102919050565b6001600160a01b038216612e655760405162461bcd60e51b8152600401808060200182810382526021815260200180613b326021913960400191505060405180910390fd5b612e7182600083612482565b612eae81604051806060016040528060228152602001613a15602291396001600160a01b03851660009081526020819052604090205491906129e5565b6001600160a01b038316600090815260208190526040902055600254612ed490826124e1565b6002556040805182815290516000916001600160a01b038516917fddf252ad1be2c89b69c2b068fc378daa952ba7f163c4a11628f55a4df523b3ef9181900360200190a35050565b600a54600090600160801b90046001600160801b0316820380612f6157600954612f59906001600160801b0380821691600160801b9004166135e6565b915050611560565b600954600090612f96906001600160801b0316611519671bc16d674ec800005b600a54919004906001600160801b0316613608565b600954909150600090612fc490600160801b90046001600160801b0316612a31671bc16d674ec80000612f81565b9050612ff6612fef6000198501611519671bc16d674ec800005b04670de0b6b3a76400000390613657565b8390613707565b915061301b6130146000198501612a31671bc16d674ec80000612fde565b8290613707565b905061302782826135e6565b95945050505050565b6000671480cc142da92a84821061304f5750661550f7dca70000611560565b670de0b6b3a76400008210613140576710a741a4627800008211156130e1576710a741a46277ffff1982016000613087826003613657565b90506127106130d06130a7846009680d8d726b7177a800005b0490613707565b6125596130c085601b69043c33c19375648000006130a0565b6801fa48421ec7b1ed0990612487565b816130d757fe5b0492505050611560565b6710a741a46278000082900360006130fa826003613657565b90506127106130d0613117846009680d8d726b7177a800006130a0565b610a8061313085601b69043c33c19375648000006130a0565b6801fa48421ec7b1ed09906124e1565b6000670b9a1192183a0000831161316257670b9a1192183a000083900361316f565b670b9a11921839ffff1983015b905061317c816002613657565b905060006131a56131938365b5e620f48000612487565b612553674563918244f4000085612c3a565b9050670b9a1192183a00008411156131cd576127106130d06801161163ae0de59a9283612487565b6127106130d06801161163ae0de59a92836124e1565b6000614e208263ffffffff16116131fb575081610fa0565b61c3508263ffffffff161161321957601e601484025b049050610fa0565b62030d408263ffffffff161161323457601e600a8402613211565b601e60048402613211565b6060613294826040518060400160405280602081526020017f5361666545524332303a206c6f772d6c6576656c2063616c6c206661696c6564815250856001600160a01b03166137239092919063ffffffff16565b805190915015612482578080602001905160208110156132b357600080fd5b50516124825760405162461bcd60e51b815260040180806020018281038252602a815260200180613b9c602a913960400191505060405180910390fd5b6000808211613346576040805162461bcd60e51b815260206004820152601a60248201527f536166654d6174683a206469766973696f6e206279207a65726f000000000000604482015290519081900360640190fd5b81838161334f57fe5b049392505050565b600a54600090600160801b90046001600160801b031683038061340557600a546133c99061338e906001600160801b031685612487565b6040518060400160405280601a81526020017f766f6c756d6520657863656564732076616c69642072616e676500000000000081525061373a565b600a80546001600160801b0319166001600160801b039283161790556009546133fd9181811691600160801b9004166135e6565b915050610fa0565b600a546009546001600160801b03918216916000916134309116611519671bc16d674ec80000612f81565b60095490915060009061345e90600160801b90046001600160801b0316612a31671bc16d674ec80000612f81565b905061347c612fef6000198601611519671bc16d674ec80000612fde565b915061349a6130146000198601612a31671bc16d674ec80000612fde565b90506134a58261379b565b600980546001600160801b0319166001600160801b03929092169190911790556134ce8161379b565b600980546001600160801b03928316600160801b0292169190911790556134f48661379b565b600a80546001600160801b0319166001600160801b039290921691909117905561351d8761379b565b600a80546001600160801b03928316600160801b0290831617905560408051848152602081018490529185168282015260608201869052517f96e2c334d3c0fa98c8b728ee84471864ffe5b28e05f46e52f8a469d0ab3a8b8b9181900360800190a161358982826135e6565b979650505050505050565b60006001600160701b038211156135e2576040805162461bcd60e51b815260206004820152600d60248201526c444d4d3a204f564552464c4f5760981b604482015290519081900360640190fd5b5090565b6000816135f557506000610fa0565b81670de0b6b3a764000084028161334f57fe5b6000670de0b6b3a7640000831061361b57fe5b670de0b6b3a7640000826001600160801b03168402856001600160801b031685670de0b6b3a76400000302018161364e57fe5b04949350505050565b6000670de0b6b3a76400008311156136af576040805162461bcd60e51b815260206004820152601660248201527526b0ba3422bc3a1d103c101f10282922a1a4a9a4a7a760511b604482015290519081900360640190fd5b600282066136c557670de0b6b3a76400006136c7565b825b90506002820491505b8115610fa057670de0b6b3a764000083800204925060028206156136fc57670de0b6b3a7640000908302045b6002820491506136d0565b6000670de0b6b3a764000061371c8484612c3a565b8161334f57fe5b606061373284846000856137ec565b949350505050565b6000816001600160801b038411156137935760405162461bcd60e51b8152602060048201818152835160248401528351909283926044909101919085019080838360008315612a39578181015183820152602001612a21565b509192915050565b60006001600160801b038211156135e2576040805162461bcd60e51b815260206004820152601060248201526f0deeccae4ccd8deee40ead2dce86264760831b604482015290519081900360640190fd5b60608247101561382d5760405162461bcd60e51b8152600401808060200182810382526026815260200180613a7f6026913960400191505060405180910390fd5b6138368561393d565b613887576040805162461bcd60e51b815260206004820152601d60248201527f416464726573733a2063616c6c20746f206e6f6e2d636f6e7472616374000000604482015290519081900360640190fd5b60006060866001600160a01b031685876040518082805190602001908083835b602083106138c65780518252601f1990920191602091820191016138a7565b6001836020036101000a03801982511681845116808217855250505050505090500191505060006040518083038185875af1925050503d8060008114613928576040519150601f19603f3d011682016040523d82523d6000602084013e61392d565b606091505b5091509150613589828286613943565b3b151590565b60608315613952575081611065565b8251156139625782518084602001fd5b60405162461bcd60e51b8152602060048201818152845160248401528451859391928392604401919085019080838360008315612a39578181015183820152602001612a21565b604051806080016040528060008152602001600081526020016000815260200160008152509056fe45524332303a207472616e7366657220746f20746865207a65726f20616464726573735265656e7472616e637947756172643a207265656e7472616e742063616c6c0045524332303a206275726e20616d6f756e7420657863656564732062616c616e636545524332303a20617070726f766520746f20746865207a65726f206164647265737345524332303a207472616e7366657220616d6f756e7420657863656564732062616c616e6365416464726573733a20696e73756666696369656e742062616c616e636520666f722063616c6c444d4d3a20494e53554646494349454e545f4c49515549444954595f4255524e4544536166654d6174683a206d756c7469706c69636174696f6e206f766572666c6f7745524332303a207472616e7366657220616d6f756e74206578636565647320616c6c6f77616e6365444d4d3a20494e53554646494349454e545f4c49515549444954595f4d494e54454445524332303a206275726e2066726f6d20746865207a65726f206164647265737345524332303a207472616e736665722066726f6d20746865207a65726f206164647265737345524332303a20617070726f76652066726f6d20746865207a65726f20616464726573735361666545524332303a204552433230206f7065726174696f6e20646964206e6f74207375636365656445524332303a2064656372656173656420616c6c6f77616e63652062656c6f77207a65726fa264697066735822122080dee1363471b3df798aac5d96d36b3496db52dbed90cea873f40c40222ba93664736f6c634300060c0033",
  "immutableReferences": {},
  "source": "// SPDX-License-Identifier: BUSL-1.1\r\npragma solidity 0.6.12;\r\n\r\nimport \"@openzeppelin/contracts/math/SafeMath.sol\";\r\nimport \"@openzeppelin/contracts/math/Math.sol\";\r\nimport \"@openzeppelin/contracts/utils/ReentrancyGuard.sol\";\r\nimport \"@openzeppelin/contracts/token/ERC20/SafeERC20.sol\";\r\n\r\nimport \"./libraries/MathExt.sol\";\r\nimport \"./libraries/FeeFomula.sol\";\r\nimport \"./libraries/ERC20Permit.sol\";\r\n\r\nimport \"./interfaces/IDMMFactory.sol\";\r\nimport \"./interfaces/IDMMCallee.sol\";\r\nimport \"./interfaces/IDMMPool.sol\";\r\nimport \"./interfaces/IERC20Metadata.sol\";\r\nimport \"./VolumeTrendRecorder.sol\";\r\n\r\ncontract DMMPool is IDMMPool, ERC20Permit, ReentrancyGuard, VolumeTrendRecorder {\r\n    using SafeMath for uint256;\r\n    using SafeERC20 for IERC20;\r\n\r\n    uint256 internal constant MAX_UINT112 = 2**112 - 1;\r\n    uint256 internal constant BPS = 10000;\r\n\r\n    struct ReserveData {\r\n        uint256 reserve0;\r\n        uint256 reserve1;\r\n        uint256 vReserve0;\r\n        uint256 vReserve1; // only used when isAmpPool = true\r\n    }\r\n\r\n    uint256 public constant MINIMUM_LIQUIDITY = 10**3;\r\n    /// @dev To make etherscan auto-verify new pool, these variables are not immutable\r\n    IDMMFactory public override factory;\r\n    IERC20 public override token0;\r\n    IERC20 public override token1;\r\n\r\n    /// @dev uses single storage slot, accessible via getReservesData\r\n    uint112 internal reserve0;\r\n    uint112 internal reserve1;\r\n    uint32 public override ampBps;\r\n    /// @dev addition param only when amplification factor > 1\r\n    uint112 internal vReserve0;\r\n    uint112 internal vReserve1;\r\n\r\n    /// @dev vReserve0 * vReserve1, as of immediately after the most recent liquidity event\r\n    uint256 public override kLast;\r\n\r\n    event Mint(address indexed sender, uint256 amount0, uint256 amount1);\r\n    event Burn(address indexed sender, uint256 amount0, uint256 amount1, address indexed to);\r\n    event Swap(\r\n        address indexed sender,\r\n        uint256 amount0In,\r\n        uint256 amount1In,\r\n        uint256 amount0Out,\r\n        uint256 amount1Out,\r\n        address indexed to,\r\n        uint256 feeInPrecision\r\n    );\r\n    event Sync(uint256 vReserve0, uint256 vReserve1, uint256 reserve0, uint256 reserve1);\r\n\r\n    constructor() public ERC20Permit(\"KyberDMM LP\", \"DMM-LP\", \"1\") VolumeTrendRecorder(0) {\r\n        factory = IDMMFactory(msg.sender);\r\n    }\r\n\r\n    // called once by the factory at time of deployment\r\n    function initialize(\r\n        IERC20 _token0,\r\n        IERC20 _token1,\r\n        uint32 _ampBps\r\n    ) external {\r\n        require(msg.sender == address(factory), \"DMM: FORBIDDEN\");\r\n        token0 = _token0;\r\n        token1 = _token1;\r\n        ampBps = _ampBps;\r\n    }\r\n\r\n    /// @dev this low-level function should be called from a contract\r\n    ///                 which performs important safety checks\r\n    function mint(address to) external override nonReentrant returns (uint256 liquidity) {\r\n        (bool isAmpPool, ReserveData memory data) = getReservesData();\r\n        ReserveData memory _data;\r\n        _data.reserve0 = token0.balanceOf(address(this));\r\n        _data.reserve1 = token1.balanceOf(address(this));\r\n        uint256 amount0 = _data.reserve0.sub(data.reserve0);\r\n        uint256 amount1 = _data.reserve1.sub(data.reserve1);\r\n\r\n        bool feeOn = _mintFee(isAmpPool, data);\r\n        uint256 _totalSupply = totalSupply(); // gas savings, must be defined here since totalSupply can update in _mintFee\r\n        if (_totalSupply == 0) {\r\n            if (isAmpPool) {\r\n                uint32 _ampBps = ampBps;\r\n                _data.vReserve0 = _data.reserve0.mul(_ampBps) / BPS;\r\n                _data.vReserve1 = _data.reserve1.mul(_ampBps) / BPS;\r\n            }\r\n            liquidity = MathExt.sqrt(amount0.mul(amount1)).sub(MINIMUM_LIQUIDITY);\r\n            _mint(address(-1), MINIMUM_LIQUIDITY); // permanently lock the first MINIMUM_LIQUIDITY tokens\r\n        } else {\r\n            liquidity = Math.min(\r\n                amount0.mul(_totalSupply) / data.reserve0,\r\n                amount1.mul(_totalSupply) / data.reserve1\r\n            );\r\n            if (isAmpPool) {\r\n                uint256 b = liquidity.add(_totalSupply);\r\n                _data.vReserve0 = Math.max(data.vReserve0.mul(b) / _totalSupply, _data.reserve0);\r\n                _data.vReserve1 = Math.max(data.vReserve1.mul(b) / _totalSupply, _data.reserve1);\r\n            }\r\n        }\r\n        require(liquidity > 0, \"DMM: INSUFFICIENT_LIQUIDITY_MINTED\");\r\n        _mint(to, liquidity);\r\n\r\n        _update(isAmpPool, _data);\r\n        if (feeOn) kLast = getK(isAmpPool, _data);\r\n        emit Mint(msg.sender, amount0, amount1);\r\n    }\r\n\r\n    /// @dev this low-level function should be called from a contract\r\n    /// @dev which performs important safety checks\r\n    /// @dev user must transfer LP token to this contract before call burn\r\n    function burn(address to)\r\n        external\r\n        override\r\n        nonReentrant\r\n        returns (uint256 amount0, uint256 amount1)\r\n    {\r\n        (bool isAmpPool, ReserveData memory data) = getReservesData(); // gas savings\r\n        IERC20 _token0 = token0; // gas savings\r\n        IERC20 _token1 = token1; // gas savings\r\n\r\n        uint256 balance0 = _token0.balanceOf(address(this));\r\n        uint256 balance1 = _token1.balanceOf(address(this));\r\n        require(balance0 >= data.reserve0 && balance1 >= data.reserve1, \"DMM: UNSYNC_RESERVES\");\r\n        uint256 liquidity = balanceOf(address(this));\r\n\r\n        bool feeOn = _mintFee(isAmpPool, data);\r\n        uint256 _totalSupply = totalSupply(); // gas savings, must be defined here since totalSupply can update in _mintFee\r\n        amount0 = liquidity.mul(balance0) / _totalSupply; // using balances ensures pro-rata distribution\r\n        amount1 = liquidity.mul(balance1) / _totalSupply; // using balances ensures pro-rata distribution\r\n        require(amount0 > 0 && amount1 > 0, \"DMM: INSUFFICIENT_LIQUIDITY_BURNED\");\r\n        _burn(address(this), liquidity);\r\n        _token0.safeTransfer(to, amount0);\r\n        _token1.safeTransfer(to, amount1);\r\n        ReserveData memory _data;\r\n        _data.reserve0 = _token0.balanceOf(address(this));\r\n        _data.reserve1 = _token1.balanceOf(address(this));\r\n        if (isAmpPool) {\r\n            uint256 b = Math.min(\r\n                _data.reserve0.mul(_totalSupply) / data.reserve0,\r\n                _data.reserve1.mul(_totalSupply) / data.reserve1\r\n            );\r\n            _data.vReserve0 = Math.max(data.vReserve0.mul(b) / _totalSupply, _data.reserve0);\r\n            _data.vReserve1 = Math.max(data.vReserve1.mul(b) / _totalSupply, _data.reserve1);\r\n        }\r\n        _update(isAmpPool, _data);\r\n        if (feeOn) kLast = getK(isAmpPool, _data); // data are up-to-date\r\n        emit Burn(msg.sender, amount0, amount1, to);\r\n    }\r\n\r\n    /// @dev this low-level function should be called from a contract\r\n    /// @dev which performs important safety checks\r\n    function swap(\r\n        uint256 amount0Out,\r\n        uint256 amount1Out,\r\n        address to,\r\n        bytes calldata callbackData\r\n    ) external override nonReentrant {\r\n        require(amount0Out > 0 || amount1Out > 0, \"DMM: INSUFFICIENT_OUTPUT_AMOUNT\");\r\n        (bool isAmpPool, ReserveData memory data) = getReservesData(); // gas savings\r\n        require(\r\n            amount0Out < data.reserve0 && amount1Out < data.reserve1,\r\n            \"DMM: INSUFFICIENT_LIQUIDITY\"\r\n        );\r\n\r\n        ReserveData memory newData;\r\n        {\r\n            // scope for _token{0,1}, avoids stack too deep errors\r\n            IERC20 _token0 = token0;\r\n            IERC20 _token1 = token1;\r\n            require(to != address(_token0) && to != address(_token1), \"DMM: INVALID_TO\");\r\n            if (amount0Out > 0) _token0.safeTransfer(to, amount0Out); // optimistically transfer tokens\r\n            if (amount1Out > 0) _token1.safeTransfer(to, amount1Out); // optimistically transfer tokens\r\n            if (callbackData.length > 0)\r\n                IDMMCallee(to).dmmSwapCall(msg.sender, amount0Out, amount1Out, callbackData);\r\n            newData.reserve0 = _token0.balanceOf(address(this));\r\n            newData.reserve1 = _token1.balanceOf(address(this));\r\n            if (isAmpPool) {\r\n                newData.vReserve0 = data.vReserve0.add(newData.reserve0).sub(data.reserve0);\r\n                newData.vReserve1 = data.vReserve1.add(newData.reserve1).sub(data.reserve1);\r\n            }\r\n        }\r\n        uint256 amount0In = newData.reserve0 > data.reserve0 - amount0Out\r\n            ? newData.reserve0 - (data.reserve0 - amount0Out)\r\n            : 0;\r\n        uint256 amount1In = newData.reserve1 > data.reserve1 - amount1Out\r\n            ? newData.reserve1 - (data.reserve1 - amount1Out)\r\n            : 0;\r\n        require(amount0In > 0 || amount1In > 0, \"DMM: INSUFFICIENT_INPUT_AMOUNT\");\r\n        uint256 feeInPrecision = verifyBalanceAndUpdateEma(\r\n            amount0In,\r\n            amount1In,\r\n            isAmpPool ? data.vReserve0 : data.reserve0,\r\n            isAmpPool ? data.vReserve1 : data.reserve1,\r\n            isAmpPool ? newData.vReserve0 : newData.reserve0,\r\n            isAmpPool ? newData.vReserve1 : newData.reserve1\r\n        );\r\n\r\n        _update(isAmpPool, newData);\r\n        emit Swap(msg.sender, amount0In, amount1In, amount0Out, amount1Out, to, feeInPrecision);\r\n    }\r\n\r\n    /// @dev force balances to match reserves\r\n    function skim(address to) external nonReentrant {\r\n        token0.safeTransfer(to, token0.balanceOf(address(this)).sub(reserve0));\r\n        token1.safeTransfer(to, token1.balanceOf(address(this)).sub(reserve1));\r\n    }\r\n\r\n    /// @dev force reserves to match balances\r\n    function sync() external override nonReentrant {\r\n        (bool isAmpPool, ReserveData memory data) = getReservesData();\r\n        bool feeOn = _mintFee(isAmpPool, data);\r\n        ReserveData memory newData;\r\n        newData.reserve0 = IERC20(token0).balanceOf(address(this));\r\n        newData.reserve1 = IERC20(token1).balanceOf(address(this));\r\n        // update virtual reserves if this is amp pool\r\n        if (isAmpPool) {\r\n            uint256 _totalSupply = totalSupply();\r\n            uint256 b = Math.min(\r\n                newData.reserve0.mul(_totalSupply) / data.reserve0,\r\n                newData.reserve1.mul(_totalSupply) / data.reserve1\r\n            );\r\n            newData.vReserve0 = Math.max(data.vReserve0.mul(b) / _totalSupply, newData.reserve0);\r\n            newData.vReserve1 = Math.max(data.vReserve1.mul(b) / _totalSupply, newData.reserve1);\r\n        }\r\n        _update(isAmpPool, newData);\r\n        if (feeOn) kLast = getK(isAmpPool, newData);\r\n    }\r\n\r\n    /// @dev returns data to calculate amountIn, amountOut\r\n    function getTradeInfo()\r\n        external\r\n        virtual\r\n        override\r\n        view\r\n        returns (\r\n            uint112 _reserve0,\r\n            uint112 _reserve1,\r\n            uint112 _vReserve0,\r\n            uint112 _vReserve1,\r\n            uint256 feeInPrecision\r\n        )\r\n    {\r\n        // gas saving to read reserve data\r\n        _reserve0 = reserve0;\r\n        _reserve1 = reserve1;\r\n        uint32 _ampBps = ampBps;\r\n        _vReserve0 = vReserve0;\r\n        _vReserve1 = vReserve1;\r\n        if (_ampBps == BPS) {\r\n            _vReserve0 = _reserve0;\r\n            _vReserve1 = _reserve1;\r\n        }\r\n        uint256 rFactorInPrecision = getRFactor(block.number);\r\n        feeInPrecision = getFinalFee(FeeFomula.getFee(rFactorInPrecision), _ampBps);\r\n    }\r\n\r\n    /// @dev returns reserve data to calculate amount to add liquidity\r\n    function getReserves() external override view returns (uint112 _reserve0, uint112 _reserve1) {\r\n        _reserve0 = reserve0;\r\n        _reserve1 = reserve1;\r\n    }\r\n\r\n    function name() public override view returns (string memory) {\r\n        IERC20Metadata _token0 = IERC20Metadata(address(token0));\r\n        IERC20Metadata _token1 = IERC20Metadata(address(token1));\r\n        return string(abi.encodePacked(\"KyberDMM LP \", _token0.symbol(), \"-\", _token1.symbol()));\r\n    }\r\n\r\n    function symbol() public override view returns (string memory) {\r\n        IERC20Metadata _token0 = IERC20Metadata(address(token0));\r\n        IERC20Metadata _token1 = IERC20Metadata(address(token1));\r\n        return string(abi.encodePacked(\"DMM-LP \", _token0.symbol(), \"-\", _token1.symbol()));\r\n    }\r\n\r\n    function verifyBalanceAndUpdateEma(\r\n        uint256 amount0In,\r\n        uint256 amount1In,\r\n        uint256 beforeReserve0,\r\n        uint256 beforeReserve1,\r\n        uint256 afterReserve0,\r\n        uint256 afterReserve1\r\n    ) internal virtual returns (uint256 feeInPrecision) {\r\n        // volume = beforeReserve0 * amount1In / beforeReserve1 + amount0In (normalized into amount in token 0)\r\n        uint256 volume = beforeReserve0.mul(amount1In).div(beforeReserve1).add(amount0In);\r\n        uint256 rFactorInPrecision = recordNewUpdatedVolume(block.number, volume);\r\n        feeInPrecision = getFinalFee(FeeFomula.getFee(rFactorInPrecision), ampBps);\r\n        // verify balance update matches with fomula\r\n        uint256 balance0Adjusted = afterReserve0.mul(PRECISION);\r\n        balance0Adjusted = balance0Adjusted.sub(amount0In.mul(feeInPrecision));\r\n        balance0Adjusted = balance0Adjusted / PRECISION;\r\n        uint256 balance1Adjusted = afterReserve1.mul(PRECISION);\r\n        balance1Adjusted = balance1Adjusted.sub(amount1In.mul(feeInPrecision));\r\n        balance1Adjusted = balance1Adjusted / PRECISION;\r\n        require(\r\n            balance0Adjusted.mul(balance1Adjusted) >= beforeReserve0.mul(beforeReserve1),\r\n            \"DMM: K\"\r\n        );\r\n    }\r\n\r\n    /// @dev update reserves\r\n    function _update(bool isAmpPool, ReserveData memory data) internal {\r\n        reserve0 = safeUint112(data.reserve0);\r\n        reserve1 = safeUint112(data.reserve1);\r\n        if (isAmpPool) {\r\n            assert(data.vReserve0 >= data.reserve0 && data.vReserve1 >= data.reserve1); // never happen\r\n            vReserve0 = safeUint112(data.vReserve0);\r\n            vReserve1 = safeUint112(data.vReserve1);\r\n        }\r\n        emit Sync(data.vReserve0, data.vReserve1, data.reserve0, data.reserve1);\r\n    }\r\n\r\n    /// @dev if fee is on, mint liquidity equivalent to configured fee of the growth in sqrt(k)\r\n    function _mintFee(bool isAmpPool, ReserveData memory data) internal returns (bool feeOn) {\r\n        (address feeTo, uint16 governmentFeeBps) = factory.getFeeConfiguration();\r\n        feeOn = feeTo != address(0);\r\n        uint256 _kLast = kLast; // gas savings\r\n        uint256 _vReserve0 = isAmpPool ? data.vReserve0 : data.reserve0; // gas savings\r\n        uint256 _vReserve1 = isAmpPool ? data.vReserve1 : data.reserve1; // gas savings\r\n        if (feeOn) {\r\n            if (_kLast != 0) {\r\n                uint256 collectedFee0;\r\n                uint256 _tmp = _kLast * _vReserve0;\r\n                if (_tmp / _vReserve0 == _kLast) {\r\n                    collectedFee0 = _vReserve0.sub(MathExt.sqrt(_tmp.div(_vReserve1)));\r\n                } else {\r\n                    collectedFee0 = _vReserve0.sub(\r\n                        MathExt.sqrt(_kLast.div(_vReserve1).mul(_vReserve0))\r\n                    );\r\n                }\r\n                uint256 poolValueInToken0 = data.reserve0.add(\r\n                    data.reserve1.mul(_vReserve0).div(_vReserve1)\r\n                );\r\n                uint256 numerator = totalSupply().mul(collectedFee0).mul(governmentFeeBps);\r\n                uint256 denominator = (poolValueInToken0.sub(collectedFee0)).mul(5000);\r\n                uint256 liquidity = numerator / denominator;\r\n                if (liquidity > 0) _mint(feeTo, liquidity);\r\n            }\r\n        } else if (_kLast != 0) {\r\n            kLast = 0;\r\n        }\r\n    }\r\n\r\n    /// @dev gas saving to read reserve data\r\n    function getReservesData() internal view returns (bool isAmpPool, ReserveData memory data) {\r\n        data.reserve0 = reserve0;\r\n        data.reserve1 = reserve1;\r\n        isAmpPool = ampBps != BPS;\r\n        if (isAmpPool) {\r\n            data.vReserve0 = vReserve0;\r\n            data.vReserve1 = vReserve1;\r\n        }\r\n    }\r\n\r\n    function getFinalFee(uint256 feeInPrecision, uint32 _ampBps) internal pure returns (uint256) {\r\n        if (_ampBps <= 20000) {\r\n            return feeInPrecision;\r\n        } else if (_ampBps <= 50000) {\r\n            return (feeInPrecision * 20) / 30;\r\n        } else if (_ampBps <= 200000) {\r\n            return (feeInPrecision * 10) / 30;\r\n        } else {\r\n            return (feeInPrecision * 4) / 30;\r\n        }\r\n    }\r\n\r\n    function getK(bool isAmpPool, ReserveData memory data) internal pure returns (uint256) {\r\n        return isAmpPool ? data.vReserve0 * data.vReserve1 : data.reserve0 * data.reserve1;\r\n    }\r\n\r\n    function safeUint112(uint256 x) internal pure returns (uint112) {\r\n        require(x <= MAX_UINT112, \"DMM: OVERFLOW\");\r\n        return uint112(x);\r\n    }\r\n}\r\n",
  "sourcePath": "D:\\Code\\kyber-verified\\contracts\\dmm\\DMMPool.sol",
  "compiler": {
    "name": "solc",
    "version": "0.6.12+commit.27d51765.Emscripten.clang"
  },
  "schemaVersion": "3.4.3",
  "updatedAt": "2022-09-20T21:02:09.610Z",
  "devdoc": {
    "kind": "dev",
    "methods": {
      "allowance(address,address)": {
        "details": "See {IERC20-allowance}."
      },
      "approve(address,uint256)": {
        "details": "See {IERC20-approve}. Requirements: - `spender` cannot be the zero address."
      },
      "balanceOf(address)": {
        "details": "See {IERC20-balanceOf}."
      },
      "burn(address)": {
        "details": "this low-level function should be called from a contractwhich performs important safety checksuser must transfer LP token to this contract before call burn"
      },
      "decimals()": {
        "details": "Returns the number of decimals used to get its user representation. For example, if `decimals` equals `2`, a balance of `505` tokens should be displayed to a user as `5,05` (`505 / 10 ** 2`). Tokens usually opt for a value of 18, imitating the relationship between Ether and Wei. This is the value {ERC20} uses, unless {_setupDecimals} is called. NOTE: This information is only used for _display_ purposes: it in no way affects any of the arithmetic of the contract, including {IERC20-balanceOf} and {IERC20-transfer}."
      },
      "decreaseAllowance(address,uint256)": {
        "details": "Atomically decreases the allowance granted to `spender` by the caller. This is an alternative to {approve} that can be used as a mitigation for problems described in {IERC20-approve}. Emits an {Approval} event indicating the updated allowance. Requirements: - `spender` cannot be the zero address. - `spender` must have allowance for the caller of at least `subtractedValue`."
      },
      "getReserves()": {
        "details": "returns reserve data to calculate amount to add liquidity"
      },
      "getTradeInfo()": {
        "details": "returns data to calculate amountIn, amountOut"
      },
      "increaseAllowance(address,uint256)": {
        "details": "Atomically increases the allowance granted to `spender` by the caller. This is an alternative to {approve} that can be used as a mitigation for problems described in {IERC20-approve}. Emits an {Approval} event indicating the updated allowance. Requirements: - `spender` cannot be the zero address."
      },
      "mint(address)": {
        "details": "this low-level function should be called from a contract                 which performs important safety checks"
      },
      "name()": {
        "details": "Returns the name of the token."
      },
      "skim(address)": {
        "details": "force balances to match reserves"
      },
      "swap(uint256,uint256,address,bytes)": {
        "details": "this low-level function should be called from a contractwhich performs important safety checks"
      },
      "symbol()": {
        "details": "Returns the symbol of the token, usually a shorter version of the name."
      },
      "sync()": {
        "details": "force reserves to match balances"
      },
      "totalSupply()": {
        "details": "See {IERC20-totalSupply}."
      },
      "transfer(address,uint256)": {
        "details": "See {IERC20-transfer}. Requirements: - `recipient` cannot be the zero address. - the caller must have a balance of at least `amount`."
      },
      "transferFrom(address,address,uint256)": {
        "details": "See {IERC20-transferFrom}. Emits an {Approval} event indicating the updated allowance. This is not required by the EIP. See the note at the beginning of {ERC20}. Requirements: - `sender` and `recipient` cannot be the zero address. - `sender` must have a balance of at least `amount`. - the caller must have allowance for ``sender``'s tokens of at least `amount`."
      }
    },
    "stateVariables": {
      "factory": {
        "details": "To make etherscan auto-verify new pool, these variables are not immutable"
      },
      "kLast": {
        "details": "vReserve0 * vReserve1, as of immediately after the most recent liquidity event"
      },
      "reserve0": {
        "details": "uses single storage slot, accessible via getReservesData"
      },
      "vReserve0": {
        "details": "addition param only when amplification factor > 1"
      }
    },
    "version": 1
  },
  "userdoc": {
    "kind": "user",
    "methods": {},
    "version": 1
  }
}