{
  "contractName": "FeeTo",
  "abi": [
    {
      "inputs": [
        {
          "internalType": "contract IKyberDao",
          "name": "_kyberDao",
          "type": "address"
        },
        {
          "internalType": "address",
          "name": "_daoOperator",
          "type": "address"
        }
      ],
      "stateMutability": "nonpayable",
      "type": "constructor"
    },
    {
      "anonymous": false,
      "inputs": [
        {
          "indexed": true,
          "internalType": "contract IERC20",
          "name": "token",
          "type": "address"
        },
        {
          "indexed": true,
          "internalType": "uint256",
          "name": "epoch",
          "type": "uint256"
        },
        {
          "indexed": false,
          "internalType": "uint256",
          "name": "rewardWei",
          "type": "uint256"
        }
      ],
      "name": "FeeDistributed",
      "type": "event"
    },
    {
      "anonymous": false,
      "inputs": [
        {
          "indexed": true,
          "internalType": "address",
          "name": "staker",
          "type": "address"
        },
        {
          "indexed": true,
          "internalType": "uint256",
          "name": "epoch",
          "type": "uint256"
        },
        {
          "indexed": true,
          "internalType": "contract IERC20",
          "name": "token",
          "type": "address"
        },
        {
          "indexed": false,
          "internalType": "uint256",
          "name": "amount",
          "type": "uint256"
        }
      ],
      "name": "RewardPaid",
      "type": "event"
    },
    {
      "anonymous": false,
      "inputs": [
        {
          "indexed": false,
          "internalType": "contract IERC20",
          "name": "token",
          "type": "address"
        },
        {
          "indexed": false,
          "internalType": "bool",
          "name": "isAllowed",
          "type": "bool"
        }
      ],
      "name": "SetAllowedToken",
      "type": "event"
    },
    {
      "inputs": [
        {
          "internalType": "contract IERC20",
          "name": "",
          "type": "address"
        }
      ],
      "name": "allowedToken",
      "outputs": [
        {
          "internalType": "bool",
          "name": "",
          "type": "bool"
        }
      ],
      "stateMutability": "view",
      "type": "function"
    },
    {
      "inputs": [],
      "name": "daoOperator",
      "outputs": [
        {
          "internalType": "address",
          "name": "",
          "type": "address"
        }
      ],
      "stateMutability": "view",
      "type": "function"
    },
    {
      "inputs": [
        {
          "internalType": "address",
          "name": "",
          "type": "address"
        },
        {
          "internalType": "uint256",
          "name": "",
          "type": "uint256"
        },
        {
          "internalType": "contract IERC20",
          "name": "",
          "type": "address"
        }
      ],
      "name": "hasClaimedReward",
      "outputs": [
        {
          "internalType": "bool",
          "name": "",
          "type": "bool"
        }
      ],
      "stateMutability": "view",
      "type": "function"
    },
    {
      "inputs": [],
      "name": "kyberDao",
      "outputs": [
        {
          "internalType": "contract IKyberDao",
          "name": "",
          "type": "address"
        }
      ],
      "stateMutability": "view",
      "type": "function"
    },
    {
      "inputs": [
        {
          "internalType": "contract IERC20",
          "name": "",
          "type": "address"
        }
      ],
      "name": "lastFinalizedEpoch",
      "outputs": [
        {
          "internalType": "uint256",
          "name": "",
          "type": "uint256"
        }
      ],
      "stateMutability": "view",
      "type": "function"
    },
    {
      "inputs": [
        {
          "internalType": "contract IERC20",
          "name": "",
          "type": "address"
        }
      ],
      "name": "reserves",
      "outputs": [
        {
          "internalType": "uint256",
          "name": "",
          "type": "uint256"
        }
      ],
      "stateMutability": "view",
      "type": "function"
    },
    {
      "inputs": [
        {
          "internalType": "uint256",
          "name": "",
          "type": "uint256"
        },
        {
          "internalType": "contract IERC20",
          "name": "",
          "type": "address"
        }
      ],
      "name": "rewardsPaidPerEpoch",
      "outputs": [
        {
          "internalType": "uint256",
          "name": "",
          "type": "uint256"
        }
      ],
      "stateMutability": "view",
      "type": "function"
    },
    {
      "inputs": [
        {
          "internalType": "uint256",
          "name": "",
          "type": "uint256"
        },
        {
          "internalType": "contract IERC20",
          "name": "",
          "type": "address"
        }
      ],
      "name": "rewardsPerEpoch",
      "outputs": [
        {
          "internalType": "uint256",
          "name": "",
          "type": "uint256"
        }
      ],
      "stateMutability": "view",
      "type": "function"
    },
    {
      "inputs": [
        {
          "internalType": "contract IERC20",
          "name": "token",
          "type": "address"
        },
        {
          "internalType": "bool",
          "name": "isAllowed",
          "type": "bool"
        }
      ],
      "name": "setAllowedToken",
      "outputs": [],
      "stateMutability": "nonpayable",
      "type": "function"
    },
    {
      "inputs": [
        {
          "internalType": "contract IERC20",
          "name": "token",
          "type": "address"
        },
        {
          "internalType": "uint256",
          "name": "epoch",
          "type": "uint256"
        }
      ],
      "name": "finalize",
      "outputs": [],
      "stateMutability": "nonpayable",
      "type": "function"
    },
    {
      "inputs": [
        {
          "internalType": "contract IERC20",
          "name": "token",
          "type": "address"
        }
      ],
      "name": "burn",
      "outputs": [],
      "stateMutability": "nonpayable",
      "type": "function"
    },
    {
      "inputs": [
        {
          "internalType": "address",
          "name": "staker",
          "type": "address"
        },
        {
          "internalType": "contract IERC20",
          "name": "token",
          "type": "address"
        },
        {
          "internalType": "uint256",
          "name": "epoch",
          "type": "uint256"
        }
      ],
      "name": "claimStakerReward",
      "outputs": [
        {
          "internalType": "uint256",
          "name": "amountWei",
          "type": "uint256"
        }
      ],
      "stateMutability": "nonpayable",
      "type": "function"
    }
  ],
  "bytecode": "0x60a060405234801561001057600080fd5b506040516112453803806112458339818101604052604081101561003357600080fd5b508051602090910151806001600160a01b03811661008b576040805162461bcd60e51b815260206004820152601060248201526f064616f4f70657261746f7220697320360841b604482015290519081900360640190fd5b600080546001600160a01b0319166001600160a01b039283161790556001805582166100ec576040805162461bcd60e51b815260206004820152600b60248201526a05f6b7962657244616f20360ac1b604482015290519081900360640190fd5b50606081901b6001600160601b0319166080526001600160a01b031661111c6101296000398061030b528061064952806108b7525061111c6000f3fe608060405234801561001057600080fd5b50600436106100b45760003560e01c806389afcb441161007157806389afcb44146101ef5780638aaa2284146102155780638c9bc20814610243578063a50fc56c1461024b578063d66bd52414610277578063dab662161461029d576100b4565b8063048474ac146100b95780630553e156146100f757806313b85c9414610125578063310afae31461016f5780634d8f5105146101a5578063756742f8146101c9575b600080fd5b6100e5600480360360408110156100cf57600080fd5b50803590602001356001600160a01b03166102c3565b60408051918252519081900360200190f35b6101236004803603604081101561010d57600080fd5b506001600160a01b0381351690602001356102e0565b005b61015b6004803603606081101561013b57600080fd5b506001600160a01b03813581169160208101359160409091013516610582565b604080519115158252519081900360200190f35b6100e56004803603606081101561018557600080fd5b506001600160a01b038135811691602081013590911690604001356105a8565b6101ad6108b5565b604080516001600160a01b039092168252519081900360200190f35b61015b600480360360208110156101df57600080fd5b50356001600160a01b03166108d9565b6101236004803603602081101561020557600080fd5b50356001600160a01b03166108ee565b6101236004803603604081101561022b57600080fd5b506001600160a01b0381351690602001351515610ac7565b6101ad610b7d565b6100e56004803603604081101561026157600080fd5b50803590602001356001600160a01b0316610b8c565b6100e56004803603602081101561028d57600080fd5b50356001600160a01b0316610ba9565b6100e5600480360360208110156102b357600080fd5b50356001600160a01b0316610bbb565b600360209081526000928352604080842090915290825290205481565b6001600160a01b03821660009081526006602052604090205460ff166103055761057e565b600060017f00000000000000000000000000000000000000000000000000000000000000006001600160a01b0316634408d2ba6040518163ffffffff1660e01b815260040160206040518083038186803b15801561036257600080fd5b505afa158015610376573d6000803e3d6000fd5b505050506040513d602081101561038c57600080fd5b505103905081811461039e575061057e565b6001600160a01b03831660009081526007602052604090205481116103c3575061057e565b6001600160a01b038316600081815260076020526040808220849055805160016209351760e01b03198152905163fff6cae99260048084019391929182900301818387803b15801561041457600080fd5b505af1158015610428573d6000803e3d6000fd5b5050506001600160a01b03841660008181526005602090815260408083205481516370a0823160e01b815230600482015291519395506104b994909390926370a082319260248082019391829003018186803b15801561048757600080fd5b505afa15801561049b573d6000803e3d6000fd5b505050506040513d60208110156104b157600080fd5b505190610bcd565b9050806104c757505061057e565b60008281526002602090815260408083206001600160a01b03881684529091529020546104f49082610c2f565b60008381526002602090815260408083206001600160a01b038916845282528083209390935560059052205461052a9082610c2f565b6001600160a01b038516600081815260056020908152604091829020939093558051848152905185937f891d4da69faf2cf5f9b5a4bceeeba1909237ad5d6222ebe54fbcab15067f8e68928290030190a350505b5050565b600460209081526000938452604080852082529284528284209052825290205460ff1681565b600060026001541415610602576040805162461bcd60e51b815260206004820152601f60248201527f5265656e7472616e637947756172643a207265656e7472616e742063616c6c00604482015290519081900360640190fd5b60026001556001600160a01b03808516600090815260046020908152604080832086845282528083209387168352929052205460ff1615610645575060006108aa565b60007f00000000000000000000000000000000000000000000000000000000000000006001600160a01b03166399e30ba886856040518363ffffffff1660e01b815260040180836001600160a01b031681526020018281526020019250505060206040518083038186803b1580156106bc57600080fd5b505afa1580156106d0573d6000803e3d6000fd5b505050506040513d60208110156106e657600080fd5b50519050806106f95760009150506108aa565b61070384846102e0565b670de0b6b3a7640000811115610756576040805162461bcd60e51b81526020600482015260136024820152720e0cae4c6cadce8c2ceca40e8dede40d0d2ced606b1b604482015290519081900360640190fd5b60008381526002602090815260408083206001600160a01b0388168452909152902054610795670de0b6b3a764000061078f8385610c90565b90610ce9565b60008581526003602090815260408083206001600160a01b038a168452909152812054919450906107c69085610c2f565b9050818111156107d257fe5b60008581526003602090815260408083206001600160a01b038a1684528252808320939093556005905220546108089084610bcd565b6001600160a01b03808716600081815260056020908152604080832095909555928a168152600483528381208882528352838120828252909252919020805460ff1916600117905561085b908785610d50565b846001600160a01b031684876001600160a01b03167faf206e736916d38b56e2d559931a189bc3119b8fc6d6850bd34e382f09030587866040518082815260200191505060405180910390a450505b600180559392505050565b7f000000000000000000000000000000000000000000000000000000000000000081565b60066020526000908152604090205460ff1681565b6000546001600160a01b03163314610940576040805162461bcd60e51b815260206004820152601060248201526f37b7363c903230b7a7b832b930ba37b960811b604482015290519081900360640190fd5b6001600160a01b03811660009081526006602052604090205460ff166109ad576040805162461bcd60e51b815260206004820152601b60248201527f746f6b656e2073686f756c642062652064697374726962757465640000000000604482015290519081900360640190fd5b6000816001600160a01b03166370a08231306040518263ffffffff1660e01b815260040180826001600160a01b0316815260200191505060206040518083038186803b1580156109fc57600080fd5b505afa158015610a10573d6000803e3d6000fd5b505050506040513d6020811015610a2657600080fd5b5051905060018111610a385750610ac4565b610a506001600160a01b038316836000198401610d50565b6040805163226bf2d160e21b81526001600160a01b03841660048201819052825190926389afcb4492602480820193918290030181600087803b158015610a9657600080fd5b505af1158015610aaa573d6000803e3d6000fd5b505050506040513d6040811015610ac057600080fd5b5050505b50565b6000546001600160a01b03163314610b19576040805162461bcd60e51b815260206004820152601060248201526f37b7363c903230b7a7b832b930ba37b960811b604482015290519081900360640190fd5b6001600160a01b038216600081815260066020908152604091829020805460ff191685151590811790915582519384529083015280517fe589eb036e62c07e307aa4d441bd39c81e8bd86f349eaacb0caa06b1477f7f9a9281900390910190a15050565b6000546001600160a01b031681565b600260209081526000928352604080842090915290825290205481565b60056020526000908152604090205481565b60076020526000908152604090205481565b600082821115610c24576040805162461bcd60e51b815260206004820152601e60248201527f536166654d6174683a207375627472616374696f6e206f766572666c6f770000604482015290519081900360640190fd5b508082035b92915050565b600082820183811015610c89576040805162461bcd60e51b815260206004820152601b60248201527f536166654d6174683a206164646974696f6e206f766572666c6f770000000000604482015290519081900360640190fd5b9392505050565b600082610c9f57506000610c29565b82820282848281610cac57fe5b0414610c895760405162461bcd60e51b815260040180806020018281038252602181526020018061109c6021913960400191505060405180910390fd5b6000808211610d3f576040805162461bcd60e51b815260206004820152601a60248201527f536166654d6174683a206469766973696f6e206279207a65726f000000000000604482015290519081900360640190fd5b818381610d4857fe5b049392505050565b604080516001600160a01b038416602482015260448082018490528251808303909101815260649091019091526020810180516001600160e01b031663a9059cbb60e01b179052610da2908490610da7565b505050565b6060610dfc826040518060400160405280602081526020017f5361666545524332303a206c6f772d6c6576656c2063616c6c206661696c6564815250856001600160a01b0316610e589092919063ffffffff16565b805190915015610da257808060200190516020811015610e1b57600080fd5b5051610da25760405162461bcd60e51b815260040180806020018281038252602a8152602001806110bd602a913960400191505060405180910390fd5b6060610e678484600085610e6f565b949350505050565b606082471015610eb05760405162461bcd60e51b81526004018080602001828103825260268152602001806110766026913960400191505060405180910390fd5b610eb985610fcb565b610f0a576040805162461bcd60e51b815260206004820152601d60248201527f416464726573733a2063616c6c20746f206e6f6e2d636f6e7472616374000000604482015290519081900360640190fd5b60006060866001600160a01b031685876040518082805190602001908083835b60208310610f495780518252601f199092019160209182019101610f2a565b6001836020036101000a03801982511681845116808217855250505050505090500191505060006040518083038185875af1925050503d8060008114610fab576040519150601f19603f3d011682016040523d82523d6000602084013e610fb0565b606091505b5091509150610fc0828286610fd1565b979650505050505050565b3b151590565b60608315610fe0575081610c89565b825115610ff05782518084602001fd5b8160405162461bcd60e51b81526004018080602001828103825283818151815260200191508051906020019080838360005b8381101561103a578181015183820152602001611022565b50505050905090810190601f1680156110675780820380516001836020036101000a031916815260200191505b509250505060405180910390fdfe416464726573733a20696e73756666696369656e742062616c616e636520666f722063616c6c536166654d6174683a206d756c7469706c69636174696f6e206f766572666c6f775361666545524332303a204552433230206f7065726174696f6e20646964206e6f742073756363656564a2646970667358221220dc1bbb8256dc439ef30a4e3a6680e4100609cd244354c882cefa442fc07038da64736f6c634300060c0033",
  "immutableReferences": {
    "15054": [
      {
        "length": 32,
        "start": 779
      },
      {
        "length": 32,
        "start": 1609
      },
      {
        "length": 32,
        "start": 2231
      }
    ]
  },
  "source": "// SPDX-License-Identifier: UNLICENSED\r\npragma solidity 0.6.12;\r\n\r\nimport \"@openzeppelin/contracts/token/ERC20/SafeERC20.sol\";\r\nimport \"@openzeppelin/contracts/token/ERC20/IERC20.sol\";\r\nimport \"@openzeppelin/contracts/utils/ReentrancyGuard.sol\";\r\n\r\nimport \"../../interfaces/IDMMPool.sol\";\r\nimport \"./IKyberDao.sol\";\r\n\r\ncontract DaoOperator {\r\n    address public daoOperator;\r\n\r\n    constructor(address _daoOperator) public {\r\n        require(_daoOperator != address(0), \"daoOperator is 0\");\r\n        daoOperator = _daoOperator;\r\n    }\r\n\r\n    modifier onlyDaoOperator() {\r\n        require(msg.sender == daoOperator, \"only daoOperator\");\r\n        _;\r\n    }\r\n}\r\n\r\ncontract FeeTo is DaoOperator, ReentrancyGuard {\r\n    uint256 internal constant PRECISION = (10**18);\r\n\r\n    using SafeMath for uint256;\r\n    using SafeERC20 for IERC20;\r\n\r\n    IKyberDao public immutable kyberDao;\r\n\r\n    mapping(uint256 => mapping(IERC20 => uint256)) public rewardsPerEpoch;\r\n    mapping(uint256 => mapping(IERC20 => uint256)) public rewardsPaidPerEpoch;\r\n    // hasClaimedReward[staker][epoch]: true/false if the staker has/hasn't claimed the reward for an epoch\r\n    mapping(address => mapping(uint256 => mapping(IERC20 => bool))) public hasClaimedReward;\r\n    mapping(IERC20 => uint256) public reserves; // total balance in the contract that is for reward and platform fee\r\n\r\n    mapping(IERC20 => bool) public allowedToken;\r\n    mapping(IERC20 => uint256) public lastFinalizedEpoch;\r\n\r\n    event FeeDistributed(IERC20 indexed token, uint256 indexed epoch, uint256 rewardWei);\r\n    event RewardPaid(\r\n        address indexed staker,\r\n        uint256 indexed epoch,\r\n        IERC20 indexed token,\r\n        uint256 amount\r\n    );\r\n    event SetAllowedToken(IERC20 token, bool isAllowed);\r\n\r\n    constructor(IKyberDao _kyberDao, address _daoOperator) public DaoOperator(_daoOperator) {\r\n        require(_kyberDao != IKyberDao(0), \"_kyberDao 0\");\r\n\r\n        kyberDao = _kyberDao;\r\n    }\r\n\r\n    function setAllowedToken(IERC20 token, bool isAllowed) external onlyDaoOperator {\r\n        allowedToken[token] = isAllowed;\r\n\r\n        emit SetAllowedToken(token, isAllowed);\r\n    }\r\n\r\n    function finalize(IERC20 token, uint256 epoch) public {\r\n        if (!allowedToken[token]) {\r\n            return;\r\n        }\r\n        uint256 lastEpoch = kyberDao.getCurrentEpochNumber() - 1;\r\n        // epoch mut be last epoch\r\n        if (epoch != lastEpoch) {\r\n            return;\r\n        }\r\n        // epoch must be not finalized\r\n        if (lastEpoch <= lastFinalizedEpoch[token]) {\r\n            return;\r\n        }\r\n        lastFinalizedEpoch[token] = lastEpoch;\r\n        IDMMPool(address(token)).sync();\r\n\r\n        uint256 amount = token.balanceOf(address(this)).sub(reserves[token]);\r\n        if (amount == 0) {\r\n            return;\r\n        }\r\n        rewardsPerEpoch[lastEpoch][token] = rewardsPerEpoch[lastEpoch][token].add(amount);\r\n        reserves[token] = reserves[token].add(amount);\r\n        emit FeeDistributed(token, lastEpoch, amount);\r\n    }\r\n\r\n    function burn(IERC20 token) external onlyDaoOperator {\r\n        require(allowedToken[token], \"token should be distributed\");\r\n        uint256 amount = token.balanceOf(address(this));\r\n        if (amount <= 1) {\r\n            return;\r\n        }\r\n        token.safeTransfer(address(token), amount - 1); // gas saving.\r\n        IDMMPool(address(token)).burn(address(token));\r\n    }\r\n\r\n    /// @notice  WARNING When staker address is a contract,\r\n    ///          it should be able to receive claimed reward in ETH whenever anyone calls this function.\r\n    /// @dev not revert if already claimed or reward percentage is 0\r\n    ///      allow writing a wrapper to claim for multiple epochs\r\n    /// @param staker address.\r\n    /// @param epoch for which epoch the staker is claiming the reward\r\n    function claimStakerReward(\r\n        address staker,\r\n        IERC20 token,\r\n        uint256 epoch\r\n    ) external nonReentrant returns (uint256 amountWei) {\r\n        if (hasClaimedReward[staker][epoch][token]) {\r\n            // staker has already claimed reward for the epoch\r\n            return 0;\r\n        }\r\n\r\n        // the relative part of the reward the staker is entitled to for the epoch.\r\n        // units Precision: 10 ** 18 = 100%\r\n        // if the epoch is current or in the future, kyberDao will return 0 as result\r\n        uint256 percentageInPrecision = kyberDao.getPastEpochRewardPercentageInPrecision(\r\n            staker,\r\n            epoch\r\n        );\r\n        if (percentageInPrecision == 0) {\r\n            return 0; // not revert, in case a wrapper wants to claim reward for multiple epochs\r\n        }\r\n\r\n        finalize(token, epoch);\r\n        require(percentageInPrecision <= PRECISION, \"percentage too high\");\r\n\r\n        // Amount of reward to be sent to staker\r\n        uint256 rewardAllStaker = rewardsPerEpoch[epoch][token];\r\n        amountWei = rewardAllStaker.mul(percentageInPrecision).div(PRECISION);\r\n        {\r\n            uint256 newRewardPaid = rewardsPaidPerEpoch[epoch][token].add(amountWei);\r\n            assert(newRewardPaid <= rewardAllStaker); // redundant check, can't happen\r\n            rewardsPaidPerEpoch[epoch][token] = newRewardPaid;\r\n        }\r\n\r\n        reserves[token] = reserves[token].sub(amountWei);\r\n        hasClaimedReward[staker][epoch][token] = true; // SSTORE\r\n\r\n        // send reward to staker\r\n        token.safeTransfer(staker, amountWei);\r\n\r\n        emit RewardPaid(staker, epoch, token, amountWei);\r\n    }\r\n\r\n    function getCurrentEpochNumber() internal view returns (uint256 epoch) {\r\n        IKyberDao _kyberDao = kyberDao;\r\n        if (_kyberDao == IKyberDao(0)) {\r\n            return 0;\r\n        } else {\r\n            return _kyberDao.getCurrentEpochNumber();\r\n        }\r\n    }\r\n}\r\n",
  "sourcePath": "D:\\Code\\kyber-verified\\contracts\\dmm\\mock\\fee\\FeeTo.sol",
  "compiler": {
    "name": "solc",
    "version": "0.6.12+commit.27d51765.Emscripten.clang"
  },
  "schemaVersion": "3.4.3",
  "updatedAt": "2022-09-20T21:02:09.805Z",
  "devdoc": {
    "kind": "dev",
    "methods": {
      "claimStakerReward(address,address,uint256)": {
        "details": "not revert if already claimed or reward percentage is 0      allow writing a wrapper to claim for multiple epochs",
        "params": {
          "epoch": "for which epoch the staker is claiming the reward",
          "staker": "address."
        }
      }
    },
    "version": 1
  },
  "userdoc": {
    "kind": "user",
    "methods": {
      "claimStakerReward(address,address,uint256)": {
        "notice": "WARNING When staker address is a contract,          it should be able to receive claimed reward in ETH whenever anyone calls this function."
      }
    },
    "version": 1
  }
}