{
  "contractName": "KSFactory",
  "abi": [
    {
      "inputs": [
        {
          "internalType": "address",
          "name": "_feeToSetter",
          "type": "address"
        }
      ],
      "stateMutability": "nonpayable",
      "type": "constructor"
    },
    {
      "anonymous": false,
      "inputs": [
        {
          "indexed": false,
          "internalType": "uint24",
          "name": "feeUnits",
          "type": "uint24"
        }
      ],
      "name": "DisableFeeOption",
      "type": "event"
    },
    {
      "anonymous": false,
      "inputs": [
        {
          "indexed": false,
          "internalType": "uint24",
          "name": "feeUnits",
          "type": "uint24"
        }
      ],
      "name": "EnableFeeOption",
      "type": "event"
    },
    {
      "anonymous": false,
      "inputs": [
        {
          "indexed": true,
          "internalType": "contract IERC20",
          "name": "token0",
          "type": "address"
        },
        {
          "indexed": true,
          "internalType": "contract IERC20",
          "name": "token1",
          "type": "address"
        },
        {
          "indexed": false,
          "internalType": "address",
          "name": "pool",
          "type": "address"
        },
        {
          "indexed": false,
          "internalType": "uint32",
          "name": "ampBps",
          "type": "uint32"
        },
        {
          "indexed": false,
          "internalType": "uint24",
          "name": "feeUnits",
          "type": "uint24"
        },
        {
          "indexed": false,
          "internalType": "uint256",
          "name": "totalPool",
          "type": "uint256"
        }
      ],
      "name": "PoolCreated",
      "type": "event"
    },
    {
      "anonymous": false,
      "inputs": [
        {
          "indexed": false,
          "internalType": "address",
          "name": "feeTo",
          "type": "address"
        },
        {
          "indexed": false,
          "internalType": "uint24",
          "name": "governmentFeeUnits",
          "type": "uint24"
        }
      ],
      "name": "SetFeeConfiguration",
      "type": "event"
    },
    {
      "anonymous": false,
      "inputs": [
        {
          "indexed": false,
          "internalType": "address",
          "name": "feeToSetter",
          "type": "address"
        }
      ],
      "name": "SetFeeToSetter",
      "type": "event"
    },
    {
      "inputs": [
        {
          "internalType": "uint256",
          "name": "",
          "type": "uint256"
        }
      ],
      "name": "allPools",
      "outputs": [
        {
          "internalType": "address",
          "name": "",
          "type": "address"
        }
      ],
      "stateMutability": "view",
      "type": "function"
    },
    {
      "inputs": [
        {
          "internalType": "uint24",
          "name": "",
          "type": "uint24"
        }
      ],
      "name": "feeOptions",
      "outputs": [
        {
          "internalType": "bool",
          "name": "",
          "type": "bool"
        }
      ],
      "stateMutability": "view",
      "type": "function"
    },
    {
      "inputs": [],
      "name": "feeToSetter",
      "outputs": [
        {
          "internalType": "address",
          "name": "",
          "type": "address"
        }
      ],
      "stateMutability": "view",
      "type": "function"
    },
    {
      "inputs": [
        {
          "internalType": "contract IERC20",
          "name": "",
          "type": "address"
        },
        {
          "internalType": "contract IERC20",
          "name": "",
          "type": "address"
        }
      ],
      "name": "getUnamplifiedPool",
      "outputs": [
        {
          "internalType": "address",
          "name": "",
          "type": "address"
        }
      ],
      "stateMutability": "view",
      "type": "function"
    },
    {
      "inputs": [
        {
          "internalType": "contract IERC20",
          "name": "tokenA",
          "type": "address"
        },
        {
          "internalType": "contract IERC20",
          "name": "tokenB",
          "type": "address"
        },
        {
          "internalType": "uint32",
          "name": "ampBps",
          "type": "uint32"
        },
        {
          "internalType": "uint24",
          "name": "feeUnits",
          "type": "uint24"
        }
      ],
      "name": "createPool",
      "outputs": [
        {
          "internalType": "address",
          "name": "pool",
          "type": "address"
        }
      ],
      "stateMutability": "nonpayable",
      "type": "function"
    },
    {
      "inputs": [
        {
          "internalType": "address",
          "name": "_feeTo",
          "type": "address"
        },
        {
          "internalType": "uint24",
          "name": "_governmentFeeUnits",
          "type": "uint24"
        }
      ],
      "name": "setFeeConfiguration",
      "outputs": [],
      "stateMutability": "nonpayable",
      "type": "function"
    },
    {
      "inputs": [
        {
          "internalType": "uint24",
          "name": "_feeUnits",
          "type": "uint24"
        }
      ],
      "name": "enableFeeOption",
      "outputs": [],
      "stateMutability": "nonpayable",
      "type": "function"
    },
    {
      "inputs": [
        {
          "internalType": "uint24",
          "name": "_feeUnits",
          "type": "uint24"
        }
      ],
      "name": "disableFeeOption",
      "outputs": [],
      "stateMutability": "nonpayable",
      "type": "function"
    },
    {
      "inputs": [
        {
          "internalType": "address",
          "name": "_feeToSetter",
          "type": "address"
        }
      ],
      "name": "setFeeToSetter",
      "outputs": [],
      "stateMutability": "nonpayable",
      "type": "function"
    },
    {
      "inputs": [],
      "name": "getFeeConfiguration",
      "outputs": [
        {
          "internalType": "address",
          "name": "_feeTo",
          "type": "address"
        },
        {
          "internalType": "uint24",
          "name": "_governmentFeeUnits",
          "type": "uint24"
        }
      ],
      "stateMutability": "view",
      "type": "function"
    },
    {
      "inputs": [],
      "name": "allPoolsLength",
      "outputs": [
        {
          "internalType": "uint256",
          "name": "",
          "type": "uint256"
        }
      ],
      "stateMutability": "view",
      "type": "function"
    },
    {
      "inputs": [
        {
          "internalType": "contract IERC20",
          "name": "token0",
          "type": "address"
        },
        {
          "internalType": "contract IERC20",
          "name": "token1",
          "type": "address"
        }
      ],
      "name": "getPools",
      "outputs": [
        {
          "internalType": "address[]",
          "name": "_tokenPools",
          "type": "address[]"
        }
      ],
      "stateMutability": "view",
      "type": "function"
    },
    {
      "inputs": [
        {
          "internalType": "contract IERC20",
          "name": "token0",
          "type": "address"
        },
        {
          "internalType": "contract IERC20",
          "name": "token1",
          "type": "address"
        }
      ],
      "name": "getPoolsLength",
      "outputs": [
        {
          "internalType": "uint256",
          "name": "",
          "type": "uint256"
        }
      ],
      "stateMutability": "view",
      "type": "function"
    },
    {
      "inputs": [
        {
          "internalType": "contract IERC20",
          "name": "token0",
          "type": "address"
        },
        {
          "internalType": "contract IERC20",
          "name": "token1",
          "type": "address"
        },
        {
          "internalType": "uint256",
          "name": "index",
          "type": "uint256"
        }
      ],
      "name": "getPoolAtIndex",
      "outputs": [
        {
          "internalType": "address",
          "name": "pool",
          "type": "address"
        }
      ],
      "stateMutability": "view",
      "type": "function"
    },
    {
      "inputs": [
        {
          "internalType": "contract IERC20",
          "name": "token0",
          "type": "address"
        },
        {
          "internalType": "contract IERC20",
          "name": "token1",
          "type": "address"
        },
        {
          "internalType": "address",
          "name": "pool",
          "type": "address"
        }
      ],
      "name": "isPool",
      "outputs": [
        {
          "internalType": "bool",
          "name": "",
          "type": "bool"
        }
      ],
      "stateMutability": "view",
      "type": "function"
    }
  ],
  "bytecode": "0x608060405234801561001057600080fd5b506040516147103803806147108339818101604052602081101561003357600080fd5b5051600180546001600160a01b039092166001600160a01b031990921691909117815560026020527f3a5ea591190eeb3f8fcdced843c78df04ec0dfd42f5510375207515664fa0a75805460ff1990811683179091557fd3604db978f6137b0d18816b77b2ce810487a3af08a922e0b184963be5f3adfc80548216831790557f6d00efa09a7071d855bc5fb7d93921fbf02f2c4e3992802f2a9b08050cf48ea880548216831790557ff0cb9c189ce55a16db93076f814aaef2e240ee0957d5fa108bb0bd1c69d2257c80548216831790557febaffbad3b7fced837389fa2c76ef17bd16e01452243bc801329ba9c392c939f80548216831790556103e86000527fdb4a836d6fe50cd05e5b563ef006787dd20d32e06dcce199b532c90d680b76b3805490911690911790556145a38061016d6000396000f3fe608060405234801561001057600080fd5b50600436106100f55760003560e01c80637890b42b11610097578063d03889e311610066578063d03889e31461034f578063ea4e29af14610385578063eb787f61146103a7578063efde4e64146103df576100f5565b80637890b42b14610290578063a2e74af6146102b2578063ad5cb2e1146102d8578063b67c282314610307576100f5565b8063538633df116100d3578063538633df146101695780635b1dc86f146101a957806365da92891461022757806369891a8c1461025d576100f5565b8063094b7415146100fa5780633d82497e1461011e57806341d1de971461014c575b600080fd5b6101026103e7565b604080516001600160a01b039092168252519081900360200190f35b6101026004803603604081101561013457600080fd5b506001600160a01b03813581169160200135166103f6565b6101026004803603602081101561016257600080fd5b503561041c565b6101976004803603604081101561017f57600080fd5b506001600160a01b0381358116916020013516610443565b60408051918252519081900360200190f35b6101d7600480360360408110156101bf57600080fd5b506001600160a01b038135811691602001351661047c565b60408051602080825283518183015283519192839290830191858101910280838360005b838110156102135781810151838201526020016101fb565b505050509050019250505060405180910390f35b6101026004803603606081101561023d57600080fd5b506001600160a01b03813581169160208101359091169060400135610564565b61028e6004803603604081101561027357600080fd5b5080356001600160a01b0316906020013562ffffff1661059d565b005b61028e600480360360208110156102a657600080fd5b503562ffffff166106c2565b61028e600480360360208110156102c857600080fd5b50356001600160a01b03166107b6565b6102e061085b565b604080516001600160a01b03909316835262ffffff90911660208301528051918290030190f35b6101026004803603608081101561031d57600080fd5b5080356001600160a01b0390811691602081013590911690604081013563ffffffff16906060013562ffffff16610879565b6103716004803603602081101561036557600080fd5b503562ffffff16610cd7565b604080519115158252519081900360200190f35b61028e6004803603602081101561039b57600080fd5b503562ffffff16610cec565b610371600480360360608110156103bd57600080fd5b506001600160a01b038135811691602081013582169160409091013516610ddd565b610197610e0e565b6001546001600160a01b031681565b60046020908152600092835260408084209091529082529020546001600160a01b031681565b6005818154811061042957fe5b6000918252602090912001546001600160a01b0316905081565b6001600160a01b038083166000908152600360209081526040808320938516835292905290812061047390610e14565b90505b92915050565b6001600160a01b0380831660009081526003602090815260408083209385168352929052908120606091906104b090610e14565b90508067ffffffffffffffff811180156104c957600080fd5b506040519080825280602002602001820160405280156104f3578160200160208202803683370190505b50915060005b8181101561055c576001600160a01b0380861660009081526003602090815260408083209388168352929052206105309082610e1f565b83828151811061053c57fe5b6001600160a01b03909216602092830291909101909101526001016104f9565b505092915050565b6001600160a01b03808416600090815260036020908152604080832093861683529290529081206105959083610e1f565b949350505050565b6001546001600160a01b031633146105ee576040805162461bcd60e51b815260206004820152600f60248201526e37b7363c903332b29039b2ba3a32b960891b604482015290519081900360640190fd5b60008162ffffff161180156106095750614e208162ffffff16105b61064c576040805162461bcd60e51b815260206004820152600f60248201526e4b533a20494e56414c49442046454560881b604482015290519081900360640190fd5b6000805462ffffff8316600160a01b810262ffffff60a01b196001600160a01b0387166001600160a01b03199094168417161790925560408051918252602082019290925281517fc6f48ad06415e49a02cc247aca7c2467e245608129c29a80b0377be02a049024929181900390910190a15050565b6001546001600160a01b03163314610713576040805162461bcd60e51b815260206004820152600f60248201526e37b7363c903332b29039b2ba3a32b960891b604482015290519081900360640190fd5b60008162ffffff161161075f576040805162461bcd60e51b815260206004820152600f60248201526e4b533a20494e56414c49442046454560881b604482015290519081900360640190fd5b62ffffff8116600081815260026020908152604091829020805460ff19166001179055815192835290517f1316e0b3dac50398b569b507e7975eefd07f18e3916ef5dd7bdd668733cddfbc9281900390910190a150565b6001546001600160a01b03163314610807576040805162461bcd60e51b815260206004820152600f60248201526e37b7363c903332b29039b2ba3a32b960891b604482015290519081900360640190fd5b600180546001600160a01b0383166001600160a01b0319909116811790915560408051918252517f66330d9620e4f36ed52d5f7b79fa819b71c33037004c3889a3601b06c68da7cc9181900360200190a150565b6000546001600160a01b03811691600160a01b90910462ffffff1690565b6000836001600160a01b0316856001600160a01b031614156108e2576040805162461bcd60e51b815260206004820152601760248201527f4b533a204944454e544943414c5f414444524553534553000000000000000000604482015290519081900360640190fd5b600080856001600160a01b0316876001600160a01b031610610905578587610908565b86865b90925090506001600160a01b03821661095b576040805162461bcd60e51b815260206004820152601060248201526f4b533a205a45524f5f4144445245535360801b604482015290519081900360640190fd5b6127108563ffffffff1610156109aa576040805162461bcd60e51b815260206004820152600f60248201526e4b533a20494e56414c49445f42505360881b604482015290519081900360640190fd5b6127108563ffffffff161415806109e657506001600160a01b038281166000908152600460209081526040808320858516845290915290205416155b610a37576040805162461bcd60e51b815260206004820152601b60248201527f4b533a20554e414d504c49464945445f504f4f4c5f4558495354530000000000604482015290519081900360640190fd5b60008462ffffff16118015610a60575062ffffff841660009081526002602052604090205460ff165b610ab1576040805162461bcd60e51b815260206004820152601960248201527f4b533a204645455f4f5054494f4e5f4e4f545f45584953545300000000000000604482015290519081900360640190fd5b604051610abd90610f20565b604051809103906000f080158015610ad9573d6000803e3d6000fd5b5060408051635df9652f60e11b81526001600160a01b038581166004830152848116602483015263ffffffff8916604483015262ffffff8816606483015291519295509085169163bbf2ca5e9160848082019260009290919082900301818387803b158015610b4757600080fd5b505af1158015610b5b573d6000803e3d6000fd5b5050506001600160a01b038084166000908152600360209081526040808320938616835292905220610b8e915084610e2b565b506001600160a01b038082166000908152600360209081526040808320938616835292905220610bbe9084610e2b565b506127108563ffffffff161415610c23576001600160a01b038083166000818152600460208181526040808420878716855282528084208054968a166001600160a01b0319978816811790915592825280842094845293905291902080549092161790555b6005805460018101825560008290527f036b6384b5eca791c62761152d0c79bb0604c104a5fb6f4eb0703f3154bb3db00180546001600160a01b038087166001600160a01b0319909216821790925591546040805193845263ffffffff8916602085015262ffffff88168482015260608401919091525183821692918516917fb6bce363b712c921bead4bcc977289440eb6172eb89e258e3a25bd49ca806de6919081900360800190a35050949350505050565b60026020526000908152604090205460ff1681565b6001546001600160a01b03163314610d3d576040805162461bcd60e51b815260206004820152600f60248201526e37b7363c903332b29039b2ba3a32b960891b604482015290519081900360640190fd5b60008162ffffff1611610d89576040805162461bcd60e51b815260206004820152600f60248201526e4b533a20494e56414c49442046454560881b604482015290519081900360640190fd5b62ffffff8116600081815260026020908152604091829020805460ff19169055815192835290517fe630bee7664855e5165e83bf39b3e1c147514979dac853b342c0059a1c3da8b29281900390910190a150565b6001600160a01b03808416600090815260036020908152604080832093861683529290529081206105959083610e40565b60055490565b600061047682610e55565b60006104738383610e59565b6000610473836001600160a01b038416610ebe565b6000610473836001600160a01b038416610f08565b5490565b81546000908210610e9c5760405162461bcd60e51b81526004018080602001828103825260228152602001806200454c6022913960400191505060405180910390fd5b826000018281548110610eab57fe5b9060005260206000200154905092915050565b6000610eca8383610f08565b610f0057508154600181810184556000848152602080822090930184905584548482528286019093526040902091909155610476565b506000610476565b60009081526001919091016020526040902054151590565b61361d8062000f2f8339019056fe60806040523480156200001157600080fd5b506040518060400160405280600c81526020016b04b7962657253776170204c560a41b8152506040518060400160405280600581526020016404b532d4c560dc1b815250604051806040016040528060018152602001603160f81b815250828281600390805190602001906200008992919062000142565b5080516200009f90600490602084019062000142565b50506005805460ff19166012179055508251602093840120815191840191909120604080517f8b73c3c69bb8fe3d512ecc4cf759cc79239f7b179b0ffacaa9a75d522b39400f818701528082019390935260608301919091524660808301523060a0808401919091528151808403909101815260c090920190528051920191909120600655506001600855600980546001600160a01b03191633179055620001de565b828054600181600116156101000203166002900490600052602060002090601f016020900481019282601f106200018557805160ff1916838001178555620001b5565b82800160010185558215620001b5579182015b82811115620001b557825182559160200191906001019062000198565b50620001c3929150620001c7565b5090565b5b80821115620001c35760008155600101620001c8565b61342f80620001ee6000396000f3fe608060405234801561001057600080fd5b50600436106101cf5760003560e01c80637ecebe0011610104578063bc25cf77116100a2578063d669402711610071578063d66940271461062b578063dd62ed3e1461066e578063f698da251461069c578063fff6cae9146106a4576101cf565b8063bc25cf77146105a4578063c45a0155146105ca578063d21220a7146105d2578063d505accf146105da576101cf565b8063a457c2d7116100de578063a457c2d7146104fc578063a9059cbb14610528578063ba9a7a5614610554578063bbf2ca5e1461055c576101cf565b80637ecebe001461048f57806389afcb44146104b557806395d89b41146104f4576101cf565b806330adf81f1161017157806349386b161161014b57806349386b161461041a5780636a6278421461043b57806370a08231146104615780637464fc3d14610487576101cf565b806330adf81f146103c8578063313ce567146103d057806339509351146103ee576101cf565b8063095ea7b3116101ad578063095ea7b3146103145780630dfe16811461035457806318160ddd1461037857806323b872dd14610392576101cf565b8063022c0d9f146101d457806306fdde03146102605780630902f1ac146102dd575b600080fd5b61025e600480360360808110156101ea57600080fd5b8135916020810135916001600160a01b036040830135169190810190608081016060820135600160201b81111561022057600080fd5b82018360208201111561023257600080fd5b803590602001918460018302840111600160201b8311171561025357600080fd5b5090925090506106ac565b005b610268610bf2565b6040805160208082528351818301528351919283929083019185019080838360005b838110156102a257818101518382015260200161028a565b50505050905090810190601f1680156102cf5780820380516001836020036101000a031916815260200191505b509250505060405180910390f35b6102e5610f2f565b60405180836001600160701b03168152602001826001600160701b031681526020019250505060405180910390f35b6103406004803603604081101561032a57600080fd5b506001600160a01b038135169060200135610f4a565b604080519115158252519081900360200190f35b61035c610f68565b604080516001600160a01b039092168252519081900360200190f35b610380610f77565b60408051918252519081900360200190f35b610340600480360360608110156103a857600080fd5b506001600160a01b03813581169160208101359091169060400135610f7d565b610380611005565b6103d8611029565b6040805160ff9092168252519081900360200190f35b6103406004803603604081101561040457600080fd5b506001600160a01b038135169060200135611032565b610422611080565b6040805163ffffffff9092168252519081900360200190f35b6103806004803603602081101561045157600080fd5b50356001600160a01b0316611093565b6103806004803603602081101561047757600080fd5b50356001600160a01b031661143a565b610380611459565b610380600480360360208110156104a557600080fd5b50356001600160a01b031661145f565b6104db600480360360208110156104cb57600080fd5b50356001600160a01b0316611471565b6040805192835260208301919091528051918290030190f35b610268611919565b6103406004803603604081101561051257600080fd5b506001600160a01b038135169060200135611bb9565b6103406004803603604081101561053e57600080fd5b506001600160a01b038135169060200135611c21565b610380611c35565b61025e6004803603608081101561057257600080fd5b5080356001600160a01b0390811691602081013590911690604081013563ffffffff16906060013562ffffff16611c3b565b61025e600480360360208110156105ba57600080fd5b50356001600160a01b0316611cf7565b61035c611e6e565b61035c611e7d565b61025e600480360360e08110156105f057600080fd5b506001600160a01b03813581169160208101359091169060408101359060608101359060ff6080820135169060a08101359060c00135611e8c565b610633612090565b604080516001600160701b03968716815294861660208601529285168484015293166060830152608082019290925290519081900360a00190f35b6103806004803603604081101561068457600080fd5b506001600160a01b03813581169160200135166120e4565b61038061210f565b61025e612115565b600260085414156106f2576040805162461bcd60e51b815260206004820152601f6024820152600080516020613206833981519152604482015290519081900360640190fd5b6002600855841515806107055750600084115b610756576040805162461bcd60e51b815260206004820152601e60248201527f4b533a20494e53554646494349454e545f4f55545055545f414d4f554e540000604482015290519081900360640190fd5b60006107606131ba565b61076861235a565b80519193509150871080156107805750806020015186105b6107d1576040805162461bcd60e51b815260206004820152601a60248201527f4b533a20494e53554646494349454e545f4c4951554944495459000000000000604482015290519081900360640190fd5b6107d96131ba565b600a54600b546001600160a01b039182169190811690881682148015906108125750806001600160a01b0316886001600160a01b031614155b610854576040805162461bcd60e51b815260206004820152600e60248201526d4b533a20494e56414c49445f544f60901b604482015290519081900360640190fd5b891561086e5761086e6001600160a01b038316898c6123c1565b8815610888576108886001600160a01b038216898b6123c1565b851561093a57876001600160a01b0316637a646c19338c8c8b8b6040518663ffffffff1660e01b815260040180866001600160a01b03168152602001858152602001848152602001806020018281038252848482818152602001925080828437600081840152601f19601f8201169050808301925050509650505050505050600060405180830381600087803b15801561092157600080fd5b505af1158015610935573d6000803e3d6000fd5b505050505b604080516370a0823160e01b815230600482015290516001600160a01b038416916370a08231916024808301926020929190829003018186803b15801561098057600080fd5b505afa158015610994573d6000803e3d6000fd5b505050506040513d60208110156109aa57600080fd5b50518352604080516370a0823160e01b815230600482015290516001600160a01b038316916370a08231916024808301926020929190829003018186803b1580156109f457600080fd5b505afa158015610a08573d6000803e3d6000fd5b505050506040513d6020811015610a1e57600080fd5b505160208401528415610a7257835183516040860151610a499291610a439190612418565b90612472565b6040840152602080850151908401516060860151610a6c9291610a439190612418565b60608401525b5050815181516000918a900310610a8a576000610a95565b82518251908a900390035b9050600088846020015103836020015111610ab1576000610abf565b888460200151038360200151035b90506000821180610ad05750600081115b610b21576040805162461bcd60e51b815260206004820152601d60248201527f4b533a20494e53554646494349454e545f494e5055545f414d4f554e54000000604482015290519081900360640190fd5b610b79828287610b32578651610b38565b86604001515b88610b47578760200151610b4d565b87606001515b89610b59578751610b5f565b87604001515b8a610b6e578860200151610b74565b88606001515b6124cf565b610b8385846125a7565b600f5460408051848152602081018490528082018d9052606081018c90526080810192909252516001600160a01b038a169133917f606ecd02b3e3b4778f8e97b2e03351de14224efaa5fa64e62200afc9395c24999181900360a00190a3505060016008555050505050505050565b600a54600b54604080516395d89b4160e01b815290516060936001600160a01b0390811693169183916395d89b4191600480820192600092909190829003018186803b158015610c4157600080fd5b505afa158015610c55573d6000803e3d6000fd5b505050506040513d6000823e601f3d908101601f191682016040526020811015610c7e57600080fd5b8101908080516040519392919084600160201b821115610c9d57600080fd5b908301906020820185811115610cb257600080fd5b8251600160201b811182820188101715610ccb57600080fd5b82525081516020918201929091019080838360005b83811015610cf8578181015183820152602001610ce0565b50505050905090810190601f168015610d255780820380516001836020036101000a031916815260200191505b50604052505050816001600160a01b03166395d89b416040518163ffffffff1660e01b815260040160006040518083038186803b158015610d6557600080fd5b505afa158015610d79573d6000803e3d6000fd5b505050506040513d6000823e601f3d908101601f191682016040526020811015610da257600080fd5b8101908080516040519392919084600160201b821115610dc157600080fd5b908301906020820185811115610dd657600080fd5b8251600160201b811182820188101715610def57600080fd5b82525081516020918201929091019080838360005b83811015610e1c578181015183820152602001610e04565b50505050905090810190601f168015610e495780820380516001836020036101000a031916815260200191505b5060405250505060405160200180806c025bcb132b929bbb0b81026281609d1b815250600d0183805190602001908083835b60208310610e9a5780518252601f199092019160209182019101610e7b565b6001836020036101000a03801982511681845116808217855250505050505090500180602d60f81b81525060010182805190602001908083835b60208310610ef35780518252601f199092019160209182019101610ed4565b6001836020036101000a038019825116818451168082178552505050505050905001925050506040516020818303038152906040529250505090565b600c546001600160701b0380821692600160701b9092041690565b6000610f5e610f576126e9565b84846126ed565b5060015b92915050565b600a546001600160a01b031681565b60025490565b6000610f8a8484846127d9565b610ffa84610f966126e9565b610ff5856040518060600160405280602881526020016132f8602891396001600160a01b038a16600090815260016020526040812090610fd46126e9565b6001600160a01b031681526020810191909152604001600020549190612934565b6126ed565b5060015b9392505050565b7f6e71edae12b1b97f4d1f60370fef10105fa2faae0126114a169c64845d6126c981565b60055460ff1690565b6000610f5e61103f6126e9565b84610ff585600160006110506126e9565b6001600160a01b03908116825260208083019390935260409182016000908120918c168152925290205490612418565b600c54600160e01b900463ffffffff1681565b6000600260085414156110db576040805162461bcd60e51b815260206004820152601f6024820152600080516020613206833981519152604482015290519081900360640190fd5b600260085560006110ea6131ba565b6110f261235a565b915091506110fe6131ba565b600a54604080516370a0823160e01b815230600482015290516001600160a01b03909216916370a0823191602480820192602092909190829003018186803b15801561114957600080fd5b505afa15801561115d573d6000803e3d6000fd5b505050506040513d602081101561117357600080fd5b50518152600b54604080516370a0823160e01b815230600482015290516001600160a01b03909216916370a0823191602480820192602092909190829003018186803b1580156111c257600080fd5b505afa1580156111d6573d6000803e3d6000fd5b505050506040513d60208110156111ec57600080fd5b50516020820152815181516000916112049190612472565b905060006112238460200151846020015161247290919063ffffffff16565b9050600061123186866129cb565b9050600061123d610f77565b9050806112d45786156112a757600c54855163ffffffff600160e01b9092048216916127109161126f918490612b9016565b8161127657fe5b0460408701526020860151612710906112989063ffffffff80851690612b9016565b8161129f57fe5b046060870152505b6112bf6103e8610a436112ba8787612b90565b612be9565b97506112cf6000196103e8612c3a565b611387565b8551611311906112e48684612b90565b816112eb57fe5b0487602001516113048487612b9090919063ffffffff16565b8161130b57fe5b04612d2a565b975086156113875760006113258983612418565b905061135482611342838a60400151612b9090919063ffffffff16565b8161134957fe5b048760000151612d40565b6040870152606087015161138090839061136e9084612b90565b8161137557fe5b048760200151612d40565b6060870152505b600088116113c65760405162461bcd60e51b81526004018080602001828103825260218152602001806133b46021913960400191505060405180910390fd5b6113d08989612c3a565b6113da87866125a7565b81156113ee576113ea8786612d50565b600e555b6040805185815260208101859052815133927f4c209b5fc8ad50758f13e2e1088ba56a560dff690a1c6fef26394f4c03821c4f928290030190a250506001600855509395945050505050565b6001600160a01b0381166000908152602081905260409020545b919050565b600e5481565b60076020526000908152604090205481565b600080600260085414156114ba576040805162461bcd60e51b815260206004820152601f6024820152600080516020613206833981519152604482015290519081900360640190fd5b600260085560006114c96131ba565b6114d161235a565b600a54600b54604080516370a0823160e01b815230600482015290519496509294506001600160a01b039182169391169160009184916370a08231916024808301926020929190829003018186803b15801561152c57600080fd5b505afa158015611540573d6000803e3d6000fd5b505050506040513d602081101561155657600080fd5b5051604080516370a0823160e01b815230600482015290519192506000916001600160a01b038516916370a08231916024808301926020929190829003018186803b1580156115a457600080fd5b505afa1580156115b8573d6000803e3d6000fd5b505050506040513d60208110156115ce57600080fd5b5051855190915082108015906115e8575084602001518110155b61162f576040805162461bcd60e51b81526020600482015260136024820152724b533a20554e53594e435f524553455256455360681b604482015290519081900360640190fd5b600061163a3061143a565b9050600061164888886129cb565b90506000611654610f77565b9050806116618487612b90565b8161166857fe5b049a50806116768486612b90565b8161167d57fe5b04995060008b118015611690575060008a115b6116cb5760405162461bcd60e51b81526004018080602001828103825260218152602001806132486021913960400191505060405180910390fd5b6116d53084612d76565b6116e96001600160a01b0388168d8d6123c1565b6116fd6001600160a01b0387168d8c6123c1565b6117056131ba565b604080516370a0823160e01b815230600482015290516001600160a01b038a16916370a08231916024808301926020929190829003018186803b15801561174b57600080fd5b505afa15801561175f573d6000803e3d6000fd5b505050506040513d602081101561177557600080fd5b50518152604080516370a0823160e01b815230600482015290516001600160a01b038916916370a08231916024808301926020929190829003018186803b1580156117bf57600080fd5b505afa1580156117d3573d6000803e3d6000fd5b505050506040513d60208110156117e957600080fd5b505160208201528915611891578851815160009161182f9161180b9086612b90565b8161181257fe5b048b60200151611304868660200151612b9090919063ffffffff16565b905061185e8361184c838d60400151612b9090919063ffffffff16565b8161185357fe5b048360000151612d40565b604083015260608a015161188a9084906118789084612b90565b8161187f57fe5b048360200151612d40565b6060830152505b61189b8a826125a7565b82156118af576118ab8a82612d50565b600e555b8c6001600160a01b0316336001600160a01b03167fdccd412f0b1252819cb1fd330b93224ca42612892bb3f4f789976e6d819364968e8e604051808381526020018281526020019250505060405180910390a3505050505050505050506001600881905550915091565b600a54600b54604080516395d89b4160e01b815290516060936001600160a01b0390811693169183916395d89b4191600480820192600092909190829003018186803b15801561196857600080fd5b505afa15801561197c573d6000803e3d6000fd5b505050506040513d6000823e601f3d908101601f1916820160405260208110156119a557600080fd5b8101908080516040519392919084600160201b8211156119c457600080fd5b9083019060208201858111156119d957600080fd5b8251600160201b8111828201881017156119f257600080fd5b82525081516020918201929091019080838360005b83811015611a1f578181015183820152602001611a07565b50505050905090810190601f168015611a4c5780820380516001836020036101000a031916815260200191505b50604052505050816001600160a01b03166395d89b416040518163ffffffff1660e01b815260040160006040518083038186803b158015611a8c57600080fd5b505afa158015611aa0573d6000803e3d6000fd5b505050506040513d6000823e601f3d908101601f191682016040526020811015611ac957600080fd5b8101908080516040519392919084600160201b821115611ae857600080fd5b908301906020820185811115611afd57600080fd5b8251600160201b811182820188101715611b1657600080fd5b82525081516020918201929091019080838360005b83811015611b43578181015183820152602001611b2b565b50505050905090810190601f168015611b705780820380516001836020036101000a031916815260200191505b50604052505050604051602001808065025a996a628160d51b815250600601838051906020019080838360208310610e9a5780518252601f199092019160209182019101610e7b565b6000610f5e611bc66126e9565b84610ff5856040518060600160405280602581526020016133d56025913960016000611bf06126e9565b6001600160a01b03908116825260208083019390935260409182016000908120918d16815292529020549190612934565b6000610f5e611c2e6126e9565b84846127d9565b6103e881565b6009546001600160a01b03163314611c8a576040805162461bcd60e51b815260206004820152600d60248201526c25a99d102327a92124a22222a760991b604482015290519081900360640190fd5b600a80546001600160a01b038087166001600160a01b031992831617909255600b805492861692909116919091179055600c805463ffffffff8416600160e01b026001600160e01b03909116179055620186a062ffffff8216670de0b6b3a76400000204600f5550505050565b60026008541415611d3d576040805162461bcd60e51b815260206004820152601f6024820152600080516020613206833981519152604482015290519081900360640190fd5b6002600855600c54600a54604080516370a0823160e01b81523060048201529051611dea938593611dd7936001600160701b03909216926001600160a01b03909116916370a08231916024808301926020929190829003018186803b158015611da557600080fd5b505afa158015611db9573d6000803e3d6000fd5b505050506040513d6020811015611dcf57600080fd5b505190612472565b600a546001600160a01b031691906123c1565b600c54600b54604080516370a0823160e01b81523060048201529051611e66938593611e5393600160701b9092046001600160701b0316926001600160a01b03909116916370a08231916024808301926020929190829003018186803b158015611da557600080fd5b600b546001600160a01b031691906123c1565b506001600855565b6009546001600160a01b031681565b600b546001600160a01b031681565b42841015611ed8576040805162461bcd60e51b8152602060048201526014602482015273115490cc8c14195c9b5a5d0e881156141254915160621b604482015290519081900360640190fd5b6006546001600160a01b0380891660008181526007602090815260408083208054600180820190925582517f6e71edae12b1b97f4d1f60370fef10105fa2faae0126114a169c64845d6126c98186015280840196909652958d166060860152608085018c905260a085019590955260c08085018b90528151808603909101815260e08501825280519083012061190160f01b6101008601526101028501969096526101228085019690965280518085039096018652610142840180825286519683019690962095839052610162840180825286905260ff89166101828501526101a284018890526101c28401879052519193926101e280820193601f1981019281900390910190855afa158015611ff3573d6000803e3d6000fd5b5050604051601f1901519150506001600160a01b038116158015906120295750886001600160a01b0316816001600160a01b0316145b61207a576040805162461bcd60e51b815260206004820152601e60248201527f45524332305065726d69743a20494e56414c49445f5349474e41545552450000604482015290519081900360640190fd5b6120858989896126ed565b505050505050505050565b600c54600d546001600160701b0380831692600160701b808204831693838116939190041690600090600160e01b900463ffffffff166127108114156120d7578593508492505b600f549150509091929394565b6001600160a01b03918216600090815260016020908152604080832093909416825291909152205490565b60065481565b6002600854141561215b576040805162461bcd60e51b815260206004820152601f6024820152600080516020613206833981519152604482015290519081900360640190fd5b6002600855600061216a6131ba565b61217261235a565b91509150600061218283836129cb565b905061218c6131ba565b600a54604080516370a0823160e01b815230600482015290516001600160a01b03909216916370a0823191602480820192602092909190829003018186803b1580156121d757600080fd5b505afa1580156121eb573d6000803e3d6000fd5b505050506040513d602081101561220157600080fd5b50518152600b54604080516370a0823160e01b815230600482015290516001600160a01b03909216916370a0823191602480820192602092909190829003018186803b15801561225057600080fd5b505afa158015612264573d6000803e3d6000fd5b505050506040513d602081101561227a57600080fd5b505160208201528315612331576000612291610f77565b845183519192506000916122ce91906122aa9085612b90565b816122b157fe5b048660200151611304858760200151612b9090919063ffffffff16565b90506122fd826122eb838860400151612b9090919063ffffffff16565b816122f257fe5b048460000151612d40565b604084015260608501516123299083906123179084612b90565b8161231e57fe5b048460200151612d40565b606084015250505b61233b84826125a7565b811561234f5761234b8482612d50565b600e555b505060016008555050565b60006123646131ba565b600c546001600160701b038082168352600160701b820416602083015263ffffffff600160e01b9091041661271014801592506123bd57600d546001600160701b038082166040840152600160701b9091041660608201525b9091565b604080516001600160a01b038416602482015260448082018490528251808303909101815260649091019091526020810180516001600160e01b031663a9059cbb60e01b179052612413908490612e72565b505050565b600082820183811015610ffe576040805162461bcd60e51b815260206004820152601b60248201527f536166654d6174683a206164646974696f6e206f766572666c6f770000000000604482015290519081900360640190fd5b6000828211156124c9576040805162461bcd60e51b815260206004820152601e60248201527f536166654d6174683a207375627472616374696f6e206f766572666c6f770000604482015290519081900360640190fd5b50900390565b60006124e383670de0b6b3a7640000612b90565b90506125046124fd600f5489612b9090919063ffffffff16565b8290612472565b9050670de0b6b3a764000081049050600061252783670de0b6b3a7640000612b90565b90506125416124fd600f5489612b9090919063ffffffff16565b670de0b6b3a7640000900490506125588686612b90565b6125628383612b90565b101561259d576040805162461bcd60e51b81526020600482015260056024820152644b533a204b60d81b604482015290519081900360640190fd5b5050505050505050565b80516125b290612f23565b600c80546001600160701b0319166001600160701b039290921691909117905560208101516125e090612f23565b600c600e6101000a8154816001600160701b0302191690836001600160701b03160217905550811561269157805160408201511080159061262957508060200151816060015110155b61262f57fe5b61263c8160400151612f23565b600d80546001600160701b0319166001600160701b0392909216919091179055606081015161266a90612f23565b600d600e6101000a8154816001600160701b0302191690836001600160701b031602179055505b6040808201516060808401518451602080870151865195865290850192909252838501529082015290517f2f9d55abfefdfd4c3a83e00a1b419b3c2fe4b83100c559f0e2213e57f6e0bba99181900360800190a15050565b3390565b6001600160a01b0383166127325760405162461bcd60e51b81526004018080602001828103825260248152602001806133666024913960400191505060405180910390fd5b6001600160a01b0382166127775760405162461bcd60e51b81526004018080602001828103825260228152602001806132696022913960400191505060405180910390fd5b6001600160a01b03808416600081815260016020908152604080832094871680845294825291829020859055815185815291517f8c5be1e5ebec7d5bd14f71427d1e84f3dd0314c0f7b2291e5b200ac8c7c3b9259281900390910190a3505050565b6001600160a01b03831661281e5760405162461bcd60e51b81526004018080602001828103825260258152602001806133416025913960400191505060405180910390fd5b6001600160a01b0382166128635760405162461bcd60e51b81526004018080602001828103825260238152602001806131e36023913960400191505060405180910390fd5b61286e838383612413565b6128ab8160405180606001604052806026815260200161328b602691396001600160a01b0386166000908152602081905260409020549190612934565b6001600160a01b0380851660009081526020819052604080822093909355908416815220546128da9082612418565b6001600160a01b038084166000818152602081815260409182902094909455805185815290519193928716927fddf252ad1be2c89b69c2b068fc378daa952ba7f163c4a11628f55a4df523b3ef92918290030190a3505050565b600081848411156129c35760405162461bcd60e51b81526004018080602001828103825283818151815260200191508051906020019080838360005b83811015612988578181015183820152602001612970565b50505050905090810190601f1680156129b55780820380516001836020036101000a031916815260200191505b509250505060405180910390fd5b505050900390565b6000806000600960009054906101000a90046001600160a01b03166001600160a01b031663ad5cb2e16040518163ffffffff1660e01b8152600401604080518083038186803b158015612a1d57600080fd5b505afa158015612a31573d6000803e3d6000fd5b505050506040513d6040811015612a4757600080fd5b508051602090910151600e546001600160a01b038316151595509193509150600086612a74578551612a7a565b85604001515b9050600087612a8d578660200151612a93565b86606001515b90508515612b79578215612b7457600083830284848281612ab057fe5b041415612ad557612ace612ac76112ba8386612f74565b8590612472565b9150612af2565b612aef612ac76112ba86612ae98988612f74565b90612b90565b91505b6000612b20612b1885612b12888e60200151612b9090919063ffffffff16565b90612f74565b8b5190612418565b90506000612b398862ffffff16612ae986612ae9610f77565b90506000612b4d61c350612ae98588612472565b90506000818381612b5a57fe5b0490508015612b6d57612b6d8b82612c3a565b5050505050505b612b85565b8215612b85576000600e555b505050505092915050565b600082612b9f57506000610f62565b82820282848281612bac57fe5b0414610ffe5760405162461bcd60e51b81526004018080602001828103825260218152602001806132d76021913960400191505060405180910390fd5b60006003821115612c2c575080600160028204015b81811015612c2657809150600281828581612c1557fe5b040181612c1e57fe5b049050612bfe565b50611454565b811561145457506001919050565b6001600160a01b038216612c95576040805162461bcd60e51b815260206004820152601f60248201527f45524332303a206d696e7420746f20746865207a65726f206164647265737300604482015290519081900360640190fd5b612ca160008383612413565b600254612cae9082612418565b6002556001600160a01b038216600090815260208190526040902054612cd49082612418565b6001600160a01b0383166000818152602081815260408083209490945583518581529351929391927fddf252ad1be2c89b69c2b068fc378daa952ba7f163c4a11628f55a4df523b3ef9281900390910190a35050565b6000818310612d395781610ffe565b5090919050565b600081831015612d395781610ffe565b600082612d64576020820151825102610ffe565b50606081015160409091015102919050565b6001600160a01b038216612dbb5760405162461bcd60e51b81526004018080602001828103825260218152602001806133206021913960400191505060405180910390fd5b612dc782600083612413565b612e0481604051806060016040528060228152602001613226602291396001600160a01b0385166000908152602081905260409020549190612934565b6001600160a01b038316600090815260208190526040902055600254612e2a9082612472565b6002556040805182815290516000916001600160a01b038516917fddf252ad1be2c89b69c2b068fc378daa952ba7f163c4a11628f55a4df523b3ef9181900360200190a35050565b6060612ec7826040518060400160405280602081526020017f5361666545524332303a206c6f772d6c6576656c2063616c6c206661696c6564815250856001600160a01b0316612fdb9092919063ffffffff16565b80519091501561241357808060200190516020811015612ee657600080fd5b50516124135760405162461bcd60e51b815260040180806020018281038252602a81526020018061338a602a913960400191505060405180910390fd5b60006001600160701b03821115612f70576040805162461bcd60e51b815260206004820152600c60248201526b4b533a204f564552464c4f5760a01b604482015290519081900360640190fd5b5090565b6000808211612fca576040805162461bcd60e51b815260206004820152601a60248201527f536166654d6174683a206469766973696f6e206279207a65726f000000000000604482015290519081900360640190fd5b818381612fd357fe5b049392505050565b6060612fea8484600085612ff2565b949350505050565b6060824710156130335760405162461bcd60e51b81526004018080602001828103825260268152602001806132b16026913960400191505060405180910390fd5b61303c8561314e565b61308d576040805162461bcd60e51b815260206004820152601d60248201527f416464726573733a2063616c6c20746f206e6f6e2d636f6e7472616374000000604482015290519081900360640190fd5b60006060866001600160a01b031685876040518082805190602001908083835b602083106130cc5780518252601f1990920191602091820191016130ad565b6001836020036101000a03801982511681845116808217855250505050505090500191505060006040518083038185875af1925050503d806000811461312e576040519150601f19603f3d011682016040523d82523d6000602084013e613133565b606091505b5091509150613143828286613154565b979650505050505050565b3b151590565b60608315613163575081610ffe565b8251156131735782518084602001fd5b60405162461bcd60e51b8152602060048201818152845160248401528451859391928392604401919085019080838360008315612988578181015183820152602001612970565b604051806080016040528060008152602001600081526020016000815260200160008152509056fe45524332303a207472616e7366657220746f20746865207a65726f20616464726573735265656e7472616e637947756172643a207265656e7472616e742063616c6c0045524332303a206275726e20616d6f756e7420657863656564732062616c616e63654b533a20494e53554646494349454e545f4c49515549444954595f4255524e454445524332303a20617070726f766520746f20746865207a65726f206164647265737345524332303a207472616e7366657220616d6f756e7420657863656564732062616c616e6365416464726573733a20696e73756666696369656e742062616c616e636520666f722063616c6c536166654d6174683a206d756c7469706c69636174696f6e206f766572666c6f7745524332303a207472616e7366657220616d6f756e74206578636565647320616c6c6f77616e636545524332303a206275726e2066726f6d20746865207a65726f206164647265737345524332303a207472616e736665722066726f6d20746865207a65726f206164647265737345524332303a20617070726f76652066726f6d20746865207a65726f20616464726573735361666545524332303a204552433230206f7065726174696f6e20646964206e6f7420737563636565644b533a20494e53554646494349454e545f4c49515549444954595f4d494e54454445524332303a2064656372656173656420616c6c6f77616e63652062656c6f77207a65726fa26469706673582212201b021096c598fdf33f085b3ba1ebb82e32c1c64d2406c2abe1fb360f456e4fb464736f6c634300060c0033456e756d657261626c655365743a20696e646578206f7574206f6620626f756e6473a2646970667358221220a68dd4890c4f177ad015dc33d4fac962fba4c1e0699aa0e677b9d3582fde0df864736f6c634300060c0033",
  "immutableReferences": {},
  "source": "// SPDX-License-Identifier: BUSL-1.1\r\npragma solidity 0.6.12;\r\n\r\nimport \"@openzeppelin/contracts/utils/EnumerableSet.sol\";\r\n\r\nimport \"./interfaces/IKSFactory.sol\";\r\nimport \"./KSPool.sol\";\r\n\r\ncontract KSFactory is IKSFactory {\r\n    using EnumerableSet for EnumerableSet.AddressSet;\r\n\r\n    uint256 internal constant BPS = 10000;\r\n    uint256 internal constant FEE_UNITS = 100000;\r\n\r\n    address private feeTo;\r\n    uint24 private governmentFeeUnits;\r\n    address public override feeToSetter;\r\n\r\n    /// @dev fee to set for pools\r\n    mapping(uint24 => bool) public feeOptions;\r\n\r\n    mapping(IERC20 => mapping(IERC20 => EnumerableSet.AddressSet)) internal tokenPools;\r\n    mapping(IERC20 => mapping(IERC20 => address)) public override getUnamplifiedPool;\r\n    address[] public override allPools;\r\n\r\n    event PoolCreated(\r\n        IERC20 indexed token0,\r\n        IERC20 indexed token1,\r\n        address pool,\r\n        uint32 ampBps,\r\n        uint24 feeUnits,\r\n        uint256 totalPool\r\n    );\r\n    event SetFeeConfiguration(address feeTo, uint24 governmentFeeUnits);\r\n    event EnableFeeOption(uint24 feeUnits);\r\n    event DisableFeeOption(uint24 feeUnits);\r\n    event SetFeeToSetter(address feeToSetter);\r\n\r\n    modifier onlyFeeSetter() {\r\n        require(msg.sender == feeToSetter, \"only fee setter\");\r\n        _;\r\n    }\r\n\r\n    constructor(address _feeToSetter) public {\r\n        feeToSetter = _feeToSetter;\r\n\r\n        feeOptions[8] = true;\r\n        feeOptions[10] = true;\r\n        feeOptions[50] = true;\r\n        feeOptions[300] = true;\r\n        feeOptions[500] = true;\r\n        feeOptions[1000] = true;\r\n    }\r\n\r\n    function createPool(\r\n        IERC20 tokenA,\r\n        IERC20 tokenB,\r\n        uint32 ampBps,\r\n        uint24 feeUnits\r\n    ) external override returns (address pool) {\r\n        require(tokenA != tokenB, \"KS: IDENTICAL_ADDRESSES\");\r\n        (IERC20 token0, IERC20 token1) = tokenA < tokenB ? (tokenA, tokenB) : (tokenB, tokenA);\r\n        require(address(token0) != address(0), \"KS: ZERO_ADDRESS\");\r\n        require(ampBps >= BPS, \"KS: INVALID_BPS\");\r\n        // only exist 1 unamplified pool of a pool.\r\n        require(\r\n            ampBps != BPS || getUnamplifiedPool[token0][token1] == address(0),\r\n            \"KS: UNAMPLIFIED_POOL_EXISTS\"\r\n        );\r\n        require(feeUnits > 0 && feeOptions[feeUnits], \"KS: FEE_OPTION_NOT_EXISTS\");\r\n        pool = address(new KSPool());\r\n        KSPool(pool).initialize(token0, token1, ampBps, feeUnits);\r\n        // populate mapping in the reverse direction\r\n        tokenPools[token0][token1].add(pool);\r\n        tokenPools[token1][token0].add(pool);\r\n        if (ampBps == BPS) {\r\n            getUnamplifiedPool[token0][token1] = pool;\r\n            getUnamplifiedPool[token1][token0] = pool;\r\n        }\r\n        allPools.push(pool);\r\n\r\n        emit PoolCreated(token0, token1, pool, ampBps, feeUnits, allPools.length);\r\n    }\r\n\r\n    function setFeeConfiguration(address _feeTo, uint24 _governmentFeeUnits)\r\n        external\r\n        override\r\n        onlyFeeSetter\r\n    {\r\n        require(_governmentFeeUnits > 0 && _governmentFeeUnits < 20000, \"KS: INVALID FEE\");\r\n        feeTo = _feeTo;\r\n        governmentFeeUnits = _governmentFeeUnits;\r\n\r\n        emit SetFeeConfiguration(_feeTo, _governmentFeeUnits);\r\n    }\r\n\r\n    function enableFeeOption(uint24 _feeUnits) external override onlyFeeSetter {\r\n        require(_feeUnits > 0, \"KS: INVALID FEE\");\r\n        feeOptions[_feeUnits] = true;\r\n\r\n        emit EnableFeeOption(_feeUnits);\r\n    }\r\n\r\n    function disableFeeOption(uint24 _feeUnits) external override onlyFeeSetter {\r\n        require(_feeUnits > 0, \"KS: INVALID FEE\");\r\n        feeOptions[_feeUnits] = false;\r\n\r\n        emit DisableFeeOption(_feeUnits);\r\n    }\r\n\r\n    function setFeeToSetter(address _feeToSetter) external override onlyFeeSetter {\r\n        feeToSetter = _feeToSetter;\r\n\r\n        emit SetFeeToSetter(_feeToSetter);\r\n    }\r\n\r\n    function getFeeConfiguration()\r\n        external\r\n        override\r\n        view\r\n        returns (address _feeTo, uint24 _governmentFeeUnits)\r\n    {\r\n        _feeTo = feeTo;\r\n        _governmentFeeUnits = governmentFeeUnits;\r\n    }\r\n\r\n    function allPoolsLength() external override view returns (uint256) {\r\n        return allPools.length;\r\n    }\r\n\r\n    function getPools(IERC20 token0, IERC20 token1)\r\n        external\r\n        override\r\n        view\r\n        returns (address[] memory _tokenPools)\r\n    {\r\n        uint256 length = tokenPools[token0][token1].length();\r\n        _tokenPools = new address[](length);\r\n        for (uint256 i = 0; i < length; i++) {\r\n            _tokenPools[i] = tokenPools[token0][token1].at(i);\r\n        }\r\n    }\r\n\r\n    function getPoolsLength(IERC20 token0, IERC20 token1) external view returns (uint256) {\r\n        return tokenPools[token0][token1].length();\r\n    }\r\n\r\n    function getPoolAtIndex(\r\n        IERC20 token0,\r\n        IERC20 token1,\r\n        uint256 index\r\n    ) external view returns (address pool) {\r\n        return tokenPools[token0][token1].at(index);\r\n    }\r\n\r\n    function isPool(\r\n        IERC20 token0,\r\n        IERC20 token1,\r\n        address pool\r\n    ) external override view returns (bool) {\r\n        return tokenPools[token0][token1].contains(pool);\r\n    }\r\n}\r\n",
  "sourcePath": "D:\\Code\\kyber-verified\\contracts\\dmm\\KSFactory.sol",
  "compiler": {
    "name": "solc",
    "version": "0.6.12+commit.27d51765.Emscripten.clang"
  },
  "schemaVersion": "3.4.3",
  "updatedAt": "2022-09-20T21:02:09.634Z",
  "devdoc": {
    "kind": "dev",
    "methods": {},
    "stateVariables": {
      "feeOptions": {
        "details": "fee to set for pools"
      }
    },
    "version": 1
  },
  "userdoc": {
    "kind": "user",
    "methods": {},
    "version": 1
  }
}