{
  "contractName": "KyberStorage",
  "abi": [
    {
      "inputs": [
        {
          "internalType": "address",
          "name": "_admin",
          "type": "address"
        },
        {
          "internalType": "contract IKyberHistory",
          "name": "_kyberNetworkHistory",
          "type": "address"
        },
        {
          "internalType": "contract IKyberHistory",
          "name": "_kyberFeeHandlerHistory",
          "type": "address"
        },
        {
          "internalType": "contract IKyberHistory",
          "name": "_kyberDaoHistory",
          "type": "address"
        },
        {
          "internalType": "contract IKyberHistory",
          "name": "_kyberMatchingEngineHistory",
          "type": "address"
        }
      ],
      "stateMutability": "nonpayable",
      "type": "constructor"
    },
    {
      "anonymous": false,
      "inputs": [
        {
          "indexed": true,
          "internalType": "address",
          "name": "reserve",
          "type": "address"
        },
        {
          "indexed": true,
          "internalType": "bytes32",
          "name": "reserveId",
          "type": "bytes32"
        },
        {
          "indexed": false,
          "internalType": "enum IKyberStorage.ReserveType",
          "name": "reserveType",
          "type": "uint8"
        },
        {
          "indexed": true,
          "internalType": "address",
          "name": "rebateWallet",
          "type": "address"
        }
      ],
      "name": "AddReserveToStorage",
      "type": "event"
    },
    {
      "anonymous": false,
      "inputs": [
        {
          "indexed": false,
          "internalType": "address",
          "name": "newAdmin",
          "type": "address"
        },
        {
          "indexed": false,
          "internalType": "address",
          "name": "previousAdmin",
          "type": "address"
        }
      ],
      "name": "AdminClaimed",
      "type": "event"
    },
    {
      "anonymous": false,
      "inputs": [
        {
          "indexed": false,
          "internalType": "address",
          "name": "newAlerter",
          "type": "address"
        },
        {
          "indexed": false,
          "internalType": "bool",
          "name": "isAdd",
          "type": "bool"
        }
      ],
      "name": "AlerterAdded",
      "type": "event"
    },
    {
      "anonymous": false,
      "inputs": [
        {
          "indexed": false,
          "internalType": "contract IKyberNetwork",
          "name": "newKyberNetwork",
          "type": "address"
        }
      ],
      "name": "KyberNetworkUpdated",
      "type": "event"
    },
    {
      "anonymous": false,
      "inputs": [
        {
          "indexed": true,
          "internalType": "bytes32",
          "name": "reserveId",
          "type": "bytes32"
        },
        {
          "indexed": false,
          "internalType": "address",
          "name": "reserve",
          "type": "address"
        },
        {
          "indexed": true,
          "internalType": "contract IERC20",
          "name": "src",
          "type": "address"
        },
        {
          "indexed": true,
          "internalType": "contract IERC20",
          "name": "dest",
          "type": "address"
        },
        {
          "indexed": false,
          "internalType": "bool",
          "name": "add",
          "type": "bool"
        }
      ],
      "name": "ListReservePairs",
      "type": "event"
    },
    {
      "anonymous": false,
      "inputs": [
        {
          "indexed": false,
          "internalType": "address",
          "name": "newOperator",
          "type": "address"
        },
        {
          "indexed": false,
          "internalType": "bool",
          "name": "isAdd",
          "type": "bool"
        }
      ],
      "name": "OperatorAdded",
      "type": "event"
    },
    {
      "anonymous": false,
      "inputs": [
        {
          "indexed": true,
          "internalType": "address",
          "name": "reserve",
          "type": "address"
        },
        {
          "indexed": true,
          "internalType": "bytes32",
          "name": "reserveId",
          "type": "bytes32"
        }
      ],
      "name": "RemoveReserveFromStorage",
      "type": "event"
    },
    {
      "anonymous": false,
      "inputs": [
        {
          "indexed": true,
          "internalType": "bytes32",
          "name": "reserveId",
          "type": "bytes32"
        },
        {
          "indexed": true,
          "internalType": "address",
          "name": "rebateWallet",
          "type": "address"
        }
      ],
      "name": "ReserveRebateWalletSet",
      "type": "event"
    },
    {
      "anonymous": false,
      "inputs": [
        {
          "indexed": false,
          "internalType": "address",
          "name": "pendingAdmin",
          "type": "address"
        }
      ],
      "name": "TransferAdminPending",
      "type": "event"
    },
    {
      "inputs": [
        {
          "internalType": "address",
          "name": "newAlerter",
          "type": "address"
        }
      ],
      "name": "addAlerter",
      "outputs": [],
      "stateMutability": "nonpayable",
      "type": "function"
    },
    {
      "inputs": [
        {
          "internalType": "address",
          "name": "newOperator",
          "type": "address"
        }
      ],
      "name": "addOperator",
      "outputs": [],
      "stateMutability": "nonpayable",
      "type": "function"
    },
    {
      "inputs": [],
      "name": "admin",
      "outputs": [
        {
          "internalType": "address",
          "name": "",
          "type": "address"
        }
      ],
      "stateMutability": "view",
      "type": "function"
    },
    {
      "inputs": [],
      "name": "claimAdmin",
      "outputs": [],
      "stateMutability": "nonpayable",
      "type": "function"
    },
    {
      "inputs": [],
      "name": "getAlerters",
      "outputs": [
        {
          "internalType": "address[]",
          "name": "",
          "type": "address[]"
        }
      ],
      "stateMutability": "view",
      "type": "function"
    },
    {
      "inputs": [],
      "name": "getOperators",
      "outputs": [
        {
          "internalType": "address[]",
          "name": "",
          "type": "address[]"
        }
      ],
      "stateMutability": "view",
      "type": "function"
    },
    {
      "inputs": [],
      "name": "kyberDaoHistory",
      "outputs": [
        {
          "internalType": "contract IKyberHistory",
          "name": "",
          "type": "address"
        }
      ],
      "stateMutability": "view",
      "type": "function"
    },
    {
      "inputs": [],
      "name": "kyberFeeHandlerHistory",
      "outputs": [
        {
          "internalType": "contract IKyberHistory",
          "name": "",
          "type": "address"
        }
      ],
      "stateMutability": "view",
      "type": "function"
    },
    {
      "inputs": [],
      "name": "kyberMatchingEngineHistory",
      "outputs": [
        {
          "internalType": "contract IKyberHistory",
          "name": "",
          "type": "address"
        }
      ],
      "stateMutability": "view",
      "type": "function"
    },
    {
      "inputs": [],
      "name": "kyberNetwork",
      "outputs": [
        {
          "internalType": "contract IKyberNetwork",
          "name": "",
          "type": "address"
        }
      ],
      "stateMutability": "view",
      "type": "function"
    },
    {
      "inputs": [],
      "name": "kyberNetworkHistory",
      "outputs": [
        {
          "internalType": "contract IKyberHistory",
          "name": "",
          "type": "address"
        }
      ],
      "stateMutability": "view",
      "type": "function"
    },
    {
      "inputs": [],
      "name": "pendingAdmin",
      "outputs": [
        {
          "internalType": "address",
          "name": "",
          "type": "address"
        }
      ],
      "stateMutability": "view",
      "type": "function"
    },
    {
      "inputs": [
        {
          "internalType": "address",
          "name": "alerter",
          "type": "address"
        }
      ],
      "name": "removeAlerter",
      "outputs": [],
      "stateMutability": "nonpayable",
      "type": "function"
    },
    {
      "inputs": [
        {
          "internalType": "address",
          "name": "operator",
          "type": "address"
        }
      ],
      "name": "removeOperator",
      "outputs": [],
      "stateMutability": "nonpayable",
      "type": "function"
    },
    {
      "inputs": [
        {
          "internalType": "address",
          "name": "newAdmin",
          "type": "address"
        }
      ],
      "name": "transferAdmin",
      "outputs": [],
      "stateMutability": "nonpayable",
      "type": "function"
    },
    {
      "inputs": [
        {
          "internalType": "address",
          "name": "newAdmin",
          "type": "address"
        }
      ],
      "name": "transferAdminQuickly",
      "outputs": [],
      "stateMutability": "nonpayable",
      "type": "function"
    },
    {
      "inputs": [
        {
          "internalType": "contract IKyberNetwork",
          "name": "_kyberNetwork",
          "type": "address"
        }
      ],
      "name": "setNetworkContract",
      "outputs": [],
      "stateMutability": "nonpayable",
      "type": "function"
    },
    {
      "inputs": [
        {
          "internalType": "bytes32",
          "name": "reserveId",
          "type": "bytes32"
        },
        {
          "internalType": "address",
          "name": "rebateWallet",
          "type": "address"
        }
      ],
      "name": "setRebateWallet",
      "outputs": [],
      "stateMutability": "nonpayable",
      "type": "function"
    },
    {
      "inputs": [
        {
          "internalType": "address",
          "name": "_kyberFeeHandler",
          "type": "address"
        },
        {
          "internalType": "address",
          "name": "_kyberMatchingEngine",
          "type": "address"
        }
      ],
      "name": "setContracts",
      "outputs": [],
      "stateMutability": "nonpayable",
      "type": "function"
    },
    {
      "inputs": [
        {
          "internalType": "address",
          "name": "_kyberDao",
          "type": "address"
        }
      ],
      "name": "setKyberDaoContract",
      "outputs": [],
      "stateMutability": "nonpayable",
      "type": "function"
    },
    {
      "inputs": [
        {
          "internalType": "address",
          "name": "reserve",
          "type": "address"
        },
        {
          "internalType": "bytes32",
          "name": "reserveId",
          "type": "bytes32"
        },
        {
          "internalType": "enum IKyberStorage.ReserveType",
          "name": "resType",
          "type": "uint8"
        },
        {
          "internalType": "address payable",
          "name": "rebateWallet",
          "type": "address"
        }
      ],
      "name": "addReserve",
      "outputs": [],
      "stateMutability": "nonpayable",
      "type": "function"
    },
    {
      "inputs": [
        {
          "internalType": "bytes32",
          "name": "reserveId",
          "type": "bytes32"
        },
        {
          "internalType": "uint256",
          "name": "startIndex",
          "type": "uint256"
        }
      ],
      "name": "removeReserve",
      "outputs": [],
      "stateMutability": "nonpayable",
      "type": "function"
    },
    {
      "inputs": [
        {
          "internalType": "bytes32",
          "name": "reserveId",
          "type": "bytes32"
        },
        {
          "internalType": "contract IERC20",
          "name": "token",
          "type": "address"
        },
        {
          "internalType": "bool",
          "name": "ethToToken",
          "type": "bool"
        },
        {
          "internalType": "bool",
          "name": "tokenToEth",
          "type": "bool"
        },
        {
          "internalType": "bool",
          "name": "add",
          "type": "bool"
        }
      ],
      "name": "listPairForReserve",
      "outputs": [],
      "stateMutability": "nonpayable",
      "type": "function"
    },
    {
      "inputs": [
        {
          "internalType": "address",
          "name": "kyberProxy",
          "type": "address"
        },
        {
          "internalType": "uint256",
          "name": "maxApprovedProxies",
          "type": "uint256"
        }
      ],
      "name": "addKyberProxy",
      "outputs": [],
      "stateMutability": "nonpayable",
      "type": "function"
    },
    {
      "inputs": [
        {
          "internalType": "address",
          "name": "kyberProxy",
          "type": "address"
        }
      ],
      "name": "removeKyberProxy",
      "outputs": [],
      "stateMutability": "nonpayable",
      "type": "function"
    },
    {
      "inputs": [
        {
          "internalType": "bool",
          "name": "fpr",
          "type": "bool"
        },
        {
          "internalType": "bool",
          "name": "apr",
          "type": "bool"
        },
        {
          "internalType": "bool",
          "name": "bridge",
          "type": "bool"
        },
        {
          "internalType": "bool",
          "name": "utility",
          "type": "bool"
        },
        {
          "internalType": "bool",
          "name": "custom",
          "type": "bool"
        },
        {
          "internalType": "bool",
          "name": "orderbook",
          "type": "bool"
        }
      ],
      "name": "setFeeAccountedPerReserveType",
      "outputs": [],
      "stateMutability": "nonpayable",
      "type": "function"
    },
    {
      "inputs": [
        {
          "internalType": "bool",
          "name": "fpr",
          "type": "bool"
        },
        {
          "internalType": "bool",
          "name": "apr",
          "type": "bool"
        },
        {
          "internalType": "bool",
          "name": "bridge",
          "type": "bool"
        },
        {
          "internalType": "bool",
          "name": "utility",
          "type": "bool"
        },
        {
          "internalType": "bool",
          "name": "custom",
          "type": "bool"
        },
        {
          "internalType": "bool",
          "name": "orderbook",
          "type": "bool"
        }
      ],
      "name": "setEntitledRebatePerReserveType",
      "outputs": [],
      "stateMutability": "nonpayable",
      "type": "function"
    },
    {
      "inputs": [],
      "name": "getReserves",
      "outputs": [
        {
          "internalType": "contract IKyberReserve[]",
          "name": "",
          "type": "address[]"
        }
      ],
      "stateMutability": "view",
      "type": "function"
    },
    {
      "inputs": [
        {
          "internalType": "enum IKyberStorage.ReserveType",
          "name": "resType",
          "type": "uint8"
        }
      ],
      "name": "getReservesPerType",
      "outputs": [
        {
          "internalType": "bytes32[]",
          "name": "",
          "type": "bytes32[]"
        }
      ],
      "stateMutability": "view",
      "type": "function"
    },
    {
      "inputs": [
        {
          "internalType": "address",
          "name": "reserve",
          "type": "address"
        }
      ],
      "name": "getReserveId",
      "outputs": [
        {
          "internalType": "bytes32",
          "name": "",
          "type": "bytes32"
        }
      ],
      "stateMutability": "view",
      "type": "function"
    },
    {
      "inputs": [
        {
          "internalType": "address[]",
          "name": "reserveAddresses",
          "type": "address[]"
        }
      ],
      "name": "getReserveIdsFromAddresses",
      "outputs": [
        {
          "internalType": "bytes32[]",
          "name": "reserveIds",
          "type": "bytes32[]"
        }
      ],
      "stateMutability": "view",
      "type": "function"
    },
    {
      "inputs": [
        {
          "internalType": "bytes32[]",
          "name": "reserveIds",
          "type": "bytes32[]"
        }
      ],
      "name": "getReserveAddressesFromIds",
      "outputs": [
        {
          "internalType": "address[]",
          "name": "reserveAddresses",
          "type": "address[]"
        }
      ],
      "stateMutability": "view",
      "type": "function"
    },
    {
      "inputs": [
        {
          "internalType": "bytes32[]",
          "name": "reserveIds",
          "type": "bytes32[]"
        }
      ],
      "name": "getRebateWalletsFromIds",
      "outputs": [
        {
          "internalType": "address[]",
          "name": "rebateWallets",
          "type": "address[]"
        }
      ],
      "stateMutability": "view",
      "type": "function"
    },
    {
      "inputs": [
        {
          "internalType": "contract IERC20",
          "name": "token",
          "type": "address"
        }
      ],
      "name": "getReserveIdsPerTokenSrc",
      "outputs": [
        {
          "internalType": "bytes32[]",
          "name": "reserveIds",
          "type": "bytes32[]"
        }
      ],
      "stateMutability": "view",
      "type": "function"
    },
    {
      "inputs": [
        {
          "internalType": "contract IERC20",
          "name": "token",
          "type": "address"
        },
        {
          "internalType": "uint256",
          "name": "startIndex",
          "type": "uint256"
        },
        {
          "internalType": "uint256",
          "name": "endIndex",
          "type": "uint256"
        }
      ],
      "name": "getReserveAddressesPerTokenSrc",
      "outputs": [
        {
          "internalType": "address[]",
          "name": "reserveAddresses",
          "type": "address[]"
        }
      ],
      "stateMutability": "view",
      "type": "function"
    },
    {
      "inputs": [
        {
          "internalType": "contract IERC20",
          "name": "token",
          "type": "address"
        }
      ],
      "name": "getReserveIdsPerTokenDest",
      "outputs": [
        {
          "internalType": "bytes32[]",
          "name": "reserveIds",
          "type": "bytes32[]"
        }
      ],
      "stateMutability": "view",
      "type": "function"
    },
    {
      "inputs": [
        {
          "internalType": "bytes32",
          "name": "reserveId",
          "type": "bytes32"
        }
      ],
      "name": "getReserveAddressesByReserveId",
      "outputs": [
        {
          "internalType": "address[]",
          "name": "reserveAddresses",
          "type": "address[]"
        }
      ],
      "stateMutability": "view",
      "type": "function"
    },
    {
      "inputs": [],
      "name": "getContracts",
      "outputs": [
        {
          "internalType": "address[]",
          "name": "kyberDaoAddresses",
          "type": "address[]"
        },
        {
          "internalType": "address[]",
          "name": "kyberFeeHandlerAddresses",
          "type": "address[]"
        },
        {
          "internalType": "address[]",
          "name": "kyberMatchingEngineAddresses",
          "type": "address[]"
        },
        {
          "internalType": "address[]",
          "name": "kyberNetworkAddresses",
          "type": "address[]"
        }
      ],
      "stateMutability": "view",
      "type": "function"
    },
    {
      "inputs": [],
      "name": "getKyberProxies",
      "outputs": [
        {
          "internalType": "contract IKyberNetworkProxy[]",
          "name": "",
          "type": "address[]"
        }
      ],
      "stateMutability": "view",
      "type": "function"
    },
    {
      "inputs": [],
      "name": "isKyberProxyAdded",
      "outputs": [
        {
          "internalType": "bool",
          "name": "",
          "type": "bool"
        }
      ],
      "stateMutability": "view",
      "type": "function"
    },
    {
      "inputs": [
        {
          "internalType": "bytes32",
          "name": "reserveId",
          "type": "bytes32"
        }
      ],
      "name": "getReserveDetailsById",
      "outputs": [
        {
          "internalType": "address",
          "name": "reserveAddress",
          "type": "address"
        },
        {
          "internalType": "address",
          "name": "rebateWallet",
          "type": "address"
        },
        {
          "internalType": "enum IKyberStorage.ReserveType",
          "name": "resType",
          "type": "uint8"
        },
        {
          "internalType": "bool",
          "name": "isFeeAccountedFlag",
          "type": "bool"
        },
        {
          "internalType": "bool",
          "name": "isEntitledRebateFlag",
          "type": "bool"
        }
      ],
      "stateMutability": "view",
      "type": "function"
    },
    {
      "inputs": [
        {
          "internalType": "address",
          "name": "reserve",
          "type": "address"
        }
      ],
      "name": "getReserveDetailsByAddress",
      "outputs": [
        {
          "internalType": "bytes32",
          "name": "reserveId",
          "type": "bytes32"
        },
        {
          "internalType": "address",
          "name": "rebateWallet",
          "type": "address"
        },
        {
          "internalType": "enum IKyberStorage.ReserveType",
          "name": "resType",
          "type": "uint8"
        },
        {
          "internalType": "bool",
          "name": "isFeeAccountedFlag",
          "type": "bool"
        },
        {
          "internalType": "bool",
          "name": "isEntitledRebateFlag",
          "type": "bool"
        }
      ],
      "stateMutability": "view",
      "type": "function"
    },
    {
      "inputs": [
        {
          "internalType": "bytes32",
          "name": "reserveId",
          "type": "bytes32"
        }
      ],
      "name": "getListedTokensByReserveId",
      "outputs": [
        {
          "internalType": "contract IERC20[]",
          "name": "srcTokens",
          "type": "address[]"
        },
        {
          "internalType": "contract IERC20[]",
          "name": "destTokens",
          "type": "address[]"
        }
      ],
      "stateMutability": "view",
      "type": "function"
    },
    {
      "inputs": [
        {
          "internalType": "bytes32[]",
          "name": "reserveIds",
          "type": "bytes32[]"
        }
      ],
      "name": "getFeeAccountedData",
      "outputs": [
        {
          "internalType": "bool[]",
          "name": "feeAccountedArr",
          "type": "bool[]"
        }
      ],
      "stateMutability": "view",
      "type": "function"
    },
    {
      "inputs": [
        {
          "internalType": "bytes32[]",
          "name": "reserveIds",
          "type": "bytes32[]"
        }
      ],
      "name": "getEntitledRebateData",
      "outputs": [
        {
          "internalType": "bool[]",
          "name": "entitledRebateArr",
          "type": "bool[]"
        }
      ],
      "stateMutability": "view",
      "type": "function"
    },
    {
      "inputs": [
        {
          "internalType": "bytes32[]",
          "name": "reserveIds",
          "type": "bytes32[]"
        },
        {
          "internalType": "contract IERC20",
          "name": "src",
          "type": "address"
        },
        {
          "internalType": "contract IERC20",
          "name": "dest",
          "type": "address"
        }
      ],
      "name": "getReservesData",
      "outputs": [
        {
          "internalType": "bool",
          "name": "areAllReservesListed",
          "type": "bool"
        },
        {
          "internalType": "bool[]",
          "name": "feeAccountedArr",
          "type": "bool[]"
        },
        {
          "internalType": "bool[]",
          "name": "entitledRebateArr",
          "type": "bool[]"
        },
        {
          "internalType": "contract IKyberReserve[]",
          "name": "reserveAddresses",
          "type": "address[]"
        }
      ],
      "stateMutability": "view",
      "type": "function"
    }
  ],
  "bytecode": "0x608060405263ffffffff60165563ffffffff6017553480156200002157600080fd5b506040516200449938038062004499833981810160405260a08110156200004757600080fd5b50805160208201516040830151606084015160809094015192939192909190846001600160a01b038116620000ad576040805162461bcd60e51b8152602060048201526007602482015266061646d696e20360cc1b604482015290519081900360640190fd5b600080546001600160a01b0319166001600160a01b0392831617905584166200011d576040805162461bcd60e51b815260206004820152601560248201527f6b796265724e6574776f726b486973746f727920300000000000000000000000604482015290519081900360640190fd5b6001600160a01b03831662000179576040805162461bcd60e51b815260206004820152601860248201527f6b7962657246656548616e646c6572486973746f727920300000000000000000604482015290519081900360640190fd5b6001600160a01b038216620001c9576040805162461bcd60e51b815260206004820152601160248201527006b7962657244616f486973746f7279203607c1b604482015290519081900360640190fd5b6001600160a01b03811662000225576040805162461bcd60e51b815260206004820152601c60248201527f6b796265724d61746368696e67456e67696e65486973746f7279203000000000604482015290519081900360640190fd5b600780546001600160a01b039586166001600160a01b03199182161790915560088054948616948216949094179093556009805492851692841692909217909155600a80549190931691161790555061421580620002846000396000f3fe608060405234801561001057600080fd5b506004361061028a5760003560e01c806375829def1161015c578063b6cb51c2116100ce578063d95c273011610087578063d95c273014610c8e578063e0fb275614610cba578063e4b80c4d14610d28578063f16e429b14610d45578063f851a44014610d90578063fa006d9314610d985761028a565b8063b6cb51c214610a85578063b78b842d14610a8d578063c3a2a93a14610a95578063d589158214610bc0578063d84c19c714610bf2578063d8952a4914610c605761028a565b80639870d7fe116101205780639870d7fe146109cf578063a03bd93a146109f5578063a59b60e414610a15578063aa1da48a14610a3b578063aaaaa6c414610a57578063ac8a584a14610a5f5761028a565b806375829def1461094d57806377f50f97146109735780637acc86781461097b5780637c423f54146109a1578063803d58c8146109a95761028a565b806333825653116102005780634821ccfc116101b95780634821ccfc1461074557806350dceb741461074d578063599b9348146108b557806365a04d6d146108db5780636f795fa31461091f5780636ff277de146109275761028a565b806333825653146105515780633d3dc52c146105bf5780633d9036b4146105e55780633dfce8951461069b578063408ee7fe146106d857806345bd576c146106fe5761028a565b8063106e9a4b11610252578063106e9a4b1461041557806313d47a8d1461044d5780631dd4c3ef146104945780632185340b14610502578063267822471461052557806327a099d8146105495761028a565b806301a12fd31461028f578063073c4c65146102b757806307f442e1146103235780630902f1ac1461034f5780630a3cf98e146103a7575b600080fd5b6102b5600480360360208110156102a557600080fd5b50356001600160a01b0316610da0565b005b6102d4600480360360208110156102cd57600080fd5b5035610f4c565b604080516001600160a01b038088168252861660208201529081018460078111156102fb57fe5b60ff168152921515602084015250151560408083019190915251908190036060019350915050f35b6102b56004803603604081101561033957600080fd5b506001600160a01b038135169060200135611041565b61035761113c565b60408051602080825283518183015283519192839290830191858101910280838360005b8381101561039357818101518382015260200161037b565b505050509050019250505060405180910390f35b610357600480360360208110156103bd57600080fd5b810190602081018135600160201b8111156103d757600080fd5b8201836020820111156103e957600080fd5b803590602001918460208302840111600160201b8311171561040a57600080fd5b50909250905061119e565b61043b6004803603602081101561042b57600080fd5b50356001600160a01b031661125c565b60408051918252519081900360200190f35b6102b5600480360360c081101561046357600080fd5b508035151590602081013515159060408101351515906060810135151590608081013515159060a001351515611277565b610357600480360360208110156104aa57600080fd5b810190602081018135600160201b8111156104c457600080fd5b8201836020820111156104d657600080fd5b803590602001918460208302840111600160201b831117156104f757600080fd5b50909250905061151d565b6102b56004803603604081101561051857600080fd5b50803590602001356115cd565b61052d6119ec565b604080516001600160a01b039092168252519081900360200190f35b6103576119fb565b6103576004803603602081101561056757600080fd5b810190602081018135600160201b81111561058157600080fd5b82018360208201111561059357600080fd5b803590602001918460208302840111600160201b831117156105b457600080fd5b509092509050611a5b565b610357600480360360208110156105d557600080fd5b50356001600160a01b0316611b0c565b610602600480360360208110156105fb57600080fd5b5035611b78565b604051808060200180602001838103835285818151815260200191508051906020019060200280838360005b8381101561064657818101518382015260200161062e565b50505050905001838103825284818151815260200191508051906020019060200280838360005b8381101561068557818101518382015260200161066d565b5050505090500194505050505060405180910390f35b6102b5600480360360808110156106b157600080fd5b506001600160a01b03813581169160208101359160ff604083013516916060013516611c5c565b6102b5600480360360208110156106ee57600080fd5b50356001600160a01b03166120f8565b6102b5600480360360c081101561071457600080fd5b508035151590602081013515159060408101351515906060810135151590608081013515159060a00135151561224f565b61052d6122a0565b6107cc6004803603606081101561076357600080fd5b810190602081018135600160201b81111561077d57600080fd5b82018360208201111561078f57600080fd5b803590602001918460208302840111600160201b831117156107b057600080fd5b91935091506001600160a01b03813581169160200135166122af565b6040518085151515158152602001806020018060200180602001848103845287818151815260200191508051906020019060200280838360005b8381101561081e578181015183820152602001610806565b50505050905001848103835286818151815260200191508051906020019060200280838360005b8381101561085d578181015183820152602001610845565b50505050905001848103825285818151815260200191508051906020019060200280838360005b8381101561089c578181015183820152602001610884565b5050505090500197505050505050505060405180910390f35b6102b5600480360360208110156108cb57600080fd5b50356001600160a01b031661253b565b6102b5600480360360a08110156108f157600080fd5b508035906001600160a01b036020820135169060408101351515906060810135151590608001351515612654565b61052d612889565b6102b56004803603602081101561093d57600080fd5b50356001600160a01b0316612898565b6102b56004803603602081101561096357600080fd5b50356001600160a01b0316612909565b6102b56129b8565b6102b56004803603602081101561099157600080fd5b50356001600160a01b0316612a78565b610357612b6b565b6102b5600480360360208110156109bf57600080fd5b50356001600160a01b0316612bcb565b6102b5600480360360208110156109e557600080fd5b50356001600160a01b0316612d0f565b61035760048036036020811015610a0b57600080fd5b503560ff16612e68565b61035760048036036020811015610a2b57600080fd5b50356001600160a01b0316612ee7565b610a43612f51565b604080519115158252519081900360200190f35b61052d612f59565b6102b560048036036020811015610a7557600080fd5b50356001600160a01b0316612f68565b61052d613111565b61052d613120565b610a9d61312f565b6040518080602001806020018060200180602001858103855289818151815260200191508051906020019060200280838360005b83811015610ae9578181015183820152602001610ad1565b50505050905001858103845288818151815260200191508051906020019060200280838360005b83811015610b28578181015183820152602001610b10565b50505050905001858103835287818151815260200191508051906020019060200280838360005b83811015610b67578181015183820152602001610b4f565b50505050905001858103825286818151815260200191508051906020019060200280838360005b83811015610ba6578181015183820152602001610b8e565b505050509050019850505050505050505060405180910390f35b61035760048036036060811015610bd657600080fd5b506001600160a01b038135169060208101359060400135613597565b61035760048036036020811015610c0857600080fd5b810190602081018135600160201b811115610c2257600080fd5b820183602082011115610c3457600080fd5b803590602001918460208302840111600160201b83111715610c5557600080fd5b509092509050613724565b6102b560048036036040811015610c7657600080fd5b506001600160a01b03813581169160200135166137f0565b6102b560048036036040811015610ca457600080fd5b50803590602001356001600160a01b0316613962565b61035760048036036020811015610cd057600080fd5b810190602081018135600160201b811115610cea57600080fd5b820183602082011115610cfc57600080fd5b803590602001918460208302840111600160201b83111715610d1d57600080fd5b509092509050613b23565b61035760048036036020811015610d3e57600080fd5b5035613bcb565b610d6b60048036036020811015610d5b57600080fd5b50356001600160a01b0316613c36565b604080518681526001600160a01b03861660208201529081018460078111156102fb57fe5b61052d613ca2565b610357613cb1565b610da8613d11565b6001600160a01b03811660009081526003602052604090205460ff16610e03576040805162461bcd60e51b815260206004820152600b60248201526a3737ba1030b632b93a32b960a91b604482015290519081900360640190fd5b6001600160a01b0381166000908152600360205260408120805460ff191690555b600554811015610f4857816001600160a01b031660058281548110610e4557fe5b6000918252602090912001546001600160a01b03161415610f4057600580546000198101908110610e7257fe5b600091825260209091200154600580546001600160a01b039092169183908110610e9857fe5b9060005260206000200160006101000a8154816001600160a01b0302191690836001600160a01b031602179055506005805480610ed157fe5b60008281526020808220830160001990810180546001600160a01b0319169055909201909255604080516001600160a01b03861681529182019290925281517f5611bf3e417d124f97bf2c788843ea8bb502b66079fbee02158ef30b172cb762929181900390910190a1610f48565b600101610e24565b5050565b6000818152600d6020908152604080832080548251818502810185019093528083528493849384938493606093830182828015610fb257602002820191906000526020600020905b81546001600160a01b03168152600190910190602001808311610f94575b505050505090508051600014611037576000878152600d602052604081208054909190610fdb57fe5b6000918252602080832090910154898352600e82526040808420546018909352909220546001600160a01b0392831698509116955080600781111561101c57fe5b601654601754919650600190921b9182161515945016151591505b5091939590929450565b611049613d5f565b6001600160a01b038216611093576040805162461bcd60e51b815260206004820152600c60248201526b06b7962657250726f787920360a41b604482015290519081900360640190fd5b600c5481116110e9576040805162461bcd60e51b815260206004820152601e60248201527f6d6178206b7962657250726f78696573206c696d697420726561636865640000604482015290519081900360640190fd5b50600c80546001810182556000919091527fdf6966c971051c3d54ec59162606531493a51404a002842f56009d7e5cf4a8c70180546001600160a01b0319166001600160a01b0392909216919091179055565b6060600b80548060200260200160405190810160405280929190818152602001828054801561119457602002820191906000526020600020905b81546001600160a01b03168152600190910190602001808311611176575b5050505050905090565b60608167ffffffffffffffff811180156111b757600080fd5b506040519080825280602002602001820160405280156111e1578160200160208202803683370190505b50905060005b815181101561125557600e600085858481811061120057fe5b90506020020135815260200190815260200160002060009054906101000a90046001600160a01b031682828151811061123557fe5b6001600160a01b03909216602092830291909101909101526001016111e7565b5092915050565b6001600160a01b03166000908152600f602052604090205490565b61127f613d11565b60165463ffffffff14156112da576040805162461bcd60e51b815260206004820152601a60248201527f666565206163636f756e7465642064617461206e6f7420736574000000000000604482015290519081900360640190fd5b6000861561133557601654600216611331576040805162461bcd60e51b8152602060048201526015602482015274199c1c881b9bdd08199959481858d8dbdd5b9d1959605a1b604482015290519081900360640190fd5b6002175b851561138e5760165460041661138a576040805162461bcd60e51b8152602060048201526015602482015274185c1c881b9bdd08199959481858d8dbdd5b9d1959605a1b604482015290519081900360640190fd5b6004175b84156113ef576016546008166113eb576040805162461bcd60e51b815260206004820152601860248201527f627269646765206e6f7420666565206163636f756e7465640000000000000000604482015290519081900360640190fd5b6008175b83156114505760165460101661144c576040805162461bcd60e51b815260206004820152601960248201527f7574696c697479206e6f7420666565206163636f756e74656400000000000000604482015290519081900360640190fd5b6010175b82156114b1576016546020166114ad576040805162461bcd60e51b815260206004820152601860248201527f637573746f6d206e6f7420666565206163636f756e7465640000000000000000604482015290519081900360640190fd5b6020175b81156115125760165460401661150e576040805162461bcd60e51b815260206004820152601b60248201527f6f72646572626f6f6b206e6f7420666565206163636f756e7465640000000000604482015290519081900360640190fd5b6040175b601755505050505050565b60608167ffffffffffffffff8111801561153657600080fd5b50604051908082528060200260200182016040528015611560578160200160208202803683370190505b5060175490915060005b838110156115c55760006018600087878581811061158457fe5b905060200201358152602001908152602001600020546001901b8316118382815181106115ad57fe5b9115156020928302919091019091015260010161156a565b505092915050565b6115d5613db2565b6000828152600d602052604090205461162b576040805162461bcd60e51b81526020600482015260136024820152721c995cd95c9d995259081b9bdd08199bdd5b99606a1b604482015290519081900360640190fd5b6000828152600d602052604081208054829061164357fe5b6000918252602090912001546001600160a01b0316905061166383613e06565b600160ff1b825b600b548110156116b657826001600160a01b0316600b828154811061168b57fe5b6000918252602090912001546001600160a01b031614156116ae578091506116b6565b60010161166a565b5080600160ff1b1415611704576040805162461bcd60e51b81526020600482015260116024820152701c995cd95c9d99481b9bdd08199bdd5b99607a1b604482015290519081900360640190fd5b600b8054600019810190811061171657fe5b600091825260209091200154600b80546001600160a01b03909216918390811061173c57fe5b9060005260206000200160006101000a8154816001600160a01b0302191690836001600160a01b03160217905550600b80548061177557fe5b60008281526020808220830160001990810180546001600160a01b03191690559092019092556001600160a01b0384168252600f905260409020546117eb5760405162461bcd60e51b81526004018080602001828103825260218152602001806141bf6021913960400191505060405180910390fd5b6001600160a01b0382166000908152600f6020908152604080832054808452600d9092528220805491965091829161181f57fe5b6000918252602080832090910154835460018101855593835281832090930180546001600160a01b0319166001600160a01b0390941693909317909255858152600d909152604081208054829061187257fe5b9060005260206000200160006101000a8154816001600160a01b0302191690836001600160a01b03160217905550600060196000601860008881526020019081526020016000205460078111156118c557fe5b60078111156118d057fe5b60078111156118db57fe5b8152602001908152602001600020905060008090505b815481101561197c5781818154811061190657fe5b90600052602060002001548614156119745781548290600019810190811061192a57fe5b906000526020600020015482828154811061194157fe5b90600052602060002001819055508180548061195957fe5b6001900381819060005260206000200160009055905561197c565b6001016118f1565b506001600160a01b0383166000818152600f6020908152604080832083905588835260188252808320839055600e90915280822080546001600160a01b0319169055518792917fa5cd88a226efb041d6bdc0ac32964affd749b8a7c4d9e0c4ffba575e7180b1c991a35050505050565b6001546001600160a01b031681565b60606004805480602002602001604051908101604052809291908181526020018280548015611194576020028201919060005260206000209081546001600160a01b03168152600190910190602001808311611176575050505050905090565b60608167ffffffffffffffff81118015611a7457600080fd5b50604051908082528060200260200182016040528015611a9e578160200160208202803683370190505b50905060005b8281101561125557600f6000858584818110611abc57fe5b905060200201356001600160a01b03166001600160a01b03166001600160a01b0316815260200190815260200160002054828281518110611af957fe5b6020908102919091010152600101611aa4565b6001600160a01b038116600090815260106020908152604091829020805483518184028101840190945280845260609392830182828015611b6c57602002820191906000526020600020905b815481526020019060010190808311611b58575b50505050509050919050565b60608060126000848152602001908152602001600020805480602002602001604051908101604052809291908181526020018280548015611be257602002820191906000526020600020905b81546001600160a01b03168152600190910190602001808311611bc4575b5050505050915060136000848152602001908152602001600020805480602002602001604051908101604052809291908181526020018280548015611c5057602002820191906000526020600020905b81546001600160a01b03168152600190910190602001808311611c32575b50505050509050915091565b611c64613db2565b6001600160a01b0384166000908152600f602052604090205415611cc0576040805162461bcd60e51b815260206004820152600e60248201526d1c995cd95c9d99481a185cc81a5960921b604482015290519081900360640190fd5b82611d02576040805162461bcd60e51b815260206004820152600d60248201526c0726573657276654964203d203609c1b604482015290519081900360640190fd5b6000826007811115611d1057fe5b14158015611d2957506007826007811115611d2757fe5b105b611d6d576040805162461bcd60e51b815260206004820152601060248201526f6261642072657365727665207479706560801b604482015290519081900360640190fd5b60165463ffffffff1415611dc8576040805162461bcd60e51b815260206004820152601a60248201527f666565206163636f756e7465642064617461206e6f7420736574000000000000604482015290519081900360640190fd5b60175463ffffffff1415611e23576040805162461bcd60e51b815260206004820152601c60248201527f656e7469746c6564207265626174652064617461206e6f742073657400000000604482015290519081900360640190fd5b6001600160a01b038116611e73576040805162461bcd60e51b815260206004820152601260248201527107265626174652077616c6c657420697320360741b604482015290519081900360640190fd5b6000838152600e6020908152604080832080546001600160a01b0319166001600160a01b038616179055600d909152902054611ee5576000838152600d602090815260408220805460018101825590835291200180546001600160a01b0319166001600160a01b038616179055611f9e565b6000838152600d6020526040812080548290611efd57fe5b6000918252602090912001546001600160a01b031614611f56576040805162461bcd60e51b815260206004820152600f60248201526e3932b9b2b93b32a4b2103a30b5b2b760891b604482015290519081900360640190fd5b6000838152600d602052604081208054869290611f6f57fe5b9060005260206000200160006101000a8154816001600160a01b0302191690836001600160a01b031602179055505b600b805460018101825560009182527f0175b7a638427703f0dbe7bb9bbf987a2551717b34e79f33b5b1008d1fa01db90180546001600160a01b0319166001600160a01b038716179055601990836007811115611ff757fe5b600781111561200257fe5b8152602080820192909252604090810160009081208054600181018255908252838220018690556001600160a01b0387168152600f909252902083905581600781111561204b57fe5b6018600085815260200190815260200160002081905550806001600160a01b031683856001600160a01b03167f50b2ce9e8f1a63ceaed262cc854dbf741b216e6429f7ba38403afbcdddc7f1ea85604051808260078111156120a957fe5b60ff16815260200191505060405180910390a46040516001600160a01b0382169084907f42cac9e63e37f62d5689493d04887a67fe3c68e1d3763c3f0890e1620a0465b390600090a350505050565b612100613d11565b6001600160a01b03811660009081526003602052604090205460ff161561215f576040805162461bcd60e51b815260206004820152600e60248201526d616c65727465722065786973747360901b604482015290519081900360640190fd5b6005546032116121a5576040805162461bcd60e51b815260206004820152600c60248201526b6d617820616c65727465727360a01b604482015290519081900360640190fd5b604080516001600160a01b03831681526001602082015281517f5611bf3e417d124f97bf2c788843ea8bb502b66079fbee02158ef30b172cb762929181900390910190a16001600160a01b03166000818152600360205260408120805460ff191660019081179091556005805491820181559091527f036b6384b5eca791c62761152d0c79bb0604c104a5fb6f4eb0703f3154bb3db00180546001600160a01b0319169091179055565b612257613d11565b60008615612263576002175b851561226d576004175b8415612277576008175b8315612281576010175b821561228b576020175b8115612295576040175b601655505050505050565b600a546001600160a01b031681565b6000606080808667ffffffffffffffff811180156122cc57600080fd5b506040519080825280602002602001820160405280156122f6578160200160208202803683370190505b5092508667ffffffffffffffff8111801561231057600080fd5b5060405190808252806020026020018201604052801561233a578160200160208202803683370190505b5091508667ffffffffffffffff8111801561235457600080fd5b5060405190808252806020026020018201604052801561237e578160200160208202803683370190505b50601754601654600196509192509060006001600160a01b03881673eeeeeeeeeeeeeeeeeeeeeeeeeeeeeeeeeeeeeeee146123d0576001600160a01b03881660009081526015602052604090206123e9565b6001600160a01b03891660009081526014602052604090205b905060005b8a81101561252c576000601860008e8e8581811061240857fe5b9050602002013581526020019081526020016000205490506000816001901b86161187838151811061243657fe5b6020026020010190151590811515815250506000816001901b85161188838151811061245e57fe5b91151560209283029190910190910152600d60008e8e8581811061247e57fe5b90506020020135815260200190815260200160002060008154811061249f57fe5b9060005260206000200160009054906101000a90046001600160a01b03168683815181106124c957fe5b60200260200101906001600160a01b031690816001600160a01b0316815250508260008e8e858181106124f857fe5b602090810292909201358352508101919091526040016000205460ff1661252357600098505061252c565b506001016123ee565b50505050945094509450949050565b612543613d11565b6001600160a01b03811661258f576040805162461bcd60e51b815260206004820152600e60248201526d06b796265724e6574776f726b20360941b604482015290519081900360640190fd5b604080516001600160a01b038316815290517f18970d46ac8a7d7e0da90e1bebb0be3e87ffc7705fc09d3bba5373d59b7a12aa9181900360200190a16007546040805163c2eed5a360e01b81526001600160a01b0384811660048301529151919092169163c2eed5a391602480830192600092919082900301818387803b15801561261957600080fd5b505af115801561262d573d6000803e3d6000fd5b5050601a80546001600160a01b0319166001600160a01b0394909416939093179092555050565b61265c613db2565b6000858152600d60205260409020546126b2576040805162461bcd60e51b81526020600482015260136024820152721c995cd95c9d995259081b9bdd08199bdd5b99606a1b604482015290519081900360640190fd5b6000858152600d60205260408120805482906126ca57fe5b6000918252602090912001546001600160a01b0316905080612721576040805162461bcd60e51b815260206004820152600b60248201526a072657365727665203d20360ac1b604482015290519081900360640190fd5b8315612797576127348686600085613f49565b604080516001600160a01b038381168252841515602083015282519088169273eeeeeeeeeeeeeeeeeeeeeeeeeeeeeeeeeeeeeeee928a927ffcdbd685961328a43b4aa133de257d3769cc01891b4ee00fd5058e5aa3564ca5929181900390910190a45b821561288157601a54604080516332c8bd9f60e01b81526001600160a01b03848116600483015288811660248301528515156044830152915191909216916332c8bd9f91606480830192600092919082900301818387803b1580156127fb57600080fd5b505af115801561280f573d6000803e3d6000fd5b505050506128208686600185613f49565b604080516001600160a01b0383811682528415156020830152825173eeeeeeeeeeeeeeeeeeeeeeeeeeeeeeeeeeeeeeee93918916928a927ffcdbd685961328a43b4aa133de257d3769cc01891b4ee00fd5058e5aa3564ca592918290030190a45b505050505050565b6007546001600160a01b031681565b6128a0613d5f565b6009546040805163c2eed5a360e01b81526001600160a01b0384811660048301529151919092169163c2eed5a391602480830192600092919082900301818387803b1580156128ee57600080fd5b505af1158015612902573d6000803e3d6000fd5b5050505050565b612911613d11565b6001600160a01b03811661295a576040805162461bcd60e51b815260206004820152600b60248201526a06e65772061646d696e20360ac1b604482015290519081900360640190fd5b604080516001600160a01b038316815290517f3b81caf78fa51ecbc8acb482fd7012a277b428d9b80f9d156e8a54107496cc409181900360200190a1600180546001600160a01b0319166001600160a01b0392909216919091179055565b6001546001600160a01b03163314612a05576040805162461bcd60e51b815260206004820152600b60248201526a6e6f742070656e64696e6760a81b604482015290519081900360640190fd5b600154600054604080516001600160a01b03938416815292909116602083015280517f65da1cfc2c2e81576ad96afb24a581f8e109b7a403b35cbd3243a1c99efdb9ed9281900390910190a160018054600080546001600160a01b03199081166001600160a01b03841617909155169055565b612a80613d11565b6001600160a01b038116612ac5576040805162461bcd60e51b8152602060048201526007602482015266061646d696e20360cc1b604482015290519081900360640190fd5b604080516001600160a01b038316815290517f3b81caf78fa51ecbc8acb482fd7012a277b428d9b80f9d156e8a54107496cc409181900360200190a1600054604080516001600160a01b038085168252909216602083015280517f65da1cfc2c2e81576ad96afb24a581f8e109b7a403b35cbd3243a1c99efdb9ed9281900390910190a1600080546001600160a01b0319166001600160a01b0392909216919091179055565b60606005805480602002602001604051908101604052809291908181526020018280548015611194576020028201919060005260206000209081546001600160a01b03168152600190910190602001808311611176575050505050905090565b612bd3613d5f565b600160ff1b60005b600c54811015612c2757826001600160a01b0316600c8281548110612bfc57fe5b6000918252602090912001546001600160a01b03161415612c1f57809150612c27565b600101612bdb565b5080600160ff1b1415612c78576040805162461bcd60e51b81526020600482015260146024820152731ade58995c941c9bde1e481b9bdd08199bdd5b9960621b604482015290519081900360640190fd5b600c80546000198101908110612c8a57fe5b600091825260209091200154600c80546001600160a01b039092169183908110612cb057fe5b9060005260206000200160006101000a8154816001600160a01b0302191690836001600160a01b03160217905550600c805480612ce957fe5b600082815260209020810160001990810180546001600160a01b03191690550190555050565b612d17613d11565b6001600160a01b03811660009081526002602052604090205460ff1615612d77576040805162461bcd60e51b815260206004820152600f60248201526e6f70657261746f722065786973747360881b604482015290519081900360640190fd5b600454603211612dbe576040805162461bcd60e51b815260206004820152600d60248201526c6d6178206f70657261746f727360981b604482015290519081900360640190fd5b604080516001600160a01b03831681526001602082015281517f091a7a4b85135fdd7e8dbc18b12fabe5cc191ea867aa3c2e1a24a102af61d58b929181900390910190a16001600160a01b03166000818152600260205260408120805460ff191660019081179091556004805491820181559091527f8a35acfbc15ff81a39ae7d344fd709f28e8600b4aa8c65c6b64bfe7fe36bd19b0180546001600160a01b0319169091179055565b606060196000836007811115612e7a57fe5b6007811115612e8557fe5b8152602001908152602001600020805480602002602001604051908101604052809291908181526020018280548015611b6c5760200282019190600052602060002090815481526020019060010190808311611b585750505050509050919050565b6001600160a01b038116600090815260116020908152604091829020805483518184028101840190945280845260609392830182828015611b6c5760200282019190600052602060002090815481526020019060010190808311611b585750505050509050919050565b600c54151590565b6009546001600160a01b031681565b612f70613d11565b6001600160a01b03811660009081526002602052604090205460ff16612fcc576040805162461bcd60e51b815260206004820152600c60248201526b3737ba1037b832b930ba37b960a11b604482015290519081900360640190fd5b6001600160a01b0381166000908152600260205260408120805460ff191690555b600454811015610f4857816001600160a01b03166004828154811061300e57fe5b6000918252602090912001546001600160a01b031614156131095760048054600019810190811061303b57fe5b600091825260209091200154600480546001600160a01b03909216918390811061306157fe5b9060005260206000200160006101000a8154816001600160a01b0302191690836001600160a01b03160217905550600480548061309a57fe5b60008281526020808220830160001990810180546001600160a01b0319169055909201909255604080516001600160a01b03861681529182019290925281517f091a7a4b85135fdd7e8dbc18b12fabe5cc191ea867aa3c2e1a24a102af61d58b929181900390910190a1610f48565b600101612fed565b6008546001600160a01b031681565b601a546001600160a01b031681565b606080606080600960009054906101000a90046001600160a01b03166001600160a01b031663c3a2a93a6040518163ffffffff1660e01b815260040160006040518083038186803b15801561318357600080fd5b505afa158015613197573d6000803e3d6000fd5b505050506040513d6000823e601f3d908101601f1916820160405260208110156131c057600080fd5b8101908080516040519392919084600160201b8211156131df57600080fd5b9083019060208201858111156131f457600080fd5b82518660208202830111600160201b8211171561321057600080fd5b82525081516020918201928201910280838360005b8381101561323d578181015183820152602001613225565b505050509050016040525050509350600860009054906101000a90046001600160a01b03166001600160a01b031663c3a2a93a6040518163ffffffff1660e01b815260040160006040518083038186803b15801561329a57600080fd5b505afa1580156132ae573d6000803e3d6000fd5b505050506040513d6000823e601f3d908101601f1916820160405260208110156132d757600080fd5b8101908080516040519392919084600160201b8211156132f657600080fd5b90830190602082018581111561330b57600080fd5b82518660208202830111600160201b8211171561332757600080fd5b82525081516020918201928201910280838360005b8381101561335457818101518382015260200161333c565b505050509050016040525050509250600a60009054906101000a90046001600160a01b03166001600160a01b031663c3a2a93a6040518163ffffffff1660e01b815260040160006040518083038186803b1580156133b157600080fd5b505afa1580156133c5573d6000803e3d6000fd5b505050506040513d6000823e601f3d908101601f1916820160405260208110156133ee57600080fd5b8101908080516040519392919084600160201b82111561340d57600080fd5b90830190602082018581111561342257600080fd5b82518660208202830111600160201b8211171561343e57600080fd5b82525081516020918201928201910280838360005b8381101561346b578181015183820152602001613453565b505050509050016040525050509150600760009054906101000a90046001600160a01b03166001600160a01b031663c3a2a93a6040518163ffffffff1660e01b815260040160006040518083038186803b1580156134c857600080fd5b505afa1580156134dc573d6000803e3d6000fd5b505050506040513d6000823e601f3d908101601f19168201604052602081101561350557600080fd5b8101908080516040519392919084600160201b82111561352457600080fd5b90830190602082018581111561353957600080fd5b82518660208202830111600160201b8211171561355557600080fd5b82525081516020918201928201910280838360005b8381101561358257818101518382015260200161356a565b50505050905001604052505050905090919293565b60608060106000866001600160a01b03166001600160a01b0316815260200190815260200160002080548060200260200160405190810160405280929190818152602001828054801561360957602002820191906000526020600020905b8154815260200190600101908083116135f5575b50505050509050805160001415613620575061371d565b600081518410156136315783613637565b60018251035b905084811015613649575061371d9050565b84810360010167ffffffffffffffff8111801561366557600080fd5b5060405190808252806020026020018201604052801561368f578160200160208202803683370190505b509250845b81811161371957600d60008483815181106136ab57fe5b602002602001015181526020019081526020016000206000815481106136cd57fe5b9060005260206000200160009054906101000a90046001600160a01b031684878303815181106136f957fe5b6001600160a01b0390921660209283029190910190910152600101613694565b5050505b9392505050565b60608167ffffffffffffffff8111801561373d57600080fd5b50604051908082528060200260200182016040528015613767578160200160208202803683370190505b50905060005b8281101561125557600d600085858481811061378557fe5b9050602002013581526020019081526020016000206000815481106137a657fe5b9060005260206000200160009054906101000a90046001600160a01b03168282815181106137d057fe5b6001600160a01b039092166020928302919091019091015260010161376d565b6137f8613d5f565b6001600160a01b038216613847576040805162461bcd60e51b815260206004820152601160248201527006b7962657246656548616e646c6572203607c1b604482015290519081900360640190fd5b6001600160a01b03811661389a576040805162461bcd60e51b815260206004820152601560248201527406b796265724d61746368696e67456e67696e65203605c1b604482015290519081900360640190fd5b6008546040805163c2eed5a360e01b81526001600160a01b0385811660048301529151919092169163c2eed5a391602480830192600092919082900301818387803b1580156138e857600080fd5b505af11580156138fc573d6000803e3d6000fd5b5050600a546040805163c2eed5a360e01b81526001600160a01b038681166004830152915191909216935063c2eed5a39250602480830192600092919082900301818387803b15801561394e57600080fd5b505af1158015612881573d6000803e3d6000fd5b61396a613db2565b6001600160a01b0381166139ba576040805162461bcd60e51b815260206004820152601260248201527107265626174652077616c6c657420697320360741b604482015290519081900360640190fd5b816139fc576040805162461bcd60e51b815260206004820152600d60248201526c0726573657276654964203d203609c1b604482015290519081900360640190fd5b6000828152600d6020526040902054613a52576040805162461bcd60e51b81526020600482015260136024820152721c995cd95c9d995259081b9bdd08199bdd5b99606a1b604482015290519081900360640190fd5b6000828152600d6020526040812080548290613a6a57fe5b6000918252602090912001546001600160a01b03161415613aca576040805162461bcd60e51b81526020600482015260156024820152741b9bc81c995cd95c9d9948185cdcdbd8da585d1959605a1b604482015290519081900360640190fd5b6000828152600e602052604080822080546001600160a01b0319166001600160a01b0385169081179091559051909184917f42cac9e63e37f62d5689493d04887a67fe3c68e1d3763c3f0890e1620a0465b39190a35050565b60608167ffffffffffffffff81118015613b3c57600080fd5b50604051908082528060200260200182016040528015613b66578160200160208202803683370190505b5060165490915060005b838110156115c557600060186000878785818110613b8a57fe5b905060200201358152602001908152602001600020546001901b831611838281518110613bb357fe5b91151560209283029190910190910152600101613b70565b6000818152600d6020908152604091829020805483518184028101840190945280845260609392830182828015611b6c57602002820191906000526020600020905b81546001600160a01b03168152600190910190602001808311613c0d5750505050509050919050565b6001600160a01b038082166000908152600f6020908152604080832054808452600e835281842054601890935290832054909391909116919081908190806007811115613c7f57fe5b60165460175497999698509096600190921b908116151595911615159350915050565b6000546001600160a01b031681565b6060600c805480602002602001604051908101604052809291908181526020018280548015611194576020028201919060005260206000209081546001600160a01b03168152600190910190602001808311611176575050505050905090565b6000546001600160a01b03163314613d5d576040805162461bcd60e51b815260206004820152600a60248201526937b7363c9030b236b4b760b11b604482015290519081900360640190fd5b565b601a546001600160a01b03163314613d5d576040805162461bcd60e51b81526020600482015260116024820152706f6e6c79206b796265724e6574776f726b60781b604482015290519081900360640190fd5b3360009081526002602052604090205460ff16613d5d576040805162461bcd60e51b815260206004820152600d60248201526c37b7363c9037b832b930ba37b960991b604482015290519081900360640190fd5b600081815260126020908152604091829020805483518184028101840190945280845260609392830182828015613e6657602002820191906000526020600020905b81546001600160a01b03168152600190910190602001808311613e48575b50939450600093505050505b8151811015613ea657613e9e83838381518110613e8b57fe5b6020026020010151600060016000612654565b600101613e72565b5060008281526013602090815260409182902080548351818402810184019094528084529091830182828015613f0557602002820191906000526020600020905b81546001600160a01b03168152600190910190602001808311613ee7575b50939450600093505050505b8151811015613f4457613f3c83838381518110613f2a57fe5b60200260200101516001600080612654565b600101613f11565b505050565b6001600160a01b03831660008181526011602090815260408083208884526013835281842094845260159092528220919290918515613fb9575050506001600160a01b03841660008181526010602090815260408083208984526012835281842094845260149092529091209091905b600093505b825484101561405b57828481548110613fd357fe5b9060005260206000200154881415614050578415613ff457505050506141b8565b82548390600019810190811061400657fe5b906000526020600020015483858154811061401d57fe5b90600052602060002001819055508280548061403557fe5b6001900381819060005260206000200160009055905561405b565b600190930192613fbe565b84156140bd57825460018082018555600085815260208082209093018b9055845480830186558582528382200180546001600160a01b0319166001600160a01b038c161790558a8152918390526040909120805460ff191690911790556141b3565b600093505b815484101561419c578184815481106140d757fe5b6000918252602090912001546001600160a01b03888116911614156141915781548290600019810190811061410857fe5b9060005260206000200160009054906101000a90046001600160a01b031682858154811061413257fe5b9060005260206000200160006101000a8154816001600160a01b0302191690836001600160a01b031602179055508180548061416a57fe5b600082815260209020810160001990810180546001600160a01b031916905501905561419c565b6001909301926140c2565b6000888152602082905260409020805460ff191690555b505050505b5050505056fe726573657276652773206578697374696e67207265736572766549642069732030a2646970667358221220301f78a9543686a3f9787392dde7cae5422f5147828c2b2be118fd31b979a29c64736f6c63430006060033",
  "immutableReferences": {},
  "source": "pragma solidity 0.6.6;\n\nimport \"./IKyberHistory.sol\";\nimport \"./IKyberStorage.sol\";\nimport \"./IKyberNetwork.sol\";\nimport \"./utils/PermissionGroupsNoModifiers.sol\";\nimport \"./utils/Utils5.sol\";\n\n\n/**\n *   @title kyberStorage contract\n *   The contract provides the following functions for kyberNetwork contract:\n *   - Stores reserve and token listing information by the kyberNetwork\n *   - Stores feeAccounted data for reserve types\n *   - Record contract changes for reserves and kyberProxies\n *   - Points to historical contracts that record contract changes for kyberNetwork,\n *        kyberFeeHandler, kyberDao and kyberMatchingEngine\n */\ncontract KyberStorage is IKyberStorage, PermissionGroupsNoModifiers, Utils5 {\n    // store current and previous contracts\n    IKyberHistory public kyberNetworkHistory;\n    IKyberHistory public kyberFeeHandlerHistory;\n    IKyberHistory public kyberDaoHistory;\n    IKyberHistory public kyberMatchingEngineHistory;\n\n    IKyberReserve[] internal reserves;\n    IKyberNetworkProxy[] internal kyberProxyArray;\n\n    mapping(bytes32 => address[]) internal reserveIdToAddresses;\n    mapping(bytes32 => address) internal reserveRebateWallet;\n    mapping(address => bytes32) internal reserveAddressToId;\n    mapping(IERC20 => bytes32[]) internal reservesPerTokenSrc; // reserves supporting token to eth\n    mapping(IERC20 => bytes32[]) internal reservesPerTokenDest; // reserves support eth to token\n    mapping(bytes32 => IERC20[]) internal srcTokensPerReserve;\n    mapping(bytes32 => IERC20[]) internal destTokensPerReserve;\n\n    mapping(IERC20 => mapping(bytes32 => bool)) internal isListedReserveWithTokenSrc;\n    mapping(IERC20 => mapping(bytes32 => bool)) internal isListedReserveWithTokenDest;\n\n    uint256 internal feeAccountedPerType = 0xffffffff;\n    uint256 internal entitledRebatePerType = 0xffffffff;\n    mapping(bytes32 => uint256) internal reserveType; // type from enum ReserveType\n    mapping(ReserveType => bytes32[]) internal reservesPerType;\n\n    IKyberNetwork public kyberNetwork;\n\n    constructor(\n        address _admin,\n        IKyberHistory _kyberNetworkHistory,\n        IKyberHistory _kyberFeeHandlerHistory,\n        IKyberHistory _kyberDaoHistory,\n        IKyberHistory _kyberMatchingEngineHistory\n    ) public PermissionGroupsNoModifiers(_admin) {\n        require(_kyberNetworkHistory != IKyberHistory(0), \"kyberNetworkHistory 0\");\n        require(_kyberFeeHandlerHistory != IKyberHistory(0), \"kyberFeeHandlerHistory 0\");\n        require(_kyberDaoHistory != IKyberHistory(0), \"kyberDaoHistory 0\");\n        require(_kyberMatchingEngineHistory != IKyberHistory(0), \"kyberMatchingEngineHistory 0\");\n\n        kyberNetworkHistory = _kyberNetworkHistory;\n        kyberFeeHandlerHistory = _kyberFeeHandlerHistory;\n        kyberDaoHistory = _kyberDaoHistory;\n        kyberMatchingEngineHistory = _kyberMatchingEngineHistory;\n    }\n\n    event KyberNetworkUpdated(IKyberNetwork newKyberNetwork);\n    event RemoveReserveFromStorage(address indexed reserve, bytes32 indexed reserveId);\n\n    event AddReserveToStorage(\n        address indexed reserve,\n        bytes32 indexed reserveId,\n        IKyberStorage.ReserveType reserveType,\n        address indexed rebateWallet\n    );\n\n    event ReserveRebateWalletSet(\n        bytes32 indexed reserveId,\n        address indexed rebateWallet\n    );\n\n    event ListReservePairs(\n        bytes32 indexed reserveId,\n        address reserve,\n        IERC20 indexed src,\n        IERC20 indexed dest,\n        bool add\n    );\n\n    function setNetworkContract(IKyberNetwork _kyberNetwork) external {\n        onlyAdmin();\n        require(_kyberNetwork != IKyberNetwork(0), \"kyberNetwork 0\");\n        emit KyberNetworkUpdated(_kyberNetwork);\n        kyberNetworkHistory.saveContract(address(_kyberNetwork));\n        kyberNetwork = _kyberNetwork;\n    }\n\n    function setRebateWallet(bytes32 reserveId, address rebateWallet) external {\n        onlyOperator();\n        require(rebateWallet != address(0), \"rebate wallet is 0\");\n        require(reserveId != bytes32(0), \"reserveId = 0\");\n        require(reserveIdToAddresses[reserveId].length > 0, \"reserveId not found\");\n        require(reserveIdToAddresses[reserveId][0] != address(0), \"no reserve associated\");\n\n        reserveRebateWallet[reserveId] = rebateWallet;\n        emit ReserveRebateWalletSet(reserveId, rebateWallet);\n    }\n\n    function setContracts(address _kyberFeeHandler, address _kyberMatchingEngine)\n        external\n        override\n    {\n        onlyNetwork();\n        require(_kyberFeeHandler != address(0), \"kyberFeeHandler 0\");\n        require(_kyberMatchingEngine != address(0), \"kyberMatchingEngine 0\");\n\n        kyberFeeHandlerHistory.saveContract(_kyberFeeHandler);\n        kyberMatchingEngineHistory.saveContract(_kyberMatchingEngine);\n    }\n\n    function setKyberDaoContract(address _kyberDao) external override {\n        onlyNetwork();\n\n        kyberDaoHistory.saveContract(_kyberDao);\n    }\n\n    /// @notice Can be called only by operator\n    /// @dev Adds a reserve to the storage\n    /// @param reserve The reserve address\n    /// @param reserveId The reserve ID in 32 bytes.\n    /// @param resType Type of the reserve out of enum ReserveType\n    /// @param rebateWallet Rebate wallet address for this reserve\n    function addReserve(\n        address reserve,\n        bytes32 reserveId,\n        ReserveType resType,\n        address payable rebateWallet\n    ) external {\n        onlyOperator();\n        require(reserveAddressToId[reserve] == bytes32(0), \"reserve has id\");\n        require(reserveId != bytes32(0), \"reserveId = 0\");\n        require(\n            (resType != ReserveType.NONE) && (uint256(resType) < uint256(ReserveType.LAST)),\n            \"bad reserve type\"\n        );\n        require(feeAccountedPerType != 0xffffffff, \"fee accounted data not set\");\n        require(entitledRebatePerType != 0xffffffff, \"entitled rebate data not set\");\n        require(rebateWallet != address(0), \"rebate wallet is 0\");\n\n        reserveRebateWallet[reserveId] = rebateWallet;\n\n        if (reserveIdToAddresses[reserveId].length == 0) {\n            reserveIdToAddresses[reserveId].push(reserve);\n        } else {\n            require(reserveIdToAddresses[reserveId][0] == address(0), \"reserveId taken\");\n            reserveIdToAddresses[reserveId][0] = reserve;\n        }\n\n        reserves.push(IKyberReserve(reserve));\n        reservesPerType[resType].push(reserveId);\n        reserveAddressToId[reserve] = reserveId;\n        reserveType[reserveId] = uint256(resType);\n\n        emit AddReserveToStorage(reserve, reserveId, resType, rebateWallet);\n        emit ReserveRebateWalletSet(reserveId, rebateWallet);\n    }\n\n    /// @notice Can be called only by operator\n    /// @dev Removes a reserve from the storage\n    /// @param reserveId The reserve id\n    /// @param startIndex Index to start searching from in reserve array\n    function removeReserve(bytes32 reserveId, uint256 startIndex)\n        external\n    {\n        onlyOperator();\n        require(reserveIdToAddresses[reserveId].length > 0, \"reserveId not found\");\n        address reserve = reserveIdToAddresses[reserveId][0];\n\n        // delist all token pairs for reserve\n        delistTokensOfReserve(reserveId);\n\n        uint256 reserveIndex = 2**255;\n        for (uint256 i = startIndex; i < reserves.length; i++) {\n            if (reserves[i] == IKyberReserve(reserve)) {\n                reserveIndex = i;\n                break;\n            }\n        }\n        require(reserveIndex != 2**255, \"reserve not found\");\n        reserves[reserveIndex] = reserves[reserves.length - 1];\n        reserves.pop();\n        // remove reserve from mapping to address\n        require(reserveAddressToId[reserve] != bytes32(0), \"reserve's existing reserveId is 0\");\n        reserveId = reserveAddressToId[reserve];\n\n        // update reserve mappings\n        reserveIdToAddresses[reserveId].push(reserveIdToAddresses[reserveId][0]);\n        reserveIdToAddresses[reserveId][0] = address(0);\n\n        // remove reserveId from reservesPerType\n        bytes32[] storage reservesOfType = reservesPerType[ReserveType(reserveType[reserveId])];\n        for (uint256 i = 0; i < reservesOfType.length; i++) {\n            if (reserveId == reservesOfType[i]) {\n                reservesOfType[i] = reservesOfType[reservesOfType.length - 1];\n                reservesOfType.pop();\n                break;\n            }\n        }\n\n        delete reserveAddressToId[reserve];\n        delete reserveType[reserveId];\n        delete reserveRebateWallet[reserveId];\n\n        emit RemoveReserveFromStorage(reserve, reserveId);\n    }\n\n    /// @notice Can be called only by operator\n    /// @dev Allow or prevent a specific reserve to trade a pair of tokens\n    /// @param reserveId The reserve id\n    /// @param token Token address\n    /// @param ethToToken Will it support ether to token trade\n    /// @param tokenToEth Will it support token to ether trade\n    /// @param add If true then list this pair, otherwise unlist it\n    function listPairForReserve(\n        bytes32 reserveId,\n        IERC20 token,\n        bool ethToToken,\n        bool tokenToEth,\n        bool add\n    ) public {\n        onlyOperator();\n\n        require(reserveIdToAddresses[reserveId].length > 0, \"reserveId not found\");\n        address reserve = reserveIdToAddresses[reserveId][0];\n        require(reserve != address(0), \"reserve = 0\");\n\n        if (ethToToken) {\n            listPairs(reserveId, token, false, add);\n            emit ListReservePairs(reserveId, reserve, ETH_TOKEN_ADDRESS, token, add);\n        }\n\n        if (tokenToEth) {\n            kyberNetwork.listTokenForReserve(reserve, token, add);\n            listPairs(reserveId, token, true, add);\n            emit ListReservePairs(reserveId, reserve, token, ETH_TOKEN_ADDRESS, add);\n        }\n    }\n\n    /// @dev No. of kyberProxies are capped\n    function addKyberProxy(address kyberProxy, uint256 maxApprovedProxies)\n        external\n        override\n    {\n        onlyNetwork();\n        require(kyberProxy != address(0), \"kyberProxy 0\");\n        require(kyberProxyArray.length < maxApprovedProxies, \"max kyberProxies limit reached\");\n\n        kyberProxyArray.push(IKyberNetworkProxy(kyberProxy));\n    }\n\n    function removeKyberProxy(address kyberProxy) external override {\n        onlyNetwork();\n        uint256 proxyIndex = 2**255;\n\n        for (uint256 i = 0; i < kyberProxyArray.length; i++) {\n            if (kyberProxyArray[i] == IKyberNetworkProxy(kyberProxy)) {\n                proxyIndex = i;\n                break;\n            }\n        }\n\n        require(proxyIndex != 2**255, \"kyberProxy not found\");\n        kyberProxyArray[proxyIndex] = kyberProxyArray[kyberProxyArray.length - 1];\n        kyberProxyArray.pop();\n    }\n\n    function setFeeAccountedPerReserveType(\n        bool fpr,\n        bool apr,\n        bool bridge,\n        bool utility,\n        bool custom,\n        bool orderbook\n    ) external {\n        onlyAdmin();\n        uint256 feeAccountedData;\n\n        if (fpr) feeAccountedData |= 1 << uint256(ReserveType.FPR);\n        if (apr) feeAccountedData |= 1 << uint256(ReserveType.APR);\n        if (bridge) feeAccountedData |= 1 << uint256(ReserveType.BRIDGE);\n        if (utility) feeAccountedData |= 1 << uint256(ReserveType.UTILITY);\n        if (custom) feeAccountedData |= 1 << uint256(ReserveType.CUSTOM);\n        if (orderbook) feeAccountedData |= 1 << uint256(ReserveType.ORDERBOOK);\n\n        feeAccountedPerType = feeAccountedData;\n    }\n\n    function setEntitledRebatePerReserveType(\n        bool fpr,\n        bool apr,\n        bool bridge,\n        bool utility,\n        bool custom,\n        bool orderbook\n    ) external {\n        onlyAdmin();\n        require(feeAccountedPerType != 0xffffffff, \"fee accounted data not set\");\n        uint256 entitledRebateData;\n\n        if (fpr) {\n            require(feeAccountedPerType & (1 << uint256(ReserveType.FPR)) > 0, \"fpr not fee accounted\");\n            entitledRebateData |= 1 << uint256(ReserveType.FPR);\n        }\n\n        if (apr) {\n            require(feeAccountedPerType & (1 << uint256(ReserveType.APR)) > 0, \"apr not fee accounted\");\n            entitledRebateData |= 1 << uint256(ReserveType.APR);\n        }\n\n        if (bridge) {\n            require(feeAccountedPerType & (1 << uint256(ReserveType.BRIDGE)) > 0, \"bridge not fee accounted\");\n            entitledRebateData |= 1 << uint256(ReserveType.BRIDGE);\n        }\n\n        if (utility) {\n            require(feeAccountedPerType & (1 << uint256(ReserveType.UTILITY)) > 0, \"utility not fee accounted\");\n            entitledRebateData |= 1 << uint256(ReserveType.UTILITY);\n        }\n\n        if (custom) {\n            require(feeAccountedPerType & (1 << uint256(ReserveType.CUSTOM)) > 0, \"custom not fee accounted\");\n            entitledRebateData |= 1 << uint256(ReserveType.CUSTOM);\n        }\n\n        if (orderbook) {\n            require(feeAccountedPerType & (1 << uint256(ReserveType.ORDERBOOK)) > 0, \"orderbook not fee accounted\");\n            entitledRebateData |= 1 << uint256(ReserveType.ORDERBOOK);\n        }\n\n        entitledRebatePerType = entitledRebateData;\n    }\n\n    /// @notice Should be called off chain\n    /// @return An array of all reserves\n    function getReserves() external view returns (IKyberReserve[] memory) {\n        return reserves;\n    }\n\n    function getReservesPerType(ReserveType resType) external view returns (bytes32[] memory) {\n        return reservesPerType[resType];\n    }\n\n    function getReserveId(address reserve) external view override returns (bytes32) {\n        return reserveAddressToId[reserve];\n    }\n\n    function getReserveIdsFromAddresses(address[] calldata reserveAddresses)\n        external\n        override\n        view\n        returns (bytes32[] memory reserveIds)\n    {\n        reserveIds = new bytes32[](reserveAddresses.length);\n        for (uint256 i = 0; i < reserveAddresses.length; i++) {\n            reserveIds[i] = reserveAddressToId[reserveAddresses[i]];\n        }\n    }\n\n    function getReserveAddressesFromIds(bytes32[] calldata reserveIds)\n        external\n        view\n        override\n        returns (address[] memory reserveAddresses)\n    {\n        reserveAddresses = new address[](reserveIds.length);\n        for (uint256 i = 0; i < reserveIds.length; i++) {\n            reserveAddresses[i] = reserveIdToAddresses[reserveIds[i]][0];\n        }\n    }\n\n    function getRebateWalletsFromIds(bytes32[] calldata reserveIds)\n        external\n        view\n        override\n        returns (address[] memory rebateWallets)\n    {\n        rebateWallets = new address[](reserveIds.length);\n        for (uint256 i = 0; i < rebateWallets.length; i++) {\n            rebateWallets[i] = reserveRebateWallet[reserveIds[i]];\n        }\n    }\n\n    function getReserveIdsPerTokenSrc(IERC20 token)\n        external\n        view\n        override\n        returns (bytes32[] memory reserveIds)\n    {\n        reserveIds = reservesPerTokenSrc[token];\n    }\n\n    /// @dev kyberNetwork is calling this function to approve (allowance) for list of reserves for a token\n    ///      in case we have a long list of reserves, approving all of them could run out of gas\n    ///      using startIndex and endIndex to prevent above scenario\n    ///      also enable us to approve reserve one by one\n    function getReserveAddressesPerTokenSrc(IERC20 token, uint256 startIndex, uint256 endIndex)\n        external\n        view\n        override\n        returns (address[] memory reserveAddresses)\n    {\n        bytes32[] memory reserveIds = reservesPerTokenSrc[token];\n        if (reserveIds.length == 0) {\n            return reserveAddresses;\n        }\n        uint256 endId = (endIndex >= reserveIds.length) ? (reserveIds.length - 1) : endIndex;\n        if (endId < startIndex) {\n            return reserveAddresses;\n        }\n        reserveAddresses = new address[](endId - startIndex + 1);\n        for(uint256 i = startIndex; i <= endId; i++) {\n            reserveAddresses[i - startIndex] = reserveIdToAddresses[reserveIds[i]][0];\n        }\n    }\n\n    function getReserveIdsPerTokenDest(IERC20 token)\n        external\n        view\n        override\n        returns (bytes32[] memory reserveIds)\n    {\n        reserveIds = reservesPerTokenDest[token];\n    }\n\n    function getReserveAddressesByReserveId(bytes32 reserveId)\n        external\n        view\n        override\n        returns (address[] memory reserveAddresses)\n    {\n        reserveAddresses = reserveIdToAddresses[reserveId];\n    }\n\n    /// @notice Should be called off chain\n    /// @dev Returns list of kyberDao, kyberFeeHandler, kyberMatchingEngine and kyberNetwork contracts\n    /// @dev Index 0 is currently used contract address, indexes > 0 are older versions\n    function getContracts()\n        external\n        view\n        returns (\n            address[] memory kyberDaoAddresses,\n            address[] memory kyberFeeHandlerAddresses,\n            address[] memory kyberMatchingEngineAddresses,\n            address[] memory kyberNetworkAddresses\n        )\n    {\n        kyberDaoAddresses = kyberDaoHistory.getContracts();\n        kyberFeeHandlerAddresses = kyberFeeHandlerHistory.getContracts();\n        kyberMatchingEngineAddresses = kyberMatchingEngineHistory.getContracts();\n        kyberNetworkAddresses = kyberNetworkHistory.getContracts();\n    }\n\n    /// @notice Should be called off chain\n    /// @return An array of KyberNetworkProxies\n    function getKyberProxies() external view override returns (IKyberNetworkProxy[] memory) {\n        return kyberProxyArray;\n    }\n\n    function isKyberProxyAdded() external view override returns (bool) {\n        return (kyberProxyArray.length > 0);\n    }\n\n    /// @notice Returns information about a reserve given its reserve ID\n    /// @return reserveAddress Address of the reserve\n    /// @return rebateWallet address of rebate wallet of this reserve\n    /// @return resType Reserve type from enum ReserveType\n    /// @return isFeeAccountedFlag Whether fees are to be charged for the trade for this reserve\n    /// @return isEntitledRebateFlag Whether reserve is entitled rebate from the trade fees\n    function getReserveDetailsById(bytes32 reserveId)\n        external\n        view\n        override\n        returns (\n            address reserveAddress,\n            address rebateWallet,\n            ReserveType resType,\n            bool isFeeAccountedFlag,\n            bool isEntitledRebateFlag\n        )\n    {\n        address[] memory reserveAddresses = reserveIdToAddresses[reserveId];\n\n        if (reserveAddresses.length != 0) {\n            reserveAddress = reserveIdToAddresses[reserveId][0];\n            rebateWallet = reserveRebateWallet[reserveId];\n            uint256 resTypeUint = reserveType[reserveId];\n            resType = ReserveType(resTypeUint);\n            isFeeAccountedFlag = (feeAccountedPerType & (1 << resTypeUint)) > 0;\n            isEntitledRebateFlag = (entitledRebatePerType & (1 << resTypeUint)) > 0;\n        }\n    }\n\n    /// @notice Returns information about a reserve given its reserve ID\n    /// @return reserveId The reserve ID in 32 bytes.\n    /// @return rebateWallet address of rebate wallet of this reserve\n    /// @return resType Reserve type from enum ReserveType\n    /// @return isFeeAccountedFlag Whether fees are to be charged for the trade for this reserve\n    /// @return isEntitledRebateFlag Whether reserve is entitled rebate from the trade fees\n    function getReserveDetailsByAddress(address reserve)\n        external\n        view\n        override\n        returns (\n            bytes32 reserveId,\n            address rebateWallet,\n            ReserveType resType,\n            bool isFeeAccountedFlag,\n            bool isEntitledRebateFlag\n        )\n    {\n        reserveId = reserveAddressToId[reserve];\n        rebateWallet = reserveRebateWallet[reserveId];\n        uint256 resTypeUint = reserveType[reserveId];\n        resType = ReserveType(resTypeUint);\n        isFeeAccountedFlag = (feeAccountedPerType & (1 << resTypeUint)) > 0;\n        isEntitledRebateFlag = (entitledRebatePerType & (1 << resTypeUint)) > 0;\n    }\n\n    function getListedTokensByReserveId(bytes32 reserveId)\n        external\n        view\n        returns (\n            IERC20[] memory srcTokens,\n            IERC20[] memory destTokens\n        )\n    {\n        srcTokens = srcTokensPerReserve[reserveId];\n        destTokens = destTokensPerReserve[reserveId];\n    }\n\n    function getFeeAccountedData(bytes32[] calldata reserveIds)\n        external\n        view\n        override\n        returns (bool[] memory feeAccountedArr)\n    {\n        feeAccountedArr = new bool[](reserveIds.length);\n\n        uint256 feeAccountedData = feeAccountedPerType;\n\n        for (uint256 i = 0; i < reserveIds.length; i++) {\n            feeAccountedArr[i] = (feeAccountedData & (1 << reserveType[reserveIds[i]]) > 0);\n        }\n    }\n\n    function getEntitledRebateData(bytes32[] calldata reserveIds)\n        external\n        view\n        override\n        returns (bool[] memory entitledRebateArr)\n    {\n        entitledRebateArr = new bool[](reserveIds.length);\n\n        uint256 entitledRebateData = entitledRebatePerType;\n\n        for (uint256 i = 0; i < reserveIds.length; i++) {\n            entitledRebateArr[i] = (entitledRebateData & (1 << reserveType[reserveIds[i]]) > 0);\n        }\n    }\n\n    /// @dev Returns information about reserves given their reserve IDs\n    ///      Also check if these reserve IDs are listed for token\n    ///      Network calls this function to retrive information about fee, address and rebate information\n    function getReservesData(bytes32[] calldata reserveIds, IERC20 src, IERC20 dest)\n        external\n        view\n        override\n        returns (\n            bool areAllReservesListed,\n            bool[] memory feeAccountedArr,\n            bool[] memory entitledRebateArr,\n            IKyberReserve[] memory reserveAddresses)\n    {\n        feeAccountedArr = new bool[](reserveIds.length);\n        entitledRebateArr = new bool[](reserveIds.length);\n        reserveAddresses = new IKyberReserve[](reserveIds.length);\n        areAllReservesListed = true;\n\n        uint256 entitledRebateData = entitledRebatePerType;\n        uint256 feeAccountedData = feeAccountedPerType;\n\n        mapping(bytes32 => bool) storage isListedReserveWithToken = (dest == ETH_TOKEN_ADDRESS) ?\n            isListedReserveWithTokenSrc[src]:\n            isListedReserveWithTokenDest[dest];\n\n        for (uint256 i = 0; i < reserveIds.length; i++) {\n            uint256 resType = reserveType[reserveIds[i]];\n            entitledRebateArr[i] = (entitledRebateData & (1 << resType) > 0);\n            feeAccountedArr[i] = (feeAccountedData & (1 << resType) > 0);\n            reserveAddresses[i] = IKyberReserve(reserveIdToAddresses[reserveIds[i]][0]);\n\n            if (!isListedReserveWithToken[reserveIds[i]]){\n                areAllReservesListed = false;\n                break;\n            }\n        }\n    }\n\n    function delistTokensOfReserve(bytes32 reserveId) internal {\n        // token to ether\n        // memory declaration instead of storage because we are modifying the storage array\n        IERC20[] memory tokensArr = srcTokensPerReserve[reserveId];\n        for (uint256 i = 0; i < tokensArr.length; i++) {\n            listPairForReserve(reserveId, tokensArr[i], false, true, false);\n        }\n\n        // ether to token\n        tokensArr = destTokensPerReserve[reserveId];\n        for (uint256 i = 0; i < tokensArr.length; i++) {\n            listPairForReserve(reserveId, tokensArr[i], true, false, false);\n        }\n    }\n\n    function listPairs(\n        bytes32 reserveId,\n        IERC20 token,\n        bool isTokenToEth,\n        bool add\n    ) internal {\n        uint256 i;\n        bytes32[] storage reserveArr = reservesPerTokenDest[token];\n        IERC20[] storage tokensArr = destTokensPerReserve[reserveId];\n        mapping(bytes32 => bool) storage isListedReserveWithToken = isListedReserveWithTokenDest[token];\n\n        if (isTokenToEth) {\n            reserveArr = reservesPerTokenSrc[token];\n            tokensArr = srcTokensPerReserve[reserveId];\n            isListedReserveWithToken = isListedReserveWithTokenSrc[token];\n        }\n\n        for (i = 0; i < reserveArr.length; i++) {\n            if (reserveId == reserveArr[i]) {\n                if (add) {\n                    return; // reserve already added, no further action needed\n                } else {\n                    // remove reserve from reserveArr\n                    reserveArr[i] = reserveArr[reserveArr.length - 1];\n                    reserveArr.pop();\n\n                    break;\n                }\n            }\n        }\n\n        if (add) {\n            // add reserve and token to reserveArr and tokensArr respectively\n            reserveArr.push(reserveId);\n            tokensArr.push(token);\n            isListedReserveWithToken[reserveId] = true;\n        } else {\n            // remove token from tokenArr\n            for (i = 0; i < tokensArr.length; i++) {\n                if (token == tokensArr[i]) {\n                    tokensArr[i] = tokensArr[tokensArr.length - 1];\n                    tokensArr.pop();\n                    break;\n                }\n            }\n            delete isListedReserveWithToken[reserveId];\n        }\n    }\n\n    function onlyNetwork() internal view {\n        require(msg.sender == address(kyberNetwork), \"only kyberNetwork\");\n    }\n}\n",
  "sourcePath": "D:\\Code\\kyber-verified\\contracts\\sol6\\KyberStorage.sol",
  "compiler": {
    "name": "solc",
    "version": "0.6.6+commit.6c089d02.Emscripten.clang"
  },
  "schemaVersion": "3.4.3",
  "updatedAt": "2022-08-07T13:46:17.853Z",
  "devdoc": {
    "methods": {
      "addKyberProxy(address,uint256)": {
        "details": "No. of kyberProxies are capped"
      },
      "addReserve(address,bytes32,uint8,address)": {
        "details": "Adds a reserve to the storage",
        "params": {
          "rebateWallet": "Rebate wallet address for this reserve",
          "resType": "Type of the reserve out of enum ReserveType",
          "reserve": "The reserve address",
          "reserveId": "The reserve ID in 32 bytes."
        }
      },
      "claimAdmin()": {
        "details": "Allows the pendingAdmin address to finalize the change admin process."
      },
      "getContracts()": {
        "details": "Returns list of kyberDao, kyberFeeHandler, kyberMatchingEngine and kyberNetwork contractsIndex 0 is currently used contract address, indexes > 0 are older versions"
      },
      "getReserveAddressesPerTokenSrc(address,uint256,uint256)": {
        "details": "kyberNetwork is calling this function to approve (allowance) for list of reserves for a token      in case we have a long list of reserves, approving all of them could run out of gas      using startIndex and endIndex to prevent above scenario      also enable us to approve reserve one by one"
      },
      "getReservesData(bytes32[],address,address)": {
        "details": "Returns information about reserves given their reserve IDs      Also check if these reserve IDs are listed for token      Network calls this function to retrive information about fee, address and rebate information"
      },
      "listPairForReserve(bytes32,address,bool,bool,bool)": {
        "details": "Allow or prevent a specific reserve to trade a pair of tokens",
        "params": {
          "add": "If true then list this pair, otherwise unlist it",
          "ethToToken": "Will it support ether to token trade",
          "reserveId": "The reserve id",
          "token": "Token address",
          "tokenToEth": "Will it support token to ether trade"
        }
      },
      "removeReserve(bytes32,uint256)": {
        "details": "Removes a reserve from the storage",
        "params": {
          "reserveId": "The reserve id",
          "startIndex": "Index to start searching from in reserve array"
        }
      },
      "transferAdmin(address)": {
        "details": "Allows the current admin to set the pendingAdmin address",
        "params": {
          "newAdmin": "The address to transfer ownership to"
        }
      },
      "transferAdminQuickly(address)": {
        "details": "Allows the current admin to set the admin in one tx. Useful initial deployment.",
        "params": {
          "newAdmin": "The address to transfer ownership to."
        }
      }
    },
    "title": "kyberStorage contract  The contract provides the following functions for kyberNetwork contract:  - Stores reserve and token listing information by the kyberNetwork  - Stores feeAccounted data for reserve types  - Record contract changes for reserves and kyberProxies  - Points to historical contracts that record contract changes for kyberNetwork,       kyberFeeHandler, kyberDao and kyberMatchingEngine"
  },
  "userdoc": {
    "methods": {
      "addReserve(address,bytes32,uint8,address)": {
        "notice": "Can be called only by operator"
      },
      "getContracts()": {
        "notice": "Should be called off chain"
      },
      "getKyberProxies()": {
        "notice": "Should be called off chain"
      },
      "getReserveDetailsByAddress(address)": {
        "notice": "Returns information about a reserve given its reserve ID"
      },
      "getReserveDetailsById(bytes32)": {
        "notice": "Returns information about a reserve given its reserve ID"
      },
      "getReserves()": {
        "notice": "Should be called off chain"
      },
      "listPairForReserve(bytes32,address,bool,bool,bool)": {
        "notice": "Can be called only by operator"
      },
      "removeReserve(bytes32,uint256)": {
        "notice": "Can be called only by operator"
      }
    }
  }
}