{
  "contractName": "KyberFeeHandlerWrapper",
  "abi": [
    {
      "inputs": [
        {
          "internalType": "contract IKyberDao",
          "name": "_kyberDao",
          "type": "address"
        },
        {
          "internalType": "address",
          "name": "_daoOperator",
          "type": "address"
        }
      ],
      "stateMutability": "nonpayable",
      "type": "constructor"
    },
    {
      "anonymous": false,
      "inputs": [
        {
          "indexed": false,
          "internalType": "contract IERC20",
          "name": "token",
          "type": "address"
        },
        {
          "indexed": false,
          "internalType": "contract IFeeHandler",
          "name": "kyberFeeHandler",
          "type": "address"
        }
      ],
      "name": "FeeHandlerAdded",
      "type": "event"
    },
    {
      "inputs": [],
      "name": "daoOperator",
      "outputs": [
        {
          "internalType": "address",
          "name": "",
          "type": "address"
        }
      ],
      "stateMutability": "view",
      "type": "function"
    },
    {
      "inputs": [],
      "name": "daoSetter",
      "outputs": [
        {
          "internalType": "address",
          "name": "",
          "type": "address"
        }
      ],
      "stateMutability": "view",
      "type": "function"
    },
    {
      "inputs": [],
      "name": "kyberDao",
      "outputs": [
        {
          "internalType": "contract IKyberDao",
          "name": "",
          "type": "address"
        }
      ],
      "stateMutability": "view",
      "type": "function"
    },
    {
      "inputs": [
        {
          "internalType": "contract IERC20",
          "name": "_token",
          "type": "address"
        },
        {
          "internalType": "contract IFeeHandler",
          "name": "_kyberFeeHandler",
          "type": "address"
        }
      ],
      "name": "addFeeHandler",
      "outputs": [],
      "stateMutability": "nonpayable",
      "type": "function"
    },
    {
      "inputs": [
        {
          "internalType": "address",
          "name": "staker",
          "type": "address"
        },
        {
          "internalType": "uint256",
          "name": "epoch",
          "type": "uint256"
        },
        {
          "internalType": "uint256",
          "name": "startTokenIndex",
          "type": "uint256"
        },
        {
          "internalType": "uint256",
          "name": "endTokenIndex",
          "type": "uint256"
        },
        {
          "internalType": "uint256",
          "name": "startKyberFeeHandlerIndex",
          "type": "uint256"
        },
        {
          "internalType": "uint256",
          "name": "endKyberFeeHandlerIndex",
          "type": "uint256"
        }
      ],
      "name": "claimStakerReward",
      "outputs": [
        {
          "internalType": "uint256[]",
          "name": "amounts",
          "type": "uint256[]"
        }
      ],
      "stateMutability": "nonpayable",
      "type": "function"
    },
    {
      "inputs": [
        {
          "internalType": "address",
          "name": "rebateWallet",
          "type": "address"
        },
        {
          "internalType": "uint256",
          "name": "startTokenIndex",
          "type": "uint256"
        },
        {
          "internalType": "uint256",
          "name": "endTokenIndex",
          "type": "uint256"
        },
        {
          "internalType": "uint256",
          "name": "startKyberFeeHandlerIndex",
          "type": "uint256"
        },
        {
          "internalType": "uint256",
          "name": "endKyberFeeHandlerIndex",
          "type": "uint256"
        }
      ],
      "name": "claimReserveRebate",
      "outputs": [
        {
          "internalType": "uint256[]",
          "name": "amounts",
          "type": "uint256[]"
        }
      ],
      "stateMutability": "nonpayable",
      "type": "function"
    },
    {
      "inputs": [
        {
          "internalType": "address",
          "name": "platformWallet",
          "type": "address"
        },
        {
          "internalType": "uint256",
          "name": "startTokenIndex",
          "type": "uint256"
        },
        {
          "internalType": "uint256",
          "name": "endTokenIndex",
          "type": "uint256"
        },
        {
          "internalType": "uint256",
          "name": "startKyberFeeHandlerIndex",
          "type": "uint256"
        },
        {
          "internalType": "uint256",
          "name": "endKyberFeeHandlerIndex",
          "type": "uint256"
        }
      ],
      "name": "claimPlatformFee",
      "outputs": [
        {
          "internalType": "uint256[]",
          "name": "amounts",
          "type": "uint256[]"
        }
      ],
      "stateMutability": "nonpayable",
      "type": "function"
    },
    {
      "inputs": [
        {
          "internalType": "contract IERC20",
          "name": "token",
          "type": "address"
        }
      ],
      "name": "getKyberFeeHandlersPerToken",
      "outputs": [
        {
          "internalType": "contract IFeeHandler[]",
          "name": "kyberFeeHandlers",
          "type": "address[]"
        },
        {
          "internalType": "uint256[]",
          "name": "epochs",
          "type": "uint256[]"
        }
      ],
      "stateMutability": "view",
      "type": "function"
    },
    {
      "inputs": [],
      "name": "getSupportedTokens",
      "outputs": [
        {
          "internalType": "contract IERC20[]",
          "name": "",
          "type": "address[]"
        }
      ],
      "stateMutability": "view",
      "type": "function"
    }
  ],
  "bytecode": "0x60a060405234801561001057600080fd5b506040516112133803806112138339818101604052604081101561003357600080fd5b508051602090910151806001600160a01b03811661008b576040805162461bcd60e51b815260206004820152601060248201526f064616f4f70657261746f7220697320360841b604482015290519081900360640190fd5b600080546001600160a01b0319166001600160a01b0392831617905582166100e7576040805162461bcd60e51b815260206004820152600a60248201526906b7962657244616f20360b41b604482015290519081900360640190fd5b50606081901b6001600160601b0319166080526001600160a01b03166110f461011f600039806104245280610fdb52506110f46000f3fe608060405234801561001057600080fd5b50600436106100935760003560e01c80637ee1506d116100665780637ee1506d1461024d5780638c9bc2081461027d578063a54b074d14610285578063b6981e2c146102c3578063d3c7c2c7146102cb57610093565b80632e399f3b146100985780634d8f5105146101575780636b6835751461017b5780636d8622cd14610209575b600080fd5b6100be600480360360208110156100ae57600080fd5b50356001600160a01b03166102d3565b604051808060200180602001838103835285818151815260200191508051906020019060200280838360005b838110156101025781810151838201526020016100ea565b50505050905001838103825284818151815260200191508051906020019060200280838360005b83811015610141578181015183820152602001610129565b5050505090500194505050505060405180910390f35b61015f610422565b604080516001600160a01b039092168252519081900360200190f35b6101b9600480360360a081101561019157600080fd5b506001600160a01b038135169060208101359060408101359060608101359060800135610446565b60408051602080825283518183015283519192839290830191858101910280838360005b838110156101f55781810151838201526020016101dd565b505050509050019250505060405180910390f35b6101b9600480360360c081101561021f57600080fd5b506001600160a01b038135169060208101359060408101359060608101359060808101359060a00135610746565b61027b6004803603604081101561026357600080fd5b506001600160a01b0381358116916020013516610aa4565b005b61015f610b6a565b6101b9600480360360a081101561029b57600080fd5b506001600160a01b038135169060208101359060408101359060608101359060800135610b79565b61015f610e6d565b6101b9610e7c565b6001600160a01b03811660009081526002602052604090208054606091829167ffffffffffffffff8111801561030857600080fd5b50604051908082528060200260200182016040528015610332578160200160208202803683370190505b50815490935067ffffffffffffffff8111801561034e57600080fd5b50604051908082528060200260200182016040528015610378578160200160208202803683370190505b50915060005b815481101561041b5781818154811061039357fe5b600091825260209091206002909102015484516001600160a01b03909116908590839081106103be57fe5b60200260200101906001600160a01b031690816001600160a01b0316815250508181815481106103ea57fe5b90600052602060002090600202016001015483828151811061040857fe5b602090810291909101015260010161037e565b5050915091565b7f000000000000000000000000000000000000000000000000000000000000000081565b60608385118061045557508183115b806104605750600154155b1561046a5761073d565b60015460009085101561047d5784610481565b6001545b9050855b8181101561073a57606060026000600184815481106104a057fe5b60009182526020808320909101546001600160a01b031683528281019390935260409182018120805483518186028101860190945280845292939092919084015b82821015610529576000848152602090819020604080518082019091526002850290910180546001600160a01b031682526001908101548284015290835290920191016104e1565b505050509050600081518610156105405785610543565b81515b90508681101561058e576040805162461bcd60e51b815260206004820152601160248201527062616420617272617920696e646963657360781b604482015290519081900360640190fd5b86810360010167ffffffffffffffff811180156105aa57600080fd5b506040519080825280602002602001820160405280156105d4578160200160208202803683370190505b509450865b8181101561072f5760008382815181106105ef57fe5b60200260200101516000015190506001816001600160a01b031663579d6b748e6040518263ffffffff1660e01b815260040180826001600160a01b03166001600160a01b0316815260200191505060206040518083038186803b15801561065557600080fd5b505afa158015610669573d6000803e3d6000fd5b505050506040513d602081101561067f57600080fd5b5051111561072657806001600160a01b031663c01bdf048d6040518263ffffffff1660e01b815260040180826001600160a01b03166001600160a01b03168152602001915050602060405180830381600087803b1580156106df57600080fd5b505af11580156106f3573d6000803e3d6000fd5b505050506040513d602081101561070957600080fd5b5051875188908490811061071957fe5b6020026020010181815250505b506001016105d9565b505050600101610485565b50505b95945050505050565b60608385118061075557508183115b806107605750600154155b1561076a57610a9a565b60015460009085101561077d5784610781565b6001545b9050855b81811015610a9757606060026000600184815481106107a057fe5b60009182526020808320909101546001600160a01b031683528281019390935260409182018120805483518186028101860190945280845292939092919084015b82821015610829576000848152602090819020604080518082019091526002850290910180546001600160a01b031682526001908101548284015290835290920191016107e1565b505050509050600081518610156108435760018603610849565b60018251035b905086811015610894576040805162461bcd60e51b815260206004820152601160248201527062616420617272617920696e646963657360781b604482015290519081900360640190fd5b86810360010167ffffffffffffffff811180156108b057600080fd5b506040519080825280602002602001820160405280156108da578160200160208202803683370190505b509450805b878110610a8c576108ee6110a7565b8382815181106108fa57fe5b602002602001015190508b816020015110156109c05780600001516001600160a01b03166353fa2eb78e8e6040518363ffffffff1660e01b815260040180836001600160a01b03166001600160a01b0316815260200182815260200192505050602060405180830381600087803b15801561097457600080fd5b505af1158015610988573d6000803e3d6000fd5b505050506040513d602081101561099e57600080fd5b505187518890849081106109ae57fe5b60200260200101818152505050610a8c565b8b81602001511415610a775780600001516001600160a01b03166353fa2eb78e8e6040518363ffffffff1660e01b815260040180836001600160a01b03166001600160a01b0316815260200182815260200192505050602060405180830381600087803b158015610a3057600080fd5b505af1158015610a44573d6000803e3d6000fd5b505050506040513d6020811015610a5a57600080fd5b50518751889084908110610a6a57fe5b6020026020010181815250505b81610a825750610a8c565b50600019016108df565b505050600101610785565b50505b9695505050505050565b6000546001600160a01b03163314610af6576040805162461bcd60e51b815260206004820152601060248201526f37b7363c903230b7a7b832b930ba37b960811b604482015290519081900360640190fd5b610aff82610ede565b6001600160a01b0382166000908152600260205260409020610b219082610f74565b604080516001600160a01b0380851682528316602082015281517fa13f1262118f89247f7eb84e96240e19309ca4dc723d1ab0965c3e7a87a4f725929181900390910190a15050565b6000546001600160a01b031681565b606083851180610b8857508183115b80610b935750600154155b15610b9d5761073d565b600154600090851015610bb05784610bb4565b6001545b9050855b8181101561073a5760606002600060018481548110610bd357fe5b60009182526020808320909101546001600160a01b031683528281019390935260409182018120805483518186028101860190945280845292939092919084015b82821015610c5c576000848152602090819020604080518082019091526002850290910180546001600160a01b03168252600190810154828401529083529092019101610c14565b50505050905060008151861015610c735785610c76565b81515b905086811015610cc1576040805162461bcd60e51b815260206004820152601160248201527062616420617272617920696e646963657360781b604482015290519081900360640190fd5b86810360010167ffffffffffffffff81118015610cdd57600080fd5b50604051908082528060200260200182016040528015610d07578160200160208202803683370190505b509450865b81811015610e62576000838281518110610d2257fe5b60200260200101516000015190506001816001600160a01b031663033395138e6040518263ffffffff1660e01b815260040180826001600160a01b03166001600160a01b0316815260200191505060206040518083038186803b158015610d8857600080fd5b505afa158015610d9c573d6000803e3d6000fd5b505050506040513d6020811015610db257600080fd5b50511115610e5957806001600160a01b0316639907672a8d6040518263ffffffff1660e01b815260040180826001600160a01b03166001600160a01b03168152602001915050602060405180830381600087803b158015610e1257600080fd5b505af1158015610e26573d6000803e3d6000fd5b505050506040513d6020811015610e3c57600080fd5b50518751889084908110610e4c57fe5b6020026020010181815250505b50600101610d0c565b505050600101610bb8565b6003546001600160a01b031681565b60606001805480602002602001604051908101604052809291908181526020018280548015610ed457602002820191906000526020600020905b81546001600160a01b03168152600190910190602001808311610eb6575b5050505050905090565b60005b600154811015610f255760018181548110610ef857fe5b6000918252602090912001546001600160a01b0383811691161415610f1d5750610f71565b600101610ee1565b506001805480820182556000919091527fb10e2d527612073b26eecdfd717e6a320cf44b4afac2b0732d9fcbe2b7fa0cf60180546001600160a01b0319166001600160a01b0383161790555b50565b60005b8254811015610fbe57828181548110610f8c57fe5b60009182526020909120600290910201546001600160a01b0383811691161415610fb657506110a3565b600101610f77565b826040518060400160405280846001600160a01b031681526020017f00000000000000000000000000000000000000000000000000000000000000006001600160a01b0316634408d2ba6040518163ffffffff1660e01b815260040160206040518083038186803b15801561103257600080fd5b505afa158015611046573d6000803e3d6000fd5b505050506040513d602081101561105c57600080fd5b505190528154600180820184556000938452602093849020835160029093020180546001600160a01b0319166001600160a01b039093169290921782559190920151910155505b5050565b60408051808201909152600080825260208201529056fea26469706673582212209e29b20b8fc13abee1d2f7987017e8d86f40d75d32556c2f4be9aae31f8cc98164736f6c63430006060033",
  "immutableReferences": {
    "12040": [
      {
        "length": 32,
        "start": 1060
      },
      {
        "length": 32,
        "start": 4059
      }
    ]
  },
  "source": "pragma solidity 0.6.6;\n\nimport \"../../utils/Utils5.sol\";\nimport \"../../utils/zeppelin/ReentrancyGuard.sol\";\nimport \"../../utils/zeppelin/SafeERC20.sol\";\nimport \"../../utils/zeppelin/SafeMath.sol\";\nimport \"../../IKyberDao.sol\";\nimport \"../../IKyberFeeHandler.sol\";\nimport \"../DaoOperator.sol\";\n\ninterface IFeeHandler is IKyberFeeHandler {\n    function feePerPlatformWallet(address) external view returns (uint256);\n    function rebatePerWallet(address) external view returns (uint256);\n}\n\n\ncontract KyberFeeHandlerWrapper is DaoOperator {\n    using SafeMath for uint256;\n    using SafeERC20 for IERC20;\n\n    struct KyberFeeHandlerData {\n        IFeeHandler kyberFeeHandler;\n        uint256 startEpoch;\n    }\n\n    IKyberDao public immutable kyberDao;\n    IERC20[] internal supportedTokens;\n    mapping(IERC20 => KyberFeeHandlerData[]) internal kyberFeeHandlersPerToken;\n    address public daoSetter;\n\n    event FeeHandlerAdded(IERC20 token, IFeeHandler kyberFeeHandler);\n\n    constructor(\n        IKyberDao _kyberDao,\n        address _daoOperator\n    ) public DaoOperator(_daoOperator) {\n        require(_kyberDao != IKyberDao(0), \"kyberDao 0\");\n        kyberDao = _kyberDao;\n    }\n\n    function addFeeHandler(IERC20 _token, IFeeHandler _kyberFeeHandler) external onlyDaoOperator {\n        addTokenToSupportedTokensArray(_token);\n        addFeeHandlerToKyberFeeHandlerArray(kyberFeeHandlersPerToken[_token], _kyberFeeHandler);\n        emit FeeHandlerAdded(_token, _kyberFeeHandler);\n    }\n\n    /// @dev claim from multiple feeHandlers\n    /// @param staker staker address\n    /// @param epoch epoch for which the staker is claiming the reward\n    /// @param startTokenIndex index of supportedTokens to start iterating from (inclusive)\n    /// @param endTokenIndex index of supportedTokens to end iterating to (exclusive)\n    /// @param startKyberFeeHandlerIndex index of feeHandlerArray to start iterating from (inclusive)\n    /// @param endKyberFeeHandlerIndex index of feeHandlerArray to end iterating to (exclusive)\n    /// @return amounts staker reward wei / twei amount claimed from each feeHandler\n    function claimStakerReward(\n        address staker,\n        uint256 epoch,\n        uint256 startTokenIndex,\n        uint256 endTokenIndex,\n        uint256 startKyberFeeHandlerIndex,\n        uint256 endKyberFeeHandlerIndex\n    ) external returns(uint256[] memory amounts) {\n        if (\n            startTokenIndex > endTokenIndex ||\n            startKyberFeeHandlerIndex > endKyberFeeHandlerIndex ||\n            supportedTokens.length == 0\n        ) {\n            // no need to do anything\n            return amounts;\n        }\n\n        uint256 endTokenId = (endTokenIndex >= supportedTokens.length) ?\n            supportedTokens.length : endTokenIndex;\n\n        for (uint256 i = startTokenIndex; i < endTokenId; i++) {\n            KyberFeeHandlerData[] memory kyberFeeHandlerArray = kyberFeeHandlersPerToken[supportedTokens[i]];\n            uint256 endKyberFeeHandlerId = (endKyberFeeHandlerIndex >= kyberFeeHandlerArray.length) ?\n                kyberFeeHandlerArray.length - 1: endKyberFeeHandlerIndex - 1;\n            require(endKyberFeeHandlerId >= startKyberFeeHandlerIndex, \"bad array indices\");\n            amounts = new uint256[](endKyberFeeHandlerId - startKyberFeeHandlerIndex + 1);\n\n            // iteration starts from endIndex, differs from claiming reserve rebates and platform wallets\n            for (uint256 j = endKyberFeeHandlerId; j >= startKyberFeeHandlerIndex; j--) {\n                KyberFeeHandlerData memory kyberFeeHandlerData = kyberFeeHandlerArray[j];\n                if (kyberFeeHandlerData.startEpoch < epoch) {\n                    amounts[j] = kyberFeeHandlerData.kyberFeeHandler.claimStakerReward(staker, epoch);\n                    break;\n                } else if (kyberFeeHandlerData.startEpoch == epoch) {\n                    amounts[j] = kyberFeeHandlerData.kyberFeeHandler.claimStakerReward(staker, epoch);\n                }\n\n                if (j == 0) {\n                    break;\n                }\n            }\n        }\n    }\n\n    /// @dev claim reabate per reserve wallet. called by any address\n    /// @param rebateWallet the wallet to claim rebates for. Total accumulated rebate sent to this wallet\n    /// @param startTokenIndex index of supportedTokens to start iterating from (inclusive)\n    /// @param endTokenIndex index of supportedTokens to end iterating to (exclusive)\n    /// @param startKyberFeeHandlerIndex index of feeHandlerArray to start iterating from (inclusive)\n    /// @param endKyberFeeHandlerIndex index of feeHandlerArray to end iterating to (exclusive)\n    /// @return amounts reserve rebate wei / twei amount claimed from each feeHandler\n    function claimReserveRebate(\n        address rebateWallet,\n        uint256 startTokenIndex,\n        uint256 endTokenIndex,\n        uint256 startKyberFeeHandlerIndex,\n        uint256 endKyberFeeHandlerIndex\n    ) external returns (uint256[] memory amounts) \n    {\n        if (\n            startTokenIndex > endTokenIndex ||\n            startKyberFeeHandlerIndex > endKyberFeeHandlerIndex ||\n            supportedTokens.length == 0\n        ) {\n            // no need to do anything\n            return amounts;\n        }\n\n        uint256 endTokenId = (endTokenIndex >= supportedTokens.length) ?\n            supportedTokens.length : endTokenIndex;\n\n        for (uint256 i = startTokenIndex; i < endTokenId; i++) {\n            KyberFeeHandlerData[] memory kyberFeeHandlerArray = kyberFeeHandlersPerToken[supportedTokens[i]];\n            uint256 endKyberFeeHandlerId = (endKyberFeeHandlerIndex >= kyberFeeHandlerArray.length) ?\n                kyberFeeHandlerArray.length : endKyberFeeHandlerIndex;\n            require(endKyberFeeHandlerId >= startKyberFeeHandlerIndex, \"bad array indices\");\n            amounts = new uint256[](endKyberFeeHandlerId - startKyberFeeHandlerIndex + 1);\n            \n            for (uint256 j = startKyberFeeHandlerIndex; j < endKyberFeeHandlerId; j++) {\n                IFeeHandler feeHandler = kyberFeeHandlerArray[j].kyberFeeHandler;\n                if (feeHandler.rebatePerWallet(rebateWallet) > 1) {\n                    amounts[j] = feeHandler.claimReserveRebate(rebateWallet);\n                }\n            }\n        }\n    }\n\n    /// @dev claim accumulated fee per platform wallet. Called by any address\n    /// @param platformWallet the wallet to claim fee for. Total accumulated fee sent to this wallet\n    /// @param startTokenIndex index of supportedTokens to start iterating from (inclusive)\n    /// @param endTokenIndex index of supportedTokens to end iterating to (exclusive)\n    /// @param startKyberFeeHandlerIndex index of feeHandlerArray to start iterating from (inclusive)\n    /// @param endKyberFeeHandlerIndex index of feeHandlerArray to end iterating to (exclusive)\n    /// @return amounts platform fee wei / twei amount claimed from each feeHandler\n    function claimPlatformFee(\n        address platformWallet,\n        uint256 startTokenIndex,\n        uint256 endTokenIndex,\n        uint256 startKyberFeeHandlerIndex,\n        uint256 endKyberFeeHandlerIndex\n    ) external returns (uint256[] memory amounts)\n    {\n        if (\n            startTokenIndex > endTokenIndex ||\n            startKyberFeeHandlerIndex > endKyberFeeHandlerIndex ||\n            supportedTokens.length == 0\n        ) {\n            // no need to do anything\n            return amounts;\n        }\n\n        uint256 endTokenId = (endTokenIndex >= supportedTokens.length) ?\n            supportedTokens.length : endTokenIndex;\n\n        for (uint256 i = startTokenIndex; i < endTokenId; i++) {\n            KyberFeeHandlerData[] memory kyberFeeHandlerArray = kyberFeeHandlersPerToken[supportedTokens[i]];\n            uint256 endKyberFeeHandlerId = (endKyberFeeHandlerIndex >= kyberFeeHandlerArray.length) ?\n                kyberFeeHandlerArray.length : endKyberFeeHandlerIndex;\n            require(endKyberFeeHandlerId >= startKyberFeeHandlerIndex, \"bad array indices\");\n            amounts = new uint256[](endKyberFeeHandlerId - startKyberFeeHandlerIndex + 1);\n\n            for (uint256 j = startKyberFeeHandlerIndex; j < endKyberFeeHandlerId; j++) {\n                IFeeHandler feeHandler = kyberFeeHandlerArray[j].kyberFeeHandler;\n                if (feeHandler.feePerPlatformWallet(platformWallet) > 1) {\n                    amounts[j] = feeHandler.claimPlatformFee(platformWallet);\n                }\n            }\n        }\n    }\n\n    function getKyberFeeHandlersPerToken(IERC20 token) external view returns (\n        IFeeHandler[] memory kyberFeeHandlers,\n        uint256[] memory epochs\n        )\n    {\n        KyberFeeHandlerData[] storage kyberFeeHandlerData = kyberFeeHandlersPerToken[token];\n        kyberFeeHandlers = new IFeeHandler[](kyberFeeHandlerData.length);\n        epochs = new uint256[](kyberFeeHandlerData.length);\n        for (uint i = 0; i < kyberFeeHandlerData.length; i++) {\n            kyberFeeHandlers[i] = kyberFeeHandlerData[i].kyberFeeHandler;\n            epochs[i] = kyberFeeHandlerData[i].startEpoch;\n        }\n    }\n    \n    function getSupportedTokens() external view returns (IERC20[] memory) {\n        return supportedTokens;\n    }\n\n    function addTokenToSupportedTokensArray(IERC20 _token) internal {\n        uint256 i;\n        for (i = 0; i < supportedTokens.length; i++) {\n            if (_token == supportedTokens[i]) {\n                // already added, return\n                return;\n            }\n        }\n        supportedTokens.push(_token);\n    }\n\n    function addFeeHandlerToKyberFeeHandlerArray(\n        KyberFeeHandlerData[] storage kyberFeeHandlerArray,\n        IFeeHandler _kyberFeeHandler\n    ) internal {\n        uint256 i;\n        for (i = 0; i < kyberFeeHandlerArray.length; i++) {\n            if (_kyberFeeHandler == kyberFeeHandlerArray[i].kyberFeeHandler) {\n                // already added, return\n                return;\n            }\n        }\n        kyberFeeHandlerArray.push(KyberFeeHandlerData({\n            kyberFeeHandler: _kyberFeeHandler,\n            startEpoch: kyberDao.getCurrentEpochNumber()\n            })\n        );\n    }\n}\n",
  "sourcePath": "D:\\Code\\kyber-verified\\contracts\\sol6\\Dao\\mock\\KyberFeeHandlerWrapper.sol",
  "compiler": {
    "name": "solc",
    "version": "0.6.6+commit.6c089d02.Emscripten.clang"
  },
  "schemaVersion": "3.4.3",
  "updatedAt": "2022-08-07T13:46:17.597Z",
  "devdoc": {
    "methods": {
      "claimPlatformFee(address,uint256,uint256,uint256,uint256)": {
        "details": "claim accumulated fee per platform wallet. Called by any address",
        "params": {
          "endKyberFeeHandlerIndex": "index of feeHandlerArray to end iterating to (exclusive)",
          "endTokenIndex": "index of supportedTokens to end iterating to (exclusive)",
          "platformWallet": "the wallet to claim fee for. Total accumulated fee sent to this wallet",
          "startKyberFeeHandlerIndex": "index of feeHandlerArray to start iterating from (inclusive)",
          "startTokenIndex": "index of supportedTokens to start iterating from (inclusive)"
        },
        "returns": {
          "amounts": "platform fee wei / twei amount claimed from each feeHandler"
        }
      },
      "claimReserveRebate(address,uint256,uint256,uint256,uint256)": {
        "details": "claim reabate per reserve wallet. called by any address",
        "params": {
          "endKyberFeeHandlerIndex": "index of feeHandlerArray to end iterating to (exclusive)",
          "endTokenIndex": "index of supportedTokens to end iterating to (exclusive)",
          "rebateWallet": "the wallet to claim rebates for. Total accumulated rebate sent to this wallet",
          "startKyberFeeHandlerIndex": "index of feeHandlerArray to start iterating from (inclusive)",
          "startTokenIndex": "index of supportedTokens to start iterating from (inclusive)"
        },
        "returns": {
          "amounts": "reserve rebate wei / twei amount claimed from each feeHandler"
        }
      },
      "claimStakerReward(address,uint256,uint256,uint256,uint256,uint256)": {
        "details": "claim from multiple feeHandlers",
        "params": {
          "endKyberFeeHandlerIndex": "index of feeHandlerArray to end iterating to (exclusive)",
          "endTokenIndex": "index of supportedTokens to end iterating to (exclusive)",
          "epoch": "epoch for which the staker is claiming the reward",
          "staker": "staker address",
          "startKyberFeeHandlerIndex": "index of feeHandlerArray to start iterating from (inclusive)",
          "startTokenIndex": "index of supportedTokens to start iterating from (inclusive)"
        },
        "returns": {
          "amounts": "staker reward wei / twei amount claimed from each feeHandler"
        }
      }
    }
  },
  "userdoc": {
    "methods": {}
  }
}