{
  "contractName": "KyberNetworkNoMaxDest",
  "abi": [
    {
      "inputs": [
        {
          "internalType": "address",
          "name": "_admin",
          "type": "address"
        },
        {
          "internalType": "contract IKyberStorage",
          "name": "_kyberStorage",
          "type": "address"
        }
      ],
      "stateMutability": "nonpayable",
      "type": "constructor"
    },
    {
      "anonymous": false,
      "inputs": [
        {
          "indexed": false,
          "internalType": "address",
          "name": "newAdmin",
          "type": "address"
        },
        {
          "indexed": false,
          "internalType": "address",
          "name": "previousAdmin",
          "type": "address"
        }
      ],
      "name": "AdminClaimed",
      "type": "event"
    },
    {
      "anonymous": false,
      "inputs": [
        {
          "indexed": false,
          "internalType": "address",
          "name": "newAlerter",
          "type": "address"
        },
        {
          "indexed": false,
          "internalType": "bool",
          "name": "isAdd",
          "type": "bool"
        }
      ],
      "name": "AlerterAdded",
      "type": "event"
    },
    {
      "anonymous": false,
      "inputs": [
        {
          "indexed": true,
          "internalType": "address",
          "name": "sender",
          "type": "address"
        },
        {
          "indexed": false,
          "internalType": "uint256",
          "name": "amount",
          "type": "uint256"
        }
      ],
      "name": "EtherReceival",
      "type": "event"
    },
    {
      "anonymous": false,
      "inputs": [
        {
          "indexed": false,
          "internalType": "uint256",
          "name": "amount",
          "type": "uint256"
        },
        {
          "indexed": false,
          "internalType": "address",
          "name": "sendTo",
          "type": "address"
        }
      ],
      "name": "EtherWithdraw",
      "type": "event"
    },
    {
      "anonymous": false,
      "inputs": [
        {
          "indexed": false,
          "internalType": "contract IGasHelper",
          "name": "newGasHelper",
          "type": "address"
        }
      ],
      "name": "GasHelperUpdated",
      "type": "event"
    },
    {
      "anonymous": false,
      "inputs": [
        {
          "indexed": false,
          "internalType": "contract IKyberDao",
          "name": "newKyberDao",
          "type": "address"
        }
      ],
      "name": "KyberDaoUpdated",
      "type": "event"
    },
    {
      "anonymous": false,
      "inputs": [
        {
          "indexed": false,
          "internalType": "contract IKyberFeeHandler",
          "name": "newKyberFeeHandler",
          "type": "address"
        }
      ],
      "name": "KyberFeeHandlerUpdated",
      "type": "event"
    },
    {
      "anonymous": false,
      "inputs": [
        {
          "indexed": false,
          "internalType": "contract IKyberMatchingEngine",
          "name": "newKyberMatchingEngine",
          "type": "address"
        }
      ],
      "name": "KyberMatchingEngineUpdated",
      "type": "event"
    },
    {
      "anonymous": false,
      "inputs": [
        {
          "indexed": false,
          "internalType": "uint256",
          "name": "maxGasPrice",
          "type": "uint256"
        },
        {
          "indexed": false,
          "internalType": "uint256",
          "name": "negligibleRateDiffBps",
          "type": "uint256"
        }
      ],
      "name": "KyberNetworkParamsSet",
      "type": "event"
    },
    {
      "anonymous": false,
      "inputs": [
        {
          "indexed": false,
          "internalType": "bool",
          "name": "isEnabled",
          "type": "bool"
        }
      ],
      "name": "KyberNetworkSetEnable",
      "type": "event"
    },
    {
      "anonymous": false,
      "inputs": [
        {
          "indexed": false,
          "internalType": "address",
          "name": "kyberProxy",
          "type": "address"
        }
      ],
      "name": "KyberProxyAdded",
      "type": "event"
    },
    {
      "anonymous": false,
      "inputs": [
        {
          "indexed": false,
          "internalType": "address",
          "name": "kyberProxy",
          "type": "address"
        }
      ],
      "name": "KyberProxyRemoved",
      "type": "event"
    },
    {
      "anonymous": false,
      "inputs": [
        {
          "indexed": true,
          "internalType": "contract IERC20",
          "name": "src",
          "type": "address"
        },
        {
          "indexed": true,
          "internalType": "contract IERC20",
          "name": "dest",
          "type": "address"
        },
        {
          "indexed": false,
          "internalType": "uint256",
          "name": "ethWeiValue",
          "type": "uint256"
        },
        {
          "indexed": false,
          "internalType": "uint256",
          "name": "networkFeeWei",
          "type": "uint256"
        },
        {
          "indexed": false,
          "internalType": "uint256",
          "name": "customPlatformFeeWei",
          "type": "uint256"
        },
        {
          "indexed": false,
          "internalType": "bytes32[]",
          "name": "t2eIds",
          "type": "bytes32[]"
        },
        {
          "indexed": false,
          "internalType": "bytes32[]",
          "name": "e2tIds",
          "type": "bytes32[]"
        },
        {
          "indexed": false,
          "internalType": "uint256[]",
          "name": "t2eSrcAmounts",
          "type": "uint256[]"
        },
        {
          "indexed": false,
          "internalType": "uint256[]",
          "name": "e2tSrcAmounts",
          "type": "uint256[]"
        },
        {
          "indexed": false,
          "internalType": "uint256[]",
          "name": "t2eRates",
          "type": "uint256[]"
        },
        {
          "indexed": false,
          "internalType": "uint256[]",
          "name": "e2tRates",
          "type": "uint256[]"
        }
      ],
      "name": "KyberTrade",
      "type": "event"
    },
    {
      "anonymous": false,
      "inputs": [
        {
          "indexed": true,
          "internalType": "contract IERC20",
          "name": "token",
          "type": "address"
        },
        {
          "indexed": false,
          "internalType": "address[]",
          "name": "reserves",
          "type": "address[]"
        },
        {
          "indexed": false,
          "internalType": "bool",
          "name": "add",
          "type": "bool"
        }
      ],
      "name": "ListedReservesForToken",
      "type": "event"
    },
    {
      "anonymous": false,
      "inputs": [
        {
          "indexed": false,
          "internalType": "address",
          "name": "newOperator",
          "type": "address"
        },
        {
          "indexed": false,
          "internalType": "bool",
          "name": "isAdd",
          "type": "bool"
        }
      ],
      "name": "OperatorAdded",
      "type": "event"
    },
    {
      "anonymous": false,
      "inputs": [
        {
          "indexed": false,
          "internalType": "contract IERC20",
          "name": "token",
          "type": "address"
        },
        {
          "indexed": false,
          "internalType": "uint256",
          "name": "amount",
          "type": "uint256"
        },
        {
          "indexed": false,
          "internalType": "address",
          "name": "sendTo",
          "type": "address"
        }
      ],
      "name": "TokenWithdraw",
      "type": "event"
    },
    {
      "anonymous": false,
      "inputs": [
        {
          "indexed": false,
          "internalType": "address",
          "name": "pendingAdmin",
          "type": "address"
        }
      ],
      "name": "TransferAdminPending",
      "type": "event"
    },
    {
      "inputs": [
        {
          "internalType": "address",
          "name": "newAlerter",
          "type": "address"
        }
      ],
      "name": "addAlerter",
      "outputs": [],
      "stateMutability": "nonpayable",
      "type": "function"
    },
    {
      "inputs": [
        {
          "internalType": "address",
          "name": "kyberProxy",
          "type": "address"
        }
      ],
      "name": "addKyberProxy",
      "outputs": [],
      "stateMutability": "nonpayable",
      "type": "function"
    },
    {
      "inputs": [
        {
          "internalType": "address",
          "name": "newOperator",
          "type": "address"
        }
      ],
      "name": "addOperator",
      "outputs": [],
      "stateMutability": "nonpayable",
      "type": "function"
    },
    {
      "inputs": [],
      "name": "admin",
      "outputs": [
        {
          "internalType": "address",
          "name": "",
          "type": "address"
        }
      ],
      "stateMutability": "view",
      "type": "function"
    },
    {
      "inputs": [],
      "name": "claimAdmin",
      "outputs": [],
      "stateMutability": "nonpayable",
      "type": "function"
    },
    {
      "inputs": [],
      "name": "enabled",
      "outputs": [
        {
          "internalType": "bool",
          "name": "",
          "type": "bool"
        }
      ],
      "stateMutability": "view",
      "type": "function"
    },
    {
      "inputs": [],
      "name": "getAlerters",
      "outputs": [
        {
          "internalType": "address[]",
          "name": "",
          "type": "address[]"
        }
      ],
      "stateMutability": "view",
      "type": "function"
    },
    {
      "inputs": [],
      "name": "getAndUpdateNetworkFee",
      "outputs": [
        {
          "internalType": "uint256",
          "name": "networkFeeBps",
          "type": "uint256"
        }
      ],
      "stateMutability": "nonpayable",
      "type": "function"
    },
    {
      "inputs": [],
      "name": "getContracts",
      "outputs": [
        {
          "internalType": "contract IKyberFeeHandler",
          "name": "kyberFeeHandlerAddress",
          "type": "address"
        },
        {
          "internalType": "contract IKyberDao",
          "name": "kyberDaoAddress",
          "type": "address"
        },
        {
          "internalType": "contract IKyberMatchingEngine",
          "name": "kyberMatchingEngineAddress",
          "type": "address"
        },
        {
          "internalType": "contract IKyberStorage",
          "name": "kyberStorageAddress",
          "type": "address"
        },
        {
          "internalType": "contract IGasHelper",
          "name": "gasHelperAddress",
          "type": "address"
        },
        {
          "internalType": "contract IKyberNetworkProxy[]",
          "name": "kyberProxyAddresses",
          "type": "address[]"
        }
      ],
      "stateMutability": "view",
      "type": "function"
    },
    {
      "inputs": [
        {
          "internalType": "contract ERC20",
          "name": "src",
          "type": "address"
        },
        {
          "internalType": "contract ERC20",
          "name": "dest",
          "type": "address"
        },
        {
          "internalType": "uint256",
          "name": "srcQty",
          "type": "uint256"
        }
      ],
      "name": "getExpectedRate",
      "outputs": [
        {
          "internalType": "uint256",
          "name": "expectedRate",
          "type": "uint256"
        },
        {
          "internalType": "uint256",
          "name": "worstRate",
          "type": "uint256"
        }
      ],
      "stateMutability": "view",
      "type": "function"
    },
    {
      "inputs": [
        {
          "internalType": "contract IERC20",
          "name": "src",
          "type": "address"
        },
        {
          "internalType": "contract IERC20",
          "name": "dest",
          "type": "address"
        },
        {
          "internalType": "uint256",
          "name": "srcQty",
          "type": "uint256"
        },
        {
          "internalType": "uint256",
          "name": "platformFeeBps",
          "type": "uint256"
        },
        {
          "internalType": "bytes",
          "name": "hint",
          "type": "bytes"
        }
      ],
      "name": "getExpectedRateWithHintAndFee",
      "outputs": [
        {
          "internalType": "uint256",
          "name": "rateWithNetworkFee",
          "type": "uint256"
        },
        {
          "internalType": "uint256",
          "name": "rateWithAllFees",
          "type": "uint256"
        }
      ],
      "stateMutability": "view",
      "type": "function"
    },
    {
      "inputs": [],
      "name": "getNetworkData",
      "outputs": [
        {
          "internalType": "uint256",
          "name": "negligibleDiffBps",
          "type": "uint256"
        },
        {
          "internalType": "uint256",
          "name": "networkFeeBps",
          "type": "uint256"
        },
        {
          "internalType": "uint256",
          "name": "expiryTimestamp",
          "type": "uint256"
        }
      ],
      "stateMutability": "view",
      "type": "function"
    },
    {
      "inputs": [],
      "name": "getOperators",
      "outputs": [
        {
          "internalType": "address[]",
          "name": "",
          "type": "address[]"
        }
      ],
      "stateMutability": "view",
      "type": "function"
    },
    {
      "inputs": [
        {
          "internalType": "contract IERC20",
          "name": "token",
          "type": "address"
        },
        {
          "internalType": "uint256",
          "name": "startIndex",
          "type": "uint256"
        },
        {
          "internalType": "uint256",
          "name": "endIndex",
          "type": "uint256"
        },
        {
          "internalType": "bool",
          "name": "add",
          "type": "bool"
        }
      ],
      "name": "listReservesForToken",
      "outputs": [],
      "stateMutability": "nonpayable",
      "type": "function"
    },
    {
      "inputs": [
        {
          "internalType": "address",
          "name": "reserve",
          "type": "address"
        },
        {
          "internalType": "contract IERC20",
          "name": "token",
          "type": "address"
        },
        {
          "internalType": "bool",
          "name": "add",
          "type": "bool"
        }
      ],
      "name": "listTokenForReserve",
      "outputs": [],
      "stateMutability": "nonpayable",
      "type": "function"
    },
    {
      "inputs": [],
      "name": "maxGasPrice",
      "outputs": [
        {
          "internalType": "uint256",
          "name": "",
          "type": "uint256"
        }
      ],
      "stateMutability": "view",
      "type": "function"
    },
    {
      "inputs": [],
      "name": "pendingAdmin",
      "outputs": [
        {
          "internalType": "address",
          "name": "",
          "type": "address"
        }
      ],
      "stateMutability": "view",
      "type": "function"
    },
    {
      "inputs": [
        {
          "internalType": "address",
          "name": "alerter",
          "type": "address"
        }
      ],
      "name": "removeAlerter",
      "outputs": [],
      "stateMutability": "nonpayable",
      "type": "function"
    },
    {
      "inputs": [
        {
          "internalType": "address",
          "name": "kyberProxy",
          "type": "address"
        }
      ],
      "name": "removeKyberProxy",
      "outputs": [],
      "stateMutability": "nonpayable",
      "type": "function"
    },
    {
      "inputs": [
        {
          "internalType": "address",
          "name": "operator",
          "type": "address"
        }
      ],
      "name": "removeOperator",
      "outputs": [],
      "stateMutability": "nonpayable",
      "type": "function"
    },
    {
      "inputs": [
        {
          "internalType": "contract IKyberFeeHandler",
          "name": "_kyberFeeHandler",
          "type": "address"
        },
        {
          "internalType": "contract IKyberMatchingEngine",
          "name": "_kyberMatchingEngine",
          "type": "address"
        },
        {
          "internalType": "contract IGasHelper",
          "name": "_gasHelper",
          "type": "address"
        }
      ],
      "name": "setContracts",
      "outputs": [],
      "stateMutability": "nonpayable",
      "type": "function"
    },
    {
      "inputs": [
        {
          "internalType": "bool",
          "name": "enable",
          "type": "bool"
        }
      ],
      "name": "setEnable",
      "outputs": [],
      "stateMutability": "nonpayable",
      "type": "function"
    },
    {
      "inputs": [
        {
          "internalType": "contract IKyberDao",
          "name": "_kyberDao",
          "type": "address"
        }
      ],
      "name": "setKyberDaoContract",
      "outputs": [],
      "stateMutability": "nonpayable",
      "type": "function"
    },
    {
      "inputs": [
        {
          "internalType": "uint256",
          "name": "_maxGasPrice",
          "type": "uint256"
        },
        {
          "internalType": "uint256",
          "name": "_negligibleRateDiffBps",
          "type": "uint256"
        }
      ],
      "name": "setParams",
      "outputs": [],
      "stateMutability": "nonpayable",
      "type": "function"
    },
    {
      "inputs": [
        {
          "internalType": "address payable",
          "name": "trader",
          "type": "address"
        },
        {
          "internalType": "contract ERC20",
          "name": "src",
          "type": "address"
        },
        {
          "internalType": "uint256",
          "name": "srcAmount",
          "type": "uint256"
        },
        {
          "internalType": "contract ERC20",
          "name": "dest",
          "type": "address"
        },
        {
          "internalType": "address payable",
          "name": "destAddress",
          "type": "address"
        },
        {
          "internalType": "uint256",
          "name": "maxDestAmount",
          "type": "uint256"
        },
        {
          "internalType": "uint256",
          "name": "minConversionRate",
          "type": "uint256"
        },
        {
          "internalType": "address payable",
          "name": "walletId",
          "type": "address"
        },
        {
          "internalType": "bytes",
          "name": "hint",
          "type": "bytes"
        }
      ],
      "name": "tradeWithHint",
      "outputs": [
        {
          "internalType": "uint256",
          "name": "destAmount",
          "type": "uint256"
        }
      ],
      "stateMutability": "payable",
      "type": "function"
    },
    {
      "inputs": [
        {
          "internalType": "address payable",
          "name": "trader",
          "type": "address"
        },
        {
          "internalType": "contract IERC20",
          "name": "src",
          "type": "address"
        },
        {
          "internalType": "uint256",
          "name": "srcAmount",
          "type": "uint256"
        },
        {
          "internalType": "contract IERC20",
          "name": "dest",
          "type": "address"
        },
        {
          "internalType": "address payable",
          "name": "destAddress",
          "type": "address"
        },
        {
          "internalType": "uint256",
          "name": "maxDestAmount",
          "type": "uint256"
        },
        {
          "internalType": "uint256",
          "name": "minConversionRate",
          "type": "uint256"
        },
        {
          "internalType": "address payable",
          "name": "platformWallet",
          "type": "address"
        },
        {
          "internalType": "uint256",
          "name": "platformFeeBps",
          "type": "uint256"
        },
        {
          "internalType": "bytes",
          "name": "hint",
          "type": "bytes"
        }
      ],
      "name": "tradeWithHintAndFee",
      "outputs": [
        {
          "internalType": "uint256",
          "name": "destAmount",
          "type": "uint256"
        }
      ],
      "stateMutability": "payable",
      "type": "function"
    },
    {
      "inputs": [
        {
          "internalType": "address",
          "name": "newAdmin",
          "type": "address"
        }
      ],
      "name": "transferAdmin",
      "outputs": [],
      "stateMutability": "nonpayable",
      "type": "function"
    },
    {
      "inputs": [
        {
          "internalType": "address",
          "name": "newAdmin",
          "type": "address"
        }
      ],
      "name": "transferAdminQuickly",
      "outputs": [],
      "stateMutability": "nonpayable",
      "type": "function"
    },
    {
      "inputs": [
        {
          "internalType": "uint256",
          "name": "amount",
          "type": "uint256"
        },
        {
          "internalType": "address payable",
          "name": "sendTo",
          "type": "address"
        }
      ],
      "name": "withdrawEther",
      "outputs": [],
      "stateMutability": "nonpayable",
      "type": "function"
    },
    {
      "inputs": [
        {
          "internalType": "contract IERC20",
          "name": "token",
          "type": "address"
        },
        {
          "internalType": "uint256",
          "name": "amount",
          "type": "uint256"
        },
        {
          "internalType": "address",
          "name": "sendTo",
          "type": "address"
        }
      ],
      "name": "withdrawToken",
      "outputs": [],
      "stateMutability": "nonpayable",
      "type": "function"
    },
    {
      "stateMutability": "payable",
      "type": "receive"
    }
  ],
  "bytecode": "0x6080604052640ba43b7400600d55600e805460ff191690553480156200002457600080fd5b5060405162005c0038038062005c00833981810160405260408110156200004a57600080fd5b508051602090910151818181806001600160a01b0381166200009d576040805162461bcd60e51b8152602060048201526007602482015266061646d696e20360cc1b604482015290519081900360640190fd5b600080546001600160a01b0319166001600160a01b0392909216919091179055506007805460ff19166001179055620000d842601962000102565b600a80546001600160a01b0319166001600160a01b039290921691909117905550620001db915050565b68010000000000000000821062000152576040805162461bcd60e51b815260206004820152600f60248201526e657870697279206f766572666c6f7760881b604482015290519081900360640190fd5b61138881106200019b576040805162461bcd60e51b815260206004820152600f60248201526e66656573206578636565642042505360881b604482015290519081900360640190fd5b600c805461ffff909216680100000000000000000261ffff60401b196001600160401b039094166001600160401b03199093169290921792909216179055565b615a1580620001eb6000396000f3fe6080604052600436106101d15760003560e01c80637bb0ea82116100f7578063ac8a584a11610095578063c43190f511610064578063c43190f514610929578063ce56c454146109e5578063dbe2dc9b14610a1e578063f851a44014610a335761020e565b8063ac8a584a1461079b578063b3066d49146107ce578063c0324c7714610813578063c3a2a93a146108435761020e565b8063809a9e55116100d1578063809a9e55146106395780638881654e146106955780638ff68a80146106c85780639870d7fe146107685761020e565b80637bb0ea82146105aa5780637c423f54146105f1578063803d58c8146106065761020e565b80633de39c111161016f57806375829def1161013e57806375829def146105035780637726bed31461053657806377f50f97146105625780637acc8678146105775761020e565b80633de39c1114610455578063408ee7fe1461046a57806352dd35b91461049d5780636ff277de146104d05761020e565b806326782247116101ab578063267822471461033757806327a099d81461036857806332c8bd9f146103cd5780633ccdbb28146104125761020e565b806301a12fd314610213578063088322ef14610248578063238dafe01461030e5761020e565b3661020e5760408051348152905133917f75f33ed68675112c77094e7c5b073890598be1d23e27cd7f6907b4a7d98ac619919081900360200190a2005b600080fd5b34801561021f57600080fd5b506102466004803603602081101561023657600080fd5b50356001600160a01b0316610a48565b005b6102fc600480360361012081101561025f57600080fd5b6001600160a01b03823581169260208101358216926040820135926060830135811692608081013582169260a08201359260c08301359260e0810135909116918101906101208101610100820135600160201b8111156102be57600080fd5b8201836020820111156102d057600080fd5b803590602001918460018302840111600160201b831117156102f157600080fd5b509092509050610bf4565b60408051918252519081900360200190f35b34801561031a57600080fd5b50610323610c62565b604080519115158252519081900360200190f35b34801561034357600080fd5b5061034c610c6b565b604080516001600160a01b039092168252519081900360200190f35b34801561037457600080fd5b5061037d610c7a565b60408051602080825283518183015283519192839290830191858101910280838360005b838110156103b95781810151838201526020016103a1565b505050509050019250505060405180910390f35b3480156103d957600080fd5b50610246600480360360608110156103f057600080fd5b506001600160a01b038135811691602081013590911690604001351515610cdc565b34801561041e57600080fd5b506102466004803603606081101561043557600080fd5b506001600160a01b03813581169160208101359160409091013516610d7f565b34801561046157600080fd5b506102fc610e62565b34801561047657600080fd5b506102466004803603602081101561048d57600080fd5b50356001600160a01b0316610e68565b3480156104a957600080fd5b50610246600480360360208110156104c057600080fd5b50356001600160a01b0316610fbf565b3480156104dc57600080fd5b50610246600480360360208110156104f357600080fd5b50356001600160a01b03166110c8565b34801561050f57600080fd5b506102466004803603602081101561052657600080fd5b50356001600160a01b03166111a1565b34801561054257600080fd5b506102466004803603602081101561055957600080fd5b50351515611250565b34801561056e57600080fd5b5061024661135c565b34801561058357600080fd5b506102466004803603602081101561059a57600080fd5b50356001600160a01b031661141c565b3480156105b657600080fd5b50610246600480360360808110156105cd57600080fd5b506001600160a01b038135169060208101359060408101359060600135151561150f565b3480156105fd57600080fd5b5061037d61177d565b34801561061257600080fd5b506102466004803603602081101561062957600080fd5b50356001600160a01b03166117dd565b34801561064557600080fd5b5061067c6004803603606081101561065c57600080fd5b506001600160a01b038135811691602081013590911690604001356118c8565b6040805192835260208301919091528051918290030190f35b3480156106a157600080fd5b506106aa611969565b60408051938452602084019290925282820152519081900360600190f35b3480156106d457600080fd5b5061067c600480360360a08110156106eb57600080fd5b6001600160a01b03823581169260208101359091169160408201359160608101359181019060a081016080820135600160201b81111561072a57600080fd5b82018360208201111561073c57600080fd5b803590602001918460018302840111600160201b8311171561075d57600080fd5b5090925090506119f2565b34801561077457600080fd5b506102466004803603602081101561078b57600080fd5b50356001600160a01b0316611ad5565b3480156107a757600080fd5b50610246600480360360208110156107be57600080fd5b50356001600160a01b0316611c2e565b3480156107da57600080fd5b50610246600480360360608110156107f157600080fd5b506001600160a01b038135811691602081013582169160409091013516611dd7565b34801561081f57600080fd5b506102466004803603604081101561083657600080fd5b5080359060200135611fcb565b34801561084f57600080fd5b5061085861207d565b60405180876001600160a01b03166001600160a01b03168152602001866001600160a01b03166001600160a01b03168152602001856001600160a01b03166001600160a01b03168152602001846001600160a01b03166001600160a01b03168152602001836001600160a01b03166001600160a01b0316815260200180602001828103825283818151815260200191508051906020019060200280838360005b838110156109105781810151838201526020016108f8565b5050505090500197505050505050505060405180910390f35b6102fc600480360361014081101561094057600080fd5b6001600160a01b03823581169260208101358216926040820135926060830135811692608081013582169260a08201359260c08301359260e08101359091169161010082013591908101906101408101610120820135600160201b8111156109a757600080fd5b8201836020820111156109b957600080fd5b803590602001918460018302840111600160201b831117156109da57600080fd5b5090925090506121cc565b3480156109f157600080fd5b5061024660048036036040811015610a0857600080fd5b50803590602001356001600160a01b031661223a565b348015610a2a57600080fd5b506102fc6122e8565b348015610a3f57600080fd5b5061034c6123a0565b610a506123af565b6001600160a01b03811660009081526003602052604090205460ff16610aab576040805162461bcd60e51b815260206004820152600b60248201526a3737ba1030b632b93a32b960a91b604482015290519081900360640190fd5b6001600160a01b0381166000908152600360205260408120805460ff191690555b600554811015610bf057816001600160a01b031660058281548110610aed57fe5b6000918252602090912001546001600160a01b03161415610be857600580546000198101908110610b1a57fe5b600091825260209091200154600580546001600160a01b039092169183908110610b4057fe5b9060005260206000200160006101000a8154816001600160a01b0302191690836001600160a01b031602179055506005805480610b7957fe5b60008281526020808220830160001990810180546001600160a01b0319169055909201909255604080516001600160a01b03861681529182019290925281517f5611bf3e417d124f97bf2c788843ea8bb502b66079fbee02158ef30b172cb762929181900390910190a1610bf0565b600101610acc565b5050565b6000610bfe61583e565b610c108c8c8b8d8c8c8c8c60006123fd565b9050610c528185858080601f01602080910402602001604051908101604052809392919081815260200183838082843760009201919091525061249392505050565b9c9b505050505050505050505050565b600e5460ff1690565b6001546001600160a01b031681565b60606004805480602002602001604051908101604052809291908181526020018280548015610cd257602002820191906000526020600020905b81546001600160a01b03168152600190910190602001808311610cb4575b5050505050905090565b600a546001600160a01b03163314610d2f576040805162461bcd60e51b81526020600482015260116024820152706f6e6c79206b7962657253746f7261676560781b604482015290519081900360640190fd5b8015610d5f57610d516001600160a01b0383168460001963ffffffff612b3a16565b610d5a82612c4d565b610d7a565b610d7a6001600160a01b03831684600063ffffffff612b3a16565b505050565b610d876123af565b826001600160a01b031663a9059cbb82846040518363ffffffff1660e01b815260040180836001600160a01b03166001600160a01b0316815260200182815260200192505050602060405180830381600087803b158015610de757600080fd5b505af1158015610dfb573d6000803e3d6000fd5b505050506040513d6020811015610e1157600080fd5b5050604080516001600160a01b0380861682526020820185905283168183015290517f72cb8a894ddb372ceec3d2a7648d86f17d5a15caae0e986c53109b8a9a9385e69181900360600190a1505050565b600d5490565b610e706123af565b6001600160a01b03811660009081526003602052604090205460ff1615610ecf576040805162461bcd60e51b815260206004820152600e60248201526d616c65727465722065786973747360901b604482015290519081900360640190fd5b600554603211610f15576040805162461bcd60e51b815260206004820152600c60248201526b6d617820616c65727465727360a01b604482015290519081900360640190fd5b604080516001600160a01b03831681526001602082015281517f5611bf3e417d124f97bf2c788843ea8bb502b66079fbee02158ef30b172cb762929181900390910190a16001600160a01b03166000818152600360205260408120805460ff191660019081179091556005805491820181559091527f036b6384b5eca791c62761152d0c79bb0604c104a5fb6f4eb0703f3154bb3db00180546001600160a01b0319169091179055565b610fc76123af565b600a54604080516307f442e160e01b81526001600160a01b03848116600483015260026024830152915191909216916307f442e191604480830192600092919082900301818387803b15801561101c57600080fd5b505af1158015611030573d6000803e3d6000fd5b505050506001600160a01b03811661104757600080fd5b6001600160a01b0381166000908152600f602052604090205460ff161561106d57600080fd5b6001600160a01b0381166000818152600f6020908152604091829020805460ff19166001179055815192835290517f0b008ff10c7e378a96d6566635e1aa748886d16fb87659faee2aa20608fec8159281900390910190a150565b6110d06123af565b6008546001600160a01b0382811691161461119e57600880546001600160a01b0319166001600160a01b03838116918217909255600a54604080516337f93bef60e11b8152600481019390935251921691636ff277de9160248082019260009290919082900301818387803b15801561114857600080fd5b505af115801561115c573d6000803e3d6000fd5b5050604080516001600160a01b038516815290517f16a2e1af8449067f38aa765b54d479785c94d8ebdfbba7b410e3488b0877c1e49350908190036020019150a15b50565b6111a96123af565b6001600160a01b0381166111f2576040805162461bcd60e51b815260206004820152600b60248201526a06e65772061646d696e20360ac1b604482015290519081900360640190fd5b604080516001600160a01b038316815290517f3b81caf78fa51ecbc8acb482fd7012a277b428d9b80f9d156e8a54107496cc409181900360200190a1600180546001600160a01b0319166001600160a01b0392909216919091179055565b6112586123af565b80156113105760075461010090046001600160a01b031661127857600080fd5b6009546001600160a01b031661128d57600080fd5b600a60009054906101000a90046001600160a01b03166001600160a01b031663aa1da48a6040518163ffffffff1660e01b815260040160206040518083038186803b1580156112db57600080fd5b505afa1580156112ef573d6000803e3d6000fd5b505050506040513d602081101561130557600080fd5b505161131057600080fd5b600e805460ff191682151517908190556040805160ff90921615158252517f8a846a525e22497042ee2f99423a8ff8bbb831d3ae5384692bf6040f591c1eba916020908290030190a150565b6001546001600160a01b031633146113a9576040805162461bcd60e51b815260206004820152600b60248201526a6e6f742070656e64696e6760a81b604482015290519081900360640190fd5b600154600054604080516001600160a01b03938416815292909116602083015280517f65da1cfc2c2e81576ad96afb24a581f8e109b7a403b35cbd3243a1c99efdb9ed9281900390910190a160018054600080546001600160a01b03199081166001600160a01b03841617909155169055565b6114246123af565b6001600160a01b038116611469576040805162461bcd60e51b8152602060048201526007602482015266061646d696e20360cc1b604482015290519081900360640190fd5b604080516001600160a01b038316815290517f3b81caf78fa51ecbc8acb482fd7012a277b428d9b80f9d156e8a54107496cc409181900360200190a1600054604080516001600160a01b038085168252909216602083015280517f65da1cfc2c2e81576ad96afb24a581f8e109b7a403b35cbd3243a1c99efdb9ed9281900390910190a1600080546001600160a01b0319166001600160a01b0392909216919091179055565b611517612d37565b8183111561152457611777565b600a5460408051636ac48ac160e11b81526001600160a01b03878116600483015260248201879052604482018690529151606093929092169163d589158291606480820192600092909190829003018186803b15801561158357600080fd5b505afa158015611597573d6000803e3d6000fd5b505050506040513d6000823e601f3d908101601f1916820160405260208110156115c057600080fd5b8101908080516040519392919084600160201b8211156115df57600080fd5b9083019060208201858111156115f457600080fd5b82518660208202830111600160201b8211171561161057600080fd5b82525081516020918201928201910280838360005b8381101561163d578181015183820152602001611625565b50505050905001604052505050905080516000141561165c5750611777565b60005b81518110156116e95782156116af576116a182828151811061167d57fe5b6020026020010151600019886001600160a01b0316612b3a9092919063ffffffff16565b6116aa86612c4d565b6116e1565b6116e18282815181106116be57fe5b60200260200101516000886001600160a01b0316612b3a9092919063ffffffff16565b60010161165f565b50846001600160a01b03167fd4b0877e3beef91cd767680ac04114217ec7c9cb3a4705c03fc8061de81168fc8284604051808060200183151515158152602001828103825284818151815260200191508051906020019060200280838360005b83811015611761578181015183820152602001611749565b50505050905001935050505060405180910390a2505b50505050565b60606005805480602002602001604051908101604052809291908181526020018280548015610cd2576020028201919060005260206000209081546001600160a01b03168152600190910190602001808311610cb4575050505050905090565b6117e56123af565b600a5460408051631007ab1960e31b81526001600160a01b0384811660048301529151919092169163803d58c891602480830192600092919082900301818387803b15801561183357600080fd5b505af1158015611847573d6000803e3d6000fd5b505050506001600160a01b0381166000908152600f602052604090205460ff1661187057600080fd5b6001600160a01b0381166000818152600f6020908152604091829020805460ff19169055815192835290517fbb9ee888852ae070b75270fa50ea2845ba32102d3a96842c7c416d12aad2f4879281900390910190a150565b600080836001600160a01b0316856001600160a01b031614156118f057506000905080611961565b6001600160ff1b03831661190261583e565b6119296000888885156119155785611918565b60015b6000600160ff1b60008060006123fd565b9050611933612d8b565b60c0820152604080516020810190915260008152611952908290612e2d565b94505060646061850204925050505b935093915050565b6000806000611976612fe1565b60095460408051635e89189d60e11b815290519395509193506001600160a01b03169163bd12313a91600480820192602092909190829003018186803b1580156119bf57600080fd5b505afa1580156119d3573d6000803e3d6000fd5b505050506040513d60208110156119e957600080fd5b50519250909192565b600080866001600160a01b0316886001600160a01b03161415611a1a57506000905080611aca565b611a2261583e565b611a4860008a8a8a15611a35578a611a38565b60015b6000600160ff1b6000808e6123fd565b9050611a52612d8b565b60c0820152604080516020601f8701819004810282018101909252858152600091611a999184918990899081908401838280828437600092019190915250612e2d92505050565b8095508192505050611ac582600001516040015182846020015160e00151856040015160e00151612ffe565b925050505b965096945050505050565b611add6123af565b6001600160a01b03811660009081526002602052604090205460ff1615611b3d576040805162461bcd60e51b815260206004820152600f60248201526e6f70657261746f722065786973747360881b604482015290519081900360640190fd5b600454603211611b84576040805162461bcd60e51b815260206004820152600d60248201526c6d6178206f70657261746f727360981b604482015290519081900360640190fd5b604080516001600160a01b03831681526001602082015281517f091a7a4b85135fdd7e8dbc18b12fabe5cc191ea867aa3c2e1a24a102af61d58b929181900390910190a16001600160a01b03166000818152600260205260408120805460ff191660019081179091556004805491820181559091527f8a35acfbc15ff81a39ae7d344fd709f28e8600b4aa8c65c6b64bfe7fe36bd19b0180546001600160a01b0319169091179055565b611c366123af565b6001600160a01b03811660009081526002602052604090205460ff16611c92576040805162461bcd60e51b815260206004820152600c60248201526b3737ba1037b832b930ba37b960a11b604482015290519081900360640190fd5b6001600160a01b0381166000908152600260205260408120805460ff191690555b600454811015610bf057816001600160a01b031660048281548110611cd457fe5b6000918252602090912001546001600160a01b03161415611dcf57600480546000198101908110611d0157fe5b600091825260209091200154600480546001600160a01b039092169183908110611d2757fe5b9060005260206000200160006101000a8154816001600160a01b0302191690836001600160a01b031602179055506004805480611d6057fe5b60008281526020808220830160001990810180546001600160a01b0319169055909201909255604080516001600160a01b03861681529182019290925281517f091a7a4b85135fdd7e8dbc18b12fabe5cc191ea867aa3c2e1a24a102af61d58b929181900390910190a1610bf0565b600101611cb3565b611ddf6123af565b6007546001600160a01b038481166101009092041614611e5357600780546001600160a01b0385166101008102610100600160a81b03199092169190911790915560408051918252517f5128fc9be01065f3cabe4c8b72796eb6b8a00284f39a2390cd71e91b509f90b69181900360200190a15b6009546001600160a01b03838116911614611eba57600980546001600160a01b0384166001600160a01b0319909116811790915560408051918252517f92b5317eb7846d2e62df8ff23b97a564e012e63defef32777f017249f76bf2649181900360200190a15b6001600160a01b03811615801590611ee05750600b546001600160a01b03828116911614155b15611f3757600b80546001600160a01b0383166001600160a01b0319909116811790915560408051918252517f95ba6becebde78de944071b522d81414292f67e3d95db7d9df46bb8e8b3da8b89181900360200190a15b600a546040805163d8952a4960e01b81526001600160a01b03868116600483015285811660248301529151919092169163d8952a4991604480830192600092919082900301818387803b158015611f8d57600080fd5b505af1158015611fa1573d6000803e3d6000fd5b505050506001600160a01b038316611fb857600080fd5b6001600160a01b038216610d7a57600080fd5b611fd36123af565b600d8290556009546040805163120b888360e31b81526004810184905290516001600160a01b039092169163905c44189160248082019260009290919082900301818387803b15801561202557600080fd5b505af1158015612039573d6000803e3d6000fd5b5050600d54604080519182526020820185905280517fc1e6729d7fd9a615adc03ebe7d8ff15649d8eed7516bf6c30538a1e722bb1975945091829003019150a15050565b600754600854600954600a54600b546040805163fa006d9360e01b8152905160009687968796879687966060966101009095046001600160a01b0390811696948116959381169492811693911691839163fa006d93916004808301928c929190829003018186803b1580156120f157600080fd5b505afa158015612105573d6000803e3d6000fd5b505050506040513d6000823e601f3d908101601f19168201604052602081101561212e57600080fd5b8101908080516040519392919084600160201b82111561214d57600080fd5b90830190602082018581111561216257600080fd5b82518660208202830111600160201b8211171561217e57600080fd5b82525081516020918201928201910280838360005b838110156121ab578181015183820152602001612193565b50505050905001604052505050955095509550955095509550909192939495565b60006121d661583e565b6121e78d8d8c8e8d8d8d8d8d6123fd565b90506122298185858080601f01602080910402602001604051908101604052809392919081815260200183838082843760009201919091525061249392505050565b9d9c50505050505050505050505050565b6122426123af565b6040516000906001600160a01b0383169084908381818185875af1925050503d806000811461228d576040519150601f19603f3d011682016040523d82523d6000602084013e612292565b606091505b50509050806122a057600080fd5b604080518481526001600160a01b038416602082015281517fec47e7ed86c86774d1a72c19f35c639911393fe7c1a34031fdbd260890da90de929181900390910190a1505050565b6000806122f3612fe1565b9092509050428110801561231157506008546001600160a01b031615155b1561239c5760085460408051639833afaf60e01b815281516001600160a01b0390931692639833afaf926004808401939192918290030181600087803b15801561235a57600080fd5b505af115801561236e573d6000803e3d6000fd5b505050506040513d604081101561238457600080fd5b508051602090910151909250905061239c81836131a0565b5090565b6000546001600160a01b031681565b6000546001600160a01b031633146123fb576040805162461bcd60e51b815260206004820152600a60248201526937b7363c9030b236b4b760b11b604482015290519081900360640190fd5b565b61240561583e565b80516001600160a01b03808c1690915281518a8216602090910152815160400188905281518982166060909101528151878216608090910152815160a001869052815160c001859052815190841660e09091015280516101000182905261246b89613273565b602082015160e0015261247d88613273565b604082015160e001529998505050505050505050565b60075460009060ff166124ed576040805162461bcd60e51b815260206004820152601f60248201527f5265656e7472616e637947756172643a207265656e7472616e742063616c6c00604482015290519081900360640190fd5b6007805460ff191690556124ff6122e8565b60c0840152825161250f90613333565b600061251b8484612e2d565b90925090508061255c5760405162461bcd60e51b815260040180806020018281038252603281526020018061594e6032913960400191505060405180910390fd5b6a084595161401484a00000081106125ad576040805162461bcd60e51b815260206004820152600f60248201526e72617465203e204d41585f5241544560881b604482015290519081900360640190fd5b835160c001518110156125f9576040805162461bcd60e51b815260206004820152600f60248201526e72617465203c206d696e207261746560881b604482015290519081900360640190fd5b835160a0015160009083111561262157845160a00151925061261a8561365f565b9050612629565b508351604001515b61265f85600001516020015160008051602061592e83398151915230886020015189606001518a6020015160e001516012613667565b61269960008051602061592e83398151915286600001516060015187600001516080015188604001518760128b6040015160e00151613667565b84516020810151604082015191516126b392908490613775565b6126bc8561385b565b8460000151606001516001600160a01b03168560000151602001516001600160a01b03167f30bbea603a7b36858fe5e3ec6ba5ff59dde039d02120d758eacfaed01520577d876060015188608001518960a001518a60200151602001518b60400151602001518c6020015160c001518d6040015160c001518e60200151604001518f6040015160400151604051808a815260200189815260200188815260200180602001806020018060200180602001806020018060200187810387528d818151815260200191508051906020019060200280838360005b838110156127ac578181015183820152602001612794565b5050505090500187810386528c818151815260200191508051906020019060200280838360005b838110156127eb5781810151838201526020016127d3565b5050505090500187810385528b818151815260200191508051906020019060200280838360005b8381101561282a578181015183820152602001612812565b5050505090500187810384528a818151815260200191508051906020019060200280838360005b83811015612869578181015183820152602001612851565b50505050905001878103835289818151815260200191508051906020019060200280838360005b838110156128a8578181015183820152602001612890565b50505050905001878103825288818151815260200191508051906020019060200280838360005b838110156128e75781810151838201526020016128cf565b505050509050019f5050505050505050505050505050505060405180910390a3600b546001600160a01b031615612b25576000600b60009054906101000a90046001600160a01b03166001600160a01b0316866000015160e0015187600001516020015188600001516060015189606001518a60200151602001518b604001516020015160405160240180876001600160a01b03166001600160a01b03168152602001866001600160a01b03166001600160a01b03168152602001856001600160a01b03166001600160a01b031681526020018481526020018060200180602001838103835285818151815260200191508051906020019060200280838360005b83811015612a005781810151838201526020016129e8565b50505050905001838103825284818151815260200191508051906020019060200280838360005b83811015612a3f578181015183820152602001612a27565b50505050905001985050505050505050506040516020818303038152906040526315fc3ba560e21b6001600160e01b0319166020820180516001600160e01b0383818316178352505050506040518082805190602001908083835b60208310612ab95780518252601f199092019160209182019101612a9a565b6001836020036101000a0380198251168184511680821785525050505050509050019150506000604051808303816000865af19150503d8060008114612b1b576040519150601f19603f3d011682016040523d82523d6000602084013e612b20565b606091505b505050505b50506007805460ff1916600117905592915050565b801580612bc0575060408051636eb1769f60e11b81523060048201526001600160a01b03848116602483015291519185169163dd62ed3e91604480820192602092909190829003018186803b158015612b9257600080fd5b505afa158015612ba6573d6000803e3d6000fd5b505050506040513d6020811015612bbc57600080fd5b5051155b612bfb5760405162461bcd60e51b81526004018080602001828103825260368152602001806159aa6036913960400191505060405180910390fd5b604080516001600160a01b038416602482015260448082018490528251808303909101815260649091019091526020810180516001600160e01b031663095ea7b360e01b179052610d7a9084906139e1565b6001600160a01b03811660009081526006602052604090205415612c705761119e565b6001600160a01b03811660008051602061592e8339815191521415612cb0576001600160a01b03811660009081526006602052604090206012905561119e565b806001600160a01b031663313ce5676040518163ffffffff1660e01b815260040160206040518083038186803b158015612ce957600080fd5b505afa158015612cfd573d6000803e3d6000fd5b505050506040513d6020811015612d1357600080fd5b50516001600160a01b038216600090815260066020526040902060ff909116905550565b3360009081526002602052604090205460ff166123fb576040805162461bcd60e51b815260206004820152600d60248201526c37b7363c9037b832b930ba37b960991b604482015290519081900360640190fd5b600080612d96612fe1565b90925090504281108015612db457506008546001600160a01b031615155b1561239c576008546040805163056f534b60e51b815281516001600160a01b039093169263adea696092600480840193919291829003018186803b158015612dfb57600080fd5b505afa158015612e0f573d6000803e3d6000fd5b505050506040513d6040811015612e2557600080fd5b505192915050565b600080612e4284600001518560c00151613b99565b612e7284600001516020015160008051602061592e83398151915286600001516040015187886020015188613c32565b606085018190526b204fce5e3e250261100000001015612ecf576040805162461bcd60e51b8152602060048201526013602482015272547261646520776569203e204d41585f51545960681b604482015290519081900360640190fd5b6060840151612ee357506000905080612fda565b83516101000151606085015161271091020460a085015261010084015160c085015160608601516127109291839102040281612f1b57fe5b046080850181905260a0850151606086015191011115612f3757fe5b60008460a001518560800151866060015103039050612f7460008051602061592e8339815191528660000151606001518388896040015189613c32565b92506127108561010001516127108760c0015188606001510281612f9457fe5b040281612f9d57fe5b0460808601528451610100810151604090910151612fd69161271091908203020484876020015160e00151886040015160e00151612ffe565b9150505b9250929050565b600c5461ffff600160401b820416916001600160401b0390911690565b60006b204fce5e3e25026110000000851115613057576040805162461bcd60e51b8152602060048201526013602482015272737263416d6f756e74203e204d41585f51545960681b604482015290519081900360640190fd5b6b204fce5e3e250261100000008411156130af576040805162461bcd60e51b815260206004820152601460248201527364657374416d6f756e74203e204d41585f51545960601b604482015290519081900360640190fd5b82821061312b5760128383031115613109576040805162461bcd60e51b8152602060048201526018602482015277647374202d20737263203e204d41585f444543494d414c5360401b604482015290519081900360640190fd5b84838303600a0a02670de0b6b3a764000085028161312357fe5b049050613198565b6012828403111561317e576040805162461bcd60e51b8152602060048201526018602482015277737263202d20647374203e204d41585f444543494d414c5360401b604482015290519081900360640190fd5b84828403600a0a670de0b6b3a76400008602028161312357fe5b949350505050565b600160401b82106131ea576040805162461bcd60e51b815260206004820152600f60248201526e657870697279206f766572666c6f7760881b604482015290519081900360640190fd5b6113888110613232576040805162461bcd60e51b815260206004820152600f60248201526e66656573206578636565642042505360881b604482015290519081900360640190fd5b600c805461ffff909216600160401b0269ffff0000000000000000196001600160401b0390941667ffffffffffffffff199093169290921792909216179055565b60006001600160a01b03821660008051602061592e833981519152141561329c5750601261332e565b6001600160a01b0382166000908152600660205260409020548061332b57826001600160a01b031663313ce5676040518163ffffffff1660e01b815260040160206040518083038186803b1580156132f357600080fd5b505afa158015613307573d6000803e3d6000fd5b505050506040513d602081101561331d57600080fd5b505160ff16915061332e9050565b90505b919050565b600e5460ff1661337d576040805162461bcd60e51b815260206004820152601060248201526f1b995d1ddbdc9ac8191a5cd8589b195960821b604482015290519081900360640190fd5b336000908152600f602052604090205460ff166133ce576040805162461bcd60e51b815260206004820152600a6024820152693130b21039b2b73232b960b11b604482015290519081900360640190fd5b600d543a1115613411576040805162461bcd60e51b815260206004820152600960248201526867617320707269636560b81b604482015290519081900360640190fd5b6b204fce5e3e2502611000000081604001511115613469576040805162461bcd60e51b815260206004820152601060248201526f737263416d74203e204d41585f51545960801b604482015290519081900360640190fd5b60408101516134aa576040805162461bcd60e51b81526020600482015260086024820152670c081cdc98d05b5d60c21b604482015290519081900360640190fd5b60808101516001600160a01b03166134f6576040805162461bcd60e51b815260206004820152600a6024820152690646573742061646420360b41b604482015290519081900360640190fd5b80606001516001600160a01b031681602001516001600160a01b03161415613552576040805162461bcd60e51b815260206004820152600a6024820152691cdc98c80f4819195cdd60b21b604482015290519081900360640190fd5b60208101516001600160a01b031660008051602061592e833981519152141561358a578060400151341461358557600080fd5b61119e565b341561359557600080fd5b806040015181602001516001600160a01b03166370a08231306040518263ffffffff1660e01b815260040180826001600160a01b03166001600160a01b0316815260200191505060206040518083038186803b1580156135f457600080fd5b505afa158015613608573d6000803e3d6000fd5b505050506040513d602081101561361e57600080fd5b5051101561119e576040805162461bcd60e51b81526020600482015260096024820152686e6f20746f6b656e7360b81b604482015290519081900360640190fd5b516040015190565b856001600160a01b0316876001600160a01b03161415613735576001600160a01b0385163014613730576040516000906001600160a01b0387169085908381818185875af1925050503d80600081146136dc576040519150601f19603f3d011682016040523d82523d6000602084013e6136e1565b606091505b505090508061372e576040805162461bcd60e51b81526020600482015260146024820152731cd95b990819195cdd081c5d1e4819985a5b195960621b604482015290519081900360640190fd5b505b61376c565b613742848888858561455f565b6001600160a01b038516301461376c5761376c6001600160a01b038716868563ffffffff61489516565b50505050505050565b82821015611777576001600160a01b03841660008051602061592e833981519152141561383f576040516000906001600160a01b03831690848603908381818185875af1925050503d80600081146137e9576040519150601f19603f3d011682016040523d82523d6000602084013e6137ee565b606091505b5050905080613839576040805162461bcd60e51b815260206004820152601260248201527114d95b990818da185b99d94819985a5b195960721b604482015290519081900360640190fd5b50611777565b6117776001600160a01b0385168284860363ffffffff61489516565b60a081015160808201510180613871575061119e565b60608061387d846148e7565b91509150600760019054906101000a90046001600160a01b03166001600160a01b031663b7c5ab418460008051602061592e8339815191528585896000015160e001518a60a001518b608001516040518863ffffffff1660e01b815260040180876001600160a01b03166001600160a01b031681526020018060200180602001866001600160a01b03166001600160a01b03168152602001858152602001848152602001838103835288818151815260200191508051906020019060200280838360005b83811015613959578181015183820152602001613941565b50505050905001838103825287818151815260200191508051906020019060200280838360005b83811015613998578181015183820152602001613980565b50505050905001985050505050505050506000604051808303818588803b1580156139c257600080fd5b505af11580156139d6573d6000803e3d6000fd5b505050505050505050565b6139f3826001600160a01b0316614b59565b613a44576040805162461bcd60e51b815260206004820152601f60248201527f5361666545524332303a2063616c6c20746f206e6f6e2d636f6e747261637400604482015290519081900360640190fd5b60006060836001600160a01b0316836040518082805190602001908083835b60208310613a825780518252601f199092019160209182019101613a63565b6001836020036101000a0380198251168184511680821785525050505050509050019150506000604051808303816000865af19150503d8060008114613ae4576040519150601f19603f3d011682016040523d82523d6000602084013e613ae9565b606091505b509150915081613b40576040805162461bcd60e51b815260206004820181905260248201527f5361666545524332303a206c6f772d6c6576656c2063616c6c206661696c6564604482015290519081900360640190fd5b80511561177757808060200190516020811015613b5c57600080fd5b50516117775760405162461bcd60e51b815260040180806020018281038252602a815260200180615980602a913960400191505060405180910390fd5b61271082610100015110613be7576040805162461bcd60e51b815260206004820152601060248201526f0e0d8c2e8ccdee4da8ccaca40d0d2ced60831b604482015290519081900360640190fd5b6127108182846101000151010110610bf0576040805162461bcd60e51b81526020600482015260096024820152680cccacae640d0d2ced60bb1b604482015290519081900360640190fd5b6000856001600160a01b0316876001600160a01b03161415613c55575083614555565b6009548451602001516000916001600160a01b039081169163910ffc71918b918b911660008051602061592e83398151915214801590613cb157508851606001516001600160a01b031660008051602061592e83398151915214155b6040516001600160e01b031960e086901b1681526001600160a01b0380851660048301908152908416602483015282151560448301526080606483019081528a5160848401528a518b9360a40190602085019080838360005b83811015613d22578181015183820152602001613d0a565b50505050905090810190601f168015613d4f5780820380516001836020036101000a031916815260200191505b509550505050505060006040518083038186803b158015613d6f57600080fd5b505afa158015613d83573d6000803e3d6000fd5b505050506040513d6000823e601f3d908101601f191682016040526060811015613dac57600080fd5b8101908080516040519392919084600160201b821115613dcb57600080fd5b908301906020820185811115613de057600080fd5b82518660208202830111600160201b82111715613dfc57600080fd5b82525081516020918201928201910280838360005b83811015613e29578181015183820152602001613e11565b5050505090500160405260200180516040519392919084600160201b821115613e5157600080fd5b908301906020820185811115613e6657600080fd5b82518660208202830111600160201b82111715613e8257600080fd5b82525081516020918201928201910280838360005b83811015613eaf578181015183820152602001613e97565b5050505090500160405260200180519060200190929190505050866020018760a0018295508390528390525050506000600a60009054906101000a90046001600160a01b03166001600160a01b03166350dceb7486602001518b8b6040518463ffffffff1660e01b81526004018080602001846001600160a01b03166001600160a01b03168152602001836001600160a01b03166001600160a01b03168152602001828103825285818151815260200191508051906020019060200280838360005b83811015613f89578181015183820152602001613f71565b5050505090500194505050505060006040518083038186803b158015613fae57600080fd5b505afa158015613fc2573d6000803e3d6000fd5b505050506040513d6000823e601f3d908101601f191682016040526080811015613feb57600080fd5b815160208301805160405192949293830192919084600160201b82111561401157600080fd5b90830190602082018581111561402657600080fd5b82518660208202830111600160201b8211171561404257600080fd5b82525081516020918201928201910280838360005b8381101561406f578181015183820152602001614057565b5050505090500160405260200180516040519392919084600160201b82111561409757600080fd5b9083019060208201858111156140ac57600080fd5b82518660208202830111600160201b821117156140c857600080fd5b82525081516020918201928201910280838360005b838110156140f55781810151838201526020016140dd565b5050505090500160405260200180516040519392919084600160201b82111561411d57600080fd5b90830190602082018581111561413257600080fd5b82518660208202830111600160201b8211171561414e57600080fd5b82525081516020918201928201910280838360005b8381101561417b578181015183820152602001614163565b505050509190910160405250505090895250608088015260608701529050806141a957600092505050614555565b8460a0015151856020015151146141f9576040805162461bcd60e51b815260206004820152600f60248201526e6261642073706c697420617272617960881b604482015290519081900360640190fd5b84606001515185602001515114614247576040805162461bcd60e51b815260206004820152600d60248201526c6261642066656520617272617960981b604482015290519081900360640190fd5b84608001515185602001515114614298576040805162461bcd60e51b815260206004820152601060248201526f6261642072656261746520617272617960801b604482015290519081900360640190fd5b845151602086015151146142e9576040805162461bcd60e51b81526020600482015260136024820152726261642061646472657373657320617272617960681b604482015290519081900360640190fd5b60606142f8868b8b8b8b614b92565b9050600183600181111561430857fe5b1415614544576060600960009054906101000a90046001600160a01b03166001600160a01b03166384d174bc8c8c8a60c00151868c604001516040518663ffffffff1660e01b815260040180866001600160a01b03166001600160a01b03168152602001856001600160a01b03166001600160a01b03168152602001806020018060200180602001848103845287818151815260200191508051906020019060200280838360005b838110156143c85781810151838201526020016143b0565b50505050905001848103835286818151815260200191508051906020019060200280838360005b838110156144075781810151838201526020016143ef565b50505050905001848103825285818151815260200191508051906020019060200280838360005b8381101561444657818101518382015260200161442e565b505050509050019850505050505050505060006040518083038186803b15801561446f57600080fd5b505afa158015614483573d6000803e3d6000fd5b505050506040513d6000823e601f3d908101601f1916820160405260208110156144ac57600080fd5b8101908080516040519392919084600160201b8211156144cb57600080fd5b9083019060208201858111156144e057600080fd5b82518660208202830111600160201b821117156144fc57600080fd5b82525081516020918201928201910280838360005b83811015614529578181015183820152602001614511565b5050505090500160405250505090506145428782614f0c565b505b61454f8a8789615382565b93505050505b9695505050505050565b60006001600160a01b03851660008051602061592e8339815191521461458e576145898530615545565b614591565b60005b9050600061459f8530615545565b905060005b87515181101561488b5760006001600160a01b03881660008051602061592e833981519152146145d55760006145ee565b8860c0015182815181106145e557fe5b60200260200101515b90508860000151828151811061460057fe5b60200260200101516001600160a01b0316636cf69811828a8c60c00151868151811061462857fe5b60200260200101518b308f60400151898151811061464257fe5b602090810291909101810151604080516001600160e01b031960e08b901b1681526001600160a01b039788166004820152602481019690965293861660448601529190941660648401526084830152600160a48301525160c4808301939282900301818588803b1580156146b557600080fd5b505af11580156146c9573d6000803e3d6000fd5b50505050506040513d60208110156146e057600080fd5b505161472a576040805162461bcd60e51b81526020600482015260146024820152731c995cd95c9d99481d1c9859194819985a5b195960621b604482015290519081900360640190fd5b60006001600160a01b03891660008051602061592e833981519152146147d4576147548930615545565b905080851015801561477e57508960c00151838151811061477157fe5b6020026020010151818603115b156147d0576040805162461bcd60e51b815260206004820152601960248201527f726573657276652074616b6573206869676820616d6f756e7400000000000000604482015290519081900360640190fd5b8094505b60006148108b60c0015185815181106147e957fe5b602002602001015189898e60400151888151811061480357fe5b6020026020010151615602565b905061481c8930615545565b91508482108061482d575080858303105b1561487f576040805162461bcd60e51b815260206004820152601a60248201527f726573657276652072657475726e73206c6f7720616d6f756e74000000000000604482015290519081900360640190fd5b509250506001016145a4565b5050505050505050565b604080516001600160a01b038416602482015260448082018490528251808303909101815260649091019091526020810180516001600160e01b031663a9059cbb60e01b179052610d7a9084906139e1565b6060808260e001516001600160401b038111801561490457600080fd5b5060405190808252806020026020018201604052801561492e578160200160208202803683370190505b5091508260e001516001600160401b038111801561494b57600080fd5b50604051908082528060200260200182016040528015614975578160200160208202803683370190505b5090508260e001516000141561498a57614b54565b600060608460e001516001600160401b03811180156149a857600080fd5b506040519080825280602002602001820160405280156149d2578160200160208202803683370190505b5090506149eb8184876020015185896101000151615789565b9150614a038184876040015185896101000151615789565b50600a5460405163051e7cc760e11b81526020600482018181528451602484015284516001600160a01b0390941693630a3cf98e9386938392604490920191818601910280838360005b83811015614a65578181015183820152602001614a4d565b505050509050019250505060006040518083038186803b158015614a8857600080fd5b505afa158015614a9c573d6000803e3d6000fd5b505050506040513d6000823e601f3d908101601f191682016040526020811015614ac557600080fd5b8101908080516040519392919084600160201b821115614ae457600080fd5b908301906020820185811115614af957600080fd5b82518660208202830111600160201b82111715614b1557600080fd5b82525081516020918201928201910280838360005b83811015614b42578181015183820152602001614b2a565b50505050905001604052505050935050505b915091565b6000813f7fc5d2460186f7233c927e7db2dcc703c0e500b653ca82273b7bfad8045d85a470818114801590613198575050151592915050565b6020850151516060906000806001600160a01b03881660008051602061592e8339815191521415614bdc576127108560c0015186606001510281614bd257fe5b0486039150614be6565b505060c083015184905b826001600160401b0381118015614bfc57600080fd5b50604051908082528060200260200182016040528015614c26578160200160208202803683370190505b5060c08a0152826001600160401b0381118015614c4257600080fd5b50604051908082528060200260200182016040528015614c6c578160200160208202803683370190505b5060408a0152826001600160401b0381118015614c8857600080fd5b50604051908082528060200260200182016040528015614cb2578160200160208202803683370190505b50935060005b83811015614eff5760008a60a001518281518110614cd257fe5b6020026020010151118015614d0057506127108a60a001518281518110614cf557fe5b602002602001015111155b614d45576040805162461bcd60e51b8152602060048201526011602482015270696e76616c69642073706c69742062707360781b604482015290519081900360640190fd5b89606001518181518110614d5557fe5b602002602001015115614dc1576127108a60a001518281518110614d7557fe5b6020026020010151840281614d8657fe5b048a60c001518281518110614d9757fe5b60200260200101818152505081858281518110614db057fe5b602002602001018181525050614e03565b6127108a60a001518281518110614dd457fe5b6020026020010151880281614de557fe5b048a60c001518281518110614df657fe5b6020026020010181815250505b8951805182908110614e1157fe5b60200260200101516001600160a01b0316637cd442728a8a8d60c001518581518110614e3957fe5b6020026020010151436040518563ffffffff1660e01b815260040180856001600160a01b03166001600160a01b03168152602001846001600160a01b03166001600160a01b0316815260200183815260200182815260200194505050505060206040518083038186803b158015614eaf57600080fd5b505afa158015614ec3573d6000803e3d6000fd5b505050506040513d6020811015614ed957600080fd5b505160408b0151805183908110614eec57fe5b6020908102919091010152600101614cb8565b5050505095945050505050565b8051825151811115614f65576040805162461bcd60e51b815260206004820152601a60248201527f646f4d617463683a20746f6f206d616e79207265736572766573000000000000604482015290519081900360640190fd5b6060816001600160401b0381118015614f7d57600080fd5b50604051908082528060200260200182016040528015614fa7578160200160208202803683370190505b5090506060826001600160401b0381118015614fc257600080fd5b50604051908082528060200260200182016040528015614fec578160200160208202803683370190505b5090506060836001600160401b038111801561500757600080fd5b50604051908082528060200260200182016040528015615031578160200160208202803683370190505b5090506060846001600160401b038111801561504c57600080fd5b50604051908082528060200260200182016040528015615076578160200160208202803683370190505b5090506060856001600160401b038111801561509157600080fd5b506040519080825280602002602001820160405280156150bb578160200160208202803683370190505b5090506060866001600160401b03811180156150d657600080fd5b50604051908082528060200260200182016040528015615100578160200160208202803683370190505b5090506060876001600160401b038111801561511b57600080fd5b50604051908082528060200260200182016040528015615145578160200160208202803683370190505b50905060005b8881101561534f578a600001518a828151811061516457fe5b60200260200101518151811061517657fe5b602002602001015188828151811061518a57fe5b60200260200101906001600160a01b031690816001600160a01b0316815250508a602001518a82815181106151bb57fe5b6020026020010151815181106151cd57fe5b60200260200101518782815181106151e157fe5b6020026020010181815250508a60a001518a82815181106151fe57fe5b60200260200101518151811061521057fe5b602002602001015186828151811061522457fe5b6020026020010181815250508a606001518a828151811061524157fe5b60200260200101518151811061525357fe5b602002602001015185828151811061526757fe5b6020026020010190151590811515815250508a608001518a828151811061528a57fe5b60200260200101518151811061529c57fe5b60200260200101518482815181106152b057fe5b6020026020010190151590811515815250508a60c001518a82815181106152d357fe5b6020026020010151815181106152e557fe5b60200260200101518382815181106152f957fe5b6020026020010181815250508a604001518a828151811061531657fe5b60200260200101518151811061532857fe5b602002602001015182828151811061533c57fe5b602090810291909101015260010161514b565b50958952602089019490945260a088019290925260608701526080860152604085019190915260c0909301929092525050565b600080806001600160a01b03861660008051602061592e833981519152146153ae578460e001516153b1565b60125b905060006001600160a01b03871660008051602061592e833981519152146153da5760126153e0565b8560e001515b905060005b8651518110156155245760008111801561543657508660200151600182038151811061540d57fe5b602002602001015160001c8760200151828151811061542857fe5b602002602001015160001c11155b1561544857600094505050505061553e565b8660a00151818151811061545857fe5b60200260200101518401935060006154938860c00151838151811061547957fe5b602002602001015185858b60400151868151811061480357fe5b9050806154a85760009550505050505061553e565b8086019550876060015182815181106154bd57fe5b60200260200101511561551b578760a0015182815181106154da57fe5b6020026020010151876101000181815101915081815250508760800151828151811061550257fe5b60200260200101511561551b5760e08701805160010190525b506001016153e5565b50612710831461553a576000935050505061553e565b5050505b9392505050565b60006001600160a01b03831660008051602061592e833981519152141561557757506001600160a01b038116316155fc565b826001600160a01b03166370a08231836040518263ffffffff1660e01b815260040180826001600160a01b03166001600160a01b0316815260200191505060206040518083038186803b1580156155cd57600080fd5b505afa1580156155e1573d6000803e3d6000fd5b505050506040513d60208110156155f757600080fd5b505190505b92915050565b60006b204fce5e3e25026110000000851115615658576040805162461bcd60e51b815260206004820152601060248201526f737263517479203e204d41585f51545960801b604482015290519081900360640190fd5b6a084595161401484a0000008211156156aa576040805162461bcd60e51b815260206004820152600f60248201526e72617465203e204d41585f5241544560881b604482015290519081900360640190fd5b83831061571c5760128484031115615704576040805162461bcd60e51b8152602060048201526018602482015277647374202d20737263203e204d41585f444543494d414c5360401b604482015290519081900360640190fd5b670de0b6b3a7640000858302858503600a0a02613123565b6012838503111561576f576040805162461bcd60e51b8152602060048201526018602482015277737263202d20647374203e204d41585f444543494d414c5360401b604482015290519081900360640190fd5b828403600a0a670de0b6b3a7640000028286028161312357fe5b600082815b85608001515181101561583357856080015181815181106157ab57fe5b60200260200101511561582b57856020015181815181106157c857fe5b60200260200101518883815181106157dc57fe5b602002602001018181525050836127108760a0015183815181106157fc57fe5b6020026020010151028161580c57fe5b0487838151811061581957fe5b60209081029190910101526001909101905b60010161578e565b509695505050505050565b60405180610120016040528061585261589c565b815260200161585f6158e8565b815260200161586c6158e8565b81526020016000815260200160008152602001600081526020016000815260200160008152602001600081525090565b6040805161012081018252600080825260208201819052918101829052606081018290526080810182905260a0810182905260c0810182905260e0810182905261010081019190915290565b6040518061010001604052806060815260200160608152602001606081526020016060815260200160608152602001606081526020016060815260200160008152509056fe000000000000000000000000eeeeeeeeeeeeeeeeeeeeeeeeeeeeeeeeeeeeeeee747261646520696e76616c69642c2069662068696e7420696e766f6c7665642c2074727920706172736548696e74204150495361666545524332303a204552433230206f7065726174696f6e20646964206e6f7420737563636565645361666545524332303a20617070726f76652066726f6d206e6f6e2d7a65726f20746f206e6f6e2d7a65726f20616c6c6f77616e6365a26469706673582212209b9d014408b8ffdb93d4c2a543172fb25d274527b072b1664298b6b6cef3f20f64736f6c63430006060033",
  "immutableReferences": {},
  "source": "pragma solidity 0.6.6;\n\nimport \"../KyberNetwork.sol\";\n\n\n/*\n * @title Kyber Network main contract that doesn't check max dest amount. so we can test it on proxy\n */\ncontract KyberNetworkNoMaxDest is KyberNetwork {\n    constructor(address _admin, IKyberStorage _kyberStorage)\n        public\n        KyberNetwork(_admin, _kyberStorage)\n    {}\n\n    function calcTradeSrcAmountFromDest(TradeData memory tData)\n        internal\n        pure\n        override\n        returns (uint256 actualSrcAmount)\n    {\n        actualSrcAmount = tData.input.srcAmount;\n    }\n}\n",
  "sourcePath": "D:\\Code\\kyber-verified\\contracts\\sol6\\mock\\KyberNetworkNoMaxDest.sol",
  "compiler": {
    "name": "solc",
    "version": "0.6.6+commit.6c089d02.Emscripten.clang"
  },
  "schemaVersion": "3.4.3",
  "updatedAt": "2022-08-07T13:46:17.938Z",
  "devdoc": {
    "methods": {
      "addKyberProxy(address)": {
        "details": "No. of kyberProxies is capped"
      },
      "claimAdmin()": {
        "details": "Allows the pendingAdmin address to finalize the change admin process."
      },
      "getAndUpdateNetworkFee()": {
        "details": "Note that this function can be triggered by anyone, so that     the first trader of a new epoch can avoid incurring extra gas costs"
      },
      "getExpectedRate(address,address,uint256)": {
        "details": "Gets the expected and slippage rate for exchanging src -> dest tokenworstRate is hardcoded to be 3% lower of expectedRate",
        "params": {
          "dest": "Destination token",
          "src": "Source token",
          "srcQty": "Amount of src tokens in twei"
        },
        "returns": {
          "expectedRate": "for a trade after deducting network fee. ",
          "worstRate": "for a trade. Calculated to be expectedRate * 97 / 100"
        }
      },
      "getExpectedRateWithHintAndFee(address,address,uint256,uint256,bytes)": {
        "details": "gets the expected rates when trading src -> dest token, with / without fees",
        "params": {
          "dest": "Destination token",
          "hint": "Advanced instructions for running the trade ",
          "platformFeeBps": "Part of the trade that is allocated as fee to platform wallet. Ex: 1000 = 10%",
          "src": "Source token",
          "srcQty": "Amount of src tokens in twei"
        },
        "returns": {
          "rateWithAllFees": "= actual rate. Rate after accounting for both network and platform fees",
          "rateWithNetworkFee": "Rate after deducting network fee but excluding platform fee"
        }
      },
      "getNetworkData()": {
        "params": {
          "expiryTimestamp": "Timestamp for which networkFeeBps will expire,     and needs to be updated by calling kyberDao contract / set to default",
          "negligibleDiffBps": "Negligible rate difference (in basis pts) when searching best rate",
          "networkFeeBps": "Network fees to be charged (in basis pts)"
        }
      },
      "listReservesForToken(address,uint256,uint256,bool)": {
        "details": "Allow or prevent to trade token -> eth for list of reserves      Useful for migration to new network contract      Call storage to get list of reserves supporting token -> eth",
        "params": {
          "add": "If true, then give reserve token allowance, otherwise set zero allowance",
          "endIndex": "end index in reserves list (can be larger)",
          "startIndex": "start index in reserves list",
          "token": "Token address"
        }
      },
      "listTokenForReserve(address,address,bool)": {
        "details": "Allow or prevent to trade token -> eth for a reserve",
        "params": {
          "add": "If true, then give reserve token allowance, otherwise set zero allowance",
          "reserve": "The reserve address",
          "token": "Token address"
        }
      },
      "tradeWithHint(address,address,uint256,address,address,uint256,uint256,address,bytes)": {
        "details": "Trade from src to dest token and sends dest token to destAddress",
        "params": {
          "dest": "Destination token",
          "destAddress": "Address to send tokens to",
          "hint": "Advanced instructions for running the trade ",
          "maxDestAmount": "A limit on the amount of dest tokens in twei",
          "minConversionRate": "The minimal conversion rate. If actual rate is lower, trade reverts",
          "src": "Source token",
          "srcAmount": "Amount of src tokens in twei",
          "trader": "Address of the taker side of this trade",
          "walletId": "Platform wallet address for receiving fees"
        },
        "returns": {
          "destAmount": "Amount of actual dest tokens in twei"
        }
      },
      "tradeWithHintAndFee(address,address,uint256,address,address,uint256,uint256,address,uint256,bytes)": {
        "details": "Trade from src to dest token and sends dest token to destAddress",
        "params": {
          "dest": "Destination token",
          "destAddress": "Address to send tokens to",
          "hint": "Advanced instructions for running the trade ",
          "maxDestAmount": "A limit on the amount of dest tokens in twei",
          "minConversionRate": "The minimal conversion rate. If actual rate is lower, trade reverts",
          "platformFeeBps": "Part of the trade that is allocated as fee to platform wallet. Ex: 1000 = 10%",
          "platformWallet": "Platform wallet address for receiving fees",
          "src": "Source token",
          "srcAmount": "Amount of src tokens in twei",
          "trader": "Address of the taker side of this trade"
        },
        "returns": {
          "destAmount": "Amount of actual dest tokens in twei"
        }
      },
      "transferAdmin(address)": {
        "details": "Allows the current admin to set the pendingAdmin address",
        "params": {
          "newAdmin": "The address to transfer ownership to"
        }
      },
      "transferAdminQuickly(address)": {
        "details": "Allows the current admin to set the admin in one tx. Useful initial deployment.",
        "params": {
          "newAdmin": "The address to transfer ownership to."
        }
      },
      "withdrawEther(uint256,address)": {
        "details": "Withdraw Ethers"
      },
      "withdrawToken(address,uint256,address)": {
        "details": "Withdraw all IERC20 compatible tokens",
        "params": {
          "token": "IERC20 The address of the token contract"
        }
      }
    }
  },
  "userdoc": {
    "methods": {
      "enabled()": {
        "notice": "returns status of the network. If disabled, trades cannot happen."
      },
      "getAndUpdateNetworkFee()": {
        "notice": "Gets network fee from the kyberDao (or use default).     For trade function, so that data can be updated and cached."
      },
      "getExpectedRate(address,address,uint256)": {
        "notice": "Backward compatible API"
      },
      "getNetworkData()": {
        "notice": "Returns some data about the network"
      },
      "listReservesForToken(address,uint256,uint256,bool)": {
        "notice": "Can be called only by operator"
      },
      "listTokenForReserve(address,address,bool)": {
        "notice": "Can be called only by kyberStorage"
      },
      "maxGasPrice()": {
        "notice": "returns the max gas price allowable for trades"
      },
      "tradeWithHint(address,address,uint256,address,address,uint256,uint256,address,bytes)": {
        "notice": "Backward compatible functionUse token address ETH_TOKEN_ADDRESS for ether"
      },
      "tradeWithHintAndFee(address,address,uint256,address,address,uint256,uint256,address,uint256,bytes)": {
        "notice": "Use token address ETH_TOKEN_ADDRESS for ether"
      }
    }
  }
}