{
  "contractName": "MaliciousStorage",
  "abi": [
    {
      "inputs": [],
      "stateMutability": "nonpayable",
      "type": "constructor"
    },
    {
      "inputs": [],
      "name": "entitledRebateLength",
      "outputs": [
        {
          "internalType": "uint256",
          "name": "",
          "type": "uint256"
        }
      ],
      "stateMutability": "view",
      "type": "function"
    },
    {
      "inputs": [],
      "name": "feeArrayLength",
      "outputs": [
        {
          "internalType": "uint256",
          "name": "",
          "type": "uint256"
        }
      ],
      "stateMutability": "view",
      "type": "function"
    },
    {
      "inputs": [],
      "name": "reserveAddressesLength",
      "outputs": [
        {
          "internalType": "uint256",
          "name": "",
          "type": "uint256"
        }
      ],
      "stateMutability": "view",
      "type": "function"
    },
    {
      "inputs": [
        {
          "internalType": "uint256",
          "name": "_fee",
          "type": "uint256"
        },
        {
          "internalType": "uint256",
          "name": "_rebate",
          "type": "uint256"
        },
        {
          "internalType": "uint256",
          "name": "_addresses",
          "type": "uint256"
        }
      ],
      "name": "setArrayLengths",
      "outputs": [],
      "stateMutability": "nonpayable",
      "type": "function"
    },
    {
      "inputs": [
        {
          "internalType": "contract IKyberFeeHandler",
          "name": "_feeHandler",
          "type": "address"
        },
        {
          "internalType": "address",
          "name": "_matchingEngine",
          "type": "address"
        }
      ],
      "name": "setContracts",
      "outputs": [],
      "stateMutability": "pure",
      "type": "function"
    },
    {
      "inputs": [
        {
          "internalType": "address",
          "name": "networkProxy",
          "type": "address"
        },
        {
          "internalType": "uint256",
          "name": "max_approved_proxies",
          "type": "uint256"
        }
      ],
      "name": "addKyberProxy",
      "outputs": [],
      "stateMutability": "pure",
      "type": "function"
    },
    {
      "inputs": [
        {
          "internalType": "address",
          "name": "networkProxy",
          "type": "address"
        }
      ],
      "name": "removeKyberProxy",
      "outputs": [],
      "stateMutability": "pure",
      "type": "function"
    },
    {
      "inputs": [
        {
          "internalType": "bytes32[]",
          "name": "reserveIds",
          "type": "bytes32[]"
        },
        {
          "internalType": "contract IERC20",
          "name": "",
          "type": "address"
        },
        {
          "internalType": "contract IERC20",
          "name": "",
          "type": "address"
        }
      ],
      "name": "getReservesData",
      "outputs": [
        {
          "internalType": "bool",
          "name": "isValid",
          "type": "bool"
        },
        {
          "internalType": "bool[]",
          "name": "feeAccountedArr",
          "type": "bool[]"
        },
        {
          "internalType": "bool[]",
          "name": "entitledRebateArr",
          "type": "bool[]"
        },
        {
          "internalType": "contract IKyberReserve[]",
          "name": "reserveAddresses",
          "type": "address[]"
        }
      ],
      "stateMutability": "view",
      "type": "function"
    }
  ],
  "bytecode": "0x608060405234801561001057600080fd5b5061040d806100206000396000f3fe608060405234801561001057600080fd5b50600436106100885760003560e01c8063803d58c81161005b578063803d58c814610247578063856062b31461026d578063949c4f1914610296578063d8952a491461029e57610088565b806307f442e11461008d57806333e63d3b146100bb5780634a0bda3c146100d557806350dceb74146100dd575b600080fd5b6100b9600480360360408110156100a357600080fd5b506001600160a01b0381351690602001356102c8565b005b6100c36102cc565b60408051918252519081900360200190f35b6100c36102d2565b61015e600480360360608110156100f357600080fd5b81019060208101813564010000000081111561010e57600080fd5b82018360208201111561012057600080fd5b8035906020019184602083028401116401000000008311171561014257600080fd5b91935091506001600160a01b03813581169160200135166102d8565b6040518085151515158152602001806020018060200180602001848103845287818151815260200191508051906020019060200280838360005b838110156101b0578181015183820152602001610198565b50505050905001848103835286818151815260200191508051906020019060200280838360005b838110156101ef5781810151838201526020016101d7565b50505050905001848103825285818151815260200191508051906020019060200280838360005b8381101561022e578181015183820152602001610216565b5050505090500197505050505050505060405180910390f35b6100b96004803603602081101561025d57600080fd5b50356001600160a01b03166103c0565b6100b96004803603606081101561028357600080fd5b50803590602081013590604001356103c3565b6100c36103d1565b6100b9600480360360408110156102b457600080fd5b506001600160a01b03813581169160200135165b5050565b60015481565b60025481565b600060608060606001935060005467ffffffffffffffff811180156102fc57600080fd5b50604051908082528060200260200182016040528015610326578160200160208202803683370190505b50925060015467ffffffffffffffff8111801561034257600080fd5b5060405190808252806020026020018201604052801561036c578160200160208202803683370190505b50915060025467ffffffffffffffff8111801561038857600080fd5b506040519080825280602002602001820160405280156103b2578160200160208202803683370190505b509050945094509450949050565b50565b600092909255600155600255565b6000548156fea26469706673582212209241daaff0637528f2b70f6b79e3484ca48bc6ebd4459ee37e659c284612296c64736f6c63430006060033",
  "immutableReferences": {},
  "source": "pragma solidity 0.6.6;\n\nimport \"../IKyberReserve.sol\";\nimport \"../IKyberFeeHandler.sol\";\n\n// does not do anything, only return true\ncontract MaliciousStorage {\n    uint public feeArrayLength;\n    uint public entitledRebateLength;\n    uint public reserveAddressesLength;\n\n    constructor() public {}\n\n    function setArrayLengths(uint _fee, uint _rebate, uint _addresses) external {\n        feeArrayLength = _fee;\n        entitledRebateLength = _rebate;\n        reserveAddressesLength = _addresses;\n    }\n\n    function setContracts(IKyberFeeHandler _feeHandler, address _matchingEngine)\n        external\n        pure\n    {\n        _feeHandler;\n        _matchingEngine;\n    }\n\n    function addKyberProxy(address networkProxy, uint256 max_approved_proxies)\n        external\n        pure\n    {\n        networkProxy;\n        max_approved_proxies;\n    }\n\n    function removeKyberProxy(address networkProxy) external pure {\n        networkProxy;\n    }\n\n    function getReservesData(bytes32[] calldata reserveIds, IERC20 , IERC20 )\n        external\n        view\n        returns (\n            bool isValid,\n            bool[] memory feeAccountedArr,\n            bool[] memory entitledRebateArr,\n            IKyberReserve[] memory reserveAddresses\n            )\n    {\n        isValid = true;\n        reserveIds;\n        feeAccountedArr = new bool[](feeArrayLength);\n        entitledRebateArr = new bool[](entitledRebateLength);\n        reserveAddresses = new IKyberReserve[](reserveAddressesLength);\n    }\n}\n",
  "sourcePath": "D:\\Code\\kyber-verified\\contracts\\sol6\\mock\\MaliciousStorage.sol",
  "compiler": {
    "name": "solc",
    "version": "0.6.6+commit.6c089d02.Emscripten.clang"
  },
  "schemaVersion": "3.4.3",
  "updatedAt": "2022-08-07T13:46:17.966Z",
  "devdoc": {
    "methods": {}
  },
  "userdoc": {
    "methods": {}
  }
}