{
  "contractName": "MockChainLinkSanityRate",
  "abi": [
    {
      "inputs": [
        {
          "internalType": "uint256",
          "name": "_kncEthRate",
          "type": "uint256"
        }
      ],
      "name": "setLatestKncToEthRate",
      "outputs": [],
      "stateMutability": "nonpayable",
      "type": "function"
    },
    {
      "inputs": [],
      "name": "latestAnswer",
      "outputs": [
        {
          "internalType": "uint256",
          "name": "",
          "type": "uint256"
        }
      ],
      "stateMutability": "view",
      "type": "function"
    }
  ],
  "bytecode": "0x608060405234801561001057600080fd5b5060ac8061001f6000396000f3fe6080604052348015600f57600080fd5b506004361060325760003560e01c806350d25bcd146037578063ff3ca95214604f575b600080fd5b603d606b565b60408051918252519081900360200190f35b606960048036036020811015606357600080fd5b50356071565b005b60005490565b60005556fea26469706673582212204419b9f4c685aa1f4896bb5878d6e91492570cde2c88681dbce1eab79a8273da64736f6c63430006060033",
  "immutableReferences": {},
  "source": "pragma solidity 0.6.6;\n\nimport \"../ISanityRate.sol\";\n\n\ncontract MockChainLinkSanityRate is ISanityRate {\n    uint256 latestAnswerValue;\n\n    function setLatestKncToEthRate(uint256 _kncEthRate) external {\n        latestAnswerValue = _kncEthRate;\n    }\n\n    function latestAnswer() external view override returns (uint256) {\n        return latestAnswerValue;\n    }\n}\n",
  "sourcePath": "D:\\Code\\kyber-verified\\contracts\\sol6\\Dao\\mock\\MockChainLinkSanityRate.sol",
  "compiler": {
    "name": "solc",
    "version": "0.6.6+commit.6c089d02.Emscripten.clang"
  },
  "schemaVersion": "3.4.3",
  "updatedAt": "2022-08-07T13:46:17.649Z",
  "devdoc": {
    "methods": {}
  },
  "userdoc": {
    "methods": {}
  }
}