{
  "contractName": "MockDMMLibrary",
  "abi": [
    {
      "inputs": [
        {
          "internalType": "uint256",
          "name": "amountIn",
          "type": "uint256"
        },
        {
          "internalType": "uint256",
          "name": "reserveIn",
          "type": "uint256"
        },
        {
          "internalType": "uint256",
          "name": "reserveOut",
          "type": "uint256"
        },
        {
          "internalType": "uint256",
          "name": "vReserveIn",
          "type": "uint256"
        },
        {
          "internalType": "uint256",
          "name": "vReserveOut",
          "type": "uint256"
        },
        {
          "internalType": "uint256",
          "name": "fee",
          "type": "uint256"
        }
      ],
      "name": "getAmountOut",
      "outputs": [
        {
          "internalType": "uint256",
          "name": "amountOut",
          "type": "uint256"
        }
      ],
      "stateMutability": "pure",
      "type": "function"
    },
    {
      "inputs": [
        {
          "internalType": "uint256",
          "name": "amountOut",
          "type": "uint256"
        },
        {
          "internalType": "uint256",
          "name": "reserveIn",
          "type": "uint256"
        },
        {
          "internalType": "uint256",
          "name": "reserveOut",
          "type": "uint256"
        },
        {
          "internalType": "uint256",
          "name": "vReserveIn",
          "type": "uint256"
        },
        {
          "internalType": "uint256",
          "name": "vReserveOut",
          "type": "uint256"
        },
        {
          "internalType": "uint256",
          "name": "fee",
          "type": "uint256"
        }
      ],
      "name": "getAmountIn",
      "outputs": [
        {
          "internalType": "uint256",
          "name": "amountIn",
          "type": "uint256"
        }
      ],
      "stateMutability": "pure",
      "type": "function"
    },
    {
      "inputs": [
        {
          "internalType": "contract IERC20",
          "name": "tokenA",
          "type": "address"
        },
        {
          "internalType": "contract IERC20",
          "name": "tokenB",
          "type": "address"
        }
      ],
      "name": "sortTokens",
      "outputs": [
        {
          "internalType": "contract IERC20",
          "name": "token0",
          "type": "address"
        },
        {
          "internalType": "contract IERC20",
          "name": "token1",
          "type": "address"
        }
      ],
      "stateMutability": "pure",
      "type": "function"
    }
  ],
  "bytecode": "0x608060405234801561001057600080fd5b506106cf806100206000396000f3fe608060405234801561001057600080fd5b50600436106100415760003560e01c80635445b9f814610046578063544caa561461009357806360c26fbc146100f0575b600080fd5b610081600480360360c081101561005c57600080fd5b5080359060208101359060408101359060608101359060808101359060a0013561012b565b60408051918252519081900360200190f35b6100c1600480360360408110156100a957600080fd5b506001600160a01b0381358116916020013516610146565b60405180836001600160a01b03168152602001826001600160a01b031681526020019250505060405180910390f35b610081600480360360c081101561010657600080fd5b5080359060208101359060408101359060608101359060808101359060a0013561015f565b600061013b87878787878761016f565b979650505050505050565b6000806101538484610297565b915091505b9250929050565b600061013b878787878787610384565b60008087116101af5760405162461bcd60e51b81526004018080602001828103825260258152602001806106756025913960400191505060405180910390fd5b6000861180156101bf5750600085115b6101fa5760405162461bcd60e51b815260040180806020018281038252602281526020018061060c6022913960400191505060405180910390fd5b6000610222670de0b6b3a764000061021c6102158287610488565b8b906104ea565b9061054a565b9050600061023082866104ea565b9050600061023e87846105b1565b905061024a828261054a565b935083881161028a5760405162461bcd60e51b815260040180806020018281038252602281526020018061060c6022913960400191505060405180910390fd5b5050509695505050505050565b600080826001600160a01b0316846001600160a01b03161415610301576040805162461bcd60e51b815260206004820152601f60248201527f444d4d4c6962726172793a204944454e544943414c5f41444452455353455300604482015290519081900360640190fd5b826001600160a01b0316846001600160a01b031610610321578284610324565b83835b90925090506001600160a01b038216610158576040805162461bcd60e51b815260206004820152601860248201527f444d4d4c6962726172793a205a45524f5f414444524553530000000000000000604482015290519081900360640190fd5b60008087116103c45760405162461bcd60e51b815260040180806020018281038252602681526020018061064f6026913960400191505060405180910390fd5b6000861180156103d357508685115b61040e5760405162461bcd60e51b815260040180806020018281038252602281526020018061060c6022913960400191505060405180910390fd5b600061041a85896104ea565b90506000610428858a610488565b905061043f6001610439848461054a565b906105b1565b925061045383670de0b6b3a76400006104ea565b9150610467670de0b6b3a764000085610488565b905061047b8161021c8460001983016105b1565b9998505050505050505050565b6000828211156104df576040805162461bcd60e51b815260206004820152601e60248201527f536166654d6174683a207375627472616374696f6e206f766572666c6f770000604482015290519081900360640190fd5b508082035b92915050565b6000826104f9575060006104e4565b8282028284828161050657fe5b04146105435760405162461bcd60e51b815260040180806020018281038252602181526020018061062e6021913960400191505060405180910390fd5b9392505050565b60008082116105a0576040805162461bcd60e51b815260206004820152601a60248201527f536166654d6174683a206469766973696f6e206279207a65726f000000000000604482015290519081900360640190fd5b8183816105a957fe5b049392505050565b600082820183811015610543576040805162461bcd60e51b815260206004820152601b60248201527f536166654d6174683a206164646974696f6e206f766572666c6f770000000000604482015290519081900360640190fdfe444d4d4c6962726172793a20494e53554646494349454e545f4c4951554944495459536166654d6174683a206d756c7469706c69636174696f6e206f766572666c6f77444d4d4c6962726172793a20494e53554646494349454e545f4f55545055545f414d4f554e54444d4d4c6962726172793a20494e53554646494349454e545f494e5055545f414d4f554e54a26469706673582212202027c13392e55a2671e089872bd24246fb8260c11c450401a62137fc2f6b993364736f6c634300060c0033",
  "immutableReferences": {},
  "source": "// SPDX-License-Identifier: UNLICENSED\r\npragma solidity 0.6.12;\r\n\r\nimport \"../libraries/DMMLibrary.sol\";\r\n\r\ncontract MockDMMLibrary {\r\n    function getAmountOut(\r\n        uint256 amountIn,\r\n        uint256 reserveIn,\r\n        uint256 reserveOut,\r\n        uint256 vReserveIn,\r\n        uint256 vReserveOut,\r\n        uint256 fee\r\n    ) external pure returns (uint256 amountOut) {\r\n        return\r\n            DMMLibrary.getAmountOut(amountIn, reserveIn, reserveOut, vReserveIn, vReserveOut, fee);\r\n    }\r\n\r\n    function getAmountIn(\r\n        uint256 amountOut,\r\n        uint256 reserveIn,\r\n        uint256 reserveOut,\r\n        uint256 vReserveIn,\r\n        uint256 vReserveOut,\r\n        uint256 fee\r\n    ) external pure returns (uint256 amountIn) {\r\n        return\r\n            DMMLibrary.getAmountIn(amountOut, reserveIn, reserveOut, vReserveIn, vReserveOut, fee);\r\n    }\r\n\r\n    function sortTokens(IERC20 tokenA, IERC20 tokenB)\r\n        external\r\n        pure\r\n        returns (IERC20 token0, IERC20 token1)\r\n    {\r\n        return DMMLibrary.sortTokens(tokenA, tokenB);\r\n    }\r\n}\r\n",
  "sourcePath": "D:\\Code\\kyber-verified\\contracts\\dmm\\mock\\MockDMMLibrary.sol",
  "compiler": {
    "name": "solc",
    "version": "0.6.12+commit.27d51765.Emscripten.clang"
  },
  "schemaVersion": "3.4.3",
  "updatedAt": "2022-08-29T13:25:10.109Z",
  "devdoc": {
    "kind": "dev",
    "methods": {},
    "version": 1
  },
  "userdoc": {
    "kind": "user",
    "methods": {},
    "version": 1
  }
}