{
  "contractName": "MockPermissionGroupsNoModifiers",
  "abi": [
    {
      "inputs": [],
      "stateMutability": "nonpayable",
      "type": "constructor"
    },
    {
      "anonymous": false,
      "inputs": [
        {
          "indexed": false,
          "internalType": "address",
          "name": "newAdmin",
          "type": "address"
        },
        {
          "indexed": false,
          "internalType": "address",
          "name": "previousAdmin",
          "type": "address"
        }
      ],
      "name": "AdminClaimed",
      "type": "event"
    },
    {
      "anonymous": false,
      "inputs": [
        {
          "indexed": false,
          "internalType": "address",
          "name": "newAlerter",
          "type": "address"
        },
        {
          "indexed": false,
          "internalType": "bool",
          "name": "isAdd",
          "type": "bool"
        }
      ],
      "name": "AlerterAdded",
      "type": "event"
    },
    {
      "anonymous": false,
      "inputs": [
        {
          "indexed": false,
          "internalType": "address",
          "name": "newOperator",
          "type": "address"
        },
        {
          "indexed": false,
          "internalType": "bool",
          "name": "isAdd",
          "type": "bool"
        }
      ],
      "name": "OperatorAdded",
      "type": "event"
    },
    {
      "anonymous": false,
      "inputs": [
        {
          "indexed": false,
          "internalType": "address",
          "name": "pendingAdmin",
          "type": "address"
        }
      ],
      "name": "TransferAdminPending",
      "type": "event"
    },
    {
      "inputs": [
        {
          "internalType": "address",
          "name": "newAlerter",
          "type": "address"
        }
      ],
      "name": "addAlerter",
      "outputs": [],
      "stateMutability": "nonpayable",
      "type": "function"
    },
    {
      "inputs": [
        {
          "internalType": "address",
          "name": "newOperator",
          "type": "address"
        }
      ],
      "name": "addOperator",
      "outputs": [],
      "stateMutability": "nonpayable",
      "type": "function"
    },
    {
      "inputs": [],
      "name": "admin",
      "outputs": [
        {
          "internalType": "address",
          "name": "",
          "type": "address"
        }
      ],
      "stateMutability": "view",
      "type": "function"
    },
    {
      "inputs": [],
      "name": "claimAdmin",
      "outputs": [],
      "stateMutability": "nonpayable",
      "type": "function"
    },
    {
      "inputs": [],
      "name": "getAlerters",
      "outputs": [
        {
          "internalType": "address[]",
          "name": "",
          "type": "address[]"
        }
      ],
      "stateMutability": "view",
      "type": "function"
    },
    {
      "inputs": [],
      "name": "getOperators",
      "outputs": [
        {
          "internalType": "address[]",
          "name": "",
          "type": "address[]"
        }
      ],
      "stateMutability": "view",
      "type": "function"
    },
    {
      "inputs": [],
      "name": "pendingAdmin",
      "outputs": [
        {
          "internalType": "address",
          "name": "",
          "type": "address"
        }
      ],
      "stateMutability": "view",
      "type": "function"
    },
    {
      "inputs": [],
      "name": "rate",
      "outputs": [
        {
          "internalType": "uint256",
          "name": "",
          "type": "uint256"
        }
      ],
      "stateMutability": "view",
      "type": "function"
    },
    {
      "inputs": [
        {
          "internalType": "address",
          "name": "alerter",
          "type": "address"
        }
      ],
      "name": "removeAlerter",
      "outputs": [],
      "stateMutability": "nonpayable",
      "type": "function"
    },
    {
      "inputs": [
        {
          "internalType": "address",
          "name": "operator",
          "type": "address"
        }
      ],
      "name": "removeOperator",
      "outputs": [],
      "stateMutability": "nonpayable",
      "type": "function"
    },
    {
      "inputs": [],
      "name": "tradeActive",
      "outputs": [
        {
          "internalType": "bool",
          "name": "",
          "type": "bool"
        }
      ],
      "stateMutability": "view",
      "type": "function"
    },
    {
      "inputs": [
        {
          "internalType": "address",
          "name": "newAdmin",
          "type": "address"
        }
      ],
      "name": "transferAdmin",
      "outputs": [],
      "stateMutability": "nonpayable",
      "type": "function"
    },
    {
      "inputs": [
        {
          "internalType": "address",
          "name": "newAdmin",
          "type": "address"
        }
      ],
      "name": "transferAdminQuickly",
      "outputs": [],
      "stateMutability": "nonpayable",
      "type": "function"
    },
    {
      "inputs": [],
      "name": "activateTrade",
      "outputs": [],
      "stateMutability": "nonpayable",
      "type": "function"
    },
    {
      "inputs": [
        {
          "internalType": "uint256",
          "name": "newRate",
          "type": "uint256"
        }
      ],
      "name": "setRate",
      "outputs": [],
      "stateMutability": "nonpayable",
      "type": "function"
    },
    {
      "inputs": [],
      "name": "stopTrade",
      "outputs": [],
      "stateMutability": "nonpayable",
      "type": "function"
    }
  ],
  "bytecode": "0x60806040526007805460ff1916600117905534801561001d57600080fd5b50338061005b576040805162461bcd60e51b8152602060048201526007602482015266061646d696e20360cc1b604482015290519081900360640190fd5b600080546001600160a01b039092166001600160a01b0319909216919091179055610d9b8061008b6000396000f3fe608060405234801561001057600080fd5b50600436106101005760003560e01c806377f50f97116100975780639870d7fe116100665780639870d7fe14610286578063ac8a584a146102ac578063ca770092146102d2578063f851a440146102da57610100565b806377f50f97146102485780637acc8678146102505780637c423f54146102765780638baeefce1461027e57610100565b806334fcf437116100d357806334fcf437146101c3578063408ee7fe146101e05780635882128d1461020657806375829def1461022257610100565b806301a12fd314610105578063267822471461012d57806327a099d8146101515780632c4e722e146101a9575b600080fd5b61012b6004803603602081101561011b57600080fd5b50356001600160a01b03166102e2565b005b61013561048e565b604080516001600160a01b039092168252519081900360200190f35b61015961049d565b60408051602080825283518183015283519192839290830191858101910280838360005b8381101561019557818101518382015260200161017d565b505050509050019250505060405180910390f35b6101b16104ff565b60408051918252519081900360200190f35b61012b600480360360208110156101d957600080fd5b5035610505565b61012b600480360360208110156101f657600080fd5b50356001600160a01b0316610512565b61020e610669565b604080519115158252519081900360200190f35b61012b6004803603602081101561023857600080fd5b50356001600160a01b0316610672565b61012b610721565b61012b6004803603602081101561026657600080fd5b50356001600160a01b03166107e1565b6101596108d4565b61012b610934565b61012b6004803603602081101561029c57600080fd5b50356001600160a01b0316610948565b61012b600480360360208110156102c257600080fd5b50356001600160a01b0316610aa1565b61012b610c4a565b610135610c61565b6102ea610c70565b6001600160a01b03811660009081526003602052604090205460ff16610345576040805162461bcd60e51b815260206004820152600b60248201526a3737ba1030b632b93a32b960a91b604482015290519081900360640190fd5b6001600160a01b0381166000908152600360205260408120805460ff191690555b60055481101561048a57816001600160a01b03166005828154811061038757fe5b6000918252602090912001546001600160a01b03161415610482576005805460001981019081106103b457fe5b600091825260209091200154600580546001600160a01b0390921691839081106103da57fe5b9060005260206000200160006101000a8154816001600160a01b0302191690836001600160a01b03160217905550600580548061041357fe5b60008281526020808220830160001990810180546001600160a01b0319169055909201909255604080516001600160a01b03861681529182019290925281517f5611bf3e417d124f97bf2c788843ea8bb502b66079fbee02158ef30b172cb762929181900390910190a161048a565b600101610366565b5050565b6001546001600160a01b031681565b606060048054806020026020016040519081016040528092919081815260200182805480156104f557602002820191906000526020600020905b81546001600160a01b031681526001909101906020018083116104d7575b5050505050905090565b60065481565b61050d610cbe565b600655565b61051a610c70565b6001600160a01b03811660009081526003602052604090205460ff1615610579576040805162461bcd60e51b815260206004820152600e60248201526d616c65727465722065786973747360901b604482015290519081900360640190fd5b6005546032116105bf576040805162461bcd60e51b815260206004820152600c60248201526b6d617820616c65727465727360a01b604482015290519081900360640190fd5b604080516001600160a01b03831681526001602082015281517f5611bf3e417d124f97bf2c788843ea8bb502b66079fbee02158ef30b172cb762929181900390910190a16001600160a01b03166000818152600360205260408120805460ff191660019081179091556005805491820181559091527f036b6384b5eca791c62761152d0c79bb0604c104a5fb6f4eb0703f3154bb3db00180546001600160a01b0319169091179055565b60075460ff1681565b61067a610c70565b6001600160a01b0381166106c3576040805162461bcd60e51b815260206004820152600b60248201526a06e65772061646d696e20360ac1b604482015290519081900360640190fd5b604080516001600160a01b038316815290517f3b81caf78fa51ecbc8acb482fd7012a277b428d9b80f9d156e8a54107496cc409181900360200190a1600180546001600160a01b0319166001600160a01b0392909216919091179055565b6001546001600160a01b0316331461076e576040805162461bcd60e51b815260206004820152600b60248201526a6e6f742070656e64696e6760a81b604482015290519081900360640190fd5b600154600054604080516001600160a01b03938416815292909116602083015280517f65da1cfc2c2e81576ad96afb24a581f8e109b7a403b35cbd3243a1c99efdb9ed9281900390910190a160018054600080546001600160a01b03199081166001600160a01b03841617909155169055565b6107e9610c70565b6001600160a01b03811661082e576040805162461bcd60e51b8152602060048201526007602482015266061646d696e20360cc1b604482015290519081900360640190fd5b604080516001600160a01b038316815290517f3b81caf78fa51ecbc8acb482fd7012a277b428d9b80f9d156e8a54107496cc409181900360200190a1600054604080516001600160a01b038085168252909216602083015280517f65da1cfc2c2e81576ad96afb24a581f8e109b7a403b35cbd3243a1c99efdb9ed9281900390910190a1600080546001600160a01b0319166001600160a01b0392909216919091179055565b606060058054806020026020016040519081016040528092919081815260200182805480156104f5576020028201919060005260206000209081546001600160a01b031681526001909101906020018083116104d7575050505050905090565b61093c610d12565b6007805460ff19169055565b610950610c70565b6001600160a01b03811660009081526002602052604090205460ff16156109b0576040805162461bcd60e51b815260206004820152600f60248201526e6f70657261746f722065786973747360881b604482015290519081900360640190fd5b6004546032116109f7576040805162461bcd60e51b815260206004820152600d60248201526c6d6178206f70657261746f727360981b604482015290519081900360640190fd5b604080516001600160a01b03831681526001602082015281517f091a7a4b85135fdd7e8dbc18b12fabe5cc191ea867aa3c2e1a24a102af61d58b929181900390910190a16001600160a01b03166000818152600260205260408120805460ff191660019081179091556004805491820181559091527f8a35acfbc15ff81a39ae7d344fd709f28e8600b4aa8c65c6b64bfe7fe36bd19b0180546001600160a01b0319169091179055565b610aa9610c70565b6001600160a01b03811660009081526002602052604090205460ff16610b05576040805162461bcd60e51b815260206004820152600c60248201526b3737ba1037b832b930ba37b960a11b604482015290519081900360640190fd5b6001600160a01b0381166000908152600260205260408120805460ff191690555b60045481101561048a57816001600160a01b031660048281548110610b4757fe5b6000918252602090912001546001600160a01b03161415610c4257600480546000198101908110610b7457fe5b600091825260209091200154600480546001600160a01b039092169183908110610b9a57fe5b9060005260206000200160006101000a8154816001600160a01b0302191690836001600160a01b031602179055506004805480610bd357fe5b60008281526020808220830160001990810180546001600160a01b0319169055909201909255604080516001600160a01b03861681529182019290925281517f091a7a4b85135fdd7e8dbc18b12fabe5cc191ea867aa3c2e1a24a102af61d58b929181900390910190a161048a565b600101610b26565b610c52610cbe565b6007805460ff19166001179055565b6000546001600160a01b031681565b6000546001600160a01b03163314610cbc576040805162461bcd60e51b815260206004820152600a60248201526937b7363c9030b236b4b760b11b604482015290519081900360640190fd5b565b3360009081526002602052604090205460ff16610cbc576040805162461bcd60e51b815260206004820152600d60248201526c37b7363c9037b832b930ba37b960991b604482015290519081900360640190fd5b3360009081526003602052604090205460ff16610cbc576040805162461bcd60e51b815260206004820152600c60248201526b37b7363c9030b632b93a32b960a11b604482015290519081900360640190fdfea264697066735822122019010f2c3528627ad2763d174f80a08bbd53d1e7bf2d8a47785c6226d3f801d364736f6c63430006060033",
  "immutableReferences": {},
  "source": "pragma solidity 0.6.6;\n\nimport \"../utils/PermissionGroupsNoModifiers.sol\";\n\n\ncontract MockPermissionGroupsNoModifiers is PermissionGroupsNoModifiers {\n    uint256 public rate;\n    bool public tradeActive = true;\n\n    constructor() public PermissionGroupsNoModifiers(msg.sender) {}\n\n    function activateTrade() public {\n        onlyOperator();\n        tradeActive = true;\n    }\n\n    function setRate(uint256 newRate) public {\n        onlyOperator();\n        rate = newRate;\n    }\n\n    function stopTrade() public {\n        onlyAlerter();\n        tradeActive = false;\n    }\n}\n",
  "sourcePath": "D:\\Code\\kyber-verified\\contracts\\sol6\\mock\\MockPermissionGroupsNoModifiers.sol",
  "compiler": {
    "name": "solc",
    "version": "0.6.6+commit.6c089d02.Emscripten.clang"
  },
  "schemaVersion": "3.4.3",
  "updatedAt": "2022-08-07T13:46:17.999Z",
  "devdoc": {
    "methods": {
      "claimAdmin()": {
        "details": "Allows the pendingAdmin address to finalize the change admin process."
      },
      "transferAdmin(address)": {
        "details": "Allows the current admin to set the pendingAdmin address",
        "params": {
          "newAdmin": "The address to transfer ownership to"
        }
      },
      "transferAdminQuickly(address)": {
        "details": "Allows the current admin to set the admin in one tx. Useful initial deployment.",
        "params": {
          "newAdmin": "The address to transfer ownership to."
        }
      }
    }
  },
  "userdoc": {
    "methods": {}
  }
}