{
  "contractName": "MockKyberStaking",
  "abi": [
    {
      "inputs": [
        {
          "internalType": "contract IERC20",
          "name": "_kncToken",
          "type": "address"
        },
        {
          "internalType": "uint256",
          "name": "_epochPeriod",
          "type": "uint256"
        },
        {
          "internalType": "uint256",
          "name": "_startBlock",
          "type": "uint256"
        },
        {
          "internalType": "contract IKyberDao",
          "name": "_admin",
          "type": "address"
        }
      ],
      "stateMutability": "nonpayable",
      "type": "constructor"
    },
    {
      "anonymous": false,
      "inputs": [
        {
          "indexed": true,
          "internalType": "address",
          "name": "staker",
          "type": "address"
        },
        {
          "indexed": true,
          "internalType": "address",
          "name": "representative",
          "type": "address"
        },
        {
          "indexed": true,
          "internalType": "uint256",
          "name": "epoch",
          "type": "uint256"
        },
        {
          "indexed": false,
          "internalType": "bool",
          "name": "isDelegated",
          "type": "bool"
        }
      ],
      "name": "Delegated",
      "type": "event"
    },
    {
      "anonymous": false,
      "inputs": [
        {
          "indexed": false,
          "internalType": "uint256",
          "name": "curEpoch",
          "type": "uint256"
        },
        {
          "indexed": true,
          "internalType": "address",
          "name": "staker",
          "type": "address"
        },
        {
          "indexed": false,
          "internalType": "uint256",
          "name": "amount",
          "type": "uint256"
        }
      ],
      "name": "Deposited",
      "type": "event"
    },
    {
      "anonymous": false,
      "inputs": [
        {
          "indexed": true,
          "internalType": "uint256",
          "name": "curEpoch",
          "type": "uint256"
        },
        {
          "indexed": true,
          "internalType": "address",
          "name": "staker",
          "type": "address"
        },
        {
          "indexed": false,
          "internalType": "uint256",
          "name": "amount",
          "type": "uint256"
        }
      ],
      "name": "Withdraw",
      "type": "event"
    },
    {
      "anonymous": false,
      "inputs": [
        {
          "indexed": false,
          "internalType": "uint256",
          "name": "curEpoch",
          "type": "uint256"
        },
        {
          "indexed": false,
          "internalType": "address",
          "name": "staker",
          "type": "address"
        },
        {
          "indexed": false,
          "internalType": "uint256",
          "name": "amount",
          "type": "uint256"
        }
      ],
      "name": "WithdrawDataUpdateFailed",
      "type": "event"
    },
    {
      "inputs": [
        {
          "internalType": "address",
          "name": "newRepresentative",
          "type": "address"
        }
      ],
      "name": "delegate",
      "outputs": [],
      "stateMutability": "nonpayable",
      "type": "function"
    },
    {
      "inputs": [
        {
          "internalType": "uint256",
          "name": "amount",
          "type": "uint256"
        }
      ],
      "name": "deposit",
      "outputs": [],
      "stateMutability": "nonpayable",
      "type": "function"
    },
    {
      "inputs": [],
      "name": "epochPeriodInSeconds",
      "outputs": [
        {
          "internalType": "uint256",
          "name": "",
          "type": "uint256"
        }
      ],
      "stateMutability": "view",
      "type": "function"
    },
    {
      "inputs": [],
      "name": "firstEpochStartTimestamp",
      "outputs": [
        {
          "internalType": "uint256",
          "name": "",
          "type": "uint256"
        }
      ],
      "stateMutability": "view",
      "type": "function"
    },
    {
      "inputs": [],
      "name": "getCurrentEpochNumber",
      "outputs": [
        {
          "internalType": "uint256",
          "name": "",
          "type": "uint256"
        }
      ],
      "stateMutability": "view",
      "type": "function"
    },
    {
      "inputs": [
        {
          "internalType": "address",
          "name": "staker",
          "type": "address"
        },
        {
          "internalType": "uint256",
          "name": "epoch",
          "type": "uint256"
        }
      ],
      "name": "getDelegatedStake",
      "outputs": [
        {
          "internalType": "uint256",
          "name": "",
          "type": "uint256"
        }
      ],
      "stateMutability": "view",
      "type": "function"
    },
    {
      "inputs": [
        {
          "internalType": "uint256",
          "name": "timestamp",
          "type": "uint256"
        }
      ],
      "name": "getEpochNumber",
      "outputs": [
        {
          "internalType": "uint256",
          "name": "",
          "type": "uint256"
        }
      ],
      "stateMutability": "view",
      "type": "function"
    },
    {
      "inputs": [
        {
          "internalType": "address",
          "name": "staker",
          "type": "address"
        }
      ],
      "name": "getLatestDelegatedStake",
      "outputs": [
        {
          "internalType": "uint256",
          "name": "",
          "type": "uint256"
        }
      ],
      "stateMutability": "view",
      "type": "function"
    },
    {
      "inputs": [
        {
          "internalType": "address",
          "name": "staker",
          "type": "address"
        }
      ],
      "name": "getLatestRepresentative",
      "outputs": [
        {
          "internalType": "address",
          "name": "",
          "type": "address"
        }
      ],
      "stateMutability": "view",
      "type": "function"
    },
    {
      "inputs": [
        {
          "internalType": "address",
          "name": "staker",
          "type": "address"
        }
      ],
      "name": "getLatestStakeBalance",
      "outputs": [
        {
          "internalType": "uint256",
          "name": "",
          "type": "uint256"
        }
      ],
      "stateMutability": "view",
      "type": "function"
    },
    {
      "inputs": [
        {
          "internalType": "address",
          "name": "staker",
          "type": "address"
        }
      ],
      "name": "getLatestStakerData",
      "outputs": [
        {
          "internalType": "uint256",
          "name": "stake",
          "type": "uint256"
        },
        {
          "internalType": "uint256",
          "name": "delegatedStake",
          "type": "uint256"
        },
        {
          "internalType": "address",
          "name": "representative",
          "type": "address"
        }
      ],
      "stateMutability": "view",
      "type": "function"
    },
    {
      "inputs": [
        {
          "internalType": "address",
          "name": "staker",
          "type": "address"
        },
        {
          "internalType": "uint256",
          "name": "epoch",
          "type": "uint256"
        }
      ],
      "name": "getRepresentative",
      "outputs": [
        {
          "internalType": "address",
          "name": "",
          "type": "address"
        }
      ],
      "stateMutability": "view",
      "type": "function"
    },
    {
      "inputs": [
        {
          "internalType": "address",
          "name": "staker",
          "type": "address"
        },
        {
          "internalType": "uint256",
          "name": "epoch",
          "type": "uint256"
        }
      ],
      "name": "getStake",
      "outputs": [
        {
          "internalType": "uint256",
          "name": "",
          "type": "uint256"
        }
      ],
      "stateMutability": "view",
      "type": "function"
    },
    {
      "inputs": [
        {
          "internalType": "address",
          "name": "staker",
          "type": "address"
        },
        {
          "internalType": "uint256",
          "name": "epoch",
          "type": "uint256"
        }
      ],
      "name": "getStakerData",
      "outputs": [
        {
          "internalType": "uint256",
          "name": "stake",
          "type": "uint256"
        },
        {
          "internalType": "uint256",
          "name": "delegatedStake",
          "type": "uint256"
        },
        {
          "internalType": "address",
          "name": "representative",
          "type": "address"
        }
      ],
      "stateMutability": "view",
      "type": "function"
    },
    {
      "inputs": [
        {
          "internalType": "address",
          "name": "staker",
          "type": "address"
        },
        {
          "internalType": "uint256",
          "name": "epoch",
          "type": "uint256"
        }
      ],
      "name": "getStakerRawData",
      "outputs": [
        {
          "internalType": "uint256",
          "name": "stake",
          "type": "uint256"
        },
        {
          "internalType": "uint256",
          "name": "delegatedStake",
          "type": "uint256"
        },
        {
          "internalType": "address",
          "name": "representative",
          "type": "address"
        }
      ],
      "stateMutability": "view",
      "type": "function"
    },
    {
      "inputs": [
        {
          "internalType": "address",
          "name": "staker",
          "type": "address"
        },
        {
          "internalType": "uint256",
          "name": "amount",
          "type": "uint256"
        },
        {
          "internalType": "uint256",
          "name": "curEpoch",
          "type": "uint256"
        }
      ],
      "name": "handleWithdrawal",
      "outputs": [],
      "stateMutability": "nonpayable",
      "type": "function"
    },
    {
      "inputs": [
        {
          "internalType": "address",
          "name": "staker",
          "type": "address"
        }
      ],
      "name": "initAndReturnStakerDataForCurrentEpoch",
      "outputs": [
        {
          "internalType": "uint256",
          "name": "stake",
          "type": "uint256"
        },
        {
          "internalType": "uint256",
          "name": "delegatedStake",
          "type": "uint256"
        },
        {
          "internalType": "address",
          "name": "representative",
          "type": "address"
        }
      ],
      "stateMutability": "nonpayable",
      "type": "function"
    },
    {
      "inputs": [],
      "name": "kncToken",
      "outputs": [
        {
          "internalType": "contract IERC20",
          "name": "",
          "type": "address"
        }
      ],
      "stateMutability": "view",
      "type": "function"
    },
    {
      "inputs": [],
      "name": "kyberDao",
      "outputs": [
        {
          "internalType": "contract IKyberDao",
          "name": "",
          "type": "address"
        }
      ],
      "stateMutability": "view",
      "type": "function"
    },
    {
      "inputs": [
        {
          "internalType": "uint256",
          "name": "amount",
          "type": "uint256"
        }
      ],
      "name": "withdraw",
      "outputs": [],
      "stateMutability": "nonpayable",
      "type": "function"
    },
    {
      "inputs": [
        {
          "internalType": "address",
          "name": "staker",
          "type": "address"
        },
        {
          "internalType": "uint256",
          "name": "epoch",
          "type": "uint256"
        }
      ],
      "name": "getHasInitedValue",
      "outputs": [
        {
          "internalType": "bool",
          "name": "",
          "type": "bool"
        }
      ],
      "stateMutability": "view",
      "type": "function"
    },
    {
      "inputs": [
        {
          "internalType": "address",
          "name": "staker",
          "type": "address"
        },
        {
          "internalType": "uint256",
          "name": "epoch",
          "type": "uint256"
        }
      ],
      "name": "getStakesValue",
      "outputs": [
        {
          "internalType": "uint256",
          "name": "",
          "type": "uint256"
        }
      ],
      "stateMutability": "view",
      "type": "function"
    },
    {
      "inputs": [
        {
          "internalType": "address",
          "name": "staker",
          "type": "address"
        },
        {
          "internalType": "uint256",
          "name": "epoch",
          "type": "uint256"
        }
      ],
      "name": "getDelegatedStakesValue",
      "outputs": [
        {
          "internalType": "uint256",
          "name": "",
          "type": "uint256"
        }
      ],
      "stateMutability": "view",
      "type": "function"
    },
    {
      "inputs": [
        {
          "internalType": "address",
          "name": "staker",
          "type": "address"
        },
        {
          "internalType": "uint256",
          "name": "epoch",
          "type": "uint256"
        }
      ],
      "name": "getRepresentativeValue",
      "outputs": [
        {
          "internalType": "address",
          "name": "",
          "type": "address"
        }
      ],
      "stateMutability": "view",
      "type": "function"
    }
  ],
  "bytecode": "0x60c060405234801561001057600080fd5b50604051611f2b380380611f2b8339818101604052608081101561003357600080fd5b508051602082015160408301516060909301516002805460ff191660011790559192909183838383826100ad576040805162461bcd60e51b815260206004820152601760248201527f63746f723a2065706f636820706572696f642069732030000000000000000000604482015290519081900360640190fd5b42821015610102576040805162461bcd60e51b815260206004820152601760248201527f63746f723a20737461727420696e207468652070617374000000000000000000604482015290519081900360640190fd5b6001600160a01b038416610150576040805162461bcd60e51b815260206004820152601060248201526f063746f723a206b6e63546f6b656e20360841b604482015290519081900360640190fd5b6001600160a01b03811661019e576040805162461bcd60e51b815260206004820152601060248201526f063746f723a206b7962657244616f20360841b604482015290519081900360640190fd5b6000929092556001556001600160601b0319606092831b8116608052911b1660a0525050505060805160601c60a05160601c611d2561020660003980610a6f528061101c5280611091528061167952508061089852806112aa52806113f25250611d256000f3fe608060405234801561001057600080fd5b50600436106101585760003560e01c8063770b3f18116100c3578063cfd476631161007c578063cfd476631461040b578063d42b725414610437578063d46684b21461045d578063d8ad16f314610489578063ddf2ee48146104b5578063f63e7811146104e157610158565b8063770b3f1814610360578063811c7fe21461038c578063901ab5b214610394578063b6b55f25146103c0578063b7a13c4c146103dd578063c70d7b6c1461040357610158565b80634408d2ba116101155780634408d2ba146102905780634d8f5105146102985780635c19a95c146102bc5780635ee5b477146102e257806360e4f2e014610308578063711bbfd91461032e57610158565b8063072b77f11461015d57806316554d62146101955780631c552f00146101e85780631e6f4f99146102055780632e1a7d4d1461024557806342ce39cb14610264575b600080fd5b6101836004803603602081101561017357600080fd5b50356001600160a01b03166104e9565b60408051918252519081900360200190f35b6101c1600480360360408110156101ab57600080fd5b506001600160a01b038135169060200135610508565b6040805193845260208401929092526001600160a01b031682820152519081900360600190f35b610183600480360360208110156101fe57600080fd5b503561056c565b6102316004803603604081101561021b57600080fd5b506001600160a01b0381351690602001356105c9565b604080519115158252519081900360200190f35b6102626004803603602081101561025b57600080fd5b50356105f3565b005b6101c16004803603604081101561027a57600080fd5b506001600160a01b0381351690602001356109b0565b610183610a5d565b6102a0610a6d565b604080516001600160a01b039092168252519081900360200190f35b610262600480360360208110156102d257600080fd5b50356001600160a01b0316610a91565b6102a0600480360360208110156102f857600080fd5b50356001600160a01b0316610da7565b6101c16004803603602081101561031e57600080fd5b50356001600160a01b0316610df3565b6102626004803603606081101561034457600080fd5b506001600160a01b038135169060208101359060400135610e51565b6102a06004803603604081101561037657600080fd5b506001600160a01b03813516906020013561127d565b6102a06112a8565b6102a0600480360360408110156103aa57600080fd5b506001600160a01b0381351690602001356112cc565b610262600480360360208110156103d657600080fd5b5035611368565b6101c1600480360360208110156103f357600080fd5b50356001600160a01b031661166a565b610183611761565b6101836004803603604081101561042157600080fd5b506001600160a01b038135169060200135611767565b6101836004803603602081101561044d57600080fd5b50356001600160a01b0316611800565b6101836004803603604081101561047357600080fd5b506001600160a01b03813516906020013561181e565b6101836004803603604081101561049f57600080fd5b506001600160a01b0381351690602001356118af565b610183600480360360408110156104cb57600080fd5b506001600160a01b0381351690602001356118d9565b610183611900565b6001600160a01b0381166000908152600460205260409020545b919050565b6000806000610515611c93565b5050506000918252506003602090815260408083206001600160a01b039485168452825291829020825160608101845281548082526001830154938201849052600290920154909416939092018390529092909190565b600060015482108061057e5750600054155b1561058b57506000610503565b6105c360016105b76000546105ab6001548761190690919063ffffffff16565b9063ffffffff61194f16565b9063ffffffff61199116565b92915050565b60009081526005602090815260408083206001600160a01b03949094168352929052205460ff1690565b60025460ff1661064a576040805162461bcd60e51b815260206004820152601f60248201527f5265656e7472616e637947756172643a207265656e7472616e742063616c6c00604482015290519081900360640190fd5b6002805460ff191690558061069e576040805162461bcd60e51b8152602060048201526015602482015274077697468647261773a20616d6f756e74206973203605c1b604482015290519081900360640190fd5b60006106a8610a5d565b33600081815260046020526040902054919250908311156106fa5760405162461bcd60e51b8152600401808060200182810382526032815260200180611cbe6032913960400191505060405180910390fd5b604080516001600160a01b038316602482015260448101859052606480820185905282518083039091018152608490910182526020810180516001600160e01b031663711bbfd960e01b17815291518151600093309392918291908083835b602083106107785780518252601f199092019160209182019101610759565b6001836020036101000a0380198251168184511680821785525050505050509050019150506000604051808303816000865af19150503d80600081146107da576040519150601f19603f3d011682016040523d82523d6000602084013e6107df565b606091505b505090508061083157604080518481526001600160a01b038416602082015280820186905290517fa412eef5316d3cbf9e2b4ba3d1cf3e482b40dc8946fd919b7f5053450fa621fb9181900360600190a15b6001600160a01b03821660009081526004602052604090205461085a908563ffffffff61190616565b6001600160a01b03808416600081815260046020818152604080842096909655855163a9059cbb60e01b8152918201939093526024810189905293517f00000000000000000000000000000000000000000000000000000000000000009093169363a9059cbb936044808301949391928390030190829087803b1580156108e057600080fd5b505af11580156108f4573d6000803e3d6000fd5b505050506040513d602081101561090a57600080fd5b505161095d576040805162461bcd60e51b815260206004820152601e60248201527f77697468647261773a2063616e206e6f74207472616e73666572206b6e630000604482015290519081900360640190fd5b6040805185815290516001600160a01b0384169185917f9da6493a92039daf47d1f2d7a782299c5994c6323eb1e972f69c432089ec52bf9181900360200190a350506002805460ff191660011790555050565b60008080806109bd610a5d565b9050806001018511156109d05750610a56565b845b60008181526005602090815260408083206001600160a01b038b16845290915290205460ff1615610a3d5760009081526003602090815260408083206001600160a01b038a81168552925290912080546001820154600290920154909650909450169150610a569050565b80610a4757610a50565b600019016109d2565b86925050505b9250925092565b6000610a684261056c565b905090565b7f000000000000000000000000000000000000000000000000000000000000000081565b6001600160a01b038116610aec576040805162461bcd60e51b815260206004820152601a60248201527f64656c65676174653a20726570726573656e7461746976652030000000000000604482015290519081900360640190fd5b336000610af7610a5d565b9050610b0382826119eb565b6001810160009081526003602090815260408083206001600160a01b0380871685529252909120600201548116908416811415610b4257505050610da4565b6001820160009081526003602090815260408083206001600160a01b03808816808652919093529220549190831614610c5957610b7f82846119eb565b600180840160009081526003602090815260408083206001600160a01b038716845290915290200154610bb8908263ffffffff61190616565b600180850160009081526003602090815260408083206001600160a01b0388168452825280832084019490945560049052919091200154610bff908263ffffffff61190616565b6001600160a01b0380841660008181526004602090815260408083206001019590955584519182529351879492938916927ffbb976ae5268347766b726bd1edba29af0fe16f9c505fbd3b9a10cb6d00cfa3d928290030190a45b6001600160a01b03808516600081815260046020908152604080832060029081018054968c166001600160a01b0319978816811790915560018a0185526003845282852086865290935292209091018054909316811790925514610d9f57610cc185846119eb565b600180840160009081526003602090815260408083206001600160a01b038a16845290915290200154610cfa908263ffffffff61199116565b600180850160009081526003602090815260408083206001600160a01b038b168452825280832084019490945560049052919091200154610d41908263ffffffff61199116565b6001600160a01b0380871660008181526004602090815260409182902060019081019590955581519485529051879492938916927ffbb976ae5268347766b726bd1edba29af0fe16f9c505fbd3b9a10cb6d00cfa3d92908290030190a45b505050505b50565b6001600160a01b0381811660009081526004602052604081206002015490911615610def576001600160a01b03808316600090815260046020526040902060020154166105c3565b5090565b6001600160a01b0380821660009081526004602052604081208054600182015460029092015490939192911615610e47576001600160a01b0380851660009081526004602052604090206002015416610e49565b835b929491935050565b333014610e9d576040805162461bcd60e51b81526020600482015260156024820152741bdb9b1e481cdd185ada5b99c818dbdb9d1c9858dd605a1b604482015290519081900360640190fd5b610ea783826119eb565b6001810160009081526003602090815260408083206001600160a01b0387168452909152902054610ede908363ffffffff61190616565b6001820160009081526003602081815260408084206001600160a01b03808a16808752918452828620969096558685529282528084208385528252808420600281015493855254600490925283205491909316929190610f44908663ffffffff61190616565b90506000610f58838363ffffffff611b8116565b90506000610f6c848363ffffffff61190616565b9050801561119657876001600160a01b0316856001600160a01b031614610ff457610f9785876119eb565b60008681526003602090815260408083206001600160a01b0389168452909152902060010154610fcd908263ffffffff61190616565b60008781526003602090815260408083206001600160a01b038a1684529091529020600101555b60008681526003602090815260408083206001600160a01b03808d16855292529091208390557f0000000000000000000000000000000000000000000000000000000000000000161561119657604080516001600160a01b038781166024830152604480830185905283518084039091018152606490920183526020820180516001600160e01b031663e2346d7160e01b178152925182516000947f000000000000000000000000000000000000000000000000000000000000000093909316939282918083835b602083106110db5780518252601f1990920191602091820191016110bc565b6001836020036101000a0380198251168184511680821785525050505050509050019150506000604051808303816000865af19150503d806000811461113d576040519150601f19603f3d011682016040523d82523d6000602084013e611142565b606091505b505090508061119457604080518881526001600160a01b038b1660208201528082018a905290517fa412eef5316d3cbf9e2b4ba3d1cf3e482b40dc8946fd919b7f5053450fa621fb9181900360600190a15b505b6001860160009081526003602090815260408083206001600160a01b03808d16808652919093529220600201541695508514611273576111d685876119eb565b600180870160009081526003602090815260408083206001600160a01b038a1684529091529020015461120f908863ffffffff61190616565b600180880160009081526003602090815260408083206001600160a01b038b168452825280832084019490945560049052919091200154611256908863ffffffff61190616565b6001600160a01b0386166000908152600460205260409020600101555b5050505050505050565b60009081526003602090815260408083206001600160a01b0394851684529091529020600201541690565b7f000000000000000000000000000000000000000000000000000000000000000081565b6000806112d7610a5d565b9050806001018311156112ee5760009150506105c3565b825b60008181526005602090815260408083206001600160a01b038916845290915290205460ff161561134c5760009081526003602090815260408083206001600160a01b0380891685529252909120600201541691506105c39050565b806113565761135f565b600019016112f0565b50929392505050565b600081116113b4576040805162461bcd60e51b815260206004820152601460248201527306465706f7369743a20616d6f756e7420697320360641b604482015290519081900360640190fd5b60006113be610a5d565b604080516323b872dd60e01b8152336004820181905230602483015260448201869052915192935090916001600160a01b037f000000000000000000000000000000000000000000000000000000000000000016916323b872dd9160648083019260209291908290030181600087803b15801561143a57600080fd5b505af115801561144e573d6000803e3d6000fd5b505050506040513d602081101561146457600080fd5b50516114b7576040805162461bcd60e51b815260206004820152601a60248201527f6465706f7369743a2063616e206e6f742067657420746f6b656e000000000000604482015290519081900360640190fd5b6114c181836119eb565b6001820160009081526003602090815260408083206001600160a01b03851684529091529020546114f8908463ffffffff61199116565b6001830160009081526003602090815260408083206001600160a01b0386168452825280832093909355600490522054611538908463ffffffff61199116565b6001600160a01b038083166000818152600460209081526040808320959095556001870182526003815284822083835290529290922060020154169081146116215761158481846119eb565b600180840160009081526003602090815260408083206001600160a01b0386168452909152902001546115bd908563ffffffff61199116565b600180850160009081526003602090815260408083206001600160a01b0387168452825280832084019490945560049052919091200154611604908563ffffffff61199116565b6001600160a01b0382166000908152600460205260409020600101555b604080518481526020810186905281516001600160a01b038516927f1599c0fcf897af5babc2bfcf707f5dc050f841b044d97c3251ecec35b9abf80b928290030190a250505050565b60008080336001600160a01b037f000000000000000000000000000000000000000000000000000000000000000016146116eb576040805162461bcd60e51b815260206004820181905260248201527f696e6974416e6452657475726e446174613a206f6e6c79206b7962657244616f604482015290519081900360640190fd5b60006116f5610a5d565b905061170185826119eb565b611709611c93565b5060009081526003602090815260408083206001600160a01b03978816845282529182902082516060810184528154808252600183015493820184905260029092015490971696909201869052909590949350915050565b60015481565b600080611772610a5d565b9050806001018311156117895760009150506105c3565b825b60008181526005602090815260408083206001600160a01b038916845290915290205460ff16156117e25760009081526003602090815260408083206001600160a01b038816845290915290205491506105c39050565b806117ec576117f5565b6000190161178b565b506000949350505050565b6001600160a01b031660009081526004602052604090206001015490565b600080611829610a5d565b9050806001018311156118405760009150506105c3565b825b60008181526005602090815260408083206001600160a01b038916845290915290205460ff161561189c5760009081526003602090815260408083206001600160a01b038816845290915290206001015491506105c39050565b806118a6576117f5565b60001901611842565b60009081526003602090815260408083206001600160a01b03949094168352929052206001015490565b60009081526003602090815260408083206001600160a01b03949094168352929052205490565b60005481565b600061194883836040518060400160405280601e81526020017f536166654d6174683a207375627472616374696f6e206f766572666c6f770000815250611b97565b9392505050565b600061194883836040518060400160405280601a81526020017f536166654d6174683a206469766973696f6e206279207a65726f000000000000815250611c2e565b600082820183811015611948576040805162461bcd60e51b815260206004820152601b60248201527f536166654d6174683a206164646974696f6e206f766572666c6f770000000000604482015290519081900360640190fd5b6001600160a01b038083166000908152600460205260409020600201541680611a3d57506001600160a01b038216600081815260046020526040902060020180546001600160a01b0319169091179055815b6001600160a01b03831660008181526004602090815260408083206001810154905487855260058452828520958552949092529091205490919060ff16611ae95760008481526005602090815260408083206001600160a01b038981168086529184528285208054600160ff199091168117909155898652600385528386209286529190935292206002810180546001600160a01b031916928716929092179091559081018390558190555b6001840160009081526005602090815260408083206001600160a01b038916845290915290205460ff16610d9f57600193840160008181526005602090815260408083206001600160a01b03998a16808552908352818420805460ff19168a17905593835260038252808320938352929052206002810180546001600160a01b03191694909616939093179094559181019190915555565b6000818310611b905781611948565b5090919050565b60008184841115611c265760405162461bcd60e51b81526004018080602001828103825283818151815260200191508051906020019080838360005b83811015611beb578181015183820152602001611bd3565b50505050905090810190601f168015611c185780820380516001836020036101000a031916815260200191505b509250505060405180910390fd5b505050900390565b60008183611c7d5760405162461bcd60e51b8152602060048201818152835160248401528351909283926044909101919085019080838360008315611beb578181015183820152602001611bd3565b506000838581611c8957fe5b0495945050505050565b6040518060600160405280600081526020016000815260200160006001600160a01b03168152509056fe77697468647261773a206c617465737420616d6f756e74207374616b6564203c207769746864726177616c20616d6f756e74a2646970667358221220efb72861b629316010fa79b632b0736199d83830f8bb539724e6786c240014c064736f6c63430006060033",
  "immutableReferences": {
    "9996": [
      {
        "length": 32,
        "start": 2200
      },
      {
        "length": 32,
        "start": 4778
      },
      {
        "length": 32,
        "start": 5106
      }
    ],
    "9998": [
      {
        "length": 32,
        "start": 2671
      },
      {
        "length": 32,
        "start": 4124
      },
      {
        "length": 32,
        "start": 4241
      },
      {
        "length": 32,
        "start": 5753
      }
    ]
  },
  "source": "pragma solidity 0.6.6;\n\nimport \"../KyberStaking.sol\";\n\n\ncontract MockKyberStaking is KyberStaking {\n    constructor(\n        IERC20 _kncToken,\n        uint256 _epochPeriod,\n        uint256 _startBlock,\n        IKyberDao _admin\n    ) public KyberStaking(_kncToken, _epochPeriod, _startBlock, _admin) {}\n\n    function getHasInitedValue(address staker, uint256 epoch) public view returns (bool) {\n        return hasInited[epoch][staker];\n    }\n\n    function getStakesValue(address staker, uint256 epoch) public view returns (uint256) {\n        return stakerPerEpochData[epoch][staker].stake;\n    }\n\n    function getDelegatedStakesValue(address staker, uint256 epoch) public view returns (uint256) {\n        return stakerPerEpochData[epoch][staker].delegatedStake;\n    }\n\n    function getRepresentativeValue(address staker, uint256 epoch)\n        public\n        view\n        returns (address)\n    {\n        return stakerPerEpochData[epoch][staker].representative;\n    }\n}\n",
  "sourcePath": "D:\\Code\\kyber-verified\\contracts\\sol6\\Dao\\mock\\MockKyberStaking.sol",
  "compiler": {
    "name": "solc",
    "version": "0.6.6+commit.6c089d02.Emscripten.clang"
  },
  "schemaVersion": "3.4.3",
  "updatedAt": "2022-08-07T13:46:17.665Z",
  "devdoc": {
    "methods": {
      "delegate(address)": {
        "details": "calls to set delegation for msg.sender, will take effect from the next epoch",
        "params": {
          "newRepresentative": "address to delegate to"
        }
      },
      "deposit(uint256)": {
        "details": "call to stake more KNC for msg.sender",
        "params": {
          "amount": "amount of KNC to stake"
        }
      },
      "getDelegatedStake(address,uint256)": {
        "details": "allow to get data up to current epoch + 1"
      },
      "getRepresentative(address,uint256)": {
        "details": "allow to get data up to current epoch + 1"
      },
      "getStake(address,uint256)": {
        "details": "allow to get data up to current epoch + 1"
      },
      "getStakerData(address,uint256)": {
        "details": "allow to get staker data up to current epoch + 1"
      },
      "getStakerRawData(address,uint256)": {
        "details": "in KyberDao contract, if staker wants to claim reward for past epoch,      we must know the staker's data for that epoch      if the data has not been initialized, it means staker hasn't done any action -> no reward"
      },
      "handleWithdrawal(address,uint256,uint256)": {
        "details": "separate logics from withdraw, so staker can withdraw as long as amount <= staker's deposit amount calling this function from withdraw function, ignore reverting",
        "params": {
          "amount": "amount to withdraw",
          "curEpoch": "current epoch",
          "staker": "staker that is withdrawing"
        }
      },
      "initAndReturnStakerDataForCurrentEpoch(address)": {
        "details": "initialize data if needed, then return staker's data for current epochfor safe, only allow calling this func from KyberDao address",
        "params": {
          "staker": "- staker's address to initialize and get data for"
        }
      },
      "withdraw(uint256)": {
        "details": "call to withdraw KNC from staking, it could affect reward when calling KyberDao handleWithdrawal",
        "params": {
          "amount": "amount of KNC to withdraw"
        }
      }
    }
  },
  "userdoc": {
    "methods": {
      "getStakerData(address,uint256)": {
        "notice": "return combine data (stake, delegatedStake, representative) of a staker"
      },
      "getStakerRawData(address,uint256)": {
        "notice": "return raw data of a staker for an epoch        WARN: should be used only for initialized data         if data has not been initialized, it will return all 0         pool master shouldn't use this function to compute/distribute rewards of pool members"
      }
    }
  }
}