{
  "contractName": "MockKyberDaoMoreGetters",
  "abi": [
    {
      "inputs": [
        {
          "internalType": "uint256",
          "name": "_epochPeriod",
          "type": "uint256"
        },
        {
          "internalType": "uint256",
          "name": "_startTimestamp",
          "type": "uint256"
        },
        {
          "internalType": "contract IERC20",
          "name": "_knc",
          "type": "address"
        },
        {
          "internalType": "uint256",
          "name": "_minCampDuration",
          "type": "uint256"
        },
        {
          "internalType": "uint256",
          "name": "_defaultNetworkFeeBps",
          "type": "uint256"
        },
        {
          "internalType": "uint256",
          "name": "_defaultRewardBps",
          "type": "uint256"
        },
        {
          "internalType": "uint256",
          "name": "_defaultRebateBps",
          "type": "uint256"
        },
        {
          "internalType": "address",
          "name": "_admin",
          "type": "address"
        }
      ],
      "stateMutability": "nonpayable",
      "type": "constructor"
    },
    {
      "anonymous": false,
      "inputs": [
        {
          "indexed": true,
          "internalType": "uint256",
          "name": "campaignID",
          "type": "uint256"
        }
      ],
      "name": "CancelledCampaign",
      "type": "event"
    },
    {
      "anonymous": false,
      "inputs": [
        {
          "indexed": false,
          "internalType": "enum KyberDao.CampaignType",
          "name": "campaignType",
          "type": "uint8"
        },
        {
          "indexed": true,
          "internalType": "uint256",
          "name": "campaignID",
          "type": "uint256"
        },
        {
          "indexed": false,
          "internalType": "uint256",
          "name": "startTimestamp",
          "type": "uint256"
        },
        {
          "indexed": false,
          "internalType": "uint256",
          "name": "endTimestamp",
          "type": "uint256"
        },
        {
          "indexed": false,
          "internalType": "uint256",
          "name": "minPercentageInPrecision",
          "type": "uint256"
        },
        {
          "indexed": false,
          "internalType": "uint256",
          "name": "cInPrecision",
          "type": "uint256"
        },
        {
          "indexed": false,
          "internalType": "uint256",
          "name": "tInPrecision",
          "type": "uint256"
        },
        {
          "indexed": false,
          "internalType": "uint256[]",
          "name": "options",
          "type": "uint256[]"
        },
        {
          "indexed": false,
          "internalType": "bytes",
          "name": "link",
          "type": "bytes"
        }
      ],
      "name": "NewCampaignCreated",
      "type": "event"
    },
    {
      "anonymous": false,
      "inputs": [
        {
          "indexed": true,
          "internalType": "address",
          "name": "staker",
          "type": "address"
        },
        {
          "indexed": true,
          "internalType": "uint256",
          "name": "epoch",
          "type": "uint256"
        },
        {
          "indexed": true,
          "internalType": "uint256",
          "name": "campaignID",
          "type": "uint256"
        },
        {
          "indexed": false,
          "internalType": "uint256",
          "name": "option",
          "type": "uint256"
        }
      ],
      "name": "Voted",
      "type": "event"
    },
    {
      "inputs": [],
      "name": "MAX_CAMPAIGN_OPTIONS",
      "outputs": [
        {
          "internalType": "uint256",
          "name": "",
          "type": "uint256"
        }
      ],
      "stateMutability": "view",
      "type": "function"
    },
    {
      "inputs": [],
      "name": "MAX_EPOCH_CAMPAIGNS",
      "outputs": [
        {
          "internalType": "uint256",
          "name": "",
          "type": "uint256"
        }
      ],
      "stateMutability": "view",
      "type": "function"
    },
    {
      "inputs": [
        {
          "internalType": "uint256",
          "name": "",
          "type": "uint256"
        }
      ],
      "name": "brrCampaigns",
      "outputs": [
        {
          "internalType": "uint256",
          "name": "",
          "type": "uint256"
        }
      ],
      "stateMutability": "view",
      "type": "function"
    },
    {
      "inputs": [
        {
          "internalType": "uint256",
          "name": "campaignID",
          "type": "uint256"
        }
      ],
      "name": "cancelCampaign",
      "outputs": [],
      "stateMutability": "nonpayable",
      "type": "function"
    },
    {
      "inputs": [],
      "name": "daoOperator",
      "outputs": [
        {
          "internalType": "address",
          "name": "",
          "type": "address"
        }
      ],
      "stateMutability": "view",
      "type": "function"
    },
    {
      "inputs": [],
      "name": "epochPeriodInSeconds",
      "outputs": [
        {
          "internalType": "uint256",
          "name": "",
          "type": "uint256"
        }
      ],
      "stateMutability": "view",
      "type": "function"
    },
    {
      "inputs": [],
      "name": "firstEpochStartTimestamp",
      "outputs": [
        {
          "internalType": "uint256",
          "name": "",
          "type": "uint256"
        }
      ],
      "stateMutability": "view",
      "type": "function"
    },
    {
      "inputs": [
        {
          "internalType": "uint256",
          "name": "campaignID",
          "type": "uint256"
        }
      ],
      "name": "getCampaignDetails",
      "outputs": [
        {
          "internalType": "enum KyberDao.CampaignType",
          "name": "campaignType",
          "type": "uint8"
        },
        {
          "internalType": "uint256",
          "name": "startTimestamp",
          "type": "uint256"
        },
        {
          "internalType": "uint256",
          "name": "endTimestamp",
          "type": "uint256"
        },
        {
          "internalType": "uint256",
          "name": "totalKNCSupply",
          "type": "uint256"
        },
        {
          "internalType": "uint256",
          "name": "minPercentageInPrecision",
          "type": "uint256"
        },
        {
          "internalType": "uint256",
          "name": "cInPrecision",
          "type": "uint256"
        },
        {
          "internalType": "uint256",
          "name": "tInPrecision",
          "type": "uint256"
        },
        {
          "internalType": "bytes",
          "name": "link",
          "type": "bytes"
        },
        {
          "internalType": "uint256[]",
          "name": "options",
          "type": "uint256[]"
        }
      ],
      "stateMutability": "view",
      "type": "function"
    },
    {
      "inputs": [
        {
          "internalType": "uint256",
          "name": "campaignID",
          "type": "uint256"
        }
      ],
      "name": "getCampaignVoteCountData",
      "outputs": [
        {
          "internalType": "uint256[]",
          "name": "voteCounts",
          "type": "uint256[]"
        },
        {
          "internalType": "uint256",
          "name": "totalVoteCount",
          "type": "uint256"
        }
      ],
      "stateMutability": "view",
      "type": "function"
    },
    {
      "inputs": [
        {
          "internalType": "uint256",
          "name": "campaignID",
          "type": "uint256"
        }
      ],
      "name": "getCampaignWinningOptionAndValue",
      "outputs": [
        {
          "internalType": "uint256",
          "name": "optionID",
          "type": "uint256"
        },
        {
          "internalType": "uint256",
          "name": "value",
          "type": "uint256"
        }
      ],
      "stateMutability": "view",
      "type": "function"
    },
    {
      "inputs": [],
      "name": "getCurrentEpochNumber",
      "outputs": [
        {
          "internalType": "uint256",
          "name": "",
          "type": "uint256"
        }
      ],
      "stateMutability": "view",
      "type": "function"
    },
    {
      "inputs": [
        {
          "internalType": "address",
          "name": "staker",
          "type": "address"
        }
      ],
      "name": "getCurrentEpochRewardPercentageInPrecision",
      "outputs": [
        {
          "internalType": "uint256",
          "name": "",
          "type": "uint256"
        }
      ],
      "stateMutability": "view",
      "type": "function"
    },
    {
      "inputs": [
        {
          "internalType": "uint256",
          "name": "rewardInBps",
          "type": "uint256"
        },
        {
          "internalType": "uint256",
          "name": "rebateInBps",
          "type": "uint256"
        }
      ],
      "name": "getDataFromRewardAndRebateWithValidation",
      "outputs": [
        {
          "internalType": "uint256",
          "name": "data",
          "type": "uint256"
        }
      ],
      "stateMutability": "pure",
      "type": "function"
    },
    {
      "inputs": [
        {
          "internalType": "uint256",
          "name": "timestamp",
          "type": "uint256"
        }
      ],
      "name": "getEpochNumber",
      "outputs": [
        {
          "internalType": "uint256",
          "name": "",
          "type": "uint256"
        }
      ],
      "stateMutability": "view",
      "type": "function"
    },
    {
      "inputs": [],
      "name": "getLatestBRRData",
      "outputs": [
        {
          "internalType": "uint256",
          "name": "burnInBps",
          "type": "uint256"
        },
        {
          "internalType": "uint256",
          "name": "rewardInBps",
          "type": "uint256"
        },
        {
          "internalType": "uint256",
          "name": "rebateInBps",
          "type": "uint256"
        },
        {
          "internalType": "uint256",
          "name": "epoch",
          "type": "uint256"
        },
        {
          "internalType": "uint256",
          "name": "expiryTimestamp",
          "type": "uint256"
        }
      ],
      "stateMutability": "view",
      "type": "function"
    },
    {
      "inputs": [],
      "name": "getLatestBRRDataWithCache",
      "outputs": [
        {
          "internalType": "uint256",
          "name": "burnInBps",
          "type": "uint256"
        },
        {
          "internalType": "uint256",
          "name": "rewardInBps",
          "type": "uint256"
        },
        {
          "internalType": "uint256",
          "name": "rebateInBps",
          "type": "uint256"
        },
        {
          "internalType": "uint256",
          "name": "epoch",
          "type": "uint256"
        },
        {
          "internalType": "uint256",
          "name": "expiryTimestamp",
          "type": "uint256"
        }
      ],
      "stateMutability": "nonpayable",
      "type": "function"
    },
    {
      "inputs": [],
      "name": "getLatestNetworkFeeData",
      "outputs": [
        {
          "internalType": "uint256",
          "name": "feeInBps",
          "type": "uint256"
        },
        {
          "internalType": "uint256",
          "name": "expiryTimestamp",
          "type": "uint256"
        }
      ],
      "stateMutability": "view",
      "type": "function"
    },
    {
      "inputs": [],
      "name": "getLatestNetworkFeeDataWithCache",
      "outputs": [
        {
          "internalType": "uint256",
          "name": "feeInBps",
          "type": "uint256"
        },
        {
          "internalType": "uint256",
          "name": "expiryTimestamp",
          "type": "uint256"
        }
      ],
      "stateMutability": "nonpayable",
      "type": "function"
    },
    {
      "inputs": [
        {
          "internalType": "uint256",
          "name": "epoch",
          "type": "uint256"
        }
      ],
      "name": "getListCampaignIDs",
      "outputs": [
        {
          "internalType": "uint256[]",
          "name": "campaignIDs",
          "type": "uint256[]"
        }
      ],
      "stateMutability": "view",
      "type": "function"
    },
    {
      "inputs": [
        {
          "internalType": "address",
          "name": "staker",
          "type": "address"
        },
        {
          "internalType": "uint256",
          "name": "epoch",
          "type": "uint256"
        }
      ],
      "name": "getPastEpochRewardPercentageInPrecision",
      "outputs": [
        {
          "internalType": "uint256",
          "name": "",
          "type": "uint256"
        }
      ],
      "stateMutability": "view",
      "type": "function"
    },
    {
      "inputs": [
        {
          "internalType": "uint256",
          "name": "data",
          "type": "uint256"
        }
      ],
      "name": "getRebateAndRewardFromData",
      "outputs": [
        {
          "internalType": "uint256",
          "name": "rebateInBps",
          "type": "uint256"
        },
        {
          "internalType": "uint256",
          "name": "rewardInBps",
          "type": "uint256"
        }
      ],
      "stateMutability": "pure",
      "type": "function"
    },
    {
      "inputs": [
        {
          "internalType": "uint256",
          "name": "epoch",
          "type": "uint256"
        }
      ],
      "name": "getTotalEpochPoints",
      "outputs": [
        {
          "internalType": "uint256",
          "name": "",
          "type": "uint256"
        }
      ],
      "stateMutability": "view",
      "type": "function"
    },
    {
      "inputs": [
        {
          "internalType": "address",
          "name": "staker",
          "type": "address"
        },
        {
          "internalType": "uint256",
          "name": "reduceAmount",
          "type": "uint256"
        }
      ],
      "name": "handleWithdrawal",
      "outputs": [],
      "stateMutability": "nonpayable",
      "type": "function"
    },
    {
      "inputs": [],
      "name": "kncToken",
      "outputs": [
        {
          "internalType": "contract IERC20",
          "name": "",
          "type": "address"
        }
      ],
      "stateMutability": "view",
      "type": "function"
    },
    {
      "inputs": [],
      "name": "minCampaignDurationInSeconds",
      "outputs": [
        {
          "internalType": "uint256",
          "name": "",
          "type": "uint256"
        }
      ],
      "stateMutability": "view",
      "type": "function"
    },
    {
      "inputs": [
        {
          "internalType": "uint256",
          "name": "",
          "type": "uint256"
        }
      ],
      "name": "networkFeeCampaigns",
      "outputs": [
        {
          "internalType": "uint256",
          "name": "",
          "type": "uint256"
        }
      ],
      "stateMutability": "view",
      "type": "function"
    },
    {
      "inputs": [],
      "name": "numberCampaigns",
      "outputs": [
        {
          "internalType": "uint256",
          "name": "",
          "type": "uint256"
        }
      ],
      "stateMutability": "view",
      "type": "function"
    },
    {
      "inputs": [
        {
          "internalType": "address",
          "name": "",
          "type": "address"
        },
        {
          "internalType": "uint256",
          "name": "",
          "type": "uint256"
        }
      ],
      "name": "numberVotes",
      "outputs": [
        {
          "internalType": "uint256",
          "name": "",
          "type": "uint256"
        }
      ],
      "stateMutability": "view",
      "type": "function"
    },
    {
      "inputs": [
        {
          "internalType": "uint256",
          "name": "epoch",
          "type": "uint256"
        }
      ],
      "name": "shouldBurnRewardForEpoch",
      "outputs": [
        {
          "internalType": "bool",
          "name": "",
          "type": "bool"
        }
      ],
      "stateMutability": "view",
      "type": "function"
    },
    {
      "inputs": [
        {
          "internalType": "address",
          "name": "",
          "type": "address"
        },
        {
          "internalType": "uint256",
          "name": "",
          "type": "uint256"
        }
      ],
      "name": "stakerVotedOption",
      "outputs": [
        {
          "internalType": "uint256",
          "name": "",
          "type": "uint256"
        }
      ],
      "stateMutability": "view",
      "type": "function"
    },
    {
      "inputs": [],
      "name": "staking",
      "outputs": [
        {
          "internalType": "contract IKyberStaking",
          "name": "",
          "type": "address"
        }
      ],
      "stateMutability": "view",
      "type": "function"
    },
    {
      "inputs": [
        {
          "internalType": "enum KyberDao.CampaignType",
          "name": "campaignType",
          "type": "uint8"
        },
        {
          "internalType": "uint256",
          "name": "startTimestamp",
          "type": "uint256"
        },
        {
          "internalType": "uint256",
          "name": "endTimestamp",
          "type": "uint256"
        },
        {
          "internalType": "uint256",
          "name": "minPercentageInPrecision",
          "type": "uint256"
        },
        {
          "internalType": "uint256",
          "name": "cInPrecision",
          "type": "uint256"
        },
        {
          "internalType": "uint256",
          "name": "tInPrecision",
          "type": "uint256"
        },
        {
          "internalType": "uint256[]",
          "name": "options",
          "type": "uint256[]"
        },
        {
          "internalType": "bytes",
          "name": "link",
          "type": "bytes"
        }
      ],
      "name": "submitNewCampaign",
      "outputs": [
        {
          "internalType": "uint256",
          "name": "campaignID",
          "type": "uint256"
        }
      ],
      "stateMutability": "nonpayable",
      "type": "function"
    },
    {
      "inputs": [
        {
          "internalType": "uint256",
          "name": "campaignID",
          "type": "uint256"
        },
        {
          "internalType": "uint256",
          "name": "option",
          "type": "uint256"
        }
      ],
      "name": "vote",
      "outputs": [],
      "stateMutability": "nonpayable",
      "type": "function"
    },
    {
      "inputs": [
        {
          "internalType": "uint256",
          "name": "_fee",
          "type": "uint256"
        }
      ],
      "name": "setLatestNetworkFee",
      "outputs": [],
      "stateMutability": "nonpayable",
      "type": "function"
    },
    {
      "inputs": [
        {
          "internalType": "uint256",
          "name": "reward",
          "type": "uint256"
        },
        {
          "internalType": "uint256",
          "name": "rebate",
          "type": "uint256"
        }
      ],
      "name": "setLatestBrrData",
      "outputs": [],
      "stateMutability": "nonpayable",
      "type": "function"
    },
    {
      "inputs": [],
      "name": "latestBrrResult",
      "outputs": [
        {
          "internalType": "uint256",
          "name": "",
          "type": "uint256"
        }
      ],
      "stateMutability": "view",
      "type": "function"
    },
    {
      "inputs": [
        {
          "internalType": "address",
          "name": "staker",
          "type": "address"
        },
        {
          "internalType": "uint256",
          "name": "epoch",
          "type": "uint256"
        }
      ],
      "name": "getNumberVotes",
      "outputs": [
        {
          "internalType": "uint256",
          "name": "",
          "type": "uint256"
        }
      ],
      "stateMutability": "view",
      "type": "function"
    },
    {
      "inputs": [
        {
          "internalType": "uint256",
          "name": "campaignID",
          "type": "uint256"
        }
      ],
      "name": "campaignExists",
      "outputs": [
        {
          "internalType": "bool",
          "name": "",
          "type": "bool"
        }
      ],
      "stateMutability": "view",
      "type": "function"
    }
  ],
  "bytecode": "0x60c06040526205460060055560006006553480156200001d57600080fd5b5060405162004f0838038062004f0883398181016040526101008110156200004457600080fd5b508051602082015160408301516060840151608085015160a086015160c087015160e0909701516002805460ff1916600117905595969495939492939192909187878786868686806001600160a01b038116620000db576040805162461bcd60e51b815260206004820152601060248201526f064616f4f70657261746f7220697320360841b604482015290519081900360640190fd5b600480546001600160a01b0319166001600160a01b0392909216919091179055866200014e576040805162461bcd60e51b815260206004820152601760248201527f63746f723a2065706f636820706572696f642069732030000000000000000000604482015290519081900360640190fd5b42861015620001a4576040805162461bcd60e51b815260206004820152601760248201527f63746f723a20737461727420696e207468652070617374000000000000000000604482015290519081900360640190fd5b6001600160a01b038516620001f4576040805162461bcd60e51b8152602060048201526011602482015270063746f723a206b6e6320746f6b656e203607c1b604482015290519081900360640190fd5b61138884106200024b576040805162461bcd60e51b815260206004820152601660248201527f63746f723a206e6574776f726b20666565206869676800000000000000000000604482015290519081900360640190fd5b6127106200026883856200037f60201b62001efd1790919060201c565b1115620002bc576040805162461bcd60e51b815260206004820152601760248201527f72657761726420706c7573207265626174652068696768000000000000000000604482015290519081900360640190fd5b600087905560018690556001600160601b0319606086901b16608052600c849055604080518082018252848152602001839052600e849055600f8390555185908890889030906200030d90620003e1565b6001600160a01b03948516815260208101939093526040808401929092529092166060820152905190819003608001906000f08015801562000353573d6000803e3d6000fd5b5060601b6001600160601b03191660a05250505060059890985550620003ef9950505050505050505050565b600082820183811015620003da576040805162461bcd60e51b815260206004820152601b60248201527f536166654d6174683a206164646974696f6e206f766572666c6f770000000000604482015290519081900360640190fd5b9392505050565b611d8d806200317b83390190565b60805160601c60a05160601c612d4e6200042d60003980610daa528061149852806119c752806124fe52508061107052806113325250612d4e6000f3fe608060405234801561001057600080fd5b50600436106102325760003560e01c8063811c7fe211610130578063b384abef116100b8578063d993de621161007c578063d993de6214610725578063e2346d711461083a578063ec0a7cc214610866578063ec86eb4714610883578063f63e7811146108a057610232565b8063b384abef146106af578063b484f726146106d2578063c70d7b6c146106f8578063d60079bf14610700578063d60d6bd41461071d57610232565b80639833afaf116100ff5780639833afaf1461064a57806399e30ba81461066b578063a81ff70514610697578063a910d0961461069f578063adea6960146106a757610232565b8063811c7fe21461060f5780638c9bc208146106175780639010984e1461061f57806390274f7b1461062757610232565b806342322250116101be5780634cf088d9116101825780634cf088d9146104a3578063588df33a146104c75780636695c981146104cf5780636fbf12ad14610502578063809e2c621461052557610232565b806342322250146103d55780634408d2ba146103f257806345598b4a146103fa57806345bd004e146104195780634650e3ab1461043657610232565b8063166b499711610205578063166b4997146103035780631c552f001461032f578063220046781461034c5780633b594a6814610378578063415d138e146103a957610232565b806308e0e079146102375780630b4defe4146102515780630bff230a1461026e5780631248a166146102e6575b600080fd5b61023f6108a8565b60408051918252519081900360200190f35b61023f6004803603602081101561026757600080fd5b50356108c0565b61028b6004803603602081101561028457600080fd5b50356108d2565b6040518080602001838152602001828103825284818151815260200191508051906020019060200280838360005b838110156102d15781810151838201526020016102b9565b50505050905001935050505060405180910390f35b61023f600480360360208110156102fc57600080fd5b5035610975565b61023f6004803603604081101561031957600080fd5b506001600160a01b03813516906020013561098a565b61023f6004803603602081101561034557600080fd5b50356109a7565b61023f6004803603604081101561036257600080fd5b506001600160a01b038135169060200135610a04565b6103956004803603602081101561038e57600080fd5b5035610a21565b604080519115158252519081900360200190f35b61023f600480360360408110156103bf57600080fd5b506001600160a01b038135169060200135610a3b565b61023f600480360360208110156103eb57600080fd5b5035610a63565b61023f610a75565b6104176004803603602081101561041057600080fd5b5035610a80565b005b6103956004803603602081101561042f57600080fd5b5035610d13565b6104536004803603602081101561044c57600080fd5b5035610d46565b60408051602080825283518183015283519192839290830191858101910280838360005b8381101561048f578181015183820152602001610477565b505050509050019250505060405180910390f35b6104ab610da8565b604080516001600160a01b039092168252519081900360200190f35b61023f610dcc565b6104d7610dd2565b6040805195865260208601949094528484019290925260608401526080830152519081900360a00190f35b61023f6004803603604081101561051857600080fd5b5080359060200135610dfd565b61023f600480360361010081101561053c57600080fd5b60ff8235169160208101359160408201359160608101359160808201359160a08101359181019060e0810160c082013564010000000081111561057e57600080fd5b82018360208201111561059057600080fd5b803590602001918460208302840111640100000000831117156105b257600080fd5b9193909290916020810190356401000000008111156105d057600080fd5b8201836020820111156105e257600080fd5b8035906020019184600183028401116401000000008311171561060457600080fd5b509092509050610e84565b6104ab611330565b6104ab611354565b61023f611363565b6104176004803603604081101561063d57600080fd5b5080359060200135611369565b610652611374565b6040805192835260208301919091528051918290030190f35b61023f6004803603604081101561068157600080fd5b506001600160a01b03813516906020013561138d565b61023f6113bd565b61023f6113c2565b6106526113c7565b610417600480360360408110156106c557600080fd5b508035906020013561147a565b61023f600480360360208110156106e857600080fd5b50356001600160a01b0316611760565b61023f611777565b6106526004803603602081101561071657600080fd5b503561177d565b6104d76117ca565b6107426004803603602081101561073b57600080fd5b5035611884565b604051808a600281111561075257fe5b60ff1681526020018981526020018881526020018781526020018681526020018581526020018481526020018060200180602001838103835285818151815260200191508051906020019080838360005b838110156107bb5781810151838201526020016107a3565b50505050905090810190601f1680156107e85780820380516001836020036101000a031916815260200191505b508381038252845181528451602091820191808701910280838360005b8381101561081d578181015183820152602001610805565b505050509050019b50505050505050505050505060405180910390f35b6104176004803603604081101561085057600080fd5b506001600160a01b0381351690602001356119bc565b6106526004803603602081101561087c57600080fd5b5035611beb565b6104176004803603602081101561089957600080fd5b5035611e6e565b61023f611e73565b600e54600f546000916108ba91610dfd565b90505b90565b60106020526000908152604090205481565b606060006108de612910565b60076000858152602001908152602001600020600901604051806040016040529081600082015481526020016001820180548060200260200160405190810160405280929190818152602001828054801561095857602002820191906000526020600020905b815481526020019060010190808311610944575b505050919092525050815160209092015196919550909350505050565b6000818152600960205260409020545b919050565b600b60209081526000928352604080842090915290825290205481565b60006001548210806109b95750600054155b156109c657506000610985565b6109fe60016109f26000546109e660015487611e7990919063ffffffff16565b9063ffffffff611ebb16565b9063ffffffff611efd16565b92915050565b600a60209081526000928352604080842090915290825290205481565b600090815260076020526040902054610100900460ff1690565b6001600160a01b03919091166000908152600a60209081526040808320938352929052205490565b600d6020526000908152604090205481565b60006108ba426109a7565b6004546001600160a01b03163314610ad2576040805162461bcd60e51b815260206004820152601060248201526f37b7363c903230b7a7b832b930ba37b960811b604482015290519081900360640190fd5b60008181526007602052604090208054610100900460ff16610b255760405162461bcd60e51b8152600401808060200182810382526028815260200180612cf16028913960400191505060405180910390fd5b42816001015411610b675760405162461bcd60e51b8152600401808060200182810382526028815260200180612b3d6028913960400191505060405180910390fd5b6000610b7682600101546109a7565b90506001825460ff166002811115610b8a57fe5b1415610ba4576000818152600d6020526040812055610bcc565b6002825460ff166002811115610bb657fe5b1415610bcc576000818152601060205260408120555b60008381526007602081905260408220805461ffff191681556001810183905560028101839055600381018390556004810183905560058101839055600681018390559190610c1d9083018261292a565b610c2b600883016000612971565b60006009830181815590610c42600a850182612971565b505050600082815260086020526040812091505b8154811015610ce15784828281548110610c6c57fe5b90600052602060002001541415610cd957815482906000198101908110610c8f57fe5b9060005260206000200154828281548110610ca657fe5b906000526020600020018190555081805480610cbe57fe5b60019003818190600052602060002001600090559055610ce1565b600101610c56565b5060405184907fef29bb5bcfd2b2ff4bc50d710898467757ff87aad1031fc953907b65127f86fc90600090a250505050565b600080610d1e610a75565b9050808310610d31576000915050610985565b50506000908152600960205260409020541590565b600081815260086020908152604091829020805483518184028101840190945280845260609392830182828015610d9c57602002820191906000526020600020905b815481526020019060010190808311610d88575b50505050509050919050565b7f000000000000000000000000000000000000000000000000000000000000000081565b60065481565b6000806000806000610de26117ca565b600e849055600f839055939992985090965094509092509050565b6000612710610e12848463ffffffff611efd16565b1115610e65576040805162461bcd60e51b815260206004820152601760248201527f72657761726420706c7573207265626174652068696768000000000000000000604482015290519081900360640190fd5b610e7d836109f284600160801b63ffffffff611f5716565b9392505050565b6004546000906001600160a01b03163314610ed9576040805162461bcd60e51b815260206004820152601060248201526f37b7363c903230b7a7b832b930ba37b960811b604482015290519081900360640190fd5b6000610ee48b6109a7565b9050610f288c8c8c8c8c8c8c8c80806020026020016040519081016040528093929190818152602001838360200280828437600092019190915250611fb092505050565b600654610f3c90600163ffffffff611efd16565b60068190556000828152600860209081526040822080546001818101835591845291909220018290559092508c6002811115610f7457fe5b1415610f90576000818152600d60205260409020829055610fb6565b60028c6002811115610f9e57fe5b1415610fb65760008181526010602052604090208290555b610fbe61298f565b60405180606001604052808b81526020018a8152602001898152509050610fe3612910565b6040805180820190915260008152602081018867ffffffffffffffff8111801561100c57600080fd5b50604051908082528060200260200182016040528015611036578160200160208202803683370190505b5081525090506040518061012001604052808f600281111561105457fe5b81526020016001151581526020018e81526020018d81526020017f00000000000000000000000000000000000000000000000000000000000000006001600160a01b03166318160ddd6040518163ffffffff1660e01b815260040160206040518083038186803b1580156110c757600080fd5b505afa1580156110db573d6000803e3d6000fd5b505050506040513d60208110156110f157600080fd5b50518152602081810185905260408051601f8a0183900483028101830182528981529201919089908990819084018382808284376000920191909152505050908252506040805160208b810282810182019093528b82529283019290918c918c9182918501908490808284376000920182905250938552505050602091820184905286815260079091526040902081518154829060ff1916600183600281111561119757fe5b021790555060208281015182549015156101000261ff00199091161782556040808401516001840155606084015160028401556080840151600384015560a0840151805160048501558083015160058501550151600683015560c0830151805161120792600785019201906129b0565b5060e08201518051611223916008840191602090910190612a2e565b50610100820151805160098301908155602080830151805161124b92600a8701920190612a2e565b505050905050837fba908e34477602dcf3b8b10115cb9ba1f56c512e94a0beb561ad0245026cda138f8f8f8f8f8f8f8f8f8f604051808b600281111561128d57fe5b60ff1681526020018a815260200189815260200188815260200187815260200186815260200180602001806020018381038352878782818152602001925060200280828437600083820152601f01601f191690910184810383528581526020019050858580828437600083820152604051601f909101601f19169092018290039e50909c50505050505050505050505050a25050509a9950505050505050505050565b7f000000000000000000000000000000000000000000000000000000000000000081565b6004546001600160a01b031681565b60055481565b600e91909155600f55565b60008061137f6113c7565b600c82905590939092509050565b600080611398610a75565b90508083106113ab5760009150506109fe565b6113b584846124c4565b949350505050565b600881565b600a81565b60008060006113d4610a75565b9050600c54925061141360016114076113f860005485611f5790919063ffffffff16565b6001549063ffffffff611efd16565b9063ffffffff611e7916565b9150806114205750611476565b6000600d8161143684600163ffffffff611e7916565b8152602001908152602001600020549050806000141561145857506114769050565b600061146382611beb565b955090508061147257600c5494505b5050505b9091565b6114848282612652565b33600061148f610a75565b905060008060007f00000000000000000000000000000000000000000000000000000000000000006001600160a01b031663b7a13c4c866040518263ffffffff1660e01b815260040180826001600160a01b03166001600160a01b03168152602001915050606060405180830381600087803b15801561150e57600080fd5b505af1158015611522573d6000803e3d6000fd5b505050506040513d606081101561153857600080fd5b5080516020820151604090920151909450909250905060006001600160a01b03808316908716146115695782611579565b611579848463ffffffff611efd16565b6001600160a01b0387166000908152600b602090815260408083208c84528252808320546007909252909120919250906009018161166c576001600160a01b0388166000908152600a602090815260408083208a845282528083208054600101905560099091529020546115f3908463ffffffff611efd16565b6000888152600960205260409020556001810180546116359185916000198d0190811061161c57fe5b9060005260206000200154611efd90919063ffffffff16565b8160010160018b038154811061164757fe5b6000918252602090912001558054611665908463ffffffff611efd16565b81556116f7565b8882146116f7576116a28382600101600185038154811061168957fe5b9060005260206000200154611e7990919063ffffffff16565b8160010160018403815481106116b457fe5b90600052602060002001819055506116d8838260010160018c038154811061161c57fe5b8160010160018b03815481106116ea57fe5b6000918252602090912001555b6001600160a01b0388166000818152600b602090815260408083208e84528252918290208c905581518c815291518d938b9390927fc32b42768a47a585121e9b8d7a2ab9d3f34c326a192dee11ee1732e3d18313f392918290030190a450505050505050505050565b60008061176b610a75565b9050610e7d83826124c4565b60015481565b600080611795600160801b600163ffffffff611e7916565b831690506117ae600160801b600163ffffffff611e7916565b6117c284600160801b63ffffffff611ebb16565b169150915091565b60008060008060006117da610a75565b91506117f960016114076113f860005486611f5790919063ffffffff16565b600e54600f5490955093509050811561186557600060108161182285600163ffffffff611e7916565b8152602001908152602001600020549050806000146118635760008061184783611beb565b909250905081156118605761185b8161177d565b975095505b50505b505b61187b846114076127108663ffffffff611e7916565b94509091929394565b600081815260076020818152604092839020805460018083015460028085015460038601546004870154600588015460068901549a890180548d516101009982161599909902600019011695909504601f81018b90048b0288018b01909c528b875260ff9097169a9499929891979096959294606094859492939091908301828280156119525780601f1061192757610100808354040283529160200191611952565b820191906000526020600020905b81548152906001019060200180831161193557829003601f168201915b50505050509250806008018054806020026020016040519081016040528092919081815260200182805480156119a757602002820191906000526020600020905b815481526020019060010190808311611993575b50505050509150509193959799909294969850565b336001600160a01b037f00000000000000000000000000000000000000000000000000000000000000001614611a31576040805162461bcd60e51b81526020600482015260156024820152741bdb9b1e481cdd185ada5b99c818dbdb9d1c9858dd605a1b604482015290519081900360640190fd5b80611a3b57611be7565b6000611a45610a75565b6001600160a01b0384166000908152600a6020908152604080832084845290915290205490915080611a78575050611be7565b611aa6611a8b828563ffffffff611f5716565b6000848152600960205260409020549063ffffffff611e7916565b6000838152600960209081526040808320939093556008815290829020805483518184028101840190945280845260609392830182828015611b0757602002820191906000526020600020905b815481526020019060010190808311611af3575b50939450600093505050505b8151811015611be2576000828281518110611b2a57fe5b6020908102919091018101516001600160a01b0389166000908152600b83526040808220838352909352919091205490915080611b68575050611bda565b600082815260076020526040902060028101544211611bd6576009810154611b96908963ffffffff611e7916565b6009820155600a81018054611bb5918a91600019860190811061168957fe5b600a820180546000198501908110611bc957fe5b6000918252602090912001555b5050505b600101611b13565b505050505b5050565b60008181526007602052604081208054829190610100900460ff16611c17575060009150819050611e69565b4281600201541115611c30575060009150819050611e69565b600381015480611c49575060009250829150611e699050565b6009820154600a830180546040805160208084028201810190925282815260609390929091830182828015611c9d57602002820191906000526020600020905b815481526020019060010190808311611c89575b5093945060009350839250829150505b8351811015611d1a5781848281518110611cc357fe5b60200260200101511115611cf257806001019250838181518110611ce357fe5b60200260200101519150611d12565b81848281518110611cff57fe5b60200260200101511415611d1257600092505b600101611cad565b5081611d33575060009650869550611e69945050505050565b611d3b61298f565b506040805160608101825260048801548152600588015460208201526006880154918101919091526003870154600090611d87906109e688670de0b6b3a764000063ffffffff611f5716565b90508082600001511115611daa575060009850889750611e699650505050505050565b6000611dcf670de0b6b3a76400006109e6848660400151611f5790919063ffffffff16565b905082602001518111611e3d576020830151600090611df4908363ffffffff611e7916565b9050611e06818963ffffffff611f5716565b611e1e86670de0b6b3a764000063ffffffff611f5716565b1015611e3b575060009a508a9950611e6998505050505050505050565b505b849a508860080160018c0381548110611e5257fe5b906000526020600020015499505050505050505050505b915091565b600c55565b60005481565b6000610e7d83836040518060400160405280601e81526020017f536166654d6174683a207375627472616374696f6e206f766572666c6f770000815250612814565b6000610e7d83836040518060400160405280601a81526020017f536166654d6174683a206469766973696f6e206279207a65726f0000000000008152506128ab565b600082820183811015610e7d576040805162461bcd60e51b815260206004820152601b60248201527f536166654d6174683a206164646974696f6e206f766572666c6f770000000000604482015290519081900360640190fd5b600082611f66575060006109fe565b82820282848281611f7357fe5b0414610e7d5760405162461bcd60e51b8152600401808060200182810382526021815260200180612b656021913960400191505060405180910390fd5b42861015611fef5760405162461bcd60e51b8152600401808060200182810382526021815260200180612a836021913960400191505060405180910390fd5b60055461200390879063ffffffff611efd16565b61201486600163ffffffff611efd16565b10156120515760405162461bcd60e51b8152600401808060200182810382526028815260200180612be76028913960400191505060405180910390fd5b600061205c876109a7565b90506000612069876109a7565b600083815260086020526040902054909150600a116120b95760405162461bcd60e51b8152600401808060200182810382526022815260200180612aa46022913960400191505060405180910390fd5b8082146120f75760405162461bcd60e51b815260040180806020018281038252602a815260200180612b86602a913960400191505060405180910390fd5b6000612101610a75565b905061211481600163ffffffff611efd16565b8311156121525760405162461bcd60e51b815260040180806020018281038252602f815260200180612cc2602f913960400191505060405180910390fd5b8351600181118015612165575060088111155b6121a05760405162461bcd60e51b8152600401808060200182810382526029815260200180612c996029913960400191505060405180910390fd5b60008b60028111156121ae57fe5b14156122205760005b855181101561221a5760008682815181106121ce57fe5b6020026020010151116122125760405162461bcd60e51b815260040180806020018281038252602c815260200180612c0f602c913960400191505060405180910390fd5b6001016121b7565b506123c0565b60018b600281111561222e57fe5b14156122e9576000848152600d60205260409020541561227f5760405162461bcd60e51b815260040180806020018281038252603f815260200180612ac6603f913960400191505060405180910390fd5b60005b855181101561221a5760026127100486828151811061229d57fe5b6020026020010151106122e15760405162461bcd60e51b8152600401808060200182810382526038815260200180612c616038913960400191505060405180910390fd5b600101612282565b600084815260106020526040902054156123345760405162461bcd60e51b8152600401808060200182810382526037815260200180612bb06037913960400191505060405180910390fd5b60005b85518110156123be5760008061235f88848151811061235257fe5b602002602001015161177d565b9092509050612710612377828463ffffffff611efd16565b11156123b45760405162461bcd60e51b8152600401808060200182810382526038815260200180612b056038913960400191505060405180910390fd5b5050600101612337565b505b670de0b6b3a76400008811156124075760405162461bcd60e51b8152600401808060200182810382526026815260200180612c3b6026913960400191505060405180910390fd5b600160801b871061245f576040805162461bcd60e51b815260206004820152601960248201527f76616c6964617465506172616d733a2063206973206869676800000000000000604482015290519081900360640190fd5b600160801b86106124b7576040805162461bcd60e51b815260206004820152601960248201527f76616c6964617465506172616d733a2074206973206869676800000000000000604482015290519081900360640190fd5b5050505050505050505050565b6001600160a01b0382166000908152600a60209081526040808320848452909152812054806124f75760009150506109fe565b60008060007f00000000000000000000000000000000000000000000000000000000000000006001600160a01b03166316554d6288886040518363ffffffff1660e01b815260040180836001600160a01b03166001600160a01b031681526020018281526020019250505060606040518083038186803b15801561257a57600080fd5b505afa15801561258e573d6000803e3d6000fd5b505050506040513d60608110156125a457600080fd5b5080516020820151604090920151909450909250905060006001600160a01b03808316908916146125d557826125e5565b6125e5848463ffffffff611efd16565b9050806125fa576000955050505050506109fe565b600061260c868363ffffffff611f5716565b6000898152600960205260409020549091508082111561262857fe5b612644816109e684670de0b6b3a764000063ffffffff611f5716565b9a9950505050505050505050565b60008281526007602052604090208054610100900460ff166126bb576040805162461bcd60e51b815260206004820152601c60248201527f766f74653a2063616d706169676e20646f65736e277420657869737400000000604482015290519081900360640190fd5b4281600101541115612714576040805162461bcd60e51b815260206004820152601a60248201527f766f74653a2063616d706169676e206e6f742073746172746564000000000000604482015290519081900360640190fd5b428160020154101561276d576040805162461bcd60e51b815260206004820152601c60248201527f766f74653a2063616d706169676e20616c726561647920656e64656400000000604482015290519081900360640190fd5b600082116127b6576040805162461bcd60e51b81526020600482015260116024820152700766f74653a206f7074696f6e206973203607c1b604482015290519081900360640190fd5b600881015482111561280f576040805162461bcd60e51b815260206004820152601c60248201527f766f74653a206f7074696f6e206973206e6f7420696e2072616e676500000000604482015290519081900360640190fd5b505050565b600081848411156128a35760405162461bcd60e51b81526004018080602001828103825283818151815260200191508051906020019080838360005b83811015612868578181015183820152602001612850565b50505050905090810190601f1680156128955780820380516001836020036101000a031916815260200191505b509250505060405180910390fd5b505050900390565b600081836128fa5760405162461bcd60e51b8152602060048201818152835160248401528351909283926044909101919085019080838360008315612868578181015183820152602001612850565b50600083858161290657fe5b0495945050505050565b604051806040016040528060008152602001606081525090565b50805460018160011615610100020316600290046000825580601f10612950575061296e565b601f01602090049060005260206000209081019061296e9190612a68565b50565b508054600082559060005260206000209081019061296e9190612a68565b60405180606001604052806000815260200160008152602001600081525090565b828054600181600116156101000203166002900490600052602060002090601f016020900481019282601f106129f157805160ff1916838001178555612a1e565b82800160010185558215612a1e579182015b82811115612a1e578251825591602001919060010190612a03565b50612a2a929150612a68565b5090565b828054828255906000526020600020908101928215612a1e5791602002820182811115612a1e578251825591602001919060010190612a03565b6108bd91905b80821115612a2a5760008155600101612a6e56fe76616c6964617465506172616d733a20737461727420696e20746865207061737476616c6964617465506172616d733a20746f6f206d616e792063616d706169676e7376616c6964617465506172616d733a20616c726561647920686164206e6574776f726b206665652063616d706169676e20666f7220746869732065706f636876616c6964617465506172616d733a20726562617465202b207265776172642063616e277420626520626967676572207468616e2042505363616e63656c43616d706169676e3a2063616d706169676e20616c72656164792073746172746564536166654d6174683a206d756c7469706c69636174696f6e206f766572666c6f7776616c6964617465506172616d733a207374617274202620656e64206e6f742073616d652065706f636876616c6964617465506172616d733a20616c726561647920686164206272722063616d706169676e20666f7220746869732065706f636876616c6964617465506172616d733a2063616d706169676e206475726174696f6e206973206c6f7776616c6964617465506172616d733a2067656e6572616c2063616d706169676e206f7074696f6e206973203076616c6964617465506172616d733a206d696e2070657263656e74616765206973206869676876616c6964617465506172616d733a206e6574776f726b20666565206d75737420626520736d616c6c6572207468656e20425053202f203276616c6964617465506172616d733a20696e76616c6964206e756d626572206f66206f7074696f6e7376616c6964617465506172616d733a206f6e6c7920666f722063757272656e74206f72206e6578742065706f63687363616e63656c43616d706169676e3a2063616d706169676e494420646f65736e2774206578697374a2646970667358221220b04b349bf23b1abd299b1b8a2c001e1a12e26054dc86e9c159c79f5b78cc1fc164736f6c6343000606003360c060405234801561001057600080fd5b50604051611d8d380380611d8d8339818101604052608081101561003357600080fd5b508051602082015160408301516060909301516002805460ff1916600117905591929091826100a9576040805162461bcd60e51b815260206004820152601760248201527f63746f723a2065706f636820706572696f642069732030000000000000000000604482015290519081900360640190fd5b428210156100fe576040805162461bcd60e51b815260206004820152601760248201527f63746f723a20737461727420696e207468652070617374000000000000000000604482015290519081900360640190fd5b6001600160a01b03841661014c576040805162461bcd60e51b815260206004820152601060248201526f063746f723a206b6e63546f6b656e20360841b604482015290519081900360640190fd5b6001600160a01b03811661019a576040805162461bcd60e51b815260206004820152601060248201526f063746f723a206b7962657244616f20360841b604482015290519081900360640190fd5b6000929092556001556001600160601b0319606092831b8116608052911b1660a05260805160601c60a05160601c611b8f6101fe600039806109555280610f025280610f77528061153452508061077e528061116552806112ad5250611b8f6000f3fe608060405234801561001057600080fd5b506004361061012c5760003560e01c8063711bbfd9116100ad578063c70d7b6c11610071578063c70d7b6c1461036b578063cfd4766314610373578063d42b72541461039f578063d46684b2146103c5578063f63e7811146103f15761012c565b8063711bbfd9146102c2578063811c7fe2146102f4578063901ab5b2146102fc578063b6b55f2514610328578063b7a13c4c146103455761012c565b80634408d2ba116100f45780634408d2ba146102245780634d8f51051461022c5780635c19a95c146102505780635ee5b4771461027657806360e4f2e01461029c5761012c565b8063072b77f11461013157806316554d62146101695780631c552f00146101bc5780632e1a7d4d146101d957806342ce39cb146101f8575b600080fd5b6101576004803603602081101561014757600080fd5b50356001600160a01b03166103f9565b60408051918252519081900360200190f35b6101956004803603604081101561017f57600080fd5b506001600160a01b038135169060200135610418565b6040805193845260208401929092526001600160a01b031682820152519081900360600190f35b610157600480360360208110156101d257600080fd5b503561047c565b6101f6600480360360208110156101ef57600080fd5b50356104d9565b005b6101956004803603604081101561020e57600080fd5b506001600160a01b038135169060200135610896565b610157610943565b610234610953565b604080516001600160a01b039092168252519081900360200190f35b6101f66004803603602081101561026657600080fd5b50356001600160a01b0316610977565b6102346004803603602081101561028c57600080fd5b50356001600160a01b0316610c8d565b610195600480360360208110156102b257600080fd5b50356001600160a01b0316610cd9565b6101f6600480360360608110156102d857600080fd5b506001600160a01b038135169060208101359060400135610d37565b610234611163565b6102346004803603604081101561031257600080fd5b506001600160a01b038135169060200135611187565b6101f66004803603602081101561033e57600080fd5b5035611223565b6101956004803603602081101561035b57600080fd5b50356001600160a01b0316611525565b61015761161c565b6101576004803603604081101561038957600080fd5b506001600160a01b038135169060200135611622565b610157600480360360208110156103b557600080fd5b50356001600160a01b03166116bb565b610157600480360360408110156103db57600080fd5b506001600160a01b0381351690602001356116d9565b61015761176a565b6001600160a01b0381166000908152600460205260409020545b919050565b6000806000610425611afd565b5050506000918252506003602090815260408083206001600160a01b039485168452825291829020825160608101845281548082526001830154938201849052600290920154909416939092018390529092909190565b600060015482108061048e5750600054155b1561049b57506000610413565b6104d360016104c76000546104bb6001548761177090919063ffffffff16565b9063ffffffff6117b916565b9063ffffffff6117fb16565b92915050565b60025460ff16610530576040805162461bcd60e51b815260206004820152601f60248201527f5265656e7472616e637947756172643a207265656e7472616e742063616c6c00604482015290519081900360640190fd5b6002805460ff1916905580610584576040805162461bcd60e51b8152602060048201526015602482015274077697468647261773a20616d6f756e74206973203605c1b604482015290519081900360640190fd5b600061058e610943565b33600081815260046020526040902054919250908311156105e05760405162461bcd60e51b8152600401808060200182810382526032815260200180611b286032913960400191505060405180910390fd5b604080516001600160a01b038316602482015260448101859052606480820185905282518083039091018152608490910182526020810180516001600160e01b031663711bbfd960e01b17815291518151600093309392918291908083835b6020831061065e5780518252601f19909201916020918201910161063f565b6001836020036101000a0380198251168184511680821785525050505050509050019150506000604051808303816000865af19150503d80600081146106c0576040519150601f19603f3d011682016040523d82523d6000602084013e6106c5565b606091505b505090508061071757604080518481526001600160a01b038416602082015280820186905290517fa412eef5316d3cbf9e2b4ba3d1cf3e482b40dc8946fd919b7f5053450fa621fb9181900360600190a15b6001600160a01b038216600090815260046020526040902054610740908563ffffffff61177016565b6001600160a01b03808416600081815260046020818152604080842096909655855163a9059cbb60e01b8152918201939093526024810189905293517f00000000000000000000000000000000000000000000000000000000000000009093169363a9059cbb936044808301949391928390030190829087803b1580156107c657600080fd5b505af11580156107da573d6000803e3d6000fd5b505050506040513d60208110156107f057600080fd5b5051610843576040805162461bcd60e51b815260206004820152601e60248201527f77697468647261773a2063616e206e6f74207472616e73666572206b6e630000604482015290519081900360640190fd5b6040805185815290516001600160a01b0384169185917f9da6493a92039daf47d1f2d7a782299c5994c6323eb1e972f69c432089ec52bf9181900360200190a350506002805460ff191660011790555050565b60008080806108a3610943565b9050806001018511156108b6575061093c565b845b60008181526005602090815260408083206001600160a01b038b16845290915290205460ff16156109235760009081526003602090815260408083206001600160a01b038a8116855292529091208054600182015460029092015490965090945016915061093c9050565b8061092d57610936565b600019016108b8565b86925050505b9250925092565b600061094e4261047c565b905090565b7f000000000000000000000000000000000000000000000000000000000000000081565b6001600160a01b0381166109d2576040805162461bcd60e51b815260206004820152601a60248201527f64656c65676174653a20726570726573656e7461746976652030000000000000604482015290519081900360640190fd5b3360006109dd610943565b90506109e98282611855565b6001810160009081526003602090815260408083206001600160a01b0380871685529252909120600201548116908416811415610a2857505050610c8a565b6001820160009081526003602090815260408083206001600160a01b03808816808652919093529220549190831614610b3f57610a658284611855565b600180840160009081526003602090815260408083206001600160a01b038716845290915290200154610a9e908263ffffffff61177016565b600180850160009081526003602090815260408083206001600160a01b0388168452825280832084019490945560049052919091200154610ae5908263ffffffff61177016565b6001600160a01b0380841660008181526004602090815260408083206001019590955584519182529351879492938916927ffbb976ae5268347766b726bd1edba29af0fe16f9c505fbd3b9a10cb6d00cfa3d928290030190a45b6001600160a01b03808516600081815260046020908152604080832060029081018054968c166001600160a01b0319978816811790915560018a0185526003845282852086865290935292209091018054909316811790925514610c8557610ba78584611855565b600180840160009081526003602090815260408083206001600160a01b038a16845290915290200154610be0908263ffffffff6117fb16565b600180850160009081526003602090815260408083206001600160a01b038b168452825280832084019490945560049052919091200154610c27908263ffffffff6117fb16565b6001600160a01b0380871660008181526004602090815260409182902060019081019590955581519485529051879492938916927ffbb976ae5268347766b726bd1edba29af0fe16f9c505fbd3b9a10cb6d00cfa3d92908290030190a45b505050505b50565b6001600160a01b0381811660009081526004602052604081206002015490911615610cd5576001600160a01b03808316600090815260046020526040902060020154166104d3565b5090565b6001600160a01b0380821660009081526004602052604081208054600182015460029092015490939192911615610d2d576001600160a01b0380851660009081526004602052604090206002015416610d2f565b835b929491935050565b333014610d83576040805162461bcd60e51b81526020600482015260156024820152741bdb9b1e481cdd185ada5b99c818dbdb9d1c9858dd605a1b604482015290519081900360640190fd5b610d8d8382611855565b6001810160009081526003602090815260408083206001600160a01b0387168452909152902054610dc4908363ffffffff61177016565b6001820160009081526003602081815260408084206001600160a01b03808a16808752918452828620969096558685529282528084208385528252808420600281015493855254600490925283205491909316929190610e2a908663ffffffff61177016565b90506000610e3e838363ffffffff6119eb16565b90506000610e52848363ffffffff61177016565b9050801561107c57876001600160a01b0316856001600160a01b031614610eda57610e7d8587611855565b60008681526003602090815260408083206001600160a01b0389168452909152902060010154610eb3908263ffffffff61177016565b60008781526003602090815260408083206001600160a01b038a1684529091529020600101555b60008681526003602090815260408083206001600160a01b03808d16855292529091208390557f0000000000000000000000000000000000000000000000000000000000000000161561107c57604080516001600160a01b038781166024830152604480830185905283518084039091018152606490920183526020820180516001600160e01b031663e2346d7160e01b178152925182516000947f000000000000000000000000000000000000000000000000000000000000000093909316939282918083835b60208310610fc15780518252601f199092019160209182019101610fa2565b6001836020036101000a0380198251168184511680821785525050505050509050019150506000604051808303816000865af19150503d8060008114611023576040519150601f19603f3d011682016040523d82523d6000602084013e611028565b606091505b505090508061107a57604080518881526001600160a01b038b1660208201528082018a905290517fa412eef5316d3cbf9e2b4ba3d1cf3e482b40dc8946fd919b7f5053450fa621fb9181900360600190a15b505b6001860160009081526003602090815260408083206001600160a01b03808d16808652919093529220600201541695508514611159576110bc8587611855565b600180870160009081526003602090815260408083206001600160a01b038a168452909152902001546110f5908863ffffffff61177016565b600180880160009081526003602090815260408083206001600160a01b038b16845282528083208401949094556004905291909120015461113c908863ffffffff61177016565b6001600160a01b0386166000908152600460205260409020600101555b5050505050505050565b7f000000000000000000000000000000000000000000000000000000000000000081565b600080611192610943565b9050806001018311156111a95760009150506104d3565b825b60008181526005602090815260408083206001600160a01b038916845290915290205460ff16156112075760009081526003602090815260408083206001600160a01b0380891685529252909120600201541691506104d39050565b806112115761121a565b600019016111ab565b50929392505050565b6000811161126f576040805162461bcd60e51b815260206004820152601460248201527306465706f7369743a20616d6f756e7420697320360641b604482015290519081900360640190fd5b6000611279610943565b604080516323b872dd60e01b8152336004820181905230602483015260448201869052915192935090916001600160a01b037f000000000000000000000000000000000000000000000000000000000000000016916323b872dd9160648083019260209291908290030181600087803b1580156112f557600080fd5b505af1158015611309573d6000803e3d6000fd5b505050506040513d602081101561131f57600080fd5b5051611372576040805162461bcd60e51b815260206004820152601a60248201527f6465706f7369743a2063616e206e6f742067657420746f6b656e000000000000604482015290519081900360640190fd5b61137c8183611855565b6001820160009081526003602090815260408083206001600160a01b03851684529091529020546113b3908463ffffffff6117fb16565b6001830160009081526003602090815260408083206001600160a01b03861684528252808320939093556004905220546113f3908463ffffffff6117fb16565b6001600160a01b038083166000818152600460209081526040808320959095556001870182526003815284822083835290529290922060020154169081146114dc5761143f8184611855565b600180840160009081526003602090815260408083206001600160a01b038616845290915290200154611478908563ffffffff6117fb16565b600180850160009081526003602090815260408083206001600160a01b03871684528252808320840194909455600490529190912001546114bf908563ffffffff6117fb16565b6001600160a01b0382166000908152600460205260409020600101555b604080518481526020810186905281516001600160a01b038516927f1599c0fcf897af5babc2bfcf707f5dc050f841b044d97c3251ecec35b9abf80b928290030190a250505050565b60008080336001600160a01b037f000000000000000000000000000000000000000000000000000000000000000016146115a6576040805162461bcd60e51b815260206004820181905260248201527f696e6974416e6452657475726e446174613a206f6e6c79206b7962657244616f604482015290519081900360640190fd5b60006115b0610943565b90506115bc8582611855565b6115c4611afd565b5060009081526003602090815260408083206001600160a01b03978816845282529182902082516060810184528154808252600183015493820184905260029092015490971696909201869052909590949350915050565b60015481565b60008061162d610943565b9050806001018311156116445760009150506104d3565b825b60008181526005602090815260408083206001600160a01b038916845290915290205460ff161561169d5760009081526003602090815260408083206001600160a01b038816845290915290205491506104d39050565b806116a7576116b0565b60001901611646565b506000949350505050565b6001600160a01b031660009081526004602052604090206001015490565b6000806116e4610943565b9050806001018311156116fb5760009150506104d3565b825b60008181526005602090815260408083206001600160a01b038916845290915290205460ff16156117575760009081526003602090815260408083206001600160a01b038816845290915290206001015491506104d39050565b80611761576116b0565b600019016116fd565b60005481565b60006117b283836040518060400160405280601e81526020017f536166654d6174683a207375627472616374696f6e206f766572666c6f770000815250611a01565b9392505050565b60006117b283836040518060400160405280601a81526020017f536166654d6174683a206469766973696f6e206279207a65726f000000000000815250611a98565b6000828201838110156117b2576040805162461bcd60e51b815260206004820152601b60248201527f536166654d6174683a206164646974696f6e206f766572666c6f770000000000604482015290519081900360640190fd5b6001600160a01b0380831660009081526004602052604090206002015416806118a757506001600160a01b038216600081815260046020526040902060020180546001600160a01b0319169091179055815b6001600160a01b03831660008181526004602090815260408083206001810154905487855260058452828520958552949092529091205490919060ff166119535760008481526005602090815260408083206001600160a01b038981168086529184528285208054600160ff199091168117909155898652600385528386209286529190935292206002810180546001600160a01b031916928716929092179091559081018390558190555b6001840160009081526005602090815260408083206001600160a01b038916845290915290205460ff16610c8557600193840160008181526005602090815260408083206001600160a01b03998a16808552908352818420805460ff19168a17905593835260038252808320938352929052206002810180546001600160a01b03191694909616939093179094559181019190915555565b60008183106119fa57816117b2565b5090919050565b60008184841115611a905760405162461bcd60e51b81526004018080602001828103825283818151815260200191508051906020019080838360005b83811015611a55578181015183820152602001611a3d565b50505050905090810190601f168015611a825780820380516001836020036101000a031916815260200191505b509250505060405180910390fd5b505050900390565b60008183611ae75760405162461bcd60e51b8152602060048201818152835160248401528351909283926044909101919085019080838360008315611a55578181015183820152602001611a3d565b506000838581611af357fe5b0495945050505050565b6040518060600160405280600081526020016000815260200160006001600160a01b03168152509056fe77697468647261773a206c617465737420616d6f756e74207374616b6564203c207769746864726177616c20616d6f756e74a2646970667358221220628ecee4d6a37b7decdbce8d110eb9cbf085115e09f4814f6f4c191f554f5d2664736f6c63430006060033",
  "immutableReferences": {
    "6607": [
      {
        "length": 32,
        "start": 4208
      },
      {
        "length": 32,
        "start": 4914
      }
    ],
    "6609": [
      {
        "length": 32,
        "start": 3498
      },
      {
        "length": 32,
        "start": 5272
      },
      {
        "length": 32,
        "start": 6599
      },
      {
        "length": 32,
        "start": 9470
      }
    ]
  },
  "source": "pragma solidity 0.6.6;\n\nimport \"../KyberDao.sol\";\n\n\ncontract MockKyberDaoMoreGetters is KyberDao {\n    constructor(\n        uint256 _epochPeriod,\n        uint256 _startTimestamp,\n        IERC20 _knc,\n        uint256 _minCampDuration,\n        uint256 _defaultNetworkFeeBps,\n        uint256 _defaultRewardBps,\n        uint256 _defaultRebateBps,\n        address _admin\n    )\n        public\n        KyberDao(\n            _epochPeriod,\n            _startTimestamp,\n            _knc,\n            _defaultNetworkFeeBps,\n            _defaultRewardBps,\n            _defaultRebateBps,\n            _admin\n        )\n    {\n        minCampaignDurationInSeconds = _minCampDuration;\n    }\n\n    function setLatestNetworkFee(uint256 _fee) public {\n        latestNetworkFeeResult = _fee;\n    }\n\n    function setLatestBrrData(uint256 reward, uint256 rebate) public {\n        latestBrrData.rewardInBps = reward;\n        latestBrrData.rebateInBps = rebate;\n    }\n\n    function latestBrrResult() public view returns (uint256) {\n        return\n            getDataFromRewardAndRebateWithValidation(\n                latestBrrData.rewardInBps,\n                latestBrrData.rebateInBps\n            );\n    }\n\n    function getNumberVotes(address staker, uint256 epoch) public view returns (uint256) {\n        return numberVotes[staker][epoch];\n    }\n\n    function campaignExists(uint256 campaignID) public view returns (bool) {\n        return campaignData[campaignID].campaignExists;\n    }\n}\n",
  "sourcePath": "D:\\Code\\kyber-verified\\contracts\\sol6\\Dao\\mock\\MockKyberDaoMoreGetters.sol",
  "compiler": {
    "name": "solc",
    "version": "0.6.6+commit.6c089d02.Emscripten.clang"
  },
  "schemaVersion": "3.4.3",
  "updatedAt": "2022-08-07T13:46:17.656Z",
  "devdoc": {
    "methods": {
      "cancelCampaign(uint256)": {
        "details": "cancel a campaign with given id, called by daoOperator only      only can cancel campaigns that have not started yet",
        "params": {
          "campaignID": "id of the campaign to cancel"
        }
      },
      "getCampaignWinningOptionAndValue(uint256)": {
        "details": "return campaign winning option and its value     return (0, 0) if campaign does not exist     return (0, 0) if campaign has not ended yet     return (0, 0) if campaign has no winning option based on the formula",
        "params": {
          "campaignID": "id of campaign to get result"
        }
      },
      "getCurrentEpochRewardPercentageInPrecision(address)": {
        "details": "return staker's reward percentage in precision for the current epoch"
      },
      "getDataFromRewardAndRebateWithValidation(uint256,uint256)": {
        "details": "helper func to get encoded reward and rebate      revert if validation failed"
      },
      "getLatestBRRData()": {
        "details": "return latest brr result, conclude brr campaign if needed"
      },
      "getLatestBRRDataWithCache()": {
        "details": "return latest burn/reward/rebate data, also affecting epoch + expiry timestamp     conclude brr campaign if needed and caching latest result in KyberDao"
      },
      "getLatestNetworkFeeData()": {
        "details": "return latest network fee and expiry timestamp"
      },
      "getLatestNetworkFeeDataWithCache()": {
        "details": "get latest network fee data + expiry timestamp   conclude network fee campaign if needed and caching latest result in KyberDao"
      },
      "getPastEpochRewardPercentageInPrecision(address,uint256)": {
        "details": "return staker's reward percentage in precision for a past epoch only      fee handler should call this function when a staker wants to claim reward      return 0 if staker has no votes or stakes"
      },
      "handleWithdrawal(address,uint256)": {
        "details": "called by staking contract when staker wanted to withdraw",
        "params": {
          "reduceAmount": "amount voting power to be reduced for each campaign staker has voted at this epoch",
          "staker": "address of staker to reduce reward"
        }
      },
      "shouldBurnRewardForEpoch(uint256)": {
        "details": "some epochs have reward but no one can claim, for example: epoch 0     return true if should burn all that reward",
        "params": {
          "epoch": "epoch to check for burning reward"
        }
      },
      "submitNewCampaign(uint8,uint256,uint256,uint256,uint256,uint256,uint256[],bytes)": {
        "details": "create new campaign, only called by daoOperator",
        "params": {
          "cInPrecision": "c value (in precision) for formula to conclude campaign",
          "campaignType": "type of campaign (General, NetworkFee, FeeHandlerBRR)",
          "endTimestamp": "timestamp to end this campaign",
          "link": "additional data for this campaign",
          "minPercentageInPrecision": "min percentage (in precision) for formula to conclude campaign",
          "options": "list values of options to vote for this campaign",
          "startTimestamp": "timestamp to start running the campaign",
          "tInPrecision": "t value (in precision) for formula to conclude campaign"
        }
      },
      "vote(uint256,uint256)": {
        "details": "vote for an option of a campaign      options are indexed from 1 to number of options",
        "params": {
          "campaignID": "id of campaign to vote for",
          "option": "id of options to vote for"
        }
      }
    }
  },
  "userdoc": {
    "methods": {}
  }
}