{
  "contractName": "ReentrancyMock",
  "abi": [
    {
      "inputs": [],
      "stateMutability": "nonpayable",
      "type": "constructor"
    },
    {
      "inputs": [],
      "name": "counter",
      "outputs": [
        {
          "internalType": "uint256",
          "name": "",
          "type": "uint256"
        }
      ],
      "stateMutability": "view",
      "type": "function"
    },
    {
      "inputs": [],
      "name": "callback",
      "outputs": [],
      "stateMutability": "nonpayable",
      "type": "function"
    },
    {
      "inputs": [
        {
          "internalType": "uint256",
          "name": "n",
          "type": "uint256"
        }
      ],
      "name": "countLocalRecursive",
      "outputs": [],
      "stateMutability": "nonpayable",
      "type": "function"
    },
    {
      "inputs": [
        {
          "internalType": "uint256",
          "name": "n",
          "type": "uint256"
        }
      ],
      "name": "countThisRecursive",
      "outputs": [],
      "stateMutability": "nonpayable",
      "type": "function"
    },
    {
      "inputs": [
        {
          "internalType": "contract ReentrancyAttack",
          "name": "attacker",
          "type": "address"
        }
      ],
      "name": "countAndCall",
      "outputs": [],
      "stateMutability": "nonpayable",
      "type": "function"
    }
  ],
  "bytecode": "0x608060405234801561001057600080fd5b506000805460ff1916600190811782555561049b806100306000396000f3fe608060405234801561001057600080fd5b50600436106100575760003560e01c8063083b27321461005c57806361bc221a146100665780638c5344fa1461008057806396ffa6901461009d578063b672ad8b146100ba575b600080fd5b6100646100e0565b005b61006e610146565b60408051918252519081900360200190f35b6100646004803603602081101561009657600080fd5b503561014c565b610064600480360360208110156100b357600080fd5b50356102e6565b610064600480360360208110156100d057600080fd5b50356001600160a01b031661034f565b60005460ff16610125576040805162461bcd60e51b815260206004820152601f6024820152600080516020610446833981519152604482015290519081900360640190fd5b6000805460ff1916905561013761043b565b6000805460ff19166001179055565b60015481565b60005460ff16610191576040805162461bcd60e51b815260206004820152601f6024820152600080516020610446833981519152604482015290519081900360640190fd5b6000805460ff1916905580156102d6576101a961043b565b60408051600019830160248083019190915282518083039091018152604490910182526020810180516001600160e01b0316634629a27d60e11b17815291518151600093309392918291908083835b602083106102175780518252601f1990920191602091820191016101f8565b6001836020036101000a0380198251168184511680821785525050505050509050019150506000604051808303816000865af19150503d8060008114610279576040519150601f19603f3d011682016040523d82523d6000602084013e61027e565b606091505b50509050806102d4576040805162461bcd60e51b815260206004820152601b60248201527f5265656e7472616e63794d6f636b3a206661696c65642063616c6c0000000000604482015290519081900360640190fd5b505b506000805460ff19166001179055565b60005460ff1661032b576040805162461bcd60e51b815260206004820152601f6024820152600080516020610446833981519152604482015290519081900360640190fd5b6000805460ff1916905580156102d65761034361043b565b6102d6600182036102e6565b60005460ff16610394576040805162461bcd60e51b815260206004820152601f6024820152600080516020610446833981519152604482015290519081900360640190fd5b6000805460ff191690556103a661043b565b604080516963616c6c6261636b282960b01b8152815190819003600a018120630a2df1ed60e01b82526001600160e01b03198116600483015291516001600160a01b03841691630a2df1ed91602480830192600092919082900301818387803b15801561041257600080fd5b505af1158015610426573d6000803e3d6000fd5b50506000805460ff1916600117905550505050565b600180548101905556fe5265656e7472616e637947756172643a207265656e7472616e742063616c6c00a2646970667358221220e48c8d62e0a4c1014527a8c242b25d58ef2f5399e532a6cd590b055565a433e164736f6c63430006060033",
  "immutableReferences": {},
  "source": "pragma solidity 0.6.6;\n\nimport \"../utils/zeppelin/ReentrancyGuard.sol\";\nimport \"./ReentrancyAttack.sol\";\n\n\ncontract ReentrancyMock is ReentrancyGuard {\n    uint256 public counter;\n\n    constructor() public {\n        counter = 0;\n    }\n\n    function callback() external nonReentrant {\n        count();\n    }\n\n    function countLocalRecursive(uint256 n) public nonReentrant {\n        if (n > 0) {\n            count();\n            countLocalRecursive(n - 1);\n        }\n    }\n\n    function countThisRecursive(uint256 n) public nonReentrant {\n        if (n > 0) {\n            count();\n            (bool success, ) = address(this).call(\n                abi.encodeWithSignature(\"countThisRecursive(uint256)\", n - 1)\n            );\n            require(success, \"ReentrancyMock: failed call\");\n        }\n    }\n\n    function countAndCall(ReentrancyAttack attacker) public nonReentrant {\n        count();\n        bytes4 func = bytes4(keccak256(\"callback()\"));\n        attacker.callSender(func);\n    }\n\n    function count() private {\n        counter += 1;\n    }\n}\n",
  "sourcePath": "D:\\Code\\kyber-verified\\contracts\\sol6\\mock\\ReentrancyMock.sol",
  "compiler": {
    "name": "solc",
    "version": "0.6.6+commit.6c089d02.Emscripten.clang"
  },
  "schemaVersion": "3.4.3",
  "updatedAt": "2022-08-07T13:46:18.031Z",
  "devdoc": {
    "methods": {}
  },
  "userdoc": {
    "methods": {}
  }
}