{
  "contractName": "ReentrancyFeeClaimer",
  "abi": [
    {
      "inputs": [
        {
          "internalType": "contract IKyberNetworkProxy",
          "name": "_kyberProxy",
          "type": "address"
        },
        {
          "internalType": "contract IKyberFeeHandler",
          "name": "_feeHandler",
          "type": "address"
        },
        {
          "internalType": "contract IERC20",
          "name": "_token",
          "type": "address"
        },
        {
          "internalType": "uint256",
          "name": "_amount",
          "type": "uint256"
        }
      ],
      "stateMutability": "nonpayable",
      "type": "constructor"
    },
    {
      "stateMutability": "payable",
      "type": "receive"
    },
    {
      "inputs": [
        {
          "internalType": "bool",
          "name": "_isReentrancy",
          "type": "bool"
        }
      ],
      "name": "setReentrancy",
      "outputs": [],
      "stateMutability": "nonpayable",
      "type": "function"
    }
  ],
  "bytecode": "0x60806040526005805460ff1916600117905534801561001d57600080fd5b506040516103333803806103338339818101604052608081101561004057600080fd5b508051602080830151604080850151606090950151600180546001600160a01b038088166001600160a01b031992831681179093556002805482881690841617905560038054918a169190921681179091556004838155845163095ea7b360e01b815290810192909252602482018390529251959693959394919363095ea7b3926044808401939192918290030181600087803b1580156100e057600080fd5b505af11580156100f4573d6000803e3d6000fd5b505050506040513d602081101561010a57600080fd5b505161011557600080fd5b5050505061020b806101286000396000f3fe6080604052600436106100225760003560e01c8063322d50101461019d57610198565b366101985760055460ff1661003657610196565b60015460035460048054604051632b96475560e21b81526001600160a01b039384169281018381526024820183905273eeeeeeeeeeeeeeeeeeeeeeeeeeeeeeeeeeeeeeee604483018190523360648481018290526b204fce5e3e2502611000000060848601819052600060a487018190523060c4880181905260e488018490526101206101048901908152606080516101248b01528051909d9c909c169b63ae591d549b9a999798969794969395929492938e93909291610144909101906080908083838b5b838110156101145781810151838201526020016100fc565b50505050905090810190601f1680156101415780820380516001836020036101000a031916815260200191505b509a5050505050505050505050602060405180830381600087803b15801561016857600080fd5b505af115801561017c573d6000803e3d6000fd5b505050506040513d602081101561019257600080fd5b5050505b005b600080fd5b3480156101a957600080fd5b50610196600480360360208110156101c057600080fd5b506005805460ff19169135151591909117905556fea2646970667358221220539c4c58e110fc1ab4e5c148d60204abd22d099d1f3a41018daf90185a9dd68e64736f6c63430006060033",
  "immutableReferences": {},
  "source": "pragma solidity 0.6.6;\n\nimport \"../IKyberNetworkProxy.sol\";\nimport \"../utils/Utils5.sol\";\nimport \"../IKyberFeeHandler.sol\";\n\n/// @dev contract to call trade when claimPlatformFee\ncontract ReentrancyFeeClaimer is Utils5 {\n    IKyberNetworkProxy kyberProxy;\n    IKyberFeeHandler feeHandler;\n    IERC20 token;\n    uint256 amount;\n\n    bool isReentrancy = true;\n\n    constructor(\n        IKyberNetworkProxy _kyberProxy,\n        IKyberFeeHandler _feeHandler,\n        IERC20 _token,\n        uint256 _amount\n    ) public {\n        kyberProxy = _kyberProxy;\n        feeHandler = _feeHandler;\n        token = _token;\n        amount = _amount;\n        require(_token.approve(address(_kyberProxy), _amount));\n    }\n\n    function setReentrancy(bool _isReentrancy) external {\n        isReentrancy = _isReentrancy;\n    }\n\n    receive() external payable {\n        if (!isReentrancy) {\n            return;\n        }\n\n        bytes memory hint;\n        kyberProxy.tradeWithHintAndFee(\n            token,\n            amount,\n            ETH_TOKEN_ADDRESS,\n            msg.sender,\n            MAX_QTY,\n            0,\n            address(this),\n            100,\n            hint\n        );\n    }\n}\n",
  "sourcePath": "D:\\Code\\kyber-verified\\contracts\\sol6\\mock\\ReentrancyFeeClaimer.sol",
  "compiler": {
    "name": "solc",
    "version": "0.6.6+commit.6c089d02.Emscripten.clang"
  },
  "schemaVersion": "3.4.3",
  "updatedAt": "2022-08-07T13:46:18.029Z",
  "devdoc": {
    "details": "contract to call trade when claimPlatformFee",
    "methods": {}
  },
  "userdoc": {
    "methods": {}
  }
}