{
  "contractName": "ZapInV2",
  "abi": [
    {
      "inputs": [
        {
          "internalType": "contract IKSFactory",
          "name": "_factory",
          "type": "address"
        },
        {
          "internalType": "address",
          "name": "_weth",
          "type": "address"
        }
      ],
      "stateMutability": "nonpayable",
      "type": "constructor"
    },
    {
      "inputs": [],
      "name": "factory",
      "outputs": [
        {
          "internalType": "contract IKSFactory",
          "name": "",
          "type": "address"
        }
      ],
      "stateMutability": "view",
      "type": "function"
    },
    {
      "inputs": [],
      "name": "weth",
      "outputs": [
        {
          "internalType": "address",
          "name": "",
          "type": "address"
        }
      ],
      "stateMutability": "view",
      "type": "function"
    },
    {
      "stateMutability": "payable",
      "type": "receive"
    },
    {
      "inputs": [
        {
          "internalType": "contract IERC20",
          "name": "tokenOut",
          "type": "address"
        },
        {
          "internalType": "address",
          "name": "pool",
          "type": "address"
        },
        {
          "internalType": "address",
          "name": "to",
          "type": "address"
        },
        {
          "internalType": "uint256",
          "name": "minLpQty",
          "type": "uint256"
        },
        {
          "internalType": "uint256",
          "name": "deadline",
          "type": "uint256"
        }
      ],
      "name": "zapInEth",
      "outputs": [
        {
          "internalType": "uint256",
          "name": "lpQty",
          "type": "uint256"
        }
      ],
      "stateMutability": "payable",
      "type": "function"
    },
    {
      "inputs": [
        {
          "internalType": "contract IERC20",
          "name": "tokenIn",
          "type": "address"
        },
        {
          "internalType": "contract IERC20",
          "name": "tokenOut",
          "type": "address"
        },
        {
          "internalType": "uint256",
          "name": "userIn",
          "type": "uint256"
        },
        {
          "internalType": "address",
          "name": "pool",
          "type": "address"
        },
        {
          "internalType": "address",
          "name": "to",
          "type": "address"
        },
        {
          "internalType": "uint256",
          "name": "minLpQty",
          "type": "uint256"
        },
        {
          "internalType": "uint256",
          "name": "deadline",
          "type": "uint256"
        }
      ],
      "name": "zapIn",
      "outputs": [
        {
          "internalType": "uint256",
          "name": "lpQty",
          "type": "uint256"
        }
      ],
      "stateMutability": "nonpayable",
      "type": "function"
    },
    {
      "inputs": [
        {
          "internalType": "contract IERC20",
          "name": "tokenIn",
          "type": "address"
        },
        {
          "internalType": "contract IERC20",
          "name": "tokenOut",
          "type": "address"
        },
        {
          "internalType": "uint256",
          "name": "liquidity",
          "type": "uint256"
        },
        {
          "internalType": "address",
          "name": "pool",
          "type": "address"
        },
        {
          "internalType": "address",
          "name": "to",
          "type": "address"
        },
        {
          "internalType": "uint256",
          "name": "minTokenOut",
          "type": "uint256"
        },
        {
          "internalType": "uint256",
          "name": "deadline",
          "type": "uint256"
        }
      ],
      "name": "zapOut",
      "outputs": [
        {
          "internalType": "uint256",
          "name": "amountOut",
          "type": "uint256"
        }
      ],
      "stateMutability": "nonpayable",
      "type": "function"
    },
    {
      "inputs": [
        {
          "internalType": "contract IERC20",
          "name": "tokenIn",
          "type": "address"
        },
        {
          "internalType": "contract IERC20",
          "name": "tokenOut",
          "type": "address"
        },
        {
          "internalType": "uint256",
          "name": "liquidity",
          "type": "uint256"
        },
        {
          "internalType": "address",
          "name": "pool",
          "type": "address"
        },
        {
          "internalType": "address",
          "name": "to",
          "type": "address"
        },
        {
          "internalType": "uint256",
          "name": "minTokenOut",
          "type": "uint256"
        },
        {
          "internalType": "uint256",
          "name": "deadline",
          "type": "uint256"
        },
        {
          "internalType": "bool",
          "name": "approveMax",
          "type": "bool"
        },
        {
          "internalType": "uint8",
          "name": "v",
          "type": "uint8"
        },
        {
          "internalType": "bytes32",
          "name": "r",
          "type": "bytes32"
        },
        {
          "internalType": "bytes32",
          "name": "s",
          "type": "bytes32"
        }
      ],
      "name": "zapOutPermit",
      "outputs": [
        {
          "internalType": "uint256",
          "name": "amountOut",
          "type": "uint256"
        }
      ],
      "stateMutability": "nonpayable",
      "type": "function"
    },
    {
      "inputs": [
        {
          "internalType": "contract IERC20",
          "name": "tokenIn",
          "type": "address"
        },
        {
          "internalType": "uint256",
          "name": "liquidity",
          "type": "uint256"
        },
        {
          "internalType": "address",
          "name": "pool",
          "type": "address"
        },
        {
          "internalType": "address",
          "name": "to",
          "type": "address"
        },
        {
          "internalType": "uint256",
          "name": "minTokenOut",
          "type": "uint256"
        },
        {
          "internalType": "uint256",
          "name": "deadline",
          "type": "uint256"
        }
      ],
      "name": "zapOutEth",
      "outputs": [
        {
          "internalType": "uint256",
          "name": "amountOut",
          "type": "uint256"
        }
      ],
      "stateMutability": "nonpayable",
      "type": "function"
    },
    {
      "inputs": [
        {
          "internalType": "contract IERC20",
          "name": "tokenIn",
          "type": "address"
        },
        {
          "internalType": "uint256",
          "name": "liquidity",
          "type": "uint256"
        },
        {
          "internalType": "address",
          "name": "pool",
          "type": "address"
        },
        {
          "internalType": "address",
          "name": "to",
          "type": "address"
        },
        {
          "internalType": "uint256",
          "name": "minTokenOut",
          "type": "uint256"
        },
        {
          "internalType": "uint256",
          "name": "deadline",
          "type": "uint256"
        },
        {
          "internalType": "bool",
          "name": "approveMax",
          "type": "bool"
        },
        {
          "internalType": "uint8",
          "name": "v",
          "type": "uint8"
        },
        {
          "internalType": "bytes32",
          "name": "r",
          "type": "bytes32"
        },
        {
          "internalType": "bytes32",
          "name": "s",
          "type": "bytes32"
        }
      ],
      "name": "zapOutEthPermit",
      "outputs": [
        {
          "internalType": "uint256",
          "name": "amountOut",
          "type": "uint256"
        }
      ],
      "stateMutability": "nonpayable",
      "type": "function"
    },
    {
      "inputs": [
        {
          "internalType": "contract IERC20",
          "name": "tokenIn",
          "type": "address"
        },
        {
          "internalType": "contract IERC20",
          "name": "tokenOut",
          "type": "address"
        },
        {
          "internalType": "address",
          "name": "pool",
          "type": "address"
        },
        {
          "internalType": "uint256",
          "name": "userIn",
          "type": "uint256"
        }
      ],
      "name": "calculateZapInAmounts",
      "outputs": [
        {
          "internalType": "uint256",
          "name": "tokenInAmount",
          "type": "uint256"
        },
        {
          "internalType": "uint256",
          "name": "tokenOutAmount",
          "type": "uint256"
        }
      ],
      "stateMutability": "view",
      "type": "function"
    },
    {
      "inputs": [
        {
          "internalType": "contract IERC20",
          "name": "tokenIn",
          "type": "address"
        },
        {
          "internalType": "contract IERC20",
          "name": "tokenOut",
          "type": "address"
        },
        {
          "internalType": "address",
          "name": "pool",
          "type": "address"
        },
        {
          "internalType": "uint256",
          "name": "lpQty",
          "type": "uint256"
        }
      ],
      "name": "calculateZapOutAmount",
      "outputs": [
        {
          "internalType": "uint256",
          "name": "",
          "type": "uint256"
        }
      ],
      "stateMutability": "view",
      "type": "function"
    },
    {
      "inputs": [
        {
          "internalType": "contract IERC20",
          "name": "tokenIn",
          "type": "address"
        },
        {
          "internalType": "contract IERC20",
          "name": "tokenOut",
          "type": "address"
        },
        {
          "internalType": "address",
          "name": "pool",
          "type": "address"
        },
        {
          "internalType": "uint256",
          "name": "userIn",
          "type": "uint256"
        }
      ],
      "name": "calculateSwapAmounts",
      "outputs": [
        {
          "internalType": "uint256",
          "name": "amountSwap",
          "type": "uint256"
        },
        {
          "internalType": "uint256",
          "name": "amountOutput",
          "type": "uint256"
        }
      ],
      "stateMutability": "view",
      "type": "function"
    }
  ],
  "bytecode": "0x60c060405234801561001057600080fd5b506040516123ca3803806123ca8339818101604052604081101561003357600080fd5b5080516020909101516001600160601b0319606092831b8116608052911b1660a05260805160601c60a05160601c6123076100c36000398060b05280610518528061054352806108595280610a585280610ad25280610b0b5280610b385280610b775280610ce25280610d0d52508061060d5280610da35280610ee95280610f8b5280611bd552506123076000f3fe6080604052600436106100a05760003560e01c80635ce9303a116100645780635ce9303a146102c1578063716793091461031e5780639711c8c514610360578063b7b9015d146103b7578063c45a015514610400578063d4f9ec7314610415576100d9565b80630fe9b4b6146100de5780631ffbd649146101675780632bb1a4ec146101b05780633e6ddaaa1461022e5780633fc8cef314610290576100d9565b366100d957336001600160a01b037f000000000000000000000000000000000000000000000000000000000000000016146100d757fe5b005b600080fd5b3480156100ea57600080fd5b50610155600480360361014081101561010257600080fd5b506001600160a01b038135811691602081013591604082013581169160608101359091169060808101359060a08101359060c081013515159060ff60e08201351690610100810135906101200135610472565b60408051918252519081900360200190f35b34801561017357600080fd5b506101556004803603608081101561018a57600080fd5b506001600160a01b038135811691602081013582169160408201351690606001356105d8565b3480156101bc57600080fd5b5061015560048036036101608110156101d457600080fd5b506001600160a01b038135811691602081013582169160408201359160608101358216916080820135169060a08101359060c08101359060e081013515159060ff610100820135169061012081013590610140013561070d565b34801561023a57600080fd5b506102776004803603608081101561025157600080fd5b506001600160a01b0381358116916020810135821691604082013516906060013561082c565b6040805192835260208301919091528051918290030190f35b34801561029c57600080fd5b506102a5610857565b604080516001600160a01b039092168252519081900360200190f35b3480156102cd57600080fd5b50610155600480360360e08110156102e457600080fd5b506001600160a01b038135811691602081013582169160408201359160608101358216916080820135169060a08101359060c0013561087b565b610155600480360360a081101561033457600080fd5b506001600160a01b03813581169160208101358216916040820135169060608101359060800135610a0a565b34801561036c57600080fd5b50610155600480360360c081101561038357600080fd5b506001600160a01b038135811691602081013591604082013581169160608101359091169060808101359060a00135610c90565b3480156103c357600080fd5b50610277600480360360808110156103da57600080fd5b506001600160a01b03813581169160208101358216916040820135169060600135610d9e565b34801561040c57600080fd5b506102a5610ee7565b34801561042157600080fd5b50610155600480360360e081101561043857600080fd5b506001600160a01b038135811691602081013582169160408201359160608101358216916080820135169060a08101359060c00135610f0b565b60008085610480578a610484565b6000195b6040805163d505accf60e01b815233600482015230602482015260448101839052606481018a905260ff8816608482015260a4810187905260c4810186905290519192506001600160a01b038c169163d505accf9160e48082019260009290919082900301818387803b1580156104fa57600080fd5b505af115801561050e573d6000803e3d6000fd5b5050505061053f8c7f00000000000000000000000000000000000000000000000000000000000000008d8d8c610f86565b91507f00000000000000000000000000000000000000000000000000000000000000006001600160a01b0316632e1a7d4d836040518263ffffffff1660e01b815260040180828152602001915050600060405180830381600087803b1580156105a757600080fd5b505af11580156105bb573d6000803e3d6000fd5b505050506105c9898361121e565b509a9950505050505050505050565b6040805163eb787f6160e01b81526001600160a01b0386811660048301528581166024830152848116604483015291516000927f0000000000000000000000000000000000000000000000000000000000000000169163eb787f61916064808301926020929190829003018186803b15801561065357600080fd5b505afa158015610667573d6000803e3d6000fd5b505050506040513d602081101561067d57600080fd5b50516106bf576040805162461bcd60e51b815260206004820152600c60248201526b1253959053125117d413d3d360a21b604482015290519081900360640190fd5b6000806106ca6121b8565b6106d686898988611316565b9250925092506106fe83826000015183602001518460400151856060015186608001516114ff565b90910192505050949350505050565b60008542811015610759576040805162461bcd60e51b815260206004820152601160248201527012d4d49bdd5d195c8e8811561412549151607a1b604482015290519081900360640190fd5b600086610766578b61076a565b6000195b6040805163d505accf60e01b815233600482015230602482015260448101839052606481018b905260ff8916608482015260a4810188905260c4810187905290519192506001600160a01b038d169163d505accf9160e48082019260009290919082900301818387803b1580156107e057600080fd5b505af11580156107f4573d6000803e3d6000fd5b505050506108058e8e8e8e8d610f86565b925061081b6001600160a01b038e168b85611627565b50509b9a5050505050505050505050565b600080600061083d87878787610d9e565b9250905061084b8482611679565b92505094509492505050565b7f000000000000000000000000000000000000000000000000000000000000000081565b600081428110156108c7576040805162461bcd60e51b815260206004820152601160248201527012d4d49bdd5d195c8e8811561412549151607a1b604482015290519081900360640190fd5b6000806108d68b8b8a8c610d9e565b90925090506108f06001600160a01b038c16338a856116db565b6108fd818c8c8b3061173b565b61091e338961090c8c86611679565b6001600160a01b038f169291906116db565b6109326001600160a01b038b168983611627565b876001600160a01b0316636a627842886040518263ffffffff1660e01b815260040180826001600160a01b03168152602001915050602060405180830381600087803b15801561098157600080fd5b505af1158015610995573d6000803e3d6000fd5b505050506040513d60208110156109ab57600080fd5b50519350858410156109fc576040805162461bcd60e51b8152602060048201526015602482015274494e53554646494349454e545f4d494e545f51545960581b604482015290519081900360640190fd5b505050979650505050505050565b60008142811015610a56576040805162461bcd60e51b815260206004820152601160248201527012d4d49bdd5d195c8e8811561412549151607a1b604482015290519081900360640190fd5b7f00000000000000000000000000000000000000000000000000000000000000006001600160a01b031663d0e30db0346040518263ffffffff1660e01b81526004016000604051808303818588803b158015610ab157600080fd5b505af1158015610ac5573d6000803e3d6000fd5b5050505050600080610af97f00000000000000000000000000000000000000000000000000000000000000008a8a34610d9e565b9092509050610b326001600160a01b037f0000000000000000000000000000000000000000000000000000000000000000168984611627565b610b5f817f00000000000000000000000000000000000000000000000000000000000000008b8b3061173b565b610b9e88610b6d3485611679565b6001600160a01b037f0000000000000000000000000000000000000000000000000000000000000000169190611627565b610bb26001600160a01b038a168983611627565b876001600160a01b0316636a627842886040518263ffffffff1660e01b815260040180826001600160a01b03168152602001915050602060405180830381600087803b158015610c0157600080fd5b505af1158015610c15573d6000803e3d6000fd5b505050506040513d6020811015610c2b57600080fd5b5051935085841015610c84576040805162461bcd60e51b815260206004820181905260248201527f494b53526f757465723a20494e53554646494349454e545f4d494e545f515459604482015290519081900360640190fd5b50505095945050505050565b60008142811015610cdc576040805162461bcd60e51b815260206004820152601160248201527012d4d49bdd5d195c8e8811561412549151607a1b604482015290519081900360640190fd5b610d09887f0000000000000000000000000000000000000000000000000000000000000000898988610f86565b91507f00000000000000000000000000000000000000000000000000000000000000006001600160a01b0316632e1a7d4d836040518263ffffffff1660e01b815260040180828152602001915050600060405180830381600087803b158015610d7157600080fd5b505af1158015610d85573d6000803e3d6000fd5b50505050610d93858361121e565b509695505050505050565b6000807f00000000000000000000000000000000000000000000000000000000000000006001600160a01b031663eb787f618787876040518463ffffffff1660e01b815260040180846001600160a01b03168152602001836001600160a01b03168152602001826001600160a01b03168152602001935050505060206040518083038186803b158015610e3057600080fd5b505afa158015610e44573d6000803e3d6000fd5b505050506040513d6020811015610e5a57600080fd5b5051610e9c576040805162461bcd60e51b815260206004820152600c60248201526b1253959053125117d413d3d360a21b604482015290519081900360640190fd5b6000806000806000610eaf898c8c61186b565b94509450945094509450610ec785858585858d611965565b9650610ed78786868686866114ff565b9550505050505094509492505050565b7f000000000000000000000000000000000000000000000000000000000000000081565b60008142811015610f57576040805162461bcd60e51b815260206004820152601160248201527012d4d49bdd5d195c8e8811561412549151607a1b604482015290519081900360640190fd5b610f648989898988610f86565b9150610f7a6001600160a01b0389168684611627565b50979650505050505050565b6000807f00000000000000000000000000000000000000000000000000000000000000006001600160a01b031663eb787f618888876040518463ffffffff1660e01b815260040180846001600160a01b03168152602001836001600160a01b03168152602001826001600160a01b03168152602001935050505060206040518083038186803b15801561101857600080fd5b505afa15801561102c573d6000803e3d6000fd5b505050506040513d602081101561104257600080fd5b5051611084576040805162461bcd60e51b815260206004820152600c60248201526b1253959053125117d413d3d360a21b604482015290519081900360640190fd5b6110996001600160a01b0385163386886116db565b600080856001600160a01b03166389afcb44306040518263ffffffff1660e01b815260040180826001600160a01b031681526020019150506040805180830381600087803b1580156110ea57600080fd5b505af11580156110fe573d6000803e3d6000fd5b505050506040513d604081101561111457600080fd5b5080516020909101519092509050600061112e8a8a611a58565b509050806001600160a01b03168a6001600160a01b031614611151578183611154565b82825b95509350600092508291508190508080806111708a8e8e61186b565b945094509450945094506111888786868686866114ff565b955050505050506111ad85838a6001600160a01b03166116279092919063ffffffff16565b6111ba818989883061173b565b9182019183831015611213576040805162461bcd60e51b815260206004820152601a60248201527f494e53554646494349454e545f4f55545055545f414d4f554e54000000000000604482015290519081900360640190fd5b505095945050505050565b604080516000808252602082019092526001600160a01b0384169083906040518082805190602001908083835b6020831061126a5780518252601f19909201916020918201910161124b565b6001836020036101000a03801982511681845116808217855250505050505090500191505060006040518083038185875af1925050503d80600081146112cc576040519150601f19603f3d011682016040523d82523d6000602084013e6112d1565b606091505b50509050806113115760405162461bcd60e51b81526004018080602001828103825260348152602001806121e86034913960400191505060405180910390fd5b505050565b6000806113216121b8565b6113296121b8565b61133488888861186b565b6080860152606085015260408401526020830152815260006113568983611b4c565b90506000896001600160a01b03166349386b166040518163ffffffff1660e01b815260040160206040518083038186803b15801561139357600080fd5b505afa1580156113a7573d6000803e3d6000fd5b505050506040513d60208110156113bd57600080fd5b5051835161271063ffffffff9283161415925083916113de918a91611d5116565b816113e557fe5b04955081611400846020015189611d5190919063ffffffff16565b8161140757fe5b84518890038652602080860151929091049182900390860152945080156114d4578251845160009161146e9161143d9086611d51565b8161144457fe5b048560200151611461868960200151611d5190919063ffffffff16565b8161146857fe5b04611db1565b905061149d8361148b838760400151611d5190919063ffffffff16565b8161149257fe5b048660000151611dc7565b604086015260608401516114c99084906114b79084611d51565b816114be57fe5b048660200151611dc7565b6060860152506114e6565b83516040850152602084015160608501525b5050608090810151908201529196909550909350915050565b600080871161153f5760405162461bcd60e51b81526004018080602001828103825260248152602001806122ae6024913960400191505060405180910390fd5b60008611801561154f5750600085115b61158a5760405162461bcd60e51b81526004018080602001828103825260218152602001806122636021913960400191505060405180910390fd5b60006115b2670de0b6b3a76400006115ac6115a58287611679565b8b90611d51565b90611dd7565b905060006115c08286611d51565b905060006115ce8784611e3e565b90506115da8282611dd7565b935083881161161a5760405162461bcd60e51b81526004018080602001828103825260218152602001806122636021913960400191505060405180910390fd5b5050509695505050505050565b604080516001600160a01b038416602482015260448082018490528251808303909101815260649091019091526020810180516001600160e01b031663a9059cbb60e01b179052611311908490611e98565b6000828211156116d0576040805162461bcd60e51b815260206004820152601e60248201527f536166654d6174683a207375627472616374696f6e206f766572666c6f770000604482015290519081900360640190fd5b508082035b92915050565b604080516001600160a01b0380861660248301528416604482015260648082018490528251808303909101815260849091019091526020810180516001600160e01b03166323b872dd60e01b179052611735908590611e98565b50505050565b60006117478585611a58565b509050600080826001600160a01b0316876001600160a01b03161461176e57876000611772565b6000885b604080516000808252602082019283905263022c0d9f60e01b835260248201858152604483018590526001600160a01b038a81166064850152608060848501908152845160a486018190529799509597508b169563022c0d9f95899589958d9590949360c4860192918190849084905b838110156117fa5781810151838201526020016117e2565b50505050905090810190601f1680156118275780820380516001836020036101000a031916815260200191505b5095505050505050600060405180830381600087803b15801561184957600080fd5b505af115801561185d573d6000803e3d6000fd5b505050505050505050505050565b60008060008060008061187e8888611a58565b5090506000806000808c6001600160a01b031663d66940276040518163ffffffff1660e01b815260040160a06040518083038186803b1580156118c057600080fd5b505afa1580156118d4573d6000803e3d6000fd5b505050506040513d60a08110156118ea57600080fd5b50805160208201516040830151606084015160809094015199506dffffffffffffffffffffffffffff92831697509082169550811693501690506001600160a01b038c8116908616146119405782848284611945565b838383835b809a50819b50829c50839d50505050505050505050939792965093509350565b6000670de0b6b3a76400008390038180611989611982888b611679565b8690611d51565b905061199f611998888c611d51565b8290611e3e565b9050670de0b6b3a76400006119be846119b8848d611dd7565b90611d51565b816119c557fe5b0491506119d28289611e3e565b9150600090506119e28886611d51565b90506000611a2983611a23611a1e670de0b6b3a7640000611a068760048b02611d51565b81611a0d57fe5b04611a188880611d51565b90611e3e565b611f49565b90611679565b905060028402611a4182670de0b6b3a7640000611d51565b81611a4857fe5b049b9a5050505050505050505050565b600080826001600160a01b0316846001600160a01b03161415611ac2576040805162461bcd60e51b815260206004820152601e60248201527f4b534c6962726172793a204944454e544943414c5f4144445245535345530000604482015290519081900360640190fd5b826001600160a01b0316846001600160a01b031610611ae2578284611ae5565b83835b90925090506001600160a01b038216611b45576040805162461bcd60e51b815260206004820152601760248201527f4b534c6962726172793a205a45524f5f41444452455353000000000000000000604482015290519081900360640190fd5b9250929050565b6000826001600160a01b03166318160ddd6040518163ffffffff1660e01b815260040160206040518083038186803b158015611b8757600080fd5b505afa158015611b9b573d6000803e3d6000fd5b505050506040513d6020811015611bb157600080fd5b50516040805163ad5cb2e160e01b8152815192935060009283926001600160a01b037f0000000000000000000000000000000000000000000000000000000000000000169263ad5cb2e19260048083019392829003018186803b158015611c1757600080fd5b505afa158015611c2b573d6000803e3d6000fd5b505050506040513d6040811015611c4157600080fd5b50805160209091015190925090506001600160a01b038216611c645750506116d5565b6000856001600160a01b0316637464fc3d6040518163ffffffff1660e01b815260040160206040518083038186803b158015611c9f57600080fd5b505afa158015611cb3573d6000803e3d6000fd5b505050506040513d6020811015611cc957600080fd5b5051905080611cda575050506116d5565b6000611ce582611f49565b90506000611cfc8760600151886040015102611f49565b90506000611d1d62ffffff86166119b8611d168587611679565b8a90611d51565b90506000611d316113886119b88587611e3e565b90506000818381611d3e57fe5b04989098019a9950505050505050505050565b600082611d60575060006116d5565b82820282848281611d6d57fe5b0414611daa5760405162461bcd60e51b81526004018080602001828103825260218152602001806122426021913960400191505060405180910390fd5b9392505050565b6000818310611dc05781611daa565b5090919050565b600081831015611dc05781611daa565b6000808211611e2d576040805162461bcd60e51b815260206004820152601a60248201527f536166654d6174683a206469766973696f6e206279207a65726f000000000000604482015290519081900360640190fd5b818381611e3657fe5b049392505050565b600082820183811015611daa576040805162461bcd60e51b815260206004820152601b60248201527f536166654d6174683a206164646974696f6e206f766572666c6f770000000000604482015290519081900360640190fd5b6060611eed826040518060400160405280602081526020017f5361666545524332303a206c6f772d6c6576656c2063616c6c206661696c6564815250856001600160a01b0316611f9b9092919063ffffffff16565b80519091501561131157808060200190516020811015611f0c57600080fd5b50516113115760405162461bcd60e51b815260040180806020018281038252602a815260200180612284602a913960400191505060405180910390fd5b60006003821115611f8c575080600160028204015b81811015611f8657809150600281828581611f7557fe5b040181611f7e57fe5b049050611f5e565b50611f96565b8115611f96575060015b919050565b6060611faa8484600085611fb2565b949350505050565b606082471015611ff35760405162461bcd60e51b815260040180806020018281038252602681526020018061221c6026913960400191505060405180910390fd5b611ffc8561210e565b61204d576040805162461bcd60e51b815260206004820152601d60248201527f416464726573733a2063616c6c20746f206e6f6e2d636f6e7472616374000000604482015290519081900360640190fd5b60006060866001600160a01b031685876040518082805190602001908083835b6020831061208c5780518252601f19909201916020918201910161206d565b6001836020036101000a03801982511681845116808217855250505050505090500191505060006040518083038185875af1925050503d80600081146120ee576040519150601f19603f3d011682016040523d82523d6000602084013e6120f3565b606091505b5091509150612103828286612114565b979650505050505050565b3b151590565b60608315612123575081611daa565b8251156121335782518084602001fd5b8160405162461bcd60e51b81526004018080602001828103825283818151815260200191508051906020019080838360005b8381101561217d578181015183820152602001612165565b50505050905090810190601f1680156121aa5780820380516001836020036101000a031916815260200191505b509250505060405180910390fd5b6040518060a001604052806000815260200160008152602001600081526020016000815260200160008152509056fe5472616e7366657248656c7065723a3a736166655472616e736665724554483a20455448207472616e73666572206661696c6564416464726573733a20696e73756666696369656e742062616c616e636520666f722063616c6c536166654d6174683a206d756c7469706c69636174696f6e206f766572666c6f774b534c6962726172793a20494e53554646494349454e545f4c49515549444954595361666545524332303a204552433230206f7065726174696f6e20646964206e6f7420737563636565644b534c6962726172793a20494e53554646494349454e545f494e5055545f414d4f554e54a26469706673582212204968027c54acd7e9533a72eff4d8cae20b92a03e950b5a29a74d9784f1128e5c64736f6c634300060c0033",
  "immutableReferences": {
    "22260": [
      {
        "length": 32,
        "start": 1549
      },
      {
        "length": 32,
        "start": 3491
      },
      {
        "length": 32,
        "start": 3817
      },
      {
        "length": 32,
        "start": 3979
      },
      {
        "length": 32,
        "start": 7125
      }
    ],
    "22262": [
      {
        "length": 32,
        "start": 176
      },
      {
        "length": 32,
        "start": 1304
      },
      {
        "length": 32,
        "start": 1347
      },
      {
        "length": 32,
        "start": 2137
      },
      {
        "length": 32,
        "start": 2648
      },
      {
        "length": 32,
        "start": 2770
      },
      {
        "length": 32,
        "start": 2827
      },
      {
        "length": 32,
        "start": 2872
      },
      {
        "length": 32,
        "start": 2935
      },
      {
        "length": 32,
        "start": 3298
      },
      {
        "length": 32,
        "start": 3341
      }
    ]
  },
  "source": "// SPDX-License-Identifier: UNLICENSED\r\npragma solidity 0.6.12;\r\n\r\nimport \"@openzeppelin/contracts/token/ERC20/SafeERC20.sol\";\r\nimport \"@openzeppelin/contracts/math/SafeMath.sol\";\r\nimport \"@openzeppelin/contracts/math/Math.sol\";\r\nimport \"@uniswap/lib/contracts/libraries/TransferHelper.sol\";\r\n\r\nimport \"../libraries/MathExt.sol\";\r\nimport \"../libraries/KSLibrary.sol\";\r\nimport \"../interfaces/IKSPool.sol\";\r\nimport \"../interfaces/IKSFactory.sol\";\r\nimport \"../interfaces/IWETH.sol\";\r\nimport \"../interfaces/IERC20Permit.sol\";\r\n\r\n/// @dev detail here: https://hackmd.io/vdqxJx8STNqPm0LG8vGWaw\r\ncontract ZapInV2 {\r\n    using SafeERC20 for IERC20;\r\n    using SafeMath for uint256;\r\n\r\n    struct ReserveData {\r\n        uint256 rIn;\r\n        uint256 rOut;\r\n        uint256 vIn;\r\n        uint256 vOut;\r\n        uint256 feeInPrecision;\r\n    }\r\n\r\n    uint256 private constant PRECISION = 1e18;\r\n    uint256 internal constant Q112 = 2**112;\r\n\r\n    IKSFactory public immutable factory;\r\n    address public immutable weth;\r\n\r\n    modifier ensure(uint256 deadline) {\r\n        require(deadline >= block.timestamp, \"KSRouter: EXPIRED\");\r\n        _;\r\n    }\r\n\r\n    constructor(IKSFactory _factory, address _weth) public {\r\n        factory = _factory;\r\n        weth = _weth;\r\n    }\r\n\r\n    receive() external payable {\r\n        assert(msg.sender == weth); // only accept ETH via fallback from the WETH contract\r\n    }\r\n\r\n    /// @dev swap eth to token and then add liquidity to a pool with token-weth\r\n    /// @param tokenOut another token of the pool - not weth\r\n    /// @param pool address of the pool\r\n    /// @param minLpQty min of lp token after swap\r\n    /// @param deadline the last time the transaction can be executed\r\n    function zapInEth(\r\n        IERC20 tokenOut,\r\n        address pool,\r\n        address to,\r\n        uint256 minLpQty,\r\n        uint256 deadline\r\n    ) external payable ensure(deadline) returns (uint256 lpQty) {\r\n        IWETH(weth).deposit{value: msg.value}();\r\n        (uint256 amountSwap, uint256 amountOutput) = calculateSwapAmounts(\r\n            IERC20(weth),\r\n            tokenOut,\r\n            pool,\r\n            msg.value\r\n        );\r\n        IERC20(weth).safeTransfer(pool, amountSwap);\r\n        _swap(amountOutput, IERC20(weth), tokenOut, pool, address(this));\r\n\r\n        IERC20(weth).safeTransfer(pool, msg.value.sub(amountSwap));\r\n        tokenOut.safeTransfer(pool, amountOutput);\r\n\r\n        lpQty = IKSPool(pool).mint(to);\r\n        require(lpQty >= minLpQty, \"IKSRouter: INSUFFICIENT_MINT_QTY\");\r\n    }\r\n\r\n    /// @dev swap and add liquidity to a pool with token-weth\r\n    /// @param tokenIn the input token\r\n    /// @param tokenOut another token of the pool\r\n    /// @param pool address of the pool\r\n    /// @param userIn amount of input token\r\n    /// @param minLpQty min of lp token after swap\r\n    /// @param deadline the last time the transaction can be executed\r\n    function zapIn(\r\n        IERC20 tokenIn,\r\n        IERC20 tokenOut,\r\n        uint256 userIn,\r\n        address pool,\r\n        address to,\r\n        uint256 minLpQty,\r\n        uint256 deadline\r\n    ) external ensure(deadline) returns (uint256 lpQty) {\r\n        (uint256 amountSwap, uint256 amountOutput) = calculateSwapAmounts(\r\n            tokenIn,\r\n            tokenOut,\r\n            pool,\r\n            userIn\r\n        );\r\n\r\n        tokenIn.safeTransferFrom(msg.sender, pool, amountSwap);\r\n        _swap(amountOutput, tokenIn, tokenOut, pool, address(this));\r\n        tokenIn.safeTransferFrom(msg.sender, pool, userIn.sub(amountSwap));\r\n        tokenOut.safeTransfer(pool, amountOutput);\r\n\r\n        lpQty = IKSPool(pool).mint(to);\r\n        require(lpQty >= minLpQty, \"INSUFFICIENT_MINT_QTY\");\r\n    }\r\n\r\n    function zapOut(\r\n        IERC20 tokenIn,\r\n        IERC20 tokenOut,\r\n        uint256 liquidity,\r\n        address pool,\r\n        address to,\r\n        uint256 minTokenOut,\r\n        uint256 deadline\r\n    ) external ensure(deadline) returns (uint256 amountOut) {\r\n        amountOut = _zapOut(tokenIn, tokenOut, liquidity, pool, minTokenOut);\r\n        tokenOut.safeTransfer(to, amountOut);\r\n    }\r\n\r\n    function zapOutPermit(\r\n        IERC20 tokenIn,\r\n        IERC20 tokenOut,\r\n        uint256 liquidity,\r\n        address pool,\r\n        address to,\r\n        uint256 minTokenOut,\r\n        uint256 deadline,\r\n        bool approveMax,\r\n        uint8 v,\r\n        bytes32 r,\r\n        bytes32 s\r\n    ) external ensure(deadline) returns (uint256 amountOut) {\r\n        uint256 value = approveMax ? uint256(-1) : liquidity;\r\n        IERC20Permit(pool).permit(msg.sender, address(this), value, deadline, v, r, s);\r\n        amountOut = _zapOut(tokenIn, tokenOut, liquidity, pool, minTokenOut);\r\n        tokenOut.safeTransfer(to, amountOut);\r\n    }\r\n\r\n    function zapOutEth(\r\n        IERC20 tokenIn,\r\n        uint256 liquidity,\r\n        address pool,\r\n        address to,\r\n        uint256 minTokenOut,\r\n        uint256 deadline\r\n    ) external ensure(deadline) returns (uint256 amountOut) {\r\n        amountOut = _zapOut(tokenIn, IERC20(weth), liquidity, pool, minTokenOut);\r\n        IWETH(weth).withdraw(amountOut);\r\n        TransferHelper.safeTransferETH(to, amountOut);\r\n    }\r\n\r\n    function zapOutEthPermit(\r\n        IERC20 tokenIn,\r\n        uint256 liquidity,\r\n        address pool,\r\n        address to,\r\n        uint256 minTokenOut,\r\n        uint256 deadline,\r\n        bool approveMax,\r\n        uint8 v,\r\n        bytes32 r,\r\n        bytes32 s\r\n    ) external returns (uint256 amountOut) {\r\n        uint256 value = approveMax ? uint256(-1) : liquidity;\r\n        IERC20Permit(pool).permit(msg.sender, address(this), value, deadline, v, r, s);\r\n        amountOut = _zapOut(tokenIn, IERC20(weth), liquidity, pool, minTokenOut);\r\n        IWETH(weth).withdraw(amountOut);\r\n        TransferHelper.safeTransferETH(to, amountOut);\r\n    }\r\n\r\n    function calculateZapInAmounts(\r\n        IERC20 tokenIn,\r\n        IERC20 tokenOut,\r\n        address pool,\r\n        uint256 userIn\r\n    ) external view returns (uint256 tokenInAmount, uint256 tokenOutAmount) {\r\n        uint256 amountSwap;\r\n        (amountSwap, tokenOutAmount) = calculateSwapAmounts(tokenIn, tokenOut, pool, userIn);\r\n        tokenInAmount = userIn.sub(amountSwap);\r\n    }\r\n\r\n    function calculateZapOutAmount(\r\n        IERC20 tokenIn,\r\n        IERC20 tokenOut,\r\n        address pool,\r\n        uint256 lpQty\r\n    ) external view returns (uint256) {\r\n        require(factory.isPool(tokenIn, tokenOut, pool), \"INVALID_POOL\");\r\n        (uint256 amountIn, uint256 amountOut, ReserveData memory data) = _calculateBurnAmount(\r\n            pool,\r\n            tokenIn,\r\n            tokenOut,\r\n            lpQty\r\n        );\r\n        amountOut += KSLibrary.getAmountOut(\r\n            amountIn,\r\n            data.rIn,\r\n            data.rOut,\r\n            data.vIn,\r\n            data.vOut,\r\n            data.feeInPrecision\r\n        );\r\n        return amountOut;\r\n    }\r\n\r\n    function calculateSwapAmounts(\r\n        IERC20 tokenIn,\r\n        IERC20 tokenOut,\r\n        address pool,\r\n        uint256 userIn\r\n    ) public view returns (uint256 amountSwap, uint256 amountOutput) {\r\n        require(factory.isPool(tokenIn, tokenOut, pool), \"INVALID_POOL\");\r\n        (uint256 rIn, uint256 rOut, uint256 vIn, uint256 vOut, uint256 feeInPrecision) = KSLibrary\r\n            .getTradeInfo(pool, tokenIn, tokenOut);\r\n        amountSwap = _calculateSwapInAmount(rIn, rOut, vIn, vOut, feeInPrecision, userIn);\r\n        amountOutput = KSLibrary.getAmountOut(amountSwap, rIn, rOut, vIn, vOut, feeInPrecision);\r\n    }\r\n\r\n    function _swap(\r\n        uint256 amountOut,\r\n        IERC20 tokenIn,\r\n        IERC20 tokenOut,\r\n        address pool,\r\n        address to\r\n    ) internal {\r\n        (IERC20 token0, ) = KSLibrary.sortTokens(tokenIn, tokenOut);\r\n        (uint256 amount0Out, uint256 amount1Out) = tokenIn == token0\r\n            ? (uint256(0), amountOut)\r\n            : (amountOut, uint256(0));\r\n        IKSPool(pool).swap(amount0Out, amount1Out, to, new bytes(0));\r\n    }\r\n\r\n    function _zapOut(\r\n        IERC20 tokenIn,\r\n        IERC20 tokenOut,\r\n        uint256 liquidity,\r\n        address pool,\r\n        uint256 minTokenOut\r\n    ) internal returns (uint256 amountOut) {\r\n        uint256 amountIn;\r\n        {\r\n            require(factory.isPool(tokenIn, tokenOut, pool), \"INVALID_POOL\");\r\n            IERC20(pool).safeTransferFrom(msg.sender, pool, liquidity); // send liquidity to pool\r\n            (uint256 amount0, uint256 amount1) = IKSPool(pool).burn(address(this));\r\n            (IERC20 token0, ) = KSLibrary.sortTokens(tokenIn, tokenOut);\r\n            (amountIn, amountOut) = tokenIn == token0 ? (amount0, amount1) : (amount1, amount0);\r\n        }\r\n        uint256 swapAmount;\r\n        {\r\n            (\r\n                uint256 rIn,\r\n                uint256 rOut,\r\n                uint256 vIn,\r\n                uint256 vOut,\r\n                uint256 feeInPrecision\r\n            ) = KSLibrary.getTradeInfo(pool, tokenIn, tokenOut);\r\n            swapAmount = KSLibrary.getAmountOut(amountIn, rIn, rOut, vIn, vOut, feeInPrecision);\r\n        }\r\n        tokenIn.safeTransfer(pool, amountIn);\r\n        _swap(swapAmount, tokenIn, tokenOut, pool, address(this));\r\n        amountOut += swapAmount;\r\n        require(amountOut >= minTokenOut, \"INSUFFICIENT_OUTPUT_AMOUNT\");\r\n    }\r\n\r\n    function _calculateBurnAmount(\r\n        address pool,\r\n        IERC20 tokenIn,\r\n        IERC20 tokenOut,\r\n        uint256 lpQty\r\n    )\r\n        internal\r\n        view\r\n        returns (\r\n            uint256 amountIn,\r\n            uint256 amountOut,\r\n            ReserveData memory newData\r\n        )\r\n    {\r\n        ReserveData memory data;\r\n        (data.rIn, data.rOut, data.vIn, data.vOut, data.feeInPrecision) = KSLibrary.getTradeInfo(\r\n            pool,\r\n            tokenIn,\r\n            tokenOut\r\n        );\r\n        uint256 totalSupply = _calculateSyncTotalSupply(IKSPool(pool), data);\r\n        bool isAmpPool = (IKSPool(pool).ampBps() != 10000);\r\n        // calculate amountOut\r\n        amountIn = lpQty.mul(data.rIn) / totalSupply;\r\n        amountOut = lpQty.mul(data.rOut) / totalSupply;\r\n        // calculate ReserveData\r\n        newData.rIn = data.rIn - amountIn;\r\n        newData.rOut = data.rOut - amountOut;\r\n        if (isAmpPool) {\r\n            uint256 b = Math.min(\r\n                newData.rIn.mul(totalSupply) / data.rIn,\r\n                newData.rOut.mul(totalSupply) / data.rOut\r\n            );\r\n            newData.vIn = Math.max(data.vIn.mul(b) / totalSupply, newData.rIn);\r\n            newData.vOut = Math.max(data.vOut.mul(b) / totalSupply, newData.rOut);\r\n        } else {\r\n            newData.vIn = newData.rIn;\r\n            newData.vOut = newData.rOut;\r\n        }\r\n        newData.feeInPrecision = data.feeInPrecision;\r\n    }\r\n\r\n    function _calculateSyncTotalSupply(IKSPool pool, ReserveData memory data)\r\n        internal\r\n        view\r\n        returns (uint256 totalSupply)\r\n    {\r\n        totalSupply = IERC20(address(pool)).totalSupply();\r\n\r\n        (address feeTo, uint24 governmentFeeUnits) = factory.getFeeConfiguration();\r\n        if (feeTo == address(0)) return totalSupply;\r\n\r\n        uint256 _kLast = pool.kLast();\r\n        if (_kLast == 0) return totalSupply;\r\n\r\n        uint256 rootKLast = MathExt.sqrt(_kLast);\r\n        uint256 rootK = MathExt.sqrt(data.vIn * data.vOut);\r\n\r\n        uint256 numerator = totalSupply.mul(rootK.sub(rootKLast)).mul(governmentFeeUnits);\r\n        uint256 denominator = rootK.add(rootKLast).mul(5000);\r\n        uint256 liquidity = numerator / denominator;\r\n\r\n        totalSupply += liquidity;\r\n    }\r\n\r\n    function _calculateSwapInAmount(\r\n        uint256 rIn,\r\n        uint256 rOut,\r\n        uint256 vIn,\r\n        uint256 vOut,\r\n        uint256 feeInPrecision,\r\n        uint256 userIn\r\n    ) internal pure returns (uint256) {\r\n        uint256 r = PRECISION - feeInPrecision;\r\n        // b = (vOut * rIn + userIn * (vOut - rOut)) * r / PRECISION / rOut+ vIN\r\n        uint256 b;\r\n        {\r\n            uint256 tmp = userIn.mul(vOut.sub(rOut));\r\n            tmp = tmp.add(vOut.mul(rIn));\r\n            b = tmp.div(rOut).mul(r) / PRECISION;\r\n            b = b.add(vIn);\r\n        }\r\n        uint256 inverseC = vIn.mul(userIn);\r\n        // numerator = sqrt(b^2 -4ac) - b\r\n        uint256 numerator = MathExt.sqrt(b.mul(b).add(inverseC.mul(4 * r) / PRECISION)).sub(b);\r\n        return numerator.mul(PRECISION) / (2 * r);\r\n    }\r\n}\r\n",
  "sourcePath": "D:\\Code\\kyber-verified\\contracts\\dmm\\periphery\\ZapInV2.sol",
  "compiler": {
    "name": "solc",
    "version": "0.6.12+commit.27d51765.Emscripten.clang"
  },
  "schemaVersion": "3.4.3",
  "updatedAt": "2022-09-21T07:07:36.975Z",
  "devdoc": {
    "details": "detail here: https://hackmd.io/vdqxJx8STNqPm0LG8vGWaw",
    "kind": "dev",
    "methods": {
      "zapIn(address,address,uint256,address,address,uint256,uint256)": {
        "details": "swap and add liquidity to a pool with token-weth",
        "params": {
          "deadline": "the last time the transaction can be executed",
          "minLpQty": "min of lp token after swap",
          "pool": "address of the pool",
          "tokenIn": "the input token",
          "tokenOut": "another token of the pool",
          "userIn": "amount of input token"
        }
      },
      "zapInEth(address,address,address,uint256,uint256)": {
        "details": "swap eth to token and then add liquidity to a pool with token-weth",
        "params": {
          "deadline": "the last time the transaction can be executed",
          "minLpQty": "min of lp token after swap",
          "pool": "address of the pool",
          "tokenOut": "another token of the pool - not weth"
        }
      }
    },
    "version": 1
  },
  "userdoc": {
    "kind": "user",
    "methods": {},
    "version": 1
  }
}