{
    "contractName": "Client",
    "abi": [
        {
            "anonymous": false,
            "inputs": [
                {
                    "indexed": false,
                    "internalType": "address",
                    "name": "manager",
                    "type": "address"
                },
                {
                    "indexed": true,
                    "internalType": "address",
                    "name": "submanager",
                    "type": "address"
                },
                {
                    "indexed": false,
                    "internalType": "bytes32",
                    "name": "role",
                    "type": "bytes32"
                },
                {
                    "indexed": false,
                    "internalType": "bytes32",
                    "name": "country",
                    "type": "bytes32"
                },
                {
                    "indexed": false,
                    "internalType": "bytes32",
                    "name": "managerId",
                    "type": "bytes32"
                }
            ],
            "name": "ManagerAdded",
            "type": "event"
        },
        {
            "anonymous": false,
            "inputs": [
                {
                    "indexed": false,
                    "internalType": "address",
                    "name": "manager",
                    "type": "address"
                },
                {
                    "indexed": true,
                    "internalType": "address",
                    "name": "submanager",
                    "type": "address"
                },
                {
                    "indexed": false,
                    "internalType": "bytes32",
                    "name": "role",
                    "type": "bytes32"
                },
                {
                    "indexed": false,
                    "internalType": "bytes32",
                    "name": "country",
                    "type": "bytes32"
                }
            ],
            "name": "ManagerRemoved",
            "type": "event"
        },
        {
            "anonymous": false,
            "inputs": [
                {
                    "indexed": true,
                    "internalType": "address",
                    "name": "previousOwner",
                    "type": "address"
                },
                {
                    "indexed": true,
                    "internalType": "address",
                    "name": "newOwner",
                    "type": "address"
                }
            ],
            "name": "OwnershipTransferred",
            "type": "event"
        },
        {
            "inputs": [],
            "name": "owner",
            "outputs": [
                {
                    "internalType": "address",
                    "name": "",
                    "type": "address"
                }
            ],
            "stateMutability": "view",
            "type": "function",
            "constant": true
        },
        {
            "inputs": [],
            "name": "renounceOwnership",
            "outputs": [],
            "stateMutability": "nonpayable",
            "type": "function"
        },
        {
            "inputs": [
                {
                    "internalType": "address",
                    "name": "newOwner",
                    "type": "address"
                }
            ],
            "name": "transferOwnership",
            "outputs": [],
            "stateMutability": "nonpayable",
            "type": "function"
        },
        {
            "inputs": [
                {
                    "internalType": "address",
                    "name": "_signer",
                    "type": "address"
                }
            ],
            "name": "initialize",
            "outputs": [],
            "stateMutability": "nonpayable",
            "type": "function"
        },
        {
            "inputs": [
                {
                    "internalType": "address",
                    "name": "_signer",
                    "type": "address"
                }
            ],
            "name": "setSigner",
            "outputs": [],
            "stateMutability": "nonpayable",
            "type": "function"
        },
        {
            "inputs": [
                {
                    "internalType": "address",
                    "name": "_manager",
                    "type": "address"
                },
                {
                    "internalType": "address",
                    "name": "_submanager",
                    "type": "address"
                },
                {
                    "internalType": "bytes32",
                    "name": "_country",
                    "type": "bytes32"
                },
                {
                    "internalType": "bytes32",
                    "name": "_role",
                    "type": "bytes32"
                },
                {
                    "internalType": "bytes32",
                    "name": "_id",
                    "type": "bytes32"
                },
                {
                    "internalType": "bytes32",
                    "name": "_hashedMessage",
                    "type": "bytes32"
                },
                {
                    "internalType": "uint8",
                    "name": "_v",
                    "type": "uint8"
                },
                {
                    "internalType": "bytes32",
                    "name": "_r",
                    "type": "bytes32"
                },
                {
                    "internalType": "bytes32",
                    "name": "_s",
                    "type": "bytes32"
                }
            ],
            "name": "addRole",
            "outputs": [],
            "stateMutability": "nonpayable",
            "type": "function"
        },
        {
            "inputs": [
                {
                    "internalType": "address",
                    "name": "_user",
                    "type": "address"
                }
            ],
            "name": "getRole",
            "outputs": [
                {
                    "internalType": "bytes32",
                    "name": "",
                    "type": "bytes32"
                },
                {
                    "internalType": "bytes32",
                    "name": "",
                    "type": "bytes32"
                }
            ],
            "stateMutability": "view",
            "type": "function",
            "constant": true
        },
        {
            "inputs": [
                {
                    "internalType": "address",
                    "name": "_manager",
                    "type": "address"
                },
                {
                    "internalType": "address",
                    "name": "_submanager",
                    "type": "address"
                },
                {
                    "internalType": "bytes32",
                    "name": "_country",
                    "type": "bytes32"
                },
                {
                    "internalType": "bytes32",
                    "name": "_role",
                    "type": "bytes32"
                },
                {
                    "internalType": "bytes32",
                    "name": "_hashedMessage",
                    "type": "bytes32"
                },
                {
                    "internalType": "uint8",
                    "name": "_v",
                    "type": "uint8"
                },
                {
                    "internalType": "bytes32",
                    "name": "_r",
                    "type": "bytes32"
                },
                {
                    "internalType": "bytes32",
                    "name": "_s",
                    "type": "bytes32"
                }
            ],
            "name": "removeRole",
            "outputs": [],
            "stateMutability": "nonpayable",
            "type": "function"
        },
        {
            "inputs": [
                {
                    "internalType": "address",
                    "name": "client",
                    "type": "address"
                },
                {
                    "internalType": "bytes32",
                    "name": "name",
                    "type": "bytes32"
                },
                {
                    "internalType": "bytes32",
                    "name": "surname",
                    "type": "bytes32"
                },
                {
                    "internalType": "bytes32",
                    "name": "country",
                    "type": "bytes32"
                },
                {
                    "internalType": "uint256",
                    "name": "status",
                    "type": "uint256"
                },
                {
                    "internalType": "bytes32",
                    "name": "_hashedMessage",
                    "type": "bytes32"
                },
                {
                    "internalType": "uint8",
                    "name": "_v",
                    "type": "uint8"
                },
                {
                    "internalType": "bytes32",
                    "name": "_r",
                    "type": "bytes32"
                },
                {
                    "internalType": "bytes32",
                    "name": "_s",
                    "type": "bytes32"
                }
            ],
            "name": "KycUpdate",
            "outputs": [],
            "stateMutability": "nonpayable",
            "type": "function"
        },
        {
            "inputs": [
                {
                    "internalType": "address",
                    "name": "client",
                    "type": "address"
                }
            ],
            "name": "getClientKYC",
            "outputs": [
                {
                    "internalType": "bytes32",
                    "name": "",
                    "type": "bytes32"
                },
                {
                    "internalType": "bytes32",
                    "name": "",
                    "type": "bytes32"
                },
                {
                    "internalType": "bytes32",
                    "name": "",
                    "type": "bytes32"
                },
                {
                    "internalType": "uint256",
                    "name": "",
                    "type": "uint256"
                }
            ],
            "stateMutability": "view",
            "type": "function",
            "constant": true
        },
        {
            "inputs": [
                {
                    "internalType": "address",
                    "name": "party",
                    "type": "address"
                }
            ],
            "name": "getTransferAgent",
            "outputs": [
                {
                    "internalType": "bytes32",
                    "name": "",
                    "type": "bytes32"
                }
            ],
            "stateMutability": "view",
            "type": "function",
            "constant": true
        }
    ],
    "bytecode": "0x608060405234801561001057600080fd5b50600080546001600160a01b0319163390811782556040519091907f8be0079c531659141344cd1fd0a4f28419497f9722a3daafe3b4186f6b6457e0908290a361128f8061005f6000396000f3fe608060405234801561001057600080fd5b50600436106100a95760003560e01c80638d0cbe91116100715780638d0cbe91146101b45780638da5cb5b1461020c578063a0f7d42014610230578063c4d66de814610186578063e639e9a21461027c578063f2fde38b146102d7576100a9565b8063055f5540146100ae57806344276733146100e657806348566e1d146101255780636c19e78314610186578063715018a6146101ac575b600080fd5b6100d4600480360360208110156100c457600080fd5b50356001600160a01b03166102fd565b60408051918252519081900360200190f35b61010c600480360360208110156100fc57600080fd5b50356001600160a01b031661032b565b6040805192835260208301919091528051918290030190f35b610184600480360361012081101561013c57600080fd5b506001600160a01b03813581169160208101359091169060408101359060608101359060808101359060a08101359060ff60c0820135169060e0810135906101000135610463565b005b6101846004803603602081101561019c57600080fd5b50356001600160a01b03166107d8565b610184610818565b61018460048036036101008110156101cb57600080fd5b506001600160a01b03813581169160208101359091169060408101359060608101359060808101359060ff60a0820135169060c08101359060e0013561086e565b610214610bc6565b604080516001600160a01b039092168252519081900360200190f35b6102566004803603602081101561024657600080fd5b50356001600160a01b0316610bd5565b604080519485526020850193909352838301919091526060830152519081900360800190f35b610184600480360361012081101561029357600080fd5b506001600160a01b038135169060208101359060408101359060608101359060808101359060a08101359060ff60c0820135169060e0810135906101000135610c83565b610184600480360360208110156102ed57600080fd5b50356001600160a01b0316610ec4565b6001600160a01b03908116600090815260046020908152604080832054909316825260059052206003015490565b6001600160a01b0381166000908152600760205260408120548190801561041f57836001600160a01b03166006600183038154811061036657fe5b6000918252602090912001546001600160a01b0316141561041f57600560006006600184038154811061039557fe5b9060005260206000200160009054906101000a90046001600160a01b03166001600160a01b03166001600160a01b031681526020019081526020016000206002015460056000600660018503815481106103eb57fe5b60009182526020808320909101546001600160a01b03168352820192909252604001902060030154909350915061045e9050565b610427610bc6565b6001600160a01b0316846001600160a01b03161415610455576420b236b4b760d91b6000925092505061045e565b60008092509250505b915091565b60408051602080820187905281830183905260066060830152654c32746f4c3160d01b6080808401919091528351808403909101815260a0830184528051908201207f19457468657265756d205369676e6564204d6573736167653a0a33320000000060c084015260dc8084018290528451808503909101815260fc840180865281519184019190912060018054600090935261011c860180885282905260ff8a1661013c87015261015c860189905261017c86018890529551929590946001600160a01b0390921693909261019c80840193601f198301929081900390910190855afa158015610558573d6000803e3d6000fd5b505050602060405103516001600160a01b03161461057557600080fd5b876821bab9ba37b234b0b760b91b148061059357508761414d60f01b145b806105a257508761044560f41b145b806105b55750876512d650d0535360d21b145b6105be57600080fd5b6000805b60065481101561060b578b6001600160a01b0316600682815481106105e357fe5b6000918252602090912001546001600160a01b0316141561060357600191505b6001016105c2565b50806107ca5760068b9080600181540180825580915050600190039060005260206000200160009091909190916101000a8154816001600160a01b0302191690836001600160a01b03160217905550600680549050600760008d6001600160a01b03166001600160a01b03168152602001908152602001600020819055508b600560008d6001600160a01b03166001600160a01b0316815260200190815260200160002060000160006101000a8154816001600160a01b0302191690836001600160a01b0316021790555089600560008d6001600160a01b03166001600160a01b031681526020019081526020016000206001018190555088600560008d6001600160a01b03166001600160a01b031681526020019081526020016000206002018190555087600560008d6001600160a01b03166001600160a01b03168152602001908152602001600020600301819055508861044560f41b1415610774576107748b8b610f42565b604080516001600160a01b038e81168252602082018c90528183018d9052606082018b90529151918d16917fefc0db5f83f77f89452c2f94b82b44e255b3488e98d72feed0d80672ae36c8cc9181900360800190a25b505050505050505050505050565b6107f6336107e4610bc6565b6001600160a01b0316146101aa61101c565b600180546001600160a01b0319166001600160a01b0392909216919091179055565b610824336107e4610bc6565b600080546040516001600160a01b03909116907f8be0079c531659141344cd1fd0a4f28419497f9722a3daafe3b4186f6b6457e0908390a3600080546001600160a01b0319169055565b60408051602080820187905281830183905260066060830152654c32746f4c3160d01b6080808401919091528351808403909101815260a0830184528051908201207f19457468657265756d205369676e6564204d6573736167653a0a33320000000060c084015260dc8084018290528451808503909101815260fc840180865281519184019190912060018054600090935261011c860180885282905260ff8a1661013c87015261015c860189905261017c86018890529551929590946001600160a01b0390921693909261019c80840193601f198301929081900390910190855afa158015610963573d6000803e3d6000fd5b505050602060405103516001600160a01b03161461098057600080fd5b866821bab9ba37b234b0b760b91b148061099e57508661414d60f01b145b806109ad57508661044560f41b145b806109c05750866512d650d0535360d21b145b6109c957600080fd5b6001600160a01b0389166000908152600760205260409020548015610b5457896001600160a01b031660066001830381548110610a0257fe5b6000918252602090912001546001600160a01b0316148015610a5e5750876005600060066001850381548110610a3457fe5b60009182526020808320909101546001600160a01b03168352820192909252604001902060020154145b8015610aa45750886005600060066001850381548110610a7a57fe5b60009182526020808320909101546001600160a01b03168352820192909252604001902060010154145b8015610af657508a6001600160a01b03166005600060066001850381548110610ac957fe5b60009182526020808320909101546001600160a01b03908116845290830193909352604090910190205416145b15610b54576005600060066001840381548110610b0f57fe5b60009182526020808320909101546001600160a01b03168352820192909252604001812080546001600160a01b03191681556001810182905560028101829055600301555b8761044560f41b1415610b6b57610b6b8a8a61102e565b604080516001600160a01b038d81168252602082018b90528183018c90529151918c16917f2d599c6854d4b4c59b4e99fde5e3cb617739de62ed97ff059d0305bcba6c8aac9181900360600190a25050505050505050505050565b6000546001600160a01b031690565b6001546000908190819081906001600160a01b0316331480610bff5750336001600160a01b038616145b610c50576040805162461bcd60e51b815260206004820181905260248201527f556e617574686f72697a65642061636365737320746f20636865636b204b5943604482015290519081900360640190fd5b505050506001600160a01b0316600090815260026020819052604090912080546001820154600383015492909301549093565b60408051602080820187905281830183905260066060830152654c32746f4c3160d01b6080808401919091528351808403909101815260a0830184528051908201207f19457468657265756d205369676e6564204d6573736167653a0a33320000000060c084015260dc8084018290528451808503909101815260fc840180865281519184019190912060018054600090935261011c860180885282905260ff8a1661013c87015261015c860189905261017c86018890529551929590946001600160a01b0390921693909261019c80840193601f198301929081900390910190855afa158015610d78573d6000803e3d6000fd5b505050602060405103516001600160a01b031614610d9557600080fd5b89600260008d6001600160a01b03166001600160a01b031681526020019081526020016000206000018190555088600260008d6001600160a01b03166001600160a01b031681526020019081526020016000206001018190555086600260008d6001600160a01b03166001600160a01b031681526020019081526020016000206002018190555087600260008d6001600160a01b03166001600160a01b0316815260200190815260200160002060030181905550600360008981526020019081526020016000208b9080600181540180825580915050600190039060005260206000200160009091909190916101000a8154816001600160a01b0302191690836001600160a01b03160217905550610eb78b896518db1a595b9d60d21b61110c565b5050505050505050505050565b610ed0336107e4610bc6565b610ee76001600160a01b03821615156101ab61101c565b600080546040516001600160a01b03808516939216917f8be0079c531659141344cd1fd0a4f28419497f9722a3daafe3b4186f6b6457e091a3600080546001600160a01b0319166001600160a01b0392909216919091179055565b60005b6000828152600360205260409020548110156110175760008281526003602052604081208054600491839185908110610f7a57fe5b60009182526020808320909101546001600160a01b03908116845290830193909352604090910190205416141561100f578260046000600360008681526020019081526020016000208481548110610fce57fe5b6000918252602080832091909101546001600160a01b039081168452908301939093526040909101902080546001600160a01b031916929091169190911790555b600101610f45565b505050565b8161102a5761102a81611206565b5050565b60005b60008281526003602052604090205481101561101757826001600160a01b03166004600060036000868152602001908152602001600020848154811061107357fe5b60009182526020808320909101546001600160a01b03908116845290830193909352604090910190205416141561110457600082815260036020526040812080546004918391859081106110c357fe5b6000918252602080832091909101546001600160a01b039081168452908301939093526040909101902080546001600160a01b031916929091169190911790555b600101611031565b806518db1a595b9d60d21b14156110175760005b6006548110156112005782600560006006848154811061113c57fe5b60009182526020808320909101546001600160a01b031683528201929092526040019020600101541480156111ad5750600560006006838154811061117d57fe5b60009182526020808320909101546001600160a01b0316835282019290925260400190206002015461044560f41b145b156111f857600681815481106111bf57fe5b60009182526020808320909101546001600160a01b0387811684526004909252604090922080546001600160a01b031916919092161790555b600101611120565b50505050565b62461bcd60e51b6000908152602060045260076024526642414c23000030600a808404818106603090810160081b95839006959095019082900491820690940160101b939093010160c81b604452606490fdfea2646970667358221220ff5fddc545fcc65319ff6882e3e7fd7d3e1b3386e0d81f85a2ee7106b679daee64736f6c63430007010033",
    "immutableReferences": {},
    "source": "// Verified managers\r\n// (c) Kallol Borah, Verified Network, 2021\r\n\r\n//\"SPDX-License-Identifier: UNLICENSED\"\r\n\r\npragma solidity ^0.7.1;\r\n\r\nimport \"./interfaces/VerifiedClient.sol\";\r\nimport '@balancer-labs/v2-solidity-utils/contracts/openzeppelin/Ownable.sol';\r\n\r\ncontract Client is VerifiedClient, Ownable {\r\n    \r\n    //bridge\r\n    address bridge;\r\n\r\n    struct role{\r\n        address manager;\r\n        bytes32 country;\r\n        bytes32 role;\r\n        bytes32 id;\r\n    }\r\n\r\n    struct user{\r\n        bytes32 name;\r\n        bytes32 surname;\r\n        uint256 kycstatus; //3 for pass, 1 for pending\r\n        bytes32 country;\r\n    }\r\n\r\n    //mapping of client address to user attributes\r\n    mapping(address => user) private clients;\r\n\r\n    //storing users for each country\r\n    mapping(bytes32 => address[]) private usersbyCountry;\r\n\r\n    //mapping of client to manager\r\n    mapping(address => address) private managers;\r\n\r\n    //mapping of a manager to its sub managers\r\n    mapping(address=> role) private roles;\r\n\r\n    //storing submanagers\r\n    address[] submanagers;\r\n\r\n    //submanager index\r\n    mapping(address => uint256) private managerIndex;\r\n\r\n    event ManagerAdded(address manager, address indexed submanager, bytes32 role, bytes32 country, bytes32 managerId);\r\n    event ManagerRemoved(address manager, address indexed submanager, bytes32 role, bytes32 country);\r\n\r\n    function initialize(address _signer) onlyOwner public {\r\n        bridge = _signer;\r\n    }\r\n\r\n    function setSigner(address _signer) onlyOwner override external{\r\n        bridge = _signer;\r\n    }\r\n    \r\n    function addRole(address _manager, address _submanager, bytes32 _country, bytes32 _role, bytes32 _id, bytes32 _hashedMessage, uint8 _v, bytes32 _r, bytes32 _s) \r\n                            override external {\r\n        bytes32 payloadHash = keccak256(abi.encode(_hashedMessage, \"L2toL1\"));\r\n        bytes32 messageHash = keccak256(abi.encodePacked(\"\\x19Ethereum Signed Message:\\n32\", payloadHash));\r\n        require(ecrecover(messageHash, _v, _r, _s)== bridge);\r\n        require(_role==\"Custodian\" || _role==\"AM\" || _role==\"DP\" || _role==\"KYCAML\");\r\n        bool found = false;\r\n        for(uint256 i=0; i<submanagers.length; i++){\r\n            if(submanagers[i]==_submanager)\r\n                found = true;\r\n        }\r\n        if(!found){\r\n            submanagers.push(_submanager);\r\n            managerIndex[_submanager] = submanagers.length;\r\n            roles[_submanager].manager = _manager;\r\n            roles[_submanager].country = _country;\r\n            roles[_submanager].role = _role;\r\n            roles[_submanager].id = _id;\r\n            if(_role==\"DP\")\r\n                assignManagerToUser(_submanager, _country);\r\n            emit ManagerAdded(_manager, _submanager, _role, _country, _id);\r\n        }\r\n    }\r\n\r\n    function getRole(address _user) override external view returns(bytes32, bytes32){\r\n        uint256 position = managerIndex[_user];\r\n        if(position>0){\r\n            if(submanagers[position-1]==_user){\r\n                return (roles[submanagers[position-1]].role, roles[submanagers[position-1]].id);\r\n            }\r\n        }\r\n        if(_user==owner())\r\n            return (\"Admin\",\"\");\r\n        else\r\n            return (\"\",\"\");\r\n    }\r\n\r\n    function removeRole(address _manager, address _submanager, bytes32 _country, bytes32 _role, bytes32 _hashedMessage, uint8 _v, bytes32 _r, bytes32 _s) \r\n                            override external {\r\n        bytes32 payloadHash = keccak256(abi.encode(_hashedMessage, \"L2toL1\"));\r\n        bytes32 messageHash = keccak256(abi.encodePacked(\"\\x19Ethereum Signed Message:\\n32\", payloadHash));\r\n        require(ecrecover(messageHash, _v, _r, _s)== bridge);\r\n        require(_role==\"Custodian\" || _role==\"AM\" || _role==\"DP\" || _role==\"KYCAML\");\r\n        uint256 position = managerIndex[_submanager];\r\n        if(position>0){\r\n            if( submanagers[position-1]==_submanager &&\r\n                roles[submanagers[position-1]].role==_role && \r\n                roles[submanagers[position-1]].country==_country &&\r\n                roles[submanagers[position-1]].manager==_manager){\r\n                delete(roles[submanagers[position-1]]);\r\n            }\r\n        }\r\n        if(_role==\"DP\")\r\n            unassignManagerFromUser(_submanager, _country);\r\n        emit ManagerRemoved(_manager, _submanager, _role, _country);\r\n    }\r\n\r\n    function KycUpdate(address client, bytes32 name, bytes32 surname, bytes32 country, uint status, bytes32 _hashedMessage, uint8 _v, bytes32 _r, bytes32 _s) override external {\r\n        bytes32 payloadHash = keccak256(abi.encode(_hashedMessage, \"L2toL1\"));\r\n        bytes32 messageHash = keccak256(abi.encodePacked(\"\\x19Ethereum Signed Message:\\n32\", payloadHash));\r\n        require(ecrecover(messageHash, _v, _r, _s)== bridge);\r\n        clients[client].name = name;\r\n        clients[client].surname = surname;\r\n        clients[client].kycstatus = status;\r\n        clients[client].country = country;\r\n        usersbyCountry[country].push(client);\r\n        matchManagerToClient(client, country, \"client\");\r\n    }\r\n\r\n    function getClientKYC(address client) override external view returns(bytes32, bytes32, bytes32, uint256){\r\n        require(msg.sender==bridge || msg.sender==client, \"Unauthorized access to check KYC\");\r\n        return (clients[client].name, clients[client].surname, clients[client].country, clients[client].kycstatus);\r\n    }\r\n\r\n    function matchManagerToClient(address client, bytes32 country, bytes32 userRole) private {\r\n        if(userRole==\"client\"){\r\n            for(uint256 i=0; i<submanagers.length; i++){\r\n                if(roles[submanagers[i]].country==country && roles[submanagers[i]].role==\"DP\"){\r\n                    managers[client] = submanagers[i];\r\n                }\r\n            }\r\n        }\r\n    }\r\n\r\n    function unassignManagerFromUser(address _submanager, bytes32 _country) private {\r\n        for(uint256 i=0; i<usersbyCountry[_country].length; i++){\r\n            if(managers[usersbyCountry[_country][i]]==_submanager)\r\n                managers[usersbyCountry[_country][i]] = address(0x0);\r\n        }\r\n    }\r\n\r\n    function assignManagerToUser(address _submanager, bytes32 _country) private {\r\n        for(uint256 i=0; i<usersbyCountry[_country].length; i++){\r\n            if(managers[usersbyCountry[_country][i]]==address(0x0))\r\n                managers[usersbyCountry[_country][i]] = _submanager;\r\n        }\r\n    }\r\n\r\n    /**\r\n        Gets transfer agent for any of the parties in the trade\r\n        @param  party         reference to the party or counterparty in a trade\r\n     */\r\n    function getTransferAgent(address party) override external view returns(bytes32){\r\n        return(roles[managers[party]].id);\r\n    }\r\n\r\n}",
    "sourcePath": "D:\\Code\\verified-balancer\\contracts\\Client.sol",
    "compiler": {
        "name": "solc",
        "version": "0.7.1+commit.f4a555be.Emscripten.clang"
    },
    "schemaVersion": "3.4.3",
    "updatedAt": "2023-01-03T08:50:49.143Z",
    "networkType": "ethereum",
    "devdoc": {
        "kind": "dev",
        "methods": {
            "getTransferAgent(address)": {
                "params": {
                    "party": "reference to the party or counterparty in a trade"
                }
            },
            "owner()": {
                "details": "Returns the address of the current owner."
            },
            "renounceOwnership()": {
                "details": "Leaves the contract without owner. It will not be possible to call `onlyOwner` functions anymore. Can only be called by the current owner. NOTE: Renouncing ownership will leave the contract without an owner, thereby removing any functionality that is only available to the owner."
            },
            "transferOwnership(address)": {
                "details": "Transfers ownership of the contract to a new account (`newOwner`). Can only be called by the current owner."
            }
        },
        "version": 1
    },
    "userdoc": {
        "kind": "user",
        "methods": {
            "getTransferAgent(address)": {
                "notice": "Gets transfer agent for any of the parties in the trade"
            }
        },
        "version": 1
    }
}