{
    "contractName": "Client",
    "abi": [
        {
            "anonymous": false,
            "inputs": [
                {
                    "indexed": false,
                    "internalType": "address",
                    "name": "manager",
                    "type": "address"
                },
                {
                    "indexed": true,
                    "internalType": "address",
                    "name": "submanager",
                    "type": "address"
                },
                {
                    "indexed": false,
                    "internalType": "bytes32",
                    "name": "role",
                    "type": "bytes32"
                },
                {
                    "indexed": false,
                    "internalType": "bytes32",
                    "name": "country",
                    "type": "bytes32"
                },
                {
                    "indexed": false,
                    "internalType": "bytes32",
                    "name": "managerId",
                    "type": "bytes32"
                }
            ],
            "name": "ManagerAdded",
            "type": "event"
        },
        {
            "anonymous": false,
            "inputs": [
                {
                    "indexed": false,
                    "internalType": "address",
                    "name": "manager",
                    "type": "address"
                },
                {
                    "indexed": true,
                    "internalType": "address",
                    "name": "submanager",
                    "type": "address"
                },
                {
                    "indexed": false,
                    "internalType": "bytes32",
                    "name": "role",
                    "type": "bytes32"
                },
                {
                    "indexed": false,
                    "internalType": "bytes32",
                    "name": "country",
                    "type": "bytes32"
                }
            ],
            "name": "ManagerRemoved",
            "type": "event"
        },
        {
            "anonymous": false,
            "inputs": [
                {
                    "indexed": true,
                    "internalType": "address",
                    "name": "previousOwner",
                    "type": "address"
                },
                {
                    "indexed": true,
                    "internalType": "address",
                    "name": "newOwner",
                    "type": "address"
                }
            ],
            "name": "OwnershipTransferred",
            "type": "event"
        },
        {
            "inputs": [],
            "name": "owner",
            "outputs": [
                {
                    "internalType": "address",
                    "name": "",
                    "type": "address"
                }
            ],
            "stateMutability": "view",
            "type": "function",
            "constant": true
        },
        {
            "inputs": [],
            "name": "renounceOwnership",
            "outputs": [],
            "stateMutability": "nonpayable",
            "type": "function"
        },
        {
            "inputs": [
                {
                    "internalType": "address",
                    "name": "newOwner",
                    "type": "address"
                }
            ],
            "name": "transferOwnership",
            "outputs": [],
            "stateMutability": "nonpayable",
            "type": "function"
        },
        {
            "inputs": [
                {
                    "internalType": "address",
                    "name": "_signer",
                    "type": "address"
                }
            ],
            "name": "initialize",
            "outputs": [],
            "stateMutability": "nonpayable",
            "type": "function"
        },
        {
            "inputs": [
                {
                    "internalType": "address",
                    "name": "_signer",
                    "type": "address"
                }
            ],
            "name": "setSigner",
            "outputs": [],
            "stateMutability": "nonpayable",
            "type": "function"
        },
        {
            "inputs": [
                {
                    "internalType": "address",
                    "name": "_manager",
                    "type": "address"
                },
                {
                    "internalType": "address",
                    "name": "_submanager",
                    "type": "address"
                },
                {
                    "internalType": "bytes32",
                    "name": "_country",
                    "type": "bytes32"
                },
                {
                    "internalType": "bytes32",
                    "name": "_role",
                    "type": "bytes32"
                },
                {
                    "internalType": "bytes32",
                    "name": "_id",
                    "type": "bytes32"
                },
                {
                    "internalType": "bytes32",
                    "name": "_hashedMessage",
                    "type": "bytes32"
                },
                {
                    "internalType": "uint8",
                    "name": "_v",
                    "type": "uint8"
                },
                {
                    "internalType": "bytes32",
                    "name": "_r",
                    "type": "bytes32"
                },
                {
                    "internalType": "bytes32",
                    "name": "_s",
                    "type": "bytes32"
                }
            ],
            "name": "addRole",
            "outputs": [],
            "stateMutability": "nonpayable",
            "type": "function"
        },
        {
            "inputs": [
                {
                    "internalType": "address",
                    "name": "_user",
                    "type": "address"
                }
            ],
            "name": "getRole",
            "outputs": [
                {
                    "internalType": "bytes32",
                    "name": "",
                    "type": "bytes32"
                },
                {
                    "internalType": "bytes32",
                    "name": "",
                    "type": "bytes32"
                }
            ],
            "stateMutability": "view",
            "type": "function",
            "constant": true
        },
        {
            "inputs": [
                {
                    "internalType": "address",
                    "name": "_manager",
                    "type": "address"
                },
                {
                    "internalType": "address",
                    "name": "_submanager",
                    "type": "address"
                },
                {
                    "internalType": "bytes32",
                    "name": "_country",
                    "type": "bytes32"
                },
                {
                    "internalType": "bytes32",
                    "name": "_role",
                    "type": "bytes32"
                },
                {
                    "internalType": "bytes32",
                    "name": "_hashedMessage",
                    "type": "bytes32"
                },
                {
                    "internalType": "uint8",
                    "name": "_v",
                    "type": "uint8"
                },
                {
                    "internalType": "bytes32",
                    "name": "_r",
                    "type": "bytes32"
                },
                {
                    "internalType": "bytes32",
                    "name": "_s",
                    "type": "bytes32"
                }
            ],
            "name": "removeRole",
            "outputs": [],
            "stateMutability": "nonpayable",
            "type": "function"
        }
    ],
    "bytecode": "0x608060405234801561001057600080fd5b50600080546001600160a01b0319163390811782556040519091907f8be0079c531659141344cd1fd0a4f28419497f9722a3daafe3b4186f6b6457e0908290a3610b338061005f6000396000f3fe608060405234801561001057600080fd5b50600436106100885760003560e01c80638d0cbe911161005b5780638d0cbe911461015b5780638da5cb5b146101b3578063c4d66de81461012d578063f2fde38b146101d757610088565b8063442767331461008d57806348566e1d146100cc5780636c19e7831461012d578063715018a614610153575b600080fd5b6100b3600480360360208110156100a357600080fd5b50356001600160a01b03166101fd565b6040805192835260208301919091528051918290030190f35b61012b60048036036101208110156100e357600080fd5b506001600160a01b03813581169160208101359091169060408101359060608101359060808101359060a08101359060ff60c0820135169060e081013590610100013561031e565b005b61012b6004803603602081101561014357600080fd5b50356001600160a01b0316610634565b61012b610674565b61012b600480360361010081101561017257600080fd5b506001600160a01b03813581169160208101359091169060408101359060608101359060808101359060ff60a0820135169060c08101359060e001356106ca565b6101bb610a0b565b604080516001600160a01b039092168252519081900360200190f35b61012b600480360360208110156101ed57600080fd5b50356001600160a01b0316610a1a565b6001600160a01b038116600090815260046020526040812054819080156102da57836001600160a01b03166003600183038154811061023857fe5b6000918252602090912001546001600160a01b031614156102da57600260006003600184038154811061026757fe5b60009182526020808320909101546001600160a01b0316835282019290925260400181206002908101546003805491939160001986019081106102a657fe5b60009182526020808320909101546001600160a01b0316835282019290925260400190206003015490935091506103199050565b6102e2610a0b565b6001600160a01b0316846001600160a01b03161415610310576420b236b4b760d91b60009250925050610319565b60008092509250505b915091565b60408051602080820187905281830183905260066060830152654c32746f4c3160d01b6080808401919091528351808403909101815260a0830184528051908201207f19457468657265756d205369676e6564204d6573736167653a0a33320000000060c084015260dc8084018290528451808503909101815260fc840180865281519184019190912060018054600090935261011c860180885282905260ff8a1661013c87015261015c860189905261017c86018890529551929590946001600160a01b0390921693909261019c80840193601f198301929081900390910190855afa158015610413573d6000803e3d6000fd5b505050602060405103516001600160a01b03161461043057600080fd5b876821bab9ba37b234b0b760b91b148061044e57508761414d60f01b145b8061045d57508761044560f41b145b806104705750876512d650d0535360d21b145b61047957600080fd5b60038a9080600181540180825580915050600190039060005260206000200160009091909190916101000a8154816001600160a01b0302191690836001600160a01b03160217905550600380549050600460008c6001600160a01b03166001600160a01b03168152602001908152602001600020819055508a600260008c6001600160a01b03166001600160a01b0316815260200190815260200160002060000160006101000a8154816001600160a01b0302191690836001600160a01b0316021790555088600260008c6001600160a01b03166001600160a01b031681526020019081526020016000206001018190555087600260008c6001600160a01b03166001600160a01b031681526020019081526020016000206002018190555086600260008c6001600160a01b03166001600160a01b0316815260200190815260200160002060030181905550896001600160a01b03167fefc0db5f83f77f89452c2f94b82b44e255b3488e98d72feed0d80672ae36c8cc8c8a8c8b60405180856001600160a01b0316815260200184815260200183815260200182815260200194505050505060405180910390a25050505050505050505050565b61065233610640610a0b565b6001600160a01b0316146101aa610a98565b600180546001600160a01b0319166001600160a01b0392909216919091179055565b61068033610640610a0b565b600080546040516001600160a01b03909116907f8be0079c531659141344cd1fd0a4f28419497f9722a3daafe3b4186f6b6457e0908390a3600080546001600160a01b0319169055565b60408051602080820187905281830183905260066060830152654c32746f4c3160d01b6080808401919091528351808403909101815260a0830184528051908201207f19457468657265756d205369676e6564204d6573736167653a0a33320000000060c084015260dc8084018290528451808503909101815260fc840180865281519184019190912060018054600090935261011c860180885282905260ff8a1661013c87015261015c860189905261017c86018890529551929590946001600160a01b0390921693909261019c80840193601f198301929081900390910190855afa1580156107bf573d6000803e3d6000fd5b505050602060405103516001600160a01b0316146107dc57600080fd5b866821bab9ba37b234b0b760b91b14806107fa57508661414d60f01b145b8061080957508661044560f41b145b8061081c5750866512d650d0535360d21b145b61082557600080fd5b6001600160a01b03891660009081526004602052604090205480156109b057896001600160a01b03166003600183038154811061085e57fe5b6000918252602090912001546001600160a01b03161480156108ba575087600260006003600185038154811061089057fe5b60009182526020808320909101546001600160a01b03168352820192909252604001902060020154145b801561090057508860026000600360018503815481106108d657fe5b60009182526020808320909101546001600160a01b03168352820192909252604001902060010154145b801561095257508a6001600160a01b0316600260006003600185038154811061092557fe5b60009182526020808320909101546001600160a01b03908116845290830193909352604090910190205416145b156109b057600260006003600184038154811061096b57fe5b60009182526020808320909101546001600160a01b03168352820192909252604001812080546001600160a01b03191681556001810182905560028101829055600301555b604080516001600160a01b038d81168252602082018b90528183018c90529151918c16917f2d599c6854d4b4c59b4e99fde5e3cb617739de62ed97ff059d0305bcba6c8aac9181900360600190a25050505050505050505050565b6000546001600160a01b031690565b610a2633610640610a0b565b610a3d6001600160a01b03821615156101ab610a98565b600080546040516001600160a01b03808516939216917f8be0079c531659141344cd1fd0a4f28419497f9722a3daafe3b4186f6b6457e091a3600080546001600160a01b0319166001600160a01b0392909216919091179055565b81610aa657610aa681610aaa565b5050565b62461bcd60e51b6000908152602060045260076024526642414c23000030600a808404818106603090810160081b95839006959095019082900491820690940160101b939093010160c81b604452606490fdfea2646970667358221220dd967b757b325a927c4833113ea4256f39ced2438c7ad4b113aa92a9c29c79f164736f6c63430007010033",
    "immutableReferences": {},
    "source": "// Verified managers\r\n// (c) Kallol Borah, Verified Network, 2021\r\n\r\n//\"SPDX-License-Identifier: UNLICENSED\"\r\n\r\npragma solidity ^0.7.1;\r\n\r\nimport \"./interfaces/VerifiedClient.sol\";\r\nimport '@balancer-labs/v2-solidity-utils/contracts/openzeppelin/Ownable.sol';\r\n\r\ncontract Client is VerifiedClient, Ownable {\r\n    \r\n    //bridge\r\n    address bridge;\r\n\r\n    struct role{\r\n        address manager;\r\n        bytes32 country;\r\n        bytes32 role;\r\n        bytes32 id;\r\n    }\r\n\r\n    //mapping of a manager to its sub managers\r\n    mapping(address=> role) private roles;\r\n\r\n    //storing submanagers\r\n    address[] submanagers;\r\n\r\n    //submanager index\r\n    mapping(address => uint256) private managerIndex;\r\n\r\n    event ManagerAdded(address manager, address indexed submanager, bytes32 role, bytes32 country, bytes32 managerId);\r\n    event ManagerRemoved(address manager, address indexed submanager, bytes32 role, bytes32 country);\r\n\r\n    function initialize(address _signer) onlyOwner public {\r\n        bridge = _signer;\r\n    }\r\n\r\n    function setSigner(address _signer) onlyOwner override external{\r\n        bridge = _signer;\r\n    }\r\n    \r\n    function addRole(address _manager, address _submanager, bytes32 _country, bytes32 _role, bytes32 _id, bytes32 _hashedMessage, uint8 _v, bytes32 _r, bytes32 _s) \r\n                            override external {\r\n        bytes32 payloadHash = keccak256(abi.encode(_hashedMessage, \"L2toL1\"));\r\n        bytes32 messageHash = keccak256(abi.encodePacked(\"\\x19Ethereum Signed Message:\\n32\", payloadHash));\r\n        require(ecrecover(messageHash, _v, _r, _s)== bridge);\r\n        require(_role==\"Custodian\" || _role==\"AM\" || _role==\"DP\" || _role==\"KYCAML\");\r\n        submanagers.push(_submanager);\r\n        managerIndex[_submanager] = submanagers.length;\r\n        roles[_submanager].manager = _manager;\r\n        roles[_submanager].country = _country;\r\n        roles[_submanager].role = _role;\r\n        roles[_submanager].id = _id;\r\n        emit ManagerAdded(_manager, _submanager, _role, _country, _id);\r\n    }\r\n\r\n    function getRole(address _user) override external view returns(bytes32, bytes32){\r\n        uint256 position = managerIndex[_user];\r\n        if(position>0){\r\n            if(submanagers[position-1]==_user){\r\n                return (roles[submanagers[position-1]].role, roles[submanagers[position-1]].id);\r\n            }\r\n        }\r\n        if(_user==owner())\r\n            return (\"Admin\",\"\");\r\n        else\r\n            return (\"\",\"\");\r\n    }\r\n\r\n    function removeRole(address _manager, address _submanager, bytes32 _country, bytes32 _role, bytes32 _hashedMessage, uint8 _v, bytes32 _r, bytes32 _s) \r\n                            override external {\r\n        bytes32 payloadHash = keccak256(abi.encode(_hashedMessage, \"L2toL1\"));\r\n        bytes32 messageHash = keccak256(abi.encodePacked(\"\\x19Ethereum Signed Message:\\n32\", payloadHash));\r\n        require(ecrecover(messageHash, _v, _r, _s)== bridge);\r\n        require(_role==\"Custodian\" || _role==\"AM\" || _role==\"DP\" || _role==\"KYCAML\");\r\n        uint256 position = managerIndex[_submanager];\r\n        if(position>0){\r\n            if( submanagers[position-1]==_submanager &&\r\n                roles[submanagers[position-1]].role==_role && \r\n                roles[submanagers[position-1]].country==_country &&\r\n                roles[submanagers[position-1]].manager==_manager){\r\n                delete(roles[submanagers[position-1]]);\r\n            }\r\n        }\r\n        emit ManagerRemoved(_manager, _submanager, _role, _country);\r\n    }\r\n\r\n}",
    "sourcePath": "D:\\Code\\verified-quorum\\balancer\\contracts\\Client.sol",
    "compiler": {
        "name": "solc",
        "version": "0.7.1+commit.f4a555be.Emscripten.clang"
    },
    "schemaVersion": "3.4.3",
    "updatedAt": "2022-06-16T19:07:01.122Z",
    "networkType": "ethereum",
    "devdoc": {
        "kind": "dev",
        "methods": {
            "owner()": {
                "details": "Returns the address of the current owner."
            },
            "renounceOwnership()": {
                "details": "Leaves the contract without owner. It will not be possible to call `onlyOwner` functions anymore. Can only be called by the current owner. NOTE: Renouncing ownership will leave the contract without an owner, thereby removing any functionality that is only available to the owner."
            },
            "transferOwnership(address)": {
                "details": "Transfers ownership of the contract to a new account (`newOwner`). Can only be called by the current owner."
            }
        },
        "version": 1
    },
    "userdoc": {
        "kind": "user",
        "methods": {},
        "version": 1
    }
}