{
    "contractName": "Vault",
    "abi": [
        {
            "constant": false,
            "inputs": [],
            "name": "renounceOwnership",
            "outputs": [],
            "payable": false,
            "stateMutability": "nonpayable",
            "type": "function"
        },
        {
            "constant": true,
            "inputs": [],
            "name": "owner",
            "outputs": [
                {
                    "name": "",
                    "type": "address"
                }
            ],
            "payable": false,
            "stateMutability": "view",
            "type": "function"
        },
        {
            "constant": true,
            "inputs": [],
            "name": "isOwner",
            "outputs": [
                {
                    "name": "",
                    "type": "bool"
                }
            ],
            "payable": false,
            "stateMutability": "view",
            "type": "function"
        },
        {
            "constant": false,
            "inputs": [
                {
                    "name": "sender",
                    "type": "address"
                }
            ],
            "name": "initialize",
            "outputs": [],
            "payable": false,
            "stateMutability": "nonpayable",
            "type": "function"
        },
        {
            "constant": false,
            "inputs": [
                {
                    "name": "newOwner",
                    "type": "address"
                }
            ],
            "name": "transferOwnership",
            "outputs": [],
            "payable": false,
            "stateMutability": "nonpayable",
            "type": "function"
        },
        {
            "inputs": [],
            "payable": false,
            "stateMutability": "nonpayable",
            "type": "constructor"
        },
        {
            "anonymous": false,
            "inputs": [
                {
                    "indexed": false,
                    "name": "creator",
                    "type": "bytes32"
                },
                {
                    "indexed": false,
                    "name": "participant",
                    "type": "bytes32"
                }
            ],
            "name": "NewParticipant",
            "type": "event"
        },
        {
            "anonymous": false,
            "inputs": [
                {
                    "indexed": false,
                    "name": "creator",
                    "type": "bytes32"
                },
                {
                    "indexed": false,
                    "name": "participant",
                    "type": "bytes32"
                },
                {
                    "indexed": false,
                    "name": "txid",
                    "type": "uint256"
                }
            ],
            "name": "NewTransaction",
            "type": "event"
        },
        {
            "anonymous": false,
            "inputs": [
                {
                    "indexed": false,
                    "name": "creator",
                    "type": "bytes32"
                },
                {
                    "indexed": false,
                    "name": "participant",
                    "type": "bytes32"
                },
                {
                    "indexed": false,
                    "name": "txid",
                    "type": "uint256"
                }
            ],
            "name": "SignTransaction",
            "type": "event"
        },
        {
            "anonymous": false,
            "inputs": [
                {
                    "indexed": false,
                    "name": "creator",
                    "type": "bytes32"
                },
                {
                    "indexed": false,
                    "name": "participant",
                    "type": "bytes32"
                },
                {
                    "indexed": false,
                    "name": "confirmation",
                    "type": "bool"
                }
            ],
            "name": "SignResponse",
            "type": "event"
        },
        {
            "anonymous": false,
            "inputs": [
                {
                    "indexed": true,
                    "name": "previousOwner",
                    "type": "address"
                },
                {
                    "indexed": true,
                    "name": "newOwner",
                    "type": "address"
                }
            ],
            "name": "OwnershipTransferred",
            "type": "event"
        },
        {
            "constant": false,
            "inputs": [
                {
                    "name": "_creator",
                    "type": "bytes32"
                },
                {
                    "name": "_id",
                    "type": "string"
                }
            ],
            "name": "createVault",
            "outputs": [],
            "payable": false,
            "stateMutability": "nonpayable",
            "type": "function"
        },
        {
            "constant": true,
            "inputs": [],
            "name": "getVaults",
            "outputs": [
                {
                    "name": "",
                    "type": "bytes32[]"
                }
            ],
            "payable": false,
            "stateMutability": "view",
            "type": "function"
        },
        {
            "constant": false,
            "inputs": [
                {
                    "name": "_creator",
                    "type": "bytes32"
                },
                {
                    "name": "_id",
                    "type": "string"
                },
                {
                    "name": "_transferee",
                    "type": "address"
                }
            ],
            "name": "transferVault",
            "outputs": [],
            "payable": false,
            "stateMutability": "nonpayable",
            "type": "function"
        },
        {
            "constant": true,
            "inputs": [
                {
                    "name": "_creator",
                    "type": "bytes32"
                },
                {
                    "name": "_pin",
                    "type": "string"
                }
            ],
            "name": "getCreator",
            "outputs": [
                {
                    "name": "",
                    "type": "string"
                }
            ],
            "payable": false,
            "stateMutability": "view",
            "type": "function"
        },
        {
            "constant": false,
            "inputs": [
                {
                    "name": "_creator",
                    "type": "bytes32"
                },
                {
                    "name": "_id",
                    "type": "string"
                },
                {
                    "name": "_participant",
                    "type": "bytes32"
                },
                {
                    "name": "_shard",
                    "type": "string"
                }
            ],
            "name": "addParticipant",
            "outputs": [],
            "payable": false,
            "stateMutability": "nonpayable",
            "type": "function"
        },
        {
            "constant": false,
            "inputs": [
                {
                    "name": "_creator",
                    "type": "bytes32"
                },
                {
                    "name": "_id",
                    "type": "string"
                },
                {
                    "name": "_participant",
                    "type": "bytes32"
                }
            ],
            "name": "removeParticipant",
            "outputs": [],
            "payable": false,
            "stateMutability": "nonpayable",
            "type": "function"
        },
        {
            "constant": false,
            "inputs": [
                {
                    "name": "_creator",
                    "type": "bytes32"
                },
                {
                    "name": "_id",
                    "type": "string"
                },
                {
                    "name": "_participant",
                    "type": "bytes32"
                },
                {
                    "name": "_pin",
                    "type": "string"
                },
                {
                    "name": "_confirmation",
                    "type": "bool"
                }
            ],
            "name": "confirmParticipant",
            "outputs": [],
            "payable": false,
            "stateMutability": "nonpayable",
            "type": "function"
        },
        {
            "constant": false,
            "inputs": [
                {
                    "name": "_creator",
                    "type": "bytes32"
                },
                {
                    "name": "_id",
                    "type": "string"
                },
                {
                    "name": "_minParticipants",
                    "type": "uint256"
                }
            ],
            "name": "defineQuorum",
            "outputs": [],
            "payable": false,
            "stateMutability": "nonpayable",
            "type": "function"
        },
        {
            "constant": false,
            "inputs": [
                {
                    "name": "_creator",
                    "type": "bytes32"
                },
                {
                    "name": "_id",
                    "type": "string"
                }
            ],
            "name": "promptSignatures",
            "outputs": [],
            "payable": false,
            "stateMutability": "nonpayable",
            "type": "function"
        },
        {
            "constant": false,
            "inputs": [
                {
                    "name": "_creator",
                    "type": "bytes32"
                },
                {
                    "name": "_id",
                    "type": "string"
                },
                {
                    "name": "_participant",
                    "type": "bytes32"
                },
                {
                    "name": "_tx",
                    "type": "uint256"
                },
                {
                    "name": "_pin",
                    "type": "string"
                }
            ],
            "name": "signTransaction",
            "outputs": [],
            "payable": false,
            "stateMutability": "nonpayable",
            "type": "function"
        },
        {
            "constant": true,
            "inputs": [
                {
                    "name": "_creator",
                    "type": "bytes32"
                },
                {
                    "name": "_id",
                    "type": "string"
                },
                {
                    "name": "_participant",
                    "type": "bytes32"
                },
                {
                    "name": "_txid",
                    "type": "uint256"
                }
            ],
            "name": "checkQuorum",
            "outputs": [
                {
                    "name": "",
                    "type": "bool"
                }
            ],
            "payable": false,
            "stateMutability": "view",
            "type": "function"
        },
        {
            "constant": true,
            "inputs": [
                {
                    "name": "_creator",
                    "type": "bytes32"
                },
                {
                    "name": "_id",
                    "type": "string"
                },
                {
                    "name": "_txid",
                    "type": "uint256"
                }
            ],
            "name": "getShards",
            "outputs": [
                {
                    "name": "",
                    "type": "string[]"
                }
            ],
            "payable": false,
            "stateMutability": "view",
            "type": "function"
        }
    ],
    "bytecode": "0x60806040523480156200001157600080fd5b5062000028336200002e60201b620011da1760201c565b620001bb565b600054610100900460ff1680620000505750620000506200013360201b60201c565b806200005f575060005460ff16155b620000a1576040517f08c379a000000000000000000000000000000000000000000000000000000000815260040162000098906200019a565b60405180910390fd5b600054610100900460ff16158015620000cd576000805460ff1961ff0019909116610100171660011790555b603380546001600160a01b0319166001600160a01b0384811691909117918290556040519116906000907f8be0079c531659141344cd1fd0a4f28419497f9722a3daafe3b4186f6b6457e0908290a380156200012f576000805461ff00191690555b5050565b303b1590565b600062000148602e83620001b2565b7f436f6e747261637420696e7374616e63652068617320616c726561647920626581527f656e20696e697469616c697a6564000000000000000000000000000000000000602082015260400192915050565b60208082528101620001ac8162000139565b92915050565b90815260200190565b61226f80620001cb6000396000f3fe608060405234801561001057600080fd5b506004361061010b5760003560e01c80638c4b3bcd116100a2578063c4d66de811610071578063c4d66de814610214578063d29da2a714610227578063dbcc0ef61461023a578063e70eedb01461024d578063f2fde38b146102605761010b565b80638c4b3bcd146101c45780638da5cb5b146101d75780638f32d59b146101ec578063b418cd88146101f45761010b565b806377180080116100de578063771800801461015e57806378632fb21461017e5780637c52c77a1461019e57806388a563a7146101b15761010b565b806320ffb7fb146101105780633136abd31461012557806344d00f8214610138578063715018a614610156575b600080fd5b61012361011e366004611c61565b610273565b005b610123610133366004611a3e565b61055b565b6101406106ad565b60405161014d91906120b3565b60405180910390f35b61012361070f565b61017161016c36600461197e565b610780565b60405161014d919061214e565b61019161018c366004611be3565b6108a4565b60405161014d91906120d5565b6101236101ac366004611b35565b610a7e565b6101236101bf366004611a9c565b610bfa565b6101236101d236600461197e565b610e07565b6101df610e91565b60405161014d91906120a5565b610191610ea0565b610207610202366004611a3e565b610ec6565b60405161014d91906120c4565b610123610222366004611958565b6111da565b61012361023536600461197e565b6112b0565b6101236102483660046119d4565b6114aa565b61012361025b366004611a3e565b61162f565b61012361026e366004611958565b6116f8565b8386868080601f016020809104026020016040519081016040528093929190818152602001838380828437600092019190915250506040516102bb9250839150602001612082565b60408051601f1981840301815282825280516020918201206000868152606883529290922091926102ed92910161208e565b604051602081830303815290604052805190602001201461032c57604051600160e51b62461bcd0281526004016103239061219f565b60405180910390fd5b838360405160200161033f929190612075565b60408051601f19818403018152828252805160209182012060008d8152606b83528381208b8252835292909220919261037992910161208e565b604051602081830303815290604052805190602001201461039957600080fd5b60005b60008a8152606e602052604090205481101561054f5760008a8152606e602052604090208054879190839081106103cf57fe5b90600052602060002090600202016000015414156105475760005b60008b8152606e6020526040902080548390811061040457fe5b90600052602060002090600202016001018054905081101561050a5760008b8152606e6020526040902080548991908490811061043d57fe5b9060005260206000209060020201600101828154811061045957fe5b9060005260206000200154141561046f5761050a565b60008b8152606e6020526040902080548390811061048957fe5b906000526020600020906002020160010181815481106104a557fe5b9060005260206000200154600014156105025760008b8152606e602052604090208054899190849081106104d557fe5b906000526020600020906002020160010182815481106104f157fe5b60009182526020909120015561050a565b6001016103ea565b507faff273650e3a4ea06a9841f55dd08ea83018f0c09836f109ccba14823e59de478a888860405161053e93929190612126565b60405180910390a15b60010161039c565b50505050505050505050565b8383838080601f016020809104026020016040519081016040528093929190818152602001838380828437600092019190915250506040516105a39250839150602001612082565b60408051601f1981840301815282825280516020918201206000868152606883529290922091926105d592910161208e565b604051602081830303815290604052805190602001201461060b57604051600160e51b62461bcd0281526004016103239061219f565b6000868152606a60209081526040808320868452909152902054156106a5576000868152606960209081526040808320606a8352818420878552909252909120548154811061065657fe5b60009182526020808320909101829055878252606c815260408083208684529091528120610683916117ba565b6000868152606b6020908152604080832086845290915281206106a5916117ba565b505050505050565b3360009081526067602090815260409182902080548351818402810184019094528084526060939283018282801561070457602002820191906000526020600020905b8154815260200190600101908083116106f0575b505050505090505b90565b610717610ea0565b61073657604051600160e51b62461bcd0281526004016103239061216f565b6033546040516000916001600160a01b0316907f8be0079c531659141344cd1fd0a4f28419497f9722a3daafe3b4186f6b6457e0908390a3603380546001600160a01b0319169055565b60608282604051602001610795929190612075565b60408051601f1981840301815282825280516020918201206000888152606b835283812083529290922091926107cc92910161208e565b604051602081830303815290604052805190602001201461080257604051600160e51b62461bcd0281526004016103239061218f565b60008481526068602090815260409182902080548351601f6002600019610100600186161502019093169290920491820184900484028101840190945280845290918301828280156108955780601f1061086a57610100808354040283529160200191610895565b820191906000526020600020905b81548152906001019060200180831161087857829003601f168201915b505050505090505b9392505050565b60008585858080601f016020809104026020016040519081016040528093929190818152602001838380828437600092019190915250506040516108ee9250839150602001612082565b60408051601f19818403018152828252805160209182012060008681526068835292909220919261092092910161208e565b604051602081830303815290604052805190602001201461095657604051600160e51b62461bcd0281526004016103239061219f565b6040516020016109659061209a565b60408051601f19818403018152828252805160209182012060008c8152606b83528381208a8252835292909220919261099f92910161208e565b6040516020818303038152906040528051906020012014156109c057600080fd5b6000805b60008a8152606e6020526040902054811015610a5c5760008a8152606e602052604090208054879190839081106109f757fe5b9060005260206000209060020201600001541415610a545760008a8152606d6020908152604080832054606e909252909120805483908110610a3557fe5b90600052602060002090600202016001018054905010610a5457600191505b6001016109c4565b508015610a6d576001935050610a73565b60009350505b505095945050505050565b8386868080601f01602080910402602001604051908101604052809392919081815260200183838082843760009201919091525050604051610ac69250839150602001612082565b60408051601f198184030181528282528051602091820120600086815260688352929092209192610af892910161208e565b6040516020818303038152906040528051906020012014610b2e57604051600160e51b62461bcd0281526004016103239061219f565b600089815260696020526040902054610b4657600080fd5b8215610bb2576000898152606b602090815260408083208984529091529020610b709086866117fe565b507f5472b7fef042e64eae80068ace4f2e4134b2b13f9f86ac9ae86640bae2b9030689876001604051610ba5939291906120fe565b60405180910390a1610bef565b7f5472b7fef042e64eae80068ace4f2e4134b2b13f9f86ac9ae86640bae2b9030689876000604051610be6939291906120fe565b60405180910390a15b505050505050505050565b8585858080601f01602080910402602001604051908101604052809392919081815260200183838082843760009201919091525050604051610c429250839150602001612082565b60408051601f198184030181528282528051602091820120600086815260688352929092209192610c7492910161208e565b6040516020818303038152906040528051906020012014610caa57604051600160e51b62461bcd0281526004016103239061219f565b8383604051602001610cbd929190612075565b60408051601f19818403018152828252805160209182012060008c8152606c83528381208a82528352929092209192610cf792910161208e565b6040516020818303038152906040528051906020012014610d38576000888152606c602090815260408083208884529091529020610d369085856117fe565b505b6000805b60008a815260696020526040902054811015610d8d5760008a8152606960205260409020805488919083908110610d6f57fe5b90600052602060002001541415610d8557600191505b600101610d3c565b50858914158015610d9c575080155b15610bef5760008981526069602081815260408084208054606a84528286208c875284528286208190559383526001840181558452922001879055517faa6e23bdac31ae314e8eec6a579fd0418f7b5f0bca74e9ef11e78373cec74dd590610be6908b9089906120e3565b60008381526069602052604090205415610e2057600080fd5b33600090815260676020908152604080832080546001810182559084528284200186905585835260689091529020610e599083836117fe565b50505060008181526069602081815260408084208054606a845282862084529185208290559282526001810183559183529091200155565b6033546001600160a01b031690565b6033546000906001600160a01b0316610eb761172b565b6001600160a01b031614905090565b60608484848080601f01602080910402602001604051908101604052809392919081815260200183838082843760009201919091525050604051610f109250839150602001612082565b60408051601f198184030181528282528051602091820120600086815260688352929092209192610f4292910161208e565b6040516020818303038152906040528051906020012014610f7857604051600160e51b62461bcd0281526004016103239061219f565b60005b6000888152606e60205260409020548110156111ce576000888152606e60205260409020805486919083908110610fae57fe5b90600052602060002090600202016000015414156111c6576000888152606d6020908152604080832054606e909252909120805483908110610fec57fe5b906000526020600020906002020160010180549050106111c6576000888152606e602052604090208054606091908390811061102457fe5b90600052602060002090600202016001018054905060405190808252806020026020018201604052801561106c57816020015b60608152602001906001900390816110575790505b50905060005b60008a8152606e6020526040902080548490811061108c57fe5b9060005260206000209060020201600101805490508110156111bc5760008a8152606c60209081526040808320606e90925282208054919291869081106110cf57fe5b906000526020600020906002020160010183815481106110eb57fe5b906000526020600020015481526020019081526020016000208054600181600116156101000203166002900480601f0160208091040260200160405190810160405280929190818152602001828054600181600116156101000203166002900480156111985780601f1061116d57610100808354040283529160200191611198565b820191906000526020600020905b81548152906001019060200180831161117b57829003601f168201915b50505050508282815181106111a957fe5b6020908102919091010152600101611072565b5093506111d09050565b600101610f7b565b505b5050949350505050565b600054610100900460ff16806111f357506111f361172f565b80611201575060005460ff16155b61122057604051600160e51b62461bcd0281526004016103239061217f565b600054610100900460ff1615801561124b576000805460ff1961ff0019909116610100171660011790555b603380546001600160a01b0319166001600160a01b0384811691909117918290556040519116906000907f8be0079c531659141344cd1fd0a4f28419497f9722a3daafe3b4186f6b6457e0908290a380156112ac576000805461ff00191690555b5050565b8282828080601f016020809104026020016040519081016040528093929190818152602001838380828437600092019190915250506040516112f89250839150602001612082565b60408051601f19818403018152828252805160209182012060008681526068835292909220919261132a92910161208e565b604051602081830303815290604052805190602001201461136057604051600160e51b62461bcd0281526004016103239061219f565b6000858152606960209081526040918290205482518181528183028101909201909252606091801561139c578160200160208202803883390190505b50905060665442146113ae57426113b5565b6066546001015b6066556113c061187c565b506040805180820182526066548152602080820184815260008a8152606e83529384208054600181810180845592875295849020855160029092020190815591518051949591948694611417938501920190611896565b506000925050505b6000888152606960205260409020548110156114a057600088815260696020526040902080547f7f8d3f14b960b3bcf34baea4b46178e331b54a33e565d7d50d77cdfe9e926fe8918a918490811061147357fe5b906000526020600020015460665460405161149093929190612126565b60405180910390a160010161141f565b5050505050505050565b8383838080601f016020809104026020016040519081016040528093929190818152602001838380828437600092019190915250506040516114f29250839150602001612082565b60408051601f19818403018152828252805160209182012060008681526068835292909220919261152492910161208e565b604051602081830303815290604052805190602001201461155a57604051600160e51b62461bcd0281526004016103239061219f565b6000805b336000908152606760205260409020548110156115d75733600090815260676020526040902080548991908390811061159357fe5b906000526020600020015414156115cf57336000908152606760205260409020805460019350829081106115c357fe5b60009182526020822001555b60010161155e565b506001811515146115fd57604051600160e51b62461bcd0281526004016103239061219f565b5050506001600160a01b0316600090815260676020908152604082208054600181018255908352912001929092555050565b8383838080601f016020809104026020016040519081016040528093929190818152602001838380828437600092019190915250506040516116779250839150602001612082565b60408051601f1981840301815282825280516020918201206000868152606883529290922091926116a992910161208e565b60405160208183030381529060405280519060200120146116df57604051600160e51b62461bcd0281526004016103239061219f565b50506000938452606d6020526040909320929092555050565b611700610ea0565b61171f57604051600160e51b62461bcd0281526004016103239061216f565b61172881611735565b50565b3390565b303b1590565b6001600160a01b03811661175e57604051600160e51b62461bcd0281526004016103239061215f565b6033546040516001600160a01b038084169216907f8be0079c531659141344cd1fd0a4f28419497f9722a3daafe3b4186f6b6457e090600090a3603380546001600160a01b0319166001600160a01b0392909216919091179055565b50805460018160011615610100020316600290046000825580601f106117e05750611728565b601f01602090049060005260206000209081019061172891906118d1565b828054600181600116156101000203166002900490600052602060002090601f016020900481019282601f1061183f5782800160ff1982351617855561186c565b8280016001018555821561186c579182015b8281111561186c578235825591602001919060010190611851565b506118789291506118d1565b5090565b604051806040016040528060008152602001606081525090565b82805482825590600052602060002090810192821561186c579160200282015b8281111561186c5782518255916020019190600101906118b6565b61070c91905b8082111561187857600081556001016118d7565b600061089d82356121d3565b600061089d82356121de565b600061089d823561070c565b60008083601f84011261192157600080fd5b50813567ffffffffffffffff81111561193957600080fd5b60208301915083600182028301111561195157600080fd5b9250929050565b60006020828403121561196a57600080fd5b600061197684846118eb565b949350505050565b60008060006040848603121561199357600080fd5b600061199f8686611903565b935050602084013567ffffffffffffffff8111156119bc57600080fd5b6119c88682870161190f565b92509250509250925092565b600080600080606085870312156119ea57600080fd5b60006119f68787611903565b945050602085013567ffffffffffffffff811115611a1357600080fd5b611a1f8782880161190f565b93509350506040611a32878288016118eb565b91505092959194509250565b60008060008060608587031215611a5457600080fd5b6000611a608787611903565b945050602085013567ffffffffffffffff811115611a7d57600080fd5b611a898782880161190f565b93509350506040611a3287828801611903565b60008060008060008060808789031215611ab557600080fd5b6000611ac18989611903565b965050602087013567ffffffffffffffff811115611ade57600080fd5b611aea89828a0161190f565b95509550506040611afd89828a01611903565b935050606087013567ffffffffffffffff811115611b1a57600080fd5b611b2689828a0161190f565b92509250509295509295509295565b600080600080600080600060a0888a031215611b5057600080fd5b6000611b5c8a8a611903565b975050602088013567ffffffffffffffff811115611b7957600080fd5b611b858a828b0161190f565b96509650506040611b988a828b01611903565b945050606088013567ffffffffffffffff811115611bb557600080fd5b611bc18a828b0161190f565b93509350506080611bd48a828b016118f7565b91505092959891949750929550565b600080600080600060808688031215611bfb57600080fd5b6000611c078888611903565b955050602086013567ffffffffffffffff811115611c2457600080fd5b611c308882890161190f565b94509450506040611c4388828901611903565b9250506060611c5488828901611903565b9150509295509295909350565b600080600080600080600060a0888a031215611c7c57600080fd5b6000611c888a8a611903565b975050602088013567ffffffffffffffff811115611ca557600080fd5b611cb18a828b0161190f565b96509650506040611cc48a828b01611903565b9450506060611cd58a828b01611903565b935050608088013567ffffffffffffffff811115611cf257600080fd5b611cfe8a828b0161190f565b925092505092959891949750929550565b6000611d1b8383611e06565b505060200190565b600061089d8383611e2e565b611d38816121d3565b82525050565b6000611d49826121c1565b611d5381856121c5565b9350611d5e836121af565b60005b82811015611d8957611d74868351611d0f565b9550611d7f826121af565b9150600101611d61565b5093949350505050565b6000611d9e826121c1565b611da881856121c5565b935083602082028501611dba856121af565b60005b84811015611df1578383038852611dd5838351611d23565b9250611de0826121af565b602098909801979150600101611dbd565b50909695505050505050565b611d38816121de565b611d388161070c565b6000611e1b83856121ce565b9350611e288385846121ef565b50500190565b6000611e39826121c1565b611e4381856121c5565b9350611e538185602086016121fb565b611e5c8161222b565b9093019392505050565b6000611e71826121c1565b611e7b81856121ce565b9350611e8b8185602086016121fb565b9290920192915050565b600081546001811660008114611eb25760018114611ed557611f14565b607f6002830416611ec381876121ce565b60ff1984168152955085019250611f14565b60028204611ee381876121ce565b9550611eee856121b5565b60005b82811015611f0d57815488820152600190910190602001611ef1565b5050850192505b505092915050565b6000611f296026836121c5565b7f4f776e61626c653a206e6577206f776e657220697320746865207a65726f20618152600160d01b6564647265737302602082015260400192915050565b6000611f746020836121c5565b7f4f776e61626c653a2063616c6c6572206973206e6f7420746865206f776e6572815260200192915050565b6000611fad602e836121c5565b7f436f6e747261637420696e7374616e63652068617320616c726561647920626581527f656e20696e697469616c697a6564000000000000000000000000000000000000602082015260400192915050565b600061200c6000836121ce565b92915050565b600061201f600b836121c5565b600160a91b6a24b73b30b634b2102824a702815260200192915050565b60006120496012836121c5565b7f4e6f7420612076616c6964207369676e65720000000000000000000000000000815260200192915050565b6000611976828486611e0f565b600061089d8284611e66565b600061089d8284611e95565b600061200c82611fff565b6020810161200c8284611d2f565b6020808252810161089d8184611d3e565b6020808252810161089d8184611d93565b6020810161200c8284611dfd565b604081016120f18285611e06565b61089d6020830184611e06565b6060810161210c8286611e06565b6121196020830185611e06565b6119766040830184611dfd565b606081016121348286611e06565b6121416020830185611e06565b6119766040830184611e06565b6020808252810161089d8184611e2e565b6020808252810161200c81611f1c565b6020808252810161200c81611f67565b6020808252810161200c81611fa0565b6020808252810161200c81612012565b6020808252810161200c8161203c565b60200190565b60009081526020902090565b5190565b90815260200190565b919050565b600061200c826121e3565b151590565b6001600160a01b031690565b82818337506000910152565b60005b838110156122165781810151838201526020016121fe565b83811115612225576000848401525b50505050565b601f01601f19169056fea265627a7a7230582059e084cfed1b5cd357e9f6cc50d6b470337d2258c6c62661e5c1a3c2bf51dd256c6578706572696d656e74616cf50037",
    "source": "// Implementation of the Verified custody vault\r\n// Manages accounts, participants and vault policies\r\n// (c) Kallol Borah, Verified Network, 2021\r\n\r\npragma solidity 0.5.7;\r\npragma experimental ABIEncoderV2;\r\n\r\nimport \"./IVault.sol\";\r\nimport \"@openzeppelin/contracts-ethereum-package/contracts/ownership/Ownable.sol\";\r\n\r\ncontract Vault is IVault, Ownable {\r\n\r\n    //counter for block timestamp nonce\r\n    uint256 private txid;\r\n\r\n    //mapping of signer address to creator bytes32 id\r\n    mapping(address => bytes32[]) private signers;\r\n\r\n    //mapping signer (its bytes32 ID, eg creator@vault.com) to its token (eg, Google/Apple push notification token)\r\n    mapping(bytes32 => string) private creators;\r\n\r\n    //creating vault by mapping its creator (bytes32 ID, eg, creator@vault.com) to participants (bytes32 IDs, eg, participant@email.com) in the vault\r\n    mapping(bytes32 => bytes32[]) private vaults;\r\n\r\n    //positional index of cosigners for vault. Mapping of vault creator to participant to its position\r\n    mapping(bytes32 => mapping(bytes32 => uint256)) private cosigners;\r\n\r\n    //mapping vault (bytes32 ID, eg creator@vault.com) to participants (bytes32 ID, eg, participant@email.com) to their pin (string)\r\n    mapping(bytes32 => mapping(bytes32 => string)) private pins;\r\n\r\n    //mapping vault (bytes32 ID, eg creator@vault.com) to participants (bytes32 ID, eg, participant@email.com) to their key shard (string)\r\n    mapping(bytes32 => mapping(bytes32 => string)) private shards;\r\n\r\n    //mapping vault (bytes32 ID, eg creator@vault.com) to number of minimum co-signers required for quorum (uint256)\r\n    mapping(bytes32 => uint256) private quorum;\r\n\r\n    //mapping vault (bytes32 ID, eg creator@vault.com) to transactions\r\n    mapping(bytes32 => transaction[]) private transactions;\r\n\r\n    //event that helps notify a participant to confirm PIN and shard\r\n    event NewParticipant(bytes32 creator, bytes32 participant);\r\n\r\n    //event that helps notify a participant to co-sign a transaction\r\n    event NewTransaction(bytes32 creator, bytes32 participant, uint256 txid);\r\n\r\n    //event that helps notify a creator that a transaction has been signed\r\n    event SignTransaction(bytes32 creator, bytes32 participant, uint256 txid);\r\n\r\n    //events signalling acceptance or rejection of co-signing requests\r\n    event SignResponse(bytes32 creator, bytes32 participant, bool confirmation);\r\n\r\n    // modifiers\r\n    modifier onlySigner(bytes32 _creator, string memory _id) {\r\n        require(keccak256(abi.encodePacked(creators[_creator])) == keccak256(abi.encodePacked(_id)), 'Not a valid signer');\r\n        _;\r\n    }\r\n\r\n    constructor() public{\r\n        Ownable.initialize(msg.sender);\r\n    }\r\n\r\n    /**\r\n        This function creates a vault for the creator\r\n        @param _creator vault creator's username, eg, creator@email.com\r\n        @param _id vault creator's unique id using which it can be reached, eg, its Google/APNS token\r\n     */\r\n    function createVault(bytes32 _creator, string calldata _id) external {\r\n        require(vaults[_creator].length==0);\r\n        signers[msg.sender].push(_creator);\r\n        creators[_creator] = _id;\r\n        cosigners[_creator][_creator] = vaults[_creator].length;\r\n        vaults[_creator].push(_creator);\r\n    }\r\n\r\n    /**\r\n        This function returns list of vault creators\r\n     */\r\n    function getVaults() external view returns(bytes32[] memory){\r\n        return signers[msg.sender];\r\n    }\r\n\r\n    /**\r\n        This function transfers a vault from the transferor (msg.sender) to transferee\r\n        @param  _creator    vault to transfer\r\n        @param _id          vault creator's unique id using which it can be reached, eg, its Google/APNS token\r\n        @param  _transferee address of the new vault operator\r\n     */\r\n    function transferVault(bytes32 _creator, string calldata _id, address _transferee) onlySigner(_creator, _id) external {\r\n        bool found = false;\r\n        for(uint i=0; i<signers[msg.sender].length; i++){\r\n            if(signers[msg.sender][i]==_creator){\r\n                found = true;\r\n                delete signers[msg.sender][i];\r\n            }\r\n        }\r\n        require(found==true, 'Not a valid signer');\r\n        signers[_transferee].push(_creator);\r\n    }\r\n\r\n    /**\r\n        This function returns the vault creator's unique ID (eg, Google/APNS messaging token)\r\n        @param _creator the vault creator (eg, creator@email.com)\r\n        @return the vault creator's unique ID\r\n     */\r\n    function getCreator(bytes32 _creator, string calldata _pin) external view returns(string memory){     \r\n        require(keccak256(abi.encodePacked(pins[_creator][_creator])) == keccak256(abi.encodePacked(_pin)), \"Invalid PIN\");   \r\n        return creators[_creator];        \r\n    }\r\n\r\n    /**\r\n        This function adds a participant to a vault that belongs to its creator\r\n        @param _creator vault creator's username, eg creator@email.com\r\n        @param _id vault creator's unique id using which it can be reached, eg, its Google/APNS token\r\n        @param _participant vault participant's username, eg participant@email.com\r\n        @param _shard the private key shard of the participant\r\n     */\r\n    function addParticipant(bytes32 _creator, string calldata _id, bytes32 _participant, string calldata _shard) onlySigner(_creator, _id) external {\r\n        //require(vaults[_participant].length>0); //participant does not have a vault yet\r\n        if(keccak256(abi.encodePacked(shards[_creator][_participant]))!=keccak256(abi.encodePacked(_shard)))\r\n            shards[_creator][_participant] = _shard;\r\n        bool present = false;\r\n        for(uint i=0; i<vaults[_creator].length; i++){\r\n            if(vaults[_creator][i]==_participant)\r\n                present = true;\r\n        }\r\n        if(_creator!=_participant && !present){\r\n            cosigners[_creator][_participant] = vaults[_creator].length;\r\n            vaults[_creator].push(_participant); \r\n            emit NewParticipant(_creator, _participant);\r\n        }\r\n    }\r\n\r\n    /**\r\n        This function removes a participant in a vault that belongs to its creator\r\n        @param _creator vault creator's username, eg creator@email.com\r\n        @param _id vault creator's unique id using which it can be reached, eg, its Google/APNS token\r\n        @param _participant vault participant's username, eg participant@email.com\r\n     */\r\n    function removeParticipant(bytes32 _creator, string calldata _id, bytes32 _participant) onlySigner(_creator, _id) external {\r\n        if(cosigners[_creator][_participant] > 0){\r\n            delete vaults[_creator][cosigners[_creator][_participant]];\r\n            delete shards[_creator][_participant];\r\n            delete pins[_creator][_participant];\r\n        }\r\n    } \r\n\r\n    /**\r\n        This function confirms a participant in the vault when the participant sends its private key shard and PIN\r\n        @param _creator the vault's creator (eg, creator@email.com)\r\n        @param _id vault creator's unique id using which it can be reached, eg, its Google/APNS token\r\n        @param _participant the vault's participant (eg, participant@email.com)\r\n        @param _pin the PIN number of the participant\r\n        @param _confirmation true or false\r\n     */\r\n    function confirmParticipant(bytes32 _creator, string calldata _id, bytes32 _participant, string calldata _pin, bool _confirmation) onlySigner(_participant, _id) external {\r\n        require(vaults[_creator].length>0);\r\n        if(_confirmation){\r\n            pins[_creator][_participant] = _pin;\r\n            emit SignResponse(_creator, _participant, true);\r\n        }\r\n        else\r\n           emit SignResponse(_creator, _participant, false); \r\n    }\r\n\r\n    /**\r\n        This function defines the number of participants required to co-sign a transaction\r\n        @param _creator the vault's creator (eg, creator@email.com)\r\n        @param _id vault creator's unique id using which it can be reached, eg, its Google/APNS token\r\n        @param _minParticipants the minimum number of co-signers\r\n     */\r\n    function defineQuorum(bytes32 _creator, string calldata _id, uint256 _minParticipants) onlySigner(_creator, _id) external {\r\n        quorum[_creator] = _minParticipants;\r\n    }\r\n\r\n    /**\r\n        This function prompts participants to co-sign a transaction on the vault (ie, the creator's address secured by the quorum of participants)\r\n        @param _creator the vault's creator (eg, creator@email.com)\r\n        @param _id vault creator's unique id using which it can be reached, eg, its Google/APNS token\r\n     */\r\n    function promptSignatures(bytes32 _creator, string calldata _id) onlySigner(_creator, _id) external {\r\n        bytes32[] memory cs = new bytes32[](vaults[_creator].length);\r\n        txid = block.timestamp == txid ? txid + 1 : block.timestamp;\r\n        transaction memory currentTx = transaction({\r\n            datetime : txid,\r\n            cosigners : cs\r\n        });\r\n        transactions[_creator].push(currentTx);\r\n        for(uint256 i=0; i<vaults[_creator].length; i++){\r\n            emit NewTransaction(_creator, vaults[_creator][i], txid);\r\n        }\r\n    }\r\n\r\n    /**\r\n        This function lets a participant co-sign a transaction\r\n        @param _creator the vault's creator (eg, creator@email.com)\r\n        @param _id vault creator's unique id using which it can be reached, eg, its Google/APNS token\r\n        @param _participant the vault's participant (eg, participant@email.com)\r\n        @param _tx transaction identifier\r\n        @param _pin the PIN number of the signer (participant)\r\n     */\r\n    function signTransaction(bytes32 _creator, string calldata _id, bytes32 _participant, uint256 _tx, string calldata _pin) onlySigner(_participant, _id) external {\r\n        require(keccak256(abi.encodePacked(pins[_creator][_participant]))==keccak256(abi.encodePacked(_pin)));\r\n        for(uint i=0; i<transactions[_creator].length; i++){\r\n            if(transactions[_creator][i].datetime==_tx){\r\n                for(uint j=0; j<transactions[_creator][i].cosigners.length; j++){\r\n                    if(transactions[_creator][i].cosigners[j]==_participant)\r\n                        break;\r\n                    if(transactions[_creator][i].cosigners[j]==\"\"){\r\n                        transactions[_creator][i].cosigners[j]=_participant;\r\n                        break;\r\n                    }\r\n                }\r\n                emit SignTransaction(_creator, _participant, _tx);\r\n            }\r\n        }\r\n    }\r\n\r\n    /**\r\n        This function lets the creator check if quorum has been achieved for a particular transaction\r\n        @param _creator vault creator's username, eg creator@email.com\r\n        @param _id vault creator's unique id using which it can be reached, eg, its Google/APNS token\r\n        @param _participant vault participant's username, eg participant@email.com\r\n        @param _txid transaction identifier\r\n     */\r\n    function checkQuorum(bytes32 _creator, string calldata _id, bytes32 _participant, uint256 _txid) onlySigner(_creator, _id) external view returns(bool){\r\n        require(keccak256(abi.encodePacked(pins[_creator][_participant]))!=keccak256(abi.encodePacked(\"\")));\r\n        bool _quorum = false;\r\n        for(uint i=0; i<transactions[_creator].length; i++){\r\n            if(transactions[_creator][i].datetime==_txid){\r\n                if(transactions[_creator][i].cosigners.length >= quorum[_creator])\r\n                    _quorum = true;\r\n            }\r\n        }\r\n        if(_quorum)\r\n            return true;\r\n        else\r\n            return false;\r\n    }\r\n    \r\n    /**\r\n        This function gets the shard for a participant\r\n        @param _creator vault creator's username, eg creator@email.com\r\n        @param _id vault creator's unique id using which it can be reached, eg, its Google/APNS token\r\n        @param _txid transaction identifier \r\n     */\r\n    function getShards(bytes32 _creator, string calldata _id, uint256 _txid) onlySigner(_creator, _id) external view returns(string[] memory){\r\n        for(uint i=0; i<transactions[_creator].length; i++){\r\n            if(transactions[_creator][i].datetime==_txid){\r\n                if(transactions[_creator][i].cosigners.length >= quorum[_creator]){\r\n                    string[] memory keyShards = new string[](transactions[_creator][i].cosigners.length);\r\n                    for(uint j=0; j<transactions[_creator][i].cosigners.length; j++){\r\n                        keyShards[j] = shards[_creator][transactions[_creator][i].cosigners[j]];                        \r\n                    }\r\n                    //delete transactions[_creator][i];\r\n                    return keyShards;\r\n                }\r\n            }\r\n        }\r\n    }\r\n\r\n}",
    "sourcePath": "D:\\Code\\verified-custody\\backend\\contracts\\Vault.sol",
    "compiler": {
        "name": "solc",
        "version": "0.5.7+commit.6da8b019.Emscripten.clang"
    },
    "schemaVersion": "3.4.3",
    "updatedAt": "2024-10-16T18:59:03.224Z",
    "networkType": "ethereum",
    "devdoc": {
        "methods": {
            "addParticipant(bytes32,string,bytes32,string)": {
                "params": {
                    "_creator": "vault creator's username, eg creator@email.com\r",
                    "_id": "vault creator's unique id using which it can be reached, eg, its Google/APNS token\r",
                    "_participant": "vault participant's username, eg participant@email.com\r",
                    "_shard": "the private key shard of the participant\r"
                }
            },
            "checkQuorum(bytes32,string,bytes32,uint256)": {
                "params": {
                    "_creator": "vault creator's username, eg creator@email.com\r",
                    "_id": "vault creator's unique id using which it can be reached, eg, its Google/APNS token\r",
                    "_participant": "vault participant's username, eg participant@email.com\r",
                    "_txid": "transaction identifier\r"
                }
            },
            "confirmParticipant(bytes32,string,bytes32,string,bool)": {
                "params": {
                    "_confirmation": "true or false\r",
                    "_creator": "the vault's creator (eg, creator@email.com)\r",
                    "_id": "vault creator's unique id using which it can be reached, eg, its Google/APNS token\r",
                    "_participant": "the vault's participant (eg, participant@email.com)\r",
                    "_pin": "the PIN number of the participant\r"
                }
            },
            "createVault(bytes32,string)": {
                "params": {
                    "_creator": "vault creator's username, eg, creator@email.com\r",
                    "_id": "vault creator's unique id using which it can be reached, eg, its Google/APNS token\r"
                }
            },
            "defineQuorum(bytes32,string,uint256)": {
                "params": {
                    "_creator": "the vault's creator (eg, creator@email.com)\r",
                    "_id": "vault creator's unique id using which it can be reached, eg, its Google/APNS token\r",
                    "_minParticipants": "the minimum number of co-signers\r"
                }
            },
            "getCreator(bytes32,string)": {
                "params": {
                    "_creator": "the vault creator (eg, creator@email.com)\r"
                },
                "return": "the vault creator's unique ID\r"
            },
            "getShards(bytes32,string,uint256)": {
                "params": {
                    "_creator": "vault creator's username, eg creator@email.com\r",
                    "_id": "vault creator's unique id using which it can be reached, eg, its Google/APNS token\r",
                    "_txid": "transaction identifier \r"
                }
            },
            "initialize(address)": {
                "details": "Initializes the contract setting the deployer as the initial owner."
            },
            "isOwner()": {
                "details": "Returns true if the caller is the current owner."
            },
            "owner()": {
                "details": "Returns the address of the current owner."
            },
            "promptSignatures(bytes32,string)": {
                "params": {
                    "_creator": "the vault's creator (eg, creator@email.com)\r",
                    "_id": "vault creator's unique id using which it can be reached, eg, its Google/APNS token\r"
                }
            },
            "removeParticipant(bytes32,string,bytes32)": {
                "params": {
                    "_creator": "vault creator's username, eg creator@email.com\r",
                    "_id": "vault creator's unique id using which it can be reached, eg, its Google/APNS token\r",
                    "_participant": "vault participant's username, eg participant@email.com\r"
                }
            },
            "renounceOwnership()": {
                "details": "Leaves the contract without owner. It will not be possible to call `onlyOwner` functions anymore. Can only be called by the current owner.     * > Note: Renouncing ownership will leave the contract without an owner, thereby removing any functionality that is only available to the owner."
            },
            "signTransaction(bytes32,string,bytes32,uint256,string)": {
                "params": {
                    "_creator": "the vault's creator (eg, creator@email.com)\r",
                    "_id": "vault creator's unique id using which it can be reached, eg, its Google/APNS token\r",
                    "_participant": "the vault's participant (eg, participant@email.com)\r",
                    "_pin": "the PIN number of the signer (participant)\r",
                    "_tx": "transaction identifier\r"
                }
            },
            "transferOwnership(address)": {
                "details": "Transfers ownership of the contract to a new account (`newOwner`). Can only be called by the current owner."
            },
            "transferVault(bytes32,string,address)": {
                "params": {
                    "_creator": "vault to transfer\r",
                    "_id": "vault creator's unique id using which it can be reached, eg, its Google/APNS token\r",
                    "_transferee": "address of the new vault operator\r"
                }
            }
        }
    },
    "userdoc": {
        "methods": {
            "addParticipant(bytes32,string,bytes32,string)": {
                "notice": "This function adds a participant to a vault that belongs to its creator\r"
            },
            "checkQuorum(bytes32,string,bytes32,uint256)": {
                "notice": "This function lets the creator check if quorum has been achieved for a particular transaction\r"
            },
            "confirmParticipant(bytes32,string,bytes32,string,bool)": {
                "notice": "This function confirms a participant in the vault when the participant sends its private key shard and PIN\r"
            },
            "createVault(bytes32,string)": {
                "notice": "This function creates a vault for the creator\r"
            },
            "defineQuorum(bytes32,string,uint256)": {
                "notice": "This function defines the number of participants required to co-sign a transaction\r"
            },
            "getCreator(bytes32,string)": {
                "notice": "This function returns the vault creator's unique ID (eg, Google/APNS messaging token)\r"
            },
            "getShards(bytes32,string,uint256)": {
                "notice": "This function gets the shard for a participant\r"
            },
            "getVaults()": {
                "notice": "This function returns list of vault creators\r"
            },
            "promptSignatures(bytes32,string)": {
                "notice": "This function prompts participants to co-sign a transaction on the vault (ie, the creator's address secured by the quorum of participants)\r"
            },
            "removeParticipant(bytes32,string,bytes32)": {
                "notice": "This function removes a participant in a vault that belongs to its creator\r"
            },
            "signTransaction(bytes32,string,bytes32,uint256,string)": {
                "notice": "This function lets a participant co-sign a transaction\r"
            },
            "transferVault(bytes32,string,address)": {
                "notice": "This function transfers a vault from the transferor (msg.sender) to transferee\r"
            }
        }
    }
}