{
    "contractName": "SecuritiesRegistry",
    "abi": [
        {
            "constant": true,
            "inputs": [
                {
                    "name": "_salt",
                    "type": "uint256"
                },
                {
                    "name": "_logic",
                    "type": "address"
                },
                {
                    "name": "_admin",
                    "type": "address"
                },
                {
                    "name": "_data",
                    "type": "bytes"
                },
                {
                    "name": "_signature",
                    "type": "bytes"
                }
            ],
            "name": "getSigner",
            "outputs": [
                {
                    "name": "",
                    "type": "address"
                }
            ],
            "payable": false,
            "stateMutability": "view",
            "type": "function"
        },
        {
            "constant": false,
            "inputs": [
                {
                    "name": "_salt",
                    "type": "uint256"
                },
                {
                    "name": "_logic",
                    "type": "address"
                },
                {
                    "name": "_admin",
                    "type": "address"
                },
                {
                    "name": "_data",
                    "type": "bytes"
                },
                {
                    "name": "_signature",
                    "type": "bytes"
                }
            ],
            "name": "deploySigned",
            "outputs": [
                {
                    "name": "",
                    "type": "address"
                }
            ],
            "payable": false,
            "stateMutability": "nonpayable",
            "type": "function"
        },
        {
            "constant": false,
            "inputs": [
                {
                    "name": "_salt",
                    "type": "uint256"
                },
                {
                    "name": "_logic",
                    "type": "address"
                },
                {
                    "name": "_admin",
                    "type": "address"
                },
                {
                    "name": "_data",
                    "type": "bytes"
                }
            ],
            "name": "deploy",
            "outputs": [
                {
                    "name": "",
                    "type": "address"
                }
            ],
            "payable": false,
            "stateMutability": "nonpayable",
            "type": "function"
        },
        {
            "constant": false,
            "inputs": [],
            "name": "renounceOwnership",
            "outputs": [],
            "payable": false,
            "stateMutability": "nonpayable",
            "type": "function"
        },
        {
            "constant": true,
            "inputs": [
                {
                    "name": "_salt",
                    "type": "uint256"
                },
                {
                    "name": "_sender",
                    "type": "address"
                }
            ],
            "name": "getDeploymentAddress",
            "outputs": [
                {
                    "name": "",
                    "type": "address"
                }
            ],
            "payable": false,
            "stateMutability": "view",
            "type": "function"
        },
        {
            "constant": true,
            "inputs": [],
            "name": "owner",
            "outputs": [
                {
                    "name": "",
                    "type": "address"
                }
            ],
            "payable": false,
            "stateMutability": "view",
            "type": "function"
        },
        {
            "constant": true,
            "inputs": [],
            "name": "isOwner",
            "outputs": [
                {
                    "name": "",
                    "type": "bool"
                }
            ],
            "payable": false,
            "stateMutability": "view",
            "type": "function"
        },
        {
            "constant": false,
            "inputs": [
                {
                    "name": "_logic",
                    "type": "address"
                },
                {
                    "name": "_data",
                    "type": "bytes"
                }
            ],
            "name": "deployMinimal",
            "outputs": [
                {
                    "name": "proxy",
                    "type": "address"
                }
            ],
            "payable": false,
            "stateMutability": "nonpayable",
            "type": "function"
        },
        {
            "constant": false,
            "inputs": [
                {
                    "name": "newOwner",
                    "type": "address"
                }
            ],
            "name": "transferOwnership",
            "outputs": [],
            "payable": false,
            "stateMutability": "nonpayable",
            "type": "function"
        },
        {
            "inputs": [],
            "payable": false,
            "stateMutability": "nonpayable",
            "type": "constructor"
        },
        {
            "anonymous": false,
            "inputs": [
                {
                    "indexed": true,
                    "name": "security",
                    "type": "address"
                },
                {
                    "indexed": false,
                    "name": "company",
                    "type": "bytes32"
                },
                {
                    "indexed": false,
                    "name": "isin",
                    "type": "bytes32"
                },
                {
                    "indexed": false,
                    "name": "currency",
                    "type": "bytes32"
                },
                {
                    "indexed": false,
                    "name": "issuer",
                    "type": "address"
                }
            ],
            "name": "SecurityCreated",
            "type": "event"
        },
        {
            "anonymous": false,
            "inputs": [
                {
                    "indexed": true,
                    "name": "security",
                    "type": "address"
                },
                {
                    "indexed": false,
                    "name": "company",
                    "type": "bytes32"
                },
                {
                    "indexed": false,
                    "name": "isin",
                    "type": "bytes32"
                },
                {
                    "indexed": false,
                    "name": "category",
                    "type": "string"
                },
                {
                    "indexed": false,
                    "name": "action",
                    "type": "string"
                }
            ],
            "name": "CorporateActionCreated",
            "type": "event"
        },
        {
            "anonymous": false,
            "inputs": [
                {
                    "indexed": false,
                    "name": "company",
                    "type": "bytes32"
                },
                {
                    "indexed": false,
                    "name": "isin",
                    "type": "bytes32"
                },
                {
                    "indexed": false,
                    "name": "score",
                    "type": "bytes32"
                }
            ],
            "name": "ReportCreditScore",
            "type": "event"
        },
        {
            "anonymous": false,
            "inputs": [
                {
                    "indexed": false,
                    "name": "proxy",
                    "type": "address"
                }
            ],
            "name": "ProxyCreated",
            "type": "event"
        },
        {
            "anonymous": false,
            "inputs": [
                {
                    "indexed": true,
                    "name": "previousOwner",
                    "type": "address"
                },
                {
                    "indexed": true,
                    "name": "newOwner",
                    "type": "address"
                }
            ],
            "name": "OwnershipTransferred",
            "type": "event"
        },
        {
            "constant": false,
            "inputs": [
                {
                    "name": "_viaFactory",
                    "type": "address"
                },
                {
                    "name": "_poolFactory",
                    "type": "address"
                },
                {
                    "name": "_preTradeContract",
                    "type": "address"
                },
                {
                    "name": "_tradeContract",
                    "type": "address"
                },
                {
                    "name": "_postTradeContract",
                    "type": "address"
                },
                {
                    "name": "_clientContract",
                    "type": "address"
                }
            ],
            "name": "initialize",
            "outputs": [],
            "payable": false,
            "stateMutability": "nonpayable",
            "type": "function"
        },
        {
            "constant": false,
            "inputs": [
                {
                    "name": "_issuer",
                    "type": "address"
                },
                {
                    "name": "_security",
                    "type": "address"
                },
                {
                    "name": "_currency",
                    "type": "bytes32"
                },
                {
                    "name": "_company",
                    "type": "bytes32"
                },
                {
                    "name": "_isin",
                    "type": "bytes32"
                },
                {
                    "name": "_settlementBy",
                    "type": "bytes32"
                },
                {
                    "name": "_itype",
                    "type": "bytes32"
                }
            ],
            "name": "createSecurity",
            "outputs": [],
            "payable": false,
            "stateMutability": "nonpayable",
            "type": "function"
        },
        {
            "constant": true,
            "inputs": [
                {
                    "name": "_currency",
                    "type": "bytes32"
                },
                {
                    "name": "_company",
                    "type": "bytes32"
                },
                {
                    "name": "_isin",
                    "type": "bytes32"
                }
            ],
            "name": "getToken",
            "outputs": [
                {
                    "name": "",
                    "type": "address"
                }
            ],
            "payable": false,
            "stateMutability": "view",
            "type": "function"
        },
        {
            "constant": true,
            "inputs": [],
            "name": "getSecuritiesIssued",
            "outputs": [
                {
                    "name": "",
                    "type": "address[]"
                }
            ],
            "payable": false,
            "stateMutability": "view",
            "type": "function"
        },
        {
            "constant": true,
            "inputs": [],
            "name": "getSecuritiesInvested",
            "outputs": [
                {
                    "name": "",
                    "type": "address[]"
                }
            ],
            "payable": false,
            "stateMutability": "view",
            "type": "function"
        },
        {
            "constant": true,
            "inputs": [
                {
                    "name": "_securityToken",
                    "type": "address"
                }
            ],
            "name": "getSecurityDetails",
            "outputs": [
                {
                    "components": [
                        {
                            "name": "company",
                            "type": "bytes32"
                        },
                        {
                            "name": "currency",
                            "type": "bytes32"
                        },
                        {
                            "name": "isin",
                            "type": "bytes32"
                        },
                        {
                            "name": "creditScore",
                            "type": "bytes32"
                        },
                        {
                            "name": "price",
                            "type": "bytes16"
                        },
                        {
                            "name": "issuer",
                            "type": "address"
                        },
                        {
                            "name": "productCategory",
                            "type": "bytes32"
                        }
                    ],
                    "name": "",
                    "type": "tuple"
                }
            ],
            "payable": false,
            "stateMutability": "view",
            "type": "function"
        },
        {
            "constant": false,
            "inputs": [
                {
                    "name": "_isin",
                    "type": "bytes32"
                }
            ],
            "name": "isIsinPresent",
            "outputs": [
                {
                    "name": "",
                    "type": "bool"
                }
            ],
            "payable": false,
            "stateMutability": "nonpayable",
            "type": "function"
        },
        {
            "constant": false,
            "inputs": [
                {
                    "name": "_category",
                    "type": "string"
                },
                {
                    "name": "_action",
                    "type": "string"
                },
                {
                    "name": "_isin",
                    "type": "bytes32"
                }
            ],
            "name": "registerCorporateAction",
            "outputs": [],
            "payable": false,
            "stateMutability": "nonpayable",
            "type": "function"
        },
        {
            "constant": false,
            "inputs": [
                {
                    "name": "_company",
                    "type": "bytes32"
                },
                {
                    "name": "_isin",
                    "type": "bytes32"
                },
                {
                    "name": "_score",
                    "type": "bytes32"
                }
            ],
            "name": "registerCreditScore",
            "outputs": [],
            "payable": false,
            "stateMutability": "nonpayable",
            "type": "function"
        },
        {
            "constant": false,
            "inputs": [
                {
                    "name": "_isin",
                    "type": "bytes32"
                },
                {
                    "name": "_price",
                    "type": "bytes16"
                },
                {
                    "name": "_transferor",
                    "type": "address"
                },
                {
                    "name": "_transferee",
                    "type": "address"
                }
            ],
            "name": "registerPrice",
            "outputs": [],
            "payable": false,
            "stateMutability": "nonpayable",
            "type": "function"
        },
        {
            "constant": true,
            "inputs": [
                {
                    "name": "_isin",
                    "type": "bytes32"
                },
                {
                    "name": "_category",
                    "type": "string"
                }
            ],
            "name": "getCorporateActions",
            "outputs": [
                {
                    "name": "",
                    "type": "string[]"
                }
            ],
            "payable": false,
            "stateMutability": "view",
            "type": "function"
        },
        {
            "constant": true,
            "inputs": [
                {
                    "name": "_isin",
                    "type": "bytes32"
                },
                {
                    "name": "_company",
                    "type": "bytes32"
                }
            ],
            "name": "getCreditScore",
            "outputs": [
                {
                    "name": "",
                    "type": "bytes32"
                }
            ],
            "payable": false,
            "stateMutability": "view",
            "type": "function"
        },
        {
            "constant": true,
            "inputs": [
                {
                    "name": "_isin",
                    "type": "bytes32"
                }
            ],
            "name": "getPrice",
            "outputs": [
                {
                    "name": "",
                    "type": "bytes16"
                }
            ],
            "payable": false,
            "stateMutability": "view",
            "type": "function"
        }
    ],
    "bytecode": "0x60806040523480156200001157600080fd5b50600062000024620000a460201b60201c565b600080546001600160a01b0319166001600160a01b0383169081178255604051929350917f8be0079c531659141344cd1fd0a4f28419497f9722a3daafe3b4186f6b6457e0908290a3506040516200007f60208201620000a8565b601f1982820381018352601f90910116604052805160209190910120600155620000b6565b3390565b6109a6806200321d83390190565b61315780620000c66000396000f3fe608060405234801561001057600080fd5b50600436106101425760003560e01c8063739c7b6d116100b85780639c3acea01161007c5780639c3acea014610299578063b3eeb5e2146102ac578063cc2a9a5b146102bf578063e6bfeec0146102d2578063efcfbbb6146102f2578063f2fde38b1461030557610142565b8063739c7b6d1461024e5780637cee11701461025657806381ae1f5b146102695780638da5cb5b1461027c5780638f32d59b1461028457610142565b80632df8d8fd1161010a5780632df8d8fd146101cd57806331d98b3f146101e0578063332d6626146102005780634da8ac56146102135780636150864c14610233578063715018a61461024657610142565b8063044037ca14610147578063238a37291461015c57806328123e971461016f578063290f8f56146101985780632b16068a146101b8575b600080fd5b61015a610155366004611da1565b610318565b005b61015a61016a366004611cfe565b610586565b61018261017d366004611c9e565b610663565b60405161018f91906124c1565b60405180910390f35b6101ab6101a6366004611ee2565b6106cb565b60405161018f9190612405565b6101c061071e565b60405161018f9190612483565b61015a6101db366004611b13565b61078a565b6101f36101ee366004611c1f565b610b3b565b60405161018f91906124b3565b6101ab61020e366004611ee2565b610b91565b610226610221366004611d4b565b610bd9565b60405161018f9190612494565b6101ab610241366004611e75565b610d27565b61015a610d41565b6101c0610db2565b61015a610264366004611c3d565b610e12565b6101ab610277366004611e45565b610f7a565b6101ab610fd5565b61028c610fe4565b60405161018f91906124a5565b6101ab6102a7366004611cfe565b611008565b6101ab6102ba366004611baf565b611062565b61015a6102cd366004611a8c565b611176565b6102e56102e0366004611a50565b61120c565b60405161018f9190612661565b61028c610300366004611c1f565b611291565b61015a610313366004611a50565b6112c3565b801580159061032657508315155b80156103b95750604051600160e11b63235ee54d02815273__stringutils___________________________906346bdca9a90610369908690869060040161260c565b60206040518083038186803b15801561038157600080fd5b505af4158015610395573d6000803e3d6000fd5b505050506040513d601f19601f820116820180604052506103b99190810190611c01565b6103c257600080fd5b600754604051600160e01b63442767330281526000916001600160a01b0316906344276733906103f6903390600401612413565b604080518083038186803b15801561040d57600080fd5b505afa158015610421573d6000803e3d6000fd5b505050506040513d601f19601f820116820180604052506104459190810190611cce565b506000838152600a60205260409020549091506001600160a01b0316801561057d576001600160a01b038116600090815260086020526040902060020154831480156104be57506001600160a01b03818116600090815260086020526040902060050154163314806104be575081600160f41b61044502145b1561057d576001600160a01b0381166000908152600b60205260409081902090516104ec908990899061235d565b9081526040516020918190038201902080546001810180835560009283529290912061051a9101878761188a565b50506001600160a01b03811660008181526008602052604090819020805460029091015491517ff9dbb0f8084d50cd63bd76143f0ce0d1011d6aedb10e487503fc1fa9a3d2889f9261057492918c908c908c908c90612594565b60405180910390a25b50505050505050565b61058e610fe4565b6105b657604051600160e51b62461bcd0281526004016105ad90612651565b60405180910390fd5b821515806105c357508115155b80156105ce57508015155b6105d757600080fd5b816105f2576000838152600c60205260409020819055610623565b8115610623576000828152600a60209081526040808320546001600160a01b03168352600890915290206003018190555b7f75cc0f6e8b6e807b1ad0c39ab93c9469925135e9f0d33215accf4c3595ec31ff83838360405161065693929190612537565b60405180910390a1505050565b60008115158061067257508215155b61067b57600080fd5b8261069557506000818152600c60205260409020546106c5565b82156106c557506000828152600a60209081526040808320546001600160a01b0316835260089091529020600301545b92915050565b60008061070587878787306040516020016106ea9594939291906123b0565b604051602081830303815290604052805190602001206112f6565b90506107118184611326565b9150505b95945050505050565b336000908152600d602090815260409182902080548351818402810184019094528084526060939283018282801561077f57602002820191906000526020600020905b81546001600160a01b03168152600190910190602001808311610761575b505050505090505b90565b6004546001600160a01b031633148061082b57506107a6610fd5565b6001600160a01b0316336001600160a01b031663893d20e86040518163ffffffff1660e01b815260040160206040518083038186803b1580156107e857600080fd5b505afa1580156107fc573d6000803e3d6000fd5b505050506040513d601f19601f820116820180604052506108209190810190611a6e565b6001600160a01b0316145b61083457600080fd5b600254604051600160e21b633cd163c50281526000916001600160a01b03169063f3458f14906108689089906004016125d7565b60206040518083038186803b15801561088057600080fd5b505afa158015610894573d6000803e3d6000fd5b505050506040513d601f19601f820116820180604052506108b89190810190611a6e565b90506001600160a01b0381166108cd57600080fd5b6108d8858786611402565b610b3157600454600554600654600754606093899389936001600160a01b039283169391831692908116911661090c610fd5565b60405160240161092297969594939291906124cf565b60408051601f198184030181529190526020810180516001600160e01b0316600160e11b63761a0435021790529050600061095d8983611062565b9050806001600160a01b03167f3503084d928e8dddbaa7c0cefb7db1677b12f85b14227e33cddb27b18d383e0288888b8e60405161099e949392919061255f565b60405180910390a26040518060e00160405280888152602001898152602001878152602001600160e01b636e6f6e650281526020016109dd6000611469565b6001600160801b031990811682526001600160a01b03808e166020808501919091526040938401899052858216600081815260088352858120875181558784015160018083019190915588880151600283015560608901516003808401919091556080808b0151600480860180549290931c91909a1617905560a08a01516005840180549189166001600160a01b031992831617905560c0909a01516006909301929092558e8352600a90945286822080548916841790556009805494850181559091527f6e1540171b6c0c960b71a7020d9f60077f6af931a8bbf590da0223dacf75c7af90920180549096161790945592549151600160e11b635ca76fdf028152919092169163b94edfbe91610afc91859188918e918c9101612421565b600060405180830381600087803b158015610b1657600080fd5b505af1158015610b2a573d6000803e3d6000fd5b5050505050505b5050505050505050565b600081610b4757600080fd5b6000828152600a60205260409020546001600160a01b03168015610b8a576001600160a01b031660009081526008602052604090206004015460801b9050610b8c565b505b919050565b600080610ba187878787876106cb565b90506001600160a01b038116610bcc57604051600160e51b62461bcd0281526004016105ad90612641565b61071187878787856114d5565b60608315801590610be957508115155b610bf257600080fd5b6000848152600a60205260409020546001600160a01b03168015610d1e576001600160a01b0381166000908152600b6020526040908190209051610c39908690869061235d565b9081526020016040518091039020805480602002602001604051908101604052809291908181526020016000905b82821015610d125760008481526020908190208301805460408051601f6002600019610100600187161502019094169390930492830185900485028101850190915281815292830182828015610cfe5780601f10610cd357610100808354040283529160200191610cfe565b820191906000526020600020905b815481529060010190602001808311610ce157829003601f168201915b505050505081526020019060010190610c67565b50505050915050610d20565b505b9392505050565b6000610d3685858585336114d5565b90505b949350505050565b610d49610fe4565b610d6857604051600160e51b62461bcd0281526004016105ad90612651565b600080546040516001600160a01b03909116907f8be0079c531659141344cd1fd0a4f28419497f9722a3daafe3b4186f6b6457e0908390a3600080546001600160a01b0319169055565b6060600980548060200260200160405190810160405280929190818152602001828054801561077f576020028201919060005260206000209081546001600160a01b03168152600190910190602001808311610761575050505050905090565b6006546001600160a01b03163314610e2957600080fd5b8315801590610e4d57506000610e4884610e436000611469565b61158a565b60000b135b610e5657600080fd5b6000848152600a60205260409020546001600160a01b03168015610f73576001600160a01b038281166000908152600d60209081526040808320805460018101825590845291832090910180546001600160a01b031916938516938417905551600160e01b6370a082310281529091906370a0823190610eda908790600401612405565b60206040518083038186803b158015610ef257600080fd5b505afa158015610f06573d6000803e3d6000fd5b505050506040513d601f19601f82011682018060405250610f2a9190810190611e27565b90508015610f71576001600160a01b038481166000908152600d602090815260408220805460018101825590835291200180546001600160a01b0319169184169190911790555b505b5050505050565b600080610f8784846116d3565b600154604051919250600091610fad916001600160f81b03199130918691602001612309565b60408051601f198184030181529190528051602090910120606090811b901c95945050505050565b6000546001600160a01b031690565b600080546001600160a01b0316610ff9611706565b6001600160a01b031614905090565b6000818152600a60209081526040808320546001600160a01b031680845260089092528220548414801561105657506001600160a01b03811660009081526008602052604090206001015485145b15610d1e579050610d20565b6000808360601b90506040517f3d602d80600a3d3981f3363d3d373d3d3d363d7300000000000000000000000081528160148201527f5af43d82803e903d91602b57fd5bf3000000000000000000000000000000000060288201526037816000f09250507efffc2da0b561cae30d9826d37709e9421c4725faebc226cbbb7ef5fc5e7349826040516110f49190612405565b60405180910390a182511561116f576000826001600160a01b03168460405161111d9190612351565b6000604051808303816000865af19150503d806000811461115a576040519150601f19603f3d011682016040523d82523d6000602084013e61115f565b606091505b505090508061116d57600080fd5b505b5092915050565b61117e610fe4565b61119d57604051600160e51b62461bcd0281526004016105ad90612651565b600280546001600160a01b03199081166001600160a01b0398891617909155600380548216968816969096179095556004805486169487169490941790935560058054851692861692909217909155600680548416918516919091179055600780549092169216919091179055565b611214611908565b506001600160a01b03908116600090815260086020908152604091829020825160e08101845281548152600182015492810192909252600281015492820192909252600382015460608201526004820154608090811b6001600160801b03191690820152600582015490921660a08301526006015460c082015290565b6000818152600a60205260408120546001600160a01b031680156112b9576001915050610b8c565b6000915050610b8c565b6112cb610fe4565b6112ea57604051600160e51b62461bcd0281526004016105ad90612651565b6112f38161170a565b50565b600081604051602001611309919061236a565b604051602081830303815290604052805190602001209050919050565b60008151604114611339575060006106c5565b60208201516040830151606084015160001a7f7fffffffffffffffffffffffffffffff5d576e7357a4501ddfe92f46681b20a082111561137f57600093505050506106c5565b8060ff16601b1415801561139757508060ff16601c14155b156113a857600093505050506106c5565b600186828585604051600081526020016040526040516113cb94939291906125f1565b6020604051602081039080840390855afa1580156113ed573d6000803e3d6000fd5b5050604051601f190151979650505050505050565b6000818152600a60209081526040808320546001600160a01b031680845260089092528220548514801561145057506001600160a01b03811660009081526008602052604090206001015484145b1561145f576001915050610d20565b6000915050610d20565b60008161147857506000610b8c565b8160006114848261178e565b9050607081101561149d578060700382901b91506114b0565b60708111156114b0576070810382901c91505b613fff0160701b6dffffffffffffffffffffffffffff919091161760801b9050610b8c565b6000806114e28784611831565b90507efffc2da0b561cae30d9826d37709e9421c4725faebc226cbbb7ef5fc5e7349816040516115129190612413565b60405180910390a1604051600160e01b63cf7a1d770281526001600160a01b0382169063cf7a1d779061154d90899089908990600401612456565b600060405180830381600087803b15801561156757600080fd5b505af115801561157b573d6000803e3d6000fd5b50929998505050505050505050565b600060016001607f1b03608084901c16600160701b617fff028111156115af57600080fd5b60016001607f1b03608084901c16600160701b617fff028111156115d257600080fd5b6001600160801b03198581169085161415806115fe5750600160701b617fff02826001600160801b0316105b61160757600080fd5b6001600160801b03198581169085161415611627576000925050506106c5565b60006001607f1b8660801c6001600160801b03161015905060006001607f1b8660801c6001600160801b031610159050811561169257801561168357826001600160801b0316846001600160801b031611611683576001611687565b6000195b9450505050506106c5565b80156116a55760019450505050506106c5565b826001600160801b0316846001600160801b0316116116c657600019611687565b60019450505050506106c5565b600082826040516020016116e892919061238a565b60405160208183030381529060405280519060200120905092915050565b3390565b6001600160a01b03811661173357604051600160e51b62461bcd0281526004016105ad90612631565b600080546040516001600160a01b03808516939216917f8be0079c531659141344cd1fd0a4f28419497f9722a3daafe3b4186f6b6457e091a3600080546001600160a01b0319166001600160a01b0392909216919091179055565b600080821161179c57600080fd5b6000600160801b83106117b157608092831c92015b6801000000000000000083106117c957604092831c92015b64010000000083106117dd57602092831c92015b6201000083106117ef57601092831c92015b610100831061180057600892831c92015b6010831061181057600492831c92015b6004831061182057600292831c92015b600283106106c55760010192915050565b60008060606040518060200161184690611944565b601f1982820381018352601f909101166040529050600061186786866116d3565b9050808251602084016000f59250823b61188057600080fd5b5090949350505050565b828054600181600116156101000203166002900490600052602060002090601f016020900481019282601f106118cb5782800160ff198235161785556118f8565b828001600101855582156118f8579182015b828111156118f85782358255916020019190600101906118dd565b50611904929150611951565b5090565b6040805160e081018252600080825260208201819052918101829052606081018290526080810182905260a0810182905260c081019190915290565b6109a68061277883390190565b61078791905b808211156119045760008155600101611957565b6000610d2082356126d1565b6000610d2082516126d1565b6000610d2082516126dc565b6000610d2082356126ee565b6000610d208235610787565b6000610d208251610787565b600082601f8301126119c457600080fd5b81356119d76119d282612696565b61266f565b915080825260208301602083018583830111156119f357600080fd5b6119fe83828461271e565b50505092915050565b60008083601f840112611a1957600080fd5b50813567ffffffffffffffff811115611a3157600080fd5b602083019150836001820283011115611a4957600080fd5b9250929050565b600060208284031215611a6257600080fd5b6000610d39848461196b565b600060208284031215611a8057600080fd5b6000610d398484611977565b60008060008060008060c08789031215611aa557600080fd5b6000611ab1898961196b565b9650506020611ac289828a0161196b565b9550506040611ad389828a0161196b565b9450506060611ae489828a0161196b565b9350506080611af589828a0161196b565b92505060a0611b0689828a0161196b565b9150509295509295509295565b600080600080600080600060e0888a031215611b2e57600080fd5b6000611b3a8a8a61196b565b9750506020611b4b8a828b0161196b565b9650506040611b5c8a828b0161199b565b9550506060611b6d8a828b0161199b565b9450506080611b7e8a828b0161199b565b93505060a0611b8f8a828b0161199b565b92505060c0611ba08a828b0161199b565b91505092959891949750929550565b60008060408385031215611bc257600080fd5b6000611bce858561196b565b925050602083013567ffffffffffffffff811115611beb57600080fd5b611bf7858286016119b3565b9150509250929050565b600060208284031215611c1357600080fd5b6000610d398484611983565b600060208284031215611c3157600080fd5b6000610d39848461199b565b60008060008060808587031215611c5357600080fd5b6000611c5f878761199b565b9450506020611c708782880161198f565b9350506040611c818782880161196b565b9250506060611c928782880161196b565b91505092959194509250565b60008060408385031215611cb157600080fd5b6000611cbd858561199b565b9250506020611bf78582860161199b565b60008060408385031215611ce157600080fd5b6000611ced85856119a7565b9250506020611bf7858286016119a7565b600080600060608486031215611d1357600080fd5b6000611d1f868661199b565b9350506020611d308682870161199b565b9250506040611d418682870161199b565b9150509250925092565b600080600060408486031215611d6057600080fd5b6000611d6c868661199b565b935050602084013567ffffffffffffffff811115611d8957600080fd5b611d9586828701611a07565b92509250509250925092565b600080600080600060608688031215611db957600080fd5b853567ffffffffffffffff811115611dd057600080fd5b611ddc88828901611a07565b9550955050602086013567ffffffffffffffff811115611dfb57600080fd5b611e0788828901611a07565b93509350506040611e1a8882890161199b565b9150509295509295909350565b600060208284031215611e3957600080fd5b6000610d3984846119a7565b60008060408385031215611e5857600080fd5b6000611e64858561199b565b9250506020611bf78582860161196b565b60008060008060808587031215611e8b57600080fd5b6000611e97878761199b565b9450506020611ea88782880161196b565b9350506040611eb98782880161196b565b925050606085013567ffffffffffffffff811115611ed657600080fd5b611c92878288016119b3565b600080600080600060a08688031215611efa57600080fd5b6000611f06888861199b565b9550506020611f178882890161196b565b9450506040611f288882890161196b565b935050606086013567ffffffffffffffff811115611f4557600080fd5b611f51888289016119b3565b925050608086013567ffffffffffffffff811115611f6e57600080fd5b611e1a888289016119b3565b6000611f868383611fa9565b505060200190565b6000610d2083836120ba565b611fa38161270d565b82525050565b611fa3816126d1565b611fa3611fbe826126d1565b612756565b6000611fce826126c4565b611fd881856126c8565b9350611fe3836126be565b60005b8281101561200e57611ff9868351611f7a565b9550612004826126be565b9150600101611fe6565b5093949350505050565b6000612023826126c4565b61202d81856126c8565b93508360208202850161203f856126be565b60005b8481101561207657838303885261205a838351611f8e565b9250612065826126be565b602098909801979150600101612042565b50909695505050505050565b611fa3816126dc565b611fa3816126ee565b611fa36120a0826126e1565b610787565b611fa381610787565b611fa36120a082610787565b60006120c5826126c4565b6120cf81856126c8565b93506120df81856020860161272a565b6120e881612767565b9093019392505050565b60006120fd826126c4565b6121078185610b8c565b935061211781856020860161272a565b9290920192915050565b600061212d83856126c8565b935061213a83858461271e565b6120e883612767565b600061214f8385610b8c565b935061215c83858461271e565b50500190565b600061216f601c83610b8c565b7f19457468657265756d205369676e6564204d6573736167653a0a3332000000008152601c0192915050565b60006121a86026836126c8565b7f4f776e61626c653a206e6577206f776e657220697320746865207a65726f20618152600160d01b6564647265737302602082015260400192915050565b600160cb1b660acd2c286c2e6d029052565b60006122056011836126c8565b7f496e76616c6964207369676e6174757265000000000000000000000000000000815260200192915050565b600061223e6020836126c8565b7f4f776e61626c653a2063616c6c6572206973206e6f7420746865206f776e6572815260200192915050565b60006106c56000836126c8565b805160e083019061228884826120a5565b50602082015161229b60208501826120a5565b5060408201516122ae60408501826120a5565b5060608201516122c160608501826120a5565b5060808201516122d4608085018261208b565b5060a08201516122e760a0850182611fa9565b5060c08201516122fa60c08501826120a5565b50505050565b611fa381612707565b60006123158287612094565b6001820191506123258286611fb2565b60148201915061233582856120ae565b60208201915061234582846120ae565b50602001949350505050565b6000610d2082846120f2565b6000610d39828486612143565b600061237582612162565b915061238182846120ae565b50602001919050565b600061239682856120ae565b6020820191506123a68284611fb2565b5060140192915050565b60006123bc82886120ae565b6020820191506123cc8287611fb2565b6014820191506123dc8286611fb2565b6014820191506123ec82856120f2565b91506123f88284611fb2565b5060140195945050505050565b602081016106c58284611fa9565b602081016106c58284611f9a565b6080810161242f8287611fa9565b61243c6020830186611fa9565b61244960408301856120a5565b61071560608301846120a5565b606081016124648286611fa9565b6124716020830185611fa9565b8181036040830152610d3681846120ba565b60208082528101610d208184611fc3565b60208082528101610d208184612018565b602081016106c58284612082565b602081016106c5828461208b565b602081016106c582846120a5565b60e081016124dd828a6120a5565b6124ea60208301896120a5565b6124f76040830188611fa9565b6125046060830187611fa9565b6125116080830186611fa9565b61251e60a0830185611fa9565b61252b60c0830184611fa9565b98975050505050505050565b6060810161254582866120a5565b61255260208301856120a5565b610d3960408301846120a5565b6080810161256d82876120a5565b61257a60208301866120a5565b61258760408301856120a5565b6107156060830184611fa9565b608081016125a282896120a5565b6125af60208301886120a5565b81810360408301526125c2818688612121565b9050818103606083015261252b818486612121565b604081016125e582846120a5565b6106c5602083016121e6565b608081016125ff82876120a5565b61243c6020830186612300565b6040808252810161261e818486612121565b90508181036020830152610d398161226a565b602080825281016106c58161219b565b602080825281016106c5816121f8565b602080825281016106c581612231565b60e081016106c58284612277565b60405181810167ffffffffffffffff8111828210171561268e57600080fd5b604052919050565b600067ffffffffffffffff8211156126ad57600080fd5b506020601f91909101601f19160190565b60200190565b5190565b90815260200190565b60006106c5826126fb565b151590565b6001600160f81b03191690565b6001600160801b03191690565b6001600160a01b031690565b60ff1690565b60006106c58260006106c5826126d1565b82818337506000910152565b60005b8381101561274557818101518382015260200161272d565b838111156122fa5750506000910152565b60006106c58260006106c582612771565b601f01601f191690565b60601b9056fe608060405234801561001057600080fd5b50610986806100206000396000f3fe6080604052600436106100705760003560e01c80638f2839701161004e5780638f2839701461015e578063cf7a1d7714610191578063d1f5789414610250578063f851a4401461030657610070565b80633659cfe61461007a5780634f1ef286146100ad5780635c60da1b1461012d575b61007861031b565b005b34801561008657600080fd5b506100786004803603602081101561009d57600080fd5b50356001600160a01b0316610335565b610078600480360360408110156100c357600080fd5b6001600160a01b0382351691908101906040810160208201356401000000008111156100ee57600080fd5b82018360208201111561010057600080fd5b8035906020019184600183028401116401000000008311171561012257600080fd5b50909250905061036f565b34801561013957600080fd5b5061014261041c565b604080516001600160a01b039092168252519081900360200190f35b34801561016a57600080fd5b506100786004803603602081101561018157600080fd5b50356001600160a01b0316610459565b610078600480360360608110156101a757600080fd5b6001600160a01b0382358116926020810135909116918101906060810160408201356401000000008111156101db57600080fd5b8201836020820111156101ed57600080fd5b8035906020019184600183028401116401000000008311171561020f57600080fd5b91908080601f016020809104026020016040519081016040528093929190818152602001838380828437600092019190915250929550610516945050505050565b6100786004803603604081101561026657600080fd5b6001600160a01b03823516919081019060408101602082013564010000000081111561029157600080fd5b8201836020820111156102a357600080fd5b803590602001918460018302840111640100000000831117156102c557600080fd5b91908080601f0160208091040260200160405190810160405280939291908181526020018383808284376000920191909152509295506105a6945050505050565b34801561031257600080fd5b506101426106e6565b610323610711565b61033361032e610774565b610799565b565b61033d6107bd565b6001600160a01b0316336001600160a01b031614156103645761035f816107e2565b61036c565b61036c61031b565b50565b6103776107bd565b6001600160a01b0316336001600160a01b0316141561040f57610399836107e2565b6000836001600160a01b031683836040518083838082843760405192019450600093509091505080830381855af49150503d80600081146103f6576040519150601f19603f3d011682016040523d82523d6000602084013e6103fb565b606091505b505090508061040957600080fd5b50610417565b61041761031b565b505050565b60006104266107bd565b6001600160a01b0316336001600160a01b0316141561044e57610447610774565b9050610456565b61045661031b565b90565b6104616107bd565b6001600160a01b0316336001600160a01b03161415610364576001600160a01b0381166104c257604051600160e51b62461bcd0281526004018080602001828103825260368152602001806108ea6036913960400191505060405180910390fd5b7f7e644d79422f17c01e4894b5f4f588d331ebfa28653d42ae832dc59e38c9798f6104eb6107bd565b604080516001600160a01b03928316815291841660208301528051918290030190a161035f81610822565b6000610520610774565b6001600160a01b03161461053357600080fd5b61053d83826105a6565b604080517f656970313936372e70726f78792e61646d696e00000000000000000000000000815290519081900360130190207fb53127684a568b3173ae13b9f8a6016e243e63b6e8ee1178d6a717850b5d61036000199091011461059d57fe5b61041782610822565b60006105b0610774565b6001600160a01b0316146105c357600080fd5b604080517f656970313936372e70726f78792e696d706c656d656e746174696f6e000000008152905190819003601c0190207f360894a13ba1a3210667c828492db98dca3e2076cc3735a920a3ca505d382bbc6000199091011461062357fe5b61062c82610846565b8051156106e2576000826001600160a01b0316826040518082805190602001908083835b6020831061066f5780518252601f199092019160209182019101610650565b6001836020036101000a038019825116818451168082178552505050505050905001915050600060405180830381855af49150503d80600081146106cf576040519150601f19603f3d011682016040523d82523d6000602084013e6106d4565b606091505b505090508061041757600080fd5b5050565b60006106f06107bd565b6001600160a01b0316336001600160a01b0316141561044e576104476107bd565b6107196107bd565b6001600160a01b0316336001600160a01b0316141561076c57604051600160e51b62461bcd0281526004018080602001828103825260328152602001806108b86032913960400191505060405180910390fd5b610333610333565b7f360894a13ba1a3210667c828492db98dca3e2076cc3735a920a3ca505d382bbc5490565b3660008037600080366000845af43d6000803e8080156107b8573d6000f35b3d6000fd5b7fb53127684a568b3173ae13b9f8a6016e243e63b6e8ee1178d6a717850b5d61035490565b6107eb81610846565b6040516001600160a01b038216907fbc7cd75a20ee27fd9adebab32041f755214dbc6bffa90cc0225b39da2e5c2d3b90600090a250565b7fb53127684a568b3173ae13b9f8a6016e243e63b6e8ee1178d6a717850b5d610355565b61084f816108b1565b61088d57604051600160e51b62461bcd02815260040180806020018281038252603b815260200180610920603b913960400191505060405180910390fd5b7f360894a13ba1a3210667c828492db98dca3e2076cc3735a920a3ca505d382bbc55565b3b15159056fe43616e6e6f742063616c6c2066616c6c6261636b2066756e6374696f6e2066726f6d207468652070726f78792061646d696e43616e6e6f74206368616e6765207468652061646d696e206f6620612070726f787920746f20746865207a65726f206164647265737343616e6e6f742073657420612070726f787920696d706c656d656e746174696f6e20746f2061206e6f6e2d636f6e74726163742061646472657373a165627a7a72305820acd86240912c703ba88ccefef3db77e88d3507353c7c194b0b27eed571ae96c90029a265627a7a723058206d927e43f4d58bb7a124d80f7993a8613e32c707f277d340501eb9637f847f336c6578706572696d656e74616cf50037608060405234801561001057600080fd5b50610986806100206000396000f3fe6080604052600436106100705760003560e01c80638f2839701161004e5780638f2839701461015e578063cf7a1d7714610191578063d1f5789414610250578063f851a4401461030657610070565b80633659cfe61461007a5780634f1ef286146100ad5780635c60da1b1461012d575b61007861031b565b005b34801561008657600080fd5b506100786004803603602081101561009d57600080fd5b50356001600160a01b0316610335565b610078600480360360408110156100c357600080fd5b6001600160a01b0382351691908101906040810160208201356401000000008111156100ee57600080fd5b82018360208201111561010057600080fd5b8035906020019184600183028401116401000000008311171561012257600080fd5b50909250905061036f565b34801561013957600080fd5b5061014261041c565b604080516001600160a01b039092168252519081900360200190f35b34801561016a57600080fd5b506100786004803603602081101561018157600080fd5b50356001600160a01b0316610459565b610078600480360360608110156101a757600080fd5b6001600160a01b0382358116926020810135909116918101906060810160408201356401000000008111156101db57600080fd5b8201836020820111156101ed57600080fd5b8035906020019184600183028401116401000000008311171561020f57600080fd5b91908080601f016020809104026020016040519081016040528093929190818152602001838380828437600092019190915250929550610516945050505050565b6100786004803603604081101561026657600080fd5b6001600160a01b03823516919081019060408101602082013564010000000081111561029157600080fd5b8201836020820111156102a357600080fd5b803590602001918460018302840111640100000000831117156102c557600080fd5b91908080601f0160208091040260200160405190810160405280939291908181526020018383808284376000920191909152509295506105a6945050505050565b34801561031257600080fd5b506101426106e6565b610323610711565b61033361032e610774565b610799565b565b61033d6107bd565b6001600160a01b0316336001600160a01b031614156103645761035f816107e2565b61036c565b61036c61031b565b50565b6103776107bd565b6001600160a01b0316336001600160a01b0316141561040f57610399836107e2565b6000836001600160a01b031683836040518083838082843760405192019450600093509091505080830381855af49150503d80600081146103f6576040519150601f19603f3d011682016040523d82523d6000602084013e6103fb565b606091505b505090508061040957600080fd5b50610417565b61041761031b565b505050565b60006104266107bd565b6001600160a01b0316336001600160a01b0316141561044e57610447610774565b9050610456565b61045661031b565b90565b6104616107bd565b6001600160a01b0316336001600160a01b03161415610364576001600160a01b0381166104c257604051600160e51b62461bcd0281526004018080602001828103825260368152602001806108ea6036913960400191505060405180910390fd5b7f7e644d79422f17c01e4894b5f4f588d331ebfa28653d42ae832dc59e38c9798f6104eb6107bd565b604080516001600160a01b03928316815291841660208301528051918290030190a161035f81610822565b6000610520610774565b6001600160a01b03161461053357600080fd5b61053d83826105a6565b604080517f656970313936372e70726f78792e61646d696e00000000000000000000000000815290519081900360130190207fb53127684a568b3173ae13b9f8a6016e243e63b6e8ee1178d6a717850b5d61036000199091011461059d57fe5b61041782610822565b60006105b0610774565b6001600160a01b0316146105c357600080fd5b604080517f656970313936372e70726f78792e696d706c656d656e746174696f6e000000008152905190819003601c0190207f360894a13ba1a3210667c828492db98dca3e2076cc3735a920a3ca505d382bbc6000199091011461062357fe5b61062c82610846565b8051156106e2576000826001600160a01b0316826040518082805190602001908083835b6020831061066f5780518252601f199092019160209182019101610650565b6001836020036101000a038019825116818451168082178552505050505050905001915050600060405180830381855af49150503d80600081146106cf576040519150601f19603f3d011682016040523d82523d6000602084013e6106d4565b606091505b505090508061041757600080fd5b5050565b60006106f06107bd565b6001600160a01b0316336001600160a01b0316141561044e576104476107bd565b6107196107bd565b6001600160a01b0316336001600160a01b0316141561076c57604051600160e51b62461bcd0281526004018080602001828103825260328152602001806108b86032913960400191505060405180910390fd5b610333610333565b7f360894a13ba1a3210667c828492db98dca3e2076cc3735a920a3ca505d382bbc5490565b3660008037600080366000845af43d6000803e8080156107b8573d6000f35b3d6000fd5b7fb53127684a568b3173ae13b9f8a6016e243e63b6e8ee1178d6a717850b5d61035490565b6107eb81610846565b6040516001600160a01b038216907fbc7cd75a20ee27fd9adebab32041f755214dbc6bffa90cc0225b39da2e5c2d3b90600090a250565b7fb53127684a568b3173ae13b9f8a6016e243e63b6e8ee1178d6a717850b5d610355565b61084f816108b1565b61088d57604051600160e51b62461bcd02815260040180806020018281038252603b815260200180610920603b913960400191505060405180910390fd5b7f360894a13ba1a3210667c828492db98dca3e2076cc3735a920a3ca505d382bbc55565b3b15159056fe43616e6e6f742063616c6c2066616c6c6261636b2066756e6374696f6e2066726f6d207468652070726f78792061646d696e43616e6e6f74206368616e6765207468652061646d696e206f6620612070726f787920746f20746865207a65726f206164647265737343616e6e6f742073657420612070726f787920696d706c656d656e746174696f6e20746f2061206e6f6e2d636f6e74726163742061646472657373a165627a7a72305820acd86240912c703ba88ccefef3db77e88d3507353c7c194b0b27eed571ae96c90029",
    "source": "// Registry of registered securities\r\n// (c) Kallol Borah, 2021\r\n\r\npragma solidity 0.5.7;\r\npragma experimental ABIEncoderV2;\r\n\r\nimport \"../interfaces/ISecuritiesRegistry.sol\";\r\nimport \"../interfaces/IPoolFactory.sol\";\r\nimport \"../interfaces/ViaFactory.sol\";\r\nimport \"../interfaces/VerifiedClient.sol\";\r\nimport \"../interfaces/VerifiedIssues.sol\";\r\nimport \"../utilities/StringUtils.sol\";\r\nimport \"abdk-libraries-solidity/ABDKMathQuad.sol\";\r\nimport \"@openzeppelin/upgrades/contracts/upgradeability/ProxyFactory.sol\";\r\nimport \"@openzeppelin/contracts/ownership/Ownable.sol\";\r\nimport \"@openzeppelin/contracts/token/ERC20/IERC20.sol\";\r\n\r\ncontract SecuritiesRegistry is Ownable, ProxyFactory, ISecuritiesRegistry{\r\n\r\n    using ABDKMathQuad for bytes16;\r\n    using stringutils for *;\r\n\r\n    ViaFactory private via;\r\n\r\n    address poolFactory;\r\n    address preTradeContract;\r\n    address tradeContract;\r\n    address postTradeContract;\r\n    address clientContract;\r\n\r\n    //mapping security token to security details\r\n    mapping(address => security) private securityTokens;\r\n\r\n    //array of security tokens\r\n    address[] private tokens;\r\n\r\n    //mapping of isin to security token\r\n    mapping(bytes32 => address) private securityToken;\r\n\r\n    //mapping of security token to corporate action category to corporate actions in the category\r\n    mapping(address => mapping(string => string[])) private corporateActions;\r\n\r\n    //mapping company to credit score\r\n    mapping(bytes32 => bytes32) private creditScore;\r\n\r\n    //mapping users to their investments\r\n    mapping(address => address[]) private investments;\r\n    \r\n    //event signalling creation of a security token\r\n    event SecurityCreated(address indexed security, bytes32 company, bytes32 isin, bytes32 currency, address issuer);\r\n    //event signalling corporate action\r\n    event CorporateActionCreated(address indexed security, bytes32 company, bytes32 isin, string category, string action);\r\n    //event signalling credit score report\r\n    event ReportCreditScore(bytes32 company, bytes32 isin, bytes32 score);\r\n\r\n    constructor() public Ownable() {\r\n    }\r\n\r\n    function initialize(address _viaFactory, address _poolFactory, address _preTradeContract, address _tradeContract, address _postTradeContract, address _clientContract) public onlyOwner {\r\n        via = ViaFactory(_viaFactory);\r\n        poolFactory = _poolFactory;\r\n        preTradeContract = _preTradeContract;\r\n        tradeContract = _tradeContract;\r\n        postTradeContract = _postTradeContract;\r\n        clientContract = _clientContract;\r\n    }\r\n\r\n    function createSecurity(address _issuer, address _security, bytes32 _currency, bytes32 _company, bytes32 _isin, bytes32 _settlementBy, bytes32 _itype) external {\r\n        require(msg.sender==preTradeContract || VerifiedIssues(msg.sender).getOwner()==owner());\r\n        address cash = via.getTokenByNameType(_currency, \"ViaCash\");\r\n        require(cash!=address(0x0));\r\n        \r\n        if(!isRegistered(_company, _currency, _isin)){\r\n            bytes memory _payload = abi.encodeWithSignature(\"initialize(bytes32,bytes32,address,address,address,address,address)\", _company, _isin, preTradeContract, tradeContract, postTradeContract, clientContract, owner());\r\n\r\n            address _token = deployMinimal(_security, _payload);\r\n            emit SecurityCreated(_token, _company, _isin, _currency, _issuer);\r\n\r\n            securityTokens[_token] = security(_company, _currency, _isin, \"none\", ABDKMathQuad.fromUInt(0), _issuer, _itype);\r\n            securityToken[_isin] = _token;\r\n            tokens.push(_token);\r\n\r\n            IPoolFactory(poolFactory).createPool(_token, cash, _currency, _settlementBy);\r\n        }\r\n    }\r\n\r\n    function isRegistered(bytes32 _company, bytes32 _currency, bytes32 _isin) private view returns(bool){\r\n        address stoken = securityToken[_isin];\r\n        if( securityTokens[stoken].company==_company &&\r\n                securityTokens[stoken].currency==_currency)\r\n            return true;\r\n        else\r\n            return false;\r\n    }\r\n\r\n    function getToken(bytes32 _currency, bytes32 _company, bytes32 _isin) external view returns(address){\r\n        address stoken = securityToken[_isin];\r\n        if( securityTokens[stoken].company==_company &&\r\n                securityTokens[stoken].currency==_currency)\r\n            return stoken;\r\n    }\r\n\r\n    function getSecuritiesIssued() external view returns(address[] memory){\r\n        return tokens;\r\n    }\r\n\r\n    function getSecuritiesInvested() external view returns(address[] memory){\r\n        return (investments[msg.sender]);\r\n    }\r\n\r\n    function getSecurityDetails(address _securityToken) external view returns(security memory){\r\n        return securityTokens[_securityToken];\r\n    }\r\n\r\n    function isIsinPresent(bytes32 _isin) external returns(bool){\r\n        address stoken = securityToken[_isin];\r\n        if( stoken != address(0x0))\r\n            return true;\r\n        else\r\n            return false;\r\n    }\r\n\r\n    function registerCorporateAction(string calldata _category, string calldata _action, bytes32 _isin) external{\r\n        //only company or a DP/registrar can report corporate action\r\n        require(_isin!=\"\" && bytes(_category).length!=0 && stringutils.equal(_action,\"\"));\r\n        (bytes32 role, ) = VerifiedClient(clientContract).getRole(msg.sender);\r\n        address stoken = securityToken[_isin];\r\n        if(stoken!=address(0x0)){\r\n            if( securityTokens[stoken].isin==_isin && \r\n                (securityTokens[stoken].issuer==msg.sender || role==\"DP\")){\r\n                corporateActions[stoken][_category].push(_action);\r\n                emit CorporateActionCreated(stoken, \r\n                                    securityTokens[stoken].company, \r\n                                    securityTokens[stoken].isin, \r\n                                    _category, _action);\r\n            }\r\n        }\r\n    }\r\n\r\n    function registerCreditScore(bytes32 _company, bytes32 _isin, bytes32 _score) onlyOwner external {\r\n        //only verified admin can report credit score\r\n        require((_company!=\"\" || _isin!=\"\") && _score!=\"\");\r\n        if(_isin==\"\")\r\n            creditScore[_company] = _score;\r\n        else if (_isin!=\"\"){\r\n            address stoken = securityToken[_isin];\r\n            securityTokens[stoken].creditScore = _score; \r\n        }\r\n        emit ReportCreditScore(_company, _isin, _score);\r\n    }\r\n\r\n    function registerPrice(bytes32 _isin, bytes16 _price, address _transferor, address _transferee) external {\r\n        //only post trade contract can report price\r\n        require(msg.sender==postTradeContract);\r\n        require(_isin!=\"\" && ABDKMathQuad.cmp(_price, ABDKMathQuad.fromUInt(0))>0);\r\n        address stoken = securityToken[_isin];\r\n        if(stoken!=address(0x0)){\r\n            securityTokens[stoken].price==_price;\r\n            investments[_transferee].push(stoken);\r\n            uint256 balance = IERC20(stoken).balanceOf(_transferor);\r\n            if(balance>0)\r\n                investments[_transferor].push(stoken);\r\n        }\r\n    }\r\n\r\n    function getCorporateActions(bytes32 _isin, string calldata _category) external view returns(string[] memory){\r\n        require(_isin!=\"\" && bytes(_category).length!=0);\r\n        address stoken = securityToken[_isin];\r\n        if(stoken!=address(0x0))\r\n            return corporateActions[stoken][_category];\r\n    }\r\n\r\n    function getCreditScore(bytes32 _isin, bytes32 _company) external view returns(bytes32){\r\n        require(_company!=\"\" || _isin!=\"\");\r\n        if(_isin==\"\")\r\n            return (creditScore[_company]);\r\n        else if (_isin!=\"\"){\r\n            address stoken = securityToken[_isin];\r\n            return (securityTokens[stoken].creditScore); \r\n        }\r\n    }\r\n\r\n    function getPrice(bytes32 _isin) external view returns(bytes16){\r\n        require(_isin!=\"\");\r\n        address stoken = securityToken[_isin];\r\n        if(stoken!=address(0x0))\r\n            return (securityTokens[stoken].price);\r\n    }\r\n\r\n}",
    "sourcePath": "D:\\Code\\verified-trades\\contracts\\registry\\SecuritiesRegistry.sol",
    "compiler": {
        "name": "solc",
        "version": "0.5.7+commit.6da8b019.Emscripten.clang"
    },
    "schemaVersion": "3.4.3",
    "updatedAt": "2022-06-03T03:11:51.762Z",
    "networkType": "quorum",
    "devdoc": {
        "methods": {
            "isOwner()": {
                "details": "Returns true if the caller is the current owner."
            },
            "owner()": {
                "details": "Returns the address of the current owner."
            },
            "renounceOwnership()": {
                "details": "Leaves the contract without owner. It will not be possible to call `onlyOwner` functions anymore. Can only be called by the current owner.     * NOTE: Renouncing ownership will leave the contract without an owner, thereby removing any functionality that is only available to the owner."
            },
            "transferOwnership(address)": {
                "details": "Transfers ownership of the contract to a new account (`newOwner`). Can only be called by the current owner."
            }
        }
    },
    "userdoc": {
        "methods": {}
    }
}