{
  "address": "0xd56b253d646686537B7BaC2C94133FEf5c0034d6",
  "abi": [
    {
      "inputs": [],
      "stateMutability": "nonpayable",
      "type": "constructor"
    },
    {
      "anonymous": false,
      "inputs": [
        {
          "indexed": true,
          "internalType": "bytes32",
          "name": "assetId",
          "type": "bytes32"
        },
        {
          "indexed": true,
          "internalType": "address",
          "name": "account",
          "type": "address"
        },
        {
          "indexed": false,
          "internalType": "bytes4",
          "name": "methodSignature",
          "type": "bytes4"
        }
      ],
      "name": "GrantedAccess",
      "type": "event"
    },
    {
      "anonymous": false,
      "inputs": [
        {
          "indexed": true,
          "internalType": "address",
          "name": "previousOwner",
          "type": "address"
        },
        {
          "indexed": true,
          "internalType": "address",
          "name": "newOwner",
          "type": "address"
        }
      ],
      "name": "OwnershipTransferred",
      "type": "event"
    },
    {
      "anonymous": false,
      "inputs": [
        {
          "indexed": false,
          "internalType": "bytes32",
          "name": "assetId",
          "type": "bytes32"
        }
      ],
      "name": "RegisteredAsset",
      "type": "event"
    },
    {
      "anonymous": false,
      "inputs": [
        {
          "indexed": true,
          "internalType": "bytes32",
          "name": "assetId",
          "type": "bytes32"
        },
        {
          "indexed": true,
          "internalType": "address",
          "name": "account",
          "type": "address"
        },
        {
          "indexed": false,
          "internalType": "bytes4",
          "name": "methodSignature",
          "type": "bytes4"
        }
      ],
      "name": "RevokedAccess",
      "type": "event"
    },
    {
      "anonymous": false,
      "inputs": [
        {
          "indexed": true,
          "internalType": "bytes32",
          "name": "assetId",
          "type": "bytes32"
        },
        {
          "indexed": false,
          "internalType": "address",
          "name": "prevActor",
          "type": "address"
        },
        {
          "indexed": false,
          "internalType": "address",
          "name": "newActor",
          "type": "address"
        }
      ],
      "name": "UpdatedActor",
      "type": "event"
    },
    {
      "anonymous": false,
      "inputs": [
        {
          "indexed": false,
          "internalType": "bytes32",
          "name": "assetId",
          "type": "bytes32"
        },
        {
          "indexed": false,
          "internalType": "address",
          "name": "prevBeneficiary",
          "type": "address"
        },
        {
          "indexed": false,
          "internalType": "address",
          "name": "newBeneficiary",
          "type": "address"
        }
      ],
      "name": "UpdatedBeneficiary",
      "type": "event"
    },
    {
      "anonymous": false,
      "inputs": [
        {
          "indexed": true,
          "internalType": "bytes32",
          "name": "assetId",
          "type": "bytes32"
        },
        {
          "indexed": false,
          "internalType": "address",
          "name": "prevEngine",
          "type": "address"
        },
        {
          "indexed": false,
          "internalType": "address",
          "name": "newEngine",
          "type": "address"
        }
      ],
      "name": "UpdatedEngine",
      "type": "event"
    },
    {
      "anonymous": false,
      "inputs": [
        {
          "indexed": true,
          "internalType": "bytes32",
          "name": "assetId",
          "type": "bytes32"
        },
        {
          "indexed": false,
          "internalType": "uint256",
          "name": "statusDate",
          "type": "uint256"
        }
      ],
      "name": "UpdatedFinalizedState",
      "type": "event"
    },
    {
      "anonymous": false,
      "inputs": [
        {
          "indexed": false,
          "internalType": "bytes32",
          "name": "assetId",
          "type": "bytes32"
        },
        {
          "indexed": false,
          "internalType": "address",
          "name": "prevObligor",
          "type": "address"
        },
        {
          "indexed": false,
          "internalType": "address",
          "name": "newObligor",
          "type": "address"
        }
      ],
      "name": "UpdatedObligor",
      "type": "event"
    },
    {
      "anonymous": false,
      "inputs": [
        {
          "indexed": true,
          "internalType": "bytes32",
          "name": "assetId",
          "type": "bytes32"
        },
        {
          "indexed": false,
          "internalType": "uint256",
          "name": "statusDate",
          "type": "uint256"
        }
      ],
      "name": "UpdatedState",
      "type": "event"
    },
    {
      "anonymous": false,
      "inputs": [
        {
          "indexed": true,
          "internalType": "bytes32",
          "name": "assetId",
          "type": "bytes32"
        }
      ],
      "name": "UpdatedTerms",
      "type": "event"
    },
    {
      "inputs": [
        {
          "internalType": "address",
          "name": "actor",
          "type": "address"
        }
      ],
      "name": "approveActor",
      "outputs": [],
      "stateMutability": "nonpayable",
      "type": "function"
    },
    {
      "inputs": [
        {
          "internalType": "address",
          "name": "",
          "type": "address"
        }
      ],
      "name": "approvedActors",
      "outputs": [
        {
          "internalType": "bool",
          "name": "",
          "type": "bool"
        }
      ],
      "stateMutability": "view",
      "type": "function"
    },
    {
      "inputs": [
        {
          "internalType": "bytes32",
          "name": "_event",
          "type": "bytes32"
        }
      ],
      "name": "decodeEvent",
      "outputs": [
        {
          "internalType": "enum EventType",
          "name": "",
          "type": "uint8"
        },
        {
          "internalType": "uint256",
          "name": "",
          "type": "uint256"
        }
      ],
      "stateMutability": "pure",
      "type": "function"
    },
    {
      "inputs": [
        {
          "internalType": "enum EventType",
          "name": "eventType",
          "type": "uint8"
        },
        {
          "internalType": "uint256",
          "name": "scheduleTime",
          "type": "uint256"
        }
      ],
      "name": "encodeEvent",
      "outputs": [
        {
          "internalType": "bytes32",
          "name": "",
          "type": "bytes32"
        }
      ],
      "stateMutability": "pure",
      "type": "function"
    },
    {
      "inputs": [
        {
          "internalType": "bytes32",
          "name": "assetId",
          "type": "bytes32"
        }
      ],
      "name": "getActor",
      "outputs": [
        {
          "internalType": "address",
          "name": "",
          "type": "address"
        }
      ],
      "stateMutability": "view",
      "type": "function"
    },
    {
      "inputs": [
        {
          "internalType": "bytes32",
          "name": "assetId",
          "type": "bytes32"
        },
        {
          "internalType": "bytes32",
          "name": "attribute",
          "type": "bytes32"
        }
      ],
      "name": "getAddressValueForTermsAttribute",
      "outputs": [
        {
          "internalType": "address",
          "name": "",
          "type": "address"
        }
      ],
      "stateMutability": "view",
      "type": "function"
    },
    {
      "inputs": [
        {
          "internalType": "bytes32",
          "name": "assetId",
          "type": "bytes32"
        },
        {
          "internalType": "bytes32",
          "name": "attribute",
          "type": "bytes32"
        }
      ],
      "name": "getBytes32ValueForTermsAttribute",
      "outputs": [
        {
          "internalType": "bytes32",
          "name": "",
          "type": "bytes32"
        }
      ],
      "stateMutability": "view",
      "type": "function"
    },
    {
      "inputs": [
        {
          "internalType": "bytes32",
          "name": "assetId",
          "type": "bytes32"
        },
        {
          "internalType": "bytes32",
          "name": "attribute",
          "type": "bytes32"
        }
      ],
      "name": "getContractReferenceValueForTermsAttribute",
      "outputs": [
        {
          "components": [
            {
              "internalType": "bytes32",
              "name": "object",
              "type": "bytes32"
            },
            {
              "internalType": "bytes32",
              "name": "object2",
              "type": "bytes32"
            },
            {
              "internalType": "enum ContractReferenceType",
              "name": "_type",
              "type": "uint8"
            },
            {
              "internalType": "enum ContractReferenceRole",
              "name": "role",
              "type": "uint8"
            }
          ],
          "internalType": "struct ContractReference",
          "name": "",
          "type": "tuple"
        }
      ],
      "stateMutability": "view",
      "type": "function"
    },
    {
      "inputs": [
        {
          "internalType": "bytes32",
          "name": "assetId",
          "type": "bytes32"
        },
        {
          "internalType": "bytes32",
          "name": "attribute",
          "type": "bytes32"
        }
      ],
      "name": "getCycleValueForTermsAttribute",
      "outputs": [
        {
          "components": [
            {
              "internalType": "uint256",
              "name": "i",
              "type": "uint256"
            },
            {
              "internalType": "enum P",
              "name": "p",
              "type": "uint8"
            },
            {
              "internalType": "enum S",
              "name": "s",
              "type": "uint8"
            },
            {
              "internalType": "bool",
              "name": "isSet",
              "type": "bool"
            }
          ],
          "internalType": "struct IPS",
          "name": "",
          "type": "tuple"
        }
      ],
      "stateMutability": "view",
      "type": "function"
    },
    {
      "inputs": [
        {
          "internalType": "bytes32",
          "name": "assetId",
          "type": "bytes32"
        }
      ],
      "name": "getEngine",
      "outputs": [
        {
          "internalType": "address",
          "name": "",
          "type": "address"
        }
      ],
      "stateMutability": "view",
      "type": "function"
    },
    {
      "inputs": [
        {
          "internalType": "bytes32",
          "name": "assetId",
          "type": "bytes32"
        },
        {
          "internalType": "bytes32",
          "name": "attribute",
          "type": "bytes32"
        }
      ],
      "name": "getEnumValueForStateAttribute",
      "outputs": [
        {
          "internalType": "uint8",
          "name": "",
          "type": "uint8"
        }
      ],
      "stateMutability": "view",
      "type": "function"
    },
    {
      "inputs": [
        {
          "internalType": "bytes32",
          "name": "assetId",
          "type": "bytes32"
        },
        {
          "internalType": "bytes32",
          "name": "attribute",
          "type": "bytes32"
        }
      ],
      "name": "getEnumValueForTermsAttribute",
      "outputs": [
        {
          "internalType": "uint8",
          "name": "",
          "type": "uint8"
        }
      ],
      "stateMutability": "view",
      "type": "function"
    },
    {
      "inputs": [
        {
          "internalType": "enum EventType",
          "name": "eventType",
          "type": "uint8"
        }
      ],
      "name": "getEpochOffset",
      "outputs": [
        {
          "internalType": "uint256",
          "name": "",
          "type": "uint256"
        }
      ],
      "stateMutability": "pure",
      "type": "function"
    },
    {
      "inputs": [
        {
          "internalType": "bytes32",
          "name": "assetId",
          "type": "bytes32"
        },
        {
          "internalType": "uint256",
          "name": "index",
          "type": "uint256"
        }
      ],
      "name": "getEventAtIndex",
      "outputs": [
        {
          "internalType": "bytes32",
          "name": "",
          "type": "bytes32"
        }
      ],
      "stateMutability": "view",
      "type": "function"
    },
    {
      "inputs": [
        {
          "internalType": "bytes32",
          "name": "assetId",
          "type": "bytes32"
        }
      ],
      "name": "getExtension",
      "outputs": [
        {
          "internalType": "address",
          "name": "",
          "type": "address"
        }
      ],
      "stateMutability": "view",
      "type": "function"
    },
    {
      "inputs": [
        {
          "internalType": "bytes32",
          "name": "assetId",
          "type": "bytes32"
        }
      ],
      "name": "getFinalizedState",
      "outputs": [
        {
          "components": [
            {
              "internalType": "enum ContractPerformance",
              "name": "contractPerformance",
              "type": "uint8"
            },
            {
              "internalType": "uint256",
              "name": "statusDate",
              "type": "uint256"
            },
            {
              "internalType": "uint256",
              "name": "nonPerformingDate",
              "type": "uint256"
            },
            {
              "internalType": "uint256",
              "name": "maturityDate",
              "type": "uint256"
            },
            {
              "internalType": "uint256",
              "name": "terminationDate",
              "type": "uint256"
            },
            {
              "internalType": "int256",
              "name": "notionalPrincipal",
              "type": "int256"
            },
            {
              "internalType": "int256",
              "name": "accruedInterest",
              "type": "int256"
            },
            {
              "internalType": "int256",
              "name": "feeAccrued",
              "type": "int256"
            },
            {
              "internalType": "int256",
              "name": "nominalInterestRate",
              "type": "int256"
            },
            {
              "internalType": "int256",
              "name": "interestScalingMultiplier",
              "type": "int256"
            },
            {
              "internalType": "int256",
              "name": "notionalScalingMultiplier",
              "type": "int256"
            },
            {
              "internalType": "int256",
              "name": "nextPrincipalRedemptionPayment",
              "type": "int256"
            }
          ],
          "internalType": "struct ANNState",
          "name": "",
          "type": "tuple"
        }
      ],
      "stateMutability": "view",
      "type": "function"
    },
    {
      "inputs": [
        {
          "internalType": "bytes32",
          "name": "assetId",
          "type": "bytes32"
        },
        {
          "internalType": "bytes32",
          "name": "attribute",
          "type": "bytes32"
        }
      ],
      "name": "getIntValueForStateAttribute",
      "outputs": [
        {
          "internalType": "int256",
          "name": "",
          "type": "int256"
        }
      ],
      "stateMutability": "view",
      "type": "function"
    },
    {
      "inputs": [
        {
          "internalType": "bytes32",
          "name": "assetId",
          "type": "bytes32"
        },
        {
          "internalType": "bytes32",
          "name": "attribute",
          "type": "bytes32"
        }
      ],
      "name": "getIntValueForTermsAttribute",
      "outputs": [
        {
          "internalType": "int256",
          "name": "",
          "type": "int256"
        }
      ],
      "stateMutability": "view",
      "type": "function"
    },
    {
      "inputs": [
        {
          "internalType": "bytes32",
          "name": "assetId",
          "type": "bytes32"
        }
      ],
      "name": "getNextScheduleIndex",
      "outputs": [
        {
          "internalType": "uint256",
          "name": "",
          "type": "uint256"
        }
      ],
      "stateMutability": "view",
      "type": "function"
    },
    {
      "inputs": [
        {
          "internalType": "bytes32",
          "name": "assetId",
          "type": "bytes32"
        }
      ],
      "name": "getNextScheduledEvent",
      "outputs": [
        {
          "internalType": "bytes32",
          "name": "",
          "type": "bytes32"
        }
      ],
      "stateMutability": "view",
      "type": "function"
    },
    {
      "inputs": [
        {
          "internalType": "bytes32",
          "name": "assetId",
          "type": "bytes32"
        }
      ],
      "name": "getNextUnderlyingEvent",
      "outputs": [
        {
          "internalType": "bytes32",
          "name": "",
          "type": "bytes32"
        }
      ],
      "stateMutability": "view",
      "type": "function"
    },
    {
      "inputs": [
        {
          "internalType": "bytes32",
          "name": "assetId",
          "type": "bytes32"
        }
      ],
      "name": "getOwnership",
      "outputs": [
        {
          "components": [
            {
              "internalType": "address",
              "name": "creatorObligor",
              "type": "address"
            },
            {
              "internalType": "address",
              "name": "creatorBeneficiary",
              "type": "address"
            },
            {
              "internalType": "address",
              "name": "counterpartyObligor",
              "type": "address"
            },
            {
              "internalType": "address",
              "name": "counterpartyBeneficiary",
              "type": "address"
            }
          ],
          "internalType": "struct AssetOwnership",
          "name": "",
          "type": "tuple"
        }
      ],
      "stateMutability": "view",
      "type": "function"
    },
    {
      "inputs": [
        {
          "internalType": "bytes32",
          "name": "assetId",
          "type": "bytes32"
        }
      ],
      "name": "getPendingEvent",
      "outputs": [
        {
          "internalType": "bytes32",
          "name": "",
          "type": "bytes32"
        }
      ],
      "stateMutability": "view",
      "type": "function"
    },
    {
      "inputs": [
        {
          "internalType": "bytes32",
          "name": "assetId",
          "type": "bytes32"
        },
        {
          "internalType": "bytes32",
          "name": "attribute",
          "type": "bytes32"
        }
      ],
      "name": "getPeriodValueForTermsAttribute",
      "outputs": [
        {
          "components": [
            {
              "internalType": "uint256",
              "name": "i",
              "type": "uint256"
            },
            {
              "internalType": "enum P",
              "name": "p",
              "type": "uint8"
            },
            {
              "internalType": "bool",
              "name": "isSet",
              "type": "bool"
            }
          ],
          "internalType": "struct IP",
          "name": "",
          "type": "tuple"
        }
      ],
      "stateMutability": "view",
      "type": "function"
    },
    {
      "inputs": [
        {
          "internalType": "bytes32",
          "name": "assetId",
          "type": "bytes32"
        }
      ],
      "name": "getSchedule",
      "outputs": [
        {
          "internalType": "bytes32[]",
          "name": "",
          "type": "bytes32[]"
        }
      ],
      "stateMutability": "view",
      "type": "function"
    },
    {
      "inputs": [
        {
          "internalType": "bytes32",
          "name": "assetId",
          "type": "bytes32"
        }
      ],
      "name": "getScheduleLength",
      "outputs": [
        {
          "internalType": "uint256",
          "name": "",
          "type": "uint256"
        }
      ],
      "stateMutability": "view",
      "type": "function"
    },
    {
      "inputs": [
        {
          "internalType": "bytes32",
          "name": "assetId",
          "type": "bytes32"
        }
      ],
      "name": "getState",
      "outputs": [
        {
          "components": [
            {
              "internalType": "enum ContractPerformance",
              "name": "contractPerformance",
              "type": "uint8"
            },
            {
              "internalType": "uint256",
              "name": "statusDate",
              "type": "uint256"
            },
            {
              "internalType": "uint256",
              "name": "nonPerformingDate",
              "type": "uint256"
            },
            {
              "internalType": "uint256",
              "name": "maturityDate",
              "type": "uint256"
            },
            {
              "internalType": "uint256",
              "name": "terminationDate",
              "type": "uint256"
            },
            {
              "internalType": "int256",
              "name": "notionalPrincipal",
              "type": "int256"
            },
            {
              "internalType": "int256",
              "name": "accruedInterest",
              "type": "int256"
            },
            {
              "internalType": "int256",
              "name": "feeAccrued",
              "type": "int256"
            },
            {
              "internalType": "int256",
              "name": "nominalInterestRate",
              "type": "int256"
            },
            {
              "internalType": "int256",
              "name": "interestScalingMultiplier",
              "type": "int256"
            },
            {
              "internalType": "int256",
              "name": "notionalScalingMultiplier",
              "type": "int256"
            },
            {
              "internalType": "int256",
              "name": "nextPrincipalRedemptionPayment",
              "type": "int256"
            }
          ],
          "internalType": "struct ANNState",
          "name": "",
          "type": "tuple"
        }
      ],
      "stateMutability": "view",
      "type": "function"
    },
    {
      "inputs": [
        {
          "internalType": "bytes32",
          "name": "assetId",
          "type": "bytes32"
        }
      ],
      "name": "getTerms",
      "outputs": [
        {
          "components": [
            {
              "internalType": "enum ContractType",
              "name": "contractType",
              "type": "uint8"
            },
            {
              "internalType": "enum Calendar",
              "name": "calendar",
              "type": "uint8"
            },
            {
              "internalType": "enum ContractRole",
              "name": "contractRole",
              "type": "uint8"
            },
            {
              "internalType": "enum DayCountConvention",
              "name": "dayCountConvention",
              "type": "uint8"
            },
            {
              "internalType": "enum BusinessDayConvention",
              "name": "businessDayConvention",
              "type": "uint8"
            },
            {
              "internalType": "enum EndOfMonthConvention",
              "name": "endOfMonthConvention",
              "type": "uint8"
            },
            {
              "internalType": "enum ScalingEffect",
              "name": "scalingEffect",
              "type": "uint8"
            },
            {
              "internalType": "enum FeeBasis",
              "name": "feeBasis",
              "type": "uint8"
            },
            {
              "internalType": "address",
              "name": "currency",
              "type": "address"
            },
            {
              "internalType": "address",
              "name": "settlementCurrency",
              "type": "address"
            },
            {
              "internalType": "bytes32",
              "name": "marketObjectCodeRateReset",
              "type": "bytes32"
            },
            {
              "internalType": "uint256",
              "name": "statusDate",
              "type": "uint256"
            },
            {
              "internalType": "uint256",
              "name": "initialExchangeDate",
              "type": "uint256"
            },
            {
              "internalType": "uint256",
              "name": "maturityDate",
              "type": "uint256"
            },
            {
              "internalType": "uint256",
              "name": "issueDate",
              "type": "uint256"
            },
            {
              "internalType": "uint256",
              "name": "purchaseDate",
              "type": "uint256"
            },
            {
              "internalType": "uint256",
              "name": "capitalizationEndDate",
              "type": "uint256"
            },
            {
              "internalType": "uint256",
              "name": "cycleAnchorDateOfInterestPayment",
              "type": "uint256"
            },
            {
              "internalType": "uint256",
              "name": "cycleAnchorDateOfRateReset",
              "type": "uint256"
            },
            {
              "internalType": "uint256",
              "name": "cycleAnchorDateOfScalingIndex",
              "type": "uint256"
            },
            {
              "internalType": "uint256",
              "name": "cycleAnchorDateOfFee",
              "type": "uint256"
            },
            {
              "internalType": "uint256",
              "name": "cycleAnchorDateOfPrincipalRedemption",
              "type": "uint256"
            },
            {
              "internalType": "int256",
              "name": "notionalPrincipal",
              "type": "int256"
            },
            {
              "internalType": "int256",
              "name": "nominalInterestRate",
              "type": "int256"
            },
            {
              "internalType": "int256",
              "name": "accruedInterest",
              "type": "int256"
            },
            {
              "internalType": "int256",
              "name": "rateMultiplier",
              "type": "int256"
            },
            {
              "internalType": "int256",
              "name": "rateSpread",
              "type": "int256"
            },
            {
              "internalType": "int256",
              "name": "nextResetRate",
              "type": "int256"
            },
            {
              "internalType": "int256",
              "name": "feeRate",
              "type": "int256"
            },
            {
              "internalType": "int256",
              "name": "feeAccrued",
              "type": "int256"
            },
            {
              "internalType": "int256",
              "name": "premiumDiscountAtIED",
              "type": "int256"
            },
            {
              "internalType": "int256",
              "name": "priceAtPurchaseDate",
              "type": "int256"
            },
            {
              "internalType": "int256",
              "name": "priceAtTerminationDate",
              "type": "int256"
            },
            {
              "internalType": "int256",
              "name": "nextPrincipalRedemptionPayment",
              "type": "int256"
            },
            {
              "internalType": "int256",
              "name": "lifeCap",
              "type": "int256"
            },
            {
              "internalType": "int256",
              "name": "lifeFloor",
              "type": "int256"
            },
            {
              "internalType": "int256",
              "name": "periodCap",
              "type": "int256"
            },
            {
              "internalType": "int256",
              "name": "periodFloor",
              "type": "int256"
            },
            {
              "components": [
                {
                  "internalType": "uint256",
                  "name": "i",
                  "type": "uint256"
                },
                {
                  "internalType": "enum P",
                  "name": "p",
                  "type": "uint8"
                },
                {
                  "internalType": "bool",
                  "name": "isSet",
                  "type": "bool"
                }
              ],
              "internalType": "struct IP",
              "name": "gracePeriod",
              "type": "tuple"
            },
            {
              "components": [
                {
                  "internalType": "uint256",
                  "name": "i",
                  "type": "uint256"
                },
                {
                  "internalType": "enum P",
                  "name": "p",
                  "type": "uint8"
                },
                {
                  "internalType": "bool",
                  "name": "isSet",
                  "type": "bool"
                }
              ],
              "internalType": "struct IP",
              "name": "delinquencyPeriod",
              "type": "tuple"
            },
            {
              "components": [
                {
                  "internalType": "uint256",
                  "name": "i",
                  "type": "uint256"
                },
                {
                  "internalType": "enum P",
                  "name": "p",
                  "type": "uint8"
                },
                {
                  "internalType": "enum S",
                  "name": "s",
                  "type": "uint8"
                },
                {
                  "internalType": "bool",
                  "name": "isSet",
                  "type": "bool"
                }
              ],
              "internalType": "struct IPS",
              "name": "cycleOfInterestPayment",
              "type": "tuple"
            },
            {
              "components": [
                {
                  "internalType": "uint256",
                  "name": "i",
                  "type": "uint256"
                },
                {
                  "internalType": "enum P",
                  "name": "p",
                  "type": "uint8"
                },
                {
                  "internalType": "enum S",
                  "name": "s",
                  "type": "uint8"
                },
                {
                  "internalType": "bool",
                  "name": "isSet",
                  "type": "bool"
                }
              ],
              "internalType": "struct IPS",
              "name": "cycleOfRateReset",
              "type": "tuple"
            },
            {
              "components": [
                {
                  "internalType": "uint256",
                  "name": "i",
                  "type": "uint256"
                },
                {
                  "internalType": "enum P",
                  "name": "p",
                  "type": "uint8"
                },
                {
                  "internalType": "enum S",
                  "name": "s",
                  "type": "uint8"
                },
                {
                  "internalType": "bool",
                  "name": "isSet",
                  "type": "bool"
                }
              ],
              "internalType": "struct IPS",
              "name": "cycleOfScalingIndex",
              "type": "tuple"
            },
            {
              "components": [
                {
                  "internalType": "uint256",
                  "name": "i",
                  "type": "uint256"
                },
                {
                  "internalType": "enum P",
                  "name": "p",
                  "type": "uint8"
                },
                {
                  "internalType": "enum S",
                  "name": "s",
                  "type": "uint8"
                },
                {
                  "internalType": "bool",
                  "name": "isSet",
                  "type": "bool"
                }
              ],
              "internalType": "struct IPS",
              "name": "cycleOfFee",
              "type": "tuple"
            },
            {
              "components": [
                {
                  "internalType": "uint256",
                  "name": "i",
                  "type": "uint256"
                },
                {
                  "internalType": "enum P",
                  "name": "p",
                  "type": "uint8"
                },
                {
                  "internalType": "enum S",
                  "name": "s",
                  "type": "uint8"
                },
                {
                  "internalType": "bool",
                  "name": "isSet",
                  "type": "bool"
                }
              ],
              "internalType": "struct IPS",
              "name": "cycleOfPrincipalRedemption",
              "type": "tuple"
            }
          ],
          "internalType": "struct ANNTerms",
          "name": "",
          "type": "tuple"
        }
      ],
      "stateMutability": "view",
      "type": "function"
    },
    {
      "inputs": [
        {
          "internalType": "bytes32",
          "name": "assetId",
          "type": "bytes32"
        },
        {
          "internalType": "bytes32",
          "name": "attribute",
          "type": "bytes32"
        }
      ],
      "name": "getUIntValueForTermsAttribute",
      "outputs": [
        {
          "internalType": "uint256",
          "name": "",
          "type": "uint256"
        }
      ],
      "stateMutability": "view",
      "type": "function"
    },
    {
      "inputs": [
        {
          "internalType": "bytes32",
          "name": "assetId",
          "type": "bytes32"
        },
        {
          "internalType": "bytes32",
          "name": "attribute",
          "type": "bytes32"
        }
      ],
      "name": "getUintValueForStateAttribute",
      "outputs": [
        {
          "internalType": "uint256",
          "name": "",
          "type": "uint256"
        }
      ],
      "stateMutability": "view",
      "type": "function"
    },
    {
      "inputs": [
        {
          "internalType": "bytes32",
          "name": "assetId",
          "type": "bytes32"
        },
        {
          "internalType": "bytes4",
          "name": "methodSignature",
          "type": "bytes4"
        },
        {
          "internalType": "address",
          "name": "account",
          "type": "address"
        }
      ],
      "name": "grantAccess",
      "outputs": [],
      "stateMutability": "nonpayable",
      "type": "function"
    },
    {
      "inputs": [
        {
          "internalType": "bytes32",
          "name": "assetId",
          "type": "bytes32"
        },
        {
          "internalType": "bytes4",
          "name": "methodSignature",
          "type": "bytes4"
        },
        {
          "internalType": "address",
          "name": "account",
          "type": "address"
        }
      ],
      "name": "hasAccess",
      "outputs": [
        {
          "internalType": "bool",
          "name": "",
          "type": "bool"
        }
      ],
      "stateMutability": "view",
      "type": "function"
    },
    {
      "inputs": [
        {
          "internalType": "bytes32",
          "name": "assetId",
          "type": "bytes32"
        },
        {
          "internalType": "address",
          "name": "account",
          "type": "address"
        }
      ],
      "name": "hasRootAccess",
      "outputs": [
        {
          "internalType": "bool",
          "name": "",
          "type": "bool"
        }
      ],
      "stateMutability": "view",
      "type": "function"
    },
    {
      "inputs": [
        {
          "internalType": "bytes32",
          "name": "assetId",
          "type": "bytes32"
        },
        {
          "internalType": "bytes32",
          "name": "_event",
          "type": "bytes32"
        }
      ],
      "name": "isEventSettled",
      "outputs": [
        {
          "internalType": "bool",
          "name": "",
          "type": "bool"
        },
        {
          "internalType": "int256",
          "name": "",
          "type": "int256"
        }
      ],
      "stateMutability": "view",
      "type": "function"
    },
    {
      "inputs": [
        {
          "internalType": "bytes32",
          "name": "assetId",
          "type": "bytes32"
        }
      ],
      "name": "isRegistered",
      "outputs": [
        {
          "internalType": "bool",
          "name": "",
          "type": "bool"
        }
      ],
      "stateMutability": "view",
      "type": "function"
    },
    {
      "inputs": [
        {
          "internalType": "bytes32",
          "name": "assetId",
          "type": "bytes32"
        },
        {
          "internalType": "bytes32",
          "name": "_event",
          "type": "bytes32"
        },
        {
          "internalType": "int256",
          "name": "_payoff",
          "type": "int256"
        }
      ],
      "name": "markEventAsSettled",
      "outputs": [],
      "stateMutability": "nonpayable",
      "type": "function"
    },
    {
      "inputs": [],
      "name": "owner",
      "outputs": [
        {
          "internalType": "address",
          "name": "",
          "type": "address"
        }
      ],
      "stateMutability": "view",
      "type": "function"
    },
    {
      "inputs": [
        {
          "internalType": "bytes32",
          "name": "assetId",
          "type": "bytes32"
        }
      ],
      "name": "popNextScheduledEvent",
      "outputs": [
        {
          "internalType": "bytes32",
          "name": "",
          "type": "bytes32"
        }
      ],
      "stateMutability": "nonpayable",
      "type": "function"
    },
    {
      "inputs": [
        {
          "internalType": "bytes32",
          "name": "assetId",
          "type": "bytes32"
        }
      ],
      "name": "popPendingEvent",
      "outputs": [
        {
          "internalType": "bytes32",
          "name": "",
          "type": "bytes32"
        }
      ],
      "stateMutability": "nonpayable",
      "type": "function"
    },
    {
      "inputs": [
        {
          "internalType": "bytes32",
          "name": "assetId",
          "type": "bytes32"
        },
        {
          "internalType": "bytes32",
          "name": "pendingEvent",
          "type": "bytes32"
        }
      ],
      "name": "pushPendingEvent",
      "outputs": [],
      "stateMutability": "nonpayable",
      "type": "function"
    },
    {
      "inputs": [
        {
          "internalType": "bytes32",
          "name": "assetId",
          "type": "bytes32"
        },
        {
          "components": [
            {
              "internalType": "enum ContractType",
              "name": "contractType",
              "type": "uint8"
            },
            {
              "internalType": "enum Calendar",
              "name": "calendar",
              "type": "uint8"
            },
            {
              "internalType": "enum ContractRole",
              "name": "contractRole",
              "type": "uint8"
            },
            {
              "internalType": "enum DayCountConvention",
              "name": "dayCountConvention",
              "type": "uint8"
            },
            {
              "internalType": "enum BusinessDayConvention",
              "name": "businessDayConvention",
              "type": "uint8"
            },
            {
              "internalType": "enum EndOfMonthConvention",
              "name": "endOfMonthConvention",
              "type": "uint8"
            },
            {
              "internalType": "enum ScalingEffect",
              "name": "scalingEffect",
              "type": "uint8"
            },
            {
              "internalType": "enum FeeBasis",
              "name": "feeBasis",
              "type": "uint8"
            },
            {
              "internalType": "address",
              "name": "currency",
              "type": "address"
            },
            {
              "internalType": "address",
              "name": "settlementCurrency",
              "type": "address"
            },
            {
              "internalType": "bytes32",
              "name": "marketObjectCodeRateReset",
              "type": "bytes32"
            },
            {
              "internalType": "uint256",
              "name": "statusDate",
              "type": "uint256"
            },
            {
              "internalType": "uint256",
              "name": "initialExchangeDate",
              "type": "uint256"
            },
            {
              "internalType": "uint256",
              "name": "maturityDate",
              "type": "uint256"
            },
            {
              "internalType": "uint256",
              "name": "issueDate",
              "type": "uint256"
            },
            {
              "internalType": "uint256",
              "name": "purchaseDate",
              "type": "uint256"
            },
            {
              "internalType": "uint256",
              "name": "capitalizationEndDate",
              "type": "uint256"
            },
            {
              "internalType": "uint256",
              "name": "cycleAnchorDateOfInterestPayment",
              "type": "uint256"
            },
            {
              "internalType": "uint256",
              "name": "cycleAnchorDateOfRateReset",
              "type": "uint256"
            },
            {
              "internalType": "uint256",
              "name": "cycleAnchorDateOfScalingIndex",
              "type": "uint256"
            },
            {
              "internalType": "uint256",
              "name": "cycleAnchorDateOfFee",
              "type": "uint256"
            },
            {
              "internalType": "uint256",
              "name": "cycleAnchorDateOfPrincipalRedemption",
              "type": "uint256"
            },
            {
              "internalType": "int256",
              "name": "notionalPrincipal",
              "type": "int256"
            },
            {
              "internalType": "int256",
              "name": "nominalInterestRate",
              "type": "int256"
            },
            {
              "internalType": "int256",
              "name": "accruedInterest",
              "type": "int256"
            },
            {
              "internalType": "int256",
              "name": "rateMultiplier",
              "type": "int256"
            },
            {
              "internalType": "int256",
              "name": "rateSpread",
              "type": "int256"
            },
            {
              "internalType": "int256",
              "name": "nextResetRate",
              "type": "int256"
            },
            {
              "internalType": "int256",
              "name": "feeRate",
              "type": "int256"
            },
            {
              "internalType": "int256",
              "name": "feeAccrued",
              "type": "int256"
            },
            {
              "internalType": "int256",
              "name": "premiumDiscountAtIED",
              "type": "int256"
            },
            {
              "internalType": "int256",
              "name": "priceAtPurchaseDate",
              "type": "int256"
            },
            {
              "internalType": "int256",
              "name": "priceAtTerminationDate",
              "type": "int256"
            },
            {
              "internalType": "int256",
              "name": "nextPrincipalRedemptionPayment",
              "type": "int256"
            },
            {
              "internalType": "int256",
              "name": "lifeCap",
              "type": "int256"
            },
            {
              "internalType": "int256",
              "name": "lifeFloor",
              "type": "int256"
            },
            {
              "internalType": "int256",
              "name": "periodCap",
              "type": "int256"
            },
            {
              "internalType": "int256",
              "name": "periodFloor",
              "type": "int256"
            },
            {
              "components": [
                {
                  "internalType": "uint256",
                  "name": "i",
                  "type": "uint256"
                },
                {
                  "internalType": "enum P",
                  "name": "p",
                  "type": "uint8"
                },
                {
                  "internalType": "bool",
                  "name": "isSet",
                  "type": "bool"
                }
              ],
              "internalType": "struct IP",
              "name": "gracePeriod",
              "type": "tuple"
            },
            {
              "components": [
                {
                  "internalType": "uint256",
                  "name": "i",
                  "type": "uint256"
                },
                {
                  "internalType": "enum P",
                  "name": "p",
                  "type": "uint8"
                },
                {
                  "internalType": "bool",
                  "name": "isSet",
                  "type": "bool"
                }
              ],
              "internalType": "struct IP",
              "name": "delinquencyPeriod",
              "type": "tuple"
            },
            {
              "components": [
                {
                  "internalType": "uint256",
                  "name": "i",
                  "type": "uint256"
                },
                {
                  "internalType": "enum P",
                  "name": "p",
                  "type": "uint8"
                },
                {
                  "internalType": "enum S",
                  "name": "s",
                  "type": "uint8"
                },
                {
                  "internalType": "bool",
                  "name": "isSet",
                  "type": "bool"
                }
              ],
              "internalType": "struct IPS",
              "name": "cycleOfInterestPayment",
              "type": "tuple"
            },
            {
              "components": [
                {
                  "internalType": "uint256",
                  "name": "i",
                  "type": "uint256"
                },
                {
                  "internalType": "enum P",
                  "name": "p",
                  "type": "uint8"
                },
                {
                  "internalType": "enum S",
                  "name": "s",
                  "type": "uint8"
                },
                {
                  "internalType": "bool",
                  "name": "isSet",
                  "type": "bool"
                }
              ],
              "internalType": "struct IPS",
              "name": "cycleOfRateReset",
              "type": "tuple"
            },
            {
              "components": [
                {
                  "internalType": "uint256",
                  "name": "i",
                  "type": "uint256"
                },
                {
                  "internalType": "enum P",
                  "name": "p",
                  "type": "uint8"
                },
                {
                  "internalType": "enum S",
                  "name": "s",
                  "type": "uint8"
                },
                {
                  "internalType": "bool",
                  "name": "isSet",
                  "type": "bool"
                }
              ],
              "internalType": "struct IPS",
              "name": "cycleOfScalingIndex",
              "type": "tuple"
            },
            {
              "components": [
                {
                  "internalType": "uint256",
                  "name": "i",
                  "type": "uint256"
                },
                {
                  "internalType": "enum P",
                  "name": "p",
                  "type": "uint8"
                },
                {
                  "internalType": "enum S",
                  "name": "s",
                  "type": "uint8"
                },
                {
                  "internalType": "bool",
                  "name": "isSet",
                  "type": "bool"
                }
              ],
              "internalType": "struct IPS",
              "name": "cycleOfFee",
              "type": "tuple"
            },
            {
              "components": [
                {
                  "internalType": "uint256",
                  "name": "i",
                  "type": "uint256"
                },
                {
                  "internalType": "enum P",
                  "name": "p",
                  "type": "uint8"
                },
                {
                  "internalType": "enum S",
                  "name": "s",
                  "type": "uint8"
                },
                {
                  "internalType": "bool",
                  "name": "isSet",
                  "type": "bool"
                }
              ],
              "internalType": "struct IPS",
              "name": "cycleOfPrincipalRedemption",
              "type": "tuple"
            }
          ],
          "internalType": "struct ANNTerms",
          "name": "terms",
          "type": "tuple"
        },
        {
          "components": [
            {
              "internalType": "enum ContractPerformance",
              "name": "contractPerformance",
              "type": "uint8"
            },
            {
              "internalType": "uint256",
              "name": "statusDate",
              "type": "uint256"
            },
            {
              "internalType": "uint256",
              "name": "nonPerformingDate",
              "type": "uint256"
            },
            {
              "internalType": "uint256",
              "name": "maturityDate",
              "type": "uint256"
            },
            {
              "internalType": "uint256",
              "name": "terminationDate",
              "type": "uint256"
            },
            {
              "internalType": "int256",
              "name": "notionalPrincipal",
              "type": "int256"
            },
            {
              "internalType": "int256",
              "name": "accruedInterest",
              "type": "int256"
            },
            {
              "internalType": "int256",
              "name": "feeAccrued",
              "type": "int256"
            },
            {
              "internalType": "int256",
              "name": "nominalInterestRate",
              "type": "int256"
            },
            {
              "internalType": "int256",
              "name": "interestScalingMultiplier",
              "type": "int256"
            },
            {
              "internalType": "int256",
              "name": "notionalScalingMultiplier",
              "type": "int256"
            },
            {
              "internalType": "int256",
              "name": "nextPrincipalRedemptionPayment",
              "type": "int256"
            }
          ],
          "internalType": "struct ANNState",
          "name": "state",
          "type": "tuple"
        },
        {
          "internalType": "bytes32[]",
          "name": "schedule",
          "type": "bytes32[]"
        },
        {
          "components": [
            {
              "internalType": "address",
              "name": "creatorObligor",
              "type": "address"
            },
            {
              "internalType": "address",
              "name": "creatorBeneficiary",
              "type": "address"
            },
            {
              "internalType": "address",
              "name": "counterpartyObligor",
              "type": "address"
            },
            {
              "internalType": "address",
              "name": "counterpartyBeneficiary",
              "type": "address"
            }
          ],
          "internalType": "struct AssetOwnership",
          "name": "ownership",
          "type": "tuple"
        },
        {
          "internalType": "address",
          "name": "engine",
          "type": "address"
        },
        {
          "internalType": "address",
          "name": "actor",
          "type": "address"
        },
        {
          "internalType": "address",
          "name": "admin",
          "type": "address"
        },
        {
          "internalType": "address",
          "name": "extension",
          "type": "address"
        }
      ],
      "name": "registerAsset",
      "outputs": [],
      "stateMutability": "nonpayable",
      "type": "function"
    },
    {
      "inputs": [],
      "name": "renounceOwnership",
      "outputs": [],
      "stateMutability": "nonpayable",
      "type": "function"
    },
    {
      "inputs": [
        {
          "internalType": "bytes32",
          "name": "assetId",
          "type": "bytes32"
        },
        {
          "internalType": "bytes4",
          "name": "methodSignature",
          "type": "bytes4"
        },
        {
          "internalType": "address",
          "name": "account",
          "type": "address"
        }
      ],
      "name": "revokeAccess",
      "outputs": [],
      "stateMutability": "nonpayable",
      "type": "function"
    },
    {
      "inputs": [
        {
          "internalType": "bytes32",
          "name": "assetId",
          "type": "bytes32"
        },
        {
          "internalType": "address",
          "name": "actor",
          "type": "address"
        }
      ],
      "name": "setActor",
      "outputs": [],
      "stateMutability": "nonpayable",
      "type": "function"
    },
    {
      "inputs": [
        {
          "internalType": "bytes32",
          "name": "assetId",
          "type": "bytes32"
        },
        {
          "internalType": "address",
          "name": "newCounterpartyBeneficiary",
          "type": "address"
        }
      ],
      "name": "setCounterpartyBeneficiary",
      "outputs": [],
      "stateMutability": "nonpayable",
      "type": "function"
    },
    {
      "inputs": [
        {
          "internalType": "bytes32",
          "name": "assetId",
          "type": "bytes32"
        },
        {
          "internalType": "address",
          "name": "newCounterpartyObligor",
          "type": "address"
        }
      ],
      "name": "setCounterpartyObligor",
      "outputs": [],
      "stateMutability": "nonpayable",
      "type": "function"
    },
    {
      "inputs": [
        {
          "internalType": "bytes32",
          "name": "assetId",
          "type": "bytes32"
        },
        {
          "internalType": "address",
          "name": "newCreatorBeneficiary",
          "type": "address"
        }
      ],
      "name": "setCreatorBeneficiary",
      "outputs": [],
      "stateMutability": "nonpayable",
      "type": "function"
    },
    {
      "inputs": [
        {
          "internalType": "bytes32",
          "name": "assetId",
          "type": "bytes32"
        },
        {
          "internalType": "address",
          "name": "newCreatorObligor",
          "type": "address"
        }
      ],
      "name": "setCreatorObligor",
      "outputs": [],
      "stateMutability": "nonpayable",
      "type": "function"
    },
    {
      "inputs": [
        {
          "internalType": "bytes32",
          "name": "assetId",
          "type": "bytes32"
        },
        {
          "internalType": "address",
          "name": "engine",
          "type": "address"
        }
      ],
      "name": "setEngine",
      "outputs": [],
      "stateMutability": "nonpayable",
      "type": "function"
    },
    {
      "inputs": [
        {
          "internalType": "bytes32",
          "name": "assetId",
          "type": "bytes32"
        },
        {
          "internalType": "address",
          "name": "extension",
          "type": "address"
        }
      ],
      "name": "setExtension",
      "outputs": [],
      "stateMutability": "nonpayable",
      "type": "function"
    },
    {
      "inputs": [
        {
          "internalType": "bytes32",
          "name": "assetId",
          "type": "bytes32"
        },
        {
          "components": [
            {
              "internalType": "enum ContractPerformance",
              "name": "contractPerformance",
              "type": "uint8"
            },
            {
              "internalType": "uint256",
              "name": "statusDate",
              "type": "uint256"
            },
            {
              "internalType": "uint256",
              "name": "nonPerformingDate",
              "type": "uint256"
            },
            {
              "internalType": "uint256",
              "name": "maturityDate",
              "type": "uint256"
            },
            {
              "internalType": "uint256",
              "name": "terminationDate",
              "type": "uint256"
            },
            {
              "internalType": "int256",
              "name": "notionalPrincipal",
              "type": "int256"
            },
            {
              "internalType": "int256",
              "name": "accruedInterest",
              "type": "int256"
            },
            {
              "internalType": "int256",
              "name": "feeAccrued",
              "type": "int256"
            },
            {
              "internalType": "int256",
              "name": "nominalInterestRate",
              "type": "int256"
            },
            {
              "internalType": "int256",
              "name": "interestScalingMultiplier",
              "type": "int256"
            },
            {
              "internalType": "int256",
              "name": "notionalScalingMultiplier",
              "type": "int256"
            },
            {
              "internalType": "int256",
              "name": "nextPrincipalRedemptionPayment",
              "type": "int256"
            }
          ],
          "internalType": "struct ANNState",
          "name": "state",
          "type": "tuple"
        }
      ],
      "name": "setFinalizedState",
      "outputs": [],
      "stateMutability": "nonpayable",
      "type": "function"
    },
    {
      "inputs": [
        {
          "internalType": "bytes32",
          "name": "assetId",
          "type": "bytes32"
        },
        {
          "components": [
            {
              "internalType": "enum ContractPerformance",
              "name": "contractPerformance",
              "type": "uint8"
            },
            {
              "internalType": "uint256",
              "name": "statusDate",
              "type": "uint256"
            },
            {
              "internalType": "uint256",
              "name": "nonPerformingDate",
              "type": "uint256"
            },
            {
              "internalType": "uint256",
              "name": "maturityDate",
              "type": "uint256"
            },
            {
              "internalType": "uint256",
              "name": "terminationDate",
              "type": "uint256"
            },
            {
              "internalType": "int256",
              "name": "notionalPrincipal",
              "type": "int256"
            },
            {
              "internalType": "int256",
              "name": "accruedInterest",
              "type": "int256"
            },
            {
              "internalType": "int256",
              "name": "feeAccrued",
              "type": "int256"
            },
            {
              "internalType": "int256",
              "name": "nominalInterestRate",
              "type": "int256"
            },
            {
              "internalType": "int256",
              "name": "interestScalingMultiplier",
              "type": "int256"
            },
            {
              "internalType": "int256",
              "name": "notionalScalingMultiplier",
              "type": "int256"
            },
            {
              "internalType": "int256",
              "name": "nextPrincipalRedemptionPayment",
              "type": "int256"
            }
          ],
          "internalType": "struct ANNState",
          "name": "state",
          "type": "tuple"
        }
      ],
      "name": "setState",
      "outputs": [],
      "stateMutability": "nonpayable",
      "type": "function"
    },
    {
      "inputs": [
        {
          "internalType": "bytes32",
          "name": "assetId",
          "type": "bytes32"
        },
        {
          "components": [
            {
              "internalType": "enum ContractType",
              "name": "contractType",
              "type": "uint8"
            },
            {
              "internalType": "enum Calendar",
              "name": "calendar",
              "type": "uint8"
            },
            {
              "internalType": "enum ContractRole",
              "name": "contractRole",
              "type": "uint8"
            },
            {
              "internalType": "enum DayCountConvention",
              "name": "dayCountConvention",
              "type": "uint8"
            },
            {
              "internalType": "enum BusinessDayConvention",
              "name": "businessDayConvention",
              "type": "uint8"
            },
            {
              "internalType": "enum EndOfMonthConvention",
              "name": "endOfMonthConvention",
              "type": "uint8"
            },
            {
              "internalType": "enum ScalingEffect",
              "name": "scalingEffect",
              "type": "uint8"
            },
            {
              "internalType": "enum FeeBasis",
              "name": "feeBasis",
              "type": "uint8"
            },
            {
              "internalType": "address",
              "name": "currency",
              "type": "address"
            },
            {
              "internalType": "address",
              "name": "settlementCurrency",
              "type": "address"
            },
            {
              "internalType": "bytes32",
              "name": "marketObjectCodeRateReset",
              "type": "bytes32"
            },
            {
              "internalType": "uint256",
              "name": "statusDate",
              "type": "uint256"
            },
            {
              "internalType": "uint256",
              "name": "initialExchangeDate",
              "type": "uint256"
            },
            {
              "internalType": "uint256",
              "name": "maturityDate",
              "type": "uint256"
            },
            {
              "internalType": "uint256",
              "name": "issueDate",
              "type": "uint256"
            },
            {
              "internalType": "uint256",
              "name": "purchaseDate",
              "type": "uint256"
            },
            {
              "internalType": "uint256",
              "name": "capitalizationEndDate",
              "type": "uint256"
            },
            {
              "internalType": "uint256",
              "name": "cycleAnchorDateOfInterestPayment",
              "type": "uint256"
            },
            {
              "internalType": "uint256",
              "name": "cycleAnchorDateOfRateReset",
              "type": "uint256"
            },
            {
              "internalType": "uint256",
              "name": "cycleAnchorDateOfScalingIndex",
              "type": "uint256"
            },
            {
              "internalType": "uint256",
              "name": "cycleAnchorDateOfFee",
              "type": "uint256"
            },
            {
              "internalType": "uint256",
              "name": "cycleAnchorDateOfPrincipalRedemption",
              "type": "uint256"
            },
            {
              "internalType": "int256",
              "name": "notionalPrincipal",
              "type": "int256"
            },
            {
              "internalType": "int256",
              "name": "nominalInterestRate",
              "type": "int256"
            },
            {
              "internalType": "int256",
              "name": "accruedInterest",
              "type": "int256"
            },
            {
              "internalType": "int256",
              "name": "rateMultiplier",
              "type": "int256"
            },
            {
              "internalType": "int256",
              "name": "rateSpread",
              "type": "int256"
            },
            {
              "internalType": "int256",
              "name": "nextResetRate",
              "type": "int256"
            },
            {
              "internalType": "int256",
              "name": "feeRate",
              "type": "int256"
            },
            {
              "internalType": "int256",
              "name": "feeAccrued",
              "type": "int256"
            },
            {
              "internalType": "int256",
              "name": "premiumDiscountAtIED",
              "type": "int256"
            },
            {
              "internalType": "int256",
              "name": "priceAtPurchaseDate",
              "type": "int256"
            },
            {
              "internalType": "int256",
              "name": "priceAtTerminationDate",
              "type": "int256"
            },
            {
              "internalType": "int256",
              "name": "nextPrincipalRedemptionPayment",
              "type": "int256"
            },
            {
              "internalType": "int256",
              "name": "lifeCap",
              "type": "int256"
            },
            {
              "internalType": "int256",
              "name": "lifeFloor",
              "type": "int256"
            },
            {
              "internalType": "int256",
              "name": "periodCap",
              "type": "int256"
            },
            {
              "internalType": "int256",
              "name": "periodFloor",
              "type": "int256"
            },
            {
              "components": [
                {
                  "internalType": "uint256",
                  "name": "i",
                  "type": "uint256"
                },
                {
                  "internalType": "enum P",
                  "name": "p",
                  "type": "uint8"
                },
                {
                  "internalType": "bool",
                  "name": "isSet",
                  "type": "bool"
                }
              ],
              "internalType": "struct IP",
              "name": "gracePeriod",
              "type": "tuple"
            },
            {
              "components": [
                {
                  "internalType": "uint256",
                  "name": "i",
                  "type": "uint256"
                },
                {
                  "internalType": "enum P",
                  "name": "p",
                  "type": "uint8"
                },
                {
                  "internalType": "bool",
                  "name": "isSet",
                  "type": "bool"
                }
              ],
              "internalType": "struct IP",
              "name": "delinquencyPeriod",
              "type": "tuple"
            },
            {
              "components": [
                {
                  "internalType": "uint256",
                  "name": "i",
                  "type": "uint256"
                },
                {
                  "internalType": "enum P",
                  "name": "p",
                  "type": "uint8"
                },
                {
                  "internalType": "enum S",
                  "name": "s",
                  "type": "uint8"
                },
                {
                  "internalType": "bool",
                  "name": "isSet",
                  "type": "bool"
                }
              ],
              "internalType": "struct IPS",
              "name": "cycleOfInterestPayment",
              "type": "tuple"
            },
            {
              "components": [
                {
                  "internalType": "uint256",
                  "name": "i",
                  "type": "uint256"
                },
                {
                  "internalType": "enum P",
                  "name": "p",
                  "type": "uint8"
                },
                {
                  "internalType": "enum S",
                  "name": "s",
                  "type": "uint8"
                },
                {
                  "internalType": "bool",
                  "name": "isSet",
                  "type": "bool"
                }
              ],
              "internalType": "struct IPS",
              "name": "cycleOfRateReset",
              "type": "tuple"
            },
            {
              "components": [
                {
                  "internalType": "uint256",
                  "name": "i",
                  "type": "uint256"
                },
                {
                  "internalType": "enum P",
                  "name": "p",
                  "type": "uint8"
                },
                {
                  "internalType": "enum S",
                  "name": "s",
                  "type": "uint8"
                },
                {
                  "internalType": "bool",
                  "name": "isSet",
                  "type": "bool"
                }
              ],
              "internalType": "struct IPS",
              "name": "cycleOfScalingIndex",
              "type": "tuple"
            },
            {
              "components": [
                {
                  "internalType": "uint256",
                  "name": "i",
                  "type": "uint256"
                },
                {
                  "internalType": "enum P",
                  "name": "p",
                  "type": "uint8"
                },
                {
                  "internalType": "enum S",
                  "name": "s",
                  "type": "uint8"
                },
                {
                  "internalType": "bool",
                  "name": "isSet",
                  "type": "bool"
                }
              ],
              "internalType": "struct IPS",
              "name": "cycleOfFee",
              "type": "tuple"
            },
            {
              "components": [
                {
                  "internalType": "uint256",
                  "name": "i",
                  "type": "uint256"
                },
                {
                  "internalType": "enum P",
                  "name": "p",
                  "type": "uint8"
                },
                {
                  "internalType": "enum S",
                  "name": "s",
                  "type": "uint8"
                },
                {
                  "internalType": "bool",
                  "name": "isSet",
                  "type": "bool"
                }
              ],
              "internalType": "struct IPS",
              "name": "cycleOfPrincipalRedemption",
              "type": "tuple"
            }
          ],
          "internalType": "struct ANNTerms",
          "name": "terms",
          "type": "tuple"
        }
      ],
      "name": "setTerms",
      "outputs": [],
      "stateMutability": "nonpayable",
      "type": "function"
    },
    {
      "inputs": [
        {
          "internalType": "address",
          "name": "newOwner",
          "type": "address"
        }
      ],
      "name": "transferOwnership",
      "outputs": [],
      "stateMutability": "nonpayable",
      "type": "function"
    }
  ],
  "transactionHash": "0x26256635497e9d17c407b0da75ca32ca928960e1b44295ae4fde709dda19a3a0",
  "args": [],
  "solcInputHash": "37e2a100a6f868553298dee57e286371",
  "bytecode": "0x60806040523480156200001157600080fd5b5060006200001e6200006e565b600080546001600160a01b0319166001600160a01b0383169081178255604051929350917f8be0079c531659141344cd1fd0a4f28419497f9722a3daafe3b4186f6b6457e0908290a35062000072565b3390565b614cc880620000826000396000f3fe608060405234801561001057600080fd5b50600436106103415760003560e01c80638eb3546c116101b8578063cf5aed1211610104578063e7dc3188116100a2578063ecef55771161007c578063ecef55771461079c578063ee43eda1146107af578063f2fde38b146107c2578063f52f84e1146107d557610341565b8063e7dc318814610763578063e8f7ca3e14610776578063eb0125591461078957610341565b8063d981e773116100de578063d981e7731461070a578063de07a1731461071d578063e05a66e014610730578063e50e0ef71461074357610341565b8063cf5aed12146106c4578063d1250069146106e4578063d51dc3dc146106f757610341565b8063b828204111610171578063bd1f0a6c1161014b578063bd1f0a6c14610678578063c139626b1461068b578063c3b6e7c21461069e578063ccfc347e146106b157610341565b8063b828204114610624578063ba4d2d2814610637578063bc6a7d761461065857610341565b80638eb3546c146105a5578063a17b75b5146105b8578063b02ca0c0146105cb578063b0b4888f146105de578063b3c45ebe146105fe578063b461dd4f1461061157610341565b806339262e87116102925780636fe55baa1161023057806375e86ae41161020a57806375e86ae414610557578063811322fb1461056a57806383e2a7701461057d5780638da5cb5b1461059057610341565b80636fe55baa1461050e578063715018a61461052e578063725400031461053657610341565b80636031a0941161026c5780636031a094146104b5578063606aa07e146104c85780636a899b9b146104db5780636be39bda146104ee57610341565b806339262e871461046f5780633adc277a14610482578063512872f4146104a257610341565b8063135b9f4d116102ff57806327258b22116102d957806327258b221461042357806328e0f8a9146104365780633549d08d1461044957806337462dba1461045c57610341565b8063135b9f4d146103dd5780631717e867146103f05780631b1268151461040357610341565b8062c19c2b1461034657806303a81a2a1461035b57806309648a9d1461036e5780630c5b75a4146103975780630d62037a146103b75780630d799b85146103ca575b600080fd5b6103596103543660046136e5565b6107e8565b005b6103596103693660046135f0565b6108f1565b61038161037c3660046135c0565b6109bd565b60405161038e9190614659565b60405180910390f35b6103aa6103a53660046135c0565b610a63565b60405161038e9190614109565b6103596103c53660046135f0565b610ada565b6103596103d83660046135f0565b610b7f565b6103aa6103eb36600461361f565b610c3d565b6103596103fe36600461366b565b610cdc565b61041661041136600461366b565b610d92565b60405161038e91906140ee565b6104166104313660046135c0565b610e0f565b6103aa6104443660046135c0565b610e24565b6103596104573660046135f0565b610e39565b61038161046a3660046135c0565b610f14565b61035961047d36600461366b565b610f61565b6104956104903660046135c0565b611006565b60405161038e91906140aa565b6103596104b03660046135f0565b611020565b6103596104c33660046135f0565b6110e7565b6103aa6104d636600461361f565b6111c2565b6103aa6104e936600461361f565b611208565b6105016104fc3660046135c0565b61124e565b60405161038e91906146e9565b61052161051c36600461361f565b6112ec565b60405161038e9190614b5f565b61035961138b565b6105496105443660046135c0565b61143f565b60405161038e9291906141ce565b6103aa6105653660046135c0565b611468565b6103aa610578366004613801565b61183c565b61035961058b366004613709565b61184a565b610598611a38565b60405161038e919061407c565b6103596105b33660046136b8565b611a47565b6103aa6105c63660046135c0565b611b58565b6103aa6105d936600461361f565b611b6d565b6105f16105ec36600461361f565b611b8e565b60405161038e9190614b51565b61059861060c3660046135c0565b611c2d565b6103aa61061f36600461361f565b611c4c565b6103aa6106323660046135c0565b611c92565b61064a61064536600461361f565b611cf6565b60405161038e9291906140f9565b61066b61066636600461361f565b611d20565b60405161038e9190614b10565b6103596106863660046135f0565b611dbf565b6105986106993660046135c0565b611e57565b6103aa6106ac3660046135c0565b611e75565b6104166106bf36600461356c565b611fae565b6106d76106d236600461361f565b611fc3565b60405161038e9190614b6d565b6103596106f23660046136b8565b612059565b6103aa61070536600461361f565b61215d565b61035961071836600461361f565b6121a2565b61035961072b366004613640565b612211565b6103aa61073e36600461381b565b6122ad565b6107566107513660046135c0565b6122cb565b60405161038e9190614741565b61035961077136600461356c565b612329565b6104166107843660046135f0565b6123b7565b61059861079736600461361f565b6123ed565b6106d76107aa36600461361f565b612483565b6105986107bd3660046135c0565b6124c9565b6103596107d036600461356c565b6124e9565b6103aa6107e33660046135c0565b6125f3565b6000828152600160208190526040909120015482906001600160a01b03163314806108255750610825816000356001600160e01b03191633610d92565b61084a5760405162461bcd60e51b815260040161084190614300565b60405180910390fd5b600083815260016020526040908190209051638198ef6d60e01b815273e1f475a235720539De8B78f8BA65e3ec765c8E9191638198ef6d9161089191908690600401614826565b60006040518083038186803b1580156108a957600080fd5b505af41580156108bd573d6000803e3d6000fd5b50506040518592507fb777acf68d226f3c8ab6f398cfb9a320e6fe8e92f5d2f0b4f69bc8ebab3b70cb9150600090a2505050565b6000828152600160208190526040909120015482906001600160a01b031633148061092e575061092e816000356001600160e01b03191633610d92565b61094a5760405162461bcd60e51b815260040161084190614300565b6000838152600160208190526040918290200180546001600160a01b038581166001600160a01b0319831617909255915191169084907f6baefd4565218ab73b43cb6b1019ca3a06161c4fcaef25cd665aacddabc44a20906109af9084908790614090565b60405180910390a250505050565b6109c561311a565b600082815260016020526040908190209051633723ddaf60e21b815273e1f475a235720539De8B78f8BA65e3ec765c8E919163dc8f76bc91610a0a9190600401614109565b6101806040518083038186803b158015610a2357600080fd5b505af4158015610a37573d6000803e3d6000fd5b505050506040513d601f19601f82011682018060405250810190610a5b9190613844565b90505b919050565b60008181526001602081905260408220015482906001600160a01b0316331480610a9f5750610a9f816000356001600160e01b03191633610d92565b610abb5760405162461bcd60e51b815260040161084190614300565b6000838152600160205260408120600701805491905591505b50919050565b610af1826000356001600160e01b03191633610d92565b610b0d5760405162461bcd60e51b81526004016108419061459d565b6000828152600160205260409081902060090180546001600160a01b038481166001600160a01b031983161790925591519116907fa7f38588f02421aa73988ed359aee27363c896e7cc3b6e634e4357f7ee408e2590610b7290859084908690614112565b60405180910390a1505050565b6000828152600160208190526040909120015482906001600160a01b0316331480610bbc5750610bbc816000356001600160e01b03191633610d92565b610bd85760405162461bcd60e51b815260040161084190614300565b6000838152600160205260409081902060020180546001600160a01b038581166001600160a01b0319831617909255915191169084907fdaa92ae0693b6616f14ef5db4b7ee053d3234c0d03f7a1885589c6a6c2c75bdb906109af9084908790614090565b60008281526001602052604080822090516355c6c2e960e01b815273e1f475a235720539De8B78f8BA65e3ec765c8E91916355c6c2e991610c839190869060040161477c565b60206040518083038186803b158015610c9b57600080fd5b505af4158015610caf573d6000803e3d6000fd5b505050506040513d601f19601f82011682018060405250810190610cd391906135d8565b90505b92915050565b610cf3836000356001600160e01b03191633610d92565b610d0f5760405162461bcd60e51b81526004016108419061454e565b60008381526001602081815260408084206001600160e01b031987168552600d0182528084206001600160a01b038616808652925292839020805460ff1916909217909155905184907face25d271ad11ee299595b3021629bae0349e370d7c2eb7c2dced6e4edb4786590610d859086906141b9565b60405180910390a3505050565b60008381526001602090815260408083206001600160e01b031986168452600d0182528083206001600160a01b038516845290915281205460ff1680610e0557506000848152600160209081526040808320838052600d0182528083206001600160a01b038616845290915290205460ff165b90505b9392505050565b60009081526001602052604090205460ff1690565b60009081526001602052604090206006015490565b6000828152600160205260409020600c01546001600160a01b031680610e715760405162461bcd60e51b8152600401610841906141e9565b336001600160a01b0382161480610e9a5750610e9a836000356001600160e01b03191633610d92565b610eb65760405162461bcd60e51b815260040161084190614246565b60008381526001602052604090819020600c0180546001600160a01b0319166001600160a01b038516179055517f66808241563a07166fd47b523591fa432148706dc0ddd255d49b69e71f1721ce90610b7290859084908690614112565b610f1c61311a565b600082815260016020526040908190209051633db870a360e21b815273e1f475a235720539De8B78f8BA65e3ec765c8E919163f6e1c28c91610a0a9190600401614109565b610f78836000356001600160e01b03191633610d92565b610f945760405162461bcd60e51b81526004016108419061454e565b60008381526001602090815260408083206001600160e01b031986168452600d0182528083206001600160a01b038516808552925291829020805460ff19169055905184907f42b1b0e7392ad606bb4f5b003296aba62f16e43aa9372f1f40c1522fa2655ffa90610d859086906141b9565b6000818152600160205260409020606090610a5b90612608565b6000828152600160208190526040909120015482906001600160a01b031633148061105d575061105d816000356001600160e01b03191633610d92565b6110795760405162461bcd60e51b815260040161084190614300565b6000838152600160205260409081902080546001600160a01b03858116610100908102610100600160a81b03198416179093559251919004919091169084907fdaa92ae0693b6616f14ef5db4b7ee053d3234c0d03f7a1885589c6a6c2c75bdb906109af9084908790614090565b6000828152600160205260409020600a01546001600160a01b03168061111f5760405162461bcd60e51b8152600401610841906144f1565b336001600160a01b03821614806111485750611148836000356001600160e01b03191633610d92565b6111645760405162461bcd60e51b8152600401610841906143ee565b60008381526001602052604090819020600a0180546001600160a01b0319166001600160a01b038516179055517f66808241563a07166fd47b523591fa432148706dc0ddd255d49b69e71f1721ce90610b7290859084908690614112565b6000828152600160205260408082209051631ce1246d60e11b815273e1f475a235720539De8B78f8BA65e3ec765c8E91916339c248da91610c839190869060040161477c565b6000828152600160205260408082209051632a787cdb60e01b815273e1f475a235720539De8B78f8BA65e3ec765c8E9191632a787cdb91610c839190869060040161477c565b61125661317c565b6000828152600160205260409081902090516379d346b760e01b815273e1f475a235720539De8B78f8BA65e3ec765c8E91916379d346b79161129b9190600401614109565b6108006040518083038186803b1580156112b457600080fd5b505af41580156112c8573d6000803e3d6000fd5b505050506040513d601f19601f82011682018060405250810190610a5b91906138ed565b6112f4613303565b600083815260016020526040908190209051631735418160e11b815273e1f475a235720539De8B78f8BA65e3ec765c8E9191632e6a83029161133b9190869060040161477c565b60606040518083038186803b15801561135357600080fd5b505af4158015611367573d6000803e3d6000fd5b505050506040513d601f19601f82011682018060405250810190610cd39190613c70565b61139361269e565b6000546001600160a01b039081169116146113f5576040805162461bcd60e51b815260206004820181905260248201527f4f776e61626c653a2063616c6c6572206973206e6f7420746865206f776e6572604482015290519081900360640190fd5b600080546040516001600160a01b03909116907f8be0079c531659141344cd1fd0a4f28419497f9722a3daafe3b4186f6b6457e0908390a3600080546001600160a01b0319169055565b6000808060f884901c602181111561145357fe5b92505067ffffffffffffffff83169050915091565b6000611472613326565b6114928372636f6e74726163745265666572656e63655f3160681b611d20565b8051909150158015906114b457506003816060015160048111156114b257fe5b145b156118335780516020820151604051631392c59160e11b81526001600160a01b038216906327258b22906114ec908590600401614109565b60206040518083038186803b15801561150457600080fd5b505afa158015611518573d6000803e3d6000fd5b505050506040513d601f19601f8201168201806040525081019061153c91906135a4565b6115585760405162461bcd60e51b8152600401610841906145f1565b6000611573866b65786572636973654461746560a01b6111c2565b9050600061159a877518dc99591a5d115d995b9d151e5c1950dbdd995c995960521b612483565b60ff1660058111156115a857fe5b90506000836001600160a01b031663cf5aed12866040518263ffffffff1660e01b81526004016115d89190614194565b60206040518083038186803b1580156115f057600080fd5b505afa158015611604573d6000803e3d6000fd5b505050506040513d601f19601f820116820180604052508101906116289190613c8b565b60ff16600581111561163657fe5b90506000846001600160a01b031663606aa07e876040518263ffffffff1660e01b81526004016116669190614171565b60206040518083038186803b15801561167e57600080fd5b505afa158015611692573d6000803e3d6000fd5b505050506040513d601f19601f820116820180604052508101906116b691906135d8565b905083156116d7576116c9601a426122ad565b975050505050505050610a5e565b60008360058111156116e557fe5b1415801561170857508260058111156116fa57fe5b82600581111561170657fe5b145b1561182c57600182600581111561171b57fe5b141561172c576116c96019826122ad565b600282600581111561173a57fe5b14156117e457611748613303565b6040516337f2add560e11b81526001600160a01b03871690636fe55baa90611774908a90600401614131565b60606040518083038186803b15801561178c57600080fd5b505afa1580156117a0573d6000803e3d6000fd5b505050506040513d601f19601f820116820180604052508101906117c49190613c70565b90506117d5601961073e83856126a2565b98505050505050505050610a5e565b60038260058111156117f257fe5b141561182c57611800613303565b6040516337f2add560e11b81526001600160a01b03871690636fe55baa90611774908a9060040161414e565b5050505050505b50600092915050565b6000816021811115610a5b57fe5b3360009081526002602052604090205460ff166118795760405162461bcd60e51b81526004016108419061439a565b6118c98a8888808060200260200160405190810160405280939291908181526020018383602002808284376000920191909152506118c09250505036899003890189613b75565b878787876127bb565b60008a815260016020526040908190209051638198ef6d60e01b815273e1f475a235720539De8B78f8BA65e3ec765c8E9191638198ef6d9161191091908d90600401614826565b60006040518083038186803b15801561192857600080fd5b505af415801561193c573d6000803e3d6000fd5b50505060008b81526001602052604090819020905163f5fb4bf360e01b815273e1f475a235720539De8B78f8BA65e3ec765c8E91925063f5fb4bf391611986918c9060040161478a565b60006040518083038186803b15801561199e57600080fd5b505af41580156119b2573d6000803e3d6000fd5b50505060008b8152600160205260409081902090516309a2662b60e41b815273e1f475a235720539De8B78f8BA65e3ec765c8E919250639a2662b0916119fc918c9060040161478a565b60006040518083038186803b158015611a1457600080fd5b505af4158015611a28573d6000803e3d6000fd5b5050505050505050505050505050565b6000546001600160a01b031690565b6000828152600160208190526040909120015482906001600160a01b0316331480611a845750611a84816000356001600160e01b03191633610d92565b611aa05760405162461bcd60e51b815260040161084190614300565b6000838152600160205260409081902090516309a2662b60e41b815273e1f475a235720539De8B78f8BA65e3ec765c8E9191639a2662b091611ae79190869060040161478a565b60006040518083038186803b158015611aff57600080fd5b505af4158015611b13573d6000803e3d6000fd5b50505050827f0c71209d22d4c70a40140b94deee55f1f54a9353e3d5d5a4ddfb45fcddcf720f8360200135604051611b4b9190614109565b60405180910390a2505050565b60009081526001602052604090206005015490565b60009182526001602090815260408084209284526004909201905290205490565b611b9661334d565b6000838152600160205260409081902090516317dc29e560e21b815273e1f475a235720539De8B78f8BA65e3ec765c8E9191635f70a79491611bdd9190869060040161477c565b60806040518083038186803b158015611bf557600080fd5b505af4158015611c09573d6000803e3d6000fd5b505050506040513d601f19601f82011682018060405250810190610cd39190613c55565b600090815260016020819052604090912001546001600160a01b031690565b600082815260016020526040808220905163137f389360e11b815273e1f475a235720539De8B78f8BA65e3ec765c8E91916326fe712691610c839190869060040161477c565b6000818152600160205260408120600581015415611ce257600581015460068201541415611cc4575060009050610a5e565b60068101546000908152600490910160205260409020549050610a5e565b6000611ced8461292e565b50949350505050565b6000918252600160208181526040808520938552601090930190529120805491015460ff90911691565b611d28613326565b60008381526001602052604090819020905163798bd3f360e11b815273e1f475a235720539De8B78f8BA65e3ec765c8E919163f317a7e691611d6f9190869060040161477c565b60806040518083038186803b158015611d8757600080fd5b505af4158015611d9b573d6000803e3d6000fd5b505050506040513d601f19601f82011682018060405250810190610cd39190613bf3565b611dd6826000356001600160e01b03191633610d92565b611df25760405162461bcd60e51b8152600401610841906142a3565b60008281526001602052604090819020600b0180546001600160a01b038481166001600160a01b031983161790925591519116907fa7f38588f02421aa73988ed359aee27363c896e7cc3b6e634e4357f7ee408e2590610b7290859084908690614112565b6000908152600160205260409020600201546001600160a01b031690565b60008181526001602081905260408220015482906001600160a01b0316331480611eb15750611eb1816000356001600160e01b03191633610d92565b611ecd5760405162461bcd60e51b815260040161084190614300565b6000838152600160205260409020600581015415611f275760068101546000818152600483016020526040902054600583015490911415611f14575060009250610ad49050565b6006909101805460010190559150610ad4565b600080611f338661292e565b909250905081611f4a575060009350610ad4915050565b600080611f568461143f565b909250905060018315151415611f9a5780600386016000846021811115611f7957fe5b6021811115611f8457fe5b8152602081019190915260400160002055611fa2565b600885018490555b50919695505050505050565b60026020526000908152604090205460ff1681565b60008281526001602052604080822090516318cd827760e01b815273e1f475a235720539De8B78f8BA65e3ec765c8E91916318cd8277916120099190869060040161477c565b60206040518083038186803b15801561202157600080fd5b505af4158015612035573d6000803e3d6000fd5b505050506040513d601f19601f82011682018060405250810190610cd39190613c8b565b6000828152600160208190526040909120015482906001600160a01b03163314806120965750612096816000356001600160e01b03191633610d92565b6120b25760405162461bcd60e51b815260040161084190614300565b60008381526001602052604090819020905163f5fb4bf360e01b815273e1f475a235720539De8B78f8BA65e3ec765c8E919163f5fb4bf3916120f99190869060040161478a565b60006040518083038186803b15801561211157600080fd5b505af4158015612125573d6000803e3d6000fd5b50505050827fad3970329ffaec63d947adc6077368479a4be7f09f2e7ba1b13852f8405b3ec68360200135604051611b4b9190614109565b600082815260016020526040808220905162232d0560e61b815273e1f475a235720539De8B78f8BA65e3ec765c8E91916308cb414091610c839190869060040161477c565b6000828152600160208190526040909120015482906001600160a01b03163314806121df57506121df816000356001600160e01b03191633610d92565b6121fb5760405162461bcd60e51b815260040161084190614300565b5060009182526001602052604090912060070155565b6000838152600160208190526040909120015483906001600160a01b031633148061224e575061224e816000356001600160e01b03191633610d92565b61226a5760405162461bcd60e51b815260040161084190614300565b50604080518082018252600180825260208083019485526000968752818152838720958752601090950190945293209251835460ff191690151517835551910155565b60008160f88460218111156122be57fe5b60ff16901b179392505050565b6122d361336e565b50600090815260016020908152604091829020825160808101845260098201546001600160a01b039081168252600a830154811693820193909352600b820154831693810193909352600c015416606082015290565b61233161269e565b6000546001600160a01b03908116911614612393576040805162461bcd60e51b815260206004820181905260248201527f4f776e61626c653a2063616c6c6572206973206e6f7420746865206f776e6572604482015290519081900360640190fd5b6001600160a01b03166000908152600260205260409020805460ff19166001179055565b6000918252600160209081526040808420848052600d0182528084206001600160a01b0393909316845291905290205460ff1690565b600082815260016020526040808220905163f9d0abbb60e01b815273e1f475a235720539De8B78f8BA65e3ec765c8E919163f9d0abbb916124339190869060040161477c565b60206040518083038186803b15801561244b57600080fd5b505af415801561245f573d6000803e3d6000fd5b505050506040513d601f19601f82011682018060405250810190610cd39190613588565b600082815260016020526040808220905163c638f18760e01b815273e1f475a235720539De8B78f8BA65e3ec765c8E919163c638f187916120099190869060040161477c565b60009081526001602052604090205461010090046001600160a01b031690565b6124f161269e565b6000546001600160a01b03908116911614612553576040805162461bcd60e51b815260206004820181905260248201527f4f776e61626c653a2063616c6c6572206973206e6f7420746865206f776e6572604482015290519081900360640190fd5b6001600160a01b0381166125985760405162461bcd60e51b8152600401808060200182810382526026815260200180614c4c6026913960400191505060405180910390fd5b600080546040516001600160a01b03808516939216917f8be0079c531659141344cd1fd0a4f28419497f9722a3daafe3b4186f6b6457e091a3600080546001600160a01b0319166001600160a01b0392909216919091179055565b60009081526001602052604090206007015490565b606080826003016002015467ffffffffffffffff8111801561262957600080fd5b50604051908082528060200260200182016040528015612653578160200160208202803683370190505b50905060005b6005840154811015612697576000818152600485016020526040902054825183908390811061268457fe5b6020908102919091010152600101612659565b5092915050565b3390565b60008080846020015160058111156126b657fe5b14156126d05783516126c9908490612d68565b9050610cd3565b6001846020015160058111156126e257fe5b14156127005783516126c9906126f9906007612d7d565b8490612d68565b60028460200151600581111561271257fe5b14156127255783516126c9908490612dd6565b60038460200151600581111561273757fe5b14156127555783516126c99061274e906003612d7d565b8490612dd6565b60048460200151600581111561276757fe5b141561277e5783516126c99061274e906006612d7d565b60058460200151600581111561279057fe5b14156127a35783516126c9908490612e52565b60405162461bcd60e51b815260040161084190614494565b6000878152600160205260409020805460ff16156127eb5760405162461bcd60e51b81526004016108419061434f565b6001600160a01b03841660009081526002602052604090205460ff1615156001146128285760405162461bcd60e51b81526004016108419061444b565b805486516009830180546001600160a01b03199081166001600160a01b03938416179091556020890151600a8501805483169184169190911790556040890151600b8501805483169184169190911790556060890151600c85018054831691841691909117905560ff199092166001908117610100600160a81b031916610100898416021784558301805483168783161790556002830180549092169084161790556128d48188612e79565b6001600160a01b038316156128ed576128ed8884612ee6565b7f5e73a3e4a3f69f1056f05ffd00ff11bf3835158ba0ebd5ad3b994065fcd896468860405161291c9190614109565b60405180910390a15050505050505050565b6000818152600160205260408120819061294661317c565b6040516379d346b760e01b815273e1f475a235720539De8B78f8BA65e3ec765c8E91906379d346b79061297d908590600401614109565b6108006040518083038186803b15801561299657600080fd5b505af41580156129aa573d6000803e3d6000fd5b505050506040513d601f19601f820116820180604052508101906129ce91906138ed565b8254600a600081815260038601602052604080822054905163a3a9e48960e01b81529495509093849360019385938493612a769361010090046001600160a01b03169263a3a9e48992612a26928c9290600401614715565b60206040518083038186803b158015612a3e57600080fd5b505afa158015612a52573d6000803e3d6000fd5b505050506040513d601f19601f8201168201806040525081019061054491906135d8565b915091508360001480612a8857508381105b80612aac57508084148015612aac5750612aa18561183c565b612aaa8361183c565b105b15612ab8578093508194505b50508454600b600081815260038801602052604080822054905163a3a9e48960e01b815291938493612b09936101009092046001600160a01b03169263a3a9e48992612a26928c9291600401614715565b915091508360001480612b2557508015801590612b2557508381105b80612b5457508015801590612b3957508084145b8015612b545750612b498561183c565b612b528361183c565b105b15612b60578093508194505b505084546005600081815260038801602052604080822054905163a3a9e48960e01b815291938493612bb1936101009092046001600160a01b03169263a3a9e48992612a26928c9291600401614715565b915091508360001480612bcd57508015801590612bcd57508381105b80612bfc57508015801590612be157508084145b8015612bfc5750612bf18561183c565b612bfa8361183c565b105b15612c08578093508194505b505084546006600081815260038801602052604080822054905163a3a9e48960e01b815291938493612c59936101009092046001600160a01b03169263a3a9e48992612a26928c9291600401614715565b915091508360001480612c7557508015801590612c7557508381105b80612ca457508015801590612c8957508084145b8015612ca45750612c998561183c565b612ca28361183c565b105b15612cb0578093508194505b50508454600886015460405163d464d17d60e01b81526000928392612cf4926101009092046001600160a01b03169163d464d17d91612a26918b91906004016146f8565b915091508360001480612d1057508015801590612d1057508381105b80612d3f57508015801590612d2457508084145b8015612d3f5750612d348561183c565b612d3d8361183c565b105b15612d4f57809350819450600092505b5050612d5b83836122ad565b9650945050505050915091565b620151808102820182811015610cd657600080fd5b600082612d8c57506000610cd6565b82820282848281612d9957fe5b0414610cd35760405162461bcd60e51b8152600401808060200182810382526021815260200180614c726021913960400191505060405180910390fd5b6000808080612dea62015180875b04612f5d565b600c918801600019810183810494909401965094509250900660010191506000612e148484612ff3565b905080821115612e22578091505b62015180870662015180612e37868686613079565b0201945086851015612e4857600080fd5b5050505092915050565b6000808080612e646201518087612de4565b9187019450925090506000612e148484612ff3565b60005b8151811015612ee1576000801b828281518110612e9557fe5b60200260200101511415612ea857612ee1565b818181518110612eb457fe5b60209081029190910181015160008381526004860190925260409091205560010160058301819055612e7c565b505050565b6000828152600160208181526040808420848052600d0182528084206001600160a01b0386168086529252808420805460ff19169093179092559051909184917face25d271ad11ee299595b3021629bae0349e370d7c2eb7c2dced6e4edb4786591612f51916141b9565b60405180910390a35050565b60008080836226496581018262023ab1600483020590506004600362023ab18302010590910390600062164b09610fa0600185010205905060046105b58202058303601f019250600061098f8460500281612fb457fe5b0590506000605061098f83020585039050600b820560301994909401606402929092018301996002600c90940290910392909201975095509350505050565b600081600114806130045750816003145b8061300f5750816005145b8061301a5750816007145b806130255750816008145b80613030575081600a145b8061303b575081600c145b156130485750601f610cd6565b816002146130585750601e610cd6565b613061836130f5565b61306c57601c61306f565b601d5b60ff169392505050565b60006107b284101561308a57600080fd5b838383600062253d8c600460036064611324600c600d19890105890101050205600c80600d19870105600c02600287030361016f02816130c657fe5b0560046105b5600c600d1989010589016112c0010205617d4b8603010103039050809450505050509392505050565b60006004820615801561310a57506064820615155b80610a5b57505061019090061590565b604080516101808101909152806000815260200160008152602001600081526020016000815260200160008152602001600081526020016000815260200160008152602001600081526020016000815260200160008152602001600081525090565b604080516105a0810190915280600081526020016000815260200160008152602001600081526020016000815260200160008152602001600081526020016000815260200160006001600160a01b0316815260200160006001600160a01b03168152602001600080191681526020016000815260200160008152602001600081526020016000815260200160008152602001600081526020016000815260200160008152602001600081526020016000815260200160008152602001600081526020016000815260200160008152602001600081526020016000815260200160008152602001600081526020016000815260200160008152602001600081526020016000815260200160008152602001600081526020016000815260200160008152602001600081526020016132b0613303565b81526020016132bd613303565b81526020016132ca61334d565b81526020016132d761334d565b81526020016132e461334d565b81526020016132f161334d565b81526020016132fe61334d565b905290565b6040805160608101909152600080825260208201905b8152600060209091015290565b604080516080810182526000808252602082018190529091820190815260200160006132fe565b60408051608081019091526000808252602082019081526020016000613319565b60408051608081018252600080825260208201819052918101829052606081019190915290565b8035610a5e81614bc0565b8051610a5e81614bc0565b8035610a5e81614be3565b8051610a5e81614be3565b8035610a5e81614bf0565b8051610a5e81614bf0565b8035610a5e81614bfd565b8051610a5e81614bfd565b8035610a5e81614c17565b8051610a5e81614c17565b8035610a5e81614c24565b8051610a5e81614c24565b8035610a5e81614c31565b8051610a5e81614c31565b803560228110610a5e57600080fd5b8035610a5e81614c3e565b8051610a5e81614c3e565b60006101808284031215610ad4578081fd5b60006108008284031215610ad4578081fd5b600060808284031215610ad4578081fd5b60006080828403121561349a578081fd5b6040516080810181811067ffffffffffffffff821117156134b757fe5b80604052508091508251815260208301516134d181614bfd565b602082015260408301516134e481614bf0565b604082015260608301516134f781614bd5565b6060919091015292915050565b600060608284031215613515578081fd5b6040516060810181811067ffffffffffffffff8211171561353257fe5b806040525080915082518152602083015161354c81614bfd565b6020820152604083015161355f81614bd5565b6040919091015292915050565b60006020828403121561357d578081fd5b8135610cd381614bc0565b600060208284031215613599578081fd5b8151610cd381614bc0565b6000602082840312156135b5578081fd5b8151610cd381614bd5565b6000602082840312156135d1578081fd5b5035919050565b6000602082840312156135e9578081fd5b5051919050565b60008060408385031215613602578081fd5b82359150602083013561361481614bc0565b809150509250929050565b60008060408385031215613631578182fd5b50508035926020909101359150565b600080600060608486031215613654578081fd5b505081359360208301359350604090920135919050565b60008060006060848603121561367f578081fd5b8335925060208401356001600160e01b03198116811461369d578182fd5b915060408401356136ad81614bc0565b809150509250925092565b6000806101a083850312156136cb578182fd5b823591506136dc8460208501613454565b90509250929050565b60008061082083850312156136f8578182fd5b823591506136dc8460208501613466565b600080600080600080600080600080610ac08b8d031215613728578788fd5b8a3599506137398c60208d01613466565b98506137498c6108208d01613454565b97506109a08b013567ffffffffffffffff80821115613766578788fd5b818d0191508d601f830112613779578788fd5b813581811115613787578889fd5b8e6020808302850101111561379a578889fd5b6020830199508098505050506137b48c6109c08d01613478565b94506137c3610a408c01613395565b93506137d2610a608c01613395565b92506137e1610a808c01613395565b91506137f0610aa08c01613395565b90509295989b9194979a5092959850565b600060208284031215613812578081fd5b610cd38261342f565b6000806040838503121561382d578182fd5b6138368361342f565b946020939093013593505050565b6000610180808385031215613857578182fd5b61386081614b7b565b905061386b836133e2565b81526020830151602082015260408301516040820152606083015160608201526080830151608082015260a083015160a082015260c083015160c082015260e083015160e08201526101008084015181830152506101208084015181830152506101408084015181830152506101608084015181830152508091505092915050565b600061080082840312156138ff578081fd5b61390a6105a0614b7b565b6139138361340e565b8152613921602084016133cc565b6020820152613932604084016133f8565b604082015261394360608401613424565b6060820152613954608084016133b6565b608082015261396560a084016133cc565b60a082015261397660c08401613449565b60c082015261398760e084016133cc565b60e082015261010061399a8185016133a0565b908201526101206139ac8482016133a0565b908201526101408381015190820152610160808401519082015261018080840151908201526101a080840151908201526101c080840151908201526101e08084015190820152610200808401519082015261022080840151908201526102408084015190820152610260808401519082015261028080840151908201526102a080840151908201526102c080840151908201526102e08084015190820152610300808401519082015261032080840151908201526103408084015190820152610360808401519082015261038080840151908201526103a080840151908201526103c080840151908201526103e08084015190820152610400808401519082015261042080840151908201526104408084015190820152610460808401519082015261048080840151908201526104a080840151908201526104c0613af385828601613504565b90820152610520613b0685858301613504565b6104e0830152610580613b1b86828701613489565b610500840152613b2f866106008701613489565b82840152613b41866106808701613489565b610540840152613b55866107008701613489565b610560840152613b69866107808701613489565b90830152509392505050565b600060808284031215613b86578081fd5b6040516080810181811067ffffffffffffffff82111715613ba357fe5b6040528235613bb181614bc0565b81526020830135613bc181614bc0565b60208201526040830135613bd481614bc0565b60408201526060830135613be781614bc0565b60608201529392505050565b600060808284031215613c04578081fd5b6040516080810181811067ffffffffffffffff82111715613c2157fe5b806040525082518152602083015160208201526040830151613c4281614c0a565b60408201526060830151613be781614c0a565b600060808284031215613c66578081fd5b610cd38383613489565b600060608284031215613c81578081fd5b610cd38383613504565b600060208284031215613c9c578081fd5b815160ff81168114610cd3578182fd5b6001600160a01b03169052565b60098110613cc357fe5b9052565b613cc381614b9f565b613cc381614bac565b600d8110613cc357fe5b60148110613cc357fe5b600b8110613cc357fe5b60228110613cc357fe5b60048110613cc357fe5b613d16828251613ce3565b6020810151613d286020840182613cc7565b506040810151613d3b6040840182613cd9565b506060810151613d4e6060840182613ced565b506080810151613d616080840182613cb9565b5060a0810151613d7460a0840182613cc7565b5060c0810151613d8760c0840182613d01565b5060e0810151613d9a60e0840182613cc7565b5061010080820151613dae82850182613cac565b505061012080820151613dc382850182613cac565b50506101408181015190830152610160808201519083015261018080820151908301526101a080820151908301526101c080820151908301526101e08082015190830152610200808201519083015261022080820151908301526102408082015190830152610260808201519083015261028080820151908301526102a080820151908301526102c080820151908301526102e08082015190830152610300808201519083015261032080820151908301526103408082015190830152610360808201519083015261038080820151908301526103a080820151908301526103c080820151908301526103e08082015190830152610400808201519083015261042080820151908301526104408082015190830152610460808201519083015261048080820151908301526104a080820151908301526104c080820151613f0c82850182614058565b50506104e0810151610520613f2381850183614058565b6105008301519150610580613f3a81860184613fe6565b818401519250613f4e610600860184613fe6565b6105408401519250613f64610680860184613fe6565b6105608401519250613f7a610700860184613fe6565b8301519150612ee19050610780840182613fe6565b803582526020810135613fa181614bfd565b613faa81614bac565b60208301526040810135613fbd81614bf0565b613fc681614b9f565b60408301526060810135613fd981614bd5565b8015156060840152505050565b805182526020810151613ff881614bac565b6020830152604081015161400b81614b9f565b60408301526060908101511515910152565b80358252602081013561402f81614bfd565b61403881614bac565b6020830152604081013561404b81614bd5565b8015156040840152505050565b80518252602081015161406a81614bac565b60208301526040908101511515910152565b6001600160a01b0391909116815260200190565b6001600160a01b0392831681529116602082015260400190565b6020808252825182820181905260009190848201906040850190845b818110156140e2578351835292840192918401916001016140c6565b50909695505050505050565b901515815260200190565b9115158252602082015260400190565b90815260200190565b9283526001600160a01b03918216602084015216604082015260600190565b9081526a19dc9858d954195c9a5bd960aa1b602082015260400190565b9081527019195b1a5b9c5d595b98de54195c9a5bd9607a1b602082015260400190565b908152706e6f6e506572666f726d696e674461746560781b602082015260400190565b90815272636f6e7472616374506572666f726d616e636560681b602082015260400190565b6001600160e01b031991909116815260200190565b604081016141dc8285613cf7565b8260208301529392505050565b6020808252603e908201527f417373657452656769737472792e736574436f756e746572706172747942656e60408201527f65666963696172793a20454e5452595f444f45535f4e4f545f45584953540000606082015260800190565b6020808252603d908201527f417373657452656769737472792e736574436f756e746572706172747942656e60408201527f65666963696172793a20554e415554484f52495a45445f53454e444552000000606082015260800190565b60208082526039908201527f417373657452656769737472792e736574436f756e74657270617274794f626c60408201527f69676f723a20554e415554484f52495a45445f53454e44455200000000000000606082015260800190565b6020808252602f908201527f416363657373436f6e74726f6c2e6973417574686f72697a65643a20554e415560408201526e2a2427a924ad22a22fa9a2a72222a960891b606082015260800190565b6020808252602b908201527f4261736552656769737472792e73657441737365743a2041535345545f414c5260408201526a454144595f45584953545360a81b606082015260800190565b60208082526034908201527f4261736552656769737472792e6f6e6c79417070726f7665644163746f72733a604082015273102aa720aaaa2427a924ad22a22fa9a2a72222a960611b606082015260800190565b60208082526038908201527f417373657452656769737472792e73657443726561746f7242656e656669636960408201527f6172793a20554e415554484f52495a45445f53454e4445520000000000000000606082015260800190565b60208082526029908201527f4261736552656769737472792e73657441737365743a204143544f525f4e4f5460408201526817d054141493d5915160ba1b606082015260800190565b60208082526037908201527f506572696f645574696c732e67657454696d657374616d70506c75735065726960408201527f6f643a204154545249425554455f4e4f545f464f554e44000000000000000000606082015260800190565b60208082526039908201527f417373657452656769737472792e73657443726561746f7242656e656669636960408201527f6172793a20454e5452595f444f45535f4e4f545f455849535400000000000000606082015260800190565b6020808252602f908201527f416363657373436f6e74726f6c2e7265766f6b654163636573733a20554e415560408201526e2a2427a924ad22a22fa9a2a72222a960891b606082015260800190565b60208082526034908201527f417373657452656769737472792e73657443726561746f724f626c69676f723a604082015273102aa720aaaa2427a924ad22a22fa9a2a72222a960611b606082015260800190565b60208082526042908201527f41737365744163746f722e6765744e657874556e6465726c79696e674576656e60408201527f743a20554e4445524c59494e475f41535345545f444f45535f4e4f545f45584960608201526114d560f21b608082015260a00190565b60006101808201905061466d828451613cd0565b6020830151602083015260408301516040830152606083015160608301526080830151608083015260a083015160a083015260c083015160c083015260e083015160e083015261010080840151818401525061012080840151818401525061014080840151818401525061016080840151818401525092915050565b6108008101610cd68284613d0b565b61082081016147078285613d0b565b826108008301529392505050565b61084081016147248286613d0b565b83610800830152614739610820830184613cf7565b949350505050565b81516001600160a01b039081168252602080840151821690830152604080840151821690830152606092830151169181019190915260800190565b918252602082015260400190565b8281526101a081016147a7602083016147a2856133d7565b613cd0565b602083013560408301526040830135606083015260608301356080830152608083013560a083015260a083013560c083015260c083013560e083015261010060e0840135818401526101208185013581850152610140915080850135828501525061016081850135818501528085013561018085015250509392505050565b82815261082081016148436020830161483e85613403565b613ce3565b61484f602084016133c1565b61485c6040840182613cc7565b50614869604084016133ed565b6148766060840182613cd9565b5061488360608401613419565b6148906080840182613ced565b5061489d608084016133ab565b6148aa60a0840182613cb9565b506148b760a084016133c1565b6148c460c0840182613cc7565b506148d160c0840161343e565b6148de60e0840182613d01565b506148eb60e084016133c1565b6101006148fa81850183613cc7565b614905818601613395565b91505061012061491781850183613cac565b614922818601613395565b91505061014061493481850183613cac565b610160915080850135828501525061018081850135818501526101a091508085013582850152506101c081850135818501526101e09150808501358285015250610200818501358185015261022091508085013582850152506102408185013581850152610260915080850135828501525061028081850135818501526102a091508085013582850152506102c081850135818501526102e09150808501358285015250610300818501358185015261032091508085013582850152506103408185013581850152610360915080850135828501525061038081850135818501526103a091508085013582850152506103c081850135818501526103e09150808501358285015250610400818501358185015261042091508085013582850152506104408185013581850152610460915080850135828501525061048081850135818501526104a091508085013582850152506104c08185013581850152614aa26104e0850182870161401d565b5050614ab66105408301610520850161401d565b614ac86105a083016105808501613f8f565b614ada61062083016106008501613f8f565b614aec6106a083016106808501613f8f565b614afe61072083016107008501613f8f565b610e086107a083016107808501613f8f565b815181526020808301519082015260408201516080820190614b3181614bb6565b60408301526060830151614b4481614bb6565b8060608401525092915050565b60808101610cd68284613fe6565b60608101610cd68284614058565b60ff91909116815260200190565b60405181810167ffffffffffffffff81118282101715614b9757fe5b604052919050565b60028110614ba957fe5b50565b60068110614ba957fe5b60058110614ba957fe5b6001600160a01b0381168114614ba957600080fd5b8015158114614ba957600080fd5b60098110614ba957600080fd5b60028110614ba957600080fd5b60068110614ba957600080fd5b60058110614ba957600080fd5b600d8110614ba957600080fd5b60148110614ba957600080fd5b600b8110614ba957600080fd5b60048110614ba957600080fdfe4f776e61626c653a206e6577206f776e657220697320746865207a65726f2061646472657373536166654d6174683a206d756c7469706c69636174696f6e206f766572666c6f77a2646970667358221220c0c10334fd77dbc96b1ec65a0105cf7e0a86ca34994c012d813a1330d69306aa64736f6c63430007040033",
  "deployedBytecode": "0x608060405234801561001057600080fd5b50600436106103415760003560e01c80638eb3546c116101b8578063cf5aed1211610104578063e7dc3188116100a2578063ecef55771161007c578063ecef55771461079c578063ee43eda1146107af578063f2fde38b146107c2578063f52f84e1146107d557610341565b8063e7dc318814610763578063e8f7ca3e14610776578063eb0125591461078957610341565b8063d981e773116100de578063d981e7731461070a578063de07a1731461071d578063e05a66e014610730578063e50e0ef71461074357610341565b8063cf5aed12146106c4578063d1250069146106e4578063d51dc3dc146106f757610341565b8063b828204111610171578063bd1f0a6c1161014b578063bd1f0a6c14610678578063c139626b1461068b578063c3b6e7c21461069e578063ccfc347e146106b157610341565b8063b828204114610624578063ba4d2d2814610637578063bc6a7d761461065857610341565b80638eb3546c146105a5578063a17b75b5146105b8578063b02ca0c0146105cb578063b0b4888f146105de578063b3c45ebe146105fe578063b461dd4f1461061157610341565b806339262e87116102925780636fe55baa1161023057806375e86ae41161020a57806375e86ae414610557578063811322fb1461056a57806383e2a7701461057d5780638da5cb5b1461059057610341565b80636fe55baa1461050e578063715018a61461052e578063725400031461053657610341565b80636031a0941161026c5780636031a094146104b5578063606aa07e146104c85780636a899b9b146104db5780636be39bda146104ee57610341565b806339262e871461046f5780633adc277a14610482578063512872f4146104a257610341565b8063135b9f4d116102ff57806327258b22116102d957806327258b221461042357806328e0f8a9146104365780633549d08d1461044957806337462dba1461045c57610341565b8063135b9f4d146103dd5780631717e867146103f05780631b1268151461040357610341565b8062c19c2b1461034657806303a81a2a1461035b57806309648a9d1461036e5780630c5b75a4146103975780630d62037a146103b75780630d799b85146103ca575b600080fd5b6103596103543660046136e5565b6107e8565b005b6103596103693660046135f0565b6108f1565b61038161037c3660046135c0565b6109bd565b60405161038e9190614659565b60405180910390f35b6103aa6103a53660046135c0565b610a63565b60405161038e9190614109565b6103596103c53660046135f0565b610ada565b6103596103d83660046135f0565b610b7f565b6103aa6103eb36600461361f565b610c3d565b6103596103fe36600461366b565b610cdc565b61041661041136600461366b565b610d92565b60405161038e91906140ee565b6104166104313660046135c0565b610e0f565b6103aa6104443660046135c0565b610e24565b6103596104573660046135f0565b610e39565b61038161046a3660046135c0565b610f14565b61035961047d36600461366b565b610f61565b6104956104903660046135c0565b611006565b60405161038e91906140aa565b6103596104b03660046135f0565b611020565b6103596104c33660046135f0565b6110e7565b6103aa6104d636600461361f565b6111c2565b6103aa6104e936600461361f565b611208565b6105016104fc3660046135c0565b61124e565b60405161038e91906146e9565b61052161051c36600461361f565b6112ec565b60405161038e9190614b5f565b61035961138b565b6105496105443660046135c0565b61143f565b60405161038e9291906141ce565b6103aa6105653660046135c0565b611468565b6103aa610578366004613801565b61183c565b61035961058b366004613709565b61184a565b610598611a38565b60405161038e919061407c565b6103596105b33660046136b8565b611a47565b6103aa6105c63660046135c0565b611b58565b6103aa6105d936600461361f565b611b6d565b6105f16105ec36600461361f565b611b8e565b60405161038e9190614b51565b61059861060c3660046135c0565b611c2d565b6103aa61061f36600461361f565b611c4c565b6103aa6106323660046135c0565b611c92565b61064a61064536600461361f565b611cf6565b60405161038e9291906140f9565b61066b61066636600461361f565b611d20565b60405161038e9190614b10565b6103596106863660046135f0565b611dbf565b6105986106993660046135c0565b611e57565b6103aa6106ac3660046135c0565b611e75565b6104166106bf36600461356c565b611fae565b6106d76106d236600461361f565b611fc3565b60405161038e9190614b6d565b6103596106f23660046136b8565b612059565b6103aa61070536600461361f565b61215d565b61035961071836600461361f565b6121a2565b61035961072b366004613640565b612211565b6103aa61073e36600461381b565b6122ad565b6107566107513660046135c0565b6122cb565b60405161038e9190614741565b61035961077136600461356c565b612329565b6104166107843660046135f0565b6123b7565b61059861079736600461361f565b6123ed565b6106d76107aa36600461361f565b612483565b6105986107bd3660046135c0565b6124c9565b6103596107d036600461356c565b6124e9565b6103aa6107e33660046135c0565b6125f3565b6000828152600160208190526040909120015482906001600160a01b03163314806108255750610825816000356001600160e01b03191633610d92565b61084a5760405162461bcd60e51b815260040161084190614300565b60405180910390fd5b600083815260016020526040908190209051638198ef6d60e01b815273__$5640c45a0bbbda400e9750313f59ad8ae1$__91638198ef6d9161089191908690600401614826565b60006040518083038186803b1580156108a957600080fd5b505af41580156108bd573d6000803e3d6000fd5b50506040518592507fb777acf68d226f3c8ab6f398cfb9a320e6fe8e92f5d2f0b4f69bc8ebab3b70cb9150600090a2505050565b6000828152600160208190526040909120015482906001600160a01b031633148061092e575061092e816000356001600160e01b03191633610d92565b61094a5760405162461bcd60e51b815260040161084190614300565b6000838152600160208190526040918290200180546001600160a01b038581166001600160a01b0319831617909255915191169084907f6baefd4565218ab73b43cb6b1019ca3a06161c4fcaef25cd665aacddabc44a20906109af9084908790614090565b60405180910390a250505050565b6109c561311a565b600082815260016020526040908190209051633723ddaf60e21b815273__$5640c45a0bbbda400e9750313f59ad8ae1$__9163dc8f76bc91610a0a9190600401614109565b6101806040518083038186803b158015610a2357600080fd5b505af4158015610a37573d6000803e3d6000fd5b505050506040513d601f19601f82011682018060405250810190610a5b9190613844565b90505b919050565b60008181526001602081905260408220015482906001600160a01b0316331480610a9f5750610a9f816000356001600160e01b03191633610d92565b610abb5760405162461bcd60e51b815260040161084190614300565b6000838152600160205260408120600701805491905591505b50919050565b610af1826000356001600160e01b03191633610d92565b610b0d5760405162461bcd60e51b81526004016108419061459d565b6000828152600160205260409081902060090180546001600160a01b038481166001600160a01b031983161790925591519116907fa7f38588f02421aa73988ed359aee27363c896e7cc3b6e634e4357f7ee408e2590610b7290859084908690614112565b60405180910390a1505050565b6000828152600160208190526040909120015482906001600160a01b0316331480610bbc5750610bbc816000356001600160e01b03191633610d92565b610bd85760405162461bcd60e51b815260040161084190614300565b6000838152600160205260409081902060020180546001600160a01b038581166001600160a01b0319831617909255915191169084907fdaa92ae0693b6616f14ef5db4b7ee053d3234c0d03f7a1885589c6a6c2c75bdb906109af9084908790614090565b60008281526001602052604080822090516355c6c2e960e01b815273__$5640c45a0bbbda400e9750313f59ad8ae1$__916355c6c2e991610c839190869060040161477c565b60206040518083038186803b158015610c9b57600080fd5b505af4158015610caf573d6000803e3d6000fd5b505050506040513d601f19601f82011682018060405250810190610cd391906135d8565b90505b92915050565b610cf3836000356001600160e01b03191633610d92565b610d0f5760405162461bcd60e51b81526004016108419061454e565b60008381526001602081815260408084206001600160e01b031987168552600d0182528084206001600160a01b038616808652925292839020805460ff1916909217909155905184907face25d271ad11ee299595b3021629bae0349e370d7c2eb7c2dced6e4edb4786590610d859086906141b9565b60405180910390a3505050565b60008381526001602090815260408083206001600160e01b031986168452600d0182528083206001600160a01b038516845290915281205460ff1680610e0557506000848152600160209081526040808320838052600d0182528083206001600160a01b038616845290915290205460ff165b90505b9392505050565b60009081526001602052604090205460ff1690565b60009081526001602052604090206006015490565b6000828152600160205260409020600c01546001600160a01b031680610e715760405162461bcd60e51b8152600401610841906141e9565b336001600160a01b0382161480610e9a5750610e9a836000356001600160e01b03191633610d92565b610eb65760405162461bcd60e51b815260040161084190614246565b60008381526001602052604090819020600c0180546001600160a01b0319166001600160a01b038516179055517f66808241563a07166fd47b523591fa432148706dc0ddd255d49b69e71f1721ce90610b7290859084908690614112565b610f1c61311a565b600082815260016020526040908190209051633db870a360e21b815273__$5640c45a0bbbda400e9750313f59ad8ae1$__9163f6e1c28c91610a0a9190600401614109565b610f78836000356001600160e01b03191633610d92565b610f945760405162461bcd60e51b81526004016108419061454e565b60008381526001602090815260408083206001600160e01b031986168452600d0182528083206001600160a01b038516808552925291829020805460ff19169055905184907f42b1b0e7392ad606bb4f5b003296aba62f16e43aa9372f1f40c1522fa2655ffa90610d859086906141b9565b6000818152600160205260409020606090610a5b90612608565b6000828152600160208190526040909120015482906001600160a01b031633148061105d575061105d816000356001600160e01b03191633610d92565b6110795760405162461bcd60e51b815260040161084190614300565b6000838152600160205260409081902080546001600160a01b03858116610100908102610100600160a81b03198416179093559251919004919091169084907fdaa92ae0693b6616f14ef5db4b7ee053d3234c0d03f7a1885589c6a6c2c75bdb906109af9084908790614090565b6000828152600160205260409020600a01546001600160a01b03168061111f5760405162461bcd60e51b8152600401610841906144f1565b336001600160a01b03821614806111485750611148836000356001600160e01b03191633610d92565b6111645760405162461bcd60e51b8152600401610841906143ee565b60008381526001602052604090819020600a0180546001600160a01b0319166001600160a01b038516179055517f66808241563a07166fd47b523591fa432148706dc0ddd255d49b69e71f1721ce90610b7290859084908690614112565b6000828152600160205260408082209051631ce1246d60e11b815273__$5640c45a0bbbda400e9750313f59ad8ae1$__916339c248da91610c839190869060040161477c565b6000828152600160205260408082209051632a787cdb60e01b815273__$5640c45a0bbbda400e9750313f59ad8ae1$__91632a787cdb91610c839190869060040161477c565b61125661317c565b6000828152600160205260409081902090516379d346b760e01b815273__$5640c45a0bbbda400e9750313f59ad8ae1$__916379d346b79161129b9190600401614109565b6108006040518083038186803b1580156112b457600080fd5b505af41580156112c8573d6000803e3d6000fd5b505050506040513d601f19601f82011682018060405250810190610a5b91906138ed565b6112f4613303565b600083815260016020526040908190209051631735418160e11b815273__$5640c45a0bbbda400e9750313f59ad8ae1$__91632e6a83029161133b9190869060040161477c565b60606040518083038186803b15801561135357600080fd5b505af4158015611367573d6000803e3d6000fd5b505050506040513d601f19601f82011682018060405250810190610cd39190613c70565b61139361269e565b6000546001600160a01b039081169116146113f5576040805162461bcd60e51b815260206004820181905260248201527f4f776e61626c653a2063616c6c6572206973206e6f7420746865206f776e6572604482015290519081900360640190fd5b600080546040516001600160a01b03909116907f8be0079c531659141344cd1fd0a4f28419497f9722a3daafe3b4186f6b6457e0908390a3600080546001600160a01b0319169055565b6000808060f884901c602181111561145357fe5b92505067ffffffffffffffff83169050915091565b6000611472613326565b6114928372636f6e74726163745265666572656e63655f3160681b611d20565b8051909150158015906114b457506003816060015160048111156114b257fe5b145b156118335780516020820151604051631392c59160e11b81526001600160a01b038216906327258b22906114ec908590600401614109565b60206040518083038186803b15801561150457600080fd5b505afa158015611518573d6000803e3d6000fd5b505050506040513d601f19601f8201168201806040525081019061153c91906135a4565b6115585760405162461bcd60e51b8152600401610841906145f1565b6000611573866b65786572636973654461746560a01b6111c2565b9050600061159a877518dc99591a5d115d995b9d151e5c1950dbdd995c995960521b612483565b60ff1660058111156115a857fe5b90506000836001600160a01b031663cf5aed12866040518263ffffffff1660e01b81526004016115d89190614194565b60206040518083038186803b1580156115f057600080fd5b505afa158015611604573d6000803e3d6000fd5b505050506040513d601f19601f820116820180604052508101906116289190613c8b565b60ff16600581111561163657fe5b90506000846001600160a01b031663606aa07e876040518263ffffffff1660e01b81526004016116669190614171565b60206040518083038186803b15801561167e57600080fd5b505afa158015611692573d6000803e3d6000fd5b505050506040513d601f19601f820116820180604052508101906116b691906135d8565b905083156116d7576116c9601a426122ad565b975050505050505050610a5e565b60008360058111156116e557fe5b1415801561170857508260058111156116fa57fe5b82600581111561170657fe5b145b1561182c57600182600581111561171b57fe5b141561172c576116c96019826122ad565b600282600581111561173a57fe5b14156117e457611748613303565b6040516337f2add560e11b81526001600160a01b03871690636fe55baa90611774908a90600401614131565b60606040518083038186803b15801561178c57600080fd5b505afa1580156117a0573d6000803e3d6000fd5b505050506040513d601f19601f820116820180604052508101906117c49190613c70565b90506117d5601961073e83856126a2565b98505050505050505050610a5e565b60038260058111156117f257fe5b141561182c57611800613303565b6040516337f2add560e11b81526001600160a01b03871690636fe55baa90611774908a9060040161414e565b5050505050505b50600092915050565b6000816021811115610a5b57fe5b3360009081526002602052604090205460ff166118795760405162461bcd60e51b81526004016108419061439a565b6118c98a8888808060200260200160405190810160405280939291908181526020018383602002808284376000920191909152506118c09250505036899003890189613b75565b878787876127bb565b60008a815260016020526040908190209051638198ef6d60e01b815273__$5640c45a0bbbda400e9750313f59ad8ae1$__91638198ef6d9161191091908d90600401614826565b60006040518083038186803b15801561192857600080fd5b505af415801561193c573d6000803e3d6000fd5b50505060008b81526001602052604090819020905163f5fb4bf360e01b815273__$5640c45a0bbbda400e9750313f59ad8ae1$__925063f5fb4bf391611986918c9060040161478a565b60006040518083038186803b15801561199e57600080fd5b505af41580156119b2573d6000803e3d6000fd5b50505060008b8152600160205260409081902090516309a2662b60e41b815273__$5640c45a0bbbda400e9750313f59ad8ae1$__9250639a2662b0916119fc918c9060040161478a565b60006040518083038186803b158015611a1457600080fd5b505af4158015611a28573d6000803e3d6000fd5b5050505050505050505050505050565b6000546001600160a01b031690565b6000828152600160208190526040909120015482906001600160a01b0316331480611a845750611a84816000356001600160e01b03191633610d92565b611aa05760405162461bcd60e51b815260040161084190614300565b6000838152600160205260409081902090516309a2662b60e41b815273__$5640c45a0bbbda400e9750313f59ad8ae1$__91639a2662b091611ae79190869060040161478a565b60006040518083038186803b158015611aff57600080fd5b505af4158015611b13573d6000803e3d6000fd5b50505050827f0c71209d22d4c70a40140b94deee55f1f54a9353e3d5d5a4ddfb45fcddcf720f8360200135604051611b4b9190614109565b60405180910390a2505050565b60009081526001602052604090206005015490565b60009182526001602090815260408084209284526004909201905290205490565b611b9661334d565b6000838152600160205260409081902090516317dc29e560e21b815273__$5640c45a0bbbda400e9750313f59ad8ae1$__91635f70a79491611bdd9190869060040161477c565b60806040518083038186803b158015611bf557600080fd5b505af4158015611c09573d6000803e3d6000fd5b505050506040513d601f19601f82011682018060405250810190610cd39190613c55565b600090815260016020819052604090912001546001600160a01b031690565b600082815260016020526040808220905163137f389360e11b815273__$5640c45a0bbbda400e9750313f59ad8ae1$__916326fe712691610c839190869060040161477c565b6000818152600160205260408120600581015415611ce257600581015460068201541415611cc4575060009050610a5e565b60068101546000908152600490910160205260409020549050610a5e565b6000611ced8461292e565b50949350505050565b6000918252600160208181526040808520938552601090930190529120805491015460ff90911691565b611d28613326565b60008381526001602052604090819020905163798bd3f360e11b815273__$5640c45a0bbbda400e9750313f59ad8ae1$__9163f317a7e691611d6f9190869060040161477c565b60806040518083038186803b158015611d8757600080fd5b505af4158015611d9b573d6000803e3d6000fd5b505050506040513d601f19601f82011682018060405250810190610cd39190613bf3565b611dd6826000356001600160e01b03191633610d92565b611df25760405162461bcd60e51b8152600401610841906142a3565b60008281526001602052604090819020600b0180546001600160a01b038481166001600160a01b031983161790925591519116907fa7f38588f02421aa73988ed359aee27363c896e7cc3b6e634e4357f7ee408e2590610b7290859084908690614112565b6000908152600160205260409020600201546001600160a01b031690565b60008181526001602081905260408220015482906001600160a01b0316331480611eb15750611eb1816000356001600160e01b03191633610d92565b611ecd5760405162461bcd60e51b815260040161084190614300565b6000838152600160205260409020600581015415611f275760068101546000818152600483016020526040902054600583015490911415611f14575060009250610ad49050565b6006909101805460010190559150610ad4565b600080611f338661292e565b909250905081611f4a575060009350610ad4915050565b600080611f568461143f565b909250905060018315151415611f9a5780600386016000846021811115611f7957fe5b6021811115611f8457fe5b8152602081019190915260400160002055611fa2565b600885018490555b50919695505050505050565b60026020526000908152604090205460ff1681565b60008281526001602052604080822090516318cd827760e01b815273__$5640c45a0bbbda400e9750313f59ad8ae1$__916318cd8277916120099190869060040161477c565b60206040518083038186803b15801561202157600080fd5b505af4158015612035573d6000803e3d6000fd5b505050506040513d601f19601f82011682018060405250810190610cd39190613c8b565b6000828152600160208190526040909120015482906001600160a01b03163314806120965750612096816000356001600160e01b03191633610d92565b6120b25760405162461bcd60e51b815260040161084190614300565b60008381526001602052604090819020905163f5fb4bf360e01b815273__$5640c45a0bbbda400e9750313f59ad8ae1$__9163f5fb4bf3916120f99190869060040161478a565b60006040518083038186803b15801561211157600080fd5b505af4158015612125573d6000803e3d6000fd5b50505050827fad3970329ffaec63d947adc6077368479a4be7f09f2e7ba1b13852f8405b3ec68360200135604051611b4b9190614109565b600082815260016020526040808220905162232d0560e61b815273__$5640c45a0bbbda400e9750313f59ad8ae1$__916308cb414091610c839190869060040161477c565b6000828152600160208190526040909120015482906001600160a01b03163314806121df57506121df816000356001600160e01b03191633610d92565b6121fb5760405162461bcd60e51b815260040161084190614300565b5060009182526001602052604090912060070155565b6000838152600160208190526040909120015483906001600160a01b031633148061224e575061224e816000356001600160e01b03191633610d92565b61226a5760405162461bcd60e51b815260040161084190614300565b50604080518082018252600180825260208083019485526000968752818152838720958752601090950190945293209251835460ff191690151517835551910155565b60008160f88460218111156122be57fe5b60ff16901b179392505050565b6122d361336e565b50600090815260016020908152604091829020825160808101845260098201546001600160a01b039081168252600a830154811693820193909352600b820154831693810193909352600c015416606082015290565b61233161269e565b6000546001600160a01b03908116911614612393576040805162461bcd60e51b815260206004820181905260248201527f4f776e61626c653a2063616c6c6572206973206e6f7420746865206f776e6572604482015290519081900360640190fd5b6001600160a01b03166000908152600260205260409020805460ff19166001179055565b6000918252600160209081526040808420848052600d0182528084206001600160a01b0393909316845291905290205460ff1690565b600082815260016020526040808220905163f9d0abbb60e01b815273__$5640c45a0bbbda400e9750313f59ad8ae1$__9163f9d0abbb916124339190869060040161477c565b60206040518083038186803b15801561244b57600080fd5b505af415801561245f573d6000803e3d6000fd5b505050506040513d601f19601f82011682018060405250810190610cd39190613588565b600082815260016020526040808220905163c638f18760e01b815273__$5640c45a0bbbda400e9750313f59ad8ae1$__9163c638f187916120099190869060040161477c565b60009081526001602052604090205461010090046001600160a01b031690565b6124f161269e565b6000546001600160a01b03908116911614612553576040805162461bcd60e51b815260206004820181905260248201527f4f776e61626c653a2063616c6c6572206973206e6f7420746865206f776e6572604482015290519081900360640190fd5b6001600160a01b0381166125985760405162461bcd60e51b8152600401808060200182810382526026815260200180614c4c6026913960400191505060405180910390fd5b600080546040516001600160a01b03808516939216917f8be0079c531659141344cd1fd0a4f28419497f9722a3daafe3b4186f6b6457e091a3600080546001600160a01b0319166001600160a01b0392909216919091179055565b60009081526001602052604090206007015490565b606080826003016002015467ffffffffffffffff8111801561262957600080fd5b50604051908082528060200260200182016040528015612653578160200160208202803683370190505b50905060005b6005840154811015612697576000818152600485016020526040902054825183908390811061268457fe5b6020908102919091010152600101612659565b5092915050565b3390565b60008080846020015160058111156126b657fe5b14156126d05783516126c9908490612d68565b9050610cd3565b6001846020015160058111156126e257fe5b14156127005783516126c9906126f9906007612d7d565b8490612d68565b60028460200151600581111561271257fe5b14156127255783516126c9908490612dd6565b60038460200151600581111561273757fe5b14156127555783516126c99061274e906003612d7d565b8490612dd6565b60048460200151600581111561276757fe5b141561277e5783516126c99061274e906006612d7d565b60058460200151600581111561279057fe5b14156127a35783516126c9908490612e52565b60405162461bcd60e51b815260040161084190614494565b6000878152600160205260409020805460ff16156127eb5760405162461bcd60e51b81526004016108419061434f565b6001600160a01b03841660009081526002602052604090205460ff1615156001146128285760405162461bcd60e51b81526004016108419061444b565b805486516009830180546001600160a01b03199081166001600160a01b03938416179091556020890151600a8501805483169184169190911790556040890151600b8501805483169184169190911790556060890151600c85018054831691841691909117905560ff199092166001908117610100600160a81b031916610100898416021784558301805483168783161790556002830180549092169084161790556128d48188612e79565b6001600160a01b038316156128ed576128ed8884612ee6565b7f5e73a3e4a3f69f1056f05ffd00ff11bf3835158ba0ebd5ad3b994065fcd896468860405161291c9190614109565b60405180910390a15050505050505050565b6000818152600160205260408120819061294661317c565b6040516379d346b760e01b815273__$5640c45a0bbbda400e9750313f59ad8ae1$__906379d346b79061297d908590600401614109565b6108006040518083038186803b15801561299657600080fd5b505af41580156129aa573d6000803e3d6000fd5b505050506040513d601f19601f820116820180604052508101906129ce91906138ed565b8254600a600081815260038601602052604080822054905163a3a9e48960e01b81529495509093849360019385938493612a769361010090046001600160a01b03169263a3a9e48992612a26928c9290600401614715565b60206040518083038186803b158015612a3e57600080fd5b505afa158015612a52573d6000803e3d6000fd5b505050506040513d601f19601f8201168201806040525081019061054491906135d8565b915091508360001480612a8857508381105b80612aac57508084148015612aac5750612aa18561183c565b612aaa8361183c565b105b15612ab8578093508194505b50508454600b600081815260038801602052604080822054905163a3a9e48960e01b815291938493612b09936101009092046001600160a01b03169263a3a9e48992612a26928c9291600401614715565b915091508360001480612b2557508015801590612b2557508381105b80612b5457508015801590612b3957508084145b8015612b545750612b498561183c565b612b528361183c565b105b15612b60578093508194505b505084546005600081815260038801602052604080822054905163a3a9e48960e01b815291938493612bb1936101009092046001600160a01b03169263a3a9e48992612a26928c9291600401614715565b915091508360001480612bcd57508015801590612bcd57508381105b80612bfc57508015801590612be157508084145b8015612bfc5750612bf18561183c565b612bfa8361183c565b105b15612c08578093508194505b505084546006600081815260038801602052604080822054905163a3a9e48960e01b815291938493612c59936101009092046001600160a01b03169263a3a9e48992612a26928c9291600401614715565b915091508360001480612c7557508015801590612c7557508381105b80612ca457508015801590612c8957508084145b8015612ca45750612c998561183c565b612ca28361183c565b105b15612cb0578093508194505b50508454600886015460405163d464d17d60e01b81526000928392612cf4926101009092046001600160a01b03169163d464d17d91612a26918b91906004016146f8565b915091508360001480612d1057508015801590612d1057508381105b80612d3f57508015801590612d2457508084145b8015612d3f5750612d348561183c565b612d3d8361183c565b105b15612d4f57809350819450600092505b5050612d5b83836122ad565b9650945050505050915091565b620151808102820182811015610cd657600080fd5b600082612d8c57506000610cd6565b82820282848281612d9957fe5b0414610cd35760405162461bcd60e51b8152600401808060200182810382526021815260200180614c726021913960400191505060405180910390fd5b6000808080612dea62015180875b04612f5d565b600c918801600019810183810494909401965094509250900660010191506000612e148484612ff3565b905080821115612e22578091505b62015180870662015180612e37868686613079565b0201945086851015612e4857600080fd5b5050505092915050565b6000808080612e646201518087612de4565b9187019450925090506000612e148484612ff3565b60005b8151811015612ee1576000801b828281518110612e9557fe5b60200260200101511415612ea857612ee1565b818181518110612eb457fe5b60209081029190910181015160008381526004860190925260409091205560010160058301819055612e7c565b505050565b6000828152600160208181526040808420848052600d0182528084206001600160a01b0386168086529252808420805460ff19169093179092559051909184917face25d271ad11ee299595b3021629bae0349e370d7c2eb7c2dced6e4edb4786591612f51916141b9565b60405180910390a35050565b60008080836226496581018262023ab1600483020590506004600362023ab18302010590910390600062164b09610fa0600185010205905060046105b58202058303601f019250600061098f8460500281612fb457fe5b0590506000605061098f83020585039050600b820560301994909401606402929092018301996002600c90940290910392909201975095509350505050565b600081600114806130045750816003145b8061300f5750816005145b8061301a5750816007145b806130255750816008145b80613030575081600a145b8061303b575081600c145b156130485750601f610cd6565b816002146130585750601e610cd6565b613061836130f5565b61306c57601c61306f565b601d5b60ff169392505050565b60006107b284101561308a57600080fd5b838383600062253d8c600460036064611324600c600d19890105890101050205600c80600d19870105600c02600287030361016f02816130c657fe5b0560046105b5600c600d1989010589016112c0010205617d4b8603010103039050809450505050509392505050565b60006004820615801561310a57506064820615155b80610a5b57505061019090061590565b604080516101808101909152806000815260200160008152602001600081526020016000815260200160008152602001600081526020016000815260200160008152602001600081526020016000815260200160008152602001600081525090565b604080516105a0810190915280600081526020016000815260200160008152602001600081526020016000815260200160008152602001600081526020016000815260200160006001600160a01b0316815260200160006001600160a01b03168152602001600080191681526020016000815260200160008152602001600081526020016000815260200160008152602001600081526020016000815260200160008152602001600081526020016000815260200160008152602001600081526020016000815260200160008152602001600081526020016000815260200160008152602001600081526020016000815260200160008152602001600081526020016000815260200160008152602001600081526020016000815260200160008152602001600081526020016132b0613303565b81526020016132bd613303565b81526020016132ca61334d565b81526020016132d761334d565b81526020016132e461334d565b81526020016132f161334d565b81526020016132fe61334d565b905290565b6040805160608101909152600080825260208201905b8152600060209091015290565b604080516080810182526000808252602082018190529091820190815260200160006132fe565b60408051608081019091526000808252602082019081526020016000613319565b60408051608081018252600080825260208201819052918101829052606081019190915290565b8035610a5e81614bc0565b8051610a5e81614bc0565b8035610a5e81614be3565b8051610a5e81614be3565b8035610a5e81614bf0565b8051610a5e81614bf0565b8035610a5e81614bfd565b8051610a5e81614bfd565b8035610a5e81614c17565b8051610a5e81614c17565b8035610a5e81614c24565b8051610a5e81614c24565b8035610a5e81614c31565b8051610a5e81614c31565b803560228110610a5e57600080fd5b8035610a5e81614c3e565b8051610a5e81614c3e565b60006101808284031215610ad4578081fd5b60006108008284031215610ad4578081fd5b600060808284031215610ad4578081fd5b60006080828403121561349a578081fd5b6040516080810181811067ffffffffffffffff821117156134b757fe5b80604052508091508251815260208301516134d181614bfd565b602082015260408301516134e481614bf0565b604082015260608301516134f781614bd5565b6060919091015292915050565b600060608284031215613515578081fd5b6040516060810181811067ffffffffffffffff8211171561353257fe5b806040525080915082518152602083015161354c81614bfd565b6020820152604083015161355f81614bd5565b6040919091015292915050565b60006020828403121561357d578081fd5b8135610cd381614bc0565b600060208284031215613599578081fd5b8151610cd381614bc0565b6000602082840312156135b5578081fd5b8151610cd381614bd5565b6000602082840312156135d1578081fd5b5035919050565b6000602082840312156135e9578081fd5b5051919050565b60008060408385031215613602578081fd5b82359150602083013561361481614bc0565b809150509250929050565b60008060408385031215613631578182fd5b50508035926020909101359150565b600080600060608486031215613654578081fd5b505081359360208301359350604090920135919050565b60008060006060848603121561367f578081fd5b8335925060208401356001600160e01b03198116811461369d578182fd5b915060408401356136ad81614bc0565b809150509250925092565b6000806101a083850312156136cb578182fd5b823591506136dc8460208501613454565b90509250929050565b60008061082083850312156136f8578182fd5b823591506136dc8460208501613466565b600080600080600080600080600080610ac08b8d031215613728578788fd5b8a3599506137398c60208d01613466565b98506137498c6108208d01613454565b97506109a08b013567ffffffffffffffff80821115613766578788fd5b818d0191508d601f830112613779578788fd5b813581811115613787578889fd5b8e6020808302850101111561379a578889fd5b6020830199508098505050506137b48c6109c08d01613478565b94506137c3610a408c01613395565b93506137d2610a608c01613395565b92506137e1610a808c01613395565b91506137f0610aa08c01613395565b90509295989b9194979a5092959850565b600060208284031215613812578081fd5b610cd38261342f565b6000806040838503121561382d578182fd5b6138368361342f565b946020939093013593505050565b6000610180808385031215613857578182fd5b61386081614b7b565b905061386b836133e2565b81526020830151602082015260408301516040820152606083015160608201526080830151608082015260a083015160a082015260c083015160c082015260e083015160e08201526101008084015181830152506101208084015181830152506101408084015181830152506101608084015181830152508091505092915050565b600061080082840312156138ff578081fd5b61390a6105a0614b7b565b6139138361340e565b8152613921602084016133cc565b6020820152613932604084016133f8565b604082015261394360608401613424565b6060820152613954608084016133b6565b608082015261396560a084016133cc565b60a082015261397660c08401613449565b60c082015261398760e084016133cc565b60e082015261010061399a8185016133a0565b908201526101206139ac8482016133a0565b908201526101408381015190820152610160808401519082015261018080840151908201526101a080840151908201526101c080840151908201526101e08084015190820152610200808401519082015261022080840151908201526102408084015190820152610260808401519082015261028080840151908201526102a080840151908201526102c080840151908201526102e08084015190820152610300808401519082015261032080840151908201526103408084015190820152610360808401519082015261038080840151908201526103a080840151908201526103c080840151908201526103e08084015190820152610400808401519082015261042080840151908201526104408084015190820152610460808401519082015261048080840151908201526104a080840151908201526104c0613af385828601613504565b90820152610520613b0685858301613504565b6104e0830152610580613b1b86828701613489565b610500840152613b2f866106008701613489565b82840152613b41866106808701613489565b610540840152613b55866107008701613489565b610560840152613b69866107808701613489565b90830152509392505050565b600060808284031215613b86578081fd5b6040516080810181811067ffffffffffffffff82111715613ba357fe5b6040528235613bb181614bc0565b81526020830135613bc181614bc0565b60208201526040830135613bd481614bc0565b60408201526060830135613be781614bc0565b60608201529392505050565b600060808284031215613c04578081fd5b6040516080810181811067ffffffffffffffff82111715613c2157fe5b806040525082518152602083015160208201526040830151613c4281614c0a565b60408201526060830151613be781614c0a565b600060808284031215613c66578081fd5b610cd38383613489565b600060608284031215613c81578081fd5b610cd38383613504565b600060208284031215613c9c578081fd5b815160ff81168114610cd3578182fd5b6001600160a01b03169052565b60098110613cc357fe5b9052565b613cc381614b9f565b613cc381614bac565b600d8110613cc357fe5b60148110613cc357fe5b600b8110613cc357fe5b60228110613cc357fe5b60048110613cc357fe5b613d16828251613ce3565b6020810151613d286020840182613cc7565b506040810151613d3b6040840182613cd9565b506060810151613d4e6060840182613ced565b506080810151613d616080840182613cb9565b5060a0810151613d7460a0840182613cc7565b5060c0810151613d8760c0840182613d01565b5060e0810151613d9a60e0840182613cc7565b5061010080820151613dae82850182613cac565b505061012080820151613dc382850182613cac565b50506101408181015190830152610160808201519083015261018080820151908301526101a080820151908301526101c080820151908301526101e08082015190830152610200808201519083015261022080820151908301526102408082015190830152610260808201519083015261028080820151908301526102a080820151908301526102c080820151908301526102e08082015190830152610300808201519083015261032080820151908301526103408082015190830152610360808201519083015261038080820151908301526103a080820151908301526103c080820151908301526103e08082015190830152610400808201519083015261042080820151908301526104408082015190830152610460808201519083015261048080820151908301526104a080820151908301526104c080820151613f0c82850182614058565b50506104e0810151610520613f2381850183614058565b6105008301519150610580613f3a81860184613fe6565b818401519250613f4e610600860184613fe6565b6105408401519250613f64610680860184613fe6565b6105608401519250613f7a610700860184613fe6565b8301519150612ee19050610780840182613fe6565b803582526020810135613fa181614bfd565b613faa81614bac565b60208301526040810135613fbd81614bf0565b613fc681614b9f565b60408301526060810135613fd981614bd5565b8015156060840152505050565b805182526020810151613ff881614bac565b6020830152604081015161400b81614b9f565b60408301526060908101511515910152565b80358252602081013561402f81614bfd565b61403881614bac565b6020830152604081013561404b81614bd5565b8015156040840152505050565b80518252602081015161406a81614bac565b60208301526040908101511515910152565b6001600160a01b0391909116815260200190565b6001600160a01b0392831681529116602082015260400190565b6020808252825182820181905260009190848201906040850190845b818110156140e2578351835292840192918401916001016140c6565b50909695505050505050565b901515815260200190565b9115158252602082015260400190565b90815260200190565b9283526001600160a01b03918216602084015216604082015260600190565b9081526a19dc9858d954195c9a5bd960aa1b602082015260400190565b9081527019195b1a5b9c5d595b98de54195c9a5bd9607a1b602082015260400190565b908152706e6f6e506572666f726d696e674461746560781b602082015260400190565b90815272636f6e7472616374506572666f726d616e636560681b602082015260400190565b6001600160e01b031991909116815260200190565b604081016141dc8285613cf7565b8260208301529392505050565b6020808252603e908201527f417373657452656769737472792e736574436f756e746572706172747942656e60408201527f65666963696172793a20454e5452595f444f45535f4e4f545f45584953540000606082015260800190565b6020808252603d908201527f417373657452656769737472792e736574436f756e746572706172747942656e60408201527f65666963696172793a20554e415554484f52495a45445f53454e444552000000606082015260800190565b60208082526039908201527f417373657452656769737472792e736574436f756e74657270617274794f626c60408201527f69676f723a20554e415554484f52495a45445f53454e44455200000000000000606082015260800190565b6020808252602f908201527f416363657373436f6e74726f6c2e6973417574686f72697a65643a20554e415560408201526e2a2427a924ad22a22fa9a2a72222a960891b606082015260800190565b6020808252602b908201527f4261736552656769737472792e73657441737365743a2041535345545f414c5260408201526a454144595f45584953545360a81b606082015260800190565b60208082526034908201527f4261736552656769737472792e6f6e6c79417070726f7665644163746f72733a604082015273102aa720aaaa2427a924ad22a22fa9a2a72222a960611b606082015260800190565b60208082526038908201527f417373657452656769737472792e73657443726561746f7242656e656669636960408201527f6172793a20554e415554484f52495a45445f53454e4445520000000000000000606082015260800190565b60208082526029908201527f4261736552656769737472792e73657441737365743a204143544f525f4e4f5460408201526817d054141493d5915160ba1b606082015260800190565b60208082526037908201527f506572696f645574696c732e67657454696d657374616d70506c75735065726960408201527f6f643a204154545249425554455f4e4f545f464f554e44000000000000000000606082015260800190565b60208082526039908201527f417373657452656769737472792e73657443726561746f7242656e656669636960408201527f6172793a20454e5452595f444f45535f4e4f545f455849535400000000000000606082015260800190565b6020808252602f908201527f416363657373436f6e74726f6c2e7265766f6b654163636573733a20554e415560408201526e2a2427a924ad22a22fa9a2a72222a960891b606082015260800190565b60208082526034908201527f417373657452656769737472792e73657443726561746f724f626c69676f723a604082015273102aa720aaaa2427a924ad22a22fa9a2a72222a960611b606082015260800190565b60208082526042908201527f41737365744163746f722e6765744e657874556e6465726c79696e674576656e60408201527f743a20554e4445524c59494e475f41535345545f444f45535f4e4f545f45584960608201526114d560f21b608082015260a00190565b60006101808201905061466d828451613cd0565b6020830151602083015260408301516040830152606083015160608301526080830151608083015260a083015160a083015260c083015160c083015260e083015160e083015261010080840151818401525061012080840151818401525061014080840151818401525061016080840151818401525092915050565b6108008101610cd68284613d0b565b61082081016147078285613d0b565b826108008301529392505050565b61084081016147248286613d0b565b83610800830152614739610820830184613cf7565b949350505050565b81516001600160a01b039081168252602080840151821690830152604080840151821690830152606092830151169181019190915260800190565b918252602082015260400190565b8281526101a081016147a7602083016147a2856133d7565b613cd0565b602083013560408301526040830135606083015260608301356080830152608083013560a083015260a083013560c083015260c083013560e083015261010060e0840135818401526101208185013581850152610140915080850135828501525061016081850135818501528085013561018085015250509392505050565b82815261082081016148436020830161483e85613403565b613ce3565b61484f602084016133c1565b61485c6040840182613cc7565b50614869604084016133ed565b6148766060840182613cd9565b5061488360608401613419565b6148906080840182613ced565b5061489d608084016133ab565b6148aa60a0840182613cb9565b506148b760a084016133c1565b6148c460c0840182613cc7565b506148d160c0840161343e565b6148de60e0840182613d01565b506148eb60e084016133c1565b6101006148fa81850183613cc7565b614905818601613395565b91505061012061491781850183613cac565b614922818601613395565b91505061014061493481850183613cac565b610160915080850135828501525061018081850135818501526101a091508085013582850152506101c081850135818501526101e09150808501358285015250610200818501358185015261022091508085013582850152506102408185013581850152610260915080850135828501525061028081850135818501526102a091508085013582850152506102c081850135818501526102e09150808501358285015250610300818501358185015261032091508085013582850152506103408185013581850152610360915080850135828501525061038081850135818501526103a091508085013582850152506103c081850135818501526103e09150808501358285015250610400818501358185015261042091508085013582850152506104408185013581850152610460915080850135828501525061048081850135818501526104a091508085013582850152506104c08185013581850152614aa26104e0850182870161401d565b5050614ab66105408301610520850161401d565b614ac86105a083016105808501613f8f565b614ada61062083016106008501613f8f565b614aec6106a083016106808501613f8f565b614afe61072083016107008501613f8f565b610e086107a083016107808501613f8f565b815181526020808301519082015260408201516080820190614b3181614bb6565b60408301526060830151614b4481614bb6565b8060608401525092915050565b60808101610cd68284613fe6565b60608101610cd68284614058565b60ff91909116815260200190565b60405181810167ffffffffffffffff81118282101715614b9757fe5b604052919050565b60028110614ba957fe5b50565b60068110614ba957fe5b60058110614ba957fe5b6001600160a01b0381168114614ba957600080fd5b8015158114614ba957600080fd5b60098110614ba957600080fd5b60028110614ba957600080fd5b60068110614ba957600080fd5b60058110614ba957600080fd5b600d8110614ba957600080fd5b60148110614ba957600080fd5b600b8110614ba957600080fd5b60048110614ba957600080fdfe4f776e61626c653a206e6577206f776e657220697320746865207a65726f2061646472657373536166654d6174683a206d756c7469706c69636174696f6e206f766572666c6f77a2646970667358221220c0c10334fd77dbc96b1ec65a0105cf7e0a86ca34994c012d813a1330d69306aa64736f6c63430007040033",
  "libraries": {
    "ANNEncoder": "0xe1f475a235720539De8B78f8BA65e3ec765c8E91"
  },
  "devdoc": {
    "kind": "dev",
    "methods": {
      "approveActor(address)": {
        "details": "Can only be called by the owner of the contract.",
        "params": {
          "actor": "address of the actor"
        }
      },
      "getActor(bytes32)": {
        "params": {
          "assetId": "id of the asset"
        },
        "returns": {
          "_0": "address of the asset actor"
        }
      },
      "getEngine(bytes32)": {
        "params": {
          "assetId": "id of the asset"
        },
        "returns": {
          "_0": "address of the engine of the asset"
        }
      },
      "getEventAtIndex(bytes32,uint256)": {
        "params": {
          "assetId": "id of the asset",
          "index": "index of the event to return"
        },
        "returns": {
          "_0": "Event"
        }
      },
      "getExtension(bytes32)": {
        "params": {
          "assetId": "id of the asset"
        },
        "returns": {
          "_0": "address of the asset actor"
        }
      },
      "getFinalizedState(bytes32)": {
        "params": {
          "assetId": "id of the asset"
        },
        "returns": {
          "_0": "state of the asset"
        }
      },
      "getNextScheduleIndex(bytes32)": {
        "params": {
          "assetId": "id of the asset"
        },
        "returns": {
          "_0": "Index"
        }
      },
      "getNextScheduledEvent(bytes32)": {
        "params": {
          "assetId": "id of the asset"
        },
        "returns": {
          "_0": "event"
        }
      },
      "getOwnership(bytes32)": {
        "params": {
          "assetId": "id of the asset"
        },
        "returns": {
          "_0": "addresses of all owners of the asset"
        }
      },
      "getSchedule(bytes32)": {
        "params": {
          "assetId": "id of the asset"
        },
        "returns": {
          "_0": "the schedule"
        }
      },
      "getScheduleLength(bytes32)": {
        "params": {
          "assetId": "id of the asset"
        },
        "returns": {
          "_0": "Length of the schedule"
        }
      },
      "getState(bytes32)": {
        "params": {
          "assetId": "id of the asset"
        },
        "returns": {
          "_0": "state of the asset"
        }
      },
      "getTerms(bytes32)": {
        "params": {
          "assetId": "id of the asset"
        },
        "returns": {
          "_0": "terms of the asset"
        }
      },
      "grantAccess(bytes32,bytes4,address)": {
        "details": "Can only be called by an authorized account.",
        "params": {
          "account": "address of the account to grant access to",
          "assetId": "id of the asset",
          "methodSignature": "function / method signature (4 byte keccak256 hash of the method selector)"
        }
      },
      "hasAccess(bytes32,bytes4,address)": {
        "params": {
          "account": "address of the account for which to check access",
          "assetId": "id of the asset",
          "methodSignature": "function / method signature (4 byte keccak256 hash of the method selector)"
        },
        "returns": {
          "_0": "true if allowed access"
        }
      },
      "hasRootAccess(bytes32,address)": {
        "params": {
          "account": "address of the account for which to check root acccess",
          "assetId": "id of the asset"
        },
        "returns": {
          "_0": "true if has root access"
        }
      },
      "isEventSettled(bytes32,bytes32)": {
        "params": {
          "_event": "event (encoded)",
          "assetId": "id of the asset"
        },
        "returns": {
          "_0": "true if event was settled"
        }
      },
      "isRegistered(bytes32)": {
        "params": {
          "assetId": "id of the asset"
        },
        "returns": {
          "_0": "true if asset exist"
        }
      },
      "markEventAsSettled(bytes32,bytes32,int256)": {
        "details": "Can only be set by authorized account.",
        "params": {
          "_event": "event (encoded) to be marked as settled",
          "assetId": "id of the asset"
        }
      },
      "owner()": {
        "details": "Returns the address of the current owner."
      },
      "popNextScheduledEvent(bytes32)": {
        "details": "Can only be updated by the assets actor or by an authorized account.",
        "params": {
          "assetId": "id of the asset"
        }
      },
      "registerAsset(bytes32,(uint8,uint8,uint8,uint8,uint8,uint8,uint8,uint8,address,address,bytes32,uint256,uint256,uint256,uint256,uint256,uint256,uint256,uint256,uint256,uint256,uint256,int256,int256,int256,int256,int256,int256,int256,int256,int256,int256,int256,int256,int256,int256,int256,int256,(uint256,uint8,bool),(uint256,uint8,bool),(uint256,uint8,uint8,bool),(uint256,uint8,uint8,bool),(uint256,uint8,uint8,bool),(uint256,uint8,uint8,bool),(uint256,uint8,uint8,bool)),(uint8,uint256,uint256,uint256,uint256,int256,int256,int256,int256,int256,int256,int256),bytes32[],(address,address,address,address),address,address,address,address)": {
        "params": {
          "actor": "account which is allowed to update the asset state",
          "admin": "account which as admin rights (optional)",
          "engine": "ACTUS Engine of the asset",
          "extension": "address of the extension (optional)",
          "ownership": "ownership of the asset",
          "schedule": "schedule of the asset",
          "state": "initial state of the asset",
          "terms": "asset specific terms (ANNTerms)"
        }
      },
      "renounceOwnership()": {
        "details": "Leaves the contract without owner. It will not be possible to call `onlyOwner` functions anymore. Can only be called by the current owner. NOTE: Renouncing ownership will leave the contract without an owner, thereby removing any functionality that is only available to the owner."
      },
      "revokeAccess(bytes32,bytes4,address)": {
        "details": "Can only be called by an authorized account.",
        "params": {
          "account": "address of the account to revoke access for",
          "assetId": "id of the asset",
          "methodSignature": "function / method signature (4 byte keccak256 hash of the method selector)"
        }
      },
      "setActor(bytes32,address)": {
        "params": {
          "actor": "address of the Actor contract",
          "assetId": "id of the asset"
        }
      },
      "setCounterpartyBeneficiary(bytes32,address)": {
        "details": "Can only be updated by the current counterparty beneficiary or by an authorized account.",
        "params": {
          "assetId": "id of the asset",
          "newCounterpartyBeneficiary": "address of the new beneficiary"
        }
      },
      "setCounterpartyObligor(bytes32,address)": {
        "details": "Can only be updated by an authorized account.",
        "params": {
          "assetId": "id of the asset",
          "newCounterpartyObligor": "address of the new counterparty obligor"
        }
      },
      "setCreatorBeneficiary(bytes32,address)": {
        "details": "Can only be updated by the current creator beneficiary or by an authorized account.",
        "params": {
          "assetId": "id of the asset",
          "newCreatorBeneficiary": "address of the new beneficiary"
        }
      },
      "setCreatorObligor(bytes32,address)": {
        "details": "Can only be updated by an authorized account.",
        "params": {
          "assetId": "id of the asset",
          "newCreatorObligor": "address of the new creator obligor"
        }
      },
      "setEngine(bytes32,address)": {
        "details": "Can only be set by authorized account.",
        "params": {
          "assetId": "id of the asset",
          "engine": "new engine address"
        }
      },
      "setExtension(bytes32,address)": {
        "details": "Can only be set by authorized account.",
        "params": {
          "assetId": "id of the asset",
          "extension": "new extension address"
        }
      },
      "setFinalizedState(bytes32,(uint8,uint256,uint256,uint256,uint256,int256,int256,int256,int256,int256,int256,int256))": {
        "details": "Can only be updated by the assets actor or by an authorized account.",
        "params": {
          "assetId": "id of the asset",
          "state": "next state of the asset"
        }
      },
      "setState(bytes32,(uint8,uint256,uint256,uint256,uint256,int256,int256,int256,int256,int256,int256,int256))": {
        "details": "Can only be updated by the assets actor or by an authorized account.",
        "params": {
          "assetId": "id of the asset",
          "state": "next state of the asset"
        }
      },
      "setTerms(bytes32,(uint8,uint8,uint8,uint8,uint8,uint8,uint8,uint8,address,address,bytes32,uint256,uint256,uint256,uint256,uint256,uint256,uint256,uint256,uint256,uint256,uint256,int256,int256,int256,int256,int256,int256,int256,int256,int256,int256,int256,int256,int256,int256,int256,int256,(uint256,uint8,bool),(uint256,uint8,bool),(uint256,uint8,uint8,bool),(uint256,uint8,uint8,bool),(uint256,uint8,uint8,bool),(uint256,uint8,uint8,bool),(uint256,uint8,uint8,bool)))": {
        "details": "Can only be set by authorized account.",
        "params": {
          "assetId": "id of the asset",
          "terms": "new terms"
        }
      },
      "transferOwnership(address)": {
        "details": "Transfers ownership of the contract to a new account (`newOwner`). Can only be called by the current owner."
      }
    },
    "title": "ANNRegistry",
    "version": 1
  },
  "userdoc": {
    "kind": "user",
    "methods": {
      "approveActor(address)": {
        "notice": "Approves the address of an actor contract e.g. for registering assets."
      },
      "getActor(bytes32)": {
        "notice": "Returns the address of the actor which is allowed to update the state of the asset."
      },
      "getEngine(bytes32)": {
        "notice": "Returns the address of a the ACTUS engine corresponding to the ContractType of an asset."
      },
      "getEpochOffset(uint8)": {
        "notice": "Returns the epoch offset for a given event type to determine the correct order of events if multiple events have the same timestamp"
      },
      "getEventAtIndex(bytes32,uint256)": {
        "notice": "Returns an event for a given position (index) in a schedule of a given asset."
      },
      "getExtension(bytes32)": {
        "notice": "Returns the address of the extension which is allowed to generate events for the asset."
      },
      "getFinalizedState(bytes32)": {
        "notice": "Returns the state of an asset."
      },
      "getNextScheduleIndex(bytes32)": {
        "notice": "Returns the index of the next event to be processed for a schedule of an asset."
      },
      "getNextScheduledEvent(bytes32)": {
        "notice": "Returns the next event to process."
      },
      "getNextUnderlyingEvent(bytes32)": {
        "notice": "If the underlying of the asset changes in performance to a covered performance, it returns the exerciseDate event."
      },
      "getOwnership(bytes32)": {
        "notice": "Retrieves the registered addresses of owners (creator, counterparty) of an asset."
      },
      "getSchedule(bytes32)": {
        "notice": "Convenience method for retrieving the entire schedule Not recommended to execute method on-chain (if schedule is too long the tx may run out of gas)"
      },
      "getScheduleLength(bytes32)": {
        "notice": "Returns the length of a schedule of a given asset."
      },
      "getState(bytes32)": {
        "notice": "Returns the state of an asset."
      },
      "getTerms(bytes32)": {
        "notice": "Returns the terms of an asset."
      },
      "grantAccess(bytes32,bytes4,address)": {
        "notice": "Grant access to an account to call a specific method on a specific asset."
      },
      "hasAccess(bytes32,bytes4,address)": {
        "notice": "Check whether an account is allowed to call a specific method on a specific asset."
      },
      "hasRootAccess(bytes32,address)": {
        "notice": "Check whether an account has root access for a specific asset."
      },
      "isEventSettled(bytes32,bytes32)": {
        "notice": "Returns true if an event of an assets schedule was settled"
      },
      "isRegistered(bytes32)": {
        "notice": "Returns if there is an asset registerd for a given assetId"
      },
      "markEventAsSettled(bytes32,bytes32,int256)": {
        "notice": "Mark an event as settled"
      },
      "popNextScheduledEvent(bytes32)": {
        "notice": "Increments the index of a schedule of an asset. (if max index is reached the index will be left unchanged)"
      },
      "registerAsset(bytes32,(uint8,uint8,uint8,uint8,uint8,uint8,uint8,uint8,address,address,bytes32,uint256,uint256,uint256,uint256,uint256,uint256,uint256,uint256,uint256,uint256,uint256,int256,int256,int256,int256,int256,int256,int256,int256,int256,int256,int256,int256,int256,int256,int256,int256,(uint256,uint8,bool),(uint256,uint8,bool),(uint256,uint8,uint8,bool),(uint256,uint8,uint8,bool),(uint256,uint8,uint8,bool),(uint256,uint8,uint8,bool),(uint256,uint8,uint8,bool)),(uint8,uint256,uint256,uint256,uint256,int256,int256,int256,int256,int256,int256,int256),bytes32[],(address,address,address,address),address,address,address,address)": {
        "notice": "@param assetId id of the asset"
      },
      "revokeAccess(bytes32,bytes4,address)": {
        "notice": "Revoke access for an account to call a specific method on a specific asset."
      },
      "setActor(bytes32,address)": {
        "notice": "Set the address of the Actor contract which should be going forward."
      },
      "setCounterpartyBeneficiary(bytes32,address)": {
        "notice": "Updates the address of the default beneficiary of cashflows going to the counterparty."
      },
      "setCounterpartyObligor(bytes32,address)": {
        "notice": "Update the address of the counterparty which has to fulfill obligations for the counterparty of the asset."
      },
      "setCreatorBeneficiary(bytes32,address)": {
        "notice": "Update the address of the default beneficiary of cashflows going to the creator."
      },
      "setCreatorObligor(bytes32,address)": {
        "notice": "Update the address of the obligor which has to fulfill obligations for the creator of the asset."
      },
      "setEngine(bytes32,address)": {
        "notice": "Set the engine address which should be used for the asset going forward."
      },
      "setExtension(bytes32,address)": {
        "notice": "Set the extension address which should be used for the asset going forward."
      },
      "setFinalizedState(bytes32,(uint8,uint256,uint256,uint256,uint256,int256,int256,int256,int256,int256,int256,int256))": {
        "notice": "Sets next finalized state of an asset."
      },
      "setState(bytes32,(uint8,uint256,uint256,uint256,uint256,int256,int256,int256,int256,int256,int256,int256))": {
        "notice": "Sets next state of an asset."
      },
      "setTerms(bytes32,(uint8,uint8,uint8,uint8,uint8,uint8,uint8,uint8,address,address,bytes32,uint256,uint256,uint256,uint256,uint256,uint256,uint256,uint256,uint256,uint256,uint256,int256,int256,int256,int256,int256,int256,int256,int256,int256,int256,int256,int256,int256,int256,int256,int256,(uint256,uint8,bool),(uint256,uint8,bool),(uint256,uint8,uint8,bool),(uint256,uint8,uint8,bool),(uint256,uint8,uint8,bool),(uint256,uint8,uint8,bool),(uint256,uint8,uint8,bool)))": {
        "notice": "Set the terms of the asset"
      }
    },
    "notice": "Registry for ACTUS Protocol assets",
    "version": 1
  },
  "storageLayout": {
    "storage": [
      {
        "astId": 30,
        "contract": "contracts/Core/ANN/ANNRegistry.sol:ANNRegistry",
        "label": "_owner",
        "offset": 0,
        "slot": "0",
        "type": "t_address"
      },
      {
        "astId": 27200,
        "contract": "contracts/Core/ANN/ANNRegistry.sol:ANNRegistry",
        "label": "assets",
        "offset": 0,
        "slot": "1",
        "type": "t_mapping(t_bytes32,t_struct(Asset)27192_storage)"
      },
      {
        "astId": 26862,
        "contract": "contracts/Core/ANN/ANNRegistry.sol:ANNRegistry",
        "label": "approvedActors",
        "offset": 0,
        "slot": "2",
        "type": "t_mapping(t_address,t_bool)"
      }
    ],
    "types": {
      "t_address": {
        "encoding": "inplace",
        "label": "address",
        "numberOfBytes": "20"
      },
      "t_bool": {
        "encoding": "inplace",
        "label": "bool",
        "numberOfBytes": "1"
      },
      "t_bytes32": {
        "encoding": "inplace",
        "label": "bytes32",
        "numberOfBytes": "32"
      },
      "t_bytes4": {
        "encoding": "inplace",
        "label": "bytes4",
        "numberOfBytes": "4"
      },
      "t_enum(EventType)1814": {
        "encoding": "inplace",
        "label": "enum EventType",
        "numberOfBytes": "1"
      },
      "t_int256": {
        "encoding": "inplace",
        "label": "int256",
        "numberOfBytes": "32"
      },
      "t_mapping(t_address,t_bool)": {
        "encoding": "mapping",
        "key": "t_address",
        "label": "mapping(address => bool)",
        "numberOfBytes": "32",
        "value": "t_bool"
      },
      "t_mapping(t_bytes32,t_bytes32)": {
        "encoding": "mapping",
        "key": "t_bytes32",
        "label": "mapping(bytes32 => bytes32)",
        "numberOfBytes": "32",
        "value": "t_bytes32"
      },
      "t_mapping(t_bytes32,t_struct(Asset)27192_storage)": {
        "encoding": "mapping",
        "key": "t_bytes32",
        "label": "mapping(bytes32 => struct Asset)",
        "numberOfBytes": "32",
        "value": "t_struct(Asset)27192_storage"
      },
      "t_mapping(t_bytes32,t_struct(Settlement)27161_storage)": {
        "encoding": "mapping",
        "key": "t_bytes32",
        "label": "mapping(bytes32 => struct Settlement)",
        "numberOfBytes": "32",
        "value": "t_struct(Settlement)27161_storage"
      },
      "t_mapping(t_bytes4,t_mapping(t_address,t_bool))": {
        "encoding": "mapping",
        "key": "t_bytes4",
        "label": "mapping(bytes4 => mapping(address => bool))",
        "numberOfBytes": "32",
        "value": "t_mapping(t_address,t_bool)"
      },
      "t_mapping(t_enum(EventType)1814,t_uint256)": {
        "encoding": "mapping",
        "key": "t_enum(EventType)1814",
        "label": "mapping(enum EventType => uint256)",
        "numberOfBytes": "32",
        "value": "t_uint256"
      },
      "t_mapping(t_uint256,t_bytes32)": {
        "encoding": "mapping",
        "key": "t_uint256",
        "label": "mapping(uint256 => bytes32)",
        "numberOfBytes": "32",
        "value": "t_bytes32"
      },
      "t_struct(Asset)27192_storage": {
        "encoding": "inplace",
        "label": "struct Asset",
        "members": [
          {
            "astId": 27163,
            "contract": "contracts/Core/ANN/ANNRegistry.sol:ANNRegistry",
            "label": "isSet",
            "offset": 0,
            "slot": "0",
            "type": "t_bool"
          },
          {
            "astId": 27165,
            "contract": "contracts/Core/ANN/ANNRegistry.sol:ANNRegistry",
            "label": "engine",
            "offset": 1,
            "slot": "0",
            "type": "t_address"
          },
          {
            "astId": 27167,
            "contract": "contracts/Core/ANN/ANNRegistry.sol:ANNRegistry",
            "label": "actor",
            "offset": 0,
            "slot": "1",
            "type": "t_address"
          },
          {
            "astId": 27169,
            "contract": "contracts/Core/ANN/ANNRegistry.sol:ANNRegistry",
            "label": "extension",
            "offset": 0,
            "slot": "2",
            "type": "t_address"
          },
          {
            "astId": 27171,
            "contract": "contracts/Core/ANN/ANNRegistry.sol:ANNRegistry",
            "label": "schedule",
            "offset": 0,
            "slot": "3",
            "type": "t_struct(Schedule)29746_storage"
          },
          {
            "astId": 27173,
            "contract": "contracts/Core/ANN/ANNRegistry.sol:ANNRegistry",
            "label": "ownership",
            "offset": 0,
            "slot": "9",
            "type": "t_struct(AssetOwnership)29729_storage"
          },
          {
            "astId": 27179,
            "contract": "contracts/Core/ANN/ANNRegistry.sol:ANNRegistry",
            "label": "access",
            "offset": 0,
            "slot": "13",
            "type": "t_mapping(t_bytes4,t_mapping(t_address,t_bool))"
          },
          {
            "astId": 27183,
            "contract": "contracts/Core/ANN/ANNRegistry.sol:ANNRegistry",
            "label": "packedTerms",
            "offset": 0,
            "slot": "14",
            "type": "t_mapping(t_bytes32,t_bytes32)"
          },
          {
            "astId": 27187,
            "contract": "contracts/Core/ANN/ANNRegistry.sol:ANNRegistry",
            "label": "packedState",
            "offset": 0,
            "slot": "15",
            "type": "t_mapping(t_bytes32,t_bytes32)"
          },
          {
            "astId": 27191,
            "contract": "contracts/Core/ANN/ANNRegistry.sol:ANNRegistry",
            "label": "settlement",
            "offset": 0,
            "slot": "16",
            "type": "t_mapping(t_bytes32,t_struct(Settlement)27161_storage)"
          }
        ],
        "numberOfBytes": "544"
      },
      "t_struct(AssetOwnership)29729_storage": {
        "encoding": "inplace",
        "label": "struct AssetOwnership",
        "members": [
          {
            "astId": 29722,
            "contract": "contracts/Core/ANN/ANNRegistry.sol:ANNRegistry",
            "label": "creatorObligor",
            "offset": 0,
            "slot": "0",
            "type": "t_address"
          },
          {
            "astId": 29724,
            "contract": "contracts/Core/ANN/ANNRegistry.sol:ANNRegistry",
            "label": "creatorBeneficiary",
            "offset": 0,
            "slot": "1",
            "type": "t_address"
          },
          {
            "astId": 29726,
            "contract": "contracts/Core/ANN/ANNRegistry.sol:ANNRegistry",
            "label": "counterpartyObligor",
            "offset": 0,
            "slot": "2",
            "type": "t_address"
          },
          {
            "astId": 29728,
            "contract": "contracts/Core/ANN/ANNRegistry.sol:ANNRegistry",
            "label": "counterpartyBeneficiary",
            "offset": 0,
            "slot": "3",
            "type": "t_address"
          }
        ],
        "numberOfBytes": "128"
      },
      "t_struct(Schedule)29746_storage": {
        "encoding": "inplace",
        "label": "struct Schedule",
        "members": [
          {
            "astId": 29733,
            "contract": "contracts/Core/ANN/ANNRegistry.sol:ANNRegistry",
            "label": "lastScheduleTimeOfCyclicEvent",
            "offset": 0,
            "slot": "0",
            "type": "t_mapping(t_enum(EventType)1814,t_uint256)"
          },
          {
            "astId": 29737,
            "contract": "contracts/Core/ANN/ANNRegistry.sol:ANNRegistry",
            "label": "events",
            "offset": 0,
            "slot": "1",
            "type": "t_mapping(t_uint256,t_bytes32)"
          },
          {
            "astId": 29739,
            "contract": "contracts/Core/ANN/ANNRegistry.sol:ANNRegistry",
            "label": "length",
            "offset": 0,
            "slot": "2",
            "type": "t_uint256"
          },
          {
            "astId": 29741,
            "contract": "contracts/Core/ANN/ANNRegistry.sol:ANNRegistry",
            "label": "nextScheduleIndex",
            "offset": 0,
            "slot": "3",
            "type": "t_uint256"
          },
          {
            "astId": 29743,
            "contract": "contracts/Core/ANN/ANNRegistry.sol:ANNRegistry",
            "label": "pendingEvent",
            "offset": 0,
            "slot": "4",
            "type": "t_bytes32"
          },
          {
            "astId": 29745,
            "contract": "contracts/Core/ANN/ANNRegistry.sol:ANNRegistry",
            "label": "lastNonCyclicEvent",
            "offset": 0,
            "slot": "5",
            "type": "t_bytes32"
          }
        ],
        "numberOfBytes": "192"
      },
      "t_struct(Settlement)27161_storage": {
        "encoding": "inplace",
        "label": "struct Settlement",
        "members": [
          {
            "astId": 27158,
            "contract": "contracts/Core/ANN/ANNRegistry.sol:ANNRegistry",
            "label": "isSettled",
            "offset": 0,
            "slot": "0",
            "type": "t_bool"
          },
          {
            "astId": 27160,
            "contract": "contracts/Core/ANN/ANNRegistry.sol:ANNRegistry",
            "label": "payoff",
            "offset": 0,
            "slot": "1",
            "type": "t_int256"
          }
        ],
        "numberOfBytes": "64"
      },
      "t_uint256": {
        "encoding": "inplace",
        "label": "uint256",
        "numberOfBytes": "32"
      }
    }
  }
}