{
  "contractName": "Bonds",
  "abi": [
    {
      "constant": false,
      "inputs": [
        {
          "name": "_byTime",
          "type": "uint256"
        }
      ],
      "name": "isAllPaidFor",
      "outputs": [
        {
          "name": "",
          "type": "address[]"
        }
      ],
      "payable": false,
      "stateMutability": "nonpayable",
      "type": "function"
    },
    {
      "constant": false,
      "inputs": [
        {
          "name": "_productReference",
          "type": "bytes32"
        },
        {
          "name": "_productCategory",
          "type": "bytes32"
        },
        {
          "name": "_issuer",
          "type": "address"
        },
        {
          "name": "_registrar",
          "type": "address"
        },
        {
          "name": "_owner",
          "type": "address"
        },
        {
          "name": "_securityContract",
          "type": "address"
        },
        {
          "name": "_securityRegistriesContract",
          "type": "address"
        },
        {
          "name": "_viaFactoryContract",
          "type": "address"
        }
      ],
      "name": "initialize",
      "outputs": [],
      "payable": false,
      "stateMutability": "nonpayable",
      "type": "function"
    },
    {
      "constant": false,
      "inputs": [
        {
          "name": "_beneficiary",
          "type": "address"
        },
        {
          "name": "_currency",
          "type": "bytes32"
        },
        {
          "name": "_amount",
          "type": "uint256"
        }
      ],
      "name": "payOut",
      "outputs": [],
      "payable": false,
      "stateMutability": "nonpayable",
      "type": "function"
    },
    {
      "constant": false,
      "inputs": [
        {
          "name": "platform",
          "type": "address"
        }
      ],
      "name": "getLiquidityProviders",
      "outputs": [
        {
          "components": [
            {
              "name": "owner",
              "type": "address"
            },
            {
              "name": "amountOffered",
              "type": "uint256"
            },
            {
              "name": "amountDesired",
              "type": "uint256"
            },
            {
              "name": "min",
              "type": "uint256"
            }
          ],
          "name": "",
          "type": "tuple[]"
        }
      ],
      "payable": false,
      "stateMutability": "nonpayable",
      "type": "function"
    },
    {
      "constant": true,
      "inputs": [],
      "name": "getOwner",
      "outputs": [
        {
          "name": "",
          "type": "address"
        }
      ],
      "payable": false,
      "stateMutability": "view",
      "type": "function"
    },
    {
      "constant": true,
      "inputs": [],
      "name": "getBeneficiaries",
      "outputs": [
        {
          "name": "",
          "type": "address[]"
        }
      ],
      "payable": false,
      "stateMutability": "view",
      "type": "function"
    },
    {
      "constant": false,
      "inputs": [
        {
          "name": "_liquidityPlatform",
          "type": "address"
        }
      ],
      "name": "registerPlatform",
      "outputs": [],
      "payable": false,
      "stateMutability": "nonpayable",
      "type": "function"
    },
    {
      "constant": false,
      "inputs": [],
      "name": "getDateOfIssue",
      "outputs": [
        {
          "name": "day",
          "type": "uint256"
        },
        {
          "name": "month",
          "type": "uint256"
        },
        {
          "name": "year",
          "type": "uint256"
        }
      ],
      "payable": false,
      "stateMutability": "nonpayable",
      "type": "function"
    },
    {
      "constant": false,
      "inputs": [
        {
          "name": "platform",
          "type": "address"
        },
        {
          "components": [
            {
              "name": "owner",
              "type": "address"
            },
            {
              "name": "amountOffered",
              "type": "uint256"
            },
            {
              "name": "amountDesired",
              "type": "uint256"
            },
            {
              "name": "min",
              "type": "uint256"
            }
          ],
          "name": "lps",
          "type": "tuple[]"
        }
      ],
      "name": "setLiquidityProviders",
      "outputs": [],
      "payable": false,
      "stateMutability": "nonpayable",
      "type": "function"
    },
    {
      "constant": false,
      "inputs": [
        {
          "name": "platform",
          "type": "address"
        },
        {
          "name": "securityToken",
          "type": "address"
        },
        {
          "name": "pools",
          "type": "bytes32[]"
        },
        {
          "name": "status",
          "type": "bool"
        }
      ],
      "name": "setPlatformPools",
      "outputs": [],
      "payable": false,
      "stateMutability": "nonpayable",
      "type": "function"
    },
    {
      "constant": false,
      "inputs": [
        {
          "name": "_beneficiary",
          "type": "address"
        }
      ],
      "name": "getPaymentStatusFor",
      "outputs": [
        {
          "components": [
            {
              "name": "currency",
              "type": "bytes32"
            },
            {
              "name": "amount",
              "type": "uint256"
            },
            {
              "name": "payoutDate",
              "type": "uint256"
            },
            {
              "name": "payer",
              "type": "address"
            }
          ],
          "name": "",
          "type": "tuple[]"
        }
      ],
      "payable": false,
      "stateMutability": "nonpayable",
      "type": "function"
    },
    {
      "constant": false,
      "inputs": [
        {
          "name": "platform",
          "type": "address"
        },
        {
          "name": "pool",
          "type": "bytes32"
        },
        {
          "components": [
            {
              "name": "investor",
              "type": "address"
            },
            {
              "name": "asset",
              "type": "address"
            },
            {
              "name": "name",
              "type": "bytes32"
            },
            {
              "name": "amount",
              "type": "uint256"
            },
            {
              "name": "price",
              "type": "uint256"
            }
          ],
          "name": "eois",
          "type": "tuple[]"
        }
      ],
      "name": "setPlatformSubscribers",
      "outputs": [],
      "payable": false,
      "stateMutability": "nonpayable",
      "type": "function"
    },
    {
      "anonymous": false,
      "inputs": [
        {
          "indexed": false,
          "name": "issueSize",
          "type": "uint256"
        },
        {
          "indexed": false,
          "name": "offerPrice",
          "type": "uint256"
        },
        {
          "indexed": false,
          "name": "minAskPrice",
          "type": "uint256"
        },
        {
          "indexed": false,
          "name": "minSubscription",
          "type": "uint256"
        },
        {
          "indexed": false,
          "name": "currency",
          "type": "bytes32"
        },
        {
          "indexed": false,
          "name": "security",
          "type": "address"
        },
        {
          "indexed": false,
          "name": "offerType",
          "type": "bytes32"
        },
        {
          "indexed": false,
          "name": "isin",
          "type": "bytes32"
        },
        {
          "indexed": false,
          "name": "status",
          "type": "bytes32"
        },
        {
          "indexed": false,
          "name": "productCategory",
          "type": "bytes32"
        }
      ],
      "name": "issued",
      "type": "event"
    },
    {
      "anonymous": false,
      "inputs": [
        {
          "indexed": false,
          "name": "security",
          "type": "address"
        },
        {
          "indexed": false,
          "name": "status",
          "type": "bytes32"
        }
      ],
      "name": "offered",
      "type": "event"
    },
    {
      "anonymous": false,
      "inputs": [
        {
          "indexed": false,
          "name": "security",
          "type": "address"
        },
        {
          "indexed": false,
          "name": "status",
          "type": "bytes32"
        }
      ],
      "name": "opened",
      "type": "event"
    },
    {
      "anonymous": false,
      "inputs": [
        {
          "indexed": false,
          "name": "security",
          "type": "address"
        },
        {
          "indexed": false,
          "name": "status",
          "type": "bytes32"
        }
      ],
      "name": "closed",
      "type": "event"
    },
    {
      "anonymous": false,
      "inputs": [
        {
          "indexed": false,
          "name": "security",
          "type": "address"
        },
        {
          "indexed": false,
          "name": "status",
          "type": "bytes32"
        }
      ],
      "name": "allotted",
      "type": "event"
    },
    {
      "anonymous": false,
      "inputs": [
        {
          "indexed": false,
          "name": "platform",
          "type": "address"
        },
        {
          "indexed": false,
          "name": "security",
          "type": "address"
        },
        {
          "indexed": false,
          "name": "isin",
          "type": "bytes32"
        },
        {
          "indexed": false,
          "name": "issueSize",
          "type": "uint256"
        },
        {
          "indexed": false,
          "name": "currency",
          "type": "address"
        },
        {
          "indexed": false,
          "name": "offerPrice",
          "type": "uint256"
        },
        {
          "indexed": false,
          "name": "minAskPrice",
          "type": "uint256"
        },
        {
          "indexed": false,
          "name": "minSubscription",
          "type": "uint256"
        },
        {
          "indexed": false,
          "name": "issuer",
          "type": "address"
        }
      ],
      "name": "offer",
      "type": "event"
    },
    {
      "anonymous": false,
      "inputs": [
        {
          "indexed": false,
          "name": "platform",
          "type": "address"
        },
        {
          "indexed": false,
          "name": "security",
          "type": "address"
        },
        {
          "indexed": false,
          "name": "cutOffTime",
          "type": "uint256"
        },
        {
          "indexed": false,
          "name": "issuer",
          "type": "address"
        }
      ],
      "name": "start",
      "type": "event"
    },
    {
      "anonymous": false,
      "inputs": [
        {
          "indexed": false,
          "name": "platform",
          "type": "address"
        },
        {
          "indexed": false,
          "name": "security",
          "type": "address"
        },
        {
          "indexed": false,
          "name": "issuer",
          "type": "address"
        }
      ],
      "name": "close",
      "type": "event"
    },
    {
      "anonymous": false,
      "inputs": [
        {
          "indexed": false,
          "name": "platform",
          "type": "address"
        },
        {
          "indexed": false,
          "name": "pool",
          "type": "bytes32"
        },
        {
          "indexed": false,
          "name": "issuer",
          "type": "address"
        }
      ],
      "name": "subscriptions",
      "type": "event"
    },
    {
      "anonymous": false,
      "inputs": [
        {
          "indexed": false,
          "name": "platform",
          "type": "address"
        },
        {
          "indexed": false,
          "name": "pool",
          "type": "bytes32"
        },
        {
          "indexed": false,
          "name": "investor",
          "type": "address"
        },
        {
          "indexed": false,
          "name": "amount",
          "type": "uint256"
        },
        {
          "indexed": false,
          "name": "asset",
          "type": "address"
        },
        {
          "indexed": false,
          "name": "issuer",
          "type": "address"
        }
      ],
      "name": "accept",
      "type": "event"
    },
    {
      "anonymous": false,
      "inputs": [
        {
          "indexed": false,
          "name": "platform",
          "type": "address"
        },
        {
          "indexed": false,
          "name": "pool",
          "type": "bytes32"
        },
        {
          "indexed": false,
          "name": "issuer",
          "type": "address"
        }
      ],
      "name": "settle",
      "type": "event"
    },
    {
      "anonymous": false,
      "inputs": [
        {
          "indexed": false,
          "name": "platform",
          "type": "address"
        },
        {
          "indexed": false,
          "name": "pool",
          "type": "bytes32"
        },
        {
          "indexed": false,
          "name": "investor",
          "type": "address"
        },
        {
          "indexed": false,
          "name": "issuer",
          "type": "address"
        }
      ],
      "name": "reject",
      "type": "event"
    },
    {
      "anonymous": false,
      "inputs": [
        {
          "indexed": false,
          "name": "platform",
          "type": "address"
        },
        {
          "indexed": false,
          "name": "security",
          "type": "address"
        },
        {
          "indexed": false,
          "name": "issuer",
          "type": "address"
        }
      ],
      "name": "getLP",
      "type": "event"
    },
    {
      "constant": false,
      "inputs": [
        {
          "name": "_issueSize",
          "type": "uint256"
        },
        {
          "name": "_offerPrice",
          "type": "uint256"
        },
        {
          "name": "_minAskPrice",
          "type": "uint256"
        },
        {
          "name": "_minSubscription",
          "type": "uint256"
        },
        {
          "name": "_couponPaymentCycle",
          "type": "uint256"
        },
        {
          "name": "_tenure",
          "type": "uint256"
        },
        {
          "name": "_currency",
          "type": "bytes32"
        },
        {
          "name": "_offerType",
          "type": "bytes32"
        },
        {
          "name": "_isin",
          "type": "bytes32"
        },
        {
          "name": "_offeringDocuments",
          "type": "string"
        }
      ],
      "name": "issueBond",
      "outputs": [],
      "payable": false,
      "stateMutability": "nonpayable",
      "type": "function"
    },
    {
      "constant": true,
      "inputs": [],
      "name": "getBond",
      "outputs": [
        {
          "components": [
            {
              "name": "issueSize",
              "type": "uint256"
            },
            {
              "name": "coupon",
              "type": "uint256"
            },
            {
              "name": "offerPrice",
              "type": "uint256"
            },
            {
              "name": "minAskPrice",
              "type": "uint256"
            },
            {
              "name": "minSubscription",
              "type": "uint256"
            },
            {
              "name": "currency",
              "type": "bytes32"
            },
            {
              "name": "security",
              "type": "address"
            }
          ],
          "name": "",
          "type": "tuple[]"
        },
        {
          "components": [
            {
              "name": "offerType",
              "type": "bytes32"
            },
            {
              "name": "couponPaymentCycle",
              "type": "uint256"
            },
            {
              "name": "tenure",
              "type": "uint256"
            },
            {
              "name": "isin",
              "type": "bytes32"
            },
            {
              "name": "status",
              "type": "bytes32"
            },
            {
              "name": "offeringDocuments",
              "type": "string"
            }
          ],
          "name": "",
          "type": "tuple"
        }
      ],
      "payable": false,
      "stateMutability": "view",
      "type": "function"
    },
    {
      "constant": false,
      "inputs": [],
      "name": "askOffers",
      "outputs": [],
      "payable": false,
      "stateMutability": "nonpayable",
      "type": "function"
    },
    {
      "constant": false,
      "inputs": [
        {
          "name": "cutOffTime",
          "type": "uint256"
        }
      ],
      "name": "startIssue",
      "outputs": [],
      "payable": false,
      "stateMutability": "nonpayable",
      "type": "function"
    },
    {
      "constant": false,
      "inputs": [],
      "name": "getSubscribers",
      "outputs": [
        {
          "components": [
            {
              "name": "currency",
              "type": "bytes32"
            },
            {
              "name": "amount",
              "type": "uint256"
            },
            {
              "name": "price",
              "type": "uint256"
            },
            {
              "name": "poolid",
              "type": "bytes32"
            },
            {
              "name": "status",
              "type": "bool"
            },
            {
              "name": "platform",
              "type": "address"
            },
            {
              "name": "investor",
              "type": "address"
            },
            {
              "name": "asset",
              "type": "address"
            }
          ],
          "name": "",
          "type": "tuple[]"
        }
      ],
      "payable": false,
      "stateMutability": "nonpayable",
      "type": "function"
    },
    {
      "constant": false,
      "inputs": [
        {
          "name": "_allotment",
          "type": "bytes32"
        },
        {
          "name": "_platform",
          "type": "address"
        },
        {
          "name": "_pool",
          "type": "bytes32"
        },
        {
          "name": "_investor",
          "type": "address"
        },
        {
          "name": "_amount",
          "type": "uint256"
        },
        {
          "name": "_asset",
          "type": "address"
        }
      ],
      "name": "allotIssue",
      "outputs": [],
      "payable": false,
      "stateMutability": "nonpayable",
      "type": "function"
    },
    {
      "constant": false,
      "inputs": [
        {
          "name": "_currency",
          "type": "address"
        }
      ],
      "name": "computeNextInstallment",
      "outputs": [
        {
          "name": "nextInstallment",
          "type": "uint256"
        }
      ],
      "payable": false,
      "stateMutability": "nonpayable",
      "type": "function"
    },
    {
      "constant": true,
      "inputs": [
        {
          "name": "_beneficiary",
          "type": "address"
        }
      ],
      "name": "getPaymentAmountFor",
      "outputs": [
        {
          "name": "paid",
          "type": "uint256"
        }
      ],
      "payable": false,
      "stateMutability": "view",
      "type": "function"
    },
    {
      "constant": true,
      "inputs": [],
      "name": "getmaturityDate",
      "outputs": [
        {
          "name": "day",
          "type": "uint256"
        },
        {
          "name": "month",
          "type": "uint256"
        },
        {
          "name": "year",
          "type": "uint256"
        }
      ],
      "payable": false,
      "stateMutability": "view",
      "type": "function"
    },
    {
      "constant": true,
      "inputs": [],
      "name": "getfirstCouponDate",
      "outputs": [
        {
          "name": "day",
          "type": "uint256"
        },
        {
          "name": "month",
          "type": "uint256"
        },
        {
          "name": "year",
          "type": "uint256"
        }
      ],
      "payable": false,
      "stateMutability": "view",
      "type": "function"
    },
    {
      "constant": true,
      "inputs": [],
      "name": "computeNextCouponDate",
      "outputs": [
        {
          "name": "day",
          "type": "uint256"
        },
        {
          "name": "month",
          "type": "uint256"
        },
        {
          "name": "year",
          "type": "uint256"
        }
      ],
      "payable": false,
      "stateMutability": "view",
      "type": "function"
    },
    {
      "constant": true,
      "inputs": [],
      "name": "getcouponFrequencyInMonths",
      "outputs": [
        {
          "name": "couponFrequency",
          "type": "uint256"
        }
      ],
      "payable": false,
      "stateMutability": "view",
      "type": "function"
    },
    {
      "constant": true,
      "inputs": [
        {
          "name": "_currency",
          "type": "address"
        }
      ],
      "name": "getinterestRateInBips",
      "outputs": [
        {
          "name": "interestRate",
          "type": "uint256"
        }
      ],
      "payable": false,
      "stateMutability": "view",
      "type": "function"
    }
  ],
  "bytecode": "0x608060405234801561001057600080fd5b50613f03806100206000396000f3fe608060405234801561001057600080fd5b50600436106101735760003560e01c8063893d20e8116100de578063d608898111610097578063f25d042e11610071578063f25d042e14610302578063f5adf2ff14610315578063f76ebabb14610328578063fdf4bf5d1461034857610173565b8063d6088981146102d4578063dc442029146102e7578063f010e2c2146102ef57610173565b8063893d20e81461027e578063913b722c14610293578063982b25681461029b578063ac982472146102a3578063b43ea066146102b9578063d3340fb6146102c157610173565b80634afc82bd116101305780634afc82bd146101fb57806358ce1f791461020e5780635e075a431461022157806366f2f9c014610238578063841556001461024b57806388c4b6ee1461025e57610173565b806305cc61ad146101785780631bafe1b91461019657806321ec2b42146101ab57806323b83a5e146101be5780633cb4bd63146101de5780634274515d146101e6575b600080fd5b61018061035b565b60405161018d9190613ca6565b60405180910390f35b6101a96101a4366004613388565b6109d7565b005b6101a96101b93660046134dd565b610da0565b6101d16101cc3660046134bf565b6110bb565b60405161018d9190613c70565b6101a9611239565b6101ee611811565b60405161018d9190613cd9565b6101a961020936600461340f565b611885565b6101ee61021c36600461309a565b611993565b610229611a56565b60405161018d93929190613d37565b6101ee61024636600461309a565b611ae4565b6101a9610259366004613251565b611b54565b61027161026c36600461309a565b611cff565b60405161018d9190613cb7565b610286611d91565b60405161018d9190613b1b565b6101d1611dbc565b610229611e51565b6102ab611eb4565b60405161018d929190613c81565b610229612270565b6101a96102cf36600461309a565b612346565b6101ee6102e236600461309a565b6123af565b61022961241b565b6101a96102fd3660046134bf565b612480565b6101a961031036600461315b565b612613565b6101a96103233660046130de565b612729565b61033b61033636600461309a565b612786565b60405161018d9190613cc8565b6101a96103563660046131ea565b612856565b60375460609033906001600160a01b0316811461037757600080fd5b60005b603f5481101561090e5760005b604054811015610905576000604a6000604084815481106103a457fe5b60009182526020808320909101546001600160a01b039081168452908301939093526040909101812060060154603f805491909316935060609290869081106103e957fe5b600091825260209091200154604051600160e01b63c74073a10281526001600160a01b039091169063c74073a190610425908690600401613b1b565b600060405180830381600087803b15801561043f57600080fd5b505af1158015610453573d6000803e3d6000fd5b505050506040513d6000823e601f3d908101601f1916820160405261047b919081019061329e565b9150915080156104ce57600160d21b6510db1bdcd95902604f556040517f740ceeecb0c18ce3fa5eea6dd340f21c17bc1af2554ba4931954bfa38bacd18b906104c5908590613c07565b60405180910390a15b60005b82518110156108f5576060603f87815481106104e957fe5b60009182526020909120015484516001600160a01b039091169063bfa0caa79086908590811061051557fe5b60200260200101516040518263ffffffff1660e01b81526004016105399190613cd9565b600060405180830381600087803b15801561055357600080fd5b505af1158015610567573d6000803e3d6000fd5b505050506040513d6000823e601f3d908101601f1916820160405261058f9190810190613318565b905060005b81518110156108eb57603354600090815260446020526040902054603f80548a9081106105bd57fe5b600091825260208083209091015460335483526044909152604090912080546001600160a01b0390921691839081106105f257fe5b906000526020600020906007020160040160016101000a8154816001600160a01b0302191690836001600160a01b0316021790555085848151811061063357fe5b6020026020010151604460006033548152602001908152602001600020828154811061065b57fe5b90600052602060002090600702016003018190555082828151811061067c57fe5b60200260200101516060015160446000603354815260200190815260200160002082815481106106a857fe5b9060005260206000209060070201600101819055508282815181106106c957fe5b60200260200101516080015160446000603354815260200190815260200160002082815481106106f557fe5b90600052602060002090600702016002018190555082828151811061071657fe5b602002602001015160400151604460006033548152602001908152602001600020828154811061074257fe5b90600052602060002090600702016000018190555082828151811061076357fe5b602002602001015160000151604460006033548152602001908152602001600020828154811061078f57fe5b906000526020600020906007020160050160006101000a8154816001600160a01b0302191690836001600160a01b031602179055508282815181106107d057fe5b60200260200101516020015160446000603354815260200190815260200160002082815481106107fc57fe5b6000918252602082206007919091020160060180546001600160a01b0319166001600160a01b039390931692909217909155805b6042548110156108905784848151811061084657fe5b6020026020010151600001516001600160a01b03166042828154811061086857fe5b6000918252602090912001546001600160a01b0316141561088857600191505b600101610830565b50806108e15760428484815181106108a457fe5b6020908102919091018101515182546001810184556000938452919092200180546001600160a01b0319166001600160a01b039092169190911790555b5050600101610594565b50506001016104d1565b5050600190920191506103879050565b5060010161037a565b50603354600090815260446020908152604080832080548251818502810185019093528083529193909284015b828210156109cc57600084815260209081902060408051610100808201835260078702909301805482526001808201548387015260028201549383019390935260038101546060830152600481015460ff8116151560808401526001600160a01b03949004841660a08301526005810154841660c08301526006015490921660e0830152908352909201910161093b565b5050505091505b5090565b60375433906001600160a01b031681146109f057600080fd5b42603e55600160d21b651858d8d95c1d02871415610cd55760005b603354600090815260446020526040902054811015610c6e57856044600060335481526020019081526020016000208281548110610a4557fe5b906000526020600020906007020160030154148015610aa85750846001600160a01b03166044600060335481526020019081526020016000208281548110610a8957fe5b60009182526020909120600560079092020101546001600160a01b0316145b8015610ae55750836044600060335481526020019081526020016000208281548110610ad057fe5b90600052602060002090600702016001015410155b8015610b355750826001600160a01b03166044600060335481526020019081526020016000208281548110610b1657fe5b60009182526020909120600660079092020101546001600160a01b0316145b15610c6657604051600160e01b638a0c62f10281526001600160a01b03881690638a0c62f190610b6f908990899089908990600401613d02565b600060405180830381600087803b158015610b8957600080fd5b505af1158015610b9d573d6000803e3d6000fd5b505050506044600060335481526020019081526020016000208181548110610bc157fe5b506000908152805b604354811015610c1257866001600160a01b031660438281548110610bea57fe5b6000918252602090912001546001600160a01b03161415610c0a57600191505b600101610bc9565b5080610c6457604380546001810182556000919091527f9690ad99d6ce244efa8a0f6c2d04036d3b33a9474db32a71b71135c6951027930180546001600160a01b0319166001600160a01b0388161790555b505b600101610a0b565b50604051600160e01b63987757dd0281526001600160a01b0387169063987757dd90610c9e908890600401613cd9565b600060405180830381600087803b158015610cb857600080fd5b505af1158015610ccc573d6000803e3d6000fd5b50505050610d4d565b86600160d21b651c995a9958dd021415610d4d57604051600160e31b6307e132050281526001600160a01b03871690633f09902890610d1a9088908890600401613ce7565b600060405180830381600087803b158015610d3457600080fd5b505af1158015610d48573d6000803e3d6000fd5b505050505b600160c21b67105b1b1bdd1d195902604f556040517f03b095f68fee05efe5e24b3561adcaff741870d703b9bce62535d572cc084a3090610d8f903090613c3b565b60405180910390a150505050505050565b60375433906001600160a01b03168114610db957600080fd5b603454600160e21b63109bdb990214610dd157600080fd5b603a54603354604051600160e21b633d3f3fe902815230926001600160a01b03169163f4fcffa491610e069190600401613cd9565b60206040518083038186803b158015610e1e57600080fd5b505afa158015610e32573d6000803e3d6000fd5b505050506040513d601f19601f82011682018060405250610e5691908101906130c0565b6001600160a01b031614610e6957600080fd5b603d54604051600160e21b633cd163c50281526000916001600160a01b03169063f3458f1490610e9d908a90600401613d52565b60206040518083038186803b158015610eb557600080fd5b505afa158015610ec9573d6000803e3d6000fd5b505050506040513d601f19601f82011682018060405250610eed91908101906130c0565b603d54604051600160e01b63f429f19b0281529192506001600160a01b03169063f429f19b90610f21908490600401613b1b565b60206040518083038186803b158015610f3957600080fd5b505afa158015610f4d573d6000803e3d6000fd5b505050506040513d601f19601f82011682018060405250610f71919081019061336a565b600160cb1b660acd2c286c2e6d0214610f8957600080fd5b6001600160a01b038116600090815260416020526040902054610fff57604080546001810182557f352feee0eea125f11f791c1b77524172e9bc20f1b719b6cef0fc24f64db8e15e0180546001600160a01b0319166001600160a01b038416908117909155815460009182526041602052919020555b6001600160a01b0381166000908152604a602052604090208d8155600281018d9055600381018c9055600481018b9055600501879055604b869055604c899055604d889055604e85905561105560508585612b17565b50600160d21b65125cdcdd595902604f556040517f9db73b9e34b67b0482a252ae5e5448652d5745ede72cfa129660d76c37225983906110a4908f908f908f908f908d9030908e908e90613d7c565b60405180910390a150505050505050505050505050565b60375460609033906001600160a01b03168114806110e657506036546001600160a01b038281169116145b6110ef57600080fd5b604354604080518281526020808402820101909152606091801561111d578160200160208202803883390190505b5090506000805b60435481101561122f5760006001604560006043858154811061114357fe5b60009182526020808320909101546001600160a01b03168352820192909252604001812054604380549390910393506045928590811061117f57fe5b60009182526020808320909101546001600160a01b0316835282019290925260400190208054829081106111af57fe5b90600052602060002090600402016002015487111561122657604382815481106111d557fe5b9060005260206000200160009054906101000a90046001600160a01b03168484815181106111ff57fe5b60200260200101906001600160a01b031690816001600160a01b0316815250508260010192505b50600101611124565b5090949350505050565b60375433906001600160a01b0316811461125257600080fd5b60008080808080805b60405481101561180757604b600301549650604a60006040838154811061127e57fe5b60009182526020808320909101546001600160a01b0316835282019290925260409081018220600501548154909850604a929190849081106112bc57fe5b60009182526020808320909101546001600160a01b0316835282019290925260409081018220548154909750604a929190849081106112f757fe5b60009182526020808320909101546001600160a01b0316835282019290925260409081018220600201548154909650604a9291908490811061133557fe5b60009182526020808320909101546001600160a01b0316835282019290925260409081018220600301548154909550604a9291908490811061137357fe5b60009182526020808320909101546001600160a01b0390811684529083019390935260409182019020600490810154603c54603a546033549451600160e11b635221274102815292975090851694638d079e4d9491169263a4424e82926113db929101613cd9565b60206040518083038186803b1580156113f357600080fd5b505afa158015611407573d6000803e3d6000fd5b505050506040513d601f19601f8201168201806040525061142b91908101906130c0565b603b54603a54603354604051600160e01b63572d82990281526001600160a01b03938416938d93169163572d8299916114679190600401613cd9565b60206040518083038186803b15801561147f57600080fd5b505afa158015611493573d6000803e3d6000fd5b505050506040513d601f19601f820116820180604052506114b7919081019061336a565b8c6040518663ffffffff1660e01b81526004016114d8959493929190613b51565b600060405180830381600087803b1580156114f257600080fd5b505af1158015611506573d6000803e3d6000fd5b5050603c54603a54603354604051600160e01b63572d82990281526001600160a01b039384169550639c3acea094508b939092169163572d82999161154d91600401613cd9565b60206040518083038186803b15801561156557600080fd5b505afa158015611579573d6000803e3d6000fd5b505050506040513d601f19601f8201168201806040525061159d919081019061336a565b8a6040518463ffffffff1660e01b81526004016115bc93929190613d37565b60206040518083038186803b1580156115d457600080fd5b505afa1580156115e8573d6000803e3d6000fd5b505050506040513d601f19601f8201168201806040525061160c91908101906130c0565b603880546001600160a01b0319166001600160a01b039283161790819055604051600160e01b6340c10f190281529116906340c10f19906116539030908990600401613c55565b600060405180830381600087803b15801561166d57600080fd5b505af1158015611681573d6000803e3d6000fd5b5050603854604080546001600160a01b039092169350604a9250600091859081106116a857fe5b6000918252602080832091909101546001600160a01b039081168452908301939093526040918201902060060180546001600160a01b03191693831693909317909255600160ca1b6613d999995c995902604f5560385491517ff4503fa8a89133c55d060f625dd7c591b559496759626476dd2233e41ea9ad329261172e921690613c21565b60405180910390a160005b603f548110156117fe57603f818154811061175057fe5b600091825260209091200154603854604080546001600160a01b039384169363e75fe6a99316918c918b91908890811061178657fe5b60009182526020909120015460405163ffffffff861660e01b81526117c0949392916001600160a01b0316908c908c908c90600401613b9f565b600060405180830381600087803b1580156117da57600080fd5b505af11580156117ee573d6000803e3d6000fd5b5050600190920191506117399050565b5060010161125b565b5050505050505050565b60375460009033906001600160a01b031681148061183c57506036546001600160a01b038281169116145b61184557600080fd5b603454600160e21b63189bdb99021461185d57600080fd5b6000611870603e54604b600101546129b2565b905061187e81603e546129c2565b9250505090565b600054610100900460ff168061189e575061189e612a19565b806118ac575060005460ff16155b6118d457604051600160e51b62461bcd0281526004016118cb90613d6c565b60405180910390fd5b600054610100900460ff161580156118ff576000805460ff1961ff0019909116610100171660011790555b603580546001600160a01b03199081166001600160a01b038881169190911790925560338b905560348a90556036805482168a8416179055603780548216898416179055603a805433908316179055603b80548216878416179055603c80548216868416179055603d80549091169184169190911790558015611988576000805461ff00191690555b505050505050505050565b60375460009033906001600160a01b03168114806119be57506036546001600160a01b038281169116145b6119c757600080fd5b603454600160e21b63189bdb9902146119df57600080fd5b6000604b600101546119f342603e54612a1f565b816119fa57fe5b0490506000805b82811015611a4d576001600160a01b0386166000908152604560205260409020805482908110611a2d57fe5b600091825260209091206001600490920201810154929092019101611a01565b50949350505050565b6037546000908190819033906001600160a01b0316811480611a8557506036546001600160a01b038281169116145b611a8e57600080fd5b603454600160e21b63189bdb990214611aa657600080fd5b6000611ab9603e54604b600101546129b2565b9050611ac481612a2f565b611acd82612a4a565b611ad683612a65565b945094509450505b50909192565b60375460009033906001600160a01b0316811480611b0f57506036546001600160a01b038281169116145b611b1857600080fd5b603454600160e21b63189bdb990214611b3057600080fd5b50506001600160a01b03166000908152604a60205260409020600101546043540290565b60375433906001600160a01b0316811480611b7c57506036546001600160a01b038281169116145b611b8557600080fd5b603d54604051600160e21b632e5ac80102815260009182916001600160a01b039091169063b96b200490611bbd908890600401613cd9565b604080518083038186803b158015611bd457600080fd5b505afa158015611be8573d6000803e3d6000fd5b505050506040513d601f19601f82011682018060405250611c0c91908101906131b0565b9150915080600160cb1b660acd2c286c2e6d021415611cf757604051600160e01b6323b872dd0281526001600160a01b038316906323b872dd90611c589033908a908990600401613b29565b602060405180830381600087803b158015611c7257600080fd5b505af1158015611c86573d6000803e3d6000fd5b505050506040513d601f19601f82011682018060405250611caa919081019061334c565b15611cf757611cb7612b91565b5060408051608081018252868152602080820187905242828401523360608301526001600160a01b03891660009081526045909152919091208054829190fe5b505050505050565b603854604051600160e11b6344625b770281526060916001600160a01b03808516926388c4b6ee92611d35921690600401613b1b565b600060405180830381600087803b158015611d4f57600080fd5b505af1158015611d63573d6000803e3d6000fd5b505050506040513d6000823e601f3d908101601f19168201604052611d8b91908101906132e4565b92915050565b603c546000906001600160a01b03163314611dab57600080fd5b506035546001600160a01b03165b90565b60375460609033906001600160a01b0316811480611de757506036546001600160a01b038281169116145b611df057600080fd5b6043805480602002602001604051908101604052809291908181526020018280548015611e4657602002820191906000526020600020905b81546001600160a01b03168152600190910190602001808311611e28575b505050505091505090565b6037546000908190819033906001600160a01b0316811480611e8057506036546001600160a01b038281169116145b611e8957600080fd5b603454600160e21b63189bdb990214611ea157600080fd5b6000611ab9603e54604b600201546129b2565b6060611ebe612bb8565b6060604080549050604051908082528060200260200182016040528015611eff57816020015b611eec612bef565b815260200190600190039081611ee45790505b509050611f0a612bef565b60005b604054811015612199576040518060e00160405280604a600060408581548110611f3357fe5b9060005260206000200160009054906101000a90046001600160a01b03166001600160a01b03166001600160a01b03168152602001908152602001600020600001548152602001604a600060408581548110611f8b57fe5b9060005260206000200160009054906101000a90046001600160a01b03166001600160a01b03166001600160a01b03168152602001908152602001600020600101548152602001604a600060408581548110611fe357fe5b9060005260206000200160009054906101000a90046001600160a01b03166001600160a01b03166001600160a01b03168152602001908152602001600020600201548152602001604a60006040858154811061203b57fe5b9060005260206000200160009054906101000a90046001600160a01b03166001600160a01b03166001600160a01b03168152602001908152602001600020600301548152602001604a60006040858154811061209357fe5b9060005260206000200160009054906101000a90046001600160a01b03166001600160a01b03166001600160a01b03168152602001908152602001600020600401548152602001604a6000604085815481106120eb57fe5b9060005260206000200160009054906101000a90046001600160a01b03166001600160a01b03166001600160a01b03168152602001908152602001600020600501548152602001604a60006040858154811061214357fe5b60009182526020808320909101546001600160a01b0390811684529083019390935260409091019020600601541690528351909250829084908390811061218657fe5b6020908102919091010152600101611f0d565b506040805160c081018252604b80548252604c54602080840191909152604d5483850152604e546060840152604f54608084015260508054855160026001831615610100026000190190921691909104601f81018490048402820184019096528581528795939493859360a0860193919083018282801561225b5780601f106122305761010080835404028352916020019161225b565b820191906000526020600020905b81548152906001019060200180831161223e57829003601f168201915b50505050508152505090509350935050509091565b6037546000908190819033906001600160a01b031681148061229f57506036546001600160a01b038281169116145b6122a857600080fd5b603454600160e21b63189bdb9902146122c057600080fd5b60005b604c54604d54816122d057fe5b0481101561233f57426122ef603e5483600101604b60010154026129b2565b111561233757600061230d603e5483600101604b60010154026129b2565b905061231881612a2f565b61232182612a4a565b61232a83612a65565b9550955095505050611ade565b6001016122c3565b5050909192565b603a546001600160a01b0316331461235d57600080fd5b603f80546001810182556000919091527fc03004e3ce0784bf68186394306849f9b7b1200073105cd9aeb554a1802b58fd0180546001600160a01b0319166001600160a01b0392909216919091179055565b60375460009033906001600160a01b03168114806123da57506036546001600160a01b038281169116145b6123e357600080fd5b603454600160e21b63189bdb9902146123fb57600080fd5b50506001600160a01b03166000908152604a602052604090206001015490565b6037546000908190819033906001600160a01b031681148061244a57506036546001600160a01b038281169116145b61245357600080fd5b61245e603e54612a2f565b612469603e54612a4a565b612474603e54612a65565b93509350935050909192565b60375433906001600160a01b0316811461249957600080fd5b60005b603f5481101561260e5760005b60405481101561260557603f82815481106124c057fe5b6000918252602082200154604080546001600160a01b039092169263867904b492604a9290869081106124ef57fe5b60009182526020808320909101546001600160a01b039081168452908301939093526040918201902060060154905163ffffffff841660e01b815261253d9291909116908890600401613c55565b600060405180830381600087803b15801561255757600080fd5b505af115801561256b573d6000803e3d6000fd5b50505050600160ca1b6614dd185c9d195902604b600401819055507f9a17155a17018d770a1d614ea564978a64992afbd4577a46f3797f7102c260e8604a6000604084815481106125b857fe5b60009182526020808320909101546001600160a01b03908116845290830193909352604091820190206006015490516125f5929190911690613c21565b60405180910390a16001016124a9565b5060010161249c565b505050565b3360005b8281101561272257612627612c38565b604051806080016040528086868581811061263e57fe5b905060800201600001356001600160a01b03166001600160a01b0316815260200186868581811061266b57fe5b90506080020160200135815260200186868581811061268657fe5b9050608002016040013581526020018686858181106126a157fe5b60800291909101606090810135909252506001600160a01b03888116600090815260466020908152604080832080546001808201835591855293839020875160049095020180546001600160a01b03191694909516939093178455908501518383015584015160028301559290910151600390910155919091019050612617565b5050505050565b6001600160a01b038581166000818152604860209081526040808320948916808452948252808320805460ff191687151517905592825260478152828220938252929092529020339061277d908585612c69565b50505050505050565b60375460609033906001600160a01b03168114806127b157506036546001600160a01b038281169116145b6127ba57600080fd5b6001600160a01b038316600090815260456020908152604080832080548251818502810185019093528083529193909284015b8282101561284a57600084815260209081902060408051608081018252600486029092018054835260018082015484860152600282015492840192909252600301546001600160a01b0316606083015290835290920191016127ed565b50505050915050919050565b3360005b82811015611cf75761286a612ca3565b6040518060a0016040528086868581811061288157fe5b905060a00201600001356001600160a01b03166001600160a01b031681526020018686858181106128ae57fe5b905060a00201602001356001600160a01b03166001600160a01b031681526020018686858181106128db57fe5b905060a002016040013581526020018686858181106128f657fe5b905060a0020160600135815260200186868581811061291157fe5b608060a0909102929092018201359092526001600160a01b03808b1660009081526049602090815260408083208d8452825280832080546001818101835591855293839020885160059095020180549486166001600160a01b0319958616178155928801518382018054919096169416939093179093559185015160028301556060850151600383015593909101516004909101555091909101905061285a565b81810182811015611d8b57600080fd5b6000818311156129d157600080fd5b600080808080806129e7620151808a5b04612a81565b919750955093506129fb62015180896129e1565b50600c97880297909102019590950393909303979650505050505050565b303b1590565b80820382811115611d8b57600080fd5b60008080612a4062015180856129e1565b9695505050505050565b60008080612a5b62015180856129e1565b5095945050505050565b60008080612a7662015180856129e1565b509095945050505050565b60008080836226496581018262023ab1600483020590506004600362023ab18302010590910390600062164b09610fa0600185010205905060046105b58202058303601f019250600061098f8460500281612ad857fe5b0590506000605061098f83020585039050600b820560301994909401606402929092018301996002600c90940290910392909201975095509350505050565b828054600181600116156101000203166002900490600052602060002090601f016020900481019282601f10612b585782800160ff19823516178555612b85565b82800160010185558215612b85579182015b82811115612b85578235825591602001919060010190612b6a565b506109d3929150612cd1565b60408051608081018252600080825260208201819052918101829052606081019190915290565b6040805160c0810182526000808252602082018190529181018290526060808201839052608082019290925260a081019190915290565b6040518060e0016040528060008152602001600081526020016000815260200160008152602001600081526020016000801916815260200160006001600160a01b031681525090565b604051806080016040528060006001600160a01b031681526020016000815260200160008152602001600081525090565b828054828255906000526020600020908101928215612b855791602002820182811115612b85578235825591602001919060010190612b6a565b6040805160a08101825260008082526020820181905291810182905260608101829052608081019190915290565b611db991905b808211156109d35760008155600101612cd7565b6000612cf78235613e66565b9392505050565b6000612cf78251613e66565b60008083601f840112612d1c57600080fd5b5081356001600160401b03811115612d3357600080fd5b602083019150836020820283011115612d4b57600080fd5b9250929050565b600082601f830112612d6357600080fd5b8151612d76612d7182613e33565b613e0d565b91508181835260208401935060208101905083856020840282011115612d9b57600080fd5b60005b83811015612dc75781612db18882612f5b565b8452506020928301929190910190600101612d9e565b5050505092915050565b60008083601f840112612de357600080fd5b5081356001600160401b03811115612dfa57600080fd5b602083019150836080820283011115612d4b57600080fd5b600082601f830112612e2357600080fd5b8151612e31612d7182613e33565b91508181835260208401935060208101905083856080840282011115612e5657600080fd5b60005b83811015612dc75781612e6c8882612fa8565b84525060209092019160809190910190600101612e59565b60008083601f840112612e9657600080fd5b5081356001600160401b03811115612ead57600080fd5b6020830191508360a0820283011115612d4b57600080fd5b600082601f830112612ed657600080fd5b8151612ee4612d7182613e33565b915081818352602084019350602081019050838560a0840282011115612f0957600080fd5b60005b83811015612dc75781612f1f8882613017565b84525060209092019160a09190910190600101612f0c565b6000612cf78235613e71565b6000612cf78251613e71565b6000612cf78235611db9565b6000612cf78251611db9565b60008083601f840112612f7957600080fd5b5081356001600160401b03811115612f9057600080fd5b602083019150836001820283011115612d4b57600080fd5b600060808284031215612fba57600080fd5b612fc46080613e0d565b90506000612fd28484612cfe565b8252506020612fe384848301612f5b565b6020830152506040612ff784828501612f5b565b604083015250606061300b84828501612f5b565b60608301525092915050565b600060a0828403121561302957600080fd5b61303360a0613e0d565b905060006130418484612cfe565b825250602061305284848301612cfe565b602083015250604061306684828501612f5b565b604083015250606061307a84828501612f5b565b606083015250608061308e84828501612f5b565b60808301525092915050565b6000602082840312156130ac57600080fd5b60006130b88484612ceb565b949350505050565b6000602082840312156130d257600080fd5b60006130b88484612cfe565b6000806000806000608086880312156130f657600080fd5b60006131028888612ceb565b955050602061311388828901612ceb565b94505060408601356001600160401b0381111561312f57600080fd5b61313b88828901612d0a565b9350935050606061314e88828901612f37565b9150509295509295909350565b60008060006040848603121561317057600080fd5b600061317c8686612ceb565b93505060208401356001600160401b0381111561319857600080fd5b6131a486828701612dd1565b92509250509250925092565b600080604083850312156131c357600080fd5b60006131cf8585612cfe565b92505060206131e085828601612f5b565b9150509250929050565b6000806000806060858703121561320057600080fd5b600061320c8787612ceb565b945050602061321d87828801612f4f565b93505060408501356001600160401b0381111561323957600080fd5b61324587828801612e84565b95989497509550505050565b60008060006060848603121561326657600080fd5b60006132728686612ceb565b935050602061328386828701612f4f565b925050604061329486828701612f4f565b9150509250925092565b600080604083850312156132b157600080fd5b82516001600160401b038111156132c757600080fd5b6132d385828601612d52565b92505060206131e085828601612f43565b6000602082840312156132f657600080fd5b81516001600160401b0381111561330c57600080fd5b6130b884828501612e12565b60006020828403121561332a57600080fd5b81516001600160401b0381111561334057600080fd5b6130b884828501612ec5565b60006020828403121561335e57600080fd5b60006130b88484612f43565b60006020828403121561337c57600080fd5b60006130b88484612f5b565b60008060008060008060c087890312156133a157600080fd5b60006133ad8989612f4f565b96505060206133be89828a01612ceb565b95505060406133cf89828a01612f4f565b94505060606133e089828a01612ceb565b93505060806133f189828a01612f4f565b92505060a061340289828a01612ceb565b9150509295509295509295565b600080600080600080600080610100898b03121561342c57600080fd5b60006134388b8b612f4f565b98505060206134498b828c01612f4f565b975050604061345a8b828c01612ceb565b965050606061346b8b828c01612ceb565b955050608061347c8b828c01612ceb565b94505060a061348d8b828c01612ceb565b93505060c061349e8b828c01612ceb565b92505060e06134af8b828c01612ceb565b9150509295985092959890939650565b6000602082840312156134d157600080fd5b60006130b88484612f4f565b60008060008060008060008060008060006101408c8e0312156134ff57600080fd5b600061350b8e8e612f4f565b9b5050602061351c8e828f01612f4f565b9a5050604061352d8e828f01612f4f565b995050606061353e8e828f01612f4f565b985050608061354f8e828f01612f4f565b97505060a06135608e828f01612f4f565b96505060c06135718e828f01612f4f565b95505060e06135828e828f01612f4f565b9450506101006135948e828f01612f4f565b9350506101208c01356001600160401b038111156135b157600080fd5b6135bd8e828f01612f67565b92509250509295989b509295989b9093969950565b60006135de838361363e565b505060200190565b60006135f28383613967565b505060e00190565b600061360683836139f0565b50506101000190565b600061361b8383613a87565b505060800190565b600061361b8383613ad1565b61363881613e82565b82525050565b61363881613e66565b600061365282613e59565b61365c8185613e5d565b935061366783613e53565b60005b828110156136925761367d8683516135d2565b955061368882613e53565b915060010161366a565b5093949350505050565b60006136a782613e59565b6136b18185613e5d565b93506136bc83613e53565b60005b82811015613692576136d28683516135e6565b95506136dd82613e53565b91506001016136bf565b60006136f282613e59565b6136fc8185613e5d565b935061370783613e53565b60005b828110156136925761371d8683516135fa565b955061372882613e53565b915060010161370a565b600061373d82613e59565b6137478185613e5d565b935061375283613e53565b60005b828110156136925761376886835161360f565b955061377382613e53565b9150600101613755565b600061378882613e59565b6137928185613e5d565b935061379d83613e53565b60005b82811015613692576137b3868351613623565b95506137be82613e53565b91506001016137a0565b61363881613e71565b61363881611db9565b60006137e582613e59565b6137ef8185613e5d565b93506137ff818560208601613e93565b61380881613ebf565b9093019392505050565b600160d21b65125cdcdd5959029052565b600160e21b63109bdb99029052565b600160d21b6510db1bdcd959029052565b600160f41b610445029052565b600160cb1b660acd2c286c2e6d029052565b600160ca1b6613d999995c9959029052565b6000613881602e83613e5d565b7f436f6e747261637420696e7374616e63652068617320616c726561647920626581527f656e20696e697469616c697a6564000000000000000000000000000000000000602082015260400192915050565b600160c21b67105b1b1bdd1d1959029052565b805160009060c08401906138fa85826137d1565b50602083015161390d60208601826137d1565b50604083015161392060408601826137d1565b50606083015161393360608601826137d1565b50608083015161394660808601826137d1565b5060a083015184820360a086015261395e82826137da565b95945050505050565b805160e083019061397884826137d1565b50602082015161398b60208501826137d1565b50604082015161399e60408501826137d1565b5060608201516139b160608501826137d1565b5060808201516139c460808501826137d1565b5060a08201516139d760a08501826137d1565b5060c08201516139ea60c085018261363e565b50505050565b8051610100830190613a0284826137d1565b506020820151613a1560208501826137d1565b506040820151613a2860408501826137d1565b506060820151613a3b60608501826137d1565b506080820151613a4e60808501826137c8565b5060a0820151613a6160a085018261363e565b5060c0820151613a7460c085018261363e565b5060e08201516139ea60e085018261363e565b80516080830190613a98848261363e565b506020820151613aab60208501826137d1565b506040820151613abe60408501826137d1565b5060608201516139ea60608501826137d1565b80516080830190613ae284826137d1565b506020820151613af560208501826137d1565b506040820151613b0860408501826137d1565b5060608201516139ea606085018261363e565b60208101611d8b828461363e565b60608101613b37828661362f565b613b44602083018561363e565b6130b860408301846137d1565b60c08101613b5f828861363e565b613b6c602083018761363e565b613b7960408301866137d1565b613b8660608301856137d1565b613b9360808301846137d1565b612a4060a08301613843565b60e08101613bad828a61363e565b613bba60208301896137d1565b613bc760408301886137d1565b613bd4606083018761363e565b613be160808301866137d1565b613bee60a08301856137d1565b613bfb60c08301846137d1565b98975050505050505050565b60408101613c15828461363e565b611d8b60208301613832565b60408101613c2f828461363e565b611d8b60208301613862565b60408101613c49828461363e565b611d8b602083016138d3565b60408101613c63828561363e565b612cf760208301846137d1565b60208082528101612cf78184613647565b60408082528101613c92818561369c565b905081810360208301526130b881846138e6565b60208082528101612cf781846136e7565b60208082528101612cf78184613732565b60208082528101612cf7818461377d565b60208101611d8b82846137d1565b60408101613cf582856137d1565b612cf7602083018461363e565b60808101613d1082876137d1565b613d1d602083018661363e565b613d2a60408301856137d1565b61395e606083018461363e565b60608101613d4582866137d1565b613b4460208301856137d1565b60408101613d6082846137d1565b611d8b60208301613850565b60208082528101611d8b81613874565b6101408101613d8b828b6137d1565b613d98602083018a6137d1565b613da560408301896137d1565b613db260608301886137d1565b613dbf60808301876137d1565b613dcc60a083018661363e565b613dd960c08301856137d1565b613de660e08301846137d1565b613df36101008301613812565b613e006101208301613823565b9998505050505050505050565b6040518181016001600160401b0381118282101715613e2b57600080fd5b604052919050565b60006001600160401b03821115613e4957600080fd5b5060209081020190565b60200190565b5190565b90815260200190565b6000611d8b82613e76565b151590565b6001600160a01b031690565b6000611d8b826000611d8b82613e66565b60005b83811015613eae578181015183820152602001613e96565b838111156139ea5750506000910152565b601f01601f19169056fea265627a7a72305820cfb945cdde05674ce7a67ea29184eacdff3ca26f1296d4d6eea7a68f2b3ac1fb6c6578706572696d656e74616cf50037",
  "source": "// Basic functions to be implemented by any bond\r\n// (c) Kallol Borah, Verified Network, 2022\r\n\r\npragma solidity 0.5.7;\r\npragma experimental ABIEncoderV2;\r\n\r\nimport \"./interfaces/IBond.sol\";\r\nimport \"./Issues.sol\";\r\n\r\ncontract Bonds is Bond, Issues {\r\n\r\n    //mapping of asked currency to issue details\r\n    mapping(address => Bond.currencySpecificBondAttribs) private bonds;\r\n    Bond.commonBondAttribs bondIssue;\r\n\r\n    modifier onlyDP(address sender){\r\n        require(registrar==sender);\r\n        _;\r\n    }\r\n\r\n    function issueBond(uint256 _issueSize,\r\n                        uint256 _offerPrice, \r\n                        uint256 _minAskPrice, \r\n                        uint256 _minSubscription,\r\n                        uint256 _couponPaymentCycle, \r\n                        uint256 _tenure,\r\n                        bytes32 _currency,\r\n                        bytes32 _offerType,\r\n                        bytes32 _isin,\r\n                        string calldata _offeringDocuments\r\n                        ) external onlyDP(msg.sender){\r\n        require(category==\"Bond\");\r\n        require(VerifiedProducts(productContract).getIssue(productRef)==address(this));\r\n        address currencyAddress = ViaFactory(viaFactoryContract).getTokenByNameType(_currency,\"ViaCash\");\r\n        require(ViaFactory(viaFactoryContract).getType(currencyAddress) == \"ViaCash\");\r\n        if(currencyIndex[currencyAddress]==0){\r\n            currencies.push(currencyAddress);\r\n            currencyIndex[currencyAddress]=currencies.length;\r\n        }\r\n        bonds[currencyAddress].issueSize = _issueSize;\r\n        bonds[currencyAddress].offerPrice = _offerPrice;\r\n        bonds[currencyAddress].minAskPrice = _minAskPrice;    \r\n        bonds[currencyAddress].minSubscription = _minSubscription;    \r\n        bonds[currencyAddress].currency = _currency;\r\n        bondIssue.offerType = _offerType;\r\n        bondIssue.couponPaymentCycle = _couponPaymentCycle; \r\n        bondIssue.tenure = _tenure; \r\n        bondIssue.isin = _isin;\r\n        bondIssue.offeringDocuments = _offeringDocuments;\r\n        bondIssue.status = \"Issued\";\r\n        emit issued (\r\n            _issueSize,\r\n            _offerPrice, \r\n            _minAskPrice,   \r\n            _minSubscription,\r\n            _currency,\r\n            address(this),\r\n            _offerType,\r\n            _isin,\r\n            \"Issued\",\r\n            \"Bond\"\r\n        );\r\n    }\r\n\r\n    function getBond() external view returns(Bond.currencySpecificBondAttribs[] memory, Bond.commonBondAttribs memory){\r\n        Bond.currencySpecificBondAttribs[] memory notes = new Bond.currencySpecificBondAttribs[](currencies.length);\r\n        Bond.currencySpecificBondAttribs memory bond;\r\n        for(uint i=0; i<currencies.length; i++){\r\n            bond = Bond.currencySpecificBondAttribs({\r\n                issueSize : bonds[currencies[i]].issueSize,\r\n                coupon : bonds[currencies[i]].coupon,\r\n                offerPrice : bonds[currencies[i]].offerPrice, \r\n                minAskPrice : bonds[currencies[i]].minAskPrice, \r\n                minSubscription : bonds[currencies[i]].minSubscription,\r\n                currency : bonds[currencies[i]].currency,\r\n                security : bonds[currencies[i]].security\r\n            });\r\n            notes[i] = bond;\r\n        }\r\n        return (notes, bondIssue);\r\n    }\r\n\r\n    function askOffers() external onlyDP(msg.sender){\r\n        bytes32 isin;\r\n        bytes32 currency;\r\n        uint256 issueSize;\r\n        uint256 offerPrice; \r\n        uint256 minAskPrice; \r\n        uint256 minSubscription;\r\n        for(uint i=0; i<currencies.length; i++){\r\n            isin = bondIssue.isin;\r\n            currency = bonds[currencies[i]].currency;\r\n            issueSize = bonds[currencies[i]].issueSize;\r\n            offerPrice = bonds[currencies[i]].offerPrice;\r\n            minAskPrice = bonds[currencies[i]].minAskPrice;\r\n            minSubscription = bonds[currencies[i]].minSubscription;\r\n            ISecuritiesRegistry(securityRegistriesContract).createSecurity(VerifiedProducts(productContract).getIssuerAddress(productRef),\r\n                                                        securityContract,\r\n                                                        currency,\r\n                                                        VerifiedProducts(productContract).getIssuerName(productRef),\r\n                                                        isin, \"DP\");\r\n            security = ISecuritiesRegistry(securityRegistriesContract).getToken(currency,\r\n                                                                                VerifiedProducts(productContract).getIssuerName(productRef),\r\n                                                                                isin);\r\n            ISecurity(security).mint(address(this), issueSize);\r\n            bonds[currencies[i]].security = security;\r\n            bondIssue.status = \"Offered\";\r\n            emit offered(security, \"Offered\");\r\n            //offer the issue on defi platforms\r\n            for(uint j=0; j<platforms.length; j++){\r\n                IMarketMaker(platforms[j]).offer(security, isin, issueSize, currencies[i], offerPrice, minAskPrice, minSubscription);\r\n                //emit offer(platforms[j], security, isin, issueSize, currencies[i], offerPrice, minAskPrice, minSubscription, address(this));\r\n            }\r\n        }\r\n    }\r\n\r\n    function startIssue(uint256 cutOffTime) external onlyDP(msg.sender){\r\n        for(uint i=0; i<platforms.length; i++){\r\n            for(uint j=0; j<currencies.length; j++){\r\n                IMarketMaker(platforms[i]).issue(bonds[currencies[j]].security, cutOffTime);\r\n                //emit start(platforms[i], bonds[currencies[j]].security, cutOffTime, address(this));\r\n                bondIssue.status = \"Started\";\r\n                emit opened(bonds[currencies[j]].security, \"Offered\");\r\n            }\r\n        }\r\n    }\r\n\r\n    function getSubscribers() external onlyDP(msg.sender) returns(VerifiedIssues.ioi[] memory) {\r\n        for(uint i=0; i<platforms.length; i++){\r\n            for(uint k=0; k<currencies.length; k++){\r\n                address securitytoken;\r\n                securitytoken = bonds[currencies[k]].security;\r\n                (bytes32[] memory pools, bool issueClosed) = IMarketMaker(platforms[i]).close(securitytoken);\r\n                //emit close(platforms[i], securitytoken, address(this));\r\n                //bytes32[] memory pools = poolsOnClose[platforms[i]][securitytoken];\r\n                //bool issueClosed = issueCloseStatus[platforms[i]][securitytoken];\r\n                if(issueClosed){\r\n                    bondIssue.status = \"Closed\";\r\n                    emit closed(securitytoken, \"Closed\");\r\n                }\r\n                for(uint j=0; j<pools.length; j++){\r\n                    IMarketMaker.subscriptions[] memory subs = IMarketMaker(platforms[i]).getSubscribers(pools[j]);\r\n                    //emit subscriptions(platforms[i], pools[j], address(this));\r\n                    //IMarketMaker.subscriptions[] memory subs = subscribersOnClose[platforms[i]][pools[j]]; \r\n                    for(uint l=0; l<subs.length; l++){\r\n                        uint256 count = subscribers[productRef].length;\r\n                        subscribers[productRef][count].platform = platforms[i];\r\n                        subscribers[productRef][count].poolid = pools[j];\r\n                        subscribers[productRef][count].amount = subs[l].amount;\r\n                        subscribers[productRef][count].price = subs[l].price;\r\n                        subscribers[productRef][count].currency = subs[l].name;\r\n                        subscribers[productRef][count].investor = subs[l].investor;\r\n                        subscribers[productRef][count].asset = subs[l].asset;\r\n                        bool found = false;\r\n                        for(uint x=0; x<investors.length; x++){\r\n                            if(investors[x]==subs[l].investor)\r\n                                found = true;\r\n                        }\r\n                        if(!found)\r\n                            investors.push(subs[l].investor);\r\n                    }\r\n                }\r\n            }\r\n        }\r\n        return subscribers[productRef];\r\n    }\r\n\r\n    function allotIssue(bytes32 _allotment, address _platform, bytes32 _pool, address _investor, uint256 _amount, address _asset) external onlyDP(msg.sender){\r\n        timeOfIssue = now;\r\n        if(_allotment==\"accept\"){\r\n            for(uint i=0; i<subscribers[productRef].length; i++){\r\n                if(subscribers[productRef][i].poolid==_pool &&\r\n                   subscribers[productRef][i].investor==_investor &&\r\n                   subscribers[productRef][i].amount >= _amount &&\r\n                   subscribers[productRef][i].asset == _asset\r\n                   ){\r\n                    IMarketMaker(_platform).accept(_pool, _investor, _amount, _asset);\r\n                    //emit accept(_platform, _pool, _investor, _amount, _asset, address(this));\r\n                    subscribers[productRef][i].status == true;\r\n                    bool found = false;\r\n                    for(uint j=0; j<beneficiaries.length; j++){\r\n                        if(beneficiaries[j]==_investor)\r\n                            found = true;\r\n                    }\r\n                    if(!found)\r\n                        beneficiaries.push(_investor);\r\n                }\r\n            }\r\n            IMarketMaker(_platform).settle(_pool);\r\n            //emit settle(_platform, _pool, address(this));\r\n        }\r\n        else if(_allotment==\"reject\"){\r\n            IMarketMaker(_platform).reject(_pool, _investor);\r\n            //emit reject(_platform, _pool, _investor, address(this));\r\n        }\r\n        bondIssue.status = \"Allotted\";\r\n        emit allotted(address(this), \"Allotted\");\r\n    }\r\n\r\n    function computeNextInstallment(address _currency) external onlyDPorIssuer(msg.sender) returns(uint256 nextInstallment){\r\n        require(category==\"bond\");\r\n        return (beneficiaries.length * bonds[_currency].coupon);\r\n    }\r\n\r\n    function getPaymentAmountFor(address _beneficiary) external onlyDPorIssuer(msg.sender) view returns(uint256 paid){\r\n        require(category==\"bond\");\r\n        uint256 installments = BokkyPooBahsDateTimeLibrary.subSeconds(now, timeOfIssue)/bondIssue.couponPaymentCycle;\r\n        uint256 paymentMade = 0;\r\n        for(uint i=0; i<installments; i++){\r\n            paymentMade = paymentMade + payouts[_beneficiary][i].amount;\r\n        }\r\n        return (paymentMade);\r\n    }\r\n\r\n    function getmaturityDate() external onlyDPorIssuer(msg.sender) view returns(uint256 day, uint256 month, uint256 year){\r\n        require(category==\"bond\");\r\n        uint256 maturityDate = BokkyPooBahsDateTimeLibrary.addSeconds(timeOfIssue, bondIssue.tenure);\r\n        return (BokkyPooBahsDateTimeLibrary.getDay(maturityDate),\r\n                BokkyPooBahsDateTimeLibrary.getMonth(maturityDate),\r\n                BokkyPooBahsDateTimeLibrary.getYear(maturityDate));\r\n    }\r\n\r\n    function getfirstCouponDate() external onlyDPorIssuer(msg.sender) view returns(uint256 day, uint256 month, uint256 year){\r\n        require(category==\"bond\");\r\n        uint256 couponDate = BokkyPooBahsDateTimeLibrary.addSeconds(timeOfIssue, bondIssue.couponPaymentCycle);\r\n        return (BokkyPooBahsDateTimeLibrary.getDay(couponDate),\r\n                BokkyPooBahsDateTimeLibrary.getMonth(couponDate),\r\n                BokkyPooBahsDateTimeLibrary.getYear(couponDate));\r\n    }\r\n\r\n    function computeNextCouponDate() external onlyDPorIssuer(msg.sender) view returns(uint256 day, uint256 month, uint256 year){\r\n        require(category==\"bond\");\r\n        for(uint i=0; i<(bondIssue.tenure/bondIssue.couponPaymentCycle); i++){\r\n            if(BokkyPooBahsDateTimeLibrary.addSeconds(timeOfIssue, (bondIssue.couponPaymentCycle*(i+1)))>now){\r\n                uint256 nextDate = BokkyPooBahsDateTimeLibrary.addSeconds(timeOfIssue, (bondIssue.couponPaymentCycle*(i+1)));\r\n                return (BokkyPooBahsDateTimeLibrary.getDay(nextDate),\r\n                        BokkyPooBahsDateTimeLibrary.getMonth(nextDate),\r\n                        BokkyPooBahsDateTimeLibrary.getYear(nextDate));\r\n            }\r\n        }\r\n    }\r\n    \r\n    function getcouponFrequencyInMonths() onlyDPorIssuer(msg.sender) view external returns(uint256 couponFrequency){\r\n        require(category==\"bond\");\r\n        uint256 firstCouponDate = BokkyPooBahsDateTimeLibrary.addSeconds(timeOfIssue, bondIssue.couponPaymentCycle);\r\n        return BokkyPooBahsDateTimeLibrary.diffMonths(firstCouponDate, timeOfIssue);\r\n    }\r\n\r\n    function getinterestRateInBips(address _currency) external onlyDPorIssuer(msg.sender) view returns(uint256 interestRate){\r\n        require(category==\"bond\");\r\n        return bonds[_currency].coupon;\r\n    }\r\n\r\n\r\n}",
  "sourcePath": "D:\\Code\\verified-securities\\securities\\contracts\\Bonds.sol",
  "compiler": {
    "name": "solc",
    "version": "0.5.7+commit.6da8b019.Emscripten.clang"
  },
  "schemaVersion": "3.4.3",
  "updatedAt": "2022-03-05T11:57:04.962Z",
  "networkType": "ethereum",
  "devdoc": {
    "methods": {}
  },
  "userdoc": {
    "methods": {}
  }
}