{
  "address": "0x9B0d69B3D329CcAC710efcF9Ba14718129C7C82f",
  "abi": [
    {
      "inputs": [],
      "stateMutability": "nonpayable",
      "type": "constructor"
    },
    {
      "anonymous": false,
      "inputs": [
        {
          "indexed": true,
          "internalType": "bytes32",
          "name": "assetId",
          "type": "bytes32"
        },
        {
          "indexed": true,
          "internalType": "address",
          "name": "account",
          "type": "address"
        },
        {
          "indexed": false,
          "internalType": "bytes4",
          "name": "methodSignature",
          "type": "bytes4"
        }
      ],
      "name": "GrantedAccess",
      "type": "event"
    },
    {
      "anonymous": false,
      "inputs": [
        {
          "indexed": true,
          "internalType": "address",
          "name": "previousOwner",
          "type": "address"
        },
        {
          "indexed": true,
          "internalType": "address",
          "name": "newOwner",
          "type": "address"
        }
      ],
      "name": "OwnershipTransferred",
      "type": "event"
    },
    {
      "anonymous": false,
      "inputs": [
        {
          "indexed": false,
          "internalType": "bytes32",
          "name": "assetId",
          "type": "bytes32"
        }
      ],
      "name": "RegisteredAsset",
      "type": "event"
    },
    {
      "anonymous": false,
      "inputs": [
        {
          "indexed": true,
          "internalType": "bytes32",
          "name": "assetId",
          "type": "bytes32"
        },
        {
          "indexed": true,
          "internalType": "address",
          "name": "account",
          "type": "address"
        },
        {
          "indexed": false,
          "internalType": "bytes4",
          "name": "methodSignature",
          "type": "bytes4"
        }
      ],
      "name": "RevokedAccess",
      "type": "event"
    },
    {
      "anonymous": false,
      "inputs": [
        {
          "indexed": true,
          "internalType": "bytes32",
          "name": "assetId",
          "type": "bytes32"
        },
        {
          "indexed": false,
          "internalType": "address",
          "name": "prevActor",
          "type": "address"
        },
        {
          "indexed": false,
          "internalType": "address",
          "name": "newActor",
          "type": "address"
        }
      ],
      "name": "UpdatedActor",
      "type": "event"
    },
    {
      "anonymous": false,
      "inputs": [
        {
          "indexed": false,
          "internalType": "bytes32",
          "name": "assetId",
          "type": "bytes32"
        },
        {
          "indexed": false,
          "internalType": "address",
          "name": "prevBeneficiary",
          "type": "address"
        },
        {
          "indexed": false,
          "internalType": "address",
          "name": "newBeneficiary",
          "type": "address"
        }
      ],
      "name": "UpdatedBeneficiary",
      "type": "event"
    },
    {
      "anonymous": false,
      "inputs": [
        {
          "indexed": true,
          "internalType": "bytes32",
          "name": "assetId",
          "type": "bytes32"
        },
        {
          "indexed": false,
          "internalType": "address",
          "name": "prevEngine",
          "type": "address"
        },
        {
          "indexed": false,
          "internalType": "address",
          "name": "newEngine",
          "type": "address"
        }
      ],
      "name": "UpdatedEngine",
      "type": "event"
    },
    {
      "anonymous": false,
      "inputs": [
        {
          "indexed": true,
          "internalType": "bytes32",
          "name": "assetId",
          "type": "bytes32"
        },
        {
          "indexed": false,
          "internalType": "uint256",
          "name": "statusDate",
          "type": "uint256"
        }
      ],
      "name": "UpdatedFinalizedState",
      "type": "event"
    },
    {
      "anonymous": false,
      "inputs": [
        {
          "indexed": false,
          "internalType": "bytes32",
          "name": "assetId",
          "type": "bytes32"
        },
        {
          "indexed": false,
          "internalType": "address",
          "name": "prevObligor",
          "type": "address"
        },
        {
          "indexed": false,
          "internalType": "address",
          "name": "newObligor",
          "type": "address"
        }
      ],
      "name": "UpdatedObligor",
      "type": "event"
    },
    {
      "anonymous": false,
      "inputs": [
        {
          "indexed": true,
          "internalType": "bytes32",
          "name": "assetId",
          "type": "bytes32"
        },
        {
          "indexed": false,
          "internalType": "uint256",
          "name": "statusDate",
          "type": "uint256"
        }
      ],
      "name": "UpdatedState",
      "type": "event"
    },
    {
      "anonymous": false,
      "inputs": [
        {
          "indexed": true,
          "internalType": "bytes32",
          "name": "assetId",
          "type": "bytes32"
        }
      ],
      "name": "UpdatedTerms",
      "type": "event"
    },
    {
      "inputs": [
        {
          "internalType": "address",
          "name": "actor",
          "type": "address"
        }
      ],
      "name": "approveActor",
      "outputs": [],
      "stateMutability": "nonpayable",
      "type": "function"
    },
    {
      "inputs": [
        {
          "internalType": "address",
          "name": "",
          "type": "address"
        }
      ],
      "name": "approvedActors",
      "outputs": [
        {
          "internalType": "bool",
          "name": "",
          "type": "bool"
        }
      ],
      "stateMutability": "view",
      "type": "function"
    },
    {
      "inputs": [
        {
          "internalType": "bytes32",
          "name": "_event",
          "type": "bytes32"
        }
      ],
      "name": "decodeEvent",
      "outputs": [
        {
          "internalType": "enum EventType",
          "name": "",
          "type": "uint8"
        },
        {
          "internalType": "uint256",
          "name": "",
          "type": "uint256"
        }
      ],
      "stateMutability": "pure",
      "type": "function"
    },
    {
      "inputs": [
        {
          "internalType": "enum EventType",
          "name": "eventType",
          "type": "uint8"
        },
        {
          "internalType": "uint256",
          "name": "scheduleTime",
          "type": "uint256"
        }
      ],
      "name": "encodeEvent",
      "outputs": [
        {
          "internalType": "bytes32",
          "name": "",
          "type": "bytes32"
        }
      ],
      "stateMutability": "pure",
      "type": "function"
    },
    {
      "inputs": [
        {
          "internalType": "bytes32",
          "name": "assetId",
          "type": "bytes32"
        }
      ],
      "name": "getActor",
      "outputs": [
        {
          "internalType": "address",
          "name": "",
          "type": "address"
        }
      ],
      "stateMutability": "view",
      "type": "function"
    },
    {
      "inputs": [
        {
          "internalType": "bytes32",
          "name": "assetId",
          "type": "bytes32"
        },
        {
          "internalType": "bytes32",
          "name": "attribute",
          "type": "bytes32"
        }
      ],
      "name": "getAddressValueForTermsAttribute",
      "outputs": [
        {
          "internalType": "address",
          "name": "",
          "type": "address"
        }
      ],
      "stateMutability": "view",
      "type": "function"
    },
    {
      "inputs": [
        {
          "internalType": "bytes32",
          "name": "assetId",
          "type": "bytes32"
        },
        {
          "internalType": "bytes32",
          "name": "attribute",
          "type": "bytes32"
        }
      ],
      "name": "getBytes32ValueForTermsAttribute",
      "outputs": [
        {
          "internalType": "bytes32",
          "name": "",
          "type": "bytes32"
        }
      ],
      "stateMutability": "view",
      "type": "function"
    },
    {
      "inputs": [
        {
          "internalType": "bytes32",
          "name": "assetId",
          "type": "bytes32"
        },
        {
          "internalType": "bytes32",
          "name": "attribute",
          "type": "bytes32"
        }
      ],
      "name": "getContractReferenceValueForTermsAttribute",
      "outputs": [
        {
          "components": [
            {
              "internalType": "bytes32",
              "name": "object",
              "type": "bytes32"
            },
            {
              "internalType": "bytes32",
              "name": "object2",
              "type": "bytes32"
            },
            {
              "internalType": "enum ContractReferenceType",
              "name": "_type",
              "type": "uint8"
            },
            {
              "internalType": "enum ContractReferenceRole",
              "name": "role",
              "type": "uint8"
            }
          ],
          "internalType": "struct ContractReference",
          "name": "",
          "type": "tuple"
        }
      ],
      "stateMutability": "view",
      "type": "function"
    },
    {
      "inputs": [
        {
          "internalType": "bytes32",
          "name": "assetId",
          "type": "bytes32"
        },
        {
          "internalType": "bytes32",
          "name": "attribute",
          "type": "bytes32"
        }
      ],
      "name": "getCycleValueForTermsAttribute",
      "outputs": [
        {
          "components": [
            {
              "internalType": "uint256",
              "name": "i",
              "type": "uint256"
            },
            {
              "internalType": "enum P",
              "name": "p",
              "type": "uint8"
            },
            {
              "internalType": "enum S",
              "name": "s",
              "type": "uint8"
            },
            {
              "internalType": "bool",
              "name": "isSet",
              "type": "bool"
            }
          ],
          "internalType": "struct IPS",
          "name": "",
          "type": "tuple"
        }
      ],
      "stateMutability": "view",
      "type": "function"
    },
    {
      "inputs": [
        {
          "internalType": "bytes32",
          "name": "assetId",
          "type": "bytes32"
        }
      ],
      "name": "getEngine",
      "outputs": [
        {
          "internalType": "address",
          "name": "",
          "type": "address"
        }
      ],
      "stateMutability": "view",
      "type": "function"
    },
    {
      "inputs": [
        {
          "internalType": "bytes32",
          "name": "assetId",
          "type": "bytes32"
        },
        {
          "internalType": "bytes32",
          "name": "attribute",
          "type": "bytes32"
        }
      ],
      "name": "getEnumValueForStateAttribute",
      "outputs": [
        {
          "internalType": "uint8",
          "name": "",
          "type": "uint8"
        }
      ],
      "stateMutability": "view",
      "type": "function"
    },
    {
      "inputs": [
        {
          "internalType": "bytes32",
          "name": "assetId",
          "type": "bytes32"
        },
        {
          "internalType": "bytes32",
          "name": "attribute",
          "type": "bytes32"
        }
      ],
      "name": "getEnumValueForTermsAttribute",
      "outputs": [
        {
          "internalType": "uint8",
          "name": "",
          "type": "uint8"
        }
      ],
      "stateMutability": "view",
      "type": "function"
    },
    {
      "inputs": [
        {
          "internalType": "enum EventType",
          "name": "eventType",
          "type": "uint8"
        }
      ],
      "name": "getEpochOffset",
      "outputs": [
        {
          "internalType": "uint256",
          "name": "",
          "type": "uint256"
        }
      ],
      "stateMutability": "pure",
      "type": "function"
    },
    {
      "inputs": [
        {
          "internalType": "bytes32",
          "name": "assetId",
          "type": "bytes32"
        },
        {
          "internalType": "uint256",
          "name": "index",
          "type": "uint256"
        }
      ],
      "name": "getEventAtIndex",
      "outputs": [
        {
          "internalType": "bytes32",
          "name": "",
          "type": "bytes32"
        }
      ],
      "stateMutability": "view",
      "type": "function"
    },
    {
      "inputs": [
        {
          "internalType": "bytes32",
          "name": "assetId",
          "type": "bytes32"
        }
      ],
      "name": "getExtension",
      "outputs": [
        {
          "internalType": "address",
          "name": "",
          "type": "address"
        }
      ],
      "stateMutability": "view",
      "type": "function"
    },
    {
      "inputs": [
        {
          "internalType": "bytes32",
          "name": "assetId",
          "type": "bytes32"
        }
      ],
      "name": "getFinalizedState",
      "outputs": [
        {
          "components": [
            {
              "internalType": "enum ContractPerformance",
              "name": "contractPerformance",
              "type": "uint8"
            },
            {
              "internalType": "uint256",
              "name": "statusDate",
              "type": "uint256"
            },
            {
              "internalType": "uint256",
              "name": "maturityDate",
              "type": "uint256"
            },
            {
              "internalType": "uint256",
              "name": "exerciseDate",
              "type": "uint256"
            },
            {
              "internalType": "uint256",
              "name": "terminationDate",
              "type": "uint256"
            },
            {
              "internalType": "int256",
              "name": "feeAccrued",
              "type": "int256"
            },
            {
              "internalType": "int256",
              "name": "exerciseAmount",
              "type": "int256"
            }
          ],
          "internalType": "struct CECState",
          "name": "",
          "type": "tuple"
        }
      ],
      "stateMutability": "view",
      "type": "function"
    },
    {
      "inputs": [
        {
          "internalType": "bytes32",
          "name": "assetId",
          "type": "bytes32"
        },
        {
          "internalType": "bytes32",
          "name": "attribute",
          "type": "bytes32"
        }
      ],
      "name": "getIntValueForStateAttribute",
      "outputs": [
        {
          "internalType": "int256",
          "name": "",
          "type": "int256"
        }
      ],
      "stateMutability": "view",
      "type": "function"
    },
    {
      "inputs": [
        {
          "internalType": "bytes32",
          "name": "assetId",
          "type": "bytes32"
        },
        {
          "internalType": "bytes32",
          "name": "attribute",
          "type": "bytes32"
        }
      ],
      "name": "getIntValueForTermsAttribute",
      "outputs": [
        {
          "internalType": "int256",
          "name": "",
          "type": "int256"
        }
      ],
      "stateMutability": "view",
      "type": "function"
    },
    {
      "inputs": [
        {
          "internalType": "bytes32",
          "name": "assetId",
          "type": "bytes32"
        }
      ],
      "name": "getNextScheduleIndex",
      "outputs": [
        {
          "internalType": "uint256",
          "name": "",
          "type": "uint256"
        }
      ],
      "stateMutability": "view",
      "type": "function"
    },
    {
      "inputs": [
        {
          "internalType": "bytes32",
          "name": "assetId",
          "type": "bytes32"
        }
      ],
      "name": "getNextScheduledEvent",
      "outputs": [
        {
          "internalType": "bytes32",
          "name": "",
          "type": "bytes32"
        }
      ],
      "stateMutability": "view",
      "type": "function"
    },
    {
      "inputs": [
        {
          "internalType": "bytes32",
          "name": "assetId",
          "type": "bytes32"
        }
      ],
      "name": "getNextUnderlyingEvent",
      "outputs": [
        {
          "internalType": "bytes32",
          "name": "",
          "type": "bytes32"
        }
      ],
      "stateMutability": "view",
      "type": "function"
    },
    {
      "inputs": [
        {
          "internalType": "bytes32",
          "name": "assetId",
          "type": "bytes32"
        }
      ],
      "name": "getOwnership",
      "outputs": [
        {
          "components": [
            {
              "internalType": "address",
              "name": "creatorObligor",
              "type": "address"
            },
            {
              "internalType": "address",
              "name": "creatorBeneficiary",
              "type": "address"
            },
            {
              "internalType": "address",
              "name": "counterpartyObligor",
              "type": "address"
            },
            {
              "internalType": "address",
              "name": "counterpartyBeneficiary",
              "type": "address"
            }
          ],
          "internalType": "struct AssetOwnership",
          "name": "",
          "type": "tuple"
        }
      ],
      "stateMutability": "view",
      "type": "function"
    },
    {
      "inputs": [
        {
          "internalType": "bytes32",
          "name": "assetId",
          "type": "bytes32"
        }
      ],
      "name": "getPendingEvent",
      "outputs": [
        {
          "internalType": "bytes32",
          "name": "",
          "type": "bytes32"
        }
      ],
      "stateMutability": "view",
      "type": "function"
    },
    {
      "inputs": [
        {
          "internalType": "bytes32",
          "name": "assetId",
          "type": "bytes32"
        },
        {
          "internalType": "bytes32",
          "name": "attribute",
          "type": "bytes32"
        }
      ],
      "name": "getPeriodValueForTermsAttribute",
      "outputs": [
        {
          "components": [
            {
              "internalType": "uint256",
              "name": "i",
              "type": "uint256"
            },
            {
              "internalType": "enum P",
              "name": "p",
              "type": "uint8"
            },
            {
              "internalType": "bool",
              "name": "isSet",
              "type": "bool"
            }
          ],
          "internalType": "struct IP",
          "name": "",
          "type": "tuple"
        }
      ],
      "stateMutability": "view",
      "type": "function"
    },
    {
      "inputs": [
        {
          "internalType": "bytes32",
          "name": "assetId",
          "type": "bytes32"
        }
      ],
      "name": "getSchedule",
      "outputs": [
        {
          "internalType": "bytes32[]",
          "name": "",
          "type": "bytes32[]"
        }
      ],
      "stateMutability": "view",
      "type": "function"
    },
    {
      "inputs": [
        {
          "internalType": "bytes32",
          "name": "assetId",
          "type": "bytes32"
        }
      ],
      "name": "getScheduleLength",
      "outputs": [
        {
          "internalType": "uint256",
          "name": "",
          "type": "uint256"
        }
      ],
      "stateMutability": "view",
      "type": "function"
    },
    {
      "inputs": [
        {
          "internalType": "bytes32",
          "name": "assetId",
          "type": "bytes32"
        }
      ],
      "name": "getState",
      "outputs": [
        {
          "components": [
            {
              "internalType": "enum ContractPerformance",
              "name": "contractPerformance",
              "type": "uint8"
            },
            {
              "internalType": "uint256",
              "name": "statusDate",
              "type": "uint256"
            },
            {
              "internalType": "uint256",
              "name": "maturityDate",
              "type": "uint256"
            },
            {
              "internalType": "uint256",
              "name": "exerciseDate",
              "type": "uint256"
            },
            {
              "internalType": "uint256",
              "name": "terminationDate",
              "type": "uint256"
            },
            {
              "internalType": "int256",
              "name": "feeAccrued",
              "type": "int256"
            },
            {
              "internalType": "int256",
              "name": "exerciseAmount",
              "type": "int256"
            }
          ],
          "internalType": "struct CECState",
          "name": "",
          "type": "tuple"
        }
      ],
      "stateMutability": "view",
      "type": "function"
    },
    {
      "inputs": [
        {
          "internalType": "bytes32",
          "name": "assetId",
          "type": "bytes32"
        }
      ],
      "name": "getTerms",
      "outputs": [
        {
          "components": [
            {
              "internalType": "enum ContractType",
              "name": "contractType",
              "type": "uint8"
            },
            {
              "internalType": "enum Calendar",
              "name": "calendar",
              "type": "uint8"
            },
            {
              "internalType": "enum ContractRole",
              "name": "contractRole",
              "type": "uint8"
            },
            {
              "internalType": "enum DayCountConvention",
              "name": "dayCountConvention",
              "type": "uint8"
            },
            {
              "internalType": "enum BusinessDayConvention",
              "name": "businessDayConvention",
              "type": "uint8"
            },
            {
              "internalType": "enum EndOfMonthConvention",
              "name": "endOfMonthConvention",
              "type": "uint8"
            },
            {
              "internalType": "enum ContractPerformance",
              "name": "creditEventTypeCovered",
              "type": "uint8"
            },
            {
              "internalType": "enum FeeBasis",
              "name": "feeBasis",
              "type": "uint8"
            },
            {
              "internalType": "uint256",
              "name": "statusDate",
              "type": "uint256"
            },
            {
              "internalType": "uint256",
              "name": "maturityDate",
              "type": "uint256"
            },
            {
              "internalType": "int256",
              "name": "notionalPrincipal",
              "type": "int256"
            },
            {
              "internalType": "int256",
              "name": "feeRate",
              "type": "int256"
            },
            {
              "internalType": "int256",
              "name": "coverageOfCreditEnhancement",
              "type": "int256"
            },
            {
              "components": [
                {
                  "internalType": "bytes32",
                  "name": "object",
                  "type": "bytes32"
                },
                {
                  "internalType": "bytes32",
                  "name": "object2",
                  "type": "bytes32"
                },
                {
                  "internalType": "enum ContractReferenceType",
                  "name": "_type",
                  "type": "uint8"
                },
                {
                  "internalType": "enum ContractReferenceRole",
                  "name": "role",
                  "type": "uint8"
                }
              ],
              "internalType": "struct ContractReference",
              "name": "contractReference_1",
              "type": "tuple"
            },
            {
              "components": [
                {
                  "internalType": "bytes32",
                  "name": "object",
                  "type": "bytes32"
                },
                {
                  "internalType": "bytes32",
                  "name": "object2",
                  "type": "bytes32"
                },
                {
                  "internalType": "enum ContractReferenceType",
                  "name": "_type",
                  "type": "uint8"
                },
                {
                  "internalType": "enum ContractReferenceRole",
                  "name": "role",
                  "type": "uint8"
                }
              ],
              "internalType": "struct ContractReference",
              "name": "contractReference_2",
              "type": "tuple"
            }
          ],
          "internalType": "struct CECTerms",
          "name": "",
          "type": "tuple"
        }
      ],
      "stateMutability": "view",
      "type": "function"
    },
    {
      "inputs": [
        {
          "internalType": "bytes32",
          "name": "assetId",
          "type": "bytes32"
        },
        {
          "internalType": "bytes32",
          "name": "attribute",
          "type": "bytes32"
        }
      ],
      "name": "getUIntValueForTermsAttribute",
      "outputs": [
        {
          "internalType": "uint256",
          "name": "",
          "type": "uint256"
        }
      ],
      "stateMutability": "view",
      "type": "function"
    },
    {
      "inputs": [
        {
          "internalType": "bytes32",
          "name": "assetId",
          "type": "bytes32"
        },
        {
          "internalType": "bytes32",
          "name": "attribute",
          "type": "bytes32"
        }
      ],
      "name": "getUintValueForStateAttribute",
      "outputs": [
        {
          "internalType": "uint256",
          "name": "",
          "type": "uint256"
        }
      ],
      "stateMutability": "view",
      "type": "function"
    },
    {
      "inputs": [
        {
          "internalType": "bytes32",
          "name": "assetId",
          "type": "bytes32"
        },
        {
          "internalType": "bytes4",
          "name": "methodSignature",
          "type": "bytes4"
        },
        {
          "internalType": "address",
          "name": "account",
          "type": "address"
        }
      ],
      "name": "grantAccess",
      "outputs": [],
      "stateMutability": "nonpayable",
      "type": "function"
    },
    {
      "inputs": [
        {
          "internalType": "bytes32",
          "name": "assetId",
          "type": "bytes32"
        },
        {
          "internalType": "bytes4",
          "name": "methodSignature",
          "type": "bytes4"
        },
        {
          "internalType": "address",
          "name": "account",
          "type": "address"
        }
      ],
      "name": "hasAccess",
      "outputs": [
        {
          "internalType": "bool",
          "name": "",
          "type": "bool"
        }
      ],
      "stateMutability": "view",
      "type": "function"
    },
    {
      "inputs": [
        {
          "internalType": "bytes32",
          "name": "assetId",
          "type": "bytes32"
        },
        {
          "internalType": "address",
          "name": "account",
          "type": "address"
        }
      ],
      "name": "hasRootAccess",
      "outputs": [
        {
          "internalType": "bool",
          "name": "",
          "type": "bool"
        }
      ],
      "stateMutability": "view",
      "type": "function"
    },
    {
      "inputs": [
        {
          "internalType": "bytes32",
          "name": "assetId",
          "type": "bytes32"
        },
        {
          "internalType": "bytes32",
          "name": "_event",
          "type": "bytes32"
        }
      ],
      "name": "isEventSettled",
      "outputs": [
        {
          "internalType": "bool",
          "name": "",
          "type": "bool"
        },
        {
          "internalType": "int256",
          "name": "",
          "type": "int256"
        }
      ],
      "stateMutability": "view",
      "type": "function"
    },
    {
      "inputs": [
        {
          "internalType": "bytes32",
          "name": "assetId",
          "type": "bytes32"
        }
      ],
      "name": "isRegistered",
      "outputs": [
        {
          "internalType": "bool",
          "name": "",
          "type": "bool"
        }
      ],
      "stateMutability": "view",
      "type": "function"
    },
    {
      "inputs": [
        {
          "internalType": "bytes32",
          "name": "assetId",
          "type": "bytes32"
        },
        {
          "internalType": "bytes32",
          "name": "_event",
          "type": "bytes32"
        },
        {
          "internalType": "int256",
          "name": "_payoff",
          "type": "int256"
        }
      ],
      "name": "markEventAsSettled",
      "outputs": [],
      "stateMutability": "nonpayable",
      "type": "function"
    },
    {
      "inputs": [],
      "name": "owner",
      "outputs": [
        {
          "internalType": "address",
          "name": "",
          "type": "address"
        }
      ],
      "stateMutability": "view",
      "type": "function"
    },
    {
      "inputs": [
        {
          "internalType": "bytes32",
          "name": "assetId",
          "type": "bytes32"
        }
      ],
      "name": "popNextScheduledEvent",
      "outputs": [
        {
          "internalType": "bytes32",
          "name": "",
          "type": "bytes32"
        }
      ],
      "stateMutability": "nonpayable",
      "type": "function"
    },
    {
      "inputs": [
        {
          "internalType": "bytes32",
          "name": "assetId",
          "type": "bytes32"
        }
      ],
      "name": "popPendingEvent",
      "outputs": [
        {
          "internalType": "bytes32",
          "name": "",
          "type": "bytes32"
        }
      ],
      "stateMutability": "nonpayable",
      "type": "function"
    },
    {
      "inputs": [
        {
          "internalType": "bytes32",
          "name": "assetId",
          "type": "bytes32"
        },
        {
          "internalType": "bytes32",
          "name": "pendingEvent",
          "type": "bytes32"
        }
      ],
      "name": "pushPendingEvent",
      "outputs": [],
      "stateMutability": "nonpayable",
      "type": "function"
    },
    {
      "inputs": [
        {
          "internalType": "bytes32",
          "name": "assetId",
          "type": "bytes32"
        },
        {
          "components": [
            {
              "internalType": "enum ContractType",
              "name": "contractType",
              "type": "uint8"
            },
            {
              "internalType": "enum Calendar",
              "name": "calendar",
              "type": "uint8"
            },
            {
              "internalType": "enum ContractRole",
              "name": "contractRole",
              "type": "uint8"
            },
            {
              "internalType": "enum DayCountConvention",
              "name": "dayCountConvention",
              "type": "uint8"
            },
            {
              "internalType": "enum BusinessDayConvention",
              "name": "businessDayConvention",
              "type": "uint8"
            },
            {
              "internalType": "enum EndOfMonthConvention",
              "name": "endOfMonthConvention",
              "type": "uint8"
            },
            {
              "internalType": "enum ContractPerformance",
              "name": "creditEventTypeCovered",
              "type": "uint8"
            },
            {
              "internalType": "enum FeeBasis",
              "name": "feeBasis",
              "type": "uint8"
            },
            {
              "internalType": "uint256",
              "name": "statusDate",
              "type": "uint256"
            },
            {
              "internalType": "uint256",
              "name": "maturityDate",
              "type": "uint256"
            },
            {
              "internalType": "int256",
              "name": "notionalPrincipal",
              "type": "int256"
            },
            {
              "internalType": "int256",
              "name": "feeRate",
              "type": "int256"
            },
            {
              "internalType": "int256",
              "name": "coverageOfCreditEnhancement",
              "type": "int256"
            },
            {
              "components": [
                {
                  "internalType": "bytes32",
                  "name": "object",
                  "type": "bytes32"
                },
                {
                  "internalType": "bytes32",
                  "name": "object2",
                  "type": "bytes32"
                },
                {
                  "internalType": "enum ContractReferenceType",
                  "name": "_type",
                  "type": "uint8"
                },
                {
                  "internalType": "enum ContractReferenceRole",
                  "name": "role",
                  "type": "uint8"
                }
              ],
              "internalType": "struct ContractReference",
              "name": "contractReference_1",
              "type": "tuple"
            },
            {
              "components": [
                {
                  "internalType": "bytes32",
                  "name": "object",
                  "type": "bytes32"
                },
                {
                  "internalType": "bytes32",
                  "name": "object2",
                  "type": "bytes32"
                },
                {
                  "internalType": "enum ContractReferenceType",
                  "name": "_type",
                  "type": "uint8"
                },
                {
                  "internalType": "enum ContractReferenceRole",
                  "name": "role",
                  "type": "uint8"
                }
              ],
              "internalType": "struct ContractReference",
              "name": "contractReference_2",
              "type": "tuple"
            }
          ],
          "internalType": "struct CECTerms",
          "name": "terms",
          "type": "tuple"
        },
        {
          "components": [
            {
              "internalType": "enum ContractPerformance",
              "name": "contractPerformance",
              "type": "uint8"
            },
            {
              "internalType": "uint256",
              "name": "statusDate",
              "type": "uint256"
            },
            {
              "internalType": "uint256",
              "name": "maturityDate",
              "type": "uint256"
            },
            {
              "internalType": "uint256",
              "name": "exerciseDate",
              "type": "uint256"
            },
            {
              "internalType": "uint256",
              "name": "terminationDate",
              "type": "uint256"
            },
            {
              "internalType": "int256",
              "name": "feeAccrued",
              "type": "int256"
            },
            {
              "internalType": "int256",
              "name": "exerciseAmount",
              "type": "int256"
            }
          ],
          "internalType": "struct CECState",
          "name": "state",
          "type": "tuple"
        },
        {
          "internalType": "bytes32[]",
          "name": "schedule",
          "type": "bytes32[]"
        },
        {
          "components": [
            {
              "internalType": "address",
              "name": "creatorObligor",
              "type": "address"
            },
            {
              "internalType": "address",
              "name": "creatorBeneficiary",
              "type": "address"
            },
            {
              "internalType": "address",
              "name": "counterpartyObligor",
              "type": "address"
            },
            {
              "internalType": "address",
              "name": "counterpartyBeneficiary",
              "type": "address"
            }
          ],
          "internalType": "struct AssetOwnership",
          "name": "ownership",
          "type": "tuple"
        },
        {
          "internalType": "address",
          "name": "engine",
          "type": "address"
        },
        {
          "internalType": "address",
          "name": "actor",
          "type": "address"
        },
        {
          "internalType": "address",
          "name": "admin",
          "type": "address"
        },
        {
          "internalType": "address",
          "name": "extension",
          "type": "address"
        }
      ],
      "name": "registerAsset",
      "outputs": [],
      "stateMutability": "nonpayable",
      "type": "function"
    },
    {
      "inputs": [],
      "name": "renounceOwnership",
      "outputs": [],
      "stateMutability": "nonpayable",
      "type": "function"
    },
    {
      "inputs": [
        {
          "internalType": "bytes32",
          "name": "assetId",
          "type": "bytes32"
        },
        {
          "internalType": "bytes4",
          "name": "methodSignature",
          "type": "bytes4"
        },
        {
          "internalType": "address",
          "name": "account",
          "type": "address"
        }
      ],
      "name": "revokeAccess",
      "outputs": [],
      "stateMutability": "nonpayable",
      "type": "function"
    },
    {
      "inputs": [
        {
          "internalType": "bytes32",
          "name": "assetId",
          "type": "bytes32"
        },
        {
          "internalType": "address",
          "name": "actor",
          "type": "address"
        }
      ],
      "name": "setActor",
      "outputs": [],
      "stateMutability": "nonpayable",
      "type": "function"
    },
    {
      "inputs": [
        {
          "internalType": "bytes32",
          "name": "assetId",
          "type": "bytes32"
        },
        {
          "internalType": "address",
          "name": "newCounterpartyBeneficiary",
          "type": "address"
        }
      ],
      "name": "setCounterpartyBeneficiary",
      "outputs": [],
      "stateMutability": "nonpayable",
      "type": "function"
    },
    {
      "inputs": [
        {
          "internalType": "bytes32",
          "name": "assetId",
          "type": "bytes32"
        },
        {
          "internalType": "address",
          "name": "newCounterpartyObligor",
          "type": "address"
        }
      ],
      "name": "setCounterpartyObligor",
      "outputs": [],
      "stateMutability": "nonpayable",
      "type": "function"
    },
    {
      "inputs": [
        {
          "internalType": "bytes32",
          "name": "assetId",
          "type": "bytes32"
        },
        {
          "internalType": "address",
          "name": "newCreatorBeneficiary",
          "type": "address"
        }
      ],
      "name": "setCreatorBeneficiary",
      "outputs": [],
      "stateMutability": "nonpayable",
      "type": "function"
    },
    {
      "inputs": [
        {
          "internalType": "bytes32",
          "name": "assetId",
          "type": "bytes32"
        },
        {
          "internalType": "address",
          "name": "newCreatorObligor",
          "type": "address"
        }
      ],
      "name": "setCreatorObligor",
      "outputs": [],
      "stateMutability": "nonpayable",
      "type": "function"
    },
    {
      "inputs": [
        {
          "internalType": "bytes32",
          "name": "assetId",
          "type": "bytes32"
        },
        {
          "internalType": "address",
          "name": "engine",
          "type": "address"
        }
      ],
      "name": "setEngine",
      "outputs": [],
      "stateMutability": "nonpayable",
      "type": "function"
    },
    {
      "inputs": [
        {
          "internalType": "bytes32",
          "name": "assetId",
          "type": "bytes32"
        },
        {
          "internalType": "address",
          "name": "extension",
          "type": "address"
        }
      ],
      "name": "setExtension",
      "outputs": [],
      "stateMutability": "nonpayable",
      "type": "function"
    },
    {
      "inputs": [
        {
          "internalType": "bytes32",
          "name": "assetId",
          "type": "bytes32"
        },
        {
          "components": [
            {
              "internalType": "enum ContractPerformance",
              "name": "contractPerformance",
              "type": "uint8"
            },
            {
              "internalType": "uint256",
              "name": "statusDate",
              "type": "uint256"
            },
            {
              "internalType": "uint256",
              "name": "maturityDate",
              "type": "uint256"
            },
            {
              "internalType": "uint256",
              "name": "exerciseDate",
              "type": "uint256"
            },
            {
              "internalType": "uint256",
              "name": "terminationDate",
              "type": "uint256"
            },
            {
              "internalType": "int256",
              "name": "feeAccrued",
              "type": "int256"
            },
            {
              "internalType": "int256",
              "name": "exerciseAmount",
              "type": "int256"
            }
          ],
          "internalType": "struct CECState",
          "name": "state",
          "type": "tuple"
        }
      ],
      "name": "setFinalizedState",
      "outputs": [],
      "stateMutability": "nonpayable",
      "type": "function"
    },
    {
      "inputs": [
        {
          "internalType": "bytes32",
          "name": "assetId",
          "type": "bytes32"
        },
        {
          "components": [
            {
              "internalType": "enum ContractPerformance",
              "name": "contractPerformance",
              "type": "uint8"
            },
            {
              "internalType": "uint256",
              "name": "statusDate",
              "type": "uint256"
            },
            {
              "internalType": "uint256",
              "name": "maturityDate",
              "type": "uint256"
            },
            {
              "internalType": "uint256",
              "name": "exerciseDate",
              "type": "uint256"
            },
            {
              "internalType": "uint256",
              "name": "terminationDate",
              "type": "uint256"
            },
            {
              "internalType": "int256",
              "name": "feeAccrued",
              "type": "int256"
            },
            {
              "internalType": "int256",
              "name": "exerciseAmount",
              "type": "int256"
            }
          ],
          "internalType": "struct CECState",
          "name": "state",
          "type": "tuple"
        }
      ],
      "name": "setState",
      "outputs": [],
      "stateMutability": "nonpayable",
      "type": "function"
    },
    {
      "inputs": [
        {
          "internalType": "bytes32",
          "name": "assetId",
          "type": "bytes32"
        },
        {
          "components": [
            {
              "internalType": "enum ContractType",
              "name": "contractType",
              "type": "uint8"
            },
            {
              "internalType": "enum Calendar",
              "name": "calendar",
              "type": "uint8"
            },
            {
              "internalType": "enum ContractRole",
              "name": "contractRole",
              "type": "uint8"
            },
            {
              "internalType": "enum DayCountConvention",
              "name": "dayCountConvention",
              "type": "uint8"
            },
            {
              "internalType": "enum BusinessDayConvention",
              "name": "businessDayConvention",
              "type": "uint8"
            },
            {
              "internalType": "enum EndOfMonthConvention",
              "name": "endOfMonthConvention",
              "type": "uint8"
            },
            {
              "internalType": "enum ContractPerformance",
              "name": "creditEventTypeCovered",
              "type": "uint8"
            },
            {
              "internalType": "enum FeeBasis",
              "name": "feeBasis",
              "type": "uint8"
            },
            {
              "internalType": "uint256",
              "name": "statusDate",
              "type": "uint256"
            },
            {
              "internalType": "uint256",
              "name": "maturityDate",
              "type": "uint256"
            },
            {
              "internalType": "int256",
              "name": "notionalPrincipal",
              "type": "int256"
            },
            {
              "internalType": "int256",
              "name": "feeRate",
              "type": "int256"
            },
            {
              "internalType": "int256",
              "name": "coverageOfCreditEnhancement",
              "type": "int256"
            },
            {
              "components": [
                {
                  "internalType": "bytes32",
                  "name": "object",
                  "type": "bytes32"
                },
                {
                  "internalType": "bytes32",
                  "name": "object2",
                  "type": "bytes32"
                },
                {
                  "internalType": "enum ContractReferenceType",
                  "name": "_type",
                  "type": "uint8"
                },
                {
                  "internalType": "enum ContractReferenceRole",
                  "name": "role",
                  "type": "uint8"
                }
              ],
              "internalType": "struct ContractReference",
              "name": "contractReference_1",
              "type": "tuple"
            },
            {
              "components": [
                {
                  "internalType": "bytes32",
                  "name": "object",
                  "type": "bytes32"
                },
                {
                  "internalType": "bytes32",
                  "name": "object2",
                  "type": "bytes32"
                },
                {
                  "internalType": "enum ContractReferenceType",
                  "name": "_type",
                  "type": "uint8"
                },
                {
                  "internalType": "enum ContractReferenceRole",
                  "name": "role",
                  "type": "uint8"
                }
              ],
              "internalType": "struct ContractReference",
              "name": "contractReference_2",
              "type": "tuple"
            }
          ],
          "internalType": "struct CECTerms",
          "name": "terms",
          "type": "tuple"
        }
      ],
      "name": "setTerms",
      "outputs": [],
      "stateMutability": "nonpayable",
      "type": "function"
    },
    {
      "inputs": [
        {
          "internalType": "address",
          "name": "newOwner",
          "type": "address"
        }
      ],
      "name": "transferOwnership",
      "outputs": [],
      "stateMutability": "nonpayable",
      "type": "function"
    }
  ],
  "transactionHash": "0x51f254a5165b05592dd976deef7b68fcecbab9769d3763421a293bd49f88f011",
  "args": [],
  "solcInputHash": "37e2a100a6f868553298dee57e286371",
  "bytecode": "0x60806040523480156200001157600080fd5b5060006200001e6200006e565b600080546001600160a01b0319166001600160a01b0383169081178255604051929350917f8be0079c531659141344cd1fd0a4f28419497f9722a3daafe3b4186f6b6457e0908290a35062000072565b3390565b6142c080620000826000396000f3fe608060405234801561001057600080fd5b50600436106103425760003560e01c8063a17b75b5116101b8578063ccfc347e11610104578063e7dc3188116100a2578063ecef55771161007c578063ecef55771461079d578063ee43eda1146107b0578063f2fde38b146107c3578063f52f84e1146107d657610342565b8063e7dc318814610764578063e8f7ca3e14610777578063eb0125591461078a57610342565b8063d981e773116100de578063d981e7731461070b578063de07a1731461071e578063e05a66e014610731578063e50e0ef71461074457610342565b8063ccfc347e146106c5578063cf5aed12146106d8578063d51dc3dc146106f857610342565b8063ba4d2d2811610171578063be588c1d1161014b578063be588c1d14610679578063c139626b1461068c578063c364ac9c1461069f578063c3b6e7c2146106b257610342565b8063ba4d2d2814610625578063bc6a7d7614610646578063bd1f0a6c1461066657610342565b8063a17b75b5146105a6578063b02ca0c0146105b9578063b0b4888f146105cc578063b3c45ebe146105ec578063b461dd4f146105ff578063b82820411461061257610342565b80633adc277a116102925780636fe55baa1161023057806375e86ae41161020a57806375e86ae414610558578063811322fb1461056b5780638da5cb5b1461057e5780639deaa1c01461059357610342565b80636fe55baa1461050f578063715018a61461052f578063725400031461053757610342565b80636031a0941161026c5780636031a094146104b6578063606aa07e146104c95780636a899b9b146104dc5780636be39bda146104ef57610342565b80633adc277a14610470578063512872f414610490578063512e1446146104a357610342565b80631717e867116102ff57806328e0f8a9116102d957806328e0f8a9146104245780633549d08d1461043757806337462dba1461044a57806339262e871461045d57610342565b80631717e867146103de5780631b126815146103f157806327258b221461041157610342565b806303a81a2a1461034757806309648a9d1461035c5780630c5b75a4146103855780630d62037a146103a55780630d799b85146103b8578063135b9f4d146103cb575b600080fd5b61035a6103553660046131b9565b6107e9565b005b61036f61036a366004613189565b6108be565b60405161037c919061407d565b60405180910390f35b610398610393366004613189565b610963565b60405161037c919061394a565b61035a6103b33660046131b9565b6109da565b61035a6103c63660046131b9565b610a7f565b6103986103d93660046131e8565b610b3d565b61035a6103ec366004613234565b610bdc565b6104046103ff366004613234565b610c92565b60405161037c919061392f565b61040461041f366004613189565b610d0f565b610398610432366004613189565b610d24565b61035a6104453660046131b9565b610d39565b61036f610458366004613189565b610e14565b61035a61046b366004613234565b610e61565b61048361047e366004613189565b610f06565b60405161037c91906138eb565b61035a61049e3660046131b9565b610f20565b61035a6104b13660046132d2565b610fe7565b61035a6104c43660046131b9565b6111d5565b6103986104d73660046131e8565b6112b0565b6103986104ea3660046131e8565b6112f6565b6105026104fd366004613189565b61133c565b60405161037c91906140d3565b61052261051d3660046131e8565b6113da565b60405161037c9190614150565b61035a611479565b61054a610545366004613189565b61152d565b60405161037c929190613a0f565b610398610566366004613189565b611556565b6103986105793660046133ca565b61192a565b610586611938565b60405161037c91906138bd565b61035a6105a1366004613281565b611947565b6103986105b4366004613189565b611a58565b6103986105c73660046131e8565b611a6d565b6105df6105da3660046131e8565b611a8e565b60405161037c919061410d565b6105866105fa366004613189565b611b2d565b61039861060d3660046131e8565b611b4c565b610398610620366004613189565b611b92565b6106386106333660046131e8565b611bf6565b60405161037c92919061393a565b6106596106543660046131e8565b611c20565b60405161037c91906140ff565b61035a6106743660046131b9565b611cbf565b61035a610687366004613281565b611d57565b61058661069a366004613189565b611e5b565b61035a6106ad3660046132ae565b611e79565b6103986106c0366004613189565b611f79565b6104046106d3366004613137565b6120b2565b6106eb6106e63660046131e8565b6120c7565b60405161037c9190614180565b6103986107063660046131e8565b61215d565b61035a6107193660046131e8565b6121a3565b61035a61072c366004613209565b612212565b61039861073f3660046133e4565b6122ae565b610757610752366004613189565b6122cc565b60405161037c9190613e97565b61035a610772366004613137565b61232a565b6104046107853660046131b9565b6123b8565b6105866107983660046131e8565b6123ee565b6106eb6107ab3660046131e8565b612484565b6105866107be366004613189565b6124ca565b61035a6107d1366004613137565b6124ea565b6103986107e4366004613189565b6125f4565b6000828152600160208190526040909120015482906001600160a01b03163314806108265750610826816000356001600160e01b03191633610c92565b61084b5760405162461bcd60e51b815260040161084290613b3e565b60405180910390fd5b6000838152600160208190526040918290200180546001600160a01b038581166001600160a01b0319831617909255915191169084907f6baefd4565218ab73b43cb6b1019ca3a06161c4fcaef25cd665aacddabc44a20906108b090849087906138d1565b60405180910390a250505050565b6108c6612e91565b600082815260016020526040908190209051637839d6db60e11b815273A964F7D19A7A3cf81d6F2C60F05a84Fe5293fC649163f073adb69161090b919060040161394a565b60e06040518083038186803b15801561092357600080fd5b505af4158015610937573d6000803e3d6000fd5b505050506040513d601f19601f8201168201806040525081019061095b919061348b565b90505b919050565b60008181526001602081905260408220015482906001600160a01b031633148061099f575061099f816000356001600160e01b03191633610c92565b6109bb5760405162461bcd60e51b815260040161084290613b3e565b6000838152600160205260408120600701805491905591505b50919050565b6109f1826000356001600160e01b03191633610c92565b610a0d5760405162461bcd60e51b815260040161084290613ddb565b6000828152600160205260409081902060090180546001600160a01b038481166001600160a01b031983161790925591519116907fa7f38588f02421aa73988ed359aee27363c896e7cc3b6e634e4357f7ee408e2590610a7290859084908690613953565b60405180910390a1505050565b6000828152600160208190526040909120015482906001600160a01b0316331480610abc5750610abc816000356001600160e01b03191633610c92565b610ad85760405162461bcd60e51b815260040161084290613b3e565b6000838152600160205260409081902060020180546001600160a01b038581166001600160a01b0319831617909255915191169084907fdaa92ae0693b6616f14ef5db4b7ee053d3234c0d03f7a1885589c6a6c2c75bdb906108b090849087906138d1565b6000828152600160205260408082209051630c4cd0e360e11b815273A964F7D19A7A3cf81d6F2C60F05a84Fe5293fC6491631899a1c691610b8391908690600401613ed2565b60206040518083038186803b158015610b9b57600080fd5b505af4158015610baf573d6000803e3d6000fd5b505050506040513d601f19601f82011682018060405250810190610bd391906131a1565b90505b92915050565b610bf3836000356001600160e01b03191633610c92565b610c0f5760405162461bcd60e51b815260040161084290613d8c565b60008381526001602081815260408084206001600160e01b031987168552600d0182528084206001600160a01b038616808652925292839020805460ff1916909217909155905184907face25d271ad11ee299595b3021629bae0349e370d7c2eb7c2dced6e4edb4786590610c859086906139fa565b60405180910390a3505050565b60008381526001602090815260408083206001600160e01b031986168452600d0182528083206001600160a01b038516845290915281205460ff1680610d0557506000848152600160209081526040808320838052600d0182528083206001600160a01b038616845290915290205460ff165b90505b9392505050565b60009081526001602052604090205460ff1690565b60009081526001602052604090206006015490565b6000828152600160205260409020600c01546001600160a01b031680610d715760405162461bcd60e51b815260040161084290613a27565b336001600160a01b0382161480610d9a5750610d9a836000356001600160e01b03191633610c92565b610db65760405162461bcd60e51b815260040161084290613a84565b60008381526001602052604090819020600c0180546001600160a01b0319166001600160a01b038516179055517f66808241563a07166fd47b523591fa432148706dc0ddd255d49b69e71f1721ce90610a7290859084908690613953565b610e1c612e91565b60008281526001602052604090819020905163848923b960e01b815273A964F7D19A7A3cf81d6F2C60F05a84Fe5293fC649163848923b99161090b919060040161394a565b610e78836000356001600160e01b03191633610c92565b610e945760405162461bcd60e51b815260040161084290613d8c565b60008381526001602090815260408083206001600160e01b031986168452600d0182528083206001600160a01b038516808552925291829020805460ff19169055905184907f42b1b0e7392ad606bb4f5b003296aba62f16e43aa9372f1f40c1522fa2655ffa90610c859086906139fa565b600081815260016020526040902060609061095b90612609565b6000828152600160208190526040909120015482906001600160a01b0316331480610f5d5750610f5d816000356001600160e01b03191633610c92565b610f795760405162461bcd60e51b815260040161084290613b3e565b6000838152600160205260409081902080546001600160a01b03858116610100908102610100600160a81b03198416179093559251919004919091169084907fdaa92ae0693b6616f14ef5db4b7ee053d3234c0d03f7a1885589c6a6c2c75bdb906108b090849087906138d1565b3360009081526002602052604090205460ff166110165760405162461bcd60e51b815260040161084290613bd8565b6110668a88888080602002602001604051908101604052809392919081815260200183836020028082843760009201919091525061105d925050503689900389018961340d565b8787878761269f565b60008a81526001602052604090819020905163215ac35960e21b815273A964F7D19A7A3cf81d6F2C60F05a84Fe5293fC649163856b0d64916110ad91908d90600401613f46565b60006040518083038186803b1580156110c557600080fd5b505af41580156110d9573d6000803e3d6000fd5b50505060008b815260016020526040908190209051633224fb2760e11b815273A964F7D19A7A3cf81d6F2C60F05a84Fe5293fC649250636449f64e91611123918c90600401613ee0565b60006040518083038186803b15801561113b57600080fd5b505af415801561114f573d6000803e3d6000fd5b50505060008b8152600160205260409081902090516368eb691b60e11b815273A964F7D19A7A3cf81d6F2C60F05a84Fe5293fC64925063d1d6d23691611199918c90600401613ee0565b60006040518083038186803b1580156111b157600080fd5b505af41580156111c5573d6000803e3d6000fd5b5050505050505050505050505050565b6000828152600160205260409020600a01546001600160a01b03168061120d5760405162461bcd60e51b815260040161084290613d2f565b336001600160a01b03821614806112365750611236836000356001600160e01b03191633610c92565b6112525760405162461bcd60e51b815260040161084290613c2c565b60008381526001602052604090819020600a0180546001600160a01b0319166001600160a01b038516179055517f66808241563a07166fd47b523591fa432148706dc0ddd255d49b69e71f1721ce90610a7290859084908690613953565b60008281526001602052604080822090516346fa6d2560e11b815273A964F7D19A7A3cf81d6F2C60F05a84Fe5293fC6491638df4da4a91610b8391908690600401613ed2565b600082815260016020526040808220905163f03cb26f60e01b815273A964F7D19A7A3cf81d6F2C60F05a84Fe5293fC649163f03cb26f91610b8391908690600401613ed2565b611344612ecf565b600082815260016020526040908190209051630f4835d760e41b815273A964F7D19A7A3cf81d6F2C60F05a84Fe5293fC649163f4835d7091611389919060040161394a565b6102a06040518083038186803b1580156113a257600080fd5b505af41580156113b6573d6000803e3d6000fd5b505050506040513d601f19601f8201168201806040525081019061095b919061350d565b6113e2612f51565b600083815260016020526040908190209051632b5cc01560e01b815273A964F7D19A7A3cf81d6F2C60F05a84Fe5293fC6491632b5cc0159161142991908690600401613ed2565b60606040518083038186803b15801561144157600080fd5b505af4158015611455573d6000803e3d6000fd5b505050506040513d601f19601f82011682018060405250810190610bd39190613693565b611481612812565b6000546001600160a01b039081169116146114e3576040805162461bcd60e51b815260206004820181905260248201527f4f776e61626c653a2063616c6c6572206973206e6f7420746865206f776e6572604482015290519081900360640190fd5b600080546040516001600160a01b03909116907f8be0079c531659141344cd1fd0a4f28419497f9722a3daafe3b4186f6b6457e0908390a3600080546001600160a01b0319169055565b6000808060f884901c602181111561154157fe5b92505067ffffffffffffffff83169050915091565b6000611560612f74565b6115808372636f6e74726163745265666572656e63655f3160681b611c20565b8051909150158015906115a257506003816060015160048111156115a057fe5b145b156119215780516020820151604051631392c59160e11b81526001600160a01b038216906327258b22906115da90859060040161394a565b60206040518083038186803b1580156115f257600080fd5b505afa158015611606573d6000803e3d6000fd5b505050506040513d601f19601f8201168201806040525081019061162a919061316f565b6116465760405162461bcd60e51b815260040161084290613e2f565b6000611661866b65786572636973654461746560a01b6112b0565b90506000611688877518dc99591a5d115d995b9d151e5c1950dbdd995c995960521b612484565b60ff16600581111561169657fe5b90506000836001600160a01b031663cf5aed12866040518263ffffffff1660e01b81526004016116c691906139d5565b60206040518083038186803b1580156116de57600080fd5b505afa1580156116f2573d6000803e3d6000fd5b505050506040513d601f19601f8201168201806040525081019061171691906136f3565b60ff16600581111561172457fe5b90506000846001600160a01b031663606aa07e876040518263ffffffff1660e01b815260040161175491906139b2565b60206040518083038186803b15801561176c57600080fd5b505afa158015611780573d6000803e3d6000fd5b505050506040513d601f19601f820116820180604052508101906117a491906131a1565b905083156117c5576117b7601a426122ae565b97505050505050505061095e565b60008360058111156117d357fe5b141580156117f657508260058111156117e857fe5b8260058111156117f457fe5b145b1561191a57600182600581111561180957fe5b141561181a576117b76019826122ae565b600282600581111561182857fe5b14156118d257611836612f51565b6040516337f2add560e11b81526001600160a01b03871690636fe55baa90611862908a90600401613972565b60606040518083038186803b15801561187a57600080fd5b505afa15801561188e573d6000803e3d6000fd5b505050506040513d601f19601f820116820180604052508101906118b29190613693565b90506118c3601961073f8385612816565b9850505050505050505061095e565b60038260058111156118e057fe5b141561191a576118ee612f51565b6040516337f2add560e11b81526001600160a01b03871690636fe55baa90611862908a9060040161398f565b5050505050505b50600092915050565b600081602181111561095b57fe5b6000546001600160a01b031690565b6000828152600160208190526040909120015482906001600160a01b03163314806119845750611984816000356001600160e01b03191633610c92565b6119a05760405162461bcd60e51b815260040161084290613b3e565b6000838152600160205260409081902090516368eb691b60e11b815273A964F7D19A7A3cf81d6F2C60F05a84Fe5293fC649163d1d6d236916119e791908690600401613ee0565b60006040518083038186803b1580156119ff57600080fd5b505af4158015611a13573d6000803e3d6000fd5b50505050827f0c71209d22d4c70a40140b94deee55f1f54a9353e3d5d5a4ddfb45fcddcf720f8360200135604051611a4b919061394a565b60405180910390a2505050565b60009081526001602052604090206005015490565b60009182526001602090815260408084209284526004909201905290205490565b611a96612f9b565b6000838152600160205260409081902090516397853e4560e01b815273A964F7D19A7A3cf81d6F2C60F05a84Fe5293fC64916397853e4591611add91908690600401613ed2565b60806040518083038186803b158015611af557600080fd5b505af4158015611b09573d6000803e3d6000fd5b505050506040513d601f19601f82011682018060405250810190610bd3919061362c565b600090815260016020819052604090912001546001600160a01b031690565b600082815260016020526040808220905163744e772160e11b815273A964F7D19A7A3cf81d6F2C60F05a84Fe5293fC649163e89cee4291610b8391908690600401613ed2565b6000818152600160205260408120600581015415611be257600581015460068201541415611bc457506000905061095e565b6006810154600090815260049091016020526040902054905061095e565b6000611bed8461292f565b50949350505050565b6000918252600160208181526040808520938552601090930190529120805491015460ff90911691565b611c28612f74565b600083815260016020526040908190209051633f0ad16960e01b815273A964F7D19A7A3cf81d6F2C60F05a84Fe5293fC6491633f0ad16991611c6f91908690600401613ed2565b60806040518083038186803b158015611c8757600080fd5b505af4158015611c9b573d6000803e3d6000fd5b505050506040513d601f19601f82011682018060405250810190610bd39190613611565b611cd6826000356001600160e01b03191633610c92565b611cf25760405162461bcd60e51b815260040161084290613ae1565b60008281526001602052604090819020600b0180546001600160a01b038481166001600160a01b031983161790925591519116907fa7f38588f02421aa73988ed359aee27363c896e7cc3b6e634e4357f7ee408e2590610a7290859084908690613953565b6000828152600160208190526040909120015482906001600160a01b0316331480611d945750611d94816000356001600160e01b03191633610c92565b611db05760405162461bcd60e51b815260040161084290613b3e565b600083815260016020526040908190209051633224fb2760e11b815273A964F7D19A7A3cf81d6F2C60F05a84Fe5293fC6491636449f64e91611df791908690600401613ee0565b60006040518083038186803b158015611e0f57600080fd5b505af4158015611e23573d6000803e3d6000fd5b50505050827fad3970329ffaec63d947adc6077368479a4be7f09f2e7ba1b13852f8405b3ec68360200135604051611a4b919061394a565b6000908152600160205260409020600201546001600160a01b031690565b6000828152600160208190526040909120015482906001600160a01b0316331480611eb65750611eb6816000356001600160e01b03191633610c92565b611ed25760405162461bcd60e51b815260040161084290613b3e565b60008381526001602052604090819020905163215ac35960e21b815273A964F7D19A7A3cf81d6F2C60F05a84Fe5293fC649163856b0d6491611f1991908690600401613f46565b60006040518083038186803b158015611f3157600080fd5b505af4158015611f45573d6000803e3d6000fd5b50506040518592507fb777acf68d226f3c8ab6f398cfb9a320e6fe8e92f5d2f0b4f69bc8ebab3b70cb9150600090a2505050565b60008181526001602081905260408220015482906001600160a01b0316331480611fb55750611fb5816000356001600160e01b03191633610c92565b611fd15760405162461bcd60e51b815260040161084290613b3e565b600083815260016020526040902060058101541561202b57600681015460008181526004830160205260409020546005830154909114156120185750600092506109d49050565b60069091018054600101905591506109d4565b6000806120378661292f565b90925090508161204e5750600093506109d4915050565b60008061205a8461152d565b90925090506001831515141561209e578060038601600084602181111561207d57fe5b602181111561208857fe5b81526020810191909152604001600020556120a6565b600885018490555b50919695505050505050565b60026020526000908152604090205460ff1681565b6000828152600160205260408082209051632228446b60e01b815273A964F7D19A7A3cf81d6F2C60F05a84Fe5293fC6491632228446b9161210d91908690600401613ed2565b60206040518083038186803b15801561212557600080fd5b505af4158015612139573d6000803e3d6000fd5b505050506040513d601f19601f82011682018060405250810190610bd391906136f3565b6000828152600160205260408082209051633192fda960e01b815273A964F7D19A7A3cf81d6F2C60F05a84Fe5293fC6491633192fda991610b8391908690600401613ed2565b6000828152600160208190526040909120015482906001600160a01b03163314806121e057506121e0816000356001600160e01b03191633610c92565b6121fc5760405162461bcd60e51b815260040161084290613b3e565b5060009182526001602052604090912060070155565b6000838152600160208190526040909120015483906001600160a01b031633148061224f575061224f816000356001600160e01b03191633610c92565b61226b5760405162461bcd60e51b815260040161084290613b3e565b50604080518082018252600180825260208083019485526000968752818152838720958752601090950190945293209251835460ff191690151517835551910155565b60008160f88460218111156122bf57fe5b60ff16901b179392505050565b6122d4612fbc565b50600090815260016020908152604091829020825160808101845260098201546001600160a01b039081168252600a830154811693820193909352600b820154831693810193909352600c015416606082015290565b612332612812565b6000546001600160a01b03908116911614612394576040805162461bcd60e51b815260206004820181905260248201527f4f776e61626c653a2063616c6c6572206973206e6f7420746865206f776e6572604482015290519081900360640190fd5b6001600160a01b03166000908152600260205260409020805460ff19166001179055565b6000918252600160209081526040808420848052600d0182528084206001600160a01b0393909316845291905290205460ff1690565b60008281526001602052604080822090516360ceed1160e11b815273A964F7D19A7A3cf81d6F2C60F05a84Fe5293fC649163c19dda229161243491908690600401613ed2565b60206040518083038186803b15801561244c57600080fd5b505af4158015612460573d6000803e3d6000fd5b505050506040513d601f19601f82011682018060405250810190610bd39190613153565b6000828152600160205260408082209051630a68c21b60e21b815273A964F7D19A7A3cf81d6F2C60F05a84Fe5293fC64916329a3086c9161210d91908690600401613ed2565b60009081526001602052604090205461010090046001600160a01b031690565b6124f2612812565b6000546001600160a01b03908116911614612554576040805162461bcd60e51b815260206004820181905260248201527f4f776e61626c653a2063616c6c6572206973206e6f7420746865206f776e6572604482015290519081900360640190fd5b6001600160a01b0381166125995760405162461bcd60e51b81526004018080602001828103825260268152602001806142446026913960400191505060405180910390fd5b600080546040516001600160a01b03808516939216917f8be0079c531659141344cd1fd0a4f28419497f9722a3daafe3b4186f6b6457e091a3600080546001600160a01b0319166001600160a01b0392909216919091179055565b60009081526001602052604090206007015490565b606080826003016002015467ffffffffffffffff8111801561262a57600080fd5b50604051908082528060200260200182016040528015612654578160200160208202803683370190505b50905060005b6005840154811015612698576000818152600485016020526040902054825183908390811061268557fe5b602090810291909101015260010161265a565b5092915050565b6000878152600160205260409020805460ff16156126cf5760405162461bcd60e51b815260040161084290613b8d565b6001600160a01b03841660009081526002602052604090205460ff16151560011461270c5760405162461bcd60e51b815260040161084290613c89565b805486516009830180546001600160a01b03199081166001600160a01b03938416179091556020890151600a8501805483169184169190911790556040890151600b8501805483169184169190911790556060890151600c85018054831691841691909117905560ff199092166001908117610100600160a81b031916610100898416021784558301805483168783161790556002830180549092169084161790556127b88188612adf565b6001600160a01b038316156127d1576127d18884612b4c565b7f5e73a3e4a3f69f1056f05ffd00ff11bf3835158ba0ebd5ad3b994065fcd8964688604051612800919061394a565b60405180910390a15050505050505050565b3390565b600080808460200151600581111561282a57fe5b141561284457835161283d908490612bc3565b9050610bd3565b60018460200151600581111561285657fe5b141561287457835161283d9061286d906007612bd8565b8490612bc3565b60028460200151600581111561288657fe5b141561289957835161283d908490612c31565b6003846020015160058111156128ab57fe5b14156128c957835161283d906128c2906003612bd8565b8490612c31565b6004846020015160058111156128db57fe5b14156128f257835161283d906128c2906006612bd8565b60058460200151600581111561290457fe5b141561291757835161283d908490612cad565b60405162461bcd60e51b815260040161084290613cd2565b60008181526001602052604081208190612947612ecf565b604051630f4835d760e41b815273A964F7D19A7A3cf81d6F2C60F05a84Fe5293fC649063f4835d709061297e90859060040161394a565b6102a06040518083038186803b15801561299757600080fd5b505af41580156129ab573d6000803e3d6000fd5b505050506040513d601f19601f820116820180604052508101906129cf919061350d565b82546008840154604051634aa7726560e01b8152929350600092839260019284928392612a6b926101009091046001600160a01b031691634aa7726591612a1b918b91906004016140e2565b60206040518083038186803b158015612a3357600080fd5b505afa158015612a47573d6000803e3d6000fd5b505050506040513d601f19601f8201168201806040525081019061054591906131a1565b915091508360001480612a8757508015801590612a8757508381105b80612ab657508015801590612a9b57508084145b8015612ab65750612aab8561192a565b612ab48361192a565b105b15612ac657809350819450600092505b5050612ad283836122ae565b9650945050505050915091565b60005b8151811015612b47576000801b828281518110612afb57fe5b60200260200101511415612b0e57612b47565b818181518110612b1a57fe5b60209081029190910181015160008381526004860190925260409091205560010160058301819055612ae2565b505050565b6000828152600160208181526040808420848052600d0182528084206001600160a01b0386168086529252808420805460ff19169093179092559051909184917face25d271ad11ee299595b3021629bae0349e370d7c2eb7c2dced6e4edb4786591612bb7916139fa565b60405180910390a35050565b620151808102820182811015610bd657600080fd5b600082612be757506000610bd6565b82820282848281612bf457fe5b0414610bd35760405162461bcd60e51b815260040180806020018281038252602181526020018061426a6021913960400191505060405180910390fd5b6000808080612c4562015180875b04612cd4565b600c918801600019810183810494909401965094509250900660010191506000612c6f8484612d6a565b905080821115612c7d578091505b62015180870662015180612c92868686612df0565b0201945086851015612ca357600080fd5b5050505092915050565b6000808080612cbf6201518087612c3f565b9187019450925090506000612c6f8484612d6a565b60008080836226496581018262023ab1600483020590506004600362023ab18302010590910390600062164b09610fa0600185010205905060046105b58202058303601f019250600061098f8460500281612d2b57fe5b0590506000605061098f83020585039050600b820560301994909401606402929092018301996002600c90940290910392909201975095509350505050565b60008160011480612d7b5750816003145b80612d865750816005145b80612d915750816007145b80612d9c5750816008145b80612da7575081600a145b80612db2575081600c145b15612dbf5750601f610bd6565b81600214612dcf5750601e610bd6565b612dd883612e6c565b612de357601c612de6565b601d5b60ff169392505050565b60006107b2841015612e0157600080fd5b838383600062253d8c600460036064611324600c600d19890105890101050205600c80600d19870105600c02600287030361016f0281612e3d57fe5b0560046105b5600c600d1989010589016112c0010205617d4b8603010103039050809450505050509392505050565b600060048206158015612e8157506064820615155b8061095b57505061019090061590565b6040805160e0810190915280600081526020016000815260200160008152602001600081526020016000815260200160008152602001600081525090565b604080516101e081019091528060008152602001600081526020016000815260200160008152602001600081526020016000815260200160008152602001600081526020016000815260200160008152602001600081526020016000815260200160008152602001612f3f612f74565b8152602001612f4c612f74565b905290565b6040805160608101909152600080825260208201905b8152600060209091015290565b60408051608081018252600080825260208201819052909182019081526020016000612f4c565b60408051608081019091526000808252602082019081526020016000612f67565b60408051608081018252600080825260208201819052918101829052606081019190915290565b803561095e816141d3565b8051801515811461095e57600080fd5b803561095e816141e8565b805161095e816141e8565b803561095e816141f5565b805161095e816141f5565b803561095e81614202565b805161095e81614202565b803561095e8161421c565b805161095e8161421c565b803561095e81614229565b805161095e81614229565b803561095e81614236565b805161095e81614236565b80356022811061095e57600080fd5b6000608082840312156109d4578081fd5b600060e082840312156109d4578081fd5b60006102a082840312156109d4578081fd5b6000608082840312156130d6578081fd5b6040516080810181811067ffffffffffffffff821117156130f357fe5b8060405250809150825181526020830151602082015260408301516131178161420f565b6040820152606083015161312a8161420f565b6060919091015292915050565b600060208284031215613148578081fd5b8135610bd3816141d3565b600060208284031215613164578081fd5b8151610bd3816141d3565b600060208284031215613180578081fd5b610bd382612fee565b60006020828403121561319a578081fd5b5035919050565b6000602082840312156131b2578081fd5b5051919050565b600080604083850312156131cb578081fd5b8235915060208301356131dd816141d3565b809150509250929050565b600080604083850312156131fa578182fd5b50508035926020909101359150565b60008060006060848603121561321d578081fd5b505081359360208301359350604090920135919050565b600080600060608486031215613248578081fd5b8335925060208401356001600160e01b031981168114613266578182fd5b91506040840135613276816141d3565b809150509250925092565b6000806101008385031215613294578182fd5b823591506132a584602085016130a2565b90509250929050565b6000806102c083850312156132c1578182fd5b823591506132a584602085016130b3565b6000806000806000806000806000806104c08b8d0312156132f1578788fd5b8a3599506133028c60208d016130b3565b98506133128c6102c08d016130a2565b97506103a08b013567ffffffffffffffff8082111561332f578788fd5b818d0191508d601f830112613342578788fd5b813581811115613350578889fd5b8e60208083028501011115613363578889fd5b60208301995080985050505061337d8c6103c08d01613091565b945061338c6104408c01612fe3565b935061339b6104608c01612fe3565b92506133aa6104808c01612fe3565b91506133b96104a08c01612fe3565b90509295989b9194979a5092959850565b6000602082840312156133db578081fd5b610bd382613082565b600080604083850312156133f6578182fd5b6133ff83613082565b946020939093013593505050565b60006080828403121561341e578081fd5b6040516080810181811067ffffffffffffffff8211171561343b57fe5b6040528235613449816141d3565b81526020830135613459816141d3565b6020820152604083013561346c816141d3565b6040820152606083013561347f816141d3565b60608201529392505050565b600060e0828403121561349c578081fd5b60405160e0810181811067ffffffffffffffff821117156134b957fe5b6040526134c583613035565b81526020830151602082015260408301516040820152606083015160608201526080830151608082015260a083015160a082015260c083015160c08201528091505092915050565b60006102a0828403121561351f578081fd5b61352a6101e061418e565b61353383613061565b81526135416020840161301f565b60208201526135526040840161304b565b604082015261356360608401613077565b606082015261357460808401613009565b608082015261358560a0840161301f565b60a082015261359660c08401613035565b60c08201526135a760e0840161301f565b60e0820152610100838101519082015261012080840151908201526101408084015190820152610160808401519082015261018080840151908201526101a06135f2858286016130c5565b908201526136048461022085016130c5565b6101c08201529392505050565b600060808284031215613622578081fd5b610bd383836130c5565b60006080828403121561363d578081fd5b6040516080810181811067ffffffffffffffff8211171561365a57fe5b60405282518152602083015161366f81614202565b60208201526040830151613682816141f5565b604082015261347f60608401612fee565b6000606082840312156136a4578081fd5b6040516060810181811067ffffffffffffffff821117156136c157fe5b6040528251815260208301516136d681614202565b60208201526136e760408401612fee565b60408201529392505050565b600060208284031215613704578081fd5b815160ff81168114610bd3578182fd5b6009811061371e57fe5b9052565b61371e816141b2565b61371e816141bf565b600d811061371e57fe5b6014811061371e57fe5b600b811061371e57fe5b61375d82825161373e565b602081015161376f6020840182613722565b5060408101516137826040840182613734565b5060608101516137956060840182613748565b5060808101516137a86080840182613714565b5060a08101516137bb60a0840182613722565b5060c08101516137ce60c084018261372b565b5060e08101516137e160e0840182613722565b50610100818101519083015261012080820151908301526101408082015190830152610160808201519083015261018080820151908301526101a08082015161382c8285018261388e565b50506101c0810151612b4761022084018261388e565b8035825260208101356020830152604081013561385e8161420f565b613867816141c9565b6040830152606081013561387a8161420f565b613883816141c9565b806060840152505050565b805182526020810151602083015260408101516138aa816141c9565b60408301526060810151613883816141c9565b6001600160a01b0391909116815260200190565b6001600160a01b0392831681529116602082015260400190565b6020808252825182820181905260009190848201906040850190845b8181101561392357835183529284019291840191600101613907565b50909695505050505050565b901515815260200190565b9115158252602082015260400190565b90815260200190565b9283526001600160a01b03918216602084015216604082015260600190565b9081526a19dc9858d954195c9a5bd960aa1b602082015260400190565b9081527019195b1a5b9c5d595b98de54195c9a5bd9607a1b602082015260400190565b908152706e6f6e506572666f726d696e674461746560781b602082015260400190565b90815272636f6e7472616374506572666f726d616e636560681b602082015260400190565b6001600160e01b031991909116815260200190565b6040810160228410613a1d57fe5b9281526020015290565b6020808252603e908201527f417373657452656769737472792e736574436f756e746572706172747942656e60408201527f65666963696172793a20454e5452595f444f45535f4e4f545f45584953540000606082015260800190565b6020808252603d908201527f417373657452656769737472792e736574436f756e746572706172747942656e60408201527f65666963696172793a20554e415554484f52495a45445f53454e444552000000606082015260800190565b60208082526039908201527f417373657452656769737472792e736574436f756e74657270617274794f626c60408201527f69676f723a20554e415554484f52495a45445f53454e44455200000000000000606082015260800190565b6020808252602f908201527f416363657373436f6e74726f6c2e6973417574686f72697a65643a20554e415560408201526e2a2427a924ad22a22fa9a2a72222a960891b606082015260800190565b6020808252602b908201527f4261736552656769737472792e73657441737365743a2041535345545f414c5260408201526a454144595f45584953545360a81b606082015260800190565b60208082526034908201527f4261736552656769737472792e6f6e6c79417070726f7665644163746f72733a604082015273102aa720aaaa2427a924ad22a22fa9a2a72222a960611b606082015260800190565b60208082526038908201527f417373657452656769737472792e73657443726561746f7242656e656669636960408201527f6172793a20554e415554484f52495a45445f53454e4445520000000000000000606082015260800190565b60208082526029908201527f4261736552656769737472792e73657441737365743a204143544f525f4e4f5460408201526817d054141493d5915160ba1b606082015260800190565b60208082526037908201527f506572696f645574696c732e67657454696d657374616d70506c75735065726960408201527f6f643a204154545249425554455f4e4f545f464f554e44000000000000000000606082015260800190565b60208082526039908201527f417373657452656769737472792e73657443726561746f7242656e656669636960408201527f6172793a20454e5452595f444f45535f4e4f545f455849535400000000000000606082015260800190565b6020808252602f908201527f416363657373436f6e74726f6c2e7265766f6b654163636573733a20554e415560408201526e2a2427a924ad22a22fa9a2a72222a960891b606082015260800190565b60208082526034908201527f417373657452656769737472792e73657443726561746f724f626c69676f723a604082015273102aa720aaaa2427a924ad22a22fa9a2a72222a960611b606082015260800190565b60208082526042908201527f41737365744163746f722e6765744e657874556e6465726c79696e674576656e60408201527f743a20554e4445524c59494e475f41535345545f444f45535f4e4f545f45584960608201526114d560f21b608082015260a00190565b81516001600160a01b039081168252602080840151821690830152604080840151821690830152606092830151169181019190915260800190565b918252602082015260400190565b82815261010081018235613ef381614202565b613efc816141bf565b80602084015250602083013560408301526040830135606083015260608301356080830152608083013560a083015260a083013560c083015260c083013560e08301529392505050565b8281526102c08101613f6360208301613f5e85613056565b61373e565b613f6f60208401613014565b613f7c6040840182613722565b50613f8960408401613040565b613f966060840182613734565b50613fa36060840161306c565b613fb06080840182613748565b50613fbd60808401612ffe565b613fca60a0840182613714565b50613fd760a08401613014565b613fe460c0840182613722565b50613ff160c0840161302a565b613ffe60e084018261372b565b5061400b60e08401613014565b61010061401a81850183613722565b61012091508085013582850152506101408185013581850152610160915080850135828501525061018081850135818501526101a0915080850135828501525061406a6101c08401828601613842565b50610d0861024083016102208501613842565b815160e082019061408d816141bf565b808352506020830151602083015260408301516040830152606083015160608301526080830151608083015260a083015160a083015260c083015160c083015292915050565b6102a08101610bd68284613752565b6102c081016140f18285613752565b826102a08301529392505050565b60808101610bd6828461388e565b8151815260208201516080820190614124816141bf565b60208301526040830151614137816141b2565b8060408401525060608301511515606083015292915050565b8151815260208201516060820190614167816141bf565b8060208401525060408301511515604083015292915050565b60ff91909116815260200190565b60405181810167ffffffffffffffff811182821017156141aa57fe5b604052919050565b600281106141bc57fe5b50565b600681106141bc57fe5b600581106141bc57fe5b6001600160a01b03811681146141bc57600080fd5b600981106141bc57600080fd5b600281106141bc57600080fd5b600681106141bc57600080fd5b600581106141bc57600080fd5b600d81106141bc57600080fd5b601481106141bc57600080fd5b600b81106141bc57600080fdfe4f776e61626c653a206e6577206f776e657220697320746865207a65726f2061646472657373536166654d6174683a206d756c7469706c69636174696f6e206f766572666c6f77a2646970667358221220215de936aed12471c36e822e842cdaeb574499647d865149bef93b6e3aa66c0064736f6c63430007040033",
  "deployedBytecode": "0x608060405234801561001057600080fd5b50600436106103425760003560e01c8063a17b75b5116101b8578063ccfc347e11610104578063e7dc3188116100a2578063ecef55771161007c578063ecef55771461079d578063ee43eda1146107b0578063f2fde38b146107c3578063f52f84e1146107d657610342565b8063e7dc318814610764578063e8f7ca3e14610777578063eb0125591461078a57610342565b8063d981e773116100de578063d981e7731461070b578063de07a1731461071e578063e05a66e014610731578063e50e0ef71461074457610342565b8063ccfc347e146106c5578063cf5aed12146106d8578063d51dc3dc146106f857610342565b8063ba4d2d2811610171578063be588c1d1161014b578063be588c1d14610679578063c139626b1461068c578063c364ac9c1461069f578063c3b6e7c2146106b257610342565b8063ba4d2d2814610625578063bc6a7d7614610646578063bd1f0a6c1461066657610342565b8063a17b75b5146105a6578063b02ca0c0146105b9578063b0b4888f146105cc578063b3c45ebe146105ec578063b461dd4f146105ff578063b82820411461061257610342565b80633adc277a116102925780636fe55baa1161023057806375e86ae41161020a57806375e86ae414610558578063811322fb1461056b5780638da5cb5b1461057e5780639deaa1c01461059357610342565b80636fe55baa1461050f578063715018a61461052f578063725400031461053757610342565b80636031a0941161026c5780636031a094146104b6578063606aa07e146104c95780636a899b9b146104dc5780636be39bda146104ef57610342565b80633adc277a14610470578063512872f414610490578063512e1446146104a357610342565b80631717e867116102ff57806328e0f8a9116102d957806328e0f8a9146104245780633549d08d1461043757806337462dba1461044a57806339262e871461045d57610342565b80631717e867146103de5780631b126815146103f157806327258b221461041157610342565b806303a81a2a1461034757806309648a9d1461035c5780630c5b75a4146103855780630d62037a146103a55780630d799b85146103b8578063135b9f4d146103cb575b600080fd5b61035a6103553660046131b9565b6107e9565b005b61036f61036a366004613189565b6108be565b60405161037c919061407d565b60405180910390f35b610398610393366004613189565b610963565b60405161037c919061394a565b61035a6103b33660046131b9565b6109da565b61035a6103c63660046131b9565b610a7f565b6103986103d93660046131e8565b610b3d565b61035a6103ec366004613234565b610bdc565b6104046103ff366004613234565b610c92565b60405161037c919061392f565b61040461041f366004613189565b610d0f565b610398610432366004613189565b610d24565b61035a6104453660046131b9565b610d39565b61036f610458366004613189565b610e14565b61035a61046b366004613234565b610e61565b61048361047e366004613189565b610f06565b60405161037c91906138eb565b61035a61049e3660046131b9565b610f20565b61035a6104b13660046132d2565b610fe7565b61035a6104c43660046131b9565b6111d5565b6103986104d73660046131e8565b6112b0565b6103986104ea3660046131e8565b6112f6565b6105026104fd366004613189565b61133c565b60405161037c91906140d3565b61052261051d3660046131e8565b6113da565b60405161037c9190614150565b61035a611479565b61054a610545366004613189565b61152d565b60405161037c929190613a0f565b610398610566366004613189565b611556565b6103986105793660046133ca565b61192a565b610586611938565b60405161037c91906138bd565b61035a6105a1366004613281565b611947565b6103986105b4366004613189565b611a58565b6103986105c73660046131e8565b611a6d565b6105df6105da3660046131e8565b611a8e565b60405161037c919061410d565b6105866105fa366004613189565b611b2d565b61039861060d3660046131e8565b611b4c565b610398610620366004613189565b611b92565b6106386106333660046131e8565b611bf6565b60405161037c92919061393a565b6106596106543660046131e8565b611c20565b60405161037c91906140ff565b61035a6106743660046131b9565b611cbf565b61035a610687366004613281565b611d57565b61058661069a366004613189565b611e5b565b61035a6106ad3660046132ae565b611e79565b6103986106c0366004613189565b611f79565b6104046106d3366004613137565b6120b2565b6106eb6106e63660046131e8565b6120c7565b60405161037c9190614180565b6103986107063660046131e8565b61215d565b61035a6107193660046131e8565b6121a3565b61035a61072c366004613209565b612212565b61039861073f3660046133e4565b6122ae565b610757610752366004613189565b6122cc565b60405161037c9190613e97565b61035a610772366004613137565b61232a565b6104046107853660046131b9565b6123b8565b6105866107983660046131e8565b6123ee565b6106eb6107ab3660046131e8565b612484565b6105866107be366004613189565b6124ca565b61035a6107d1366004613137565b6124ea565b6103986107e4366004613189565b6125f4565b6000828152600160208190526040909120015482906001600160a01b03163314806108265750610826816000356001600160e01b03191633610c92565b61084b5760405162461bcd60e51b815260040161084290613b3e565b60405180910390fd5b6000838152600160208190526040918290200180546001600160a01b038581166001600160a01b0319831617909255915191169084907f6baefd4565218ab73b43cb6b1019ca3a06161c4fcaef25cd665aacddabc44a20906108b090849087906138d1565b60405180910390a250505050565b6108c6612e91565b600082815260016020526040908190209051637839d6db60e11b815273__$6ff22f96d3b2cd35acb8be8b05224cf18b$__9163f073adb69161090b919060040161394a565b60e06040518083038186803b15801561092357600080fd5b505af4158015610937573d6000803e3d6000fd5b505050506040513d601f19601f8201168201806040525081019061095b919061348b565b90505b919050565b60008181526001602081905260408220015482906001600160a01b031633148061099f575061099f816000356001600160e01b03191633610c92565b6109bb5760405162461bcd60e51b815260040161084290613b3e565b6000838152600160205260408120600701805491905591505b50919050565b6109f1826000356001600160e01b03191633610c92565b610a0d5760405162461bcd60e51b815260040161084290613ddb565b6000828152600160205260409081902060090180546001600160a01b038481166001600160a01b031983161790925591519116907fa7f38588f02421aa73988ed359aee27363c896e7cc3b6e634e4357f7ee408e2590610a7290859084908690613953565b60405180910390a1505050565b6000828152600160208190526040909120015482906001600160a01b0316331480610abc5750610abc816000356001600160e01b03191633610c92565b610ad85760405162461bcd60e51b815260040161084290613b3e565b6000838152600160205260409081902060020180546001600160a01b038581166001600160a01b0319831617909255915191169084907fdaa92ae0693b6616f14ef5db4b7ee053d3234c0d03f7a1885589c6a6c2c75bdb906108b090849087906138d1565b6000828152600160205260408082209051630c4cd0e360e11b815273__$6ff22f96d3b2cd35acb8be8b05224cf18b$__91631899a1c691610b8391908690600401613ed2565b60206040518083038186803b158015610b9b57600080fd5b505af4158015610baf573d6000803e3d6000fd5b505050506040513d601f19601f82011682018060405250810190610bd391906131a1565b90505b92915050565b610bf3836000356001600160e01b03191633610c92565b610c0f5760405162461bcd60e51b815260040161084290613d8c565b60008381526001602081815260408084206001600160e01b031987168552600d0182528084206001600160a01b038616808652925292839020805460ff1916909217909155905184907face25d271ad11ee299595b3021629bae0349e370d7c2eb7c2dced6e4edb4786590610c859086906139fa565b60405180910390a3505050565b60008381526001602090815260408083206001600160e01b031986168452600d0182528083206001600160a01b038516845290915281205460ff1680610d0557506000848152600160209081526040808320838052600d0182528083206001600160a01b038616845290915290205460ff165b90505b9392505050565b60009081526001602052604090205460ff1690565b60009081526001602052604090206006015490565b6000828152600160205260409020600c01546001600160a01b031680610d715760405162461bcd60e51b815260040161084290613a27565b336001600160a01b0382161480610d9a5750610d9a836000356001600160e01b03191633610c92565b610db65760405162461bcd60e51b815260040161084290613a84565b60008381526001602052604090819020600c0180546001600160a01b0319166001600160a01b038516179055517f66808241563a07166fd47b523591fa432148706dc0ddd255d49b69e71f1721ce90610a7290859084908690613953565b610e1c612e91565b60008281526001602052604090819020905163848923b960e01b815273__$6ff22f96d3b2cd35acb8be8b05224cf18b$__9163848923b99161090b919060040161394a565b610e78836000356001600160e01b03191633610c92565b610e945760405162461bcd60e51b815260040161084290613d8c565b60008381526001602090815260408083206001600160e01b031986168452600d0182528083206001600160a01b038516808552925291829020805460ff19169055905184907f42b1b0e7392ad606bb4f5b003296aba62f16e43aa9372f1f40c1522fa2655ffa90610c859086906139fa565b600081815260016020526040902060609061095b90612609565b6000828152600160208190526040909120015482906001600160a01b0316331480610f5d5750610f5d816000356001600160e01b03191633610c92565b610f795760405162461bcd60e51b815260040161084290613b3e565b6000838152600160205260409081902080546001600160a01b03858116610100908102610100600160a81b03198416179093559251919004919091169084907fdaa92ae0693b6616f14ef5db4b7ee053d3234c0d03f7a1885589c6a6c2c75bdb906108b090849087906138d1565b3360009081526002602052604090205460ff166110165760405162461bcd60e51b815260040161084290613bd8565b6110668a88888080602002602001604051908101604052809392919081815260200183836020028082843760009201919091525061105d925050503689900389018961340d565b8787878761269f565b60008a81526001602052604090819020905163215ac35960e21b815273__$6ff22f96d3b2cd35acb8be8b05224cf18b$__9163856b0d64916110ad91908d90600401613f46565b60006040518083038186803b1580156110c557600080fd5b505af41580156110d9573d6000803e3d6000fd5b50505060008b815260016020526040908190209051633224fb2760e11b815273__$6ff22f96d3b2cd35acb8be8b05224cf18b$__9250636449f64e91611123918c90600401613ee0565b60006040518083038186803b15801561113b57600080fd5b505af415801561114f573d6000803e3d6000fd5b50505060008b8152600160205260409081902090516368eb691b60e11b815273__$6ff22f96d3b2cd35acb8be8b05224cf18b$__925063d1d6d23691611199918c90600401613ee0565b60006040518083038186803b1580156111b157600080fd5b505af41580156111c5573d6000803e3d6000fd5b5050505050505050505050505050565b6000828152600160205260409020600a01546001600160a01b03168061120d5760405162461bcd60e51b815260040161084290613d2f565b336001600160a01b03821614806112365750611236836000356001600160e01b03191633610c92565b6112525760405162461bcd60e51b815260040161084290613c2c565b60008381526001602052604090819020600a0180546001600160a01b0319166001600160a01b038516179055517f66808241563a07166fd47b523591fa432148706dc0ddd255d49b69e71f1721ce90610a7290859084908690613953565b60008281526001602052604080822090516346fa6d2560e11b815273__$6ff22f96d3b2cd35acb8be8b05224cf18b$__91638df4da4a91610b8391908690600401613ed2565b600082815260016020526040808220905163f03cb26f60e01b815273__$6ff22f96d3b2cd35acb8be8b05224cf18b$__9163f03cb26f91610b8391908690600401613ed2565b611344612ecf565b600082815260016020526040908190209051630f4835d760e41b815273__$6ff22f96d3b2cd35acb8be8b05224cf18b$__9163f4835d7091611389919060040161394a565b6102a06040518083038186803b1580156113a257600080fd5b505af41580156113b6573d6000803e3d6000fd5b505050506040513d601f19601f8201168201806040525081019061095b919061350d565b6113e2612f51565b600083815260016020526040908190209051632b5cc01560e01b815273__$6ff22f96d3b2cd35acb8be8b05224cf18b$__91632b5cc0159161142991908690600401613ed2565b60606040518083038186803b15801561144157600080fd5b505af4158015611455573d6000803e3d6000fd5b505050506040513d601f19601f82011682018060405250810190610bd39190613693565b611481612812565b6000546001600160a01b039081169116146114e3576040805162461bcd60e51b815260206004820181905260248201527f4f776e61626c653a2063616c6c6572206973206e6f7420746865206f776e6572604482015290519081900360640190fd5b600080546040516001600160a01b03909116907f8be0079c531659141344cd1fd0a4f28419497f9722a3daafe3b4186f6b6457e0908390a3600080546001600160a01b0319169055565b6000808060f884901c602181111561154157fe5b92505067ffffffffffffffff83169050915091565b6000611560612f74565b6115808372636f6e74726163745265666572656e63655f3160681b611c20565b8051909150158015906115a257506003816060015160048111156115a057fe5b145b156119215780516020820151604051631392c59160e11b81526001600160a01b038216906327258b22906115da90859060040161394a565b60206040518083038186803b1580156115f257600080fd5b505afa158015611606573d6000803e3d6000fd5b505050506040513d601f19601f8201168201806040525081019061162a919061316f565b6116465760405162461bcd60e51b815260040161084290613e2f565b6000611661866b65786572636973654461746560a01b6112b0565b90506000611688877518dc99591a5d115d995b9d151e5c1950dbdd995c995960521b612484565b60ff16600581111561169657fe5b90506000836001600160a01b031663cf5aed12866040518263ffffffff1660e01b81526004016116c691906139d5565b60206040518083038186803b1580156116de57600080fd5b505afa1580156116f2573d6000803e3d6000fd5b505050506040513d601f19601f8201168201806040525081019061171691906136f3565b60ff16600581111561172457fe5b90506000846001600160a01b031663606aa07e876040518263ffffffff1660e01b815260040161175491906139b2565b60206040518083038186803b15801561176c57600080fd5b505afa158015611780573d6000803e3d6000fd5b505050506040513d601f19601f820116820180604052508101906117a491906131a1565b905083156117c5576117b7601a426122ae565b97505050505050505061095e565b60008360058111156117d357fe5b141580156117f657508260058111156117e857fe5b8260058111156117f457fe5b145b1561191a57600182600581111561180957fe5b141561181a576117b76019826122ae565b600282600581111561182857fe5b14156118d257611836612f51565b6040516337f2add560e11b81526001600160a01b03871690636fe55baa90611862908a90600401613972565b60606040518083038186803b15801561187a57600080fd5b505afa15801561188e573d6000803e3d6000fd5b505050506040513d601f19601f820116820180604052508101906118b29190613693565b90506118c3601961073f8385612816565b9850505050505050505061095e565b60038260058111156118e057fe5b141561191a576118ee612f51565b6040516337f2add560e11b81526001600160a01b03871690636fe55baa90611862908a9060040161398f565b5050505050505b50600092915050565b600081602181111561095b57fe5b6000546001600160a01b031690565b6000828152600160208190526040909120015482906001600160a01b03163314806119845750611984816000356001600160e01b03191633610c92565b6119a05760405162461bcd60e51b815260040161084290613b3e565b6000838152600160205260409081902090516368eb691b60e11b815273__$6ff22f96d3b2cd35acb8be8b05224cf18b$__9163d1d6d236916119e791908690600401613ee0565b60006040518083038186803b1580156119ff57600080fd5b505af4158015611a13573d6000803e3d6000fd5b50505050827f0c71209d22d4c70a40140b94deee55f1f54a9353e3d5d5a4ddfb45fcddcf720f8360200135604051611a4b919061394a565b60405180910390a2505050565b60009081526001602052604090206005015490565b60009182526001602090815260408084209284526004909201905290205490565b611a96612f9b565b6000838152600160205260409081902090516397853e4560e01b815273__$6ff22f96d3b2cd35acb8be8b05224cf18b$__916397853e4591611add91908690600401613ed2565b60806040518083038186803b158015611af557600080fd5b505af4158015611b09573d6000803e3d6000fd5b505050506040513d601f19601f82011682018060405250810190610bd3919061362c565b600090815260016020819052604090912001546001600160a01b031690565b600082815260016020526040808220905163744e772160e11b815273__$6ff22f96d3b2cd35acb8be8b05224cf18b$__9163e89cee4291610b8391908690600401613ed2565b6000818152600160205260408120600581015415611be257600581015460068201541415611bc457506000905061095e565b6006810154600090815260049091016020526040902054905061095e565b6000611bed8461292f565b50949350505050565b6000918252600160208181526040808520938552601090930190529120805491015460ff90911691565b611c28612f74565b600083815260016020526040908190209051633f0ad16960e01b815273__$6ff22f96d3b2cd35acb8be8b05224cf18b$__91633f0ad16991611c6f91908690600401613ed2565b60806040518083038186803b158015611c8757600080fd5b505af4158015611c9b573d6000803e3d6000fd5b505050506040513d601f19601f82011682018060405250810190610bd39190613611565b611cd6826000356001600160e01b03191633610c92565b611cf25760405162461bcd60e51b815260040161084290613ae1565b60008281526001602052604090819020600b0180546001600160a01b038481166001600160a01b031983161790925591519116907fa7f38588f02421aa73988ed359aee27363c896e7cc3b6e634e4357f7ee408e2590610a7290859084908690613953565b6000828152600160208190526040909120015482906001600160a01b0316331480611d945750611d94816000356001600160e01b03191633610c92565b611db05760405162461bcd60e51b815260040161084290613b3e565b600083815260016020526040908190209051633224fb2760e11b815273__$6ff22f96d3b2cd35acb8be8b05224cf18b$__91636449f64e91611df791908690600401613ee0565b60006040518083038186803b158015611e0f57600080fd5b505af4158015611e23573d6000803e3d6000fd5b50505050827fad3970329ffaec63d947adc6077368479a4be7f09f2e7ba1b13852f8405b3ec68360200135604051611a4b919061394a565b6000908152600160205260409020600201546001600160a01b031690565b6000828152600160208190526040909120015482906001600160a01b0316331480611eb65750611eb6816000356001600160e01b03191633610c92565b611ed25760405162461bcd60e51b815260040161084290613b3e565b60008381526001602052604090819020905163215ac35960e21b815273__$6ff22f96d3b2cd35acb8be8b05224cf18b$__9163856b0d6491611f1991908690600401613f46565b60006040518083038186803b158015611f3157600080fd5b505af4158015611f45573d6000803e3d6000fd5b50506040518592507fb777acf68d226f3c8ab6f398cfb9a320e6fe8e92f5d2f0b4f69bc8ebab3b70cb9150600090a2505050565b60008181526001602081905260408220015482906001600160a01b0316331480611fb55750611fb5816000356001600160e01b03191633610c92565b611fd15760405162461bcd60e51b815260040161084290613b3e565b600083815260016020526040902060058101541561202b57600681015460008181526004830160205260409020546005830154909114156120185750600092506109d49050565b60069091018054600101905591506109d4565b6000806120378661292f565b90925090508161204e5750600093506109d4915050565b60008061205a8461152d565b90925090506001831515141561209e578060038601600084602181111561207d57fe5b602181111561208857fe5b81526020810191909152604001600020556120a6565b600885018490555b50919695505050505050565b60026020526000908152604090205460ff1681565b6000828152600160205260408082209051632228446b60e01b815273__$6ff22f96d3b2cd35acb8be8b05224cf18b$__91632228446b9161210d91908690600401613ed2565b60206040518083038186803b15801561212557600080fd5b505af4158015612139573d6000803e3d6000fd5b505050506040513d601f19601f82011682018060405250810190610bd391906136f3565b6000828152600160205260408082209051633192fda960e01b815273__$6ff22f96d3b2cd35acb8be8b05224cf18b$__91633192fda991610b8391908690600401613ed2565b6000828152600160208190526040909120015482906001600160a01b03163314806121e057506121e0816000356001600160e01b03191633610c92565b6121fc5760405162461bcd60e51b815260040161084290613b3e565b5060009182526001602052604090912060070155565b6000838152600160208190526040909120015483906001600160a01b031633148061224f575061224f816000356001600160e01b03191633610c92565b61226b5760405162461bcd60e51b815260040161084290613b3e565b50604080518082018252600180825260208083019485526000968752818152838720958752601090950190945293209251835460ff191690151517835551910155565b60008160f88460218111156122bf57fe5b60ff16901b179392505050565b6122d4612fbc565b50600090815260016020908152604091829020825160808101845260098201546001600160a01b039081168252600a830154811693820193909352600b820154831693810193909352600c015416606082015290565b612332612812565b6000546001600160a01b03908116911614612394576040805162461bcd60e51b815260206004820181905260248201527f4f776e61626c653a2063616c6c6572206973206e6f7420746865206f776e6572604482015290519081900360640190fd5b6001600160a01b03166000908152600260205260409020805460ff19166001179055565b6000918252600160209081526040808420848052600d0182528084206001600160a01b0393909316845291905290205460ff1690565b60008281526001602052604080822090516360ceed1160e11b815273__$6ff22f96d3b2cd35acb8be8b05224cf18b$__9163c19dda229161243491908690600401613ed2565b60206040518083038186803b15801561244c57600080fd5b505af4158015612460573d6000803e3d6000fd5b505050506040513d601f19601f82011682018060405250810190610bd39190613153565b6000828152600160205260408082209051630a68c21b60e21b815273__$6ff22f96d3b2cd35acb8be8b05224cf18b$__916329a3086c9161210d91908690600401613ed2565b60009081526001602052604090205461010090046001600160a01b031690565b6124f2612812565b6000546001600160a01b03908116911614612554576040805162461bcd60e51b815260206004820181905260248201527f4f776e61626c653a2063616c6c6572206973206e6f7420746865206f776e6572604482015290519081900360640190fd5b6001600160a01b0381166125995760405162461bcd60e51b81526004018080602001828103825260268152602001806142446026913960400191505060405180910390fd5b600080546040516001600160a01b03808516939216917f8be0079c531659141344cd1fd0a4f28419497f9722a3daafe3b4186f6b6457e091a3600080546001600160a01b0319166001600160a01b0392909216919091179055565b60009081526001602052604090206007015490565b606080826003016002015467ffffffffffffffff8111801561262a57600080fd5b50604051908082528060200260200182016040528015612654578160200160208202803683370190505b50905060005b6005840154811015612698576000818152600485016020526040902054825183908390811061268557fe5b602090810291909101015260010161265a565b5092915050565b6000878152600160205260409020805460ff16156126cf5760405162461bcd60e51b815260040161084290613b8d565b6001600160a01b03841660009081526002602052604090205460ff16151560011461270c5760405162461bcd60e51b815260040161084290613c89565b805486516009830180546001600160a01b03199081166001600160a01b03938416179091556020890151600a8501805483169184169190911790556040890151600b8501805483169184169190911790556060890151600c85018054831691841691909117905560ff199092166001908117610100600160a81b031916610100898416021784558301805483168783161790556002830180549092169084161790556127b88188612adf565b6001600160a01b038316156127d1576127d18884612b4c565b7f5e73a3e4a3f69f1056f05ffd00ff11bf3835158ba0ebd5ad3b994065fcd8964688604051612800919061394a565b60405180910390a15050505050505050565b3390565b600080808460200151600581111561282a57fe5b141561284457835161283d908490612bc3565b9050610bd3565b60018460200151600581111561285657fe5b141561287457835161283d9061286d906007612bd8565b8490612bc3565b60028460200151600581111561288657fe5b141561289957835161283d908490612c31565b6003846020015160058111156128ab57fe5b14156128c957835161283d906128c2906003612bd8565b8490612c31565b6004846020015160058111156128db57fe5b14156128f257835161283d906128c2906006612bd8565b60058460200151600581111561290457fe5b141561291757835161283d908490612cad565b60405162461bcd60e51b815260040161084290613cd2565b60008181526001602052604081208190612947612ecf565b604051630f4835d760e41b815273__$6ff22f96d3b2cd35acb8be8b05224cf18b$__9063f4835d709061297e90859060040161394a565b6102a06040518083038186803b15801561299757600080fd5b505af41580156129ab573d6000803e3d6000fd5b505050506040513d601f19601f820116820180604052508101906129cf919061350d565b82546008840154604051634aa7726560e01b8152929350600092839260019284928392612a6b926101009091046001600160a01b031691634aa7726591612a1b918b91906004016140e2565b60206040518083038186803b158015612a3357600080fd5b505afa158015612a47573d6000803e3d6000fd5b505050506040513d601f19601f8201168201806040525081019061054591906131a1565b915091508360001480612a8757508015801590612a8757508381105b80612ab657508015801590612a9b57508084145b8015612ab65750612aab8561192a565b612ab48361192a565b105b15612ac657809350819450600092505b5050612ad283836122ae565b9650945050505050915091565b60005b8151811015612b47576000801b828281518110612afb57fe5b60200260200101511415612b0e57612b47565b818181518110612b1a57fe5b60209081029190910181015160008381526004860190925260409091205560010160058301819055612ae2565b505050565b6000828152600160208181526040808420848052600d0182528084206001600160a01b0386168086529252808420805460ff19169093179092559051909184917face25d271ad11ee299595b3021629bae0349e370d7c2eb7c2dced6e4edb4786591612bb7916139fa565b60405180910390a35050565b620151808102820182811015610bd657600080fd5b600082612be757506000610bd6565b82820282848281612bf457fe5b0414610bd35760405162461bcd60e51b815260040180806020018281038252602181526020018061426a6021913960400191505060405180910390fd5b6000808080612c4562015180875b04612cd4565b600c918801600019810183810494909401965094509250900660010191506000612c6f8484612d6a565b905080821115612c7d578091505b62015180870662015180612c92868686612df0565b0201945086851015612ca357600080fd5b5050505092915050565b6000808080612cbf6201518087612c3f565b9187019450925090506000612c6f8484612d6a565b60008080836226496581018262023ab1600483020590506004600362023ab18302010590910390600062164b09610fa0600185010205905060046105b58202058303601f019250600061098f8460500281612d2b57fe5b0590506000605061098f83020585039050600b820560301994909401606402929092018301996002600c90940290910392909201975095509350505050565b60008160011480612d7b5750816003145b80612d865750816005145b80612d915750816007145b80612d9c5750816008145b80612da7575081600a145b80612db2575081600c145b15612dbf5750601f610bd6565b81600214612dcf5750601e610bd6565b612dd883612e6c565b612de357601c612de6565b601d5b60ff169392505050565b60006107b2841015612e0157600080fd5b838383600062253d8c600460036064611324600c600d19890105890101050205600c80600d19870105600c02600287030361016f0281612e3d57fe5b0560046105b5600c600d1989010589016112c0010205617d4b8603010103039050809450505050509392505050565b600060048206158015612e8157506064820615155b8061095b57505061019090061590565b6040805160e0810190915280600081526020016000815260200160008152602001600081526020016000815260200160008152602001600081525090565b604080516101e081019091528060008152602001600081526020016000815260200160008152602001600081526020016000815260200160008152602001600081526020016000815260200160008152602001600081526020016000815260200160008152602001612f3f612f74565b8152602001612f4c612f74565b905290565b6040805160608101909152600080825260208201905b8152600060209091015290565b60408051608081018252600080825260208201819052909182019081526020016000612f4c565b60408051608081019091526000808252602082019081526020016000612f67565b60408051608081018252600080825260208201819052918101829052606081019190915290565b803561095e816141d3565b8051801515811461095e57600080fd5b803561095e816141e8565b805161095e816141e8565b803561095e816141f5565b805161095e816141f5565b803561095e81614202565b805161095e81614202565b803561095e8161421c565b805161095e8161421c565b803561095e81614229565b805161095e81614229565b803561095e81614236565b805161095e81614236565b80356022811061095e57600080fd5b6000608082840312156109d4578081fd5b600060e082840312156109d4578081fd5b60006102a082840312156109d4578081fd5b6000608082840312156130d6578081fd5b6040516080810181811067ffffffffffffffff821117156130f357fe5b8060405250809150825181526020830151602082015260408301516131178161420f565b6040820152606083015161312a8161420f565b6060919091015292915050565b600060208284031215613148578081fd5b8135610bd3816141d3565b600060208284031215613164578081fd5b8151610bd3816141d3565b600060208284031215613180578081fd5b610bd382612fee565b60006020828403121561319a578081fd5b5035919050565b6000602082840312156131b2578081fd5b5051919050565b600080604083850312156131cb578081fd5b8235915060208301356131dd816141d3565b809150509250929050565b600080604083850312156131fa578182fd5b50508035926020909101359150565b60008060006060848603121561321d578081fd5b505081359360208301359350604090920135919050565b600080600060608486031215613248578081fd5b8335925060208401356001600160e01b031981168114613266578182fd5b91506040840135613276816141d3565b809150509250925092565b6000806101008385031215613294578182fd5b823591506132a584602085016130a2565b90509250929050565b6000806102c083850312156132c1578182fd5b823591506132a584602085016130b3565b6000806000806000806000806000806104c08b8d0312156132f1578788fd5b8a3599506133028c60208d016130b3565b98506133128c6102c08d016130a2565b97506103a08b013567ffffffffffffffff8082111561332f578788fd5b818d0191508d601f830112613342578788fd5b813581811115613350578889fd5b8e60208083028501011115613363578889fd5b60208301995080985050505061337d8c6103c08d01613091565b945061338c6104408c01612fe3565b935061339b6104608c01612fe3565b92506133aa6104808c01612fe3565b91506133b96104a08c01612fe3565b90509295989b9194979a5092959850565b6000602082840312156133db578081fd5b610bd382613082565b600080604083850312156133f6578182fd5b6133ff83613082565b946020939093013593505050565b60006080828403121561341e578081fd5b6040516080810181811067ffffffffffffffff8211171561343b57fe5b6040528235613449816141d3565b81526020830135613459816141d3565b6020820152604083013561346c816141d3565b6040820152606083013561347f816141d3565b60608201529392505050565b600060e0828403121561349c578081fd5b60405160e0810181811067ffffffffffffffff821117156134b957fe5b6040526134c583613035565b81526020830151602082015260408301516040820152606083015160608201526080830151608082015260a083015160a082015260c083015160c08201528091505092915050565b60006102a0828403121561351f578081fd5b61352a6101e061418e565b61353383613061565b81526135416020840161301f565b60208201526135526040840161304b565b604082015261356360608401613077565b606082015261357460808401613009565b608082015261358560a0840161301f565b60a082015261359660c08401613035565b60c08201526135a760e0840161301f565b60e0820152610100838101519082015261012080840151908201526101408084015190820152610160808401519082015261018080840151908201526101a06135f2858286016130c5565b908201526136048461022085016130c5565b6101c08201529392505050565b600060808284031215613622578081fd5b610bd383836130c5565b60006080828403121561363d578081fd5b6040516080810181811067ffffffffffffffff8211171561365a57fe5b60405282518152602083015161366f81614202565b60208201526040830151613682816141f5565b604082015261347f60608401612fee565b6000606082840312156136a4578081fd5b6040516060810181811067ffffffffffffffff821117156136c157fe5b6040528251815260208301516136d681614202565b60208201526136e760408401612fee565b60408201529392505050565b600060208284031215613704578081fd5b815160ff81168114610bd3578182fd5b6009811061371e57fe5b9052565b61371e816141b2565b61371e816141bf565b600d811061371e57fe5b6014811061371e57fe5b600b811061371e57fe5b61375d82825161373e565b602081015161376f6020840182613722565b5060408101516137826040840182613734565b5060608101516137956060840182613748565b5060808101516137a86080840182613714565b5060a08101516137bb60a0840182613722565b5060c08101516137ce60c084018261372b565b5060e08101516137e160e0840182613722565b50610100818101519083015261012080820151908301526101408082015190830152610160808201519083015261018080820151908301526101a08082015161382c8285018261388e565b50506101c0810151612b4761022084018261388e565b8035825260208101356020830152604081013561385e8161420f565b613867816141c9565b6040830152606081013561387a8161420f565b613883816141c9565b806060840152505050565b805182526020810151602083015260408101516138aa816141c9565b60408301526060810151613883816141c9565b6001600160a01b0391909116815260200190565b6001600160a01b0392831681529116602082015260400190565b6020808252825182820181905260009190848201906040850190845b8181101561392357835183529284019291840191600101613907565b50909695505050505050565b901515815260200190565b9115158252602082015260400190565b90815260200190565b9283526001600160a01b03918216602084015216604082015260600190565b9081526a19dc9858d954195c9a5bd960aa1b602082015260400190565b9081527019195b1a5b9c5d595b98de54195c9a5bd9607a1b602082015260400190565b908152706e6f6e506572666f726d696e674461746560781b602082015260400190565b90815272636f6e7472616374506572666f726d616e636560681b602082015260400190565b6001600160e01b031991909116815260200190565b6040810160228410613a1d57fe5b9281526020015290565b6020808252603e908201527f417373657452656769737472792e736574436f756e746572706172747942656e60408201527f65666963696172793a20454e5452595f444f45535f4e4f545f45584953540000606082015260800190565b6020808252603d908201527f417373657452656769737472792e736574436f756e746572706172747942656e60408201527f65666963696172793a20554e415554484f52495a45445f53454e444552000000606082015260800190565b60208082526039908201527f417373657452656769737472792e736574436f756e74657270617274794f626c60408201527f69676f723a20554e415554484f52495a45445f53454e44455200000000000000606082015260800190565b6020808252602f908201527f416363657373436f6e74726f6c2e6973417574686f72697a65643a20554e415560408201526e2a2427a924ad22a22fa9a2a72222a960891b606082015260800190565b6020808252602b908201527f4261736552656769737472792e73657441737365743a2041535345545f414c5260408201526a454144595f45584953545360a81b606082015260800190565b60208082526034908201527f4261736552656769737472792e6f6e6c79417070726f7665644163746f72733a604082015273102aa720aaaa2427a924ad22a22fa9a2a72222a960611b606082015260800190565b60208082526038908201527f417373657452656769737472792e73657443726561746f7242656e656669636960408201527f6172793a20554e415554484f52495a45445f53454e4445520000000000000000606082015260800190565b60208082526029908201527f4261736552656769737472792e73657441737365743a204143544f525f4e4f5460408201526817d054141493d5915160ba1b606082015260800190565b60208082526037908201527f506572696f645574696c732e67657454696d657374616d70506c75735065726960408201527f6f643a204154545249425554455f4e4f545f464f554e44000000000000000000606082015260800190565b60208082526039908201527f417373657452656769737472792e73657443726561746f7242656e656669636960408201527f6172793a20454e5452595f444f45535f4e4f545f455849535400000000000000606082015260800190565b6020808252602f908201527f416363657373436f6e74726f6c2e7265766f6b654163636573733a20554e415560408201526e2a2427a924ad22a22fa9a2a72222a960891b606082015260800190565b60208082526034908201527f417373657452656769737472792e73657443726561746f724f626c69676f723a604082015273102aa720aaaa2427a924ad22a22fa9a2a72222a960611b606082015260800190565b60208082526042908201527f41737365744163746f722e6765744e657874556e6465726c79696e674576656e60408201527f743a20554e4445524c59494e475f41535345545f444f45535f4e4f545f45584960608201526114d560f21b608082015260a00190565b81516001600160a01b039081168252602080840151821690830152604080840151821690830152606092830151169181019190915260800190565b918252602082015260400190565b82815261010081018235613ef381614202565b613efc816141bf565b80602084015250602083013560408301526040830135606083015260608301356080830152608083013560a083015260a083013560c083015260c083013560e08301529392505050565b8281526102c08101613f6360208301613f5e85613056565b61373e565b613f6f60208401613014565b613f7c6040840182613722565b50613f8960408401613040565b613f966060840182613734565b50613fa36060840161306c565b613fb06080840182613748565b50613fbd60808401612ffe565b613fca60a0840182613714565b50613fd760a08401613014565b613fe460c0840182613722565b50613ff160c0840161302a565b613ffe60e084018261372b565b5061400b60e08401613014565b61010061401a81850183613722565b61012091508085013582850152506101408185013581850152610160915080850135828501525061018081850135818501526101a0915080850135828501525061406a6101c08401828601613842565b50610d0861024083016102208501613842565b815160e082019061408d816141bf565b808352506020830151602083015260408301516040830152606083015160608301526080830151608083015260a083015160a083015260c083015160c083015292915050565b6102a08101610bd68284613752565b6102c081016140f18285613752565b826102a08301529392505050565b60808101610bd6828461388e565b8151815260208201516080820190614124816141bf565b60208301526040830151614137816141b2565b8060408401525060608301511515606083015292915050565b8151815260208201516060820190614167816141bf565b8060208401525060408301511515604083015292915050565b60ff91909116815260200190565b60405181810167ffffffffffffffff811182821017156141aa57fe5b604052919050565b600281106141bc57fe5b50565b600681106141bc57fe5b600581106141bc57fe5b6001600160a01b03811681146141bc57600080fd5b600981106141bc57600080fd5b600281106141bc57600080fd5b600681106141bc57600080fd5b600581106141bc57600080fd5b600d81106141bc57600080fd5b601481106141bc57600080fd5b600b81106141bc57600080fdfe4f776e61626c653a206e6577206f776e657220697320746865207a65726f2061646472657373536166654d6174683a206d756c7469706c69636174696f6e206f766572666c6f77a2646970667358221220215de936aed12471c36e822e842cdaeb574499647d865149bef93b6e3aa66c0064736f6c63430007040033",
  "libraries": {
    "CECEncoder": "0xA964F7D19A7A3cf81d6F2C60F05a84Fe5293fC64"
  },
  "devdoc": {
    "kind": "dev",
    "methods": {
      "approveActor(address)": {
        "details": "Can only be called by the owner of the contract.",
        "params": {
          "actor": "address of the actor"
        }
      },
      "getActor(bytes32)": {
        "params": {
          "assetId": "id of the asset"
        },
        "returns": {
          "_0": "address of the asset actor"
        }
      },
      "getEngine(bytes32)": {
        "params": {
          "assetId": "id of the asset"
        },
        "returns": {
          "_0": "address of the engine of the asset"
        }
      },
      "getEventAtIndex(bytes32,uint256)": {
        "params": {
          "assetId": "id of the asset",
          "index": "index of the event to return"
        },
        "returns": {
          "_0": "Event"
        }
      },
      "getExtension(bytes32)": {
        "params": {
          "assetId": "id of the asset"
        },
        "returns": {
          "_0": "address of the asset actor"
        }
      },
      "getFinalizedState(bytes32)": {
        "params": {
          "assetId": "id of the asset"
        },
        "returns": {
          "_0": "state of the asset"
        }
      },
      "getNextScheduleIndex(bytes32)": {
        "params": {
          "assetId": "id of the asset"
        },
        "returns": {
          "_0": "Index"
        }
      },
      "getNextScheduledEvent(bytes32)": {
        "params": {
          "assetId": "id of the asset"
        },
        "returns": {
          "_0": "event"
        }
      },
      "getOwnership(bytes32)": {
        "params": {
          "assetId": "id of the asset"
        },
        "returns": {
          "_0": "addresses of all owners of the asset"
        }
      },
      "getSchedule(bytes32)": {
        "params": {
          "assetId": "id of the asset"
        },
        "returns": {
          "_0": "the schedule"
        }
      },
      "getScheduleLength(bytes32)": {
        "params": {
          "assetId": "id of the asset"
        },
        "returns": {
          "_0": "Length of the schedule"
        }
      },
      "getState(bytes32)": {
        "params": {
          "assetId": "id of the asset"
        },
        "returns": {
          "_0": "state of the asset"
        }
      },
      "getTerms(bytes32)": {
        "params": {
          "assetId": "id of the asset"
        },
        "returns": {
          "_0": "terms of the asset"
        }
      },
      "grantAccess(bytes32,bytes4,address)": {
        "details": "Can only be called by an authorized account.",
        "params": {
          "account": "address of the account to grant access to",
          "assetId": "id of the asset",
          "methodSignature": "function / method signature (4 byte keccak256 hash of the method selector)"
        }
      },
      "hasAccess(bytes32,bytes4,address)": {
        "params": {
          "account": "address of the account for which to check access",
          "assetId": "id of the asset",
          "methodSignature": "function / method signature (4 byte keccak256 hash of the method selector)"
        },
        "returns": {
          "_0": "true if allowed access"
        }
      },
      "hasRootAccess(bytes32,address)": {
        "params": {
          "account": "address of the account for which to check root acccess",
          "assetId": "id of the asset"
        },
        "returns": {
          "_0": "true if has root access"
        }
      },
      "isEventSettled(bytes32,bytes32)": {
        "params": {
          "_event": "event (encoded)",
          "assetId": "id of the asset"
        },
        "returns": {
          "_0": "true if event was settled"
        }
      },
      "isRegistered(bytes32)": {
        "params": {
          "assetId": "id of the asset"
        },
        "returns": {
          "_0": "true if asset exist"
        }
      },
      "markEventAsSettled(bytes32,bytes32,int256)": {
        "details": "Can only be set by authorized account.",
        "params": {
          "_event": "event (encoded) to be marked as settled",
          "assetId": "id of the asset"
        }
      },
      "owner()": {
        "details": "Returns the address of the current owner."
      },
      "popNextScheduledEvent(bytes32)": {
        "details": "Can only be updated by the assets actor or by an authorized account.",
        "params": {
          "assetId": "id of the asset"
        }
      },
      "registerAsset(bytes32,(uint8,uint8,uint8,uint8,uint8,uint8,uint8,uint8,uint256,uint256,int256,int256,int256,(bytes32,bytes32,uint8,uint8),(bytes32,bytes32,uint8,uint8)),(uint8,uint256,uint256,uint256,uint256,int256,int256),bytes32[],(address,address,address,address),address,address,address,address)": {
        "params": {
          "actor": "account which is allowed to update the asset state",
          "admin": "account which as admin rights (optional)",
          "engine": "ACTUS Engine of the asset",
          "extension": "address of the extension (optional)",
          "ownership": "ownership of the asset",
          "schedule": "schedule of the asset",
          "state": "initial state of the asset",
          "terms": "asset specific terms (CECTerms)"
        }
      },
      "renounceOwnership()": {
        "details": "Leaves the contract without owner. It will not be possible to call `onlyOwner` functions anymore. Can only be called by the current owner. NOTE: Renouncing ownership will leave the contract without an owner, thereby removing any functionality that is only available to the owner."
      },
      "revokeAccess(bytes32,bytes4,address)": {
        "details": "Can only be called by an authorized account.",
        "params": {
          "account": "address of the account to revoke access for",
          "assetId": "id of the asset",
          "methodSignature": "function / method signature (4 byte keccak256 hash of the method selector)"
        }
      },
      "setActor(bytes32,address)": {
        "params": {
          "actor": "address of the Actor contract",
          "assetId": "id of the asset"
        }
      },
      "setCounterpartyBeneficiary(bytes32,address)": {
        "details": "Can only be updated by the current counterparty beneficiary or by an authorized account.",
        "params": {
          "assetId": "id of the asset",
          "newCounterpartyBeneficiary": "address of the new beneficiary"
        }
      },
      "setCounterpartyObligor(bytes32,address)": {
        "details": "Can only be updated by an authorized account.",
        "params": {
          "assetId": "id of the asset",
          "newCounterpartyObligor": "address of the new counterparty obligor"
        }
      },
      "setCreatorBeneficiary(bytes32,address)": {
        "details": "Can only be updated by the current creator beneficiary or by an authorized account.",
        "params": {
          "assetId": "id of the asset",
          "newCreatorBeneficiary": "address of the new beneficiary"
        }
      },
      "setCreatorObligor(bytes32,address)": {
        "details": "Can only be updated by an authorized account.",
        "params": {
          "assetId": "id of the asset",
          "newCreatorObligor": "address of the new creator obligor"
        }
      },
      "setEngine(bytes32,address)": {
        "details": "Can only be set by authorized account.",
        "params": {
          "assetId": "id of the asset",
          "engine": "new engine address"
        }
      },
      "setExtension(bytes32,address)": {
        "details": "Can only be set by authorized account.",
        "params": {
          "assetId": "id of the asset",
          "extension": "new extension address"
        }
      },
      "setFinalizedState(bytes32,(uint8,uint256,uint256,uint256,uint256,int256,int256))": {
        "details": "Can only be updated by the assets actor or by an authorized account.",
        "params": {
          "assetId": "id of the asset",
          "state": "next state of the asset"
        }
      },
      "setState(bytes32,(uint8,uint256,uint256,uint256,uint256,int256,int256))": {
        "details": "Can only be updated by the assets actor or by an authorized account.",
        "params": {
          "assetId": "id of the asset",
          "state": "next state of the asset"
        }
      },
      "setTerms(bytes32,(uint8,uint8,uint8,uint8,uint8,uint8,uint8,uint8,uint256,uint256,int256,int256,int256,(bytes32,bytes32,uint8,uint8),(bytes32,bytes32,uint8,uint8)))": {
        "details": "Can only be set by authorized account.",
        "params": {
          "assetId": "id of the asset",
          "terms": "new terms"
        }
      },
      "transferOwnership(address)": {
        "details": "Transfers ownership of the contract to a new account (`newOwner`). Can only be called by the current owner."
      }
    },
    "title": "CECRegistry",
    "version": 1
  },
  "userdoc": {
    "kind": "user",
    "methods": {
      "approveActor(address)": {
        "notice": "Approves the address of an actor contract e.g. for registering assets."
      },
      "getActor(bytes32)": {
        "notice": "Returns the address of the actor which is allowed to update the state of the asset."
      },
      "getEngine(bytes32)": {
        "notice": "Returns the address of a the ACTUS engine corresponding to the ContractType of an asset."
      },
      "getEpochOffset(uint8)": {
        "notice": "Returns the epoch offset for a given event type to determine the correct order of events if multiple events have the same timestamp"
      },
      "getEventAtIndex(bytes32,uint256)": {
        "notice": "Returns an event for a given position (index) in a schedule of a given asset."
      },
      "getExtension(bytes32)": {
        "notice": "Returns the address of the extension which is allowed to generate events for the asset."
      },
      "getFinalizedState(bytes32)": {
        "notice": "Returns the state of an asset."
      },
      "getNextScheduleIndex(bytes32)": {
        "notice": "Returns the index of the next event to be processed for a schedule of an asset."
      },
      "getNextScheduledEvent(bytes32)": {
        "notice": "Returns the next event to process."
      },
      "getNextUnderlyingEvent(bytes32)": {
        "notice": "If the underlying of the asset changes in performance to a covered performance, it returns the exerciseDate event."
      },
      "getOwnership(bytes32)": {
        "notice": "Retrieves the registered addresses of owners (creator, counterparty) of an asset."
      },
      "getSchedule(bytes32)": {
        "notice": "Convenience method for retrieving the entire schedule Not recommended to execute method on-chain (if schedule is too long the tx may run out of gas)"
      },
      "getScheduleLength(bytes32)": {
        "notice": "Returns the length of a schedule of a given asset."
      },
      "getState(bytes32)": {
        "notice": "Returns the state of an asset."
      },
      "getTerms(bytes32)": {
        "notice": "Returns the terms of an asset."
      },
      "grantAccess(bytes32,bytes4,address)": {
        "notice": "Grant access to an account to call a specific method on a specific asset."
      },
      "hasAccess(bytes32,bytes4,address)": {
        "notice": "Check whether an account is allowed to call a specific method on a specific asset."
      },
      "hasRootAccess(bytes32,address)": {
        "notice": "Check whether an account has root access for a specific asset."
      },
      "isEventSettled(bytes32,bytes32)": {
        "notice": "Returns true if an event of an assets schedule was settled"
      },
      "isRegistered(bytes32)": {
        "notice": "Returns if there is an asset registerd for a given assetId"
      },
      "markEventAsSettled(bytes32,bytes32,int256)": {
        "notice": "Mark an event as settled"
      },
      "popNextScheduledEvent(bytes32)": {
        "notice": "Increments the index of a schedule of an asset. (if max index is reached the index will be left unchanged)"
      },
      "registerAsset(bytes32,(uint8,uint8,uint8,uint8,uint8,uint8,uint8,uint8,uint256,uint256,int256,int256,int256,(bytes32,bytes32,uint8,uint8),(bytes32,bytes32,uint8,uint8)),(uint8,uint256,uint256,uint256,uint256,int256,int256),bytes32[],(address,address,address,address),address,address,address,address)": {
        "notice": "@param assetId id of the asset"
      },
      "revokeAccess(bytes32,bytes4,address)": {
        "notice": "Revoke access for an account to call a specific method on a specific asset."
      },
      "setActor(bytes32,address)": {
        "notice": "Set the address of the Actor contract which should be going forward."
      },
      "setCounterpartyBeneficiary(bytes32,address)": {
        "notice": "Updates the address of the default beneficiary of cashflows going to the counterparty."
      },
      "setCounterpartyObligor(bytes32,address)": {
        "notice": "Update the address of the counterparty which has to fulfill obligations for the counterparty of the asset."
      },
      "setCreatorBeneficiary(bytes32,address)": {
        "notice": "Update the address of the default beneficiary of cashflows going to the creator."
      },
      "setCreatorObligor(bytes32,address)": {
        "notice": "Update the address of the obligor which has to fulfill obligations for the creator of the asset."
      },
      "setEngine(bytes32,address)": {
        "notice": "Set the engine address which should be used for the asset going forward."
      },
      "setExtension(bytes32,address)": {
        "notice": "Set the extension address which should be used for the asset going forward."
      },
      "setFinalizedState(bytes32,(uint8,uint256,uint256,uint256,uint256,int256,int256))": {
        "notice": "Sets next finalized state of an asset."
      },
      "setState(bytes32,(uint8,uint256,uint256,uint256,uint256,int256,int256))": {
        "notice": "Sets next state of an asset."
      },
      "setTerms(bytes32,(uint8,uint8,uint8,uint8,uint8,uint8,uint8,uint8,uint256,uint256,int256,int256,int256,(bytes32,bytes32,uint8,uint8),(bytes32,bytes32,uint8,uint8)))": {
        "notice": "Set the terms of the asset"
      }
    },
    "notice": "Registry for ACTUS Protocol assets",
    "version": 1
  },
  "storageLayout": {
    "storage": [
      {
        "astId": 30,
        "contract": "contracts/Core/CEC/CECRegistry.sol:CECRegistry",
        "label": "_owner",
        "offset": 0,
        "slot": "0",
        "type": "t_address"
      },
      {
        "astId": 27200,
        "contract": "contracts/Core/CEC/CECRegistry.sol:CECRegistry",
        "label": "assets",
        "offset": 0,
        "slot": "1",
        "type": "t_mapping(t_bytes32,t_struct(Asset)27192_storage)"
      },
      {
        "astId": 26862,
        "contract": "contracts/Core/CEC/CECRegistry.sol:CECRegistry",
        "label": "approvedActors",
        "offset": 0,
        "slot": "2",
        "type": "t_mapping(t_address,t_bool)"
      }
    ],
    "types": {
      "t_address": {
        "encoding": "inplace",
        "label": "address",
        "numberOfBytes": "20"
      },
      "t_bool": {
        "encoding": "inplace",
        "label": "bool",
        "numberOfBytes": "1"
      },
      "t_bytes32": {
        "encoding": "inplace",
        "label": "bytes32",
        "numberOfBytes": "32"
      },
      "t_bytes4": {
        "encoding": "inplace",
        "label": "bytes4",
        "numberOfBytes": "4"
      },
      "t_enum(EventType)1814": {
        "encoding": "inplace",
        "label": "enum EventType",
        "numberOfBytes": "1"
      },
      "t_int256": {
        "encoding": "inplace",
        "label": "int256",
        "numberOfBytes": "32"
      },
      "t_mapping(t_address,t_bool)": {
        "encoding": "mapping",
        "key": "t_address",
        "label": "mapping(address => bool)",
        "numberOfBytes": "32",
        "value": "t_bool"
      },
      "t_mapping(t_bytes32,t_bytes32)": {
        "encoding": "mapping",
        "key": "t_bytes32",
        "label": "mapping(bytes32 => bytes32)",
        "numberOfBytes": "32",
        "value": "t_bytes32"
      },
      "t_mapping(t_bytes32,t_struct(Asset)27192_storage)": {
        "encoding": "mapping",
        "key": "t_bytes32",
        "label": "mapping(bytes32 => struct Asset)",
        "numberOfBytes": "32",
        "value": "t_struct(Asset)27192_storage"
      },
      "t_mapping(t_bytes32,t_struct(Settlement)27161_storage)": {
        "encoding": "mapping",
        "key": "t_bytes32",
        "label": "mapping(bytes32 => struct Settlement)",
        "numberOfBytes": "32",
        "value": "t_struct(Settlement)27161_storage"
      },
      "t_mapping(t_bytes4,t_mapping(t_address,t_bool))": {
        "encoding": "mapping",
        "key": "t_bytes4",
        "label": "mapping(bytes4 => mapping(address => bool))",
        "numberOfBytes": "32",
        "value": "t_mapping(t_address,t_bool)"
      },
      "t_mapping(t_enum(EventType)1814,t_uint256)": {
        "encoding": "mapping",
        "key": "t_enum(EventType)1814",
        "label": "mapping(enum EventType => uint256)",
        "numberOfBytes": "32",
        "value": "t_uint256"
      },
      "t_mapping(t_uint256,t_bytes32)": {
        "encoding": "mapping",
        "key": "t_uint256",
        "label": "mapping(uint256 => bytes32)",
        "numberOfBytes": "32",
        "value": "t_bytes32"
      },
      "t_struct(Asset)27192_storage": {
        "encoding": "inplace",
        "label": "struct Asset",
        "members": [
          {
            "astId": 27163,
            "contract": "contracts/Core/CEC/CECRegistry.sol:CECRegistry",
            "label": "isSet",
            "offset": 0,
            "slot": "0",
            "type": "t_bool"
          },
          {
            "astId": 27165,
            "contract": "contracts/Core/CEC/CECRegistry.sol:CECRegistry",
            "label": "engine",
            "offset": 1,
            "slot": "0",
            "type": "t_address"
          },
          {
            "astId": 27167,
            "contract": "contracts/Core/CEC/CECRegistry.sol:CECRegistry",
            "label": "actor",
            "offset": 0,
            "slot": "1",
            "type": "t_address"
          },
          {
            "astId": 27169,
            "contract": "contracts/Core/CEC/CECRegistry.sol:CECRegistry",
            "label": "extension",
            "offset": 0,
            "slot": "2",
            "type": "t_address"
          },
          {
            "astId": 27171,
            "contract": "contracts/Core/CEC/CECRegistry.sol:CECRegistry",
            "label": "schedule",
            "offset": 0,
            "slot": "3",
            "type": "t_struct(Schedule)29746_storage"
          },
          {
            "astId": 27173,
            "contract": "contracts/Core/CEC/CECRegistry.sol:CECRegistry",
            "label": "ownership",
            "offset": 0,
            "slot": "9",
            "type": "t_struct(AssetOwnership)29729_storage"
          },
          {
            "astId": 27179,
            "contract": "contracts/Core/CEC/CECRegistry.sol:CECRegistry",
            "label": "access",
            "offset": 0,
            "slot": "13",
            "type": "t_mapping(t_bytes4,t_mapping(t_address,t_bool))"
          },
          {
            "astId": 27183,
            "contract": "contracts/Core/CEC/CECRegistry.sol:CECRegistry",
            "label": "packedTerms",
            "offset": 0,
            "slot": "14",
            "type": "t_mapping(t_bytes32,t_bytes32)"
          },
          {
            "astId": 27187,
            "contract": "contracts/Core/CEC/CECRegistry.sol:CECRegistry",
            "label": "packedState",
            "offset": 0,
            "slot": "15",
            "type": "t_mapping(t_bytes32,t_bytes32)"
          },
          {
            "astId": 27191,
            "contract": "contracts/Core/CEC/CECRegistry.sol:CECRegistry",
            "label": "settlement",
            "offset": 0,
            "slot": "16",
            "type": "t_mapping(t_bytes32,t_struct(Settlement)27161_storage)"
          }
        ],
        "numberOfBytes": "544"
      },
      "t_struct(AssetOwnership)29729_storage": {
        "encoding": "inplace",
        "label": "struct AssetOwnership",
        "members": [
          {
            "astId": 29722,
            "contract": "contracts/Core/CEC/CECRegistry.sol:CECRegistry",
            "label": "creatorObligor",
            "offset": 0,
            "slot": "0",
            "type": "t_address"
          },
          {
            "astId": 29724,
            "contract": "contracts/Core/CEC/CECRegistry.sol:CECRegistry",
            "label": "creatorBeneficiary",
            "offset": 0,
            "slot": "1",
            "type": "t_address"
          },
          {
            "astId": 29726,
            "contract": "contracts/Core/CEC/CECRegistry.sol:CECRegistry",
            "label": "counterpartyObligor",
            "offset": 0,
            "slot": "2",
            "type": "t_address"
          },
          {
            "astId": 29728,
            "contract": "contracts/Core/CEC/CECRegistry.sol:CECRegistry",
            "label": "counterpartyBeneficiary",
            "offset": 0,
            "slot": "3",
            "type": "t_address"
          }
        ],
        "numberOfBytes": "128"
      },
      "t_struct(Schedule)29746_storage": {
        "encoding": "inplace",
        "label": "struct Schedule",
        "members": [
          {
            "astId": 29733,
            "contract": "contracts/Core/CEC/CECRegistry.sol:CECRegistry",
            "label": "lastScheduleTimeOfCyclicEvent",
            "offset": 0,
            "slot": "0",
            "type": "t_mapping(t_enum(EventType)1814,t_uint256)"
          },
          {
            "astId": 29737,
            "contract": "contracts/Core/CEC/CECRegistry.sol:CECRegistry",
            "label": "events",
            "offset": 0,
            "slot": "1",
            "type": "t_mapping(t_uint256,t_bytes32)"
          },
          {
            "astId": 29739,
            "contract": "contracts/Core/CEC/CECRegistry.sol:CECRegistry",
            "label": "length",
            "offset": 0,
            "slot": "2",
            "type": "t_uint256"
          },
          {
            "astId": 29741,
            "contract": "contracts/Core/CEC/CECRegistry.sol:CECRegistry",
            "label": "nextScheduleIndex",
            "offset": 0,
            "slot": "3",
            "type": "t_uint256"
          },
          {
            "astId": 29743,
            "contract": "contracts/Core/CEC/CECRegistry.sol:CECRegistry",
            "label": "pendingEvent",
            "offset": 0,
            "slot": "4",
            "type": "t_bytes32"
          },
          {
            "astId": 29745,
            "contract": "contracts/Core/CEC/CECRegistry.sol:CECRegistry",
            "label": "lastNonCyclicEvent",
            "offset": 0,
            "slot": "5",
            "type": "t_bytes32"
          }
        ],
        "numberOfBytes": "192"
      },
      "t_struct(Settlement)27161_storage": {
        "encoding": "inplace",
        "label": "struct Settlement",
        "members": [
          {
            "astId": 27158,
            "contract": "contracts/Core/CEC/CECRegistry.sol:CECRegistry",
            "label": "isSettled",
            "offset": 0,
            "slot": "0",
            "type": "t_bool"
          },
          {
            "astId": 27160,
            "contract": "contracts/Core/CEC/CECRegistry.sol:CECRegistry",
            "label": "payoff",
            "offset": 0,
            "slot": "1",
            "type": "t_int256"
          }
        ],
        "numberOfBytes": "64"
      },
      "t_uint256": {
        "encoding": "inplace",
        "label": "uint256",
        "numberOfBytes": "32"
      }
    }
  }
}