{
  "address": "0xD66f8990161D965CaFD35755011eC4aD87913E91",
  "abi": [
    {
      "inputs": [],
      "name": "MAX_CYCLE_SIZE",
      "outputs": [
        {
          "internalType": "uint256",
          "name": "",
          "type": "uint256"
        }
      ],
      "stateMutability": "view",
      "type": "function"
    },
    {
      "inputs": [],
      "name": "MAX_EVENT_SCHEDULE_SIZE",
      "outputs": [
        {
          "internalType": "uint256",
          "name": "",
          "type": "uint256"
        }
      ],
      "stateMutability": "view",
      "type": "function"
    },
    {
      "inputs": [],
      "name": "ONE_POINT_ZERO",
      "outputs": [
        {
          "internalType": "int256",
          "name": "",
          "type": "int256"
        }
      ],
      "stateMutability": "view",
      "type": "function"
    },
    {
      "inputs": [],
      "name": "PRECISION",
      "outputs": [
        {
          "internalType": "uint256",
          "name": "",
          "type": "uint256"
        }
      ],
      "stateMutability": "view",
      "type": "function"
    },
    {
      "inputs": [
        {
          "internalType": "enum EndOfMonthConvention",
          "name": "eomc",
          "type": "uint8"
        },
        {
          "internalType": "uint256",
          "name": "startTime",
          "type": "uint256"
        },
        {
          "components": [
            {
              "internalType": "uint256",
              "name": "i",
              "type": "uint256"
            },
            {
              "internalType": "enum P",
              "name": "p",
              "type": "uint8"
            },
            {
              "internalType": "enum S",
              "name": "s",
              "type": "uint8"
            },
            {
              "internalType": "bool",
              "name": "isSet",
              "type": "bool"
            }
          ],
          "internalType": "struct IPS",
          "name": "cycle",
          "type": "tuple"
        }
      ],
      "name": "adjustEndOfMonthConvention",
      "outputs": [
        {
          "internalType": "enum EndOfMonthConvention",
          "name": "",
          "type": "uint8"
        }
      ],
      "stateMutability": "pure",
      "type": "function"
    },
    {
      "inputs": [
        {
          "components": [
            {
              "internalType": "enum ContractType",
              "name": "contractType",
              "type": "uint8"
            },
            {
              "internalType": "enum Calendar",
              "name": "calendar",
              "type": "uint8"
            },
            {
              "internalType": "enum ContractRole",
              "name": "contractRole",
              "type": "uint8"
            },
            {
              "internalType": "enum DayCountConvention",
              "name": "dayCountConvention",
              "type": "uint8"
            },
            {
              "internalType": "enum BusinessDayConvention",
              "name": "businessDayConvention",
              "type": "uint8"
            },
            {
              "internalType": "enum EndOfMonthConvention",
              "name": "endOfMonthConvention",
              "type": "uint8"
            },
            {
              "internalType": "enum FeeBasis",
              "name": "feeBasis",
              "type": "uint8"
            },
            {
              "internalType": "enum ContractPerformance",
              "name": "creditEventTypeCovered",
              "type": "uint8"
            },
            {
              "internalType": "address",
              "name": "currency",
              "type": "address"
            },
            {
              "internalType": "address",
              "name": "settlementCurrency",
              "type": "address"
            },
            {
              "internalType": "uint256",
              "name": "statusDate",
              "type": "uint256"
            },
            {
              "internalType": "uint256",
              "name": "maturityDate",
              "type": "uint256"
            },
            {
              "internalType": "uint256",
              "name": "purchaseDate",
              "type": "uint256"
            },
            {
              "internalType": "uint256",
              "name": "cycleAnchorDateOfFee",
              "type": "uint256"
            },
            {
              "internalType": "int256",
              "name": "notionalPrincipal",
              "type": "int256"
            },
            {
              "internalType": "int256",
              "name": "feeAccrued",
              "type": "int256"
            },
            {
              "internalType": "int256",
              "name": "feeRate",
              "type": "int256"
            },
            {
              "internalType": "int256",
              "name": "priceAtPurchaseDate",
              "type": "int256"
            },
            {
              "internalType": "int256",
              "name": "coverageOfCreditEnhancement",
              "type": "int256"
            },
            {
              "components": [
                {
                  "internalType": "uint256",
                  "name": "i",
                  "type": "uint256"
                },
                {
                  "internalType": "enum P",
                  "name": "p",
                  "type": "uint8"
                },
                {
                  "internalType": "bool",
                  "name": "isSet",
                  "type": "bool"
                }
              ],
              "internalType": "struct IP",
              "name": "gracePeriod",
              "type": "tuple"
            },
            {
              "components": [
                {
                  "internalType": "uint256",
                  "name": "i",
                  "type": "uint256"
                },
                {
                  "internalType": "enum P",
                  "name": "p",
                  "type": "uint8"
                },
                {
                  "internalType": "bool",
                  "name": "isSet",
                  "type": "bool"
                }
              ],
              "internalType": "struct IP",
              "name": "delinquencyPeriod",
              "type": "tuple"
            },
            {
              "components": [
                {
                  "internalType": "uint256",
                  "name": "i",
                  "type": "uint256"
                },
                {
                  "internalType": "enum P",
                  "name": "p",
                  "type": "uint8"
                },
                {
                  "internalType": "enum S",
                  "name": "s",
                  "type": "uint8"
                },
                {
                  "internalType": "bool",
                  "name": "isSet",
                  "type": "bool"
                }
              ],
              "internalType": "struct IPS",
              "name": "cycleOfFee",
              "type": "tuple"
            },
            {
              "components": [
                {
                  "internalType": "bytes32",
                  "name": "object",
                  "type": "bytes32"
                },
                {
                  "internalType": "bytes32",
                  "name": "object2",
                  "type": "bytes32"
                },
                {
                  "internalType": "enum ContractReferenceType",
                  "name": "_type",
                  "type": "uint8"
                },
                {
                  "internalType": "enum ContractReferenceRole",
                  "name": "role",
                  "type": "uint8"
                }
              ],
              "internalType": "struct ContractReference",
              "name": "contractReference_1",
              "type": "tuple"
            },
            {
              "components": [
                {
                  "internalType": "bytes32",
                  "name": "object",
                  "type": "bytes32"
                },
                {
                  "internalType": "bytes32",
                  "name": "object2",
                  "type": "bytes32"
                },
                {
                  "internalType": "enum ContractReferenceType",
                  "name": "_type",
                  "type": "uint8"
                },
                {
                  "internalType": "enum ContractReferenceRole",
                  "name": "role",
                  "type": "uint8"
                }
              ],
              "internalType": "struct ContractReference",
              "name": "contractReference_2",
              "type": "tuple"
            }
          ],
          "internalType": "struct CEGTerms",
          "name": "terms",
          "type": "tuple"
        },
        {
          "internalType": "uint256",
          "name": "segmentStart",
          "type": "uint256"
        },
        {
          "internalType": "uint256",
          "name": "segmentEnd",
          "type": "uint256"
        },
        {
          "internalType": "enum EventType",
          "name": "eventType",
          "type": "uint8"
        }
      ],
      "name": "computeCyclicScheduleSegment",
      "outputs": [
        {
          "internalType": "bytes32[]",
          "name": "",
          "type": "bytes32[]"
        }
      ],
      "stateMutability": "pure",
      "type": "function"
    },
    {
      "inputs": [
        {
          "internalType": "bytes32",
          "name": "_event",
          "type": "bytes32"
        },
        {
          "internalType": "enum BusinessDayConvention",
          "name": "bdc",
          "type": "uint8"
        },
        {
          "internalType": "enum Calendar",
          "name": "calendar",
          "type": "uint8"
        },
        {
          "internalType": "uint256",
          "name": "maturityDate",
          "type": "uint256"
        }
      ],
      "name": "computeEventTimeForEvent",
      "outputs": [
        {
          "internalType": "uint256",
          "name": "",
          "type": "uint256"
        }
      ],
      "stateMutability": "pure",
      "type": "function"
    },
    {
      "inputs": [
        {
          "components": [
            {
              "internalType": "enum ContractType",
              "name": "contractType",
              "type": "uint8"
            },
            {
              "internalType": "enum Calendar",
              "name": "calendar",
              "type": "uint8"
            },
            {
              "internalType": "enum ContractRole",
              "name": "contractRole",
              "type": "uint8"
            },
            {
              "internalType": "enum DayCountConvention",
              "name": "dayCountConvention",
              "type": "uint8"
            },
            {
              "internalType": "enum BusinessDayConvention",
              "name": "businessDayConvention",
              "type": "uint8"
            },
            {
              "internalType": "enum EndOfMonthConvention",
              "name": "endOfMonthConvention",
              "type": "uint8"
            },
            {
              "internalType": "enum FeeBasis",
              "name": "feeBasis",
              "type": "uint8"
            },
            {
              "internalType": "enum ContractPerformance",
              "name": "creditEventTypeCovered",
              "type": "uint8"
            },
            {
              "internalType": "address",
              "name": "currency",
              "type": "address"
            },
            {
              "internalType": "address",
              "name": "settlementCurrency",
              "type": "address"
            },
            {
              "internalType": "uint256",
              "name": "statusDate",
              "type": "uint256"
            },
            {
              "internalType": "uint256",
              "name": "maturityDate",
              "type": "uint256"
            },
            {
              "internalType": "uint256",
              "name": "purchaseDate",
              "type": "uint256"
            },
            {
              "internalType": "uint256",
              "name": "cycleAnchorDateOfFee",
              "type": "uint256"
            },
            {
              "internalType": "int256",
              "name": "notionalPrincipal",
              "type": "int256"
            },
            {
              "internalType": "int256",
              "name": "feeAccrued",
              "type": "int256"
            },
            {
              "internalType": "int256",
              "name": "feeRate",
              "type": "int256"
            },
            {
              "internalType": "int256",
              "name": "priceAtPurchaseDate",
              "type": "int256"
            },
            {
              "internalType": "int256",
              "name": "coverageOfCreditEnhancement",
              "type": "int256"
            },
            {
              "components": [
                {
                  "internalType": "uint256",
                  "name": "i",
                  "type": "uint256"
                },
                {
                  "internalType": "enum P",
                  "name": "p",
                  "type": "uint8"
                },
                {
                  "internalType": "bool",
                  "name": "isSet",
                  "type": "bool"
                }
              ],
              "internalType": "struct IP",
              "name": "gracePeriod",
              "type": "tuple"
            },
            {
              "components": [
                {
                  "internalType": "uint256",
                  "name": "i",
                  "type": "uint256"
                },
                {
                  "internalType": "enum P",
                  "name": "p",
                  "type": "uint8"
                },
                {
                  "internalType": "bool",
                  "name": "isSet",
                  "type": "bool"
                }
              ],
              "internalType": "struct IP",
              "name": "delinquencyPeriod",
              "type": "tuple"
            },
            {
              "components": [
                {
                  "internalType": "uint256",
                  "name": "i",
                  "type": "uint256"
                },
                {
                  "internalType": "enum P",
                  "name": "p",
                  "type": "uint8"
                },
                {
                  "internalType": "enum S",
                  "name": "s",
                  "type": "uint8"
                },
                {
                  "internalType": "bool",
                  "name": "isSet",
                  "type": "bool"
                }
              ],
              "internalType": "struct IPS",
              "name": "cycleOfFee",
              "type": "tuple"
            },
            {
              "components": [
                {
                  "internalType": "bytes32",
                  "name": "object",
                  "type": "bytes32"
                },
                {
                  "internalType": "bytes32",
                  "name": "object2",
                  "type": "bytes32"
                },
                {
                  "internalType": "enum ContractReferenceType",
                  "name": "_type",
                  "type": "uint8"
                },
                {
                  "internalType": "enum ContractReferenceRole",
                  "name": "role",
                  "type": "uint8"
                }
              ],
              "internalType": "struct ContractReference",
              "name": "contractReference_1",
              "type": "tuple"
            },
            {
              "components": [
                {
                  "internalType": "bytes32",
                  "name": "object",
                  "type": "bytes32"
                },
                {
                  "internalType": "bytes32",
                  "name": "object2",
                  "type": "bytes32"
                },
                {
                  "internalType": "enum ContractReferenceType",
                  "name": "_type",
                  "type": "uint8"
                },
                {
                  "internalType": "enum ContractReferenceRole",
                  "name": "role",
                  "type": "uint8"
                }
              ],
              "internalType": "struct ContractReference",
              "name": "contractReference_2",
              "type": "tuple"
            }
          ],
          "internalType": "struct CEGTerms",
          "name": "terms",
          "type": "tuple"
        }
      ],
      "name": "computeInitialState",
      "outputs": [
        {
          "components": [
            {
              "internalType": "enum ContractPerformance",
              "name": "contractPerformance",
              "type": "uint8"
            },
            {
              "internalType": "uint256",
              "name": "statusDate",
              "type": "uint256"
            },
            {
              "internalType": "uint256",
              "name": "nonPerformingDate",
              "type": "uint256"
            },
            {
              "internalType": "uint256",
              "name": "maturityDate",
              "type": "uint256"
            },
            {
              "internalType": "uint256",
              "name": "exerciseDate",
              "type": "uint256"
            },
            {
              "internalType": "uint256",
              "name": "terminationDate",
              "type": "uint256"
            },
            {
              "internalType": "int256",
              "name": "notionalPrincipal",
              "type": "int256"
            },
            {
              "internalType": "int256",
              "name": "feeAccrued",
              "type": "int256"
            },
            {
              "internalType": "int256",
              "name": "exerciseAmount",
              "type": "int256"
            }
          ],
          "internalType": "struct CEGState",
          "name": "",
          "type": "tuple"
        }
      ],
      "stateMutability": "pure",
      "type": "function"
    },
    {
      "inputs": [
        {
          "components": [
            {
              "internalType": "enum ContractType",
              "name": "contractType",
              "type": "uint8"
            },
            {
              "internalType": "enum Calendar",
              "name": "calendar",
              "type": "uint8"
            },
            {
              "internalType": "enum ContractRole",
              "name": "contractRole",
              "type": "uint8"
            },
            {
              "internalType": "enum DayCountConvention",
              "name": "dayCountConvention",
              "type": "uint8"
            },
            {
              "internalType": "enum BusinessDayConvention",
              "name": "businessDayConvention",
              "type": "uint8"
            },
            {
              "internalType": "enum EndOfMonthConvention",
              "name": "endOfMonthConvention",
              "type": "uint8"
            },
            {
              "internalType": "enum FeeBasis",
              "name": "feeBasis",
              "type": "uint8"
            },
            {
              "internalType": "enum ContractPerformance",
              "name": "creditEventTypeCovered",
              "type": "uint8"
            },
            {
              "internalType": "address",
              "name": "currency",
              "type": "address"
            },
            {
              "internalType": "address",
              "name": "settlementCurrency",
              "type": "address"
            },
            {
              "internalType": "uint256",
              "name": "statusDate",
              "type": "uint256"
            },
            {
              "internalType": "uint256",
              "name": "maturityDate",
              "type": "uint256"
            },
            {
              "internalType": "uint256",
              "name": "purchaseDate",
              "type": "uint256"
            },
            {
              "internalType": "uint256",
              "name": "cycleAnchorDateOfFee",
              "type": "uint256"
            },
            {
              "internalType": "int256",
              "name": "notionalPrincipal",
              "type": "int256"
            },
            {
              "internalType": "int256",
              "name": "feeAccrued",
              "type": "int256"
            },
            {
              "internalType": "int256",
              "name": "feeRate",
              "type": "int256"
            },
            {
              "internalType": "int256",
              "name": "priceAtPurchaseDate",
              "type": "int256"
            },
            {
              "internalType": "int256",
              "name": "coverageOfCreditEnhancement",
              "type": "int256"
            },
            {
              "components": [
                {
                  "internalType": "uint256",
                  "name": "i",
                  "type": "uint256"
                },
                {
                  "internalType": "enum P",
                  "name": "p",
                  "type": "uint8"
                },
                {
                  "internalType": "bool",
                  "name": "isSet",
                  "type": "bool"
                }
              ],
              "internalType": "struct IP",
              "name": "gracePeriod",
              "type": "tuple"
            },
            {
              "components": [
                {
                  "internalType": "uint256",
                  "name": "i",
                  "type": "uint256"
                },
                {
                  "internalType": "enum P",
                  "name": "p",
                  "type": "uint8"
                },
                {
                  "internalType": "bool",
                  "name": "isSet",
                  "type": "bool"
                }
              ],
              "internalType": "struct IP",
              "name": "delinquencyPeriod",
              "type": "tuple"
            },
            {
              "components": [
                {
                  "internalType": "uint256",
                  "name": "i",
                  "type": "uint256"
                },
                {
                  "internalType": "enum P",
                  "name": "p",
                  "type": "uint8"
                },
                {
                  "internalType": "enum S",
                  "name": "s",
                  "type": "uint8"
                },
                {
                  "internalType": "bool",
                  "name": "isSet",
                  "type": "bool"
                }
              ],
              "internalType": "struct IPS",
              "name": "cycleOfFee",
              "type": "tuple"
            },
            {
              "components": [
                {
                  "internalType": "bytes32",
                  "name": "object",
                  "type": "bytes32"
                },
                {
                  "internalType": "bytes32",
                  "name": "object2",
                  "type": "bytes32"
                },
                {
                  "internalType": "enum ContractReferenceType",
                  "name": "_type",
                  "type": "uint8"
                },
                {
                  "internalType": "enum ContractReferenceRole",
                  "name": "role",
                  "type": "uint8"
                }
              ],
              "internalType": "struct ContractReference",
              "name": "contractReference_1",
              "type": "tuple"
            },
            {
              "components": [
                {
                  "internalType": "bytes32",
                  "name": "object",
                  "type": "bytes32"
                },
                {
                  "internalType": "bytes32",
                  "name": "object2",
                  "type": "bytes32"
                },
                {
                  "internalType": "enum ContractReferenceType",
                  "name": "_type",
                  "type": "uint8"
                },
                {
                  "internalType": "enum ContractReferenceRole",
                  "name": "role",
                  "type": "uint8"
                }
              ],
              "internalType": "struct ContractReference",
              "name": "contractReference_2",
              "type": "tuple"
            }
          ],
          "internalType": "struct CEGTerms",
          "name": "terms",
          "type": "tuple"
        },
        {
          "internalType": "uint256",
          "name": "lastScheduleTime",
          "type": "uint256"
        },
        {
          "internalType": "enum EventType",
          "name": "eventType",
          "type": "uint8"
        }
      ],
      "name": "computeNextCyclicEvent",
      "outputs": [
        {
          "internalType": "bytes32",
          "name": "",
          "type": "bytes32"
        }
      ],
      "stateMutability": "pure",
      "type": "function"
    },
    {
      "inputs": [
        {
          "components": [
            {
              "internalType": "enum ContractType",
              "name": "contractType",
              "type": "uint8"
            },
            {
              "internalType": "enum Calendar",
              "name": "calendar",
              "type": "uint8"
            },
            {
              "internalType": "enum ContractRole",
              "name": "contractRole",
              "type": "uint8"
            },
            {
              "internalType": "enum DayCountConvention",
              "name": "dayCountConvention",
              "type": "uint8"
            },
            {
              "internalType": "enum BusinessDayConvention",
              "name": "businessDayConvention",
              "type": "uint8"
            },
            {
              "internalType": "enum EndOfMonthConvention",
              "name": "endOfMonthConvention",
              "type": "uint8"
            },
            {
              "internalType": "enum FeeBasis",
              "name": "feeBasis",
              "type": "uint8"
            },
            {
              "internalType": "enum ContractPerformance",
              "name": "creditEventTypeCovered",
              "type": "uint8"
            },
            {
              "internalType": "address",
              "name": "currency",
              "type": "address"
            },
            {
              "internalType": "address",
              "name": "settlementCurrency",
              "type": "address"
            },
            {
              "internalType": "uint256",
              "name": "statusDate",
              "type": "uint256"
            },
            {
              "internalType": "uint256",
              "name": "maturityDate",
              "type": "uint256"
            },
            {
              "internalType": "uint256",
              "name": "purchaseDate",
              "type": "uint256"
            },
            {
              "internalType": "uint256",
              "name": "cycleAnchorDateOfFee",
              "type": "uint256"
            },
            {
              "internalType": "int256",
              "name": "notionalPrincipal",
              "type": "int256"
            },
            {
              "internalType": "int256",
              "name": "feeAccrued",
              "type": "int256"
            },
            {
              "internalType": "int256",
              "name": "feeRate",
              "type": "int256"
            },
            {
              "internalType": "int256",
              "name": "priceAtPurchaseDate",
              "type": "int256"
            },
            {
              "internalType": "int256",
              "name": "coverageOfCreditEnhancement",
              "type": "int256"
            },
            {
              "components": [
                {
                  "internalType": "uint256",
                  "name": "i",
                  "type": "uint256"
                },
                {
                  "internalType": "enum P",
                  "name": "p",
                  "type": "uint8"
                },
                {
                  "internalType": "bool",
                  "name": "isSet",
                  "type": "bool"
                }
              ],
              "internalType": "struct IP",
              "name": "gracePeriod",
              "type": "tuple"
            },
            {
              "components": [
                {
                  "internalType": "uint256",
                  "name": "i",
                  "type": "uint256"
                },
                {
                  "internalType": "enum P",
                  "name": "p",
                  "type": "uint8"
                },
                {
                  "internalType": "bool",
                  "name": "isSet",
                  "type": "bool"
                }
              ],
              "internalType": "struct IP",
              "name": "delinquencyPeriod",
              "type": "tuple"
            },
            {
              "components": [
                {
                  "internalType": "uint256",
                  "name": "i",
                  "type": "uint256"
                },
                {
                  "internalType": "enum P",
                  "name": "p",
                  "type": "uint8"
                },
                {
                  "internalType": "enum S",
                  "name": "s",
                  "type": "uint8"
                },
                {
                  "internalType": "bool",
                  "name": "isSet",
                  "type": "bool"
                }
              ],
              "internalType": "struct IPS",
              "name": "cycleOfFee",
              "type": "tuple"
            },
            {
              "components": [
                {
                  "internalType": "bytes32",
                  "name": "object",
                  "type": "bytes32"
                },
                {
                  "internalType": "bytes32",
                  "name": "object2",
                  "type": "bytes32"
                },
                {
                  "internalType": "enum ContractReferenceType",
                  "name": "_type",
                  "type": "uint8"
                },
                {
                  "internalType": "enum ContractReferenceRole",
                  "name": "role",
                  "type": "uint8"
                }
              ],
              "internalType": "struct ContractReference",
              "name": "contractReference_1",
              "type": "tuple"
            },
            {
              "components": [
                {
                  "internalType": "bytes32",
                  "name": "object",
                  "type": "bytes32"
                },
                {
                  "internalType": "bytes32",
                  "name": "object2",
                  "type": "bytes32"
                },
                {
                  "internalType": "enum ContractReferenceType",
                  "name": "_type",
                  "type": "uint8"
                },
                {
                  "internalType": "enum ContractReferenceRole",
                  "name": "role",
                  "type": "uint8"
                }
              ],
              "internalType": "struct ContractReference",
              "name": "contractReference_2",
              "type": "tuple"
            }
          ],
          "internalType": "struct CEGTerms",
          "name": "terms",
          "type": "tuple"
        },
        {
          "internalType": "bytes32",
          "name": "lastNonCyclicEvent",
          "type": "bytes32"
        }
      ],
      "name": "computeNextNonCyclicEvent",
      "outputs": [
        {
          "internalType": "bytes32",
          "name": "",
          "type": "bytes32"
        }
      ],
      "stateMutability": "pure",
      "type": "function"
    },
    {
      "inputs": [
        {
          "components": [
            {
              "internalType": "enum ContractType",
              "name": "contractType",
              "type": "uint8"
            },
            {
              "internalType": "enum Calendar",
              "name": "calendar",
              "type": "uint8"
            },
            {
              "internalType": "enum ContractRole",
              "name": "contractRole",
              "type": "uint8"
            },
            {
              "internalType": "enum DayCountConvention",
              "name": "dayCountConvention",
              "type": "uint8"
            },
            {
              "internalType": "enum BusinessDayConvention",
              "name": "businessDayConvention",
              "type": "uint8"
            },
            {
              "internalType": "enum EndOfMonthConvention",
              "name": "endOfMonthConvention",
              "type": "uint8"
            },
            {
              "internalType": "enum FeeBasis",
              "name": "feeBasis",
              "type": "uint8"
            },
            {
              "internalType": "enum ContractPerformance",
              "name": "creditEventTypeCovered",
              "type": "uint8"
            },
            {
              "internalType": "address",
              "name": "currency",
              "type": "address"
            },
            {
              "internalType": "address",
              "name": "settlementCurrency",
              "type": "address"
            },
            {
              "internalType": "uint256",
              "name": "statusDate",
              "type": "uint256"
            },
            {
              "internalType": "uint256",
              "name": "maturityDate",
              "type": "uint256"
            },
            {
              "internalType": "uint256",
              "name": "purchaseDate",
              "type": "uint256"
            },
            {
              "internalType": "uint256",
              "name": "cycleAnchorDateOfFee",
              "type": "uint256"
            },
            {
              "internalType": "int256",
              "name": "notionalPrincipal",
              "type": "int256"
            },
            {
              "internalType": "int256",
              "name": "feeAccrued",
              "type": "int256"
            },
            {
              "internalType": "int256",
              "name": "feeRate",
              "type": "int256"
            },
            {
              "internalType": "int256",
              "name": "priceAtPurchaseDate",
              "type": "int256"
            },
            {
              "internalType": "int256",
              "name": "coverageOfCreditEnhancement",
              "type": "int256"
            },
            {
              "components": [
                {
                  "internalType": "uint256",
                  "name": "i",
                  "type": "uint256"
                },
                {
                  "internalType": "enum P",
                  "name": "p",
                  "type": "uint8"
                },
                {
                  "internalType": "bool",
                  "name": "isSet",
                  "type": "bool"
                }
              ],
              "internalType": "struct IP",
              "name": "gracePeriod",
              "type": "tuple"
            },
            {
              "components": [
                {
                  "internalType": "uint256",
                  "name": "i",
                  "type": "uint256"
                },
                {
                  "internalType": "enum P",
                  "name": "p",
                  "type": "uint8"
                },
                {
                  "internalType": "bool",
                  "name": "isSet",
                  "type": "bool"
                }
              ],
              "internalType": "struct IP",
              "name": "delinquencyPeriod",
              "type": "tuple"
            },
            {
              "components": [
                {
                  "internalType": "uint256",
                  "name": "i",
                  "type": "uint256"
                },
                {
                  "internalType": "enum P",
                  "name": "p",
                  "type": "uint8"
                },
                {
                  "internalType": "enum S",
                  "name": "s",
                  "type": "uint8"
                },
                {
                  "internalType": "bool",
                  "name": "isSet",
                  "type": "bool"
                }
              ],
              "internalType": "struct IPS",
              "name": "cycleOfFee",
              "type": "tuple"
            },
            {
              "components": [
                {
                  "internalType": "bytes32",
                  "name": "object",
                  "type": "bytes32"
                },
                {
                  "internalType": "bytes32",
                  "name": "object2",
                  "type": "bytes32"
                },
                {
                  "internalType": "enum ContractReferenceType",
                  "name": "_type",
                  "type": "uint8"
                },
                {
                  "internalType": "enum ContractReferenceRole",
                  "name": "role",
                  "type": "uint8"
                }
              ],
              "internalType": "struct ContractReference",
              "name": "contractReference_1",
              "type": "tuple"
            },
            {
              "components": [
                {
                  "internalType": "bytes32",
                  "name": "object",
                  "type": "bytes32"
                },
                {
                  "internalType": "bytes32",
                  "name": "object2",
                  "type": "bytes32"
                },
                {
                  "internalType": "enum ContractReferenceType",
                  "name": "_type",
                  "type": "uint8"
                },
                {
                  "internalType": "enum ContractReferenceRole",
                  "name": "role",
                  "type": "uint8"
                }
              ],
              "internalType": "struct ContractReference",
              "name": "contractReference_2",
              "type": "tuple"
            }
          ],
          "internalType": "struct CEGTerms",
          "name": "terms",
          "type": "tuple"
        },
        {
          "internalType": "uint256",
          "name": "segmentStart",
          "type": "uint256"
        },
        {
          "internalType": "uint256",
          "name": "segmentEnd",
          "type": "uint256"
        }
      ],
      "name": "computeNonCyclicScheduleSegment",
      "outputs": [
        {
          "internalType": "bytes32[]",
          "name": "",
          "type": "bytes32[]"
        }
      ],
      "stateMutability": "pure",
      "type": "function"
    },
    {
      "inputs": [
        {
          "components": [
            {
              "internalType": "enum ContractType",
              "name": "contractType",
              "type": "uint8"
            },
            {
              "internalType": "enum Calendar",
              "name": "calendar",
              "type": "uint8"
            },
            {
              "internalType": "enum ContractRole",
              "name": "contractRole",
              "type": "uint8"
            },
            {
              "internalType": "enum DayCountConvention",
              "name": "dayCountConvention",
              "type": "uint8"
            },
            {
              "internalType": "enum BusinessDayConvention",
              "name": "businessDayConvention",
              "type": "uint8"
            },
            {
              "internalType": "enum EndOfMonthConvention",
              "name": "endOfMonthConvention",
              "type": "uint8"
            },
            {
              "internalType": "enum FeeBasis",
              "name": "feeBasis",
              "type": "uint8"
            },
            {
              "internalType": "enum ContractPerformance",
              "name": "creditEventTypeCovered",
              "type": "uint8"
            },
            {
              "internalType": "address",
              "name": "currency",
              "type": "address"
            },
            {
              "internalType": "address",
              "name": "settlementCurrency",
              "type": "address"
            },
            {
              "internalType": "uint256",
              "name": "statusDate",
              "type": "uint256"
            },
            {
              "internalType": "uint256",
              "name": "maturityDate",
              "type": "uint256"
            },
            {
              "internalType": "uint256",
              "name": "purchaseDate",
              "type": "uint256"
            },
            {
              "internalType": "uint256",
              "name": "cycleAnchorDateOfFee",
              "type": "uint256"
            },
            {
              "internalType": "int256",
              "name": "notionalPrincipal",
              "type": "int256"
            },
            {
              "internalType": "int256",
              "name": "feeAccrued",
              "type": "int256"
            },
            {
              "internalType": "int256",
              "name": "feeRate",
              "type": "int256"
            },
            {
              "internalType": "int256",
              "name": "priceAtPurchaseDate",
              "type": "int256"
            },
            {
              "internalType": "int256",
              "name": "coverageOfCreditEnhancement",
              "type": "int256"
            },
            {
              "components": [
                {
                  "internalType": "uint256",
                  "name": "i",
                  "type": "uint256"
                },
                {
                  "internalType": "enum P",
                  "name": "p",
                  "type": "uint8"
                },
                {
                  "internalType": "bool",
                  "name": "isSet",
                  "type": "bool"
                }
              ],
              "internalType": "struct IP",
              "name": "gracePeriod",
              "type": "tuple"
            },
            {
              "components": [
                {
                  "internalType": "uint256",
                  "name": "i",
                  "type": "uint256"
                },
                {
                  "internalType": "enum P",
                  "name": "p",
                  "type": "uint8"
                },
                {
                  "internalType": "bool",
                  "name": "isSet",
                  "type": "bool"
                }
              ],
              "internalType": "struct IP",
              "name": "delinquencyPeriod",
              "type": "tuple"
            },
            {
              "components": [
                {
                  "internalType": "uint256",
                  "name": "i",
                  "type": "uint256"
                },
                {
                  "internalType": "enum P",
                  "name": "p",
                  "type": "uint8"
                },
                {
                  "internalType": "enum S",
                  "name": "s",
                  "type": "uint8"
                },
                {
                  "internalType": "bool",
                  "name": "isSet",
                  "type": "bool"
                }
              ],
              "internalType": "struct IPS",
              "name": "cycleOfFee",
              "type": "tuple"
            },
            {
              "components": [
                {
                  "internalType": "bytes32",
                  "name": "object",
                  "type": "bytes32"
                },
                {
                  "internalType": "bytes32",
                  "name": "object2",
                  "type": "bytes32"
                },
                {
                  "internalType": "enum ContractReferenceType",
                  "name": "_type",
                  "type": "uint8"
                },
                {
                  "internalType": "enum ContractReferenceRole",
                  "name": "role",
                  "type": "uint8"
                }
              ],
              "internalType": "struct ContractReference",
              "name": "contractReference_1",
              "type": "tuple"
            },
            {
              "components": [
                {
                  "internalType": "bytes32",
                  "name": "object",
                  "type": "bytes32"
                },
                {
                  "internalType": "bytes32",
                  "name": "object2",
                  "type": "bytes32"
                },
                {
                  "internalType": "enum ContractReferenceType",
                  "name": "_type",
                  "type": "uint8"
                },
                {
                  "internalType": "enum ContractReferenceRole",
                  "name": "role",
                  "type": "uint8"
                }
              ],
              "internalType": "struct ContractReference",
              "name": "contractReference_2",
              "type": "tuple"
            }
          ],
          "internalType": "struct CEGTerms",
          "name": "terms",
          "type": "tuple"
        },
        {
          "components": [
            {
              "internalType": "enum ContractPerformance",
              "name": "contractPerformance",
              "type": "uint8"
            },
            {
              "internalType": "uint256",
              "name": "statusDate",
              "type": "uint256"
            },
            {
              "internalType": "uint256",
              "name": "nonPerformingDate",
              "type": "uint256"
            },
            {
              "internalType": "uint256",
              "name": "maturityDate",
              "type": "uint256"
            },
            {
              "internalType": "uint256",
              "name": "exerciseDate",
              "type": "uint256"
            },
            {
              "internalType": "uint256",
              "name": "terminationDate",
              "type": "uint256"
            },
            {
              "internalType": "int256",
              "name": "notionalPrincipal",
              "type": "int256"
            },
            {
              "internalType": "int256",
              "name": "feeAccrued",
              "type": "int256"
            },
            {
              "internalType": "int256",
              "name": "exerciseAmount",
              "type": "int256"
            }
          ],
          "internalType": "struct CEGState",
          "name": "state",
          "type": "tuple"
        },
        {
          "internalType": "bytes32",
          "name": "_event",
          "type": "bytes32"
        },
        {
          "internalType": "bytes",
          "name": "externalData",
          "type": "bytes"
        }
      ],
      "name": "computePayoffForEvent",
      "outputs": [
        {
          "internalType": "int256",
          "name": "",
          "type": "int256"
        }
      ],
      "stateMutability": "pure",
      "type": "function"
    },
    {
      "inputs": [
        {
          "components": [
            {
              "internalType": "enum ContractType",
              "name": "contractType",
              "type": "uint8"
            },
            {
              "internalType": "enum Calendar",
              "name": "calendar",
              "type": "uint8"
            },
            {
              "internalType": "enum ContractRole",
              "name": "contractRole",
              "type": "uint8"
            },
            {
              "internalType": "enum DayCountConvention",
              "name": "dayCountConvention",
              "type": "uint8"
            },
            {
              "internalType": "enum BusinessDayConvention",
              "name": "businessDayConvention",
              "type": "uint8"
            },
            {
              "internalType": "enum EndOfMonthConvention",
              "name": "endOfMonthConvention",
              "type": "uint8"
            },
            {
              "internalType": "enum FeeBasis",
              "name": "feeBasis",
              "type": "uint8"
            },
            {
              "internalType": "enum ContractPerformance",
              "name": "creditEventTypeCovered",
              "type": "uint8"
            },
            {
              "internalType": "address",
              "name": "currency",
              "type": "address"
            },
            {
              "internalType": "address",
              "name": "settlementCurrency",
              "type": "address"
            },
            {
              "internalType": "uint256",
              "name": "statusDate",
              "type": "uint256"
            },
            {
              "internalType": "uint256",
              "name": "maturityDate",
              "type": "uint256"
            },
            {
              "internalType": "uint256",
              "name": "purchaseDate",
              "type": "uint256"
            },
            {
              "internalType": "uint256",
              "name": "cycleAnchorDateOfFee",
              "type": "uint256"
            },
            {
              "internalType": "int256",
              "name": "notionalPrincipal",
              "type": "int256"
            },
            {
              "internalType": "int256",
              "name": "feeAccrued",
              "type": "int256"
            },
            {
              "internalType": "int256",
              "name": "feeRate",
              "type": "int256"
            },
            {
              "internalType": "int256",
              "name": "priceAtPurchaseDate",
              "type": "int256"
            },
            {
              "internalType": "int256",
              "name": "coverageOfCreditEnhancement",
              "type": "int256"
            },
            {
              "components": [
                {
                  "internalType": "uint256",
                  "name": "i",
                  "type": "uint256"
                },
                {
                  "internalType": "enum P",
                  "name": "p",
                  "type": "uint8"
                },
                {
                  "internalType": "bool",
                  "name": "isSet",
                  "type": "bool"
                }
              ],
              "internalType": "struct IP",
              "name": "gracePeriod",
              "type": "tuple"
            },
            {
              "components": [
                {
                  "internalType": "uint256",
                  "name": "i",
                  "type": "uint256"
                },
                {
                  "internalType": "enum P",
                  "name": "p",
                  "type": "uint8"
                },
                {
                  "internalType": "bool",
                  "name": "isSet",
                  "type": "bool"
                }
              ],
              "internalType": "struct IP",
              "name": "delinquencyPeriod",
              "type": "tuple"
            },
            {
              "components": [
                {
                  "internalType": "uint256",
                  "name": "i",
                  "type": "uint256"
                },
                {
                  "internalType": "enum P",
                  "name": "p",
                  "type": "uint8"
                },
                {
                  "internalType": "enum S",
                  "name": "s",
                  "type": "uint8"
                },
                {
                  "internalType": "bool",
                  "name": "isSet",
                  "type": "bool"
                }
              ],
              "internalType": "struct IPS",
              "name": "cycleOfFee",
              "type": "tuple"
            },
            {
              "components": [
                {
                  "internalType": "bytes32",
                  "name": "object",
                  "type": "bytes32"
                },
                {
                  "internalType": "bytes32",
                  "name": "object2",
                  "type": "bytes32"
                },
                {
                  "internalType": "enum ContractReferenceType",
                  "name": "_type",
                  "type": "uint8"
                },
                {
                  "internalType": "enum ContractReferenceRole",
                  "name": "role",
                  "type": "uint8"
                }
              ],
              "internalType": "struct ContractReference",
              "name": "contractReference_1",
              "type": "tuple"
            },
            {
              "components": [
                {
                  "internalType": "bytes32",
                  "name": "object",
                  "type": "bytes32"
                },
                {
                  "internalType": "bytes32",
                  "name": "object2",
                  "type": "bytes32"
                },
                {
                  "internalType": "enum ContractReferenceType",
                  "name": "_type",
                  "type": "uint8"
                },
                {
                  "internalType": "enum ContractReferenceRole",
                  "name": "role",
                  "type": "uint8"
                }
              ],
              "internalType": "struct ContractReference",
              "name": "contractReference_2",
              "type": "tuple"
            }
          ],
          "internalType": "struct CEGTerms",
          "name": "terms",
          "type": "tuple"
        },
        {
          "components": [
            {
              "internalType": "enum ContractPerformance",
              "name": "contractPerformance",
              "type": "uint8"
            },
            {
              "internalType": "uint256",
              "name": "statusDate",
              "type": "uint256"
            },
            {
              "internalType": "uint256",
              "name": "nonPerformingDate",
              "type": "uint256"
            },
            {
              "internalType": "uint256",
              "name": "maturityDate",
              "type": "uint256"
            },
            {
              "internalType": "uint256",
              "name": "exerciseDate",
              "type": "uint256"
            },
            {
              "internalType": "uint256",
              "name": "terminationDate",
              "type": "uint256"
            },
            {
              "internalType": "int256",
              "name": "notionalPrincipal",
              "type": "int256"
            },
            {
              "internalType": "int256",
              "name": "feeAccrued",
              "type": "int256"
            },
            {
              "internalType": "int256",
              "name": "exerciseAmount",
              "type": "int256"
            }
          ],
          "internalType": "struct CEGState",
          "name": "state",
          "type": "tuple"
        },
        {
          "internalType": "bytes32",
          "name": "_event",
          "type": "bytes32"
        },
        {
          "internalType": "bytes",
          "name": "externalData",
          "type": "bytes"
        }
      ],
      "name": "computeStateForEvent",
      "outputs": [
        {
          "components": [
            {
              "internalType": "enum ContractPerformance",
              "name": "contractPerformance",
              "type": "uint8"
            },
            {
              "internalType": "uint256",
              "name": "statusDate",
              "type": "uint256"
            },
            {
              "internalType": "uint256",
              "name": "nonPerformingDate",
              "type": "uint256"
            },
            {
              "internalType": "uint256",
              "name": "maturityDate",
              "type": "uint256"
            },
            {
              "internalType": "uint256",
              "name": "exerciseDate",
              "type": "uint256"
            },
            {
              "internalType": "uint256",
              "name": "terminationDate",
              "type": "uint256"
            },
            {
              "internalType": "int256",
              "name": "notionalPrincipal",
              "type": "int256"
            },
            {
              "internalType": "int256",
              "name": "feeAccrued",
              "type": "int256"
            },
            {
              "internalType": "int256",
              "name": "exerciseAmount",
              "type": "int256"
            }
          ],
          "internalType": "struct CEGState",
          "name": "",
          "type": "tuple"
        }
      ],
      "stateMutability": "pure",
      "type": "function"
    },
    {
      "inputs": [],
      "name": "contractType",
      "outputs": [
        {
          "internalType": "enum ContractType",
          "name": "",
          "type": "uint8"
        }
      ],
      "stateMutability": "pure",
      "type": "function"
    },
    {
      "inputs": [
        {
          "internalType": "bytes32",
          "name": "_event",
          "type": "bytes32"
        }
      ],
      "name": "decodeEvent",
      "outputs": [
        {
          "internalType": "enum EventType",
          "name": "",
          "type": "uint8"
        },
        {
          "internalType": "uint256",
          "name": "",
          "type": "uint256"
        }
      ],
      "stateMutability": "pure",
      "type": "function"
    },
    {
      "inputs": [
        {
          "internalType": "enum EventType",
          "name": "eventType",
          "type": "uint8"
        },
        {
          "internalType": "uint256",
          "name": "scheduleTime",
          "type": "uint256"
        }
      ],
      "name": "encodeEvent",
      "outputs": [
        {
          "internalType": "bytes32",
          "name": "",
          "type": "bytes32"
        }
      ],
      "stateMutability": "pure",
      "type": "function"
    },
    {
      "inputs": [
        {
          "internalType": "enum EventType",
          "name": "eventType",
          "type": "uint8"
        }
      ],
      "name": "getEpochOffset",
      "outputs": [
        {
          "internalType": "uint256",
          "name": "",
          "type": "uint256"
        }
      ],
      "stateMutability": "pure",
      "type": "function"
    },
    {
      "inputs": [
        {
          "internalType": "bytes32",
          "name": "_event",
          "type": "bytes32"
        },
        {
          "components": [
            {
              "internalType": "enum ContractType",
              "name": "contractType",
              "type": "uint8"
            },
            {
              "internalType": "enum Calendar",
              "name": "calendar",
              "type": "uint8"
            },
            {
              "internalType": "enum ContractRole",
              "name": "contractRole",
              "type": "uint8"
            },
            {
              "internalType": "enum DayCountConvention",
              "name": "dayCountConvention",
              "type": "uint8"
            },
            {
              "internalType": "enum BusinessDayConvention",
              "name": "businessDayConvention",
              "type": "uint8"
            },
            {
              "internalType": "enum EndOfMonthConvention",
              "name": "endOfMonthConvention",
              "type": "uint8"
            },
            {
              "internalType": "enum FeeBasis",
              "name": "feeBasis",
              "type": "uint8"
            },
            {
              "internalType": "enum ContractPerformance",
              "name": "creditEventTypeCovered",
              "type": "uint8"
            },
            {
              "internalType": "address",
              "name": "currency",
              "type": "address"
            },
            {
              "internalType": "address",
              "name": "settlementCurrency",
              "type": "address"
            },
            {
              "internalType": "uint256",
              "name": "statusDate",
              "type": "uint256"
            },
            {
              "internalType": "uint256",
              "name": "maturityDate",
              "type": "uint256"
            },
            {
              "internalType": "uint256",
              "name": "purchaseDate",
              "type": "uint256"
            },
            {
              "internalType": "uint256",
              "name": "cycleAnchorDateOfFee",
              "type": "uint256"
            },
            {
              "internalType": "int256",
              "name": "notionalPrincipal",
              "type": "int256"
            },
            {
              "internalType": "int256",
              "name": "feeAccrued",
              "type": "int256"
            },
            {
              "internalType": "int256",
              "name": "feeRate",
              "type": "int256"
            },
            {
              "internalType": "int256",
              "name": "priceAtPurchaseDate",
              "type": "int256"
            },
            {
              "internalType": "int256",
              "name": "coverageOfCreditEnhancement",
              "type": "int256"
            },
            {
              "components": [
                {
                  "internalType": "uint256",
                  "name": "i",
                  "type": "uint256"
                },
                {
                  "internalType": "enum P",
                  "name": "p",
                  "type": "uint8"
                },
                {
                  "internalType": "bool",
                  "name": "isSet",
                  "type": "bool"
                }
              ],
              "internalType": "struct IP",
              "name": "gracePeriod",
              "type": "tuple"
            },
            {
              "components": [
                {
                  "internalType": "uint256",
                  "name": "i",
                  "type": "uint256"
                },
                {
                  "internalType": "enum P",
                  "name": "p",
                  "type": "uint8"
                },
                {
                  "internalType": "bool",
                  "name": "isSet",
                  "type": "bool"
                }
              ],
              "internalType": "struct IP",
              "name": "delinquencyPeriod",
              "type": "tuple"
            },
            {
              "components": [
                {
                  "internalType": "uint256",
                  "name": "i",
                  "type": "uint256"
                },
                {
                  "internalType": "enum P",
                  "name": "p",
                  "type": "uint8"
                },
                {
                  "internalType": "enum S",
                  "name": "s",
                  "type": "uint8"
                },
                {
                  "internalType": "bool",
                  "name": "isSet",
                  "type": "bool"
                }
              ],
              "internalType": "struct IPS",
              "name": "cycleOfFee",
              "type": "tuple"
            },
            {
              "components": [
                {
                  "internalType": "bytes32",
                  "name": "object",
                  "type": "bytes32"
                },
                {
                  "internalType": "bytes32",
                  "name": "object2",
                  "type": "bytes32"
                },
                {
                  "internalType": "enum ContractReferenceType",
                  "name": "_type",
                  "type": "uint8"
                },
                {
                  "internalType": "enum ContractReferenceRole",
                  "name": "role",
                  "type": "uint8"
                }
              ],
              "internalType": "struct ContractReference",
              "name": "contractReference_1",
              "type": "tuple"
            },
            {
              "components": [
                {
                  "internalType": "bytes32",
                  "name": "object",
                  "type": "bytes32"
                },
                {
                  "internalType": "bytes32",
                  "name": "object2",
                  "type": "bytes32"
                },
                {
                  "internalType": "enum ContractReferenceType",
                  "name": "_type",
                  "type": "uint8"
                },
                {
                  "internalType": "enum ContractReferenceRole",
                  "name": "role",
                  "type": "uint8"
                }
              ],
              "internalType": "struct ContractReference",
              "name": "contractReference_2",
              "type": "tuple"
            }
          ],
          "internalType": "struct CEGTerms",
          "name": "",
          "type": "tuple"
        },
        {
          "components": [
            {
              "internalType": "enum ContractPerformance",
              "name": "contractPerformance",
              "type": "uint8"
            },
            {
              "internalType": "uint256",
              "name": "statusDate",
              "type": "uint256"
            },
            {
              "internalType": "uint256",
              "name": "nonPerformingDate",
              "type": "uint256"
            },
            {
              "internalType": "uint256",
              "name": "maturityDate",
              "type": "uint256"
            },
            {
              "internalType": "uint256",
              "name": "exerciseDate",
              "type": "uint256"
            },
            {
              "internalType": "uint256",
              "name": "terminationDate",
              "type": "uint256"
            },
            {
              "internalType": "int256",
              "name": "notionalPrincipal",
              "type": "int256"
            },
            {
              "internalType": "int256",
              "name": "feeAccrued",
              "type": "int256"
            },
            {
              "internalType": "int256",
              "name": "exerciseAmount",
              "type": "int256"
            }
          ],
          "internalType": "struct CEGState",
          "name": "state",
          "type": "tuple"
        },
        {
          "components": [
            {
              "internalType": "int256",
              "name": "exerciseAmount",
              "type": "int256"
            },
            {
              "internalType": "bool",
              "name": "isSet",
              "type": "bool"
            }
          ],
          "internalType": "struct UnderlyingState",
          "name": "underlyingState",
          "type": "tuple"
        }
      ],
      "name": "isEventScheduled",
      "outputs": [
        {
          "internalType": "bool",
          "name": "",
          "type": "bool"
        }
      ],
      "stateMutability": "pure",
      "type": "function"
    },
    {
      "inputs": [
        {
          "internalType": "uint256",
          "name": "timestamp",
          "type": "uint256"
        },
        {
          "internalType": "enum BusinessDayConvention",
          "name": "convention",
          "type": "uint8"
        },
        {
          "internalType": "enum Calendar",
          "name": "calendar",
          "type": "uint8"
        },
        {
          "internalType": "uint256",
          "name": "maturityDate",
          "type": "uint256"
        }
      ],
      "name": "shiftCalcTime",
      "outputs": [
        {
          "internalType": "uint256",
          "name": "",
          "type": "uint256"
        }
      ],
      "stateMutability": "pure",
      "type": "function"
    },
    {
      "inputs": [
        {
          "internalType": "uint256",
          "name": "timestamp",
          "type": "uint256"
        },
        {
          "internalType": "enum BusinessDayConvention",
          "name": "convention",
          "type": "uint8"
        },
        {
          "internalType": "enum Calendar",
          "name": "calendar",
          "type": "uint8"
        },
        {
          "internalType": "uint256",
          "name": "maturityDate",
          "type": "uint256"
        }
      ],
      "name": "shiftEventTime",
      "outputs": [
        {
          "internalType": "uint256",
          "name": "",
          "type": "uint256"
        }
      ],
      "stateMutability": "pure",
      "type": "function"
    }
  ],
  "transactionHash": "0x8139f6e9fb9ea951eebcb0cb3b4c704d086acf50a144f5da763933d01faf612e",
  "args": [],
  "solcInputHash": "37e2a100a6f868553298dee57e286371",
  "bytecode": "0x608060405234801561001057600080fd5b5061374f806100206000396000f3fe608060405234801561001057600080fd5b506004361061012c5760003560e01c8063cb2ef6f7116100ad578063edc0465f11610071578063edc0465f14610211578063f146ef041461027a578063f21efac21461029a578063f5586e05146102ad578063ffe523e6146102c05761012c565b8063cb2ef6f714610219578063d793ec651461022e578063e05a66e014610241578063e726d68014610254578063ec58d60f146102675761012c565b806372540003116100f457806372540003146101b5578063811322fb146101d65780639a90ea0d146101e9578063aaf5eb6814610209578063c40c5a98146102115761012c565b8063179331f3146101315780631a2e165d1461015a57806348a7a4e11461017a5780635a25a5701461019a5780636f37e55b146101ad575b600080fd5b61014461013f366004612d70565b6102d3565b604051610151919061323b565b60405180910390f35b61016d610168366004612c7e565b6103a3565b604051610151919061321e565b61018d610188366004612fc6565b6103ca565b60405161015191906131cf565b61016d6101a8366004612ebe565b61055b565b61016d61063a565b6101c86101c3366004612c66565b610646565b604051610151929190613249565b61016d6101e4366004612dae565b61066f565b6101fc6101f7366004612ebe565b610685565b604051610151919061346c565b61016d6106b6565b61016d6106bb565b6102216106c0565b6040516101519190613227565b61018d61023c366004612f90565b6106c5565b61016d61024f366004612dc8565b6107f1565b61016d6102623660046131ba565b610811565b61016d610275366004612f5a565b610964565b61028d610288366004612cc3565b6109ef565b6040516101519190613213565b6101fc6102a8366004612e76565b610ace565b61016d6102bb3660046131ba565b610b35565b61016d6102ce366004612e92565b610ba0565b600060018460018111156102e357fe5b141561035f576102f283610c9e565b6102fb84610cc0565b14801561034a575060028260200151600581111561031557fe5b1480610330575060038260200151600581111561032e57fe5b145b8061034a575060048260200151600581111561034857fe5b145b156103575750600161039c565b50600061039c565b600084600181111561036d57fe5b141561037b5750600061039c565b60405162461bcd60e51b8152600401610393906133ab565b60405180910390fd5b9392505050565b6000806103af86610646565b9150506103be81868686610811565b9150505b949350505050565b60606103d46129c9565b600060058460218111156103e457fe5b14156104ce576101a0870135156104ce576103fd6129c9565b6104386101a08901356101608a013561041f368c90038c016103208d0161319f565b61042f60c08d0160a08e01612d54565b60018c8c610ccf565b905060005b60788160ff1610156104cb57818160ff166078811061045857fe5b6020020151610466576104cb565b610484828260ff166078811061047857fe5b60200201518989610eb7565b61048d576104c3565b6104ab6005838360ff16607881106104a157fe5b60200201516107f1565b8484607881106104b757fe5b60200201526001909201915b60010161043d565b50505b60608167ffffffffffffffff811180156104e757600080fd5b50604051908082528060200260200182016040528015610511578160200160208202803683370190505b50905060005b8281101561054f5783816078811061052b57fe5b602002015182828151811061053c57fe5b6020908102919091010152600101610517565b50979650505050505050565b60008061057061014088016101208901612c32565b6001600160a01b0316141580156105bb575061059461014087016101208801612c32565b6001600160a01b03166105af61012088016101008901612c32565b6001600160a01b031614155b15610605576105fe6105cf83850185612c66565b6105f86105e1368a90038a018a613010565b6105f0368a90038a018a612df1565b888888610ee6565b90610fb9565b9050610631565b61062e61061736889003880188613010565b61062636889003880188612df1565b868686610ee6565b90505b95945050505050565b670de0b6b3a764000081565b6000808060f884901c602181111561065a57fe5b92505067ffffffffffffffff83169050915091565b600081602181111561067d57fe5b90505b919050565b61068d6129e8565b61062e61069f36889003880188613010565b6106ae36889003880188612df1565b8686866110b4565b601281565b607881565b601090565b60606106cf6129c9565b60006101808601351561071a576106ec8661018001358686610eb7565b1561071a5761070160048761018001356107f1565b828261ffff166078811061071157fe5b60200201526001015b61072a8661016001358686610eb7565b15156001141561075d5761074460208761016001356107f1565b828261ffff166078811061075457fe5b60200201526001015b60608161ffff1667ffffffffffffffff8111801561077a57600080fd5b506040519080825280602002602001820160405280156107a4578160200160208202803683370190505b50905060005b8261ffff168110156107e6578381607881106107c257fe5b60200201518282815181106107d357fe5b60209081029190910101526001016107aa565b509695505050505050565b60008160f884602181111561080257fe5b60ff16901b1790505b92915050565b6000818514156108225750836103c2565b600184600881111561083057fe5b14806108475750600384600881111561084557fe5b145b1561085d57610856858461118a565b90506103c2565b600284600881111561086b57fe5b14806108825750600484600881111561088057fe5b145b156108c6576000610893868561118a565b905061089e866111e6565b6108a7826111e6565b14156108b45790506103c2565b6108be86856111fd565b9150506103c2565b60058460088111156108d457fe5b14806108eb575060078460088111156108e957fe5b145b156108fa5761085685846111fd565b600684600881111561090857fe5b148061091f5750600884600881111561091d57fe5b145b1561095b57600061093086856111fd565b905061093b866111e6565b610944826111e6565b14156109515790506103c2565b6108be868561118a565b50929392505050565b6000600582602181111561097457fe5b14156109e5576101a0840135156109e55760006109c161099d368790038701610320880161319f565b6109ad60c0880160a08901612d54565b876101a001358760018a610160013561124b565b9050806109d257506000905061039c565b6109dd6005826107f1565b91505061039c565b5060009392505050565b60006003610a006020850185612d1e565b6005811115610a0b57fe5b1480610a2e57506004610a216020850185612d1e565b6005811115610a2c57fe5b145b80610a5057506005610a436020850185612d1e565b6005811115610a4e57fe5b145b15610a5d575060006103c2565b610a6d6040830160208401612c4c565b15610ac3576000610a7d86610646565b5090506005816021811115610a8e57fe5b1480610aa557506020816021811115610aa357fe5b145b8015610ab2575060008335135b15610ac15760009150506103c2565b505b506001949350505050565b610ad66129e8565b610ade6129e8565b6000815261014083013560208201526101608301356060808301919091526101c084013590610b1b90610b1690860160408701612d3a565b611312565b60000b0260c08201526101e0929092013560e08301525090565b60006003846008811115610b4557fe5b1480610b5c57506004846008811115610b5a57fe5b145b80610b7257506007846008811115610b7057fe5b145b80610b8857506008846008811115610b8657fe5b145b15610b945750836103c2565b61063185858585610811565b6000806000610bae84610646565b91509150600080866101800135600014158015610bd057508661018001358311155b8015610be85750801580610be8575080876101800135105b8015610c0f575086610180013583141580610c0f57506004846021811115610c0c57fe5b14155b15610c205750600490506101808601355b61016087013515801590610c3957508661016001358311155b8015610c515750801580610c51575080876101600135105b8015610c78575086610160013583141580610c7857506020846021811115610c7557fe5b14155b15610c895750602090506101608601355b610c9382826107f1565b979650505050505050565b60008080610cb162015180855b046113f5565b50915091506103c2828261148b565b60006103c26201518083610cab565b610cd76129c9565b610cdf6129c9565b6060870151600090610d4757610cf68a8686610eb7565b15610d115789828260788110610d0857fe5b60200201526001015b610d1c898686610eb7565b15610d3f5760018615151415610d3f5788828260788110610d3957fe5b60200201525b509050610c93565b89600080610d568a848d6102d3565b90505b8b831015610deb57610d6c838989610eb7565b15610daa5760768410610d915760405162461bcd60e51b81526004016103939061335b565b82858560788110610d9e57fe5b60200201526001909301925b600191820191816001811115610dbc57fe5b14610dd157610dcc8b8e84611511565b610de4565b610de4610ddf8c8f85611511565b61164b565b9250610d59565b60018915151415610e1957610e018c8989610eb7565b15610e19578b858560788110610e1357fe5b60200201525b600084118015610e365750610e3685600186036078811061047857fe5b15610ea65760008b604001516001811115610e4d57fe5b148015610e5a5750600184115b8015610e665750828c14155b15610ea657848460788110610e7757fe5b6020020151856001860360788110610e8b57fe5b6020020152848460788110610e9c57fe5b6020020160008152505b50929b9a5050505050505050505050565b600081831115610ec95750600061039c565b838311158015610ed95750818411155b156109e55750600161039c565b6000806000610ef486610646565b90925090506001826021811115610f0757fe5b1415610f1857600092505050610631565b6005826021811115610f2657fe5b1415610f4257610f39888883888861167a565b92505050610631565b6019826021811115610f5057fe5b1415610f6157600092505050610631565b601a826021811115610f6f57fe5b1415610f8257610f39888883888861176b565b6020826021811115610f9057fe5b1415610fa157600092505050610631565b60405162461bcd60e51b815260040161039390613261565b6000821580610fc6575081155b15610fd35750600061080b565b82600019148015610fe75750600160ff1b82145b156110235760405162461bcd60e51b81526004018080602001828103825260278152602001806135e56027913960400191505060405180910390fd5b8282028284828161103057fe5b051461106d5760405162461bcd60e51b81526004018080602001828103825260278152602001806135e56027913960400191505060405180910390fd5b670de0b6b3a76400008105806103c25760405162461bcd60e51b815260040180806020018281038252603281526020018061355e6032913960400191505060405180910390fd5b6110bc6129e8565b6000806110c886610646565b909250905060058260218111156110db57fe5b14156110ee57610f398888838888611789565b60198260218111156110fc57fe5b141561110f57610f3988888388886117de565b601a82602181111561111d57fe5b141561113057610f3988888388886118d2565b602082602181111561113e57fe5b141561115157610f398888838888611909565b600182602181111561115f57fe5b141561117257610f398888838888611920565b60405162461bcd60e51b815260040161039390613416565b6000600182600181111561119a57fe5b14156111df576111a983611a18565b600614156111c3576111bc836002611a2b565b905061080b565b6111cc83611a18565b600714156111df576111bc836001611a2b565b5090919050565b60006111f56201518083610cab565b509392505050565b6000600182600181111561120d57fe5b14156111df5761121c83611a18565b6006141561122f576111bc836001611a40565b61123883611a18565b600714156111df576111bc836002611a40565b6060860151600090158061125d575083155b15611269575083611308565b6000600161127888888b6102d3565b600181111561128357fe5b146112995761129488866001611511565b6112a8565b6112a8610ddf89876001611511565b90508380156112b657508215155b156112de57828514156112cd576000915050611308565b828111156112de5782915050611308565b831580156112eb57508215155b80156112f657508281145b15611305576000915050611308565b90505b9695505050505050565b60008082600c81111561132157fe5b141561132f57506001610680565b600182600c81111561133d57fe5b141561134c5750600019610680565b600682600c81111561135a57fe5b141561136857506001610680565b600782600c81111561137657fe5b14156113855750600019610680565b600282600c81111561139357fe5b14156113a157506001610680565b600382600c8111156113af57fe5b14156113be5750600019610680565b60405162461bcd60e51b81526004018080602001828103825260348152602001806135b16034913960400191505060405180910390fd5b60008080836226496581018262023ab1600483020590506004600362023ab18302010590910390600062164b09610fa0600185010205905060046105b58202058303601f019250600061098f846050028161144c57fe5b0590506000605061098f83020585039050600b820560301994909401606402929092018301996002600c90940290910392909201975095509350505050565b6000816001148061149c5750816003145b806114a75750816005145b806114b25750816007145b806114bd5750816008145b806114c8575081600a145b806114d3575081600c145b156114e05750601f61080b565b816002146114f05750601e61080b565b6114f983611a55565b61150457601c611507565b601d5b60ff169392505050565b600080808560200151600581111561152557fe5b14156115425784516108569061153b9085611a7a565b8590611a2b565b60018560200151600581111561155457fe5b14156115775784516108569061153b908590611571906007611a7a565b90611a7a565b60028560200151600581111561158957fe5b14156115a65784516108569061159f9085611a7a565b8590611ad3565b6003856020015160058111156115b857fe5b14156115d55784516108569061159f908590611571906003611a7a565b6004856020015160058111156115e757fe5b14156116045784516108569061159f908590611571906006611a7a565b60058560200151600581111561161657fe5b14156116335784516108569061162c9085611a7a565b8590611b4d565b60405162461bcd60e51b8152600401610393906132ae565b60008060008061165a85611b74565b91945092509050600061166d848461148b565b9050611308848483611b92565b6000808660c00151600181111561168d57fe5b14156116b1578561020001516116a68760400151611312565b60000b029050610631565b60006116fc6116d3876020015189608001518a602001518b6101600151610b35565b6116ec878a608001518b602001518c6101600151610b35565b89606001518a6101600151611bac565b9050600080886101c001511361172c5761172761171b85870187612c66565b6102408a015190610fb9565b611733565b876101c001515b905061175f611754826105f88b610200015186610fb990919063ffffffff16565b60e089015190611d70565b98975050505050505050565b600061062e8560e00151866101000151611d7090919063ffffffff16565b6117916129e8565b6000866101c00151136117be576117b96117ad83850185612c66565b61024088015190610fb9565b6117c5565b856101c001515b60c08601525050600060e0840152506020820152919050565b6117e66129e8565b60006118086116d3876020015189608001518a602001518b6101600151610b35565b602087018690526101c088015190915060001261183f5761183a61182e84860186612c66565b61024089015190610fb9565b611846565b866101c001515b60c087018190526101008701526080860185905260008760c00151600181111561186c57fe5b1415611893578661020001516118858860400151611312565b60000b0260e08701526118c7565b6118c16118b68760c001516105f88a610200015185610fb990919063ffffffff16565b60e088015190611d70565b60e08701525b509395945050505050565b6118da6129e8565b600060c0860181905260e08601528460045b908160058111156118f957fe5b9052505050506020820152919050565b6119116129e8565b600060c08601528460046118ec565b6119286129e8565b60008560400151600014611940578560400151611959565b61195985886080015189602001518a6101600151610811565b9050600061196984860186612c66565b9050600088610260015160400151156119a057600061198d8a610260015185611dd5565b905080831161199e576001808a5291505b505b8861028001516040015180156119b4575080155b156119e35760006119ca8a610280015185611dd5565b90508083116119dc57600289526119e1565b600389525b505b6040880151611a0b57611a05878a608001518b602001518c6101600151610811565b60408901525b5095979650505050505050565b6007620151809091046003010660010190565b62015180810282018281101561080b57600080fd5b62015180810282038281111561080b57600080fd5b600060048206158015611a6a57506064820615155b8061067d57505061019090061590565b600082611a895750600061080b565b82820282848281611a9657fe5b041461039c5760405162461bcd60e51b81526004018080602001828103825260218152602001806136646021913960400191505060405180910390fd5b6000808080611ae56201518087610cab565b600c918801600019810183810494909401965094509250900660010191506000611b0f848461148b565b905080821115611b1d578091505b62015180870662015180611b32868686611eee565b0201945086851015611b4357600080fd5b5050505092915050565b6000808080611b5f6201518087610cab565b9187019450925090506000611b0f848461148b565b60008080611b856201518085610cab565b9196909550909350915050565b600062015180611ba3858585611eee565b02949350505050565b600084841015611bed5760405162461bcd60e51b815260040180806020018281038252602781526020018061363d6027913960400191505060405180910390fd5b600083600a811115611bfb57fe5b1415611c0b576108568585611f6a565b600183600a811115611c1957fe5b1415611c29576108568585612066565b600283600a811115611c3757fe5b1415611c47576108568585612085565b600483600a811115611c5557fe5b1415611c6557610856858561209e565b600383600a811115611c7357fe5b1415611c8457610856858584612141565b600583600a811115611c9257fe5b1415611ca3576108568585846121ff565b600683600a811115611cb157fe5b1415611cc15761085685856122c1565b600783600a811115611ccf57fe5b1415611cdf5761085685856122d0565b600883600a811115611ced57fe5b1415611cfd5761085685856122ec565b600983600a811115611d0b57fe5b1415611d1b576108568585612399565b600a83600a811115611d2957fe5b1415611d3957610856858561244c565b60405162461bcd60e51b81526004018080602001828103825260358152602001806135296035913960400191505060405180910390fd5b6000828201818312801590611d855750838112155b80611d9a5750600083128015611d9a57508381125b61039c5760405162461bcd60e51b81526004018080602001828103825260218152602001806135906021913960400191505060405180910390fd5b6000808084602001516005811115611de957fe5b1415611e03578351611dfc908490611a2b565b905061039c565b600184602001516005811115611e1557fe5b1415611e33578351611dfc90611e2c906007611a7a565b8490611a2b565b600284602001516005811115611e4557fe5b1415611e58578351611dfc908490611ad3565b600384602001516005811115611e6a57fe5b1415611e88578351611dfc90611e81906003611a7a565b8490611ad3565b600484602001516005811115611e9a57fe5b1415611eb1578351611dfc90611e81906006611a7a565b600584602001516005811115611ec357fe5b1415611ed6578351611dfc908490611b4d565b60405162461bcd60e51b8152600401610393906132fe565b60006107b2841015611eff57600080fd5b838383600062253d8c600460036064611324600c600d19890105890101050205600c80600d19870105600c02600287030361016f0281611f3b57fe5b0560046105b5600c600d1989010589016112c0010205617d4b8603010103039050809450505050509392505050565b600080611f768461250e565b90506000611f838461250e565b90506000611f9086612526565b611f9c5761016d611fa0565b61016e5b61ffff16905081831415611fcc57611fc281611fbc8888612543565b90612562565b935050505061080b565b6000611fd786612526565b611fe35761016d611fe7565b61016e5b61ffff169050600061201283611fbc8a61200d6120058a600161269a565b600180611b92565b612543565b9050600061202f83611fbc61202988600180611b92565b8b612543565b90506120596120496001612043888a6126f4565b906126f4565b6120538484611d70565b90611d70565b9998505050505050505050565b600061039c610168611fbc6201518061207f86886126f4565b90612736565b600061039c61016d611fbc6201518061207f86886126f4565b60008060008060008060006120b289611b74565b9750955093506120c188611b74565b945092509050601f8614156120d557601e95505b82601f14156120e357601e92505b60006120ef8488612778565b905060006120fd8488612778565b9050600061210b8488612778565b9050612131610168611fbc8561205361212587601e6127dd565b612053876101686127dd565b9c9b505050505050505050505050565b60008060008060008060006121558a611b74565b97509550935061216489611b74565b9450925090506121738a610c9e565b86141561217f57601e95505b878914801561218e5750816002145b1580156121a2575061219f89610c9e565b83145b156121ac57601e92505b60006121b88488612778565b905060006121c68488612778565b905060006121d48488612778565b90506121ee610168611fbc8561205361212587601e6127dd565b9d9c50505050505050505050505050565b60008060008061220e87611b74565b925092509250600080600061222289611b74565b9250925092506122318a610c9e565b84141561223d57601c93505b878914801561224c5750816002145b15801561226a575061225d8a610c9e565b81148061226a5750601c81115b156122735750601c5b600061227f8286612778565b9050600061228d8488612778565b9050600061229b868a612778565b90506121ee610150611fbc856120536122b587601c6127dd565b612053876101506127dd565b670de0b6b3a764000092915050565b600061039c670de0b6b3a764000067a688906bd8b00000612562565b6000806122f88461250e565b905060006123058461250e565b9050600061231286612526565b61231e57612238612322565b6122505b61ffff1690508183141561233e57611fc281611fbc8888612886565b600061234986612526565b61235557612238612359565b6122505b61ffff169050600061237c83611fbc8a6123776120058a600161269a565b612886565b9050600061202f83611fbc61239388600180611b92565b8b612886565b6000806123a58461250e565b905060006123b28461250e565b905060006123bf86612526565b6123cc57620805206123d1565b62080ac05b62ffffff169050818314156123ee57611fc281611fbc88886128a0565b60006123f986612526565b612406576208052061240b565b62080ac05b62ffffff169050600061242f83611fbc8a61242a6120058a600161269a565b6128a0565b9050600061202f83611fbc61244688600180611b92565b8b6128a0565b6000806124588461250e565b905060006124658461250e565b9050600061247286612526565b612480576301e13380612486565b6301e285005b63ffffffff169050818314156124a457611fc281611fbc88886128b9565b60006124af86612526565b6124bd576301e133806124c3565b6301e285005b63ffffffff16905060006124f183611fbc8a6124ec61200560018b61269a90919063ffffffff16565b6128b9565b9050600061202f83611fbc61250888600180611b92565b8b6128b9565b600061251d6201518083610cab565b50909392505050565b6000806125366201518084610cab565b5050905061039c81611a55565b60008183111561255257600080fd5b620151808383035b049392505050565b6000816125a05760405162461bcd60e51b81526004018080602001828103825260248152602001806136f66024913960400191505060405180910390fd5b826125ad5750600061080b565b670de0b6b3a7640000838102908482816125c357fe5b05146126005760405162461bcd60e51b81526004018080602001828103825260268152602001806136ac6026913960400191505060405180910390fd5b826000191480156126145750600160ff1b84145b156126505760405162461bcd60e51b81526004018080602001828103825260268152602001806136ac6026913960400191505060405180910390fd5b600083828161265b57fe5b059050806103c25760405162461bcd60e51b815260040180806020018281038252603181526020018061360c6031913960400191505060405180910390fd5b60008282018381101561039c576040805162461bcd60e51b815260206004820152601b60248201527f536166654d6174683a206164646974696f6e206f766572666c6f770000000000604482015290519081900360640190fd5b600061039c83836040518060400160405280601e81526020017f536166654d6174683a207375627472616374696f6e206f766572666c6f7700008152506128cd565b600061039c83836040518060400160405280601a81526020017f536166654d6174683a206469766973696f6e206279207a65726f000000000000815250612964565b600081830381831280159061278d5750838113155b806127a257506000831280156127a257508381135b61039c5760405162461bcd60e51b81526004018080602001828103825260248152602001806136d26024913960400191505060405180910390fd5b6000826127ec5750600061080b565b826000191480156128005750600160ff1b82145b1561283c5760405162461bcd60e51b81526004018080602001828103825260278152602001806136856027913960400191505060405180910390fd5b8282028284828161284957fe5b051461039c5760405162461bcd60e51b81526004018080602001828103825260278152602001806136856027913960400191505060405180910390fd5b60008183111561289557600080fd5b610e1083830361255a565b6000818311156128af57600080fd5b603c83830361255a565b6000818311156128c857600080fd5b500390565b6000818484111561295c5760405162461bcd60e51b81526004018080602001828103825283818151815260200191508051906020019080838360005b83811015612921578181015183820152602001612909565b50505050905090810190601f16801561294e5780820380516001836020036101000a031916815260200191505b509250505060405180910390fd5b505050900390565b600081836129b35760405162461bcd60e51b8152602060048201818152835160248401528351909283926044909101919085019080838360008315612921578181015183820152602001612909565b5060008385816129bf57fe5b0495945050505050565b60405180610f0001604052806078906020820280368337509192915050565b604080516101208101909152806000815260200160008152602001600081526020016000815260200160008152602001600081526020016000815260200160008152602001600081525090565b80356001600160a01b038116811461068057600080fd5b8035801515811461068057600080fd5b80356009811061068057600080fd5b8035610680816134fe565b80356106808161350e565b8035600d811061068057600080fd5b80356014811061068057600080fd5b8035600b811061068057600080fd5b80356022811061068057600080fd5b60006101208284031215612acf578081fd5b50919050565b60006104a08284031215612acf578081fd5b600060808284031215612af8578081fd5b6040516080810181811067ffffffffffffffff82111715612b1557fe5b806040525080915082358152602083013560208201526040830135612b398161351b565b60408201526060830135612b4c8161351b565b6060919091015292915050565b600060808284031215612b6a578081fd5b6040516080810181811067ffffffffffffffff82111715612b8757fe5b604052823581529050806020830135612b9f8161350e565b60208201526040830135612bb2816134fe565b6040820152612bc360608401612a4c565b60608201525092915050565b600060608284031215612be0578081fd5b6040516060810181811067ffffffffffffffff82111715612bfd57fe5b604052823581529050806020830135612c158161350e565b6020820152612c2660408401612a4c565b60408201525092915050565b600060208284031215612c43578081fd5b61039c82612a35565b600060208284031215612c5d578081fd5b61039c82612a4c565b600060208284031215612c77578081fd5b5035919050565b60008060008060808587031215612c93578283fd5b84359350612ca360208601612a5c565b92506040850135612cb3816134fe565b9396929550929360600135925050565b600080600080848603610620811215612cda578283fd5b85359450612ceb8760208801612ad5565b9350612cfb876104c08801612abd565b925060406105df1982011215612d0f578182fd5b509295919450926105e0019150565b600060208284031215612d2f578081fd5b813561039c8161350e565b600060208284031215612d4b578081fd5b61039c82612a81565b600060208284031215612d65578081fd5b813561039c816134fe565b600080600060c08486031215612d84578081fd5b8335612d8f816134fe565b925060208401359150612da58560408601612b59565b90509250925092565b600060208284031215612dbf578081fd5b61039c82612aae565b60008060408385031215612dda578182fd5b612de383612aae565b946020939093013593505050565b6000610120808385031215612e04578182fd5b612e0d816134da565b9050612e1883612a76565b81526020830135602082015260408301356040820152606083013560608201526080830135608082015260a083013560a082015260c083013560c082015260e083013560e08201526101008084013581830152508091505092915050565b60006104a08284031215612e88578081fd5b61039c8383612ad5565b6000806104c08385031215612ea5578182fd5b612eaf8484612ad5565b946104a0939093013593505050565b60008060008060006106008688031215612ed6578283fd5b612ee08787612ad5565b9450612ef0876104a08801612abd565b93506105c086013592506105e086013567ffffffffffffffff80821115612f15578283fd5b818801915088601f830112612f28578283fd5b813581811115612f36578384fd5b896020828501011115612f47578384fd5b9699959850939650602001949392505050565b60008060006104e08486031215612f6f578081fd5b612f798585612ad5565b92506104a08401359150612da56104c08501612aae565b60008060006104e08486031215612fa5578081fd5b612faf8585612ad5565b956104a085013595506104c0909401359392505050565b6000806000806105008587031215612fdc578182fd5b612fe68686612ad5565b93506104a085013592506104c085013591506130056104e08601612aae565b905092959194509250565b60006104a08284031215613022578081fd5b61302d6103006134da565b61303683612a90565b815261304460208401612a6b565b602082015261305560408401612a81565b604082015261306660608401612a9f565b606082015261307760808401612a5c565b608082015261308860a08401612a6b565b60a082015261309960c08401612a6b565b60c08201526130aa60e08401612a76565b60e08201526101006130bd818501612a35565b908201526101206130cf848201612a35565b908201526101408381013590820152610160808401359082015261018080840135908201526101a080840135908201526101c080840135908201526101e0808401359082015261020080840135908201526102208084013590820152610240808401359082015261026061314585828601612bcf565b908201526102c061315885858301612bcf565b61028083015261316c856103208601612b59565b6102a0830152613180856103a08601612ae7565b90820152613192846104208501612ae7565b6102e08201529392505050565b6000608082840312156131b0578081fd5b61039c8383612b59565b60008060008060808587031215612c93578182fd5b6020808252825182820181905260009190848201906040850190845b81811015613207578351835292840192918401916001016131eb565b50909695505050505050565b901515815260200190565b90815260200190565b602081016014831061323557fe5b91905290565b602081016002831061323557fe5b604081016022841061325757fe5b9281526020015290565b6020808252602d908201527f434547456e67696e652e7061796f666646756e6374696f6e3a2041545452494260408201526c15551157d393d517d193d55391609a1b606082015260800190565b60208082526030908201527f4379636c655574696c732e6765744e6578744379636c65446174653a2041545460408201526f14925095551157d393d517d193d5539160821b606082015260800190565b60208082526037908201527f506572696f645574696c732e67657454696d657374616d70506c75735065726960408201527f6f643a204154545249425554455f4e4f545f464f554e44000000000000000000606082015260800190565b60208082526030908201527f4379636c655574696c732e636f6d70757465446174657346726f6d4379636c6560408201526f3a204d41585f4359434c455f53495a4560801b606082015260800190565b60208082526045908201527f456e644f664d6f6e7468436f6e76656e74696f6e2e61646a757374456e644f6660408201527f4d6f6e7468436f6e76656e74696f6e3a204154545249425554455f4e4f545f4660608201526427aaa7221760d91b608082015260a00190565b60208082526036908201527f434547456e67696e652e73746174655472616e736974696f6e46756e6374696f6040820152751b8e8810551514925095551157d393d517d193d5539160521b606082015260800190565b81516101208201906006811061347e57fe5b808352506020830151602083015260408301516040830152606083015160608301526080830151608083015260a083015160a083015260c083015160c083015260e083015160e083015261010080840151818401525092915050565b60405181810167ffffffffffffffff811182821017156134f657fe5b604052919050565b6002811061350b57600080fd5b50565b6006811061350b57600080fd5b6005811061350b57600080fdfe446179436f756e74436f6e76656e74696f6e2e796561724672616374696f6e3a204154545249425554455f4e4f545f464f554e442e5369676e65644d6174682e666c6f61744d756c743a2043414e4e4f545f524550524553454e545f4752414e554c41524954595369676e6564536166654d6174683a206164646974696f6e206f766572666c6f77436f6e7472616374526f6c65436f6e76656e74696f6e2e726f6c655369676e3a204154545249425554455f4e4f545f464f554e445369676e65644d6174682e666c6f61744d756c743a204f564552464c4f575f44455445435445445369676e65644d6174682e666c6f61744469763a2043414e4e4f545f524550524553454e545f4752414e554c4152495459436f72652e796561724672616374696f6e3a2053544152545f4e4f545f4245464f52455f454e44536166654d6174683a206d756c7469706c69636174696f6e206f766572666c6f775369676e6564536166654d6174683a206d756c7469706c69636174696f6e206f766572666c6f775369676e65644d6174682e666c6f61744469763a204f564552464c4f575f44455445435445445369676e6564536166654d6174683a207375627472616374696f6e206f766572666c6f775369676e65644d6174682e666c6f61744469763a20444956494445445f42595f5a45524fa2646970667358221220a18bf6382e935184e08648fe5eaca74d0304009bb50ebea8237a0962ef4bba0864736f6c63430007040033",
  "devdoc": {
    "details": "All numbers except unix timestamp are represented as multiple of 10 ** 18 inputs have to be multiplied by 10 ** 18, outputs have to multplied by 10 ** -18",
    "kind": "dev",
    "methods": {
      "adjustEndOfMonthConvention(uint8,uint256,(uint256,uint8,uint8,bool))": {
        "details": "The following is considered to dertermine if schedule dates are shifted to the end of month: - The convention SD (same day) means not adjusting, EM (end of month) means adjusting - Dates are only shifted if the schedule start date is an end-of-month date - Dates are only shifted if the schedule cycle is based on an \"M\" period unit or multiple thereof",
        "params": {
          "cycle": "the cycle struct",
          "eomc": "the end of month convention to adjust",
          "startTime": "timestamp of the cycle start"
        },
        "returns": {
          "_0": "the adjusted end of month convention"
        }
      },
      "computeCyclicScheduleSegment((uint8,uint8,uint8,uint8,uint8,uint8,uint8,uint8,address,address,uint256,uint256,uint256,uint256,int256,int256,int256,int256,int256,(uint256,uint8,bool),(uint256,uint8,bool),(uint256,uint8,uint8,bool),(bytes32,bytes32,uint8,uint8),(bytes32,bytes32,uint8,uint8)),uint256,uint256,uint8)": {
        "params": {
          "eventType": "eventType of the cyclic schedule",
          "segmentEnd": "end timestamp of the segement",
          "segmentStart": "start timestamp of the segment",
          "terms": "terms of the contract"
        },
        "returns": {
          "_0": "event schedule segment"
        }
      },
      "computeEventTimeForEvent(bytes32,uint8,uint8,uint256)": {
        "details": "For optimization reasons not located in EventUtil by applying the BDC specified in the terms"
      },
      "computeInitialState((uint8,uint8,uint8,uint8,uint8,uint8,uint8,uint8,address,address,uint256,uint256,uint256,uint256,int256,int256,int256,int256,int256,(uint256,uint8,bool),(uint256,uint8,bool),(uint256,uint8,uint8,bool),(bytes32,bytes32,uint8,uint8),(bytes32,bytes32,uint8,uint8)))": {
        "params": {
          "terms": "terms of the contract"
        },
        "returns": {
          "_0": "initial state of the contract"
        }
      },
      "computeNextCyclicEvent((uint8,uint8,uint8,uint8,uint8,uint8,uint8,uint8,address,address,uint256,uint256,uint256,uint256,int256,int256,int256,int256,int256,(uint256,uint8,bool),(uint256,uint8,bool),(uint256,uint8,uint8,bool),(bytes32,bytes32,uint8,uint8),(bytes32,bytes32,uint8,uint8)),uint256,uint8)": {
        "params": {
          "eventType": "eventType of the cyclic schedule",
          "lastScheduleTime": "last occurrence of cyclic event",
          "terms": "terms of the contract"
        },
        "returns": {
          "_0": "event schedule segment"
        }
      },
      "computeNextNonCyclicEvent((uint8,uint8,uint8,uint8,uint8,uint8,uint8,uint8,address,address,uint256,uint256,uint256,uint256,int256,int256,int256,int256,int256,(uint256,uint8,bool),(uint256,uint8,bool),(uint256,uint8,uint8,bool),(bytes32,bytes32,uint8,uint8),(bytes32,bytes32,uint8,uint8)),bytes32)": {
        "details": "Assumes that non-cyclic events of the same event type have a unique schedule time",
        "params": {
          "lastNonCyclicEvent": "last non-cyclic event",
          "terms": "terms of the contract"
        },
        "returns": {
          "_0": "next non-cyclic event"
        }
      },
      "computeNonCyclicScheduleSegment((uint8,uint8,uint8,uint8,uint8,uint8,uint8,uint8,address,address,uint256,uint256,uint256,uint256,int256,int256,int256,int256,int256,(uint256,uint8,bool),(uint256,uint8,bool),(uint256,uint8,uint8,bool),(bytes32,bytes32,uint8,uint8),(bytes32,bytes32,uint8,uint8)),uint256,uint256)": {
        "params": {
          "segmentEnd": "end timestamp of the segement",
          "segmentStart": "start timestamp of the segment",
          "terms": "terms of the contract"
        },
        "returns": {
          "_0": "segment of the non-cyclic schedule"
        }
      },
      "computePayoffForEvent((uint8,uint8,uint8,uint8,uint8,uint8,uint8,uint8,address,address,uint256,uint256,uint256,uint256,int256,int256,int256,int256,int256,(uint256,uint8,bool),(uint256,uint8,bool),(uint256,uint8,uint8,bool),(bytes32,bytes32,uint8,uint8),(bytes32,bytes32,uint8,uint8)),(uint8,uint256,uint256,uint256,uint256,uint256,int256,int256,int256),bytes32,bytes)": {
        "params": {
          "_event": "event for which the payoff should be evaluated",
          "externalData": "external data needed for POF evaluation (e.g. fxRate)",
          "state": "current state of the contract",
          "terms": "terms of the contract"
        },
        "returns": {
          "_0": "the payoff of the event"
        }
      },
      "computeStateForEvent((uint8,uint8,uint8,uint8,uint8,uint8,uint8,uint8,address,address,uint256,uint256,uint256,uint256,int256,int256,int256,int256,int256,(uint256,uint8,bool),(uint256,uint8,bool),(uint256,uint8,uint8,bool),(bytes32,bytes32,uint8,uint8),(bytes32,bytes32,uint8,uint8)),(uint8,uint256,uint256,uint256,uint256,uint256,int256,int256,int256),bytes32,bytes)": {
        "params": {
          "_event": "event to be applied to the contract state",
          "externalData": "external data needed for STF evaluation (e.g. rate for RR events)",
          "state": "current state of the contract",
          "terms": "terms of the contract"
        },
        "returns": {
          "_0": "the resulting contract state"
        }
      },
      "isEventScheduled(bytes32,(uint8,uint8,uint8,uint8,uint8,uint8,uint8,uint8,address,address,uint256,uint256,uint256,uint256,int256,int256,int256,int256,int256,(uint256,uint8,bool),(uint256,uint8,bool),(uint256,uint8,uint8,bool),(bytes32,bytes32,uint8,uint8),(bytes32,bytes32,uint8,uint8)),(uint8,uint256,uint256,uint256,uint256,uint256,int256,int256,int256),(int256,bool))": {
        "params": {
          "_event": "event for which to check if its still scheduled param terms terms of the contract",
          "state": "current state of the contract",
          "underlyingState": "state of the underlying (empty state object if non-existing)"
        },
        "returns": {
          "_0": "boolean indicating whether event is still scheduled"
        }
      }
    },
    "title": "CEGEngine",
    "version": 1
  },
  "userdoc": {
    "kind": "user",
    "methods": {
      "adjustEndOfMonthConvention(uint8,uint256,(uint256,uint8,uint8,bool))": {
        "notice": "This function makes an adjustment on the end of month convention."
      },
      "computeCyclicScheduleSegment((uint8,uint8,uint8,uint8,uint8,uint8,uint8,uint8,address,address,uint256,uint256,uint256,uint256,int256,int256,int256,int256,int256,(uint256,uint8,bool),(uint256,uint8,bool),(uint256,uint8,uint8,bool),(bytes32,bytes32,uint8,uint8),(bytes32,bytes32,uint8,uint8)),uint256,uint256,uint8)": {
        "notice": "Computes a schedule segment of cyclic contract events based on the contract terms and the specified timestamps."
      },
      "computeEventTimeForEvent(bytes32,uint8,uint8,uint256)": {
        "notice": "Returns the event time for a given schedule time"
      },
      "computeInitialState((uint8,uint8,uint8,uint8,uint8,uint8,uint8,uint8,address,address,uint256,uint256,uint256,uint256,int256,int256,int256,int256,int256,(uint256,uint8,bool),(uint256,uint8,bool),(uint256,uint8,uint8,bool),(bytes32,bytes32,uint8,uint8),(bytes32,bytes32,uint8,uint8)))": {
        "notice": "Initialize contract state space based on the contract terms."
      },
      "computeNextCyclicEvent((uint8,uint8,uint8,uint8,uint8,uint8,uint8,uint8,address,address,uint256,uint256,uint256,uint256,int256,int256,int256,int256,int256,(uint256,uint8,bool),(uint256,uint8,bool),(uint256,uint8,uint8,bool),(bytes32,bytes32,uint8,uint8),(bytes32,bytes32,uint8,uint8)),uint256,uint8)": {
        "notice": "Computes a schedule segment of cyclic contract events based on the contract terms and the specified timestamps."
      },
      "computeNextNonCyclicEvent((uint8,uint8,uint8,uint8,uint8,uint8,uint8,uint8,address,address,uint256,uint256,uint256,uint256,int256,int256,int256,int256,int256,(uint256,uint8,bool),(uint256,uint8,bool),(uint256,uint8,uint8,bool),(bytes32,bytes32,uint8,uint8),(bytes32,bytes32,uint8,uint8)),bytes32)": {
        "notice": "Computes the next non-cyclic contract events based on the contract terms and the timestamp on which the prev. event occured."
      },
      "computeNonCyclicScheduleSegment((uint8,uint8,uint8,uint8,uint8,uint8,uint8,uint8,address,address,uint256,uint256,uint256,uint256,int256,int256,int256,int256,int256,(uint256,uint8,bool),(uint256,uint8,bool),(uint256,uint8,uint8,bool),(bytes32,bytes32,uint8,uint8),(bytes32,bytes32,uint8,uint8)),uint256,uint256)": {
        "notice": "Computes a schedule segment of non-cyclic contract events based on the contract terms and the specified timestamps."
      },
      "computePayoffForEvent((uint8,uint8,uint8,uint8,uint8,uint8,uint8,uint8,address,address,uint256,uint256,uint256,uint256,int256,int256,int256,int256,int256,(uint256,uint8,bool),(uint256,uint8,bool),(uint256,uint8,uint8,bool),(bytes32,bytes32,uint8,uint8),(bytes32,bytes32,uint8,uint8)),(uint8,uint256,uint256,uint256,uint256,uint256,int256,int256,int256),bytes32,bytes)": {
        "notice": "Evaluates the payoff for an event under the current state of the contract."
      },
      "computeStateForEvent((uint8,uint8,uint8,uint8,uint8,uint8,uint8,uint8,address,address,uint256,uint256,uint256,uint256,int256,int256,int256,int256,int256,(uint256,uint8,bool),(uint256,uint8,bool),(uint256,uint8,uint8,bool),(bytes32,bytes32,uint8,uint8),(bytes32,bytes32,uint8,uint8)),(uint8,uint256,uint256,uint256,uint256,uint256,int256,int256,int256),bytes32,bytes)": {
        "notice": "Applys an event to the current state of a contract and returns the resulting contract state."
      },
      "getEpochOffset(uint8)": {
        "notice": "Returns the epoch offset for a given event type to determine the correct order of events if multiple events have the same timestamp"
      },
      "isEventScheduled(bytes32,(uint8,uint8,uint8,uint8,uint8,uint8,uint8,uint8,address,address,uint256,uint256,uint256,uint256,int256,int256,int256,int256,int256,(uint256,uint8,bool),(uint256,uint8,bool),(uint256,uint8,uint8,bool),(bytes32,bytes32,uint8,uint8),(bytes32,bytes32,uint8,uint8)),(uint8,uint256,uint256,uint256,uint256,uint256,int256,int256,int256),(int256,bool))": {
        "notice": "Verifies that the provided event is still scheduled under the terms, the current state of the contract and the current state of the underlying."
      },
      "shiftCalcTime(uint256,uint8,uint8,uint256)": {
        "notice": "Used in POFs and STFs for DCFs. No shifting is applied if a Calc/Shift instead of Shift/Calc BDC is provided."
      }
    },
    "notice": "Inherits from BaseEngine by implementing STFs, POFs according to the ACTUS standard for a CEC contract",
    "version": 1
  },
  "storageLayout": {
    "storage": [],
    "types": null
  }
}