{
  "contractName": "Client",
  "abi": [
    {
      "constant": false,
      "inputs": [],
      "name": "renounceOwnership",
      "outputs": [],
      "payable": false,
      "stateMutability": "nonpayable",
      "type": "function"
    },
    {
      "constant": true,
      "inputs": [],
      "name": "owner",
      "outputs": [
        {
          "name": "",
          "type": "address"
        }
      ],
      "payable": false,
      "stateMutability": "view",
      "type": "function"
    },
    {
      "constant": true,
      "inputs": [],
      "name": "isOwner",
      "outputs": [
        {
          "name": "",
          "type": "bool"
        }
      ],
      "payable": false,
      "stateMutability": "view",
      "type": "function"
    },
    {
      "constant": false,
      "inputs": [
        {
          "name": "newOwner",
          "type": "address"
        }
      ],
      "name": "transferOwnership",
      "outputs": [],
      "payable": false,
      "stateMutability": "nonpayable",
      "type": "function"
    },
    {
      "anonymous": false,
      "inputs": [
        {
          "indexed": false,
          "name": "manager",
          "type": "address"
        },
        {
          "indexed": true,
          "name": "submanager",
          "type": "address"
        },
        {
          "indexed": false,
          "name": "role",
          "type": "bytes32"
        },
        {
          "indexed": false,
          "name": "country",
          "type": "bytes32"
        },
        {
          "indexed": false,
          "name": "managerId",
          "type": "bytes32"
        }
      ],
      "name": "ManagerAdded",
      "type": "event"
    },
    {
      "anonymous": false,
      "inputs": [
        {
          "indexed": false,
          "name": "manager",
          "type": "address"
        },
        {
          "indexed": true,
          "name": "submanager",
          "type": "address"
        },
        {
          "indexed": false,
          "name": "role",
          "type": "bytes32"
        },
        {
          "indexed": false,
          "name": "country",
          "type": "bytes32"
        }
      ],
      "name": "ManagerRemoved",
      "type": "event"
    },
    {
      "anonymous": false,
      "inputs": [
        {
          "indexed": false,
          "name": "client",
          "type": "address"
        },
        {
          "indexed": false,
          "name": "name",
          "type": "bytes32"
        },
        {
          "indexed": false,
          "name": "surname",
          "type": "bytes32"
        },
        {
          "indexed": false,
          "name": "country",
          "type": "bytes32"
        },
        {
          "indexed": false,
          "name": "status",
          "type": "uint256"
        }
      ],
      "name": "UserAdded",
      "type": "event"
    },
    {
      "anonymous": false,
      "inputs": [
        {
          "indexed": true,
          "name": "previousOwner",
          "type": "address"
        },
        {
          "indexed": true,
          "name": "newOwner",
          "type": "address"
        }
      ],
      "name": "OwnershipTransferred",
      "type": "event"
    },
    {
      "constant": false,
      "inputs": [
        {
          "name": "_signer",
          "type": "address"
        }
      ],
      "name": "initialize",
      "outputs": [],
      "payable": false,
      "stateMutability": "nonpayable",
      "type": "function"
    },
    {
      "constant": false,
      "inputs": [
        {
          "name": "_signer",
          "type": "address"
        }
      ],
      "name": "setSigner",
      "outputs": [],
      "payable": false,
      "stateMutability": "nonpayable",
      "type": "function"
    },
    {
      "constant": false,
      "inputs": [
        {
          "name": "_manager",
          "type": "address"
        },
        {
          "name": "_submanager",
          "type": "address"
        },
        {
          "name": "_country",
          "type": "bytes32"
        },
        {
          "name": "_role",
          "type": "bytes32"
        },
        {
          "name": "_id",
          "type": "bytes32"
        },
        {
          "name": "_hashedMessage",
          "type": "bytes32"
        },
        {
          "name": "_v",
          "type": "uint8"
        },
        {
          "name": "_r",
          "type": "bytes32"
        },
        {
          "name": "_s",
          "type": "bytes32"
        }
      ],
      "name": "addRole",
      "outputs": [],
      "payable": false,
      "stateMutability": "nonpayable",
      "type": "function"
    },
    {
      "constant": true,
      "inputs": [
        {
          "name": "_user",
          "type": "address"
        }
      ],
      "name": "getRole",
      "outputs": [
        {
          "name": "",
          "type": "bytes32"
        },
        {
          "name": "",
          "type": "bytes32"
        },
        {
          "name": "",
          "type": "bytes32"
        }
      ],
      "payable": false,
      "stateMutability": "view",
      "type": "function"
    },
    {
      "constant": false,
      "inputs": [
        {
          "name": "_manager",
          "type": "address"
        },
        {
          "name": "_submanager",
          "type": "address"
        },
        {
          "name": "_country",
          "type": "bytes32"
        },
        {
          "name": "_role",
          "type": "bytes32"
        },
        {
          "name": "_hashedMessage",
          "type": "bytes32"
        },
        {
          "name": "_v",
          "type": "uint8"
        },
        {
          "name": "_r",
          "type": "bytes32"
        },
        {
          "name": "_s",
          "type": "bytes32"
        }
      ],
      "name": "removeRole",
      "outputs": [],
      "payable": false,
      "stateMutability": "nonpayable",
      "type": "function"
    },
    {
      "constant": false,
      "inputs": [
        {
          "name": "client",
          "type": "address"
        },
        {
          "name": "score",
          "type": "uint256"
        }
      ],
      "name": "setAmlScore",
      "outputs": [],
      "payable": false,
      "stateMutability": "nonpayable",
      "type": "function"
    },
    {
      "constant": false,
      "inputs": [
        {
          "name": "_score",
          "type": "uint256"
        }
      ],
      "name": "setAmlPassScore",
      "outputs": [],
      "payable": false,
      "stateMutability": "nonpayable",
      "type": "function"
    },
    {
      "constant": true,
      "inputs": [
        {
          "name": "client",
          "type": "address"
        }
      ],
      "name": "getAMLStatus",
      "outputs": [
        {
          "name": "",
          "type": "bool"
        }
      ],
      "payable": false,
      "stateMutability": "view",
      "type": "function"
    },
    {
      "constant": false,
      "inputs": [
        {
          "name": "client",
          "type": "address"
        },
        {
          "name": "name",
          "type": "bytes32"
        },
        {
          "name": "surname",
          "type": "bytes32"
        },
        {
          "name": "country",
          "type": "bytes32"
        },
        {
          "name": "contact",
          "type": "bytes32"
        },
        {
          "name": "status",
          "type": "uint256"
        }
      ],
      "name": "KycUpdate",
      "outputs": [],
      "payable": false,
      "stateMutability": "nonpayable",
      "type": "function"
    },
    {
      "constant": true,
      "inputs": [
        {
          "name": "client",
          "type": "address"
        }
      ],
      "name": "getClientKYC",
      "outputs": [
        {
          "name": "",
          "type": "bytes32"
        },
        {
          "name": "",
          "type": "bytes32"
        },
        {
          "name": "",
          "type": "bytes32"
        },
        {
          "name": "",
          "type": "uint256"
        },
        {
          "name": "",
          "type": "uint256"
        }
      ],
      "payable": false,
      "stateMutability": "view",
      "type": "function"
    },
    {
      "constant": false,
      "inputs": [
        {
          "name": "client",
          "type": "address"
        },
        {
          "name": "identity",
          "type": "string"
        },
        {
          "name": "videokyc",
          "type": "string"
        },
        {
          "name": "docs",
          "type": "string"
        }
      ],
      "name": "fullKycUpdate",
      "outputs": [],
      "payable": false,
      "stateMutability": "nonpayable",
      "type": "function"
    },
    {
      "constant": true,
      "inputs": [
        {
          "name": "client",
          "type": "address"
        }
      ],
      "name": "getFullClientKYC",
      "outputs": [
        {
          "name": "",
          "type": "bytes32"
        },
        {
          "name": "",
          "type": "string"
        },
        {
          "name": "",
          "type": "string"
        },
        {
          "name": "",
          "type": "string"
        }
      ],
      "payable": false,
      "stateMutability": "view",
      "type": "function"
    },
    {
      "constant": true,
      "inputs": [
        {
          "name": "party",
          "type": "address"
        }
      ],
      "name": "getTransferAgent",
      "outputs": [
        {
          "name": "",
          "type": "bytes32"
        }
      ],
      "payable": false,
      "stateMutability": "view",
      "type": "function"
    },
    {
      "constant": true,
      "inputs": [
        {
          "name": "_country",
          "type": "bytes32"
        },
        {
          "name": "_role",
          "type": "bytes32"
        }
      ],
      "name": "getManagers",
      "outputs": [
        {
          "name": "",
          "type": "address[]"
        }
      ],
      "payable": false,
      "stateMutability": "view",
      "type": "function"
    },
    {
      "constant": false,
      "inputs": [
        {
          "name": "_submanager",
          "type": "address"
        },
        {
          "name": "_currency",
          "type": "bytes32"
        },
        {
          "name": "_accountId",
          "type": "bytes32"
        }
      ],
      "name": "setCustodyAccount",
      "outputs": [],
      "payable": false,
      "stateMutability": "nonpayable",
      "type": "function"
    },
    {
      "constant": true,
      "inputs": [
        {
          "name": "_submanager",
          "type": "address"
        }
      ],
      "name": "getCustodyAccount",
      "outputs": [
        {
          "components": [
            {
              "name": "currency",
              "type": "bytes32"
            },
            {
              "name": "account",
              "type": "bytes32"
            }
          ],
          "name": "",
          "type": "tuple[]"
        }
      ],
      "payable": false,
      "stateMutability": "view",
      "type": "function"
    },
    {
      "constant": false,
      "inputs": [
        {
          "name": "userAddress",
          "type": "address"
        },
        {
          "name": "accountId",
          "type": "bytes32"
        }
      ],
      "name": "setCustody",
      "outputs": [],
      "payable": false,
      "stateMutability": "nonpayable",
      "type": "function"
    },
    {
      "constant": true,
      "inputs": [
        {
          "name": "userAddress",
          "type": "address"
        }
      ],
      "name": "getCustody",
      "outputs": [
        {
          "name": "",
          "type": "bytes32"
        }
      ],
      "payable": false,
      "stateMutability": "view",
      "type": "function"
    }
  ],
  "bytecode": "0x60806040526126e6806100136000396000f3fe608060405234801561001057600080fd5b50600436106101425760003560e01c80638d0cbe91116100b8578063a0f7d4201161007c578063a0f7d420146102b1578063c4d66de8146102d5578063ca6150a4146102e8578063f2fde38b146102fb578063f645c56a1461030e578063ffe009aa1461032157610142565b80638d0cbe911461024e5780638da5cb5b146102615780638f32d59b1461027657806394f30db91461027e5780639a1da46b1461029e57610142565b80633c6ff32b1161010a5780633c6ff32b146101cb57806344276733146101eb57806348566e1d1461020d5780634a1f16e0146102205780636c19e78314610233578063715018a61461024657610142565b8063055f55401461014757806319d7152c146101705780632838c9d5146101835780632df48b90146101985780633a291033146101ab575b600080fd5b61015a610155366004611ce5565b610344565b6040516101679190612525565b60405180910390f35b61015a61017e366004611ce5565b610366565b610196610191366004611e7f565b610381565b005b6101966101a6366004611eb9565b6103d6565b6101be6101b9366004611ce5565b610530565b6040516101679190612517565b6101de6101d9366004612044565b610587565b60405161016791906124f5565b6101fe6101f9366004611ce5565b6106bf565b60405161016793929190612533565b61019661021b366004611d0b565b61085d565b61019661022e366004611e7f565b610c21565b610196610241366004611ce5565b610c7d565b610196610cc6565b61019661025c366004611dcf565b610d37565b610269611190565b6040516101679190612435565b6101be6111a0565b61029161028c366004611ce5565b6111c6565b6040516101679190612506565b6101966102ac366004611f8d565b61124f565b6102c46102bf366004611ce5565b61131b565b604051610167959493929190612541565b6101966102e3366004611ce5565b611353565b6101966102f6366004611f06565b6113fe565b610196610309366004611ce5565b611503565b61019661031c366004612063565b611536565b61033461032f366004611ce5565b611568565b604051610167949392919061254f565b6001600160a01b0381166000908152606c60205260409020600301545b919050565b6001600160a01b031660009081526070602052604090205490565b6066546001600160a01b031633146103b757604051600160e51b62461bcd0281526004016103ae90612631565b60405180910390fd5b6001600160a01b03909116600090815260686020526040902060040155565b336001600160a01b0384161461040157604051600160e51b62461bcd0281526004016103ae90612631565b6001600160a01b0383166000908152606c6020526040812060010154156104cf5760005b6001600160a01b0385166000908152606f60205260409020548110156104cd576001600160a01b0385166000908152606f6020526040902080548591908390811061046c57fe5b90600052602060002090600202016000015414156104c5576001600160a01b0385166000908152606f602052604090208054849190839081106104ab57fe5b906000526020600020906002020160010181905550600191505b600101610425565b505b8061052a576104dc611bc2565b5060408051808201825284815260208082018581526001600160a01b0388166000908152606f8352938420805460018181018355918652929094209251600290920290920190815590519101555b50505050565b6001600160a01b0381166000908152606860205260408120600401541561057d576067546001600160a01b038316600090815260686020526040902060040154101561057d576000610580565b60015b9050610361565b606080606d805490506040519080825280602002602001820160405280156105b9578160200160208202803883390190505b5090506000805b606d548110156106b35785606c6000606d84815481106105dc57fe5b60009182526020808320909101546001600160a01b03168352820192909252604001902060010154148015610648575084606c6000606d848154811061061e57fe5b60009182526020808320909101546001600160a01b03168352820192909252604001902060020154145b156106ab57606d818154811061065a57fe5b9060005260206000200160009054906101000a90046001600160a01b031683838151811061068457fe5b60200260200101906001600160a01b031690816001600160a01b0316815250508160010191505b6001016105c0565b50909150505b92915050565b6001600160a01b0381166000908152606e602052604081205481908190801561080d57846001600160a01b0316606d60018303815481106106fc57fe5b6000918252602090912001546001600160a01b0316141561080d57606c6000606d600184038154811061072b57fe5b9060005260206000200160009054906101000a90046001600160a01b03166001600160a01b03166001600160a01b0316815260200190815260200160002060020154606c6000606d600185038154811061078157fe5b9060005260206000200160009054906101000a90046001600160a01b03166001600160a01b03166001600160a01b0316815260200190815260200160002060030154606c6000606d60018603815481106107d757fe5b60009182526020808320909101546001600160a01b03168352820192909252604001902060010154919550935091506108569050565b610815611190565b6001600160a01b0316856001600160a01b0316141561084957600160d91b6420b236b4b70260008093509350935050610856565b6000806000935093509350505b9193909250565b6000846040516020016108709190612597565b60405160208183030381529060405280519060200120905060008160405160200161089b9190612415565b60408051601f19818403018152828252805160209182012060665460008552939091019182905292506001600160a01b03909116906001906108e49084908990899089906125b6565b6020604051602081039080840390855afa158015610906573d6000803e3d6000fd5b505050602060405103516001600160a01b0316148061092f57506066546001600160a01b031633145b61094e57604051600160e51b62461bcd0281526004016103ae90612631565b87600160b91b6821bab9ba37b234b0b7021480610972575087600160f01b61414d02145b80610984575087600160f41b61044502145b8061099a575087600160d21b6512d650d0535302145b806109b0575087600160d11b6524b9b9bab2b902145b6109cf57604051600160e51b62461bcd0281526004016103ae906125f1565b6109d7611190565b6001600160a01b03168a6001600160a01b03161415610a0b57604051600160e51b62461bcd0281526004016103ae906125e1565b6000805b606d54811015610a58578b6001600160a01b0316606d8281548110610a3057fe5b6000918252602090912001546001600160a01b03161415610a5057600191505b600101610a0f565b5080610c1357606d8b90806001815401808255809150509060018203906000526020600020016000909192909190916101000a8154816001600160a01b0302191690836001600160a01b0316021790555050606d80549050606e60008d6001600160a01b03166001600160a01b03168152602001908152602001600020819055508b606c60008d6001600160a01b03166001600160a01b0316815260200190815260200160002060000160006101000a8154816001600160a01b0302191690836001600160a01b0316021790555089606c60008d6001600160a01b03166001600160a01b031681526020019081526020016000206001018190555088606c60008d6001600160a01b03166001600160a01b031681526020019081526020016000206002018190555087606c60008d6001600160a01b03166001600160a01b031681526020019081526020016000206003018190555088600160d21b6512d650d05353021415610bcb57610bcb8b8b6117bc565b8a6001600160a01b03167fefc0db5f83f77f89452c2f94b82b44e255b3488e98d72feed0d80672ae36c8cc8d8b8d8c604051610c0a949392919061246b565b60405180910390a25b505050505050505050505050565b336001600160a01b0383161480610c4257506066546001600160a01b031633145b610c6157604051600160e51b62461bcd0281526004016103ae90612631565b6001600160a01b03909116600090815260706020526040902055565b610c856111a0565b610ca457604051600160e51b62461bcd0281526004016103ae90612611565b606680546001600160a01b0319166001600160a01b0392909216919091179055565b610cce6111a0565b610ced57604051600160e51b62461bcd0281526004016103ae90612611565b6033546040516000916001600160a01b0316907f8be0079c531659141344cd1fd0a4f28419497f9722a3daafe3b4186f6b6457e0908390a3603380546001600160a01b0319169055565b600084604051602001610d4a9190612597565b604051602081830303815290604052805190602001209050600081604051602001610d759190612415565b60408051601f19818403018152828252805160209182012060665460008552939091019182905292506001600160a01b0390911690600190610dbe9084908990899089906125b6565b6020604051602081039080840390855afa158015610de0573d6000803e3d6000fd5b505050602060405103516001600160a01b03161480610e0957506066546001600160a01b031633145b610e2857604051600160e51b62461bcd0281526004016103ae90612631565b86600160b91b6821bab9ba37b234b0b7021480610e4c575086600160f01b61414d02145b80610e5e575086600160f41b61044502145b80610e74575086600160d21b6512d650d0535302145b80610e8a575086600160d11b6524b9b9bab2b902145b610ea957604051600160e51b62461bcd0281526004016103ae906125f1565b6001600160a01b0389166000908152606e6020526040902054801561112057896001600160a01b0316606d6001830381548110610ee257fe5b6000918252602090912001546001600160a01b0316148015610f3e575087606c6000606d6001850381548110610f1457fe5b60009182526020808320909101546001600160a01b03168352820192909252604001902060020154145b8015610f84575088606c6000606d6001850381548110610f5a57fe5b60009182526020808320909101546001600160a01b03168352820192909252604001902060010154145b8015610fd657508a6001600160a01b0316606c6000606d6001850381548110610fa957fe5b60009182526020808320909101546001600160a01b03908116845290830193909352604090910190205416145b15611120576000606c6000606d6001850381548110610ff157fe5b6000918252602080832091909101546001600160a01b039081168452908301939093526040909101812080546001600160a01b03191693909216929092179055606d8054606c918391600019860190811061104857fe5b60009182526020808320909101546001600160a01b03168352820192909252604001812060010191909155606d8054606c918391600019860190811061108a57fe5b60009182526020808320909101546001600160a01b03168352820192909252604001812060020191909155606d8054606c91839160001986019081106110cc57fe5b60009182526020808320909101546001600160a01b03168352820192909252604001902060030155606d8054600019830190811061110657fe5b600091825260209091200180546001600160a01b03191690555b87600160d21b6512d650d0535302141561113e5761113e8a8a611896565b896001600160a01b03167f2d599c6854d4b4c59b4e99fde5e3cb617739de62ed97ff059d0305bcba6c8aac8c8a8c60405161117b93929190612443565b60405180910390a25050505050505050505050565b6033546001600160a01b03165b90565b6033546000906001600160a01b03166111b7611974565b6001600160a01b031614905090565b6001600160a01b0381166000908152606f60209081526040808320805482518185028101850190935280835260609492939192909184015b82821015611244578382906000526020600020906002020160405180604001604052908160008201548152602001600182015481525050815260200190600101906111fe565b505050509050919050565b6066546001600160a01b031633148061128157506001600160a01b038781166000908152606b60205260409020541633145b6112a057604051600160e51b62461bcd0281526004016103ae90612631565b6001600160a01b03871660009081526069602052604090206112c3908787611bd9565b506001600160a01b03871660009081526069602052604090206112ea906001018585611bd9565b506001600160a01b0387166000908152606960205260409020611311906002018383611bd9565b5050505050505050565b6001600160a01b0316600090815260686020526040902080546001820154600383015460028401546004909401549294919390929091565b600054610100900460ff168061136c575061136c611978565b8061137a575060005460ff16155b61139957604051600160e51b62461bcd0281526004016103ae90612621565b600054610100900460ff161580156113c4576000805460ff1961ff0019909116610100171660011790555b6113cd3361197e565b606680546001600160a01b0319166001600160a01b03841617905580156113fa576000805461ff00191690555b5050565b6066546001600160a01b031633148061143057506001600160a01b038681166000908152606b60205260409020541633145b61144f57604051600160e51b62461bcd0281526004016103ae90612631565b6001600160a01b038616600081815260686020908152604080832089815560018082018a905560028201879055600382018990556005909101879055878452606a835290832080549182018155835291200180546001600160a01b03191690911790556114bc8684611a53565b7f0b39fd0cf419285b8686e954aaa78a22042d1982dc0b3b3f12276d104415fb9586868686856040516114f39594939291906124a9565b60405180910390a1505050505050565b61150b6111a0565b61152a57604051600160e51b62461bcd0281526004016103ae90612611565b61153381611b3d565b50565b6066546001600160a01b0316331461156357604051600160e51b62461bcd0281526004016103ae90612631565b606755565b606654600090606090819081906001600160a01b03163314806115935750336001600160a01b038616145b806115b757506001600160a01b038581166000908152606b60205260409020541633145b6115d657604051600160e51b62461bcd0281526004016103ae90612601565b6001600160a01b03851660009081526068602090815260408083206005015460698352928190208054825160026001808416156101000260001901909316819004601f810187900487028301870190955284825292949185019392850192909185919083018282801561168a5780601f1061165f5761010080835404028352916020019161168a565b820191906000526020600020905b81548152906001019060200180831161166d57829003601f168201915b5050855460408051602060026001851615610100026000190190941693909304601f8101849004840282018401909252818152959850879450925084019050828280156117185780601f106116ed57610100808354040283529160200191611718565b820191906000526020600020905b8154815290600101906020018083116116fb57829003601f168201915b5050845460408051602060026001851615610100026000190190941693909304601f8101849004840282018401909252818152959750869450925084019050828280156117a65780601f1061177b576101008083540402835291602001916117a6565b820191906000526020600020905b81548152906001019060200180831161178957829003601f168201915b5050505050905093509350935093509193509193565b60005b6000828152606a6020526040902054811015611891576000828152606a602052604081208054606b918391859081106117f457fe5b60009182526020808320909101546001600160a01b0390811684529083019390935260409091019020541614156118895782606b6000606a6000868152602001908152602001600020848154811061184857fe5b6000918252602080832091909101546001600160a01b039081168452908301939093526040909101902080546001600160a01b031916929091169190911790555b6001016117bf565b505050565b60005b6000828152606a602052604090205481101561189157826001600160a01b0316606b6000606a600086815260200190815260200160002084815481106118db57fe5b60009182526020808320909101546001600160a01b03908116845290830193909352604090910190205416141561196c576000828152606a602052604081208054606b9183918590811061192b57fe5b6000918252602080832091909101546001600160a01b039081168452908301939093526040909101902080546001600160a01b031916929091169190911790555b600101611899565b3390565b303b1590565b600054610100900460ff16806119975750611997611978565b806119a5575060005460ff16155b6119c457604051600160e51b62461bcd0281526004016103ae90612621565b600054610100900460ff161580156119ef576000805460ff1961ff0019909116610100171660011790555b603380546001600160a01b0319166001600160a01b0384811691909117918290556040519116906000907f8be0079c531659141344cd1fd0a4f28419497f9722a3daafe3b4186f6b6457e0908290a380156113fa576000805461ff00191690555050565b60005b606d548110156118915781606c6000606d8481548110611a7257fe5b60009182526020808320909101546001600160a01b03168352820192909252604001902060010154148015611aea5750606c6000606d8381548110611ab357fe5b60009182526020808320909101546001600160a01b03168352820192909252604001902060020154600160d21b6512d650d0535302145b15611b3557606d8181548110611afc57fe5b60009182526020808320909101546001600160a01b038681168452606b909252604090922080546001600160a01b031916919092161790555b600101611a56565b6001600160a01b038116611b6657604051600160e51b62461bcd0281526004016103ae906125d1565b6033546040516001600160a01b038084169216907f8be0079c531659141344cd1fd0a4f28419497f9722a3daafe3b4186f6b6457e090600090a3603380546001600160a01b0319166001600160a01b0392909216919091179055565b604080518082019091526000808252602082015290565b828054600181600116156101000203166002900490600052602060002090601f016020900481019282601f10611c1a5782800160ff19823516178555611c47565b82800160010185558215611c47579182015b82811115611c47578235825591602001919060010190611c2c565b50611c53929150611c57565b5090565b61119d91905b80821115611c535760008155600101611c5d565b6000611c7d8235612654565b9392505050565b6000611c7d823561119d565b60008083601f840112611ca257600080fd5b50813567ffffffffffffffff811115611cba57600080fd5b602083019150836001820283011115611cd257600080fd5b9250929050565b6000611c7d8235612670565b600060208284031215611cf757600080fd5b6000611d038484611c71565b949350505050565b60008060008060008060008060006101208a8c031215611d2a57600080fd5b6000611d368c8c611c71565b9950506020611d478c828d01611c71565b9850506040611d588c828d01611c84565b9750506060611d698c828d01611c84565b9650506080611d7a8c828d01611c84565b95505060a0611d8b8c828d01611c84565b94505060c0611d9c8c828d01611cd9565b93505060e0611dad8c828d01611c84565b925050610100611dbf8c828d01611c84565b9150509295985092959850929598565b600080600080600080600080610100898b031215611dec57600080fd5b6000611df88b8b611c71565b9850506020611e098b828c01611c71565b9750506040611e1a8b828c01611c84565b9650506060611e2b8b828c01611c84565b9550506080611e3c8b828c01611c84565b94505060a0611e4d8b828c01611cd9565b93505060c0611e5e8b828c01611c84565b92505060e0611e6f8b828c01611c84565b9150509295985092959890939650565b60008060408385031215611e9257600080fd5b6000611e9e8585611c71565b9250506020611eaf85828601611c84565b9150509250929050565b600080600060608486031215611ece57600080fd5b6000611eda8686611c71565b9350506020611eeb86828701611c84565b9250506040611efc86828701611c84565b9150509250925092565b60008060008060008060c08789031215611f1f57600080fd5b6000611f2b8989611c71565b9650506020611f3c89828a01611c84565b9550506040611f4d89828a01611c84565b9450506060611f5e89828a01611c84565b9350506080611f6f89828a01611c84565b92505060a0611f8089828a01611c84565b9150509295509295509295565b60008060008060008060006080888a031215611fa857600080fd5b6000611fb48a8a611c71565b975050602088013567ffffffffffffffff811115611fd157600080fd5b611fdd8a828b01611c90565b9650965050604088013567ffffffffffffffff811115611ffc57600080fd5b6120088a828b01611c90565b9450945050606088013567ffffffffffffffff81111561202757600080fd5b6120338a828b01611c90565b925092505092959891949750929550565b6000806040838503121561205757600080fd5b6000611e9e8585611c84565b60006020828403121561207557600080fd5b6000611d038484611c84565b600061208d83836120a9565b505060200190565b60006120a183836123e8565b505060400190565b6120b281612654565b82525050565b60006120c382612647565b6120cd818561264b565b93506120d883612641565b60005b82811015612103576120ee868351612081565b95506120f982612641565b91506001016120db565b5093949350505050565b600061211882612647565b612122818561264b565b935061212d83612641565b60005b8281101561210357612143868351612095565b955061214e82612641565b9150600101612130565b6120b28161265f565b6120b28161119d565b6120b26121768261119d565b61119d565b600061218682612647565b612190818561264b565b93506121a0818560208601612676565b6121a9816126a2565b9093019392505050565b60006121c0601c83610361565b7f19457468657265756d205369676e6564204d6573736167653a0a3332000000008152601c0192915050565b60006121f960268361264b565b7f4f776e61626c653a206e6577206f776e657220697320746865207a65726f20618152600160d01b6564647265737302602082015260400192915050565b600061224460248361264b565b7f43616e206e6f742061646420636f6e74726163746f776e6572206173206d616e8152600160e11b6330b3b2b902602082015260400192915050565b600061228d60148361264b565b7f496e76616c6964206d616e616765722074797065000000000000000000000000815260200192915050565b60006122c660208361264b565b7f556e617574686f72697a65642061636365737320746f20636865636b204b5943815260200192915050565b60006122ff60208361264b565b7f4f776e61626c653a2063616c6c6572206973206e6f7420746865206f776e6572815260200192915050565b6000612338602e8361264b565b7f436f6e747261637420696e7374616e63652068617320616c726561647920626581527f656e20696e697469616c697a6564000000000000000000000000000000000000602082015260400192915050565b600061239760068361264b565b600160d01b654c32746f4c3102815260200192915050565b60006123bc60138361264b565b7f556e617574686f72697a65642061636365737300000000000000000000000000815260200192915050565b805160408301906123f98482612161565b50602082015161052a6020850182612161565b6120b281612670565b6000612420826121b3565b915061242c828461216a565b50602001919050565b602081016106b982846120a9565b6060810161245182866120a9565b61245e6020830185612161565b611d036040830184612161565b6080810161247982876120a9565b6124866020830186612161565b6124936040830185612161565b6124a06060830184612161565b95945050505050565b60a081016124b782886120a9565b6124c46020830187612161565b6124d16040830186612161565b6124de6060830185612161565b6124eb6080830184612161565b9695505050505050565b60208082528101611c7d81846120b8565b60208082528101611c7d818461210d565b602081016106b98284612158565b602081016106b98284612161565b606081016124518286612161565b60a081016124b78288612161565b6080810161255d8287612161565b818103602083015261256f818661217b565b90508181036040830152612583818561217b565b905081810360608301526124eb818461217b565b604081016125a58284612161565b8181036020830152611c7d8161238a565b608081016125c48287612161565b612486602083018661240c565b602080825281016106b9816121ec565b602080825281016106b981612237565b602080825281016106b981612280565b602080825281016106b9816122b9565b602080825281016106b9816122f2565b602080825281016106b98161232b565b602080825281016106b9816123af565b60200190565b5190565b90815260200190565b60006106b982612664565b151590565b6001600160a01b031690565b60ff1690565b60005b83811015612691578181015183820152602001612679565b8381111561052a5750506000910152565b601f01601f19169056fea265627a7a72305820f26b874b89b6cf7b9b16c16112d9230b568bbd9a4904c51c8c394533505306b96c6578706572696d656e74616cf50037",
  "source": "// Verified managers\r\n// (c) Kallol Borah, Verified Network, 2021\r\n\r\n//\"SPDX-License-Identifier: UNLICENSED\"\r\n\r\npragma solidity 0.5.7;\r\npragma experimental ABIEncoderV2;\r\n\r\nimport \"./interfaces/VerifiedClient.sol\";\r\nimport \"@openzeppelin/upgrades/contracts/Initializable.sol\";\r\nimport \"@openzeppelin/contracts-ethereum-package/contracts/ownership/Ownable.sol\";\r\n\r\ncontract Client is VerifiedClient, Initializable, Ownable {\r\n    \r\n    //bridge\r\n    address bridge;\r\n\r\n    struct role{\r\n        address manager;\r\n        bytes32 country;\r\n        bytes32 role;\r\n        bytes32 id;\r\n    }\r\n\r\n    struct user{\r\n        bytes32 name;\r\n        bytes32 surname;\r\n        uint256 kycstatus; //3 for pass, 1 for pending\r\n        bytes32 country;\r\n        uint256 amlscore;\r\n        bytes32 contact;        \r\n    }    \r\n\r\n    struct kyc{\r\n        string identity;\r\n        string videokyc;\r\n        string docs;\r\n    }\r\n\r\n    // AMLA score to pass\r\n    uint256 private passScore;\r\n\r\n    //mapping of client address to user attributes\r\n    mapping(address => user) private clients;\r\n\r\n    mapping(address => kyc) private kycDocs;\r\n\r\n    //storing users for each country\r\n    mapping(bytes32 => address[]) private usersbyCountry;\r\n\r\n    //mapping of client to manager\r\n    mapping(address => address) private managers;\r\n\r\n    //mapping of a manager to its sub managers\r\n    mapping(address=> role) private roles;\r\n\r\n    //storing submanagers\r\n    address[] submanagers;\r\n\r\n    //submanager index\r\n    mapping(address => uint256) private managerIndex;\r\n\r\n    //custody account for managers\r\n    mapping(address => custodian[]) private accounts;\r\n\r\n    //custody account for users\r\n    mapping(address => bytes32) private custodyAccount;\r\n\r\n    event ManagerAdded(address manager, address indexed submanager, bytes32 role, bytes32 country, bytes32 managerId);\r\n    event ManagerRemoved(address manager, address indexed submanager, bytes32 role, bytes32 country);\r\n    event UserAdded(address client, bytes32 name, bytes32 surname, bytes32 country, uint status);\r\n\r\n    function initialize(address _signer) public initializer{\r\n        Ownable.initialize(msg.sender);\r\n        bridge = _signer;\r\n    }\r\n\r\n    function setSigner(address _signer) onlyOwner external{\r\n        bridge = _signer;\r\n    }\r\n    \r\n    function addRole(address _manager, address _submanager, bytes32 _country, bytes32 _role, bytes32 _id, bytes32 _hashedMessage, uint8 _v, bytes32 _r, bytes32 _s) \r\n                            external {\r\n        bytes32 payloadHash = keccak256(abi.encode(_hashedMessage, \"L2toL1\"));\r\n        bytes32 messageHash = keccak256(abi.encodePacked(\"\\x19Ethereum Signed Message:\\n32\", payloadHash));\r\n        require(ecrecover(messageHash, _v, _r, _s)== bridge || msg.sender==bridge, \"Unauthorized access\");\r\n        require(_role==\"Custodian\" || _role==\"AM\" || _role==\"DP\" || _role==\"KYCAML\" || _role==\"Issuer\", \"Invalid manager type\");\r\n        require(_submanager!=owner(), \"Can not add contractowner as manager\");\r\n        bool found = false;\r\n        for(uint256 i=0; i<submanagers.length; i++){\r\n            if(submanagers[i]==_submanager)\r\n                found = true;\r\n        }\r\n        if(!found){\r\n            submanagers.push(_submanager);\r\n            managerIndex[_submanager] = submanagers.length;\r\n            roles[_submanager].manager = _manager;\r\n            roles[_submanager].country = _country;\r\n            roles[_submanager].role = _role;\r\n            roles[_submanager].id = _id;\r\n            if(_role==\"KYCAML\")\r\n                assignManagerToUser(_submanager, _country);\r\n            emit ManagerAdded(_manager, _submanager, _role, _country, _id);\r\n        }\r\n    }\r\n\r\n    function getRole(address _user) external view returns(bytes32, bytes32, bytes32){\r\n        uint256 position = managerIndex[_user];\r\n        if(position>0){\r\n            if(submanagers[position-1]==_user){\r\n                return (roles[submanagers[position-1]].role, roles[submanagers[position-1]].id, roles[submanagers[position-1]].country);\r\n            }\r\n        }\r\n        if(_user==owner())\r\n            return (\"Admin\",\"\",\"\");\r\n        else\r\n            return (\"\",\"\",\"\");\r\n    }\r\n\r\n    function removeRole(address _manager, address _submanager, bytes32 _country, bytes32 _role, bytes32 _hashedMessage, uint8 _v, bytes32 _r, bytes32 _s) \r\n                            external {\r\n        bytes32 payloadHash = keccak256(abi.encode(_hashedMessage, \"L2toL1\"));\r\n        bytes32 messageHash = keccak256(abi.encodePacked(\"\\x19Ethereum Signed Message:\\n32\", payloadHash));\r\n        require(ecrecover(messageHash, _v, _r, _s)== bridge || msg.sender==bridge, \"Unauthorized access\");\r\n        require(_role==\"Custodian\" || _role==\"AM\" || _role==\"DP\" || _role==\"KYCAML\" || _role==\"Issuer\", \"Invalid manager type\");\r\n        uint256 position = managerIndex[_submanager];\r\n        if(position>0){\r\n            if( submanagers[position-1]==_submanager &&\r\n                roles[submanagers[position-1]].role==_role && \r\n                roles[submanagers[position-1]].country==_country &&\r\n                roles[submanagers[position-1]].manager==_manager){                \r\n                    roles[submanagers[position-1]].manager = address(0x0);\r\n                    roles[submanagers[position-1]].country = \"\";\r\n                    roles[submanagers[position-1]].role = \"\";\r\n                    roles[submanagers[position-1]].id = \"\";\r\n                    delete(submanagers[position-1]);\r\n            }\r\n        }\r\n        if(_role==\"KYCAML\")\r\n            unassignManagerFromUser(_submanager, _country);\r\n        emit ManagerRemoved(_manager, _submanager, _role, _country);\r\n    }   \r\n\r\n    function setAmlScore(address client, uint256 score) external {\r\n        require(bridge==msg.sender, \"Unauthorized access\");\r\n        clients[client].amlscore = score;\r\n    }\r\n\r\n    function setAmlPassScore(uint256 _score) external {\r\n        require(bridge==msg.sender, \"Unauthorized access\");\r\n        passScore = _score;\r\n    }\r\n\r\n    function getAMLStatus(address client) external view returns(bool){\r\n        if(clients[client].amlscore!=0)\r\n            return clients[client].amlscore >= passScore ? true : false;\r\n        else\r\n            return true;\r\n    }\r\n\r\n    function KycUpdate(address client, bytes32 name, bytes32 surname, bytes32 country, bytes32 contact, uint status) external { //, bytes32 _hashedMessage, uint8 _v, bytes32 _r, bytes32 _s) external {\r\n        //bytes32 payloadHash = keccak256(abi.encode(_hashedMessage, \"L2toL1\"));\r\n        //bytes32 messageHash = keccak256(abi.encodePacked(\"\\x19Ethereum Signed Message:\\n32\", payloadHash));\r\n        require(/*ecrecover(messageHash, _v, _r, _s)== bridge*/ msg.sender==bridge || managers[client]==msg.sender /*|| msg.sender==bridge ||roles[msg.sender].country==clients[client].country*/, \"Unauthorized access\");\r\n        clients[client].name = name;\r\n        clients[client].surname = surname;\r\n        clients[client].kycstatus = status;\r\n        clients[client].country = country;\r\n        clients[client].contact = contact;\r\n        usersbyCountry[country].push(client);\r\n        matchManagerToClient(client, country);\r\n        emit UserAdded(client, name, surname, country, status);\r\n    }\r\n\r\n    function getClientKYC(address client) external view returns(bytes32, bytes32, bytes32, uint256, uint256){\r\n        //require(msg.sender==bridge || msg.sender==client || roles[msg.sender].id!=\"\", \"Unauthorized access to check KYC\");\r\n        return (clients[client].name, \r\n                clients[client].surname, \r\n                clients[client].country, \r\n                clients[client].kycstatus, \r\n                clients[client].amlscore);\r\n    }\r\n\r\n    function fullKycUpdate(address client, string calldata identity, string calldata videokyc, string calldata docs/*, bytes32 _hashedMessage, uint8 _v, bytes32 _r, bytes32 _s*/) external {\r\n        //bytes32 payloadHash = keccak256(abi.encode(_hashedMessage, \"L2toL1\"));\r\n        //bytes32 messageHash = keccak256(abi.encodePacked(\"\\x19Ethereum Signed Message:\\n32\", payloadHash));\r\n        require(/*ecrecover(messageHash, _v, _r, _s)== bridge ||*/ msg.sender==bridge || managers[client]==msg.sender /*||roles[msg.sender].country==clients[client].country*/, \"Unauthorized access\");\r\n        kycDocs[client].identity = identity;\r\n        kycDocs[client].videokyc = videokyc;\r\n        kycDocs[client].docs = docs;\r\n    }\r\n\r\n    function getFullClientKYC(address client) external view returns(bytes32, string memory, string memory, string memory){\r\n        require(msg.sender==bridge || msg.sender==client || managers[client]==msg.sender, \"Unauthorized access to check KYC\");\r\n        return (\r\n                clients[client].contact,\r\n                kycDocs[client].identity,\r\n                kycDocs[client].videokyc,\r\n                kycDocs[client].docs\r\n            );\r\n    } \r\n\r\n    function matchManagerToClient(address client, bytes32 country) private {\r\n        for(uint256 i=0; i<submanagers.length; i++){\r\n            if(roles[submanagers[i]].country==country && roles[submanagers[i]].role==\"KYCAML\"){\r\n                managers[client] = submanagers[i];\r\n            }\r\n        }\r\n    }\r\n\r\n    function unassignManagerFromUser(address _submanager, bytes32 _country) private {\r\n        for(uint256 i=0; i<usersbyCountry[_country].length; i++){\r\n            if(managers[usersbyCountry[_country][i]]==_submanager)\r\n                managers[usersbyCountry[_country][i]] = address(0x0);\r\n        }\r\n    }\r\n\r\n    function assignManagerToUser(address _submanager, bytes32 _country) private {\r\n        for(uint256 i=0; i<usersbyCountry[_country].length; i++){\r\n            if(managers[usersbyCountry[_country][i]]==address(0x0))\r\n                managers[usersbyCountry[_country][i]] = _submanager;\r\n        }\r\n    }\r\n\r\n    /**\r\n        Gets DP id\r\n        @param  party         reference to the party or counterparty in a trade\r\n     */\r\n    function getTransferAgent(address party) external view returns(bytes32){\r\n        return roles[party].id;\r\n    }\r\n\r\n    function getManagers(bytes32 _country, bytes32 _role) external view returns(address[] memory){\r\n        address[] memory sm = new address[](submanagers.length);\r\n        uint256 j=0;\r\n        for(uint256 i=0; i<submanagers.length; i++){\r\n            if(roles[submanagers[i]].country==_country && roles[submanagers[i]].role==_role){\r\n                sm[j] = submanagers[i];\r\n                j=j+1;\r\n            }\r\n        }\r\n        return sm;\r\n    }\r\n\r\n    function setCustodyAccount(address _submanager, bytes32 _currency, bytes32 _accountId) external {\r\n        require(msg.sender==_submanager, \"Unauthorized access\");\r\n        bool found = false;\r\n        if(roles[_submanager].country!=\"\"){\r\n            for(uint256 i=0; i<accounts[_submanager].length; i++){\r\n                if(accounts[_submanager][i].currency==_currency){\r\n                    accounts[_submanager][i].account = _accountId;\r\n                    found = true;\r\n                }\r\n            }\r\n        }\r\n        if(!found){\r\n            VerifiedClient.custodian memory c = VerifiedClient.custodian({\r\n                currency : _currency,\r\n                account : _accountId\r\n            });\r\n            accounts[_submanager].push(c);\r\n        }            \r\n    }\r\n\r\n    function getCustodyAccount(address _submanager) external view returns(custodian[] memory){\r\n        return accounts[_submanager];\r\n    }\r\n\r\n    function setCustody(address userAddress, bytes32 accountId) external{\r\n        require(msg.sender==userAddress || msg.sender==bridge, \"Unauthorized access\");\r\n        custodyAccount[userAddress] = accountId;\r\n    }\r\n\r\n    function getCustody(address userAddress) external view returns(bytes32){\r\n        return custodyAccount[userAddress];\r\n    }\r\n\r\n}",
  "sourcePath": "D:\\Code\\verified-securities\\contracts\\Client.sol",
  "compiler": {
    "name": "solc",
    "version": "0.5.7+commit.6da8b019.Emscripten.clang"
  },
  "schemaVersion": "3.4.3",
  "updatedAt": "2023-04-16T00:52:27.951Z",
  "networkType": "ethereum",
  "devdoc": {
    "methods": {
      "getTransferAgent(address)": {
        "params": {
          "party": "reference to the party or counterparty in a trade\r"
        }
      },
      "isOwner()": {
        "details": "Returns true if the caller is the current owner."
      },
      "owner()": {
        "details": "Returns the address of the current owner."
      },
      "renounceOwnership()": {
        "details": "Leaves the contract without owner. It will not be possible to call `onlyOwner` functions anymore. Can only be called by the current owner.     * > Note: Renouncing ownership will leave the contract without an owner, thereby removing any functionality that is only available to the owner."
      },
      "transferOwnership(address)": {
        "details": "Transfers ownership of the contract to a new account (`newOwner`). Can only be called by the current owner."
      }
    }
  },
  "userdoc": {
    "methods": {
      "getTransferAgent(address)": {
        "notice": "Gets DP id\r"
      }
    }
  }
}