{
  "contractName": "Client",
  "abi": [
    {
      "constant": false,
      "inputs": [],
      "name": "renounceOwnership",
      "outputs": [],
      "payable": false,
      "stateMutability": "nonpayable",
      "type": "function"
    },
    {
      "constant": true,
      "inputs": [],
      "name": "owner",
      "outputs": [
        {
          "name": "",
          "type": "address"
        }
      ],
      "payable": false,
      "stateMutability": "view",
      "type": "function"
    },
    {
      "constant": true,
      "inputs": [],
      "name": "isOwner",
      "outputs": [
        {
          "name": "",
          "type": "bool"
        }
      ],
      "payable": false,
      "stateMutability": "view",
      "type": "function"
    },
    {
      "constant": false,
      "inputs": [
        {
          "name": "newOwner",
          "type": "address"
        }
      ],
      "name": "transferOwnership",
      "outputs": [],
      "payable": false,
      "stateMutability": "nonpayable",
      "type": "function"
    },
    {
      "anonymous": false,
      "inputs": [
        {
          "indexed": false,
          "name": "manager",
          "type": "address"
        },
        {
          "indexed": true,
          "name": "submanager",
          "type": "address"
        },
        {
          "indexed": false,
          "name": "role",
          "type": "bytes32"
        },
        {
          "indexed": false,
          "name": "country",
          "type": "bytes32"
        },
        {
          "indexed": false,
          "name": "managerId",
          "type": "bytes32"
        }
      ],
      "name": "ManagerAdded",
      "type": "event"
    },
    {
      "anonymous": false,
      "inputs": [
        {
          "indexed": false,
          "name": "manager",
          "type": "address"
        },
        {
          "indexed": true,
          "name": "submanager",
          "type": "address"
        },
        {
          "indexed": false,
          "name": "role",
          "type": "bytes32"
        },
        {
          "indexed": false,
          "name": "country",
          "type": "bytes32"
        }
      ],
      "name": "ManagerRemoved",
      "type": "event"
    },
    {
      "anonymous": false,
      "inputs": [
        {
          "indexed": false,
          "name": "client",
          "type": "address"
        },
        {
          "indexed": false,
          "name": "name",
          "type": "bytes32"
        },
        {
          "indexed": false,
          "name": "accountid",
          "type": "bytes32"
        },
        {
          "indexed": false,
          "name": "country",
          "type": "bytes32"
        },
        {
          "indexed": false,
          "name": "status",
          "type": "uint256"
        }
      ],
      "name": "UserAdded",
      "type": "event"
    },
    {
      "anonymous": false,
      "inputs": [
        {
          "indexed": true,
          "name": "previousOwner",
          "type": "address"
        },
        {
          "indexed": true,
          "name": "newOwner",
          "type": "address"
        }
      ],
      "name": "OwnershipTransferred",
      "type": "event"
    },
    {
      "constant": false,
      "inputs": [
        {
          "name": "_signer",
          "type": "address"
        }
      ],
      "name": "initialize",
      "outputs": [],
      "payable": false,
      "stateMutability": "nonpayable",
      "type": "function"
    },
    {
      "constant": false,
      "inputs": [
        {
          "name": "_signer",
          "type": "address"
        }
      ],
      "name": "setSigner",
      "outputs": [],
      "payable": false,
      "stateMutability": "nonpayable",
      "type": "function"
    },
    {
      "constant": false,
      "inputs": [
        {
          "name": "_manager",
          "type": "address"
        },
        {
          "name": "_submanager",
          "type": "address"
        },
        {
          "name": "_country",
          "type": "bytes32"
        },
        {
          "name": "_role",
          "type": "bytes32"
        },
        {
          "name": "_id",
          "type": "bytes32"
        },
        {
          "name": "_hashedMessage",
          "type": "bytes32"
        },
        {
          "name": "_v",
          "type": "uint8"
        },
        {
          "name": "_r",
          "type": "bytes32"
        },
        {
          "name": "_s",
          "type": "bytes32"
        }
      ],
      "name": "addRole",
      "outputs": [],
      "payable": false,
      "stateMutability": "nonpayable",
      "type": "function"
    },
    {
      "constant": true,
      "inputs": [
        {
          "name": "_user",
          "type": "address"
        }
      ],
      "name": "getRole",
      "outputs": [
        {
          "name": "",
          "type": "bytes32"
        },
        {
          "name": "",
          "type": "bytes32"
        },
        {
          "name": "",
          "type": "bytes32"
        }
      ],
      "payable": false,
      "stateMutability": "view",
      "type": "function"
    },
    {
      "constant": false,
      "inputs": [
        {
          "name": "_manager",
          "type": "address"
        },
        {
          "name": "_submanager",
          "type": "address"
        },
        {
          "name": "_country",
          "type": "bytes32"
        },
        {
          "name": "_role",
          "type": "bytes32"
        },
        {
          "name": "_hashedMessage",
          "type": "bytes32"
        },
        {
          "name": "_v",
          "type": "uint8"
        },
        {
          "name": "_r",
          "type": "bytes32"
        },
        {
          "name": "_s",
          "type": "bytes32"
        }
      ],
      "name": "removeRole",
      "outputs": [],
      "payable": false,
      "stateMutability": "nonpayable",
      "type": "function"
    },
    {
      "constant": false,
      "inputs": [
        {
          "name": "client",
          "type": "address"
        },
        {
          "name": "score",
          "type": "uint256"
        }
      ],
      "name": "setAmlScore",
      "outputs": [],
      "payable": false,
      "stateMutability": "nonpayable",
      "type": "function"
    },
    {
      "constant": false,
      "inputs": [
        {
          "name": "_score",
          "type": "uint256"
        }
      ],
      "name": "setAmlPassScore",
      "outputs": [],
      "payable": false,
      "stateMutability": "nonpayable",
      "type": "function"
    },
    {
      "constant": true,
      "inputs": [
        {
          "name": "client",
          "type": "address"
        }
      ],
      "name": "getAMLStatus",
      "outputs": [
        {
          "name": "",
          "type": "bool"
        }
      ],
      "payable": false,
      "stateMutability": "view",
      "type": "function"
    },
    {
      "constant": false,
      "inputs": [
        {
          "name": "client",
          "type": "address"
        },
        {
          "name": "score",
          "type": "uint256"
        }
      ],
      "name": "setCreditScore",
      "outputs": [],
      "payable": false,
      "stateMutability": "nonpayable",
      "type": "function"
    },
    {
      "constant": false,
      "inputs": [
        {
          "name": "client",
          "type": "address"
        },
        {
          "name": "name",
          "type": "bytes32"
        },
        {
          "name": "accountid",
          "type": "bytes32"
        },
        {
          "name": "country",
          "type": "bytes32"
        },
        {
          "name": "contact",
          "type": "bytes32"
        },
        {
          "name": "status",
          "type": "uint256"
        }
      ],
      "name": "KycUpdate",
      "outputs": [],
      "payable": false,
      "stateMutability": "nonpayable",
      "type": "function"
    },
    {
      "constant": true,
      "inputs": [
        {
          "name": "client",
          "type": "address"
        }
      ],
      "name": "getClientKYC",
      "outputs": [
        {
          "name": "",
          "type": "bytes32"
        },
        {
          "name": "",
          "type": "bytes32"
        },
        {
          "name": "",
          "type": "bytes32"
        },
        {
          "name": "",
          "type": "uint256"
        },
        {
          "name": "",
          "type": "bytes32"
        },
        {
          "name": "",
          "type": "uint256"
        },
        {
          "name": "",
          "type": "uint256"
        }
      ],
      "payable": false,
      "stateMutability": "view",
      "type": "function"
    },
    {
      "constant": false,
      "inputs": [
        {
          "name": "client",
          "type": "address"
        },
        {
          "name": "identity",
          "type": "string"
        },
        {
          "name": "videokyc",
          "type": "string"
        },
        {
          "name": "docs",
          "type": "string"
        }
      ],
      "name": "fullKycUpdate",
      "outputs": [],
      "payable": false,
      "stateMutability": "nonpayable",
      "type": "function"
    },
    {
      "constant": true,
      "inputs": [
        {
          "name": "client",
          "type": "address"
        }
      ],
      "name": "getFullClientKYC",
      "outputs": [
        {
          "name": "",
          "type": "bytes32"
        },
        {
          "name": "",
          "type": "string"
        },
        {
          "name": "",
          "type": "string"
        },
        {
          "name": "",
          "type": "string"
        }
      ],
      "payable": false,
      "stateMutability": "view",
      "type": "function"
    },
    {
      "constant": true,
      "inputs": [
        {
          "name": "party",
          "type": "address"
        }
      ],
      "name": "getTransferAgent",
      "outputs": [
        {
          "name": "",
          "type": "bytes32"
        }
      ],
      "payable": false,
      "stateMutability": "view",
      "type": "function"
    },
    {
      "constant": true,
      "inputs": [
        {
          "name": "_country",
          "type": "bytes32"
        },
        {
          "name": "_role",
          "type": "bytes32"
        }
      ],
      "name": "getManagers",
      "outputs": [
        {
          "name": "",
          "type": "address[]"
        }
      ],
      "payable": false,
      "stateMutability": "view",
      "type": "function"
    },
    {
      "constant": false,
      "inputs": [
        {
          "name": "_submanager",
          "type": "address"
        },
        {
          "name": "_currency",
          "type": "bytes32"
        },
        {
          "name": "_accountId",
          "type": "bytes32"
        }
      ],
      "name": "setCustodyAccount",
      "outputs": [],
      "payable": false,
      "stateMutability": "nonpayable",
      "type": "function"
    },
    {
      "constant": true,
      "inputs": [
        {
          "name": "_submanager",
          "type": "address"
        }
      ],
      "name": "getCustodyAccount",
      "outputs": [
        {
          "components": [
            {
              "name": "currency",
              "type": "bytes32"
            },
            {
              "name": "account",
              "type": "bytes32"
            }
          ],
          "name": "",
          "type": "tuple[]"
        }
      ],
      "payable": false,
      "stateMutability": "view",
      "type": "function"
    },
    {
      "constant": false,
      "inputs": [
        {
          "name": "userAddress",
          "type": "address"
        },
        {
          "name": "accountId",
          "type": "bytes32"
        }
      ],
      "name": "setCustody",
      "outputs": [],
      "payable": false,
      "stateMutability": "nonpayable",
      "type": "function"
    },
    {
      "constant": true,
      "inputs": [
        {
          "name": "userAddress",
          "type": "address"
        }
      ],
      "name": "getCustody",
      "outputs": [
        {
          "name": "",
          "type": "bytes32"
        }
      ],
      "payable": false,
      "stateMutability": "view",
      "type": "function"
    }
  ],
  "bytecode": "0x6080604052612929806100136000396000f3fe608060405234801561001057600080fd5b506004361061014d5760003560e01c80638d0cbe91116100c3578063a0f7d4201161007c578063a0f7d420146102bc578063c4d66de8146102e2578063ca6150a4146102f5578063f2fde38b14610308578063f645c56a1461031b578063ffe009aa1461032e5761014d565b80638d0cbe91146102595780638da5cb5b1461026c5780638f32d59b1461028157806394f30db91461028957806397ed81cf1461018e5780639a1da46b146102a95761014d565b80633c6ff32b116101155780633c6ff32b146101d657806344276733146101f657806348566e1d146102185780634a1f16e01461022b5780636c19e7831461023e578063715018a6146102515761014d565b8063055f55401461015257806319d7152c1461017b5780632838c9d51461018e5780632df48b90146101a35780633a291033146101b6575b600080fd5b610165610160366004611ede565b610351565b604051610172919061270e565b60405180910390f35b610165610189366004611ede565b610373565b6101a161019c366004612078565b61038e565b005b6101a16101b13660046120b2565b610407565b6101c96101c4366004611ede565b610562565b6040516101729190612700565b6101e96101e436600461223d565b6105b9565b60405161017291906126de565b610209610204366004611ede565b6106f5565b6040516101729392919061271c565b6101a1610226366004611f04565b610893565b6101a1610239366004612078565b610c5a565b6101a161024c366004611ede565b610cb6565b6101a1610cff565b6101a1610267366004611fc8565b610d70565b6102746111c9565b604051610172919061261e565b6101c96111d9565b61029c610297366004611ede565b6111ff565b60405161017291906126ef565b6101a16102b7366004612186565b611288565b6102cf6102ca366004611ede565b61137c565b604051610172979695949392919061272a565b6101a16102f0366004611ede565b611500565b6101a16103033660046120ff565b6115ab565b6101a1610316366004611ede565b6116d8565b6101a161032936600461225c565b61170b565b61034161033c366004611ede565b61173d565b6040516101729493929190612792565b6001600160a01b0381166000908152606c60205260409020600301545b919050565b6001600160a01b031660009081526070602052604090205490565b6066546001600160a01b03163314806103c057506001600160a01b038281166000908152606b60205260409020541633145b6103e857604051600160e51b62461bcd0281526004016103df90612874565b60405180910390fd5b6001600160a01b03909116600090815260686020526040902060040155565b336001600160a01b0384161461043257604051600160e51b62461bcd0281526004016103df90612874565b6001600160a01b0383166000908152606c602052604081206001015415610501576001600160a01b0384166000908152606f6020526040812054905b818110156104fe576001600160a01b0386166000908152606f6020526040902080548691908390811061049d57fe5b90600052602060002090600202016000015414156104f6576001600160a01b0386166000908152606f602052604090208054859190839081106104dc57fe5b906000526020600020906002020160010181905550600192505b60010161046e565b50505b8061055c5761050e611dbb565b5060408051808201825284815260208082018581526001600160a01b0388166000908152606f8352938420805460018181018355918652929094209251600290920290920190815590519101555b50505050565b6001600160a01b038116600090815260686020526040812060040154156105af576067546001600160a01b03831660009081526068602052604090206004015410156105af5760006105b2565b60015b905061036e565b606080606d805490506040519080825280602002602001820160405280156105eb578160200160208202803883390190505b50606d54909150600090815b818110156106e85786606c6000606d848154811061061157fe5b60009182526020808320909101546001600160a01b0316835282019290925260400190206001015414801561067d575085606c6000606d848154811061065357fe5b60009182526020808320909101546001600160a01b03168352820192909252604001902060020154145b156106e057606d818154811061068f57fe5b9060005260206000200160009054906101000a90046001600160a01b03168484815181106106b957fe5b60200260200101906001600160a01b031690816001600160a01b0316815250508260010192505b6001016105f7565b5091925050505b92915050565b6001600160a01b0381166000908152606e602052604081205481908190801561084357846001600160a01b0316606d600183038154811061073257fe5b6000918252602090912001546001600160a01b0316141561084357606c6000606d600184038154811061076157fe5b9060005260206000200160009054906101000a90046001600160a01b03166001600160a01b03166001600160a01b0316815260200190815260200160002060020154606c6000606d60018503815481106107b757fe5b9060005260206000200160009054906101000a90046001600160a01b03166001600160a01b03166001600160a01b0316815260200190815260200160002060030154606c6000606d600186038154811061080d57fe5b60009182526020808320909101546001600160a01b031683528201929092526040019020600101549195509350915061088c9050565b61084b6111c9565b6001600160a01b0316856001600160a01b0316141561087f57600160d91b6420b236b4b7026000809350935093505061088c565b6000806000935093509350505b9193909250565b6000846040516020016108a691906127da565b6040516020818303038152906040528051906020012090506000816040516020016108d191906125fe565b60408051601f19818403018152828252805160209182012060665460008552939091019182905292506001600160a01b039091169060019061091a9084908990899089906127f9565b6020604051602081039080840390855afa15801561093c573d6000803e3d6000fd5b505050602060405103516001600160a01b0316148061096557506066546001600160a01b031633145b61098457604051600160e51b62461bcd0281526004016103df90612874565b87600160b91b6821bab9ba37b234b0b70214806109a8575087600160f01b61414d02145b806109ba575087600160f41b61044502145b806109d0575087600160d21b6512d650d0535302145b806109e6575087600160d11b6524b9b9bab2b902145b610a0557604051600160e51b62461bcd0281526004016103df90612834565b610a0d6111c9565b6001600160a01b03168a6001600160a01b03161415610a4157604051600160e51b62461bcd0281526004016103df90612824565b606d54600090815b81811015610a90578c6001600160a01b0316606d8281548110610a6857fe5b6000918252602090912001546001600160a01b03161415610a8857600192505b600101610a49565b5081610c4b57606d8c90806001815401808255809150509060018203906000526020600020016000909192909190916101000a8154816001600160a01b0302191690836001600160a01b0316021790555050606d80549050606e60008e6001600160a01b03166001600160a01b03168152602001908152602001600020819055508c606c60008e6001600160a01b03166001600160a01b0316815260200190815260200160002060000160006101000a8154816001600160a01b0302191690836001600160a01b031602179055508a606c60008e6001600160a01b03166001600160a01b031681526020019081526020016000206001018190555089606c60008e6001600160a01b03166001600160a01b031681526020019081526020016000206002018190555088606c60008e6001600160a01b03166001600160a01b031681526020019081526020016000206003018190555089600160d21b6512d650d05353021415610c0357610c038c8c6119b9565b8b6001600160a01b03167fefc0db5f83f77f89452c2f94b82b44e255b3488e98d72feed0d80672ae36c8cc8e8c8e8d604051610c429493929190612654565b60405180910390a25b50505050505050505050505050565b336001600160a01b0383161480610c7b57506066546001600160a01b031633145b610c9a57604051600160e51b62461bcd0281526004016103df90612874565b6001600160a01b03909116600090815260706020526040902055565b610cbe6111d9565b610cdd57604051600160e51b62461bcd0281526004016103df90612854565b606680546001600160a01b0319166001600160a01b0392909216919091179055565b610d076111d9565b610d2657604051600160e51b62461bcd0281526004016103df90612854565b6033546040516000916001600160a01b0316907f8be0079c531659141344cd1fd0a4f28419497f9722a3daafe3b4186f6b6457e0908390a3603380546001600160a01b0319169055565b600084604051602001610d8391906127da565b604051602081830303815290604052805190602001209050600081604051602001610dae91906125fe565b60408051601f19818403018152828252805160209182012060665460008552939091019182905292506001600160a01b0390911690600190610df79084908990899089906127f9565b6020604051602081039080840390855afa158015610e19573d6000803e3d6000fd5b505050602060405103516001600160a01b03161480610e4257506066546001600160a01b031633145b610e6157604051600160e51b62461bcd0281526004016103df90612874565b86600160b91b6821bab9ba37b234b0b7021480610e85575086600160f01b61414d02145b80610e97575086600160f41b61044502145b80610ead575086600160d21b6512d650d0535302145b80610ec3575086600160d11b6524b9b9bab2b902145b610ee257604051600160e51b62461bcd0281526004016103df90612834565b6001600160a01b0389166000908152606e6020526040902054801561115957896001600160a01b0316606d6001830381548110610f1b57fe5b6000918252602090912001546001600160a01b0316148015610f77575087606c6000606d6001850381548110610f4d57fe5b60009182526020808320909101546001600160a01b03168352820192909252604001902060020154145b8015610fbd575088606c6000606d6001850381548110610f9357fe5b60009182526020808320909101546001600160a01b03168352820192909252604001902060010154145b801561100f57508a6001600160a01b0316606c6000606d6001850381548110610fe257fe5b60009182526020808320909101546001600160a01b03908116845290830193909352604090910190205416145b15611159576000606c6000606d600185038154811061102a57fe5b6000918252602080832091909101546001600160a01b039081168452908301939093526040909101812080546001600160a01b03191693909216929092179055606d8054606c918391600019860190811061108157fe5b60009182526020808320909101546001600160a01b03168352820192909252604001812060010191909155606d8054606c91839160001986019081106110c357fe5b60009182526020808320909101546001600160a01b03168352820192909252604001812060020191909155606d8054606c918391600019860190811061110557fe5b60009182526020808320909101546001600160a01b03168352820192909252604001902060030155606d8054600019830190811061113f57fe5b600091825260209091200180546001600160a01b03191690555b87600160d21b6512d650d05353021415611177576111778a8a611a8e565b896001600160a01b03167f2d599c6854d4b4c59b4e99fde5e3cb617739de62ed97ff059d0305bcba6c8aac8c8a8c6040516111b49392919061262c565b60405180910390a25050505050505050505050565b6033546001600160a01b03165b90565b6033546000906001600160a01b03166111f0611b6c565b6001600160a01b031614905090565b6001600160a01b0381166000908152606f60209081526040808320805482518185028101850190935280835260609492939192909184015b8282101561127d57838290600052602060002090600202016040518060400160405290816000820154815260200160018201548152505081526020019060010190611237565b505050509050919050565b6066546001600160a01b03163314806112ba57506001600160a01b038781166000908152606b60205260409020541633145b806112e25750336000908152606c6020526040902060020154600160d21b6512d650d0535302145b61130157604051600160e51b62461bcd0281526004016103df90612874565b6001600160a01b0387166000908152606960205260409020611324908787611dd2565b506001600160a01b038716600090815260696020526040902061134b906001018585611dd2565b506001600160a01b0387166000908152606960205260409020611372906002018383611dd2565b5050505050505050565b6066546000908190819081908190819081906001600160a01b03163314806113ac5750336001600160a01b038916145b806113d057506001600160a01b038881166000908152606b60205260409020541633145b806113f85750336000908152606c6020526040902060020154600160d21b6512d650d0535302145b8061141c5750336000908152606c6020526040902060020154600160f01b61414d02145b806114405750336000908152606c6020526040902060020154600160f41b61044502145b806114685750336000908152606c6020526040902060020154600160d11b6524b9b9bab2b902145b806114935750336000908152606c6020526040902060020154600160b91b6821bab9ba37b234b0b702145b6114b257604051600160e51b62461bcd0281526004016103df90612844565b505050506001600160a01b0393909316600090815260686020526040902080546001820154600383015460028401546006850154600586015460049096015494999398509196509450929190565b600054610100900460ff16806115195750611519611b70565b80611527575060005460ff16155b61154657604051600160e51b62461bcd0281526004016103df90612864565b600054610100900460ff16158015611571576000805460ff1961ff0019909116610100171660011790555b61157a33611b76565b606680546001600160a01b0319166001600160a01b03841617905580156115a7576000805461ff00191690555b5050565b6066546001600160a01b03163314806115dd57506001600160a01b038681166000908152606b60205260409020541633145b806116055750336000908152606c6020526040902060020154600160d21b6512d650d0535302145b61162457604051600160e51b62461bcd0281526004016103df90612874565b6001600160a01b038616600081815260686020908152604080832089815560018082018a905560028201879055600382018990556006909101879055878452606a835290832080549182018155835291200180546001600160a01b03191690911790556116918684611c4b565b7f0b39fd0cf419285b8686e954aaa78a22042d1982dc0b3b3f12276d104415fb9586868686856040516116c8959493929190612692565b60405180910390a1505050505050565b6116e06111d9565b6116ff57604051600160e51b62461bcd0281526004016103df90612854565b61170881611d36565b50565b6066546001600160a01b0316331461173857604051600160e51b62461bcd0281526004016103df90612874565b606755565b606654600090606090819081906001600160a01b03163314806117685750336001600160a01b038616145b8061178c57506001600160a01b038581166000908152606b60205260409020541633145b806117b45750336000908152606c6020526040902060020154600160d21b6512d650d0535302145b6117d357604051600160e51b62461bcd0281526004016103df90612844565b6001600160a01b03851660009081526068602090815260408083206006015460698352928190208054825160026001808416156101000260001901909316819004601f81018790048702830187019095528482529294918501939285019290918591908301828280156118875780601f1061185c57610100808354040283529160200191611887565b820191906000526020600020905b81548152906001019060200180831161186a57829003601f168201915b5050855460408051602060026001851615610100026000190190941693909304601f8101849004840282018401909252818152959850879450925084019050828280156119155780601f106118ea57610100808354040283529160200191611915565b820191906000526020600020905b8154815290600101906020018083116118f857829003601f168201915b5050845460408051602060026001851615610100026000190190941693909304601f8101849004840282018401909252818152959750869450925084019050828280156119a35780601f10611978576101008083540402835291602001916119a3565b820191906000526020600020905b81548152906001019060200180831161198657829003601f168201915b5050505050905093509350935093509193509193565b6000818152606a6020526040812054905b8181101561055c576000838152606a602052604081208054606b918391859081106119f157fe5b60009182526020808320909101546001600160a01b039081168452908301939093526040909101902054161415611a865783606b6000606a60008781526020019081526020016000208481548110611a4557fe5b6000918252602080832091909101546001600160a01b039081168452908301939093526040909101902080546001600160a01b031916929091169190911790555b6001016119ca565b6000818152606a6020526040812054905b8181101561055c57836001600160a01b0316606b6000606a60008781526020019081526020016000208481548110611ad357fe5b60009182526020808320909101546001600160a01b039081168452908301939093526040909101902054161415611b64576000838152606a602052604081208054606b91839185908110611b2357fe5b6000918252602080832091909101546001600160a01b039081168452908301939093526040909101902080546001600160a01b031916929091169190911790555b600101611a9f565b3390565b303b1590565b600054610100900460ff1680611b8f5750611b8f611b70565b80611b9d575060005460ff16155b611bbc57604051600160e51b62461bcd0281526004016103df90612864565b600054610100900460ff16158015611be7576000805460ff1961ff0019909116610100171660011790555b603380546001600160a01b0319166001600160a01b0384811691909117918290556040519116906000907f8be0079c531659141344cd1fd0a4f28419497f9722a3daafe3b4186f6b6457e0908290a380156115a7576000805461ff00191690555050565b606d5460005b8181101561055c5782606c6000606d8481548110611c6b57fe5b60009182526020808320909101546001600160a01b03168352820192909252604001902060010154148015611ce35750606c6000606d8381548110611cac57fe5b60009182526020808320909101546001600160a01b03168352820192909252604001902060020154600160d21b6512d650d0535302145b15611d2e57606d8181548110611cf557fe5b60009182526020808320909101546001600160a01b038781168452606b909252604090922080546001600160a01b031916919092161790555b600101611c51565b6001600160a01b038116611d5f57604051600160e51b62461bcd0281526004016103df90612814565b6033546040516001600160a01b038084169216907f8be0079c531659141344cd1fd0a4f28419497f9722a3daafe3b4186f6b6457e090600090a3603380546001600160a01b0319166001600160a01b0392909216919091179055565b604080518082019091526000808252602082015290565b828054600181600116156101000203166002900490600052602060002090601f016020900481019282601f10611e135782800160ff19823516178555611e40565b82800160010185558215611e40579182015b82811115611e40578235825591602001919060010190611e25565b50611e4c929150611e50565b5090565b6111d691905b80821115611e4c5760008155600101611e56565b6000611e768235612897565b9392505050565b6000611e7682356111d6565b60008083601f840112611e9b57600080fd5b50813567ffffffffffffffff811115611eb357600080fd5b602083019150836001820283011115611ecb57600080fd5b9250929050565b6000611e7682356128b3565b600060208284031215611ef057600080fd5b6000611efc8484611e6a565b949350505050565b60008060008060008060008060006101208a8c031215611f2357600080fd5b6000611f2f8c8c611e6a565b9950506020611f408c828d01611e6a565b9850506040611f518c828d01611e7d565b9750506060611f628c828d01611e7d565b9650506080611f738c828d01611e7d565b95505060a0611f848c828d01611e7d565b94505060c0611f958c828d01611ed2565b93505060e0611fa68c828d01611e7d565b925050610100611fb88c828d01611e7d565b9150509295985092959850929598565b600080600080600080600080610100898b031215611fe557600080fd5b6000611ff18b8b611e6a565b98505060206120028b828c01611e6a565b97505060406120138b828c01611e7d565b96505060606120248b828c01611e7d565b95505060806120358b828c01611e7d565b94505060a06120468b828c01611ed2565b93505060c06120578b828c01611e7d565b92505060e06120688b828c01611e7d565b9150509295985092959890939650565b6000806040838503121561208b57600080fd5b60006120978585611e6a565b92505060206120a885828601611e7d565b9150509250929050565b6000806000606084860312156120c757600080fd5b60006120d38686611e6a565b93505060206120e486828701611e7d565b92505060406120f586828701611e7d565b9150509250925092565b60008060008060008060c0878903121561211857600080fd5b60006121248989611e6a565b965050602061213589828a01611e7d565b955050604061214689828a01611e7d565b945050606061215789828a01611e7d565b935050608061216889828a01611e7d565b92505060a061217989828a01611e7d565b9150509295509295509295565b60008060008060008060006080888a0312156121a157600080fd5b60006121ad8a8a611e6a565b975050602088013567ffffffffffffffff8111156121ca57600080fd5b6121d68a828b01611e89565b9650965050604088013567ffffffffffffffff8111156121f557600080fd5b6122018a828b01611e89565b9450945050606088013567ffffffffffffffff81111561222057600080fd5b61222c8a828b01611e89565b925092505092959891949750929550565b6000806040838503121561225057600080fd5b60006120978585611e7d565b60006020828403121561226e57600080fd5b6000611efc8484611e7d565b600061228683836122a2565b505060200190565b600061229a83836125d1565b505060400190565b6122ab81612897565b82525050565b60006122bc8261288a565b6122c6818561288e565b93506122d183612884565b60005b828110156122fc576122e786835161227a565b95506122f282612884565b91506001016122d4565b5093949350505050565b60006123118261288a565b61231b818561288e565b935061232683612884565b60005b828110156122fc5761233c86835161228e565b955061234782612884565b9150600101612329565b6122ab816128a2565b6122ab816111d6565b6122ab61236f826111d6565b6111d6565b600061237f8261288a565b612389818561288e565b93506123998185602086016128b9565b6123a2816128e5565b9093019392505050565b60006123b9601c8361036e565b7f19457468657265756d205369676e6564204d6573736167653a0a3332000000008152601c0192915050565b60006123f260268361288e565b7f4f776e61626c653a206e6577206f776e657220697320746865207a65726f20618152600160d01b6564647265737302602082015260400192915050565b600061243d60178361288e565b7f496e636f727265637420726f6c65206164646974696f6e000000000000000000815260200192915050565b600061247660148361288e565b7f496e76616c6964206d616e616765722074797065000000000000000000000000815260200192915050565b60006124af60208361288e565b7f556e617574686f72697a65642061636365737320746f20636865636b204b5943815260200192915050565b60006124e860208361288e565b7f4f776e61626c653a2063616c6c6572206973206e6f7420746865206f776e6572815260200192915050565b6000612521602e8361288e565b7f436f6e747261637420696e7374616e63652068617320616c726561647920626581527f656e20696e697469616c697a6564000000000000000000000000000000000000602082015260400192915050565b600061258060068361288e565b600160d01b654c32746f4c3102815260200192915050565b60006125a560138361288e565b7f556e617574686f72697a65642061636365737300000000000000000000000000815260200192915050565b805160408301906125e2848261235a565b50602082015161055c602085018261235a565b6122ab816128b3565b6000612609826123ac565b91506126158284612363565b50602001919050565b602081016106ef82846122a2565b6060810161263a82866122a2565b612647602083018561235a565b611efc604083018461235a565b6080810161266282876122a2565b61266f602083018661235a565b61267c604083018561235a565b612689606083018461235a565b95945050505050565b60a081016126a082886122a2565b6126ad602083018761235a565b6126ba604083018661235a565b6126c7606083018561235a565b6126d4608083018461235a565b9695505050505050565b60208082528101611e7681846122b1565b60208082528101611e768184612306565b602081016106ef8284612351565b602081016106ef828461235a565b6060810161263a828661235a565b60e08101612738828a61235a565b612745602083018961235a565b612752604083018861235a565b61275f606083018761235a565b61276c608083018661235a565b61277960a083018561235a565b61278660c083018461235a565b98975050505050505050565b608081016127a0828761235a565b81810360208301526127b28186612374565b905081810360408301526127c68185612374565b905081810360608301526126d48184612374565b604081016127e8828461235a565b8181036020830152611e7681612573565b60808101612807828761235a565b61266f60208301866125f5565b602080825281016106ef816123e5565b602080825281016106ef81612430565b602080825281016106ef81612469565b602080825281016106ef816124a2565b602080825281016106ef816124db565b602080825281016106ef81612514565b602080825281016106ef81612598565b60200190565b5190565b90815260200190565b60006106ef826128a7565b151590565b6001600160a01b031690565b60ff1690565b60005b838110156128d45781810151838201526020016128bc565b8381111561055c5750506000910152565b601f01601f19169056fea265627a7a7230582043b5fa759ac1e9fcb43eff9d6afd53da9bfe056544d4bc1d16723f6d8a5ce8946c6578706572696d656e74616cf50037",
  "source": "// Verified managers\r\n// (c) Kallol Borah, Verified Network, 2021\r\n\r\n//\"SPDX-License-Identifier: UNLICENSED\"\r\n\r\npragma solidity 0.5.7;\r\npragma experimental ABIEncoderV2;\r\n\r\nimport \"./interfaces/VerifiedClient.sol\";\r\nimport \"@openzeppelin/upgrades/contracts/Initializable.sol\";\r\nimport \"@openzeppelin/contracts-ethereum-package/contracts/ownership/Ownable.sol\";\r\n\r\ncontract Client is VerifiedClient, Initializable, Ownable {\r\n    \r\n    //bridge\r\n    address private bridge;\r\n\r\n    struct role{\r\n        address manager;\r\n        bytes32 country;\r\n        bytes32 role;\r\n        bytes32 id;\r\n    }\r\n\r\n    struct user{\r\n        bytes32 name;\r\n        bytes32 accountid;\r\n        uint256 kycstatus; //3 for pass, 1 for pending\r\n        bytes32 country;\r\n        uint256 amlscore;\r\n        uint256 creditScore;\r\n        bytes32 contact;        \r\n    }    \r\n\r\n    struct kyc{\r\n        string identity;\r\n        string videokyc;\r\n        string docs;\r\n    }\r\n\r\n    // AMLA score to pass\r\n    uint256 private passScore;\r\n\r\n    //mapping of client address to user attributes\r\n    mapping(address => user) private clients;\r\n\r\n    mapping(address => kyc) private kycDocs;\r\n\r\n    //storing users for each country\r\n    mapping(bytes32 => address[]) private usersbyCountry;\r\n\r\n    //mapping of client to manager\r\n    mapping(address => address) private managers;\r\n\r\n    //mapping of a manager to its sub managers\r\n    mapping(address=> role) private roles;\r\n\r\n    //storing submanagers\r\n    address[] private submanagers;\r\n\r\n    //submanager index\r\n    mapping(address => uint256) private managerIndex;\r\n\r\n    //custody account for managers\r\n    mapping(address => custodian[]) private accounts;\r\n\r\n    //custody account for users\r\n    mapping(address => bytes32) private custodyAccount;\r\n\r\n    event ManagerAdded(address manager, address indexed submanager, bytes32 role, bytes32 country, bytes32 managerId);\r\n    event ManagerRemoved(address manager, address indexed submanager, bytes32 role, bytes32 country);\r\n    event UserAdded(address client, bytes32 name, bytes32 accountid, bytes32 country, uint status);\r\n\r\n    function initialize(address _signer) public initializer{\r\n        Ownable.initialize(msg.sender);\r\n        bridge = _signer;\r\n    }\r\n\r\n    function setSigner(address _signer) external onlyOwner {\r\n        bridge = _signer;\r\n    }\r\n    \r\n    function addRole(address _manager, address _submanager, bytes32 _country, bytes32 _role, bytes32 _id, bytes32 _hashedMessage, uint8 _v, bytes32 _r, bytes32 _s) \r\n                            external {\r\n        bytes32 payloadHash = keccak256(abi.encode(_hashedMessage, \"L2toL1\"));\r\n        bytes32 messageHash = keccak256(abi.encodePacked(\"\\x19Ethereum Signed Message:\\n32\", payloadHash));\r\n        require(ecrecover(messageHash, _v, _r, _s)== bridge || msg.sender==bridge, \"Unauthorized access\");\r\n        require(_role==\"Custodian\" || _role==\"AM\" || _role==\"DP\" || _role==\"KYCAML\" || _role==\"Issuer\", \"Invalid manager type\");\r\n        require(_submanager!=owner(), \"Incorrect role addition\");\r\n        bool found = false;\r\n        uint length = submanagers.length;\r\n        for(uint256 i=0; i<length; i++){\r\n            if(submanagers[i]==_submanager)\r\n                found = true;\r\n        }\r\n        if(!found){\r\n            submanagers.push(_submanager);\r\n            managerIndex[_submanager] = submanagers.length;\r\n            roles[_submanager].manager = _manager;\r\n            roles[_submanager].country = _country;\r\n            roles[_submanager].role = _role;\r\n            roles[_submanager].id = _id;\r\n            if(_role==\"KYCAML\")\r\n                assignManagerToUser(_submanager, _country);\r\n            emit ManagerAdded(_manager, _submanager, _role, _country, _id);\r\n        }\r\n    }\r\n\r\n    function getRole(address _user) external view returns(bytes32, bytes32, bytes32){\r\n        uint256 position = managerIndex[_user];\r\n        if(position>0){\r\n            if(submanagers[position-1]==_user){\r\n                return (roles[submanagers[position-1]].role, roles[submanagers[position-1]].id, roles[submanagers[position-1]].country);\r\n            }\r\n        }\r\n        if(_user==owner())\r\n            return (\"Admin\",\"\",\"\");\r\n        else\r\n            return (\"\",\"\",\"\");\r\n    }\r\n\r\n    function removeRole(address _manager, address _submanager, bytes32 _country, bytes32 _role, bytes32 _hashedMessage, uint8 _v, bytes32 _r, bytes32 _s) \r\n                            external {\r\n        bytes32 payloadHash = keccak256(abi.encode(_hashedMessage, \"L2toL1\"));\r\n        bytes32 messageHash = keccak256(abi.encodePacked(\"\\x19Ethereum Signed Message:\\n32\", payloadHash));\r\n        require(ecrecover(messageHash, _v, _r, _s)== bridge || msg.sender==bridge, \"Unauthorized access\");\r\n        require(_role==\"Custodian\" || _role==\"AM\" || _role==\"DP\" || _role==\"KYCAML\" || _role==\"Issuer\", \"Invalid manager type\");\r\n        uint256 position = managerIndex[_submanager];\r\n        if(position>0){\r\n            if( submanagers[position-1]==_submanager &&\r\n                roles[submanagers[position-1]].role==_role && \r\n                roles[submanagers[position-1]].country==_country &&\r\n                roles[submanagers[position-1]].manager==_manager){                \r\n                    roles[submanagers[position-1]].manager = address(0x0);\r\n                    roles[submanagers[position-1]].country = \"\";\r\n                    roles[submanagers[position-1]].role = \"\";\r\n                    roles[submanagers[position-1]].id = \"\";\r\n                    delete(submanagers[position-1]);\r\n            }\r\n        }\r\n        if(_role==\"KYCAML\")\r\n            unassignManagerFromUser(_submanager, _country);\r\n        emit ManagerRemoved(_manager, _submanager, _role, _country);\r\n    }   \r\n\r\n    function setAmlScore(address client, uint256 score) external {\r\n        require(bridge==msg.sender || managers[client]==msg.sender, \"Unauthorized access\");\r\n        clients[client].amlscore = score;\r\n    }\r\n\r\n    function setAmlPassScore(uint256 _score) external {\r\n        require(bridge==msg.sender, \"Unauthorized access\");\r\n        passScore = _score;\r\n    }   \r\n\r\n    function getAMLStatus(address client) external view returns(bool){\r\n        if(clients[client].amlscore!=0)\r\n            return clients[client].amlscore >= passScore ? true : false;\r\n        else\r\n            return true;\r\n    }\r\n\r\n    function setCreditScore(address client, uint256 score) external {\r\n        require(bridge==msg.sender || managers[client]==msg.sender, \"Unauthorized access\");\r\n        clients[client].amlscore = score;\r\n    }\r\n\r\n    function KycUpdate(address client, bytes32 name, bytes32 accountid, bytes32 country, bytes32 contact, uint status) external { //, bytes32 _hashedMessage, uint8 _v, bytes32 _r, bytes32 _s) external {\r\n        //bytes32 payloadHash = keccak256(abi.encode(_hashedMessage, \"L2toL1\"));\r\n        //bytes32 messageHash = keccak256(abi.encodePacked(\"\\x19Ethereum Signed Message:\\n32\", payloadHash));\r\n        require(/*ecrecover(messageHash, _v, _r, _s)== bridge*/ msg.sender==bridge || managers[client]==msg.sender || roles[msg.sender].role==\"KYCAML\" /*|| msg.sender==bridge ||roles[msg.sender].country==clients[client].country*/, \"Unauthorized access\");\r\n        clients[client].name = name;\r\n        clients[client].accountid = accountid;\r\n        clients[client].kycstatus = status;\r\n        clients[client].country = country;\r\n        clients[client].contact = contact;\r\n        usersbyCountry[country].push(client);\r\n        matchManagerToClient(client, country);\r\n        emit UserAdded(client, name, accountid, country, status);\r\n    }\r\n\r\n    function getClientKYC(address client) external view returns(bytes32, bytes32, bytes32, uint256, bytes32, uint256, uint256){\r\n        require(msg.sender==bridge || msg.sender==client || managers[client]==msg.sender || roles[msg.sender].role==\"KYCAML\" \r\n                || roles[msg.sender].role==\"AM\" || roles[msg.sender].role==\"DP\" || roles[msg.sender].role==\"Issuer\" || roles[msg.sender].role==\"Custodian\", \"Unauthorized access to check KYC\");\r\n        return (clients[client].name, \r\n                clients[client].accountid, \r\n                clients[client].country, \r\n                clients[client].kycstatus, \r\n                clients[client].contact,\r\n                clients[client].creditScore,\r\n                clients[client].amlscore);\r\n    }\r\n\r\n    function fullKycUpdate(address client, string calldata identity, string calldata videokyc, string calldata docs/*, bytes32 _hashedMessage, uint8 _v, bytes32 _r, bytes32 _s*/) external {\r\n        //bytes32 payloadHash = keccak256(abi.encode(_hashedMessage, \"L2toL1\"));\r\n        //bytes32 messageHash = keccak256(abi.encodePacked(\"\\x19Ethereum Signed Message:\\n32\", payloadHash));\r\n        require(/*ecrecover(messageHash, _v, _r, _s)== bridge ||*/ msg.sender==bridge || managers[client]==msg.sender || roles[msg.sender].role==\"KYCAML\"/*||roles[msg.sender].country==clients[client].country*/, \"Unauthorized access\");\r\n        kycDocs[client].identity = identity;\r\n        kycDocs[client].videokyc = videokyc;\r\n        kycDocs[client].docs = docs;\r\n    }\r\n\r\n    function getFullClientKYC(address client) external view returns(bytes32, string memory, string memory, string memory){\r\n        require(msg.sender==bridge || msg.sender==client || managers[client]==msg.sender || roles[msg.sender].role==\"KYCAML\", \"Unauthorized access to check KYC\");\r\n        return (\r\n                clients[client].contact,\r\n                kycDocs[client].identity,\r\n                kycDocs[client].videokyc,\r\n                kycDocs[client].docs\r\n            );\r\n    } \r\n\r\n    function matchManagerToClient(address client, bytes32 country) private {\r\n        uint length = submanagers.length;\r\n        for(uint256 i=0; i<length; i++){\r\n            if(roles[submanagers[i]].country==country && roles[submanagers[i]].role==\"KYCAML\"){\r\n                managers[client] = submanagers[i];\r\n            }\r\n        }\r\n    }\r\n\r\n    function unassignManagerFromUser(address _submanager, bytes32 _country) private {\r\n        uint length = usersbyCountry[_country].length;\r\n        for(uint256 i=0; i<length; i++){\r\n            if(managers[usersbyCountry[_country][i]]==_submanager)\r\n                managers[usersbyCountry[_country][i]] = address(0x0);\r\n        }\r\n    }\r\n\r\n    function assignManagerToUser(address _submanager, bytes32 _country) private {\r\n        uint length = usersbyCountry[_country].length;\r\n        for(uint256 i=0; i<length; i++){\r\n            if(managers[usersbyCountry[_country][i]]==address(0x0))\r\n                managers[usersbyCountry[_country][i]] = _submanager;\r\n        }\r\n    }\r\n\r\n    /**\r\n        Gets DP id\r\n        @param  party         reference to the party or counterparty in a trade\r\n     */\r\n    function getTransferAgent(address party) external view returns(bytes32){\r\n        return roles[party].id;\r\n    }\r\n\r\n    function getManagers(bytes32 _country, bytes32 _role) external view returns(address[] memory){\r\n        address[] memory sm = new address[](submanagers.length);\r\n        uint256 j=0;\r\n        uint length = submanagers.length;\r\n        for(uint256 i=0; i<length; i++){\r\n            if(roles[submanagers[i]].country==_country && roles[submanagers[i]].role==_role){\r\n                sm[j] = submanagers[i];\r\n                j=j+1;\r\n            }\r\n        }\r\n        return sm;\r\n    }\r\n\r\n    function setCustodyAccount(address _submanager, bytes32 _currency, bytes32 _accountId) external {\r\n        require(msg.sender==_submanager, \"Unauthorized access\");\r\n        bool found = false;\r\n        if(roles[_submanager].country!=\"\"){\r\n            uint length = accounts[_submanager].length;\r\n            for(uint256 i=0; i<length; i++){\r\n                if(accounts[_submanager][i].currency==_currency){\r\n                    accounts[_submanager][i].account = _accountId;\r\n                    found = true;\r\n                }\r\n            }\r\n        }\r\n        if(!found){\r\n            VerifiedClient.custodian memory c = VerifiedClient.custodian({\r\n                currency : _currency,\r\n                account : _accountId\r\n            });\r\n            accounts[_submanager].push(c);\r\n        }            \r\n    }\r\n\r\n    function getCustodyAccount(address _submanager) external view returns(custodian[] memory){\r\n        return accounts[_submanager];\r\n    }\r\n\r\n    function setCustody(address userAddress, bytes32 accountId) external{\r\n        require(msg.sender==userAddress || msg.sender==bridge, \"Unauthorized access\");\r\n        custodyAccount[userAddress] = accountId;\r\n    }\r\n\r\n    function getCustody(address userAddress) external view returns(bytes32){\r\n        return custodyAccount[userAddress];\r\n    }\r\n\r\n}",
  "sourcePath": "D:\\Code\\verified-securities\\contracts\\Client.sol",
  "compiler": {
    "name": "solc",
    "version": "0.5.7+commit.6da8b019.Emscripten.clang"
  },
  "schemaVersion": "3.4.3",
  "updatedAt": "2023-05-08T17:41:16.208Z",
  "networkType": "ethereum",
  "devdoc": {
    "methods": {
      "getTransferAgent(address)": {
        "params": {
          "party": "reference to the party or counterparty in a trade\r"
        }
      },
      "isOwner()": {
        "details": "Returns true if the caller is the current owner."
      },
      "owner()": {
        "details": "Returns the address of the current owner."
      },
      "renounceOwnership()": {
        "details": "Leaves the contract without owner. It will not be possible to call `onlyOwner` functions anymore. Can only be called by the current owner.     * > Note: Renouncing ownership will leave the contract without an owner, thereby removing any functionality that is only available to the owner."
      },
      "transferOwnership(address)": {
        "details": "Transfers ownership of the contract to a new account (`newOwner`). Can only be called by the current owner."
      }
    }
  },
  "userdoc": {
    "methods": {
      "getTransferAgent(address)": {
        "notice": "Gets DP id\r"
      }
    }
  }
}