{
  "address": "0x5Fa13D42450eAEB37E789a77fbb9fD14a21C1338",
  "abi": [
    {
      "inputs": [
        {
          "internalType": "address",
          "name": "_cecActor",
          "type": "address"
        },
        {
          "internalType": "contract ICECRegistry",
          "name": "_cecRegistry",
          "type": "address"
        }
      ],
      "stateMutability": "nonpayable",
      "type": "constructor"
    },
    {
      "anonymous": false,
      "inputs": [
        {
          "indexed": true,
          "internalType": "bytes32",
          "name": "assetId",
          "type": "bytes32"
        },
        {
          "indexed": false,
          "internalType": "address",
          "name": "collateralizer",
          "type": "address"
        },
        {
          "indexed": false,
          "internalType": "uint256",
          "name": "collateralAmount",
          "type": "uint256"
        }
      ],
      "name": "LockedCollateral",
      "type": "event"
    },
    {
      "anonymous": false,
      "inputs": [
        {
          "indexed": true,
          "internalType": "bytes32",
          "name": "assetId",
          "type": "bytes32"
        },
        {
          "indexed": false,
          "internalType": "address",
          "name": "collateralizer",
          "type": "address"
        },
        {
          "indexed": false,
          "internalType": "uint256",
          "name": "returnedAmount",
          "type": "uint256"
        }
      ],
      "name": "ReturnedCollateral",
      "type": "event"
    },
    {
      "inputs": [],
      "name": "cecActor",
      "outputs": [
        {
          "internalType": "address",
          "name": "",
          "type": "address"
        }
      ],
      "stateMutability": "view",
      "type": "function"
    },
    {
      "inputs": [],
      "name": "cecRegistry",
      "outputs": [
        {
          "internalType": "contract ICECRegistry",
          "name": "",
          "type": "address"
        }
      ],
      "stateMutability": "view",
      "type": "function"
    },
    {
      "inputs": [
        {
          "internalType": "bytes32",
          "name": "object",
          "type": "bytes32"
        }
      ],
      "name": "decodeCollateralObject",
      "outputs": [
        {
          "internalType": "address",
          "name": "",
          "type": "address"
        },
        {
          "internalType": "uint256",
          "name": "",
          "type": "uint256"
        }
      ],
      "stateMutability": "pure",
      "type": "function"
    },
    {
      "inputs": [
        {
          "internalType": "address",
          "name": "collateralToken",
          "type": "address"
        },
        {
          "internalType": "uint256",
          "name": "collateralAmount",
          "type": "uint256"
        }
      ],
      "name": "encodeCollateralAsObject",
      "outputs": [
        {
          "internalType": "bytes32",
          "name": "",
          "type": "bytes32"
        }
      ],
      "stateMutability": "pure",
      "type": "function"
    },
    {
      "inputs": [
        {
          "internalType": "bytes32",
          "name": "assetId",
          "type": "bytes32"
        },
        {
          "components": [
            {
              "internalType": "enum ContractType",
              "name": "contractType",
              "type": "uint8"
            },
            {
              "internalType": "enum Calendar",
              "name": "calendar",
              "type": "uint8"
            },
            {
              "internalType": "enum ContractRole",
              "name": "contractRole",
              "type": "uint8"
            },
            {
              "internalType": "enum DayCountConvention",
              "name": "dayCountConvention",
              "type": "uint8"
            },
            {
              "internalType": "enum BusinessDayConvention",
              "name": "businessDayConvention",
              "type": "uint8"
            },
            {
              "internalType": "enum EndOfMonthConvention",
              "name": "endOfMonthConvention",
              "type": "uint8"
            },
            {
              "internalType": "enum ContractPerformance",
              "name": "creditEventTypeCovered",
              "type": "uint8"
            },
            {
              "internalType": "enum FeeBasis",
              "name": "feeBasis",
              "type": "uint8"
            },
            {
              "internalType": "uint256",
              "name": "statusDate",
              "type": "uint256"
            },
            {
              "internalType": "uint256",
              "name": "maturityDate",
              "type": "uint256"
            },
            {
              "internalType": "int256",
              "name": "notionalPrincipal",
              "type": "int256"
            },
            {
              "internalType": "int256",
              "name": "feeRate",
              "type": "int256"
            },
            {
              "internalType": "int256",
              "name": "coverageOfCreditEnhancement",
              "type": "int256"
            },
            {
              "components": [
                {
                  "internalType": "bytes32",
                  "name": "object",
                  "type": "bytes32"
                },
                {
                  "internalType": "bytes32",
                  "name": "object2",
                  "type": "bytes32"
                },
                {
                  "internalType": "enum ContractReferenceType",
                  "name": "_type",
                  "type": "uint8"
                },
                {
                  "internalType": "enum ContractReferenceRole",
                  "name": "role",
                  "type": "uint8"
                }
              ],
              "internalType": "struct ContractReference",
              "name": "contractReference_1",
              "type": "tuple"
            },
            {
              "components": [
                {
                  "internalType": "bytes32",
                  "name": "object",
                  "type": "bytes32"
                },
                {
                  "internalType": "bytes32",
                  "name": "object2",
                  "type": "bytes32"
                },
                {
                  "internalType": "enum ContractReferenceType",
                  "name": "_type",
                  "type": "uint8"
                },
                {
                  "internalType": "enum ContractReferenceRole",
                  "name": "role",
                  "type": "uint8"
                }
              ],
              "internalType": "struct ContractReference",
              "name": "contractReference_2",
              "type": "tuple"
            }
          ],
          "internalType": "struct CECTerms",
          "name": "terms",
          "type": "tuple"
        },
        {
          "components": [
            {
              "internalType": "address",
              "name": "creatorObligor",
              "type": "address"
            },
            {
              "internalType": "address",
              "name": "creatorBeneficiary",
              "type": "address"
            },
            {
              "internalType": "address",
              "name": "counterpartyObligor",
              "type": "address"
            },
            {
              "internalType": "address",
              "name": "counterpartyBeneficiary",
              "type": "address"
            }
          ],
          "internalType": "struct AssetOwnership",
          "name": "ownership",
          "type": "tuple"
        }
      ],
      "name": "lockCollateral",
      "outputs": [
        {
          "internalType": "bool",
          "name": "",
          "type": "bool"
        }
      ],
      "stateMutability": "nonpayable",
      "type": "function"
    },
    {
      "inputs": [
        {
          "internalType": "bytes32",
          "name": "assetId",
          "type": "bytes32"
        }
      ],
      "name": "returnCollateral",
      "outputs": [
        {
          "internalType": "bool",
          "name": "",
          "type": "bool"
        }
      ],
      "stateMutability": "nonpayable",
      "type": "function"
    }
  ],
  "transactionHash": "0xb3cca185a6afdaaa481900d89ecedbabf81300fd8b9c98b11cfc6fb13ad21fb1",
  "args": [
    "0x3145f54472A23Ee9171d4ab17B57AAffB5b71426",
    "0x9B0d69B3D329CcAC710efcF9Ba14718129C7C82f"
  ],
  "solcInputHash": "37e2a100a6f868553298dee57e286371",
  "bytecode": "0x608060405234801561001057600080fd5b506040516112f73803806112f783398101604081905261002f91610065565b6001600081905580546001600160a01b039384166001600160a01b031991821617909155600280549290931691161790556100b6565b60008060408385031215610077578182fd5b82516100828161009e565b60208401519092506100938161009e565b809150509250929050565b6001600160a01b03811681146100b357600080fd5b50565b611232806100c56000396000f3fe608060405234801561001057600080fd5b50600436106100625760003560e01c806344c4ea9514610067578063645a26bd146100905780636778e0e9146100b1578063b5b904ab146100d1578063bceeadb9146100e6578063f1acef64146100ee575b600080fd5b61007a610075366004610dac565b610101565b6040516100879190610fe6565b60405180910390f35b6100a361009e366004610dac565b6104b8565b604051610087929190610fcd565b6100c46100bf366004610d81565b6104d1565b6040516100879190610ff1565b6100d96104f8565b6040516100879190610fb9565b6100d9610507565b61007a6100fc366004610dc4565b610516565b60008181526003602052604081205460ff16151560011461013d5760405162461bcd60e51b81526004016101349061103d565b60405180910390fd5b60025460405163ecef557760e01b81526000916001600160a01b03169063ecef55779061016e90869060040161101f565b60206040518083038186803b15801561018657600080fd5b505afa15801561019a573d6000803e3d6000fd5b505050506040513d601f19601f820116820180604052508101906101be9190610f98565b60ff16600c8111156101cc57fe5b90506101d6610cca565b600254604051635e353ebb60e11b81526001600160a01b039091169063bc6a7d7690610206908790600401610ffa565b60806040518083038186803b15801561021e57600080fd5b505afa158015610232573d6000803e3d6000fd5b505050506040513d601f19601f820116820180604052508101906102569190610f36565b9050610260610cf1565b6002546040516309648a9d60e01b81526001600160a01b03909116906309648a9d90610290908890600401610ff1565b60e06040518083038186803b1580156102a857600080fd5b505afa1580156102bc573d6000803e3d6000fd5b505050506040513d601f19601f820116820180604052508101906102e09190610eb4565b90506102ea610d2f565b60025460405163e50e0ef760e01b81526001600160a01b039091169063e50e0ef79061031a908990600401610ff1565b60806040518083038186803b15801561033257600080fd5b505afa158015610346573d6000803e3d6000fd5b505050506040513d601f19601f8201168201806040525081019061036a9190610e36565b90506000600685600c81111561037c57fe5b1461038b578160200151610391565b81606001515b90506000806103a386600001516104b8565b915091506000808660600151146103e6576103df60008760c0015112156103d2578660c00151600019026103d8565b8660c001515b83906106de565b905061043e565b606086015115801561041a575060048651600581111561040257fe5b148061041a575060058651600581111561041857fe5b145b1561042657508061043e565b60405162461bcd60e51b8152600401610134906110dc565b600154610458906001600160a01b03858116911683610727565b61046c6001600160a01b0384168583610824565b897f4131d43c7bc220691dd088c228cd19fcafb66a0d9abeab4d8893e3db4e480ca2858360405161049e929190610fcd565b60405180910390a26001985050505050505050505b919050565b606081901c6bffffffffffffffffffffffff8216915091565b6bffffffffffffffffffffffff1660609190911b6bffffffffffffffffffffffff19161790565b6002546001600160a01b031681565b6001546001600160a01b031681565b6000600661052a6060850160408601610e17565b600c81111561053557fe5b148061055b5750600761054e6060850160408601610e17565b600c81111561055957fe5b145b6105775760405162461bcd60e51b81526004016101349061108d565b60066105896060850160408601610e17565b600c81111561059457fe5b146105b657306105a76020840184610d65565b6001600160a01b0316146105d2565b306105c76060840160408501610d65565b6001600160a01b0316145b6105ee5760405162461bcd60e51b815260040161013490611139565b600060066106026060860160408701610e17565b600c81111561060d57fe5b14610627576106226040840160208501610d65565b610637565b6106376080840160608501610d65565b905060008061064a6102208701356104b8565b6000898152600360205260409020805460ff19166001179055909250905061067d6001600160a01b03831684308461087b565b600154610697906001600160a01b038481169116836108d5565b867ffe470e985a95a6aaad262a20cf968addf9489c083d8659cde642f329d561a4e484836040516106c9929190610fcd565b60405180910390a25060019695505050505050565b600061072083836040518060400160405280601e81526020017f536166654d6174683a207375627472616374696f6e206f766572666c6f77000081525061096b565b9392505050565b60006107c9826040518060600160405280602981526020016111aa6029913960408051636eb1769f60e11b81523060048201526001600160a01b03888116602483015291519189169163dd62ed3e91604480820192602092909190829003018186803b15801561079657600080fd5b505afa1580156107aa573d6000803e3d6000fd5b505050506040513d60208110156107c057600080fd5b5051919061096b565b604080516001600160a01b038616602482015260448082018490528251808303909101815260649091019091526020810180516001600160e01b031663095ea7b360e01b17905290915061081e908590610a02565b50505050565b604080516001600160a01b038416602482015260448082018490528251808303909101815260649091019091526020810180516001600160e01b031663a9059cbb60e01b179052610876908490610a02565b505050565b604080516001600160a01b0380861660248301528416604482015260648082018490528251808303909101815260849091019091526020810180516001600160e01b03166323b872dd60e01b17905261081e908590610a02565b60006107c982856001600160a01b031663dd62ed3e30876040518363ffffffff1660e01b815260040180836001600160a01b03168152602001826001600160a01b031681526020019250505060206040518083038186803b15801561093957600080fd5b505afa15801561094d573d6000803e3d6000fd5b505050506040513d602081101561096357600080fd5b505190610ab3565b600081848411156109fa5760405162461bcd60e51b81526004018080602001828103825283818151815260200191508051906020019080838360005b838110156109bf5781810151838201526020016109a7565b50505050905090810190601f1680156109ec5780820380516001836020036101000a031916815260200191505b509250505060405180910390fd5b505050900390565b6060610a57826040518060400160405280602081526020017f5361666545524332303a206c6f772d6c6576656c2063616c6c206661696c6564815250856001600160a01b0316610b0d9092919063ffffffff16565b80519091501561087657808060200190516020811015610a7657600080fd5b50516108765760405162461bcd60e51b815260040180806020018281038252602a8152602001806111d3602a913960400191505060405180910390fd5b600082820183811015610720576040805162461bcd60e51b815260206004820152601b60248201527f536166654d6174683a206164646974696f6e206f766572666c6f770000000000604482015290519081900360640190fd5b6060610b1c8484600085610b24565b949350505050565b6060610b2f85610c91565b610b80576040805162461bcd60e51b815260206004820152601d60248201527f416464726573733a2063616c6c20746f206e6f6e2d636f6e7472616374000000604482015290519081900360640190fd5b60006060866001600160a01b031685876040518082805190602001908083835b60208310610bbf5780518252601f199092019160209182019101610ba0565b6001836020036101000a03801982511681845116808217855250505050505090500191505060006040518083038185875af1925050503d8060008114610c21576040519150601f19603f3d011682016040523d82523d6000602084013e610c26565b606091505b50915091508115610c3a579150610b1c9050565b805115610c4a5780518082602001fd5b60405162461bcd60e51b81526020600482018181528651602484015286518793919283926044019190850190808383600083156109bf5781810151838201526020016109a7565b6000813f7fc5d2460186f7233c927e7db2dcc703c0e500b653ca82273b7bfad8045d85a470818114801590610b1c575050151592915050565b60408051608081018252600080825260208201819052909182019081526020016000905290565b6040805160e0810190915280600081526020016000815260200160008152602001600081526020016000815260200160008152602001600081525090565b60408051608081018252600080825260208201819052918101829052606081019190915290565b8051600681106104b357600080fd5b600060208284031215610d76578081fd5b813561072081611184565b60008060408385031215610d93578081fd5b8235610d9e81611184565b946020939093013593505050565b600060208284031215610dbd578081fd5b5035919050565b6000806000838503610340811215610dda578182fd5b843593506102a0601f1982011215610df0578182fd5b60208501925060806102bf1982011215610e08578182fd5b506102c0840190509250925092565b600060208284031215610e28578081fd5b8135600d8110610720578182fd5b600060808284031215610e47578081fd5b6040516080810181811067ffffffffffffffff82111715610e6457fe5b6040528251610e7281611184565b81526020830151610e8281611184565b60208201526040830151610e9581611184565b60408201526060830151610ea881611184565b60608201529392505050565b600060e08284031215610ec5578081fd5b60405160e0810181811067ffffffffffffffff82111715610ee257fe5b604052610eee83610d56565b81526020830151602082015260408301516040820152606083015160608201526080830151608082015260a083015160a082015260c083015160c08201528091505092915050565b600060808284031215610f47578081fd5b6040516080810181811067ffffffffffffffff82111715610f6457fe5b806040525082518152602083015160208201526040830151610f858161119c565b60408201526060830151610ea88161119c565b600060208284031215610fa9578081fd5b815160ff81168114610720578182fd5b6001600160a01b0391909116815260200190565b6001600160a01b03929092168252602082015260400190565b901515815260200190565b90815260200190565b9081527231b7b73a3930b1ba2932b332b932b731b2af9960691b602082015260400190565b9081526b636f6e7472616374526f6c6560a01b602082015260400190565b60208082526030908201527f437573746f6469616e2e72657475726e436f6c6c61746572616c3a20454e545260408201526f1657d113d154d7d393d517d1561254d560821b606082015260800190565b6020808252602f908201527f437573746f6469616e2e6c6f636b436f6c6c61746572616c3a20494e56414c4960408201526e445f434f4e54524143545f524f4c4560881b606082015260800190565b6020808252603a908201527f437573746f6469616e2e72657475726e436f6c6c61746572616c3a20434f4c4c60408201527f41544552414c5f43414e5f4e4f545f42455f52455455524e4544000000000000606082015260800190565b6020808252602b908201527f437573746f6469616e2e6c6f636b436f6c6c61746572616c3a20494e56414c4960408201526a0445f4f574e4552534849560ac1b606082015260800190565b6001600160a01b038116811461119957600080fd5b50565b6005811061119957600080fdfe5361666545524332303a2064656372656173656420616c6c6f77616e63652062656c6f77207a65726f5361666545524332303a204552433230206f7065726174696f6e20646964206e6f742073756363656564a2646970667358221220bbd1182b75f89b6ee8031acaf98f8b9749dcc8c89b377c95b166e8de7666915064736f6c63430007040033",
  "devdoc": {
    "kind": "dev",
    "methods": {
      "lockCollateral(bytes32,(uint8,uint8,uint8,uint8,uint8,uint8,uint8,uint8,uint256,uint256,int256,int256,int256,(bytes32,bytes32,uint8,uint8),(bytes32,bytes32,uint8,uint8)),(address,address,address,address))": {
        "details": "The collateralizer has to set allowance beforehand. The custodian increases allowance for the AssetActor by amount of collateral",
        "params": {
          "assetId": "id of the asset with collateral requirements",
          "ownership": "ownership of the asset",
          "terms": "terms of the asset containing the collateral requirements"
        },
        "returns": {
          "_0": "true if the collateral was locked by the Custodian"
        }
      },
      "returnCollateral(bytes32)": {
        "details": "resets allowance for the Asset Actor, reverts if state of the asset does not allow unlocking the collateral",
        "params": {
          "assetId": "id of the asset for which to return the collateral,"
        },
        "returns": {
          "_0": "true if the collateral was returned to the collateralizer"
        }
      }
    },
    "title": "Custodian",
    "version": 1
  },
  "userdoc": {
    "kind": "user",
    "methods": {
      "lockCollateral(bytes32,(uint8,uint8,uint8,uint8,uint8,uint8,uint8,uint8,uint256,uint256,int256,int256,int256,(bytes32,bytes32,uint8,uint8),(bytes32,bytes32,uint8,uint8)),(address,address,address,address))": {
        "notice": "Locks the required collateral amount encoded in the second contract reference in the terms."
      },
      "returnCollateral(bytes32)": {
        "notice": "Returns the entire collateral back to the collateralizer if collateral was not executed before the asset reached maturity or it returns the remaining collateral (not executed amount) after collateral was executed and settled"
      }
    },
    "notice": "Contract which holds the collateral of CEC (Credit Enhancement Collateral) assets.",
    "version": 1
  },
  "storageLayout": {
    "storage": [
      {
        "astId": 1609,
        "contract": "contracts/Core/Base/Custodian/Custodian.sol:Custodian",
        "label": "_status",
        "offset": 0,
        "slot": "0",
        "type": "t_uint256"
      },
      {
        "astId": 28704,
        "contract": "contracts/Core/Base/Custodian/Custodian.sol:Custodian",
        "label": "cecActor",
        "offset": 0,
        "slot": "1",
        "type": "t_address"
      },
      {
        "astId": 28706,
        "contract": "contracts/Core/Base/Custodian/Custodian.sol:Custodian",
        "label": "cecRegistry",
        "offset": 0,
        "slot": "2",
        "type": "t_contract(ICECRegistry)32346"
      },
      {
        "astId": 28710,
        "contract": "contracts/Core/Base/Custodian/Custodian.sol:Custodian",
        "label": "collateral",
        "offset": 0,
        "slot": "3",
        "type": "t_mapping(t_bytes32,t_bool)"
      }
    ],
    "types": {
      "t_address": {
        "encoding": "inplace",
        "label": "address",
        "numberOfBytes": "20"
      },
      "t_bool": {
        "encoding": "inplace",
        "label": "bool",
        "numberOfBytes": "1"
      },
      "t_bytes32": {
        "encoding": "inplace",
        "label": "bytes32",
        "numberOfBytes": "32"
      },
      "t_contract(ICECRegistry)32346": {
        "encoding": "inplace",
        "label": "contract ICECRegistry",
        "numberOfBytes": "20"
      },
      "t_mapping(t_bytes32,t_bool)": {
        "encoding": "mapping",
        "key": "t_bytes32",
        "label": "mapping(bytes32 => bool)",
        "numberOfBytes": "32",
        "value": "t_bool"
      },
      "t_uint256": {
        "encoding": "inplace",
        "label": "uint256",
        "numberOfBytes": "32"
      }
    }
  }
}