{
  "contractName": "Issues",
  "abi": [
    {
      "anonymous": false,
      "inputs": [
        {
          "indexed": false,
          "name": "issueSize",
          "type": "uint256"
        },
        {
          "indexed": false,
          "name": "offerPrice",
          "type": "uint256"
        },
        {
          "indexed": false,
          "name": "minAskPrice",
          "type": "uint256"
        },
        {
          "indexed": false,
          "name": "minSubscription",
          "type": "uint256"
        },
        {
          "indexed": false,
          "name": "currency",
          "type": "bytes32"
        },
        {
          "indexed": false,
          "name": "security",
          "type": "address"
        },
        {
          "indexed": false,
          "name": "offerType",
          "type": "bytes32"
        },
        {
          "indexed": false,
          "name": "isin",
          "type": "bytes32"
        },
        {
          "indexed": false,
          "name": "status",
          "type": "bytes32"
        },
        {
          "indexed": false,
          "name": "productCategory",
          "type": "bytes32"
        }
      ],
      "name": "issued",
      "type": "event"
    },
    {
      "anonymous": false,
      "inputs": [
        {
          "indexed": false,
          "name": "security",
          "type": "address"
        },
        {
          "indexed": false,
          "name": "status",
          "type": "bytes32"
        }
      ],
      "name": "offered",
      "type": "event"
    },
    {
      "anonymous": false,
      "inputs": [
        {
          "indexed": false,
          "name": "security",
          "type": "address"
        },
        {
          "indexed": false,
          "name": "status",
          "type": "bytes32"
        }
      ],
      "name": "opened",
      "type": "event"
    },
    {
      "anonymous": false,
      "inputs": [
        {
          "indexed": false,
          "name": "security",
          "type": "address"
        },
        {
          "indexed": false,
          "name": "status",
          "type": "bytes32"
        }
      ],
      "name": "closed",
      "type": "event"
    },
    {
      "anonymous": false,
      "inputs": [
        {
          "indexed": false,
          "name": "security",
          "type": "address"
        },
        {
          "indexed": false,
          "name": "status",
          "type": "bytes32"
        }
      ],
      "name": "allotted",
      "type": "event"
    },
    {
      "constant": false,
      "inputs": [
        {
          "name": "_productReference",
          "type": "bytes32"
        },
        {
          "name": "_productCategory",
          "type": "bytes32"
        },
        {
          "name": "_issuer",
          "type": "address"
        },
        {
          "name": "_registrar",
          "type": "address"
        },
        {
          "name": "_owner",
          "type": "address"
        },
        {
          "name": "_securityContract",
          "type": "address"
        },
        {
          "name": "_securityRegistriesContract",
          "type": "address"
        },
        {
          "name": "_viaFactoryContract",
          "type": "address"
        }
      ],
      "name": "initialize",
      "outputs": [],
      "payable": false,
      "stateMutability": "nonpayable",
      "type": "function"
    },
    {
      "constant": true,
      "inputs": [],
      "name": "getOwner",
      "outputs": [
        {
          "name": "",
          "type": "address"
        }
      ],
      "payable": false,
      "stateMutability": "view",
      "type": "function"
    },
    {
      "constant": false,
      "inputs": [
        {
          "name": "_issueSize",
          "type": "uint256"
        },
        {
          "name": "_offerPrice",
          "type": "uint256"
        },
        {
          "name": "_minAskPrice",
          "type": "uint256"
        },
        {
          "name": "_minSubscription",
          "type": "uint256"
        },
        {
          "name": "_currency",
          "type": "bytes32"
        },
        {
          "name": "_offerType",
          "type": "bytes32"
        },
        {
          "name": "_isin",
          "type": "bytes32"
        },
        {
          "name": "_offeringDocuments",
          "type": "string"
        }
      ],
      "name": "issueShare",
      "outputs": [],
      "payable": false,
      "stateMutability": "nonpayable",
      "type": "function"
    },
    {
      "constant": true,
      "inputs": [],
      "name": "getShare",
      "outputs": [
        {
          "components": [
            {
              "name": "issueSize",
              "type": "uint256"
            },
            {
              "name": "faceValue",
              "type": "uint256"
            },
            {
              "name": "offerPrice",
              "type": "uint256"
            },
            {
              "name": "minAskPrice",
              "type": "uint256"
            },
            {
              "name": "minSubscription",
              "type": "uint256"
            },
            {
              "name": "currency",
              "type": "bytes32"
            },
            {
              "name": "security",
              "type": "address"
            }
          ],
          "name": "",
          "type": "tuple[]"
        },
        {
          "components": [
            {
              "name": "offerType",
              "type": "bytes32"
            },
            {
              "name": "isin",
              "type": "bytes32"
            },
            {
              "name": "status",
              "type": "bytes32"
            },
            {
              "name": "offeringDocuments",
              "type": "string"
            }
          ],
          "name": "",
          "type": "tuple"
        }
      ],
      "payable": false,
      "stateMutability": "view",
      "type": "function"
    },
    {
      "constant": false,
      "inputs": [
        {
          "name": "_issueSize",
          "type": "uint256"
        },
        {
          "name": "_offerPrice",
          "type": "uint256"
        },
        {
          "name": "_minAskPrice",
          "type": "uint256"
        },
        {
          "name": "_minSubscription",
          "type": "uint256"
        },
        {
          "name": "_couponPaymentCycle",
          "type": "uint256"
        },
        {
          "name": "_tenure",
          "type": "uint256"
        },
        {
          "name": "_currency",
          "type": "bytes32"
        },
        {
          "name": "_offerType",
          "type": "bytes32"
        },
        {
          "name": "_isin",
          "type": "bytes32"
        },
        {
          "name": "_offeringDocuments",
          "type": "string"
        }
      ],
      "name": "issueBond",
      "outputs": [],
      "payable": false,
      "stateMutability": "nonpayable",
      "type": "function"
    },
    {
      "constant": true,
      "inputs": [],
      "name": "getBond",
      "outputs": [
        {
          "components": [
            {
              "name": "issueSize",
              "type": "uint256"
            },
            {
              "name": "coupon",
              "type": "uint256"
            },
            {
              "name": "offerPrice",
              "type": "uint256"
            },
            {
              "name": "minAskPrice",
              "type": "uint256"
            },
            {
              "name": "minSubscription",
              "type": "uint256"
            },
            {
              "name": "currency",
              "type": "bytes32"
            },
            {
              "name": "security",
              "type": "address"
            }
          ],
          "name": "",
          "type": "tuple[]"
        },
        {
          "components": [
            {
              "name": "offerType",
              "type": "bytes32"
            },
            {
              "name": "couponPaymentCycle",
              "type": "uint256"
            },
            {
              "name": "tenure",
              "type": "uint256"
            },
            {
              "name": "isin",
              "type": "bytes32"
            },
            {
              "name": "status",
              "type": "bytes32"
            },
            {
              "name": "offeringDocuments",
              "type": "string"
            }
          ],
          "name": "",
          "type": "tuple"
        }
      ],
      "payable": false,
      "stateMutability": "view",
      "type": "function"
    },
    {
      "constant": false,
      "inputs": [
        {
          "name": "_liquidityPlatform",
          "type": "address"
        }
      ],
      "name": "registerPlatform",
      "outputs": [],
      "payable": false,
      "stateMutability": "nonpayable",
      "type": "function"
    },
    {
      "constant": false,
      "inputs": [],
      "name": "askOffers",
      "outputs": [],
      "payable": false,
      "stateMutability": "nonpayable",
      "type": "function"
    },
    {
      "constant": false,
      "inputs": [
        {
          "name": "cutOffTime",
          "type": "uint256"
        }
      ],
      "name": "startIssue",
      "outputs": [],
      "payable": false,
      "stateMutability": "nonpayable",
      "type": "function"
    },
    {
      "constant": false,
      "inputs": [
        {
          "name": "platform",
          "type": "address"
        },
        {
          "name": "isin",
          "type": "bytes32"
        }
      ],
      "name": "getLiquidityProviders",
      "outputs": [
        {
          "components": [
            {
              "name": "owner",
              "type": "address"
            },
            {
              "name": "amountOffered",
              "type": "uint256"
            },
            {
              "name": "amountDesired",
              "type": "uint256"
            },
            {
              "name": "min",
              "type": "uint256"
            }
          ],
          "name": "",
          "type": "tuple[]"
        }
      ],
      "payable": false,
      "stateMutability": "nonpayable",
      "type": "function"
    },
    {
      "constant": false,
      "inputs": [],
      "name": "getSubscribers",
      "outputs": [
        {
          "components": [
            {
              "name": "currency",
              "type": "bytes32"
            },
            {
              "name": "amount",
              "type": "uint256"
            },
            {
              "name": "price",
              "type": "uint256"
            },
            {
              "name": "poolid",
              "type": "bytes32"
            },
            {
              "name": "status",
              "type": "bool"
            },
            {
              "name": "platform",
              "type": "address"
            },
            {
              "name": "investor",
              "type": "address"
            },
            {
              "name": "asset",
              "type": "address"
            }
          ],
          "name": "",
          "type": "tuple[]"
        }
      ],
      "payable": false,
      "stateMutability": "nonpayable",
      "type": "function"
    },
    {
      "constant": false,
      "inputs": [
        {
          "name": "_allotment",
          "type": "bytes32"
        },
        {
          "name": "_platform",
          "type": "address"
        },
        {
          "name": "_pool",
          "type": "bytes32"
        },
        {
          "name": "_investor",
          "type": "address"
        },
        {
          "name": "_amount",
          "type": "uint256"
        },
        {
          "name": "_asset",
          "type": "address"
        }
      ],
      "name": "allotIssue",
      "outputs": [],
      "payable": false,
      "stateMutability": "nonpayable",
      "type": "function"
    },
    {
      "constant": true,
      "inputs": [],
      "name": "getBeneficiaries",
      "outputs": [
        {
          "name": "",
          "type": "address[]"
        }
      ],
      "payable": false,
      "stateMutability": "view",
      "type": "function"
    },
    {
      "constant": false,
      "inputs": [
        {
          "name": "_currency",
          "type": "address"
        }
      ],
      "name": "computeNextInstallment",
      "outputs": [
        {
          "name": "",
          "type": "uint256"
        }
      ],
      "payable": false,
      "stateMutability": "nonpayable",
      "type": "function"
    },
    {
      "constant": false,
      "inputs": [
        {
          "name": "_beneficiary",
          "type": "address"
        }
      ],
      "name": "getPaymentAmountFor",
      "outputs": [
        {
          "name": "",
          "type": "uint256"
        }
      ],
      "payable": false,
      "stateMutability": "nonpayable",
      "type": "function"
    },
    {
      "constant": false,
      "inputs": [
        {
          "name": "_beneficiary",
          "type": "address"
        }
      ],
      "name": "getPaymentStatusFor",
      "outputs": [
        {
          "components": [
            {
              "name": "currency",
              "type": "bytes32"
            },
            {
              "name": "amount",
              "type": "uint256"
            },
            {
              "name": "payoutDate",
              "type": "uint256"
            },
            {
              "name": "payer",
              "type": "address"
            }
          ],
          "name": "",
          "type": "tuple[]"
        }
      ],
      "payable": false,
      "stateMutability": "nonpayable",
      "type": "function"
    },
    {
      "constant": false,
      "inputs": [
        {
          "name": "_byTime",
          "type": "uint256"
        }
      ],
      "name": "isAllPaidFor",
      "outputs": [
        {
          "name": "",
          "type": "address[]"
        }
      ],
      "payable": false,
      "stateMutability": "nonpayable",
      "type": "function"
    },
    {
      "constant": false,
      "inputs": [],
      "name": "getDateOfIssue",
      "outputs": [
        {
          "name": "",
          "type": "uint256"
        },
        {
          "name": "",
          "type": "uint256"
        },
        {
          "name": "",
          "type": "uint256"
        }
      ],
      "payable": false,
      "stateMutability": "nonpayable",
      "type": "function"
    },
    {
      "constant": false,
      "inputs": [],
      "name": "getmaturityDate",
      "outputs": [
        {
          "name": "",
          "type": "uint256"
        },
        {
          "name": "",
          "type": "uint256"
        },
        {
          "name": "",
          "type": "uint256"
        }
      ],
      "payable": false,
      "stateMutability": "nonpayable",
      "type": "function"
    },
    {
      "constant": false,
      "inputs": [],
      "name": "getfirstCouponDate",
      "outputs": [
        {
          "name": "",
          "type": "uint256"
        },
        {
          "name": "",
          "type": "uint256"
        },
        {
          "name": "",
          "type": "uint256"
        }
      ],
      "payable": false,
      "stateMutability": "nonpayable",
      "type": "function"
    },
    {
      "constant": false,
      "inputs": [],
      "name": "computeNextCouponDate",
      "outputs": [
        {
          "name": "",
          "type": "uint256"
        },
        {
          "name": "",
          "type": "uint256"
        },
        {
          "name": "",
          "type": "uint256"
        }
      ],
      "payable": false,
      "stateMutability": "nonpayable",
      "type": "function"
    },
    {
      "constant": false,
      "inputs": [],
      "name": "getcouponFrequencyInMonths",
      "outputs": [
        {
          "name": "",
          "type": "uint256"
        }
      ],
      "payable": false,
      "stateMutability": "nonpayable",
      "type": "function"
    },
    {
      "constant": false,
      "inputs": [
        {
          "name": "_currency",
          "type": "address"
        }
      ],
      "name": "getinterestRateInBips",
      "outputs": [
        {
          "name": "",
          "type": "uint256"
        }
      ],
      "payable": false,
      "stateMutability": "nonpayable",
      "type": "function"
    },
    {
      "constant": false,
      "inputs": [
        {
          "name": "_beneficiary",
          "type": "address"
        },
        {
          "name": "_currency",
          "type": "bytes32"
        },
        {
          "name": "_amount",
          "type": "uint256"
        }
      ],
      "name": "payOut",
      "outputs": [],
      "payable": false,
      "stateMutability": "nonpayable",
      "type": "function"
    }
  ],
  "bytecode": "0x608060405234801561001057600080fd5b5061471a806100206000396000f3fe608060405234801561001057600080fd5b50600436106101585760003560e01c806375298734116100c3578063b43ea0661161007c578063b43ea066146102c7578063d3340fb6146102cf578063d6088981146102e2578063dc442029146102f5578063f010e2c2146102fd578063f76ebabb1461031057610158565b806375298734146102635780638415560014610279578063893d20e81461028c578063913b722c146102a1578063982b2568146102a9578063ac982472146102b157610158565b80634274515d116101155780634274515d146101de57806343af762f146101f35780634afc82bd1461021357806358ce1f79146102265780635e075a431461023957806366f2f9c01461025057610158565b806305cc61ad1461015d57806307c5ae701461017b5780631bafe1b91461019057806321ec2b42146101a357806323b83a5e146101b65780633cb4bd63146101d6575b600080fd5b610165610330565b6040516101729190614437565b60405180910390f35b61018e610189366004613ac8565b610a53565b005b61018e61019e366004613973565b610d8d565b61018e6101b1366004613b94565b611132565b6101c96101c4366004613aaa565b611477565b60405161017291906143dc565b61018e6115ef565b6101e6611dde565b604051610172919061446a565b6102066102013660046137cf565b611e4c565b6040516101729190614448565b61018e6102213660046139fa565b611edd565b6101e661023436600461378b565b611feb565b6102416120a0565b604051610172939291906144c8565b6101e661025e36600461378b565b612128565b61026b612192565b604051610172929190614412565b61018e610287366004613839565b61253e565b610294612712565b6040516101729190614280565b6101c961273c565b6102416127cb565b6102b9612829565b6040516101729291906143ed565b610241612ba5565b61018e6102dd36600461378b565b612c75565b6101e66102f036600461378b565b612cde565b610241612d44565b61018e61030b366004613aaa565b612da3565b61032361031e36600461378b565b61311d565b6040516101729190614459565b6037546060906001600160a01b0316331461034a57600080fd5b60005b603f5481101561098b5760005b604054811015610982576000603454600160d81b6473686172650214156103c157604360006040848154811061038c57fe5b60009182526020808320909101546001600160a01b039081168452908301939093526040909101902060060154169050610417565b603454600160e21b63189bdb990214156104175760486000604084815481106103e657fe5b60009182526020808320909101546001600160a01b0390811684529083019390935260409091019020600601541690505b60606000603f858154811061042857fe5b600091825260209091200154604051600160e01b63c74073a10281526001600160a01b039091169063c74073a190610464908690600401614280565b600060405180830381600087803b15801561047e57600080fd5b505af1158015610492573d6000803e3d6000fd5b505050506040513d6000823e601f3d908101601f191682016040526104ba9190810190613886565b91509150801561054b57603454600160d81b6473686172650214156104ee57600160d21b6510db1bdcd95902604655610513565b603454600160e21b63189bdb9902141561051357600160d21b6510db1bdcd95902604d555b7f740ceeecb0c18ce3fa5eea6dd340f21c17bc1af2554ba4931954bfa38bacd18b83604051610542919061436c565b60405180910390a15b60005b8251811015610972576060603f878154811061056657fe5b60009182526020909120015484516001600160a01b039091169063bfa0caa79086908590811061059257fe5b60200260200101516040518263ffffffff1660e01b81526004016105b6919061446a565b600060405180830381600087803b1580156105d057600080fd5b505af11580156105e4573d6000803e3d6000fd5b505050506040513d6000823e601f3d908101601f1916820160405261060c9190810190613902565b905060005b8151811015610968576033546000908152604f6020526040902054603f80548a90811061063a57fe5b60009182526020808320909101546033548352604f909152604090912080546001600160a01b03909216918390811061066f57fe5b906000526020600020906007020160040160016101000a8154816001600160a01b0302191690836001600160a01b031602179055508584815181106106b057fe5b6020026020010151604f6000603354815260200190815260200160002082815481106106d857fe5b9060005260206000209060070201600301819055508282815181106106f957fe5b602002602001015160600151604f60006033548152602001908152602001600020828154811061072557fe5b90600052602060002090600702016001018190555082828151811061074657fe5b602002602001015160800151604f60006033548152602001908152602001600020828154811061077257fe5b90600052602060002090600702016002018190555082828151811061079357fe5b602002602001015160400151604f6000603354815260200190815260200160002082815481106107bf57fe5b9060005260206000209060070201600001819055508282815181106107e057fe5b602002602001015160000151604f60006033548152602001908152602001600020828154811061080c57fe5b906000526020600020906007020160050160006101000a8154816001600160a01b0302191690836001600160a01b0316021790555082828151811061084d57fe5b602002602001015160200151604f60006033548152602001908152602001600020828154811061087957fe5b6000918252602082206007919091020160060180546001600160a01b0319166001600160a01b039390931692909217909155805b60415481101561090d578484815181106108c357fe5b6020026020010151600001516001600160a01b0316604182815481106108e557fe5b6000918252602090912001546001600160a01b0316141561090557600191505b6001016108ad565b508061095e57604184848151811061092157fe5b6020908102919091018101515182546001810184556000938452919092200180546001600160a01b0319166001600160a01b039092169190911790555b5050600101610611565b505060010161054e565b50506001909201915061035a9050565b5060010161034d565b506033546000908152604f6020908152604080832080548251818502810185019093528083529193909284015b82821015610a4957600084815260209081902060408051610100808201835260078702909301805482526001808201548387015260028201549383019390935260038101546060830152600481015460ff8116151560808401526001600160a01b03949004841660a08301526005810154841660c08301526006015490921660e083015290835290920191016109b8565b5050505090505b90565b6037546001600160a01b03163314610a6a57600080fd5b603454600160d81b6453746f636b0214610a8357600080fd5b603a54603354604051600160e21b633d3f3fe902815230926001600160a01b03169163f4fcffa491610ab8919060040161446a565b60206040518083038186803b158015610ad057600080fd5b505afa158015610ae4573d6000803e3d6000fd5b505050506040513d601f19601f82011682018060405250610b0891908101906137b1565b6001600160a01b031614610b1b57600080fd5b603d54604051600160e21b633cd163c502815260009182916001600160a01b039091169063f3458f1490610b53908a906004016144e3565b60206040518083038186803b158015610b6b57600080fd5b505afa158015610b7f573d6000803e3d6000fd5b505050506040513d601f19601f82011682018060405250610ba391908101906137b1565b603d54604051600160e01b63f429f19b0281529192506001600160a01b03169063f429f19b90610bd7908490600401614280565b60206040518083038186803b158015610bef57600080fd5b505afa158015610c03573d6000803e3d6000fd5b505050506040513d601f19601f82011682018060405250610c279190810190613955565b600160cb1b660acd2c286c2e6d0214610c3f57600080fd5b60005b604054811015610c8b57816001600160a01b031660408281548110610c6357fe5b6000918252602090912001546001600160a01b03161415610c8357600192505b600101610c42565b5081610cdd57604080546001810182556000919091527f352feee0eea125f11f791c1b77524172e9bc20f1b719b6cef0fc24f64db8e15e0180546001600160a01b0319166001600160a01b0383161790555b6001600160a01b03811660009081526043602052604090208b8155600281018b9055600381018a90556004810189905560050187905560448690556045859055610d296047858561334c565b50600160d21b65125cdcdd5959026046556040517f9db73b9e34b67b0482a252ae5e5448652d5745ede72cfa129660d76c3722598390610d78908d908d908d908d908d9030908e908e9061459e565b60405180910390a15050505050505050505050565b6037546001600160a01b03163314610da457600080fd5b42603e55600160d21b651858d8d95c1d028614156110285760005b6033546000908152604f60205260409020548110156110225784604f600060335481526020019081526020016000208281548110610df957fe5b906000526020600020906007020160030154148015610e5c5750836001600160a01b0316604f600060335481526020019081526020016000208281548110610e3d57fe5b60009182526020909120600560079092020101546001600160a01b0316145b8015610e99575082604f600060335481526020019081526020016000208281548110610e8457fe5b90600052602060002090600702016001015410155b8015610ee95750816001600160a01b0316604f600060335481526020019081526020016000208281548110610eca57fe5b60009182526020909120600660079092020101546001600160a01b0316145b1561101a57604051600160e01b638a0c62f10281526001600160a01b03871690638a0c62f190610f23908890889088908890600401614493565b600060405180830381600087803b158015610f3d57600080fd5b505af1158015610f51573d6000803e3d6000fd5b50505050604f600060335481526020019081526020016000208181548110610f7557fe5b506000908152805b604254811015610fc657856001600160a01b031660428281548110610f9e57fe5b6000918252602090912001546001600160a01b03161415610fbe57600191505b600101610f7d565b508061101857604280546001810182556000919091527f38dfe4635b27babeca8be38d3b448cb5161a639b899a14825ba9c8d7892eb8c30180546001600160a01b0319166001600160a01b0387161790555b505b600101610dbf565b506110a0565b85600160d21b651c995a9958dd0214156110a057604051600160e31b6307e132050281526001600160a01b03861690633f0990289061106d9087908790600401614478565b600060405180830381600087803b15801561108757600080fd5b505af115801561109b573d6000803e3d6000fd5b505050505b603454600160d81b6473686172650214156110cc57600160c21b67105b1b1bdd1d1959026046556110f3565b603454600160e21b63189bdb990214156110f357600160c21b67105b1b1bdd1d195902604d555b7f03b095f68fee05efe5e24b3561adcaff741870d703b9bce62535d572cc084a303060405161112291906143a0565b60405180910390a1505050505050565b6037546001600160a01b0316331461114957600080fd5b603454600160e21b63109bdb99021461116157600080fd5b603a54603354604051600160e21b633d3f3fe902815230926001600160a01b03169163f4fcffa491611196919060040161446a565b60206040518083038186803b1580156111ae57600080fd5b505afa1580156111c2573d6000803e3d6000fd5b505050506040513d601f19601f820116820180604052506111e691908101906137b1565b6001600160a01b0316146111f957600080fd5b603d54604051600160e21b633cd163c502815260009182916001600160a01b039091169063f3458f1490611231908a906004016144e3565b60206040518083038186803b15801561124957600080fd5b505afa15801561125d573d6000803e3d6000fd5b505050506040513d601f19601f8201168201806040525061128191908101906137b1565b603d54604051600160e01b63f429f19b0281529192506001600160a01b03169063f429f19b906112b5908490600401614280565b60206040518083038186803b1580156112cd57600080fd5b505afa1580156112e1573d6000803e3d6000fd5b505050506040513d601f19601f820116820180604052506113059190810190613955565b600160cb1b660acd2c286c2e6d021461131d57600080fd5b60005b60405481101561136957816001600160a01b03166040828154811061134157fe5b6000918252602090912001546001600160a01b0316141561136157600192505b600101611320565b50816113bb57604080546001810182556000919091527f352feee0eea125f11f791c1b77524172e9bc20f1b719b6cef0fc24f64db8e15e0180546001600160a01b0319166001600160a01b0383161790555b6001600160a01b03811660009081526048602052604090208d8155600281018d9055600381018c9055600481018b90556005018790556049869055604a899055604b889055604c859055611411604e858561334c565b50600160d21b65125cdcdd595902604d556040517f9db73b9e34b67b0482a252ae5e5448652d5745ede72cfa129660d76c3722598390611460908f908f908f908f908d9030908e908e9061450d565b60405180910390a150505050505050505050505050565b6037546060906001600160a01b031633148061149d57506036546001600160a01b031633145b6114a657600080fd5b60425460408051828152602080840282010190915260609180156114d4578160200160208202803883390190505b5090506000805b6042548110156115e6576000600160506000604285815481106114fa57fe5b60009182526020808320909101546001600160a01b03168352820192909252604001812054604280549390910393506050928590811061153657fe5b60009182526020808320909101546001600160a01b03168352820192909252604001902080548290811061156657fe5b9060005260206000209060040201600201548611156115dd576042828154811061158c57fe5b9060005260206000200160009054906101000a90046001600160a01b03168484815181106115b657fe5b60200260200101906001600160a01b031690816001600160a01b0316815250508260010192505b506001016114db565b50909392505050565b6037546001600160a01b0316331461160657600080fd5b60008080808080805b604054811015611dd557603454600160d81b64736861726502141561176b576044600101549650604360006040838154811061164757fe5b60009182526020808320909101546001600160a01b031683528201929092526040908101822060050154815490985060439291908490811061168557fe5b60009182526020808320909101546001600160a01b03168352820192909252604090810182205481549097506043929190849081106116c057fe5b60009182526020808320909101546001600160a01b03168352820192909252604090810182206002015481549096506043929190849081106116fe57fe5b60009182526020808320909101546001600160a01b031683528201929092526040908101822060030154815490955060439291908490811061173c57fe5b60009182526020808320909101546001600160a01b0316835282019290925260400190206004015491506118b8565b603454600160e21b63189bdb990214156118b8576049600301549650604860006040838154811061179857fe5b60009182526020808320909101546001600160a01b03168352820192909252604090810182206005015481549098506048929190849081106117d657fe5b60009182526020808320909101546001600160a01b031683528201929092526040908101822054815490975060489291908490811061181157fe5b60009182526020808320909101546001600160a01b031683528201929092526040908101822060020154815490965060489291908490811061184f57fe5b60009182526020808320909101546001600160a01b031683528201929092526040908101822060030154815490955060489291908490811061188d57fe5b60009182526020808320909101546001600160a01b0316835282019290925260400190206004015491505b603c54603a54603354604051600160e11b63522127410281526001600160a01b0393841693638d079e4d93169163a4424e82916118f8919060040161446a565b60206040518083038186803b15801561191057600080fd5b505afa158015611924573d6000803e3d6000fd5b505050506040513d601f19601f8201168201806040525061194891908101906137b1565b603b54603a54603354604051600160e01b63572d82990281526001600160a01b03938416938d93169163572d829991611984919060040161446a565b60206040518083038186803b15801561199c57600080fd5b505afa1580156119b0573d6000803e3d6000fd5b505050506040513d601f19601f820116820180604052506119d49190810190613955565b8c6040518663ffffffff1660e01b81526004016119f59594939291906142b6565b600060405180830381600087803b158015611a0f57600080fd5b505af1158015611a23573d6000803e3d6000fd5b5050603c54603a54603354604051600160e01b63572d82990281526001600160a01b039384169550639c3acea094508b939092169163572d829991611a6a9160040161446a565b60206040518083038186803b158015611a8257600080fd5b505afa158015611a96573d6000803e3d6000fd5b505050506040513d601f19601f82011682018060405250611aba9190810190613955565b8a6040518463ffffffff1660e01b8152600401611ad9939291906144c8565b60206040518083038186803b158015611af157600080fd5b505afa158015611b05573d6000803e3d6000fd5b505050506040513d601f19601f82011682018060405250611b2991908101906137b1565b603880546001600160a01b0319166001600160a01b039283161790819055604051600160e01b6340c10f190281529116906340c10f1990611b7090309089906004016143ba565b600060405180830381600087803b158015611b8a57600080fd5b505af1158015611b9e573d6000803e3d6000fd5b50505050603454600160d81b647368617265021415611c3357603854604080546001600160a01b039092169160439160009185908110611bda57fe5b6000918252602080832091909101546001600160a01b039081168452908301939093526040909101902060060180546001600160a01b03191692909116919091179055600160ca1b6613d999995c995902604655611cbf565b603454600160e21b63189bdb99021415611cbf57603854604080546001600160a01b039092169160489160009185908110611c6a57fe5b6000918252602080832091909101546001600160a01b039081168452908301939093526040909101902060060180546001600160a01b03191692909116919091179055600160ca1b6613d999995c995902604d555b6038546040517ff4503fa8a89133c55d060f625dd7c591b559496759626476dd2233e41ea9ad3291611cfc916001600160a01b0390911690614386565b60405180910390a160005b603f54811015611dcc57603f8181548110611d1e57fe5b600091825260209091200154603854604080546001600160a01b0393841693632a20e8df9316918c918b919088908110611d5457fe5b60009182526020909120015460405163ffffffff861660e01b8152611d8e949392916001600160a01b0316908c908c908c90600401614304565b600060405180830381600087803b158015611da857600080fd5b505af1158015611dbc573d6000803e3d6000fd5b505060019092019150611d079050565b5060010161160f565b50505050505050565b6037546000906001600160a01b0316331480611e0457506036546001600160a01b031633145b611e0d57600080fd5b603454600160e21b63189bdb990214611e2557600080fd5b6000611e38603e546049600101546131e7565b9050611e4681603e546131f7565b91505090565b604051600160e11b636766ae970281526060906001600160a01b0384169063cecd5d2e90611e7e90859060040161446a565b600060405180830381600087803b158015611e9857600080fd5b505af1158015611eac573d6000803e3d6000fd5b505050506040513d6000823e601f3d908101601f19168201604052611ed491908101906138cd565b90505b92915050565b600054610100900460ff1680611ef65750611ef661324e565b80611f04575060005460ff16155b611f2c57604051600160e51b62461bcd028152600401611f23906144fd565b60405180910390fd5b600054610100900460ff16158015611f57576000805460ff1961ff0019909116610100171660011790555b603580546001600160a01b03199081166001600160a01b038881169190911790925560338b905560348a90556036805482168a8416179055603780548216898416179055603a805433908316179055603b80548216878416179055603c80548216868416179055603d80549091169184169190911790558015611fe0576000805461ff00191690555b505050505050505050565b6037546000906001600160a01b031633148061201157506036546001600160a01b031633145b61201a57600080fd5b603454600160e21b63189bdb99021461203257600080fd5b600060496001015461204642603e54613254565b8161204d57fe5b0490506000805b828110156115e6576001600160a01b038516600090815260506020526040902080548290811061208057fe5b600091825260209091206001600490920201810154929092019101612054565b603754600090819081906001600160a01b03163314806120ca57506036546001600160a01b031633145b6120d357600080fd5b603454600160e21b63189bdb9902146120eb57600080fd5b60006120fe603e546049600101546131e7565b905061210981613264565b6121128261327f565b61211b8361329a565b935093509350505b909192565b6037546000906001600160a01b031633148061214e57506036546001600160a01b031633145b61215757600080fd5b603454600160e21b63189bdb99021461216f57600080fd5b506001600160a01b03166000908152604860205260409020600101546042540290565b606061219c6133ca565b60606040805490506040519080825280602002602001820160405280156121dd57816020015b6121ca6133f0565b8152602001906001900390816121c25790505b5090506121e86133f0565b60005b604054811015612477576040518060e00160405280604360006040858154811061221157fe5b9060005260206000200160009054906101000a90046001600160a01b03166001600160a01b03166001600160a01b03168152602001908152602001600020600001548152602001604360006040858154811061226957fe5b9060005260206000200160009054906101000a90046001600160a01b03166001600160a01b03166001600160a01b0316815260200190815260200160002060010154815260200160436000604085815481106122c157fe5b9060005260206000200160009054906101000a90046001600160a01b03166001600160a01b03166001600160a01b03168152602001908152602001600020600201548152602001604360006040858154811061231957fe5b9060005260206000200160009054906101000a90046001600160a01b03166001600160a01b03166001600160a01b03168152602001908152602001600020600301548152602001604360006040858154811061237157fe5b9060005260206000200160009054906101000a90046001600160a01b03166001600160a01b03166001600160a01b0316815260200190815260200160002060040154815260200160436000604085815481106123c957fe5b9060005260206000200160009054906101000a90046001600160a01b03166001600160a01b03166001600160a01b03168152602001908152602001600020600501548152602001604360006040858154811061242157fe5b60009182526020808320909101546001600160a01b0390811684529083019390935260409091019020600601541690528351909250829084908390811061246457fe5b60209081029190910101526001016121eb565b50604080516080810182526044805482526045546020808401919091526046548385015260478054855160026001831615610100026000190190921691909104601f810184900484028201840190965285815287959394938593606086019391908301828280156125295780601f106124fe57610100808354040283529160200191612529565b820191906000526020600020905b81548152906001019060200180831161250c57829003601f168201915b50505050508152505090509350935050509091565b6037546001600160a01b031633148061256157506036546001600160a01b031633145b61256a57600080fd5b603454600160d81b6473686172650214806125905750603454600160e21b63189bdb9902145b61259957600080fd5b603d54604051600160e21b632e5ac80102815260009182916001600160a01b039091169063b96b2004906125d190879060040161446a565b604080518083038186803b1580156125e857600080fd5b505afa1580156125fc573d6000803e3d6000fd5b505050506040513d601f19601f820116820180604052506126209190810190613809565b9150915080600160cb1b660acd2c286c2e6d02141561270b57604051600160e01b6323b872dd0281526001600160a01b038316906323b872dd9061266c9033908990889060040161428e565b602060405180830381600087803b15801561268657600080fd5b505af115801561269a573d6000803e3d6000fd5b505050506040513d601f19601f820116820180604052506126be9190810190613937565b1561270b576126cb613439565b5060408051608081018252858152602080820186905242828401523360608301526001600160a01b03881660009081526050909152919091208054829190fe5b5050505050565b603c546000906001600160a01b0316331461272c57600080fd5b506035546001600160a01b031690565b6037546060906001600160a01b031633148061276257506036546001600160a01b031633145b61276b57600080fd5b60428054806020026020016040519081016040528092919081815260200182805480156127c157602002820191906000526020600020905b81546001600160a01b031681526001909101906020018083116127a3575b5050505050905090565b603754600090819081906001600160a01b03163314806127f557506036546001600160a01b031633145b6127fe57600080fd5b603454600160e21b63189bdb99021461281657600080fd5b60006120fe603e546049600201546131e7565b6060612833613460565b606060408054905060405190808252806020026020018201604052801561287457816020015b6128616133f0565b8152602001906001900390816128595790505b50905061287f6133f0565b60005b604054811015612b0e576040518060e0016040528060486000604085815481106128a857fe5b9060005260206000200160009054906101000a90046001600160a01b03166001600160a01b03166001600160a01b03168152602001908152602001600020600001548152602001604860006040858154811061290057fe5b9060005260206000200160009054906101000a90046001600160a01b03166001600160a01b03166001600160a01b03168152602001908152602001600020600101548152602001604860006040858154811061295857fe5b9060005260206000200160009054906101000a90046001600160a01b03166001600160a01b03166001600160a01b0316815260200190815260200160002060020154815260200160486000604085815481106129b057fe5b9060005260206000200160009054906101000a90046001600160a01b03166001600160a01b03166001600160a01b031681526020019081526020016000206003015481526020016048600060408581548110612a0857fe5b9060005260206000200160009054906101000a90046001600160a01b03166001600160a01b03166001600160a01b031681526020019081526020016000206004015481526020016048600060408581548110612a6057fe5b9060005260206000200160009054906101000a90046001600160a01b03166001600160a01b03166001600160a01b031681526020019081526020016000206005015481526020016048600060408581548110612ab857fe5b60009182526020808320909101546001600160a01b03908116845290830193909352604090910190206006015416905283519092508290849083908110612afb57fe5b6020908102919091010152600101612882565b506040805160c081018252604980548252604a54602080840191909152604b5483850152604c546060840152604d546080840152604e8054855160026001831615610100026000190190921691909104601f81018490048402820184019096528581528795939493859360a086019391908301828280156125295780601f106124fe57610100808354040283529160200191612529565b603754600090819081906001600160a01b0316331480612bcf57506036546001600160a01b031633145b612bd857600080fd5b603454600160e21b63189bdb990214612bf057600080fd5b60005b604a54604b5481612c0057fe5b04811015612c6f5742612c1f603e5483600101604960010154026131e7565b1115612c67576000612c3d603e5483600101604960010154026131e7565b9050612c4881613264565b612c518261327f565b612c5a8361329a565b9450945094505050612123565b600101612bf3565b50909192565b603a546001600160a01b03163314612c8c57600080fd5b603f80546001810182556000919091527fc03004e3ce0784bf68186394306849f9b7b1200073105cd9aeb554a1802b58fd0180546001600160a01b0319166001600160a01b0392909216919091179055565b6037546000906001600160a01b0316331480612d0457506036546001600160a01b031633145b612d0d57600080fd5b603454600160e21b63189bdb990214612d2557600080fd5b506001600160a01b031660009081526048602052604090206001015490565b603754600090819081906001600160a01b0316331480612d6e57506036546001600160a01b031633145b612d7757600080fd5b612d82603e54613264565b612d8d603e5461327f565b612d98603e5461329a565b925092509250909192565b6037546001600160a01b03163314612dba57600080fd5b60005b603f5481101561311957603f8181548110612dd457fe5b600091825260208220015460408051600160e11b6355e47b0302815290516001600160a01b039092169263abc8f6069260048084019382900301818387803b158015612e1f57600080fd5b505af1158015612e33573d6000803e3d6000fd5b506000925050505b60405481101561311057603454600160d81b647368617265021415612fa957603f8281548110612e6757fe5b6000918252602082200154604080546001600160a01b039092169263867904b4926043929086908110612e9657fe5b60009182526020808320909101546001600160a01b039081168452908301939093526040918201902060060154905163ffffffff841660e01b8152612ee492919091169087906004016143ba565b600060405180830381600087803b158015612efe57600080fd5b505af1158015612f12573d6000803e3d6000fd5b50505050600160ca1b6614dd185c9d1959026044600201819055507f9a17155a17018d770a1d614ea564978a64992afbd4577a46f3797f7102c260e86043600060408481548110612f5f57fe5b60009182526020808320909101546001600160a01b0390811684529083019390935260409182019020600601549051612f9c929190911690614386565b60405180910390a1613108565b603454600160e21b63189bdb9902141561310857603f8281548110612fca57fe5b6000918252602082200154604080546001600160a01b039092169263867904b4926048929086908110612ff957fe5b60009182526020808320909101546001600160a01b039081168452908301939093526040918201902060060154905163ffffffff841660e01b815261304792919091169087906004016143ba565b600060405180830381600087803b15801561306157600080fd5b505af1158015613075573d6000803e3d6000fd5b50505050600160ca1b6614dd185c9d1959026049600401819055507f9a17155a17018d770a1d614ea564978a64992afbd4577a46f3797f7102c260e860486000604084815481106130c257fe5b60009182526020808320909101546001600160a01b03908116845290830193909352604091820190206006015490516130ff929190911690614386565b60405180910390a15b600101612e3b565b50600101612dbd565b5050565b6037546060906001600160a01b031633148061314357506036546001600160a01b031633145b61314c57600080fd5b6001600160a01b038216600090815260506020908152604080832080548251818502810185019093528083529193909284015b828210156131dc57600084815260209081902060408051608081018252600486029092018054835260018082015484860152600282015492840192909252600301546001600160a01b03166060830152908352909201910161317f565b505050509050919050565b81810182811015611ed757600080fd5b60008183111561320657600080fd5b6000808080808061321c620151808a5b046132b6565b919750955093506132306201518089613216565b50600c97880297909102019590950393909303979650505050505050565b303b1590565b80820382811115611ed757600080fd5b600080806132756201518085613216565b9695505050505050565b600080806132906201518085613216565b5095945050505050565b600080806132ab6201518085613216565b509095945050505050565b60008080836226496581018262023ab1600483020590506004600362023ab18302010590910390600062164b09610fa0600185010205905060046105b58202058303601f019250600061098f846050028161330d57fe5b0590506000605061098f83020585039050600b820560301994909401606402929092018301996002600c90940290910392909201975095509350505050565b828054600181600116156101000203166002900490600052602060002090601f016020900481019282601f1061338d5782800160ff198235161785556133ba565b828001600101855582156133ba579182015b828111156133ba57823582559160200191906001019061339f565b506133c6929150613497565b5090565b604080516080810182526000808252602082018190529181019190915260608082015290565b6040518060e0016040528060008152602001600081526020016000815260200160008152602001600081526020016000801916815260200160006001600160a01b031681525090565b60408051608081018252600080825260208201819052918101829052606081019190915290565b6040805160c0810182526000808252602082018190529181018290526060808201839052608082019290925260a081019190915290565b610a5091905b808211156133c6576000815560010161349d565b6000611ed4823561467d565b6000611ed4825161467d565b600082601f8301126134da57600080fd5b81516134ed6134e882614649565b614622565b9150818183526020840193506020810190508385602084028201111561351257600080fd5b60005b8381101561353e57816135288882613644565b8452506020928301929190910190600101613515565b5050505092915050565b600082601f83011261355957600080fd5b81516135676134e882614649565b9150818183526020840193506020810190508385608084028201111561358c57600080fd5b60005b8381101561353e57816135a28882613699565b8452506020909201916080919091019060010161358f565b600082601f8301126135cb57600080fd5b81516135d96134e882614649565b915081818352602084019350602081019050838560a08402820111156135fe57600080fd5b60005b8381101561353e57816136148882613708565b84525060209092019160a09190910190600101613601565b6000611ed48251614688565b6000611ed48235610a50565b6000611ed48251610a50565b60008083601f84011261366257600080fd5b50813567ffffffffffffffff81111561367a57600080fd5b60208301915083600182028301111561369257600080fd5b9250929050565b6000608082840312156136ab57600080fd5b6136b56080614622565b905060006136c384846134bd565b82525060206136d484848301613644565b60208301525060406136e884828501613644565b60408301525060606136fc84828501613644565b60608301525092915050565b600060a0828403121561371a57600080fd5b61372460a0614622565b9050600061373284846134bd565b8252506020613743848483016134bd565b602083015250604061375784828501613644565b604083015250606061376b84828501613644565b606083015250608061377f84828501613644565b60808301525092915050565b60006020828403121561379d57600080fd5b60006137a984846134b1565b949350505050565b6000602082840312156137c357600080fd5b60006137a984846134bd565b600080604083850312156137e257600080fd5b60006137ee85856134b1565b92505060206137ff85828601613638565b9150509250929050565b6000806040838503121561381c57600080fd5b600061382885856134bd565b92505060206137ff85828601613644565b60008060006060848603121561384e57600080fd5b600061385a86866134b1565b935050602061386b86828701613638565b925050604061387c86828701613638565b9150509250925092565b6000806040838503121561389957600080fd5b825167ffffffffffffffff8111156138b057600080fd5b6138bc858286016134c9565b92505060206137ff8582860161362c565b6000602082840312156138df57600080fd5b815167ffffffffffffffff8111156138f657600080fd5b6137a984828501613548565b60006020828403121561391457600080fd5b815167ffffffffffffffff81111561392b57600080fd5b6137a9848285016135ba565b60006020828403121561394957600080fd5b60006137a9848461362c565b60006020828403121561396757600080fd5b60006137a98484613644565b60008060008060008060c0878903121561398c57600080fd5b60006139988989613638565b96505060206139a989828a016134b1565b95505060406139ba89828a01613638565b94505060606139cb89828a016134b1565b93505060806139dc89828a01613638565b92505060a06139ed89828a016134b1565b9150509295509295509295565b600080600080600080600080610100898b031215613a1757600080fd5b6000613a238b8b613638565b9850506020613a348b828c01613638565b9750506040613a458b828c016134b1565b9650506060613a568b828c016134b1565b9550506080613a678b828c016134b1565b94505060a0613a788b828c016134b1565b93505060c0613a898b828c016134b1565b92505060e0613a9a8b828c016134b1565b9150509295985092959890939650565b600060208284031215613abc57600080fd5b60006137a98484613638565b60008060008060008060008060006101008a8c031215613ae757600080fd5b6000613af38c8c613638565b9950506020613b048c828d01613638565b9850506040613b158c828d01613638565b9750506060613b268c828d01613638565b9650506080613b378c828d01613638565b95505060a0613b488c828d01613638565b94505060c0613b598c828d01613638565b93505060e08a013567ffffffffffffffff811115613b7657600080fd5b613b828c828d01613650565b92509250509295985092959850929598565b60008060008060008060008060008060006101408c8e031215613bb657600080fd5b6000613bc28e8e613638565b9b50506020613bd38e828f01613638565b9a50506040613be48e828f01613638565b9950506060613bf58e828f01613638565b9850506080613c068e828f01613638565b97505060a0613c178e828f01613638565b96505060c0613c288e828f01613638565b95505060e0613c398e828f01613638565b945050610100613c4b8e828f01613638565b9350506101208c013567ffffffffffffffff811115613c6957600080fd5b613c758e828f01613650565b92509250509295989b509295989b9093969950565b6000613c968383613cf6565b505060200190565b6000613caa83836140cc565b505060e00190565b6000613cbe8383614155565b50506101000190565b6000613cd383836141ec565b505060800190565b6000613cd38383614236565b613cf081614699565b82525050565b613cf08161467d565b6000613d0a82614670565b613d148185614674565b9350613d1f8361466a565b60005b82811015613d4a57613d35868351613c8a565b9550613d408261466a565b9150600101613d22565b5093949350505050565b6000613d5f82614670565b613d698185614674565b9350613d748361466a565b60005b82811015613d4a57613d8a868351613c9e565b9550613d958261466a565b9150600101613d77565b6000613daa82614670565b613db48185614674565b9350613dbf8361466a565b60005b82811015613d4a57613dd5868351613c9e565b9550613de08261466a565b9150600101613dc2565b6000613df582614670565b613dff8185614674565b9350613e0a8361466a565b60005b82811015613d4a57613e20868351613cb2565b9550613e2b8261466a565b9150600101613e0d565b6000613e4082614670565b613e4a8185614674565b9350613e558361466a565b60005b82811015613d4a57613e6b868351613cc7565b9550613e768261466a565b9150600101613e58565b6000613e8b82614670565b613e958185614674565b9350613ea08361466a565b60005b82811015613d4a57613eb6868351613cdb565b9550613ec18261466a565b9150600101613ea3565b613cf081614688565b613cf081610a50565b6000613ee882614670565b613ef28185614674565b9350613f028185602086016146aa565b613f0b816146d6565b9093019392505050565b600160d21b65125cdcdd5959029052565b600160e21b63109bdb99029052565b600160d81b6453746f636b029052565b600160d21b6510db1bdcd959029052565b600160f41b610445029052565b600160cb1b660acd2c286c2e6d029052565b600160ca1b6613d999995c9959029052565b6000613f94602e83614674565b7f436f6e747261637420696e7374616e63652068617320616c726561647920626581527f656e20696e697469616c697a6564000000000000000000000000000000000000602082015260400192915050565b600160c21b67105b1b1bdd1d1959029052565b805160009060c084019061400d8582613ed4565b5060208301516140206020860182613ed4565b5060408301516140336040860182613ed4565b5060608301516140466060860182613ed4565b5060808301516140596080860182613ed4565b5060a083015184820360a08601526140718282613edd565b95945050505050565b8051600090608084019061408e8582613ed4565b5060208301516140a16020860182613ed4565b5060408301516140b46040860182613ed4565b50606083015184820360608601526140718282613edd565b805160e08301906140dd8482613ed4565b5060208201516140f06020850182613ed4565b5060408201516141036040850182613ed4565b5060608201516141166060850182613ed4565b5060808201516141296080850182613ed4565b5060a082015161413c60a0850182613ed4565b5060c082015161414f60c0850182613cf6565b50505050565b80516101008301906141678482613ed4565b50602082015161417a6020850182613ed4565b50604082015161418d6040850182613ed4565b5060608201516141a06060850182613ed4565b5060808201516141b36080850182613ecb565b5060a08201516141c660a0850182613cf6565b5060c08201516141d960c0850182613cf6565b5060e082015161414f60e0850182613cf6565b805160808301906141fd8482613cf6565b5060208201516142106020850182613ed4565b5060408201516142236040850182613ed4565b50606082015161414f6060850182613ed4565b805160808301906142478482613ed4565b50602082015161425a6020850182613ed4565b50604082015161426d6040850182613ed4565b50606082015161414f6060850182613cf6565b60208101611ed78284613cf6565b6060810161429c8286613ce7565b6142a96020830185613cf6565b6137a96040830184613ed4565b60c081016142c48288613cf6565b6142d16020830187613cf6565b6142de6040830186613ed4565b6142eb6060830185613ed4565b6142f86080830184613ed4565b61327560a08301613f56565b60e08101614312828a613cf6565b61431f6020830189613ed4565b61432c6040830188613ed4565b6143396060830187613cf6565b6143466080830186613ed4565b61435360a0830185613ed4565b61436060c0830184613ed4565b98975050505050505050565b6040810161437a8284613cf6565b611ed760208301613f45565b604081016143948284613cf6565b611ed760208301613f75565b604081016143ae8284613cf6565b611ed760208301613fe6565b604081016143c88285613cf6565b6143d56020830184613ed4565b9392505050565b60208082528101611ed48184613cff565b604080825281016143fe8185613d54565b905081810360208301526137a98184613ff9565b604080825281016144238185613d9f565b905081810360208301526137a9818461407a565b60208082528101611ed48184613dea565b60208082528101611ed48184613e35565b60208082528101611ed48184613e80565b60208101611ed78284613ed4565b604081016144868285613ed4565b6143d56020830184613cf6565b608081016144a18287613ed4565b6144ae6020830186613cf6565b6144bb6040830185613ed4565b6140716060830184613cf6565b606081016144d68286613ed4565b6142a96020830185613ed4565b604081016144f18284613ed4565b611ed760208301613f63565b60208082528101611ed781613f87565b610140810161451c828b613ed4565b614529602083018a613ed4565b6145366040830189613ed4565b6145436060830188613ed4565b6145506080830187613ed4565b61455d60a0830186613cf6565b61456a60c0830185613ed4565b61457760e0830184613ed4565b6145846101008301613f15565b6145916101208301613f26565b9998505050505050505050565b61014081016145ad828b613ed4565b6145ba602083018a613ed4565b6145c76040830189613ed4565b6145d46060830188613ed4565b6145e16080830187613ed4565b6145ee60a0830186613cf6565b6145fb60c0830185613ed4565b61460860e0830184613ed4565b6146156101008301613f15565b6145916101208301613f35565b60405181810167ffffffffffffffff8111828210171561464157600080fd5b604052919050565b600067ffffffffffffffff82111561466057600080fd5b5060209081020190565b60200190565b5190565b90815260200190565b6000611ed78261468d565b151590565b6001600160a01b031690565b6000611ed7826000611ed78261467d565b60005b838110156146c55781810151838201526020016146ad565b8381111561414f5750506000910152565b601f01601f19169056fea265627a7a723058209f66674e67578e8a7b4dd9a45281d969fa10c70f02e3eff87618737a154bbbf96c6578706572696d656e74616cf50037",
  "source": "// Issue of Verified financial products\r\n// Offer issues to liquidity pools for IoIs, fix pricing, make allotments, draw down capital, create subscriptions\r\n// (c) Kallol Borah, Verified Network, 2021\r\n\r\npragma solidity 0.5.7;\r\npragma experimental ABIEncoderV2;\r\n\r\nimport \"./interfaces/Bond.sol\";\r\nimport \"./interfaces/Share.sol\";\r\nimport \"./interfaces/LP.sol\";\r\nimport \"./interfaces/ViaCash.sol\";\r\nimport \"./interfaces/ViaFactory.sol\";\r\nimport \"./interfaces/VerifiedIssues.sol\";\r\nimport \"./interfaces/VerifiedProducts.sol\";\r\nimport \"./interfaces/IMarketMaker.sol\";\r\nimport \"./interfaces/ISecurity.sol\";\r\nimport \"./interfaces/ISecuritiesRegistry.sol\";\r\nimport \"./utilities/BokkyPooBahsDateTimeLibrary.sol\";\r\nimport \"@openzeppelin/upgrades/contracts/Initializable.sol\";\r\n\r\ncontract Issues is VerifiedIssues, Initializable {\r\n\r\n    using BokkyPooBahsDateTimeLibrary for uint;\r\n\r\n    bytes32 productRef;\r\n    bytes32 category;\r\n    address owner;\r\n    address issuer;\r\n    address registrar;\r\n    address security;\r\n    address issue;\r\n    address productContract;\r\n    address securityContract;\r\n    address securityRegistriesContract;\r\n    address viaFactoryContract;\r\n    uint256 timeOfIssue;    \r\n\r\n    address[] private platforms;\r\n\r\n    address[] private currencies;\r\n\r\n    address[] private investors;\r\n\r\n    address[] private beneficiaries;\r\n\r\n    //mapping of asked currency to issue details\r\n    mapping(address => Share.currencySpecificStockAttribs) private shares;\r\n    Share.commonStockAttribs stockIssue;\r\n\r\n    //mapping of asked currency to issue details\r\n    mapping(address => Bond.currencySpecificBondAttribs) private bonds;\r\n    Bond.commonBondAttribs bondIssue;\r\n\r\n    //mapping of currencies to investors in pools \r\n    mapping(bytes32 => ioi[]) private subscribers;\r\n\r\n    //mapping of beneficiaries to payouts\r\n    mapping(address => VerifiedIssues.payment[]) private payouts;\r\n\r\n    event issued (\r\n        uint256 issueSize,\r\n        uint256 offerPrice, \r\n        uint256 minAskPrice,   \r\n        uint256 minSubscription,\r\n        bytes32 currency,\r\n        address security,\r\n        bytes32 offerType,\r\n        bytes32 isin,\r\n        bytes32 status,\r\n        bytes32 productCategory\r\n    );\r\n\r\n    event offered(address security, bytes32 status);\r\n\r\n    event opened(address security, bytes32 status);\r\n\r\n    event closed(address security, bytes32 status);\r\n\r\n    event allotted(address security, bytes32 status);\r\n    \r\n    function initialize(bytes32 _productReference, \r\n                        bytes32 _productCategory, \r\n                        address _issuer, \r\n                        address _registrar, \r\n                        address _owner,\r\n                        address _securityContract, \r\n                        address _securityRegistriesContract,\r\n                        address _viaFactoryContract\r\n                        ) public initializer{\r\n        owner = _owner;\r\n        productRef = _productReference;\r\n        category = _productCategory;\r\n        issuer = _issuer;\r\n        registrar = _registrar;\r\n        productContract = msg.sender;\r\n        securityContract = _securityContract;\r\n        securityRegistriesContract = _securityRegistriesContract;\r\n        viaFactoryContract = _viaFactoryContract;\r\n    }\r\n\r\n    function getOwner() external view returns(address){\r\n        require(msg.sender==securityRegistriesContract);\r\n        return owner;\r\n    }\r\n\r\n    function issueShare(uint256 _issueSize,\r\n                        uint256 _offerPrice, \r\n                        uint256 _minAskPrice, \r\n                        uint256 _minSubscription,\r\n                        bytes32 _currency,\r\n                        bytes32 _offerType,\r\n                        bytes32 _isin,\r\n                        string calldata _offeringDocuments\r\n                        ) external {\r\n        require(registrar==msg.sender);\r\n        require(category==\"Stock\");\r\n        require(VerifiedProducts(productContract).getIssue(productRef)==address(this));\r\n        bool found = false;\r\n        address currencyAddress = ViaFactory(viaFactoryContract).getTokenByNameType(_currency,\"ViaCash\");\r\n        require(ViaFactory(viaFactoryContract).getType(currencyAddress) == \"ViaCash\");\r\n        for(uint i=0; i<currencies.length; i++){\r\n            if(currencies[i]==currencyAddress)\r\n                found = true;\r\n        }\r\n        if(!found)\r\n            currencies.push(currencyAddress);\r\n        shares[currencyAddress].issueSize = _issueSize;\r\n        shares[currencyAddress].offerPrice = _offerPrice;\r\n        shares[currencyAddress].minAskPrice = _minAskPrice;\r\n        shares[currencyAddress].minSubscription = _minSubscription;\r\n        shares[currencyAddress].currency = _currency;\r\n        stockIssue.offerType = _offerType;\r\n        stockIssue.isin = _isin;        \r\n        stockIssue.offeringDocuments = _offeringDocuments;  \r\n        stockIssue.status = \"Issued\";    \r\n        emit issued (\r\n            _issueSize,\r\n            _offerPrice, \r\n            _minAskPrice,   \r\n            _minSubscription,\r\n            _currency,\r\n            address(this),\r\n            _offerType,\r\n            _isin,\r\n            \"Issued\",\r\n            \"Stock\"\r\n        );  \r\n    }\r\n\r\n    function getShare() external view returns(Share.currencySpecificStockAttribs[] memory, Share.commonStockAttribs memory){\r\n        Share.currencySpecificStockAttribs[] memory stocks = new Share.currencySpecificStockAttribs[](currencies.length);\r\n        Share.currencySpecificStockAttribs memory share;\r\n        for(uint i=0; i<currencies.length; i++){\r\n            share = Share.currencySpecificStockAttribs({\r\n                issueSize : shares[currencies[i]].issueSize,\r\n                faceValue : shares[currencies[i]].faceValue,\r\n                offerPrice : shares[currencies[i]].offerPrice, \r\n                minAskPrice : shares[currencies[i]].minAskPrice,  \r\n                minSubscription : shares[currencies[i]].minSubscription,\r\n                currency : shares[currencies[i]].currency,\r\n                security : shares[currencies[i]].security\r\n            });\r\n            stocks[i] = share;\r\n        }\r\n        return (stocks, stockIssue);\r\n    }\r\n\r\n    function issueBond(uint256 _issueSize,\r\n                        uint256 _offerPrice, \r\n                        uint256 _minAskPrice, \r\n                        uint256 _minSubscription,\r\n                        uint256 _couponPaymentCycle, \r\n                        uint256 _tenure,\r\n                        bytes32 _currency,\r\n                        bytes32 _offerType,\r\n                        bytes32 _isin,\r\n                        string calldata _offeringDocuments\r\n                        ) external {\r\n        require(registrar==msg.sender);\r\n        require(category==\"Bond\");\r\n        require(VerifiedProducts(productContract).getIssue(productRef)==address(this));\r\n        bool found = false;\r\n        address currencyAddress = ViaFactory(viaFactoryContract).getTokenByNameType(_currency,\"ViaCash\");\r\n        require(ViaFactory(viaFactoryContract).getType(currencyAddress) == \"ViaCash\");\r\n        for(uint i=0; i<currencies.length; i++){\r\n            if(currencies[i]==currencyAddress)\r\n                found = true;\r\n        }\r\n        if(!found)\r\n            currencies.push(currencyAddress);\r\n        bonds[currencyAddress].issueSize = _issueSize;\r\n        bonds[currencyAddress].offerPrice = _offerPrice;\r\n        bonds[currencyAddress].minAskPrice = _minAskPrice;    \r\n        bonds[currencyAddress].minSubscription = _minSubscription;    \r\n        bonds[currencyAddress].currency = _currency;\r\n        bondIssue.offerType = _offerType;\r\n        bondIssue.couponPaymentCycle = _couponPaymentCycle; \r\n        bondIssue.tenure = _tenure; \r\n        bondIssue.isin = _isin;\r\n        bondIssue.offeringDocuments = _offeringDocuments;\r\n        bondIssue.status = \"Issued\";\r\n        emit issued (\r\n            _issueSize,\r\n            _offerPrice, \r\n            _minAskPrice,   \r\n            _minSubscription,\r\n            _currency,\r\n            address(this),\r\n            _offerType,\r\n            _isin,\r\n            \"Issued\",\r\n            \"Bond\"\r\n        );\r\n    }\r\n\r\n    function getBond() external view returns(Bond.currencySpecificBondAttribs[] memory, Bond.commonBondAttribs memory){\r\n        Bond.currencySpecificBondAttribs[] memory notes = new Bond.currencySpecificBondAttribs[](currencies.length);\r\n        Bond.currencySpecificBondAttribs memory bond;\r\n        for(uint i=0; i<currencies.length; i++){\r\n            bond = Bond.currencySpecificBondAttribs({\r\n                issueSize : bonds[currencies[i]].issueSize,\r\n                coupon : bonds[currencies[i]].coupon,\r\n                offerPrice : bonds[currencies[i]].offerPrice, \r\n                minAskPrice : bonds[currencies[i]].minAskPrice, \r\n                minSubscription : bonds[currencies[i]].minSubscription,\r\n                currency : bonds[currencies[i]].currency,\r\n                security : bonds[currencies[i]].security\r\n            });\r\n            notes[i] = bond;\r\n        }\r\n        return (notes, bondIssue);\r\n    }\r\n\r\n    function registerPlatform(address _liquidityPlatform) external {\r\n        require(productContract==msg.sender);\r\n        platforms.push(_liquidityPlatform);\r\n    }\r\n\r\n    function askOffers() external {\r\n        require(registrar==msg.sender);\r\n        bytes32 isin;\r\n        bytes32 currency;\r\n        uint256 issueSize;\r\n        uint256 offerPrice; \r\n        uint256 minAskPrice; \r\n        uint256 minSubscription;\r\n        for(uint i=0; i<currencies.length; i++){\r\n            if(category==\"share\"){\r\n                isin = stockIssue.isin;\r\n                currency = shares[currencies[i]].currency;\r\n                issueSize = shares[currencies[i]].issueSize;\r\n                offerPrice = shares[currencies[i]].offerPrice;\r\n                minAskPrice = shares[currencies[i]].minAskPrice;    \r\n                minSubscription = shares[currencies[i]].minSubscription;            \r\n            }\r\n            else if(category==\"bond\"){\r\n                isin = bondIssue.isin;\r\n                currency = bonds[currencies[i]].currency;\r\n                issueSize = bonds[currencies[i]].issueSize;\r\n                offerPrice = bonds[currencies[i]].offerPrice;\r\n                minAskPrice = bonds[currencies[i]].minAskPrice;\r\n                minSubscription = bonds[currencies[i]].minSubscription;\r\n            }\r\n            ISecuritiesRegistry(securityRegistriesContract).createSecurity(VerifiedProducts(productContract).getIssuerAddress(productRef),\r\n                                                        securityContract,\r\n                                                        currency,\r\n                                                        VerifiedProducts(productContract).getIssuerName(productRef),\r\n                                                        isin, \"DP\");\r\n            security = ISecuritiesRegistry(securityRegistriesContract).getToken(currency,\r\n                                                                                VerifiedProducts(productContract).getIssuerName(productRef),\r\n                                                                                isin);\r\n            ISecurity(security).mint(address(this), issueSize);\r\n            if(category==\"share\"){\r\n                shares[currencies[i]].security = security;\r\n                stockIssue.status = \"Offered\";\r\n            }\r\n            else if(category==\"bond\"){\r\n                bonds[currencies[i]].security = security;\r\n                bondIssue.status = \"Offered\";\r\n            }\r\n            emit offered(security, \"Offered\");\r\n            //offer the issue on defi platforms\r\n            for(uint j=0; j<platforms.length; j++){\r\n                IMarketMaker(platforms[j]).make(security, isin, issueSize, currencies[i], offerPrice, minAskPrice, minSubscription);\r\n            }\r\n        }\r\n    }\r\n\r\n    function startIssue(uint256 cutOffTime) external {\r\n        require(registrar==msg.sender);\r\n        for(uint i=0; i<platforms.length; i++){\r\n            IMarketMaker(platforms[i]).setRelayer();\r\n            for(uint j=0; j<currencies.length; j++){\r\n                if(category==\"share\"){\r\n                    IMarketMaker(platforms[i]).issue(shares[currencies[j]].security, cutOffTime);\r\n                    stockIssue.status = \"Started\";\r\n                    emit opened(shares[currencies[j]].security, \"Offered\");\r\n                }\r\n                else if(category==\"bond\"){\r\n                    IMarketMaker(platforms[i]).issue(bonds[currencies[j]].security, cutOffTime);\r\n                    bondIssue.status = \"Started\";\r\n                    emit opened(bonds[currencies[j]].security, \"Offered\");\r\n                }\r\n            }\r\n        }\r\n    }\r\n\r\n    function getLiquidityProviders(address platform, bytes32 isin) external returns(LP.lp[] memory){\r\n        return IMarketMaker(platform).getLiquidityProviders(isin);\r\n    }\r\n\r\n    function getSubscribers() external returns(VerifiedIssues.ioi[] memory) {\r\n        require(registrar==msg.sender);\r\n        for(uint i=0; i<platforms.length; i++){\r\n            for(uint k=0; k<currencies.length; k++){\r\n                address securitytoken;\r\n                if(category==\"share\")\r\n                    securitytoken = shares[currencies[k]].security;\r\n                else if(category==\"bond\")\r\n                    securitytoken = bonds[currencies[k]].security;\r\n                (bytes32[] memory pools, bool issueClosed) = IMarketMaker(platforms[i]).close(securitytoken);\r\n                if(issueClosed){\r\n                    if(category==\"share\")\r\n                        stockIssue.status = \"Closed\";\r\n                    else if(category==\"bond\")\r\n                        bondIssue.status = \"Closed\";\r\n                    emit closed(securitytoken, \"Closed\");\r\n                }\r\n                for(uint j=0; j<pools.length; j++){\r\n                    IMarketMaker.subscriptions[] memory subs = IMarketMaker(platforms[i]).getSubscribers(pools[j]);\r\n                    for(uint l=0; l<subs.length; l++){\r\n                        uint256 count = subscribers[productRef].length;\r\n                        subscribers[productRef][count].platform = platforms[i];\r\n                        subscribers[productRef][count].poolid = pools[j];\r\n                        subscribers[productRef][count].amount = subs[l].amount;\r\n                        subscribers[productRef][count].price = subs[l].price;\r\n                        subscribers[productRef][count].currency = subs[l].name;\r\n                        subscribers[productRef][count].investor = subs[l].investor;\r\n                        subscribers[productRef][count].asset = subs[l].asset;\r\n                        bool found = false;\r\n                        for(uint x=0; x<investors.length; x++){\r\n                            if(investors[x]==subs[l].investor)\r\n                                found = true;\r\n                        }\r\n                        if(!found)\r\n                            investors.push(subs[l].investor);\r\n                    }\r\n                }\r\n            }\r\n        }\r\n        return subscribers[productRef];\r\n    }\r\n\r\n    function allotIssue(bytes32 _allotment, address _platform, bytes32 _pool, address _investor, uint256 _amount, address _asset) external {\r\n        require(registrar==msg.sender);\r\n        timeOfIssue = now;\r\n        if(_allotment==\"accept\"){\r\n            for(uint i=0; i<subscribers[productRef].length; i++){\r\n                if(subscribers[productRef][i].poolid==_pool &&\r\n                   subscribers[productRef][i].investor==_investor &&\r\n                   subscribers[productRef][i].amount >= _amount &&\r\n                   subscribers[productRef][i].asset == _asset\r\n                   ){\r\n                    IMarketMaker(_platform).accept(_pool, _investor, _amount, _asset);\r\n                    subscribers[productRef][i].status == true;\r\n                    bool found = false;\r\n                    for(uint j=0; j<beneficiaries.length; j++){\r\n                        if(beneficiaries[j]==_investor)\r\n                            found = true;\r\n                    }\r\n                    if(!found)\r\n                        beneficiaries.push(_investor);\r\n                }\r\n            }\r\n        }\r\n        else if(_allotment==\"reject\"){\r\n            IMarketMaker(_platform).reject(_pool, _investor);\r\n        }\r\n        if(category==\"share\")\r\n            stockIssue.status = \"Allotted\";\r\n        else if(category==\"bond\")\r\n            bondIssue.status = \"Allotted\";\r\n        emit allotted(address(this), \"Allotted\");\r\n    }\r\n\r\n    function getBeneficiaries() external view returns(address[] memory){\r\n        require(registrar==msg.sender || issuer==msg.sender);\r\n        return beneficiaries;\r\n    }\r\n\r\n    function computeNextInstallment(address _currency) external returns(uint256){\r\n        require(registrar==msg.sender || issuer==msg.sender);\r\n        require(category==\"bond\");\r\n        return (beneficiaries.length * bonds[_currency].coupon);\r\n    }\r\n\r\n    function getPaymentAmountFor(address _beneficiary) external returns(uint256){\r\n        require(registrar==msg.sender || issuer==msg.sender);\r\n        require(category==\"bond\");\r\n        uint256 installments = BokkyPooBahsDateTimeLibrary.subSeconds(now, timeOfIssue)/bondIssue.couponPaymentCycle;\r\n        uint256 paymentMade = 0;\r\n        for(uint i=0; i<installments; i++){\r\n            paymentMade = paymentMade + payouts[_beneficiary][i].amount;\r\n        }\r\n        return (installments);\r\n    }\r\n\r\n    function getPaymentStatusFor(address _beneficiary) external returns(VerifiedIssues.payment[] memory){\r\n        require(registrar==msg.sender || issuer==msg.sender);\r\n        return payouts[_beneficiary];\r\n    }\r\n\r\n    function isAllPaidFor(uint256 _byTime) external returns(address[] memory){\r\n        require(registrar==msg.sender || issuer==msg.sender);\r\n        address[] memory unpaidBeneficiaries = new address[](beneficiaries.length);\r\n        uint count =0;\r\n        for(uint i=0; i<beneficiaries.length; i++){\r\n            uint latestPayment = payouts[beneficiaries[i]].length-1;\r\n            if(_byTime > payouts[beneficiaries[i]][latestPayment].payoutDate){\r\n                unpaidBeneficiaries[count] = beneficiaries[i];\r\n                count = count + 1;\r\n            }\r\n        }\r\n        return unpaidBeneficiaries;\r\n    }\r\n\r\n    function getDateOfIssue() external returns(uint256, uint256, uint256){\r\n        require(registrar==msg.sender || issuer==msg.sender);\r\n        return (BokkyPooBahsDateTimeLibrary.getDay(timeOfIssue),\r\n                BokkyPooBahsDateTimeLibrary.getMonth(timeOfIssue),\r\n                BokkyPooBahsDateTimeLibrary.getYear(timeOfIssue));\r\n    }\r\n\r\n    function getmaturityDate() external returns(uint256, uint256, uint256){\r\n        require(registrar==msg.sender || issuer==msg.sender);\r\n        require(category==\"bond\");\r\n        uint256 maturityDate = BokkyPooBahsDateTimeLibrary.addSeconds(timeOfIssue, bondIssue.tenure);\r\n        return (BokkyPooBahsDateTimeLibrary.getDay(maturityDate),\r\n                BokkyPooBahsDateTimeLibrary.getMonth(maturityDate),\r\n                BokkyPooBahsDateTimeLibrary.getYear(maturityDate));\r\n    }\r\n\r\n    function getfirstCouponDate() external returns(uint256, uint256, uint256){\r\n        require(registrar==msg.sender || issuer==msg.sender);\r\n        require(category==\"bond\");\r\n        uint256 couponDate = BokkyPooBahsDateTimeLibrary.addSeconds(timeOfIssue, bondIssue.couponPaymentCycle);\r\n        return (BokkyPooBahsDateTimeLibrary.getDay(couponDate),\r\n                BokkyPooBahsDateTimeLibrary.getMonth(couponDate),\r\n                BokkyPooBahsDateTimeLibrary.getYear(couponDate));\r\n    }\r\n\r\n    function computeNextCouponDate() external returns(uint256, uint256, uint256){\r\n        require(registrar==msg.sender || issuer==msg.sender);\r\n        require(category==\"bond\");\r\n        for(uint i=0; i<(bondIssue.tenure/bondIssue.couponPaymentCycle); i++){\r\n            if(BokkyPooBahsDateTimeLibrary.addSeconds(timeOfIssue, (bondIssue.couponPaymentCycle*(i+1)))>now){\r\n                uint256 nextDate = BokkyPooBahsDateTimeLibrary.addSeconds(timeOfIssue, (bondIssue.couponPaymentCycle*(i+1)));\r\n                return (BokkyPooBahsDateTimeLibrary.getDay(nextDate),\r\n                        BokkyPooBahsDateTimeLibrary.getMonth(nextDate),\r\n                        BokkyPooBahsDateTimeLibrary.getYear(nextDate));\r\n            }\r\n        }\r\n    }\r\n    \r\n    function getcouponFrequencyInMonths() external returns(uint256){\r\n        require(registrar==msg.sender || issuer==msg.sender);\r\n        require(category==\"bond\");\r\n        uint256 firstCouponDate = BokkyPooBahsDateTimeLibrary.addSeconds(timeOfIssue, bondIssue.couponPaymentCycle);\r\n        return BokkyPooBahsDateTimeLibrary.diffMonths(firstCouponDate, timeOfIssue);\r\n    }\r\n\r\n    function getinterestRateInBips(address _currency) external returns(uint256){\r\n        require(registrar==msg.sender || issuer==msg.sender);\r\n        require(category==\"bond\");\r\n        return bonds[_currency].coupon;\r\n    }\r\n\r\n    function payOut(address _beneficiary, bytes32 _currency, uint256 _amount) external {\r\n        require(registrar==msg.sender || issuer==msg.sender);\r\n        require(category==\"share\" || category==\"bond\");\r\n        (address token, bytes32 tokentype) = ViaFactory(viaFactoryContract).getAddressAndType(_currency);\r\n        if(tokentype==\"ViaCash\"){\r\n            if(ViaCash(token).transferFrom(msg.sender, _beneficiary, _amount)){\r\n                VerifiedIssues.payment memory paid = VerifiedIssues.payment({\r\n                    currency : _currency,\r\n                    amount : _amount,\r\n                    payoutDate : now,\r\n                    payer : msg.sender\r\n                });\r\n                payouts[_beneficiary][payouts[_beneficiary].length] = paid;                \r\n            }\r\n        }\r\n    }\r\n\r\n}",
  "sourcePath": "D:\\Code\\verified-securities\\securities\\contracts\\Issues.sol",
  "compiler": {
    "name": "solc",
    "version": "0.5.7+commit.6da8b019.Emscripten.clang"
  },
  "schemaVersion": "3.4.3",
  "updatedAt": "2022-01-27T17:33:20.915Z",
  "networkType": "ethereum",
  "devdoc": {
    "methods": {}
  },
  "userdoc": {
    "methods": {}
  }
}