{
  "contractName": "Issues",
  "abi": [
    {
      "anonymous": false,
      "inputs": [
        {
          "indexed": false,
          "name": "issueSize",
          "type": "uint256"
        },
        {
          "indexed": false,
          "name": "offerPrice",
          "type": "uint256"
        },
        {
          "indexed": false,
          "name": "minAskPrice",
          "type": "uint256"
        },
        {
          "indexed": false,
          "name": "minSubscription",
          "type": "uint256"
        },
        {
          "indexed": false,
          "name": "currency",
          "type": "bytes32"
        },
        {
          "indexed": false,
          "name": "security",
          "type": "address"
        },
        {
          "indexed": false,
          "name": "offerType",
          "type": "bytes32"
        },
        {
          "indexed": false,
          "name": "isin",
          "type": "bytes32"
        },
        {
          "indexed": false,
          "name": "status",
          "type": "bytes32"
        },
        {
          "indexed": false,
          "name": "productCategory",
          "type": "bytes32"
        }
      ],
      "name": "issued",
      "type": "event"
    },
    {
      "anonymous": false,
      "inputs": [
        {
          "indexed": false,
          "name": "security",
          "type": "address"
        },
        {
          "indexed": false,
          "name": "status",
          "type": "bytes32"
        }
      ],
      "name": "offered",
      "type": "event"
    },
    {
      "anonymous": false,
      "inputs": [
        {
          "indexed": false,
          "name": "security",
          "type": "address"
        },
        {
          "indexed": false,
          "name": "status",
          "type": "bytes32"
        }
      ],
      "name": "opened",
      "type": "event"
    },
    {
      "anonymous": false,
      "inputs": [
        {
          "indexed": false,
          "name": "security",
          "type": "address"
        },
        {
          "indexed": false,
          "name": "status",
          "type": "bytes32"
        }
      ],
      "name": "closed",
      "type": "event"
    },
    {
      "anonymous": false,
      "inputs": [
        {
          "indexed": false,
          "name": "security",
          "type": "address"
        },
        {
          "indexed": false,
          "name": "status",
          "type": "bytes32"
        }
      ],
      "name": "allotted",
      "type": "event"
    },
    {
      "constant": false,
      "inputs": [
        {
          "name": "_productReference",
          "type": "bytes32"
        },
        {
          "name": "_productCategory",
          "type": "bytes32"
        },
        {
          "name": "_issuer",
          "type": "address"
        },
        {
          "name": "_registrar",
          "type": "address"
        },
        {
          "name": "_owner",
          "type": "address"
        },
        {
          "name": "_securityContract",
          "type": "address"
        },
        {
          "name": "_securityRegistriesContract",
          "type": "address"
        },
        {
          "name": "_viaFactoryContract",
          "type": "address"
        }
      ],
      "name": "initialize",
      "outputs": [],
      "payable": false,
      "stateMutability": "nonpayable",
      "type": "function"
    },
    {
      "constant": true,
      "inputs": [],
      "name": "getOwner",
      "outputs": [
        {
          "name": "",
          "type": "address"
        }
      ],
      "payable": false,
      "stateMutability": "view",
      "type": "function"
    },
    {
      "constant": false,
      "inputs": [
        {
          "name": "_issueSize",
          "type": "uint256"
        },
        {
          "name": "_offerPrice",
          "type": "uint256"
        },
        {
          "name": "_minAskPrice",
          "type": "uint256"
        },
        {
          "name": "_minSubscription",
          "type": "uint256"
        },
        {
          "name": "_currency",
          "type": "bytes32"
        },
        {
          "name": "_offerType",
          "type": "bytes32"
        },
        {
          "name": "_isin",
          "type": "bytes32"
        },
        {
          "name": "_offeringDocuments",
          "type": "string"
        }
      ],
      "name": "issueShare",
      "outputs": [],
      "payable": false,
      "stateMutability": "nonpayable",
      "type": "function"
    },
    {
      "constant": true,
      "inputs": [],
      "name": "getShare",
      "outputs": [
        {
          "components": [
            {
              "name": "issueSize",
              "type": "uint256"
            },
            {
              "name": "faceValue",
              "type": "uint256"
            },
            {
              "name": "offerPrice",
              "type": "uint256"
            },
            {
              "name": "minAskPrice",
              "type": "uint256"
            },
            {
              "name": "minSubscription",
              "type": "uint256"
            },
            {
              "name": "currency",
              "type": "bytes32"
            },
            {
              "name": "security",
              "type": "address"
            }
          ],
          "name": "",
          "type": "tuple[]"
        },
        {
          "components": [
            {
              "name": "offerType",
              "type": "bytes32"
            },
            {
              "name": "isin",
              "type": "bytes32"
            },
            {
              "name": "status",
              "type": "bytes32"
            },
            {
              "name": "offeringDocuments",
              "type": "string"
            }
          ],
          "name": "",
          "type": "tuple"
        }
      ],
      "payable": false,
      "stateMutability": "view",
      "type": "function"
    },
    {
      "constant": false,
      "inputs": [
        {
          "name": "_issueSize",
          "type": "uint256"
        },
        {
          "name": "_offerPrice",
          "type": "uint256"
        },
        {
          "name": "_minAskPrice",
          "type": "uint256"
        },
        {
          "name": "_minSubscription",
          "type": "uint256"
        },
        {
          "name": "_couponPaymentCycle",
          "type": "uint256"
        },
        {
          "name": "_tenure",
          "type": "uint256"
        },
        {
          "name": "_currency",
          "type": "bytes32"
        },
        {
          "name": "_offerType",
          "type": "bytes32"
        },
        {
          "name": "_isin",
          "type": "bytes32"
        },
        {
          "name": "_offeringDocuments",
          "type": "string"
        }
      ],
      "name": "issueBond",
      "outputs": [],
      "payable": false,
      "stateMutability": "nonpayable",
      "type": "function"
    },
    {
      "constant": true,
      "inputs": [],
      "name": "getBond",
      "outputs": [
        {
          "components": [
            {
              "name": "issueSize",
              "type": "uint256"
            },
            {
              "name": "coupon",
              "type": "uint256"
            },
            {
              "name": "offerPrice",
              "type": "uint256"
            },
            {
              "name": "minAskPrice",
              "type": "uint256"
            },
            {
              "name": "minSubscription",
              "type": "uint256"
            },
            {
              "name": "currency",
              "type": "bytes32"
            },
            {
              "name": "security",
              "type": "address"
            }
          ],
          "name": "",
          "type": "tuple[]"
        },
        {
          "components": [
            {
              "name": "offerType",
              "type": "bytes32"
            },
            {
              "name": "couponPaymentCycle",
              "type": "uint256"
            },
            {
              "name": "tenure",
              "type": "uint256"
            },
            {
              "name": "isin",
              "type": "bytes32"
            },
            {
              "name": "status",
              "type": "bytes32"
            },
            {
              "name": "offeringDocuments",
              "type": "string"
            }
          ],
          "name": "",
          "type": "tuple"
        }
      ],
      "payable": false,
      "stateMutability": "view",
      "type": "function"
    },
    {
      "constant": false,
      "inputs": [
        {
          "name": "_liquidityPlatform",
          "type": "address"
        }
      ],
      "name": "registerPlatform",
      "outputs": [],
      "payable": false,
      "stateMutability": "nonpayable",
      "type": "function"
    },
    {
      "constant": false,
      "inputs": [],
      "name": "askOffers",
      "outputs": [],
      "payable": false,
      "stateMutability": "nonpayable",
      "type": "function"
    },
    {
      "constant": false,
      "inputs": [
        {
          "name": "cutOffTime",
          "type": "uint256"
        }
      ],
      "name": "startIssue",
      "outputs": [],
      "payable": false,
      "stateMutability": "nonpayable",
      "type": "function"
    },
    {
      "constant": false,
      "inputs": [
        {
          "name": "platform",
          "type": "address"
        },
        {
          "name": "isin",
          "type": "bytes32"
        }
      ],
      "name": "getLiquidityProviders",
      "outputs": [
        {
          "components": [
            {
              "name": "owner",
              "type": "address"
            },
            {
              "name": "amountOffered",
              "type": "uint256"
            },
            {
              "name": "amountDesired",
              "type": "uint256"
            },
            {
              "name": "min",
              "type": "uint256"
            }
          ],
          "name": "",
          "type": "tuple[]"
        }
      ],
      "payable": false,
      "stateMutability": "nonpayable",
      "type": "function"
    },
    {
      "constant": false,
      "inputs": [],
      "name": "getSubscribers",
      "outputs": [
        {
          "components": [
            {
              "name": "currency",
              "type": "bytes32"
            },
            {
              "name": "amount",
              "type": "uint256"
            },
            {
              "name": "price",
              "type": "uint256"
            },
            {
              "name": "poolid",
              "type": "bytes32"
            },
            {
              "name": "status",
              "type": "bool"
            },
            {
              "name": "platform",
              "type": "address"
            },
            {
              "name": "investor",
              "type": "address"
            },
            {
              "name": "asset",
              "type": "address"
            }
          ],
          "name": "",
          "type": "tuple[]"
        }
      ],
      "payable": false,
      "stateMutability": "nonpayable",
      "type": "function"
    },
    {
      "constant": false,
      "inputs": [
        {
          "name": "_allotment",
          "type": "bytes32"
        },
        {
          "name": "_platform",
          "type": "address"
        },
        {
          "name": "_pool",
          "type": "bytes32"
        },
        {
          "name": "_investor",
          "type": "address"
        },
        {
          "name": "_amount",
          "type": "uint256"
        },
        {
          "name": "_asset",
          "type": "address"
        }
      ],
      "name": "allotIssue",
      "outputs": [],
      "payable": false,
      "stateMutability": "nonpayable",
      "type": "function"
    },
    {
      "constant": true,
      "inputs": [],
      "name": "getBeneficiaries",
      "outputs": [
        {
          "name": "",
          "type": "address[]"
        }
      ],
      "payable": false,
      "stateMutability": "view",
      "type": "function"
    },
    {
      "constant": false,
      "inputs": [
        {
          "name": "_currency",
          "type": "address"
        }
      ],
      "name": "computeNextInstallment",
      "outputs": [
        {
          "name": "",
          "type": "uint256"
        }
      ],
      "payable": false,
      "stateMutability": "nonpayable",
      "type": "function"
    },
    {
      "constant": false,
      "inputs": [
        {
          "name": "_beneficiary",
          "type": "address"
        }
      ],
      "name": "getPaymentAmountFor",
      "outputs": [
        {
          "name": "",
          "type": "uint256"
        }
      ],
      "payable": false,
      "stateMutability": "nonpayable",
      "type": "function"
    },
    {
      "constant": false,
      "inputs": [
        {
          "name": "_beneficiary",
          "type": "address"
        }
      ],
      "name": "getPaymentStatusFor",
      "outputs": [
        {
          "components": [
            {
              "name": "currency",
              "type": "bytes32"
            },
            {
              "name": "amount",
              "type": "uint256"
            },
            {
              "name": "payoutDate",
              "type": "uint256"
            },
            {
              "name": "payer",
              "type": "address"
            }
          ],
          "name": "",
          "type": "tuple[]"
        }
      ],
      "payable": false,
      "stateMutability": "nonpayable",
      "type": "function"
    },
    {
      "constant": false,
      "inputs": [
        {
          "name": "_byTime",
          "type": "uint256"
        }
      ],
      "name": "isAllPaidFor",
      "outputs": [
        {
          "name": "",
          "type": "address[]"
        }
      ],
      "payable": false,
      "stateMutability": "nonpayable",
      "type": "function"
    },
    {
      "constant": false,
      "inputs": [],
      "name": "getDateOfIssue",
      "outputs": [
        {
          "name": "",
          "type": "uint256"
        },
        {
          "name": "",
          "type": "uint256"
        },
        {
          "name": "",
          "type": "uint256"
        }
      ],
      "payable": false,
      "stateMutability": "nonpayable",
      "type": "function"
    },
    {
      "constant": false,
      "inputs": [],
      "name": "getmaturityDate",
      "outputs": [
        {
          "name": "",
          "type": "uint256"
        },
        {
          "name": "",
          "type": "uint256"
        },
        {
          "name": "",
          "type": "uint256"
        }
      ],
      "payable": false,
      "stateMutability": "nonpayable",
      "type": "function"
    },
    {
      "constant": false,
      "inputs": [],
      "name": "getfirstCouponDate",
      "outputs": [
        {
          "name": "",
          "type": "uint256"
        },
        {
          "name": "",
          "type": "uint256"
        },
        {
          "name": "",
          "type": "uint256"
        }
      ],
      "payable": false,
      "stateMutability": "nonpayable",
      "type": "function"
    },
    {
      "constant": false,
      "inputs": [],
      "name": "computeNextCouponDate",
      "outputs": [
        {
          "name": "",
          "type": "uint256"
        },
        {
          "name": "",
          "type": "uint256"
        },
        {
          "name": "",
          "type": "uint256"
        }
      ],
      "payable": false,
      "stateMutability": "nonpayable",
      "type": "function"
    },
    {
      "constant": false,
      "inputs": [],
      "name": "getcouponFrequencyInMonths",
      "outputs": [
        {
          "name": "",
          "type": "uint256"
        }
      ],
      "payable": false,
      "stateMutability": "nonpayable",
      "type": "function"
    },
    {
      "constant": false,
      "inputs": [
        {
          "name": "_currency",
          "type": "address"
        }
      ],
      "name": "getinterestRateInBips",
      "outputs": [
        {
          "name": "",
          "type": "uint256"
        }
      ],
      "payable": false,
      "stateMutability": "nonpayable",
      "type": "function"
    },
    {
      "constant": false,
      "inputs": [
        {
          "name": "_beneficiary",
          "type": "address"
        },
        {
          "name": "_currency",
          "type": "bytes32"
        },
        {
          "name": "_amount",
          "type": "uint256"
        }
      ],
      "name": "payOut",
      "outputs": [],
      "payable": false,
      "stateMutability": "nonpayable",
      "type": "function"
    }
  ],
  "bytecode": "0x608060405234801561001057600080fd5b5061470c806100206000396000f3fe608060405234801561001057600080fd5b50600436106101585760003560e01c806375298734116100c3578063b43ea0661161007c578063b43ea066146102c7578063d3340fb6146102cf578063d6088981146102e2578063dc442029146102f5578063f010e2c2146102fd578063f76ebabb1461031057610158565b806375298734146102635780638415560014610279578063893d20e81461028c578063913b722c146102a1578063982b2568146102a9578063ac982472146102b157610158565b80634274515d116101155780634274515d146101de57806343af762f146101f35780634afc82bd1461021357806358ce1f79146102265780635e075a431461023957806366f2f9c01461025057610158565b806305cc61ad1461015d57806307c5ae701461017b5780631bafe1b91461019057806321ec2b42146101a357806323b83a5e146101b65780633cb4bd63146101d6575b600080fd5b610165610330565b6040516101729190614429565b60405180910390f35b61018e610189366004613aba565b610a53565b005b61018e61019e366004613965565b610d8d565b61018e6101b1366004613b86565b611132565b6101c96101c4366004613a9c565b611477565b60405161017291906143ce565b61018e6115ef565b6101e6611dd6565b604051610172919061445c565b6102066102013660046137c1565b611e44565b604051610172919061443a565b61018e6102213660046139ec565b611ed5565b6101e661023436600461377d565b611fe3565b610241612098565b604051610172939291906144ba565b6101e661025e36600461377d565b612120565b61026b61218a565b604051610172929190614404565b61018e61028736600461382b565b612533565b610294612707565b6040516101729190614272565b6101c9612731565b6102416127c0565b6102b961281e565b6040516101729291906143df565b610241612b97565b61018e6102dd36600461377d565b612c67565b6101e66102f036600461377d565b612cd0565b610241612d36565b61018e61030b366004613a9c565b612d95565b61032361031e36600461377d565b61310f565b604051610172919061444b565b6037546060906001600160a01b0316331461034a57600080fd5b60005b603e5481101561098b5760005b603f54811015610982576000603454600160d81b6473686172650214156103c15760426000603f848154811061038c57fe5b60009182526020808320909101546001600160a01b039081168452908301939093526040909101902060060154169050610417565b603454600160e21b63189bdb990214156104175760476000603f84815481106103e657fe5b60009182526020808320909101546001600160a01b0390811684529083019390935260409091019020600601541690505b60606000603e858154811061042857fe5b600091825260209091200154604051600160e01b63c74073a10281526001600160a01b039091169063c74073a190610464908690600401614272565b600060405180830381600087803b15801561047e57600080fd5b505af1158015610492573d6000803e3d6000fd5b505050506040513d6000823e601f3d908101601f191682016040526104ba9190810190613878565b91509150801561054b57603454600160d81b6473686172650214156104ee57600160d21b6510db1bdcd95902604555610513565b603454600160e21b63189bdb9902141561051357600160d21b6510db1bdcd95902604c555b7f740ceeecb0c18ce3fa5eea6dd340f21c17bc1af2554ba4931954bfa38bacd18b83604051610542919061435e565b60405180910390a15b60005b8251811015610972576060603e878154811061056657fe5b60009182526020909120015484516001600160a01b039091169063bfa0caa79086908590811061059257fe5b60200260200101516040518263ffffffff1660e01b81526004016105b6919061445c565b600060405180830381600087803b1580156105d057600080fd5b505af11580156105e4573d6000803e3d6000fd5b505050506040513d6000823e601f3d908101601f1916820160405261060c91908101906138f4565b905060005b8151811015610968576033546000908152604e6020526040902054603e80548a90811061063a57fe5b60009182526020808320909101546033548352604e909152604090912080546001600160a01b03909216918390811061066f57fe5b906000526020600020906007020160040160016101000a8154816001600160a01b0302191690836001600160a01b031602179055508584815181106106b057fe5b6020026020010151604e6000603354815260200190815260200160002082815481106106d857fe5b9060005260206000209060070201600301819055508282815181106106f957fe5b602002602001015160600151604e60006033548152602001908152602001600020828154811061072557fe5b90600052602060002090600702016001018190555082828151811061074657fe5b602002602001015160800151604e60006033548152602001908152602001600020828154811061077257fe5b90600052602060002090600702016002018190555082828151811061079357fe5b602002602001015160400151604e6000603354815260200190815260200160002082815481106107bf57fe5b9060005260206000209060070201600001819055508282815181106107e057fe5b602002602001015160000151604e60006033548152602001908152602001600020828154811061080c57fe5b906000526020600020906007020160050160006101000a8154816001600160a01b0302191690836001600160a01b0316021790555082828151811061084d57fe5b602002602001015160200151604e60006033548152602001908152602001600020828154811061087957fe5b6000918252602082206007919091020160060180546001600160a01b0319166001600160a01b039390931692909217909155805b60405481101561090d578484815181106108c357fe5b6020026020010151600001516001600160a01b0316604082815481106108e557fe5b6000918252602090912001546001600160a01b0316141561090557600191505b6001016108ad565b508061095e57604084848151811061092157fe5b6020908102919091018101515182546001810184556000938452919092200180546001600160a01b0319166001600160a01b039092169190911790555b5050600101610611565b505060010161054e565b50506001909201915061035a9050565b5060010161034d565b506033546000908152604e6020908152604080832080548251818502810185019093528083529193909284015b82821015610a4957600084815260209081902060408051610100808201835260078702909301805482526001808201548387015260028201549383019390935260038101546060830152600481015460ff8116151560808401526001600160a01b03949004841660a08301526005810154841660c08301526006015490921660e083015290835290920191016109b8565b5050505090505b90565b6037546001600160a01b03163314610a6a57600080fd5b603454600160d81b6453746f636b0214610a8357600080fd5b603954603354604051600160e21b633d3f3fe902815230926001600160a01b03169163f4fcffa491610ab8919060040161445c565b60206040518083038186803b158015610ad057600080fd5b505afa158015610ae4573d6000803e3d6000fd5b505050506040513d601f19601f82011682018060405250610b0891908101906137a3565b6001600160a01b031614610b1b57600080fd5b603c54604051600160e21b633cd163c502815260009182916001600160a01b039091169063f3458f1490610b53908a906004016144d5565b60206040518083038186803b158015610b6b57600080fd5b505afa158015610b7f573d6000803e3d6000fd5b505050506040513d601f19601f82011682018060405250610ba391908101906137a3565b603c54604051600160e01b63f429f19b0281529192506001600160a01b03169063f429f19b90610bd7908490600401614272565b60206040518083038186803b158015610bef57600080fd5b505afa158015610c03573d6000803e3d6000fd5b505050506040513d601f19601f82011682018060405250610c279190810190613947565b600160cb1b660acd2c286c2e6d0214610c3f57600080fd5b60005b603f54811015610c8b57816001600160a01b0316603f8281548110610c6357fe5b6000918252602090912001546001600160a01b03161415610c8357600192505b600101610c42565b5081610cdd57603f80546001810182556000919091527fc03004e3ce0784bf68186394306849f9b7b1200073105cd9aeb554a1802b58fd0180546001600160a01b0319166001600160a01b0383161790555b6001600160a01b03811660009081526042602052604090208b8155600281018b9055600381018a90556004810189905560050187905560438690556044859055610d296046858561333e565b50600160d21b65125cdcdd5959026045556040517f9db73b9e34b67b0482a252ae5e5448652d5745ede72cfa129660d76c3722598390610d78908d908d908d908d908d9030908e908e90614590565b60405180910390a15050505050505050505050565b6037546001600160a01b03163314610da457600080fd5b42603d55600160d21b651858d8d95c1d028614156110285760005b6033546000908152604e60205260409020548110156110225784604e600060335481526020019081526020016000208281548110610df957fe5b906000526020600020906007020160030154148015610e5c5750836001600160a01b0316604e600060335481526020019081526020016000208281548110610e3d57fe5b60009182526020909120600560079092020101546001600160a01b0316145b8015610e99575082604e600060335481526020019081526020016000208281548110610e8457fe5b90600052602060002090600702016001015410155b8015610ee95750816001600160a01b0316604e600060335481526020019081526020016000208281548110610eca57fe5b60009182526020909120600660079092020101546001600160a01b0316145b1561101a57604051600160e01b638a0c62f10281526001600160a01b03871690638a0c62f190610f23908890889088908890600401614485565b600060405180830381600087803b158015610f3d57600080fd5b505af1158015610f51573d6000803e3d6000fd5b50505050604e600060335481526020019081526020016000208181548110610f7557fe5b506000908152805b604154811015610fc657856001600160a01b031660418281548110610f9e57fe5b6000918252602090912001546001600160a01b03161415610fbe57600191505b600101610f7d565b508061101857604180546001810182556000919091527f7c9785e8241615bc80415d89775984a1337d15dc1bf4ce50f41988b2a2b336a70180546001600160a01b0319166001600160a01b0387161790555b505b600101610dbf565b506110a0565b85600160d21b651c995a9958dd0214156110a057604051600160e31b6307e132050281526001600160a01b03861690633f0990289061106d908790879060040161446a565b600060405180830381600087803b15801561108757600080fd5b505af115801561109b573d6000803e3d6000fd5b505050505b603454600160d81b6473686172650214156110cc57600160c21b67105b1b1bdd1d1959026045556110f3565b603454600160e21b63189bdb990214156110f357600160c21b67105b1b1bdd1d195902604c555b7f03b095f68fee05efe5e24b3561adcaff741870d703b9bce62535d572cc084a30306040516111229190614392565b60405180910390a1505050505050565b6037546001600160a01b0316331461114957600080fd5b603454600160e21b63109bdb99021461116157600080fd5b603954603354604051600160e21b633d3f3fe902815230926001600160a01b03169163f4fcffa491611196919060040161445c565b60206040518083038186803b1580156111ae57600080fd5b505afa1580156111c2573d6000803e3d6000fd5b505050506040513d601f19601f820116820180604052506111e691908101906137a3565b6001600160a01b0316146111f957600080fd5b603c54604051600160e21b633cd163c502815260009182916001600160a01b039091169063f3458f1490611231908a906004016144d5565b60206040518083038186803b15801561124957600080fd5b505afa15801561125d573d6000803e3d6000fd5b505050506040513d601f19601f8201168201806040525061128191908101906137a3565b603c54604051600160e01b63f429f19b0281529192506001600160a01b03169063f429f19b906112b5908490600401614272565b60206040518083038186803b1580156112cd57600080fd5b505afa1580156112e1573d6000803e3d6000fd5b505050506040513d601f19601f820116820180604052506113059190810190613947565b600160cb1b660acd2c286c2e6d021461131d57600080fd5b60005b603f5481101561136957816001600160a01b0316603f828154811061134157fe5b6000918252602090912001546001600160a01b0316141561136157600192505b600101611320565b50816113bb57603f80546001810182556000919091527fc03004e3ce0784bf68186394306849f9b7b1200073105cd9aeb554a1802b58fd0180546001600160a01b0319166001600160a01b0383161790555b6001600160a01b03811660009081526047602052604090208d8155600281018d9055600381018c9055600481018b905560050187905560488690556049899055604a889055604b859055611411604d858561333e565b50600160d21b65125cdcdd595902604c556040517f9db73b9e34b67b0482a252ae5e5448652d5745ede72cfa129660d76c3722598390611460908f908f908f908f908d9030908e908e906144ff565b60405180910390a150505050505050505050505050565b6037546060906001600160a01b031633148061149d57506036546001600160a01b031633145b6114a657600080fd5b60415460408051828152602080840282010190915260609180156114d4578160200160208202803883390190505b5090506000805b6041548110156115e65760006001604f6000604185815481106114fa57fe5b60009182526020808320909101546001600160a01b0316835282019290925260400181205460418054939091039350604f928590811061153657fe5b60009182526020808320909101546001600160a01b03168352820192909252604001902080548290811061156657fe5b9060005260206000209060040201600201548611156115dd576041828154811061158c57fe5b9060005260206000200160009054906101000a90046001600160a01b03168484815181106115b657fe5b60200260200101906001600160a01b031690816001600160a01b0316815250508260010192505b506001016114db565b50909392505050565b6037546001600160a01b0316331461160657600080fd5b60008080808080805b603f54811015611dcd57603454600160d81b64736861726502141561176757604360010154965060426000603f838154811061164757fe5b60009182526020808320909101546001600160a01b03168352820192909252604001812060050154603f8054919850604292918490811061168457fe5b60009182526020808320909101546001600160a01b03168352820192909252604001812054603f805491975060429291849081106116be57fe5b60009182526020808320909101546001600160a01b03168352820192909252604001812060020154603f805491965060429291849081106116fb57fe5b60009182526020808320909101546001600160a01b03168352820192909252604001812060030154603f8054919550604292918490811061173857fe5b60009182526020808320909101546001600160a01b0316835282019290925260400190206004015491506118b0565b603454600160e21b63189bdb990214156118b057604860030154965060476000603f838154811061179457fe5b60009182526020808320909101546001600160a01b03168352820192909252604001812060050154603f805491985060479291849081106117d157fe5b60009182526020808320909101546001600160a01b03168352820192909252604001812054603f8054919750604792918490811061180b57fe5b60009182526020808320909101546001600160a01b03168352820192909252604001812060020154603f8054919650604792918490811061184857fe5b60009182526020808320909101546001600160a01b03168352820192909252604001812060030154603f8054919550604792918490811061188557fe5b60009182526020808320909101546001600160a01b0316835282019290925260400190206004015491505b603b54603954603354604051600160e11b63522127410281526001600160a01b0393841693638d079e4d93169163a4424e82916118f0919060040161445c565b60206040518083038186803b15801561190857600080fd5b505afa15801561191c573d6000803e3d6000fd5b505050506040513d601f19601f8201168201806040525061194091908101906137a3565b603a54603954603354604051600160e01b63572d82990281526001600160a01b03938416938d93169163572d82999161197c919060040161445c565b60206040518083038186803b15801561199457600080fd5b505afa1580156119a8573d6000803e3d6000fd5b505050506040513d601f19601f820116820180604052506119cc9190810190613947565b8c6040518663ffffffff1660e01b81526004016119ed9594939291906142a8565b600060405180830381600087803b158015611a0757600080fd5b505af1158015611a1b573d6000803e3d6000fd5b5050603b54603954603354604051600160e01b63572d82990281526001600160a01b039384169550639c3acea094508b939092169163572d829991611a629160040161445c565b60206040518083038186803b158015611a7a57600080fd5b505afa158015611a8e573d6000803e3d6000fd5b505050506040513d601f19601f82011682018060405250611ab29190810190613947565b8a6040518463ffffffff1660e01b8152600401611ad1939291906144ba565b60206040518083038186803b158015611ae957600080fd5b505afa158015611afd573d6000803e3d6000fd5b505050506040513d601f19601f82011682018060405250611b2191908101906137a3565b603880546001600160a01b0319166001600160a01b039283161790819055604051600160e01b6340c10f190281529116906340c10f1990611b6890309089906004016143ac565b600060405180830381600087803b158015611b8257600080fd5b505af1158015611b96573d6000803e3d6000fd5b50505050603454600160d81b647368617265021415611c2b57603854603f80546001600160a01b039092169160429160009185908110611bd257fe5b6000918252602080832091909101546001600160a01b039081168452908301939093526040909101902060060180546001600160a01b03191692909116919091179055600160ca1b6613d999995c995902604555611cb7565b603454600160e21b63189bdb99021415611cb757603854603f80546001600160a01b039092169160479160009185908110611c6257fe5b6000918252602080832091909101546001600160a01b039081168452908301939093526040909101902060060180546001600160a01b03191692909116919091179055600160ca1b6613d999995c995902604c555b6038546040517ff4503fa8a89133c55d060f625dd7c591b559496759626476dd2233e41ea9ad3291611cf4916001600160a01b0390911690614378565b60405180910390a160005b603e54811015611dc457603e8181548110611d1657fe5b600091825260209091200154603854603f80546001600160a01b0393841693632a20e8df9316918c918b919088908110611d4c57fe5b60009182526020909120015460405163ffffffff861660e01b8152611d86949392916001600160a01b0316908c908c908c906004016142f6565b600060405180830381600087803b158015611da057600080fd5b505af1158015611db4573d6000803e3d6000fd5b505060019092019150611cff9050565b5060010161160f565b50505050505050565b6037546000906001600160a01b0316331480611dfc57506036546001600160a01b031633145b611e0557600080fd5b603454600160e21b63189bdb990214611e1d57600080fd5b6000611e30603d546048600101546131d9565b9050611e3e81603d546131e9565b91505090565b604051600160e11b636766ae970281526060906001600160a01b0384169063cecd5d2e90611e7690859060040161445c565b600060405180830381600087803b158015611e9057600080fd5b505af1158015611ea4573d6000803e3d6000fd5b505050506040513d6000823e601f3d908101601f19168201604052611ecc91908101906138bf565b90505b92915050565b600054610100900460ff1680611eee5750611eee613240565b80611efc575060005460ff16155b611f2457604051600160e51b62461bcd028152600401611f1b906144ef565b60405180910390fd5b600054610100900460ff16158015611f4f576000805460ff1961ff0019909116610100171660011790555b603580546001600160a01b03199081166001600160a01b038881169190911790925560338b905560348a90556036805482168a84161790556037805482168984161790556039805433908316179055603a80548216878416179055603b80548216868416179055603c80549091169184169190911790558015611fd8576000805461ff00191690555b505050505050505050565b6037546000906001600160a01b031633148061200957506036546001600160a01b031633145b61201257600080fd5b603454600160e21b63189bdb99021461202a57600080fd5b600060486001015461203e42603d54613246565b8161204557fe5b0490506000805b828110156115e6576001600160a01b0385166000908152604f6020526040902080548290811061207857fe5b60009182526020909120600160049092020181015492909201910161204c565b603754600090819081906001600160a01b03163314806120c257506036546001600160a01b031633145b6120cb57600080fd5b603454600160e21b63189bdb9902146120e357600080fd5b60006120f6603d546048600101546131d9565b905061210181613256565b61210a82613271565b6121138361328c565b935093509350505b909192565b6037546000906001600160a01b031633148061214657506036546001600160a01b031633145b61214f57600080fd5b603454600160e21b63189bdb99021461216757600080fd5b506001600160a01b03166000908152604760205260409020600101546041540290565b60606121946133bc565b603f5460408051828152602080840282010190915260609180156121d257816020015b6121bf6133e2565b8152602001906001900390816121b75790505b5090506121dd6133e2565b60005b603f5481101561246c576040518060e0016040528060426000603f858154811061220657fe5b9060005260206000200160009054906101000a90046001600160a01b03166001600160a01b03166001600160a01b0316815260200190815260200160002060000154815260200160426000603f858154811061225e57fe5b9060005260206000200160009054906101000a90046001600160a01b03166001600160a01b03166001600160a01b0316815260200190815260200160002060010154815260200160426000603f85815481106122b657fe5b9060005260206000200160009054906101000a90046001600160a01b03166001600160a01b03166001600160a01b0316815260200190815260200160002060020154815260200160426000603f858154811061230e57fe5b9060005260206000200160009054906101000a90046001600160a01b03166001600160a01b03166001600160a01b0316815260200190815260200160002060030154815260200160426000603f858154811061236657fe5b9060005260206000200160009054906101000a90046001600160a01b03166001600160a01b03166001600160a01b0316815260200190815260200160002060040154815260200160426000603f85815481106123be57fe5b9060005260206000200160009054906101000a90046001600160a01b03166001600160a01b03166001600160a01b0316815260200190815260200160002060050154815260200160426000603f858154811061241657fe5b60009182526020808320909101546001600160a01b0390811684529083019390935260409091019020600601541690528351909250829084908390811061245957fe5b60209081029190910101526001016121e0565b50604080516080810182526043805482526044546020808401919091526045548385015260468054855160026001831615610100026000190190921691909104601f8101849004840282018401909652858152879593949385936060860193919083018282801561251e5780601f106124f35761010080835404028352916020019161251e565b820191906000526020600020905b81548152906001019060200180831161250157829003601f168201915b50505050508152505090509350935050509091565b6037546001600160a01b031633148061255657506036546001600160a01b031633145b61255f57600080fd5b603454600160d81b6473686172650214806125855750603454600160e21b63189bdb9902145b61258e57600080fd5b603c54604051600160e21b632e5ac80102815260009182916001600160a01b039091169063b96b2004906125c690879060040161445c565b604080518083038186803b1580156125dd57600080fd5b505afa1580156125f1573d6000803e3d6000fd5b505050506040513d601f19601f8201168201806040525061261591908101906137fb565b9150915080600160cb1b660acd2c286c2e6d02141561270057604051600160e01b6323b872dd0281526001600160a01b038316906323b872dd9061266190339089908890600401614280565b602060405180830381600087803b15801561267b57600080fd5b505af115801561268f573d6000803e3d6000fd5b505050506040513d601f19601f820116820180604052506126b39190810190613929565b15612700576126c061342b565b5060408051608081018252858152602080820186905242828401523360608301526001600160a01b0388166000908152604f909152919091208054829190fe5b5050505050565b603b546000906001600160a01b0316331461272157600080fd5b506035546001600160a01b031690565b6037546060906001600160a01b031633148061275757506036546001600160a01b031633145b61276057600080fd5b60418054806020026020016040519081016040528092919081815260200182805480156127b657602002820191906000526020600020905b81546001600160a01b03168152600190910190602001808311612798575b5050505050905090565b603754600090819081906001600160a01b03163314806127ea57506036546001600160a01b031633145b6127f357600080fd5b603454600160e21b63189bdb99021461280b57600080fd5b60006120f6603d546048600201546131d9565b6060612828613452565b603f54604080518281526020808402820101909152606091801561286657816020015b6128536133e2565b81526020019060019003908161284b5790505b5090506128716133e2565b60005b603f54811015612b00576040518060e0016040528060476000603f858154811061289a57fe5b9060005260206000200160009054906101000a90046001600160a01b03166001600160a01b03166001600160a01b0316815260200190815260200160002060000154815260200160476000603f85815481106128f257fe5b9060005260206000200160009054906101000a90046001600160a01b03166001600160a01b03166001600160a01b0316815260200190815260200160002060010154815260200160476000603f858154811061294a57fe5b9060005260206000200160009054906101000a90046001600160a01b03166001600160a01b03166001600160a01b0316815260200190815260200160002060020154815260200160476000603f85815481106129a257fe5b9060005260206000200160009054906101000a90046001600160a01b03166001600160a01b03166001600160a01b0316815260200190815260200160002060030154815260200160476000603f85815481106129fa57fe5b9060005260206000200160009054906101000a90046001600160a01b03166001600160a01b03166001600160a01b0316815260200190815260200160002060040154815260200160476000603f8581548110612a5257fe5b9060005260206000200160009054906101000a90046001600160a01b03166001600160a01b03166001600160a01b0316815260200190815260200160002060050154815260200160476000603f8581548110612aaa57fe5b60009182526020808320909101546001600160a01b03908116845290830193909352604090910190206006015416905283519092508290849083908110612aed57fe5b6020908102919091010152600101612874565b506040805160c081018252604880548252604954602080840191909152604a5483850152604b546060840152604c546080840152604d8054855160026001831615610100026000190190921691909104601f81018490048402820184019096528581528795939493859360a0860193919083018282801561251e5780601f106124f35761010080835404028352916020019161251e565b603754600090819081906001600160a01b0316331480612bc157506036546001600160a01b031633145b612bca57600080fd5b603454600160e21b63189bdb990214612be257600080fd5b60005b604954604a5481612bf257fe5b04811015612c615742612c11603d5483600101604860010154026131d9565b1115612c59576000612c2f603d5483600101604860010154026131d9565b9050612c3a81613256565b612c4382613271565b612c4c8361328c565b945094509450505061211b565b600101612be5565b50909192565b6039546001600160a01b03163314612c7e57600080fd5b603e80546001810182556000919091527f8d800d6614d35eed73733ee453164a3b48076eb3138f466adeeb9dec7bb31f700180546001600160a01b0319166001600160a01b0392909216919091179055565b6037546000906001600160a01b0316331480612cf657506036546001600160a01b031633145b612cff57600080fd5b603454600160e21b63189bdb990214612d1757600080fd5b506001600160a01b031660009081526047602052604090206001015490565b603754600090819081906001600160a01b0316331480612d6057506036546001600160a01b031633145b612d6957600080fd5b612d74603d54613256565b612d7f603d54613271565b612d8a603d5461328c565b925092509250909192565b6037546001600160a01b03163314612dac57600080fd5b60005b603e5481101561310b57603e8181548110612dc657fe5b600091825260208220015460408051600160e11b6355e47b0302815290516001600160a01b039092169263abc8f6069260048084019382900301818387803b158015612e1157600080fd5b505af1158015612e25573d6000803e3d6000fd5b506000925050505b603f5481101561310257603454600160d81b647368617265021415612f9b57603e8281548110612e5957fe5b6000918252602082200154603f80546001600160a01b039092169263867904b4926042929086908110612e8857fe5b60009182526020808320909101546001600160a01b039081168452908301939093526040918201902060060154905163ffffffff841660e01b8152612ed692919091169087906004016143ac565b600060405180830381600087803b158015612ef057600080fd5b505af1158015612f04573d6000803e3d6000fd5b50505050600160ca1b6614dd185c9d1959026043600201819055507f9a17155a17018d770a1d614ea564978a64992afbd4577a46f3797f7102c260e860426000603f8481548110612f5157fe5b60009182526020808320909101546001600160a01b0390811684529083019390935260409182019020600601549051612f8e929190911690614378565b60405180910390a16130fa565b603454600160e21b63189bdb990214156130fa57603e8281548110612fbc57fe5b6000918252602082200154603f80546001600160a01b039092169263867904b4926047929086908110612feb57fe5b60009182526020808320909101546001600160a01b039081168452908301939093526040918201902060060154905163ffffffff841660e01b815261303992919091169087906004016143ac565b600060405180830381600087803b15801561305357600080fd5b505af1158015613067573d6000803e3d6000fd5b50505050600160ca1b6614dd185c9d1959026048600401819055507f9a17155a17018d770a1d614ea564978a64992afbd4577a46f3797f7102c260e860476000603f84815481106130b457fe5b60009182526020808320909101546001600160a01b03908116845290830193909352604091820190206006015490516130f1929190911690614378565b60405180910390a15b600101612e2d565b50600101612daf565b5050565b6037546060906001600160a01b031633148061313557506036546001600160a01b031633145b61313e57600080fd5b6001600160a01b0382166000908152604f6020908152604080832080548251818502810185019093528083529193909284015b828210156131ce57600084815260209081902060408051608081018252600486029092018054835260018082015484860152600282015492840192909252600301546001600160a01b031660608301529083529092019101613171565b505050509050919050565b81810182811015611ecf57600080fd5b6000818311156131f857600080fd5b6000808080808061320e620151808a5b046132a8565b919750955093506132226201518089613208565b50600c97880297909102019590950393909303979650505050505050565b303b1590565b80820382811115611ecf57600080fd5b600080806132676201518085613208565b9695505050505050565b600080806132826201518085613208565b5095945050505050565b6000808061329d6201518085613208565b509095945050505050565b60008080836226496581018262023ab1600483020590506004600362023ab18302010590910390600062164b09610fa0600185010205905060046105b58202058303601f019250600061098f84605002816132ff57fe5b0590506000605061098f83020585039050600b820560301994909401606402929092018301996002600c90940290910392909201975095509350505050565b828054600181600116156101000203166002900490600052602060002090601f016020900481019282601f1061337f5782800160ff198235161785556133ac565b828001600101855582156133ac579182015b828111156133ac578235825591602001919060010190613391565b506133b8929150613489565b5090565b604080516080810182526000808252602082018190529181019190915260608082015290565b6040518060e0016040528060008152602001600081526020016000815260200160008152602001600081526020016000801916815260200160006001600160a01b031681525090565b60408051608081018252600080825260208201819052918101829052606081019190915290565b6040805160c0810182526000808252602082018190529181018290526060808201839052608082019290925260a081019190915290565b610a5091905b808211156133b8576000815560010161348f565b6000611ecc823561466f565b6000611ecc825161466f565b600082601f8301126134cc57600080fd5b81516134df6134da8261463b565b614614565b9150818183526020840193506020810190508385602084028201111561350457600080fd5b60005b83811015613530578161351a8882613636565b8452506020928301929190910190600101613507565b5050505092915050565b600082601f83011261354b57600080fd5b81516135596134da8261463b565b9150818183526020840193506020810190508385608084028201111561357e57600080fd5b60005b838110156135305781613594888261368b565b84525060209092019160809190910190600101613581565b600082601f8301126135bd57600080fd5b81516135cb6134da8261463b565b915081818352602084019350602081019050838560a08402820111156135f057600080fd5b60005b83811015613530578161360688826136fa565b84525060209092019160a091909101906001016135f3565b6000611ecc825161467a565b6000611ecc8235610a50565b6000611ecc8251610a50565b60008083601f84011261365457600080fd5b50813567ffffffffffffffff81111561366c57600080fd5b60208301915083600182028301111561368457600080fd5b9250929050565b60006080828403121561369d57600080fd5b6136a76080614614565b905060006136b584846134af565b82525060206136c684848301613636565b60208301525060406136da84828501613636565b60408301525060606136ee84828501613636565b60608301525092915050565b600060a0828403121561370c57600080fd5b61371660a0614614565b9050600061372484846134af565b8252506020613735848483016134af565b602083015250604061374984828501613636565b604083015250606061375d84828501613636565b606083015250608061377184828501613636565b60808301525092915050565b60006020828403121561378f57600080fd5b600061379b84846134a3565b949350505050565b6000602082840312156137b557600080fd5b600061379b84846134af565b600080604083850312156137d457600080fd5b60006137e085856134a3565b92505060206137f18582860161362a565b9150509250929050565b6000806040838503121561380e57600080fd5b600061381a85856134af565b92505060206137f185828601613636565b60008060006060848603121561384057600080fd5b600061384c86866134a3565b935050602061385d8682870161362a565b925050604061386e8682870161362a565b9150509250925092565b6000806040838503121561388b57600080fd5b825167ffffffffffffffff8111156138a257600080fd5b6138ae858286016134bb565b92505060206137f18582860161361e565b6000602082840312156138d157600080fd5b815167ffffffffffffffff8111156138e857600080fd5b61379b8482850161353a565b60006020828403121561390657600080fd5b815167ffffffffffffffff81111561391d57600080fd5b61379b848285016135ac565b60006020828403121561393b57600080fd5b600061379b848461361e565b60006020828403121561395957600080fd5b600061379b8484613636565b60008060008060008060c0878903121561397e57600080fd5b600061398a898961362a565b965050602061399b89828a016134a3565b95505060406139ac89828a0161362a565b94505060606139bd89828a016134a3565b93505060806139ce89828a0161362a565b92505060a06139df89828a016134a3565b9150509295509295509295565b600080600080600080600080610100898b031215613a0957600080fd5b6000613a158b8b61362a565b9850506020613a268b828c0161362a565b9750506040613a378b828c016134a3565b9650506060613a488b828c016134a3565b9550506080613a598b828c016134a3565b94505060a0613a6a8b828c016134a3565b93505060c0613a7b8b828c016134a3565b92505060e0613a8c8b828c016134a3565b9150509295985092959890939650565b600060208284031215613aae57600080fd5b600061379b848461362a565b60008060008060008060008060006101008a8c031215613ad957600080fd5b6000613ae58c8c61362a565b9950506020613af68c828d0161362a565b9850506040613b078c828d0161362a565b9750506060613b188c828d0161362a565b9650506080613b298c828d0161362a565b95505060a0613b3a8c828d0161362a565b94505060c0613b4b8c828d0161362a565b93505060e08a013567ffffffffffffffff811115613b6857600080fd5b613b748c828d01613642565b92509250509295985092959850929598565b60008060008060008060008060008060006101408c8e031215613ba857600080fd5b6000613bb48e8e61362a565b9b50506020613bc58e828f0161362a565b9a50506040613bd68e828f0161362a565b9950506060613be78e828f0161362a565b9850506080613bf88e828f0161362a565b97505060a0613c098e828f0161362a565b96505060c0613c1a8e828f0161362a565b95505060e0613c2b8e828f0161362a565b945050610100613c3d8e828f0161362a565b9350506101208c013567ffffffffffffffff811115613c5b57600080fd5b613c678e828f01613642565b92509250509295989b509295989b9093969950565b6000613c888383613ce8565b505060200190565b6000613c9c83836140be565b505060e00190565b6000613cb08383614147565b50506101000190565b6000613cc583836141de565b505060800190565b6000613cc58383614228565b613ce28161468b565b82525050565b613ce28161466f565b6000613cfc82614662565b613d068185614666565b9350613d118361465c565b60005b82811015613d3c57613d27868351613c7c565b9550613d328261465c565b9150600101613d14565b5093949350505050565b6000613d5182614662565b613d5b8185614666565b9350613d668361465c565b60005b82811015613d3c57613d7c868351613c90565b9550613d878261465c565b9150600101613d69565b6000613d9c82614662565b613da68185614666565b9350613db18361465c565b60005b82811015613d3c57613dc7868351613c90565b9550613dd28261465c565b9150600101613db4565b6000613de782614662565b613df18185614666565b9350613dfc8361465c565b60005b82811015613d3c57613e12868351613ca4565b9550613e1d8261465c565b9150600101613dff565b6000613e3282614662565b613e3c8185614666565b9350613e478361465c565b60005b82811015613d3c57613e5d868351613cb9565b9550613e688261465c565b9150600101613e4a565b6000613e7d82614662565b613e878185614666565b9350613e928361465c565b60005b82811015613d3c57613ea8868351613ccd565b9550613eb38261465c565b9150600101613e95565b613ce28161467a565b613ce281610a50565b6000613eda82614662565b613ee48185614666565b9350613ef481856020860161469c565b613efd816146c8565b9093019392505050565b600160d21b65125cdcdd5959029052565b600160e21b63109bdb99029052565b600160d81b6453746f636b029052565b600160d21b6510db1bdcd959029052565b600160f41b610445029052565b600160cb1b660acd2c286c2e6d029052565b600160ca1b6613d999995c9959029052565b6000613f86602e83614666565b7f436f6e747261637420696e7374616e63652068617320616c726561647920626581527f656e20696e697469616c697a6564000000000000000000000000000000000000602082015260400192915050565b600160c21b67105b1b1bdd1d1959029052565b805160009060c0840190613fff8582613ec6565b5060208301516140126020860182613ec6565b5060408301516140256040860182613ec6565b5060608301516140386060860182613ec6565b50608083015161404b6080860182613ec6565b5060a083015184820360a08601526140638282613ecf565b95945050505050565b805160009060808401906140808582613ec6565b5060208301516140936020860182613ec6565b5060408301516140a66040860182613ec6565b50606083015184820360608601526140638282613ecf565b805160e08301906140cf8482613ec6565b5060208201516140e26020850182613ec6565b5060408201516140f56040850182613ec6565b5060608201516141086060850182613ec6565b50608082015161411b6080850182613ec6565b5060a082015161412e60a0850182613ec6565b5060c082015161414160c0850182613ce8565b50505050565b80516101008301906141598482613ec6565b50602082015161416c6020850182613ec6565b50604082015161417f6040850182613ec6565b5060608201516141926060850182613ec6565b5060808201516141a56080850182613ebd565b5060a08201516141b860a0850182613ce8565b5060c08201516141cb60c0850182613ce8565b5060e082015161414160e0850182613ce8565b805160808301906141ef8482613ce8565b5060208201516142026020850182613ec6565b5060408201516142156040850182613ec6565b5060608201516141416060850182613ec6565b805160808301906142398482613ec6565b50602082015161424c6020850182613ec6565b50604082015161425f6040850182613ec6565b5060608201516141416060850182613ce8565b60208101611ecf8284613ce8565b6060810161428e8286613cd9565b61429b6020830185613ce8565b61379b6040830184613ec6565b60c081016142b68288613ce8565b6142c36020830187613ce8565b6142d06040830186613ec6565b6142dd6060830185613ec6565b6142ea6080830184613ec6565b61326760a08301613f48565b60e08101614304828a613ce8565b6143116020830189613ec6565b61431e6040830188613ec6565b61432b6060830187613ce8565b6143386080830186613ec6565b61434560a0830185613ec6565b61435260c0830184613ec6565b98975050505050505050565b6040810161436c8284613ce8565b611ecf60208301613f37565b604081016143868284613ce8565b611ecf60208301613f67565b604081016143a08284613ce8565b611ecf60208301613fd8565b604081016143ba8285613ce8565b6143c76020830184613ec6565b9392505050565b60208082528101611ecc8184613cf1565b604080825281016143f08185613d46565b9050818103602083015261379b8184613feb565b604080825281016144158185613d91565b9050818103602083015261379b818461406c565b60208082528101611ecc8184613ddc565b60208082528101611ecc8184613e27565b60208082528101611ecc8184613e72565b60208101611ecf8284613ec6565b604081016144788285613ec6565b6143c76020830184613ce8565b608081016144938287613ec6565b6144a06020830186613ce8565b6144ad6040830185613ec6565b6140636060830184613ce8565b606081016144c88286613ec6565b61429b6020830185613ec6565b604081016144e38284613ec6565b611ecf60208301613f55565b60208082528101611ecf81613f79565b610140810161450e828b613ec6565b61451b602083018a613ec6565b6145286040830189613ec6565b6145356060830188613ec6565b6145426080830187613ec6565b61454f60a0830186613ce8565b61455c60c0830185613ec6565b61456960e0830184613ec6565b6145766101008301613f07565b6145836101208301613f18565b9998505050505050505050565b610140810161459f828b613ec6565b6145ac602083018a613ec6565b6145b96040830189613ec6565b6145c66060830188613ec6565b6145d36080830187613ec6565b6145e060a0830186613ce8565b6145ed60c0830185613ec6565b6145fa60e0830184613ec6565b6146076101008301613f07565b6145836101208301613f27565b60405181810167ffffffffffffffff8111828210171561463357600080fd5b604052919050565b600067ffffffffffffffff82111561465257600080fd5b5060209081020190565b60200190565b5190565b90815260200190565b6000611ecf8261467f565b151590565b6001600160a01b031690565b6000611ecf826000611ecf8261466f565b60005b838110156146b757818101518382015260200161469f565b838111156141415750506000910152565b601f01601f19169056fea265627a7a72305820f8dff42b51965bab373b429b4b58c57af8960a485a1f096c11b233281ad966ae6c6578706572696d656e74616cf50037",
  "source": "// Issue of Verified financial products\r\n// Offer issues to liquidity pools for IoIs, fix pricing, make allotments, draw down capital, create subscriptions\r\n// (c) Kallol Borah, Verified Network, 2021\r\n\r\npragma solidity 0.5.7;\r\npragma experimental ABIEncoderV2;\r\n\r\nimport \"./interfaces/Bond.sol\";\r\nimport \"./interfaces/Share.sol\";\r\nimport \"./interfaces/LP.sol\";\r\nimport \"./interfaces/ViaCash.sol\";\r\nimport \"./interfaces/ViaFactory.sol\";\r\nimport \"./interfaces/VerifiedIssues.sol\";\r\nimport \"./interfaces/VerifiedProducts.sol\";\r\nimport \"./interfaces/IMarketMaker.sol\";\r\nimport \"./interfaces/ISecurity.sol\";\r\nimport \"./interfaces/ISecuritiesRegistry.sol\";\r\nimport \"./utilities/BokkyPooBahsDateTimeLibrary.sol\";\r\nimport \"@openzeppelin/upgrades/contracts/Initializable.sol\";\r\n\r\ncontract Issues is VerifiedIssues, Initializable {\r\n\r\n    using BokkyPooBahsDateTimeLibrary for uint;\r\n\r\n    bytes32 productRef;\r\n    bytes32 category;\r\n    address owner;\r\n    address issuer;\r\n    address registrar;\r\n    address security;\r\n    address productContract;\r\n    address securityContract;\r\n    address securityRegistriesContract;\r\n    address viaFactoryContract;\r\n    uint256 timeOfIssue;    \r\n\r\n    address[] private platforms;\r\n\r\n    address[] private currencies;\r\n\r\n    address[] private investors;\r\n\r\n    address[] private beneficiaries;\r\n\r\n    //mapping of asked currency to issue details\r\n    mapping(address => Share.currencySpecificStockAttribs) private shares;\r\n    Share.commonStockAttribs stockIssue;\r\n\r\n    //mapping of asked currency to issue details\r\n    mapping(address => Bond.currencySpecificBondAttribs) private bonds;\r\n    Bond.commonBondAttribs bondIssue;\r\n\r\n    //mapping of currencies to investors in pools \r\n    mapping(bytes32 => ioi[]) private subscribers;\r\n\r\n    //mapping of beneficiaries to payouts\r\n    mapping(address => VerifiedIssues.payment[]) private payouts;\r\n\r\n    event issued (\r\n        uint256 issueSize,\r\n        uint256 offerPrice, \r\n        uint256 minAskPrice,   \r\n        uint256 minSubscription,\r\n        bytes32 currency,\r\n        address security,\r\n        bytes32 offerType,\r\n        bytes32 isin,\r\n        bytes32 status,\r\n        bytes32 productCategory\r\n    );\r\n\r\n    event offered(address security, bytes32 status);\r\n\r\n    event opened(address security, bytes32 status);\r\n\r\n    event closed(address security, bytes32 status);\r\n\r\n    event allotted(address security, bytes32 status);\r\n    \r\n    function initialize(bytes32 _productReference, \r\n                        bytes32 _productCategory, \r\n                        address _issuer, \r\n                        address _registrar, \r\n                        address _owner,\r\n                        address _securityContract, \r\n                        address _securityRegistriesContract,\r\n                        address _viaFactoryContract\r\n                        ) public initializer{\r\n        owner = _owner;\r\n        productRef = _productReference;\r\n        category = _productCategory;\r\n        issuer = _issuer;\r\n        registrar = _registrar;\r\n        productContract = msg.sender;\r\n        securityContract = _securityContract;\r\n        securityRegistriesContract = _securityRegistriesContract;\r\n        viaFactoryContract = _viaFactoryContract;\r\n    }\r\n\r\n    function getOwner() external view returns(address){\r\n        require(msg.sender==securityRegistriesContract);\r\n        return owner;\r\n    }\r\n\r\n    function issueShare(uint256 _issueSize,\r\n                        uint256 _offerPrice, \r\n                        uint256 _minAskPrice, \r\n                        uint256 _minSubscription,\r\n                        bytes32 _currency,\r\n                        bytes32 _offerType,\r\n                        bytes32 _isin,\r\n                        string calldata _offeringDocuments\r\n                        ) external {\r\n        require(registrar==msg.sender);\r\n        require(category==\"Stock\");\r\n        require(VerifiedProducts(productContract).getIssue(productRef)==address(this));\r\n        bool found = false;\r\n        address currencyAddress = ViaFactory(viaFactoryContract).getTokenByNameType(_currency,\"ViaCash\");\r\n        require(ViaFactory(viaFactoryContract).getType(currencyAddress) == \"ViaCash\");\r\n        for(uint i=0; i<currencies.length; i++){\r\n            if(currencies[i]==currencyAddress)\r\n                found = true;\r\n        }\r\n        if(!found)\r\n            currencies.push(currencyAddress);\r\n        shares[currencyAddress].issueSize = _issueSize;\r\n        shares[currencyAddress].offerPrice = _offerPrice;\r\n        shares[currencyAddress].minAskPrice = _minAskPrice;\r\n        shares[currencyAddress].minSubscription = _minSubscription;\r\n        shares[currencyAddress].currency = _currency;\r\n        stockIssue.offerType = _offerType;\r\n        stockIssue.isin = _isin;        \r\n        stockIssue.offeringDocuments = _offeringDocuments;  \r\n        stockIssue.status = \"Issued\";    \r\n        emit issued (\r\n            _issueSize,\r\n            _offerPrice, \r\n            _minAskPrice,   \r\n            _minSubscription,\r\n            _currency,\r\n            address(this),\r\n            _offerType,\r\n            _isin,\r\n            \"Issued\",\r\n            \"Stock\"\r\n        );  \r\n    }\r\n\r\n    function getShare() external view returns(Share.currencySpecificStockAttribs[] memory, Share.commonStockAttribs memory){\r\n        Share.currencySpecificStockAttribs[] memory stocks = new Share.currencySpecificStockAttribs[](currencies.length);\r\n        Share.currencySpecificStockAttribs memory share;\r\n        for(uint i=0; i<currencies.length; i++){\r\n            share = Share.currencySpecificStockAttribs({\r\n                issueSize : shares[currencies[i]].issueSize,\r\n                faceValue : shares[currencies[i]].faceValue,\r\n                offerPrice : shares[currencies[i]].offerPrice, \r\n                minAskPrice : shares[currencies[i]].minAskPrice,  \r\n                minSubscription : shares[currencies[i]].minSubscription,\r\n                currency : shares[currencies[i]].currency,\r\n                security : shares[currencies[i]].security\r\n            });\r\n            stocks[i] = share;\r\n        }\r\n        return (stocks, stockIssue);\r\n    }\r\n\r\n    function issueBond(uint256 _issueSize,\r\n                        uint256 _offerPrice, \r\n                        uint256 _minAskPrice, \r\n                        uint256 _minSubscription,\r\n                        uint256 _couponPaymentCycle, \r\n                        uint256 _tenure,\r\n                        bytes32 _currency,\r\n                        bytes32 _offerType,\r\n                        bytes32 _isin,\r\n                        string calldata _offeringDocuments\r\n                        ) external {\r\n        require(registrar==msg.sender);\r\n        require(category==\"Bond\");\r\n        require(VerifiedProducts(productContract).getIssue(productRef)==address(this));\r\n        bool found = false;\r\n        address currencyAddress = ViaFactory(viaFactoryContract).getTokenByNameType(_currency,\"ViaCash\");\r\n        require(ViaFactory(viaFactoryContract).getType(currencyAddress) == \"ViaCash\");\r\n        for(uint i=0; i<currencies.length; i++){\r\n            if(currencies[i]==currencyAddress)\r\n                found = true;\r\n        }\r\n        if(!found)\r\n            currencies.push(currencyAddress);\r\n        bonds[currencyAddress].issueSize = _issueSize;\r\n        bonds[currencyAddress].offerPrice = _offerPrice;\r\n        bonds[currencyAddress].minAskPrice = _minAskPrice;    \r\n        bonds[currencyAddress].minSubscription = _minSubscription;    \r\n        bonds[currencyAddress].currency = _currency;\r\n        bondIssue.offerType = _offerType;\r\n        bondIssue.couponPaymentCycle = _couponPaymentCycle; \r\n        bondIssue.tenure = _tenure; \r\n        bondIssue.isin = _isin;\r\n        bondIssue.offeringDocuments = _offeringDocuments;\r\n        bondIssue.status = \"Issued\";\r\n        emit issued (\r\n            _issueSize,\r\n            _offerPrice, \r\n            _minAskPrice,   \r\n            _minSubscription,\r\n            _currency,\r\n            address(this),\r\n            _offerType,\r\n            _isin,\r\n            \"Issued\",\r\n            \"Bond\"\r\n        );\r\n    }\r\n\r\n    function getBond() external view returns(Bond.currencySpecificBondAttribs[] memory, Bond.commonBondAttribs memory){\r\n        Bond.currencySpecificBondAttribs[] memory notes = new Bond.currencySpecificBondAttribs[](currencies.length);\r\n        Bond.currencySpecificBondAttribs memory bond;\r\n        for(uint i=0; i<currencies.length; i++){\r\n            bond = Bond.currencySpecificBondAttribs({\r\n                issueSize : bonds[currencies[i]].issueSize,\r\n                coupon : bonds[currencies[i]].coupon,\r\n                offerPrice : bonds[currencies[i]].offerPrice, \r\n                minAskPrice : bonds[currencies[i]].minAskPrice, \r\n                minSubscription : bonds[currencies[i]].minSubscription,\r\n                currency : bonds[currencies[i]].currency,\r\n                security : bonds[currencies[i]].security\r\n            });\r\n            notes[i] = bond;\r\n        }\r\n        return (notes, bondIssue);\r\n    }\r\n\r\n    function registerPlatform(address _liquidityPlatform) external {\r\n        require(productContract==msg.sender);\r\n        platforms.push(_liquidityPlatform);\r\n    }\r\n\r\n    function askOffers() external {\r\n        require(registrar==msg.sender);\r\n        bytes32 isin;\r\n        bytes32 currency;\r\n        uint256 issueSize;\r\n        uint256 offerPrice; \r\n        uint256 minAskPrice; \r\n        uint256 minSubscription;\r\n        for(uint i=0; i<currencies.length; i++){\r\n            if(category==\"share\"){\r\n                isin = stockIssue.isin;\r\n                currency = shares[currencies[i]].currency;\r\n                issueSize = shares[currencies[i]].issueSize;\r\n                offerPrice = shares[currencies[i]].offerPrice;\r\n                minAskPrice = shares[currencies[i]].minAskPrice;    \r\n                minSubscription = shares[currencies[i]].minSubscription;            \r\n            }\r\n            else if(category==\"bond\"){\r\n                isin = bondIssue.isin;\r\n                currency = bonds[currencies[i]].currency;\r\n                issueSize = bonds[currencies[i]].issueSize;\r\n                offerPrice = bonds[currencies[i]].offerPrice;\r\n                minAskPrice = bonds[currencies[i]].minAskPrice;\r\n                minSubscription = bonds[currencies[i]].minSubscription;\r\n            }\r\n            ISecuritiesRegistry(securityRegistriesContract).createSecurity(VerifiedProducts(productContract).getIssuerAddress(productRef),\r\n                                                        securityContract,\r\n                                                        currency,\r\n                                                        VerifiedProducts(productContract).getIssuerName(productRef),\r\n                                                        isin, \"DP\");\r\n            security = ISecuritiesRegistry(securityRegistriesContract).getToken(currency,\r\n                                                                                VerifiedProducts(productContract).getIssuerName(productRef),\r\n                                                                                isin);\r\n            ISecurity(security).mint(address(this), issueSize);\r\n            if(category==\"share\"){\r\n                shares[currencies[i]].security = security;\r\n                stockIssue.status = \"Offered\";\r\n            }\r\n            else if(category==\"bond\"){\r\n                bonds[currencies[i]].security = security;\r\n                bondIssue.status = \"Offered\";\r\n            }\r\n            emit offered(security, \"Offered\");\r\n            //offer the issue on defi platforms\r\n            for(uint j=0; j<platforms.length; j++){\r\n                IMarketMaker(platforms[j]).make(security, isin, issueSize, currencies[i], offerPrice, minAskPrice, minSubscription);\r\n            }\r\n        }\r\n    }\r\n\r\n    function startIssue(uint256 cutOffTime) external {\r\n        require(registrar==msg.sender);\r\n        for(uint i=0; i<platforms.length; i++){\r\n            IMarketMaker(platforms[i]).setRelayer();\r\n            for(uint j=0; j<currencies.length; j++){\r\n                if(category==\"share\"){\r\n                    IMarketMaker(platforms[i]).issue(shares[currencies[j]].security, cutOffTime);\r\n                    stockIssue.status = \"Started\";\r\n                    emit opened(shares[currencies[j]].security, \"Offered\");\r\n                }\r\n                else if(category==\"bond\"){\r\n                    IMarketMaker(platforms[i]).issue(bonds[currencies[j]].security, cutOffTime);\r\n                    bondIssue.status = \"Started\";\r\n                    emit opened(bonds[currencies[j]].security, \"Offered\");\r\n                }\r\n            }\r\n        }\r\n    }\r\n\r\n    function getLiquidityProviders(address platform, bytes32 isin) external returns(LP.lp[] memory){\r\n        return IMarketMaker(platform).getLiquidityProviders(isin);\r\n    }\r\n\r\n    function getSubscribers() external returns(VerifiedIssues.ioi[] memory) {\r\n        require(registrar==msg.sender);\r\n        for(uint i=0; i<platforms.length; i++){\r\n            for(uint k=0; k<currencies.length; k++){\r\n                address securitytoken;\r\n                if(category==\"share\")\r\n                    securitytoken = shares[currencies[k]].security;\r\n                else if(category==\"bond\")\r\n                    securitytoken = bonds[currencies[k]].security;\r\n                (bytes32[] memory pools, bool issueClosed) = IMarketMaker(platforms[i]).close(securitytoken);\r\n                if(issueClosed){\r\n                    if(category==\"share\")\r\n                        stockIssue.status = \"Closed\";\r\n                    else if(category==\"bond\")\r\n                        bondIssue.status = \"Closed\";\r\n                    emit closed(securitytoken, \"Closed\");\r\n                }\r\n                for(uint j=0; j<pools.length; j++){\r\n                    IMarketMaker.subscriptions[] memory subs = IMarketMaker(platforms[i]).getSubscribers(pools[j]);\r\n                    for(uint l=0; l<subs.length; l++){\r\n                        uint256 count = subscribers[productRef].length;\r\n                        subscribers[productRef][count].platform = platforms[i];\r\n                        subscribers[productRef][count].poolid = pools[j];\r\n                        subscribers[productRef][count].amount = subs[l].amount;\r\n                        subscribers[productRef][count].price = subs[l].price;\r\n                        subscribers[productRef][count].currency = subs[l].name;\r\n                        subscribers[productRef][count].investor = subs[l].investor;\r\n                        subscribers[productRef][count].asset = subs[l].asset;\r\n                        bool found = false;\r\n                        for(uint x=0; x<investors.length; x++){\r\n                            if(investors[x]==subs[l].investor)\r\n                                found = true;\r\n                        }\r\n                        if(!found)\r\n                            investors.push(subs[l].investor);\r\n                    }\r\n                }\r\n            }\r\n        }\r\n        return subscribers[productRef];\r\n    }\r\n\r\n    function allotIssue(bytes32 _allotment, address _platform, bytes32 _pool, address _investor, uint256 _amount, address _asset) external {\r\n        require(registrar==msg.sender);\r\n        timeOfIssue = now;\r\n        if(_allotment==\"accept\"){\r\n            for(uint i=0; i<subscribers[productRef].length; i++){\r\n                if(subscribers[productRef][i].poolid==_pool &&\r\n                   subscribers[productRef][i].investor==_investor &&\r\n                   subscribers[productRef][i].amount >= _amount &&\r\n                   subscribers[productRef][i].asset == _asset\r\n                   ){\r\n                    IMarketMaker(_platform).accept(_pool, _investor, _amount, _asset);\r\n                    subscribers[productRef][i].status == true;\r\n                    bool found = false;\r\n                    for(uint j=0; j<beneficiaries.length; j++){\r\n                        if(beneficiaries[j]==_investor)\r\n                            found = true;\r\n                    }\r\n                    if(!found)\r\n                        beneficiaries.push(_investor);\r\n                }\r\n            }\r\n        }\r\n        else if(_allotment==\"reject\"){\r\n            IMarketMaker(_platform).reject(_pool, _investor);\r\n        }\r\n        if(category==\"share\")\r\n            stockIssue.status = \"Allotted\";\r\n        else if(category==\"bond\")\r\n            bondIssue.status = \"Allotted\";\r\n        emit allotted(address(this), \"Allotted\");\r\n    }\r\n\r\n    function getBeneficiaries() external view returns(address[] memory){\r\n        require(registrar==msg.sender || issuer==msg.sender);\r\n        return beneficiaries;\r\n    }\r\n\r\n    function computeNextInstallment(address _currency) external returns(uint256){\r\n        require(registrar==msg.sender || issuer==msg.sender);\r\n        require(category==\"bond\");\r\n        return (beneficiaries.length * bonds[_currency].coupon);\r\n    }\r\n\r\n    function getPaymentAmountFor(address _beneficiary) external returns(uint256){\r\n        require(registrar==msg.sender || issuer==msg.sender);\r\n        require(category==\"bond\");\r\n        uint256 installments = BokkyPooBahsDateTimeLibrary.subSeconds(now, timeOfIssue)/bondIssue.couponPaymentCycle;\r\n        uint256 paymentMade = 0;\r\n        for(uint i=0; i<installments; i++){\r\n            paymentMade = paymentMade + payouts[_beneficiary][i].amount;\r\n        }\r\n        return (installments);\r\n    }\r\n\r\n    function getPaymentStatusFor(address _beneficiary) external returns(VerifiedIssues.payment[] memory){\r\n        require(registrar==msg.sender || issuer==msg.sender);\r\n        return payouts[_beneficiary];\r\n    }\r\n\r\n    function isAllPaidFor(uint256 _byTime) external returns(address[] memory){\r\n        require(registrar==msg.sender || issuer==msg.sender);\r\n        address[] memory unpaidBeneficiaries = new address[](beneficiaries.length);\r\n        uint count =0;\r\n        for(uint i=0; i<beneficiaries.length; i++){\r\n            uint latestPayment = payouts[beneficiaries[i]].length-1;\r\n            if(_byTime > payouts[beneficiaries[i]][latestPayment].payoutDate){\r\n                unpaidBeneficiaries[count] = beneficiaries[i];\r\n                count = count + 1;\r\n            }\r\n        }\r\n        return unpaidBeneficiaries;\r\n    }\r\n\r\n    function getDateOfIssue() external returns(uint256, uint256, uint256){\r\n        require(registrar==msg.sender || issuer==msg.sender);\r\n        return (BokkyPooBahsDateTimeLibrary.getDay(timeOfIssue),\r\n                BokkyPooBahsDateTimeLibrary.getMonth(timeOfIssue),\r\n                BokkyPooBahsDateTimeLibrary.getYear(timeOfIssue));\r\n    }\r\n\r\n    function getmaturityDate() external returns(uint256, uint256, uint256){\r\n        require(registrar==msg.sender || issuer==msg.sender);\r\n        require(category==\"bond\");\r\n        uint256 maturityDate = BokkyPooBahsDateTimeLibrary.addSeconds(timeOfIssue, bondIssue.tenure);\r\n        return (BokkyPooBahsDateTimeLibrary.getDay(maturityDate),\r\n                BokkyPooBahsDateTimeLibrary.getMonth(maturityDate),\r\n                BokkyPooBahsDateTimeLibrary.getYear(maturityDate));\r\n    }\r\n\r\n    function getfirstCouponDate() external returns(uint256, uint256, uint256){\r\n        require(registrar==msg.sender || issuer==msg.sender);\r\n        require(category==\"bond\");\r\n        uint256 couponDate = BokkyPooBahsDateTimeLibrary.addSeconds(timeOfIssue, bondIssue.couponPaymentCycle);\r\n        return (BokkyPooBahsDateTimeLibrary.getDay(couponDate),\r\n                BokkyPooBahsDateTimeLibrary.getMonth(couponDate),\r\n                BokkyPooBahsDateTimeLibrary.getYear(couponDate));\r\n    }\r\n\r\n    function computeNextCouponDate() external returns(uint256, uint256, uint256){\r\n        require(registrar==msg.sender || issuer==msg.sender);\r\n        require(category==\"bond\");\r\n        for(uint i=0; i<(bondIssue.tenure/bondIssue.couponPaymentCycle); i++){\r\n            if(BokkyPooBahsDateTimeLibrary.addSeconds(timeOfIssue, (bondIssue.couponPaymentCycle*(i+1)))>now){\r\n                uint256 nextDate = BokkyPooBahsDateTimeLibrary.addSeconds(timeOfIssue, (bondIssue.couponPaymentCycle*(i+1)));\r\n                return (BokkyPooBahsDateTimeLibrary.getDay(nextDate),\r\n                        BokkyPooBahsDateTimeLibrary.getMonth(nextDate),\r\n                        BokkyPooBahsDateTimeLibrary.getYear(nextDate));\r\n            }\r\n        }\r\n    }\r\n    \r\n    function getcouponFrequencyInMonths() external returns(uint256){\r\n        require(registrar==msg.sender || issuer==msg.sender);\r\n        require(category==\"bond\");\r\n        uint256 firstCouponDate = BokkyPooBahsDateTimeLibrary.addSeconds(timeOfIssue, bondIssue.couponPaymentCycle);\r\n        return BokkyPooBahsDateTimeLibrary.diffMonths(firstCouponDate, timeOfIssue);\r\n    }\r\n\r\n    function getinterestRateInBips(address _currency) external returns(uint256){\r\n        require(registrar==msg.sender || issuer==msg.sender);\r\n        require(category==\"bond\");\r\n        return bonds[_currency].coupon;\r\n    }\r\n\r\n    function payOut(address _beneficiary, bytes32 _currency, uint256 _amount) external {\r\n        require(registrar==msg.sender || issuer==msg.sender);\r\n        require(category==\"share\" || category==\"bond\");\r\n        (address token, bytes32 tokentype) = ViaFactory(viaFactoryContract).getAddressAndType(_currency);\r\n        if(tokentype==\"ViaCash\"){\r\n            if(ViaCash(token).transferFrom(msg.sender, _beneficiary, _amount)){\r\n                VerifiedIssues.payment memory paid = VerifiedIssues.payment({\r\n                    currency : _currency,\r\n                    amount : _amount,\r\n                    payoutDate : now,\r\n                    payer : msg.sender\r\n                });\r\n                payouts[_beneficiary][payouts[_beneficiary].length] = paid;                \r\n            }\r\n        }\r\n    }\r\n\r\n}",
  "sourcePath": "D:\\Code\\verified-securities\\securities\\contracts\\Issues.sol",
  "compiler": {
    "name": "solc",
    "version": "0.5.7+commit.6da8b019.Emscripten.clang"
  },
  "schemaVersion": "3.4.3",
  "updatedAt": "2021-12-15T18:40:14.462Z",
  "networkType": "ethereum",
  "devdoc": {
    "methods": {}
  },
  "userdoc": {
    "methods": {}
  }
}