{
  "contractName": "Issues",
  "abi": [
    {
      "constant": false,
      "inputs": [
        {
          "name": "_productReference",
          "type": "bytes32"
        },
        {
          "name": "_productCategory",
          "type": "bytes32"
        },
        {
          "name": "_issuer",
          "type": "address"
        },
        {
          "name": "_registrar",
          "type": "address"
        },
        {
          "name": "_owner",
          "type": "address"
        },
        {
          "name": "_securityContract",
          "type": "address"
        },
        {
          "name": "_securityRegistriesContract",
          "type": "address"
        },
        {
          "name": "_viaFactoryContract",
          "type": "address"
        }
      ],
      "name": "initialize",
      "outputs": [],
      "payable": false,
      "stateMutability": "nonpayable",
      "type": "function"
    },
    {
      "constant": true,
      "inputs": [],
      "name": "getOwner",
      "outputs": [
        {
          "name": "",
          "type": "address"
        }
      ],
      "payable": false,
      "stateMutability": "view",
      "type": "function"
    },
    {
      "constant": false,
      "inputs": [
        {
          "name": "_issueSize",
          "type": "uint256"
        },
        {
          "name": "_offerPrice",
          "type": "uint256"
        },
        {
          "name": "_minAskPrice",
          "type": "uint256"
        },
        {
          "name": "_minSubscription",
          "type": "uint256"
        },
        {
          "name": "_currency",
          "type": "bytes32"
        },
        {
          "name": "_offerType",
          "type": "bytes32"
        },
        {
          "name": "_isin",
          "type": "bytes32"
        },
        {
          "name": "_offeringDocuments",
          "type": "string"
        }
      ],
      "name": "issueShare",
      "outputs": [],
      "payable": false,
      "stateMutability": "nonpayable",
      "type": "function"
    },
    {
      "constant": true,
      "inputs": [],
      "name": "getShare",
      "outputs": [
        {
          "components": [
            {
              "name": "issueSize",
              "type": "uint256"
            },
            {
              "name": "faceValue",
              "type": "uint256"
            },
            {
              "name": "offerPrice",
              "type": "uint256"
            },
            {
              "name": "minAskPrice",
              "type": "uint256"
            },
            {
              "name": "minSubscription",
              "type": "uint256"
            },
            {
              "name": "currency",
              "type": "bytes32"
            },
            {
              "name": "security",
              "type": "address"
            }
          ],
          "name": "",
          "type": "tuple[]"
        },
        {
          "components": [
            {
              "name": "offerType",
              "type": "bytes32"
            },
            {
              "name": "isin",
              "type": "bytes32"
            },
            {
              "name": "status",
              "type": "bytes32"
            },
            {
              "name": "offeringDocuments",
              "type": "string"
            }
          ],
          "name": "",
          "type": "tuple"
        }
      ],
      "payable": false,
      "stateMutability": "view",
      "type": "function"
    },
    {
      "constant": false,
      "inputs": [
        {
          "name": "_issueSize",
          "type": "uint256"
        },
        {
          "name": "_offerPrice",
          "type": "uint256"
        },
        {
          "name": "_minAskPrice",
          "type": "uint256"
        },
        {
          "name": "_minSubscription",
          "type": "uint256"
        },
        {
          "name": "_couponPaymentCycle",
          "type": "uint256"
        },
        {
          "name": "_tenure",
          "type": "uint256"
        },
        {
          "name": "_currency",
          "type": "bytes32"
        },
        {
          "name": "_offerType",
          "type": "bytes32"
        },
        {
          "name": "_isin",
          "type": "bytes32"
        },
        {
          "name": "_offeringDocuments",
          "type": "string"
        }
      ],
      "name": "issueBond",
      "outputs": [],
      "payable": false,
      "stateMutability": "nonpayable",
      "type": "function"
    },
    {
      "constant": true,
      "inputs": [],
      "name": "getBond",
      "outputs": [
        {
          "components": [
            {
              "name": "issueSize",
              "type": "uint256"
            },
            {
              "name": "coupon",
              "type": "uint256"
            },
            {
              "name": "offerPrice",
              "type": "uint256"
            },
            {
              "name": "minAskPrice",
              "type": "uint256"
            },
            {
              "name": "minSubscription",
              "type": "uint256"
            },
            {
              "name": "currency",
              "type": "bytes32"
            },
            {
              "name": "security",
              "type": "address"
            }
          ],
          "name": "",
          "type": "tuple[]"
        },
        {
          "components": [
            {
              "name": "offerType",
              "type": "bytes32"
            },
            {
              "name": "couponPaymentCycle",
              "type": "uint256"
            },
            {
              "name": "tenure",
              "type": "uint256"
            },
            {
              "name": "isin",
              "type": "bytes32"
            },
            {
              "name": "status",
              "type": "bytes32"
            },
            {
              "name": "offeringDocuments",
              "type": "string"
            }
          ],
          "name": "",
          "type": "tuple"
        }
      ],
      "payable": false,
      "stateMutability": "view",
      "type": "function"
    },
    {
      "constant": false,
      "inputs": [
        {
          "name": "_liquidityPlatform",
          "type": "address"
        }
      ],
      "name": "registerPlatform",
      "outputs": [],
      "payable": false,
      "stateMutability": "nonpayable",
      "type": "function"
    },
    {
      "constant": false,
      "inputs": [],
      "name": "askOffers",
      "outputs": [],
      "payable": false,
      "stateMutability": "nonpayable",
      "type": "function"
    },
    {
      "constant": false,
      "inputs": [
        {
          "name": "cutOffTime",
          "type": "uint256"
        }
      ],
      "name": "startIssue",
      "outputs": [],
      "payable": false,
      "stateMutability": "nonpayable",
      "type": "function"
    },
    {
      "constant": false,
      "inputs": [],
      "name": "getSubscribers",
      "outputs": [
        {
          "components": [
            {
              "name": "currency",
              "type": "bytes32"
            },
            {
              "name": "amount",
              "type": "uint256"
            },
            {
              "name": "price",
              "type": "uint256"
            },
            {
              "name": "poolid",
              "type": "bytes32"
            },
            {
              "name": "status",
              "type": "bool"
            },
            {
              "name": "platform",
              "type": "address"
            },
            {
              "name": "investor",
              "type": "address"
            },
            {
              "name": "asset",
              "type": "address"
            }
          ],
          "name": "",
          "type": "tuple[]"
        }
      ],
      "payable": false,
      "stateMutability": "nonpayable",
      "type": "function"
    },
    {
      "constant": false,
      "inputs": [
        {
          "name": "_allotment",
          "type": "bytes32"
        },
        {
          "name": "_platform",
          "type": "address"
        },
        {
          "name": "_pool",
          "type": "bytes32"
        },
        {
          "name": "_investor",
          "type": "address"
        },
        {
          "name": "_amount",
          "type": "uint256"
        },
        {
          "name": "_asset",
          "type": "address"
        }
      ],
      "name": "allotIssue",
      "outputs": [],
      "payable": false,
      "stateMutability": "nonpayable",
      "type": "function"
    },
    {
      "constant": true,
      "inputs": [],
      "name": "getBeneficiaries",
      "outputs": [
        {
          "name": "",
          "type": "address[]"
        }
      ],
      "payable": false,
      "stateMutability": "view",
      "type": "function"
    },
    {
      "constant": false,
      "inputs": [
        {
          "name": "_currency",
          "type": "address"
        }
      ],
      "name": "computeNextInstallment",
      "outputs": [
        {
          "name": "",
          "type": "uint256"
        }
      ],
      "payable": false,
      "stateMutability": "nonpayable",
      "type": "function"
    },
    {
      "constant": false,
      "inputs": [
        {
          "name": "_beneficiary",
          "type": "address"
        }
      ],
      "name": "getPaymentAmountFor",
      "outputs": [
        {
          "name": "",
          "type": "uint256"
        }
      ],
      "payable": false,
      "stateMutability": "nonpayable",
      "type": "function"
    },
    {
      "constant": false,
      "inputs": [
        {
          "name": "_beneficiary",
          "type": "address"
        }
      ],
      "name": "getPaymentStatusFor",
      "outputs": [
        {
          "components": [
            {
              "name": "currency",
              "type": "bytes32"
            },
            {
              "name": "amount",
              "type": "uint256"
            },
            {
              "name": "payoutDate",
              "type": "uint256"
            },
            {
              "name": "payer",
              "type": "address"
            }
          ],
          "name": "",
          "type": "tuple[]"
        }
      ],
      "payable": false,
      "stateMutability": "nonpayable",
      "type": "function"
    },
    {
      "constant": false,
      "inputs": [
        {
          "name": "_byTime",
          "type": "uint256"
        }
      ],
      "name": "isAllPaidFor",
      "outputs": [
        {
          "name": "",
          "type": "address[]"
        }
      ],
      "payable": false,
      "stateMutability": "nonpayable",
      "type": "function"
    },
    {
      "constant": false,
      "inputs": [],
      "name": "getDateOfIssue",
      "outputs": [
        {
          "name": "",
          "type": "uint256"
        },
        {
          "name": "",
          "type": "uint256"
        },
        {
          "name": "",
          "type": "uint256"
        }
      ],
      "payable": false,
      "stateMutability": "nonpayable",
      "type": "function"
    },
    {
      "constant": false,
      "inputs": [],
      "name": "getmaturityDate",
      "outputs": [
        {
          "name": "",
          "type": "uint256"
        },
        {
          "name": "",
          "type": "uint256"
        },
        {
          "name": "",
          "type": "uint256"
        }
      ],
      "payable": false,
      "stateMutability": "nonpayable",
      "type": "function"
    },
    {
      "constant": false,
      "inputs": [],
      "name": "getfirstCouponDate",
      "outputs": [
        {
          "name": "",
          "type": "uint256"
        },
        {
          "name": "",
          "type": "uint256"
        },
        {
          "name": "",
          "type": "uint256"
        }
      ],
      "payable": false,
      "stateMutability": "nonpayable",
      "type": "function"
    },
    {
      "constant": false,
      "inputs": [],
      "name": "computeNextCouponDate",
      "outputs": [
        {
          "name": "",
          "type": "uint256"
        },
        {
          "name": "",
          "type": "uint256"
        },
        {
          "name": "",
          "type": "uint256"
        }
      ],
      "payable": false,
      "stateMutability": "nonpayable",
      "type": "function"
    },
    {
      "constant": false,
      "inputs": [],
      "name": "getcouponFrequencyInMonths",
      "outputs": [
        {
          "name": "",
          "type": "uint256"
        }
      ],
      "payable": false,
      "stateMutability": "nonpayable",
      "type": "function"
    },
    {
      "constant": false,
      "inputs": [
        {
          "name": "_currency",
          "type": "address"
        }
      ],
      "name": "getinterestRateInBips",
      "outputs": [
        {
          "name": "",
          "type": "uint256"
        }
      ],
      "payable": false,
      "stateMutability": "nonpayable",
      "type": "function"
    },
    {
      "constant": false,
      "inputs": [
        {
          "name": "_beneficiary",
          "type": "address"
        },
        {
          "name": "_currency",
          "type": "bytes32"
        },
        {
          "name": "_amount",
          "type": "uint256"
        }
      ],
      "name": "payOut",
      "outputs": [],
      "payable": false,
      "stateMutability": "nonpayable",
      "type": "function"
    }
  ],
  "bytecode": "0x608060405234801561001057600080fd5b5061405c806100206000396000f3fe608060405234801561001057600080fd5b506004361061014d5760003560e01c806375298734116100c3578063b43ea0661161007c578063b43ea0661461029c578063d3340fb6146102a4578063d6088981146102b7578063dc442029146102ca578063f010e2c2146102d2578063f76ebabb146102e55761014d565b80637529873414610238578063841556001461024e578063893d20e814610261578063913b722c14610276578063982b25681461027e578063ac982472146102865761014d565b80633cb4bd63116101155780633cb4bd63146101cb5780634274515d146101d35780634afc82bd146101e857806358ce1f79146101fb5780635e075a431461020e57806366f2f9c0146102255761014d565b806305cc61ad1461015257806307c5ae70146101705780631bafe1b91461018557806321ec2b421461019857806323b83a5e146101ab575b600080fd5b61015a610305565b6040516101679190613e9f565b60405180910390f35b61018361017e36600461368c565b6109f0565b005b610183610193366004613537565b610ce4565b6101836101a6366004613758565b611052565b6101be6101b936600461366e565b611351565b6040516101679190613e44565b6101836114c9565b6101db611c6b565b6040516101679190613ec1565b6101836101f63660046135be565b611cd9565b6101db6102093660046133b4565b611de7565b610216611e9c565b60405161016793929190613f1f565b6101db6102333660046133b4565b611f24565b610240611f8e565b604051610167929190613e7a565b61018361025c366004613432565b612337565b61026961250b565b6040516101679190613d3d565b6101be612535565b6102166125c4565b61028e612622565b604051610167929190613e55565b61021661299b565b6101836102b23660046133b4565b612a6b565b6101db6102c53660046133b4565b612ad4565b610216612b3a565b6101836102e036600461366e565b612b99565b6102f86102f33660046133b4565b612e1a565b6040516101679190613eb0565b6037546060906001600160a01b0316331461031f57600080fd5b60005b603e548110156109285760005b603f5481101561091f576000603454600160d81b6473686172650214156103965760426000603f848154811061036157fe5b60009182526020808320909101546001600160a01b0390811684529083019390935260409091019020600601541690506103ec565b603454600160e21b63189bdb990214156103ec5760476000603f84815481106103bb57fe5b60009182526020808320909101546001600160a01b0390811684529083019390935260409091019020600601541690505b60606000603e85815481106103fd57fe5b600091825260209091200154604051600160e01b63c74073a10281526001600160a01b039091169063c74073a190610439908690600401613d3d565b600060405180830381600087803b15801561045357600080fd5b505af1158015610467573d6000803e3d6000fd5b505050506040513d6000823e601f3d908101601f1916820160405261048f919081019061347f565b9150915080156104e857603454600160d81b6473686172650214156104c357600160d21b6510db1bdcd959026045556104e8565b603454600160e21b63189bdb990214156104e857600160d21b6510db1bdcd95902604c555b60005b825181101561090f576060603e878154811061050357fe5b60009182526020909120015484516001600160a01b039091169063bfa0caa79086908590811061052f57fe5b60200260200101516040518263ffffffff1660e01b81526004016105539190613ec1565b600060405180830381600087803b15801561056d57600080fd5b505af1158015610581573d6000803e3d6000fd5b505050506040513d6000823e601f3d908101601f191682016040526105a991908101906134c6565b905060005b8151811015610905576033546000908152604e6020526040902054603e80548a9081106105d757fe5b60009182526020808320909101546033548352604e909152604090912080546001600160a01b03909216918390811061060c57fe5b906000526020600020906007020160040160016101000a8154816001600160a01b0302191690836001600160a01b0316021790555085848151811061064d57fe5b6020026020010151604e60006033548152602001908152602001600020828154811061067557fe5b90600052602060002090600702016003018190555082828151811061069657fe5b602002602001015160600151604e6000603354815260200190815260200160002082815481106106c257fe5b9060005260206000209060070201600101819055508282815181106106e357fe5b602002602001015160800151604e60006033548152602001908152602001600020828154811061070f57fe5b90600052602060002090600702016002018190555082828151811061073057fe5b602002602001015160400151604e60006033548152602001908152602001600020828154811061075c57fe5b90600052602060002090600702016000018190555082828151811061077d57fe5b602002602001015160000151604e6000603354815260200190815260200160002082815481106107a957fe5b906000526020600020906007020160050160006101000a8154816001600160a01b0302191690836001600160a01b031602179055508282815181106107ea57fe5b602002602001015160200151604e60006033548152602001908152602001600020828154811061081657fe5b6000918252602082206007919091020160060180546001600160a01b0319166001600160a01b039390931692909217909155805b6040548110156108aa5784848151811061086057fe5b6020026020010151600001516001600160a01b03166040828154811061088257fe5b6000918252602090912001546001600160a01b031614156108a257600191505b60010161084a565b50806108fb5760408484815181106108be57fe5b6020908102919091018101515182546001810184556000938452919092200180546001600160a01b0319166001600160a01b039092169190911790555b50506001016105ae565b50506001016104eb565b50506001909201915061032f9050565b50600101610322565b506033546000908152604e6020908152604080832080548251818502810185019093528083529193909284015b828210156109e657600084815260209081902060408051610100808201835260078702909301805482526001808201548387015260028201549383019390935260038101546060830152600481015460ff8116151560808401526001600160a01b03949004841660a08301526005810154841660c08301526006015490921660e08301529083529092019101610955565b5050505090505b90565b6037546001600160a01b03163314610a0757600080fd5b603454600160d81b6453746f636b0214610a2057600080fd5b603954603354604051600160e21b633d3f3fe902815230926001600160a01b03169163f4fcffa491610a559190600401613ec1565b60206040518083038186803b158015610a6d57600080fd5b505afa158015610a81573d6000803e3d6000fd5b505050506040513d601f19601f82011682018060405250610aa591908101906133da565b6001600160a01b031614610ab857600080fd5b603c54604051600160e21b633cd163c502815260009182916001600160a01b039091169063f3458f1490610af0908a90600401613f3a565b60206040518083038186803b158015610b0857600080fd5b505afa158015610b1c573d6000803e3d6000fd5b505050506040513d601f19601f82011682018060405250610b4091908101906133da565b603c54604051600160e01b63f429f19b0281529192506001600160a01b03169063f429f19b90610b74908490600401613d3d565b60206040518083038186803b158015610b8c57600080fd5b505afa158015610ba0573d6000803e3d6000fd5b505050506040513d601f19601f82011682018060405250610bc49190810190613519565b600160cb1b660acd2c286c2e6d0214610bdc57600080fd5b60005b603f54811015610c2857816001600160a01b0316603f8281548110610c0057fe5b6000918252602090912001546001600160a01b03161415610c2057600192505b600101610bdf565b5081610c7a57603f80546001810182556000919091527fc03004e3ce0784bf68186394306849f9b7b1200073105cd9aeb554a1802b58fd0180546001600160a01b0319166001600160a01b0383161790555b6001600160a01b03811660009081526042602052604090208b8155600281018b9055600381018a90556004810189905560050187905560438690556044859055610cc66046858561304f565b5050600160d21b65125cdcdd59590260455550505050505050505050565b6037546001600160a01b03163314610cfb57600080fd5b42603d55600160d21b651858d8d95c1d02861415610f7f5760005b6033546000908152604e6020526040902054811015610f795784604e600060335481526020019081526020016000208281548110610d5057fe5b906000526020600020906007020160030154148015610db35750836001600160a01b0316604e600060335481526020019081526020016000208281548110610d9457fe5b60009182526020909120600560079092020101546001600160a01b0316145b8015610df0575082604e600060335481526020019081526020016000208281548110610ddb57fe5b90600052602060002090600702016001015410155b8015610e405750816001600160a01b0316604e600060335481526020019081526020016000208281548110610e2157fe5b60009182526020909120600660079092020101546001600160a01b0316145b15610f7157604051600160e01b638a0c62f10281526001600160a01b03871690638a0c62f190610e7a908890889088908890600401613eea565b600060405180830381600087803b158015610e9457600080fd5b505af1158015610ea8573d6000803e3d6000fd5b50505050604e600060335481526020019081526020016000208181548110610ecc57fe5b506000908152805b604154811015610f1d57856001600160a01b031660418281548110610ef557fe5b6000918252602090912001546001600160a01b03161415610f1557600191505b600101610ed4565b5080610f6f57604180546001810182556000919091527f7c9785e8241615bc80415d89775984a1337d15dc1bf4ce50f41988b2a2b336a70180546001600160a01b0319166001600160a01b0387161790555b505b600101610d16565b50610ff7565b85600160d21b651c995a9958dd021415610ff757604051600160e31b6307e132050281526001600160a01b03861690633f09902890610fc49087908790600401613ecf565b600060405180830381600087803b158015610fde57600080fd5b505af1158015610ff2573d6000803e3d6000fd5b505050505b603454600160d81b64736861726502141561102357600160c21b67105b1b1bdd1d19590260455561104a565b603454600160e21b63189bdb9902141561104a57600160c21b67105b1b1bdd1d195902604c555b505050505050565b6037546001600160a01b0316331461106957600080fd5b603454600160e21b63109bdb99021461108157600080fd5b603954603354604051600160e21b633d3f3fe902815230926001600160a01b03169163f4fcffa4916110b69190600401613ec1565b60206040518083038186803b1580156110ce57600080fd5b505afa1580156110e2573d6000803e3d6000fd5b505050506040513d601f19601f8201168201806040525061110691908101906133da565b6001600160a01b03161461111957600080fd5b603c54604051600160e21b633cd163c502815260009182916001600160a01b039091169063f3458f1490611151908a90600401613f3a565b60206040518083038186803b15801561116957600080fd5b505afa15801561117d573d6000803e3d6000fd5b505050506040513d601f19601f820116820180604052506111a191908101906133da565b603c54604051600160e01b63f429f19b0281529192506001600160a01b03169063f429f19b906111d5908490600401613d3d565b60206040518083038186803b1580156111ed57600080fd5b505afa158015611201573d6000803e3d6000fd5b505050506040513d601f19601f820116820180604052506112259190810190613519565b600160cb1b660acd2c286c2e6d021461123d57600080fd5b60005b603f5481101561128957816001600160a01b0316603f828154811061126157fe5b6000918252602090912001546001600160a01b0316141561128157600192505b600101611240565b50816112db57603f80546001810182556000919091527fc03004e3ce0784bf68186394306849f9b7b1200073105cd9aeb554a1802b58fd0180546001600160a01b0319166001600160a01b0383161790555b6001600160a01b03811660009081526047602052604090208d8155600281018d9055600381018c9055600481018b905560050187905560488690556049899055604a889055604b859055611331604d858561304f565b5050600160d21b65125cdcdd595902604c55505050505050505050505050565b6037546060906001600160a01b031633148061137757506036546001600160a01b031633145b61138057600080fd5b60415460408051828152602080840282010190915260609180156113ae578160200160208202803883390190505b5090506000805b6041548110156114c05760006001604f6000604185815481106113d457fe5b60009182526020808320909101546001600160a01b0316835282019290925260400181205460418054939091039350604f928590811061141057fe5b60009182526020808320909101546001600160a01b03168352820192909252604001902080548290811061144057fe5b9060005260206000209060040201600201548611156114b7576041828154811061146657fe5b9060005260206000200160009054906101000a90046001600160a01b031684848151811061149057fe5b60200260200101906001600160a01b031690816001600160a01b0316815250508260010192505b506001016113b5565b50909392505050565b6037546001600160a01b031633146114e057600080fd5b60008080808080805b603f54811015611c6257603454600160d81b64736861726502141561164157604360010154965060426000603f838154811061152157fe5b60009182526020808320909101546001600160a01b03168352820192909252604001812060050154603f8054919850604292918490811061155e57fe5b60009182526020808320909101546001600160a01b03168352820192909252604001812054603f8054919750604292918490811061159857fe5b60009182526020808320909101546001600160a01b03168352820192909252604001812060020154603f805491965060429291849081106115d557fe5b60009182526020808320909101546001600160a01b03168352820192909252604001812060030154603f8054919550604292918490811061161257fe5b60009182526020808320909101546001600160a01b03168352820192909252604001902060040154915061178a565b603454600160e21b63189bdb9902141561178a57604860030154965060476000603f838154811061166e57fe5b60009182526020808320909101546001600160a01b03168352820192909252604001812060050154603f805491985060479291849081106116ab57fe5b60009182526020808320909101546001600160a01b03168352820192909252604001812054603f805491975060479291849081106116e557fe5b60009182526020808320909101546001600160a01b03168352820192909252604001812060020154603f8054919650604792918490811061172257fe5b60009182526020808320909101546001600160a01b03168352820192909252604001812060030154603f8054919550604792918490811061175f57fe5b60009182526020808320909101546001600160a01b0316835282019290925260400190206004015491505b603b54603954603354604051600160e11b63522127410281526001600160a01b0393841693638d079e4d93169163a4424e82916117ca9190600401613ec1565b60206040518083038186803b1580156117e257600080fd5b505afa1580156117f6573d6000803e3d6000fd5b505050506040513d601f19601f8201168201806040525061181a91908101906133da565b603a54603954603354604051600160e01b63572d82990281526001600160a01b03938416938d93169163572d8299916118569190600401613ec1565b60206040518083038186803b15801561186e57600080fd5b505afa158015611882573d6000803e3d6000fd5b505050506040513d601f19601f820116820180604052506118a69190810190613519565b8c6040518663ffffffff1660e01b81526004016118c7959493929190613d73565b600060405180830381600087803b1580156118e157600080fd5b505af11580156118f5573d6000803e3d6000fd5b5050603b54603954603354604051600160e01b63572d82990281526001600160a01b039384169550639c3acea094508b939092169163572d82999161193c91600401613ec1565b60206040518083038186803b15801561195457600080fd5b505afa158015611968573d6000803e3d6000fd5b505050506040513d601f19601f8201168201806040525061198c9190810190613519565b8a6040518463ffffffff1660e01b81526004016119ab93929190613f1f565b60206040518083038186803b1580156119c357600080fd5b505afa1580156119d7573d6000803e3d6000fd5b505050506040513d601f19601f820116820180604052506119fb91908101906133da565b603880546001600160a01b0319166001600160a01b039283161790819055604051600160e01b6340c10f190281529116906340c10f1990611a429030908990600401613e29565b600060405180830381600087803b158015611a5c57600080fd5b505af1158015611a70573d6000803e3d6000fd5b50505050603454600160d81b647368617265021415611b0557603854603f80546001600160a01b039092169160429160009185908110611aac57fe5b6000918252602080832091909101546001600160a01b039081168452908301939093526040909101902060060180546001600160a01b03191692909116919091179055600160ca1b6613d999995c995902604555611b91565b603454600160e21b63189bdb99021415611b9157603854603f80546001600160a01b039092169160479160009185908110611b3c57fe5b6000918252602080832091909101546001600160a01b039081168452908301939093526040909101902060060180546001600160a01b03191692909116919091179055600160ca1b6613d999995c995902604c555b60005b603e54811015611c5957603e8181548110611bab57fe5b600091825260209091200154603854603f80546001600160a01b0393841693632a20e8df9316918c918b919088908110611be157fe5b60009182526020909120015460405163ffffffff861660e01b8152611c1b949392916001600160a01b0316908c908c908c90600401613dc1565b600060405180830381600087803b158015611c3557600080fd5b505af1158015611c49573d6000803e3d6000fd5b505060019092019150611b949050565b506001016114e9565b50505050505050565b6037546000906001600160a01b0316331480611c9157506036546001600160a01b031633145b611c9a57600080fd5b603454600160e21b63189bdb990214611cb257600080fd5b6000611cc5603d54604860010154612ee4565b9050611cd381603d54612efa565b91505090565b600054610100900460ff1680611cf25750611cf2612f51565b80611d00575060005460ff16155b611d2857604051600160e51b62461bcd028152600401611d1f90613f54565b60405180910390fd5b600054610100900460ff16158015611d53576000805460ff1961ff0019909116610100171660011790555b603580546001600160a01b03199081166001600160a01b038881169190911790925560338b905560348a90556036805482168a84161790556037805482168984161790556039805433908316179055603a80548216878416179055603b80548216868416179055603c80549091169184169190911790558015611ddc576000805461ff00191690555b505050505050505050565b6037546000906001600160a01b0316331480611e0d57506036546001600160a01b031633145b611e1657600080fd5b603454600160e21b63189bdb990214611e2e57600080fd5b6000604860010154611e4242603d54612f57565b81611e4957fe5b0490506000805b828110156114c0576001600160a01b0385166000908152604f60205260409020805482908110611e7c57fe5b600091825260209091206001600490920201810154929092019101611e50565b603754600090819081906001600160a01b0316331480611ec657506036546001600160a01b031633145b611ecf57600080fd5b603454600160e21b63189bdb990214611ee757600080fd5b6000611efa603d54604860010154612ee4565b9050611f0581612f67565b611f0e82612f82565b611f1783612f9d565b935093509350505b909192565b6037546000906001600160a01b0316331480611f4a57506036546001600160a01b031633145b611f5357600080fd5b603454600160e21b63189bdb990214611f6b57600080fd5b506001600160a01b03166000908152604760205260409020600101546041540290565b6060611f986130cd565b603f546040805182815260208084028201019091526060918015611fd657816020015b611fc36130f3565b815260200190600190039081611fbb5790505b509050611fe16130f3565b60005b603f54811015612270576040518060e0016040528060426000603f858154811061200a57fe5b9060005260206000200160009054906101000a90046001600160a01b03166001600160a01b03166001600160a01b0316815260200190815260200160002060000154815260200160426000603f858154811061206257fe5b9060005260206000200160009054906101000a90046001600160a01b03166001600160a01b03166001600160a01b0316815260200190815260200160002060010154815260200160426000603f85815481106120ba57fe5b9060005260206000200160009054906101000a90046001600160a01b03166001600160a01b03166001600160a01b0316815260200190815260200160002060020154815260200160426000603f858154811061211257fe5b9060005260206000200160009054906101000a90046001600160a01b03166001600160a01b03166001600160a01b0316815260200190815260200160002060030154815260200160426000603f858154811061216a57fe5b9060005260206000200160009054906101000a90046001600160a01b03166001600160a01b03166001600160a01b0316815260200190815260200160002060040154815260200160426000603f85815481106121c257fe5b9060005260206000200160009054906101000a90046001600160a01b03166001600160a01b03166001600160a01b0316815260200190815260200160002060050154815260200160426000603f858154811061221a57fe5b60009182526020808320909101546001600160a01b0390811684529083019390935260409091019020600601541690528351909250829084908390811061225d57fe5b6020908102919091010152600101611fe4565b50604080516080810182526043805482526044546020808401919091526045548385015260468054855160026001831615610100026000190190921691909104601f810184900484028201840190965285815287959394938593606086019391908301828280156123225780601f106122f757610100808354040283529160200191612322565b820191906000526020600020905b81548152906001019060200180831161230557829003601f168201915b50505050508152505090509350935050509091565b6037546001600160a01b031633148061235a57506036546001600160a01b031633145b61236357600080fd5b603454600160d81b6473686172650214806123895750603454600160e21b63189bdb9902145b61239257600080fd5b603c54604051600160e21b632e5ac80102815260009182916001600160a01b039091169063b96b2004906123ca908790600401613ec1565b604080518083038186803b1580156123e157600080fd5b505afa1580156123f5573d6000803e3d6000fd5b505050506040513d601f19601f8201168201806040525061241991908101906133f8565b9150915080600160cb1b660acd2c286c2e6d02141561250457604051600160e01b6323b872dd0281526001600160a01b038316906323b872dd9061246590339089908890600401613d4b565b602060405180830381600087803b15801561247f57600080fd5b505af1158015612493573d6000803e3d6000fd5b505050506040513d601f19601f820116820180604052506124b791908101906134fb565b15612504576124c461313c565b5060408051608081018252858152602080820186905242828401523360608301526001600160a01b0388166000908152604f909152919091208054829190fe5b5050505050565b603b546000906001600160a01b0316331461252557600080fd5b506035546001600160a01b031690565b6037546060906001600160a01b031633148061255b57506036546001600160a01b031633145b61256457600080fd5b60418054806020026020016040519081016040528092919081815260200182805480156125ba57602002820191906000526020600020905b81546001600160a01b0316815260019091019060200180831161259c575b5050505050905090565b603754600090819081906001600160a01b03163314806125ee57506036546001600160a01b031633145b6125f757600080fd5b603454600160e21b63189bdb99021461260f57600080fd5b6000611efa603d54604860020154612ee4565b606061262c613163565b603f54604080518281526020808402820101909152606091801561266a57816020015b6126576130f3565b81526020019060019003908161264f5790505b5090506126756130f3565b60005b603f54811015612904576040518060e0016040528060476000603f858154811061269e57fe5b9060005260206000200160009054906101000a90046001600160a01b03166001600160a01b03166001600160a01b0316815260200190815260200160002060000154815260200160476000603f85815481106126f657fe5b9060005260206000200160009054906101000a90046001600160a01b03166001600160a01b03166001600160a01b0316815260200190815260200160002060010154815260200160476000603f858154811061274e57fe5b9060005260206000200160009054906101000a90046001600160a01b03166001600160a01b03166001600160a01b0316815260200190815260200160002060020154815260200160476000603f85815481106127a657fe5b9060005260206000200160009054906101000a90046001600160a01b03166001600160a01b03166001600160a01b0316815260200190815260200160002060030154815260200160476000603f85815481106127fe57fe5b9060005260206000200160009054906101000a90046001600160a01b03166001600160a01b03166001600160a01b0316815260200190815260200160002060040154815260200160476000603f858154811061285657fe5b9060005260206000200160009054906101000a90046001600160a01b03166001600160a01b03166001600160a01b0316815260200190815260200160002060050154815260200160476000603f85815481106128ae57fe5b60009182526020808320909101546001600160a01b039081168452908301939093526040909101902060060154169052835190925082908490839081106128f157fe5b6020908102919091010152600101612678565b506040805160c081018252604880548252604954602080840191909152604a5483850152604b546060840152604c546080840152604d8054855160026001831615610100026000190190921691909104601f81018490048402820184019096528581528795939493859360a086019391908301828280156123225780601f106122f757610100808354040283529160200191612322565b603754600090819081906001600160a01b03163314806129c557506036546001600160a01b031633145b6129ce57600080fd5b603454600160e21b63189bdb9902146129e657600080fd5b60005b604954604a54816129f657fe5b04811015612a655742612a15603d548360010160486001015402612ee4565b1115612a5d576000612a33603d548360010160486001015402612ee4565b9050612a3e81612f67565b612a4782612f82565b612a5083612f9d565b9450945094505050611f1f565b6001016129e9565b50909192565b6039546001600160a01b03163314612a8257600080fd5b603e80546001810182556000919091527f8d800d6614d35eed73733ee453164a3b48076eb3138f466adeeb9dec7bb31f700180546001600160a01b0319166001600160a01b0392909216919091179055565b6037546000906001600160a01b0316331480612afa57506036546001600160a01b031633145b612b0357600080fd5b603454600160e21b63189bdb990214612b1b57600080fd5b506001600160a01b031660009081526047602052604090206001015490565b603754600090819081906001600160a01b0316331480612b6457506036546001600160a01b031633145b612b6d57600080fd5b612b78603d54612f67565b612b83603d54612f82565b612b8e603d54612f9d565b925092509250909192565b6037546001600160a01b03163314612bb057600080fd5b60005b603e54811015612e1657603e8181548110612bca57fe5b600091825260208220015460408051600160e11b6355e47b0302815290516001600160a01b039092169263abc8f6069260048084019382900301818387803b158015612c1557600080fd5b505af1158015612c29573d6000803e3d6000fd5b506000925050505b603f54811015612e0d57603454600160d81b647368617265021415612d2357603e8281548110612c5d57fe5b6000918252602082200154603f80546001600160a01b039092169263867904b4926042929086908110612c8c57fe5b60009182526020808320909101546001600160a01b039081168452908301939093526040918201902060060154905163ffffffff841660e01b8152612cda9291909116908790600401613e29565b600060405180830381600087803b158015612cf457600080fd5b505af1158015612d08573d6000803e3d6000fd5b5050600160ca1b6614dd185c9d19590260455550612e059050565b603454600160e21b63189bdb99021415612e0557603e8281548110612d4457fe5b6000918252602082200154603f80546001600160a01b039092169263867904b4926047929086908110612d7357fe5b60009182526020808320909101546001600160a01b039081168452908301939093526040918201902060060154905163ffffffff841660e01b8152612dc19291909116908790600401613e29565b600060405180830381600087803b158015612ddb57600080fd5b505af1158015612def573d6000803e3d6000fd5b5050600160ca1b6614dd185c9d195902604c5550505b600101612c31565b50600101612bb3565b5050565b6037546060906001600160a01b0316331480612e4057506036546001600160a01b031633145b612e4957600080fd5b6001600160a01b0382166000908152604f6020908152604080832080548251818502810185019093528083529193909284015b82821015612ed957600084815260209081902060408051608081018252600486029092018054835260018082015484860152600282015492840192909252600301546001600160a01b031660608301529083529092019101612e7c565b505050509050919050565b81810182811015612ef457600080fd5b92915050565b600081831115612f0957600080fd5b60008080808080612f1f620151808a5b04612fb9565b91975095509350612f336201518089612f19565b50600c97880297909102019590950393909303979650505050505050565b303b1590565b80820382811115612ef457600080fd5b60008080612f786201518085612f19565b9695505050505050565b60008080612f936201518085612f19565b5095945050505050565b60008080612fae6201518085612f19565b509095945050505050565b60008080836226496581018262023ab1600483020590506004600362023ab18302010590910390600062164b09610fa0600185010205905060046105b58202058303601f019250600061098f846050028161301057fe5b0590506000605061098f83020585039050600b820560301994909401606402929092018301996002600c90940290910392909201975095509350505050565b828054600181600116156101000203166002900490600052602060002090601f016020900481019282601f106130905782800160ff198235161785556130bd565b828001600101855582156130bd579182015b828111156130bd5782358255916020019190600101906130a2565b506130c992915061319a565b5090565b604080516080810182526000808252602082018190529181019190915260608082015290565b6040518060e0016040528060008152602001600081526020016000815260200160008152602001600081526020016000801916815260200160006001600160a01b031681525090565b60408051608081018252600080825260208201819052918101829052606081019190915290565b6040805160c0810182526000808252602082018190529181018290526060808201839052608082019290925260a081019190915290565b6109ed91905b808211156130c957600081556001016131a0565b60006131c08235613fbf565b9392505050565b60006131c08251613fbf565b600082601f8301126131e457600080fd5b81516131f76131f282613f8b565b613f64565b9150818183526020840193506020810190508385602084028201111561321c57600080fd5b60005b83811015613248578161323288826132dc565b845250602092830192919091019060010161321f565b5050505092915050565b600082601f83011261326357600080fd5b81516132716131f282613f8b565b915081818352602084019350602081019050838560a084028201111561329657600080fd5b60005b8381101561324857816132ac8882613331565b84525060209092019160a09190910190600101613299565b60006131c08251613fca565b60006131c082356109ed565b60006131c082516109ed565b60008083601f8401126132fa57600080fd5b50813567ffffffffffffffff81111561331257600080fd5b60208301915083600182028301111561332a57600080fd5b9250929050565b600060a0828403121561334357600080fd5b61334d60a0613f64565b9050600061335b84846131c7565b825250602061336c848483016131c7565b6020830152506040613380848285016132dc565b6040830152506060613394848285016132dc565b60608301525060806133a8848285016132dc565b60808301525092915050565b6000602082840312156133c657600080fd5b60006133d284846131b4565b949350505050565b6000602082840312156133ec57600080fd5b60006133d284846131c7565b6000806040838503121561340b57600080fd5b600061341785856131c7565b9250506020613428858286016132dc565b9150509250929050565b60008060006060848603121561344757600080fd5b600061345386866131b4565b9350506020613464868287016132d0565b9250506040613475868287016132d0565b9150509250925092565b6000806040838503121561349257600080fd5b825167ffffffffffffffff8111156134a957600080fd5b6134b5858286016131d3565b9250506020613428858286016132c4565b6000602082840312156134d857600080fd5b815167ffffffffffffffff8111156134ef57600080fd5b6133d284828501613252565b60006020828403121561350d57600080fd5b60006133d284846132c4565b60006020828403121561352b57600080fd5b60006133d284846132dc565b60008060008060008060c0878903121561355057600080fd5b600061355c89896132d0565b965050602061356d89828a016131b4565b955050604061357e89828a016132d0565b945050606061358f89828a016131b4565b93505060806135a089828a016132d0565b92505060a06135b189828a016131b4565b9150509295509295509295565b600080600080600080600080610100898b0312156135db57600080fd5b60006135e78b8b6132d0565b98505060206135f88b828c016132d0565b97505060406136098b828c016131b4565b965050606061361a8b828c016131b4565b955050608061362b8b828c016131b4565b94505060a061363c8b828c016131b4565b93505060c061364d8b828c016131b4565b92505060e061365e8b828c016131b4565b9150509295985092959890939650565b60006020828403121561368057600080fd5b60006133d284846132d0565b60008060008060008060008060006101008a8c0312156136ab57600080fd5b60006136b78c8c6132d0565b99505060206136c88c828d016132d0565b98505060406136d98c828d016132d0565b97505060606136ea8c828d016132d0565b96505060806136fb8c828d016132d0565b95505060a061370c8c828d016132d0565b94505060c061371d8c828d016132d0565b93505060e08a013567ffffffffffffffff81111561373a57600080fd5b6137468c828d016132e8565b92509250509295985092959850929598565b60008060008060008060008060008060006101408c8e03121561377a57600080fd5b60006137868e8e6132d0565b9b505060206137978e828f016132d0565b9a505060406137a88e828f016132d0565b99505060606137b98e828f016132d0565b98505060806137ca8e828f016132d0565b97505060a06137db8e828f016132d0565b96505060c06137ec8e828f016132d0565b95505060e06137fd8e828f016132d0565b94505061010061380f8e828f016132d0565b9350506101208c013567ffffffffffffffff81111561382d57600080fd5b6138398e828f016132e8565b92509250509295989b509295989b9093969950565b600061385a83836138ae565b505060200190565b600061386e8383613bd3565b505060e00190565b60006138828383613c5c565b50506101000190565b60006138978383613cf3565b505060800190565b6138a881613fdb565b82525050565b6138a881613fbf565b60006138c282613fb2565b6138cc8185613fb6565b93506138d783613fac565b60005b82811015613902576138ed86835161384e565b95506138f882613fac565b91506001016138da565b5093949350505050565b600061391782613fb2565b6139218185613fb6565b935061392c83613fac565b60005b8281101561390257613942868351613862565b955061394d82613fac565b915060010161392f565b600061396282613fb2565b61396c8185613fb6565b935061397783613fac565b60005b828110156139025761398d868351613862565b955061399882613fac565b915060010161397a565b60006139ad82613fb2565b6139b78185613fb6565b93506139c283613fac565b60005b82811015613902576139d8868351613876565b95506139e382613fac565b91506001016139c5565b60006139f882613fb2565b613a028185613fb6565b9350613a0d83613fac565b60005b8281101561390257613a2386835161388b565b9550613a2e82613fac565b9150600101613a10565b6138a881613fca565b6138a8816109ed565b6000613a5582613fb2565b613a5f8185613fb6565b9350613a6f818560208601613fec565b613a7881614018565b9093019392505050565b600160f41b610445029052565b600160cb1b660acd2c286c2e6d029052565b6000613aae602e83613fb6565b7f436f6e747261637420696e7374616e63652068617320616c726561647920626581527f656e20696e697469616c697a6564000000000000000000000000000000000000602082015260400192915050565b805160009060c0840190613b148582613a41565b506020830151613b276020860182613a41565b506040830151613b3a6040860182613a41565b506060830151613b4d6060860182613a41565b506080830151613b606080860182613a41565b5060a083015184820360a0860152613b788282613a4a565b95945050505050565b80516000906080840190613b958582613a41565b506020830151613ba86020860182613a41565b506040830151613bbb6040860182613a41565b5060608301518482036060860152613b788282613a4a565b805160e0830190613be48482613a41565b506020820151613bf76020850182613a41565b506040820151613c0a6040850182613a41565b506060820151613c1d6060850182613a41565b506080820151613c306080850182613a41565b5060a0820151613c4360a0850182613a41565b5060c0820151613c5660c08501826138ae565b50505050565b8051610100830190613c6e8482613a41565b506020820151613c816020850182613a41565b506040820151613c946040850182613a41565b506060820151613ca76060850182613a41565b506080820151613cba6080850182613a38565b5060a0820151613ccd60a08501826138ae565b5060c0820151613ce060c08501826138ae565b5060e0820151613c5660e08501826138ae565b80516080830190613d048482613a41565b506020820151613d176020850182613a41565b506040820151613d2a6040850182613a41565b506060820151613c5660608501826138ae565b60208101612ef482846138ae565b60608101613d59828661389f565b613d6660208301856138ae565b6133d26040830184613a41565b60c08101613d8182886138ae565b613d8e60208301876138ae565b613d9b6040830186613a41565b613da86060830185613a41565b613db56080830184613a41565b612f7860a08301613a82565b60e08101613dcf828a6138ae565b613ddc6020830189613a41565b613de96040830188613a41565b613df660608301876138ae565b613e036080830186613a41565b613e1060a0830185613a41565b613e1d60c0830184613a41565b98975050505050505050565b60408101613e3782856138ae565b6131c06020830184613a41565b602080825281016131c081846138b7565b60408082528101613e66818561390c565b905081810360208301526133d28184613b00565b60408082528101613e8b8185613957565b905081810360208301526133d28184613b81565b602080825281016131c081846139a2565b602080825281016131c081846139ed565b60208101612ef48284613a41565b60408101613edd8285613a41565b6131c060208301846138ae565b60808101613ef88287613a41565b613f0560208301866138ae565b613f126040830185613a41565b613b7860608301846138ae565b60608101613f2d8286613a41565b613d666020830185613a41565b60408101613f488284613a41565b612ef460208301613a8f565b60208082528101612ef481613aa1565b60405181810167ffffffffffffffff81118282101715613f8357600080fd5b604052919050565b600067ffffffffffffffff821115613fa257600080fd5b5060209081020190565b60200190565b5190565b90815260200190565b6000612ef482613fcf565b151590565b6001600160a01b031690565b6000612ef4826000612ef482613fbf565b60005b83811015614007578181015183820152602001613fef565b83811115613c565750506000910152565b601f01601f19169056fea265627a7a723058200ace6d8c16ff3ac636ec3212f6b18298cef8e049519bb7957305793ea530a58c6c6578706572696d656e74616cf50037",
  "source": "// Issue of Verified financial products\r\n// Offer issues to liquidity pools for IoIs, fix pricing, make allotments, draw down capital, create subscriptions\r\n// (c) Kallol Borah, Verified Network, 2021\r\n\r\npragma solidity 0.5.7;\r\npragma experimental ABIEncoderV2;\r\n\r\nimport \"./interfaces/Bond.sol\";\r\nimport \"./interfaces/Share.sol\";\r\nimport \"./interfaces/ViaCash.sol\";\r\nimport \"./interfaces/ViaFactory.sol\";\r\nimport \"./interfaces/VerifiedIssues.sol\";\r\nimport \"./interfaces/VerifiedProducts.sol\";\r\nimport \"./interfaces/IMarketMaker.sol\";\r\nimport \"./interfaces/ISecurity.sol\";\r\nimport \"./interfaces/ISecuritiesRegistry.sol\";\r\nimport \"./utilities/BokkyPooBahsDateTimeLibrary.sol\";\r\nimport \"@openzeppelin/upgrades/contracts/Initializable.sol\";\r\n\r\ncontract Issues is VerifiedIssues, Initializable {\r\n\r\n    using BokkyPooBahsDateTimeLibrary for uint;\r\n\r\n    bytes32 productRef;\r\n    bytes32 category;\r\n    address owner;\r\n    address issuer;\r\n    address registrar;\r\n    address security;\r\n    address productContract;\r\n    address securityContract;\r\n    address securityRegistriesContract;\r\n    address viaFactoryContract;\r\n    uint256 timeOfIssue;    \r\n\r\n    address[] private platforms;\r\n\r\n    address[] private currencies;\r\n\r\n    address[] private investors;\r\n\r\n    address[] private beneficiaries;\r\n\r\n    //mapping of asked currency to issue details\r\n    mapping(address => Share.currencySpecificStockAttribs) private shares;\r\n    Share.commonStockAttribs stockIssue;\r\n\r\n    //mapping of asked currency to issue details\r\n    mapping(address => Bond.currencySpecificBondAttribs) private bonds;\r\n    Bond.commonBondAttribs bondIssue;\r\n\r\n    //mapping of currencies to investors in pools \r\n    mapping(bytes32 => ioi[]) private subscribers;\r\n\r\n    //mapping of beneficiaries to payouts\r\n    mapping(address => VerifiedIssues.payment[]) private payouts;\r\n    \r\n    function initialize(bytes32 _productReference, \r\n                        bytes32 _productCategory, \r\n                        address _issuer, \r\n                        address _registrar, \r\n                        address _owner,\r\n                        address _securityContract, \r\n                        address _securityRegistriesContract,\r\n                        address _viaFactoryContract\r\n                        ) public initializer{\r\n        owner = _owner;\r\n        productRef = _productReference;\r\n        category = _productCategory;\r\n        issuer = _issuer;\r\n        registrar = _registrar;\r\n        productContract = msg.sender;\r\n        securityContract = _securityContract;\r\n        securityRegistriesContract = _securityRegistriesContract;\r\n        viaFactoryContract = _viaFactoryContract;\r\n    }\r\n\r\n    function getOwner() external view returns(address){\r\n        require(msg.sender==securityRegistriesContract);\r\n        return owner;\r\n    }\r\n\r\n    function issueShare(uint256 _issueSize,\r\n                        uint256 _offerPrice, \r\n                        uint256 _minAskPrice, \r\n                        uint256 _minSubscription,\r\n                        bytes32 _currency,\r\n                        bytes32 _offerType,\r\n                        bytes32 _isin,\r\n                        string calldata _offeringDocuments\r\n                        ) external {\r\n        require(registrar==msg.sender);\r\n        require(category==\"Stock\");\r\n        require(VerifiedProducts(productContract).getIssue(productRef)==address(this));\r\n        bool found = false;\r\n        address currencyAddress = ViaFactory(viaFactoryContract).getTokenByNameType(_currency,\"ViaCash\");\r\n        require(ViaFactory(viaFactoryContract).getType(currencyAddress) == \"ViaCash\");\r\n        for(uint i=0; i<currencies.length; i++){\r\n            if(currencies[i]==currencyAddress)\r\n                found = true;\r\n        }\r\n        if(!found)\r\n            currencies.push(currencyAddress);\r\n        shares[currencyAddress].issueSize = _issueSize;\r\n        shares[currencyAddress].offerPrice = _offerPrice;\r\n        shares[currencyAddress].minAskPrice = _minAskPrice;\r\n        shares[currencyAddress].minSubscription = _minSubscription;\r\n        shares[currencyAddress].currency = _currency;\r\n        stockIssue.offerType = _offerType;\r\n        stockIssue.isin = _isin;        \r\n        stockIssue.offeringDocuments = _offeringDocuments;  \r\n        stockIssue.status = \"Issued\";      \r\n    }\r\n\r\n    function getShare() external view returns(Share.currencySpecificStockAttribs[] memory, Share.commonStockAttribs memory){\r\n        Share.currencySpecificStockAttribs[] memory stocks = new Share.currencySpecificStockAttribs[](currencies.length);\r\n        Share.currencySpecificStockAttribs memory share;\r\n        for(uint i=0; i<currencies.length; i++){\r\n            share = Share.currencySpecificStockAttribs({\r\n                issueSize : shares[currencies[i]].issueSize,\r\n                faceValue : shares[currencies[i]].faceValue,\r\n                offerPrice : shares[currencies[i]].offerPrice, \r\n                minAskPrice : shares[currencies[i]].minAskPrice,  \r\n                minSubscription : shares[currencies[i]].minSubscription,\r\n                currency : shares[currencies[i]].currency,\r\n                security : shares[currencies[i]].security\r\n            });\r\n            stocks[i] = share;\r\n        }\r\n        return (stocks, stockIssue);\r\n    }\r\n\r\n    function issueBond(uint256 _issueSize,\r\n                        uint256 _offerPrice, \r\n                        uint256 _minAskPrice, \r\n                        uint256 _minSubscription,\r\n                        uint256 _couponPaymentCycle, \r\n                        uint256 _tenure,\r\n                        bytes32 _currency,\r\n                        bytes32 _offerType,\r\n                        bytes32 _isin,\r\n                        string calldata _offeringDocuments\r\n                        ) external {\r\n        require(registrar==msg.sender);\r\n        require(category==\"Bond\");\r\n        require(VerifiedProducts(productContract).getIssue(productRef)==address(this));\r\n        bool found = false;\r\n        address currencyAddress = ViaFactory(viaFactoryContract).getTokenByNameType(_currency,\"ViaCash\");\r\n        require(ViaFactory(viaFactoryContract).getType(currencyAddress) == \"ViaCash\");\r\n        for(uint i=0; i<currencies.length; i++){\r\n            if(currencies[i]==currencyAddress)\r\n                found = true;\r\n        }\r\n        if(!found)\r\n            currencies.push(currencyAddress);\r\n        bonds[currencyAddress].issueSize = _issueSize;\r\n        bonds[currencyAddress].offerPrice = _offerPrice;\r\n        bonds[currencyAddress].minAskPrice = _minAskPrice;    \r\n        bonds[currencyAddress].minSubscription = _minSubscription;    \r\n        bonds[currencyAddress].currency = _currency;\r\n        bondIssue.offerType = _offerType;\r\n        bondIssue.couponPaymentCycle = _couponPaymentCycle; \r\n        bondIssue.tenure = _tenure; \r\n        bondIssue.isin = _isin;\r\n        bondIssue.offeringDocuments = _offeringDocuments;\r\n        bondIssue.status = \"Issued\";\r\n    }\r\n\r\n    function getBond() external view returns(Bond.currencySpecificBondAttribs[] memory, Bond.commonBondAttribs memory){\r\n        Bond.currencySpecificBondAttribs[] memory notes = new Bond.currencySpecificBondAttribs[](currencies.length);\r\n        Bond.currencySpecificBondAttribs memory bond;\r\n        for(uint i=0; i<currencies.length; i++){\r\n            bond = Bond.currencySpecificBondAttribs({\r\n                issueSize : bonds[currencies[i]].issueSize,\r\n                coupon : bonds[currencies[i]].coupon,\r\n                offerPrice : bonds[currencies[i]].offerPrice, \r\n                minAskPrice : bonds[currencies[i]].minAskPrice, \r\n                minSubscription : bonds[currencies[i]].minSubscription,\r\n                currency : bonds[currencies[i]].currency,\r\n                security : bonds[currencies[i]].security\r\n            });\r\n            notes[i] = bond;\r\n        }\r\n        return (notes, bondIssue);\r\n    }\r\n\r\n    function registerPlatform(address _liquidityPlatform) external {\r\n        require(productContract==msg.sender);\r\n        platforms.push(_liquidityPlatform);\r\n    }\r\n\r\n    function askOffers() external {\r\n        require(registrar==msg.sender);\r\n        bytes32 isin;\r\n        bytes32 currency;\r\n        uint256 issueSize;\r\n        uint256 offerPrice; \r\n        uint256 minAskPrice; \r\n        uint256 minSubscription;\r\n        for(uint i=0; i<currencies.length; i++){\r\n            if(category==\"share\"){\r\n                isin = stockIssue.isin;\r\n                currency = shares[currencies[i]].currency;\r\n                issueSize = shares[currencies[i]].issueSize;\r\n                offerPrice = shares[currencies[i]].offerPrice;\r\n                minAskPrice = shares[currencies[i]].minAskPrice;    \r\n                minSubscription = shares[currencies[i]].minSubscription;            \r\n            }\r\n            else if(category==\"bond\"){\r\n                isin = bondIssue.isin;\r\n                currency = bonds[currencies[i]].currency;\r\n                issueSize = bonds[currencies[i]].issueSize;\r\n                offerPrice = bonds[currencies[i]].offerPrice;\r\n                minAskPrice = bonds[currencies[i]].minAskPrice;\r\n                minSubscription = bonds[currencies[i]].minSubscription;\r\n            }\r\n            ISecuritiesRegistry(securityRegistriesContract).createSecurity(VerifiedProducts(productContract).getIssuerAddress(productRef),\r\n                                                        securityContract,\r\n                                                        currency,\r\n                                                        VerifiedProducts(productContract).getIssuerName(productRef),\r\n                                                        isin, \"DP\");\r\n            security = ISecuritiesRegistry(securityRegistriesContract).getToken(currency,\r\n                                                                                VerifiedProducts(productContract).getIssuerName(productRef),\r\n                                                                                isin);\r\n            ISecurity(security).mint(address(this), issueSize);\r\n            if(category==\"share\"){\r\n                shares[currencies[i]].security = security;\r\n                stockIssue.status = \"Offered\";\r\n            }\r\n            else if(category==\"bond\"){\r\n                bonds[currencies[i]].security = security;\r\n                bondIssue.status = \"Offered\";\r\n            }\r\n            //offer the issue on defi platforms\r\n            for(uint j=0; j<platforms.length; j++){\r\n                IMarketMaker(platforms[j]).make(security, isin, issueSize, currencies[i], offerPrice, minAskPrice, minSubscription);\r\n            }\r\n        }\r\n    }\r\n\r\n    function startIssue(uint256 cutOffTime) external {\r\n        require(registrar==msg.sender);\r\n        for(uint i=0; i<platforms.length; i++){\r\n            IMarketMaker(platforms[i]).setRelayer();\r\n            for(uint j=0; j<currencies.length; j++){\r\n                if(category==\"share\"){\r\n                    IMarketMaker(platforms[i]).issue(shares[currencies[j]].security, cutOffTime);\r\n                    stockIssue.status = \"Started\";\r\n                }\r\n                else if(category==\"bond\"){\r\n                    IMarketMaker(platforms[i]).issue(bonds[currencies[j]].security, cutOffTime);\r\n                    bondIssue.status = \"Started\";\r\n                }\r\n            }\r\n        }\r\n    }\r\n\r\n    function getSubscribers() external returns(VerifiedIssues.ioi[] memory) {\r\n        require(registrar==msg.sender);\r\n        for(uint i=0; i<platforms.length; i++){\r\n            for(uint k=0; k<currencies.length; k++){\r\n                address securitytoken;\r\n                if(category==\"share\")\r\n                    securitytoken = shares[currencies[k]].security;\r\n                else if(category==\"bond\")\r\n                    securitytoken = bonds[currencies[k]].security;\r\n                (bytes32[] memory pools, bool closed) = IMarketMaker(platforms[i]).close(securitytoken);\r\n                if(closed){\r\n                    if(category==\"share\")\r\n                        stockIssue.status = \"Closed\";\r\n                    else if(category==\"bond\")\r\n                        bondIssue.status = \"Closed\";\r\n                }\r\n                for(uint j=0; j<pools.length; j++){\r\n                    IMarketMaker.subscriptions[] memory subs = IMarketMaker(platforms[i]).getSubscribers(pools[j]);\r\n                    for(uint l=0; l<subs.length; l++){\r\n                        uint256 count = subscribers[productRef].length;\r\n                        subscribers[productRef][count].platform = platforms[i];\r\n                        subscribers[productRef][count].poolid = pools[j];\r\n                        subscribers[productRef][count].amount = subs[l].amount;\r\n                        subscribers[productRef][count].price = subs[l].price;\r\n                        subscribers[productRef][count].currency = subs[l].name;\r\n                        subscribers[productRef][count].investor = subs[l].investor;\r\n                        subscribers[productRef][count].asset = subs[l].asset;\r\n                        bool found = false;\r\n                        for(uint x=0; x<investors.length; x++){\r\n                            if(investors[x]==subs[l].investor)\r\n                                found = true;\r\n                        }\r\n                        if(!found)\r\n                            investors.push(subs[l].investor);\r\n                    }\r\n                }\r\n            }\r\n        }\r\n        return subscribers[productRef];\r\n    }\r\n\r\n    function allotIssue(bytes32 _allotment, address _platform, bytes32 _pool, address _investor, uint256 _amount, address _asset) external {\r\n        require(registrar==msg.sender);\r\n        timeOfIssue = now;\r\n        if(_allotment==\"accept\"){\r\n            for(uint i=0; i<subscribers[productRef].length; i++){\r\n                if(subscribers[productRef][i].poolid==_pool &&\r\n                   subscribers[productRef][i].investor==_investor &&\r\n                   subscribers[productRef][i].amount >= _amount &&\r\n                   subscribers[productRef][i].asset == _asset\r\n                   ){\r\n                    IMarketMaker(_platform).accept(_pool, _investor, _amount, _asset);\r\n                    subscribers[productRef][i].status == true;\r\n                    bool found = false;\r\n                    for(uint j=0; j<beneficiaries.length; j++){\r\n                        if(beneficiaries[j]==_investor)\r\n                            found = true;\r\n                    }\r\n                    if(!found)\r\n                        beneficiaries.push(_investor);\r\n                }\r\n            }\r\n        }\r\n        else if(_allotment==\"reject\"){\r\n            IMarketMaker(_platform).reject(_pool, _investor);\r\n        }\r\n        if(category==\"share\")\r\n            stockIssue.status = \"Allotted\";\r\n        else if(category==\"bond\")\r\n            bondIssue.status = \"Allotted\";\r\n    }\r\n\r\n    function getBeneficiaries() external view returns(address[] memory){\r\n        require(registrar==msg.sender || issuer==msg.sender);\r\n        return beneficiaries;\r\n    }\r\n\r\n    function computeNextInstallment(address _currency) external returns(uint256){\r\n        require(registrar==msg.sender || issuer==msg.sender);\r\n        require(category==\"bond\");\r\n        return (beneficiaries.length * bonds[_currency].coupon);\r\n    }\r\n\r\n    function getPaymentAmountFor(address _beneficiary) external returns(uint256){\r\n        require(registrar==msg.sender || issuer==msg.sender);\r\n        require(category==\"bond\");\r\n        uint256 installments = BokkyPooBahsDateTimeLibrary.subSeconds(now, timeOfIssue)/bondIssue.couponPaymentCycle;\r\n        uint256 paymentMade = 0;\r\n        for(uint i=0; i<installments; i++){\r\n            paymentMade = paymentMade + payouts[_beneficiary][i].amount;\r\n        }\r\n        return (installments);\r\n    }\r\n\r\n    function getPaymentStatusFor(address _beneficiary) external returns(VerifiedIssues.payment[] memory){\r\n        require(registrar==msg.sender || issuer==msg.sender);\r\n        return payouts[_beneficiary];\r\n    }\r\n\r\n    function isAllPaidFor(uint256 _byTime) external returns(address[] memory){\r\n        require(registrar==msg.sender || issuer==msg.sender);\r\n        address[] memory unpaidBeneficiaries = new address[](beneficiaries.length);\r\n        uint count =0;\r\n        for(uint i=0; i<beneficiaries.length; i++){\r\n            uint latestPayment = payouts[beneficiaries[i]].length-1;\r\n            if(_byTime > payouts[beneficiaries[i]][latestPayment].payoutDate){\r\n                unpaidBeneficiaries[count] = beneficiaries[i];\r\n                count = count + 1;\r\n            }\r\n        }\r\n        return unpaidBeneficiaries;\r\n    }\r\n\r\n    function getDateOfIssue() external returns(uint256, uint256, uint256){\r\n        require(registrar==msg.sender || issuer==msg.sender);\r\n        return (BokkyPooBahsDateTimeLibrary.getDay(timeOfIssue),\r\n                BokkyPooBahsDateTimeLibrary.getMonth(timeOfIssue),\r\n                BokkyPooBahsDateTimeLibrary.getYear(timeOfIssue));\r\n    }\r\n\r\n    function getmaturityDate() external returns(uint256, uint256, uint256){\r\n        require(registrar==msg.sender || issuer==msg.sender);\r\n        require(category==\"bond\");\r\n        uint256 maturityDate = BokkyPooBahsDateTimeLibrary.addSeconds(timeOfIssue, bondIssue.tenure);\r\n        return (BokkyPooBahsDateTimeLibrary.getDay(maturityDate),\r\n                BokkyPooBahsDateTimeLibrary.getMonth(maturityDate),\r\n                BokkyPooBahsDateTimeLibrary.getYear(maturityDate));\r\n    }\r\n\r\n    function getfirstCouponDate() external returns(uint256, uint256, uint256){\r\n        require(registrar==msg.sender || issuer==msg.sender);\r\n        require(category==\"bond\");\r\n        uint256 couponDate = BokkyPooBahsDateTimeLibrary.addSeconds(timeOfIssue, bondIssue.couponPaymentCycle);\r\n        return (BokkyPooBahsDateTimeLibrary.getDay(couponDate),\r\n                BokkyPooBahsDateTimeLibrary.getMonth(couponDate),\r\n                BokkyPooBahsDateTimeLibrary.getYear(couponDate));\r\n    }\r\n\r\n    function computeNextCouponDate() external returns(uint256, uint256, uint256){\r\n        require(registrar==msg.sender || issuer==msg.sender);\r\n        require(category==\"bond\");\r\n        for(uint i=0; i<(bondIssue.tenure/bondIssue.couponPaymentCycle); i++){\r\n            if(BokkyPooBahsDateTimeLibrary.addSeconds(timeOfIssue, (bondIssue.couponPaymentCycle*(i+1)))>now){\r\n                uint256 nextDate = BokkyPooBahsDateTimeLibrary.addSeconds(timeOfIssue, (bondIssue.couponPaymentCycle*(i+1)));\r\n                return (BokkyPooBahsDateTimeLibrary.getDay(nextDate),\r\n                        BokkyPooBahsDateTimeLibrary.getMonth(nextDate),\r\n                        BokkyPooBahsDateTimeLibrary.getYear(nextDate));\r\n            }\r\n        }\r\n    }\r\n    \r\n    function getcouponFrequencyInMonths() external returns(uint256){\r\n        require(registrar==msg.sender || issuer==msg.sender);\r\n        require(category==\"bond\");\r\n        uint256 firstCouponDate = BokkyPooBahsDateTimeLibrary.addSeconds(timeOfIssue, bondIssue.couponPaymentCycle);\r\n        return BokkyPooBahsDateTimeLibrary.diffMonths(firstCouponDate, timeOfIssue);\r\n    }\r\n\r\n    function getinterestRateInBips(address _currency) external returns(uint256){\r\n        require(registrar==msg.sender || issuer==msg.sender);\r\n        require(category==\"bond\");\r\n        return bonds[_currency].coupon;\r\n    }\r\n\r\n    function payOut(address _beneficiary, bytes32 _currency, uint256 _amount) external {\r\n        require(registrar==msg.sender || issuer==msg.sender);\r\n        require(category==\"share\" || category==\"bond\");\r\n        (address token, bytes32 tokentype) = ViaFactory(viaFactoryContract).getAddressAndType(_currency);\r\n        if(tokentype==\"ViaCash\"){\r\n            if(ViaCash(token).transferFrom(msg.sender, _beneficiary, _amount)){\r\n                VerifiedIssues.payment memory paid = VerifiedIssues.payment({\r\n                    currency : _currency,\r\n                    amount : _amount,\r\n                    payoutDate : now,\r\n                    payer : msg.sender\r\n                });\r\n                payouts[_beneficiary][payouts[_beneficiary].length] = paid;                \r\n            }\r\n        }\r\n    }\r\n\r\n}",
  "sourcePath": "D:\\Code\\verified-securities\\securities\\contracts\\Issues.sol",
  "compiler": {
    "name": "solc",
    "version": "0.5.7+commit.6da8b019.Emscripten.clang"
  },
  "schemaVersion": "3.4.3",
  "updatedAt": "2021-12-04T10:17:55.163Z",
  "networkType": "ethereum",
  "devdoc": {
    "methods": {}
  },
  "userdoc": {
    "methods": {}
  }
}