{
  "contractName": "Products",
  "abi": [
    {
      "constant": true,
      "inputs": [
        {
          "name": "_salt",
          "type": "uint256"
        },
        {
          "name": "_logic",
          "type": "address"
        },
        {
          "name": "_admin",
          "type": "address"
        },
        {
          "name": "_data",
          "type": "bytes"
        },
        {
          "name": "_signature",
          "type": "bytes"
        }
      ],
      "name": "getSigner",
      "outputs": [
        {
          "name": "",
          "type": "address"
        }
      ],
      "payable": false,
      "stateMutability": "view",
      "type": "function"
    },
    {
      "constant": false,
      "inputs": [
        {
          "name": "_salt",
          "type": "uint256"
        },
        {
          "name": "_logic",
          "type": "address"
        },
        {
          "name": "_admin",
          "type": "address"
        },
        {
          "name": "_data",
          "type": "bytes"
        },
        {
          "name": "_signature",
          "type": "bytes"
        }
      ],
      "name": "deploySigned",
      "outputs": [
        {
          "name": "",
          "type": "address"
        }
      ],
      "payable": false,
      "stateMutability": "nonpayable",
      "type": "function"
    },
    {
      "constant": false,
      "inputs": [
        {
          "name": "_salt",
          "type": "uint256"
        },
        {
          "name": "_logic",
          "type": "address"
        },
        {
          "name": "_admin",
          "type": "address"
        },
        {
          "name": "_data",
          "type": "bytes"
        }
      ],
      "name": "deploy",
      "outputs": [
        {
          "name": "",
          "type": "address"
        }
      ],
      "payable": false,
      "stateMutability": "nonpayable",
      "type": "function"
    },
    {
      "constant": false,
      "inputs": [],
      "name": "renounceOwnership",
      "outputs": [],
      "payable": false,
      "stateMutability": "nonpayable",
      "type": "function"
    },
    {
      "constant": true,
      "inputs": [
        {
          "name": "_salt",
          "type": "uint256"
        },
        {
          "name": "_sender",
          "type": "address"
        }
      ],
      "name": "getDeploymentAddress",
      "outputs": [
        {
          "name": "",
          "type": "address"
        }
      ],
      "payable": false,
      "stateMutability": "view",
      "type": "function"
    },
    {
      "constant": true,
      "inputs": [],
      "name": "owner",
      "outputs": [
        {
          "name": "",
          "type": "address"
        }
      ],
      "payable": false,
      "stateMutability": "view",
      "type": "function"
    },
    {
      "constant": true,
      "inputs": [],
      "name": "isOwner",
      "outputs": [
        {
          "name": "",
          "type": "bool"
        }
      ],
      "payable": false,
      "stateMutability": "view",
      "type": "function"
    },
    {
      "constant": false,
      "inputs": [
        {
          "name": "_logic",
          "type": "address"
        },
        {
          "name": "_data",
          "type": "bytes"
        }
      ],
      "name": "deployMinimal",
      "outputs": [
        {
          "name": "proxy",
          "type": "address"
        }
      ],
      "payable": false,
      "stateMutability": "nonpayable",
      "type": "function"
    },
    {
      "constant": false,
      "inputs": [
        {
          "name": "newOwner",
          "type": "address"
        }
      ],
      "name": "transferOwnership",
      "outputs": [],
      "payable": false,
      "stateMutability": "nonpayable",
      "type": "function"
    },
    {
      "inputs": [],
      "payable": false,
      "stateMutability": "nonpayable",
      "type": "constructor"
    },
    {
      "anonymous": false,
      "inputs": [
        {
          "indexed": false,
          "name": "issue",
          "type": "address"
        },
        {
          "indexed": false,
          "name": "productReference",
          "type": "bytes32"
        },
        {
          "indexed": false,
          "name": "productCategory",
          "type": "bytes32"
        },
        {
          "indexed": false,
          "name": "issuerName",
          "type": "bytes32"
        },
        {
          "indexed": false,
          "name": "registrationDocs",
          "type": "string"
        }
      ],
      "name": "ProductIssued",
      "type": "event"
    },
    {
      "anonymous": false,
      "inputs": [
        {
          "indexed": true,
          "name": "previousOwner",
          "type": "address"
        },
        {
          "indexed": true,
          "name": "newOwner",
          "type": "address"
        }
      ],
      "name": "OwnershipTransferred",
      "type": "event"
    },
    {
      "anonymous": false,
      "inputs": [
        {
          "indexed": false,
          "name": "proxy",
          "type": "address"
        }
      ],
      "name": "ProxyCreated",
      "type": "event"
    },
    {
      "constant": false,
      "inputs": [
        {
          "name": "_client",
          "type": "address"
        },
        {
          "name": "_kyc",
          "type": "address"
        },
        {
          "name": "_securityContract",
          "type": "address"
        },
        {
          "name": "_securityRegistriesContract",
          "type": "address"
        },
        {
          "name": "_viaFactoryContract",
          "type": "address"
        },
        {
          "name": "_poolFactoryContract",
          "type": "address"
        },
        {
          "name": "_bridge",
          "type": "address"
        }
      ],
      "name": "initialize",
      "outputs": [],
      "payable": false,
      "stateMutability": "nonpayable",
      "type": "function"
    },
    {
      "constant": false,
      "inputs": [
        {
          "name": "_signer",
          "type": "address"
        }
      ],
      "name": "setSigner",
      "outputs": [],
      "payable": false,
      "stateMutability": "nonpayable",
      "type": "function"
    },
    {
      "constant": false,
      "inputs": [
        {
          "name": "_product",
          "type": "bytes32"
        },
        {
          "name": "_issuer",
          "type": "address"
        }
      ],
      "name": "registerIssuer",
      "outputs": [],
      "payable": false,
      "stateMutability": "nonpayable",
      "type": "function"
    },
    {
      "constant": false,
      "inputs": [
        {
          "name": "_productCategory",
          "type": "bytes32"
        },
        {
          "name": "_issuerName",
          "type": "bytes32"
        },
        {
          "name": "_issuerAddress",
          "type": "bytes32"
        },
        {
          "name": "_issuerCountry",
          "type": "bytes32"
        },
        {
          "name": "_issuerSignatoryEmail",
          "type": "bytes32"
        },
        {
          "name": "_arrangerName",
          "type": "bytes32"
        },
        {
          "name": "_arrangerAddress",
          "type": "bytes32"
        },
        {
          "name": "_arrangerCountry",
          "type": "bytes32"
        },
        {
          "name": "_arrangerSignatoryEmail",
          "type": "bytes32"
        },
        {
          "name": "_registrationDocuments",
          "type": "string"
        }
      ],
      "name": "recordProduct",
      "outputs": [],
      "payable": false,
      "stateMutability": "nonpayable",
      "type": "function"
    },
    {
      "constant": true,
      "inputs": [],
      "name": "getProductsForClient",
      "outputs": [
        {
          "name": "",
          "type": "bytes32[]"
        }
      ],
      "payable": false,
      "stateMutability": "view",
      "type": "function"
    },
    {
      "constant": true,
      "inputs": [],
      "name": "getIssuesForClient",
      "outputs": [
        {
          "name": "",
          "type": "address[]"
        }
      ],
      "payable": false,
      "stateMutability": "view",
      "type": "function"
    },
    {
      "constant": true,
      "inputs": [
        {
          "name": "_country",
          "type": "bytes32"
        }
      ],
      "name": "getProductsForCountry",
      "outputs": [
        {
          "name": "",
          "type": "bytes32[]"
        }
      ],
      "payable": false,
      "stateMutability": "view",
      "type": "function"
    },
    {
      "constant": true,
      "inputs": [
        {
          "name": "_country",
          "type": "bytes32"
        }
      ],
      "name": "getIssuesForCountry",
      "outputs": [
        {
          "name": "",
          "type": "address[]"
        }
      ],
      "payable": false,
      "stateMutability": "view",
      "type": "function"
    },
    {
      "constant": true,
      "inputs": [],
      "name": "getProducts",
      "outputs": [
        {
          "name": "",
          "type": "bytes32[]"
        }
      ],
      "payable": false,
      "stateMutability": "view",
      "type": "function"
    },
    {
      "constant": true,
      "inputs": [
        {
          "name": "ref",
          "type": "bytes32"
        }
      ],
      "name": "getProduct",
      "outputs": [
        {
          "components": [
            {
              "name": "productCategory",
              "type": "bytes32"
            },
            {
              "name": "issuerName",
              "type": "bytes32"
            },
            {
              "name": "issuerAddress",
              "type": "bytes32"
            },
            {
              "name": "issuerCountry",
              "type": "bytes32"
            },
            {
              "name": "issuerSignatoryEmail",
              "type": "bytes32"
            },
            {
              "name": "arrangerName",
              "type": "bytes32"
            },
            {
              "name": "arrangerAddress",
              "type": "bytes32"
            },
            {
              "name": "arrangerCountry",
              "type": "bytes32"
            },
            {
              "name": "arrangerSignatoryEmail",
              "type": "bytes32"
            },
            {
              "name": "issue",
              "type": "address"
            },
            {
              "name": "issuer",
              "type": "address"
            },
            {
              "name": "status",
              "type": "bool"
            },
            {
              "name": "issuerRegistrationCertificate",
              "type": "string"
            },
            {
              "name": "arrangerRegistrationCertificate",
              "type": "string"
            },
            {
              "name": "registrationDocuments",
              "type": "string"
            }
          ],
          "name": "",
          "type": "tuple"
        }
      ],
      "payable": false,
      "stateMutability": "view",
      "type": "function"
    },
    {
      "constant": false,
      "inputs": [
        {
          "name": "_ref",
          "type": "bytes32"
        },
        {
          "name": "_issuerCertificate",
          "type": "string"
        },
        {
          "name": "_arrangerCertificate",
          "type": "string"
        }
      ],
      "name": "registerCertificate",
      "outputs": [],
      "payable": false,
      "stateMutability": "nonpayable",
      "type": "function"
    },
    {
      "constant": true,
      "inputs": [
        {
          "name": "_ref",
          "type": "bytes32"
        }
      ],
      "name": "getCertificate",
      "outputs": [
        {
          "name": "",
          "type": "string"
        },
        {
          "name": "",
          "type": "string"
        }
      ],
      "payable": false,
      "stateMutability": "view",
      "type": "function"
    },
    {
      "constant": false,
      "inputs": [
        {
          "name": "_ref",
          "type": "bytes32"
        }
      ],
      "name": "confirmProduct",
      "outputs": [],
      "payable": false,
      "stateMutability": "nonpayable",
      "type": "function"
    },
    {
      "constant": true,
      "inputs": [
        {
          "name": "_ref",
          "type": "bytes32"
        }
      ],
      "name": "getIssue",
      "outputs": [
        {
          "name": "",
          "type": "address"
        }
      ],
      "payable": false,
      "stateMutability": "view",
      "type": "function"
    },
    {
      "constant": true,
      "inputs": [
        {
          "name": "_ref",
          "type": "bytes32"
        }
      ],
      "name": "getIssuerName",
      "outputs": [
        {
          "name": "",
          "type": "bytes32"
        }
      ],
      "payable": false,
      "stateMutability": "view",
      "type": "function"
    },
    {
      "constant": true,
      "inputs": [
        {
          "name": "_ref",
          "type": "bytes32"
        }
      ],
      "name": "getIssuerAddress",
      "outputs": [
        {
          "name": "",
          "type": "address"
        }
      ],
      "payable": false,
      "stateMutability": "view",
      "type": "function"
    },
    {
      "constant": false,
      "inputs": [
        {
          "name": "_liquidityPlatform",
          "type": "address"
        },
        {
          "name": "_hashedMessage",
          "type": "bytes32"
        },
        {
          "name": "_v",
          "type": "uint8"
        },
        {
          "name": "_r",
          "type": "bytes32"
        },
        {
          "name": "_s",
          "type": "bytes32"
        }
      ],
      "name": "registerPlatform",
      "outputs": [],
      "payable": false,
      "stateMutability": "nonpayable",
      "type": "function"
    },
    {
      "constant": true,
      "inputs": [],
      "name": "getPlatforms",
      "outputs": [
        {
          "name": "",
          "type": "address[]"
        }
      ],
      "payable": false,
      "stateMutability": "view",
      "type": "function"
    },
    {
      "constant": true,
      "inputs": [
        {
          "name": "_issuer",
          "type": "address"
        }
      ],
      "name": "checkIssue",
      "outputs": [
        {
          "name": "",
          "type": "bool"
        }
      ],
      "payable": false,
      "stateMutability": "view",
      "type": "function"
    },
    {
      "constant": true,
      "inputs": [
        {
          "name": "_issue",
          "type": "address"
        }
      ],
      "name": "checkProduct",
      "outputs": [
        {
          "name": "",
          "type": "bool"
        }
      ],
      "payable": false,
      "stateMutability": "view",
      "type": "function"
    },
    {
      "constant": true,
      "inputs": [
        {
          "name": "_issue",
          "type": "address"
        }
      ],
      "name": "getProductReference",
      "outputs": [
        {
          "name": "",
          "type": "bytes32"
        }
      ],
      "payable": false,
      "stateMutability": "view",
      "type": "function"
    }
  ],
  "bytecode": "0x60806040523480156200001157600080fd5b506040516200002360208201620000ae565b6020820181038252601f19601f8201166040525080519060200120600081905550600062000056620000aa60201b60201c565b600180546001600160a01b0319166001600160a01b038316908117909155604051919250906000907f8be0079c531659141344cd1fd0a4f28419497f9722a3daafe3b4186f6b6457e0908290a350620000bc565b3390565b6109a68062003b0283390190565b613a3680620000cc6000396000f3fe608060405234801561001057600080fd5b50600436106101da5760003560e01c806384aea92111610104578063c29b2f20116100a2578063f333fe0811610071578063f333fe08146103e4578063f4fcffa414610405578063fc3b4f5f14610418578063ff3018b11461042b576101da565b8063c29b2f20146103a3578063d3cd0963146103ab578063e6d439d1146103be578063f2fde38b146103d1576101da565b8063a4424e82116100de578063a4424e8214610357578063ab3b2ab51461036a578063aefc542b1461037d578063b3eeb5e214610390576101da565b806384aea921146103275780638da5cb5b146103475780638f32d59b1461034f576101da565b80633a20e9df1161017c5780636150864c1161014b5780636150864c146102e65780636c19e783146102f9578063715018a61461030c57806381ae1f5b14610314576101da565b80633a20e9df146102735780633ea6c82d1461029357806351073c92146102b3578063572d8299146102c6576101da565b80631fbe552e116101b85780631fbe552e14610225578063290f8f561461022d578063332d66261461024d5780633587647614610260576101da565b80630bbf1685146101df57806313eae943146101fd57806319089f7814610212575b600080fd5b6101e7610433565b6040516101f49190612dbe565b60405180910390f35b61021061020b3660046123b2565b610532565b005b610210610220366004612497565b61076d565b6101e76107cb565b61024061023b36600461270b565b61082e565b6040516101f49190612d23565b61024061025b36600461270b565b610881565b61021061026e366004612316565b6108c9565b610286610281366004612479565b61096e565b6040516101f49190612f3a565b6102a66102a13660046122f0565b610c97565b6040516101f49190612de0565b6101e76102c1366004612479565b610cc6565b6102d96102d4366004612479565b610dc5565b6040516101f49190612dee565b6102406102f4366004612692565b610dda565b6102106103073660046122f0565b610de9565b610210610f8b565b610240610322366004612497565b610ffc565b61033a610335366004612479565b611055565b6040516101f49190612dcf565b610240611149565b6102a6611158565b610240610365366004612479565b61117e565b6102d96103783660046122f0565b61119c565b6102a661038b3660046122f0565b6111b7565b61024061039e366004612427565b6111dd565b61033a6112f1565b6102106103b93660046125ed565b6113db565b6102106103cc366004612479565b6114cd565b6102106103df3660046122f0565b6117ec565b6103f76103f2366004612479565b61181f565b6040516101f4929190612ee5565b610240610413366004612479565b611a8a565b6102106104263660046124f7565b611aa8565b61033a611d35565b600b54604051600160e01b6330ccebb502815260609133916001600160a01b03909116906330ccebb59061046b908490600401612d23565b60206040518083038186803b15801561048357600080fd5b505afa158015610497573d6000803e3d6000fd5b505050506040513d601f19601f820116820180604052506104bb9190810190612674565b6003146104c757600080fd5b336000908152600660209081526040918290208054835181840281018401909452808452909183018282801561052657602002820191906000526020600020905b81546001600160a01b03168152600190910190602001808311610508575b505050505091505b5090565b6000846040516020016105459190612e91565b6040516020818303038152906040528051906020012090506000816040516020016105709190612c88565b60408051601f19818403018152828252805160209182012060125460008552939091019182905292506001600160a01b03909116906001906105b9908490899089908990612eb0565b6020604051602081039080840390855afa1580156105db573d6000803e3d6000fd5b505050602060405103516001600160a01b0316146105f857600080fd5b6001600160a01b0387166000908152600a60205260409020546107645760005b6003548110156107085760006001600160a01b0316600260006003848154811061063e57fe5b600091825260208083209091015483528201929092526040019020600901546001600160a01b03161461070057600260006003838154811061067c57fe5b600091825260208083209091015483528201929092526040908101909120600901549051600160e11b63699a07db0281526001600160a01b039091169063d3340fb6906106cd908b90600401612d23565b600060405180830381600087803b1580156106e757600080fd5b505af11580156106fb573d6000803e3d6000fd5b505050505b600101610618565b50601180546001810182557f31ecc21a745e3968a04e9570e4425bc18fa8019c68028196b546d1669c200c680180546001600160a01b0319166001600160a01b038a1690811790915590546000918252600a6020526040909120555b50505050505050565b610775611158565b61079d57604051600160e51b62461bcd02815260040161079490612f2a565b60405180910390fd5b60009182526008602052604090912080546001600160a01b0319166001600160a01b03909216919091179055565b6060601180548060200260200160405190810160405280929190818152602001828054801561082357602002820191906000526020600020905b81546001600160a01b03168152600190910190602001808311610805575b505050505090505b90565b600080610868878787873060405160200161084d959493929190612cce565b60405160208183030381529060405280519060200120611e27565b90506108748184611e57565b9150505b95945050505050565b600080610891878787878761082e565b90506001600160a01b0381166108bc57604051600160e51b62461bcd02815260040161079490612f1a565b6108748787878785611f33565b6108d1611158565b6108f057604051600160e51b62461bcd02815260040161079490612f2a565b600c80546001600160a01b03199081166001600160a01b03998a1617909155600b8054821697891697909717909655600d8054871695881695909517909455600e8054861693871693909317909255600f80548516918616919091179055601080548416918516919091179055601280549092169216919091179055565b6109766120fd565b600b54604051600160e01b6330ccebb502815233916001600160a01b0316906330ccebb5906109a9908490600401612d23565b60206040518083038186803b1580156109c157600080fd5b505afa1580156109d5573d6000803e3d6000fd5b505050506040513d601f19601f820116820180604052506109f99190810190612674565b600314610a0557600080fd5b610a0d6120fd565b604080516101e081018252600086815260026020818152848320805485526001808201548387015281840154868801526003820154606087015260048201546080870152600582015460a0870152600682015460c0870152600782015460e087015260088201546101008088019190915260098301546001600160a01b03908116610120890152600a840154908116610140890152600160a01b900460ff161515610160880152948b9052838352600b90910180548751928116159095026000190190941692909204601f81018290048202830182019095528482529293610180850193919291830182828015610b455780601f10610b1a57610100808354040283529160200191610b45565b820191906000526020600020905b815481529060010190602001808311610b2857829003601f168201915b5050509183525050600086815260026020818152604092839020600c01805484516001821615610100026000190190911693909304601f810183900483028401830190945283835293810193919290830182828015610be55780601f10610bba57610100808354040283529160200191610be5565b820191906000526020600020905b815481529060010190602001808311610bc857829003601f168201915b5050509183525050600086815260026020818152604092839020600d01805484516001821615610100026000190190911693909304601f810183900483028401830190945283835293810193919290830182828015610c855780601f10610c5a57610100808354040283529160200191610c85565b820191906000526020600020905b815481529060010190602001808311610c6857829003601f168201915b50505091909252509095945050505050565b6001600160a01b03811660009081526009602052604081205415610cbd57506001610cc1565b5060005b919050565b600b54604051600160e01b6330ccebb502815260609133916001600160a01b03909116906330ccebb590610cfe908490600401612d23565b60206040518083038186803b158015610d1657600080fd5b505afa158015610d2a573d6000803e3d6000fd5b505050506040513d601f19601f82011682018060405250610d4e9190810190612674565b600314610d5a57600080fd5b60008381526007602090815260409182902080548351818402810184019094528084529091830182828015610db857602002820191906000526020600020905b81546001600160a01b03168152600190910190602001808311610d9a575b5050505050915050919050565b60009081526002602052604090206001015490565b60006108788585858533611f33565b610df1611158565b610e1057604051600160e51b62461bcd02815260040161079490612f2a565b60005b600354811015610f685760005b600660006002600060038681548110610e3557fe5b600091825260208083209091015483528281019390935260409182018120600a01546001600160a01b03168452918301939093529101902054811015610f5f57600660006002600060038681548110610e8a57fe5b90600052602060002001548152602001908152602001600020600a0160009054906101000a90046001600160a01b03166001600160a01b03166001600160a01b031681526020019081526020016000208181548110610ee557fe5b600091825260209091200154604051600160e01b636c19e7830281526001600160a01b0390911690636c19e78390610f21908690600401612d23565b600060405180830381600087803b158015610f3b57600080fd5b505af1158015610f4f573d6000803e3d6000fd5b505060019092019150610e209050565b50600101610e13565b50601280546001600160a01b0319166001600160a01b0392909216919091179055565b610f93611158565b610fb257604051600160e51b62461bcd02815260040161079490612f2a565b6001546040516000916001600160a01b0316907f8be0079c531659141344cd1fd0a4f28419497f9722a3daafe3b4186f6b6457e0908390a3600180546001600160a01b0319169055565b6000806110098484611fe8565b9050600060ff60f81b308360005460405160200161102a9493929190612c34565b604051602081830303815290604052805190602001209050606081901b60601c925050505b92915050565b600b54604051600160e01b6330ccebb502815260609133916001600160a01b03909116906330ccebb59061108d908490600401612d23565b60206040518083038186803b1580156110a557600080fd5b505afa1580156110b9573d6000803e3d6000fd5b505050506040513d601f19601f820116820180604052506110dd9190810190612674565b6003146110e957600080fd5b60008381526005602090815260409182902080548351818402810184019094528084529091830182828015610db857602002820191906000526020600020905b815481526020019060010190808311611129575050505050915050919050565b6001546001600160a01b031690565b6001546000906001600160a01b031661116f61201b565b6001600160a01b031614905090565b6000908152600260205260409020600a01546001600160a01b031690565b6001600160a01b031660009081526009602052604090205490565b6001600160a01b03811660009081526004602052604081205415610cbd57506001610cc1565b6000808360601b90506040517f3d602d80600a3d3981f3363d3d373d3d3d363d7300000000000000000000000081528160148201527f5af43d82803e903d91602b57fd5bf3000000000000000000000000000000000060288201526037816000f09250507efffc2da0b561cae30d9826d37709e9421c4725faebc226cbbb7ef5fc5e73498260405161126f9190612d23565b60405180910390a18251156112ea576000826001600160a01b0316846040516112989190612c7c565b6000604051808303816000865af19150503d80600081146112d5576040519150601f19603f3d011682016040523d82523d6000602084013e6112da565b606091505b50509050806112e857600080fd5b505b5092915050565b600b54604051600160e01b6330ccebb502815260609133916001600160a01b03909116906330ccebb590611329908490600401612d23565b60206040518083038186803b15801561134157600080fd5b505afa158015611355573d6000803e3d6000fd5b505050506040513d601f19601f820116820180604052506113799190810190612674565b60031461138557600080fd5b600380548060200260200160405190810160405280929190818152602001828054801561052657602002820191906000526020600020905b8154815260200190600101908083116113bd57505050505091505090565b600b54604051600160e01b6330ccebb502815233916001600160a01b0316906330ccebb59061140e908490600401612d23565b60206040518083038186803b15801561142657600080fd5b505afa15801561143a573d6000803e3d6000fd5b505050506040513d601f19601f8201168201806040525061145e9190810190612674565b60031461146a57600080fd5b6000868152600260205260409020600a01546001600160a01b03163314156114c55760008681526002602052604090206114a890600b01868661217b565b50600086815260026020526040902061076490600c01848461217b565b505050505050565b600b54604051600160e01b6330ccebb502815233916001600160a01b0316906330ccebb590611500908490600401612d23565b60206040518083038186803b15801561151857600080fd5b505afa15801561152c573d6000803e3d6000fd5b505050506040513d601f19601f820116820180604052506115509190810190612674565b60031461155c57600080fd5b600c54604051600160e01b63442767330281526000916001600160a01b031690634427673390611590903390600401612d31565b604080518083038186803b1580156115a757600080fd5b505afa1580156115bb573d6000803e3d6000fd5b505050506040513d601f19601f820116820180604052506115df91908101906124c7565b50905080600160f41b61044502146115f657600080fd5b60008381526002602052604090208054600a9091015460609185916001600160a01b031633611623611149565b600d54600e54600f5460105460125460405161165d9a99989796956001600160a01b03908116958116948116938116921690602401612dfc565b60408051601f19818403018152918152602080830180516001600160e01b0316600160e21b6321acbd1b02179052600087815260028252828120548152600890915290812054919250906116ba906001600160a01b0316836111dd565b6000868152600260208181526040808420600a8101546001600160a01b039081168652600684528286208054600181810183559188528588200180549289166001600160a01b031993841681179091556003840154885260078652848820805480840182559089528689200180549093168117909255908652600984528286208c9055948b90529290915281549282015490519394507fecc233ca6ab141df9617dad6c35a7d951c5175568e3af78b51b6e0584500994d936117879386938b939192600d90910190612d6c565b60405180910390a1600094855260026020526040909420600a8101805474ff00000000000000000000000000000000000000001916600160a01b17905560090180546001600160a01b039095166001600160a01b031990951694909417909355505050565b6117f4611158565b61181357604051600160e51b62461bcd02815260040161079490612f2a565b61181c8161201f565b50565b600b54604051600160e01b6330ccebb5028152606091829133916001600160a01b0316906330ccebb590611857908490600401612d23565b60206040518083038186803b15801561186f57600080fd5b505afa158015611883573d6000803e3d6000fd5b505050506040513d601f19601f820116820180604052506118a79190810190612674565b6003146118b357600080fd5b600c54604051600160e01b63442767330281526000916001600160a01b0316906344276733906118e7903390600401612d31565b604080518083038186803b1580156118fe57600080fd5b505afa158015611912573d6000803e3d6000fd5b505050506040513d601f19601f8201168201806040525061193691908101906124c7565b50905080600160f41b610445021461194d57600080fd5b600085815260026020818152604092839020600b8101805485516001821615610100026000190190911694909404601f810184900484028501840190955284845293600c90910192918491908301828280156119ea5780601f106119bf576101008083540402835291602001916119ea565b820191906000526020600020905b8154815290600101906020018083116119cd57829003601f168201915b5050845460408051602060026001851615610100026000190190941693909304601f810184900484028201840190925281815295975086945092508401905082828015611a785780601f10611a4d57610100808354040283529160200191611a78565b820191906000526020600020905b815481529060010190602001808311611a5b57829003601f168201915b50505050509050935093505050915091565b6000908152600260205260409020600901546001600160a01b031690565b600b54604051600160e01b6330ccebb502815233916001600160a01b0316906330ccebb590611adb908490600401612d23565b60206040518083038186803b158015611af357600080fd5b505afa158015611b07573d6000803e3d6000fd5b505050506040513d601f19601f82011682018060405250611b2b9190810190612674565b600314611b3757600080fd5b60008c8152600860205260409020546001600160a01b0316611b5857600080fd5b60003342604051602001611b6d929190612c0e565b60405160208183030381529060405280519060200120905060038190806001815401808255809150509060018203906000526020600020016000909192909190915055508c60026000838152602001908152602001600020600001819055508b60026000838152602001908152602001600020600101819055508a6002600083815260200190815260200160002060020181905550896002600083815260200190815260200160002060030181905550886002600083815260200190815260200160002060040181905550876002600083815260200190815260200160002060050181905550866002600083815260200190815260200160002060060181905550856002600083815260200190815260200160002060070181905550846002600083815260200190815260200160002060080181905550838360026000848152602001908152602001600020600d019190611cc992919061217b565b506000818152600260209081526040808320600a0180546001600160a01b03191633908117909155835260048252808320805460018181018355918552838520018590559c835260058252822080549c8d01815582529020909901989098555050505050505050505050565b600b54604051600160e01b6330ccebb502815260609133916001600160a01b03909116906330ccebb590611d6d908490600401612d23565b60206040518083038186803b158015611d8557600080fd5b505afa158015611d99573d6000803e3d6000fd5b505050506040513d601f19601f82011682018060405250611dbd9190810190612674565b600314611dc957600080fd5b336000908152600460209081526040918290208054835181840281018401909452808452909183018282801561052657602002820191906000526020600020908154815260200190600101908083116113bd57505050505091505090565b600081604051602001611e3a9190612c88565b604051602081830303815290604052805190602001209050919050565b60008151604114611e6a5750600061104f565b60208201516040830151606084015160001a7f7fffffffffffffffffffffffffffffff5d576e7357a4501ddfe92f46681b20a0821115611eb0576000935050505061104f565b8060ff16601b14158015611ec857508060ff16601c14155b15611ed9576000935050505061104f565b60018682858560405160008152602001604052604051611efc9493929190612eb0565b6020604051602081039080840390855afa158015611f1e573d6000803e3d6000fd5b5050604051601f190151979650505050505050565b600080611f4087846120a4565b90507efffc2da0b561cae30d9826d37709e9421c4725faebc226cbbb7ef5fc5e734981604051611f709190612d31565b60405180910390a1604051600160e01b63cf7a1d770281526001600160a01b0382169063cf7a1d7790611fab90899089908990600401612d3f565b600060405180830381600087803b158015611fc557600080fd5b505af1158015611fd9573d6000803e3d6000fd5b50929998505050505050505050565b60008282604051602001611ffd929190612ca8565b60405160208183030381529060405280519060200120905092915050565b3390565b6001600160a01b03811661204857604051600160e51b62461bcd02815260040161079490612f0a565b6001546040516001600160a01b038084169216907f8be0079c531659141344cd1fd0a4f28419497f9722a3daafe3b4186f6b6457e090600090a3600180546001600160a01b0319166001600160a01b0392909216919091179055565b6000806060604051806020016120b9906121f5565b601f1982820381018352601f90910116604052905060006120da8686611fe8565b9050808251602084016000f59250823b6120f357600080fd5b5090949350505050565b604080516101e08101825260008082526020820181905291810182905260608082018390526080820183905260a0820183905260c0820183905260e0820183905261010082018390526101208201839052610140820183905261016082019290925261018081018290526101a081018290526101c081019190915290565b828054600181600116156101000203166002900490600052602060002090601f016020900481019282601f106121bc5782800160ff198235161785556121e9565b828001600101855582156121e9579182015b828111156121e95782358255916020019190600101906121ce565b5061052e929150612202565b6109a68061305783390190565b61082b91905b8082111561052e5760008155600101612208565b60006122288235612fb9565b9392505050565b6000612228823561082b565b6000612228825161082b565b600082601f83011261225857600080fd5b813561226b61226682612f72565b612f4b565b9150808252602083016020830185838301111561228757600080fd5b612292838284612ff9565b50505092915050565b60008083601f8401126122ad57600080fd5b50813567ffffffffffffffff8111156122c557600080fd5b6020830191508360018202830111156122dd57600080fd5b9250929050565b60006122288235612fe2565b60006020828403121561230257600080fd5b600061230e848461221c565b949350505050565b600080600080600080600060e0888a03121561233157600080fd5b600061233d8a8a61221c565b975050602061234e8a828b0161221c565b965050604061235f8a828b0161221c565b95505060606123708a828b0161221c565b94505060806123818a828b0161221c565b93505060a06123928a828b0161221c565b92505060c06123a38a828b0161221c565b91505092959891949750929550565b600080600080600060a086880312156123ca57600080fd5b60006123d6888861221c565b95505060206123e78882890161222f565b94505060406123f8888289016122e4565b93505060606124098882890161222f565b925050608061241a8882890161222f565b9150509295509295909350565b6000806040838503121561243a57600080fd5b6000612446858561221c565b925050602083013567ffffffffffffffff81111561246357600080fd5b61246f85828601612247565b9150509250929050565b60006020828403121561248b57600080fd5b600061230e848461222f565b600080604083850312156124aa57600080fd5b60006124b6858561222f565b925050602061246f8582860161221c565b600080604083850312156124da57600080fd5b60006124e6858561223b565b925050602061246f8582860161223b565b60008060008060008060008060008060006101408c8e03121561251957600080fd5b60006125258e8e61222f565b9b505060206125368e828f0161222f565b9a505060406125478e828f0161222f565b99505060606125588e828f0161222f565b98505060806125698e828f0161222f565b97505060a061257a8e828f0161222f565b96505060c061258b8e828f0161222f565b95505060e061259c8e828f0161222f565b9450506101006125ae8e828f0161222f565b9350506101208c013567ffffffffffffffff8111156125cc57600080fd5b6125d88e828f0161229b565b92509250509295989b509295989b9093969950565b60008060008060006060868803121561260557600080fd5b6000612611888861222f565b955050602086013567ffffffffffffffff81111561262e57600080fd5b61263a8882890161229b565b9450945050604086013567ffffffffffffffff81111561265957600080fd5b6126658882890161229b565b92509250509295509295909350565b60006020828403121561268657600080fd5b600061230e848461223b565b600080600080608085870312156126a857600080fd5b60006126b4878761222f565b94505060206126c58782880161221c565b93505060406126d68782880161221c565b925050606085013567ffffffffffffffff8111156126f357600080fd5b6126ff87828801612247565b91505092959194509250565b600080600080600060a0868803121561272357600080fd5b600061272f888861222f565b95505060206127408882890161221c565b94505060406127518882890161221c565b935050606086013567ffffffffffffffff81111561276e57600080fd5b61277a88828901612247565b925050608086013567ffffffffffffffff81111561279757600080fd5b61241a88828901612247565b60006127af83836127d2565b505060200190565b60006127af83836128a6565b6127cc81612fe8565b82525050565b6127cc81612fb9565b6127cc6127e782612fb9565b613035565b60006127f782612fac565b6128018185612fb0565b935061280c83612f9a565b60005b82811015612837576128228683516127a3565b955061282d82612f9a565b915060010161280f565b5093949350505050565b600061284c82612fac565b6128568185612fb0565b935061286183612f9a565b60005b82811015612837576128778683516127b7565b955061288282612f9a565b9150600101612864565b6127cc81612fc4565b6127cc6128a182612fc9565b61082b565b6127cc8161082b565b6127cc6128a18261082b565b60006128c682612fac565b6128d08185612fb0565b93506128e0818560208601613005565b6128e981613046565b9093019392505050565b60006128fe82612fac565b6129088185610cc1565b9350612918818560208601613005565b9290920192915050565b60008154600181166000811461293f5760018114612965576112e8565b607f60028304166129508187612fb0565b60ff19841681529550506020850192506112e8565b600282046129738187612fb0565b955061297e85612fa0565b60005b8281101561299d57815488820152600190910190602001612981565b9096019695505050505050565b60006129b7601c83610cc1565b7f19457468657265756d205369676e6564204d6573736167653a0a3332000000008152601c0192915050565b60006129f0602683612fb0565b7f4f776e61626c653a206e6577206f776e657220697320746865207a65726f20618152600160d01b6564647265737302602082015260400192915050565b6000612a3b601183612fb0565b7f496e76616c6964207369676e6174757265000000000000000000000000000000815260200192915050565b6000612a74602083612fb0565b7f4f776e61626c653a2063616c6c6572206973206e6f7420746865206f776e6572815260200192915050565b6000612aad600683612fb0565b600160d01b654c32746f4c3102815260200192915050565b80516000906101e0840190612ada85826128a6565b506020830151612aed60208601826128a6565b506040830151612b0060408601826128a6565b506060830151612b1360608601826128a6565b506080830151612b2660808601826128a6565b5060a0830151612b3960a08601826128a6565b5060c0830151612b4c60c08601826128a6565b5060e0830151612b5f60e08601826128a6565b50610100830151612b746101008601826128a6565b50610120830151612b896101208601826127d2565b50610140830151612b9e6101408601826127d2565b50610160830151612bb361016086018261288c565b50610180830151848203610180860152612bcd82826128bb565b9150506101a08301518482036101a0860152612be982826128bb565b9150506101c08301518482036101c086015261087882826128bb565b6127cc81612fe2565b6000612c1a82856127db565b601482019150612c2a82846128af565b5060200192915050565b6000612c408287612895565b600182019150612c5082866127db565b601482019150612c6082856128af565b602082019150612c7082846128af565b50602001949350505050565b600061222882846128f3565b6000612c93826129aa565b9150612c9f82846128af565b50602001919050565b6000612cb482856128af565b602082019150612cc482846127db565b5060140192915050565b6000612cda82886128af565b602082019150612cea82876127db565b601482019150612cfa82866127db565b601482019150612d0a82856128f3565b9150612d1682846127db565b5060140195945050505050565b6020810161104f82846127d2565b6020810161104f82846127c3565b60608101612d4d82866127d2565b612d5a60208301856127d2565b818103604083015261087881846128bb565b60a08101612d7a82886127d2565b612d8760208301876128a6565b612d9460408301866128a6565b612da160608301856128a6565b8181036080830152612db38184612922565b979650505050505050565b6020808252810161222881846127ec565b602080825281016122288184612841565b6020810161104f828461288c565b6020810161104f82846128a6565b6101408101612e0b828d6128a6565b612e18602083018c6128a6565b612e25604083018b6127d2565b612e32606083018a6127d2565b612e3f60808301896127d2565b612e4c60a08301886127d2565b612e5960c08301876127d2565b612e6660e08301866127d2565b612e746101008301856127d2565b612e826101208301846127d2565b9b9a5050505050505050505050565b60408101612e9f82846128a6565b818103602083015261222881612aa0565b60808101612ebe82876128a6565b612ecb6020830186612c05565b612ed860408301856128a6565b61087860608301846128a6565b60408082528101612ef681856128bb565b9050818103602083015261230e81846128bb565b6020808252810161104f816129e3565b6020808252810161104f81612a2e565b6020808252810161104f81612a67565b602080825281016122288184612ac5565b60405181810167ffffffffffffffff81118282101715612f6a57600080fd5b604052919050565b600067ffffffffffffffff821115612f8957600080fd5b506020601f91909101601f19160190565b60200190565b60009081526020902090565b5190565b90815260200190565b600061104f82612fd6565b151590565b6001600160f81b03191690565b6001600160a01b031690565b60ff1690565b600061104f82600061104f82612fb9565b82818337506000910152565b60005b83811015613020578181015183820152602001613008565b8381111561302f576000848401525b50505050565b600061104f82600061104f82613050565b601f01601f191690565b60601b9056fe608060405234801561001057600080fd5b50610986806100206000396000f3fe6080604052600436106100705760003560e01c80638f2839701161004e5780638f2839701461015e578063cf7a1d7714610191578063d1f5789414610250578063f851a4401461030657610070565b80633659cfe61461007a5780634f1ef286146100ad5780635c60da1b1461012d575b61007861031b565b005b34801561008657600080fd5b506100786004803603602081101561009d57600080fd5b50356001600160a01b0316610335565b610078600480360360408110156100c357600080fd5b6001600160a01b0382351691908101906040810160208201356401000000008111156100ee57600080fd5b82018360208201111561010057600080fd5b8035906020019184600183028401116401000000008311171561012257600080fd5b50909250905061036f565b34801561013957600080fd5b5061014261041c565b604080516001600160a01b039092168252519081900360200190f35b34801561016a57600080fd5b506100786004803603602081101561018157600080fd5b50356001600160a01b0316610459565b610078600480360360608110156101a757600080fd5b6001600160a01b0382358116926020810135909116918101906060810160408201356401000000008111156101db57600080fd5b8201836020820111156101ed57600080fd5b8035906020019184600183028401116401000000008311171561020f57600080fd5b91908080601f016020809104026020016040519081016040528093929190818152602001838380828437600092019190915250929550610516945050505050565b6100786004803603604081101561026657600080fd5b6001600160a01b03823516919081019060408101602082013564010000000081111561029157600080fd5b8201836020820111156102a357600080fd5b803590602001918460018302840111640100000000831117156102c557600080fd5b91908080601f0160208091040260200160405190810160405280939291908181526020018383808284376000920191909152509295506105a6945050505050565b34801561031257600080fd5b506101426106e6565b610323610711565b61033361032e610774565b610799565b565b61033d6107bd565b6001600160a01b0316336001600160a01b031614156103645761035f816107e2565b61036c565b61036c61031b565b50565b6103776107bd565b6001600160a01b0316336001600160a01b0316141561040f57610399836107e2565b6000836001600160a01b031683836040518083838082843760405192019450600093509091505080830381855af49150503d80600081146103f6576040519150601f19603f3d011682016040523d82523d6000602084013e6103fb565b606091505b505090508061040957600080fd5b50610417565b61041761031b565b505050565b60006104266107bd565b6001600160a01b0316336001600160a01b0316141561044e57610447610774565b9050610456565b61045661031b565b90565b6104616107bd565b6001600160a01b0316336001600160a01b03161415610364576001600160a01b0381166104c257604051600160e51b62461bcd0281526004018080602001828103825260368152602001806108ea6036913960400191505060405180910390fd5b7f7e644d79422f17c01e4894b5f4f588d331ebfa28653d42ae832dc59e38c9798f6104eb6107bd565b604080516001600160a01b03928316815291841660208301528051918290030190a161035f81610822565b6000610520610774565b6001600160a01b03161461053357600080fd5b61053d83826105a6565b604080517f656970313936372e70726f78792e61646d696e00000000000000000000000000815290519081900360130190207fb53127684a568b3173ae13b9f8a6016e243e63b6e8ee1178d6a717850b5d61036000199091011461059d57fe5b61041782610822565b60006105b0610774565b6001600160a01b0316146105c357600080fd5b604080517f656970313936372e70726f78792e696d706c656d656e746174696f6e000000008152905190819003601c0190207f360894a13ba1a3210667c828492db98dca3e2076cc3735a920a3ca505d382bbc6000199091011461062357fe5b61062c82610846565b8051156106e2576000826001600160a01b0316826040518082805190602001908083835b6020831061066f5780518252601f199092019160209182019101610650565b6001836020036101000a038019825116818451168082178552505050505050905001915050600060405180830381855af49150503d80600081146106cf576040519150601f19603f3d011682016040523d82523d6000602084013e6106d4565b606091505b505090508061041757600080fd5b5050565b60006106f06107bd565b6001600160a01b0316336001600160a01b0316141561044e576104476107bd565b6107196107bd565b6001600160a01b0316336001600160a01b0316141561076c57604051600160e51b62461bcd0281526004018080602001828103825260328152602001806108b86032913960400191505060405180910390fd5b610333610333565b7f360894a13ba1a3210667c828492db98dca3e2076cc3735a920a3ca505d382bbc5490565b3660008037600080366000845af43d6000803e8080156107b8573d6000f35b3d6000fd5b7fb53127684a568b3173ae13b9f8a6016e243e63b6e8ee1178d6a717850b5d61035490565b6107eb81610846565b6040516001600160a01b038216907fbc7cd75a20ee27fd9adebab32041f755214dbc6bffa90cc0225b39da2e5c2d3b90600090a250565b7fb53127684a568b3173ae13b9f8a6016e243e63b6e8ee1178d6a717850b5d610355565b61084f816108b1565b61088d57604051600160e51b62461bcd02815260040180806020018281038252603b815260200180610920603b913960400191505060405180910390fd5b7f360894a13ba1a3210667c828492db98dca3e2076cc3735a920a3ca505d382bbc55565b3b15159056fe43616e6e6f742063616c6c2066616c6c6261636b2066756e6374696f6e2066726f6d207468652070726f78792061646d696e43616e6e6f74206368616e6765207468652061646d696e206f6620612070726f787920746f20746865207a65726f206164647265737343616e6e6f742073657420612070726f787920696d706c656d656e746174696f6e20746f2061206e6f6e2d636f6e74726163742061646472657373a165627a7a72305820acd86240912c703ba88ccefef3db77e88d3507353c7c194b0b27eed571ae96c90029a265627a7a7230582082415288cb7d6e5b16f861403a04b8bb602d9cf5fde515837eb01e01354f6bf26c6578706572696d656e74616cf50037608060405234801561001057600080fd5b50610986806100206000396000f3fe6080604052600436106100705760003560e01c80638f2839701161004e5780638f2839701461015e578063cf7a1d7714610191578063d1f5789414610250578063f851a4401461030657610070565b80633659cfe61461007a5780634f1ef286146100ad5780635c60da1b1461012d575b61007861031b565b005b34801561008657600080fd5b506100786004803603602081101561009d57600080fd5b50356001600160a01b0316610335565b610078600480360360408110156100c357600080fd5b6001600160a01b0382351691908101906040810160208201356401000000008111156100ee57600080fd5b82018360208201111561010057600080fd5b8035906020019184600183028401116401000000008311171561012257600080fd5b50909250905061036f565b34801561013957600080fd5b5061014261041c565b604080516001600160a01b039092168252519081900360200190f35b34801561016a57600080fd5b506100786004803603602081101561018157600080fd5b50356001600160a01b0316610459565b610078600480360360608110156101a757600080fd5b6001600160a01b0382358116926020810135909116918101906060810160408201356401000000008111156101db57600080fd5b8201836020820111156101ed57600080fd5b8035906020019184600183028401116401000000008311171561020f57600080fd5b91908080601f016020809104026020016040519081016040528093929190818152602001838380828437600092019190915250929550610516945050505050565b6100786004803603604081101561026657600080fd5b6001600160a01b03823516919081019060408101602082013564010000000081111561029157600080fd5b8201836020820111156102a357600080fd5b803590602001918460018302840111640100000000831117156102c557600080fd5b91908080601f0160208091040260200160405190810160405280939291908181526020018383808284376000920191909152509295506105a6945050505050565b34801561031257600080fd5b506101426106e6565b610323610711565b61033361032e610774565b610799565b565b61033d6107bd565b6001600160a01b0316336001600160a01b031614156103645761035f816107e2565b61036c565b61036c61031b565b50565b6103776107bd565b6001600160a01b0316336001600160a01b0316141561040f57610399836107e2565b6000836001600160a01b031683836040518083838082843760405192019450600093509091505080830381855af49150503d80600081146103f6576040519150601f19603f3d011682016040523d82523d6000602084013e6103fb565b606091505b505090508061040957600080fd5b50610417565b61041761031b565b505050565b60006104266107bd565b6001600160a01b0316336001600160a01b0316141561044e57610447610774565b9050610456565b61045661031b565b90565b6104616107bd565b6001600160a01b0316336001600160a01b03161415610364576001600160a01b0381166104c257604051600160e51b62461bcd0281526004018080602001828103825260368152602001806108ea6036913960400191505060405180910390fd5b7f7e644d79422f17c01e4894b5f4f588d331ebfa28653d42ae832dc59e38c9798f6104eb6107bd565b604080516001600160a01b03928316815291841660208301528051918290030190a161035f81610822565b6000610520610774565b6001600160a01b03161461053357600080fd5b61053d83826105a6565b604080517f656970313936372e70726f78792e61646d696e00000000000000000000000000815290519081900360130190207fb53127684a568b3173ae13b9f8a6016e243e63b6e8ee1178d6a717850b5d61036000199091011461059d57fe5b61041782610822565b60006105b0610774565b6001600160a01b0316146105c357600080fd5b604080517f656970313936372e70726f78792e696d706c656d656e746174696f6e000000008152905190819003601c0190207f360894a13ba1a3210667c828492db98dca3e2076cc3735a920a3ca505d382bbc6000199091011461062357fe5b61062c82610846565b8051156106e2576000826001600160a01b0316826040518082805190602001908083835b6020831061066f5780518252601f199092019160209182019101610650565b6001836020036101000a038019825116818451168082178552505050505050905001915050600060405180830381855af49150503d80600081146106cf576040519150601f19603f3d011682016040523d82523d6000602084013e6106d4565b606091505b505090508061041757600080fd5b5050565b60006106f06107bd565b6001600160a01b0316336001600160a01b0316141561044e576104476107bd565b6107196107bd565b6001600160a01b0316336001600160a01b0316141561076c57604051600160e51b62461bcd0281526004018080602001828103825260328152602001806108b86032913960400191505060405180910390fd5b610333610333565b7f360894a13ba1a3210667c828492db98dca3e2076cc3735a920a3ca505d382bbc5490565b3660008037600080366000845af43d6000803e8080156107b8573d6000f35b3d6000fd5b7fb53127684a568b3173ae13b9f8a6016e243e63b6e8ee1178d6a717850b5d61035490565b6107eb81610846565b6040516001600160a01b038216907fbc7cd75a20ee27fd9adebab32041f755214dbc6bffa90cc0225b39da2e5c2d3b90600090a250565b7fb53127684a568b3173ae13b9f8a6016e243e63b6e8ee1178d6a717850b5d610355565b61084f816108b1565b61088d57604051600160e51b62461bcd02815260040180806020018281038252603b815260200180610920603b913960400191505060405180910390fd5b7f360894a13ba1a3210667c828492db98dca3e2076cc3735a920a3ca505d382bbc55565b3b15159056fe43616e6e6f742063616c6c2066616c6c6261636b2066756e6374696f6e2066726f6d207468652070726f78792061646d696e43616e6e6f74206368616e6765207468652061646d696e206f6620612070726f787920746f20746865207a65726f206164647265737343616e6e6f742073657420612070726f787920696d706c656d656e746174696f6e20746f2061206e6f6e2d636f6e74726163742061646472657373a165627a7a72305820acd86240912c703ba88ccefef3db77e88d3507353c7c194b0b27eed571ae96c90029",
  "source": "// Verified financial products\r\n// Define products, accepts issuing documentation for registrar, create issues of products\r\n// (c) Kallol Borah, Verified Network, 2021\r\n\r\npragma solidity 0.5.7;\r\npragma experimental ABIEncoderV2;\r\n\r\nimport \"./interfaces/VerifiedKYC.sol\";\r\nimport \"./interfaces/VerifiedClient.sol\";\r\nimport \"./interfaces/VerifiedIssues.sol\";\r\nimport \"./interfaces/VerifiedProducts.sol\";\r\nimport \"@openzeppelin/contracts/ownership/Ownable.sol\";\r\nimport \"@openzeppelin/upgrades/contracts/upgradeability/ProxyFactory.sol\";\r\n\r\ncontract Products is VerifiedProducts, ProxyFactory, Ownable {\r\n\r\n    //mapping of registration reference to registration record\r\n    mapping(bytes32 => product) private registrations;\r\n\r\n    //array of registration requests\r\n    bytes32[] regRefs;\r\n\r\n    //mapping issuer to products\r\n    mapping(address => bytes32[]) private productsRegistered;\r\n\r\n    //mapping country to registered products\r\n    mapping(bytes32 => bytes32[]) private productsRegisteredByCountry;\r\n\r\n    //mapping issuer to issues\r\n    mapping(address => address[]) private productsIssued;\r\n\r\n    //mapping country to issued products\r\n    mapping(bytes32 => address[]) private productsIssuedByCountry;\r\n\r\n    //mapping product category to issuer contract\r\n    mapping(bytes32 => address) private productIssuer;\r\n\r\n    //mapping product issued to product reference\r\n    mapping(address => bytes32) private issues;\r\n\r\n    //mapping platform to index\r\n    mapping(address => uint256) private platformIndex;\r\n\r\n    address kyc;\r\n    address client;\r\n    address securityContract;\r\n    address securityRegistriesContract;\r\n    address viaFactoryContract;\r\n    address poolFactoryContract;\r\n    address[] platforms;\r\n    address bridge;\r\n\r\n    event ProductIssued(address issue, \r\n                        bytes32 productReference, \r\n                        bytes32 productCategory, \r\n                        bytes32 issuerName, \r\n                        string registrationDocs\r\n                        );\r\n\r\n    modifier onlyClient(address sender){\r\n        require(VerifiedKYC(kyc).getStatus(sender)==3);\r\n        _;\r\n    }\r\n\r\n    constructor() public Ownable() {\t\r\n    }\r\n\r\n    function initialize(address _client, address _kyc, address _securityContract, \r\n                        address _securityRegistriesContract, address _viaFactoryContract,\r\n                        address _poolFactoryContract, address _bridge) public onlyOwner{\r\n        client = _client;\r\n        kyc = _kyc;\r\n        securityContract = _securityContract;\r\n        securityRegistriesContract = _securityRegistriesContract;\r\n        viaFactoryContract = _viaFactoryContract;\r\n        poolFactoryContract = _poolFactoryContract;\r\n        bridge = _bridge;\r\n    }\r\n\r\n    function setSigner(address _signer) onlyOwner external{\r\n        for(uint256 i=0; i<regRefs.length; i++){\r\n            for(uint256 j=0; j<productsIssued[registrations[regRefs[i]].issuer].length; j++){\r\n                VerifiedProducts(productsIssued[registrations[regRefs[i]].issuer][j]).setSigner(_signer);\r\n            }\r\n        }\r\n        bridge = _signer;\r\n    }\r\n    \r\n    function registerIssuer(bytes32 _product, address _issuer) onlyOwner external {\r\n        productIssuer[_product]=_issuer;\r\n    }\r\n\r\n    function recordProduct( bytes32 _productCategory,\r\n                            bytes32 _issuerName,\r\n                            bytes32 _issuerAddress,\r\n                            bytes32 _issuerCountry,\r\n                            bytes32 _issuerSignatoryEmail,\r\n                            bytes32 _arrangerName,\r\n                            bytes32 _arrangerAddress,\r\n                            bytes32 _arrangerCountry,\r\n                            bytes32 _arrangerSignatoryEmail,\r\n                            string calldata _registrationDocuments\r\n                            ) onlyClient(msg.sender) external{        \r\n        require(productIssuer[_productCategory]!=address(0x0));\r\n        bytes32 ref = keccak256(abi.encodePacked(msg.sender, now));\r\n        regRefs.push(ref);\r\n        registrations[ref].productCategory = _productCategory;\r\n        registrations[ref].issuerName = _issuerName;\r\n        registrations[ref].issuerAddress = _issuerAddress;\r\n        registrations[ref].issuerCountry = _issuerCountry;\r\n        registrations[ref].issuerSignatoryEmail = _issuerSignatoryEmail;\r\n        registrations[ref].arrangerName = _arrangerName;\r\n        registrations[ref].arrangerAddress = _arrangerAddress;\r\n        registrations[ref].arrangerCountry = _arrangerCountry;\r\n        registrations[ref].arrangerSignatoryEmail = _arrangerSignatoryEmail;\r\n        registrations[ref].registrationDocuments = _registrationDocuments;\r\n        registrations[ref].issuer = msg.sender;\r\n        productsRegistered[msg.sender].push(ref);\r\n        productsRegisteredByCountry[_issuerCountry].push(ref);\r\n    }\r\n\r\n    function getProductsForClient() onlyClient(msg.sender) external view returns(bytes32[] memory){\r\n        return productsRegistered[msg.sender];\r\n    }\r\n\r\n    function getIssuesForClient() onlyClient(msg.sender) external view returns(address[] memory){\r\n        return productsIssued[msg.sender];\r\n    }\r\n\r\n    function getProductsForCountry(bytes32 _country) onlyClient(msg.sender) external view returns(bytes32[] memory){\r\n        return productsRegisteredByCountry[_country];\r\n    }\r\n\r\n    function getIssuesForCountry(bytes32 _country) onlyClient(msg.sender) external view returns(address[] memory){\r\n        return productsIssuedByCountry[_country];\r\n    }\r\n\r\n    function getProducts() onlyClient(msg.sender) external view returns(bytes32[] memory){\r\n        return regRefs;\r\n    }\r\n\r\n    function getProduct(bytes32 ref) onlyClient(msg.sender) external view returns(VerifiedProducts.product memory){\r\n        product memory security = product ({\r\n            productCategory : registrations[ref].productCategory,\r\n            issuerName : registrations[ref].issuerName,\r\n            issuerAddress : registrations[ref].issuerAddress,\r\n            issuerCountry : registrations[ref].issuerCountry,\r\n            issuerSignatoryEmail : registrations[ref].issuerSignatoryEmail,\r\n            arrangerName : registrations[ref].arrangerName,\r\n            arrangerAddress : registrations[ref].arrangerAddress,\r\n            arrangerCountry : registrations[ref].arrangerCountry,\r\n            arrangerSignatoryEmail : registrations[ref].arrangerSignatoryEmail,\r\n            issue : registrations[ref].issue,\r\n            issuer : registrations[ref].issuer,\r\n            status : registrations[ref].status,\r\n            issuerRegistrationCertificate : registrations[ref].issuerRegistrationCertificate,\r\n            arrangerRegistrationCertificate : registrations[ref].arrangerRegistrationCertificate,\r\n            registrationDocuments : registrations[ref].registrationDocuments\r\n        });\r\n        return security;\r\n    }\r\n\r\n    function registerCertificate(bytes32 _ref, string calldata _issuerCertificate, string calldata _arrangerCertificate) onlyClient(msg.sender) external {\r\n        if(registrations[_ref].issuer==msg.sender){\r\n            registrations[_ref].issuerRegistrationCertificate = _issuerCertificate;\r\n            registrations[_ref].arrangerRegistrationCertificate = _arrangerCertificate;\r\n        }\r\n    }\r\n\r\n    function getCertificate(bytes32 _ref) onlyClient(msg.sender) external view returns(string memory, string memory){\r\n        (bytes32 role, ) = VerifiedClient(client).getRole(msg.sender);\r\n        require(role==\"DP\");\r\n        return (registrations[_ref].issuerRegistrationCertificate, registrations[_ref].arrangerRegistrationCertificate);\r\n    }\r\n\r\n    function confirmProduct(bytes32 _ref) onlyClient(msg.sender) external {\r\n        (bytes32 role, ) = VerifiedClient(client).getRole(msg.sender);\r\n        require(role==\"DP\");\r\n        bytes memory _payload = abi.encodeWithSignature(\"initialize(bytes32,bytes32,address,address,address,address,address,address,address,address)\", _ref, \r\n                                registrations[_ref].productCategory, registrations[_ref].issuer, msg.sender, owner(), securityContract, securityRegistriesContract, viaFactoryContract, poolFactoryContract, bridge);\r\n\r\n        //create issue\r\n        address _issue = deployMinimal(productIssuer[registrations[_ref].productCategory], _payload);\r\n        productsIssued[registrations[_ref].issuer].push(_issue);\r\n        productsIssuedByCountry[registrations[_ref].issuerCountry].push(_issue);\r\n        issues[_issue] = _ref;\r\n        emit ProductIssued(_issue, _ref, registrations[_ref].productCategory, registrations[_ref].issuerName, registrations[_ref].registrationDocuments);\r\n         \r\n        //map issue to product registration reference\r\n        registrations[_ref].status = true;\r\n        registrations[_ref].issue = _issue;\r\n    }\r\n\r\n    function getIssue(bytes32 _ref) external view returns(address){\r\n        return registrations[_ref].issue;\r\n    }\r\n\r\n    function getIssuerName(bytes32 _ref) external view returns(bytes32){\r\n        return registrations[_ref].issuerName;\r\n    }\r\n\r\n    function getIssuerAddress(bytes32 _ref) external view returns(address){\r\n        return registrations[_ref].issuer;\r\n    }\r\n\r\n    function registerPlatform(address _liquidityPlatform, bytes32 _hashedMessage, uint8 _v, bytes32 _r, bytes32 _s) \r\n                        external {\r\n        bytes32 payloadHash = keccak256(abi.encode(_hashedMessage, \"L2toL1\"));\r\n        bytes32 messageHash = keccak256(abi.encodePacked(\"\\x19Ethereum Signed Message:\\n32\", payloadHash));\r\n        require(ecrecover(messageHash, _v, _r, _s)== bridge);\r\n        if(platformIndex[_liquidityPlatform]==0){\r\n            for(uint i=0; i<regRefs.length; i++){\r\n                if(registrations[regRefs[i]].issue!=address(0x0))\r\n                    VerifiedIssues(registrations[regRefs[i]].issue).registerPlatform(_liquidityPlatform);\r\n            }\r\n            platforms.push(_liquidityPlatform);\r\n            platformIndex[_liquidityPlatform] = platforms.length;\r\n        }\r\n    }\r\n\r\n    function getPlatforms() external view returns(address[] memory){\r\n        return platforms;\r\n    }\r\n\r\n    function checkIssue(address _issuer) external view returns(bool){\r\n        if(productsRegistered[_issuer].length>0)\r\n            return true;\r\n        else\r\n            return false;\r\n    }\r\n\r\n    function checkProduct(address _issue) external view returns(bool){\r\n        if(issues[_issue]!='')\r\n            return true;\r\n        else\r\n            return false;\r\n    }\r\n\r\n    function getProductReference(address _issue) external view returns(bytes32){\r\n        return issues[_issue];\r\n    }\r\n\r\n}\r\n",
  "sourcePath": "D:\\Code\\verified-securities-L2\\securities\\contracts\\Products.sol",
  "compiler": {
    "name": "solc",
    "version": "0.5.7+commit.6da8b019.Emscripten.clang"
  },
  "schemaVersion": "3.4.3",
  "updatedAt": "2022-06-08T10:59:38.225Z",
  "networkType": "ethereum",
  "devdoc": {
    "methods": {
      "isOwner()": {
        "details": "Returns true if the caller is the current owner."
      },
      "owner()": {
        "details": "Returns the address of the current owner."
      },
      "renounceOwnership()": {
        "details": "Leaves the contract without owner. It will not be possible to call `onlyOwner` functions anymore. Can only be called by the current owner.     * NOTE: Renouncing ownership will leave the contract without an owner, thereby removing any functionality that is only available to the owner."
      },
      "transferOwnership(address)": {
        "details": "Transfers ownership of the contract to a new account (`newOwner`). Can only be called by the current owner."
      }
    }
  },
  "userdoc": {
    "methods": {}
  }
}