{
  "contractName": "Products",
  "abi": [
    {
      "constant": true,
      "inputs": [
        {
          "name": "_salt",
          "type": "uint256"
        },
        {
          "name": "_logic",
          "type": "address"
        },
        {
          "name": "_admin",
          "type": "address"
        },
        {
          "name": "_data",
          "type": "bytes"
        },
        {
          "name": "_signature",
          "type": "bytes"
        }
      ],
      "name": "getSigner",
      "outputs": [
        {
          "name": "",
          "type": "address"
        }
      ],
      "payable": false,
      "stateMutability": "view",
      "type": "function"
    },
    {
      "constant": false,
      "inputs": [
        {
          "name": "_salt",
          "type": "uint256"
        },
        {
          "name": "_logic",
          "type": "address"
        },
        {
          "name": "_admin",
          "type": "address"
        },
        {
          "name": "_data",
          "type": "bytes"
        },
        {
          "name": "_signature",
          "type": "bytes"
        }
      ],
      "name": "deploySigned",
      "outputs": [
        {
          "name": "",
          "type": "address"
        }
      ],
      "payable": false,
      "stateMutability": "nonpayable",
      "type": "function"
    },
    {
      "constant": false,
      "inputs": [
        {
          "name": "_salt",
          "type": "uint256"
        },
        {
          "name": "_logic",
          "type": "address"
        },
        {
          "name": "_admin",
          "type": "address"
        },
        {
          "name": "_data",
          "type": "bytes"
        }
      ],
      "name": "deploy",
      "outputs": [
        {
          "name": "",
          "type": "address"
        }
      ],
      "payable": false,
      "stateMutability": "nonpayable",
      "type": "function"
    },
    {
      "constant": true,
      "inputs": [
        {
          "name": "_salt",
          "type": "uint256"
        },
        {
          "name": "_sender",
          "type": "address"
        }
      ],
      "name": "getDeploymentAddress",
      "outputs": [
        {
          "name": "",
          "type": "address"
        }
      ],
      "payable": false,
      "stateMutability": "view",
      "type": "function"
    },
    {
      "constant": false,
      "inputs": [
        {
          "name": "_logic",
          "type": "address"
        },
        {
          "name": "_data",
          "type": "bytes"
        }
      ],
      "name": "deployMinimal",
      "outputs": [
        {
          "name": "proxy",
          "type": "address"
        }
      ],
      "payable": false,
      "stateMutability": "nonpayable",
      "type": "function"
    },
    {
      "anonymous": false,
      "inputs": [
        {
          "indexed": false,
          "name": "issue",
          "type": "address"
        },
        {
          "indexed": false,
          "name": "productReference",
          "type": "bytes32"
        },
        {
          "indexed": false,
          "name": "productCategory",
          "type": "bytes32"
        },
        {
          "indexed": false,
          "name": "issuerName",
          "type": "bytes32"
        },
        {
          "indexed": false,
          "name": "registrationDocs",
          "type": "string"
        }
      ],
      "name": "ProductIssued",
      "type": "event"
    },
    {
      "anonymous": false,
      "inputs": [
        {
          "indexed": false,
          "name": "proxy",
          "type": "address"
        }
      ],
      "name": "ProxyCreated",
      "type": "event"
    },
    {
      "constant": false,
      "inputs": [
        {
          "name": "_client",
          "type": "address"
        },
        {
          "name": "_kyc",
          "type": "address"
        },
        {
          "name": "_securityContract",
          "type": "address"
        },
        {
          "name": "_securityRegistriesContract",
          "type": "address"
        },
        {
          "name": "_viaFactoryContract",
          "type": "address"
        }
      ],
      "name": "initialize",
      "outputs": [],
      "payable": false,
      "stateMutability": "nonpayable",
      "type": "function"
    },
    {
      "constant": false,
      "inputs": [
        {
          "name": "_product",
          "type": "bytes32"
        },
        {
          "name": "_issuer",
          "type": "address"
        }
      ],
      "name": "registerIssuer",
      "outputs": [],
      "payable": false,
      "stateMutability": "nonpayable",
      "type": "function"
    },
    {
      "constant": false,
      "inputs": [
        {
          "name": "_productCategory",
          "type": "bytes32"
        },
        {
          "name": "_issuerName",
          "type": "bytes32"
        },
        {
          "name": "_issuerAddress",
          "type": "bytes32"
        },
        {
          "name": "_issuerCountry",
          "type": "bytes32"
        },
        {
          "name": "_issuerSignatoryEmail",
          "type": "bytes32"
        },
        {
          "name": "_arrangerName",
          "type": "bytes32"
        },
        {
          "name": "_arrangerAddress",
          "type": "bytes32"
        },
        {
          "name": "_arrangerCountry",
          "type": "bytes32"
        },
        {
          "name": "_arrangerSignatoryEmail",
          "type": "bytes32"
        },
        {
          "name": "_registrationDocuments",
          "type": "string"
        }
      ],
      "name": "recordProduct",
      "outputs": [],
      "payable": false,
      "stateMutability": "nonpayable",
      "type": "function"
    },
    {
      "constant": true,
      "inputs": [],
      "name": "getProductsForClient",
      "outputs": [
        {
          "name": "",
          "type": "bytes32[]"
        }
      ],
      "payable": false,
      "stateMutability": "view",
      "type": "function"
    },
    {
      "constant": true,
      "inputs": [],
      "name": "getIssuesForClient",
      "outputs": [
        {
          "name": "",
          "type": "address[]"
        }
      ],
      "payable": false,
      "stateMutability": "view",
      "type": "function"
    },
    {
      "constant": true,
      "inputs": [
        {
          "name": "_country",
          "type": "bytes32"
        }
      ],
      "name": "getProductsForCountry",
      "outputs": [
        {
          "name": "",
          "type": "bytes32[]"
        }
      ],
      "payable": false,
      "stateMutability": "view",
      "type": "function"
    },
    {
      "constant": true,
      "inputs": [
        {
          "name": "_country",
          "type": "bytes32"
        }
      ],
      "name": "getIssuesForCountry",
      "outputs": [
        {
          "name": "",
          "type": "address[]"
        }
      ],
      "payable": false,
      "stateMutability": "view",
      "type": "function"
    },
    {
      "constant": true,
      "inputs": [],
      "name": "getProducts",
      "outputs": [
        {
          "name": "",
          "type": "bytes32[]"
        }
      ],
      "payable": false,
      "stateMutability": "view",
      "type": "function"
    },
    {
      "constant": true,
      "inputs": [
        {
          "name": "ref",
          "type": "bytes32"
        }
      ],
      "name": "getProduct",
      "outputs": [
        {
          "components": [
            {
              "name": "productCategory",
              "type": "bytes32"
            },
            {
              "name": "issuerName",
              "type": "bytes32"
            },
            {
              "name": "issuerAddress",
              "type": "bytes32"
            },
            {
              "name": "issuerCountry",
              "type": "bytes32"
            },
            {
              "name": "issuerSignatoryEmail",
              "type": "bytes32"
            },
            {
              "name": "arrangerName",
              "type": "bytes32"
            },
            {
              "name": "arrangerAddress",
              "type": "bytes32"
            },
            {
              "name": "arrangerCountry",
              "type": "bytes32"
            },
            {
              "name": "arrangerSignatoryEmail",
              "type": "bytes32"
            },
            {
              "name": "issue",
              "type": "address"
            },
            {
              "name": "issuer",
              "type": "address"
            },
            {
              "name": "status",
              "type": "bool"
            },
            {
              "name": "issuerRegistrationCertificate",
              "type": "string"
            },
            {
              "name": "arrangerRegistrationCertificate",
              "type": "string"
            },
            {
              "name": "registrationDocuments",
              "type": "string"
            }
          ],
          "name": "",
          "type": "tuple"
        }
      ],
      "payable": false,
      "stateMutability": "view",
      "type": "function"
    },
    {
      "constant": false,
      "inputs": [
        {
          "name": "_ref",
          "type": "bytes32"
        },
        {
          "name": "_issuerCertificate",
          "type": "string"
        },
        {
          "name": "_arrangerCertificate",
          "type": "string"
        }
      ],
      "name": "registerCertificate",
      "outputs": [],
      "payable": false,
      "stateMutability": "nonpayable",
      "type": "function"
    },
    {
      "constant": true,
      "inputs": [
        {
          "name": "_ref",
          "type": "bytes32"
        }
      ],
      "name": "getCertificate",
      "outputs": [
        {
          "name": "",
          "type": "string"
        },
        {
          "name": "",
          "type": "string"
        }
      ],
      "payable": false,
      "stateMutability": "view",
      "type": "function"
    },
    {
      "constant": false,
      "inputs": [
        {
          "name": "_ref",
          "type": "bytes32"
        }
      ],
      "name": "confirmProduct",
      "outputs": [],
      "payable": false,
      "stateMutability": "nonpayable",
      "type": "function"
    },
    {
      "constant": true,
      "inputs": [
        {
          "name": "_ref",
          "type": "bytes32"
        }
      ],
      "name": "getIssue",
      "outputs": [
        {
          "name": "",
          "type": "address"
        }
      ],
      "payable": false,
      "stateMutability": "view",
      "type": "function"
    },
    {
      "constant": true,
      "inputs": [
        {
          "name": "_ref",
          "type": "bytes32"
        }
      ],
      "name": "getIssuerName",
      "outputs": [
        {
          "name": "",
          "type": "bytes32"
        }
      ],
      "payable": false,
      "stateMutability": "view",
      "type": "function"
    },
    {
      "constant": true,
      "inputs": [
        {
          "name": "_ref",
          "type": "bytes32"
        }
      ],
      "name": "getIssuerAddress",
      "outputs": [
        {
          "name": "",
          "type": "address"
        }
      ],
      "payable": false,
      "stateMutability": "view",
      "type": "function"
    },
    {
      "constant": false,
      "inputs": [
        {
          "name": "_liquidityPlatform",
          "type": "address"
        },
        {
          "name": "_owner",
          "type": "address"
        }
      ],
      "name": "registerPlatform",
      "outputs": [],
      "payable": false,
      "stateMutability": "nonpayable",
      "type": "function"
    },
    {
      "constant": true,
      "inputs": [
        {
          "name": "_issuer",
          "type": "address"
        }
      ],
      "name": "checkIssue",
      "outputs": [
        {
          "name": "",
          "type": "bool"
        }
      ],
      "payable": false,
      "stateMutability": "view",
      "type": "function"
    },
    {
      "constant": true,
      "inputs": [
        {
          "name": "_issue",
          "type": "address"
        }
      ],
      "name": "checkProduct",
      "outputs": [
        {
          "name": "",
          "type": "bool"
        }
      ],
      "payable": false,
      "stateMutability": "view",
      "type": "function"
    }
  ],
  "bytecode": "0x6080604081905261001060a0610034565b601f1982820381018352601f90910116604052805160209190910120600055610042565b6109a6806200330283390190565b6132b080620000526000396000f3fe608060405234801561001057600080fd5b506004361061014d5760003560e01c806384aea921116100c3578063d3cd09631161007c578063d3cd0963146102d8578063e6d439d1146102eb578063f333fe08146102fe578063f4fcffa41461031f578063fc3b4f5f14610332578063ff3018b1146103455761014d565b806384aea92114610264578063a4424e8214610284578063ad86bc3814610297578063aefc542b146102aa578063b3eeb5e2146102bd578063c29b2f20146102d05761014d565b80633a20e9df116101155780633a20e9df146101cb5780633ea6c82d146101eb57806351073c921461020b578063572d82991461021e5780636150864c1461023e57806381ae1f5b146102515761014d565b80630bbf1685146101525780631459457a1461017057806319089f7814610185578063290f8f5614610198578063332d6626146101b8575b600080fd5b61015a61034d565b6040516101679190612685565b60405180910390f35b61018361017e366004611cde565b610447565b005b610183610193366004611db9565b61053c565b6101ab6101a636600461201c565b610581565b60405161016791906125ea565b6101ab6101c636600461201c565b6105d4565b6101de6101d9366004611d9b565b61061c565b60405161016791906127b4565b6101fe6101f9366004611c7e565b61094c565b60405161016791906126a7565b61015a610219366004611d9b565b610982565b61023161022c366004611d9b565b610a7c565b60405161016791906126b5565b6101ab61024c366004611fa3565b610a91565b6101ab61025f366004611db9565b610aa0565b610277610272366004611d9b565b610af9565b6040516101679190612696565b6101ab610292366004611d9b565b610be8565b6101836102a5366004611ca4565b610c06565b6101fe6102b8366004611c7e565b610cd2565b6101ab6102cb366004611d53565b610cf8565b610277610e0c565b6101836102e6366004611efe565b610ef1565b6101836102f9366004611d9b565b610fe2565b61031161030c366004611d9b565b6112f6565b60405161016792919061276f565b6101ab61032d366004611d9b565b611563565b610183610340366004611e08565b611581565b610277611753565b603c54604051600160e01b6330ccebb50281526060916001600160a01b0316906330ccebb5906103819033906004016125f8565b60206040518083038186803b15801561039957600080fd5b505afa1580156103ad573d6000803e3d6000fd5b505050506040513d601f19601f820116820180604052506103d19190810190611f85565b6003146103dd57600080fd5b336000908152603860209081526040918290208054835181840281018401909452808452909183018282801561043c57602002820191906000526020600020905b81546001600160a01b0316815260019091019060200180831161041e575b505050505090505b90565b600154610100900460ff16806104605750610460611840565b8061046e575060015460ff16155b61049657604051600160e51b62461bcd02815260040161048d906127a4565b60405180910390fd5b600154610100900460ff161580156104c0576001805460ff1961ff00199091166101001716811790555b603d80546001600160a01b038089166001600160a01b031992831617909255603c8054888416908316179055603e8054878416908316179055603f8054868416908316179055604080549285169282169290921790915560418054909116331790558015610534576001805461ff00191690555b505050505050565b6041546001600160a01b0316331461055357600080fd5b6000918252603a602052604090912080546001600160a01b0319166001600160a01b03909216919091179055565b6000806105bb87878787306040516020016105a0959493929190612595565b60405160208183030381529060405280519060200120611846565b90506105c78184611876565b9150505b95945050505050565b6000806105e48787878787610581565b90506001600160a01b03811661060f57604051600160e51b62461bcd02815260040161048d90612794565b6105c78787878785611952565b610624611a93565b603c54604051600160e01b6330ccebb50281526001600160a01b03909116906330ccebb5906106579033906004016125f8565b60206040518083038186803b15801561066f57600080fd5b505afa158015610683573d6000803e3d6000fd5b505050506040513d601f19601f820116820180604052506106a79190810190611f85565b6003146106b357600080fd5b6106bb611a93565b604080516101e0810182526000858152603460208181528483208054855260018082015483870152600280830154878901526003830154606088015260048301546080880152600583015460a0880152600683015460c0880152600783015460e088015260088301546101008089019190915260098401546001600160a01b039081166101208a0152600a8501549081166101408a0152600160a01b900460ff161515610160890152958b9052938352600b90910180548751928116159095026000190190941692909204601f810182900482028301820190955284825292936101808501939192918301828280156107f55780601f106107ca576101008083540402835291602001916107f5565b820191906000526020600020905b8154815290600101906020018083116107d857829003601f168201915b5050509183525050600085815260346020908152604091829020600c0180548351601f600260001961010060018616150201909316929092049182018490048402810184019094528084529382019390918301828280156108975780601f1061086c57610100808354040283529160200191610897565b820191906000526020600020905b81548152906001019060200180831161087a57829003601f168201915b5050509183525050600085815260346020908152604091829020600d0180548351601f600260001961010060018616150201909316929092049182018490048402810184019094528084529382019390918301828280156109395780601f1061090e57610100808354040283529160200191610939565b820191906000526020600020905b81548152906001019060200180831161091c57829003601f168201915b505050919092525090925050505b919050565b6001600160a01b0381166000908152603b602052604081205460ff1615156001141561097a57506001610947565b506000610947565b603c54604051600160e01b6330ccebb50281526060916001600160a01b0316906330ccebb5906109b69033906004016125f8565b60206040518083038186803b1580156109ce57600080fd5b505afa1580156109e2573d6000803e3d6000fd5b505050506040513d601f19601f82011682018060405250610a069190810190611f85565b600314610a1257600080fd5b60008281526039602090815260409182902080548351818402810184019094528084529091830182828015610a7057602002820191906000526020600020905b81546001600160a01b03168152600190910190602001808311610a52575b50505050509050919050565b60009081526034602052604090206001015490565b60006105cb8585858533611952565b600080610aad8484611a07565b9050600060ff60f81b3083600054604051602001610ace94939291906124fb565b604051602081830303815290604052805190602001209050606081901b60601c925050505b92915050565b603c54604051600160e01b6330ccebb50281526060916001600160a01b0316906330ccebb590610b2d9033906004016125f8565b60206040518083038186803b158015610b4557600080fd5b505afa158015610b59573d6000803e3d6000fd5b505050506040513d601f19601f82011682018060405250610b7d9190810190611f85565b600314610b8957600080fd5b60008281526037602090815260409182902080548351818402810184019094528084529091830182828015610a7057602002820191906000526020600020905b815481526020019060010190808311610bc95750505050509050919050565b6000908152603460205260409020600a01546001600160a01b031690565b6041546001600160a01b03828116911614610c2057600080fd5b60005b603554811015610ccd576034600060358381548110610c3e57fe5b600091825260208083209091015483528201929092526040908101909120600901549051600160e11b63699a07db0281526001600160a01b039091169063d3340fb690610c8f9086906004016125ea565b600060405180830381600087803b158015610ca957600080fd5b505af1158015610cbd573d6000803e3d6000fd5b505060019092019150610c239050565b505050565b6001600160a01b0381166000908152603660205260408120541561097a57506001610947565b6000808360601b90506040517f3d602d80600a3d3981f3363d3d373d3d3d363d7300000000000000000000000081528160148201527f5af43d82803e903d91602b57fd5bf3000000000000000000000000000000000060288201526037816000f09250507efffc2da0b561cae30d9826d37709e9421c4725faebc226cbbb7ef5fc5e734982604051610d8a91906125ea565b60405180910390a1825115610e05576000826001600160a01b031684604051610db39190612543565b6000604051808303816000865af19150503d8060008114610df0576040519150601f19603f3d011682016040523d82523d6000602084013e610df5565b606091505b5050905080610e0357600080fd5b505b5092915050565b603c54604051600160e01b6330ccebb50281526060916001600160a01b0316906330ccebb590610e409033906004016125f8565b60206040518083038186803b158015610e5857600080fd5b505afa158015610e6c573d6000803e3d6000fd5b505050506040513d601f19601f82011682018060405250610e909190810190611f85565b600314610e9c57600080fd5b603580548060200260200160405190810160405280929190818152602001828054801561043c57602002820191906000526020600020905b815481526020019060010190808311610ed4575050505050905090565b603c54604051600160e01b6330ccebb50281526001600160a01b03909116906330ccebb590610f249033906004016125f8565b60206040518083038186803b158015610f3c57600080fd5b505afa158015610f50573d6000803e3d6000fd5b505050506040513d601f19601f82011682018060405250610f749190810190611f85565b600314610f8057600080fd5b6000858152603460205260409020600a01546001600160a01b0316331415610fdb576000858152603460205260409020610fbe90600b018585611b11565b50600085815260346020526040902061053490600c018383611b11565b5050505050565b603c54604051600160e01b6330ccebb50281526001600160a01b03909116906330ccebb5906110159033906004016125f8565b60206040518083038186803b15801561102d57600080fd5b505afa158015611041573d6000803e3d6000fd5b505050506040513d601f19601f820116820180604052506110659190810190611f85565b60031461107157600080fd5b603d54604051600160e01b63442767330281526000916001600160a01b0316906344276733906110a59033906004016125f8565b604080518083038186803b1580156110bc57600080fd5b505afa1580156110d0573d6000803e3d6000fd5b505050506040513d601f19601f820116820180604052506110f49190810190611dd8565b50905080600160f41b610445021461110b57600080fd5b600082815260346020526040908190208054600a90910154604154603e54603f5485549551606096611161968a9690956001600160a01b03918216953395918316949083169391831692909116906024016126c3565b60408051601f19818403018152918152602080830180516001600160e01b0316600160e01b634afc82bd02179052600086815260348252828120548152603a90915290812054919250906111be906001600160a01b031683610cf8565b6000858152603460208181526040808420600a8101546001600160a01b039081168652603884528286208054600181810183559188528588200180549289166001600160a01b031993841681179091556003840154885260398652848820805480840182559089528689200180549093168117909255908652603b8452828620805460ff191682179055948a90529290915281549282015490519394507fecc233ca6ab141df9617dad6c35a7d951c5175568e3af78b51b6e0584500994d936112929386938a939192600d90910190612633565b60405180910390a1600093845260346020526040909320600a8101805474ff00000000000000000000000000000000000000001916600160a01b17905560090180546001600160a01b039094166001600160a01b0319909416939093179092555050565b603c54604051600160e01b6330ccebb502815260609182916001600160a01b03909116906330ccebb59061132e9033906004016125f8565b60206040518083038186803b15801561134657600080fd5b505afa15801561135a573d6000803e3d6000fd5b505050506040513d601f19601f8201168201806040525061137e9190810190611f85565b60031461138a57600080fd5b603d54604051600160e01b63442767330281526000916001600160a01b0316906344276733906113be9033906004016125f8565b604080518083038186803b1580156113d557600080fd5b505afa1580156113e9573d6000803e3d6000fd5b505050506040513d601f19601f8201168201806040525061140d9190810190611dd8565b50905080600160f41b610445021461142457600080fd5b600084815260346020908152604091829020600b810180548451601f600260001961010060018616150201909316929092049182018590048502810185019095528085529093600c909201928491908301828280156114c45780601f10611499576101008083540402835291602001916114c4565b820191906000526020600020905b8154815290600101906020018083116114a757829003601f168201915b5050845460408051602060026001851615610100026000190190941693909304601f8101849004840282018401909252818152959750869450925084019050828280156115525780601f1061152757610100808354040283529160200191611552565b820191906000526020600020905b81548152906001019060200180831161153557829003601f168201915b505050505090509250925050915091565b6000908152603460205260409020600901546001600160a01b031690565b603c54604051600160e01b6330ccebb50281526001600160a01b03909116906330ccebb5906115b49033906004016125f8565b60206040518083038186803b1580156115cc57600080fd5b505afa1580156115e0573d6000803e3d6000fd5b505050506040513d601f19601f820116820180604052506116049190810190611f85565b60031461161057600080fd5b60008b8152603a60205260409020546001600160a01b031661163157600080fd5b600033426040516020016116469291906124d5565b60408051601f1981840301815291815281516020928301206035805460018181019092557fcfa4bec1d3298408bb5afcfcd9c430549c5b31f8aa5c5848151c0a55f473c34d0182905560008281526034909452919092208e81559081018d9055600281018c9055600381018b9055600481018a9055600581018990556006810188905560078101879055600881018690559091506116e890600d018484611b11565b506000818152603460209081526040808320600a0180546001600160a01b03191633908117909155835260368252808320805460018181018355918552838520018590559b835260378252822080549b8c018155825290209098019790975550505050505050505050565b603c54604051600160e01b6330ccebb50281526060916001600160a01b0316906330ccebb5906117879033906004016125f8565b60206040518083038186803b15801561179f57600080fd5b505afa1580156117b3573d6000803e3d6000fd5b505050506040513d601f19601f820116820180604052506117d79190810190611f85565b6003146117e357600080fd5b336000908152603660209081526040918290208054835181840281018401909452808452909183018282801561043c5760200282019190600052602060002090815481526020019060010190808311610ed4575050505050905090565b303b1590565b600081604051602001611859919061254f565b604051602081830303815290604052805190602001209050919050565b6000815160411461188957506000610af3565b60208201516040830151606084015160001a7f7fffffffffffffffffffffffffffffff5d576e7357a4501ddfe92f46681b20a08211156118cf5760009350505050610af3565b8060ff16601b141580156118e757508060ff16601c14155b156118f85760009350505050610af3565b6001868285856040516000815260200160405260405161191b949392919061273a565b6020604051602081039080840390855afa15801561193d573d6000803e3d6000fd5b5050604051601f190151979650505050505050565b60008061195f8784611a3a565b90507efffc2da0b561cae30d9826d37709e9421c4725faebc226cbbb7ef5fc5e73498160405161198f91906125f8565b60405180910390a1604051600160e01b63cf7a1d770281526001600160a01b0382169063cf7a1d77906119ca90899089908990600401612606565b600060405180830381600087803b1580156119e457600080fd5b505af11580156119f8573d6000803e3d6000fd5b50929998505050505050505050565b60008282604051602001611a1c92919061256f565b60405160208183030381529060405280519060200120905092915050565b600080606060405180602001611a4f90611b8f565b601f1982820381018352601f9091011660405290506000611a708686611a07565b9050808251602084016000f59250823b611a8957600080fd5b5090949350505050565b604080516101e08101825260008082526020820181905291810182905260608082018390526080820183905260a0820183905260c0820183905260e0820183905261010082018390526101208201839052610140820183905261016082019290925261018081018290526101a081018290526101c081019190915290565b828054600181600116156101000203166002900490600052602060002090601f016020900481019282601f10611b525782800160ff19823516178555611b7f565b82800160010185558215611b7f579182015b82811115611b7f578235825591602001919060010190611b64565b50611b8b929150611b9c565b5090565b6109a6806128d183390190565b61044491905b80821115611b8b5760008155600101611ba2565b6000611bc28235612833565b9392505050565b6000611bc28235610444565b6000611bc28251610444565b600082601f830112611bf257600080fd5b8135611c05611c00826127ec565b6127c5565b91508082526020830160208301858383011115611c2157600080fd5b611c2c838284612873565b50505092915050565b60008083601f840112611c4757600080fd5b50813567ffffffffffffffff811115611c5f57600080fd5b602083019150836001820283011115611c7757600080fd5b9250929050565b600060208284031215611c9057600080fd5b6000611c9c8484611bb6565b949350505050565b60008060408385031215611cb757600080fd5b6000611cc38585611bb6565b9250506020611cd485828601611bb6565b9150509250929050565b600080600080600060a08688031215611cf657600080fd5b6000611d028888611bb6565b9550506020611d1388828901611bb6565b9450506040611d2488828901611bb6565b9350506060611d3588828901611bb6565b9250506080611d4688828901611bb6565b9150509295509295909350565b60008060408385031215611d6657600080fd5b6000611d728585611bb6565b925050602083013567ffffffffffffffff811115611d8f57600080fd5b611cd485828601611be1565b600060208284031215611dad57600080fd5b6000611c9c8484611bc9565b60008060408385031215611dcc57600080fd5b6000611cc38585611bc9565b60008060408385031215611deb57600080fd5b6000611df78585611bd5565b9250506020611cd485828601611bd5565b60008060008060008060008060008060006101408c8e031215611e2a57600080fd5b6000611e368e8e611bc9565b9b50506020611e478e828f01611bc9565b9a50506040611e588e828f01611bc9565b9950506060611e698e828f01611bc9565b9850506080611e7a8e828f01611bc9565b97505060a0611e8b8e828f01611bc9565b96505060c0611e9c8e828f01611bc9565b95505060e0611ead8e828f01611bc9565b945050610100611ebf8e828f01611bc9565b9350506101208c013567ffffffffffffffff811115611edd57600080fd5b611ee98e828f01611c35565b92509250509295989b509295989b9093969950565b600080600080600060608688031215611f1657600080fd5b6000611f228888611bc9565b955050602086013567ffffffffffffffff811115611f3f57600080fd5b611f4b88828901611c35565b9450945050604086013567ffffffffffffffff811115611f6a57600080fd5b611f7688828901611c35565b92509250509295509295909350565b600060208284031215611f9757600080fd5b6000611c9c8484611bd5565b60008060008060808587031215611fb957600080fd5b6000611fc58787611bc9565b9450506020611fd687828801611bb6565b9350506040611fe787828801611bb6565b925050606085013567ffffffffffffffff81111561200457600080fd5b61201087828801611be1565b91505092959194509250565b600080600080600060a0868803121561203457600080fd5b60006120408888611bc9565b955050602061205188828901611bb6565b945050604061206288828901611bb6565b935050606086013567ffffffffffffffff81111561207f57600080fd5b61208b88828901611be1565b925050608086013567ffffffffffffffff8111156120a857600080fd5b611d4688828901611be1565b60006120c083836120e3565b505060200190565b60006120c083836121b7565b6120dd81612862565b82525050565b6120dd81612833565b6120dd6120f882612833565b6128af565b600061210882612826565b612112818561282a565b935061211d83612814565b60005b82811015612148576121338683516120b4565b955061213e82612814565b9150600101612120565b5093949350505050565b600061215d82612826565b612167818561282a565b935061217283612814565b60005b82811015612148576121888683516120c8565b955061219382612814565b9150600101612175565b6120dd8161283e565b6120dd6121b282612843565b610444565b6120dd81610444565b6120dd6121b282610444565b60006121d782612826565b6121e1818561282a565b93506121f181856020860161287f565b6121fa816128c0565b9093019392505050565b600061220f82612826565b6122198185610947565b935061222981856020860161287f565b9290920192915050565b600081546001811660008114612250576001811461227657610e03565b607f6002830416612261818761282a565b60ff1984168152955050602085019250610e03565b60028204612284818761282a565b955061228f8561281a565b60005b828110156122ae57815488820152600190910190602001612292565b9096019695505050505050565b60006122c8601c83610947565b7f19457468657265756d205369676e6564204d6573736167653a0a3332000000008152601c0192915050565b600061230160118361282a565b7f496e76616c6964207369676e6174757265000000000000000000000000000000815260200192915050565b600061233a602e8361282a565b7f436f6e747261637420696e7374616e63652068617320616c726561647920626581527f656e20696e697469616c697a6564000000000000000000000000000000000000602082015260400192915050565b80516000906101e08401906123a185826121b7565b5060208301516123b460208601826121b7565b5060408301516123c760408601826121b7565b5060608301516123da60608601826121b7565b5060808301516123ed60808601826121b7565b5060a083015161240060a08601826121b7565b5060c083015161241360c08601826121b7565b5060e083015161242660e08601826121b7565b5061010083015161243b6101008601826121b7565b506101208301516124506101208601826120e3565b506101408301516124656101408601826120e3565b5061016083015161247a61016086018261219d565b5061018083015184820361018086015261249482826121cc565b9150506101a08301518482036101a08601526124b082826121cc565b9150506101c08301518482036101c08601526105cb82826121cc565b6120dd8161285c565b60006124e182856120ec565b6014820191506124f182846121c0565b5060200192915050565b600061250782876121a6565b60018201915061251782866120ec565b60148201915061252782856121c0565b60208201915061253782846121c0565b50602001949350505050565b6000611bc28284612204565b600061255a826122bb565b915061256682846121c0565b50602001919050565b600061257b82856121c0565b60208201915061258b82846120ec565b5060140192915050565b60006125a182886121c0565b6020820191506125b182876120ec565b6014820191506125c182866120ec565b6014820191506125d18285612204565b91506125dd82846120ec565b5060140195945050505050565b60208101610af382846120e3565b60208101610af382846120d4565b6060810161261482866120e3565b61262160208301856120e3565b81810360408301526105cb81846121cc565b60a0810161264182886120e3565b61264e60208301876121b7565b61265b60408301866121b7565b61266860608301856121b7565b818103608083015261267a8184612233565b979650505050505050565b60208082528101611bc281846120fd565b60208082528101611bc28184612152565b60208101610af3828461219d565b60208101610af382846121b7565b61010081016126d2828b6121b7565b6126df602083018a6121b7565b6126ec60408301896120e3565b6126f960608301886120e3565b61270660808301876120e3565b61271360a08301866120e3565b61272060c08301856120e3565b61272d60e08301846120e3565b9998505050505050505050565b6080810161274882876121b7565b61275560208301866124cc565b61276260408301856121b7565b6105cb60608301846121b7565b6040808252810161278081856121cc565b90508181036020830152611c9c81846121cc565b60208082528101610af3816122f4565b60208082528101610af38161232d565b60208082528101611bc2818461238c565b60405181810167ffffffffffffffff811182821017156127e457600080fd5b604052919050565b600067ffffffffffffffff82111561280357600080fd5b506020601f91909101601f19160190565b60200190565b60009081526020902090565b5190565b90815260200190565b6000610af382612850565b151590565b6001600160f81b03191690565b6001600160a01b031690565b60ff1690565b6000610af3826000610af382612833565b82818337506000910152565b60005b8381101561289a578181015183820152602001612882565b838111156128a9576000848401525b50505050565b6000610af3826000610af3826128ca565b601f01601f191690565b60601b9056fe608060405234801561001057600080fd5b50610986806100206000396000f3fe6080604052600436106100705760003560e01c80638f2839701161004e5780638f2839701461015e578063cf7a1d7714610191578063d1f5789414610250578063f851a4401461030657610070565b80633659cfe61461007a5780634f1ef286146100ad5780635c60da1b1461012d575b61007861031b565b005b34801561008657600080fd5b506100786004803603602081101561009d57600080fd5b50356001600160a01b0316610335565b610078600480360360408110156100c357600080fd5b6001600160a01b0382351691908101906040810160208201356401000000008111156100ee57600080fd5b82018360208201111561010057600080fd5b8035906020019184600183028401116401000000008311171561012257600080fd5b50909250905061036f565b34801561013957600080fd5b5061014261041c565b604080516001600160a01b039092168252519081900360200190f35b34801561016a57600080fd5b506100786004803603602081101561018157600080fd5b50356001600160a01b0316610459565b610078600480360360608110156101a757600080fd5b6001600160a01b0382358116926020810135909116918101906060810160408201356401000000008111156101db57600080fd5b8201836020820111156101ed57600080fd5b8035906020019184600183028401116401000000008311171561020f57600080fd5b91908080601f016020809104026020016040519081016040528093929190818152602001838380828437600092019190915250929550610516945050505050565b6100786004803603604081101561026657600080fd5b6001600160a01b03823516919081019060408101602082013564010000000081111561029157600080fd5b8201836020820111156102a357600080fd5b803590602001918460018302840111640100000000831117156102c557600080fd5b91908080601f0160208091040260200160405190810160405280939291908181526020018383808284376000920191909152509295506105a6945050505050565b34801561031257600080fd5b506101426106e6565b610323610711565b61033361032e610774565b610799565b565b61033d6107bd565b6001600160a01b0316336001600160a01b031614156103645761035f816107e2565b61036c565b61036c61031b565b50565b6103776107bd565b6001600160a01b0316336001600160a01b0316141561040f57610399836107e2565b6000836001600160a01b031683836040518083838082843760405192019450600093509091505080830381855af49150503d80600081146103f6576040519150601f19603f3d011682016040523d82523d6000602084013e6103fb565b606091505b505090508061040957600080fd5b50610417565b61041761031b565b505050565b60006104266107bd565b6001600160a01b0316336001600160a01b0316141561044e57610447610774565b9050610456565b61045661031b565b90565b6104616107bd565b6001600160a01b0316336001600160a01b03161415610364576001600160a01b0381166104c257604051600160e51b62461bcd0281526004018080602001828103825260368152602001806108ea6036913960400191505060405180910390fd5b7f7e644d79422f17c01e4894b5f4f588d331ebfa28653d42ae832dc59e38c9798f6104eb6107bd565b604080516001600160a01b03928316815291841660208301528051918290030190a161035f81610822565b6000610520610774565b6001600160a01b03161461053357600080fd5b61053d83826105a6565b604080517f656970313936372e70726f78792e61646d696e00000000000000000000000000815290519081900360130190207fb53127684a568b3173ae13b9f8a6016e243e63b6e8ee1178d6a717850b5d61036000199091011461059d57fe5b61041782610822565b60006105b0610774565b6001600160a01b0316146105c357600080fd5b604080517f656970313936372e70726f78792e696d706c656d656e746174696f6e000000008152905190819003601c0190207f360894a13ba1a3210667c828492db98dca3e2076cc3735a920a3ca505d382bbc6000199091011461062357fe5b61062c82610846565b8051156106e2576000826001600160a01b0316826040518082805190602001908083835b6020831061066f5780518252601f199092019160209182019101610650565b6001836020036101000a038019825116818451168082178552505050505050905001915050600060405180830381855af49150503d80600081146106cf576040519150601f19603f3d011682016040523d82523d6000602084013e6106d4565b606091505b505090508061041757600080fd5b5050565b60006106f06107bd565b6001600160a01b0316336001600160a01b0316141561044e576104476107bd565b6107196107bd565b6001600160a01b0316336001600160a01b0316141561076c57604051600160e51b62461bcd0281526004018080602001828103825260328152602001806108b86032913960400191505060405180910390fd5b610333610333565b7f360894a13ba1a3210667c828492db98dca3e2076cc3735a920a3ca505d382bbc5490565b3660008037600080366000845af43d6000803e8080156107b8573d6000f35b3d6000fd5b7fb53127684a568b3173ae13b9f8a6016e243e63b6e8ee1178d6a717850b5d61035490565b6107eb81610846565b6040516001600160a01b038216907fbc7cd75a20ee27fd9adebab32041f755214dbc6bffa90cc0225b39da2e5c2d3b90600090a250565b7fb53127684a568b3173ae13b9f8a6016e243e63b6e8ee1178d6a717850b5d610355565b61084f816108b1565b61088d57604051600160e51b62461bcd02815260040180806020018281038252603b815260200180610920603b913960400191505060405180910390fd5b7f360894a13ba1a3210667c828492db98dca3e2076cc3735a920a3ca505d382bbc55565b3b15159056fe43616e6e6f742063616c6c2066616c6c6261636b2066756e6374696f6e2066726f6d207468652070726f78792061646d696e43616e6e6f74206368616e6765207468652061646d696e206f6620612070726f787920746f20746865207a65726f206164647265737343616e6e6f742073657420612070726f787920696d706c656d656e746174696f6e20746f2061206e6f6e2d636f6e74726163742061646472657373a165627a7a72305820acd86240912c703ba88ccefef3db77e88d3507353c7c194b0b27eed571ae96c90029a265627a7a72305820cbd7b930851526478cb9717c243a9294e0822dc7aa7ba6fded495bc99cf440326c6578706572696d656e74616cf50037608060405234801561001057600080fd5b50610986806100206000396000f3fe6080604052600436106100705760003560e01c80638f2839701161004e5780638f2839701461015e578063cf7a1d7714610191578063d1f5789414610250578063f851a4401461030657610070565b80633659cfe61461007a5780634f1ef286146100ad5780635c60da1b1461012d575b61007861031b565b005b34801561008657600080fd5b506100786004803603602081101561009d57600080fd5b50356001600160a01b0316610335565b610078600480360360408110156100c357600080fd5b6001600160a01b0382351691908101906040810160208201356401000000008111156100ee57600080fd5b82018360208201111561010057600080fd5b8035906020019184600183028401116401000000008311171561012257600080fd5b50909250905061036f565b34801561013957600080fd5b5061014261041c565b604080516001600160a01b039092168252519081900360200190f35b34801561016a57600080fd5b506100786004803603602081101561018157600080fd5b50356001600160a01b0316610459565b610078600480360360608110156101a757600080fd5b6001600160a01b0382358116926020810135909116918101906060810160408201356401000000008111156101db57600080fd5b8201836020820111156101ed57600080fd5b8035906020019184600183028401116401000000008311171561020f57600080fd5b91908080601f016020809104026020016040519081016040528093929190818152602001838380828437600092019190915250929550610516945050505050565b6100786004803603604081101561026657600080fd5b6001600160a01b03823516919081019060408101602082013564010000000081111561029157600080fd5b8201836020820111156102a357600080fd5b803590602001918460018302840111640100000000831117156102c557600080fd5b91908080601f0160208091040260200160405190810160405280939291908181526020018383808284376000920191909152509295506105a6945050505050565b34801561031257600080fd5b506101426106e6565b610323610711565b61033361032e610774565b610799565b565b61033d6107bd565b6001600160a01b0316336001600160a01b031614156103645761035f816107e2565b61036c565b61036c61031b565b50565b6103776107bd565b6001600160a01b0316336001600160a01b0316141561040f57610399836107e2565b6000836001600160a01b031683836040518083838082843760405192019450600093509091505080830381855af49150503d80600081146103f6576040519150601f19603f3d011682016040523d82523d6000602084013e6103fb565b606091505b505090508061040957600080fd5b50610417565b61041761031b565b505050565b60006104266107bd565b6001600160a01b0316336001600160a01b0316141561044e57610447610774565b9050610456565b61045661031b565b90565b6104616107bd565b6001600160a01b0316336001600160a01b03161415610364576001600160a01b0381166104c257604051600160e51b62461bcd0281526004018080602001828103825260368152602001806108ea6036913960400191505060405180910390fd5b7f7e644d79422f17c01e4894b5f4f588d331ebfa28653d42ae832dc59e38c9798f6104eb6107bd565b604080516001600160a01b03928316815291841660208301528051918290030190a161035f81610822565b6000610520610774565b6001600160a01b03161461053357600080fd5b61053d83826105a6565b604080517f656970313936372e70726f78792e61646d696e00000000000000000000000000815290519081900360130190207fb53127684a568b3173ae13b9f8a6016e243e63b6e8ee1178d6a717850b5d61036000199091011461059d57fe5b61041782610822565b60006105b0610774565b6001600160a01b0316146105c357600080fd5b604080517f656970313936372e70726f78792e696d706c656d656e746174696f6e000000008152905190819003601c0190207f360894a13ba1a3210667c828492db98dca3e2076cc3735a920a3ca505d382bbc6000199091011461062357fe5b61062c82610846565b8051156106e2576000826001600160a01b0316826040518082805190602001908083835b6020831061066f5780518252601f199092019160209182019101610650565b6001836020036101000a038019825116818451168082178552505050505050905001915050600060405180830381855af49150503d80600081146106cf576040519150601f19603f3d011682016040523d82523d6000602084013e6106d4565b606091505b505090508061041757600080fd5b5050565b60006106f06107bd565b6001600160a01b0316336001600160a01b0316141561044e576104476107bd565b6107196107bd565b6001600160a01b0316336001600160a01b0316141561076c57604051600160e51b62461bcd0281526004018080602001828103825260328152602001806108b86032913960400191505060405180910390fd5b610333610333565b7f360894a13ba1a3210667c828492db98dca3e2076cc3735a920a3ca505d382bbc5490565b3660008037600080366000845af43d6000803e8080156107b8573d6000f35b3d6000fd5b7fb53127684a568b3173ae13b9f8a6016e243e63b6e8ee1178d6a717850b5d61035490565b6107eb81610846565b6040516001600160a01b038216907fbc7cd75a20ee27fd9adebab32041f755214dbc6bffa90cc0225b39da2e5c2d3b90600090a250565b7fb53127684a568b3173ae13b9f8a6016e243e63b6e8ee1178d6a717850b5d610355565b61084f816108b1565b61088d57604051600160e51b62461bcd02815260040180806020018281038252603b815260200180610920603b913960400191505060405180910390fd5b7f360894a13ba1a3210667c828492db98dca3e2076cc3735a920a3ca505d382bbc55565b3b15159056fe43616e6e6f742063616c6c2066616c6c6261636b2066756e6374696f6e2066726f6d207468652070726f78792061646d696e43616e6e6f74206368616e6765207468652061646d696e206f6620612070726f787920746f20746865207a65726f206164647265737343616e6e6f742073657420612070726f787920696d706c656d656e746174696f6e20746f2061206e6f6e2d636f6e74726163742061646472657373a165627a7a72305820acd86240912c703ba88ccefef3db77e88d3507353c7c194b0b27eed571ae96c90029",
  "source": "// Verified financial products\r\n// Define products, accepts issuing documentation for registrar, create issues of products\r\n// (c) Kallol Borah, Verified Network, 2021\r\n\r\npragma solidity 0.5.7;\r\npragma experimental ABIEncoderV2;\r\n\r\nimport \"./interfaces/VerifiedKYC.sol\";\r\nimport \"./interfaces/VerifiedClient.sol\";\r\nimport \"./interfaces/VerifiedIssues.sol\";\r\nimport \"./interfaces/VerifiedProducts.sol\";\r\nimport \"@openzeppelin/upgrades/contracts/Initializable.sol\";\r\nimport \"@openzeppelin/upgrades/contracts/upgradeability/ProxyFactory.sol\";\r\n\r\ncontract Products is VerifiedProducts, ProxyFactory, Initializable {\r\n\r\n    //mapping of registration reference to registration record\r\n    mapping(bytes32 => product) private registrations;\r\n\r\n    //array of registration requests\r\n    bytes32[] regRefs;\r\n\r\n    //mapping issuer to products\r\n    mapping(address => bytes32[]) private productsRegistered;\r\n\r\n    //mapping country to registered products\r\n    mapping(bytes32 => bytes32[]) private productsRegisteredByCountry;\r\n\r\n    //mapping issuer to issues\r\n    mapping(address => address[]) private productsIssued;\r\n\r\n    //mapping country to issued products\r\n    mapping(bytes32 => address[]) private productsIssuedByCountry;\r\n\r\n    //mapping product category to issuer contract\r\n    mapping(bytes32 => address) private productIssuer;\r\n\r\n    //confirming product issued\r\n    mapping(address => bool) private issues;\r\n\r\n    address kyc;\r\n    address client;\r\n    address securityContract;\r\n    address securityRegistriesContract;\r\n    address viaFactoryContract;\r\n    address owner;\r\n\r\n    event ProductIssued(address issue, \r\n                        bytes32 productReference, \r\n                        bytes32 productCategory, \r\n                        bytes32 issuerName, \r\n                        string registrationDocs\r\n                        );\r\n\r\n    function initialize(address _client, address _kyc, address _securityContract, address _securityRegistriesContract, address _viaFactoryContract) public initializer{\r\n        client = _client;\r\n        kyc = _kyc;\r\n        securityContract = _securityContract;\r\n        securityRegistriesContract = _securityRegistriesContract;\r\n        viaFactoryContract = _viaFactoryContract;\r\n        owner = msg.sender;\r\n    }\r\n\r\n    function registerIssuer(bytes32 _product, address _issuer) external {\r\n        require(msg.sender==owner);\r\n        productIssuer[_product]=_issuer;\r\n    }\r\n\r\n    function recordProduct( bytes32 _productCategory,\r\n                            bytes32 _issuerName,\r\n                            bytes32 _issuerAddress,\r\n                            bytes32 _issuerCountry,\r\n                            bytes32 _issuerSignatoryEmail,\r\n                            bytes32 _arrangerName,\r\n                            bytes32 _arrangerAddress,\r\n                            bytes32 _arrangerCountry,\r\n                            bytes32 _arrangerSignatoryEmail,\r\n                            string calldata _registrationDocuments\r\n                            ) external{\r\n        require(VerifiedKYC(kyc).getStatus(msg.sender)==3);\r\n        require(productIssuer[_productCategory]!=address(0x0));\r\n        bytes32 ref = keccak256(abi.encodePacked(msg.sender, now));\r\n        regRefs.push(ref);\r\n        registrations[ref].productCategory = _productCategory;\r\n        registrations[ref].issuerName = _issuerName;\r\n        registrations[ref].issuerAddress = _issuerAddress;\r\n        registrations[ref].issuerCountry = _issuerCountry;\r\n        registrations[ref].issuerSignatoryEmail = _issuerSignatoryEmail;\r\n        registrations[ref].arrangerName = _arrangerName;\r\n        registrations[ref].arrangerAddress = _arrangerAddress;\r\n        registrations[ref].arrangerCountry = _arrangerCountry;\r\n        registrations[ref].arrangerSignatoryEmail = _arrangerSignatoryEmail;\r\n        registrations[ref].registrationDocuments = _registrationDocuments;\r\n        registrations[ref].issuer = msg.sender;\r\n        productsRegistered[msg.sender].push(ref);\r\n        productsRegisteredByCountry[_issuerCountry].push(ref);\r\n    }\r\n\r\n    function getProductsForClient() external view returns(bytes32[] memory){\r\n        require(VerifiedKYC(kyc).getStatus(msg.sender)==3);\r\n        return productsRegistered[msg.sender];\r\n    }\r\n\r\n    function getIssuesForClient() external view returns(address[] memory){\r\n        require(VerifiedKYC(kyc).getStatus(msg.sender)==3);\r\n        return productsIssued[msg.sender];\r\n    }\r\n\r\n    function getProductsForCountry(bytes32 _country) external view returns(bytes32[] memory){\r\n        require(VerifiedKYC(kyc).getStatus(msg.sender)==3);\r\n        return productsRegisteredByCountry[_country];\r\n    }\r\n\r\n    function getIssuesForCountry(bytes32 _country) external view returns(address[] memory){\r\n        require(VerifiedKYC(kyc).getStatus(msg.sender)==3);\r\n        return productsIssuedByCountry[_country];\r\n    }\r\n\r\n    function getProducts() external view returns(bytes32[] memory){\r\n        require(VerifiedKYC(kyc).getStatus(msg.sender)==3);\r\n        return regRefs;\r\n    }\r\n\r\n    function getProduct(bytes32 ref) external view returns(VerifiedProducts.product memory){\r\n        require(VerifiedKYC(kyc).getStatus(msg.sender)==3);\r\n        product memory security = product ({\r\n            productCategory : registrations[ref].productCategory,\r\n            issuerName : registrations[ref].issuerName,\r\n            issuerAddress : registrations[ref].issuerAddress,\r\n            issuerCountry : registrations[ref].issuerCountry,\r\n            issuerSignatoryEmail : registrations[ref].issuerSignatoryEmail,\r\n            arrangerName : registrations[ref].arrangerName,\r\n            arrangerAddress : registrations[ref].arrangerAddress,\r\n            arrangerCountry : registrations[ref].arrangerCountry,\r\n            arrangerSignatoryEmail : registrations[ref].arrangerSignatoryEmail,\r\n            issue : registrations[ref].issue,\r\n            issuer : registrations[ref].issuer,\r\n            status : registrations[ref].status,\r\n            issuerRegistrationCertificate : registrations[ref].issuerRegistrationCertificate,\r\n            arrangerRegistrationCertificate : registrations[ref].arrangerRegistrationCertificate,\r\n            registrationDocuments : registrations[ref].registrationDocuments\r\n        });\r\n        return security;\r\n    }\r\n\r\n    function registerCertificate(bytes32 _ref, string calldata _issuerCertificate, string calldata _arrangerCertificate) external {\r\n        require(VerifiedKYC(kyc).getStatus(msg.sender)==3);\r\n        if(registrations[_ref].issuer==msg.sender){\r\n            registrations[_ref].issuerRegistrationCertificate = _issuerCertificate;\r\n            registrations[_ref].arrangerRegistrationCertificate = _arrangerCertificate;\r\n        }\r\n    }\r\n\r\n    function getCertificate(bytes32 _ref) external view returns(string memory, string memory){\r\n        require(VerifiedKYC(kyc).getStatus(msg.sender)==3);\r\n        (bytes32 role, ) = VerifiedClient(client).getRole(msg.sender);\r\n        require(role==\"DP\");\r\n        return (registrations[_ref].issuerRegistrationCertificate, registrations[_ref].arrangerRegistrationCertificate);\r\n    }\r\n\r\n    function confirmProduct(bytes32 _ref) external {\r\n        require(VerifiedKYC(kyc).getStatus(msg.sender)==3);\r\n        (bytes32 role, ) = VerifiedClient(client).getRole(msg.sender);\r\n        require(role==\"DP\");\r\n        bytes memory _payload = abi.encodeWithSignature(\"initialize(bytes32,bytes32,address,address,address,address,address,address)\", _ref, \r\n                                registrations[_ref].productCategory, registrations[_ref].issuer, msg.sender, owner, securityContract, securityRegistriesContract, viaFactoryContract);\r\n\r\n        //create issue\r\n        address _issue = deployMinimal(productIssuer[registrations[_ref].productCategory], _payload);\r\n        productsIssued[registrations[_ref].issuer].push(_issue);\r\n        productsIssuedByCountry[registrations[_ref].issuerCountry].push(_issue);\r\n        issues[_issue] = true;\r\n        emit ProductIssued(_issue, _ref, registrations[_ref].productCategory, registrations[_ref].issuerName, registrations[_ref].registrationDocuments);\r\n         \r\n        //map issue to product registration reference\r\n        registrations[_ref].status = true;\r\n        registrations[_ref].issue = _issue;\r\n    }\r\n\r\n    function getIssue(bytes32 _ref) external view returns(address){\r\n        return registrations[_ref].issue;\r\n    }\r\n\r\n    function getIssuerName(bytes32 _ref) external view returns(bytes32){\r\n        return registrations[_ref].issuerName;\r\n    }\r\n\r\n    function getIssuerAddress(bytes32 _ref) external view returns(address){\r\n        return registrations[_ref].issuer;\r\n    }\r\n\r\n    function registerPlatform(address _liquidityPlatform, address _owner) external {\r\n        require(owner==_owner);\r\n        for(uint i=0; i<regRefs.length; i++){\r\n            VerifiedIssues(registrations[regRefs[i]].issue).registerPlatform(_liquidityPlatform);\r\n        }\r\n    }\r\n\r\n    function checkIssue(address _issuer) external view returns(bool){\r\n        if(productsRegistered[_issuer].length>0)\r\n            return true;\r\n        else\r\n            return false;\r\n    }\r\n\r\n    function checkProduct(address _issue) external view returns(bool){\r\n        if(issues[_issue]==true)\r\n            return true;\r\n        else\r\n            return false;\r\n    }\r\n\r\n}\r\n",
  "sourcePath": "D:\\Code\\verified-securities\\securities\\contracts\\Products.sol",
  "compiler": {
    "name": "solc",
    "version": "0.5.7+commit.6da8b019.Emscripten.clang"
  },
  "schemaVersion": "3.4.3",
  "updatedAt": "2022-02-06T14:23:41.803Z",
  "networkType": "ethereum",
  "devdoc": {
    "methods": {}
  },
  "userdoc": {
    "methods": {}
  }
}