{
  "contractName": "Products",
  "abi": [
    {
      "constant": true,
      "inputs": [
        {
          "name": "_salt",
          "type": "uint256"
        },
        {
          "name": "_logic",
          "type": "address"
        },
        {
          "name": "_admin",
          "type": "address"
        },
        {
          "name": "_data",
          "type": "bytes"
        },
        {
          "name": "_signature",
          "type": "bytes"
        }
      ],
      "name": "getSigner",
      "outputs": [
        {
          "name": "",
          "type": "address"
        }
      ],
      "payable": false,
      "stateMutability": "view",
      "type": "function"
    },
    {
      "constant": false,
      "inputs": [
        {
          "name": "_salt",
          "type": "uint256"
        },
        {
          "name": "_logic",
          "type": "address"
        },
        {
          "name": "_admin",
          "type": "address"
        },
        {
          "name": "_data",
          "type": "bytes"
        },
        {
          "name": "_signature",
          "type": "bytes"
        }
      ],
      "name": "deploySigned",
      "outputs": [
        {
          "name": "",
          "type": "address"
        }
      ],
      "payable": false,
      "stateMutability": "nonpayable",
      "type": "function"
    },
    {
      "constant": false,
      "inputs": [
        {
          "name": "_salt",
          "type": "uint256"
        },
        {
          "name": "_logic",
          "type": "address"
        },
        {
          "name": "_admin",
          "type": "address"
        },
        {
          "name": "_data",
          "type": "bytes"
        }
      ],
      "name": "deploy",
      "outputs": [
        {
          "name": "",
          "type": "address"
        }
      ],
      "payable": false,
      "stateMutability": "nonpayable",
      "type": "function"
    },
    {
      "constant": true,
      "inputs": [
        {
          "name": "_salt",
          "type": "uint256"
        },
        {
          "name": "_sender",
          "type": "address"
        }
      ],
      "name": "getDeploymentAddress",
      "outputs": [
        {
          "name": "",
          "type": "address"
        }
      ],
      "payable": false,
      "stateMutability": "view",
      "type": "function"
    },
    {
      "constant": false,
      "inputs": [
        {
          "name": "_logic",
          "type": "address"
        },
        {
          "name": "_data",
          "type": "bytes"
        }
      ],
      "name": "deployMinimal",
      "outputs": [
        {
          "name": "proxy",
          "type": "address"
        }
      ],
      "payable": false,
      "stateMutability": "nonpayable",
      "type": "function"
    },
    {
      "anonymous": false,
      "inputs": [
        {
          "indexed": false,
          "name": "_issue",
          "type": "address"
        },
        {
          "indexed": false,
          "name": "_ref",
          "type": "bytes32"
        }
      ],
      "name": "ProductIssued",
      "type": "event"
    },
    {
      "anonymous": false,
      "inputs": [
        {
          "indexed": false,
          "name": "proxy",
          "type": "address"
        }
      ],
      "name": "ProxyCreated",
      "type": "event"
    },
    {
      "constant": false,
      "inputs": [
        {
          "name": "_client",
          "type": "address"
        },
        {
          "name": "_kyc",
          "type": "address"
        },
        {
          "name": "_issueContract",
          "type": "address"
        },
        {
          "name": "_securityContract",
          "type": "address"
        },
        {
          "name": "_securityRegistriesContract",
          "type": "address"
        },
        {
          "name": "_viaFactoryContract",
          "type": "address"
        }
      ],
      "name": "initialize",
      "outputs": [],
      "payable": false,
      "stateMutability": "nonpayable",
      "type": "function"
    },
    {
      "constant": false,
      "inputs": [
        {
          "name": "_productCategory",
          "type": "bytes32"
        },
        {
          "name": "_issuerName",
          "type": "bytes32"
        },
        {
          "name": "_issuerAddress",
          "type": "bytes32"
        },
        {
          "name": "_issuerCountry",
          "type": "bytes32"
        },
        {
          "name": "_issuerSignatoryEmail",
          "type": "bytes32"
        },
        {
          "name": "_arrangerName",
          "type": "bytes32"
        },
        {
          "name": "_arrangerAddress",
          "type": "bytes32"
        },
        {
          "name": "_arrangerCountry",
          "type": "bytes32"
        },
        {
          "name": "_arrangerSignatoryEmail",
          "type": "bytes32"
        },
        {
          "name": "_registrationDocuments",
          "type": "string"
        }
      ],
      "name": "recordProduct",
      "outputs": [],
      "payable": false,
      "stateMutability": "nonpayable",
      "type": "function"
    },
    {
      "constant": true,
      "inputs": [],
      "name": "getProductsForClient",
      "outputs": [
        {
          "name": "",
          "type": "bytes32[]"
        }
      ],
      "payable": false,
      "stateMutability": "view",
      "type": "function"
    },
    {
      "constant": true,
      "inputs": [
        {
          "name": "_country",
          "type": "bytes32"
        }
      ],
      "name": "getProductsForCountry",
      "outputs": [
        {
          "name": "",
          "type": "bytes32[]"
        }
      ],
      "payable": false,
      "stateMutability": "view",
      "type": "function"
    },
    {
      "constant": true,
      "inputs": [
        {
          "name": "ref",
          "type": "bytes32"
        }
      ],
      "name": "getProduct",
      "outputs": [
        {
          "components": [
            {
              "name": "productCategory",
              "type": "bytes32"
            },
            {
              "name": "issuerName",
              "type": "bytes32"
            },
            {
              "name": "issuerAddress",
              "type": "bytes32"
            },
            {
              "name": "issuerCountry",
              "type": "bytes32"
            },
            {
              "name": "issuerSignatoryEmail",
              "type": "bytes32"
            },
            {
              "name": "arrangerName",
              "type": "bytes32"
            },
            {
              "name": "arrangerAddress",
              "type": "bytes32"
            },
            {
              "name": "arrangerCountry",
              "type": "bytes32"
            },
            {
              "name": "arrangerSignatoryEmail",
              "type": "bytes32"
            },
            {
              "name": "issue",
              "type": "address"
            },
            {
              "name": "issuer",
              "type": "address"
            },
            {
              "name": "issuerRegistrationCertificate",
              "type": "string"
            },
            {
              "name": "arrangerRegistrationCertificate",
              "type": "string"
            },
            {
              "name": "registrationDocuments",
              "type": "string"
            }
          ],
          "name": "",
          "type": "tuple"
        }
      ],
      "payable": false,
      "stateMutability": "view",
      "type": "function"
    },
    {
      "constant": false,
      "inputs": [
        {
          "name": "_ref",
          "type": "bytes32"
        },
        {
          "name": "_issuerCertificate",
          "type": "string"
        },
        {
          "name": "_arrangerCertificate",
          "type": "string"
        }
      ],
      "name": "registerCertificate",
      "outputs": [],
      "payable": false,
      "stateMutability": "nonpayable",
      "type": "function"
    },
    {
      "constant": true,
      "inputs": [
        {
          "name": "_ref",
          "type": "bytes32"
        }
      ],
      "name": "getCertificate",
      "outputs": [
        {
          "name": "",
          "type": "string"
        },
        {
          "name": "",
          "type": "string"
        }
      ],
      "payable": false,
      "stateMutability": "view",
      "type": "function"
    },
    {
      "constant": false,
      "inputs": [
        {
          "name": "_ref",
          "type": "bytes32"
        }
      ],
      "name": "confirmProduct",
      "outputs": [],
      "payable": false,
      "stateMutability": "nonpayable",
      "type": "function"
    },
    {
      "constant": true,
      "inputs": [
        {
          "name": "_ref",
          "type": "bytes32"
        }
      ],
      "name": "getIssue",
      "outputs": [
        {
          "name": "",
          "type": "address"
        }
      ],
      "payable": false,
      "stateMutability": "view",
      "type": "function"
    },
    {
      "constant": true,
      "inputs": [
        {
          "name": "_ref",
          "type": "bytes32"
        }
      ],
      "name": "getIssuerName",
      "outputs": [
        {
          "name": "",
          "type": "bytes32"
        }
      ],
      "payable": false,
      "stateMutability": "view",
      "type": "function"
    },
    {
      "constant": true,
      "inputs": [
        {
          "name": "_ref",
          "type": "bytes32"
        }
      ],
      "name": "getIssuerAddress",
      "outputs": [
        {
          "name": "",
          "type": "address"
        }
      ],
      "payable": false,
      "stateMutability": "view",
      "type": "function"
    },
    {
      "constant": false,
      "inputs": [
        {
          "name": "_liquidityPlatform",
          "type": "address"
        },
        {
          "name": "_owner",
          "type": "address"
        }
      ],
      "name": "registerPlatform",
      "outputs": [],
      "payable": false,
      "stateMutability": "nonpayable",
      "type": "function"
    },
    {
      "constant": true,
      "inputs": [
        {
          "name": "_issuer",
          "type": "address"
        }
      ],
      "name": "checkIssue",
      "outputs": [
        {
          "name": "",
          "type": "bool"
        }
      ],
      "payable": false,
      "stateMutability": "view",
      "type": "function"
    }
  ],
  "bytecode": "0x6080604081905261001060a0610034565b601f1982820381018352601f90910116604052805160209190910120600055610041565b6109a680612f9883390190565b612f48806100506000396000f3fe608060405234801561001057600080fd5b50600436106101165760003560e01c8063aefc542b116100a2578063e6d439d111610071578063e6d439d11461025e578063f333fe0814610271578063f4fcffa414610292578063fc3b4f5f146102a5578063ff3018b1146102b857610116565b8063aefc542b14610205578063b3eeb5e214610225578063cc2a9a5b14610238578063d3cd09631461024b57610116565b80636150864c116100e95780636150864c1461019757806381ae1f5b146101aa57806384aea921146101bd578063a4424e82146101dd578063ad86bc38146101f057610116565b8063290f8f561461011b578063332d6626146101445780633a20e9df14610157578063572d829914610177575b600080fd5b61012e610129366004611da7565b6102c0565b60405161013b919061229b565b60405180910390f35b61012e610152366004611da7565b610313565b61016a610165366004611b56565b610364565b60405161013b9190612437565b61018a610185366004611b56565b610680565b60405161013b919061231e565b61012e6101a5366004611d2e565b610695565b61012e6101b8366004611d0f565b6106a4565b6101d06101cb366004611b56565b6106fd565b60405161013b91906122ff565b61012e6101eb366004611b56565b61091e565b6102036101fe366004611a18565b61093c565b005b6102186102133660046119f2565b610a05565b60405161013b9190612310565b61012e610233366004611ad9565b610a82565b610203610246366004611a52565b610b96565b610203610259366004611c88565b610c90565b61020361026c366004611b56565b610d83565b61028461027f366004611b56565b610fb3565b60405161013b9291906123d8565b61012e6102a0366004611b56565b61121b565b6102036102b3366004611b92565b611236565b6101d06113d6565b6000806102fa87878787306040516020016102df959493929190612246565b60405160208183030381529060405280519060200120611536565b90506103068184611566565b9150505b95945050505050565b60008061032387878787876102c0565b90506001600160a01b03811661035757604051600160e51b62461bcd02815260040161034e90612417565b60405180910390fd5b6103068787878785611642565b61036c611789565b603754604051600160e01b6330ccebb50281526001600160a01b03909116906330ccebb59061039f9033906004016122a9565b60206040518083038186803b1580156103b757600080fd5b505afa1580156103cb573d6000803e3d6000fd5b505050506040513d601f19601f820116820180604052506103ef9190810190611b74565b6003146103fb57600080fd5b610403611789565b604080516101c0810182526000858152603560208181528483208054855260018082015483870152600280830154878901526003830154606088015260048301546080880152600583015460a0880152600683015460c0880152600783015460e088015260088301546101008089019190915260098401546001600160a01b039081166101208a0152600a85015416610140890152958b9052938352600b90910180548751928116159095026000190190941692909204601f810182900482028301820190955284825292936101608501939192918301828280156105295780601f106104fe57610100808354040283529160200191610529565b820191906000526020600020905b81548152906001019060200180831161050c57829003601f168201915b5050509183525050600085815260356020908152604091829020600c0180548351601f600260001961010060018616150201909316929092049182018490048402810184019094528084529382019390918301828280156105cb5780601f106105a0576101008083540402835291602001916105cb565b820191906000526020600020905b8154815290600101906020018083116105ae57829003601f168201915b5050509183525050600085815260356020908152604091829020600d0180548351601f6002600019610100600186161502019093169290920491820184900484028101840190945280845293820193909183018282801561066d5780601f106106425761010080835404028352916020019161066d565b820191906000526020600020905b81548152906001019060200180831161065057829003601f168201915b505050919092525090925050505b919050565b60009081526035602052604090206001015490565b600061030a8585858533611642565b6000806106b184846116f7565b9050600060ff60f81b30836000546040516020016106d294939291906121ac565b604051602081830303815290604052805190602001209050606081901b60601c925050505b92915050565b603754604051600160e01b6330ccebb50281526060916001600160a01b0316906330ccebb5906107319033906004016122a9565b60206040518083038186803b15801561074957600080fd5b505afa15801561075d573d6000803e3d6000fd5b505050506040513d601f19601f820116820180604052506107819190810190611b74565b60031461078d57600080fd5b603854604051600160e01b633c6ff32b0281526060916001600160a01b031690633c6ff32b906107c19086906004016123fd565b60006040518083038186803b1580156107d957600080fd5b505afa1580156107ed573d6000803e3d6000fd5b505050506040513d6000823e601f3d908101601f191682016040526108159190810190611b21565b905060005b815181101561091757336001600160a01b031682828151811061083957fe5b60200260200101516001600160a01b0316141561090f5760365460408051828152602080840282010190915260609082801561087f578160200160208202803883390190505b50600093509050825b82841015610903578660356000603687815481106108a257fe5b906000526020600020015481526020019081526020016000206003015414156108f857603684815481106108d257fe5b90600052602060002001548282815181106108e957fe5b60209081029190910101526001015b600190930192610888565b50935061067b92505050565b60010161081a565b5050919050565b6000908152603560205260409020600a01546001600160a01b031690565b603d546001600160a01b0382811691161461095657600080fd5b60005b603654811015610a0057603460006036838154811061097457fe5b600091825260208083209091015483528201929092526040908101909120549051600160e11b63699a07db0281526001600160a01b039091169063d3340fb6906109c290869060040161229b565b600060405180830381600087803b1580156109dc57600080fd5b505af11580156109f0573d6000803e3d6000fd5b5050600190920191506109599050565b505050565b600080805b603654811015610a6757836001600160a01b03166034600060368481548110610a2f57fe5b600091825260208083209091015483528201929092526040019020546001600160a01b03161415610a5f57600191505b600101610a0a565b508015610a7857600191505061067b565b600091505061067b565b6000808360601b90506040517f3d602d80600a3d3981f3363d3d373d3d3d363d7300000000000000000000000081528160148201527f5af43d82803e903d91602b57fd5bf3000000000000000000000000000000000060288201526037816000f09250507efffc2da0b561cae30d9826d37709e9421c4725faebc226cbbb7ef5fc5e734982604051610b14919061229b565b60405180910390a1825115610b8f576000826001600160a01b031684604051610b3d91906121f4565b6000604051808303816000865af19150503d8060008114610b7a576040519150601f19603f3d011682016040523d82523d6000602084013e610b7f565b606091505b5050905080610b8d57600080fd5b505b5092915050565b600154610100900460ff1680610baf5750610baf61172a565b80610bbd575060015460ff16155b610bdc57604051600160e51b62461bcd02815260040161034e90612427565b600154610100900460ff16158015610c06576001805460ff1961ff00199091166101001716811790555b603880546001600160a01b03808a166001600160a01b0319928316179092556037805489841690831617905560398054888416908316179055603a8054878416908316179055603b8054868416908316179055603c805492851692821692909217909155603d8054909116331790558015610c87576001805461ff00191690555b50505050505050565b603754604051600160e01b6330ccebb50281526001600160a01b03909116906330ccebb590610cc39033906004016122a9565b60206040518083038186803b158015610cdb57600080fd5b505afa158015610cef573d6000803e3d6000fd5b505050506040513d601f19601f82011682018060405250610d139190810190611b74565b600314610d1f57600080fd5b6000858152603560205260409020600a01546001600160a01b0316331415610d7c576000858152603560205260409020610d5d90600b0185856117ff565b506000858152603560205260409020610d7a90600c0183836117ff565b505b5050505050565b603754604051600160e01b6330ccebb50281526001600160a01b03909116906330ccebb590610db69033906004016122a9565b60206040518083038186803b158015610dce57600080fd5b505afa158015610de2573d6000803e3d6000fd5b505050506040513d601f19601f82011682018060405250610e069190810190611b74565b600314610e1257600080fd5b603854604051600160e01b63442767330281526001600160a01b0390911690634427673390610e459033906004016122a9565b60206040518083038186803b158015610e5d57600080fd5b505afa158015610e71573d6000803e3d6000fd5b505050506040513d601f19601f82011682018060405250610e959190810190611b74565b600160f41b6104450214610ea857600080fd5b600081815260356020526040908190208054600a90910154603d54603a54603b54603c549551606096610eff96899690956001600160a01b039182169533959183169490831693918316929091169060240161232c565b60408051601f198184030181529190526020810180516001600160e01b0316600160e01b634afc82bd02179052603954909150600090610f48906001600160a01b031683610a82565b90507feb3cd902a6a3347949d4ebe5e3d7ed0ee075894197167e3e3e60f9ae961a9fed8184604051610f7b9291906122e4565b60405180910390a160009283526034602052604090922080546001600160a01b0319166001600160a01b039093169290921790915550565b603754604051600160e01b6330ccebb502815260609182916001600160a01b03909116906330ccebb590610feb9033906004016122a9565b60206040518083038186803b15801561100357600080fd5b505afa158015611017573d6000803e3d6000fd5b505050506040513d601f19601f8201168201806040525061103b9190810190611b74565b60031461104757600080fd5b603854604051600160e01b63442767330281526001600160a01b039091169063442767339061107a9033906004016122a9565b60206040518083038186803b15801561109257600080fd5b505afa1580156110a6573d6000803e3d6000fd5b505050506040513d601f19601f820116820180604052506110ca9190810190611b74565b600160f41b61044502146110dd57600080fd5b600083815260356020908152604091829020600b810180548451601f600260001961010060018616150201909316929092049182018590048502810185019095528085529093600c9092019284919083018282801561117d5780601f106111525761010080835404028352916020019161117d565b820191906000526020600020905b81548152906001019060200180831161116057829003601f168201915b5050845460408051602060026001851615610100026000190190941693909304601f81018490048402820184019092528181529597508694509250840190508282801561120b5780601f106111e05761010080835404028352916020019161120b565b820191906000526020600020905b8154815290600101906020018083116111ee57829003601f168201915b5050505050905091509150915091565b6000908152603460205260409020546001600160a01b031690565b603754604051600160e01b6330ccebb50281526001600160a01b03909116906330ccebb5906112699033906004016122a9565b60206040518083038186803b15801561128157600080fd5b505afa158015611295573d6000803e3d6000fd5b505050506040513d601f19601f820116820180604052506112b99190810190611b74565b6003146112c557600080fd5b8a600160d81b6453746f636b0214806112e757508a600160e21b63109bdb9902145b6112f057600080fd5b60003342604051602001611305929190612186565b60408051601f1981840301815291815281516020928301206036805460018181019092557f4a11f94e20a93c79f6ec743a1954ec4fc2c08429ae2122118bf234b2185c81b80182905560008281526035909452919092208e81559081018d9055600281018c9055600381018b9055600481018a9055600581018990556006810188905560078101879055600881018690559091506113a790600d0184846117ff565b506000908152603560205260409020600a0180546001600160a01b031916331790555050505050505050505050565b603754604051600160e01b6330ccebb50281526060916001600160a01b0316906330ccebb59061140a9033906004016122a9565b60206040518083038186803b15801561142257600080fd5b505afa158015611436573d6000803e3d6000fd5b505050506040513d601f19601f8201168201806040525061145a9190810190611b74565b60031461146657600080fd5b603654604080518281526020808402820101909152606090828015611495578160200160208202803883390190505b5090506000805b8381101561152c57336001600160a01b031660356000603684815481106114bf57fe5b600091825260208083209091015483528201929092526040019020600a01546001600160a01b0316141561152457603681815481106114fa57fe5b906000526020600020015483838151811061151157fe5b6020026020010181815250508160010191505b60010161149c565b5090925050505b90565b6000816040516020016115499190612200565b604051602081830303815290604052805190602001209050919050565b60008151604114611579575060006106f7565b60208201516040830151606084015160001a7f7fffffffffffffffffffffffffffffff5d576e7357a4501ddfe92f46681b20a08211156115bf57600093505050506106f7565b8060ff16601b141580156115d757508060ff16601c14155b156115e857600093505050506106f7565b6001868285856040516000815260200160405260405161160b94939291906123a3565b6020604051602081039080840390855afa15801561162d573d6000803e3d6000fd5b5050604051601f190151979650505050505050565b60008061164f8784611730565b90507efffc2da0b561cae30d9826d37709e9421c4725faebc226cbbb7ef5fc5e73498160405161167f91906122a9565b60405180910390a1604051600160e01b63cf7a1d770281526001600160a01b0382169063cf7a1d77906116ba908990899089906004016122b7565b600060405180830381600087803b1580156116d457600080fd5b505af11580156116e8573d6000803e3d6000fd5b50929998505050505050505050565b6000828260405160200161170c929190612220565b60405160208183030381529060405280519060200120905092915050565b303b1590565b6000806060604051806020016117459061187d565b601f1982820381018352601f909101166040529050600061176686866116f7565b9050808251602084016000f59250823b61177f57600080fd5b5090949350505050565b604080516101c08101825260008082526020820181905291810182905260608082018390526080820183905260a0820183905260c0820183905260e0820183905261010082018390526101208201839052610140820192909252610160810182905261018081018290526101a081019190915290565b828054600181600116156101000203166002900490600052602060002090601f016020900481019282601f106118405782800160ff1982351617855561186d565b8280016001018555821561186d579182015b8281111561186d578235825591602001919060010190611852565b5061187992915061188a565b5090565b6109a68061256983390190565b61153391905b808211156118795760008155600101611890565b60006118b082356124cb565b9392505050565b60006118b082516124cb565b600082601f8301126118d457600080fd5b81516118e76118e28261246f565b612448565b9150818183526020840193506020810190508385602084028201111561190c57600080fd5b60005b83811015611938578161192288826118b7565b845250602092830192919091019060010161190f565b5050505092915050565b60006118b08235611533565b60006118b08251611533565b600082601f83011261196b57600080fd5b81356119796118e282612490565b9150808252602083016020830185838301111561199557600080fd5b6119a083828461250b565b50505092915050565b60008083601f8401126119bb57600080fd5b50813567ffffffffffffffff8111156119d357600080fd5b6020830191508360018202830111156119eb57600080fd5b9250929050565b600060208284031215611a0457600080fd5b6000611a1084846118a4565b949350505050565b60008060408385031215611a2b57600080fd5b6000611a3785856118a4565b9250506020611a48858286016118a4565b9150509250929050565b60008060008060008060c08789031215611a6b57600080fd5b6000611a7789896118a4565b9650506020611a8889828a016118a4565b9550506040611a9989828a016118a4565b9450506060611aaa89828a016118a4565b9350506080611abb89828a016118a4565b92505060a0611acc89828a016118a4565b9150509295509295509295565b60008060408385031215611aec57600080fd5b6000611af885856118a4565b925050602083013567ffffffffffffffff811115611b1557600080fd5b611a488582860161195a565b600060208284031215611b3357600080fd5b815167ffffffffffffffff811115611b4a57600080fd5b611a10848285016118c3565b600060208284031215611b6857600080fd5b6000611a108484611942565b600060208284031215611b8657600080fd5b6000611a10848461194e565b60008060008060008060008060008060006101408c8e031215611bb457600080fd5b6000611bc08e8e611942565b9b50506020611bd18e828f01611942565b9a50506040611be28e828f01611942565b9950506060611bf38e828f01611942565b9850506080611c048e828f01611942565b97505060a0611c158e828f01611942565b96505060c0611c268e828f01611942565b95505060e0611c378e828f01611942565b945050610100611c498e828f01611942565b9350506101208c013567ffffffffffffffff811115611c6757600080fd5b611c738e828f016119a9565b92509250509295989b509295989b9093969950565b600080600080600060608688031215611ca057600080fd5b6000611cac8888611942565b955050602086013567ffffffffffffffff811115611cc957600080fd5b611cd5888289016119a9565b9450945050604086013567ffffffffffffffff811115611cf457600080fd5b611d00888289016119a9565b92509250509295509295909350565b60008060408385031215611d2257600080fd5b6000611a378585611942565b60008060008060808587031215611d4457600080fd5b6000611d508787611942565b9450506020611d61878288016118a4565b9350506040611d72878288016118a4565b925050606085013567ffffffffffffffff811115611d8f57600080fd5b611d9b8782880161195a565b91505092959194509250565b600080600080600060a08688031215611dbf57600080fd5b6000611dcb8888611942565b9550506020611ddc888289016118a4565b9450506040611ded888289016118a4565b935050606086013567ffffffffffffffff811115611e0a57600080fd5b611e168882890161195a565b925050608086013567ffffffffffffffff811115611e3357600080fd5b611e3f8882890161195a565b9150509295509295909350565b6000611e588383611ef8565b505060200190565b611e69816124fa565b82525050565b611e69816124cb565b611e69611e84826124cb565b612547565b6000611e94826124be565b611e9e81856124c2565b9350611ea9836124b8565b60005b82811015611ed457611ebf868351611e4c565b9550611eca826124b8565b9150600101611eac565b5093949350505050565b611e69816124d6565b611e69611ef3826124db565b611533565b611e6981611533565b611e69611ef382611533565b6000611f18826124be565b611f2281856124c2565b9350611f32818560208601612517565b611f3b81612558565b9093019392505050565b6000611f50826124be565b611f5a818561067b565b9350611f6a818560208601612517565b9290920192915050565b6000611f81601c8361067b565b7f19457468657265756d205369676e6564204d6573736167653a0a3332000000008152601c0192915050565b600160f41b610445029052565b6000611fc76011836124c2565b7f496e76616c6964207369676e6174757265000000000000000000000000000000815260200192915050565b6000612000602e836124c2565b7f436f6e747261637420696e7374616e63652068617320616c726561647920626581527f656e20696e697469616c697a6564000000000000000000000000000000000000602082015260400192915050565b80516000906101c08401906120678582611ef8565b50602083015161207a6020860182611ef8565b50604083015161208d6040860182611ef8565b5060608301516120a06060860182611ef8565b5060808301516120b36080860182611ef8565b5060a08301516120c660a0860182611ef8565b5060c08301516120d960c0860182611ef8565b5060e08301516120ec60e0860182611ef8565b50610100830151612101610100860182611ef8565b50610120830151612116610120860182611e6f565b5061014083015161212b610140860182611e6f565b506101608301518482036101608601526121458282611f0d565b9150506101808301518482036101808601526121618282611f0d565b9150506101a08301518482036101a086015261030a8282611f0d565b611e69816124f4565b60006121928285611e78565b6014820191506121a28284611f01565b5060200192915050565b60006121b88287611ee7565b6001820191506121c88286611e78565b6014820191506121d88285611f01565b6020820191506121e88284611f01565b50602001949350505050565b60006118b08284611f45565b600061220b82611f74565b91506122178284611f01565b50602001919050565b600061222c8285611f01565b60208201915061223c8284611e78565b5060140192915050565b60006122528288611f01565b6020820191506122628287611e78565b6014820191506122728286611e78565b6014820191506122828285611f45565b915061228e8284611e78565b5060140195945050505050565b602081016106f78284611e6f565b602081016106f78284611e60565b606081016122c58286611e6f565b6122d26020830185611e6f565b818103604083015261030a8184611f0d565b604081016122f28285611e6f565b6118b06020830184611ef8565b602080825281016118b08184611e89565b602081016106f78284611ede565b602081016106f78284611ef8565b610100810161233b828b611ef8565b612348602083018a611ef8565b6123556040830189611e6f565b6123626060830188611e6f565b61236f6080830187611e6f565b61237c60a0830186611e6f565b61238960c0830185611e6f565b61239660e0830184611e6f565b9998505050505050505050565b608081016123b18287611ef8565b6123be602083018661217d565b6123cb6040830185611ef8565b61030a6060830184611ef8565b604080825281016123e98185611f0d565b90508181036020830152611a108184611f0d565b6040810161240a82611fad565b6106f76020830184611ef8565b602080825281016106f781611fba565b602080825281016106f781611ff3565b602080825281016118b08184612052565b60405181810167ffffffffffffffff8111828210171561246757600080fd5b604052919050565b600067ffffffffffffffff82111561248657600080fd5b5060209081020190565b600067ffffffffffffffff8211156124a757600080fd5b506020601f91909101601f19160190565b60200190565b5190565b90815260200190565b60006106f7826124e8565b151590565b6001600160f81b03191690565b6001600160a01b031690565b60ff1690565b60006106f78260006106f7826124cb565b82818337506000910152565b60005b8381101561253257818101518382015260200161251a565b83811115612541576000848401525b50505050565b60006106f78260006106f782612562565b601f01601f191690565b60601b9056fe608060405234801561001057600080fd5b50610986806100206000396000f3fe6080604052600436106100705760003560e01c80638f2839701161004e5780638f2839701461015e578063cf7a1d7714610191578063d1f5789414610250578063f851a4401461030657610070565b80633659cfe61461007a5780634f1ef286146100ad5780635c60da1b1461012d575b61007861031b565b005b34801561008657600080fd5b506100786004803603602081101561009d57600080fd5b50356001600160a01b0316610335565b610078600480360360408110156100c357600080fd5b6001600160a01b0382351691908101906040810160208201356401000000008111156100ee57600080fd5b82018360208201111561010057600080fd5b8035906020019184600183028401116401000000008311171561012257600080fd5b50909250905061036f565b34801561013957600080fd5b5061014261041c565b604080516001600160a01b039092168252519081900360200190f35b34801561016a57600080fd5b506100786004803603602081101561018157600080fd5b50356001600160a01b0316610459565b610078600480360360608110156101a757600080fd5b6001600160a01b0382358116926020810135909116918101906060810160408201356401000000008111156101db57600080fd5b8201836020820111156101ed57600080fd5b8035906020019184600183028401116401000000008311171561020f57600080fd5b91908080601f016020809104026020016040519081016040528093929190818152602001838380828437600092019190915250929550610516945050505050565b6100786004803603604081101561026657600080fd5b6001600160a01b03823516919081019060408101602082013564010000000081111561029157600080fd5b8201836020820111156102a357600080fd5b803590602001918460018302840111640100000000831117156102c557600080fd5b91908080601f0160208091040260200160405190810160405280939291908181526020018383808284376000920191909152509295506105a6945050505050565b34801561031257600080fd5b506101426106e6565b610323610711565b61033361032e610774565b610799565b565b61033d6107bd565b6001600160a01b0316336001600160a01b031614156103645761035f816107e2565b61036c565b61036c61031b565b50565b6103776107bd565b6001600160a01b0316336001600160a01b0316141561040f57610399836107e2565b6000836001600160a01b031683836040518083838082843760405192019450600093509091505080830381855af49150503d80600081146103f6576040519150601f19603f3d011682016040523d82523d6000602084013e6103fb565b606091505b505090508061040957600080fd5b50610417565b61041761031b565b505050565b60006104266107bd565b6001600160a01b0316336001600160a01b0316141561044e57610447610774565b9050610456565b61045661031b565b90565b6104616107bd565b6001600160a01b0316336001600160a01b03161415610364576001600160a01b0381166104c257604051600160e51b62461bcd0281526004018080602001828103825260368152602001806108ea6036913960400191505060405180910390fd5b7f7e644d79422f17c01e4894b5f4f588d331ebfa28653d42ae832dc59e38c9798f6104eb6107bd565b604080516001600160a01b03928316815291841660208301528051918290030190a161035f81610822565b6000610520610774565b6001600160a01b03161461053357600080fd5b61053d83826105a6565b604080517f656970313936372e70726f78792e61646d696e00000000000000000000000000815290519081900360130190207fb53127684a568b3173ae13b9f8a6016e243e63b6e8ee1178d6a717850b5d61036000199091011461059d57fe5b61041782610822565b60006105b0610774565b6001600160a01b0316146105c357600080fd5b604080517f656970313936372e70726f78792e696d706c656d656e746174696f6e000000008152905190819003601c0190207f360894a13ba1a3210667c828492db98dca3e2076cc3735a920a3ca505d382bbc6000199091011461062357fe5b61062c82610846565b8051156106e2576000826001600160a01b0316826040518082805190602001908083835b6020831061066f5780518252601f199092019160209182019101610650565b6001836020036101000a038019825116818451168082178552505050505050905001915050600060405180830381855af49150503d80600081146106cf576040519150601f19603f3d011682016040523d82523d6000602084013e6106d4565b606091505b505090508061041757600080fd5b5050565b60006106f06107bd565b6001600160a01b0316336001600160a01b0316141561044e576104476107bd565b6107196107bd565b6001600160a01b0316336001600160a01b0316141561076c57604051600160e51b62461bcd0281526004018080602001828103825260328152602001806108b86032913960400191505060405180910390fd5b610333610333565b7f360894a13ba1a3210667c828492db98dca3e2076cc3735a920a3ca505d382bbc5490565b3660008037600080366000845af43d6000803e8080156107b8573d6000f35b3d6000fd5b7fb53127684a568b3173ae13b9f8a6016e243e63b6e8ee1178d6a717850b5d61035490565b6107eb81610846565b6040516001600160a01b038216907fbc7cd75a20ee27fd9adebab32041f755214dbc6bffa90cc0225b39da2e5c2d3b90600090a250565b7fb53127684a568b3173ae13b9f8a6016e243e63b6e8ee1178d6a717850b5d610355565b61084f816108b1565b61088d57604051600160e51b62461bcd02815260040180806020018281038252603b815260200180610920603b913960400191505060405180910390fd5b7f360894a13ba1a3210667c828492db98dca3e2076cc3735a920a3ca505d382bbc55565b3b15159056fe43616e6e6f742063616c6c2066616c6c6261636b2066756e6374696f6e2066726f6d207468652070726f78792061646d696e43616e6e6f74206368616e6765207468652061646d696e206f6620612070726f787920746f20746865207a65726f206164647265737343616e6e6f742073657420612070726f787920696d706c656d656e746174696f6e20746f2061206e6f6e2d636f6e74726163742061646472657373a165627a7a72305820acd86240912c703ba88ccefef3db77e88d3507353c7c194b0b27eed571ae96c90029a265627a7a723058200e165daac9f5e984f33c775cabd4a57c47e61a240849698cd7a88f9cc59654bb6c6578706572696d656e74616cf50037608060405234801561001057600080fd5b50610986806100206000396000f3fe6080604052600436106100705760003560e01c80638f2839701161004e5780638f2839701461015e578063cf7a1d7714610191578063d1f5789414610250578063f851a4401461030657610070565b80633659cfe61461007a5780634f1ef286146100ad5780635c60da1b1461012d575b61007861031b565b005b34801561008657600080fd5b506100786004803603602081101561009d57600080fd5b50356001600160a01b0316610335565b610078600480360360408110156100c357600080fd5b6001600160a01b0382351691908101906040810160208201356401000000008111156100ee57600080fd5b82018360208201111561010057600080fd5b8035906020019184600183028401116401000000008311171561012257600080fd5b50909250905061036f565b34801561013957600080fd5b5061014261041c565b604080516001600160a01b039092168252519081900360200190f35b34801561016a57600080fd5b506100786004803603602081101561018157600080fd5b50356001600160a01b0316610459565b610078600480360360608110156101a757600080fd5b6001600160a01b0382358116926020810135909116918101906060810160408201356401000000008111156101db57600080fd5b8201836020820111156101ed57600080fd5b8035906020019184600183028401116401000000008311171561020f57600080fd5b91908080601f016020809104026020016040519081016040528093929190818152602001838380828437600092019190915250929550610516945050505050565b6100786004803603604081101561026657600080fd5b6001600160a01b03823516919081019060408101602082013564010000000081111561029157600080fd5b8201836020820111156102a357600080fd5b803590602001918460018302840111640100000000831117156102c557600080fd5b91908080601f0160208091040260200160405190810160405280939291908181526020018383808284376000920191909152509295506105a6945050505050565b34801561031257600080fd5b506101426106e6565b610323610711565b61033361032e610774565b610799565b565b61033d6107bd565b6001600160a01b0316336001600160a01b031614156103645761035f816107e2565b61036c565b61036c61031b565b50565b6103776107bd565b6001600160a01b0316336001600160a01b0316141561040f57610399836107e2565b6000836001600160a01b031683836040518083838082843760405192019450600093509091505080830381855af49150503d80600081146103f6576040519150601f19603f3d011682016040523d82523d6000602084013e6103fb565b606091505b505090508061040957600080fd5b50610417565b61041761031b565b505050565b60006104266107bd565b6001600160a01b0316336001600160a01b0316141561044e57610447610774565b9050610456565b61045661031b565b90565b6104616107bd565b6001600160a01b0316336001600160a01b03161415610364576001600160a01b0381166104c257604051600160e51b62461bcd0281526004018080602001828103825260368152602001806108ea6036913960400191505060405180910390fd5b7f7e644d79422f17c01e4894b5f4f588d331ebfa28653d42ae832dc59e38c9798f6104eb6107bd565b604080516001600160a01b03928316815291841660208301528051918290030190a161035f81610822565b6000610520610774565b6001600160a01b03161461053357600080fd5b61053d83826105a6565b604080517f656970313936372e70726f78792e61646d696e00000000000000000000000000815290519081900360130190207fb53127684a568b3173ae13b9f8a6016e243e63b6e8ee1178d6a717850b5d61036000199091011461059d57fe5b61041782610822565b60006105b0610774565b6001600160a01b0316146105c357600080fd5b604080517f656970313936372e70726f78792e696d706c656d656e746174696f6e000000008152905190819003601c0190207f360894a13ba1a3210667c828492db98dca3e2076cc3735a920a3ca505d382bbc6000199091011461062357fe5b61062c82610846565b8051156106e2576000826001600160a01b0316826040518082805190602001908083835b6020831061066f5780518252601f199092019160209182019101610650565b6001836020036101000a038019825116818451168082178552505050505050905001915050600060405180830381855af49150503d80600081146106cf576040519150601f19603f3d011682016040523d82523d6000602084013e6106d4565b606091505b505090508061041757600080fd5b5050565b60006106f06107bd565b6001600160a01b0316336001600160a01b0316141561044e576104476107bd565b6107196107bd565b6001600160a01b0316336001600160a01b0316141561076c57604051600160e51b62461bcd0281526004018080602001828103825260328152602001806108b86032913960400191505060405180910390fd5b610333610333565b7f360894a13ba1a3210667c828492db98dca3e2076cc3735a920a3ca505d382bbc5490565b3660008037600080366000845af43d6000803e8080156107b8573d6000f35b3d6000fd5b7fb53127684a568b3173ae13b9f8a6016e243e63b6e8ee1178d6a717850b5d61035490565b6107eb81610846565b6040516001600160a01b038216907fbc7cd75a20ee27fd9adebab32041f755214dbc6bffa90cc0225b39da2e5c2d3b90600090a250565b7fb53127684a568b3173ae13b9f8a6016e243e63b6e8ee1178d6a717850b5d610355565b61084f816108b1565b61088d57604051600160e51b62461bcd02815260040180806020018281038252603b815260200180610920603b913960400191505060405180910390fd5b7f360894a13ba1a3210667c828492db98dca3e2076cc3735a920a3ca505d382bbc55565b3b15159056fe43616e6e6f742063616c6c2066616c6c6261636b2066756e6374696f6e2066726f6d207468652070726f78792061646d696e43616e6e6f74206368616e6765207468652061646d696e206f6620612070726f787920746f20746865207a65726f206164647265737343616e6e6f742073657420612070726f787920696d706c656d656e746174696f6e20746f2061206e6f6e2d636f6e74726163742061646472657373a165627a7a72305820acd86240912c703ba88ccefef3db77e88d3507353c7c194b0b27eed571ae96c90029",
  "source": "// Verified financial products\r\n// Define products, accepts issuing documentation for registrar, create issues of products\r\n// (c) Kallol Borah, Verified Network, 2021\r\n\r\npragma solidity 0.5.7;\r\npragma experimental ABIEncoderV2;\r\n\r\nimport \"./interfaces/VerifiedKYC.sol\";\r\nimport \"./interfaces/VerifiedClient.sol\";\r\nimport \"./interfaces/VerifiedIssues.sol\";\r\nimport \"./interfaces/VerifiedProducts.sol\";\r\nimport \"@openzeppelin/upgrades/contracts/Initializable.sol\";\r\nimport \"@openzeppelin/upgrades/contracts/upgradeability/ProxyFactory.sol\";\r\n\r\ncontract Products is VerifiedProducts, ProxyFactory, Initializable {\r\n\r\n    //mapping of product registration ref to issue\r\n    mapping(bytes32 => address) private issues;\r\n\r\n    //mapping of registration reference to registration record\r\n    mapping(bytes32 => product) private registrations;\r\n\r\n    //array of registration requests\r\n    bytes32[] regRefs;\r\n\r\n    address kyc;\r\n    address client;\r\n    address issueContract;\r\n    address securityContract;\r\n    address securityRegistriesContract;\r\n    address viaFactoryContract;\r\n    address owner;\r\n\r\n    event ProductIssued(address _issue, bytes32 _ref);\r\n\r\n    function initialize(address _client, address _kyc, address _issueContract, address _securityContract, address _securityRegistriesContract, address _viaFactoryContract) public initializer{\r\n        client = _client;\r\n        kyc = _kyc;\r\n        issueContract = _issueContract;\r\n        securityContract = _securityContract;\r\n        securityRegistriesContract = _securityRegistriesContract;\r\n        viaFactoryContract = _viaFactoryContract;\r\n        owner = msg.sender;\r\n    }\r\n\r\n    function recordProduct( bytes32 _productCategory,\r\n                            bytes32 _issuerName,\r\n                            bytes32 _issuerAddress,\r\n                            bytes32 _issuerCountry,\r\n                            bytes32 _issuerSignatoryEmail,\r\n                            bytes32 _arrangerName,\r\n                            bytes32 _arrangerAddress,\r\n                            bytes32 _arrangerCountry,\r\n                            bytes32 _arrangerSignatoryEmail,\r\n                            string calldata _registrationDocuments\r\n                            ) external{\r\n        require(VerifiedKYC(kyc).getStatus(msg.sender)==3);\r\n        require(_productCategory==\"Stock\" || _productCategory==\"Bond\");\r\n        bytes32 ref = keccak256(abi.encodePacked(msg.sender, now));\r\n        regRefs.push(ref);\r\n        registrations[ref].productCategory = _productCategory;\r\n        registrations[ref].issuerName = _issuerName;\r\n        registrations[ref].issuerAddress = _issuerAddress;\r\n        registrations[ref].issuerCountry = _issuerCountry;\r\n        registrations[ref].issuerSignatoryEmail = _issuerSignatoryEmail;\r\n        registrations[ref].arrangerName = _arrangerName;\r\n        registrations[ref].arrangerAddress = _arrangerAddress;\r\n        registrations[ref].arrangerCountry = _arrangerCountry;\r\n        registrations[ref].arrangerSignatoryEmail = _arrangerSignatoryEmail;\r\n        registrations[ref].registrationDocuments = _registrationDocuments;\r\n        registrations[ref].issuer = msg.sender;\r\n    }\r\n\r\n    function getProductsForClient() external view returns(bytes32[] memory){\r\n        require(VerifiedKYC(kyc).getStatus(msg.sender)==3);\r\n        uint size = regRefs.length;\r\n        bytes32[] memory resp = new bytes32[](size);\r\n        uint count = 0;\r\n        for(uint i=0; i<size; i++){\r\n            if(registrations[regRefs[i]].issuer == msg.sender){\r\n                resp[count] = regRefs[i];\r\n                count = count + 1;\r\n            }\r\n        }\r\n        return resp;\r\n    }\r\n\r\n    function getProductsForCountry(bytes32 _country) external view returns(bytes32[] memory){\r\n        require(VerifiedKYC(kyc).getStatus(msg.sender)==3);\r\n        address[] memory managers = VerifiedClient(client).getManagers(\"DP\", _country);\r\n        for(uint i=0; i<managers.length; i++){\r\n            if(managers[i]==msg.sender){\r\n                uint size = regRefs.length;\r\n                bytes32[] memory resp = new bytes32[](size);\r\n                uint count = 0;\r\n                for(i=0; i<size; i++){\r\n                    if(registrations[regRefs[i]].issuerCountry == _country){\r\n                        resp[count] = regRefs[i];\r\n                        count = count + 1;\r\n                    }\r\n                }\r\n                return resp;\r\n            }\r\n        }\r\n    }\r\n\r\n    function getProduct(bytes32 ref) external view returns(VerifiedProducts.product memory){\r\n        require(VerifiedKYC(kyc).getStatus(msg.sender)==3);\r\n        product memory security = product ({\r\n            productCategory : registrations[ref].productCategory,\r\n            issuerName : registrations[ref].issuerName,\r\n            issuerAddress : registrations[ref].issuerAddress,\r\n            issuerCountry : registrations[ref].issuerCountry,\r\n            issuerSignatoryEmail : registrations[ref].issuerSignatoryEmail,\r\n            arrangerName : registrations[ref].arrangerName,\r\n            arrangerAddress : registrations[ref].arrangerAddress,\r\n            arrangerCountry : registrations[ref].arrangerCountry,\r\n            arrangerSignatoryEmail : registrations[ref].arrangerSignatoryEmail,\r\n            issue : registrations[ref].issue,\r\n            issuer : registrations[ref].issuer,\r\n            issuerRegistrationCertificate : registrations[ref].issuerRegistrationCertificate,\r\n            arrangerRegistrationCertificate : registrations[ref].arrangerRegistrationCertificate,\r\n            registrationDocuments : registrations[ref].registrationDocuments\r\n        });\r\n        return security;\r\n    }\r\n\r\n    function registerCertificate(bytes32 _ref, string calldata _issuerCertificate, string calldata _arrangerCertificate) external {\r\n        require(VerifiedKYC(kyc).getStatus(msg.sender)==3);\r\n        if(registrations[_ref].issuer==msg.sender){\r\n            registrations[_ref].issuerRegistrationCertificate = _issuerCertificate;\r\n            registrations[_ref].arrangerRegistrationCertificate = _arrangerCertificate;\r\n        }\r\n    }\r\n\r\n    function getCertificate(bytes32 _ref) external view returns(string memory, string memory){\r\n        require(VerifiedKYC(kyc).getStatus(msg.sender)==3);\r\n        require(VerifiedClient(client).getRole(msg.sender)==\"DP\");\r\n        return (registrations[_ref].issuerRegistrationCertificate, registrations[_ref].arrangerRegistrationCertificate);\r\n    }\r\n\r\n    function confirmProduct(bytes32 _ref) external {\r\n        require(VerifiedKYC(kyc).getStatus(msg.sender)==3);\r\n        require(VerifiedClient(client).getRole(msg.sender)==\"DP\");\r\n\r\n        bytes memory _payload = abi.encodeWithSignature(\"initialize(bytes32,bytes32,address,address,address,address,address,address)\", _ref, \r\n                                registrations[_ref].productCategory, registrations[_ref].issuer, msg.sender, owner, securityContract, securityRegistriesContract, viaFactoryContract);\r\n\r\n        //create issue\r\n        address _issue = deployMinimal(issueContract, _payload);\r\n        emit ProductIssued(_issue, _ref);\r\n         \r\n        //map issue to product registration reference\r\n        issues[_ref] = _issue;\r\n\r\n    }\r\n\r\n    function getIssue(bytes32 _ref) external view returns(address){\r\n        return issues[_ref];\r\n    }\r\n\r\n    function getIssuerName(bytes32 _ref) external view returns(bytes32){\r\n        return registrations[_ref].issuerName;\r\n    }\r\n\r\n    function getIssuerAddress(bytes32 _ref) external view returns(address){\r\n        return registrations[_ref].issuer;\r\n    }\r\n\r\n    function registerPlatform(address _liquidityPlatform, address _owner) external {\r\n        require(owner==_owner);\r\n        for(uint i=0; i<regRefs.length; i++){\r\n            VerifiedIssues(issues[regRefs[i]]).registerPlatform(_liquidityPlatform);\r\n        }\r\n    }\r\n\r\n    function checkIssue(address _issuer) external view returns(bool){\r\n        bool found = false;\r\n        for(uint i=0; i<regRefs.length; i++){\r\n            if(issues[regRefs[i]]==_issuer)\r\n                found = true;\r\n        }\r\n        if(found)\r\n            return true;\r\n        else\r\n            return false;\r\n    }\r\n\r\n}\r\n",
  "sourcePath": "D:\\Code\\verified-securities\\securities\\contracts\\Products.sol",
  "compiler": {
    "name": "solc",
    "version": "0.5.7+commit.6da8b019.Emscripten.clang"
  },
  "schemaVersion": "3.4.3",
  "updatedAt": "2021-12-02T15:20:15.604Z",
  "networkType": "ethereum",
  "devdoc": {
    "methods": {}
  },
  "userdoc": {
    "methods": {}
  }
}