{
  "contractName": "Products",
  "abi": [
    {
      "constant": true,
      "inputs": [
        {
          "name": "_salt",
          "type": "uint256"
        },
        {
          "name": "_logic",
          "type": "address"
        },
        {
          "name": "_admin",
          "type": "address"
        },
        {
          "name": "_data",
          "type": "bytes"
        },
        {
          "name": "_signature",
          "type": "bytes"
        }
      ],
      "name": "getSigner",
      "outputs": [
        {
          "name": "",
          "type": "address"
        }
      ],
      "payable": false,
      "stateMutability": "view",
      "type": "function"
    },
    {
      "constant": false,
      "inputs": [
        {
          "name": "_salt",
          "type": "uint256"
        },
        {
          "name": "_logic",
          "type": "address"
        },
        {
          "name": "_admin",
          "type": "address"
        },
        {
          "name": "_data",
          "type": "bytes"
        },
        {
          "name": "_signature",
          "type": "bytes"
        }
      ],
      "name": "deploySigned",
      "outputs": [
        {
          "name": "",
          "type": "address"
        }
      ],
      "payable": false,
      "stateMutability": "nonpayable",
      "type": "function"
    },
    {
      "constant": false,
      "inputs": [
        {
          "name": "_salt",
          "type": "uint256"
        },
        {
          "name": "_logic",
          "type": "address"
        },
        {
          "name": "_admin",
          "type": "address"
        },
        {
          "name": "_data",
          "type": "bytes"
        }
      ],
      "name": "deploy",
      "outputs": [
        {
          "name": "",
          "type": "address"
        }
      ],
      "payable": false,
      "stateMutability": "nonpayable",
      "type": "function"
    },
    {
      "constant": false,
      "inputs": [],
      "name": "renounceOwnership",
      "outputs": [],
      "payable": false,
      "stateMutability": "nonpayable",
      "type": "function"
    },
    {
      "constant": true,
      "inputs": [
        {
          "name": "_salt",
          "type": "uint256"
        },
        {
          "name": "_sender",
          "type": "address"
        }
      ],
      "name": "getDeploymentAddress",
      "outputs": [
        {
          "name": "",
          "type": "address"
        }
      ],
      "payable": false,
      "stateMutability": "view",
      "type": "function"
    },
    {
      "constant": true,
      "inputs": [],
      "name": "owner",
      "outputs": [
        {
          "name": "",
          "type": "address"
        }
      ],
      "payable": false,
      "stateMutability": "view",
      "type": "function"
    },
    {
      "constant": true,
      "inputs": [],
      "name": "isOwner",
      "outputs": [
        {
          "name": "",
          "type": "bool"
        }
      ],
      "payable": false,
      "stateMutability": "view",
      "type": "function"
    },
    {
      "constant": false,
      "inputs": [
        {
          "name": "_logic",
          "type": "address"
        },
        {
          "name": "_data",
          "type": "bytes"
        }
      ],
      "name": "deployMinimal",
      "outputs": [
        {
          "name": "proxy",
          "type": "address"
        }
      ],
      "payable": false,
      "stateMutability": "nonpayable",
      "type": "function"
    },
    {
      "constant": false,
      "inputs": [
        {
          "name": "newOwner",
          "type": "address"
        }
      ],
      "name": "transferOwnership",
      "outputs": [],
      "payable": false,
      "stateMutability": "nonpayable",
      "type": "function"
    },
    {
      "inputs": [],
      "payable": false,
      "stateMutability": "nonpayable",
      "type": "constructor"
    },
    {
      "anonymous": false,
      "inputs": [
        {
          "indexed": false,
          "name": "issue",
          "type": "address"
        },
        {
          "indexed": false,
          "name": "productReference",
          "type": "bytes32"
        },
        {
          "indexed": false,
          "name": "productCategory",
          "type": "bytes32"
        },
        {
          "indexed": false,
          "name": "issuerName",
          "type": "bytes32"
        },
        {
          "indexed": false,
          "name": "registrationDocs",
          "type": "string"
        }
      ],
      "name": "ProductIssued",
      "type": "event"
    },
    {
      "anonymous": false,
      "inputs": [
        {
          "indexed": true,
          "name": "previousOwner",
          "type": "address"
        },
        {
          "indexed": true,
          "name": "newOwner",
          "type": "address"
        }
      ],
      "name": "OwnershipTransferred",
      "type": "event"
    },
    {
      "anonymous": false,
      "inputs": [
        {
          "indexed": false,
          "name": "proxy",
          "type": "address"
        }
      ],
      "name": "ProxyCreated",
      "type": "event"
    },
    {
      "constant": false,
      "inputs": [
        {
          "name": "_client",
          "type": "address"
        },
        {
          "name": "_kyc",
          "type": "address"
        },
        {
          "name": "_securityContract",
          "type": "address"
        },
        {
          "name": "_securityRegistriesContract",
          "type": "address"
        },
        {
          "name": "_viaFactoryContract",
          "type": "address"
        },
        {
          "name": "_poolFactoryContract",
          "type": "address"
        },
        {
          "name": "_bridge",
          "type": "address"
        }
      ],
      "name": "initialize",
      "outputs": [],
      "payable": false,
      "stateMutability": "nonpayable",
      "type": "function"
    },
    {
      "constant": false,
      "inputs": [
        {
          "name": "_signer",
          "type": "address"
        }
      ],
      "name": "setSigner",
      "outputs": [],
      "payable": false,
      "stateMutability": "nonpayable",
      "type": "function"
    },
    {
      "constant": false,
      "inputs": [
        {
          "name": "_product",
          "type": "bytes32"
        },
        {
          "name": "_issuer",
          "type": "address"
        }
      ],
      "name": "registerIssuer",
      "outputs": [],
      "payable": false,
      "stateMutability": "nonpayable",
      "type": "function"
    },
    {
      "constant": false,
      "inputs": [
        {
          "name": "_productCategory",
          "type": "bytes32"
        },
        {
          "name": "_issuerName",
          "type": "bytes32"
        },
        {
          "name": "_issuerAddress",
          "type": "bytes32"
        },
        {
          "name": "_issuerCountry",
          "type": "bytes32"
        },
        {
          "name": "_issuerSignatoryEmail",
          "type": "bytes32"
        },
        {
          "name": "_arrangerName",
          "type": "bytes32"
        },
        {
          "name": "_arrangerAddress",
          "type": "bytes32"
        },
        {
          "name": "_arrangerCountry",
          "type": "bytes32"
        },
        {
          "name": "_arrangerSignatoryEmail",
          "type": "bytes32"
        },
        {
          "name": "_registrationDocuments",
          "type": "string"
        }
      ],
      "name": "recordProduct",
      "outputs": [],
      "payable": false,
      "stateMutability": "nonpayable",
      "type": "function"
    },
    {
      "constant": true,
      "inputs": [],
      "name": "getProductsForClient",
      "outputs": [
        {
          "name": "",
          "type": "bytes32[]"
        }
      ],
      "payable": false,
      "stateMutability": "view",
      "type": "function"
    },
    {
      "constant": true,
      "inputs": [],
      "name": "getIssuesForClient",
      "outputs": [
        {
          "name": "",
          "type": "address[]"
        }
      ],
      "payable": false,
      "stateMutability": "view",
      "type": "function"
    },
    {
      "constant": true,
      "inputs": [
        {
          "name": "_country",
          "type": "bytes32"
        }
      ],
      "name": "getProductsForCountry",
      "outputs": [
        {
          "name": "",
          "type": "bytes32[]"
        }
      ],
      "payable": false,
      "stateMutability": "view",
      "type": "function"
    },
    {
      "constant": true,
      "inputs": [
        {
          "name": "_country",
          "type": "bytes32"
        }
      ],
      "name": "getIssuesForCountry",
      "outputs": [
        {
          "name": "",
          "type": "address[]"
        }
      ],
      "payable": false,
      "stateMutability": "view",
      "type": "function"
    },
    {
      "constant": true,
      "inputs": [],
      "name": "getProducts",
      "outputs": [
        {
          "name": "",
          "type": "bytes32[]"
        }
      ],
      "payable": false,
      "stateMutability": "view",
      "type": "function"
    },
    {
      "constant": true,
      "inputs": [
        {
          "name": "ref",
          "type": "bytes32"
        }
      ],
      "name": "getProduct",
      "outputs": [
        {
          "components": [
            {
              "name": "productCategory",
              "type": "bytes32"
            },
            {
              "name": "issuerName",
              "type": "bytes32"
            },
            {
              "name": "issuerAddress",
              "type": "bytes32"
            },
            {
              "name": "issuerCountry",
              "type": "bytes32"
            },
            {
              "name": "issuerSignatoryEmail",
              "type": "bytes32"
            },
            {
              "name": "arrangerName",
              "type": "bytes32"
            },
            {
              "name": "arrangerAddress",
              "type": "bytes32"
            },
            {
              "name": "arrangerCountry",
              "type": "bytes32"
            },
            {
              "name": "arrangerSignatoryEmail",
              "type": "bytes32"
            },
            {
              "name": "issue",
              "type": "address"
            },
            {
              "name": "issuer",
              "type": "address"
            },
            {
              "name": "status",
              "type": "bool"
            },
            {
              "name": "issuerRegistrationCertificate",
              "type": "string"
            },
            {
              "name": "arrangerRegistrationCertificate",
              "type": "string"
            },
            {
              "name": "registrationDocuments",
              "type": "string"
            }
          ],
          "name": "",
          "type": "tuple"
        }
      ],
      "payable": false,
      "stateMutability": "view",
      "type": "function"
    },
    {
      "constant": false,
      "inputs": [
        {
          "name": "_ref",
          "type": "bytes32"
        },
        {
          "name": "_issuerCertificate",
          "type": "string"
        },
        {
          "name": "_arrangerCertificate",
          "type": "string"
        }
      ],
      "name": "registerCertificate",
      "outputs": [],
      "payable": false,
      "stateMutability": "nonpayable",
      "type": "function"
    },
    {
      "constant": true,
      "inputs": [
        {
          "name": "_ref",
          "type": "bytes32"
        }
      ],
      "name": "getCertificate",
      "outputs": [
        {
          "name": "",
          "type": "string"
        },
        {
          "name": "",
          "type": "string"
        }
      ],
      "payable": false,
      "stateMutability": "view",
      "type": "function"
    },
    {
      "constant": false,
      "inputs": [
        {
          "name": "_ref",
          "type": "bytes32"
        }
      ],
      "name": "confirmProduct",
      "outputs": [],
      "payable": false,
      "stateMutability": "nonpayable",
      "type": "function"
    },
    {
      "constant": true,
      "inputs": [
        {
          "name": "_ref",
          "type": "bytes32"
        }
      ],
      "name": "getIssue",
      "outputs": [
        {
          "name": "",
          "type": "address"
        }
      ],
      "payable": false,
      "stateMutability": "view",
      "type": "function"
    },
    {
      "constant": true,
      "inputs": [
        {
          "name": "_ref",
          "type": "bytes32"
        }
      ],
      "name": "getIssuerName",
      "outputs": [
        {
          "name": "",
          "type": "bytes32"
        }
      ],
      "payable": false,
      "stateMutability": "view",
      "type": "function"
    },
    {
      "constant": true,
      "inputs": [
        {
          "name": "_ref",
          "type": "bytes32"
        }
      ],
      "name": "getIssuerAddress",
      "outputs": [
        {
          "name": "",
          "type": "address"
        }
      ],
      "payable": false,
      "stateMutability": "view",
      "type": "function"
    },
    {
      "constant": false,
      "inputs": [
        {
          "name": "_liquidityPlatform",
          "type": "address"
        },
        {
          "name": "_hashedMessage",
          "type": "bytes32"
        },
        {
          "name": "_v",
          "type": "uint8"
        },
        {
          "name": "_r",
          "type": "bytes32"
        },
        {
          "name": "_s",
          "type": "bytes32"
        }
      ],
      "name": "registerPlatform",
      "outputs": [],
      "payable": false,
      "stateMutability": "nonpayable",
      "type": "function"
    },
    {
      "constant": true,
      "inputs": [],
      "name": "getPlatforms",
      "outputs": [
        {
          "name": "",
          "type": "address[]"
        }
      ],
      "payable": false,
      "stateMutability": "view",
      "type": "function"
    },
    {
      "constant": true,
      "inputs": [
        {
          "name": "_issuer",
          "type": "address"
        }
      ],
      "name": "checkIssue",
      "outputs": [
        {
          "name": "",
          "type": "bool"
        }
      ],
      "payable": false,
      "stateMutability": "view",
      "type": "function"
    },
    {
      "constant": true,
      "inputs": [
        {
          "name": "_issue",
          "type": "address"
        }
      ],
      "name": "checkProduct",
      "outputs": [
        {
          "name": "",
          "type": "bool"
        }
      ],
      "payable": false,
      "stateMutability": "view",
      "type": "function"
    },
    {
      "constant": true,
      "inputs": [
        {
          "name": "_issue",
          "type": "address"
        }
      ],
      "name": "getProductReference",
      "outputs": [
        {
          "name": "",
          "type": "bytes32"
        }
      ],
      "payable": false,
      "stateMutability": "view",
      "type": "function"
    }
  ],
  "bytecode": "0x60806040523480156200001157600080fd5b506040516200002360208201620000ae565b6020820181038252601f19601f8201166040525080519060200120600081905550600062000056620000aa60201b60201c565b600180546001600160a01b0319166001600160a01b038316908117909155604051919250906000907f8be0079c531659141344cd1fd0a4f28419497f9722a3daafe3b4186f6b6457e0908290a350620000bc565b3390565b6109a68062003abc83390190565b6139f080620000cc6000396000f3fe608060405234801561001057600080fd5b50600436106101da5760003560e01c806384aea92111610104578063c29b2f20116100a2578063f333fe0811610071578063f333fe08146103e4578063f4fcffa414610405578063fc3b4f5f14610418578063ff3018b11461042b576101da565b8063c29b2f20146103a3578063d3cd0963146103ab578063e6d439d1146103be578063f2fde38b146103d1576101da565b8063a4424e82116100de578063a4424e8214610357578063ab3b2ab51461036a578063aefc542b1461037d578063b3eeb5e214610390576101da565b806384aea921146103275780638da5cb5b146103475780638f32d59b1461034f576101da565b80633a20e9df1161017c5780636150864c1161014b5780636150864c146102e65780636c19e783146102f9578063715018a61461030c57806381ae1f5b14610314576101da565b80633a20e9df146102735780633ea6c82d1461029357806351073c92146102b3578063572d8299146102c6576101da565b80631fbe552e116101b85780631fbe552e14610225578063290f8f561461022d578063332d66261461024d5780633587647614610260576101da565b80630bbf1685146101df57806313eae943146101fd57806319089f7814610212575b600080fd5b6101e7610433565b6040516101f49190612d78565b60405180910390f35b61021061020b36600461236c565b610532565b005b610210610220366004612451565b610727565b6101e7610785565b61024061023b3660046126c5565b6107e8565b6040516101f49190612cdd565b61024061025b3660046126c5565b61083b565b61021061026e3660046122d0565b610883565b610286610281366004612433565b610928565b6040516101f49190612ef4565b6102a66102a13660046122aa565b610c51565b6040516101f49190612d9a565b6101e76102c1366004612433565b610c80565b6102d96102d4366004612433565b610d7f565b6040516101f49190612da8565b6102406102f436600461264c565b610d94565b6102106103073660046122aa565b610da3565b610210610f45565b610240610322366004612451565b610fb6565b61033a610335366004612433565b61100f565b6040516101f49190612d89565b610240611103565b6102a6611112565b610240610365366004612433565b611138565b6102d96103783660046122aa565b611156565b6102a661038b3660046122aa565b611171565b61024061039e3660046123e1565b611197565b61033a6112ab565b6102106103b93660046125a7565b611395565b6102106103cc366004612433565b611487565b6102106103df3660046122aa565b6117a6565b6103f76103f2366004612433565b6117d9565b6040516101f4929190612e9f565b610240610413366004612433565b611a44565b6102106104263660046124b1565b611a62565b61033a611cef565b600b54604051600160e01b6330ccebb502815260609133916001600160a01b03909116906330ccebb59061046b908490600401612cdd565b60206040518083038186803b15801561048357600080fd5b505afa158015610497573d6000803e3d6000fd5b505050506040513d601f19601f820116820180604052506104bb919081019061262e565b6003146104c757600080fd5b336000908152600660209081526040918290208054835181840281018401909452808452909183018282801561052657602002820191906000526020600020905b81546001600160a01b03168152600190910190602001808311610508575b505050505091505b5090565b6000846040516020016105459190612e4b565b6040516020818303038152906040528051906020012090506000816040516020016105709190612c42565b60408051601f19818403018152828252805160209182012060125460008552939091019182905292506001600160a01b03909116906001906105b9908490899089908990612e6a565b6020604051602081039080840390855afa1580156105db573d6000803e3d6000fd5b505050602060405103516001600160a01b0316146105f857600080fd5b6001600160a01b0387166000908152600a602052604090205461071e5760005b6003548110156106c257600260006003838154811061063357fe5b600091825260208083209091015483528201929092526040908101909120600901549051600160e11b63699a07db0281526001600160a01b039091169063d3340fb690610684908b90600401612cdd565b600060405180830381600087803b15801561069e57600080fd5b505af11580156106b2573d6000803e3d6000fd5b5050600190920191506106189050565b50601180546001810182557f31ecc21a745e3968a04e9570e4425bc18fa8019c68028196b546d1669c200c680180546001600160a01b0319166001600160a01b038a1690811790915590546000918252600a6020526040909120555b50505050505050565b61072f611112565b61075757604051600160e51b62461bcd02815260040161074e90612ee4565b60405180910390fd5b60009182526008602052604090912080546001600160a01b0319166001600160a01b03909216919091179055565b606060118054806020026020016040519081016040528092919081815260200182805480156107dd57602002820191906000526020600020905b81546001600160a01b031681526001909101906020018083116107bf575b505050505090505b90565b6000806108228787878730604051602001610807959493929190612c88565b60405160208183030381529060405280519060200120611de1565b905061082e8184611e11565b9150505b95945050505050565b60008061084b87878787876107e8565b90506001600160a01b03811661087657604051600160e51b62461bcd02815260040161074e90612ed4565b61082e8787878785611eed565b61088b611112565b6108aa57604051600160e51b62461bcd02815260040161074e90612ee4565b600c80546001600160a01b03199081166001600160a01b03998a1617909155600b8054821697891697909717909655600d8054871695881695909517909455600e8054861693871693909317909255600f80548516918616919091179055601080548416918516919091179055601280549092169216919091179055565b6109306120b7565b600b54604051600160e01b6330ccebb502815233916001600160a01b0316906330ccebb590610963908490600401612cdd565b60206040518083038186803b15801561097b57600080fd5b505afa15801561098f573d6000803e3d6000fd5b505050506040513d601f19601f820116820180604052506109b3919081019061262e565b6003146109bf57600080fd5b6109c76120b7565b604080516101e081018252600086815260026020818152848320805485526001808201548387015281840154868801526003820154606087015260048201546080870152600582015460a0870152600682015460c0870152600782015460e087015260088201546101008088019190915260098301546001600160a01b03908116610120890152600a840154908116610140890152600160a01b900460ff161515610160880152948b9052838352600b90910180548751928116159095026000190190941692909204601f81018290048202830182019095528482529293610180850193919291830182828015610aff5780601f10610ad457610100808354040283529160200191610aff565b820191906000526020600020905b815481529060010190602001808311610ae257829003601f168201915b5050509183525050600086815260026020818152604092839020600c01805484516001821615610100026000190190911693909304601f810183900483028401830190945283835293810193919290830182828015610b9f5780601f10610b7457610100808354040283529160200191610b9f565b820191906000526020600020905b815481529060010190602001808311610b8257829003601f168201915b5050509183525050600086815260026020818152604092839020600d01805484516001821615610100026000190190911693909304601f810183900483028401830190945283835293810193919290830182828015610c3f5780601f10610c1457610100808354040283529160200191610c3f565b820191906000526020600020905b815481529060010190602001808311610c2257829003601f168201915b50505091909252509095945050505050565b6001600160a01b03811660009081526009602052604081205415610c7757506001610c7b565b5060005b919050565b600b54604051600160e01b6330ccebb502815260609133916001600160a01b03909116906330ccebb590610cb8908490600401612cdd565b60206040518083038186803b158015610cd057600080fd5b505afa158015610ce4573d6000803e3d6000fd5b505050506040513d601f19601f82011682018060405250610d08919081019061262e565b600314610d1457600080fd5b60008381526007602090815260409182902080548351818402810184019094528084529091830182828015610d7257602002820191906000526020600020905b81546001600160a01b03168152600190910190602001808311610d54575b5050505050915050919050565b60009081526002602052604090206001015490565b60006108328585858533611eed565b610dab611112565b610dca57604051600160e51b62461bcd02815260040161074e90612ee4565b60005b600354811015610f225760005b600660006002600060038681548110610def57fe5b600091825260208083209091015483528281019390935260409182018120600a01546001600160a01b03168452918301939093529101902054811015610f1957600660006002600060038681548110610e4457fe5b90600052602060002001548152602001908152602001600020600a0160009054906101000a90046001600160a01b03166001600160a01b03166001600160a01b031681526020019081526020016000208181548110610e9f57fe5b600091825260209091200154604051600160e01b636c19e7830281526001600160a01b0390911690636c19e78390610edb908690600401612cdd565b600060405180830381600087803b158015610ef557600080fd5b505af1158015610f09573d6000803e3d6000fd5b505060019092019150610dda9050565b50600101610dcd565b50601280546001600160a01b0319166001600160a01b0392909216919091179055565b610f4d611112565b610f6c57604051600160e51b62461bcd02815260040161074e90612ee4565b6001546040516000916001600160a01b0316907f8be0079c531659141344cd1fd0a4f28419497f9722a3daafe3b4186f6b6457e0908390a3600180546001600160a01b0319169055565b600080610fc38484611fa2565b9050600060ff60f81b3083600054604051602001610fe49493929190612bee565b604051602081830303815290604052805190602001209050606081901b60601c925050505b92915050565b600b54604051600160e01b6330ccebb502815260609133916001600160a01b03909116906330ccebb590611047908490600401612cdd565b60206040518083038186803b15801561105f57600080fd5b505afa158015611073573d6000803e3d6000fd5b505050506040513d601f19601f82011682018060405250611097919081019061262e565b6003146110a357600080fd5b60008381526005602090815260409182902080548351818402810184019094528084529091830182828015610d7257602002820191906000526020600020905b8154815260200190600101908083116110e3575050505050915050919050565b6001546001600160a01b031690565b6001546000906001600160a01b0316611129611fd5565b6001600160a01b031614905090565b6000908152600260205260409020600a01546001600160a01b031690565b6001600160a01b031660009081526009602052604090205490565b6001600160a01b03811660009081526004602052604081205415610c7757506001610c7b565b6000808360601b90506040517f3d602d80600a3d3981f3363d3d373d3d3d363d7300000000000000000000000081528160148201527f5af43d82803e903d91602b57fd5bf3000000000000000000000000000000000060288201526037816000f09250507efffc2da0b561cae30d9826d37709e9421c4725faebc226cbbb7ef5fc5e7349826040516112299190612cdd565b60405180910390a18251156112a4576000826001600160a01b0316846040516112529190612c36565b6000604051808303816000865af19150503d806000811461128f576040519150601f19603f3d011682016040523d82523d6000602084013e611294565b606091505b50509050806112a257600080fd5b505b5092915050565b600b54604051600160e01b6330ccebb502815260609133916001600160a01b03909116906330ccebb5906112e3908490600401612cdd565b60206040518083038186803b1580156112fb57600080fd5b505afa15801561130f573d6000803e3d6000fd5b505050506040513d601f19601f82011682018060405250611333919081019061262e565b60031461133f57600080fd5b600380548060200260200160405190810160405280929190818152602001828054801561052657602002820191906000526020600020905b81548152602001906001019080831161137757505050505091505090565b600b54604051600160e01b6330ccebb502815233916001600160a01b0316906330ccebb5906113c8908490600401612cdd565b60206040518083038186803b1580156113e057600080fd5b505afa1580156113f4573d6000803e3d6000fd5b505050506040513d601f19601f82011682018060405250611418919081019061262e565b60031461142457600080fd5b6000868152600260205260409020600a01546001600160a01b031633141561147f57600086815260026020526040902061146290600b018686612135565b50600086815260026020526040902061071e90600c018484612135565b505050505050565b600b54604051600160e01b6330ccebb502815233916001600160a01b0316906330ccebb5906114ba908490600401612cdd565b60206040518083038186803b1580156114d257600080fd5b505afa1580156114e6573d6000803e3d6000fd5b505050506040513d601f19601f8201168201806040525061150a919081019061262e565b60031461151657600080fd5b600c54604051600160e01b63442767330281526000916001600160a01b03169063442767339061154a903390600401612ceb565b604080518083038186803b15801561156157600080fd5b505afa158015611575573d6000803e3d6000fd5b505050506040513d601f19601f820116820180604052506115999190810190612481565b50905080600160f41b61044502146115b057600080fd5b60008381526002602052604090208054600a9091015460609185916001600160a01b0316336115dd611103565b600d54600e54600f546010546012546040516116179a99989796956001600160a01b03908116958116948116938116921690602401612db6565b60408051601f19818403018152918152602080830180516001600160e01b0316600160e21b6321acbd1b0217905260008781526002825282812054815260089091529081205491925090611674906001600160a01b031683611197565b6000868152600260208181526040808420600a8101546001600160a01b039081168652600684528286208054600181810183559188528588200180549289166001600160a01b031993841681179091556003840154885260078652848820805480840182559089528689200180549093168117909255908652600984528286208c9055948b90529290915281549282015490519394507fecc233ca6ab141df9617dad6c35a7d951c5175568e3af78b51b6e0584500994d936117419386938b939192600d90910190612d26565b60405180910390a1600094855260026020526040909420600a8101805474ff00000000000000000000000000000000000000001916600160a01b17905560090180546001600160a01b039095166001600160a01b031990951694909417909355505050565b6117ae611112565b6117cd57604051600160e51b62461bcd02815260040161074e90612ee4565b6117d681611fd9565b50565b600b54604051600160e01b6330ccebb5028152606091829133916001600160a01b0316906330ccebb590611811908490600401612cdd565b60206040518083038186803b15801561182957600080fd5b505afa15801561183d573d6000803e3d6000fd5b505050506040513d601f19601f82011682018060405250611861919081019061262e565b60031461186d57600080fd5b600c54604051600160e01b63442767330281526000916001600160a01b0316906344276733906118a1903390600401612ceb565b604080518083038186803b1580156118b857600080fd5b505afa1580156118cc573d6000803e3d6000fd5b505050506040513d601f19601f820116820180604052506118f09190810190612481565b50905080600160f41b610445021461190757600080fd5b600085815260026020818152604092839020600b8101805485516001821615610100026000190190911694909404601f810184900484028501840190955284845293600c90910192918491908301828280156119a45780601f10611979576101008083540402835291602001916119a4565b820191906000526020600020905b81548152906001019060200180831161198757829003601f168201915b5050845460408051602060026001851615610100026000190190941693909304601f810184900484028201840190925281815295975086945092508401905082828015611a325780601f10611a0757610100808354040283529160200191611a32565b820191906000526020600020905b815481529060010190602001808311611a1557829003601f168201915b50505050509050935093505050915091565b6000908152600260205260409020600901546001600160a01b031690565b600b54604051600160e01b6330ccebb502815233916001600160a01b0316906330ccebb590611a95908490600401612cdd565b60206040518083038186803b158015611aad57600080fd5b505afa158015611ac1573d6000803e3d6000fd5b505050506040513d601f19601f82011682018060405250611ae5919081019061262e565b600314611af157600080fd5b60008c8152600860205260409020546001600160a01b0316611b1257600080fd5b60003342604051602001611b27929190612bc8565b60405160208183030381529060405280519060200120905060038190806001815401808255809150509060018203906000526020600020016000909192909190915055508c60026000838152602001908152602001600020600001819055508b60026000838152602001908152602001600020600101819055508a6002600083815260200190815260200160002060020181905550896002600083815260200190815260200160002060030181905550886002600083815260200190815260200160002060040181905550876002600083815260200190815260200160002060050181905550866002600083815260200190815260200160002060060181905550856002600083815260200190815260200160002060070181905550846002600083815260200190815260200160002060080181905550838360026000848152602001908152602001600020600d019190611c83929190612135565b506000818152600260209081526040808320600a0180546001600160a01b03191633908117909155835260048252808320805460018181018355918552838520018590559c835260058252822080549c8d01815582529020909901989098555050505050505050505050565b600b54604051600160e01b6330ccebb502815260609133916001600160a01b03909116906330ccebb590611d27908490600401612cdd565b60206040518083038186803b158015611d3f57600080fd5b505afa158015611d53573d6000803e3d6000fd5b505050506040513d601f19601f82011682018060405250611d77919081019061262e565b600314611d8357600080fd5b3360009081526004602090815260409182902080548351818402810184019094528084529091830182828015610526576020028201919060005260206000209081548152602001906001019080831161137757505050505091505090565b600081604051602001611df49190612c42565b604051602081830303815290604052805190602001209050919050565b60008151604114611e2457506000611009565b60208201516040830151606084015160001a7f7fffffffffffffffffffffffffffffff5d576e7357a4501ddfe92f46681b20a0821115611e6a5760009350505050611009565b8060ff16601b14158015611e8257508060ff16601c14155b15611e935760009350505050611009565b60018682858560405160008152602001604052604051611eb69493929190612e6a565b6020604051602081039080840390855afa158015611ed8573d6000803e3d6000fd5b5050604051601f190151979650505050505050565b600080611efa878461205e565b90507efffc2da0b561cae30d9826d37709e9421c4725faebc226cbbb7ef5fc5e734981604051611f2a9190612ceb565b60405180910390a1604051600160e01b63cf7a1d770281526001600160a01b0382169063cf7a1d7790611f6590899089908990600401612cf9565b600060405180830381600087803b158015611f7f57600080fd5b505af1158015611f93573d6000803e3d6000fd5b50929998505050505050505050565b60008282604051602001611fb7929190612c62565b60405160208183030381529060405280519060200120905092915050565b3390565b6001600160a01b03811661200257604051600160e51b62461bcd02815260040161074e90612ec4565b6001546040516001600160a01b038084169216907f8be0079c531659141344cd1fd0a4f28419497f9722a3daafe3b4186f6b6457e090600090a3600180546001600160a01b0319166001600160a01b0392909216919091179055565b600080606060405180602001612073906121af565b601f1982820381018352601f90910116604052905060006120948686611fa2565b9050808251602084016000f59250823b6120ad57600080fd5b5090949350505050565b604080516101e08101825260008082526020820181905291810182905260608082018390526080820183905260a0820183905260c0820183905260e0820183905261010082018390526101208201839052610140820183905261016082019290925261018081018290526101a081018290526101c081019190915290565b828054600181600116156101000203166002900490600052602060002090601f016020900481019282601f106121765782800160ff198235161785556121a3565b828001600101855582156121a3579182015b828111156121a3578235825591602001919060010190612188565b5061052e9291506121bc565b6109a68061301183390190565b6107e591905b8082111561052e57600081556001016121c2565b60006121e28235612f73565b9392505050565b60006121e282356107e5565b60006121e282516107e5565b600082601f83011261221257600080fd5b813561222561222082612f2c565b612f05565b9150808252602083016020830185838301111561224157600080fd5b61224c838284612fb3565b50505092915050565b60008083601f84011261226757600080fd5b50813567ffffffffffffffff81111561227f57600080fd5b60208301915083600182028301111561229757600080fd5b9250929050565b60006121e28235612f9c565b6000602082840312156122bc57600080fd5b60006122c884846121d6565b949350505050565b600080600080600080600060e0888a0312156122eb57600080fd5b60006122f78a8a6121d6565b97505060206123088a828b016121d6565b96505060406123198a828b016121d6565b955050606061232a8a828b016121d6565b945050608061233b8a828b016121d6565b93505060a061234c8a828b016121d6565b92505060c061235d8a828b016121d6565b91505092959891949750929550565b600080600080600060a0868803121561238457600080fd5b600061239088886121d6565b95505060206123a1888289016121e9565b94505060406123b28882890161229e565b93505060606123c3888289016121e9565b92505060806123d4888289016121e9565b9150509295509295909350565b600080604083850312156123f457600080fd5b600061240085856121d6565b925050602083013567ffffffffffffffff81111561241d57600080fd5b61242985828601612201565b9150509250929050565b60006020828403121561244557600080fd5b60006122c884846121e9565b6000806040838503121561246457600080fd5b600061247085856121e9565b9250506020612429858286016121d6565b6000806040838503121561249457600080fd5b60006124a085856121f5565b9250506020612429858286016121f5565b60008060008060008060008060008060006101408c8e0312156124d357600080fd5b60006124df8e8e6121e9565b9b505060206124f08e828f016121e9565b9a505060406125018e828f016121e9565b99505060606125128e828f016121e9565b98505060806125238e828f016121e9565b97505060a06125348e828f016121e9565b96505060c06125458e828f016121e9565b95505060e06125568e828f016121e9565b9450506101006125688e828f016121e9565b9350506101208c013567ffffffffffffffff81111561258657600080fd5b6125928e828f01612255565b92509250509295989b509295989b9093969950565b6000806000806000606086880312156125bf57600080fd5b60006125cb88886121e9565b955050602086013567ffffffffffffffff8111156125e857600080fd5b6125f488828901612255565b9450945050604086013567ffffffffffffffff81111561261357600080fd5b61261f88828901612255565b92509250509295509295909350565b60006020828403121561264057600080fd5b60006122c884846121f5565b6000806000806080858703121561266257600080fd5b600061266e87876121e9565b945050602061267f878288016121d6565b9350506040612690878288016121d6565b925050606085013567ffffffffffffffff8111156126ad57600080fd5b6126b987828801612201565b91505092959194509250565b600080600080600060a086880312156126dd57600080fd5b60006126e988886121e9565b95505060206126fa888289016121d6565b945050604061270b888289016121d6565b935050606086013567ffffffffffffffff81111561272857600080fd5b61273488828901612201565b925050608086013567ffffffffffffffff81111561275157600080fd5b6123d488828901612201565b6000612769838361278c565b505060200190565b60006127698383612860565b61278681612fa2565b82525050565b61278681612f73565b6127866127a182612f73565b612fef565b60006127b182612f66565b6127bb8185612f6a565b93506127c683612f54565b60005b828110156127f1576127dc86835161275d565b95506127e782612f54565b91506001016127c9565b5093949350505050565b600061280682612f66565b6128108185612f6a565b935061281b83612f54565b60005b828110156127f157612831868351612771565b955061283c82612f54565b915060010161281e565b61278681612f7e565b61278661285b82612f83565b6107e5565b612786816107e5565b61278661285b826107e5565b600061288082612f66565b61288a8185612f6a565b935061289a818560208601612fbf565b6128a381613000565b9093019392505050565b60006128b882612f66565b6128c28185610c7b565b93506128d2818560208601612fbf565b9290920192915050565b6000815460018116600081146128f9576001811461291f576112a2565b607f600283041661290a8187612f6a565b60ff19841681529550506020850192506112a2565b6002820461292d8187612f6a565b955061293885612f5a565b60005b828110156129575781548882015260019091019060200161293b565b9096019695505050505050565b6000612971601c83610c7b565b7f19457468657265756d205369676e6564204d6573736167653a0a3332000000008152601c0192915050565b60006129aa602683612f6a565b7f4f776e61626c653a206e6577206f776e657220697320746865207a65726f20618152600160d01b6564647265737302602082015260400192915050565b60006129f5601183612f6a565b7f496e76616c6964207369676e6174757265000000000000000000000000000000815260200192915050565b6000612a2e602083612f6a565b7f4f776e61626c653a2063616c6c6572206973206e6f7420746865206f776e6572815260200192915050565b6000612a67600683612f6a565b600160d01b654c32746f4c3102815260200192915050565b80516000906101e0840190612a948582612860565b506020830151612aa76020860182612860565b506040830151612aba6040860182612860565b506060830151612acd6060860182612860565b506080830151612ae06080860182612860565b5060a0830151612af360a0860182612860565b5060c0830151612b0660c0860182612860565b5060e0830151612b1960e0860182612860565b50610100830151612b2e610100860182612860565b50610120830151612b4361012086018261278c565b50610140830151612b5861014086018261278c565b50610160830151612b6d610160860182612846565b50610180830151848203610180860152612b878282612875565b9150506101a08301518482036101a0860152612ba38282612875565b9150506101c08301518482036101c08601526108328282612875565b61278681612f9c565b6000612bd48285612795565b601482019150612be48284612869565b5060200192915050565b6000612bfa828761284f565b600182019150612c0a8286612795565b601482019150612c1a8285612869565b602082019150612c2a8284612869565b50602001949350505050565b60006121e282846128ad565b6000612c4d82612964565b9150612c598284612869565b50602001919050565b6000612c6e8285612869565b602082019150612c7e8284612795565b5060140192915050565b6000612c948288612869565b602082019150612ca48287612795565b601482019150612cb48286612795565b601482019150612cc482856128ad565b9150612cd08284612795565b5060140195945050505050565b60208101611009828461278c565b60208101611009828461277d565b60608101612d07828661278c565b612d14602083018561278c565b81810360408301526108328184612875565b60a08101612d34828861278c565b612d416020830187612860565b612d4e6040830186612860565b612d5b6060830185612860565b8181036080830152612d6d81846128dc565b979650505050505050565b602080825281016121e281846127a6565b602080825281016121e281846127fb565b602081016110098284612846565b602081016110098284612860565b6101408101612dc5828d612860565b612dd2602083018c612860565b612ddf604083018b61278c565b612dec606083018a61278c565b612df9608083018961278c565b612e0660a083018861278c565b612e1360c083018761278c565b612e2060e083018661278c565b612e2e61010083018561278c565b612e3c61012083018461278c565b9b9a5050505050505050505050565b60408101612e598284612860565b81810360208301526121e281612a5a565b60808101612e788287612860565b612e856020830186612bbf565b612e926040830185612860565b6108326060830184612860565b60408082528101612eb08185612875565b905081810360208301526122c88184612875565b602080825281016110098161299d565b60208082528101611009816129e8565b6020808252810161100981612a21565b602080825281016121e28184612a7f565b60405181810167ffffffffffffffff81118282101715612f2457600080fd5b604052919050565b600067ffffffffffffffff821115612f4357600080fd5b506020601f91909101601f19160190565b60200190565b60009081526020902090565b5190565b90815260200190565b600061100982612f90565b151590565b6001600160f81b03191690565b6001600160a01b031690565b60ff1690565b600061100982600061100982612f73565b82818337506000910152565b60005b83811015612fda578181015183820152602001612fc2565b83811115612fe9576000848401525b50505050565b60006110098260006110098261300a565b601f01601f191690565b60601b9056fe608060405234801561001057600080fd5b50610986806100206000396000f3fe6080604052600436106100705760003560e01c80638f2839701161004e5780638f2839701461015e578063cf7a1d7714610191578063d1f5789414610250578063f851a4401461030657610070565b80633659cfe61461007a5780634f1ef286146100ad5780635c60da1b1461012d575b61007861031b565b005b34801561008657600080fd5b506100786004803603602081101561009d57600080fd5b50356001600160a01b0316610335565b610078600480360360408110156100c357600080fd5b6001600160a01b0382351691908101906040810160208201356401000000008111156100ee57600080fd5b82018360208201111561010057600080fd5b8035906020019184600183028401116401000000008311171561012257600080fd5b50909250905061036f565b34801561013957600080fd5b5061014261041c565b604080516001600160a01b039092168252519081900360200190f35b34801561016a57600080fd5b506100786004803603602081101561018157600080fd5b50356001600160a01b0316610459565b610078600480360360608110156101a757600080fd5b6001600160a01b0382358116926020810135909116918101906060810160408201356401000000008111156101db57600080fd5b8201836020820111156101ed57600080fd5b8035906020019184600183028401116401000000008311171561020f57600080fd5b91908080601f016020809104026020016040519081016040528093929190818152602001838380828437600092019190915250929550610516945050505050565b6100786004803603604081101561026657600080fd5b6001600160a01b03823516919081019060408101602082013564010000000081111561029157600080fd5b8201836020820111156102a357600080fd5b803590602001918460018302840111640100000000831117156102c557600080fd5b91908080601f0160208091040260200160405190810160405280939291908181526020018383808284376000920191909152509295506105a6945050505050565b34801561031257600080fd5b506101426106e6565b610323610711565b61033361032e610774565b610799565b565b61033d6107bd565b6001600160a01b0316336001600160a01b031614156103645761035f816107e2565b61036c565b61036c61031b565b50565b6103776107bd565b6001600160a01b0316336001600160a01b0316141561040f57610399836107e2565b6000836001600160a01b031683836040518083838082843760405192019450600093509091505080830381855af49150503d80600081146103f6576040519150601f19603f3d011682016040523d82523d6000602084013e6103fb565b606091505b505090508061040957600080fd5b50610417565b61041761031b565b505050565b60006104266107bd565b6001600160a01b0316336001600160a01b0316141561044e57610447610774565b9050610456565b61045661031b565b90565b6104616107bd565b6001600160a01b0316336001600160a01b03161415610364576001600160a01b0381166104c257604051600160e51b62461bcd0281526004018080602001828103825260368152602001806108ea6036913960400191505060405180910390fd5b7f7e644d79422f17c01e4894b5f4f588d331ebfa28653d42ae832dc59e38c9798f6104eb6107bd565b604080516001600160a01b03928316815291841660208301528051918290030190a161035f81610822565b6000610520610774565b6001600160a01b03161461053357600080fd5b61053d83826105a6565b604080517f656970313936372e70726f78792e61646d696e00000000000000000000000000815290519081900360130190207fb53127684a568b3173ae13b9f8a6016e243e63b6e8ee1178d6a717850b5d61036000199091011461059d57fe5b61041782610822565b60006105b0610774565b6001600160a01b0316146105c357600080fd5b604080517f656970313936372e70726f78792e696d706c656d656e746174696f6e000000008152905190819003601c0190207f360894a13ba1a3210667c828492db98dca3e2076cc3735a920a3ca505d382bbc6000199091011461062357fe5b61062c82610846565b8051156106e2576000826001600160a01b0316826040518082805190602001908083835b6020831061066f5780518252601f199092019160209182019101610650565b6001836020036101000a038019825116818451168082178552505050505050905001915050600060405180830381855af49150503d80600081146106cf576040519150601f19603f3d011682016040523d82523d6000602084013e6106d4565b606091505b505090508061041757600080fd5b5050565b60006106f06107bd565b6001600160a01b0316336001600160a01b0316141561044e576104476107bd565b6107196107bd565b6001600160a01b0316336001600160a01b0316141561076c57604051600160e51b62461bcd0281526004018080602001828103825260328152602001806108b86032913960400191505060405180910390fd5b610333610333565b7f360894a13ba1a3210667c828492db98dca3e2076cc3735a920a3ca505d382bbc5490565b3660008037600080366000845af43d6000803e8080156107b8573d6000f35b3d6000fd5b7fb53127684a568b3173ae13b9f8a6016e243e63b6e8ee1178d6a717850b5d61035490565b6107eb81610846565b6040516001600160a01b038216907fbc7cd75a20ee27fd9adebab32041f755214dbc6bffa90cc0225b39da2e5c2d3b90600090a250565b7fb53127684a568b3173ae13b9f8a6016e243e63b6e8ee1178d6a717850b5d610355565b61084f816108b1565b61088d57604051600160e51b62461bcd02815260040180806020018281038252603b815260200180610920603b913960400191505060405180910390fd5b7f360894a13ba1a3210667c828492db98dca3e2076cc3735a920a3ca505d382bbc55565b3b15159056fe43616e6e6f742063616c6c2066616c6c6261636b2066756e6374696f6e2066726f6d207468652070726f78792061646d696e43616e6e6f74206368616e6765207468652061646d696e206f6620612070726f787920746f20746865207a65726f206164647265737343616e6e6f742073657420612070726f787920696d706c656d656e746174696f6e20746f2061206e6f6e2d636f6e74726163742061646472657373a165627a7a72305820acd86240912c703ba88ccefef3db77e88d3507353c7c194b0b27eed571ae96c90029a265627a7a723058200f239a47109b8bad5605da96706acac7b7d125288a6731b4519ee083b0bf380c6c6578706572696d656e74616cf50037608060405234801561001057600080fd5b50610986806100206000396000f3fe6080604052600436106100705760003560e01c80638f2839701161004e5780638f2839701461015e578063cf7a1d7714610191578063d1f5789414610250578063f851a4401461030657610070565b80633659cfe61461007a5780634f1ef286146100ad5780635c60da1b1461012d575b61007861031b565b005b34801561008657600080fd5b506100786004803603602081101561009d57600080fd5b50356001600160a01b0316610335565b610078600480360360408110156100c357600080fd5b6001600160a01b0382351691908101906040810160208201356401000000008111156100ee57600080fd5b82018360208201111561010057600080fd5b8035906020019184600183028401116401000000008311171561012257600080fd5b50909250905061036f565b34801561013957600080fd5b5061014261041c565b604080516001600160a01b039092168252519081900360200190f35b34801561016a57600080fd5b506100786004803603602081101561018157600080fd5b50356001600160a01b0316610459565b610078600480360360608110156101a757600080fd5b6001600160a01b0382358116926020810135909116918101906060810160408201356401000000008111156101db57600080fd5b8201836020820111156101ed57600080fd5b8035906020019184600183028401116401000000008311171561020f57600080fd5b91908080601f016020809104026020016040519081016040528093929190818152602001838380828437600092019190915250929550610516945050505050565b6100786004803603604081101561026657600080fd5b6001600160a01b03823516919081019060408101602082013564010000000081111561029157600080fd5b8201836020820111156102a357600080fd5b803590602001918460018302840111640100000000831117156102c557600080fd5b91908080601f0160208091040260200160405190810160405280939291908181526020018383808284376000920191909152509295506105a6945050505050565b34801561031257600080fd5b506101426106e6565b610323610711565b61033361032e610774565b610799565b565b61033d6107bd565b6001600160a01b0316336001600160a01b031614156103645761035f816107e2565b61036c565b61036c61031b565b50565b6103776107bd565b6001600160a01b0316336001600160a01b0316141561040f57610399836107e2565b6000836001600160a01b031683836040518083838082843760405192019450600093509091505080830381855af49150503d80600081146103f6576040519150601f19603f3d011682016040523d82523d6000602084013e6103fb565b606091505b505090508061040957600080fd5b50610417565b61041761031b565b505050565b60006104266107bd565b6001600160a01b0316336001600160a01b0316141561044e57610447610774565b9050610456565b61045661031b565b90565b6104616107bd565b6001600160a01b0316336001600160a01b03161415610364576001600160a01b0381166104c257604051600160e51b62461bcd0281526004018080602001828103825260368152602001806108ea6036913960400191505060405180910390fd5b7f7e644d79422f17c01e4894b5f4f588d331ebfa28653d42ae832dc59e38c9798f6104eb6107bd565b604080516001600160a01b03928316815291841660208301528051918290030190a161035f81610822565b6000610520610774565b6001600160a01b03161461053357600080fd5b61053d83826105a6565b604080517f656970313936372e70726f78792e61646d696e00000000000000000000000000815290519081900360130190207fb53127684a568b3173ae13b9f8a6016e243e63b6e8ee1178d6a717850b5d61036000199091011461059d57fe5b61041782610822565b60006105b0610774565b6001600160a01b0316146105c357600080fd5b604080517f656970313936372e70726f78792e696d706c656d656e746174696f6e000000008152905190819003601c0190207f360894a13ba1a3210667c828492db98dca3e2076cc3735a920a3ca505d382bbc6000199091011461062357fe5b61062c82610846565b8051156106e2576000826001600160a01b0316826040518082805190602001908083835b6020831061066f5780518252601f199092019160209182019101610650565b6001836020036101000a038019825116818451168082178552505050505050905001915050600060405180830381855af49150503d80600081146106cf576040519150601f19603f3d011682016040523d82523d6000602084013e6106d4565b606091505b505090508061041757600080fd5b5050565b60006106f06107bd565b6001600160a01b0316336001600160a01b0316141561044e576104476107bd565b6107196107bd565b6001600160a01b0316336001600160a01b0316141561076c57604051600160e51b62461bcd0281526004018080602001828103825260328152602001806108b86032913960400191505060405180910390fd5b610333610333565b7f360894a13ba1a3210667c828492db98dca3e2076cc3735a920a3ca505d382bbc5490565b3660008037600080366000845af43d6000803e8080156107b8573d6000f35b3d6000fd5b7fb53127684a568b3173ae13b9f8a6016e243e63b6e8ee1178d6a717850b5d61035490565b6107eb81610846565b6040516001600160a01b038216907fbc7cd75a20ee27fd9adebab32041f755214dbc6bffa90cc0225b39da2e5c2d3b90600090a250565b7fb53127684a568b3173ae13b9f8a6016e243e63b6e8ee1178d6a717850b5d610355565b61084f816108b1565b61088d57604051600160e51b62461bcd02815260040180806020018281038252603b815260200180610920603b913960400191505060405180910390fd5b7f360894a13ba1a3210667c828492db98dca3e2076cc3735a920a3ca505d382bbc55565b3b15159056fe43616e6e6f742063616c6c2066616c6c6261636b2066756e6374696f6e2066726f6d207468652070726f78792061646d696e43616e6e6f74206368616e6765207468652061646d696e206f6620612070726f787920746f20746865207a65726f206164647265737343616e6e6f742073657420612070726f787920696d706c656d656e746174696f6e20746f2061206e6f6e2d636f6e74726163742061646472657373a165627a7a72305820acd86240912c703ba88ccefef3db77e88d3507353c7c194b0b27eed571ae96c90029",
  "source": "// Verified financial products\r\n// Define products, accepts issuing documentation for registrar, create issues of products\r\n// (c) Kallol Borah, Verified Network, 2021\r\n\r\npragma solidity 0.5.7;\r\npragma experimental ABIEncoderV2;\r\n\r\nimport \"./interfaces/VerifiedKYC.sol\";\r\nimport \"./interfaces/VerifiedClient.sol\";\r\nimport \"./interfaces/VerifiedIssues.sol\";\r\nimport \"./interfaces/VerifiedProducts.sol\";\r\nimport \"@openzeppelin/contracts/ownership/Ownable.sol\";\r\nimport \"@openzeppelin/upgrades/contracts/upgradeability/ProxyFactory.sol\";\r\n\r\ncontract Products is VerifiedProducts, ProxyFactory, Ownable {\r\n\r\n    //mapping of registration reference to registration record\r\n    mapping(bytes32 => product) private registrations;\r\n\r\n    //array of registration requests\r\n    bytes32[] regRefs;\r\n\r\n    //mapping issuer to products\r\n    mapping(address => bytes32[]) private productsRegistered;\r\n\r\n    //mapping country to registered products\r\n    mapping(bytes32 => bytes32[]) private productsRegisteredByCountry;\r\n\r\n    //mapping issuer to issues\r\n    mapping(address => address[]) private productsIssued;\r\n\r\n    //mapping country to issued products\r\n    mapping(bytes32 => address[]) private productsIssuedByCountry;\r\n\r\n    //mapping product category to issuer contract\r\n    mapping(bytes32 => address) private productIssuer;\r\n\r\n    //mapping product issued to product reference\r\n    mapping(address => bytes32) private issues;\r\n\r\n    //mapping platform to index\r\n    mapping(address => uint256) private platformIndex;\r\n\r\n    address kyc;\r\n    address client;\r\n    address securityContract;\r\n    address securityRegistriesContract;\r\n    address viaFactoryContract;\r\n    address poolFactoryContract;\r\n    address[] platforms;\r\n    address bridge;\r\n\r\n    event ProductIssued(address issue, \r\n                        bytes32 productReference, \r\n                        bytes32 productCategory, \r\n                        bytes32 issuerName, \r\n                        string registrationDocs\r\n                        );\r\n\r\n    modifier onlyClient(address sender){\r\n        require(VerifiedKYC(kyc).getStatus(sender)==3);\r\n        _;\r\n    }\r\n\r\n    constructor() public Ownable() {\t\r\n    }\r\n\r\n    function initialize(address _client, address _kyc, address _securityContract, \r\n                        address _securityRegistriesContract, address _viaFactoryContract,\r\n                        address _poolFactoryContract, address _bridge) public onlyOwner{\r\n        client = _client;\r\n        kyc = _kyc;\r\n        securityContract = _securityContract;\r\n        securityRegistriesContract = _securityRegistriesContract;\r\n        viaFactoryContract = _viaFactoryContract;\r\n        poolFactoryContract = _poolFactoryContract;\r\n        bridge = _bridge;\r\n    }\r\n\r\n    function setSigner(address _signer) onlyOwner external{\r\n        for(uint256 i=0; i<regRefs.length; i++){\r\n            for(uint256 j=0; j<productsIssued[registrations[regRefs[i]].issuer].length; j++){\r\n                VerifiedProducts(productsIssued[registrations[regRefs[i]].issuer][j]).setSigner(_signer);\r\n            }\r\n        }\r\n        bridge = _signer;\r\n    }\r\n    \r\n    function registerIssuer(bytes32 _product, address _issuer) onlyOwner external {\r\n        productIssuer[_product]=_issuer;\r\n    }\r\n\r\n    function recordProduct( bytes32 _productCategory,\r\n                            bytes32 _issuerName,\r\n                            bytes32 _issuerAddress,\r\n                            bytes32 _issuerCountry,\r\n                            bytes32 _issuerSignatoryEmail,\r\n                            bytes32 _arrangerName,\r\n                            bytes32 _arrangerAddress,\r\n                            bytes32 _arrangerCountry,\r\n                            bytes32 _arrangerSignatoryEmail,\r\n                            string calldata _registrationDocuments\r\n                            ) onlyClient(msg.sender) external{        \r\n        require(productIssuer[_productCategory]!=address(0x0));\r\n        bytes32 ref = keccak256(abi.encodePacked(msg.sender, now));\r\n        regRefs.push(ref);\r\n        registrations[ref].productCategory = _productCategory;\r\n        registrations[ref].issuerName = _issuerName;\r\n        registrations[ref].issuerAddress = _issuerAddress;\r\n        registrations[ref].issuerCountry = _issuerCountry;\r\n        registrations[ref].issuerSignatoryEmail = _issuerSignatoryEmail;\r\n        registrations[ref].arrangerName = _arrangerName;\r\n        registrations[ref].arrangerAddress = _arrangerAddress;\r\n        registrations[ref].arrangerCountry = _arrangerCountry;\r\n        registrations[ref].arrangerSignatoryEmail = _arrangerSignatoryEmail;\r\n        registrations[ref].registrationDocuments = _registrationDocuments;\r\n        registrations[ref].issuer = msg.sender;\r\n        productsRegistered[msg.sender].push(ref);\r\n        productsRegisteredByCountry[_issuerCountry].push(ref);\r\n    }\r\n\r\n    function getProductsForClient() onlyClient(msg.sender) external view returns(bytes32[] memory){\r\n        return productsRegistered[msg.sender];\r\n    }\r\n\r\n    function getIssuesForClient() onlyClient(msg.sender) external view returns(address[] memory){\r\n        return productsIssued[msg.sender];\r\n    }\r\n\r\n    function getProductsForCountry(bytes32 _country) onlyClient(msg.sender) external view returns(bytes32[] memory){\r\n        return productsRegisteredByCountry[_country];\r\n    }\r\n\r\n    function getIssuesForCountry(bytes32 _country) onlyClient(msg.sender) external view returns(address[] memory){\r\n        return productsIssuedByCountry[_country];\r\n    }\r\n\r\n    function getProducts() onlyClient(msg.sender) external view returns(bytes32[] memory){\r\n        return regRefs;\r\n    }\r\n\r\n    function getProduct(bytes32 ref) onlyClient(msg.sender) external view returns(VerifiedProducts.product memory){\r\n        product memory security = product ({\r\n            productCategory : registrations[ref].productCategory,\r\n            issuerName : registrations[ref].issuerName,\r\n            issuerAddress : registrations[ref].issuerAddress,\r\n            issuerCountry : registrations[ref].issuerCountry,\r\n            issuerSignatoryEmail : registrations[ref].issuerSignatoryEmail,\r\n            arrangerName : registrations[ref].arrangerName,\r\n            arrangerAddress : registrations[ref].arrangerAddress,\r\n            arrangerCountry : registrations[ref].arrangerCountry,\r\n            arrangerSignatoryEmail : registrations[ref].arrangerSignatoryEmail,\r\n            issue : registrations[ref].issue,\r\n            issuer : registrations[ref].issuer,\r\n            status : registrations[ref].status,\r\n            issuerRegistrationCertificate : registrations[ref].issuerRegistrationCertificate,\r\n            arrangerRegistrationCertificate : registrations[ref].arrangerRegistrationCertificate,\r\n            registrationDocuments : registrations[ref].registrationDocuments\r\n        });\r\n        return security;\r\n    }\r\n\r\n    function registerCertificate(bytes32 _ref, string calldata _issuerCertificate, string calldata _arrangerCertificate) onlyClient(msg.sender) external {\r\n        if(registrations[_ref].issuer==msg.sender){\r\n            registrations[_ref].issuerRegistrationCertificate = _issuerCertificate;\r\n            registrations[_ref].arrangerRegistrationCertificate = _arrangerCertificate;\r\n        }\r\n    }\r\n\r\n    function getCertificate(bytes32 _ref) onlyClient(msg.sender) external view returns(string memory, string memory){\r\n        (bytes32 role, ) = VerifiedClient(client).getRole(msg.sender);\r\n        require(role==\"DP\");\r\n        return (registrations[_ref].issuerRegistrationCertificate, registrations[_ref].arrangerRegistrationCertificate);\r\n    }\r\n\r\n    function confirmProduct(bytes32 _ref) onlyClient(msg.sender) external {\r\n        (bytes32 role, ) = VerifiedClient(client).getRole(msg.sender);\r\n        require(role==\"DP\");\r\n        bytes memory _payload = abi.encodeWithSignature(\"initialize(bytes32,bytes32,address,address,address,address,address,address,address,address)\", _ref, \r\n                                registrations[_ref].productCategory, registrations[_ref].issuer, msg.sender, owner(), securityContract, securityRegistriesContract, viaFactoryContract, poolFactoryContract, bridge);\r\n\r\n        //create issue\r\n        address _issue = deployMinimal(productIssuer[registrations[_ref].productCategory], _payload);\r\n        productsIssued[registrations[_ref].issuer].push(_issue);\r\n        productsIssuedByCountry[registrations[_ref].issuerCountry].push(_issue);\r\n        issues[_issue] = _ref;\r\n        emit ProductIssued(_issue, _ref, registrations[_ref].productCategory, registrations[_ref].issuerName, registrations[_ref].registrationDocuments);\r\n         \r\n        //map issue to product registration reference\r\n        registrations[_ref].status = true;\r\n        registrations[_ref].issue = _issue;\r\n    }\r\n\r\n    function getIssue(bytes32 _ref) external view returns(address){\r\n        return registrations[_ref].issue;\r\n    }\r\n\r\n    function getIssuerName(bytes32 _ref) external view returns(bytes32){\r\n        return registrations[_ref].issuerName;\r\n    }\r\n\r\n    function getIssuerAddress(bytes32 _ref) external view returns(address){\r\n        return registrations[_ref].issuer;\r\n    }\r\n\r\n    function registerPlatform(address _liquidityPlatform, bytes32 _hashedMessage, uint8 _v, bytes32 _r, bytes32 _s) \r\n                        external {\r\n        bytes32 payloadHash = keccak256(abi.encode(_hashedMessage, \"L2toL1\"));\r\n        bytes32 messageHash = keccak256(abi.encodePacked(\"\\x19Ethereum Signed Message:\\n32\", payloadHash));\r\n        require(ecrecover(messageHash, _v, _r, _s)== bridge);\r\n        if(platformIndex[_liquidityPlatform]==0){\r\n            for(uint i=0; i<regRefs.length; i++){\r\n                //if(registrations[regRefs[i]].issue!=address(0x0))\r\n                    VerifiedIssues(registrations[regRefs[i]].issue).registerPlatform(_liquidityPlatform);\r\n            }\r\n            platforms.push(_liquidityPlatform);\r\n            platformIndex[_liquidityPlatform] = platforms.length;\r\n        }\r\n    }\r\n\r\n    function getPlatforms() external view returns(address[] memory){\r\n        return platforms;\r\n    }\r\n\r\n    function checkIssue(address _issuer) external view returns(bool){\r\n        if(productsRegistered[_issuer].length>0)\r\n            return true;\r\n        else\r\n            return false;\r\n    }\r\n\r\n    function checkProduct(address _issue) external view returns(bool){\r\n        if(issues[_issue]!='')\r\n            return true;\r\n        else\r\n            return false;\r\n    }\r\n\r\n    function getProductReference(address _issue) external view returns(bytes32){\r\n        return issues[_issue];\r\n    }\r\n\r\n}\r\n",
  "sourcePath": "D:\\Code\\verified-securities-L2\\securities\\contracts\\Products.sol",
  "compiler": {
    "name": "solc",
    "version": "0.5.7+commit.6da8b019.Emscripten.clang"
  },
  "schemaVersion": "3.4.3",
  "updatedAt": "2022-07-20T14:29:21.605Z",
  "networkType": "ethereum",
  "devdoc": {
    "methods": {
      "isOwner()": {
        "details": "Returns true if the caller is the current owner."
      },
      "owner()": {
        "details": "Returns the address of the current owner."
      },
      "renounceOwnership()": {
        "details": "Leaves the contract without owner. It will not be possible to call `onlyOwner` functions anymore. Can only be called by the current owner.     * NOTE: Renouncing ownership will leave the contract without an owner, thereby removing any functionality that is only available to the owner."
      },
      "transferOwnership(address)": {
        "details": "Transfers ownership of the contract to a new account (`newOwner`). Can only be called by the current owner."
      }
    }
  },
  "userdoc": {
    "methods": {}
  }
}