{
  "contractName": "Security",
  "abi": [
    {
      "constant": true,
      "inputs": [
        {
          "name": "_owner",
          "type": "address"
        }
      ],
      "name": "withdrawnFundsOf",
      "outputs": [
        {
          "name": "",
          "type": "uint256"
        }
      ],
      "payable": false,
      "stateMutability": "view",
      "type": "function"
    },
    {
      "constant": true,
      "inputs": [],
      "name": "totalSupply",
      "outputs": [
        {
          "name": "",
          "type": "uint256"
        }
      ],
      "payable": false,
      "stateMutability": "view",
      "type": "function"
    },
    {
      "constant": true,
      "inputs": [
        {
          "name": "time",
          "type": "uint256"
        }
      ],
      "name": "getDistribution",
      "outputs": [
        {
          "name": "",
          "type": "address"
        },
        {
          "name": "",
          "type": "uint256"
        }
      ],
      "payable": false,
      "stateMutability": "view",
      "type": "function"
    },
    {
      "constant": true,
      "inputs": [
        {
          "name": "_owner",
          "type": "address"
        }
      ],
      "name": "withdrawableFundsOf",
      "outputs": [
        {
          "name": "",
          "type": "uint256"
        }
      ],
      "payable": false,
      "stateMutability": "view",
      "type": "function"
    },
    {
      "constant": true,
      "inputs": [
        {
          "name": "_owner",
          "type": "address"
        }
      ],
      "name": "accumulativeFundsOf",
      "outputs": [
        {
          "name": "",
          "type": "uint256"
        }
      ],
      "payable": false,
      "stateMutability": "view",
      "type": "function"
    },
    {
      "constant": true,
      "inputs": [
        {
          "name": "time",
          "type": "uint256"
        }
      ],
      "name": "snapshotTotalSupply",
      "outputs": [
        {
          "name": "",
          "type": "uint256"
        }
      ],
      "payable": false,
      "stateMutability": "view",
      "type": "function"
    },
    {
      "constant": true,
      "inputs": [
        {
          "name": "time",
          "type": "uint256"
        },
        {
          "name": "owner",
          "type": "address"
        }
      ],
      "name": "snapshotBalanceOf",
      "outputs": [
        {
          "name": "",
          "type": "uint256"
        }
      ],
      "payable": false,
      "stateMutability": "view",
      "type": "function"
    },
    {
      "constant": true,
      "inputs": [],
      "name": "fundsToken",
      "outputs": [
        {
          "name": "",
          "type": "address"
        }
      ],
      "payable": false,
      "stateMutability": "view",
      "type": "function"
    },
    {
      "constant": true,
      "inputs": [
        {
          "name": "account",
          "type": "address"
        }
      ],
      "name": "balanceOf",
      "outputs": [
        {
          "name": "",
          "type": "uint256"
        }
      ],
      "payable": false,
      "stateMutability": "view",
      "type": "function"
    },
    {
      "constant": false,
      "inputs": [],
      "name": "renounceOwnership",
      "outputs": [],
      "payable": false,
      "stateMutability": "nonpayable",
      "type": "function"
    },
    {
      "constant": true,
      "inputs": [],
      "name": "owner",
      "outputs": [
        {
          "name": "",
          "type": "address"
        }
      ],
      "payable": false,
      "stateMutability": "view",
      "type": "function"
    },
    {
      "constant": true,
      "inputs": [],
      "name": "isOwner",
      "outputs": [
        {
          "name": "",
          "type": "bool"
        }
      ],
      "payable": false,
      "stateMutability": "view",
      "type": "function"
    },
    {
      "constant": true,
      "inputs": [],
      "name": "fundsTokenBalance",
      "outputs": [
        {
          "name": "",
          "type": "uint256"
        }
      ],
      "payable": false,
      "stateMutability": "view",
      "type": "function"
    },
    {
      "constant": true,
      "inputs": [],
      "name": "isPaused",
      "outputs": [
        {
          "name": "",
          "type": "bool"
        }
      ],
      "payable": false,
      "stateMutability": "view",
      "type": "function"
    },
    {
      "constant": false,
      "inputs": [
        {
          "name": "time",
          "type": "uint256"
        },
        {
          "name": "ballot",
          "type": "bool"
        }
      ],
      "name": "vote",
      "outputs": [
        {
          "name": "",
          "type": "bool"
        }
      ],
      "payable": false,
      "stateMutability": "nonpayable",
      "type": "function"
    },
    {
      "constant": true,
      "inputs": [
        {
          "name": "time",
          "type": "uint256"
        }
      ],
      "name": "getResolution",
      "outputs": [
        {
          "name": "",
          "type": "string"
        },
        {
          "name": "",
          "type": "bool"
        }
      ],
      "payable": false,
      "stateMutability": "view",
      "type": "function"
    },
    {
      "constant": true,
      "inputs": [
        {
          "name": "owner",
          "type": "address"
        },
        {
          "name": "spender",
          "type": "address"
        }
      ],
      "name": "allowance",
      "outputs": [
        {
          "name": "",
          "type": "uint256"
        }
      ],
      "payable": false,
      "stateMutability": "view",
      "type": "function"
    },
    {
      "constant": false,
      "inputs": [
        {
          "name": "newOwner",
          "type": "address"
        }
      ],
      "name": "transferOwnership",
      "outputs": [],
      "payable": false,
      "stateMutability": "nonpayable",
      "type": "function"
    },
    {
      "constant": true,
      "inputs": [],
      "name": "getNextSnapshots",
      "outputs": [
        {
          "name": "",
          "type": "uint256[]"
        }
      ],
      "payable": false,
      "stateMutability": "view",
      "type": "function"
    },
    {
      "anonymous": false,
      "inputs": [
        {
          "indexed": true,
          "name": "enforcer",
          "type": "address"
        },
        {
          "indexed": true,
          "name": "owner",
          "type": "address"
        }
      ],
      "name": "Freeze",
      "type": "event"
    },
    {
      "anonymous": false,
      "inputs": [
        {
          "indexed": true,
          "name": "enforcer",
          "type": "address"
        },
        {
          "indexed": true,
          "name": "owner",
          "type": "address"
        }
      ],
      "name": "Unfreeze",
      "type": "event"
    },
    {
      "anonymous": false,
      "inputs": [
        {
          "indexed": true,
          "name": "owner",
          "type": "address"
        },
        {
          "indexed": false,
          "name": "amount",
          "type": "uint256"
        }
      ],
      "name": "Burn",
      "type": "event"
    },
    {
      "anonymous": false,
      "inputs": [
        {
          "indexed": true,
          "name": "beneficiary",
          "type": "address"
        },
        {
          "indexed": false,
          "name": "amount",
          "type": "uint256"
        }
      ],
      "name": "Mint",
      "type": "event"
    },
    {
      "anonymous": false,
      "inputs": [
        {
          "indexed": true,
          "name": "security",
          "type": "address"
        },
        {
          "indexed": false,
          "name": "recordDate",
          "type": "uint256"
        },
        {
          "indexed": false,
          "name": "resolution",
          "type": "string"
        },
        {
          "indexed": false,
          "name": "voting",
          "type": "bool"
        }
      ],
      "name": "Resolution",
      "type": "event"
    },
    {
      "anonymous": false,
      "inputs": [
        {
          "indexed": true,
          "name": "security",
          "type": "address"
        },
        {
          "indexed": false,
          "name": "oldTime",
          "type": "uint256"
        },
        {
          "indexed": false,
          "name": "newTime",
          "type": "uint256"
        }
      ],
      "name": "SnapshotSchedule",
      "type": "event"
    },
    {
      "anonymous": false,
      "inputs": [
        {
          "indexed": true,
          "name": "security",
          "type": "address"
        },
        {
          "indexed": false,
          "name": "time",
          "type": "uint256"
        }
      ],
      "name": "SnapshotUnschedule",
      "type": "event"
    },
    {
      "anonymous": false,
      "inputs": [
        {
          "indexed": true,
          "name": "from",
          "type": "address"
        },
        {
          "indexed": true,
          "name": "to",
          "type": "address"
        },
        {
          "indexed": false,
          "name": "value",
          "type": "uint256"
        }
      ],
      "name": "Transfer",
      "type": "event"
    },
    {
      "anonymous": false,
      "inputs": [
        {
          "indexed": true,
          "name": "owner",
          "type": "address"
        },
        {
          "indexed": true,
          "name": "spender",
          "type": "address"
        },
        {
          "indexed": false,
          "name": "value",
          "type": "uint256"
        }
      ],
      "name": "Approval",
      "type": "event"
    },
    {
      "anonymous": false,
      "inputs": [],
      "name": "Paused",
      "type": "event"
    },
    {
      "anonymous": false,
      "inputs": [],
      "name": "Unpaused",
      "type": "event"
    },
    {
      "anonymous": false,
      "inputs": [
        {
          "indexed": true,
          "name": "previousOwner",
          "type": "address"
        },
        {
          "indexed": true,
          "name": "newOwner",
          "type": "address"
        }
      ],
      "name": "OwnershipTransferred",
      "type": "event"
    },
    {
      "anonymous": false,
      "inputs": [
        {
          "indexed": true,
          "name": "by",
          "type": "address"
        },
        {
          "indexed": false,
          "name": "fundsDistributed",
          "type": "uint256"
        }
      ],
      "name": "FundsDistributed",
      "type": "event"
    },
    {
      "anonymous": false,
      "inputs": [
        {
          "indexed": true,
          "name": "by",
          "type": "address"
        },
        {
          "indexed": false,
          "name": "fundsWithdrawn",
          "type": "uint256"
        }
      ],
      "name": "FundsWithdrawn",
      "type": "event"
    },
    {
      "constant": false,
      "inputs": [
        {
          "name": "name_",
          "type": "bytes32"
        },
        {
          "name": "symbol_",
          "type": "bytes32"
        },
        {
          "name": "_owner",
          "type": "address"
        },
        {
          "name": "issuer",
          "type": "address"
        },
        {
          "name": "client",
          "type": "address"
        },
        {
          "name": "currency",
          "type": "address"
        }
      ],
      "name": "initialize",
      "outputs": [],
      "payable": false,
      "stateMutability": "nonpayable",
      "type": "function"
    },
    {
      "constant": false,
      "inputs": [
        {
          "name": "sender",
          "type": "address"
        }
      ],
      "name": "initialize",
      "outputs": [],
      "payable": false,
      "stateMutability": "nonpayable",
      "type": "function"
    },
    {
      "constant": true,
      "inputs": [],
      "name": "name",
      "outputs": [
        {
          "name": "",
          "type": "string"
        }
      ],
      "payable": false,
      "stateMutability": "view",
      "type": "function"
    },
    {
      "constant": true,
      "inputs": [],
      "name": "symbol",
      "outputs": [
        {
          "name": "",
          "type": "string"
        }
      ],
      "payable": false,
      "stateMutability": "view",
      "type": "function"
    },
    {
      "constant": true,
      "inputs": [],
      "name": "decimals",
      "outputs": [
        {
          "name": "",
          "type": "uint8"
        }
      ],
      "payable": false,
      "stateMutability": "view",
      "type": "function"
    },
    {
      "constant": false,
      "inputs": [
        {
          "name": "issuer",
          "type": "address"
        },
        {
          "name": "amount",
          "type": "uint256"
        }
      ],
      "name": "mintToken",
      "outputs": [],
      "payable": false,
      "stateMutability": "nonpayable",
      "type": "function"
    },
    {
      "constant": false,
      "inputs": [
        {
          "name": "transferor",
          "type": "address"
        },
        {
          "name": "transferee",
          "type": "address"
        },
        {
          "name": "amount",
          "type": "uint256"
        }
      ],
      "name": "transferToken",
      "outputs": [],
      "payable": false,
      "stateMutability": "nonpayable",
      "type": "function"
    },
    {
      "constant": false,
      "inputs": [
        {
          "name": "spender",
          "type": "address"
        },
        {
          "name": "amount",
          "type": "uint256"
        }
      ],
      "name": "whiteList",
      "outputs": [],
      "payable": false,
      "stateMutability": "nonpayable",
      "type": "function"
    },
    {
      "constant": false,
      "inputs": [
        {
          "name": "recipient",
          "type": "address"
        },
        {
          "name": "amount",
          "type": "uint256"
        }
      ],
      "name": "transfer",
      "outputs": [
        {
          "name": "",
          "type": "bool"
        }
      ],
      "payable": false,
      "stateMutability": "nonpayable",
      "type": "function"
    },
    {
      "constant": false,
      "inputs": [
        {
          "name": "spender",
          "type": "address"
        },
        {
          "name": "amount",
          "type": "uint256"
        }
      ],
      "name": "approve",
      "outputs": [
        {
          "name": "",
          "type": "bool"
        }
      ],
      "payable": false,
      "stateMutability": "nonpayable",
      "type": "function"
    },
    {
      "constant": false,
      "inputs": [
        {
          "name": "sender",
          "type": "address"
        },
        {
          "name": "recipient",
          "type": "address"
        },
        {
          "name": "amount",
          "type": "uint256"
        }
      ],
      "name": "transferFrom",
      "outputs": [
        {
          "name": "",
          "type": "bool"
        }
      ],
      "payable": false,
      "stateMutability": "nonpayable",
      "type": "function"
    },
    {
      "constant": false,
      "inputs": [
        {
          "name": "spender",
          "type": "address"
        },
        {
          "name": "addedValue",
          "type": "uint256"
        }
      ],
      "name": "increaseAllowance",
      "outputs": [
        {
          "name": "",
          "type": "bool"
        }
      ],
      "payable": false,
      "stateMutability": "nonpayable",
      "type": "function"
    },
    {
      "constant": false,
      "inputs": [
        {
          "name": "spender",
          "type": "address"
        },
        {
          "name": "subtractedValue",
          "type": "uint256"
        }
      ],
      "name": "decreaseAllowance",
      "outputs": [
        {
          "name": "",
          "type": "bool"
        }
      ],
      "payable": false,
      "stateMutability": "nonpayable",
      "type": "function"
    },
    {
      "constant": false,
      "inputs": [
        {
          "name": "holder",
          "type": "address"
        },
        {
          "name": "amount",
          "type": "uint256"
        }
      ],
      "name": "freeze",
      "outputs": [],
      "payable": false,
      "stateMutability": "nonpayable",
      "type": "function"
    },
    {
      "constant": false,
      "inputs": [
        {
          "name": "holder",
          "type": "address"
        }
      ],
      "name": "unfreeze",
      "outputs": [],
      "payable": false,
      "stateMutability": "nonpayable",
      "type": "function"
    },
    {
      "constant": true,
      "inputs": [
        {
          "name": "account",
          "type": "address"
        }
      ],
      "name": "frozen",
      "outputs": [
        {
          "name": "",
          "type": "uint256"
        }
      ],
      "payable": false,
      "stateMutability": "view",
      "type": "function"
    },
    {
      "constant": false,
      "inputs": [
        {
          "name": "holder",
          "type": "address"
        },
        {
          "name": "amount",
          "type": "uint256"
        }
      ],
      "name": "burn",
      "outputs": [],
      "payable": false,
      "stateMutability": "nonpayable",
      "type": "function"
    },
    {
      "constant": false,
      "inputs": [],
      "name": "burnAll",
      "outputs": [],
      "payable": false,
      "stateMutability": "nonpayable",
      "type": "function"
    },
    {
      "constant": false,
      "inputs": [
        {
          "name": "time",
          "type": "uint256"
        }
      ],
      "name": "scheduleSnapshot",
      "outputs": [],
      "payable": false,
      "stateMutability": "nonpayable",
      "type": "function"
    },
    {
      "constant": false,
      "inputs": [
        {
          "name": "oldTime",
          "type": "uint256"
        },
        {
          "name": "newTime",
          "type": "uint256"
        }
      ],
      "name": "rescheduleSnapshot",
      "outputs": [],
      "payable": false,
      "stateMutability": "nonpayable",
      "type": "function"
    },
    {
      "constant": false,
      "inputs": [
        {
          "name": "time",
          "type": "uint256"
        }
      ],
      "name": "unscheduleSnapshot",
      "outputs": [],
      "payable": false,
      "stateMutability": "nonpayable",
      "type": "function"
    },
    {
      "constant": false,
      "inputs": [
        {
          "name": "time",
          "type": "uint256"
        },
        {
          "name": "votes",
          "type": "bool"
        },
        {
          "name": "ipfsLink",
          "type": "string"
        }
      ],
      "name": "createResolution",
      "outputs": [],
      "payable": false,
      "stateMutability": "nonpayable",
      "type": "function"
    },
    {
      "constant": true,
      "inputs": [
        {
          "name": "time",
          "type": "uint256"
        }
      ],
      "name": "countVotes",
      "outputs": [
        {
          "name": "total",
          "type": "uint256"
        },
        {
          "name": "yes",
          "type": "uint256"
        }
      ],
      "payable": false,
      "stateMutability": "view",
      "type": "function"
    },
    {
      "constant": false,
      "inputs": [
        {
          "name": "time",
          "type": "uint256"
        },
        {
          "name": "wallet",
          "type": "address"
        },
        {
          "name": "token",
          "type": "address"
        },
        {
          "name": "amount",
          "type": "uint256"
        }
      ],
      "name": "payoutProrata",
      "outputs": [],
      "payable": false,
      "stateMutability": "nonpayable",
      "type": "function"
    },
    {
      "constant": false,
      "inputs": [
        {
          "name": "time",
          "type": "uint256"
        },
        {
          "name": "holder",
          "type": "address"
        },
        {
          "name": "wallet",
          "type": "address"
        },
        {
          "name": "token",
          "type": "address"
        },
        {
          "name": "amount",
          "type": "uint256"
        }
      ],
      "name": "payout",
      "outputs": [],
      "payable": false,
      "stateMutability": "nonpayable",
      "type": "function"
    },
    {
      "constant": false,
      "inputs": [],
      "name": "withdrawFunds",
      "outputs": [],
      "payable": false,
      "stateMutability": "nonpayable",
      "type": "function"
    },
    {
      "constant": false,
      "inputs": [
        {
          "name": "owners",
          "type": "address[]"
        }
      ],
      "name": "pushFunds",
      "outputs": [],
      "payable": false,
      "stateMutability": "nonpayable",
      "type": "function"
    },
    {
      "constant": false,
      "inputs": [],
      "name": "updateFundsReceived",
      "outputs": [],
      "payable": false,
      "stateMutability": "nonpayable",
      "type": "function"
    },
    {
      "constant": false,
      "inputs": [],
      "name": "pause",
      "outputs": [],
      "payable": false,
      "stateMutability": "nonpayable",
      "type": "function"
    },
    {
      "constant": false,
      "inputs": [],
      "name": "unpause",
      "outputs": [],
      "payable": false,
      "stateMutability": "nonpayable",
      "type": "function"
    }
  ],
  "bytecode": "0x6080604052615678806100136000396000f3fe608060405234801561001057600080fd5b50600436106102ba5760003560e01c80638456cb5911610182578063b187bd26116100e9578063d21268ef116100a2578063e20c35e51161007c578063e20c35e514610a84578063f2fde38b14610aa1578063f5537ede14610ac7578063fb78ed4014610afd576102ba565b8063d21268ef14610993578063d565a533146109b6578063dd62ed3e14610a56576102ba565b8063b187bd2614610824578063b6fdff181461082c578063bcc88fbd1461086e578063c4d66de814610922578063c9d27afe14610948578063d05166501461096d576102ba565b80639dc29fac1161013b5780639dc29fac1461073f578063a1b4b1ce1461076b578063a312e155146107a7578063a457c2d7146107c4578063a9059cbb146107f0578063a9691f3f1461081c576102ba565b80638456cb59146106cd57806389d29c4c146106d55780638da5cb5b1461071f5780638f32d59b1461072757806395d89b411461072f5780639975038c14610737576102ba565b8063443bb29311610226578063634daf76116101df578063634daf76146105f757806363f04b151461062357806370a0823114610647578063715018a61461066d57806372e0f8531461067557806379c65068146106a1576102ba565b8063443bb293146104f057806345c8b1a61461051657806345f634f21461053c57806346c162de146105ac5780634e97415f146105b45780635ee7a942146105da576102ba565b806324600fc31161027857806324600fc31461042857806324bce60c14610432578063313ce5671461045e578063395093511461047c5780633b345a87146104a85780633f4ba83a146104e8576102ba565b806241c52c146102bf57806306fdde03146102f7578063095ea7b31461037457806318160ddd146103b45780631840f0ca146103bc57806323b872dd146103f2575b600080fd5b6102e5600480360360208110156102d557600080fd5b50356001600160a01b0316610b55565b60408051918252519081900360200190f35b6102ff610b74565b6040805160208082528351818301528351919283929083019185019080838360005b83811015610339578181015183820152602001610321565b50505050905090810190601f1680156103665780820380516001836020036101000a031916815260200191505b509250505060405180910390f35b6103a06004803603604081101561038a57600080fd5b506001600160a01b038135169060200135610c0b565b604080519115158252519081900360200190f35b6102e5610d8f565b6103d9600480360360208110156103d257600080fd5b5035610d95565b6040805192835260208301919091528051918290030190f35b6103a06004803603606081101561040857600080fd5b506001600160a01b03813581169160208101359091169060400135610fce565b6104306112b9565b005b6104306004803603604081101561044857600080fd5b506001600160a01b0381351690602001356112c4565b610466611451565b6040805160ff9092168252519081900360200190f35b6103a06004803603604081101561049257600080fd5b506001600160a01b038135169060200135611456565b6104c5600480360360208110156104be57600080fd5b50356114d9565b604080516001600160a01b03909316835260208301919091528051918290030190f35b6104306115c5565b6102e56004803603602081101561050657600080fd5b50356001600160a01b03166116b7565b6104306004803603602081101561052c57600080fd5b50356001600160a01b03166116dd565b6104306004803603602081101561055257600080fd5b81019060208101813564010000000081111561056d57600080fd5b82018360208201111561057f57600080fd5b803590602001918460208302840111640100000000831117156105a157600080fd5b509092509050611867565b6104306118a3565b6102e5600480360360208110156105ca57600080fd5b50356001600160a01b03166118c9565b6102e5600480360360208110156105f057600080fd5b503561191e565b6102e56004803603604081101561060d57600080fd5b50803590602001356001600160a01b031661194e565b61062b611997565b604080516001600160a01b039092168252519081900360200190f35b6102e56004803603602081101561065d57600080fd5b50356001600160a01b03166119a6565b6104306119c1565b6104306004803603604081101561068b57600080fd5b506001600160a01b038135169060200135611a55565b610430600480360360408110156106b757600080fd5b506001600160a01b038135169060200135611be0565b610430611cc4565b610430600480360360c08110156106eb57600080fd5b508035906020810135906001600160a01b0360408201358116916060810135821691608082013581169160a0013516611db3565b61062b611efc565b6103a0611f0b565b6102ff611f31565b610430611f92565b6104306004803603604081101561075557600080fd5b506001600160a01b03813516906020013561217a565b6104306004803603608081101561078157600080fd5b508035906001600160a01b03602082013581169160408101359091169060600135612304565b610430600480360360208110156107bd57600080fd5b503561284c565b6103a0600480360360408110156107da57600080fd5b506001600160a01b038135169060200135612989565b6103a06004803603604081101561080657600080fd5b506001600160a01b038135169060200135612a0f565b6102e5612cab565b6103a0612cb1565b610430600480360360a081101561084257600080fd5b508035906001600160a01b03602082013581169160408101358216916060820135169060800135612cba565b6104306004803603606081101561088457600080fd5b81359160208101351515918101906060810160408201356401000000008111156108ad57600080fd5b8201836020820111156108bf57600080fd5b803590602001918460018302840111640100000000831117156108e157600080fd5b91908080601f01602080910402602001604051908101604052809392919081815260200183838082843760009201919091525092955061317b945050505050565b6104306004803603602081101561093857600080fd5b50356001600160a01b03166132bc565b6103a06004803603604081101561095e57600080fd5b508035906020013515156133b0565b6102e56004803603602081101561098357600080fd5b50356001600160a01b03166135e9565b610430600480360360408110156109a957600080fd5b5080359060200135613651565b6109d3600480360360208110156109cc57600080fd5b503561378b565b604051808060200183151515158152602001828103825284818151815260200191508051906020019080838360005b83811015610a1a578181015183820152602001610a02565b50505050905090810190601f168015610a475780820380516001836020036101000a031916815260200191505b50935050505060405180910390f35b6102e560048036036040811015610a6c57600080fd5b506001600160a01b038135811691602001351661394e565b61043060048036036020811015610a9a57600080fd5b5035613979565b61043060048036036020811015610ab757600080fd5b50356001600160a01b0316613ab2565b61043060048036036060811015610add57600080fd5b506001600160a01b03813581169160208101359091169060400135613b05565b610b05613bce565b60408051602080825283518183015283519192839290830191858101910280838360005b83811015610b41578181015183820152602001610b29565b505050509050019250505060405180910390f35b6001600160a01b0381166000908152609e60205260409020545b919050565b60a98054604080516020601f6002600019610100600188161502019095169490940493840181900481028201810190925282815260609390929091830182828015610c005780601f10610bd557610100808354040283529160200191610c00565b820191906000526020600020905b815481529060010190602001808311610be357829003601f168201915b505050505090505b90565b6001600160a01b038216600090815260b060205260408120548390839081111580610ccf5750816001600160a01b0316610c43611efc565b6001600160a01b031663e0a87de1306040518263ffffffff1660e01b815260040180826001600160a01b03166001600160a01b0316815260200191505060206040518083038186803b158015610c9857600080fd5b505afa158015610cac573d6000803e3d6000fd5b505050506040513d6020811015610cc257600080fd5b50516001600160a01b0316145b80610ce7575060ac546001600160a01b038381169116145b610d295760408051600160e51b62461bcd02815260206004820152601d60248201526000805160206155a0833981519152604482015290519081900360640190fd5b60665460ff1615610d725760408051600160e51b62461bcd02815260206004820152600f602482015260008051602061543d833981519152604482015290519081900360640190fd5b610d84610d7d613c25565b8686613c29565b506001949350505050565b60695490565b606654600090819060ff1615610de35760408051600160e51b62461bcd02815260206004820152600f602482015260008051602061543d833981519152604482015290519081900360640190fd5b60408051600080825260208083018085528351902087835260a790915283822080549294859492939192019081908390600260001961010060018416150201909116048015610e695780601f10610e47576101008083540402835291820191610e69565b820191906000526020600020905b815481529060010190602001808311610e55575b50509150506040516020818303038152906040528051906020012014610fc45760a860a760008781526020019081526020016000206040518082805460018160011615610100020316600290048015610ef95780601f10610ed7576101008083540402835291820191610ef9565b820191906000526020600020905b815481529060010190602001808311610ee5575b505092835250506040519081900360200190205460ff16151560011415610fc45760ad5460005b81811015610fc1576000610f558860ad8481548110610f3b57fe5b6000918252602090912001546001600160a01b031661194e565b1115610fb957600087815260a46020526040812060ad805460019096019591929184908110610f8057fe5b60009182526020808320909101546001600160a01b0316835282019290925260400190205460ff16151560011415610fb9578360010193505b600101610f20565b50505b925090505b915091565b6000610fd8613c25565b6001600160a01b038116600090815260b0602052604090205483908111158061109a5750816001600160a01b031661100e611efc565b6001600160a01b031663e0a87de1306040518263ffffffff1660e01b815260040180826001600160a01b03166001600160a01b0316815260200191505060206040518083038186803b15801561106357600080fd5b505afa158015611077573d6000803e3d6000fd5b505050506040513d602081101561108d57600080fd5b50516001600160a01b0316145b806110b2575060ac546001600160a01b038381169116145b6110f45760408051600160e51b62461bcd02815260206004820152601d60248201526000805160206155a0833981519152604482015290519081900360640190fd5b60665460ff161561113d5760408051600160e51b62461bcd02815260206004820152600f602482015260008051602061543d833981519152604482015290519081900360640190fd5b6001600160a01b038616600090815260af602052604090205461116f85611163896119a6565b9063ffffffff613d1b16565b10156111c55760408051600160e51b62461bcd02815260206004820152601560248201527f46756e6473207472616e736665722066726f7a656e0000000000000000000000604482015290519081900360640190fd5b6111d0868686613d64565b6111db868686613dbf565b6111e3613c25565b6001600160a01b0316866001600160a01b0316146112475761124786611207613c25565b611242876040518060600160405280602881526020016154e4602891396112358c611230613c25565b61394e565b919063ffffffff613e6c16565b613c29565b6001600160a01b038516600090815260ae60205260409020546112ad5760ad805460018101825560008051602061547f8339815191520180546001600160a01b0319166001600160a01b0388169081179091559054600091825260ae6020526040909120555b50600195945050505050565b6112c233613f06565b565b6112cc613c25565b806001600160a01b03166112de611efc565b6001600160a01b031663e0a87de1306040518263ffffffff1660e01b815260040180826001600160a01b03166001600160a01b0316815260200191505060206040518083038186803b15801561133357600080fd5b505afa158015611347573d6000803e3d6000fd5b505050506040513d602081101561135d57600080fd5b50516001600160a01b0316146113ab5760408051600160e51b62461bcd02815260206004820152601c60248201526000805160206155e4833981519152604482015290519081900360640190fd5b60665460ff16156113f45760408051600160e51b62461bcd02815260206004820152600f602482015260008051602061543d833981519152604482015290519081900360640190fd5b6001600160a01b038316600081815260af60205260409020839055611417613c25565b6001600160a01b03167f51d18786e9cb144f87d46e7b796309ea84c7c687d91e09c97f051eacf59bc52860405160405180910390a3505050565b601290565b60665460009060ff16156114a25760408051600160e51b62461bcd02815260206004820152600f602482015260008051602061543d833981519152604482015290519081900360640190fd5b6114cf6114ad613c25565b84611242856114c36114bd613c25565b8961394e565b9063ffffffff613fde16565b5060015b92915050565b60008060006114e8843361194e565b1115610fc95760408051600080825260208083018085528351902087835260a7909152908390208054919390920190819083906002600019610100600184161502019091160480156115715780601f1061154f576101008083540402835291820191611571565b820191906000526020600020905b81548152906001019060200180831161155d575b50509150506040516020818303038152906040528051906020012014610fc9575050600081815260a660209081526040808320338452909152902080546001909101546001600160a01b0390911690610fc9565b6115cd613c25565b806001600160a01b03166115df611efc565b6001600160a01b031663e0a87de1306040518263ffffffff1660e01b815260040180826001600160a01b03166001600160a01b0316815260200191505060206040518083038186803b15801561163457600080fd5b505afa158015611648573d6000803e3d6000fd5b505050506040513d602081101561165e57600080fd5b50516001600160a01b0316146116ac5760408051600160e51b62461bcd02815260206004820152601c60248201526000805160206155e4833981519152604482015290519081900360640190fd5b6116b461403b565b50565b6001600160a01b0381166000908152609e60205260408120546114d390611163846118c9565b6116e5613c25565b806001600160a01b03166116f7611efc565b6001600160a01b031663e0a87de1306040518263ffffffff1660e01b815260040180826001600160a01b03166001600160a01b0316815260200191505060206040518083038186803b15801561174c57600080fd5b505afa158015611760573d6000803e3d6000fd5b505050506040513d602081101561177657600080fd5b50516001600160a01b0316146117c45760408051600160e51b62461bcd02815260206004820152601c60248201526000805160206155e4833981519152604482015290519081900360640190fd5b60665460ff161561180d5760408051600160e51b62461bcd02815260206004820152600f602482015260008051602061543d833981519152604482015290519081900360640190fd5b6001600160a01b038216600081815260af602052604081205561182e613c25565b6001600160a01b03167f4f3ab9ff0cc4f039268532098e01239544b0420171876e36889d01c62c784c7960405160405180910390a35050565b60005b8181101561189e5761189683838381811061188157fe5b905060200201356001600160a01b0316613f06565b60010161186a565b505050565b60006118ad614070565b905060008113156116b4576116b46118c482614109565b61411c565b6001600160a01b0381166000908152609d6020526040812054600160801b90611910906118f590614109565b6114c3611901866119a6565b609c549063ffffffff6141de16565b8161191757fe5b0492915050565b600080600061192e8460a061423a565b91509150816119445761193f610d8f565b611946565b805b949350505050565b6001600160a01b0381166000908152609f602052604081208190819061197590869061423a565b915091508161198c57611987846119a6565b61198e565b805b95945050505050565b60b1546001600160a01b031681565b6001600160a01b031660009081526067602052604090205490565b6119c9611f0b565b611a0b5760408051600160e51b62461bcd028152602060048201819052602482015260008051602061550c833981519152604482015290519081900360640190fd5b6033546040516000916001600160a01b0316907f8be0079c531659141344cd1fd0a4f28419497f9722a3daafe3b4186f6b6457e0908390a3603380546001600160a01b0319169055565b611a5d613c25565b6001600160a01b038116600090815260b06020526040902054829081111580611b1f5750816001600160a01b0316611a93611efc565b6001600160a01b031663e0a87de1306040518263ffffffff1660e01b815260040180826001600160a01b03166001600160a01b0316815260200191505060206040518083038186803b158015611ae857600080fd5b505afa158015611afc573d6000803e3d6000fd5b505050506040513d6020811015611b1257600080fd5b50516001600160a01b0316145b80611b37575060ac546001600160a01b038381169116145b611b795760408051600160e51b62461bcd02815260206004820152601d60248201526000805160206155a0833981519152604482015290519081900360640190fd5b60665460ff1615611bc25760408051600160e51b62461bcd02815260206004820152600f602482015260008051602061543d833981519152604482015290519081900360640190fd5b50506001600160a01b03909116600090815260b06020526040902055565b611be8611f0b565b611c2a5760408051600160e51b62461bcd028152602060048201819052602482015260008051602061550c833981519152604482015290519081900360640190fd5b611c3660008383613d64565b611c408282614290565b60ad805460018101825560008051602061547f8339815191520180546001600160a01b0319166001600160a01b0385169081179091559054600082815260ae602090815260409182902092909255805184815290517f0f6798a560793a54c3bcfe86a93cde1e73087d944c0ea20544137d4121396885929181900390910190a25050565b611ccc613c25565b806001600160a01b0316611cde611efc565b6001600160a01b031663e0a87de1306040518263ffffffff1660e01b815260040180826001600160a01b03166001600160a01b0316815260200191505060206040518083038186803b158015611d3357600080fd5b505afa158015611d47573d6000803e3d6000fd5b505050506040513d6020811015611d5d57600080fd5b50516001600160a01b031614611dab5760408051600160e51b62461bcd02815260206004820152601c60248201526000805160206155e4833981519152604482015290519081900360640190fd5b6116b46142fa565b600054610100900460ff1680611dcc5750611dcc614332565b80611dda575060005460ff16155b611e1857604051600160e51b62461bcd02815260040180806020018281038252602e81526020018061552c602e913960400191505060405180910390fd5b600054610100900460ff16158015611e43576000805460ff1961ff0019909116610100171660011790555b611e4c856132bc565b6040805160208082018a90528251808303820181529183019092528051611e779260a99201906152da565b506040805160208082018990528251808303820181529183019092528051611ea39260aa9201906152da565b5060ac80546001600160a01b038087166001600160a01b03199283161790925560ab805486841690831617905560b18054928516929091169190911790558015611ef3576000805461ff00191690555b50505050505050565b6033546001600160a01b031690565b6033546000906001600160a01b0316611f22613c25565b6001600160a01b031614905090565b60aa8054604080516020601f6002600019610100600188161502019095169490940493840181900481028201810190925282815260609390929091830182828015610c005780601f10610bd557610100808354040283529160200191610c00565b611f9a613c25565b806001600160a01b0316611fac611efc565b6001600160a01b031663e0a87de1306040518263ffffffff1660e01b815260040180826001600160a01b03166001600160a01b0316815260200191505060206040518083038186803b15801561200157600080fd5b505afa158015612015573d6000803e3d6000fd5b505050506040513d602081101561202b57600080fd5b50516001600160a01b0316146120795760408051600160e51b62461bcd02815260206004820152601c60248201526000805160206155e4833981519152604482015290519081900360640190fd5b60665460ff16156120c25760408051600160e51b62461bcd02815260206004820152600f602482015260008051602061543d833981519152604482015290519081900360640190fd5b60ad5460005b8181101561189e5761212f60ad82815481106120e057fe5b9060005260206000200160009054906101000a90046001600160a01b0316600061212a60ad858154811061211057fe5b6000918252602090912001546001600160a01b03166119a6565b613d64565b61217260ad828154811061213f57fe5b9060005260206000200160009054906101000a90046001600160a01b031661216d60ad848154811061211057fe5b614338565b6001016120c8565b612182613c25565b806001600160a01b0316612194611efc565b6001600160a01b031663e0a87de1306040518263ffffffff1660e01b815260040180826001600160a01b03166001600160a01b0316815260200191505060206040518083038186803b1580156121e957600080fd5b505afa1580156121fd573d6000803e3d6000fd5b505050506040513d602081101561221357600080fd5b50516001600160a01b0316146122615760408051600160e51b62461bcd02815260206004820152601c60248201526000805160206155e4833981519152604482015290519081900360640190fd5b60665460ff16156122aa5760408051600160e51b62461bcd02815260206004820152600f602482015260008051602061543d833981519152604482015290519081900360640190fd5b6122b683600084613d64565b6122c08383614338565b6040805183815290516001600160a01b038516917fcc16f5dbb4873280815c1ee09dbd06736cffcc184412cf7a71a0fdb75d397ca5919081900360200190a2505050565b61230c613c25565b60ab5460408051600160e01b63442767330281526001600160a01b03848116600483015291516000939290921691634427673391602480820192606092909190829003018186803b15801561236057600080fd5b505afa158015612374573d6000803e3d6000fd5b505050506040513d606081101561238a57600080fd5b505190506001600160a01b0382166123a0611efc565b6001600160a01b031663e0a87de1306040518263ffffffff1660e01b815260040180826001600160a01b03166001600160a01b0316815260200191505060206040518083038186803b1580156123f557600080fd5b505afa158015612409573d6000803e3d6000fd5b505050506040513d602081101561241f57600080fd5b50516001600160a01b03161480612444575080600160b91b6821bab9ba37b234b0b702145b6124985760408051600160e51b62461bcd02815260206004820152601760248201527f4e6f7420697373756572206f7220637573746f6469616e000000000000000000604482015290519081900360640190fd5b60665460ff16156124e15760408051600160e51b62461bcd02815260206004820152600f602482015260008051602061543d833981519152604482015290519081900360640190fd5b60006124ec8761191e565b116125415760408051600160e51b62461bcd02815260206004820152601b60248201527f4e6f207363686564756c656420736e617073686f7420666f756e640000000000604482015290519081900360640190fd5b82846001600160a01b03166370a08231876040518263ffffffff1660e01b815260040180826001600160a01b03166001600160a01b0316815260200191505060206040518083038186803b15801561259857600080fd5b505afa1580156125ac573d6000803e3d6000fd5b505050506040513d60208110156125c257600080fd5b5051101561261a5760408051600160e51b62461bcd02815260206004820152601460248201527f496e73756666696369656e742062616c616e6365000000000000000000000000604482015290519081900360640190fd5b6001600160a01b0384161580159061263a57506001600160a01b03851615155b80156126465750600083115b61269a5760408051600160e51b62461bcd02815260206004820152601460248201527f496e76616c696420646973747269627574696f6e000000000000000000000000604482015290519081900360640190fd5b60006126a58761191e565b60ad5490915060005b818110156128415760006126c98a60ad8481548110610f3b57fe5b905080156128385760006126e66126e08387614382565b89614464565b9050886001600160a01b03166323b872dd8b60ad868154811061270557fe5b60009182526020808320909101546040805163ffffffff871660e01b81526001600160a01b0395861660048201529490911660248501526044840187905251606480850194929391928390030190829087803b15801561276457600080fd5b505af1158015612778573d6000803e3d6000fd5b505050506040513d602081101561278e57600080fd5b505060008b815260a66020526040812060ad80548c939190879081106127b057fe5b6000918252602080832091909101546001600160a01b039081168452838201949094526040928301822080546001600160a01b03191695909416949094179092558d825260a690925290812060ad8054849391908790811061280e57fe5b60009182526020808320909101546001600160a01b03168352820192909252604001902060010155505b506001016126ae565b505050505050505050565b612854613c25565b806001600160a01b0316612866611efc565b6001600160a01b031663e0a87de1306040518263ffffffff1660e01b815260040180826001600160a01b03166001600160a01b0316815260200191505060206040518083038186803b1580156128bb57600080fd5b505afa1580156128cf573d6000803e3d6000fd5b505050506040513d60208110156128e557600080fd5b50516001600160a01b0316146129335760408051600160e51b62461bcd02815260206004820152601c60248201526000805160206155e4833981519152604482015290519081900360640190fd5b60665460ff161561297c5760408051600160e51b62461bcd02815260206004820152600f602482015260008051602061543d833981519152604482015290519081900360640190fd5b612985826144e4565b5050565b60665460009060ff16156129d55760408051600160e51b62461bcd02815260206004820152600f602482015260008051602061543d833981519152604482015290519081900360640190fd5b6114cf6129e0613c25565b846112428560405180606001604052806025815260200161562860259139611235612a09613c25565b8a61394e565b6000612a19613c25565b6001600160a01b038116600090815260b06020526040902054839081111580612adb5750816001600160a01b0316612a4f611efc565b6001600160a01b031663e0a87de1306040518263ffffffff1660e01b815260040180826001600160a01b03166001600160a01b0316815260200191505060206040518083038186803b158015612aa457600080fd5b505afa158015612ab8573d6000803e3d6000fd5b505050506040513d6020811015612ace57600080fd5b50516001600160a01b0316145b80612af3575060ac546001600160a01b038381169116145b612b355760408051600160e51b62461bcd02815260206004820152601d60248201526000805160206155a0833981519152604482015290519081900360640190fd5b60665460ff1615612b7e5760408051600160e51b62461bcd02815260206004820152600f602482015260008051602061543d833981519152604482015290519081900360640190fd5b60af6000612b8a613c25565b6001600160a01b03166001600160a01b0316815260200190815260200160002054612bbf85611163612bba613c25565b6119a6565b1015612c155760408051600160e51b62461bcd02815260206004820152601560248201527f46756e6473207472616e736665722066726f7a656e0000000000000000000000604482015290519081900360640190fd5b612c27612c20613c25565b8686613d64565b612c39612c32613c25565b8686613dbf565b6001600160a01b038516600090815260ae6020526040902054610d845760ad805460018101825560008051602061547f8339815191520180546001600160a01b0388166001600160a01b031990911681179091559054600091825260ae60205260409091205560019250505092915050565b60b25481565b60665460ff1690565b612cc2613c25565b60ab5460408051600160e01b63442767330281526001600160a01b03848116600483015291516000939290921691634427673391602480820192606092909190829003018186803b158015612d1657600080fd5b505afa158015612d2a573d6000803e3d6000fd5b505050506040513d6060811015612d4057600080fd5b505190506001600160a01b038216612d56611efc565b6001600160a01b031663e0a87de1306040518263ffffffff1660e01b815260040180826001600160a01b03166001600160a01b0316815260200191505060206040518083038186803b158015612dab57600080fd5b505afa158015612dbf573d6000803e3d6000fd5b505050506040513d6020811015612dd557600080fd5b50516001600160a01b03161480612dfa575080600160b91b6821bab9ba37b234b0b702145b612e4e5760408051600160e51b62461bcd02815260206004820152601760248201527f4e6f7420697373756572206f7220637573746f6469616e000000000000000000604482015290519081900360640190fd5b60665460ff1615612e975760408051600160e51b62461bcd02815260206004820152600f602482015260008051602061543d833981519152604482015290519081900360640190fd5b6000612ea28861191e565b11612ef75760408051600160e51b62461bcd02815260206004820152601b60248201527f4e6f207363686564756c656420736e617073686f7420666f756e640000000000604482015290519081900360640190fd5b82846001600160a01b03166370a08231876040518263ffffffff1660e01b815260040180826001600160a01b03166001600160a01b0316815260200191505060206040518083038186803b158015612f4e57600080fd5b505afa158015612f62573d6000803e3d6000fd5b505050506040513d6020811015612f7857600080fd5b50511015612fd05760408051600160e51b62461bcd02815260206004820152601460248201527f496e73756666696369656e742062616c616e6365000000000000000000000000604482015290519081900360640190fd5b6000612fdc888861194e565b116130315760408051600160e51b62461bcd02815260206004820152601b60248201527f4e6f74206120736563757269747920746f6b656e20686f6c6465720000000000604482015290519081900360640190fd5b6001600160a01b0384161580159061305157506001600160a01b03851615155b801561305d5750600083115b6130b15760408051600160e51b62461bcd02815260206004820152601460248201527f496e76616c696420646973747269627574696f6e000000000000000000000000604482015290519081900360640190fd5b60408051600160e01b6323b872dd0281526001600160a01b0387811660048301528881166024830152604482018690529151918616916323b872dd916064808201926020929091908290030181600087803b15801561310f57600080fd5b505af1158015613123573d6000803e3d6000fd5b505050506040513d602081101561313957600080fd5b50505060009586525060a6602090815260408087206001600160a01b03968716885290915290942080546001600160a01b031916919093161782555060010155565b613183613c25565b806001600160a01b0316613195611efc565b6001600160a01b031663e0a87de1306040518263ffffffff1660e01b815260040180826001600160a01b03166001600160a01b0316815260200191505060206040518083038186803b1580156131ea57600080fd5b505afa1580156131fe573d6000803e3d6000fd5b505050506040513d602081101561321457600080fd5b50516001600160a01b0316146132625760408051600160e51b62461bcd02815260206004820152601c60248201526000805160206155e4833981519152604482015290519081900360640190fd5b60665460ff16156132ab5760408051600160e51b62461bcd02815260206004820152600f602482015260008051602061543d833981519152604482015290519081900360640190fd5b6132b6848484614612565b50505050565b600054610100900460ff16806132d557506132d5614332565b806132e3575060005460ff16155b61332157604051600160e51b62461bcd02815260040180806020018281038252602e81526020018061552c602e913960400191505060405180910390fd5b600054610100900460ff1615801561334c576000805460ff1961ff0019909116610100171660011790555b603380546001600160a01b0319166001600160a01b0384811691909117918290556040519116906000907f8be0079c531659141344cd1fd0a4f28419497f9722a3daafe3b4186f6b6457e0908290a38015612985576000805461ff00191690555050565b6000806133bd843361194e565b116134125760408051600160e51b62461bcd02815260206004820152601260248201527f556e617574686f72697a656420766f7465720000000000000000000000000000604482015290519081900360640190fd5b600083815260a56020908152604080832033845290915290205460ff166135dc5760408051600080825260208083018085528351902087835260a7909152908390208054919390920190819083906002600019610100600184161502019091160480156134b65780601f106134945761010080835404028352918201916134b6565b820191906000526020600020905b8154815290600101906020018083116134a2575b505091505060405160208183030381529060405280519060200120146135e45760a860a7600085815260200190815260200160002060405180828054600181600116156101000203166002900480156135465780601f10613524576101008083540402835291820191613546565b820191906000526020600020905b815481529060010190602001808311613532575b505092835250506040519081900360200190205460ff161515600114156135dc57600083815260a46020908152604080832033845290915290205460ff166135d75750600082815260a46020908152604080832033808552908352818420805486151560ff199182161790915586855260a584528285209185529252909120805490911660019081179091556114d3565b6135e4565b5060006114d3565b6114d3565b60665460009060ff16156136355760408051600160e51b62461bcd02815260206004820152600f602482015260008051602061543d833981519152604482015290519081900360640190fd5b506001600160a01b0316600090815260af602052604090205490565b613659613c25565b806001600160a01b031661366b611efc565b6001600160a01b031663e0a87de1306040518263ffffffff1660e01b815260040180826001600160a01b03166001600160a01b0316815260200191505060206040518083038186803b1580156136c057600080fd5b505afa1580156136d4573d6000803e3d6000fd5b505050506040513d60208110156136ea57600080fd5b50516001600160a01b0316146137385760408051600160e51b62461bcd02815260206004820152601c60248201526000805160206155e4833981519152604482015290519081900360640190fd5b60665460ff16156137815760408051600160e51b62461bcd02815260206004820152600f602482015260008051602061543d833981519152604482015290519081900360640190fd5b61189e8383614793565b60408051600080825260208083018085528351902085835260a7909152838220805460609593949293919290910190819083906002600019610100600184161502019091160480156138145780601f106137f2576101008083540402835291820191613814565b820191906000526020600020905b815481529060010190602001808311613800575b50509150506040516020818303038152906040528051906020012014610fc957600083815260a76020526040908190209051815460a8918391819083906002600019610100600184161502019091160480156138a75780601f106138855761010080835404028352918201916138a7565b820191906000526020600020905b815481529060010190602001808311613893575b50509283525050604080516020928190038301812054845460026101006001831615026000190190911604601f810185900485028301850190935282825260ff16929091849183018282801561393e5780601f106139135761010080835404028352916020019161393e565b820191906000526020600020905b81548152906001019060200180831161392157829003601f168201915b5050505050915091509150610fc9565b6001600160a01b03918216600090815260686020908152604080832093909416825291909152205490565b613981613c25565b806001600160a01b0316613993611efc565b6001600160a01b031663e0a87de1306040518263ffffffff1660e01b815260040180826001600160a01b03166001600160a01b0316815260200191505060206040518083038186803b1580156139e857600080fd5b505afa1580156139fc573d6000803e3d6000fd5b505050506040513d6020811015613a1257600080fd5b50516001600160a01b031614613a605760408051600160e51b62461bcd02815260206004820152601c60248201526000805160206155e4833981519152604482015290519081900360640190fd5b60665460ff1615613aa95760408051600160e51b62461bcd02815260206004820152600f602482015260008051602061543d833981519152604482015290519081900360640190fd5b61298582614961565b613aba611f0b565b613afc5760408051600160e51b62461bcd028152602060048201819052602482015260008051602061550c833981519152604482015290519081900360640190fd5b6116b481614a59565b613b0d611f0b565b613b4f5760408051600160e51b62461bcd028152602060048201819052602482015260008051602061550c833981519152604482015290519081900360640190fd5b613b5a838383613d64565b613b65838383613dbf565b6001600160a01b038216600090815260ae602052604090205461189e575060ad805460018101825560008051602061547f8339815191520180546001600160a01b0319166001600160a01b0393909316928317905554600091825260ae60205260409091205550565b606060a3805480602002602001604051908101604052809291908181526020018280548015610c0057602002820191906000526020600020905b815481526020019060010190808311613c08575050505050905090565b3390565b6001600160a01b038316613c7157604051600160e51b62461bcd0281526004018080602001828103825260248152602001806155c06024913960400191505060405180910390fd5b6001600160a01b038216613cb957604051600160e51b62461bcd0281526004018080602001828103825260228152602001806153d46022913960400191505060405180910390fd5b6001600160a01b03808416600081815260686020908152604080832094871680845294825291829020859055815185815291517f8c5be1e5ebec7d5bd14f71427d1e84f3dd0314c0f7b2291e5b200ac8c7c3b9259281900390910190a3505050565b6000613d5d83836040518060400160405280601e81526020017f536166654d6174683a207375627472616374696f6e206f766572666c6f770000815250613e6c565b9392505050565b613d6c614afd565b6001600160a01b03831615613dae57613d8483614b1c565b6001600160a01b03821615613da157613d9c82614b1c565b613da9565b613da9614b46565b61189e565b613db782614b1c565b61189e614b46565b613dca838383614b53565b6000613de9613de483609c546141de90919063ffffffff16565b614cb7565b6001600160a01b0385166000908152609d6020526040902054909150613e15908263ffffffff614cc716565b6001600160a01b038086166000908152609d60205260408082209390935590851681522054613e4a908263ffffffff614d2f16565b6001600160a01b039093166000908152609d6020526040902092909255505050565b60008184841115613efe57604051600160e51b62461bcd0281526004018080602001828103825283818151815260200191508051906020019080838360005b83811015613ec3578181015183820152602001613eab565b50505050905090810190601f168015613ef05780820380516001836020036101000a031916815260200191505b509250505060405180910390fd5b505050900390565b6000613f1182614d97565b60b15460408051600160e01b63a9059cbb0281526001600160a01b03868116600483015260248201859052915193945091169163a9059cbb916044808201926020929091908290030181600087803b158015613f6c57600080fd5b505af1158015613f80573d6000803e3d6000fd5b505050506040513d6020811015613f9657600080fd5b5051613fd657604051600160e51b62461bcd02815260040180806020018281038252602281526020018061545d6022913960400191505060405180910390fd5b61189e614070565b600082820183811015613d5d5760408051600160e51b62461bcd02815260206004820152601b60248201527f536166654d6174683a206164646974696f6e206f766572666c6f770000000000604482015290519081900360640190fd5b6066805460ff191690556040517fa45f47fdea8a1efdd9029a5691c7f759c32b7c698632b563573e155625d1693390600090a1565b60b25460b15460408051600160e01b6370a082310281523060048201529051600093926001600160a01b0316916370a08231916024808301926020929190829003018186803b1580156140c257600080fd5b505afa1580156140d6573d6000803e3d6000fd5b505050506040513d60208110156140ec57600080fd5b505160b2819055614103908263ffffffff614d2f16565b91505090565b60008082121561411857600080fd5b5090565b6000614126610d8f565b1161416557604051600160e51b62461bcd02815260040180806020018281038252602481526020018061549f6024913960400191505060405180910390fd5b80156116b4576141a2614176610d8f565b61418a83600160801b63ffffffff6141de16565b8161419157fe5b609c5491900463ffffffff613fde16565b609c5560408051828152905133917f26536799ace2c3dbe12e638ec3ade6b4173dcf1289be0a58d51a5003015649bd919081900360200190a250565b6000826141ed575060006114d3565b828202828482816141fa57fe5b0414613d5d57604051600160e51b62461bcd0281526004018080602001828103825260218152602001806154c36021913960400191505060405180910390fd5b6000808061424e848663ffffffff614e2716565b8454909150811415614267575060009150819050614289565b600184600101828154811061427857fe5b906000526020600020015492509250505b9250929050565b61429a8282614ec8565b6142da6142b5613de483609c546141de90919063ffffffff16565b6001600160a01b0384166000908152609d60205260409020549063ffffffff614d2f16565b6001600160a01b039092166000908152609d602052604090209190915550565b6066805460ff191660011790556040517f9e87fac88ff661f02d44f95383c817fece4bce600a3dab7a54406878b965e75290600090a1565b303b1590565b6143428282614fbd565b6142da61435d613de483609c546141de90919063ffffffff16565b6001600160a01b0384166000908152609d60205260409020549063ffffffff614cc716565b6000816143d95760408051600160e51b62461bcd02815260206004820152600d60248201527f5a45524f5f4449564953494f4e00000000000000000000000000000000000000604482015290519081900360640190fd5b826143e6575060006114d3565b670de0b6b3a7640000838102908482816143fc57fe5b04146144525760408051600160e51b62461bcd02815260206004820152600c60248201527f4449565f494e5445524e414c0000000000000000000000000000000000000000604482015290519081900360640190fd5b82818161445b57fe5b049150506114d3565b600082820283158061447e57508284828161447b57fe5b04145b6144d25760408051600160e51b62461bcd02815260206004820152600c60248201527f4d554c5f4f564552464c4f570000000000000000000000000000000000000000604482015290519081900360640190fd5b670de0b6b3a764000090049392505050565b80421061453b5760408051600160e51b62461bcd02815260206004820152601460248201527f536e617073686f7420696e207468652070617374000000000000000000000000604482015290519081900360640190fd5b6000614546826150bc565b509050801561459f5760408051600160e51b62461bcd02815260206004820152601d60248201527f536e617073686f742065786973747320666f7220746869732074696d65000000604482015290519081900360640190fd5b60a3805460018101825560009182527f60859188cffe297f44dde29f2d2865634621f26215049caeb304ccba566a8b17018390556040805191825260208201849052805130927f8cad7eb54258c06103e9bf7e76d41fbc96c6fe17e0e122e15c9669ebf2e48fc392908290030190a25050565b606061461c613bce565b905060005b815181101561478c578482828151811061463757fe5b6020026020010151141561478457600085815260a7602090815260409091208451614664928601906152da565b508360a8846040518082805190602001908083835b602083106146985780518252601f199092019160209182019101614679565b51815160209384036101000a6000190180199092169116179052920194855250604080519485900382018520805460ff1916961515969096179095558984528815159484019490945250506060818301818152865191830191909152855130937f870eae2b1d96094d2506bdf7e2920e69b502da493662576957e97e74512cea99938a9389938b9360808401919086019080838360005b8381101561474757818101518382015260200161472f565b50505050905090810190601f1680156147745780820380516001836020036101000a031916815260200191505b5094505050505060405180910390a25b600101614621565b5050505050565b8142106147ea5760408051600160e51b62461bcd02815260206004820152601560248201527f536e617073686f7420616c726561647920646f6e650000000000000000000000604482015290519081900360640190fd5b8042106148415760408051600160e51b62461bcd02815260206004820152601460248201527f536e617073686f7420696e207468652070617374000000000000000000000000604482015290519081900360640190fd5b600061484c826150bc565b50905080156148a55760408051600160e51b62461bcd02815260206004820152601d60248201527f536e617073686f742065786973747320666f7220746869732074696d65000000604482015290519081900360640190fd5b6000806148b1856150bc565b91509150816149025760408051600160e51b62461bcd0281526020600482015260126024820152600160721b7114db985c1cda1bdd081b9bdd08199bdd5b9902604482015290519081900360640190fd5b8360a3828154811061491057fe5b6000918252602091829020019190915560408051878152918201869052805130927f8cad7eb54258c06103e9bf7e76d41fbc96c6fe17e0e122e15c9669ebf2e48fc392908290030190a25050505050565b8042106149b85760408051600160e51b62461bcd02815260206004820152601560248201527f536e617073686f7420616c726561647920646f6e650000000000000000000000604482015290519081900360640190fd5b6000806149c4836150bc565b9150915081614a155760408051600160e51b62461bcd0281526020600482015260126024820152600160721b7114db985c1cda1bdd081b9bdd08199bdd5b9902604482015290519081900360640190fd5b614a1e81615109565b60408051848152905130917f36888e5aaf52d39282b94ce50e076f1d7fcadd0ff8301293551ebe2d86f57b4a919081900360200190a2505050565b6001600160a01b038116614aa157604051600160e51b62461bcd0281526004018080602001828103825260268152602001806153ae6026913960400191505060405180910390fd5b6033546040516001600160a01b038084169216907f8be0079c531659141344cd1fd0a4f28419497f9722a3daafe3b4186f6b6457e090600090a3603380546001600160a01b0319166001600160a01b0392909216919091179055565b6000614b07615163565b905080156116b45760a28190556116b46151ee565b6001600160a01b0381166000908152609f602052604090206116b490614b41836119a6565b615230565b6112c260a0614b41610d8f565b6001600160a01b038316614b9b57604051600160e51b62461bcd02815260040180806020018281038252602581526020018061557b6025913960400191505060405180910390fd5b6001600160a01b038216614be357604051600160e51b62461bcd0281526004018080602001828103825260238152602001806153696023913960400191505060405180910390fd5b614c26816040518060600160405280602681526020016153f6602691396001600160a01b038616600090815260676020526040902054919063ffffffff613e6c16565b6001600160a01b038085166000908152606760205260408082209390935590841681522054614c5b908263ffffffff613fde16565b6001600160a01b0380841660008181526067602090815260409182902094909455805185815290519193928716927fddf252ad1be2c89b69c2b068fc378daa952ba7f163c4a11628f55a4df523b3ef92918290030190a3505050565b600081818112156114d357600080fd5b6000828201818312801590614cdc5750838112155b80614cf15750600083128015614cf157508381125b613d5d57604051600160e51b62461bcd02815260040180806020018281038252602181526020018061541c6021913960400191505060405180910390fd5b6000818303818312801590614d445750838113155b80614d595750600083128015614d5957508381135b613d5d57604051600160e51b62461bcd0281526004018080602001828103825260248152602001806156046024913960400191505060405180910390fd5b600080614da3836116b7565b6001600160a01b0384166000908152609e6020526040902054909150614dcf908263ffffffff613fde16565b6001600160a01b0384166000818152609e6020908152604091829020939093558051848152905191927feaff4b37086828766ad3268786972c0cd24259d4c87a80f9d3963a3c3d999b0d92918290030190a292915050565b8154600090614e38575060006114d3565b82546000905b80821015614e87576000614e52838361527a565b905084868281548110614e6157fe5b90600052602060002001541115614e7a57809150614e81565b8060010192505b50614e3e565b600082118015614eaf575083856001840381548110614ea257fe5b9060005260206000200154145b15614ec057506000190190506114d3565b5090506114d3565b6001600160a01b038216614f265760408051600160e51b62461bcd02815260206004820152601f60248201527f45524332303a206d696e7420746f20746865207a65726f206164647265737300604482015290519081900360640190fd5b606954614f39908263ffffffff613fde16565b6069556001600160a01b038216600090815260676020526040902054614f65908263ffffffff613fde16565b6001600160a01b03831660008181526067602090815260408083209490945583518581529351929391927fddf252ad1be2c89b69c2b068fc378daa952ba7f163c4a11628f55a4df523b3ef9281900390910190a35050565b6001600160a01b03821661500557604051600160e51b62461bcd02815260040180806020018281038252602181526020018061555a6021913960400191505060405180910390fd5b6150488160405180606001604052806022815260200161538c602291396001600160a01b038516600090815260676020526040902054919063ffffffff613e6c16565b6001600160a01b038316600090815260676020526040902055606954615074908263ffffffff613d1b16565b6069556040805182815290516000916001600160a01b038516917fddf252ad1be2c89b69c2b068fc378daa952ba7f163c4a11628f55a4df523b3ef9181900360200190a35050565b600080805b60a3548110156150fd578360a382815481106150d957fe5b906000526020600020015414156150f557600192509050610fc9565b6001016150c1565b50600093849350915050565b60a38054600019810190811061511b57fe5b906000526020600020015460a3828154811061513357fe5b60009182526020909120015560a380548061514a57fe5b6001900381819060005260206000200160009055905550565b60a35460009061517557506000610c08565b6000805b60a3548110156151e8574260a3828154811061519157fe5b9060005260206000200154111580156151c057508160a382815481106151b357fe5b9060005260206000200154115b156151e05760a381815481106151d257fe5b906000526020600020015491505b600101615179565b50905090565b60005b60a3548110156116b4574260a3828154811061520957fe5b9060005260206000200154116152275761522281615109565b61522b565b6001015b6151f1565b600061523a61529f565b905080615246846152a5565b101561189e578254600180820185556000858152602080822090930193909355938401805494850181558252902090910155565b6000600280830660028506018161528d57fe5b04600283046002850401019392505050565b60a25490565b80546000906152b657506000610b6f565b8154829060001981019081106152c857fe5b90600052602060002001549050610b6f565b828054600181600116156101000203166002900490600052602060002090601f016020900481019282601f1061531b57805160ff1916838001178555615348565b82800160010185558215615348579182015b8281111561534857825182559160200191906001019061532d565b5061411892610c089250905b80821115614118576000815560010161535456fe45524332303a207472616e7366657220746f20746865207a65726f206164647265737345524332303a206275726e20616d6f756e7420657863656564732062616c616e63654f776e61626c653a206e6577206f776e657220697320746865207a65726f206164647265737345524332303a20617070726f766520746f20746865207a65726f206164647265737345524332303a207472616e7366657220616d6f756e7420657863656564732062616c616e63655369676e6564536166654d6174683a206164646974696f6e206f766572666c6f77436f6e74726163742070617573656400000000000000000000000000000000004644542e776974686472617746756e64733a205452414e534645525f4641494c45440440fd76b4e685d17019b0eef836cea9994650028b99dddfb48be06fa4240aa64644542e5f6469737472696275746546756e64733a20535550504c595f49535f5a45524f536166654d6174683a206d756c7469706c69636174696f6e206f766572666c6f7745524332303a207472616e7366657220616d6f756e74206578636565647320616c6c6f77616e63654f776e61626c653a2063616c6c6572206973206e6f7420746865206f776e6572436f6e747261637420696e7374616e63652068617320616c7265616479206265656e20696e697469616c697a656445524332303a206275726e2066726f6d20746865207a65726f206164647265737345524332303a207472616e736665722066726f6d20746865207a65726f206164647265737353656e6465722077616c6c6574206e6f742077686974656c697374656400000045524332303a20617070726f76652066726f6d20746865207a65726f20616464726573734f6e6c7920697373756572206d616e616765727320616c6c6f776564000000005369676e6564536166654d6174683a207375627472616374696f6e206f766572666c6f7745524332303a2064656372656173656420616c6c6f77616e63652062656c6f77207a65726fa165627a7a723058204f5d08f20b0d53e0cca76bac71299e28119a891d43fe85bc6f1c1611680bf17c0029",
  "source": "// Verified securities manager that updates holdings of securities by users\r\n// (c) Kallol Borah, 2021\r\n\r\npragma solidity 0.5.7;\r\n\r\nimport \"./CorporateActions.sol\";\r\nimport \"./utilities/Pausable.sol\";\r\nimport \"./interfaces/IFactory.sol\";\r\nimport \"./interfaces/ISecurity.sol\";\r\nimport \"./interfaces/VerifiedClient.sol\";\r\nimport \"@openzeppelin/contracts-ethereum-package/contracts/ownership/Ownable.sol\";\r\n\r\ncontract Security is ISecurity, Ownable, Pausable, CorporateActions {\r\n\r\n    //using Math for uint256;\r\n\r\n    string private _name;\r\n    string private _symbol;\r\n\r\n    VerifiedClient private _client;\r\n\r\n    //issuer of this security token or the assigned depositary participant\r\n    address private _issuer;\r\n\r\n    //this security token's holders\r\n    address[] private holders;\r\n\r\n    //mapping holders to index\r\n    mapping(address => uint256) private holderIndex;\r\n\r\n    //mapping security token holders to amounts frozen in account (0 means all frozen)\r\n    mapping(address => uint256) private froze;\r\n\r\n    //mapping whitelisted wallets to any spend cap on them (0 means no cap)\r\n    mapping(address => uint256) private whitelisted;\r\n\r\n    // token in which the funds can be sent to the FundsDistributionToken\r\n    IERC20 public fundsToken;\r\n\r\n    // balance of fundsToken that the FundsDistributionToken currently holds\r\n    uint256 public fundsTokenBalance;\r\n\r\n    /**\r\n     * @dev Emitted when an address is frozen.\r\n     */\r\n    event Freeze(address indexed enforcer, address indexed owner);\r\n\r\n    /**\r\n     * @dev Emitted when an address is unfrozen.\r\n     */\r\n    event Unfreeze(address indexed enforcer, address indexed owner);\r\n\r\n    event Burn(address indexed owner, uint256 amount);\r\n\r\n    event Mint(address indexed beneficiary, uint256 amount);\r\n\r\n    modifier onlyIssueManagerOrCustodian(address sender){\r\n        (bytes32 role, , ) = _client.getRole(sender);\r\n        require(IFactory(owner()).getDP(address(this))==sender || role==\"Custodian\", \r\n                \"Not issuer or custodian\");\r\n        _;\r\n    }\r\n\r\n    modifier onlyIssueManager (address sender){\r\n        require(IFactory(owner()).getDP(address(this))==sender, \"Only issuer managers allowed\");\r\n        _;\r\n    }\r\n\r\n    modifier onlyWhiteListed (address sender, uint256 amount){\r\n        require(whitelisted[sender] >= amount || IFactory(owner()).getDP(address(this))==sender || sender==_issuer, \"Sender wallet not whitelisted\");\r\n        _;\r\n    }\r\n\r\n    /**\r\n     * @dev Sets the values for {name} and {symbol}.\r\n     *\r\n     * The default value of {decimals} is 18. To select a different value for\r\n     * {decimals} you should overload it.\r\n     *\r\n     * All two of these values are immutable: they can only be set once during\r\n     * construction.\r\n     */\r\n    function initialize(bytes32 name_, bytes32 symbol_, address _owner, address issuer, address client, address currency) public initializer {        \r\n        Ownable.initialize(_owner);\r\n        _name = string(abi.encodePacked(name_));\r\n        _symbol = string(abi.encodePacked(symbol_));\r\n        _issuer = issuer;\r\n        _client = VerifiedClient(client);\r\n        fundsToken = IERC20(currency);\r\n    }\r\n\r\n    /**\r\n     * @dev Returns the name of the token.\r\n     */\r\n    function name() public view returns (string memory) {\r\n        return _name;\r\n    }\r\n\r\n    /**\r\n     * @dev Returns the symbol of the token, usually a shorter version of the\r\n     * name.\r\n     */\r\n    function symbol() public view returns (string memory) {\r\n        return _symbol;\r\n    }\r\n\r\n    /**\r\n     * Securities are indivisible, so returning decimal 0\r\n     */\r\n    function decimals() public view returns (uint8) {\r\n        return 18;\r\n    }\r\n\r\n    function mintToken(address issuer, uint256 amount) external onlyOwner{\r\n        _beforeTokenTransfer(address(0x0), issuer, amount);\r\n        _mint(issuer, amount);\r\n        holders.push(issuer);\r\n        holderIndex[issuer]=holders.length;\r\n        emit Mint(issuer, amount);\r\n    }\r\n\r\n    function transferToken(address transferor, address transferee, uint256 amount) external onlyOwner{\r\n        _beforeTokenTransfer(transferor, transferee, amount);\r\n        _transfer(transferor, transferee, amount);\r\n        if(holderIndex[transferee]==0){\r\n            holders.push(transferee);\r\n            holderIndex[transferee]=holders.length;\r\n        }\r\n    }\r\n\r\n    function whiteList(address spender, uint256 amount) onlyWhiteListed(_msgSender(), amount) external {\r\n        require(paused == false, \"Contract paused\");\r\n        whitelisted[spender] = amount;\r\n    }\r\n\r\n    //can be used by primary and secondary issue manager contracts. These whitelisted contracts can also be frozen by the issuer.\r\n    function transfer(address recipient, uint256 amount) onlyWhiteListed(_msgSender(), amount) public returns (bool) {\r\n        require(paused == false, \"Contract paused\");\r\n        require(balanceOf(_msgSender()).sub(amount) >= froze[_msgSender()], \"Funds transfer frozen\");\r\n        _beforeTokenTransfer(_msgSender(), recipient, amount);\r\n        _transfer(_msgSender(), recipient, amount);\r\n        if(holderIndex[recipient]==0){\r\n            holders.push(recipient);\r\n            holderIndex[recipient]=holders.length;\r\n        }\r\n        return true;\r\n    }\r\n\r\n    //called by user wallets to approve vaults to transfer tokens from them to the vault. \r\n    //Vaults need to be whitelisted by primary and secondary issue managers.\r\n    function approve(address spender, uint256 amount) onlyWhiteListed(spender, amount) public returns (bool) {\r\n        require(paused == false, \"Contract paused\");\r\n        _approve(_msgSender(), spender, amount);\r\n        return true;\r\n    }\r\n\r\n    //can be used by primary and secondary issue manager contracts, as well as vaults to swap tokens from user wallets that have approved the vault.\r\n    function transferFrom(address sender, address recipient, uint256 amount) public onlyWhiteListed(_msgSender(), amount) returns (bool) {\r\n        require(paused == false, \"Contract paused\");\r\n        require(balanceOf(sender).sub(amount) >= froze[sender], \"Funds transfer frozen\");\r\n        _beforeTokenTransfer(sender, recipient, amount);\r\n        _transfer(sender, recipient, amount);\r\n        if(sender != _msgSender())\r\n            _approve(sender, _msgSender(), allowance(sender, _msgSender()).sub(amount, \"ERC20: transfer amount exceeds allowance\"));\r\n        if(holderIndex[recipient]==0){\r\n            holders.push(recipient);\r\n            holderIndex[recipient]=holders.length;\r\n        }\r\n        return true;\r\n    }\r\n\r\n    function increaseAllowance(address spender, uint256 addedValue) public returns (bool) {\r\n        require(paused == false, \"Contract paused\");\r\n        _approve(_msgSender(), spender, allowance(_msgSender(), spender).add(addedValue));\r\n        return true;\r\n    }\r\n\r\n    function decreaseAllowance(address spender, uint256 subtractedValue) public returns (bool) {\r\n        require(paused == false, \"Contract paused\");\r\n        _approve(_msgSender(), spender, allowance(_msgSender(), spender).sub(subtractedValue, \"ERC20: decreased allowance below zero\"));\r\n        return true;\r\n    }\r\n\r\n    function freeze(address holder, uint256 amount) public onlyIssueManager(_msgSender()){\r\n        require(paused == false, \"Contract paused\");\r\n        froze[holder] = amount;\r\n        emit Freeze(_msgSender(), holder);\r\n    }\r\n\r\n    function unfreeze(address holder) public onlyIssueManager(_msgSender()) {\r\n        require(paused == false, \"Contract paused\");\r\n        froze[holder] = 0;\r\n        emit Unfreeze(_msgSender(), holder);\r\n    }\r\n\r\n    function frozen(address account) public view returns (uint256) {\r\n        require(paused == false, \"Contract paused\");\r\n        return froze[account];\r\n    }\r\n\r\n    function burn(address holder, uint256 amount) public onlyIssueManager(_msgSender()) {\r\n        require(paused == false, \"Contract paused\");\r\n        _beforeTokenTransfer(holder, address(0x0), amount);\r\n        _burn(holder, amount);       \r\n        emit Burn(holder, amount); \r\n    }\r\n\r\n    function burnAll() public onlyIssueManager(_msgSender()) {\r\n        require(paused == false, \"Contract paused\");\r\n        uint length = holders.length;\r\n        for(uint256 i=0; i<length; i++){\r\n            _beforeTokenTransfer(holders[i], address(0x0), balanceOf(holders[i]));\r\n            _burn(holders[i], balanceOf(holders[i]));\r\n        }    \r\n    }\r\n\r\n    function scheduleSnapshot(uint256 time) public onlyIssueManager(_msgSender()) {\r\n        require(paused == false, \"Contract paused\");\r\n        _scheduleSnapshot(time);\r\n    }\r\n\r\n    function rescheduleSnapshot(uint256 oldTime, uint256 newTime) public onlyIssueManager(_msgSender()) {\r\n        require(paused == false, \"Contract paused\");\r\n        _rescheduleSnapshot(oldTime, newTime);\r\n    }\r\n\r\n    function unscheduleSnapshot(uint256 time) public onlyIssueManager(_msgSender()) {\r\n        require(paused == false, \"Contract paused\");\r\n        _unscheduleSnapshot(time);\r\n    }\r\n\r\n    function createResolution(uint256 time, bool votes, string memory ipfsLink) public onlyIssueManager(_msgSender()) {\r\n        require(paused == false, \"Contract paused\");\r\n        _createResolution(time, votes, ipfsLink);\r\n    }\r\n    \r\n    function countVotes(uint256 time) public view /*onlyIssueManager(_msgSender())*/ returns(uint256 total, uint256 yes){\r\n        require(paused == false, \"Contract paused\");\r\n        uint256 voteCount = 0;\r\n        uint256 totalCount = 0;\r\n        if(keccak256(abi.encodePacked(resolutions[time])) != keccak256(abi.encodePacked(\"\"))){\r\n            if(voting[resolutions[time]]==true){      \r\n                uint length = holders.length;          \r\n                for(uint256 i=0; i<length; i++){\r\n                    if(snapshotBalanceOf(time, holders[i])>0){\r\n                        totalCount = totalCount + 1;\r\n                        if(votes[time][holders[i]]==true)\r\n                            voteCount = voteCount + 1;\r\n                    }\r\n                }\r\n            }\r\n        }\r\n        return (totalCount, voteCount);       \r\n    } \r\n    \r\n    function payoutProrata(uint256 time, address wallet, address token, uint256 amount) public onlyIssueManagerOrCustodian(_msgSender()) {\r\n        require(paused == false, \"Contract paused\");\r\n        require(snapshotTotalSupply(time)>0, \"No scheduled snapshot found\");\r\n        require(ERC20(token).balanceOf(wallet) >= amount, \"Insufficient balance\");\r\n        require(token!=address(0x0) && wallet!=address(0x0) && amount>0, \"Invalid distribution\");\r\n        uint256 totalHoldings = snapshotTotalSupply(time);\r\n        uint length = holders.length;\r\n        for(uint256 i=0; i<length; i++){\r\n            uint256 holding = snapshotBalanceOf(time, holders[i]);\r\n            if(holding > 0){\r\n                uint256 prorata = FixedPoint.mulDown(FixedPoint.divDown(holding, totalHoldings), amount);\r\n                ERC20(token).transferFrom(wallet, holders[i], prorata);\r\n                distributions[time][holders[i]].token = token;\r\n                distributions[time][holders[i]].amount = prorata;\r\n            }\r\n        }\r\n    }\r\n\r\n    function payout(uint256 time, address holder, address wallet, address token, uint256 amount) public onlyIssueManagerOrCustodian(_msgSender()) {\r\n        require(paused == false, \"Contract paused\");\r\n        require(snapshotTotalSupply(time)>0, \"No scheduled snapshot found\");\r\n        require(ERC20(token).balanceOf(wallet) >= amount, \"Insufficient balance\");\r\n        require(snapshotBalanceOf(time, holder)>0, \"Not a security token holder\");\r\n        require(token!=address(0x0) && wallet!=address(0x0) && amount>0, \"Invalid distribution\");\r\n        ERC20(token).transferFrom(wallet, holder, amount);\r\n        distributions[time][holder].token = token;\r\n        distributions[time][holder].amount = amount;\r\n    }\r\n\r\n    /**\r\n     * @notice Withdraws all available funds for a token holder\r\n     */\r\n    function withdrawFunds() external {\r\n        _withdrawFundsFor(msg.sender);\r\n    }\r\n\r\n    /**\r\n     * @notice Withdraws funds for a set of token holders\r\n     */\r\n    function pushFunds(address[] calldata owners) external {\r\n        for (uint256 i = 0; i < owners.length; i++) {\r\n            _withdrawFundsFor(owners[i]);\r\n        }\r\n    }\r\n\r\n    /**\r\n     * @notice Withdraws all available funds for a token holder\r\n     */\r\n    function _withdrawFundsFor(address owner) internal {\r\n        uint256 withdrawableFunds = _prepareWithdrawFor(owner);\r\n\r\n        require(\r\n            fundsToken.transfer(owner, withdrawableFunds),\r\n            \"FDT.withdrawFunds: TRANSFER_FAILED\"\r\n        );\r\n        _updateFundsTokenBalance();\r\n    }\r\n\r\n    /**\r\n     * @notice Register a payment of funds in tokens. May be called directly after a deposit is made.\r\n     */\r\n    function updateFundsReceived() external {\r\n        int256 newFunds = _updateFundsTokenBalance();\r\n\r\n        if (newFunds > 0) {\r\n            _distributeFunds(newFunds.toUint256Safe());\r\n        }\r\n    }\r\n\r\n    /**\r\n     * @dev Updates the current funds token balance\r\n     * and returns the difference of new and previous funds token balances\r\n     * @return A int256 representing the difference of the new and previous funds token balance\r\n     */\r\n    function _updateFundsTokenBalance() internal returns (int256) {\r\n        uint256 prevFundsTokenBalance = fundsTokenBalance;\r\n\r\n        fundsTokenBalance = fundsToken.balanceOf(address(this));\r\n\r\n        return int256(fundsTokenBalance).sub(int256(prevFundsTokenBalance));\r\n    }\r\n\r\n    function pause() public onlyIssueManager(_msgSender()){\r\n        _pause();\r\n    }\r\n\r\n    function unpause() public onlyIssueManager(_msgSender()){\r\n        _unpause();\r\n    }\r\n\r\n}\r\n\r\n",
  "sourcePath": "D:\\Code\\verified-securities\\contracts\\Security.sol",
  "compiler": {
    "name": "solc",
    "version": "0.5.7+commit.6da8b019.Emscripten.clang"
  },
  "schemaVersion": "3.4.3",
  "updatedAt": "2025-02-25T00:30:49.293Z",
  "networkType": "ethereum",
  "devdoc": {
    "methods": {
      "accumulativeFundsOf(address)": {
        "details": "accumulativeFundsOf(_owner) = withdrawableFundsOf(_owner) + withdrawnFundsOf(_owner)\r = (pointsPerShare * balanceOf(_owner) + pointsCorrection[_owner]) / pointsMultiplier\r",
        "params": {
          "_owner": "The address of a token holder.\r"
        },
        "return": "The amount of funds that `_owner` has earned in total.\r"
      },
      "allowance(address,address)": {
        "details": "See {IERC20-allowance}."
      },
      "balanceOf(address)": {
        "details": "See {IERC20-balanceOf}."
      },
      "initialize(address)": {
        "details": "Initializes the contract setting the deployer as the initial owner."
      },
      "initialize(bytes32,bytes32,address,address,address,address)": {
        "details": "Sets the values for {name} and {symbol}.\r      * The default value of {decimals} is 18. To select a different value for\r {decimals} you should overload it.\r      * All two of these values are immutable: they can only be set once during\r construction.\r"
      },
      "isOwner()": {
        "details": "Returns true if the caller is the current owner."
      },
      "isPaused()": {
        "return": "True: contract is paused\rFalse: contract is not paused\r"
      },
      "name()": {
        "details": "Returns the name of the token.\r"
      },
      "owner()": {
        "details": "Returns the address of the current owner."
      },
      "renounceOwnership()": {
        "details": "Leaves the contract without owner. It will not be possible to call `onlyOwner` functions anymore. Can only be called by the current owner.     * > Note: Renouncing ownership will leave the contract without an owner, thereby removing any functionality that is only available to the owner."
      },
      "symbol()": {
        "details": "Returns the symbol of the token, usually a shorter version of the\r name.\r"
      },
      "totalSupply()": {
        "details": "See {IERC20-totalSupply}."
      },
      "transferOwnership(address)": {
        "details": "Transfers ownership of the contract to a new account (`newOwner`). Can only be called by the current owner."
      },
      "withdrawableFundsOf(address)": {
        "params": {
          "_owner": "The address of a token holder.\r"
        },
        "return": "The amount funds that `_owner` can withdraw.\r"
      },
      "withdrawnFundsOf(address)": {
        "params": {
          "_owner": "The address of a token holder.\r"
        },
        "return": "The amount of funds that `_owner` has withdrawn.\r"
      }
    }
  },
  "userdoc": {
    "methods": {
      "accumulativeFundsOf(address)": {
        "notice": "prev. accumulativeDividendOf\rView the amount of funds that an address has earned in total.\r"
      },
      "decimals()": {
        "notice": "Securities are indivisible, so returning decimal 0\r"
      },
      "isPaused()": {
        "notice": "returns whether or not the contract is paused\r"
      },
      "pushFunds(address[])": {
        "notice": "Withdraws funds for a set of token holders\r"
      },
      "updateFundsReceived()": {
        "notice": "Register a payment of funds in tokens. May be called directly after a deposit is made.\r"
      },
      "withdrawFunds()": {
        "notice": "Withdraws all available funds for a token holder\r"
      },
      "withdrawableFundsOf(address)": {
        "notice": "prev. withdrawableDividendOf\rView the amount of funds that an address can withdraw.\r"
      },
      "withdrawnFundsOf(address)": {
        "notice": "prev. withdrawnDividendOf\rView the amount of funds that an address has withdrawn.\r"
      }
    }
  }
}