{
  "contractName": "Security",
  "abi": [
    {
      "constant": true,
      "inputs": [],
      "name": "totalSupply",
      "outputs": [
        {
          "name": "",
          "type": "uint256"
        }
      ],
      "payable": false,
      "stateMutability": "view",
      "type": "function"
    },
    {
      "constant": true,
      "inputs": [
        {
          "name": "time",
          "type": "uint256"
        }
      ],
      "name": "snapshotTotalSupply",
      "outputs": [
        {
          "name": "",
          "type": "uint256"
        }
      ],
      "payable": false,
      "stateMutability": "view",
      "type": "function"
    },
    {
      "constant": true,
      "inputs": [
        {
          "name": "time",
          "type": "uint256"
        },
        {
          "name": "owner",
          "type": "address"
        }
      ],
      "name": "snapshotBalanceOf",
      "outputs": [
        {
          "name": "",
          "type": "uint256"
        }
      ],
      "payable": false,
      "stateMutability": "view",
      "type": "function"
    },
    {
      "constant": true,
      "inputs": [
        {
          "name": "account",
          "type": "address"
        }
      ],
      "name": "balanceOf",
      "outputs": [
        {
          "name": "",
          "type": "uint256"
        }
      ],
      "payable": false,
      "stateMutability": "view",
      "type": "function"
    },
    {
      "constant": false,
      "inputs": [],
      "name": "renounceOwnership",
      "outputs": [],
      "payable": false,
      "stateMutability": "nonpayable",
      "type": "function"
    },
    {
      "constant": true,
      "inputs": [],
      "name": "owner",
      "outputs": [
        {
          "name": "",
          "type": "address"
        }
      ],
      "payable": false,
      "stateMutability": "view",
      "type": "function"
    },
    {
      "constant": true,
      "inputs": [],
      "name": "isOwner",
      "outputs": [
        {
          "name": "",
          "type": "bool"
        }
      ],
      "payable": false,
      "stateMutability": "view",
      "type": "function"
    },
    {
      "constant": true,
      "inputs": [],
      "name": "isPaused",
      "outputs": [
        {
          "name": "",
          "type": "bool"
        }
      ],
      "payable": false,
      "stateMutability": "view",
      "type": "function"
    },
    {
      "constant": true,
      "inputs": [
        {
          "name": "owner",
          "type": "address"
        },
        {
          "name": "spender",
          "type": "address"
        }
      ],
      "name": "allowance",
      "outputs": [
        {
          "name": "",
          "type": "uint256"
        }
      ],
      "payable": false,
      "stateMutability": "view",
      "type": "function"
    },
    {
      "constant": false,
      "inputs": [
        {
          "name": "newOwner",
          "type": "address"
        }
      ],
      "name": "transferOwnership",
      "outputs": [],
      "payable": false,
      "stateMutability": "nonpayable",
      "type": "function"
    },
    {
      "constant": true,
      "inputs": [],
      "name": "getNextSnapshots",
      "outputs": [
        {
          "name": "",
          "type": "uint256[]"
        }
      ],
      "payable": false,
      "stateMutability": "view",
      "type": "function"
    },
    {
      "anonymous": false,
      "inputs": [
        {
          "indexed": true,
          "name": "enforcer",
          "type": "address"
        },
        {
          "indexed": true,
          "name": "owner",
          "type": "address"
        }
      ],
      "name": "Freeze",
      "type": "event"
    },
    {
      "anonymous": false,
      "inputs": [
        {
          "indexed": true,
          "name": "enforcer",
          "type": "address"
        },
        {
          "indexed": true,
          "name": "owner",
          "type": "address"
        }
      ],
      "name": "Unfreeze",
      "type": "event"
    },
    {
      "anonymous": false,
      "inputs": [
        {
          "indexed": true,
          "name": "owner",
          "type": "address"
        },
        {
          "indexed": false,
          "name": "amount",
          "type": "uint256"
        }
      ],
      "name": "Burn",
      "type": "event"
    },
    {
      "anonymous": false,
      "inputs": [
        {
          "indexed": true,
          "name": "beneficiary",
          "type": "address"
        },
        {
          "indexed": false,
          "name": "amount",
          "type": "uint256"
        }
      ],
      "name": "Mint",
      "type": "event"
    },
    {
      "anonymous": false,
      "inputs": [
        {
          "indexed": true,
          "name": "oldTime",
          "type": "uint256"
        },
        {
          "indexed": true,
          "name": "newTime",
          "type": "uint256"
        }
      ],
      "name": "SnapshotSchedule",
      "type": "event"
    },
    {
      "anonymous": false,
      "inputs": [
        {
          "indexed": true,
          "name": "time",
          "type": "uint256"
        }
      ],
      "name": "SnapshotUnschedule",
      "type": "event"
    },
    {
      "anonymous": false,
      "inputs": [
        {
          "indexed": true,
          "name": "from",
          "type": "address"
        },
        {
          "indexed": true,
          "name": "to",
          "type": "address"
        },
        {
          "indexed": false,
          "name": "value",
          "type": "uint256"
        }
      ],
      "name": "Transfer",
      "type": "event"
    },
    {
      "anonymous": false,
      "inputs": [
        {
          "indexed": true,
          "name": "owner",
          "type": "address"
        },
        {
          "indexed": true,
          "name": "spender",
          "type": "address"
        },
        {
          "indexed": false,
          "name": "value",
          "type": "uint256"
        }
      ],
      "name": "Approval",
      "type": "event"
    },
    {
      "anonymous": false,
      "inputs": [],
      "name": "Paused",
      "type": "event"
    },
    {
      "anonymous": false,
      "inputs": [],
      "name": "Unpaused",
      "type": "event"
    },
    {
      "anonymous": false,
      "inputs": [
        {
          "indexed": true,
          "name": "previousOwner",
          "type": "address"
        },
        {
          "indexed": true,
          "name": "newOwner",
          "type": "address"
        }
      ],
      "name": "OwnershipTransferred",
      "type": "event"
    },
    {
      "constant": false,
      "inputs": [
        {
          "name": "name_",
          "type": "bytes32"
        },
        {
          "name": "symbol_",
          "type": "bytes32"
        },
        {
          "name": "_owner",
          "type": "address"
        },
        {
          "name": "issueManager",
          "type": "address"
        }
      ],
      "name": "initialize",
      "outputs": [],
      "payable": false,
      "stateMutability": "nonpayable",
      "type": "function"
    },
    {
      "constant": false,
      "inputs": [
        {
          "name": "sender",
          "type": "address"
        }
      ],
      "name": "initialize",
      "outputs": [],
      "payable": false,
      "stateMutability": "nonpayable",
      "type": "function"
    },
    {
      "constant": true,
      "inputs": [],
      "name": "name",
      "outputs": [
        {
          "name": "",
          "type": "string"
        }
      ],
      "payable": false,
      "stateMutability": "view",
      "type": "function"
    },
    {
      "constant": true,
      "inputs": [],
      "name": "symbol",
      "outputs": [
        {
          "name": "",
          "type": "string"
        }
      ],
      "payable": false,
      "stateMutability": "view",
      "type": "function"
    },
    {
      "constant": true,
      "inputs": [],
      "name": "decimals",
      "outputs": [
        {
          "name": "",
          "type": "uint8"
        }
      ],
      "payable": false,
      "stateMutability": "view",
      "type": "function"
    },
    {
      "constant": false,
      "inputs": [
        {
          "name": "issuer",
          "type": "address"
        },
        {
          "name": "amount",
          "type": "uint256"
        }
      ],
      "name": "mintToken",
      "outputs": [],
      "payable": false,
      "stateMutability": "nonpayable",
      "type": "function"
    },
    {
      "constant": false,
      "inputs": [
        {
          "name": "transferor",
          "type": "address"
        },
        {
          "name": "transferee",
          "type": "address"
        },
        {
          "name": "amount",
          "type": "uint256"
        }
      ],
      "name": "transferToken",
      "outputs": [],
      "payable": false,
      "stateMutability": "nonpayable",
      "type": "function"
    },
    {
      "constant": false,
      "inputs": [
        {
          "name": "spender",
          "type": "address"
        },
        {
          "name": "amount",
          "type": "uint256"
        }
      ],
      "name": "whiteList",
      "outputs": [],
      "payable": false,
      "stateMutability": "nonpayable",
      "type": "function"
    },
    {
      "constant": false,
      "inputs": [
        {
          "name": "recipient",
          "type": "address"
        },
        {
          "name": "amount",
          "type": "uint256"
        }
      ],
      "name": "transfer",
      "outputs": [
        {
          "name": "",
          "type": "bool"
        }
      ],
      "payable": false,
      "stateMutability": "nonpayable",
      "type": "function"
    },
    {
      "constant": false,
      "inputs": [
        {
          "name": "spender",
          "type": "address"
        },
        {
          "name": "amount",
          "type": "uint256"
        }
      ],
      "name": "approve",
      "outputs": [
        {
          "name": "",
          "type": "bool"
        }
      ],
      "payable": false,
      "stateMutability": "nonpayable",
      "type": "function"
    },
    {
      "constant": false,
      "inputs": [
        {
          "name": "sender",
          "type": "address"
        },
        {
          "name": "recipient",
          "type": "address"
        },
        {
          "name": "amount",
          "type": "uint256"
        }
      ],
      "name": "transferFrom",
      "outputs": [
        {
          "name": "",
          "type": "bool"
        }
      ],
      "payable": false,
      "stateMutability": "nonpayable",
      "type": "function"
    },
    {
      "constant": false,
      "inputs": [
        {
          "name": "spender",
          "type": "address"
        },
        {
          "name": "addedValue",
          "type": "uint256"
        }
      ],
      "name": "increaseAllowance",
      "outputs": [
        {
          "name": "",
          "type": "bool"
        }
      ],
      "payable": false,
      "stateMutability": "nonpayable",
      "type": "function"
    },
    {
      "constant": false,
      "inputs": [
        {
          "name": "spender",
          "type": "address"
        },
        {
          "name": "subtractedValue",
          "type": "uint256"
        }
      ],
      "name": "decreaseAllowance",
      "outputs": [
        {
          "name": "",
          "type": "bool"
        }
      ],
      "payable": false,
      "stateMutability": "nonpayable",
      "type": "function"
    },
    {
      "constant": false,
      "inputs": [
        {
          "name": "holder",
          "type": "address"
        },
        {
          "name": "amount",
          "type": "uint256"
        }
      ],
      "name": "freeze",
      "outputs": [],
      "payable": false,
      "stateMutability": "nonpayable",
      "type": "function"
    },
    {
      "constant": false,
      "inputs": [
        {
          "name": "holder",
          "type": "address"
        }
      ],
      "name": "unfreeze",
      "outputs": [],
      "payable": false,
      "stateMutability": "nonpayable",
      "type": "function"
    },
    {
      "constant": true,
      "inputs": [
        {
          "name": "account",
          "type": "address"
        }
      ],
      "name": "frozen",
      "outputs": [
        {
          "name": "",
          "type": "uint256"
        }
      ],
      "payable": false,
      "stateMutability": "view",
      "type": "function"
    },
    {
      "constant": false,
      "inputs": [
        {
          "name": "holder",
          "type": "address"
        },
        {
          "name": "amount",
          "type": "uint256"
        }
      ],
      "name": "burn",
      "outputs": [],
      "payable": false,
      "stateMutability": "nonpayable",
      "type": "function"
    },
    {
      "constant": false,
      "inputs": [],
      "name": "burnAll",
      "outputs": [],
      "payable": false,
      "stateMutability": "nonpayable",
      "type": "function"
    },
    {
      "constant": false,
      "inputs": [
        {
          "name": "time",
          "type": "uint256"
        }
      ],
      "name": "scheduleSnapshot",
      "outputs": [],
      "payable": false,
      "stateMutability": "nonpayable",
      "type": "function"
    },
    {
      "constant": false,
      "inputs": [
        {
          "name": "oldTime",
          "type": "uint256"
        },
        {
          "name": "newTime",
          "type": "uint256"
        }
      ],
      "name": "rescheduleSnapshot",
      "outputs": [],
      "payable": false,
      "stateMutability": "nonpayable",
      "type": "function"
    },
    {
      "constant": false,
      "inputs": [
        {
          "name": "time",
          "type": "uint256"
        }
      ],
      "name": "unscheduleSnapshot",
      "outputs": [],
      "payable": false,
      "stateMutability": "nonpayable",
      "type": "function"
    },
    {
      "constant": false,
      "inputs": [],
      "name": "pause",
      "outputs": [],
      "payable": false,
      "stateMutability": "nonpayable",
      "type": "function"
    },
    {
      "constant": false,
      "inputs": [],
      "name": "unpause",
      "outputs": [],
      "payable": false,
      "stateMutability": "nonpayable",
      "type": "function"
    }
  ],
  "bytecode": "0x608060405261288c806100136000396000f3fe608060405234801561001057600080fd5b50600436106102065760003560e01c80638da5cb5b1161011a578063b187bd26116100ad578063dd62ed3e1161007c578063dd62ed3e14610623578063e20c35e514610651578063f2fde38b1461066e578063f5537ede14610694578063fb78ed40146106ca57610206565b8063b187bd26146105ac578063c4d66de8146105b4578063d0516650146105da578063d21268ef1461060057610206565b80639dc29fac116100e95780639dc29fac1461050b578063a312e15514610537578063a457c2d714610554578063a9059cbb1461058057610206565b80638da5cb5b146104cf5780638f32d59b146104f357806395d89b41146104fb5780639975038c1461050357610206565b80633f4ba83a1161019d57806370a082311161016c57806370a0823114610441578063715018a61461046757806372e0f8531461046f57806379c650681461049b5780638456cb59146104c757610206565b80633f4ba83a146103ca57806345c8b1a6146103d25780635ee7a942146103f8578063634daf761461041557610206565b806323b872dd116101d957806323b872dd1461031e57806324bce60c14610354578063313ce56714610380578063395093511461039e57610206565b806306fdde031461020b578063095ea7b31461028857806318160ddd146102c85780631f57365e146102e2575b600080fd5b610213610722565b6040805160208082528351818301528351919283929083019185019080838360005b8381101561024d578181015183820152602001610235565b50505050905090810190601f16801561027a5780820380516001836020036101000a031916815260200191505b509250505060405180910390f35b6102b46004803603604081101561029e57600080fd5b506001600160a01b0381351690602001356107b9565b604080519115158252519081900360200190f35b6102d06107ed565b60408051918252519081900360200190f35b61031c600480360360808110156102f857600080fd5b508035906020810135906001600160a01b03604082013581169160600135166107f3565b005b6102b46004803603606081101561033457600080fd5b506001600160a01b03813581169160208101359091169060400135610918565b61031c6004803603604081101561036a57600080fd5b506001600160a01b038135169060200135610a8f565b610388610b53565b6040805160ff9092168252519081900360200190f35b6102b4600480360360408110156103b457600080fd5b506001600160a01b038135169060200135610b58565b61031c610b9d565b61031c600480360360208110156103e857600080fd5b50356001600160a01b0316610bff565b6102d06004803603602081101561040e57600080fd5b5035610cc0565b6102d06004803603604081101561042b57600080fd5b50803590602001356001600160a01b0316610cf2565b6102d06004803603602081101561045757600080fd5b50356001600160a01b0316610d3b565b61031c610d56565b61031c6004803603604081101561048557600080fd5b506001600160a01b038135169060200135610dea565b61031c600480360360408110156104b157600080fd5b506001600160a01b038135169060200135610e22565b61031c610f06565b6104d7610f65565b604080516001600160a01b039092168252519081900360200190f35b6102b4610f74565b610213610f9a565b61031c610ffb565b61031c6004803603604081101561052157600080fd5b506001600160a01b03813516906020013561111d565b61031c6004803603602081101561054d57600080fd5b50356111de565b6102b46004803603604081101561056a57600080fd5b506001600160a01b03813516906020013561124e565b6102b46004803603604081101561059657600080fd5b506001600160a01b038135169060200135611296565b6102b46113df565b61031c600480360360208110156105ca57600080fd5b50356001600160a01b03166113e8565b6102d0600480360360208110156105f057600080fd5b50356001600160a01b03166114dc565b61031c6004803603604081101561061657600080fd5b508035906020013561150b565b6102d06004803603604081101561063957600080fd5b506001600160a01b0381358116916020013516611581565b61031c6004803603602081101561066757600080fd5b50356115ac565b61031c6004803603602081101561068457600080fd5b50356001600160a01b031661161c565b61031c600480360360608110156106aa57600080fd5b506001600160a01b0381358116916020810135909116906040013561166f565b6106d2611738565b60408051602080825283518183015283519192839290830191858101910280838360005b8381101561070e5781810151838201526020016106f6565b505050509050019250505060405180910390f35b60a18054604080516020601f60026000196101006001881615020190951694909404938401819004810282018101909252828152606093909290918301828280156107ae5780601f10610783576101008083540402835291602001916107ae565b820191906000526020600020905b81548152906001019060200180831161079157829003601f168201915b505050505090505b90565b6066546000908390839060ff16156107d057600080fd5b6107e26107db61178f565b8686611793565b506001949350505050565b60695490565b600054610100900460ff168061080c575061080c611885565b8061081a575060005460ff16155b61085857604051600160e51b62461bcd02815260040180806020018281038252602e81526020018061277c602e913960400191505060405180910390fd5b600054610100900460ff16158015610883576000805460ff1961ff0019909116610100171660011790555b61088c836113e8565b60408051602080820188905282518083038201815291830190925280516108b79260a192019061259a565b5060408051602080820187905282518083038201815291830190925280516108e39260a292019061259a565b5060a380546001600160a01b0319166001600160a01b0384161790558015610911576000805461ff00191690555b5050505050565b600061092261178f565b606654839060ff161561093457600080fd5b6001600160a01b038616600090815260a660205260409020546109668561095a89610d3b565b9063ffffffff61188b16565b116109bb5760408051600160e51b62461bcd02815260206004820152601560248201527f46756e6473207472616e736665722066726f7a656e0000000000000000000000604482015290519081900360640190fd5b6109c68686866118d4565b6109d186868661192f565b610a1d866109dd61178f565b610a188760405180606001604052806028815260200161273460289139610a0b8c610a0661178f565b611581565b919063ffffffff611a9316565b611793565b6001600160a01b038516600090815260a56020526040902054610a835760a480546001810182556000805160206127148339815191520180546001600160a01b0319166001600160a01b0388169081179091559054600091825260a56020526040909120555b50600195945050505050565b610a9761178f565b60a3546001600160a01b03828116911614610ae657604051600160e51b62461bcd02815260040180806020018281038252602e8152602001806126c0602e913960400191505060405180910390fd5b60665460ff1615610af657600080fd5b6001600160a01b038316600081815260a660205260409020839055610b1961178f565b6001600160a01b03167f51d18786e9cb144f87d46e7b796309ea84c7c687d91e09c97f051eacf59bc52860405160405180910390a3505050565b601290565b60665460009060ff1615610b6b57600080fd5b610b93610b7661178f565b84610a1885610b8788610a0661178f565b9063ffffffff611b2d16565b5060015b92915050565b610ba561178f565b60a3546001600160a01b03828116911614610bf457604051600160e51b62461bcd02815260040180806020018281038252602e8152602001806126c0602e913960400191505060405180910390fd5b610bfc611b8a565b50565b610c0761178f565b60a3546001600160a01b03828116911614610c5657604051600160e51b62461bcd02815260040180806020018281038252602e8152602001806126c0602e913960400191505060405180910390fd5b60665460ff1615610c6657600080fd5b6001600160a01b038216600081815260a66020526040812055610c8761178f565b6001600160a01b03167f4f3ab9ff0cc4f039268532098e01239544b0420171876e36889d01c62c784c7960405160405180910390a35050565b6000806000610cd084609d611bbf565b9150915081610ce657610ce16107ed565b610ce8565b805b925050505b919050565b6001600160a01b0381166000908152609c6020526040812081908190610d19908690611bbf565b9150915081610d3057610d2b84610d3b565b610d32565b805b95945050505050565b6001600160a01b031660009081526067602052604090205490565b610d5e610f74565b610da05760408051600160e51b62461bcd028152602060048201819052602482015260008051602061275c833981519152604482015290519081900360640190fd5b6033546040516000916001600160a01b0316907f8be0079c531659141344cd1fd0a4f28419497f9722a3daafe3b4186f6b6457e0908390a3603380546001600160a01b0319169055565b610df261178f565b606654829060ff1615610e0457600080fd5b50506001600160a01b03909116600090815260a76020526040902055565b610e2a610f74565b610e6c5760408051600160e51b62461bcd028152602060048201819052602482015260008051602061275c833981519152604482015290519081900360640190fd5b610e78600083836118d4565b610e828282611c15565b60a480546001810182556000805160206127148339815191520180546001600160a01b0319166001600160a01b0385169081179091559054600082815260a5602090815260409182902092909255805184815290517f0f6798a560793a54c3bcfe86a93cde1e73087d944c0ea20544137d4121396885929181900390910190a25050565b610f0e61178f565b60a3546001600160a01b03828116911614610f5d57604051600160e51b62461bcd02815260040180806020018281038252602e8152602001806126c0602e913960400191505060405180910390fd5b610bfc611d0a565b6033546001600160a01b031690565b6033546000906001600160a01b0316610f8b61178f565b6001600160a01b031614905090565b60a28054604080516020601f60026000196101006001881615020190951694909404938401819004810282018101909252828152606093909290918301828280156107ae5780601f10610783576101008083540402835291602001916107ae565b61100361178f565b60a3546001600160a01b0382811691161461105257604051600160e51b62461bcd02815260040180806020018281038252602e8152602001806126c0602e913960400191505060405180910390fd5b60665460ff161561106257600080fd5b60005b60a454811015611119576110ce60a4828154811061107f57fe5b9060005260206000200160009054906101000a90046001600160a01b031660006110c960a485815481106110af57fe5b6000918252602090912001546001600160a01b0316610d3b565b6118d4565b61111160a482815481106110de57fe5b9060005260206000200160009054906101000a90046001600160a01b031661110c60a484815481106110af57fe5b611d42565b600101611065565b5050565b61112561178f565b60a3546001600160a01b0382811691161461117457604051600160e51b62461bcd02815260040180806020018281038252602e8152602001806126c0602e913960400191505060405180910390fd5b60665460ff161561118457600080fd5b611190836000846118d4565b61119a8383611d42565b6040805183815290516001600160a01b038516917fcc16f5dbb4873280815c1ee09dbd06736cffcc184412cf7a71a0fdb75d397ca5919081900360200190a2505050565b6111e661178f565b60a3546001600160a01b0382811691161461123557604051600160e51b62461bcd02815260040180806020018281038252602e8152602001806126c0602e913960400191505060405180910390fd5b60665460ff161561124557600080fd5b61111982611e41565b60665460009060ff161561126157600080fd5b610b9361126c61178f565b84610a188560405180606001604052806025815260200161283c60259139610a0b89610a0661178f565b60006112a061178f565b606654839060ff16156112b257600080fd5b60a660006112be61178f565b6001600160a01b03166001600160a01b03168152602001908152602001600020546112f38561095a6112ee61178f565b610d3b565b10156113495760408051600160e51b62461bcd02815260206004820152601560248201527f46756e6473207472616e736665722066726f7a656e0000000000000000000000604482015290519081900360640190fd5b61135b61135461178f565b86866118d4565b61136d61136661178f565b868661192f565b6001600160a01b038516600090815260a560205260409020546107e25760a480546001810182556000805160206127148339815191520180546001600160a01b0388166001600160a01b031990911681179091559054600091825260a560205260409091205560019250505092915050565b60665460ff1690565b600054610100900460ff16806114015750611401611885565b8061140f575060005460ff16155b61144d57604051600160e51b62461bcd02815260040180806020018281038252602e81526020018061277c602e913960400191505060405180910390fd5b600054610100900460ff16158015611478576000805460ff1961ff0019909116610100171660011790555b603380546001600160a01b0319166001600160a01b0384811691909117918290556040519116906000907f8be0079c531659141344cd1fd0a4f28419497f9722a3daafe3b4186f6b6457e0908290a38015611119576000805461ff00191690555050565b60665460009060ff16156114ef57600080fd5b506001600160a01b0316600090815260a6602052604090205490565b61151361178f565b60a3546001600160a01b0382811691161461156257604051600160e51b62461bcd02815260040180806020018281038252602e8152602001806126c0602e913960400191505060405180910390fd5b60665460ff161561157257600080fd5b61157c8383611f49565b505050565b6001600160a01b03918216600090815260686020908152604080832093909416825291909152205490565b6115b461178f565b60a3546001600160a01b0382811691161461160357604051600160e51b62461bcd02815260040180806020018281038252602e8152602001806126c0602e913960400191505060405180910390fd5b60665460ff161561161357600080fd5b611119826120f0565b611624610f74565b6116665760408051600160e51b62461bcd028152602060048201819052602482015260008051602061275c833981519152604482015290519081900360640190fd5b610bfc816121dd565b611677610f74565b6116b95760408051600160e51b62461bcd028152602060048201819052602482015260008051602061275c833981519152604482015290519081900360640190fd5b6116c48383836118d4565b6116cf83838361192f565b6001600160a01b038216600090815260a5602052604090205461157c575060a480546001810182556000805160206127148339815191520180546001600160a01b0319166001600160a01b0393909316928317905554600091825260a560205260409091205550565b606060a08054806020026020016040519081016040528092919081815260200182805480156107ae57602002820191906000526020600020905b815481526020019060010190808311611772575050505050905090565b3390565b6001600160a01b0383166117db57604051600160e51b62461bcd0281526004018080602001828103825260248152602001806127f06024913960400191505060405180910390fd5b6001600160a01b03821661182357604051600160e51b62461bcd02815260040180806020018281038252602281526020018061269e6022913960400191505060405180910390fd5b6001600160a01b03808416600081815260686020908152604080832094871680845294825291829020859055815185815291517f8c5be1e5ebec7d5bd14f71427d1e84f3dd0314c0f7b2291e5b200ac8c7c3b9259281900390910190a3505050565b303b1590565b60006118cd83836040518060400160405280601e81526020017f536166654d6174683a207375627472616374696f6e206f766572666c6f770000815250611a93565b9392505050565b6118dc612281565b6001600160a01b0383161561191e576118f4836122a0565b6001600160a01b038216156119115761190c826122a0565b611919565b6119196122ca565b61157c565b611927826122a0565b61157c6122ca565b6001600160a01b03831661197757604051600160e51b62461bcd0281526004018080602001828103825260258152602001806127cb6025913960400191505060405180910390fd5b6001600160a01b0382166119bf57604051600160e51b62461bcd0281526004018080602001828103825260238152602001806126336023913960400191505060405180910390fd5b611a02816040518060600160405280602681526020016126ee602691396001600160a01b038616600090815260676020526040902054919063ffffffff611a9316565b6001600160a01b038085166000908152606760205260408082209390935590841681522054611a37908263ffffffff611b2d16565b6001600160a01b0380841660008181526067602090815260409182902094909455805185815290519193928716927fddf252ad1be2c89b69c2b068fc378daa952ba7f163c4a11628f55a4df523b3ef92918290030190a3505050565b60008184841115611b2557604051600160e51b62461bcd0281526004018080602001828103825283818151815260200191508051906020019080838360005b83811015611aea578181015183820152602001611ad2565b50505050905090810190601f168015611b175780820380516001836020036101000a031916815260200191505b509250505060405180910390fd5b505050900390565b6000828201838110156118cd5760408051600160e51b62461bcd02815260206004820152601b60248201527f536166654d6174683a206164646974696f6e206f766572666c6f770000000000604482015290519081900360640190fd5b6066805460ff191690556040517fa45f47fdea8a1efdd9029a5691c7f759c32b7c698632b563573e155625d1693390600090a1565b60008080611bd3848663ffffffff6122d916565b8454909150811415611bec575060009150819050611c0e565b6001846001018281548110611bfd57fe5b906000526020600020015492509250505b9250929050565b6001600160a01b038216611c735760408051600160e51b62461bcd02815260206004820152601f60248201527f45524332303a206d696e7420746f20746865207a65726f206164647265737300604482015290519081900360640190fd5b606954611c86908263ffffffff611b2d16565b6069556001600160a01b038216600090815260676020526040902054611cb2908263ffffffff611b2d16565b6001600160a01b03831660008181526067602090815260408083209490945583518581529351929391927fddf252ad1be2c89b69c2b068fc378daa952ba7f163c4a11628f55a4df523b3ef9281900390910190a35050565b6066805460ff191660011790556040517f9e87fac88ff661f02d44f95383c817fece4bce600a3dab7a54406878b965e75290600090a1565b6001600160a01b038216611d8a57604051600160e51b62461bcd0281526004018080602001828103825260218152602001806127aa6021913960400191505060405180910390fd5b611dcd81604051806060016040528060228152602001612656602291396001600160a01b038516600090815260676020526040902054919063ffffffff611a9316565b6001600160a01b038316600090815260676020526040902055606954611df9908263ffffffff61188b16565b6069556040805182815290516000916001600160a01b038516917fddf252ad1be2c89b69c2b068fc378daa952ba7f163c4a11628f55a4df523b3ef9181900360200190a35050565b804210611e985760408051600160e51b62461bcd02815260206004820152601e60248201527f536e617073686f74207363686564756c656420696e2074686520706173740000604482015290519081900360640190fd5b6000611ea38261237a565b5090508015611ee657604051600160e51b62461bcd0281526004018080602001828103825260288152602001806128146028913960400191505060405180910390fd5b60a0805460018101825560009182527f78fdc8d422c49ced035a9edf18d00d3c6a8d81df210f3e5e448e045e77b41e88018390556040518391907fe2ad3b1abe53383dbe6359f02f11ae76d91cfab321b37083b16e1d96a81d4183908290a35050565b814210611fa05760408051600160e51b62461bcd02815260206004820152601560248201527f536e617073686f7420616c726561647920646f6e650000000000000000000000604482015290519081900360640190fd5b804210611ff75760408051600160e51b62461bcd02815260206004820152601e60248201527f536e617073686f74207363686564756c656420696e2074686520706173740000604482015290519081900360640190fd5b60006120028261237a565b509050801561204557604051600160e51b62461bcd0281526004018080602001828103825260288152602001806128146028913960400191505060405180910390fd5b6000806120518561237a565b91509150816120a25760408051600160e51b62461bcd0281526020600482015260126024820152600160721b7114db985c1cda1bdd081b9bdd08199bdd5b9902604482015290519081900360640190fd5b8360a082815481106120b057fe5b6000918252602082200191909155604051859187917fe2ad3b1abe53383dbe6359f02f11ae76d91cfab321b37083b16e1d96a81d41839190a35050505050565b8042106121475760408051600160e51b62461bcd02815260206004820152601560248201527f536e617073686f7420616c726561647920646f6e650000000000000000000000604482015290519081900360640190fd5b6000806121538361237a565b91509150816121a45760408051600160e51b62461bcd0281526020600482015260126024820152600160721b7114db985c1cda1bdd081b9bdd08199bdd5b9902604482015290519081900360640190fd5b6121ad816123c9565b60405183907f06e2498f5548e5491bfe985562cc494131eae56b5b6543b59129c8886f129f6590600090a2505050565b6001600160a01b03811661222557604051600160e51b62461bcd0281526004018080602001828103825260268152602001806126786026913960400191505060405180910390fd5b6033546040516001600160a01b038084169216907f8be0079c531659141344cd1fd0a4f28419497f9722a3daafe3b4186f6b6457e090600090a3603380546001600160a01b0319166001600160a01b0392909216919091179055565b600061228b612423565b90508015610bfc57609f819055610bfc6124ae565b6001600160a01b0381166000908152609c60205260409020610bfc906122c583610d3b565b6124f0565b6122d7609d6122c56107ed565b565b81546000906122ea57506000610b97565b82546000905b80821015612339576000612304838361253a565b90508486828154811061231357fe5b9060005260206000200154111561232c57809150612333565b8060010192505b506122f0565b60008211801561236157508385600184038154811061235457fe5b9060005260206000200154145b156123725750600019019050610b97565b509050610b97565b600080805b60a0548110156123bb578360a0828154811061239757fe5b906000526020600020015414156123b3576001925090506123c4565b60010161237f565b50600091508190505b915091565b60a0805460001981019081106123db57fe5b906000526020600020015460a082815481106123f357fe5b60009182526020909120015560a080548061240a57fe5b6001900381819060005260206000200160009055905550565b60a054600090612435575060006107b6565b6000805b60a0548110156124a8574260a0828154811061245157fe5b90600052602060002001541115801561248057508160a0828154811061247357fe5b9060005260206000200154115b156124a05760a0818154811061249257fe5b906000526020600020015491505b600101612439565b50905090565b60005b60a054811015610bfc574260a082815481106124c957fe5b9060005260206000200154116124e7576124e2816123c9565b6124eb565b6001015b6124b1565b60006124fa61255f565b90508061250684612565565b101561157c578254600180820185556000858152602080822090930193909355938401805494850181558252902090910155565b6000600280830660028506018161254d57fe5b04600283046002850401019392505050565b609f5490565b805460009061257657506000610ced565b81548290600019810190811061258857fe5b90600052602060002001549050610ced565b828054600181600116156101000203166002900490600052602060002090601f016020900481019282601f106125db57805160ff1916838001178555612608565b82800160010185558215612608579182015b828111156126085782518255916020019190600101906125ed565b50612614929150612618565b5090565b6107b691905b80821115612614576000815560010161261e56fe45524332303a207472616e7366657220746f20746865207a65726f206164647265737345524332303a206275726e20616d6f756e7420657863656564732062616c616e63654f776e61626c653a206e6577206f776e657220697320746865207a65726f206164647265737345524332303a20617070726f766520746f20746865207a65726f2061646472657373556e617574686f72697a656420726571756573742c206f6e6c7920697373756572732061726520616c6c6f77656445524332303a207472616e7366657220616d6f756e7420657863656564732062616c616e6365e434dc35da084cf8d7e8186688ea2dacb53db7003d427af3abf351bd9d0a4e8d45524332303a207472616e7366657220616d6f756e74206578636565647320616c6c6f77616e63654f776e61626c653a2063616c6c6572206973206e6f7420746865206f776e6572436f6e747261637420696e7374616e63652068617320616c7265616479206265656e20696e697469616c697a656445524332303a206275726e2066726f6d20746865207a65726f206164647265737345524332303a207472616e736665722066726f6d20746865207a65726f206164647265737345524332303a20617070726f76652066726f6d20746865207a65726f2061646472657373536e617073686f7420616c7265616479207363686564756c656420666f7220746869732074696d6545524332303a2064656372656173656420616c6c6f77616e63652062656c6f77207a65726fa165627a7a723058202beccfde149e05314f9979d7b35d80ff2d7c32717eb0c61d16127f316e65cd2f0029",
  "source": "// Verified securities manager that updates holdings of securities by users\r\n// (c) Kallol Borah, 2021\r\n\r\npragma solidity 0.5.7;\r\n\r\nimport \"./Snapshot.sol\";\r\nimport \"./utilities/Pausable.sol\";\r\nimport \"./interfaces/ISecurity.sol\";\r\nimport \"@openzeppelin/contracts-ethereum-package/contracts/ownership/Ownable.sol\";\r\n\r\ncontract Security is ISecurity, Ownable, Pausable, Snapshot {\r\n\r\n    string private _name;\r\n    string private _symbol;\r\n\r\n    //issuer of this security token or the assigned depositary participant\r\n    address private _issueManager;\r\n\r\n    //this security token's holders\r\n    address[] private holders;\r\n\r\n    //mapping holders to index\r\n    mapping(address => uint256) private holderIndex;\r\n\r\n    //mapping security token holders to amounts frozen in account (0 means all frozen)\r\n    mapping(address => uint256) private froze;\r\n\r\n    //mapping whitelisted wallets to any spend cap on them (0 means no cap)\r\n    mapping(address => uint256) private whitelisted;\r\n\r\n    /**\r\n     * @dev Emitted when an address is frozen.\r\n     */\r\n    event Freeze(address indexed enforcer, address indexed owner);\r\n\r\n    /**\r\n     * @dev Emitted when an address is unfrozen.\r\n     */\r\n    event Unfreeze(address indexed enforcer, address indexed owner);\r\n\r\n    event Burn(address indexed owner, uint256 amount);\r\n\r\n    event Mint(address indexed beneficiary, uint256 amount);\r\n\r\n    modifier onlyIssueManager (address sender){\r\n        require(sender == _issueManager, \"Unauthorized request, only issuers are allowed\");\r\n        _;\r\n    }\r\n\r\n    modifier onlyWhiteListed (address sender, uint256 amount){\r\n        //require(whitelisted[sender] >= amount || sender==_issueManager, \"Wallet sending request not whitelisted\");\r\n        _;\r\n    }\r\n\r\n    /**\r\n     * @dev Sets the values for {name} and {symbol}.\r\n     *\r\n     * The default value of {decimals} is 18. To select a different value for\r\n     * {decimals} you should overload it.\r\n     *\r\n     * All two of these values are immutable: they can only be set once during\r\n     * construction.\r\n     */\r\n    function initialize(bytes32 name_, bytes32 symbol_, address _owner, address issueManager) public initializer {\r\n        Ownable.initialize(_owner);\r\n        _name = string(abi.encodePacked(name_));\r\n        _symbol = string(abi.encodePacked(symbol_));\r\n        _issueManager = issueManager;\r\n    }\r\n\r\n    /**\r\n     * @dev Returns the name of the token.\r\n     */\r\n    function name() public view returns (string memory) {\r\n        return _name;\r\n    }\r\n\r\n    /**\r\n     * @dev Returns the symbol of the token, usually a shorter version of the\r\n     * name.\r\n     */\r\n    function symbol() public view returns (string memory) {\r\n        return _symbol;\r\n    }\r\n\r\n    /**\r\n     * Securities are indivisible, so returning decimal 0\r\n     */\r\n    function decimals() public view returns (uint8) {\r\n        return 18;\r\n    }\r\n\r\n    function mintToken(address issuer, uint256 amount) onlyOwner external{\r\n        _beforeTokenTransfer(address(0x0), issuer, amount);\r\n        _mint(issuer, amount);\r\n        holders.push(issuer);\r\n        holderIndex[issuer]=holders.length;\r\n        emit Mint(issuer, amount);\r\n    }\r\n\r\n    function transferToken(address transferor, address transferee, uint256 amount) onlyOwner external{\r\n        _beforeTokenTransfer(transferor, transferee, amount);\r\n        _transfer(transferor, transferee, amount);\r\n        if(holderIndex[transferee]==0){\r\n            holders.push(transferee);\r\n            holderIndex[transferee]=holders.length;\r\n        }\r\n    }\r\n\r\n    function whiteList(address spender, uint256 amount) onlyWhiteListed(_msgSender(), amount) external {\r\n        require(paused == false);\r\n        whitelisted[spender] = amount;\r\n    }\r\n\r\n    //can be used by primary and secondary issue manager contracts. These whitelisted contracts can also be frozen by the issuer.\r\n    function transfer(address recipient, uint256 amount) onlyWhiteListed(_msgSender(), amount) public returns (bool) {\r\n        require(paused == false);\r\n        require(balanceOf(_msgSender()).sub(amount) >= froze[_msgSender()], \"Funds transfer frozen\");\r\n        _beforeTokenTransfer(_msgSender(), recipient, amount);\r\n        _transfer(_msgSender(), recipient, amount);\r\n        if(holderIndex[recipient]==0){\r\n            holders.push(recipient);\r\n            holderIndex[recipient]=holders.length;\r\n        }\r\n        return true;\r\n    }\r\n\r\n    //called by user wallets to approve vaults to transfer tokens from them to the vault. \r\n    //Vaults need to be whitelisted by primary and secondary issue managers.\r\n    function approve(address spender, uint256 amount) onlyWhiteListed(spender, amount) public returns (bool) {\r\n        require(paused == false);\r\n        _approve(_msgSender(), spender, amount);\r\n        return true;\r\n    }\r\n\r\n    //can be used by primary and secondary issue manager contracts, as well as vaults to swap tokens from user wallets that have approved the vault.\r\n    function transferFrom(address sender, address recipient, uint256 amount) onlyWhiteListed(_msgSender(), amount) public returns (bool) {\r\n        require(paused == false);\r\n        require(balanceOf(sender).sub(amount) > froze[sender], \"Funds transfer frozen\");\r\n        _beforeTokenTransfer(sender, recipient, amount);\r\n        _transfer(sender, recipient, amount);\r\n        _approve(sender, _msgSender(), allowance(sender, _msgSender()).sub(amount, \"ERC20: transfer amount exceeds allowance\"));\r\n        if(holderIndex[recipient]==0){\r\n            holders.push(recipient);\r\n            holderIndex[recipient]=holders.length;\r\n        }\r\n        return true;\r\n    }\r\n\r\n    function increaseAllowance(address spender, uint256 addedValue) public returns (bool) {\r\n        require(paused == false);\r\n        _approve(_msgSender(), spender, allowance(spender, _msgSender()).add(addedValue));\r\n        return true;\r\n    }\r\n\r\n    function decreaseAllowance(address spender, uint256 subtractedValue) public returns (bool) {\r\n        require(paused == false);\r\n        _approve(_msgSender(), spender, allowance(spender, _msgSender()).sub(subtractedValue, \"ERC20: decreased allowance below zero\"));\r\n        return true;\r\n    }\r\n\r\n    function freeze(address holder, uint256 amount) onlyIssueManager(_msgSender()) public {\r\n        require(paused == false);\r\n        froze[holder] = amount;\r\n        emit Freeze(_msgSender(), holder);\r\n    }\r\n\r\n    function unfreeze(address holder) onlyIssueManager(_msgSender()) public {\r\n        require(paused == false);\r\n        froze[holder] = 0;\r\n        emit Unfreeze(_msgSender(), holder);\r\n    }\r\n\r\n    function frozen(address account) public view returns (uint256) {\r\n        require(paused == false);\r\n        return froze[account];\r\n    }\r\n\r\n    function burn(address holder, uint256 amount) onlyIssueManager(_msgSender()) public {\r\n        require(paused == false);\r\n        _beforeTokenTransfer(holder, address(0x0), amount);\r\n        _burn(holder, amount);       \r\n        emit Burn(holder, amount); \r\n    }\r\n\r\n    function burnAll() onlyIssueManager(_msgSender()) public {\r\n        require(paused == false);\r\n        for(uint256 i=0; i<holders.length; i++){\r\n            _beforeTokenTransfer(holders[i], address(0x0), balanceOf(holders[i]));\r\n            _burn(holders[i], balanceOf(holders[i]));\r\n        }    \r\n    }\r\n\r\n    function scheduleSnapshot(uint256 time) onlyIssueManager(_msgSender()) public {\r\n        require(paused == false);\r\n        _scheduleSnapshot(time);\r\n    }\r\n\r\n    function rescheduleSnapshot(uint256 oldTime, uint256 newTime) onlyIssueManager(_msgSender()) public {\r\n        require(paused == false);\r\n        _rescheduleSnapshot(oldTime, newTime);\r\n    }\r\n\r\n    function unscheduleSnapshot(uint256 time) onlyIssueManager(_msgSender()) public {\r\n        require(paused == false);\r\n        _unscheduleSnapshot(time);\r\n    }\r\n\r\n    function pause() onlyIssueManager(_msgSender()) public {\r\n        _pause();\r\n    }\r\n\r\n    function unpause() onlyIssueManager(_msgSender()) public {\r\n        _unpause();\r\n    }\r\n\r\n}\r\n\r\n",
  "sourcePath": "D:\\Code\\verified-securities\\contracts\\Security.sol",
  "compiler": {
    "name": "solc",
    "version": "0.5.7+commit.6da8b019.Emscripten.clang"
  },
  "schemaVersion": "3.4.3",
  "updatedAt": "2023-03-05T01:11:50.682Z",
  "networkType": "ethereum",
  "devdoc": {
    "methods": {
      "allowance(address,address)": {
        "details": "See {IERC20-allowance}."
      },
      "balanceOf(address)": {
        "details": "See {IERC20-balanceOf}."
      },
      "initialize(address)": {
        "details": "Initializes the contract setting the deployer as the initial owner."
      },
      "initialize(bytes32,bytes32,address,address)": {
        "details": "Sets the values for {name} and {symbol}.\r      * The default value of {decimals} is 18. To select a different value for\r {decimals} you should overload it.\r      * All two of these values are immutable: they can only be set once during\r construction.\r"
      },
      "isOwner()": {
        "details": "Returns true if the caller is the current owner."
      },
      "isPaused()": {
        "return": "True: contract is paused\rFalse: contract is not paused\r"
      },
      "name()": {
        "details": "Returns the name of the token.\r"
      },
      "owner()": {
        "details": "Returns the address of the current owner."
      },
      "renounceOwnership()": {
        "details": "Leaves the contract without owner. It will not be possible to call `onlyOwner` functions anymore. Can only be called by the current owner.     * > Note: Renouncing ownership will leave the contract without an owner, thereby removing any functionality that is only available to the owner."
      },
      "symbol()": {
        "details": "Returns the symbol of the token, usually a shorter version of the\r name.\r"
      },
      "totalSupply()": {
        "details": "See {IERC20-totalSupply}."
      },
      "transferOwnership(address)": {
        "details": "Transfers ownership of the contract to a new account (`newOwner`). Can only be called by the current owner."
      }
    }
  },
  "userdoc": {
    "methods": {
      "decimals()": {
        "notice": "Securities are indivisible, so returning decimal 0\r"
      },
      "isPaused()": {
        "notice": "returns whether or not the contract is paused\r"
      }
    }
  }
}