{
  "contractName": "Security",
  "abi": [
    {
      "constant": true,
      "inputs": [],
      "name": "totalSupply",
      "outputs": [
        {
          "name": "",
          "type": "uint256"
        }
      ],
      "payable": false,
      "stateMutability": "view",
      "type": "function"
    },
    {
      "constant": true,
      "inputs": [
        {
          "name": "time",
          "type": "uint256"
        }
      ],
      "name": "getDistribution",
      "outputs": [
        {
          "name": "",
          "type": "address"
        },
        {
          "name": "",
          "type": "uint256"
        }
      ],
      "payable": false,
      "stateMutability": "view",
      "type": "function"
    },
    {
      "constant": true,
      "inputs": [
        {
          "name": "time",
          "type": "uint256"
        }
      ],
      "name": "snapshotTotalSupply",
      "outputs": [
        {
          "name": "",
          "type": "uint256"
        }
      ],
      "payable": false,
      "stateMutability": "view",
      "type": "function"
    },
    {
      "constant": true,
      "inputs": [
        {
          "name": "time",
          "type": "uint256"
        },
        {
          "name": "owner",
          "type": "address"
        }
      ],
      "name": "snapshotBalanceOf",
      "outputs": [
        {
          "name": "",
          "type": "uint256"
        }
      ],
      "payable": false,
      "stateMutability": "view",
      "type": "function"
    },
    {
      "constant": true,
      "inputs": [
        {
          "name": "account",
          "type": "address"
        }
      ],
      "name": "balanceOf",
      "outputs": [
        {
          "name": "",
          "type": "uint256"
        }
      ],
      "payable": false,
      "stateMutability": "view",
      "type": "function"
    },
    {
      "constant": false,
      "inputs": [],
      "name": "renounceOwnership",
      "outputs": [],
      "payable": false,
      "stateMutability": "nonpayable",
      "type": "function"
    },
    {
      "constant": true,
      "inputs": [],
      "name": "owner",
      "outputs": [
        {
          "name": "",
          "type": "address"
        }
      ],
      "payable": false,
      "stateMutability": "view",
      "type": "function"
    },
    {
      "constant": true,
      "inputs": [],
      "name": "isOwner",
      "outputs": [
        {
          "name": "",
          "type": "bool"
        }
      ],
      "payable": false,
      "stateMutability": "view",
      "type": "function"
    },
    {
      "constant": true,
      "inputs": [],
      "name": "isPaused",
      "outputs": [
        {
          "name": "",
          "type": "bool"
        }
      ],
      "payable": false,
      "stateMutability": "view",
      "type": "function"
    },
    {
      "constant": false,
      "inputs": [
        {
          "name": "time",
          "type": "uint256"
        },
        {
          "name": "ballot",
          "type": "bool"
        }
      ],
      "name": "vote",
      "outputs": [],
      "payable": false,
      "stateMutability": "nonpayable",
      "type": "function"
    },
    {
      "constant": true,
      "inputs": [
        {
          "name": "time",
          "type": "uint256"
        }
      ],
      "name": "getResolution",
      "outputs": [
        {
          "name": "",
          "type": "string"
        },
        {
          "name": "",
          "type": "bool"
        }
      ],
      "payable": false,
      "stateMutability": "view",
      "type": "function"
    },
    {
      "constant": true,
      "inputs": [
        {
          "name": "owner",
          "type": "address"
        },
        {
          "name": "spender",
          "type": "address"
        }
      ],
      "name": "allowance",
      "outputs": [
        {
          "name": "",
          "type": "uint256"
        }
      ],
      "payable": false,
      "stateMutability": "view",
      "type": "function"
    },
    {
      "constant": false,
      "inputs": [
        {
          "name": "newOwner",
          "type": "address"
        }
      ],
      "name": "transferOwnership",
      "outputs": [],
      "payable": false,
      "stateMutability": "nonpayable",
      "type": "function"
    },
    {
      "constant": true,
      "inputs": [],
      "name": "getNextSnapshots",
      "outputs": [
        {
          "name": "",
          "type": "uint256[]"
        }
      ],
      "payable": false,
      "stateMutability": "view",
      "type": "function"
    },
    {
      "anonymous": false,
      "inputs": [
        {
          "indexed": true,
          "name": "enforcer",
          "type": "address"
        },
        {
          "indexed": true,
          "name": "owner",
          "type": "address"
        }
      ],
      "name": "Freeze",
      "type": "event"
    },
    {
      "anonymous": false,
      "inputs": [
        {
          "indexed": true,
          "name": "enforcer",
          "type": "address"
        },
        {
          "indexed": true,
          "name": "owner",
          "type": "address"
        }
      ],
      "name": "Unfreeze",
      "type": "event"
    },
    {
      "anonymous": false,
      "inputs": [
        {
          "indexed": true,
          "name": "owner",
          "type": "address"
        },
        {
          "indexed": false,
          "name": "amount",
          "type": "uint256"
        }
      ],
      "name": "Burn",
      "type": "event"
    },
    {
      "anonymous": false,
      "inputs": [
        {
          "indexed": true,
          "name": "beneficiary",
          "type": "address"
        },
        {
          "indexed": false,
          "name": "amount",
          "type": "uint256"
        }
      ],
      "name": "Mint",
      "type": "event"
    },
    {
      "anonymous": false,
      "inputs": [
        {
          "indexed": true,
          "name": "security",
          "type": "address"
        },
        {
          "indexed": false,
          "name": "recordDate",
          "type": "uint256"
        },
        {
          "indexed": false,
          "name": "resolution",
          "type": "string"
        },
        {
          "indexed": false,
          "name": "voting",
          "type": "bool"
        }
      ],
      "name": "Resolution",
      "type": "event"
    },
    {
      "anonymous": false,
      "inputs": [
        {
          "indexed": true,
          "name": "security",
          "type": "address"
        },
        {
          "indexed": false,
          "name": "oldTime",
          "type": "uint256"
        },
        {
          "indexed": false,
          "name": "newTime",
          "type": "uint256"
        }
      ],
      "name": "SnapshotSchedule",
      "type": "event"
    },
    {
      "anonymous": false,
      "inputs": [
        {
          "indexed": true,
          "name": "security",
          "type": "address"
        },
        {
          "indexed": false,
          "name": "time",
          "type": "uint256"
        }
      ],
      "name": "SnapshotUnschedule",
      "type": "event"
    },
    {
      "anonymous": false,
      "inputs": [
        {
          "indexed": true,
          "name": "from",
          "type": "address"
        },
        {
          "indexed": true,
          "name": "to",
          "type": "address"
        },
        {
          "indexed": false,
          "name": "value",
          "type": "uint256"
        }
      ],
      "name": "Transfer",
      "type": "event"
    },
    {
      "anonymous": false,
      "inputs": [
        {
          "indexed": true,
          "name": "owner",
          "type": "address"
        },
        {
          "indexed": true,
          "name": "spender",
          "type": "address"
        },
        {
          "indexed": false,
          "name": "value",
          "type": "uint256"
        }
      ],
      "name": "Approval",
      "type": "event"
    },
    {
      "anonymous": false,
      "inputs": [],
      "name": "Paused",
      "type": "event"
    },
    {
      "anonymous": false,
      "inputs": [],
      "name": "Unpaused",
      "type": "event"
    },
    {
      "anonymous": false,
      "inputs": [
        {
          "indexed": true,
          "name": "previousOwner",
          "type": "address"
        },
        {
          "indexed": true,
          "name": "newOwner",
          "type": "address"
        }
      ],
      "name": "OwnershipTransferred",
      "type": "event"
    },
    {
      "constant": false,
      "inputs": [
        {
          "name": "name_",
          "type": "bytes32"
        },
        {
          "name": "symbol_",
          "type": "bytes32"
        },
        {
          "name": "_owner",
          "type": "address"
        },
        {
          "name": "issuer",
          "type": "address"
        },
        {
          "name": "client",
          "type": "address"
        }
      ],
      "name": "initialize",
      "outputs": [],
      "payable": false,
      "stateMutability": "nonpayable",
      "type": "function"
    },
    {
      "constant": false,
      "inputs": [
        {
          "name": "sender",
          "type": "address"
        }
      ],
      "name": "initialize",
      "outputs": [],
      "payable": false,
      "stateMutability": "nonpayable",
      "type": "function"
    },
    {
      "constant": true,
      "inputs": [],
      "name": "name",
      "outputs": [
        {
          "name": "",
          "type": "string"
        }
      ],
      "payable": false,
      "stateMutability": "view",
      "type": "function"
    },
    {
      "constant": true,
      "inputs": [],
      "name": "symbol",
      "outputs": [
        {
          "name": "",
          "type": "string"
        }
      ],
      "payable": false,
      "stateMutability": "view",
      "type": "function"
    },
    {
      "constant": true,
      "inputs": [],
      "name": "decimals",
      "outputs": [
        {
          "name": "",
          "type": "uint8"
        }
      ],
      "payable": false,
      "stateMutability": "view",
      "type": "function"
    },
    {
      "constant": false,
      "inputs": [
        {
          "name": "issuer",
          "type": "address"
        },
        {
          "name": "amount",
          "type": "uint256"
        }
      ],
      "name": "mintToken",
      "outputs": [],
      "payable": false,
      "stateMutability": "nonpayable",
      "type": "function"
    },
    {
      "constant": false,
      "inputs": [
        {
          "name": "transferor",
          "type": "address"
        },
        {
          "name": "transferee",
          "type": "address"
        },
        {
          "name": "amount",
          "type": "uint256"
        }
      ],
      "name": "transferToken",
      "outputs": [],
      "payable": false,
      "stateMutability": "nonpayable",
      "type": "function"
    },
    {
      "constant": false,
      "inputs": [
        {
          "name": "spender",
          "type": "address"
        },
        {
          "name": "amount",
          "type": "uint256"
        }
      ],
      "name": "whiteList",
      "outputs": [],
      "payable": false,
      "stateMutability": "nonpayable",
      "type": "function"
    },
    {
      "constant": false,
      "inputs": [
        {
          "name": "recipient",
          "type": "address"
        },
        {
          "name": "amount",
          "type": "uint256"
        }
      ],
      "name": "transfer",
      "outputs": [
        {
          "name": "",
          "type": "bool"
        }
      ],
      "payable": false,
      "stateMutability": "nonpayable",
      "type": "function"
    },
    {
      "constant": false,
      "inputs": [
        {
          "name": "spender",
          "type": "address"
        },
        {
          "name": "amount",
          "type": "uint256"
        }
      ],
      "name": "approve",
      "outputs": [
        {
          "name": "",
          "type": "bool"
        }
      ],
      "payable": false,
      "stateMutability": "nonpayable",
      "type": "function"
    },
    {
      "constant": false,
      "inputs": [
        {
          "name": "sender",
          "type": "address"
        },
        {
          "name": "recipient",
          "type": "address"
        },
        {
          "name": "amount",
          "type": "uint256"
        }
      ],
      "name": "transferFrom",
      "outputs": [
        {
          "name": "",
          "type": "bool"
        }
      ],
      "payable": false,
      "stateMutability": "nonpayable",
      "type": "function"
    },
    {
      "constant": false,
      "inputs": [
        {
          "name": "spender",
          "type": "address"
        },
        {
          "name": "addedValue",
          "type": "uint256"
        }
      ],
      "name": "increaseAllowance",
      "outputs": [
        {
          "name": "",
          "type": "bool"
        }
      ],
      "payable": false,
      "stateMutability": "nonpayable",
      "type": "function"
    },
    {
      "constant": false,
      "inputs": [
        {
          "name": "spender",
          "type": "address"
        },
        {
          "name": "subtractedValue",
          "type": "uint256"
        }
      ],
      "name": "decreaseAllowance",
      "outputs": [
        {
          "name": "",
          "type": "bool"
        }
      ],
      "payable": false,
      "stateMutability": "nonpayable",
      "type": "function"
    },
    {
      "constant": false,
      "inputs": [
        {
          "name": "holder",
          "type": "address"
        },
        {
          "name": "amount",
          "type": "uint256"
        }
      ],
      "name": "freeze",
      "outputs": [],
      "payable": false,
      "stateMutability": "nonpayable",
      "type": "function"
    },
    {
      "constant": false,
      "inputs": [
        {
          "name": "holder",
          "type": "address"
        }
      ],
      "name": "unfreeze",
      "outputs": [],
      "payable": false,
      "stateMutability": "nonpayable",
      "type": "function"
    },
    {
      "constant": true,
      "inputs": [
        {
          "name": "account",
          "type": "address"
        }
      ],
      "name": "frozen",
      "outputs": [
        {
          "name": "",
          "type": "uint256"
        }
      ],
      "payable": false,
      "stateMutability": "view",
      "type": "function"
    },
    {
      "constant": false,
      "inputs": [
        {
          "name": "holder",
          "type": "address"
        },
        {
          "name": "amount",
          "type": "uint256"
        }
      ],
      "name": "burn",
      "outputs": [],
      "payable": false,
      "stateMutability": "nonpayable",
      "type": "function"
    },
    {
      "constant": false,
      "inputs": [],
      "name": "burnAll",
      "outputs": [],
      "payable": false,
      "stateMutability": "nonpayable",
      "type": "function"
    },
    {
      "constant": false,
      "inputs": [
        {
          "name": "time",
          "type": "uint256"
        }
      ],
      "name": "scheduleSnapshot",
      "outputs": [],
      "payable": false,
      "stateMutability": "nonpayable",
      "type": "function"
    },
    {
      "constant": false,
      "inputs": [
        {
          "name": "oldTime",
          "type": "uint256"
        },
        {
          "name": "newTime",
          "type": "uint256"
        }
      ],
      "name": "rescheduleSnapshot",
      "outputs": [],
      "payable": false,
      "stateMutability": "nonpayable",
      "type": "function"
    },
    {
      "constant": false,
      "inputs": [
        {
          "name": "time",
          "type": "uint256"
        }
      ],
      "name": "unscheduleSnapshot",
      "outputs": [],
      "payable": false,
      "stateMutability": "nonpayable",
      "type": "function"
    },
    {
      "constant": false,
      "inputs": [
        {
          "name": "time",
          "type": "uint256"
        },
        {
          "name": "votes",
          "type": "bool"
        },
        {
          "name": "ipfsLink",
          "type": "string"
        }
      ],
      "name": "createResolution",
      "outputs": [],
      "payable": false,
      "stateMutability": "nonpayable",
      "type": "function"
    },
    {
      "constant": true,
      "inputs": [
        {
          "name": "time",
          "type": "uint256"
        }
      ],
      "name": "countVotes",
      "outputs": [
        {
          "name": "total",
          "type": "uint256"
        },
        {
          "name": "yes",
          "type": "uint256"
        }
      ],
      "payable": false,
      "stateMutability": "view",
      "type": "function"
    },
    {
      "constant": false,
      "inputs": [
        {
          "name": "time",
          "type": "uint256"
        },
        {
          "name": "wallet",
          "type": "address"
        },
        {
          "name": "token",
          "type": "address"
        },
        {
          "name": "amount",
          "type": "uint256"
        }
      ],
      "name": "payoutProrata",
      "outputs": [],
      "payable": false,
      "stateMutability": "nonpayable",
      "type": "function"
    },
    {
      "constant": false,
      "inputs": [
        {
          "name": "time",
          "type": "uint256"
        },
        {
          "name": "holder",
          "type": "address"
        },
        {
          "name": "wallet",
          "type": "address"
        },
        {
          "name": "token",
          "type": "address"
        },
        {
          "name": "amount",
          "type": "uint256"
        }
      ],
      "name": "payout",
      "outputs": [],
      "payable": false,
      "stateMutability": "nonpayable",
      "type": "function"
    },
    {
      "constant": false,
      "inputs": [],
      "name": "pause",
      "outputs": [],
      "payable": false,
      "stateMutability": "nonpayable",
      "type": "function"
    },
    {
      "constant": false,
      "inputs": [],
      "name": "unpause",
      "outputs": [],
      "payable": false,
      "stateMutability": "nonpayable",
      "type": "function"
    }
  ],
  "bytecode": "0x6080604052602060a755602060a855614df68061001d6000396000f3fe608060405234801561001057600080fd5b50600436106102535760003560e01c80638f32d59b11610146578063bcc88fbd116100c3578063d565a53311610087578063d565a53314610847578063dd62ed3e146108e7578063e20c35e514610915578063f2fde38b14610932578063f5537ede14610958578063fb78ed401461098e57610253565b8063bcc88fbd146106ff578063c4d66de8146107b3578063c9d27afe146107d9578063d0516650146107fe578063d21268ef1461082457610253565b8063a312e1551161010a578063a312e15514610640578063a457c2d71461065d578063a9059cbb14610689578063b187bd26146106b5578063b6fdff18146106bd57610253565b80638f32d59b146105c057806395d89b41146105c85780639975038c146105d05780639dc29fac146105d8578063a1b4b1ce1461060457610253565b806345c8b1a6116101d4578063715018a611610198578063715018a61461053457806372e0f8531461053c57806379c65068146105685780638456cb59146105945780638da5cb5b1461059c57610253565b806345c8b1a61461045b57806346499770146104815780635ee7a942146104c5578063634daf76146104e257806370a082311461050e57610253565b806324bce60c1161021b57806324bce60c1461039b578063313ce567146103c957806339509351146103e75780633b345a87146104135780633f4ba83a1461045357610253565b806306fdde0314610258578063095ea7b3146102d557806318160ddd146103155780631840f0ca1461032f57806323b872dd14610365575b600080fd5b6102606109e6565b6040805160208082528351818301528351919283929083019185019080838360005b8381101561029a578181015183820152602001610282565b50505050905090810190601f1680156102c75780820380516001836020036101000a031916815260200191505b509250505060405180910390f35b610301600480360360408110156102eb57600080fd5b506001600160a01b038135169060200135610a7d565b604080519115158252519081900360200190f35b61031d610c01565b60408051918252519081900360200190f35b61034c6004803603602081101561034557600080fd5b5035610c07565b6040805192835260208301919091528051918290030190f35b6103016004803603606081101561037b57600080fd5b506001600160a01b03813581169160208101359091169060400135610f23565b6103c7600480360360408110156103b157600080fd5b506001600160a01b0381351690602001356111ee565b005b6103d161137b565b6040805160ff9092168252519081900360200190f35b610301600480360360408110156103fd57600080fd5b506001600160a01b038135169060200135611380565b6104306004803603602081101561042957600080fd5b50356113fe565b604080516001600160a01b03909316835260208301919091528051918290030190f35b6103c76114eb565b6103c76004803603602081101561047157600080fd5b50356001600160a01b03166115dd565b6103c7600480360360a081101561049757600080fd5b508035906020810135906001600160a01b036040820135811691606081013582169160809091013516611767565b61031d600480360360208110156104db57600080fd5b50356118a2565b61031d600480360360408110156104f857600080fd5b50803590602001356001600160a01b03166118d4565b61031d6004803603602081101561052457600080fd5b50356001600160a01b031661191d565b6103c7611938565b6103c76004803603604081101561055257600080fd5b506001600160a01b0381351690602001356119cc565b6103c76004803603604081101561057e57600080fd5b506001600160a01b038135169060200135611b57565b6103c7611c3b565b6105a4611d2a565b604080516001600160a01b039092168252519081900360200190f35b610301611d39565b610260611d5f565b6103c7611dc0565b6103c7600480360360408110156105ee57600080fd5b506001600160a01b038135169060200135611fab565b6103c76004803603608081101561061a57600080fd5b508035906001600160a01b03602082013581169160408101359091169060600135612135565b6103c76004803603602081101561065657600080fd5b503561267a565b6103016004803603604081101561067357600080fd5b506001600160a01b0381351690602001356127b3565b6103016004803603604081101561069f57600080fd5b506001600160a01b038135169060200135612834565b610301612ad0565b6103c7600480360360a08110156106d357600080fd5b508035906001600160a01b03602082013581169160408101358216916060820135169060800135612ad9565b6103c76004803603606081101561071557600080fd5b813591602081013515159181019060608101604082013564010000000081111561073e57600080fd5b82018360208201111561075057600080fd5b8035906020019184600183028401116401000000008311171561077257600080fd5b91908080601f016020809104026020016040519081016040528093929190818152602001838380828437600092019190915250929550612f9a945050505050565b6103c7600480360360208110156107c957600080fd5b50356001600160a01b03166130db565b6103c7600480360360408110156107ef57600080fd5b508035906020013515156131cf565b61031d6004803603602081101561081457600080fd5b50356001600160a01b03166133b0565b6103c76004803603604081101561083a57600080fd5b5080359060200135613418565b6108646004803603602081101561085d57600080fd5b5035613557565b604051808060200183151515158152602001828103825284818151815260200191508051906020019080838360005b838110156108ab578181015183820152602001610893565b50505050905090810190601f1680156108d85780820380516001836020036101000a031916815260200191505b50935050505060405180910390f35b61031d600480360360408110156108fd57600080fd5b506001600160a01b038135811691602001351661371a565b6103c76004803603602081101561092b57600080fd5b5035613745565b6103c76004803603602081101561094857600080fd5b50356001600160a01b031661387e565b6103c76004803603606081101561096e57600080fd5b506001600160a01b038135811691602081013590911690604001356138d1565b61099661399a565b60408051602080825283518183015283519192839290830191858101910280838360005b838110156109d25781810151838201526020016109ba565b505050509050019250505060405180910390f35b60a58054604080516020601f6002600019610100600188161502019095169490940493840181900481028201810190925282815260609390929091830182828015610a725780601f10610a4757610100808354040283529160200191610a72565b820191906000526020600020905b815481529060010190602001808311610a5557829003601f168201915b505050505090505b90565b6001600160a01b038216600090815260ae60205260408120548390839081111580610b415750816001600160a01b0316610ab5611d2a565b6001600160a01b031663e0a87de1306040518263ffffffff1660e01b815260040180826001600160a01b03166001600160a01b0316815260200191505060206040518083038186803b158015610b0a57600080fd5b505afa158015610b1e573d6000803e3d6000fd5b505050506040513d6020811015610b3457600080fd5b50516001600160a01b0316145b80610b59575060aa546001600160a01b038381169116145b610b9b5760408051600160e51b62461bcd02815260206004820152601d6024820152600080516020614d62833981519152604482015290519081900360640190fd5b60665460ff1615610be45760408051600160e51b62461bcd02815260206004820152600f6024820152600080516020614c45833981519152604482015290519081900360640190fd5b610bf6610bef6139f1565b86866139f5565b506001949350505050565b60695490565b600080610c126139f1565b806001600160a01b0316610c24611d2a565b6001600160a01b031663e0a87de1306040518263ffffffff1660e01b815260040180826001600160a01b03166001600160a01b0316815260200191505060206040518083038186803b158015610c7957600080fd5b505afa158015610c8d573d6000803e3d6000fd5b505050506040513d6020811015610ca357600080fd5b50516001600160a01b031614610cf15760408051600160e51b62461bcd0281526020600482015260146024820152600080516020614b95833981519152604482015290519081900360640190fd5b60665460ff1615610d3a5760408051600160e51b62461bcd02815260206004820152600f6024820152600080516020614c45833981519152604482015290519081900360640190fd5b60408051600080825260208083018085528351902088835260a390915283822080549294859492939192019081908390600260001961010060018416150201909116048015610dc05780601f10610d9e576101008083540402835291820191610dc0565b820191906000526020600020905b815481529060010190602001808311610dac575b50509150506040516020818303038152906040528051906020012014610f195760a460a360008881526020019081526020016000206040518082805460018160011615610100020316600290048015610e505780601f10610e2e576101008083540402835291820191610e50565b820191906000526020600020905b815481529060010190602001808311610e3c575b505092835250506040519081900360200190205460ff16151560011415610f195760005b60ab54811015610f17576000610eab8860ab8481548110610e9157fe5b6000918252602090912001546001600160a01b03166118d4565b1115610f0f57600087815260a16020526040812060ab805460019095019491929184908110610ed657fe5b60009182526020808320909101546001600160a01b0316835282019290925260400190205460ff16151560011415610f0f578260010192505b600101610e74565b505b9350915050915091565b6000610f2d6139f1565b6001600160a01b038116600090815260ae6020526040902054839081111580610fef5750816001600160a01b0316610f63611d2a565b6001600160a01b031663e0a87de1306040518263ffffffff1660e01b815260040180826001600160a01b03166001600160a01b0316815260200191505060206040518083038186803b158015610fb857600080fd5b505afa158015610fcc573d6000803e3d6000fd5b505050506040513d6020811015610fe257600080fd5b50516001600160a01b0316145b80611007575060aa546001600160a01b038381169116145b6110495760408051600160e51b62461bcd02815260206004820152601d6024820152600080516020614d62833981519152604482015290519081900360640190fd5b60665460ff16156110925760408051600160e51b62461bcd02815260206004820152600f6024820152600080516020614c45833981519152604482015290519081900360640190fd5b6001600160a01b038616600090815260ad60205260409020546110c4856110b88961191d565b9063ffffffff613ae716565b101561111a5760408051600160e51b62461bcd02815260206004820152601560248201527f46756e6473207472616e736665722066726f7a656e0000000000000000000000604482015290519081900360640190fd5b611125868686613b30565b611130868686613b8b565b61117c8661113c6139f1565b61117787604051806060016040528060288152602001614c866028913961116a8c6111656139f1565b61371a565b919063ffffffff613cef16565b6139f5565b6001600160a01b038516600090815260ac60205260409020546111e25760ab8054600181018255600080516020614cfc8339815191520180546001600160a01b0319166001600160a01b0388169081179091559054600091825260ac6020526040909120555b50600195945050505050565b6111f66139f1565b806001600160a01b0316611208611d2a565b6001600160a01b031663e0a87de1306040518263ffffffff1660e01b815260040180826001600160a01b03166001600160a01b0316815260200191505060206040518083038186803b15801561125d57600080fd5b505afa158015611271573d6000803e3d6000fd5b505050506040513d602081101561128757600080fd5b50516001600160a01b0316146112d55760408051600160e51b62461bcd0281526020600482015260146024820152600080516020614b95833981519152604482015290519081900360640190fd5b60665460ff161561131e5760408051600160e51b62461bcd02815260206004820152600f6024820152600080516020614c45833981519152604482015290519081900360640190fd5b6001600160a01b038316600081815260ad602052604090208390556113416139f1565b6001600160a01b03167f51d18786e9cb144f87d46e7b796309ea84c7c687d91e09c97f051eacf59bc52860405160405180910390a3505050565b601290565b60665460009060ff16156113cc5760408051600160e51b62461bcd02815260206004820152600f6024820152600080516020614c45833981519152604482015290519081900360640190fd5b6113f46113d76139f1565b84611177856113e8886111656139f1565b9063ffffffff613d8916565b5060015b92915050565b600080600061140d84336118d4565b11156114e65760408051600080825260208083018085528351902087835260a3909152908390208054919390920190819083906002600019610100600184161502019091160480156114965780601f10611474576101008083540402835291820191611496565b820191906000526020600020905b815481529060010190602001808311611482575b505091505060405160208183030381529060405280519060200120146114e6575050600081815260a260209081526040808320338452909152902080546001909101546001600160a01b03909116905b915091565b6114f36139f1565b806001600160a01b0316611505611d2a565b6001600160a01b031663e0a87de1306040518263ffffffff1660e01b815260040180826001600160a01b03166001600160a01b0316815260200191505060206040518083038186803b15801561155a57600080fd5b505afa15801561156e573d6000803e3d6000fd5b505050506040513d602081101561158457600080fd5b50516001600160a01b0316146115d25760408051600160e51b62461bcd0281526020600482015260146024820152600080516020614b95833981519152604482015290519081900360640190fd5b6115da613de6565b50565b6115e56139f1565b806001600160a01b03166115f7611d2a565b6001600160a01b031663e0a87de1306040518263ffffffff1660e01b815260040180826001600160a01b03166001600160a01b0316815260200191505060206040518083038186803b15801561164c57600080fd5b505afa158015611660573d6000803e3d6000fd5b505050506040513d602081101561167657600080fd5b50516001600160a01b0316146116c45760408051600160e51b62461bcd0281526020600482015260146024820152600080516020614b95833981519152604482015290519081900360640190fd5b60665460ff161561170d5760408051600160e51b62461bcd02815260206004820152600f6024820152600080516020614c45833981519152604482015290519081900360640190fd5b6001600160a01b038216600081815260ad602052604081205561172e6139f1565b6001600160a01b03167f4f3ab9ff0cc4f039268532098e01239544b0420171876e36889d01c62c784c7960405160405180910390a35050565b600054610100900460ff16806117805750611780613e1b565b8061178e575060005460ff16155b6117cc57604051600160e51b62461bcd02815260040180806020018281038252602e815260200180614cce602e913960400191505060405180910390fd5b600054610100900460ff161580156117f7576000805460ff1961ff0019909116610100171660011790555b611800846130db565b604080516020808201899052825180830382018152918301909252805161182b9260a5920190614ad9565b5060408051602080820188905282518083038201815291830190925280516118579260a6920190614ad9565b5060aa80546001600160a01b038086166001600160a01b03199283161790925560a9805492851692909116919091179055801561189a576000805461ff00191690555b505050505050565b60008060006118b284609d613e21565b91509150816118c8576118c3610c01565b6118ca565b805b925050505b919050565b6001600160a01b0381166000908152609c60205260408120819081906118fb908690613e21565b91509150816119125761190d8461191d565b611914565b805b95945050505050565b6001600160a01b031660009081526067602052604090205490565b611940611d39565b6119825760408051600160e51b62461bcd0281526020600482018190526024820152600080516020614cae833981519152604482015290519081900360640190fd5b6033546040516000916001600160a01b0316907f8be0079c531659141344cd1fd0a4f28419497f9722a3daafe3b4186f6b6457e0908390a3603380546001600160a01b0319169055565b6119d46139f1565b6001600160a01b038116600090815260ae6020526040902054829081111580611a965750816001600160a01b0316611a0a611d2a565b6001600160a01b031663e0a87de1306040518263ffffffff1660e01b815260040180826001600160a01b03166001600160a01b0316815260200191505060206040518083038186803b158015611a5f57600080fd5b505afa158015611a73573d6000803e3d6000fd5b505050506040513d6020811015611a8957600080fd5b50516001600160a01b0316145b80611aae575060aa546001600160a01b038381169116145b611af05760408051600160e51b62461bcd02815260206004820152601d6024820152600080516020614d62833981519152604482015290519081900360640190fd5b60665460ff1615611b395760408051600160e51b62461bcd02815260206004820152600f6024820152600080516020614c45833981519152604482015290519081900360640190fd5b50506001600160a01b03909116600090815260ae6020526040902055565b611b5f611d39565b611ba15760408051600160e51b62461bcd0281526020600482018190526024820152600080516020614cae833981519152604482015290519081900360640190fd5b611bad60008383613b30565b611bb78282613e77565b60ab8054600181018255600080516020614cfc8339815191520180546001600160a01b0319166001600160a01b0385169081179091559054600082815260ac602090815260409182902092909255805184815290517f0f6798a560793a54c3bcfe86a93cde1e73087d944c0ea20544137d4121396885929181900390910190a25050565b611c436139f1565b806001600160a01b0316611c55611d2a565b6001600160a01b031663e0a87de1306040518263ffffffff1660e01b815260040180826001600160a01b03166001600160a01b0316815260200191505060206040518083038186803b158015611caa57600080fd5b505afa158015611cbe573d6000803e3d6000fd5b505050506040513d6020811015611cd457600080fd5b50516001600160a01b031614611d225760408051600160e51b62461bcd0281526020600482015260146024820152600080516020614b95833981519152604482015290519081900360640190fd5b6115da613f6c565b6033546001600160a01b031690565b6033546000906001600160a01b0316611d506139f1565b6001600160a01b031614905090565b60a68054604080516020601f6002600019610100600188161502019095169490940493840181900481028201810190925282815260609390929091830182828015610a725780601f10610a4757610100808354040283529160200191610a72565b611dc86139f1565b806001600160a01b0316611dda611d2a565b6001600160a01b031663e0a87de1306040518263ffffffff1660e01b815260040180826001600160a01b03166001600160a01b0316815260200191505060206040518083038186803b158015611e2f57600080fd5b505afa158015611e43573d6000803e3d6000fd5b505050506040513d6020811015611e5957600080fd5b50516001600160a01b031614611ea75760408051600160e51b62461bcd0281526020600482015260146024820152600080516020614b95833981519152604482015290519081900360640190fd5b60665460ff1615611ef05760408051600160e51b62461bcd02815260206004820152600f6024820152600080516020614c45833981519152604482015290519081900360640190fd5b60005b60ab54811015611fa757611f5c60ab8281548110611f0d57fe5b9060005260206000200160009054906101000a90046001600160a01b03166000611f5760ab8581548110611f3d57fe5b6000918252602090912001546001600160a01b031661191d565b613b30565b611f9f60ab8281548110611f6c57fe5b9060005260206000200160009054906101000a90046001600160a01b0316611f9a60ab8481548110611f3d57fe5b613fa4565b600101611ef3565b5050565b611fb36139f1565b806001600160a01b0316611fc5611d2a565b6001600160a01b031663e0a87de1306040518263ffffffff1660e01b815260040180826001600160a01b03166001600160a01b0316815260200191505060206040518083038186803b15801561201a57600080fd5b505afa15801561202e573d6000803e3d6000fd5b505050506040513d602081101561204457600080fd5b50516001600160a01b0316146120925760408051600160e51b62461bcd0281526020600482015260146024820152600080516020614b95833981519152604482015290519081900360640190fd5b60665460ff16156120db5760408051600160e51b62461bcd02815260206004820152600f6024820152600080516020614c45833981519152604482015290519081900360640190fd5b6120e783600084613b30565b6120f18383613fa4565b6040805183815290516001600160a01b038516917fcc16f5dbb4873280815c1ee09dbd06736cffcc184412cf7a71a0fdb75d397ca5919081900360200190a2505050565b61213d6139f1565b60a95460408051600160e01b63442767330281526001600160a01b03848116600483015291516000939290921691634427673391602480820192606092909190829003018186803b15801561219157600080fd5b505afa1580156121a5573d6000803e3d6000fd5b505050506040513d60608110156121bb57600080fd5b505190506001600160a01b0382166121d1611d2a565b6001600160a01b031663e0a87de1306040518263ffffffff1660e01b815260040180826001600160a01b03166001600160a01b0316815260200191505060206040518083038186803b15801561222657600080fd5b505afa15801561223a573d6000803e3d6000fd5b505050506040513d602081101561225057600080fd5b50516001600160a01b03161480612275575080600160b91b6821bab9ba37b234b0b702145b6122c95760408051600160e51b62461bcd02815260206004820152601760248201527f4e6f7420697373756572206f7220637573746f6469616e000000000000000000604482015290519081900360640190fd5b60665460ff16156123125760408051600160e51b62461bcd02815260206004820152600f6024820152600080516020614c45833981519152604482015290519081900360640190fd5b600061231d876118a2565b116123725760408051600160e51b62461bcd02815260206004820152601b60248201527f4e6f207363686564756c656420736e617073686f7420666f756e640000000000604482015290519081900360640190fd5b82846001600160a01b03166370a08231876040518263ffffffff1660e01b815260040180826001600160a01b03166001600160a01b0316815260200191505060206040518083038186803b1580156123c957600080fd5b505afa1580156123dd573d6000803e3d6000fd5b505050506040513d60208110156123f357600080fd5b5051101561244b5760408051600160e51b62461bcd02815260206004820152601460248201527f496e73756666696369656e742062616c616e6365000000000000000000000000604482015290519081900360640190fd5b6001600160a01b0384161580159061246b57506001600160a01b03851615155b80156124775750600083115b6124cb5760408051600160e51b62461bcd02815260206004820152601460248201527f496e76616c696420646973747269627574696f6e000000000000000000000000604482015290519081900360640190fd5b60006124d6876118a2565b905060005b60ab548110156126705760006124f88960ab8481548110610e9157fe5b9050801561266757600061251561250f83866140a3565b886140e5565b9050876001600160a01b03166323b872dd8a60ab868154811061253457fe5b60009182526020808320909101546040805163ffffffff871660e01b81526001600160a01b0395861660048201529490911660248501526044840187905251606480850194929391928390030190829087803b15801561259357600080fd5b505af11580156125a7573d6000803e3d6000fd5b505050506040513d60208110156125bd57600080fd5b505060008a815260a26020526040812060ab80548b939190879081106125df57fe5b6000918252602080832091909101546001600160a01b039081168452838201949094526040928301822080546001600160a01b03191695909416949094179092558c825260a290925290812060ab8054849391908790811061263d57fe5b60009182526020808320909101546001600160a01b03168352820192909252604001902060010155505b506001016124db565b5050505050505050565b6126826139f1565b806001600160a01b0316612694611d2a565b6001600160a01b031663e0a87de1306040518263ffffffff1660e01b815260040180826001600160a01b03166001600160a01b0316815260200191505060206040518083038186803b1580156126e957600080fd5b505afa1580156126fd573d6000803e3d6000fd5b505050506040513d602081101561271357600080fd5b50516001600160a01b0316146127615760408051600160e51b62461bcd0281526020600482015260146024820152600080516020614b95833981519152604482015290519081900360640190fd5b60665460ff16156127aa5760408051600160e51b62461bcd02815260206004820152600f6024820152600080516020614c45833981519152604482015290519081900360640190fd5b611fa782614141565b60665460009060ff16156127ff5760408051600160e51b62461bcd02815260206004820152600f6024820152600080516020614c45833981519152604482015290519081900360640190fd5b6113f461280a6139f1565b8461117785604051806060016040528060258152602001614da66025913961116a896111656139f1565b600061283e6139f1565b6001600160a01b038116600090815260ae60205260409020548390811115806129005750816001600160a01b0316612874611d2a565b6001600160a01b031663e0a87de1306040518263ffffffff1660e01b815260040180826001600160a01b03166001600160a01b0316815260200191505060206040518083038186803b1580156128c957600080fd5b505afa1580156128dd573d6000803e3d6000fd5b505050506040513d60208110156128f357600080fd5b50516001600160a01b0316145b80612918575060aa546001600160a01b038381169116145b61295a5760408051600160e51b62461bcd02815260206004820152601d6024820152600080516020614d62833981519152604482015290519081900360640190fd5b60665460ff16156129a35760408051600160e51b62461bcd02815260206004820152600f6024820152600080516020614c45833981519152604482015290519081900360640190fd5b60ad60006129af6139f1565b6001600160a01b03166001600160a01b03168152602001908152602001600020546129e4856110b86129df6139f1565b61191d565b1015612a3a5760408051600160e51b62461bcd02815260206004820152601560248201527f46756e6473207472616e736665722066726f7a656e0000000000000000000000604482015290519081900360640190fd5b612a4c612a456139f1565b8686613b30565b612a5e612a576139f1565b8686613b8b565b6001600160a01b038516600090815260ac6020526040902054610bf65760ab8054600181018255600080516020614cfc8339815191520180546001600160a01b0388166001600160a01b031990911681179091559054600091825260ac60205260409091205560019250505092915050565b60665460ff1690565b612ae16139f1565b60a95460408051600160e01b63442767330281526001600160a01b03848116600483015291516000939290921691634427673391602480820192606092909190829003018186803b158015612b3557600080fd5b505afa158015612b49573d6000803e3d6000fd5b505050506040513d6060811015612b5f57600080fd5b505190506001600160a01b038216612b75611d2a565b6001600160a01b031663e0a87de1306040518263ffffffff1660e01b815260040180826001600160a01b03166001600160a01b0316815260200191505060206040518083038186803b158015612bca57600080fd5b505afa158015612bde573d6000803e3d6000fd5b505050506040513d6020811015612bf457600080fd5b50516001600160a01b03161480612c19575080600160b91b6821bab9ba37b234b0b702145b612c6d5760408051600160e51b62461bcd02815260206004820152601760248201527f4e6f7420697373756572206f7220637573746f6469616e000000000000000000604482015290519081900360640190fd5b60665460ff1615612cb65760408051600160e51b62461bcd02815260206004820152600f6024820152600080516020614c45833981519152604482015290519081900360640190fd5b6000612cc1886118a2565b11612d165760408051600160e51b62461bcd02815260206004820152601b60248201527f4e6f207363686564756c656420736e617073686f7420666f756e640000000000604482015290519081900360640190fd5b82846001600160a01b03166370a08231876040518263ffffffff1660e01b815260040180826001600160a01b03166001600160a01b0316815260200191505060206040518083038186803b158015612d6d57600080fd5b505afa158015612d81573d6000803e3d6000fd5b505050506040513d6020811015612d9757600080fd5b50511015612def5760408051600160e51b62461bcd02815260206004820152601460248201527f496e73756666696369656e742062616c616e6365000000000000000000000000604482015290519081900360640190fd5b6000612dfb88886118d4565b11612e505760408051600160e51b62461bcd02815260206004820152601b60248201527f4e6f74206120736563757269747920746f6b656e20686f6c6465720000000000604482015290519081900360640190fd5b6001600160a01b03841615801590612e7057506001600160a01b03851615155b8015612e7c5750600083115b612ed05760408051600160e51b62461bcd02815260206004820152601460248201527f496e76616c696420646973747269627574696f6e000000000000000000000000604482015290519081900360640190fd5b60408051600160e01b6323b872dd0281526001600160a01b0387811660048301528881166024830152604482018690529151918616916323b872dd916064808201926020929091908290030181600087803b158015612f2e57600080fd5b505af1158015612f42573d6000803e3d6000fd5b505050506040513d6020811015612f5857600080fd5b50505060009586525060a2602090815260408087206001600160a01b03968716885290915290942080546001600160a01b031916919093161782555060010155565b612fa26139f1565b806001600160a01b0316612fb4611d2a565b6001600160a01b031663e0a87de1306040518263ffffffff1660e01b815260040180826001600160a01b03166001600160a01b0316815260200191505060206040518083038186803b15801561300957600080fd5b505afa15801561301d573d6000803e3d6000fd5b505050506040513d602081101561303357600080fd5b50516001600160a01b0316146130815760408051600160e51b62461bcd0281526020600482015260146024820152600080516020614b95833981519152604482015290519081900360640190fd5b60665460ff16156130ca5760408051600160e51b62461bcd02815260206004820152600f6024820152600080516020614c45833981519152604482015290519081900360640190fd5b6130d584848461426f565b50505050565b600054610100900460ff16806130f457506130f4613e1b565b80613102575060005460ff16155b61314057604051600160e51b62461bcd02815260040180806020018281038252602e815260200180614cce602e913960400191505060405180910390fd5b600054610100900460ff1615801561316b576000805460ff1961ff0019909116610100171660011790555b603380546001600160a01b0319166001600160a01b0384811691909117918290556040519116906000907f8be0079c531659141344cd1fd0a4f28419497f9722a3daafe3b4186f6b6457e0908290a38015611fa7576000805461ff00191690555050565b60006131db83336118d4565b116132305760408051600160e51b62461bcd02815260206004820152601260248201527f556e617574686f72697a656420766f7465720000000000000000000000000000604482015290519081900360640190fd5b60408051600080825260208083018085528351902086835260a3909152908390208054919390920190819083906002600019610100600184161502019091160480156132b35780601f106132915761010080835404028352918201916132b3565b820191906000526020600020905b81548152906001019060200180831161329f575b50509150506040516020818303038152906040528051906020012014611fa75760a460a3600084815260200190815260200160002060405180828054600181600116156101000203166002900480156133435780601f10613321576101008083540402835291820191613343565b820191906000526020600020905b81548152906001019060200180831161332f575b505092835250506040519081900360200190205460ff16151560011415611fa757600082815260a16020908152604080832033845290915290205460ff16611fa757600082815260a1602090815260408083203384529091529020805482151560ff199091161790555050565b60665460009060ff16156133fc5760408051600160e51b62461bcd02815260206004820152600f6024820152600080516020614c45833981519152604482015290519081900360640190fd5b506001600160a01b0316600090815260ad602052604090205490565b6134206139f1565b806001600160a01b0316613432611d2a565b6001600160a01b031663e0a87de1306040518263ffffffff1660e01b815260040180826001600160a01b03166001600160a01b0316815260200191505060206040518083038186803b15801561348757600080fd5b505afa15801561349b573d6000803e3d6000fd5b505050506040513d60208110156134b157600080fd5b50516001600160a01b0316146134ff5760408051600160e51b62461bcd0281526020600482015260146024820152600080516020614b95833981519152604482015290519081900360640190fd5b60665460ff16156135485760408051600160e51b62461bcd02815260206004820152600f6024820152600080516020614c45833981519152604482015290519081900360640190fd5b61355283836143f0565b505050565b60408051600080825260208083018085528351902085835260a3909152838220805460609593949293919290910190819083906002600019610100600184161502019091160480156135e05780601f106135be5761010080835404028352918201916135e0565b820191906000526020600020905b8154815290600101906020018083116135cc575b505091505060405160208183030381529060405280519060200120146114e657600083815260a36020526040908190209051815460a4918391819083906002600019610100600184161502019091160480156136735780601f10613651576101008083540402835291820191613673565b820191906000526020600020905b81548152906001019060200180831161365f575b50509283525050604080516020928190038301812054845460026101006001831615026000190190911604601f810185900485028301850190935282825260ff16929091849183018282801561370a5780601f106136df5761010080835404028352916020019161370a565b820191906000526020600020905b8154815290600101906020018083116136ed57829003601f168201915b50505050509150915091506114e6565b6001600160a01b03918216600090815260686020908152604080832093909416825291909152205490565b61374d6139f1565b806001600160a01b031661375f611d2a565b6001600160a01b031663e0a87de1306040518263ffffffff1660e01b815260040180826001600160a01b03166001600160a01b0316815260200191505060206040518083038186803b1580156137b457600080fd5b505afa1580156137c8573d6000803e3d6000fd5b505050506040513d60208110156137de57600080fd5b50516001600160a01b03161461382c5760408051600160e51b62461bcd0281526020600482015260146024820152600080516020614b95833981519152604482015290519081900360640190fd5b60665460ff16156138755760408051600160e51b62461bcd02815260206004820152600f6024820152600080516020614c45833981519152604482015290519081900360640190fd5b611fa7826145be565b613886611d39565b6138c85760408051600160e51b62461bcd0281526020600482018190526024820152600080516020614cae833981519152604482015290519081900360640190fd5b6115da816146b6565b6138d9611d39565b61391b5760408051600160e51b62461bcd0281526020600482018190526024820152600080516020614cae833981519152604482015290519081900360640190fd5b613926838383613b30565b613931838383613b8b565b6001600160a01b038216600090815260ac6020526040902054613552575060ab8054600181018255600080516020614cfc8339815191520180546001600160a01b0319166001600160a01b0393909316928317905554600091825260ac60205260409091205550565b606060a0805480602002602001604051908101604052809291908181526020018280548015610a7257602002820191906000526020600020905b8154815260200190600101908083116139d4575050505050905090565b3390565b6001600160a01b038316613a3d57604051600160e51b62461bcd028152600401808060200182810382526024815260200180614d826024913960400191505060405180910390fd5b6001600160a01b038216613a8557604051600160e51b62461bcd028152600401808060200182810382526022815260200180614bfd6022913960400191505060405180910390fd5b6001600160a01b03808416600081815260686020908152604080832094871680845294825291829020859055815185815291517f8c5be1e5ebec7d5bd14f71427d1e84f3dd0314c0f7b2291e5b200ac8c7c3b9259281900390910190a3505050565b6000613b2983836040518060400160405280601e81526020017f536166654d6174683a207375627472616374696f6e206f766572666c6f770000815250613cef565b9392505050565b613b3861475a565b6001600160a01b03831615613b7a57613b5083614779565b6001600160a01b03821615613b6d57613b6882614779565b613b75565b613b756147a3565b613552565b613b8382614779565b6135526147a3565b6001600160a01b038316613bd357604051600160e51b62461bcd028152600401808060200182810382526025815260200180614d3d6025913960400191505060405180910390fd5b6001600160a01b038216613c1b57604051600160e51b62461bcd028152600401808060200182810382526023815260200180614b726023913960400191505060405180910390fd5b613c5e81604051806060016040528060268152602001614c1f602691396001600160a01b038616600090815260676020526040902054919063ffffffff613cef16565b6001600160a01b038085166000908152606760205260408082209390935590841681522054613c93908263ffffffff613d8916565b6001600160a01b0380841660008181526067602090815260409182902094909455805185815290519193928716927fddf252ad1be2c89b69c2b068fc378daa952ba7f163c4a11628f55a4df523b3ef92918290030190a3505050565b60008184841115613d8157604051600160e51b62461bcd0281526004018080602001828103825283818151815260200191508051906020019080838360005b83811015613d46578181015183820152602001613d2e565b50505050905090810190601f168015613d735780820380516001836020036101000a031916815260200191505b509250505060405180910390fd5b505050900390565b600082820183811015613b295760408051600160e51b62461bcd02815260206004820152601b60248201527f536166654d6174683a206164646974696f6e206f766572666c6f770000000000604482015290519081900360640190fd5b6066805460ff191690556040517fa45f47fdea8a1efdd9029a5691c7f759c32b7c698632b563573e155625d1693390600090a1565b303b1590565b60008080613e35848663ffffffff6147b216565b8454909150811415613e4e575060009150819050613e70565b6001846001018281548110613e5f57fe5b906000526020600020015492509250505b9250929050565b6001600160a01b038216613ed55760408051600160e51b62461bcd02815260206004820152601f60248201527f45524332303a206d696e7420746f20746865207a65726f206164647265737300604482015290519081900360640190fd5b606954613ee8908263ffffffff613d8916565b6069556001600160a01b038216600090815260676020526040902054613f14908263ffffffff613d8916565b6001600160a01b03831660008181526067602090815260408083209490945583518581529351929391927fddf252ad1be2c89b69c2b068fc378daa952ba7f163c4a11628f55a4df523b3ef9281900390910190a35050565b6066805460ff191660011790556040517f9e87fac88ff661f02d44f95383c817fece4bce600a3dab7a54406878b965e75290600090a1565b6001600160a01b038216613fec57604051600160e51b62461bcd028152600401808060200182810382526021815260200180614d1c6021913960400191505060405180910390fd5b61402f81604051806060016040528060228152602001614bb5602291396001600160a01b038516600090815260676020526040902054919063ffffffff613cef16565b6001600160a01b03831660009081526067602052604090205560695461405b908263ffffffff613ae716565b6069556040805182815290516000916001600160a01b038516917fddf252ad1be2c89b69c2b068fc378daa952ba7f163c4a11628f55a4df523b3ef9181900360200190a35050565b6000613b2983836040518060400160405280601a81526020017f536166654d6174683a206469766973696f6e206279207a65726f000000000000815250614853565b6000826140f4575060006113f8565b8282028284828161410157fe5b0414613b2957604051600160e51b62461bcd028152600401808060200182810382526021815260200180614c656021913960400191505060405180910390fd5b8042106141985760408051600160e51b62461bcd02815260206004820152601460248201527f536e617073686f7420696e207468652070617374000000000000000000000000604482015290519081900360640190fd5b60006141a3826148bb565b50905080156141fc5760408051600160e51b62461bcd02815260206004820152601d60248201527f536e617073686f742065786973747320666f7220746869732074696d65000000604482015290519081900360640190fd5b60a0805460018101825560009182527f78fdc8d422c49ced035a9edf18d00d3c6a8d81df210f3e5e448e045e77b41e88018390556040805191825260208201849052805130927f8cad7eb54258c06103e9bf7e76d41fbc96c6fe17e0e122e15c9669ebf2e48fc392908290030190a25050565b606061427961399a565b905060005b81518110156143e9578482828151811061429457fe5b602002602001015114156143e157600085815260a36020908152604090912084516142c192860190614ad9565b508360a4846040518082805190602001908083835b602083106142f55780518252601f1990920191602091820191016142d6565b51815160209384036101000a6000190180199092169116179052920194855250604080519485900382018520805460ff1916961515969096179095558984528815159484019490945250506060818301818152865191830191909152855130937f870eae2b1d96094d2506bdf7e2920e69b502da493662576957e97e74512cea99938a9389938b9360808401919086019080838360005b838110156143a457818101518382015260200161438c565b50505050905090810190601f1680156143d15780820380516001836020036101000a031916815260200191505b5094505050505060405180910390a25b60010161427e565b5050505050565b8142106144475760408051600160e51b62461bcd02815260206004820152601560248201527f536e617073686f7420616c726561647920646f6e650000000000000000000000604482015290519081900360640190fd5b80421061449e5760408051600160e51b62461bcd02815260206004820152601460248201527f536e617073686f7420696e207468652070617374000000000000000000000000604482015290519081900360640190fd5b60006144a9826148bb565b50905080156145025760408051600160e51b62461bcd02815260206004820152601d60248201527f536e617073686f742065786973747320666f7220746869732074696d65000000604482015290519081900360640190fd5b60008061450e856148bb565b915091508161455f5760408051600160e51b62461bcd0281526020600482015260126024820152600160721b7114db985c1cda1bdd081b9bdd08199bdd5b9902604482015290519081900360640190fd5b8360a0828154811061456d57fe5b6000918252602091829020019190915560408051878152918201869052805130927f8cad7eb54258c06103e9bf7e76d41fbc96c6fe17e0e122e15c9669ebf2e48fc392908290030190a25050505050565b8042106146155760408051600160e51b62461bcd02815260206004820152601560248201527f536e617073686f7420616c726561647920646f6e650000000000000000000000604482015290519081900360640190fd5b600080614621836148bb565b91509150816146725760408051600160e51b62461bcd0281526020600482015260126024820152600160721b7114db985c1cda1bdd081b9bdd08199bdd5b9902604482015290519081900360640190fd5b61467b81614908565b60408051848152905130917f36888e5aaf52d39282b94ce50e076f1d7fcadd0ff8301293551ebe2d86f57b4a919081900360200190a2505050565b6001600160a01b0381166146fe57604051600160e51b62461bcd028152600401808060200182810382526026815260200180614bd76026913960400191505060405180910390fd5b6033546040516001600160a01b038084169216907f8be0079c531659141344cd1fd0a4f28419497f9722a3daafe3b4186f6b6457e090600090a3603380546001600160a01b0319166001600160a01b0392909216919091179055565b6000614764614962565b905080156115da57609f8190556115da6149ed565b6001600160a01b0381166000908152609c602052604090206115da9061479e8361191d565b614a2f565b6147b0609d61479e610c01565b565b81546000906147c3575060006113f8565b82546000905b808210156148125760006147dd8383614a79565b9050848682815481106147ec57fe5b906000526020600020015411156148055780915061480c565b8060010192505b506147c9565b60008211801561483a57508385600184038154811061482d57fe5b9060005260206000200154145b1561484b57506000190190506113f8565b5090506113f8565b600081836148a557604051600160e51b62461bcd028152602060048201818152835160248401528351909283926044909101919085019080838360008315613d46578181015183820152602001613d2e565b5060008385816148b157fe5b0495945050505050565b600080805b60a0548110156148fc578360a082815481106148d857fe5b906000526020600020015414156148f4576001925090506114e6565b6001016148c0565b50600093849350915050565b60a08054600019810190811061491a57fe5b906000526020600020015460a0828154811061493257fe5b60009182526020909120015560a080548061494957fe5b6001900381819060005260206000200160009055905550565b60a05460009061497457506000610a7a565b6000805b60a0548110156149e7574260a0828154811061499057fe5b9060005260206000200154111580156149bf57508160a082815481106149b257fe5b9060005260206000200154115b156149df5760a081815481106149d157fe5b906000526020600020015491505b600101614978565b50905090565b60005b60a0548110156115da574260a08281548110614a0857fe5b906000526020600020015411614a2657614a2181614908565b614a2a565b6001015b6149f0565b6000614a39614a9e565b905080614a4584614aa4565b1015613552578254600180820185556000858152602080822090930193909355938401805494850181558252902090910155565b60006002808306600285060181614a8c57fe5b04600283046002850401019392505050565b609f5490565b8054600090614ab5575060006118cf565b815482906000198101908110614ac757fe5b906000526020600020015490506118cf565b828054600181600116156101000203166002900490600052602060002090601f016020900481019282601f10614b1a57805160ff1916838001178555614b47565b82800160010185558215614b47579182015b82811115614b47578251825591602001919060010190614b2c565b50614b53929150614b57565b5090565b610a7a91905b80821115614b535760008155600101614b5d56fe45524332303a207472616e7366657220746f20746865207a65726f20616464726573734f6e6c79206973737565727320616c6c6f77656400000000000000000000000045524332303a206275726e20616d6f756e7420657863656564732062616c616e63654f776e61626c653a206e6577206f776e657220697320746865207a65726f206164647265737345524332303a20617070726f766520746f20746865207a65726f206164647265737345524332303a207472616e7366657220616d6f756e7420657863656564732062616c616e6365436f6e7472616374207061757365640000000000000000000000000000000000536166654d6174683a206d756c7469706c69636174696f6e206f766572666c6f7745524332303a207472616e7366657220616d6f756e74206578636565647320616c6c6f77616e63654f776e61626c653a2063616c6c6572206973206e6f7420746865206f776e6572436f6e747261637420696e7374616e63652068617320616c7265616479206265656e20696e697469616c697a6564fc377260a69a39dd786235c89f4bcd5d9639157731cac38071a0508750eb115a45524332303a206275726e2066726f6d20746865207a65726f206164647265737345524332303a207472616e736665722066726f6d20746865207a65726f206164647265737353656e6465722077616c6c6574206e6f742077686974656c697374656400000045524332303a20617070726f76652066726f6d20746865207a65726f206164647265737345524332303a2064656372656173656420616c6c6f77616e63652062656c6f77207a65726fa165627a7a72305820b00f36ad107206ca24765c9289e46c9327b36bd0f41849be7c6b1d781a8accde0029",
  "source": "// Verified securities manager that updates holdings of securities by users\r\n// (c) Kallol Borah, 2021\r\n\r\npragma solidity 0.5.7;\r\n\r\nimport \"./CorporateActions.sol\";\r\nimport \"./utilities/Pausable.sol\";\r\nimport \"./interfaces/IFactory.sol\";\r\nimport \"./interfaces/ISecurity.sol\";\r\nimport \"./interfaces/VerifiedClient.sol\";\r\nimport \"@openzeppelin/contracts-ethereum-package/contracts/math/SafeMath.sol\";\r\nimport \"@openzeppelin/contracts-ethereum-package/contracts/ownership/Ownable.sol\";\r\n\r\ncontract Security is ISecurity, Ownable, Pausable, CorporateActions {\r\n\r\n    using SafeMath for uint256;\r\n\r\n    string private _name;\r\n    string private _symbol;\r\n\r\n    uint256 private MAX_NAME_LENGTH=32;\r\n    uint256 private MAX_SYMBOL_LENGTH=32;\r\n\r\n    VerifiedClient private _client;\r\n\r\n    //issuer of this security token or the assigned depositary participant\r\n    address private _issuer;\r\n\r\n    //this security token's holders\r\n    address[] private holders;\r\n\r\n    //mapping holders to index\r\n    mapping(address => uint256) private holderIndex;\r\n\r\n    //mapping security token holders to amounts frozen in account (0 means all frozen)\r\n    mapping(address => uint256) private froze;\r\n\r\n    //mapping whitelisted wallets to any spend cap on them (0 means no cap)\r\n    mapping(address => uint256) private whitelisted;\r\n\r\n    /**\r\n     * @dev Emitted when an address is frozen.\r\n     */\r\n    event Freeze(address indexed enforcer, address indexed owner);\r\n\r\n    /**\r\n     * @dev Emitted when an address is unfrozen.\r\n     */\r\n    event Unfreeze(address indexed enforcer, address indexed owner);\r\n\r\n    event Burn(address indexed owner, uint256 amount);\r\n\r\n    event Mint(address indexed beneficiary, uint256 amount);\r\n\r\n    modifier onlyIssueManagerOrCustodian(address sender){\r\n        (bytes32 role, , ) = _client.getRole(sender);\r\n        require(IFactory(owner()).getDP(address(this))==sender || role==\"Custodian\", \r\n                \"Not issuer or custodian\");\r\n        _;\r\n    }\r\n\r\n    modifier onlyIssueManager (address sender){\r\n        require(IFactory(owner()).getDP(address(this))==sender, \"Only issuers allowed\");\r\n        _;\r\n    }\r\n\r\n    modifier onlyWhiteListed (address sender, uint256 amount){\r\n        require(whitelisted[sender] >= amount || IFactory(owner()).getDP(address(this))==sender || sender==_issuer, \"Sender wallet not whitelisted\");\r\n        _;\r\n    }\r\n\r\n    /**\r\n     * @dev Sets the values for {name} and {symbol}.\r\n     *\r\n     * The default value of {decimals} is 18. To select a different value for\r\n     * {decimals} you should overload it.\r\n     *\r\n     * All two of these values are immutable: they can only be set once during\r\n     * construction.\r\n     */\r\n    function initialize(bytes32 name_, bytes32 symbol_, address _owner, address issuer, address client) public initializer {        \r\n        Ownable.initialize(_owner);\r\n        _name = string(abi.encodePacked(name_));\r\n        _symbol = string(abi.encodePacked(symbol_));\r\n        //require(bytes(_name).length <= MAX_NAME_LENGTH, \"Name too long\");\r\n        //require(bytes(_symbol).length <= MAX_SYMBOL_LENGTH, \"Symbol too long\");\r\n        _issuer = issuer;\r\n        _client = VerifiedClient(client);\r\n    }\r\n\r\n    /**\r\n     * @dev Returns the name of the token.\r\n     */\r\n    function name() public view returns (string memory) {\r\n        return _name;\r\n    }\r\n\r\n    /**\r\n     * @dev Returns the symbol of the token, usually a shorter version of the\r\n     * name.\r\n     */\r\n    function symbol() public view returns (string memory) {\r\n        return _symbol;\r\n    }\r\n\r\n    /**\r\n     * Securities are indivisible, so returning decimal 0\r\n     */\r\n    function decimals() public view returns (uint8) {\r\n        return 18;\r\n    }\r\n\r\n    function mintToken(address issuer, uint256 amount) external onlyOwner{\r\n        _beforeTokenTransfer(address(0x0), issuer, amount);\r\n        _mint(issuer, amount);\r\n        holders.push(issuer);\r\n        holderIndex[issuer]=holders.length;\r\n        emit Mint(issuer, amount);\r\n    }\r\n\r\n    function transferToken(address transferor, address transferee, uint256 amount) external onlyOwner{\r\n        _beforeTokenTransfer(transferor, transferee, amount);\r\n        _transfer(transferor, transferee, amount);\r\n        if(holderIndex[transferee]==0){\r\n            holders.push(transferee);\r\n            holderIndex[transferee]=holders.length;\r\n        }\r\n    }\r\n\r\n    function whiteList(address spender, uint256 amount) onlyWhiteListed(_msgSender(), amount) external {\r\n        require(paused == false, \"Contract paused\");\r\n        whitelisted[spender] = amount;\r\n    }\r\n\r\n    //can be used by primary and secondary issue manager contracts. These whitelisted contracts can also be frozen by the issuer.\r\n    function transfer(address recipient, uint256 amount) onlyWhiteListed(_msgSender(), amount) public returns (bool) {\r\n        require(paused == false, \"Contract paused\");\r\n        require(balanceOf(_msgSender()).sub(amount) >= froze[_msgSender()], \"Funds transfer frozen\");\r\n        _beforeTokenTransfer(_msgSender(), recipient, amount);\r\n        _transfer(_msgSender(), recipient, amount);\r\n        if(holderIndex[recipient]==0){\r\n            holders.push(recipient);\r\n            holderIndex[recipient]=holders.length;\r\n        }\r\n        return true;\r\n    }\r\n\r\n    //called by user wallets to approve vaults to transfer tokens from them to the vault. \r\n    //Vaults need to be whitelisted by primary and secondary issue managers.\r\n    function approve(address spender, uint256 amount) onlyWhiteListed(spender, amount) public returns (bool) {\r\n        require(paused == false, \"Contract paused\");\r\n        _approve(_msgSender(), spender, amount);\r\n        return true;\r\n    }\r\n\r\n    //can be used by primary and secondary issue manager contracts, as well as vaults to swap tokens from user wallets that have approved the vault.\r\n    function transferFrom(address sender, address recipient, uint256 amount) public onlyWhiteListed(_msgSender(), amount) returns (bool) {\r\n        require(paused == false, \"Contract paused\");\r\n        require(balanceOf(sender).sub(amount) >= froze[sender], \"Funds transfer frozen\");\r\n        _beforeTokenTransfer(sender, recipient, amount);\r\n        _transfer(sender, recipient, amount);\r\n        _approve(sender, _msgSender(), allowance(sender, _msgSender()).sub(amount, \"ERC20: transfer amount exceeds allowance\"));\r\n        if(holderIndex[recipient]==0){\r\n            holders.push(recipient);\r\n            holderIndex[recipient]=holders.length;\r\n        }\r\n        return true;\r\n    }\r\n\r\n    function increaseAllowance(address spender, uint256 addedValue) public returns (bool) {\r\n        require(paused == false, \"Contract paused\");\r\n        _approve(_msgSender(), spender, allowance(spender, _msgSender()).add(addedValue));\r\n        return true;\r\n    }\r\n\r\n    function decreaseAllowance(address spender, uint256 subtractedValue) public returns (bool) {\r\n        require(paused == false, \"Contract paused\");\r\n        _approve(_msgSender(), spender, allowance(spender, _msgSender()).sub(subtractedValue, \"ERC20: decreased allowance below zero\"));\r\n        return true;\r\n    }\r\n\r\n    function freeze(address holder, uint256 amount) public onlyIssueManager(_msgSender()) {\r\n        require(paused == false, \"Contract paused\");\r\n        froze[holder] = amount;\r\n        emit Freeze(_msgSender(), holder);\r\n    }\r\n\r\n    function unfreeze(address holder) public onlyIssueManager(_msgSender()) {\r\n        require(paused == false, \"Contract paused\");\r\n        froze[holder] = 0;\r\n        emit Unfreeze(_msgSender(), holder);\r\n    }\r\n\r\n    function frozen(address account) public view returns (uint256) {\r\n        require(paused == false, \"Contract paused\");\r\n        return froze[account];\r\n    }\r\n\r\n    function burn(address holder, uint256 amount) public onlyIssueManager(_msgSender()) {\r\n        require(paused == false, \"Contract paused\");\r\n        _beforeTokenTransfer(holder, address(0x0), amount);\r\n        _burn(holder, amount);       \r\n        emit Burn(holder, amount); \r\n    }\r\n\r\n    function burnAll() public onlyIssueManager(_msgSender()) {\r\n        require(paused == false, \"Contract paused\");\r\n        for(uint256 i=0; i<holders.length; i++){\r\n            _beforeTokenTransfer(holders[i], address(0x0), balanceOf(holders[i]));\r\n            _burn(holders[i], balanceOf(holders[i]));\r\n        }    \r\n    }\r\n\r\n    function scheduleSnapshot(uint256 time) public onlyIssueManager(_msgSender()) {\r\n        require(paused == false, \"Contract paused\");\r\n        _scheduleSnapshot(time);\r\n    }\r\n\r\n    function rescheduleSnapshot(uint256 oldTime, uint256 newTime) public onlyIssueManager(_msgSender()) {\r\n        require(paused == false, \"Contract paused\");\r\n        _rescheduleSnapshot(oldTime, newTime);\r\n    }\r\n\r\n    function unscheduleSnapshot(uint256 time) public onlyIssueManager(_msgSender()) {\r\n        require(paused == false, \"Contract paused\");\r\n        _unscheduleSnapshot(time);\r\n    }\r\n\r\n    function createResolution(uint256 time, bool votes, string memory ipfsLink) public onlyIssueManager(_msgSender()) {\r\n        require(paused == false, \"Contract paused\");\r\n        _createResolution(time, votes, ipfsLink);\r\n    }\r\n    \r\n    function countVotes(uint256 time) public view onlyIssueManager(_msgSender()) returns(uint256 total, uint256 yes){\r\n        require(paused == false, \"Contract paused\");\r\n        uint256 voteCount = 0;\r\n        uint256 totalCount = 0;\r\n        if(keccak256(abi.encodePacked(resolutions[time])) != keccak256(abi.encodePacked(\"\"))){\r\n            if(voting[resolutions[time]]==true){                \r\n                for(uint256 i=0; i<holders.length; i++){\r\n                    if(snapshotBalanceOf(time, holders[i])>0){\r\n                        totalCount = totalCount + 1;\r\n                        if(votes[time][holders[i]]==true)\r\n                            voteCount = voteCount + 1;\r\n                    }\r\n                }\r\n            }\r\n        }\r\n        return (totalCount, voteCount);       \r\n    } \r\n\r\n    function payoutProrata(uint256 time, address wallet, address token, uint256 amount) public onlyIssueManagerOrCustodian(_msgSender()) {\r\n        require(paused == false, \"Contract paused\");\r\n        require(snapshotTotalSupply(time)>0, \"No scheduled snapshot found\");\r\n        require(ERC20(token).balanceOf(wallet) >= amount, \"Insufficient balance\");\r\n        require(token!=address(0x0) && wallet!=address(0x0) && amount>0, \"Invalid distribution\");\r\n        uint256 totalHoldings = snapshotTotalSupply(time);\r\n        for(uint256 i=0; i<holders.length; i++){\r\n            uint256 holding = snapshotBalanceOf(time, holders[i]);\r\n            if(holding > 0){\r\n                uint256 prorata = SafeMath.mul(SafeMath.div(holding, totalHoldings), amount);\r\n                ERC20(token).transferFrom(wallet, holders[i], prorata);\r\n                distributions[time][holders[i]].token = token;\r\n                distributions[time][holders[i]].amount = prorata;\r\n            }\r\n        }\r\n    }\r\n\r\n    function payout(uint256 time, address holder, address wallet, address token, uint256 amount) public onlyIssueManagerOrCustodian(_msgSender()) {\r\n        require(paused == false, \"Contract paused\");\r\n        require(snapshotTotalSupply(time)>0, \"No scheduled snapshot found\");\r\n        require(ERC20(token).balanceOf(wallet) >= amount, \"Insufficient balance\");\r\n        require(snapshotBalanceOf(time, holder)>0, \"Not a security token holder\");\r\n        require(token!=address(0x0) && wallet!=address(0x0) && amount>0, \"Invalid distribution\");\r\n        ERC20(token).transferFrom(wallet, holder, amount);\r\n        distributions[time][holder].token = token;\r\n        distributions[time][holder].amount = amount;\r\n    }\r\n\r\n    function pause() public onlyIssueManager(_msgSender()){\r\n        _pause();\r\n    }\r\n\r\n    function unpause() public onlyIssueManager(_msgSender()){\r\n        _unpause();\r\n    }\r\n\r\n}\r\n\r\n",
  "sourcePath": "D:\\Code\\verified-securities\\contracts\\Security.sol",
  "compiler": {
    "name": "solc",
    "version": "0.5.7+commit.6da8b019.Emscripten.clang"
  },
  "schemaVersion": "3.4.3",
  "updatedAt": "2023-04-20T00:07:18.074Z",
  "networkType": "ethereum",
  "devdoc": {
    "methods": {
      "allowance(address,address)": {
        "details": "See {IERC20-allowance}."
      },
      "balanceOf(address)": {
        "details": "See {IERC20-balanceOf}."
      },
      "initialize(address)": {
        "details": "Initializes the contract setting the deployer as the initial owner."
      },
      "initialize(bytes32,bytes32,address,address,address)": {
        "details": "Sets the values for {name} and {symbol}.\r      * The default value of {decimals} is 18. To select a different value for\r {decimals} you should overload it.\r      * All two of these values are immutable: they can only be set once during\r construction.\r"
      },
      "isOwner()": {
        "details": "Returns true if the caller is the current owner."
      },
      "isPaused()": {
        "return": "True: contract is paused\rFalse: contract is not paused\r"
      },
      "name()": {
        "details": "Returns the name of the token.\r"
      },
      "owner()": {
        "details": "Returns the address of the current owner."
      },
      "renounceOwnership()": {
        "details": "Leaves the contract without owner. It will not be possible to call `onlyOwner` functions anymore. Can only be called by the current owner.     * > Note: Renouncing ownership will leave the contract without an owner, thereby removing any functionality that is only available to the owner."
      },
      "symbol()": {
        "details": "Returns the symbol of the token, usually a shorter version of the\r name.\r"
      },
      "totalSupply()": {
        "details": "See {IERC20-totalSupply}."
      },
      "transferOwnership(address)": {
        "details": "Transfers ownership of the contract to a new account (`newOwner`). Can only be called by the current owner."
      }
    }
  },
  "userdoc": {
    "methods": {
      "decimals()": {
        "notice": "Securities are indivisible, so returning decimal 0\r"
      },
      "isPaused()": {
        "notice": "returns whether or not the contract is paused\r"
      }
    }
  }
}