{
  "contractName": "SecuritiesFactory",
  "abi": [
    {
      "constant": true,
      "inputs": [
        {
          "name": "_salt",
          "type": "uint256"
        },
        {
          "name": "_logic",
          "type": "address"
        },
        {
          "name": "_admin",
          "type": "address"
        },
        {
          "name": "_data",
          "type": "bytes"
        },
        {
          "name": "_signature",
          "type": "bytes"
        }
      ],
      "name": "getSigner",
      "outputs": [
        {
          "name": "",
          "type": "address"
        }
      ],
      "payable": false,
      "stateMutability": "view",
      "type": "function"
    },
    {
      "constant": false,
      "inputs": [
        {
          "name": "_salt",
          "type": "uint256"
        },
        {
          "name": "_logic",
          "type": "address"
        },
        {
          "name": "_admin",
          "type": "address"
        },
        {
          "name": "_data",
          "type": "bytes"
        },
        {
          "name": "_signature",
          "type": "bytes"
        }
      ],
      "name": "deploySigned",
      "outputs": [
        {
          "name": "",
          "type": "address"
        }
      ],
      "payable": false,
      "stateMutability": "nonpayable",
      "type": "function"
    },
    {
      "constant": false,
      "inputs": [
        {
          "name": "_salt",
          "type": "uint256"
        },
        {
          "name": "_logic",
          "type": "address"
        },
        {
          "name": "_admin",
          "type": "address"
        },
        {
          "name": "_data",
          "type": "bytes"
        }
      ],
      "name": "deploy",
      "outputs": [
        {
          "name": "",
          "type": "address"
        }
      ],
      "payable": false,
      "stateMutability": "nonpayable",
      "type": "function"
    },
    {
      "constant": false,
      "inputs": [],
      "name": "renounceOwnership",
      "outputs": [],
      "payable": false,
      "stateMutability": "nonpayable",
      "type": "function"
    },
    {
      "constant": true,
      "inputs": [
        {
          "name": "_salt",
          "type": "uint256"
        },
        {
          "name": "_sender",
          "type": "address"
        }
      ],
      "name": "getDeploymentAddress",
      "outputs": [
        {
          "name": "",
          "type": "address"
        }
      ],
      "payable": false,
      "stateMutability": "view",
      "type": "function"
    },
    {
      "constant": true,
      "inputs": [],
      "name": "owner",
      "outputs": [
        {
          "name": "",
          "type": "address"
        }
      ],
      "payable": false,
      "stateMutability": "view",
      "type": "function"
    },
    {
      "constant": true,
      "inputs": [],
      "name": "isOwner",
      "outputs": [
        {
          "name": "",
          "type": "bool"
        }
      ],
      "payable": false,
      "stateMutability": "view",
      "type": "function"
    },
    {
      "constant": false,
      "inputs": [
        {
          "name": "_logic",
          "type": "address"
        },
        {
          "name": "_data",
          "type": "bytes"
        }
      ],
      "name": "deployMinimal",
      "outputs": [
        {
          "name": "proxy",
          "type": "address"
        }
      ],
      "payable": false,
      "stateMutability": "nonpayable",
      "type": "function"
    },
    {
      "constant": false,
      "inputs": [
        {
          "name": "newOwner",
          "type": "address"
        }
      ],
      "name": "transferOwnership",
      "outputs": [],
      "payable": false,
      "stateMutability": "nonpayable",
      "type": "function"
    },
    {
      "anonymous": false,
      "inputs": [
        {
          "indexed": true,
          "name": "security",
          "type": "address"
        },
        {
          "indexed": false,
          "name": "productCategory",
          "type": "bytes32"
        },
        {
          "indexed": false,
          "name": "issuer",
          "type": "address"
        },
        {
          "indexed": false,
          "name": "isin",
          "type": "bytes32"
        },
        {
          "indexed": false,
          "name": "currency",
          "type": "address"
        },
        {
          "indexed": false,
          "name": "restricted",
          "type": "bool"
        },
        {
          "indexed": false,
          "name": "issueManager",
          "type": "address"
        },
        {
          "indexed": false,
          "name": "restrictions",
          "type": "bytes32[]"
        },
        {
          "indexed": false,
          "name": "country",
          "type": "bytes32"
        }
      ],
      "name": "securitiesAdded",
      "type": "event"
    },
    {
      "anonymous": false,
      "inputs": [
        {
          "indexed": true,
          "name": "previousOwner",
          "type": "address"
        },
        {
          "indexed": true,
          "name": "newOwner",
          "type": "address"
        }
      ],
      "name": "OwnershipTransferred",
      "type": "event"
    },
    {
      "anonymous": false,
      "inputs": [
        {
          "indexed": false,
          "name": "proxy",
          "type": "address"
        }
      ],
      "name": "ProxyCreated",
      "type": "event"
    },
    {
      "constant": false,
      "inputs": [
        {
          "name": "_security",
          "type": "address"
        },
        {
          "name": "_bridge",
          "type": "address"
        },
        {
          "name": "_client",
          "type": "address"
        }
      ],
      "name": "initialize",
      "outputs": [],
      "payable": false,
      "stateMutability": "nonpayable",
      "type": "function"
    },
    {
      "constant": false,
      "inputs": [
        {
          "name": "sender",
          "type": "address"
        }
      ],
      "name": "initialize",
      "outputs": [],
      "payable": false,
      "stateMutability": "nonpayable",
      "type": "function"
    },
    {
      "constant": false,
      "inputs": [
        {
          "name": "_signer",
          "type": "address"
        }
      ],
      "name": "setSigner",
      "outputs": [],
      "payable": false,
      "stateMutability": "nonpayable",
      "type": "function"
    },
    {
      "constant": true,
      "inputs": [],
      "name": "getIssues",
      "outputs": [
        {
          "name": "",
          "type": "address[]"
        }
      ],
      "payable": false,
      "stateMutability": "view",
      "type": "function"
    },
    {
      "constant": false,
      "inputs": [
        {
          "name": "security",
          "type": "address"
        },
        {
          "name": "productCategory",
          "type": "bytes32"
        },
        {
          "name": "company",
          "type": "bytes32"
        },
        {
          "name": "isin",
          "type": "bytes32"
        },
        {
          "name": "currency",
          "type": "address"
        },
        {
          "name": "issuer",
          "type": "address"
        },
        {
          "name": "intermediary",
          "type": "address"
        },
        {
          "name": "encodedRestrictions",
          "type": "bytes"
        },
        {
          "name": "country",
          "type": "bytes32"
        },
        {
          "name": "qualified",
          "type": "bool"
        }
      ],
      "name": "issueSecurity",
      "outputs": [],
      "payable": false,
      "stateMutability": "nonpayable",
      "type": "function"
    },
    {
      "constant": true,
      "inputs": [
        {
          "name": "_securityToken",
          "type": "address"
        }
      ],
      "name": "getHolder",
      "outputs": [
        {
          "name": "",
          "type": "address"
        }
      ],
      "payable": false,
      "stateMutability": "view",
      "type": "function"
    },
    {
      "constant": true,
      "inputs": [
        {
          "name": "_securityToken",
          "type": "address"
        }
      ],
      "name": "getSecurity",
      "outputs": [
        {
          "name": "",
          "type": "address"
        }
      ],
      "payable": false,
      "stateMutability": "view",
      "type": "function"
    },
    {
      "constant": true,
      "inputs": [
        {
          "name": "_securityToken",
          "type": "address"
        },
        {
          "name": "_issuer",
          "type": "address"
        }
      ],
      "name": "getSecurityToken",
      "outputs": [
        {
          "name": "",
          "type": "address"
        },
        {
          "name": "",
          "type": "bytes32"
        },
        {
          "name": "",
          "type": "bytes32"
        },
        {
          "name": "",
          "type": "address"
        },
        {
          "name": "",
          "type": "bool"
        }
      ],
      "payable": false,
      "stateMutability": "view",
      "type": "function"
    },
    {
      "constant": false,
      "inputs": [
        {
          "name": "security",
          "type": "address"
        },
        {
          "name": "transferor",
          "type": "address"
        },
        {
          "name": "transferee",
          "type": "address"
        },
        {
          "name": "amount",
          "type": "uint256"
        }
      ],
      "name": "addBalance",
      "outputs": [],
      "payable": false,
      "stateMutability": "nonpayable",
      "type": "function"
    },
    {
      "constant": true,
      "inputs": [
        {
          "name": "issue",
          "type": "address"
        }
      ],
      "name": "checkProduct",
      "outputs": [
        {
          "name": "",
          "type": "bool"
        }
      ],
      "payable": false,
      "stateMutability": "view",
      "type": "function"
    },
    {
      "constant": false,
      "inputs": [
        {
          "name": "_securityToken",
          "type": "address"
        },
        {
          "name": "_issuer",
          "type": "address"
        },
        {
          "name": "_custodian",
          "type": "address"
        }
      ],
      "name": "setCustodian",
      "outputs": [],
      "payable": false,
      "stateMutability": "nonpayable",
      "type": "function"
    },
    {
      "constant": true,
      "inputs": [
        {
          "name": "_securityToken",
          "type": "address"
        },
        {
          "name": "_issuer",
          "type": "address"
        }
      ],
      "name": "getCustodian",
      "outputs": [
        {
          "name": "",
          "type": "address"
        }
      ],
      "payable": false,
      "stateMutability": "view",
      "type": "function"
    },
    {
      "constant": false,
      "inputs": [
        {
          "name": "_security",
          "type": "address"
        },
        {
          "name": "_countries",
          "type": "bytes32[]"
        }
      ],
      "name": "restrictCountry",
      "outputs": [],
      "payable": false,
      "stateMutability": "nonpayable",
      "type": "function"
    },
    {
      "constant": true,
      "inputs": [
        {
          "name": "_security",
          "type": "address"
        }
      ],
      "name": "getRestrictedCountries",
      "outputs": [
        {
          "name": "",
          "type": "bytes32[]"
        }
      ],
      "payable": false,
      "stateMutability": "view",
      "type": "function"
    },
    {
      "constant": true,
      "inputs": [
        {
          "name": "_securityToken",
          "type": "address"
        }
      ],
      "name": "getDP",
      "outputs": [
        {
          "name": "",
          "type": "address"
        }
      ],
      "payable": false,
      "stateMutability": "view",
      "type": "function"
    }
  ],
  "bytecode": "0x6080604081905261001060a0610034565b601f1982820381018352601f90910116604052805160209190910120600055610041565b6109a680612cff83390190565b612caf806100506000396000f3fe608060405234801561001057600080fd5b50600436106101585760003560e01c806381ae1f5b116100c3578063c0c53b8b1161007c578063c0c53b8b146108da578063c4d66de814610912578063c8748aa514610938578063cd75c7d414610966578063e0a87de11461098c578063f2fde38b146109b257610158565b806381ae1f5b146107885780638da5cb5b146107b45780638f32d59b146107bc578063a7428f33146107c4578063b3eeb5e214610800578063c07415f4146108b457610158565b80635e7e8388116101155780635e7e83881461052c5780635ee84984146105e05780636150864c146106185780636601b975146106dc5780636c19e7831461075a578063715018a61461078057610158565b8063290f8f561461015d578063332d6626146102c25780633d07d20b1461040b5780633ea6c82d146104745780634434f973146104ae5780634a161b2714610506575b600080fd5b6102a6600480360360a081101561017357600080fd5b8135916001600160a01b03602082013581169260408301359091169190810190608081016060820135600160201b8111156101ad57600080fd5b8201836020820111156101bf57600080fd5b803590602001918460018302840111600160201b831117156101e057600080fd5b91908080601f0160208091040260200160405190810160405280939291908181526020018383808284376000920191909152509295949360208101935035915050600160201b81111561023257600080fd5b82018360208201111561024457600080fd5b803590602001918460018302840111600160201b8311171561026557600080fd5b91908080601f0160208091040260200160405190810160405280939291908181526020018383808284376000920191909152509295506109d8945050505050565b604080516001600160a01b039092168252519081900360200190f35b6102a6600480360360a08110156102d857600080fd5b8135916001600160a01b03602082013581169260408301359091169190810190608081016060820135600160201b81111561031257600080fd5b82018360208201111561032457600080fd5b803590602001918460018302840111600160201b8311171561034557600080fd5b91908080601f0160208091040260200160405190810160405280939291908181526020018383808284376000920191909152509295949360208101935035915050600160201b81111561039757600080fd5b8201836020820111156103a957600080fd5b803590602001918460018302840111600160201b831117156103ca57600080fd5b91908080601f016020809104026020016040519081016040528093929190818152602001838380828437600092019190915250929550610ac7945050505050565b6104396004803603604081101561042157600080fd5b506001600160a01b0381358116916020013516610b44565b604080516001600160a01b03968716815260208101959095528481019390935293166060830152911515608082015290519081900360a00190f35b61049a6004803603602081101561048a57600080fd5b50356001600160a01b0316610b8f565b604080519115158252519081900360200190f35b6104b6610be8565b60408051602080825283518183015283519192839290830191858101910280838360005b838110156104f25781810151838201526020016104da565b505050509050019250505060405180910390f35b6102a66004803603602081101561051c57600080fd5b50356001600160a01b0316610c4b565b6105de600480360361014081101561054357600080fd5b6001600160a01b038235811692602081013592604082013592606083013592608081013582169260a082013583169260c0830135169190810190610100810160e0820135600160201b81111561059857600080fd5b8201836020820111156105aa57600080fd5b803590602001918460018302840111600160201b831117156105cb57600080fd5b9193509150803590602001351515610c69565b005b6105de600480360360608110156105f657600080fd5b506001600160a01b038135811691602081013582169160409091013516611288565b6102a66004803603608081101561062e57600080fd5b8135916001600160a01b03602082013581169260408301359091169190810190608081016060820135600160201b81111561066857600080fd5b82018360208201111561067a57600080fd5b803590602001918460018302840111600160201b8311171561069b57600080fd5b91908080601f016020809104026020016040519081016040528093929190818152602001838380828437600092019190915250929550611439945050505050565b6105de600480360360408110156106f257600080fd5b6001600160a01b038235169190810190604081016020820135600160201b81111561071c57600080fd5b82018360208201111561072e57600080fd5b803590602001918460208302840111600160201b8311171561074f57600080fd5b509092509050611451565b6105de6004803603602081101561077057600080fd5b50356001600160a01b031661147a565b6105de6114f8565b6102a66004803603604081101561079e57600080fd5b50803590602001356001600160a01b031661159e565b6102a6611605565b61049a611614565b6105de600480360360808110156107da57600080fd5b506001600160a01b0381358116916020810135821691604082013516906060013561163a565b6102a66004803603604081101561081657600080fd5b6001600160a01b038235169190810190604081016020820135600160201b81111561084057600080fd5b82018360208201111561085257600080fd5b803590602001918460018302840111600160201b8311171561087357600080fd5b91908080601f01602080910402602001604051908101604052809392919081815260200183838082843760009201919091525092955061188f945050505050565b6104b6600480360360208110156108ca57600080fd5b50356001600160a01b03166119f0565b6105de600480360360608110156108f057600080fd5b506001600160a01b038135811691602081013582169160409091013516611a5c565b6105de6004803603602081101561092857600080fd5b50356001600160a01b0316611b48565b6102a66004803603604081101561094e57600080fd5b506001600160a01b0381358116916020013516611c3c565b6102a66004803603602081101561097c57600080fd5b50356001600160a01b0316611c69565b6102a6600480360360208110156109a257600080fd5b50356001600160a01b0316611c87565b6105de600480360360208110156109c857600080fd5b50356001600160a01b0316611cbc565b600080610ab0878787873060405160200180868152602001856001600160a01b03166001600160a01b031660601b8152601401846001600160a01b03166001600160a01b031660601b815260140183805190602001908083835b60208310610a515780518252601f199092019160209182019101610a32565b6001836020036101000a038019825116818451168082178552505050505050905001826001600160a01b03166001600160a01b031660601b81526014019550505050505060405160208183030381529060405280519060200120611d24565b9050610abc8184611d75565b979650505050505050565b600080610ad787878787876109d8565b90506001600160a01b038116610b375760408051600160e51b62461bcd02815260206004820152601160248201527f496e76616c6964207369676e6174757265000000000000000000000000000000604482015290519081900360640190fd5b610abc8787878785611e63565b6001600160a01b03918216600090815260686020908152604080832093851683529290522060068101546002820154600183015492548285169591941691600160a01b900460ff1690565b6001600160a01b038181166000908152606b6020526040812054909116151580610bd257506001600160a01b038281166000908152606a60205260409020541615155b15610bdf57506001610be3565b5060005b919050565b60606067805480602002602001604051908101604052809291908181526020018280548015610c4057602002820191906000526020600020905b81546001600160a01b03168152600190910190602001808311610c22575b505050505090505b90565b6001600160a01b039081166000908152606b60205260409020541690565b6001600160a01b0386163314610cc95760408051600160e51b62461bcd02815260206004820181905260248201527f556e617574686f72697a656420697373756572206f662073656375726974792e604482015290519081900360640190fd5b606084846020811015610cdb57600080fd5b810190602081018135600160201b811115610cf557600080fd5b820183602082011115610d0757600080fd5b803590602001918460208302840111600160201b83111715610d2857600080fd5b919080806020026020016040519081016040528093929190818152602001838360200280828437600081840152601f19601f820116905080830192505050505050509192919290505050905060608a8a308a606e60009054906101000a90046001600160a01b031660405160240180868152602001858152602001846001600160a01b03166001600160a01b03168152602001836001600160a01b03166001600160a01b03168152602001826001600160a01b03166001600160a01b0316815260200195505050505050604051602081830303815290604052600160e41b6304649977026001600160e01b0319166020820180516001600160e01b03838183161783525050505090506000610e52606c60009054906101000a90046001600160a01b03168361188f565b90508a60686000836001600160a01b03166001600160a01b0316815260200190815260200160002060008b6001600160a01b03166001600160a01b03168152602001908152602001600020600201819055508b60686000836001600160a01b03166001600160a01b0316815260200190815260200160002060008b6001600160a01b03166001600160a01b03168152602001908152602001600020600101819055508960686000836001600160a01b03166001600160a01b0316815260200190815260200160002060008b6001600160a01b03166001600160a01b0316815260200190815260200160002060000160006101000a8154816001600160a01b0302191690836001600160a01b031602179055508060686000836001600160a01b03166001600160a01b0316815260200190815260200160002060008b6001600160a01b03166001600160a01b0316815260200190815260200160002060060160006101000a8154816001600160a01b0302191690836001600160a01b031602179055508760686000836001600160a01b03166001600160a01b0316815260200190815260200160002060008b6001600160a01b03166001600160a01b0316815260200190815260200160002060050160006101000a8154816001600160a01b0302191690836001600160a01b031602179055508360686000836001600160a01b03166001600160a01b0316815260200190815260200160002060008b6001600160a01b03166001600160a01b0316815260200190815260200160002060060160146101000a81548160ff02191690831515021790555088606a6000836001600160a01b03166001600160a01b0316815260200190815260200160002060006101000a8154816001600160a01b0302191690836001600160a01b031602179055508d606b6000836001600160a01b03166001600160a01b0316815260200190815260200160002060006101000a8154816001600160a01b0302191690836001600160a01b0316021790555060678190806001815401808255809150509060018203906000526020600020016000909192909190916101000a8154816001600160a01b0302191690836001600160a01b0316021790555050806001600160a01b03167fac6540763c83abc16ddc03f9bba51ea8af0d61a3f55e915bfcd8717113027bdc8e8b8e8e898e8a8d60405180898152602001886001600160a01b03166001600160a01b03168152602001878152602001866001600160a01b03166001600160a01b0316815260200185151515158152602001846001600160a01b03166001600160a01b0316815260200180602001838152602001828103825284818151815260200191508051906020019060200280838360005b8381101561125e578181015183820152602001611246565b50505050905001995050505050505050505060405180910390a25050505050505050505050505050565b6001600160a01b038381166000908152606860209081526040808320606a835281842054851684529091529020600501541633146113105760408051600160e51b62461bcd02815260206004820152601a60248201527f496e636f727265637420637573746f6469616e20736574207570000000000000604482015290519081900360640190fd5b606e5460408051600160e01b63442767330281526001600160a01b03848116600483015291516000939290921691634427673391602480820192606092909190829003018186803b15801561136457600080fd5b505afa158015611378573d6000803e3d6000fd5b505050506040513d606081101561138e57600080fd5b50519050600160b91b6821bab9ba37b234b0b70281146113f85760408051600160e51b62461bcd02815260206004820152601160248201527f496e76616c696420637573746f6469616e000000000000000000000000000000604482015290519081900360640190fd5b506001600160a01b03928316600090815260686020908152604080832094861683529390529190912060040180546001600160a01b03191691909216179055565b60006114488585858533611e63565b95945050505050565b6001600160a01b0383166000908152606960205260409020611474908383612217565b50505050565b611482611614565b6114d65760408051600160e51b62461bcd02815260206004820181905260248201527f4f776e61626c653a2063616c6c6572206973206e6f7420746865206f776e6572604482015290519081900360640190fd5b606d80546001600160a01b0319166001600160a01b0392909216919091179055565b611500611614565b6115545760408051600160e51b62461bcd02815260206004820181905260248201527f4f776e61626c653a2063616c6c6572206973206e6f7420746865206f776e6572604482015290519081900360640190fd5b6034546040516000916001600160a01b0316907f8be0079c531659141344cd1fd0a4f28419497f9722a3daafe3b4186f6b6457e0908390a3603480546001600160a01b0319169055565b6000806115ab8484611f97565b600054604080516001600160f81b031960208083019190915230606090811b602184015260358301959095526055808301949094528251808303909401845260759091019091528151910120811b901c9150505b92915050565b6034546001600160a01b031690565b6034546000906001600160a01b031661162b611fd0565b6001600160a01b031614905090565b6001600160a01b038481166000908152606a60205260409020541633146116ab5760408051600160e51b62461bcd02815260206004820152601360248201527f556e617574686f72697a65642061636365737300000000000000000000000000604482015290519081900360640190fd5b6001600160a01b038316156117e4576001600160a01b038085166000908152606860209081526040808320938616835292905220600301546116ed9082611fd4565b6001600160a01b0385811660009081526068602090815260408083208785168452909152808220600390810194909455918616815220015461172f9082612038565b6001600160a01b03808616600081815260686020908152604080832089861680855281845282852060030197909755938352606a82528083205485168352929052818120600601548251600160e11b637aa9bf6f02815260048101959095528684166024860152604485018690529151919092169263f5537ede92606480830193919282900301818387803b1580156117c757600080fd5b505af11580156117db573d6000803e3d6000fd5b50505050611474565b6001600160a01b038085166000818152606860209081526040808320878616808552818452828520600301889055948452606a83528184205486168452909152808220600601548151600160e31b630f38ca0d02815260048101949094526024840186905290519316926379c6506892604480820193929182900301818387803b15801561187157600080fd5b505af1158015611885573d6000803e3d6000fd5b5050505050505050565b6000808360601b90506040517f3d602d80600a3d3981f3363d3d373d3d3d363d7300000000000000000000000081528160148201527f5af43d82803e903d91602b57fd5bf3000000000000000000000000000000000060288201526037816000f0604080516001600160a01b038316815290519194507efffc2da0b561cae30d9826d37709e9421c4725faebc226cbbb7ef5fc5e7349925081900360200190a18251156119e9576000826001600160a01b0316846040518082805190602001908083835b602083106119725780518252601f199092019160209182019101611953565b6001836020036101000a0380198251168184511680821785525050505050509050019150506000604051808303816000865af19150503d80600081146119d4576040519150601f19603f3d011682016040523d82523d6000602084013e6119d9565b606091505b50509050806119e757600080fd5b505b5092915050565b6001600160a01b038116600090815260696020908152604091829020805483518184028101840190945280845260609392830182828015611a5057602002820191906000526020600020905b815481526020019060010190808311611a3c575b50505050509050919050565b600154610100900460ff1680611a755750611a7561207a565b80611a83575060015460ff16155b611ac157604051600160e51b62461bcd02815260040180806020018281038252602e815260200180612c56602e913960400191505060405180910390fd5b600154610100900460ff16158015611aeb576001805460ff1961ff00199091166101001716811790555b611af433611b48565b606c80546001600160a01b038087166001600160a01b031992831617909255606d8054868416908316179055606e8054928516929091169190911790558015611474576001805461ff001916905550505050565b600154610100900460ff1680611b615750611b6161207a565b80611b6f575060015460ff16155b611bad57604051600160e51b62461bcd02815260040180806020018281038252602e815260200180612c56602e913960400191505060405180910390fd5b600154610100900460ff16158015611bd7576001805460ff1961ff00199091166101001716811790555b603480546001600160a01b0319166001600160a01b0384811691909117918290556040519116906000907f8be0079c531659141344cd1fd0a4f28419497f9722a3daafe3b4186f6b6457e0908290a38015611c38576001805461ff00191690555b5050565b6001600160a01b039182166000908152606860209081526040808320938516835292905220600401541690565b6001600160a01b039081166000908152606a60205260409020541690565b6001600160a01b039081166000908152606860209081526040808320606a835281842054851684529091529020600501541690565b611cc4611614565b611d185760408051600160e51b62461bcd02815260206004820181905260248201527f4f776e61626c653a2063616c6c6572206973206e6f7420746865206f776e6572604482015290519081900360640190fd5b611d2181612080565b50565b604080517f19457468657265756d205369676e6564204d6573736167653a0a333200000000602080830191909152603c8083019490945282518083039094018452605c909101909152815191012090565b60008151604114611d88575060006115ff565b60208201516040830151606084015160001a7f7fffffffffffffffffffffffffffffff5d576e7357a4501ddfe92f46681b20a0821115611dce57600093505050506115ff565b8060ff16601b14158015611de657508060ff16601c14155b15611df757600093505050506115ff565b6040805160008152602080820180845289905260ff8416828401526060820186905260808201859052915160019260a0808401939192601f1981019281900390910190855afa158015611e4e573d6000803e3d6000fd5b5050604051601f190151979650505050505050565b600080611e708784612124565b604080516001600160a01b038316815290519192507efffc2da0b561cae30d9826d37709e9421c4725faebc226cbbb7ef5fc5e7349919081900360200190a1604051600160e01b63cf7a1d770281526001600160a01b038781166004830190815287821660248401526060604484019081528751606485015287519285169363cf7a1d77938b938b938b939192909160840190602085019080838360005b83811015611f26578181015183820152602001611f0e565b50505050905090810190601f168015611f535780820380516001836020036101000a031916815260200191505b50945050505050600060405180830381600087803b158015611f7457600080fd5b505af1158015611f88573d6000803e3d6000fd5b50929998505050505050505050565b604080516020808201949094526001600160a01b039290921660601b828201528051808303603401815260549092019052805191012090565b3390565b6000828201838110156120315760408051600160e51b62461bcd02815260206004820152601b60248201527f536166654d6174683a206164646974696f6e206f766572666c6f770000000000604482015290519081900360640190fd5b9392505050565b600061203183836040518060400160405280601e81526020017f536166654d6174683a207375627472616374696f6e206f766572666c6f77000081525061217d565b303b1590565b6001600160a01b0381166120c857604051600160e51b62461bcd028152600401808060200182810382526026815260200180612c306026913960400191505060405180910390fd5b6034546040516001600160a01b038084169216907f8be0079c531659141344cd1fd0a4f28419497f9722a3daafe3b4186f6b6457e090600090a3603480546001600160a01b0319166001600160a01b0392909216919091179055565b60008060606040518060200161213990612262565b601f1982820381018352601f909101166040529050600061215a8686611f97565b9050808251602084016000f59250823b61217357600080fd5b5090949350505050565b6000818484111561220f57604051600160e51b62461bcd0281526004018080602001828103825283818151815260200191508051906020019080838360005b838110156121d45781810151838201526020016121bc565b50505050905090810190601f1680156122015780820380516001836020036101000a031916815260200191505b509250505060405180910390fd5b505050900390565b828054828255906000526020600020908101928215612252579160200282015b82811115612252578235825591602001919060010190612237565b5061225e92915061226f565b5090565b6109a68061228a83390190565b610c4891905b8082111561225e576000815560010161227556fe608060405234801561001057600080fd5b50610986806100206000396000f3fe6080604052600436106100705760003560e01c80638f2839701161004e5780638f2839701461015e578063cf7a1d7714610191578063d1f5789414610250578063f851a4401461030657610070565b80633659cfe61461007a5780634f1ef286146100ad5780635c60da1b1461012d575b61007861031b565b005b34801561008657600080fd5b506100786004803603602081101561009d57600080fd5b50356001600160a01b0316610335565b610078600480360360408110156100c357600080fd5b6001600160a01b0382351691908101906040810160208201356401000000008111156100ee57600080fd5b82018360208201111561010057600080fd5b8035906020019184600183028401116401000000008311171561012257600080fd5b50909250905061036f565b34801561013957600080fd5b5061014261041c565b604080516001600160a01b039092168252519081900360200190f35b34801561016a57600080fd5b506100786004803603602081101561018157600080fd5b50356001600160a01b0316610459565b610078600480360360608110156101a757600080fd5b6001600160a01b0382358116926020810135909116918101906060810160408201356401000000008111156101db57600080fd5b8201836020820111156101ed57600080fd5b8035906020019184600183028401116401000000008311171561020f57600080fd5b91908080601f016020809104026020016040519081016040528093929190818152602001838380828437600092019190915250929550610516945050505050565b6100786004803603604081101561026657600080fd5b6001600160a01b03823516919081019060408101602082013564010000000081111561029157600080fd5b8201836020820111156102a357600080fd5b803590602001918460018302840111640100000000831117156102c557600080fd5b91908080601f0160208091040260200160405190810160405280939291908181526020018383808284376000920191909152509295506105a6945050505050565b34801561031257600080fd5b506101426106e6565b610323610711565b61033361032e610774565b610799565b565b61033d6107bd565b6001600160a01b0316336001600160a01b031614156103645761035f816107e2565b61036c565b61036c61031b565b50565b6103776107bd565b6001600160a01b0316336001600160a01b0316141561040f57610399836107e2565b6000836001600160a01b031683836040518083838082843760405192019450600093509091505080830381855af49150503d80600081146103f6576040519150601f19603f3d011682016040523d82523d6000602084013e6103fb565b606091505b505090508061040957600080fd5b50610417565b61041761031b565b505050565b60006104266107bd565b6001600160a01b0316336001600160a01b0316141561044e57610447610774565b9050610456565b61045661031b565b90565b6104616107bd565b6001600160a01b0316336001600160a01b03161415610364576001600160a01b0381166104c257604051600160e51b62461bcd0281526004018080602001828103825260368152602001806108ea6036913960400191505060405180910390fd5b7f7e644d79422f17c01e4894b5f4f588d331ebfa28653d42ae832dc59e38c9798f6104eb6107bd565b604080516001600160a01b03928316815291841660208301528051918290030190a161035f81610822565b6000610520610774565b6001600160a01b03161461053357600080fd5b61053d83826105a6565b604080517f656970313936372e70726f78792e61646d696e00000000000000000000000000815290519081900360130190207fb53127684a568b3173ae13b9f8a6016e243e63b6e8ee1178d6a717850b5d61036000199091011461059d57fe5b61041782610822565b60006105b0610774565b6001600160a01b0316146105c357600080fd5b604080517f656970313936372e70726f78792e696d706c656d656e746174696f6e000000008152905190819003601c0190207f360894a13ba1a3210667c828492db98dca3e2076cc3735a920a3ca505d382bbc6000199091011461062357fe5b61062c82610846565b8051156106e2576000826001600160a01b0316826040518082805190602001908083835b6020831061066f5780518252601f199092019160209182019101610650565b6001836020036101000a038019825116818451168082178552505050505050905001915050600060405180830381855af49150503d80600081146106cf576040519150601f19603f3d011682016040523d82523d6000602084013e6106d4565b606091505b505090508061041757600080fd5b5050565b60006106f06107bd565b6001600160a01b0316336001600160a01b0316141561044e576104476107bd565b6107196107bd565b6001600160a01b0316336001600160a01b0316141561076c57604051600160e51b62461bcd0281526004018080602001828103825260328152602001806108b86032913960400191505060405180910390fd5b610333610333565b7f360894a13ba1a3210667c828492db98dca3e2076cc3735a920a3ca505d382bbc5490565b3660008037600080366000845af43d6000803e8080156107b8573d6000f35b3d6000fd5b7fb53127684a568b3173ae13b9f8a6016e243e63b6e8ee1178d6a717850b5d61035490565b6107eb81610846565b6040516001600160a01b038216907fbc7cd75a20ee27fd9adebab32041f755214dbc6bffa90cc0225b39da2e5c2d3b90600090a250565b7fb53127684a568b3173ae13b9f8a6016e243e63b6e8ee1178d6a717850b5d610355565b61084f816108b1565b61088d57604051600160e51b62461bcd02815260040180806020018281038252603b815260200180610920603b913960400191505060405180910390fd5b7f360894a13ba1a3210667c828492db98dca3e2076cc3735a920a3ca505d382bbc55565b3b15159056fe43616e6e6f742063616c6c2066616c6c6261636b2066756e6374696f6e2066726f6d207468652070726f78792061646d696e43616e6e6f74206368616e6765207468652061646d696e206f6620612070726f787920746f20746865207a65726f206164647265737343616e6e6f742073657420612070726f787920696d706c656d656e746174696f6e20746f2061206e6f6e2d636f6e74726163742061646472657373a165627a7a72305820acd86240912c703ba88ccefef3db77e88d3507353c7c194b0b27eed571ae96c900294f776e61626c653a206e6577206f776e657220697320746865207a65726f2061646472657373436f6e747261637420696e7374616e63652068617320616c7265616479206265656e20696e697469616c697a6564a165627a7a723058206dc3e228229de6c50bf78d43b1c80411dc729806bff90631389b6e21d6cb2c490029608060405234801561001057600080fd5b50610986806100206000396000f3fe6080604052600436106100705760003560e01c80638f2839701161004e5780638f2839701461015e578063cf7a1d7714610191578063d1f5789414610250578063f851a4401461030657610070565b80633659cfe61461007a5780634f1ef286146100ad5780635c60da1b1461012d575b61007861031b565b005b34801561008657600080fd5b506100786004803603602081101561009d57600080fd5b50356001600160a01b0316610335565b610078600480360360408110156100c357600080fd5b6001600160a01b0382351691908101906040810160208201356401000000008111156100ee57600080fd5b82018360208201111561010057600080fd5b8035906020019184600183028401116401000000008311171561012257600080fd5b50909250905061036f565b34801561013957600080fd5b5061014261041c565b604080516001600160a01b039092168252519081900360200190f35b34801561016a57600080fd5b506100786004803603602081101561018157600080fd5b50356001600160a01b0316610459565b610078600480360360608110156101a757600080fd5b6001600160a01b0382358116926020810135909116918101906060810160408201356401000000008111156101db57600080fd5b8201836020820111156101ed57600080fd5b8035906020019184600183028401116401000000008311171561020f57600080fd5b91908080601f016020809104026020016040519081016040528093929190818152602001838380828437600092019190915250929550610516945050505050565b6100786004803603604081101561026657600080fd5b6001600160a01b03823516919081019060408101602082013564010000000081111561029157600080fd5b8201836020820111156102a357600080fd5b803590602001918460018302840111640100000000831117156102c557600080fd5b91908080601f0160208091040260200160405190810160405280939291908181526020018383808284376000920191909152509295506105a6945050505050565b34801561031257600080fd5b506101426106e6565b610323610711565b61033361032e610774565b610799565b565b61033d6107bd565b6001600160a01b0316336001600160a01b031614156103645761035f816107e2565b61036c565b61036c61031b565b50565b6103776107bd565b6001600160a01b0316336001600160a01b0316141561040f57610399836107e2565b6000836001600160a01b031683836040518083838082843760405192019450600093509091505080830381855af49150503d80600081146103f6576040519150601f19603f3d011682016040523d82523d6000602084013e6103fb565b606091505b505090508061040957600080fd5b50610417565b61041761031b565b505050565b60006104266107bd565b6001600160a01b0316336001600160a01b0316141561044e57610447610774565b9050610456565b61045661031b565b90565b6104616107bd565b6001600160a01b0316336001600160a01b03161415610364576001600160a01b0381166104c257604051600160e51b62461bcd0281526004018080602001828103825260368152602001806108ea6036913960400191505060405180910390fd5b7f7e644d79422f17c01e4894b5f4f588d331ebfa28653d42ae832dc59e38c9798f6104eb6107bd565b604080516001600160a01b03928316815291841660208301528051918290030190a161035f81610822565b6000610520610774565b6001600160a01b03161461053357600080fd5b61053d83826105a6565b604080517f656970313936372e70726f78792e61646d696e00000000000000000000000000815290519081900360130190207fb53127684a568b3173ae13b9f8a6016e243e63b6e8ee1178d6a717850b5d61036000199091011461059d57fe5b61041782610822565b60006105b0610774565b6001600160a01b0316146105c357600080fd5b604080517f656970313936372e70726f78792e696d706c656d656e746174696f6e000000008152905190819003601c0190207f360894a13ba1a3210667c828492db98dca3e2076cc3735a920a3ca505d382bbc6000199091011461062357fe5b61062c82610846565b8051156106e2576000826001600160a01b0316826040518082805190602001908083835b6020831061066f5780518252601f199092019160209182019101610650565b6001836020036101000a038019825116818451168082178552505050505050905001915050600060405180830381855af49150503d80600081146106cf576040519150601f19603f3d011682016040523d82523d6000602084013e6106d4565b606091505b505090508061041757600080fd5b5050565b60006106f06107bd565b6001600160a01b0316336001600160a01b0316141561044e576104476107bd565b6107196107bd565b6001600160a01b0316336001600160a01b0316141561076c57604051600160e51b62461bcd0281526004018080602001828103825260328152602001806108b86032913960400191505060405180910390fd5b610333610333565b7f360894a13ba1a3210667c828492db98dca3e2076cc3735a920a3ca505d382bbc5490565b3660008037600080366000845af43d6000803e8080156107b8573d6000f35b3d6000fd5b7fb53127684a568b3173ae13b9f8a6016e243e63b6e8ee1178d6a717850b5d61035490565b6107eb81610846565b6040516001600160a01b038216907fbc7cd75a20ee27fd9adebab32041f755214dbc6bffa90cc0225b39da2e5c2d3b90600090a250565b7fb53127684a568b3173ae13b9f8a6016e243e63b6e8ee1178d6a717850b5d610355565b61084f816108b1565b61088d57604051600160e51b62461bcd02815260040180806020018281038252603b815260200180610920603b913960400191505060405180910390fd5b7f360894a13ba1a3210667c828492db98dca3e2076cc3735a920a3ca505d382bbc55565b3b15159056fe43616e6e6f742063616c6c2066616c6c6261636b2066756e6374696f6e2066726f6d207468652070726f78792061646d696e43616e6e6f74206368616e6765207468652061646d696e206f6620612070726f787920746f20746865207a65726f206164647265737343616e6e6f742073657420612070726f787920696d706c656d656e746174696f6e20746f2061206e6f6e2d636f6e74726163742061646472657373a165627a7a72305820acd86240912c703ba88ccefef3db77e88d3507353c7c194b0b27eed571ae96c90029",
  "source": "// Factory for Verified cash and bond tokens\r\n// (c) Kallol Borah, 2021\r\n\r\npragma solidity 0.5.7;\r\n\r\nimport \"./interfaces/IFactory.sol\";\r\nimport \"./interfaces/ISecurity.sol\";\r\nimport \"./interfaces/VerifiedClient.sol\";\r\nimport \"@openzeppelin/upgrades/contracts/Initializable.sol\";\r\nimport \"@openzeppelin/upgrades/contracts/upgradeability/ProxyFactory.sol\";\r\nimport \"@openzeppelin/contracts-ethereum-package/contracts/math/SafeMath.sol\";\r\nimport \"@openzeppelin/contracts-ethereum-package/contracts/ownership/Ownable.sol\";\r\nimport \"@openzeppelin/contracts-ethereum-package/contracts/token/ERC20/ERC20.sol\";\r\n\r\ncontract SecuritiesFactory is IFactory, ProxyFactory, Initializable, Ownable{\r\n\r\n    //events\r\n    event securitiesAdded(address indexed security, bytes32 productCategory, address issuer, bytes32 isin, address currency, bool restricted, address issueManager, bytes32[] restrictions, bytes32 country);\r\n\r\n    struct securities{\r\n        address currency;\r\n        bytes32 company;\r\n        bytes32 isin;\r\n        uint256 amount;\r\n        address custodian;\r\n        address dp;\r\n        address token;\r\n        bool    qualified;\r\n    }\r\n\r\n    address[] private issues;\r\n\r\n    //mapping security to holder to securities struct\r\n    mapping(address => mapping(address => securities)) private securitiesHoldings;\r\n\r\n    //mapping security to restricted countries\r\n    mapping(address => bytes32[]) private countries;\r\n\r\n    //mapping security to issuer\r\n    mapping(address => address) private holders;\r\n    mapping(address => address) private securityTokens;\r\n\r\n    address private securityAddress;\r\n\r\n    address private bridge;\r\n    address private client;\r\n\r\n    modifier onlySigner(bytes32 _hashedMessage, uint8 _v, bytes32 _r, bytes32 _s){\r\n        bytes32 payloadHash = keccak256(abi.encode(_hashedMessage, \"L2toL1\"));\r\n        bytes32 messageHash = keccak256(abi.encodePacked(\"\\x19Ethereum Signed Message:\\n32\", payloadHash));\r\n        require(ecrecover(messageHash, _v, _r, _s)== bridge, \"Unauthorized message sender\");\r\n        _;\r\n    }\r\n\r\n    function initialize(address _security, address _bridge, address _client) public initializer{\r\n        Ownable.initialize(msg.sender);\r\n        securityAddress = _security;\r\n        bridge = _bridge;\r\n        client = _client;\r\n    }\r\n\r\n    function setSigner(address _signer) external onlyOwner{\r\n        bridge = _signer;\r\n    }\r\n\r\n    function getIssues() external view returns(address[] memory){\r\n        return issues;\r\n    }\r\n\r\n    function issueSecurity(address security, bytes32 productCategory, bytes32 company, bytes32 isin, address currency, address issuer, address intermediary, bytes calldata encodedRestrictions, bytes32 country, bool qualified) \r\n                            external {  \r\n        require(issuer==msg.sender, \"Unauthorized issuer of security.\");\r\n        (bytes32[] memory restrictions) = abi.decode(encodedRestrictions, (bytes32[]));\r\n        bytes memory _payload = abi.encodeWithSignature(\"initialize(bytes32,bytes32,address,address,address)\", company, isin, address(this), issuer, client);\r\n        // Deploy proxy\r\n        address _securityToken = deployMinimal(securityAddress, _payload);\r\n\r\n        securitiesHoldings[_securityToken][issuer].isin= isin;\r\n        securitiesHoldings[_securityToken][issuer].company = company;\r\n        securitiesHoldings[_securityToken][issuer].currency= currency;\r\n        securitiesHoldings[_securityToken][issuer].token = _securityToken;\r\n        securitiesHoldings[_securityToken][issuer].dp = intermediary;\r\n        securitiesHoldings[_securityToken][issuer].qualified = qualified;\r\n\r\n        holders[_securityToken] = issuer;   \r\n        securityTokens[_securityToken] = security;\r\n        issues.push(_securityToken);\r\n\r\n        emit securitiesAdded(_securityToken, productCategory, issuer, isin, currency, qualified, intermediary, restrictions, country);\r\n    }\r\n\r\n    function getHolder(address _securityToken) external view returns(address){\r\n        return holders[_securityToken];\r\n    }\r\n\r\n    function getSecurity(address _securityToken) external view returns(address){\r\n        return securityTokens[_securityToken];\r\n    }\r\n\r\n    function getSecurityToken(address _securityToken, address _issuer) external view returns(address, bytes32, bytes32, address,bool){\r\n        return (securitiesHoldings[_securityToken][_issuer].token, \r\n                securitiesHoldings[_securityToken][_issuer].isin,\r\n                securitiesHoldings[_securityToken][_issuer].company,\r\n                securitiesHoldings[_securityToken][_issuer].currency,\r\n                securitiesHoldings[_securityToken][_issuer].qualified\r\n                );\r\n    }\r\n    \r\n    function addBalance(address security, address transferor, address transferee, uint256 amount) external {\r\n        require(holders[security]==msg.sender, \"Unauthorized access\");\r\n\r\n        if(transferor!=address(0x0)){\r\n            securitiesHoldings[security][transferee].amount= SafeMath.add(securitiesHoldings[security][transferee].amount, amount);\r\n            securitiesHoldings[security][transferor].amount= SafeMath.sub(securitiesHoldings[security][transferor].amount, amount);\r\n            ISecurity(securitiesHoldings[security][holders[security]].token).transferToken(transferor, transferee, amount);\r\n        } else {\r\n            securitiesHoldings[security][transferee].amount= amount;\r\n            ISecurity(securitiesHoldings[security][holders[security]].token).mintToken(transferee, amount);\r\n        }\r\n    }\r\n\r\n    function checkProduct(address issue) external view returns(bool){\r\n        if(securityTokens[issue]!=address(0x0) || holders[issue]!=address(0x0))\r\n            return true;\r\n        else\r\n            return false;\r\n    }\r\n\r\n    function setCustodian(address _securityToken, address _issuer, address _custodian) external {\r\n        require(msg.sender==securitiesHoldings[_securityToken][holders[_securityToken]].dp, \"Incorrect custodian set up\");\r\n        (bytes32 role, ,) = VerifiedClient(client).getRole(_custodian);\r\n        require(role==\"Custodian\", \"Invalid custodian\");\r\n        securitiesHoldings[_securityToken][_issuer].custodian = _custodian;\r\n    }\r\n\r\n    function getCustodian(address _securityToken, address _issuer) external view returns(address){        \r\n        return securitiesHoldings[_securityToken][_issuer].custodian;\r\n    }\r\n\r\n    function restrictCountry(address _security, bytes32[] calldata _countries) external{\r\n        countries[_security] = _countries;\r\n    }\r\n\r\n    function getRestrictedCountries(address _security) external view returns(bytes32[] memory){\r\n        return countries[_security];\r\n    }\r\n\r\n    function getDP(address _securityToken) external view returns(address){\r\n        return securitiesHoldings[_securityToken][holders[_securityToken]].dp;\r\n    }\r\n    \r\n}",
  "sourcePath": "D:\\Code\\verified-securities\\contracts\\SecuritiesFactory.sol",
  "compiler": {
    "name": "solc",
    "version": "0.5.7+commit.6da8b019.Emscripten.clang"
  },
  "schemaVersion": "3.4.3",
  "updatedAt": "2023-05-26T00:30:36.157Z",
  "networkType": "ethereum",
  "devdoc": {
    "methods": {
      "initialize(address)": {
        "details": "Initializes the contract setting the deployer as the initial owner."
      },
      "isOwner()": {
        "details": "Returns true if the caller is the current owner."
      },
      "owner()": {
        "details": "Returns the address of the current owner."
      },
      "renounceOwnership()": {
        "details": "Leaves the contract without owner. It will not be possible to call `onlyOwner` functions anymore. Can only be called by the current owner.     * > Note: Renouncing ownership will leave the contract without an owner, thereby removing any functionality that is only available to the owner."
      },
      "transferOwnership(address)": {
        "details": "Transfers ownership of the contract to a new account (`newOwner`). Can only be called by the current owner."
      }
    }
  },
  "userdoc": {
    "methods": {}
  }
}