{
  "contractName": "Security",
  "abi": [
    {
      "constant": true,
      "inputs": [],
      "name": "totalSupply",
      "outputs": [
        {
          "name": "",
          "type": "uint256"
        }
      ],
      "payable": false,
      "stateMutability": "view",
      "type": "function"
    },
    {
      "constant": true,
      "inputs": [
        {
          "name": "time",
          "type": "uint256"
        }
      ],
      "name": "getDistribution",
      "outputs": [
        {
          "name": "",
          "type": "address"
        },
        {
          "name": "",
          "type": "uint256"
        }
      ],
      "payable": false,
      "stateMutability": "view",
      "type": "function"
    },
    {
      "constant": true,
      "inputs": [
        {
          "name": "time",
          "type": "uint256"
        }
      ],
      "name": "snapshotTotalSupply",
      "outputs": [
        {
          "name": "",
          "type": "uint256"
        }
      ],
      "payable": false,
      "stateMutability": "view",
      "type": "function"
    },
    {
      "constant": true,
      "inputs": [
        {
          "name": "time",
          "type": "uint256"
        },
        {
          "name": "owner",
          "type": "address"
        }
      ],
      "name": "snapshotBalanceOf",
      "outputs": [
        {
          "name": "",
          "type": "uint256"
        }
      ],
      "payable": false,
      "stateMutability": "view",
      "type": "function"
    },
    {
      "constant": true,
      "inputs": [
        {
          "name": "account",
          "type": "address"
        }
      ],
      "name": "balanceOf",
      "outputs": [
        {
          "name": "",
          "type": "uint256"
        }
      ],
      "payable": false,
      "stateMutability": "view",
      "type": "function"
    },
    {
      "constant": false,
      "inputs": [],
      "name": "renounceOwnership",
      "outputs": [],
      "payable": false,
      "stateMutability": "nonpayable",
      "type": "function"
    },
    {
      "constant": true,
      "inputs": [],
      "name": "owner",
      "outputs": [
        {
          "name": "",
          "type": "address"
        }
      ],
      "payable": false,
      "stateMutability": "view",
      "type": "function"
    },
    {
      "constant": true,
      "inputs": [],
      "name": "isOwner",
      "outputs": [
        {
          "name": "",
          "type": "bool"
        }
      ],
      "payable": false,
      "stateMutability": "view",
      "type": "function"
    },
    {
      "constant": true,
      "inputs": [],
      "name": "isPaused",
      "outputs": [
        {
          "name": "",
          "type": "bool"
        }
      ],
      "payable": false,
      "stateMutability": "view",
      "type": "function"
    },
    {
      "constant": false,
      "inputs": [
        {
          "name": "time",
          "type": "uint256"
        },
        {
          "name": "ballot",
          "type": "bool"
        }
      ],
      "name": "vote",
      "outputs": [],
      "payable": false,
      "stateMutability": "nonpayable",
      "type": "function"
    },
    {
      "constant": true,
      "inputs": [
        {
          "name": "time",
          "type": "uint256"
        }
      ],
      "name": "getResolution",
      "outputs": [
        {
          "name": "",
          "type": "string"
        },
        {
          "name": "",
          "type": "bool"
        }
      ],
      "payable": false,
      "stateMutability": "view",
      "type": "function"
    },
    {
      "constant": true,
      "inputs": [
        {
          "name": "owner",
          "type": "address"
        },
        {
          "name": "spender",
          "type": "address"
        }
      ],
      "name": "allowance",
      "outputs": [
        {
          "name": "",
          "type": "uint256"
        }
      ],
      "payable": false,
      "stateMutability": "view",
      "type": "function"
    },
    {
      "constant": false,
      "inputs": [
        {
          "name": "newOwner",
          "type": "address"
        }
      ],
      "name": "transferOwnership",
      "outputs": [],
      "payable": false,
      "stateMutability": "nonpayable",
      "type": "function"
    },
    {
      "constant": true,
      "inputs": [],
      "name": "getNextSnapshots",
      "outputs": [
        {
          "name": "",
          "type": "uint256[]"
        }
      ],
      "payable": false,
      "stateMutability": "view",
      "type": "function"
    },
    {
      "anonymous": false,
      "inputs": [
        {
          "indexed": true,
          "name": "enforcer",
          "type": "address"
        },
        {
          "indexed": true,
          "name": "owner",
          "type": "address"
        }
      ],
      "name": "Freeze",
      "type": "event"
    },
    {
      "anonymous": false,
      "inputs": [
        {
          "indexed": true,
          "name": "enforcer",
          "type": "address"
        },
        {
          "indexed": true,
          "name": "owner",
          "type": "address"
        }
      ],
      "name": "Unfreeze",
      "type": "event"
    },
    {
      "anonymous": false,
      "inputs": [
        {
          "indexed": true,
          "name": "owner",
          "type": "address"
        },
        {
          "indexed": false,
          "name": "amount",
          "type": "uint256"
        }
      ],
      "name": "Burn",
      "type": "event"
    },
    {
      "anonymous": false,
      "inputs": [
        {
          "indexed": true,
          "name": "beneficiary",
          "type": "address"
        },
        {
          "indexed": false,
          "name": "amount",
          "type": "uint256"
        }
      ],
      "name": "Mint",
      "type": "event"
    },
    {
      "anonymous": false,
      "inputs": [
        {
          "indexed": true,
          "name": "security",
          "type": "address"
        },
        {
          "indexed": false,
          "name": "recordDate",
          "type": "uint256"
        },
        {
          "indexed": false,
          "name": "resolution",
          "type": "string"
        },
        {
          "indexed": false,
          "name": "voting",
          "type": "bool"
        }
      ],
      "name": "Resolution",
      "type": "event"
    },
    {
      "anonymous": false,
      "inputs": [
        {
          "indexed": true,
          "name": "security",
          "type": "address"
        },
        {
          "indexed": false,
          "name": "oldTime",
          "type": "uint256"
        },
        {
          "indexed": false,
          "name": "newTime",
          "type": "uint256"
        }
      ],
      "name": "SnapshotSchedule",
      "type": "event"
    },
    {
      "anonymous": false,
      "inputs": [
        {
          "indexed": true,
          "name": "security",
          "type": "address"
        },
        {
          "indexed": false,
          "name": "time",
          "type": "uint256"
        }
      ],
      "name": "SnapshotUnschedule",
      "type": "event"
    },
    {
      "anonymous": false,
      "inputs": [
        {
          "indexed": true,
          "name": "from",
          "type": "address"
        },
        {
          "indexed": true,
          "name": "to",
          "type": "address"
        },
        {
          "indexed": false,
          "name": "value",
          "type": "uint256"
        }
      ],
      "name": "Transfer",
      "type": "event"
    },
    {
      "anonymous": false,
      "inputs": [
        {
          "indexed": true,
          "name": "owner",
          "type": "address"
        },
        {
          "indexed": true,
          "name": "spender",
          "type": "address"
        },
        {
          "indexed": false,
          "name": "value",
          "type": "uint256"
        }
      ],
      "name": "Approval",
      "type": "event"
    },
    {
      "anonymous": false,
      "inputs": [],
      "name": "Paused",
      "type": "event"
    },
    {
      "anonymous": false,
      "inputs": [],
      "name": "Unpaused",
      "type": "event"
    },
    {
      "anonymous": false,
      "inputs": [
        {
          "indexed": true,
          "name": "previousOwner",
          "type": "address"
        },
        {
          "indexed": true,
          "name": "newOwner",
          "type": "address"
        }
      ],
      "name": "OwnershipTransferred",
      "type": "event"
    },
    {
      "constant": false,
      "inputs": [
        {
          "name": "name_",
          "type": "bytes32"
        },
        {
          "name": "symbol_",
          "type": "bytes32"
        },
        {
          "name": "_owner",
          "type": "address"
        },
        {
          "name": "issuer",
          "type": "address"
        },
        {
          "name": "client",
          "type": "address"
        }
      ],
      "name": "initialize",
      "outputs": [],
      "payable": false,
      "stateMutability": "nonpayable",
      "type": "function"
    },
    {
      "constant": false,
      "inputs": [
        {
          "name": "sender",
          "type": "address"
        }
      ],
      "name": "initialize",
      "outputs": [],
      "payable": false,
      "stateMutability": "nonpayable",
      "type": "function"
    },
    {
      "constant": true,
      "inputs": [],
      "name": "name",
      "outputs": [
        {
          "name": "",
          "type": "string"
        }
      ],
      "payable": false,
      "stateMutability": "view",
      "type": "function"
    },
    {
      "constant": true,
      "inputs": [],
      "name": "symbol",
      "outputs": [
        {
          "name": "",
          "type": "string"
        }
      ],
      "payable": false,
      "stateMutability": "view",
      "type": "function"
    },
    {
      "constant": true,
      "inputs": [],
      "name": "decimals",
      "outputs": [
        {
          "name": "",
          "type": "uint8"
        }
      ],
      "payable": false,
      "stateMutability": "view",
      "type": "function"
    },
    {
      "constant": false,
      "inputs": [
        {
          "name": "issuer",
          "type": "address"
        },
        {
          "name": "amount",
          "type": "uint256"
        }
      ],
      "name": "mintToken",
      "outputs": [],
      "payable": false,
      "stateMutability": "nonpayable",
      "type": "function"
    },
    {
      "constant": false,
      "inputs": [
        {
          "name": "transferor",
          "type": "address"
        },
        {
          "name": "transferee",
          "type": "address"
        },
        {
          "name": "amount",
          "type": "uint256"
        }
      ],
      "name": "transferToken",
      "outputs": [],
      "payable": false,
      "stateMutability": "nonpayable",
      "type": "function"
    },
    {
      "constant": false,
      "inputs": [
        {
          "name": "spender",
          "type": "address"
        },
        {
          "name": "amount",
          "type": "uint256"
        }
      ],
      "name": "whiteList",
      "outputs": [],
      "payable": false,
      "stateMutability": "nonpayable",
      "type": "function"
    },
    {
      "constant": false,
      "inputs": [
        {
          "name": "recipient",
          "type": "address"
        },
        {
          "name": "amount",
          "type": "uint256"
        }
      ],
      "name": "transfer",
      "outputs": [
        {
          "name": "",
          "type": "bool"
        }
      ],
      "payable": false,
      "stateMutability": "nonpayable",
      "type": "function"
    },
    {
      "constant": false,
      "inputs": [
        {
          "name": "spender",
          "type": "address"
        },
        {
          "name": "amount",
          "type": "uint256"
        }
      ],
      "name": "approve",
      "outputs": [
        {
          "name": "",
          "type": "bool"
        }
      ],
      "payable": false,
      "stateMutability": "nonpayable",
      "type": "function"
    },
    {
      "constant": false,
      "inputs": [
        {
          "name": "sender",
          "type": "address"
        },
        {
          "name": "recipient",
          "type": "address"
        },
        {
          "name": "amount",
          "type": "uint256"
        }
      ],
      "name": "transferFrom",
      "outputs": [
        {
          "name": "",
          "type": "bool"
        }
      ],
      "payable": false,
      "stateMutability": "nonpayable",
      "type": "function"
    },
    {
      "constant": false,
      "inputs": [
        {
          "name": "spender",
          "type": "address"
        },
        {
          "name": "addedValue",
          "type": "uint256"
        }
      ],
      "name": "increaseAllowance",
      "outputs": [
        {
          "name": "",
          "type": "bool"
        }
      ],
      "payable": false,
      "stateMutability": "nonpayable",
      "type": "function"
    },
    {
      "constant": false,
      "inputs": [
        {
          "name": "spender",
          "type": "address"
        },
        {
          "name": "subtractedValue",
          "type": "uint256"
        }
      ],
      "name": "decreaseAllowance",
      "outputs": [
        {
          "name": "",
          "type": "bool"
        }
      ],
      "payable": false,
      "stateMutability": "nonpayable",
      "type": "function"
    },
    {
      "constant": false,
      "inputs": [
        {
          "name": "holder",
          "type": "address"
        },
        {
          "name": "amount",
          "type": "uint256"
        }
      ],
      "name": "freeze",
      "outputs": [],
      "payable": false,
      "stateMutability": "nonpayable",
      "type": "function"
    },
    {
      "constant": false,
      "inputs": [
        {
          "name": "holder",
          "type": "address"
        }
      ],
      "name": "unfreeze",
      "outputs": [],
      "payable": false,
      "stateMutability": "nonpayable",
      "type": "function"
    },
    {
      "constant": true,
      "inputs": [
        {
          "name": "account",
          "type": "address"
        }
      ],
      "name": "frozen",
      "outputs": [
        {
          "name": "",
          "type": "uint256"
        }
      ],
      "payable": false,
      "stateMutability": "view",
      "type": "function"
    },
    {
      "constant": false,
      "inputs": [
        {
          "name": "holder",
          "type": "address"
        },
        {
          "name": "amount",
          "type": "uint256"
        }
      ],
      "name": "burn",
      "outputs": [],
      "payable": false,
      "stateMutability": "nonpayable",
      "type": "function"
    },
    {
      "constant": false,
      "inputs": [],
      "name": "burnAll",
      "outputs": [],
      "payable": false,
      "stateMutability": "nonpayable",
      "type": "function"
    },
    {
      "constant": false,
      "inputs": [
        {
          "name": "time",
          "type": "uint256"
        }
      ],
      "name": "scheduleSnapshot",
      "outputs": [],
      "payable": false,
      "stateMutability": "nonpayable",
      "type": "function"
    },
    {
      "constant": false,
      "inputs": [
        {
          "name": "oldTime",
          "type": "uint256"
        },
        {
          "name": "newTime",
          "type": "uint256"
        }
      ],
      "name": "rescheduleSnapshot",
      "outputs": [],
      "payable": false,
      "stateMutability": "nonpayable",
      "type": "function"
    },
    {
      "constant": false,
      "inputs": [
        {
          "name": "time",
          "type": "uint256"
        }
      ],
      "name": "unscheduleSnapshot",
      "outputs": [],
      "payable": false,
      "stateMutability": "nonpayable",
      "type": "function"
    },
    {
      "constant": false,
      "inputs": [
        {
          "name": "time",
          "type": "uint256"
        },
        {
          "name": "votes",
          "type": "bool"
        },
        {
          "name": "ipfsLink",
          "type": "string"
        }
      ],
      "name": "createResolution",
      "outputs": [],
      "payable": false,
      "stateMutability": "nonpayable",
      "type": "function"
    },
    {
      "constant": true,
      "inputs": [
        {
          "name": "time",
          "type": "uint256"
        }
      ],
      "name": "countVotes",
      "outputs": [
        {
          "name": "total",
          "type": "uint256"
        },
        {
          "name": "yes",
          "type": "uint256"
        }
      ],
      "payable": false,
      "stateMutability": "view",
      "type": "function"
    },
    {
      "constant": false,
      "inputs": [
        {
          "name": "time",
          "type": "uint256"
        },
        {
          "name": "wallet",
          "type": "address"
        },
        {
          "name": "token",
          "type": "address"
        },
        {
          "name": "amount",
          "type": "uint256"
        }
      ],
      "name": "payoutProrata",
      "outputs": [],
      "payable": false,
      "stateMutability": "nonpayable",
      "type": "function"
    },
    {
      "constant": false,
      "inputs": [
        {
          "name": "time",
          "type": "uint256"
        },
        {
          "name": "holder",
          "type": "address"
        },
        {
          "name": "wallet",
          "type": "address"
        },
        {
          "name": "token",
          "type": "address"
        },
        {
          "name": "amount",
          "type": "uint256"
        }
      ],
      "name": "payout",
      "outputs": [],
      "payable": false,
      "stateMutability": "nonpayable",
      "type": "function"
    },
    {
      "constant": false,
      "inputs": [],
      "name": "pause",
      "outputs": [],
      "payable": false,
      "stateMutability": "nonpayable",
      "type": "function"
    },
    {
      "constant": false,
      "inputs": [],
      "name": "unpause",
      "outputs": [],
      "payable": false,
      "stateMutability": "nonpayable",
      "type": "function"
    }
  ],
  "bytecode": "0x6080604052614a1d806100136000396000f3fe608060405234801561001057600080fd5b50600436106102535760003560e01c80638f32d59b11610146578063bcc88fbd116100c3578063d565a53311610087578063d565a53314610847578063dd62ed3e146108e7578063e20c35e514610915578063f2fde38b14610932578063f5537ede14610958578063fb78ed401461098e57610253565b8063bcc88fbd146106ff578063c4d66de8146107b3578063c9d27afe146107d9578063d0516650146107fe578063d21268ef1461082457610253565b8063a312e1551161010a578063a312e15514610640578063a457c2d71461065d578063a9059cbb14610689578063b187bd26146106b5578063b6fdff18146106bd57610253565b80638f32d59b146105c057806395d89b41146105c85780639975038c146105d05780639dc29fac146105d8578063a1b4b1ce1461060457610253565b806345c8b1a6116101d4578063715018a611610198578063715018a61461053457806372e0f8531461053c57806379c65068146105685780638456cb59146105945780638da5cb5b1461059c57610253565b806345c8b1a61461045b57806346499770146104815780635ee7a942146104c5578063634daf76146104e257806370a082311461050e57610253565b806324bce60c1161021b57806324bce60c1461039b578063313ce567146103c957806339509351146103e75780633b345a87146104135780633f4ba83a1461045357610253565b806306fdde0314610258578063095ea7b3146102d557806318160ddd146103155780631840f0ca1461032f57806323b872dd14610365575b600080fd5b6102606109e6565b6040805160208082528351818301528351919283929083019185019080838360005b8381101561029a578181015183820152602001610282565b50505050905090810190601f1680156102c75780820380516001836020036101000a031916815260200191505b509250505060405180910390f35b610301600480360360408110156102eb57600080fd5b506001600160a01b038135169060200135610a7d565b604080519115158252519081900360200190f35b61031d610bc4565b60408051918252519081900360200190f35b61034c6004803603602081101561034557600080fd5b5035610bca565b6040805192835260208301919091528051918290030190f35b6103016004803603606081101561037b57600080fd5b506001600160a01b03813581169160208101359091169060400135610ea9565b6103c7600480360360408110156103b157600080fd5b506001600160a01b038135169060200135611137565b005b6103d1611287565b6040805160ff9092168252519081900360200190f35b610301600480360360408110156103fd57600080fd5b506001600160a01b03813516906020013561128c565b6104306004803603602081101561042957600080fd5b50356112d1565b604080516001600160a01b03909316835260208301919091528051918290030190f35b6103c76113f7565b6103c76004803603602081101561047157600080fd5b50356001600160a01b03166114e5565b6103c7600480360360a081101561049757600080fd5b508035906020810135906001600160a01b036040820135811691606081013582169160809091013516611632565b61031d600480360360208110156104db57600080fd5b503561176d565b61031d600480360360408110156104f857600080fd5b50803590602001356001600160a01b031661179f565b61031d6004803603602081101561052457600080fd5b50356001600160a01b03166117e8565b6103c7611803565b6103c76004803603604081101561055257600080fd5b506001600160a01b038135169060200135611897565b6103c76004803603604081101561057e57600080fd5b506001600160a01b0381351690602001356119e5565b6103c7611ac9565b6105a4611bb4565b604080516001600160a01b039092168252519081900360200190f35b610301611bc3565b610260611be9565b6103c7611c4a565b6103c7600480360360408110156105ee57600080fd5b506001600160a01b038135169060200135611df8565b6103c76004803603608081101561061a57600080fd5b508035906001600160a01b03602082013581169160408101359091169060600135611f45565b6103c76004803603602081101561065657600080fd5b503561240f565b6103016004803603604081101561067357600080fd5b506001600160a01b03813516906020013561250b565b6103016004803603604081101561069f57600080fd5b506001600160a01b038135169060200135612553565b6103016127b2565b6103c7600480360360a08110156106d357600080fd5b508035906001600160a01b036020820135811691604081013582169160608201351690608001356127bb565b6103c76004803603606081101561071557600080fd5b813591602081013515159181019060608101604082013564010000000081111561073e57600080fd5b82018360208201111561075057600080fd5b8035906020019184600183028401116401000000008311171561077257600080fd5b91908080601f016020809104026020016040519081016040528093929190818152602001838380828437600092019190915250929550612beb945050505050565b6103c7600480360360208110156107c957600080fd5b50356001600160a01b0316612cef565b6103c7600480360360408110156107ef57600080fd5b50803590602001351515612de3565b61031d6004803603602081101561081457600080fd5b50356001600160a01b0316612fc4565b6103c76004803603604081101561083a57600080fd5b5080359060200135612ff3565b6108646004803603602081101561085d57600080fd5b50356130f5565b604051808060200183151515158152602001828103825284818151815260200191508051906020019080838360005b838110156108ab578181015183820152602001610893565b50505050905090810190601f1680156108d85780820380516001836020036101000a031916815260200191505b50935050505060405180910390f35b61031d600480360360408110156108fd57600080fd5b506001600160a01b03813581169160200135166132b8565b6103c76004803603602081101561092b57600080fd5b50356132e3565b6103c76004803603602081101561094857600080fd5b50356001600160a01b03166133df565b6103c76004803603606081101561096e57600080fd5b506001600160a01b03813581169160208101359091169060400135613432565b6109966134fb565b60408051602080825283518183015283519192839290830191858101910280838360005b838110156109d25781810151838201526020016109ba565b505050509050019250505060405180910390f35b60a58054604080516020601f6002600019610100600188161502019095169490940493840181900481028201810190925282815260609390929091830182828015610a725780601f10610a4757610100808354040283529160200191610a72565b820191906000526020600020905b815481529060010190602001808311610a5557829003601f168201915b505050505090505b90565b6001600160a01b038216600090815260ac60205260408120548390839081111580610b415750816001600160a01b0316610ab5611bb4565b6001600160a01b031663e0a87de1306040518263ffffffff1660e01b815260040180826001600160a01b03166001600160a01b0316815260200191505060206040518083038186803b158015610b0a57600080fd5b505afa158015610b1e573d6000803e3d6000fd5b505050506040513d6020811015610b3457600080fd5b50516001600160a01b0316145b80610b59575060a8546001600160a01b038381169116145b610b9757604051600160e51b62461bcd0281526004018080602001828103825260268152602001806147856026913960400191505060405180910390fd5b60665460ff1615610ba757600080fd5b610bb9610bb2613552565b8686613556565b506001949350505050565b60695490565b600080610bd5613552565b806001600160a01b0316610be7611bb4565b6001600160a01b031663e0a87de1306040518263ffffffff1660e01b815260040180826001600160a01b03166001600160a01b0316815260200191505060206040518083038186803b158015610c3c57600080fd5b505afa158015610c50573d6000803e3d6000fd5b505050506040513d6020811015610c6657600080fd5b50516001600160a01b031614610cb057604051600160e51b62461bcd02815260040180806020018281038252602e815260200180614757602e913960400191505060405180910390fd5b60665460ff1615610cc057600080fd5b60408051600080825260208083018085528351902088835260a390915283822080549294859492939192019081908390600260001961010060018416150201909116048015610d465780601f10610d24576101008083540402835291820191610d46565b820191906000526020600020905b815481529060010190602001808311610d32575b50509150506040516020818303038152906040528051906020012014610e9f5760a460a360008881526020019081526020016000206040518082805460018160011615610100020316600290048015610dd65780601f10610db4576101008083540402835291820191610dd6565b820191906000526020600020905b815481529060010190602001808311610dc2575b505092835250506040519081900360200190205460ff16151560011415610e9f5760005b60a954811015610e9d576000610e318860a98481548110610e1757fe5b6000918252602090912001546001600160a01b031661179f565b1115610e9557600087815260a16020526040812060a9805460019095019491929184908110610e5c57fe5b60009182526020808320909101546001600160a01b0316835282019290925260400190205460ff16151560011415610e95578260010192505b600101610dfa565b505b9350915050915091565b6000610eb3613552565b6001600160a01b038116600090815260ac6020526040902054839081111580610f755750816001600160a01b0316610ee9611bb4565b6001600160a01b031663e0a87de1306040518263ffffffff1660e01b815260040180826001600160a01b03166001600160a01b0316815260200191505060206040518083038186803b158015610f3e57600080fd5b505afa158015610f52573d6000803e3d6000fd5b505050506040513d6020811015610f6857600080fd5b50516001600160a01b0316145b80610f8d575060a8546001600160a01b038381169116145b610fcb57604051600160e51b62461bcd0281526004018080602001828103825260268152602001806147856026913960400191505060405180910390fd5b60665460ff1615610fdb57600080fd5b6001600160a01b038616600090815260ab602052604090205461100d85611001896117e8565b9063ffffffff61364816565b10156110635760408051600160e51b62461bcd02815260206004820152601560248201527f46756e6473207472616e736665722066726f7a656e0000000000000000000000604482015290519081900360640190fd5b61106e868686613691565b6110798686866136ec565b6110c586611085613552565b6110c08760405180606001604052806028815260200161484f602891396110b38c6110ae613552565b6132b8565b919063ffffffff61385016565b613556565b6001600160a01b038516600090815260aa602052604090205461112b5760a980546001810182556000805160206147d18339815191520180546001600160a01b0319166001600160a01b0388169081179091559054600091825260aa6020526040909120555b50600195945050505050565b61113f613552565b806001600160a01b0316611151611bb4565b6001600160a01b031663e0a87de1306040518263ffffffff1660e01b815260040180826001600160a01b03166001600160a01b0316815260200191505060206040518083038186803b1580156111a657600080fd5b505afa1580156111ba573d6000803e3d6000fd5b505050506040513d60208110156111d057600080fd5b50516001600160a01b03161461121a57604051600160e51b62461bcd02815260040180806020018281038252602e815260200180614757602e913960400191505060405180910390fd5b60665460ff161561122a57600080fd5b6001600160a01b038316600081815260ab6020526040902083905561124d613552565b6001600160a01b03167f51d18786e9cb144f87d46e7b796309ea84c7c687d91e09c97f051eacf59bc52860405160405180910390a3505050565b601290565b60665460009060ff161561129f57600080fd5b6112c76112aa613552565b846110c0856112bb886110ae613552565b9063ffffffff6138ea16565b5060015b92915050565b60008060006112e0843361179f565b1161131f57604051600160e51b62461bcd0281526004018080602001828103825260248152602001806148c56024913960400191505060405180910390fd5b60408051600080825260208083018085528351902087835260a3909152908390208054919390920190819083906002600019610100600184161502019091160480156113a25780601f106113805761010080835404028352918201916113a2565b820191906000526020600020905b81548152906001019060200180831161138e575b505091505060405160208183030381529060405280519060200120146113f2575050600081815260a260209081526040808320338452909152902080546001909101546001600160a01b03909116905b915091565b6113ff613552565b806001600160a01b0316611411611bb4565b6001600160a01b031663e0a87de1306040518263ffffffff1660e01b815260040180826001600160a01b03166001600160a01b0316815260200191505060206040518083038186803b15801561146657600080fd5b505afa15801561147a573d6000803e3d6000fd5b505050506040513d602081101561149057600080fd5b50516001600160a01b0316146114da57604051600160e51b62461bcd02815260040180806020018281038252602e815260200180614757602e913960400191505060405180910390fd5b6114e2613947565b50565b6114ed613552565b806001600160a01b03166114ff611bb4565b6001600160a01b031663e0a87de1306040518263ffffffff1660e01b815260040180826001600160a01b03166001600160a01b0316815260200191505060206040518083038186803b15801561155457600080fd5b505afa158015611568573d6000803e3d6000fd5b505050506040513d602081101561157e57600080fd5b50516001600160a01b0316146115c857604051600160e51b62461bcd02815260040180806020018281038252602e815260200180614757602e913960400191505060405180910390fd5b60665460ff16156115d857600080fd5b6001600160a01b038216600081815260ab60205260408120556115f9613552565b6001600160a01b03167f4f3ab9ff0cc4f039268532098e01239544b0420171876e36889d01c62c784c7960405160405180910390a35050565b600054610100900460ff168061164b575061164b61397c565b80611659575060005460ff16155b61169757604051600160e51b62461bcd02815260040180806020018281038252602e815260200180614897602e913960400191505060405180910390fd5b600054610100900460ff161580156116c2576000805460ff1961ff0019909116610100171660011790555b6116cb84612cef565b60408051602080820189905282518083038201815291830190925280516116f69260a592019061460e565b5060408051602080820188905282518083038201815291830190925280516117229260a692019061460e565b5060a880546001600160a01b038086166001600160a01b03199283161790925560a78054928516929091169190911790558015611765576000805461ff00191690555b505050505050565b600080600061177d84609d613982565b91509150816117935761178e610bc4565b611795565b805b925050505b919050565b6001600160a01b0381166000908152609c60205260408120819081906117c6908690613982565b91509150816117dd576117d8846117e8565b6117df565b805b95945050505050565b6001600160a01b031660009081526067602052604090205490565b61180b611bc3565b61184d5760408051600160e51b62461bcd0281526020600482018190526024820152600080516020614877833981519152604482015290519081900360640190fd5b6033546040516000916001600160a01b0316907f8be0079c531659141344cd1fd0a4f28419497f9722a3daafe3b4186f6b6457e0908390a3603380546001600160a01b0319169055565b61189f613552565b6001600160a01b038116600090815260ac60205260409020548290811115806119615750816001600160a01b03166118d5611bb4565b6001600160a01b031663e0a87de1306040518263ffffffff1660e01b815260040180826001600160a01b03166001600160a01b0316815260200191505060206040518083038186803b15801561192a57600080fd5b505afa15801561193e573d6000803e3d6000fd5b505050506040513d602081101561195457600080fd5b50516001600160a01b0316145b80611979575060a8546001600160a01b038381169116145b6119b757604051600160e51b62461bcd0281526004018080602001828103825260268152602001806147856026913960400191505060405180910390fd5b60665460ff16156119c757600080fd5b50506001600160a01b03909116600090815260ac6020526040902055565b6119ed611bc3565b611a2f5760408051600160e51b62461bcd0281526020600482018190526024820152600080516020614877833981519152604482015290519081900360640190fd5b611a3b60008383613691565b611a4582826139d8565b60a980546001810182556000805160206147d18339815191520180546001600160a01b0319166001600160a01b0385169081179091559054600082815260aa602090815260409182902092909255805184815290517f0f6798a560793a54c3bcfe86a93cde1e73087d944c0ea20544137d4121396885929181900390910190a25050565b611ad1613552565b806001600160a01b0316611ae3611bb4565b6001600160a01b031663e0a87de1306040518263ffffffff1660e01b815260040180826001600160a01b03166001600160a01b0316815260200191505060206040518083038186803b158015611b3857600080fd5b505afa158015611b4c573d6000803e3d6000fd5b505050506040513d6020811015611b6257600080fd5b50516001600160a01b031614611bac57604051600160e51b62461bcd02815260040180806020018281038252602e815260200180614757602e913960400191505060405180910390fd5b6114e2613acd565b6033546001600160a01b031690565b6033546000906001600160a01b0316611bda613552565b6001600160a01b031614905090565b60a68054604080516020601f6002600019610100600188161502019095169490940493840181900481028201810190925282815260609390929091830182828015610a725780601f10610a4757610100808354040283529160200191610a72565b611c52613552565b806001600160a01b0316611c64611bb4565b6001600160a01b031663e0a87de1306040518263ffffffff1660e01b815260040180826001600160a01b03166001600160a01b0316815260200191505060206040518083038186803b158015611cb957600080fd5b505afa158015611ccd573d6000803e3d6000fd5b505050506040513d6020811015611ce357600080fd5b50516001600160a01b031614611d2d57604051600160e51b62461bcd02815260040180806020018281038252602e815260200180614757602e913960400191505060405180910390fd5b60665460ff1615611d3d57600080fd5b60005b60a954811015611df457611da960a98281548110611d5a57fe5b9060005260206000200160009054906101000a90046001600160a01b03166000611da460a98581548110611d8a57fe5b6000918252602090912001546001600160a01b03166117e8565b613691565b611dec60a98281548110611db957fe5b9060005260206000200160009054906101000a90046001600160a01b0316611de760a98481548110611d8a57fe5b613b05565b600101611d40565b5050565b611e00613552565b806001600160a01b0316611e12611bb4565b6001600160a01b031663e0a87de1306040518263ffffffff1660e01b815260040180826001600160a01b03166001600160a01b0316815260200191505060206040518083038186803b158015611e6757600080fd5b505afa158015611e7b573d6000803e3d6000fd5b505050506040513d6020811015611e9157600080fd5b50516001600160a01b031614611edb57604051600160e51b62461bcd02815260040180806020018281038252602e815260200180614757602e913960400191505060405180910390fd5b60665460ff1615611eeb57600080fd5b611ef783600084613691565b611f018383613b05565b6040805183815290516001600160a01b038516917fcc16f5dbb4873280815c1ee09dbd06736cffcc184412cf7a71a0fdb75d397ca5919081900360200190a2505050565b611f4d613552565b60a75460408051600160e01b63442767330281526001600160a01b03848116600483015291516000939290921691634427673391602480820192606092909190829003018186803b158015611fa157600080fd5b505afa158015611fb5573d6000803e3d6000fd5b505050506040513d6060811015611fcb57600080fd5b505190506001600160a01b038216611fe1611bb4565b6001600160a01b031663e0a87de1306040518263ffffffff1660e01b815260040180826001600160a01b03166001600160a01b0316815260200191505060206040518083038186803b15801561203657600080fd5b505afa15801561204a573d6000803e3d6000fd5b505050506040513d602081101561206057600080fd5b50516001600160a01b03161480612085575080600160b91b6821bab9ba37b234b0b702145b6120c357604051600160e51b62461bcd02815260040180806020018281038252603d8152602001806147f1603d913960400191505060405180910390fd5b60665460ff16156120d357600080fd5b60006120de8761176d565b1161211d57604051600160e51b62461bcd02815260040180806020018281038252602c81526020018061492f602c913960400191505060405180910390fd5b82846001600160a01b03166370a08231876040518263ffffffff1660e01b815260040180826001600160a01b03166001600160a01b0316815260200191505060206040518083038186803b15801561217457600080fd5b505afa158015612188573d6000803e3d6000fd5b505050506040513d602081101561219e57600080fd5b505110156121e057604051600160e51b62461bcd0281526004018080602001828103825260238152602001806146a76023913960400191505060405180910390fd5b6001600160a01b0384161580159061220057506001600160a01b03851615155b801561220c5750600083115b6122605760408051600160e51b62461bcd02815260206004820152601460248201527f496e76616c696420646973747269627574696f6e000000000000000000000000604482015290519081900360640190fd5b600061226b8761176d565b905060005b60a95481101561240557600061228d8960a98481548110610e1757fe5b905080156123fc5760006122aa6122a48386613c04565b88613c46565b9050876001600160a01b03166323b872dd8a60a986815481106122c957fe5b60009182526020808320909101546040805163ffffffff871660e01b81526001600160a01b0395861660048201529490911660248501526044840187905251606480850194929391928390030190829087803b15801561232857600080fd5b505af115801561233c573d6000803e3d6000fd5b505050506040513d602081101561235257600080fd5b505060008a815260a26020526040812060a980548b9391908790811061237457fe5b6000918252602080832091909101546001600160a01b039081168452838201949094526040928301822080546001600160a01b03191695909416949094179092558c825260a290925290812060a9805484939190879081106123d257fe5b60009182526020808320909101546001600160a01b03168352820192909252604001902060010155505b50600101612270565b5050505050505050565b612417613552565b806001600160a01b0316612429611bb4565b6001600160a01b031663e0a87de1306040518263ffffffff1660e01b815260040180826001600160a01b03166001600160a01b0316815260200191505060206040518083038186803b15801561247e57600080fd5b505afa158015612492573d6000803e3d6000fd5b505050506040513d60208110156124a857600080fd5b50516001600160a01b0316146124f257604051600160e51b62461bcd02815260040180806020018281038252602e815260200180614757602e913960400191505060405180910390fd5b60665460ff161561250257600080fd5b611df482613ca2565b60665460009060ff161561251e57600080fd5b6112c7612529613552565b846110c0856040518060600160405280602581526020016149cd602591396110b3896110ae613552565b600061255d613552565b6001600160a01b038116600090815260ac602052604090205483908111158061261f5750816001600160a01b0316612593611bb4565b6001600160a01b031663e0a87de1306040518263ffffffff1660e01b815260040180826001600160a01b03166001600160a01b0316815260200191505060206040518083038186803b1580156125e857600080fd5b505afa1580156125fc573d6000803e3d6000fd5b505050506040513d602081101561261257600080fd5b50516001600160a01b0316145b80612637575060a8546001600160a01b038381169116145b61267557604051600160e51b62461bcd0281526004018080602001828103825260268152602001806147856026913960400191505060405180910390fd5b60665460ff161561268557600080fd5b60ab6000612691613552565b6001600160a01b03166001600160a01b03168152602001908152602001600020546126c6856110016126c1613552565b6117e8565b101561271c5760408051600160e51b62461bcd02815260206004820152601560248201527f46756e6473207472616e736665722066726f7a656e0000000000000000000000604482015290519081900360640190fd5b61272e612727613552565b8686613691565b612740612739613552565b86866136ec565b6001600160a01b038516600090815260aa6020526040902054610bb95760a980546001810182556000805160206147d18339815191520180546001600160a01b0388166001600160a01b031990911681179091559054600091825260aa60205260409091205560019250505092915050565b60665460ff1690565b6127c3613552565b60a75460408051600160e01b63442767330281526001600160a01b03848116600483015291516000939290921691634427673391602480820192606092909190829003018186803b15801561281757600080fd5b505afa15801561282b573d6000803e3d6000fd5b505050506040513d606081101561284157600080fd5b505190506001600160a01b038216612857611bb4565b6001600160a01b031663e0a87de1306040518263ffffffff1660e01b815260040180826001600160a01b03166001600160a01b0316815260200191505060206040518083038186803b1580156128ac57600080fd5b505afa1580156128c0573d6000803e3d6000fd5b505050506040513d60208110156128d657600080fd5b50516001600160a01b031614806128fb575080600160b91b6821bab9ba37b234b0b702145b61293957604051600160e51b62461bcd02815260040180806020018281038252603d8152602001806147f1603d913960400191505060405180910390fd5b60665460ff161561294957600080fd5b60006129548861176d565b1161299357604051600160e51b62461bcd02815260040180806020018281038252602c81526020018061492f602c913960400191505060405180910390fd5b82846001600160a01b03166370a08231876040518263ffffffff1660e01b815260040180826001600160a01b03166001600160a01b0316815260200191505060206040518083038186803b1580156129ea57600080fd5b505afa1580156129fe573d6000803e3d6000fd5b505050506040513d6020811015612a1457600080fd5b50511015612a5657604051600160e51b62461bcd0281526004018080602001828103825260238152602001806146a76023913960400191505060405180910390fd5b6000612a62888861179f565b11612aa157604051600160e51b62461bcd0281526004018080602001828103825260268152602001806149a76026913960400191505060405180910390fd5b6001600160a01b03841615801590612ac157506001600160a01b03851615155b8015612acd5750600083115b612b215760408051600160e51b62461bcd02815260206004820152601460248201527f496e76616c696420646973747269627574696f6e000000000000000000000000604482015290519081900360640190fd5b60408051600160e01b6323b872dd0281526001600160a01b0387811660048301528881166024830152604482018690529151918616916323b872dd916064808201926020929091908290030181600087803b158015612b7f57600080fd5b505af1158015612b93573d6000803e3d6000fd5b505050506040513d6020811015612ba957600080fd5b50505060009586525060a2602090815260408087206001600160a01b03968716885290915290942080546001600160a01b031916919093161782555060010155565b612bf3613552565b806001600160a01b0316612c05611bb4565b6001600160a01b031663e0a87de1306040518263ffffffff1660e01b815260040180826001600160a01b03166001600160a01b0316815260200191505060206040518083038186803b158015612c5a57600080fd5b505afa158015612c6e573d6000803e3d6000fd5b505050506040513d6020811015612c8457600080fd5b50516001600160a01b031614612cce57604051600160e51b62461bcd02815260040180806020018281038252602e815260200180614757602e913960400191505060405180910390fd5b60665460ff1615612cde57600080fd5b612ce9848484613dba565b50505050565b600054610100900460ff1680612d085750612d0861397c565b80612d16575060005460ff16155b612d5457604051600160e51b62461bcd02815260040180806020018281038252602e815260200180614897602e913960400191505060405180910390fd5b600054610100900460ff16158015612d7f576000805460ff1961ff0019909116610100171660011790555b603380546001600160a01b0319166001600160a01b0384811691909117918290556040519116906000907f8be0079c531659141344cd1fd0a4f28419497f9722a3daafe3b4186f6b6457e0908290a38015611df4576000805461ff00191690555050565b6000612def833361179f565b11612e445760408051600160e51b62461bcd02815260206004820152601260248201527f556e617574686f72697a656420766f7465720000000000000000000000000000604482015290519081900360640190fd5b60408051600080825260208083018085528351902086835260a390915290839020805491939092019081908390600260001961010060018416150201909116048015612ec75780601f10612ea5576101008083540402835291820191612ec7565b820191906000526020600020905b815481529060010190602001808311612eb3575b50509150506040516020818303038152906040528051906020012014611df45760a460a360008481526020019081526020016000206040518082805460018160011615610100020316600290048015612f575780601f10612f35576101008083540402835291820191612f57565b820191906000526020600020905b815481529060010190602001808311612f43575b505092835250506040519081900360200190205460ff16151560011415611df457600082815260a16020908152604080832033845290915290205460ff16611df457600082815260a1602090815260408083203384529091529020805482151560ff199091161790555050565b60665460009060ff1615612fd757600080fd5b506001600160a01b0316600090815260ab602052604090205490565b612ffb613552565b806001600160a01b031661300d611bb4565b6001600160a01b031663e0a87de1306040518263ffffffff1660e01b815260040180826001600160a01b03166001600160a01b0316815260200191505060206040518083038186803b15801561306257600080fd5b505afa158015613076573d6000803e3d6000fd5b505050506040513d602081101561308c57600080fd5b50516001600160a01b0316146130d657604051600160e51b62461bcd02815260040180806020018281038252602e815260200180614757602e913960400191505060405180910390fd5b60665460ff16156130e657600080fd5b6130f08383613f3b565b505050565b60408051600080825260208083018085528351902085835260a39091528382208054606095939492939192909101908190839060026000196101006001841615020190911604801561317e5780601f1061315c57610100808354040283529182019161317e565b820191906000526020600020905b81548152906001019060200180831161316a575b505091505060405160208183030381529060405280519060200120146113f257600083815260a36020526040908190209051815460a4918391819083906002600019610100600184161502019091160480156132115780601f106131ef576101008083540402835291820191613211565b820191906000526020600020905b8154815290600101906020018083116131fd575b50509283525050604080516020928190038301812054845460026101006001831615026000190190911604601f810185900485028301850190935282825260ff1692909184918301828280156132a85780601f1061327d576101008083540402835291602001916132a8565b820191906000526020600020905b81548152906001019060200180831161328b57829003601f168201915b50505050509150915091506113f2565b6001600160a01b03918216600090815260686020908152604080832093909416825291909152205490565b6132eb613552565b806001600160a01b03166132fd611bb4565b6001600160a01b031663e0a87de1306040518263ffffffff1660e01b815260040180826001600160a01b03166001600160a01b0316815260200191505060206040518083038186803b15801561335257600080fd5b505afa158015613366573d6000803e3d6000fd5b505050506040513d602081101561337c57600080fd5b50516001600160a01b0316146133c657604051600160e51b62461bcd02815260040180806020018281038252602e815260200180614757602e913960400191505060405180910390fd5b60665460ff16156133d657600080fd5b611df4826140f3565b6133e7611bc3565b6134295760408051600160e51b62461bcd0281526020600482018190526024820152600080516020614877833981519152604482015290519081900360640190fd5b6114e2816141eb565b61343a611bc3565b61347c5760408051600160e51b62461bcd0281526020600482018190526024820152600080516020614877833981519152604482015290519081900360640190fd5b613487838383613691565b6134928383836136ec565b6001600160a01b038216600090815260aa60205260409020546130f0575060a980546001810182556000805160206147d18339815191520180546001600160a01b0319166001600160a01b0393909316928317905554600091825260aa60205260409091205550565b606060a0805480602002602001604051908101604052809291908181526020018280548015610a7257602002820191906000526020600020905b815481526020019060010190808311613535575050505050905090565b3390565b6001600160a01b03831661359e57604051600160e51b62461bcd02815260040180806020018281038252602481526020018061495b6024913960400191505060405180910390fd5b6001600160a01b0382166135e657604051600160e51b62461bcd0281526004018080602001828103825260228152602001806147356022913960400191505060405180910390fd5b6001600160a01b03808416600081815260686020908152604080832094871680845294825291829020859055815185815291517f8c5be1e5ebec7d5bd14f71427d1e84f3dd0314c0f7b2291e5b200ac8c7c3b9259281900390910190a3505050565b600061368a83836040518060400160405280601e81526020017f536166654d6174683a207375627472616374696f6e206f766572666c6f770000815250613850565b9392505050565b61369961428f565b6001600160a01b038316156136db576136b1836142ae565b6001600160a01b038216156136ce576136c9826142ae565b6136d6565b6136d66142d8565b6130f0565b6136e4826142ae565b6130f06142d8565b6001600160a01b03831661373457604051600160e51b62461bcd02815260040180806020018281038252602581526020018061490a6025913960400191505060405180910390fd5b6001600160a01b03821661377c57604051600160e51b62461bcd0281526004018080602001828103825260238152602001806146ca6023913960400191505060405180910390fd5b6137bf816040518060600160405280602681526020016147ab602691396001600160a01b038616600090815260676020526040902054919063ffffffff61385016565b6001600160a01b0380851660009081526067602052604080822093909355908416815220546137f4908263ffffffff6138ea16565b6001600160a01b0380841660008181526067602090815260409182902094909455805185815290519193928716927fddf252ad1be2c89b69c2b068fc378daa952ba7f163c4a11628f55a4df523b3ef92918290030190a3505050565b600081848411156138e257604051600160e51b62461bcd0281526004018080602001828103825283818151815260200191508051906020019080838360005b838110156138a757818101518382015260200161388f565b50505050905090810190601f1680156138d45780820380516001836020036101000a031916815260200191505b509250505060405180910390fd5b505050900390565b60008282018381101561368a5760408051600160e51b62461bcd02815260206004820152601b60248201527f536166654d6174683a206164646974696f6e206f766572666c6f770000000000604482015290519081900360640190fd5b6066805460ff191690556040517fa45f47fdea8a1efdd9029a5691c7f759c32b7c698632b563573e155625d1693390600090a1565b303b1590565b60008080613996848663ffffffff6142e716565b84549091508114156139af5750600091508190506139d1565b60018460010182815481106139c057fe5b906000526020600020015492509250505b9250929050565b6001600160a01b038216613a365760408051600160e51b62461bcd02815260206004820152601f60248201527f45524332303a206d696e7420746f20746865207a65726f206164647265737300604482015290519081900360640190fd5b606954613a49908263ffffffff6138ea16565b6069556001600160a01b038216600090815260676020526040902054613a75908263ffffffff6138ea16565b6001600160a01b03831660008181526067602090815260408083209490945583518581529351929391927fddf252ad1be2c89b69c2b068fc378daa952ba7f163c4a11628f55a4df523b3ef9281900390910190a35050565b6066805460ff191660011790556040517f9e87fac88ff661f02d44f95383c817fece4bce600a3dab7a54406878b965e75290600090a1565b6001600160a01b038216613b4d57604051600160e51b62461bcd0281526004018080602001828103825260218152602001806148e96021913960400191505060405180910390fd5b613b90816040518060600160405280602281526020016146ed602291396001600160a01b038516600090815260676020526040902054919063ffffffff61385016565b6001600160a01b038316600090815260676020526040902055606954613bbc908263ffffffff61364816565b6069556040805182815290516000916001600160a01b038516917fddf252ad1be2c89b69c2b068fc378daa952ba7f163c4a11628f55a4df523b3ef9181900360200190a35050565b600061368a83836040518060400160405280601a81526020017f536166654d6174683a206469766973696f6e206279207a65726f000000000000815250614388565b600082613c55575060006112cb565b82820282848281613c6257fe5b041461368a57604051600160e51b62461bcd02815260040180806020018281038252602181526020018061482e6021913960400191505060405180910390fd5b804210613cf95760408051600160e51b62461bcd02815260206004820152601e60248201527f536e617073686f74207363686564756c656420696e2074686520706173740000604482015290519081900360640190fd5b6000613d04826143f0565b5090508015613d4757604051600160e51b62461bcd02815260040180806020018281038252602881526020018061497f6028913960400191505060405180910390fd5b60a0805460018101825560009182527f78fdc8d422c49ced035a9edf18d00d3c6a8d81df210f3e5e448e045e77b41e88018390556040805191825260208201849052805130927f8cad7eb54258c06103e9bf7e76d41fbc96c6fe17e0e122e15c9669ebf2e48fc392908290030190a25050565b6060613dc46134fb565b905060005b8151811015613f345784828281518110613ddf57fe5b60200260200101511415613f2c57600085815260a3602090815260409091208451613e0c9286019061460e565b508360a4846040518082805190602001908083835b60208310613e405780518252601f199092019160209182019101613e21565b51815160209384036101000a6000190180199092169116179052920194855250604080519485900382018520805460ff1916961515969096179095558984528815159484019490945250506060818301818152865191830191909152855130937f870eae2b1d96094d2506bdf7e2920e69b502da493662576957e97e74512cea99938a9389938b9360808401919086019080838360005b83811015613eef578181015183820152602001613ed7565b50505050905090810190601f168015613f1c5780820380516001836020036101000a031916815260200191505b5094505050505060405180910390a25b600101613dc9565b5050505050565b814210613f925760408051600160e51b62461bcd02815260206004820152601560248201527f536e617073686f7420616c726561647920646f6e650000000000000000000000604482015290519081900360640190fd5b804210613fe95760408051600160e51b62461bcd02815260206004820152601e60248201527f536e617073686f74207363686564756c656420696e2074686520706173740000604482015290519081900360640190fd5b6000613ff4826143f0565b509050801561403757604051600160e51b62461bcd02815260040180806020018281038252602881526020018061497f6028913960400191505060405180910390fd5b600080614043856143f0565b91509150816140945760408051600160e51b62461bcd0281526020600482015260126024820152600160721b7114db985c1cda1bdd081b9bdd08199bdd5b9902604482015290519081900360640190fd5b8360a082815481106140a257fe5b6000918252602091829020019190915560408051878152918201869052805130927f8cad7eb54258c06103e9bf7e76d41fbc96c6fe17e0e122e15c9669ebf2e48fc392908290030190a25050505050565b80421061414a5760408051600160e51b62461bcd02815260206004820152601560248201527f536e617073686f7420616c726561647920646f6e650000000000000000000000604482015290519081900360640190fd5b600080614156836143f0565b91509150816141a75760408051600160e51b62461bcd0281526020600482015260126024820152600160721b7114db985c1cda1bdd081b9bdd08199bdd5b9902604482015290519081900360640190fd5b6141b08161443d565b60408051848152905130917f36888e5aaf52d39282b94ce50e076f1d7fcadd0ff8301293551ebe2d86f57b4a919081900360200190a2505050565b6001600160a01b03811661423357604051600160e51b62461bcd02815260040180806020018281038252602681526020018061470f6026913960400191505060405180910390fd5b6033546040516001600160a01b038084169216907f8be0079c531659141344cd1fd0a4f28419497f9722a3daafe3b4186f6b6457e090600090a3603380546001600160a01b0319166001600160a01b0392909216919091179055565b6000614299614497565b905080156114e257609f8190556114e2614522565b6001600160a01b0381166000908152609c602052604090206114e2906142d3836117e8565b614564565b6142e5609d6142d3610bc4565b565b81546000906142f8575060006112cb565b82546000905b8082101561434757600061431283836145ae565b90508486828154811061432157fe5b9060005260206000200154111561433a57809150614341565b8060010192505b506142fe565b60008211801561436f57508385600184038154811061436257fe5b9060005260206000200154145b1561438057506000190190506112cb565b5090506112cb565b600081836143da57604051600160e51b62461bcd0281526020600482018181528351602484015283519092839260449091019190850190808383600083156138a757818101518382015260200161388f565b5060008385816143e657fe5b0495945050505050565b600080805b60a054811015614431578360a0828154811061440d57fe5b90600052602060002001541415614429576001925090506113f2565b6001016143f5565b50600093849350915050565b60a08054600019810190811061444f57fe5b906000526020600020015460a0828154811061446757fe5b60009182526020909120015560a080548061447e57fe5b6001900381819060005260206000200160009055905550565b60a0546000906144a957506000610a7a565b6000805b60a05481101561451c574260a082815481106144c557fe5b9060005260206000200154111580156144f457508160a082815481106144e757fe5b9060005260206000200154115b156145145760a0818154811061450657fe5b906000526020600020015491505b6001016144ad565b50905090565b60005b60a0548110156114e2574260a0828154811061453d57fe5b90600052602060002001541161455b576145568161443d565b61455f565b6001015b614525565b600061456e6145d3565b90508061457a846145d9565b10156130f0578254600180820185556000858152602080822090930193909355938401805494850181558252902090910155565b600060028083066002850601816145c157fe5b04600283046002850401019392505050565b609f5490565b80546000906145ea5750600061179a565b8154829060001981019081106145fc57fe5b9060005260206000200154905061179a565b828054600181600116156101000203166002900490600052602060002090601f016020900481019282601f1061464f57805160ff191683800117855561467c565b8280016001018555821561467c579182015b8281111561467c578251825591602001919060010190614661565b5061468892915061468c565b5090565b610a7a91905b80821115614688576000815560010161469256fe4e6f7420656e6f7567682062616c616e636520666f7220646973747269627574696f6e45524332303a207472616e7366657220746f20746865207a65726f206164647265737345524332303a206275726e20616d6f756e7420657863656564732062616c616e63654f776e61626c653a206e6577206f776e657220697320746865207a65726f206164647265737345524332303a20617070726f766520746f20746865207a65726f2061646472657373556e617574686f72697a656420726571756573742c206f6e6c7920697373756572732061726520616c6c6f77656457616c6c65742073656e64696e672072657175657374206e6f742077686974656c697374656445524332303a207472616e7366657220616d6f756e7420657863656564732062616c616e6365dc471888e6136f84c49e531e9c9240dc4e3fba66da9d3a49e2af6202133683e0556e617574686f72697a656420726571756573742c206f6e6c79206973737565727320616e6420637573746f6469616e732061726520616c6c6f776564536166654d6174683a206d756c7469706c69636174696f6e206f766572666c6f7745524332303a207472616e7366657220616d6f756e74206578636565647320616c6c6f77616e63654f776e61626c653a2063616c6c6572206973206e6f7420746865206f776e6572436f6e747261637420696e7374616e63652068617320616c7265616479206265656e20696e697469616c697a65644e6f20736563757269747920746f6b656e2062616c616e636520666f722073656e64657245524332303a206275726e2066726f6d20746865207a65726f206164647265737345524332303a207472616e736665722066726f6d20746865207a65726f20616464726573734e6f207363686564756c656420736e617073686f7420666f756e6420666f7220646973747269627574696f6e45524332303a20617070726f76652066726f6d20746865207a65726f2061646472657373536e617073686f7420616c7265616479207363686564756c656420666f7220746869732074696d654e6f74206120736563757269747920746f6b656e20686f6c64657220666f72207061796f757445524332303a2064656372656173656420616c6c6f77616e63652062656c6f77207a65726fa165627a7a723058207471d7bb9952a159f988f4a896059e2f9b7635c670d51203825e7e9cff1d31f20029",
  "source": "// Verified securities manager that updates holdings of securities by users\r\n// (c) Kallol Borah, 2021\r\n\r\npragma solidity 0.5.7;\r\n\r\nimport \"./CorporateActions.sol\";\r\nimport \"./utilities/Pausable.sol\";\r\nimport \"./interfaces/IFactory.sol\";\r\nimport \"./interfaces/ISecurity.sol\";\r\nimport \"./interfaces/VerifiedClient.sol\";\r\nimport \"@openzeppelin/contracts-ethereum-package/contracts/math/SafeMath.sol\";\r\nimport \"@openzeppelin/contracts-ethereum-package/contracts/ownership/Ownable.sol\";\r\n\r\ncontract Security is ISecurity, Ownable, Pausable, CorporateActions {\r\n\r\n    using SafeMath for uint256;\r\n\r\n    string private _name;\r\n    string private _symbol;\r\n\r\n    VerifiedClient private _client;\r\n\r\n    //issuer of this security token or the assigned depositary participant\r\n    address private _issuer;\r\n\r\n    //this security token's holders\r\n    address[] private holders;\r\n\r\n    //mapping holders to index\r\n    mapping(address => uint256) private holderIndex;\r\n\r\n    //mapping security token holders to amounts frozen in account (0 means all frozen)\r\n    mapping(address => uint256) private froze;\r\n\r\n    //mapping whitelisted wallets to any spend cap on them (0 means no cap)\r\n    mapping(address => uint256) private whitelisted;\r\n\r\n    /**\r\n     * @dev Emitted when an address is frozen.\r\n     */\r\n    event Freeze(address indexed enforcer, address indexed owner);\r\n\r\n    /**\r\n     * @dev Emitted when an address is unfrozen.\r\n     */\r\n    event Unfreeze(address indexed enforcer, address indexed owner);\r\n\r\n    event Burn(address indexed owner, uint256 amount);\r\n\r\n    event Mint(address indexed beneficiary, uint256 amount);\r\n\r\n    modifier onlyIssueManagerOrCustodian(address sender){\r\n        (bytes32 role, , ) = _client.getRole(sender);\r\n        require(IFactory(owner()).getDP(address(this))==sender || role==\"Custodian\", \r\n                \"Unauthorized request, only issuers and custodians are allowed\");\r\n        _;\r\n    }\r\n\r\n    modifier onlyIssueManager (address sender){\r\n        require(IFactory(owner()).getDP(address(this))==sender, \"Unauthorized request, only issuers are allowed\");\r\n        _;\r\n    }\r\n\r\n    modifier onlyWhiteListed (address sender, uint256 amount){\r\n        require(whitelisted[sender] >= amount || IFactory(owner()).getDP(address(this))==sender || sender==_issuer, \"Wallet sending request not whitelisted\");\r\n        _;\r\n    }\r\n\r\n    /**\r\n     * @dev Sets the values for {name} and {symbol}.\r\n     *\r\n     * The default value of {decimals} is 18. To select a different value for\r\n     * {decimals} you should overload it.\r\n     *\r\n     * All two of these values are immutable: they can only be set once during\r\n     * construction.\r\n     */\r\n    function initialize(bytes32 name_, bytes32 symbol_, address _owner, address issuer, address client) public initializer {\r\n        Ownable.initialize(_owner);\r\n        _name = string(abi.encodePacked(name_));\r\n        _symbol = string(abi.encodePacked(symbol_));\r\n        _issuer = issuer;\r\n        _client = VerifiedClient(client);\r\n    }\r\n\r\n    /**\r\n     * @dev Returns the name of the token.\r\n     */\r\n    function name() public view returns (string memory) {\r\n        return _name;\r\n    }\r\n\r\n    /**\r\n     * @dev Returns the symbol of the token, usually a shorter version of the\r\n     * name.\r\n     */\r\n    function symbol() public view returns (string memory) {\r\n        return _symbol;\r\n    }\r\n\r\n    /**\r\n     * Securities are indivisible, so returning decimal 0\r\n     */\r\n    function decimals() public view returns (uint8) {\r\n        return 18;\r\n    }\r\n\r\n    function mintToken(address issuer, uint256 amount) onlyOwner external{\r\n        _beforeTokenTransfer(address(0x0), issuer, amount);\r\n        _mint(issuer, amount);\r\n        holders.push(issuer);\r\n        holderIndex[issuer]=holders.length;\r\n        emit Mint(issuer, amount);\r\n    }\r\n\r\n    function transferToken(address transferor, address transferee, uint256 amount) onlyOwner external{\r\n        _beforeTokenTransfer(transferor, transferee, amount);\r\n        _transfer(transferor, transferee, amount);\r\n        if(holderIndex[transferee]==0){\r\n            holders.push(transferee);\r\n            holderIndex[transferee]=holders.length;\r\n        }\r\n    }\r\n\r\n    function whiteList(address spender, uint256 amount) onlyWhiteListed(_msgSender(), amount) external {\r\n        require(paused == false);\r\n        whitelisted[spender] = amount;\r\n    }\r\n\r\n    //can be used by primary and secondary issue manager contracts. These whitelisted contracts can also be frozen by the issuer.\r\n    function transfer(address recipient, uint256 amount) onlyWhiteListed(_msgSender(), amount) public returns (bool) {\r\n        require(paused == false);\r\n        require(balanceOf(_msgSender()).sub(amount) >= froze[_msgSender()], \"Funds transfer frozen\");\r\n        _beforeTokenTransfer(_msgSender(), recipient, amount);\r\n        _transfer(_msgSender(), recipient, amount);\r\n        if(holderIndex[recipient]==0){\r\n            holders.push(recipient);\r\n            holderIndex[recipient]=holders.length;\r\n        }\r\n        return true;\r\n    }\r\n\r\n    //called by user wallets to approve vaults to transfer tokens from them to the vault. \r\n    //Vaults need to be whitelisted by primary and secondary issue managers.\r\n    function approve(address spender, uint256 amount) onlyWhiteListed(spender, amount) public returns (bool) {\r\n        require(paused == false);\r\n        _approve(_msgSender(), spender, amount);\r\n        return true;\r\n    }\r\n\r\n    //can be used by primary and secondary issue manager contracts, as well as vaults to swap tokens from user wallets that have approved the vault.\r\n    function transferFrom(address sender, address recipient, uint256 amount) onlyWhiteListed(_msgSender(), amount) public returns (bool) {\r\n        require(paused == false);\r\n        require(balanceOf(sender).sub(amount) >= froze[sender], \"Funds transfer frozen\");\r\n        _beforeTokenTransfer(sender, recipient, amount);\r\n        _transfer(sender, recipient, amount);\r\n        _approve(sender, _msgSender(), allowance(sender, _msgSender()).sub(amount, \"ERC20: transfer amount exceeds allowance\"));\r\n        if(holderIndex[recipient]==0){\r\n            holders.push(recipient);\r\n            holderIndex[recipient]=holders.length;\r\n        }\r\n        return true;\r\n    }\r\n\r\n    function increaseAllowance(address spender, uint256 addedValue) public returns (bool) {\r\n        require(paused == false);\r\n        _approve(_msgSender(), spender, allowance(spender, _msgSender()).add(addedValue));\r\n        return true;\r\n    }\r\n\r\n    function decreaseAllowance(address spender, uint256 subtractedValue) public returns (bool) {\r\n        require(paused == false);\r\n        _approve(_msgSender(), spender, allowance(spender, _msgSender()).sub(subtractedValue, \"ERC20: decreased allowance below zero\"));\r\n        return true;\r\n    }\r\n\r\n    function freeze(address holder, uint256 amount) onlyIssueManager(_msgSender()) public {\r\n        require(paused == false);\r\n        froze[holder] = amount;\r\n        emit Freeze(_msgSender(), holder);\r\n    }\r\n\r\n    function unfreeze(address holder) onlyIssueManager(_msgSender()) public {\r\n        require(paused == false);\r\n        froze[holder] = 0;\r\n        emit Unfreeze(_msgSender(), holder);\r\n    }\r\n\r\n    function frozen(address account) public view returns (uint256) {\r\n        require(paused == false);\r\n        return froze[account];\r\n    }\r\n\r\n    function burn(address holder, uint256 amount) onlyIssueManager(_msgSender()) public {\r\n        require(paused == false);\r\n        _beforeTokenTransfer(holder, address(0x0), amount);\r\n        _burn(holder, amount);       \r\n        emit Burn(holder, amount); \r\n    }\r\n\r\n    function burnAll() onlyIssueManager(_msgSender()) public {\r\n        require(paused == false);\r\n        for(uint256 i=0; i<holders.length; i++){\r\n            _beforeTokenTransfer(holders[i], address(0x0), balanceOf(holders[i]));\r\n            _burn(holders[i], balanceOf(holders[i]));\r\n        }    \r\n    }\r\n\r\n    function scheduleSnapshot(uint256 time) onlyIssueManager(_msgSender()) public {\r\n        require(paused == false);\r\n        _scheduleSnapshot(time);\r\n    }\r\n\r\n    function rescheduleSnapshot(uint256 oldTime, uint256 newTime) onlyIssueManager(_msgSender()) public {\r\n        require(paused == false);\r\n        _rescheduleSnapshot(oldTime, newTime);\r\n    }\r\n\r\n    function unscheduleSnapshot(uint256 time) onlyIssueManager(_msgSender()) public {\r\n        require(paused == false);\r\n        _unscheduleSnapshot(time);\r\n    }\r\n\r\n    function createResolution(uint256 time, bool votes, string memory ipfsLink) onlyIssueManager(_msgSender()) public {\r\n        require(paused == false);\r\n        _createResolution(time, votes, ipfsLink);\r\n    }\r\n    \r\n    function countVotes(uint256 time) onlyIssueManager(_msgSender()) public view returns(uint256 total, uint256 yes){\r\n        require(paused == false);\r\n        uint256 voteCount = 0;\r\n        uint256 totalCount = 0;\r\n        if(keccak256(abi.encodePacked(resolutions[time])) != keccak256(abi.encodePacked(\"\"))){\r\n            if(voting[resolutions[time]]==true){                \r\n                for(uint256 i=0; i<holders.length; i++){\r\n                    if(snapshotBalanceOf(time, holders[i])>0){\r\n                        totalCount = totalCount + 1;\r\n                        if(votes[time][holders[i]]==true)\r\n                            voteCount = voteCount + 1;\r\n                    }\r\n                }\r\n            }\r\n        }\r\n        return (totalCount, voteCount);       \r\n    } \r\n\r\n    function payoutProrata(uint256 time, address wallet, address token, uint256 amount) onlyIssueManagerOrCustodian(_msgSender()) public {\r\n        require(paused == false);\r\n        require(snapshotTotalSupply(time)>0, \"No scheduled snapshot found for distribution\");\r\n        require(ERC20(token).balanceOf(wallet) >= amount, \"Not enough balance for distribution\");\r\n        require(token!=address(0x0) && wallet!=address(0x0) && amount>0, \"Invalid distribution\");\r\n        uint256 totalHoldings = snapshotTotalSupply(time);\r\n        for(uint256 i=0; i<holders.length; i++){\r\n            uint256 holding = snapshotBalanceOf(time, holders[i]);\r\n            if(holding > 0){\r\n                uint256 prorata = SafeMath.mul(SafeMath.div(holding, totalHoldings), amount);\r\n                ERC20(token).transferFrom(wallet, holders[i], prorata);\r\n                distributions[time][holders[i]].token = token;\r\n                distributions[time][holders[i]].amount = prorata;\r\n            }\r\n        }\r\n    }\r\n\r\n    function payout(uint256 time, address holder, address wallet, address token, uint256 amount) onlyIssueManagerOrCustodian(_msgSender()) public {\r\n        require(paused == false);\r\n        require(snapshotTotalSupply(time)>0, \"No scheduled snapshot found for distribution\");\r\n        require(ERC20(token).balanceOf(wallet) >= amount, \"Not enough balance for distribution\");\r\n        require(snapshotBalanceOf(time, holder)>0, \"Not a security token holder for payout\");\r\n        require(token!=address(0x0) && wallet!=address(0x0) && amount>0, \"Invalid distribution\");\r\n        ERC20(token).transferFrom(wallet, holder, amount);\r\n        distributions[time][holder].token = token;\r\n        distributions[time][holder].amount = amount;\r\n    }\r\n\r\n    function pause() onlyIssueManager(_msgSender()) public {\r\n        _pause();\r\n    }\r\n\r\n    function unpause() onlyIssueManager(_msgSender()) public {\r\n        _unpause();\r\n    }\r\n\r\n}\r\n\r\n",
  "sourcePath": "D:\\Code\\verified-securities\\contracts\\Security.sol",
  "compiler": {
    "name": "solc",
    "version": "0.5.7+commit.6da8b019.Emscripten.clang"
  },
  "schemaVersion": "3.4.3",
  "updatedAt": "2023-04-11T00:42:28.331Z",
  "networkType": "ethereum",
  "devdoc": {
    "methods": {
      "allowance(address,address)": {
        "details": "See {IERC20-allowance}."
      },
      "balanceOf(address)": {
        "details": "See {IERC20-balanceOf}."
      },
      "initialize(address)": {
        "details": "Initializes the contract setting the deployer as the initial owner."
      },
      "initialize(bytes32,bytes32,address,address,address)": {
        "details": "Sets the values for {name} and {symbol}.\r      * The default value of {decimals} is 18. To select a different value for\r {decimals} you should overload it.\r      * All two of these values are immutable: they can only be set once during\r construction.\r"
      },
      "isOwner()": {
        "details": "Returns true if the caller is the current owner."
      },
      "isPaused()": {
        "return": "True: contract is paused\rFalse: contract is not paused\r"
      },
      "name()": {
        "details": "Returns the name of the token.\r"
      },
      "owner()": {
        "details": "Returns the address of the current owner."
      },
      "renounceOwnership()": {
        "details": "Leaves the contract without owner. It will not be possible to call `onlyOwner` functions anymore. Can only be called by the current owner.     * > Note: Renouncing ownership will leave the contract without an owner, thereby removing any functionality that is only available to the owner."
      },
      "symbol()": {
        "details": "Returns the symbol of the token, usually a shorter version of the\r name.\r"
      },
      "totalSupply()": {
        "details": "See {IERC20-totalSupply}."
      },
      "transferOwnership(address)": {
        "details": "Transfers ownership of the contract to a new account (`newOwner`). Can only be called by the current owner."
      }
    }
  },
  "userdoc": {
    "methods": {
      "decimals()": {
        "notice": "Securities are indivisible, so returning decimal 0\r"
      },
      "isPaused()": {
        "notice": "returns whether or not the contract is paused\r"
      }
    }
  }
}