{
  "contractName": "Security",
  "abi": [
    {
      "constant": false,
      "inputs": [
        {
          "name": "spender",
          "type": "address"
        },
        {
          "name": "amount",
          "type": "uint256"
        }
      ],
      "name": "approve",
      "outputs": [
        {
          "name": "",
          "type": "bool"
        }
      ],
      "payable": false,
      "stateMutability": "nonpayable",
      "type": "function"
    },
    {
      "constant": true,
      "inputs": [],
      "name": "totalSupply",
      "outputs": [
        {
          "name": "",
          "type": "uint256"
        }
      ],
      "payable": false,
      "stateMutability": "view",
      "type": "function"
    },
    {
      "constant": false,
      "inputs": [
        {
          "name": "sender",
          "type": "address"
        },
        {
          "name": "recipient",
          "type": "address"
        },
        {
          "name": "amount",
          "type": "uint256"
        }
      ],
      "name": "transferFrom",
      "outputs": [
        {
          "name": "",
          "type": "bool"
        }
      ],
      "payable": false,
      "stateMutability": "nonpayable",
      "type": "function"
    },
    {
      "constant": false,
      "inputs": [
        {
          "name": "spender",
          "type": "address"
        },
        {
          "name": "addedValue",
          "type": "uint256"
        }
      ],
      "name": "increaseAllowance",
      "outputs": [
        {
          "name": "",
          "type": "bool"
        }
      ],
      "payable": false,
      "stateMutability": "nonpayable",
      "type": "function"
    },
    {
      "constant": true,
      "inputs": [
        {
          "name": "account",
          "type": "address"
        }
      ],
      "name": "balanceOf",
      "outputs": [
        {
          "name": "",
          "type": "uint256"
        }
      ],
      "payable": false,
      "stateMutability": "view",
      "type": "function"
    },
    {
      "constant": false,
      "inputs": [],
      "name": "renounceOwnership",
      "outputs": [],
      "payable": false,
      "stateMutability": "nonpayable",
      "type": "function"
    },
    {
      "constant": true,
      "inputs": [],
      "name": "owner",
      "outputs": [
        {
          "name": "",
          "type": "address"
        }
      ],
      "payable": false,
      "stateMutability": "view",
      "type": "function"
    },
    {
      "constant": true,
      "inputs": [],
      "name": "isOwner",
      "outputs": [
        {
          "name": "",
          "type": "bool"
        }
      ],
      "payable": false,
      "stateMutability": "view",
      "type": "function"
    },
    {
      "constant": false,
      "inputs": [
        {
          "name": "spender",
          "type": "address"
        },
        {
          "name": "subtractedValue",
          "type": "uint256"
        }
      ],
      "name": "decreaseAllowance",
      "outputs": [
        {
          "name": "",
          "type": "bool"
        }
      ],
      "payable": false,
      "stateMutability": "nonpayable",
      "type": "function"
    },
    {
      "constant": false,
      "inputs": [
        {
          "name": "recipient",
          "type": "address"
        },
        {
          "name": "amount",
          "type": "uint256"
        }
      ],
      "name": "transfer",
      "outputs": [
        {
          "name": "",
          "type": "bool"
        }
      ],
      "payable": false,
      "stateMutability": "nonpayable",
      "type": "function"
    },
    {
      "constant": true,
      "inputs": [
        {
          "name": "owner",
          "type": "address"
        },
        {
          "name": "spender",
          "type": "address"
        }
      ],
      "name": "allowance",
      "outputs": [
        {
          "name": "",
          "type": "uint256"
        }
      ],
      "payable": false,
      "stateMutability": "view",
      "type": "function"
    },
    {
      "constant": false,
      "inputs": [
        {
          "name": "newOwner",
          "type": "address"
        }
      ],
      "name": "transferOwnership",
      "outputs": [],
      "payable": false,
      "stateMutability": "nonpayable",
      "type": "function"
    },
    {
      "anonymous": false,
      "inputs": [
        {
          "indexed": true,
          "name": "previousOwner",
          "type": "address"
        },
        {
          "indexed": true,
          "name": "newOwner",
          "type": "address"
        }
      ],
      "name": "OwnershipTransferred",
      "type": "event"
    },
    {
      "anonymous": false,
      "inputs": [
        {
          "indexed": true,
          "name": "from",
          "type": "address"
        },
        {
          "indexed": true,
          "name": "to",
          "type": "address"
        },
        {
          "indexed": false,
          "name": "value",
          "type": "uint256"
        }
      ],
      "name": "Transfer",
      "type": "event"
    },
    {
      "anonymous": false,
      "inputs": [
        {
          "indexed": true,
          "name": "owner",
          "type": "address"
        },
        {
          "indexed": true,
          "name": "spender",
          "type": "address"
        },
        {
          "indexed": false,
          "name": "value",
          "type": "uint256"
        }
      ],
      "name": "Approval",
      "type": "event"
    },
    {
      "constant": false,
      "inputs": [
        {
          "name": "name_",
          "type": "bytes32"
        },
        {
          "name": "symbol_",
          "type": "bytes32"
        },
        {
          "name": "_owner",
          "type": "address"
        }
      ],
      "name": "initialize",
      "outputs": [],
      "payable": false,
      "stateMutability": "nonpayable",
      "type": "function"
    },
    {
      "constant": false,
      "inputs": [
        {
          "name": "sender",
          "type": "address"
        }
      ],
      "name": "initialize",
      "outputs": [],
      "payable": false,
      "stateMutability": "nonpayable",
      "type": "function"
    },
    {
      "constant": true,
      "inputs": [],
      "name": "name",
      "outputs": [
        {
          "name": "",
          "type": "string"
        }
      ],
      "payable": false,
      "stateMutability": "view",
      "type": "function"
    },
    {
      "constant": true,
      "inputs": [],
      "name": "symbol",
      "outputs": [
        {
          "name": "",
          "type": "string"
        }
      ],
      "payable": false,
      "stateMutability": "view",
      "type": "function"
    },
    {
      "constant": true,
      "inputs": [],
      "name": "decimals",
      "outputs": [
        {
          "name": "",
          "type": "uint8"
        }
      ],
      "payable": false,
      "stateMutability": "view",
      "type": "function"
    },
    {
      "constant": false,
      "inputs": [
        {
          "name": "transferor",
          "type": "address"
        },
        {
          "name": "transferee",
          "type": "address"
        },
        {
          "name": "amount",
          "type": "uint256"
        }
      ],
      "name": "transferToken",
      "outputs": [],
      "payable": false,
      "stateMutability": "nonpayable",
      "type": "function"
    },
    {
      "constant": false,
      "inputs": [
        {
          "name": "issuer",
          "type": "address"
        },
        {
          "name": "amount",
          "type": "uint256"
        }
      ],
      "name": "mintToken",
      "outputs": [],
      "payable": false,
      "stateMutability": "nonpayable",
      "type": "function"
    },
    {
      "constant": false,
      "inputs": [
        {
          "name": "owner",
          "type": "address"
        },
        {
          "name": "spender",
          "type": "address"
        },
        {
          "name": "amount",
          "type": "uint256"
        }
      ],
      "name": "approveToken",
      "outputs": [],
      "payable": false,
      "stateMutability": "nonpayable",
      "type": "function"
    }
  ],
  "bytecode": "0x608060405261125a806100136000396000f3fe608060405234801561001057600080fd5b506004361061012c5760003560e01c80638da5cb5b116100ad578063c4d66de811610071578063c4d66de8146103a2578063da3e3397146103c8578063dd62ed3e146103fe578063f2fde38b1461042c578063f5537ede146104525761012c565b80638da5cb5b146103165780638f32d59b1461033a57806395d89b4114610342578063a457c2d71461034a578063a9059cbb146103765761012c565b806339509351116100f4578063395093511461025c57806370a0823114610288578063715018a6146102ae57806379172222146102b857806379c65068146102ea5761012c565b806306fdde0314610131578063095ea7b3146101ae57806318160ddd146101ee57806323b872dd14610208578063313ce5671461023e575b600080fd5b610139610488565b6040805160208082528351818301528351919283929083019185019080838360005b8381101561017357818101518382015260200161015b565b50505050905090810190601f1680156101a05780820380516001836020036101000a031916815260200191505b509250505060405180910390f35b6101da600480360360408110156101c457600080fd5b506001600160a01b03813516906020013561051f565b604080519115158252519081900360200190f35b6101f661053c565b60408051918252519081900360200190f35b6101da6004803603606081101561021e57600080fd5b506001600160a01b03813581169160208101359091169060400135610542565b6102466105cf565b6040805160ff9092168252519081900360200190f35b6101da6004803603604081101561027257600080fd5b506001600160a01b0381351690602001356105d4565b6101f66004803603602081101561029e57600080fd5b50356001600160a01b0316610628565b6102b6610643565b005b6102b6600480360360608110156102ce57600080fd5b50803590602081013590604001356001600160a01b03166106d7565b6102b66004803603604081101561030057600080fd5b506001600160a01b0381351690602001356107e0565b61031e610838565b604080516001600160a01b039092168252519081900360200190f35b6101da610847565b61013961086d565b6101da6004803603604081101561036057600080fd5b506001600160a01b0381351690602001356108ce565b6101da6004803603604081101561038c57600080fd5b506001600160a01b03813516906020013561093c565b6102b6600480360360208110156103b857600080fd5b50356001600160a01b0316610950565b6102b6600480360360608110156103de57600080fd5b506001600160a01b03813581169160208101359091169060400135610a44565b6101f66004803603604081101561041457600080fd5b506001600160a01b0381358116916020013516610a54565b6102b66004803603602081101561044257600080fd5b50356001600160a01b0316610a7f565b6102b66004803603606081101561046857600080fd5b506001600160a01b03813581169160208101359091169060400135610ad5565b609b8054604080516020601f60026000196101006001881615020190951694909404938401819004810282018101909252828152606093909290918301828280156105145780601f106104e957610100808354040283529160200191610514565b820191906000526020600020905b8154815290600101906020018083116104f757829003601f168201915b505050505090505b90565b600061053361052c610b2a565b8484610b2e565b50600192915050565b60355490565b600061054f848484610c20565b6105c58461055b610b2a565b6105c08560405180606001604052806028815260200161114b602891396001600160a01b038a16600090815260346020526040812090610599610b2a565b6001600160a01b03168152602081019190915260400160002054919063ffffffff610d8416565b610b2e565b5060019392505050565b601290565b60006105336105e1610b2a565b846105c085603460006105f2610b2a565b6001600160a01b03908116825260208083019390935260409182016000908120918c16815292529020549063ffffffff610e1e16565b6001600160a01b031660009081526033602052604090205490565b61064b610847565b61068d5760408051600160e51b62461bcd0281526020600482018190526024820152600080516020611173833981519152604482015290519081900360640190fd5b6068546040516000916001600160a01b0316907f8be0079c531659141344cd1fd0a4f28419497f9722a3daafe3b4186f6b6457e0908390a3606880546001600160a01b0319169055565b600054610100900460ff16806106f057506106f0610e82565b806106fe575060005460ff16155b61073c57604051600160e51b62461bcd02815260040180806020018281038252602e815260200180611193602e913960400191505060405180910390fd5b600054610100900460ff16158015610767576000805460ff1961ff0019909116610100171660011790555b61077082610950565b604080516020808201879052825180830382018152918301909252805161079b92609b920190611021565b5060408051602080820186905282518083038201815291830190925280516107c792609c920190611021565b5080156107da576000805461ff00191690555b50505050565b6107e8610847565b61082a5760408051600160e51b62461bcd0281526020600482018190526024820152600080516020611173833981519152604482015290519081900360640190fd5b6108348282610e88565b5050565b6068546001600160a01b031690565b6068546000906001600160a01b031661085e610b2a565b6001600160a01b031614905090565b609c8054604080516020601f60026000196101006001881615020190951694909404938401819004810282018101909252828152606093909290918301828280156105145780601f106104e957610100808354040283529160200191610514565b60006105336108db610b2a565b846105c08560405180606001604052806025815260200161120a6025913960346000610905610b2a565b6001600160a01b03908116825260208083019390935260409182016000908120918d1681529252902054919063ffffffff610d8416565b6000610533610949610b2a565b8484610c20565b600054610100900460ff16806109695750610969610e82565b80610977575060005460ff16155b6109b557604051600160e51b62461bcd02815260040180806020018281038252602e815260200180611193602e913960400191505060405180910390fd5b600054610100900460ff161580156109e0576000805460ff1961ff0019909116610100171660011790555b606880546001600160a01b0319166001600160a01b0384811691909117918290556040519116906000907f8be0079c531659141344cd1fd0a4f28419497f9722a3daafe3b4186f6b6457e0908290a38015610834576000805461ff00191690555050565b610a4f838383610b2e565b505050565b6001600160a01b03918216600090815260346020908152604080832093909416825291909152205490565b610a87610847565b610ac95760408051600160e51b62461bcd0281526020600482018190526024820152600080516020611173833981519152604482015290519081900360640190fd5b610ad281610f7d565b50565b610add610847565b610b1f5760408051600160e51b62461bcd0281526020600482018190526024820152600080516020611173833981519152604482015290519081900360640190fd5b610a4f838383610c20565b3390565b6001600160a01b038316610b7657604051600160e51b62461bcd0281526004018080602001828103825260248152602001806111e66024913960400191505060405180910390fd5b6001600160a01b038216610bbe57604051600160e51b62461bcd0281526004018080602001828103825260228152602001806111036022913960400191505060405180910390fd5b6001600160a01b03808416600081815260346020908152604080832094871680845294825291829020859055815185815291517f8c5be1e5ebec7d5bd14f71427d1e84f3dd0314c0f7b2291e5b200ac8c7c3b9259281900390910190a3505050565b6001600160a01b038316610c6857604051600160e51b62461bcd0281526004018080602001828103825260258152602001806111c16025913960400191505060405180910390fd5b6001600160a01b038216610cb057604051600160e51b62461bcd0281526004018080602001828103825260238152602001806110ba6023913960400191505060405180910390fd5b610cf381604051806060016040528060268152602001611125602691396001600160a01b038616600090815260336020526040902054919063ffffffff610d8416565b6001600160a01b038085166000908152603360205260408082209390935590841681522054610d28908263ffffffff610e1e16565b6001600160a01b0380841660008181526033602090815260409182902094909455805185815290519193928716927fddf252ad1be2c89b69c2b068fc378daa952ba7f163c4a11628f55a4df523b3ef92918290030190a3505050565b60008184841115610e1657604051600160e51b62461bcd0281526004018080602001828103825283818151815260200191508051906020019080838360005b83811015610ddb578181015183820152602001610dc3565b50505050905090810190601f168015610e085780820380516001836020036101000a031916815260200191505b509250505060405180910390fd5b505050900390565b600082820183811015610e7b5760408051600160e51b62461bcd02815260206004820152601b60248201527f536166654d6174683a206164646974696f6e206f766572666c6f770000000000604482015290519081900360640190fd5b9392505050565b303b1590565b6001600160a01b038216610ee65760408051600160e51b62461bcd02815260206004820152601f60248201527f45524332303a206d696e7420746f20746865207a65726f206164647265737300604482015290519081900360640190fd5b603554610ef9908263ffffffff610e1e16565b6035556001600160a01b038216600090815260336020526040902054610f25908263ffffffff610e1e16565b6001600160a01b03831660008181526033602090815260408083209490945583518581529351929391927fddf252ad1be2c89b69c2b068fc378daa952ba7f163c4a11628f55a4df523b3ef9281900390910190a35050565b6001600160a01b038116610fc557604051600160e51b62461bcd0281526004018080602001828103825260268152602001806110dd6026913960400191505060405180910390fd5b6068546040516001600160a01b038084169216907f8be0079c531659141344cd1fd0a4f28419497f9722a3daafe3b4186f6b6457e090600090a3606880546001600160a01b0319166001600160a01b0392909216919091179055565b828054600181600116156101000203166002900490600052602060002090601f016020900481019282601f1061106257805160ff191683800117855561108f565b8280016001018555821561108f579182015b8281111561108f578251825591602001919060010190611074565b5061109b92915061109f565b5090565b61051c91905b8082111561109b57600081556001016110a556fe45524332303a207472616e7366657220746f20746865207a65726f20616464726573734f776e61626c653a206e6577206f776e657220697320746865207a65726f206164647265737345524332303a20617070726f766520746f20746865207a65726f206164647265737345524332303a207472616e7366657220616d6f756e7420657863656564732062616c616e636545524332303a207472616e7366657220616d6f756e74206578636565647320616c6c6f77616e63654f776e61626c653a2063616c6c6572206973206e6f7420746865206f776e6572436f6e747261637420696e7374616e63652068617320616c7265616479206265656e20696e697469616c697a656445524332303a207472616e736665722066726f6d20746865207a65726f206164647265737345524332303a20617070726f76652066726f6d20746865207a65726f206164647265737345524332303a2064656372656173656420616c6c6f77616e63652062656c6f77207a65726fa165627a7a72305820cb2ec0ef8038c6ef6c85fd940a4bcc7b7525c7b649af6e6f2bb1dcbae9205b650029",
  "source": "// Verified securities manager that updates holdings of securities by users\r\n// (c) Kallol Borah, 2021\r\n\r\npragma solidity 0.5.7;\r\n\r\nimport \"./interfaces/ISecurity.sol\";\r\nimport \"@openzeppelin/contracts-ethereum-package/contracts/ownership/Ownable.sol\";\r\nimport \"@openzeppelin/contracts-ethereum-package/contracts/token/ERC20/ERC20.sol\";\r\n\r\ncontract Security is ISecurity, ERC20, Ownable {\r\n\r\n    string private _name;\r\n    string private _symbol;\r\n\r\n    /**\r\n     * @dev Sets the values for {name} and {symbol}.\r\n     *\r\n     * The default value of {decimals} is 18. To select a different value for\r\n     * {decimals} you should overload it.\r\n     *\r\n     * All two of these values are immutable: they can only be set once during\r\n     * construction.\r\n     */\r\n    function initialize(bytes32 name_, bytes32 symbol_, address _owner) public initializer {\r\n        Ownable.initialize(_owner);\r\n        _name = string(abi.encodePacked(name_));\r\n        _symbol = string(abi.encodePacked(symbol_));\r\n    }\r\n\r\n    /**\r\n     * @dev Returns the name of the token.\r\n     */\r\n    function name() public view returns (string memory) {\r\n        return _name;\r\n    }\r\n\r\n    /**\r\n     * @dev Returns the symbol of the token, usually a shorter version of the\r\n     * name.\r\n     */\r\n    function symbol() public view returns (string memory) {\r\n        return _symbol;\r\n    }\r\n\r\n    /**\r\n     * @dev Returns the number of decimals used to get its user representation.\r\n     * For example, if `decimals` equals `2`, a balance of `505` tokens should\r\n     * be displayed to a user as `5.05` (`505 / 10 ** 2`).\r\n     *\r\n     * Tokens usually opt for a value of 18, imitating the relationship between\r\n     * Ether and Wei. This is the value {ERC20} uses, unless this function is\r\n     * overridden;\r\n     *\r\n     * NOTE: This information is only used for _display_ purposes: it in\r\n     * no way affects any of the arithmetic of the contract, including\r\n     * {IERC20-balanceOf} and {IERC20-transfer}.\r\n     */\r\n    function decimals() public view returns (uint8) {\r\n        return 18;\r\n    }\r\n\r\n    function transferToken(address transferor, address transferee, uint256 amount) onlyOwner external{\r\n        _transfer(transferor, transferee, amount);\r\n    }\r\n\r\n    function mintToken(address issuer, uint256 amount) onlyOwner external{\r\n        _mint(issuer, amount);\r\n    }\r\n\r\n    function approveToken(address owner, address spender, uint256 amount) external {\r\n        _approve(owner, spender, amount);\r\n    }\r\n\r\n}\r\n\r\n",
  "sourcePath": "D:\\Code\\verified-securities\\contracts\\Security.sol",
  "compiler": {
    "name": "solc",
    "version": "0.5.7+commit.6da8b019.Emscripten.clang"
  },
  "schemaVersion": "3.4.3",
  "updatedAt": "2023-02-26T00:23:38.615Z",
  "networkType": "ethereum",
  "devdoc": {
    "methods": {
      "allowance(address,address)": {
        "details": "See {IERC20-allowance}."
      },
      "approve(address,uint256)": {
        "details": "See {IERC20-approve}.     * Requirements:     * - `spender` cannot be the zero address."
      },
      "balanceOf(address)": {
        "details": "See {IERC20-balanceOf}."
      },
      "decimals()": {
        "details": "Returns the number of decimals used to get its user representation.\r For example, if `decimals` equals `2`, a balance of `505` tokens should\r be displayed to a user as `5.05` (`505 / 10 ** 2`).\r      * Tokens usually opt for a value of 18, imitating the relationship between\r Ether and Wei. This is the value {ERC20} uses, unless this function is\r overridden;\r      * NOTE: This information is only used for _display_ purposes: it in\r no way affects any of the arithmetic of the contract, including\r {IERC20-balanceOf} and {IERC20-transfer}.\r"
      },
      "decreaseAllowance(address,uint256)": {
        "details": "Atomically decreases the allowance granted to `spender` by the caller.     * This is an alternative to {approve} that can be used as a mitigation for problems described in {IERC20-approve}.     * Emits an {Approval} event indicating the updated allowance.     * Requirements:     * - `spender` cannot be the zero address. - `spender` must have allowance for the caller of at least `subtractedValue`."
      },
      "increaseAllowance(address,uint256)": {
        "details": "Atomically increases the allowance granted to `spender` by the caller.     * This is an alternative to {approve} that can be used as a mitigation for problems described in {IERC20-approve}.     * Emits an {Approval} event indicating the updated allowance.     * Requirements:     * - `spender` cannot be the zero address."
      },
      "initialize(address)": {
        "details": "Initializes the contract setting the deployer as the initial owner."
      },
      "initialize(bytes32,bytes32,address)": {
        "details": "Sets the values for {name} and {symbol}.\r      * The default value of {decimals} is 18. To select a different value for\r {decimals} you should overload it.\r      * All two of these values are immutable: they can only be set once during\r construction.\r"
      },
      "isOwner()": {
        "details": "Returns true if the caller is the current owner."
      },
      "name()": {
        "details": "Returns the name of the token.\r"
      },
      "owner()": {
        "details": "Returns the address of the current owner."
      },
      "renounceOwnership()": {
        "details": "Leaves the contract without owner. It will not be possible to call `onlyOwner` functions anymore. Can only be called by the current owner.     * > Note: Renouncing ownership will leave the contract without an owner, thereby removing any functionality that is only available to the owner."
      },
      "symbol()": {
        "details": "Returns the symbol of the token, usually a shorter version of the\r name.\r"
      },
      "totalSupply()": {
        "details": "See {IERC20-totalSupply}."
      },
      "transfer(address,uint256)": {
        "details": "See {IERC20-transfer}.     * Requirements:     * - `recipient` cannot be the zero address. - the caller must have a balance of at least `amount`."
      },
      "transferFrom(address,address,uint256)": {
        "details": "See {IERC20-transferFrom}.     * Emits an {Approval} event indicating the updated allowance. This is not required by the EIP. See the note at the beginning of {ERC20};     * Requirements: - `sender` and `recipient` cannot be the zero address. - `sender` must have a balance of at least `amount`. - the caller must have allowance for `sender`'s tokens of at least `amount`."
      },
      "transferOwnership(address)": {
        "details": "Transfers ownership of the contract to a new account (`newOwner`). Can only be called by the current owner."
      }
    }
  },
  "userdoc": {
    "methods": {}
  }
}