{
  "contractName": "Stocks",
  "abi": [
    {
      "constant": false,
      "inputs": [
        {
          "name": "_byTime",
          "type": "uint256"
        }
      ],
      "name": "isAllPaidFor",
      "outputs": [
        {
          "name": "",
          "type": "address[]"
        }
      ],
      "payable": false,
      "stateMutability": "nonpayable",
      "type": "function"
    },
    {
      "constant": false,
      "inputs": [
        {
          "name": "platform",
          "type": "address"
        },
        {
          "components": [
            {
              "name": "owner",
              "type": "address"
            },
            {
              "name": "amountOffered",
              "type": "uint256"
            },
            {
              "name": "amountDesired",
              "type": "uint256"
            },
            {
              "name": "min",
              "type": "uint256"
            },
            {
              "name": "isin",
              "type": "bytes32"
            }
          ],
          "name": "lps",
          "type": "tuple[]"
        }
      ],
      "name": "setLiquidityProviders",
      "outputs": [],
      "payable": false,
      "stateMutability": "nonpayable",
      "type": "function"
    },
    {
      "constant": false,
      "inputs": [
        {
          "name": "_beneficiary",
          "type": "address"
        },
        {
          "name": "_currency",
          "type": "bytes32"
        },
        {
          "name": "_amount",
          "type": "uint256"
        }
      ],
      "name": "payOut",
      "outputs": [],
      "payable": false,
      "stateMutability": "nonpayable",
      "type": "function"
    },
    {
      "constant": false,
      "inputs": [
        {
          "name": "platform",
          "type": "address"
        }
      ],
      "name": "getLiquidityProviders",
      "outputs": [
        {
          "components": [
            {
              "name": "owner",
              "type": "address"
            },
            {
              "name": "tokenOffered",
              "type": "address"
            },
            {
              "name": "underwritten",
              "type": "uint256"
            },
            {
              "name": "subscribed",
              "type": "uint256"
            },
            {
              "name": "earned",
              "type": "uint256"
            }
          ],
          "name": "",
          "type": "tuple[]"
        }
      ],
      "payable": false,
      "stateMutability": "nonpayable",
      "type": "function"
    },
    {
      "constant": true,
      "inputs": [],
      "name": "getOwner",
      "outputs": [
        {
          "name": "",
          "type": "address"
        }
      ],
      "payable": false,
      "stateMutability": "view",
      "type": "function"
    },
    {
      "constant": true,
      "inputs": [],
      "name": "getBeneficiaries",
      "outputs": [
        {
          "name": "",
          "type": "address[]"
        }
      ],
      "payable": false,
      "stateMutability": "view",
      "type": "function"
    },
    {
      "constant": false,
      "inputs": [
        {
          "name": "_productReference",
          "type": "bytes32"
        },
        {
          "name": "_productCategory",
          "type": "bytes32"
        },
        {
          "name": "_issuer",
          "type": "address"
        },
        {
          "name": "_registrar",
          "type": "address"
        },
        {
          "name": "_owner",
          "type": "address"
        },
        {
          "name": "_securityContract",
          "type": "address"
        },
        {
          "name": "_securityRegistriesContract",
          "type": "address"
        },
        {
          "name": "_viaFactoryContract",
          "type": "address"
        },
        {
          "name": "_poolFactoryContract",
          "type": "address"
        }
      ],
      "name": "initialize",
      "outputs": [],
      "payable": false,
      "stateMutability": "nonpayable",
      "type": "function"
    },
    {
      "constant": false,
      "inputs": [
        {
          "name": "_liquidityPlatform",
          "type": "address"
        }
      ],
      "name": "registerPlatform",
      "outputs": [],
      "payable": false,
      "stateMutability": "nonpayable",
      "type": "function"
    },
    {
      "constant": false,
      "inputs": [],
      "name": "getDateOfIssue",
      "outputs": [
        {
          "name": "day",
          "type": "uint256"
        },
        {
          "name": "month",
          "type": "uint256"
        },
        {
          "name": "year",
          "type": "uint256"
        }
      ],
      "payable": false,
      "stateMutability": "nonpayable",
      "type": "function"
    },
    {
      "constant": false,
      "inputs": [
        {
          "name": "platform",
          "type": "address"
        },
        {
          "name": "securityToken",
          "type": "address"
        },
        {
          "name": "pools",
          "type": "bytes32[]"
        },
        {
          "name": "status",
          "type": "bool"
        }
      ],
      "name": "setPlatformPools",
      "outputs": [],
      "payable": false,
      "stateMutability": "nonpayable",
      "type": "function"
    },
    {
      "constant": false,
      "inputs": [
        {
          "name": "_beneficiary",
          "type": "address"
        }
      ],
      "name": "getPaymentStatusFor",
      "outputs": [
        {
          "components": [
            {
              "name": "currency",
              "type": "bytes32"
            },
            {
              "name": "amount",
              "type": "uint256"
            },
            {
              "name": "payoutDate",
              "type": "uint256"
            },
            {
              "name": "payer",
              "type": "address"
            }
          ],
          "name": "",
          "type": "tuple[]"
        }
      ],
      "payable": false,
      "stateMutability": "nonpayable",
      "type": "function"
    },
    {
      "constant": false,
      "inputs": [
        {
          "name": "platform",
          "type": "address"
        },
        {
          "name": "pool",
          "type": "bytes32"
        },
        {
          "components": [
            {
              "name": "investor",
              "type": "address"
            },
            {
              "name": "asset",
              "type": "address"
            },
            {
              "name": "name",
              "type": "bytes32"
            },
            {
              "name": "amount",
              "type": "uint256"
            },
            {
              "name": "price",
              "type": "uint256"
            }
          ],
          "name": "eois",
          "type": "tuple[]"
        }
      ],
      "name": "setPlatformSubscribers",
      "outputs": [],
      "payable": false,
      "stateMutability": "nonpayable",
      "type": "function"
    },
    {
      "anonymous": false,
      "inputs": [
        {
          "indexed": false,
          "name": "issueSize",
          "type": "uint256"
        },
        {
          "indexed": false,
          "name": "offerPrice",
          "type": "uint256"
        },
        {
          "indexed": false,
          "name": "minAskPrice",
          "type": "uint256"
        },
        {
          "indexed": false,
          "name": "minSubscription",
          "type": "uint256"
        },
        {
          "indexed": false,
          "name": "currency",
          "type": "bytes32"
        },
        {
          "indexed": false,
          "name": "security",
          "type": "address"
        },
        {
          "indexed": false,
          "name": "offerType",
          "type": "bytes32"
        },
        {
          "indexed": false,
          "name": "isin",
          "type": "bytes32"
        },
        {
          "indexed": false,
          "name": "status",
          "type": "bytes32"
        },
        {
          "indexed": false,
          "name": "productCategory",
          "type": "bytes32"
        }
      ],
      "name": "issued",
      "type": "event"
    },
    {
      "anonymous": false,
      "inputs": [
        {
          "indexed": false,
          "name": "security",
          "type": "address"
        },
        {
          "indexed": false,
          "name": "status",
          "type": "bytes32"
        }
      ],
      "name": "offered",
      "type": "event"
    },
    {
      "anonymous": false,
      "inputs": [
        {
          "indexed": false,
          "name": "security",
          "type": "address"
        },
        {
          "indexed": false,
          "name": "status",
          "type": "bytes32"
        }
      ],
      "name": "opened",
      "type": "event"
    },
    {
      "anonymous": false,
      "inputs": [
        {
          "indexed": false,
          "name": "security",
          "type": "address"
        },
        {
          "indexed": false,
          "name": "status",
          "type": "bytes32"
        }
      ],
      "name": "closed",
      "type": "event"
    },
    {
      "anonymous": false,
      "inputs": [
        {
          "indexed": false,
          "name": "security",
          "type": "address"
        },
        {
          "indexed": false,
          "name": "status",
          "type": "bytes32"
        }
      ],
      "name": "allotted",
      "type": "event"
    },
    {
      "anonymous": false,
      "inputs": [
        {
          "indexed": false,
          "name": "platform",
          "type": "address"
        },
        {
          "indexed": false,
          "name": "security",
          "type": "address"
        },
        {
          "indexed": false,
          "name": "isin",
          "type": "bytes32"
        },
        {
          "indexed": false,
          "name": "issueSize",
          "type": "uint256"
        },
        {
          "indexed": false,
          "name": "currency",
          "type": "address"
        },
        {
          "indexed": false,
          "name": "offerPrice",
          "type": "uint256"
        },
        {
          "indexed": false,
          "name": "minAskPrice",
          "type": "uint256"
        },
        {
          "indexed": false,
          "name": "minSubscription",
          "type": "uint256"
        },
        {
          "indexed": false,
          "name": "issuer",
          "type": "address"
        }
      ],
      "name": "offer",
      "type": "event"
    },
    {
      "anonymous": false,
      "inputs": [
        {
          "indexed": false,
          "name": "platform",
          "type": "address"
        },
        {
          "indexed": false,
          "name": "security",
          "type": "address"
        },
        {
          "indexed": false,
          "name": "cutOffTime",
          "type": "uint256"
        },
        {
          "indexed": false,
          "name": "issuer",
          "type": "address"
        }
      ],
      "name": "start",
      "type": "event"
    },
    {
      "anonymous": false,
      "inputs": [
        {
          "indexed": false,
          "name": "platform",
          "type": "address"
        },
        {
          "indexed": false,
          "name": "security",
          "type": "address"
        },
        {
          "indexed": false,
          "name": "issuer",
          "type": "address"
        }
      ],
      "name": "close",
      "type": "event"
    },
    {
      "anonymous": false,
      "inputs": [
        {
          "indexed": false,
          "name": "platform",
          "type": "address"
        },
        {
          "indexed": false,
          "name": "pool",
          "type": "bytes32"
        },
        {
          "indexed": false,
          "name": "issuer",
          "type": "address"
        }
      ],
      "name": "subscriptions",
      "type": "event"
    },
    {
      "anonymous": false,
      "inputs": [
        {
          "indexed": false,
          "name": "platform",
          "type": "address"
        },
        {
          "indexed": false,
          "name": "pool",
          "type": "bytes32"
        },
        {
          "indexed": false,
          "name": "investor",
          "type": "address"
        },
        {
          "indexed": false,
          "name": "amount",
          "type": "uint256"
        },
        {
          "indexed": false,
          "name": "asset",
          "type": "address"
        },
        {
          "indexed": false,
          "name": "issuer",
          "type": "address"
        }
      ],
      "name": "accept",
      "type": "event"
    },
    {
      "anonymous": false,
      "inputs": [
        {
          "indexed": false,
          "name": "platform",
          "type": "address"
        },
        {
          "indexed": false,
          "name": "pool",
          "type": "bytes32"
        },
        {
          "indexed": false,
          "name": "issuer",
          "type": "address"
        }
      ],
      "name": "settle",
      "type": "event"
    },
    {
      "anonymous": false,
      "inputs": [
        {
          "indexed": false,
          "name": "platform",
          "type": "address"
        },
        {
          "indexed": false,
          "name": "pool",
          "type": "bytes32"
        },
        {
          "indexed": false,
          "name": "investor",
          "type": "address"
        },
        {
          "indexed": false,
          "name": "issuer",
          "type": "address"
        }
      ],
      "name": "reject",
      "type": "event"
    },
    {
      "anonymous": false,
      "inputs": [
        {
          "indexed": false,
          "name": "platform",
          "type": "address"
        },
        {
          "indexed": false,
          "name": "security",
          "type": "address"
        },
        {
          "indexed": false,
          "name": "issuer",
          "type": "address"
        }
      ],
      "name": "getLP",
      "type": "event"
    },
    {
      "constant": false,
      "inputs": [
        {
          "name": "_issueSize",
          "type": "uint256"
        },
        {
          "name": "_offerPrice",
          "type": "uint256"
        },
        {
          "name": "_minAskPrice",
          "type": "uint256"
        },
        {
          "name": "_minSubscription",
          "type": "uint256"
        },
        {
          "name": "_currency",
          "type": "bytes32"
        },
        {
          "name": "_offerType",
          "type": "bytes32"
        },
        {
          "name": "_isin",
          "type": "bytes32"
        },
        {
          "name": "_offeringDocuments",
          "type": "string"
        }
      ],
      "name": "issueShare",
      "outputs": [],
      "payable": false,
      "stateMutability": "nonpayable",
      "type": "function"
    },
    {
      "constant": true,
      "inputs": [],
      "name": "getShare",
      "outputs": [
        {
          "components": [
            {
              "name": "issueSize",
              "type": "uint256"
            },
            {
              "name": "faceValue",
              "type": "uint256"
            },
            {
              "name": "offerPrice",
              "type": "uint256"
            },
            {
              "name": "minAskPrice",
              "type": "uint256"
            },
            {
              "name": "minSubscription",
              "type": "uint256"
            },
            {
              "name": "currency",
              "type": "bytes32"
            },
            {
              "name": "security",
              "type": "address"
            }
          ],
          "name": "",
          "type": "tuple[]"
        },
        {
          "components": [
            {
              "name": "offerType",
              "type": "bytes32"
            },
            {
              "name": "isin",
              "type": "bytes32"
            },
            {
              "name": "status",
              "type": "bytes32"
            },
            {
              "name": "offeringDocuments",
              "type": "string"
            }
          ],
          "name": "",
          "type": "tuple"
        }
      ],
      "payable": false,
      "stateMutability": "view",
      "type": "function"
    },
    {
      "constant": false,
      "inputs": [],
      "name": "askOffers",
      "outputs": [],
      "payable": false,
      "stateMutability": "nonpayable",
      "type": "function"
    },
    {
      "constant": false,
      "inputs": [
        {
          "name": "cutOffTime",
          "type": "uint256"
        }
      ],
      "name": "startIssue",
      "outputs": [],
      "payable": false,
      "stateMutability": "nonpayable",
      "type": "function"
    },
    {
      "constant": false,
      "inputs": [],
      "name": "getSubscribers",
      "outputs": [
        {
          "components": [
            {
              "name": "currency",
              "type": "bytes32"
            },
            {
              "name": "amount",
              "type": "uint256"
            },
            {
              "name": "price",
              "type": "uint256"
            },
            {
              "name": "poolid",
              "type": "bytes32"
            },
            {
              "name": "status",
              "type": "bool"
            },
            {
              "name": "platform",
              "type": "address"
            },
            {
              "name": "investor",
              "type": "address"
            },
            {
              "name": "asset",
              "type": "address"
            }
          ],
          "name": "",
          "type": "tuple[]"
        }
      ],
      "payable": false,
      "stateMutability": "nonpayable",
      "type": "function"
    },
    {
      "constant": false,
      "inputs": [
        {
          "name": "_allotment",
          "type": "bytes32"
        },
        {
          "name": "_platform",
          "type": "address"
        },
        {
          "name": "_pool",
          "type": "bytes32"
        },
        {
          "name": "_investor",
          "type": "address"
        },
        {
          "name": "_amount",
          "type": "uint256"
        },
        {
          "name": "_asset",
          "type": "address"
        }
      ],
      "name": "allotIssue",
      "outputs": [],
      "payable": false,
      "stateMutability": "nonpayable",
      "type": "function"
    }
  ],
  "bytecode": "0x608060405234801561001057600080fd5b50613f24806100206000396000f3fe608060405234801561001057600080fd5b50600436106101165760003560e01c8063893d20e8116100a2578063dc44202911610071578063dc44202914610228578063f010e2c21461023f578063f5adf2ff14610252578063f76ebabb14610265578063fdf4bf5d1461028557610116565b8063893d20e8146101e5578063913b722c146101fa578063b648ba6e14610202578063d3340fb61461021557610116565b80633824240c116100e95780633824240c146101815780633cb4bd6314610194578063752987341461019c57806384155600146101b257806388c4b6ee146101c557610116565b806305cc61ad1461011b57806307c5ae70146101395780631bafe1b91461014e57806323b83a5e14610161575b600080fd5b610123610298565b6040516101309190613cd4565b60405180910390f35b61014c6101473660046133cd565b610a68565b005b61014c61015c366004613264565b610d7b565b61017461016f3660046133af565b6111fa565b6040516101309190613c9e565b61014c61018f366004613003565b611378565b61014c6114b1565b6101a4611b2b565b604051610130929190613caf565b61014c6101c03660046130f9565b611ed4565b6101d86101d3366004612f42565b61207f565b6040516101309190613ce5565b6101ed612111565b60405161013091906139e4565b610174612121565b61014c6102103660046132eb565b6121b6565b61014c610223366004612f42565b6123b1565b61023061241a565b60405161013093929190613d58565b61014c61024d3660046133af565b61247f565b61014c610260366004612f86565b612699565b610278610273366004612f42565b6126eb565b6040516101309190613cf6565b61014c610293366004613092565b6127bb565b60375460609033906001600160a01b031681146102b457600080fd5b60005b60405481101561099f5760005b604154811015610996576000604b6000604184815481106102e157fe5b60009182526020808320909101546001600160a01b0316835282019290925260400190205411801561034b57506000604b60006041848154811061032157fe5b60009182526020808320909101546001600160a01b03168352820192909252604001902060020154115b1561098e576000604b60006041848154811061036357fe5b60009182526020808320909101546001600160a01b039081168452908301939093526040918201812060060154825493169350606092909190869081106103a657fe5b600091825260209091200154604051600160e01b63c74073a10281526001600160a01b039091169063c74073a1906103e29086906004016139e4565b600060405180830381600087803b1580156103fc57600080fd5b505af1158015610410573d6000803e3d6000fd5b505050506040513d6000823e601f3d908101601f19168201604052610438919081019061317a565b915091507f74ecf7bedb11981d29c42ecf5d3ef192a9a2ea6e776535c6ac6ec41ae346f0c56040868154811061046a57fe5b600091825260209091200154604051610490916001600160a01b03169086903090613a1a565b60405180910390a180156104e757600160d21b6510db1bdcd95902604e556040517f740ceeecb0c18ce3fa5eea6dd340f21c17bc1af2554ba4931954bfa38bacd18b906104de908590613c1b565b60405180910390a15b60005b82518110156109895760606040878154811061050257fe5b60009182526020909120015484516001600160a01b039091169063bfa0caa79086908590811061052e57fe5b60200260200101516040518263ffffffff1660e01b81526004016105529190613d07565b600060405180830381600087803b15801561056c57600080fd5b505af1158015610580573d6000803e3d6000fd5b505050506040513d6000823e601f3d908101601f191682016040526105a891908101906131f4565b90507f9722fc67361d52da42c0f7876e69e09ab138fb52d29943d4e974db9621bcc42f604088815481106105d857fe5b9060005260206000200160009054906101000a90046001600160a01b031685848151811061060257fe5b60200260200101513060405161061a93929190613b22565b60405180910390a160005b815181101561097f57603354600090815260456020526040908190205481549091908a90811061065157fe5b600091825260208083209091015460335483526045909152604090912080546001600160a01b03909216918390811061068657fe5b906000526020600020906007020160040160016101000a8154816001600160a01b0302191690836001600160a01b031602179055508584815181106106c757fe5b602002602001015160456000603354815260200190815260200160002082815481106106ef57fe5b90600052602060002090600702016003018190555082828151811061071057fe5b602002602001015160600151604560006033548152602001908152602001600020828154811061073c57fe5b90600052602060002090600702016001018190555082828151811061075d57fe5b602002602001015160800151604560006033548152602001908152602001600020828154811061078957fe5b9060005260206000209060070201600201819055508282815181106107aa57fe5b60200260200101516040015160456000603354815260200190815260200160002082815481106107d657fe5b9060005260206000209060070201600001819055508282815181106107f757fe5b602002602001015160000151604560006033548152602001908152602001600020828154811061082357fe5b906000526020600020906007020160050160006101000a8154816001600160a01b0302191690836001600160a01b0316021790555082828151811061086457fe5b602002602001015160200151604560006033548152602001908152602001600020828154811061089057fe5b6000918252602082206007919091020160060180546001600160a01b0319166001600160a01b039390931692909217909155805b604354811015610924578484815181106108da57fe5b6020026020010151600001516001600160a01b0316604382815481106108fc57fe5b6000918252602090912001546001600160a01b0316141561091c57600191505b6001016108c4565b508061097557604384848151811061093857fe5b6020908102919091018101515182546001810184556000938452919092200180546001600160a01b0319166001600160a01b039092169190911790555b5050600101610625565b50506001016104ea565b505050505b6001016102c4565b506001016102b7565b50603354600090815260456020908152604080832080548251818502810185019093528083529193909284015b82821015610a5d57600084815260209081902060408051610100808201835260078702909301805482526001808201548387015260028201549383019390935260038101546060830152600481015460ff8116151560808401526001600160a01b03949004841660a08301526005810154841660c08301526006015490921660e083015290835290920191016109cc565b5050505091505b5090565b60375433906001600160a01b03168114610a8157600080fd5b603454600160d01b655368617265730214610a9b57600080fd5b603a54603354604051600160e21b633d3f3fe902815230926001600160a01b03169163f4fcffa491610ad09190600401613d07565b60206040518083038186803b158015610ae857600080fd5b505afa158015610afc573d6000803e3d6000fd5b505050506040513d601f19601f82011682018060405250610b209190810190612f68565b6001600160a01b031614610b3357600080fd5b603d54604051600160e21b633cd163c50281526000916001600160a01b03169063f3458f1490610b67908a90600401613d73565b60206040518083038186803b158015610b7f57600080fd5b505afa158015610b93573d6000803e3d6000fd5b505050506040513d601f19601f82011682018060405250610bb79190810190612f68565b603d54604051600160e01b63f429f19b0281529192506001600160a01b03169063f429f19b90610beb9084906004016139e4565b60206040518083038186803b158015610c0357600080fd5b505afa158015610c17573d6000803e3d6000fd5b505050506040513d601f19601f82011682018060405250610c3b9190810190613246565b600160cb1b660acd2c286c2e6d0214610c5357600080fd5b6001600160a01b038116600090815260426020526040902054610ccb57604180546001810182557f7c9785e8241615bc80415d89775984a1337d15dc1bf4ce50f41988b2a2b336a70180546001600160a01b0319166001600160a01b0384169081179091559054600091825260426020526040909120555b6001600160a01b0381166000908152604b602052604090208b8155600281018b9055600381018a905560048101899055600501879055604c869055604d859055610d17604f8585612a06565b50600160d21b65125cdcdd595902604e556040517f9db73b9e34b67b0482a252ae5e5448652d5745ede72cfa129660d76c3722598390610d66908d908d908d908d908d9030908e908e90613d9d565b60405180910390a15050505050505050505050565b60375433906001600160a01b03168114610d9457600080fd5b42603f55600160d21b651858d8d95c1d028714156110f25760005b60335460009081526045602052604090205481101561105057856045600060335481526020019081526020016000208281548110610de957fe5b906000526020600020906007020160030154148015610e4c5750846001600160a01b03166045600060335481526020019081526020016000208281548110610e2d57fe5b60009182526020909120600560079092020101546001600160a01b0316145b8015610e895750836045600060335481526020019081526020016000208281548110610e7457fe5b90600052602060002090600702016001015410155b8015610ed95750826001600160a01b03166045600060335481526020019081526020016000208281548110610eba57fe5b60009182526020909120600660079092020101546001600160a01b0316145b1561104857604051600160e01b638a0c62f10281526001600160a01b03881690638a0c62f190610f13908990899089908990600401613d30565b600060405180830381600087803b158015610f2d57600080fd5b505af1158015610f41573d6000803e3d6000fd5b505050507f0f8f344b7d42ec42f5f30afff6d1aa26ae6f511fd8fef4a18187b4b73f87cc9d878787878730604051610f7e96959493929190613b72565b60405180910390a16033546000908152604560205260409020805482908110610fa357fe5b506000908152805b604454811015610ff457866001600160a01b031660448281548110610fcc57fe5b6000918252602090912001546001600160a01b03161415610fec57600191505b600101610fab565b508061104657604480546001810182556000919091527f9b22d3d61959b4d3528b1d8ba932c96fbe302b36a1aad1d95cab54f9e0a135ea0180546001600160a01b0319166001600160a01b0388161790555b505b600101610daf565b50604051600160e01b63987757dd0281526001600160a01b0387169063987757dd90611080908890600401613d07565b600060405180830381600087803b15801561109a57600080fd5b505af11580156110ae573d6000803e3d6000fd5b505050507f55cf15e1fee806bf583ba648f6d07f433ba88a4125a3a4fabb2283c88e1274028686306040516110e593929190613b22565b60405180910390a16111a7565b86600160d21b651c995a9958dd0214156111a757604051600160e31b6307e132050281526001600160a01b03871690633f099028906111379088908890600401613d15565b600060405180830381600087803b15801561115157600080fd5b505af1158015611165573d6000803e3d6000fd5b505050507f7f9488e51e1666cb4b80eb89a66e6f7baba0e494bbcede98ccd0a2a6f6ea66268686863060405161119e9493929190613b3d565b60405180910390a15b600160c21b67105b1b1bdd1d195902604e556040517f03b095f68fee05efe5e24b3561adcaff741870d703b9bce62535d572cc084a30906111e9903090613c4f565b60405180910390a150505050505050565b60375460609033906001600160a01b031681148061122557506036546001600160a01b038281169116145b61122e57600080fd5b604454604080518281526020808402820101909152606091801561125c578160200160208202803883390190505b5090506000805b60445481101561136e5760006001604660006044858154811061128257fe5b60009182526020808320909101546001600160a01b0316835282019290925260400181205460448054939091039350604692859081106112be57fe5b60009182526020808320909101546001600160a01b0316835282019290925260400190208054829081106112ee57fe5b906000526020600020906004020160020154871115611365576044828154811061131457fe5b9060005260206000200160009054906101000a90046001600160a01b031684848151811061133e57fe5b60200260200101906001600160a01b031690816001600160a01b0316815250508260010192505b50600101611263565b5090949350505050565b60005b818110156114ab5761138b612a80565b6040518060a001604052808585858181106113a257fe5b905060a00201600001356001600160a01b03166001600160a01b031681526020018585858181106113cf57fe5b905060a002016020013581526020018585858181106113ea57fe5b905060a0020160400135815260200185858581811061140557fe5b905060a0020160600135815260200185858581811061142057fe5b60a00291909101608090810135909252506001600160a01b03878116600090815260476020908152604080832080546001808201835591855293839020875160059095020180546001600160a01b031916949095169390931784559085015183830155840151600283015560608401516003830155929091015160049091015591909101905061137b565b50505050565b60375433906001600160a01b031681146114ca57600080fd5b60008080808080805b604154811015611b2157604c600101549650604b6000604183815481106114f657fe5b60009182526020808320909101546001600160a01b0316835282019290925260400181206005015460418054919850604b92918490811061153357fe5b60009182526020808320909101546001600160a01b0316835282019290925260400181205460418054919750604b92918490811061156d57fe5b60009182526020808320909101546001600160a01b0316835282019290925260400181206002015460418054919650604b9291849081106115aa57fe5b60009182526020808320909101546001600160a01b0316835282019290925260400181206003015460418054919550604b9291849081106115e757fe5b60009182526020808320909101546001600160a01b03168352820192909252604001902060040154915084158015906116205750600084115b15611b1957603c54603a54603354604051600160e11b63522127410281526001600160a01b0393841693632df8d8fd93169163a4424e82916116659190600401613d07565b60206040518083038186803b15801561167d57600080fd5b505afa158015611691573d6000803e3d6000fd5b505050506040513d601f19601f820116820180604052506116b59190810190612f68565b603b54603a54603354604051600160e01b63572d82990281526001600160a01b03938416938d93169163572d8299916116f19190600401613d07565b60206040518083038186803b15801561170957600080fd5b505afa15801561171d573d6000803e3d6000fd5b505050506040513d601f19601f820116820180604052506117419190810190613246565b8c6040518663ffffffff1660e01b8152600401611762959493929190613a42565b600060405180830381600087803b15801561177c57600080fd5b505af1158015611790573d6000803e3d6000fd5b5050603c54603a54603354604051600160e01b63572d82990281526001600160a01b039384169550639c3acea094508b939092169163572d8299916117d791600401613d07565b60206040518083038186803b1580156117ef57600080fd5b505afa158015611803573d6000803e3d6000fd5b505050506040513d601f19601f820116820180604052506118279190810190613246565b8a6040518463ffffffff1660e01b815260040161184693929190613d58565b60206040518083038186803b15801561185e57600080fd5b505afa158015611872573d6000803e3d6000fd5b505050506040513d601f19601f820116820180604052506118969190810190612f68565b603880546001600160a01b0319166001600160a01b039283161790819055604051600160e01b6340c10f190281529116906340c10f19906118dd9030908990600401613c83565b600060405180830381600087803b1580156118f757600080fd5b505af115801561190b573d6000803e3d6000fd5b5050603854604180546001600160a01b039092169350604b92506000918590811061193257fe5b6000918252602080832091909101546001600160a01b039081168452908301939093526040918201902060060180546001600160a01b03191693831693909317909255600160ca1b6613d999995c995902604e5560385491517ff4503fa8a89133c55d060f625dd7c591b559496759626476dd2233e41ea9ad32926119b8921690613c35565b60405180910390a160005b604054811015611b1757604081815481106119da57fe5b600091825260209091200154603854604180546001600160a01b03938416936333d019bb9316918c918b919088908110611a1057fe5b60009182526020909120015460405163ffffffff861660e01b8152611a48949392916001600160a01b0316908c908c90600401613bcc565b600060405180830381600087803b158015611a6257600080fd5b505af1158015611a76573d6000803e3d6000fd5b505050507f2cdff49e5121f5e17f9517915fa31e1f24f42e3fcbe940daa66f39108de4bdaf60408281548110611aa857fe5b600091825260209091200154603854604180546001600160a01b0393841693909216918c918b9188908110611ad957fe5b600091825260209091200154604051611b0795949392916001600160a01b0316908c908c908c903090613a9c565b60405180910390a16001016119c3565b505b6001016114d3565b5050505050505050565b6060611b35612abb565b6041546040805182815260208084028201019091526060918015611b7357816020015b611b60612ae1565b815260200190600190039081611b585790505b509050611b7e612ae1565b60005b604154811015611e0d576040518060e00160405280604b600060418581548110611ba757fe5b9060005260206000200160009054906101000a90046001600160a01b03166001600160a01b03166001600160a01b03168152602001908152602001600020600001548152602001604b600060418581548110611bff57fe5b9060005260206000200160009054906101000a90046001600160a01b03166001600160a01b03166001600160a01b03168152602001908152602001600020600101548152602001604b600060418581548110611c5757fe5b9060005260206000200160009054906101000a90046001600160a01b03166001600160a01b03166001600160a01b03168152602001908152602001600020600201548152602001604b600060418581548110611caf57fe5b9060005260206000200160009054906101000a90046001600160a01b03166001600160a01b03166001600160a01b03168152602001908152602001600020600301548152602001604b600060418581548110611d0757fe5b9060005260206000200160009054906101000a90046001600160a01b03166001600160a01b03166001600160a01b03168152602001908152602001600020600401548152602001604b600060418581548110611d5f57fe5b9060005260206000200160009054906101000a90046001600160a01b03166001600160a01b03166001600160a01b03168152602001908152602001600020600501548152602001604b600060418581548110611db757fe5b60009182526020808320909101546001600160a01b03908116845290830193909352604090910190206006015416905283519092508290849083908110611dfa57fe5b6020908102919091010152600101611b81565b5060408051608081018252604c80548252604d54602080840191909152604e5483850152604f8054855160026001831615610100026000190190921691909104601f81018490048402820184019096528581528795939493859360608601939190830182828015611ebf5780601f10611e9457610100808354040283529160200191611ebf565b820191906000526020600020905b815481529060010190602001808311611ea257829003601f168201915b50505050508152505090509350935050509091565b60375433906001600160a01b0316811480611efc57506036546001600160a01b038281169116145b611f0557600080fd5b603d54604051600160e21b632e5ac80102815260009182916001600160a01b039091169063b96b200490611f3d908890600401613d07565b604080518083038186803b158015611f5457600080fd5b505afa158015611f68573d6000803e3d6000fd5b505050506040513d601f19601f82011682018060405250611f8c9190810190613058565b9150915080600160cb1b660acd2c286c2e6d02141561207757604051600160e01b6323b872dd0281526001600160a01b038316906323b872dd90611fd89033908a9089906004016139f2565b602060405180830381600087803b158015611ff257600080fd5b505af1158015612006573d6000803e3d6000fd5b505050506040513d601f19601f8201168201806040525061202a9190810190613228565b1561207757612037612b2a565b5060408051608081018252868152602080820187905242828401523360608301526001600160a01b03891660009081526046909152919091208054829190fe5b505050505050565b603854604051600160e11b6344625b770281526060916001600160a01b03808516926388c4b6ee926120b59216906004016139e4565b600060405180830381600087803b1580156120cf57600080fd5b505af11580156120e3573d6000803e3d6000fd5b505050506040513d6000823e601f3d908101601f1916820160405261210b91908101906131c0565b92915050565b6035546001600160a01b03165b90565b60375460609033906001600160a01b031681148061214c57506036546001600160a01b038281169116145b61215557600080fd5b60448054806020026020016040519081016040528092919081815260200182805480156121ab57602002820191906000526020600020905b81546001600160a01b0316815260019091019060200180831161218d575b505050505091505090565b600054610100900460ff16806121cf57506121cf612916565b806121dd575060005460ff16155b61220557604051600160e51b62461bcd0281526004016121fc90613d8d565b60405180910390fd5b600054610100900460ff16158015612230576000805460ff1961ff0019909116610100171660011790555b603580546001600160a01b03199081166001600160a01b038981169190911790925560338c905560348b90556036805482168b84161790556037805482168a8416179055603a8054339083161790819055603b80548316898516179055603c80548316888516179055603d80548316878516179055603e80549092168584161790915560408051600160e11b630fdf2a9702815290516060939290921691631fbe552e91600480820192600092909190829003018186803b1580156122f457600080fd5b505afa158015612308573d6000803e3d6000fd5b505050506040513d6000823e601f3d908101601f191682016040526123309190810190613146565b905060005b815181101561239157604082828151811061234c57fe5b60209081029190910181015182546001808201855560009485529290932090920180546001600160a01b0319166001600160a01b039093169290921790915501612335565b505080156123a5576000805461ff00191690555b50505050505050505050565b603a546001600160a01b031633146123c857600080fd5b604080546001810182556000919091527f352feee0eea125f11f791c1b77524172e9bc20f1b719b6cef0fc24f64db8e15e0180546001600160a01b0319166001600160a01b0392909216919091179055565b6037546000908190819033906001600160a01b031681148061244957506036546001600160a01b038281169116145b61245257600080fd5b61245d603f5461291c565b612468603f54612939565b612473603f54612954565b93509350935050909192565b60375433906001600160a01b0316811461249857600080fd5b600080805b6040548110156126925760005b604154811015612689576000604b6000604184815481106124c757fe5b60009182526020808320909101546001600160a01b0316835282019290925260400190205411801561253157506000604b60006041848154811061250757fe5b60009182526020808320909101546001600160a01b03168352820192909252604001902060020154115b15612681576040828154811061254357fe5b6000918252602082200154604180546001600160a01b039092169263867904b492604b92908690811061257257fe5b60009182526020808320909101546001600160a01b039081168452908301939093526040918201902060060154905163ffffffff841660e01b81526125c09291909116908a90600401613c83565b600060405180830381600087803b1580156125da57600080fd5b505af11580156125ee573d6000803e3d6000fd5b50505050600160ca1b6614dd185c9d195902604c600201819055507f9a17155a17018d770a1d614ea564978a64992afbd4577a46f3797f7102c260e8604b60006041848154811061263b57fe5b60009182526020808320909101546001600160a01b0390811684529083019390935260409182019020600601549051612678929190911690613c69565b60405180910390a15b6001016124aa565b5060010161249d565b5050505050565b6001600160a01b038581166000818152604960209081526040808320948916808452948252808320805460ff191687151517905592825260488152828220938252929092529020612077908484612b51565b60375460609033906001600160a01b031681148061271657506036546001600160a01b038281169116145b61271f57600080fd5b6001600160a01b038316600090815260466020908152604080832080548251818502810185019093528083529193909284015b828210156127af57600084815260209081902060408051608081018252600486029092018054835260018082015484860152600282015492840192909252600301546001600160a01b031660608301529083529092019101612752565b50505050915050919050565b60005b81811015612692576127ce612b8b565b6040518060a001604052808585858181106127e557fe5b905060a00201600001356001600160a01b03166001600160a01b0316815260200185858581811061281257fe5b905060a00201602001356001600160a01b03166001600160a01b0316815260200185858581811061283f57fe5b905060a0020160400135815260200185858581811061285a57fe5b905060a0020160600135815260200185858581811061287557fe5b608060a0909102929092018201359092526001600160a01b03808a166000908152604a602090815260408083208c8452825280832080546001818101835591855293839020885160059095020180549486166001600160a01b031995861617815592880151838201805491909616941693909317909355918501516002830155606085015160038301559390910151600490910155509190910190506127be565b303b1590565b6000808061292f62015180855b04612970565b9695505050505050565b6000808061294a6201518085612929565b5095945050505050565b600080806129656201518085612929565b509095945050505050565b60008080836226496581018262023ab1600483020590506004600362023ab18302010590910390600062164b09610fa0600185010205905060046105b58202058303601f019250600061098f84605002816129c757fe5b0590506000605061098f83020585039050600b820560301994909401606402929092018301996002600c90940290910392909201975095509350505050565b828054600181600116156101000203166002900490600052602060002090601f016020900481019282601f10612a475782800160ff19823516178555612a74565b82800160010185558215612a74579182015b82811115612a74578235825591602001919060010190612a59565b50610a64929150612bb9565b6040518060a0016040528060006001600160a01b03168152602001600081526020016000815260200160008152602001600080191681525090565b604080516080810182526000808252602082018190529181019190915260608082015290565b6040518060e0016040528060008152602001600081526020016000815260200160008152602001600081526020016000801916815260200160006001600160a01b031681525090565b60408051608081018252600080825260208201819052918101829052606081019190915290565b828054828255906000526020600020908101928215612a745791602002820182811115612a74578235825591602001919060010190612a59565b6040805160a08101825260008082526020820181905291810182905260608101829052608081019190915290565b61211e91905b80821115610a645760008155600101612bbf565b6000612bdf8235613e87565b9392505050565b6000612bdf8251613e87565b600082601f830112612c0357600080fd5b8151612c16612c1182613e54565b613e2e565b91508181835260208401935060208101905083856020840282011115612c3b57600080fd5b60005b83811015612c675781612c518882612be6565b8452506020928301929190910190600101612c3e565b5050505092915050565b60008083601f840112612c8357600080fd5b5081356001600160401b03811115612c9a57600080fd5b602083019150836020820283011115612cb257600080fd5b9250929050565b600082601f830112612cca57600080fd5b8151612cd8612c1182613e54565b91508181835260208401935060208101905083856020840282011115612cfd57600080fd5b60005b83811015612c675781612d138882612e72565b8452506020928301929190910190600101612d00565b600082601f830112612d3a57600080fd5b8151612d48612c1182613e54565b915081818352602084019350602081019050838560a0840282011115612d6d57600080fd5b60005b83811015612c675781612d838882612ebf565b84525060209092019160a09190910190600101612d70565b60008083601f840112612dad57600080fd5b5081356001600160401b03811115612dc457600080fd5b6020830191508360a0820283011115612cb257600080fd5b600082601f830112612ded57600080fd5b8151612dfb612c1182613e54565b915081818352602084019350602081019050838560a0840282011115612e2057600080fd5b60005b83811015612c675781612e368882612ebf565b84525060209092019160a09190910190600101612e23565b6000612bdf8235613e92565b6000612bdf8251613e92565b6000612bdf823561211e565b6000612bdf825161211e565b60008083601f840112612e9057600080fd5b5081356001600160401b03811115612ea757600080fd5b602083019150836001820283011115612cb257600080fd5b600060a08284031215612ed157600080fd5b612edb60a0613e2e565b90506000612ee98484612be6565b8252506020612efa84848301612be6565b6020830152506040612f0e84828501612e72565b6040830152506060612f2284828501612e72565b6060830152506080612f3684828501612e72565b60808301525092915050565b600060208284031215612f5457600080fd5b6000612f608484612bd3565b949350505050565b600060208284031215612f7a57600080fd5b6000612f608484612be6565b600080600080600060808688031215612f9e57600080fd5b6000612faa8888612bd3565b9550506020612fbb88828901612bd3565b94505060408601356001600160401b03811115612fd757600080fd5b612fe388828901612c71565b93509350506060612ff688828901612e4e565b9150509295509295909350565b60008060006040848603121561301857600080fd5b60006130248686612bd3565b93505060208401356001600160401b0381111561304057600080fd5b61304c86828701612d9b565b92509250509250925092565b6000806040838503121561306b57600080fd5b60006130778585612be6565b925050602061308885828601612e72565b9150509250929050565b600080600080606085870312156130a857600080fd5b60006130b48787612bd3565b94505060206130c587828801612e66565b93505060408501356001600160401b038111156130e157600080fd5b6130ed87828801612d9b565b95989497509550505050565b60008060006060848603121561310e57600080fd5b600061311a8686612bd3565b935050602061312b86828701612e66565b925050604061313c86828701612e66565b9150509250925092565b60006020828403121561315857600080fd5b81516001600160401b0381111561316e57600080fd5b612f6084828501612bf2565b6000806040838503121561318d57600080fd5b82516001600160401b038111156131a357600080fd5b6131af85828601612cb9565b925050602061308885828601612e5a565b6000602082840312156131d257600080fd5b81516001600160401b038111156131e857600080fd5b612f6084828501612d29565b60006020828403121561320657600080fd5b81516001600160401b0381111561321c57600080fd5b612f6084828501612ddc565b60006020828403121561323a57600080fd5b6000612f608484612e5a565b60006020828403121561325857600080fd5b6000612f608484612e72565b60008060008060008060c0878903121561327d57600080fd5b60006132898989612e66565b965050602061329a89828a01612bd3565b95505060406132ab89828a01612e66565b94505060606132bc89828a01612bd3565b93505060806132cd89828a01612e66565b92505060a06132de89828a01612bd3565b9150509295509295509295565b60008060008060008060008060006101208a8c03121561330a57600080fd5b60006133168c8c612e66565b99505060206133278c828d01612e66565b98505060406133388c828d01612bd3565b97505060606133498c828d01612bd3565b965050608061335a8c828d01612bd3565b95505060a061336b8c828d01612bd3565b94505060c061337c8c828d01612bd3565b93505060e061338d8c828d01612bd3565b92505061010061339f8c828d01612bd3565b9150509295985092959850929598565b6000602082840312156133c157600080fd5b6000612f608484612e66565b60008060008060008060008060006101008a8c0312156133ec57600080fd5b60006133f88c8c612e66565b99505060206134098c828d01612e66565b985050604061341a8c828d01612e66565b975050606061342b8c828d01612e66565b965050608061343c8c828d01612e66565b95505060a061344d8c828d01612e66565b94505060c061345e8c828d01612e66565b93505060e08a01356001600160401b0381111561347a57600080fd5b6134868c828d01612e7e565b92509250509295985092959850929598565b60006134a4838361350c565b505060200190565b60006134b88383613823565b505060e00190565b60006134cc83836138a6565b50506101000190565b60006134e1838361393d565b505060a00190565b60006134f5838361399a565b505060800190565b61350681613ea3565b82525050565b61350681613e87565b600061352082613e7a565b61352a8185613e7e565b935061353583613e74565b60005b828110156135605761354b868351613498565b955061355682613e74565b9150600101613538565b5093949350505050565b600061357582613e7a565b61357f8185613e7e565b935061358a83613e74565b60005b82811015613560576135a08683516134ac565b95506135ab82613e74565b915060010161358d565b60006135c082613e7a565b6135ca8185613e7e565b93506135d583613e74565b60005b82811015613560576135eb8683516134c0565b95506135f682613e74565b91506001016135d8565b600061360b82613e7a565b6136158185613e7e565b935061362083613e74565b60005b82811015613560576136368683516134d5565b955061364182613e74565b9150600101613623565b600061365682613e7a565b6136608185613e7e565b935061366b83613e74565b60005b82811015613560576136818683516134e9565b955061368c82613e74565b915060010161366e565b61350681613e92565b6135068161211e565b60006136b382613e7a565b6136bd8185613e7e565b93506136cd818560208601613eb4565b6136d681613ee0565b9093019392505050565b600160d21b65125cdcdd5959029052565b600160d21b6510db1bdcd959029052565b600160f41b610445029052565b600160cb1b660acd2c286c2e6d029052565b600160ca1b6613d999995c9959029052565b6000613740602e83613e7e565b7f436f6e747261637420696e7374616e63652068617320616c726561647920626581527f656e20696e697469616c697a6564000000000000000000000000000000000000602082015260400192915050565b600160d01b65536861726573029052565b600160c21b67105b1b1bdd1d1959029052565b600160ca1b6614dd185c9d1959029052565b805160009060808401906137dc858261369f565b5060208301516137ef602086018261369f565b506040830151613802604086018261369f565b506060830151848203606086015261381a82826136a8565b95945050505050565b805160e0830190613834848261369f565b506020820151613847602085018261369f565b50604082015161385a604085018261369f565b50606082015161386d606085018261369f565b506080820151613880608085018261369f565b5060a082015161389360a085018261369f565b5060c08201516114ab60c085018261350c565b80516101008301906138b8848261369f565b5060208201516138cb602085018261369f565b5060408201516138de604085018261369f565b5060608201516138f1606085018261369f565b5060808201516139046080850182613696565b5060a082015161391760a085018261350c565b5060c082015161392a60c085018261350c565b5060e08201516114ab60e085018261350c565b805160a083019061394e848261350c565b506020820151613961602085018261350c565b506040820151613974604085018261369f565b506060820151613987606085018261369f565b5060808201516114ab608085018261369f565b805160808301906139ab848261369f565b5060208201516139be602085018261369f565b5060408201516139d1604085018261369f565b5060608201516114ab606085018261350c565b6020810161210b828461350c565b60608101613a0082866134fd565b613a0d602083018561350c565b612f60604083018461369f565b60608101613a28828661350c565b613a35602083018561350c565b612f60604083018461350c565b60e08101613a50828861350c565b613a5d602083018761350c565b613a6a604083018661369f565b613a77606083018561369f565b613a84608083018461369f565b613a9060a08301613702565b61292f60c08301613792565b6101208101613aab828c61350c565b613ab8602083018b61350c565b613ac5604083018a61369f565b613ad2606083018961369f565b613adf608083018861350c565b613aec60a083018761369f565b613af960c083018661369f565b613b0660e083018561369f565b613b1461010083018461350c565b9a9950505050505050505050565b60608101613b30828661350c565b613a35602083018561369f565b60808101613b4b828761350c565b613b58602083018661369f565b613b65604083018561350c565b61381a606083018461350c565b60c08101613b80828961350c565b613b8d602083018861369f565b613b9a604083018761350c565b613ba7606083018661369f565b613bb4608083018561350c565b613bc160a083018461350c565b979650505050505050565b60c08101613bda828961350c565b613be7602083018861369f565b613bf4604083018761369f565b613c01606083018661350c565b613c0e608083018561369f565b613bc160a083018461369f565b60408101613c29828461350c565b61210b602083016136f1565b60408101613c43828461350c565b61210b60208301613721565b60408101613c5d828461350c565b61210b602083016137a3565b60408101613c77828461350c565b61210b602083016137b6565b60408101613c91828561350c565b612bdf602083018461369f565b60208082528101612bdf8184613515565b60408082528101613cc0818561356a565b90508181036020830152612f6081846137c8565b60208082528101612bdf81846135b5565b60208082528101612bdf8184613600565b60208082528101612bdf818461364b565b6020810161210b828461369f565b60408101613d23828561369f565b612bdf602083018461350c565b60808101613d3e828761369f565b613d4b602083018661350c565b613b65604083018561369f565b60608101613d66828661369f565b613a0d602083018561369f565b60408101613d81828461369f565b61210b6020830161370f565b6020808252810161210b81613733565b6101408101613dac828b61369f565b613db9602083018a61369f565b613dc6604083018961369f565b613dd3606083018861369f565b613de0608083018761369f565b613ded60a083018661350c565b613dfa60c083018561369f565b613e0760e083018461369f565b613e1461010083016136e0565b613e216101208301613792565b9998505050505050505050565b6040518181016001600160401b0381118282101715613e4c57600080fd5b604052919050565b60006001600160401b03821115613e6a57600080fd5b5060209081020190565b60200190565b5190565b90815260200190565b600061210b82613e97565b151590565b6001600160a01b031690565b600061210b82600061210b82613e87565b60005b83811015613ecf578181015183820152602001613eb7565b838111156114ab5750506000910152565b601f01601f19169056fea265627a7a72305820c39ce94de01b446b203b57378ff84b617b33420cb58024ebc90e6adbfc95b8626c6578706572696d656e74616cf50037",
  "source": "// Basic functions to be implemented by any stock\r\n// (c) Kallol Borah, Verified Network, 2022\r\n\r\npragma solidity 0.5.7;\r\npragma experimental ABIEncoderV2;\r\n\r\nimport \"./interfaces/IShare.sol\";\r\nimport \"./Issues.sol\";\r\n\r\ncontract Stocks is Share, Issues {\r\n\r\n    //mapping of asked currency to issue details\r\n    mapping(address => Share.currencySpecificStockAttribs) private shares;\r\n    Share.commonStockAttribs stockIssue;\r\n\r\n    modifier onlyDP(address sender){\r\n        require(registrar==sender);\r\n        _;\r\n    }\r\n\r\n    function issueShare(uint256 _issueSize,\r\n                        uint256 _offerPrice, \r\n                        uint256 _minAskPrice, \r\n                        uint256 _minSubscription,\r\n                        bytes32 _currency,\r\n                        bytes32 _offerType,\r\n                        bytes32 _isin,\r\n                        string calldata _offeringDocuments\r\n                        ) external onlyDP(msg.sender){\r\n        require(category==\"Shares\");\r\n        require(VerifiedProducts(productContract).getIssue(productRef)==address(this));\r\n        address currencyAddress = ViaFactory(viaFactoryContract).getTokenByNameType(_currency,\"ViaCash\");\r\n        require(ViaFactory(viaFactoryContract).getType(currencyAddress) == \"ViaCash\");\r\n        if(currencyIndex[currencyAddress]==0){\r\n            currencies.push(currencyAddress);\r\n            currencyIndex[currencyAddress]=currencies.length;\r\n        }\r\n        shares[currencyAddress].issueSize = _issueSize;\r\n        shares[currencyAddress].offerPrice = _offerPrice;\r\n        shares[currencyAddress].minAskPrice = _minAskPrice;\r\n        shares[currencyAddress].minSubscription = _minSubscription;\r\n        shares[currencyAddress].currency = _currency;\r\n        stockIssue.offerType = _offerType;\r\n        stockIssue.isin = _isin;        \r\n        stockIssue.offeringDocuments = _offeringDocuments;  \r\n        stockIssue.status = \"Issued\";    \r\n        emit issued (\r\n            _issueSize,\r\n            _offerPrice, \r\n            _minAskPrice,   \r\n            _minSubscription,\r\n            _currency,\r\n            address(this),\r\n            _offerType,\r\n            _isin,\r\n            \"Issued\",\r\n            \"Shares\"\r\n        );  \r\n    }\r\n\r\n    function getShare() external view returns(Share.currencySpecificStockAttribs[] memory, Share.commonStockAttribs memory){\r\n        Share.currencySpecificStockAttribs[] memory stocks = new Share.currencySpecificStockAttribs[](currencies.length);\r\n        Share.currencySpecificStockAttribs memory share;\r\n        for(uint i=0; i<currencies.length; i++){\r\n            share = Share.currencySpecificStockAttribs({\r\n                issueSize : shares[currencies[i]].issueSize,\r\n                faceValue : shares[currencies[i]].faceValue,\r\n                offerPrice : shares[currencies[i]].offerPrice, \r\n                minAskPrice : shares[currencies[i]].minAskPrice,  \r\n                minSubscription : shares[currencies[i]].minSubscription,\r\n                currency : shares[currencies[i]].currency,\r\n                security : shares[currencies[i]].security\r\n            });\r\n            stocks[i] = share;\r\n        }\r\n        return (stocks, stockIssue);\r\n    }\r\n\r\n    function askOffers() external onlyDP(msg.sender){\r\n        bytes32 isin;\r\n        bytes32 currency;\r\n        uint256 issueSize;\r\n        uint256 offerPrice; \r\n        uint256 minAskPrice; \r\n        uint256 minSubscription;\r\n        for(uint i=0; i<currencies.length; i++){\r\n            isin = stockIssue.isin;\r\n            currency = shares[currencies[i]].currency;\r\n            issueSize = shares[currencies[i]].issueSize;\r\n            offerPrice = shares[currencies[i]].offerPrice;\r\n            minAskPrice = shares[currencies[i]].minAskPrice;    \r\n            minSubscription = shares[currencies[i]].minSubscription;  \r\n            if(issueSize>0 && offerPrice>0){          \r\n                ISecuritiesRegistry(securityRegistriesContract).createSecurity(VerifiedProducts(productContract).getIssuerAddress(productRef),\r\n                                                            securityContract,\r\n                                                            currency,\r\n                                                            VerifiedProducts(productContract).getIssuerName(productRef),\r\n                                                            isin, \"DP\", \"Shares\");\r\n                security = ISecuritiesRegistry(securityRegistriesContract).getToken(currency,\r\n                                                                                    VerifiedProducts(productContract).getIssuerName(productRef),\r\n                                                                                    isin);\r\n                ISecurity(security).mint(address(this), issueSize);\r\n                shares[currencies[i]].security = security;\r\n                stockIssue.status = \"Offered\";\r\n                emit offered(security, \"Offered\");\r\n                //offer the issue on defi platforms\r\n                for(uint j=0; j<platforms.length; j++){\r\n                    IMarketMaker(platforms[j]).offer(security, isin, issueSize, currencies[i], offerPrice, minAskPrice);//, minSubscription);\r\n                    emit offer(platforms[j], security, isin, issueSize, currencies[i], offerPrice, minAskPrice, minSubscription, address(this));\r\n                }\r\n            }\r\n        }       \r\n    }\r\n    \r\n    function startIssue(uint256 cutOffTime) external onlyDP(msg.sender){\r\n        address securityToken;\r\n        address orderPool;\r\n        for(uint i=0; i<platforms.length; i++){\r\n            for(uint j=0; j<currencies.length; j++){\r\n                if(shares[currencies[j]].issueSize > 0 && shares[currencies[j]].offerPrice > 0){\r\n                    IMarketMaker(platforms[i]).issue(shares[currencies[j]].security, cutOffTime);\r\n                    //emit start(platforms[i], shares[currencies[j]].security, cutOffTime, address(this));\r\n                    //offer security on the verified network\r\n                    //securityToken = ISecuritiesRegistry(securityRegistriesContract).getToken(shares[currencies[j]].currency, VerifiedProducts(productContract).getIssuerName(productRef), stockIssue.isin);\r\n                    //orderPool = IPoolFactory(poolFactoryContract).getPool(securityToken, currencies[j]);\r\n                    //IOrderPool(orderPool).newOrder(securityToken, currencies[j], shares[currencies[j]].offerPrice, shares[currencies[j]].issueSize, \"Market\", \"Sell\");\r\n                    stockIssue.status = \"Started\";\r\n                    emit opened(shares[currencies[j]].security, \"Started\");\r\n                }\r\n            }\r\n        }        \r\n    }\r\n\r\n    function getSubscribers() external onlyDP(msg.sender) returns(VerifiedIssues.ioi[] memory) {\r\n        for(uint i=0; i<platforms.length; i++){\r\n            for(uint k=0; k<currencies.length; k++){\r\n                if(shares[currencies[k]].issueSize > 0 && shares[currencies[k]].offerPrice > 0){\r\n                    address securitytoken;\r\n                    securitytoken = shares[currencies[k]].security;\r\n                    (bytes32[] memory pools, bool issueClosed) = IMarketMaker(platforms[i]).close(securitytoken);\r\n                    emit close(platforms[i], securitytoken, address(this));\r\n                    //bytes32[] memory pools = poolsOnClose[platforms[i]][securitytoken];\r\n                    //bool issueClosed = issueCloseStatus[platforms[i]][securitytoken];\r\n                    if(issueClosed){\r\n                        stockIssue.status = \"Closed\";\r\n                        emit closed(securitytoken, \"Closed\");\r\n                    }\r\n                    for(uint j=0; j<pools.length; j++){\r\n                        IMarketMaker.subscriptions[] memory subs = IMarketMaker(platforms[i]).getSubscribers(pools[j]);\r\n                        emit subscriptions(platforms[i], pools[j], address(this));\r\n                        //IMarketMaker.subscriptions[] memory subs = subscribersOnClose[platforms[i]][pools[j]]; \r\n                        for(uint l=0; l<subs.length; l++){\r\n                            uint256 count = subscribers[productRef].length;\r\n                            subscribers[productRef][count].platform = platforms[i];\r\n                            subscribers[productRef][count].poolid = pools[j];\r\n                            subscribers[productRef][count].amount = subs[l].amount;\r\n                            subscribers[productRef][count].price = subs[l].price;\r\n                            subscribers[productRef][count].currency = subs[l].name;\r\n                            subscribers[productRef][count].investor = subs[l].investor;\r\n                            subscribers[productRef][count].asset = subs[l].asset;\r\n                            bool found = false;\r\n                            for(uint x=0; x<investors.length; x++){\r\n                                if(investors[x]==subs[l].investor)\r\n                                    found = true;\r\n                            }\r\n                            if(!found)\r\n                                investors.push(subs[l].investor);\r\n                        }\r\n                    }\r\n                }\r\n            }\r\n        }\r\n        return subscribers[productRef];\r\n    }\r\n\r\n    function allotIssue(bytes32 _allotment, address _platform, bytes32 _pool, address _investor, uint256 _amount, address _asset) external onlyDP(msg.sender){\r\n        timeOfIssue = now;\r\n        if(_allotment==\"accept\"){\r\n            for(uint i=0; i<subscribers[productRef].length; i++){\r\n                if(subscribers[productRef][i].poolid==_pool &&\r\n                   subscribers[productRef][i].investor==_investor &&\r\n                   subscribers[productRef][i].amount >= _amount &&\r\n                   subscribers[productRef][i].asset == _asset\r\n                   ){\r\n                    IMarketMaker(_platform).accept(_pool, _investor, _amount, _asset);\r\n                    emit accept(_platform, _pool, _investor, _amount, _asset, address(this));\r\n                    subscribers[productRef][i].status == true; \r\n                    bool found = false;\r\n                    for(uint j=0; j<beneficiaries.length; j++){\r\n                        if(beneficiaries[j]==_investor)\r\n                            found = true;\r\n                    }\r\n                    if(!found)\r\n                        beneficiaries.push(_investor);\r\n                }\r\n            }\r\n            IMarketMaker(_platform).settle(_pool);\r\n            emit settle(_platform, _pool, address(this));\r\n        }\r\n        else if(_allotment==\"reject\"){\r\n            IMarketMaker(_platform).reject(_pool, _investor);\r\n            emit reject(_platform, _pool, _investor, address(this));\r\n        }\r\n        stockIssue.status = \"Allotted\";\r\n        emit allotted(address(this), \"Allotted\");\r\n    }\r\n\r\n}\r\n\r\n",
  "sourcePath": "D:\\Code\\verified-securities\\securities\\contracts\\Stocks.sol",
  "compiler": {
    "name": "solc",
    "version": "0.5.7+commit.6da8b019.Emscripten.clang"
  },
  "schemaVersion": "3.4.3",
  "updatedAt": "2022-04-24T05:55:07.992Z",
  "networkType": "ethereum",
  "devdoc": {
    "methods": {}
  },
  "userdoc": {
    "methods": {}
  }
}