{
  "contractName": "Bond",
  "abi": [
    {
      "constant": true,
      "inputs": [],
      "name": "bondCurrency",
      "outputs": [
        {
          "name": "",
          "type": "bytes32"
        }
      ],
      "payable": false,
      "stateMutability": "view",
      "type": "function"
    },
    {
      "constant": true,
      "inputs": [],
      "name": "name",
      "outputs": [
        {
          "name": "",
          "type": "string"
        }
      ],
      "payable": false,
      "stateMutability": "view",
      "type": "function"
    },
    {
      "constant": false,
      "inputs": [
        {
          "name": "spender",
          "type": "address"
        },
        {
          "name": "amount",
          "type": "uint256"
        }
      ],
      "name": "approve",
      "outputs": [
        {
          "name": "",
          "type": "bool"
        }
      ],
      "payable": false,
      "stateMutability": "nonpayable",
      "type": "function"
    },
    {
      "constant": true,
      "inputs": [],
      "name": "totalSupply",
      "outputs": [
        {
          "name": "",
          "type": "uint256"
        }
      ],
      "payable": false,
      "stateMutability": "view",
      "type": "function"
    },
    {
      "constant": false,
      "inputs": [
        {
          "name": "sender",
          "type": "address"
        },
        {
          "name": "recipient",
          "type": "address"
        },
        {
          "name": "amount",
          "type": "uint256"
        }
      ],
      "name": "transferFrom",
      "outputs": [
        {
          "name": "",
          "type": "bool"
        }
      ],
      "payable": false,
      "stateMutability": "nonpayable",
      "type": "function"
    },
    {
      "constant": true,
      "inputs": [],
      "name": "decimals",
      "outputs": [
        {
          "name": "",
          "type": "uint8"
        }
      ],
      "payable": false,
      "stateMutability": "view",
      "type": "function"
    },
    {
      "constant": false,
      "inputs": [
        {
          "name": "spender",
          "type": "address"
        },
        {
          "name": "addedValue",
          "type": "uint256"
        }
      ],
      "name": "increaseAllowance",
      "outputs": [
        {
          "name": "",
          "type": "bool"
        }
      ],
      "payable": false,
      "stateMutability": "nonpayable",
      "type": "function"
    },
    {
      "constant": true,
      "inputs": [
        {
          "name": "",
          "type": "address"
        },
        {
          "name": "",
          "type": "address"
        }
      ],
      "name": "issues",
      "outputs": [
        {
          "name": "parValue",
          "type": "uint256"
        },
        {
          "name": "paidInAmount",
          "type": "uint256"
        },
        {
          "name": "paidInCurrency",
          "type": "bytes32"
        },
        {
          "name": "timeIssuedOrSubscribed",
          "type": "uint256"
        },
        {
          "name": "purchasedIssueAmount",
          "type": "uint256"
        }
      ],
      "payable": false,
      "stateMutability": "view",
      "type": "function"
    },
    {
      "constant": true,
      "inputs": [
        {
          "name": "",
          "type": "address"
        },
        {
          "name": "",
          "type": "address"
        }
      ],
      "name": "purchases",
      "outputs": [
        {
          "name": "parValue",
          "type": "uint256"
        },
        {
          "name": "paidInAmount",
          "type": "uint256"
        },
        {
          "name": "paidInCurrency",
          "type": "bytes32"
        },
        {
          "name": "timeIssuedOrSubscribed",
          "type": "uint256"
        },
        {
          "name": "purchasedIssueAmount",
          "type": "uint256"
        }
      ],
      "payable": false,
      "stateMutability": "view",
      "type": "function"
    },
    {
      "constant": true,
      "inputs": [
        {
          "name": "account",
          "type": "address"
        }
      ],
      "name": "balanceOf",
      "outputs": [
        {
          "name": "",
          "type": "uint256"
        }
      ],
      "payable": false,
      "stateMutability": "view",
      "type": "function"
    },
    {
      "constant": false,
      "inputs": [],
      "name": "renounceOwnership",
      "outputs": [],
      "payable": false,
      "stateMutability": "nonpayable",
      "type": "function"
    },
    {
      "constant": true,
      "inputs": [],
      "name": "bondName",
      "outputs": [
        {
          "name": "",
          "type": "bytes32"
        }
      ],
      "payable": false,
      "stateMutability": "view",
      "type": "function"
    },
    {
      "constant": true,
      "inputs": [],
      "name": "owner",
      "outputs": [
        {
          "name": "",
          "type": "address"
        }
      ],
      "payable": false,
      "stateMutability": "view",
      "type": "function"
    },
    {
      "constant": true,
      "inputs": [],
      "name": "isOwner",
      "outputs": [
        {
          "name": "",
          "type": "bool"
        }
      ],
      "payable": false,
      "stateMutability": "view",
      "type": "function"
    },
    {
      "constant": true,
      "inputs": [],
      "name": "symbol",
      "outputs": [
        {
          "name": "",
          "type": "string"
        }
      ],
      "payable": false,
      "stateMutability": "view",
      "type": "function"
    },
    {
      "constant": false,
      "inputs": [
        {
          "name": "spender",
          "type": "address"
        },
        {
          "name": "subtractedValue",
          "type": "uint256"
        }
      ],
      "name": "decreaseAllowance",
      "outputs": [
        {
          "name": "",
          "type": "bool"
        }
      ],
      "payable": false,
      "stateMutability": "nonpayable",
      "type": "function"
    },
    {
      "constant": false,
      "inputs": [
        {
          "name": "recipient",
          "type": "address"
        },
        {
          "name": "amount",
          "type": "uint256"
        }
      ],
      "name": "transfer",
      "outputs": [
        {
          "name": "",
          "type": "bool"
        }
      ],
      "payable": false,
      "stateMutability": "nonpayable",
      "type": "function"
    },
    {
      "constant": true,
      "inputs": [],
      "name": "isPaused",
      "outputs": [
        {
          "name": "",
          "type": "bool"
        }
      ],
      "payable": false,
      "stateMutability": "view",
      "type": "function"
    },
    {
      "constant": true,
      "inputs": [
        {
          "name": "",
          "type": "uint256"
        }
      ],
      "name": "bondsIssued",
      "outputs": [
        {
          "name": "",
          "type": "address"
        }
      ],
      "payable": false,
      "stateMutability": "view",
      "type": "function"
    },
    {
      "constant": true,
      "inputs": [
        {
          "name": "owner",
          "type": "address"
        },
        {
          "name": "spender",
          "type": "address"
        }
      ],
      "name": "allowance",
      "outputs": [
        {
          "name": "",
          "type": "uint256"
        }
      ],
      "payable": false,
      "stateMutability": "view",
      "type": "function"
    },
    {
      "constant": false,
      "inputs": [
        {
          "name": "newOwner",
          "type": "address"
        }
      ],
      "name": "transferOwnership",
      "outputs": [],
      "payable": false,
      "stateMutability": "nonpayable",
      "type": "function"
    },
    {
      "anonymous": false,
      "inputs": [
        {
          "indexed": true,
          "name": "party",
          "type": "address"
        },
        {
          "indexed": false,
          "name": "token",
          "type": "address"
        },
        {
          "indexed": false,
          "name": "bondName",
          "type": "bytes32"
        },
        {
          "indexed": false,
          "name": "amount",
          "type": "uint256"
        },
        {
          "indexed": false,
          "name": "currency",
          "type": "bytes32"
        },
        {
          "indexed": false,
          "name": "collateralAmount",
          "type": "uint256"
        },
        {
          "indexed": false,
          "name": "issueTime",
          "type": "uint256"
        }
      ],
      "name": "BondIssued",
      "type": "event"
    },
    {
      "anonymous": false,
      "inputs": [
        {
          "indexed": true,
          "name": "party",
          "type": "address"
        },
        {
          "indexed": false,
          "name": "token",
          "type": "address"
        },
        {
          "indexed": false,
          "name": "tokenAmount",
          "type": "uint256"
        },
        {
          "indexed": false,
          "name": "tokenName",
          "type": "bytes32"
        },
        {
          "indexed": false,
          "name": "amount",
          "type": "uint256"
        },
        {
          "indexed": false,
          "name": "currency",
          "type": "bytes32"
        }
      ],
      "name": "BondRedeemed",
      "type": "event"
    },
    {
      "anonymous": false,
      "inputs": [
        {
          "indexed": true,
          "name": "party",
          "type": "address"
        },
        {
          "indexed": false,
          "name": "token",
          "type": "address"
        },
        {
          "indexed": false,
          "name": "bondName",
          "type": "bytes32"
        },
        {
          "indexed": false,
          "name": "amount",
          "type": "uint256"
        },
        {
          "indexed": false,
          "name": "currency",
          "type": "bytes32"
        },
        {
          "indexed": false,
          "name": "paidInAmount",
          "type": "uint256"
        },
        {
          "indexed": false,
          "name": "purchaseTime",
          "type": "uint256"
        }
      ],
      "name": "BondPurchased",
      "type": "event"
    },
    {
      "anonymous": false,
      "inputs": [
        {
          "indexed": true,
          "name": "party",
          "type": "address"
        },
        {
          "indexed": false,
          "name": "token",
          "type": "address"
        },
        {
          "indexed": false,
          "name": "tokenAmount",
          "type": "uint256"
        },
        {
          "indexed": false,
          "name": "tokenName",
          "type": "bytes32"
        },
        {
          "indexed": false,
          "name": "amount",
          "type": "uint256"
        },
        {
          "indexed": false,
          "name": "currency",
          "type": "bytes32"
        }
      ],
      "name": "BondLiquidated",
      "type": "event"
    },
    {
      "anonymous": false,
      "inputs": [],
      "name": "Paused",
      "type": "event"
    },
    {
      "anonymous": false,
      "inputs": [],
      "name": "Unpaused",
      "type": "event"
    },
    {
      "anonymous": false,
      "inputs": [
        {
          "indexed": true,
          "name": "previousOwner",
          "type": "address"
        },
        {
          "indexed": true,
          "name": "newOwner",
          "type": "address"
        }
      ],
      "name": "OwnershipTransferred",
      "type": "event"
    },
    {
      "anonymous": false,
      "inputs": [
        {
          "indexed": true,
          "name": "from",
          "type": "address"
        },
        {
          "indexed": true,
          "name": "to",
          "type": "address"
        },
        {
          "indexed": false,
          "name": "value",
          "type": "uint256"
        }
      ],
      "name": "Transfer",
      "type": "event"
    },
    {
      "anonymous": false,
      "inputs": [
        {
          "indexed": true,
          "name": "owner",
          "type": "address"
        },
        {
          "indexed": true,
          "name": "spender",
          "type": "address"
        },
        {
          "indexed": false,
          "name": "value",
          "type": "uint256"
        }
      ],
      "name": "Approval",
      "type": "event"
    },
    {
      "constant": false,
      "inputs": [
        {
          "name": "_name",
          "type": "bytes32"
        },
        {
          "name": "_currency",
          "type": "bytes32"
        },
        {
          "name": "_owner",
          "type": "address"
        },
        {
          "name": "_oracle",
          "type": "address"
        },
        {
          "name": "_token",
          "type": "address"
        },
        {
          "name": "_fee",
          "type": "address"
        }
      ],
      "name": "initialize",
      "outputs": [],
      "payable": false,
      "stateMutability": "nonpayable",
      "type": "function"
    },
    {
      "constant": false,
      "inputs": [
        {
          "name": "sender",
          "type": "address"
        }
      ],
      "name": "initialize",
      "outputs": [],
      "payable": false,
      "stateMutability": "nonpayable",
      "type": "function"
    },
    {
      "constant": false,
      "inputs": [
        {
          "name": "amount",
          "type": "uint256"
        },
        {
          "name": "payer",
          "type": "address"
        },
        {
          "name": "currency",
          "type": "bytes32"
        },
        {
          "name": "cashContract",
          "type": "address"
        }
      ],
      "name": "requestIssue",
      "outputs": [
        {
          "name": "",
          "type": "bool"
        }
      ],
      "payable": false,
      "stateMutability": "nonpayable",
      "type": "function"
    },
    {
      "constant": false,
      "inputs": [
        {
          "name": "amount",
          "type": "uint256"
        },
        {
          "name": "payer",
          "type": "address"
        },
        {
          "name": "currency",
          "type": "bytes32"
        },
        {
          "name": "cashContract",
          "type": "address"
        }
      ],
      "name": "requestPurchase",
      "outputs": [
        {
          "name": "",
          "type": "bool"
        }
      ],
      "payable": false,
      "stateMutability": "nonpayable",
      "type": "function"
    },
    {
      "constant": false,
      "inputs": [
        {
          "name": "amount",
          "type": "uint256"
        },
        {
          "name": "payer",
          "type": "address"
        },
        {
          "name": "currency",
          "type": "bytes32"
        },
        {
          "name": "tokenContract",
          "type": "address"
        }
      ],
      "name": "requestRedemption",
      "outputs": [
        {
          "name": "",
          "type": "bool"
        }
      ],
      "payable": false,
      "stateMutability": "nonpayable",
      "type": "function"
    },
    {
      "constant": false,
      "inputs": [
        {
          "name": "sender",
          "type": "address"
        },
        {
          "name": "receiver",
          "type": "address"
        },
        {
          "name": "tokens",
          "type": "uint256"
        },
        {
          "name": "forwarder",
          "type": "address"
        }
      ],
      "name": "transferForward",
      "outputs": [
        {
          "name": "",
          "type": "bool"
        }
      ],
      "payable": false,
      "stateMutability": "nonpayable",
      "type": "function"
    },
    {
      "constant": true,
      "inputs": [],
      "name": "getBonds",
      "outputs": [
        {
          "name": "",
          "type": "address[]"
        }
      ],
      "payable": false,
      "stateMutability": "view",
      "type": "function"
    },
    {
      "constant": true,
      "inputs": [
        {
          "name": "issuer",
          "type": "address"
        },
        {
          "name": "bondToken",
          "type": "address"
        }
      ],
      "name": "getBondIssues",
      "outputs": [
        {
          "name": "",
          "type": "uint256"
        },
        {
          "name": "",
          "type": "uint256"
        },
        {
          "name": "",
          "type": "uint256"
        },
        {
          "name": "",
          "type": "bytes32"
        },
        {
          "name": "",
          "type": "uint256"
        }
      ],
      "payable": false,
      "stateMutability": "view",
      "type": "function"
    },
    {
      "constant": true,
      "inputs": [
        {
          "name": "purchaser",
          "type": "address"
        },
        {
          "name": "bondToken",
          "type": "address"
        }
      ],
      "name": "getBondPurchases",
      "outputs": [
        {
          "name": "",
          "type": "uint256"
        },
        {
          "name": "",
          "type": "uint256"
        },
        {
          "name": "",
          "type": "bytes32"
        },
        {
          "name": "",
          "type": "uint256"
        }
      ],
      "payable": false,
      "stateMutability": "view",
      "type": "function"
    },
    {
      "constant": false,
      "inputs": [],
      "name": "pause",
      "outputs": [],
      "payable": false,
      "stateMutability": "nonpayable",
      "type": "function"
    },
    {
      "constant": false,
      "inputs": [],
      "name": "unpause",
      "outputs": [],
      "payable": false,
      "stateMutability": "nonpayable",
      "type": "function"
    }
  ],
  "bytecode": "0x6080604052615f9c806100136000396000f3fe608060405234801561001057600080fd5b50600436106101f05760003560e01c806381ca86fe1161010f57806395d89b41116100a2578063c4d66de811610071578063c4d66de8146103f4578063d478b27414610407578063dd62ed3e1461041a578063f2fde38b1461042d576101f0565b806395d89b41146103be578063a457c2d7146103c6578063a9059cbb146103d9578063b187bd26146103ec576101f0565b80638b140f6b116100de5780638b140f6b146103795780638da5cb5b1461038e5780638f32d59b146103a35780638fba9c7c146103ab576101f0565b806381ca86fe146103435780638456cb5914610356578063887b6abc1461035e57806389d29c4c14610366576101f0565b8063313ce56711610187578063410a6c7d11610156578063410a6c7d146102f25780636b98f8351461031557806370a0823114610328578063715018a61461033b576101f0565b8063313ce5671461029c57806339509351146102b157806339baf480146102c45780633f4ba83a146102e8576101f0565b80631f6fbfae116101c35780631f6fbfae1461025057806320f46de11461026357806323b872dd146102765780633138088814610289576101f0565b80630484d542146101f557806306fdde0314610213578063095ea7b31461022857806318160ddd14610248575b600080fd5b6101fd610440565b60405161020a9190615ba0565b60405180910390f35b61021b610446565b60405161020a9190615c65565b61023b61023636600461524c565b6104dd565b60405161020a9190615b92565b6101fd6104fb565b61023b61025e36600461535d565b610501565b61023b61027136600461535d565b6106db565b61023b61028436600461519e565b6107f3565b61023b61029736600461535d565b610881565b6102a4610a1e565b60405161020a9190615e3e565b61023b6102bf36600461524c565b610a23565b6102d76102d2366004615164565b610a77565b60405161020a959493929190615e30565b6102f0610ab1565b005b610305610300366004615164565b610b11565b60405161020a9493929190615e15565b6102d7610323366004615164565b610b55565b6101fd610336366004615128565b610b8f565b6102f0610bae565b61023b6103513660046151eb565b610c1f565b6102f0610ced565b6101fd610d49565b6102f06103743660046152b8565b610d4f565b610381610e79565b60405161020a9190615b81565b610396610eda565b60405161020a9190615a51565b61023b610ee9565b6102d76103b9366004615164565b610f0f565b61021b610f57565b61023b6103d436600461524c565b610fb8565b61023b6103e736600461524c565b611026565b61023b61103a565b6102f0610402366004615128565b611043565b61039661041536600461533f565b611118565b6101fd610428366004615164565b61113f565b6102f061043b366004615128565b61116a565b60a05481565b60368054604080516020601f60026000196101006001881615020190951694909404938401819004810282018101909252828152606093909290918301828280156104d25780601f106104a7576101008083540402835291602001916104d2565b820191906000526020600020905b8154815290600101906020018083116104b557829003601f168201915b505050505090505b90565b60006104f16104ea61119d565b84846111a1565b5060015b92915050565b60355490565b609d5460009060ff161561051457600080fd5b8461053d57604051600160e51b62461bcd02815260040161053490615ca6565b60405180910390fd5b6105468461125b565b151560011461056a57604051600160e51b62461bcd02815260040161053490615ce0565b609d54604051600160e01b63f429f19b0281526101009091046001600160a01b03169063f429f19b906105a1903390600401615a5f565b60206040518083038186803b1580156105b957600080fd5b505afa1580156105cd573d6000803e3d6000fd5b505050506040513d601f19601f820116820180604052506105f1919081019061529a565b600160a11b6b2b34b0a137b7322a37b5b2b7021461060e57600080fd5b609d54604051600160e01b63f429f19b0281526101009091046001600160a01b03169063f429f19b90610645908590600401615a51565b60206040518083038186803b15801561065d57600080fd5b505afa158015610671573d6000803e3d6000fd5b505050506040513d601f19601f82011682018060405250610695919081019061529a565b600160cb1b660acd2c286c2e6d02146106c357604051600160e51b62461bcd02815260040161053490615dcd565b6106d08585858533611396565b90505b949350505050565b609d5460009060ff16156106ee57600080fd5b6106f78461125b565b151560011461071b57604051600160e51b62461bcd02815260040161053490615ce0565b609d54604051600160e01b63f429f19b0281526101009091046001600160a01b03169063f429f19b90610752903390600401615a5f565b60206040518083038186803b15801561076a57600080fd5b505afa15801561077e573d6000803e3d6000fd5b505050506040513d601f19601f820116820180604052506107a2919081019061529a565b600160a11b6b2b34b0a137b7322a37b5b2b702146107bf57600080fd5b6107de858585600160a11b6b21b0b9b42a3930b739b332b90286611a42565b156107eb575060016106d3565b5060006106d3565b6000610800848484612fd4565b6108768461080c61119d565b61087185604051806060016040528060288152602001615f16602891396001600160a01b038a1660009081526034602052604081209061084a61119d565b6001600160a01b03168152602081019190915260400160002054919063ffffffff6130f016565b6111a1565b5060015b9392505050565b609d5460009060ff161561089457600080fd5b8260a05414156108a357600080fd5b6108ac8461125b565b15156001146108d057604051600160e51b62461bcd02815260040161053490615ce0565b609d54604051600160e01b63f429f19b0281526101009091046001600160a01b03169063f429f19b90610907903390600401615a5f565b60206040518083038186803b15801561091f57600080fd5b505afa158015610933573d6000803e3d6000fd5b505050506040513d601f19601f82011682018060405250610957919081019061529a565b600160cb1b660acd2c286c2e6d0214806109f35750609d54604051600160e21b633444c8b50281526101009091046001600160a01b03169063d11322d4906109a3908690600401615ba0565b60206040518083038186803b1580156109bb57600080fd5b505afa1580156109cf573d6000803e3d6000fd5b505050506040513d601f19601f820116820180604052506109f3919081019061527c565b610a1257604051600160e51b62461bcd02815260040161053490615d00565b6106d08585858561311f565b601290565b60006104f1610a3061119d565b846108718560346000610a4161119d565b6001600160a01b03908116825260208083019390935260409182016000908120918c16815292529020549063ffffffff6135ae16565b60a3602090815260009283526040808420909152908252902080546001820154600283015460038401546004909401549293919290919085565b609d54339061010090046001600160a01b0316610acc610eda565b6001600160a01b0316826001600160a01b03161480610afc5750806001600160a01b0316826001600160a01b0316145b610b0557600080fd5b610b0d6135d6565b5050565b6001600160a01b03918216600090815260a3602090815260408083209390941682529190915220600481015460018201546002830154600390930154919390929190565b60a4602090815260009283526040808420909152908252902080546001820154600283015460038401546004909401549293919290919085565b6001600160a01b0381166000908152603360205260409020545b919050565b610bb6610ee9565b610bd557604051600160e51b62461bcd02815260040161053490615d2d565b606a546040516000916001600160a01b0316907f8be0079c531659141344cd1fd0a4f28419497f9722a3daafe3b4186f6b6457e0908390a3606a80546001600160a01b0319169055565b609d5460009060ff1615610c3257600080fd5b610c3b8561125b565b1515600114610c4957600080fd5b610c528461125b565b1515600114610c6057600080fd5b6001600160a01b0384163014801590610c8a5750816001600160a01b0316846001600160a01b0316145b15610cb1576107de838660a154600160991b6c2a37b5b2b72a3930b739b332b90286611a42565b6001600160a01b03808616600090815260a460209081526040808320938616835292905220600401548314156107eb576107de8286868661360b565b609d54339061010090046001600160a01b0316610d08610eda565b6001600160a01b0316826001600160a01b03161480610d385750806001600160a01b0316826001600160a01b0316145b610d4157600080fd5b610b0d613775565b60a15481565b600054610100900460ff1680610d685750610d686137ad565b80610d76575060005460ff16155b610d9557604051600160e51b62461bcd02815260040161053490615d3d565b600054610100900460ff16158015610dc0576000805460ff1961ff0019909116610100171660011790555b610dc985611043565b609d8054610100600160a81b0319163361010002179055609f80546001600160a01b0319166001600160a01b038616179055604051610e2490610e10908990602001615a3c565b6040516020818303038152906040526137b3565b60a187905560a086905560a280546001600160a01b038086166001600160a01b031992831617909255609e8054928516929091169190911790558015610e70576000805461ff00191690555b50505050505050565b606060a58054806020026020016040519081016040528092919081815260200182805480156104d257602002820191906000526020600020905b81546001600160a01b03168152600190910190602001808311610eb3575050505050905090565b606a546001600160a01b031690565b606a546000906001600160a01b0316610f0061119d565b6001600160a01b031614905090565b6001600160a01b03918216600090815260a360209081526040808320939094168252919091522080546004820154600183015460028401546003909401549294919390929091565b60378054604080516020601f60026000196101006001881615020190951694909404938401819004810282018101909252828152606093909290918301828280156104d25780601f106104a7576101008083540402835291602001916104d2565b60006104f1610fc561119d565b8461087185604051806060016040528060258152602001615f3e6025913960346000610fef61119d565b6001600160a01b03908116825260208083019390935260409182016000908120918d1681529252902054919063ffffffff6130f016565b60006104f161103361119d565b8484612fd4565b609d5460ff1690565b600054610100900460ff168061105c575061105c6137ad565b8061106a575060005460ff16155b61108957604051600160e51b62461bcd02815260040161053490615d3d565b600054610100900460ff161580156110b4576000805460ff1961ff0019909116610100171660011790555b606a80546001600160a01b0319166001600160a01b0384811691909117918290556040519116906000907f8be0079c531659141344cd1fd0a4f28419497f9722a3daafe3b4186f6b6457e0908290a38015610b0d576000805461ff00191690555050565b60a5818154811061112557fe5b6000918252602090912001546001600160a01b0316905081565b6001600160a01b03918216600090815260346020908152604080832093909416825291909152205490565b611172610ee9565b61119157604051600160e51b62461bcd02815260040161053490615d2d565b61119a816137c6565b50565b3390565b6001600160a01b0383166111ca57604051600160e51b62461bcd02815260040161053490615dbd565b6001600160a01b0382166111f357604051600160e51b62461bcd02815260040161053490615c96565b6001600160a01b0380841660008181526034602090815260408083209487168084529490915290819020849055517f8c5be1e5ebec7d5bd14f71427d1e84f3dd0314c0f7b2291e5b200ac8c7c3b9259061124e908590615ba0565b60405180910390a3505050565b600080609d60019054906101000a90046001600160a01b03166001600160a01b03166359dc735c6040518163ffffffff1660e01b815260040160206040518083038186803b1580156112ac57600080fd5b505afa1580156112c0573d6000803e3d6000fd5b505050506040513d601f19601f820116820180604052506112e49190810190615146565b90506001600160a01b0381166112fe576001915050610ba9565b604051600160e01b633a2910330281526001600160a01b03821690633a2910339061132d908690600401615a51565b60206040518083038186803b15801561134557600080fd5b505afa158015611359573d6000803e3d6000fd5b505050506040513d601f19601f8201168201806040525061137d919081019061527c565b1561138c576001915050610ba9565b6000915050610ba9565b609d54604051600160e01b63f429f19b02815260009161010090046001600160a01b03169063f429f19b906113cf908690600401615a51565b60206040518083038186803b1580156113e757600080fd5b505afa1580156113fb573d6000803e3d6000fd5b505050506040513d601f19601f8201168201806040525061141f919081019061529a565b600160cb1b660acd2c286c2e6d0214156114c757604051600160e11b637c06e5cd0281526001600160a01b0384169063f80dcb9a906114649089908990600401615dfa565b602060405180830381600087803b15801561147e57600080fd5b505af1158015611492573d6000803e3d6000fd5b505050506040513d601f19601f820116820180604052506114b6919081019061527c565b6114c257506000611a39565b6115f9565b609d54604051600160e21b633444c8b50281526101009091046001600160a01b03169063d11322d4906114fe908790600401615ba0565b60206040518083038186803b15801561151657600080fd5b505afa15801561152a573d6000803e3d6000fd5b505050506040513d601f19601f8201168201806040525061154e919081019061527c565b1515600114156115f957604051600160e01b6323b872dd0281526001600160a01b038416906323b872dd9061158b90889030908b90600401615aa2565b602060405180830381600087803b1580156115a557600080fd5b505af11580156115b9573d6000803e3d6000fd5b505050506040513d601f19601f820116820180604052506115dd919081019061527c565b5060006115e98461384b565b90506115f587826138e6565b9650505b6000806000808590506000816001600160a01b031663525564216040518163ffffffff1660e01b815260040160206040518083038186803b15801561163d57600080fd5b505afa158015611651573d6000803e3d6000fd5b505050506040513d601f19601f820116820180604052506116759190810190615146565b609d54604051600160e11b632d7a39850281529192506000916101009091046001600160a01b031690635af4730a906116b2908b90600401615a51565b60206040518083038186803b1580156116ca57600080fd5b505afa1580156116de573d6000803e3d6000fd5b505050506040513d601f19601f82011682018060405250611702919081019061529a565b1561179357609d54604051600160e11b632d7a39850281526101009091046001600160a01b031690635af4730a9061173e908b90600401615a51565b60206040518083038186803b15801561175657600080fd5b505afa15801561176a573d6000803e3d6000fd5b505050506040513d601f19601f8201168201806040525061178e919081019061529a565b611799565b6301e133805b6001600160a01b03808416600090815260a360209081526040808320938d16835292905220600301549091506117d09042906138f2565b15611819576001600160a01b03808316600090815260a360209081526040808320938c168352929052206003015461181490829061180f9042906138f2565b6138f2565b61181b565b805b905060a0548a1461197e57609f5460a054604051600160e11b634d3038fd0281526001600160a01b0390921691639a6071fa9161185d918e9190600401615bfc565b602060405180830381600087803b15801561187757600080fd5b505af115801561188b573d6000803e3d6000fd5b505050506040513d601f19601f820116820180604052506118af919081019061529a565b609f5460a054604051600160e11b634d3038fd0281529298506001600160a01b0390911691639a6071fa916118e9918e9190600401615bd5565b602060405180830381600087803b15801561190357600080fd5b505af1158015611917573d6000803e3d6000fd5b505050506040513d601f19601f8201168201806040525061193b919081019061529a565b945061197761194a8d8861391d565b61197261195f670de0b6b3a764000089613968565b61196d856301e13380613990565b613a08565b61391d565b9350611a23565b609f54604051600160e11b634d3038fd0281526001600160a01b0390911690639a6071fa906119b3908d908190600401615bd5565b602060405180830381600087803b1580156119cd57600080fd5b505af11580156119e1573d6000803e3d6000fd5b505050506040513d601f19601f82011682018060405250611a05919081019061529a565b9450611a208c61197261195f670de0b6b3a764000089613968565b93505b611a328b858e8d8d8d88613b51565b5050505050505b95945050505050565b600082600160991b6c2a37b5b2b72a3930b739b332b9021415612656576001600160a01b03808616600090815260a4602090815260408083209386168352929052908120600401548714156121bd576001600160a01b03808716600090815260a46020908152604080832093871683529290522060030154156121b8576001600160a01b03808716600090815260a460209081526040808320938716835292905290812060050180548290611af357fe5b60009182526020808320909101546001600160a01b038a8116845260a48352604080852089831686529093529183206005018054929091169350611bf491611b7e918c9160a39186918290611b4457fe5b60009182526020808320909101546001600160a01b0390811684528382019490945260409283018220938c16825292909252902054613990565b6001600160a01b03808b16600090815260a460209081526040808320938b168352929052908120600501805460a39291908290611bb757fe5b60009182526020808320909101546001600160a01b0390811684528382019490945260409283018220938b1682529290925290206001015461391d565b6001600160a01b03808a16600090815260a460209081526040808320938a1683529290522060030154909150611c6e90829061197290611c359042906138f2565b6001600160a01b03808716600090815260a360209081526040808320938d1683529290522060030154611c699042906138f2565b613990565b600160a91b6a3634b8bab4b230ba34b7b70260005260a66020527f05a2a80dc0a06b85519a095f2ba9850854a353af20abe08d4a96b5be13553e055490915060ff1615611cba57600080fd5b7f05a2a80dc0a06b85519a095f2ba9850854a353af20abe08d4a96b5be13553e05805460ff191660011790556001600160a01b03888116600090815260a4602090815260408083209389168352929052908120600501805460a39183918290611d1f57fe5b60009182526020808320909101546001600160a01b0390811684528382019490945260409283018220938a168252929092529020600201549050611d748282600160b11b693932b232b6b83a34b7b702613da7565b609d54604051600160e21b633444c8b50281529193506000916101009091046001600160a01b03169063d11322d490611db1908590600401615ba0565b60206040518083038186803b158015611dc957600080fd5b505afa158015611ddd573d6000803e3d6000fd5b505050506040513d601f19601f82011682018060405250611e01919081019061527c565b15611e9457609d54604051600160e01b63b94676290281526101009091046001600160a01b03169063b946762990611e3d908590600401615ba0565b60206040518083038186803b158015611e5557600080fd5b505afa158015611e69573d6000803e3d6000fd5b505050506040513d601f19601f82011682018060405250611e8d9190810190615146565b9050611f1e565b609d54604051600160e01b632ea779170281526101009091046001600160a01b031690632ea7791790611ecb908590600401615cc6565b60206040518083038186803b158015611ee357600080fd5b505afa158015611ef7573d6000803e3d6000fd5b505050506040513d601f19601f82011682018060405250611f1b9190810190615146565b90505b611f2981848c6141d5565b604051600160e21b6320188d110281526001600160a01b03881690638062344490611f58908e90600401615ba0565b600060405180830381600087803b158015611f7257600080fd5b505af1158015611f86573d6000803e3d6000fd5b5050604051600160e11b635a393c830281526001600160a01b038a16925063b47279069150611fbb908d908f90600401615b24565b600060405180830381600087803b158015611fd557600080fd5b505af1158015611fe9573d6000803e3d6000fd5b50505050896001600160a01b03167f7684b39e31475e1a38b6e3a751004b3ecccbd7d0e1d54d9f43e8e7f1e4e7cb0d888d8c878760405161202e959493929190615b3f565b60405180910390a26001600160a01b03808516600090815260a360209081526040808320938b16835292905290812060050154905b81811015612115576001600160a01b03868116600090815260a3602090815260408083208d8516845290915290206005018054918e1691839081106120a457fe5b6000918252602090912001546001600160a01b0316141561210d576001600160a01b03808716600090815260a360209081526040808320938d168352929052206005018054829081106120f357fe5b600091825260209091200180546001600160a01b03191690555b600101612063565b506001600160a01b03808c16600090815260a460209081526040808320938c168352929052908120818155600181018290556002810182905560038101829055600481018290559061216a6005830182614fbe565b50505050505050600160a91b6a3634b8bab4b230ba34b7b7026000525060a66020527f05a2a80dc0a06b85519a095f2ba9850854a353af20abe08d4a96b5be13553e05805460ff1916905560015b61264f565b604051600160e01b63f8b2cb4f02815287906001600160a01b0385169063f8b2cb4f906121ee908a90600401615a51565b602060405180830381600087803b15801561220857600080fd5b505af115801561221c573d6000803e3d6000fd5b505050506040513d601f19601f82011682018060405250612240919081019061529a565b1061264f57600160b11b693932b232b6b83a34b7b70260005260a66020527f4ca318e94f3e0d335d241b6d4b4bd718871e2e9666de12f792ed0b39946b33975460ff161561228d57600080fd5b7f4ca318e94f3e0d335d241b6d4b4bd718871e2e9666de12f792ed0b39946b3397805460ff191660011790556001600160a01b03868116600090815260a360209081526040808320938716835292905290812060028101549054909190612327906122f9908b90613990565b6001600160a01b03808b16600090815260a360209081526040808320938b168352929052206001015461391d565b90506123448183600160b11b693932b232b6b83a34b7b702613da7565b609d54604051600160e21b633444c8b50281529192506000916101009091046001600160a01b03169063d11322d490612381908690600401615ba0565b60206040518083038186803b15801561239957600080fd5b505afa1580156123ad573d6000803e3d6000fd5b505050506040513d601f19601f820116820180604052506123d1919081019061527c565b1561246457609d54604051600160e01b63b94676290281526101009091046001600160a01b03169063b94676299061240d908690600401615ba0565b60206040518083038186803b15801561242557600080fd5b505afa158015612439573d6000803e3d6000fd5b505050506040513d601f19601f8201168201806040525061245d9190810190615146565b90506124ee565b609d54604051600160e01b632ea779170281526101009091046001600160a01b031690632ea779179061249b908690600401615cc6565b60206040518083038186803b1580156124b357600080fd5b505afa1580156124c7573d6000803e3d6000fd5b505050506040513d601f19601f820116820180604052506124eb9190810190615146565b90505b6124f981838b6141d5565b604051600160e21b6320188d110281526001600160a01b03871690638062344490612528908d90600401615ba0565b600060405180830381600087803b15801561254257600080fd5b505af1158015612556573d6000803e3d6000fd5b5050604051600160e11b635a393c830281526001600160a01b038916925063b4727906915061258b908c908e90600401615b24565b600060405180830381600087803b1580156125a557600080fd5b505af11580156125b9573d6000803e3d6000fd5b50505050886001600160a01b03167f2d19a99480f5a3ef68b4447c6cca94ffc19c61d91a3baa80d015f30cfb2b46ac878c8b86886040516125fe959493929190615b3f565b60405180910390a25050600160b11b693932b232b6b83a34b7b702600052505060a66020527f4ca318e94f3e0d335d241b6d4b4bd718871e2e9666de12f792ed0b39946b3397805460ff1916905560015b9050611a39565b82600160a11b6b21b0b9b42a3930b739b332b9021415611a39576001600160a01b03808616600090815260a36020908152604080832093861683529290529081206003015481908190889086908b908a9015612fc557600160911b6d31b0b9b43932b232b6b83a34b7b70260005260a66020527fc7e5ed2b3e9d900337a6bb387eeedd4254c98cff1fa87210e05d9a4589549f235460ff16156126f857600080fd5b600160911b6d31b0b9b43932b232b6b83a34b7b70260005260a66020527fc7e5ed2b3e9d900337a6bb387eeedd4254c98cff1fa87210e05d9a4589549f238054600160ff19909116179055609d54604051600160e21b633444c8b50281526101009091046001600160a01b03169063d11322d49061277a908490600401615ba0565b60206040518083038186803b15801561279257600080fd5b505afa1580156127a6573d6000803e3d6000fd5b505050506040513d601f19601f820116820180604052506127ca919081019061527c565b156128ef57609d54604051600160e01b63b94676290281526101009091046001600160a01b03169063b946762990612806908490600401615ba0565b60206040518083038186803b15801561281e57600080fd5b505afa158015612832573d6000803e3d6000fd5b505050506040513d601f19601f820116820180604052506128569190810190615146565b965081876001600160a01b03166370a08231866040518263ffffffff1660e01b81526004016128859190615a51565b60206040518083038186803b15801561289d57600080fd5b505afa1580156128b1573d6000803e3d6000fd5b505050506040513d601f19601f820116820180604052506128d5919081019061529a565b10156128ea5785975050505050505050611a39565b612a0f565b609d54604051600160e01b632ea779170281526101009091046001600160a01b031690632ea7791790612926908490600401615cc6565b60206040518083038186803b15801561293e57600080fd5b505afa158015612952573d6000803e3d6000fd5b505050506040513d601f19601f820116820180604052506129769190810190615146565b604051600160e11b637c06e5cd0281529097506001600160a01b0388169063f80dcb9a906129aa9085908890600401615dfa565b602060405180830381600087803b1580156129c457600080fd5b505af11580156129d8573d6000803e3d6000fd5b505050506040513d601f19601f820116820180604052506129fc919081019061527c565b612a0f5785975050505050505050611a39565b60005b6001600160a01b03808616600090815260a36020908152604080832093881683529290522060050154811015612df9576001600160a01b03808616600090815260a3602090815260408083209388168352929052908120600501805483908110612a7857fe5b9060005260206000200160009054906101000a90046001600160a01b031690506000612b3a60a46000846001600160a01b03166001600160a01b031681526020019081526020016000206000886001600160a01b03166001600160a01b031681526020019081526020016000206004015460a360008a6001600160a01b03166001600160a01b0316815260200190815260200160002060008f6001600160a01b03166001600160a01b0316815260200190815260200160002060000154613990565b6001600160a01b03808916600090815260a360209081526040808320938b1683529290529081205491925090612b7190839061391d565b6001600160a01b03808516600090815260a460209081526040808320938c1683529290522060030154909150612be690829061197290612bb29042906138f2565b6001600160a01b03808d16600090815260a360209081526040808320938f1683529290522060030154611c699042906138f2565b90506001600160a01b038b1615801590612c005750600081115b15612d5f57612c208186600160b11b693932b232b6b83a34b7b702613da7565b9050612c2d8b82856141d5565b612c378982613968565b604051600160e21b6320188d110281529099506001600160a01b03881690638062344490612c69908490600401615ba0565b600060405180830381600087803b158015612c8357600080fd5b505af1158015612c97573d6000803e3d6000fd5b5050604051600160e11b635a393c830281526001600160a01b038a16925063b47279069150612ccc9086908590600401615b24565b600060405180830381600087803b158015612ce657600080fd5b505af1158015612cfa573d6000803e3d6000fd5b5050506001600160a01b03808516600090815260a460209081526040808320938c1683529290522060040154612d319150826138f2565b6001600160a01b03808516600090815260a460209081526040808320938c1683529290522060040155600199505b898015612d9257506001600160a01b03808416600090815260a460209081526040808320938b1683529290522060040154155b15612dee576001600160a01b03808416600090815260a460209081526040808320938b1683529290529081208181556001810182905560028101829055600381018290556004810182905590612deb6005830182614fbe565b50505b505050600101612a12565b600160911b6d31b0b9b43932b232b6b83a34b7b70260005260a66020527fc7e5ed2b3e9d900337a6bb387eeedd4254c98cff1fa87210e05d9a4589549f23805460ff191690558615612fc3576001600160a01b03808616600090815260a360209081526040808320938816835292905290812060040154612e7b908890613990565b6001600160a01b03808816600090815260a360209081526040808320938a1683529290529081206001015491925090612eb4908361391d565b6001600160a01b03808916600090815260a360209081526040808320938b1683529290522060020154909150612eeb8b838a6141d5565b6001600160a01b03808916600090815260a360209081526040808320938b168352929052206005015460001901841415612f76576001600160a01b03808916600090815260a360209081526040808320938b1683529290529081208181556001810182905560028101829055600381018290556004810182905590612f736005830182614fbe565b50505b876001600160a01b03167f2d19a99480f5a3ef68b4447c6cca94ffc19c61d91a3baa80d015f30cfb2b46ac8888888686604051612fb7959493929190615b3f565b60405180910390a25050505b505b85975050505050505050611a39565b6001600160a01b038316612ffd57604051600160e51b62461bcd02815260040161053490615dad565b6001600160a01b03821661302657604051600160e51b62461bcd02815260040161053490615c76565b61306981604051806060016040528060268152602001615ef0602691396001600160a01b038616600090815260336020526040902054919063ffffffff6130f016565b6001600160a01b03808516600090815260336020526040808220939093559084168152205461309e908263ffffffff6135ae16565b6001600160a01b0380841660008181526033602052604090819020939093559151908516907fddf252ad1be2c89b69c2b068fc378daa952ba7f163c4a11628f55a4df523b3ef9061124e908590615ba0565b6000818484111561311757604051600160e51b62461bcd0281526004016105349190615c65565b505050900390565b609d54604051600160e01b63f429f19b02815260009161010090046001600160a01b03169063f429f19b90613158908590600401615a51565b60206040518083038186803b15801561317057600080fd5b505afa158015613184573d6000803e3d6000fd5b505050506040513d601f19601f820116820180604052506131a8919081019061529a565b600160cb1b660acd2c286c2e6d02141561325057604051600160e11b637c06e5cd0281526001600160a01b0383169063f80dcb9a906131ed9088908890600401615dfa565b602060405180830381600087803b15801561320757600080fd5b505af115801561321b573d6000803e3d6000fd5b505050506040513d601f19601f8201168201806040525061323f919081019061527c565b61324b575060006106d3565b613382565b609d54604051600160e21b633444c8b50281526101009091046001600160a01b03169063d11322d490613287908690600401615ba0565b60206040518083038186803b15801561329f57600080fd5b505afa1580156132b3573d6000803e3d6000fd5b505050506040513d601f19601f820116820180604052506132d7919081019061527c565b15156001141561338257604051600160e01b6323b872dd0281526001600160a01b038316906323b872dd9061331490879030908a90600401615aa2565b602060405180830381600087803b15801561332e57600080fd5b505af1158015613342573d6000803e3d6000fd5b505050506040513d601f19601f82011682018060405250613366919081019061527c565b5060006133728361384b565b905061337e86826138e6565b9550505b609d54604051600160e21b633cd163c502815260009182916101009091046001600160a01b03169063f3458f14906133be908890600401615c4b565b60206040518083038186803b1580156133d657600080fd5b505afa1580156133ea573d6000803e3d6000fd5b505050506040513d601f19601f8201168201806040525061340e9190810190615146565b6001600160a01b0316146134b357609f5460a054604051600160e11b634d3038fd0281526134ac926001600160a01b031691639a6071fa91613454918991600401615bae565b602060405180830381600087803b15801561346e57600080fd5b505af1158015613482573d6000803e3d6000fd5b505050506040513d601f19601f820116820180604052506134a6919081019061529a565b8761391d565b905061357d565b609f5460a054604051600160e11b633ce1098302815261357a926001600160a01b031691639a6071fa91889173__stringutils___________________________916379c213069161350d91600290600590600401615c23565b60206040518083038186803b15801561352557600080fd5b505af4158015613539573d6000803e3d6000fd5b505050506040513d601f19601f8201168201806040525061355d919081019061529a565b6040518363ffffffff1660e01b8152600401613454929190615bfc565b90505b6135978160a054600160c81b6669737375696e6702613da7565b90506135a585828887614383565b50949350505050565b60008282018381101561087a57604051600160e51b62461bcd02815260040161053490615cb6565b609d805460ff191690556040517fa45f47fdea8a1efdd9029a5691c7f759c32b7c698632b563573e155625d1693390600090a1565b604051600160e11b637aa9bf6f0281526000906001600160a01b0386169063f5537ede9061364190879087908790600401615aa2565b602060405180830381600087803b15801561365b57600080fd5b505af115801561366f573d6000803e3d6000fd5b505050506040513d601f19601f82011682018060405250613693919081019061527c565b156107eb576001600160a01b03808516600090815260a4602081815260408084208a8616808652908352818520958916855292825280842092845291905290208154815560018083015490820155600280830154908201556003808301549082015560048083015490820155600580830180546137139284019190614fdc565b5050506001600160a01b03808516600090815260a4602090815260408083209389168352929052908120818155600181018290556002810182905560038101829055600481018290559061376a6005830182614fbe565b5050600190506106d3565b609d805460ff191660011790556040517f9e87fac88ff661f02d44f95383c817fece4bce600a3dab7a54406878b965e75290600090a1565b303b1590565b8051610b0d90603690602084019061502c565b6001600160a01b0381166137ef57604051600160e51b62461bcd02815260040161053490615c86565b606a546040516001600160a01b038084169216907f8be0079c531659141344cd1fd0a4f28419497f9722a3daafe3b4186f6b6457e090600090a3606a80546001600160a01b0319166001600160a01b0392909216919091179055565b600080826001600160a01b031663313ce5676040518163ffffffff1660e01b815260040160206040518083038186803b15801561388757600080fd5b505afa15801561389b573d6000803e3d6000fd5b505050506040513d601f19601f820116820180604052506138bf919081019061537f565b60ff16905060006138d16012836138f2565b600a0a670de0b6b3a764000002949350505050565b600061087a838361391d565b60008282111561391757604051600160e51b62461bcd02815260040161053490615d10565b50900390565b600082820283158061393757508284828161393457fe5b04145b61395657604051600160e51b62461bcd02815260040161053490615ddd565b670de0b6b3a764000090049392505050565b60008282018381101561087a57604051600160e51b62461bcd02815260040161053490615d7d565b6000816139b257604051600160e51b62461bcd02815260040161053490615d9d565b826139bf575060006104f5565b670de0b6b3a7640000838102908482816139d557fe5b04146139f657604051600160e51b62461bcd02815260040161053490615d8d565b8281816139ff57fe5b049150506104f5565b600081613a1e5750670de0b6b3a76400006104f5565b82613a2b575060006104f5565b60ff83901c15613a5057604051600160e51b62461bcd02815260040161053490615d6d565b82770bce5086492111aea88f4bb1ca6bcf584181ea8059f765328310613a8b57604051600160e51b62461bcd02815260040161053490615d4d565b826000670c7d713b49da000083138015613aac5750670f43fc2c04ee000083125b15613ae3576000613abc846145c2565b9050670de0b6b3a764000080820784020583670de0b6b3a764000083050201915050613af1565b81613aed846146e9565b0290505b670de0b6b3a76400009005680238fd42c5cf03ffff198112801590613b1f575068070c1cc73b00c800008113155b613b3e57604051600160e51b62461bcd02815260040161053490615d5d565b613b4781614a89565b9695505050505050565b600160c01b6770757263686173650260005260a66020527f95e04c774f5d7102215d947fc04704fee03cb432f0f1423f54aa614882e9492254429060ff1615613b9957600080fd5b600160c01b6770757263686173650260005260a66020527f95e04c774f5d7102215d947fc04704fee03cb432f0f1423f54aa614882e94922805460ff19166001179055604051600160e11b637aa9bf6f0281526001600160a01b0384169063f5537ede90613c0f9085908c908c90600401615aa2565b602060405180830381600087803b158015613c2957600080fd5b505af1158015613c3d573d6000803e3d6000fd5b505050506040513d601f19601f82011682018060405250613c61919081019061527c565b15613d5d57613c718487846141d5565b6001600160a01b03808316600090815260a360209081526040808320878516808552818452918420600581018054600181018255908652848620018054968f166001600160a01b0319909716969096179095559252526004810154613cd69089613968565b6001600160a01b03808516600090815260a36020908152604080832093891683529290522060040155613d0e89848a8a8a878a614e7c565b886001600160a01b03167f4a4fcb3c9b6849f5cb3825d707d3fce0c615b52367c65422a3ad74816ab327538560a1548b8a8c88604051613d5396959493929190615aca565b60405180910390a2505b5050600160c01b67707572636861736502600052505060a660205250507f95e04c774f5d7102215d947fc04704fee03cb432f0f1423f54aa614882e94922805460ff191690555050565b600080600083600160c81b6669737375696e67021415613e4957609e54604051600160e01b63e5f3d3a50281526001600160a01b039091169063e5f3d3a590613df290600401615ded565b60206040518083038186803b158015613e0a57600080fd5b505afa158015613e1e573d6000803e3d6000fd5b505050506040513d601f19601f82011682018060405250613e42919081019061529a565b9150613ee5565b83600160b11b693932b232b6b83a34b7b7021415613ee557609e54604051600160e01b63e5f3d3a50281526001600160a01b039091169063e5f3d3a590613e9290600401615d20565b60206040518083038186803b158015613eaa57600080fd5b505afa158015613ebe573d6000803e3d6000fd5b505050506040513d601f19601f82011682018060405250613ee2919081019061529a565b91505b81156141cb57609e5460408051600160e01b63c561d4b702815290516000926001600160a01b03169163c561d4b7916004808301926020929190829003018186803b158015613f3357600080fd5b505afa158015613f47573d6000803e3d6000fd5b505050506040513d601f19601f82011682018060405250613f6b9190810190615146565b609d54604051600160e21b633444c8b50281529192506000916101009091046001600160a01b03169063d11322d490613fa8908a90600401615ba0565b60206040518083038186803b158015613fc057600080fd5b505afa158015613fd4573d6000803e3d6000fd5b505050506040513d601f19601f82011682018060405250613ff8919081019061527c565b1561408b57609d54604051600160e01b63b94676290281526101009091046001600160a01b03169063b946762990614034908a90600401615ba0565b60206040518083038186803b15801561404c57600080fd5b505afa158015614060573d6000803e3d6000fd5b505050506040513d601f19601f820116820180604052506140849190810190615146565b9050614115565b609d54604051600160e21b633cd163c50281526101009091046001600160a01b03169063f3458f14906140c2908a90600401615c4b565b60206040518083038186803b1580156140da57600080fd5b505afa1580156140ee573d6000803e3d6000fd5b505050506040513d601f19601f820116820180604052506141129190810190615146565b90505b6001600160a01b038216156141c857806001600160a01b031663a9059cbb8361413e878c61391d565b6040518363ffffffff1660e01b815260040161415b929190615b24565b602060405180830381600087803b15801561417557600080fd5b505af1158015614189573d6000803e3d6000fd5b505050506040513d601f19601f820116820180604052506141ad919081019061527c565b506141bc8861180f868b61391d565b945061087a9350505050565b50505b5093949350505050565b609d54604051600160e01b63f429f19b0281526101009091046001600160a01b03169063f429f19b9061420c908690600401615a51565b60206040518083038186803b15801561422457600080fd5b505afa158015614238573d6000803e3d6000fd5b505050506040513d601f19601f8201168201806040525061425c919081019061529a565b600160cb1b660acd2c286c2e6d0214156142f957604051600160e01b63da49588b0281526001600160a01b0384169063da49588b906142a19085908590600401615dfa565b602060405180830381600087803b1580156142bb57600080fd5b505af11580156142cf573d6000803e3d6000fd5b505050506040513d601f19601f820116820180604052506142f3919081019061529a565b5061437e565b604051600160e01b63a9059cbb0281526001600160a01b0384169063a9059cbb9061432a9084908690600401615b24565b602060405180830381600087803b15801561434457600080fd5b505af1158015614358573d6000803e3d6000fd5b505050506040513d601f19601f8201168201806040525061437c919081019061527c565b505b505050565b609d5460a25460a15460405142936000936001600160a01b03610100909204821693638d5040cc9391909216918a916143c29083908990602001615a16565b604051602081830303815290604052805190602001206040518563ffffffff1660e01b81526004016143f79493929190615a6d565b602060405180830381600087803b15801561441157600080fd5b505af1158015614425573d6000803e3d6000fd5b505050506040513d601f19601f820116820180604052506144499190810190615146565b604051600160e11b6310f29c1d02815290915081906001600160a01b038216906321e5383a9061447f908a908a90600401615b24565b600060405180830381600087803b15801561449957600080fd5b505af11580156144ad573d6000803e3d6000fd5b5050604051600160e11b63723434470281526001600160a01b038416925063e468688e91506144e0908990600401615ba0565b600060405180830381600087803b1580156144fa57600080fd5b505af115801561450e573d6000803e3d6000fd5b505060a580546001810182556000919091527fb29a2b3b6f2ff1b765777a231725941da5072cc4fcc30ac4a2ce09706e8ddeff0180546001600160a01b0319166001600160a01b0386161790555061456c9050878787878787614f26565b866001600160a01b03167ff9e043edf72c472f6956335dea3cb1ca7150f556bca6cb2381be218f47a779f18360a15489888a896040516145b196959493929190615aca565b60405180910390a250505050505050565b670de0b6b3a7640000026000806ec097ce7bc90715b34b9f1000000000808401906ec097ce7bc90715b34b9f0fffffffff19850102816145fe57fe5b05905060006ec097ce7bc90715b34b9f100000000082800205905081806ec097ce7bc90715b34b9f100000000081840205915060038205016ec097ce7bc90715b34b9f100000000082840205915060058205016ec097ce7bc90715b34b9f100000000082840205915060078205016ec097ce7bc90715b34b9f100000000082840205915060098205016ec097ce7bc90715b34b9f1000000000828402059150600b8205016ec097ce7bc90715b34b9f1000000000828402059150600d8205016ec097ce7bc90715b34b9f1000000000828402059150600f826002919005919091010295945050505050565b6000670de0b6b3a76400008212156147265761471c826ec097ce7bc90715b34b9f10000000008161471657fe5b056146e9565b6000039050610ba9565b60007e1600ef3172e58d2e933ec884fde10064c63b5372d805e203c0000000000000831261477757770195e54c5dd42177f53a27172fa9ec630262827000000000830592506806f05b59d3b2000000015b73011798004d755d3c8bc8e03204cf44619e00000083126147af576b1425982cf597cd205cef7380830592506803782dace9d9000000015b606492830292026e01855144814a7ff805980ff008400083126147f7576e01855144814a7ff805980ff008400068056bc75e2d63100000840205925068ad78ebc5ac62000000015b6b02df0ab5a80a22c61ab5a7008312614832576b02df0ab5a80a22c61ab5a70068056bc75e2d6310000084020592506856bc75e2d631000000015b693f1fce3da636ea5cf850831261486957693f1fce3da636ea5cf85068056bc75e2d631000008402059250682b5e3af16b18800000015b690127fa27722cc06cc5e283126148a057690127fa27722cc06cc5e268056bc75e2d6310000084020592506815af1d78b58c400000015b68280e60114edb805d0383126148d55768280e60114edb805d0368056bc75e2d631000008402059250680ad78ebc5ac6200000015b680ebc5fb41746121110831261490057680ebc5fb4174612111068056bc75e2d631000009384020592015b6808f00f760a4b2db55d8312614935576808f00f760a4b2db55d68056bc75e2d6310000084020592506802b5e3af16b1880000015b6806f5f1775788937937831261496a576806f5f177578893793768056bc75e2d63100000840205925068015af1d78b58c40000015b6806248f33704b286603831261499e576806248f33704b28660368056bc75e2d63100000840205925067ad78ebc5ac620000015b6805c548670b9510e7ac83126149d2576805c548670b9510e7ac68056bc75e2d6310000084020592506756bc75e2d6310000015b600068056bc75e2d63100000840168056bc75e2d6310000080860302816149f557fe5b059050600068056bc75e2d63100000828002059050818068056bc75e2d63100000818402059150600382050168056bc75e2d63100000828402059150600582050168056bc75e2d63100000828402059150600782050168056bc75e2d63100000828402059150600982050168056bc75e2d63100000828402059150600b820501600202606485820105979650505050505050565b6000680238fd42c5cf03ffff198212158015614aae575068070c1cc73b00c800008213155b614acd57604051600160e51b62461bcd02815260040161053490615cf0565b6000821215614b0157614ae282600003614a89565b6ec097ce7bc90715b34b9f100000000081614af957fe5b059050610ba9565b60006806f05b59d3b20000008312614b4157506806f05b59d3b1ffffff1990910190770195e54c5dd42177f53a27172fa9ec630262827000000000614b77565b6803782dace9d90000008312614b7357506803782dace9d8ffffff19909101906b1425982cf597cd205cef7380614b77565b5060015b6064929092029168056bc75e2d6310000068ad78ebc5ac620000008412614bc75768ad78ebc5ac61ffffff199093019268056bc75e2d631000006e01855144814a7ff805980ff008400082020590505b6856bc75e2d6310000008412614c03576856bc75e2d630ffffff199093019268056bc75e2d631000006b02df0ab5a80a22c61ab5a70082020590505b682b5e3af16b188000008412614c3d57682b5e3af16b187fffff199093019268056bc75e2d63100000693f1fce3da636ea5cf85082020590505b6815af1d78b58c4000008412614c77576815af1d78b58c3fffff199093019268056bc75e2d63100000690127fa27722cc06cc5e282020590505b680ad78ebc5ac62000008412614cb057680ad78ebc5ac61fffff199093019268056bc75e2d6310000068280e60114edb805d0382020590505b68056bc75e2d631000008412614ce95768056bc75e2d630fffff199093019268056bc75e2d63100000680ebc5fb4174612111082020590505b6802b5e3af16b18800008412614d22576802b5e3af16b187ffff199093019268056bc75e2d631000006808f00f760a4b2db55d82020590505b68015af1d78b58c400008412614d5b5768015af1d78b58c3ffff199093019268056bc75e2d631000006806f5f177578893793782020590505b68056bc75e2d631000008481019085906002908280020505918201919050600368056bc75e2d631000008783020505918201919050600468056bc75e2d631000008783020505918201919050600568056bc75e2d631000008783020505918201919050600668056bc75e2d631000008783020505918201919050600768056bc75e2d631000008783020505918201919050600868056bc75e2d631000008783020505918201919050600968056bc75e2d631000008783020505918201919050600a68056bc75e2d631000008783020505918201919050600b68056bc75e2d631000008783020505918201919050600c68056bc75e2d631000008783020505918201919050606468056bc75e2d63100000848402058502059695505050505050565b6001600160a01b03878116600090815260a460209081526040808320858516845282528220600581018054600181018255908452919092200180546001600160a01b031916928916929092179091556004810154614eda9087613968565b60048201556001810154614eee9086613968565b6001820155600281018490556003810154614f1790614f0d9085613968565b6005830154614f8b565b60039091015550505050505050565b6001600160a01b03958616600081815260a36020908152604080832094909916825292835296872060058101805460018181018355918a529390982090920180546001600160a01b031916909117905593845593830191909155600282015560030155565b600081614fad57604051600160e51b62461bcd02815260040161053490615d9d565b818381614fb657fe5b049392505050565b508054600082559060005260206000209081019061119a91906150a2565b82805482825590600052602060002090810192821561501c5760005260206000209182015b8281111561501c578254825591600101919060010190615001565b506150289291506150bc565b5090565b828054600181600116156101000203166002900490600052602060002090601f016020900481019282601f1061506d57805160ff191683800117855561509a565b8280016001018555821561509a579182015b8281111561509a57825182559160200191906001019061507f565b506150289291505b6104da91905b8082111561502857600081556001016150a8565b6104da91905b808211156150285780546001600160a01b03191681556001016150c2565b600061087a8235615e5f565b600061087a8251615e5f565b600061087a8251615e6a565b600061087a82356104da565b600061087a82516104da565b600061087a8251615e7b565b60006020828403121561513a57600080fd5b60006106d384846150e0565b60006020828403121561515857600080fd5b60006106d384846150ec565b6000806040838503121561517757600080fd5b600061518385856150e0565b9250506020615194858286016150e0565b9150509250929050565b6000806000606084860312156151b357600080fd5b60006151bf86866150e0565b93505060206151d0868287016150e0565b92505060406151e186828701615104565b9150509250925092565b6000806000806080858703121561520157600080fd5b600061520d87876150e0565b945050602061521e878288016150e0565b935050604061522f87828801615104565b9250506060615240878288016150e0565b91505092959194509250565b6000806040838503121561525f57600080fd5b600061526b85856150e0565b925050602061519485828601615104565b60006020828403121561528e57600080fd5b60006106d384846150f8565b6000602082840312156152ac57600080fd5b60006106d38484615110565b60008060008060008060c087890312156152d157600080fd5b60006152dd8989615104565b96505060206152ee89828a01615104565b95505060406152ff89828a016150e0565b945050606061531089828a016150e0565b935050608061532189828a016150e0565b92505060a061533289828a016150e0565b9150509295509295509295565b60006020828403121561535157600080fd5b60006106d38484615104565b6000806000806080858703121561537357600080fd5b600061520d8787615104565b60006020828403121561539157600080fd5b60006106d3848461511c565b60006153a983836153c0565b505060200190565b6153ba81615e81565b82525050565b6153ba81615e5f565b6153ba6153d582615e5f565b615ece565b60006153e582615e52565b6153ef8185615e56565b93506153fa83615e4c565b60005b828110156141cb5761541086835161539d565b955061541b82615e4c565b91506001016153fd565b6153ba81615e6a565b6153ba816104da565b6153ba615443826104da565b6104da565b6153ba81615e8c565b600061545c82615e52565b6154668185615e56565b9350615476818560208601615ea2565b61547f81615edf565b9093019392505050565b6000615496602383615e56565b7f45524332303a207472616e7366657220746f20746865207a65726f20616464728152600160e81b6265737302602082015260400192915050565b60006154de602683615e56565b7f4f776e61626c653a206e6577206f776e657220697320746865207a65726f20618152600160d01b6564647265737302602082015260400192915050565b6000615529602283615e56565b7f45524332303a20617070726f766520746f20746865207a65726f2061646472658152600160f01b61737302602082015260400192915050565b6000615570601783615e56565b7f507572636861736520616d6f756e74206973207a65726f000000000000000000815260200192915050565b600160e91b623b32b9029052565b60006155b7601b83615e56565b7f536166654d6174683a206164646974696f6e206f766572666c6f770000000000815260200192915050565b600160cb1b660acd2c286c2e6d029052565b6000615602600f83615e56565b7f414d4c4120636865636b206661696c0000000000000000000000000000000000815260200192915050565b600061563b601083615e56565b7f494e56414c49445f4558504f4e454e5400000000000000000000000000000000815260200192915050565b6000615674602083615e56565b7f556e737570706f7274656420636f6c6c61746572616c20666f72206973737565815260200192915050565b60006156ad600c83615e56565b7f5355425f4f564552464c4f570000000000000000000000000000000000000000815260200192915050565b600160b11b693932b232b6b83a34b7b7029052565b600160f11b6134b9029052565b600160f11b6132b9029052565b6000615715602083615e56565b7f4f776e61626c653a2063616c6c6572206973206e6f7420746865206f776e6572815260200192915050565b600061574e602e83615e56565b7f436f6e747261637420696e7374616e63652068617320616c726561647920626581527f656e20696e697469616c697a6564000000000000000000000000000000000000602082015260400192915050565b60006157ad600f83615e56565b7f595f4f55545f4f465f424f554e44530000000000000000000000000000000000815260200192915050565b60006157e6601583615e56565b7f50524f445543545f4f55545f4f465f424f554e44530000000000000000000000815260200192915050565b600061581f600f83615e56565b7f585f4f55545f4f465f424f554e44530000000000000000000000000000000000815260200192915050565b6000615858600c83615e56565b7f4144445f4f564552464c4f570000000000000000000000000000000000000000815260200192915050565b6000615891600c83615e56565b7f4449565f494e5445524e414c0000000000000000000000000000000000000000815260200192915050565b60006158ca600d83615e56565b7f5a45524f5f4449564953494f4e00000000000000000000000000000000000000815260200192915050565b6000615903602583615e56565b7f45524332303a207472616e736665722066726f6d20746865207a65726f2061648152600160d81b64647265737302602082015260400192915050565b600061594d602483615e56565b7f45524332303a20617070726f76652066726f6d20746865207a65726f206164648152600160e01b637265737302602082015260400192915050565b6000615996601f83615e56565b7f5075726368617365206e6f742077697468205665726966696564206361736800815260200192915050565b60006159cf600c83615e56565b7f4d554c5f4f564552464c4f570000000000000000000000000000000000000000815260200192915050565b600160c81b6669737375696e67029052565b6153ba81615e7b565b6000615a2282856153c9565b601482019150615a328284615437565b5060200192915050565b6000615a488284615437565b50602001919050565b602081016104f582846153c0565b602081016104f582846153b1565b60808101615a7b82876153c0565b615a8860208301866153c0565b615a95604083018561542e565b611a39606083018461542e565b60608101615ab082866153c0565b615abd60208301856153c0565b6106d3604083018461542e565b60c08101615ad882896153c0565b615ae5602083018861542e565b615af2604083018761542e565b615aff606083018661542e565b615b0c608083018561542e565b615b1960a083018461542e565b979650505050505050565b60408101615b3282856153c0565b61087a602083018461542e565b60a08101615b4d82886153c0565b615b5a602083018761542e565b615b67604083018661542e565b615b74606083018561542e565b613b47608083018461542e565b6020808252810161087a81846153da565b602081016104f58284615425565b602081016104f5828461542e565b60608101615bbc828561542e565b615bc9602083018461542e565b61087a6040830161559c565b60608101615be3828561542e565b615bf0602083018461542e565b61087a604083016156ee565b60608101615c0a828561542e565b615c17602083018461542e565b61087a604083016156fb565b60608101615c31828661542e565b615c3e6020830185615448565b6106d36040830184615448565b60408101615c59828461542e565b6104f5602083016155e3565b6020808252810161087a8184615451565b602080825281016104f581615489565b602080825281016104f5816154d1565b602080825281016104f58161551c565b602080825281016104f581615563565b602080825281016104f5816155aa565b60408101615cd3826155e3565b6104f5602083018461542e565b602080825281016104f5816155f5565b602080825281016104f58161562e565b602080825281016104f581615667565b602080825281016104f5816156a0565b60208101610ba9826156d9565b602080825281016104f581615708565b602080825281016104f581615741565b602080825281016104f5816157a0565b602080825281016104f5816157d9565b602080825281016104f581615812565b602080825281016104f58161584b565b602080825281016104f581615884565b602080825281016104f5816158bd565b602080825281016104f5816158f6565b602080825281016104f581615940565b602080825281016104f581615989565b602080825281016104f5816159c2565b60208101610ba9826159fb565b60408101615e08828561542e565b61087a60208301846153c0565b60808101615e23828761542e565b615a88602083018661542e565b60a08101615b4d828861542e565b602081016104f58284615a0d565b60200190565b5190565b90815260200190565b60006104f582615e6f565b151590565b6001600160a01b031690565b60ff1690565b60006104f582615e97565b60006104f5826104da565b60006104f582615e5f565b60005b83811015615ebd578181015183820152602001615ea5565b8381111561437c5750506000910152565b60006104f58260006104f582615ee9565b601f01601f191690565b60601b9056fe45524332303a207472616e7366657220616d6f756e7420657863656564732062616c616e636545524332303a207472616e7366657220616d6f756e74206578636565647320616c6c6f77616e636545524332303a2064656372656173656420616c6c6f77616e63652062656c6f77207a65726fa265627a7a7230582099e084f4e5c39a2ba22ff6ed760fbc0b945bf8799fc55c69d79a248bd818bd2a6c6578706572696d656e74616cf50037",
  "source": "// (c) Kallol Borah, 2020\r\n// Implementation of the Verified zero coupon bond.\r\n// SPDX-License-Identifier: BUSL\r\n\r\npragma solidity 0.5.7;\r\npragma experimental ABIEncoderV2;\r\n\r\nimport \"./interfaces/ViaCash.sol\";\r\nimport \"./interfaces/ViaBond.sol\";\r\nimport \"./interfaces/ViaToken.sol\";\r\nimport \"./interfaces/ViaOracle.sol\";\r\nimport \"./interfaces/ViaFactory.sol\";\r\nimport \"./interfaces/VerifiedClient.sol\";\r\nimport \"./interfaces/VerifiedRates.sol\";\r\n\r\nimport \"./math/Math.sol\";\r\nimport \"./math/FixedPoint.sol\";\r\nimport \"./math/LogExpMath.sol\";\r\n\r\nimport \"./utilities/ERC20.sol\";\r\nimport \"./utilities/Pausable.sol\";\r\nimport \"./utilities/StringUtils.sol\";\r\n\r\nimport \"@openzeppelin/upgrades/contracts/Initializable.sol\";\r\nimport \"@openzeppelin/contracts-ethereum-package/contracts/ownership/Ownable.sol\";\r\n\r\ncontract Bond is ViaBond, Initializable, ERC20, Ownable, Pausable {\r\n\r\n    using stringutils for *;\r\n    using Math for uint256;\r\n    using FixedPoint for uint256;\r\n    using LogExpMath for uint256;\r\n\r\n    //token factory address\r\n    ViaFactory private factory;\r\n\r\n    VerifiedRates private rates;\r\n\r\n    //oracle\r\n    ViaOracle private oracle;\r\n\r\n    //currency of bond token (eg, VCUSD)\r\n    bytes32 public bondCurrency;\r\n    //name of bond token (eg, VBUSD)\r\n    bytes32 public bondName;\r\n    \r\n    //token address\r\n    address private token;\r\n\r\n    //mapping issuer (address) to address of bond token (address) which acts as identifier for bonds on offer\r\n    mapping(address => mapping (address => ViaBond.bond)) public issues;\r\n\r\n    //mapping purchaser (address) to address of bond token (address) which acts as identifier for bonds subscribed \r\n    mapping(address => mapping (address => ViaBond.bond)) public purchases;\r\n\r\n    //array of issues of this bond, where bond IDs are their addresses of their token issues\r\n    address[] public bondsIssued;\r\n\r\n    //events to capture and report to Verified oracle\r\n    event BondIssued(address indexed party, address token, bytes32 bondName, uint256 amount, bytes32 currency, uint256 collateralAmount, uint256 issueTime);\r\n    event BondRedeemed(address indexed party, address token, uint256 tokenAmount, bytes32 tokenName, uint256 amount, bytes32 currency);\r\n    event BondPurchased(address indexed party, address token, bytes32 bondName, uint256 amount, bytes32 currency, uint256 paidInAmount, uint256 purchaseTime);\r\n    event BondLiquidated(address indexed party, address token, uint256 tokenAmount, bytes32 tokenName, uint256 amount, bytes32 currency);\r\n\r\n    //mutex\r\n    mapping(bytes32 => bool) private lock;\r\n\r\n    //initiliaze proxies\r\n    function initialize(bytes32 _name, bytes32 _currency, address _owner, address _oracle, address _token, address _fee) public initializer {\r\n        Ownable.initialize(_owner);\r\n        factory = ViaFactory(msg.sender);\r\n        oracle = ViaOracle(_oracle);\r\n        setName(string(abi.encodePacked(_name)));\r\n        //setSymbol(_name.substring(0,5));\r\n        bondName = _name;\r\n        bondCurrency = _currency;\r\n        token = _token;\r\n        rates = VerifiedRates(_fee);\r\n    }\r\n\r\n    function requestIssue(uint256 amount, address payer, bytes32 currency, address cashContract) external returns(bool){\r\n        // contract must not be paused\r\n        require(paused == false);\r\n        //bonds denominated in a currency can not be collateralized with that currency itself\r\n        require(bondCurrency!=currency);\r\n        //check aml status\r\n        require(amlCheck(payer)==true, \"AMLA check fail\");\r\n        require(factory.getType(msg.sender) == \"ViaCash\" || factory.checkSupportForToken(currency), \"Unsupported collateral for issue\");\r\n        return(issue(amount, payer, currency, cashContract));\r\n    }\r\n\r\n    //requesting issue of bond tokens to payer (issuer) that can pay in ether, or in cash tokens\r\n    function issue(uint256 amount, address payer, bytes32 currency, address cashContract) private returns(bool){             \r\n        //adds paid in amount to the paid in currency's cash balance\r\n        if(factory.getType(cashContract)==\"ViaCash\"){\r\n            if(!ViaCash(cashContract).requestAddToBalance(amount, payer)){\r\n                return false;\r\n            }\r\n        }\r\n        else if(factory.checkSupportForToken(currency)==true){\r\n            //for acceptable collateral for bonds                       \r\n            IERC20(cashContract).transferFrom(payer, address(this), amount);\r\n            uint256 scalingFactor = _computeScalingFactor(IERC20(cashContract));\r\n            amount = _upscale(amount, scalingFactor);\r\n        }\r\n        //call oracle to calculate par value\r\n        uint256 parValue;\r\n        if(factory.getTokenByNameType(currency, \"ViaCash\")!=address(0x0))\r\n            //if the cash token paid in to a bond token is different from the denomination of this bond, \r\n            //tokens of this bond need to be issued from the issuers' account after pricing the bond with applicable coupon rates\r\n            parValue = FixedPoint.mulDown(oracle.request(currency, bondCurrency, \"ver\"), amount);\r\n        else\r\n            //if any other supported token is paid into a bond contract, \r\n            //the bond contract will issue bond tokens of an equivalent face value.\r\n            parValue = FixedPoint.mulDown(oracle.request(currency, bondCurrency.substringinbytes(2,5), \"er\"), amount);\r\n        //pay issuing fee\r\n        parValue = payFee(parValue, bondCurrency, \"issuing\");\r\n        //request issue of bond at par value\r\n        finallyIssue(payer, parValue, amount, currency);\r\n    }\r\n\r\n    //issue bond tokens using factory and set total supply of issued bond token\r\n    function finallyIssue(address payer, uint256 parValue, uint256 paidInAmount, bytes32 paidCurrency) private {\r\n        uint256 issueTime = now;\r\n        //issue bond which initializes a token with the attributes of the bond\r\n        address issuedBond = factory.createToken(token, payer, bondName, keccak256(abi.encodePacked(payer,issueTime)));\r\n        //initialize bond token\r\n        ViaToken vt = ViaToken(issuedBond);\r\n        vt.addBalance(payer, parValue);\r\n        vt.addTotalSupply(parValue);        \r\n        //keep track of issues\r\n        bondsIssued.push(issuedBond);\r\n        storeIssuedBond(payer, parValue, paidInAmount, paidCurrency, issueTime, issuedBond);\r\n        //generate event\r\n        emit BondIssued(payer, issuedBond, bondName, parValue, paidCurrency, paidInAmount, issueTime);\r\n    }\r\n\r\n    //stores issued bond details\r\n    function storeIssuedBond(address _party, uint256 _parValue, uint256 _paidInAmount, bytes32 _paidInCurrency, uint256 _timeIssued, address _issuedBond) private {\r\n        bond storage b = issues[_party][_issuedBond];\r\n        b.counterParties.push(_party);\r\n        b.parValue = _parValue;\r\n        b.paidInAmount = _paidInAmount;\r\n        b.paidInCurrency = _paidInCurrency;\r\n        b.timeIssuedOrSubscribed = _timeIssued;\r\n    }\r\n\r\n    function requestPurchase(uint256 amount, address payer, bytes32 currency, address cashContract) external returns(bool){\r\n        // contract must not be paused\r\n        require(paused == false);\r\n        //ensure that brought amount is not zero\r\n        require(amount != 0, \"Purchase amount is zero\");\r\n        //check aml status\r\n        require(amlCheck(payer)==true, \"AMLA check fail\");\r\n        require(factory.getType(msg.sender) == \"ViaBondToken\");\r\n        require(factory.getType(cashContract)==\"ViaCash\", \"Purchase not with Verified cash\");\r\n        return(purchase(amount, payer, currency, cashContract, msg.sender));\r\n    }\r\n    \r\n    //requesting purchase of bond tokens to payer (buyer) that can pay in cash tokens\r\n    function purchase(uint256 amount, address payer, bytes32 currency, address cashContract, address tokenContract) private returns(bool){\r\n        if(factory.getType(cashContract)==\"ViaCash\"){\r\n            //adds paid in amount to the paid in currency's cash balance\r\n            if(!ViaCash(cashContract).requestAddToBalance(amount, payer)){\r\n                return false;\r\n            }\r\n        }\r\n        else if(factory.checkSupportForToken(currency)==true){\r\n            //for acceptable purchasing token for bonds                       \r\n            IERC20(cashContract).transferFrom(payer, address(this), amount);\r\n            uint256 scalingFactor = _computeScalingFactor(IERC20(cashContract));\r\n            amount = _upscale(amount, scalingFactor);\r\n        }\r\n        uint256 er;\r\n        uint256 ir;\r\n        uint256 price;\r\n        //find tenure of bond set by its issuer and adjust it by the time it is being purchased\r\n        ViaToken vt = ViaToken(tokenContract);\r\n        address issuer = vt.getIssuer();\r\n        uint256 tenure = factory.getBondTerm(tokenContract)==0 ? 31536000 : factory.getBondTerm(tokenContract);\r\n        tenure = Math.sub(now, issues[issuer][tokenContract].timeIssuedOrSubscribed)==0 ? tenure : \r\n                    Math.sub(tenure, Math.sub(now, issues[issuer][tokenContract].timeIssuedOrSubscribed));\r\n        if(currency!=bondCurrency){\r\n            //if the cash token paid in to a bond token is different from the denomination of this bond, \r\n            //tokens of this bond need to be transferred from an issuers' account after pricing the bond with applicable coupon rates\r\n            er = oracle.request(currency, bondCurrency, \"er\");\r\n            ir = oracle.request(currency, bondCurrency, \"ir\");\r\n            price = FixedPoint.mulDown(FixedPoint.mulDown(amount, er), LogExpMath.pow(FixedPoint.add(1e18, ir), FixedPoint.divDown(tenure, 31536000)));\r\n        }\r\n        else{\r\n            //if the cash token paid in is the same denomination of this bond, then\r\n            //tokens of this bond need to be transferred from an issuer's account after pricing the bond with the domestic (paid in currency) coupon rates\r\n            ir = oracle.request(currency, currency, \"ir\");\r\n            price = FixedPoint.mulDown(amount, LogExpMath.pow(FixedPoint.add(1e18, ir), FixedPoint.divDown(tenure, 31536000)));\r\n        }\r\n        //request purchase of bond\r\n        finallyPurchase(payer, price, amount, currency, cashContract, tokenContract, issuer);\r\n    }\r\n    \r\n    function finallyPurchase(address payer, uint256 purchaseValue, uint256 paidInAmount, bytes32 paidInCashToken, address cashContract, address tokenContract, address issuer) private {\r\n        uint256 purchaseTime = now;\r\n        require(!lock[\"purchase\"]);\r\n        lock[\"purchase\"] = true;\r\n        //transfer cash paid in by purchaser to issuer from whom bond is transferred to purchaser\r\n        //if there is enough issued bonds, transfer bond from issuer to payer\r\n        if(ViaToken(tokenContract).transferToken(issuer, payer, purchaseValue)){                \r\n            //_transfer(issuer, payer, purchaseValue);\r\n            //deduct paid out cash token from purchaser cash balance which was added to cash contract's balance and transfer to issuer\r\n            send(cashContract, paidInAmount, issuer);\r\n            //add purchaser as counter party in issuer's record\r\n            bond storage b = issues[issuer][tokenContract];\r\n            b.counterParties.push(payer);\r\n            //add to issued value of bond for amount transferred by purchaser\r\n            issues[issuer][tokenContract].purchasedIssueAmount = Math.add(issues[issuer][tokenContract].purchasedIssueAmount, purchaseValue); \r\n            //add bond to purchaser's record\r\n            storePurchasedBond(payer, issuer, purchaseValue, paidInAmount, paidInCashToken, purchaseTime, tokenContract);\r\n            //bond purchased event\r\n            emit BondPurchased(payer, tokenContract, bondName, purchaseValue, paidInCashToken, paidInAmount, purchaseTime);\r\n        }\r\n        lock[\"purchase\"] = false;        \r\n    }\r\n\r\n    //stores purchased bond details\r\n    function storePurchasedBond(address _payer, address _party, uint256 _purchasedIssueAmount, uint256 _paidInAmount, bytes32 _paidInCashToken, uint256 _timeSubscribed, address _issuedBond) private {\r\n        bond storage b = purchases[_payer][_issuedBond];\r\n        b.counterParties.push(_party);\r\n        b.purchasedIssueAmount = Math.add(b.purchasedIssueAmount, _purchasedIssueAmount);\r\n        b.paidInAmount = Math.add(b.paidInAmount, _paidInAmount);\r\n        b.paidInCurrency = _paidInCashToken;\r\n        b.timeIssuedOrSubscribed = Math.divDown(Math.add(b.timeIssuedOrSubscribed, _timeSubscribed), b.counterParties.length);\r\n    }\r\n\r\n    function requestRedemption(uint256 amount, address payer, bytes32 currency, address tokenContract) external returns(bool){\r\n        // contract must not be paused\r\n        require(paused == false);\r\n        //check aml status\r\n        require(amlCheck(payer)==true, \"AMLA check fail\");\r\n        require(factory.getType(msg.sender) == \"ViaBondToken\");\r\n        //if the paying in is for repayment of a bond already issued, then\r\n        //transfer the paid in amount to the bond holders, release the collateral back to the issuer and extinguish the bond\r\n        if(redeem(amount, payer, currency, \"CashTransfer\", tokenContract))\r\n            return true;\r\n        else\r\n            return false;\r\n    }\r\n    \r\n    //requesting redemption of Verified bonds and transfer of cash collateral to issuer \r\n    function redeem(uint256 amount, address payer, bytes32 tokenName, bytes32 action, address tokenContract) private returns(bool){\r\n        //if Verified bond holder redeems bond on day of expiry, issuer collateral is transferred to bond holder\r\n        if(action==\"TokenTransfer\"){\r\n            bool status = false;\r\n            //find if the bond was issued to payer (purchaser) earlier\r\n            if(purchases[payer][tokenContract].purchasedIssueAmount==amount){\r\n                //check if redemption term is over\r\n                if(purchases[payer][tokenContract].timeIssuedOrSubscribed > 0){\r\n                    address issuer = purchases[payer][tokenContract].counterParties[0];\r\n                    //uint256 redemptionAmount = amount;\r\n                    uint256 redemptionAmount = FixedPoint.mulDown(FixedPoint.divDown(amount, issues[purchases[payer][tokenContract].counterParties[0]][tokenContract].parValue), \r\n                                                issues[purchases[payer][tokenContract].counterParties[0]][tokenContract].paidInAmount);\r\n                    //adjust redemptionAmount for time subscribed\r\n                    redemptionAmount = FixedPoint.mulDown(redemptionAmount, FixedPoint.divDown(\r\n                                        Math.sub(now, purchases[payer][tokenContract].timeIssuedOrSubscribed),\r\n                                        Math.sub(now, issues[issuer][tokenContract].timeIssuedOrSubscribed)));\r\n                    require(!lock[\"liquidation\"]);\r\n                    lock[\"liquidation\"] = true;                    \r\n                    if(redemptionAmount >= 0){\r\n                        bytes32 paidInCurrency = issues[purchases[payer][tokenContract].counterParties[0]][tokenContract].paidInCurrency;\r\n                        //pay fee on bond redemption\r\n                        redemptionAmount = payFee(redemptionAmount, paidInCurrency, \"redemption\");\r\n                        address viaAddress;\r\n                        if(factory.checkSupportForToken(paidInCurrency)){\r\n                            viaAddress = factory.getCurrencyToken(paidInCurrency);\r\n                        }\r\n                        else{\r\n                            viaAddress = factory.getIssuer(\"ViaCash\", paidInCurrency);\r\n                        }\r\n                        send(viaAddress, redemptionAmount, payer);\r\n                        //adjust total supply of this bond\r\n                        ViaToken(tokenContract).reduceSupply(amount);                        \r\n                        //reduce payer's balance of bond held\r\n                        ViaToken(tokenContract).reduceBalance(payer, amount);\r\n                        //generate event\r\n                        emit BondLiquidated(payer, tokenContract, amount, tokenName, redemptionAmount, paidInCurrency);\r\n                        //remove payer (purchaser) from counter party list of issuer \r\n                        uint length = issues[issuer][tokenContract].counterParties.length;\r\n                        for(uint p=0; p<length; p++){\r\n                            if(issues[issuer][tokenContract].counterParties[p]==payer){\r\n                                delete(issues[issuer][tokenContract].counterParties[p]);\r\n                            }                    \r\n                        }\r\n                        //remove payer (purchaser) record from list of purchasers\r\n                        delete(purchases[payer][tokenContract]);\r\n                    }\r\n                    lock[\"liquidation\"] = false;\r\n                    status = true;\r\n                }\r\n            }\r\n            //find if the bond was issued to payer (issuer) earlier and the issuer is returning unsold bond tokens\r\n            else if(ViaToken(tokenContract).getBalance(payer) >= amount){\r\n                require(!lock[\"redemption\"]);\r\n                lock[\"redemption\"] = true;\r\n                bytes32 paidInCurrency = issues[payer][tokenContract].paidInCurrency;\r\n                //calculate redemption amount based on how much collateral is not encumbered\r\n                uint256 uncumberedAmount = FixedPoint.mulDown(FixedPoint.divDown(amount, issues[payer][tokenContract].parValue), issues[payer][tokenContract].paidInAmount);\r\n                //pay fee on bond redemption\r\n                uncumberedAmount = payFee(uncumberedAmount, paidInCurrency, \"redemption\");\r\n                //transfer unencumbered amount from issuer to issuer (redeemer) of bond\r\n                address viaAddress;\r\n                if(factory.checkSupportForToken(paidInCurrency))\r\n                    viaAddress = factory.getCurrencyToken(paidInCurrency);\r\n                else\r\n                    viaAddress = factory.getIssuer(\"ViaCash\", paidInCurrency);\r\n                send(viaAddress, uncumberedAmount, payer);\r\n                //adjust total supply of this bond\r\n                ViaToken(tokenContract).reduceSupply(amount);                \r\n                //reduce payer's balance of bond held\r\n                ViaToken(tokenContract).reduceBalance(payer, amount);\r\n                //generate event\r\n                emit BondRedeemed(payer, tokenContract, amount, tokenName, uncumberedAmount, paidInCurrency);\r\n                lock[\"redemption\"] = false; \r\n                status = true;\r\n            }\r\n            return status;\r\n        }\r\n        //if Verified bond issuer pays in cash for redemption, it is paid back to Verified bond holders and collateral paid back to issuers\r\n        else if(action==\"CashTransfer\"){            \r\n            address viaAddress;\r\n            bool status = false;\r\n            uint256 totalToRedeem;\r\n            address issuer = payer;\r\n            address bondToken = tokenContract;\r\n            uint256 redeemAmount = amount;\r\n            bytes32 bondTokenName = tokenName;\r\n            if(issues[issuer][bondToken].timeIssuedOrSubscribed > 0){   \r\n                require(!lock[\"cashredemption\"]);\r\n                lock[\"cashredemption\"] = true;             \r\n                if(factory.checkSupportForToken(bondTokenName)){\r\n                    viaAddress = factory.getCurrencyToken(bondTokenName);\r\n                    if(IERC20(viaAddress).balanceOf(issuer)<redeemAmount)\r\n                        return status;\r\n                }\r\n                else{\r\n                    viaAddress = factory.getIssuer(\"ViaCash\", bondTokenName);\r\n                    if(!ViaCash(viaAddress).requestAddToBalance(redeemAmount, issuer)){\r\n                        return status;\r\n                    }\r\n                }\r\n                //find the bond that was issued by payer (issuer) earlier\r\n                uint p = 0;\r\n                for(p=0; p<issues[issuer][bondToken].counterParties.length; p++){\r\n                    address purchaser = issues[issuer][bondToken].counterParties[p];\r\n                    //release collateral and transfer to issuer of bond\r\n                    //and send paid in amount to purchaser of bond\r\n                    //calculate redemption amount\r\n                    uint256 proportionPurchased = FixedPoint.divDown(purchases[purchaser][bondToken].purchasedIssueAmount, issues[issuer][tokenContract].parValue);\r\n                    uint256 redemptionAmount = FixedPoint.mulDown(proportionPurchased, issues[issuer][bondToken].parValue);\r\n                    //adjust redemptionAmount for time subscribed\r\n                    redemptionAmount = FixedPoint.mulDown(redemptionAmount, FixedPoint.divDown(\r\n                                        Math.sub(now, purchases[purchaser][bondToken].timeIssuedOrSubscribed),\r\n                                        Math.sub(now, issues[issuer][bondToken].timeIssuedOrSubscribed)));                        \r\n                    //send paid in amount to bond purchaser\r\n                    if(viaAddress!=address(0x0) && (redemptionAmount > 0)){\r\n                        //pay fee on bond redemption\r\n                        redemptionAmount = payFee(redemptionAmount, bondTokenName, \"redemption\");\r\n                        send(viaAddress, redemptionAmount, purchaser);\r\n                        //add redeemed amount to total\r\n                        totalToRedeem = Math.add(totalToRedeem, redemptionAmount);\r\n                        //adjust total supply of this bond\r\n                        ViaToken(bondToken).reduceSupply(redemptionAmount);                            \r\n                        //reduce counter party's balance of bond held\r\n                        ViaToken(bondToken).reduceBalance(purchaser, redemptionAmount);\r\n                        purchases[purchaser][bondToken].purchasedIssueAmount = \r\n                            Math.sub(purchases[purchaser][bondToken].purchasedIssueAmount, redemptionAmount);\r\n                        status = true;\r\n                    }                        \r\n                    if(status && purchases[purchaser][bondToken].purchasedIssueAmount==0)\r\n                        //if a purchaser is redeemed, then delete its record from list of purchases\r\n                        delete(purchases[purchaser][bondToken]);                    \r\n                }\r\n                lock[\"cashredemption\"] = false;\r\n                if(status){\r\n                    //find proportion to redeem\r\n                    uint256 proportionToRedeem = FixedPoint.divDown(totalToRedeem, issues[issuer][bondToken].purchasedIssueAmount);\r\n                    //returned redeemed proportion of collateral to payer (issuer)\r\n                    uint256 amountToRedeem = FixedPoint.mulDown(issues[issuer][bondToken].paidInAmount, proportionToRedeem);\r\n                    bytes32 paidInCurrency = issues[issuer][bondToken].paidInCurrency;\r\n                    send(viaAddress, amountToRedeem, issuer);\r\n                    if(p==issues[issuer][bondToken].counterParties.length-1)\r\n                        //if all bond purchasers are redeemed, then delete the issuer record\r\n                        delete(issues[issuer][bondToken]);\r\n                    emit BondRedeemed(issuer, bondToken, redeemAmount, bondTokenName, amountToRedeem, paidInCurrency);\r\n                }\r\n            }\r\n            return status;\r\n        }\r\n    }\r\n    \r\n    //redirected from transferFrom function in bond token contract\r\n    function transferForward(address sender, address receiver, uint256 tokens, address forwarder) external returns (bool){\r\n        // contract must not be paused\r\n        require(paused == false);\r\n        //check aml status\r\n        require(amlCheck(sender)==true);\r\n        require(amlCheck(receiver)==true);     \r\n        //check if tokens are being transferred to this bond contract\r\n        if(receiver != address(this) && receiver == forwarder){         \r\n            //if token name is the same, this transfer has to be redeemed\r\n            if(redeem(tokens, sender, bondName, \"TokenTransfer\", forwarder))\r\n                return true;\r\n            else\r\n                return false;\r\n        }\r\n        else {\r\n            //bond tokens are being sent to a user account\r\n            //sender is transferring its full purchase amount of bonds\r\n            //transfer of bond token to another user has to be of the exact amount purchased earlier by sender\r\n            if(purchases[sender][forwarder].purchasedIssueAmount==tokens){\r\n                if(transferBondToken(forwarder, sender, receiver, tokens))\r\n                    return true;\r\n                else\r\n                    return false;                \r\n            }\r\n            return false;\r\n        }\r\n    }\r\n\r\n    function transferBondToken(address issuedBond, address sender, address receiver, uint tokens) private returns (bool){\r\n        if(ViaToken(issuedBond).transferToken(sender, receiver, tokens)){\r\n            purchases[receiver][issuedBond] = purchases[sender][issuedBond];\r\n            delete purchases[sender][issuedBond];\r\n            return true;\r\n        }\r\n        else{\r\n            return false;\r\n        }\r\n    }\r\n\r\n    function getBonds() external view returns(address[] memory){\r\n        return bondsIssued;\r\n    }\r\n\r\n    function getBondIssues(address issuer, address bondToken) external view returns(uint256, uint256, uint256, bytes32, uint256){\r\n        return (issues[issuer][bondToken].parValue,\r\n                issues[issuer][bondToken].purchasedIssueAmount,\r\n                issues[issuer][bondToken].paidInAmount,\r\n                issues[issuer][bondToken].paidInCurrency,\r\n                issues[issuer][bondToken].timeIssuedOrSubscribed);\r\n    }\r\n\r\n    function getBondPurchases(address purchaser, address bondToken) external view returns(uint256, uint256, bytes32, uint256){\r\n        return (issues[purchaser][bondToken].purchasedIssueAmount,\r\n                issues[purchaser][bondToken].paidInAmount,\r\n                issues[purchaser][bondToken].paidInCurrency,\r\n                issues[purchaser][bondToken].timeIssuedOrSubscribed);\r\n    }\r\n\r\n    function send(address cash, uint256 amount, address payee) private {\r\n        if(factory.getType(cash) == \"ViaCash\")\r\n            ViaCash(cash).requestDeductFromBalance(amount, payee);\r\n        else\r\n            IERC20(cash).transfer(payee, amount);\r\n    }\r\n\r\n    function payFee(uint256 value, bytes32 currency, bytes32 action) private returns (uint256){\r\n        uint256 fees;\r\n        uint256 returnValue;\r\n        if(action==\"issuing\")\r\n            fees = rates.getFee(\"issuing\");\r\n        else if(action==\"redemption\")\r\n            fees = rates.getFee(\"redemption\");\r\n        if(fees > 0){\r\n            address feeTo = rates.getCustodian();\r\n            address cashContract;\r\n            if(factory.checkSupportForToken(currency))\r\n                cashContract = factory.getCurrencyToken(currency);\r\n            else \r\n                cashContract = factory.getTokenByNameType(currency, \"ViaCash\");\r\n            if(feeTo!=address(0x0)){\r\n                IERC20(cashContract).transfer(feeTo, FixedPoint.mulDown(fees, value));\r\n                returnValue = Math.sub(value, FixedPoint.mulDown(fees, value));\r\n                return returnValue;\r\n            }\r\n        }\r\n        return value;\r\n    }\r\n\r\n    //check AML status for account address\r\n    function amlCheck(address account) private view returns(bool){\r\n        address client = factory.getClient();\r\n        if(client==address(0x0))\r\n            return true;\r\n        if(VerifiedClient(client).getAMLStatus(account))\r\n            return true;\r\n        else\r\n            return false;\r\n    }\r\n    \r\n    function pause() onlyFactoryOwner(msg.sender, address(factory)) public {\r\n        _pause();\r\n    }\r\n    function unpause() onlyFactoryOwner(msg.sender, address(factory)) public {\r\n        _unpause();\r\n    }\r\n\r\n    modifier onlyFactoryOwner (address _sender, address _factory){\r\n        require(_sender == owner() || _sender == _factory);\r\n        _;\r\n    }\r\n\r\n    function _computeScalingFactor(IERC20 tkn) internal view returns (uint256) {\r\n\r\n        // Tokens that don't implement the `decimals` method are not supported.\r\n        uint256 tokenDecimals = ERC20(address(tkn)).decimals();\r\n\r\n        // Tokens with more than 18 decimals are not supported.\r\n        uint256 decimalsDifference = Math.sub(18, tokenDecimals);\r\n        return 1e18 * 10**decimalsDifference;\r\n    }\r\n\r\n    function _upscale(uint256 amount, uint256 scalingFactor) internal pure returns (uint256) {        \r\n        return FixedPoint.mulDown(amount, scalingFactor);\r\n    }\r\n    \r\n}",
  "sourcePath": "D:\\Code\\verified-payments\\contracts\\Bond.sol",
  "compiler": {
    "name": "solc",
    "version": "0.5.7+commit.6da8b019.Emscripten.clang"
  },
  "schemaVersion": "3.4.3",
  "updatedAt": "2024-03-16T16:23:36.247Z",
  "networkType": "ethereum",
  "devdoc": {
    "methods": {
      "allowance(address,address)": {
        "details": "See {IERC20-allowance}.\r"
      },
      "approve(address,uint256)": {
        "details": "See {IERC20-approve}.\r      * Requirements:\r      * - `spender` cannot be the zero address.\r"
      },
      "balanceOf(address)": {
        "details": "See {IERC20-balanceOf}.\r"
      },
      "decimals()": {
        "details": "Returns the number of decimals used to get its user representation.\r For example, if `decimals` equals `2`, a balance of `505` tokens should\r be displayed to a user as `5.05` (`505 / 10 ** 2`).\r      * Tokens usually opt for a value of 18, imitating the relationship between\r Ether and Wei. This is the default value returned by this function, unless\r it's overridden.\r      * NOTE: This information is only used for _display_ purposes: it in\r no way affects any of the arithmetic of the contract, including\r {IERC20-balanceOf} and {IERC20-transfer}.\r"
      },
      "decreaseAllowance(address,uint256)": {
        "details": "Atomically decreases the allowance granted to `spender` by the caller.\r      * This is an alternative to {approve} that can be used as a mitigation for\r problems described in {IERC20-approve}.\r      * Emits an {Approval} event indicating the updated allowance.\r      * Requirements:\r      * - `spender` cannot be the zero address.\r - `spender` must have allowance for the caller of at least\r `subtractedValue`.\r"
      },
      "increaseAllowance(address,uint256)": {
        "details": "Atomically increases the allowance granted to `spender` by the caller.\r      * This is an alternative to {approve} that can be used as a mitigation for\r problems described in {IERC20-approve}.\r      * Emits an {Approval} event indicating the updated allowance.\r      * Requirements:\r      * - `spender` cannot be the zero address.\r"
      },
      "initialize(address)": {
        "details": "Initializes the contract setting the deployer as the initial owner."
      },
      "isOwner()": {
        "details": "Returns true if the caller is the current owner."
      },
      "isPaused()": {
        "return": "True: contract is paused\rFalse: contract is not paused\r"
      },
      "name()": {
        "details": "Returns the name of the token.\r"
      },
      "owner()": {
        "details": "Returns the address of the current owner."
      },
      "renounceOwnership()": {
        "details": "Leaves the contract without owner. It will not be possible to call `onlyOwner` functions anymore. Can only be called by the current owner.     * > Note: Renouncing ownership will leave the contract without an owner, thereby removing any functionality that is only available to the owner."
      },
      "symbol()": {
        "details": "Returns the symbol of the token, usually a shorter version of the\r name.\r"
      },
      "totalSupply()": {
        "details": "See {IERC20-totalSupply}.\r"
      },
      "transfer(address,uint256)": {
        "details": "See {IERC20-transfer}.\r      * Requirements:\r      * - `recipient` cannot be the zero address.\r - the caller must have a balance of at least `amount`.\r"
      },
      "transferFrom(address,address,uint256)": {
        "details": "See {IERC20-transferFrom}.\r      * Emits an {Approval} event indicating the updated allowance. This is not\r required by the EIP. See the note at the beginning of {ERC20};\r      * Requirements:\r - `sender` and `recipient` cannot be the zero address.\r - `sender` must have a balance of at least `amount`.\r - the caller must have allowance for `sender`'s tokens of at least\r `amount`.\r"
      },
      "transferOwnership(address)": {
        "details": "Transfers ownership of the contract to a new account (`newOwner`). Can only be called by the current owner."
      }
    }
  },
  "userdoc": {
    "methods": {
      "isPaused()": {
        "notice": "returns whether or not the contract is paused\r"
      }
    }
  }
}