{
  "contractName": "Cash",
  "abi": [
    {
      "constant": true,
      "inputs": [],
      "name": "name",
      "outputs": [
        {
          "name": "",
          "type": "string"
        }
      ],
      "payable": false,
      "stateMutability": "view",
      "type": "function"
    },
    {
      "constant": true,
      "inputs": [],
      "name": "cashtokenName",
      "outputs": [
        {
          "name": "",
          "type": "bytes32"
        }
      ],
      "payable": false,
      "stateMutability": "view",
      "type": "function"
    },
    {
      "constant": true,
      "inputs": [],
      "name": "totalSupply",
      "outputs": [
        {
          "name": "",
          "type": "uint256"
        }
      ],
      "payable": false,
      "stateMutability": "view",
      "type": "function"
    },
    {
      "constant": true,
      "inputs": [
        {
          "name": "",
          "type": "address"
        },
        {
          "name": "",
          "type": "bytes32"
        }
      ],
      "name": "deposits",
      "outputs": [
        {
          "name": "depositAmount",
          "type": "bytes16"
        },
        {
          "name": "issuedAmount",
          "type": "bytes16"
        },
        {
          "name": "depositor",
          "type": "address"
        }
      ],
      "payable": false,
      "stateMutability": "view",
      "type": "function"
    },
    {
      "constant": true,
      "inputs": [
        {
          "name": "",
          "type": "address"
        }
      ],
      "name": "balances",
      "outputs": [
        {
          "name": "",
          "type": "bytes16"
        }
      ],
      "payable": false,
      "stateMutability": "view",
      "type": "function"
    },
    {
      "constant": true,
      "inputs": [],
      "name": "decimals",
      "outputs": [
        {
          "name": "",
          "type": "uint8"
        }
      ],
      "payable": false,
      "stateMutability": "view",
      "type": "function"
    },
    {
      "constant": true,
      "inputs": [
        {
          "name": "tokenOwner",
          "type": "address"
        }
      ],
      "name": "balanceOf",
      "outputs": [
        {
          "name": "",
          "type": "uint256"
        }
      ],
      "payable": false,
      "stateMutability": "view",
      "type": "function"
    },
    {
      "constant": false,
      "inputs": [],
      "name": "renounceOwnership",
      "outputs": [],
      "payable": false,
      "stateMutability": "nonpayable",
      "type": "function"
    },
    {
      "constant": true,
      "inputs": [],
      "name": "owner",
      "outputs": [
        {
          "name": "",
          "type": "address"
        }
      ],
      "payable": false,
      "stateMutability": "view",
      "type": "function"
    },
    {
      "constant": true,
      "inputs": [],
      "name": "isOwner",
      "outputs": [
        {
          "name": "",
          "type": "bool"
        }
      ],
      "payable": false,
      "stateMutability": "view",
      "type": "function"
    },
    {
      "constant": true,
      "inputs": [],
      "name": "symbol",
      "outputs": [
        {
          "name": "",
          "type": "string"
        }
      ],
      "payable": false,
      "stateMutability": "view",
      "type": "function"
    },
    {
      "constant": false,
      "inputs": [
        {
          "name": "receiver",
          "type": "address"
        },
        {
          "name": "tokens",
          "type": "uint256"
        }
      ],
      "name": "transfer",
      "outputs": [
        {
          "name": "",
          "type": "bool"
        }
      ],
      "payable": false,
      "stateMutability": "nonpayable",
      "type": "function"
    },
    {
      "constant": true,
      "inputs": [],
      "name": "isPaused",
      "outputs": [
        {
          "name": "",
          "type": "bool"
        }
      ],
      "payable": false,
      "stateMutability": "view",
      "type": "function"
    },
    {
      "constant": false,
      "inputs": [
        {
          "name": "newOwner",
          "type": "address"
        }
      ],
      "name": "transferOwnership",
      "outputs": [],
      "payable": false,
      "stateMutability": "nonpayable",
      "type": "function"
    },
    {
      "constant": true,
      "inputs": [
        {
          "name": "",
          "type": "uint256"
        }
      ],
      "name": "currencies",
      "outputs": [
        {
          "name": "",
          "type": "bytes32"
        }
      ],
      "payable": false,
      "stateMutability": "view",
      "type": "function"
    },
    {
      "payable": true,
      "stateMutability": "payable",
      "type": "fallback"
    },
    {
      "anonymous": false,
      "inputs": [
        {
          "indexed": true,
          "name": "_party",
          "type": "address"
        },
        {
          "indexed": false,
          "name": "currency",
          "type": "bytes32"
        },
        {
          "indexed": false,
          "name": "amount",
          "type": "uint256"
        }
      ],
      "name": "CashIssued",
      "type": "event"
    },
    {
      "anonymous": false,
      "inputs": [
        {
          "indexed": true,
          "name": "_party",
          "type": "address"
        },
        {
          "indexed": false,
          "name": "currency",
          "type": "bytes32"
        },
        {
          "indexed": false,
          "name": "amount",
          "type": "bytes16"
        }
      ],
      "name": "CashRedeemed",
      "type": "event"
    },
    {
      "anonymous": false,
      "inputs": [
        {
          "indexed": true,
          "name": "depositor",
          "type": "address"
        },
        {
          "indexed": false,
          "name": "currency",
          "type": "bytes32"
        },
        {
          "indexed": false,
          "name": "amount",
          "type": "bytes16"
        }
      ],
      "name": "CashDeposits",
      "type": "event"
    },
    {
      "anonymous": false,
      "inputs": [
        {
          "indexed": true,
          "name": "from",
          "type": "address"
        },
        {
          "indexed": true,
          "name": "to",
          "type": "address"
        },
        {
          "indexed": false,
          "name": "tokens",
          "type": "uint256"
        }
      ],
      "name": "CashTransfer",
      "type": "event"
    },
    {
      "anonymous": false,
      "inputs": [],
      "name": "Paused",
      "type": "event"
    },
    {
      "anonymous": false,
      "inputs": [],
      "name": "Unpaused",
      "type": "event"
    },
    {
      "anonymous": false,
      "inputs": [
        {
          "indexed": true,
          "name": "previousOwner",
          "type": "address"
        },
        {
          "indexed": true,
          "name": "newOwner",
          "type": "address"
        }
      ],
      "name": "OwnershipTransferred",
      "type": "event"
    },
    {
      "constant": false,
      "inputs": [
        {
          "name": "_name",
          "type": "bytes32"
        },
        {
          "name": "_currency",
          "type": "bytes32"
        },
        {
          "name": "_owner",
          "type": "address"
        },
        {
          "name": "_oracle",
          "type": "address"
        },
        {
          "name": "_token",
          "type": "address"
        },
        {
          "name": "_fee",
          "type": "address"
        }
      ],
      "name": "initialize",
      "outputs": [],
      "payable": false,
      "stateMutability": "nonpayable",
      "type": "function"
    },
    {
      "constant": false,
      "inputs": [
        {
          "name": "sender",
          "type": "address"
        }
      ],
      "name": "initialize",
      "outputs": [],
      "payable": false,
      "stateMutability": "nonpayable",
      "type": "function"
    },
    {
      "constant": false,
      "inputs": [
        {
          "name": "sender",
          "type": "address"
        },
        {
          "name": "receiver",
          "type": "address"
        },
        {
          "name": "tokens",
          "type": "uint256"
        }
      ],
      "name": "transferFrom",
      "outputs": [
        {
          "name": "",
          "type": "bool"
        }
      ],
      "payable": false,
      "stateMutability": "nonpayable",
      "type": "function"
    },
    {
      "constant": false,
      "inputs": [
        {
          "name": "tokens",
          "type": "bytes16"
        },
        {
          "name": "sender",
          "type": "address"
        }
      ],
      "name": "requestAddToBalance",
      "outputs": [
        {
          "name": "",
          "type": "bool"
        }
      ],
      "payable": false,
      "stateMutability": "nonpayable",
      "type": "function"
    },
    {
      "constant": false,
      "inputs": [
        {
          "name": "tokens",
          "type": "bytes16"
        },
        {
          "name": "receiver",
          "type": "address"
        }
      ],
      "name": "requestDeductFromBalance",
      "outputs": [
        {
          "name": "",
          "type": "bytes16"
        }
      ],
      "payable": false,
      "stateMutability": "nonpayable",
      "type": "function"
    },
    {
      "constant": false,
      "inputs": [
        {
          "name": "tokens",
          "type": "uint256"
        },
        {
          "name": "payer",
          "type": "address"
        },
        {
          "name": "currency",
          "type": "bytes32"
        }
      ],
      "name": "payIn",
      "outputs": [
        {
          "name": "",
          "type": "bool"
        }
      ],
      "payable": false,
      "stateMutability": "nonpayable",
      "type": "function"
    },
    {
      "constant": false,
      "inputs": [
        {
          "name": "amount",
          "type": "bytes16"
        },
        {
          "name": "buyer",
          "type": "address"
        },
        {
          "name": "currency",
          "type": "bytes32"
        }
      ],
      "name": "requestIssue",
      "outputs": [
        {
          "name": "",
          "type": "bool"
        }
      ],
      "payable": false,
      "stateMutability": "nonpayable",
      "type": "function"
    },
    {
      "constant": false,
      "inputs": [
        {
          "name": "txId",
          "type": "bytes32"
        },
        {
          "name": "result",
          "type": "bytes16"
        },
        {
          "name": "rtype",
          "type": "bytes32"
        }
      ],
      "name": "convert",
      "outputs": [],
      "payable": false,
      "stateMutability": "nonpayable",
      "type": "function"
    },
    {
      "constant": false,
      "inputs": [],
      "name": "pause",
      "outputs": [],
      "payable": false,
      "stateMutability": "nonpayable",
      "type": "function"
    },
    {
      "constant": false,
      "inputs": [],
      "name": "unpause",
      "outputs": [],
      "payable": false,
      "stateMutability": "nonpayable",
      "type": "function"
    }
  ],
  "bytecode": "0x6080604052615049806100136000396000f3fe6080604052600436106101665760003560e01c80638456cb59116100d1578063a9059cbb1161008a578063c4d66de811610064578063c4d66de81461062b578063f2fde38b1461065e578063f6d1c27114610691578063fffc604f146106bb57610166565b8063a9059cbb1461059e578063abb58e59146105d7578063b187bd261461061657610166565b80638456cb591461049457806389d29c4c146104a95780638da5cb5b146105005780638f32d59b1461053157806395d89b4114610546578063a1c348811461055b57610166565b806323b872dd1161012357806323b872dd1461038257806327e235e3146103d9578063313ce5671461040c5780633f4ba83a1461043757806370a082311461044c578063715018a61461047f57610166565b806306fdde03146101ad57806307eff720146102375780630bc4b81a1461029757806318160ddd146102be57806321f68b4e146102d35780632260a9c214610315575b3461017057600080fd5b361561017b57600080fd5b60685460ff161561018b57600080fd5b6101aa61019734610704565b3033600160d91b6432ba3432b90261076a565b50005b3480156101b957600080fd5b506101c261106b565b6040805160208082528351818301528351919283929083019185019080838360005b838110156101fc5781810151838201526020016101e4565b50505050905090810190601f1680156102295780820380516001836020036101000a031916815260200191505b509250505060405180910390f35b34801561024357600080fd5b5061027a6004803603604081101561025a57600080fd5b5080356001600160801b03191690602001356001600160a01b03166110f9565b604080516001600160801b03199092168252519081900360200190f35b3480156102a357600080fd5b506102ac611237565b60408051918252519081900360200190f35b3480156102ca57600080fd5b506102ac61123d565b3480156102df57600080fd5b50610313600480360360608110156102f657600080fd5b508035906001600160801b03196020820135169060400135611253565b005b34801561032157600080fd5b5061034e6004803603604081101561033857600080fd5b506001600160a01b038135169060200135611700565b604080516001600160801b031994851681529290931660208301526001600160a01b03168183015290519081900360600190f35b34801561038e57600080fd5b506103c5600480360360608110156103a557600080fd5b506001600160a01b0381358116916020810135909116906040013561173d565b604080519115158252519081900360200190f35b3480156103e557600080fd5b5061027a600480360360208110156103fc57600080fd5b50356001600160a01b0316611b81565b34801561041857600080fd5b50610421611b96565b6040805160ff9092168252519081900360200190f35b34801561044357600080fd5b50610313611b9b565b34801561045857600080fd5b506102ac6004803603602081101561046f57600080fd5b50356001600160a01b0316611be4565b34801561048b57600080fd5b50610313611c09565b3480156104a057600080fd5b50610313611caf565b3480156104b557600080fd5b50610313600480360360c08110156104cc57600080fd5b508035906020810135906001600160a01b0360408201358116916060810135821691608082013581169160a0013516611cf6565b34801561050c57600080fd5b50610515611f2f565b604080516001600160a01b039092168252519081900360200190f35b34801561053d57600080fd5b506103c5611f3e565b34801561055257600080fd5b506101c2611f64565b34801561056757600080fd5b506103c56004803603604081101561057e57600080fd5b5080356001600160801b03191690602001356001600160a01b0316611fbf565b3480156105aa57600080fd5b506103c5600480360360408110156105c157600080fd5b506001600160a01b0381351690602001356120f4565b3480156105e357600080fd5b506103c5600480360360608110156105fa57600080fd5b508035906001600160a01b0360208201351690604001356121e9565b34801561062257600080fd5b506103c56122a6565b34801561063757600080fd5b506103136004803603602081101561064e57600080fd5b50356001600160a01b03166122af565b34801561066a57600080fd5b506103136004803603602081101561068157600080fd5b50356001600160a01b03166123a4565b34801561069d57600080fd5b506102ac600480360360208110156106b457600080fd5b503561240c565b3480156106c757600080fd5b506103c5600480360360608110156106de57600080fd5b506001600160801b0319813516906001600160a01b03602082013516906040013561242a565b60008161071357506000610765565b81600061071f826124d5565b90506070811015610738578060700382901b915061074b565b607081111561074b576070810382901c91505b613fff0160701b6001600160701b03919091161760801b90505b919050565b60006001600160801b0319851661078057600080fd5b81600160d91b6432ba3432b9021415610c7a57606d54600160da1b6415961554d102141561093557606a5460408051600160e01b6327420063028152600160d21b65195d1a1d5cd9026024820152600160cb1b6608ae8d086c2e6d0260448201523060648201526080600482015260036084820152600160eb1b620cae8d0260a482015290516000926001600160a01b03169163274200639160c480830192602092919082900301818787803b15801561083957600080fd5b505af115801561084d573d6000803e3d6000fd5b505050506040513d602081101561086357600080fd5b5051600081815260706020526040812080546001600160a01b038089166001600160a01b0319928316178355600183018054918b1691909216179055600160d81b64697373756502600282015560038101869055606d54600482015560058101805460808b901c6001600160801b03199091161790559192506108e590610704565b8160050160106101000a8154816001600160801b03021916908360801c02179055506109116001610704565b60069190910180546001600160801b03191660809290921c91909117905550610c75565b606a5460408051600160e01b6327420063028152600160d21b65195d1a1d5cd9026024820152600160cb1b6608ae8d086c2e6d0260448201523060648201526080600482015260036084820152600160eb1b620cae8d0260a482015290516000926001600160a01b03169163274200639160c480830192602092919082900301818787803b1580156109c657600080fd5b505af11580156109da573d6000803e3d6000fd5b505050506040513d60208110156109f057600080fd5b5051606a54606d805460408051600160b81b6856585553445f746f5f02602082810191909152602980830194909452825180830390940184526049820192839052600160e01b632742006302909252600160e91b623b32b90293810193909352600160e31b63086c2e6d02608d8401523060ad84018190526080604d8501908152835160cd86015283519697506000966001600160a01b039096169563274200639592939192839260ed90910191908601908083838c5b83811015610abf578181015183820152602001610aa7565b50505050905090810190601f168015610aec5780820380516001836020036101000a031916815260200191505b509350505050602060405180830381600087803b158015610b0c57600080fd5b505af1158015610b20573d6000803e3d6000fd5b505050506040513d6020811015610b3657600080fd5b5051606a5460408051600160e21b6313f493a7028152600481018690526024810184905290519293506001600160a01b0390911691634fd24e9c9160448082019260009290919082900301818387803b158015610b9257600080fd5b505af1158015610ba6573d6000803e3d6000fd5b505050600082815260706020526040812080546001600160a01b03808a166001600160a01b0319928316178355600183018054918c1691909216179055600160d81b64697373756502600282015560038101879055606d54600482015560058101805460808c901c6001600160801b03199091161790559150610c2890610704565b8160050160106101000a8154816001600160801b03021916908360801c0217905550610c546000610704565b60069190910180546001600160801b03191660809290921c91909117905550505b611060565b606d5460408051600160e11b633ce10983028152600481018590526000602482015260056044820152905173__stringutils___________________________916379c21306916064808301926020929190829003018186803b158015610ce057600080fd5b505af4158015610cf4573d6000803e3d6000fd5b505050506040513d6020811015610d0a57600080fd5b50511461105357606a5460408051600160e01b63f921e6470281526004810185905260006024820181905260056044830152915191926001600160a01b03169163274200639173__stringutils___________________________9163f921e647916064808201928892909190829003018186803b158015610d8b57600080fd5b505af4158015610d9f573d6000803e3d6000fd5b505050506040513d6000823e601f3d908101601f191682016040526020811015610dc857600080fd5b810190808051640100000000811115610de057600080fd5b82016020810184811115610df357600080fd5b8151640100000000811182820187101715610e0d57600080fd5b5050929190505050606d546040516020018083805190602001908083835b60208310610e4a5780518252601f199092019160209182019101610e2b565b51815160001960209485036101000a01908116901991909116179052600160e01b635f746f5f0293909101928352600480840195909552604080518085039096018652602484019081905263ffffffff881660e01b9052600160f11b6132b9026048840152600160e31b63086c2e6d0260688401523060888401819052608060288501908152865160a886015286519697509095909450849360c80192509086019080838360005b83811015610f0a578181015183820152602001610ef2565b50505050905090810190601f168015610f375780820380516001836020036101000a031916815260200191505b509350505050602060405180830381600087803b158015610f5757600080fd5b505af1158015610f6b573d6000803e3d6000fd5b505050506040513d6020811015610f8157600080fd5b5051600081815260706020526040812080546001600160a01b038089166001600160a01b0319928316178355600183018054918b1691909216179055600160d81b64697373756502600282015560038101869055606d54600482015560058101805460808b901c6001600160801b031990911617905591925061100390610704565b8160050160106101000a8154816001600160801b03021916908360801c021790555061102f6000610704565b60069190910180546001600160801b03191660809290921c91909117905550611060565b6110608584868589612578565b506001949350505050565b606b805460408051602060026001851615610100026000190190941693909304601f810184900484028201840190925281815292918301828280156110f15780601f106110c6576101008083540402835291602001916110f1565b820191906000526020600020905b8154815290600101906020018083116110d457829003601f168201915b505050505081565b60685460408051600160e01b63f429f19b028152336004820152905160009261010090046001600160a01b03169163f429f19b916024808301926020929190829003018186803b15801561114c57600080fd5b505afa158015611160573d6000803e3d6000fd5b505050506040513d602081101561117657600080fd5b5051600160cb1b660acd2c286c2e6d02148061121b575060685460408051600160e01b63f429f19b02815233600482015290516101009092046001600160a01b03169163f429f19b91602480820192602092909190829003018186803b1580156111df57600080fd5b505afa1580156111f3573d6000803e3d6000fd5b505050506040513d602081101561120957600080fd5b5051600160ca1b66159a58509bdb9902145b61122457600080fd5b61122e8383612abe565b90505b92915050565b606d5481565b6000805461124d9060801b612c41565b90505b90565b606a546001600160a01b0316331461126a57600080fd5b80600160d21b65195d1a1d5cd90214156112a957600083815260706020526040902060050180546001600160801b0316600160801b608085901c021790555b80600160f11b6132b90214156112df57600083815260706020526040902060060180546001600160801b031916608084901c1790555b80600160e91b623b32b902141561131657600083815260706020526040902060060180546001600160801b031916608084901c1790555b600083815260706020526040902060020154600160d81b6469737375650214156116fb5780600160d21b65195d1a1d5cd902148061135c575080600160e91b623b32b902145b156115485760008381526070602052604081206005015461139191600160801b90910460801b9061138c90610704565b612cd9565b60000b158015906113c957506000838152607060205260408120600601546113c39160809190911b9061138c90610704565b60000b15155b1561154357606d546000848152607060209081526040808320600581015460038201546006909201548351600160e21b631e61f51102815260048101979097526001600160801b0319608083811b821660248a01526044890194909452600160801b909204831b8216606488015290911b16608485015251919273__paymentutils__________________________92637987d4449260a480840193919291829003018186803b15801561147c57600080fd5b505af4158015611490573d6000803e3d6000fd5b505050506040513d60208110156114a657600080fd5b505160008581526070602052604090208054600182015460038301546005909301549394506114ea9385936001600160a01b0393841693909216919060801b612578565b50600083815260706020526040812080546001600160a01b031990811682556001820180549091169055600281018290556003810182905560048101829055600581019190915560060180546001600160801b03191690555b6116fb565b80600160f11b6132b90214156116fb5760008381526070602052604081206006015461157e9160809190911b9061138c90610704565b60000b156116fb57606d546000848152607060209081526040808320600581015460038201546006909201548351600160e21b631e61f51102815260048101979097526001600160801b0319608083811b821660248a01526044890194909452600160801b909204831b8216606488015290911b16608485015251919273__paymentutils__________________________92637987d4449260a480840193919291829003018186803b15801561163457600080fd5b505af4158015611648573d6000803e3d6000fd5b505050506040513d602081101561165e57600080fd5b505160008581526070602052604090208054600182015460038301546005909301549394506116a29385936001600160a01b0393841693909216919060801b612578565b50600083815260706020526040812080546001600160a01b031990811682556001820180549091169055600281018290556003810182905560048101829055600581019190915560060180546001600160801b03191690555b505050565b606e60209081526000928352604080842090915290825290208054600190910154608082811b92600160801b9004901b906001600160a01b031683565b60685460009060ff161561175057600080fd5b6001600160a01b0384166000908152600160205260409020546117799060801b61138c84610704565b60000b600019141561178a57600080fd5b6001600160a01b0383163014156117d0576117bb6117a783610704565b85600160d01b6572656465656d0230612e22565b156117c857506001611b7a565b506000611b7a565b60685460408051600160e01b63f429f19b0281526001600160a01b03868116600483015291516101009093049091169163f429f19b91602480820192602092909190829003018186803b15801561182657600080fd5b505afa15801561183a573d6000803e3d6000fd5b505050506040513d602081101561185057600080fd5b5051600160cb1b660acd2c286c2e6d02141561194d5760715460ff161561187657600080fd5b6071805460ff191660011790556001600160a01b03831663fffc604f61189b84610704565b606d546040805163ffffffff851660e01b81526001600160801b031990931660048401526001600160a01b038916602484015260448301919091525160648083019260209291908290030181600087803b1580156118f857600080fd5b505af115801561190c573d6000803e3d6000fd5b505050506040513d602081101561192257600080fd5b50511561193b57506071805460ff191690556001611b7a565b506071805460ff191690556000611b7a565b60685460408051600160e01b63f429f19b0281526001600160a01b03868116600483015291516101009093049091169163f429f19b91602480820192602092909190829003018186803b1580156119a357600080fd5b505afa1580156119b7573d6000803e3d6000fd5b505050506040513d60208110156119cd57600080fd5b5051600160ca1b66159a58509bdb99021415611a9757826001600160a01b0316632c5fc01d6119fb84610704565b606d546040805163ffffffff851660e01b81526001600160801b031990931660048401526001600160a01b038916602484015260448301919091523060648301525160848083019260209291908290030181600087803b158015611a5e57600080fd5b505af1158015611a72573d6000803e3d6000fd5b505050506040513d6020811015611a8857600080fd5b5051156117c857506001611b7a565b60685460408051600160e01b63f429f19b0281526001600160a01b03868116600483015291516101009093049091169163f429f19b91602480820192602092909190829003018186803b158015611aed57600080fd5b505afa158015611b01573d6000803e3d6000fd5b505050506040513d6020811015611b1757600080fd5b50517f566961426f6e64546f6b656e00000000000000000000000000000000000000001415611b5857826001600160a01b0316632fc3d1ee6119fb84610704565b6117bb611b6483610704565b85600160c11b673a3930b739b332b90286612e22565b9392505050565b60016020526000908152604090205460801b81565b600290565b611ba3611f2f565b6001600160a01b0316336001600160a01b03161480611bd1575060685461010090046001600160a01b031633145b611bda57600080fd5b611be2613ff2565b565b6001600160a01b0381166000908152600160205260408120546112319060801b612c41565b611c11611f3e565b611c655760408051600160e51b62461bcd02815260206004820181905260248201527f4f776e61626c653a2063616c6c6572206973206e6f7420746865206f776e6572604482015290519081900360640190fd5b6035546040516000916001600160a01b0316907f8be0079c531659141344cd1fd0a4f28419497f9722a3daafe3b4186f6b6457e0908390a3603580546001600160a01b0319169055565b611cb7611f2f565b6001600160a01b0316336001600160a01b03161480611ce5575060685461010090046001600160a01b031633145b611cee57600080fd5b611be2614027565b600254610100900460ff1680611d0f5750611d0f61405f565b80611d1d575060025460ff16155b611d5b57604051600160e51b62461bcd02815260040180806020018281038252602e815260200180614ff0602e913960400191505060405180910390fd5b600254610100900460ff16158015611d86576002805460ff1961ff0019909116610100171660011790555b611d8f856122af565b60688054610100600160a81b0319163361010002179055606a80546001600160a01b0319166001600160a01b0386161790556040805160208082018a90528251808303820181529183019092528051611dec92606b920190614f31565b5060408051600160e01b63f921e6470281526004810189905260006024820181905260056044830152915173__stringutils___________________________9263f921e6479260648082019391829003018186803b158015611e4e57600080fd5b505af4158015611e62573d6000803e3d6000fd5b505050506040513d6000823e601f3d908101601f191682016040526020811015611e8b57600080fd5b810190808051640100000000811115611ea357600080fd5b82016020810184811115611eb657600080fd5b8151640100000000811182820187101715611ed057600080fd5b50508051611ee99450606c935060209091019150614f31565b50606d8690556071805460ff19169055606980546001600160a01b0319166001600160a01b0384161790558015611f26576002805461ff00191690555b50505050505050565b6035546001600160a01b031690565b6035546000906001600160a01b0316611f55614065565b6001600160a01b031614905090565b606c805460408051602060026001851615610100026000190190941693909304601f810184900484028201840190925281815292918301828280156110f15780601f106110c6576101008083540402835291602001916110f1565b60685460408051600160e01b63f429f19b028152336004820152905160009261010090046001600160a01b03169163f429f19b916024808301926020929190829003018186803b15801561201257600080fd5b505afa158015612026573d6000803e3d6000fd5b505050506040513d602081101561203c57600080fd5b5051600160cb1b660acd2c286c2e6d0214806120e1575060685460408051600160e01b63f429f19b02815233600482015290516101009092046001600160a01b03169163f429f19b91602480820192602092909190829003018186803b1580156120a557600080fd5b505afa1580156120b9573d6000803e3d6000fd5b505050506040513d60208110156120cf57600080fd5b5051600160ca1b66159a58509bdb9902145b6120ea57600080fd5b61122e8383614069565b600061211a61210283610704565b3060009081526001602052604090205460801b612cd9565b60000b6000191480612138575061213361210283610704565b60000b155b61214157600080fd5b306000908152600160205260409020546121669060801b61216184610704565b61416c565b3060009081526001602052604080822080546001600160801b031916608094851c1790556001600160a01b03861682529020546121ac911b6121a784610704565b61417a565b6001600160a01b0393909316600090815260016020819052604090912080546001600160801b03191660809590951c949094179093555090919050565b600080606860019054906101000a90046001600160a01b03166001600160a01b03166359dc735c6040518163ffffffff1660e01b815260040160206040518083038186803b15801561223a57600080fd5b505afa15801561224e573d6000803e3d6000fd5b505050506040513d602081101561226457600080fd5b505160685490915060ff161561227957600080fd5b61228d61228586610704565b33868661076a565b1561229c576001915050611b7a565b6000915050611b7a565b60685460ff1690565b600254610100900460ff16806122c857506122c861405f565b806122d6575060025460ff16155b61231457604051600160e51b62461bcd02815260040180806020018281038252602e815260200180614ff0602e913960400191505060405180910390fd5b600254610100900460ff1615801561233f576002805460ff1961ff0019909116610100171660011790555b603580546001600160a01b0319166001600160a01b0384811691909117918290556040519116906000907f8be0079c531659141344cd1fd0a4f28419497f9722a3daafe3b4186f6b6457e0908290a380156123a0576002805461ff00191690555b5050565b6123ac611f3e565b6124005760408051600160e51b62461bcd02815260206004820181905260248201527f4f776e61626c653a2063616c6c6572206973206e6f7420746865206f776e6572604482015290519081900360640190fd5b612409816145ac565b50565b606f818154811061241957fe5b600091825260209091200154905081565b60685460408051600160e01b63f429f19b028152336004820152905160009261010090046001600160a01b03169163f429f19b916024808301926020929190829003018186803b15801561247d57600080fd5b505afa158015612491573d6000803e3d6000fd5b505050506040513d60208110156124a757600080fd5b5051600160cb1b660acd2c286c2e6d02146124c157600080fd5b6124cd8430858561076a565b949350505050565b60008082116124e357600080fd5b6000600160801b83106124f857608092831c92015b68010000000000000000831061251057604092831c92015b640100000000831061252457602092831c92015b62010000831061253657601092831c92015b610100831061254757600892831c92015b6010831061255757600492831c92015b6004831061256757600292831c92015b600283106112315760010192915050565b6001600160d91b6432ba3432b90283146126d35760685460408051600160e21b633cd163c502815260048101869052600160cb1b660acd2c286c2e6d026024820152905160009261010090046001600160a01b03169163f3458f14916044808301926020929190829003018186803b1580156125f357600080fd5b505afa158015612607573d6000803e3d6000fd5b505050506040513d602081101561261d57600080fd5b505190506001600160a01b0385163014156126c45760408051600160e01b63a1c348810281526001600160801b0319851660048201526001600160a01b03888116602483015291519183169163a1c34881916044808201926020929091908290030181600087803b15801561269157600080fd5b505af11580156126a5573d6000803e3d6000fd5b505050506040513d60208110156126bb57600080fd5b505191506126d1565b6126ce8386614069565b91505b505b8015612ab65760695460408051600160e21b63185d39090281526004810186905290516000926001600160a01b031691636174e424916024808301926020929190829003018186803b15801561272857600080fd5b505afa15801561273c573d6000803e3d6000fd5b505050506040513d602081101561275257600080fd5b50519050600061277461276e6127686001610704565b8461416c565b89614650565b6001600160a01b0388166000908152606e602090815260408083208984529091529020549091506127a79060801b612c41565b1580156127e857506001600160a01b0387166000908152606e602090815260408083208884529091529020546127e690600160801b900460801b612c41565b155b15612893576001600160a01b038088166000908152606e602090815260408083208984528083529083208054608087811c600160801b02908b901c6001600160801b0319909216919091176001600160801b0316178155915260019081018054938a166001600160a01b031990941693909317909255606f8054928301815590527f39f2babe526038520877fc7c33d81accf578af4a06c5fa6b0d038cae36e1271101859055612970565b6001600160a01b0387166000908152606e602090815260408083208884529091529020546128c49060801b8561417a565b6001600160a01b0388166000908152606e60209081526040808320898452909152902080546001600160801b031916608092831c179081905561291191600160801b909104901b8261417a565b6001600160a01b038881166000908152606e602090815260408083208a8452909152902080546001600160801b0316600160801b60809490941c93909302929092178255600190910180546001600160a01b0319169188169190911790555b6001600160a01b0387166000818152606e6020908152604080832089845282529182902054825189815260809190911b6001600160801b0319169181019190915281517fe2491462eef4b310b3c2a9b41baaec3f7815c8fc2c63faff6bae710e0b0b5988929181900390910190a2306000908152600160205260409020546129fb9060801b8261417a565b30600090815260016020526040902080546001600160801b03191660809290921c919091179055612a3487612a2f83612c41565b6120f4565b50600054612a459060801b8261417a565b6000806101000a8154816001600160801b03021916908360801c0217905550866001600160a01b03167fc49566a7c5334ea8858c89b2e78ca7b7bcba63008800b945859eded70040a832606d54612a9b84612c41565b6040805192835260208301919091528051918290030190a250505b505050505050565b30600090815260016020526040812054612adc90849060801b612cd9565b60000b6000191480612b0c575030600090815260016020526040902054612b0790849060801b612cd9565b60000b155b15612bad5730600090815260016020526040902054612b2e9060801b8461416c565b3060009081526001602052604080822080546001600160801b031916608094851c1790556001600160a01b0385168252902054612b6c911b8461417a565b6001600160a01b038316600090815260016020526040812080546001600160801b03191660809390931c92909217909155612ba690610704565b9050611231565b30600090815260016020526040812054612bcb90859060801b61416c565b6001600160a01b03841660009081526001602052604080822054308352912054919250612bfe91608091821b911b61417a565b6001600160a01b038416600090815260016020526040808220805460809490941c6001600160801b03199485161790553082529020805490911690559050611231565b6000617fff6001600160801b03608084901c1660701c16613fff811015612c6c576000915050610765565b6001607f1b8360801c6001600160801b031610612c8857600080fd5b6140fe811115612c9757600080fd5b600160701b6001600160701b03608085901c161761406f821015612cc15761406f8290031c611b7a565b61406f821115611b7a5761406e1982011b9392505050565b600060016001607f1b03608084901c16600160701b617fff02811115612cfe57600080fd5b60016001607f1b03608084901c16600160701b617fff02811115612d2157600080fd5b6001600160801b0319858116908516141580612d4d5750600160701b617fff02826001600160801b0316105b612d5657600080fd5b6001600160801b03198581169085161415612d7657600092505050611231565b60006001607f1b8660801c6001600160801b03161015905060006001607f1b8660801c6001600160801b0316101590508115612de1578015612dd257826001600160801b0316846001600160801b031611612dd2576001612dd6565b6000195b945050505050611231565b8015612df4576001945050505050611231565b826001600160801b0316846001600160801b031611612e1557600019612dd6565b6001945050505050611231565b600080805b606f5481108015612e4057506000612e3e88612c41565b115b15613fe8576001600160a01b0386166000908152606e60205260408120606f8054612e9d93919085908110612e7157fe5b60009182526020808320909101548352820192909252604001902054600160801b900460801b88612cd9565b60000b6000191461374a576000612f5d612f1089606e60008b6001600160a01b03166001600160a01b031681526020019081526020016000206000606f8781548110612ee557fe5b60009182526020808320909101548352820192909252604001902054600160801b900460801b6148d8565b6001600160a01b0389166000908152606e60205260408120606f805491929187908110612f3957fe5b6000918252602080832090910154835282019290925260400190205460801b614650565b9050612fbb606e6000896001600160a01b03166001600160a01b031681526020019081526020016000206000606f8581548110612f9657fe5b6000918252602080832090910154835282019290925260400190205460801b8261416c565b6001600160a01b0388166000908152606e60205260408120606f805491929186908110612fe457fe5b6000918252602080832091909101548352828101939093526040918201812080546001600160801b031916608095861c1790556001600160a01b038b1681526001909252902054613036911b8961416c565b6001600160a01b038816600090815260016020908152604080832080546001600160801b03191660809590951c94909417909355606e9052908120606f80546130b19391908690811061308557fe5b60009182526020808320909101548352820192909252604001902054600160801b900460801b8961416c565b6001600160a01b0388166000908152606e60205260408120606f8054919291869081106130da57fe5b600091825260208083209091015483528201929092526040019020805460809290921c600160801b026001600160801b0390921691909117905560715460ff161561312457600080fd5b6071805460ff19166001179055600160d01b6572656465656d028614156134e2576000546131559060801b8961416c565b600080546001600160801b03191660809290921c91909117905561317881614b7d565b9050606f828154811061318757fe5b9060005260206000200154600160d91b6432ba3432b90214156131e857866001600160a01b03166108fc6131ba83612c41565b6040518115909202916000818181858888f193505050501580156131e2573d6000803e3d6000fd5b5061348d565b6001600160a01b0387166000908152606e60205260408120606f8054309391908690811061321257fe5b600091825260208083209091015483528201929092526040019020600101546001600160a01b03161461335557606a546001600160a01b038881166000908152606e60205260408120606f8054939094169363b1fa1350939192918790811061327757fe5b9060005260206000200154815260200190815260200160002060010160009054906101000a90046001600160a01b031689606f86815481106132b557fe5b90600052602060002001546132c986612c41565b6040518563ffffffff1660e01b815260040180856001600160a01b03166001600160a01b03168152602001846001600160a01b03166001600160a01b03168152602001838152602001828152602001945050505050600060405180830381600087803b15801561333857600080fd5b505af115801561334c573d6000803e3d6000fd5b5050505061348d565b606854606f805460009261010090046001600160a01b03169163f3458f14918690811061337e57fe5b90600052602060002001546040518263ffffffff1660e01b81526004018082815260200180600160cb1b660acd2c286c2e6d0281525060200191505060206040518083038186803b1580156133d257600080fd5b505afa1580156133e6573d6000803e3d6000fd5b505050506040513d60208110156133fc57600080fd5b505160408051600160e51b623f7fb90281526001600160801b0319851660048201526001600160a01b038b811660248301529151929350908316916307eff720916044808201926020929091908290030181600087803b15801561345f57600080fd5b505af1158015613473573d6000803e3d6000fd5b505050506040513d602081101561348957600080fd5b5050505b606d54604080519182526001600160801b03198a16602083015280516001600160a01b038a16927ff24553ffac11655a77b94b56761556d46c41e3a9d9d46d67f1f82690c7586b3b92908290030190a2613732565b85600160c11b673a3930b739b332b90214156137325761351a8882606f858154811061350a57fe5b9060005260206000200154614d0b565b6001600160a01b03871660009081526001602052604090205491995091506135459060801b8961417a565b6001600160a01b038616600090815260016020908152604080832080546001600160801b03191660809590951c94909417909355606e9052908120606f80546135b99391908690811061359457fe5b6000918252602080832090910154835282019290925260400190205460801b8261417a565b6001600160a01b0386166000908152606e60205260408120606f8054919291869081106135e257fe5b9060005260206000200154815260200190815260200160002060000160006101000a8154816001600160801b03021916908360801c021790555061367f606e6000876001600160a01b03166001600160a01b031681526020019081526020016000206000606f858154811061365357fe5b60009182526020808320909101548352820192909252604001902054600160801b900460801b8961417a565b6001600160a01b0386166000908152606e60205260408120606f8054919291869081106136a857fe5b9060005260206000200154815260200190815260200160002060000160106101000a8154816001600160801b03021916908360801c0217905550846001600160a01b0316306001600160a01b03167f11456c93ffcf5a5e91bb39ec278a1a571dd5553a76b4b072fb3efcf7b53862ed6137208b612c41565b60408051918252519081900360200190a35b506071805460ff191690556000965060019150613fe0565b6001600160a01b038616600090815260016020908152604080832054606e9092528220606f80546137b39460809490941b9391908690811061378857fe5b60009182526020808320909101548352820192909252604001902054600160801b900460801b61416c565b6001600160a01b038716600090815260016020526040902080546001600160801b03191660809290921c91909117905560715460ff16156137f357600080fd5b6071805460ff19166001179055600160d01b6572656465656d02851415613c6557600080546001600160a01b0388168252606e60205260408220606f80546138489460809490941b9391908690811061378857fe5b600080546001600160801b03191660809290921c9190911781556001600160a01b0387168152606e60205260408120606f80546138b0929184918690811061388c57fe5b6000918252602080832090910154835282019290925260400190205460801b614b7d565b9050606f82815481106138bf57fe5b9060005260206000200154600160d91b6432ba3432b902141561392057866001600160a01b03166108fc6138f283612c41565b6040518115909202916000818181858888f1935050505015801561391a573d6000803e3d6000fd5b50613bc5565b6001600160a01b0387166000908152606e60205260408120606f8054309391908690811061394a57fe5b600091825260208083209091015483528201929092526040019020600101546001600160a01b031614613a8d57606a546001600160a01b038881166000908152606e60205260408120606f8054939094169363b1fa135093919291879081106139af57fe5b9060005260206000200154815260200190815260200160002060010160009054906101000a90046001600160a01b031689606f86815481106139ed57fe5b9060005260206000200154613a0186612c41565b6040518563ffffffff1660e01b815260040180856001600160a01b03166001600160a01b03168152602001846001600160a01b03166001600160a01b03168152602001838152602001828152602001945050505050600060405180830381600087803b158015613a7057600080fd5b505af1158015613a84573d6000803e3d6000fd5b50505050613bc5565b606854606f805460009261010090046001600160a01b03169163f3458f149186908110613ab657fe5b90600052602060002001546040518263ffffffff1660e01b81526004018082815260200180600160cb1b660acd2c286c2e6d0281525060200191505060206040518083038186803b158015613b0a57600080fd5b505afa158015613b1e573d6000803e3d6000fd5b505050506040513d6020811015613b3457600080fd5b505160408051600160e51b623f7fb90281526001600160801b0319851660048201526001600160a01b038b811660248301529151929350908316916307eff720916044808201926020929091908290030181600087803b158015613b9757600080fd5b505af1158015613bab573d6000803e3d6000fd5b505050506040513d6020811015613bc157600080fd5b5050505b606d546001600160a01b0388166000818152606e60205260408120606f805493947ff24553ffac11655a77b94b56761556d46c41e3a9d9d46d67f1f82690c7586b3b949093919088908110613c1657fe5b6000918252602080832090910154835282810193909352604091820190205481519384526001600160801b0319600160801b90910460801b16918301919091528051918290030190a250613f3f565b84600160c11b673a3930b739b332b9021415613f3f57600080613d4a606e60008a6001600160a01b03166001600160a01b031681526020019081526020016000206000606f8681548110613cb557fe5b9060005260206000200154815260200190815260200160002060000160109054906101000a900460801b606e60008b6001600160a01b03166001600160a01b031681526020019081526020016000206000606f8781548110613d1357fe5b9060005260206000200154815260200190815260200160002060000160009054906101000a900460801b606f868154811061350a57fe5b6001600160a01b0388166000908152600160205260409020549193509150613d759060801b8361417a565b6001600160a01b038716600090815260016020908152604080832080546001600160801b03191660809590951c94909417909355606e9052908120606f8054613dc49391908790811061359457fe5b6001600160a01b0387166000908152606e60205260408120606f805491929187908110613ded57fe5b9060005260206000200154815260200190815260200160002060000160006101000a8154816001600160801b03021916908360801c0217905550613e8a606e6000886001600160a01b03166001600160a01b031681526020019081526020016000206000606f8681548110613e5e57fe5b60009182526020808320909101548352820192909252604001902054600160801b900460801b8361417a565b6001600160a01b0387166000908152606e60205260408120606f805491929187908110613eb357fe5b9060005260206000200154815260200190815260200160002060000160106101000a8154816001600160801b03021916908360801c0217905550856001600160a01b0316306001600160a01b03167f11456c93ffcf5a5e91bb39ec278a1a571dd5553a76b4b072fb3efcf7b53862ed613f2b85612c41565b60408051918252519081900360200190a350505b613f7787606e6000896001600160a01b03166001600160a01b031681526020019081526020016000206000606f858154811061378857fe5b6001600160a01b0387166000908152606e60205260408120606f8054939a50909284908110613fa257fe5b600091825260208083209091015483528201929092526040018120908155600190810180546001600160a01b03191690556071805460ff1916905591505b600101612e27565b5095945050505050565b6068805460ff191690556040517fa45f47fdea8a1efdd9029a5691c7f759c32b7c698632b563573e155625d1693390600090a1565b6068805460ff191660011790556040517f9e87fac88ff661f02d44f95383c817fece4bce600a3dab7a54406878b965e75290600090a1565b303b1590565b3390565b6001600160a01b03811660009081526001602052604081205461409090849060801b612cd9565b60000b60001914806140c957506001600160a01b0382166000908152600160205260409020546140c490849060801b612cd9565b60000b155b15614164576001600160a01b0382166000908152600160205260409020546140f49060801b8461416c565b6001600160a01b03831660009081526001602052604080822080546001600160801b031916608094851c179055308252902054614132911b8461417a565b30600090815260016020819052604090912080546001600160801b03191660809390931c929092179091559050611231565b506000611231565b600061122e83600160ff1b84185b6000617fff6001600160801b03608085811c8216607090811c8416939186901c90921690911c8116908214156141f05780617fff14156141e6576001600160801b031985811690851614156141d3578492505050611231565b50600160ef1b61ffff0291506112319050565b8492505050611231565b80617fff1415614204578392505050611231565b6001607f1b608086901c6001600160801b0381169190911015906001600160701b031683614235576001935061423c565b600160701b175b6001607f1b608087901c6001600160801b0381169190911015906001600160701b03168461426d5760019450614274565b600160701b175b826142a4576001600160801b03198816600160ff1b146142945787614297565b60005b9650505050505050611231565b806142c4576001600160801b03198916600160ff1b146142945788614297565b84860384151583151514156143ea5760708113156142eb5789975050505050505050611231565b600081131561430a578082600082121561430157fe5b901c9150614344565b606f198112156143235788975050505050505050611231565b6000811215614344578060000384600082121561433c57fe5b901c93508596505b92810192600160711b841061435f576001968701969390931c925b86617fff1415614394578461437c57600160f01b617fff02614386565b6001600160f01b03195b975050505050505050611231565b600160701b8410156143a957600096506143b6565b6001600160701b03841693505b83607088901b866143c85760006143ce565b6001607f1b5b6001600160801b0316171760801b975050505050505050611231565b600081131561440557600184901b935060018703965061441c565b600081121561441c57600182901b91506001860396505b607081131561442e5760019150614491565b6001811315614456576001810360018303600082121561444a57fe5b901c6001019150614491565b606f198112156144695760019350614491565b600019811215614491576001816000030360018503600082121561448957fe5b901c60010193505b8184106144a25781840393506144ab565b83820393508294505b836144c157506000965061123195505050505050565b60006144cc856124d5565b905080607114156144f257600185901c6001600160701b03169450600188019750614541565b607081101561453457607081900380891115614521578086901b6001600160701b03169550808903985061452e565b600098600019019590951b945b50614541565b6001600160701b03851694505b87617fff1415614577578561455e57600160f01b617fff02614568565b6001600160f01b03195b98505050505050505050611231565b84607089901b8761458957600061458f565b6001607f1b5b6001600160801b0316171760801b98505050505050505050611231565b6001600160a01b0381166145f457604051600160e51b62461bcd028152600401808060200182810382526026815260200180614fca6026913960400191505060405180910390fd5b6035546040516001600160a01b038084169216907f8be0079c531659141344cd1fd0a4f28419497f9722a3daafe3b4186f6b6457e090600090a3603580546001600160a01b0319166001600160a01b0392909216919091179055565b6000617fff6001600160801b03608085811c8216607090811c8416939186901c90921690911c8116908214156147085780617fff14156146d3576001600160801b031985811690851614156146b057505050600160ff1b81168218611231565b600160ff1b6001600160801b03198686181614156141d357505050818117611231565b600160801b600160ff1b0384166146f75750600160ef1b61ffff0291506112319050565b505050600160ff1b81168218611231565b80617fff141561474757600160801b600160ff1b0385166147365750600160ef1b61ffff0291506112319050565b505050600160ff1b82168118611231565b6001600160701b03608086901c1682614763576001925061476a565b600160701b175b6001600160701b03608086901c1682614786576001925061478d565b600160701b175b90810290816147ba57600160ff1b878718166147aa576000612dd6565b600160ff1b945050505050611231565b928201926000600160e11b8310156147ee57600160e01b8310156147e6576147e1836124d5565b6147e9565b60e05b6147f1565b60e15b9050614070818601101561480c5760009450600092506148a9565b6140e0818601101561484f5761407085101561483157846140700383901c9250614846565b61407085111561484657614070850383901b92505b600094506148a9565b61c0dd818601111561486957617fff9450600092506148a9565b6070811115614880576070810383901c9250614893565b6070811015614893578060700383901b92505b6001600160701b03831692506140df8186010394505b82607086901b888a186001607f1b60801b1660801c6001600160801b0316171760801b95505050505050611231565b6000617fff6001600160801b03608085811c8216607090811c8416939186901c90921690911c8116908214156149255780617fff14156146f75750600160ef1b61ffff0291506112319050565b80617fff141561496557600160801b600160f01b038416156149545750600160ef1b61ffff0291506112319050565b505050808218600160ff1b16611231565b600160801b600160ff1b0384166149b557600160801b600160ff1b03851661499a5750600160ef1b61ffff0291506112319050565b505050808218600160ff1b16600160f01b617fff0217611231565b6001600160701b03608085901c16816149d157600191506149d8565b600160701b175b6001600160701b03608087901c1683614a17578015614a125760006149fc826124d5565b6001955060e20393840160711901939190911b90505b614a21565b600160701b1760721b5b818181614a2a57fe5b04905080614a4657600160ff1b878718166147aa576000612dd6565b6001606c1b811015614a5457fe5b6000600160731b821015614a9457600160721b821015614a8957600160711b821015614a81576070614a84565b60715b614a8c565b60725b60ff16614a9d565b614a9d826124d5565b905083614071018186011115614abb57617fff945060009150614b4e565b83818601613ffc011015614ad6576000945060009150614b4e565b83818601613f8c011015614b23578385613ffc011115614b01578385613ffc010382901b9150614b1a565b8385613ffc011015614b1a57613ffc8585030382901c91505b60009450614b4e565b6070811115614b36576070810382901c91505b6001600160701b038216915083818601613f8d010394505b81607086901b888a186001607f1b60801b1660801c6001600160801b0316171760801b95505050505050611231565b60695460408051600160e01b63e5f3d3a5028152600160b11b693932b232b6b83a34b7b7026004820152905160009283926001600160a01b039091169163e5f3d3a591602480820192602092909190829003018186803b158015614be057600080fd5b505afa158015614bf4573d6000803e3d6000fd5b505050506040513d6020811015614c0a57600080fd5b5051905082614c1a826000612cd9565b60000b60011415611b7a5760695460408051600160e11b637a55098102815290516000926001600160a01b03169163f4aa1302916004808301926020929190829003018186803b158015614c6d57600080fd5b505afa158015614c81573d6000803e3d6000fd5b505050506040513d6020811015614c9757600080fd5b505190506001600160a01b03811615614d0357806001600160a01b03166108fc614cc9614cc48689614650565b612c41565b6040518115909202916000818181858888f19350505050158015614cf1573d6000803e3d6000fd5b50614d00856121618588614650565b91505b509392505050565b60695460408051600160e01b63e5f3d3a5028152600160b01b6972656d697474616e63650260048201529051600092839283926001600160a01b039092169163e5f3d3a591602480820192602092909190829003018186803b158015614d7057600080fd5b505afa158015614d84573d6000803e3d6000fd5b505050506040513d6020811015614d9a57600080fd5b50519050614da9816000612cd9565b60000b60011415614f275760695460408051600160e11b637a55098102815290516000926001600160a01b03169163f4aa1302916004808301926020929190829003018186803b158015614dfc57600080fd5b505afa158015614e10573d6000803e3d6000fd5b505050506040513d6020811015614e2657600080fd5b505190506001600160a01b03811615614f25576001600160a01b038116600090815260016020526040902054614e639060801b6121a7848a614650565b6001600160a01b038216600090815260016020526040902080546001600160801b03191660809290921c919091179055614ea1876121618482614650565b6001600160a01b0382166000908152606e60209081526040808320898452909152902054909750614ed99060801b6121a78489614650565b6001600160a01b0382166000908152606e60209081526040808320898452909152902080546001600160801b03191660809290921c919091179055614f22866121618482614650565b95505b505b5093949293505050565b828054600181600116156101000203166002900490600052602060002090601f016020900481019282601f10614f7257805160ff1916838001178555614f9f565b82800160010185558215614f9f579182015b82811115614f9f578251825591602001919060010190614f84565b50614fab929150614faf565b5090565b61125091905b80821115614fab5760008155600101614fb556fe4f776e61626c653a206e6577206f776e657220697320746865207a65726f2061646472657373436f6e747261637420696e7374616e63652068617320616c7265616479206265656e20696e697469616c697a6564a165627a7a72305820b49bf99d6ad63eabeefb1c1824525341dc5369931867a3efe6c052790656ac8d0029",
  "source": "// (c) Kallol Borah, 2020\r\n// Implementation of the Verified cash token.\r\n// SPDX-License-Identifier: MIT\r\n\r\npragma solidity 0.5.7;\r\n\r\nimport \"./erc/ERC20.sol\";\r\nimport \"./interfaces/ViaOracle.sol\";\r\nimport \"./interfaces/ViaFactory.sol\";\r\nimport \"./interfaces/ViaCash.sol\";\r\nimport \"./interfaces/ViaBond.sol\";\r\nimport \"./interfaces/ViaToken.sol\";\r\nimport \"@openzeppelin/upgrades/contracts/Initializable.sol\";\r\nimport \"@openzeppelin/contracts-ethereum-package/contracts/ownership/Ownable.sol\";\r\nimport \"./utilities/StringUtils.sol\";\r\nimport \"./utilities/PaymentUtils.sol\";\r\nimport \"./utilities/Pausable.sol\";\r\nimport \"./interfaces/ViaFees.sol\";\r\nimport \"./interfaces/VerifiedClient.sol\";\r\nimport \"./interfaces/VerifiedRates.sol\";\r\n\r\ncontract Cash is ViaCash, ERC20, Initializable, Ownable, Pausable {\r\n\r\n    using stringutils for *;\r\n    using paymentutils for *;\r\n\r\n    //via factory address\r\n    ViaFactory private factory;\r\n\r\n    VerifiedRates private rates;\r\n\r\n    //via oracle\r\n    ViaOracle private oracle;\r\n\r\n    //name of Via cash token (eg, Via-USD)\r\n    string public name;\r\n    string public symbol;\r\n    bytes32 public cashtokenName;\r\n\r\n    struct deposit{\r\n        bytes16 depositAmount;\r\n        bytes16 issuedAmount;\r\n        address depositor;\r\n    }\r\n\r\n    //mapping of buyers (address) to deposit currency (bytes32) to deposits \r\n    mapping(address => mapping(bytes32 => deposit)) public deposits;\r\n\r\n    bytes32[] public currencies;\r\n\r\n    //data structure holding details of currency conversion requests pending on oraclize\r\n    struct conversion{\r\n        address party;\r\n        address counterparty;\r\n        bytes32 operation;\r\n        bytes32 paid_in_currency;\r\n        bytes32 payout_currency;\r\n        bytes16 amount;\r\n        bytes16 EthXvalue;\r\n        bytes16 ViaXvalue;\r\n    }\r\n\r\n    //queue of pending conversion requests with each pending request mapped to a request_id returned by oraclize\r\n    mapping(bytes32 => conversion) private conversionQ;\r\n\r\n    //events to capture and report to Via oracle\r\n    event CashIssued(address indexed _party, bytes32 currency, uint256 amount);\r\n    event CashRedeemed(address indexed _party, bytes32 currency, bytes16 amount);\r\n    event CashDeposits(address indexed depositor, bytes32 currency, bytes16 amount);\r\n    event CashTransfer(address indexed from, address indexed to, uint tokens);\r\n\r\n    //mutex\r\n    bool lock;\r\n\r\n    //initiliaze proxies\r\n    function initialize(bytes32 _name, bytes32 _currency, address _owner, address _oracle, address _token, address _fee) public initializer{\r\n        Ownable.initialize(_owner);\r\n        factory = ViaFactory(msg.sender);\r\n        oracle = ViaOracle(_oracle);\r\n        name = string(abi.encodePacked(_name));\r\n        symbol = _name.substring(0,5);\r\n        cashtokenName = _currency;\r\n        lock = false;\r\n        rates = VerifiedRates(_fee);\r\n    }\r\n\r\n    //handling pay in of ether for issue of via cash tokens\r\n    function() external payable{\r\n        //ether paid in\r\n        require(msg.value !=0);\r\n        //only to pay in ether\r\n        require(msg.data.length==0);\r\n        //contract must not be paused\r\n        require(paused == false);\r\n        //check aml status\r\n        //require(amlCheck(msg.sender)==true);        \r\n        //issue via cash tokens\r\n        issue(ABDKMathQuad.fromUInt(msg.value), address(this), msg.sender, \"ether\");\r\n    }\r\n\r\n    //overriding this function of ERC20 standard for transfer of via cash tokens to other users or to this contract for redemption\r\n    function transferFrom(address sender, address receiver, uint256 tokens) external returns (bool){\r\n        //contract must not be paused\r\n        require(paused == false);\r\n        //check aml status\r\n        //require(amlCheck(sender)==true);\r\n        //require(amlCheck(receiver)==true);\r\n        //ensure sender has enough tokens in balance before transferring or redeeming them\r\n        require(ABDKMathQuad.cmp(balances[sender],ABDKMathQuad.fromUInt(tokens))!=-1);\r\n        //check if tokens are being transferred to this cash contract\r\n        if(receiver == address(this)){\r\n            //if token name is the same, this transfer has to be redeemed\r\n            if(redeem(ABDKMathQuad.fromUInt(tokens), sender, \"redeem\", address(this)))\r\n                return true;\r\n            else\r\n                return false;\r\n        }\r\n        //else request issue of cash tokens requested from receiver\r\n        else if(factory.getType(receiver)==\"ViaCash\"){ \r\n            require(!lock);\r\n            lock = true;\r\n            //only issue if cash tokens are paid in, since bond tokens can't be paid to issue bond token\r\n            if(Cash(address(uint160(receiver))).requestIssue(ABDKMathQuad.fromUInt(tokens), sender, cashtokenName)){\r\n                lock = false; \r\n                return true;                \r\n            }\r\n            else{\r\n                lock = false;\r\n                return false;\r\n            }\r\n        }\r\n        //else if cash tokens are paid into bond issuers, then request for issue of bonds\r\n        else if(factory.getType(receiver)==\"ViaBond\"){\r\n            if(ViaBond(address(uint160(receiver))).requestIssue(ABDKMathQuad.fromUInt(tokens), sender, cashtokenName, address(this)))\r\n                    return true;\r\n                else\r\n                    return false;\r\n        }\r\n        //else check if cash tokens are paid into any specific bond token for purchase\r\n        else if(factory.getType(receiver)==\"ViaBondToken\"){\r\n            if(ViaToken(address(uint160(receiver))).requestTransaction(ABDKMathQuad.fromUInt(tokens), sender, cashtokenName, address(this)))\r\n                    return true;\r\n                else\r\n                    return false;\r\n        }\r\n        else{\r\n            //else, tokens are being sent to another user's account\r\n            //sending contract should be allowed by token owner to make this transfer\r\n            if(redeem(ABDKMathQuad.fromUInt(tokens), sender, \"transfer\", receiver))\r\n                return true;\r\n            else\r\n                return false;\r\n        } \r\n    }\r\n\r\n    //accessor for addToBalance function\r\n    function requestAddToBalance(bytes16 tokens, address sender) external returns (bool){\r\n        require(factory.getType(msg.sender) == \"ViaCash\" || factory.getType(msg.sender) == \"ViaBond\");\r\n        return(addToBalance(tokens, sender));\r\n    }\r\n\r\n    //add to token balance of this contract from token balance of sender\r\n    function addToBalance(bytes16 tokens, address sender) private returns (bool){\r\n        //sender should have more tokens than being transferred\r\n        if(ABDKMathQuad.cmp(tokens, balances[sender])==-1 || ABDKMathQuad.cmp(tokens, balances[sender])==0){\r\n            balances[sender] = ABDKMathQuad.sub(balances[sender], tokens);\r\n            balances[address(this)] = ABDKMathQuad.add(balances[address(this)], tokens);\r\n            return true;\r\n        }\r\n        else\r\n            return false;\r\n    }\r\n\r\n    //accessor for deductFromBalance function\r\n    function requestDeductFromBalance(bytes16 tokens, address receiver) external returns (bytes16){\r\n        require(factory.getType(msg.sender) == \"ViaCash\" || factory.getType(msg.sender) == \"ViaBond\");\r\n        return(deductFromBalance(tokens, receiver));\r\n    }\r\n\r\n    //deduct token balance from this contract and add token balance to receiver\r\n    function deductFromBalance(bytes16 tokens, address receiver) private returns (bytes16){\r\n        //this cash token issuer should have more tokens than being deducted\r\n        if(ABDKMathQuad.cmp(tokens, balances[address(this)])==-1 || ABDKMathQuad.cmp(tokens, balances[address(this)])==0){\r\n            balances[address(this)] = ABDKMathQuad.sub(balances[address(this)], tokens);\r\n            balances[receiver] = ABDKMathQuad.add(balances[receiver], tokens);\r\n            return ABDKMathQuad.fromUInt(0);\r\n        }\r\n        else{\r\n            bytes16 balance = ABDKMathQuad.sub(tokens, balances[address(this)]);\r\n            balances[receiver] = ABDKMathQuad.add(balances[receiver], balances[address(this)]);\r\n            balances[address(this)] = 0;            \r\n            return balance;\r\n        }\r\n    }\r\n\r\n    //handles fiat pay in for issue of cash tokens\r\n    //sender is authorized by verified\r\n    function payIn(uint256 tokens, address payer, bytes32 currency) external returns(bool){\r\n        address client = factory.getClient();\r\n        //require(VerifiedClient(client).getRole(msg.sender)==\"Custodian\");\r\n        //contract must not be paused\r\n        require(paused == false);\r\n        if(issue(ABDKMathQuad.fromUInt(tokens), msg.sender, payer, currency))\r\n            return true;\r\n        else\r\n            return false;\r\n    }\r\n\r\n    //accessor for issue function\r\n    function requestIssue(bytes16 amount, address buyer, bytes32 currency) public returns(bool){\r\n        require(factory.getType(msg.sender) == \"ViaCash\");\r\n        return(issue(amount, address(this), buyer, currency));\r\n    }\r\n\r\n    //requesting issue of Via to buyer for amount of ether or some other via cash token paid in and stored in cashContract\r\n    function issue(bytes16 amount, address depositor, address buyer, bytes32 currency) private returns(bool){\r\n        //ensure that brought amount is not zero\r\n        require(amount != 0);\r\n        //find amount of via cash tokens to transfer after applying exchange rate\r\n        if(currency==\"ether\"){\r\n            //if ether is paid in for issue of Via-USD cash token, then all we need is the exchange rate of ether to USD (ethusd)\r\n            //since the exchange rate of USD to Via-USD is always 1\r\n            if(cashtokenName==\"VXUSD\"){\r\n                bytes32 EthXid = oracle.request(\"eth\",\"ethusd\",\"EthCash\", address(this)); \r\n                //bytes32 EthXid = \"11\";\r\n                conversion storage c = conversionQ[EthXid];\r\n                c.party = buyer;\r\n                c.counterparty = depositor;\r\n                c.operation = \"issue\";\r\n                c.paid_in_currency = currency;\r\n                c.payout_currency = cashtokenName;\r\n                c.amount = amount;\r\n                c.EthXvalue = ABDKMathQuad.fromUInt(0);\r\n                c.ViaXvalue = ABDKMathQuad.fromUInt(1);\r\n                //convert(\"11\",ABDKMathQuad.fromUInt(\"451.25\".stringToUint()),\"ethusd\");\r\n            }\r\n            //if ether is paid in for issue of non-USD cash token, we need the exchange rate of ether to the USD (ethusd)\r\n            //and the exchange rate of Via-USD to the requested non-USD cash token (eg, Via-EUR)\r\n            else{\r\n                bytes32 EthXid = oracle.request(\"eth\",\"ethusd\",\"EthCash\", address(this)); \r\n                bytes32 ViaXid = oracle.request(abi.encodePacked(\"VXUSD_to_\", cashtokenName),\"ver\",\"Cash\", address(this)); \r\n                oracle.setCallbackId(EthXid,ViaXid);\r\n                //bytes32 EthXid = \"11\";\r\n                //bytes32 ViaXid = \"22\";\r\n                conversion storage c = conversionQ[ViaXid];\r\n                c.party = buyer;\r\n                c.counterparty = depositor;\r\n                c.operation = \"issue\";\r\n                c.paid_in_currency = currency;\r\n                c.payout_currency = cashtokenName;\r\n                c.amount = amount;\r\n                c.EthXvalue = ABDKMathQuad.fromUInt(0);\r\n                c.ViaXvalue = ABDKMathQuad.fromUInt(0);\r\n                //convert(\"22\",ABDKMathQuad.fromUInt(\"451.25\".stringToUint()),\"ethusd\");\r\n                //convert(\"22\",ABDKMathQuad.fromUInt(\"1.2\".stringToUint()),\"ver\");                \r\n            }\r\n        }\r\n        //if ether is not paid in and instead, some other Via cash token is paid in\r\n        //we need to find the exchange rate between the paid in Via cash token and the cash token this cash contract represents\r\n        else{\r\n            if(currency.substringinbytes(0,5)!=cashtokenName){\r\n                bytes32 ViaXid = oracle.request(abi.encodePacked(currency.substring(0,5),\"_to_\",cashtokenName),\"er\",\"Cash\", address(this)); \r\n                //bytes32 ViaXid = \"33\";\r\n                conversion storage c = conversionQ[ViaXid];\r\n                c.party = buyer;\r\n                c.counterparty = depositor;\r\n                c.operation = \"issue\";\r\n                c.paid_in_currency = currency;\r\n                c.payout_currency = cashtokenName;\r\n                c.amount = amount;\r\n                c.EthXvalue = ABDKMathQuad.fromUInt(0);\r\n                c.ViaXvalue = ABDKMathQuad.fromUInt(0);\r\n                //convert(\"33\",ABDKMathQuad.fromUInt(\"7.6\".stringToUint()),\"er\");\r\n            }\r\n            else{\r\n                finallyIssue(amount, buyer, depositor, currency, amount);\r\n            }\r\n        }\r\n        return true;\r\n    }\r\n\r\n    //requesting redemption of Via cash token and transfer of currency it was issued against\r\n    //operation parameter indicates whether it is a redemption or a transfer of deposits from one party to another\r\n    function redeem(bytes16 amount, address party, bytes32 operation, address receiver) private returns(bool){\r\n        bool found = false;\r\n        for(uint i=0; i<currencies.length && ABDKMathQuad.toUInt(amount)>0; i++){            \r\n            //check if currency in which redemption is to be done has sufficient issued balance for the deposited currency\r\n            if(ABDKMathQuad.cmp(deposits[party][currencies[i]].issuedAmount, amount)!=-1){\r\n                bytes16 value = ABDKMathQuad.mul(ABDKMathQuad.div(amount, deposits[party][currencies[i]].issuedAmount),deposits[party][currencies[i]].depositAmount);\r\n                deposits[party][currencies[i]].depositAmount = ABDKMathQuad.sub(deposits[party][currencies[i]].depositAmount, value);\r\n                //reduces balances\r\n                balances[party] = ABDKMathQuad.sub(balances[party], amount);\r\n                deposits[party][currencies[i]].issuedAmount = ABDKMathQuad.sub(deposits[party][currencies[i]].issuedAmount, amount);\r\n                require(!lock);\r\n                lock = true;\r\n                if(operation==\"redeem\"){\r\n                    //adjust total supply\r\n                    totalSupply_ = ABDKMathQuad.sub(totalSupply_, amount);\r\n                    //check if any fee is payable on redemption and pay it if that is the case\r\n                    value = payRedemptionFee(value);\r\n                    //send redeemed ether to party\r\n                    if(currencies[i]==\"ether\"){\r\n                        address(uint160(party)).transfer(ABDKMathQuad.toUInt(value));\r\n                    }\r\n                    else{\r\n                        //if(cashtokenName.substringinbytes(2,5)==currencies[i]){\r\n                        if(deposits[party][currencies[i]].depositor!=address(this)){\r\n                            //if currency to redeem is fiat counterpart of this cash token, request oracle to pay out fiat\r\n                            oracle.payOut(deposits[party][currencies[i]].depositor, party, currencies[i], ABDKMathQuad.toUInt(value));\r\n                        }\r\n                        else{\r\n                            address cashToken = factory.getTokenByNameType(currencies[i],\"ViaCash\");\r\n                            Cash(address(uint160(cashToken))).requestDeductFromBalance(value, party);\r\n                        }\r\n                    }\r\n                    //generate event\r\n                    emit CashRedeemed(party, cashtokenName, amount);\r\n                }\r\n                else if(operation==\"transfer\"){\r\n                    //check if any fee is payable on remittance and acceptance and pay it if that is the case\r\n                    (amount, value) = payTransferFee(amount, value, currencies[i]);\r\n                    //transfer balances\r\n                    balances[receiver] = ABDKMathQuad.add(balances[receiver], amount);\r\n                    //transfer deposits\r\n                    deposits[receiver][currencies[i]].depositAmount = ABDKMathQuad.add(deposits[receiver][currencies[i]].depositAmount, value);\r\n                    //transfer issued amounts\r\n                    deposits[receiver][currencies[i]].issuedAmount = ABDKMathQuad.add(deposits[receiver][currencies[i]].issuedAmount, amount);                    \r\n                    emit CashTransfer(address(this), receiver, ABDKMathQuad.toUInt(amount));\r\n                }\r\n                amount = 0;\r\n                found = true;\r\n                lock = false;\r\n            }\r\n            //amount to redeem is more than what is in deposit, so we need to remove deposit after redemption\r\n            else{\r\n                //reduces balances\r\n                balances[party] = ABDKMathQuad.sub(balances[party], deposits[party][currencies[i]].issuedAmount);\r\n                require(!lock);\r\n                lock = true;\r\n                if(operation==\"redeem\"){\r\n                    //adjust total supply\r\n                    totalSupply_ = ABDKMathQuad.sub(totalSupply_, deposits[party][currencies[i]].issuedAmount);\r\n                    //check if any fee is payable on redemption and pay it if that is the case\r\n                    bytes16 value = payRedemptionFee(deposits[party][currencies[i]].depositAmount);\r\n                    //send redeemed ether to party which is all of the ether in deposit with this user (party)\r\n                    if(currencies[i]==\"ether\"){    \r\n                        address(uint160(party)).transfer(ABDKMathQuad.toUInt(value));\r\n                    }\r\n                    else{\r\n                        //if(cashtokenName.substringinbytes(2,5)==currencies[i]){\r\n                        if(deposits[party][currencies[i]].depositor!=address(this)){\r\n                            //if currency to redeem is fiat counterpart of this cash token, request oracle to pay out fiat\r\n                            oracle.payOut(deposits[party][currencies[i]].depositor, party, currencies[i], ABDKMathQuad.toUInt(value));\r\n                        }\r\n                        else{\r\n                            address cashToken = factory.getTokenByNameType(currencies[i],\"ViaCash\");\r\n                            Cash(address(uint160(cashToken))).requestDeductFromBalance(value, party);\r\n                        }\r\n                    }                    \r\n                    //generate event\r\n                    emit CashRedeemed(party, cashtokenName, deposits[party][currencies[i]].issuedAmount);\r\n                }\r\n                else if(operation==\"transfer\"){\r\n                    //check if any fee is payable on remittance and acceptance and pay it if that is the case\r\n                    (bytes16 amtSend, bytes16 value) = payTransferFee(deposits[party][currencies[i]].issuedAmount, deposits[party][currencies[i]].depositAmount, currencies[i]);\r\n                    //transfer balances\r\n                    balances[receiver] = ABDKMathQuad.add(balances[receiver], amtSend);\r\n                    //transfer deposits\r\n                    deposits[receiver][currencies[i]].depositAmount = ABDKMathQuad.add(deposits[receiver][currencies[i]].depositAmount, value);\r\n                    //transfer issued amounts\r\n                    deposits[receiver][currencies[i]].issuedAmount = ABDKMathQuad.add(deposits[receiver][currencies[i]].issuedAmount, amtSend);\r\n                    emit CashTransfer(address(this), receiver, ABDKMathQuad.toUInt(amtSend));\r\n                }\r\n                //calculate remaining amount to redeem or transfer\r\n                amount = ABDKMathQuad.sub(amount, deposits[party][currencies[i]].issuedAmount);\r\n                //make deposit and issued amount balances zero for ether\r\n                delete deposits[party][currencies[i]];\r\n                found = true;\r\n                lock = false;\r\n            }\r\n        }\r\n        return found;\r\n    }    \r\n\r\n    //function called back from Via oracle\r\n    function convert(bytes32 txId, bytes16 result, bytes32 rtype) external {\r\n        require(oracle == ViaOracle(msg.sender));\r\n        //check type of result returned\r\n        if(rtype ==\"ethusd\"){\r\n            conversionQ[txId].EthXvalue = result;\r\n        }\r\n        if(rtype == \"er\"){\r\n            conversionQ[txId].ViaXvalue = result;\r\n        }\r\n        if(rtype == \"ver\"){\r\n            conversionQ[txId].ViaXvalue = result;\r\n        }\r\n        if(conversionQ[txId].operation==\"issue\"){\r\n            if(rtype == \"ethusd\" || rtype == \"ver\"){\r\n                //for issuing to happen when ether is paid in,\r\n                //value of ethX (ie ether exchange rate to USD) has to be non-zero \r\n                //and viaX (ie via exchange) should be non-zero if cash token to be issued is not Via-USD. We store 1 for ViaXvalue if Via-USD has to be issued\r\n                if(ABDKMathQuad.cmp(conversionQ[txId].EthXvalue, ABDKMathQuad.fromUInt(0))!=0 && ABDKMathQuad.cmp(conversionQ[txId].ViaXvalue, ABDKMathQuad.fromUInt(0))!=0){\r\n                    bytes16 via = paymentutils.convertToVia(cashtokenName, conversionQ[txId].amount, conversionQ[txId].paid_in_currency,conversionQ[txId].EthXvalue,conversionQ[txId].ViaXvalue);\r\n                    finallyIssue(via, conversionQ[txId].party, conversionQ[txId].counterparty, conversionQ[txId].paid_in_currency, conversionQ[txId].amount);\r\n                    delete conversionQ[txId];\r\n                }\r\n            }\r\n            else if(rtype == \"er\"){\r\n                //for issuing to happen if some other Via cash token is paid in, \r\n                //only the value of ViaX (ie exchange rate of paid in Via cash token to Via cash token to issue) has to be non-zero\r\n                if(ABDKMathQuad.cmp(conversionQ[txId].ViaXvalue, ABDKMathQuad.fromUInt(0))!=0){\r\n                    bytes16 via = paymentutils.convertToVia(cashtokenName, conversionQ[txId].amount, conversionQ[txId].paid_in_currency,conversionQ[txId].EthXvalue,conversionQ[txId].ViaXvalue);\r\n                    finallyIssue(via, conversionQ[txId].party, conversionQ[txId].counterparty, conversionQ[txId].paid_in_currency, conversionQ[txId].amount);\r\n                    delete conversionQ[txId];\r\n                }\r\n            }\r\n        }\r\n    }\r\n\r\n    //via is the number of this via cash token that is being issued, \r\n    //party is the user account address to which issued tokens are credited\r\n    function finallyIssue(bytes16 via, address party, address counterparty, bytes32 currency, bytes16 amount) private {\r\n        bool status = true;\r\n        if(currency!=\"ether\"){\r\n            address cashToken = factory.getTokenByNameType(currency,\"ViaCash\");\r\n            //transfer amount of currency from party to the deposit currency's cash contract \r\n            if(counterparty==address(this))\r\n                status = Cash(address(uint160(cashToken))).requestAddToBalance(amount, party);\r\n            else\r\n                status = addToBalance(amount, counterparty);\r\n        }\r\n        if(status){\r\n            bytes16 margin = rates.getMargin(currency);\r\n            //calculate cash token amount to issue\r\n            bytes16 toIssue = ABDKMathQuad.mul(ABDKMathQuad.sub(ABDKMathQuad.fromUInt(1),margin),via);\r\n            //add paid in currency to depositor\r\n            if(ABDKMathQuad.toUInt(deposits[party][currency].depositAmount)==0 && ABDKMathQuad.toUInt(deposits[party][currency].issuedAmount)==0){\r\n                deposits[party][currency].depositAmount = amount;\r\n                deposits[party][currency].issuedAmount = toIssue;\r\n                deposits[party][currency].depositor = counterparty;\r\n                currencies.push(currency);\r\n            }\r\n            else{\r\n                deposits[party][currency].depositAmount = ABDKMathQuad.add(deposits[party][currency].depositAmount, amount);\r\n                deposits[party][currency].issuedAmount = ABDKMathQuad.add(deposits[party][currency].issuedAmount, toIssue);\r\n                deposits[party][currency].depositor = counterparty;\r\n            }\r\n            emit CashDeposits(party, currency, deposits[party][currency].depositAmount);\r\n            //add via to this contract's balance first (ie issue them first)\r\n            balances[address(this)] = ABDKMathQuad.add(balances[address(this)], toIssue);\r\n            //transfer amount to buyer \r\n            transfer(party, ABDKMathQuad.toUInt(toIssue));\r\n            //adjust total supply\r\n            totalSupply_ = ABDKMathQuad.add(totalSupply_, toIssue);\r\n            //generate event        \r\n            emit CashIssued(party, cashtokenName, ABDKMathQuad.toUInt(toIssue));\r\n        }\r\n    }\r\n    \r\n    function payTransferFee(bytes16 amount, bytes16 value, bytes32 currency) private returns (bytes16, bytes16){\r\n        bytes16 fees = rates.getFee(\"remittance\");\r\n        if(ABDKMathQuad.cmp(fees,0)==1){\r\n            address feeTo = rates.getFeeToSetter();\r\n            if(feeTo!=address(0x0)){\r\n                balances[feeTo] = ABDKMathQuad.add(balances[feeTo], ABDKMathQuad.mul(fees, amount));\r\n                amount = ABDKMathQuad.sub(amount, ABDKMathQuad.mul(fees, amount));\r\n                deposits[feeTo][currency].depositAmount = ABDKMathQuad.add(deposits[feeTo][currency].depositAmount, ABDKMathQuad.mul(fees, value)); \r\n                value = ABDKMathQuad.sub(value, ABDKMathQuad.mul(fees, value));\r\n            }\r\n        }\r\n        return (amount, value);\r\n    }\r\n\r\n    function payRedemptionFee(bytes16 value) private returns (bytes16){\r\n        bytes16 fees = rates.getFee(\"redemption\");\r\n        bytes16 returnValue = value;\r\n        if(ABDKMathQuad.cmp(fees,0)==1){\r\n            address feeTo = rates.getFeeToSetter();\r\n            if(feeTo!=address(0x0)){\r\n                address(uint160(feeTo)).transfer(ABDKMathQuad.toUInt(ABDKMathQuad.mul(fees, value)));\r\n                returnValue = ABDKMathQuad.sub(value, ABDKMathQuad.mul(fees, value));\r\n            }\r\n        }\r\n        return returnValue;\r\n    }\r\n\r\n    //check AML status for account address\r\n    function amlCheck(address account) private view returns(bool){\r\n        address client = factory.getClient();\r\n        if(client==address(0x0))\r\n            return true;\r\n        if(VerifiedClient(client).getAMLStatus(account))\r\n            return true;\r\n        else\r\n            return false;\r\n    }\r\n\r\n    function pause() public {\r\n        require(msg.sender == owner() || msg.sender == address(factory));\r\n        _pause();\r\n    }\r\n    function unpause() public {\r\n        require(msg.sender == owner() || msg.sender == address(factory));\r\n        _unpause();\r\n    }\r\n\r\n}",
  "sourcePath": "D:\\Code\\verified-payments\\contracts\\Cash.sol",
  "compiler": {
    "name": "solc",
    "version": "0.5.7+commit.6da8b019.Emscripten.clang"
  },
  "schemaVersion": "3.4.3",
  "updatedAt": "2021-10-30T12:12:10.292Z",
  "networkType": "ethereum",
  "devdoc": {
    "methods": {
      "initialize(address)": {
        "details": "Initializes the contract setting the deployer as the initial owner.\r"
      },
      "isOwner()": {
        "details": "Returns true if the caller is the current owner.\r"
      },
      "isPaused()": {
        "return": "True: contract is paused\rFalse: contract is not paused\r"
      },
      "owner()": {
        "details": "Returns the address of the current owner.\r"
      },
      "renounceOwnership()": {
        "details": "Leaves the contract without owner. It will not be possible to call\r `onlyOwner` functions anymore. Can only be called by the current owner.\r      * > Note: Renouncing ownership will leave the contract without an owner,\r thereby removing any functionality that is only available to the owner.\r"
      },
      "transferOwnership(address)": {
        "details": "Transfers ownership of the contract to a new account (`newOwner`).\r Can only be called by the current owner.\r"
      }
    }
  },
  "userdoc": {
    "methods": {
      "isPaused()": {
        "notice": "returns whether or not the contract is paused\r"
      }
    }
  }
}