{
  "contractName": "ERC20",
  "abi": [
    {
      "constant": true,
      "inputs": [
        {
          "name": "",
          "type": "address"
        }
      ],
      "name": "balances",
      "outputs": [
        {
          "name": "",
          "type": "bytes16"
        }
      ],
      "payable": false,
      "stateMutability": "view",
      "type": "function"
    },
    {
      "constant": true,
      "inputs": [],
      "name": "decimals",
      "outputs": [
        {
          "name": "",
          "type": "uint8"
        }
      ],
      "payable": false,
      "stateMutability": "view",
      "type": "function"
    },
    {
      "anonymous": false,
      "inputs": [
        {
          "indexed": true,
          "name": "tokenOwner",
          "type": "address"
        },
        {
          "indexed": true,
          "name": "spender",
          "type": "address"
        },
        {
          "indexed": false,
          "name": "tokens",
          "type": "uint256"
        }
      ],
      "name": "Approval",
      "type": "event"
    },
    {
      "anonymous": false,
      "inputs": [
        {
          "indexed": true,
          "name": "from",
          "type": "address"
        },
        {
          "indexed": true,
          "name": "to",
          "type": "address"
        },
        {
          "indexed": false,
          "name": "tokens",
          "type": "uint256"
        }
      ],
      "name": "Transfer",
      "type": "event"
    },
    {
      "constant": true,
      "inputs": [],
      "name": "totalSupply",
      "outputs": [
        {
          "name": "",
          "type": "uint256"
        }
      ],
      "payable": false,
      "stateMutability": "view",
      "type": "function"
    },
    {
      "constant": true,
      "inputs": [
        {
          "name": "tokenOwner",
          "type": "address"
        }
      ],
      "name": "balanceOf",
      "outputs": [
        {
          "name": "",
          "type": "uint256"
        }
      ],
      "payable": false,
      "stateMutability": "view",
      "type": "function"
    },
    {
      "constant": false,
      "inputs": [
        {
          "name": "receiver",
          "type": "address"
        },
        {
          "name": "tokens",
          "type": "uint256"
        }
      ],
      "name": "transfer",
      "outputs": [
        {
          "name": "",
          "type": "bool"
        }
      ],
      "payable": false,
      "stateMutability": "nonpayable",
      "type": "function"
    },
    {
      "constant": false,
      "inputs": [
        {
          "name": "spender",
          "type": "address"
        },
        {
          "name": "tokens",
          "type": "uint256"
        }
      ],
      "name": "approve",
      "outputs": [
        {
          "name": "",
          "type": "bool"
        }
      ],
      "payable": false,
      "stateMutability": "nonpayable",
      "type": "function"
    },
    {
      "constant": true,
      "inputs": [
        {
          "name": "tokenOwner",
          "type": "address"
        },
        {
          "name": "spender",
          "type": "address"
        }
      ],
      "name": "allowance",
      "outputs": [
        {
          "name": "",
          "type": "uint256"
        }
      ],
      "payable": false,
      "stateMutability": "view",
      "type": "function"
    },
    {
      "constant": false,
      "inputs": [
        {
          "name": "owner",
          "type": "address"
        },
        {
          "name": "buyer",
          "type": "address"
        },
        {
          "name": "tokens",
          "type": "uint256"
        }
      ],
      "name": "transferFrom",
      "outputs": [
        {
          "name": "",
          "type": "bool"
        }
      ],
      "payable": false,
      "stateMutability": "nonpayable",
      "type": "function"
    }
  ],
  "bytecode": "0x608060405234801561001057600080fd5b50610cf2806100206000396000f3fe608060405234801561001057600080fd5b50600436106100885760003560e01c8063313ce5671161005b578063313ce5671461016057806370a082311461017e578063a9059cbb146101a4578063dd62ed3e146101d057610088565b8063095ea7b31461008d57806318160ddd146100cd57806323b872dd146100e757806327e235e31461011d575b600080fd5b6100b9600480360360408110156100a357600080fd5b506001600160a01b0381351690602001356101fe565b604080519115158252519081900360200190f35b6100d561024e565b60408051918252519081900360200190f35b6100b9600480360360608110156100fd57600080fd5b506001600160a01b03813581169160208101359091169060400135610265565b6101436004803603602081101561013357600080fd5b50356001600160a01b0316610427565b604080516001600160801b03199092168252519081900360200190f35b61016861043c565b6040805160ff9092168252519081900360200190f35b6100d56004803603602081101561019457600080fd5b50356001600160a01b031661044c565b6100b9600480360360408110156101ba57600080fd5b506001600160a01b038135169060200135610479565b6100d5600480360360408110156101e657600080fd5b506001600160a01b0381358116916020013516610562565b60006102098261059d565b3360009081526003602090815260408083206001600160a01b0388168452909152902080546001600160801b03191660809290921c9190911790555060015b92915050565b6001546000906102609060801b610602565b905090565b60006102946102738361059d565b6001600160a01b03861660009081526002602052604090205460801b61069a565b60000b60001914806102b257506102ad6102738361059d565b60000b155b6102bb57600080fd5b6102f36102c78361059d565b6001600160a01b038616600090815260036020908152604080832033845290915290205460801b61069a565b60000b6000191480610311575061030c6102c78361059d565b60000b155b61031a57600080fd5b6001600160a01b0384166000908152600260205260409020546103489060801b6103438461059d565b6107e3565b6001600160a01b038516600090815260026020908152604080832080546001600160801b031916608095861c17905560038252808320338452909152902054610395911b6103438461059d565b6001600160a01b038581166000908152600360209081526040808320338452825280832080546001600160801b031916608096871c17905592871682526002905220546103eb911b6103e68461059d565b6107f1565b6001600160a01b0384166000908152600260205260409020805460809290921c6001600160801b03199092169190911790555060019392505050565b60026020526000908152604090205460801b81565b600054600160a01b900460ff1681565b6001600160a01b0381166000908152600260205260408120546104719060801b610602565b90505b919050565b600061049f6104878361059d565b3060009081526002602052604090205460801b61069a565b60000b60001914806104bd57506104b86104878361059d565b60000b155b6104c657600080fd5b306000908152600260205260409020546104e69060801b6103438461059d565b3060009081526002602052604080822080546001600160801b031916608094851c1790556001600160a01b0386168252902054610527911b6103e68461059d565b6001600160a01b0384166000908152600260205260409020805460809290921c6001600160801b031990921691909117905550600192915050565b6001600160a01b0380831660009081526003602090815260408083209385168352929052908120546105969060801b610602565b9392505050565b6000816105ac57506000610474565b8160006105b882610c23565b905060708110156105d1578060700382901b91506105e4565b60708111156105e4576070810382901c91505b613fff0160701b6001600160701b03919091161760801b9050610474565b6000617fff6001600160801b03608084901c1660701c16613fff81101561062d576000915050610474565b6001607f1b8360801c6001600160801b03161061064957600080fd5b6140fe81111561065857600080fd5b600160701b6001600160701b03608085901c161761406f8210156106825761406f8290031c610596565b61406f8211156105965761406e1982011b9392505050565b600060016001607f1b03608084901c16600160701b617fff028111156106bf57600080fd5b60016001607f1b03608084901c16600160701b617fff028111156106e257600080fd5b6001600160801b031985811690851614158061070e5750600160701b617fff02826001600160801b0316105b61071757600080fd5b6001600160801b0319858116908516141561073757600092505050610248565b60006001607f1b8660801c6001600160801b03161015905060006001607f1b8660801c6001600160801b03161015905081156107a257801561079357826001600160801b0316846001600160801b031611610793576001610797565b6000195b945050505050610248565b80156107b5576001945050505050610248565b826001600160801b0316846001600160801b0316116107d657600019610797565b6001945050505050610248565b600061059683600160ff1b84185b6000617fff6001600160801b03608085811c8216607090811c8416939186901c90921690911c8116908214156108675780617fff141561085d576001600160801b0319858116908516141561084a578492505050610248565b50600160ef1b61ffff0291506102489050565b8492505050610248565b80617fff141561087b578392505050610248565b6001607f1b608086901c6001600160801b0381169190911015906001600160701b0316836108ac57600193506108b3565b600160701b175b6001607f1b608087901c6001600160801b0381169190911015906001600160701b0316846108e457600194506108eb565b600160701b175b8261091b576001600160801b03198816600160ff1b1461090b578761090e565b60005b9650505050505050610248565b8061093b576001600160801b03198916600160ff1b1461090b578861090e565b8486038415158315151415610a615760708113156109625789975050505050505050610248565b6000811315610981578082600082121561097857fe5b901c91506109bb565b606f1981121561099a5788975050505050505050610248565b60008112156109bb57806000038460008212156109b357fe5b901c93508596505b92810192600160711b84106109d6576001968701969390931c925b86617fff1415610a0b57846109f357600160f01b617fff026109fd565b6001600160f01b03195b975050505050505050610248565b600160701b841015610a205760009650610a2d565b6001600160701b03841693505b83607088901b86610a3f576000610a45565b6001607f1b5b6001600160801b0316171760801b975050505050505050610248565b6000811315610a7c57600184901b9350600187039650610a93565b6000811215610a9357600182901b91506001860396505b6070811315610aa55760019150610b08565b6001811315610acd5760018103600183036000821215610ac157fe5b901c6001019150610b08565b606f19811215610ae05760019350610b08565b600019811215610b085760018160000303600185036000821215610b0057fe5b901c60010193505b818410610b19578184039350610b22565b83820393508294505b83610b3857506000965061024895505050505050565b6000610b4385610c23565b90508060711415610b6957600185901c6001600160701b03169450600188019750610bb8565b6070811015610bab57607081900380891115610b98578086901b6001600160701b031695508089039850610ba5565b600098600019019590951b945b50610bb8565b6001600160701b03851694505b87617fff1415610bee5785610bd557600160f01b617fff02610bdf565b6001600160f01b03195b98505050505050505050610248565b84607089901b87610c00576000610c06565b6001607f1b5b6001600160801b0316171760801b98505050505050505050610248565b6000808211610c3157600080fd5b6000600160801b8310610c4657608092831c92015b680100000000000000008310610c5e57604092831c92015b6401000000008310610c7257602092831c92015b620100008310610c8457601092831c92015b6101008310610c9557600892831c92015b60108310610ca557600492831c92015b60048310610cb557600292831c92015b60028310610471576001019291505056fea165627a7a72305820ae1e10e587e9e04a6e099d16881e4f81e762372b6d872d9431cb4ac98c5c58fe0029",
  "source": "// (c) Kallol Borah, 2020\r\n// Base ERC20 implementation.\r\n\r\npragma solidity 0.5.7;\r\n\r\nimport \"abdk-libraries-solidity/ABDKMathQuad.sol\";\r\n\r\ncontract ERC20 {\r\n\r\n    using ABDKMathQuad for uint256;\r\n    using ABDKMathQuad for int256;\r\n    using ABDKMathQuad for bytes16;\r\n\r\n    //address of the issuer of the Via, set once, never reset again\r\n    address payable issuer;\r\n\r\n    //allowing 2-floating points for Via tokens\r\n    uint8 public decimals;\r\n    \r\n    //variables\r\n    bytes16 totalSupply_;\r\n\r\n    //Via balances held by this address\r\n    mapping(address => bytes16) public balances;\r\n    //Delegates allowed to access this address\r\n    mapping(address => mapping (address => bytes16)) allowed;\r\n\r\n    //erc20 standard events\r\n    event Approval(address indexed tokenOwner, address indexed spender, uint tokens);\r\n    event Transfer(address indexed from, address indexed to, uint tokens);\r\n\r\n    //erc20 standard functions\r\n    function totalSupply() public view returns (uint){\r\n        return ABDKMathQuad.toUInt(totalSupply_);\r\n    }\r\n\r\n    function balanceOf(address tokenOwner) public view returns (uint){\r\n        return ABDKMathQuad.toUInt(balances[tokenOwner]);\r\n    }\r\n\r\n    function transfer(address receiver, uint tokens) public returns (bool){\r\n        require(ABDKMathQuad.cmp(ABDKMathQuad.fromUInt(tokens),balances[address(this)])==-1 || \r\n                ABDKMathQuad.cmp(ABDKMathQuad.fromUInt(tokens),balances[address(this)])==0);\r\n        balances[address(this)] = ABDKMathQuad.sub(balances[address(this)], ABDKMathQuad.fromUInt(tokens));\r\n        balances[receiver] = ABDKMathQuad.add(balances[receiver], ABDKMathQuad.fromUInt(tokens));\r\n        //emit Transfer(address(this), receiver, tokens);\r\n        return true;\r\n    }    \r\n\r\n    function approve(address spender, uint tokens)  public returns (bool){\r\n        allowed[msg.sender][spender] = ABDKMathQuad.fromUInt(tokens);\r\n        //emit Approval(msg.sender, spender, tokens);\r\n        return true;\r\n    }\r\n\r\n    function allowance(address tokenOwner, address spender) public view returns (uint){\r\n        return ABDKMathQuad.toUInt(allowed[tokenOwner][spender]);\r\n    }\r\n\r\n    function transferFrom(address owner, address buyer, uint tokens) external returns (bool){\r\n        require(ABDKMathQuad.cmp(ABDKMathQuad.fromUInt(tokens), balances[owner])==-1 ||\r\n                ABDKMathQuad.cmp(ABDKMathQuad.fromUInt(tokens), balances[owner])==0);\r\n        //require(ABDKMathQuad.cmp(ABDKMathQuad.fromUInt(tokens), balances[owner])==0);\r\n        require(ABDKMathQuad.cmp(ABDKMathQuad.fromUInt(tokens), allowed[owner][msg.sender])==-1 || ABDKMathQuad.cmp(ABDKMathQuad.fromUInt(tokens), allowed[owner][msg.sender])==0);\r\n        balances[owner] = ABDKMathQuad.sub(balances[owner], ABDKMathQuad.fromUInt(tokens));\r\n        allowed[owner][msg.sender] = ABDKMathQuad.sub(allowed[owner][msg.sender], ABDKMathQuad.fromUInt(tokens));\r\n        balances[buyer] = ABDKMathQuad.add(balances[buyer], ABDKMathQuad.fromUInt(tokens));\r\n        //emit Transfer(owner, buyer, tokens);\r\n        return true;\r\n    }\r\n\r\n}\r\n",
  "sourcePath": "D:\\code\\verified-payments\\contracts\\erc\\ERC20.sol",
  "compiler": {
    "name": "solc",
    "version": "0.5.7+commit.6da8b019.Emscripten.clang"
  },
  "schemaVersion": "3.3.3",
  "updatedAt": "2021-04-04T07:07:55.261Z",
  "networkType": "ethereum",
  "devdoc": {
    "methods": {}
  },
  "userdoc": {
    "methods": {}
  }
}