{
  "contractName": "Factory",
  "abi": [
    {
      "constant": true,
      "inputs": [
        {
          "name": "_salt",
          "type": "uint256"
        },
        {
          "name": "_logic",
          "type": "address"
        },
        {
          "name": "_admin",
          "type": "address"
        },
        {
          "name": "_data",
          "type": "bytes"
        },
        {
          "name": "_signature",
          "type": "bytes"
        }
      ],
      "name": "getSigner",
      "outputs": [
        {
          "name": "",
          "type": "address"
        }
      ],
      "payable": false,
      "stateMutability": "view",
      "type": "function"
    },
    {
      "constant": false,
      "inputs": [
        {
          "name": "_salt",
          "type": "uint256"
        },
        {
          "name": "_logic",
          "type": "address"
        },
        {
          "name": "_admin",
          "type": "address"
        },
        {
          "name": "_data",
          "type": "bytes"
        },
        {
          "name": "_signature",
          "type": "bytes"
        }
      ],
      "name": "deploySigned",
      "outputs": [
        {
          "name": "",
          "type": "address"
        }
      ],
      "payable": false,
      "stateMutability": "nonpayable",
      "type": "function"
    },
    {
      "constant": true,
      "inputs": [
        {
          "name": "",
          "type": "uint256"
        }
      ],
      "name": "managers",
      "outputs": [
        {
          "name": "",
          "type": "address"
        }
      ],
      "payable": false,
      "stateMutability": "view",
      "type": "function"
    },
    {
      "constant": true,
      "inputs": [
        {
          "name": "",
          "type": "uint256"
        }
      ],
      "name": "tokens",
      "outputs": [
        {
          "name": "",
          "type": "address"
        }
      ],
      "payable": false,
      "stateMutability": "view",
      "type": "function"
    },
    {
      "constant": false,
      "inputs": [
        {
          "name": "_salt",
          "type": "uint256"
        },
        {
          "name": "_logic",
          "type": "address"
        },
        {
          "name": "_admin",
          "type": "address"
        },
        {
          "name": "_data",
          "type": "bytes"
        }
      ],
      "name": "deploy",
      "outputs": [
        {
          "name": "",
          "type": "address"
        }
      ],
      "payable": false,
      "stateMutability": "nonpayable",
      "type": "function"
    },
    {
      "constant": true,
      "inputs": [
        {
          "name": "",
          "type": "address"
        }
      ],
      "name": "token",
      "outputs": [
        {
          "name": "tokenType",
          "type": "bytes32"
        },
        {
          "name": "name",
          "type": "bytes32"
        }
      ],
      "payable": false,
      "stateMutability": "view",
      "type": "function"
    },
    {
      "constant": false,
      "inputs": [],
      "name": "renounceOwnership",
      "outputs": [],
      "payable": false,
      "stateMutability": "nonpayable",
      "type": "function"
    },
    {
      "constant": true,
      "inputs": [
        {
          "name": "_salt",
          "type": "uint256"
        },
        {
          "name": "_sender",
          "type": "address"
        }
      ],
      "name": "getDeploymentAddress",
      "outputs": [
        {
          "name": "",
          "type": "address"
        }
      ],
      "payable": false,
      "stateMutability": "view",
      "type": "function"
    },
    {
      "constant": true,
      "inputs": [],
      "name": "owner",
      "outputs": [
        {
          "name": "",
          "type": "address"
        }
      ],
      "payable": false,
      "stateMutability": "view",
      "type": "function"
    },
    {
      "constant": true,
      "inputs": [],
      "name": "isOwner",
      "outputs": [
        {
          "name": "",
          "type": "bool"
        }
      ],
      "payable": false,
      "stateMutability": "view",
      "type": "function"
    },
    {
      "constant": false,
      "inputs": [
        {
          "name": "_logic",
          "type": "address"
        },
        {
          "name": "_data",
          "type": "bytes"
        }
      ],
      "name": "deployMinimal",
      "outputs": [
        {
          "name": "proxy",
          "type": "address"
        }
      ],
      "payable": false,
      "stateMutability": "nonpayable",
      "type": "function"
    },
    {
      "constant": false,
      "inputs": [
        {
          "name": "newOwner",
          "type": "address"
        }
      ],
      "name": "transferOwnership",
      "outputs": [],
      "payable": false,
      "stateMutability": "nonpayable",
      "type": "function"
    },
    {
      "anonymous": false,
      "inputs": [
        {
          "indexed": true,
          "name": "_address",
          "type": "address"
        },
        {
          "indexed": false,
          "name": "tokenName",
          "type": "bytes32"
        },
        {
          "indexed": false,
          "name": "tokenType",
          "type": "bytes32"
        }
      ],
      "name": "IssuerCreated",
      "type": "event"
    },
    {
      "anonymous": false,
      "inputs": [
        {
          "indexed": true,
          "name": "_address",
          "type": "address"
        },
        {
          "indexed": false,
          "name": "tokenName",
          "type": "bytes32"
        },
        {
          "indexed": false,
          "name": "tokenType",
          "type": "bytes32"
        }
      ],
      "name": "TokenCreated",
      "type": "event"
    },
    {
      "anonymous": false,
      "inputs": [
        {
          "indexed": true,
          "name": "previousOwner",
          "type": "address"
        },
        {
          "indexed": true,
          "name": "newOwner",
          "type": "address"
        }
      ],
      "name": "OwnershipTransferred",
      "type": "event"
    },
    {
      "anonymous": false,
      "inputs": [
        {
          "indexed": false,
          "name": "proxy",
          "type": "address"
        }
      ],
      "name": "ProxyCreated",
      "type": "event"
    },
    {
      "constant": false,
      "inputs": [],
      "name": "initialize",
      "outputs": [],
      "payable": false,
      "stateMutability": "nonpayable",
      "type": "function"
    },
    {
      "constant": false,
      "inputs": [
        {
          "name": "sender",
          "type": "address"
        }
      ],
      "name": "initialize",
      "outputs": [],
      "payable": false,
      "stateMutability": "nonpayable",
      "type": "function"
    },
    {
      "constant": true,
      "inputs": [],
      "name": "getTokenCount",
      "outputs": [
        {
          "name": "tokenCount",
          "type": "uint256"
        }
      ],
      "payable": false,
      "stateMutability": "view",
      "type": "function"
    },
    {
      "constant": true,
      "inputs": [
        {
          "name": "n",
          "type": "uint256"
        }
      ],
      "name": "getToken",
      "outputs": [
        {
          "name": "",
          "type": "address"
        }
      ],
      "payable": false,
      "stateMutability": "view",
      "type": "function"
    },
    {
      "constant": true,
      "inputs": [
        {
          "name": "viaAddress",
          "type": "address"
        }
      ],
      "name": "getName",
      "outputs": [
        {
          "name": "",
          "type": "bytes32"
        }
      ],
      "payable": false,
      "stateMutability": "view",
      "type": "function"
    },
    {
      "constant": true,
      "inputs": [
        {
          "name": "viaAddress",
          "type": "address"
        }
      ],
      "name": "getType",
      "outputs": [
        {
          "name": "",
          "type": "bytes32"
        }
      ],
      "payable": false,
      "stateMutability": "view",
      "type": "function"
    },
    {
      "constant": true,
      "inputs": [
        {
          "name": "asset",
          "type": "bytes32"
        }
      ],
      "name": "getMargin",
      "outputs": [
        {
          "name": "",
          "type": "bytes16"
        }
      ],
      "payable": false,
      "stateMutability": "view",
      "type": "function"
    },
    {
      "constant": true,
      "inputs": [
        {
          "name": "viaAddress",
          "type": "address"
        }
      ],
      "name": "getNameAndType",
      "outputs": [
        {
          "name": "",
          "type": "bytes32"
        },
        {
          "name": "",
          "type": "bytes32"
        }
      ],
      "payable": false,
      "stateMutability": "view",
      "type": "function"
    },
    {
      "constant": true,
      "inputs": [
        {
          "name": "tokenName",
          "type": "bytes32"
        },
        {
          "name": "tokenType",
          "type": "bytes32"
        }
      ],
      "name": "getTokenByNameType",
      "outputs": [
        {
          "name": "",
          "type": "address"
        }
      ],
      "payable": false,
      "stateMutability": "view",
      "type": "function"
    },
    {
      "constant": true,
      "inputs": [
        {
          "name": "symbol",
          "type": "bytes32"
        }
      ],
      "name": "getProduct",
      "outputs": [
        {
          "name": "",
          "type": "address"
        }
      ],
      "payable": false,
      "stateMutability": "view",
      "type": "function"
    },
    {
      "constant": true,
      "inputs": [
        {
          "name": "tokenType",
          "type": "bytes32"
        },
        {
          "name": "tokenName",
          "type": "bytes32"
        }
      ],
      "name": "getIssuer",
      "outputs": [
        {
          "name": "",
          "type": "address"
        }
      ],
      "payable": false,
      "stateMutability": "view",
      "type": "function"
    },
    {
      "constant": true,
      "inputs": [
        {
          "name": "tokenName",
          "type": "bytes32"
        }
      ],
      "name": "getAddressAndType",
      "outputs": [
        {
          "name": "",
          "type": "address"
        },
        {
          "name": "",
          "type": "bytes32"
        }
      ],
      "payable": false,
      "stateMutability": "view",
      "type": "function"
    },
    {
      "constant": true,
      "inputs": [
        {
          "name": "feeType",
          "type": "bytes32"
        }
      ],
      "name": "getFee",
      "outputs": [
        {
          "name": "",
          "type": "bytes16"
        }
      ],
      "payable": false,
      "stateMutability": "view",
      "type": "function"
    },
    {
      "constant": true,
      "inputs": [],
      "name": "getFeeToSetter",
      "outputs": [
        {
          "name": "",
          "type": "address"
        }
      ],
      "payable": false,
      "stateMutability": "view",
      "type": "function"
    },
    {
      "constant": true,
      "inputs": [
        {
          "name": "sender",
          "type": "address"
        }
      ],
      "name": "getTreasury",
      "outputs": [
        {
          "name": "",
          "type": "bool"
        }
      ],
      "payable": false,
      "stateMutability": "view",
      "type": "function"
    },
    {
      "constant": true,
      "inputs": [],
      "name": "getCustodian",
      "outputs": [
        {
          "name": "",
          "type": "address"
        }
      ],
      "payable": false,
      "stateMutability": "view",
      "type": "function"
    },
    {
      "constant": true,
      "inputs": [],
      "name": "getClient",
      "outputs": [
        {
          "name": "",
          "type": "address"
        }
      ],
      "payable": false,
      "stateMutability": "view",
      "type": "function"
    },
    {
      "constant": true,
      "inputs": [],
      "name": "getViaOracleUrl",
      "outputs": [
        {
          "name": "",
          "type": "string"
        }
      ],
      "payable": false,
      "stateMutability": "view",
      "type": "function"
    },
    {
      "constant": false,
      "inputs": [
        {
          "name": "_target",
          "type": "address"
        },
        {
          "name": "tokenName",
          "type": "bytes32"
        },
        {
          "name": "tokenType",
          "type": "bytes32"
        },
        {
          "name": "tokenCurrency",
          "type": "bytes32"
        },
        {
          "name": "_oracle",
          "type": "address"
        },
        {
          "name": "_token",
          "type": "address"
        },
        {
          "name": "_fee",
          "type": "address"
        }
      ],
      "name": "createIssuer",
      "outputs": [],
      "payable": false,
      "stateMutability": "nonpayable",
      "type": "function"
    },
    {
      "constant": false,
      "inputs": [
        {
          "name": "_target",
          "type": "address"
        },
        {
          "name": "tokenName",
          "type": "bytes32"
        },
        {
          "name": "tokenSymbol",
          "type": "bytes32"
        }
      ],
      "name": "createToken",
      "outputs": [
        {
          "name": "",
          "type": "address"
        }
      ],
      "payable": false,
      "stateMutability": "nonpayable",
      "type": "function"
    },
    {
      "constant": false,
      "inputs": [
        {
          "name": "feeTo",
          "type": "address"
        },
        {
          "name": "fee",
          "type": "uint256"
        },
        {
          "name": "feeType",
          "type": "bytes32"
        }
      ],
      "name": "setFeeTo",
      "outputs": [],
      "payable": false,
      "stateMutability": "nonpayable",
      "type": "function"
    },
    {
      "constant": false,
      "inputs": [
        {
          "name": "_feeToSetter",
          "type": "address"
        }
      ],
      "name": "setFeeToSetter",
      "outputs": [],
      "payable": false,
      "stateMutability": "nonpayable",
      "type": "function"
    },
    {
      "constant": false,
      "inputs": [
        {
          "name": "_url",
          "type": "string"
        }
      ],
      "name": "setViaOracleUrl",
      "outputs": [],
      "payable": false,
      "stateMutability": "nonpayable",
      "type": "function"
    },
    {
      "constant": false,
      "inputs": [
        {
          "name": "_margin",
          "type": "uint256"
        },
        {
          "name": "_asset",
          "type": "bytes32"
        }
      ],
      "name": "setMargin",
      "outputs": [],
      "payable": false,
      "stateMutability": "nonpayable",
      "type": "function"
    },
    {
      "constant": false,
      "inputs": [
        {
          "name": "_treasury",
          "type": "address"
        }
      ],
      "name": "setTreasury",
      "outputs": [],
      "payable": false,
      "stateMutability": "nonpayable",
      "type": "function"
    },
    {
      "constant": false,
      "inputs": [
        {
          "name": "_custodian",
          "type": "address"
        }
      ],
      "name": "setCustodian",
      "outputs": [],
      "payable": false,
      "stateMutability": "nonpayable",
      "type": "function"
    },
    {
      "constant": false,
      "inputs": [
        {
          "name": "_client",
          "type": "address"
        }
      ],
      "name": "setClient",
      "outputs": [],
      "payable": false,
      "stateMutability": "nonpayable",
      "type": "function"
    }
  ],
  "bytecode": "0x6080604081905261001060a0610034565b601f1982820381018352601f90910116604052805160209190910120600055610042565b6109a6806200323c83390190565b6131ea80620000526000396000f3fe608060405234801561001057600080fd5b506004361061023d5760003560e01c806381ae1f5b1161013b578063c4d66de8116100b8578063f0f442601161007c578063f0f4426014610b2f578063f2fde38b14610b55578063f3458f1414610b7b578063f429f19b14610b9e578063f4aa130214610bc45761023d565b8063c4d66de814610a59578063c561d4b714610a7f578063e4b50cb814610a87578063e5f3d3a514610aa4578063edf6a8ac14610ac15761023d565b8063a2e74af6116100ff578063a2e74af6146108ea578063a4f09fe614610910578063aabe6f7c14610933578063b3eeb5e214610965578063b96b200414610a195761023d565b806381ae1f5b146108365780638526690a1461086257806388a365f4146108885780638da5cb5b146108da5780638f32d59b146108e25761023d565b806359dc735c116101c95780636d46a1db1161018d5780636d46a1db146107be578063715018a6146107e457806378a89567146107ec57806378f212d1146107f45780638129fc1c1461082e5761023d565b806359dc735c146106415780635fd4b08a146106495780636150864c146106815780636174e42414610745578063668151a71461077f5761023d565b80633d39c260116102105780633d39c260146105305780633e18b01b1461054d578063403f3731146105ca5780634f64b2be146105f2578063501e33fa1461060f5761023d565b8063290f8f56146102425780632ea77917146103a7578063332d6626146103ca5780633a20e9df14610513575b600080fd5b61038b600480360360a081101561025857600080fd5b8135916001600160a01b03602082013581169260408301359091169190810190608081016060820135600160201b81111561029257600080fd5b8201836020820111156102a457600080fd5b803590602001918460018302840111600160201b831117156102c557600080fd5b91908080601f0160208091040260200160405190810160405280939291908181526020018383808284376000920191909152509295949360208101935035915050600160201b81111561031757600080fd5b82018360208201111561032957600080fd5b803590602001918460018302840111600160201b8311171561034a57600080fd5b91908080601f016020809104026020016040519081016040528093929190818152602001838380828437600092019190915250929550610bcc945050505050565b604080516001600160a01b039092168252519081900360200190f35b61038b600480360360408110156103bd57600080fd5b5080359060200135610cbb565b61038b600480360360a08110156103e057600080fd5b8135916001600160a01b03602082013581169260408301359091169190810190608081016060820135600160201b81111561041a57600080fd5b82018360208201111561042c57600080fd5b803590602001918460018302840111600160201b8311171561044d57600080fd5b91908080601f0160208091040260200160405190810160405280939291908181526020018383808284376000920191909152509295949360208101935035915050600160201b81111561049f57600080fd5b8201836020820111156104b157600080fd5b803590602001918460018302840111600160201b831117156104d257600080fd5b91908080601f016020809104026020016040519081016040528093929190818152602001838380828437600092019190915250929550610ce5945050505050565b61038b6004803603602081101561052957600080fd5b5035610d62565b61038b6004803603602081101561054657600080fd5b5035610d80565b610555610da7565b6040805160208082528351818301528351919283929083019185019080838360005b8381101561058f578181015183820152602001610577565b50505050905090810190601f1680156105bc5780820380516001836020036101000a031916815260200191505b509250505060405180910390f35b6105f0600480360360208110156105e057600080fd5b50356001600160a01b0316610e52565b005b61038b6004803603602081101561060857600080fd5b5035610ed6565b6105f06004803603606081101561062557600080fd5b506001600160a01b038135169060208101359060400135610ee3565b61038b6110a6565b61066f6004803603602081101561065f57600080fd5b50356001600160a01b03166110b5565b60408051918252519081900360200190f35b61038b6004803603608081101561069757600080fd5b8135916001600160a01b03602082013581169260408301359091169190810190608081016060820135600160201b8111156106d157600080fd5b8201836020820111156106e357600080fd5b803590602001918460018302840111600160201b8311171561070457600080fd5b91908080601f0160208091040260200160405190810160405280939291908181526020018383808284376000920191909152509295506110d3945050505050565b6107626004803603602081101561075b57600080fd5b50356110eb565b604080516001600160801b03199092168252519081900360200190f35b6107a56004803603602081101561079557600080fd5b50356001600160a01b0316611100565b6040805192835260208301919091528051918290030190f35b6107a5600480360360208110156107d457600080fd5b50356001600160a01b0316611125565b6105f061113e565b61066f6111e4565b61081a6004803603602081101561080a57600080fd5b50356001600160a01b03166111ea565b604080519115158252519081900360200190f35b6105f06112d7565b61038b6004803603604081101561084c57600080fd5b50803590602001356001600160a01b03166113e0565b6105f06004803603602081101561087857600080fd5b50356001600160a01b0316611445565b6105f0600480360360e081101561089e57600080fd5b506001600160a01b038135811691602081013591604082013591606081013591608082013581169160a081013582169160c090910135166114c9565b61038b611747565b61081a611756565b6105f06004803603602081101561090057600080fd5b50356001600160a01b031661177c565b6105f06004803603604081101561092657600080fd5b5080359060200135611800565b61038b6004803603606081101561094957600080fd5b506001600160a01b038135169060208101359060400135611895565b61038b6004803603604081101561097b57600080fd5b6001600160a01b038235169190810190604081016020820135600160201b8111156109a557600080fd5b8201836020820111156109b757600080fd5b803590602001918460018302840111600160201b831117156109d857600080fd5b91908080601f016020809104026020016040519081016040528093929190818152602001838380828437600092019190915250929550611a1a945050505050565b610a3660048036036020811015610a2f57600080fd5b5035611b7a565b604080516001600160a01b03909316835260208301919091528051918290030190f35b6105f060048036036020811015610a6f57600080fd5b50356001600160a01b0316611c5a565b61038b611d4e565b61038b60048036036020811015610a9d57600080fd5b5035611df7565b61076260048036036020811015610aba57600080fd5b5035611e21565b6105f060048036036020811015610ad757600080fd5b810190602081018135600160201b811115610af157600080fd5b820183602082011115610b0357600080fd5b803590602001918460018302840111600160201b83111715610b2457600080fd5b509092509050611eef565b6105f060048036036020811015610b4557600080fd5b50356001600160a01b0316611f47565b6105f060048036036020811015610b6b57600080fd5b50356001600160a01b031661204d565b61038b60048036036040811015610b9157600080fd5b50803590602001356120b2565b61066f60048036036020811015610bb457600080fd5b50356001600160a01b0316612173565b61038b61218e565b600080610ca4878787873060405160200180868152602001856001600160a01b03166001600160a01b031660601b8152601401846001600160a01b03166001600160a01b031660601b815260140183805190602001908083835b60208310610c455780518252601f199092019160209182019101610c26565b6001836020036101000a038019825116818451168082178552505050505050905001826001600160a01b03166001600160a01b031660601b81526014019550505050505060405160208183030381529060405280519060200120612237565b9050610cb08184612288565b979650505050505050565b60008281526071602090815260408083208484529091529020546001600160a01b03165b92915050565b600080610cf58787878787610bcc565b90506001600160a01b038116610d555760408051600160e51b62461bcd02815260206004820152601160248201527f496e76616c6964207369676e6174757265000000000000000000000000000000604482015290519081900360640190fd5b610cb08787878785612376565b6000818152607060205260409020546001600160a01b03165b919050565b60738181548110610d8d57fe5b6000918252602090912001546001600160a01b0316905081565b606c546060906001600160a01b03163314610dc157600080fd5b606d805460408051602060026001851615610100026000190190941693909304601f81018490048402820184019092528181529291830182828015610e475780601f10610e1c57610100808354040283529160200191610e47565b820191906000526020600020905b815481529060010190602001808311610e2a57829003601f168201915b505050505090505b90565b6069546001600160a01b03163314610eb45760408051600160e51b62461bcd02815260206004820152601960248201527f53657420637573746f6469616e203a20464f5242494444454e00000000000000604482015290519081900360640190fd5b606a80546001600160a01b0319166001600160a01b0392909216919091179055565b606f8181548110610d8d57fe5b6069546001600160a01b03163314610f455760408051600160e51b62461bcd02815260206004820152600e60248201527f5669613a20464f5242494444454e000000000000000000000000000000000000604482015290519081900360640190fd5b80600160c81b6669737375696e67021415610f9857610f63826124aa565b6001600160a01b038416600090815260686020526040902080546001600160801b03191660809290921c9190911790556110a1565b80600160c81b6674726164696e67021415610ff257610fb6826124aa565b6001600160a01b0384166000908152606860205260409020805460809290921c600160801b026001600160801b039092169190911790556110a1565b80600160b01b6972656d697474616e636502141561104857611013826124aa565b6001600160a01b038416600090815260676020526040902080546001600160801b03191660809290921c9190911790556110a1565b80600160b11b693932b232b6b83a34b7b70214156110a157611069826124aa565b6001600160a01b0384166000908152606760205260409020805460809290921c600160801b026001600160801b039092169190911790555b505050565b606b546001600160a01b031690565b6001600160a01b03166000908152606e602052604090206001015490565b60006110e28585858533612376565b95945050505050565b60009081526072602052604090205460801b90565b6001600160a01b0381166000908152606e60205260409020600181015490545b915091565b606e602052600090815260409020805460019091015482565b611146611756565b61119a5760408051600160e51b62461bcd02815260206004820181905260248201527f4f776e61626c653a2063616c6c6572206973206e6f7420746865206f776e6572604482015290519081900360640190fd5b6034546040516000916001600160a01b0316907f8be0079c531659141344cd1fd0a4f28419497f9722a3daafe3b4186f6b6457e0908390a3603480546001600160a01b0319169055565b606f5490565b336000908152606e6020526040812054600160cb1b660acd2c286c2e6d02148061122f5750336000908152606e6020526040902054600160ca1b66159a58509bdb9902145b6112835760408051600160e51b62461bcd02815260206004820152601860248201527f476574207472656173757279203a20464f5242494444454e0000000000000000604482015290519081900360640190fd5b6000805b6073548110156112d057836001600160a01b0316607382815481106112a857fe5b6000918252602090912001546001600160a01b031614156112c8576112d0565b600101611287565b5092915050565b600154610100900460ff16806112f057506112f0612516565b806112fe575060015460ff16155b61133c57604051600160e51b62461bcd02815260040180806020018281038252602e815260200180613191602e913960400191505060405180910390fd5b600154610100900460ff16158015611366576001805460ff1961ff00199091166101001716811790555b61136f33611c5a565b60698054336001600160a01b03199182168117909255607380546001810182556000919091527ff79bde9ddd17963ebce6f7d021d60de7c2bd0db944d23c900c0c0e775f530052018054821683179055606a8054909116909117905580156113dd576001805461ff00191690555b50565b6000806113ed848461251c565b600054604080516001600160f81b031960208083019190915230606090811b602184015260358301959095526055808301949094528251808303909401845260759091019091528151910120811b901c949350505050565b6069546001600160a01b031633146114a75760408051600160e51b62461bcd02815260206004820152601660248201527f53657420636c69656e74203a20464f5242494444454e00000000000000000000604482015290519081900360640190fd5b606b80546001600160a01b0319166001600160a01b0392909216919091179055565b606c80546001600160a01b038086166001600160a01b0319909216821790925560408051602481018a9052604481018890523060648201819052608482019390935285841660a482015292841660c4808501919091528151808503909101815260e490930190526020820180516001600160e01b0316600160e21b632274a7130217905290600061155a8a83611a1a565b9050806001600160a01b03167fc86ce51250387b92cfaa914f7afcac92982a98daa3e1b3dd6be12f8be38af5988a8a604051808381526020018281526020019250505060405180910390a287600160e31b63086c2e6d02141561167257604080518082018252600160cb1b660acd2c286c2e6d02815260208082018a81526001600160a01b0385166000818152606e8452858120945185559151600194850155606f805494850190557f39f2babe526038520877fc7c33d81accf578af4a06c5fa6b0d038cae36e1271190930180546001600160a01b031990811685179091558b82527fbdae3fc7d888ee692562177cbd471a2505f485c5696dec5fe2a559a4f40c6d1590925292909220805490921617905561173b565b87600160e21b63109bdb9902141561173b57604080518082018252600160ca1b66159a58509bdb9902815260208082018a81526001600160a01b0385166000818152606e8452858120945185559151600194850155606f805494850190557f39f2babe526038520877fc7c33d81accf578af4a06c5fa6b0d038cae36e1271190930180546001600160a01b031990811685179091558b82527f7a956ebbc94fd8ed60e61daf47945675a05a06e4b6f354f2d7baa5bba343f6849092529290922080549092161790555b50505050505050505050565b6034546001600160a01b031690565b6034546000906001600160a01b031661176d612555565b6001600160a01b031614905090565b6069546001600160a01b031633146117de5760408051600160e51b62461bcd02815260206004820152601c60248201527f5365742066656520746f207365747465723a20464f5242494444454e00000000604482015290519081900360640190fd5b606980546001600160a01b0319166001600160a01b0392909216919091179055565b6069546001600160a01b031633146118625760408051600160e51b62461bcd02815260206004820152601660248201527f536574206d617267696e203a20464f5242494444454e00000000000000000000604482015290519081900360640190fd5b61186b826124aa565b60009182526072602052604090912080546001600160801b03191660809290921c91909117905550565b336000908152606e6020526040812054600160ca1b66159a58509bdb9902146118bd57600080fd5b604080516024810185905233604482015260648082018590528251808303909101815260849091019091526020810180516001600160e01b0316600160e01b6397d3becb0217905260006119118683611a1a565b60408051878152600160ca1b66159a58509bdb9902602082015281519293506001600160a01b038416927f59bcd02033e203f8af464062ce742d11a3358b7b8fd7e996b91d74bee929d7e5929181900390910190a26040805180820182527f566961426f6e64546f6b656e0000000000000000000000000000000000000000815260208082018781526001600160a01b0385166000818152606e8452858120945185559151600194850155606f805494850190557f39f2babe526038520877fc7c33d81accf578af4a06c5fa6b0d038cae36e1271190930180546001600160a01b0319908116851790915588825260709092529290922080549092161790559150509392505050565b6000808360601b90506040517f3d602d80600a3d3981f3363d3d373d3d3d363d7300000000000000000000000081528160148201527f5af43d82803e903d91602b57fd5bf3000000000000000000000000000000000060288201526037816000f0604080516001600160a01b038316815290519194507efffc2da0b561cae30d9826d37709e9421c4725faebc226cbbb7ef5fc5e7349925081900360200190a18251156112d0576000826001600160a01b0316846040518082805190602001908083835b60208310611afd5780518252601f199092019160209182019101611ade565b6001836020036101000a0380198251168184511680821785525050505050509050019150506000604051808303816000865af19150503d8060008114611b5f576040519150601f19603f3d011682016040523d82523d6000602084013e611b64565b606091505b5050905080611b7257600080fd5b505092915050565b60008080805b606f54811015611bd75784606e6000606f8481548110611b9c57fe5b60009182526020808320909101546001600160a01b031683528201929092526040019020600101541415611bcf57611bd7565b600101611b80565b8115611c4b57606f8181548110611bea57fe5b9060005260206000200160009054906101000a90046001600160a01b0316606e6000606f8481548110611c1957fe5b60009182526020808320909101546001600160a01b031683528201929092526040019020549094509250611120915050565b50600092508291506111209050565b600154610100900460ff1680611c735750611c73612516565b80611c81575060015460ff16155b611cbf57604051600160e51b62461bcd02815260040180806020018281038252602e815260200180613191602e913960400191505060405180910390fd5b600154610100900460ff16158015611ce9576001805460ff1961ff00199091166101001716811790555b603480546001600160a01b0319166001600160a01b0384811691909117918290556040519116906000907f8be0079c531659141344cd1fd0a4f28419497f9722a3daafe3b4186f6b6457e0908290a38015611d4a576001805461ff00191690555b5050565b336000908152606e6020526040812054600160cb1b660acd2c286c2e6d021480611d935750336000908152606e6020526040902054600160ca1b66159a58509bdb9902145b611de75760408051600160e51b62461bcd02815260206004820152601960248201527f47657420637573746f6469616e203a20464f5242494444454e00000000000000604482015290519081900360640190fd5b50606a546001600160a01b031690565b6000606f8281548110611e0657fe5b6000918252602090912001546001600160a01b031692915050565b600081600160c81b6669737375696e67021415611e5157503360009081526068602052604090205460801b610d7b565b81600160c81b6674726164696e67021415611e86575033600090815260686020526040902054600160801b900460801b610d7b565b81600160b01b6972656d697474616e6365021415611eb757503360009081526067602052604090205460801b610d7b565b81600160b11b693932b232b6b83a34b7b7021415610d7b575033600090815260676020526040902054600160801b900460801b610d7b565b6069546001600160a01b03163314611f3b57604051600160e51b62461bcd02815260040180806020018281038252602781526020018061316a6027913960400191505060405180910390fd5b6110a1606d83836126f8565b6069546001600160a01b03163314611fa95760408051600160e51b62461bcd02815260206004820152601860248201527f536574207472656173757279203a20464f5242494444454e0000000000000000604482015290519081900360640190fd5b6000805b607354811015611ff657826001600160a01b031660738281548110611fce57fe5b6000918252602090912001546001600160a01b03161415611fee57611ff6565b600101611fad565b816110a157607380546001810182556000919091527ff79bde9ddd17963ebce6f7d021d60de7c2bd0db944d23c900c0c0e775f5300520180546001600160a01b0385166001600160a01b0319909116179055505050565b612055611756565b6120a95760408051600160e51b62461bcd02815260206004820181905260248201527f4f776e61626c653a2063616c6c6572206973206e6f7420746865206f776e6572604482015290519081900360640190fd5b6113dd81612559565b6000805b606f548110156112d05783606e6000606f84815481106120d257fe5b60009182526020808320909101546001600160a01b0316835282019290925260400190206001015414801561213b575082606e6000606f848154811061211457fe5b60009182526020808320909101546001600160a01b03168352820192909252604001902054145b1561216b57606f818154811061214d57fe5b6000918252602090912001546001600160a01b03169150610cdf9050565b6001016120b6565b6001600160a01b03166000908152606e602052604090205490565b336000908152606e6020526040812054600160cb1b660acd2c286c2e6d0214806121d35750336000908152606e6020526040902054600160ca1b66159a58509bdb9902145b6122275760408051600160e51b62461bcd02815260206004820152601a60248201527f4765742066656520736574746572203a20464f5242494444454e000000000000604482015290519081900360640190fd5b506069546001600160a01b031690565b604080517f19457468657265756d205369676e6564204d6573736167653a0a333200000000602080830191909152603c8083019490945282518083039094018452605c909101909152815191012090565b6000815160411461229b57506000610cdf565b60208201516040830151606084015160001a7f7fffffffffffffffffffffffffffffff5d576e7357a4501ddfe92f46681b20a08211156122e15760009350505050610cdf565b8060ff16601b141580156122f957508060ff16601c14155b1561230a5760009350505050610cdf565b6040805160008152602080820180845289905260ff8416828401526060820186905260808201859052915160019260a0808401939192601f1981019281900390910190855afa158015612361573d6000803e3d6000fd5b5050604051601f190151979650505050505050565b60008061238387846125fd565b604080516001600160a01b038316815290519192507efffc2da0b561cae30d9826d37709e9421c4725faebc226cbbb7ef5fc5e7349919081900360200190a1604051600160e01b63cf7a1d770281526001600160a01b038781166004830190815287821660248401526060604484019081528751606485015287519285169363cf7a1d77938b938b938b939192909160840190602085019080838360005b83811015612439578181015183820152602001612421565b50505050905090810190601f1680156124665780820380516001836020036101000a031916815260200191505b50945050505050600060405180830381600087803b15801561248757600080fd5b505af115801561249b573d6000803e3d6000fd5b50929998505050505050505050565b6000816124b957506000610d7b565b8160006124c582612656565b905060708110156124de578060700382901b91506124f1565b60708111156124f1576070810382901c91505b613fff0160701b6dffffffffffffffffffffffffffff919091161760801b9050610d7b565b303b1590565b604080516020808201949094526001600160a01b039290921660601b828201528051808303603401815260549092019052805191012090565b3390565b6001600160a01b0381166125a157604051600160e51b62461bcd0281526004018080602001828103825260268152602001806131446026913960400191505060405180910390fd5b6034546040516001600160a01b038084169216907f8be0079c531659141344cd1fd0a4f28419497f9722a3daafe3b4186f6b6457e090600090a3603480546001600160a01b0319166001600160a01b0392909216919091179055565b60008060606040518060200161261290612776565b601f1982820381018352601f9091011660405290506000612633868661251c565b9050808251602084016000f59250823b61264c57600080fd5b5090949350505050565b600080821161266457600080fd5b6000600160801b831061267957608092831c92015b68010000000000000000831061269157604092831c92015b600160201b83106126a457602092831c92015b6201000083106126b657601092831c92015b61010083106126c757600892831c92015b601083106126d757600492831c92015b600483106126e757600292831c92015b60028310610cdf5760010192915050565b828054600181600116156101000203166002900490600052602060002090601f016020900481019282601f106127395782800160ff19823516178555612766565b82800160010185558215612766579182015b8281111561276657823582559160200191906001019061274b565b50612772929150612783565b5090565b6109a68061279e83390190565b610e4f91905b80821115612772576000815560010161278956fe608060405234801561001057600080fd5b50610986806100206000396000f3fe6080604052600436106100705760003560e01c80638f2839701161004e5780638f2839701461015e578063cf7a1d7714610191578063d1f5789414610250578063f851a4401461030657610070565b80633659cfe61461007a5780634f1ef286146100ad5780635c60da1b1461012d575b61007861031b565b005b34801561008657600080fd5b506100786004803603602081101561009d57600080fd5b50356001600160a01b0316610335565b610078600480360360408110156100c357600080fd5b6001600160a01b0382351691908101906040810160208201356401000000008111156100ee57600080fd5b82018360208201111561010057600080fd5b8035906020019184600183028401116401000000008311171561012257600080fd5b50909250905061036f565b34801561013957600080fd5b5061014261041c565b604080516001600160a01b039092168252519081900360200190f35b34801561016a57600080fd5b506100786004803603602081101561018157600080fd5b50356001600160a01b0316610459565b610078600480360360608110156101a757600080fd5b6001600160a01b0382358116926020810135909116918101906060810160408201356401000000008111156101db57600080fd5b8201836020820111156101ed57600080fd5b8035906020019184600183028401116401000000008311171561020f57600080fd5b91908080601f016020809104026020016040519081016040528093929190818152602001838380828437600092019190915250929550610516945050505050565b6100786004803603604081101561026657600080fd5b6001600160a01b03823516919081019060408101602082013564010000000081111561029157600080fd5b8201836020820111156102a357600080fd5b803590602001918460018302840111640100000000831117156102c557600080fd5b91908080601f0160208091040260200160405190810160405280939291908181526020018383808284376000920191909152509295506105a6945050505050565b34801561031257600080fd5b506101426106e6565b610323610711565b61033361032e610774565b610799565b565b61033d6107bd565b6001600160a01b0316336001600160a01b031614156103645761035f816107e2565b61036c565b61036c61031b565b50565b6103776107bd565b6001600160a01b0316336001600160a01b0316141561040f57610399836107e2565b6000836001600160a01b031683836040518083838082843760405192019450600093509091505080830381855af49150503d80600081146103f6576040519150601f19603f3d011682016040523d82523d6000602084013e6103fb565b606091505b505090508061040957600080fd5b50610417565b61041761031b565b505050565b60006104266107bd565b6001600160a01b0316336001600160a01b0316141561044e57610447610774565b9050610456565b61045661031b565b90565b6104616107bd565b6001600160a01b0316336001600160a01b03161415610364576001600160a01b0381166104c257604051600160e51b62461bcd0281526004018080602001828103825260368152602001806108ea6036913960400191505060405180910390fd5b7f7e644d79422f17c01e4894b5f4f588d331ebfa28653d42ae832dc59e38c9798f6104eb6107bd565b604080516001600160a01b03928316815291841660208301528051918290030190a161035f81610822565b6000610520610774565b6001600160a01b03161461053357600080fd5b61053d83826105a6565b604080517f656970313936372e70726f78792e61646d696e00000000000000000000000000815290519081900360130190207fb53127684a568b3173ae13b9f8a6016e243e63b6e8ee1178d6a717850b5d61036000199091011461059d57fe5b61041782610822565b60006105b0610774565b6001600160a01b0316146105c357600080fd5b604080517f656970313936372e70726f78792e696d706c656d656e746174696f6e000000008152905190819003601c0190207f360894a13ba1a3210667c828492db98dca3e2076cc3735a920a3ca505d382bbc6000199091011461062357fe5b61062c82610846565b8051156106e2576000826001600160a01b0316826040518082805190602001908083835b6020831061066f5780518252601f199092019160209182019101610650565b6001836020036101000a038019825116818451168082178552505050505050905001915050600060405180830381855af49150503d80600081146106cf576040519150601f19603f3d011682016040523d82523d6000602084013e6106d4565b606091505b505090508061041757600080fd5b5050565b60006106f06107bd565b6001600160a01b0316336001600160a01b0316141561044e576104476107bd565b6107196107bd565b6001600160a01b0316336001600160a01b0316141561076c57604051600160e51b62461bcd0281526004018080602001828103825260328152602001806108b86032913960400191505060405180910390fd5b610333610333565b7f360894a13ba1a3210667c828492db98dca3e2076cc3735a920a3ca505d382bbc5490565b3660008037600080366000845af43d6000803e8080156107b8573d6000f35b3d6000fd5b7fb53127684a568b3173ae13b9f8a6016e243e63b6e8ee1178d6a717850b5d61035490565b6107eb81610846565b6040516001600160a01b038216907fbc7cd75a20ee27fd9adebab32041f755214dbc6bffa90cc0225b39da2e5c2d3b90600090a250565b7fb53127684a568b3173ae13b9f8a6016e243e63b6e8ee1178d6a717850b5d610355565b61084f816108b1565b61088d57604051600160e51b62461bcd02815260040180806020018281038252603b815260200180610920603b913960400191505060405180910390fd5b7f360894a13ba1a3210667c828492db98dca3e2076cc3735a920a3ca505d382bbc55565b3b15159056fe43616e6e6f742063616c6c2066616c6c6261636b2066756e6374696f6e2066726f6d207468652070726f78792061646d696e43616e6e6f74206368616e6765207468652061646d696e206f6620612070726f787920746f20746865207a65726f206164647265737343616e6e6f742073657420612070726f787920696d706c656d656e746174696f6e20746f2061206e6f6e2d636f6e74726163742061646472657373a165627a7a72305820685006f326a7767878943f26cbcce642f01387e8680b674352be85d65bc10a7700294f776e61626c653a206e6577206f776e657220697320746865207a65726f2061646472657373464f5242494444454e203a2053657474696e67205665726966696564206f7261636c652075726c436f6e747261637420696e7374616e63652068617320616c7265616479206265656e20696e697469616c697a6564a165627a7a723058204c536d8a18d6e65936344f9077b0ad30d5f9513e420c11910ac92b09033e7e290029608060405234801561001057600080fd5b50610986806100206000396000f3fe6080604052600436106100705760003560e01c80638f2839701161004e5780638f2839701461015e578063cf7a1d7714610191578063d1f5789414610250578063f851a4401461030657610070565b80633659cfe61461007a5780634f1ef286146100ad5780635c60da1b1461012d575b61007861031b565b005b34801561008657600080fd5b506100786004803603602081101561009d57600080fd5b50356001600160a01b0316610335565b610078600480360360408110156100c357600080fd5b6001600160a01b0382351691908101906040810160208201356401000000008111156100ee57600080fd5b82018360208201111561010057600080fd5b8035906020019184600183028401116401000000008311171561012257600080fd5b50909250905061036f565b34801561013957600080fd5b5061014261041c565b604080516001600160a01b039092168252519081900360200190f35b34801561016a57600080fd5b506100786004803603602081101561018157600080fd5b50356001600160a01b0316610459565b610078600480360360608110156101a757600080fd5b6001600160a01b0382358116926020810135909116918101906060810160408201356401000000008111156101db57600080fd5b8201836020820111156101ed57600080fd5b8035906020019184600183028401116401000000008311171561020f57600080fd5b91908080601f016020809104026020016040519081016040528093929190818152602001838380828437600092019190915250929550610516945050505050565b6100786004803603604081101561026657600080fd5b6001600160a01b03823516919081019060408101602082013564010000000081111561029157600080fd5b8201836020820111156102a357600080fd5b803590602001918460018302840111640100000000831117156102c557600080fd5b91908080601f0160208091040260200160405190810160405280939291908181526020018383808284376000920191909152509295506105a6945050505050565b34801561031257600080fd5b506101426106e6565b610323610711565b61033361032e610774565b610799565b565b61033d6107bd565b6001600160a01b0316336001600160a01b031614156103645761035f816107e2565b61036c565b61036c61031b565b50565b6103776107bd565b6001600160a01b0316336001600160a01b0316141561040f57610399836107e2565b6000836001600160a01b031683836040518083838082843760405192019450600093509091505080830381855af49150503d80600081146103f6576040519150601f19603f3d011682016040523d82523d6000602084013e6103fb565b606091505b505090508061040957600080fd5b50610417565b61041761031b565b505050565b60006104266107bd565b6001600160a01b0316336001600160a01b0316141561044e57610447610774565b9050610456565b61045661031b565b90565b6104616107bd565b6001600160a01b0316336001600160a01b03161415610364576001600160a01b0381166104c257604051600160e51b62461bcd0281526004018080602001828103825260368152602001806108ea6036913960400191505060405180910390fd5b7f7e644d79422f17c01e4894b5f4f588d331ebfa28653d42ae832dc59e38c9798f6104eb6107bd565b604080516001600160a01b03928316815291841660208301528051918290030190a161035f81610822565b6000610520610774565b6001600160a01b03161461053357600080fd5b61053d83826105a6565b604080517f656970313936372e70726f78792e61646d696e00000000000000000000000000815290519081900360130190207fb53127684a568b3173ae13b9f8a6016e243e63b6e8ee1178d6a717850b5d61036000199091011461059d57fe5b61041782610822565b60006105b0610774565b6001600160a01b0316146105c357600080fd5b604080517f656970313936372e70726f78792e696d706c656d656e746174696f6e000000008152905190819003601c0190207f360894a13ba1a3210667c828492db98dca3e2076cc3735a920a3ca505d382bbc6000199091011461062357fe5b61062c82610846565b8051156106e2576000826001600160a01b0316826040518082805190602001908083835b6020831061066f5780518252601f199092019160209182019101610650565b6001836020036101000a038019825116818451168082178552505050505050905001915050600060405180830381855af49150503d80600081146106cf576040519150601f19603f3d011682016040523d82523d6000602084013e6106d4565b606091505b505090508061041757600080fd5b5050565b60006106f06107bd565b6001600160a01b0316336001600160a01b0316141561044e576104476107bd565b6107196107bd565b6001600160a01b0316336001600160a01b0316141561076c57604051600160e51b62461bcd0281526004018080602001828103825260328152602001806108b86032913960400191505060405180910390fd5b610333610333565b7f360894a13ba1a3210667c828492db98dca3e2076cc3735a920a3ca505d382bbc5490565b3660008037600080366000845af43d6000803e8080156107b8573d6000f35b3d6000fd5b7fb53127684a568b3173ae13b9f8a6016e243e63b6e8ee1178d6a717850b5d61035490565b6107eb81610846565b6040516001600160a01b038216907fbc7cd75a20ee27fd9adebab32041f755214dbc6bffa90cc0225b39da2e5c2d3b90600090a250565b7fb53127684a568b3173ae13b9f8a6016e243e63b6e8ee1178d6a717850b5d610355565b61084f816108b1565b61088d57604051600160e51b62461bcd02815260040180806020018281038252603b815260200180610920603b913960400191505060405180910390fd5b7f360894a13ba1a3210667c828492db98dca3e2076cc3735a920a3ca505d382bbc55565b3b15159056fe43616e6e6f742063616c6c2066616c6c6261636b2066756e6374696f6e2066726f6d207468652070726f78792061646d696e43616e6e6f74206368616e6765207468652061646d696e206f6620612070726f787920746f20746865207a65726f206164647265737343616e6e6f742073657420612070726f787920696d706c656d656e746174696f6e20746f2061206e6f6e2d636f6e74726163742061646472657373a165627a7a72305820685006f326a7767878943f26cbcce642f01387e8680b674352be85d65bc10a770029",
  "source": "// (c) Kallol Borah, 2020\r\n// Implementation of the Via cash and bond factory\r\n// SPDX-License-Identifier: MIT\r\n\r\npragma solidity 0.5.7;\r\n\r\nimport \"./interfaces/ViaFactory.sol\";\r\nimport \"./interfaces/ViaToken.sol\";\r\nimport \"./interfaces/ViaBond.sol\";\r\nimport \"abdk-libraries-solidity/ABDKMathQuad.sol\";\r\nimport \"@openzeppelin/upgrades/contracts/Initializable.sol\";\r\nimport \"@openzeppelin/upgrades/contracts/upgradeability/ProxyFactory.sol\";\r\nimport \"@openzeppelin/contracts-ethereum-package/contracts/ownership/Ownable.sol\";\r\n\r\ncontract Factory is ViaFactory, ProxyFactory, Initializable, Ownable {\r\n\r\n    using ABDKMathQuad for uint256;\r\n    using ABDKMathQuad for int256;\r\n    using ABDKMathQuad for bytes16;\r\n\r\n    //data structure for token proxies\r\n    struct via{\r\n        bytes32 tokenType;\r\n        bytes32 name;        \r\n    }\r\n\r\n    //fee structure for payments\r\n    struct payments{\r\n        bytes16 remittance;\r\n        bytes16 redemption;\r\n    }\r\n\r\n    mapping(address => payments) private paymentFees;\r\n\r\n    //fee structure for bond issuing\r\n    struct issues{\r\n        bytes16 issuing;\r\n        bytes16 trading;\r\n    }\r\n\r\n    mapping(address => issues) private issuingFees;\r\n\r\n    //address of who gets Via fees\r\n    address feeToSetter;\r\n\r\n    //address of custodian\r\n    address custodian;\r\n\r\n    //address of client contract\r\n    address client;\r\n\r\n    //Via oracle url address\r\n    address ViaOracle;\r\n    string ViaOracleUrl;\r\n\r\n    //addresses of all Via proxies\r\n    mapping(address => via) public token;\r\n\r\n    address[] public tokens;\r\n\r\n    //list of issued token products\r\n    mapping(bytes32 => address) products;\r\n\r\n    //list of token product issuers\r\n    mapping(bytes32 => mapping(bytes32 => address)) issuers;\r\n\r\n    //list of assets and their margins\r\n    mapping(bytes32 => bytes16) assets;\r\n\r\n    //list of treasury managers\r\n    address[] public managers;\r\n\r\n    event IssuerCreated(address indexed _address, bytes32 tokenName, bytes32 tokenType);\r\n    event TokenCreated(address indexed _address, bytes32 tokenName, bytes32 tokenType);\r\n\r\n    function initialize() public initializer{\r\n        Ownable.initialize(msg.sender);\r\n        feeToSetter = msg.sender;\r\n        managers.push(msg.sender);\r\n        custodian = msg.sender;\r\n    }\r\n\r\n    function getTokenCount() external view returns(uint tokenCount) {\r\n        return tokens.length;\r\n    }\r\n\r\n    function getToken(uint256 n) external view returns(address){\r\n        return tokens[n];\r\n    }\r\n\r\n    function getName(address viaAddress) external view returns(bytes32) {\r\n        return token[viaAddress].name;\r\n    }\r\n\r\n    function getType(address viaAddress) external view returns(bytes32) {\r\n        return token[viaAddress].tokenType;\r\n    }\r\n\r\n    //get margin for asset \r\n    function getMargin(bytes32 asset) external view returns(bytes16) {\r\n        return assets[asset];\r\n    }\r\n\r\n    function getNameAndType(address viaAddress) external view returns(bytes32, bytes32){\r\n        return (token[viaAddress].name, token[viaAddress].tokenType);\r\n    }\r\n\r\n    function getTokenByNameType(bytes32 tokenName, bytes32 tokenType) external view returns(address){\r\n        for(uint256 q=0; q<tokens.length; q++){\r\n            if(token[tokens[q]].name == tokenName && token[tokens[q]].tokenType == tokenType)\r\n                return tokens[q];\r\n        }\r\n    }\r\n\r\n    //retrieve token product address for given identifier (symbol)\r\n    function getProduct(bytes32 symbol) external view returns(address){\r\n        return products[symbol];\r\n    }\r\n\r\n    //retrieve token product issuer address for given token name and type\r\n    function getIssuer(bytes32 tokenType, bytes32 tokenName) external view returns(address){\r\n        return issuers[tokenType][tokenName];\r\n    }\r\n\r\n    //retrieves address and type of token for name specified\r\n    function getAddressAndType(bytes32 tokenName) external view returns (address, bytes32){\r\n        bool found = false;\r\n        uint256 i=0;\r\n        for(i=0; i<tokens.length; i++){\r\n            if(token[tokens[i]].name==tokenName){\r\n                found == true;\r\n                break;\r\n            }\r\n        }\r\n        if(found)\r\n            return (tokens[i], token[tokens[i]].tokenType);\r\n        else\r\n            return (address(0x0), \"\");\r\n    }\r\n\r\n    //get fee for different services\r\n    function getFee(bytes32 feeType) external view returns(bytes16){\r\n        if(feeType==\"issuing\"){\r\n            return (issuingFees[msg.sender].issuing);\r\n        }\r\n        else if(feeType==\"trading\"){\r\n            return (issuingFees[msg.sender].trading);\r\n        }\r\n        else if(feeType==\"remittance\"){\r\n            return (paymentFees[msg.sender].remittance);\r\n        }\r\n        else if(feeType==\"redemption\"){\r\n            return (paymentFees[msg.sender].redemption);\r\n        }\r\n    }\r\n\r\n    //gets address to which fee income has to be transferred\r\n    function getFeeToSetter() external view returns(address){\r\n        require(token[msg.sender].tokenType == \"ViaCash\" || token[msg.sender].tokenType == \"ViaBond\", 'Get fee setter : FORBIDDEN');\r\n        return feeToSetter;\r\n    }\r\n\r\n    //verifies if sender (who requests issue of cash tokens against fiat / bond tokens against non-ether assets) is a treasurer\r\n    function getTreasury(address sender) external view returns(bool){\r\n        require(token[msg.sender].tokenType == \"ViaCash\" || token[msg.sender].tokenType == \"ViaBond\", 'Get treasury : FORBIDDEN');\r\n        bool found = false;\r\n        uint256 i=0;\r\n        for(i=0; i<managers.length; i++){\r\n            if(managers[i]==sender){\r\n                found == true;\r\n                break;\r\n            }\r\n        }\r\n        return found;\r\n    }\r\n\r\n    //get Custodian address for transferring (backing up) assets\r\n    function getCustodian() external view returns(address){\r\n        require(token[msg.sender].tokenType == \"ViaCash\" || token[msg.sender].tokenType == \"ViaBond\", 'Get custodian : FORBIDDEN');\r\n        return custodian;\r\n    }\r\n\r\n    //get Verified client address for AML check\r\n    function getClient() external view returns(address){\r\n        //require(token[msg.sender].tokenType == \"ViaCash\" || token[msg.sender].tokenType == \"ViaBond\", 'Get client : FORBIDDEN');\r\n        return client;\r\n    }\r\n\r\n    function getViaOracleUrl() external view returns(string memory){\r\n        require(msg.sender == ViaOracle);\r\n        return ViaOracleUrl;\r\n    }\r\n\r\n    //token issuer factory \r\n    function createIssuer(address _target, bytes32 tokenName, bytes32 tokenType, bytes32 tokenCurrency, address _oracle, address _token, address _fee) external{\r\n        address _owner = address(this);\r\n        ViaOracle = _oracle;\r\n        bytes memory _payload = abi.encodeWithSignature(\"initialize(bytes32,bytes32,address,address,address,address)\", tokenName, tokenCurrency, _owner, _oracle, _token, _fee);\r\n\r\n        // Deploy proxy\r\n        address _issuer = deployMinimal(_target, _payload);\r\n        emit IssuerCreated(_issuer, tokenName, tokenType);\r\n\r\n        if(tokenType == \"Cash\"){\r\n                token[_issuer] = via(\"ViaCash\", tokenCurrency);\r\n                tokens.push(_issuer);\r\n                issuers[\"ViaCash\"][tokenCurrency] = _issuer;\r\n        }\r\n        else if(tokenType == \"Bond\"){\r\n                token[_issuer] = via(\"ViaBond\", tokenCurrency);\r\n                tokens.push(_issuer);\r\n                issuers[\"ViaBond\"][tokenCurrency] = _issuer;\r\n        }\r\n    }\r\n    \r\n    //token factory\r\n    function createToken(address _target, bytes32 tokenName, bytes32 tokenSymbol) external returns(address){\r\n        require(token[msg.sender].tokenType == \"ViaBond\");\r\n\r\n        bytes memory _payload = abi.encodeWithSignature(\"initialize(bytes32,address,bytes32)\", tokenName, msg.sender, tokenSymbol);\r\n\r\n        // Deploy proxy\r\n        address _token = deployMinimal(_target, _payload);\r\n        emit TokenCreated(_token, tokenName, \"ViaBond\");\r\n        \r\n        token[_token] = via(\"ViaBondToken\", tokenSymbol);\r\n        tokens.push(_token);\r\n        products[tokenSymbol] = _token;       \r\n        \r\n        return _token;\r\n    }\r\n\r\n    function setFeeTo(address feeTo, uint256 fee, bytes32 feeType) external {\r\n        require(msg.sender == feeToSetter, 'Via: FORBIDDEN');\r\n        if(feeType==\"issuing\"){\r\n            issuingFees[feeTo].issuing = ABDKMathQuad.fromUInt(fee);\r\n        }\r\n        else if(feeType==\"trading\"){\r\n            issuingFees[feeTo].trading = ABDKMathQuad.fromUInt(fee);\r\n        }\r\n        else if(feeType==\"remittance\"){\r\n            paymentFees[feeTo].remittance = ABDKMathQuad.fromUInt(fee);\r\n        }\r\n        else if(feeType==\"redemption\"){\r\n            paymentFees[feeTo].redemption = ABDKMathQuad.fromUInt(fee);\r\n        }\r\n    }\r\n\r\n    function setFeeToSetter(address _feeToSetter) external {\r\n        require(msg.sender == feeToSetter, 'Set fee to setter: FORBIDDEN');\r\n        feeToSetter = _feeToSetter;\r\n    }\r\n\r\n    function setViaOracleUrl(string calldata _url) external {\r\n        require(msg.sender == feeToSetter, 'FORBIDDEN : Setting Verified oracle url');\r\n        ViaOracleUrl = _url;\r\n    }\r\n\r\n    function setMargin(uint256 _margin, bytes32 _asset) external {\r\n        require(msg.sender == feeToSetter, 'Set margin : FORBIDDEN');\r\n        assets[_asset] = ABDKMathQuad.fromUInt(_margin);\r\n    }\r\n\r\n    function setTreasury(address _treasury) external {\r\n        require(msg.sender == feeToSetter, 'Set treasury : FORBIDDEN');\r\n        bool found = false;\r\n        uint256 i=0;\r\n        for(i=0; i<managers.length; i++){\r\n            if(managers[i]==_treasury){\r\n                found == true;\r\n                break;\r\n            }\r\n        }\r\n        if(!found)\r\n            managers.push(_treasury);\r\n    }\r\n\r\n    function setCustodian(address _custodian) external {\r\n        require(msg.sender == feeToSetter, 'Set custodian : FORBIDDEN');\r\n        custodian = _custodian;\r\n    }\r\n\r\n    function setClient(address _client) external {\r\n        require(msg.sender == feeToSetter, 'Set client : FORBIDDEN');\r\n        client = _client;\r\n    }\r\n\r\n}\r\n\r\n\r\n\r\n\r\n\r\n\r\n",
  "sourcePath": "D:/Code/verified-payments/contracts/Factory.sol",
  "compiler": {
    "name": "solc",
    "version": "0.5.7+commit.6da8b019.Emscripten.clang"
  },
  "schemaVersion": "3.3.3",
  "updatedAt": "2021-07-02T10:42:17.361Z",
  "networkType": "ethereum",
  "devdoc": {
    "methods": {
      "initialize(address)": {
        "details": "Initializes the contract setting the deployer as the initial owner.\r"
      },
      "isOwner()": {
        "details": "Returns true if the caller is the current owner.\r"
      },
      "owner()": {
        "details": "Returns the address of the current owner.\r"
      },
      "renounceOwnership()": {
        "details": "Leaves the contract without owner. It will not be possible to call\r `onlyOwner` functions anymore. Can only be called by the current owner.\r      * > Note: Renouncing ownership will leave the contract without an owner,\r thereby removing any functionality that is only available to the owner.\r"
      },
      "transferOwnership(address)": {
        "details": "Transfers ownership of the contract to a new account (`newOwner`).\r Can only be called by the current owner.\r"
      }
    }
  },
  "userdoc": {
    "methods": {}
  }
}