{
  "contractName": "Fees",
  "abi": [
    {
      "constant": false,
      "inputs": [
        {
          "name": "_factory",
          "type": "address"
        }
      ],
      "name": "initialize",
      "outputs": [],
      "payable": false,
      "stateMutability": "nonpayable",
      "type": "function"
    },
    {
      "constant": false,
      "inputs": [
        {
          "name": "value",
          "type": "bytes16"
        }
      ],
      "name": "payRedemptionFee",
      "outputs": [
        {
          "name": "",
          "type": "bytes16"
        }
      ],
      "payable": false,
      "stateMutability": "nonpayable",
      "type": "function"
    },
    {
      "constant": false,
      "inputs": [
        {
          "name": "percent",
          "type": "uint256"
        },
        {
          "name": "transferFrom",
          "type": "address"
        }
      ],
      "name": "transferToCustody",
      "outputs": [
        {
          "name": "",
          "type": "bool"
        }
      ],
      "payable": false,
      "stateMutability": "nonpayable",
      "type": "function"
    },
    {
      "constant": false,
      "inputs": [
        {
          "name": "value",
          "type": "bytes16"
        }
      ],
      "name": "payIssuingFee",
      "outputs": [
        {
          "name": "",
          "type": "bytes16"
        }
      ],
      "payable": false,
      "stateMutability": "nonpayable",
      "type": "function"
    },
    {
      "constant": false,
      "inputs": [
        {
          "name": "value",
          "type": "bytes16"
        },
        {
          "name": "cashContract",
          "type": "address"
        }
      ],
      "name": "payTradingFee",
      "outputs": [
        {
          "name": "",
          "type": "bytes16"
        }
      ],
      "payable": false,
      "stateMutability": "nonpayable",
      "type": "function"
    },
    {
      "constant": false,
      "inputs": [
        {
          "name": "account",
          "type": "address"
        }
      ],
      "name": "amlCheck",
      "outputs": [
        {
          "name": "",
          "type": "bool"
        }
      ],
      "payable": false,
      "stateMutability": "nonpayable",
      "type": "function"
    }
  ],
  "bytecode": "0x608060405234801561001057600080fd5b50611642806100206000396000f3fe608060405234801561001057600080fd5b50600436106100625760003560e01c8063194b275c146100675780635ccdbb78146100a15780635eef4470146100cd5780637579943d14610111578063c4d66de814610138578063cbe59f7014610160575b600080fd5b61008d6004803603602081101561007d57600080fd5b50356001600160a01b0316610196565b604080519115158252519081900360200190f35b61008d600480360360408110156100b757600080fd5b50803590602001356001600160a01b03166103ff565b6100f4600480360360208110156100e357600080fd5b50356001600160801b031916610584565b604080516001600160801b03199092168252519081900360200190f35b6100f46004803603602081101561012757600080fd5b50356001600160801b031916610829565b61015e6004803603602081101561014e57600080fd5b50356001600160a01b03166109a6565b005b6100f46004803603604081101561017657600080fd5b5080356001600160801b03191690602001356001600160a01b0316610a7d565b60335460408051600160e01b63f429f19b02815233600482015290516000926001600160a01b03169163f429f19b916024808301926020929190829003018186803b1580156101e457600080fd5b505afa1580156101f8573d6000803e3d6000fd5b505050506040513d602081101561020e57600080fd5b5051600160cb1b660acd2c286c2e6d0214806102af575060335460408051600160e01b63f429f19b02815233600482015290516001600160a01b039092169163f429f19b91602480820192602092909190829003018186803b15801561027357600080fd5b505afa158015610287573d6000803e3d6000fd5b505050506040513d602081101561029d57600080fd5b5051600160ca1b66159a58509bdb9902145b6102b857600080fd5b6034546001600160a01b031661036d57603360009054906101000a90046001600160a01b03166001600160a01b03166359dc735c6040518163ffffffff1660e01b815260040160206040518083038186803b15801561031657600080fd5b505afa15801561032a573d6000803e3d6000fd5b505050506040513d602081101561034057600080fd5b5051603480546001600160a01b0319166001600160a01b0392831617908190551661036d575060016103fa565b60345460408051600160e01b633a2910330281526001600160a01b03858116600483015291519190921691633a291033916024808301926020929190829003018186803b1580156103bd57600080fd5b505afa1580156103d1573d6000803e3d6000fd5b505050506040513d60208110156103e757600080fd5b5051156103f6575060016103fa565b5060005b919050565b60335460408051600160e01b6378f212d102815233600482015290516000926001600160a01b0316916378f212d1916024808301926020929190829003018186803b15801561044d57600080fd5b505afa158015610461573d6000803e3d6000fd5b505050506040513d602081101561047757600080fd5b5051151560011461048757600080fd5b60335460408051600160e01b63c561d4b702815290516000926001600160a01b03169163c561d4b7916004808301926020929190829003018186803b1580156104cf57600080fd5b505afa1580156104e3573d6000803e3d6000fd5b505050506040513d60208110156104f957600080fd5b505190506001600160a01b0381161561057857806001600160a01b03166108fc610545610540610532876001600160a01b031631610d74565b61053b89610d74565b610dd9565b611075565b6040518115909202916000818181858888f1935050505015801561056d573d6000803e3d6000fd5b50600191505061057e565b60009150505b92915050565b60335460408051600160e01b63f429f19b02815233600482015290516000926001600160a01b03169163f429f19b916024808301926020929190829003018186803b1580156105d257600080fd5b505afa1580156105e6573d6000803e3d6000fd5b505050506040513d60208110156105fc57600080fd5b5051600160cb1b660acd2c286c2e6d02148061069d575060335460408051600160e01b63f429f19b02815233600482015290516001600160a01b039092169163f429f19b91602480820192602092909190829003018186803b15801561066157600080fd5b505afa158015610675573d6000803e3d6000fd5b505050506040513d602081101561068b57600080fd5b5051600160ca1b66159a58509bdb9902145b6106a657600080fd5b60335460408051600160e01b63e5f3d3a5028152600160b11b693932b232b6b83a34b7b702600482015290516000926001600160a01b03169163e5f3d3a5916024808301926020929190829003018186803b15801561070457600080fd5b505afa158015610718573d6000803e3d6000fd5b505050506040513d602081101561072e57600080fd5b50519050600061073d82611075565b156108225760335460408051600160e11b637a55098102815290516000926001600160a01b03169163f4aa1302916004808301926020929190829003018186803b15801561078a57600080fd5b505afa15801561079e573d6000803e3d6000fd5b505050506040513d60208110156107b457600080fd5b505190506001600160a01b0381161561082057806001600160a01b03166108fc6107e16105408689610dd9565b6040518115909202916000818181858888f19350505050158015610809573d6000803e3d6000fd5b5061081d856108188588610dd9565b61110e565b91505b505b9392505050565b60335460408051600160e01b63f429f19b02815233600482015290516000926001600160a01b03169163f429f19b916024808301926020929190829003018186803b15801561087757600080fd5b505afa15801561088b573d6000803e3d6000fd5b505050506040513d60208110156108a157600080fd5b5051600160cb1b660acd2c286c2e6d021480610942575060335460408051600160e01b63f429f19b02815233600482015290516001600160a01b039092169163f429f19b91602480820192602092909190829003018186803b15801561090657600080fd5b505afa15801561091a573d6000803e3d6000fd5b505050506040513d602081101561093057600080fd5b5051600160ca1b66159a58509bdb9902145b61094b57600080fd5b60335460408051600160e01b63e5f3d3a5028152600160c81b6669737375696e6702600482015290516000926001600160a01b03169163e5f3d3a5916024808301926020929190829003018186803b15801561070457600080fd5b600054610100900460ff16806109bf57506109bf611120565b806109cd575060005460ff16155b610a0b57604051600160e51b62461bcd02815260040180806020018281038252602e8152602001806115e9602e913960400191505060405180910390fd5b600054610100900460ff16158015610a36576000805460ff1961ff0019909116610100171660011790555b6033546001600160a01b031615610a4c57600080fd5b603380546001600160a01b0319166001600160a01b0384161790558015610a79576000805461ff00191690555b5050565b60335460408051600160e01b63f429f19b02815233600482015290516000926001600160a01b03169163f429f19b916024808301926020929190829003018186803b158015610acb57600080fd5b505afa158015610adf573d6000803e3d6000fd5b505050506040513d6020811015610af557600080fd5b5051600160cb1b660acd2c286c2e6d021480610b96575060335460408051600160e01b63f429f19b02815233600482015290516001600160a01b039092169163f429f19b91602480820192602092909190829003018186803b158015610b5a57600080fd5b505afa158015610b6e573d6000803e3d6000fd5b505050506040513d6020811015610b8457600080fd5b5051600160ca1b66159a58509bdb9902145b610b9f57600080fd5b60335460408051600160e01b63e5f3d3a5028152600160c81b6674726164696e6702600482015290516000926001600160a01b03169163e5f3d3a5916024808301926020929190829003018186803b158015610bfa57600080fd5b505afa158015610c0e573d6000803e3d6000fd5b505050506040513d6020811015610c2457600080fd5b505190506000610c3382611075565b15610d6c5760335460408051600160e11b637a55098102815290516000926001600160a01b03169163f4aa1302916004808301926020929190829003018186803b158015610c8057600080fd5b505afa158015610c94573d6000803e3d6000fd5b505050506040513d6020811015610caa57600080fd5b505190506001600160a01b03811615610d6a57846001600160a01b03166323b872dd8683610cdb610540888c610dd9565b6040805163ffffffff861660e01b81526001600160a01b0394851660048201529290931660248301526044820152905160648083019260209291908290030181600087803b158015610d2c57600080fd5b505af1158015610d40573d6000803e3d6000fd5b505050506040513d6020811015610d5657600080fd5b50610d679050866108188582610dd9565b91505b505b949350505050565b600081610d83575060006103fa565b816000610d8f82611126565b90506070811015610da8578060700382901b9150610dbb565b6070811115610dbb576070810382901c91505b613fff0160701b6001600160701b03919091161760801b90506103fa565b6000617fff6001600160801b03608085811c8216607090811c8416939186901c90921690911c811690821415610ea45780617fff1415610e6f576001600160801b03198581169085161415610e3957505050600160ff1b8116821861057e565b600160ff1b6001600160801b0319868618161415610e5c5750505081811761057e565b50600160ef1b61ffff02915061057e9050565b600160801b600160ff1b038416610e935750600160ef1b61ffff02915061057e9050565b505050600160ff1b8116821861057e565b80617fff1415610ee357600160801b600160ff1b038516610ed25750600160ef1b61ffff02915061057e9050565b505050600160ff1b8216811861057e565b6001600160701b03608086901c1682610eff5760019250610f06565b600160701b175b6001600160701b03608086901c1682610f225760019250610f29565b600160701b175b9081029081610f5757600160ff1b87871816610f46576000610f4c565b600160ff1b5b94505050505061057e565b928201926000600160e11b831015610f8b57600160e01b831015610f8357610f7e83611126565b610f86565b60e05b610f8e565b60e15b90506140708186011015610fa9576000945060009250611046565b6140e08186011015610fec57614070851015610fce57846140700383901c9250610fe3565b614070851115610fe357614070850383901b92505b60009450611046565b61c0dd818601111561100657617fff945060009250611046565b607081111561101d576070810383901c9250611030565b6070811015611030578060700383901b92505b6001600160701b03831692506140df8186010394505b82607086901b888a186001607f1b60801b1660801c6001600160801b0316171760801b9550505050505061057e565b6000617fff6001600160801b03608084901c1660701c16613fff8110156110a05760009150506103fa565b6001607f1b8360801c6001600160801b0316106110bc57600080fd5b6140fe8111156110cb57600080fd5b600160701b6001600160701b03608085901c161761406f8210156110f55761406f8290031c610822565b61406f8211156108225761406e1982011b915050919050565b600061082283600160ff1b84186111c9565b303b1590565b600080821161113457600080fd5b6000600160801b831061114957608092831c92015b68010000000000000000831061116157604092831c92015b640100000000831061117557602092831c92015b62010000831061118757601092831c92015b610100831061119857600892831c92015b601083106111a857600492831c92015b600483106111b857600292831c92015b6002831061057e5760010192915050565b6000617fff6001600160801b03608085811c8216607090811c8416939186901c90921690911c81169082141561122c5780617fff1415611222576001600160801b03198581169085161415610e5c57849250505061057e565b849250505061057e565b80617fff141561124057839250505061057e565b6001607f1b608086901c6001600160801b0381169190911015906001600160701b0316836112715760019350611278565b600160701b175b6001607f1b608087901c6001600160801b0381169190911015906001600160701b0316846112a957600194506112b0565b600160701b175b826112e0576001600160801b03198816600160ff1b146112d057876112d3565b60005b965050505050505061057e565b80611300576001600160801b03198916600160ff1b146112d057886112d3565b8486038415158315151415611426576070811315611327578997505050505050505061057e565b6000811315611346578082600082121561133d57fe5b901c9150611380565b606f1981121561135f578897505050505050505061057e565b6000811215611380578060000384600082121561137857fe5b901c93508596505b92810192600160711b841061139b576001968701969390931c925b86617fff14156113d057846113b857600160f01b617fff026113c2565b6001600160f01b03195b97505050505050505061057e565b600160701b8410156113e557600096506113f2565b6001600160701b03841693505b83607088901b8661140457600061140a565b6001607f1b5b6001600160801b0316171760801b97505050505050505061057e565b600081131561144157600184901b9350600187039650611458565b600081121561145857600182901b91506001860396505b607081131561146a57600191506114cd565b6001811315611492576001810360018303600082121561148657fe5b901c60010191506114cd565b606f198112156114a557600193506114cd565b6000198112156114cd57600181600003036001850360008212156114c557fe5b901c60010193505b8184106114de5781840393506114e7565b83820393508294505b836114fd57506000965061057e95505050505050565b600061150885611126565b9050806071141561152e57600185901c6001600160701b0316945060018801975061157d565b60708110156115705760708190038089111561155d578086901b6001600160701b03169550808903985061156a565b600098600019019590951b945b5061157d565b6001600160701b03851694505b87617fff14156115b3578561159a57600160f01b617fff026115a4565b6001600160f01b03195b9850505050505050505061057e565b84607089901b876115c55760006115cb565b6001607f1b5b6001600160801b0316171760801b9850505050505050505061057e56fe436f6e747261637420696e7374616e63652068617320616c7265616479206265656e20696e697469616c697a6564a165627a7a72305820212bd312a8ee444ca0e44c49861d2025d141bd22016852ac0e15aeb4f5eac2830029",
  "source": "// (c) Kallol Borah, 2020\r\n// Implementation of utility functions for fee payments\r\n// SPDX-License-Identifier: MIT\r\n\r\npragma solidity 0.5.7;\r\n\r\nimport \"../interfaces/ViaFactory.sol\";\r\nimport \"../interfaces/ViaCash.sol\";\r\nimport \"abdk-libraries-solidity/ABDKMathQuad.sol\";\r\nimport \"@openzeppelin/upgrades/contracts/Initializable.sol\";\r\nimport \"../interfaces/VerifiedClient.sol\";\r\n\r\ncontract Fees is Initializable{\r\n\r\n    using ABDKMathQuad for uint256;\r\n    using ABDKMathQuad for int256;\r\n    using ABDKMathQuad for bytes16;\r\n\r\n    ViaFactory private factory;\r\n\r\n    //verified client\r\n    address private client;\r\n\r\n    function initialize(address _factory) external initializer{\r\n        require(address(factory)==address(0x0));\r\n        factory = ViaFactory(_factory);\r\n    } \r\n\r\n    function payRedemptionFee(bytes16 value) external returns (bytes16){\r\n        require(factory.getType(msg.sender) == \"ViaCash\" || factory.getType(msg.sender) == \"ViaBond\");\r\n        bytes16 fee = factory.getFee(\"redemption\");\r\n        bytes16 returnValue;\r\n        if(ABDKMathQuad.toUInt(fee)!=0){\r\n            address feeTo = factory.getFeeToSetter();\r\n            if(feeTo!=address(0x0)){\r\n                address(uint160(feeTo)).transfer(ABDKMathQuad.toUInt(ABDKMathQuad.mul(fee, value)));\r\n                returnValue = ABDKMathQuad.sub(value, ABDKMathQuad.mul(fee, value));\r\n            }\r\n        }\r\n        return returnValue;\r\n    }\r\n\r\n    //transfer ether balances to custodian\r\n    function transferToCustody(uint percent, address transferFrom) external returns(bool){\r\n        require(factory.getTreasury(msg.sender)==true);\r\n        address custodian = factory.getCustodian();\r\n        if(custodian!=address(0x0)){\r\n            address(uint160(custodian)).transfer(ABDKMathQuad.toUInt(ABDKMathQuad.mul(ABDKMathQuad.fromUInt(transferFrom.balance),ABDKMathQuad.fromUInt(percent))));\r\n            return true;\r\n        }\r\n        else\r\n            return false;\r\n    }\r\n\r\n    function payIssuingFee(bytes16 value) external returns (bytes16){\r\n        require(factory.getType(msg.sender) == \"ViaCash\" || factory.getType(msg.sender) == \"ViaBond\");\r\n        bytes16 fee = factory.getFee(\"issuing\");\r\n        bytes16 returnValue;\r\n        if(ABDKMathQuad.toUInt(fee)!=0){\r\n            address feeTo = factory.getFeeToSetter();\r\n            if(feeTo!=address(0x0)){\r\n                address(uint160(feeTo)).transfer(ABDKMathQuad.toUInt(ABDKMathQuad.mul(fee, value)));\r\n                returnValue = ABDKMathQuad.sub(value, ABDKMathQuad.mul(fee, value));\r\n            }\r\n        }\r\n        return returnValue;\r\n    }\r\n\r\n    function payTradingFee(bytes16 value, address cashContract) external returns (bytes16){\r\n        require(factory.getType(msg.sender) == \"ViaCash\" || factory.getType(msg.sender) == \"ViaBond\");\r\n        bytes16 fee = factory.getFee(\"trading\");\r\n        bytes16 returnValue;\r\n        if(ABDKMathQuad.toUInt(fee)!=0){\r\n            address feeTo = factory.getFeeToSetter();\r\n            if(feeTo!=address(0x0)){\r\n                ViaCash(address(uint160(cashContract))).transferFrom(cashContract, feeTo, ABDKMathQuad.toUInt(ABDKMathQuad.mul(fee, value)));\r\n                returnValue = ABDKMathQuad.sub(value, ABDKMathQuad.mul(fee, value));\r\n            }\r\n        }\r\n        return returnValue;\r\n    }\r\n\r\n    //check AML status for account address\r\n    function amlCheck(address account) external returns(bool){\r\n        require(factory.getType(msg.sender) == \"ViaCash\" || factory.getType(msg.sender) == \"ViaBond\");\r\n        if(client==address(0x0)){\r\n            client = factory.getClient();\r\n            if(client==address(0x0))\r\n                return true;\r\n        }\r\n        if(VerifiedClient(client).getAMLStatus(account))\r\n            return true;\r\n        else\r\n            return false;\r\n    }\r\n\r\n}\r\n",
  "sourcePath": "D:/Code/verified-issuer/contracts/utilities/Fees.sol",
  "compiler": {
    "name": "solc",
    "version": "0.5.7+commit.6da8b019.Emscripten.clang"
  },
  "schemaVersion": "3.3.3",
  "updatedAt": "2021-03-06T16:27:27.628Z",
  "networkType": "ethereum",
  "devdoc": {
    "methods": {}
  },
  "userdoc": {
    "methods": {}
  }
}