{
  "contractName": "Oracle",
  "abi": [
    {
      "constant": true,
      "inputs": [
        {
          "name": "",
          "type": "bytes32"
        }
      ],
      "name": "pendingQueries",
      "outputs": [
        {
          "name": "caller",
          "type": "address"
        },
        {
          "name": "tokenType",
          "type": "bytes32"
        },
        {
          "name": "rateType",
          "type": "bytes32"
        },
        {
          "name": "callbackId",
          "type": "bytes32"
        }
      ],
      "payable": false,
      "stateMutability": "view",
      "type": "function"
    },
    {
      "anonymous": false,
      "inputs": [
        {
          "indexed": false,
          "name": "id",
          "type": "uint256"
        },
        {
          "indexed": false,
          "name": "urlToQuery",
          "type": "string"
        },
        {
          "indexed": false,
          "name": "attributeToFetch",
          "type": "string"
        }
      ],
      "name": "NewRequest",
      "type": "event"
    },
    {
      "anonymous": false,
      "inputs": [
        {
          "indexed": false,
          "name": "id",
          "type": "uint256"
        },
        {
          "indexed": false,
          "name": "urlToQuery",
          "type": "string"
        },
        {
          "indexed": false,
          "name": "attributeToFetch",
          "type": "string"
        },
        {
          "indexed": false,
          "name": "agreedValue",
          "type": "uint256"
        }
      ],
      "name": "UpdatedRequest",
      "type": "event"
    },
    {
      "anonymous": false,
      "inputs": [
        {
          "indexed": false,
          "name": "caller",
          "type": "address"
        },
        {
          "indexed": false,
          "name": "myid",
          "type": "bytes32"
        },
        {
          "indexed": false,
          "name": "tokenType",
          "type": "bytes32"
        },
        {
          "indexed": false,
          "name": "rateType",
          "type": "bytes32"
        },
        {
          "indexed": false,
          "name": "result",
          "type": "uint256"
        }
      ],
      "name": "LogResult",
      "type": "event"
    },
    {
      "constant": false,
      "inputs": [
        {
          "name": "_factory",
          "type": "address"
        }
      ],
      "name": "initialize",
      "outputs": [],
      "payable": false,
      "stateMutability": "nonpayable",
      "type": "function"
    },
    {
      "constant": false,
      "inputs": [
        {
          "name": "_id",
          "type": "uint256"
        },
        {
          "name": "_valueRetrieved",
          "type": "uint256"
        }
      ],
      "name": "updateRequest",
      "outputs": [],
      "payable": false,
      "stateMutability": "nonpayable",
      "type": "function"
    },
    {
      "constant": false,
      "inputs": [
        {
          "name": "_currency",
          "type": "bytes"
        },
        {
          "name": "_ratetype",
          "type": "bytes32"
        },
        {
          "name": "_tokenType",
          "type": "bytes32"
        },
        {
          "name": "_tokenContract",
          "type": "address"
        }
      ],
      "name": "request",
      "outputs": [
        {
          "name": "",
          "type": "bytes32"
        }
      ],
      "payable": false,
      "stateMutability": "nonpayable",
      "type": "function"
    },
    {
      "constant": false,
      "inputs": [
        {
          "name": "_queryId",
          "type": "bytes32"
        },
        {
          "name": "_callbackId",
          "type": "bytes32"
        }
      ],
      "name": "setCallbackId",
      "outputs": [],
      "payable": false,
      "stateMutability": "nonpayable",
      "type": "function"
    },
    {
      "constant": false,
      "inputs": [
        {
          "name": "_issuer",
          "type": "address"
        },
        {
          "name": "_client",
          "type": "address"
        },
        {
          "name": "_currency",
          "type": "bytes32"
        },
        {
          "name": "_amount",
          "type": "uint256"
        }
      ],
      "name": "payOut",
      "outputs": [],
      "payable": false,
      "stateMutability": "nonpayable",
      "type": "function"
    }
  ],
  "bytecode": "0x608060405260006035556001603655600360375534801561001f57600080fd5b5061195d8061002f6000396000f3fe608060405234801561001057600080fd5b50600436106100625760003560e01c806327420063146100675780634fd24e9c146100fc5780635cdb46421461012157806389a2cdcb14610144578063b1fa135014610191578063c4d66de8146101cd575b600080fd5b6100ea6004803603608081101561007d57600080fd5b810190602081018135600160201b81111561009757600080fd5b8201836020820111156100a957600080fd5b803590602001918460018302840111600160201b831117156100ca57600080fd5b9193509150803590602081013590604001356001600160a01b03166101f3565b60408051918252519081900360200190f35b61011f6004803603604081101561011257600080fd5b508035906020013561087d565b005b61011f6004803603604081101561013757600080fd5b50803590602001356108b5565b6101616004803603602081101561015a57600080fd5b5035610b24565b604080516001600160a01b0390951685526020850193909352838301919091526060830152519081900360800190f35b61011f600480360360808110156101a757600080fd5b506001600160a01b03813581169160208101359091169060408101359060600135610b55565b61011f600480360360208110156101e357600080fd5b50356001600160a01b031661114a565b60335460408051600160e01b63f429f19b02815233600482015290516000926001600160a01b03169163f429f19b916024808301926020929190829003018186803b15801561024157600080fd5b505afa158015610255573d6000803e3d6000fd5b505050506040513d602081101561026b57600080fd5b5051600160cb1b660acd2c286c2e6d02148061030c575060335460408051600160e01b63f429f19b02815233600482015290516001600160a01b039092169163f429f19b91602480820192602092909190829003018186803b1580156102d057600080fd5b505afa1580156102e4573d6000803e3d6000fd5b505050506040513d60208110156102fa57600080fd5b5051600160ca1b66159a58509bdb9902145b61031557600080fd5b606086868080601f0160208091040260200160405190810160405280939291908181526020018383808284376000920182905250604051600160e31b6319f6a32502815260206004820181815287516024840152875173__stringutils___________________________9863cfb51928985096509094508493604490930192918601918190849084905b838110156103b85781810151838201526020016103a0565b50505050905090810190601f1680156103e55780820380516001836020036101000a031916815260200191505b509250505060206040518083038186803b15801561040257600080fd5b505af4158015610416573d6000803e3d6000fd5b505050506040513d602081101561042c57600080fd5b505160408051600160e01b63f921e647028152600481019290925260006024830181905260126044840152905173__stringutils___________________________9263f921e647926064808301939192829003018186803b15801561049157600080fd5b505af41580156104a5573d6000803e3d6000fd5b505050506040513d6000823e601f3d908101601f1916820160405260208110156104ce57600080fd5b810190808051600160201b8111156104e557600080fd5b820160208101848111156104f857600080fd5b8151600160201b81118282018710171561051157600080fd5b505060335460408051600160e01b633e18b01b0281529051929650606095506001600160a01b039091169350633e18b01b9250600480820192600092909190829003018186803b15801561056457600080fd5b505afa158015610578573d6000803e3d6000fd5b505050506040513d6000823e601f3d908101601f1916820160405260208110156105a157600080fd5b810190808051600160201b8111156105b857600080fd5b820160208101848111156105cb57600080fd5b8151600160201b8111828201871017156105e457600080fd5b5050929190505050905085600160f11b6132b902148061060c575085600160e91b623b32b902145b1561076d5760006106fc82846040516020018083805190602001908083835b6020831061064a5780518252601f19909201916020918201910161062b565b51815160209384036101000a6000190180199092169116179052600160b01b692f72617465732f65722f02919093019081528451600a90910192850191508083835b602083106106ab5780518252601f19909201916020918201910161068c565b51815160209384036101000a60001901801990921691161790526040805192909401828103601f1901835280850190945260048452600160e01b637261746502908401529450909250611221915050565b604080516080810182526001600160a01b03888116825260208083018b81528385018d8152600060608601818152888252603890945295909520935184546001600160a01b031916931692909217835590516001830155915160028201559051600390910155935061087492505050565b85600160f11b6134b90214156108195760006106fc82846040516020018083805190602001908083835b602083106107b65780518252601f199092019160209182019101610797565b51815160001960209485036101000a01908116901991909116179052600160b01b692f72617465732f69722f02939091019283528451600a909301929085019150808383602083106106ab5780518252601f19909201916020918201910161068c565b85600160d21b65195d1a1d5cd90214156108715760006106fc6040518060600160405280603481526020016118fe60349139604051806040016040528060058152602001600160d81b64707269636502815250611221565b50505b95945050505050565b6000828152603860205260409020546001600160a01b031633146108a057600080fd5b60009182526038602052604090912060030155565b6000603483815481106108c457fe5b600091825260208083203384526005600690930201918201905260409091205490915060011415610b1f57336000908152600582016020526040812060029055805b8061094257600082815260048401602052604090205461093757506000818152600483016020526040902083905560015b600190910190610906565b6000805b603754811015610b1a5760008181526004860160209081526040918290205482518083018a9052835180820384018152818501855280519084012060608083018490528551808403909101815260809092019094528051920191909120909188911415610b10576036546001909401938410610b105760038701889055865460408051828152606081018b90526080602082018181526001808d0180546002928116156101000260001901168290049385018490527f92cd7eb0bd7501df710956d329b91619314579e49f857dd4c1b773a296896d3196959094918e01938f939183019060a084019087908015610a7e5780601f10610a5357610100808354040283529160200191610a7e565b820191906000526020600020905b815481529060010190602001808311610a6157829003601f168201915b5050838103825285546002600019610100600184161502019091160480825260209091019086908015610af25780601f10610ac757610100808354040283529160200191610af2565b820191906000526020600020905b815481529060010190602001808311610ad557829003601f168201915b5050965050505050505060405180910390a18654610b10908961145a565b5050600101610946565b505050505b505050565b60386020526000908152604090208054600182015460028301546003909301546001600160a01b0390921692909184565b60335460408051600160e01b63f429f19b02815233600482015290516001600160a01b039092169163f429f19b91602480820192602092909190829003018186803b158015610ba357600080fd5b505afa158015610bb7573d6000803e3d6000fd5b505050506040513d6020811015610bcd57600080fd5b5051600160cb1b660acd2c286c2e6d0214610be757600080fd5b60335460408051600160e11b634b475a5902815290516060926001600160a01b03169163968eb4b2916004808301926000929190829003018186803b158015610c2f57600080fd5b505afa158015610c43573d6000803e3d6000fd5b505050506040513d6000823e601f3d908101601f191682016040526020811015610c6c57600080fd5b810190808051600160201b811115610c8357600080fd5b82016020810184811115610c9657600080fd5b8151600160201b811182820187101715610caf57600080fd5b505060408051600160e01b635e57966d0281526001600160a01b038b16600482015290519195506060945073__stringutils___________________________9350635e57966d9250602480820192600092909190829003018186803b158015610d1857600080fd5b505af4158015610d2c573d6000803e3d6000fd5b505050506040513d6000823e601f3d908101601f191682016040526020811015610d5557600080fd5b810190808051600160201b811115610d6c57600080fd5b82016020810184811115610d7f57600080fd5b8151600160201b811182820187101715610d9857600080fd5b505060408051600160e01b635e57966d0281526001600160a01b038b16600482015290519195506060945073__stringutils___________________________9350635e57966d9250602480820192600092909190829003018186803b158015610e0157600080fd5b505af4158015610e15573d6000803e3d6000fd5b505050506040513d6000823e601f3d908101601f191682016040526020811015610e3e57600080fd5b810190808051600160201b811115610e5557600080fd5b82016020810184811115610e6857600080fd5b8151600160201b811182820187101715610e8157600080fd5b505060408051600160e01b63f921e647028152600481018b9052600060248201819052600560448301529151929650611140955088945089935073__stringutils___________________________9263f921e64792606480840193919291829003018186803b158015610ef457600080fd5b505af4158015610f08573d6000803e3d6000fd5b505050506040513d6000823e601f3d908101601f191682016040526020811015610f3157600080fd5b810190808051600160201b811115610f4857600080fd5b82016020810184811115610f5b57600080fd5b8151600160201b811182820187101715610f7457600080fd5b505092919050505085856040516020018086805190602001908083835b60208310610fb05780518252601f199092019160209182019101610f91565b51815160209384036101000a60001901801990921691161790527f2f6170692f7061796f75742f000000000000000000000000000000000000000091909301908152600c8101889052600160f81b602f02602c8201528651602d90910192870191508083835b602083106110355780518252601f199092019160209182019101611016565b6001836020036101000a03801982511681845116808217855250505050505090500180600160f81b602f0281525060010183805190602001908083835b602083106110915780518252601f199092019160209182019101611072565b6001836020036101000a03801982511681845116808217855250505050505090500180600160f81b602f0281525060010182805190602001908083835b602083106110ed5780518252601f1990920191602091820191016110ce565b51815160209384036101000a60001901801990921691161790526040805192909401828103601f1901835280850190945260038452600160e81b6270617902908401529750909550611221945050505050565b5050505050505050565b600054610100900460ff168061116357506111636116f9565b80611171575060005460ff16155b6111af57604051600160e51b62461bcd02815260040180806020018281038252602e8152602001806118d0602e913960400191505060405180910390fd5b600054610100900460ff161580156111da576000805460ff1961ff0019909116610100171660011790555b6033546001600160a01b0316156111f057600080fd5b603380546001600160a01b0319166001600160a01b038416179055801561121d576000805461ff00191690555b5050565b6040805160808101825260355481526020808201858152928201849052600060608301819052603480546001810180835591835284517f46bddb1178e94d7f2892ff5f366840eb658911794f2c3a44c450aa2c505186c1600690920291820190815595518051939687969395939490936112bf937f46bddb1178e94d7f2892ff5f366840eb658911794f2c3a44c450aa2c505186c201920190611810565b50604082015180516112db916002840191602090910190611810565b5060608201518160030155505090506000603460018303815481106112fc57fe5b600091825260208083207319836182a3786cd592523cab7445325be26c3334845260056006909302019182018152604080842060019055603554815181815260608185018181528c51918301919091528b519597507f0312239616abfb14f7ffa065155abb0ca047274d86c965890db4c8a48b8ce4b69692958c958c9593949293850192608086019291880191908190849084905b838110156113a9578181015183820152602001611391565b50505050905090810190601f1680156113d65780820380516001836020036101000a031916815260200191505b50838103825284518152845160209182019186019080838360005b838110156114095781810151838201526020016113f1565b50505050905090810190601f1680156114365780820380516001836020036101000a031916815260200191505b509550505050505060405180910390a1505060358054600181019091559392505050565b8161146361188e565b506000838152603860208181526040808420815160808101835281546001600160a01b03811682526001830180548387015260028401805495840195909552600384018054606085019081528c8a52979096526001600160a01b0319909116909255908590559084905592905551156114de57806060015191505b805160208083015160408085015181516001600160a01b03909516855292840186905283810191909152606083019190915260808201859052517f71923f11892046bb2e9bf6e13c9006b6aa1536f0fac460012ab88a41e0092ec19181900360a00190a18060200151600160e31b63086c2e6d0214156115ec5780516001600160a01b03166321f68b4e8361157286611700565b84604001516040518463ffffffff1660e01b815260040180848152602001836001600160801b0319166001600160801b03191681526020018281526020019350505050600060405180830381600087803b1580156115cf57600080fd5b505af11580156115e3573d6000803e3d6000fd5b505050506116f3565b8060200151600160e21b63109bdb9902141561161c5780516001600160a01b03166321f68b4e8361157286611700565b8060200151600160cb1b6608ae8d086c2e6d02141561164f5780516001600160a01b03166321f68b4e8361157286611700565b8060200151600160ca1b66115d1a109bdb990214156116f35780516001600160a01b03166321f68b4e8361168286611700565b84604001516040518463ffffffff1660e01b815260040180848152602001836001600160801b0319166001600160801b03191681526020018281526020019350505050600060405180830381600087803b1580156116df57600080fd5b505af1158015611140573d6000803e3d6000fd5b50505050565b303b155b90565b60008161170f57506000611768565b81600061171b8261176d565b90506070811015611734578060700382901b9150611747565b6070811115611747576070810382901c91505b613fff0160701b6dffffffffffffffffffffffffffff919091161760801b90505b919050565b600080821161177b57600080fd5b6000600160801b831061179057608092831c92015b6801000000000000000083106117a857604092831c92015b600160201b83106117bb57602092831c92015b6201000083106117cd57601092831c92015b61010083106117de57600892831c92015b601083106117ee57600492831c92015b600483106117fe57600292831c92015b6002831061180a576001015b92915050565b828054600181600116156101000203166002900490600052602060002090601f016020900481019282601f1061185157805160ff191683800117855561187e565b8280016001018555821561187e579182015b8281111561187e578251825591602001919060010190611863565b5061188a9291506118b5565b5090565b60408051608081018252600080825260208201819052918101829052606081019190915290565b6116fd91905b8082111561188a57600081556001016118bb56fe436f6e747261637420696e7374616e63652068617320616c7265616479206265656e20696e697469616c697a656468747470733a2f2f6170692e70726f2e636f696e626173652e636f6d2f70726f64756374732f4554482d5553442f7469636b6572a165627a7a72305820c66ac2571c9960648d43567f34533abb52736d220396188b6732f7d93b61b0a80029",
  "source": "//(c) Kallol Borah, 2020\r\n// Via oracle client\r\n// SPDX-License-Identifier: MIT\r\n\r\npragma solidity 0.5.7;\r\n\r\nimport \"./interfaces/ViaOracle.sol\";\r\nimport \"./utilities/StringUtils.sol\";\r\nimport \"./interfaces/ViaFactory.sol\";\r\nimport \"./interfaces/ViaCash.sol\";\r\nimport \"./interfaces/ViaBond.sol\";\r\nimport \"abdk-libraries-solidity/ABDKMathQuad.sol\";\r\nimport \"@openzeppelin/upgrades/contracts/Initializable.sol\";\r\n\r\ncontract Oracle is ViaOracle, Initializable {\r\n\r\n    using stringutils for *;\r\n\r\n    using ABDKMathQuad for uint256;\r\n    using ABDKMathQuad for int256;\r\n    using ABDKMathQuad for bytes16;\r\n\r\n    //via factory address\r\n    ViaFactory private factory;\r\n\r\n    Request[] requests; //list of requests made to the contract\r\n    uint currentId = 0; //increasing request id\r\n    uint minQuorum = 1; //minimum number of responses to receive before declaring final result\r\n    uint totalOracleCount = 3; // Hardcoded oracle count\r\n\r\n    // defines a general api request\r\n    struct Request {\r\n        uint id;                            //request id\r\n        string urlToQuery;                  //API url\r\n        string attributeToFetch;            //json attribute (key) to retrieve in the response\r\n        uint agreedValue;                   //value from key\r\n        mapping(uint => uint) answers;      //answers provided by the oracles\r\n        mapping(address => uint) quorum;    //oracles which will query the answer (1=oracle hasn't voted, 2=oracle has voted)\r\n    }\r\n\r\n    //event that triggers oracle outside of the blockchain\r\n    event NewRequest (\r\n        uint id,\r\n        string urlToQuery,\r\n        string attributeToFetch\r\n    );\r\n\r\n    //triggered when there's a consensus on the final result\r\n    event UpdatedRequest (\r\n        uint id,\r\n        string urlToQuery,\r\n        string attributeToFetch,\r\n        uint agreedValue\r\n    );\r\n\r\n    function initialize(address _factory) external initializer{\r\n        require(address(factory)==address(0x0));\r\n        factory = ViaFactory(_factory);\r\n    }\r\n\r\n    //create request for oracles listening to emitted event\r\n    function createRequest (\r\n        string memory _urlToQuery,\r\n        string memory _attributeToFetch\r\n    )\r\n    private returns(uint)\r\n    {\r\n        uint length = requests.push(Request(currentId, _urlToQuery, _attributeToFetch, 0));\r\n        Request storage r = requests[length-1];\r\n\r\n        // Hardcoded oracles address\r\n        r.quorum[address(0x19836182a3786CD592523cAB7445325be26c3334)] = 1;\r\n        r.quorum[address(0x19836182a3786CD592523cAB7445325be26c3334)] = 1;\r\n        r.quorum[address(0x19836182a3786CD592523cAB7445325be26c3334)] = 1;\r\n        //0x19836182a3786CD592523cAB7445325be26c3334\r\n        //0x78d5CcEbC8404Bea5e3365D4B6f6A45352C04F83\r\n        // launch an event to be detected by oracle outside of blockchain\r\n        emit NewRequest (\r\n            currentId,\r\n            _urlToQuery,\r\n            _attributeToFetch\r\n        );\r\n\r\n        // increase request id\r\n        currentId++;\r\n\r\n        return currentId-1;\r\n    }\r\n\r\n    //called by the oracle to record its answer\r\n    function updateRequest (\r\n        uint _id,\r\n        uint _valueRetrieved\r\n    ) public {\r\n\r\n        Request storage currRequest = requests[_id];\r\n\r\n        //check if oracle is in the list of trusted oracles\r\n        //and if the oracle hasn't voted yet\r\n        if(currRequest.quorum[address(msg.sender)] == 1){\r\n\r\n            //marking that this address has voted\r\n            currRequest.quorum[msg.sender] = 2;\r\n\r\n            //iterate through \"array\" of answers until a position if free and save the retrieved value\r\n            uint tmpI = 0;\r\n            bool found = false;\r\n            while(!found) {\r\n                //find first empty slot\r\n                if(currRequest.answers[tmpI] == 0){\r\n                    found = true;\r\n                    currRequest.answers[tmpI] = _valueRetrieved;\r\n                }\r\n                tmpI++;\r\n            }\r\n\r\n            uint currentQuorum = 0;\r\n\r\n            //iterate through oracle list and check if enough oracles(minimum quorum)\r\n            //have voted the same answer has the current one\r\n            for(uint i = 0; i < totalOracleCount; i++){\r\n                uint a = currRequest.answers[i];\r\n                uint b = _valueRetrieved;\r\n\r\n                if(keccak256(abi.encodePacked(a)) == keccak256(abi.encodePacked(b))){\r\n                    currentQuorum++;\r\n                    if(currentQuorum >= minQuorum){\r\n                        currRequest.agreedValue = _valueRetrieved;\r\n                        emit UpdatedRequest (\r\n                            currRequest.id,\r\n                            currRequest.urlToQuery,\r\n                            currRequest.attributeToFetch,\r\n                            currRequest.agreedValue\r\n                        );\r\n                        //call back \r\n                        __callback(bytes32(currRequest.id), _valueRetrieved);\r\n                    }\r\n                }\r\n            }\r\n        }\r\n    }\r\n\r\n    //oraclize code\r\n    struct params{\r\n        address payable caller;\r\n        bytes32 tokenType;\r\n        bytes32 rateType;\r\n        bytes32 callbackId;\r\n    }\r\n\r\n    mapping (bytes32 => params) public pendingQueries;\r\n\r\n    event LogResult(address payable caller, \r\n                    bytes32 myid, \r\n                    bytes32 tokenType, \r\n                    bytes32 rateType, \r\n                    uint result);\r\n\r\n    function __callback(\r\n        bytes32 _myid,\r\n        uint _result\r\n    )\r\n        private \r\n    {\r\n        bytes32 callbackId = _myid;\r\n        params memory mpramas = pendingQueries[_myid];\r\n        delete pendingQueries[_myid];\r\n\r\n        if(mpramas.callbackId!=\"\") \r\n            callbackId = mpramas.callbackId;\r\n\r\n        emit LogResult(mpramas.caller, callbackId, mpramas.tokenType, mpramas.rateType, _result);\r\n        \r\n        if(mpramas.tokenType == \"Cash\"){\r\n            ViaCash(mpramas.caller).convert(callbackId, ABDKMathQuad.fromUInt(_result), mpramas.rateType);\r\n        }\r\n        else if(mpramas.tokenType == \"Bond\"){\r\n            ViaBond(mpramas.caller).convert(callbackId, ABDKMathQuad.fromUInt(_result), mpramas.rateType);\r\n        }\r\n        else if(mpramas.tokenType == \"EthCash\"){\r\n            ViaCash(mpramas.caller).convert(callbackId, ABDKMathQuad.fromUInt(_result), mpramas.rateType);\r\n        }\r\n        else if(mpramas.tokenType == \"EthBond\"){\r\n            ViaBond(mpramas.caller).convert(callbackId, ABDKMathQuad.fromUInt(_result), mpramas.rateType);\r\n        }\r\n    }\r\n\r\n    function request(bytes calldata _currency, bytes32 _ratetype, bytes32 _tokenType, address payable _tokenContract)\r\n        external\r\n        returns (bytes32)\r\n    {  \r\n        require(factory.getType(msg.sender) == \"ViaCash\" || factory.getType(msg.sender) == \"ViaBond\");\r\n        string memory currency = string(_currency).stringToBytes32().substring(0,18);\r\n        string memory url = factory.getViaOracleUrl();\r\n        if(_ratetype == \"er\" || _ratetype == \"ver\"){\r\n            bytes32 queryId = bytes32(createRequest(string(abi.encodePacked(url,\"/rates/er/\",currency)), \"rate\"));  \r\n            pendingQueries[queryId] = params(_tokenContract, _tokenType, _ratetype,\"\");\r\n            return queryId;\r\n        }\r\n        else if(_ratetype == \"ir\"){\r\n            bytes32 queryId = bytes32(createRequest(string(abi.encodePacked(url,\"/rates/ir/\",currency)), \"rate\"));\r\n            pendingQueries[queryId] = params(_tokenContract, _tokenType, _ratetype,\"\");\r\n            return queryId;\r\n        }\r\n        else if(_ratetype == \"ethusd\"){\r\n            bytes32 queryId = bytes32(createRequest(\"https://api.pro.coinbase.com/products/ETH-USD/ticker\", \"price\"));\r\n            pendingQueries[queryId] = params(_tokenContract, _tokenType, _ratetype,\"\");\r\n            return queryId;\r\n        }\r\n    }\r\n\r\n    function setCallbackId(bytes32 _queryId, bytes32 _callbackId) external {\r\n        require(pendingQueries[_queryId].caller==msg.sender);\r\n        pendingQueries[_queryId].callbackId = _callbackId;\r\n    }\r\n\r\n    \r\n    //payout fiat\r\n    function payOut(address _issuer, address _client, bytes32 _currency, uint256 _amount) external {\r\n        require(factory.getType(msg.sender) == \"ViaCash\");\r\n        string memory url = factory.getFiatPayoutUrl();\r\n        string memory issuer = _issuer.addressToString();\r\n        string memory client = _client.addressToString();\r\n        createRequest(string(abi.encodePacked(url,\"/api/payout/\",_amount,\"/\",_currency.substring(0,5),\"/\",issuer,\"/\",client)), \"pay\");\r\n    }\r\n\r\n}",
  "sourcePath": "D:\\Code\\verified-payments\\contracts\\Oracle.sol",
  "compiler": {
    "name": "solc",
    "version": "0.5.7+commit.6da8b019.Emscripten.clang"
  },
  "schemaVersion": "3.4.3",
  "updatedAt": "2022-01-20T04:49:31.567Z",
  "networkType": "ethereum",
  "devdoc": {
    "methods": {}
  },
  "userdoc": {
    "methods": {}
  }
}