{
  "contractName": "Oracle",
  "abi": [
    {
      "anonymous": false,
      "inputs": [
        {
          "indexed": false,
          "name": "id",
          "type": "uint256"
        },
        {
          "indexed": false,
          "name": "urlToQuery",
          "type": "string"
        },
        {
          "indexed": false,
          "name": "attributeToFetch",
          "type": "string"
        },
        {
          "indexed": false,
          "name": "agreedValue",
          "type": "uint256"
        }
      ],
      "name": "NewRequest",
      "type": "event"
    },
    {
      "anonymous": false,
      "inputs": [
        {
          "indexed": false,
          "name": "id",
          "type": "uint256"
        },
        {
          "indexed": false,
          "name": "urlToQuery",
          "type": "string"
        },
        {
          "indexed": false,
          "name": "attributeToFetch",
          "type": "string"
        },
        {
          "indexed": false,
          "name": "agreedValue",
          "type": "uint256"
        }
      ],
      "name": "UpdatedRequest",
      "type": "event"
    },
    {
      "anonymous": false,
      "inputs": [
        {
          "indexed": false,
          "name": "newid",
          "type": "bytes32"
        }
      ],
      "name": "id",
      "type": "event"
    },
    {
      "constant": false,
      "inputs": [
        {
          "name": "_factory",
          "type": "address"
        }
      ],
      "name": "initialize",
      "outputs": [],
      "payable": false,
      "stateMutability": "nonpayable",
      "type": "function"
    },
    {
      "constant": false,
      "inputs": [
        {
          "name": "_id",
          "type": "uint256"
        },
        {
          "name": "_valueRetrieved",
          "type": "uint256"
        }
      ],
      "name": "updateRequest",
      "outputs": [],
      "payable": false,
      "stateMutability": "nonpayable",
      "type": "function"
    },
    {
      "constant": false,
      "inputs": [
        {
          "name": "_fromCurrency",
          "type": "bytes32"
        },
        {
          "name": "_toCurrency",
          "type": "bytes32"
        },
        {
          "name": "_ratetype",
          "type": "bytes32"
        }
      ],
      "name": "request",
      "outputs": [
        {
          "name": "",
          "type": "uint256"
        }
      ],
      "payable": false,
      "stateMutability": "nonpayable",
      "type": "function"
    },
    {
      "constant": false,
      "inputs": [
        {
          "name": "_queryId",
          "type": "bytes32"
        },
        {
          "name": "_result",
          "type": "uint256"
        }
      ],
      "name": "setResult",
      "outputs": [],
      "payable": false,
      "stateMutability": "nonpayable",
      "type": "function"
    },
    {
      "constant": false,
      "inputs": [
        {
          "name": "_issuer",
          "type": "address"
        },
        {
          "name": "_client",
          "type": "address"
        },
        {
          "name": "_currency",
          "type": "bytes32"
        },
        {
          "name": "_amount",
          "type": "uint256"
        }
      ],
      "name": "payOut",
      "outputs": [],
      "payable": false,
      "stateMutability": "nonpayable",
      "type": "function"
    }
  ],
  "bytecode": "0x608060405260006035556001603655600360375534801561001f57600080fd5b50611c098061002f6000396000f3fe608060405234801561001057600080fd5b50600436106100575760003560e01c80635cdb46421461005c57806392549bf2146100815780639a6071fa146100a4578063b1fa1350146100df578063c4d66de81461011b575b600080fd5b61007f6004803603604081101561007257600080fd5b5080359060200135610141565b005b61007f6004803603604081101561009757600080fd5b50803590602001356103b9565b6100cd600480360360608110156100ba57600080fd5b50803590602081013590604001356104fa565b60408051918252519081900360200190f35b61007f600480360360808110156100f557600080fd5b506001600160a01b03813581169160208101359091169060408101359060600135610f1e565b61007f6004803603602081101561013157600080fd5b50356001600160a01b03166116d8565b60006034838154811061015057fe5b6000918252602080832033845260046005909302019182019052604090912054909150600114156103b457336000908152600482016020526040812060029055805b806101ce5760008281526003840160205260409020546101c357506000818152600383016020526040902083905560015b600190910190610192565b603754600090815b818110156103ae5760008181526003870160209081526040918290205482518083018b90528351808203840181528185018552805190840120606080830184905285518084039091018152608090920190945280519201919091209091899114156103a45760365460019095019485106103a4577f92cd7eb0bd7501df710956d329b91619314579e49f857dd4c1b773a296896d318860000154896001018a6002018c6040518085815260200180602001806020018481526020018381038352868181546001816001161561010002031660029004815260200191508054600181600116156101000203166002900480156103125780601f106102e757610100808354040283529160200191610312565b820191906000526020600020905b8154815290600101906020018083116102f557829003601f168201915b50508381038252855460026000196101006001841615020190911604808252602090910190869080156103865780601f1061035b57610100808354040283529160200191610386565b820191906000526020600020905b81548152906001019060200180831161036957829003601f168201915b5050965050505050505060405180910390a187546103a4908a6117af565b50506001016101d6565b50505050505b505050565b60335460408051600160e11b632044262902815290516000926060926001600160a01b03909116916340884c52916004808201928792909190829003018186803b15801561040657600080fd5b505afa15801561041a573d6000803e3d6000fd5b505050506040513d6000823e601f3d908101601f19168201604052602081101561044357600080fd5b810190808051600160201b81111561045a57600080fd5b8201602081018481111561046d57600080fd5b81518560208202830111600160201b8211171561048957600080fd5b50508051909450925060009150505b818110156104da57336001600160a01b03168382815181106104b657fe5b60200260200101516001600160a01b031614156104d257600193505b600101610498565b5082156104f35760008581526039602052604090208490555b5050505050565b60335460408051600160e01b63f429f19b02815233600482015290516000926001600160a01b03169163f429f19b916024808301926020929190829003018186803b15801561054857600080fd5b505afa15801561055c573d6000803e3d6000fd5b505050506040513d602081101561057257600080fd5b5051600160cb1b660acd2c286c2e6d021480610613575060335460408051600160e01b63f429f19b02815233600482015290516001600160a01b039092169163f429f19b91602480820192602092909190829003018186803b1580156105d757600080fd5b505afa1580156105eb573d6000803e3d6000fd5b505050506040513d602081101561060157600080fd5b5051600160ca1b66159a58509bdb9902145b61061c57600080fd5b60408051602080820185905281830187905260608083018790528351808403909101815260808301808552815191909201209081905291517f1e59d74c44b9fa633804de888473077c153d9a1197570ad078da91aefbdfda3b9181900360a00190a182600160e91b623b32b9021415610ab35760335460408051600160e01b633e18b01b02815290516060926001600160a01b031691633e18b01b916004808301926000929190829003018186803b1580156106d757600080fd5b505afa1580156106eb573d6000803e3d6000fd5b505050506040513d6000823e601f3d908101601f19168201604052602081101561071457600080fd5b810190808051600160201b81111561072b57600080fd5b8201602081018481111561073e57600080fd5b8151600160201b81118282018710171561075757600080fd5b505092919050505090506000610a89828873__stringutils___________________________63f921e6479091600060056040518463ffffffff1660e01b815260040180848152602001838152602001828152602001935050505060006040518083038186803b1580156107ca57600080fd5b505af41580156107de573d6000803e3d6000fd5b505050506040513d6000823e601f3d908101601f19168201604052602081101561080757600080fd5b810190808051600160201b81111561081e57600080fd5b8201602081018481111561083157600080fd5b8151600160201b81118282018710171561084a57600080fd5b505060408051600160e01b63f921e647028152600481018e905260006024820181905260056044830152915192955073__stringutils___________________________945063f921e647935060648082019391829003018186803b1580156108b257600080fd5b505af41580156108c6573d6000803e3d6000fd5b505050506040513d6000823e601f3d908101601f1916820160405260208110156108ef57600080fd5b810190808051600160201b81111561090657600080fd5b8201602081018481111561091957600080fd5b8151600160201b81118282018710171561093257600080fd5b50509291905050506040516020018084805190602001908083835b6020831061096c5780518252601f19909201916020918201910161094d565b51815160209384036101000a6000190180199092169116179052600160b01b692f72617465732f65722f02919093019081528551600a90910192860191508083835b602083106109cd5780518252601f1990920191602091820191016109ae565b6001836020036101000a03801982511681845116808217855250505050505090500180600160f81b602d0281525060010182805190602001908083835b60208310610a295780518252601f199092019160209182019101610a0a565b51815160209384036101000a60001901801990921691161790526040805192909401828103601f19018352808501855260028152600160f11b6132b9028183015260008d81526039909252939020549096509194509092506117e2915050565b60009081526038602090815260408083208690559482526039905292909220549250610f17915050565b82600160f11b6134b9021415610ebd5760335460408051600160e01b633e18b01b02815290516060926001600160a01b031691633e18b01b916004808301926000929190829003018186803b158015610b0b57600080fd5b505afa158015610b1f573d6000803e3d6000fd5b505050506040513d6000823e601f3d908101601f191682016040526020811015610b4857600080fd5b810190808051600160201b811115610b5f57600080fd5b82016020810184811115610b7257600080fd5b8151600160201b811182820187101715610b8b57600080fd5b505092919050505090506000610a89828873__stringutils___________________________63f921e6479091600060056040518463ffffffff1660e01b815260040180848152602001838152602001828152602001935050505060006040518083038186803b158015610bfe57600080fd5b505af4158015610c12573d6000803e3d6000fd5b505050506040513d6000823e601f3d908101601f191682016040526020811015610c3b57600080fd5b810190808051600160201b811115610c5257600080fd5b82016020810184811115610c6557600080fd5b8151600160201b811182820187101715610c7e57600080fd5b505060408051600160e01b63f921e647028152600481018e905260006024820181905260056044830152915192955073__stringutils___________________________945063f921e647935060648082019391829003018186803b158015610ce657600080fd5b505af4158015610cfa573d6000803e3d6000fd5b505050506040513d6000823e601f3d908101601f191682016040526020811015610d2357600080fd5b810190808051600160201b811115610d3a57600080fd5b82016020810184811115610d4d57600080fd5b8151600160201b811182820187101715610d6657600080fd5b50509291905050506040516020018084805190602001908083835b60208310610da05780518252601f199092019160209182019101610d81565b51815160209384036101000a6000190180199092169116179052600160b01b692f72617465732f69722f02919093019081528551600a90910192860191508083835b60208310610e015780518252601f199092019160209182019101610de2565b6001836020036101000a03801982511681845116808217855250505050505090500180600160f81b602d0281525060010182805190602001908083835b60208310610e5d5780518252601f199092019160209182019101610e3e565b51815160209384036101000a60001901801990921691161790526040805192909401828103601f19018352808501855260028152600160f11b6134b9028183015260008d81526039909252939020549096509194509092506117e2915050565b82600160f11b6132b9021415610f155760335460408051600160e01b633e18b01b02815290516060926001600160a01b031691633e18b01b916004808301926000929190829003018186803b1580156106d757600080fd5b505b9392505050565b60335460408051600160e01b63f429f19b02815233600482015290516001600160a01b039092169163f429f19b91602480820192602092909190829003018186803b158015610f6c57600080fd5b505afa158015610f80573d6000803e3d6000fd5b505050506040513d6020811015610f9657600080fd5b5051600160cb1b660acd2c286c2e6d0214610fb057600080fd5b60335460408051600160e11b634b475a5902815290516060926001600160a01b03169163968eb4b2916004808301926000929190829003018186803b158015610ff857600080fd5b505afa15801561100c573d6000803e3d6000fd5b505050506040513d6000823e601f3d908101601f19168201604052602081101561103557600080fd5b810190808051600160201b81111561104c57600080fd5b8201602081018481111561105f57600080fd5b8151600160201b81118282018710171561107857600080fd5b505060408051600160e01b635e57966d0281526001600160a01b038b16600482015290519195506060945073__stringutils___________________________9350635e57966d9250602480820192600092909190829003018186803b1580156110e157600080fd5b505af41580156110f5573d6000803e3d6000fd5b505050506040513d6000823e601f3d908101601f19168201604052602081101561111e57600080fd5b810190808051600160201b81111561113557600080fd5b8201602081018481111561114857600080fd5b8151600160201b81118282018710171561116157600080fd5b505060408051600160e01b635e57966d0281526001600160a01b038b16600482015290519195506060945073__stringutils___________________________9350635e57966d9250602480820192600092909190829003018186803b1580156111ca57600080fd5b505af41580156111de573d6000803e3d6000fd5b505050506040513d6000823e601f3d908101601f19168201604052602081101561120757600080fd5b810190808051600160201b81111561121e57600080fd5b8201602081018481111561123157600080fd5b8151600160201b81118282018710171561124a57600080fd5b505092919050505090507ff008aeb84d081af1ce17c5cfa8e1aaf18e772220e246f7d783f80f25dbc2b69f6000848673__stringutils___________________________63ce7e51e390916040518263ffffffff1660e01b81526004018082815260200191505060006040518083038186803b1580156112c957600080fd5b505af41580156112dd573d6000803e3d6000fd5b505050506040513d6000823e601f3d908101601f19168201604052602081101561130657600080fd5b810190808051600160201b81111561131d57600080fd5b8201602081018481111561133057600080fd5b8151600160201b81118282018710171561134957600080fd5b505060408051600160e01b63f921e647028152600481018e905260006024820181905260036044830152915192955073__stringutils___________________________945063f921e647935060648082019391829003018186803b1580156113b157600080fd5b505af41580156113c5573d6000803e3d6000fd5b505050506040513d6000823e601f3d908101601f1916820160405260208110156113ee57600080fd5b810190808051600160201b81111561140557600080fd5b8201602081018481111561141857600080fd5b8151600160201b81118282018710171561143157600080fd5b505092919050505086866040516020018086805190602001908083835b6020831061146d5780518252601f19909201916020918201910161144e565b51815160209384036101000a60001901801990921691161790527f2f6170692f7061796f75742f0000000000000000000000000000000000000000919093019081528751600c90910192880191508083835b602083106114de5780518252601f1990920191602091820191016114bf565b6001836020036101000a03801982511681845116808217855250505050505090500180600160f81b602f0281525060010184805190602001908083835b6020831061153a5780518252601f19909201916020918201910161151b565b6001836020036101000a03801982511681845116808217855250505050505090500180600160f81b602f0281525060010183805190602001908083835b602083106115965780518252601f199092019160209182019101611577565b6001836020036101000a03801982511681845116808217855250505050505090500180600160f81b602f0281525060010182805190602001908083835b602083106115f25780518252601f1990920191602091820191016115d3565b6001836020036101000a038019825116818451168082178552505050505050905001955050505050506040516020818303038152906040526000604051808481526020018060200180602001848152602001838103835285818151815260200191508051906020019080838360005b83811015611679578181015183820152602001611661565b50505050905090810190601f1680156116a65780820380516001836020036101000a031916815260200191505b5092830390525060038152600160e81b627061790260208201526040805191829003019350915050a150505050505050565b600054610100900460ff16806116f157506116f1611b10565b806116ff575060005460ff16155b61173d57604051600160e51b62461bcd02815260040180806020018281038252602e815260200180611bb0602e913960400191505060405180910390fd5b600054610100900460ff16158015611768576000805460ff1961ff0019909116610100171660011790555b6033546001600160a01b03161561177e57600080fd5b603380546001600160a01b0319166001600160a01b03841617905580156117ab576000805461ff00191690555b5050565b600082815260386020526040902054156117ab576000918252603860209081526040808420548452603990915290912055565b604080516060810182526035548152602080820186815292820185905260348054600181018083556000928352845160059092027f46bddb1178e94d7f2892ff5f366840eb658911794f2c3a44c450aa2c505186c1810192835595518051939687969295929461187a937f46bddb1178e94d7f2892ff5f366840eb658911794f2c3a44c450aa2c505186c29092019290910190611b17565b5060408201518051611896916002840191602090910190611b17565b50505090506000603460018303815481106118ad57fe5b906000526020600020906005020190506060603360009054906101000a90046001600160a01b03166001600160a01b03166340884c526040518163ffffffff1660e01b815260040160006040518083038186803b15801561190d57600080fd5b505afa158015611921573d6000803e3d6000fd5b505050506040513d6000823e601f3d908101601f19168201604052602081101561194a57600080fd5b810190808051600160201b81111561196157600080fd5b8201602081018481111561197457600080fd5b81518560208202830111600160201b8211171561199057600080fd5b50508051965093506000925050505b838110156119e75760018360040160008484815181106119bb57fe5b6020908102919091018101516001600160a01b031682528101919091526040016000205560010161199f565b507ff008aeb84d081af1ce17c5cfa8e1aaf18e772220e246f7d783f80f25dbc2b69f603554888888604051808581526020018060200180602001848152602001838103835286818151815260200191508051906020019080838360005b83811015611a5c578181015183820152602001611a44565b50505050905090810190601f168015611a895780820380516001836020036101000a031916815260200191505b50838103825285518152855160209182019187019080838360005b83811015611abc578181015183820152602001611aa4565b50505050905090810190601f168015611ae95780820380516001836020036101000a031916815260200191505b50965050505050505060405180910390a15050603580546001810190915595945050505050565b303b155b90565b828054600181600116156101000203166002900490600052602060002090601f016020900481019282601f10611b5857805160ff1916838001178555611b85565b82800160010185558215611b85579182015b82811115611b85578251825591602001919060010190611b6a565b50611b91929150611b95565b5090565b611b1491905b80821115611b915760008155600101611b9b56fe436f6e747261637420696e7374616e63652068617320616c7265616479206265656e20696e697469616c697a6564a165627a7a72305820a0c20e0774ff2ea8c7e4ae629e40f230a87d40eff836f8a050e80307ffad86c10029",
  "source": "//(c) Kallol Borah, 2020\r\n// Via oracle client\r\n// SPDX-License-Identifier: BUSL\r\n\r\npragma solidity 0.5.7;\r\n\r\nimport \"./interfaces/ViaOracle.sol\";\r\nimport \"./interfaces/ViaFactory.sol\";\r\nimport \"./interfaces/ViaCash.sol\";\r\nimport \"./interfaces/ViaBond.sol\";\r\n\r\nimport \"./utilities/StringUtils.sol\";\r\n\r\nimport \"@openzeppelin/upgrades/contracts/Initializable.sol\";\r\n\r\ncontract Oracle is ViaOracle, Initializable {\r\n\r\n    using stringutils for *;\r\n\r\n    //via factory address\r\n    ViaFactory private factory;\r\n\r\n    Request[] requests; //list of requests made to the contract\r\n    uint currentId = 0; //increasing request id\r\n    uint minQuorum = 1; //minimum number of responses to receive before declaring final result\r\n    uint totalOracleCount = 3; // Hardcoded oracle count\r\n\r\n    // defines a general api request\r\n    struct Request {\r\n        uint id;                            //request id\r\n        string urlToQuery;                  //API url\r\n        string attributeToFetch;            //json attribute (key) to retrieve in the response\r\n        mapping(uint => uint) answers;      //answers provided by the oracles\r\n        mapping(address => uint) quorum;    //oracles which will query the answer (1=oracle hasn't voted, 2=oracle has voted)\r\n    }\r\n\r\n    //event that triggers oracle outside of the blockchain\r\n    event NewRequest (\r\n        uint id,\r\n        string urlToQuery,\r\n        string attributeToFetch,\r\n        uint agreedValue\r\n    );\r\n\r\n    //triggered when there's a consensus on the final result\r\n    event UpdatedRequest (\r\n        uint id,\r\n        string urlToQuery,\r\n        string attributeToFetch,\r\n        uint agreedValue\r\n    );\r\n\r\n    function initialize(address _factory) external initializer{\r\n        require(address(factory)==address(0x0));\r\n        factory = ViaFactory(_factory);\r\n    }\r\n\r\n    //create request for oracles listening to emitted event\r\n    function createRequest (\r\n        string memory _urlToQuery,\r\n        string memory _attributeToFetch,\r\n        uint256 _agreedValue\r\n    )\r\n    private returns(uint)\r\n    {\r\n        uint length = requests.push(Request(currentId, _urlToQuery, _attributeToFetch));\r\n        Request storage r = requests[length-1];\r\n\r\n        address[] memory oracles = factory.getOracles();\r\n        length = oracles.length;\r\n        for(uint256 i=0; i<length; i++){\r\n            r.quorum[oracles[i]] = 1;\r\n        }\r\n\r\n        // launch an event to be detected by oracle outside of blockchain\r\n        emit NewRequest (\r\n            currentId,\r\n            _urlToQuery,\r\n            _attributeToFetch,\r\n            _agreedValue\r\n        );\r\n\r\n        // increase request id\r\n        currentId++;\r\n\r\n        return currentId-1;\r\n    }\r\n    \r\n    //called by the oracle to record its answer\r\n    function updateRequest (\r\n        uint _id,\r\n        uint _valueRetrieved\r\n    ) public {\r\n\r\n        Request storage currRequest = requests[_id];\r\n        \r\n        //check if oracle is in the list of trusted oracles\r\n        //and if the oracle hasn't voted yet\r\n        if(currRequest.quorum[address(msg.sender)] == 1){\r\n            \r\n            //marking that this address has voted\r\n            currRequest.quorum[msg.sender] = 2;\r\n\r\n            //iterate through \"array\" of answers until a position if free and save the retrieved value\r\n            uint tmpI = 0;\r\n            bool found = false;\r\n            while(!found) {\r\n                //find first empty slot\r\n                if(currRequest.answers[tmpI] == 0){\r\n                    found = true;\r\n                    currRequest.answers[tmpI] = _valueRetrieved;\r\n                }\r\n                tmpI++;\r\n            }\r\n\r\n            uint currentQuorum = 0;\r\n\r\n            //iterate through oracle list and check if enough oracles(minimum quorum)\r\n            //have voted the same answer has the current one\r\n            uint count = totalOracleCount;\r\n            for(uint i = 0; i < count; i++){\r\n                uint a = currRequest.answers[i];\r\n                uint b = _valueRetrieved;\r\n\r\n                if(keccak256(abi.encodePacked(a)) == keccak256(abi.encodePacked(b))){\r\n                    currentQuorum++;\r\n                    if(currentQuorum >= minQuorum){\r\n                        emit UpdatedRequest (\r\n                            currRequest.id,\r\n                            currRequest.urlToQuery,\r\n                            currRequest.attributeToFetch,\r\n                            _valueRetrieved\r\n                        );\r\n                        //call back \r\n                        callback(currRequest.id, _valueRetrieved);\r\n                    }\r\n                }\r\n            }\r\n        }\r\n    }\r\n\r\n    //mapping callback id to query\r\n    mapping(uint256 => bytes32) private queries;\r\n\r\n    //mapping query to result\r\n    mapping(bytes32 => uint256) private results;\r\n    \r\n    function callback(\r\n        uint _myid,\r\n        uint _result\r\n    )\r\n        private \r\n    {   \r\n        if(queries[_myid]!=\"\")\r\n            results[queries[_myid]] = _result;        \r\n    }\r\n    event id(bytes32 newid);\r\n    function request(bytes32 _fromCurrency, bytes32 _toCurrency, bytes32 _ratetype) external returns (uint256)\r\n    {  \r\n        require(factory.getType(msg.sender) == \"ViaCash\" || factory.getType(msg.sender) == \"ViaBond\");\r\n        bytes32 query = keccak256(abi.encodePacked(_ratetype, _fromCurrency, _toCurrency));\r\n        emit id(query);\r\n        if(_ratetype == \"ver\"){\r\n            string memory url = factory.getViaOracleUrl();\r\n            uint256 queryId = createRequest(string(abi.encodePacked(url,\"/rates/er/\",_fromCurrency.substring(0,5),\"-\",_toCurrency.substring(0,5))), \"er\", results[query]);  \r\n            queries[queryId] = query;\r\n            return results[query];\r\n        }\r\n        else if(_ratetype == \"ir\"){\r\n            string memory url = factory.getViaOracleUrl();\r\n            uint256 queryId = createRequest(string(abi.encodePacked(url,\"/rates/ir/\",_fromCurrency.substring(0,5),\"-\",_toCurrency.substring(0,5))), \"ir\", results[query]);\r\n            queries[queryId] = query;\r\n            return results[query];\r\n        }\r\n        else if(_ratetype == \"er\"){\r\n            //string memory cryptoUrl = factory.getCryptoDataUrl(_fromCurrency, _toCurrency);\r\n            //uint256 queryId = createRequest(cryptoUrl, \"price\", results[query]);\r\n            string memory url = factory.getViaOracleUrl();\r\n            uint256 queryId = createRequest(string(abi.encodePacked(url,\"/rates/er/\",_fromCurrency.substring(0,5),\"-\",_toCurrency.substring(0,5))), \"er\", results[query]);\r\n            queries[queryId] = query;\r\n            return results[query];\r\n        }\r\n    }\r\n\r\n    function setResult(bytes32 _queryId, uint256 _result) public {\r\n        bool found=false;\r\n        address[] memory oracles = factory.getOracles();\r\n        uint length = oracles.length;\r\n        for(uint256 i=0; i<length; i++){\r\n            if(oracles[i] == msg.sender)\r\n                found = true;\r\n        }\r\n        if(found)\r\n            results[_queryId] = _result; \r\n    }\r\n    \r\n    //payout fiat\r\n    function payOut(address _issuer, address _client, bytes32 _currency, uint256 _amount) external {\r\n        require(factory.getType(msg.sender) == \"ViaCash\");\r\n        string memory url = factory.getFiatPayoutUrl();\r\n        string memory issuer = _issuer.addressToString();\r\n        string memory client = _client.addressToString();\r\n        emit NewRequest(0,string(abi.encodePacked(url,\"/api/payout/\",_amount.uint256ToString(),\"/\",_currency.substring(0,3),\"/\",issuer,\"/\",client)), \"pay\", 0);\r\n    }\r\n\r\n}",
  "sourcePath": "D:\\Code\\verified-payments\\contracts\\Oracle.sol",
  "compiler": {
    "name": "solc",
    "version": "0.5.7+commit.6da8b019.Emscripten.clang"
  },
  "schemaVersion": "3.4.3",
  "updatedAt": "2024-09-17T16:05:14.956Z",
  "devdoc": {
    "methods": {}
  },
  "userdoc": {
    "methods": {}
  }
}