{
  "contractName": "Oracle",
  "abi": [
    {
      "constant": true,
      "inputs": [
        {
          "name": "",
          "type": "bytes32"
        }
      ],
      "name": "pendingQueries",
      "outputs": [
        {
          "name": "caller",
          "type": "address"
        },
        {
          "name": "tokenType",
          "type": "bytes32"
        },
        {
          "name": "rateType",
          "type": "bytes32"
        },
        {
          "name": "callbackId",
          "type": "bytes32"
        }
      ],
      "payable": false,
      "stateMutability": "view",
      "type": "function"
    },
    {
      "inputs": [],
      "payable": true,
      "stateMutability": "payable",
      "type": "constructor"
    },
    {
      "anonymous": false,
      "inputs": [
        {
          "indexed": false,
          "name": "description",
          "type": "string"
        }
      ],
      "name": "LogNewProvableQuery",
      "type": "event"
    },
    {
      "anonymous": false,
      "inputs": [
        {
          "indexed": false,
          "name": "caller",
          "type": "address"
        },
        {
          "indexed": false,
          "name": "myid",
          "type": "bytes32"
        },
        {
          "indexed": false,
          "name": "tokenType",
          "type": "bytes32"
        },
        {
          "indexed": false,
          "name": "rateType",
          "type": "bytes32"
        },
        {
          "indexed": false,
          "name": "result",
          "type": "string"
        }
      ],
      "name": "LogResult",
      "type": "event"
    },
    {
      "constant": false,
      "inputs": [
        {
          "name": "_factory",
          "type": "address"
        }
      ],
      "name": "initialize",
      "outputs": [],
      "payable": false,
      "stateMutability": "nonpayable",
      "type": "function"
    },
    {
      "constant": false,
      "inputs": [
        {
          "name": "_myid",
          "type": "bytes32"
        },
        {
          "name": "_result",
          "type": "string"
        }
      ],
      "name": "__callback",
      "outputs": [],
      "payable": false,
      "stateMutability": "nonpayable",
      "type": "function"
    },
    {
      "constant": false,
      "inputs": [
        {
          "name": "_myid",
          "type": "bytes32"
        },
        {
          "name": "_result",
          "type": "string"
        },
        {
          "name": "_proof",
          "type": "bytes"
        }
      ],
      "name": "__callback",
      "outputs": [],
      "payable": false,
      "stateMutability": "nonpayable",
      "type": "function"
    },
    {
      "constant": false,
      "inputs": [
        {
          "name": "_currency",
          "type": "bytes"
        },
        {
          "name": "_ratetype",
          "type": "bytes32"
        },
        {
          "name": "_tokenType",
          "type": "bytes32"
        },
        {
          "name": "_tokenContract",
          "type": "address"
        }
      ],
      "name": "request",
      "outputs": [
        {
          "name": "",
          "type": "bytes32"
        }
      ],
      "payable": true,
      "stateMutability": "payable",
      "type": "function"
    },
    {
      "constant": false,
      "inputs": [
        {
          "name": "_queryId",
          "type": "bytes32"
        },
        {
          "name": "_callbackId",
          "type": "bytes32"
        }
      ],
      "name": "setCallbackId",
      "outputs": [],
      "payable": false,
      "stateMutability": "nonpayable",
      "type": "function"
    },
    {
      "constant": false,
      "inputs": [
        {
          "name": "_currency",
          "type": "bytes32"
        },
        {
          "name": "_amount",
          "type": "bytes16"
        }
      ],
      "name": "payOut",
      "outputs": [],
      "payable": false,
      "stateMutability": "nonpayable",
      "type": "function"
    }
  ],
  "bytecode": "0x60806040526200001a6404a817c8006200002060201b60201c565b62000725565b6001546001600160a01b0316158062000054575060015462000052906001600160a01b031662000220602090811b901c565b155b156200006e576200006c60006200022460201b60201c565b505b600160009054906101000a90046001600160a01b03166001600160a01b03166338cc48316040518163ffffffff1660e01b8152600401602060405180830381600087803b158015620000bf57600080fd5b505af1158015620000d4573d6000803e3d6000fd5b505050506040513d6020811015620000eb57600080fd5b50516000546001600160a01b03908116911614620001a257600160009054906101000a90046001600160a01b03166001600160a01b03166338cc48316040518163ffffffff1660e01b8152600401602060405180830381600087803b1580156200015457600080fd5b505af115801562000169573d6000803e3d6000fd5b505050506040513d60208110156200018057600080fd5b5051600080546001600160a01b0319166001600160a01b039092169190911790555b60008054604080517fca6ad1e40000000000000000000000000000000000000000000000000000000081526004810185905290516001600160a01b039092169263ca6ad1e49260248084019382900301818387803b1580156200020457600080fd5b505af115801562000219573d6000803e3d6000fd5b5050505050565b3b90565b6000620002366200023c60201b60201c565b92915050565b60008062000264731d3b2638a7cc9f2cb3d298a3da7a90b67e5506ed6200022060201b60201c565b1115620002e257600180546001600160a01b031916731d3b2638a7cc9f2cb3d298a3da7a90b67e5506ed17905560408051808201909152600b81527f6574685f6d61696e6e6574000000000000000000000000000000000000000000602080830191909152620002d991906200066a811b901c565b50600162000667565b60006200030973c03a2615d5efaf5f49f60b7bb6583eaec212fdf16200022060201b60201c565b11156200037e57600180546001600160a01b03191673c03a2615d5efaf5f49f60b7bb6583eaec212fdf117905560408051808201909152600c81527f6574685f726f707374656e330000000000000000000000000000000000000000602080830191909152620002d991906200066a811b901c565b6000620003a573b7a07bcf2ba2f2703b24c0691b5278999c59ac7e6200022060201b60201c565b11156200041a57600180546001600160a01b03191673b7a07bcf2ba2f2703b24c0691b5278999c59ac7e17905560408051808201909152600981527f6574685f6b6f76616e0000000000000000000000000000000000000000000000602080830191909152620002d991906200066a811b901c565b60006200044173146500cfd35b22e4a392fe0adc06de1a1368ed486200022060201b60201c565b1115620004b657600180546001600160a01b03191673146500cfd35b22e4a392fe0adc06de1a1368ed4817905560408051808201909152600b81527f6574685f72696e6b656279000000000000000000000000000000000000000000602080830191909152620002d991906200066a811b901c565b6000620004dd73a2998efd205fb9d4b4963afb70778d6354ad3a416200022060201b60201c565b11156200055257600180546001600160a01b03191673a2998efd205fb9d4b4963afb70778d6354ad3a4117905560408051808201909152600a81527f6574685f676f65726c6900000000000000000000000000000000000000000000602080830191909152620002d991906200066a811b901c565b600062000579736f485c8bf6fc43ea212e93bbf8ce046c7f1cb4756200022060201b60201c565b1115620005ad5750600180546001600160a01b031916736f485c8bf6fc43ea212e93bbf8ce046c7f1cb47517815562000667565b6000620005d47320e12a1f859b3feae5fb2a0a32c18f5a65555bbf6200022060201b60201c565b1115620006085750600180546001600160a01b0319167320e12a1f859b3feae5fb2a0a32c18f5a65555bbf17815562000667565b60006200062f7351efaf4c8b3c9afbd5ab9f4bbc82784ab6ef8faa6200022060201b60201c565b1115620006635750600180546001600160a01b0319167351efaf4c8b3c9afbd5ab9f4bbc82784ab6ef8faa17815562000667565b5060005b90565b80516200067f90600290602084019062000683565b5050565b828054600181600116156101000203166002900490600052602060002090601f016020900481019282601f10620006c657805160ff1916838001178555620006f6565b82800160010185558215620006f6579182015b82811115620006f6578251825591602001919060010190620006d9565b506200070492915062000708565b5090565b6200066791905b808211156200070457600081556001016200070f565b61245680620007356000396000f3fe6080604052600436106100705760003560e01c80634fd24e9c1161004e5780634fd24e9c146103015780636954ee9e1461033157806389a2cdcb14610374578063c4d66de8146103ce57610070565b8063274200631461007557806327dc297e1461010a57806338bbfa50146101c4575b600080fd5b6100f86004803603608081101561008b57600080fd5b810190602081018135600160201b8111156100a557600080fd5b8201836020820111156100b757600080fd5b803590602001918460018302840111600160201b831117156100d857600080fd5b9193509150803590602081013590604001356001600160a01b0316610401565b60408051918252519081900360200190f35b34801561011657600080fd5b506101c26004803603604081101561012d57600080fd5b81359190810190604081016020820135600160201b81111561014e57600080fd5b82018360208201111561016057600080fd5b803590602001918460018302840111600160201b8311171561018157600080fd5b91908080601f016020809104026020016040519081016040528093929190818152602001838380828437600092019190915250929550610b7e945050505050565b005b3480156101d057600080fd5b506101c2600480360360608110156101e757600080fd5b81359190810190604081016020820135600160201b81111561020857600080fd5b82018360208201111561021a57600080fd5b803590602001918460018302840111600160201b8311171561023b57600080fd5b91908080601f0160208091040260200160405190810160405280939291908181526020018383808284376000920191909152509295949360208101935035915050600160201b81111561028d57600080fd5b82018360208201111561029f57600080fd5b803590602001918460018302840111600160201b831117156102c057600080fd5b91908080601f016020809104026020016040519081016040528093929190818152602001838380828437600092019190915250929550610b9e945050505050565b34801561030d57600080fd5b506101c26004803603604081101561032457600080fd5b50803590602001356110f1565b34801561033d57600080fd5b506101c26004803603604081101561035457600080fd5b50803590602001356fffffffffffffffffffffffffffffffff1916611129565b34801561038057600080fd5b5061039e6004803603602081101561039757600080fd5b50356114ee565b604080516001600160a01b0390951685526020850193909352838301919091526060830152519081900360800190f35b3480156103da57600080fd5b506101c2600480360360208110156103f157600080fd5b50356001600160a01b031661151f565b60385460408051600160e01b63f429f19b02815233600482015290516000926001600160a01b03169163f429f19b916024808301926020929190829003018186803b15801561044f57600080fd5b505afa158015610463573d6000803e3d6000fd5b505050506040513d602081101561047957600080fd5b5051600160cb1b660acd2c286c2e6d02148061051a575060385460408051600160e01b63f429f19b02815233600482015290516001600160a01b039092169163f429f19b91602480820192602092909190829003018186803b1580156104de57600080fd5b505afa1580156104f2573d6000803e3d6000fd5b505050506040513d602081101561050857600080fd5b5051600160ca1b66159a58509bdb9902145b61052357600080fd5b306001600160a01b031631610559604051806040016040528060038152602001600160ea1b62155493028152506207a1206115f5565b11156105af577fc4dc360d0a9c0677a3379ae0a3d81e887f761e65fdf3d7e00859d1bcd3c4738960405180806020018281038252604c815260200180612371604c913960600191505060405180910390a1610b75565b606086868080601f0160208091040260200160405190810160405280939291908181526020018383808284376000920182905250604051600160e31b6319f6a32502815260206004820181815287516024840152875173__stringutils___________________________9863cfb51928985096509094508493604490930192918601918190849084905b8381101561065257818101518382015260200161063a565b50505050905090810190601f16801561067f5780820380516001836020036101000a031916815260200191505b509250505060206040518083038186803b15801561069c57600080fd5b505af41580156106b0573d6000803e3d6000fd5b505050506040513d60208110156106c657600080fd5b505160408051600160e01b63f921e6470281526004810192909252600060248301819052600e6044840152905173__stringutils___________________________9263f921e647926064808301939192829003018186803b15801561072b57600080fd5b505af415801561073f573d6000803e3d6000fd5b505050506040513d6000823e601f3d908101601f19168201604052602081101561076857600080fd5b810190808051600160201b81111561077f57600080fd5b8201602081018481111561079257600080fd5b8151600160201b8111828201871017156107ab57600080fd5b505060385460408051600160e01b633e18b01b0281529051929650606095506001600160a01b039091169350633e18b01b9250600480820192600092909190829003018186803b1580156107fe57600080fd5b505afa158015610812573d6000803e3d6000fd5b505050506040513d6000823e601f3d908101601f19168201604052602081101561083b57600080fd5b810190808051600160201b81111561085257600080fd5b8201602081018481111561086557600080fd5b8151600160201b81118282018710171561087e57600080fd5b5050929190505050905085600160f11b6132b90214806108a6575085600160e91b623b32b902145b15610a3a5760006109c9604051806040016040528060038152602001600160ea1b621554930281525083856040516020018080600160db1b640d4e6dedc50281525060050183805190602001908083835b602083106109165780518252601f1990920191602091820191016108f7565b51815160209384036101000a6000190180199092169116179052600160b01b692f72617465732f65722f02919093019081528451600a90910192850191508083835b602083106109775780518252601f199092019160209182019101610958565b6001836020036101000a03801982511681845116808217855250505050505090500180600160d01b65292e7261746502815250600601925050506040516020818303038152906040526207a120611850565b604080516080810182526001600160a01b03888116825260208083018b81528385018d8152600060608601818152888252603990945295909520935184546001600160a01b0319169316929092178355905160018301559151600282015590516003909101559350610b7592505050565b85600160f11b6134b9021415610b185760006109c9604051806040016040528060038152602001600160ea1b621554930281525083856040516020018080600160db1b640d4e6dedc50281525060050183805190602001908083835b60208310610ab55780518252601f199092019160209182019101610a96565b51815160001960209485036101000a01908116901991909116179052600160b01b692f72617465732f69722f02939091019283528451600a909301929085019150808383602083106109775780518252601f199092019160209182019101610958565b85600160d21b65195d1a1d5cd9021415610b725760006109c9604051806040016040528060038152602001600160ea1b62155493028152506040518060600160405280604081526020016123eb604091396207a120611850565b50505b95945050505050565b604080516000815260208101909152610b9a9083908390610b9e565b5050565b610ba6611c20565b6001600160a01b0316336001600160a01b031614610bc357600080fd5b82610bcc6122b1565b506000848152603960208181526040808420815160808101835281546001600160a01b03811682526001830180548387015260028401805495840195909552600384018054606085019081528d8a52979096526001600160a01b031990911690925590859055908490559290555115610c4757806060015191505b7f6122fd11e571fc97247892b733e9287d1d0264feefed58c5f87f454f87a560b0816000015183836020015184604001518860405180866001600160a01b03166001600160a01b0316815260200185815260200184815260200183815260200180602001828103825283818151815260200191508051906020019080838360005b83811015610ce0578181015183820152602001610cc8565b50505050905090810190601f168015610d0d5780820380516001836020036101000a031916815260200191505b50965050505050505060405180910390a18060200151600160e31b63086c2e6d021415610ea95780600001516001600160a01b03166321f68b4e83610e2f8773__stringutils___________________________631bd9515590916040518263ffffffff1660e01b81526004018080602001828103825283818151815260200191508051906020019080838360005b83811015610db4578181015183820152602001610d9c565b50505050905090810190601f168015610de15780820380516001836020036101000a031916815260200191505b509250505060206040518083038186803b158015610dfe57600080fd5b505af4158015610e12573d6000803e3d6000fd5b505050506040513d6020811015610e2857600080fd5b5051611e0a565b84604001516040518463ffffffff1660e01b815260040180848152602001836001600160801b0319166001600160801b03191681526020018281526020019350505050600060405180830381600087803b158015610e8c57600080fd5b505af1158015610ea0573d6000803e3d6000fd5b505050506110ea565b8060200151600160e21b63109bdb99021415610f40578051604051600160e01b631bd951550281526020600482018181528751602484015287516001600160a01b03909416936321f68b4e938793610e2f9373__stringutils___________________________93631bd95155938d9383926044909201919085019080838360008315610db4578181015183820152602001610d9c565b8060200151600160cb1b6608ae8d086c2e6d021415610fda578051604051600160e01b631bd951550281526020600482018181528751602484015287516001600160a01b03909416936321f68b4e938793610e2f9373__stringutils___________________________93631bd95155938d9383926044909201919085019080838360008315610db4578181015183820152602001610d9c565b8060200151600160ca1b66115d1a109bdb990214156110ea578051604051600160e01b631bd951550281526020600482018181528751602484015287516001600160a01b03909416936321f68b4e9387936110749373__stringutils___________________________93631bd95155938d9383926044909201919085019080838360008315610db4578181015183820152602001610d9c565b84604001516040518463ffffffff1660e01b815260040180848152602001836001600160801b0319166001600160801b03191681526020018281526020019350505050600060405180830381600087803b1580156110d157600080fd5b505af11580156110e5573d6000803e3d6000fd5b505050505b5050505050565b6000828152603960205260409020546001600160a01b0316331461111457600080fd5b60009182526039602052604090912060030155565b60385460408051600160e01b63f429f19b02815233600482015290516001600160a01b039092169163f429f19b91602480820192602092909190829003018186803b15801561117757600080fd5b505afa15801561118b573d6000803e3d6000fd5b505050506040513d60208110156111a157600080fd5b5051600160cb1b660acd2c286c2e6d02146111bb57600080fd5b306001600160a01b0316316111f1604051806040016040528060038152602001600160ea1b62155493028152506207a1206115f5565b1115611247577fc4dc360d0a9c0677a3379ae0a3d81e887f761e65fdf3d7e00859d1bcd3c4738960405180806020018281038252604c815260200180612371604c913960600191505060405180910390a1610b9a565b60408051602080820185905282518083039091018152818301808452603854600160e01b633e18b01b02909152925190926060926001600160a01b0390911691633e18b01b91604480820192600092909190829003018186803b1580156112ad57600080fd5b505afa1580156112c1573d6000803e3d6000fd5b505050506040513d6000823e601f3d908101601f1916820160405260208110156112ea57600080fd5b810190808051600160201b81111561130157600080fd5b8201602081018481111561131457600080fd5b8151600160201b81118282018710171561132d57600080fd5b5050929190505050905060608360405160200180826001600160801b0319166001600160801b031916815260100191505060405160208183030381529060405290506114e6604051806040016040528060038152602001600160ea1b62155493028152508385846040516020018080600160db1b640d4e6dedc50281525060050184805190602001908083835b602083106113d95780518252601f1990920191602091820191016113ba565b51815160209384036101000a6000190180199092169116179052600160c01b672f7061796f75742f02919093019081528551600890910192860191508083835b602083106114385780518252601f199092019160209182019101611419565b6001836020036101000a03801982511681845116808217855250505050505090500180600160f81b602f0281525060010182805190602001908083835b602083106114945780518252601f199092019160209182019101611475565b6001836020036101000a03801982511681845116808217855250505050505090500180600160d81b64292e7061790281525060050193505050506040516020818303038152906040526207a120611850565b505050505050565b60396020526000908152604090208054600182015460028301546003909301546001600160a01b0390921692909184565b600554610100900460ff16806115385750611538611e77565b80611546575060055460ff16155b61158457604051600160e51b62461bcd02815260040180806020018281038252602e8152602001806123bd602e913960400191505060405180910390fd5b600554610100900460ff161580156115af576005805460ff1961ff0019909116610100171660011790555b6038546001600160a01b0316156115c557600080fd5b603880546001600160a01b0319166001600160a01b0384161790558015610b9a576005805461ff00191690555050565b6001546000906001600160a01b031615806116225750600154611620906001600160a01b0316611e7d565b155b15611633576116316000611e81565b505b600160009054906101000a90046001600160a01b03166001600160a01b03166338cc48316040518163ffffffff1660e01b8152600401602060405180830381600087803b15801561168357600080fd5b505af1158015611697573d6000803e3d6000fd5b505050506040513d60208110156116ad57600080fd5b50516000546001600160a01b0390811691161461176057600160009054906101000a90046001600160a01b03166001600160a01b03166338cc48316040518163ffffffff1660e01b8152600401602060405180830381600087803b15801561171457600080fd5b505af1158015611728573d6000803e3d6000fd5b505050506040513d602081101561173e57600080fd5b5051600080546001600160a01b0319166001600160a01b039092169190911790555b6000805460408051600160e21b630bbceb3302815260248101869052600481019182528651604482015286516001600160a01b0390931693632ef3accc93889388939092839260649092019160208701918190849084905b838110156117d05781810151838201526020016117b8565b50505050905090810190601f1680156117fd5780820380516001836020036101000a031916815260200191505b509350505050602060405180830381600087803b15801561181d57600080fd5b505af1158015611831573d6000803e3d6000fd5b505050506040513d602081101561184757600080fd5b50519392505050565b6001546000906001600160a01b0316158061187d575060015461187b906001600160a01b0316611e7d565b155b1561188e5761188c6000611e81565b505b600160009054906101000a90046001600160a01b03166001600160a01b03166338cc48316040518163ffffffff1660e01b8152600401602060405180830381600087803b1580156118de57600080fd5b505af11580156118f2573d6000803e3d6000fd5b505050506040513d602081101561190857600080fd5b50516000546001600160a01b039081169116146119bb57600160009054906101000a90046001600160a01b03166001600160a01b03166338cc48316040518163ffffffff1660e01b8152600401602060405180830381600087803b15801561196f57600080fd5b505af1158015611983573d6000803e3d6000fd5b505050506040513d602081101561199957600080fd5b5051600080546001600160a01b0319166001600160a01b039092169190911790555b6000805460408051600160e21b630bbceb3302815260248101869052600481019182528751604482015287516001600160a01b0390931692632ef3accc928992889282916064019060208601908083838c5b83811015611a25578181015183820152602001611a0d565b50505050905090810190601f168015611a525780820380516001836020036101000a031916815260200191505b509350505050602060405180830381600087803b158015611a7257600080fd5b505af1158015611a86573d6000803e3d6000fd5b505050506040513d6020811015611a9c57600080fd5b50519050670de0b6b3a76400003a840201811115611abe575060009050611c19565b60008054604051600160e01b63c51be90f02815260048101838152606482018790526080602483019081528951608484015289516001600160a01b039094169463c51be90f94879491938c938c938c93604482019160a4019060208801908083838c5b83811015611b39578181015183820152602001611b21565b50505050905090810190601f168015611b665780820380516001836020036101000a031916815260200191505b50838103825285518152855160209182019187019080838360005b83811015611b99578181015183820152602001611b81565b50505050905090810190601f168015611bc65780820380516001836020036101000a031916815260200191505b5096505050505050506020604051808303818588803b158015611be857600080fd5b505af1158015611bfc573d6000803e3d6000fd5b50505050506040513d6020811015611c1357600080fd5b50519150505b9392505050565b6001546000906001600160a01b03161580611c4d5750600154611c4b906001600160a01b0316611e7d565b155b15611c5e57611c5c6000611e81565b505b600160009054906101000a90046001600160a01b03166001600160a01b03166338cc48316040518163ffffffff1660e01b8152600401602060405180830381600087803b158015611cae57600080fd5b505af1158015611cc2573d6000803e3d6000fd5b505050506040513d6020811015611cd857600080fd5b50516000546001600160a01b03908116911614611d8b57600160009054906101000a90046001600160a01b03166001600160a01b03166338cc48316040518163ffffffff1660e01b8152600401602060405180830381600087803b158015611d3f57600080fd5b505af1158015611d53573d6000803e3d6000fd5b505050506040513d6020811015611d6957600080fd5b5051600080546001600160a01b0319166001600160a01b039092169190911790555b6000809054906101000a90046001600160a01b03166001600160a01b031663c281d19e6040518163ffffffff1660e01b815260040160206040518083038186803b158015611dd857600080fd5b505afa158015611dec573d6000803e3d6000fd5b505050506040513d6020811015611e0257600080fd5b505190505b90565b600081611e1957506000611e72565b816000611e2582611e91565b90506070811015611e3e578060700382901b9150611e51565b6070811115611e51576070810382901c91505b613fff0160701b6dffffffffffffffffffffffffffff919091161760801b90505b919050565b303b1590565b3b90565b6000611e8b611f33565b92915050565b6000808211611e9f57600080fd5b6000600160801b8310611eb457608092831c92015b680100000000000000008310611ecc57604092831c92015b600160201b8310611edf57602092831c92015b620100008310611ef157601092831c92015b6101008310611f0257600892831c92015b60108310611f1257600492831c92015b60048310611f2257600292831c92015b60028310611e8b5760010192915050565b600080611f53731d3b2638a7cc9f2cb3d298a3da7a90b67e5506ed611e7d565b1115611fb557600180546001600160a01b031916731d3b2638a7cc9f2cb3d298a3da7a90b67e5506ed17905560408051808201909152600b8152600160aa1b6a195d1a17db585a5b9b995d026020820152611fad9061229e565b506001611e07565b6000611fd473c03a2615d5efaf5f49f60b7bb6583eaec212fdf1611e7d565b111561203d57600180546001600160a01b03191673c03a2615d5efaf5f49f60b7bb6583eaec212fdf117905560408051808201909152600c81527f6574685f726f707374656e3300000000000000000000000000000000000000006020820152611fad9061229e565b600061205c73b7a07bcf2ba2f2703b24c0691b5278999c59ac7e611e7d565b11156120b457600180546001600160a01b03191673b7a07bcf2ba2f2703b24c0691b5278999c59ac7e1790556040805180820190915260098152600160b91b6832ba342fb5b7bb30b7026020820152611fad9061229e565b60006120d373146500cfd35b22e4a392fe0adc06de1a1368ed48611e7d565b111561212d57600180546001600160a01b03191673146500cfd35b22e4a392fe0adc06de1a1368ed4817905560408051808201909152600b8152600160a81b6a6574685f72696e6b656279026020820152611fad9061229e565b600061214c73a2998efd205fb9d4b4963afb70778d6354ad3a41611e7d565b11156121a557600180546001600160a01b03191673a2998efd205fb9d4b4963afb70778d6354ad3a4117905560408051808201909152600a8152600160b01b696574685f676f65726c69026020820152611fad9061229e565b60006121c4736f485c8bf6fc43ea212e93bbf8ce046c7f1cb475611e7d565b11156121f65750600180546001600160a01b031916736f485c8bf6fc43ea212e93bbf8ce046c7f1cb475178155611e07565b60006122157320e12a1f859b3feae5fb2a0a32c18f5a65555bbf611e7d565b11156122475750600180546001600160a01b0319167320e12a1f859b3feae5fb2a0a32c18f5a65555bbf178155611e07565b60006122667351efaf4c8b3c9afbd5ab9f4bbc82784ab6ef8faa611e7d565b11156122985750600180546001600160a01b0319167351efaf4c8b3c9afbd5ab9f4bbc82784ab6ef8faa178155611e07565b50600090565b8051610b9a9060029060208401906122d8565b60408051608081018252600080825260208201819052918101829052606081019190915290565b828054600181600116156101000203166002900490600052602060002090601f016020900481019282601f1061231957805160ff1916838001178555612346565b82800160010185558215612346579182015b8281111561234657825182559160200191906001019061232b565b50612352929150612356565b5090565b611e0791905b80821115612352576000815560010161235c56fe50726f7661626c6520717565727920776173204e4f542073656e742c20706c656173652061646420736f6d652045544820746f20636f76657220666f72207468652071756572792066656521436f6e747261637420696e7374616e63652068617320616c7265616479206265656e20696e697469616c697a65646a736f6e2868747470733a2f2f6170692e70726f2e636f696e626173652e636f6d2f70726f64756374732f4554482d5553442f7469636b6572292e7072696365a165627a7a7230582038c5d028b6f8c8a16838820bd0473f67f5464462bbe5ff88f60731064d577f620029",
  "source": "//(c) Kallol Borah, 2020\r\n// Verified oracle client\r\n// SPDX-License-Identifier: MIT\r\n\r\npragma solidity 0.5.7;\r\n\r\nimport \"./provableAPI.sol\";\r\nimport \"../interfaces/ViaOracle.sol\";\r\nimport \"../utilities/StringUtils.sol\";\r\nimport \"../interfaces/ViaFactory.sol\";\r\nimport \"../interfaces/ViaCash.sol\";\r\nimport \"../interfaces/ViaBond.sol\";\r\nimport \"../interfaces/ViaCash.sol\";\r\nimport \"abdk-libraries-solidity/ABDKMathQuad.sol\";\r\nimport \"@openzeppelin/upgrades/contracts/Initializable.sol\";\r\n\r\ncontract Oracle is ViaOracle, usingProvable, Initializable {\r\n\r\n    using stringutils for *;\r\n\r\n    using ABDKMathQuad for uint256;\r\n    using ABDKMathQuad for int256;\r\n    using ABDKMathQuad for bytes16;\r\n\r\n    //via factory address\r\n    ViaFactory private factory;\r\n\r\n    struct params{\r\n        address payable caller;\r\n        bytes32 tokenType;\r\n        bytes32 rateType;\r\n        bytes32 callbackId;\r\n    }\r\n\r\n    uint constant CUSTOM_GASLIMIT = 500000;\r\n\r\n    mapping (bytes32 => params) public pendingQueries;\r\n\r\n    event LogNewProvableQuery(string description);\r\n    event LogResult(address payable caller, bytes32 myid, bytes32 tokenType, bytes32 rateType, string result);\r\n    \r\n    constructor()\r\n        public\r\n        payable\r\n    {\r\n        //replace OAR if you are testing Oracle with ethereum-bridge (https://github.com/provable-things/ethereum-bridge)\r\n        //OAR = OracleAddrResolverI(0x6f485C8BF6fc43eA212E93BBF8ce046C7f1cb475); \r\n        //provable_setProof(proofType_TLSNotary | proofStorage_IPFS); //only for mainnet\r\n        provable_setCustomGasPrice(20000000000); // i.e. 20 GWei\r\n    }\r\n\r\n    function initialize(address _factory) external initializer{\r\n        require(address(factory)==address(0x0));\r\n        factory = ViaFactory(_factory);\r\n    }                              \r\n\r\n    function __callback(\r\n        bytes32 _myid,\r\n        string memory _result,\r\n        bytes memory _proof\r\n    )\r\n        public \r\n    {\r\n        //to do : lines below throw error\r\n        require(msg.sender == provable_cbAddress());\r\n\r\n        bytes32 callbackId = _myid;\r\n        params memory mpramas = pendingQueries[_myid];\r\n        delete pendingQueries[_myid];\r\n\r\n        if(mpramas.callbackId!=\"\")\r\n            callbackId = mpramas.callbackId;\r\n\r\n        emit LogResult(mpramas.caller, callbackId, mpramas.tokenType, mpramas.rateType, _result);\r\n        \r\n        if(mpramas.tokenType == \"Cash\"){\r\n            ViaCash(mpramas.caller).convert(callbackId, ABDKMathQuad.fromUInt(_result.stringToUint()), mpramas.rateType);\r\n            //ViaCash(mpramas.caller).convert(callbackId, ABDKMathQuad.fromUInt(safeParseInt(_result)), mpramas.rateType);\r\n        }\r\n        else if(mpramas.tokenType == \"Bond\"){\r\n            ViaBond(mpramas.caller).convert(callbackId, ABDKMathQuad.fromUInt(_result.stringToUint()), mpramas.rateType);\r\n            //ViaBond(mpramas.caller).convert(callbackId, ABDKMathQuad.fromUInt(safeParseInt(_result)), mpramas.rateType);\r\n        }\r\n        else if(mpramas.tokenType == \"EthCash\"){\r\n            ViaCash(mpramas.caller).convert(callbackId, ABDKMathQuad.fromUInt(_result.stringToUint()), mpramas.rateType);\r\n            //ViaCash(mpramas.caller).convert(callbackId, ABDKMathQuad.fromUInt(safeParseInt(_result)), mpramas.rateType);\r\n        }\r\n        else if(mpramas.tokenType == \"EthBond\"){\r\n            ViaBond(mpramas.caller).convert(callbackId, ABDKMathQuad.fromUInt(_result.stringToUint()), mpramas.rateType);\r\n            //ViaBond(mpramas.caller).convert(callbackId, ABDKMathQuad.fromUInt(safeParseInt(_result)), mpramas.rateType);\r\n        }\r\n    }\r\n\r\n    function request(bytes calldata _currency, bytes32 _ratetype, bytes32 _tokenType, address payable _tokenContract)\r\n        external\r\n        payable\r\n        returns (bytes32)\r\n    {  \r\n        require(factory.getType(msg.sender) == \"ViaCash\" || factory.getType(msg.sender) == \"ViaBond\");\r\n        if (provable_getPrice(\"URL\", CUSTOM_GASLIMIT) > address(this).balance) {\r\n            emit LogNewProvableQuery(\"Provable query was NOT sent, please add some ETH to cover for the query fee!\");\r\n        } else {\r\n            string memory currency = string(_currency).stringToBytes32().substring(0,14);\r\n            string memory url = factory.getViaOracleUrl();\r\n            if(_ratetype == \"er\" || _ratetype == \"ver\"){\r\n                bytes32 queryId = provable_query(\"URL\", string(abi.encodePacked(\"json(\",url,\"/rates/er/\",currency,\").rate\")),CUSTOM_GASLIMIT);  \r\n                pendingQueries[queryId] = params(_tokenContract, _tokenType, _ratetype,\"\");\r\n                //emit LogNewProvableQuery(string(abi.encodePacked(\"Provable query was sent for Via exchange rates for \",_currency)));\r\n                return queryId;\r\n            }\r\n            else if(_ratetype == \"ir\"){\r\n                bytes32 queryId = provable_query(\"URL\", string(abi.encodePacked(\"json(\",url,\"/rates/ir/\",currency,\").rate\")),CUSTOM_GASLIMIT);\r\n                pendingQueries[queryId] = params(_tokenContract, _tokenType, _ratetype,\"\");\r\n                //emit LogNewProvableQuery(string(abi.encodePacked(\"Provable query was sent for Via interest rates for \",_currency)));\r\n                return queryId;\r\n            }\r\n            else if(_ratetype == \"ethusd\"){\r\n                bytes32 queryId = provable_query(\"URL\", \"json(https://api.pro.coinbase.com/products/ETH-USD/ticker).price\",CUSTOM_GASLIMIT);\r\n                pendingQueries[queryId] = params(_tokenContract, _tokenType, _ratetype,\"\");\r\n                //emit LogNewProvableQuery(string(abi.encodePacked(\"Provable query was sent for ETH-USD, standing by for the answer...\")));\r\n                return queryId;\r\n            }\r\n        }        \r\n    }\r\n\r\n    function setCallbackId(bytes32 _queryId, bytes32 _callbackId) external {\r\n        require(pendingQueries[_queryId].caller==msg.sender);\r\n        pendingQueries[_queryId].callbackId = _callbackId;\r\n    }\r\n\r\n    \r\n    //payout fiat\r\n    function payOut(bytes32 _currency, bytes16 _amount) external {\r\n        require(factory.getType(msg.sender) == \"ViaCash\");\r\n        if (provable_getPrice(\"URL\", CUSTOM_GASLIMIT) > address(this).balance) {\r\n            emit LogNewProvableQuery(\"Provable query was NOT sent, please add some ETH to cover for the query fee!\");\r\n        } else {\r\n            string memory currency = string(abi.encodePacked(_currency)); \r\n            string memory url = factory.getViaOracleUrl();\r\n            string memory amount = string(abi.encodePacked(_amount)); \r\n            provable_query(\"URL\", string(abi.encodePacked(\"json(\",url,\"/payout/\",currency,\"/\",amount,\").pay\")),CUSTOM_GASLIMIT);  \r\n            //emit LogNewProvableQuery(string(abi.encodePacked(\"Provable query was sent for paying out \",_currency)));\r\n        }      \r\n    }\r\n\r\n}",
  "sourcePath": "D:/Code/verified-payments/contracts/oraclize/Oracle.sol",
  "compiler": {
    "name": "solc",
    "version": "0.5.7+commit.6da8b019.Emscripten.clang"
  },
  "schemaVersion": "3.3.3",
  "updatedAt": "2021-05-25T04:31:48.398Z",
  "devdoc": {
    "methods": {
      "__callback(bytes32,string)": {
        "details": "The following `__callback` functions are just placeholders ideally\r     meant to be defined in child contract when proofs are used.\r     The function bodies simply silence compiler warnings.\r"
      }
    }
  },
  "userdoc": {
    "methods": {}
  }
}