{
  "contractName": "Rates",
  "abi": [
    {
      "constant": true,
      "inputs": [
        {
          "name": "",
          "type": "uint256"
        }
      ],
      "name": "managers",
      "outputs": [
        {
          "name": "",
          "type": "address"
        }
      ],
      "payable": false,
      "stateMutability": "view",
      "type": "function"
    },
    {
      "constant": false,
      "inputs": [
        {
          "name": "_factory",
          "type": "address"
        }
      ],
      "name": "initialize",
      "outputs": [],
      "payable": false,
      "stateMutability": "nonpayable",
      "type": "function"
    },
    {
      "constant": true,
      "inputs": [
        {
          "name": "asset",
          "type": "bytes32"
        }
      ],
      "name": "getMargin",
      "outputs": [
        {
          "name": "",
          "type": "bytes16"
        }
      ],
      "payable": false,
      "stateMutability": "view",
      "type": "function"
    },
    {
      "constant": true,
      "inputs": [
        {
          "name": "feeType",
          "type": "bytes32"
        }
      ],
      "name": "getFee",
      "outputs": [
        {
          "name": "",
          "type": "bytes16"
        }
      ],
      "payable": false,
      "stateMutability": "view",
      "type": "function"
    },
    {
      "constant": true,
      "inputs": [],
      "name": "getFeeToSetter",
      "outputs": [
        {
          "name": "",
          "type": "address"
        }
      ],
      "payable": false,
      "stateMutability": "view",
      "type": "function"
    },
    {
      "constant": true,
      "inputs": [
        {
          "name": "sender",
          "type": "address"
        }
      ],
      "name": "getTreasury",
      "outputs": [
        {
          "name": "",
          "type": "bool"
        }
      ],
      "payable": false,
      "stateMutability": "view",
      "type": "function"
    },
    {
      "constant": true,
      "inputs": [],
      "name": "getCustodian",
      "outputs": [
        {
          "name": "",
          "type": "address"
        }
      ],
      "payable": false,
      "stateMutability": "view",
      "type": "function"
    },
    {
      "constant": true,
      "inputs": [],
      "name": "getClient",
      "outputs": [
        {
          "name": "",
          "type": "address"
        }
      ],
      "payable": false,
      "stateMutability": "view",
      "type": "function"
    },
    {
      "constant": false,
      "inputs": [
        {
          "name": "feeTo",
          "type": "address"
        },
        {
          "name": "fee",
          "type": "uint256"
        },
        {
          "name": "feeType",
          "type": "bytes32"
        }
      ],
      "name": "setFeeTo",
      "outputs": [],
      "payable": false,
      "stateMutability": "nonpayable",
      "type": "function"
    },
    {
      "constant": false,
      "inputs": [
        {
          "name": "_feeToSetter",
          "type": "address"
        }
      ],
      "name": "setFeeToSetter",
      "outputs": [],
      "payable": false,
      "stateMutability": "nonpayable",
      "type": "function"
    },
    {
      "constant": false,
      "inputs": [
        {
          "name": "_margin",
          "type": "uint256"
        },
        {
          "name": "_asset",
          "type": "bytes32"
        }
      ],
      "name": "setMargin",
      "outputs": [],
      "payable": false,
      "stateMutability": "nonpayable",
      "type": "function"
    },
    {
      "constant": false,
      "inputs": [
        {
          "name": "_treasury",
          "type": "address"
        }
      ],
      "name": "setTreasury",
      "outputs": [],
      "payable": false,
      "stateMutability": "nonpayable",
      "type": "function"
    },
    {
      "constant": false,
      "inputs": [
        {
          "name": "_custodian",
          "type": "address"
        }
      ],
      "name": "setCustodian",
      "outputs": [],
      "payable": false,
      "stateMutability": "nonpayable",
      "type": "function"
    },
    {
      "constant": false,
      "inputs": [
        {
          "name": "_client",
          "type": "address"
        }
      ],
      "name": "setClient",
      "outputs": [],
      "payable": false,
      "stateMutability": "nonpayable",
      "type": "function"
    }
  ],
  "bytecode": "0x608060405234801561001057600080fd5b506111b8806100206000396000f3fe608060405234801561001057600080fd5b50600436106100ea5760003560e01c8063a2e74af61161008c578063c561d4b711610066578063c561d4b714610293578063e5f3d3a51461029b578063f0f44260146102b8578063f4aa1302146102de576100ea565b8063a2e74af614610224578063a4f09fe61461024a578063c4d66de81461026d576100ea565b806359dc735c116100c857806359dc735c146101825780636174e4241461018a57806378f212d1146101c45780638526690a146101fe576100ea565b80633d39c260146100ef578063403f373114610128578063501e33fa14610150575b600080fd5b61010c6004803603602081101561010557600080fd5b50356102e6565b604080516001600160a01b039092168252519081900360200190f35b61014e6004803603602081101561013e57600080fd5b50356001600160a01b031661030d565b005b61014e6004803603606081101561016657600080fd5b506001600160a01b038135169060208101359060400135610391565b61010c610554565b6101a7600480360360208110156101a057600080fd5b50356106d1565b604080516001600160801b03199092168252519081900360200190f35b6101ea600480360360208110156101da57600080fd5b50356001600160a01b03166106e9565b604080519115158252519081900360200190f35b61014e6004803603602081101561021457600080fd5b50356001600160a01b03166108c8565b61014e6004803603602081101561023a57600080fd5b50356001600160a01b031661094c565b61014e6004803603604081101561026057600080fd5b50803590602001356109d0565b61014e6004803603602081101561028357600080fd5b50356001600160a01b0316610a65565b61010c610b7a565b6101a7600480360360208110156102b157600080fd5b5035610cf7565b61014e600480360360208110156102ce57600080fd5b50356001600160a01b0316610dc5565b61010c610ecb565b603981815481106102f357fe5b6000918252602090912001546001600160a01b0316905081565b6035546001600160a01b0316331461036f5760408051600160e51b62461bcd02815260206004820152601960248201527f53657420637573746f6469616e203a20464f5242494444454e00000000000000604482015290519081900360640190fd5b603680546001600160a01b0319166001600160a01b0392909216919091179055565b6035546001600160a01b031633146103f35760408051600160e51b62461bcd02815260206004820152600e60248201527f5669613a20464f5242494444454e000000000000000000000000000000000000604482015290519081900360640190fd5b80600160c81b6669737375696e670214156104465761041182611048565b6001600160a01b038416600090815260346020526040902080546001600160801b03191660809290921c91909117905561054f565b80600160c81b6674726164696e670214156104a05761046482611048565b6001600160a01b0384166000908152603460205260409020805460809290921c600160801b026001600160801b0390921691909117905561054f565b80600160b01b6972656d697474616e63650214156104f6576104c182611048565b6001600160a01b038416600090815260336020526040902080546001600160801b03191660809290921c91909117905561054f565b80600160b11b693932b232b6b83a34b7b702141561054f5761051782611048565b6001600160a01b0384166000908152603360205260409020805460809290921c600160801b026001600160801b039092169190911790555b505050565b603a5460408051600160e01b63f429f19b02815233600482015290516000926001600160a01b03169163f429f19b916024808301926020929190829003018186803b1580156105a257600080fd5b505afa1580156105b6573d6000803e3d6000fd5b505050506040513d60208110156105cc57600080fd5b5051600160cb1b660acd2c286c2e6d02148061066d5750603a5460408051600160e01b63f429f19b02815233600482015290516001600160a01b039092169163f429f19b91602480820192602092909190829003018186803b15801561063157600080fd5b505afa158015610645573d6000803e3d6000fd5b505050506040513d602081101561065b57600080fd5b5051600160ca1b66159a58509bdb9902145b6106c15760408051600160e51b62461bcd02815260206004820152601660248201527f47657420636c69656e74203a20464f5242494444454e00000000000000000000604482015290519081900360640190fd5b506037546001600160a01b031690565b60008181526038602052604090205460801b5b919050565b603a5460408051600160e01b63f429f19b02815233600482015290516000926001600160a01b03169163f429f19b916024808301926020929190829003018186803b15801561073757600080fd5b505afa15801561074b573d6000803e3d6000fd5b505050506040513d602081101561076157600080fd5b5051600160cb1b660acd2c286c2e6d0214806108025750603a5460408051600160e01b63f429f19b02815233600482015290516001600160a01b039092169163f429f19b91602480820192602092909190829003018186803b1580156107c657600080fd5b505afa1580156107da573d6000803e3d6000fd5b505050506040513d60208110156107f057600080fd5b5051600160ca1b66159a58509bdb9902145b6108565760408051600160e51b62461bcd02815260206004820152601860248201527f476574207472656173757279203a20464f5242494444454e0000000000000000604482015290519081900360640190fd5b6035546001600160a01b0383811691161415610874575060016106e4565b6000805b6039548110156108c157836001600160a01b03166039828154811061089957fe5b6000918252602090912001546001600160a01b031614156108b9576108c1565b600101610878565b5092915050565b6035546001600160a01b0316331461092a5760408051600160e51b62461bcd02815260206004820152601660248201527f53657420636c69656e74203a20464f5242494444454e00000000000000000000604482015290519081900360640190fd5b603780546001600160a01b0319166001600160a01b0392909216919091179055565b6035546001600160a01b031633146109ae5760408051600160e51b62461bcd02815260206004820152601c60248201527f5365742066656520746f207365747465723a20464f5242494444454e00000000604482015290519081900360640190fd5b603580546001600160a01b0319166001600160a01b0392909216919091179055565b6035546001600160a01b03163314610a325760408051600160e51b62461bcd02815260206004820152601660248201527f536574206d617267696e203a20464f5242494444454e00000000000000000000604482015290519081900360640190fd5b610a3b82611048565b60009182526038602052604090912080546001600160801b03191660809290921c91909117905550565b600054610100900460ff1680610a7e5750610a7e6110b4565b80610a8c575060005460ff16155b610aca57604051600160e51b62461bcd02815260040180806020018281038252602e81526020018061115f602e913960400191505060405180910390fd5b600054610100900460ff16158015610af5576000805460ff1961ff0019909116610100171660011790555b603a80546001600160a01b0384166001600160a01b03199182161790915560358054821633908117909155603980546001810182556000919091527fdc16fef70f8d5ddbc01ee3d903d1e69c18a3c7be080eb86a81e0578814ee58d3018054831682179055603680549092161790558015610b76576000805461ff00191690555b5050565b603a5460408051600160e01b63f429f19b02815233600482015290516000926001600160a01b03169163f429f19b916024808301926020929190829003018186803b158015610bc857600080fd5b505afa158015610bdc573d6000803e3d6000fd5b505050506040513d6020811015610bf257600080fd5b5051600160cb1b660acd2c286c2e6d021480610c935750603a5460408051600160e01b63f429f19b02815233600482015290516001600160a01b039092169163f429f19b91602480820192602092909190829003018186803b158015610c5757600080fd5b505afa158015610c6b573d6000803e3d6000fd5b505050506040513d6020811015610c8157600080fd5b5051600160ca1b66159a58509bdb9902145b610ce75760408051600160e51b62461bcd02815260206004820152601960248201527f47657420637573746f6469616e203a20464f5242494444454e00000000000000604482015290519081900360640190fd5b506036546001600160a01b031690565b600081600160c81b6669737375696e67021415610d2757503360009081526034602052604090205460801b6106e4565b81600160c81b6674726164696e67021415610d5c575033600090815260346020526040902054600160801b900460801b6106e4565b81600160b01b6972656d697474616e6365021415610d8d57503360009081526033602052604090205460801b6106e4565b81600160b11b693932b232b6b83a34b7b70214156106e4575033600090815260336020526040902054600160801b900460801b6106e4565b6035546001600160a01b03163314610e275760408051600160e51b62461bcd02815260206004820152601860248201527f536574207472656173757279203a20464f5242494444454e0000000000000000604482015290519081900360640190fd5b6000805b603954811015610e7457826001600160a01b031660398281548110610e4c57fe5b6000918252602090912001546001600160a01b03161415610e6c57610e74565b600101610e2b565b8161054f57603980546001810182556000919091527fdc16fef70f8d5ddbc01ee3d903d1e69c18a3c7be080eb86a81e0578814ee58d30180546001600160a01b0385166001600160a01b0319909116179055505050565b603a5460408051600160e01b63f429f19b02815233600482015290516000926001600160a01b03169163f429f19b916024808301926020929190829003018186803b158015610f1957600080fd5b505afa158015610f2d573d6000803e3d6000fd5b505050506040513d6020811015610f4357600080fd5b5051600160cb1b660acd2c286c2e6d021480610fe45750603a5460408051600160e01b63f429f19b02815233600482015290516001600160a01b039092169163f429f19b91602480820192602092909190829003018186803b158015610fa857600080fd5b505afa158015610fbc573d6000803e3d6000fd5b505050506040513d6020811015610fd257600080fd5b5051600160ca1b66159a58509bdb9902145b6110385760408051600160e51b62461bcd02815260206004820152601a60248201527f4765742066656520736574746572203a20464f5242494444454e000000000000604482015290519081900360640190fd5b506035546001600160a01b031690565b600081611057575060006106e4565b816000611063826110ba565b9050607081101561107c578060700382901b915061108f565b607081111561108f576070810382901c91505b613fff0160701b6dffffffffffffffffffffffffffff919091161760801b90506106e4565b303b1590565b60008082116110c857600080fd5b6000600160801b83106110dd57608092831c92015b6801000000000000000083106110f557604092831c92015b640100000000831061110957602092831c92015b62010000831061111b57601092831c92015b610100831061112c57600892831c92015b6010831061113c57600492831c92015b6004831061114c57600292831c92015b60028310611158576001015b9291505056fe436f6e747261637420696e7374616e63652068617320616c7265616479206265656e20696e697469616c697a6564a165627a7a7230582097d30e0c9d9ba647f532a57521bb8cdbc012694a109fc5aa75eb8dcf09b2bd620029",
  "source": "// (c) Kallol Borah, 2020\r\n// Implementation of authorized persons and rates for services\r\n// SPDX-License-Identifier: MIT\r\n\r\npragma solidity 0.5.7;\r\n\r\nimport \"./interfaces/ViaFactory.sol\";\r\nimport \"./interfaces/VerifiedRates.sol\";\r\nimport \"abdk-libraries-solidity/ABDKMathQuad.sol\";\r\nimport \"@openzeppelin/upgrades/contracts/Initializable.sol\";\r\n\r\ncontract Rates is VerifiedRates, Initializable {\r\n\r\n    using ABDKMathQuad for uint256;\r\n    using ABDKMathQuad for int256;\r\n    using ABDKMathQuad for bytes16;\r\n\r\n    //fee structure for payments\r\n    struct payments{\r\n        bytes16 remittance;\r\n        bytes16 redemption;\r\n    }\r\n\r\n    mapping(address => payments) private paymentFees;\r\n\r\n    //fee structure for bond issuing\r\n    struct issues{\r\n        bytes16 issuing;\r\n        bytes16 trading;\r\n    }\r\n\r\n    mapping(address => issues) private issuingFees;\r\n\r\n    //address of who gets Via fees\r\n    address feeToSetter;\r\n\r\n    //address of custodian\r\n    address custodian;\r\n\r\n    //address of client contract\r\n    address client;\r\n\r\n    //list of assets and their margins\r\n    mapping(bytes32 => bytes16) assets;\r\n\r\n    //list of treasury managers\r\n    address[] public managers;\r\n\r\n    ViaFactory private factory;\r\n\r\n    function initialize(address _factory) public initializer{\r\n        factory = ViaFactory(_factory);\r\n        feeToSetter = msg.sender;\r\n        managers.push(msg.sender);\r\n        custodian = msg.sender;\r\n    }\r\n\r\n    //get margin for asset \r\n    function getMargin(bytes32 asset) external view returns(bytes16) {\r\n        return assets[asset];\r\n    }\r\n\r\n    //get fee for different services\r\n    function getFee(bytes32 feeType) external view returns(bytes16){\r\n        if(feeType==\"issuing\"){\r\n            return (issuingFees[msg.sender].issuing);\r\n        }\r\n        else if(feeType==\"trading\"){\r\n            return (issuingFees[msg.sender].trading);\r\n        }\r\n        else if(feeType==\"remittance\"){\r\n            return (paymentFees[msg.sender].remittance);\r\n        }\r\n        else if(feeType==\"redemption\"){\r\n            return (paymentFees[msg.sender].redemption);\r\n        }\r\n    }\r\n\r\n    //gets address to which fee income has to be transferred\r\n    function getFeeToSetter() external view returns(address){\r\n        require(factory.getType(msg.sender) == \"ViaCash\" || factory.getType(msg.sender) == \"ViaBond\", 'Get fee setter : FORBIDDEN');\r\n        return feeToSetter;\r\n    }\r\n\r\n    //verifies if sender (who requests issue of cash tokens against fiat / bond tokens against non-ether assets) is a treasurer\r\n    function getTreasury(address sender) external view returns(bool){\r\n        require(factory.getType(msg.sender) == \"ViaCash\" || factory.getType(msg.sender) == \"ViaBond\", 'Get treasury : FORBIDDEN');\r\n        if(sender==feeToSetter)\r\n            return true;\r\n        bool found = false;\r\n        uint256 i=0;\r\n        for(i=0; i<managers.length; i++){\r\n            if(managers[i]==sender){\r\n                found == true;\r\n                break;\r\n            }\r\n        }\r\n        return found;\r\n    }\r\n\r\n    //get Custodian address for transferring (backing up) assets\r\n    function getCustodian() external view returns(address){\r\n        require(factory.getType(msg.sender) == \"ViaCash\" || factory.getType(msg.sender) == \"ViaBond\", 'Get custodian : FORBIDDEN');\r\n        return custodian;\r\n    }\r\n\r\n    //get Verified client address for AML check\r\n    function getClient() external view returns(address){\r\n        require(factory.getType(msg.sender) == \"ViaCash\" || factory.getType(msg.sender) == \"ViaBond\", 'Get client : FORBIDDEN');\r\n        return client;\r\n    }\r\n\r\n    function setFeeTo(address feeTo, uint256 fee, bytes32 feeType) external {\r\n        require(msg.sender == feeToSetter, 'Via: FORBIDDEN');\r\n        if(feeType==\"issuing\"){\r\n            issuingFees[feeTo].issuing = ABDKMathQuad.fromUInt(fee);\r\n        }\r\n        else if(feeType==\"trading\"){\r\n            issuingFees[feeTo].trading = ABDKMathQuad.fromUInt(fee);\r\n        }\r\n        else if(feeType==\"remittance\"){\r\n            paymentFees[feeTo].remittance = ABDKMathQuad.fromUInt(fee);\r\n        }\r\n        else if(feeType==\"redemption\"){\r\n            paymentFees[feeTo].redemption = ABDKMathQuad.fromUInt(fee);\r\n        }\r\n    }\r\n\r\n    function setFeeToSetter(address _feeToSetter) external {\r\n        require(msg.sender == feeToSetter, 'Set fee to setter: FORBIDDEN');\r\n        feeToSetter = _feeToSetter;\r\n    }  \r\n\r\n    function setMargin(uint256 _margin, bytes32 _asset) external {\r\n        require(msg.sender == feeToSetter, 'Set margin : FORBIDDEN');\r\n        assets[_asset] = ABDKMathQuad.fromUInt(_margin);\r\n    }\r\n\r\n    function setTreasury(address _treasury) external {\r\n        require(msg.sender == feeToSetter, 'Set treasury : FORBIDDEN');\r\n        bool found = false;\r\n        uint256 i=0;\r\n        for(i=0; i<managers.length; i++){\r\n            if(managers[i]==_treasury){\r\n                found == true;\r\n                break;\r\n            }\r\n        }\r\n        if(!found)\r\n            managers.push(_treasury);\r\n    }\r\n\r\n    function setCustodian(address _custodian) external {\r\n        require(msg.sender == feeToSetter, 'Set custodian : FORBIDDEN');\r\n        custodian = _custodian;\r\n    }\r\n\r\n    function setClient(address _client) external {\r\n        require(msg.sender == feeToSetter, 'Set client : FORBIDDEN');\r\n        client = _client;\r\n    }\r\n\r\n}",
  "sourcePath": "D:\\Code\\verified-payments\\contracts\\Rates.sol",
  "compiler": {
    "name": "solc",
    "version": "0.5.7+commit.6da8b019.Emscripten.clang"
  },
  "schemaVersion": "3.4.3",
  "updatedAt": "2021-10-11T01:59:58.624Z",
  "networkType": "ethereum",
  "devdoc": {
    "methods": {}
  },
  "userdoc": {
    "methods": {}
  }
}