{
  "contractName": "Rates",
  "abi": [
    {
      "constant": true,
      "inputs": [
        {
          "name": "",
          "type": "uint256"
        }
      ],
      "name": "managers",
      "outputs": [
        {
          "name": "",
          "type": "address"
        }
      ],
      "payable": false,
      "stateMutability": "view",
      "type": "function"
    },
    {
      "constant": false,
      "inputs": [
        {
          "name": "_factory",
          "type": "address"
        }
      ],
      "name": "initialize",
      "outputs": [],
      "payable": false,
      "stateMutability": "nonpayable",
      "type": "function"
    },
    {
      "constant": true,
      "inputs": [
        {
          "name": "asset",
          "type": "bytes32"
        }
      ],
      "name": "getMargin",
      "outputs": [
        {
          "name": "",
          "type": "bytes16"
        }
      ],
      "payable": false,
      "stateMutability": "view",
      "type": "function"
    },
    {
      "constant": true,
      "inputs": [
        {
          "name": "feeType",
          "type": "bytes32"
        }
      ],
      "name": "getFee",
      "outputs": [
        {
          "name": "",
          "type": "bytes16"
        }
      ],
      "payable": false,
      "stateMutability": "view",
      "type": "function"
    },
    {
      "constant": true,
      "inputs": [],
      "name": "getFeeToSetter",
      "outputs": [
        {
          "name": "",
          "type": "address"
        }
      ],
      "payable": false,
      "stateMutability": "view",
      "type": "function"
    },
    {
      "constant": true,
      "inputs": [
        {
          "name": "sender",
          "type": "address"
        }
      ],
      "name": "getTreasury",
      "outputs": [
        {
          "name": "",
          "type": "bool"
        }
      ],
      "payable": false,
      "stateMutability": "view",
      "type": "function"
    },
    {
      "constant": true,
      "inputs": [],
      "name": "getCustodian",
      "outputs": [
        {
          "name": "",
          "type": "address"
        }
      ],
      "payable": false,
      "stateMutability": "view",
      "type": "function"
    },
    {
      "constant": false,
      "inputs": [
        {
          "name": "feeTo",
          "type": "address"
        },
        {
          "name": "fee",
          "type": "uint256"
        },
        {
          "name": "feeType",
          "type": "bytes32"
        }
      ],
      "name": "setFeeTo",
      "outputs": [],
      "payable": false,
      "stateMutability": "nonpayable",
      "type": "function"
    },
    {
      "constant": false,
      "inputs": [
        {
          "name": "_feeToSetter",
          "type": "address"
        }
      ],
      "name": "setFeeToSetter",
      "outputs": [],
      "payable": false,
      "stateMutability": "nonpayable",
      "type": "function"
    },
    {
      "constant": false,
      "inputs": [
        {
          "name": "_margin",
          "type": "uint256"
        },
        {
          "name": "_asset",
          "type": "bytes32"
        }
      ],
      "name": "setMargin",
      "outputs": [],
      "payable": false,
      "stateMutability": "nonpayable",
      "type": "function"
    },
    {
      "constant": false,
      "inputs": [
        {
          "name": "_treasury",
          "type": "address"
        }
      ],
      "name": "setTreasury",
      "outputs": [],
      "payable": false,
      "stateMutability": "nonpayable",
      "type": "function"
    },
    {
      "constant": false,
      "inputs": [
        {
          "name": "_custodian",
          "type": "address"
        }
      ],
      "name": "setCustodian",
      "outputs": [],
      "payable": false,
      "stateMutability": "nonpayable",
      "type": "function"
    }
  ],
  "bytecode": "0x608060405234801561001057600080fd5b50610f53806100206000396000f3fe608060405234801561001057600080fd5b50600436106100b45760003560e01c8063a4f09fe611610071578063a4f09fe6146101e6578063c4d66de814610209578063c561d4b71461022f578063e5f3d3a514610237578063f0f4426014610254578063f4aa13021461027a576100b4565b80633d39c260146100b9578063403f3731146100f2578063501e33fa1461011a5780636174e4241461014c57806378f212d114610186578063a2e74af6146101c0575b600080fd5b6100d6600480360360208110156100cf57600080fd5b5035610282565b604080516001600160a01b039092168252519081900360200190f35b6101186004803603602081101561010857600080fd5b50356001600160a01b03166102a9565b005b6101186004803603606081101561013057600080fd5b506001600160a01b03813516906020810135906040013561032d565b6101696004803603602081101561016257600080fd5b50356104f0565b604080516001600160801b03199092168252519081900360200190f35b6101ac6004803603602081101561019c57600080fd5b50356001600160a01b0316610508565b604080519115158252519081900360200190f35b610118600480360360208110156101d657600080fd5b50356001600160a01b03166106e7565b610118600480360360408110156101fc57600080fd5b508035906020013561076b565b6101186004803603602081101561021f57600080fd5b50356001600160a01b0316610800565b6100d6610915565b6101696004803603602081101561024d57600080fd5b5035610a92565b6101186004803603602081101561026a57600080fd5b50356001600160a01b0316610b60565b6100d6610c66565b6038818154811061028f57fe5b6000918252602090912001546001600160a01b0316905081565b6035546001600160a01b0316331461030b5760408051600160e51b62461bcd02815260206004820152601960248201527f53657420637573746f6469616e203a20464f5242494444454e00000000000000604482015290519081900360640190fd5b603680546001600160a01b0319166001600160a01b0392909216919091179055565b6035546001600160a01b0316331461038f5760408051600160e51b62461bcd02815260206004820152600e60248201527f5669613a20464f5242494444454e000000000000000000000000000000000000604482015290519081900360640190fd5b80600160c81b6669737375696e670214156103e2576103ad82610de3565b6001600160a01b038416600090815260346020526040902080546001600160801b03191660809290921c9190911790556104eb565b80600160c81b6674726164696e6702141561043c5761040082610de3565b6001600160a01b0384166000908152603460205260409020805460809290921c600160801b026001600160801b039092169190911790556104eb565b80600160b01b6972656d697474616e63650214156104925761045d82610de3565b6001600160a01b038416600090815260336020526040902080546001600160801b03191660809290921c9190911790556104eb565b80600160b11b693932b232b6b83a34b7b70214156104eb576104b382610de3565b6001600160a01b0384166000908152603360205260409020805460809290921c600160801b026001600160801b039092169190911790555b505050565b60008181526037602052604090205460801b5b919050565b60395460408051600160e01b63f429f19b02815233600482015290516000926001600160a01b03169163f429f19b916024808301926020929190829003018186803b15801561055657600080fd5b505afa15801561056a573d6000803e3d6000fd5b505050506040513d602081101561058057600080fd5b5051600160cb1b660acd2c286c2e6d021480610621575060395460408051600160e01b63f429f19b02815233600482015290516001600160a01b039092169163f429f19b91602480820192602092909190829003018186803b1580156105e557600080fd5b505afa1580156105f9573d6000803e3d6000fd5b505050506040513d602081101561060f57600080fd5b5051600160ca1b66159a58509bdb9902145b6106755760408051600160e51b62461bcd02815260206004820152601860248201527f476574207472656173757279203a20464f5242494444454e0000000000000000604482015290519081900360640190fd5b6035546001600160a01b038381169116141561069357506001610503565b6000805b6038548110156106e057836001600160a01b0316603882815481106106b857fe5b6000918252602090912001546001600160a01b031614156106d8576106e0565b600101610697565b5092915050565b6035546001600160a01b031633146107495760408051600160e51b62461bcd02815260206004820152601c60248201527f5365742066656520746f207365747465723a20464f5242494444454e00000000604482015290519081900360640190fd5b603580546001600160a01b0319166001600160a01b0392909216919091179055565b6035546001600160a01b031633146107cd5760408051600160e51b62461bcd02815260206004820152601660248201527f536574206d617267696e203a20464f5242494444454e00000000000000000000604482015290519081900360640190fd5b6107d682610de3565b60009182526037602052604090912080546001600160801b03191660809290921c91909117905550565b600054610100900460ff16806108195750610819610e4f565b80610827575060005460ff16155b61086557604051600160e51b62461bcd02815260040180806020018281038252602e815260200180610efa602e913960400191505060405180910390fd5b600054610100900460ff16158015610890576000805460ff1961ff0019909116610100171660011790555b603980546001600160a01b0384166001600160a01b03199182161790915560358054821633908117909155603880546001810182556000919091527f38395c5dceade9603479b177b68959049485df8aa97b39f3533039af5f456199018054831682179055603680549092161790558015610911576000805461ff00191690555b5050565b60395460408051600160e01b63f429f19b02815233600482015290516000926001600160a01b03169163f429f19b916024808301926020929190829003018186803b15801561096357600080fd5b505afa158015610977573d6000803e3d6000fd5b505050506040513d602081101561098d57600080fd5b5051600160cb1b660acd2c286c2e6d021480610a2e575060395460408051600160e01b63f429f19b02815233600482015290516001600160a01b039092169163f429f19b91602480820192602092909190829003018186803b1580156109f257600080fd5b505afa158015610a06573d6000803e3d6000fd5b505050506040513d6020811015610a1c57600080fd5b5051600160ca1b66159a58509bdb9902145b610a825760408051600160e51b62461bcd02815260206004820152601960248201527f47657420637573746f6469616e203a20464f5242494444454e00000000000000604482015290519081900360640190fd5b506036546001600160a01b031690565b600081600160c81b6669737375696e67021415610ac257503360009081526034602052604090205460801b610503565b81600160c81b6674726164696e67021415610af7575033600090815260346020526040902054600160801b900460801b610503565b81600160b01b6972656d697474616e6365021415610b2857503360009081526033602052604090205460801b610503565b81600160b11b693932b232b6b83a34b7b7021415610503575033600090815260336020526040902054600160801b900460801b610503565b6035546001600160a01b03163314610bc25760408051600160e51b62461bcd02815260206004820152601860248201527f536574207472656173757279203a20464f5242494444454e0000000000000000604482015290519081900360640190fd5b6000805b603854811015610c0f57826001600160a01b031660388281548110610be757fe5b6000918252602090912001546001600160a01b03161415610c0757610c0f565b600101610bc6565b816104eb57603880546001810182556000919091527f38395c5dceade9603479b177b68959049485df8aa97b39f3533039af5f4561990180546001600160a01b0385166001600160a01b0319909116179055505050565b60395460408051600160e01b63f429f19b02815233600482015290516000926001600160a01b03169163f429f19b916024808301926020929190829003018186803b158015610cb457600080fd5b505afa158015610cc8573d6000803e3d6000fd5b505050506040513d6020811015610cde57600080fd5b5051600160cb1b660acd2c286c2e6d021480610d7f575060395460408051600160e01b63f429f19b02815233600482015290516001600160a01b039092169163f429f19b91602480820192602092909190829003018186803b158015610d4357600080fd5b505afa158015610d57573d6000803e3d6000fd5b505050506040513d6020811015610d6d57600080fd5b5051600160ca1b66159a58509bdb9902145b610dd35760408051600160e51b62461bcd02815260206004820152601a60248201527f4765742066656520736574746572203a20464f5242494444454e000000000000604482015290519081900360640190fd5b506035546001600160a01b031690565b600081610df257506000610503565b816000610dfe82610e55565b90506070811015610e17578060700382901b9150610e2a565b6070811115610e2a576070810382901c91505b613fff0160701b6dffffffffffffffffffffffffffff919091161760801b9050610503565b303b1590565b6000808211610e6357600080fd5b6000600160801b8310610e7857608092831c92015b680100000000000000008310610e9057604092831c92015b6401000000008310610ea457602092831c92015b620100008310610eb657601092831c92015b6101008310610ec757600892831c92015b60108310610ed757600492831c92015b60048310610ee757600292831c92015b60028310610ef3576001015b9291505056fe436f6e747261637420696e7374616e63652068617320616c7265616479206265656e20696e697469616c697a6564a165627a7a72305820069ee6312dafeaefef8edf69765150f4d62e970ec43dae8cf93905ab775ef64d0029",
  "source": "// (c) Kallol Borah, 2020\r\n// Implementation of authorized persons and rates for services\r\n// SPDX-License-Identifier: MIT\r\n\r\npragma solidity 0.5.7;\r\n\r\nimport \"./interfaces/ViaFactory.sol\";\r\nimport \"./interfaces/VerifiedRates.sol\";\r\nimport \"abdk-libraries-solidity/ABDKMathQuad.sol\";\r\nimport \"@openzeppelin/upgrades/contracts/Initializable.sol\";\r\n\r\ncontract Rates is VerifiedRates, Initializable {\r\n\r\n    using ABDKMathQuad for uint256;\r\n    using ABDKMathQuad for int256;\r\n    using ABDKMathQuad for bytes16;\r\n\r\n    //fee structure for payments\r\n    struct payments{\r\n        bytes16 remittance;\r\n        bytes16 redemption;\r\n    }\r\n\r\n    mapping(address => payments) private paymentFees;\r\n\r\n    //fee structure for bond issuing\r\n    struct issues{\r\n        bytes16 issuing;\r\n        bytes16 trading;\r\n    }\r\n\r\n    mapping(address => issues) private issuingFees;\r\n\r\n    //address of who gets Via fees\r\n    address feeToSetter;\r\n\r\n    //address of custodian\r\n    address custodian;\r\n\r\n    //list of assets and their margins\r\n    mapping(bytes32 => bytes16) assets;\r\n\r\n    //list of treasury managers\r\n    address[] public managers;\r\n\r\n    ViaFactory private factory;\r\n\r\n    function initialize(address _factory) public initializer{\r\n        factory = ViaFactory(_factory);\r\n        feeToSetter = msg.sender;\r\n        managers.push(msg.sender);\r\n        custodian = msg.sender;\r\n    }\r\n\r\n    //get margin for asset \r\n    function getMargin(bytes32 asset) external view returns(bytes16) {\r\n        return assets[asset];\r\n    }\r\n\r\n    //get fee for different services\r\n    function getFee(bytes32 feeType) external view returns(bytes16){\r\n        if(feeType==\"issuing\"){\r\n            return (issuingFees[msg.sender].issuing);\r\n        }\r\n        else if(feeType==\"trading\"){\r\n            return (issuingFees[msg.sender].trading);\r\n        }\r\n        else if(feeType==\"remittance\"){\r\n            return (paymentFees[msg.sender].remittance);\r\n        }\r\n        else if(feeType==\"redemption\"){\r\n            return (paymentFees[msg.sender].redemption);\r\n        }\r\n    }\r\n\r\n    //gets address to which fee income has to be transferred\r\n    function getFeeToSetter() external view returns(address){\r\n        require(factory.getType(msg.sender) == \"ViaCash\" || factory.getType(msg.sender) == \"ViaBond\", 'Get fee setter : FORBIDDEN');\r\n        return feeToSetter;\r\n    }\r\n\r\n    //verifies if sender (who requests issue of cash tokens against fiat / bond tokens against non-ether assets) is a treasurer\r\n    function getTreasury(address sender) external view returns(bool){\r\n        require(factory.getType(msg.sender) == \"ViaCash\" || factory.getType(msg.sender) == \"ViaBond\", 'Get treasury : FORBIDDEN');\r\n        if(sender==feeToSetter)\r\n            return true;\r\n        bool found = false;\r\n        uint256 i=0;\r\n        for(i=0; i<managers.length; i++){\r\n            if(managers[i]==sender){\r\n                found == true;\r\n                break;\r\n            }\r\n        }\r\n        return found;\r\n    }\r\n\r\n    //get Custodian address for transferring (backing up) assets\r\n    function getCustodian() external view returns(address){\r\n        require(factory.getType(msg.sender) == \"ViaCash\" || factory.getType(msg.sender) == \"ViaBond\", 'Get custodian : FORBIDDEN');\r\n        return custodian;\r\n    }\r\n\r\n    function setFeeTo(address feeTo, uint256 fee, bytes32 feeType) external {\r\n        require(msg.sender == feeToSetter, 'Via: FORBIDDEN');\r\n        if(feeType==\"issuing\"){\r\n            issuingFees[feeTo].issuing = ABDKMathQuad.fromUInt(fee);\r\n        }\r\n        else if(feeType==\"trading\"){\r\n            issuingFees[feeTo].trading = ABDKMathQuad.fromUInt(fee);\r\n        }\r\n        else if(feeType==\"remittance\"){\r\n            paymentFees[feeTo].remittance = ABDKMathQuad.fromUInt(fee);\r\n        }\r\n        else if(feeType==\"redemption\"){\r\n            paymentFees[feeTo].redemption = ABDKMathQuad.fromUInt(fee);\r\n        }\r\n    }\r\n\r\n    function setFeeToSetter(address _feeToSetter) external {\r\n        require(msg.sender == feeToSetter, 'Set fee to setter: FORBIDDEN');\r\n        feeToSetter = _feeToSetter;\r\n    }  \r\n\r\n    function setMargin(uint256 _margin, bytes32 _asset) external {\r\n        require(msg.sender == feeToSetter, 'Set margin : FORBIDDEN');\r\n        assets[_asset] = ABDKMathQuad.fromUInt(_margin);\r\n    }\r\n\r\n    function setTreasury(address _treasury) external {\r\n        require(msg.sender == feeToSetter, 'Set treasury : FORBIDDEN');\r\n        bool found = false;\r\n        uint256 i=0;\r\n        for(i=0; i<managers.length; i++){\r\n            if(managers[i]==_treasury){\r\n                found == true;\r\n                break;\r\n            }\r\n        }\r\n        if(!found)\r\n            managers.push(_treasury);\r\n    }\r\n\r\n    function setCustodian(address _custodian) external {\r\n        require(msg.sender == feeToSetter, 'Set custodian : FORBIDDEN');\r\n        custodian = _custodian;\r\n    }\r\n\r\n}",
  "sourcePath": "D:\\Code\\verified-payments\\contracts\\Rates.sol",
  "compiler": {
    "name": "solc",
    "version": "0.5.7+commit.6da8b019.Emscripten.clang"
  },
  "schemaVersion": "3.4.3",
  "updatedAt": "2021-12-23T09:24:25.651Z",
  "networkType": "ethereum",
  "devdoc": {
    "methods": {}
  },
  "userdoc": {
    "methods": {}
  }
}