{
  "contractName": "Rates",
  "abi": [
    {
      "constant": false,
      "inputs": [],
      "name": "initialize",
      "outputs": [],
      "payable": false,
      "stateMutability": "nonpayable",
      "type": "function"
    },
    {
      "constant": false,
      "inputs": [
        {
          "name": "feeTo",
          "type": "address"
        },
        {
          "name": "fee",
          "type": "uint256"
        },
        {
          "name": "feeType",
          "type": "bytes32"
        }
      ],
      "name": "setFeeTo",
      "outputs": [],
      "payable": false,
      "stateMutability": "nonpayable",
      "type": "function"
    },
    {
      "constant": false,
      "inputs": [
        {
          "name": "_feeToSetter",
          "type": "address"
        }
      ],
      "name": "setFeeToSetter",
      "outputs": [],
      "payable": false,
      "stateMutability": "nonpayable",
      "type": "function"
    },
    {
      "constant": false,
      "inputs": [
        {
          "name": "_margin",
          "type": "uint256"
        },
        {
          "name": "_asset",
          "type": "bytes32"
        }
      ],
      "name": "setMargin",
      "outputs": [],
      "payable": false,
      "stateMutability": "nonpayable",
      "type": "function"
    },
    {
      "constant": false,
      "inputs": [
        {
          "name": "_treasury",
          "type": "address"
        }
      ],
      "name": "setTreasury",
      "outputs": [],
      "payable": false,
      "stateMutability": "nonpayable",
      "type": "function"
    },
    {
      "constant": false,
      "inputs": [
        {
          "name": "_custodian",
          "type": "address"
        }
      ],
      "name": "setCustodian",
      "outputs": [],
      "payable": false,
      "stateMutability": "nonpayable",
      "type": "function"
    },
    {
      "constant": true,
      "inputs": [
        {
          "name": "asset",
          "type": "bytes32"
        }
      ],
      "name": "getMargin",
      "outputs": [
        {
          "name": "margin",
          "type": "uint256"
        }
      ],
      "payable": false,
      "stateMutability": "view",
      "type": "function"
    },
    {
      "constant": true,
      "inputs": [
        {
          "name": "feeType",
          "type": "bytes32"
        }
      ],
      "name": "getFee",
      "outputs": [
        {
          "name": "fee",
          "type": "uint256"
        }
      ],
      "payable": false,
      "stateMutability": "view",
      "type": "function"
    },
    {
      "constant": true,
      "inputs": [],
      "name": "getFeeToSetter",
      "outputs": [
        {
          "name": "",
          "type": "address"
        }
      ],
      "payable": false,
      "stateMutability": "view",
      "type": "function"
    },
    {
      "constant": true,
      "inputs": [],
      "name": "getCustodian",
      "outputs": [
        {
          "name": "",
          "type": "address"
        }
      ],
      "payable": false,
      "stateMutability": "view",
      "type": "function"
    },
    {
      "constant": false,
      "inputs": [
        {
          "name": "percent",
          "type": "uint256"
        },
        {
          "name": "transferFrom",
          "type": "address"
        }
      ],
      "name": "transferToCustody",
      "outputs": [
        {
          "name": "",
          "type": "bool"
        }
      ],
      "payable": false,
      "stateMutability": "nonpayable",
      "type": "function"
    }
  ],
  "bytecode": "0x608060405234801561001057600080fd5b50610eac806100206000396000f3fe608060405234801561001057600080fd5b50600436106100a95760003560e01c8063a2e74af611610071578063a2e74af61461017f578063a4f09fe6146101a5578063c561d4b7146101c8578063e5f3d3a5146101ec578063f0f4426014610209578063f4aa13021461022f576100a9565b8063403f3731146100ae578063501e33fa146100d65780635ccdbb78146101085780636174e424146101485780638129fc1c14610177575b600080fd5b6100d4600480360360208110156100c457600080fd5b50356001600160a01b0316610237565b005b6100d4600480360360608110156100ec57600080fd5b506001600160a01b0381351690602081013590604001356102bb565b6101346004803603604081101561011e57600080fd5b50803590602001356001600160a01b031661047e565b604080519115158252519081900360200190f35b6101656004803603602081101561015e57600080fd5b503561054e565b60408051918252519081900360200190f35b6100d4610571565b6100d46004803603602081101561019557600080fd5b50356001600160a01b031661067c565b6100d4600480360360408110156101bb57600080fd5b5080359060200135610700565b6101d0610795565b604080516001600160a01b039092168252519081900360200190f35b6101656004803603602081101561020257600080fd5b50356107a4565b6100d46004803603602081101561021f57600080fd5b50356001600160a01b0316610885565b6101d061098b565b6035546001600160a01b031633146102995760408051600160e51b62461bcd02815260206004820152601960248201527f53657420637573746f6469616e203a20464f5242494444454e00000000000000604482015290519081900360640190fd5b603680546001600160a01b0319166001600160a01b0392909216919091179055565b6035546001600160a01b0316331461031d5760408051600160e51b62461bcd02815260206004820152600e60248201527f5669613a20464f5242494444454e000000000000000000000000000000000000604482015290519081900360640190fd5b80600160c81b6669737375696e670214156103705761033b8261099a565b6001600160a01b038416600090815260346020526040902080546001600160801b03191660809290921c919091179055610479565b80600160c81b6674726164696e670214156103ca5761038e8261099a565b6001600160a01b0384166000908152603460205260409020805460809290921c600160801b026001600160801b03909216919091179055610479565b80600160b01b6972656d697474616e6365021415610420576103eb8261099a565b6001600160a01b038416600090815260336020526040902080546001600160801b03191660809290921c919091179055610479565b80600160b11b693932b232b6b83a34b7b7021415610479576104418261099a565b6001600160a01b0384166000908152603360205260409020805460809290921c600160801b026001600160801b039092169190911790555b505050565b6000610489336109ff565b151560011461049757600080fd5b60395460ff16156104a757600080fd5b6039805460ff191660011790556036546001600160a01b03161561053a576036546001600160a01b03908116906108fc906104ff906104fa906104ec9087163161099a565b6104f58861099a565b610a74565b610d10565b6040518115909202916000818181858888f19350505050158015610527573d6000803e3d6000fd5b50506039805460ff191690556001610548565b506039805460ff1916905560005b92915050565b6000818152603760205260408120546105699060801b610d10565b90505b919050565b600054610100900460ff168061058a575061058a610da9565b80610598575060005460ff16155b6105d657604051600160e51b62461bcd02815260040180806020018281038252602e815260200180610e53602e913960400191505060405180910390fd5b600054610100900460ff16158015610601576000805460ff1961ff0019909116610100171660011790555b60358054336001600160a01b03199182168117909255603880546001810182556000919091527f38395c5dceade9603479b177b68959049485df8aa97b39f3533039af5f4561990180548216831790556036805490911690911790556039805460ff191690558015610679576000805461ff00191690555b50565b6035546001600160a01b031633146106de5760408051600160e51b62461bcd02815260206004820152601c60248201527f5365742066656520746f207365747465723a20464f5242494444454e00000000604482015290519081900360640190fd5b603580546001600160a01b0319166001600160a01b0392909216919091179055565b6035546001600160a01b031633146107625760408051600160e51b62461bcd02815260206004820152601660248201527f536574206d617267696e203a20464f5242494444454e00000000000000000000604482015290519081900360640190fd5b61076b8261099a565b60009182526037602052604090912080546001600160801b03191660809290921c91909117905550565b6036546001600160a01b031690565b600081600160c81b6669737375696e670214156107de57336000908152603460205260409020546107d79060801b610d10565b905061056c565b81600160c81b6674726164696e6702141561081657336000908152603460205260409020546107d790600160801b900460801b610d10565b81600160b01b6972656d697474616e636502141561084a57336000908152603360205260409020546107d79060801b610d10565b81600160b11b693932b232b6b83a34b7b702141561056c57336000908152603360205260409020546107d790600160801b900460801b610d10565b6035546001600160a01b031633146108e75760408051600160e51b62461bcd02815260206004820152601860248201527f536574207472656173757279203a20464f5242494444454e0000000000000000604482015290519081900360640190fd5b6000805b60385481101561093457826001600160a01b03166038828154811061090c57fe5b6000918252602090912001546001600160a01b0316141561092c57610934565b6001016108eb565b8161047957603880546001810182556000919091527f38395c5dceade9603479b177b68959049485df8aa97b39f3533039af5f4561990180546001600160a01b0385166001600160a01b0319909116179055505050565b6035546001600160a01b031690565b6000816109a95750600061056c565b8160006109b582610daf565b905060708110156109ce578060700382901b91506109e1565b60708111156109e1576070810382901c91505b613fff0160701b6001600160701b03919091161760801b905061056c565b6035546000906001600160a01b0383811691161415610a205750600161056c565b6000805b603854811015610a6d57836001600160a01b031660388281548110610a4557fe5b6000918252602090912001546001600160a01b03161415610a6557610a6d565b600101610a24565b5092915050565b6000617fff6001600160801b03608085811c8216607090811c8416939186901c90921690911c811690821415610b3f5780617fff1415610b0a576001600160801b03198581169085161415610ad457505050600160ff1b81168218610548565b600160ff1b6001600160801b0319868618161415610af757505050818117610548565b50600160ef1b61ffff0291506105489050565b600160801b600160ff1b038416610b2e5750600160ef1b61ffff0291506105489050565b505050600160ff1b81168218610548565b80617fff1415610b7e57600160801b600160ff1b038516610b6d5750600160ef1b61ffff0291506105489050565b505050600160ff1b82168118610548565b6001600160701b03608086901c1682610b9a5760019250610ba1565b600160701b175b6001600160701b03608086901c1682610bbd5760019250610bc4565b600160701b175b9081029081610bf257600160ff1b87871816610be1576000610be7565b600160ff1b5b945050505050610548565b928201926000600160e11b831015610c2657600160e01b831015610c1e57610c1983610daf565b610c21565b60e05b610c29565b60e15b90506140708186011015610c44576000945060009250610ce1565b6140e08186011015610c8757614070851015610c6957846140700383901c9250610c7e565b614070851115610c7e57614070850383901b92505b60009450610ce1565b61c0dd8186011115610ca157617fff945060009250610ce1565b6070811115610cb8576070810383901c9250610ccb565b6070811015610ccb578060700383901b92505b6001600160701b03831692506140df8186010394505b82607086901b888a186001607f1b60801b1660801c6001600160801b0316171760801b95505050505050610548565b6000617fff6001600160801b03608084901c1660701c16613fff811015610d3b57600091505061056c565b6001607f1b8360801c6001600160801b031610610d5757600080fd5b6140fe811115610d6657600080fd5b600160701b6001600160701b03608085901c161761406f821015610d905761406f8290031c610da2565b61406f821115610da25761406e1982011b5b9392505050565b303b1590565b6000808211610dbd57600080fd5b6000600160801b8310610dd257608092831c92015b680100000000000000008310610dea57604092831c92015b6401000000008310610dfe57602092831c92015b620100008310610e1057601092831c92015b6101008310610e2157600892831c92015b60108310610e3157600492831c92015b60048310610e4157600292831c92015b60028310610569576001019291505056fe436f6e747261637420696e7374616e63652068617320616c7265616479206265656e20696e697469616c697a6564a165627a7a72305820ce6d3291f69d8f78cb658aaa09d3191759e2399681547a072880b64ee7ebaac20029",
  "source": "// (c) Kallol Borah, 2020\r\n// Implementation of authorized persons and rates for services\r\n// SPDX-License-Identifier: MIT\r\n\r\npragma solidity 0.5.7;\r\n\r\nimport \"./interfaces/VerifiedRates.sol\";\r\nimport \"abdk-libraries-solidity/ABDKMathQuad.sol\";\r\nimport \"@openzeppelin/upgrades/contracts/Initializable.sol\";\r\n\r\ncontract Rates is VerifiedRates, Initializable {\r\n\r\n    using ABDKMathQuad for uint256;\r\n    using ABDKMathQuad for int256;\r\n    using ABDKMathQuad for bytes16;\r\n\r\n    //fee structure for payments\r\n    struct payments{\r\n        bytes16 remittance;\r\n        bytes16 redemption;\r\n    }\r\n\r\n    mapping(address => payments) private paymentFees;\r\n\r\n    //fee structure for bond and securities issuing\r\n    struct issues{\r\n        bytes16 issuing;\r\n        bytes16 trading;\r\n    }\r\n\r\n    mapping(address => issues) private issuingFees;\r\n\r\n    //address of who gets Via fees\r\n    address private feeToSetter;\r\n\r\n    //address of custodian\r\n    address private custodian;\r\n\r\n    //list of assets and their margins\r\n    mapping(bytes32 => bytes16) private assets;\r\n\r\n    //list of treasury managers\r\n    address[] private managers;\r\n\r\n    bool private lock;\r\n\r\n    function initialize() public initializer{\r\n        feeToSetter = msg.sender;\r\n        managers.push(msg.sender);\r\n        custodian = msg.sender;\r\n        lock = false;\r\n    }\r\n\r\n    function setFeeTo(address feeTo, uint256 fee, bytes32 feeType) external {\r\n        require(msg.sender == feeToSetter, 'Via: FORBIDDEN');\r\n        if(feeType==\"issuing\"){\r\n            issuingFees[feeTo].issuing = ABDKMathQuad.fromUInt(fee);\r\n        }\r\n        else if(feeType==\"trading\"){\r\n            issuingFees[feeTo].trading = ABDKMathQuad.fromUInt(fee);\r\n        }\r\n        else if(feeType==\"remittance\"){\r\n            paymentFees[feeTo].remittance = ABDKMathQuad.fromUInt(fee);\r\n        }\r\n        else if(feeType==\"redemption\"){\r\n            paymentFees[feeTo].redemption = ABDKMathQuad.fromUInt(fee);\r\n        }\r\n    }\r\n\r\n    function setFeeToSetter(address _feeToSetter) external {\r\n        require(msg.sender == feeToSetter, 'Set fee to setter: FORBIDDEN');\r\n        feeToSetter = _feeToSetter;\r\n    }  \r\n\r\n    function setMargin(uint256 _margin, bytes32 _asset) external {\r\n        require(msg.sender == feeToSetter, 'Set margin : FORBIDDEN');\r\n        assets[_asset] = ABDKMathQuad.fromUInt(_margin);\r\n    }\r\n\r\n    function setTreasury(address _treasury) external {\r\n        require(msg.sender == feeToSetter, 'Set treasury : FORBIDDEN');\r\n        bool found = false;\r\n        uint256 i=0;\r\n        for(i=0; i<managers.length; i++){\r\n            if(managers[i]==_treasury){\r\n                found == true;\r\n                break;\r\n            }\r\n        }\r\n        if(!found)\r\n            managers.push(_treasury);\r\n    }\r\n\r\n    function setCustodian(address _custodian) external {\r\n        require(msg.sender == feeToSetter, 'Set custodian : FORBIDDEN');\r\n        custodian = _custodian;\r\n    }\r\n\r\n    //get margin for asset \r\n    function getMargin(bytes32 asset) external view returns(uint256 margin) {\r\n        return ABDKMathQuad.toUInt(assets[asset]);\r\n    }\r\n\r\n    //get fee for different services\r\n    function getFee(bytes32 feeType) external view returns(uint256 fee){\r\n        if(feeType==\"issuing\"){\r\n            return (ABDKMathQuad.toUInt(issuingFees[msg.sender].issuing));\r\n        }\r\n        else if(feeType==\"trading\"){\r\n            return (ABDKMathQuad.toUInt(issuingFees[msg.sender].trading));\r\n        }\r\n        else if(feeType==\"remittance\"){\r\n            return (ABDKMathQuad.toUInt(paymentFees[msg.sender].remittance));\r\n        }\r\n        else if(feeType==\"redemption\"){\r\n            return (ABDKMathQuad.toUInt(paymentFees[msg.sender].redemption));\r\n        }\r\n    }\r\n\r\n    //gets address to which fee income has to be transferred\r\n    function getFeeToSetter() external view returns(address){\r\n        return feeToSetter;\r\n    }\r\n\r\n    //get Custodian address for transferring (backing up) assets\r\n    function getCustodian() external view returns(address){\r\n        return custodian;\r\n    }\r\n    \r\n    function transferToCustody(uint percent, address transferFrom) external returns(bool){\r\n        require(getTreasury(msg.sender)==true);\r\n        require(!lock);\r\n        lock=true;\r\n        if(custodian!=address(0x0)){\r\n            address(uint160(custodian)).transfer(ABDKMathQuad.toUInt(ABDKMathQuad.mul(ABDKMathQuad.fromUInt(transferFrom.balance),ABDKMathQuad.fromUInt(percent))));\r\n            lock = false;\r\n            return true;\r\n        }\r\n        else{\r\n            lock = false;\r\n            return false;\r\n        }\r\n    }\r\n\r\n    //verifies if sender (who requests issue of cash tokens against fiat / bond tokens against non-ether assets) is a treasurer\r\n    function getTreasury(address sender) private view returns(bool){\r\n        if(sender==feeToSetter)\r\n            return true;\r\n        bool found = false;\r\n        uint256 i=0;\r\n        for(i=0; i<managers.length; i++){\r\n            if(managers[i]==sender){\r\n                found == true;\r\n                break;\r\n            }\r\n        }\r\n        return found;\r\n    }\r\n\r\n\r\n}",
  "sourcePath": "D:\\Code\\verified-payments\\contracts\\Rates.sol",
  "compiler": {
    "name": "solc",
    "version": "0.5.7+commit.6da8b019.Emscripten.clang"
  },
  "schemaVersion": "3.4.3",
  "updatedAt": "2022-03-27T06:32:53.385Z",
  "networkType": "ethereum",
  "devdoc": {
    "methods": {}
  },
  "userdoc": {
    "methods": {}
  }
}