{
  "contractName": "Rates",
  "abi": [
    {
      "constant": false,
      "inputs": [],
      "name": "initialize",
      "outputs": [],
      "payable": false,
      "stateMutability": "nonpayable",
      "type": "function"
    },
    {
      "constant": false,
      "inputs": [
        {
          "name": "feeTo",
          "type": "address"
        },
        {
          "name": "fee",
          "type": "uint256"
        },
        {
          "name": "feeType",
          "type": "bytes32"
        }
      ],
      "name": "setFeeTo",
      "outputs": [],
      "payable": false,
      "stateMutability": "nonpayable",
      "type": "function"
    },
    {
      "constant": true,
      "inputs": [
        {
          "name": "feeType",
          "type": "bytes32"
        }
      ],
      "name": "getFee",
      "outputs": [
        {
          "name": "fee",
          "type": "uint256"
        }
      ],
      "payable": false,
      "stateMutability": "view",
      "type": "function"
    },
    {
      "constant": false,
      "inputs": [
        {
          "name": "_feeToSetter",
          "type": "address"
        }
      ],
      "name": "setFeeToSetter",
      "outputs": [],
      "payable": false,
      "stateMutability": "nonpayable",
      "type": "function"
    },
    {
      "constant": false,
      "inputs": [
        {
          "name": "_custodian",
          "type": "address"
        }
      ],
      "name": "setCustodian",
      "outputs": [],
      "payable": false,
      "stateMutability": "nonpayable",
      "type": "function"
    },
    {
      "constant": true,
      "inputs": [],
      "name": "getFeeToSetter",
      "outputs": [
        {
          "name": "",
          "type": "address"
        }
      ],
      "payable": false,
      "stateMutability": "view",
      "type": "function"
    },
    {
      "constant": true,
      "inputs": [],
      "name": "getCustodian",
      "outputs": [
        {
          "name": "",
          "type": "address"
        }
      ],
      "payable": false,
      "stateMutability": "view",
      "type": "function"
    }
  ],
  "bytecode": "0x608060405234801561001057600080fd5b506105a5806100206000396000f3fe608060405234801561001057600080fd5b506004361061007d5760003560e01c8063a2e74af61161005b578063a2e74af6146100e4578063c561d4b71461010a578063e5f3d3a51461012e578063f4aa13021461015d5761007d565b8063403f373114610082578063501e33fa146100aa5780638129fc1c146100dc575b600080fd5b6100a86004803603602081101561009857600080fd5b50356001600160a01b0316610165565b005b6100a8600480360360608110156100c057600080fd5b506001600160a01b0381351690602081013590604001356101d6565b6100a8610308565b6100a8600480360360208110156100fa57600080fd5b50356001600160a01b03166103cf565b610112610440565b604080516001600160a01b039092168252519081900360200190f35b61014b6004803603602081101561014457600080fd5b503561044f565b60408051918252519081900360200190f35b61011261050c565b60355433906001600160a01b031681146101b357604051600160e51b62461bcd02815260040180806020018281038252602a815260200180610522602a913960400191505060405180910390fd5b50603680546001600160a01b0319166001600160a01b0392909216919091179055565b60355433906001600160a01b0316811461022457604051600160e51b62461bcd02815260040180806020018281038252602a815260200180610522602a913960400191505060405180910390fd5b81600160c81b6669737375696e67021415610259576001600160a01b0384166000908152603460205260409020839055610302565b81600160b11b693932b232b6b83a34b7b7021415610294576001600160a01b0384166000908152603460205260409020600101839055610302565b81600160b01b6972656d697474616e63650214156102cc576001600160a01b0384166000908152603360205260409020839055610302565b81600160ba1b681dda5d1a191c985ddb021415610302576001600160a01b03841660009081526033602052604090206001018390555b50505050565b600054610100900460ff1680610321575061032161051b565b8061032f575060005460ff16155b61036d57604051600160e51b62461bcd02815260040180806020018281038252602e81526020018061054c602e913960400191505060405180910390fd5b600054610100900460ff16158015610398576000805460ff1961ff0019909116610100171660011790555b60358054336001600160a01b0319918216811790925560368054909116909117905580156103cc576000805461ff00191690555b50565b60355433906001600160a01b0316811461041d57604051600160e51b62461bcd02815260040180806020018281038252602a815260200180610522602a913960400191505060405180910390fd5b50603580546001600160a01b0319166001600160a01b0392909216919091179055565b6036546001600160a01b031690565b600081600160c81b6669737375696e6702141561047c575033600090815260346020526040902054610507565b81600160b11b693932b232b6b83a34b7b70214156104ad575033600090815260346020526040902060010154610507565b81600160b01b6972656d697474616e63650214156104db575033600090815260336020526040902054610507565b81600160ba1b681dda5d1a191c985ddb0214156105075750336000908152603360205260409020600101545b919050565b6035546001600160a01b031690565b303b159056fe556e617574686f72697a65642061636365737320666f72206665652061646d696e697374726174696f6e436f6e747261637420696e7374616e63652068617320616c7265616479206265656e20696e697469616c697a6564a165627a7a7230582090e33951e9cfe08e0f86fcb9cd3154ff5b7e495c1a4d434fabaed9ca99ada38f0029",
  "source": "// (c) Kallol Borah, 2020\r\n// Implementation of authorized persons and rates for services\r\n// SPDX-License-Identifier: BUSL\r\n\r\npragma solidity 0.5.7;\r\n\r\nimport \"./interfaces/VerifiedRates.sol\";\r\nimport \"@openzeppelin/upgrades/contracts/Initializable.sol\";\r\n\r\ncontract Rates is VerifiedRates, Initializable {\r\n\r\n    //fee structure for payments\r\n    struct payments{\r\n        uint256 remittance;\r\n        uint256 withdrawl;\r\n    }\r\n\r\n    mapping(address => payments) private paymentFees;\r\n\r\n    //fee structure for bond and securities issuing\r\n    struct issues{\r\n        uint256 issuing;\r\n        uint256 redemption;\r\n    }\r\n\r\n    mapping(address => issues) private issuingFees;\r\n\r\n    //address of who gets Via fees\r\n    address private feeToSetter;\r\n\r\n    //address of custodian\r\n    address private custodian;\r\n\r\n    //mutex\r\n    mapping(bytes32 => bool) private _lock;\r\n\r\n    modifier onlyFeeAdmin(address sender){\r\n        require(sender == feeToSetter, 'Unauthorized access for fee administration');\r\n        _;\r\n    }\r\n\r\n    function initialize() public initializer{\r\n        feeToSetter = msg.sender;\r\n        custodian = msg.sender;\r\n    }\r\n\r\n    function setFeeTo(address feeTo, uint256 fee, bytes32 feeType) onlyFeeAdmin(msg.sender) external {\r\n        if(feeType==\"issuing\"){\r\n            issuingFees[feeTo].issuing = fee;\r\n        }\r\n        else if(feeType==\"redemption\"){\r\n            issuingFees[feeTo].redemption = fee;\r\n        }\r\n        else if(feeType==\"remittance\"){\r\n            paymentFees[feeTo].remittance = fee;\r\n        }\r\n        else if(feeType==\"withdrawl\"){\r\n            paymentFees[feeTo].withdrawl = fee;\r\n        }\r\n    }\r\n\r\n    //get fee for different services\r\n    function getFee(bytes32 feeType) external view returns(uint256 fee){\r\n        if(feeType==\"issuing\"){\r\n            return (issuingFees[msg.sender].issuing);\r\n        }\r\n        else if(feeType==\"redemption\"){\r\n            return (issuingFees[msg.sender].redemption);\r\n        }\r\n        else if(feeType==\"remittance\"){\r\n            return (paymentFees[msg.sender].remittance);\r\n        }\r\n        else if(feeType==\"withdrawl\"){\r\n            return (paymentFees[msg.sender].withdrawl);\r\n        }\r\n    }\r\n\r\n    function setFeeToSetter(address _feeToSetter) onlyFeeAdmin(msg.sender) external {        \r\n        feeToSetter = _feeToSetter;\r\n    }  \r\n\r\n    function setCustodian(address _custodian) onlyFeeAdmin(msg.sender) external {        \r\n        custodian = _custodian;\r\n    }    \r\n\r\n    //gets address to which fee income has to be transferred\r\n    function getFeeToSetter() external view returns(address){\r\n        return feeToSetter;\r\n    }\r\n\r\n    //get Custodian address for transferring (backing up) assets\r\n    function getCustodian() external view returns(address){\r\n        return custodian;\r\n    }\r\n\r\n}",
  "sourcePath": "D:\\Code\\verified-payments\\contracts\\Rates.sol",
  "compiler": {
    "name": "solc",
    "version": "0.5.7+commit.6da8b019.Emscripten.clang"
  },
  "schemaVersion": "3.4.3",
  "updatedAt": "2023-06-09T02:42:13.942Z",
  "networkType": "ethereum",
  "devdoc": {
    "methods": {}
  },
  "userdoc": {
    "methods": {}
  }
}