{
  "contractName": "stringutils",
  "abi": [
    {
      "constant": true,
      "inputs": [
        {
          "name": "s",
          "type": "string"
        }
      ],
      "name": "stringToUint",
      "outputs": [
        {
          "name": "",
          "type": "uint256"
        }
      ],
      "payable": false,
      "stateMutability": "pure",
      "type": "function"
    },
    {
      "constant": true,
      "inputs": [
        {
          "name": "strBytes",
          "type": "bytes32"
        },
        {
          "name": "startIndex",
          "type": "uint256"
        },
        {
          "name": "endIndex",
          "type": "uint256"
        }
      ],
      "name": "substring",
      "outputs": [
        {
          "name": "",
          "type": "string"
        }
      ],
      "payable": false,
      "stateMutability": "pure",
      "type": "function"
    },
    {
      "constant": true,
      "inputs": [
        {
          "name": "strBytes",
          "type": "bytes32"
        },
        {
          "name": "startIndex",
          "type": "uint256"
        },
        {
          "name": "endIndex",
          "type": "uint256"
        }
      ],
      "name": "substringinbytes",
      "outputs": [
        {
          "name": "res",
          "type": "bytes32"
        }
      ],
      "payable": false,
      "stateMutability": "pure",
      "type": "function"
    },
    {
      "constant": true,
      "inputs": [
        {
          "name": "source",
          "type": "string"
        }
      ],
      "name": "stringToBytes32",
      "outputs": [
        {
          "name": "result",
          "type": "bytes32"
        }
      ],
      "payable": false,
      "stateMutability": "pure",
      "type": "function"
    },
    {
      "constant": true,
      "inputs": [
        {
          "name": "_addr",
          "type": "address"
        }
      ],
      "name": "addressToString",
      "outputs": [
        {
          "name": "",
          "type": "string"
        }
      ],
      "payable": false,
      "stateMutability": "pure",
      "type": "function"
    }
  ],
  "bytecode": "0x610662610026600b82828239805160001a60731461001957fe5b30600052607381538281f3fe73000000000000000000000000000000000000000030146080604052600436106100615760003560e01c80631bd95155146100665780635e57966d1461011e57806379c21306146101b9578063cfb51928146101e2578063f921e64714610288575b600080fd5b61010c6004803603602081101561007c57600080fd5b81019060208101813564010000000081111561009757600080fd5b8201836020820111156100a957600080fd5b803590602001918460018302840111640100000000831117156100cb57600080fd5b91908080601f0160208091040260200160405190810160405280939291908181526020018383808284376000920191909152509295506102b1945050505050565b60408051918252519081900360200190f35b6101446004803603602081101561013457600080fd5b50356001600160a01b0316610367565b6040805160208082528351818301528351919283929083019185019080838360005b8381101561017e578181015183820152602001610166565b50505050905090810190601f1680156101ab5780820380516001836020036101000a031916815260200191505b509250505060405180910390f35b61010c600480360360608110156101cf57600080fd5b50803590602081013590604001356104ff565b61010c600480360360208110156101f857600080fd5b81019060208101813564010000000081111561021357600080fd5b82018360208201111561022557600080fd5b8035906020019184600183028401116401000000008311171561024757600080fd5b91908080601f01602080910402602001604051908101604052809392919081815260200183838082843760009201919091525092955061059e945050505050565b6101446004803603606081101561029e57600080fd5b50803590602081013590604001356105bc565b600080828180805b835181101561035a5760308482815181106102d057fe5b602001015160f81c60f81b60f81c60ff161015801561030c575060398482815181106102f857fe5b602001015160f81c60f81b60f81c60ff1611155b1561034d57829150603084828151811061032257fe5b602001015160f81c60f81b60f81c60ff160383600a020192508282111561034857600194505b610352565b600194505b6001016102b9565b509093505050505b919050565b604080518082018252601081527f303132333435363738396162636465660000000000000000000000000000000060208201528151603380825260608281019094526001600160a01b03851692918491602082018180388339019050509050600160fc1b600302816000815181106103db57fe5b60200101906001600160f81b031916908160001a905350600160fb1b600f028160018151811061040757fe5b60200101906001600160f81b031916908160001a90535060005b60148110156104f6578260048583600c016020811061043c57fe5b1a60f81b6001600160f81b031916901c60f81c60ff168151811061045c57fe5b602001015160f81c60f81b82826002026002018151811061047957fe5b60200101906001600160f81b031916908160001a905350828482600c01602081106104a057fe5b1a60f81b600f60f81b1660f81c60ff16815181106104ba57fe5b602001015160f81c60f81b8282600202600301815181106104d757fe5b60200101906001600160f81b031916908160001a905350600101610421565b50949350505050565b600060608383036040519080825280601f01601f191660200182016040528015610530576020820181803883390190505b509050835b8381101561057a5785816020811061054957fe5b1a60f81b828683038151811061055b57fe5b60200101906001600160f81b031916908160001a905350600101610535565b508051819061058f5750600091506105979050565b506020015190505b9392505050565b805160009082906105b3575060009050610362565b50506020015190565b6060808383036040519080825280601f01601f1916602001820160405280156105ec576020820181803883390190505b509050835b838110156104f65785816020811061060557fe5b1a60f81b828683038151811061061757fe5b60200101906001600160f81b031916908160001a9053506001016105f156fea165627a7a72305820fc06655e0988b0df25865311a0634d2b46fd5e010a70370ce123aad6425eb4dd0029",
  "source": "pragma solidity 0.5.7;\r\n\r\nlibrary stringutils { // Only relevant functions\r\n    \r\n    //added from https://ethereum.stackexchange.com/questions/62371/convert-a-string-to-a-uint256-with-error-handling\r\n    function stringToUint(string memory s) public pure returns (uint) {\r\n        bool hasError = false;\r\n        bytes memory b = bytes(s);\r\n        uint result = 0;\r\n        uint oldResult = 0;\r\n        for (uint i = 0; i < b.length; i++) { // c = b[i] was not needed\r\n            if (uint(uint8(b[i])) >= 48 && uint(uint8(b[i])) <= 57) {\r\n                // store old value so we can check for overflows\r\n                oldResult = result;\r\n                result = result * 10 + (uint(uint8(b[i])) - 48); // bytes and int are not compatible with the operator -.\r\n                // prevent overflows\r\n                if(oldResult > result ) {\r\n                    // we can only get here if the result overflowed and is smaller than last stored value\r\n                    hasError = true;\r\n                }\r\n            } else {\r\n                hasError = true;\r\n            }\r\n        }\r\n        return (result); \r\n    }\r\n\r\n    function substring(bytes32 strBytes, uint startIndex, uint endIndex) public pure returns (string memory) {\r\n        bytes memory result = new bytes(endIndex-startIndex);\r\n        for(uint i = startIndex; i < endIndex; i++) {\r\n            result[i-startIndex] = strBytes[i];\r\n        }\r\n        return string(result);\r\n    }\r\n\r\n    function substringinbytes(bytes32 strBytes, uint startIndex, uint endIndex) public pure returns (bytes32 res) {\r\n        bytes memory result = new bytes(endIndex-startIndex);\r\n        for(uint i = startIndex; i < endIndex; i++) {\r\n            result[i-startIndex] = strBytes[i];\r\n        }\r\n        bytes memory tempEmptyStringTest = bytes(result);\r\n        if (tempEmptyStringTest.length == 0) {\r\n            return 0x0;\r\n        }\r\n        assembly {\r\n            res := mload(add(result, 32))\r\n        }\r\n    }\r\n\r\n    //convert from string to bytes32\r\n    function stringToBytes32(string memory source) public pure returns (bytes32 result) {\r\n        bytes memory tempEmptyStringTest = bytes(source);\r\n        if (tempEmptyStringTest.length == 0) {\r\n            return 0x0;\r\n        }\r\n\r\n        assembly {\r\n            result := mload(add(source, 32))\r\n        }\r\n    }\r\n\r\n    function addressToString(address _addr) public pure returns(string memory) \r\n    {\r\n        bytes32 value = bytes32(uint256(_addr));\r\n        bytes memory alphabet = \"0123456789abcdef\";\r\n\r\n        bytes memory str = new bytes(51);\r\n        str[0] = '0';\r\n        str[1] = 'x';\r\n        for (uint256 i = 0; i < 20; i++) {\r\n            str[2+i*2] = alphabet[uint8(value[i + 12] >> 4)];\r\n            str[3+i*2] = alphabet[uint8(value[i + 12] & 0x0f)];\r\n        }\r\n        return string(str);\r\n    }\r\n\r\n}\r\n",
  "sourcePath": "D:\\Code\\verified-payments\\contracts\\utilities\\StringUtils.sol",
  "compiler": {
    "name": "solc",
    "version": "0.5.7+commit.6da8b019.Emscripten.clang"
  },
  "schemaVersion": "3.4.3",
  "updatedAt": "2022-04-24T04:06:38.168Z",
  "networkType": "ethereum",
  "devdoc": {
    "methods": {}
  },
  "userdoc": {
    "methods": {}
  }
}