{
  "contractName": "stringutils",
  "abi": [
    {
      "constant": true,
      "inputs": [
        {
          "name": "s",
          "type": "string"
        }
      ],
      "name": "stringToUint",
      "outputs": [
        {
          "name": "",
          "type": "uint256"
        }
      ],
      "payable": false,
      "stateMutability": "pure",
      "type": "function"
    },
    {
      "constant": true,
      "inputs": [
        {
          "name": "strBytes",
          "type": "bytes32"
        },
        {
          "name": "startIndex",
          "type": "uint256"
        },
        {
          "name": "endIndex",
          "type": "uint256"
        }
      ],
      "name": "substring",
      "outputs": [
        {
          "name": "",
          "type": "string"
        }
      ],
      "payable": false,
      "stateMutability": "pure",
      "type": "function"
    },
    {
      "constant": true,
      "inputs": [
        {
          "name": "strBytes",
          "type": "bytes32"
        },
        {
          "name": "startIndex",
          "type": "uint256"
        },
        {
          "name": "endIndex",
          "type": "uint256"
        }
      ],
      "name": "substringinbytes",
      "outputs": [
        {
          "name": "",
          "type": "bytes32"
        }
      ],
      "payable": false,
      "stateMutability": "pure",
      "type": "function"
    },
    {
      "constant": true,
      "inputs": [
        {
          "name": "a",
          "type": "string"
        },
        {
          "name": "b",
          "type": "string"
        }
      ],
      "name": "append",
      "outputs": [
        {
          "name": "",
          "type": "string"
        }
      ],
      "payable": false,
      "stateMutability": "pure",
      "type": "function"
    },
    {
      "constant": true,
      "inputs": [
        {
          "name": "source",
          "type": "string"
        }
      ],
      "name": "stringToBytes32",
      "outputs": [
        {
          "name": "result",
          "type": "bytes32"
        }
      ],
      "payable": false,
      "stateMutability": "pure",
      "type": "function"
    }
  ],
  "bytecode": "0x610641610026600b82828239805160001a60731461001957fe5b30600052607381538281f3fe73000000000000000000000000000000000000000030146080604052600436106100615760003560e01c80631bd9515514610066578063591c515f1461011c57806379c21306146102ba578063cfb51928146102e3578063f921e64714610387575b600080fd5b61010a6004803603602081101561007c57600080fd5b810190602081018135600160201b81111561009657600080fd5b8201836020820111156100a857600080fd5b803590602001918460018302840111600160201b831117156100c957600080fd5b91908080601f0160208091040260200160405190810160405280939291908181526020018383808284376000920191909152509295506103b0945050505050565b60408051918252519081900360200190f35b6102456004803603604081101561013257600080fd5b810190602081018135600160201b81111561014c57600080fd5b82018360208201111561015e57600080fd5b803590602001918460018302840111600160201b8311171561017f57600080fd5b91908080601f0160208091040260200160405190810160405280939291908181526020018383808284376000920191909152509295949360208101935035915050600160201b8111156101d157600080fd5b8201836020820111156101e357600080fd5b803590602001918460018302840111600160201b8311171561020457600080fd5b91908080601f016020809104026020016040519081016040528093929190818152602001838380828437600092019190915250929550610466945050505050565b6040805160208082528351818301528351919283929083019185019080838360005b8381101561027f578181015183820152602001610267565b50505050905090810190601f1680156102ac5780820380516001836020036101000a031916815260200191505b509250505060405180910390f35b61010a600480360360608110156102d057600080fd5b5080359060208101359060400135610521565b61010a600480360360208110156102f957600080fd5b810190602081018135600160201b81111561031357600080fd5b82018360208201111561032557600080fd5b803590602001918460018302840111600160201b8311171561034657600080fd5b91908080601f01602080910402602001604051908101604052809392919081815260200183838082843760009201919091525092955061057d945050505050565b6102456004803603606081101561039d57600080fd5b508035906020810135906040013561059b565b600080828180805b83518110156104595760308482815181106103cf57fe5b602001015160f81c60f81b60f81c60ff161015801561040b575060398482815181106103f757fe5b602001015160f81c60f81b60f81c60ff1611155b1561044c57829150603084828151811061042157fe5b602001015160f81c60f81b60f81c60ff160383600a020192508282111561044757600194505b610451565b600194505b6001016103b8565b509093505050505b919050565b606082826040516020018083805190602001908083835b6020831061049c5780518252601f19909201916020918201910161047d565b51815160209384036101000a600019018019909216911617905285519190930192850191508083835b602083106104e45780518252601f1990920191602091820191016104c5565b6001836020036101000a03801982511681845116808217855250505050505090500192505050604051602081830303815290604052905092915050565b600080835b83811015610574578186826020811061053b57fe5b60408051602081019490945291901a60f81b6001600160f81b031916828201528051808303602101905260419091019052600101610526565b50949350505050565b80516000908290610592575060009050610461565b50506020015190565b6060808383036040519080825280601f01601f1916602001820160405280156105cb576020820181803883390190505b509050835b83811015610574578581602081106105e457fe5b1a60f81b82868303815181106105f657fe5b60200101906001600160f81b031916908160001a9053506001016105d056fea165627a7a72305820704dc2a0562abfad4cb5c2e1824b6506f54e98d5e06f9772a0cca112fcd581960029",
  "source": "pragma solidity 0.5.7;\r\n\r\nlibrary stringutils { // Only relevant functions\r\n    \r\n    //added from https://ethereum.stackexchange.com/questions/62371/convert-a-string-to-a-uint256-with-error-handling\r\n    function stringToUint(string memory s) public pure returns (uint) {\r\n        bool hasError = false;\r\n        bytes memory b = bytes(s);\r\n        uint result = 0;\r\n        uint oldResult = 0;\r\n        for (uint i = 0; i < b.length; i++) { // c = b[i] was not needed\r\n            if (uint(uint8(b[i])) >= 48 && uint(uint8(b[i])) <= 57) {\r\n                // store old value so we can check for overflows\r\n                oldResult = result;\r\n                result = result * 10 + (uint(uint8(b[i])) - 48); // bytes and int are not compatible with the operator -.\r\n                // prevent overflows\r\n                if(oldResult > result ) {\r\n                    // we can only get here if the result overflowed and is smaller than last stored value\r\n                    hasError = true;\r\n                }\r\n            } else {\r\n                hasError = true;\r\n            }\r\n        }\r\n        return (result); \r\n    }\r\n\r\n    function substring(bytes32 strBytes, uint startIndex, uint endIndex) public pure returns (string memory) {\r\n        bytes memory result = new bytes(endIndex-startIndex);\r\n        for(uint i = startIndex; i < endIndex; i++) {\r\n            result[i-startIndex] = strBytes[i];\r\n        }\r\n        return string(result);\r\n    }\r\n\r\n    function substringinbytes(bytes32 strBytes, uint startIndex, uint endIndex) public pure returns (bytes32) {\r\n        bytes32 result; \r\n        for(uint i = startIndex; i < endIndex; i++) {\r\n            abi.encodePacked(result, strBytes[i]);\r\n        }\r\n        return result;\r\n    }\r\n\r\n    function append(string memory a, string memory b) public pure returns (string memory) {\r\n        return string(abi.encodePacked(a, b));\r\n    }\r\n\r\n    //convert from string to bytes32\r\n    function stringToBytes32(string memory source) public pure returns (bytes32 result) {\r\n        bytes memory tempEmptyStringTest = bytes(source);\r\n        if (tempEmptyStringTest.length == 0) {\r\n            return 0x0;\r\n        }\r\n\r\n        assembly {\r\n            result := mload(add(source, 32))\r\n        }\r\n    }\r\n\r\n}\r\n",
  "sourcePath": "D:\\code\\verified-payments\\contracts\\utilities\\StringUtils.sol",
  "compiler": {
    "name": "solc",
    "version": "0.5.7+commit.6da8b019.Emscripten.clang"
  },
  "schemaVersion": "3.3.3",
  "updatedAt": "2021-04-04T07:07:54.971Z",
  "networkType": "ethereum",
  "devdoc": {
    "methods": {}
  },
  "userdoc": {
    "methods": {}
  }
}