{
  "contractName": "Token",
  "abi": [
    {
      "constant": true,
      "inputs": [],
      "name": "name",
      "outputs": [
        {
          "name": "",
          "type": "string"
        }
      ],
      "payable": false,
      "stateMutability": "view",
      "type": "function"
    },
    {
      "constant": true,
      "inputs": [],
      "name": "totalSupply",
      "outputs": [
        {
          "name": "",
          "type": "uint256"
        }
      ],
      "payable": false,
      "stateMutability": "view",
      "type": "function"
    },
    {
      "constant": true,
      "inputs": [
        {
          "name": "",
          "type": "address"
        }
      ],
      "name": "balances",
      "outputs": [
        {
          "name": "",
          "type": "bytes16"
        }
      ],
      "payable": false,
      "stateMutability": "view",
      "type": "function"
    },
    {
      "constant": true,
      "inputs": [],
      "name": "decimals",
      "outputs": [
        {
          "name": "",
          "type": "uint8"
        }
      ],
      "payable": false,
      "stateMutability": "view",
      "type": "function"
    },
    {
      "constant": true,
      "inputs": [
        {
          "name": "tokenOwner",
          "type": "address"
        }
      ],
      "name": "balanceOf",
      "outputs": [
        {
          "name": "",
          "type": "uint256"
        }
      ],
      "payable": false,
      "stateMutability": "view",
      "type": "function"
    },
    {
      "constant": true,
      "inputs": [],
      "name": "symbol",
      "outputs": [
        {
          "name": "",
          "type": "string"
        }
      ],
      "payable": false,
      "stateMutability": "view",
      "type": "function"
    },
    {
      "constant": false,
      "inputs": [
        {
          "name": "receiver",
          "type": "address"
        },
        {
          "name": "tokens",
          "type": "uint256"
        }
      ],
      "name": "transfer",
      "outputs": [
        {
          "name": "",
          "type": "bool"
        }
      ],
      "payable": false,
      "stateMutability": "nonpayable",
      "type": "function"
    },
    {
      "constant": false,
      "inputs": [
        {
          "name": "_name",
          "type": "bytes32"
        },
        {
          "name": "_issuer",
          "type": "address"
        },
        {
          "name": "_owner",
          "type": "address"
        },
        {
          "name": "_symbol",
          "type": "bytes32"
        }
      ],
      "name": "initialize",
      "outputs": [],
      "payable": false,
      "stateMutability": "nonpayable",
      "type": "function"
    },
    {
      "constant": true,
      "inputs": [],
      "name": "getIssuer",
      "outputs": [
        {
          "name": "",
          "type": "address"
        }
      ],
      "payable": false,
      "stateMutability": "view",
      "type": "function"
    },
    {
      "constant": false,
      "inputs": [
        {
          "name": "amount",
          "type": "bytes16"
        }
      ],
      "name": "addTotalSupply",
      "outputs": [],
      "payable": false,
      "stateMutability": "nonpayable",
      "type": "function"
    },
    {
      "constant": false,
      "inputs": [
        {
          "name": "amount",
          "type": "bytes16"
        }
      ],
      "name": "reduceSupply",
      "outputs": [],
      "payable": false,
      "stateMutability": "nonpayable",
      "type": "function"
    },
    {
      "constant": false,
      "inputs": [
        {
          "name": "party",
          "type": "address"
        },
        {
          "name": "amount",
          "type": "bytes16"
        }
      ],
      "name": "addBalance",
      "outputs": [],
      "payable": false,
      "stateMutability": "nonpayable",
      "type": "function"
    },
    {
      "constant": false,
      "inputs": [
        {
          "name": "party",
          "type": "address"
        },
        {
          "name": "amount",
          "type": "bytes16"
        }
      ],
      "name": "reduceBalance",
      "outputs": [],
      "payable": false,
      "stateMutability": "nonpayable",
      "type": "function"
    },
    {
      "constant": false,
      "inputs": [
        {
          "name": "sender",
          "type": "address"
        },
        {
          "name": "receiver",
          "type": "address"
        },
        {
          "name": "tokens",
          "type": "uint256"
        }
      ],
      "name": "transferFrom",
      "outputs": [
        {
          "name": "",
          "type": "bool"
        }
      ],
      "payable": false,
      "stateMutability": "nonpayable",
      "type": "function"
    },
    {
      "constant": false,
      "inputs": [
        {
          "name": "sender",
          "type": "address"
        },
        {
          "name": "receiver",
          "type": "address"
        },
        {
          "name": "tokens",
          "type": "uint256"
        }
      ],
      "name": "transferToken",
      "outputs": [
        {
          "name": "",
          "type": "bool"
        }
      ],
      "payable": false,
      "stateMutability": "nonpayable",
      "type": "function"
    },
    {
      "constant": false,
      "inputs": [
        {
          "name": "receiver",
          "type": "address"
        },
        {
          "name": "tokens",
          "type": "bytes16"
        }
      ],
      "name": "requestTransfer",
      "outputs": [
        {
          "name": "",
          "type": "bool"
        }
      ],
      "payable": false,
      "stateMutability": "nonpayable",
      "type": "function"
    },
    {
      "constant": false,
      "inputs": [
        {
          "name": "amount",
          "type": "bytes16"
        },
        {
          "name": "payer",
          "type": "address"
        },
        {
          "name": "currency",
          "type": "bytes32"
        },
        {
          "name": "cashContract",
          "type": "address"
        }
      ],
      "name": "requestTransaction",
      "outputs": [
        {
          "name": "",
          "type": "bool"
        }
      ],
      "payable": false,
      "stateMutability": "nonpayable",
      "type": "function"
    }
  ],
  "bytecode": "0x608060405234801561001057600080fd5b506113b0806100206000396000f3fe608060405234801561001057600080fd5b506004361061010b5760003560e01c80634c099287116100a2578063a49b8a4c11610071578063a49b8a4c1461037f578063a9059cbb146103b5578063ef239721146103e1578063f16725911461041d578063f5537ede146104445761010b565b80634c099287146102f7578063525564211461032d57806370a082311461035157806395d89b41146103775761010b565b806323b872dd116100de57806323b872dd1461021a57806327e235e3146102505780632fc3d1ee14610293578063313ce567146102d95761010b565b80630141533314610110578063019b9ea01461013957806306fdde031461018357806318160ddd14610200575b600080fd5b6101376004803603602081101561012657600080fd5b50356001600160801b03191661047a565b005b61016f6004803603604081101561014f57600080fd5b5080356001600160a01b031690602001356001600160801b0319166104be565b604080519115158252519081900360200190f35b61018b610501565b6040805160208082528351818301528351919283929083019185019080838360005b838110156101c55781810151838201526020016101ad565b50505050905090810190601f1680156101f25780820380516001836020036101000a031916815260200191505b509250505060405180910390f35b61020861058c565b60408051918252519081900360200190f35b61016f6004803603606081101561023057600080fd5b506001600160a01b038135811691602081013590911690604001356105a1565b6102766004803603602081101561026657600080fd5b50356001600160a01b03166106bd565b604080516001600160801b03199092168252519081900360200190f35b61016f600480360360808110156102a957600080fd5b506001600160801b0319813516906001600160a01b036020820135811691604081013591606090910135166106d2565b6102e16108a3565b6040805160ff9092168252519081900360200190f35b6101376004803603604081101561030d57600080fd5b5080356001600160a01b031690602001356001600160801b0319166108a8565b61033561091b565b604080516001600160a01b039092168252519081900360200190f35b6102086004803603602081101561036757600080fd5b50356001600160a01b031661092a565b61018b610957565b6101376004803603604081101561039557600080fd5b5080356001600160a01b031690602001356001600160801b0319166109b2565b61016f600480360360408110156103cb57600080fd5b506001600160a01b0381351690602001356109ef565b610137600480360360808110156103f757600080fd5b508035906001600160a01b03602082013581169160408101359091169060600135610ae4565b6101376004803603602081101561043357600080fd5b50356001600160801b031916610b1f565b61016f6004803603606081101561045a57600080fd5b506001600160a01b03813581169160208101359091169060400135610b46565b6005546001600160a01b0316331461049157600080fd5b6000546104a19060801b82610c57565b600080546001600160801b03191660809290921c91909117905550565b6005546000906001600160a01b031633146104d857600080fd5b6104ea836104e584611089565b6109ef565b156104f7575060016104fb565b5060005b92915050565b6002805460408051602060018416156101000260001901909316849004601f810184900484028201840190925281815292918301828280156105845780601f1061055957610100808354040283529160200191610584565b820191906000526020600020905b81548152906001019060200180831161056757829003601f168201915b505050505081565b6000805461059c9060801b611089565b905090565b6001600160a01b0383166000908152600160205260408120546105cf9060801b6105ca84611121565b611186565b60000b6001148061060957506001600160a01b0384166000908152600160205260409020546106049060801b6105ca84611121565b60000b155b61061257600080fd5b60055460408051600160e11b6340e5437f0281526001600160a01b038781166004830152868116602483015260448201869052306064830152915191909216916381ca86fe9160848083019260209291908290030181600087803b15801561067957600080fd5b505af115801561068d573d6000803e3d6000fd5b505050506040513d60208110156106a357600080fd5b5051156106b2575060016106b6565b5060005b9392505050565b60016020526000908152604090205460801b81565b60065460408051600160e01b63f429f19b02815233600482015290516000926001600160a01b03169163f429f19b916024808301926020929190829003018186803b15801561072057600080fd5b505afa158015610734573d6000803e3d6000fd5b505050506040513d602081101561074a57600080fd5b5051600160cb1b660acd2c286c2e6d021461076457600080fd5b6004546001600160a01b038581169116141561082a5760055460408051600160e41b63079537570281526001600160801b0319881660048201526001600160a01b038781166024830152604482018790523060648301529151919092169163795375709160848083019260209291908290030181600087803b1580156107e957600080fd5b505af11580156107fd573d6000803e3d6000fd5b505050506040513d602081101561081357600080fd5b5051156108225750600161089b565b50600061089b565b60055460408051600160e01b63f6fd5c790281526001600160801b0319881660048201526001600160a01b0387811660248301526044820187905285811660648301529151919092169163f6fd5c799160848083019260209291908290030181600087803b1580156107e957600080fd5b949350505050565b600290565b6005546001600160a01b031633146108bf57600080fd5b6001600160a01b0382166000908152600160205260409020546108e59060801b826112cf565b6001600160a01b0392909216600090815260016020526040902080546001600160801b03191660809390931c9290921790915550565b6004546001600160a01b031690565b6001600160a01b03811660009081526001602052604081205461094f9060801b611089565b90505b919050565b6003805460408051602060026001851615610100026000190190941693909304601f810184900484028201840190925281815292918301828280156105845780601f1061055957610100808354040283529160200191610584565b6005546001600160a01b031633146109c957600080fd5b6001600160a01b0382166000908152600160205260409020546108e59060801b82610c57565b6000610a156109fd83611121565b3060009081526001602052604090205460801b611186565b60000b6000191480610a335750610a2e6109fd83611121565b60000b155b610a3c57600080fd5b30600090815260016020526040902054610a619060801b610a5c84611121565b6112cf565b3060009081526001602052604080822080546001600160801b031916608094851c1790556001600160a01b0386168252902054610aa7911b610aa284611121565b610c57565b6001600160a01b0393909316600090815260016020819052604090912080546001600160801b03191660809590951c949094179093555090919050565b50600680546001600160a01b03199081163317909155600480546001600160a01b039485169083161790556005805492909316911617905550565b6005546001600160a01b03163314610b3657600080fd5b6000546104a19060801b826112cf565b6005546000906001600160a01b03163314610b6057600080fd5b610b8d610b6c83611121565b6001600160a01b03861660009081526001602052604090205460801b611186565b60000b6000191480610bab5750610ba6610b6c83611121565b60000b155b156106b2576001600160a01b038416600090815260016020526040902054610bd99060801b610a5c84611121565b6001600160a01b0385811660009081526001602052604080822080546001600160801b031916608095861c17905591861681522054610c1c911b610aa284611121565b6001600160a01b038416600090815260016020819052604090912080546001600160801b03191660809390931c9290921790915590506106b6565b6000617fff6001600160801b03608085811c8216607090811c8416939186901c90921690911c811690821415610ccd5780617fff1415610cc3576001600160801b03198581169085161415610cb05784925050506104fb565b50600160ef1b61ffff0291506104fb9050565b84925050506104fb565b80617fff1415610ce15783925050506104fb565b6001607f1b608086901c6001600160801b0381169190911015906001600160701b031683610d125760019350610d19565b600160701b175b6001607f1b608087901c6001600160801b0381169190911015906001600160701b031684610d4a5760019450610d51565b600160701b175b82610d81576001600160801b03198816600160ff1b14610d715787610d74565b60005b96505050505050506104fb565b80610da1576001600160801b03198916600160ff1b14610d715788610d74565b8486038415158315151415610ec7576070811315610dc857899750505050505050506104fb565b6000811315610de75780826000821215610dde57fe5b901c9150610e21565b606f19811215610e0057889750505050505050506104fb565b6000811215610e215780600003846000821215610e1957fe5b901c93508596505b92810192600160711b8410610e3c576001968701969390931c925b86617fff1415610e715784610e5957600160f01b617fff02610e63565b6001600160f01b03195b9750505050505050506104fb565b600160701b841015610e865760009650610e93565b6001600160701b03841693505b83607088901b86610ea5576000610eab565b6001607f1b5b6001600160801b0316171760801b9750505050505050506104fb565b6000811315610ee257600184901b9350600187039650610ef9565b6000811215610ef957600182901b91506001860396505b6070811315610f0b5760019150610f6e565b6001811315610f335760018103600183036000821215610f2757fe5b901c6001019150610f6e565b606f19811215610f465760019350610f6e565b600019811215610f6e5760018160000303600185036000821215610f6657fe5b901c60010193505b818410610f7f578184039350610f88565b83820393508294505b83610f9e5750600096506104fb95505050505050565b6000610fa9856112e1565b90508060711415610fcf57600185901c6001600160701b0316945060018801975061101e565b607081101561101157607081900380891115610ffe578086901b6001600160701b03169550808903985061100b565b600098600019019590951b945b5061101e565b6001600160701b03851694505b87617fff1415611054578561103b57600160f01b617fff02611045565b6001600160f01b03195b985050505050505050506104fb565b84607089901b8761106657600061106c565b6001607f1b5b6001600160801b0316171760801b985050505050505050506104fb565b6000617fff6001600160801b03608084901c1660701c16613fff8110156110b4576000915050610952565b6001607f1b8360801c6001600160801b0316106110d057600080fd5b6140fe8111156110df57600080fd5b600160701b6001600160701b03608085901c161761406f8210156111095761406f8290031c6106b6565b61406f8211156106b65761406e1982011b9392505050565b60008161113057506000610952565b81600061113c826112e1565b90506070811015611155578060700382901b9150611168565b6070811115611168576070810382901c91505b613fff0160701b6001600160701b03919091161760801b9050610952565b600060016001607f1b03608084901c16600160701b617fff028111156111ab57600080fd5b60016001607f1b03608084901c16600160701b617fff028111156111ce57600080fd5b6001600160801b03198581169085161415806111fa5750600160701b617fff02826001600160801b0316105b61120357600080fd5b6001600160801b03198581169085161415611223576000925050506104fb565b60006001607f1b8660801c6001600160801b03161015905060006001607f1b8660801c6001600160801b031610159050811561128e57801561127f57826001600160801b0316846001600160801b03161161127f576001611283565b6000195b9450505050506104fb565b80156112a15760019450505050506104fb565b826001600160801b0316846001600160801b0316116112c257600019611283565b60019450505050506104fb565b60006106b683600160ff1b8418610c57565b60008082116112ef57600080fd5b6000600160801b831061130457608092831c92015b68010000000000000000831061131c57604092831c92015b640100000000831061133057602092831c92015b62010000831061134257601092831c92015b610100831061135357600892831c92015b6010831061136357600492831c92015b6004831061137357600292831c92015b6002831061094f576001019291505056fea165627a7a72305820162e8417e8bdcfe387512f567332a4d5f0315a061c0e12ae02349ce389b261050029",
  "source": "// (c) Kallol Borah, 2020\r\n// Implements token issued by Bond issuer. Can be reused by any financial product issuer\r\n// SPDX-License-Identifier: MIT\r\n\r\npragma solidity 0.5.7;\r\n\r\nimport \"./erc/ERC20.sol\";\r\nimport \"./interfaces/ViaBond.sol\";\r\nimport \"./interfaces/ViaToken.sol\";\r\nimport \"./interfaces/ViaFactory.sol\";\r\n//import \"@openzeppelin/upgrades/contracts/Initializable.sol\";\r\n\r\n\r\ncontract Token is ViaToken, ERC20 {//, Initializable {\r\n\r\n    //Via token attributes (eg, name : Via-USD, product : ViaBond, symbol : bond identifier)\r\n    string public name;\r\n    string public symbol;\r\n    address private issuer;\r\n    address private issuingContract;\r\n    ViaFactory private factory;\r\n\r\n    //initiliaze proxies\r\n    function initialize(bytes32 _name, address _issuer, address _owner, bytes32 _symbol) public {\r\n        factory = ViaFactory(msg.sender);\r\n        issuer = _issuer;\r\n        issuingContract = _owner;\r\n        //name = string(abi.encodePacked(_name));\r\n        //symbol = string(abi.encodePacked(_symbol));\r\n    }\r\n\r\n    function getIssuer() external view returns(address){\r\n        return issuer;\r\n    }\r\n    \r\n    function addTotalSupply(bytes16 amount) external{\r\n        require(issuingContract==msg.sender);\r\n        //adjust total supply\r\n        totalSupply_ = ABDKMathQuad.add(totalSupply_, amount);\r\n    }\r\n\r\n    function reduceSupply(bytes16 amount) external{        \r\n        require(issuingContract==msg.sender);\r\n        totalSupply_ = ABDKMathQuad.sub(totalSupply_, amount);\r\n    }\r\n\r\n    function addBalance(address party, bytes16 amount) external{\r\n        require(issuingContract==msg.sender);\r\n        //add via to this contract's balance first (ie issue them first)\r\n        balances[party] = ABDKMathQuad.add(balances[party], amount);\r\n    }\r\n\r\n    function reduceBalance(address party, bytes16 amount) external{\r\n        require(issuingContract==msg.sender);\r\n        balances[party] = ABDKMathQuad.sub(balances[party], amount);\r\n    }\r\n\r\n    function transferFrom(address sender, address receiver, uint256 tokens) public returns (bool){\r\n        //ensure sender has enough tokens in balance before transferring or redeeming them\r\n        require(ABDKMathQuad.cmp(balances[sender],ABDKMathQuad.fromUInt(tokens))==1 ||\r\n                ABDKMathQuad.cmp(balances[sender],ABDKMathQuad.fromUInt(tokens))==0);\r\n        if(ViaBond(issuingContract).transferForward(sender, receiver, tokens, address(this)))\r\n            return true;\r\n        else\r\n            return false;\r\n    }\r\n\r\n    function transferToken(address sender, address receiver, uint256 tokens) external returns (bool){\r\n        require(issuingContract==msg.sender);\r\n        //owner should have more tokens than being transferred\r\n        if(ABDKMathQuad.cmp(ABDKMathQuad.fromUInt(tokens), balances[sender])==-1 || ABDKMathQuad.cmp(ABDKMathQuad.fromUInt(tokens), balances[sender])==0){\r\n            //sending contract should be allowed by token owner to make this transfer\r\n            balances[sender] = ABDKMathQuad.sub(balances[sender], ABDKMathQuad.fromUInt(tokens));\r\n            balances[receiver] = ABDKMathQuad.add(balances[receiver], ABDKMathQuad.fromUInt(tokens));\r\n            return true;\r\n        }\r\n        return false;\r\n    }   \r\n\r\n    function requestTransfer(address receiver, bytes16 tokens) external returns (bool){\r\n        require(issuingContract==msg.sender);\r\n        if(transfer(receiver, ABDKMathQuad.toUInt(tokens)))\r\n            return true;\r\n        else\r\n            return false;\r\n    }  \r\n\r\n    function requestTransaction(bytes16 amount, address payer, bytes32 currency, address cashContract) external returns(bool){\r\n        require(factory.getType(msg.sender) == \"ViaCash\");\r\n        if(payer==issuer){\r\n            if(ViaBond(issuingContract).requestRedemption(amount, payer, currency, address(this)))\r\n                return true;\r\n            else\r\n                return false;\r\n        }\r\n        else{\r\n            if(ViaBond(issuingContract).requestPurchase(amount, payer, currency, cashContract))\r\n                return true;\r\n            else\r\n                return false;\r\n        }\r\n        \r\n    }  \r\n    \r\n}\r\n",
  "sourcePath": "D:\\Code\\verified-payments\\contracts\\Token.sol",
  "compiler": {
    "name": "solc",
    "version": "0.5.7+commit.6da8b019.Emscripten.clang"
  },
  "schemaVersion": "3.4.3",
  "updatedAt": "2021-10-04T14:34:41.301Z",
  "networkType": "ethereum",
  "devdoc": {
    "methods": {}
  },
  "userdoc": {
    "methods": {}
  }
}