{
  "contractName": "Token",
  "abi": [
    {
      "constant": true,
      "inputs": [],
      "name": "name",
      "outputs": [
        {
          "name": "",
          "type": "string"
        }
      ],
      "payable": false,
      "stateMutability": "view",
      "type": "function"
    },
    {
      "constant": false,
      "inputs": [
        {
          "name": "spender",
          "type": "address"
        },
        {
          "name": "tokens",
          "type": "uint256"
        }
      ],
      "name": "approve",
      "outputs": [
        {
          "name": "",
          "type": "bool"
        }
      ],
      "payable": false,
      "stateMutability": "nonpayable",
      "type": "function"
    },
    {
      "constant": true,
      "inputs": [],
      "name": "totalSupply",
      "outputs": [
        {
          "name": "",
          "type": "uint256"
        }
      ],
      "payable": false,
      "stateMutability": "view",
      "type": "function"
    },
    {
      "constant": true,
      "inputs": [
        {
          "name": "",
          "type": "address"
        }
      ],
      "name": "balances",
      "outputs": [
        {
          "name": "",
          "type": "bytes16"
        }
      ],
      "payable": false,
      "stateMutability": "view",
      "type": "function"
    },
    {
      "constant": true,
      "inputs": [],
      "name": "decimals",
      "outputs": [
        {
          "name": "",
          "type": "uint8"
        }
      ],
      "payable": false,
      "stateMutability": "view",
      "type": "function"
    },
    {
      "constant": true,
      "inputs": [
        {
          "name": "tokenOwner",
          "type": "address"
        }
      ],
      "name": "balanceOf",
      "outputs": [
        {
          "name": "",
          "type": "uint256"
        }
      ],
      "payable": false,
      "stateMutability": "view",
      "type": "function"
    },
    {
      "constant": true,
      "inputs": [],
      "name": "tokenSymbol",
      "outputs": [
        {
          "name": "",
          "type": "bytes32"
        }
      ],
      "payable": false,
      "stateMutability": "view",
      "type": "function"
    },
    {
      "constant": true,
      "inputs": [],
      "name": "symbol",
      "outputs": [
        {
          "name": "",
          "type": "string"
        }
      ],
      "payable": false,
      "stateMutability": "view",
      "type": "function"
    },
    {
      "constant": false,
      "inputs": [
        {
          "name": "receiver",
          "type": "address"
        },
        {
          "name": "tokens",
          "type": "uint256"
        }
      ],
      "name": "transfer",
      "outputs": [
        {
          "name": "",
          "type": "bool"
        }
      ],
      "payable": false,
      "stateMutability": "nonpayable",
      "type": "function"
    },
    {
      "constant": true,
      "inputs": [
        {
          "name": "tokenOwner",
          "type": "address"
        },
        {
          "name": "spender",
          "type": "address"
        }
      ],
      "name": "allowance",
      "outputs": [
        {
          "name": "",
          "type": "uint256"
        }
      ],
      "payable": false,
      "stateMutability": "view",
      "type": "function"
    },
    {
      "anonymous": false,
      "inputs": [
        {
          "indexed": true,
          "name": "tokenOwner",
          "type": "address"
        },
        {
          "indexed": true,
          "name": "spender",
          "type": "address"
        },
        {
          "indexed": false,
          "name": "tokens",
          "type": "uint256"
        }
      ],
      "name": "Approval",
      "type": "event"
    },
    {
      "anonymous": false,
      "inputs": [
        {
          "indexed": true,
          "name": "from",
          "type": "address"
        },
        {
          "indexed": true,
          "name": "to",
          "type": "address"
        },
        {
          "indexed": false,
          "name": "tokens",
          "type": "uint256"
        }
      ],
      "name": "Transfer",
      "type": "event"
    },
    {
      "constant": false,
      "inputs": [
        {
          "name": "_name",
          "type": "bytes32"
        },
        {
          "name": "_owner",
          "type": "address"
        },
        {
          "name": "_symbol",
          "type": "bytes32"
        }
      ],
      "name": "initialize",
      "outputs": [],
      "payable": false,
      "stateMutability": "nonpayable",
      "type": "function"
    },
    {
      "constant": false,
      "inputs": [
        {
          "name": "amount",
          "type": "bytes16"
        }
      ],
      "name": "addTotalSupply",
      "outputs": [],
      "payable": false,
      "stateMutability": "nonpayable",
      "type": "function"
    },
    {
      "constant": false,
      "inputs": [
        {
          "name": "amount",
          "type": "bytes16"
        }
      ],
      "name": "reduceSupply",
      "outputs": [],
      "payable": false,
      "stateMutability": "nonpayable",
      "type": "function"
    },
    {
      "constant": false,
      "inputs": [
        {
          "name": "party",
          "type": "address"
        },
        {
          "name": "amount",
          "type": "bytes16"
        }
      ],
      "name": "addBalance",
      "outputs": [],
      "payable": false,
      "stateMutability": "nonpayable",
      "type": "function"
    },
    {
      "constant": false,
      "inputs": [
        {
          "name": "party",
          "type": "address"
        },
        {
          "name": "amount",
          "type": "bytes16"
        }
      ],
      "name": "reduceBalance",
      "outputs": [],
      "payable": false,
      "stateMutability": "nonpayable",
      "type": "function"
    },
    {
      "constant": false,
      "inputs": [
        {
          "name": "sender",
          "type": "address"
        },
        {
          "name": "receiver",
          "type": "address"
        },
        {
          "name": "tokens",
          "type": "uint256"
        }
      ],
      "name": "transferFrom",
      "outputs": [
        {
          "name": "",
          "type": "bool"
        }
      ],
      "payable": false,
      "stateMutability": "nonpayable",
      "type": "function"
    },
    {
      "constant": false,
      "inputs": [
        {
          "name": "sender",
          "type": "address"
        },
        {
          "name": "receiver",
          "type": "address"
        },
        {
          "name": "tokens",
          "type": "uint256"
        }
      ],
      "name": "transferToken",
      "outputs": [
        {
          "name": "",
          "type": "bool"
        }
      ],
      "payable": false,
      "stateMutability": "nonpayable",
      "type": "function"
    },
    {
      "constant": false,
      "inputs": [
        {
          "name": "receiver",
          "type": "address"
        },
        {
          "name": "tokens",
          "type": "bytes16"
        }
      ],
      "name": "requestTransfer",
      "outputs": [
        {
          "name": "",
          "type": "bool"
        }
      ],
      "payable": false,
      "stateMutability": "nonpayable",
      "type": "function"
    },
    {
      "constant": false,
      "inputs": [
        {
          "name": "amount",
          "type": "bytes16"
        },
        {
          "name": "payer",
          "type": "address"
        },
        {
          "name": "currency",
          "type": "bytes32"
        },
        {
          "name": "cashContract",
          "type": "address"
        }
      ],
      "name": "requestIssue",
      "outputs": [
        {
          "name": "",
          "type": "bool"
        }
      ],
      "payable": false,
      "stateMutability": "nonpayable",
      "type": "function"
    }
  ],
  "bytecode": "0x608060405234801561001057600080fd5b506115bc806100206000396000f3fe608060405234801561001057600080fd5b50600436106101215760003560e01c80634c099287116100ad578063a49b8a4c11610071578063a49b8a4c146103d7578063a9059cbb1461040d578063dd62ed3e14610439578063f167259114610467578063f5537ede1461048e57610121565b80634c0992871461033957806370a082311461036f5780637b61c3201461039557806395d89b411461039d57806397d3becb146103a557610121565b806318160ddd116100f457806318160ddd1461024257806323b872dd1461025c57806327e235e3146102925780632c5fc01d146102d5578063313ce5671461031b57610121565b80630141533314610126578063019b9ea01461014f57806306fdde0314610199578063095ea7b314610216575b600080fd5b61014d6004803603602081101561013c57600080fd5b50356001600160801b0319166104c4565b005b6101856004803603604081101561016557600080fd5b5080356001600160a01b031690602001356001600160801b031916610508565b604080519115158252519081900360200190f35b6101a161054b565b6040805160208082528351818301528351919283929083019185019080838360005b838110156101db5781810151838201526020016101c3565b50505050905090810190601f1680156102085780820380516001836020036101000a031916815260200191505b509250505060405180910390f35b6101856004803603604081101561022c57600080fd5b506001600160a01b0381351690602001356105d9565b61024a6106a8565b60408051918252519081900360200190f35b6101856004803603606081101561027257600080fd5b506001600160a01b038135811691602081013590911690604001356106be565b6102b8600480360360208110156102a857600080fd5b50356001600160a01b03166107e5565b604080516001600160801b03199092168252519081900360200190f35b610185600480360360808110156102eb57600080fd5b506001600160801b0319813516906001600160a01b036020820135811691604081013591606090910135166107fa565b610323610942565b6040805160ff9092168252519081900360200190f35b61014d6004803603604081101561034f57600080fd5b5080356001600160a01b031690602001356001600160801b031916610947565b61024a6004803603602081101561038557600080fd5b50356001600160a01b03166109ba565b61024a6109e7565b6101a16109ed565b61014d600480360360608110156103bb57600080fd5b508035906001600160a01b036020820135169060400135610a48565b61014d600480360360408110156103ed57600080fd5b5080356001600160a01b031690602001356001600160801b031916610ad0565b6101856004803603604081101561042357600080fd5b506001600160a01b038135169060200135610b0d565b61024a6004803603604081101561044f57600080fd5b506001600160a01b0381358116916020013516610c02565b61014d6004803603602081101561047d57600080fd5b50356001600160801b031916610c36565b610185600480360360608110156104a457600080fd5b506001600160a01b03813581169160208101359091169060400135610c5d565b6039546001600160a01b031633146104db57600080fd5b6000546104eb9060801b82610da7565b600080546001600160801b03191660809290921c91909117905550565b6039546000906001600160a01b0316331461052257600080fd5b6105348361052f846111d9565b610b0d565b1561054157506001610545565b5060005b92915050565b6036805460408051602060026001851615610100026000190190941693909304601f810184900484028201840190925281815292918301828280156105d15780601f106105a6576101008083540402835291602001916105d1565b820191906000526020600020905b8154815290600101906020018083116105b457829003601f168201915b505050505081565b60006001600160a01b03831661062357604051600160e51b62461bcd02815260040180806020018281038252602481526020018061156d6024913960400191505060405180910390fd5b61062c82611271565b3360008181526002602090815260408083206001600160a01b0389168085529083529281902080546001600160801b03191660809690961c959095179094558351868152935191937f8c5be1e5ebec7d5bd14f71427d1e84f3dd0314c0f7b2291e5b200ac8c7c3b925929081900390910190a350600192915050565b600080546106b89060801b6111d9565b90505b90565b6001600160a01b0383166000908152600160205260408120546106ec9060801b6106e784611271565b6112d6565b60000b6001148061072657506001600160a01b0384166000908152600160205260409020546107219060801b6106e784611271565b60000b155b61072f57600080fd5b60395460385460408051600160e11b63639a55550281526001600160a01b03888116600483015287811660248301526044820187905230606483015260848201939093529051919092169163c734aaaa9160a48083019260209291908290030181600087803b1580156107a157600080fd5b505af11580156107b5573d6000803e3d6000fd5b505050506040513d60208110156107cb57600080fd5b5051156107da575060016107de565b5060005b9392505050565b60016020526000908152604090205460801b81565b603a5460408051600160e01b63f429f19b02815233600482015290516000926001600160a01b03169163f429f19b916024808301926020929190829003018186803b15801561084857600080fd5b505afa15801561085c573d6000803e3d6000fd5b505050506040513d602081101561087257600080fd5b5051600160cb1b660acd2c286c2e6d021461088c57600080fd5b60395460408051600160e01b632c5fc01d0281526001600160801b0319881660048201526001600160a01b03878116602483015260448201879052858116606483015291519190921691632c5fc01d9160848083019260209291908290030181600087803b1580156108fd57600080fd5b505af1158015610911573d6000803e3d6000fd5b505050506040513d602081101561092757600080fd5b5051156109365750600161093a565b5060005b949350505050565b600290565b6039546001600160a01b0316331461095e57600080fd5b6001600160a01b0382166000908152600160205260409020546109849060801b8261141f565b6001600160a01b0392909216600090815260016020526040902080546001600160801b03191660809390931c9290921790915550565b6001600160a01b0381166000908152600160205260408120546109df9060801b6111d9565b90505b919050565b60385481565b6037805460408051602060026001851615610100026000190190941693909304601f810184900484028201840190925281815292918301828280156105d15780601f106105a6576101008083540402835291602001916105d1565b603a8054336001600160a01b031991821617909155603980549091166001600160a01b0384161790556040805160208082018690528251808303820181529183019092528051610a9c9260369201906114d4565b506040805160208082018490528251808303820181529183019092528051610ac89260379201906114d4565b506038555050565b6039546001600160a01b03163314610ae757600080fd5b6001600160a01b0382166000908152600160205260409020546109849060801b82610da7565b6000610b33610b1b83611271565b3060009081526001602052604090205460801b6112d6565b60000b6000191480610b515750610b4c610b1b83611271565b60000b155b610b5a57600080fd5b30600090815260016020526040902054610b7f9060801b610b7a84611271565b61141f565b3060009081526001602052604080822080546001600160801b031916608094851c1790556001600160a01b0386168252902054610bc5911b610bc084611271565b610da7565b6001600160a01b0393909316600090815260016020819052604090912080546001600160801b03191660809590951c949094179093555090919050565b6001600160a01b0380831660009081526002602090815260408083209385168352929052908120546107de9060801b6111d9565b6039546001600160a01b03163314610c4d57600080fd5b6000546104eb9060801b8261141f565b6039546000906001600160a01b03163314610c7757600080fd5b610ca4610c8383611271565b6001600160a01b03861660009081526001602052604090205460801b6112d6565b60000b6000191480610cc25750610cbd610c8383611271565b60000b155b156107da576001600160a01b038416600090815260016020526040902054610cf09060801b610b7a84611271565b6001600160a01b0385811660009081526001602052604080822080546001600160801b031916608095861c17905591861681522054610d33911b610bc084611271565b6001600160a01b0384811660008181526001602090815260409182902080546001600160801b03191660809690961c95909517909455805186815290519193928816927fddf252ad1be2c89b69c2b068fc378daa952ba7f163c4a11628f55a4df523b3ef92918290030190a35060016107de565b6000617fff6001600160801b03608085811c8216607090811c8416939186901c90921690911c811690821415610e1d5780617fff1415610e13576001600160801b03198581169085161415610e00578492505050610545565b50600160ef1b61ffff0291506105459050565b8492505050610545565b80617fff1415610e31578392505050610545565b6001607f1b608086901c6001600160801b0381169190911015906001600160701b031683610e625760019350610e69565b600160701b175b6001607f1b608087901c6001600160801b0381169190911015906001600160701b031684610e9a5760019450610ea1565b600160701b175b82610ed1576001600160801b03198816600160ff1b14610ec15787610ec4565b60005b9650505050505050610545565b80610ef1576001600160801b03198916600160ff1b14610ec15788610ec4565b8486038415158315151415611017576070811315610f185789975050505050505050610545565b6000811315610f375780826000821215610f2e57fe5b901c9150610f71565b606f19811215610f505788975050505050505050610545565b6000811215610f715780600003846000821215610f6957fe5b901c93508596505b92810192600160711b8410610f8c576001968701969390931c925b86617fff1415610fc15784610fa957600160f01b617fff02610fb3565b6001600160f01b03195b975050505050505050610545565b600160701b841015610fd65760009650610fe3565b6001600160701b03841693505b83607088901b86610ff5576000610ffb565b6001607f1b5b6001600160801b0316171760801b975050505050505050610545565b600081131561103257600184901b9350600187039650611049565b600081121561104957600182901b91506001860396505b607081131561105b57600191506110be565b6001811315611083576001810360018303600082121561107757fe5b901c60010191506110be565b606f1981121561109657600193506110be565b6000198112156110be57600181600003036001850360008212156110b657fe5b901c60010193505b8184106110cf5781840393506110d8565b83820393508294505b836110ee57506000965061054595505050505050565b60006110f985611431565b9050806071141561111f57600185901c6001600160701b0316945060018801975061116e565b60708110156111615760708190038089111561114e578086901b6001600160701b03169550808903985061115b565b600098600019019590951b945b5061116e565b6001600160701b03851694505b87617fff14156111a4578561118b57600160f01b617fff02611195565b6001600160f01b03195b98505050505050505050610545565b84607089901b876111b65760006111bc565b6001607f1b5b6001600160801b0316171760801b98505050505050505050610545565b6000617fff6001600160801b03608084901c1660701c16613fff8110156112045760009150506109e2565b6001607f1b8360801c6001600160801b03161061122057600080fd5b6140fe81111561122f57600080fd5b600160701b6001600160701b03608085901c161761406f8210156112595761406f8290031c6107de565b61406f8211156107de5761406e1982011b9392505050565b600081611280575060006109e2565b81600061128c82611431565b905060708110156112a5578060700382901b91506112b8565b60708111156112b8576070810382901c91505b613fff0160701b6001600160701b03919091161760801b90506109e2565b600060016001607f1b03608084901c16600160701b617fff028111156112fb57600080fd5b60016001607f1b03608084901c16600160701b617fff0281111561131e57600080fd5b6001600160801b031985811690851614158061134a5750600160701b617fff02826001600160801b0316105b61135357600080fd5b6001600160801b0319858116908516141561137357600092505050610545565b60006001607f1b8660801c6001600160801b03161015905060006001607f1b8660801c6001600160801b03161015905081156113de5780156113cf57826001600160801b0316846001600160801b0316116113cf5760016113d3565b6000195b945050505050610545565b80156113f1576001945050505050610545565b826001600160801b0316846001600160801b031611611412576000196113d3565b6001945050505050610545565b60006107de83600160ff1b8418610da7565b600080821161143f57600080fd5b6000600160801b831061145457608092831c92015b68010000000000000000831061146c57604092831c92015b640100000000831061148057602092831c92015b62010000831061149257601092831c92015b61010083106114a357600892831c92015b601083106114b357600492831c92015b600483106114c357600292831c92015b600283106109df5760010192915050565b828054600181600116156101000203166002900490600052602060002090601f016020900481019282601f1061151557805160ff1916838001178555611542565b82800160010185558215611542579182015b82811115611542578251825591602001919060010190611527565b5061154e929150611552565b5090565b6106bb91905b8082111561154e576000815560010161155856fe45524332303a20617070726f76652066726f6d20746865207a65726f2061646472657373a165627a7a7230582053ce28f63eab054628cdbad0dc82a9f5577df210f429b8f42274d4ef3c385c680029",
  "source": "// (c) Kallol Borah, 2020\r\n// Implements token issued by Bond issuer. Can be reused by any financial product issuer\r\n// SPDX-License-Identifier: MIT\r\n\r\npragma solidity 0.5.7;\r\n\r\nimport \"./erc/ERC20.sol\";\r\nimport \"./interfaces/ViaBond.sol\";\r\nimport \"./interfaces/ViaToken.sol\";\r\nimport \"./interfaces/ViaFactory.sol\";\r\nimport \"@openzeppelin/upgrades/contracts/Initializable.sol\";\r\n\r\n\r\ncontract Token is ViaToken, ERC20, Initializable {\r\n\r\n    //Via token attributes (eg, name : Via-USD, product : ViaBond, symbol : bond identifier)\r\n    string public name;\r\n    string public symbol;\r\n    bytes32 public tokenSymbol;\r\n    address private issuer;\r\n    ViaFactory private factory;\r\n\r\n    //initiliaze proxies\r\n    function initialize(bytes32 _name, address _owner, bytes32 _symbol) public {\r\n        factory = ViaFactory(msg.sender);\r\n        issuer = _owner;\r\n        name = string(abi.encodePacked(_name));\r\n        symbol = string(abi.encodePacked(_symbol));\r\n        tokenSymbol = _symbol;\r\n    }\r\n    \r\n    function addTotalSupply(bytes16 amount) external{\r\n        require(issuer==msg.sender);\r\n        //adjust total supply\r\n        totalSupply_ = ABDKMathQuad.add(totalSupply_, amount);\r\n    }\r\n\r\n    function reduceSupply(bytes16 amount) external{        \r\n        require(issuer==msg.sender);\r\n        totalSupply_ = ABDKMathQuad.sub(totalSupply_, amount);\r\n    }\r\n\r\n    function addBalance(address party, bytes16 amount) external{\r\n        require(issuer==msg.sender);\r\n        //add via to this contract's balance first (ie issue them first)\r\n        balances[party] = ABDKMathQuad.add(balances[party], amount);\r\n    }\r\n\r\n    function reduceBalance(address party, bytes16 amount) external{\r\n        require(issuer==msg.sender);\r\n        balances[party] = ABDKMathQuad.sub(balances[party], amount);\r\n    }\r\n\r\n    function transferFrom(address sender, address receiver, uint256 tokens) public returns (bool){\r\n        //ensure sender has enough tokens in balance before transferring or redeeming them\r\n        require(ABDKMathQuad.cmp(balances[sender],ABDKMathQuad.fromUInt(tokens))==1 ||\r\n                ABDKMathQuad.cmp(balances[sender],ABDKMathQuad.fromUInt(tokens))==0);\r\n        if(ViaBond(issuer).transferForward(sender, receiver, tokens, address(this), tokenSymbol))\r\n            return true;\r\n        else\r\n            return false;\r\n    }\r\n\r\n    function transferToken(address sender, address receiver, uint256 tokens) external returns (bool){\r\n        require(issuer==msg.sender);\r\n        //owner should have more tokens than being transferred\r\n        if(ABDKMathQuad.cmp(ABDKMathQuad.fromUInt(tokens), balances[sender])==-1 || ABDKMathQuad.cmp(ABDKMathQuad.fromUInt(tokens), balances[sender])==0){\r\n            //sending contract should be allowed by token owner to make this transfer\r\n            //require(ABDKMathQuad.cmp(ABDKMathQuad.fromUInt(tokens), allowed[sender][msg.sender])==-1 || ABDKMathQuad.cmp(ABDKMathQuad.fromUInt(tokens), allowed[sender][msg.sender])==0);\r\n            balances[sender] = ABDKMathQuad.sub(balances[sender], ABDKMathQuad.fromUInt(tokens));\r\n            //allowed[sender][msg.sender] = ABDKMathQuad.sub(allowed[sender][msg.sender], ABDKMathQuad.fromUInt(tokens));\r\n            balances[receiver] = ABDKMathQuad.add(balances[receiver], ABDKMathQuad.fromUInt(tokens));\r\n            emit Transfer(sender, receiver, tokens);\r\n            return true;\r\n        }\r\n        return false;\r\n    }   \r\n\r\n    function requestTransfer(address receiver, bytes16 tokens) external returns (bool){\r\n        require(issuer==msg.sender);\r\n        if(transfer(receiver, ABDKMathQuad.toUInt(tokens)))\r\n            return true;\r\n        else\r\n            return false;\r\n    }  \r\n\r\n    function requestIssue(bytes16 amount, address payer, bytes32 currency, address cashContract) external returns(bool){\r\n        require(factory.getType(msg.sender) == \"ViaCash\");\r\n        if(ViaBond(issuer).requestIssue(amount, payer, currency, cashContract))\r\n            return true;\r\n        else\r\n            return false;\r\n    }  \r\n    \r\n}\r\n",
  "sourcePath": "D:/Code/verified-payments/contracts/Token.sol",
  "compiler": {
    "name": "solc",
    "version": "0.5.7+commit.6da8b019.Emscripten.clang"
  },
  "schemaVersion": "3.3.3",
  "updatedAt": "2021-07-02T10:42:17.771Z",
  "networkType": "ethereum",
  "devdoc": {
    "methods": {}
  },
  "userdoc": {
    "methods": {}
  }
}