{
  "contractName": "Token",
  "abi": [
    {
      "constant": true,
      "inputs": [],
      "name": "name",
      "outputs": [
        {
          "name": "",
          "type": "string"
        }
      ],
      "payable": false,
      "stateMutability": "view",
      "type": "function"
    },
    {
      "constant": false,
      "inputs": [
        {
          "name": "spender",
          "type": "address"
        },
        {
          "name": "tokens",
          "type": "uint256"
        }
      ],
      "name": "approve",
      "outputs": [
        {
          "name": "",
          "type": "bool"
        }
      ],
      "payable": false,
      "stateMutability": "nonpayable",
      "type": "function"
    },
    {
      "constant": true,
      "inputs": [],
      "name": "totalSupply",
      "outputs": [
        {
          "name": "",
          "type": "uint256"
        }
      ],
      "payable": false,
      "stateMutability": "view",
      "type": "function"
    },
    {
      "constant": true,
      "inputs": [
        {
          "name": "",
          "type": "address"
        }
      ],
      "name": "balances",
      "outputs": [
        {
          "name": "",
          "type": "bytes16"
        }
      ],
      "payable": false,
      "stateMutability": "view",
      "type": "function"
    },
    {
      "constant": true,
      "inputs": [],
      "name": "decimals",
      "outputs": [
        {
          "name": "",
          "type": "uint8"
        }
      ],
      "payable": false,
      "stateMutability": "view",
      "type": "function"
    },
    {
      "constant": true,
      "inputs": [
        {
          "name": "tokenOwner",
          "type": "address"
        }
      ],
      "name": "balanceOf",
      "outputs": [
        {
          "name": "",
          "type": "uint256"
        }
      ],
      "payable": false,
      "stateMutability": "view",
      "type": "function"
    },
    {
      "constant": false,
      "inputs": [],
      "name": "renounceOwnership",
      "outputs": [],
      "payable": false,
      "stateMutability": "nonpayable",
      "type": "function"
    },
    {
      "constant": true,
      "inputs": [],
      "name": "tokenSymbol",
      "outputs": [
        {
          "name": "",
          "type": "bytes32"
        }
      ],
      "payable": false,
      "stateMutability": "view",
      "type": "function"
    },
    {
      "constant": true,
      "inputs": [],
      "name": "owner",
      "outputs": [
        {
          "name": "",
          "type": "address"
        }
      ],
      "payable": false,
      "stateMutability": "view",
      "type": "function"
    },
    {
      "constant": true,
      "inputs": [],
      "name": "isOwner",
      "outputs": [
        {
          "name": "",
          "type": "bool"
        }
      ],
      "payable": false,
      "stateMutability": "view",
      "type": "function"
    },
    {
      "constant": true,
      "inputs": [],
      "name": "symbol",
      "outputs": [
        {
          "name": "",
          "type": "string"
        }
      ],
      "payable": false,
      "stateMutability": "view",
      "type": "function"
    },
    {
      "constant": false,
      "inputs": [
        {
          "name": "receiver",
          "type": "address"
        },
        {
          "name": "tokens",
          "type": "uint256"
        }
      ],
      "name": "transfer",
      "outputs": [
        {
          "name": "",
          "type": "bool"
        }
      ],
      "payable": false,
      "stateMutability": "nonpayable",
      "type": "function"
    },
    {
      "constant": true,
      "inputs": [],
      "name": "product",
      "outputs": [
        {
          "name": "",
          "type": "bytes32"
        }
      ],
      "payable": false,
      "stateMutability": "view",
      "type": "function"
    },
    {
      "constant": true,
      "inputs": [
        {
          "name": "tokenOwner",
          "type": "address"
        },
        {
          "name": "spender",
          "type": "address"
        }
      ],
      "name": "allowance",
      "outputs": [
        {
          "name": "",
          "type": "uint256"
        }
      ],
      "payable": false,
      "stateMutability": "view",
      "type": "function"
    },
    {
      "constant": false,
      "inputs": [
        {
          "name": "newOwner",
          "type": "address"
        }
      ],
      "name": "transferOwnership",
      "outputs": [],
      "payable": false,
      "stateMutability": "nonpayable",
      "type": "function"
    },
    {
      "anonymous": false,
      "inputs": [
        {
          "indexed": true,
          "name": "previousOwner",
          "type": "address"
        },
        {
          "indexed": true,
          "name": "newOwner",
          "type": "address"
        }
      ],
      "name": "OwnershipTransferred",
      "type": "event"
    },
    {
      "anonymous": false,
      "inputs": [
        {
          "indexed": true,
          "name": "tokenOwner",
          "type": "address"
        },
        {
          "indexed": true,
          "name": "spender",
          "type": "address"
        },
        {
          "indexed": false,
          "name": "tokens",
          "type": "uint256"
        }
      ],
      "name": "Approval",
      "type": "event"
    },
    {
      "anonymous": false,
      "inputs": [
        {
          "indexed": true,
          "name": "from",
          "type": "address"
        },
        {
          "indexed": true,
          "name": "to",
          "type": "address"
        },
        {
          "indexed": false,
          "name": "tokens",
          "type": "uint256"
        }
      ],
      "name": "Transfer",
      "type": "event"
    },
    {
      "constant": false,
      "inputs": [
        {
          "name": "_factory",
          "type": "address"
        },
        {
          "name": "_name",
          "type": "bytes32"
        },
        {
          "name": "_owner",
          "type": "address"
        },
        {
          "name": "_product",
          "type": "bytes32"
        },
        {
          "name": "_symbol",
          "type": "bytes32"
        }
      ],
      "name": "initialize",
      "outputs": [],
      "payable": false,
      "stateMutability": "nonpayable",
      "type": "function"
    },
    {
      "constant": false,
      "inputs": [
        {
          "name": "sender",
          "type": "address"
        }
      ],
      "name": "initialize",
      "outputs": [],
      "payable": false,
      "stateMutability": "nonpayable",
      "type": "function"
    },
    {
      "constant": false,
      "inputs": [
        {
          "name": "amount",
          "type": "bytes16"
        }
      ],
      "name": "addTotalSupply",
      "outputs": [],
      "payable": false,
      "stateMutability": "nonpayable",
      "type": "function"
    },
    {
      "constant": false,
      "inputs": [
        {
          "name": "amount",
          "type": "bytes16"
        }
      ],
      "name": "reduceSupply",
      "outputs": [],
      "payable": false,
      "stateMutability": "nonpayable",
      "type": "function"
    },
    {
      "constant": false,
      "inputs": [
        {
          "name": "party",
          "type": "address"
        },
        {
          "name": "amount",
          "type": "bytes16"
        }
      ],
      "name": "addBalance",
      "outputs": [],
      "payable": false,
      "stateMutability": "nonpayable",
      "type": "function"
    },
    {
      "constant": false,
      "inputs": [
        {
          "name": "party",
          "type": "address"
        },
        {
          "name": "amount",
          "type": "bytes16"
        }
      ],
      "name": "reduceBalance",
      "outputs": [],
      "payable": false,
      "stateMutability": "nonpayable",
      "type": "function"
    },
    {
      "constant": false,
      "inputs": [
        {
          "name": "sender",
          "type": "address"
        },
        {
          "name": "receiver",
          "type": "address"
        },
        {
          "name": "tokens",
          "type": "uint256"
        }
      ],
      "name": "transferFrom",
      "outputs": [
        {
          "name": "",
          "type": "bool"
        }
      ],
      "payable": false,
      "stateMutability": "nonpayable",
      "type": "function"
    },
    {
      "constant": false,
      "inputs": [
        {
          "name": "sender",
          "type": "address"
        },
        {
          "name": "receiver",
          "type": "address"
        },
        {
          "name": "tokens",
          "type": "uint256"
        }
      ],
      "name": "transferToken",
      "outputs": [
        {
          "name": "",
          "type": "bool"
        }
      ],
      "payable": false,
      "stateMutability": "nonpayable",
      "type": "function"
    },
    {
      "constant": false,
      "inputs": [
        {
          "name": "receiver",
          "type": "address"
        },
        {
          "name": "tokens",
          "type": "bytes16"
        }
      ],
      "name": "requestTransfer",
      "outputs": [
        {
          "name": "",
          "type": "bool"
        }
      ],
      "payable": false,
      "stateMutability": "nonpayable",
      "type": "function"
    },
    {
      "constant": false,
      "inputs": [
        {
          "name": "amount",
          "type": "bytes16"
        },
        {
          "name": "payer",
          "type": "address"
        },
        {
          "name": "currency",
          "type": "bytes32"
        },
        {
          "name": "cashContract",
          "type": "address"
        }
      ],
      "name": "requestIssue",
      "outputs": [
        {
          "name": "",
          "type": "bool"
        }
      ],
      "payable": false,
      "stateMutability": "nonpayable",
      "type": "function"
    }
  ],
  "bytecode": "0x6080604052611a2d806100136000396000f3fe608060405234801561001057600080fd5b50600436106101735760003560e01c80637b61c320116100de578063be06acfb11610097578063dd62ed3e11610071578063dd62ed3e146104fb578063f167259114610529578063f2fde38b14610550578063f5537ede1461057657610173565b8063be06acfb1461048d578063bf9ce952146104cd578063c4d66de8146104d557610173565b80637b61c320146103ef5780638da5cb5b146103f75780638f32d59b1461041b57806395d89b4114610423578063a49b8a4c1461042b578063a9059cbb1461046157610173565b806327e235e31161013057806327e235e3146102e45780632c5fc01d14610327578063313ce5671461036d5780634c0992871461038b57806370a08231146103c1578063715018a6146103e757610173565b80630141533314610178578063019b9ea0146101a157806306fdde03146101eb578063095ea7b31461026857806318160ddd1461029457806323b872dd146102ae575b600080fd5b61019f6004803603602081101561018e57600080fd5b50356001600160801b0319166105ac565b005b6101d7600480360360408110156101b757600080fd5b5080356001600160a01b031690602001356001600160801b0319166105f0565b604080519115158252519081900360200190f35b6101f3610631565b6040805160208082528351818301528351919283929083019185019080838360005b8381101561022d578181015183820152602001610215565b50505050905090810190601f16801561025a5780820380516001836020036101000a031916815260200191505b509250505060405180910390f35b6101d76004803603604081101561027e57600080fd5b506001600160a01b0381351690602001356106bf565b61029c610710565b60408051918252519081900360200190f35b6101d7600480360360608110156102c457600080fd5b506001600160a01b03813581169160208101359091169060400135610728565b61030a600480360360208110156102fa57600080fd5b50356001600160a01b031661084f565b604080516001600160801b03199092168252519081900360200190f35b6101d76004803603608081101561033d57600080fd5b506001600160801b0319813516906001600160a01b03602082013581169160408101359160609091013516610864565b6103756109af565b6040805160ff9092168252519081900360200190f35b61019f600480360360408110156103a157600080fd5b5080356001600160a01b031690602001356001600160801b0319166109bf565b61029c600480360360208110156103d757600080fd5b50356001600160a01b0316610a32565b61019f610a5f565b61029c610b05565b6103ff610b0b565b604080516001600160a01b039092168252519081900360200190f35b6101d7610b1a565b6101f3610b40565b61019f6004803603604081101561044157600080fd5b5080356001600160a01b031690602001356001600160801b031916610b9b565b6101d76004803603604081101561047757600080fd5b506001600160a01b038135169060200135610bd8565b61019f600480360360a08110156104a357600080fd5b506001600160a01b0381358116916020810135916040820135169060608101359060800135610ccb565b61029c610e34565b61019f600480360360208110156104eb57600080fd5b50356001600160a01b0316610e3a565b61029c6004803603604081101561051157600080fd5b506001600160a01b0381358116916020013516610f2f565b61019f6004803603602081101561053f57600080fd5b50356001600160801b031916610f63565b61019f6004803603602081101561056657600080fd5b50356001600160a01b0316610f8a565b6101d76004803603606081101561058c57600080fd5b506001600160a01b03813581169160208101359091169060400135610ff2565b6000546001600160a01b031633146105c357600080fd5b6001546105d39060801b8261113a565b600180546001600160801b03191660809290921c91909117905550565b600080546001600160a01b0316331461060857600080fd5b61061a836106158461156c565b610bd8565b156106275750600161062b565b5060005b92915050565b606a805460408051602060026001851615610100026000190190941693909304601f810184900484028201840190925281815292918301828280156106b75780601f1061068c576101008083540402835291602001916106b7565b820191906000526020600020905b81548152906001019060200180831161069a57829003601f168201915b505050505081565b60006106ca82611604565b3360009081526003602090815260408083206001600160a01b03881684529091529020805460809290921c6001600160801b031990921691909117905550600192915050565b6001546000906107229060801b61156c565b90505b90565b6001600160a01b0383166000908152600260205260408120546107569060801b61075184611604565b611669565b60000b6001148061079057506001600160a01b03841660009081526002602052604090205461078b9060801b61075184611604565b60000b155b61079957600080fd5b60008054606d5460408051600160e31b6303a12b6102815260048101929092523060248301526001600160a01b0388811660448401528781166064840152608483018790529051921692631d095b089260a4808401936020939083900390910190829087803b15801561080b57600080fd5b505af115801561081f573d6000803e3d6000fd5b505050506040513d602081101561083557600080fd5b50511561084457506001610848565b5060005b9392505050565b60026020526000908152604090205460801b81565b606e5460408051600160e01b63f429f19b02815233600482015290516000926001600160a01b03169163f429f19b916024808301926020929190829003018186803b1580156108b257600080fd5b505afa1580156108c6573d6000803e3d6000fd5b505050506040513d60208110156108dc57600080fd5b5051600160cb1b660acd2c286c2e6d02146108f657600080fd5b6000805460408051600160e01b632c5fc01d0281526001600160801b0319891660048201526001600160a01b03888116602483015260448201889052868116606483015291519190921692632c5fc01d92608480820193602093909283900390910190829087803b15801561096a57600080fd5b505af115801561097e573d6000803e3d6000fd5b505050506040513d602081101561099457600080fd5b5051156109a3575060016109a7565b5060005b949350505050565b600054600160a01b900460ff1681565b6000546001600160a01b031633146109d657600080fd5b6001600160a01b0382166000908152600260205260409020546109fc9060801b826117b2565b6001600160a01b0392909216600090815260026020526040902080546001600160801b03191660809390931c9290921790915550565b6001600160a01b038116600090815260026020526040812054610a579060801b61156c565b90505b919050565b610a67610b1a565b610abb5760408051600160e51b62461bcd02815260206004820181905260248201527f4f776e61626c653a2063616c6c6572206973206e6f7420746865206f776e6572604482015290519081900360640190fd5b6037546040516000916001600160a01b0316907f8be0079c531659141344cd1fd0a4f28419497f9722a3daafe3b4186f6b6457e0908390a3603780546001600160a01b0319169055565b606d5481565b6037546001600160a01b031690565b6037546000906001600160a01b0316610b316117c4565b6001600160a01b031614905090565b606c805460408051602060026001851615610100026000190190941693909304601f810184900484028201840190925281815292918301828280156106b75780601f1061068c576101008083540402835291602001916106b7565b6000546001600160a01b03163314610bb257600080fd5b6001600160a01b0382166000908152600260205260409020546109fc9060801b8261113a565b6000610bfe610be683611604565b3060009081526002602052604090205460801b611669565b60000b6000191480610c1c5750610c17610be683611604565b60000b155b610c2557600080fd5b30600090815260026020526040902054610c4a9060801b610c4584611604565b6117b2565b3060009081526002602052604080822080546001600160801b031916608094851c1790556001600160a01b0386168252902054610c90911b610c8b84611604565b61113a565b6001600160a01b0384166000908152600260205260409020805460809290921c6001600160801b031990921691909117905550600192915050565b600454610100900460ff1680610ce45750610ce46117c8565b80610cf2575060045460ff16155b610d3057604051600160e51b62461bcd02815260040180806020018281038252602e8152602001806119d4602e913960400191505060405180910390fd5b600454610100900460ff16158015610d5b576004805460ff1961ff0019909116610100171660011790555b610d6484610e3a565b606e80546001600160a01b038089166001600160a01b03199283161790925560008054928716929091169190911790556040805160208082018890528251808303820181529183019092528051610dbf92606a920190611915565b506040805160208082018590528251808303820181529183019092528051610deb92606c920190611915565b50606d829055606b8390556000805474ff00000000000000000000000000000000000000001916600160a11b1790558015610e2c576004805461ff00191690555b505050505050565b606b5481565b600454610100900460ff1680610e535750610e536117c8565b80610e61575060045460ff16155b610e9f57604051600160e51b62461bcd02815260040180806020018281038252602e8152602001806119d4602e913960400191505060405180910390fd5b600454610100900460ff16158015610eca576004805460ff1961ff0019909116610100171660011790555b603780546001600160a01b0319166001600160a01b0384811691909117918290556040519116906000907f8be0079c531659141344cd1fd0a4f28419497f9722a3daafe3b4186f6b6457e0908290a38015610f2b576004805461ff00191690555b5050565b6001600160a01b0380831660009081526003602090815260408083209385168352929052908120546108489060801b61156c565b6000546001600160a01b03163314610f7a57600080fd5b6001546105d39060801b826117b2565b610f92610b1a565b610fe65760408051600160e51b62461bcd02815260206004820181905260248201527f4f776e61626c653a2063616c6c6572206973206e6f7420746865206f776e6572604482015290519081900360640190fd5b610fef816117ce565b50565b600080546001600160a01b0316331461100a57600080fd5b61103761101683611604565b6001600160a01b03861660009081526002602052604090205460801b611669565b60000b6000191480611055575061105061101683611604565b60000b155b15610844576001600160a01b0384166000908152600260205260409020546110839060801b610c4584611604565b6001600160a01b0385811660009081526002602052604080822080546001600160801b031916608095861c179055918616815220546110c6911b610c8b84611604565b6001600160a01b0384811660008181526002602090815260409182902080546001600160801b03191660809690961c95909517909455805186815290519193928816927fddf252ad1be2c89b69c2b068fc378daa952ba7f163c4a11628f55a4df523b3ef92918290030190a3506001610848565b6000617fff6001600160801b03608085811c8216607090811c8416939186901c90921690911c8116908214156111b05780617fff14156111a6576001600160801b0319858116908516141561119357849250505061062b565b50600160ef1b61ffff02915061062b9050565b849250505061062b565b80617fff14156111c457839250505061062b565b6001607f1b608086901c6001600160801b0381169190911015906001600160701b0316836111f557600193506111fc565b600160701b175b6001607f1b608087901c6001600160801b0381169190911015906001600160701b03168461122d5760019450611234565b600160701b175b82611264576001600160801b03198816600160ff1b146112545787611257565b60005b965050505050505061062b565b80611284576001600160801b03198916600160ff1b146112545788611257565b84860384151583151514156113aa5760708113156112ab578997505050505050505061062b565b60008113156112ca57808260008212156112c157fe5b901c9150611304565b606f198112156112e3578897505050505050505061062b565b600081121561130457806000038460008212156112fc57fe5b901c93508596505b92810192600160711b841061131f576001968701969390931c925b86617fff1415611354578461133c57600160f01b617fff02611346565b6001600160f01b03195b97505050505050505061062b565b600160701b8410156113695760009650611376565b6001600160701b03841693505b83607088901b8661138857600061138e565b6001607f1b5b6001600160801b0316171760801b97505050505050505061062b565b60008113156113c557600184901b93506001870396506113dc565b60008112156113dc57600182901b91506001860396505b60708113156113ee5760019150611451565b6001811315611416576001810360018303600082121561140a57fe5b901c6001019150611451565b606f198112156114295760019350611451565b600019811215611451576001816000030360018503600082121561144957fe5b901c60010193505b81841061146257818403935061146b565b83820393508294505b8361148157506000965061062b95505050505050565b600061148c85611872565b905080607114156114b257600185901c6001600160701b03169450600188019750611501565b60708110156114f4576070819003808911156114e1578086901b6001600160701b0316955080890398506114ee565b600098600019019590951b945b50611501565b6001600160701b03851694505b87617fff1415611537578561151e57600160f01b617fff02611528565b6001600160f01b03195b9850505050505050505061062b565b84607089901b8761154957600061154f565b6001607f1b5b6001600160801b0316171760801b9850505050505050505061062b565b6000617fff6001600160801b03608084901c1660701c16613fff811015611597576000915050610a5a565b6001607f1b8360801c6001600160801b0316106115b357600080fd5b6140fe8111156115c257600080fd5b600160701b6001600160701b03608085901c161761406f8210156115ec5761406f8290031c610848565b61406f8211156108485761406e1982011b9392505050565b60008161161357506000610a5a565b81600061161f82611872565b90506070811015611638578060700382901b915061164b565b607081111561164b576070810382901c91505b613fff0160701b6001600160701b03919091161760801b9050610a5a565b600060016001607f1b03608084901c16600160701b617fff0281111561168e57600080fd5b60016001607f1b03608084901c16600160701b617fff028111156116b157600080fd5b6001600160801b03198581169085161415806116dd5750600160701b617fff02826001600160801b0316105b6116e657600080fd5b6001600160801b031985811690851614156117065760009250505061062b565b60006001607f1b8660801c6001600160801b03161015905060006001607f1b8660801c6001600160801b031610159050811561177157801561176257826001600160801b0316846001600160801b031611611762576001611766565b6000195b94505050505061062b565b801561178457600194505050505061062b565b826001600160801b0316846001600160801b0316116117a557600019611766565b600194505050505061062b565b600061084883600160ff1b841861113a565b3390565b303b1590565b6001600160a01b03811661181657604051600160e51b62461bcd0281526004018080602001828103825260268152602001806119ae6026913960400191505060405180910390fd5b6037546040516001600160a01b038084169216907f8be0079c531659141344cd1fd0a4f28419497f9722a3daafe3b4186f6b6457e090600090a3603780546001600160a01b0319166001600160a01b0392909216919091179055565b600080821161188057600080fd5b6000600160801b831061189557608092831c92015b6801000000000000000083106118ad57604092831c92015b64010000000083106118c157602092831c92015b6201000083106118d357601092831c92015b61010083106118e457600892831c92015b601083106118f457600492831c92015b6004831061190457600292831c92015b60028310610a575760010192915050565b828054600181600116156101000203166002900490600052602060002090601f016020900481019282601f1061195657805160ff1916838001178555611983565b82800160010185558215611983579182015b82811115611983578251825591602001919060010190611968565b5061198f929150611993565b5090565b61072591905b8082111561198f576000815560010161199956fe4f776e61626c653a206e6577206f776e657220697320746865207a65726f2061646472657373436f6e747261637420696e7374616e63652068617320616c7265616479206265656e20696e697469616c697a6564a165627a7a7230582012d78038a16e1668f7419a7731e77342f1114f8f3b3606c3bfccfb5b21387ca70029",
  "source": "// (c) Kallol Borah, 2020\r\n// Implements token issued by Bond issuer. Can be reused by any financial product issuer\r\n// SPDX-License-Identifier: MIT\r\n\r\npragma solidity 0.5.7;\r\n\r\nimport \"./erc/ERC20.sol\";\r\nimport \"./interfaces/ViaBond.sol\";\r\nimport \"./interfaces/ViaToken.sol\";\r\nimport \"./interfaces/ViaFactory.sol\";\r\nimport \"@openzeppelin/upgrades/contracts/Initializable.sol\";\r\nimport \"@openzeppelin/contracts-ethereum-package/contracts/ownership/Ownable.sol\";\r\nimport \"abdk-libraries-solidity/ABDKMathQuad.sol\";\r\nimport \"./utilities/StringUtils.sol\";\r\n\r\ncontract Token is ViaToken, ERC20, Initializable, Ownable {\r\n\r\n    using stringutils for *;\r\n\r\n    //Via token attributes (eg, name : Via-USD, product : ViaBond, symbol : bond identifier)\r\n    string public name;\r\n    bytes32 public product;\r\n    string public symbol;\r\n    bytes32 public tokenSymbol;\r\n\r\n    ViaFactory private factory;\r\n\r\n    //initiliaze proxies\r\n    function initialize(address _factory, bytes32 _name, address payable _owner, bytes32 _product, bytes32 _symbol) public initializer{\r\n        Ownable.initialize(_owner);\r\n        factory = ViaFactory(_factory);\r\n        issuer = _owner;\r\n        name = string(abi.encodePacked(_name));\r\n        symbol = string(abi.encodePacked(_symbol));\r\n        tokenSymbol = _symbol;\r\n        product = _product;\r\n        decimals = 2;\r\n    }\r\n\r\n    function addTotalSupply(bytes16 amount) external{\r\n        require(issuer==msg.sender);\r\n        //adjust total supply\r\n        totalSupply_ = ABDKMathQuad.add(totalSupply_, amount);\r\n    }\r\n\r\n    function reduceSupply(bytes16 amount) external{        \r\n        require(issuer==msg.sender);\r\n        totalSupply_ = ABDKMathQuad.sub(totalSupply_, amount);\r\n    }\r\n\r\n    function addBalance(address party, bytes16 amount) external{\r\n        require(issuer==msg.sender);\r\n        //add via to this contract's balance first (ie issue them first)\r\n        balances[party] = ABDKMathQuad.add(balances[party], amount);\r\n    }\r\n\r\n    function reduceBalance(address party, bytes16 amount) external{\r\n        require(issuer==msg.sender);\r\n        balances[party] = ABDKMathQuad.sub(balances[party], amount);\r\n    }\r\n\r\n    function transferFrom(address sender, address receiver, uint256 tokens) public returns (bool){\r\n        //ensure sender has enough tokens in balance before transferring or redeeming them\r\n        require(ABDKMathQuad.cmp(balances[sender],ABDKMathQuad.fromUInt(tokens))==1 ||\r\n                ABDKMathQuad.cmp(balances[sender],ABDKMathQuad.fromUInt(tokens))==0);\r\n        if(ViaBond(issuer).transferForward(tokenSymbol, address(this), sender, receiver, tokens))\r\n            return true;\r\n        else\r\n            return false;\r\n    }\r\n\r\n    function transferToken(address sender, address receiver, uint256 tokens) external returns (bool){\r\n        require(issuer==msg.sender);\r\n        //owner should have more tokens than being transferred\r\n        if(ABDKMathQuad.cmp(ABDKMathQuad.fromUInt(tokens), balances[sender])==-1 || ABDKMathQuad.cmp(ABDKMathQuad.fromUInt(tokens), balances[sender])==0){\r\n            //sending contract should be allowed by token owner to make this transfer\r\n            //require(ABDKMathQuad.cmp(ABDKMathQuad.fromUInt(tokens), allowed[sender][msg.sender])==-1 || ABDKMathQuad.cmp(ABDKMathQuad.fromUInt(tokens), allowed[sender][msg.sender])==0);\r\n            balances[sender] = ABDKMathQuad.sub(balances[sender], ABDKMathQuad.fromUInt(tokens));\r\n            //allowed[sender][msg.sender] = ABDKMathQuad.sub(allowed[sender][msg.sender], ABDKMathQuad.fromUInt(tokens));\r\n            balances[receiver] = ABDKMathQuad.add(balances[receiver], ABDKMathQuad.fromUInt(tokens));\r\n            emit Transfer(sender, receiver, tokens);\r\n            return true;\r\n        }\r\n        return false;\r\n    }   \r\n\r\n    function requestTransfer(address receiver, bytes16 tokens) external returns (bool){\r\n        require(issuer==msg.sender);\r\n        if(transfer(receiver, ABDKMathQuad.toUInt(tokens)))\r\n            return true;\r\n        else\r\n            return false;\r\n    }  \r\n\r\n    function requestIssue(bytes16 amount, address payer, bytes32 currency, address cashContract) external returns(bool){\r\n        require(factory.getType(msg.sender) == \"ViaCash\");\r\n        if(ViaBond(issuer).requestIssue(amount, payer, currency, cashContract))\r\n            return true;\r\n        else\r\n            return false;\r\n    }  \r\n\r\n}\r\n",
  "sourcePath": "D:/Code/verified-issuer/contracts/Token.sol",
  "compiler": {
    "name": "solc",
    "version": "0.5.7+commit.6da8b019.Emscripten.clang"
  },
  "schemaVersion": "3.3.3",
  "updatedAt": "2021-03-06T16:27:27.642Z",
  "networkType": "ethereum",
  "devdoc": {
    "methods": {
      "initialize(address)": {
        "details": "Initializes the contract setting the deployer as the initial owner.\r"
      },
      "isOwner()": {
        "details": "Returns true if the caller is the current owner.\r"
      },
      "owner()": {
        "details": "Returns the address of the current owner.\r"
      },
      "renounceOwnership()": {
        "details": "Leaves the contract without owner. It will not be possible to call\r `onlyOwner` functions anymore. Can only be called by the current owner.\r      * > Note: Renouncing ownership will leave the contract without an owner,\r thereby removing any functionality that is only available to the owner.\r"
      },
      "transferOwnership(address)": {
        "details": "Transfers ownership of the contract to a new account (`newOwner`).\r Can only be called by the current owner.\r"
      }
    }
  },
  "userdoc": {
    "methods": {}
  }
}