{
  "contractName": "Client",
  "abi": [
    {
      "constant": false,
      "inputs": [
        {
          "name": "_kyc",
          "type": "address"
        }
      ],
      "name": "initialize",
      "outputs": [],
      "payable": false,
      "stateMutability": "nonpayable",
      "type": "function"
    },
    {
      "constant": false,
      "inputs": [
        {
          "name": "_client",
          "type": "address"
        },
        {
          "name": "_account",
          "type": "address"
        }
      ],
      "name": "setCustody",
      "outputs": [],
      "payable": false,
      "stateMutability": "nonpayable",
      "type": "function"
    },
    {
      "constant": true,
      "inputs": [
        {
          "name": "_client",
          "type": "address"
        }
      ],
      "name": "getCustody",
      "outputs": [
        {
          "name": "",
          "type": "address"
        }
      ],
      "payable": false,
      "stateMutability": "view",
      "type": "function"
    },
    {
      "constant": false,
      "inputs": [
        {
          "name": "login",
          "type": "bool"
        }
      ],
      "name": "setAccess",
      "outputs": [],
      "payable": false,
      "stateMutability": "nonpayable",
      "type": "function"
    },
    {
      "constant": true,
      "inputs": [
        {
          "name": "_client",
          "type": "address"
        }
      ],
      "name": "getAccess",
      "outputs": [
        {
          "name": "",
          "type": "uint256"
        },
        {
          "name": "",
          "type": "uint256"
        }
      ],
      "payable": false,
      "stateMutability": "view",
      "type": "function"
    },
    {
      "constant": false,
      "inputs": [
        {
          "name": "_client",
          "type": "address"
        },
        {
          "name": "_manager",
          "type": "address"
        }
      ],
      "name": "setManager",
      "outputs": [],
      "payable": false,
      "stateMutability": "nonpayable",
      "type": "function"
    },
    {
      "constant": true,
      "inputs": [
        {
          "name": "_client",
          "type": "address"
        },
        {
          "name": "requestor",
          "type": "address"
        }
      ],
      "name": "getManager",
      "outputs": [
        {
          "name": "",
          "type": "address"
        }
      ],
      "payable": false,
      "stateMutability": "view",
      "type": "function"
    },
    {
      "constant": true,
      "inputs": [
        {
          "name": "_client",
          "type": "address"
        },
        {
          "name": "requestor",
          "type": "address"
        }
      ],
      "name": "isRegistered",
      "outputs": [
        {
          "name": "",
          "type": "bool"
        }
      ],
      "payable": false,
      "stateMutability": "view",
      "type": "function"
    }
  ],
  "bytecode": "0x608060405234801561001057600080fd5b50610894806100206000396000f3fe608060405234801561001057600080fd5b50600436106100885760003560e01c80635df8122f1161005b5780635df8122f1461015d578063bc9728391461018b578063c4d66de8146101b9578063d3da927f146101df57610088565b806319d7152c1461008d578063207df189146100cf5780633c33c9ce146100ff57806359ce7d4c1461013e575b600080fd5b6100b3600480360360208110156100a357600080fd5b50356001600160a01b0316610221565b604080516001600160a01b039092168252519081900360200190f35b6100fd600480360360408110156100e557600080fd5b506001600160a01b0381358116916020013516610302565b005b6101256004803603602081101561011557600080fd5b50356001600160a01b03166103f2565b6040805192835260208301919091528051918290030190f35b6100fd6004803603602081101561015457600080fd5b503515156104da565b6100fd6004803603604081101561017357600080fd5b506001600160a01b0381358116916020013516610590565b6100b3600480360360408110156101a157600080fd5b506001600160a01b038135811691602001351661071b565b6100fd600480360360208110156101cf57600080fd5b50356001600160a01b03166107c5565b61020d600480360360408110156101f557600080fd5b506001600160a01b03813581169160200135166107e7565b604080519115158252519081900360200190f35b60006001600160a01b03821633148061025657506001600160a01b038281166000908152603360205260409020600201541633145b61025f57600080fd5b60355460408051600160e01b6330ccebb50281526001600160a01b038581166004830152915191909216916330ccebb5916024808301926020929190829003018186803b1580156102af57600080fd5b505afa1580156102c3573d6000803e3d6000fd5b505050506040513d60208110156102d957600080fd5b5051156102fd57506001600160a01b03808216600090815260346020526040902054165b919050565b6001600160a01b03821633148061033557506001600160a01b038281166000908152603360205260409020600201541633145b61033e57600080fd5b60355460408051600160e01b6330ccebb50281526001600160a01b038581166004830152915191909216916330ccebb5916024808301926020929190829003018186803b15801561038e57600080fd5b505afa1580156103a2573d6000803e3d6000fd5b505050506040513d60208110156103b857600080fd5b5051156103ee576001600160a01b03828116600090815260346020526040902080546001600160a01b0319169183169190911790555b5050565b6000806001600160a01b03831633148061042857506001600160a01b038381166000908152603360205260409020600201541633145b61043157600080fd5b60355460408051600160e01b6330ccebb50281526001600160a01b038681166004830152915191909216916330ccebb5916024808301926020929190829003018186803b15801561048157600080fd5b505afa158015610495573d6000803e3d6000fd5b505050506040513d60208110156104ab57600080fd5b5051156104d55750506001600160a01b038116600090815260336020526040902080546001909101545b915091565b60355460408051600160e01b6330ccebb502815233600482015290516001600160a01b03909216916330ccebb591602480820192602092909190829003018186803b15801561052857600080fd5b505afa15801561053c573d6000803e3d6000fd5b505050506040513d602081101561055257600080fd5b50511561058d5780156105765733600090815260336020526040902042905561058d565b336000908152603360205260409020426001909101555b50565b6001600160a01b0382163314156106595760355460408051600160e01b6330ccebb50281526001600160a01b038581166004830152915191909216916330ccebb5916024808301926020929190829003018186803b1580156105f157600080fd5b505afa158015610605573d6000803e3d6000fd5b505050506040513d602081101561061b57600080fd5b505115610654576001600160a01b03828116600090815260336020526040902060020180546001600160a01b0319169183169190911790555b6103ee565b6001600160a01b0381163314156103ee5760355460408051600160e01b6330ccebb50281526001600160a01b038581166004830152915191909216916330ccebb5916024808301926020929190829003018186803b1580156106ba57600080fd5b505afa1580156106ce573d6000803e3d6000fd5b505050506040513d60208110156106e457600080fd5b50516103ee576001600160a01b03918216600090815260336020526040902060020180546001600160a01b03191691909216179055565b60006001600160a01b03831633148061075057506001600160a01b038381166000908152603360205260409020600201541633145b8061077a57506001600160a01b038084166000908152603360205260409020600201548382169116145b806107965750816001600160a01b0316836001600160a01b0316145b61079f57600080fd5b506001600160a01b03808316600090815260336020526040902060020154165b92915050565b603580546001600160a01b0319166001600160a01b0392909216919091179055565b6001600160a01b0380831660009081526033602052604081206002015490918381169116148061081f57506001600160a01b03831633145b8061083257506001600160a01b03831630145b61083b57600080fd5b6001600160a01b038316600090815260336020526040902054610860575060006107bf565b5060016107bf56fea165627a7a723058205f752bf8bb5736bffb987fd78e83a1062f8e191a02c5b143d340b3658a8660dd0029",
  "source": "// (c) Kallol Borah, 2020\r\n// Sets up account and manages custody\r\n\r\npragma solidity 0.5.7;\r\n\r\nimport \"./interfaces/VerifiedKYC.sol\";\r\nimport \"./interfaces/VerifiedClient.sol\";\r\nimport \"@openzeppelin/upgrades/contracts/Initializable.sol\";\r\n\r\ncontract Client is VerifiedClient, Initializable{\r\n\r\n    struct access{\r\n        uint256 login;\r\n        uint256 logout;  \r\n        address manager;      \r\n    }\r\n\r\n    //mapping of a client to login info\r\n    mapping(address=> access) private info;\r\n\r\n    //mapping of a client to its custody account\r\n    mapping(address => address) private custody;\r\n\r\n    //kyc contract\r\n    VerifiedKYC private Kyc;\r\n\r\n    //owner is someone who can upgrade this contract\r\n    function initialize(address _kyc) public {\r\n        Kyc = VerifiedKYC(_kyc);\r\n    }\r\n\r\n    //only the user or its manager can set the custody account address\r\n    function setCustody(address _client, address _account) external {\r\n        require(_client==msg.sender || info[_client].manager==msg.sender);\r\n        if(Kyc.getStatus(_client)){\r\n            custody[_client] = _account;\r\n        }\r\n    }\r\n\r\n    //only the user or its manager can get the custody account address\r\n    function getCustody(address _client) external view returns(address){\r\n        require(_client==msg.sender || info[_client].manager==msg.sender);\r\n        if(Kyc.getStatus(_client)){\r\n            return custody[_client];\r\n        }\r\n    }\r\n\r\n    //access info can only be set by user\r\n    function setAccess(bool login) external{\r\n        if(Kyc.getStatus(msg.sender)){\r\n            if(login)\r\n                info[msg.sender].login=now;\r\n            else\r\n                info[msg.sender].logout=now;\r\n        }\r\n    }\r\n\r\n    //access data for a user can only be retrieved by itself or its manager\r\n    function getAccess(address _client) external view returns(uint256, uint256){\r\n        require(_client==msg.sender || info[_client].manager==msg.sender);\r\n        if(Kyc.getStatus(_client)){\r\n            return (info[_client].login, info[_client].logout);\r\n        }\r\n    }\r\n\r\n    //manager for a user can only be set by the manager when the user is not registered\r\n    //otherwise, only the user can set its manager\r\n    function setManager(address _client, address _manager) external{\r\n        if(_client==msg.sender){\r\n            if(Kyc.getStatus(_client)){\r\n                info[_client].manager = _manager;\r\n            }\r\n        }\r\n        else if(_manager==msg.sender){\r\n            if(!Kyc.getStatus(_client)){\r\n                info[_client].manager = _manager;\r\n            }\r\n        }\r\n    }\r\n\r\n    // manager identity can be retrieved by user or its manager only\r\n    function getManager(address _client, address requestor) external view returns(address){\r\n        require(_client==msg.sender || info[_client].manager==msg.sender || requestor==info[_client].manager || _client==requestor);\r\n        return info[_client].manager;\r\n    }\r\n\r\n    //checks if client is registered or not\r\n    function isRegistered(address _client, address requestor) external view returns(bool){\r\n        require(requestor==info[_client].manager || _client==msg.sender || _client==address(this));\r\n        if(info[_client].login==0)\r\n            return false;\r\n        else\r\n            return true;\r\n    }\r\n\r\n}",
  "sourcePath": "D:/Code/verified-accounts/contracts/Client.sol",
  "compiler": {
    "name": "solc",
    "version": "0.5.7+commit.6da8b019.Emscripten.clang"
  },
  "schemaVersion": "3.3.3",
  "updatedAt": "2021-01-08T05:15:07.478Z",
  "devdoc": {
    "methods": {}
  },
  "userdoc": {
    "methods": {}
  }
}