{
  "contractName": "Client",
  "abi": [
    {
      "constant": false,
      "inputs": [
        {
          "name": "_kyc",
          "type": "address"
        }
      ],
      "name": "initialize",
      "outputs": [],
      "payable": false,
      "stateMutability": "nonpayable",
      "type": "function"
    },
    {
      "constant": false,
      "inputs": [
        {
          "name": "_client",
          "type": "address"
        },
        {
          "name": "_account",
          "type": "address"
        }
      ],
      "name": "setCustody",
      "outputs": [],
      "payable": false,
      "stateMutability": "nonpayable",
      "type": "function"
    },
    {
      "constant": true,
      "inputs": [
        {
          "name": "_client",
          "type": "address"
        }
      ],
      "name": "getCustody",
      "outputs": [
        {
          "name": "",
          "type": "address"
        }
      ],
      "payable": false,
      "stateMutability": "view",
      "type": "function"
    },
    {
      "constant": false,
      "inputs": [
        {
          "name": "login",
          "type": "bool"
        }
      ],
      "name": "setAccess",
      "outputs": [],
      "payable": false,
      "stateMutability": "nonpayable",
      "type": "function"
    },
    {
      "constant": true,
      "inputs": [
        {
          "name": "_client",
          "type": "address"
        }
      ],
      "name": "getAccess",
      "outputs": [
        {
          "name": "",
          "type": "uint256"
        },
        {
          "name": "",
          "type": "uint256"
        }
      ],
      "payable": false,
      "stateMutability": "view",
      "type": "function"
    },
    {
      "constant": false,
      "inputs": [
        {
          "name": "_client",
          "type": "address"
        },
        {
          "name": "_manager",
          "type": "address"
        }
      ],
      "name": "setManager",
      "outputs": [],
      "payable": false,
      "stateMutability": "nonpayable",
      "type": "function"
    },
    {
      "constant": true,
      "inputs": [
        {
          "name": "_client",
          "type": "address"
        }
      ],
      "name": "getManager",
      "outputs": [
        {
          "name": "",
          "type": "address"
        }
      ],
      "payable": false,
      "stateMutability": "view",
      "type": "function"
    },
    {
      "constant": true,
      "inputs": [
        {
          "name": "_client",
          "type": "address"
        }
      ],
      "name": "isRegistered",
      "outputs": [
        {
          "name": "",
          "type": "bool"
        }
      ],
      "payable": false,
      "stateMutability": "view",
      "type": "function"
    }
  ],
  "bytecode": "0x608060405234801561001057600080fd5b50610834806100206000396000f3fe608060405234801561001057600080fd5b50600436106100885760003560e01c806359ce7d4c1161005b57806359ce7d4c146101645780635df8122f14610183578063c3c5a547146101b1578063c4d66de8146101eb57610088565b806319d7152c1461008d578063207df189146100cf5780633c33c9ce146100ff5780633d5840631461013e575b600080fd5b6100b3600480360360208110156100a357600080fd5b50356001600160a01b0316610211565b604080516001600160a01b039092168252519081900360200190f35b6100fd600480360360408110156100e557600080fd5b506001600160a01b03813581169160200135166102f2565b005b6101256004803603602081101561011557600080fd5b50356001600160a01b03166103e2565b6040805192835260208301919091528051918290030190f35b6100b36004803603602081101561015457600080fd5b50356001600160a01b03166104ca565b6100fd6004803603602081101561017a57600080fd5b503515156104eb565b6100fd6004803603604081101561019957600080fd5b506001600160a01b03813581169160200135166105a1565b6101d7600480360360208110156101c757600080fd5b50356001600160a01b03166107b8565b604080519115158252519081900360200190f35b6100fd6004803603602081101561020157600080fd5b50356001600160a01b03166107e6565b60006001600160a01b03821633148061024657506001600160a01b038281166000908152603360205260409020600201541633145b61024f57600080fd5b60355460408051600160e01b6330ccebb50281526001600160a01b038581166004830152915191909216916330ccebb5916024808301926020929190829003018186803b15801561029f57600080fd5b505afa1580156102b3573d6000803e3d6000fd5b505050506040513d60208110156102c957600080fd5b5051156102ed57506001600160a01b03808216600090815260346020526040902054165b919050565b6001600160a01b03821633148061032557506001600160a01b038281166000908152603360205260409020600201541633145b61032e57600080fd5b60355460408051600160e01b6330ccebb50281526001600160a01b038581166004830152915191909216916330ccebb5916024808301926020929190829003018186803b15801561037e57600080fd5b505afa158015610392573d6000803e3d6000fd5b505050506040513d60208110156103a857600080fd5b5051156103de576001600160a01b03828116600090815260346020526040902080546001600160a01b0319169183169190911790555b5050565b6000806001600160a01b03831633148061041857506001600160a01b038381166000908152603360205260409020600201541633145b61042157600080fd5b60355460408051600160e01b6330ccebb50281526001600160a01b038681166004830152915191909216916330ccebb5916024808301926020929190829003018186803b15801561047157600080fd5b505afa158015610485573d6000803e3d6000fd5b505050506040513d602081101561049b57600080fd5b5051156104c55750506001600160a01b038116600090815260336020526040902080546001909101545b915091565b6001600160a01b039081166000908152603360205260409020600201541690565b60355460408051600160e01b6330ccebb502815233600482015290516001600160a01b03909216916330ccebb591602480820192602092909190829003018186803b15801561053957600080fd5b505afa15801561054d573d6000803e3d6000fd5b505050506040513d602081101561056357600080fd5b50511561059e5780156105875733600090815260336020526040902042905561059e565b336000908152603360205260409020426001909101555b50565b6001600160a01b038216331480156105cb5750806001600160a01b0316826001600160a01b031614155b156106885760355460408051600160e01b6330ccebb50281526001600160a01b038581166004830152915191909216916330ccebb5916024808301926020929190829003018186803b15801561062057600080fd5b505afa158015610634573d6000803e3d6000fd5b505050506040513d602081101561064a57600080fd5b505115610683576001600160a01b03828116600090815260336020526040902060020180546001600160a01b0319169183169190911790555b6103de565b6001600160a01b0381163314806106bb57506001600160a01b038281166000908152603360205260409020600201541633145b80156106d95750806001600160a01b0316826001600160a01b031614155b156103de5760355460408051600160e01b6330ccebb50281526001600160a01b038581166004830152915191909216916330ccebb5916024808301926020929190829003018186803b15801561072e57600080fd5b505afa158015610742573d6000803e3d6000fd5b505050506040513d602081101561075857600080fd5b5051158061078257506001600160a01b038281166000908152603360205260409020600201541633145b156103de576001600160a01b03918216600090815260336020526040902060020180546001600160a01b03191691909216179055565b6001600160a01b038116600090815260336020526040812054156107de575060016102ed565b5060006102ed565b603580546001600160a01b0319166001600160a01b039290921691909117905556fea165627a7a72305820234eade09ee60a6894db2097f6ca36612fb82428f6a7d8af20eb7d2787f291140029",
  "source": "// (c) Kallol Borah, 2020\r\n// Sets up account and manages custody\r\n\r\npragma solidity 0.5.7;\r\n\r\nimport \"./interfaces/VerifiedKYC.sol\";\r\nimport \"./interfaces/VerifiedClient.sol\";\r\nimport \"@openzeppelin/upgrades/contracts/Initializable.sol\";\r\n\r\ncontract Client is VerifiedClient, Initializable{\r\n\r\n    struct access{\r\n        uint256 login;\r\n        uint256 logout;  \r\n        address manager;      \r\n    }\r\n\r\n    //mapping of a client to login info\r\n    mapping(address=> access) private info;\r\n\r\n    //mapping of a client to its custody account\r\n    mapping(address => address) private custody;\r\n\r\n    //kyc contract\r\n    VerifiedKYC private Kyc;\r\n\r\n    //owner is someone who can upgrade this contract\r\n    function initialize(address _kyc) public {\r\n        Kyc = VerifiedKYC(_kyc);\r\n    }\r\n\r\n    //only the user or its manager can set the custody account address\r\n    function setCustody(address _client, address _account) external {\r\n        require(_client==msg.sender || info[_client].manager==msg.sender);\r\n        if(Kyc.getStatus(_client)){\r\n            custody[_client] = _account;\r\n        }\r\n    }\r\n\r\n    //only the user or its manager can get the custody account address\r\n    function getCustody(address _client) external view returns(address){\r\n        require(_client==msg.sender || info[_client].manager==msg.sender);\r\n        if(Kyc.getStatus(_client)){\r\n            return custody[_client];\r\n        }\r\n    }\r\n\r\n    //access info can only be set by user\r\n    function setAccess(bool login) external{\r\n        if(Kyc.getStatus(msg.sender)){\r\n            if(login)\r\n                info[msg.sender].login=now;\r\n            else\r\n                info[msg.sender].logout=now;\r\n        }\r\n    }\r\n\r\n    //access data for a user can only be retrieved by itself or its manager\r\n    function getAccess(address _client) external view returns(uint256, uint256){\r\n        require(_client==msg.sender || info[_client].manager==msg.sender);\r\n        if(Kyc.getStatus(_client)){\r\n            return (info[_client].login, info[_client].logout);\r\n        }\r\n    }\r\n\r\n    //manager for a user can only be set by the manager when the user is not registered\r\n    //otherwise, only the user can set its manager\r\n    function setManager(address _client, address _manager) external{\r\n        if(_client==msg.sender && _client!=_manager){\r\n            if(Kyc.getStatus(_client)){\r\n                info[_client].manager = _manager;\r\n            }\r\n        }\r\n        else if((_manager==msg.sender || info[_client].manager==msg.sender) && _client!=_manager){\r\n            if(!Kyc.getStatus(_client) || info[_client].manager==msg.sender){\r\n                info[_client].manager = _manager;\r\n            }\r\n        }\r\n    }\r\n\r\n    // manager identity can be retrieved by user or its manager only\r\n    function getManager(address _client) external view returns(address){\r\n        return info[_client].manager;\r\n    }\r\n\r\n    //checks if client is registered or not\r\n    function isRegistered(address _client) external view returns(bool){\r\n        if(info[_client].login!=0)\r\n            return true;\r\n        else\r\n            return false;\r\n    }\r\n\r\n}",
  "sourcePath": "D:/Code/verified-accounts/contracts/Client.sol",
  "compiler": {
    "name": "solc",
    "version": "0.5.7+commit.6da8b019.Emscripten.clang"
  },
  "schemaVersion": "3.3.3",
  "updatedAt": "2021-01-28T05:13:46.602Z",
  "networkType": "ethereum",
  "devdoc": {
    "methods": {}
  },
  "userdoc": {
    "methods": {}
  }
}