{
  "contractName": "Holder",
  "abi": [
    {
      "constant": false,
      "inputs": [
        {
          "name": "_holderName",
          "type": "bytes32"
        },
        {
          "name": "_accountCreator",
          "type": "address"
        },
        {
          "name": "_accountHolder",
          "type": "address"
        },
        {
          "name": "_owner",
          "type": "address"
        }
      ],
      "name": "initialize",
      "outputs": [],
      "payable": false,
      "stateMutability": "nonpayable",
      "type": "function"
    },
    {
      "constant": false,
      "inputs": [],
      "name": "updateAccountStatement",
      "outputs": [],
      "payable": false,
      "stateMutability": "nonpayable",
      "type": "function"
    },
    {
      "constant": true,
      "inputs": [],
      "name": "getEntries",
      "outputs": [
        {
          "name": "",
          "type": "uint256"
        }
      ],
      "payable": false,
      "stateMutability": "view",
      "type": "function"
    },
    {
      "constant": true,
      "inputs": [
        {
          "name": "statementIndex",
          "type": "uint256"
        }
      ],
      "name": "getAccountStatement",
      "outputs": [
        {
          "name": "",
          "type": "bytes32"
        },
        {
          "name": "",
          "type": "bytes32"
        },
        {
          "name": "",
          "type": "bytes16"
        }
      ],
      "payable": false,
      "stateMutability": "view",
      "type": "function"
    },
    {
      "constant": false,
      "inputs": [
        {
          "name": "_ledgerName",
          "type": "bytes32"
        },
        {
          "name": "_ledgerGroup",
          "type": "bytes32"
        }
      ],
      "name": "createLedger",
      "outputs": [],
      "payable": false,
      "stateMutability": "nonpayable",
      "type": "function"
    }
  ],
  "bytecode": "0x608060405234801561001057600080fd5b50610629806100206000396000f3fe608060405234801561001057600080fd5b50600436106100575760003560e01c80631013c59a1461005c57806317be85c3146100815780637a1e3a511461009b57806381026309146100e0578063dd2c7cbc146100e8575b600080fd5b61007f6004803603604081101561007257600080fd5b5080359060200135610126565b005b6100896101c4565b60408051918252519081900360200190f35b6100b8600480360360208110156100b157600080fd5b50356101d7565b6040805193845260208401929092526001600160801b03191682820152519081900360600190f35b61007f61022b565b61007f600480360360808110156100fe57600080fd5b508035906001600160a01b0360208201358116916040810135821691606090910135166104de565b6035546001600160a01b0316331461013d57600080fd5b60335460355460365460408051600160e61b6284ff8f02815260048101879052602481018690526001600160a01b039384166044820152918316606483015251919092169163213fe3c091608480830192600092919082900301818387803b1580156101a857600080fd5b505af11580156101bc573d6000803e3d6000fd5b505050505050565b3360009081526037602052604090205490565b603554600090819081906001600160a01b031633146101f557600080fd5b50503360009081526038602090815260408083209483529390529190912080546001820154600290920154909391925060801b90565b6035546001600160a01b0316331461024257600080fd5b60335460408051600160e11b631b386f9d02815230600482015290516060926001600160a01b031691633670df3a916024808301926000929190829003018186803b15801561029057600080fd5b505afa1580156102a4573d6000803e3d6000fd5b505050506040513d6000823e601f3d908101601f1916820160405260208110156102cd57600080fd5b8101908080516401000000008111156102e557600080fd5b820160208101848111156102f857600080fd5b815185602082028301116401000000008211171561031557600080fd5b50909450600093505050505b81518110156104da57600080600084848151811061033b57fe5b60200260200101516001600160a01b03166312065fe06040518163ffffffff1660e01b8152600401606060405180830381600087803b15801561037d57600080fd5b505af1158015610391573d6000803e3d6000fd5b505050506040513d60608110156103a757600080fd5b508051602082015160409092015190945090925090506000805b811580156103e8575033600090815260386020908152604080832084845290915290205415155b156104755733600090815260386020908152604080832084845290915290205484148015610432575033600090815260386020908152604080832084845290915290206001015483145b1561046d57336000908152603860209081526040808320848452909152902060020180546001600160801b031916608087901c179055600191505b6001016103c1565b816104ba5733600090815260386020908152604080832084845290915290208481556001808201859055600290910180546001600160801b031916608088901c179055015b336000908152603760205260409020555050600190920191506103219050565b5050565b600054610100900460ff16806104f757506104f76105c9565b80610505575060005460ff16155b61054357604051600160e51b62461bcd02815260040180806020018281038252602e8152602001806105d0602e913960400191505060405180910390fd5b600054610100900460ff1615801561056e576000805460ff1961ff0019909116610100171660011790555b603380546001600160a01b038085166001600160a01b031992831617909255603487905560358054878416908316179055603680549286169290911691909117905580156105c2576000805461ff00191690555b5050505050565b303b159056fe436f6e747261637420696e7374616e63652068617320616c7265616479206265656e20696e697469616c697a6564a165627a7a7230582060a7a4e0cbab78d30cde212d58b9294074e157c09f488da1acbccdee6d5c60d40029",
  "source": "// (c) Kallol Borah, 2020\r\n// Implementation of a Verified account holder\r\n\r\npragma solidity 0.5.7;\r\n\r\nimport \"../interfaces/VerifiedSystem.sol\";\r\nimport \"../interfaces/VerifiedLedger.sol\";\r\nimport \"../interfaces/VerifiedHolder.sol\";\r\nimport \"abdk-libraries-solidity/ABDKMathQuad.sol\";\r\nimport \"@openzeppelin/upgrades/contracts/Initializable.sol\";\r\n\r\n\r\ncontract Holder is Initializable, VerifiedHolder{\r\n\r\n    using ABDKMathQuad for uint256;\r\n    using ABDKMathQuad for int256;\r\n    using ABDKMathQuad for bytes16;\r\n\r\n    VerifiedSystem private factory;\r\n\r\n    bytes32 holderName; \r\n\r\n    address accountCreator;\r\n\r\n    address accountHolder;\r\n\r\n    mapping(address => uint256) entries;   \r\n\r\n    struct entry{\r\n        bytes32 ledgerName;\r\n        bytes32 ledgerGroup;\r\n        bytes16 ledgerBalance;\r\n    }\r\n\r\n    mapping(address => mapping (uint256 => entry)) statement;\r\n\r\n    //initiliaze proxies\r\n    function initialize(bytes32 _holderName, address _accountCreator, address _accountHolder, address _owner) public initializer{\r\n        // this account holder can be referred from this account\r\n        factory = VerifiedSystem(_owner);\r\n        holderName = _holderName;\r\n        accountCreator = _accountCreator;\r\n        accountHolder = _accountHolder;\r\n    }\r\n\r\n    function updateAccountStatement() external{\r\n        require(accountCreator==msg.sender);\r\n        // get ledgers for this account holder\r\n        address[] memory ledgers = factory.getAccountLedgers(address(this));\r\n        for(uint256 i=0; i<ledgers.length; i++){\r\n            bytes16 balance;\r\n            bytes32 name;\r\n            bytes32 group;\r\n            (balance, name, group) = VerifiedLedger(ledgers[i]).getBalance(); \r\n            bool found = false;\r\n            uint256 p = 0;   \r\n            while(!found && statement[msg.sender][p].ledgerName!=\"\"){\r\n                if(statement[msg.sender][p].ledgerName==name && statement[msg.sender][p].ledgerGroup==group){\r\n                    found = true;\r\n                    statement[msg.sender][p].ledgerBalance = balance;\r\n                }\r\n                p=p+1;\r\n            }        \r\n            if(!found){\r\n                statement[msg.sender][p].ledgerName = name;\r\n                statement[msg.sender][p].ledgerGroup = group;\r\n                statement[msg.sender][p].ledgerBalance = balance;\r\n                p=p+1;\r\n            }\r\n            entries[msg.sender] = p;\r\n        }\r\n    }\r\n\r\n    // returns number of trial balance statement entries updated for account holder\r\n    function getEntries() external view returns(uint256){\r\n        return entries[msg.sender];\r\n    }\r\n\r\n    function getAccountStatement(uint256 statementIndex) external view returns(bytes32, bytes32, bytes16){\r\n        require(accountCreator==msg.sender);\r\n        return(statement[msg.sender][statementIndex].ledgerName, statement[msg.sender][statementIndex].ledgerGroup, statement[msg.sender][statementIndex].ledgerBalance);\r\n    }\r\n\r\n    function createLedger(bytes32 _ledgerName, bytes32 _ledgerGroup) external {\r\n        require(accountCreator==msg.sender);\r\n        factory.createLedger(_ledgerName, _ledgerGroup, accountCreator, accountHolder);\r\n    }\r\n\r\n}",
  "sourcePath": "D:/Code/verified-accounts/contracts/accounting/Holder.sol",
  "compiler": {
    "name": "solc",
    "version": "0.5.7+commit.6da8b019.Emscripten.clang"
  },
  "schemaVersion": "3.3.3",
  "updatedAt": "2021-03-12T06:09:54.278Z",
  "networkType": "ethereum",
  "devdoc": {
    "methods": {}
  },
  "userdoc": {
    "methods": {}
  }
}