{
  "contractName": "Ledger",
  "abi": [
    {
      "constant": true,
      "inputs": [],
      "name": "ledgerName",
      "outputs": [
        {
          "name": "",
          "type": "bytes32"
        }
      ],
      "payable": false,
      "stateMutability": "view",
      "type": "function"
    },
    {
      "constant": false,
      "inputs": [
        {
          "name": "_ledgerName",
          "type": "bytes32"
        },
        {
          "name": "_ledgerGroup",
          "type": "bytes32"
        },
        {
          "name": "_accountCreator",
          "type": "address"
        },
        {
          "name": "_owner",
          "type": "address"
        },
        {
          "name": "_accountHolder",
          "type": "address"
        }
      ],
      "name": "initialize",
      "outputs": [],
      "payable": false,
      "stateMutability": "nonpayable",
      "type": "function"
    },
    {
      "constant": false,
      "inputs": [],
      "name": "getBalance",
      "outputs": [
        {
          "name": "",
          "type": "bytes16"
        },
        {
          "name": "",
          "type": "bytes32"
        },
        {
          "name": "",
          "type": "bytes32"
        }
      ],
      "payable": false,
      "stateMutability": "nonpayable",
      "type": "function"
    },
    {
      "constant": false,
      "inputs": [
        {
          "name": "_accountName",
          "type": "bytes32"
        },
        {
          "name": "_currency",
          "type": "bytes32"
        }
      ],
      "name": "createAccount",
      "outputs": [],
      "payable": false,
      "stateMutability": "nonpayable",
      "type": "function"
    }
  ],
  "bytecode": "0x608060405234801561001057600080fd5b50610a56806100206000396000f3fe608060405234801561001057600080fd5b506004361061004c5760003560e01c806312065fe014610051578063183815c81461008257806346499770146100a7578063cf1f3dd7146100eb575b600080fd5b610059610105565b604080516001600160801b03199094168452602084019290925282820152519081900360600190f35b6100a56004803603604081101561009857600080fd5b50803590602001356103a8565b005b6100a5600480360360a08110156100bd57600080fd5b508035906020810135906001600160a01b036040820135811691606081013582169160809091013516610447565b6100f3610547565b60408051918252519081900360200190f35b603854600090819081906001600160a01b0316331461012357600080fd5b60005b60335460408051600160e21b630bb2c359028152600160c01b676163636f756e747302600482015290516001600160a01b0390921691632ecb0d6491602480820192602092909190829003018186803b15801561018257600080fd5b505afa158015610196573d6000803e3d6000fd5b505050506040513d60208110156101ac57600080fd5b50518110156102ba5760335460385460408051600160e01b63670079eb0281526001600160a01b039283166004820152602481018590529051919092169163670079eb916044808301926020929190829003018186803b15801561020f57600080fd5b505afa158015610223573d6000803e3d6000fd5b505050506040513d602081101561023957600080fd5b5051603a80546001600160a01b0319166001600160a01b03928316179081905516156102b257603a54603980546001810182556000919091527fdc16fef70f8d5ddbc01ee3d903d1e69c18a3c7be080eb86a81e0578814ee58d30180546001600160a01b0319166001600160a01b039092169190911790555b600101610126565b5060005b60395481101561038e576036546039805461036c9260801b9190849081106102e257fe5b6000918252602091829020015460385460408051600160e01b63f8b2cb4f0281526001600160a01b0392831660048201529051919092169263f8b2cb4f9260248082019391829003018186803b15801561033b57600080fd5b505afa15801561034f573d6000803e3d6000fd5b505050506040513d602081101561036557600080fd5b505161054d565b603680546001600160801b03191660809290921c9190911790556001016102be565b505060365460345460355460809290921b93509150909192565b6037546001600160a01b031633146103bf57600080fd5b60335460375460385460408051600160e01b636a8f91ff02815260048101879052602481018690526001600160a01b0393841660448201529183166064830152519190921691636a8f91ff91608480830192600092919082900301818387803b15801561042b57600080fd5b505af115801561043f573d6000803e3d6000fd5b505050505050565b600054610100900460ff16806104605750610460610953565b8061046e575060005460ff16155b6104ac57604051600160e51b62461bcd02815260040180806020018281038252602e8152602001806109fd602e913960400191505060405180910390fd5b600054610100900460ff161580156104d7576000805460ff1961ff0019909116610100171660011790555b603380546001600160a01b038086166001600160a01b03199283161790925560348890556035879055603680546001600160801b0319169055603780548784169083161790556038805492851692909116919091179055801561043f576000805461ff0019169055505050505050565b60345481565b6000617fff6001600160801b03608085811c8216607090811c8416939186901c90921690911c8116908214156105c35780617fff14156105b9576001600160801b031985811690851614156105a657849250505061094d565b50600160ef1b61ffff02915061094d9050565b849250505061094d565b80617fff14156105d757839250505061094d565b6001607f1b608086901c6001600160801b0381169190911015906001600160701b031683610608576001935061060f565b600160701b175b6001607f1b608087901c6001600160801b0381169190911015906001600160701b0316846106405760019450610647565b600160701b175b82610677576001600160801b03198816600160ff1b14610667578761066a565b60005b965050505050505061094d565b80610697576001600160801b03198916600160ff1b14610667578861066a565b84860384151583151514156107a55760708113156106be578997505050505050505061094d565b60008113156106d05790811c906106ff565b606f198112156106e9578897505050505050505061094d565b60008112156106ff578060000384901c93508596505b92810192600160711b841061071a576001968701969390931c925b86617fff141561074f578461073757600160f01b617fff02610741565b6001600160f01b03195b97505050505050505061094d565b600160701b8410156107645760009650610771565b6001600160701b03841693505b83607088901b86610783576000610789565b6001607f1b5b6001600160801b0316171760801b97505050505050505061094d565b60008113156107c057600184901b93506001870396506107d7565b60008112156107d757600182901b91506001860396505b60708113156107e95760019150610836565b6001811315610806576001810360018303901c6001019150610836565b606f198112156108195760019350610836565b600019811215610836576001816000030360018503901c60010193505b818410610847578184039350610850565b83820393508294505b8361086657506000965061094d95505050505050565b600061087185610959565b9050806071141561089757600185901c6001600160701b031694506001880197506108e6565b60708110156108d9576070819003808911156108c6578086901b6001600160701b0316955080890398506108d3565b600098600019019590951b945b506108e6565b6001600160701b03851694505b87617fff141561091c578561090357600160f01b617fff0261090d565b6001600160f01b03195b9850505050505050505061094d565b84607089901b8761092e576000610934565b6001607f1b5b6001600160801b0316171760801b985050505050505050505b92915050565b303b1590565b600080821161096757600080fd5b6000600160801b831061097c57608092831c92015b68010000000000000000831061099457604092831c92015b64010000000083106109a857602092831c92015b6201000083106109ba57601092831c92015b61010083106109cb57600892831c92015b601083106109db57600492831c92015b600483106109eb57600292831c92015b6002831061094d576001019291505056fe436f6e747261637420696e7374616e63652068617320616c7265616479206265656e20696e697469616c697a6564a165627a7a72305820aa1ff30db2896ff663d89f3423650642b955d2b8266887f86184662349dbf60b0029",
  "source": "// (c) Kallol Borah, 2020\r\n// Implementation of a general ledger account\r\n\r\npragma solidity 0.5.7;\r\n\r\nimport \"../interfaces/VerifiedSystem.sol\";\r\nimport \"../interfaces/VerifiedAccount.sol\";\r\nimport \"../interfaces/VerifiedLedger.sol\";\r\nimport \"abdk-libraries-solidity/ABDKMathQuad.sol\";\r\nimport \"@openzeppelin/upgrades/contracts/Initializable.sol\";\r\n\r\n\r\ncontract Ledger is VerifiedLedger, Initializable{\r\n\r\n    using ABDKMathQuad for uint256;\r\n    using ABDKMathQuad for int256;\r\n    using ABDKMathQuad for bytes16;\r\n\r\n    VerifiedSystem private factory;\r\n\r\n    bytes32 public ledgerName;\r\n\r\n    bytes32 ledgerGroup;\r\n\r\n    bytes16 ledgerBalance;\r\n\r\n    address accountCreator;\r\n\r\n    address accountHolder;\r\n\r\n    //references to accounts in this ledger\r\n    address[] accounts;\r\n    address account;\r\n\r\n    //initiliaze proxies\r\n    function initialize(bytes32 _ledgerName, bytes32 _ledgerGroup, address _accountCreator, address _owner, address _accountHolder) public initializer{\r\n        // this ledger can be owned by only one account holder (client)\r\n        factory = VerifiedSystem(_owner);\r\n        ledgerName = _ledgerName;\r\n        ledgerGroup = _ledgerGroup;\r\n        ledgerBalance = 0;\r\n        accountCreator = _accountCreator;\r\n        accountHolder = _accountHolder;\r\n    }\r\n\r\n    // sum up balances of all accounts in this ledger account\r\n    function getBalance() external returns (bytes16, bytes32, bytes32){\r\n        // ensure the msg sender owns this ledger\r\n        require(msg.sender==accountHolder);        \r\n        for(uint256 i=0; i<factory.getNumber(\"accounts\"); i++){\r\n            account = factory.getAccount(accountHolder,i);\r\n            if(account!=address(0x0))\r\n                accounts.push(account);\r\n        }\r\n        for(uint256 i=0; i<accounts.length; i++){\r\n            ledgerBalance = ABDKMathQuad.add(ledgerBalance, VerifiedAccount(accounts[i]).getBalance(accountHolder));\r\n        }\r\n        return(ledgerBalance, ledgerName, ledgerGroup);\r\n    }\r\n\r\n    //needs to be called by the owner of this ledger to create an account\r\n    //_accountName is the name of the account proxy to create\r\n    function createAccount(bytes32 _accountName, bytes32 _currency) external{\r\n        require(accountCreator==msg.sender);\r\n        factory.createAccount(_accountName, _currency, accountCreator, accountHolder);\r\n    }\r\n\r\n}",
  "sourcePath": "D:/Code/verified-accounts/contracts/accounting/Ledger.sol",
  "compiler": {
    "name": "solc",
    "version": "0.5.7+commit.6da8b019.Emscripten.clang"
  },
  "schemaVersion": "3.3.3",
  "updatedAt": "2021-01-28T05:13:46.626Z",
  "networkType": "ethereum",
  "devdoc": {
    "methods": {}
  },
  "userdoc": {
    "methods": {}
  }
}