{
  "contractName": "Liquidity",
  "abi": [
    {
      "inputs": [
        {
          "internalType": "uint256",
          "name": "_supply",
          "type": "uint256"
        },
        {
          "internalType": "uint256",
          "name": "_cap",
          "type": "uint256"
        },
        {
          "internalType": "uint256",
          "name": "_limit",
          "type": "uint256"
        }
      ],
      "stateMutability": "nonpayable",
      "type": "constructor"
    },
    {
      "anonymous": false,
      "inputs": [
        {
          "indexed": true,
          "internalType": "address",
          "name": "owner",
          "type": "address"
        },
        {
          "indexed": true,
          "internalType": "address",
          "name": "spender",
          "type": "address"
        },
        {
          "indexed": false,
          "internalType": "uint256",
          "name": "value",
          "type": "uint256"
        }
      ],
      "name": "Approval",
      "type": "event"
    },
    {
      "anonymous": false,
      "inputs": [
        {
          "indexed": true,
          "internalType": "address",
          "name": "previousOwner",
          "type": "address"
        },
        {
          "indexed": true,
          "internalType": "address",
          "name": "newOwner",
          "type": "address"
        }
      ],
      "name": "OwnershipTransferred",
      "type": "event"
    },
    {
      "anonymous": false,
      "inputs": [
        {
          "indexed": false,
          "internalType": "address",
          "name": "account",
          "type": "address"
        }
      ],
      "name": "Paused",
      "type": "event"
    },
    {
      "anonymous": false,
      "inputs": [
        {
          "indexed": false,
          "internalType": "address",
          "name": "investor",
          "type": "address"
        },
        {
          "indexed": false,
          "internalType": "string",
          "name": "tokenName",
          "type": "string"
        },
        {
          "indexed": false,
          "internalType": "uint256",
          "name": "tokenAmount",
          "type": "uint256"
        }
      ],
      "name": "RequestIssue",
      "type": "event"
    },
    {
      "anonymous": false,
      "inputs": [
        {
          "indexed": true,
          "internalType": "address",
          "name": "from",
          "type": "address"
        },
        {
          "indexed": true,
          "internalType": "address",
          "name": "to",
          "type": "address"
        },
        {
          "indexed": false,
          "internalType": "uint256",
          "name": "value",
          "type": "uint256"
        }
      ],
      "name": "Transfer",
      "type": "event"
    },
    {
      "anonymous": false,
      "inputs": [
        {
          "indexed": false,
          "internalType": "address",
          "name": "account",
          "type": "address"
        }
      ],
      "name": "Unpaused",
      "type": "event"
    },
    {
      "inputs": [
        {
          "internalType": "address",
          "name": "owner",
          "type": "address"
        },
        {
          "internalType": "address",
          "name": "spender",
          "type": "address"
        }
      ],
      "name": "allowance",
      "outputs": [
        {
          "internalType": "uint256",
          "name": "",
          "type": "uint256"
        }
      ],
      "stateMutability": "view",
      "type": "function",
      "constant": true
    },
    {
      "inputs": [
        {
          "internalType": "address",
          "name": "spender",
          "type": "address"
        },
        {
          "internalType": "uint256",
          "name": "amount",
          "type": "uint256"
        }
      ],
      "name": "approve",
      "outputs": [
        {
          "internalType": "bool",
          "name": "",
          "type": "bool"
        }
      ],
      "stateMutability": "nonpayable",
      "type": "function"
    },
    {
      "inputs": [
        {
          "internalType": "address",
          "name": "account",
          "type": "address"
        }
      ],
      "name": "balanceOf",
      "outputs": [
        {
          "internalType": "uint256",
          "name": "",
          "type": "uint256"
        }
      ],
      "stateMutability": "view",
      "type": "function",
      "constant": true
    },
    {
      "inputs": [],
      "name": "decimals",
      "outputs": [
        {
          "internalType": "uint8",
          "name": "",
          "type": "uint8"
        }
      ],
      "stateMutability": "view",
      "type": "function",
      "constant": true
    },
    {
      "inputs": [
        {
          "internalType": "address",
          "name": "spender",
          "type": "address"
        },
        {
          "internalType": "uint256",
          "name": "subtractedValue",
          "type": "uint256"
        }
      ],
      "name": "decreaseAllowance",
      "outputs": [
        {
          "internalType": "bool",
          "name": "",
          "type": "bool"
        }
      ],
      "stateMutability": "nonpayable",
      "type": "function"
    },
    {
      "inputs": [
        {
          "internalType": "address",
          "name": "spender",
          "type": "address"
        },
        {
          "internalType": "uint256",
          "name": "addedValue",
          "type": "uint256"
        }
      ],
      "name": "increaseAllowance",
      "outputs": [
        {
          "internalType": "bool",
          "name": "",
          "type": "bool"
        }
      ],
      "stateMutability": "nonpayable",
      "type": "function"
    },
    {
      "inputs": [],
      "name": "name",
      "outputs": [
        {
          "internalType": "string",
          "name": "",
          "type": "string"
        }
      ],
      "stateMutability": "view",
      "type": "function",
      "constant": true
    },
    {
      "inputs": [],
      "name": "owner",
      "outputs": [
        {
          "internalType": "address",
          "name": "",
          "type": "address"
        }
      ],
      "stateMutability": "view",
      "type": "function",
      "constant": true
    },
    {
      "inputs": [],
      "name": "paused",
      "outputs": [
        {
          "internalType": "bool",
          "name": "",
          "type": "bool"
        }
      ],
      "stateMutability": "view",
      "type": "function",
      "constant": true
    },
    {
      "inputs": [],
      "name": "renounceOwnership",
      "outputs": [],
      "stateMutability": "nonpayable",
      "type": "function"
    },
    {
      "inputs": [],
      "name": "symbol",
      "outputs": [
        {
          "internalType": "string",
          "name": "",
          "type": "string"
        }
      ],
      "stateMutability": "view",
      "type": "function",
      "constant": true
    },
    {
      "inputs": [],
      "name": "totalSupply",
      "outputs": [
        {
          "internalType": "uint256",
          "name": "",
          "type": "uint256"
        }
      ],
      "stateMutability": "view",
      "type": "function",
      "constant": true
    },
    {
      "inputs": [
        {
          "internalType": "address",
          "name": "recipient",
          "type": "address"
        },
        {
          "internalType": "uint256",
          "name": "amount",
          "type": "uint256"
        }
      ],
      "name": "transfer",
      "outputs": [
        {
          "internalType": "bool",
          "name": "",
          "type": "bool"
        }
      ],
      "stateMutability": "nonpayable",
      "type": "function"
    },
    {
      "inputs": [
        {
          "internalType": "address",
          "name": "sender",
          "type": "address"
        },
        {
          "internalType": "address",
          "name": "recipient",
          "type": "address"
        },
        {
          "internalType": "uint256",
          "name": "amount",
          "type": "uint256"
        }
      ],
      "name": "transferFrom",
      "outputs": [
        {
          "internalType": "bool",
          "name": "",
          "type": "bool"
        }
      ],
      "stateMutability": "nonpayable",
      "type": "function"
    },
    {
      "inputs": [
        {
          "internalType": "address",
          "name": "newOwner",
          "type": "address"
        }
      ],
      "name": "transferOwnership",
      "outputs": [],
      "stateMutability": "nonpayable",
      "type": "function"
    },
    {
      "stateMutability": "payable",
      "type": "receive",
      "payable": true
    },
    {
      "inputs": [
        {
          "internalType": "uint256",
          "name": "_supply",
          "type": "uint256"
        },
        {
          "internalType": "uint256",
          "name": "_cap",
          "type": "uint256"
        },
        {
          "internalType": "uint256",
          "name": "_limit",
          "type": "uint256"
        }
      ],
      "name": "createSupply",
      "outputs": [],
      "stateMutability": "nonpayable",
      "type": "function"
    },
    {
      "inputs": [
        {
          "internalType": "address",
          "name": "_token",
          "type": "address"
        },
        {
          "internalType": "bytes32",
          "name": "_name",
          "type": "bytes32"
        }
      ],
      "name": "supportTokens",
      "outputs": [],
      "stateMutability": "nonpayable",
      "type": "function"
    },
    {
      "inputs": [
        {
          "internalType": "address",
          "name": "_token",
          "type": "address"
        }
      ],
      "name": "checkSupportForToken",
      "outputs": [
        {
          "internalType": "bool",
          "name": "",
          "type": "bool"
        }
      ],
      "stateMutability": "view",
      "type": "function",
      "constant": true
    },
    {
      "inputs": [],
      "name": "getSupportedTokens",
      "outputs": [
        {
          "components": [
            {
              "internalType": "bytes32",
              "name": "tokenName",
              "type": "bytes32"
            },
            {
              "internalType": "address",
              "name": "tokenAddress",
              "type": "address"
            }
          ],
          "internalType": "struct ILiquidity.token[]",
          "name": "",
          "type": "tuple[]"
        }
      ],
      "stateMutability": "view",
      "type": "function",
      "constant": true
    },
    {
      "inputs": [
        {
          "internalType": "address",
          "name": "_liquidityPlatform",
          "type": "address"
        },
        {
          "internalType": "bytes32",
          "name": "_platformName",
          "type": "bytes32"
        }
      ],
      "name": "registerPlatform",
      "outputs": [],
      "stateMutability": "nonpayable",
      "type": "function"
    },
    {
      "inputs": [],
      "name": "getPlatforms",
      "outputs": [
        {
          "components": [
            {
              "internalType": "bytes32",
              "name": "platformName",
              "type": "bytes32"
            },
            {
              "internalType": "address",
              "name": "platformAddress",
              "type": "address"
            }
          ],
          "internalType": "struct ILiquidity.platform[]",
          "name": "",
          "type": "tuple[]"
        }
      ],
      "stateMutability": "view",
      "type": "function",
      "constant": true
    },
    {
      "inputs": [
        {
          "internalType": "address",
          "name": "_platform",
          "type": "address"
        },
        {
          "internalType": "address",
          "name": "_manager",
          "type": "address"
        }
      ],
      "name": "addManager",
      "outputs": [],
      "stateMutability": "nonpayable",
      "type": "function"
    },
    {
      "inputs": [
        {
          "internalType": "address",
          "name": "_platform",
          "type": "address"
        },
        {
          "internalType": "address",
          "name": "_manager",
          "type": "address"
        }
      ],
      "name": "removeManager",
      "outputs": [],
      "stateMutability": "nonpayable",
      "type": "function"
    },
    {
      "inputs": [
        {
          "internalType": "address",
          "name": "_platform",
          "type": "address"
        }
      ],
      "name": "getManagers",
      "outputs": [
        {
          "internalType": "address[]",
          "name": "",
          "type": "address[]"
        }
      ],
      "stateMutability": "view",
      "type": "function",
      "constant": true
    },
    {
      "inputs": [
        {
          "internalType": "address",
          "name": "_token",
          "type": "address"
        },
        {
          "internalType": "uint256",
          "name": "_amount",
          "type": "uint256"
        }
      ],
      "name": "buy",
      "outputs": [],
      "stateMutability": "nonpayable",
      "type": "function"
    },
    {
      "inputs": [],
      "name": "getInvestors",
      "outputs": [
        {
          "components": [
            {
              "internalType": "string",
              "name": "assetInvested",
              "type": "string"
            },
            {
              "internalType": "address",
              "name": "investorAddress",
              "type": "address"
            }
          ],
          "internalType": "struct ILiquidity.provider[]",
          "name": "",
          "type": "tuple[]"
        }
      ],
      "stateMutability": "view",
      "type": "function",
      "constant": true
    },
    {
      "inputs": [
        {
          "internalType": "address",
          "name": "_investor",
          "type": "address"
        },
        {
          "internalType": "string",
          "name": "_tokenName",
          "type": "string"
        }
      ],
      "name": "getInvestment",
      "outputs": [
        {
          "internalType": "uint256",
          "name": "",
          "type": "uint256"
        }
      ],
      "stateMutability": "view",
      "type": "function",
      "constant": true
    },
    {
      "inputs": [
        {
          "internalType": "address",
          "name": "_investor",
          "type": "address"
        },
        {
          "internalType": "string",
          "name": "_tokenName",
          "type": "string"
        },
        {
          "internalType": "uint256",
          "name": "_tokenAmount",
          "type": "uint256"
        },
        {
          "internalType": "uint256",
          "name": "_LPToIssue",
          "type": "uint256"
        }
      ],
      "name": "issue",
      "outputs": [],
      "stateMutability": "nonpayable",
      "type": "function"
    },
    {
      "inputs": [
        {
          "internalType": "address",
          "name": "_platform",
          "type": "address"
        },
        {
          "internalType": "address",
          "name": "_manager",
          "type": "address"
        },
        {
          "internalType": "uint256",
          "name": "_liquidity",
          "type": "uint256"
        }
      ],
      "name": "provideLiquidity",
      "outputs": [],
      "stateMutability": "nonpayable",
      "type": "function"
    },
    {
      "inputs": [
        {
          "internalType": "uint256",
          "name": "_distribution",
          "type": "uint256"
        },
        {
          "internalType": "address",
          "name": "_token",
          "type": "address"
        },
        {
          "internalType": "address",
          "name": "_manager",
          "type": "address"
        }
      ],
      "name": "distribute",
      "outputs": [],
      "stateMutability": "nonpayable",
      "type": "function"
    },
    {
      "inputs": [
        {
          "internalType": "address",
          "name": "_platform",
          "type": "address"
        }
      ],
      "name": "getPlatformPerformance",
      "outputs": [
        {
          "internalType": "uint256",
          "name": "unstakedLiquidity",
          "type": "uint256"
        },
        {
          "internalType": "uint256",
          "name": "balancePlatformLiquidity",
          "type": "uint256"
        },
        {
          "internalType": "uint256",
          "name": "platformLiquidityProvided",
          "type": "uint256"
        },
        {
          "internalType": "uint256",
          "name": "platformCommissionsEarned",
          "type": "uint256"
        }
      ],
      "stateMutability": "view",
      "type": "function",
      "constant": true
    },
    {
      "inputs": [
        {
          "internalType": "address",
          "name": "_platform",
          "type": "address"
        },
        {
          "internalType": "address",
          "name": "_token",
          "type": "address"
        },
        {
          "internalType": "address",
          "name": "_manager",
          "type": "address"
        }
      ],
      "name": "getManagerPerformance",
      "outputs": [
        {
          "internalType": "uint256",
          "name": "managerLiquidityProvided",
          "type": "uint256"
        },
        {
          "internalType": "uint256",
          "name": "managerCommissionsEarned",
          "type": "uint256"
        }
      ],
      "stateMutability": "view",
      "type": "function",
      "constant": true
    },
    {
      "inputs": [
        {
          "internalType": "uint256",
          "name": "_distribution",
          "type": "uint256"
        },
        {
          "internalType": "address",
          "name": "_platform",
          "type": "address"
        }
      ],
      "name": "payOut",
      "outputs": [],
      "stateMutability": "nonpayable",
      "type": "function"
    },
    {
      "inputs": [
        {
          "internalType": "address",
          "name": "investor",
          "type": "address"
        }
      ],
      "name": "balance",
      "outputs": [
        {
          "internalType": "uint256",
          "name": "investorBalance",
          "type": "uint256"
        }
      ],
      "stateMutability": "view",
      "type": "function",
      "constant": true
    },
    {
      "inputs": [],
      "name": "pause",
      "outputs": [],
      "stateMutability": "nonpayable",
      "type": "function"
    },
    {
      "inputs": [],
      "name": "unpause",
      "outputs": [],
      "stateMutability": "nonpayable",
      "type": "function"
    }
  ],
  "bytecode": "0x60806040526000600b556000600c556000600d556000600e556000600f553480156200002a57600080fd5b5060405162004011380380620040118339810160408190526200004d91620002f0565b604080518082018252600881526715995c9a599a595960c21b602080830191825283518085019094526005845264564954544160d81b9084015281519192916200009a916003916200024a565b508051620000b09060049060208401906200024a565b505050620000cd620000c76200010d60201b60201c565b62000111565b6005805460ff60a01b19169055620000e6338462000163565b601080546001600160a01b03191633179055600b91909155600c55506000600f55620003c0565b3390565b600580546001600160a01b038381166001600160a01b0319831681179093556040519116919082907f8be0079c531659141344cd1fd0a4f28419497f9722a3daafe3b4186f6b6457e090600090a35050565b6001600160a01b038216620001955760405162461bcd60e51b81526004016200018c906200031e565b60405180910390fd5b620001a36000838362000245565b8060026000828254620001b791906200035e565b90915550506001600160a01b03821660009081526020819052604081208054839290620001e69084906200035e565b90915550506040516001600160a01b038316906000907fddf252ad1be2c89b69c2b068fc378daa952ba7f163c4a11628f55a4df523b3ef906200022b90859062000355565b60405180910390a3620002416000838362000245565b5050565b505050565b828054620002589062000383565b90600052602060002090601f0160209004810192826200027c5760008555620002c7565b82601f106200029757805160ff1916838001178555620002c7565b82800160010185558215620002c7579182015b82811115620002c7578251825591602001919060010190620002aa565b50620002d5929150620002d9565b5090565b5b80821115620002d55760008155600101620002da565b60008060006060848603121562000305578283fd5b8351925060208401519150604084015190509250925092565b6020808252601f908201527f45524332303a206d696e7420746f20746865207a65726f206164647265737300604082015260600190565b90815260200190565b600082198211156200037e57634e487b7160e01b81526011600452602481fd5b500190565b6002810460018216806200039857607f821691505b60208210811415620003ba57634e487b7160e01b600052602260045260246000fd5b50919050565b613c4180620003d06000396000f3fe6080604052600436106102135760003560e01c8063715018a611610118578063b2f5a54c116100a0578063e3d670d71161006f578063e3d670d7146108ce578063e5cc7440146108ee578063f2fde38b1461090e578063f81f3ee71461092e578063f85771b21461094e576104cf565b8063b2f5a54c1461084a578063cce7ec131461086c578063d3c7c2c71461088c578063dd62ed3e146108ae576104cf565b806395ce0af8116100e757806395ce0af8146107b557806395d89b41146107d55780639e8b6b7f146107ea578063a457c2d71461080a578063a9059cbb1461082a576104cf565b8063715018a6146107495780638456cb591461075e5780638513c619146107735780638da5cb5b14610793576104cf565b8063330602261161019b57806356abb19b1161016a57806356abb19b146106a65780635c975abb146106d45780635d4f5b1c146106e95780636ceb48b71461070957806370a0823114610729576104cf565b8063330602261461062457806339509351146106515780633f4ba83a14610671578063451353f114610686576104cf565b80631fbe552e116101e25780631fbe552e1461057057806323b872dd1461059257806324ef84ec146105b25780632ceafc27146105e2578063313ce56714610602576104cf565b806305061616146104d457806306fdde03146104f6578063095ea7b31461052157806318160ddd1461054e576104cf565b366104cf57600c541561024a5742600c541161024a5760405162461bcd60e51b8152600401610241906138da565b60405180910390fd5b346102675760405162461bcd60e51b8152600401610241906138b3565b61026f61096e565b1561028c5760405162461bcd60e51b8152600401610241906137d5565b6b195d1a195c9c9958d95a5c1d60a21b60005260176020527fc1856d2f94b0eb79e760b7ba0b616562329c476e5d18de7d64ea1e3b16f1e46b5460ff16156102d357600080fd5b6b195d1a195c9c9958d95a5c1d60a21b60005260176020527fc1856d2f94b0eb79e760b7ba0b616562329c476e5d18de7d64ea1e3b16f1e46b805460ff191660011790556040517f5a903c0a34c24eaba92e7ae11cc1c39d622c4d146d5dcb777537881f0dac35999061034990339034906134d3565b60405180910390a13360009081526011602052604090819020905161036d90613456565b90815260405190819003602001902054610426576040805160808101825260059181019182526432ba3432b960d91b606082015290815233602080830191909152600a805460018101825560009190915282518051849360029093027fc65a7bb8d6351c1cf70c95a316cc6a92839c986682d98bc35f958f4883f9d2a801926103fa928492910190613057565b5060209190910151600190910180546001600160a01b0319166001600160a01b03909216919091179055505b3360009081526011602052604090819020905161045d919061044790613456565b908152604051908190036020019020543461097e565b3360009081526011602052604090819020905161047990613456565b90815260405160209181900382019020919091556b195d1a195c9c9958d95a5c1d60a21b600052601790527fc1856d2f94b0eb79e760b7ba0b616562329c476e5d18de7d64ea1e3b16f1e46b805460ff19169055005b600080fd5b3480156104e057600080fd5b506104f46104ef366004613385565b610991565b005b34801561050257600080fd5b5061050b610bac565b6040516105189190613683565b60405180910390f35b34801561052d57600080fd5b5061054161053c366004613221565b610c3e565b6040516105189190613678565b34801561055a57600080fd5b50610563610c5b565b6040516105189190613a46565b34801561057c57600080fd5b50610585610c61565b604051610518919061356f565b34801561059e57600080fd5b506105416105ad3660046131e6565b610d15565b3480156105be57600080fd5b506105d26105cd366004613158565b610da5565b6040516105189493929190613a74565b3480156105ee57600080fd5b506104f46105fd366004613221565b610e5a565b34801561060e57600080fd5b50610617610f60565b6040516105189190613a8f565b34801561063057600080fd5b5061064461063f366004613158565b610f65565b6040516105189190613522565b34801561065d57600080fd5b5061054161066c366004613221565b61101b565b34801561067d57600080fd5b506104f461106f565b34801561069257600080fd5b506104f46106a13660046133a7565b6110b8565b3480156106b257600080fd5b506106c66106c13660046131a4565b611270565b604051610518929190613a66565b3480156106e057600080fd5b5061054161096e565b3480156106f557600080fd5b50610541610704366004613158565b611305565b34801561071557600080fd5b5061056361072436600461324a565b611333565b34801561073557600080fd5b50610563610744366004613158565b6113b3565b34801561075557600080fd5b506104f46113ce565b34801561076a57600080fd5b506104f4611417565b34801561077f57600080fd5b506104f461078e366004613172565b61145e565b34801561079f57600080fd5b506107a861151f565b6040516105189190613467565b3480156107c157600080fd5b506104f46107d03660046133cb565b61152e565b3480156107e157600080fd5b5061050b611583565b3480156107f657600080fd5b506104f46108053660046131e6565b611592565b34801561081657600080fd5b50610541610825366004613221565b61182f565b34801561083657600080fd5b50610541610845366004613221565b6118a8565b34801561085657600080fd5b5061085f6118bc565b60405161051891906135bc565b34801561087857600080fd5b506104f4610887366004613221565b6119f6565b34801561089857600080fd5b506108a1612032565b6040516105189190613638565b3480156108ba57600080fd5b506105636108c9366004613172565b61209d565b3480156108da57600080fd5b506105636108e9366004613158565b6120c8565b3480156108fa57600080fd5b506104f4610909366004613296565b6120d9565b34801561091a57600080fd5b506104f4610929366004613158565b612590565b34801561093a57600080fd5b506104f4610949366004613221565b612601565b34801561095a57600080fd5b506104f4610969366004613172565b612703565b600554600160a01b900460ff1690565b600061098a8284613aef565b9392505050565b610999612c6b565b6001600160a01b03166109aa61151f565b6001600160a01b0316146109d05760405162461bcd60e51b81526004016102419061387e565b651c185e5bdd5d60d21b60005260176020527f37fefa2b71fb92f906c886f73d7e5e5874a4df6b190c3ae21abfffde63e9544e5460ff1615610a1157600080fd5b651c185e5bdd5d60d21b60005260176020527f37fefa2b71fb92f906c886f73d7e5e5874a4df6b190c3ae21abfffde63e9544e805460ff19166001179055610a593083612c6f565b6001600160a01b038116600090815260166020526040902060010154610a7f908361097e565b6001600160a01b0382166000908152601660205260408120600101919091555b600a54811015610b6c576000610b0a60126000600a8581548110610ad357634e487b7160e01b600052603260045260246000fd5b6000918252602080832060016002909302018201546001600160a01b03168452830193909352604090910190200154600d54612d37565b9050610b57600a8381548110610b3057634e487b7160e01b600052603260045260246000fd5b60009182526020909120600160029092020101546001600160a01b03166108458387612d43565b50508080610b6490613bc4565b915050610a9f565b5050651c185e5bdd5d60d21b6000525060176020527f37fefa2b71fb92f906c886f73d7e5e5874a4df6b190c3ae21abfffde63e9544e805460ff19169055565b606060038054610bbb90613b89565b80601f0160208091040260200160405190810160405280929190818152602001828054610be790613b89565b8015610c345780601f10610c0957610100808354040283529160200191610c34565b820191906000526020600020905b815481529060010190602001808311610c1757829003601f168201915b5050505050905090565b6000610c52610c4b612c6b565b8484612d4f565b50600192915050565b60025490565b6060610c6b612c6b565b6001600160a01b0316610c7c61151f565b6001600160a01b031614610ca25760405162461bcd60e51b81526004016102419061387e565b6006805480602002602001604051908101604052809291908181526020016000905b82821015610d0c5760008481526020908190206040805180820190915260028502909101805482526001908101546001600160a01b0316828401529083529092019101610cc4565b50505050905090565b6000610d22848484612e03565b6001600160a01b038416600090815260016020526040812081610d43612c6b565b6001600160a01b03166001600160a01b0316815260200190815260200160002054905082811015610d865760405162461bcd60e51b815260040161024190613836565b610d9a85610d92612c6b565b858403612d4f565b506001949350505050565b600080600080610db3612c6b565b6001600160a01b0316610dc461151f565b6001600160a01b031614610dea5760405162461bcd60e51b81526004016102419061387e565b6000610dfa600d54600e54612f27565b6001600160a01b03871660009081526016602052604081205491925090610e2990610e24896113b3565b612f27565b6001600160a01b03979097166000908152601660205260409020805460019091015492989096509194509092505050565b610e62612c6b565b6001600160a01b0316610e7361151f565b6001600160a01b031614610e995760405162461bcd60e51b81526004016102419061387e565b6001600160a01b038216600090815260096020526040902054610f5c576040805180820182528281526001600160a01b03848116602080840182815260088054600181018255600082815296517ff3f7a9fe364faab93b216da50a3214154f22a0a2b415b23a84c8169e8b636ee360029092029182015591517ff3f7a9fe364faab93b216da50a3214154f22a0a2b415b23a84c8169e8b636ee490920180546001600160a01b031916929095169190911790935591549083526009909152919020555b5050565b601290565b6060610f6f612c6b565b6001600160a01b0316610f8061151f565b6001600160a01b031614610fa65760405162461bcd60e51b81526004016102419061387e565b6001600160a01b0382166000908152601360209081526040918290208054835181840281018401909452808452909183018282801561100e57602002820191906000526020600020905b81546001600160a01b03168152600190910190602001808311610ff0575b505050505090505b919050565b6000610c52611028612c6b565b848460016000611036612c6b565b6001600160a01b03908116825260208083019390935260409182016000908120918b168152925290205461106a9190613aef565b612d4f565b611077612c6b565b6001600160a01b031661108861151f565b6001600160a01b0316146110ae5760405162461bcd60e51b81526004016102419061387e565b6110b6612f33565b565b336000908152600760205260409020546110d157600080fd5b6001600160a01b0382166000908152600960205260409020546110f357600080fd5b6110fb61096e565b156111185760405162461bcd60e51b8152600401610241906137d5565b696469737472696275746560b01b60005260176020527f4e52da803ce4f74a853afdc85a668f9fb666e95d80f61049b6e5e45f4aa4ab045460ff161561115d57600080fd5b7f4e52da803ce4f74a853afdc85a668f9fb666e95d80f61049b6e5e45f4aa4ab04805460ff191660011790553360009081526014602090815260408083206001600160a01b0385168452909152902054600d54158015906111bd57508015155b1561122b573360009081526015602090815260408083206001600160a01b038716845282528083208484529091529020600101546111fb908561097e565b3360009081526015602090815260408083206001600160a01b038816845282528083208584529091529020600101555b5050696469737472696275746560b01b600052505060176020527f4e52da803ce4f74a853afdc85a668f9fb666e95d80f61049b6e5e45f4aa4ab04805460ff19169055565b60008061127b612c6b565b6001600160a01b031661128c61151f565b6001600160a01b0316146112b25760405162461bcd60e51b81526004016102419061387e565b50506001600160a01b039283166000818152601460209081526040808320948716835293815283822054928252601581528382209490951681529284528183209083529092522080546001909101549091565b6001600160a01b0381166000908152600960205260408120541561132b57506001611016565b506000611016565b600061133d612c6b565b6001600160a01b031661134e61151f565b6001600160a01b0316146113745760405162461bcd60e51b81526004016102419061387e565b6001600160a01b03831660009081526011602052604090819020905161139b90849061343a565b90815260405190819003602001902054905092915050565b6001600160a01b031660009081526020819052604090205490565b6113d6612c6b565b6001600160a01b03166113e761151f565b6001600160a01b03161461140d5760405162461bcd60e51b81526004016102419061387e565b6110b66000612fa4565b61141f612c6b565b6001600160a01b031661143061151f565b6001600160a01b0316146114565760405162461bcd60e51b81526004016102419061387e565b6110b6612ff6565b611466612c6b565b6001600160a01b031661147761151f565b6001600160a01b03161461149d5760405162461bcd60e51b81526004016102419061387e565b6001600160a01b03808316600090815260146020908152604080832093851683529290522054610f5c576001600160a01b03808316600081815260136020908152604080832080546001810182558185528385200180549688166001600160a01b03199097168717905593835292546014825283832094835293905220555050565b6005546001600160a01b031690565b611536612c6b565b6001600160a01b031661154761151f565b6001600160a01b03161461156d5760405162461bcd60e51b81526004016102419061387e565b6115773384612c6f565b600b91909155600c5550565b606060048054610bbb90613b89565b61159a612c6b565b6001600160a01b03166115ab61151f565b6001600160a01b0316146115d15760405162461bcd60e51b81526004016102419061387e565b686c697175696469747960b81b60005260176020527fec54819604d07368362b3c791c85bfaa793968cc5f74e77600f232c0fabbe2645460ff161561161557600080fd5b686c697175696469747960b81b60005260176020527fec54819604d07368362b3c791c85bfaa793968cc5f74e77600f232c0fabbe264805460ff1916600117905561165e61096e565b1561167b5760405162461bcd60e51b8152600401610241906137d5565b6001600160a01b038084166000908152601460209081526040808320938616835292905220546116bd5760405162461bcd60e51b8152600401610241906139df565b604051637acb775760e01b81526001600160a01b03841690637acb7757906116eb9084908690600401613a4f565b600060405180830381600087803b15801561170557600080fd5b505af1158015611719573d6000803e3d6000fd5b505050506117273082612c6f565b61173183826118a8565b5061173e600e548261097e565b600e556001600160a01b038316600090815260166020526040902054611764908261097e565b6001600160a01b0380851660008181526016602090815260408083209590955560148152848220938716825292835283812054918152601583528381203082528352838120828252909252919020546117bd908361097e565b6001600160a01b039094166000908152601560209081526040808320308452825280832093835292815291812094909455686c697175696469747960b81b9093525050601790527fec54819604d07368362b3c791c85bfaa793968cc5f74e77600f232c0fabbe264805460ff19169055565b6000806001600061183e612c6b565b6001600160a01b039081168252602080830193909352604091820160009081209188168152925290205490508281101561188a5760405162461bcd60e51b81526004016102419061399a565b61189e611895612c6b565b85858403612d4f565b5060019392505050565b6000610c526118b5612c6b565b8484612e03565b60606118c6612c6b565b6001600160a01b03166118d761151f565b6001600160a01b0316146118fd5760405162461bcd60e51b81526004016102419061387e565b600a805480602002602001604051908101604052809291908181526020016000905b82821015610d0c578382906000526020600020906002020160405180604001604052908160008201805461195290613b89565b80601f016020809104026020016040519081016040528092919081815260200182805461197e90613b89565b80156119cb5780601f106119a0576101008083540402835291602001916119cb565b820191906000526020600020905b8154815290600101906020018083116119ae57829003601f168201915b50505091835250506001918201546001600160a01b031660209182015291835292909201910161191f565b600c5415611a1f5742600c5411611a1f5760405162461bcd60e51b8152600401610241906138da565b611a2761096e565b15611a445760405162461bcd60e51b8152600401610241906137d5565b6001600160a01b03821660009081526009602052604081205415611a66575060015b801561202d576262757960e81b60005260176020527faab473ad50e812e1291b450bd0deee82917001a187342089159dddab8053febf5460ff1615611aaa57600080fd5b6262757960e81b60005260176020527faab473ad50e812e1291b450bd0deee82917001a187342089159dddab8053febf805460ff19166001179055611aef3083610c3e565b506040516323b872dd60e01b81526001600160a01b038416906323b872dd90611b209033903090879060040161347b565b602060405180830381600087803b158015611b3a57600080fd5b505af1158015611b4e573d6000803e3d6000fd5b505050506040513d601f19601f82011682018060405250810190611b7291906132f2565b15611ff4577f5a903c0a34c24eaba92e7ae11cc1c39d622c4d146d5dcb777537881f0dac359933846001600160a01b03166306fdde036040518163ffffffff1660e01b815260040160006040518083038186803b158015611bd257600080fd5b505afa158015611be6573d6000803e3d6000fd5b505050506040513d6000823e601f3d908101601f19168201604052611c0e9190810190613312565b84604051611c1e9392919061349f565b60405180910390a13360009081526011602052604080822081516306fdde0360e01b8152915190926001600160a01b038716926306fdde039260048083019392829003018186803b158015611c7257600080fd5b505afa158015611c86573d6000803e3d6000fd5b505050506040513d6000823e601f3d908101601f19168201604052611cae9190810190613312565b604051611cbb919061343a565b90815260405190819003602001902054611dd65760006040518060400160405280856001600160a01b03166306fdde036040518163ffffffff1660e01b815260040160006040518083038186803b158015611d1557600080fd5b505afa158015611d29573d6000803e3d6000fd5b505050506040513d6000823e601f3d908101601f19168201604052611d519190810190613312565b815233602091820152600a805460018101825560009190915282518051939450849360029092027fc65a7bb8d6351c1cf70c95a316cc6a92839c986682d98bc35f958f4883f9d2a80192611daa92849290910190613057565b5060209190910151600190910180546001600160a01b0319166001600160a01b03909216919091179055505b3360009081526011602052604080822081516306fdde0360e01b81529151611e849391926001600160a01b038816926306fdde0392600480840193829003018186803b158015611e2557600080fd5b505afa158015611e39573d6000803e3d6000fd5b505050506040513d6000823e601f3d908101601f19168201604052611e619190810190613312565b604051611e6e919061343a565b908152604051908190036020019020548361097e565b3360009081526011602052604080822081516306fdde0360e01b8152915190926001600160a01b038816926306fdde039260048083019392829003018186803b158015611ed057600080fd5b505afa158015611ee4573d6000803e3d6000fd5b505050506040513d6000823e601f3d908101601f19168201604052611f0c9190810190613312565b604051611f19919061343a565b9081526040805191829003602090810183209390935533600090815260119093528083206306fdde0360e01b83529051869391926001600160a01b038516926306fdde0392600480840193829003018186803b158015611f7857600080fd5b505afa158015611f8c573d6000803e3d6000fd5b505050506040513d6000823e601f3d908101601f19168201604052611fb49190810190613312565b604051611fc1919061343a565b90815260405190819003602001902060010180546001600160a01b03929092166001600160a01b03199092169190911790555b6262757960e81b60005260176020527faab473ad50e812e1291b450bd0deee82917001a187342089159dddab8053febf805460ff191690555b505050565b606060088054806020026020016040519081016040528092919081815260200160009082821015610d0c5760008481526020908190206040805180820190915260028502909101805482526001908101546001600160a01b0316828401529083529092019101610cc4565b6001600160a01b03918216600090815260016020908152604080832093909416825291909152205490565b60006120d3826113b3565b92915050565b6120e1612c6b565b6001600160a01b03166120f261151f565b6001600160a01b0316146121185760405162461bcd60e51b81526004016102419061387e565b64697373756560d81b60005260176020527f0b51e30283e77a9a7d27bac6b41c6550997995f06288aafec9c8a1b9ac17581e5460ff161561215857600080fd5b64697373756560d81b60005260176020527f0b51e30283e77a9a7d27bac6b41c6550997995f06288aafec9c8a1b9ac17581e805460ff19166001179055600b548111806121b657506121b36121ab610c5b565b600f54612f27565b81115b15612361576001600160a01b0384166000908152601160205260409081902090516121fd91906121e790869061343a565b9081526040519081900360200190205483612f27565b6001600160a01b03851660009081526011602052604090819020905161222490869061343a565b90815260405160209181900382018120929092556122449185910161343a565b604051602081830303815290604052805190602001206432ba3432b960d91b14612324576001600160a01b03841660009081526011602052604090819020905161228f90859061343a565b9081526040519081900360200181206001015463a9059cbb60e01b82526001600160a01b03169063a9059cbb906122cc9087908690600401613509565b602060405180830381600087803b1580156122e657600080fd5b505af11580156122fa573d6000803e3d6000fd5b505050506040513d601f19601f8201168201806040525081019061231e91906132f2565b5061235c565b6040516001600160a01b0385169083156108fc029084906000818181858888f1935050505015801561235a573d6000803e3d6000fd5b505b612550565b61236b3082610c3e565b5061237e61237761151f565b8583610d15565b5061238b600f548261097e565b600f556001600160a01b0384166000908152601260205260409020546123b1908261097e565b6001600160a01b038516600090815260126020526040902055600d546123d7908261097e565b600d556001600160a01b038416600090815260126020526040902060010154612400908261097e565b6001600160a01b03851660009081526012602090815260409182902060010192909255516124309185910161343a565b604051602081830303815290604052805190602001206432ba3432b960d91b14612514576001600160a01b03841660009081526011602052604090819020905161247b90859061343a565b908152604051908190036020019020600101546001600160a01b031663a9059cbb6124a461151f565b846040518363ffffffff1660e01b81526004016124c2929190613509565b602060405180830381600087803b1580156124dc57600080fd5b505af11580156124f0573d6000803e3d6000fd5b505050506040513d601f19601f8201168201806040525081019061235a91906132f2565b6010546040516001600160a01b039091169083156108fc029084906000818181858888f1935050505015801561254e573d6000803e3d6000fd5b505b505064697373756560d81b600052505060176020527f0b51e30283e77a9a7d27bac6b41c6550997995f06288aafec9c8a1b9ac17581e805460ff19169055565b612598612c6b565b6001600160a01b03166125a961151f565b6001600160a01b0316146125cf5760405162461bcd60e51b81526004016102419061387e565b6001600160a01b0381166125f55760405162461bcd60e51b815260040161024190613707565b6125fe81612fa4565b50565b612609612c6b565b6001600160a01b031661261a61151f565b6001600160a01b0316146126405760405162461bcd60e51b81526004016102419061387e565b6001600160a01b038216600090815260076020526040902054610f5c576040805180820182529182526001600160a01b03928316602080840182815260068054600181018255600082815296517ff652222313e28459528d920b65115c16c04f3efc82aaedc97be59f3f377c0d3f60029092029182015591517ff652222313e28459528d920b65115c16c04f3efc82aaedc97be59f3f377c0d4090920180546001600160a01b031916929097169190911790955593549083526007909352902055565b61270b612c6b565b6001600160a01b031661271c61151f565b6001600160a01b0316146127425760405162461bcd60e51b81526004016102419061387e565b6001600160a01b0380831660009081526014602090815260408083209385168352929052908120541561202d5760005b6001600160a01b038416600090815260136020526040902054811015612c65576001600160a01b038481166000908152601360205260409020805491851691839081106127cf57634e487b7160e01b600052603260045260246000fd5b6000918252602090912001546001600160a01b03161415612a20576001600160a01b03841660009081526013602052604090205461280f90600190613b46565b81141561288e576001600160a01b038416600090815260136020526040902080548290811061284e57634e487b7160e01b600052603260045260246000fd5b6000918252602080832090910180546001600160a01b03191690556001600160a01b03868116835260148252604080842091871684529152812055612a17565b6001600160a01b03841660009081526013602052604090206128b1826001613aef565b815481106128cf57634e487b7160e01b600052603260045260246000fd5b60009182526020808320909101546001600160a01b0387811684526013909252604090922080549190921691908390811061291a57634e487b7160e01b600052603260045260246000fd5b600091825260208083209190910180546001600160a01b0319166001600160a01b0394851617905591861681526014825260408082206013909352812080546001939291908590811061297d57634e487b7160e01b600052603260045260246000fd5b60009182526020808320909101546001600160a01b031683528201929092526040019020546129ac9190613b46565b6001600160a01b0385166000908152601460209081526040808320601390925282208054919291859081106129f157634e487b7160e01b600052603260045260246000fd5b60009182526020808320909101546001600160a01b031683528201929092526040019020555b60019150612c53565b8115612c53576001600160a01b038416600090815260136020526040902054612a4b90600190613b46565b811415612aca576001600160a01b0384166000908152601360205260409020805482908110612a8a57634e487b7160e01b600052603260045260246000fd5b6000918252602080832090910180546001600160a01b03191690556001600160a01b03868116835260148252604080842091871684529152812055612c53565b6001600160a01b0384166000908152601360205260409020612aed826001613aef565b81548110612b0b57634e487b7160e01b600052603260045260246000fd5b60009182526020808320909101546001600160a01b03878116845260139092526040909220805491909216919083908110612b5657634e487b7160e01b600052603260045260246000fd5b600091825260208083209190910180546001600160a01b0319166001600160a01b03948516179055918616815260148252604080822060139093528120805460019392919085908110612bb957634e487b7160e01b600052603260045260246000fd5b60009182526020808320909101546001600160a01b03168352820192909252604001902054612be89190613b46565b6001600160a01b038516600090815260146020908152604080832060139092528220805491929185908110612c2d57634e487b7160e01b600052603260045260246000fd5b60009182526020808320909101546001600160a01b031683528201929092526040019020555b80612c5d81613bc4565b915050612772565b50505050565b3390565b6001600160a01b038216612c955760405162461bcd60e51b815260040161024190613a0f565b612ca16000838361202d565b8060026000828254612cb39190613aef565b90915550506001600160a01b03821660009081526020819052604081208054839290612ce0908490613aef565b90915550506040516001600160a01b038316906000907fddf252ad1be2c89b69c2b068fc378daa952ba7f163c4a11628f55a4df523b3ef90612d23908590613a46565b60405180910390a3610f5c6000838361202d565b600061098a8284613b07565b600061098a8284613b27565b6001600160a01b038316612d755760405162461bcd60e51b815260040161024190613956565b6001600160a01b038216612d9b5760405162461bcd60e51b81526004016102419061374d565b6001600160a01b0380841660008181526001602090815260408083209487168084529490915290819020849055517f8c5be1e5ebec7d5bd14f71427d1e84f3dd0314c0f7b2291e5b200ac8c7c3b92590612df6908590613a46565b60405180910390a3505050565b6001600160a01b038316612e295760405162461bcd60e51b815260040161024190613911565b6001600160a01b038216612e4f5760405162461bcd60e51b815260040161024190613696565b612e5a83838361202d565b6001600160a01b03831660009081526020819052604090205481811015612e935760405162461bcd60e51b81526004016102419061378f565b6001600160a01b03808516600090815260208190526040808220858503905591851681529081208054849290612eca908490613aef565b92505081905550826001600160a01b0316846001600160a01b03167fddf252ad1be2c89b69c2b068fc378daa952ba7f163c4a11628f55a4df523b3ef84604051612f149190613a46565b60405180910390a3612c6584848461202d565b600061098a8284613b46565b612f3b61096e565b612f575760405162461bcd60e51b8152600401610241906136d9565b6005805460ff60a01b191690557f5db9ee0a495bf2e6ff9c91a7834c1ba4fdd244a5e8aa4e537bd38aeae4b073aa612f8d612c6b565b604051612f9a9190613467565b60405180910390a1565b600580546001600160a01b038381166001600160a01b0319831681179093556040519116919082907f8be0079c531659141344cd1fd0a4f28419497f9722a3daafe3b4186f6b6457e090600090a35050565b612ffe61096e565b1561301b5760405162461bcd60e51b81526004016102419061380c565b6005805460ff60a01b1916600160a01b1790557f62e78cea01bee320cd4e420270b5ea74000d11b0c9f74754ebdbfc544b05a258612f8d612c6b565b82805461306390613b89565b90600052602060002090601f01602090048101928261308557600085556130cb565b82601f1061309e57805160ff19168380011785556130cb565b828001600101855582156130cb579182015b828111156130cb5782518255916020019190600101906130b0565b506130d79291506130db565b5090565b5b808211156130d757600081556001016130dc565b80356001600160a01b038116811461101657600080fd5b600082601f830112613117578081fd5b813561312a61312582613ac7565b613a9d565b81815284602083860101111561313e578283fd5b816020850160208301379081016020019190915292915050565b600060208284031215613169578081fd5b61098a826130f0565b60008060408385031215613184578081fd5b61318d836130f0565b915061319b602084016130f0565b90509250929050565b6000806000606084860312156131b8578081fd5b6131c1846130f0565b92506131cf602085016130f0565b91506131dd604085016130f0565b90509250925092565b6000806000606084860312156131fa578283fd5b613203846130f0565b9250613211602085016130f0565b9150604084013590509250925092565b60008060408385031215613233578182fd5b61323c836130f0565b946020939093013593505050565b6000806040838503121561325c578182fd5b613265836130f0565b9150602083013567ffffffffffffffff811115613280578182fd5b61328c85828601613107565b9150509250929050565b600080600080608085870312156132ab578081fd5b6132b4856130f0565b9350602085013567ffffffffffffffff8111156132cf578182fd5b6132db87828801613107565b949794965050505060408301359260600135919050565b600060208284031215613303578081fd5b8151801515811461098a578182fd5b600060208284031215613323578081fd5b815167ffffffffffffffff811115613339578182fd5b8201601f81018413613349578182fd5b805161335761312582613ac7565b81815285602083850101111561336b578384fd5b61337c826020830160208601613b5d565b95945050505050565b60008060408385031215613397578182fd5b8235915061319b602084016130f0565b6000806000606084860312156133bb578283fd5b833592506131cf602085016130f0565b6000806000606084860312156133df578283fd5b505081359360208301359350604090920135919050565b6000815180845261340e816020860160208601613b5d565b601f01601f19169290920160200192915050565b805182526020908101516001600160a01b0316910152565b6000825161344c818460208701613b5d565b9190910192915050565b6432ba3432b960d91b815260050190565b6001600160a01b0391909116815260200190565b6001600160a01b039384168152919092166020820152604081019190915260600190565b6001600160a01b03841681526060602082018190526000906134c3908301856133f6565b9050826040830152949350505050565b6001600160a01b039290921682526060602083018190526005908301526432ba3432b960d91b6080830152604082015260a00190565b6001600160a01b03929092168252602082015260400190565b6020808252825182820181905260009190848201906040850190845b818110156135635783516001600160a01b03168352928401929184019160010161353e565b50909695505050505050565b602080825282518282018190526000919060409081850190868401855b828110156135af5761359f848351613422565b928401929085019060010161358c565b5091979650505050505050565b60208082528251828201819052600091906040908185019080840286018301878501865b8381101561362a57888303603f1901855281518051878552613604888601826133f6565b918901516001600160a01b031694890194909452948701949250908601906001016135e0565b509098975050505050505050565b602080825282518282018190526000919060409081850190868401855b828110156135af57613668848351613422565b9284019290850190600101613655565b901515815260200190565b60006020825261098a60208301846133f6565b60208082526023908201527f45524332303a207472616e7366657220746f20746865207a65726f206164647260408201526265737360e81b606082015260800190565b60208082526014908201527314185d5cd8589b194e881b9bdd081c185d5cd95960621b604082015260600190565b60208082526026908201527f4f776e61626c653a206e6577206f776e657220697320746865207a65726f206160408201526564647265737360d01b606082015260800190565b60208082526022908201527f45524332303a20617070726f766520746f20746865207a65726f206164647265604082015261737360f01b606082015260800190565b60208082526026908201527f45524332303a207472616e7366657220616d6f756e7420657863656564732062604082015265616c616e636560d01b606082015260800190565b60208082526018908201527f436f6e747261637420696e207061757365642073746174650000000000000000604082015260600190565b60208082526010908201526f14185d5cd8589b194e881c185d5cd95960821b604082015260600190565b60208082526028908201527f45524332303a207472616e7366657220616d6f756e74206578636565647320616040820152676c6c6f77616e636560c01b606082015260800190565b6020808252818101527f4f776e61626c653a2063616c6c6572206973206e6f7420746865206f776e6572604082015260600190565b6020808252600d908201526c16995c9bc8195d1a081cd95b9d609a1b604082015260600190565b6020808252601c908201527f537562736372697074696f6e2077696e646f7720627265616368656400000000604082015260600190565b60208082526025908201527f45524332303a207472616e736665722066726f6d20746865207a65726f206164604082015264647265737360d81b606082015260800190565b60208082526024908201527f45524332303a20617070726f76652066726f6d20746865207a65726f206164646040820152637265737360e01b606082015260800190565b60208082526025908201527f45524332303a2064656372656173656420616c6c6f77616e63652062656c6f77604082015264207a65726f60d81b606082015260800190565b60208082526016908201527513585b9859d95c88191bd95cc81b9bdd08195e1a5cdd60521b604082015260600190565b6020808252601f908201527f45524332303a206d696e7420746f20746865207a65726f206164647265737300604082015260600190565b90815260200190565b9182526001600160a01b0316602082015260400190565b918252602082015260400190565b93845260208401929092526040830152606082015260800190565b60ff91909116815260200190565b60405181810167ffffffffffffffff81118282101715613abf57613abf613bf5565b604052919050565b600067ffffffffffffffff821115613ae157613ae1613bf5565b50601f01601f191660200190565b60008219821115613b0257613b02613bdf565b500190565b600082613b2257634e487b7160e01b81526012600452602481fd5b500490565b6000816000190483118215151615613b4157613b41613bdf565b500290565b600082821015613b5857613b58613bdf565b500390565b60005b83811015613b78578181015183820152602001613b60565b83811115612c655750506000910152565b600281046001821680613b9d57607f821691505b60208210811415613bbe57634e487b7160e01b600052602260045260246000fd5b50919050565b6000600019821415613bd857613bd8613bdf565b5060010190565b634e487b7160e01b600052601160045260246000fd5b634e487b7160e01b600052604160045260246000fdfea26469706673582212205e221d32486ad5896a6d55f69f0a761478798c681aee65ed49c11c378864b27364736f6c63430008000033",
  "immutableReferences": {},
  "source": "// Verified Liquidity token \r\n// (c) Kallol Borah, 2021\r\n\r\n//\"SPDX-License-Identifier: UNLICENSED\"\r\n\r\npragma solidity 0.8.0;\r\n\r\nimport \"@openzeppelin/contracts/access/Ownable.sol\";\r\nimport \"@openzeppelin/contracts/security/Pausable.sol\";\r\n\r\nimport \"@openzeppelin/contracts/token/ERC20/ERC20.sol\";\r\nimport \"@openzeppelin/contracts/token/ERC20/IERC20.sol\";\r\nimport \"@openzeppelin/contracts/utils/math/SafeMath.sol\";\r\n\r\nimport \"./interfaces/IMarketMaker.sol\";\r\nimport \"./interfaces/ILiquidity.sol\";\r\n\r\ncontract Liquidity is ERC20, Ownable, Pausable {\r\n\r\n    using SafeMath for uint256;\r\n\r\n    ILiquidity.platform[] private platforms;\r\n    mapping(address => uint256) private platformIndex;\r\n\r\n    ILiquidity.token[] private tokens;\r\n    mapping(address => uint256) private tokenIndex;\r\n    \r\n    ILiquidity.provider[] private LPs;\r\n\r\n    uint256 investmentCap=0;\r\n    uint256 timeLimit=0;\r\n    \r\n    uint256 totalStaked=0;\r\n    uint256 totalLiquidity=0;\r\n    uint256 totalIssued=0;\r\n\r\n    address payable verified;\r\n\r\n    struct investment{\r\n        uint256 tokenAmount;\r\n        address tokenAddress;\r\n    }\r\n\r\n    struct liquidity{\r\n        uint256 issued;\r\n        uint256 staked;\r\n    }\r\n\r\n    struct performance{\r\n        uint256 liquidityProvided;\r\n        uint256 commissionsEarned;\r\n    }\r\n\r\n    // mapping investor to invested tokens\r\n    mapping(address => mapping(string => investment)) private investors;\r\n    // mapping investor to liquidity tokens issued and staked\r\n    mapping(address => liquidity) private stakes;    \r\n    // mapping platform to asset managers on it\r\n    mapping(address => address[]) private managers; \r\n    // mapping platform to asset manager's position in it\r\n    mapping(address => mapping(address => uint256)) private managerIndex;\r\n    // mapping platform to address of token distributed by manager to asset manager index to performance of liquidity provided\r\n    mapping(address => mapping(address => mapping(uint256 => performance))) private managerRoi;\r\n    // mapping platform to performance\r\n    mapping(address => performance) private platformRoi;\r\n\r\n    //mutex\r\n    mapping(bytes32 => bool) private lock;\r\n\r\n    event RequestIssue(address investor, string tokenName, uint256 tokenAmount);\r\n    \r\n    /**\r\n        Constructor for the Verified Liquidity token\r\n        @param  _supply total supply of VITTA\r\n        @param  _cap    investment limit for each investor\r\n        @param  _limit  time limit for issue close\r\n     */\r\n    constructor(uint256 _supply, uint256 _cap, uint256 _limit) \r\n        ERC20(\"Verified\", \"VITTA\"){\r\n        _mint(msg.sender, _supply);\r\n        verified = payable(msg.sender);\r\n        investmentCap = _cap;\r\n        timeLimit = _limit;\r\n        totalIssued = 0;\r\n    }\r\n\r\n    /**\r\n        Creates supply of the Verified Liquidity token after initial issue with constructor defined parameters\r\n        @param  _supply total supply of VITTA\r\n        @param  _cap    investment limit for each investor\r\n        @param  _limit  time limit for issue close \r\n     */\r\n    function createSupply(uint256 _supply, uint256 _cap, uint256 _limit) onlyOwner external {\r\n        _mint(msg.sender, _supply);\r\n        investmentCap = _cap;\r\n        timeLimit = _limit;\r\n    }\r\n\r\n    /**\r\n        Specifies list of supported tokens that can be invested in the Verified Liquidity token\r\n        @param  _token  address of token supported\r\n        @param  _name   name of token supported\r\n     */\r\n    function supportTokens(address _token, bytes32 _name) onlyOwner external {\r\n        if(tokenIndex[_token]==0){\r\n            ILiquidity.token memory t = ILiquidity.token ({\r\n                tokenName: _name,\r\n                tokenAddress: _token\r\n            });\r\n            tokens.push(t);\r\n            tokenIndex[_token] = tokens.length;\r\n        }\r\n    }\r\n\r\n    /**\r\n        Checks if a specified token is supported for investing in the Verified Liquidity token\r\n        @param  _token  token that is supported for investment\r\n     */\r\n    function checkSupportForToken(address _token) external view returns(bool){\r\n        if(tokenIndex[_token]>0)\r\n            return true;\r\n        else\r\n            return false;\r\n    }\r\n\r\n    /**\r\n        Returns list of supported tokens\r\n     */\r\n    function getSupportedTokens() external view returns(ILiquidity.token[] memory){\r\n        return tokens;\r\n    }\r\n\r\n    /**\r\n        Registers a liquidity platform (eg, DEX) where Verified Liquidity tokens can be used to underwrite investments\r\n        @param  _liquidityPlatform  address of the market making platform\r\n        @param  _platformName       name of market making platform\r\n     */\r\n    function registerPlatform(address _liquidityPlatform, bytes32 _platformName) onlyOwner external {\r\n        if(platformIndex[_liquidityPlatform]==0){\r\n            ILiquidity.platform memory p = ILiquidity.platform({\r\n                platformName: _platformName,\r\n                platformAddress: _liquidityPlatform\r\n            });\r\n            platforms.push(p);\r\n            platformIndex[_liquidityPlatform] = platforms.length;\r\n        }\r\n    }\r\n    \r\n    /**\r\n        Gets list of registered platforms\r\n     */\r\n    function getPlatforms() onlyOwner external view returns(ILiquidity.platform[] memory){\r\n        return platforms;\r\n    }\r\n\r\n    /**\r\n        Adds asset manager for managing liquidity\r\n        @param  _platform   address of market making platform (eg, Balancer)\r\n        @param  _manager    address of asset manager\r\n     */\r\n    function addManager(address _platform, address _manager) onlyOwner external{\r\n        if(managerIndex[_platform][_manager]==0){\r\n            managers[_platform].push(_manager);\r\n            managerIndex[_platform][_manager] = managers[_platform].length;\r\n        }\r\n    } \r\n\r\n    /**\r\n        Removes asset manager for managing liquidity on platform\r\n        @param  _platform   address of market making platform\r\n        @param  _manager    address of asset manager\r\n     */\r\n    function removeManager(address _platform, address _manager) onlyOwner external{\r\n        bool found = false;\r\n        if(managerIndex[_platform][_manager]!=0){\r\n            for(uint i=0; i<managers[_platform].length; i++){\r\n                if(managers[_platform][i]==_manager){\r\n                    if(i==managers[_platform].length-1){\r\n                       delete managers[_platform][i];\r\n                       managerIndex[_platform][_manager] = 0;\r\n                    }\r\n                    else{\r\n                       managers[_platform][i]=managers[_platform][i+1];\r\n                       managerIndex[_platform][managers[_platform][i]] = managerIndex[_platform][managers[_platform][i]] - 1;\r\n                    }\r\n                    found = true;\r\n                }\r\n                else if(found){\r\n                    if(i==managers[_platform].length-1){\r\n                       delete managers[_platform][i];\r\n                       managerIndex[_platform][_manager] = 0;\r\n                    }\r\n                    else{\r\n                       managers[_platform][i]=managers[_platform][i+1];\r\n                       managerIndex[_platform][managers[_platform][i]] = managerIndex[_platform][managers[_platform][i]] - 1;\r\n                    }\r\n                }\r\n            }\r\n        }\r\n    }\r\n\r\n    /**\r\n        Gets asset managers for managing liquidity\r\n        @param  _platform   address of market making platform\r\n     */\r\n    function getManagers(address _platform) onlyOwner external view returns(address[] memory){\r\n        return managers[_platform];\r\n    }\r\n\r\n    /**\r\n        Receiver of ether invested in the Verified Liquidity token\r\n     */\r\n    receive() external payable{\r\n        if(timeLimit!=0)\r\n            require(timeLimit > block.timestamp, \"Subscription window breached\");\r\n        //ether paid in\r\n        require(msg.value !=0, \"Zero eth sent\");\r\n        //contract must not be paused\r\n        require(paused() == false, \"Contract in paused state\");\r\n        //block reentrants\r\n        require(!lock[\"etherreceipt\"]);\r\n        lock[\"etherreceipt\"] = true;\r\n        //issue liquidity token\r\n        emit RequestIssue(msg.sender, \"ether\", msg.value);\r\n        if(investors[msg.sender][\"ether\"].tokenAmount==0){\r\n            ILiquidity.provider memory lp = ILiquidity.provider({\r\n                assetInvested: string(\"ether\"),\r\n                investorAddress: msg.sender\r\n            });\r\n            LPs.push(lp);\r\n        }\r\n        investors[msg.sender][\"ether\"].tokenAmount = SafeMath.add(investors[msg.sender][\"ether\"].tokenAmount, msg.value);\r\n        lock[\"etherreceipt\"] = false;\r\n    }\r\n\r\n    /**\r\n        Used by external apps (eg, exchange, wallet) to buy Verified Liquidity token \r\n        @param  _token  address of token used by investor to buy the VITTA\r\n        @param  _amount amount of token that is transferred from investor to this VITTA issuing contract's account for the investor\r\n     */\r\n    function buy(address _token, uint256 _amount) external {\r\n        if(timeLimit!=0)\r\n            require(timeLimit > block.timestamp, \"Subscription window breached\");\r\n        require(paused() == false, \"Contract in paused state\");\r\n        bool found = false;\r\n        if(tokenIndex[_token]>0)\r\n            found = true;\r\n        if(found){\r\n            require(!lock[\"buy\"]);\r\n            lock[\"buy\"] = true;\r\n            approve(address(this), _amount);\r\n            if(IERC20(_token).transferFrom(msg.sender, address(this), _amount)){\r\n                emit RequestIssue(msg.sender, ERC20(_token).name(), _amount);\r\n                if(investors[msg.sender][ERC20(_token).name()].tokenAmount==0){\r\n                    ILiquidity.provider memory lp = ILiquidity.provider({\r\n                        assetInvested: ERC20(_token).name(),\r\n                        investorAddress: msg.sender\r\n                    });\r\n                    LPs.push(lp);\r\n                }\r\n                investors[msg.sender][ERC20(_token).name()].tokenAmount = SafeMath.add(investors[msg.sender][ERC20(_token).name()].tokenAmount, _amount);\r\n                investors[msg.sender][ERC20(_token).name()].tokenAddress = _token;\r\n            }\r\n            lock[\"buy\"] = false;\r\n        }\r\n    }\r\n\r\n    /**\r\n        Fetches investors in VITTA\r\n     */\r\n    function getInvestors() onlyOwner external view returns(ILiquidity.provider[] memory){\r\n        return LPs;\r\n    }\r\n\r\n    /**\r\n        Fetches investment detail for specific investor in VITTA\r\n        @param  _investor   address of investor\r\n        @param  _tokenName  name of token invested by investor\r\n     */\r\n    function getInvestment(address _investor, string memory _tokenName) onlyOwner external view returns(uint256){\r\n        return (investors[_investor][_tokenName].tokenAmount);\r\n    }\r\n\r\n    /**\r\n        Used by admin to issue VITTA to investors or refund paid in tokens to investors if investment cap is breached\r\n        @param  _investor       address of investor\r\n        @param  _tokenName      name of token invested in VITTA\r\n        @param  _tokenAmount    amount of token invested in VITTA\r\n        @param  _LPToIssue      amount of VITTA to issue to investor \r\n     */\r\n    function issue(address _investor, string memory _tokenName, uint256 _tokenAmount, uint256 _LPToIssue) onlyOwner external {\r\n        require(!lock[\"issue\"]);\r\n        lock[\"issue\"] = true;\r\n        //If investment is outside limits, refund tokens invested back to investor\r\n        if((_LPToIssue > investmentCap) || (_LPToIssue > SafeMath.sub(totalSupply(), totalIssued))){\r\n            investors[_investor][_tokenName].tokenAmount = SafeMath.sub(investors[_investor][_tokenName].tokenAmount, _tokenAmount);\r\n            if(keccak256(abi.encodePacked(_tokenName))!=\"ether\")\r\n                IERC20(investors[_investor][_tokenName].tokenAddress).transfer(_investor, _tokenAmount);\r\n            else\r\n                payable(_investor).transfer(_tokenAmount);\r\n        }\r\n        //else issue VITTA to investor and transfer managed liquidity to deployer that allocates it to issuer\r\n        else{\r\n            approve(address(this), _LPToIssue);\r\n            transferFrom(owner(), _investor, _LPToIssue);  \r\n            totalIssued = SafeMath.add(totalIssued, _LPToIssue);    \r\n            stakes[_investor].issued = SafeMath.add(stakes[_investor].issued, _LPToIssue);\r\n            totalStaked = SafeMath.add(totalStaked, _LPToIssue); //added for model without staking\r\n            stakes[_investor].staked = SafeMath.add(stakes[_investor].staked, _LPToIssue);//added for model without staking\r\n            if(keccak256(abi.encodePacked(_tokenName))!=\"ether\")\r\n                IERC20(investors[_investor][_tokenName].tokenAddress).transfer(owner(), _tokenAmount);\r\n            else\r\n                (verified).transfer(_tokenAmount);\r\n        }\r\n        lock[\"issue\"] = false;\r\n    }\r\n\r\n    /**\r\n        Used by VITTA holder to stake it for providing liquidity for underwriting investments\r\n        @param  _toStake    amount of VITTA to stake\r\n     */\r\n    /*function stake(uint256 _toStake) external {\r\n        require(paused() == false, \"Contract in paused state\");\r\n        require(stakes[msg.sender].issued >= _toStake, \"Staked liquidity more than issued liquidity\");\r\n        require(!lock[\"stake\"]);\r\n        lock[\"stake\"] = true;\r\n        if(transferFrom(msg.sender, address(this), _toStake)){\r\n            totalStaked = SafeMath.add(totalStaked, _toStake);\r\n            stakes[msg.sender].issued = SafeMath.sub(stakes[msg.sender].issued, _toStake);\r\n            stakes[msg.sender].staked = SafeMath.add(stakes[msg.sender].staked, _toStake);\r\n        }\r\n        lock[\"stake\"] = false;\r\n    }*/\r\n\r\n    /**\r\n        Used by VITTA holder to withdraw staked liquidity for underwriting investments\r\n        @param  _fromStake    amount of VITTA staked\r\n     */\r\n    /*function withdraw(uint256 _fromStake) external {\r\n        require(paused() == false, \"Contract in paused state\");\r\n        require(stakes[msg.sender].staked >= _fromStake, \"Withdrawn liquidity more than staked liquidity\");\r\n        require(!lock[\"withdraw\"]);\r\n        lock[\"withdraw\"] = true;\r\n        if(SafeMath.sub(totalStaked, totalLiquidity) >= _fromStake){\r\n            if(transfer(msg.sender, _fromStake)){\r\n                totalStaked = SafeMath.sub(totalStaked, _fromStake);\r\n                stakes[msg.sender].staked = SafeMath.sub(stakes[msg.sender].staked, _fromStake);\r\n            }\r\n        }\r\n        lock[\"withdraw\"] = false;\r\n    }*/\r\n\r\n    /**\r\n        Provides staked VITTA to asset managers based on prior liquidity consumed and commission earned \r\n        @param  _platform   address of platform on which liquidity has to be provided\r\n        @param  _manager    address of asset manager to whom liquidity has to be provided\r\n        @param  _liquidity  amount of VITTA tokens to allot to an asset manager\r\n     */\r\n    function provideLiquidity(address _platform, address _manager, uint256 _liquidity) onlyOwner external {\r\n        require(!lock[\"liquidity\"]);\r\n        lock[\"liquidity\"] = true;\r\n        require(paused() == false, \"Contract in paused state\");\r\n        require(managerIndex[_platform][_manager]!=0, \"Manager does not exist\");\r\n        IMarketMaker(_platform).stake(_liquidity, _manager);\r\n        _mint(address(this), _liquidity); //added for model without staking\r\n        transfer(_platform, _liquidity); \r\n        totalLiquidity = SafeMath.add(totalLiquidity, _liquidity);\r\n        platformRoi[_platform].liquidityProvided = SafeMath.add(platformRoi[_platform].liquidityProvided, _liquidity);\r\n        uint256 index = managerIndex[_platform][_manager];\r\n        managerRoi[_platform][address(this)][index].liquidityProvided = SafeMath.add(managerRoi[_platform][address(this)][index].liquidityProvided, _liquidity);\r\n        lock[\"liquidity\"] = false;\r\n    }\r\n\r\n    /**\r\n        Pay out of income by Market maker contracts to VITTA Liquidity providers\r\n        @param  _distribution   amount of VITTA to mint and distribute pro rata to liquidity providers\r\n        @param  _token          address of token in which distribution is made by market maker    \r\n        @param  _manager        address of asset manager earning the paid out return on investment \r\n     */\r\n    function distribute(uint256 _distribution, address _token, address _manager) external {\r\n        require(platformIndex[msg.sender]>0);\r\n        require(tokenIndex[_token]>0);\r\n        require(paused() == false, \"Contract in paused state\");\r\n        require(!lock[\"distribute\"]);\r\n        lock[\"distribute\"] = true;\r\n        uint256 index = managerIndex[msg.sender][_manager];\r\n        if(totalStaked!=0 && index!=0){\r\n            managerRoi[msg.sender][_token][index].commissionsEarned = SafeMath.add(managerRoi[msg.sender][_token][index].commissionsEarned, _distribution);\r\n        }\r\n        lock[\"distribute\"] = false;\r\n    }\r\n\r\n    /**\r\n        Fetches performance of market platform platform\r\n        @param  _platform   address of market making platform\r\n     */\r\n    function getPlatformPerformance(address _platform) onlyOwner external view returns(uint256 unstakedLiquidity, \r\n                                                                                        uint256 balancePlatformLiquidity,\r\n                                                                                        uint256 platformLiquidityProvided,\r\n                                                                                        uint256 platformCommissionsEarned){\r\n        uint256 unStakedLiquidity = SafeMath.sub(totalStaked, totalLiquidity);\r\n        uint256 liquidityBalance = SafeMath.sub(platformRoi[_platform].liquidityProvided, balanceOf(_platform));\r\n        return (unStakedLiquidity, liquidityBalance, platformRoi[_platform].liquidityProvided, platformRoi[_platform].commissionsEarned);\r\n    }\r\n\r\n    /**\r\n        Fetches performance of asset managers\r\n        @param  _platform   address of platform\r\n        @param  _token      address of token\r\n        @param  _manager    address of asset manager on platform\r\n     */\r\n    function getManagerPerformance(address _platform, address _token, address _manager) onlyOwner external view returns(uint256 managerLiquidityProvided,\r\n                                                                                    uint256 managerCommissionsEarned){\r\n        uint256 index = managerIndex[_platform][_manager];                                                                                \r\n        return (managerRoi[_platform][_token][index].liquidityProvided, managerRoi[_platform][_token][index].commissionsEarned);\r\n    }\r\n\r\n    /**\r\n        Pay out income to VITTA Liquidity providers\r\n        @param  _platform       amount of VITTA to mint and distribute pro rata to liquidity providers\r\n        @param  _distribution   amount of VITTA token to pay out    \r\n     */\r\n    function payOut(uint256 _distribution, address _platform) onlyOwner external {\r\n        require(!lock[\"payout\"]);\r\n        lock[\"payout\"] = true;\r\n        _mint(address(this), _distribution);\r\n        platformRoi[_platform].commissionsEarned = SafeMath.add(platformRoi[_platform].commissionsEarned, _distribution);\r\n        for(uint i=0; i<LPs.length; i++){\r\n            uint256 prorataStake = SafeMath.div(stakes[LPs[i].investorAddress].staked, totalStaked);\r\n            transfer(LPs[i].investorAddress, SafeMath.mul(prorataStake, _distribution));                \r\n        }\r\n        lock[\"payout\"] = false;\r\n    }\r\n\r\n    function balance(address investor) external view returns(uint256 investorBalance){\r\n        return balanceOf(investor);\r\n    }\r\n\r\n    /**\r\n        Pauses this contract\r\n     */\r\n    function pause() onlyOwner public {\r\n        _pause();\r\n    }\r\n    \r\n    /**\r\n        Unpauses this contract\r\n     */\r\n    function unpause() onlyOwner public {\r\n        _unpause();\r\n    }\r\n\r\n}\r\n\r\n",
  "sourcePath": "D:\\Code\\verified-liquidity\\verified\\contracts\\Liquidity.sol",
  "compiler": {
    "name": "solc",
    "version": "0.8.0+commit.c7dfd78e.Emscripten.clang"
  },
  "schemaVersion": "3.4.3",
  "updatedAt": "2022-05-28T07:24:03.883Z",
  "networkType": "ethereum",
  "devdoc": {
    "kind": "dev",
    "methods": {
      "addManager(address,address)": {
        "params": {
          "_manager": "address of asset manager",
          "_platform": "address of market making platform (eg, Balancer)"
        }
      },
      "allowance(address,address)": {
        "details": "See {IERC20-allowance}."
      },
      "approve(address,uint256)": {
        "details": "See {IERC20-approve}. Requirements: - `spender` cannot be the zero address."
      },
      "balanceOf(address)": {
        "details": "See {IERC20-balanceOf}."
      },
      "buy(address,uint256)": {
        "params": {
          "_amount": "amount of token that is transferred from investor to this VITTA issuing contract's account for the investor",
          "_token": "address of token used by investor to buy the VITTA"
        }
      },
      "checkSupportForToken(address)": {
        "params": {
          "_token": "token that is supported for investment"
        }
      },
      "constructor": {
        "params": {
          "_cap": "investment limit for each investor",
          "_limit": "time limit for issue close",
          "_supply": "total supply of VITTA"
        }
      },
      "createSupply(uint256,uint256,uint256)": {
        "params": {
          "_cap": "investment limit for each investor",
          "_limit": "time limit for issue close ",
          "_supply": "total supply of VITTA"
        }
      },
      "decimals()": {
        "details": "Returns the number of decimals used to get its user representation. For example, if `decimals` equals `2`, a balance of `505` tokens should be displayed to a user as `5.05` (`505 / 10 ** 2`). Tokens usually opt for a value of 18, imitating the relationship between Ether and Wei. This is the value {ERC20} uses, unless this function is overridden; NOTE: This information is only used for _display_ purposes: it in no way affects any of the arithmetic of the contract, including {IERC20-balanceOf} and {IERC20-transfer}."
      },
      "decreaseAllowance(address,uint256)": {
        "details": "Atomically decreases the allowance granted to `spender` by the caller. This is an alternative to {approve} that can be used as a mitigation for problems described in {IERC20-approve}. Emits an {Approval} event indicating the updated allowance. Requirements: - `spender` cannot be the zero address. - `spender` must have allowance for the caller of at least `subtractedValue`."
      },
      "distribute(uint256,address,address)": {
        "params": {
          "_distribution": "amount of VITTA to mint and distribute pro rata to liquidity providers",
          "_manager": "address of asset manager earning the paid out return on investment ",
          "_token": "address of token in which distribution is made by market maker    "
        }
      },
      "getInvestment(address,string)": {
        "params": {
          "_investor": "address of investor",
          "_tokenName": "name of token invested by investor"
        }
      },
      "getManagerPerformance(address,address,address)": {
        "params": {
          "_manager": "address of asset manager on platform",
          "_platform": "address of platform",
          "_token": "address of token"
        }
      },
      "getManagers(address)": {
        "params": {
          "_platform": "address of market making platform"
        }
      },
      "getPlatformPerformance(address)": {
        "params": {
          "_platform": "address of market making platform"
        }
      },
      "increaseAllowance(address,uint256)": {
        "details": "Atomically increases the allowance granted to `spender` by the caller. This is an alternative to {approve} that can be used as a mitigation for problems described in {IERC20-approve}. Emits an {Approval} event indicating the updated allowance. Requirements: - `spender` cannot be the zero address."
      },
      "issue(address,string,uint256,uint256)": {
        "params": {
          "_LPToIssue": "amount of VITTA to issue to investor ",
          "_investor": "address of investor",
          "_tokenAmount": "amount of token invested in VITTA",
          "_tokenName": "name of token invested in VITTA"
        }
      },
      "name()": {
        "details": "Returns the name of the token."
      },
      "owner()": {
        "details": "Returns the address of the current owner."
      },
      "paused()": {
        "details": "Returns true if the contract is paused, and false otherwise."
      },
      "payOut(uint256,address)": {
        "params": {
          "_distribution": "amount of VITTA token to pay out    ",
          "_platform": "amount of VITTA to mint and distribute pro rata to liquidity providers"
        }
      },
      "provideLiquidity(address,address,uint256)": {
        "params": {
          "_liquidity": "amount of VITTA tokens to allot to an asset manager",
          "_manager": "address of asset manager to whom liquidity has to be provided",
          "_platform": "address of platform on which liquidity has to be provided"
        }
      },
      "registerPlatform(address,bytes32)": {
        "params": {
          "_liquidityPlatform": "address of the market making platform",
          "_platformName": "name of market making platform"
        }
      },
      "removeManager(address,address)": {
        "params": {
          "_manager": "address of asset manager",
          "_platform": "address of market making platform"
        }
      },
      "renounceOwnership()": {
        "details": "Leaves the contract without owner. It will not be possible to call `onlyOwner` functions anymore. Can only be called by the current owner. NOTE: Renouncing ownership will leave the contract without an owner, thereby removing any functionality that is only available to the owner."
      },
      "supportTokens(address,bytes32)": {
        "params": {
          "_name": "name of token supported",
          "_token": "address of token supported"
        }
      },
      "symbol()": {
        "details": "Returns the symbol of the token, usually a shorter version of the name."
      },
      "totalSupply()": {
        "details": "See {IERC20-totalSupply}."
      },
      "transfer(address,uint256)": {
        "details": "See {IERC20-transfer}. Requirements: - `recipient` cannot be the zero address. - the caller must have a balance of at least `amount`."
      },
      "transferFrom(address,address,uint256)": {
        "details": "See {IERC20-transferFrom}. Emits an {Approval} event indicating the updated allowance. This is not required by the EIP. See the note at the beginning of {ERC20}. Requirements: - `sender` and `recipient` cannot be the zero address. - `sender` must have a balance of at least `amount`. - the caller must have allowance for ``sender``'s tokens of at least `amount`."
      },
      "transferOwnership(address)": {
        "details": "Transfers ownership of the contract to a new account (`newOwner`). Can only be called by the current owner."
      }
    },
    "version": 1
  },
  "userdoc": {
    "kind": "user",
    "methods": {
      "addManager(address,address)": {
        "notice": "Adds asset manager for managing liquidity"
      },
      "buy(address,uint256)": {
        "notice": "Used by external apps (eg, exchange, wallet) to buy Verified Liquidity token "
      },
      "checkSupportForToken(address)": {
        "notice": "Checks if a specified token is supported for investing in the Verified Liquidity token"
      },
      "constructor": {
        "notice": "Constructor for the Verified Liquidity token"
      },
      "createSupply(uint256,uint256,uint256)": {
        "notice": "Creates supply of the Verified Liquidity token after initial issue with constructor defined parameters"
      },
      "distribute(uint256,address,address)": {
        "notice": "Pay out of income by Market maker contracts to VITTA Liquidity providers"
      },
      "getInvestment(address,string)": {
        "notice": "Fetches investment detail for specific investor in VITTA"
      },
      "getInvestors()": {
        "notice": "Fetches investors in VITTA"
      },
      "getManagerPerformance(address,address,address)": {
        "notice": "Fetches performance of asset managers"
      },
      "getManagers(address)": {
        "notice": "Gets asset managers for managing liquidity"
      },
      "getPlatformPerformance(address)": {
        "notice": "Fetches performance of market platform platform"
      },
      "getPlatforms()": {
        "notice": "Gets list of registered platforms"
      },
      "getSupportedTokens()": {
        "notice": "Returns list of supported tokens"
      },
      "issue(address,string,uint256,uint256)": {
        "notice": "Used by admin to issue VITTA to investors or refund paid in tokens to investors if investment cap is breached"
      },
      "pause()": {
        "notice": "Pauses this contract"
      },
      "payOut(uint256,address)": {
        "notice": "Pay out income to VITTA Liquidity providers"
      },
      "provideLiquidity(address,address,uint256)": {
        "notice": "Provides staked VITTA to asset managers based on prior liquidity consumed and commission earned "
      },
      "registerPlatform(address,bytes32)": {
        "notice": "Registers a liquidity platform (eg, DEX) where Verified Liquidity tokens can be used to underwrite investments"
      },
      "removeManager(address,address)": {
        "notice": "Removes asset manager for managing liquidity on platform"
      },
      "supportTokens(address,bytes32)": {
        "notice": "Specifies list of supported tokens that can be invested in the Verified Liquidity token"
      },
      "unpause()": {
        "notice": "Unpauses this contract"
      }
    },
    "version": 1
  }
}