{
  "contractName": "Liquidity",
  "abi": [
    {
      "inputs": [
        {
          "internalType": "uint256",
          "name": "_supply",
          "type": "uint256"
        },
        {
          "internalType": "uint256",
          "name": "_cap",
          "type": "uint256"
        },
        {
          "internalType": "uint256",
          "name": "_limit",
          "type": "uint256"
        }
      ],
      "stateMutability": "nonpayable",
      "type": "constructor"
    },
    {
      "anonymous": false,
      "inputs": [
        {
          "indexed": true,
          "internalType": "address",
          "name": "owner",
          "type": "address"
        },
        {
          "indexed": true,
          "internalType": "address",
          "name": "spender",
          "type": "address"
        },
        {
          "indexed": false,
          "internalType": "uint256",
          "name": "value",
          "type": "uint256"
        }
      ],
      "name": "Approval",
      "type": "event"
    },
    {
      "anonymous": false,
      "inputs": [
        {
          "indexed": true,
          "internalType": "address",
          "name": "previousOwner",
          "type": "address"
        },
        {
          "indexed": true,
          "internalType": "address",
          "name": "newOwner",
          "type": "address"
        }
      ],
      "name": "OwnershipTransferred",
      "type": "event"
    },
    {
      "anonymous": false,
      "inputs": [
        {
          "indexed": false,
          "internalType": "address",
          "name": "account",
          "type": "address"
        }
      ],
      "name": "Paused",
      "type": "event"
    },
    {
      "anonymous": false,
      "inputs": [
        {
          "indexed": false,
          "internalType": "address",
          "name": "investor",
          "type": "address"
        },
        {
          "indexed": false,
          "internalType": "string",
          "name": "tokenName",
          "type": "string"
        },
        {
          "indexed": false,
          "internalType": "uint256",
          "name": "tokenAmount",
          "type": "uint256"
        }
      ],
      "name": "RequestIssue",
      "type": "event"
    },
    {
      "anonymous": false,
      "inputs": [
        {
          "indexed": true,
          "internalType": "address",
          "name": "from",
          "type": "address"
        },
        {
          "indexed": true,
          "internalType": "address",
          "name": "to",
          "type": "address"
        },
        {
          "indexed": false,
          "internalType": "uint256",
          "name": "value",
          "type": "uint256"
        }
      ],
      "name": "Transfer",
      "type": "event"
    },
    {
      "anonymous": false,
      "inputs": [
        {
          "indexed": false,
          "internalType": "address",
          "name": "account",
          "type": "address"
        }
      ],
      "name": "Unpaused",
      "type": "event"
    },
    {
      "inputs": [
        {
          "internalType": "address",
          "name": "owner",
          "type": "address"
        },
        {
          "internalType": "address",
          "name": "spender",
          "type": "address"
        }
      ],
      "name": "allowance",
      "outputs": [
        {
          "internalType": "uint256",
          "name": "",
          "type": "uint256"
        }
      ],
      "stateMutability": "view",
      "type": "function",
      "constant": true
    },
    {
      "inputs": [
        {
          "internalType": "address",
          "name": "spender",
          "type": "address"
        },
        {
          "internalType": "uint256",
          "name": "amount",
          "type": "uint256"
        }
      ],
      "name": "approve",
      "outputs": [
        {
          "internalType": "bool",
          "name": "",
          "type": "bool"
        }
      ],
      "stateMutability": "nonpayable",
      "type": "function"
    },
    {
      "inputs": [
        {
          "internalType": "address",
          "name": "account",
          "type": "address"
        }
      ],
      "name": "balanceOf",
      "outputs": [
        {
          "internalType": "uint256",
          "name": "",
          "type": "uint256"
        }
      ],
      "stateMutability": "view",
      "type": "function",
      "constant": true
    },
    {
      "inputs": [],
      "name": "decimals",
      "outputs": [
        {
          "internalType": "uint8",
          "name": "",
          "type": "uint8"
        }
      ],
      "stateMutability": "view",
      "type": "function",
      "constant": true
    },
    {
      "inputs": [
        {
          "internalType": "address",
          "name": "spender",
          "type": "address"
        },
        {
          "internalType": "uint256",
          "name": "subtractedValue",
          "type": "uint256"
        }
      ],
      "name": "decreaseAllowance",
      "outputs": [
        {
          "internalType": "bool",
          "name": "",
          "type": "bool"
        }
      ],
      "stateMutability": "nonpayable",
      "type": "function"
    },
    {
      "inputs": [
        {
          "internalType": "address",
          "name": "spender",
          "type": "address"
        },
        {
          "internalType": "uint256",
          "name": "addedValue",
          "type": "uint256"
        }
      ],
      "name": "increaseAllowance",
      "outputs": [
        {
          "internalType": "bool",
          "name": "",
          "type": "bool"
        }
      ],
      "stateMutability": "nonpayable",
      "type": "function"
    },
    {
      "inputs": [],
      "name": "name",
      "outputs": [
        {
          "internalType": "string",
          "name": "",
          "type": "string"
        }
      ],
      "stateMutability": "view",
      "type": "function",
      "constant": true
    },
    {
      "inputs": [],
      "name": "owner",
      "outputs": [
        {
          "internalType": "address",
          "name": "",
          "type": "address"
        }
      ],
      "stateMutability": "view",
      "type": "function",
      "constant": true
    },
    {
      "inputs": [],
      "name": "paused",
      "outputs": [
        {
          "internalType": "bool",
          "name": "",
          "type": "bool"
        }
      ],
      "stateMutability": "view",
      "type": "function",
      "constant": true
    },
    {
      "inputs": [],
      "name": "renounceOwnership",
      "outputs": [],
      "stateMutability": "nonpayable",
      "type": "function"
    },
    {
      "inputs": [],
      "name": "symbol",
      "outputs": [
        {
          "internalType": "string",
          "name": "",
          "type": "string"
        }
      ],
      "stateMutability": "view",
      "type": "function",
      "constant": true
    },
    {
      "inputs": [],
      "name": "totalSupply",
      "outputs": [
        {
          "internalType": "uint256",
          "name": "",
          "type": "uint256"
        }
      ],
      "stateMutability": "view",
      "type": "function",
      "constant": true
    },
    {
      "inputs": [
        {
          "internalType": "address",
          "name": "recipient",
          "type": "address"
        },
        {
          "internalType": "uint256",
          "name": "amount",
          "type": "uint256"
        }
      ],
      "name": "transfer",
      "outputs": [
        {
          "internalType": "bool",
          "name": "",
          "type": "bool"
        }
      ],
      "stateMutability": "nonpayable",
      "type": "function"
    },
    {
      "inputs": [
        {
          "internalType": "address",
          "name": "sender",
          "type": "address"
        },
        {
          "internalType": "address",
          "name": "recipient",
          "type": "address"
        },
        {
          "internalType": "uint256",
          "name": "amount",
          "type": "uint256"
        }
      ],
      "name": "transferFrom",
      "outputs": [
        {
          "internalType": "bool",
          "name": "",
          "type": "bool"
        }
      ],
      "stateMutability": "nonpayable",
      "type": "function"
    },
    {
      "inputs": [
        {
          "internalType": "address",
          "name": "newOwner",
          "type": "address"
        }
      ],
      "name": "transferOwnership",
      "outputs": [],
      "stateMutability": "nonpayable",
      "type": "function"
    },
    {
      "stateMutability": "payable",
      "type": "receive",
      "payable": true
    },
    {
      "inputs": [
        {
          "internalType": "uint256",
          "name": "_supply",
          "type": "uint256"
        },
        {
          "internalType": "uint256",
          "name": "_cap",
          "type": "uint256"
        },
        {
          "internalType": "uint256",
          "name": "_limit",
          "type": "uint256"
        }
      ],
      "name": "createSupply",
      "outputs": [],
      "stateMutability": "nonpayable",
      "type": "function"
    },
    {
      "inputs": [
        {
          "internalType": "address",
          "name": "_token",
          "type": "address"
        },
        {
          "internalType": "bytes32",
          "name": "_name",
          "type": "bytes32"
        }
      ],
      "name": "supportTokens",
      "outputs": [],
      "stateMutability": "nonpayable",
      "type": "function"
    },
    {
      "inputs": [
        {
          "internalType": "address",
          "name": "_token",
          "type": "address"
        }
      ],
      "name": "checkSupportForToken",
      "outputs": [
        {
          "internalType": "bool",
          "name": "",
          "type": "bool"
        }
      ],
      "stateMutability": "view",
      "type": "function",
      "constant": true
    },
    {
      "inputs": [
        {
          "internalType": "address",
          "name": "_liquidityPlatform",
          "type": "address"
        },
        {
          "internalType": "bytes32",
          "name": "_platformName",
          "type": "bytes32"
        }
      ],
      "name": "registerPlatform",
      "outputs": [],
      "stateMutability": "nonpayable",
      "type": "function"
    },
    {
      "inputs": [],
      "name": "getPlatforms",
      "outputs": [
        {
          "components": [
            {
              "internalType": "bytes32",
              "name": "platformName",
              "type": "bytes32"
            },
            {
              "internalType": "address",
              "name": "platformAddress",
              "type": "address"
            }
          ],
          "internalType": "struct ILiquidity.platform[]",
          "name": "",
          "type": "tuple[]"
        }
      ],
      "stateMutability": "view",
      "type": "function",
      "constant": true
    },
    {
      "inputs": [
        {
          "internalType": "address",
          "name": "_platform",
          "type": "address"
        },
        {
          "internalType": "address",
          "name": "_manager",
          "type": "address"
        }
      ],
      "name": "addManager",
      "outputs": [],
      "stateMutability": "nonpayable",
      "type": "function"
    },
    {
      "inputs": [
        {
          "internalType": "address",
          "name": "_platform",
          "type": "address"
        },
        {
          "internalType": "address",
          "name": "_manager",
          "type": "address"
        }
      ],
      "name": "removeManager",
      "outputs": [],
      "stateMutability": "nonpayable",
      "type": "function"
    },
    {
      "inputs": [
        {
          "internalType": "address",
          "name": "_platform",
          "type": "address"
        }
      ],
      "name": "getManagers",
      "outputs": [
        {
          "internalType": "address[]",
          "name": "",
          "type": "address[]"
        }
      ],
      "stateMutability": "view",
      "type": "function",
      "constant": true
    },
    {
      "inputs": [
        {
          "internalType": "address",
          "name": "_token",
          "type": "address"
        },
        {
          "internalType": "uint256",
          "name": "_amount",
          "type": "uint256"
        }
      ],
      "name": "buy",
      "outputs": [],
      "stateMutability": "nonpayable",
      "type": "function"
    },
    {
      "inputs": [],
      "name": "getInvestors",
      "outputs": [
        {
          "components": [
            {
              "internalType": "string",
              "name": "assetInvested",
              "type": "string"
            },
            {
              "internalType": "address",
              "name": "investorAddress",
              "type": "address"
            }
          ],
          "internalType": "struct ILiquidity.provider[]",
          "name": "",
          "type": "tuple[]"
        }
      ],
      "stateMutability": "view",
      "type": "function",
      "constant": true
    },
    {
      "inputs": [
        {
          "internalType": "address",
          "name": "_investor",
          "type": "address"
        },
        {
          "internalType": "string",
          "name": "_tokenName",
          "type": "string"
        }
      ],
      "name": "getInvestment",
      "outputs": [
        {
          "internalType": "uint256",
          "name": "",
          "type": "uint256"
        }
      ],
      "stateMutability": "view",
      "type": "function",
      "constant": true
    },
    {
      "inputs": [
        {
          "internalType": "address",
          "name": "_investor",
          "type": "address"
        },
        {
          "internalType": "string",
          "name": "_tokenName",
          "type": "string"
        },
        {
          "internalType": "uint256",
          "name": "_tokenAmount",
          "type": "uint256"
        },
        {
          "internalType": "uint256",
          "name": "_LPToIssue",
          "type": "uint256"
        }
      ],
      "name": "issue",
      "outputs": [],
      "stateMutability": "nonpayable",
      "type": "function"
    },
    {
      "inputs": [
        {
          "internalType": "uint256",
          "name": "_toStake",
          "type": "uint256"
        }
      ],
      "name": "stake",
      "outputs": [],
      "stateMutability": "nonpayable",
      "type": "function"
    },
    {
      "inputs": [
        {
          "internalType": "uint256",
          "name": "_fromStake",
          "type": "uint256"
        }
      ],
      "name": "withdraw",
      "outputs": [],
      "stateMutability": "nonpayable",
      "type": "function"
    },
    {
      "inputs": [
        {
          "internalType": "address",
          "name": "_platform",
          "type": "address"
        },
        {
          "internalType": "address",
          "name": "_manager",
          "type": "address"
        },
        {
          "internalType": "uint256",
          "name": "_liquidity",
          "type": "uint256"
        }
      ],
      "name": "provideLiquidity",
      "outputs": [],
      "stateMutability": "nonpayable",
      "type": "function"
    },
    {
      "inputs": [
        {
          "internalType": "uint256",
          "name": "_distribution",
          "type": "uint256"
        },
        {
          "internalType": "address",
          "name": "_token",
          "type": "address"
        },
        {
          "internalType": "address",
          "name": "_manager",
          "type": "address"
        }
      ],
      "name": "distribute",
      "outputs": [],
      "stateMutability": "nonpayable",
      "type": "function"
    },
    {
      "inputs": [
        {
          "internalType": "address",
          "name": "_platform",
          "type": "address"
        }
      ],
      "name": "getPlatformPerformance",
      "outputs": [
        {
          "internalType": "uint256",
          "name": "unstakedLiquidity",
          "type": "uint256"
        },
        {
          "internalType": "uint256",
          "name": "balancePlatformLiquidity",
          "type": "uint256"
        },
        {
          "internalType": "uint256",
          "name": "platformLiquidityProvided",
          "type": "uint256"
        },
        {
          "internalType": "uint256",
          "name": "platformCommissionsEarned",
          "type": "uint256"
        }
      ],
      "stateMutability": "view",
      "type": "function",
      "constant": true
    },
    {
      "inputs": [
        {
          "internalType": "address",
          "name": "_platform",
          "type": "address"
        },
        {
          "internalType": "address",
          "name": "_token",
          "type": "address"
        },
        {
          "internalType": "address",
          "name": "_manager",
          "type": "address"
        }
      ],
      "name": "getManagerPerformance",
      "outputs": [
        {
          "internalType": "uint256",
          "name": "managerLiquidityProvided",
          "type": "uint256"
        },
        {
          "internalType": "uint256",
          "name": "managerCommissionsEarned",
          "type": "uint256"
        }
      ],
      "stateMutability": "view",
      "type": "function",
      "constant": true
    },
    {
      "inputs": [
        {
          "internalType": "uint256",
          "name": "_distribution",
          "type": "uint256"
        },
        {
          "internalType": "address",
          "name": "_platform",
          "type": "address"
        }
      ],
      "name": "payOut",
      "outputs": [],
      "stateMutability": "nonpayable",
      "type": "function"
    },
    {
      "inputs": [],
      "name": "pause",
      "outputs": [],
      "stateMutability": "nonpayable",
      "type": "function"
    },
    {
      "inputs": [],
      "name": "unpause",
      "outputs": [],
      "stateMutability": "nonpayable",
      "type": "function"
    }
  ],
  "bytecode": "0x60806040526000600b556000600c556000600d556000600e556000600f553480156200002a57600080fd5b5060405162003984380380620039848339810160408190526200004d91620002fa565b604080518082018252600881526715995c9a599a595960c21b602080830191825283518085019094526005845264564954544160d81b9084015281519192916200009a9160039162000254565b508051620000b090600490602084019062000254565b505050620000cd620000c76200011760201b60201c565b6200011b565b6005805460ff60a01b19169055620000e633846200016d565b601080546001600160a01b03191633179055600b91909155600c55506000600f556017805460ff19169055620003ca565b3390565b600580546001600160a01b038381166001600160a01b0319831681179093556040519116919082907f8be0079c531659141344cd1fd0a4f28419497f9722a3daafe3b4186f6b6457e090600090a35050565b6001600160a01b0382166200019f5760405162461bcd60e51b8152600401620001969062000328565b60405180910390fd5b620001ad600083836200024f565b8060026000828254620001c1919062000368565b90915550506001600160a01b03821660009081526020819052604081208054839290620001f090849062000368565b90915550506040516001600160a01b038316906000907fddf252ad1be2c89b69c2b068fc378daa952ba7f163c4a11628f55a4df523b3ef90620002359085906200035f565b60405180910390a36200024b600083836200024f565b5050565b505050565b82805462000262906200038d565b90600052602060002090601f016020900481019282620002865760008555620002d1565b82601f10620002a157805160ff1916838001178555620002d1565b82800160010185558215620002d1579182015b82811115620002d1578251825591602001919060010190620002b4565b50620002df929150620002e3565b5090565b5b80821115620002df5760008155600101620002e4565b6000806000606084860312156200030f578283fd5b8351925060208401519150604084015190509250925092565b6020808252601f908201527f45524332303a206d696e7420746f20746865207a65726f206164647265737300604082015260600190565b90815260200190565b600082198211156200038857634e487b7160e01b81526011600452602481fd5b500190565b600281046001821680620003a257607f821691505b60208210811415620003c457634e487b7160e01b600052602260045260246000fd5b50919050565b6135aa80620003da6000396000f3fe6080604052600436106102135760003560e01c806370a0823111610118578063a694fc3a116100a0578063dd62ed3e1161006f578063dd62ed3e14610824578063e5cc744014610844578063f2fde38b14610864578063f81f3ee714610884578063f85771b2146108a457610427565b8063a694fc3a146107a2578063a9059cbb146107c2578063b2f5a54c146107e2578063cce7ec131461080457610427565b80638da5cb5b116100e75780638da5cb5b1461070b57806395ce0af81461072d57806395d89b411461074d5780639e8b6b7f14610762578063a457c2d71461078257610427565b806370a08231146106a1578063715018a6146106c15780638456cb59146106d65780638513c619146106eb57610427565b8063313ce5671161019b578063451353f11161016a578063451353f1146105fe57806356abb19b1461061e5780635c975abb1461064c5780635d4f5b1c146106615780636ceb48b71461068157610427565b8063313ce5671461057a578063330602261461059c57806339509351146105c95780633f4ba83a146105e957610427565b80631fbe552e116101e25780631fbe552e146104c857806323b872dd146104ea57806324ef84ec1461050a5780632ceafc271461053a5780632e1a7d4d1461055a57610427565b8063050616161461042c57806306fdde031461044e578063095ea7b31461047957806318160ddd146104a657610427565b3661042757600c541561024a5742600c541161024a5760405162461bcd60e51b815260040161024190613243565b60405180910390fd5b346102675760405162461bcd60e51b81526004016102419061321c565b61026f6108c4565b1561028c5760405162461bcd60e51b8152600401610241906130f3565b60175460ff161561029c57600080fd5b6017805460ff191660011790556040517f5a903c0a34c24eaba92e7ae11cc1c39d622c4d146d5dcb777537881f0dac3599906102db9033903490612df1565b60405180910390a1336000908152601160205260409081902090516102ff90612d74565b908152604051908190036020019020546103b8576040805160808101825260059181019182526432ba3432b960d91b606082015290815233602080830191909152600a805460018101825560009190915282518051849360029093027fc65a7bb8d6351c1cf70c95a316cc6a92839c986682d98bc35f958f4883f9d2a8019261038c928492910190612975565b5060209190910151600190910180546001600160a01b0319166001600160a01b03909216919091179055505b336000908152601160205260409081902090516103ef91906103d990612d74565b90815260405190819003602001902054346108d4565b3360009081526011602052604090819020905161040b90612d74565b908152604051908190036020019020556017805460ff19169055005b600080fd5b34801561043857600080fd5b5061044c610447366004612cbb565b6108e7565b005b34801561045a57600080fd5b50610463610a57565b6040516104709190612f53565b60405180910390f35b34801561048557600080fd5b50610499610494366004612b3f565b610ae9565b6040516104709190612f48565b3480156104b257600080fd5b506104bb610b06565b60405161047091906133af565b3480156104d457600080fd5b506104dd610b0c565b6040516104709190612e74565b3480156104f657600080fd5b50610499610505366004612b04565b610bc0565b34801561051657600080fd5b5061052a610525366004612a76565b610c50565b60405161047094939291906133dd565b34801561054657600080fd5b5061044c610555366004612b3f565b610d05565b34801561056657600080fd5b5061044c610575366004612ca3565b610e0b565b34801561058657600080fd5b5061058f610ef2565b60405161047091906133f8565b3480156105a857600080fd5b506105bc6105b7366004612a76565b610ef7565b6040516104709190612e27565b3480156105d557600080fd5b506104996105e4366004612b3f565b610fad565b3480156105f557600080fd5b5061044c611001565b34801561060a57600080fd5b5061044c610619366004612cdd565b61104a565b34801561062a57600080fd5b5061063e610639366004612ac2565b611179565b6040516104709291906133cf565b34801561065857600080fd5b506104996108c4565b34801561066d57600080fd5b5061049961067c366004612a76565b61120e565b34801561068d57600080fd5b506104bb61069c366004612b68565b61123c565b3480156106ad57600080fd5b506104bb6106bc366004612a76565b6112bc565b3480156106cd57600080fd5b5061044c6112d7565b3480156106e257600080fd5b5061044c611320565b3480156106f757600080fd5b5061044c610706366004612a90565b611367565b34801561071757600080fd5b50610720611428565b6040516104709190612d85565b34801561073957600080fd5b5061044c610748366004612d01565b611437565b34801561075957600080fd5b5061046361148c565b34801561076e57600080fd5b5061044c61077d366004612b04565b61149b565b34801561078e57600080fd5b5061049961079d366004612b3f565b61166b565b3480156107ae57600080fd5b5061044c6107bd366004612ca3565b6116e4565b3480156107ce57600080fd5b506104996107dd366004612b3f565b6117ae565b3480156107ee57600080fd5b506107f76117c2565b6040516104709190612ecc565b34801561081057600080fd5b5061044c61081f366004612b3f565b6118fc565b34801561083057600080fd5b506104bb61083f366004612a90565b611ea2565b34801561085057600080fd5b5061044c61085f366004612bb4565b611ecd565b34801561087057600080fd5b5061044c61087f366004612a76565b61229a565b34801561089057600080fd5b5061044c61089f366004612b3f565b61230b565b3480156108b057600080fd5b5061044c6108bf366004612a90565b61240d565b600554600160a01b900460ff1690565b60006108e08284613458565b9392505050565b6108ef612583565b6001600160a01b0316610900611428565b6001600160a01b0316146109265760405162461bcd60e51b8152600401610241906131e7565b610937610931611428565b83612587565b6001600160a01b03811660009081526016602052604090206001015461095d90836108d4565b6001600160a01b0382166000908152601660205260408120600101919091555b600a54811015610a525760006109e860126000600a85815481106109b157634e487b7160e01b600052603260045260246000fd5b6000918252602080832060016002909302018201546001600160a01b03168452830193909352604090910190200154600d5461264f565b9050610a3d6109f5611428565b600a8481548110610a1657634e487b7160e01b600052603260045260246000fd5b60009182526020909120600160029092020101546001600160a01b0316610505848861265b565b50508080610a4a9061352d565b91505061097d565b505050565b606060038054610a66906134f2565b80601f0160208091040260200160405190810160405280929190818152602001828054610a92906134f2565b8015610adf5780601f10610ab457610100808354040283529160200191610adf565b820191906000526020600020905b815481529060010190602001808311610ac257829003601f168201915b5050505050905090565b6000610afd610af6612583565b8484612667565b50600192915050565b60025490565b6060610b16612583565b6001600160a01b0316610b27611428565b6001600160a01b031614610b4d5760405162461bcd60e51b8152600401610241906131e7565b6006805480602002602001604051908101604052809291908181526020016000905b82821015610bb75760008481526020908190206040805180820190915260028502909101805482526001908101546001600160a01b0316828401529083529092019101610b6f565b50505050905090565b6000610bcd84848461271b565b6001600160a01b038416600090815260016020526040812081610bee612583565b6001600160a01b03166001600160a01b0316815260200190815260200160002054905082811015610c315760405162461bcd60e51b81526004016102419061319f565b610c4585610c3d612583565b858403612667565b506001949350505050565b600080600080610c5e612583565b6001600160a01b0316610c6f611428565b6001600160a01b031614610c955760405162461bcd60e51b8152600401610241906131e7565b6000610ca5600d54600e54612845565b6001600160a01b03871660009081526016602052604081205491925090610cd490610ccf896112bc565b612845565b6001600160a01b03979097166000908152601660205260409020805460019091015492989096509194509092505050565b610d0d612583565b6001600160a01b0316610d1e611428565b6001600160a01b031614610d445760405162461bcd60e51b8152600401610241906131e7565b6001600160a01b038216600090815260096020526040902054610e07576040805180820182528281526001600160a01b03848116602080840182815260088054600181018255600082815296517ff3f7a9fe364faab93b216da50a3214154f22a0a2b415b23a84c8169e8b636ee360029092029182015591517ff3f7a9fe364faab93b216da50a3214154f22a0a2b415b23a84c8169e8b636ee490920180546001600160a01b031916929095169190911790935591549083526009909152919020555b5050565b610e136108c4565b15610e305760405162461bcd60e51b8152600401610241906130f3565b33600090815260126020526040902060010154811115610e625760405162461bcd60e51b81526004016102419061305f565b60175460ff1615610e7257600080fd5b6017805460ff19166001179055600d54600e548291610e9091612845565b10610ee557610ea0303383610bc0565b15610ee557610eb1600d5482612845565b600d5533600090815260126020526040902060010154610ed19082612845565b336000908152601260205260409020600101555b506017805460ff19169055565b601290565b6060610f01612583565b6001600160a01b0316610f12611428565b6001600160a01b031614610f385760405162461bcd60e51b8152600401610241906131e7565b6001600160a01b03821660009081526013602090815260409182902080548351818402810184019094528084529091830182828015610fa057602002820191906000526020600020905b81546001600160a01b03168152600190910190602001808311610f82575b505050505090505b919050565b6000610afd610fba612583565b848460016000610fc8612583565b6001600160a01b03908116825260208083019390935260409182016000908120918b1681529252902054610ffc9190613458565b612667565b611009612583565b6001600160a01b031661101a611428565b6001600160a01b0316146110405760405162461bcd60e51b8152600401610241906131e7565b611048612851565b565b3360009081526007602052604090205461106357600080fd5b6001600160a01b03821660009081526009602052604090205461108557600080fd5b61108d6108c4565b156110aa5760405162461bcd60e51b8152600401610241906130f3565b60175460ff16156110ba57600080fd5b6017805460ff191660011790553360009081526014602090815260408083206001600160a01b0385168452909152902054600d54158015906110fb57508015155b15611169573360009081526015602090815260408083206001600160a01b0387168452825280832084845290915290206001015461113990856108d4565b3360009081526015602090815260408083206001600160a01b038816845282528083208584529091529020600101555b50506017805460ff191690555050565b600080611184612583565b6001600160a01b0316611195611428565b6001600160a01b0316146111bb5760405162461bcd60e51b8152600401610241906131e7565b50506001600160a01b039283166000818152601460209081526040808320948716835293815283822054928252601581528382209490951681529284528183209083529092522080546001909101549091565b6001600160a01b0381166000908152600960205260408120541561123457506001610fa8565b506000610fa8565b6000611246612583565b6001600160a01b0316611257611428565b6001600160a01b03161461127d5760405162461bcd60e51b8152600401610241906131e7565b6001600160a01b0383166000908152601160205260409081902090516112a4908490612d58565b90815260405190819003602001902054905092915050565b6001600160a01b031660009081526020819052604090205490565b6112df612583565b6001600160a01b03166112f0611428565b6001600160a01b0316146113165760405162461bcd60e51b8152600401610241906131e7565b61104860006128c2565b611328612583565b6001600160a01b0316611339611428565b6001600160a01b03161461135f5760405162461bcd60e51b8152600401610241906131e7565b611048612914565b61136f612583565b6001600160a01b0316611380611428565b6001600160a01b0316146113a65760405162461bcd60e51b8152600401610241906131e7565b6001600160a01b03808316600090815260146020908152604080832093851683529290522054610e07576001600160a01b03808316600081815260136020908152604080832080546001810182558185528385200180549688166001600160a01b03199097168717905593835292546014825283832094835293905220555050565b6005546001600160a01b031690565b61143f612583565b6001600160a01b0316611450611428565b6001600160a01b0316146114765760405162461bcd60e51b8152600401610241906131e7565b6114803384612587565b600b91909155600c5550565b606060048054610a66906134f2565b6114a3612583565b6001600160a01b03166114b4611428565b6001600160a01b0316146114da5760405162461bcd60e51b8152600401610241906131e7565b6114e26108c4565b156114ff5760405162461bcd60e51b8152600401610241906130f3565b6001600160a01b038084166000908152601460209081526040808320938616835292905220546115415760405162461bcd60e51b815260040161024190613348565b604051637acb775760e01b81526001600160a01b03841690637acb77579061156f90849086906004016133b8565b600060405180830381600087803b15801561158957600080fd5b505af115801561159d573d6000803e3d6000fd5b505050506115ac308483610bc0565b506115b9600e54826108d4565b600e556001600160a01b0383166000908152601660205260409020546115df90826108d4565b6001600160a01b03808516600081815260166020908152604080832095909555601481528482209387168252928352838120549181526015835283812030825283528381208282529092529190205461163890836108d4565b6001600160a01b039094166000908152601560209081526040808320308452825280832093835292905220929092555050565b6000806001600061167a612583565b6001600160a01b03908116825260208083019390935260409182016000908120918816815292529020549050828110156116c65760405162461bcd60e51b815260040161024190613303565b6116da6116d1612583565b85858403612667565b5060019392505050565b6116ec6108c4565b156117095760405162461bcd60e51b8152600401610241906130f3565b336000908152601260205260409020548111156117385760405162461bcd60e51b815260040161024190613154565b60175460ff161561174857600080fd5b6017805460ff19166001179055611760333083610bc0565b15610ee557611771600d54826108d4565b600d553360009081526012602052604090205461178e9082612845565b33600090815260126020526040902090815560010154610ed190826108d4565b6000610afd6117bb612583565b848461271b565b60606117cc612583565b6001600160a01b03166117dd611428565b6001600160a01b0316146118035760405162461bcd60e51b8152600401610241906131e7565b600a805480602002602001604051908101604052809291908181526020016000905b82821015610bb75783829060005260206000209060020201604051806040016040529081600082018054611858906134f2565b80601f0160208091040260200160405190810160405280929190818152602001828054611884906134f2565b80156118d15780601f106118a6576101008083540402835291602001916118d1565b820191906000526020600020905b8154815290600101906020018083116118b457829003601f168201915b50505091835250506001918201546001600160a01b0316602091820152918352929092019101611825565b600c54156119255742600c54116119255760405162461bcd60e51b815260040161024190613243565b61192d6108c4565b1561194a5760405162461bcd60e51b8152600401610241906130f3565b6001600160a01b0382166000908152600960205260408120541561196c575060015b8015610a525760175460ff161561198257600080fd5b6017805460ff191660011790556040516323b872dd60e01b81526001600160a01b038416906323b872dd906119bf90339030908790600401612d99565b602060405180830381600087803b1580156119d957600080fd5b505af11580156119ed573d6000803e3d6000fd5b505050506040513d601f19601f82011682018060405250810190611a119190612c10565b15611e93577f5a903c0a34c24eaba92e7ae11cc1c39d622c4d146d5dcb777537881f0dac359933846001600160a01b03166306fdde036040518163ffffffff1660e01b815260040160006040518083038186803b158015611a7157600080fd5b505afa158015611a85573d6000803e3d6000fd5b505050506040513d6000823e601f3d908101601f19168201604052611aad9190810190612c30565b84604051611abd93929190612dbd565b60405180910390a13360009081526011602052604080822081516306fdde0360e01b8152915190926001600160a01b038716926306fdde039260048083019392829003018186803b158015611b1157600080fd5b505afa158015611b25573d6000803e3d6000fd5b505050506040513d6000823e601f3d908101601f19168201604052611b4d9190810190612c30565b604051611b5a9190612d58565b90815260405190819003602001902054611c755760006040518060400160405280856001600160a01b03166306fdde036040518163ffffffff1660e01b815260040160006040518083038186803b158015611bb457600080fd5b505afa158015611bc8573d6000803e3d6000fd5b505050506040513d6000823e601f3d908101601f19168201604052611bf09190810190612c30565b815233602091820152600a805460018101825560009190915282518051939450849360029092027fc65a7bb8d6351c1cf70c95a316cc6a92839c986682d98bc35f958f4883f9d2a80192611c4992849290910190612975565b5060209190910151600190910180546001600160a01b0319166001600160a01b03909216919091179055505b3360009081526011602052604080822081516306fdde0360e01b81529151611d239391926001600160a01b038816926306fdde0392600480840193829003018186803b158015611cc457600080fd5b505afa158015611cd8573d6000803e3d6000fd5b505050506040513d6000823e601f3d908101601f19168201604052611d009190810190612c30565b604051611d0d9190612d58565b90815260405190819003602001902054836108d4565b3360009081526011602052604080822081516306fdde0360e01b8152915190926001600160a01b038816926306fdde039260048083019392829003018186803b158015611d6f57600080fd5b505afa158015611d83573d6000803e3d6000fd5b505050506040513d6000823e601f3d908101601f19168201604052611dab9190810190612c30565b604051611db89190612d58565b9081526040805191829003602090810183209390935533600090815260119093528083206306fdde0360e01b83529051869391926001600160a01b038516926306fdde0392600480840193829003018186803b158015611e1757600080fd5b505afa158015611e2b573d6000803e3d6000fd5b505050506040513d6000823e601f3d908101601f19168201604052611e539190810190612c30565b604051611e609190612d58565b90815260405190819003602001902060010180546001600160a01b03929092166001600160a01b03199092169190911790555b6017805460ff19169055505050565b6001600160a01b03918216600090815260016020908152604080832093909416825291909152205490565b611ed5612583565b6001600160a01b0316611ee6611428565b6001600160a01b031614611f0c5760405162461bcd60e51b8152600401610241906131e7565b60175460ff1615611f1c57600080fd5b6017805460ff19166001179055600b54811180611f4a5750611f47611f3f610b06565b600f54612845565b81115b156120f7576001600160a01b038416600090815260116020526040908190209051611f919190611f7b908690612d58565b9081526040519081900360200190205483612845565b6001600160a01b038516600090815260116020526040908190209051611fb8908690612d58565b9081526040516020918190038201812092909255611fd891859101612d58565b604051602081830303815290604052805190602001206432ba3432b960d91b146120ba576001600160a01b038416600090815260116020526040908190209051612023908590612d58565b908152604051908190036020018120600101546323b872dd60e01b82526001600160a01b0316906323b872dd9061206290309088908790600401612d99565b602060405180830381600087803b15801561207c57600080fd5b505af1158015612090573d6000803e3d6000fd5b505050506040513d601f19601f820116820180604052508101906120b49190612c10565b506120f2565b6040516001600160a01b0385169083156108fc029084906000818181858888f193505050501580156120f0573d6000803e3d6000fd5b505b611169565b612109612102611428565b8583610bc0565b50612116600f54826108d4565b600f556001600160a01b03841660009081526012602052604090205461213c90826108d4565b6001600160a01b038516600090815260126020908152604091829020929092555161216991859101612d58565b604051602081830303815290604052805190602001206432ba3432b960d91b1461224f576001600160a01b0384166000908152601160205260409081902090516121b4908590612d58565b908152604051908190036020019020600101546001600160a01b03166323b872dd306121de611428565b856040518463ffffffff1660e01b81526004016121fd93929190612d99565b602060405180830381600087803b15801561221757600080fd5b505af115801561222b573d6000803e3d6000fd5b505050506040513d601f19601f820116820180604052508101906120f09190612c10565b6010546040516001600160a01b039091169083156108fc029084906000818181858888f19350505050158015612289573d6000803e3d6000fd5b5050506017805460ff191690555050565b6122a2612583565b6001600160a01b03166122b3611428565b6001600160a01b0316146122d95760405162461bcd60e51b8152600401610241906131e7565b6001600160a01b0381166122ff5760405162461bcd60e51b815260040161024190612fd7565b612308816128c2565b50565b612313612583565b6001600160a01b0316612324611428565b6001600160a01b03161461234a5760405162461bcd60e51b8152600401610241906131e7565b6001600160a01b038216600090815260076020526040902054610e07576040805180820182529182526001600160a01b03928316602080840182815260068054600181018255600082815296517ff652222313e28459528d920b65115c16c04f3efc82aaedc97be59f3f377c0d3f60029092029182015591517ff652222313e28459528d920b65115c16c04f3efc82aaedc97be59f3f377c0d4090920180546001600160a01b031916929097169190911790955593549083526007909352902055565b612415612583565b6001600160a01b0316612426611428565b6001600160a01b03161461244c5760405162461bcd60e51b8152600401610241906131e7565b6001600160a01b0380831660009081526014602090815260408083209385168352929052205415610e075760005b6001600160a01b038316600090815260136020526040902054811015612556576001600160a01b038381166000908152601360205260409020805491841691839081106124d757634e487b7160e01b600052603260045260246000fd5b6000918252602090912001546001600160a01b03161415612544576001600160a01b038316600090815260136020526040902080548290811061252a57634e487b7160e01b600052603260045260246000fd5b600091825260209091200180546001600160a01b03191690555b8061254e8161352d565b91505061247a565b506001600160a01b0380831660009081526014602090815260408083209385168352929052908120555050565b3390565b6001600160a01b0382166125ad5760405162461bcd60e51b815260040161024190613378565b6125b960008383610a52565b80600260008282546125cb9190613458565b90915550506001600160a01b038216600090815260208190526040812080548392906125f8908490613458565b90915550506040516001600160a01b038316906000907fddf252ad1be2c89b69c2b068fc378daa952ba7f163c4a11628f55a4df523b3ef9061263b9085906133af565b60405180910390a3610e0760008383610a52565b60006108e08284613470565b60006108e08284613490565b6001600160a01b03831661268d5760405162461bcd60e51b8152600401610241906132bf565b6001600160a01b0382166126b35760405162461bcd60e51b81526004016102419061301d565b6001600160a01b0380841660008181526001602090815260408083209487168084529490915290819020849055517f8c5be1e5ebec7d5bd14f71427d1e84f3dd0314c0f7b2291e5b200ac8c7c3b9259061270e9085906133af565b60405180910390a3505050565b6001600160a01b0383166127415760405162461bcd60e51b81526004016102419061327a565b6001600160a01b0382166127675760405162461bcd60e51b815260040161024190612f66565b612772838383610a52565b6001600160a01b038316600090815260208190526040902054818110156127ab5760405162461bcd60e51b8152600401610241906130ad565b6001600160a01b038085166000908152602081905260408082208585039055918516815290812080548492906127e2908490613458565b92505081905550826001600160a01b0316846001600160a01b03167fddf252ad1be2c89b69c2b068fc378daa952ba7f163c4a11628f55a4df523b3ef8460405161282c91906133af565b60405180910390a361283f848484610a52565b50505050565b60006108e082846134af565b6128596108c4565b6128755760405162461bcd60e51b815260040161024190612fa9565b6005805460ff60a01b191690557f5db9ee0a495bf2e6ff9c91a7834c1ba4fdd244a5e8aa4e537bd38aeae4b073aa6128ab612583565b6040516128b89190612d85565b60405180910390a1565b600580546001600160a01b038381166001600160a01b0319831681179093556040519116919082907f8be0079c531659141344cd1fd0a4f28419497f9722a3daafe3b4186f6b6457e090600090a35050565b61291c6108c4565b156129395760405162461bcd60e51b81526004016102419061312a565b6005805460ff60a01b1916600160a01b1790557f62e78cea01bee320cd4e420270b5ea74000d11b0c9f74754ebdbfc544b05a2586128ab612583565b828054612981906134f2565b90600052602060002090601f0160209004810192826129a357600085556129e9565b82601f106129bc57805160ff19168380011785556129e9565b828001600101855582156129e9579182015b828111156129e95782518255916020019190600101906129ce565b506129f59291506129f9565b5090565b5b808211156129f557600081556001016129fa565b80356001600160a01b0381168114610fa857600080fd5b600082601f830112612a35578081fd5b8135612a48612a4382613430565b613406565b818152846020838601011115612a5c578283fd5b816020850160208301379081016020019190915292915050565b600060208284031215612a87578081fd5b6108e082612a0e565b60008060408385031215612aa2578081fd5b612aab83612a0e565b9150612ab960208401612a0e565b90509250929050565b600080600060608486031215612ad6578081fd5b612adf84612a0e565b9250612aed60208501612a0e565b9150612afb60408501612a0e565b90509250925092565b600080600060608486031215612b18578283fd5b612b2184612a0e565b9250612b2f60208501612a0e565b9150604084013590509250925092565b60008060408385031215612b51578182fd5b612b5a83612a0e565b946020939093013593505050565b60008060408385031215612b7a578182fd5b612b8383612a0e565b9150602083013567ffffffffffffffff811115612b9e578182fd5b612baa85828601612a25565b9150509250929050565b60008060008060808587031215612bc9578081fd5b612bd285612a0e565b9350602085013567ffffffffffffffff811115612bed578182fd5b612bf987828801612a25565b949794965050505060408301359260600135919050565b600060208284031215612c21578081fd5b815180151581146108e0578182fd5b600060208284031215612c41578081fd5b815167ffffffffffffffff811115612c57578182fd5b8201601f81018413612c67578182fd5b8051612c75612a4382613430565b818152856020838501011115612c89578384fd5b612c9a8260208301602086016134c6565b95945050505050565b600060208284031215612cb4578081fd5b5035919050565b60008060408385031215612ccd578182fd5b82359150612ab960208401612a0e565b600080600060608486031215612cf1578283fd5b83359250612aed60208501612a0e565b600080600060608486031215612d15578081fd5b505081359360208301359350604090920135919050565b60008151808452612d448160208601602086016134c6565b601f01601f19169290920160200192915050565b60008251612d6a8184602087016134c6565b9190910192915050565b6432ba3432b960d91b815260050190565b6001600160a01b0391909116815260200190565b6001600160a01b039384168152919092166020820152604081019190915260600190565b6001600160a01b0384168152606060208201819052600090612de190830185612d2c565b9050826040830152949350505050565b6001600160a01b039290921682526060602083018190526005908301526432ba3432b960d91b6080830152604082015260a00190565b6020808252825182820181905260009190848201906040850190845b81811015612e685783516001600160a01b031683529284019291840191600101612e43565b50909695505050505050565b602080825282518282018190526000919060409081850190868401855b82811015612ebf578151805185528601516001600160a01b0316868501529284019290850190600101612e91565b5091979650505050505050565b60208082528251828201819052600091906040908185019080840286018301878501865b83811015612f3a57888303603f1901855281518051878552612f1488860182612d2c565b918901516001600160a01b03169489019490945294870194925090860190600101612ef0565b509098975050505050505050565b901515815260200190565b6000602082526108e06020830184612d2c565b60208082526023908201527f45524332303a207472616e7366657220746f20746865207a65726f206164647260408201526265737360e81b606082015260800190565b60208082526014908201527314185d5cd8589b194e881b9bdd081c185d5cd95960621b604082015260600190565b60208082526026908201527f4f776e61626c653a206e6577206f776e657220697320746865207a65726f206160408201526564647265737360d01b606082015260800190565b60208082526022908201527f45524332303a20617070726f766520746f20746865207a65726f206164647265604082015261737360f01b606082015260800190565b6020808252602e908201527f57697468647261776e206c6971756964697479206d6f7265207468616e20737460408201526d616b6564206c697175696469747960901b606082015260800190565b60208082526026908201527f45524332303a207472616e7366657220616d6f756e7420657863656564732062604082015265616c616e636560d01b606082015260800190565b60208082526018908201527f436f6e747261637420696e207061757365642073746174650000000000000000604082015260600190565b60208082526010908201526f14185d5cd8589b194e881c185d5cd95960821b604082015260600190565b6020808252602b908201527f5374616b6564206c6971756964697479206d6f7265207468616e20697373756560408201526a64206c697175696469747960a81b606082015260800190565b60208082526028908201527f45524332303a207472616e7366657220616d6f756e74206578636565647320616040820152676c6c6f77616e636560c01b606082015260800190565b6020808252818101527f4f776e61626c653a2063616c6c6572206973206e6f7420746865206f776e6572604082015260600190565b6020808252600d908201526c16995c9bc8195d1a081cd95b9d609a1b604082015260600190565b6020808252601c908201527f537562736372697074696f6e2077696e646f7720627265616368656400000000604082015260600190565b60208082526025908201527f45524332303a207472616e736665722066726f6d20746865207a65726f206164604082015264647265737360d81b606082015260800190565b60208082526024908201527f45524332303a20617070726f76652066726f6d20746865207a65726f206164646040820152637265737360e01b606082015260800190565b60208082526025908201527f45524332303a2064656372656173656420616c6c6f77616e63652062656c6f77604082015264207a65726f60d81b606082015260800190565b60208082526016908201527513585b9859d95c88191bd95cc81b9bdd08195e1a5cdd60521b604082015260600190565b6020808252601f908201527f45524332303a206d696e7420746f20746865207a65726f206164647265737300604082015260600190565b90815260200190565b9182526001600160a01b0316602082015260400190565b918252602082015260400190565b93845260208401929092526040830152606082015260800190565b60ff91909116815260200190565b60405181810167ffffffffffffffff811182821017156134285761342861355e565b604052919050565b600067ffffffffffffffff82111561344a5761344a61355e565b50601f01601f191660200190565b6000821982111561346b5761346b613548565b500190565b60008261348b57634e487b7160e01b81526012600452602481fd5b500490565b60008160001904831182151516156134aa576134aa613548565b500290565b6000828210156134c1576134c1613548565b500390565b60005b838110156134e15781810151838201526020016134c9565b8381111561283f5750506000910152565b60028104600182168061350657607f821691505b6020821081141561352757634e487b7160e01b600052602260045260246000fd5b50919050565b600060001982141561354157613541613548565b5060010190565b634e487b7160e01b600052601160045260246000fd5b634e487b7160e01b600052604160045260246000fdfea2646970667358221220fd9a58b566b041e36f56b993ecf565ecd795a630108126de4c7f17aa81d558a764736f6c63430008000033",
  "immutableReferences": {},
  "source": "// Verified Liquidity token \r\n// (c) Kallol Borah, 2021\r\n\r\n//\"SPDX-License-Identifier: UNLICENSED\"\r\n\r\npragma solidity 0.8.0;\r\n\r\nimport \"@openzeppelin/contracts/access/Ownable.sol\";\r\nimport \"@openzeppelin/contracts/security/Pausable.sol\";\r\n\r\nimport \"@openzeppelin/contracts/token/ERC20/ERC20.sol\";\r\nimport \"@openzeppelin/contracts/token/ERC20/IERC20.sol\";\r\nimport \"@openzeppelin/contracts/utils/math/SafeMath.sol\";\r\n\r\nimport \"./interfaces/IMarketMaker.sol\";\r\nimport \"./interfaces/ILiquidity.sol\";\r\n\r\ncontract Liquidity is ERC20, Ownable, Pausable {\r\n\r\n    using SafeMath for uint256;\r\n\r\n    ILiquidity.platform[] private platforms;\r\n    mapping(address => uint256) private platformIndex;\r\n\r\n    ILiquidity.token[] private tokens;\r\n    mapping(address => uint256) private tokenIndex;\r\n    \r\n    ILiquidity.provider[] private LPs;\r\n\r\n    uint256 investmentCap=0;\r\n    uint256 timeLimit=0;\r\n    \r\n    uint256 totalStaked=0;\r\n    uint256 totalLiquidity=0;\r\n    uint256 totalIssued=0;\r\n\r\n    address payable verified;\r\n\r\n    struct investment{\r\n        uint256 tokenAmount;\r\n        address tokenAddress;\r\n    }\r\n\r\n    struct liquidity{\r\n        uint256 issued;\r\n        uint256 staked;\r\n    }\r\n\r\n    struct performance{\r\n        uint256 liquidityProvided;\r\n        uint256 commissionsEarned;\r\n    }\r\n\r\n    // mapping investor to invested tokens\r\n    mapping(address => mapping(string => investment)) private investors;\r\n    // mapping investor to liquidity tokens issued and staked\r\n    mapping(address => liquidity) private stakes;    \r\n    // mapping platform to asset managers on it\r\n    mapping(address => address[]) private managers; \r\n    // mapping platform to asset manager's position in it\r\n    mapping(address => mapping(address => uint256)) private managerIndex;\r\n    // mapping platform to address of token distributed by manager to asset manager index to performance of liquidity provided\r\n    mapping(address => mapping(address => mapping(uint256 => performance))) private managerRoi;\r\n    // mapping platform to performance\r\n    mapping(address => performance) private platformRoi;\r\n\r\n    //mutex\r\n    bool lock;\r\n\r\n    event RequestIssue(address investor, string tokenName, uint256 tokenAmount);\r\n    \r\n    /**\r\n        Constructor for the Verified Liquidity token\r\n        @param  _supply total supply of VITTA\r\n        @param  _cap    investment limit for each investor\r\n        @param  _limit  time limit for issue close\r\n     */\r\n    constructor(uint256 _supply, uint256 _cap, uint256 _limit) \r\n        ERC20(\"Verified\", \"VITTA\"){\r\n        _mint(msg.sender, _supply);\r\n        verified = payable(msg.sender);\r\n        investmentCap = _cap;\r\n        timeLimit = _limit;\r\n        totalIssued = 0;\r\n        lock = false;\r\n    }\r\n\r\n    /**\r\n        Creates supply of the Verified Liquidity token after initial issue with constructor defined parameters\r\n        @param  _supply total supply of VITTA\r\n        @param  _cap    investment limit for each investor\r\n        @param  _limit  time limit for issue close \r\n     */\r\n    function createSupply(uint256 _supply, uint256 _cap, uint256 _limit) onlyOwner external {\r\n        _mint(msg.sender, _supply);\r\n        investmentCap = _cap;\r\n        timeLimit = _limit;\r\n    }\r\n\r\n    /**\r\n        Specifies list of supported tokens that can be invested in the Verified Liquidity token\r\n        @param  _token  address of token supported\r\n        @param  _name   name of token supported\r\n     */\r\n    function supportTokens(address _token, bytes32 _name) onlyOwner external {\r\n        if(tokenIndex[_token]==0){\r\n            ILiquidity.token memory t = ILiquidity.token ({\r\n                tokenName: _name,\r\n                tokenAddress: _token\r\n            });\r\n            tokens.push(t);\r\n            tokenIndex[_token] = tokens.length;\r\n        }\r\n    }\r\n\r\n    /**\r\n        Checks if a specified token is supported for investing in the Verified Liquidity token\r\n        @param  _token  token that is supported for investment\r\n     */\r\n    function checkSupportForToken(address _token) external view returns(bool){\r\n        if(tokenIndex[_token]>0)\r\n            return true;\r\n        else\r\n            return false;\r\n    }\r\n\r\n    /**\r\n        Registers a liquidity platform (eg, DEX) where Verified Liquidity tokens can be used to underwrite investments\r\n        @param  _liquidityPlatform  address of the market making platform\r\n        @param  _platformName       name of market making platform\r\n     */\r\n    function registerPlatform(address _liquidityPlatform, bytes32 _platformName) onlyOwner external {\r\n        if(platformIndex[_liquidityPlatform]==0){\r\n            ILiquidity.platform memory p = ILiquidity.platform({\r\n                platformName: _platformName,\r\n                platformAddress: _liquidityPlatform\r\n            });\r\n            platforms.push(p);\r\n            platformIndex[_liquidityPlatform] = platforms.length;\r\n        }\r\n    }\r\n    \r\n    /**\r\n        Gets list of registered platforms\r\n     */\r\n    function getPlatforms() onlyOwner external view returns(ILiquidity.platform[] memory){\r\n        return platforms;\r\n    }\r\n\r\n    /**\r\n        Adds asset manager for managing liquidity\r\n        @param  _platform   address of market making platform (eg, Balancer)\r\n        @param  _manager    address of asset manager\r\n     */\r\n    function addManager(address _platform, address _manager) onlyOwner external{\r\n        if(managerIndex[_platform][_manager]==0){\r\n            managers[_platform].push(_manager);\r\n            managerIndex[_platform][_manager] = managers[_platform].length;\r\n        }\r\n    } \r\n\r\n    /**\r\n        Removes asset manager for managing liquidity on platform\r\n        @param  _platform   address of market making platform\r\n        @param  _manager    address of asset manager\r\n     */\r\n    function removeManager(address _platform, address _manager) onlyOwner external{\r\n        if(managerIndex[_platform][_manager]!=0){\r\n            for(uint i=0; i<managers[_platform].length; i++){\r\n                if(managers[_platform][i]==_manager)\r\n                    delete managers[_platform][i];\r\n            }\r\n            managerIndex[_platform][_manager] = 0;\r\n        }\r\n    }\r\n\r\n    /**\r\n        Gets asset managers for managing liquidity\r\n        @param  _platform   address of market making platform\r\n     */\r\n    function getManagers(address _platform) onlyOwner external view returns(address[] memory){\r\n        return managers[_platform];\r\n    }\r\n\r\n    /**\r\n        Receiver of ether invested in the Verified Liquidity token\r\n     */\r\n    receive() external payable{\r\n        if(timeLimit!=0)\r\n            require(timeLimit > block.timestamp, \"Subscription window breached\");\r\n        //ether paid in\r\n        require(msg.value !=0, \"Zero eth sent\");\r\n        //contract must not be paused\r\n        require(paused() == false, \"Contract in paused state\");\r\n        //block reentrants\r\n        require(!lock);\r\n        lock = true;\r\n        //issue liquidity token\r\n        emit RequestIssue(msg.sender, \"ether\", msg.value);\r\n        if(investors[msg.sender][\"ether\"].tokenAmount==0){\r\n            ILiquidity.provider memory lp = ILiquidity.provider({\r\n                assetInvested: string(\"ether\"),\r\n                investorAddress: msg.sender\r\n            });\r\n            LPs.push(lp);\r\n        }\r\n        investors[msg.sender][\"ether\"].tokenAmount = SafeMath.add(investors[msg.sender][\"ether\"].tokenAmount, msg.value);\r\n        lock = false;\r\n    }\r\n\r\n    /**\r\n        Used by external apps (eg, exchange, wallet) to buy Verified Liquidity token \r\n        @param  _token  address of token used by investor to buy the VITTA\r\n        @param  _amount amount of token that is transferred from investor to this VITTA issuing contract's account for the investor\r\n     */\r\n    function buy(address _token, uint256 _amount) external {\r\n        if(timeLimit!=0)\r\n            require(timeLimit > block.timestamp, \"Subscription window breached\");\r\n        require(paused() == false, \"Contract in paused state\");\r\n        bool found = false;\r\n        if(tokenIndex[_token]>0)\r\n            found = true;\r\n        if(found){\r\n            require(!lock);\r\n            lock = true;\r\n            if(IERC20(_token).transferFrom(msg.sender, address(this), _amount)){\r\n                emit RequestIssue(msg.sender, ERC20(_token).name(), _amount);\r\n                if(investors[msg.sender][ERC20(_token).name()].tokenAmount==0){\r\n                    ILiquidity.provider memory lp = ILiquidity.provider({\r\n                        assetInvested: ERC20(_token).name(),\r\n                        investorAddress: msg.sender\r\n                    });\r\n                    LPs.push(lp);\r\n                }\r\n                investors[msg.sender][ERC20(_token).name()].tokenAmount = SafeMath.add(investors[msg.sender][ERC20(_token).name()].tokenAmount, _amount);\r\n                investors[msg.sender][ERC20(_token).name()].tokenAddress = _token;\r\n            }\r\n            lock = false;\r\n        }\r\n    }\r\n\r\n    /**\r\n        Fetches investors in VITTA\r\n     */\r\n    function getInvestors() onlyOwner external view returns(ILiquidity.provider[] memory){\r\n        return LPs;\r\n    }\r\n\r\n    /**\r\n        Fetches investment detail for specific investor in VITTA\r\n        @param  _investor   address of investor\r\n        @param  _tokenName  name of token invested by investor\r\n     */\r\n    function getInvestment(address _investor, string memory _tokenName) onlyOwner external view returns(uint256){\r\n        return (investors[_investor][_tokenName].tokenAmount);\r\n    }\r\n\r\n    /**\r\n        Used by admin to issue VITTA to investors or refund paid in tokens to investors if investment cap is breached\r\n        @param  _investor       address of investor\r\n        @param  _tokenName      name of token invested in VITTA\r\n        @param  _tokenAmount    amount of token invested in VITTA\r\n        @param  _LPToIssue      amount of VITTA to issue to investor\r\n     */\r\n    function issue(address _investor, string memory _tokenName, uint256 _tokenAmount, uint256 _LPToIssue) onlyOwner external {\r\n        require(!lock);\r\n        lock = true;\r\n        //If investment is outside limits, refund tokens invested back to investor\r\n        if((_LPToIssue > investmentCap) || (_LPToIssue > SafeMath.sub(totalSupply(), totalIssued))){\r\n            investors[_investor][_tokenName].tokenAmount = SafeMath.sub(investors[_investor][_tokenName].tokenAmount, _tokenAmount);\r\n            if(keccak256(abi.encodePacked(_tokenName))!=\"ether\")\r\n                IERC20(investors[_investor][_tokenName].tokenAddress).transferFrom(address(this), _investor, _tokenAmount);\r\n            else\r\n                payable(_investor).transfer(_tokenAmount);\r\n        }\r\n        //else issue VITTA to investor and transfer managed liquidity to deployer that allocates it to issuer\r\n        else{\r\n            transferFrom(owner(), _investor, _LPToIssue);  \r\n            totalIssued = SafeMath.add(totalIssued, _LPToIssue);    \r\n            stakes[_investor].issued = SafeMath.add(stakes[_investor].issued, _LPToIssue);\r\n            if(keccak256(abi.encodePacked(_tokenName))!=\"ether\")\r\n                IERC20(investors[_investor][_tokenName].tokenAddress).transferFrom(address(this), owner(), _tokenAmount);\r\n            else\r\n                (verified).transfer(_tokenAmount); \r\n        }\r\n        lock = false;\r\n    }\r\n\r\n    /**\r\n        Used by VITTA holder to stake it for providing liquidity for underwriting investments\r\n        @param  _toStake    amount of VITTA to stake\r\n     */\r\n    function stake(uint256 _toStake) external {\r\n        require(paused() == false, \"Contract in paused state\");\r\n        require(stakes[msg.sender].issued >= _toStake, \"Staked liquidity more than issued liquidity\");\r\n        require(!lock);\r\n        lock = true;\r\n        if(transferFrom(msg.sender, address(this), _toStake)){\r\n            totalStaked = SafeMath.add(totalStaked, _toStake);\r\n            stakes[msg.sender].issued = SafeMath.sub(stakes[msg.sender].issued, _toStake);\r\n            stakes[msg.sender].staked = SafeMath.add(stakes[msg.sender].staked, _toStake);\r\n        }\r\n        lock = false;\r\n    }\r\n\r\n    /**\r\n        Used by VITTA holder to withdraw staked liquidity for underwriting investments\r\n        @param  _fromStake    amount of VITTA staked\r\n     */\r\n    function withdraw(uint256 _fromStake) external {\r\n        require(paused() == false, \"Contract in paused state\");\r\n        require(stakes[msg.sender].staked >= _fromStake, \"Withdrawn liquidity more than staked liquidity\");\r\n        require(!lock);\r\n        lock = true;\r\n        if(SafeMath.sub(totalStaked, totalLiquidity) >= _fromStake){\r\n            if(transferFrom(address(this), msg.sender, _fromStake)){\r\n                totalStaked = SafeMath.sub(totalStaked, _fromStake);\r\n                stakes[msg.sender].staked = SafeMath.sub(stakes[msg.sender].staked, _fromStake);\r\n            }\r\n        }\r\n        lock = false;\r\n    }\r\n\r\n    /**\r\n        Provides staked VITTA to asset managers based on prior liquidity consumed and commission earned \r\n        @param  _platform   address of platform on which liquidity has to be provided\r\n        @param  _manager    address of asset manager to whom liquidity has to be provided\r\n        @param  _liquidity  amount of VITTA tokens to allot to an asset manager\r\n     */\r\n    function provideLiquidity(address _platform, address _manager, uint256 _liquidity) onlyOwner external {\r\n        require(paused() == false, \"Contract in paused state\");\r\n        require(managerIndex[_platform][_manager]!=0, \"Manager does not exist\");\r\n        IMarketMaker(_platform).stake(_liquidity, _manager);\r\n        transferFrom(address(this), _platform, _liquidity);\r\n        totalLiquidity = SafeMath.add(totalLiquidity, _liquidity);\r\n        platformRoi[_platform].liquidityProvided = SafeMath.add(platformRoi[_platform].liquidityProvided, _liquidity);\r\n        uint256 index = managerIndex[_platform][_manager];\r\n        managerRoi[_platform][address(this)][index].liquidityProvided = SafeMath.add(managerRoi[_platform][address(this)][index].liquidityProvided, _liquidity);\r\n    }\r\n\r\n    /**\r\n        Pay out of income by Market maker contracts to VITTA Liquidity providers\r\n        @param  _distribution   amount of VITTA to mint and distribute pro rata to liquidity providers\r\n        @param  _token          address of token in which distribution is made by market maker    \r\n        @param  _manager        address of asset manager earning the paid out return on investment \r\n     */\r\n    function distribute(uint256 _distribution, address _token, address _manager) external {\r\n        require(platformIndex[msg.sender]>0);\r\n        require(tokenIndex[_token]>0);\r\n        require(paused() == false, \"Contract in paused state\");\r\n        require(!lock);\r\n        lock = true;\r\n        uint256 index = managerIndex[msg.sender][_manager];\r\n        if(totalStaked!=0 && index!=0){\r\n            managerRoi[msg.sender][_token][index].commissionsEarned = SafeMath.add(managerRoi[msg.sender][_token][index].commissionsEarned, _distribution);\r\n        }\r\n        lock = false;\r\n    }\r\n\r\n    /**\r\n        Fetches performance of market platform platform\r\n        @param  _platform   address of market making platform\r\n     */\r\n    function getPlatformPerformance(address _platform) onlyOwner external view returns(uint256 unstakedLiquidity, \r\n                                                                                        uint256 balancePlatformLiquidity,\r\n                                                                                        uint256 platformLiquidityProvided,\r\n                                                                                        uint256 platformCommissionsEarned){\r\n        uint256 unStakedLiquidity = SafeMath.sub(totalStaked, totalLiquidity);\r\n        uint256 liquidityBalance = SafeMath.sub(platformRoi[_platform].liquidityProvided, balanceOf(_platform));\r\n        return (unStakedLiquidity, liquidityBalance, platformRoi[_platform].liquidityProvided, platformRoi[_platform].commissionsEarned);\r\n    }\r\n\r\n    /**\r\n        Fetches performance of asset managers\r\n        @param  _platform   address of platform\r\n        @param  _token      address of token\r\n        @param  _manager    address of asset manager on platform\r\n     */\r\n    function getManagerPerformance(address _platform, address _token, address _manager) onlyOwner external view returns(uint256 managerLiquidityProvided,\r\n                                                                                    uint256 managerCommissionsEarned){\r\n        uint256 index = managerIndex[_platform][_manager];                                                                                \r\n        return (managerRoi[_platform][_token][index].liquidityProvided, managerRoi[_platform][_token][index].commissionsEarned);\r\n    }\r\n\r\n    /**\r\n        Pay out income to VITTA Liquidity providers\r\n        @param  _platform       amount of VITTA to mint and distribute pro rata to liquidity providers\r\n        @param  _distribution   amount of VITTA token to pay out    \r\n     */\r\n    function payOut(uint256 _distribution, address _platform) onlyOwner external {\r\n        _mint(owner(), _distribution);\r\n        platformRoi[_platform].commissionsEarned = SafeMath.add(platformRoi[_platform].commissionsEarned, _distribution);\r\n        for(uint i=0; i<LPs.length; i++){\r\n            uint256 prorataStake = SafeMath.div(stakes[LPs[i].investorAddress].staked, totalStaked);\r\n            transferFrom(owner(), LPs[i].investorAddress, SafeMath.mul(prorataStake, _distribution));                \r\n        }\r\n    }\r\n\r\n    /**\r\n        Pauses this contract\r\n     */\r\n    function pause() onlyOwner public {\r\n        _pause();\r\n    }\r\n    \r\n    /**\r\n        Unpauses this contract\r\n     */\r\n    function unpause() onlyOwner public {\r\n        _unpause();\r\n    }\r\n\r\n}\r\n\r\n",
  "sourcePath": "D:\\Code\\verified-liquidity\\verified\\contracts\\Liquidity.sol",
  "compiler": {
    "name": "solc",
    "version": "0.8.0+commit.c7dfd78e.Emscripten.clang"
  },
  "schemaVersion": "3.4.3",
  "updatedAt": "2022-03-18T07:18:20.442Z",
  "networkType": "ethereum",
  "devdoc": {
    "kind": "dev",
    "methods": {
      "addManager(address,address)": {
        "params": {
          "_manager": "address of asset manager",
          "_platform": "address of market making platform (eg, Balancer)"
        }
      },
      "allowance(address,address)": {
        "details": "See {IERC20-allowance}."
      },
      "approve(address,uint256)": {
        "details": "See {IERC20-approve}. Requirements: - `spender` cannot be the zero address."
      },
      "balanceOf(address)": {
        "details": "See {IERC20-balanceOf}."
      },
      "buy(address,uint256)": {
        "params": {
          "_amount": "amount of token that is transferred from investor to this VITTA issuing contract's account for the investor",
          "_token": "address of token used by investor to buy the VITTA"
        }
      },
      "checkSupportForToken(address)": {
        "params": {
          "_token": "token that is supported for investment"
        }
      },
      "constructor": {
        "params": {
          "_cap": "investment limit for each investor",
          "_limit": "time limit for issue close",
          "_supply": "total supply of VITTA"
        }
      },
      "createSupply(uint256,uint256,uint256)": {
        "params": {
          "_cap": "investment limit for each investor",
          "_limit": "time limit for issue close ",
          "_supply": "total supply of VITTA"
        }
      },
      "decimals()": {
        "details": "Returns the number of decimals used to get its user representation. For example, if `decimals` equals `2`, a balance of `505` tokens should be displayed to a user as `5.05` (`505 / 10 ** 2`). Tokens usually opt for a value of 18, imitating the relationship between Ether and Wei. This is the value {ERC20} uses, unless this function is overridden; NOTE: This information is only used for _display_ purposes: it in no way affects any of the arithmetic of the contract, including {IERC20-balanceOf} and {IERC20-transfer}."
      },
      "decreaseAllowance(address,uint256)": {
        "details": "Atomically decreases the allowance granted to `spender` by the caller. This is an alternative to {approve} that can be used as a mitigation for problems described in {IERC20-approve}. Emits an {Approval} event indicating the updated allowance. Requirements: - `spender` cannot be the zero address. - `spender` must have allowance for the caller of at least `subtractedValue`."
      },
      "distribute(uint256,address,address)": {
        "params": {
          "_distribution": "amount of VITTA to mint and distribute pro rata to liquidity providers",
          "_manager": "address of asset manager earning the paid out return on investment ",
          "_token": "address of token in which distribution is made by market maker    "
        }
      },
      "getInvestment(address,string)": {
        "params": {
          "_investor": "address of investor",
          "_tokenName": "name of token invested by investor"
        }
      },
      "getManagerPerformance(address,address,address)": {
        "params": {
          "_manager": "address of asset manager on platform",
          "_platform": "address of platform",
          "_token": "address of token"
        }
      },
      "getManagers(address)": {
        "params": {
          "_platform": "address of market making platform"
        }
      },
      "getPlatformPerformance(address)": {
        "params": {
          "_platform": "address of market making platform"
        }
      },
      "increaseAllowance(address,uint256)": {
        "details": "Atomically increases the allowance granted to `spender` by the caller. This is an alternative to {approve} that can be used as a mitigation for problems described in {IERC20-approve}. Emits an {Approval} event indicating the updated allowance. Requirements: - `spender` cannot be the zero address."
      },
      "issue(address,string,uint256,uint256)": {
        "params": {
          "_LPToIssue": "amount of VITTA to issue to investor",
          "_investor": "address of investor",
          "_tokenAmount": "amount of token invested in VITTA",
          "_tokenName": "name of token invested in VITTA"
        }
      },
      "name()": {
        "details": "Returns the name of the token."
      },
      "owner()": {
        "details": "Returns the address of the current owner."
      },
      "paused()": {
        "details": "Returns true if the contract is paused, and false otherwise."
      },
      "payOut(uint256,address)": {
        "params": {
          "_distribution": "amount of VITTA token to pay out    ",
          "_platform": "amount of VITTA to mint and distribute pro rata to liquidity providers"
        }
      },
      "provideLiquidity(address,address,uint256)": {
        "params": {
          "_liquidity": "amount of VITTA tokens to allot to an asset manager",
          "_manager": "address of asset manager to whom liquidity has to be provided",
          "_platform": "address of platform on which liquidity has to be provided"
        }
      },
      "registerPlatform(address,bytes32)": {
        "params": {
          "_liquidityPlatform": "address of the market making platform",
          "_platformName": "name of market making platform"
        }
      },
      "removeManager(address,address)": {
        "params": {
          "_manager": "address of asset manager",
          "_platform": "address of market making platform"
        }
      },
      "renounceOwnership()": {
        "details": "Leaves the contract without owner. It will not be possible to call `onlyOwner` functions anymore. Can only be called by the current owner. NOTE: Renouncing ownership will leave the contract without an owner, thereby removing any functionality that is only available to the owner."
      },
      "stake(uint256)": {
        "params": {
          "_toStake": "amount of VITTA to stake"
        }
      },
      "supportTokens(address,bytes32)": {
        "params": {
          "_name": "name of token supported",
          "_token": "address of token supported"
        }
      },
      "symbol()": {
        "details": "Returns the symbol of the token, usually a shorter version of the name."
      },
      "totalSupply()": {
        "details": "See {IERC20-totalSupply}."
      },
      "transfer(address,uint256)": {
        "details": "See {IERC20-transfer}. Requirements: - `recipient` cannot be the zero address. - the caller must have a balance of at least `amount`."
      },
      "transferFrom(address,address,uint256)": {
        "details": "See {IERC20-transferFrom}. Emits an {Approval} event indicating the updated allowance. This is not required by the EIP. See the note at the beginning of {ERC20}. Requirements: - `sender` and `recipient` cannot be the zero address. - `sender` must have a balance of at least `amount`. - the caller must have allowance for ``sender``'s tokens of at least `amount`."
      },
      "transferOwnership(address)": {
        "details": "Transfers ownership of the contract to a new account (`newOwner`). Can only be called by the current owner."
      },
      "withdraw(uint256)": {
        "params": {
          "_fromStake": "amount of VITTA staked"
        }
      }
    },
    "version": 1
  },
  "userdoc": {
    "kind": "user",
    "methods": {
      "addManager(address,address)": {
        "notice": "Adds asset manager for managing liquidity"
      },
      "buy(address,uint256)": {
        "notice": "Used by external apps (eg, exchange, wallet) to buy Verified Liquidity token "
      },
      "checkSupportForToken(address)": {
        "notice": "Checks if a specified token is supported for investing in the Verified Liquidity token"
      },
      "constructor": {
        "notice": "Constructor for the Verified Liquidity token"
      },
      "createSupply(uint256,uint256,uint256)": {
        "notice": "Creates supply of the Verified Liquidity token after initial issue with constructor defined parameters"
      },
      "distribute(uint256,address,address)": {
        "notice": "Pay out of income by Market maker contracts to VITTA Liquidity providers"
      },
      "getInvestment(address,string)": {
        "notice": "Fetches investment detail for specific investor in VITTA"
      },
      "getInvestors()": {
        "notice": "Fetches investors in VITTA"
      },
      "getManagerPerformance(address,address,address)": {
        "notice": "Fetches performance of asset managers"
      },
      "getManagers(address)": {
        "notice": "Gets asset managers for managing liquidity"
      },
      "getPlatformPerformance(address)": {
        "notice": "Fetches performance of market platform platform"
      },
      "getPlatforms()": {
        "notice": "Gets list of registered platforms"
      },
      "issue(address,string,uint256,uint256)": {
        "notice": "Used by admin to issue VITTA to investors or refund paid in tokens to investors if investment cap is breached"
      },
      "pause()": {
        "notice": "Pauses this contract"
      },
      "payOut(uint256,address)": {
        "notice": "Pay out income to VITTA Liquidity providers"
      },
      "provideLiquidity(address,address,uint256)": {
        "notice": "Provides staked VITTA to asset managers based on prior liquidity consumed and commission earned "
      },
      "registerPlatform(address,bytes32)": {
        "notice": "Registers a liquidity platform (eg, DEX) where Verified Liquidity tokens can be used to underwrite investments"
      },
      "removeManager(address,address)": {
        "notice": "Removes asset manager for managing liquidity on platform"
      },
      "stake(uint256)": {
        "notice": "Used by VITTA holder to stake it for providing liquidity for underwriting investments"
      },
      "supportTokens(address,bytes32)": {
        "notice": "Specifies list of supported tokens that can be invested in the Verified Liquidity token"
      },
      "unpause()": {
        "notice": "Unpauses this contract"
      },
      "withdraw(uint256)": {
        "notice": "Used by VITTA holder to withdraw staked liquidity for underwriting investments"
      }
    },
    "version": 1
  }
}