{
  "contractName": "Liquidity",
  "abi": [
    {
      "inputs": [
        {
          "internalType": "uint256",
          "name": "_supply",
          "type": "uint256"
        },
        {
          "internalType": "uint256",
          "name": "_cap",
          "type": "uint256"
        },
        {
          "internalType": "uint256",
          "name": "_limit",
          "type": "uint256"
        }
      ],
      "stateMutability": "nonpayable",
      "type": "constructor"
    },
    {
      "anonymous": false,
      "inputs": [
        {
          "indexed": true,
          "internalType": "address",
          "name": "owner",
          "type": "address"
        },
        {
          "indexed": true,
          "internalType": "address",
          "name": "spender",
          "type": "address"
        },
        {
          "indexed": false,
          "internalType": "uint256",
          "name": "value",
          "type": "uint256"
        }
      ],
      "name": "Approval",
      "type": "event"
    },
    {
      "anonymous": false,
      "inputs": [
        {
          "indexed": true,
          "internalType": "address",
          "name": "previousOwner",
          "type": "address"
        },
        {
          "indexed": true,
          "internalType": "address",
          "name": "newOwner",
          "type": "address"
        }
      ],
      "name": "OwnershipTransferred",
      "type": "event"
    },
    {
      "anonymous": false,
      "inputs": [
        {
          "indexed": false,
          "internalType": "address",
          "name": "account",
          "type": "address"
        }
      ],
      "name": "Paused",
      "type": "event"
    },
    {
      "anonymous": false,
      "inputs": [
        {
          "indexed": false,
          "internalType": "address",
          "name": "investor",
          "type": "address"
        },
        {
          "indexed": false,
          "internalType": "string",
          "name": "tokenName",
          "type": "string"
        },
        {
          "indexed": false,
          "internalType": "uint256",
          "name": "tokenAmount",
          "type": "uint256"
        }
      ],
      "name": "RequestIssue",
      "type": "event"
    },
    {
      "anonymous": false,
      "inputs": [
        {
          "indexed": true,
          "internalType": "address",
          "name": "from",
          "type": "address"
        },
        {
          "indexed": true,
          "internalType": "address",
          "name": "to",
          "type": "address"
        },
        {
          "indexed": false,
          "internalType": "uint256",
          "name": "value",
          "type": "uint256"
        }
      ],
      "name": "Transfer",
      "type": "event"
    },
    {
      "anonymous": false,
      "inputs": [
        {
          "indexed": false,
          "internalType": "address",
          "name": "account",
          "type": "address"
        }
      ],
      "name": "Unpaused",
      "type": "event"
    },
    {
      "inputs": [
        {
          "internalType": "address",
          "name": "owner",
          "type": "address"
        },
        {
          "internalType": "address",
          "name": "spender",
          "type": "address"
        }
      ],
      "name": "allowance",
      "outputs": [
        {
          "internalType": "uint256",
          "name": "",
          "type": "uint256"
        }
      ],
      "stateMutability": "view",
      "type": "function",
      "constant": true
    },
    {
      "inputs": [
        {
          "internalType": "address",
          "name": "spender",
          "type": "address"
        },
        {
          "internalType": "uint256",
          "name": "amount",
          "type": "uint256"
        }
      ],
      "name": "approve",
      "outputs": [
        {
          "internalType": "bool",
          "name": "",
          "type": "bool"
        }
      ],
      "stateMutability": "nonpayable",
      "type": "function"
    },
    {
      "inputs": [
        {
          "internalType": "address",
          "name": "account",
          "type": "address"
        }
      ],
      "name": "balanceOf",
      "outputs": [
        {
          "internalType": "uint256",
          "name": "",
          "type": "uint256"
        }
      ],
      "stateMutability": "view",
      "type": "function",
      "constant": true
    },
    {
      "inputs": [],
      "name": "decimals",
      "outputs": [
        {
          "internalType": "uint8",
          "name": "",
          "type": "uint8"
        }
      ],
      "stateMutability": "view",
      "type": "function",
      "constant": true
    },
    {
      "inputs": [
        {
          "internalType": "address",
          "name": "spender",
          "type": "address"
        },
        {
          "internalType": "uint256",
          "name": "subtractedValue",
          "type": "uint256"
        }
      ],
      "name": "decreaseAllowance",
      "outputs": [
        {
          "internalType": "bool",
          "name": "",
          "type": "bool"
        }
      ],
      "stateMutability": "nonpayable",
      "type": "function"
    },
    {
      "inputs": [
        {
          "internalType": "address",
          "name": "spender",
          "type": "address"
        },
        {
          "internalType": "uint256",
          "name": "addedValue",
          "type": "uint256"
        }
      ],
      "name": "increaseAllowance",
      "outputs": [
        {
          "internalType": "bool",
          "name": "",
          "type": "bool"
        }
      ],
      "stateMutability": "nonpayable",
      "type": "function"
    },
    {
      "inputs": [],
      "name": "name",
      "outputs": [
        {
          "internalType": "string",
          "name": "",
          "type": "string"
        }
      ],
      "stateMutability": "view",
      "type": "function",
      "constant": true
    },
    {
      "inputs": [],
      "name": "owner",
      "outputs": [
        {
          "internalType": "address",
          "name": "",
          "type": "address"
        }
      ],
      "stateMutability": "view",
      "type": "function",
      "constant": true
    },
    {
      "inputs": [],
      "name": "paused",
      "outputs": [
        {
          "internalType": "bool",
          "name": "",
          "type": "bool"
        }
      ],
      "stateMutability": "view",
      "type": "function",
      "constant": true
    },
    {
      "inputs": [],
      "name": "renounceOwnership",
      "outputs": [],
      "stateMutability": "nonpayable",
      "type": "function"
    },
    {
      "inputs": [],
      "name": "symbol",
      "outputs": [
        {
          "internalType": "string",
          "name": "",
          "type": "string"
        }
      ],
      "stateMutability": "view",
      "type": "function",
      "constant": true
    },
    {
      "inputs": [],
      "name": "totalSupply",
      "outputs": [
        {
          "internalType": "uint256",
          "name": "",
          "type": "uint256"
        }
      ],
      "stateMutability": "view",
      "type": "function",
      "constant": true
    },
    {
      "inputs": [
        {
          "internalType": "address",
          "name": "recipient",
          "type": "address"
        },
        {
          "internalType": "uint256",
          "name": "amount",
          "type": "uint256"
        }
      ],
      "name": "transfer",
      "outputs": [
        {
          "internalType": "bool",
          "name": "",
          "type": "bool"
        }
      ],
      "stateMutability": "nonpayable",
      "type": "function"
    },
    {
      "inputs": [
        {
          "internalType": "address",
          "name": "sender",
          "type": "address"
        },
        {
          "internalType": "address",
          "name": "recipient",
          "type": "address"
        },
        {
          "internalType": "uint256",
          "name": "amount",
          "type": "uint256"
        }
      ],
      "name": "transferFrom",
      "outputs": [
        {
          "internalType": "bool",
          "name": "",
          "type": "bool"
        }
      ],
      "stateMutability": "nonpayable",
      "type": "function"
    },
    {
      "inputs": [
        {
          "internalType": "address",
          "name": "newOwner",
          "type": "address"
        }
      ],
      "name": "transferOwnership",
      "outputs": [],
      "stateMutability": "nonpayable",
      "type": "function"
    },
    {
      "stateMutability": "payable",
      "type": "receive",
      "payable": true
    },
    {
      "inputs": [
        {
          "internalType": "uint256",
          "name": "_supply",
          "type": "uint256"
        },
        {
          "internalType": "uint256",
          "name": "_cap",
          "type": "uint256"
        },
        {
          "internalType": "uint256",
          "name": "_limit",
          "type": "uint256"
        }
      ],
      "name": "createSupply",
      "outputs": [],
      "stateMutability": "nonpayable",
      "type": "function"
    },
    {
      "inputs": [
        {
          "internalType": "address",
          "name": "_token",
          "type": "address"
        },
        {
          "internalType": "bytes32",
          "name": "_name",
          "type": "bytes32"
        }
      ],
      "name": "supportTokens",
      "outputs": [],
      "stateMutability": "nonpayable",
      "type": "function"
    },
    {
      "inputs": [
        {
          "internalType": "address",
          "name": "_token",
          "type": "address"
        }
      ],
      "name": "checkSupportForToken",
      "outputs": [
        {
          "internalType": "bool",
          "name": "",
          "type": "bool"
        }
      ],
      "stateMutability": "view",
      "type": "function",
      "constant": true
    },
    {
      "inputs": [],
      "name": "getSupportedTokens",
      "outputs": [
        {
          "components": [
            {
              "internalType": "bytes32",
              "name": "tokenName",
              "type": "bytes32"
            },
            {
              "internalType": "address",
              "name": "tokenAddress",
              "type": "address"
            }
          ],
          "internalType": "struct ILiquidity.token[]",
          "name": "",
          "type": "tuple[]"
        }
      ],
      "stateMutability": "view",
      "type": "function",
      "constant": true
    },
    {
      "inputs": [
        {
          "internalType": "address",
          "name": "_liquidityPlatform",
          "type": "address"
        },
        {
          "internalType": "bytes32",
          "name": "_platformName",
          "type": "bytes32"
        }
      ],
      "name": "registerPlatform",
      "outputs": [],
      "stateMutability": "nonpayable",
      "type": "function"
    },
    {
      "inputs": [],
      "name": "getPlatforms",
      "outputs": [
        {
          "components": [
            {
              "internalType": "bytes32",
              "name": "platformName",
              "type": "bytes32"
            },
            {
              "internalType": "address",
              "name": "platformAddress",
              "type": "address"
            }
          ],
          "internalType": "struct ILiquidity.platform[]",
          "name": "",
          "type": "tuple[]"
        }
      ],
      "stateMutability": "view",
      "type": "function",
      "constant": true
    },
    {
      "inputs": [
        {
          "internalType": "address",
          "name": "_platform",
          "type": "address"
        },
        {
          "internalType": "address",
          "name": "_manager",
          "type": "address"
        }
      ],
      "name": "addManager",
      "outputs": [],
      "stateMutability": "nonpayable",
      "type": "function"
    },
    {
      "inputs": [
        {
          "internalType": "address",
          "name": "_platform",
          "type": "address"
        },
        {
          "internalType": "address",
          "name": "_manager",
          "type": "address"
        }
      ],
      "name": "removeManager",
      "outputs": [],
      "stateMutability": "nonpayable",
      "type": "function"
    },
    {
      "inputs": [
        {
          "internalType": "address",
          "name": "_platform",
          "type": "address"
        }
      ],
      "name": "getManagers",
      "outputs": [
        {
          "internalType": "address[]",
          "name": "",
          "type": "address[]"
        }
      ],
      "stateMutability": "view",
      "type": "function",
      "constant": true
    },
    {
      "inputs": [
        {
          "internalType": "address",
          "name": "_token",
          "type": "address"
        },
        {
          "internalType": "uint256",
          "name": "_amount",
          "type": "uint256"
        }
      ],
      "name": "buy",
      "outputs": [],
      "stateMutability": "nonpayable",
      "type": "function"
    },
    {
      "inputs": [],
      "name": "getInvestors",
      "outputs": [
        {
          "components": [
            {
              "internalType": "string",
              "name": "assetInvested",
              "type": "string"
            },
            {
              "internalType": "address",
              "name": "investorAddress",
              "type": "address"
            }
          ],
          "internalType": "struct ILiquidity.provider[]",
          "name": "",
          "type": "tuple[]"
        }
      ],
      "stateMutability": "view",
      "type": "function",
      "constant": true
    },
    {
      "inputs": [
        {
          "internalType": "address",
          "name": "_investor",
          "type": "address"
        },
        {
          "internalType": "string",
          "name": "_tokenName",
          "type": "string"
        }
      ],
      "name": "getInvestment",
      "outputs": [
        {
          "internalType": "uint256",
          "name": "",
          "type": "uint256"
        }
      ],
      "stateMutability": "view",
      "type": "function",
      "constant": true
    },
    {
      "inputs": [
        {
          "internalType": "address",
          "name": "_investor",
          "type": "address"
        },
        {
          "internalType": "string",
          "name": "_tokenName",
          "type": "string"
        },
        {
          "internalType": "uint256",
          "name": "_tokenAmount",
          "type": "uint256"
        },
        {
          "internalType": "uint256",
          "name": "_LPToIssue",
          "type": "uint256"
        }
      ],
      "name": "issue",
      "outputs": [],
      "stateMutability": "nonpayable",
      "type": "function"
    },
    {
      "inputs": [
        {
          "internalType": "address",
          "name": "_platform",
          "type": "address"
        },
        {
          "internalType": "address",
          "name": "_manager",
          "type": "address"
        },
        {
          "internalType": "uint256",
          "name": "_liquidity",
          "type": "uint256"
        },
        {
          "internalType": "address",
          "name": "_token",
          "type": "address"
        },
        {
          "internalType": "uint256",
          "name": "_tokenAmount",
          "type": "uint256"
        }
      ],
      "name": "provideLiquidity",
      "outputs": [],
      "stateMutability": "nonpayable",
      "type": "function"
    },
    {
      "inputs": [
        {
          "internalType": "uint256",
          "name": "_distribution",
          "type": "uint256"
        },
        {
          "internalType": "address",
          "name": "_token",
          "type": "address"
        },
        {
          "internalType": "address",
          "name": "_manager",
          "type": "address"
        }
      ],
      "name": "distribute",
      "outputs": [],
      "stateMutability": "nonpayable",
      "type": "function"
    },
    {
      "inputs": [
        {
          "internalType": "address",
          "name": "_platform",
          "type": "address"
        }
      ],
      "name": "getPlatformPerformance",
      "outputs": [
        {
          "internalType": "uint256",
          "name": "unstakedLiquidity",
          "type": "uint256"
        },
        {
          "internalType": "uint256",
          "name": "balancePlatformLiquidity",
          "type": "uint256"
        },
        {
          "internalType": "uint256",
          "name": "platformLiquidityProvided",
          "type": "uint256"
        },
        {
          "internalType": "uint256",
          "name": "platformCommissionsEarned",
          "type": "uint256"
        }
      ],
      "stateMutability": "view",
      "type": "function",
      "constant": true
    },
    {
      "inputs": [
        {
          "internalType": "address",
          "name": "_platform",
          "type": "address"
        },
        {
          "internalType": "address",
          "name": "_token",
          "type": "address"
        },
        {
          "internalType": "address",
          "name": "_manager",
          "type": "address"
        }
      ],
      "name": "getManagerPerformance",
      "outputs": [
        {
          "internalType": "uint256",
          "name": "managerLiquidityProvided",
          "type": "uint256"
        },
        {
          "internalType": "uint256",
          "name": "managerCommissionsEarned",
          "type": "uint256"
        }
      ],
      "stateMutability": "view",
      "type": "function",
      "constant": true
    },
    {
      "inputs": [
        {
          "internalType": "uint256",
          "name": "_distribution",
          "type": "uint256"
        },
        {
          "internalType": "address",
          "name": "_platform",
          "type": "address"
        }
      ],
      "name": "payOut",
      "outputs": [],
      "stateMutability": "nonpayable",
      "type": "function"
    },
    {
      "inputs": [
        {
          "internalType": "address",
          "name": "investor",
          "type": "address"
        }
      ],
      "name": "balance",
      "outputs": [
        {
          "internalType": "uint256",
          "name": "investorBalance",
          "type": "uint256"
        }
      ],
      "stateMutability": "view",
      "type": "function",
      "constant": true
    },
    {
      "inputs": [],
      "name": "pause",
      "outputs": [],
      "stateMutability": "nonpayable",
      "type": "function"
    },
    {
      "inputs": [],
      "name": "unpause",
      "outputs": [],
      "stateMutability": "nonpayable",
      "type": "function"
    }
  ],
  "bytecode": "0x60806040526000600b556000600c556000600d556000600e556000600f553480156200002a57600080fd5b5060405162003fbb38038062003fbb8339810160408190526200004d91620002de565b604080518082018252600881526715995c9a599a595960c21b602080830191825283518085019094526005845264564954544160d81b9084015281519192916200009a9160039162000238565b508051620000b090600490602084019062000238565b505050620000cd620000c7620000fb60201b60201c565b620000ff565b6005805460ff60a01b19169055620000e6338462000151565b600b91909155600c55506000600f55620003ae565b3390565b600580546001600160a01b038381166001600160a01b0319831681179093556040519116919082907f8be0079c531659141344cd1fd0a4f28419497f9722a3daafe3b4186f6b6457e090600090a35050565b6001600160a01b038216620001835760405162461bcd60e51b81526004016200017a906200030c565b60405180910390fd5b620001916000838362000233565b8060026000828254620001a591906200034c565b90915550506001600160a01b03821660009081526020819052604081208054839290620001d49084906200034c565b90915550506040516001600160a01b038316906000907fddf252ad1be2c89b69c2b068fc378daa952ba7f163c4a11628f55a4df523b3ef906200021990859062000343565b60405180910390a36200022f6000838362000233565b5050565b505050565b828054620002469062000371565b90600052602060002090601f0160209004810192826200026a5760008555620002b5565b82601f106200028557805160ff1916838001178555620002b5565b82800160010185558215620002b5579182015b82811115620002b557825182559160200191906001019062000298565b50620002c3929150620002c7565b5090565b5b80821115620002c35760008155600101620002c8565b600080600060608486031215620002f3578283fd5b8351925060208401519150604084015190509250925092565b6020808252601f908201527f45524332303a206d696e7420746f20746865207a65726f206164647265737300604082015260600190565b90815260200190565b600082198211156200036c57634e487b7160e01b81526011600452602481fd5b500190565b6002810460018216806200038657607f821691505b60208210811415620003a857634e487b7160e01b600052602260045260246000fd5b50919050565b613bfd80620003be6000396000f3fe6080604052600436106102135760003560e01c8063715018a611610118578063cb7c4c55116100a0578063e3d670d71161006f578063e3d670d7146108b3578063e5cc7440146108d3578063f2fde38b146108f3578063f81f3ee714610913578063f85771b214610933576104b4565b8063cb7c4c5514610831578063cce7ec1314610851578063d3c7c2c714610871578063dd62ed3e14610893576104b4565b806395ce0af8116100e757806395ce0af81461079a57806395d89b41146107ba578063a457c2d7146107cf578063a9059cbb146107ef578063b2f5a54c1461080f576104b4565b8063715018a61461072e5780638456cb59146107435780638513c619146107585780638da5cb5b14610778576104b4565b8063330602261161019b57806356abb19b1161016a57806356abb19b1461068b5780635c975abb146106b95780635d4f5b1c146106ce5780636ceb48b7146106ee57806370a082311461070e576104b4565b8063330602261461060957806339509351146106365780633f4ba83a14610656578063451353f11461066b576104b4565b80631fbe552e116101e25780631fbe552e1461055557806323b872dd1461057757806324ef84ec146105975780632ceafc27146105c7578063313ce567146105e7576104b4565b806305061616146104b957806306fdde03146104db578063095ea7b31461050657806318160ddd14610533576104b4565b366104b457600c541561024a5742600c541161024a5760405162461bcd60e51b815260040161024190613896565b60405180910390fd5b346102675760405162461bcd60e51b81526004016102419061386f565b61026f610953565b1561028c5760405162461bcd60e51b815260040161024190613791565b6b195d1a195c9c9958d95a5c1d60a21b60005260166020527fb3b8c7d2c1b102ad55c0edb99b20386f39cf054abae56169c4cbb4ae61d09c245460ff16156102d357600080fd5b7fb3b8c7d2c1b102ad55c0edb99b20386f39cf054abae56169c4cbb4ae61d09c24805460ff191660011790553360009081526010602052604090819020905161031b90613412565b908152604051908190036020019020546103d4576040805160808101825260059181019182526432ba3432b960d91b606082015290815233602080830191909152600a805460018101825560009190915282518051849360029093027fc65a7bb8d6351c1cf70c95a316cc6a92839c986682d98bc35f958f4883f9d2a801926103a8928492910190612fbf565b5060209190910151600190910180546001600160a01b0319166001600160a01b03909216919091179055505b3360009081526010602052604090819020905161040b91906103f590613412565b9081526040519081900360200190205434610963565b3360009081526010602052604090819020905161042790613412565b908152604051908190036020018120919091557f5a903c0a34c24eaba92e7ae11cc1c39d622c4d146d5dcb777537881f0dac359990610469903390349061348f565b60405180910390a16b195d1a195c9c9958d95a5c1d60a21b60005260166020527fb3b8c7d2c1b102ad55c0edb99b20386f39cf054abae56169c4cbb4ae61d09c24805460ff19169055005b600080fd5b3480156104c557600080fd5b506104d96104d4366004613341565b610976565b005b3480156104e757600080fd5b506104f0610b91565b6040516104fd919061363f565b60405180910390f35b34801561051257600080fd5b506105266105213660046131dd565b610c23565b6040516104fd9190613634565b34801561053f57600080fd5b50610548610c40565b6040516104fd9190613a02565b34801561056157600080fd5b5061056a610c46565b6040516104fd919061352b565b34801561058357600080fd5b5061052661059236600461314e565b610cbb565b3480156105a357600080fd5b506105b76105b23660046130c0565b610d4b565b6040516104fd9493929190613a30565b3480156105d357600080fd5b506104d96105e23660046131dd565b610e00565b3480156105f357600080fd5b506105fc610f06565b6040516104fd9190613a4b565b34801561061557600080fd5b506106296106243660046130c0565b610f0b565b6040516104fd91906134de565b34801561064257600080fd5b506105266106513660046131dd565b610fc1565b34801561066257600080fd5b506104d9611015565b34801561067757600080fd5b506104d9610686366004613363565b61105e565b34801561069757600080fd5b506106ab6106a636600461310c565b611216565b6040516104fd929190613a22565b3480156106c557600080fd5b50610526610953565b3480156106da57600080fd5b506105266106e93660046130c0565b6112ab565b3480156106fa57600080fd5b50610548610709366004613206565b6112d9565b34801561071a57600080fd5b506105486107293660046130c0565b611359565b34801561073a57600080fd5b506104d9611374565b34801561074f57600080fd5b506104d96113bd565b34801561076457600080fd5b506104d96107733660046130da565b611404565b34801561078457600080fd5b5061078d6114c5565b6040516104fd9190613423565b3480156107a657600080fd5b506104d96107b5366004613387565b6114d4565b3480156107c657600080fd5b506104f0611529565b3480156107db57600080fd5b506105266107ea3660046131dd565b611538565b3480156107fb57600080fd5b5061052661080a3660046131dd565b6115b1565b34801561081b57600080fd5b506108246115c5565b6040516104fd9190613578565b34801561083d57600080fd5b506104d961084c366004613189565b6116ff565b34801561085d57600080fd5b506104d961086c3660046131dd565b611aae565b34801561087d57600080fd5b506108866120df565b6040516104fd91906135f4565b34801561089f57600080fd5b506105486108ae3660046130da565b61214a565b3480156108bf57600080fd5b506105486108ce3660046130c0565b612175565b3480156108df57600080fd5b506104d96108ee366004613252565b612186565b3480156108ff57600080fd5b506104d961090e3660046130c0565b6124f8565b34801561091f57600080fd5b506104d961092e3660046131dd565b612569565b34801561093f57600080fd5b506104d961094e3660046130da565b61266b565b600554600160a01b900460ff1690565b600061096f8284613aab565b9392505050565b61097e612bd3565b6001600160a01b031661098f6114c5565b6001600160a01b0316146109b55760405162461bcd60e51b81526004016102419061383a565b651c185e5bdd5d60d21b60005260166020527f7444e57a0ca2660bc207c9b0be3e2ebc380f4993ebcd3576ea4772060960ec465460ff16156109f657600080fd5b651c185e5bdd5d60d21b60005260166020527f7444e57a0ca2660bc207c9b0be3e2ebc380f4993ebcd3576ea4772060960ec46805460ff19166001179055610a3e3083612bd7565b6001600160a01b038116600090815260156020526040902060010154610a649083610963565b6001600160a01b0382166000908152601560205260408120600101919091555b600a54811015610b51576000610aef60116000600a8581548110610ab857634e487b7160e01b600052603260045260246000fd5b6000918252602080832060016002909302018201546001600160a01b03168452830193909352604090910190200154600d54612c9f565b9050610b3c600a8381548110610b1557634e487b7160e01b600052603260045260246000fd5b60009182526020909120600160029092020101546001600160a01b031661080a8387612cab565b50508080610b4990613b80565b915050610a84565b5050651c185e5bdd5d60d21b6000525060166020527f7444e57a0ca2660bc207c9b0be3e2ebc380f4993ebcd3576ea4772060960ec46805460ff19169055565b606060038054610ba090613b45565b80601f0160208091040260200160405190810160405280929190818152602001828054610bcc90613b45565b8015610c195780601f10610bee57610100808354040283529160200191610c19565b820191906000526020600020905b815481529060010190602001808311610bfc57829003601f168201915b5050505050905090565b6000610c37610c30612bd3565b8484612cb7565b50600192915050565b60025490565b60606006805480602002602001604051908101604052809291908181526020016000905b82821015610cb25760008481526020908190206040805180820190915260028502909101805482526001908101546001600160a01b0316828401529083529092019101610c6a565b50505050905090565b6000610cc8848484612d6b565b6001600160a01b038416600090815260016020526040812081610ce9612bd3565b6001600160a01b03166001600160a01b0316815260200190815260200160002054905082811015610d2c5760405162461bcd60e51b8152600401610241906137f2565b610d4085610d38612bd3565b858403612cb7565b506001949350505050565b600080600080610d59612bd3565b6001600160a01b0316610d6a6114c5565b6001600160a01b031614610d905760405162461bcd60e51b81526004016102419061383a565b6000610da0600d54600e54612e8f565b6001600160a01b03871660009081526015602052604081205491925090610dcf90610dca89611359565b612e8f565b6001600160a01b03979097166000908152601560205260409020805460019091015492989096509194509092505050565b610e08612bd3565b6001600160a01b0316610e196114c5565b6001600160a01b031614610e3f5760405162461bcd60e51b81526004016102419061383a565b6001600160a01b038216600090815260096020526040902054610f02576040805180820182528281526001600160a01b03848116602080840182815260088054600181018255600082815296517ff3f7a9fe364faab93b216da50a3214154f22a0a2b415b23a84c8169e8b636ee360029092029182015591517ff3f7a9fe364faab93b216da50a3214154f22a0a2b415b23a84c8169e8b636ee490920180546001600160a01b031916929095169190911790935591549083526009909152919020555b5050565b601290565b6060610f15612bd3565b6001600160a01b0316610f266114c5565b6001600160a01b031614610f4c5760405162461bcd60e51b81526004016102419061383a565b6001600160a01b03821660009081526012602090815260409182902080548351818402810184019094528084529091830182828015610fb457602002820191906000526020600020905b81546001600160a01b03168152600190910190602001808311610f96575b505050505090505b919050565b6000610c37610fce612bd3565b848460016000610fdc612bd3565b6001600160a01b03908116825260208083019390935260409182016000908120918b16815292529020546110109190613aab565b612cb7565b61101d612bd3565b6001600160a01b031661102e6114c5565b6001600160a01b0316146110545760405162461bcd60e51b81526004016102419061383a565b61105c612e9b565b565b3360009081526007602052604090205461107757600080fd5b6001600160a01b03821660009081526009602052604090205461109957600080fd5b6110a1610953565b156110be5760405162461bcd60e51b815260040161024190613791565b696469737472696275746560b01b60005260166020527fb0b635b44c76df09d65d311ff1b4470edb9a69f5367035a3232b0d5a11405ee95460ff161561110357600080fd5b7fb0b635b44c76df09d65d311ff1b4470edb9a69f5367035a3232b0d5a11405ee9805460ff191660011790553360009081526013602090815260408083206001600160a01b0385168452909152902054600d541580159061116357508015155b156111d1573360009081526014602090815260408083206001600160a01b038716845282528083208484529091529020600101546111a19085610963565b3360009081526014602090815260408083206001600160a01b038816845282528083208584529091529020600101555b5050696469737472696275746560b01b600052505060166020527fb0b635b44c76df09d65d311ff1b4470edb9a69f5367035a3232b0d5a11405ee9805460ff19169055565b600080611221612bd3565b6001600160a01b03166112326114c5565b6001600160a01b0316146112585760405162461bcd60e51b81526004016102419061383a565b50506001600160a01b039283166000818152601360209081526040808320948716835293815283822054928252601481528382209490951681529284528183209083529092522080546001909101549091565b6001600160a01b038116600090815260096020526040812054156112d157506001610fbc565b506000610fbc565b60006112e3612bd3565b6001600160a01b03166112f46114c5565b6001600160a01b03161461131a5760405162461bcd60e51b81526004016102419061383a565b6001600160a01b0383166000908152601060205260409081902090516113419084906133f6565b90815260405190819003602001902054905092915050565b6001600160a01b031660009081526020819052604090205490565b61137c612bd3565b6001600160a01b031661138d6114c5565b6001600160a01b0316146113b35760405162461bcd60e51b81526004016102419061383a565b61105c6000612f0c565b6113c5612bd3565b6001600160a01b03166113d66114c5565b6001600160a01b0316146113fc5760405162461bcd60e51b81526004016102419061383a565b61105c612f5e565b61140c612bd3565b6001600160a01b031661141d6114c5565b6001600160a01b0316146114435760405162461bcd60e51b81526004016102419061383a565b6001600160a01b03808316600090815260136020908152604080832093851683529290522054610f02576001600160a01b03808316600081815260126020908152604080832080546001810182558185528385200180549688166001600160a01b03199097168717905593835292546013825283832094835293905220555050565b6005546001600160a01b031690565b6114dc612bd3565b6001600160a01b03166114ed6114c5565b6001600160a01b0316146115135760405162461bcd60e51b81526004016102419061383a565b61151d3384612bd7565b600b91909155600c5550565b606060048054610ba090613b45565b60008060016000611547612bd3565b6001600160a01b03908116825260208083019390935260409182016000908120918816815292529020549050828110156115935760405162461bcd60e51b815260040161024190613956565b6115a761159e612bd3565b85858403612cb7565b5060019392505050565b6000610c376115be612bd3565b8484612d6b565b60606115cf612bd3565b6001600160a01b03166115e06114c5565b6001600160a01b0316146116065760405162461bcd60e51b81526004016102419061383a565b600a805480602002602001604051908101604052809291908181526020016000905b82821015610cb2578382906000526020600020906002020160405180604001604052908160008201805461165b90613b45565b80601f016020809104026020016040519081016040528092919081815260200182805461168790613b45565b80156116d45780601f106116a9576101008083540402835291602001916116d4565b820191906000526020600020905b8154815290600101906020018083116116b757829003601f168201915b50505091835250506001918201546001600160a01b0316602091820152918352929092019101611628565b611707612bd3565b6001600160a01b03166117186114c5565b6001600160a01b03161461173e5760405162461bcd60e51b81526004016102419061383a565b686c697175696469747960b81b60005260166020527f12f5885fa87a9935e45e311927d6cabb9713d8deec1bd5119658a3f9c3d27bd55460ff161561178257600080fd5b686c697175696469747960b81b60005260166020527f12f5885fa87a9935e45e311927d6cabb9713d8deec1bd5119658a3f9c3d27bd5805460ff191660011790556117cb610953565b156117e85760405162461bcd60e51b815260040161024190613791565b6001600160a01b0380861660009081526013602090815260408083209388168352929052205461182a5760405162461bcd60e51b81526004016102419061399b565b6001600160a01b03821660009081526009602052604090205460089061185290600190613b02565b8154811061187057634e487b7160e01b600052603260045260246000fd5b9060005260206000209060020201600001546432ba3432b960d91b146119165760405163a9059cbb60e01b81526001600160a01b0383169063a9059cbb906118be90879085906004016134c5565b602060405180830381600087803b1580156118d857600080fd5b505af11580156118ec573d6000803e3d6000fd5b505050506040513d601f19601f8201168201806040525081019061191091906132ae565b5061194e565b6040516001600160a01b0385169082156108fc029083906000818181858888f1935050505015801561194c573d6000803e3d6000fd5b505b604051637acb775760e01b81526001600160a01b03861690637acb77579061197c9086908890600401613a0b565b600060405180830381600087803b15801561199657600080fd5b505af11580156119aa573d6000803e3d6000fd5b505050506119ba600e5484610963565b600e556001600160a01b0385166000908152601560205260409020546119e09084610963565b6001600160a01b038087166000818152601560209081526040808320959095556013815284822093891682529283528381205491815260148352838120308252835283812082825290925291902054611a399085610963565b6001600160a01b039096166000908152601460209081526040808320308452825280832093835292815291812096909655686c697175696469747960b81b9095525050601690925250507f12f5885fa87a9935e45e311927d6cabb9713d8deec1bd5119658a3f9c3d27bd5805460ff19169055565b600c5415611ad75742600c5411611ad75760405162461bcd60e51b815260040161024190613896565b611adf610953565b15611afc5760405162461bcd60e51b815260040161024190613791565b6001600160a01b03821660009081526009602052604081205415611b1e575060015b80156120da576262757960e81b60005260166020527fed504661a2af55b2d629cf1e6af8ae7df46823d2d4fbd752e48c55ff2e18ea575460ff1615611b6257600080fd5b6262757960e81b60005260166020527fed504661a2af55b2d629cf1e6af8ae7df46823d2d4fbd752e48c55ff2e18ea57805460ff191660011790556040516323b872dd60e01b81526001600160a01b038416906323b872dd90611bcd90339030908790600401613437565b602060405180830381600087803b158015611be757600080fd5b505af1158015611bfb573d6000803e3d6000fd5b505050506040513d601f19601f82011682018060405250810190611c1f91906132ae565b156120a1577f5a903c0a34c24eaba92e7ae11cc1c39d622c4d146d5dcb777537881f0dac359933846001600160a01b03166306fdde036040518163ffffffff1660e01b815260040160006040518083038186803b158015611c7f57600080fd5b505afa158015611c93573d6000803e3d6000fd5b505050506040513d6000823e601f3d908101601f19168201604052611cbb91908101906132ce565b84604051611ccb9392919061345b565b60405180910390a13360009081526010602052604080822081516306fdde0360e01b8152915190926001600160a01b038716926306fdde039260048083019392829003018186803b158015611d1f57600080fd5b505afa158015611d33573d6000803e3d6000fd5b505050506040513d6000823e601f3d908101601f19168201604052611d5b91908101906132ce565b604051611d6891906133f6565b90815260405190819003602001902054611e835760006040518060400160405280856001600160a01b03166306fdde036040518163ffffffff1660e01b815260040160006040518083038186803b158015611dc257600080fd5b505afa158015611dd6573d6000803e3d6000fd5b505050506040513d6000823e601f3d908101601f19168201604052611dfe91908101906132ce565b815233602091820152600a805460018101825560009190915282518051939450849360029092027fc65a7bb8d6351c1cf70c95a316cc6a92839c986682d98bc35f958f4883f9d2a80192611e5792849290910190612fbf565b5060209190910151600190910180546001600160a01b0319166001600160a01b03909216919091179055505b3360009081526010602052604080822081516306fdde0360e01b81529151611f319391926001600160a01b038816926306fdde0392600480840193829003018186803b158015611ed257600080fd5b505afa158015611ee6573d6000803e3d6000fd5b505050506040513d6000823e601f3d908101601f19168201604052611f0e91908101906132ce565b604051611f1b91906133f6565b9081526040519081900360200190205483610963565b3360009081526010602052604080822081516306fdde0360e01b8152915190926001600160a01b038816926306fdde039260048083019392829003018186803b158015611f7d57600080fd5b505afa158015611f91573d6000803e3d6000fd5b505050506040513d6000823e601f3d908101601f19168201604052611fb991908101906132ce565b604051611fc691906133f6565b9081526040805191829003602090810183209390935533600090815260109093528083206306fdde0360e01b83529051869391926001600160a01b038516926306fdde0392600480840193829003018186803b15801561202557600080fd5b505afa158015612039573d6000803e3d6000fd5b505050506040513d6000823e601f3d908101601f1916820160405261206191908101906132ce565b60405161206e91906133f6565b90815260405190819003602001902060010180546001600160a01b03929092166001600160a01b03199092169190911790555b6262757960e81b60005260166020527fed504661a2af55b2d629cf1e6af8ae7df46823d2d4fbd752e48c55ff2e18ea57805460ff191690555b505050565b606060088054806020026020016040519081016040528092919081815260200160009082821015610cb25760008481526020908190206040805180820190915260028502909101805482526001908101546001600160a01b0316828401529083529092019101610c6a565b6001600160a01b03918216600090815260016020908152604080832093909416825291909152205490565b600061218082611359565b92915050565b61218e612bd3565b6001600160a01b031661219f6114c5565b6001600160a01b0316146121c55760405162461bcd60e51b81526004016102419061383a565b64697373756560d81b60005260166020527f4b98a68c0e9a4222d5629a7c41cbb37cf7e565aa176f51e8e1fdb860de97a7eb5460ff161561220557600080fd5b64697373756560d81b60005260166020527f4b98a68c0e9a4222d5629a7c41cbb37cf7e565aa176f51e8e1fdb860de97a7eb805460ff19166001179055600b548111806122635750612260612258610c40565b600f54612e8f565b81115b1561240e576001600160a01b0384166000908152601060205260409081902090516122aa91906122949086906133f6565b9081526040519081900360200190205483612e8f565b6001600160a01b0385166000908152601060205260409081902090516122d19086906133f6565b90815260405160209181900382018120929092556122f1918591016133f6565b604051602081830303815290604052805190602001206432ba3432b960d91b146123d1576001600160a01b03841660009081526010602052604090819020905161233c9085906133f6565b9081526040519081900360200181206001015463a9059cbb60e01b82526001600160a01b03169063a9059cbb9061237990879086906004016134c5565b602060405180830381600087803b15801561239357600080fd5b505af11580156123a7573d6000803e3d6000fd5b505050506040513d601f19601f820116820180604052508101906123cb91906132ae565b50612409565b6040516001600160a01b0385169083156108fc029084906000818181858888f19350505050158015612407573d6000803e3d6000fd5b505b6124b8565b612419338583610cbb565b50612426600f5482610963565b600f556001600160a01b03841660009081526011602052604090205461244c9082610963565b6001600160a01b038516600090815260116020526040902055600d546124729082610963565b600d556001600160a01b03841660009081526011602052604090206001015461249b9082610963565b6001600160a01b0385166000908152601160205260409020600101555b505064697373756560d81b600052505060166020527f4b98a68c0e9a4222d5629a7c41cbb37cf7e565aa176f51e8e1fdb860de97a7eb805460ff19169055565b612500612bd3565b6001600160a01b03166125116114c5565b6001600160a01b0316146125375760405162461bcd60e51b81526004016102419061383a565b6001600160a01b03811661255d5760405162461bcd60e51b8152600401610241906136c3565b61256681612f0c565b50565b612571612bd3565b6001600160a01b03166125826114c5565b6001600160a01b0316146125a85760405162461bcd60e51b81526004016102419061383a565b6001600160a01b038216600090815260076020526040902054610f02576040805180820182529182526001600160a01b03928316602080840182815260068054600181018255600082815296517ff652222313e28459528d920b65115c16c04f3efc82aaedc97be59f3f377c0d3f60029092029182015591517ff652222313e28459528d920b65115c16c04f3efc82aaedc97be59f3f377c0d4090920180546001600160a01b031916929097169190911790955593549083526007909352902055565b612673612bd3565b6001600160a01b03166126846114c5565b6001600160a01b0316146126aa5760405162461bcd60e51b81526004016102419061383a565b6001600160a01b038083166000908152601360209081526040808320938516835292905290812054156120da5760005b6001600160a01b038416600090815260126020526040902054811015612bcd576001600160a01b0384811660009081526012602052604090208054918516918390811061273757634e487b7160e01b600052603260045260246000fd5b6000918252602090912001546001600160a01b03161415612988576001600160a01b03841660009081526012602052604090205461277790600190613b02565b8114156127f6576001600160a01b03841660009081526012602052604090208054829081106127b657634e487b7160e01b600052603260045260246000fd5b6000918252602080832090910180546001600160a01b03191690556001600160a01b0386811683526013825260408084209187168452915281205561297f565b6001600160a01b0384166000908152601260205260409020612819826001613aab565b8154811061283757634e487b7160e01b600052603260045260246000fd5b60009182526020808320909101546001600160a01b0387811684526012909252604090922080549190921691908390811061288257634e487b7160e01b600052603260045260246000fd5b600091825260208083209190910180546001600160a01b0319166001600160a01b039485161790559186168152601382526040808220601290935281208054600193929190859081106128e557634e487b7160e01b600052603260045260246000fd5b60009182526020808320909101546001600160a01b031683528201929092526040019020546129149190613b02565b6001600160a01b03851660009081526013602090815260408083206012909252822080549192918590811061295957634e487b7160e01b600052603260045260246000fd5b60009182526020808320909101546001600160a01b031683528201929092526040019020555b60019150612bbb565b8115612bbb576001600160a01b0384166000908152601260205260409020546129b390600190613b02565b811415612a32576001600160a01b03841660009081526012602052604090208054829081106129f257634e487b7160e01b600052603260045260246000fd5b6000918252602080832090910180546001600160a01b03191690556001600160a01b03868116835260138252604080842091871684529152812055612bbb565b6001600160a01b0384166000908152601260205260409020612a55826001613aab565b81548110612a7357634e487b7160e01b600052603260045260246000fd5b60009182526020808320909101546001600160a01b03878116845260129092526040909220805491909216919083908110612abe57634e487b7160e01b600052603260045260246000fd5b600091825260208083209190910180546001600160a01b0319166001600160a01b03948516179055918616815260138252604080822060129093528120805460019392919085908110612b2157634e487b7160e01b600052603260045260246000fd5b60009182526020808320909101546001600160a01b03168352820192909252604001902054612b509190613b02565b6001600160a01b038516600090815260136020908152604080832060129092528220805491929185908110612b9557634e487b7160e01b600052603260045260246000fd5b60009182526020808320909101546001600160a01b031683528201929092526040019020555b80612bc581613b80565b9150506126da565b50505050565b3390565b6001600160a01b038216612bfd5760405162461bcd60e51b8152600401610241906139cb565b612c09600083836120da565b8060026000828254612c1b9190613aab565b90915550506001600160a01b03821660009081526020819052604081208054839290612c48908490613aab565b90915550506040516001600160a01b038316906000907fddf252ad1be2c89b69c2b068fc378daa952ba7f163c4a11628f55a4df523b3ef90612c8b908590613a02565b60405180910390a3610f02600083836120da565b600061096f8284613ac3565b600061096f8284613ae3565b6001600160a01b038316612cdd5760405162461bcd60e51b815260040161024190613912565b6001600160a01b038216612d035760405162461bcd60e51b815260040161024190613709565b6001600160a01b0380841660008181526001602090815260408083209487168084529490915290819020849055517f8c5be1e5ebec7d5bd14f71427d1e84f3dd0314c0f7b2291e5b200ac8c7c3b92590612d5e908590613a02565b60405180910390a3505050565b6001600160a01b038316612d915760405162461bcd60e51b8152600401610241906138cd565b6001600160a01b038216612db75760405162461bcd60e51b815260040161024190613652565b612dc28383836120da565b6001600160a01b03831660009081526020819052604090205481811015612dfb5760405162461bcd60e51b81526004016102419061374b565b6001600160a01b03808516600090815260208190526040808220858503905591851681529081208054849290612e32908490613aab565b92505081905550826001600160a01b0316846001600160a01b03167fddf252ad1be2c89b69c2b068fc378daa952ba7f163c4a11628f55a4df523b3ef84604051612e7c9190613a02565b60405180910390a3612bcd8484846120da565b600061096f8284613b02565b612ea3610953565b612ebf5760405162461bcd60e51b815260040161024190613695565b6005805460ff60a01b191690557f5db9ee0a495bf2e6ff9c91a7834c1ba4fdd244a5e8aa4e537bd38aeae4b073aa612ef5612bd3565b604051612f029190613423565b60405180910390a1565b600580546001600160a01b038381166001600160a01b0319831681179093556040519116919082907f8be0079c531659141344cd1fd0a4f28419497f9722a3daafe3b4186f6b6457e090600090a35050565b612f66610953565b15612f835760405162461bcd60e51b8152600401610241906137c8565b6005805460ff60a01b1916600160a01b1790557f62e78cea01bee320cd4e420270b5ea74000d11b0c9f74754ebdbfc544b05a258612ef5612bd3565b828054612fcb90613b45565b90600052602060002090601f016020900481019282612fed5760008555613033565b82601f1061300657805160ff1916838001178555613033565b82800160010185558215613033579182015b82811115613033578251825591602001919060010190613018565b5061303f929150613043565b5090565b5b8082111561303f5760008155600101613044565b80356001600160a01b0381168114610fbc57600080fd5b600082601f83011261307f578081fd5b813561309261308d82613a83565b613a59565b8181528460208386010111156130a6578283fd5b816020850160208301379081016020019190915292915050565b6000602082840312156130d1578081fd5b61096f82613058565b600080604083850312156130ec578081fd5b6130f583613058565b915061310360208401613058565b90509250929050565b600080600060608486031215613120578081fd5b61312984613058565b925061313760208501613058565b915061314560408501613058565b90509250925092565b600080600060608486031215613162578283fd5b61316b84613058565b925061317960208501613058565b9150604084013590509250925092565b600080600080600060a086880312156131a0578081fd5b6131a986613058565b94506131b760208701613058565b9350604086013592506131cc60608701613058565b949793965091946080013592915050565b600080604083850312156131ef578182fd5b6131f883613058565b946020939093013593505050565b60008060408385031215613218578182fd5b61322183613058565b9150602083013567ffffffffffffffff81111561323c578182fd5b6132488582860161306f565b9150509250929050565b60008060008060808587031215613267578384fd5b61327085613058565b9350602085013567ffffffffffffffff81111561328b578384fd5b6132978782880161306f565b949794965050505060408301359260600135919050565b6000602082840312156132bf578081fd5b8151801515811461096f578182fd5b6000602082840312156132df578081fd5b815167ffffffffffffffff8111156132f5578182fd5b8201601f81018413613305578182fd5b805161331361308d82613a83565b818152856020838501011115613327578384fd5b613338826020830160208601613b19565b95945050505050565b60008060408385031215613353578182fd5b8235915061310360208401613058565b600080600060608486031215613377578081fd5b8335925061313760208501613058565b60008060006060848603121561339b578081fd5b505081359360208301359350604090920135919050565b600081518084526133ca816020860160208601613b19565b601f01601f19169290920160200192915050565b805182526020908101516001600160a01b0316910152565b60008251613408818460208701613b19565b9190910192915050565b6432ba3432b960d91b815260050190565b6001600160a01b0391909116815260200190565b6001600160a01b039384168152919092166020820152604081019190915260600190565b6001600160a01b038416815260606020820181905260009061347f908301856133b2565b9050826040830152949350505050565b6001600160a01b039290921682526060602083018190526005908301526432ba3432b960d91b6080830152604082015260a00190565b6001600160a01b03929092168252602082015260400190565b6020808252825182820181905260009190848201906040850190845b8181101561351f5783516001600160a01b0316835292840192918401916001016134fa565b50909695505050505050565b602080825282518282018190526000919060409081850190868401855b8281101561356b5761355b8483516133de565b9284019290850190600101613548565b5091979650505050505050565b60208082528251828201819052600091906040908185019080840286018301878501865b838110156135e657888303603f19018552815180518785526135c0888601826133b2565b918901516001600160a01b0316948901949094529487019492509086019060010161359c565b509098975050505050505050565b602080825282518282018190526000919060409081850190868401855b8281101561356b576136248483516133de565b9284019290850190600101613611565b901515815260200190565b60006020825261096f60208301846133b2565b60208082526023908201527f45524332303a207472616e7366657220746f20746865207a65726f206164647260408201526265737360e81b606082015260800190565b60208082526014908201527314185d5cd8589b194e881b9bdd081c185d5cd95960621b604082015260600190565b60208082526026908201527f4f776e61626c653a206e6577206f776e657220697320746865207a65726f206160408201526564647265737360d01b606082015260800190565b60208082526022908201527f45524332303a20617070726f766520746f20746865207a65726f206164647265604082015261737360f01b606082015260800190565b60208082526026908201527f45524332303a207472616e7366657220616d6f756e7420657863656564732062604082015265616c616e636560d01b606082015260800190565b60208082526018908201527f436f6e747261637420696e207061757365642073746174650000000000000000604082015260600190565b60208082526010908201526f14185d5cd8589b194e881c185d5cd95960821b604082015260600190565b60208082526028908201527f45524332303a207472616e7366657220616d6f756e74206578636565647320616040820152676c6c6f77616e636560c01b606082015260800190565b6020808252818101527f4f776e61626c653a2063616c6c6572206973206e6f7420746865206f776e6572604082015260600190565b6020808252600d908201526c16995c9bc8195d1a081cd95b9d609a1b604082015260600190565b6020808252601c908201527f537562736372697074696f6e2077696e646f7720627265616368656400000000604082015260600190565b60208082526025908201527f45524332303a207472616e736665722066726f6d20746865207a65726f206164604082015264647265737360d81b606082015260800190565b60208082526024908201527f45524332303a20617070726f76652066726f6d20746865207a65726f206164646040820152637265737360e01b606082015260800190565b60208082526025908201527f45524332303a2064656372656173656420616c6c6f77616e63652062656c6f77604082015264207a65726f60d81b606082015260800190565b60208082526016908201527513585b9859d95c88191bd95cc81b9bdd08195e1a5cdd60521b604082015260600190565b6020808252601f908201527f45524332303a206d696e7420746f20746865207a65726f206164647265737300604082015260600190565b90815260200190565b9182526001600160a01b0316602082015260400190565b918252602082015260400190565b93845260208401929092526040830152606082015260800190565b60ff91909116815260200190565b60405181810167ffffffffffffffff81118282101715613a7b57613a7b613bb1565b604052919050565b600067ffffffffffffffff821115613a9d57613a9d613bb1565b50601f01601f191660200190565b60008219821115613abe57613abe613b9b565b500190565b600082613ade57634e487b7160e01b81526012600452602481fd5b500490565b6000816000190483118215151615613afd57613afd613b9b565b500290565b600082821015613b1457613b14613b9b565b500390565b60005b83811015613b34578181015183820152602001613b1c565b83811115612bcd5750506000910152565b600281046001821680613b5957607f821691505b60208210811415613b7a57634e487b7160e01b600052602260045260246000fd5b50919050565b6000600019821415613b9457613b94613b9b565b5060010190565b634e487b7160e01b600052601160045260246000fd5b634e487b7160e01b600052604160045260246000fdfea26469706673582212200ce05deb1c9097016c1e7020b93d0674b82beeff7a55640111f2d9cb0f0252d764736f6c63430008000033",
  "immutableReferences": {},
  "source": "// Verified Liquidity token \r\n// (c) Kallol Borah, 2021\r\n\r\n//\"SPDX-License-Identifier: UNLICENSED\"\r\n\r\npragma solidity 0.8.0;\r\n\r\nimport \"@openzeppelin/contracts/access/Ownable.sol\";\r\nimport \"@openzeppelin/contracts/security/Pausable.sol\";\r\n\r\nimport \"@openzeppelin/contracts/token/ERC20/ERC20.sol\";\r\nimport \"@openzeppelin/contracts/token/ERC20/IERC20.sol\";\r\nimport \"@openzeppelin/contracts/utils/math/SafeMath.sol\";\r\n\r\nimport \"./interfaces/IMarketMaker.sol\";\r\nimport \"./interfaces/ILiquidity.sol\";\r\n\r\ncontract Liquidity is ERC20, Ownable, Pausable {\r\n\r\n    using SafeMath for uint256;\r\n\r\n    ILiquidity.platform[] private platforms;\r\n    mapping(address => uint256) private platformIndex;\r\n\r\n    ILiquidity.token[] private tokens;\r\n    mapping(address => uint256) private tokenIndex;\r\n    \r\n    ILiquidity.provider[] private LPs;\r\n\r\n    uint256 investmentCap=0;\r\n    uint256 timeLimit=0;\r\n    \r\n    uint256 totalStaked=0;\r\n    uint256 totalLiquidity=0;\r\n    uint256 totalIssued=0;\r\n\r\n    struct investment{\r\n        uint256 tokenAmount;\r\n        address tokenAddress;\r\n    }\r\n\r\n    struct liquidity{\r\n        uint256 issued;\r\n        uint256 staked;\r\n    }\r\n\r\n    struct performance{\r\n        uint256 liquidityProvided;\r\n        uint256 commissionsEarned;\r\n    }\r\n\r\n    // mapping investor to invested tokens\r\n    mapping(address => mapping(string => investment)) private investors;\r\n    // mapping investor to liquidity tokens issued and staked\r\n    mapping(address => liquidity) private stakes;    \r\n    // mapping platform to asset managers on it\r\n    mapping(address => address[]) private managers; \r\n    // mapping platform to asset manager's position in it\r\n    mapping(address => mapping(address => uint256)) private managerIndex;\r\n    // mapping platform to address of token distributed by manager to asset manager index to performance of liquidity provided\r\n    mapping(address => mapping(address => mapping(uint256 => performance))) private managerRoi;\r\n    // mapping platform to performance\r\n    mapping(address => performance) private platformRoi;\r\n\r\n    //mutex\r\n    mapping(bytes32 => bool) private lock;\r\n\r\n    event RequestIssue(address investor, string tokenName, uint256 tokenAmount);\r\n    \r\n    /**\r\n        Constructor for the Verified Liquidity token\r\n        @param  _supply total supply of VITTA\r\n        @param  _cap    investment limit for each investor\r\n        @param  _limit  time limit for issue close\r\n     */\r\n    constructor(uint256 _supply, uint256 _cap, uint256 _limit) \r\n        ERC20(\"Verified\", \"VITTA\"){\r\n        _mint(msg.sender, _supply);\r\n        investmentCap = _cap;\r\n        timeLimit = _limit;\r\n        totalIssued = 0;\r\n    }\r\n\r\n    /**\r\n        Creates supply of the Verified Liquidity token after initial issue with constructor defined parameters\r\n        @param  _supply total supply of VITTA\r\n        @param  _cap    investment limit for each investor\r\n        @param  _limit  time limit for issue close \r\n     */\r\n    function createSupply(uint256 _supply, uint256 _cap, uint256 _limit) onlyOwner external {\r\n        _mint(msg.sender, _supply);\r\n        investmentCap = _cap;\r\n        timeLimit = _limit;\r\n    }\r\n\r\n    /**\r\n        Specifies list of supported tokens that can be invested in the Verified Liquidity token\r\n        @param  _token  address of token supported\r\n        @param  _name   name of token supported\r\n     */\r\n    function supportTokens(address _token, bytes32 _name) onlyOwner external {\r\n        if(tokenIndex[_token]==0){\r\n            ILiquidity.token memory t = ILiquidity.token ({\r\n                tokenName: _name,\r\n                tokenAddress: _token\r\n            });\r\n            tokens.push(t);\r\n            tokenIndex[_token] = tokens.length;\r\n        }\r\n    }\r\n\r\n    /**\r\n        Checks if a specified token is supported for investing in the Verified Liquidity token\r\n        @param  _token  token that is supported for investment\r\n     */\r\n    function checkSupportForToken(address _token) external view returns(bool){\r\n        if(tokenIndex[_token]>0)\r\n            return true;\r\n        else\r\n            return false;\r\n    }\r\n\r\n    /**\r\n        Returns list of supported tokens\r\n     */\r\n    function getSupportedTokens() external view returns(ILiquidity.token[] memory){\r\n        return tokens;\r\n    }\r\n\r\n    /**\r\n        Registers a liquidity platform (eg, DEX) where Verified Liquidity tokens can be used to underwrite investments\r\n        @param  _liquidityPlatform  address of the market making platform\r\n        @param  _platformName       name of market making platform\r\n     */\r\n    function registerPlatform(address _liquidityPlatform, bytes32 _platformName) onlyOwner external {\r\n        if(platformIndex[_liquidityPlatform]==0){\r\n            ILiquidity.platform memory p = ILiquidity.platform({\r\n                platformName: _platformName,\r\n                platformAddress: _liquidityPlatform\r\n            });\r\n            platforms.push(p);\r\n            platformIndex[_liquidityPlatform] = platforms.length;\r\n        }\r\n    }\r\n    \r\n    /**\r\n        Gets list of registered platforms\r\n     */\r\n    function getPlatforms() external view returns(ILiquidity.platform[] memory){\r\n        return platforms;\r\n    }\r\n\r\n    /**\r\n        Adds asset manager for managing liquidity\r\n        @param  _platform   address of market making platform (eg, Balancer)\r\n        @param  _manager    address of asset manager\r\n     */\r\n    function addManager(address _platform, address _manager) onlyOwner external{\r\n        if(managerIndex[_platform][_manager]==0){\r\n            managers[_platform].push(_manager);\r\n            managerIndex[_platform][_manager] = managers[_platform].length;\r\n        }\r\n    } \r\n\r\n    /**\r\n        Removes asset manager for managing liquidity on platform\r\n        @param  _platform   address of market making platform\r\n        @param  _manager    address of asset manager\r\n     */\r\n    function removeManager(address _platform, address _manager) onlyOwner external{\r\n        bool found = false;\r\n        if(managerIndex[_platform][_manager]!=0){\r\n            for(uint i=0; i<managers[_platform].length; i++){\r\n                if(managers[_platform][i]==_manager){\r\n                    if(i==managers[_platform].length-1){\r\n                       delete managers[_platform][i];\r\n                       managerIndex[_platform][_manager] = 0;\r\n                    }\r\n                    else{\r\n                       managers[_platform][i]=managers[_platform][i+1];\r\n                       managerIndex[_platform][managers[_platform][i]] = managerIndex[_platform][managers[_platform][i]] - 1;\r\n                    }\r\n                    found = true;\r\n                }\r\n                else if(found){\r\n                    if(i==managers[_platform].length-1){\r\n                       delete managers[_platform][i];\r\n                       managerIndex[_platform][_manager] = 0;\r\n                    }\r\n                    else{\r\n                       managers[_platform][i]=managers[_platform][i+1];\r\n                       managerIndex[_platform][managers[_platform][i]] = managerIndex[_platform][managers[_platform][i]] - 1;\r\n                    }\r\n                }\r\n            }\r\n        }\r\n    }\r\n\r\n    /**\r\n        Gets asset managers for managing liquidity\r\n        @param  _platform   address of market making platform\r\n     */\r\n    function getManagers(address _platform) onlyOwner external view returns(address[] memory){\r\n        return managers[_platform];\r\n    }\r\n\r\n    /**\r\n        Receiver of ether invested in the Verified Liquidity token\r\n     */\r\n    receive() external payable{\r\n        if(timeLimit!=0)\r\n            require(timeLimit > block.timestamp, \"Subscription window breached\");\r\n        //ether paid in\r\n        require(msg.value !=0, \"Zero eth sent\");\r\n        //contract must not be paused\r\n        require(paused() == false, \"Contract in paused state\");\r\n        //block reentrants\r\n        require(!lock[\"etherreceipt\"]);\r\n        lock[\"etherreceipt\"] = true;\r\n        //issue liquidity token        \r\n        if(investors[msg.sender][\"ether\"].tokenAmount==0){\r\n            ILiquidity.provider memory lp = ILiquidity.provider({\r\n                assetInvested: string(\"ether\"),\r\n                investorAddress: msg.sender\r\n            });\r\n            LPs.push(lp);\r\n        }\r\n        investors[msg.sender][\"ether\"].tokenAmount = SafeMath.add(investors[msg.sender][\"ether\"].tokenAmount, msg.value);\r\n        emit RequestIssue(msg.sender, \"ether\", msg.value);\r\n        lock[\"etherreceipt\"] = false;\r\n    }\r\n\r\n    /**\r\n        Used by external apps (eg, exchange, wallet) to buy Verified Liquidity token \r\n        @param  _token  address of token used by investor to buy the VITTA\r\n        @param  _amount amount of token that is transferred from investor to this VITTA issuing contract's account for the investor\r\n     */\r\n    function buy(address _token, uint256 _amount) external {\r\n        if(timeLimit!=0)\r\n            require(timeLimit > block.timestamp, \"Subscription window breached\");\r\n        require(paused() == false, \"Contract in paused state\");\r\n        bool found = false;\r\n        if(tokenIndex[_token]>0)\r\n            found = true;\r\n        if(found){\r\n            require(!lock[\"buy\"]);\r\n            lock[\"buy\"] = true;\r\n            if(IERC20(_token).transferFrom(msg.sender, address(this), _amount)){\r\n                emit RequestIssue(msg.sender, ERC20(_token).name(), _amount);\r\n                if(investors[msg.sender][ERC20(_token).name()].tokenAmount==0){\r\n                    ILiquidity.provider memory lp = ILiquidity.provider({\r\n                        assetInvested: ERC20(_token).name(),\r\n                        investorAddress: msg.sender\r\n                    });\r\n                    LPs.push(lp);\r\n                }\r\n                investors[msg.sender][ERC20(_token).name()].tokenAmount = SafeMath.add(investors[msg.sender][ERC20(_token).name()].tokenAmount, _amount);\r\n                investors[msg.sender][ERC20(_token).name()].tokenAddress = _token;\r\n            }\r\n            lock[\"buy\"] = false;\r\n        }\r\n    }\r\n\r\n    /**\r\n        Fetches investors in VITTA\r\n     */\r\n    function getInvestors() onlyOwner external view returns(ILiquidity.provider[] memory){\r\n        return LPs;\r\n    }\r\n\r\n    /**\r\n        Fetches investment detail for specific investor in VITTA\r\n        @param  _investor   address of investor\r\n        @param  _tokenName  name of token invested by investor\r\n     */\r\n    function getInvestment(address _investor, string memory _tokenName) onlyOwner external view returns(uint256){\r\n        return (investors[_investor][_tokenName].tokenAmount);\r\n    }\r\n    \r\n    /**\r\n        Used by admin to issue VITTA to investors or refund paid in tokens to investors if investment cap is breached\r\n        @param  _investor       address of investor\r\n        @param  _tokenName      name of token invested in VITTA\r\n        @param  _tokenAmount    amount of token invested in VITTA\r\n        @param  _LPToIssue      amount of VITTA to issue to investor \r\n     */\r\n    function issue(address _investor, string memory _tokenName, uint256 _tokenAmount, uint256 _LPToIssue) onlyOwner external {\r\n        require(!lock[\"issue\"]);\r\n        lock[\"issue\"] = true;\r\n        //If investment is outside limits, refund tokens invested back to investor\r\n        if((_LPToIssue > investmentCap) || (_LPToIssue > SafeMath.sub(totalSupply(), totalIssued))){\r\n            investors[_investor][_tokenName].tokenAmount = SafeMath.sub(investors[_investor][_tokenName].tokenAmount, _tokenAmount);\r\n            if(keccak256(abi.encodePacked(_tokenName))!=\"ether\")\r\n                IERC20(investors[_investor][_tokenName].tokenAddress).transfer(_investor, _tokenAmount);\r\n            else\r\n                payable(_investor).transfer(_tokenAmount);\r\n        }\r\n        //else issue VITTA to investor and transfer managed liquidity to deployer that allocates it to issuer\r\n        else{\r\n            transferFrom(msg.sender, _investor, _LPToIssue);  \r\n            totalIssued = SafeMath.add(totalIssued, _LPToIssue);    \r\n            stakes[_investor].issued = SafeMath.add(stakes[_investor].issued, _LPToIssue);\r\n            totalStaked = SafeMath.add(totalStaked, _LPToIssue); //added for model without staking\r\n            stakes[_investor].staked = SafeMath.add(stakes[_investor].staked, _LPToIssue);//added for model without staking            \r\n        }\r\n        lock[\"issue\"] = false;\r\n    }\r\n\r\n    /**\r\n        Provides staked VITTA to asset managers based on prior liquidity consumed and commission earned \r\n        @param  _platform   address of platform on which liquidity has to be provided\r\n        @param  _manager    address of asset manager to whom liquidity has to be provided\r\n        @param  _liquidity  amount of VITTA tokens to allot to an asset manager\r\n     */    \r\n    function provideLiquidity(address _platform, address _manager, uint256 _liquidity, address _token, uint256 _tokenAmount) onlyOwner external {\r\n        require(!lock[\"liquidity\"]);\r\n        lock[\"liquidity\"] = true;\r\n        require(paused() == false, \"Contract in paused state\");\r\n        require(managerIndex[_platform][_manager]!=0, \"Manager does not exist\");\r\n        if(tokens[tokenIndex[_token]-1].tokenName!=\"ether\")\r\n            IERC20(_token).transfer(_manager, _tokenAmount);\r\n        else\r\n            payable(_manager).transfer(_tokenAmount);\r\n        IMarketMaker(_platform).stake(_liquidity, _manager);\r\n        totalLiquidity = SafeMath.add(totalLiquidity, _liquidity);\r\n        platformRoi[_platform].liquidityProvided = SafeMath.add(platformRoi[_platform].liquidityProvided, _liquidity);\r\n        uint256 index = managerIndex[_platform][_manager];\r\n        managerRoi[_platform][address(this)][index].liquidityProvided = SafeMath.add(managerRoi[_platform][address(this)][index].liquidityProvided, _liquidity);\r\n        lock[\"liquidity\"] = false;\r\n    }\r\n\r\n    /**\r\n        Pay out of income by Market maker contracts to VITTA Liquidity providers\r\n        @param  _distribution   amount of VITTA to mint and distribute pro rata to liquidity providers\r\n        @param  _token          address of token in which distribution is made by market maker    \r\n        @param  _manager        address of asset manager earning the paid out return on investment \r\n     */\r\n    function distribute(uint256 _distribution, address _token, address _manager) external {\r\n        require(platformIndex[msg.sender]>0);\r\n        require(tokenIndex[_token]>0);\r\n        require(paused() == false, \"Contract in paused state\");\r\n        require(!lock[\"distribute\"]);\r\n        lock[\"distribute\"] = true;\r\n        uint256 index = managerIndex[msg.sender][_manager];\r\n        if(totalStaked!=0 && index!=0){\r\n            managerRoi[msg.sender][_token][index].commissionsEarned = SafeMath.add(managerRoi[msg.sender][_token][index].commissionsEarned, _distribution);\r\n        }\r\n        lock[\"distribute\"] = false;\r\n    }\r\n\r\n    /**\r\n        Fetches performance of market platform platform\r\n        @param  _platform   address of market making platform\r\n     */\r\n    function getPlatformPerformance(address _platform) onlyOwner external view returns(uint256 unstakedLiquidity, \r\n                                                                                        uint256 balancePlatformLiquidity,\r\n                                                                                        uint256 platformLiquidityProvided,\r\n                                                                                        uint256 platformCommissionsEarned){\r\n        uint256 unStakedLiquidity = SafeMath.sub(totalStaked, totalLiquidity);\r\n        uint256 liquidityBalance = SafeMath.sub(platformRoi[_platform].liquidityProvided, balanceOf(_platform));\r\n        return (unStakedLiquidity, liquidityBalance, platformRoi[_platform].liquidityProvided, platformRoi[_platform].commissionsEarned);\r\n    }\r\n\r\n    /**\r\n        Fetches performance of asset managers\r\n        @param  _platform   address of platform\r\n        @param  _token      address of token\r\n        @param  _manager    address of asset manager on platform\r\n     */\r\n    function getManagerPerformance(address _platform, address _token, address _manager) onlyOwner external view returns(uint256 managerLiquidityProvided,\r\n                                                                                    uint256 managerCommissionsEarned){\r\n        uint256 index = managerIndex[_platform][_manager];                                                                                \r\n        return (managerRoi[_platform][_token][index].liquidityProvided, managerRoi[_platform][_token][index].commissionsEarned);\r\n    }\r\n\r\n    /**\r\n        Pay out income to VITTA Liquidity providers\r\n        @param  _platform       amount of VITTA to mint and distribute pro rata to liquidity providers\r\n        @param  _distribution   amount of VITTA token to pay out    \r\n     */\r\n    function payOut(uint256 _distribution, address _platform) onlyOwner external {\r\n        require(!lock[\"payout\"]);\r\n        lock[\"payout\"] = true;\r\n        _mint(address(this), _distribution);\r\n        platformRoi[_platform].commissionsEarned = SafeMath.add(platformRoi[_platform].commissionsEarned, _distribution);\r\n        for(uint i=0; i<LPs.length; i++){\r\n            uint256 prorataStake = SafeMath.div(stakes[LPs[i].investorAddress].staked, totalStaked);\r\n            transfer(LPs[i].investorAddress, SafeMath.mul(prorataStake, _distribution));                \r\n        }\r\n        lock[\"payout\"] = false;\r\n    }\r\n\r\n    function balance(address investor) external view returns(uint256 investorBalance){\r\n        return balanceOf(investor);\r\n    }\r\n\r\n    /**\r\n        Pauses this contract\r\n     */\r\n    function pause() onlyOwner public {\r\n        _pause();\r\n    }\r\n    \r\n    /**\r\n        Unpauses this contract\r\n     */\r\n    function unpause() onlyOwner public {\r\n        _unpause();\r\n    }\r\n\r\n}\r\n\r\n",
  "sourcePath": "D:\\Code\\verified-liquidity\\verified\\contracts\\Liquidity.sol",
  "compiler": {
    "name": "solc",
    "version": "0.8.0+commit.c7dfd78e.Emscripten.clang"
  },
  "schemaVersion": "3.4.3",
  "updatedAt": "2022-07-07T11:05:32.961Z",
  "networkType": "ethereum",
  "devdoc": {
    "kind": "dev",
    "methods": {
      "addManager(address,address)": {
        "params": {
          "_manager": "address of asset manager",
          "_platform": "address of market making platform (eg, Balancer)"
        }
      },
      "allowance(address,address)": {
        "details": "See {IERC20-allowance}."
      },
      "approve(address,uint256)": {
        "details": "See {IERC20-approve}. Requirements: - `spender` cannot be the zero address."
      },
      "balanceOf(address)": {
        "details": "See {IERC20-balanceOf}."
      },
      "buy(address,uint256)": {
        "params": {
          "_amount": "amount of token that is transferred from investor to this VITTA issuing contract's account for the investor",
          "_token": "address of token used by investor to buy the VITTA"
        }
      },
      "checkSupportForToken(address)": {
        "params": {
          "_token": "token that is supported for investment"
        }
      },
      "constructor": {
        "params": {
          "_cap": "investment limit for each investor",
          "_limit": "time limit for issue close",
          "_supply": "total supply of VITTA"
        }
      },
      "createSupply(uint256,uint256,uint256)": {
        "params": {
          "_cap": "investment limit for each investor",
          "_limit": "time limit for issue close ",
          "_supply": "total supply of VITTA"
        }
      },
      "decimals()": {
        "details": "Returns the number of decimals used to get its user representation. For example, if `decimals` equals `2`, a balance of `505` tokens should be displayed to a user as `5.05` (`505 / 10 ** 2`). Tokens usually opt for a value of 18, imitating the relationship between Ether and Wei. This is the value {ERC20} uses, unless this function is overridden; NOTE: This information is only used for _display_ purposes: it in no way affects any of the arithmetic of the contract, including {IERC20-balanceOf} and {IERC20-transfer}."
      },
      "decreaseAllowance(address,uint256)": {
        "details": "Atomically decreases the allowance granted to `spender` by the caller. This is an alternative to {approve} that can be used as a mitigation for problems described in {IERC20-approve}. Emits an {Approval} event indicating the updated allowance. Requirements: - `spender` cannot be the zero address. - `spender` must have allowance for the caller of at least `subtractedValue`."
      },
      "distribute(uint256,address,address)": {
        "params": {
          "_distribution": "amount of VITTA to mint and distribute pro rata to liquidity providers",
          "_manager": "address of asset manager earning the paid out return on investment ",
          "_token": "address of token in which distribution is made by market maker    "
        }
      },
      "getInvestment(address,string)": {
        "params": {
          "_investor": "address of investor",
          "_tokenName": "name of token invested by investor"
        }
      },
      "getManagerPerformance(address,address,address)": {
        "params": {
          "_manager": "address of asset manager on platform",
          "_platform": "address of platform",
          "_token": "address of token"
        }
      },
      "getManagers(address)": {
        "params": {
          "_platform": "address of market making platform"
        }
      },
      "getPlatformPerformance(address)": {
        "params": {
          "_platform": "address of market making platform"
        }
      },
      "increaseAllowance(address,uint256)": {
        "details": "Atomically increases the allowance granted to `spender` by the caller. This is an alternative to {approve} that can be used as a mitigation for problems described in {IERC20-approve}. Emits an {Approval} event indicating the updated allowance. Requirements: - `spender` cannot be the zero address."
      },
      "issue(address,string,uint256,uint256)": {
        "params": {
          "_LPToIssue": "amount of VITTA to issue to investor ",
          "_investor": "address of investor",
          "_tokenAmount": "amount of token invested in VITTA",
          "_tokenName": "name of token invested in VITTA"
        }
      },
      "name()": {
        "details": "Returns the name of the token."
      },
      "owner()": {
        "details": "Returns the address of the current owner."
      },
      "paused()": {
        "details": "Returns true if the contract is paused, and false otherwise."
      },
      "payOut(uint256,address)": {
        "params": {
          "_distribution": "amount of VITTA token to pay out    ",
          "_platform": "amount of VITTA to mint and distribute pro rata to liquidity providers"
        }
      },
      "provideLiquidity(address,address,uint256,address,uint256)": {
        "params": {
          "_liquidity": "amount of VITTA tokens to allot to an asset manager",
          "_manager": "address of asset manager to whom liquidity has to be provided",
          "_platform": "address of platform on which liquidity has to be provided"
        }
      },
      "registerPlatform(address,bytes32)": {
        "params": {
          "_liquidityPlatform": "address of the market making platform",
          "_platformName": "name of market making platform"
        }
      },
      "removeManager(address,address)": {
        "params": {
          "_manager": "address of asset manager",
          "_platform": "address of market making platform"
        }
      },
      "renounceOwnership()": {
        "details": "Leaves the contract without owner. It will not be possible to call `onlyOwner` functions anymore. Can only be called by the current owner. NOTE: Renouncing ownership will leave the contract without an owner, thereby removing any functionality that is only available to the owner."
      },
      "supportTokens(address,bytes32)": {
        "params": {
          "_name": "name of token supported",
          "_token": "address of token supported"
        }
      },
      "symbol()": {
        "details": "Returns the symbol of the token, usually a shorter version of the name."
      },
      "totalSupply()": {
        "details": "See {IERC20-totalSupply}."
      },
      "transfer(address,uint256)": {
        "details": "See {IERC20-transfer}. Requirements: - `recipient` cannot be the zero address. - the caller must have a balance of at least `amount`."
      },
      "transferFrom(address,address,uint256)": {
        "details": "See {IERC20-transferFrom}. Emits an {Approval} event indicating the updated allowance. This is not required by the EIP. See the note at the beginning of {ERC20}. Requirements: - `sender` and `recipient` cannot be the zero address. - `sender` must have a balance of at least `amount`. - the caller must have allowance for ``sender``'s tokens of at least `amount`."
      },
      "transferOwnership(address)": {
        "details": "Transfers ownership of the contract to a new account (`newOwner`). Can only be called by the current owner."
      }
    },
    "version": 1
  },
  "userdoc": {
    "kind": "user",
    "methods": {
      "addManager(address,address)": {
        "notice": "Adds asset manager for managing liquidity"
      },
      "buy(address,uint256)": {
        "notice": "Used by external apps (eg, exchange, wallet) to buy Verified Liquidity token "
      },
      "checkSupportForToken(address)": {
        "notice": "Checks if a specified token is supported for investing in the Verified Liquidity token"
      },
      "constructor": {
        "notice": "Constructor for the Verified Liquidity token"
      },
      "createSupply(uint256,uint256,uint256)": {
        "notice": "Creates supply of the Verified Liquidity token after initial issue with constructor defined parameters"
      },
      "distribute(uint256,address,address)": {
        "notice": "Pay out of income by Market maker contracts to VITTA Liquidity providers"
      },
      "getInvestment(address,string)": {
        "notice": "Fetches investment detail for specific investor in VITTA"
      },
      "getInvestors()": {
        "notice": "Fetches investors in VITTA"
      },
      "getManagerPerformance(address,address,address)": {
        "notice": "Fetches performance of asset managers"
      },
      "getManagers(address)": {
        "notice": "Gets asset managers for managing liquidity"
      },
      "getPlatformPerformance(address)": {
        "notice": "Fetches performance of market platform platform"
      },
      "getPlatforms()": {
        "notice": "Gets list of registered platforms"
      },
      "getSupportedTokens()": {
        "notice": "Returns list of supported tokens"
      },
      "issue(address,string,uint256,uint256)": {
        "notice": "Used by admin to issue VITTA to investors or refund paid in tokens to investors if investment cap is breached"
      },
      "pause()": {
        "notice": "Pauses this contract"
      },
      "payOut(uint256,address)": {
        "notice": "Pay out income to VITTA Liquidity providers"
      },
      "provideLiquidity(address,address,uint256,address,uint256)": {
        "notice": "Provides staked VITTA to asset managers based on prior liquidity consumed and commission earned "
      },
      "registerPlatform(address,bytes32)": {
        "notice": "Registers a liquidity platform (eg, DEX) where Verified Liquidity tokens can be used to underwrite investments"
      },
      "removeManager(address,address)": {
        "notice": "Removes asset manager for managing liquidity on platform"
      },
      "supportTokens(address,bytes32)": {
        "notice": "Specifies list of supported tokens that can be invested in the Verified Liquidity token"
      },
      "unpause()": {
        "notice": "Unpauses this contract"
      }
    },
    "version": 1
  }
}