{
  "contractName": "Liquidity",
  "abi": [
    {
      "inputs": [
        {
          "internalType": "uint256",
          "name": "_cap",
          "type": "uint256"
        },
        {
          "internalType": "uint256",
          "name": "_limit",
          "type": "uint256"
        },
        {
          "internalType": "uint256",
          "name": "_share",
          "type": "uint256"
        },
        {
          "internalType": "address",
          "name": "_vitta",
          "type": "address"
        }
      ],
      "stateMutability": "nonpayable",
      "type": "constructor"
    },
    {
      "anonymous": false,
      "inputs": [
        {
          "indexed": true,
          "internalType": "address",
          "name": "platform",
          "type": "address"
        },
        {
          "indexed": true,
          "internalType": "address",
          "name": "investor",
          "type": "address"
        },
        {
          "indexed": false,
          "internalType": "address",
          "name": "vitta",
          "type": "address"
        },
        {
          "indexed": false,
          "internalType": "uint256",
          "name": "prorataStake",
          "type": "uint256"
        }
      ],
      "name": "InvestorReturns",
      "type": "event"
    },
    {
      "anonymous": false,
      "inputs": [
        {
          "indexed": true,
          "internalType": "address",
          "name": "investor",
          "type": "address"
        },
        {
          "indexed": false,
          "internalType": "address",
          "name": "token",
          "type": "address"
        },
        {
          "indexed": false,
          "internalType": "uint256",
          "name": "tokenAmount",
          "type": "uint256"
        },
        {
          "indexed": false,
          "internalType": "uint256",
          "name": "LPToIssue",
          "type": "uint256"
        }
      ],
      "name": "IssuedVitta",
      "type": "event"
    },
    {
      "anonymous": false,
      "inputs": [
        {
          "indexed": true,
          "internalType": "address",
          "name": "platform",
          "type": "address"
        },
        {
          "indexed": true,
          "internalType": "address",
          "name": "manager",
          "type": "address"
        },
        {
          "indexed": false,
          "internalType": "address",
          "name": "token",
          "type": "address"
        },
        {
          "indexed": false,
          "internalType": "uint256",
          "name": "distribution",
          "type": "uint256"
        }
      ],
      "name": "ManagerReturns",
      "type": "event"
    },
    {
      "anonymous": false,
      "inputs": [
        {
          "indexed": true,
          "internalType": "address",
          "name": "previousOwner",
          "type": "address"
        },
        {
          "indexed": true,
          "internalType": "address",
          "name": "newOwner",
          "type": "address"
        }
      ],
      "name": "OwnershipTransferred",
      "type": "event"
    },
    {
      "anonymous": false,
      "inputs": [
        {
          "indexed": false,
          "internalType": "address",
          "name": "account",
          "type": "address"
        }
      ],
      "name": "Paused",
      "type": "event"
    },
    {
      "anonymous": false,
      "inputs": [
        {
          "indexed": true,
          "internalType": "address",
          "name": "platform",
          "type": "address"
        },
        {
          "indexed": false,
          "internalType": "address",
          "name": "manager",
          "type": "address"
        },
        {
          "indexed": false,
          "internalType": "uint256",
          "name": "LPToken",
          "type": "uint256"
        },
        {
          "indexed": false,
          "internalType": "address",
          "name": "token",
          "type": "address"
        },
        {
          "indexed": false,
          "internalType": "uint256",
          "name": "tokenAmount",
          "type": "uint256"
        }
      ],
      "name": "PlatformLiquidity",
      "type": "event"
    },
    {
      "anonymous": false,
      "inputs": [
        {
          "indexed": true,
          "internalType": "address",
          "name": "platform",
          "type": "address"
        },
        {
          "indexed": false,
          "internalType": "address",
          "name": "manager",
          "type": "address"
        }
      ],
      "name": "PlatformManagers",
      "type": "event"
    },
    {
      "anonymous": false,
      "inputs": [
        {
          "indexed": true,
          "internalType": "address",
          "name": "platform",
          "type": "address"
        },
        {
          "indexed": false,
          "internalType": "address",
          "name": "vitta",
          "type": "address"
        },
        {
          "indexed": false,
          "internalType": "uint256",
          "name": "distribution",
          "type": "uint256"
        }
      ],
      "name": "PlatformReturns",
      "type": "event"
    },
    {
      "anonymous": false,
      "inputs": [
        {
          "indexed": true,
          "internalType": "address",
          "name": "platform",
          "type": "address"
        },
        {
          "indexed": false,
          "internalType": "bytes32",
          "name": "platformName",
          "type": "bytes32"
        }
      ],
      "name": "RegisterPlatform",
      "type": "event"
    },
    {
      "anonymous": false,
      "inputs": [
        {
          "indexed": true,
          "internalType": "address",
          "name": "investor",
          "type": "address"
        },
        {
          "indexed": false,
          "internalType": "address",
          "name": "token",
          "type": "address"
        },
        {
          "indexed": false,
          "internalType": "uint256",
          "name": "tokenAmount",
          "type": "uint256"
        }
      ],
      "name": "RequestIssue",
      "type": "event"
    },
    {
      "anonymous": false,
      "inputs": [
        {
          "indexed": true,
          "internalType": "address",
          "name": "token",
          "type": "address"
        },
        {
          "indexed": false,
          "internalType": "uint256",
          "name": "amount",
          "type": "uint256"
        }
      ],
      "name": "RequestRate",
      "type": "event"
    },
    {
      "anonymous": false,
      "inputs": [
        {
          "indexed": true,
          "internalType": "address",
          "name": "token",
          "type": "address"
        },
        {
          "indexed": false,
          "internalType": "string",
          "name": "tokenName",
          "type": "string"
        }
      ],
      "name": "SupportToken",
      "type": "event"
    },
    {
      "anonymous": false,
      "inputs": [
        {
          "indexed": false,
          "internalType": "address",
          "name": "account",
          "type": "address"
        }
      ],
      "name": "Unpaused",
      "type": "event"
    },
    {
      "anonymous": false,
      "inputs": [
        {
          "indexed": false,
          "internalType": "address",
          "name": "LP",
          "type": "address"
        }
      ],
      "name": "investorAdded",
      "type": "event"
    },
    {
      "anonymous": false,
      "inputs": [
        {
          "indexed": false,
          "internalType": "uint256",
          "name": "LP",
          "type": "uint256"
        },
        {
          "indexed": false,
          "internalType": "uint256",
          "name": "amount",
          "type": "uint256"
        }
      ],
      "name": "paidOut",
      "type": "event"
    },
    {
      "inputs": [],
      "name": "owner",
      "outputs": [
        {
          "internalType": "address",
          "name": "",
          "type": "address"
        }
      ],
      "stateMutability": "view",
      "type": "function",
      "constant": true
    },
    {
      "inputs": [],
      "name": "paused",
      "outputs": [
        {
          "internalType": "bool",
          "name": "",
          "type": "bool"
        }
      ],
      "stateMutability": "view",
      "type": "function",
      "constant": true
    },
    {
      "inputs": [],
      "name": "renounceOwnership",
      "outputs": [],
      "stateMutability": "nonpayable",
      "type": "function"
    },
    {
      "inputs": [
        {
          "internalType": "address",
          "name": "newOwner",
          "type": "address"
        }
      ],
      "name": "transferOwnership",
      "outputs": [],
      "stateMutability": "nonpayable",
      "type": "function"
    },
    {
      "stateMutability": "payable",
      "type": "receive",
      "payable": true
    },
    {
      "inputs": [
        {
          "internalType": "uint256",
          "name": "_cap",
          "type": "uint256"
        },
        {
          "internalType": "uint256",
          "name": "_limit",
          "type": "uint256"
        }
      ],
      "name": "createSupply",
      "outputs": [],
      "stateMutability": "nonpayable",
      "type": "function"
    },
    {
      "inputs": [
        {
          "internalType": "address",
          "name": "_token",
          "type": "address"
        },
        {
          "internalType": "string",
          "name": "_name",
          "type": "string"
        }
      ],
      "name": "supportTokens",
      "outputs": [],
      "stateMutability": "nonpayable",
      "type": "function"
    },
    {
      "inputs": [
        {
          "internalType": "address",
          "name": "_token",
          "type": "address"
        }
      ],
      "name": "checkSupportForToken",
      "outputs": [
        {
          "internalType": "bool",
          "name": "",
          "type": "bool"
        }
      ],
      "stateMutability": "view",
      "type": "function",
      "constant": true
    },
    {
      "inputs": [],
      "name": "getSupportedTokens",
      "outputs": [
        {
          "components": [
            {
              "internalType": "string",
              "name": "tokenName",
              "type": "string"
            },
            {
              "internalType": "address",
              "name": "tokenAddress",
              "type": "address"
            }
          ],
          "internalType": "struct ILiquidity.token[]",
          "name": "",
          "type": "tuple[]"
        }
      ],
      "stateMutability": "view",
      "type": "function",
      "constant": true
    },
    {
      "inputs": [
        {
          "internalType": "address",
          "name": "_liquidityPlatform",
          "type": "address"
        },
        {
          "internalType": "bytes32",
          "name": "_platformName",
          "type": "bytes32"
        }
      ],
      "name": "registerPlatform",
      "outputs": [],
      "stateMutability": "nonpayable",
      "type": "function"
    },
    {
      "inputs": [],
      "name": "getPlatforms",
      "outputs": [
        {
          "components": [
            {
              "internalType": "bytes32",
              "name": "platformName",
              "type": "bytes32"
            },
            {
              "internalType": "address",
              "name": "platformAddress",
              "type": "address"
            }
          ],
          "internalType": "struct ILiquidity.platform[]",
          "name": "",
          "type": "tuple[]"
        }
      ],
      "stateMutability": "view",
      "type": "function",
      "constant": true
    },
    {
      "inputs": [
        {
          "internalType": "address",
          "name": "_platform",
          "type": "address"
        },
        {
          "internalType": "address",
          "name": "_manager",
          "type": "address"
        }
      ],
      "name": "addManager",
      "outputs": [],
      "stateMutability": "nonpayable",
      "type": "function"
    },
    {
      "inputs": [
        {
          "internalType": "address",
          "name": "_platform",
          "type": "address"
        },
        {
          "internalType": "address",
          "name": "_manager",
          "type": "address"
        }
      ],
      "name": "removeManager",
      "outputs": [],
      "stateMutability": "nonpayable",
      "type": "function"
    },
    {
      "inputs": [
        {
          "internalType": "address",
          "name": "_platform",
          "type": "address"
        }
      ],
      "name": "getManagers",
      "outputs": [
        {
          "internalType": "address[]",
          "name": "",
          "type": "address[]"
        }
      ],
      "stateMutability": "view",
      "type": "function",
      "constant": true
    },
    {
      "inputs": [
        {
          "internalType": "address",
          "name": "_token",
          "type": "address"
        },
        {
          "internalType": "uint256",
          "name": "_amount",
          "type": "uint256"
        }
      ],
      "name": "buy",
      "outputs": [],
      "stateMutability": "nonpayable",
      "type": "function"
    },
    {
      "inputs": [],
      "name": "getInvestors",
      "outputs": [
        {
          "components": [
            {
              "internalType": "string",
              "name": "assetInvested",
              "type": "string"
            },
            {
              "internalType": "address",
              "name": "investorAddress",
              "type": "address"
            }
          ],
          "internalType": "struct ILiquidity.provider[]",
          "name": "",
          "type": "tuple[]"
        }
      ],
      "stateMutability": "view",
      "type": "function",
      "constant": true
    },
    {
      "inputs": [
        {
          "internalType": "address",
          "name": "_investor",
          "type": "address"
        },
        {
          "internalType": "address",
          "name": "_token",
          "type": "address"
        }
      ],
      "name": "getInvestment",
      "outputs": [
        {
          "internalType": "uint256",
          "name": "",
          "type": "uint256"
        }
      ],
      "stateMutability": "view",
      "type": "function",
      "constant": true
    },
    {
      "inputs": [
        {
          "internalType": "address",
          "name": "_investor",
          "type": "address"
        },
        {
          "internalType": "address",
          "name": "_token",
          "type": "address"
        },
        {
          "internalType": "uint256",
          "name": "_tokenAmount",
          "type": "uint256"
        },
        {
          "internalType": "uint256",
          "name": "_LPToIssue",
          "type": "uint256"
        }
      ],
      "name": "issue",
      "outputs": [],
      "stateMutability": "nonpayable",
      "type": "function"
    },
    {
      "inputs": [
        {
          "internalType": "address",
          "name": "_platform",
          "type": "address"
        },
        {
          "internalType": "address",
          "name": "_manager",
          "type": "address"
        },
        {
          "internalType": "uint256",
          "name": "_liquidity",
          "type": "uint256"
        },
        {
          "internalType": "address",
          "name": "_token",
          "type": "address"
        },
        {
          "internalType": "uint256",
          "name": "_tokenAmount",
          "type": "uint256"
        }
      ],
      "name": "provideLiquidity",
      "outputs": [],
      "stateMutability": "nonpayable",
      "type": "function"
    },
    {
      "inputs": [
        {
          "internalType": "uint256",
          "name": "_distribution",
          "type": "uint256"
        },
        {
          "internalType": "address",
          "name": "_token",
          "type": "address"
        },
        {
          "internalType": "address",
          "name": "_manager",
          "type": "address"
        }
      ],
      "name": "distribute",
      "outputs": [],
      "stateMutability": "nonpayable",
      "type": "function"
    },
    {
      "inputs": [
        {
          "internalType": "address",
          "name": "_platform",
          "type": "address"
        }
      ],
      "name": "getPlatformPerformance",
      "outputs": [
        {
          "internalType": "uint256",
          "name": "platformLiquidityProvided",
          "type": "uint256"
        },
        {
          "internalType": "uint256",
          "name": "platformCommissionsEarned",
          "type": "uint256"
        }
      ],
      "stateMutability": "view",
      "type": "function",
      "constant": true
    },
    {
      "inputs": [
        {
          "internalType": "address",
          "name": "_platform",
          "type": "address"
        },
        {
          "internalType": "address",
          "name": "_token",
          "type": "address"
        },
        {
          "internalType": "address",
          "name": "_manager",
          "type": "address"
        }
      ],
      "name": "getManagerPerformance",
      "outputs": [
        {
          "internalType": "uint256",
          "name": "managerLiquidityProvided",
          "type": "uint256"
        },
        {
          "internalType": "uint256",
          "name": "managerCommissionsEarned",
          "type": "uint256"
        }
      ],
      "stateMutability": "view",
      "type": "function",
      "constant": true
    },
    {
      "inputs": [
        {
          "internalType": "uint256",
          "name": "_distribution",
          "type": "uint256"
        },
        {
          "internalType": "address",
          "name": "_platform",
          "type": "address"
        }
      ],
      "name": "payOut",
      "outputs": [],
      "stateMutability": "nonpayable",
      "type": "function"
    },
    {
      "inputs": [
        {
          "internalType": "address",
          "name": "investor",
          "type": "address"
        }
      ],
      "name": "balance",
      "outputs": [
        {
          "internalType": "uint256",
          "name": "investorBalance",
          "type": "uint256"
        }
      ],
      "stateMutability": "view",
      "type": "function",
      "constant": true
    },
    {
      "inputs": [
        {
          "internalType": "address",
          "name": "sender",
          "type": "address"
        },
        {
          "internalType": "address",
          "name": "recipient",
          "type": "address"
        },
        {
          "internalType": "uint256",
          "name": "amount",
          "type": "uint256"
        }
      ],
      "name": "transfer",
      "outputs": [],
      "stateMutability": "nonpayable",
      "type": "function"
    },
    {
      "inputs": [],
      "name": "pause",
      "outputs": [],
      "stateMutability": "nonpayable",
      "type": "function"
    },
    {
      "inputs": [],
      "name": "unpause",
      "outputs": [],
      "stateMutability": "nonpayable",
      "type": "function"
    },
    {
      "inputs": [
        {
          "internalType": "address",
          "name": "_oracle",
          "type": "address"
        }
      ],
      "name": "setOracle",
      "outputs": [],
      "stateMutability": "nonpayable",
      "type": "function"
    },
    {
      "inputs": [
        {
          "internalType": "address",
          "name": "token",
          "type": "address"
        },
        {
          "internalType": "uint256",
          "name": "rate",
          "type": "uint256"
        }
      ],
      "name": "setExchangeRate",
      "outputs": [],
      "stateMutability": "nonpayable",
      "type": "function"
    },
    {
      "inputs": [
        {
          "internalType": "address",
          "name": "_treasurer",
          "type": "address"
        }
      ],
      "name": "setTreasurer",
      "outputs": [],
      "stateMutability": "nonpayable",
      "type": "function"
    }
  ],
  "bytecode": "0x60806040526000600755600060085560006009553480156200002057600080fd5b5060405162003f4638038062003f46833981016040819052620000439162000129565b6200005762000051620000c6565b620000ca565b6000805460ff60a01b1916815560078590556008849055600955600c829055600a80546001600160a01b0319166001600160a01b0383161790556200009b6200011a565b600b80546001600160a01b0319166001600160a01b0392909216919091179055506200017892505050565b3390565b600080546001600160a01b038381166001600160a01b0319831681178455604051919092169283917f8be0079c531659141344cd1fd0a4f28419497f9722a3daafe3b4186f6b6457e09190a35050565b6000546001600160a01b031690565b600080600080608085870312156200013f578384fd5b845160208601516040870151606088015192965090945092506001600160a01b03811681146200016d578182fd5b939692955090935050565b613dbe80620001886000396000f3fe6080604052600436106101c65760003560e01c80638513c619116100f7578063ccc241c611610095578063e4afbc6b11610064578063e4afbc6b146107c7578063f2fde38b146107e7578063f81f3ee714610807578063f85771b21461082757610486565b8063ccc241c614610745578063cce7ec1314610765578063d3c7c2c714610785578063e3d670d7146107a757610486565b8063bd5c5420116100d1578063bd5c5420146106b8578063beabacc8146106d8578063cac7495c146106f8578063cb7c4c551461072557610486565b80638513c619146106545780638da5cb5b14610674578063b2f5a54c1461069657610486565b806356abb19b11610164578063671d64291161013e578063671d6429146105ea578063715018a61461060a5780637adbf9731461061f5780638456cb591461063f57610486565b806356abb19b146105885780635c975abb146105a85780635d4f5b1c146105ca57610486565b806333060226116101a057806333060226146105065780633f4ba83a14610533578063451353f1146105485780634ea14cab1461056857610486565b8063050616161461048b5780631fbe552e146104ad57806324ef84ec146104d857610486565b3661048657346101f15760405162461bcd60e51b81526004016101e890613a94565b60405180910390fd5b6101f9610847565b156102165760405162461bcd60e51b81526004016101e8906139d1565b6b195d1a195c9c9958d95a5c1d60a21b60005260166020527fb3b8c7d2c1b102ad55c0edb99b20386f39cf054abae56169c4cbb4ae61d09c245460ff16156102705760405162461bcd60e51b81526004016101e890613b86565b7fb3b8c7d2c1b102ad55c0edb99b20386f39cf054abae56169c4cbb4ae61d09c24805460ff19166001179055336000908152600d6020908152604080832083805290915290205461035f576040805160808101825260059181018281526432ba3432b960d91b60608301528152336020808301919091528254600181018455600093909352815180519293849360029091027f036b6384b5eca791c62761152d0c79bb0604c104a5fb6f4eb0703f3154bb3db00192610333928492910190613250565b5060209190910151600190910180546001600160a01b0319166001600160a01b03909216919091179055505b336000908152601460205260409020546103c557600680546001810182557ff652222313e28459528d920b65115c16c04f3efc82aaedc97be59f3f377c0d3f0180546001600160a01b031916339081179091559054600091825260146020526040909120555b336000908152600d602090815260408083208380529091529020546103ea9034610857565b336000818152600d6020908152604080832083805290915280822093909355915190917f8c7f6f575e260afd27b15935e0859a490411bc754e283426002c7c5ff82e844d9161043b919034906136c1565b60405180910390a26b195d1a195c9c9958d95a5c1d60a21b60005260166020527fb3b8c7d2c1b102ad55c0edb99b20386f39cf054abae56169c4cbb4ae61d09c24805460ff19169055005b600080fd5b34801561049757600080fd5b506104ab6104a63660046135c4565b61086c565b005b3480156104b957600080fd5b506104c2610d17565b6040516104cf9190613772565b60405180910390f35b3480156104e457600080fd5b506104f86104f3366004613300565b610d8c565b6040516104cf929190613c0c565b34801561051257600080fd5b50610526610521366004613300565b610df3565b6040516104cf9190613725565b34801561053f57600080fd5b506104ab610ea9565b34801561055457600080fd5b506104ab6105633660046135e6565b610ef2565b34801561057457600080fd5b506104ab610583366004613487565b611126565b34801561059457600080fd5b506104f86105a336600461334c565b61126c565b3480156105b457600080fd5b506105bd610847565b6040516104cf919061387d565b3480156105d657600080fd5b506105bd6105e5366004613300565b611301565b3480156105f657600080fd5b506104ab610605366004613300565b61132f565b34801561061657600080fd5b506104ab61137e565b34801561062b57600080fd5b506104ab61063a366004613300565b6113c7565b34801561064b57600080fd5b506104ab611428565b34801561066057600080fd5b506104ab61066f36600461331a565b61146f565b34801561068057600080fd5b5061068961156c565b6040516104cf9190613689565b3480156106a257600080fd5b506106ab61157b565b6040516104cf91906137ca565b3480156106c457600080fd5b506104ab6106d336600461345e565b6116b5565b3480156106e457600080fd5b506104ab6106f336600461338e565b611720565b34801561070457600080fd5b5061071861071336600461331a565b6117fe565b6040516104cf9190613888565b34801561073157600080fd5b506104ab6107403660046133c9565b61186b565b34801561075157600080fd5b506104ab61076036600461341d565b611c1d565b34801561077157600080fd5b506104ab61078036600461345e565b611c6f565b34801561079157600080fd5b5061079a6120ef565b6040516104cf919061382a565b3480156107b357600080fd5b506107186107c2366004613300565b6121ea565b3480156107d357600080fd5b506104ab6107e236600461360a565b61226b565b3480156107f357600080fd5b506104ab610802366004613300565b6122b5565b34801561081357600080fd5b506104ab61082236600461345e565b612326565b34801561083357600080fd5b506104ab61084236600461331a565b61245c565b600054600160a01b900460ff1690565b60006108638284613c6c565b90505b92915050565b6108746129c5565b6001600160a01b031661088561156c565b6001600160a01b0316146108ab5760405162461bcd60e51b81526004016101e890613a5f565b651c185e5bdd5d60d21b60005260166020527f7444e57a0ca2660bc207c9b0be3e2ebc380f4993ebcd3576ea4772060960ec465460ff16156108ff5760405162461bcd60e51b81526004016101e890613941565b651c185e5bdd5d60d21b60005260166020527f7444e57a0ca2660bc207c9b0be3e2ebc380f4993ebcd3576ea4772060960ec46805460ff19166001179055600a546040516340c10f1960e01b81526001600160a01b03909116906340c10f199061096f90309086906004016136c1565b600060405180830381600087803b15801561098957600080fd5b505af115801561099d573d6000803e3d6000fd5b5050506001600160a01b0382166000908152601260205260409020600101546109c7915083610857565b6001600160a01b038083166000818152601260205260409081902060010193909355600a54925190927f80974c5e383db0ffd4e95148f9ead5f8ba4bdec21852d45c6835a85270f974b792610a209291169086906136c1565b60405180910390a26006546009546040517fa311d41a4f8e988a4ad78e6643c774c2a87f00bb1aa1d7b1ced7388586dac66e90610a609084908490613c0c565b60405180910390a160005b82811015610cd5576000610ad1610acb600e600060068681548110610aa057634e487b7160e01b600052603260045260246000fd5b60009182526020808320909101546001600160a01b03168352820192909252604001902054856129c9565b87612a2b565b600a54600680549293506001600160a01b039091169163a9059cbb919085908110610b0c57634e487b7160e01b600052603260045260246000fd5b6000918252602090912001546040516001600160e01b031960e084901b168152610b44916001600160a01b03169085906004016136c1565b602060405180830381600087803b158015610b5e57600080fd5b505af1158015610b72573d6000803e3d6000fd5b505050506040513d601f19601f82011682018060405250810190610b969190613512565b5060068281548110610bb857634e487b7160e01b600052603260045260246000fd5b600091825260209091200154600a546040516001600160a01b0392831692888116927f9a814a8cbff3893d9fe257f5b4402d3b90f5edc8afdbc32fe56cf743a67f7a4492610c0b929091169086906136c1565b60405180910390a3610c1f60095482610857565b600981905550610c78600e600060068581548110610c4d57634e487b7160e01b600052603260045260246000fd5b60009182526020808320909101546001600160a01b0316835282019290925260400190205482610857565b600e600060068581548110610c9d57634e487b7160e01b600052603260045260246000fd5b60009182526020808320909101546001600160a01b031683528201929092526040019020555080610ccd81613d41565b915050610a6b565b5050651c185e5bdd5d60d21b60005250506016602052507f7444e57a0ca2660bc207c9b0be3e2ebc380f4993ebcd3576ea4772060960ec46805460ff19169055565b60606001805480602002602001604051908101604052809291908181526020016000905b82821015610d835760008481526020908190206040805180820190915260028502909101805482526001908101546001600160a01b0316828401529083529092019101610d3b565b50505050905090565b600080610d976129c5565b6001600160a01b0316610da861156c565b6001600160a01b031614610dce5760405162461bcd60e51b81526004016101e890613a5f565b50506001600160a01b0316600090815260126020526040902080546001909101549091565b6060610dfd6129c5565b6001600160a01b0316610e0e61156c565b6001600160a01b031614610e345760405162461bcd60e51b81526004016101e890613a5f565b6001600160a01b0382166000908152600f602090815260409182902080548351818402810184019094528084529091830182828015610e9c57602002820191906000526020600020905b81546001600160a01b03168152600190910190602001808311610e7e575b505050505090505b919050565b610eb16129c5565b6001600160a01b0316610ec261156c565b6001600160a01b031614610ee85760405162461bcd60e51b81526004016101e890613a5f565b610ef0612a73565b565b33600090815260026020526040902054610f1e5760405162461bcd60e51b81526004016101e890613b18565b6001600160a01b038216600090815260046020526040902054610f535760405162461bcd60e51b81526004016101e890613978565b610f5b610847565b15610f785760405162461bcd60e51b81526004016101e8906139d1565b696469737472696275746560b01b60005260166020527fb0b635b44c76df09d65d311ff1b4470edb9a69f5367035a3232b0d5a11405ee95460ff1615610fd05760405162461bcd60e51b81526004016101e890613b4f565b7fb0b635b44c76df09d65d311ff1b4470edb9a69f5367035a3232b0d5a11405ee9805460ff191660011790553360009081526010602090815260408083206001600160a01b03851684529091529020546009541580159061103057508015155b156110e1573360009081526011602090815260408083206001600160a01b0387168452825280832084845290915290206001015461106e9085610857565b3360008181526011602090815260408083206001600160a01b038981168552908352818420878552909252918290206001019390935551918416917fdff48603d759a1933637840c945468e0b9fd413b5101770cafd01d93d60b5ade906110d890879089906136c1565b60405180910390a35b5050696469737472696275746560b01b600052505060166020527fb0b635b44c76df09d65d311ff1b4470edb9a69f5367035a3232b0d5a11405ee9805460ff19169055565b61112e6129c5565b6001600160a01b031661113f61156c565b6001600160a01b0316146111655760405162461bcd60e51b81526004016101e890613a5f565b6001600160a01b03821660009081526004602052604090205461126857604080518082019091528181526001600160a01b0383166020808301919091526003805460018101825560009190915282518051849360029093027fc2575a0e9e593c00f959f8c92f12db2869c3395a3b0502d05e2516446f71f85b01926111ee928492910190613250565b5060209182015160019190910180546001600160a01b0319166001600160a01b03928316179055600354908516600081815260049093526040928390209190915590517f10f1836bf661ec2d6e439744a2c220af8cd27522822842b304e2f5e00aea47b49061125e908590613891565b60405180910390a2505b5050565b6000806112776129c5565b6001600160a01b031661128861156c565b6001600160a01b0316146112ae5760405162461bcd60e51b81526004016101e890613a5f565b50506001600160a01b039283166000818152601060209081526040808320948716835293815283822054928252601181528382209490951681529284528183209083529092522080546001909101549091565b6001600160a01b0381166000908152600460205260408120541561132757506001610ea4565b506000610ea4565b600b5433906001600160a01b0316811461135b5760405162461bcd60e51b81526004016101e890613abb565b50600b80546001600160a01b0319166001600160a01b0392909216919091179055565b6113866129c5565b6001600160a01b031661139761156c565b6001600160a01b0316146113bd5760405162461bcd60e51b81526004016101e890613a5f565b610ef06000612ae4565b6113cf6129c5565b6001600160a01b03166113e061156c565b6001600160a01b0316146114065760405162461bcd60e51b81526004016101e890613a5f565b601580546001600160a01b0319166001600160a01b0392909216919091179055565b6114306129c5565b6001600160a01b031661144161156c565b6001600160a01b0316146114675760405162461bcd60e51b81526004016101e890613a5f565b610ef0612b34565b6114776129c5565b6001600160a01b031661148861156c565b6001600160a01b0316146114ae5760405162461bcd60e51b81526004016101e890613a5f565b6001600160a01b03808316600090815260106020908152604080832093851683529290522054611268576001600160a01b038281166000818152600f6020908152604080832080546001810182558185528385200180546001600160a01b0319169688169687179055848452546010835281842095845294909152908190209290925590517fa52f7b1728c567fcd948cc67f684e16d4fb0d5722b68b503532427991f6dd58390611560908490613689565b60405180910390a25050565b6000546001600160a01b031690565b60606115856129c5565b6001600160a01b031661159661156c565b6001600160a01b0316146115bc5760405162461bcd60e51b81526004016101e890613a5f565b6005805480602002602001604051908101604052809291908181526020016000905b82821015610d83578382906000526020600020906002020160405180604001604052908160008201805461161190613d06565b80601f016020809104026020016040519081016040528092919081815260200182805461163d90613d06565b801561168a5780601f1061165f5761010080835404028352916020019161168a565b820191906000526020600020905b81548152906001019060200180831161166d57829003601f168201915b50505091835250506001918201546001600160a01b03166020918201529183529290920191016115de565b60155433906001600160a01b031681146116e15760405162461bcd60e51b81526004016101e890613a32565b6001600160a01b0383166000908152600460205260409020541561171b576001600160a01b03831660009081526013602052604090208290555b505050565b600a546001600160a01b0316331461174a5760405162461bcd60e51b81526004016101e890613aeb565b6001600160a01b0383166000908152600e60205260409020548111156117825760405162461bcd60e51b81526004016101e8906139a3565b61178b82612b95565b6001600160a01b0382166000908152600e60205260409020546117ae9082610857565b6001600160a01b038084166000908152600e602052604080822093909355908516815220546117dd9082612cbb565b6001600160a01b039093166000908152600e60205260409020929092555050565b60006118086129c5565b6001600160a01b031661181961156c565b6001600160a01b03161461183f5760405162461bcd60e51b81526004016101e890613a5f565b506001600160a01b039182166000908152600d6020908152604080832093909416825291909152205490565b6118736129c5565b6001600160a01b031661188461156c565b6001600160a01b0316146118aa5760405162461bcd60e51b81526004016101e890613a5f565b686c697175696469747960b81b60005260166020527f12f5885fa87a9935e45e311927d6cabb9713d8deec1bd5119658a3f9c3d27bd55460ff16156119015760405162461bcd60e51b81526004016101e890613b4f565b686c697175696469747960b81b60005260166020527f12f5885fa87a9935e45e311927d6cabb9713d8deec1bd5119658a3f9c3d27bd5805460ff1916600117905561194a610847565b156119675760405162461bcd60e51b81526004016101e8906139d1565b6001600160a01b038086166000908152601060209081526040808320938816835292905220546119a95760405162461bcd60e51b81526004016101e890613bbd565b6001600160a01b03821615611a3e5760405163a9059cbb60e01b81526001600160a01b0383169063a9059cbb906119e690889085906004016136c1565b602060405180830381600087803b158015611a0057600080fd5b505af1158015611a14573d6000803e3d6000fd5b505050506040513d601f19601f82011682018060405250810190611a389190613512565b50611a7f565b6040516001600160a01b0386169082156108fc029083906000818181858888f19350505050611a7f5760405162461bcd60e51b81526004016101e890613918565b60405163a7d545db60e01b81526001600160a01b0386169063a7d545db90611aaf90849086908990600401613bed565b600060405180830381600087803b158015611ac957600080fd5b505af1158015611add573d6000803e3d6000fd5b50505050846001600160a01b03167f9aea42c06bd9566935fae5cfe7b814263ab2a34321a6f1ea740c6c1d1bf3662585858585604051611b2094939291906136da565b60405180910390a26001600160a01b038516600090815260126020526040902054611b4b9084610857565b6001600160a01b0380871660008181526012602090815260408083209590955560108152848220898516835281528482205492825260118152848220938716825292835283812082825290925291902054611ba69083610857565b6001600160a01b0396871660009081526011602090815260408083209690991682529485528781209281529184529581209590955550686c697175696469747960b81b9093525050601690527f12f5885fa87a9935e45e311927d6cabb9713d8deec1bd5119658a3f9c3d27bd5805460ff19169055565b611c256129c5565b6001600160a01b0316611c3661156c565b6001600160a01b031614611c5c5760405162461bcd60e51b81526004016101e890613a5f565b611c698484848433612cc7565b50505050565b611c77610847565b15611c945760405162461bcd60e51b81526004016101e8906139d1565b6001600160a01b03821660009081526004602052604081205415611cb6575060015b801561171b576262757960e81b60005260166020527fed504661a2af55b2d629cf1e6af8ae7df46823d2d4fbd752e48c55ff2e18ea575460ff1615611d0d5760405162461bcd60e51b81526004016101e890613b4f565b6262757960e81b60005260166020527fed504661a2af55b2d629cf1e6af8ae7df46823d2d4fbd752e48c55ff2e18ea57805460ff191660011790556040516323b872dd60e01b81526001600160a01b038416906323b872dd90611d789033903090879060040161369d565b602060405180830381600087803b158015611d9257600080fd5b505af1158015611da6573d6000803e3d6000fd5b505050506040513d601f19601f82011682018060405250810190611dca9190613512565b156120b257336001600160a01b03167f8c7f6f575e260afd27b15935e0859a490411bc754e283426002c7c5ff82e844d8484604051611e0a9291906136c1565b60405180910390a233600090815260146020526040902054611e7857600680546001810182557ff652222313e28459528d920b65115c16c04f3efc82aaedc97be59f3f377c0d3f0180546001600160a01b031916339081179091559054600091825260146020526040909120555b336000908152600d602090815260408083206001600160a01b0387168452909152902054611fa75760006040518060400160405280856001600160a01b03166306fdde036040518163ffffffff1660e01b815260040160006040518083038186803b158015611ee657600080fd5b505afa158015611efa573d6000803e3d6000fd5b505050506040513d6000823e601f3d908101601f19168201604052611f229190810190613539565b8152336020918201526005805460018101825560009190915282518051939450849360029092027f036b6384b5eca791c62761152d0c79bb0604c104a5fb6f4eb0703f3154bb3db00192611f7b92849290910190613250565b5060209190910151600190910180546001600160a01b0319166001600160a01b03909216919091179055505b336000908152600d602090815260408083206001600160a01b0387168452909152902054611fd59083610857565b336000908152600d602090815260408083206001600160a01b038816808552908352818420948555600190940180546001600160a01b031916909417909355601390522054156120b25761206133848461205460136000896001600160a01b03166001600160a01b031681526020019081526020016000205487612a2b565b61205c61156c565b612cc7565b6001600160a01b038316600081815260136020526040908190205490517ffe1ed69b3efd6d71f3708d26a6e1ce738b7233ef728bc42c2687cad399ccf7d3916120a991613888565b60405180910390a25b6262757960e81b60005260166020527fed504661a2af55b2d629cf1e6af8ae7df46823d2d4fbd752e48c55ff2e18ea57805460ff19169055505050565b60606003805480602002602001604051908101604052809291908181526020016000905b82821015610d83578382906000526020600020906002020160405180604001604052908160008201805461214690613d06565b80601f016020809104026020016040519081016040528092919081815260200182805461217290613d06565b80156121bf5780601f10612194576101008083540402835291602001916121bf565b820191906000526020600020905b8154815290600101906020018083116121a257829003601f168201915b50505091835250506001918201546001600160a01b0316602091820152918352929092019101612113565b600a546040516370a0823160e01b81526000916001600160a01b0316906370a082319061221b908590600401613689565b60206040518083038186803b15801561223357600080fd5b505afa158015612247573d6000803e3d6000fd5b505050506040513d601f19601f8201168201806040525081019061086691906135ac565b6122736129c5565b6001600160a01b031661228461156c565b6001600160a01b0316146122aa5760405162461bcd60e51b81526004016101e890613a5f565b600791909155600855565b6122bd6129c5565b6001600160a01b03166122ce61156c565b6001600160a01b0316146122f45760405162461bcd60e51b81526004016101e890613a5f565b6001600160a01b03811661231a5760405162461bcd60e51b81526004016101e8906138d2565b61232381612ae4565b50565b61232e6129c5565b6001600160a01b031661233f61156c565b6001600160a01b0316146123655760405162461bcd60e51b81526004016101e890613a5f565b6001600160a01b038216600090815260026020526040902054611268576040805180820182528281526001600160a01b038481166020808401828152600180548082018255600082815287517fb10e2d527612073b26eecdfd717e6a320cf44b4afac2b0732d9fcbe2b7fa0cf660029384029081019190915593517fb10e2d527612073b26eecdfd717e6a320cf44b4afac2b0732d9fcbe2b7fa0cf790940180546001600160a01b031916949097169390931790955554838252939091528490209190915591519091907f88d0ad67f2cd85c03baf1ec3dd94c0da1d9c39d37407214b1e4182ee8bf13ffc9061125e908590613888565b6124646129c5565b6001600160a01b031661247561156c565b6001600160a01b03161461249b5760405162461bcd60e51b81526004016101e890613a5f565b6001600160a01b0380831660009081526010602090815260408083209385168352929052908120541561171b576001600160a01b0383166000908152600f6020526040812054905b818110156129be576001600160a01b038581166000908152600f602052604090208054918616918390811061252857634e487b7160e01b600052603260045260246000fd5b6000918252602090912001546001600160a01b03161415612779576001600160a01b0385166000908152600f602052604090205461256890600190613cc3565b8114156125e7576001600160a01b0385166000908152600f602052604090208054829081106125a757634e487b7160e01b600052603260045260246000fd5b6000918252602080832090910180546001600160a01b03191690556001600160a01b03878116835260108252604080842091881684529152812055612770565b6001600160a01b0385166000908152600f6020526040902061260a826001613c6c565b8154811061262857634e487b7160e01b600052603260045260246000fd5b60009182526020808320909101546001600160a01b038881168452600f909252604090922080549190921691908390811061267357634e487b7160e01b600052603260045260246000fd5b600091825260208083209190910180546001600160a01b0319166001600160a01b039485161790559187168152601082526040808220600f90935281208054600193929190859081106126d657634e487b7160e01b600052603260045260246000fd5b60009182526020808320909101546001600160a01b031683528201929092526040019020546127059190613cc3565b6001600160a01b0386166000908152601060209081526040808320600f909252822080549192918590811061274a57634e487b7160e01b600052603260045260246000fd5b60009182526020808320909101546001600160a01b031683528201929092526040019020555b600192506129ac565b82156129ac576001600160a01b0385166000908152600f60205260409020546127a490600190613cc3565b811415612823576001600160a01b0385166000908152600f602052604090208054829081106127e357634e487b7160e01b600052603260045260246000fd5b6000918252602080832090910180546001600160a01b03191690556001600160a01b038781168352601082526040808420918816845291528120556129ac565b6001600160a01b0385166000908152600f60205260409020612846826001613c6c565b8154811061286457634e487b7160e01b600052603260045260246000fd5b60009182526020808320909101546001600160a01b038881168452600f90925260409092208054919092169190839081106128af57634e487b7160e01b600052603260045260246000fd5b600091825260208083209190910180546001600160a01b0319166001600160a01b039485161790559187168152601082526040808220600f909352812080546001939291908590811061291257634e487b7160e01b600052603260045260246000fd5b60009182526020808320909101546001600160a01b031683528201929092526040019020546129419190613cc3565b6001600160a01b0386166000908152601060209081526040808320600f909252822080549192918590811061298657634e487b7160e01b600052603260045260246000fd5b60009182526020808320909101546001600160a01b031683528201929092526040019020555b806129b681613d41565b9150506124e3565b5050505050565b3390565b60006129d882151560046131ea565b826129e557506000610866565b60006129f9670de0b6b3a764000085613ca4565b9050612a19670de0b6b3a7640000612a118684613c84565b1460056131ea565b612a238382613c84565b915050610866565b600080612a388385613ca4565b9050612a59841580612a52575083612a508684613c84565b145b60036131ea565b612a6b670de0b6b3a764000082613c84565b949350505050565b612a7b610847565b612a975760405162461bcd60e51b81526004016101e8906138a4565b6000805460ff60a01b191690557f5db9ee0a495bf2e6ff9c91a7834c1ba4fdd244a5e8aa4e537bd38aeae4b073aa612acd6129c5565b604051612ada9190613689565b60405180910390a1565b600080546001600160a01b038381166001600160a01b0319831681178455604051919092169283917f8be0079c531659141344cd1fd0a4f28419497f9722a3daafe3b4186f6b6457e09190a35050565b612b3c610847565b15612b595760405162461bcd60e51b81526004016101e890613a08565b6000805460ff60a01b1916600160a01b1790557f62e78cea01bee320cd4e420270b5ea74000d11b0c9f74754ebdbfc544b05a258612acd6129c5565b600354600090815b81811015612c2d576001600160a01b0384166000908152600d602052604081206003805483919085908110612be257634e487b7160e01b600052603260045260246000fd5b60009182526020808320600160029093020191909101546001600160a01b031683528201929092526040019020541115612c1b57600192505b80612c2581613d41565b915050612b9d565b508161171b57600680546001810182556000919091527ff652222313e28459528d920b65115c16c04f3efc82aaedc97be59f3f377c0d3f0180546001600160a01b0319166001600160a01b0385161790556040517f2c385ad016af1d5b8f4eefb8aef02929aa692e7f6d846488519f2513bd7170e090612cae908590613689565b60405180910390a1505050565b60006108638284613cc3565b64697373756560d81b60005260166020527f4b98a68c0e9a4222d5629a7c41cbb37cf7e565aa176f51e8e1fdb860de97a7eb5460ff1615612d1a5760405162461bcd60e51b81526004016101e890613941565b7f4b98a68c0e9a4222d5629a7c41cbb37cf7e565aa176f51e8e1fdb860de97a7eb805460ff191660011790556001600160a01b038086166000908152600d6020908152604080832093881683529290522054612d769084612cbb565b6001600160a01b038087166000908152600d6020908152604080832093891683529290522055600754821180612e305750600a54604080516318160ddd60e01b81529051612e2d926001600160a01b0316916318160ddd916004808301926020929190829003018186803b158015612ded57600080fd5b505afa158015612e01573d6000803e3d6000fd5b505050506040513d601f19601f82011682018060405250810190612e2591906135ac565b600954612cbb565b82115b15612f4b576001600160a01b038581166000908152600d6020908152604080832088851684529091529020600101541615612f0e576001600160a01b038086166000908152600d6020908152604080832088851684529091529081902060010154905163a9059cbb60e01b815291169063a9059cbb90612eb690889087906004016136c1565b602060405180830381600087803b158015612ed057600080fd5b505af1158015612ee4573d6000803e3d6000fd5b505050506040513d601f19601f82011682018060405250810190612f089190613512565b50612f46565b6040516001600160a01b0386169084156108fc029085906000818181858888f19350505050158015612f44573d6000803e3d6000fd5b505b6131a9565b600a546040516323b872dd60e01b81526001600160a01b03909116906323b872dd90612f7f9084908990879060040161369d565b602060405180830381600087803b158015612f9957600080fd5b505af1158015612fad573d6000803e3d6000fd5b505050506040513d601f19601f82011682018060405250810190612fd19190613512565b50612fde60095483610857565b6009556001600160a01b0385166000908152600e60205260409020546130049083610857565b6001600160a01b038087166000818152600e6020908152604080832095909555600d81528482208985168352905283902060010154925190927f3ed92bcd8133ac027f02bc9c77f471ab91c233a24bc157dd38ba2affabe557839261306f9291169087908790613704565b60405180910390a26001600160a01b038581166000908152600d602090815260408083208885168452909152902060010154161561315e576001600160a01b038086166000908152600d602090815260408083208885168452909152902060010154600b54600c549183169263a9059cbb929116906130ef908790612a2b565b6040518363ffffffff1660e01b815260040161310c9291906136c1565b602060405180830381600087803b15801561312657600080fd5b505af115801561313a573d6000803e3d6000fd5b505050506040513d601f19601f82011682018060405250810190612f449190613512565b600b54600c546001600160a01b03909116906108fc9061317f908690612a2b565b6040518115909202916000818181858888f193505050501580156131a7573d6000803e3d6000fd5b505b505064697373756560d81b60005250506016602052507f4b98a68c0e9a4222d5629a7c41cbb37cf7e565aa176f51e8e1fdb860de97a7eb805460ff19169055565b816112685762461bcd60e51b600090815260206004526007602452600a808304818106603090810160081b83860601918390049283060160101b016642414c230000300160c81b604452611268918391612323916210905360ea1b906242414c90606490fd5b82805461325c90613d06565b90600052602060002090601f01602090048101928261327e57600085556132c4565b82601f1061329757805160ff19168380011785556132c4565b828001600101855582156132c4579182015b828111156132c45782518255916020019190600101906132a9565b506132d09291506132d4565b5090565b5b808211156132d057600081556001016132d5565b80356001600160a01b0381168114610ea457600080fd5b600060208284031215613311578081fd5b610863826132e9565b6000806040838503121561332c578081fd5b613335836132e9565b9150613343602084016132e9565b90509250929050565b600080600060608486031215613360578081fd5b613369846132e9565b9250613377602085016132e9565b9150613385604085016132e9565b90509250925092565b6000806000606084860312156133a2578283fd5b6133ab846132e9565b92506133b9602085016132e9565b9150604084013590509250925092565b600080600080600060a086880312156133e0578081fd5b6133e9866132e9565b94506133f7602087016132e9565b93506040860135925061340c606087016132e9565b949793965091946080013592915050565b60008060008060808587031215613432578384fd5b61343b856132e9565b9350613449602086016132e9565b93969395505050506040820135916060013590565b60008060408385031215613470578182fd5b613479836132e9565b946020939093013593505050565b60008060408385031215613499578182fd5b6134a2836132e9565b9150602083013567ffffffffffffffff8111156134bd578182fd5b8301601f810185136134cd578182fd5b80356134e06134db82613c44565b613c1a565b8181528660208385010111156134f4578384fd5b81602084016020830137908101602001929092525090939092509050565b600060208284031215613523578081fd5b81518015158114613532578182fd5b9392505050565b60006020828403121561354a578081fd5b815167ffffffffffffffff811115613560578182fd5b8201601f81018413613570578182fd5b805161357e6134db82613c44565b818152856020838501011115613592578384fd5b6135a3826020830160208601613cda565b95945050505050565b6000602082840312156135bd578081fd5b5051919050565b600080604083850312156135d6578182fd5b82359150613343602084016132e9565b6000806000606084860312156135fa578081fd5b83359250613377602085016132e9565b6000806040838503121561361c578182fd5b50508035926020909101359150565b60008151808452613643816020860160208601613cda565b601f01601f19169290920160200192915050565b600081516040845261366c604085018261362b565b6020938401516001600160a01b0316949093019390935250919050565b6001600160a01b0391909116815260200190565b6001600160a01b039384168152919092166020820152604081019190915260600190565b6001600160a01b03929092168252602082015260400190565b6001600160a01b039485168152602081019390935292166040820152606081019190915260800190565b6001600160a01b039390931683526020830191909152604082015260600190565b6020808252825182820181905260009190848201906040850190845b818110156137665783516001600160a01b031683529284019291840191600101613741565b50909695505050505050565b602080825282518282018190526000919060409081850190868401855b828110156137bd578151805185528601516001600160a01b031686850152928401929085019060010161378f565b5091979650505050505050565b6000602080830181845280855180835260408601915060408482028701019250838701855b8281101561381d57603f1988860301845261380b858351613657565b945092850192908501906001016137ef565b5092979650505050505050565b6000602080830181845280855180835260408601915060408482028701019250838701855b8281101561381d57603f1988860301845261386b858351613657565b9450928501929085019060010161384f565b901515815260200190565b90815260200190565b600060208252610863602083018461362b565b60208082526014908201527314185d5cd8589b194e881b9bdd081c185d5cd95960621b604082015260600190565b60208082526026908201527f4f776e61626c653a206e6577206f776e657220697320746865207a65726f206160408201526564647265737360d01b606082015260800190565b6020808252600f908201526e151c985b9cd9995c8819985a5b1959608a1b604082015260600190565b6020808252601d908201527f4c6f636b656420746f2070726576656e742072656e656e7472616e6379000000604082015260600190565b6020808252601190820152702ab739bab83837b93a32b2103a37b5b2b760791b604082015260600190565b602080825260149082015273496e73756666696369656e742062616c616e636560601b604082015260600190565b60208082526018908201527f436f6e747261637420696e207061757365642073746174650000000000000000604082015260600190565b60208082526010908201526f14185d5cd8589b194e881c185d5cd95960821b604082015260600190565b602080825260139082015272556e617574686f72697a6564206f7261636c6560681b604082015260600190565b6020808252818101527f4f776e61626c653a2063616c6c6572206973206e6f7420746865206f776e6572604082015260600190565b6020808252600d908201526c16995c9bc8195d1a081cd95b9d609a1b604082015260600190565b6020808252601690820152752ab730baba3437b934bd32b2103a3932b0b9bab932b960511b604082015260600190565b6020808252601390820152722ab730baba3437b934bd32b21039b2b73232b960691b604082015260600190565b6020808252601d908201527f4c697175696469747920706f6f6c20646f6573206e6f74206578697374000000604082015260600190565b6020808252601c908201527f4c6f636b656420746f2070726576656e74207265656e7472616e637900000000604082015260600190565b6020808252601a908201527f4c6f636b656420746f2061766f6964207265656e7472616e6379000000000000604082015260600190565b60208082526016908201527513585b9859d95c88191bd95cc81b9bdd08195e1a5cdd60521b604082015260600190565b9283526001600160a01b03918216602084015216604082015260600190565b918252602082015260400190565b60405181810167ffffffffffffffff81118282101715613c3c57613c3c613d72565b604052919050565b600067ffffffffffffffff821115613c5e57613c5e613d72565b50601f01601f191660200190565b60008219821115613c7f57613c7f613d5c565b500190565b600082613c9f57634e487b7160e01b81526012600452602481fd5b500490565b6000816000190483118215151615613cbe57613cbe613d5c565b500290565b600082821015613cd557613cd5613d5c565b500390565b60005b83811015613cf5578181015183820152602001613cdd565b83811115611c695750506000910152565b600281046001821680613d1a57607f821691505b60208210811415613d3b57634e487b7160e01b600052602260045260246000fd5b50919050565b6000600019821415613d5557613d55613d5c565b5060010190565b634e487b7160e01b600052601160045260246000fd5b634e487b7160e01b600052604160045260246000fdfea2646970667358221220ff3d6e44b053859b48cab61dd61f86a9957f1728ad31103e1efaea87ec99b6fa64736f6c63430008000033",
  "immutableReferences": {},
  "source": "// Verified Liquidity Manager \r\n// (c) Kallol Borah, 2021\r\n\r\n//\"SPDX-License-Identifier: UNLICENSED\"\r\n\r\npragma solidity 0.8.0;\r\n\r\nimport \"@openzeppelin/contracts/access/Ownable.sol\";\r\nimport \"@openzeppelin/contracts/security/Pausable.sol\";\r\n\r\nimport \"@openzeppelin/contracts/token/ERC20/IERC20.sol\";\r\nimport \"@openzeppelin/contracts/token/ERC20/ERC20.sol\";\r\n\r\nimport \"@openzeppelin/contracts/utils/math/SafeMath.sol\";\r\n\r\nimport \"./interfaces/IMarketMaker.sol\";\r\nimport \"./interfaces/ILiquidity.sol\";\r\nimport \"./interfaces/IVitta.sol\";\r\n\r\nimport \"./math/FixedPoint.sol\";\r\nimport \"./math/Math.sol\";\r\n\r\ncontract Liquidity is Ownable, Pausable {\r\n\r\n    using SafeMath for uint256;\r\n    using FixedPoint for uint256;\r\n\r\n    ILiquidity.platform[] private platforms;\r\n    mapping(address => uint256) private platformIndex;\r\n\r\n    ILiquidity.token[] private tokens;\r\n    mapping(address => uint256) private tokenIndex;\r\n    \r\n    ILiquidity.provider[] private providers;\r\n    address[] private LPs;\r\n\r\n    uint256 private investmentCap=0;\r\n    uint256 private timeLimit=0;    \r\n    uint256 private totalIssued=0;\r\n\r\n    address private vitta;\r\n\r\n    //for share of liquidity staked with Verified\r\n    address private treasury;\r\n    uint256 private liquidityShare;\r\n\r\n    struct investment{\r\n        uint256 tokenAmount;\r\n        address tokenAddress;\r\n    }    \r\n\r\n    struct performance{\r\n        uint256 liquidityProvided;\r\n        uint256 commissionsEarned;\r\n    }\r\n\r\n    // mapping investor to invested tokens\r\n    mapping(address => mapping(address => investment)) private investors;\r\n    // mapping investor to liquidity tokens issued and staked\r\n    mapping(address => uint256) private stakes;    \r\n    // mapping platform to asset managers on it\r\n    mapping(address => address[]) private managers; \r\n    // mapping platform to asset manager's position in it\r\n    mapping(address => mapping(address => uint256)) private managerIndex;\r\n    // mapping platform to address of token distributed by manager to asset manager index to performance of liquidity provided\r\n    mapping(address => mapping(address => mapping(uint256 => performance))) private managerRoi;\r\n    // mapping platform to performance\r\n    mapping(address => performance) private platformRoi;\r\n    // exchange rate of support token to vitta\r\n    mapping(address => uint256) private exchangeRate;\r\n    // indexing liquidity providers\r\n    mapping(address => uint256) private LPIndex;\r\n\r\n    // oracle\r\n    address private oracle;\r\n\r\n    modifier onlyOracle(address sender){\r\n        require(oracle==sender, \"Unauthorized oracle\");\r\n        _;\r\n    }\r\n\r\n    modifier onlyTreasurer(address sender){\r\n        require(treasury==sender, \"Unauthorized treasurer\");\r\n        _;\r\n    }\r\n\r\n    //mutex\r\n    mapping(bytes32 => bool) private lock;\r\n\r\n    event SupportToken(address indexed token, string tokenName);\r\n    event RegisterPlatform(address indexed platform, bytes32 platformName);\r\n    event PlatformManagers(address indexed platform, address manager);\r\n    event RequestRate(address indexed token, uint256 amount);\r\n    event RequestIssue(address indexed investor, address token, uint256 tokenAmount);\r\n    event IssuedVitta(address indexed investor, address token, uint256 tokenAmount, uint256 LPToIssue);\r\n    event PlatformLiquidity(address indexed platform, address manager, uint256 LPToken, address token, uint256 tokenAmount);\r\n    event ManagerReturns(address indexed platform, address indexed manager, address token, uint256 distribution);\r\n    event PlatformReturns(address indexed platform, address vitta, uint256 distribution);\r\n    event InvestorReturns(address indexed platform, address indexed investor, address vitta, uint256 prorataStake);\r\n      \r\n    /**\r\n        Constructor for the Verified Liquidity manager\r\n        @param  _cap    investment limit for each investor\r\n        @param  _limit  time limit for issue close\r\n        @param  _vitta  address of Verified liquidity token\r\n     */\r\n    constructor(uint256 _cap, uint256 _limit, uint256 _share, address _vitta){        \r\n        investmentCap = _cap;\r\n        timeLimit = _limit;\r\n        totalIssued = 0;\r\n        liquidityShare = _share;\r\n        vitta = _vitta; \r\n        treasury = owner();       \r\n    }\r\n\r\n    /**\r\n        Updates investment and time limits for Verified Liquidity token after initial issue with constructor defined parameters\r\n        @param  _cap    investment limit for each investor\r\n        @param  _limit  time limit for issue close \r\n     */\r\n    function createSupply(uint256 _cap, uint256 _limit) external onlyOwner {\r\n        investmentCap = _cap;\r\n        timeLimit = _limit;\r\n    }\r\n\r\n    /**\r\n        Specifies list of supported tokens that can be invested in the Verified Liquidity token\r\n        @param  _token  address of token supported\r\n        @param  _name   name of token supported\r\n     */\r\n    function supportTokens(address _token, string memory _name) external onlyOwner {\r\n        if(tokenIndex[_token]==0){\r\n            ILiquidity.token memory t = ILiquidity.token({\r\n                tokenName: _name,\r\n                tokenAddress: _token\r\n            });\r\n            tokens.push(t);\r\n            tokenIndex[_token] = tokens.length;\r\n            emit SupportToken(_token, _name);\r\n        }\r\n    }\r\n\r\n    /**\r\n        Checks if a specified token is supported for investing in the Verified Liquidity token\r\n        @param  _token  token that is supported for investment\r\n     */\r\n    function checkSupportForToken(address _token) external view returns(bool){\r\n        if(tokenIndex[_token]>0)\r\n            return true;\r\n        else\r\n            return false;\r\n    }\r\n\r\n    /**\r\n        Returns list of supported tokens\r\n     */\r\n    function getSupportedTokens() external view returns(ILiquidity.token[] memory){\r\n        return tokens;\r\n    }\r\n\r\n    /**\r\n        Registers a liquidity platform (eg, DEX) where Verified Liquidity tokens can be used to underwrite investments\r\n        @param  _liquidityPlatform  address of the market making platform\r\n        @param  _platformName       name of market making platform\r\n     */\r\n    function registerPlatform(address _liquidityPlatform, bytes32 _platformName) external onlyOwner {\r\n        if(platformIndex[_liquidityPlatform]==0){\r\n            ILiquidity.platform memory p = ILiquidity.platform({\r\n                platformName: _platformName,\r\n                platformAddress: _liquidityPlatform\r\n            });\r\n            platforms.push(p);\r\n            platformIndex[_liquidityPlatform] = platforms.length;\r\n            emit RegisterPlatform(_liquidityPlatform, _platformName);\r\n        }\r\n    }\r\n    \r\n    /**\r\n        Gets list of registered platforms\r\n     */\r\n    function getPlatforms() external view returns(ILiquidity.platform[] memory){\r\n        return platforms;\r\n    }\r\n\r\n    /**\r\n        Adds asset manager for managing liquidity\r\n        @param  _platform   address of market making platform (eg, Balancer)\r\n        @param  _manager    address of asset manager\r\n     */\r\n    function addManager(address _platform, address _manager) external onlyOwner {\r\n        if(managerIndex[_platform][_manager]==0){\r\n            managers[_platform].push(_manager);\r\n            managerIndex[_platform][_manager] = managers[_platform].length;\r\n            emit PlatformManagers(_platform, _manager);\r\n        }\r\n    } \r\n\r\n    /**\r\n        Removes asset manager for managing liquidity on platform\r\n        @param  _platform   address of market making platform\r\n        @param  _manager    address of asset manager\r\n     */\r\n    function removeManager(address _platform, address _manager) external onlyOwner {\r\n        bool found = false;\r\n        if(managerIndex[_platform][_manager]!=0){\r\n            uint length = managers[_platform].length;\r\n            for(uint i=0; i<length; i++){\r\n                if(managers[_platform][i]==_manager){\r\n                    if(i==managers[_platform].length-1){\r\n                       delete managers[_platform][i];\r\n                       managerIndex[_platform][_manager] = 0;\r\n                    }\r\n                    else{\r\n                       managers[_platform][i]=managers[_platform][i+1];\r\n                       managerIndex[_platform][managers[_platform][i]] = managerIndex[_platform][managers[_platform][i]] - 1;\r\n                    }\r\n                    found = true;\r\n                }\r\n                else if(found){\r\n                    if(i==managers[_platform].length-1){\r\n                       delete managers[_platform][i];\r\n                       managerIndex[_platform][_manager] = 0;\r\n                    }\r\n                    else{\r\n                       managers[_platform][i]=managers[_platform][i+1];\r\n                       managerIndex[_platform][managers[_platform][i]] = managerIndex[_platform][managers[_platform][i]] - 1;\r\n                    }\r\n                }\r\n            }\r\n        }\r\n    }\r\n\r\n    /**\r\n        Gets asset managers for managing liquidity\r\n        @param  _platform   address of market making platform\r\n     */\r\n    function getManagers(address _platform) external view onlyOwner returns(address[] memory){\r\n        return managers[_platform];\r\n    }\r\n    event investorAdded(address LP);\r\n    function saveInvestor(address investor) private {\r\n        bool found = false;\r\n        uint length = tokens.length;\r\n        for(uint256 i=0; i<length; i++){\r\n            if(investors[investor][tokens[i].tokenAddress].tokenAmount > 0)\r\n                found = true;\r\n        }\r\n        if(!found){\r\n            LPs.push(investor);\r\n            emit investorAdded(investor);\r\n        }\r\n    }\r\n\r\n    /**\r\n        Receiver of ether invested in the Verified Liquidity token\r\n     */\r\n    receive() external payable{\r\n        //if(timeLimit!=0)\r\n        //    require(timeLimit > block.timestamp, \"Subscription window breached\");\r\n        //ether paid in\r\n        require(msg.value !=0, \"Zero eth sent\");\r\n        //contract must not be paused\r\n        require(paused() == false, \"Contract in paused state\");\r\n        //block reentrants\r\n        require(!lock[\"etherreceipt\"], \"Locked to avoid reentrancy\");\r\n        lock[\"etherreceipt\"] = true;\r\n        //issue liquidity token        \r\n        if(investors[msg.sender][address(0x0)].tokenAmount==0){\r\n            ILiquidity.provider memory lp = ILiquidity.provider({\r\n                assetInvested: string(\"ether\"),\r\n                investorAddress: msg.sender\r\n            });\r\n            providers.push(lp);\r\n        }\r\n        if(LPIndex[msg.sender]==0){\r\n            LPs.push(msg.sender);\r\n            LPIndex[msg.sender] = LPs.length;\r\n        }\r\n        //saveInvestor(msg.sender);\r\n        investors[msg.sender][address(0x0)].tokenAmount = SafeMath.add(investors[msg.sender][address(0x0)].tokenAmount, msg.value);\r\n        emit RequestIssue(msg.sender, address(0x0), msg.value);\r\n        lock[\"etherreceipt\"] = false;\r\n    }\r\n\r\n    /**\r\n        Used by external apps (eg, exchange, wallet) to buy Verified Liquidity token \r\n        @param  _token  address of token used by investor to buy the VITTA\r\n        @param  _amount amount of token that is transferred from investor to this VITTA issuing contract's account for the investor\r\n     */\r\n    function buy(address _token, uint256 _amount) external {\r\n        //if(timeLimit!=0)\r\n        //    require(timeLimit > block.timestamp, \"Subscription window breached\");\r\n        require(paused() == false, \"Contract in paused state\");\r\n        bool found = false;\r\n        if(tokenIndex[_token]>0)\r\n            found = true;\r\n        if(found){\r\n            require(!lock[\"buy\"], \"Locked to prevent reentrancy\");\r\n            lock[\"buy\"] = true;\r\n            if(IERC20(_token).transferFrom(msg.sender, address(this), _amount)){\r\n                emit RequestIssue(msg.sender, _token, _amount);\r\n                if(LPIndex[msg.sender]==0){\r\n                    LPs.push(msg.sender);\r\n                    LPIndex[msg.sender] = LPs.length;\r\n                }\r\n                if(investors[msg.sender][_token].tokenAmount==0){\r\n                    ILiquidity.provider memory lp = ILiquidity.provider({\r\n                        assetInvested: ERC20(_token).name(),\r\n                        investorAddress: msg.sender\r\n                    });\r\n                    providers.push(lp);\r\n                }\r\n                investors[msg.sender][_token].tokenAmount = SafeMath.add(investors[msg.sender][_token].tokenAmount, _amount);\r\n                investors[msg.sender][_token].tokenAddress = _token;                \r\n                //saveInvestor(msg.sender);\r\n                if(exchangeRate[_token]!=0){\r\n                    issueVitta(msg.sender, _token, _amount, FixedPoint.mulDown(exchangeRate[_token], _amount), owner());\r\n                    emit RequestRate(_token, exchangeRate[_token]);\r\n                }\r\n            }\r\n            lock[\"buy\"] = false;\r\n        }\r\n    }\r\n\r\n    /**\r\n        Fetches investors in VITTA\r\n     */\r\n    function getInvestors() external view onlyOwner returns(ILiquidity.provider[] memory){\r\n        return providers;\r\n    }\r\n\r\n    /**\r\n        Fetches investment detail for specific investor in VITTA\r\n        @param  _investor   address of investor\r\n        @param  _token      address of token invested by investor\r\n     */\r\n    function getInvestment(address _investor, address _token) external view onlyOwner returns(uint256){\r\n        return (investors[_investor][_token].tokenAmount);\r\n    }\r\n    \r\n    /**\r\n        Used by admin to issue VITTA to investors or refund paid in tokens to investors if investment cap is breached\r\n        @param  _investor       address of investor\r\n        @param  _token          address of token invested in VITTA\r\n        @param  _tokenAmount    amount of token invested in VITTA\r\n        @param  _LPToIssue      amount of VITTA to issue to investor \r\n     */\r\n    function issue(address _investor, address _token, uint256 _tokenAmount, uint256 _LPToIssue) external onlyOwner {\r\n        issueVitta(_investor, _token, _tokenAmount, _LPToIssue, msg.sender);\r\n    }\r\n    \r\n    function issueVitta(address _investor, address _token, uint256 _tokenAmount, uint256 _LPToIssue, address _issuer) private {\r\n        require(!lock[\"issue\"], \"Locked to prevent renentrancy\");\r\n        lock[\"issue\"] = true;\r\n        investors[_investor][_token].tokenAmount = SafeMath.sub(investors[_investor][_token].tokenAmount, _tokenAmount);\r\n        //If investment is outside limits, refund tokens invested back to investor\r\n        if((_LPToIssue > investmentCap) || (_LPToIssue > SafeMath.sub(IERC20(vitta).totalSupply(), totalIssued))){\r\n            //if(keccak256(abi.encodePacked(_tokenName))!=\"ether\")\r\n            if(investors[_investor][_token].tokenAddress!=address(0x0))\r\n                IERC20(investors[_investor][_token].tokenAddress).transfer(_investor, _tokenAmount);\r\n            else\r\n                payable(_investor).transfer(_tokenAmount);\r\n        }\r\n        //else issue VITTA to investor and transfer managed liquidity to deployer that allocates it to issuer\r\n        else{\r\n            IERC20(vitta).transferFrom(_issuer, _investor, _LPToIssue);  \r\n            totalIssued = SafeMath.add(totalIssued, _LPToIssue);    \r\n            stakes[_investor] = SafeMath.add(stakes[_investor], _LPToIssue);\r\n            emit IssuedVitta(_investor, investors[_investor][_token].tokenAddress, _tokenAmount, _LPToIssue);\r\n            //if(keccak256(abi.encodePacked(_tokenName))!=\"ether\"){\r\n            if(investors[_investor][_token].tokenAddress!=address(0x0))\r\n                IERC20(investors[_investor][_token].tokenAddress).transfer(treasury, FixedPoint.mulDown(_tokenAmount, liquidityShare));\r\n            else\r\n                payable(treasury).transfer(FixedPoint.mulDown(_tokenAmount, liquidityShare));\r\n        }        \r\n        lock[\"issue\"] = false;\r\n    }\r\n    \r\n    /**\r\n        Provides staked VITTA to asset managers based on prior liquidity consumed and commission earned \r\n        @param  _platform   address of platform on which liquidity has to be provided\r\n        @param  _manager    address of asset manager to whom liquidity has to be provided\r\n        @param  _liquidity  amount of VITTA tokens to allot to an asset manager\r\n        @param  _token      address of token allotted to asset manager\r\n        @param  _tokenAmount    amount of token allotted to asset manager\r\n     */    \r\n    function provideLiquidity(address _platform, address _manager, uint256 _liquidity, address _token, uint256 _tokenAmount) external onlyOwner {\r\n        require(!lock[\"liquidity\"], \"Locked to prevent reentrancy\");\r\n        lock[\"liquidity\"] = true;\r\n        require(paused() == false, \"Contract in paused state\");\r\n        require(managerIndex[_platform][_manager]!=0, \"Manager does not exist\");\r\n        //provide liquidity in native tokens invested by LPs\r\n        if(_token!=address(0x0)) //not ether\r\n            IERC20(_token).transfer(_platform, _tokenAmount);\r\n        else //if ether\r\n            require(payable(_platform).send(_tokenAmount), \"Transfer failed\");    \r\n        IMarketMaker(_platform).stake(_tokenAmount, _token, _manager);\r\n        emit PlatformLiquidity(_platform, _manager, _liquidity, _token, _tokenAmount);\r\n        platformRoi[_platform].liquidityProvided = SafeMath.add(platformRoi[_platform].liquidityProvided, _liquidity);\r\n        uint256 index = managerIndex[_platform][_manager];\r\n        managerRoi[_platform][_token][index].liquidityProvided = SafeMath.add(managerRoi[_platform][_token][index].liquidityProvided, _tokenAmount);\r\n        lock[\"liquidity\"] = false;\r\n    }\r\n\r\n    /**\r\n        Pay out of income by Market maker contracts to VITTA Liquidity providers\r\n        @param  _distribution   amount of VITTA to mint and distribute pro rata to liquidity providers\r\n        @param  _token          address of token in which distribution is made by market maker    \r\n        @param  _manager        address of asset manager earning the paid out return on investment \r\n     */\r\n    function distribute(uint256 _distribution, address _token, address _manager) external {\r\n        require(platformIndex[msg.sender]>0, \"Liquidity pool does not exist\");\r\n        require(tokenIndex[_token]>0, \"Unsupported token\");\r\n        require(paused() == false, \"Contract in paused state\");\r\n        require(!lock[\"distribute\"], \"Locked to prevent reentrancy\");\r\n        lock[\"distribute\"] = true;\r\n        uint256 index = managerIndex[msg.sender][_manager];\r\n        if(totalIssued!=0 && index!=0){            \r\n            managerRoi[msg.sender][_token][index].commissionsEarned = SafeMath.add(managerRoi[msg.sender][_token][index].commissionsEarned, _distribution);\r\n            emit ManagerReturns(msg.sender, _manager, _token, _distribution);\r\n        }\r\n        lock[\"distribute\"] = false;\r\n    }\r\n\r\n    /**\r\n        Fetches performance of market platform platform\r\n        @param  _platform   address of market making platform\r\n     */\r\n    function getPlatformPerformance(address _platform) external view onlyOwner returns(uint256 platformLiquidityProvided,\r\n                                                                                        uint256 platformCommissionsEarned){                                                                                        \r\n        return (platformRoi[_platform].liquidityProvided, platformRoi[_platform].commissionsEarned);\r\n    }\r\n\r\n    /**\r\n        Fetches performance of asset managers\r\n        @param  _platform   address of platform\r\n        @param  _token      address of token\r\n        @param  _manager    address of asset manager on platform\r\n     */\r\n    function getManagerPerformance(address _platform, address _token, address _manager) external view onlyOwner returns(uint256 managerLiquidityProvided,\r\n                                                                                    uint256 managerCommissionsEarned){\r\n        uint256 index = managerIndex[_platform][_manager];                                                                                \r\n        return (managerRoi[_platform][_token][index].liquidityProvided, managerRoi[_platform][_token][index].commissionsEarned);\r\n    }\r\n    event paidOut(uint256 LP, uint256 amount);\r\n    /**\r\n        Pay out income to VITTA Liquidity providers\r\n        @param  _distribution   amount of VITTA to mint and distribute pro rata to liquidity providers   \r\n        @param  _platform       address of platform on which commission is earned based on which distribution is made\r\n     */\r\n    function payOut(uint256 _distribution, address _platform) onlyOwner external {\r\n        require(!lock[\"payout\"], \"Locked to prevent renentrancy\");\r\n        lock[\"payout\"] = true;\r\n        IVitta(vitta).mint(address(this), _distribution);\r\n        platformRoi[_platform].commissionsEarned = SafeMath.add(platformRoi[_platform].commissionsEarned, _distribution);\r\n        emit PlatformReturns(_platform, vitta, _distribution);\r\n        uint length = LPs.length;\r\n        uint issued = totalIssued;\r\n        emit paidOut(length, issued);\r\n        for(uint i=0; i<length; i++){\r\n            uint256 prorataStake = FixedPoint.mulDown(FixedPoint.divDown(stakes[LPs[i]], issued), _distribution);\r\n            IERC20(vitta).transfer(LPs[i], prorataStake);   \r\n            emit InvestorReturns(_platform, LPs[i], vitta, prorataStake);\r\n            totalIssued = SafeMath.add(totalIssued, prorataStake);    \r\n            stakes[LPs[i]] = SafeMath.add(stakes[LPs[i]], prorataStake);             \r\n        }\r\n        lock[\"payout\"] = false;\r\n    }\r\n\r\n    function balance(address investor) external view returns(uint256 investorBalance){\r\n        return IERC20(vitta).balanceOf(investor);\r\n    }\r\n\r\n    /**\r\n        Adjust stakes for every transfer of Vitta\r\n        @param  sender      transferor of Vitta\r\n        @param  recipient   transferee of vitta\r\n        @param  amount      amount of vitta transferred\r\n     */\r\n    function transfer(address sender, address recipient, uint256 amount) external {\r\n        require(msg.sender==vitta, \"Unauthorized sender\");\r\n        require(stakes[sender]>=amount, \"Insufficient balance\");\r\n        saveInvestor(recipient);\r\n        stakes[recipient] = SafeMath.add(stakes[recipient], amount);\r\n        stakes[sender] = SafeMath.sub(stakes[sender], amount);\r\n    }\r\n\r\n    /**\r\n        Pauses this contract\r\n     */\r\n    function pause() public onlyOwner {\r\n        _pause();\r\n    }\r\n    \r\n    /**\r\n        Unpauses this contract\r\n     */\r\n    function unpause() public onlyOwner {\r\n        _unpause();\r\n    }\r\n\r\n    function setOracle(address _oracle) public onlyOwner {\r\n        oracle = _oracle;\r\n    }\r\n    \r\n    function setExchangeRate(address token, uint256 rate) public onlyOracle(msg.sender) {\r\n        if(tokenIndex[token]>0){\r\n            exchangeRate[token] = rate;\r\n        }\r\n    }\r\n\r\n    function setTreasurer(address _treasurer) public onlyTreasurer(msg.sender){\r\n        treasury = _treasurer;\r\n    }\r\n\r\n    /**\r\n     * @dev Returns a scaling factor that, when multiplied to a token amount for `token`, normalizes its balance as if\r\n     * it had 18 decimals.\r\n     */\r\n    function _computeScalingFactor(IERC20 token) internal view returns (uint256) {\r\n        // Tokens that don't implement the `decimals` method are not supported.\r\n        uint256 tokenDecimals = ERC20(address(token)).decimals();\r\n\r\n        // Tokens with more than 18 decimals are not supported.\r\n        uint256 decimalsDifference = Math.sub(18, tokenDecimals);\r\n        return FixedPoint.ONE * 10**decimalsDifference;\r\n    }\r\n\r\n    /**\r\n     * @dev Reverses the `scalingFactor` applied to `amount`, resulting in a smaller or equal value depending on\r\n     * whether it needed scaling or not. The result is rounded down.\r\n     */\r\n    function _downscaleDown(uint256 amount, uint256 scalingFactor) internal pure returns (uint256) {\r\n        return FixedPoint.divDown(amount, scalingFactor);\r\n    }\r\n\r\n    /**\r\n     * @dev Applies `scalingFactor` to `amount`, resulting in a larger or equal value depending on whether it needed\r\n     * scaling or not.\r\n     */\r\n    function _upscale(uint256 amount, uint256 scalingFactor) internal pure returns (uint256) {\r\n        // Upscale rounding wouldn't necessarily always go in the same direction: in a swap for example the balance of\r\n        // token in should be rounded up, and that of token out rounded down. This is the only place where we round in\r\n        // the same direction for all amounts, as the impact of this rounding is expected to be minimal (and there's no\r\n        // rounding error unless `_scalingFactor()` is overriden).\r\n        return FixedPoint.mulDown(amount, scalingFactor);\r\n    }\r\n    \r\n}\r\n\r\n",
  "sourcePath": "D:\\Code\\verified-liquidity\\verified\\contracts\\Liquidity.sol",
  "compiler": {
    "name": "solc",
    "version": "0.8.0+commit.c7dfd78e.Emscripten.clang"
  },
  "schemaVersion": "3.4.3",
  "updatedAt": "2023-06-19T00:51:26.862Z",
  "networkType": "ethereum",
  "devdoc": {
    "kind": "dev",
    "methods": {
      "addManager(address,address)": {
        "params": {
          "_manager": "address of asset manager",
          "_platform": "address of market making platform (eg, Balancer)"
        }
      },
      "buy(address,uint256)": {
        "params": {
          "_amount": "amount of token that is transferred from investor to this VITTA issuing contract's account for the investor",
          "_token": "address of token used by investor to buy the VITTA"
        }
      },
      "checkSupportForToken(address)": {
        "params": {
          "_token": "token that is supported for investment"
        }
      },
      "constructor": {
        "params": {
          "_cap": "investment limit for each investor",
          "_limit": "time limit for issue close",
          "_vitta": "address of Verified liquidity token"
        }
      },
      "createSupply(uint256,uint256)": {
        "params": {
          "_cap": "investment limit for each investor",
          "_limit": "time limit for issue close "
        }
      },
      "distribute(uint256,address,address)": {
        "params": {
          "_distribution": "amount of VITTA to mint and distribute pro rata to liquidity providers",
          "_manager": "address of asset manager earning the paid out return on investment ",
          "_token": "address of token in which distribution is made by market maker    "
        }
      },
      "getInvestment(address,address)": {
        "params": {
          "_investor": "address of investor",
          "_token": "address of token invested by investor"
        }
      },
      "getManagerPerformance(address,address,address)": {
        "params": {
          "_manager": "address of asset manager on platform",
          "_platform": "address of platform",
          "_token": "address of token"
        }
      },
      "getManagers(address)": {
        "params": {
          "_platform": "address of market making platform"
        }
      },
      "getPlatformPerformance(address)": {
        "params": {
          "_platform": "address of market making platform"
        }
      },
      "issue(address,address,uint256,uint256)": {
        "params": {
          "_LPToIssue": "amount of VITTA to issue to investor ",
          "_investor": "address of investor",
          "_token": "address of token invested in VITTA",
          "_tokenAmount": "amount of token invested in VITTA"
        }
      },
      "owner()": {
        "details": "Returns the address of the current owner."
      },
      "paused()": {
        "details": "Returns true if the contract is paused, and false otherwise."
      },
      "payOut(uint256,address)": {
        "params": {
          "_distribution": "amount of VITTA to mint and distribute pro rata to liquidity providers   ",
          "_platform": "address of platform on which commission is earned based on which distribution is made"
        }
      },
      "provideLiquidity(address,address,uint256,address,uint256)": {
        "params": {
          "_liquidity": "amount of VITTA tokens to allot to an asset manager",
          "_manager": "address of asset manager to whom liquidity has to be provided",
          "_platform": "address of platform on which liquidity has to be provided",
          "_token": "address of token allotted to asset manager",
          "_tokenAmount": "amount of token allotted to asset manager"
        }
      },
      "registerPlatform(address,bytes32)": {
        "params": {
          "_liquidityPlatform": "address of the market making platform",
          "_platformName": "name of market making platform"
        }
      },
      "removeManager(address,address)": {
        "params": {
          "_manager": "address of asset manager",
          "_platform": "address of market making platform"
        }
      },
      "renounceOwnership()": {
        "details": "Leaves the contract without owner. It will not be possible to call `onlyOwner` functions anymore. Can only be called by the current owner. NOTE: Renouncing ownership will leave the contract without an owner, thereby removing any functionality that is only available to the owner."
      },
      "supportTokens(address,string)": {
        "params": {
          "_name": "name of token supported",
          "_token": "address of token supported"
        }
      },
      "transfer(address,address,uint256)": {
        "params": {
          "amount": "amount of vitta transferred",
          "recipient": "transferee of vitta",
          "sender": "transferor of Vitta"
        }
      },
      "transferOwnership(address)": {
        "details": "Transfers ownership of the contract to a new account (`newOwner`). Can only be called by the current owner."
      }
    },
    "version": 1
  },
  "userdoc": {
    "kind": "user",
    "methods": {
      "addManager(address,address)": {
        "notice": "Adds asset manager for managing liquidity"
      },
      "buy(address,uint256)": {
        "notice": "Used by external apps (eg, exchange, wallet) to buy Verified Liquidity token "
      },
      "checkSupportForToken(address)": {
        "notice": "Checks if a specified token is supported for investing in the Verified Liquidity token"
      },
      "constructor": {
        "notice": "Constructor for the Verified Liquidity manager"
      },
      "createSupply(uint256,uint256)": {
        "notice": "Updates investment and time limits for Verified Liquidity token after initial issue with constructor defined parameters"
      },
      "distribute(uint256,address,address)": {
        "notice": "Pay out of income by Market maker contracts to VITTA Liquidity providers"
      },
      "getInvestment(address,address)": {
        "notice": "Fetches investment detail for specific investor in VITTA"
      },
      "getInvestors()": {
        "notice": "Fetches investors in VITTA"
      },
      "getManagerPerformance(address,address,address)": {
        "notice": "Fetches performance of asset managers"
      },
      "getManagers(address)": {
        "notice": "Gets asset managers for managing liquidity"
      },
      "getPlatformPerformance(address)": {
        "notice": "Fetches performance of market platform platform"
      },
      "getPlatforms()": {
        "notice": "Gets list of registered platforms"
      },
      "getSupportedTokens()": {
        "notice": "Returns list of supported tokens"
      },
      "issue(address,address,uint256,uint256)": {
        "notice": "Used by admin to issue VITTA to investors or refund paid in tokens to investors if investment cap is breached"
      },
      "pause()": {
        "notice": "Pauses this contract"
      },
      "payOut(uint256,address)": {
        "notice": "Pay out income to VITTA Liquidity providers"
      },
      "provideLiquidity(address,address,uint256,address,uint256)": {
        "notice": "Provides staked VITTA to asset managers based on prior liquidity consumed and commission earned "
      },
      "registerPlatform(address,bytes32)": {
        "notice": "Registers a liquidity platform (eg, DEX) where Verified Liquidity tokens can be used to underwrite investments"
      },
      "removeManager(address,address)": {
        "notice": "Removes asset manager for managing liquidity on platform"
      },
      "supportTokens(address,string)": {
        "notice": "Specifies list of supported tokens that can be invested in the Verified Liquidity token"
      },
      "transfer(address,address,uint256)": {
        "notice": "Adjust stakes for every transfer of Vitta"
      },
      "unpause()": {
        "notice": "Unpauses this contract"
      }
    },
    "version": 1
  }
}