{
  "contractName": "Liquidity",
  "abi": [
    {
      "inputs": [
        {
          "internalType": "uint256",
          "name": "_cap",
          "type": "uint256"
        },
        {
          "internalType": "uint256",
          "name": "_limit",
          "type": "uint256"
        },
        {
          "internalType": "uint256",
          "name": "_share",
          "type": "uint256"
        },
        {
          "internalType": "address",
          "name": "_vitta",
          "type": "address"
        }
      ],
      "stateMutability": "nonpayable",
      "type": "constructor"
    },
    {
      "anonymous": false,
      "inputs": [
        {
          "indexed": true,
          "internalType": "address",
          "name": "platform",
          "type": "address"
        },
        {
          "indexed": true,
          "internalType": "address",
          "name": "investor",
          "type": "address"
        },
        {
          "indexed": false,
          "internalType": "address",
          "name": "vitta",
          "type": "address"
        },
        {
          "indexed": false,
          "internalType": "uint256",
          "name": "prorataStake",
          "type": "uint256"
        }
      ],
      "name": "InvestorReturns",
      "type": "event"
    },
    {
      "anonymous": false,
      "inputs": [
        {
          "indexed": true,
          "internalType": "address",
          "name": "investor",
          "type": "address"
        },
        {
          "indexed": false,
          "internalType": "address",
          "name": "token",
          "type": "address"
        },
        {
          "indexed": false,
          "internalType": "uint256",
          "name": "tokenAmount",
          "type": "uint256"
        },
        {
          "indexed": false,
          "internalType": "uint256",
          "name": "LPToIssue",
          "type": "uint256"
        }
      ],
      "name": "IssuedVitta",
      "type": "event"
    },
    {
      "anonymous": false,
      "inputs": [
        {
          "indexed": true,
          "internalType": "address",
          "name": "platform",
          "type": "address"
        },
        {
          "indexed": true,
          "internalType": "address",
          "name": "manager",
          "type": "address"
        },
        {
          "indexed": false,
          "internalType": "address",
          "name": "token",
          "type": "address"
        },
        {
          "indexed": false,
          "internalType": "uint256",
          "name": "distribution",
          "type": "uint256"
        }
      ],
      "name": "ManagerReturns",
      "type": "event"
    },
    {
      "anonymous": false,
      "inputs": [
        {
          "indexed": true,
          "internalType": "address",
          "name": "previousOwner",
          "type": "address"
        },
        {
          "indexed": true,
          "internalType": "address",
          "name": "newOwner",
          "type": "address"
        }
      ],
      "name": "OwnershipTransferred",
      "type": "event"
    },
    {
      "anonymous": false,
      "inputs": [
        {
          "indexed": false,
          "internalType": "address",
          "name": "account",
          "type": "address"
        }
      ],
      "name": "Paused",
      "type": "event"
    },
    {
      "anonymous": false,
      "inputs": [
        {
          "indexed": true,
          "internalType": "address",
          "name": "platform",
          "type": "address"
        },
        {
          "indexed": false,
          "internalType": "address",
          "name": "manager",
          "type": "address"
        },
        {
          "indexed": false,
          "internalType": "uint256",
          "name": "LPToken",
          "type": "uint256"
        },
        {
          "indexed": false,
          "internalType": "address",
          "name": "token",
          "type": "address"
        },
        {
          "indexed": false,
          "internalType": "uint256",
          "name": "tokenAmount",
          "type": "uint256"
        }
      ],
      "name": "PlatformLiquidity",
      "type": "event"
    },
    {
      "anonymous": false,
      "inputs": [
        {
          "indexed": true,
          "internalType": "address",
          "name": "platform",
          "type": "address"
        },
        {
          "indexed": false,
          "internalType": "address",
          "name": "manager",
          "type": "address"
        }
      ],
      "name": "PlatformManagers",
      "type": "event"
    },
    {
      "anonymous": false,
      "inputs": [
        {
          "indexed": true,
          "internalType": "address",
          "name": "platform",
          "type": "address"
        },
        {
          "indexed": false,
          "internalType": "address",
          "name": "vitta",
          "type": "address"
        },
        {
          "indexed": false,
          "internalType": "uint256",
          "name": "distribution",
          "type": "uint256"
        }
      ],
      "name": "PlatformReturns",
      "type": "event"
    },
    {
      "anonymous": false,
      "inputs": [
        {
          "indexed": true,
          "internalType": "address",
          "name": "platform",
          "type": "address"
        },
        {
          "indexed": false,
          "internalType": "bytes32",
          "name": "platformName",
          "type": "bytes32"
        }
      ],
      "name": "RegisterPlatform",
      "type": "event"
    },
    {
      "anonymous": false,
      "inputs": [
        {
          "indexed": true,
          "internalType": "address",
          "name": "investor",
          "type": "address"
        },
        {
          "indexed": false,
          "internalType": "address",
          "name": "token",
          "type": "address"
        },
        {
          "indexed": false,
          "internalType": "uint256",
          "name": "tokenAmount",
          "type": "uint256"
        }
      ],
      "name": "RequestIssue",
      "type": "event"
    },
    {
      "anonymous": false,
      "inputs": [
        {
          "indexed": true,
          "internalType": "address",
          "name": "token",
          "type": "address"
        },
        {
          "indexed": false,
          "internalType": "uint256",
          "name": "amount",
          "type": "uint256"
        }
      ],
      "name": "RequestRate",
      "type": "event"
    },
    {
      "anonymous": false,
      "inputs": [
        {
          "indexed": true,
          "internalType": "address",
          "name": "token",
          "type": "address"
        },
        {
          "indexed": false,
          "internalType": "string",
          "name": "tokenName",
          "type": "string"
        }
      ],
      "name": "SupportToken",
      "type": "event"
    },
    {
      "anonymous": false,
      "inputs": [
        {
          "indexed": false,
          "internalType": "address",
          "name": "account",
          "type": "address"
        }
      ],
      "name": "Unpaused",
      "type": "event"
    },
    {
      "anonymous": false,
      "inputs": [
        {
          "indexed": false,
          "internalType": "uint256",
          "name": "amount",
          "type": "uint256"
        }
      ],
      "name": "cap",
      "type": "event"
    },
    {
      "anonymous": false,
      "inputs": [
        {
          "indexed": false,
          "internalType": "address",
          "name": "LP",
          "type": "address"
        }
      ],
      "name": "investorAdded",
      "type": "event"
    },
    {
      "anonymous": false,
      "inputs": [
        {
          "indexed": false,
          "internalType": "uint256",
          "name": "LP",
          "type": "uint256"
        },
        {
          "indexed": false,
          "internalType": "uint256",
          "name": "amount",
          "type": "uint256"
        }
      ],
      "name": "paidOut",
      "type": "event"
    },
    {
      "inputs": [],
      "name": "owner",
      "outputs": [
        {
          "internalType": "address",
          "name": "",
          "type": "address"
        }
      ],
      "stateMutability": "view",
      "type": "function",
      "constant": true
    },
    {
      "inputs": [],
      "name": "paused",
      "outputs": [
        {
          "internalType": "bool",
          "name": "",
          "type": "bool"
        }
      ],
      "stateMutability": "view",
      "type": "function",
      "constant": true
    },
    {
      "inputs": [],
      "name": "renounceOwnership",
      "outputs": [],
      "stateMutability": "nonpayable",
      "type": "function"
    },
    {
      "inputs": [
        {
          "internalType": "address",
          "name": "newOwner",
          "type": "address"
        }
      ],
      "name": "transferOwnership",
      "outputs": [],
      "stateMutability": "nonpayable",
      "type": "function"
    },
    {
      "stateMutability": "payable",
      "type": "receive",
      "payable": true
    },
    {
      "inputs": [
        {
          "internalType": "uint256",
          "name": "_cap",
          "type": "uint256"
        },
        {
          "internalType": "uint256",
          "name": "_limit",
          "type": "uint256"
        }
      ],
      "name": "createSupply",
      "outputs": [],
      "stateMutability": "nonpayable",
      "type": "function"
    },
    {
      "inputs": [
        {
          "internalType": "address",
          "name": "_token",
          "type": "address"
        },
        {
          "internalType": "string",
          "name": "_name",
          "type": "string"
        }
      ],
      "name": "supportTokens",
      "outputs": [],
      "stateMutability": "nonpayable",
      "type": "function"
    },
    {
      "inputs": [
        {
          "internalType": "address",
          "name": "_token",
          "type": "address"
        }
      ],
      "name": "checkSupportForToken",
      "outputs": [
        {
          "internalType": "bool",
          "name": "",
          "type": "bool"
        }
      ],
      "stateMutability": "view",
      "type": "function",
      "constant": true
    },
    {
      "inputs": [],
      "name": "getSupportedTokens",
      "outputs": [
        {
          "components": [
            {
              "internalType": "string",
              "name": "tokenName",
              "type": "string"
            },
            {
              "internalType": "address",
              "name": "tokenAddress",
              "type": "address"
            }
          ],
          "internalType": "struct ILiquidity.token[]",
          "name": "",
          "type": "tuple[]"
        }
      ],
      "stateMutability": "view",
      "type": "function",
      "constant": true
    },
    {
      "inputs": [
        {
          "internalType": "address",
          "name": "_liquidityPlatform",
          "type": "address"
        },
        {
          "internalType": "bytes32",
          "name": "_platformName",
          "type": "bytes32"
        }
      ],
      "name": "registerPlatform",
      "outputs": [],
      "stateMutability": "nonpayable",
      "type": "function"
    },
    {
      "inputs": [],
      "name": "getPlatforms",
      "outputs": [
        {
          "components": [
            {
              "internalType": "bytes32",
              "name": "platformName",
              "type": "bytes32"
            },
            {
              "internalType": "address",
              "name": "platformAddress",
              "type": "address"
            }
          ],
          "internalType": "struct ILiquidity.platform[]",
          "name": "",
          "type": "tuple[]"
        }
      ],
      "stateMutability": "view",
      "type": "function",
      "constant": true
    },
    {
      "inputs": [
        {
          "internalType": "address",
          "name": "_platform",
          "type": "address"
        },
        {
          "internalType": "address",
          "name": "_manager",
          "type": "address"
        }
      ],
      "name": "addManager",
      "outputs": [],
      "stateMutability": "nonpayable",
      "type": "function"
    },
    {
      "inputs": [
        {
          "internalType": "address",
          "name": "_platform",
          "type": "address"
        },
        {
          "internalType": "address",
          "name": "_manager",
          "type": "address"
        }
      ],
      "name": "removeManager",
      "outputs": [],
      "stateMutability": "nonpayable",
      "type": "function"
    },
    {
      "inputs": [
        {
          "internalType": "address",
          "name": "_platform",
          "type": "address"
        }
      ],
      "name": "getManagers",
      "outputs": [
        {
          "internalType": "address[]",
          "name": "",
          "type": "address[]"
        }
      ],
      "stateMutability": "view",
      "type": "function",
      "constant": true
    },
    {
      "inputs": [
        {
          "internalType": "address",
          "name": "_token",
          "type": "address"
        },
        {
          "internalType": "uint256",
          "name": "_amount",
          "type": "uint256"
        }
      ],
      "name": "buy",
      "outputs": [],
      "stateMutability": "nonpayable",
      "type": "function"
    },
    {
      "inputs": [],
      "name": "getInvestors",
      "outputs": [
        {
          "components": [
            {
              "internalType": "string",
              "name": "assetInvested",
              "type": "string"
            },
            {
              "internalType": "address",
              "name": "investorAddress",
              "type": "address"
            }
          ],
          "internalType": "struct ILiquidity.provider[]",
          "name": "",
          "type": "tuple[]"
        }
      ],
      "stateMutability": "view",
      "type": "function",
      "constant": true
    },
    {
      "inputs": [
        {
          "internalType": "address",
          "name": "_investor",
          "type": "address"
        },
        {
          "internalType": "address",
          "name": "_token",
          "type": "address"
        }
      ],
      "name": "getInvestment",
      "outputs": [
        {
          "internalType": "uint256",
          "name": "",
          "type": "uint256"
        }
      ],
      "stateMutability": "view",
      "type": "function",
      "constant": true
    },
    {
      "inputs": [
        {
          "internalType": "address",
          "name": "_investor",
          "type": "address"
        },
        {
          "internalType": "address",
          "name": "_token",
          "type": "address"
        },
        {
          "internalType": "uint256",
          "name": "_tokenAmount",
          "type": "uint256"
        },
        {
          "internalType": "uint256",
          "name": "_LPToIssue",
          "type": "uint256"
        }
      ],
      "name": "issue",
      "outputs": [],
      "stateMutability": "nonpayable",
      "type": "function"
    },
    {
      "inputs": [
        {
          "internalType": "address",
          "name": "_platform",
          "type": "address"
        },
        {
          "internalType": "address",
          "name": "_manager",
          "type": "address"
        },
        {
          "internalType": "uint256",
          "name": "_liquidity",
          "type": "uint256"
        },
        {
          "internalType": "address",
          "name": "_token",
          "type": "address"
        },
        {
          "internalType": "uint256",
          "name": "_tokenAmount",
          "type": "uint256"
        }
      ],
      "name": "provideLiquidity",
      "outputs": [],
      "stateMutability": "nonpayable",
      "type": "function"
    },
    {
      "inputs": [
        {
          "internalType": "uint256",
          "name": "_distribution",
          "type": "uint256"
        },
        {
          "internalType": "address",
          "name": "_token",
          "type": "address"
        },
        {
          "internalType": "address",
          "name": "_manager",
          "type": "address"
        }
      ],
      "name": "distribute",
      "outputs": [],
      "stateMutability": "nonpayable",
      "type": "function"
    },
    {
      "inputs": [
        {
          "internalType": "address",
          "name": "_platform",
          "type": "address"
        }
      ],
      "name": "getPlatformPerformance",
      "outputs": [
        {
          "internalType": "uint256",
          "name": "platformLiquidityProvided",
          "type": "uint256"
        },
        {
          "internalType": "uint256",
          "name": "platformCommissionsEarned",
          "type": "uint256"
        }
      ],
      "stateMutability": "view",
      "type": "function",
      "constant": true
    },
    {
      "inputs": [
        {
          "internalType": "address",
          "name": "_platform",
          "type": "address"
        },
        {
          "internalType": "address",
          "name": "_token",
          "type": "address"
        },
        {
          "internalType": "address",
          "name": "_manager",
          "type": "address"
        }
      ],
      "name": "getManagerPerformance",
      "outputs": [
        {
          "internalType": "uint256",
          "name": "managerLiquidityProvided",
          "type": "uint256"
        },
        {
          "internalType": "uint256",
          "name": "managerCommissionsEarned",
          "type": "uint256"
        }
      ],
      "stateMutability": "view",
      "type": "function",
      "constant": true
    },
    {
      "inputs": [
        {
          "internalType": "uint256",
          "name": "_distribution",
          "type": "uint256"
        },
        {
          "internalType": "address",
          "name": "_platform",
          "type": "address"
        }
      ],
      "name": "payOut",
      "outputs": [],
      "stateMutability": "nonpayable",
      "type": "function"
    },
    {
      "inputs": [
        {
          "internalType": "address",
          "name": "investor",
          "type": "address"
        }
      ],
      "name": "balance",
      "outputs": [
        {
          "internalType": "uint256",
          "name": "investorBalance",
          "type": "uint256"
        }
      ],
      "stateMutability": "view",
      "type": "function",
      "constant": true
    },
    {
      "inputs": [
        {
          "internalType": "address",
          "name": "sender",
          "type": "address"
        },
        {
          "internalType": "address",
          "name": "recipient",
          "type": "address"
        },
        {
          "internalType": "uint256",
          "name": "amount",
          "type": "uint256"
        }
      ],
      "name": "transfer",
      "outputs": [],
      "stateMutability": "nonpayable",
      "type": "function"
    },
    {
      "inputs": [],
      "name": "pause",
      "outputs": [],
      "stateMutability": "nonpayable",
      "type": "function"
    },
    {
      "inputs": [],
      "name": "unpause",
      "outputs": [],
      "stateMutability": "nonpayable",
      "type": "function"
    },
    {
      "inputs": [
        {
          "internalType": "address",
          "name": "_oracle",
          "type": "address"
        }
      ],
      "name": "setOracle",
      "outputs": [],
      "stateMutability": "nonpayable",
      "type": "function"
    },
    {
      "inputs": [
        {
          "internalType": "address",
          "name": "token",
          "type": "address"
        },
        {
          "internalType": "uint256",
          "name": "rate",
          "type": "uint256"
        }
      ],
      "name": "setExchangeRate",
      "outputs": [],
      "stateMutability": "nonpayable",
      "type": "function"
    },
    {
      "inputs": [
        {
          "internalType": "address",
          "name": "_treasurer",
          "type": "address"
        }
      ],
      "name": "setTreasurer",
      "outputs": [],
      "stateMutability": "nonpayable",
      "type": "function"
    }
  ],
  "bytecode": "0x60806040526000600755600060085560006009553480156200002057600080fd5b5060405162003ed838038062003ed8833981016040819052620000439162000129565b6200005762000051620000c6565b620000ca565b6000805460ff60a01b1916815560078590556008849055600955600c829055600a80546001600160a01b0319166001600160a01b0383161790556200009b6200011a565b600b80546001600160a01b0319166001600160a01b0392909216919091179055506200017892505050565b3390565b600080546001600160a01b038381166001600160a01b0319831681178455604051919092169283917f8be0079c531659141344cd1fd0a4f28419497f9722a3daafe3b4186f6b6457e09190a35050565b6000546001600160a01b031690565b600080600080608085870312156200013f578384fd5b845160208601516040870151606088015192965090945092506001600160a01b03811681146200016d578182fd5b939692955090935050565b613d5080620001886000396000f3fe6080604052600436106101c65760003560e01c80638513c619116100f7578063ccc241c611610095578063e4afbc6b11610064578063e4afbc6b1461076a578063f2fde38b1461078a578063f81f3ee7146107aa578063f85771b2146107ca57610429565b8063ccc241c6146106e8578063cce7ec1314610708578063d3c7c2c714610728578063e3d670d71461074a57610429565b8063bd5c5420116100d1578063bd5c54201461065b578063beabacc81461067b578063cac7495c1461069b578063cb7c4c55146106c857610429565b80638513c619146105f75780638da5cb5b14610617578063b2f5a54c1461063957610429565b806356abb19b11610164578063671d64291161013e578063671d64291461058d578063715018a6146105ad5780637adbf973146105c25780638456cb59146105e257610429565b806356abb19b1461052b5780635c975abb1461054b5780635d4f5b1c1461056d57610429565b806333060226116101a057806333060226146104a95780633f4ba83a146104d6578063451353f1146104eb5780634ea14cab1461050b57610429565b8063050616161461042e5780631fbe552e1461045057806324ef84ec1461047b57610429565b3661042957346101f15760405162461bcd60e51b81526004016101e890613a26565b60405180910390fd5b6101f96107ea565b156102165760405162461bcd60e51b81526004016101e890613963565b6b195d1a195c9c9958d95a5c1d60a21b60005260156020527fbe38316aae74f58f5ef051082b064328c72a6e9043a1834683e940927ff34bae5460ff16156102705760405162461bcd60e51b81526004016101e890613b18565b7fbe38316aae74f58f5ef051082b064328c72a6e9043a1834683e940927ff34bae805460ff19166001179055336000908152600d6020908152604080832083805290915290205461035f576040805160808101825260059181018281526432ba3432b960d91b60608301528152336020808301919091528254600181018455600093909352815180519293849360029091027f036b6384b5eca791c62761152d0c79bb0604c104a5fb6f4eb0703f3154bb3db001926103339284929101906131e2565b5060209190910151600190910180546001600160a01b0319166001600160a01b03909216919091179055505b610368336107fa565b336000908152600d6020908152604080832083805290915290205461038d9034610920565b336000818152600d6020908152604080832083805290915280822093909355915190917f8c7f6f575e260afd27b15935e0859a490411bc754e283426002c7c5ff82e844d916103de91903490613653565b60405180910390a26b195d1a195c9c9958d95a5c1d60a21b60005260156020527fbe38316aae74f58f5ef051082b064328c72a6e9043a1834683e940927ff34bae805460ff19169055005b600080fd5b34801561043a57600080fd5b5061044e610449366004613556565b610935565b005b34801561045c57600080fd5b50610465610de0565b6040516104729190613704565b60405180910390f35b34801561048757600080fd5b5061049b610496366004613292565b610e55565b604051610472929190613b9e565b3480156104b557600080fd5b506104c96104c4366004613292565b610ebc565b60405161047291906136b7565b3480156104e257600080fd5b5061044e610f72565b3480156104f757600080fd5b5061044e610506366004613578565b610fbb565b34801561051757600080fd5b5061044e610526366004613419565b6111ef565b34801561053757600080fd5b5061049b6105463660046132de565b611335565b34801561055757600080fd5b506105606107ea565b604051610472919061380f565b34801561057957600080fd5b50610560610588366004613292565b6113ca565b34801561059957600080fd5b5061044e6105a8366004613292565b6113f8565b3480156105b957600080fd5b5061044e611447565b3480156105ce57600080fd5b5061044e6105dd366004613292565b611490565b3480156105ee57600080fd5b5061044e6114f1565b34801561060357600080fd5b5061044e6106123660046132ac565b611538565b34801561062357600080fd5b5061062c611635565b604051610472919061361b565b34801561064557600080fd5b5061064e611644565b604051610472919061375c565b34801561066757600080fd5b5061044e6106763660046133f0565b61177e565b34801561068757600080fd5b5061044e610696366004613320565b6117e6565b3480156106a757600080fd5b506106bb6106b63660046132ac565b6118c4565b604051610472919061381a565b3480156106d457600080fd5b5061044e6106e336600461335b565b611931565b3480156106f457600080fd5b5061044e6107033660046133af565b611ce3565b34801561071457600080fd5b5061044e6107233660046133f0565b611d35565b34801561073457600080fd5b5061073d61216a565b60405161047291906137bc565b34801561075657600080fd5b506106bb610765366004613292565b612265565b34801561077657600080fd5b5061044e61078536600461359c565b6122e6565b34801561079657600080fd5b5061044e6107a5366004613292565b612330565b3480156107b657600080fd5b5061044e6107c53660046133f0565b6123a1565b3480156107d657600080fd5b5061044e6107e53660046132ac565b6124d7565b600054600160a01b900460ff1690565b600354600090815b81811015610891576001600160a01b0384166000908152600d60205260408120600380549192918490811061084757634e487b7160e01b600052603260045260246000fd5b60009182526020808320600160029093020191909101546001600160a01b031683528201929092526040019020541561087f57600192505b8061088981613cd3565b915050610802565b508161091b57600680546001810182556000919091527ff652222313e28459528d920b65115c16c04f3efc82aaedc97be59f3f377c0d3f0180546001600160a01b0319166001600160a01b0385161790556040517f2c385ad016af1d5b8f4eefb8aef02929aa692e7f6d846488519f2513bd7170e09061091290859061361b565b60405180910390a15b505050565b600061092c8284613bfe565b90505b92915050565b61093d612a40565b6001600160a01b031661094e611635565b6001600160a01b0316146109745760405162461bcd60e51b81526004016101e8906139f1565b651c185e5bdd5d60d21b60005260156020527f760b83586b90545053c3bee1f12313eddf8e1e5c9b49f1db447a7ae6858c00e45460ff16156109c85760405162461bcd60e51b81526004016101e8906138d3565b651c185e5bdd5d60d21b60005260156020527f760b83586b90545053c3bee1f12313eddf8e1e5c9b49f1db447a7ae6858c00e4805460ff19166001179055600a546040516340c10f1960e01b81526001600160a01b03909116906340c10f1990610a389030908690600401613653565b600060405180830381600087803b158015610a5257600080fd5b505af1158015610a66573d6000803e3d6000fd5b5050506001600160a01b038216600090815260126020526040902060010154610a90915083610920565b6001600160a01b038083166000818152601260205260409081902060010193909355600a54925190927f80974c5e383db0ffd4e95148f9ead5f8ba4bdec21852d45c6835a85270f974b792610ae9929116908690613653565b60405180910390a26006546009546040517fa311d41a4f8e988a4ad78e6643c774c2a87f00bb1aa1d7b1ced7388586dac66e90610b299084908490613b9e565b60405180910390a160005b82811015610d9e576000610b9a610b94600e600060068681548110610b6957634e487b7160e01b600052603260045260246000fd5b60009182526020808320909101546001600160a01b0316835282019290925260400190205485612a44565b87612aa6565b600a54600680549293506001600160a01b039091169163a9059cbb919085908110610bd557634e487b7160e01b600052603260045260246000fd5b6000918252602090912001546040516001600160e01b031960e084901b168152610c0d916001600160a01b0316908590600401613653565b602060405180830381600087803b158015610c2757600080fd5b505af1158015610c3b573d6000803e3d6000fd5b505050506040513d601f19601f82011682018060405250810190610c5f91906134a4565b5060068281548110610c8157634e487b7160e01b600052603260045260246000fd5b600091825260209091200154600a546040516001600160a01b0392831692888116927f9a814a8cbff3893d9fe257f5b4402d3b90f5edc8afdbc32fe56cf743a67f7a4492610cd492909116908690613653565b60405180910390a3610ce860095482610920565b600981905550610d41600e600060068581548110610d1657634e487b7160e01b600052603260045260246000fd5b60009182526020808320909101546001600160a01b0316835282019290925260400190205482610920565b600e600060068581548110610d6657634e487b7160e01b600052603260045260246000fd5b60009182526020808320909101546001600160a01b031683528201929092526040019020555080610d9681613cd3565b915050610b34565b5050651c185e5bdd5d60d21b60005250506015602052507f760b83586b90545053c3bee1f12313eddf8e1e5c9b49f1db447a7ae6858c00e4805460ff19169055565b60606001805480602002602001604051908101604052809291908181526020016000905b82821015610e4c5760008481526020908190206040805180820190915260028502909101805482526001908101546001600160a01b0316828401529083529092019101610e04565b50505050905090565b600080610e60612a40565b6001600160a01b0316610e71611635565b6001600160a01b031614610e975760405162461bcd60e51b81526004016101e8906139f1565b50506001600160a01b0316600090815260126020526040902080546001909101549091565b6060610ec6612a40565b6001600160a01b0316610ed7611635565b6001600160a01b031614610efd5760405162461bcd60e51b81526004016101e8906139f1565b6001600160a01b0382166000908152600f602090815260409182902080548351818402810184019094528084529091830182828015610f6557602002820191906000526020600020905b81546001600160a01b03168152600190910190602001808311610f47575b505050505090505b919050565b610f7a612a40565b6001600160a01b0316610f8b611635565b6001600160a01b031614610fb15760405162461bcd60e51b81526004016101e8906139f1565b610fb9612aee565b565b33600090815260026020526040902054610fe75760405162461bcd60e51b81526004016101e890613aaa565b6001600160a01b03821660009081526004602052604090205461101c5760405162461bcd60e51b81526004016101e89061390a565b6110246107ea565b156110415760405162461bcd60e51b81526004016101e890613963565b696469737472696275746560b01b60005260156020527f4f8f4c963a0dd2308e04a420e524d45568ac3d62b99607eb99dbe63f846cc3965460ff16156110995760405162461bcd60e51b81526004016101e890613ae1565b7f4f8f4c963a0dd2308e04a420e524d45568ac3d62b99607eb99dbe63f846cc396805460ff191660011790553360009081526010602090815260408083206001600160a01b0385168452909152902054600954158015906110f957508015155b156111aa573360009081526011602090815260408083206001600160a01b038716845282528083208484529091529020600101546111379085610920565b3360008181526011602090815260408083206001600160a01b038981168552908352818420878552909252918290206001019390935551918416917fdff48603d759a1933637840c945468e0b9fd413b5101770cafd01d93d60b5ade906111a19087908990613653565b60405180910390a35b5050696469737472696275746560b01b600052505060156020527f4f8f4c963a0dd2308e04a420e524d45568ac3d62b99607eb99dbe63f846cc396805460ff19169055565b6111f7612a40565b6001600160a01b0316611208611635565b6001600160a01b03161461122e5760405162461bcd60e51b81526004016101e8906139f1565b6001600160a01b03821660009081526004602052604090205461133157604080518082019091528181526001600160a01b0383166020808301919091526003805460018101825560009190915282518051849360029093027fc2575a0e9e593c00f959f8c92f12db2869c3395a3b0502d05e2516446f71f85b01926112b79284929101906131e2565b5060209182015160019190910180546001600160a01b0319166001600160a01b03928316179055600354908516600081815260049093526040928390209190915590517f10f1836bf661ec2d6e439744a2c220af8cd27522822842b304e2f5e00aea47b490611327908590613823565b60405180910390a2505b5050565b600080611340612a40565b6001600160a01b0316611351611635565b6001600160a01b0316146113775760405162461bcd60e51b81526004016101e8906139f1565b50506001600160a01b039283166000818152601060209081526040808320948716835293815283822054928252601181528382209490951681529284528183209083529092522080546001909101549091565b6001600160a01b038116600090815260046020526040812054156113f057506001610f6d565b506000610f6d565b600b5433906001600160a01b031681146114245760405162461bcd60e51b81526004016101e890613a4d565b50600b80546001600160a01b0319166001600160a01b0392909216919091179055565b61144f612a40565b6001600160a01b0316611460611635565b6001600160a01b0316146114865760405162461bcd60e51b81526004016101e8906139f1565b610fb96000612b5f565b611498612a40565b6001600160a01b03166114a9611635565b6001600160a01b0316146114cf5760405162461bcd60e51b81526004016101e8906139f1565b601480546001600160a01b0319166001600160a01b0392909216919091179055565b6114f9612a40565b6001600160a01b031661150a611635565b6001600160a01b0316146115305760405162461bcd60e51b81526004016101e8906139f1565b610fb9612baf565b611540612a40565b6001600160a01b0316611551611635565b6001600160a01b0316146115775760405162461bcd60e51b81526004016101e8906139f1565b6001600160a01b03808316600090815260106020908152604080832093851683529290522054611331576001600160a01b038281166000818152600f6020908152604080832080546001810182558185528385200180546001600160a01b0319169688169687179055848452546010835281842095845294909152908190209290925590517fa52f7b1728c567fcd948cc67f684e16d4fb0d5722b68b503532427991f6dd5839061162990849061361b565b60405180910390a25050565b6000546001600160a01b031690565b606061164e612a40565b6001600160a01b031661165f611635565b6001600160a01b0316146116855760405162461bcd60e51b81526004016101e8906139f1565b6005805480602002602001604051908101604052809291908181526020016000905b82821015610e4c57838290600052602060002090600202016040518060400160405290816000820180546116da90613c98565b80601f016020809104026020016040519081016040528092919081815260200182805461170690613c98565b80156117535780601f1061172857610100808354040283529160200191611753565b820191906000526020600020905b81548152906001019060200180831161173657829003601f168201915b50505091835250506001918201546001600160a01b03166020918201529183529290920191016116a7565b60145433906001600160a01b031681146117aa5760405162461bcd60e51b81526004016101e8906139c4565b6001600160a01b0383166000908152600460205260409020541561091b57506001600160a01b0391909116600090815260136020526040902055565b600a546001600160a01b031633146118105760405162461bcd60e51b81526004016101e890613a7d565b6001600160a01b0383166000908152600e60205260409020548111156118485760405162461bcd60e51b81526004016101e890613935565b611851826107fa565b6001600160a01b0382166000908152600e60205260409020546118749082610920565b6001600160a01b038084166000908152600e602052604080822093909355908516815220546118a39082612c10565b6001600160a01b039093166000908152600e60205260409020929092555050565b60006118ce612a40565b6001600160a01b03166118df611635565b6001600160a01b0316146119055760405162461bcd60e51b81526004016101e8906139f1565b506001600160a01b039182166000908152600d6020908152604080832093909416825291909152205490565b611939612a40565b6001600160a01b031661194a611635565b6001600160a01b0316146119705760405162461bcd60e51b81526004016101e8906139f1565b686c697175696469747960b81b60005260156020527fa0ed1a9b08fc6231ba7ca2cb1e7c8c8670de12392a7264341a553e19c96617675460ff16156119c75760405162461bcd60e51b81526004016101e890613ae1565b686c697175696469747960b81b60005260156020527fa0ed1a9b08fc6231ba7ca2cb1e7c8c8670de12392a7264341a553e19c9661767805460ff19166001179055611a106107ea565b15611a2d5760405162461bcd60e51b81526004016101e890613963565b6001600160a01b03808616600090815260106020908152604080832093881683529290522054611a6f5760405162461bcd60e51b81526004016101e890613b4f565b6001600160a01b03821615611b045760405163a9059cbb60e01b81526001600160a01b0383169063a9059cbb90611aac9088908590600401613653565b602060405180830381600087803b158015611ac657600080fd5b505af1158015611ada573d6000803e3d6000fd5b505050506040513d601f19601f82011682018060405250810190611afe91906134a4565b50611b45565b6040516001600160a01b0386169082156108fc029083906000818181858888f19350505050611b455760405162461bcd60e51b81526004016101e8906138aa565b60405163a7d545db60e01b81526001600160a01b0386169063a7d545db90611b7590849086908990600401613b7f565b600060405180830381600087803b158015611b8f57600080fd5b505af1158015611ba3573d6000803e3d6000fd5b50505050846001600160a01b03167f9aea42c06bd9566935fae5cfe7b814263ab2a34321a6f1ea740c6c1d1bf3662585858585604051611be6949392919061366c565b60405180910390a26001600160a01b038516600090815260126020526040902054611c119084610920565b6001600160a01b0380871660008181526012602090815260408083209590955560108152848220898516835281528482205492825260118152848220938716825292835283812082825290925291902054611c6c9083610920565b6001600160a01b0396871660009081526011602090815260408083209690991682529485528781209281529184529581209590955550686c697175696469747960b81b9093525050601590527fa0ed1a9b08fc6231ba7ca2cb1e7c8c8670de12392a7264341a553e19c9661767805460ff19169055565b611ceb612a40565b6001600160a01b0316611cfc611635565b6001600160a01b031614611d225760405162461bcd60e51b81526004016101e8906139f1565b611d2f8484848433612c1c565b50505050565b611d3d6107ea565b15611d5a5760405162461bcd60e51b81526004016101e890613963565b6001600160a01b03821660009081526004602052604081205415611d7c575060015b801561091b576262757960e81b60005260156020527fbf470b34a0db9decab666a4db5c5546583b6ce9ee84b342723f89b849239567a5460ff1615611dd35760405162461bcd60e51b81526004016101e890613ae1565b6262757960e81b60005260156020527fbf470b34a0db9decab666a4db5c5546583b6ce9ee84b342723f89b849239567a805460ff191660011790556040516323b872dd60e01b81526001600160a01b038416906323b872dd90611e3e9033903090879060040161362f565b602060405180830381600087803b158015611e5857600080fd5b505af1158015611e6c573d6000803e3d6000fd5b505050506040513d601f19601f82011682018060405250810190611e9091906134a4565b1561212d57336001600160a01b03167f8c7f6f575e260afd27b15935e0859a490411bc754e283426002c7c5ff82e844d8484604051611ed0929190613653565b60405180910390a2336000908152600d602090815260408083206001600160a01b03871684529091529020546120075760006040518060400160405280856001600160a01b03166306fdde036040518163ffffffff1660e01b815260040160006040518083038186803b158015611f4657600080fd5b505afa158015611f5a573d6000803e3d6000fd5b505050506040513d6000823e601f3d908101601f19168201604052611f8291908101906134cb565b8152336020918201526005805460018101825560009190915282518051939450849360029092027f036b6384b5eca791c62761152d0c79bb0604c104a5fb6f4eb0703f3154bb3db00192611fdb928492909101906131e2565b5060209190910151600190910180546001600160a01b0319166001600160a01b03909216919091179055505b336000908152600d602090815260408083206001600160a01b03871684529091529020546120359083610920565b336000818152600d602090815260408083206001600160a01b0389168085529252909120928355600190920180546001600160a01b03191690921790915561207c906107fa565b6001600160a01b0383166000908152601360205260409020541561212d576120dc3384846120cf60136000896001600160a01b03166001600160a01b031681526020019081526020016000205487612aa6565b6120d7611635565b612c1c565b6001600160a01b038316600081815260136020526040908190205490517ffe1ed69b3efd6d71f3708d26a6e1ce738b7233ef728bc42c2687cad399ccf7d3916121249161381a565b60405180910390a25b6262757960e81b60005260156020527fbf470b34a0db9decab666a4db5c5546583b6ce9ee84b342723f89b849239567a805460ff19169055505050565b60606003805480602002602001604051908101604052809291908181526020016000905b82821015610e4c57838290600052602060002090600202016040518060400160405290816000820180546121c190613c98565b80601f01602080910402602001604051908101604052809291908181526020018280546121ed90613c98565b801561223a5780601f1061220f5761010080835404028352916020019161223a565b820191906000526020600020905b81548152906001019060200180831161221d57829003601f168201915b50505091835250506001918201546001600160a01b031660209182015291835292909201910161218e565b600a546040516370a0823160e01b81526000916001600160a01b0316906370a082319061229690859060040161361b565b60206040518083038186803b1580156122ae57600080fd5b505afa1580156122c2573d6000803e3d6000fd5b505050506040513d601f19601f8201168201806040525081019061092f919061353e565b6122ee612a40565b6001600160a01b03166122ff611635565b6001600160a01b0316146123255760405162461bcd60e51b81526004016101e8906139f1565b600791909155600855565b612338612a40565b6001600160a01b0316612349611635565b6001600160a01b03161461236f5760405162461bcd60e51b81526004016101e8906139f1565b6001600160a01b0381166123955760405162461bcd60e51b81526004016101e890613864565b61239e81612b5f565b50565b6123a9612a40565b6001600160a01b03166123ba611635565b6001600160a01b0316146123e05760405162461bcd60e51b81526004016101e8906139f1565b6001600160a01b038216600090815260026020526040902054611331576040805180820182528281526001600160a01b038481166020808401828152600180548082018255600082815287517fb10e2d527612073b26eecdfd717e6a320cf44b4afac2b0732d9fcbe2b7fa0cf660029384029081019190915593517fb10e2d527612073b26eecdfd717e6a320cf44b4afac2b0732d9fcbe2b7fa0cf790940180546001600160a01b031916949097169390931790955554838252939091528490209190915591519091907f88d0ad67f2cd85c03baf1ec3dd94c0da1d9c39d37407214b1e4182ee8bf13ffc9061132790859061381a565b6124df612a40565b6001600160a01b03166124f0611635565b6001600160a01b0316146125165760405162461bcd60e51b81526004016101e8906139f1565b6001600160a01b0380831660009081526010602090815260408083209385168352929052908120541561091b576001600160a01b0383166000908152600f6020526040812054905b81811015612a39576001600160a01b038581166000908152600f60205260409020805491861691839081106125a357634e487b7160e01b600052603260045260246000fd5b6000918252602090912001546001600160a01b031614156127f4576001600160a01b0385166000908152600f60205260409020546125e390600190613c55565b811415612662576001600160a01b0385166000908152600f6020526040902080548290811061262257634e487b7160e01b600052603260045260246000fd5b6000918252602080832090910180546001600160a01b03191690556001600160a01b038781168352601082526040808420918816845291528120556127eb565b6001600160a01b0385166000908152600f60205260409020612685826001613bfe565b815481106126a357634e487b7160e01b600052603260045260246000fd5b60009182526020808320909101546001600160a01b038881168452600f90925260409092208054919092169190839081106126ee57634e487b7160e01b600052603260045260246000fd5b600091825260208083209190910180546001600160a01b0319166001600160a01b039485161790559187168152601082526040808220600f909352812080546001939291908590811061275157634e487b7160e01b600052603260045260246000fd5b60009182526020808320909101546001600160a01b031683528201929092526040019020546127809190613c55565b6001600160a01b0386166000908152601060209081526040808320600f90925282208054919291859081106127c557634e487b7160e01b600052603260045260246000fd5b60009182526020808320909101546001600160a01b031683528201929092526040019020555b60019250612a27565b8215612a27576001600160a01b0385166000908152600f602052604090205461281f90600190613c55565b81141561289e576001600160a01b0385166000908152600f6020526040902080548290811061285e57634e487b7160e01b600052603260045260246000fd5b6000918252602080832090910180546001600160a01b03191690556001600160a01b03878116835260108252604080842091881684529152812055612a27565b6001600160a01b0385166000908152600f602052604090206128c1826001613bfe565b815481106128df57634e487b7160e01b600052603260045260246000fd5b60009182526020808320909101546001600160a01b038881168452600f909252604090922080549190921691908390811061292a57634e487b7160e01b600052603260045260246000fd5b600091825260208083209190910180546001600160a01b0319166001600160a01b039485161790559187168152601082526040808220600f909352812080546001939291908590811061298d57634e487b7160e01b600052603260045260246000fd5b60009182526020808320909101546001600160a01b031683528201929092526040019020546129bc9190613c55565b6001600160a01b0386166000908152601060209081526040808320600f9092528220805491929185908110612a0157634e487b7160e01b600052603260045260246000fd5b60009182526020808320909101546001600160a01b031683528201929092526040019020555b80612a3181613cd3565b91505061255e565b5050505050565b3390565b6000612a53821515600461317c565b82612a605750600061092f565b6000612a74670de0b6b3a764000085613c36565b9050612a94670de0b6b3a7640000612a8c8684613c16565b14600561317c565b612a9e8382613c16565b91505061092f565b600080612ab38385613c36565b9050612ad4841580612acd575083612acb8684613c16565b145b600361317c565b612ae6670de0b6b3a764000082613c16565b949350505050565b612af66107ea565b612b125760405162461bcd60e51b81526004016101e890613836565b6000805460ff60a01b191690557f5db9ee0a495bf2e6ff9c91a7834c1ba4fdd244a5e8aa4e537bd38aeae4b073aa612b48612a40565b604051612b55919061361b565b60405180910390a1565b600080546001600160a01b038381166001600160a01b0319831681178455604051919092169283917f8be0079c531659141344cd1fd0a4f28419497f9722a3daafe3b4186f6b6457e09190a35050565b612bb76107ea565b15612bd45760405162461bcd60e51b81526004016101e89061399a565b6000805460ff60a01b1916600160a01b1790557f62e78cea01bee320cd4e420270b5ea74000d11b0c9f74754ebdbfc544b05a258612b48612a40565b600061092c8284613c55565b64697373756560d81b60005260156020527f7aecb880907f3736d4299db321b0fd22515f91e6c22013bd669eb719073ec4a25460ff1615612c6f5760405162461bcd60e51b81526004016101e8906138d3565b7f7aecb880907f3736d4299db321b0fd22515f91e6c22013bd669eb719073ec4a2805460ff191660011790556001600160a01b038086166000908152600d6020908152604080832093881683529290522054612ccb9084612c10565b6001600160a01b038087166000908152600d6020908152604080832093891683529290528190209190915560075490517fff2ad8e407d353b43aba7efdf423915ccac27fef1b5762c1407d455aa0fed3b191612d269161381a565b60405180910390a1600754821180612dc25750600a54604080516318160ddd60e01b81529051612dbf926001600160a01b0316916318160ddd916004808301926020929190829003018186803b158015612d7f57600080fd5b505afa158015612d93573d6000803e3d6000fd5b505050506040513d601f19601f82011682018060405250810190612db7919061353e565b600954612c10565b82115b15612edd576001600160a01b038581166000908152600d6020908152604080832088851684529091529020600101541615612ea0576001600160a01b038086166000908152600d6020908152604080832088851684529091529081902060010154905163a9059cbb60e01b815291169063a9059cbb90612e489088908790600401613653565b602060405180830381600087803b158015612e6257600080fd5b505af1158015612e76573d6000803e3d6000fd5b505050506040513d601f19601f82011682018060405250810190612e9a91906134a4565b50612ed8565b6040516001600160a01b0386169084156108fc029085906000818181858888f19350505050158015612ed6573d6000803e3d6000fd5b505b61313b565b600a546040516323b872dd60e01b81526001600160a01b03909116906323b872dd90612f119084908990879060040161362f565b602060405180830381600087803b158015612f2b57600080fd5b505af1158015612f3f573d6000803e3d6000fd5b505050506040513d601f19601f82011682018060405250810190612f6391906134a4565b50612f7060095483610920565b6009556001600160a01b0385166000908152600e6020526040902054612f969083610920565b6001600160a01b038087166000818152600e6020908152604080832095909555600d81528482208985168352905283902060010154925190927f3ed92bcd8133ac027f02bc9c77f471ab91c233a24bc157dd38ba2affabe55783926130019291169087908790613696565b60405180910390a26001600160a01b038581166000908152600d60209081526040808320888516845290915290206001015416156130f0576001600160a01b038086166000908152600d602090815260408083208885168452909152902060010154600b54600c549183169263a9059cbb92911690613081908790612aa6565b6040518363ffffffff1660e01b815260040161309e929190613653565b602060405180830381600087803b1580156130b857600080fd5b505af11580156130cc573d6000803e3d6000fd5b505050506040513d601f19601f82011682018060405250810190612ed691906134a4565b600b54600c546001600160a01b03909116906108fc90613111908690612aa6565b6040518115909202916000818181858888f19350505050158015613139573d6000803e3d6000fd5b505b505064697373756560d81b60005250506015602052507f7aecb880907f3736d4299db321b0fd22515f91e6c22013bd669eb719073ec4a2805460ff19169055565b816113315762461bcd60e51b600090815260206004526007602452600a808304818106603090810160081b83860601918390049283060160101b016642414c230000300160c81b60445261133191839161239e916210905360ea1b906242414c90606490fd5b8280546131ee90613c98565b90600052602060002090601f0160209004810192826132105760008555613256565b82601f1061322957805160ff1916838001178555613256565b82800160010185558215613256579182015b8281111561325657825182559160200191906001019061323b565b50613262929150613266565b5090565b5b808211156132625760008155600101613267565b80356001600160a01b0381168114610f6d57600080fd5b6000602082840312156132a3578081fd5b61092c8261327b565b600080604083850312156132be578081fd5b6132c78361327b565b91506132d56020840161327b565b90509250929050565b6000806000606084860312156132f2578081fd5b6132fb8461327b565b92506133096020850161327b565b91506133176040850161327b565b90509250925092565b600080600060608486031215613334578283fd5b61333d8461327b565b925061334b6020850161327b565b9150604084013590509250925092565b600080600080600060a08688031215613372578081fd5b61337b8661327b565b94506133896020870161327b565b93506040860135925061339e6060870161327b565b949793965091946080013592915050565b600080600080608085870312156133c4578384fd5b6133cd8561327b565b93506133db6020860161327b565b93969395505050506040820135916060013590565b60008060408385031215613402578182fd5b61340b8361327b565b946020939093013593505050565b6000806040838503121561342b578182fd5b6134348361327b565b9150602083013567ffffffffffffffff81111561344f578182fd5b8301601f8101851361345f578182fd5b803561347261346d82613bd6565b613bac565b818152866020838501011115613486578384fd5b81602084016020830137908101602001929092525090939092509050565b6000602082840312156134b5578081fd5b815180151581146134c4578182fd5b9392505050565b6000602082840312156134dc578081fd5b815167ffffffffffffffff8111156134f2578182fd5b8201601f81018413613502578182fd5b805161351061346d82613bd6565b818152856020838501011115613524578384fd5b613535826020830160208601613c6c565b95945050505050565b60006020828403121561354f578081fd5b5051919050565b60008060408385031215613568578182fd5b823591506132d56020840161327b565b60008060006060848603121561358c578081fd5b833592506133096020850161327b565b600080604083850312156135ae578182fd5b50508035926020909101359150565b600081518084526135d5816020860160208601613c6c565b601f01601f19169290920160200192915050565b60008151604084526135fe60408501826135bd565b6020938401516001600160a01b0316949093019390935250919050565b6001600160a01b0391909116815260200190565b6001600160a01b039384168152919092166020820152604081019190915260600190565b6001600160a01b03929092168252602082015260400190565b6001600160a01b039485168152602081019390935292166040820152606081019190915260800190565b6001600160a01b039390931683526020830191909152604082015260600190565b6020808252825182820181905260009190848201906040850190845b818110156136f85783516001600160a01b0316835292840192918401916001016136d3565b50909695505050505050565b602080825282518282018190526000919060409081850190868401855b8281101561374f578151805185528601516001600160a01b0316868501529284019290850190600101613721565b5091979650505050505050565b6000602080830181845280855180835260408601915060408482028701019250838701855b828110156137af57603f1988860301845261379d8583516135e9565b94509285019290850190600101613781565b5092979650505050505050565b6000602080830181845280855180835260408601915060408482028701019250838701855b828110156137af57603f198886030184526137fd8583516135e9565b945092850192908501906001016137e1565b901515815260200190565b90815260200190565b60006020825261092c60208301846135bd565b60208082526014908201527314185d5cd8589b194e881b9bdd081c185d5cd95960621b604082015260600190565b60208082526026908201527f4f776e61626c653a206e6577206f776e657220697320746865207a65726f206160408201526564647265737360d01b606082015260800190565b6020808252600f908201526e151c985b9cd9995c8819985a5b1959608a1b604082015260600190565b6020808252601d908201527f4c6f636b656420746f2070726576656e742072656e656e7472616e6379000000604082015260600190565b6020808252601190820152702ab739bab83837b93a32b2103a37b5b2b760791b604082015260600190565b602080825260149082015273496e73756666696369656e742062616c616e636560601b604082015260600190565b60208082526018908201527f436f6e747261637420696e207061757365642073746174650000000000000000604082015260600190565b60208082526010908201526f14185d5cd8589b194e881c185d5cd95960821b604082015260600190565b602080825260139082015272556e617574686f72697a6564206f7261636c6560681b604082015260600190565b6020808252818101527f4f776e61626c653a2063616c6c6572206973206e6f7420746865206f776e6572604082015260600190565b6020808252600d908201526c16995c9bc8195d1a081cd95b9d609a1b604082015260600190565b6020808252601690820152752ab730baba3437b934bd32b2103a3932b0b9bab932b960511b604082015260600190565b6020808252601390820152722ab730baba3437b934bd32b21039b2b73232b960691b604082015260600190565b6020808252601d908201527f4c697175696469747920706f6f6c20646f6573206e6f74206578697374000000604082015260600190565b6020808252601c908201527f4c6f636b656420746f2070726576656e74207265656e7472616e637900000000604082015260600190565b6020808252601a908201527f4c6f636b656420746f2061766f6964207265656e7472616e6379000000000000604082015260600190565b60208082526016908201527513585b9859d95c88191bd95cc81b9bdd08195e1a5cdd60521b604082015260600190565b9283526001600160a01b03918216602084015216604082015260600190565b918252602082015260400190565b60405181810167ffffffffffffffff81118282101715613bce57613bce613d04565b604052919050565b600067ffffffffffffffff821115613bf057613bf0613d04565b50601f01601f191660200190565b60008219821115613c1157613c11613cee565b500190565b600082613c3157634e487b7160e01b81526012600452602481fd5b500490565b6000816000190483118215151615613c5057613c50613cee565b500290565b600082821015613c6757613c67613cee565b500390565b60005b83811015613c87578181015183820152602001613c6f565b83811115611d2f5750506000910152565b600281046001821680613cac57607f821691505b60208210811415613ccd57634e487b7160e01b600052602260045260246000fd5b50919050565b6000600019821415613ce757613ce7613cee565b5060010190565b634e487b7160e01b600052601160045260246000fd5b634e487b7160e01b600052604160045260246000fdfea26469706673582212202e9fa26f7719cbdf194c3c49383fb72c2a5fede0a4666e445a19736e8c3fbec364736f6c63430008000033",
  "immutableReferences": {},
  "source": "// Verified Liquidity Manager \r\n// (c) Kallol Borah, 2021\r\n\r\n//\"SPDX-License-Identifier: UNLICENSED\"\r\n\r\npragma solidity 0.8.0;\r\n\r\nimport \"@openzeppelin/contracts/access/Ownable.sol\";\r\nimport \"@openzeppelin/contracts/security/Pausable.sol\";\r\n\r\nimport \"@openzeppelin/contracts/token/ERC20/IERC20.sol\";\r\nimport \"@openzeppelin/contracts/token/ERC20/ERC20.sol\";\r\n\r\nimport \"@openzeppelin/contracts/utils/math/SafeMath.sol\";\r\n\r\nimport \"./interfaces/IMarketMaker.sol\";\r\nimport \"./interfaces/ILiquidity.sol\";\r\nimport \"./interfaces/IVitta.sol\";\r\n\r\nimport \"./math/FixedPoint.sol\";\r\nimport \"./math/Math.sol\";\r\n\r\ncontract Liquidity is Ownable, Pausable {\r\n\r\n    using SafeMath for uint256;\r\n    using FixedPoint for uint256;\r\n\r\n    ILiquidity.platform[] private platforms;\r\n    mapping(address => uint256) private platformIndex;\r\n\r\n    ILiquidity.token[] private tokens;\r\n    mapping(address => uint256) private tokenIndex;\r\n    \r\n    ILiquidity.provider[] private providers;\r\n    address[] private LPs;\r\n\r\n    uint256 private investmentCap=0;\r\n    uint256 private timeLimit=0;    \r\n    uint256 private totalIssued=0;\r\n\r\n    address private vitta;\r\n\r\n    //for share of liquidity staked with Verified\r\n    address private treasury;\r\n    uint256 private liquidityShare;\r\n\r\n    struct investment{\r\n        uint256 tokenAmount;\r\n        address tokenAddress;\r\n    }    \r\n\r\n    struct performance{\r\n        uint256 liquidityProvided;\r\n        uint256 commissionsEarned;\r\n    }\r\n\r\n    // mapping investor to invested tokens\r\n    mapping(address => mapping(address => investment)) private investors;\r\n    // mapping investor to liquidity tokens issued and staked\r\n    mapping(address => uint256) private stakes;    \r\n    // mapping platform to asset managers on it\r\n    mapping(address => address[]) private managers; \r\n    // mapping platform to asset manager's position in it\r\n    mapping(address => mapping(address => uint256)) private managerIndex;\r\n    // mapping platform to address of token distributed by manager to asset manager index to performance of liquidity provided\r\n    mapping(address => mapping(address => mapping(uint256 => performance))) private managerRoi;\r\n    // mapping platform to performance\r\n    mapping(address => performance) private platformRoi;\r\n    // exchange rate of support token to vitta\r\n    mapping(address => uint256) private exchangeRate;\r\n\r\n    // oracle\r\n    address private oracle;\r\n\r\n    modifier onlyOracle(address sender){\r\n        require(oracle==sender, \"Unauthorized oracle\");\r\n        _;\r\n    }\r\n\r\n    modifier onlyTreasurer(address sender){\r\n        require(treasury==sender, \"Unauthorized treasurer\");\r\n        _;\r\n    }\r\n\r\n    //mutex\r\n    mapping(bytes32 => bool) private lock;\r\n\r\n    event SupportToken(address indexed token, string tokenName);\r\n    event RegisterPlatform(address indexed platform, bytes32 platformName);\r\n    event PlatformManagers(address indexed platform, address manager);\r\n    event RequestRate(address indexed token, uint256 amount);\r\n    event RequestIssue(address indexed investor, address token, uint256 tokenAmount);\r\n    event IssuedVitta(address indexed investor, address token, uint256 tokenAmount, uint256 LPToIssue);\r\n    event PlatformLiquidity(address indexed platform, address manager, uint256 LPToken, address token, uint256 tokenAmount);\r\n    event ManagerReturns(address indexed platform, address indexed manager, address token, uint256 distribution);\r\n    event PlatformReturns(address indexed platform, address vitta, uint256 distribution);\r\n    event InvestorReturns(address indexed platform, address indexed investor, address vitta, uint256 prorataStake);\r\n      \r\n    /**\r\n        Constructor for the Verified Liquidity manager\r\n        @param  _cap    investment limit for each investor\r\n        @param  _limit  time limit for issue close\r\n        @param  _vitta  address of Verified liquidity token\r\n     */\r\n    constructor(uint256 _cap, uint256 _limit, uint256 _share, address _vitta){        \r\n        investmentCap = _cap;\r\n        timeLimit = _limit;\r\n        totalIssued = 0;\r\n        liquidityShare = _share;\r\n        vitta = _vitta; \r\n        treasury = owner();       \r\n    }\r\n\r\n    /**\r\n        Updates investment and time limits for Verified Liquidity token after initial issue with constructor defined parameters\r\n        @param  _cap    investment limit for each investor\r\n        @param  _limit  time limit for issue close \r\n     */\r\n    function createSupply(uint256 _cap, uint256 _limit) external onlyOwner {\r\n        investmentCap = _cap;\r\n        timeLimit = _limit;\r\n    }\r\n\r\n    /**\r\n        Specifies list of supported tokens that can be invested in the Verified Liquidity token\r\n        @param  _token  address of token supported\r\n        @param  _name   name of token supported\r\n     */\r\n    function supportTokens(address _token, string memory _name) external onlyOwner {\r\n        if(tokenIndex[_token]==0){\r\n            ILiquidity.token memory t = ILiquidity.token({\r\n                tokenName: _name,\r\n                tokenAddress: _token\r\n            });\r\n            tokens.push(t);\r\n            tokenIndex[_token] = tokens.length;\r\n            emit SupportToken(_token, _name);\r\n        }\r\n    }\r\n\r\n    /**\r\n        Checks if a specified token is supported for investing in the Verified Liquidity token\r\n        @param  _token  token that is supported for investment\r\n     */\r\n    function checkSupportForToken(address _token) external view returns(bool){\r\n        if(tokenIndex[_token]>0)\r\n            return true;\r\n        else\r\n            return false;\r\n    }\r\n\r\n    /**\r\n        Returns list of supported tokens\r\n     */\r\n    function getSupportedTokens() external view returns(ILiquidity.token[] memory){\r\n        return tokens;\r\n    }\r\n\r\n    /**\r\n        Registers a liquidity platform (eg, DEX) where Verified Liquidity tokens can be used to underwrite investments\r\n        @param  _liquidityPlatform  address of the market making platform\r\n        @param  _platformName       name of market making platform\r\n     */\r\n    function registerPlatform(address _liquidityPlatform, bytes32 _platformName) external onlyOwner {\r\n        if(platformIndex[_liquidityPlatform]==0){\r\n            ILiquidity.platform memory p = ILiquidity.platform({\r\n                platformName: _platformName,\r\n                platformAddress: _liquidityPlatform\r\n            });\r\n            platforms.push(p);\r\n            platformIndex[_liquidityPlatform] = platforms.length;\r\n            emit RegisterPlatform(_liquidityPlatform, _platformName);\r\n        }\r\n    }\r\n    \r\n    /**\r\n        Gets list of registered platforms\r\n     */\r\n    function getPlatforms() external view returns(ILiquidity.platform[] memory){\r\n        return platforms;\r\n    }\r\n\r\n    /**\r\n        Adds asset manager for managing liquidity\r\n        @param  _platform   address of market making platform (eg, Balancer)\r\n        @param  _manager    address of asset manager\r\n     */\r\n    function addManager(address _platform, address _manager) external onlyOwner {\r\n        if(managerIndex[_platform][_manager]==0){\r\n            managers[_platform].push(_manager);\r\n            managerIndex[_platform][_manager] = managers[_platform].length;\r\n            emit PlatformManagers(_platform, _manager);\r\n        }\r\n    } \r\n\r\n    /**\r\n        Removes asset manager for managing liquidity on platform\r\n        @param  _platform   address of market making platform\r\n        @param  _manager    address of asset manager\r\n     */\r\n    function removeManager(address _platform, address _manager) external onlyOwner {\r\n        bool found = false;\r\n        if(managerIndex[_platform][_manager]!=0){\r\n            uint length = managers[_platform].length;\r\n            for(uint i=0; i<length; i++){\r\n                if(managers[_platform][i]==_manager){\r\n                    if(i==managers[_platform].length-1){\r\n                       delete managers[_platform][i];\r\n                       managerIndex[_platform][_manager] = 0;\r\n                    }\r\n                    else{\r\n                       managers[_platform][i]=managers[_platform][i+1];\r\n                       managerIndex[_platform][managers[_platform][i]] = managerIndex[_platform][managers[_platform][i]] - 1;\r\n                    }\r\n                    found = true;\r\n                }\r\n                else if(found){\r\n                    if(i==managers[_platform].length-1){\r\n                       delete managers[_platform][i];\r\n                       managerIndex[_platform][_manager] = 0;\r\n                    }\r\n                    else{\r\n                       managers[_platform][i]=managers[_platform][i+1];\r\n                       managerIndex[_platform][managers[_platform][i]] = managerIndex[_platform][managers[_platform][i]] - 1;\r\n                    }\r\n                }\r\n            }\r\n        }\r\n    }\r\n\r\n    /**\r\n        Gets asset managers for managing liquidity\r\n        @param  _platform   address of market making platform\r\n     */\r\n    function getManagers(address _platform) external view onlyOwner returns(address[] memory){\r\n        return managers[_platform];\r\n    }\r\n    event investorAdded(address LP);\r\n    function saveInvestor(address investor) private {\r\n        bool found = false;\r\n        uint length = tokens.length;\r\n        for(uint256 i=0; i<length; i++){\r\n            if(investors[investor][tokens[i].tokenAddress].tokenAmount!=0)\r\n                found = true;\r\n        }\r\n        if(!found){\r\n            LPs.push(investor);\r\n            emit investorAdded(investor);\r\n        }\r\n    }\r\n\r\n    /**\r\n        Receiver of ether invested in the Verified Liquidity token\r\n     */\r\n    receive() external payable{\r\n        //if(timeLimit!=0)\r\n        //    require(timeLimit > block.timestamp, \"Subscription window breached\");\r\n        //ether paid in\r\n        require(msg.value !=0, \"Zero eth sent\");\r\n        //contract must not be paused\r\n        require(paused() == false, \"Contract in paused state\");\r\n        //block reentrants\r\n        require(!lock[\"etherreceipt\"], \"Locked to avoid reentrancy\");\r\n        lock[\"etherreceipt\"] = true;\r\n        //issue liquidity token        \r\n        if(investors[msg.sender][address(0x0)].tokenAmount==0){\r\n            ILiquidity.provider memory lp = ILiquidity.provider({\r\n                assetInvested: string(\"ether\"),\r\n                investorAddress: msg.sender\r\n            });\r\n            providers.push(lp);\r\n        }\r\n        saveInvestor(msg.sender);\r\n        investors[msg.sender][address(0x0)].tokenAmount = SafeMath.add(investors[msg.sender][address(0x0)].tokenAmount, msg.value);\r\n        emit RequestIssue(msg.sender, address(0x0), msg.value);\r\n        lock[\"etherreceipt\"] = false;\r\n    }\r\n\r\n    /**\r\n        Used by external apps (eg, exchange, wallet) to buy Verified Liquidity token \r\n        @param  _token  address of token used by investor to buy the VITTA\r\n        @param  _amount amount of token that is transferred from investor to this VITTA issuing contract's account for the investor\r\n     */\r\n    function buy(address _token, uint256 _amount) external {\r\n        //if(timeLimit!=0)\r\n        //    require(timeLimit > block.timestamp, \"Subscription window breached\");\r\n        require(paused() == false, \"Contract in paused state\");\r\n        bool found = false;\r\n        if(tokenIndex[_token]>0)\r\n            found = true;\r\n        if(found){\r\n            require(!lock[\"buy\"], \"Locked to prevent reentrancy\");\r\n            lock[\"buy\"] = true;\r\n            if(IERC20(_token).transferFrom(msg.sender, address(this), _amount)){\r\n                emit RequestIssue(msg.sender, _token, _amount);\r\n                if(investors[msg.sender][_token].tokenAmount==0){\r\n                    ILiquidity.provider memory lp = ILiquidity.provider({\r\n                        assetInvested: ERC20(_token).name(),\r\n                        investorAddress: msg.sender\r\n                    });\r\n                    providers.push(lp);\r\n                }\r\n                investors[msg.sender][_token].tokenAmount = SafeMath.add(investors[msg.sender][_token].tokenAmount, _amount);\r\n                investors[msg.sender][_token].tokenAddress = _token;\r\n                saveInvestor(msg.sender);\r\n                if(exchangeRate[_token]!=0){\r\n                    issueVitta(msg.sender, _token, _amount, FixedPoint.mulDown(exchangeRate[_token], _amount), owner());\r\n                    emit RequestRate(_token, exchangeRate[_token]);\r\n                }\r\n            }\r\n            lock[\"buy\"] = false;\r\n        }\r\n    }\r\n\r\n    /**\r\n        Fetches investors in VITTA\r\n     */\r\n    function getInvestors() external view onlyOwner returns(ILiquidity.provider[] memory){\r\n        return providers;\r\n    }\r\n\r\n    /**\r\n        Fetches investment detail for specific investor in VITTA\r\n        @param  _investor   address of investor\r\n        @param  _token      address of token invested by investor\r\n     */\r\n    function getInvestment(address _investor, address _token) external view onlyOwner returns(uint256){\r\n        return (investors[_investor][_token].tokenAmount);\r\n    }\r\n    \r\n    /**\r\n        Used by admin to issue VITTA to investors or refund paid in tokens to investors if investment cap is breached\r\n        @param  _investor       address of investor\r\n        @param  _token          address of token invested in VITTA\r\n        @param  _tokenAmount    amount of token invested in VITTA\r\n        @param  _LPToIssue      amount of VITTA to issue to investor \r\n     */\r\n    function issue(address _investor, address _token, uint256 _tokenAmount, uint256 _LPToIssue) external onlyOwner {\r\n        issueVitta(_investor, _token, _tokenAmount, _LPToIssue, msg.sender);\r\n    }\r\n    event cap(uint256 amount);\r\n    function issueVitta(address _investor, address _token, uint256 _tokenAmount, uint256 _LPToIssue, address _issuer) private {\r\n        require(!lock[\"issue\"], \"Locked to prevent renentrancy\");\r\n        lock[\"issue\"] = true;\r\n        investors[_investor][_token].tokenAmount = SafeMath.sub(investors[_investor][_token].tokenAmount, _tokenAmount);\r\n        emit cap(investmentCap);\r\n        //If investment is outside limits, refund tokens invested back to investor\r\n        if((_LPToIssue > investmentCap) || (_LPToIssue > SafeMath.sub(IERC20(vitta).totalSupply(), totalIssued))){\r\n            //if(keccak256(abi.encodePacked(_tokenName))!=\"ether\")\r\n            if(investors[_investor][_token].tokenAddress!=address(0x0))\r\n                IERC20(investors[_investor][_token].tokenAddress).transfer(_investor, _tokenAmount);\r\n            else\r\n                payable(_investor).transfer(_tokenAmount);\r\n        }\r\n        //else issue VITTA to investor and transfer managed liquidity to deployer that allocates it to issuer\r\n        else{\r\n            IERC20(vitta).transferFrom(_issuer, _investor, _LPToIssue);  \r\n            totalIssued = SafeMath.add(totalIssued, _LPToIssue);    \r\n            stakes[_investor] = SafeMath.add(stakes[_investor], _LPToIssue);\r\n            emit IssuedVitta(_investor, investors[_investor][_token].tokenAddress, _tokenAmount, _LPToIssue);\r\n            //if(keccak256(abi.encodePacked(_tokenName))!=\"ether\"){\r\n            if(investors[_investor][_token].tokenAddress!=address(0x0))\r\n                IERC20(investors[_investor][_token].tokenAddress).transfer(treasury, FixedPoint.mulDown(_tokenAmount, liquidityShare));\r\n            else\r\n                payable(treasury).transfer(FixedPoint.mulDown(_tokenAmount, liquidityShare));\r\n        }        \r\n        lock[\"issue\"] = false;\r\n    }\r\n    \r\n    /**\r\n        Provides staked VITTA to asset managers based on prior liquidity consumed and commission earned \r\n        @param  _platform   address of platform on which liquidity has to be provided\r\n        @param  _manager    address of asset manager to whom liquidity has to be provided\r\n        @param  _liquidity  amount of VITTA tokens to allot to an asset manager\r\n        @param  _token      address of token allotted to asset manager\r\n        @param  _tokenAmount    amount of token allotted to asset manager\r\n     */    \r\n    function provideLiquidity(address _platform, address _manager, uint256 _liquidity, address _token, uint256 _tokenAmount) external onlyOwner {\r\n        require(!lock[\"liquidity\"], \"Locked to prevent reentrancy\");\r\n        lock[\"liquidity\"] = true;\r\n        require(paused() == false, \"Contract in paused state\");\r\n        require(managerIndex[_platform][_manager]!=0, \"Manager does not exist\");\r\n        //provide liquidity in native tokens invested by LPs\r\n        if(_token!=address(0x0)) //not ether\r\n            IERC20(_token).transfer(_platform, _tokenAmount);\r\n        else //if ether\r\n            require(payable(_platform).send(_tokenAmount), \"Transfer failed\");    \r\n        IMarketMaker(_platform).stake(_tokenAmount, _token, _manager);\r\n        emit PlatformLiquidity(_platform, _manager, _liquidity, _token, _tokenAmount);\r\n        platformRoi[_platform].liquidityProvided = SafeMath.add(platformRoi[_platform].liquidityProvided, _liquidity);\r\n        uint256 index = managerIndex[_platform][_manager];\r\n        managerRoi[_platform][_token][index].liquidityProvided = SafeMath.add(managerRoi[_platform][_token][index].liquidityProvided, _tokenAmount);\r\n        lock[\"liquidity\"] = false;\r\n    }\r\n\r\n    /**\r\n        Pay out of income by Market maker contracts to VITTA Liquidity providers\r\n        @param  _distribution   amount of VITTA to mint and distribute pro rata to liquidity providers\r\n        @param  _token          address of token in which distribution is made by market maker    \r\n        @param  _manager        address of asset manager earning the paid out return on investment \r\n     */\r\n    function distribute(uint256 _distribution, address _token, address _manager) external {\r\n        require(platformIndex[msg.sender]>0, \"Liquidity pool does not exist\");\r\n        require(tokenIndex[_token]>0, \"Unsupported token\");\r\n        require(paused() == false, \"Contract in paused state\");\r\n        require(!lock[\"distribute\"], \"Locked to prevent reentrancy\");\r\n        lock[\"distribute\"] = true;\r\n        uint256 index = managerIndex[msg.sender][_manager];\r\n        if(totalIssued!=0 && index!=0){            \r\n            managerRoi[msg.sender][_token][index].commissionsEarned = SafeMath.add(managerRoi[msg.sender][_token][index].commissionsEarned, _distribution);\r\n            emit ManagerReturns(msg.sender, _manager, _token, _distribution);\r\n        }\r\n        lock[\"distribute\"] = false;\r\n    }\r\n\r\n    /**\r\n        Fetches performance of market platform platform\r\n        @param  _platform   address of market making platform\r\n     */\r\n    function getPlatformPerformance(address _platform) external view onlyOwner returns(uint256 platformLiquidityProvided,\r\n                                                                                        uint256 platformCommissionsEarned){                                                                                        \r\n        return (platformRoi[_platform].liquidityProvided, platformRoi[_platform].commissionsEarned);\r\n    }\r\n\r\n    /**\r\n        Fetches performance of asset managers\r\n        @param  _platform   address of platform\r\n        @param  _token      address of token\r\n        @param  _manager    address of asset manager on platform\r\n     */\r\n    function getManagerPerformance(address _platform, address _token, address _manager) external view onlyOwner returns(uint256 managerLiquidityProvided,\r\n                                                                                    uint256 managerCommissionsEarned){\r\n        uint256 index = managerIndex[_platform][_manager];                                                                                \r\n        return (managerRoi[_platform][_token][index].liquidityProvided, managerRoi[_platform][_token][index].commissionsEarned);\r\n    }\r\n    event paidOut(uint256 LP, uint256 amount);\r\n    /**\r\n        Pay out income to VITTA Liquidity providers\r\n        @param  _distribution   amount of VITTA to mint and distribute pro rata to liquidity providers   \r\n        @param  _platform       address of platform on which commission is earned based on which distribution is made\r\n     */\r\n    function payOut(uint256 _distribution, address _platform) onlyOwner external {\r\n        require(!lock[\"payout\"], \"Locked to prevent renentrancy\");\r\n        lock[\"payout\"] = true;\r\n        IVitta(vitta).mint(address(this), _distribution);\r\n        platformRoi[_platform].commissionsEarned = SafeMath.add(platformRoi[_platform].commissionsEarned, _distribution);\r\n        emit PlatformReturns(_platform, vitta, _distribution);\r\n        uint length = LPs.length;\r\n        uint issued = totalIssued;\r\n        emit paidOut(length, issued);\r\n        for(uint i=0; i<length; i++){\r\n            uint256 prorataStake = FixedPoint.mulDown(FixedPoint.divDown(stakes[LPs[i]], issued), _distribution);\r\n            IERC20(vitta).transfer(LPs[i], prorataStake);   \r\n            emit InvestorReturns(_platform, LPs[i], vitta, prorataStake);\r\n            totalIssued = SafeMath.add(totalIssued, prorataStake);    \r\n            stakes[LPs[i]] = SafeMath.add(stakes[LPs[i]], prorataStake);             \r\n        }\r\n        lock[\"payout\"] = false;\r\n    }\r\n\r\n    function balance(address investor) external view returns(uint256 investorBalance){\r\n        return IERC20(vitta).balanceOf(investor);\r\n    }\r\n\r\n    /**\r\n        Adjust stakes for every transfer of Vitta\r\n        @param  sender      transferor of Vitta\r\n        @param  recipient   transferee of vitta\r\n        @param  amount      amount of vitta transferred\r\n     */\r\n    function transfer(address sender, address recipient, uint256 amount) external {\r\n        require(msg.sender==vitta, \"Unauthorized sender\");\r\n        require(stakes[sender]>=amount, \"Insufficient balance\");\r\n        saveInvestor(recipient);\r\n        stakes[recipient] = SafeMath.add(stakes[recipient], amount);\r\n        stakes[sender] = SafeMath.sub(stakes[sender], amount);\r\n    }\r\n\r\n    /**\r\n        Pauses this contract\r\n     */\r\n    function pause() public onlyOwner {\r\n        _pause();\r\n    }\r\n    \r\n    /**\r\n        Unpauses this contract\r\n     */\r\n    function unpause() public onlyOwner {\r\n        _unpause();\r\n    }\r\n\r\n    function setOracle(address _oracle) public onlyOwner {\r\n        oracle = _oracle;\r\n    }\r\n    \r\n    function setExchangeRate(address token, uint256 rate) public onlyOracle(msg.sender) {\r\n        if(tokenIndex[token]>0){\r\n            exchangeRate[token] = rate;\r\n        }\r\n    }\r\n\r\n    function setTreasurer(address _treasurer) public onlyTreasurer(msg.sender){\r\n        treasury = _treasurer;\r\n    }\r\n\r\n    /**\r\n     * @dev Returns a scaling factor that, when multiplied to a token amount for `token`, normalizes its balance as if\r\n     * it had 18 decimals.\r\n     */\r\n    function _computeScalingFactor(IERC20 token) internal view returns (uint256) {\r\n        // Tokens that don't implement the `decimals` method are not supported.\r\n        uint256 tokenDecimals = ERC20(address(token)).decimals();\r\n\r\n        // Tokens with more than 18 decimals are not supported.\r\n        uint256 decimalsDifference = Math.sub(18, tokenDecimals);\r\n        return FixedPoint.ONE * 10**decimalsDifference;\r\n    }\r\n\r\n    /**\r\n     * @dev Reverses the `scalingFactor` applied to `amount`, resulting in a smaller or equal value depending on\r\n     * whether it needed scaling or not. The result is rounded down.\r\n     */\r\n    function _downscaleDown(uint256 amount, uint256 scalingFactor) internal pure returns (uint256) {\r\n        return FixedPoint.divDown(amount, scalingFactor);\r\n    }\r\n\r\n    /**\r\n     * @dev Applies `scalingFactor` to `amount`, resulting in a larger or equal value depending on whether it needed\r\n     * scaling or not.\r\n     */\r\n    function _upscale(uint256 amount, uint256 scalingFactor) internal pure returns (uint256) {\r\n        // Upscale rounding wouldn't necessarily always go in the same direction: in a swap for example the balance of\r\n        // token in should be rounded up, and that of token out rounded down. This is the only place where we round in\r\n        // the same direction for all amounts, as the impact of this rounding is expected to be minimal (and there's no\r\n        // rounding error unless `_scalingFactor()` is overriden).\r\n        return FixedPoint.mulDown(amount, scalingFactor);\r\n    }\r\n    \r\n}\r\n\r\n",
  "sourcePath": "D:\\Code\\verified-liquidity\\verified\\contracts\\Liquidity.sol",
  "compiler": {
    "name": "solc",
    "version": "0.8.0+commit.c7dfd78e.Emscripten.clang"
  },
  "schemaVersion": "3.4.3",
  "updatedAt": "2023-06-16T10:49:00.304Z",
  "networkType": "ethereum",
  "devdoc": {
    "kind": "dev",
    "methods": {
      "addManager(address,address)": {
        "params": {
          "_manager": "address of asset manager",
          "_platform": "address of market making platform (eg, Balancer)"
        }
      },
      "buy(address,uint256)": {
        "params": {
          "_amount": "amount of token that is transferred from investor to this VITTA issuing contract's account for the investor",
          "_token": "address of token used by investor to buy the VITTA"
        }
      },
      "checkSupportForToken(address)": {
        "params": {
          "_token": "token that is supported for investment"
        }
      },
      "constructor": {
        "params": {
          "_cap": "investment limit for each investor",
          "_limit": "time limit for issue close",
          "_vitta": "address of Verified liquidity token"
        }
      },
      "createSupply(uint256,uint256)": {
        "params": {
          "_cap": "investment limit for each investor",
          "_limit": "time limit for issue close "
        }
      },
      "distribute(uint256,address,address)": {
        "params": {
          "_distribution": "amount of VITTA to mint and distribute pro rata to liquidity providers",
          "_manager": "address of asset manager earning the paid out return on investment ",
          "_token": "address of token in which distribution is made by market maker    "
        }
      },
      "getInvestment(address,address)": {
        "params": {
          "_investor": "address of investor",
          "_token": "address of token invested by investor"
        }
      },
      "getManagerPerformance(address,address,address)": {
        "params": {
          "_manager": "address of asset manager on platform",
          "_platform": "address of platform",
          "_token": "address of token"
        }
      },
      "getManagers(address)": {
        "params": {
          "_platform": "address of market making platform"
        }
      },
      "getPlatformPerformance(address)": {
        "params": {
          "_platform": "address of market making platform"
        }
      },
      "issue(address,address,uint256,uint256)": {
        "params": {
          "_LPToIssue": "amount of VITTA to issue to investor ",
          "_investor": "address of investor",
          "_token": "address of token invested in VITTA",
          "_tokenAmount": "amount of token invested in VITTA"
        }
      },
      "owner()": {
        "details": "Returns the address of the current owner."
      },
      "paused()": {
        "details": "Returns true if the contract is paused, and false otherwise."
      },
      "payOut(uint256,address)": {
        "params": {
          "_distribution": "amount of VITTA to mint and distribute pro rata to liquidity providers   ",
          "_platform": "address of platform on which commission is earned based on which distribution is made"
        }
      },
      "provideLiquidity(address,address,uint256,address,uint256)": {
        "params": {
          "_liquidity": "amount of VITTA tokens to allot to an asset manager",
          "_manager": "address of asset manager to whom liquidity has to be provided",
          "_platform": "address of platform on which liquidity has to be provided",
          "_token": "address of token allotted to asset manager",
          "_tokenAmount": "amount of token allotted to asset manager"
        }
      },
      "registerPlatform(address,bytes32)": {
        "params": {
          "_liquidityPlatform": "address of the market making platform",
          "_platformName": "name of market making platform"
        }
      },
      "removeManager(address,address)": {
        "params": {
          "_manager": "address of asset manager",
          "_platform": "address of market making platform"
        }
      },
      "renounceOwnership()": {
        "details": "Leaves the contract without owner. It will not be possible to call `onlyOwner` functions anymore. Can only be called by the current owner. NOTE: Renouncing ownership will leave the contract without an owner, thereby removing any functionality that is only available to the owner."
      },
      "supportTokens(address,string)": {
        "params": {
          "_name": "name of token supported",
          "_token": "address of token supported"
        }
      },
      "transfer(address,address,uint256)": {
        "params": {
          "amount": "amount of vitta transferred",
          "recipient": "transferee of vitta",
          "sender": "transferor of Vitta"
        }
      },
      "transferOwnership(address)": {
        "details": "Transfers ownership of the contract to a new account (`newOwner`). Can only be called by the current owner."
      }
    },
    "version": 1
  },
  "userdoc": {
    "kind": "user",
    "methods": {
      "addManager(address,address)": {
        "notice": "Adds asset manager for managing liquidity"
      },
      "buy(address,uint256)": {
        "notice": "Used by external apps (eg, exchange, wallet) to buy Verified Liquidity token "
      },
      "checkSupportForToken(address)": {
        "notice": "Checks if a specified token is supported for investing in the Verified Liquidity token"
      },
      "constructor": {
        "notice": "Constructor for the Verified Liquidity manager"
      },
      "createSupply(uint256,uint256)": {
        "notice": "Updates investment and time limits for Verified Liquidity token after initial issue with constructor defined parameters"
      },
      "distribute(uint256,address,address)": {
        "notice": "Pay out of income by Market maker contracts to VITTA Liquidity providers"
      },
      "getInvestment(address,address)": {
        "notice": "Fetches investment detail for specific investor in VITTA"
      },
      "getInvestors()": {
        "notice": "Fetches investors in VITTA"
      },
      "getManagerPerformance(address,address,address)": {
        "notice": "Fetches performance of asset managers"
      },
      "getManagers(address)": {
        "notice": "Gets asset managers for managing liquidity"
      },
      "getPlatformPerformance(address)": {
        "notice": "Fetches performance of market platform platform"
      },
      "getPlatforms()": {
        "notice": "Gets list of registered platforms"
      },
      "getSupportedTokens()": {
        "notice": "Returns list of supported tokens"
      },
      "issue(address,address,uint256,uint256)": {
        "notice": "Used by admin to issue VITTA to investors or refund paid in tokens to investors if investment cap is breached"
      },
      "pause()": {
        "notice": "Pauses this contract"
      },
      "payOut(uint256,address)": {
        "notice": "Pay out income to VITTA Liquidity providers"
      },
      "provideLiquidity(address,address,uint256,address,uint256)": {
        "notice": "Provides staked VITTA to asset managers based on prior liquidity consumed and commission earned "
      },
      "registerPlatform(address,bytes32)": {
        "notice": "Registers a liquidity platform (eg, DEX) where Verified Liquidity tokens can be used to underwrite investments"
      },
      "removeManager(address,address)": {
        "notice": "Removes asset manager for managing liquidity on platform"
      },
      "supportTokens(address,string)": {
        "notice": "Specifies list of supported tokens that can be invested in the Verified Liquidity token"
      },
      "transfer(address,address,uint256)": {
        "notice": "Adjust stakes for every transfer of Vitta"
      },
      "unpause()": {
        "notice": "Unpauses this contract"
      }
    },
    "version": 1
  }
}