{
  "contractName": "Vitta",
  "abi": [
    {
      "inputs": [
        {
          "internalType": "string",
          "name": "tokenName",
          "type": "string"
        },
        {
          "internalType": "string",
          "name": "tokenSymbol",
          "type": "string"
        },
        {
          "internalType": "uint256",
          "name": "_supply",
          "type": "uint256"
        }
      ],
      "stateMutability": "nonpayable",
      "type": "constructor"
    },
    {
      "anonymous": false,
      "inputs": [
        {
          "indexed": true,
          "internalType": "address",
          "name": "owner",
          "type": "address"
        },
        {
          "indexed": true,
          "internalType": "address",
          "name": "spender",
          "type": "address"
        },
        {
          "indexed": false,
          "internalType": "uint256",
          "name": "value",
          "type": "uint256"
        }
      ],
      "name": "Approval",
      "type": "event"
    },
    {
      "anonymous": false,
      "inputs": [
        {
          "indexed": true,
          "internalType": "address",
          "name": "previousOwner",
          "type": "address"
        },
        {
          "indexed": true,
          "internalType": "address",
          "name": "newOwner",
          "type": "address"
        }
      ],
      "name": "OwnershipTransferred",
      "type": "event"
    },
    {
      "anonymous": false,
      "inputs": [
        {
          "indexed": false,
          "internalType": "address",
          "name": "account",
          "type": "address"
        }
      ],
      "name": "Paused",
      "type": "event"
    },
    {
      "anonymous": false,
      "inputs": [
        {
          "indexed": true,
          "internalType": "address",
          "name": "from",
          "type": "address"
        },
        {
          "indexed": true,
          "internalType": "address",
          "name": "to",
          "type": "address"
        },
        {
          "indexed": false,
          "internalType": "uint256",
          "name": "value",
          "type": "uint256"
        }
      ],
      "name": "Transfer",
      "type": "event"
    },
    {
      "anonymous": false,
      "inputs": [
        {
          "indexed": false,
          "internalType": "address",
          "name": "account",
          "type": "address"
        }
      ],
      "name": "Unpaused",
      "type": "event"
    },
    {
      "inputs": [
        {
          "internalType": "address",
          "name": "owner",
          "type": "address"
        },
        {
          "internalType": "address",
          "name": "spender",
          "type": "address"
        }
      ],
      "name": "allowance",
      "outputs": [
        {
          "internalType": "uint256",
          "name": "",
          "type": "uint256"
        }
      ],
      "stateMutability": "view",
      "type": "function",
      "constant": true
    },
    {
      "inputs": [
        {
          "internalType": "address",
          "name": "spender",
          "type": "address"
        },
        {
          "internalType": "uint256",
          "name": "amount",
          "type": "uint256"
        }
      ],
      "name": "approve",
      "outputs": [
        {
          "internalType": "bool",
          "name": "",
          "type": "bool"
        }
      ],
      "stateMutability": "nonpayable",
      "type": "function"
    },
    {
      "inputs": [
        {
          "internalType": "address",
          "name": "account",
          "type": "address"
        }
      ],
      "name": "balanceOf",
      "outputs": [
        {
          "internalType": "uint256",
          "name": "",
          "type": "uint256"
        }
      ],
      "stateMutability": "view",
      "type": "function",
      "constant": true
    },
    {
      "inputs": [],
      "name": "decimals",
      "outputs": [
        {
          "internalType": "uint8",
          "name": "",
          "type": "uint8"
        }
      ],
      "stateMutability": "view",
      "type": "function",
      "constant": true
    },
    {
      "inputs": [
        {
          "internalType": "address",
          "name": "spender",
          "type": "address"
        },
        {
          "internalType": "uint256",
          "name": "subtractedValue",
          "type": "uint256"
        }
      ],
      "name": "decreaseAllowance",
      "outputs": [
        {
          "internalType": "bool",
          "name": "",
          "type": "bool"
        }
      ],
      "stateMutability": "nonpayable",
      "type": "function"
    },
    {
      "inputs": [
        {
          "internalType": "address",
          "name": "spender",
          "type": "address"
        },
        {
          "internalType": "uint256",
          "name": "addedValue",
          "type": "uint256"
        }
      ],
      "name": "increaseAllowance",
      "outputs": [
        {
          "internalType": "bool",
          "name": "",
          "type": "bool"
        }
      ],
      "stateMutability": "nonpayable",
      "type": "function"
    },
    {
      "inputs": [],
      "name": "name",
      "outputs": [
        {
          "internalType": "string",
          "name": "",
          "type": "string"
        }
      ],
      "stateMutability": "view",
      "type": "function",
      "constant": true
    },
    {
      "inputs": [],
      "name": "owner",
      "outputs": [
        {
          "internalType": "address",
          "name": "",
          "type": "address"
        }
      ],
      "stateMutability": "view",
      "type": "function",
      "constant": true
    },
    {
      "inputs": [],
      "name": "paused",
      "outputs": [
        {
          "internalType": "bool",
          "name": "",
          "type": "bool"
        }
      ],
      "stateMutability": "view",
      "type": "function",
      "constant": true
    },
    {
      "inputs": [],
      "name": "renounceOwnership",
      "outputs": [],
      "stateMutability": "nonpayable",
      "type": "function"
    },
    {
      "inputs": [],
      "name": "symbol",
      "outputs": [
        {
          "internalType": "string",
          "name": "",
          "type": "string"
        }
      ],
      "stateMutability": "view",
      "type": "function",
      "constant": true
    },
    {
      "inputs": [],
      "name": "totalSupply",
      "outputs": [
        {
          "internalType": "uint256",
          "name": "",
          "type": "uint256"
        }
      ],
      "stateMutability": "view",
      "type": "function",
      "constant": true
    },
    {
      "inputs": [
        {
          "internalType": "address",
          "name": "recipient",
          "type": "address"
        },
        {
          "internalType": "uint256",
          "name": "amount",
          "type": "uint256"
        }
      ],
      "name": "transfer",
      "outputs": [
        {
          "internalType": "bool",
          "name": "",
          "type": "bool"
        }
      ],
      "stateMutability": "nonpayable",
      "type": "function"
    },
    {
      "inputs": [
        {
          "internalType": "address",
          "name": "newOwner",
          "type": "address"
        }
      ],
      "name": "transferOwnership",
      "outputs": [],
      "stateMutability": "nonpayable",
      "type": "function"
    },
    {
      "inputs": [
        {
          "internalType": "uint256",
          "name": "supply",
          "type": "uint256"
        }
      ],
      "name": "createSupply",
      "outputs": [],
      "stateMutability": "nonpayable",
      "type": "function"
    },
    {
      "inputs": [
        {
          "internalType": "address",
          "name": "manager",
          "type": "address"
        }
      ],
      "name": "setManager",
      "outputs": [],
      "stateMutability": "nonpayable",
      "type": "function"
    },
    {
      "inputs": [
        {
          "internalType": "address",
          "name": "creditTo",
          "type": "address"
        },
        {
          "internalType": "uint256",
          "name": "amount",
          "type": "uint256"
        }
      ],
      "name": "mint",
      "outputs": [],
      "stateMutability": "nonpayable",
      "type": "function"
    },
    {
      "inputs": [
        {
          "internalType": "address",
          "name": "sender",
          "type": "address"
        },
        {
          "internalType": "address",
          "name": "recipient",
          "type": "address"
        },
        {
          "internalType": "uint256",
          "name": "amount",
          "type": "uint256"
        }
      ],
      "name": "transferFrom",
      "outputs": [
        {
          "internalType": "bool",
          "name": "",
          "type": "bool"
        }
      ],
      "stateMutability": "nonpayable",
      "type": "function"
    },
    {
      "inputs": [],
      "name": "pause",
      "outputs": [],
      "stateMutability": "nonpayable",
      "type": "function"
    },
    {
      "inputs": [],
      "name": "unpause",
      "outputs": [],
      "stateMutability": "nonpayable",
      "type": "function"
    }
  ],
  "bytecode": "0x60806040523480156200001157600080fd5b506040516200153d3803806200153d833981016040819052620000349162000330565b8251839083906200004d906003906020850190620001df565b50805162000063906004906020840190620001df565b505050620000806200007a620000a260201b60201c565b620000a6565b6005805460ff60a01b19169055620000993382620000f8565b50505062000458565b3390565b600580546001600160a01b038381166001600160a01b0319831681179093556040519116919082907f8be0079c531659141344cd1fd0a4f28419497f9722a3daafe3b4186f6b6457e090600090a35050565b6001600160a01b0382166200012a5760405162461bcd60e51b81526004016200012190620003a0565b60405180910390fd5b6200013860008383620001da565b80600260008282546200014c9190620003e0565b90915550506001600160a01b038216600090815260208190526040812080548392906200017b908490620003e0565b90915550506040516001600160a01b038316906000907fddf252ad1be2c89b69c2b068fc378daa952ba7f163c4a11628f55a4df523b3ef90620001c0908590620003d7565b60405180910390a3620001d660008383620001da565b5050565b505050565b828054620001ed9062000405565b90600052602060002090601f0160209004810192826200021157600085556200025c565b82601f106200022c57805160ff19168380011785556200025c565b828001600101855582156200025c579182015b828111156200025c5782518255916020019190600101906200023f565b506200026a9291506200026e565b5090565b5b808211156200026a57600081556001016200026f565b600082601f83011262000296578081fd5b81516001600160401b0380821115620002b357620002b362000442565b6040516020601f8401601f1916820181018381118382101715620002db57620002db62000442565b6040528382528584018101871015620002f2578485fd5b8492505b83831015620003155785830181015182840182015291820191620002f6565b838311156200032657848185840101525b5095945050505050565b60008060006060848603121562000345578283fd5b83516001600160401b03808211156200035c578485fd5b6200036a8783880162000285565b9450602086015191508082111562000380578384fd5b506200038f8682870162000285565b925050604084015190509250925092565b6020808252601f908201527f45524332303a206d696e7420746f20746865207a65726f206164647265737300604082015260600190565b90815260200190565b600082198211156200040057634e487b7160e01b81526011600452602481fd5b500190565b6002810460018216806200041a57607f821691505b602082108114156200043c57634e487b7160e01b600052602260045260246000fd5b50919050565b634e487b7160e01b600052604160045260246000fd5b6110d580620004686000396000f3fe608060405234801561001057600080fd5b506004361061012c5760003560e01c8063715018a6116100ad578063a457c2d711610071578063a457c2d714610237578063a9059cbb1461024a578063d0ebdbe71461025d578063dd62ed3e14610270578063f2fde38b146102835761012c565b8063715018a6146101f75780638456cb59146101ff5780638da5cb5b1461020757806395d89b411461021c5780639c2f8680146102245761012c565b806339509351116100f457806339509351146101ac5780633f4ba83a146101bf57806340c10f19146101c95780635c975abb146101dc57806370a08231146101e45761012c565b806306fdde0314610131578063095ea7b31461014f57806318160ddd1461016f57806323b872dd14610184578063313ce56714610197575b600080fd5b610139610296565b6040516101469190610ceb565b60405180910390f35b61016261015d366004610c67565b610328565b6040516101469190610ce0565b610177610345565b6040516101469190611029565b610162610192366004610c2c565b61034b565b61019f6103e9565b6040516101469190611032565b6101626101ba366004610c67565b6103ee565b6101c7610442565b005b6101c76101d7366004610c67565b610494565b6101626104b9565b6101776101f2366004610bd9565b6104c9565b6101c76104e8565b6101c7610531565b61020f610578565b6040516101469190610ca8565b610139610587565b6101c7610232366004610c90565b610596565b610162610245366004610c67565b6105e2565b610162610258366004610c67565b610651565b6101c761026b366004610bd9565b610665565b61017761027e366004610bfa565b6106c6565b6101c7610291366004610bd9565b6106f1565b6060600380546102a590611064565b80601f01602080910402602001604051908101604052809291908181526020018280546102d190611064565b801561031e5780601f106102f35761010080835404028352916020019161031e565b820191906000526020600020905b81548152906001019060200180831161030157829003601f168201915b5050505050905090565b600061033c61033561075f565b8484610763565b50600192915050565b60025490565b6000610358848484610817565b151560011461036657600080fd5b6006546001600160a01b031633146103df576006546040516317d5759960e31b81526001600160a01b039091169063beabacc8906103ac90879087908790600401610cbc565b600060405180830381600087803b1580156103c657600080fd5b505af11580156103da573d6000803e3d6000fd5b505050505b5060019392505050565b601290565b600061033c6103fb61075f565b84846001600061040961075f565b6001600160a01b03908116825260208083019390935260409182016000908120918b168152925290205461043d9190611040565b610763565b61044a61075f565b6001600160a01b031661045b610578565b6001600160a01b03161461048a5760405162461bcd60e51b815260040161048190610eef565b60405180910390fd5b6104926108a7565b565b6006546001600160a01b031633146104ab57600080fd5b6104b58282610918565b5050565b600554600160a01b900460ff1690565b6001600160a01b0381166000908152602081905260409020545b919050565b6104f061075f565b6001600160a01b0316610501610578565b6001600160a01b0316146105275760405162461bcd60e51b815260040161048190610eef565b61049260006109e0565b61053961075f565b6001600160a01b031661054a610578565b6001600160a01b0316146105705760405162461bcd60e51b815260040161048190610eef565b610492610a32565b6005546001600160a01b031690565b6060600480546102a590611064565b61059e61075f565b6001600160a01b03166105af610578565b6001600160a01b0316146105d55760405162461bcd60e51b815260040161048190610eef565b6105df3382610918565b50565b600080600160006105f161075f565b6001600160a01b039081168252602080830193909352604091820160009081209188168152925290205490508281101561063d5760405162461bcd60e51b815260040161048190610fad565b6103df61064861075f565b85858403610763565b600061033c61065e61075f565b8484610a93565b61066d61075f565b6001600160a01b031661067e610578565b6001600160a01b0316146106a45760405162461bcd60e51b815260040161048190610eef565b600680546001600160a01b0319166001600160a01b0392909216919091179055565b6001600160a01b03918216600090815260016020908152604080832093909416825291909152205490565b6106f961075f565b6001600160a01b031661070a610578565b6001600160a01b0316146107305760405162461bcd60e51b815260040161048190610eef565b6001600160a01b0381166107565760405162461bcd60e51b815260040161048190610daf565b6105df816109e0565b3390565b6001600160a01b0383166107895760405162461bcd60e51b815260040161048190610f69565b6001600160a01b0382166107af5760405162461bcd60e51b815260040161048190610df5565b6001600160a01b0380841660008181526001602090815260408083209487168084529490915290819020849055517f8c5be1e5ebec7d5bd14f71427d1e84f3dd0314c0f7b2291e5b200ac8c7c3b9259061080a908590611029565b60405180910390a3505050565b6000610824848484610a93565b6001600160a01b03841660009081526001602052604081208161084561075f565b6001600160a01b03166001600160a01b03168152602001908152602001600020549050828110156108885760405162461bcd60e51b815260040161048190610ea7565b61089c8561089461075f565b858403610763565b506001949350505050565b6108af6104b9565b6108cb5760405162461bcd60e51b815260040161048190610d81565b6005805460ff60a01b191690557f5db9ee0a495bf2e6ff9c91a7834c1ba4fdd244a5e8aa4e537bd38aeae4b073aa61090161075f565b60405161090e9190610ca8565b60405180910390a1565b6001600160a01b03821661093e5760405162461bcd60e51b815260040161048190610ff2565b61094a60008383610bbd565b806002600082825461095c9190611040565b90915550506001600160a01b03821660009081526020819052604081208054839290610989908490611040565b90915550506040516001600160a01b038316906000907fddf252ad1be2c89b69c2b068fc378daa952ba7f163c4a11628f55a4df523b3ef906109cc908590611029565b60405180910390a36104b560008383610bbd565b600580546001600160a01b038381166001600160a01b0319831681179093556040519116919082907f8be0079c531659141344cd1fd0a4f28419497f9722a3daafe3b4186f6b6457e090600090a35050565b610a3a6104b9565b15610a575760405162461bcd60e51b815260040161048190610e7d565b6005805460ff60a01b1916600160a01b1790557f62e78cea01bee320cd4e420270b5ea74000d11b0c9f74754ebdbfc544b05a25861090161075f565b6001600160a01b038316610ab95760405162461bcd60e51b815260040161048190610f24565b6001600160a01b038216610adf5760405162461bcd60e51b815260040161048190610d3e565b610aea838383610bbd565b6001600160a01b03831660009081526020819052604090205481811015610b235760405162461bcd60e51b815260040161048190610e37565b6001600160a01b03808516600090815260208190526040808220858503905591851681529081208054849290610b5a908490611040565b92505081905550826001600160a01b0316846001600160a01b03167fddf252ad1be2c89b69c2b068fc378daa952ba7f163c4a11628f55a4df523b3ef84604051610ba49190611029565b60405180910390a3610bb7848484610bbd565b50505050565b505050565b80356001600160a01b03811681146104e357600080fd5b600060208284031215610bea578081fd5b610bf382610bc2565b9392505050565b60008060408385031215610c0c578081fd5b610c1583610bc2565b9150610c2360208401610bc2565b90509250929050565b600080600060608486031215610c40578081fd5b610c4984610bc2565b9250610c5760208501610bc2565b9150604084013590509250925092565b60008060408385031215610c79578182fd5b610c8283610bc2565b946020939093013593505050565b600060208284031215610ca1578081fd5b5035919050565b6001600160a01b0391909116815260200190565b6001600160a01b039384168152919092166020820152604081019190915260600190565b901515815260200190565b6000602080835283518082850152825b81811015610d1757858101830151858201604001528201610cfb565b81811115610d285783604083870101525b50601f01601f1916929092016040019392505050565b60208082526023908201527f45524332303a207472616e7366657220746f20746865207a65726f206164647260408201526265737360e81b606082015260800190565b60208082526014908201527314185d5cd8589b194e881b9bdd081c185d5cd95960621b604082015260600190565b60208082526026908201527f4f776e61626c653a206e6577206f776e657220697320746865207a65726f206160408201526564647265737360d01b606082015260800190565b60208082526022908201527f45524332303a20617070726f766520746f20746865207a65726f206164647265604082015261737360f01b606082015260800190565b60208082526026908201527f45524332303a207472616e7366657220616d6f756e7420657863656564732062604082015265616c616e636560d01b606082015260800190565b60208082526010908201526f14185d5cd8589b194e881c185d5cd95960821b604082015260600190565b60208082526028908201527f45524332303a207472616e7366657220616d6f756e74206578636565647320616040820152676c6c6f77616e636560c01b606082015260800190565b6020808252818101527f4f776e61626c653a2063616c6c6572206973206e6f7420746865206f776e6572604082015260600190565b60208082526025908201527f45524332303a207472616e736665722066726f6d20746865207a65726f206164604082015264647265737360d81b606082015260800190565b60208082526024908201527f45524332303a20617070726f76652066726f6d20746865207a65726f206164646040820152637265737360e01b606082015260800190565b60208082526025908201527f45524332303a2064656372656173656420616c6c6f77616e63652062656c6f77604082015264207a65726f60d81b606082015260800190565b6020808252601f908201527f45524332303a206d696e7420746f20746865207a65726f206164647265737300604082015260600190565b90815260200190565b60ff91909116815260200190565b6000821982111561105f57634e487b7160e01b81526011600452602481fd5b500190565b60028104600182168061107857607f821691505b6020821081141561109957634e487b7160e01b600052602260045260246000fd5b5091905056fea2646970667358221220f7cd284bb23b2c130547aa1151968c84871667481f6ca0a204645ee6ef89e5c364736f6c63430008000033",
  "immutableReferences": {},
  "source": "// Verified Liquidity token \r\n// (c) Kallol Borah, 2021\r\n\r\n//\"SPDX-License-Identifier: UNLICENSED\"\r\n\r\npragma solidity 0.8.0;\r\n\r\nimport \"@openzeppelin/contracts/token/ERC20/ERC20.sol\";\r\nimport \"@openzeppelin/contracts/security/Pausable.sol\";\r\nimport \"@openzeppelin/contracts/access/Ownable.sol\";\r\n\r\nimport \"./interfaces/ILiquidity.sol\";\r\n\r\ncontract Vitta is ERC20, Ownable, Pausable {\r\n\r\n    address private liquidityManager;\r\n\r\n    constructor(\r\n        string memory tokenName,\r\n        string memory tokenSymbol,\r\n        uint256 _supply\r\n    ) ERC20(tokenName, tokenSymbol) {\r\n        _mint(msg.sender, _supply);\r\n    }\r\n\r\n    function createSupply(uint256 supply) onlyOwner public {\r\n        _mint(msg.sender, supply);\r\n    }\r\n\r\n    function setManager(address manager) onlyOwner public {\r\n        liquidityManager = manager;\r\n    }\r\n\r\n    function mint(address creditTo, uint256 amount) external {\r\n        require(msg.sender==liquidityManager);\r\n        _mint(creditTo, amount);\r\n    }\r\n\r\n    function transferFrom(\r\n        address sender,\r\n        address recipient,\r\n        uint256 amount\r\n    ) public virtual override returns (bool) {\r\n        require(super.transferFrom(sender, recipient, amount)==true);\r\n        //if transferor is not the liquidity contract itself, transfer underlying stakes as well\r\n        if(msg.sender!=liquidityManager){\r\n            ILiquidity(liquidityManager).transfer(sender, recipient, amount);\r\n        }\r\n        return true;\r\n    }\r\n\r\n    /**\r\n        Pauses this contract\r\n     */\r\n    function pause() onlyOwner public {\r\n        _pause();\r\n    }\r\n    \r\n    /**\r\n        Unpauses this contract\r\n     */\r\n    function unpause() onlyOwner public {\r\n        _unpause();\r\n    }\r\n\r\n}",
  "sourcePath": "D:\\Code\\verified-liquidity\\verified\\contracts\\Vitta.sol",
  "compiler": {
    "name": "solc",
    "version": "0.8.0+commit.c7dfd78e.Emscripten.clang"
  },
  "schemaVersion": "3.4.3",
  "updatedAt": "2023-02-23T14:46:32.932Z",
  "networkType": "ethereum",
  "devdoc": {
    "kind": "dev",
    "methods": {
      "allowance(address,address)": {
        "details": "See {IERC20-allowance}."
      },
      "approve(address,uint256)": {
        "details": "See {IERC20-approve}. Requirements: - `spender` cannot be the zero address."
      },
      "balanceOf(address)": {
        "details": "See {IERC20-balanceOf}."
      },
      "decimals()": {
        "details": "Returns the number of decimals used to get its user representation. For example, if `decimals` equals `2`, a balance of `505` tokens should be displayed to a user as `5.05` (`505 / 10 ** 2`). Tokens usually opt for a value of 18, imitating the relationship between Ether and Wei. This is the value {ERC20} uses, unless this function is overridden; NOTE: This information is only used for _display_ purposes: it in no way affects any of the arithmetic of the contract, including {IERC20-balanceOf} and {IERC20-transfer}."
      },
      "decreaseAllowance(address,uint256)": {
        "details": "Atomically decreases the allowance granted to `spender` by the caller. This is an alternative to {approve} that can be used as a mitigation for problems described in {IERC20-approve}. Emits an {Approval} event indicating the updated allowance. Requirements: - `spender` cannot be the zero address. - `spender` must have allowance for the caller of at least `subtractedValue`."
      },
      "increaseAllowance(address,uint256)": {
        "details": "Atomically increases the allowance granted to `spender` by the caller. This is an alternative to {approve} that can be used as a mitigation for problems described in {IERC20-approve}. Emits an {Approval} event indicating the updated allowance. Requirements: - `spender` cannot be the zero address."
      },
      "name()": {
        "details": "Returns the name of the token."
      },
      "owner()": {
        "details": "Returns the address of the current owner."
      },
      "paused()": {
        "details": "Returns true if the contract is paused, and false otherwise."
      },
      "renounceOwnership()": {
        "details": "Leaves the contract without owner. It will not be possible to call `onlyOwner` functions anymore. Can only be called by the current owner. NOTE: Renouncing ownership will leave the contract without an owner, thereby removing any functionality that is only available to the owner."
      },
      "symbol()": {
        "details": "Returns the symbol of the token, usually a shorter version of the name."
      },
      "totalSupply()": {
        "details": "See {IERC20-totalSupply}."
      },
      "transfer(address,uint256)": {
        "details": "See {IERC20-transfer}. Requirements: - `recipient` cannot be the zero address. - the caller must have a balance of at least `amount`."
      },
      "transferFrom(address,address,uint256)": {
        "details": "See {IERC20-transferFrom}. Emits an {Approval} event indicating the updated allowance. This is not required by the EIP. See the note at the beginning of {ERC20}. Requirements: - `sender` and `recipient` cannot be the zero address. - `sender` must have a balance of at least `amount`. - the caller must have allowance for ``sender``'s tokens of at least `amount`."
      },
      "transferOwnership(address)": {
        "details": "Transfers ownership of the contract to a new account (`newOwner`). Can only be called by the current owner."
      }
    },
    "version": 1
  },
  "userdoc": {
    "kind": "user",
    "methods": {
      "pause()": {
        "notice": "Pauses this contract"
      },
      "unpause()": {
        "notice": "Unpauses this contract"
      }
    },
    "version": 1
  }
}