{
  "contractName": "Vitta",
  "abi": [
    {
      "inputs": [
        {
          "internalType": "string",
          "name": "tokenName",
          "type": "string"
        },
        {
          "internalType": "string",
          "name": "tokenSymbol",
          "type": "string"
        },
        {
          "internalType": "uint256",
          "name": "_supply",
          "type": "uint256"
        }
      ],
      "stateMutability": "nonpayable",
      "type": "constructor"
    },
    {
      "anonymous": false,
      "inputs": [
        {
          "indexed": true,
          "internalType": "address",
          "name": "owner",
          "type": "address"
        },
        {
          "indexed": true,
          "internalType": "address",
          "name": "spender",
          "type": "address"
        },
        {
          "indexed": false,
          "internalType": "uint256",
          "name": "value",
          "type": "uint256"
        }
      ],
      "name": "Approval",
      "type": "event"
    },
    {
      "anonymous": false,
      "inputs": [
        {
          "indexed": true,
          "internalType": "address",
          "name": "previousOwner",
          "type": "address"
        },
        {
          "indexed": true,
          "internalType": "address",
          "name": "newOwner",
          "type": "address"
        }
      ],
      "name": "OwnershipTransferred",
      "type": "event"
    },
    {
      "anonymous": false,
      "inputs": [
        {
          "indexed": false,
          "internalType": "address",
          "name": "account",
          "type": "address"
        }
      ],
      "name": "Paused",
      "type": "event"
    },
    {
      "anonymous": false,
      "inputs": [
        {
          "indexed": true,
          "internalType": "address",
          "name": "from",
          "type": "address"
        },
        {
          "indexed": true,
          "internalType": "address",
          "name": "to",
          "type": "address"
        },
        {
          "indexed": false,
          "internalType": "uint256",
          "name": "value",
          "type": "uint256"
        }
      ],
      "name": "Transfer",
      "type": "event"
    },
    {
      "anonymous": false,
      "inputs": [
        {
          "indexed": false,
          "internalType": "address",
          "name": "account",
          "type": "address"
        }
      ],
      "name": "Unpaused",
      "type": "event"
    },
    {
      "inputs": [
        {
          "internalType": "address",
          "name": "owner",
          "type": "address"
        },
        {
          "internalType": "address",
          "name": "spender",
          "type": "address"
        }
      ],
      "name": "allowance",
      "outputs": [
        {
          "internalType": "uint256",
          "name": "",
          "type": "uint256"
        }
      ],
      "stateMutability": "view",
      "type": "function",
      "constant": true
    },
    {
      "inputs": [
        {
          "internalType": "address",
          "name": "spender",
          "type": "address"
        },
        {
          "internalType": "uint256",
          "name": "amount",
          "type": "uint256"
        }
      ],
      "name": "approve",
      "outputs": [
        {
          "internalType": "bool",
          "name": "",
          "type": "bool"
        }
      ],
      "stateMutability": "nonpayable",
      "type": "function"
    },
    {
      "inputs": [
        {
          "internalType": "address",
          "name": "account",
          "type": "address"
        }
      ],
      "name": "balanceOf",
      "outputs": [
        {
          "internalType": "uint256",
          "name": "",
          "type": "uint256"
        }
      ],
      "stateMutability": "view",
      "type": "function",
      "constant": true
    },
    {
      "inputs": [],
      "name": "decimals",
      "outputs": [
        {
          "internalType": "uint8",
          "name": "",
          "type": "uint8"
        }
      ],
      "stateMutability": "view",
      "type": "function",
      "constant": true
    },
    {
      "inputs": [
        {
          "internalType": "address",
          "name": "spender",
          "type": "address"
        },
        {
          "internalType": "uint256",
          "name": "subtractedValue",
          "type": "uint256"
        }
      ],
      "name": "decreaseAllowance",
      "outputs": [
        {
          "internalType": "bool",
          "name": "",
          "type": "bool"
        }
      ],
      "stateMutability": "nonpayable",
      "type": "function"
    },
    {
      "inputs": [
        {
          "internalType": "address",
          "name": "spender",
          "type": "address"
        },
        {
          "internalType": "uint256",
          "name": "addedValue",
          "type": "uint256"
        }
      ],
      "name": "increaseAllowance",
      "outputs": [
        {
          "internalType": "bool",
          "name": "",
          "type": "bool"
        }
      ],
      "stateMutability": "nonpayable",
      "type": "function"
    },
    {
      "inputs": [],
      "name": "name",
      "outputs": [
        {
          "internalType": "string",
          "name": "",
          "type": "string"
        }
      ],
      "stateMutability": "view",
      "type": "function",
      "constant": true
    },
    {
      "inputs": [],
      "name": "owner",
      "outputs": [
        {
          "internalType": "address",
          "name": "",
          "type": "address"
        }
      ],
      "stateMutability": "view",
      "type": "function",
      "constant": true
    },
    {
      "inputs": [],
      "name": "paused",
      "outputs": [
        {
          "internalType": "bool",
          "name": "",
          "type": "bool"
        }
      ],
      "stateMutability": "view",
      "type": "function",
      "constant": true
    },
    {
      "inputs": [],
      "name": "renounceOwnership",
      "outputs": [],
      "stateMutability": "nonpayable",
      "type": "function"
    },
    {
      "inputs": [],
      "name": "symbol",
      "outputs": [
        {
          "internalType": "string",
          "name": "",
          "type": "string"
        }
      ],
      "stateMutability": "view",
      "type": "function",
      "constant": true
    },
    {
      "inputs": [],
      "name": "totalSupply",
      "outputs": [
        {
          "internalType": "uint256",
          "name": "",
          "type": "uint256"
        }
      ],
      "stateMutability": "view",
      "type": "function",
      "constant": true
    },
    {
      "inputs": [
        {
          "internalType": "address",
          "name": "recipient",
          "type": "address"
        },
        {
          "internalType": "uint256",
          "name": "amount",
          "type": "uint256"
        }
      ],
      "name": "transfer",
      "outputs": [
        {
          "internalType": "bool",
          "name": "",
          "type": "bool"
        }
      ],
      "stateMutability": "nonpayable",
      "type": "function"
    },
    {
      "inputs": [
        {
          "internalType": "address",
          "name": "sender",
          "type": "address"
        },
        {
          "internalType": "address",
          "name": "recipient",
          "type": "address"
        },
        {
          "internalType": "uint256",
          "name": "amount",
          "type": "uint256"
        }
      ],
      "name": "transferFrom",
      "outputs": [
        {
          "internalType": "bool",
          "name": "",
          "type": "bool"
        }
      ],
      "stateMutability": "nonpayable",
      "type": "function"
    },
    {
      "inputs": [
        {
          "internalType": "address",
          "name": "newOwner",
          "type": "address"
        }
      ],
      "name": "transferOwnership",
      "outputs": [],
      "stateMutability": "nonpayable",
      "type": "function"
    },
    {
      "inputs": [
        {
          "internalType": "uint256",
          "name": "supply",
          "type": "uint256"
        }
      ],
      "name": "createSupply",
      "outputs": [],
      "stateMutability": "nonpayable",
      "type": "function"
    },
    {
      "inputs": [
        {
          "internalType": "address",
          "name": "manager",
          "type": "address"
        }
      ],
      "name": "setManager",
      "outputs": [],
      "stateMutability": "nonpayable",
      "type": "function"
    },
    {
      "inputs": [
        {
          "internalType": "address",
          "name": "creditTo",
          "type": "address"
        },
        {
          "internalType": "uint256",
          "name": "amount",
          "type": "uint256"
        }
      ],
      "name": "mint",
      "outputs": [],
      "stateMutability": "nonpayable",
      "type": "function"
    },
    {
      "inputs": [],
      "name": "pause",
      "outputs": [],
      "stateMutability": "nonpayable",
      "type": "function"
    },
    {
      "inputs": [],
      "name": "unpause",
      "outputs": [],
      "stateMutability": "nonpayable",
      "type": "function"
    }
  ],
  "bytecode": "0x60806040523480156200001157600080fd5b506040516200148538038062001485833981016040819052620000349162000330565b8251839083906200004d906003906020850190620001df565b50805162000063906004906020840190620001df565b505050620000806200007a620000a260201b60201c565b620000a6565b6005805460ff60a01b19169055620000993382620000f8565b50505062000458565b3390565b600580546001600160a01b038381166001600160a01b0319831681179093556040519116919082907f8be0079c531659141344cd1fd0a4f28419497f9722a3daafe3b4186f6b6457e090600090a35050565b6001600160a01b0382166200012a5760405162461bcd60e51b81526004016200012190620003a0565b60405180910390fd5b6200013860008383620001da565b80600260008282546200014c9190620003e0565b90915550506001600160a01b038216600090815260208190526040812080548392906200017b908490620003e0565b90915550506040516001600160a01b038316906000907fddf252ad1be2c89b69c2b068fc378daa952ba7f163c4a11628f55a4df523b3ef90620001c0908590620003d7565b60405180910390a3620001d660008383620001da565b5050565b505050565b828054620001ed9062000405565b90600052602060002090601f0160209004810192826200021157600085556200025c565b82601f106200022c57805160ff19168380011785556200025c565b828001600101855582156200025c579182015b828111156200025c5782518255916020019190600101906200023f565b506200026a9291506200026e565b5090565b5b808211156200026a57600081556001016200026f565b600082601f83011262000296578081fd5b81516001600160401b0380821115620002b357620002b362000442565b6040516020601f8401601f1916820181018381118382101715620002db57620002db62000442565b6040528382528584018101871015620002f2578485fd5b8492505b83831015620003155785830181015182840182015291820191620002f6565b838311156200032657848185840101525b5095945050505050565b60008060006060848603121562000345578283fd5b83516001600160401b03808211156200035c578485fd5b6200036a8783880162000285565b9450602086015191508082111562000380578384fd5b506200038f8682870162000285565b925050604084015190509250925092565b6020808252601f908201527f45524332303a206d696e7420746f20746865207a65726f206164647265737300604082015260600190565b90815260200190565b600082198211156200040057634e487b7160e01b81526011600452602481fd5b500190565b6002810460018216806200041a57607f821691505b602082108114156200043c57634e487b7160e01b600052602260045260246000fd5b50919050565b634e487b7160e01b600052604160045260246000fd5b61101d80620004686000396000f3fe608060405234801561001057600080fd5b506004361061012c5760003560e01c8063715018a6116100ad578063a457c2d711610071578063a457c2d714610237578063a9059cbb1461024a578063d0ebdbe71461025d578063dd62ed3e14610270578063f2fde38b146102835761012c565b8063715018a6146101f75780638456cb59146101ff5780638da5cb5b1461020757806395d89b411461021c5780639c2f8680146102245761012c565b806339509351116100f457806339509351146101ac5780633f4ba83a146101bf57806340c10f19146101c95780635c975abb146101dc57806370a08231146101e45761012c565b806306fdde0314610131578063095ea7b31461014f57806318160ddd1461016f57806323b872dd14610184578063313ce56714610197575b600080fd5b610139610296565b6040516101469190610c33565b60405180910390f35b61016261015d366004610bd3565b610328565b6040516101469190610c28565b610177610345565b6040516101469190610f71565b610162610192366004610b98565b61034b565b61019f6103e4565b6040516101469190610f7a565b6101626101ba366004610bd3565b6103e9565b6101c761043d565b005b6101c76101d7366004610bd3565b610486565b6101626104ab565b6101776101f2366004610b45565b6104bb565b6101c76104da565b6101c7610523565b61020f61056a565b6040516101469190610c14565b610139610579565b6101c7610232366004610bfc565b610588565b610162610245366004610bd3565b6105d4565b610162610258366004610bd3565b61064d565b6101c761026b366004610b45565b610661565b61017761027e366004610b66565b6106c2565b6101c7610291366004610b45565b6106ed565b6060600380546102a590610fac565b80601f01602080910402602001604051908101604052809291908181526020018280546102d190610fac565b801561031e5780601f106102f35761010080835404028352916020019161031e565b820191906000526020600020905b81548152906001019060200180831161030157829003601f168201915b5050505050905090565b600061033c61033561075b565b848461075f565b50600192915050565b60025490565b6000610358848484610813565b6001600160a01b03841660009081526001602052604081208161037961075b565b6001600160a01b03166001600160a01b03168152602001908152602001600020549050828110156103c55760405162461bcd60e51b81526004016103bc90610def565b60405180910390fd5b6103d9856103d161075b565b85840361075f565b506001949350505050565b601290565b600061033c6103f661075b565b84846001600061040461075b565b6001600160a01b03908116825260208083019390935260409182016000908120918b16815292529020546104389190610f88565b61075f565b61044561075b565b6001600160a01b031661045661056a565b6001600160a01b03161461047c5760405162461bcd60e51b81526004016103bc90610e37565b61048461093d565b565b6006546001600160a01b0316331461049d57600080fd5b6104a782826109ae565b5050565b600554600160a01b900460ff1690565b6001600160a01b0381166000908152602081905260409020545b919050565b6104e261075b565b6001600160a01b03166104f361056a565b6001600160a01b0316146105195760405162461bcd60e51b81526004016103bc90610e37565b6104846000610a76565b61052b61075b565b6001600160a01b031661053c61056a565b6001600160a01b0316146105625760405162461bcd60e51b81526004016103bc90610e37565b610484610ac8565b6005546001600160a01b031690565b6060600480546102a590610fac565b61059061075b565b6001600160a01b03166105a161056a565b6001600160a01b0316146105c75760405162461bcd60e51b81526004016103bc90610e37565b6105d133826109ae565b50565b600080600160006105e361075b565b6001600160a01b039081168252602080830193909352604091820160009081209188168152925290205490508281101561062f5760405162461bcd60e51b81526004016103bc90610ef5565b61064361063a61075b565b8585840361075f565b5060019392505050565b600061033c61065a61075b565b8484610813565b61066961075b565b6001600160a01b031661067a61056a565b6001600160a01b0316146106a05760405162461bcd60e51b81526004016103bc90610e37565b600680546001600160a01b0319166001600160a01b0392909216919091179055565b6001600160a01b03918216600090815260016020908152604080832093909416825291909152205490565b6106f561075b565b6001600160a01b031661070661056a565b6001600160a01b03161461072c5760405162461bcd60e51b81526004016103bc90610e37565b6001600160a01b0381166107525760405162461bcd60e51b81526004016103bc90610cf7565b6105d181610a76565b3390565b6001600160a01b0383166107855760405162461bcd60e51b81526004016103bc90610eb1565b6001600160a01b0382166107ab5760405162461bcd60e51b81526004016103bc90610d3d565b6001600160a01b0380841660008181526001602090815260408083209487168084529490915290819020849055517f8c5be1e5ebec7d5bd14f71427d1e84f3dd0314c0f7b2291e5b200ac8c7c3b92590610806908590610f71565b60405180910390a3505050565b6001600160a01b0383166108395760405162461bcd60e51b81526004016103bc90610e6c565b6001600160a01b03821661085f5760405162461bcd60e51b81526004016103bc90610c86565b61086a838383610b29565b6001600160a01b038316600090815260208190526040902054818110156108a35760405162461bcd60e51b81526004016103bc90610d7f565b6001600160a01b038085166000908152602081905260408082208585039055918516815290812080548492906108da908490610f88565b92505081905550826001600160a01b0316846001600160a01b03167fddf252ad1be2c89b69c2b068fc378daa952ba7f163c4a11628f55a4df523b3ef846040516109249190610f71565b60405180910390a3610937848484610b29565b50505050565b6109456104ab565b6109615760405162461bcd60e51b81526004016103bc90610cc9565b6005805460ff60a01b191690557f5db9ee0a495bf2e6ff9c91a7834c1ba4fdd244a5e8aa4e537bd38aeae4b073aa61099761075b565b6040516109a49190610c14565b60405180910390a1565b6001600160a01b0382166109d45760405162461bcd60e51b81526004016103bc90610f3a565b6109e060008383610b29565b80600260008282546109f29190610f88565b90915550506001600160a01b03821660009081526020819052604081208054839290610a1f908490610f88565b90915550506040516001600160a01b038316906000907fddf252ad1be2c89b69c2b068fc378daa952ba7f163c4a11628f55a4df523b3ef90610a62908590610f71565b60405180910390a36104a760008383610b29565b600580546001600160a01b038381166001600160a01b0319831681179093556040519116919082907f8be0079c531659141344cd1fd0a4f28419497f9722a3daafe3b4186f6b6457e090600090a35050565b610ad06104ab565b15610aed5760405162461bcd60e51b81526004016103bc90610dc5565b6005805460ff60a01b1916600160a01b1790557f62e78cea01bee320cd4e420270b5ea74000d11b0c9f74754ebdbfc544b05a25861099761075b565b505050565b80356001600160a01b03811681146104d557600080fd5b600060208284031215610b56578081fd5b610b5f82610b2e565b9392505050565b60008060408385031215610b78578081fd5b610b8183610b2e565b9150610b8f60208401610b2e565b90509250929050565b600080600060608486031215610bac578081fd5b610bb584610b2e565b9250610bc360208501610b2e565b9150604084013590509250925092565b60008060408385031215610be5578182fd5b610bee83610b2e565b946020939093013593505050565b600060208284031215610c0d578081fd5b5035919050565b6001600160a01b0391909116815260200190565b901515815260200190565b6000602080835283518082850152825b81811015610c5f57858101830151858201604001528201610c43565b81811115610c705783604083870101525b50601f01601f1916929092016040019392505050565b60208082526023908201527f45524332303a207472616e7366657220746f20746865207a65726f206164647260408201526265737360e81b606082015260800190565b60208082526014908201527314185d5cd8589b194e881b9bdd081c185d5cd95960621b604082015260600190565b60208082526026908201527f4f776e61626c653a206e6577206f776e657220697320746865207a65726f206160408201526564647265737360d01b606082015260800190565b60208082526022908201527f45524332303a20617070726f766520746f20746865207a65726f206164647265604082015261737360f01b606082015260800190565b60208082526026908201527f45524332303a207472616e7366657220616d6f756e7420657863656564732062604082015265616c616e636560d01b606082015260800190565b60208082526010908201526f14185d5cd8589b194e881c185d5cd95960821b604082015260600190565b60208082526028908201527f45524332303a207472616e7366657220616d6f756e74206578636565647320616040820152676c6c6f77616e636560c01b606082015260800190565b6020808252818101527f4f776e61626c653a2063616c6c6572206973206e6f7420746865206f776e6572604082015260600190565b60208082526025908201527f45524332303a207472616e736665722066726f6d20746865207a65726f206164604082015264647265737360d81b606082015260800190565b60208082526024908201527f45524332303a20617070726f76652066726f6d20746865207a65726f206164646040820152637265737360e01b606082015260800190565b60208082526025908201527f45524332303a2064656372656173656420616c6c6f77616e63652062656c6f77604082015264207a65726f60d81b606082015260800190565b6020808252601f908201527f45524332303a206d696e7420746f20746865207a65726f206164647265737300604082015260600190565b90815260200190565b60ff91909116815260200190565b60008219821115610fa757634e487b7160e01b81526011600452602481fd5b500190565b600281046001821680610fc057607f821691505b60208210811415610fe157634e487b7160e01b600052602260045260246000fd5b5091905056fea2646970667358221220914fce008a3fc2884ceb6ea5c340d21e7c368444e2093970d54670501955de4a64736f6c63430008000033",
  "immutableReferences": {},
  "source": "// Verified Liquidity token \r\n// (c) Kallol Borah, 2021\r\n\r\n//\"SPDX-License-Identifier: UNLICENSED\"\r\n\r\npragma solidity 0.8.0;\r\n\r\nimport \"@openzeppelin/contracts/token/ERC20/ERC20.sol\";\r\nimport \"@openzeppelin/contracts/security/Pausable.sol\";\r\nimport \"@openzeppelin/contracts/access/Ownable.sol\";\r\n\r\ncontract Vitta is ERC20, Ownable, Pausable {\r\n\r\n    address private liquidityManager;\r\n\r\n    constructor(\r\n        string memory tokenName,\r\n        string memory tokenSymbol,\r\n        uint256 _supply\r\n    ) ERC20(tokenName, tokenSymbol) {\r\n        _mint(msg.sender, _supply);\r\n    }\r\n\r\n    function createSupply(uint256 supply) onlyOwner public {\r\n        _mint(msg.sender, supply);\r\n    }\r\n\r\n    function setManager(address manager) onlyOwner public {\r\n        liquidityManager = manager;\r\n    }\r\n\r\n    function mint(address creditTo, uint256 amount) external {\r\n        require(msg.sender==liquidityManager);\r\n        _mint(creditTo, amount);\r\n    }\r\n\r\n    /**\r\n        Pauses this contract\r\n     */\r\n    function pause() onlyOwner public {\r\n        _pause();\r\n    }\r\n    \r\n    /**\r\n        Unpauses this contract\r\n     */\r\n    function unpause() onlyOwner public {\r\n        _unpause();\r\n    }\r\n\r\n}",
  "sourcePath": "D:\\Code\\verified-liquidity\\verified\\contracts\\Vitta.sol",
  "compiler": {
    "name": "solc",
    "version": "0.8.0+commit.c7dfd78e.Emscripten.clang"
  },
  "schemaVersion": "3.4.3",
  "updatedAt": "2022-09-20T19:38:02.023Z",
  "networkType": "ethereum",
  "devdoc": {
    "kind": "dev",
    "methods": {
      "allowance(address,address)": {
        "details": "See {IERC20-allowance}."
      },
      "approve(address,uint256)": {
        "details": "See {IERC20-approve}. Requirements: - `spender` cannot be the zero address."
      },
      "balanceOf(address)": {
        "details": "See {IERC20-balanceOf}."
      },
      "decimals()": {
        "details": "Returns the number of decimals used to get its user representation. For example, if `decimals` equals `2`, a balance of `505` tokens should be displayed to a user as `5.05` (`505 / 10 ** 2`). Tokens usually opt for a value of 18, imitating the relationship between Ether and Wei. This is the value {ERC20} uses, unless this function is overridden; NOTE: This information is only used for _display_ purposes: it in no way affects any of the arithmetic of the contract, including {IERC20-balanceOf} and {IERC20-transfer}."
      },
      "decreaseAllowance(address,uint256)": {
        "details": "Atomically decreases the allowance granted to `spender` by the caller. This is an alternative to {approve} that can be used as a mitigation for problems described in {IERC20-approve}. Emits an {Approval} event indicating the updated allowance. Requirements: - `spender` cannot be the zero address. - `spender` must have allowance for the caller of at least `subtractedValue`."
      },
      "increaseAllowance(address,uint256)": {
        "details": "Atomically increases the allowance granted to `spender` by the caller. This is an alternative to {approve} that can be used as a mitigation for problems described in {IERC20-approve}. Emits an {Approval} event indicating the updated allowance. Requirements: - `spender` cannot be the zero address."
      },
      "name()": {
        "details": "Returns the name of the token."
      },
      "owner()": {
        "details": "Returns the address of the current owner."
      },
      "paused()": {
        "details": "Returns true if the contract is paused, and false otherwise."
      },
      "renounceOwnership()": {
        "details": "Leaves the contract without owner. It will not be possible to call `onlyOwner` functions anymore. Can only be called by the current owner. NOTE: Renouncing ownership will leave the contract without an owner, thereby removing any functionality that is only available to the owner."
      },
      "symbol()": {
        "details": "Returns the symbol of the token, usually a shorter version of the name."
      },
      "totalSupply()": {
        "details": "See {IERC20-totalSupply}."
      },
      "transfer(address,uint256)": {
        "details": "See {IERC20-transfer}. Requirements: - `recipient` cannot be the zero address. - the caller must have a balance of at least `amount`."
      },
      "transferFrom(address,address,uint256)": {
        "details": "See {IERC20-transferFrom}. Emits an {Approval} event indicating the updated allowance. This is not required by the EIP. See the note at the beginning of {ERC20}. Requirements: - `sender` and `recipient` cannot be the zero address. - `sender` must have a balance of at least `amount`. - the caller must have allowance for ``sender``'s tokens of at least `amount`."
      },
      "transferOwnership(address)": {
        "details": "Transfers ownership of the contract to a new account (`newOwner`). Can only be called by the current owner."
      }
    },
    "version": 1
  },
  "userdoc": {
    "kind": "user",
    "methods": {
      "pause()": {
        "notice": "Pauses this contract"
      },
      "unpause()": {
        "notice": "Unpauses this contract"
      }
    },
    "version": 1
  }
}