{
  "contractName": "AccountFactory",
  "abi": [
    {
      "constant": true,
      "inputs": [
        {
          "name": "",
          "type": "address"
        },
        {
          "name": "",
          "type": "address"
        }
      ],
      "name": "accountholders",
      "outputs": [
        {
          "name": "holderName",
          "type": "bytes32"
        },
        {
          "name": "accountHolder",
          "type": "address"
        }
      ],
      "payable": false,
      "stateMutability": "view",
      "type": "function"
    },
    {
      "constant": true,
      "inputs": [
        {
          "name": "_salt",
          "type": "uint256"
        },
        {
          "name": "_logic",
          "type": "address"
        },
        {
          "name": "_admin",
          "type": "address"
        },
        {
          "name": "_data",
          "type": "bytes"
        },
        {
          "name": "_signature",
          "type": "bytes"
        }
      ],
      "name": "getSigner",
      "outputs": [
        {
          "name": "",
          "type": "address"
        }
      ],
      "payable": false,
      "stateMutability": "view",
      "type": "function"
    },
    {
      "constant": false,
      "inputs": [
        {
          "name": "_salt",
          "type": "uint256"
        },
        {
          "name": "_logic",
          "type": "address"
        },
        {
          "name": "_admin",
          "type": "address"
        },
        {
          "name": "_data",
          "type": "bytes"
        },
        {
          "name": "_signature",
          "type": "bytes"
        }
      ],
      "name": "deploySigned",
      "outputs": [
        {
          "name": "",
          "type": "address"
        }
      ],
      "payable": false,
      "stateMutability": "nonpayable",
      "type": "function"
    },
    {
      "constant": true,
      "inputs": [
        {
          "name": "",
          "type": "uint256"
        }
      ],
      "name": "accountList",
      "outputs": [
        {
          "name": "",
          "type": "address"
        }
      ],
      "payable": false,
      "stateMutability": "view",
      "type": "function"
    },
    {
      "constant": false,
      "inputs": [
        {
          "name": "_salt",
          "type": "uint256"
        },
        {
          "name": "_logic",
          "type": "address"
        },
        {
          "name": "_admin",
          "type": "address"
        },
        {
          "name": "_data",
          "type": "bytes"
        }
      ],
      "name": "deploy",
      "outputs": [
        {
          "name": "",
          "type": "address"
        }
      ],
      "payable": false,
      "stateMutability": "nonpayable",
      "type": "function"
    },
    {
      "constant": true,
      "inputs": [
        {
          "name": "",
          "type": "address"
        },
        {
          "name": "",
          "type": "address"
        }
      ],
      "name": "ledgers",
      "outputs": [
        {
          "name": "ledgerName",
          "type": "bytes32"
        },
        {
          "name": "group",
          "type": "bytes32"
        },
        {
          "name": "ledger",
          "type": "address"
        }
      ],
      "payable": false,
      "stateMutability": "view",
      "type": "function"
    },
    {
      "constant": true,
      "inputs": [
        {
          "name": "",
          "type": "uint256"
        }
      ],
      "name": "accountHolderList",
      "outputs": [
        {
          "name": "",
          "type": "address"
        }
      ],
      "payable": false,
      "stateMutability": "view",
      "type": "function"
    },
    {
      "constant": true,
      "inputs": [
        {
          "name": "_salt",
          "type": "uint256"
        },
        {
          "name": "_sender",
          "type": "address"
        }
      ],
      "name": "getDeploymentAddress",
      "outputs": [
        {
          "name": "",
          "type": "address"
        }
      ],
      "payable": false,
      "stateMutability": "view",
      "type": "function"
    },
    {
      "constant": true,
      "inputs": [
        {
          "name": "",
          "type": "address"
        },
        {
          "name": "",
          "type": "address"
        }
      ],
      "name": "accounts",
      "outputs": [
        {
          "name": "accountName",
          "type": "bytes32"
        },
        {
          "name": "account",
          "type": "address"
        },
        {
          "name": "currency",
          "type": "bytes32"
        }
      ],
      "payable": false,
      "stateMutability": "view",
      "type": "function"
    },
    {
      "constant": false,
      "inputs": [
        {
          "name": "_logic",
          "type": "address"
        },
        {
          "name": "_data",
          "type": "bytes"
        }
      ],
      "name": "deployMinimal",
      "outputs": [
        {
          "name": "proxy",
          "type": "address"
        }
      ],
      "payable": false,
      "stateMutability": "nonpayable",
      "type": "function"
    },
    {
      "constant": true,
      "inputs": [
        {
          "name": "",
          "type": "uint256"
        }
      ],
      "name": "ledgerList",
      "outputs": [
        {
          "name": "",
          "type": "address"
        }
      ],
      "payable": false,
      "stateMutability": "view",
      "type": "function"
    },
    {
      "anonymous": false,
      "inputs": [
        {
          "indexed": true,
          "name": "ledger",
          "type": "address"
        },
        {
          "indexed": false,
          "name": "ledgerName",
          "type": "bytes32"
        },
        {
          "indexed": false,
          "name": "group",
          "type": "bytes32"
        },
        {
          "indexed": false,
          "name": "accountHolder",
          "type": "address"
        }
      ],
      "name": "LedgerCreated",
      "type": "event"
    },
    {
      "anonymous": false,
      "inputs": [
        {
          "indexed": true,
          "name": "account",
          "type": "address"
        },
        {
          "indexed": false,
          "name": "accountName",
          "type": "bytes32"
        },
        {
          "indexed": false,
          "name": "ledger",
          "type": "address"
        }
      ],
      "name": "AccountCreated",
      "type": "event"
    },
    {
      "anonymous": false,
      "inputs": [
        {
          "indexed": true,
          "name": "holder",
          "type": "address"
        },
        {
          "indexed": false,
          "name": "holderName",
          "type": "bytes32"
        },
        {
          "indexed": false,
          "name": "accountCreator",
          "type": "address"
        }
      ],
      "name": "HolderCreated",
      "type": "event"
    },
    {
      "anonymous": false,
      "inputs": [
        {
          "indexed": false,
          "name": "proxy",
          "type": "address"
        }
      ],
      "name": "ProxyCreated",
      "type": "event"
    },
    {
      "constant": false,
      "inputs": [
        {
          "name": "_ledger",
          "type": "address"
        },
        {
          "name": "_account",
          "type": "address"
        },
        {
          "name": "_holder",
          "type": "address"
        },
        {
          "name": "_client",
          "type": "address"
        },
        {
          "name": "_viaFactory",
          "type": "address"
        }
      ],
      "name": "initialize",
      "outputs": [],
      "payable": false,
      "stateMutability": "nonpayable",
      "type": "function"
    },
    {
      "constant": true,
      "inputs": [
        {
          "name": "what",
          "type": "bytes32"
        }
      ],
      "name": "getNumber",
      "outputs": [
        {
          "name": "",
          "type": "uint256"
        }
      ],
      "payable": false,
      "stateMutability": "view",
      "type": "function"
    },
    {
      "constant": true,
      "inputs": [
        {
          "name": "_ledger",
          "type": "address"
        },
        {
          "name": "_index",
          "type": "uint256"
        }
      ],
      "name": "getAccount",
      "outputs": [
        {
          "name": "",
          "type": "address"
        }
      ],
      "payable": false,
      "stateMutability": "view",
      "type": "function"
    },
    {
      "constant": true,
      "inputs": [
        {
          "name": "_accountHolder",
          "type": "address"
        },
        {
          "name": "_index",
          "type": "uint256"
        }
      ],
      "name": "getLedger",
      "outputs": [
        {
          "name": "",
          "type": "address"
        }
      ],
      "payable": false,
      "stateMutability": "view",
      "type": "function"
    },
    {
      "constant": true,
      "inputs": [
        {
          "name": "_accountHolder",
          "type": "address"
        }
      ],
      "name": "confirmAccountHolder",
      "outputs": [
        {
          "name": "",
          "type": "bool"
        }
      ],
      "payable": false,
      "stateMutability": "view",
      "type": "function"
    },
    {
      "constant": false,
      "inputs": [
        {
          "name": "_holderName",
          "type": "bytes32"
        },
        {
          "name": "_accountCreator",
          "type": "address"
        }
      ],
      "name": "createHolder",
      "outputs": [
        {
          "name": "",
          "type": "address"
        }
      ],
      "payable": false,
      "stateMutability": "nonpayable",
      "type": "function"
    },
    {
      "constant": false,
      "inputs": [
        {
          "name": "_ledgerName",
          "type": "bytes32"
        },
        {
          "name": "_ledgerGroup",
          "type": "bytes32"
        },
        {
          "name": "_accountCreator",
          "type": "address"
        }
      ],
      "name": "createLedger",
      "outputs": [
        {
          "name": "",
          "type": "address"
        }
      ],
      "payable": false,
      "stateMutability": "nonpayable",
      "type": "function"
    },
    {
      "constant": false,
      "inputs": [
        {
          "name": "_accountName",
          "type": "bytes32"
        },
        {
          "name": "_ledger",
          "type": "address"
        },
        {
          "name": "_currency",
          "type": "bytes32"
        },
        {
          "name": "_accountCreator",
          "type": "address"
        },
        {
          "name": "_accountHolder",
          "type": "address"
        }
      ],
      "name": "createAccount",
      "outputs": [
        {
          "name": "",
          "type": "address"
        }
      ],
      "payable": false,
      "stateMutability": "nonpayable",
      "type": "function"
    }
  ],
  "bytecode": "0x6080604081905261001060a0610034565b601f1982820381018352601f90910116604052805160209190910120600055610041565b6109a68061233983390190565b6122e9806100506000396000f3fe608060405234801561001057600080fd5b50600436106101215760003560e01c8063710d1571116100ad578063b3eeb5e211610071578063b3eeb5e214610701578063b95ddede146107b5578063c60ca51e146107d2578063cc80362114610804578063e7d7826f1461084657610121565b8063710d1571146105e357806379b30bfb1461060f5780637a63ba241461066457806381ae1f5b14610681578063ad74b775146106ad57610121565b80632ecb0d64116100f45780632ecb0d641461035e578063332d66261461038d5780634ea98d16146104d65780636150864c146104f3578063670079eb146105b757610121565b8063029500fc14610126578063045c034e146101755780631459457a146101af578063290f8f56146101f9575b600080fd5b6101546004803603604081101561013c57600080fd5b506001600160a01b0381358116916020013516610872565b604080519283526001600160a01b0390911660208301528051918290030190f35b61019b6004803603602081101561018b57600080fd5b50356001600160a01b031661089f565b604080519115158252519081900360200190f35b6101f7600480360360a08110156101c557600080fd5b506001600160a01b0381358116916020810135821691604082013581169160608101358216916080909101351661093f565b005b610342600480360360a081101561020f57600080fd5b8135916001600160a01b03602082013581169260408301359091169190810190608081016060820135600160201b81111561024957600080fd5b82018360208201111561025b57600080fd5b803590602001918460018302840111600160201b8311171561027c57600080fd5b91908080601f0160208091040260200160405190810160405280939291908181526020018383808284376000920191909152509295949360208101935035915050600160201b8111156102ce57600080fd5b8201836020820111156102e057600080fd5b803590602001918460018302840111600160201b8311171561030157600080fd5b91908080601f0160208091040260200160405190810160405280939291908181526020018383808284376000920191909152509295506109bb945050505050565b604080516001600160a01b039092168252519081900360200190f35b61037b6004803603602081101561037457600080fd5b5035610aac565b60408051918252519081900360200190f35b610342600480360360a08110156103a357600080fd5b8135916001600160a01b03602082013581169260408301359091169190810190608081016060820135600160201b8111156103dd57600080fd5b8201836020820111156103ef57600080fd5b803590602001918460018302840111600160201b8311171561041057600080fd5b91908080601f0160208091040260200160405190810160405280939291908181526020018383808284376000920191909152509295949360208101935035915050600160201b81111561046257600080fd5b82018360208201111561047457600080fd5b803590602001918460018302840111600160201b8311171561049557600080fd5b91908080601f016020809104026020016040519081016040528093929190818152602001838380828437600092019190915250929550610b2d945050505050565b610342600480360360208110156104ec57600080fd5b5035610baa565b6103426004803603608081101561050957600080fd5b8135916001600160a01b03602082013581169260408301359091169190810190608081016060820135600160201b81111561054357600080fd5b82018360208201111561055557600080fd5b803590602001918460018302840111600160201b8311171561057657600080fd5b91908080601f016020809104026020016040519081016040528093929190818152602001838380828437600092019190915250929550610bd1945050505050565b610342600480360360408110156105cd57600080fd5b506001600160a01b038135169060200135610be0565b610342600480360360408110156105f957600080fd5b50803590602001356001600160a01b0316610ce8565b61063d6004803603604081101561062557600080fd5b506001600160a01b0381358116916020013516610ec1565b6040805193845260208401929092526001600160a01b031682820152519081900360600190f35b6103426004803603602081101561067a57600080fd5b5035610ef6565b6103426004803603604081101561069757600080fd5b50803590602001356001600160a01b0316610f03565b6106db600480360360408110156106c357600080fd5b506001600160a01b0381358116916020013516610f68565b604080519384526001600160a01b03909216602084015282820152519081900360600190f35b6103426004803603604081101561071757600080fd5b6001600160a01b038235169190810190604081016020820135600160201b81111561074157600080fd5b82018360208201111561075357600080fd5b803590602001918460018302840111600160201b8311171561077457600080fd5b91908080601f016020809104026020016040519081016040528093929190818152602001838380828437600092019190915250929550610f9d945050505050565b610342600480360360208110156107cb57600080fd5b50356110fe565b610342600480360360608110156107e857600080fd5b50803590602081013590604001356001600160a01b031661110b565b610342600480360360a081101561081a57600080fd5b508035906001600160a01b036020820135811691604081013591606082013581169160800135166112ab565b6103426004803603604081101561085c57600080fd5b506001600160a01b038135169060200135611507565b6039602090815260009283526040808420909152908252902080546001909101546001600160a01b031682565b6040546000906001600160a01b03163314806108c55750603f546001600160a01b031633145b806108da57506041546001600160a01b031633145b6108e357600080fd5b60005b60345481101561093457826001600160a01b03166034828154811061090757fe5b6000918252602090912001546001600160a01b0316141561092c57600191505061093a565b6001016108e6565b50600090505b919050565b603a80546001600160a01b039384166001600160a01b031991821617909155603b805495841695821686179055603c805494841694821685179055603d805496841696821687179055603f80548216909517909455604080548516909317909255604180548416909417909355603e8054919093169116179055565b600080610a93878787873060405160200180868152602001856001600160a01b03166001600160a01b031660601b8152601401846001600160a01b03166001600160a01b031660601b815260140183805190602001908083835b60208310610a345780518252601f199092019160209182019101610a15565b6001836020036101000a038019825116818451168082178552505050505050905001826001600160a01b03166001600160a01b031660601b81526014019550505050505060405160208183030381529060405280519060200120611605565b9050610a9f8184611656565b9150505b95945050505050565b6040546000906001600160a01b0316331480610ad25750603f546001600160a01b031633145b80610ae757506041546001600160a01b031633145b610af057600080fd5b81600160c01b676163636f756e7473021415610b0f575060365461093a565b81600160c81b666c65646765727302141561093a575060355461093a565b600080610b3d87878787876109bb565b90506001600160a01b038116610b9d5760408051600160e51b62461bcd02815260206004820152601160248201527f496e76616c6964207369676e6174757265000000000000000000000000000000604482015290519081900360640190fd5b610a9f8787878785611744565b60368181548110610bb757fe5b6000918252602090912001546001600160a01b0316905081565b6000610aa38585858533611744565b6040546000906001600160a01b0316331480610c065750603f546001600160a01b031633145b80610c1b57506041546001600160a01b031633145b610c2457600080fd5b6001600160a01b03831660009081526038602052604081206036805483919086908110610c4d57fe5b60009182526020808320909101546001600160a01b0390811684529083019390935260409091019020600101541614610cde576001600160a01b03831660009081526038602052604081206036805491929185908110610ca957fe5b60009182526020808320909101546001600160a01b039081168452908301939093526040909101902060010154169050610ce2565b5060005b92915050565b603a5460408051600160e01b63d3da927f0281526001600160a01b0384811660048301523360248301529151600093929092169163d3da927f91604480820192602092909190829003018186803b158015610d4257600080fd5b505afa158015610d56573d6000803e3d6000fd5b505050506040513d6020811015610d6c57600080fd5b5051610d7757600080fd5b60408051602481018590526001600160a01b0380851660448301523060648084019190915283518084039091018152608490920183526020820180516001600160e01b0316600160e01b63fc4bcde90217905291549091600091610ddc911683610f9d565b604080518781526001600160a01b03878116602083015282519394508416927ff289741993d37831eb02b3070b1333c526393c004bc30414f086f00abe223f0d929181900390910190a26040805180820182528681526001600160a01b03808416602080840182815289841660009081526039835286812084825290925294812093518455935160019384018054919093166001600160a01b0319918216179092556034805493840181559093527f46bddb1178e94d7f2892ff5f366840eb658911794f2c3a44c450aa2c505186c19091018054909116909117905591505092915050565b60376020908152600092835260408084209091529082529020805460018201546002909201549091906001600160a01b031683565b60348181548110610bb757fe5b600080610f108484611878565b600054604080516001600160f81b031960208083019190915230606090811b602184015260358301959095526055808301949094528251808303909401845260759091019091528151910120811b901c949350505050565b603860209081526000928352604080842090915290825290208054600182015460029092015490916001600160a01b03169083565b6000808360601b90506040517f3d602d80600a3d3981f3363d3d373d3d3d363d7300000000000000000000000081528160148201527f5af43d82803e903d91602b57fd5bf3000000000000000000000000000000000060288201526037816000f0604080516001600160a01b038316815290519194507efffc2da0b561cae30d9826d37709e9421c4725faebc226cbbb7ef5fc5e7349925081900360200190a18251156110f7576000826001600160a01b0316846040518082805190602001908083835b602083106110805780518252601f199092019160209182019101611061565b6001836020036101000a0380198251168184511680821785525050505050509050019150506000604051808303816000865af19150503d80600081146110e2576040519150601f19603f3d011682016040523d82523d6000602084013e6110e7565b606091505b50509050806110f557600080fd5b505b5092915050565b60358181548110610bb757fe5b6001600160a01b03818116600090815260396020908152604080832033845290915281206001015490911661113f57600080fd5b6040805160248101869052604481018590526001600160a01b0380851660648301523060848301523360a4808401919091528351808403909101815260c49092019092526020810180516001600160e01b0316600160e41b63046499770217905260415490916000916111b3911683610f9d565b6040805188815260208101889052338183015290519192506001600160a01b038316917fa7a3b730104ab7e50ae390a6dc77147471ca6cddc8f94f07c7452e3a6d2dd1fe9181900360600190a26040805160608101825287815260208082018881526001600160a01b0380861684860181815233600090815260378652878120838252909552958420945185559151600180860191909155945160029094018054949091166001600160a01b03199485161790556035805494850181559091527fcfa4bec1d3298408bb5afcfcd9c430549c5b31f8aa5c5848151c0a55f473c34d909201805490911690911790559150509392505050565b6001600160a01b03828116600090815260396020908152604080832085851684529091528120600101549091166112e157600080fd5b603e5460408051600160e21b632e5ac80102815260048101879052815160009384936001600160a01b039091169263b96b20049260248083019392829003018186803b15801561133057600080fd5b505afa158015611344573d6000803e3d6000fd5b505050506040513d604081101561135a57600080fd5b50805160209091015190925090506001600160a01b0382161580159061138c575080600160cb1b660acd2c286c2e6d02145b156114fc5760408051602481018a90526001600160a01b03808a166044830152306064830152808816608483015280871660a4808401919091528351808403909101815260c49092019092526020810180516001600160e01b0316600160e01b63a3c1f19302179052603f549091600091611408911683610f9d565b604080518c81526001600160a01b038c8116602083015282519394508416927ff5493120d2d01cb5b6c36e95466192409ff774fd8dab4f1c653dde8072078244929181900390910190a2604080516060810182528b81526001600160a01b0380841660208084018281528486018e81528f8516600090815260388452878120858252909352958220945185555160018086018054929095166001600160a01b03199283161790945594516002909401939093556036805492830181559092527f4a11f94e20a93c79f6ec743a1954ec4fc2c08429ae2122118bf234b2185c81b80180549092161790559350610aa392505050565b505095945050505050565b6040546000906001600160a01b031633148061152d5750603f546001600160a01b031633145b8061154257506041546001600160a01b031633145b61154b57600080fd5b6001600160a01b0383166000908152603760205260408120603580548391908690811061157457fe5b60009182526020808320909101546001600160a01b0390811684529083019390935260409091019020600201541614610cde576001600160a01b038316600090815260376020526040812060358054919291859081106115d057fe5b60009182526020808320909101546001600160a01b039081168452908301939093526040909101902060020154169050610ce2565b604080517f19457468657265756d205369676e6564204d6573736167653a0a333200000000602080830191909152603c8083019490945282518083039094018452605c909101909152815191012090565b6000815160411461166957506000610ce2565b60208201516040830151606084015160001a7f7fffffffffffffffffffffffffffffff5d576e7357a4501ddfe92f46681b20a08211156116af5760009350505050610ce2565b8060ff16601b141580156116c757508060ff16601c14155b156116d85760009350505050610ce2565b6040805160008152602080820180845289905260ff8416828401526060820186905260808201859052915160019260a0808401939192601f1981019281900390910190855afa15801561172f573d6000803e3d6000fd5b5050604051601f190151979650505050505050565b60008061175187846118b1565b604080516001600160a01b038316815290519192507efffc2da0b561cae30d9826d37709e9421c4725faebc226cbbb7ef5fc5e7349919081900360200190a1604051600160e01b63cf7a1d770281526001600160a01b038781166004830190815287821660248401526060604484019081528751606485015287519285169363cf7a1d77938b938b938b939192909160840190602085019080838360005b838110156118075781810151838201526020016117ef565b50505050905090810190601f1680156118345780820380516001836020036101000a031916815260200191505b50945050505050600060405180830381600087803b15801561185557600080fd5b505af1158015611869573d6000803e3d6000fd5b50929998505050505050505050565b604080516020808201949094526001600160a01b039290921660601b828201528051808303603401815260549092019052805191012090565b6000806060604051806020016118c69061190a565b601f1982820381018352601f90910116604052905060006118e78686611878565b9050808251602084016000f59250823b61190057600080fd5b5090949350505050565b6109a6806119188339019056fe608060405234801561001057600080fd5b50610986806100206000396000f3fe6080604052600436106100705760003560e01c80638f2839701161004e5780638f2839701461015e578063cf7a1d7714610191578063d1f5789414610250578063f851a4401461030657610070565b80633659cfe61461007a5780634f1ef286146100ad5780635c60da1b1461012d575b61007861031b565b005b34801561008657600080fd5b506100786004803603602081101561009d57600080fd5b50356001600160a01b0316610335565b610078600480360360408110156100c357600080fd5b6001600160a01b0382351691908101906040810160208201356401000000008111156100ee57600080fd5b82018360208201111561010057600080fd5b8035906020019184600183028401116401000000008311171561012257600080fd5b50909250905061036f565b34801561013957600080fd5b5061014261041c565b604080516001600160a01b039092168252519081900360200190f35b34801561016a57600080fd5b506100786004803603602081101561018157600080fd5b50356001600160a01b0316610459565b610078600480360360608110156101a757600080fd5b6001600160a01b0382358116926020810135909116918101906060810160408201356401000000008111156101db57600080fd5b8201836020820111156101ed57600080fd5b8035906020019184600183028401116401000000008311171561020f57600080fd5b91908080601f016020809104026020016040519081016040528093929190818152602001838380828437600092019190915250929550610516945050505050565b6100786004803603604081101561026657600080fd5b6001600160a01b03823516919081019060408101602082013564010000000081111561029157600080fd5b8201836020820111156102a357600080fd5b803590602001918460018302840111640100000000831117156102c557600080fd5b91908080601f0160208091040260200160405190810160405280939291908181526020018383808284376000920191909152509295506105a6945050505050565b34801561031257600080fd5b506101426106e6565b610323610711565b61033361032e610774565b610799565b565b61033d6107bd565b6001600160a01b0316336001600160a01b031614156103645761035f816107e2565b61036c565b61036c61031b565b50565b6103776107bd565b6001600160a01b0316336001600160a01b0316141561040f57610399836107e2565b6000836001600160a01b031683836040518083838082843760405192019450600093509091505080830381855af49150503d80600081146103f6576040519150601f19603f3d011682016040523d82523d6000602084013e6103fb565b606091505b505090508061040957600080fd5b50610417565b61041761031b565b505050565b60006104266107bd565b6001600160a01b0316336001600160a01b0316141561044e57610447610774565b9050610456565b61045661031b565b90565b6104616107bd565b6001600160a01b0316336001600160a01b03161415610364576001600160a01b0381166104c257604051600160e51b62461bcd0281526004018080602001828103825260368152602001806108ea6036913960400191505060405180910390fd5b7f7e644d79422f17c01e4894b5f4f588d331ebfa28653d42ae832dc59e38c9798f6104eb6107bd565b604080516001600160a01b03928316815291841660208301528051918290030190a161035f81610822565b6000610520610774565b6001600160a01b03161461053357600080fd5b61053d83826105a6565b604080517f656970313936372e70726f78792e61646d696e00000000000000000000000000815290519081900360130190207fb53127684a568b3173ae13b9f8a6016e243e63b6e8ee1178d6a717850b5d61036000199091011461059d57fe5b61041782610822565b60006105b0610774565b6001600160a01b0316146105c357600080fd5b604080517f656970313936372e70726f78792e696d706c656d656e746174696f6e000000008152905190819003601c0190207f360894a13ba1a3210667c828492db98dca3e2076cc3735a920a3ca505d382bbc6000199091011461062357fe5b61062c82610846565b8051156106e2576000826001600160a01b0316826040518082805190602001908083835b6020831061066f5780518252601f199092019160209182019101610650565b6001836020036101000a038019825116818451168082178552505050505050905001915050600060405180830381855af49150503d80600081146106cf576040519150601f19603f3d011682016040523d82523d6000602084013e6106d4565b606091505b505090508061041757600080fd5b5050565b60006106f06107bd565b6001600160a01b0316336001600160a01b0316141561044e576104476107bd565b6107196107bd565b6001600160a01b0316336001600160a01b0316141561076c57604051600160e51b62461bcd0281526004018080602001828103825260328152602001806108b86032913960400191505060405180910390fd5b610333610333565b7f360894a13ba1a3210667c828492db98dca3e2076cc3735a920a3ca505d382bbc5490565b3660008037600080366000845af43d6000803e8080156107b8573d6000f35b3d6000fd5b7fb53127684a568b3173ae13b9f8a6016e243e63b6e8ee1178d6a717850b5d61035490565b6107eb81610846565b6040516001600160a01b038216907fbc7cd75a20ee27fd9adebab32041f755214dbc6bffa90cc0225b39da2e5c2d3b90600090a250565b7fb53127684a568b3173ae13b9f8a6016e243e63b6e8ee1178d6a717850b5d610355565b61084f816108b1565b61088d57604051600160e51b62461bcd02815260040180806020018281038252603b815260200180610920603b913960400191505060405180910390fd5b7f360894a13ba1a3210667c828492db98dca3e2076cc3735a920a3ca505d382bbc55565b3b15159056fe43616e6e6f742063616c6c2066616c6c6261636b2066756e6374696f6e2066726f6d207468652070726f78792061646d696e43616e6e6f74206368616e6765207468652061646d696e206f6620612070726f787920746f20746865207a65726f206164647265737343616e6e6f742073657420612070726f787920696d706c656d656e746174696f6e20746f2061206e6f6e2d636f6e74726163742061646472657373a165627a7a72305820acd86240912c703ba88ccefef3db77e88d3507353c7c194b0b27eed571ae96c90029a165627a7a72305820f7654676ef8561db24c537d17bec8aaaf49d14836220d70a7f18f45a7f528bec0029608060405234801561001057600080fd5b50610986806100206000396000f3fe6080604052600436106100705760003560e01c80638f2839701161004e5780638f2839701461015e578063cf7a1d7714610191578063d1f5789414610250578063f851a4401461030657610070565b80633659cfe61461007a5780634f1ef286146100ad5780635c60da1b1461012d575b61007861031b565b005b34801561008657600080fd5b506100786004803603602081101561009d57600080fd5b50356001600160a01b0316610335565b610078600480360360408110156100c357600080fd5b6001600160a01b0382351691908101906040810160208201356401000000008111156100ee57600080fd5b82018360208201111561010057600080fd5b8035906020019184600183028401116401000000008311171561012257600080fd5b50909250905061036f565b34801561013957600080fd5b5061014261041c565b604080516001600160a01b039092168252519081900360200190f35b34801561016a57600080fd5b506100786004803603602081101561018157600080fd5b50356001600160a01b0316610459565b610078600480360360608110156101a757600080fd5b6001600160a01b0382358116926020810135909116918101906060810160408201356401000000008111156101db57600080fd5b8201836020820111156101ed57600080fd5b8035906020019184600183028401116401000000008311171561020f57600080fd5b91908080601f016020809104026020016040519081016040528093929190818152602001838380828437600092019190915250929550610516945050505050565b6100786004803603604081101561026657600080fd5b6001600160a01b03823516919081019060408101602082013564010000000081111561029157600080fd5b8201836020820111156102a357600080fd5b803590602001918460018302840111640100000000831117156102c557600080fd5b91908080601f0160208091040260200160405190810160405280939291908181526020018383808284376000920191909152509295506105a6945050505050565b34801561031257600080fd5b506101426106e6565b610323610711565b61033361032e610774565b610799565b565b61033d6107bd565b6001600160a01b0316336001600160a01b031614156103645761035f816107e2565b61036c565b61036c61031b565b50565b6103776107bd565b6001600160a01b0316336001600160a01b0316141561040f57610399836107e2565b6000836001600160a01b031683836040518083838082843760405192019450600093509091505080830381855af49150503d80600081146103f6576040519150601f19603f3d011682016040523d82523d6000602084013e6103fb565b606091505b505090508061040957600080fd5b50610417565b61041761031b565b505050565b60006104266107bd565b6001600160a01b0316336001600160a01b0316141561044e57610447610774565b9050610456565b61045661031b565b90565b6104616107bd565b6001600160a01b0316336001600160a01b03161415610364576001600160a01b0381166104c257604051600160e51b62461bcd0281526004018080602001828103825260368152602001806108ea6036913960400191505060405180910390fd5b7f7e644d79422f17c01e4894b5f4f588d331ebfa28653d42ae832dc59e38c9798f6104eb6107bd565b604080516001600160a01b03928316815291841660208301528051918290030190a161035f81610822565b6000610520610774565b6001600160a01b03161461053357600080fd5b61053d83826105a6565b604080517f656970313936372e70726f78792e61646d696e00000000000000000000000000815290519081900360130190207fb53127684a568b3173ae13b9f8a6016e243e63b6e8ee1178d6a717850b5d61036000199091011461059d57fe5b61041782610822565b60006105b0610774565b6001600160a01b0316146105c357600080fd5b604080517f656970313936372e70726f78792e696d706c656d656e746174696f6e000000008152905190819003601c0190207f360894a13ba1a3210667c828492db98dca3e2076cc3735a920a3ca505d382bbc6000199091011461062357fe5b61062c82610846565b8051156106e2576000826001600160a01b0316826040518082805190602001908083835b6020831061066f5780518252601f199092019160209182019101610650565b6001836020036101000a038019825116818451168082178552505050505050905001915050600060405180830381855af49150503d80600081146106cf576040519150601f19603f3d011682016040523d82523d6000602084013e6106d4565b606091505b505090508061041757600080fd5b5050565b60006106f06107bd565b6001600160a01b0316336001600160a01b0316141561044e576104476107bd565b6107196107bd565b6001600160a01b0316336001600160a01b0316141561076c57604051600160e51b62461bcd0281526004018080602001828103825260328152602001806108b86032913960400191505060405180910390fd5b610333610333565b7f360894a13ba1a3210667c828492db98dca3e2076cc3735a920a3ca505d382bbc5490565b3660008037600080366000845af43d6000803e8080156107b8573d6000f35b3d6000fd5b7fb53127684a568b3173ae13b9f8a6016e243e63b6e8ee1178d6a717850b5d61035490565b6107eb81610846565b6040516001600160a01b038216907fbc7cd75a20ee27fd9adebab32041f755214dbc6bffa90cc0225b39da2e5c2d3b90600090a250565b7fb53127684a568b3173ae13b9f8a6016e243e63b6e8ee1178d6a717850b5d610355565b61084f816108b1565b61088d57604051600160e51b62461bcd02815260040180806020018281038252603b815260200180610920603b913960400191505060405180910390fd5b7f360894a13ba1a3210667c828492db98dca3e2076cc3735a920a3ca505d382bbc55565b3b15159056fe43616e6e6f742063616c6c2066616c6c6261636b2066756e6374696f6e2066726f6d207468652070726f78792061646d696e43616e6e6f74206368616e6765207468652061646d696e206f6620612070726f787920746f20746865207a65726f206164647265737343616e6e6f742073657420612070726f787920696d706c656d656e746174696f6e20746f2061206e6f6e2d636f6e74726163742061646472657373a165627a7a72305820acd86240912c703ba88ccefef3db77e88d3507353c7c194b0b27eed571ae96c90029",
  "source": "// (c) Kallol Borah, 2020\r\n// Implementation of the Verified accounts factory\r\n\r\npragma solidity 0.5.7;\r\n\r\nimport \"../interfaces/VerifiedHolder.sol\";\r\nimport \"../interfaces/VerifiedLedger.sol\";\r\nimport \"../interfaces/VerifiedAccount.sol\";\r\nimport \"../interfaces/VerifiedClient.sol\";\r\nimport \"../interfaces/VerifiedSystem.sol\";\r\nimport \"../interfaces/ViaFactory.sol\";\r\nimport \"@openzeppelin/upgrades/contracts/upgradeability/ProxyFactory.sol\";\r\nimport \"@openzeppelin/upgrades/contracts/Initializable.sol\";\r\n\r\ncontract AccountFactory is VerifiedSystem, ProxyFactory, Initializable {\r\n\r\n    // first, a client creates an account holder representing an account statement\r\n    struct accountholder{\r\n        bytes32 holderName;\r\n        address accountHolder;\r\n    }\r\n\r\n    address[] public accountHolderList;\r\n\r\n    // then, a ledger is created in an account statement (ie, for an account holder)\r\n    struct ledger{\r\n        bytes32 ledgerName;\r\n        bytes32 group;\r\n        address ledger;\r\n    }\r\n\r\n    address[] public ledgerList;\r\n\r\n    // then, an account is created in a ledger\r\n    struct account{\r\n        bytes32 accountName;\r\n        address account;\r\n        bytes32 currency;\r\n    }\r\n\r\n    address[] public accountList;\r\n\r\n    // mapping address of account holders to a ledger they have (identified by ledger address)\r\n    mapping(address => mapping(address => ledger)) public ledgers;\r\n\r\n    // mapping address of ledger to an account in it (identified by account address)\r\n    mapping(address => mapping(address => account)) public accounts;\r\n\r\n    // mapping address of client to an account holder (identified by its account holder address)\r\n    mapping(address => mapping(address => accountholder)) public accountholders;\r\n\r\n    //notifying listeners\r\n    event LedgerCreated(address indexed ledger, bytes32 ledgerName, bytes32 group, address accountHolder);\r\n    event AccountCreated(address indexed account, bytes32 accountName, address ledger);\r\n    event HolderCreated(address indexed holder, bytes32 holderName, address accountCreator);\r\n\r\n    //references to contract\r\n    VerifiedClient private clientRef;\r\n    VerifiedAccount private accountRef;\r\n    VerifiedHolder private holderRef;\r\n    VerifiedLedger private ledgerRef;\r\n    ViaFactory private via;\r\n\r\n    //addresses fo contracts\r\n    address accountAddress;\r\n    address holderAddress;\r\n    address ledgerAddress;\r\n\r\n    //owner is someone who can upgrade this contract\r\n    function initialize(address _ledger, address _account, address _holder, address _client, address _viaFactory) public {\r\n        clientRef = VerifiedClient(_client);\r\n        accountRef = VerifiedAccount(_account);\r\n        holderRef = VerifiedHolder(_holder);\r\n        ledgerRef = VerifiedLedger(_ledger);\r\n        accountAddress = _account;\r\n        holderAddress = _holder;\r\n        ledgerAddress = _ledger;\r\n        via = ViaFactory(_viaFactory);\r\n    }\r\n\r\n    // returns number of accounts or number of ledgers\r\n    function getNumber(bytes32 what) external view returns(uint256){\r\n        require(msg.sender==holderAddress || msg.sender==accountAddress || msg.sender==ledgerAddress);\r\n        if(what==\"accounts\")\r\n            return accountList.length;\r\n        else if(what==\"ledgers\")\r\n            return ledgerList.length;\r\n    }\r\n\r\n    // return account address in ledger by account index\r\n    function getAccount(address _ledger, uint256 _index) external view returns(address){\r\n        require(msg.sender==holderAddress || msg.sender==accountAddress || msg.sender==ledgerAddress);\r\n        if(accounts[_ledger][accountList[_index]].account!=address(0x0))\r\n            return accounts[_ledger][accountList[_index]].account;\r\n        else\r\n            return address(0x0);\r\n    }\r\n\r\n    // return address of ledger for its account holder by an index\r\n    function getLedger(address _accountHolder, uint256 _index) external view returns(address){\r\n        require(msg.sender==holderAddress || msg.sender==accountAddress || msg.sender==ledgerAddress);\r\n        if(ledgers[_accountHolder][ledgerList[_index]].ledger!=address(0x0))\r\n            return ledgers[_accountHolder][ledgerList[_index]].ledger;\r\n        else\r\n            return address(0x0);\r\n    }\r\n\r\n    // confirm if an account holder exists or not\r\n    function confirmAccountHolder(address _accountHolder) external view returns(bool){\r\n        require(msg.sender==holderAddress || msg.sender==accountAddress || msg.sender==ledgerAddress);\r\n        for(uint256 i=0; i<accountHolderList.length; i++){\r\n            if(accountHolderList[i]==_accountHolder)\r\n                return true;\r\n        }\r\n        return false;\r\n    }\r\n    \r\n    //account holders can be created by message senders who are KYC verified clients or their managers\r\n    //_holderName is the name of the account holder\r\n    //_accountCreator should be a KYC verified client for which the account holder is created in books\r\n    function createHolder(bytes32 _holderName, address _accountCreator) external returns(address){\r\n        //only registered client or their managers can create account holder\r\n        require(clientRef.isRegistered(_accountCreator, msg.sender));\r\n\r\n        bytes memory _payload = abi.encodeWithSignature(\"initialize(bytes32, address, address)\", _holderName, _accountCreator, address(this));\r\n\r\n        // connect account holder to account\r\n        address _accountHolder = deployMinimal(holderAddress, _payload);\r\n        emit HolderCreated(_accountHolder, _holderName, _accountCreator);\r\n\r\n        accountholders[_accountCreator][_accountHolder] = accountholder(_holderName, _accountHolder);\r\n        accountHolderList.push(_accountHolder);\r\n        return _accountHolder;\r\n    }\r\n\r\n    //ledger account factory with ledgers created by account holders (msg.sender to this function)\r\n    function createLedger(bytes32 _ledgerName, bytes32 _ledgerGroup, address _accountCreator) external returns(address){\r\n        //only account holders with registered clients can request ledger creation\r\n        require(accountholders[_accountCreator][msg.sender].accountHolder!=address(0x0));\r\n\r\n        // invoker of this function is the owner of the ledger that gets created\r\n        bytes memory _payload = abi.encodeWithSignature(\"initialize(bytes32,bytes32,address,address,address)\", _ledgerName, _ledgerGroup, _accountCreator, address(this), msg.sender);\r\n\r\n        // Deploy proxy\r\n        address _ledgerAccount = deployMinimal(ledgerAddress, _payload);\r\n        emit LedgerCreated(_ledgerAccount, _ledgerName, _ledgerGroup, msg.sender);\r\n\r\n        ledgers[msg.sender][_ledgerAccount] = ledger(_ledgerName, _ledgerGroup, _ledgerAccount);\r\n        ledgerList.push(_ledgerAccount);\r\n        return _ledgerAccount;\r\n    }\r\n\r\n    //account factory with accounts created in ledgers, and created by account holders\r\n    function createAccount(bytes32 _accountName, address _ledger, bytes32 _currency, address _accountCreator, address _accountHolder) external returns(address){\r\n        //only account holders with registered clients can request ledger creation\r\n        require(accountholders[_accountCreator][_accountHolder].accountHolder!=address(0x0));\r\n\r\n        (address viaCash, bytes32 tokenType) = via.getAddressAndType(_currency);\r\n        \r\n        if(viaCash!=address(0x0) && tokenType==\"ViaCash\"){\r\n            bytes memory _payload = abi.encodeWithSignature(\"initialize(bytes32, address, address, address, address)\", _accountName, _ledger, address(this), _accountCreator, _accountHolder);\r\n\r\n            // Create account\r\n            address _account = deployMinimal(accountAddress, _payload);\r\n            emit AccountCreated(_account, _accountName, _ledger);\r\n\r\n            accounts[_ledger][_account] = account(_accountName, _account, _currency);\r\n            accountList.push(_account);\r\n            return _account;\r\n        }\r\n    }\r\n    \r\n}\r\n\r\n\r\n\r\n\r\n\r\n\r\n",
  "sourcePath": "D:/Code/verified-accounts/contracts/accounting/System.sol",
  "compiler": {
    "name": "solc",
    "version": "0.5.7+commit.6da8b019.Emscripten.clang"
  },
  "schemaVersion": "3.3.3",
  "updatedAt": "2021-01-21T17:40:23.359Z",
  "devdoc": {
    "methods": {}
  },
  "userdoc": {
    "methods": {}
  }
}