{
  "contractName": "Account",
  "abi": [
    {
      "constant": true,
      "inputs": [],
      "name": "accountName",
      "outputs": [
        {
          "name": "",
          "type": "bytes32"
        }
      ],
      "payable": false,
      "stateMutability": "view",
      "type": "function"
    },
    {
      "anonymous": false,
      "inputs": [
        {
          "indexed": false,
          "name": "accountAddress",
          "type": "address"
        },
        {
          "indexed": false,
          "name": "accountName",
          "type": "bytes32"
        },
        {
          "indexed": false,
          "name": "txDate",
          "type": "uint256"
        },
        {
          "indexed": false,
          "name": "party",
          "type": "address"
        },
        {
          "indexed": false,
          "name": "txType",
          "type": "bytes32"
        },
        {
          "indexed": false,
          "name": "txDescription",
          "type": "bytes32"
        },
        {
          "indexed": false,
          "name": "currency",
          "type": "bytes32"
        },
        {
          "indexed": false,
          "name": "txAmount",
          "type": "int256"
        },
        {
          "indexed": false,
          "name": "voucherType",
          "type": "bytes32"
        }
      ],
      "name": "postAccountEntry",
      "type": "event"
    },
    {
      "constant": false,
      "inputs": [
        {
          "name": "_accountName",
          "type": "bytes32"
        },
        {
          "name": "_ledger",
          "type": "address"
        },
        {
          "name": "_owner",
          "type": "address"
        },
        {
          "name": "_accountCreator",
          "type": "address"
        },
        {
          "name": "_accountHolder",
          "type": "address"
        },
        {
          "name": "_currency",
          "type": "bytes32"
        }
      ],
      "name": "initialize",
      "outputs": [],
      "payable": false,
      "stateMutability": "nonpayable",
      "type": "function"
    },
    {
      "constant": false,
      "inputs": [
        {
          "name": "_party",
          "type": "address"
        },
        {
          "name": "_txAmount",
          "type": "int256"
        },
        {
          "name": "_txType",
          "type": "bytes32"
        },
        {
          "name": "_txDate",
          "type": "uint256"
        },
        {
          "name": "_txDescription",
          "type": "bytes32"
        },
        {
          "name": "_vchType",
          "type": "bytes32"
        },
        {
          "name": "_txHash",
          "type": "string"
        }
      ],
      "name": "postEntry",
      "outputs": [],
      "payable": false,
      "stateMutability": "nonpayable",
      "type": "function"
    },
    {
      "constant": true,
      "inputs": [
        {
          "name": "_startDate",
          "type": "uint256"
        },
        {
          "name": "_endDate",
          "type": "uint256"
        }
      ],
      "name": "getEntries",
      "outputs": [
        {
          "components": [
            {
              "name": "txType",
              "type": "bytes32"
            },
            {
              "name": "txDate",
              "type": "uint256"
            },
            {
              "name": "txDescription",
              "type": "bytes32"
            },
            {
              "name": "voucherType",
              "type": "bytes32"
            },
            {
              "name": "txCurrency",
              "type": "bytes32"
            },
            {
              "name": "txAmount",
              "type": "bytes16"
            },
            {
              "name": "party",
              "type": "address"
            }
          ],
          "name": "",
          "type": "tuple[]"
        }
      ],
      "payable": false,
      "stateMutability": "view",
      "type": "function"
    },
    {
      "constant": true,
      "inputs": [
        {
          "name": "_accountHolder",
          "type": "address"
        }
      ],
      "name": "getBalance",
      "outputs": [
        {
          "name": "",
          "type": "bytes16"
        }
      ],
      "payable": false,
      "stateMutability": "view",
      "type": "function"
    }
  ],
  "bytecode": "0x608060405234801561001057600080fd5b5061139e806100206000396000f3fe608060405234801561001057600080fd5b50600436106100575760003560e01c8063262eab7a1461005c578063478e8dad146100715780638e131cd81461009a578063c5e57985146100ad578063f8b2cb4f146100c2575b600080fd5b61006f61006a366004610fe9565b6100e2565b005b61008461007f366004611070565b6101cb565b60405161009191906112dc565b60405180910390f35b61006f6100a8366004610f13565b6103e2565b6100b56108d4565b60405161009191906112fb565b6100d56100d0366004610eed565b6108da565b60405161009191906112ed565b600054610100900460ff16806100fb57506100fb610901565b80610109575060005460ff16155b61013157604051600160e51b62461bcd02815260040161012890611309565b60405180910390fd5b600054610100900460ff1615801561015c576000805460ff1961ff0019909116610100171660011790555b603380546001600160a01b038088166001600160a01b031992831617909255603489905560378054898416908316179055603580548784169083161790556036805492861692909116919091179055603882905580156101c2576000805461ff00191690555b50505050505050565b6037546060906001600160a01b031633146101e557600080fd5b816101ef57600080fd5b6000805b6036546001600160a01b039081166000908152603a60209081526040808320868452909152902060060154161580159061025557506036546001600160a01b03166000908152603a602090815260408083208584529091529020600101548511155b156102645750600101806101f3565b6060816040519080825280602002602001820160405280156102a057816020015b61028d610e3d565b8152602001906001900390816102855790505b50600093509050825b828110156103d6576036546001600160a01b039081166000908152603a60209081526040808320888452909152902060060154161580159061031357506036546001600160a01b03166000908152603a602090815260408083208784529091529020600101548711155b156103cb57610320610e3d565b506040805160e0810182526036546001600160a01b039081166000908152603a60209081528482208983528082528583208054865260018101548387015260028101549686019690965260038601546060860152600486015460808087019190915260058701546001600160801b0319911b1660a0860152918990525260069092015490911660c0820152825181908490849081106103bb57fe5b6020908102919091010152506001015b6001909301926102a9565b50925050505b92915050565b6035546001600160a01b031633146103f957600080fd5b8661040357600080fd5b85600160d21b6510dc99591a5d021480610427575085600160da1b641119589a5d02145b61043057600080fd5b82600160ca1b66129bdd5c9b985b021480610454575082600160e31b63086c2e6d02145b80610468575082600160e01b6342616e6b02145b80610480575082600160c01b67507572636861736502145b80610494575082600160e01b6353616c6502145b61049d57600080fd5b6036546001600160a01b039081166000908152603b602052604090819020546033549151600160e11b63022e01a70281529092919091169063045c034e906104e9908c90600401611248565b60206040518083038186803b15801561050157600080fd5b505afa158015610515573d6000803e3d6000fd5b505050506040513d601f19601f820116820180604052506105399190810190610fcb565b801561058b57506036546001600160a01b03166000908152603c602090815260408083208a8452909152908190209051610576908590859061123b565b9081526040519081900360200190205460ff16155b156108c957603854603680546001600160a01b039081166000908152603a60208181526040808420888552825280842060040196909655935483168252835283812085825290925291902060060180546001600160a01b031916918b169190911790556105f788610907565b603a6000603660009054906101000a90046001600160a01b03166001600160a01b03166001600160a01b03168152602001908152602001600020600083815260200190815260200160002060050160006101000a8154816001600160801b03021916908360801c021790555086603a6000603660009054906101000a90046001600160a01b03166001600160a01b03166001600160a01b0316815260200190815260200160002060008381526020019081526020016000206000018190555085603a6000603660009054906101000a90046001600160a01b03166001600160a01b03166001600160a01b0316815260200190815260200160002060008381526020019081526020016000206001018190555084603a6000603660009054906101000a90046001600160a01b03166001600160a01b03166001600160a01b0316815260200190815260200160002060008381526020019081526020016000206002018190555083603a6000603660009054906101000a90046001600160a01b03166001600160a01b03166001600160a01b031681526020019081526020016000206000838152602001908152602001600020600301819055507f5f75336906a7685f626675cff5309686db85687068d71ef8c7cdd2630ff8058030603454888c8b8a6038548f8c6040516107f299989796959493929190611256565b60405180910390a16036546001600160a01b03166000908152603c602090815260408083208a845290915290819020905160019190610834908690869061123b565b9081526040805160209281900383019020805460ff1916931515939093179092556039546036546001600160a01b03166000908152603a83528381208582529092529190206005015461088e91608090811b91901b610996565b603980546001600160801b03191660809290921c9190911790556036546001600160a01b03166000908152603b602052604090206001820190555b505050505050505050565b60345481565b6037546000906001600160a01b031633146108f457600080fd5b5060395460801b5b919050565b303b1590565b600081610916575060006108fc565b6000808313610928578260000361092a565b825b9050600061093782610d9a565b90506070811015610950578060700382901b9150610963565b6070811115610963576070810382901c91505b6001600160701b03909116613fff820160701b1790600084121561098b576001607f1b821791505b5060801b90506108fc565b6000617fff6001600160801b03608085811c8216607090811c8416939186901c90921690911c811690821415610a0c5780617fff1415610a02576001600160801b031985811690851614156109ef5784925050506103dc565b50600160ef1b61ffff0291506103dc9050565b84925050506103dc565b80617fff1415610a205783925050506103dc565b6001607f1b608086901c6001600160801b0381169190911015906001600160701b031683610a515760019350610a58565b600160701b175b6001607f1b608087901c6001600160801b0381169190911015906001600160701b031684610a895760019450610a90565b600160701b175b82610ac0576001600160801b03198816600160ff1b14610ab05787610ab3565b60005b96505050505050506103dc565b80610ae0576001600160801b03198916600160ff1b14610ab05788610ab3565b8486038415158315151415610bee576070811315610b0757899750505050505050506103dc565b6000811315610b195790811c90610b48565b606f19811215610b3257889750505050505050506103dc565b6000811215610b48578060000384901c93508596505b92810192600160711b8410610b63576001968701969390931c925b86617fff1415610b985784610b8057600160f01b617fff02610b8a565b6001600160f01b03195b9750505050505050506103dc565b600160701b841015610bad5760009650610bba565b6001600160701b03841693505b83607088901b86610bcc576000610bd2565b6001607f1b5b6001600160801b0316171760801b9750505050505050506103dc565b6000811315610c0957600184901b9350600187039650610c20565b6000811215610c2057600182901b91506001860396505b6070811315610c325760019150610c7f565b6001811315610c4f576001810360018303901c6001019150610c7f565b606f19811215610c625760019350610c7f565b600019811215610c7f576001816000030360018503901c60010193505b818410610c90578184039350610c99565b83820393508294505b83610caf5750600096506103dc95505050505050565b6000610cba85610d9a565b90508060711415610ce057600185901c6001600160701b03169450600188019750610d2f565b6070811015610d2257607081900380891115610d0f578086901b6001600160701b031695508089039850610d1c565b600098600019019590951b945b50610d2f565b6001600160701b03851694505b87617fff1415610d655785610d4c57600160f01b617fff02610d56565b6001600160f01b03195b985050505050505050506103dc565b84607089901b87610d77576000610d7d565b6001607f1b5b6001600160801b0316171760801b985050505050505050506103dc565b6000808211610da857600080fd5b6000600160801b8310610dbd57608092831c92015b680100000000000000008310610dd557604092831c92015b6401000000008310610de957602092831c92015b620100008310610dfb57601092831c92015b6101008310610e0c57600892831c92015b60108310610e1c57600492831c92015b60048310610e2c57600292831c92015b600283106103dc5760010192915050565b6040805160e081018252600080825260208201819052918101829052606081018290526080810182905260a0810182905260c081019190915290565b6000610e85823561132c565b9392505050565b6000610e858251611353565b6000610e858235611344565b60008083601f840112610eb657600080fd5b50813567ffffffffffffffff811115610ece57600080fd5b602083019150836001820283011115610ee657600080fd5b9250929050565b600060208284031215610eff57600080fd5b6000610f0b8484610e79565b949350505050565b60008060008060008060008060e0898b031215610f2f57600080fd5b6000610f3b8b8b610e79565b9850506020610f4c8b828c01610e98565b9750506040610f5d8b828c01610e98565b9650506060610f6e8b828c01610e98565b9550506080610f7f8b828c01610e98565b94505060a0610f908b828c01610e98565b93505060c089013567ffffffffffffffff811115610fad57600080fd5b610fb98b828c01610ea4565b92509250509295985092959890939650565b600060208284031215610fdd57600080fd5b6000610f0b8484610e8c565b60008060008060008060c0878903121561100257600080fd5b600061100e8989610e98565b965050602061101f89828a01610e79565b955050604061103089828a01610e79565b945050606061104189828a01610e79565b935050608061105289828a01610e79565b92505060a061106389828a01610e98565b9150509295509295509295565b6000806040838503121561108357600080fd5b600061108f8585610e98565b92505060206110a085828601610e98565b9150509250929050565b60006110b683836111b2565b505060e00190565b6110c78161132c565b82525050565b60006110d88261131f565b6110e28185611323565b93506110ed83611319565b60005b82811015611118576111038683516110aa565b955061110e82611319565b91506001016110f0565b5093949350505050565b6110c781611337565b6110c781611344565b600061114083856108fc565b935061114d838584611358565b50500190565b6000611160602e83611323565b7f436f6e747261637420696e7374616e63652068617320616c726561647920626581527f656e20696e697469616c697a6564000000000000000000000000000000000000602082015260400192915050565b805160e08301906111c3848261112b565b5060208201516111d6602085018261112b565b5060408201516111e9604085018261112b565b5060608201516111fc606085018261112b565b50608082015161120f608085018261112b565b5060a082015161122260a0850182611122565b5060c082015161123560c08501826110be565b50505050565b6000610f0b828486611134565b602081016103dc82846110be565b6101208101611265828c6110be565b611272602083018b61112b565b61127f604083018a61112b565b61128c60608301896110be565b611299608083018861112b565b6112a660a083018761112b565b6112b360c083018661112b565b6112c060e083018561112b565b6112ce61010083018461112b565b9a9950505050505050505050565b60208082528101610e8581846110cd565b602081016103dc8284611122565b602081016103dc828461112b565b602080825281016103dc81611153565b60200190565b5190565b90815260200190565b60006103dc82611347565b6001600160801b03191690565b90565b6001600160a01b031690565b151590565b8281833750600091015256fea265627a7a723058202d3918910d9904502caaa1f172086bd12aae4af24450518055ec5f3f01d2b5366c6578706572696d656e74616cf50037",
  "source": "// (c) Kallol Borah, 2020\r\n// Implements sub accounts linked to a specific general ledger accounts\r\n\r\npragma solidity 0.5.7;\r\npragma experimental ABIEncoderV2;\r\n\r\nimport \"../interfaces/VerifiedEntry.sol\";\r\nimport \"../interfaces/VerifiedSystem.sol\";\r\nimport \"../interfaces/VerifiedAccount.sol\";\r\nimport \"abdk-libraries-solidity/ABDKMathQuad.sol\";\r\nimport \"@openzeppelin/upgrades/contracts/Initializable.sol\";\r\n\r\ncontract Account is VerifiedAccount, Initializable{\r\n\r\n    using ABDKMathQuad for uint256;\r\n    using ABDKMathQuad for int256;\r\n    using ABDKMathQuad for bytes16;\r\n\r\n    VerifiedSystem private factory;\r\n\r\n    bytes32 public accountName;\r\n\r\n    address accountCreator;\r\n\r\n    address accountHolder;\r\n\r\n    address ledger;\r\n\r\n    bytes32 currency;    \r\n\r\n    bytes16 totalBalance;\r\n\r\n    // mapping each account holder to multiple accounts\r\n    mapping(address => mapping(uint256 => VerifiedEntry.account)) transactions;\r\n\r\n    //mapping account holder to transaction count\r\n    mapping(address => uint256) private txIndex;\r\n\r\n    //mapping account holders to transaction hash\r\n    mapping(address => mapping(bytes32 => mapping(string => bool))) private txRecord;  \r\n\r\n    //emitting post account entry event\r\n    event postAccountEntry(\r\n                        address accountAddress,\r\n                        bytes32 accountName,\r\n                        uint256 txDate,\r\n                        address party,\r\n                        bytes32 txType,\r\n                        bytes32 txDescription,\r\n                        bytes32 currency,\r\n                        int256 txAmount,\r\n                        bytes32 voucherType\r\n                    );\r\n\r\n    // initiliaze proxies\r\n    function initialize(bytes32 _accountName, address _ledger, address _owner, address _accountCreator, address _accountHolder, bytes32 _currency) public initializer{\r\n        factory = VerifiedSystem(_owner);\r\n        accountName = _accountName;\r\n        ledger = _ledger;\r\n        accountCreator = _accountCreator;\r\n        accountHolder = _accountHolder;\r\n        currency = _currency;\r\n    }\r\n\r\n    // create accounting entry for a transaction\r\n    function postEntry(address _party, int256 _txAmount, bytes32 _txType, uint256 _txDate, bytes32 _txDescription, bytes32 _vchType, string calldata _txHash) external{\r\n        //only clients can post entries\r\n        require(accountCreator==msg.sender);\r\n        // amount should not be zero\r\n        require(_txAmount !=0);\r\n        // transaction type should be credit or debit\r\n        require(_txType ==\"Credit\" || _txType == \"Debit\");\r\n        // check for allowed voucher types\r\n        require(_vchType==\"Journal\" || _vchType==\"Cash\" || _vchType==\"Bank\" || _vchType==\"Purchase\" || _vchType==\"Sale\");\r\n        // check if counter party exists\r\n        uint256 i = txIndex[accountHolder];\r\n        if(factory.confirmAccountHolder(_party) && txRecord[accountHolder][_txType][_txHash]==false){\r\n            transactions[accountHolder][i].txCurrency = currency;\r\n            transactions[accountHolder][i].party = _party;\r\n            transactions[accountHolder][i].txAmount = ABDKMathQuad.fromInt(_txAmount);\r\n            transactions[accountHolder][i].txType = _txType;\r\n            transactions[accountHolder][i].txDate = _txDate;\r\n            transactions[accountHolder][i].txDescription = _txDescription;\r\n            transactions[accountHolder][i].voucherType = _vchType;\r\n            emit postAccountEntry(\r\n                address(this),\r\n                accountName,\r\n                _txDate,\r\n                _party,\r\n                _txType,\r\n                _txDescription,\r\n                currency,\r\n                _txAmount,\r\n                _vchType\r\n            );\r\n            txRecord[accountHolder][_txType][_txHash] = true;\r\n            totalBalance = ABDKMathQuad.add(totalBalance, transactions[accountHolder][i].txAmount);\r\n            txIndex[accountHolder] = i+1;\r\n        }\r\n    }\r\n\r\n    // get transaction entry for a given account number and date\r\n    function getEntries(uint256 _startDate, uint256 _endDate) external view returns(VerifiedEntry.account[] memory){\r\n        //only clients can get entries\r\n        require(ledger==msg.sender);\r\n        // transaction date should be specified\r\n        require(_endDate != 0);\r\n        uint256 i = 0;\r\n        uint256 _entries = 0;\r\n        while(transactions[accountHolder][i].party!=address(0x0) && transactions[accountHolder][i].txDate>=_startDate){// && transactions[accountHolder][i].txDate<=_endDate){\r\n            i = i + 1;\r\n            _entries = i;\r\n        }\r\n        VerifiedEntry.account[] memory accountEntries = new VerifiedEntry.account[](_entries);\r\n        i = 0;        \r\n        uint256 count = 0;\r\n        for(i=0; count<_entries; i++){\r\n            if(transactions[accountHolder][i].party!=address(0x0) && transactions[accountHolder][i].txDate>=_startDate){// && transactions[accountHolder][i].txDate<=_endDate){\r\n                VerifiedEntry.account memory accountEntry = VerifiedEntry.account({\r\n                    txType : transactions[accountHolder][i].txType,\r\n                    txDate : transactions[accountHolder][i].txDate,\r\n                    txDescription : transactions[accountHolder][i].txDescription,\r\n                    voucherType : transactions[accountHolder][i].voucherType,\r\n                    txCurrency : transactions[accountHolder][i].txCurrency,\r\n                    txAmount : transactions[accountHolder][i].txAmount,\r\n                    party : transactions[accountHolder][i].party\r\n                });\r\n                accountEntries[count] = accountEntry;\r\n                count = count + 1;                \r\n            }\r\n        }\r\n        return accountEntries;\r\n    }\r\n\r\n    function getBalance(address _accountHolder) external view returns(bytes16){\r\n        //only parent ledgers can get balance\r\n        require(ledger==msg.sender);\r\n        /*bytes16 _txAmount = 0;\r\n        uint256 i = 0;\r\n        while(transactions[_accountHolder][i].party!=address(0x0)){\r\n            _txAmount = ABDKMathQuad.add(_txAmount, transactions[_accountHolder][i].txAmount);\r\n            i=i+1;\r\n        }\r\n        return _txAmount;*/\r\n        return totalBalance;\r\n    }\r\n\r\n}\r\n\r\n",
  "sourcePath": "D:\\Code\\verified-accounts\\contracts\\accounting\\Account.sol",
  "compiler": {
    "name": "solc",
    "version": "0.5.7+commit.6da8b019.Emscripten.clang"
  },
  "schemaVersion": "3.4.3",
  "updatedAt": "2022-01-20T19:06:46.261Z",
  "networkType": "ethereum",
  "devdoc": {
    "methods": {}
  },
  "userdoc": {
    "methods": {}
  }
}