{
  "contractName": "Account",
  "abi": [
    {
      "constant": true,
      "inputs": [],
      "name": "accountName",
      "outputs": [
        {
          "name": "",
          "type": "bytes32"
        }
      ],
      "payable": false,
      "stateMutability": "view",
      "type": "function"
    },
    {
      "constant": false,
      "inputs": [
        {
          "name": "_accountName",
          "type": "bytes32"
        },
        {
          "name": "_ledger",
          "type": "address"
        },
        {
          "name": "_owner",
          "type": "address"
        },
        {
          "name": "_accountCreator",
          "type": "address"
        },
        {
          "name": "_accountHolder",
          "type": "address"
        }
      ],
      "name": "initialize",
      "outputs": [],
      "payable": false,
      "stateMutability": "nonpayable",
      "type": "function"
    },
    {
      "constant": false,
      "inputs": [
        {
          "name": "_party",
          "type": "address"
        },
        {
          "name": "_accountNumber",
          "type": "bytes32"
        },
        {
          "name": "_txAmount",
          "type": "int256"
        },
        {
          "name": "_txType",
          "type": "bytes32"
        },
        {
          "name": "_txDate",
          "type": "uint256"
        },
        {
          "name": "_txDescription",
          "type": "bytes32"
        },
        {
          "name": "_vchType",
          "type": "bytes32"
        }
      ],
      "name": "postEntry",
      "outputs": [],
      "payable": false,
      "stateMutability": "nonpayable",
      "type": "function"
    },
    {
      "constant": true,
      "inputs": [
        {
          "name": "_txDate",
          "type": "uint256"
        }
      ],
      "name": "getEntries",
      "outputs": [
        {
          "name": "",
          "type": "address[]"
        },
        {
          "name": "",
          "type": "bytes16[]"
        },
        {
          "name": "",
          "type": "bytes32[]"
        },
        {
          "name": "",
          "type": "uint256[]"
        },
        {
          "name": "",
          "type": "bytes32[]"
        }
      ],
      "payable": false,
      "stateMutability": "view",
      "type": "function"
    },
    {
      "constant": true,
      "inputs": [
        {
          "name": "_accountHolder",
          "type": "address"
        }
      ],
      "name": "getBalance",
      "outputs": [
        {
          "name": "",
          "type": "bytes16"
        }
      ],
      "payable": false,
      "stateMutability": "view",
      "type": "function"
    }
  ],
  "bytecode": "0x608060405234801561001057600080fd5b5061101f806100206000396000f3fe608060405234801561001057600080fd5b50600436106100575760003560e01c8063c5e579851461005c578063d00e5f6614610076578063d3549ebd146100c2578063f700d5ae14610247578063f8b2cb4f1461028b575b600080fd5b6100646102ce565b60408051918252519081900360200190f35b6100c0600480360360e081101561008c57600080fd5b506001600160a01b038135169060208101359060408101359060608101359060808101359060a08101359060c001356102d4565b005b6100df600480360360208110156100d857600080fd5b503561057c565b60405180806020018060200180602001806020018060200186810386528b818151815260200191508051906020019060200280838360005b8381101561012f578181015183820152602001610117565b5050505090500186810385528a818151815260200191508051906020019060200280838360005b8381101561016e578181015183820152602001610156565b50505050905001868103845289818151815260200191508051906020019060200280838360005b838110156101ad578181015183820152602001610195565b50505050905001868103835288818151815260200191508051906020019060200280838360005b838110156101ec5781810151838201526020016101d4565b50505050905001868103825287818151815260200191508051906020019060200280838360005b8381101561022b578181015183820152602001610213565b505050509050019a505050505050505050505060405180910390f35b6100c0600480360360a081101561025d57600080fd5b508035906001600160a01b0360208201358116916040810135821691606082013581169160800135166108fd565b6102b1600480360360208110156102a157600080fd5b50356001600160a01b03166109f6565b604080516001600160801b03199092168252519081900360200190f35b60345481565b6035546001600160a01b031633146102eb57600080fd5b846102f557600080fd5b83600160d21b6510dc99591a5d021480610319575083600160da1b641119589a5d02145b61032257600080fd5b80600160ca1b66129bdd5c9b985b021480610346575080600160e31b63086c2e6d02145b8061035a575080600160e01b6342616e6b02145b80610372575080600160c01b67507572636861736502145b80610386575080600160e01b6353616c6502145b61038f57600080fd5b60335460408051600160e11b63022e01a70281526001600160a01b038a811660048301529151600093929092169163045c034e91602480820192602092909190829003018186803b1580156103e357600080fd5b505afa1580156103f7573d6000803e3d6000fd5b505050506040513d602081101561040d57600080fd5b5051156105725760005b6036546001600160a01b0390811660009081526038602090815260408083208684529091529020541615801561044b575080155b1561056557603680546001600160a01b03908116600090815260386020818152604080842088855282528084206001018e905594548416835290815283822086835290529190912080546001600160a01b031916918b169190911790556104b187610a87565b603680546001600160a01b039081166000908152603860208181526040808420898552825280842060020180546001600160801b03191660809890981c9790971790965584548416835281815285832088845281528583206003018c905584548416835281815285832088845281528583206004018b905584548416835281815285832088845281528583206005018a90559354909216815290825282812085825290915220600601839055506001610570565b816001019150610417565b505b5050505050505050565b60375460609081908190819081906001600160a01b0316331461059e57600080fd5b856105a857600080fd5b6000805b6036546001600160a01b039081166000908152603860209081526040808320868452909152902054161580159061060b57506036546001600160a01b031660009081526038602090815260408083208584529091529020600401548811155b1561061a5750600101806105ac565b606081604051908082528060200260200182016040528015610646578160200160208202803883390190505b509050606082604051908082528060200260200182016040528015610675578160200160208202803883390190505b5090506060836040519080825280602002602001820160405280156106a4578160200160208202803883390190505b5090506060846040519080825280602002602001820160405280156106d3578160200160208202803883390190505b509050606085604051908082528060200260200182016040528015610702578160200160208202803883390190505b50600097509050865b868110156108e7576036546001600160a01b0390811660009081526038602090815260408083208c8452909152902054161580159061077257506036546001600160a01b031660009081526038602090815260408083208b84529091529020600401548e11155b156108dc576036546001600160a01b0390811660009081526038602090815260408083208c845290915290205487519116908790839081106107b057fe5b6001600160a01b0392831660209182029290920181019190915260365490911660009081526038825260408082208b83529092522060020154835160809190911b908490839081106107fe57fe5b6001600160801b03199092166020928302919091018201526036546001600160a01b031660009081526038825260408082208b83529092522060030154855186908390811061084957fe5b6020908102919091018101919091526036546001600160a01b031660009081526038825260408082208b83529092522060050154845185908390811061088b57fe5b6020908102919091018101919091526036546001600160a01b031660009081526038825260408082208b8352909252206004015482518390839081106108cd57fe5b60209081029190910101526001015b60019097019661070b565b50939c909b509199509197509095509350505050565b600054610100900460ff16806109165750610916610b16565b80610924575060005460ff16155b61096257604051600160e51b62461bcd02815260040180806020018281038252602e815260200180610fc6602e913960400191505060405180910390fd5b600054610100900460ff1615801561098d576000805460ff1961ff0019909116610100171660011790555b603380546001600160a01b038087166001600160a01b03199283161790925560348890556037805488841690831617905560358054868416908316179055603680549285169290911691909117905580156109ee576000805461ff00191690555b505050505050565b6037546000906001600160a01b03163314610a1057600080fd5b6000805b6001600160a01b0384811660009081526038602090815260408083208584529091529020541615610a7e576001600160a01b0384166000908152603860209081526040808320848452909152902060020154610a7490839060801b610b1c565b9150600101610a14565b5090505b919050565b600081610a9657506000610a82565b6000808313610aa85782600003610aaa565b825b90506000610ab782610f22565b90506070811015610ad0578060700382901b9150610ae3565b6070811115610ae3576070810382901c91505b6001600160701b03909116613fff820160701b17906000841215610b0b576001607f1b821791505b5060801b9050610a82565b303b1590565b6000617fff6001600160801b03608085811c8216607090811c8416939186901c90921690911c811690821415610b925780617fff1415610b88576001600160801b03198581169085161415610b75578492505050610f1c565b50600160ef1b61ffff029150610f1c9050565b8492505050610f1c565b80617fff1415610ba6578392505050610f1c565b6001607f1b608086901c6001600160801b0381169190911015906001600160701b031683610bd75760019350610bde565b600160701b175b6001607f1b608087901c6001600160801b0381169190911015906001600160701b031684610c0f5760019450610c16565b600160701b175b82610c46576001600160801b03198816600160ff1b14610c365787610c39565b60005b9650505050505050610f1c565b80610c66576001600160801b03198916600160ff1b14610c365788610c39565b8486038415158315151415610d74576070811315610c8d5789975050505050505050610f1c565b6000811315610c9f5790811c90610cce565b606f19811215610cb85788975050505050505050610f1c565b6000811215610cce578060000384901c93508596505b92810192600160711b8410610ce9576001968701969390931c925b86617fff1415610d1e5784610d0657600160f01b617fff02610d10565b6001600160f01b03195b975050505050505050610f1c565b600160701b841015610d335760009650610d40565b6001600160701b03841693505b83607088901b86610d52576000610d58565b6001607f1b5b6001600160801b0316171760801b975050505050505050610f1c565b6000811315610d8f57600184901b9350600187039650610da6565b6000811215610da657600182901b91506001860396505b6070811315610db85760019150610e05565b6001811315610dd5576001810360018303901c6001019150610e05565b606f19811215610de85760019350610e05565b600019811215610e05576001816000030360018503901c60010193505b818410610e16578184039350610e1f565b83820393508294505b83610e35575060009650610f1c95505050505050565b6000610e4085610f22565b90508060711415610e6657600185901c6001600160701b03169450600188019750610eb5565b6070811015610ea857607081900380891115610e95578086901b6001600160701b031695508089039850610ea2565b600098600019019590951b945b50610eb5565b6001600160701b03851694505b87617fff1415610eeb5785610ed257600160f01b617fff02610edc565b6001600160f01b03195b98505050505050505050610f1c565b84607089901b87610efd576000610f03565b6001607f1b5b6001600160801b0316171760801b985050505050505050505b92915050565b6000808211610f3057600080fd5b6000600160801b8310610f4557608092831c92015b680100000000000000008310610f5d57604092831c92015b6401000000008310610f7157602092831c92015b620100008310610f8357601092831c92015b6101008310610f9457600892831c92015b60108310610fa457600492831c92015b60048310610fb457600292831c92015b60028310610f1c576001019291505056fe436f6e747261637420696e7374616e63652068617320616c7265616479206265656e20696e697469616c697a6564a165627a7a723058205e1e20f668bb430d8dd8d89a2b747d18ae51d7076c891798e27a3dd18ad725ce0029",
  "source": "// (c) Kallol Borah, 2020\r\n// Implements sub accounts linked to a specific general ledger accounts\r\n\r\npragma solidity 0.5.7;\r\n\r\nimport \"../interfaces/VerifiedSystem.sol\";\r\nimport \"../interfaces/VerifiedAccount.sol\";\r\nimport \"abdk-libraries-solidity/ABDKMathQuad.sol\";\r\nimport \"@openzeppelin/upgrades/contracts/Initializable.sol\";\r\n\r\n\r\ncontract Account is VerifiedAccount, Initializable{\r\n\r\n    using ABDKMathQuad for uint256;\r\n    using ABDKMathQuad for int256;\r\n    using ABDKMathQuad for bytes16;\r\n\r\n    VerifiedSystem private factory;\r\n\r\n    bytes32 public accountName;\r\n\r\n    address accountCreator;\r\n\r\n    address accountHolder;\r\n\r\n    address ledger;\r\n\r\n    // data structure for holding transactions\r\n    struct account{\r\n        address party;\r\n        bytes32 accountNumber;\r\n        bytes16 txAmount;\r\n        bytes32 txType;\r\n        uint256 txDate;\r\n        bytes32 txDescription;\r\n        bytes32 voucherType;\r\n    }\r\n\r\n    // mapping each account holder to multiple accounts\r\n    mapping(address => mapping(uint256 => account)) transactions;\r\n\r\n    // initiliaze proxies\r\n    function initialize(bytes32 _accountName, address _ledger, address _owner, address _accountCreator, address _accountHolder) public initializer{\r\n        factory = VerifiedSystem(_owner);\r\n        accountName = _accountName;\r\n        ledger = _ledger;\r\n        accountCreator = _accountCreator;\r\n        accountHolder = _accountHolder;\r\n    }\r\n\r\n    // create accounting entry for a transaction\r\n    function postEntry(address _party, bytes32 _accountNumber, int256 _txAmount, bytes32 _txType, uint256 _txDate, bytes32 _txDescription, bytes32 _vchType) external{\r\n        //only clients can post entries\r\n        require(accountCreator==msg.sender);\r\n        // amount should not be zero\r\n        require(_txAmount !=0);\r\n        // transaction type should be credit or debit\r\n        require(_txType ==\"Credit\" || _txType == \"Debit\");\r\n        // check for allowed voucher types\r\n        require(_vchType==\"Journal\" || _vchType==\"Cash\" || _vchType==\"Bank\" || _vchType==\"Purchase\" || _vchType==\"Sale\");\r\n        // check if counter party exists\r\n        uint256 i =0;\r\n        if(factory.confirmAccountHolder(_party)){\r\n            bool found = false;\r\n            while(true){\r\n                if(transactions[accountHolder][i].party==address(0x0) && !found){\r\n                    transactions[accountHolder][i].accountNumber = _accountNumber;\r\n                    transactions[accountHolder][i].party = _party;\r\n                    transactions[accountHolder][i].txAmount = ABDKMathQuad.fromInt(_txAmount);\r\n                    transactions[accountHolder][i].txType = _txType;\r\n                    transactions[accountHolder][i].txDate = _txDate;\r\n                    transactions[accountHolder][i].txDescription = _txDescription;\r\n                    transactions[accountHolder][i].voucherType = _vchType;\r\n                    found = true;\r\n                    break;\r\n                }\r\n                i=i+1;\r\n            }\r\n        }\r\n    }\r\n\r\n    // get transaction entry for a given account number and date\r\n    function getEntries(uint256 _txDate) external view returns(address[] memory, bytes16[] memory, bytes32[] memory, uint256[] memory, bytes32[] memory){\r\n        //only clients can get entries\r\n        require(ledger==msg.sender);\r\n        // transaction date should be specified\r\n        require(_txDate != 0);\r\n        uint256 i = 0;\r\n        uint256 _entries = 0;\r\n        while(transactions[accountHolder][i].party!=address(0x0) && transactions[accountHolder][i].txDate>=_txDate){\r\n            i = i + 1;\r\n            _entries = i;\r\n        }\r\n        address[] memory _party = new address[](_entries);\r\n        bytes32[] memory _txType = new bytes32[](_entries);\r\n        bytes32[] memory _txDescription = new bytes32[](_entries);\r\n        bytes16[] memory _txAmount = new bytes16[](_entries);\r\n        uint256[] memory _date = new uint256[](_entries);\r\n        i = 0;        \r\n        uint256 count = 0;\r\n        for(i=0; count<_entries; i++){\r\n            if(transactions[accountHolder][i].party!=address(0x0) && transactions[accountHolder][i].txDate>=_txDate){\r\n                _party[count] = transactions[accountHolder][i].party;\r\n                _txAmount[count] = transactions[accountHolder][i].txAmount;\r\n                _txType[count] = transactions[accountHolder][i].txType;\r\n                _txDescription[count] = transactions[accountHolder][i].txDescription;\r\n                _date[count] = transactions[accountHolder][i].txDate;\r\n                count = count + 1;\r\n            }\r\n        }\r\n        return(_party, _txAmount, _txType, _date, _txDescription);\r\n    }\r\n\r\n    function getBalance(address _accountHolder) external view returns(bytes16){\r\n        //only parent ledgers can get balance\r\n        require(ledger==msg.sender);\r\n        bytes16 _txAmount = 0;\r\n        uint256 i = 0;\r\n        while(transactions[_accountHolder][i].party!=address(0x0)){\r\n            _txAmount = ABDKMathQuad.add(_txAmount, transactions[_accountHolder][i].txAmount);\r\n            i=i+1;\r\n        }\r\n        return _txAmount;\r\n    }\r\n\r\n}\r\n\r\n",
  "sourcePath": "D:\\Code\\verified-accounts\\contracts\\accounting\\Account.sol",
  "compiler": {
    "name": "solc",
    "version": "0.5.7+commit.6da8b019.Emscripten.clang"
  },
  "schemaVersion": "3.4.3",
  "updatedAt": "2021-11-13T13:23:22.822Z",
  "networkType": "ethereum",
  "devdoc": {
    "methods": {}
  },
  "userdoc": {
    "methods": {}
  }
}