{
  "contractName": "Account",
  "abi": [
    {
      "constant": true,
      "inputs": [],
      "name": "accountName",
      "outputs": [
        {
          "name": "",
          "type": "bytes32"
        }
      ],
      "payable": false,
      "stateMutability": "view",
      "type": "function"
    },
    {
      "constant": false,
      "inputs": [
        {
          "name": "_accountName",
          "type": "bytes32"
        },
        {
          "name": "_ledger",
          "type": "address"
        },
        {
          "name": "_owner",
          "type": "address"
        },
        {
          "name": "_accountCreator",
          "type": "address"
        },
        {
          "name": "_accountHolder",
          "type": "address"
        }
      ],
      "name": "initialize",
      "outputs": [],
      "payable": false,
      "stateMutability": "nonpayable",
      "type": "function"
    },
    {
      "constant": false,
      "inputs": [
        {
          "name": "_party",
          "type": "address"
        },
        {
          "name": "_accountNumber",
          "type": "bytes32"
        },
        {
          "name": "_txAmount",
          "type": "int256"
        },
        {
          "name": "_txType",
          "type": "bytes32"
        },
        {
          "name": "_txDate",
          "type": "bytes32"
        },
        {
          "name": "_txDescription",
          "type": "bytes32"
        },
        {
          "name": "_vchType",
          "type": "bytes32"
        }
      ],
      "name": "postEntry",
      "outputs": [],
      "payable": false,
      "stateMutability": "nonpayable",
      "type": "function"
    },
    {
      "constant": true,
      "inputs": [
        {
          "name": "_accountNumber",
          "type": "bytes32"
        },
        {
          "name": "_txDate",
          "type": "bytes32"
        }
      ],
      "name": "getEntry",
      "outputs": [
        {
          "name": "",
          "type": "address"
        },
        {
          "name": "",
          "type": "address"
        },
        {
          "name": "",
          "type": "bytes16"
        },
        {
          "name": "",
          "type": "bytes32"
        },
        {
          "name": "",
          "type": "bytes32"
        },
        {
          "name": "",
          "type": "bytes32"
        }
      ],
      "payable": false,
      "stateMutability": "view",
      "type": "function"
    },
    {
      "constant": true,
      "inputs": [
        {
          "name": "_accountHolder",
          "type": "address"
        }
      ],
      "name": "getBalance",
      "outputs": [
        {
          "name": "",
          "type": "bytes16"
        }
      ],
      "payable": false,
      "stateMutability": "view",
      "type": "function"
    }
  ],
  "bytecode": "0x608060405234801561001057600080fd5b50610cd6806100206000396000f3fe608060405234801561001057600080fd5b50600436106100575760003560e01c80639515cf561461005c578063c3031d88146100c7578063c5e5798514610113578063f700d5ae1461012d578063f8b2cb4f14610171575b600080fd5b61007f6004803603604081101561007257600080fd5b50803590602001356101b4565b604080516001600160a01b0397881681529590961660208601526001600160801b0319909316848601526060840191909152608083015260a082015290519081900360c00190f35b610111600480360360e08110156100dd57600080fd5b506001600160a01b038135169060208101359060408101359060608101359060808101359060a08101359060c0013561030d565b005b61011b6105ae565b60408051918252519081900360200190f35b610111600480360360a081101561014357600080fd5b508035906001600160a01b0360208201358116916040810135821691606082013581169160800135166105b4565b6101976004803603602081101561018757600080fd5b50356001600160a01b03166106ad565b604080516001600160801b03199092168252519081900360200190f35b603554600090819081908190819081906001600160a01b031633146101d857600080fd5b866101e257600080fd5b60008080808080805b6036546001600160a01b0390811660009081526038602090815260408083208684529091529020541615801590610220575080155b156102eb576036546001600160a01b031660009081526038602090815260408083208584529091529020600101548f14801561028357506036546001600160a01b031660009081526038602090815260408083208584529091529020600401548e145b156102e057506036546001600160a01b0390811660009081526038602090815260408083208584529091529020805460028201546003830154600584015460069094015492909416995092975090955060809190911b9350915060015b8160010191506101eb565b50506037546001600160a01b03169d949c50909a509198509650945092505050565b6035546001600160a01b0316331461032457600080fd5b8461032e57600080fd5b83600160d21b6510dc99591a5d021480610352575083600160da1b641119589a5d02145b61035b57600080fd5b80600160ca1b66129bdd5c9b985b02148061037f575080600160e31b63086c2e6d02145b80610393575080600160e01b6342616e6b02145b806103ab575080600160c01b67507572636861736502145b806103bf575080600160e01b6353616c6502145b6103c857600080fd5b60335460408051600160e11b63022e01a70281526001600160a01b038a811660048301529151600093929092169163045c034e91602480820192602092909190829003018186803b15801561041c57600080fd5b505afa158015610430573d6000803e3d6000fd5b505050506040513d602081101561044657600080fd5b5051156105a45760005b6036546001600160a01b03908116600090815260386020908152604080832086845290915290205416158015610484575080155b156105a257603680546001600160a01b03908116600090815260386020818152604080842088855282528084206001018e905594548416835290815283822086835290529190912080546001600160a01b031916918b169190911790556104ea8761073e565b603680546001600160a01b039081166000908152603860208181526040808420898552825280842060020180546001600160801b03191660809890981c9790971790965584548416835281815285832088845281528583206003018c905584548416835281815285832088845281528583206004018b905584548416835281815285832088845281528583206005018a9055935490921681529082528281208582529091522060060183905550600190810190610450565b505b5050505050505050565b60345481565b600054610100900460ff16806105cd57506105cd6107cd565b806105db575060005460ff16155b61061957604051600160e51b62461bcd02815260040180806020018281038252602e815260200180610c7d602e913960400191505060405180910390fd5b600054610100900460ff16158015610644576000805460ff1961ff0019909116610100171660011790555b603380546001600160a01b038087166001600160a01b03199283161790925560348890556037805488841690831617905560358054868416908316179055603680549285169290911691909117905580156106a5576000805461ff00191690555b505050505050565b6037546000906001600160a01b031633146106c757600080fd5b6000805b6001600160a01b0384811660009081526038602090815260408083208584529091529020541615610735576001600160a01b038416600090815260386020908152604080832084845290915290206002015461072b90839060801b6107d3565b91506001016106cb565b5090505b919050565b60008161074d57506000610739565b600080831361075f5782600003610761565b825b9050600061076e82610bd9565b90506070811015610787578060700382901b915061079a565b607081111561079a576070810382901c91505b6001600160701b03909116613fff820160701b179060008412156107c2576001607f1b821791505b5060801b9050610739565b303b1590565b6000617fff6001600160801b03608085811c8216607090811c8416939186901c90921690911c8116908214156108495780617fff141561083f576001600160801b0319858116908516141561082c578492505050610bd3565b50600160ef1b61ffff029150610bd39050565b8492505050610bd3565b80617fff141561085d578392505050610bd3565b6001607f1b608086901c6001600160801b0381169190911015906001600160701b03168361088e5760019350610895565b600160701b175b6001607f1b608087901c6001600160801b0381169190911015906001600160701b0316846108c657600194506108cd565b600160701b175b826108fd576001600160801b03198816600160ff1b146108ed57876108f0565b60005b9650505050505050610bd3565b8061091d576001600160801b03198916600160ff1b146108ed57886108f0565b8486038415158315151415610a2b5760708113156109445789975050505050505050610bd3565b60008113156109565790811c90610985565b606f1981121561096f5788975050505050505050610bd3565b6000811215610985578060000384901c93508596505b92810192600160711b84106109a0576001968701969390931c925b86617fff14156109d557846109bd57600160f01b617fff026109c7565b6001600160f01b03195b975050505050505050610bd3565b600160701b8410156109ea57600096506109f7565b6001600160701b03841693505b83607088901b86610a09576000610a0f565b6001607f1b5b6001600160801b0316171760801b975050505050505050610bd3565b6000811315610a4657600184901b9350600187039650610a5d565b6000811215610a5d57600182901b91506001860396505b6070811315610a6f5760019150610abc565b6001811315610a8c576001810360018303901c6001019150610abc565b606f19811215610a9f5760019350610abc565b600019811215610abc576001816000030360018503901c60010193505b818410610acd578184039350610ad6565b83820393508294505b83610aec575060009650610bd395505050505050565b6000610af785610bd9565b90508060711415610b1d57600185901c6001600160701b03169450600188019750610b6c565b6070811015610b5f57607081900380891115610b4c578086901b6001600160701b031695508089039850610b59565b600098600019019590951b945b50610b6c565b6001600160701b03851694505b87617fff1415610ba25785610b8957600160f01b617fff02610b93565b6001600160f01b03195b98505050505050505050610bd3565b84607089901b87610bb4576000610bba565b6001607f1b5b6001600160801b0316171760801b985050505050505050505b92915050565b6000808211610be757600080fd5b6000600160801b8310610bfc57608092831c92015b680100000000000000008310610c1457604092831c92015b6401000000008310610c2857602092831c92015b620100008310610c3a57601092831c92015b6101008310610c4b57600892831c92015b60108310610c5b57600492831c92015b60048310610c6b57600292831c92015b60028310610bd3576001019291505056fe436f6e747261637420696e7374616e63652068617320616c7265616479206265656e20696e697469616c697a6564a165627a7a72305820863a8abf3518b93d7651f68bc981cd010ca2aa85df4a478ed0450ade45bac8c00029",
  "source": "// (c) Kallol Borah, 2020\r\n// Implements sub accounts linked to a specific general ledger accounts\r\n\r\npragma solidity 0.5.7;\r\n\r\nimport \"../interfaces/VerifiedSystem.sol\";\r\nimport \"../interfaces/VerifiedAccount.sol\";\r\nimport \"abdk-libraries-solidity/ABDKMathQuad.sol\";\r\nimport \"@openzeppelin/upgrades/contracts/Initializable.sol\";\r\n\r\n\r\ncontract Account is VerifiedAccount, Initializable{\r\n\r\n    using ABDKMathQuad for uint256;\r\n    using ABDKMathQuad for int256;\r\n    using ABDKMathQuad for bytes16;\r\n\r\n    VerifiedSystem private factory;\r\n\r\n    bytes32 public accountName;\r\n\r\n    address accountCreator;\r\n\r\n    address accountHolder;\r\n\r\n    address ledger;\r\n\r\n    // data structure for holding transactions\r\n    struct account{\r\n        address party;\r\n        bytes32 accountNumber;\r\n        bytes16 txAmount;\r\n        bytes32 txType;\r\n        bytes32 txDate;\r\n        bytes32 txDescription;\r\n        bytes32 voucherType;\r\n    }\r\n\r\n    // mapping each account holder to multiple accounts\r\n    mapping(address => mapping(uint256 => account)) transactions;\r\n\r\n    // initiliaze proxies\r\n    function initialize(bytes32 _accountName, address _ledger, address _owner, address _accountCreator, address _accountHolder) public initializer{\r\n        factory = VerifiedSystem(_owner);\r\n        accountName = _accountName;\r\n        ledger = _ledger;\r\n        accountCreator = _accountCreator;\r\n        accountHolder = _accountHolder;\r\n    }\r\n\r\n    // create accounting entry for a transaction\r\n    function postEntry(address _party, bytes32 _accountNumber, int256 _txAmount, bytes32 _txType, bytes32 _txDate, bytes32 _txDescription, bytes32 _vchType) external{\r\n        //only clients can post entries\r\n        require(accountCreator==msg.sender);\r\n        // amount should not be zero\r\n        require(_txAmount !=0);\r\n        // transaction type should be credit or debit\r\n        require(_txType ==\"Credit\" || _txType == \"Debit\");\r\n        // check for allowed voucher types\r\n        require(_vchType==\"Journal\" || _vchType==\"Cash\" || _vchType==\"Bank\" || _vchType==\"Purchase\" || _vchType==\"Sale\");\r\n        // check if counter party exists\r\n        uint256 i =0;\r\n        if(factory.confirmAccountHolder(_party)){\r\n            bool found = false;\r\n            while(transactions[accountHolder][i].party==address(0x0) && !found){\r\n                transactions[accountHolder][i].accountNumber = _accountNumber;\r\n                transactions[accountHolder][i].party = _party;\r\n                transactions[accountHolder][i].txAmount = ABDKMathQuad.fromInt(_txAmount);\r\n                transactions[accountHolder][i].txType = _txType;\r\n                transactions[accountHolder][i].txDate = _txDate;\r\n                transactions[accountHolder][i].txDescription = _txDescription;\r\n                transactions[accountHolder][i].voucherType = _vchType;\r\n                found = true;\r\n                i=i+1;\r\n            }\r\n        }\r\n    }\r\n\r\n    // get transaction entry for a given account number and date\r\n    function getEntry(bytes32 _accountNumber, bytes32 _txDate) external view returns(address, address, bytes16, bytes32, bytes32, bytes32){\r\n        //only clients can get entries\r\n        require(accountCreator==msg.sender);\r\n        // transaction date should be specified\r\n        require(_txDate != \"\");\r\n        address _party;\r\n        bytes32 _txType;\r\n        bytes32 _txDescription;\r\n        bytes16 _txAmount;\r\n        bytes32 _voucherType;\r\n        uint256 i = 0;\r\n        bool found = false;\r\n        while(transactions[accountHolder][i].party!=address(0x0) && !found){\r\n            if(transactions[accountHolder][i].accountNumber==_accountNumber && transactions[accountHolder][i].txDate==_txDate){\r\n                _party = transactions[accountHolder][i].party;\r\n                _txAmount = transactions[accountHolder][i].txAmount;\r\n                _txType = transactions[accountHolder][i].txType;\r\n                _txDescription = transactions[accountHolder][i].txDescription;\r\n                _voucherType = transactions[accountHolder][i].voucherType;\r\n                found = true;\r\n            }\r\n            i = i+1;\r\n        }\r\n        return(ledger, _party, _txAmount, _txType, _txDescription, _voucherType);\r\n    }\r\n\r\n    function getBalance(address _accountHolder) external view returns(bytes16){\r\n        //only parent ledgers can get balance\r\n        require(ledger==msg.sender);\r\n        bytes16 _txAmount = 0;\r\n        uint256 i = 0;\r\n        while(transactions[_accountHolder][i].party!=address(0x0)){\r\n            _txAmount = ABDKMathQuad.add(_txAmount, transactions[_accountHolder][i].txAmount);\r\n            i=i+1;\r\n        }\r\n        return _txAmount;\r\n    }\r\n\r\n}\r\n\r\n",
  "sourcePath": "D:/Code/verified-accounts/contracts/accounting/Account.sol",
  "compiler": {
    "name": "solc",
    "version": "0.5.7+commit.6da8b019.Emscripten.clang"
  },
  "schemaVersion": "3.3.3",
  "updatedAt": "2021-03-08T17:40:30.835Z",
  "devdoc": {
    "methods": {}
  },
  "userdoc": {
    "methods": {}
  }
}