{
  "contractName": "Client",
  "abi": [
    {
      "constant": false,
      "inputs": [
        {
          "name": "_kyc",
          "type": "address"
        }
      ],
      "name": "initialize",
      "outputs": [],
      "payable": false,
      "stateMutability": "nonpayable",
      "type": "function"
    },
    {
      "constant": false,
      "inputs": [
        {
          "name": "_client",
          "type": "address"
        },
        {
          "name": "_account",
          "type": "address"
        }
      ],
      "name": "setCustody",
      "outputs": [],
      "payable": false,
      "stateMutability": "nonpayable",
      "type": "function"
    },
    {
      "constant": true,
      "inputs": [
        {
          "name": "_client",
          "type": "address"
        }
      ],
      "name": "getCustody",
      "outputs": [
        {
          "name": "",
          "type": "address"
        }
      ],
      "payable": false,
      "stateMutability": "view",
      "type": "function"
    },
    {
      "constant": false,
      "inputs": [
        {
          "name": "login",
          "type": "bool"
        }
      ],
      "name": "setAccess",
      "outputs": [],
      "payable": false,
      "stateMutability": "nonpayable",
      "type": "function"
    },
    {
      "constant": true,
      "inputs": [
        {
          "name": "_client",
          "type": "address"
        }
      ],
      "name": "getAccess",
      "outputs": [
        {
          "name": "",
          "type": "uint256"
        },
        {
          "name": "",
          "type": "uint256"
        }
      ],
      "payable": false,
      "stateMutability": "view",
      "type": "function"
    },
    {
      "constant": false,
      "inputs": [
        {
          "name": "_client",
          "type": "address"
        },
        {
          "name": "_manager",
          "type": "address"
        }
      ],
      "name": "setManager",
      "outputs": [],
      "payable": false,
      "stateMutability": "nonpayable",
      "type": "function"
    },
    {
      "constant": true,
      "inputs": [
        {
          "name": "_client",
          "type": "address"
        }
      ],
      "name": "getManager",
      "outputs": [
        {
          "name": "",
          "type": "address"
        }
      ],
      "payable": false,
      "stateMutability": "view",
      "type": "function"
    },
    {
      "constant": true,
      "inputs": [
        {
          "name": "_client",
          "type": "address"
        }
      ],
      "name": "isRegistered",
      "outputs": [
        {
          "name": "",
          "type": "bool"
        }
      ],
      "payable": false,
      "stateMutability": "view",
      "type": "function"
    },
    {
      "constant": false,
      "inputs": [
        {
          "name": "_client",
          "type": "address"
        },
        {
          "name": "status",
          "type": "bool"
        }
      ],
      "name": "setAMLStatus",
      "outputs": [],
      "payable": false,
      "stateMutability": "nonpayable",
      "type": "function"
    },
    {
      "constant": true,
      "inputs": [
        {
          "name": "_client",
          "type": "address"
        }
      ],
      "name": "getAMLStatus",
      "outputs": [
        {
          "name": "",
          "type": "bool"
        }
      ],
      "payable": false,
      "stateMutability": "view",
      "type": "function"
    },
    {
      "constant": false,
      "inputs": [
        {
          "name": "_manager",
          "type": "address"
        },
        {
          "name": "_status",
          "type": "bool"
        }
      ],
      "name": "getClients",
      "outputs": [
        {
          "name": "",
          "type": "address[]"
        }
      ],
      "payable": false,
      "stateMutability": "nonpayable",
      "type": "function"
    },
    {
      "constant": false,
      "inputs": [
        {
          "name": "_submanager",
          "type": "address"
        },
        {
          "name": "_country",
          "type": "bytes32"
        },
        {
          "name": "_role",
          "type": "bytes32"
        }
      ],
      "name": "addRole",
      "outputs": [],
      "payable": false,
      "stateMutability": "nonpayable",
      "type": "function"
    },
    {
      "constant": true,
      "inputs": [
        {
          "name": "_country",
          "type": "bytes32"
        }
      ],
      "name": "getRole",
      "outputs": [
        {
          "name": "",
          "type": "bytes32"
        }
      ],
      "payable": false,
      "stateMutability": "view",
      "type": "function"
    },
    {
      "constant": false,
      "inputs": [
        {
          "name": "_submanager",
          "type": "address"
        },
        {
          "name": "_country",
          "type": "bytes32"
        },
        {
          "name": "_role",
          "type": "bytes32"
        }
      ],
      "name": "removeRole",
      "outputs": [],
      "payable": false,
      "stateMutability": "nonpayable",
      "type": "function"
    }
  ],
  "bytecode": "0x608060405234801561001057600080fd5b50611076806100206000396000f3fe608060405234801561001057600080fd5b50600436106100ea5760003560e01c80635df8122f1161008c5780638b34710d116100665780638b34710d146102dc578063c3c5a5471461035a578063c4d66de814610380578063e658f229146103a6576100ea565b80635df8122f14610251578063685b8fd31461027f5780636e8eb7bc146102ad576100ea565b80633a291033116100c85780633a291033146101935780633c33c9ce146101cd5780633d5840631461020c57806359ce7d4c14610232576100ea565b806319d7152c146100ef578063207df18914610131578063394357d214610161575b600080fd5b6101156004803603602081101561010557600080fd5b50356001600160a01b03166103d8565b604080516001600160a01b039092168252519081900360200190f35b61015f6004803603604081101561014757600080fd5b506001600160a01b03813581169160200135166104b9565b005b61015f6004803603606081101561017757600080fd5b506001600160a01b0381351690602081013590604001356105a9565b6101b9600480360360208110156101a957600080fd5b50356001600160a01b031661068b565b604080519115158252519081900360200190f35b6101f3600480360360208110156101e357600080fd5b50356001600160a01b03166106f4565b6040805192835260208301919091528051918290030190f35b6101156004803603602081101561022257600080fd5b50356001600160a01b03166107dc565b61015f6004803603602081101561024857600080fd5b503515156107fd565b61015f6004803603604081101561026757600080fd5b506001600160a01b03813581169160200135166108b3565b61015f6004803603604081101561029557600080fd5b506001600160a01b0381351690602001351515610ad8565b6102ca600480360360208110156102c357600080fd5b5035610b5f565b60408051918252519081900360200190f35b61030a600480360360408110156102f257600080fd5b506001600160a01b0381351690602001351515610c35565b60408051602080825283518183015283519192839290830191858101910280838360005b8381101561034657818101518382015260200161032e565b505050509050019250505060405180910390f35b6101b96004803603602081101561037057600080fd5b50356001600160a01b0316610c5d565b61015f6004803603602081101561039657600080fd5b50356001600160a01b0316610c8b565b61015f600480360360608110156103bc57600080fd5b506001600160a01b038135169060208101359060400135610cb6565b60006001600160a01b03821633148061040d57506001600160a01b038281166000908152603560205260409020600201541633145b61041657600080fd5b60385460408051600160e01b6330ccebb50281526001600160a01b038581166004830152915191909216916330ccebb5916024808301926020929190829003018186803b15801561046657600080fd5b505afa15801561047a573d6000803e3d6000fd5b505050506040513d602081101561049057600080fd5b5051156104b457506001600160a01b03808216600090815260366020526040902054165b919050565b6001600160a01b0382163314806104ec57506001600160a01b038281166000908152603560205260409020600201541633145b6104f557600080fd5b60385460408051600160e01b6330ccebb50281526001600160a01b038581166004830152915191909216916330ccebb5916024808301926020929190829003018186803b15801561054557600080fd5b505afa158015610559573d6000803e3d6000fd5b505050506040513d602081101561056f57600080fd5b5051156105a5576001600160a01b03828116600090815260366020526040902080546001600160a01b0319169183169190911790555b5050565b80600160b91b6821bab9ba37b234b0b70214806105d1575080600160d11b6524b9b9bab2b902145b806105e3575080600160f41b61044502145b806105f9575080600160d21b6512d650d0535302145b61060257600080fd5b600061060f336001610e80565b511161061a57600080fd5b6034805460018181019092557f46bddb1178e94d7f2892ff5f366840eb658911794f2c3a44c450aa2c505186c10180546001600160a01b039095166001600160a01b031995861681179091556000908152603360205260409020805490941633178455830191909155600290910155565b6001600160a01b038181166000908152603560205260408120600201549091163314806106c257506039546001600160a01b031633145b6106cb57600080fd5b506001600160a01b0316600090815260356020526040902060020154600160a01b900460ff1690565b6000806001600160a01b03831633148061072a57506001600160a01b038381166000908152603560205260409020600201541633145b61073357600080fd5b60385460408051600160e01b6330ccebb50281526001600160a01b038681166004830152915191909216916330ccebb5916024808301926020929190829003018186803b15801561078357600080fd5b505afa158015610797573d6000803e3d6000fd5b505050506040513d60208110156107ad57600080fd5b5051156107d75750506001600160a01b038116600090815260356020526040902080546001909101545b915091565b6001600160a01b039081166000908152603560205260409020600201541690565b60385460408051600160e01b6330ccebb502815233600482015290516001600160a01b03909216916330ccebb591602480820192602092909190829003018186803b15801561084b57600080fd5b505afa15801561085f573d6000803e3d6000fd5b505050506040513d602081101561087557600080fd5b5051156108b0578015610899573360009081526035602052604090204290556108b0565b336000908152603560205260409020426001909101555b50565b6039546001600160a01b0316331480156108df5750806001600160a01b0316826001600160a01b031614155b156109bd5760385460408051600160e01b6330ccebb50281526001600160a01b038581166004830152915191909216916330ccebb5916024808301926020929190829003018186803b15801561093457600080fd5b505afa158015610948573d6000803e3d6000fd5b505050506040513d602081101561095e57600080fd5b50516109b8576001600160a01b03808316600081815260356020908152604080832060020180549587166001600160a01b031996871681179091558352603782528220805460018101825590835291200180549092161790555b6105a5565b6001600160a01b0382811660009081526035602052604090206002015416331480156109fb5750806001600160a01b0316826001600160a01b031614155b156105a55760385460408051600160e01b6330ccebb50281526001600160a01b038581166004830152915191909216916330ccebb5916024808301926020929190829003018186803b158015610a5057600080fd5b505afa158015610a64573d6000803e3d6000fd5b505050506040513d6020811015610a7a57600080fd5b5051156105a5576001600160a01b03808316600081815260356020908152604080832060020180549587166001600160a01b031996871681179091558352603782528220805460018101825590835291200180549092161790555050565b6001600160a01b0382811660009081526035602052604090206002015416331480610b0d57506039546001600160a01b031633145b610b1657600080fd5b6001600160a01b0390911660009081526035602052604090206002018054911515600160a01b0274ff000000000000000000000000000000000000000019909216919091179055565b6000805b603454811015610c2c57336001600160a01b031660348281548110610b8457fe5b6000918252602090912001546001600160a01b0316148015610bdd5750826033600060348481548110610bb357fe5b60009182526020808320909101546001600160a01b03168352820192909252604001902060010154145b15610c24576033600060348381548110610bf357fe5b60009182526020808320909101546001600160a01b0316835282019290925260400190206002015491506104b49050565b600101610b63565b50600092915050565b6060336001600160a01b03841614610c4c57600080fd5b610c568383610e80565b9392505050565b6001600160a01b03811660009081526035602052604081205415610c83575060016104b4565b5060006104b4565b603880546001600160a01b039092166001600160a01b03199283161790556039805490911633179055565b80600160b91b6821bab9ba37b234b0b7021480610cde575080600160d11b6524b9b9bab2b902145b80610cf0575080600160f41b61044502145b80610d06575080600160d21b6512d650d0535302145b610d0f57600080fd5b60005b603454811015610e7a57836001600160a01b031660348281548110610d3357fe5b6000918252602090912001546001600160a01b0316148015610d8c5750816033600060348481548110610d6257fe5b60009182526020808320909101546001600160a01b03168352820192909252604001902060020154145b8015610dcf5750826033600060348481548110610da557fe5b60009182526020808320909101546001600160a01b03168352820192909252604001902060010154145b8015610e1e5750336001600160a01b03166033600060348481548110610df157fe5b60009182526020808320909101546001600160a01b03908116845290830193909352604090910190205416145b15610e72576033600060348381548110610e3457fe5b60009182526020808320909101546001600160a01b03168352820192909252604001812080546001600160a01b031916815560018101829055600201555b600101610d12565b50505050565b60608060376000856001600160a01b03166001600160a01b03168152602001908152602001600020805480602002602001604051908101604052809291908181526020018280548015610efc57602002820191906000526020600020905b81546001600160a01b03168152600190910190602001808311610ede575b509394506060935060009250829150505b835181101561103f578515610fab5760356000858381518110610f2c57fe5b60200260200101516001600160a01b03166001600160a01b0316815260200190815260200160002060000154600014610fa057838181518110610f6b57fe5b6020026020010151838381518110610f7f57fe5b60200260200101906001600160a01b031690816001600160a01b0316815250505b816001019150611037565b60356000858381518110610fbb57fe5b60200260200101516001600160a01b03166001600160a01b03168152602001908152602001600020600001546000141561103057838181518110610ffb57fe5b602002602001015183838151811061100f57fe5b60200260200101906001600160a01b031690816001600160a01b0316815250505b8160010191505b600101610f0d565b50909594505050505056fea165627a7a723058201bfbc74da29bd49a3d36eea61cd09bf1cab86524e8b3cd891968928bbabedf0d0029",
  "source": "// (c) Kallol Borah, 2020\r\n// Sets up account and manages custody\r\n\r\npragma solidity 0.5.7;\r\n\r\nimport \"./interfaces/VerifiedKYC.sol\";\r\nimport \"./interfaces/VerifiedClient.sol\";\r\nimport \"@openzeppelin/upgrades/contracts/Initializable.sol\";\r\n\r\ncontract Client is VerifiedClient, Initializable{\r\n\r\n    struct access{\r\n        uint256 login;\r\n        uint256 logout;  \r\n        address manager;\r\n        bool aml;      \r\n    }\r\n\r\n    struct role{\r\n        address manager;\r\n        bytes32 country;\r\n        bytes32 role;\r\n    }\r\n\r\n    //mapping of a manager to its sub managers\r\n    mapping(address=> role) private roles;\r\n\r\n    //storing submanagers\r\n    address[] submanagers;\r\n\r\n    //mapping of a client to login info\r\n    mapping(address=> access) private info;\r\n\r\n    //mapping of a client to its custody account\r\n    mapping(address => address) private custody;\r\n\r\n    //mapping of a manager to its clients\r\n    mapping(address => address[]) private clients;\r\n\r\n    //kyc contract\r\n    VerifiedKYC private Kyc;\r\n\r\n    //aml manager\r\n    address private amlManager;\r\n\r\n    //owner is someone who can upgrade this contract\r\n    function initialize(address _kyc) public {\r\n        Kyc = VerifiedKYC(_kyc);\r\n        amlManager = msg.sender;\r\n    }\r\n\r\n    //only the user or its manager can set the custody account address\r\n    function setCustody(address _client, address _account) external {\r\n        require(_client==msg.sender || info[_client].manager==msg.sender);\r\n        if(Kyc.getStatus(_client)){\r\n            custody[_client] = _account;\r\n        }\r\n    }\r\n\r\n    //only the user or its manager can get the custody account address\r\n    function getCustody(address _client) external view returns(address){\r\n        require(_client==msg.sender || info[_client].manager==msg.sender);\r\n        if(Kyc.getStatus(_client)){\r\n            return custody[_client];\r\n        }\r\n    }\r\n\r\n    //access info can only be set by user\r\n    function setAccess(bool login) external{\r\n        if(Kyc.getStatus(msg.sender)){\r\n            if(login)\r\n                info[msg.sender].login=now;\r\n            else\r\n                info[msg.sender].logout=now;\r\n        }\r\n    }\r\n\r\n    //access data for a user can only be retrieved by itself or its manager\r\n    function getAccess(address _client) external view returns(uint256, uint256){\r\n        require(_client==msg.sender || info[_client].manager==msg.sender);\r\n        if(Kyc.getStatus(_client)){\r\n            return (info[_client].login, info[_client].logout);\r\n        }\r\n    }\r\n\r\n    //when a user is not registered, the AML manager can set the user's KYC manager\r\n    //when a user is registered or KYC passed, both the AML manager and KYC manager can reset the user's manager\r\n    function setManager(address _client, address _manager) external{\r\n        if(amlManager==msg.sender && _client!=_manager){\r\n            if(!Kyc.getStatus(_client)){\r\n                info[_client].manager = _manager;\r\n                clients[_manager].push(_client);\r\n            }\r\n        }\r\n        else if(info[_client].manager==msg.sender && _client!=_manager){\r\n            if(Kyc.getStatus(_client)){\r\n                info[_client].manager = _manager;\r\n                clients[_manager].push(_client);\r\n            }\r\n        }\r\n    }\r\n\r\n    // manager identity can be retrieved by user or its manager only\r\n    function getManager(address _client) external view returns(address){\r\n        return info[_client].manager;\r\n    }\r\n\r\n    //checks if client is registered or not\r\n    function isRegistered(address _client) external view returns(bool){\r\n        if(info[_client].login!=0)\r\n            return true;\r\n        else\r\n            return false;\r\n    }\r\n\r\n    //sets AML status\r\n    function setAMLStatus(address _client, bool status) external {\r\n        require(msg.sender==info[_client].manager || msg.sender==amlManager);  \r\n        info[_client].aml = status;\r\n    }\r\n\r\n    //gets AML status\r\n    function getAMLStatus(address _client) external view returns(bool){\r\n        require(msg.sender==info[_client].manager || msg.sender==amlManager);  \r\n        return info[_client].aml;\r\n    }\r\n\r\n    //get clients for specified manager with registration status set to true or false\r\n    function getClients(address _manager, bool _status) external returns(address[] memory){\r\n        require(msg.sender==_manager);\r\n        return getClientsForManager(_manager, _status);\r\n    }\r\n\r\n    function getClientsForManager(address _manager, bool _status) private view returns(address[] memory){\r\n        address[] memory _clients = clients[_manager];\r\n        address[] memory resp;\r\n        uint j = 0;\r\n        for(uint i=0; i<_clients.length; i++){\r\n            if(_status){\r\n                if(info[_clients[i]].login!=0)\r\n                    resp[j] = _clients[i];\r\n                    j=j+1;\r\n            }\r\n            else{\r\n                if(info[_clients[i]].login==0)\r\n                    resp[j] = _clients[i];\r\n                    j=j+1;\r\n            }\r\n        }\r\n        return resp;\r\n    }\r\n\r\n    //add role\r\n    function addRole(address _submanager, bytes32 _country, bytes32 _role) external{\r\n        require(_role==\"Custodian\" || _role==\"Issuer\" || _role==\"DP\" || _role==\"KYCAML\");\r\n        require(getClientsForManager(msg.sender, true).length>0);\r\n        submanagers.push(_submanager);\r\n        roles[_submanager].manager = msg.sender;\r\n        roles[_submanager].country = _country;\r\n        roles[_submanager].role = _role;\r\n    }\r\n\r\n    //get roles for manager\r\n    function getRole(bytes32 _country) external view returns(bytes32){\r\n        for(uint i=0; i<submanagers.length; i++){\r\n            if(submanagers[i]==msg.sender && roles[submanagers[i]].country==_country){\r\n                return roles[submanagers[i]].role;\r\n            }\r\n        }\r\n        return \"\";\r\n    }\r\n\r\n    //remove role\r\n    function removeRole(address _submanager, bytes32 _country, bytes32 _role) external{\r\n        require(_role==\"Custodian\" || _role==\"Issuer\" || _role==\"DP\" || _role==\"KYCAML\");\r\n        for(uint i=0; i<submanagers.length; i++){\r\n            if( submanagers[i]==_submanager &&\r\n                roles[submanagers[i]].role==_role && \r\n                roles[submanagers[i]].country==_country &&\r\n                roles[submanagers[i]].manager==msg.sender){\r\n                delete(roles[submanagers[i]]);\r\n            }\r\n        }\r\n    }   \r\n\r\n}",
  "sourcePath": "D:/Code/verified-accounts/contracts/Client.sol",
  "compiler": {
    "name": "solc",
    "version": "0.5.7+commit.6da8b019.Emscripten.clang"
  },
  "schemaVersion": "3.3.3",
  "updatedAt": "2021-05-28T03:28:26.149Z",
  "networkType": "ethereum",
  "devdoc": {
    "methods": {}
  },
  "userdoc": {
    "methods": {}
  }
}