{
  "contractName": "Client",
  "abi": [
    {
      "constant": false,
      "inputs": [
        {
          "name": "_kyc",
          "type": "address"
        }
      ],
      "name": "initialize",
      "outputs": [],
      "payable": false,
      "stateMutability": "nonpayable",
      "type": "function"
    },
    {
      "constant": false,
      "inputs": [
        {
          "name": "_client",
          "type": "address"
        },
        {
          "name": "_account",
          "type": "address"
        }
      ],
      "name": "setCustody",
      "outputs": [],
      "payable": false,
      "stateMutability": "nonpayable",
      "type": "function"
    },
    {
      "constant": true,
      "inputs": [
        {
          "name": "_client",
          "type": "address"
        }
      ],
      "name": "getCustody",
      "outputs": [
        {
          "name": "",
          "type": "address"
        }
      ],
      "payable": false,
      "stateMutability": "view",
      "type": "function"
    },
    {
      "constant": false,
      "inputs": [
        {
          "name": "login",
          "type": "bool"
        }
      ],
      "name": "setAccess",
      "outputs": [],
      "payable": false,
      "stateMutability": "nonpayable",
      "type": "function"
    },
    {
      "constant": true,
      "inputs": [
        {
          "name": "_client",
          "type": "address"
        }
      ],
      "name": "getAccess",
      "outputs": [
        {
          "name": "",
          "type": "uint256"
        },
        {
          "name": "",
          "type": "uint256"
        }
      ],
      "payable": false,
      "stateMutability": "view",
      "type": "function"
    },
    {
      "constant": false,
      "inputs": [
        {
          "name": "_client",
          "type": "address"
        },
        {
          "name": "_manager",
          "type": "address"
        }
      ],
      "name": "setManager",
      "outputs": [],
      "payable": false,
      "stateMutability": "nonpayable",
      "type": "function"
    },
    {
      "constant": true,
      "inputs": [
        {
          "name": "_client",
          "type": "address"
        }
      ],
      "name": "getManager",
      "outputs": [
        {
          "name": "",
          "type": "address"
        }
      ],
      "payable": false,
      "stateMutability": "view",
      "type": "function"
    },
    {
      "constant": true,
      "inputs": [
        {
          "name": "_client",
          "type": "address"
        }
      ],
      "name": "isRegistered",
      "outputs": [
        {
          "name": "",
          "type": "bool"
        }
      ],
      "payable": false,
      "stateMutability": "view",
      "type": "function"
    },
    {
      "constant": false,
      "inputs": [
        {
          "name": "_client",
          "type": "address"
        },
        {
          "name": "status",
          "type": "bool"
        }
      ],
      "name": "setAMLStatus",
      "outputs": [],
      "payable": false,
      "stateMutability": "nonpayable",
      "type": "function"
    },
    {
      "constant": true,
      "inputs": [
        {
          "name": "_client",
          "type": "address"
        }
      ],
      "name": "getAMLStatus",
      "outputs": [
        {
          "name": "",
          "type": "bool"
        }
      ],
      "payable": false,
      "stateMutability": "view",
      "type": "function"
    },
    {
      "constant": true,
      "inputs": [
        {
          "name": "_manager",
          "type": "address"
        },
        {
          "name": "_status",
          "type": "bool"
        }
      ],
      "name": "getClients",
      "outputs": [
        {
          "name": "",
          "type": "address[]"
        }
      ],
      "payable": false,
      "stateMutability": "view",
      "type": "function"
    },
    {
      "constant": false,
      "inputs": [
        {
          "name": "_submanager",
          "type": "address"
        },
        {
          "name": "_country",
          "type": "bytes32"
        },
        {
          "name": "_role",
          "type": "bytes32"
        }
      ],
      "name": "addRole",
      "outputs": [],
      "payable": false,
      "stateMutability": "nonpayable",
      "type": "function"
    },
    {
      "constant": true,
      "inputs": [
        {
          "name": "_submanager",
          "type": "address"
        },
        {
          "name": "_country",
          "type": "bytes32"
        }
      ],
      "name": "getRole",
      "outputs": [
        {
          "name": "",
          "type": "bytes32"
        }
      ],
      "payable": false,
      "stateMutability": "view",
      "type": "function"
    },
    {
      "constant": false,
      "inputs": [
        {
          "name": "_submanager",
          "type": "address"
        },
        {
          "name": "_country",
          "type": "bytes32"
        },
        {
          "name": "_role",
          "type": "bytes32"
        }
      ],
      "name": "removeRole",
      "outputs": [],
      "payable": false,
      "stateMutability": "nonpayable",
      "type": "function"
    },
    {
      "constant": true,
      "inputs": [
        {
          "name": "_role",
          "type": "bytes32"
        },
        {
          "name": "_country",
          "type": "bytes32"
        }
      ],
      "name": "getManagers",
      "outputs": [
        {
          "name": "",
          "type": "address[]"
        }
      ],
      "payable": false,
      "stateMutability": "view",
      "type": "function"
    }
  ],
  "bytecode": "0x608060405234801561001057600080fd5b5061153b806100206000396000f3fe608060405234801561001057600080fd5b50600436106100f55760003560e01c80633d584063116100975780638b34710d116100665780638b34710d14610369578063c3c5a54714610397578063c4d66de8146103bd578063e658f229146103e3576100f5565b80633d584063146102c857806359ce7d4c146102ee5780635df8122f1461030d578063685b8fd31461033b576100f5565b8063394357d2116100d3578063394357d2146101aa5780633a291033146101dc5780633c33c9ce146102165780633c6ff32b14610255576100f5565b806319d7152c146100fa578063203bac611461013c578063207df1891461017a575b600080fd5b6101206004803603602081101561011057600080fd5b50356001600160a01b0316610415565b604080516001600160a01b039092168252519081900360200190f35b6101686004803603604081101561015257600080fd5b506001600160a01b0381351690602001356104f9565b60408051918252519081900360200190f35b6101a86004803603604081101561019057600080fd5b506001600160a01b03813581169160200135166105d2565b005b6101a8600480360360608110156101c057600080fd5b506001600160a01b0381351690602081013590604001356106c5565b610202600480360360208110156101f257600080fd5b50356001600160a01b03166107a7565b604080519115158252519081900360200190f35b61023c6004803603602081101561022c57600080fd5b50356001600160a01b0316610810565b6040805192835260208301919091528051918290030190f35b6102786004803603604081101561026b57600080fd5b50803590602001356108fb565b60408051602080825283518183015283519192839290830191858101910280838360005b838110156102b457818101518382015260200161029c565b505050509050019250505060405180910390f35b610120600480360360208110156102de57600080fd5b50356001600160a01b0316610a88565b6101a86004803603602081101561030457600080fd5b50351515610aa9565b6101a86004803603604081101561032357600080fd5b506001600160a01b0381358116916020013516610b62565b6101a86004803603604081101561035157600080fd5b506001600160a01b0381351690602001351515610fce565b6102786004803603604081101561037f57600080fd5b506001600160a01b0381351690602001351515611055565b610202600480360360208110156103ad57600080fd5b50356001600160a01b031661107d565b6101a8600480360360208110156103d357600080fd5b50356001600160a01b03166110ab565b6101a8600480360360608110156103f957600080fd5b506001600160a01b0381351690602081013590604001356110d6565b60006001600160a01b03821633148061044a57506001600160a01b038281166000908152603560205260409020600201541633145b61045357600080fd5b60385460408051600160e01b6330ccebb50281526001600160a01b038581166004830152915191909216916330ccebb5916024808301926020929190829003018186803b1580156104a357600080fd5b505afa1580156104b7573d6000803e3d6000fd5b505050506040513d60208110156104cd57600080fd5b5051600314156104f457506001600160a01b03808216600090815260366020526040902054165b919050565b6000805b6034548110156105c657836001600160a01b03166034828154811061051e57fe5b6000918252602090912001546001600160a01b0316148015610577575082603360006034848154811061054d57fe5b60009182526020808320909101546001600160a01b03168352820192909252604001902060010154145b156105be57603360006034838154811061058d57fe5b60009182526020808320909101546001600160a01b0316835282019290925260400190206002015491506105cc9050565b6001016104fd565b50600090505b92915050565b6001600160a01b03821633148061060557506001600160a01b038281166000908152603560205260409020600201541633145b61060e57600080fd5b60385460408051600160e01b6330ccebb50281526001600160a01b038581166004830152915191909216916330ccebb5916024808301926020929190829003018186803b15801561065e57600080fd5b505afa158015610672573d6000803e3d6000fd5b505050506040513d602081101561068857600080fd5b5051600314156106c1576001600160a01b03828116600090815260366020526040902080546001600160a01b0319169183169190911790555b5050565b80600160b91b6821bab9ba37b234b0b70214806106ed575080600160d11b6524b9b9bab2b902145b806106ff575080600160f41b61044502145b80610715575080600160d21b6512d650d0535302145b61071e57600080fd5b600061072b3360016112a0565b511161073657600080fd5b6034805460018181019092557f46bddb1178e94d7f2892ff5f366840eb658911794f2c3a44c450aa2c505186c10180546001600160a01b039095166001600160a01b031995861681179091556000908152603360205260409020805490941633178455830191909155600290910155565b6001600160a01b038181166000908152603560205260408120600201549091163314806107de57506039546001600160a01b031633145b6107e757600080fd5b506001600160a01b0316600090815260356020526040902060020154600160a01b900460ff1690565b6000806001600160a01b03831633148061084657506001600160a01b038381166000908152603560205260409020600201541633145b61084f57600080fd5b60385460408051600160e01b6330ccebb50281526001600160a01b038681166004830152915191909216916330ccebb5916024808301926020929190829003018186803b15801561089f57600080fd5b505afa1580156108b3573d6000803e3d6000fd5b505050506040513d60208110156108c957600080fd5b5051600314156108f65750506001600160a01b038116600090815260356020526040902080546001909101545b915091565b606082600160b91b6821bab9ba37b234b0b7021480610925575082600160d11b6524b9b9bab2b902145b80610937575082600160f41b61044502145b8061094d575082600160d21b6512d650d0535302145b61095657600080fd5b6034546040805182815260208084028201019091526060918015610984578160200160208202803883390190505b5090506000805b603454811015610a7e578560336000603484815481106109a757fe5b60009182526020808320909101546001600160a01b03168352820192909252604001902060020154148015610a1357508460336000603484815481106109e957fe5b60009182526020808320909101546001600160a01b03168352820192909252604001902060010154145b15610a765760348181548110610a2557fe5b9060005260206000200160009054906101000a90046001600160a01b0316838381518110610a4f57fe5b60200260200101906001600160a01b031690816001600160a01b0316815250508160010191505b60010161098b565b5090949350505050565b6001600160a01b039081166000908152603560205260409020600201541690565b60385460408051600160e01b6330ccebb502815233600482015290516001600160a01b03909216916330ccebb591602480820192602092909190829003018186803b158015610af757600080fd5b505afa158015610b0b573d6000803e3d6000fd5b505050506040513d6020811015610b2157600080fd5b505160031415610b5f578015610b4857336000908152603560205260409020429055610b5f565b336000908152603560205260409020426001909101555b50565b60385460408051600160e01b6330ccebb50281526001600160a01b038581166004830152915160009392909216916330ccebb591602480820192602092909190829003018186803b158015610bb657600080fd5b505afa158015610bca573d6000803e3d6000fd5b505050506040513d6020811015610be057600080fd5b505160031415610e88576039546001600160a01b031633148015610c165750816001600160a01b0316836001600160a01b031614155b15610d30576001600160a01b03838116600090815260356020526040902060020154811690831614610d2b576001600160a01b03838116600090815260356020526040812060020180546001600160a01b031916928516929092179091555b6001600160a01b038316600090815260376020526040902054811015610ce6576001600160a01b03838116600090815260376020526040902080549186169183908110610cbe57fe5b6000918252602090912001546001600160a01b03161415610cde57600191505b600101610c75565b5080610d2b576001600160a01b0382811660009081526037602090815260408220805460018101825590835291200180546001600160a01b0319169185169190911790555b610e83565b6001600160a01b038381166000908152603560205260409020600201541633148015610d6e5750816001600160a01b0316836001600160a01b031614155b15610e83576001600160a01b03838116600090815260356020526040902060020154811690831614610e83576001600160a01b03838116600090815260356020526040812060020180546001600160a01b031916928516929092179091555b6001600160a01b038316600090815260376020526040902054811015610e3e576001600160a01b03838116600090815260376020526040902080549186169183908110610e1657fe5b6000918252602090912001546001600160a01b03161415610e3657600191505b600101610dcd565b5080610e83576001600160a01b0382811660009081526037602090815260408220805460018101825590835291200180546001600160a01b0319169185169190911790555b610fc9565b6039546001600160a01b031633148015610eb45750816001600160a01b0316836001600160a01b031614155b15610fc9576001600160a01b03838116600090815260356020526040902060020154811690831614610fc9576001600160a01b03838116600090815260356020526040812060020180546001600160a01b031916928516929092179091555b6001600160a01b038316600090815260376020526040902054811015610f84576001600160a01b03838116600090815260376020526040902080549186169183908110610f5c57fe5b6000918252602090912001546001600160a01b03161415610f7c57600191505b600101610f13565b5080610fc9576001600160a01b0382811660009081526037602090815260408220805460018101825590835291200180546001600160a01b0319169185169190911790555b505050565b6001600160a01b038281166000908152603560205260409020600201541633148061100357506039546001600160a01b031633145b61100c57600080fd5b6001600160a01b0390911660009081526035602052604090206002018054911515600160a01b0274ff000000000000000000000000000000000000000019909216919091179055565b6060336001600160a01b0384161461106c57600080fd5b61107683836112a0565b9392505050565b6001600160a01b038116600090815260356020526040812054156110a3575060016104f4565b5060006104f4565b603880546001600160a01b039092166001600160a01b03199283161790556039805490911633179055565b80600160b91b6821bab9ba37b234b0b70214806110fe575080600160d11b6524b9b9bab2b902145b80611110575080600160f41b61044502145b80611126575080600160d21b6512d650d0535302145b61112f57600080fd5b60005b60345481101561129a57836001600160a01b03166034828154811061115357fe5b6000918252602090912001546001600160a01b03161480156111ac575081603360006034848154811061118257fe5b60009182526020808320909101546001600160a01b03168352820192909252604001902060020154145b80156111ef57508260336000603484815481106111c557fe5b60009182526020808320909101546001600160a01b03168352820192909252604001902060010154145b801561123e5750336001600160a01b0316603360006034848154811061121157fe5b60009182526020808320909101546001600160a01b03908116845290830193909352604090910190205416145b1561129257603360006034838154811061125457fe5b60009182526020808320909101546001600160a01b03168352820192909252604001812080546001600160a01b031916815560018101829055600201555b600101611132565b50505050565b60608060376000856001600160a01b03166001600160a01b0316815260200190815260200160002080548060200260200160405190810160405280929190818152602001828054801561131c57602002820191906000526020600020905b81546001600160a01b031681526001909101906020018083116112fe575b5050505050905060608151604051908082528060200260200182016040528015611350578160200160208202803883390190505b5090506000805b83518110156114885785156113f5576035600085838151811061137657fe5b60200260200101516001600160a01b03166001600160a01b03168152602001908152602001600020600001546000146113f0578381815181106113b557fe5b60200260200101518383815181106113c957fe5b60200260200101906001600160a01b031690816001600160a01b0316815250508160010191505b611480565b6035600085838151811061140557fe5b60200260200101516001600160a01b03166001600160a01b0316815260200190815260200160002060000154600014156114805783818151811061144557fe5b602002602001015183838151811061145957fe5b60200260200101906001600160a01b031690816001600160a01b0316815250508160010191505b600101611357565b506060816040519080825280602002602001820160405280156114b5578160200160208202803883390190505b50905060005b82811015611503578381815181106114cf57fe5b60200260200101518282815181106114e357fe5b6001600160a01b03909216602092830291909101909101526001016114bb565b5092969550505050505056fea165627a7a7230582075cb32a182c40a0096e426d27522683f1e3bb5c423bd404db6393135bcb99bcc0029",
  "source": "// (c) Kallol Borah, 2020\r\n// Sets up account and manages custody\r\n\r\npragma solidity 0.5.7;\r\n\r\nimport \"./interfaces/VerifiedKYC.sol\";\r\nimport \"./interfaces/VerifiedClient.sol\";\r\nimport \"@openzeppelin/upgrades/contracts/Initializable.sol\";\r\n\r\ncontract Client is VerifiedClient, Initializable{\r\n\r\n    struct access{\r\n        uint256 login;\r\n        uint256 logout;  \r\n        address manager;\r\n        bool aml;      \r\n    }\r\n\r\n    struct role{\r\n        address manager;\r\n        bytes32 country;\r\n        bytes32 role;\r\n    }\r\n\r\n    //mapping of a manager to its sub managers\r\n    mapping(address=> role) private roles;\r\n\r\n    //storing submanagers\r\n    address[] submanagers;\r\n\r\n    //mapping of a client to login info\r\n    mapping(address=> access) private info;\r\n\r\n    //mapping of a client to its custody account\r\n    mapping(address => address) private custody;\r\n\r\n    //mapping of a manager to its clients\r\n    mapping(address => address[]) private clients;\r\n\r\n    //kyc contract\r\n    VerifiedKYC private Kyc;\r\n\r\n    //aml manager\r\n    address private amlManager;\r\n\r\n    //owner is someone who can upgrade this contract\r\n    function initialize(address _kyc) public {\r\n        Kyc = VerifiedKYC(_kyc);\r\n        amlManager = msg.sender;\r\n    }\r\n\r\n    //only the user or its manager can set the custody account address\r\n    function setCustody(address _client, address _account) external {\r\n        require(_client==msg.sender || info[_client].manager==msg.sender);\r\n        if(Kyc.getStatus(_client)==3){\r\n            custody[_client] = _account;\r\n        }\r\n    }\r\n\r\n    //only the user or its manager can get the custody account address\r\n    function getCustody(address _client) external view returns(address){\r\n        require(_client==msg.sender || info[_client].manager==msg.sender);\r\n        if(Kyc.getStatus(_client)==3){\r\n            return custody[_client];\r\n        }\r\n    }\r\n\r\n    //access info can only be set by user\r\n    function setAccess(bool login) external{\r\n        if(Kyc.getStatus(msg.sender)==3){\r\n            if(login)\r\n                info[msg.sender].login=now;\r\n            else\r\n                info[msg.sender].logout=now;\r\n        }\r\n    }\r\n\r\n    //access data for a user can only be retrieved by itself or its manager\r\n    function getAccess(address _client) external view returns(uint256, uint256){\r\n        require(_client==msg.sender || info[_client].manager==msg.sender);\r\n        if(Kyc.getStatus(_client)==3){\r\n            return (info[_client].login, info[_client].logout);\r\n        }\r\n    }\r\n\r\n    //when a user is not registered, the AML manager can set the user's KYC manager\r\n    //when a user is registered or KYC passed, both the AML manager and KYC manager can reset the user's manager\r\n    function setManager(address _client, address _manager) external{\r\n        bool found = false;\r\n        if(Kyc.getStatus(_client)==3){\r\n            if(amlManager==msg.sender && _client!=_manager){\r\n                if(info[_client].manager!=_manager){\r\n                    info[_client].manager = _manager;\r\n                    for(uint i=0; i<clients[_manager].length; i++){\r\n                        if(clients[_manager][i]==_client)\r\n                            found = true;\r\n                    }\r\n                    if(!found)\r\n                        clients[_manager].push(_client);\r\n                }\r\n            }\r\n            else if(info[_client].manager==msg.sender && _client!=_manager){\r\n                if(info[_client].manager!=_manager){\r\n                    info[_client].manager = _manager;\r\n                    for(uint i=0; i<clients[_manager].length; i++){\r\n                        if(clients[_manager][i]==_client)\r\n                            found = true;\r\n                    }\r\n                    if(!found)\r\n                        clients[_manager].push(_client);\r\n                }\r\n            }\r\n        }\r\n        else{\r\n            if(amlManager==msg.sender && _client!=_manager){\r\n                if(info[_client].manager!=_manager){\r\n                    info[_client].manager = _manager;\r\n                    for(uint i=0; i<clients[_manager].length; i++){\r\n                        if(clients[_manager][i]==_client)\r\n                            found = true;\r\n                    }\r\n                    if(!found)\r\n                        clients[_manager].push(_client);\r\n                }\r\n            }\r\n        }\r\n    }\r\n\r\n    // manager identity can be retrieved by user or its manager only\r\n    function getManager(address _client) external view returns(address){\r\n        return info[_client].manager;\r\n    }\r\n\r\n    //checks if client is registered or not\r\n    function isRegistered(address _client) external view returns(bool){\r\n        if(info[_client].login!=0)\r\n            return true;\r\n        else\r\n            return false;\r\n    }\r\n\r\n    //sets AML status\r\n    function setAMLStatus(address _client, bool status) external {\r\n        require(msg.sender==info[_client].manager || msg.sender==amlManager);  \r\n        info[_client].aml = status;\r\n    }\r\n\r\n    //gets AML status\r\n    function getAMLStatus(address _client) external view returns(bool){\r\n        require(msg.sender==info[_client].manager || msg.sender==amlManager);  \r\n        return info[_client].aml;\r\n    }\r\n\r\n    //get clients for specified manager with registration status set to true or false\r\n    function getClients(address _manager, bool _status) external view returns(address[] memory){\r\n        require(msg.sender==_manager);\r\n        return getClientsForManager(_manager, _status);\r\n    }\r\n\r\n    function getClientsForManager(address _manager, bool _status) private view returns(address[] memory){\r\n        address[] memory _clients = clients[_manager];\r\n        address[] memory resp = new address[](_clients.length);\r\n        uint j = 0;\r\n        for(uint i=0; i<_clients.length; i++){\r\n            if(_status){\r\n                if(info[_clients[i]].login!=0){\r\n                    resp[j] = _clients[i];\r\n                    j=j+1;\r\n                }\r\n            }\r\n            else{\r\n                if(info[_clients[i]].login==0){\r\n                    resp[j] = _clients[i];\r\n                    j=j+1;\r\n                }\r\n            }\r\n        }\r\n        address[] memory result = new address[](j);\r\n        for(uint i=0; i<j; i++){\r\n            result[i]=resp[i];\r\n        }\r\n        return _clients;\r\n    }\r\n\r\n    //add role\r\n    function addRole(address _submanager, bytes32 _country, bytes32 _role) external{\r\n        require(_role==\"Custodian\" || _role==\"Issuer\" || _role==\"DP\" || _role==\"KYCAML\");\r\n        require(getClientsForManager(msg.sender, true).length>0);\r\n        submanagers.push(_submanager);\r\n        roles[_submanager].manager = msg.sender;\r\n        roles[_submanager].country = _country;\r\n        roles[_submanager].role = _role;\r\n    }\r\n\r\n    //get roles for manager\r\n    function getRole(address _submanager, bytes32 _country) external view returns(bytes32){\r\n        for(uint i=0; i<submanagers.length; i++){\r\n            if(submanagers[i]==_submanager && roles[submanagers[i]].country==_country){\r\n                return roles[submanagers[i]].role;\r\n            }\r\n        }\r\n        return \"\";\r\n    }\r\n\r\n    //remove role\r\n    function removeRole(address _submanager, bytes32 _country, bytes32 _role) external{\r\n        require(_role==\"Custodian\" || _role==\"Issuer\" || _role==\"DP\" || _role==\"KYCAML\");\r\n        for(uint i=0; i<submanagers.length; i++){\r\n            if( submanagers[i]==_submanager &&\r\n                roles[submanagers[i]].role==_role && \r\n                roles[submanagers[i]].country==_country &&\r\n                roles[submanagers[i]].manager==msg.sender){\r\n                delete(roles[submanagers[i]]);\r\n            }\r\n        }\r\n    }\r\n\r\n    function getManagers(bytes32 _role, bytes32 _country) external view returns(address[] memory){\r\n        require(_role==\"Custodian\" || _role==\"Issuer\" || _role==\"DP\" || _role==\"KYCAML\");\r\n        address[] memory resp = new address[](submanagers.length);\r\n        uint j = 0;\r\n        for(uint i=0; i<submanagers.length; i++){\r\n            if(roles[submanagers[i]].role==_role && roles[submanagers[i]].country==_country){\r\n                resp[j] = submanagers[i];\r\n                j = j+1;\r\n            }\r\n        }\r\n        return resp;\r\n    }   \r\n\r\n}",
  "sourcePath": "D:\\Code\\verified-accounts\\contracts\\Client.sol",
  "compiler": {
    "name": "solc",
    "version": "0.5.7+commit.6da8b019.Emscripten.clang"
  },
  "schemaVersion": "3.4.3",
  "updatedAt": "2021-09-14T15:53:30.184Z",
  "networkType": "ethereum",
  "devdoc": {
    "methods": {}
  },
  "userdoc": {
    "methods": {}
  }
}