{
  "contractName": "Client",
  "abi": [
    {
      "anonymous": false,
      "inputs": [
        {
          "indexed": true,
          "name": "manager",
          "type": "address"
        },
        {
          "indexed": false,
          "name": "role",
          "type": "bytes32"
        },
        {
          "indexed": false,
          "name": "country",
          "type": "bytes32"
        },
        {
          "indexed": false,
          "name": "managerId",
          "type": "bytes32"
        }
      ],
      "name": "ManagerAdded",
      "type": "event"
    },
    {
      "constant": false,
      "inputs": [
        {
          "name": "_kyc",
          "type": "address"
        }
      ],
      "name": "initialize",
      "outputs": [],
      "payable": false,
      "stateMutability": "nonpayable",
      "type": "function"
    },
    {
      "constant": true,
      "inputs": [],
      "name": "getAMLManager",
      "outputs": [
        {
          "name": "",
          "type": "address"
        }
      ],
      "payable": false,
      "stateMutability": "view",
      "type": "function"
    },
    {
      "constant": false,
      "inputs": [
        {
          "name": "_client",
          "type": "address"
        },
        {
          "name": "_account",
          "type": "bytes32"
        }
      ],
      "name": "setCustody",
      "outputs": [],
      "payable": false,
      "stateMutability": "nonpayable",
      "type": "function"
    },
    {
      "constant": true,
      "inputs": [
        {
          "name": "_client",
          "type": "address"
        }
      ],
      "name": "getCustody",
      "outputs": [
        {
          "name": "",
          "type": "bytes32"
        }
      ],
      "payable": false,
      "stateMutability": "view",
      "type": "function"
    },
    {
      "constant": false,
      "inputs": [
        {
          "name": "_messagingToken",
          "type": "string"
        }
      ],
      "name": "setAccess",
      "outputs": [],
      "payable": false,
      "stateMutability": "nonpayable",
      "type": "function"
    },
    {
      "constant": true,
      "inputs": [
        {
          "name": "_client",
          "type": "address"
        }
      ],
      "name": "getAccess",
      "outputs": [
        {
          "name": "",
          "type": "string"
        }
      ],
      "payable": false,
      "stateMutability": "view",
      "type": "function"
    },
    {
      "constant": false,
      "inputs": [
        {
          "name": "_client",
          "type": "address"
        },
        {
          "name": "_manager",
          "type": "address"
        }
      ],
      "name": "setManager",
      "outputs": [],
      "payable": false,
      "stateMutability": "nonpayable",
      "type": "function"
    },
    {
      "constant": true,
      "inputs": [
        {
          "name": "_client",
          "type": "address"
        }
      ],
      "name": "getManager",
      "outputs": [
        {
          "name": "",
          "type": "address"
        }
      ],
      "payable": false,
      "stateMutability": "view",
      "type": "function"
    },
    {
      "constant": true,
      "inputs": [
        {
          "name": "_client",
          "type": "address"
        }
      ],
      "name": "isRegistered",
      "outputs": [
        {
          "name": "",
          "type": "bool"
        }
      ],
      "payable": false,
      "stateMutability": "view",
      "type": "function"
    },
    {
      "constant": false,
      "inputs": [
        {
          "name": "_client",
          "type": "address"
        },
        {
          "name": "status",
          "type": "bool"
        }
      ],
      "name": "setAMLStatus",
      "outputs": [],
      "payable": false,
      "stateMutability": "nonpayable",
      "type": "function"
    },
    {
      "constant": true,
      "inputs": [
        {
          "name": "_client",
          "type": "address"
        }
      ],
      "name": "getAMLStatus",
      "outputs": [
        {
          "name": "",
          "type": "bool"
        }
      ],
      "payable": false,
      "stateMutability": "view",
      "type": "function"
    },
    {
      "constant": true,
      "inputs": [
        {
          "name": "_manager",
          "type": "address"
        }
      ],
      "name": "getClients",
      "outputs": [
        {
          "name": "",
          "type": "address[]"
        }
      ],
      "payable": false,
      "stateMutability": "view",
      "type": "function"
    },
    {
      "constant": false,
      "inputs": [
        {
          "name": "_submanager",
          "type": "address"
        },
        {
          "name": "_country",
          "type": "bytes32"
        },
        {
          "name": "_role",
          "type": "bytes32"
        },
        {
          "name": "_id",
          "type": "bytes32"
        }
      ],
      "name": "addRole",
      "outputs": [],
      "payable": false,
      "stateMutability": "nonpayable",
      "type": "function"
    },
    {
      "constant": true,
      "inputs": [
        {
          "name": "_user",
          "type": "address"
        }
      ],
      "name": "getRole",
      "outputs": [
        {
          "name": "",
          "type": "bytes32"
        },
        {
          "name": "",
          "type": "bytes32"
        }
      ],
      "payable": false,
      "stateMutability": "view",
      "type": "function"
    },
    {
      "constant": false,
      "inputs": [
        {
          "name": "_submanager",
          "type": "address"
        },
        {
          "name": "_country",
          "type": "bytes32"
        },
        {
          "name": "_role",
          "type": "bytes32"
        }
      ],
      "name": "removeRole",
      "outputs": [],
      "payable": false,
      "stateMutability": "nonpayable",
      "type": "function"
    },
    {
      "constant": true,
      "inputs": [
        {
          "name": "_role",
          "type": "bytes32"
        },
        {
          "name": "_country",
          "type": "bytes32"
        }
      ],
      "name": "getManagers",
      "outputs": [
        {
          "name": "",
          "type": "address[]"
        }
      ],
      "payable": false,
      "stateMutability": "view",
      "type": "function"
    }
  ],
  "bytecode": "0x608060405234801561001057600080fd5b50611606806100206000396000f3fe608060405234801561001057600080fd5b50600436106101005760003560e01c80634a1f16e011610097578063c3c5a54711610066578063c3c5a5471461045e578063c4d66de814610484578063dbc4789a146104aa578063e658f229146104b257610100565b80634a1f16e0146103b05780635df8122f146103dc578063685b8fd31461040a578063944a10af1461043857610100565b80633c6ff32b116100d35780633c6ff32b1461024c5780633d584063146102bf5780634427673314610301578063488f56aa1461034057610100565b806319d7152c146101055780632688c5561461013d5780633a291033146101775780633c33c9ce146101b1575b600080fd5b61012b6004803603602081101561011b57600080fd5b50356001600160a01b03166104e4565b60408051918252519081900360200190f35b6101756004803603608081101561015357600080fd5b506001600160a01b0381351690602081013590604081013590606001356105db565b005b61019d6004803603602081101561018d57600080fd5b50356001600160a01b0316610716565b604080519115158252519081900360200190f35b6101d7600480360360208110156101c757600080fd5b50356001600160a01b031661077f565b6040805160208082528351818301528351919283929083019185019080838360005b838110156102115781810151838201526020016101f9565b50505050905090810190601f16801561023e5780820380516001836020036101000a031916815260200191505b509250505060405180910390f35b61026f6004803603604081101561026257600080fd5b5080359060200135610866565b60408051602080825283518183015283519192839290830191858101910280838360005b838110156102ab578181015183820152602001610293565b505050509050019250505060405180910390f35b6102e5600480360360208110156102d557600080fd5b50356001600160a01b03166109f3565b604080516001600160a01b039092168252519081900360200190f35b6103276004803603602081101561031757600080fd5b50356001600160a01b0316610a14565b6040805192835260208301919091528051918290030190f35b6101756004803603602081101561035657600080fd5b81019060208101813564010000000081111561037157600080fd5b82018360208201111561038357600080fd5b803590602001918460018302840111640100000000831117156103a557600080fd5b509092509050610b45565b610175600480360360408110156103c657600080fd5b506001600160a01b038135169060200135610b64565b610175600480360360408110156103f257600080fd5b506001600160a01b0381358116916020013516610c59565b6101756004803603604081101561042057600080fd5b506001600160a01b03813516906020013515156111c6565b61026f6004803603602081101561044e57600080fd5b50356001600160a01b031661124d565b61019d6004803603602081101561047457600080fd5b50356001600160a01b0316611273565b6101756004803603602081101561049a57600080fd5b50356001600160a01b03166112a8565b6102e56112d3565b610175600480360360608110156104c857600080fd5b506001600160a01b0381351690602081013590604001356112e3565b60006001600160a01b03821633148061051957506001600160a01b038281166000908152603660205260409020600101541633145b8061052e5750603b546001600160a01b031633145b61053757600080fd5b603a5460408051600160e01b6330ccebb50281526001600160a01b038581166004830152915191909216916330ccebb5916024808301926020929190829003018186803b15801561058757600080fd5b505afa15801561059b573d6000803e3d6000fd5b505050506040513d60208110156105b157600080fd5b5051600314156105d657506001600160a01b0381166000908152603760205260409020545b919050565b81600160b91b6821bab9ba37b234b0b7021480610603575081600160d11b6524b9b9bab2b902145b80610615575081600160f41b61044502145b8061062b575081600160d21b6512d650d0535302145b61063457600080fd5b600061063f336114cd565b511161064a57600080fd5b60348054600181810183557f46bddb1178e94d7f2892ff5f366840eb658911794f2c3a44c450aa2c505186c190910180546001600160a01b0388166001600160a01b0319918216811790925592546000828152603560209081526040808320939093556033815290829020805490951633178555928401879055600284018690556003909301849055825185815291820186905281830184905291517f21df21f421710cf42f722721e3cdfc1212c46f8865c7a1bd09838993b80e34989181900360600190a250505050565b6001600160a01b0381811660009081526036602052604081206001015490911633148061074d5750603b546001600160a01b031633145b61075657600080fd5b506001600160a01b0316600090815260366020526040902060010154600160a01b900460ff1690565b60606001600160a01b0382163314806107b457506001600160a01b038281166000908152603660205260409020600101541633145b6107bd57600080fd5b6001600160a01b03821660009081526036602090815260409182902080548351601f60026000196101006001861615020190931692909204918201849004840281018401909452808452909183018282801561085a5780601f1061082f5761010080835404028352916020019161085a565b820191906000526020600020905b81548152906001019060200180831161083d57829003601f168201915b50505050509050919050565b606082600160b91b6821bab9ba37b234b0b7021480610890575082600160d11b6524b9b9bab2b902145b806108a2575082600160f41b61044502145b806108b8575082600160d21b6512d650d0535302145b6108c157600080fd5b60345460408051828152602080840282010190915260609180156108ef578160200160208202803883390190505b5090506000805b6034548110156109e95785603360006034848154811061091257fe5b60009182526020808320909101546001600160a01b0316835282019290925260400190206002015414801561097e575084603360006034848154811061095457fe5b60009182526020808320909101546001600160a01b03168352820192909252604001902060010154145b156109e1576034818154811061099057fe5b9060005260206000200160009054906101000a90046001600160a01b03168383815181106109ba57fe5b60200260200101906001600160a01b031690816001600160a01b0316815250508160010191505b6001016108f6565b5090949350505050565b6001600160a01b039081166000908152603660205260409020600101541690565b6001600160a01b03811660009081526035602052604081205481908015610b0857836001600160a01b031660346001830381548110610a4f57fe5b6000918252602090912001546001600160a01b03161415610b08576033600060346001840381548110610a7e57fe5b9060005260206000200160009054906101000a90046001600160a01b03166001600160a01b03166001600160a01b03168152602001908152602001600020600201546033600060346001850381548110610ad457fe5b60009182526020808320909101546001600160a01b031683528201929092526040019020600301549093509150610b409050565b603b546001600160a01b0385811691161415610b3757600160d21b6512d650d053530260009250925050610b40565b60008092509250505b915091565b336000908152603660205260409020610b5f908383611542565b505050565b6001600160a01b038216331480610b9757506001600160a01b038281166000908152603660205260409020600101541633145b80610bac5750603b546001600160a01b031633145b610bb557600080fd5b603a5460408051600160e01b6330ccebb50281526001600160a01b038581166004830152915191909216916330ccebb5916024808301926020929190829003018186803b158015610c0557600080fd5b505afa158015610c19573d6000803e3d6000fd5b505050506040513d6020811015610c2f57600080fd5b505160031415610c55576001600160a01b03821660009081526037602052604090208190555b5050565b603b546000906001600160a01b031633148015610c885750816001600160a01b0316836001600160a01b031614155b15610f08576001600160a01b03838116600090815260366020526040902060010154811690831614610f03576001600160a01b038381166000908152603660205260409020600101541615610e5b576001600160a01b03808416600090815260366020526040812060010154909116905b6001600160a01b038216600090815260386020526040902054811015610e58576001600160a01b03828116600090815260386020526040902080549187169183908110610d4257fe5b6000918252602090912001546001600160a01b03161415610e50576001600160a01b03821660009081526038602052604090205460001901811415610dc3576001600160a01b0382166000908152603860205260409020805482908110610da557fe5b600091825260209091200180546001600160a01b0319169055610e50565b6001600160a01b0382166000908152603860205260409020805460018301908110610dea57fe5b60009182526020808320909101546001600160a01b03858116845260389092526040909220805491909216919083908110610e2157fe5b9060005260206000200160006101000a8154816001600160a01b0302191690836001600160a01b031602179055505b600101610cf9565b50505b6001600160a01b03838116600081815260366020908152604080832060010180546001600160a01b03191695881695861790559382526039815283822092825291909152205415610eaa575060015b80610f03576001600160a01b03828116600081815260386020908152604080832080546001810182558185528385200180546001600160a01b031916968a16968717905593835292546039825283832094835293905220555b610b5f565b6001600160a01b038381166000908152603660205260409020600101541633148015610f465750816001600160a01b0316836001600160a01b031614155b15610b5f576001600160a01b03838116600090815260366020526040902060010154811690831614610b5f576001600160a01b038381166000908152603660205260409020600101541615611119576001600160a01b03808416600090815260366020526040812060010154909116905b6001600160a01b038216600090815260386020526040902054811015611116576001600160a01b0382811660009081526038602052604090208054918716918390811061100057fe5b6000918252602090912001546001600160a01b0316141561110e576001600160a01b03821660009081526038602052604090205460001901811415611081576001600160a01b038216600090815260386020526040902080548290811061106357fe5b600091825260209091200180546001600160a01b031916905561110e565b6001600160a01b03821660009081526038602052604090208054600183019081106110a857fe5b60009182526020808320909101546001600160a01b038581168452603890925260409092208054919092169190839081106110df57fe5b9060005260206000200160006101000a8154816001600160a01b0302191690836001600160a01b031602179055505b600101610fb7565b50505b6001600160a01b03838116600081815260366020908152604080832060010180546001600160a01b03191695881695861790559382526039815283822092825291909152205415611168575060015b80610b5f576001600160a01b0380831660008181526038602090815260408083208054600181018255818552838520018054968a166001600160a01b0319909716871790559383529254603982528383209483529390522055505050565b6001600160a01b03828116600090815260366020526040902060010154163314806111fb5750603b546001600160a01b031633145b61120457600080fd5b6001600160a01b0390911660009081526036602052604090206001018054911515600160a01b0274ff000000000000000000000000000000000000000019909216919091179055565b6060336001600160a01b0383161461126457600080fd5b61126d826114cd565b92915050565b6001600160a01b03818116600090815260366020526040812060010154909116156112a0575060016105d6565b5060006105d6565b603a80546001600160a01b039092166001600160a01b0319928316179055603b805490911633179055565b603b546001600160a01b03165b90565b80600160b91b6821bab9ba37b234b0b702148061130b575080600160d11b6524b9b9bab2b902145b8061131d575080600160f41b61044502145b80611333575080600160d21b6512d650d0535302145b61133c57600080fd5b6001600160a01b03831660009081526035602052604090205480156114c757836001600160a01b03166034600183038154811061137557fe5b6000918252602090912001546001600160a01b03161480156113d157508160336000603460018503815481106113a757fe5b60009182526020808320909101546001600160a01b03168352820192909252604001902060020154145b801561141757508260336000603460018503815481106113ed57fe5b60009182526020808320909101546001600160a01b03168352820192909252604001902060010154145b80156114695750336001600160a01b0316603360006034600185038154811061143c57fe5b60009182526020808320909101546001600160a01b03908116845290830193909352604090910190205416145b156114c757603360006034600184038154811061148257fe5b60009182526020808320909101546001600160a01b03168352820192909252604001812080546001600160a01b03191681556001810182905560028101829055600301555b50505050565b6001600160a01b03811660009081526038602090815260409182902080548351818402810184019094528084526060939283018282801561085a57602002820191906000526020600020905b81546001600160a01b031681526001909101906020018083116115195750505050509050919050565b828054600181600116156101000203166002900490600052602060002090601f016020900481019282601f106115835782800160ff198235161785556115b0565b828001600101855582156115b0579182015b828111156115b0578235825591602001919060010190611595565b506115bc9291506115c0565b5090565b6112e091905b808211156115bc57600081556001016115c656fea165627a7a723058203c12af6ad3e4c9a59f5dc4777120fb0136a60e39e385c2b62bdba729a536e53a0029",
  "source": "// (c) Kallol Borah, 2020\r\n// Sets up account and manages custody\r\n\r\npragma solidity 0.5.7;\r\n\r\nimport \"./interfaces/VerifiedKYC.sol\";\r\nimport \"./interfaces/VerifiedClient.sol\";\r\nimport \"@openzeppelin/upgrades/contracts/Initializable.sol\";\r\n\r\ncontract Client is VerifiedClient, Initializable{\r\n\r\n    struct access{\r\n        string messagingToken;\r\n        address manager;\r\n        bool aml;      \r\n    }\r\n\r\n    struct role{\r\n        address manager;\r\n        bytes32 country;\r\n        bytes32 role;\r\n        bytes32 id;\r\n    }\r\n\r\n    //mapping of a manager to its sub managers\r\n    mapping(address=> role) private roles;\r\n\r\n    //storing submanagers\r\n    address[] submanagers;\r\n\r\n    //submanager index\r\n    mapping(address => uint256) private managerIndex;\r\n\r\n    //mapping of a client to info\r\n    mapping(address=> access) private info;\r\n\r\n    //mapping of a client to its custody account\r\n    mapping(address => bytes32) private custody;\r\n\r\n    //mapping of a manager to its clients\r\n    mapping(address => address[]) private clients;\r\n\r\n    //client index : manager to client to index position\r\n    mapping(address => mapping(address => uint256)) private clientIndex;\r\n\r\n    //kyc contract\r\n    VerifiedKYC private Kyc;\r\n\r\n    //aml manager\r\n    address private amlManager;\r\n\r\n    //event for managers\r\n    event ManagerAdded(address indexed manager, bytes32 role, bytes32 country, bytes32 managerId);\r\n\r\n    //owner is someone who can upgrade this contract\r\n    function initialize(address _kyc) public {\r\n        Kyc = VerifiedKYC(_kyc);\r\n        amlManager = msg.sender;\r\n    }\r\n\r\n    function getAMLManager() external view returns(address) {\r\n        return amlManager;\r\n    }\r\n\r\n    //only the user or its manager can set the custody account address\r\n    function setCustody(address _client, bytes32 _account) external {\r\n        require(_client==msg.sender || info[_client].manager==msg.sender || msg.sender==amlManager);\r\n        if(Kyc.getStatus(_client)==3){\r\n            custody[_client] = _account;\r\n        }\r\n    }\r\n\r\n    //only the user or its manager can get the custody account address\r\n    function getCustody(address _client) external view returns(bytes32){\r\n        require(_client==msg.sender || info[_client].manager==msg.sender || msg.sender==amlManager);\r\n        if(Kyc.getStatus(_client)==3){\r\n            return custody[_client];\r\n        }\r\n    }\r\n\r\n    //access info can only be set by user\r\n    function setAccess(string calldata _messagingToken) external{\r\n        info[msg.sender].messagingToken=_messagingToken;\r\n    }\r\n\r\n    //access data for a user can only be retrieved by itself or its manager\r\n    function getAccess(address _client) external view returns(string memory){\r\n        require(_client==msg.sender || info[_client].manager==msg.sender);\r\n        return (info[_client].messagingToken);\r\n    }\r\n\r\n    //when a user is not registered, the AML manager can set the user's KYC manager\r\n    //when a user is registered or KYC passed, both the AML manager and KYC manager can reset the user's manager\r\n    function setManager(address _client, address _manager) external{\r\n        bool found = false;\r\n        if(amlManager==msg.sender && _client!=_manager){\r\n            if(info[_client].manager!=_manager){\r\n                if(info[_client].manager!=address(0x0)){\r\n                    address currentManager = info[_client].manager;\r\n                    for(uint j=0; j<clients[currentManager].length; j++){\r\n                        if(clients[currentManager][j]==_client){\r\n                            if(j==clients[currentManager].length-1)\r\n                                delete clients[currentManager][j];\r\n                            else\r\n                                clients[currentManager][j]=clients[currentManager][j+1];\r\n                        }\r\n                    }\r\n                }\r\n                info[_client].manager = _manager;\r\n                if(clientIndex[_manager][_client]>0)\r\n                    found = true;\r\n                if(!found){\r\n                    clients[_manager].push(_client);\r\n                    clientIndex[_manager][_client] = clients[_manager].length;\r\n                }\r\n            }\r\n        }\r\n        else if(info[_client].manager==msg.sender && _client!=_manager){\r\n            if(info[_client].manager!=_manager){\r\n                if(info[_client].manager!=address(0x0)){\r\n                    address currentManager = info[_client].manager;\r\n                    for(uint j=0; j<clients[currentManager].length; j++){\r\n                        if(clients[currentManager][j]==_client){\r\n                            if(j==clients[currentManager].length-1)\r\n                                delete clients[currentManager][j];\r\n                            else\r\n                                clients[currentManager][j]=clients[currentManager][j+1];\r\n                        }\r\n                    }\r\n                }\r\n                info[_client].manager = _manager;\r\n                if(clientIndex[_manager][_client]>0)\r\n                    found = true;\r\n                if(!found){\r\n                    clients[_manager].push(_client);\r\n                    clientIndex[_manager][_client] = clients[_manager].length;\r\n                }\r\n            }\r\n        }\r\n    }\r\n\r\n    // manager identity can be retrieved by user or its manager only\r\n    function getManager(address _client) external view returns(address){\r\n        return info[_client].manager;\r\n    }\r\n\r\n    //checks if client is registered or not\r\n    function isRegistered(address _client) external view returns(bool){\r\n        if(info[_client].manager!=address(0x0))\r\n            return true;\r\n        else\r\n            return false;\r\n    }\r\n\r\n    //sets AML status\r\n    function setAMLStatus(address _client, bool status) external {\r\n        require(msg.sender==info[_client].manager || msg.sender==amlManager);  \r\n        info[_client].aml = status;\r\n    }\r\n\r\n    //gets AML status\r\n    function getAMLStatus(address _client) external view returns(bool){\r\n        require(msg.sender==info[_client].manager || msg.sender==amlManager);  \r\n        return info[_client].aml;\r\n    }\r\n\r\n    //get clients for specified manager with registration status set to true or false\r\n    function getClients(address _manager) external view returns(address[] memory){\r\n        require(msg.sender==_manager);\r\n        return getClientsForManager(_manager);\r\n    }\r\n\r\n    function getClientsForManager(address _manager) private view returns(address[] memory){\r\n        return clients[_manager];\r\n    }\r\n\r\n    //add role\r\n    function addRole(address _submanager, bytes32 _country, bytes32 _role, bytes32 _id) external{\r\n        require(_role==\"Custodian\" || _role==\"Issuer\" || _role==\"DP\" || _role==\"KYCAML\");\r\n        require(getClientsForManager(msg.sender).length>0);\r\n        submanagers.push(_submanager);\r\n        managerIndex[_submanager] = submanagers.length;\r\n        roles[_submanager].manager = msg.sender;\r\n        roles[_submanager].country = _country;\r\n        roles[_submanager].role = _role;\r\n        roles[_submanager].id = _id;\r\n        emit ManagerAdded(_submanager, _role, _country, _id);\r\n    }\r\n\r\n    //get roles for manager\r\n    function getRole(address _user) external view returns(bytes32, bytes32){\r\n        uint256 position = managerIndex[_user];\r\n        if(position>0){\r\n            if(submanagers[position-1]==_user){\r\n                return (roles[submanagers[position-1]].role, roles[submanagers[position-1]].id);\r\n            }\r\n        }\r\n        if(_user==amlManager)\r\n            return (\"KYCAML\",\"\");\r\n        else\r\n            return (\"\",\"\");\r\n    }\r\n\r\n    //remove role\r\n    function removeRole(address _submanager, bytes32 _country, bytes32 _role) external{\r\n        require(_role==\"Custodian\" || _role==\"Issuer\" || _role==\"DP\" || _role==\"KYCAML\");\r\n        uint256 position = managerIndex[_submanager];\r\n        if(position>0){\r\n            if( submanagers[position-1]==_submanager &&\r\n                roles[submanagers[position-1]].role==_role && \r\n                roles[submanagers[position-1]].country==_country &&\r\n                roles[submanagers[position-1]].manager==msg.sender){\r\n                delete(roles[submanagers[position-1]]);\r\n            }\r\n        }\r\n    }\r\n\r\n    function getManagers(bytes32 _role, bytes32 _country) external view returns(address[] memory){\r\n        require(_role==\"Custodian\" || _role==\"Issuer\" || _role==\"DP\" || _role==\"KYCAML\");\r\n        address[] memory resp = new address[](submanagers.length);\r\n        uint j = 0;\r\n        for(uint i=0; i<submanagers.length; i++){\r\n            if(roles[submanagers[i]].role==_role && roles[submanagers[i]].country==_country){\r\n                resp[j] = submanagers[i];\r\n                j = j+1;\r\n            }\r\n        }\r\n        return resp;\r\n    }   \r\n\r\n}",
  "sourcePath": "D:\\Code\\verified-accounts\\contracts\\Client.sol",
  "compiler": {
    "name": "solc",
    "version": "0.5.7+commit.6da8b019.Emscripten.clang"
  },
  "schemaVersion": "3.4.3",
  "updatedAt": "2022-01-27T16:54:55.967Z",
  "networkType": "ethereum",
  "devdoc": {
    "methods": {}
  },
  "userdoc": {
    "methods": {}
  }
}