{
  "contractName": "Holder",
  "abi": [
    {
      "constant": false,
      "inputs": [
        {
          "name": "_holderName",
          "type": "bytes32"
        },
        {
          "name": "_accountCreator",
          "type": "address"
        },
        {
          "name": "_owner",
          "type": "address"
        },
        {
          "name": "_accountHolder",
          "type": "address"
        }
      ],
      "name": "initialize",
      "outputs": [],
      "payable": false,
      "stateMutability": "nonpayable",
      "type": "function"
    },
    {
      "constant": false,
      "inputs": [],
      "name": "updateAccountStatement",
      "outputs": [],
      "payable": false,
      "stateMutability": "nonpayable",
      "type": "function"
    },
    {
      "constant": true,
      "inputs": [],
      "name": "getEntries",
      "outputs": [
        {
          "name": "",
          "type": "uint256"
        }
      ],
      "payable": false,
      "stateMutability": "view",
      "type": "function"
    },
    {
      "constant": true,
      "inputs": [
        {
          "name": "statementIndex",
          "type": "uint256"
        }
      ],
      "name": "getAccountStatement",
      "outputs": [
        {
          "name": "",
          "type": "bytes32"
        },
        {
          "name": "",
          "type": "bytes32"
        },
        {
          "name": "",
          "type": "bytes16"
        }
      ],
      "payable": false,
      "stateMutability": "view",
      "type": "function"
    },
    {
      "constant": true,
      "inputs": [],
      "name": "getTransactions",
      "outputs": [
        {
          "name": "",
          "type": "address[]"
        },
        {
          "name": "",
          "type": "bytes16[]"
        },
        {
          "name": "",
          "type": "bytes32[]"
        },
        {
          "name": "",
          "type": "uint256[]"
        },
        {
          "name": "",
          "type": "bytes32[]"
        }
      ],
      "payable": false,
      "stateMutability": "view",
      "type": "function"
    },
    {
      "constant": false,
      "inputs": [
        {
          "name": "_txDate",
          "type": "uint256"
        }
      ],
      "name": "fetchTransactions",
      "outputs": [],
      "payable": false,
      "stateMutability": "nonpayable",
      "type": "function"
    },
    {
      "constant": false,
      "inputs": [
        {
          "name": "_ledgerName",
          "type": "bytes32"
        },
        {
          "name": "_ledgerGroup",
          "type": "bytes32"
        }
      ],
      "name": "createLedger",
      "outputs": [],
      "payable": false,
      "stateMutability": "nonpayable",
      "type": "function"
    }
  ],
  "bytecode": "0x608060405234801561001057600080fd5b50610f76806100206000396000f3fe608060405234801561001057600080fd5b506004361061007d5760003560e01c80637a1e3a511161005b5780637a1e3a51146100de578063810263091461012357806383920e901461012b578063dd2c7cbc1461029b5761007d565b8063013d51f4146100825780631013c59a146100a157806317be85c3146100c4575b600080fd5b61009f6004803603602081101561009857600080fd5b50356102d9565b005b61009f600480360360408110156100b757600080fd5b50803590602001356107a1565b6100cc61083f565b60408051918252519081900360200190f35b6100fb600480360360208110156100f457600080fd5b5035610853565b6040805193845260208401929092526001600160801b03191682820152519081900360600190f35b61009f6108a7565b610133610b58565b60405180806020018060200180602001806020018060200186810386528b818151815260200191508051906020019060200280838360005b8381101561018357818101518382015260200161016b565b5050505090500186810385528a818151815260200191508051906020019060200280838360005b838110156101c25781810151838201526020016101aa565b50505050905001868103845289818151815260200191508051906020019060200280838360005b838110156102015781810151838201526020016101e9565b50505050905001868103835288818151815260200191508051906020019060200280838360005b83811015610240578181015183820152602001610228565b50505050905001868103825287818151815260200191508051906020019060200280838360005b8381101561027f578181015183820152602001610267565b505050509050019a505050505050505050505060405180910390f35b61009f600480360360808110156102b157600080fd5b508035906001600160a01b036020820135811691604081013582169160609091013516610dcb565b6035546001600160a01b031633146102f057600080fd5b6102fc60396000610ebc565b610308603a6000610edd565b610314603d6000610ebc565b610320603b6000610ebc565b61032c603c6000610ebc565b60335460408051600160e11b631b386f9d02815230600482015290516060926001600160a01b031691633670df3a916024808301926000929190829003018186803b15801561037a57600080fd5b505afa15801561038e573d6000803e3d6000fd5b505050506040513d6000823e601f3d908101601f1916820160405260208110156103b757600080fd5b810190808051600160201b8111156103ce57600080fd5b820160208101848111156103e157600080fd5b81518560208202830111600160201b821117156103fd57600080fd5b50909450600093505050505b815181101561079c57606080606080606086868151811061042657fe5b60200260200101516001600160a01b031663d3549ebd896040518263ffffffff1660e01b815260040180828152602001915050600060405180830381600087803b15801561047357600080fd5b505af1158015610487573d6000803e3d6000fd5b505050506040513d6000823e601f3d908101601f1916820160405260a08110156104b057600080fd5b810190808051600160201b8111156104c757600080fd5b820160208101848111156104da57600080fd5b81518560208202830111600160201b821117156104f657600080fd5b50509291906020018051600160201b81111561051157600080fd5b8201602081018481111561052457600080fd5b81518560208202830111600160201b8211171561054057600080fd5b50509291906020018051600160201b81111561055b57600080fd5b8201602081018481111561056e57600080fd5b81518560208202830111600160201b8211171561058a57600080fd5b50509291906020018051600160201b8111156105a557600080fd5b820160208101848111156105b857600080fd5b81518560208202830111600160201b821117156105d457600080fd5b50509291906020018051600160201b8111156105ef57600080fd5b8201602081018481111561060257600080fd5b81518560208202830111600160201b8211171561061e57600080fd5b50509291905050509450945094509450945060008090505b855181101561078a57603986828151811061064d57fe5b60209081029190910181015182546001810184556000938452919092200180546001600160a01b0319166001600160a01b039092169190911790558451603a9086908390811061069957fe5b6020908102919091018101518254600181810185556000948552929093206002840401805460809290921c601094909316939093026101000a9182026fffffffffffffffffffffffffffffffff90920219161790558351603d908590839081106106ff57fe5b602090810291909101810151825460018101845560009384529190922001558251603b9084908390811061072f57fe5b602090810291909101810151825460018101845560009384529190922001558151603c9083908390811061075f57fe5b6020908102919091018101518254600181810185556000948552929093209092019190915501610636565b50506001909401935061040992505050565b505050565b6035546001600160a01b031633146107b857600080fd5b60335460355460365460408051600160e61b6284ff8f02815260048101879052602481018690526001600160a01b039384166044820152918316606483015251919092169163213fe3c091608480830192600092919082900301818387803b15801561082357600080fd5b505af1158015610837573d6000803e3d6000fd5b505050505050565b336000908152603760205260409020545b90565b603554600090819081906001600160a01b0316331461087157600080fd5b50503360009081526038602090815260408083209483529390529190912080546001820154600290920154909391925060801b90565b6035546001600160a01b031633146108be57600080fd5b60335460408051600160e11b631b386f9d02815230600482015290516060926001600160a01b031691633670df3a916024808301926000929190829003018186803b15801561090c57600080fd5b505afa158015610920573d6000803e3d6000fd5b505050506040513d6000823e601f3d908101601f19168201604052602081101561094957600080fd5b810190808051600160201b81111561096057600080fd5b8201602081018481111561097357600080fd5b81518560208202830111600160201b8211171561098f57600080fd5b50909450600093505050505b8151811015610b545760008060008484815181106109b557fe5b60200260200101516001600160a01b03166312065fe06040518163ffffffff1660e01b8152600401606060405180830381600087803b1580156109f757600080fd5b505af1158015610a0b573d6000803e3d6000fd5b505050506040513d6060811015610a2157600080fd5b508051602082015160409092015190945090925090506000805b81158015610a62575033600090815260386020908152604080832084845290915290205415155b15610aef5733600090815260386020908152604080832084845290915290205484148015610aac575033600090815260386020908152604080832084845290915290206001015483145b15610ae757336000908152603860209081526040808320848452909152902060020180546001600160801b031916608087901c179055600191505b600101610a3b565b81610b345733600090815260386020908152604080832084845290915290208481556001808201859055600290910180546001600160801b031916608088901c179055015b3360009081526037602052604090205550506001909201915061099b9050565b5050565b60355460609081908190819081906001600160a01b03163314610b7a57600080fd5b603954604080518281526020808402820101909152606090828015610ba9578160200160208202803883390190505b509050606082604051908082528060200260200182016040528015610bd8578160200160208202803883390190505b509050606083604051908082528060200260200182016040528015610c07578160200160208202803883390190505b509050606084604051908082528060200260200182016040528015610c36578160200160208202803883390190505b509050606085604051908082528060200260200182016040528015610c65578160200160208202803883390190505b50905060005b86811015610db75760398181548110610c8057fe5b9060005260206000200160009054906101000a90046001600160a01b0316868281518110610caa57fe5b60200260200101906001600160a01b031690816001600160a01b031681525050603d8181548110610cd757fe5b9060005260206000200154858281518110610cee57fe5b602002602001018181525050603c8181548110610d0757fe5b9060005260206000200154848281518110610d1e57fe5b602002602001018181525050603b8181548110610d3757fe5b9060005260206000200154828281518110610d4e57fe5b602002602001018181525050603a8181548110610d6757fe5b90600052602060002090600291828204019190066010029054906101000a900460801b838281518110610d9657fe5b6001600160801b031990921660209283029190910190910152600101610c6b565b50939a909950919750919550909350915050565b600054610100900460ff1680610de45750610de4610eb6565b80610df2575060005460ff16155b610e3057604051600160e51b62461bcd02815260040180806020018281038252602e815260200180610f1d602e913960400191505060405180910390fd5b600054610100900460ff16158015610e5b576000805460ff1961ff0019909116610100171660011790555b603380546001600160a01b038086166001600160a01b03199283161790925560348790556035805487841690831617905560368054928516929091169190911790558015610eaf576000805461ff00191690555b5050505050565b303b1590565b5080546000825590600052602060002090810190610eda9190610efe565b50565b508054600082556001016002900490600052602060002090810190610eda91905b61085091905b80821115610f185760008155600101610f04565b509056fe436f6e747261637420696e7374616e63652068617320616c7265616479206265656e20696e697469616c697a6564a165627a7a723058205ec7a270d09e47a6e383c0db303fd933cd24e8a37d6a655a5861af662aba6ca10029",
  "source": "// (c) Kallol Borah, 2020\r\n// Implementation of a Verified account holder\r\n\r\npragma solidity 0.5.7;\r\n\r\nimport \"../interfaces/VerifiedSystem.sol\";\r\nimport \"../interfaces/VerifiedLedger.sol\";\r\nimport \"../interfaces/VerifiedHolder.sol\";\r\nimport \"abdk-libraries-solidity/ABDKMathQuad.sol\";\r\nimport \"@openzeppelin/upgrades/contracts/Initializable.sol\";\r\n\r\n\r\ncontract Holder is Initializable, VerifiedHolder{\r\n\r\n    using ABDKMathQuad for uint256;\r\n    using ABDKMathQuad for int256;\r\n    using ABDKMathQuad for bytes16;\r\n\r\n    VerifiedSystem private factory;\r\n\r\n    bytes32 holderName; \r\n\r\n    address accountCreator;\r\n\r\n    address accountHolder;\r\n\r\n    mapping(address => uint256) entries;   \r\n\r\n    struct entry{\r\n        bytes32 ledgerName;\r\n        bytes32 ledgerGroup;\r\n        bytes16 ledgerBalance;\r\n    }\r\n\r\n    mapping(address => mapping (uint256 => entry)) statement;\r\n\r\n    address[] party;\r\n    bytes16[] amount;\r\n    uint256[] date;\r\n    bytes32[] description;\r\n    bytes32[] transaction;\r\n\r\n    //initiliaze proxies\r\n    function initialize(bytes32 _holderName, address _accountCreator, address _owner, address _accountHolder) public initializer{\r\n        // this account holder can be referred from this account\r\n        factory = VerifiedSystem(_owner);\r\n        holderName = _holderName;\r\n        accountCreator = _accountCreator;\r\n        accountHolder = _accountHolder;\r\n    }\r\n\r\n    function updateAccountStatement() external{\r\n        require(accountCreator==msg.sender);\r\n        // get ledgers for this account holder\r\n        address[] memory ledgers = factory.getAccountLedgers(address(this));\r\n        for(uint256 i=0; i<ledgers.length; i++){\r\n            bytes16 balance;\r\n            bytes32 name;\r\n            bytes32 group;\r\n            (balance, name, group) = VerifiedLedger(ledgers[i]).getBalance(); \r\n            bool found = false;\r\n            uint256 p = 0;   \r\n            while(!found && statement[msg.sender][p].ledgerName!=\"\"){\r\n                if(statement[msg.sender][p].ledgerName==name && statement[msg.sender][p].ledgerGroup==group){\r\n                    found = true;\r\n                    statement[msg.sender][p].ledgerBalance = balance;\r\n                }\r\n                p=p+1;\r\n            }        \r\n            if(!found){\r\n                statement[msg.sender][p].ledgerName = name;\r\n                statement[msg.sender][p].ledgerGroup = group;\r\n                statement[msg.sender][p].ledgerBalance = balance;\r\n                p=p+1;\r\n            }\r\n            entries[msg.sender] = p;\r\n        }\r\n    }\r\n\r\n    // returns number of trial balance statement entries updated for account holder\r\n    function getEntries() external view returns(uint256){\r\n        return entries[msg.sender];\r\n    }\r\n\r\n    function getAccountStatement(uint256 statementIndex) external view returns(bytes32, bytes32, bytes16){\r\n        require(accountCreator==msg.sender);\r\n        return(statement[msg.sender][statementIndex].ledgerName, statement[msg.sender][statementIndex].ledgerGroup, statement[msg.sender][statementIndex].ledgerBalance);\r\n    }\r\n\r\n    // gets all account entries for an account creator\r\n    function getTransactions() external view returns(address[] memory, bytes16[] memory, bytes32[] memory, uint256[] memory, bytes32[] memory){\r\n        // ensure the msg sender owns this ledger\r\n        require(accountCreator==msg.sender);\r\n        uint _entries = party.length;\r\n        address[] memory _party = new address[](_entries);\r\n        bytes32[] memory _txType = new bytes32[](_entries);\r\n        bytes32[] memory _txDescription = new bytes32[](_entries);\r\n        bytes16[] memory _txAmount = new bytes16[](_entries);\r\n        uint256[] memory _date = new uint256[](_entries);\r\n        for(uint256 k=0; k<_entries; k++){\r\n            _party[k] = party[k];\r\n            _txType[k] = transaction[k];\r\n            _txDescription[k] = description[k];\r\n            _date[k] = date[k];\r\n            _txAmount[k] = amount[k];\r\n        }\r\n        return(_party, _txAmount, _txType, _date, _txDescription);\r\n    }\r\n    \r\n    function fetchTransactions(uint256 _txDate) external {\r\n        // ensure the msg sender owns this ledger\r\n        require(accountCreator==msg.sender);\r\n        delete party;\r\n        delete amount;\r\n        delete transaction;\r\n        delete date;\r\n        delete description;\r\n        address[] memory ledgers = factory.getAccountLedgers(address(this));\r\n        for(uint256 i=0; i<ledgers.length; i++){\r\n            (address[] memory _party, bytes16[] memory _amount, bytes32[] memory _txType, uint256[] memory _date, bytes32[] memory _description) \r\n                = VerifiedLedger(ledgers[i]).getEntries(_txDate);\r\n            for(uint256 j=0; j<_party.length; j++){\r\n                party.push(_party[j]);\r\n                amount.push(_amount[j]);\r\n                transaction.push(_txType[j]);\r\n                date.push(_date[j]);\r\n                description.push(_description[j]);\r\n            }\r\n        }\r\n        \r\n    }\r\n\r\n    function createLedger(bytes32 _ledgerName, bytes32 _ledgerGroup) external {\r\n        require(accountCreator==msg.sender);\r\n        factory.createLedger(_ledgerName, _ledgerGroup, accountCreator, accountHolder);\r\n    }\r\n\r\n}",
  "sourcePath": "D:\\Code\\verified-accounts\\contracts\\accounting\\Holder.sol",
  "compiler": {
    "name": "solc",
    "version": "0.5.7+commit.6da8b019.Emscripten.clang"
  },
  "schemaVersion": "3.4.3",
  "updatedAt": "2021-10-30T12:20:37.225Z",
  "networkType": "ethereum",
  "devdoc": {
    "methods": {}
  },
  "userdoc": {
    "methods": {}
  }
}