{
  "contractName": "Holder",
  "abi": [
    {
      "constant": false,
      "inputs": [
        {
          "name": "_holderName",
          "type": "bytes32"
        },
        {
          "name": "_accountCreator",
          "type": "address"
        },
        {
          "name": "_owner",
          "type": "address"
        },
        {
          "name": "_accountHolder",
          "type": "address"
        }
      ],
      "name": "initialize",
      "outputs": [],
      "payable": false,
      "stateMutability": "nonpayable",
      "type": "function"
    },
    {
      "constant": false,
      "inputs": [],
      "name": "updateAccountStatement",
      "outputs": [],
      "payable": false,
      "stateMutability": "nonpayable",
      "type": "function"
    },
    {
      "constant": true,
      "inputs": [],
      "name": "getEntries",
      "outputs": [
        {
          "name": "",
          "type": "uint256"
        }
      ],
      "payable": false,
      "stateMutability": "view",
      "type": "function"
    },
    {
      "constant": true,
      "inputs": [
        {
          "name": "statementIndex",
          "type": "uint256"
        }
      ],
      "name": "getAccountStatement",
      "outputs": [
        {
          "name": "",
          "type": "bytes32"
        },
        {
          "name": "",
          "type": "bytes32"
        },
        {
          "name": "",
          "type": "bytes16"
        }
      ],
      "payable": false,
      "stateMutability": "view",
      "type": "function"
    },
    {
      "constant": false,
      "inputs": [
        {
          "name": "_txDate",
          "type": "uint256"
        }
      ],
      "name": "fetchTransactions",
      "outputs": [],
      "payable": false,
      "stateMutability": "nonpayable",
      "type": "function"
    },
    {
      "constant": true,
      "inputs": [
        {
          "name": "_toDate",
          "type": "uint256"
        },
        {
          "name": "_currency",
          "type": "bytes32"
        }
      ],
      "name": "getTransactions",
      "outputs": [
        {
          "name": "",
          "type": "uint256"
        }
      ],
      "payable": false,
      "stateMutability": "view",
      "type": "function"
    },
    {
      "constant": true,
      "inputs": [
        {
          "name": "_index",
          "type": "uint256"
        },
        {
          "name": "_toDate",
          "type": "uint256"
        },
        {
          "name": "_currency",
          "type": "bytes32"
        }
      ],
      "name": "getEntry",
      "outputs": [
        {
          "name": "",
          "type": "address"
        },
        {
          "name": "",
          "type": "uint256"
        },
        {
          "name": "",
          "type": "bytes32"
        },
        {
          "name": "",
          "type": "bytes32"
        },
        {
          "name": "",
          "type": "uint256"
        },
        {
          "name": "",
          "type": "bytes32"
        }
      ],
      "payable": false,
      "stateMutability": "view",
      "type": "function"
    },
    {
      "constant": false,
      "inputs": [
        {
          "name": "_ledgerName",
          "type": "bytes32"
        },
        {
          "name": "_ledgerGroup",
          "type": "bytes32"
        }
      ],
      "name": "createLedger",
      "outputs": [],
      "payable": false,
      "stateMutability": "nonpayable",
      "type": "function"
    }
  ],
  "bytecode": "0x608060405234801561001057600080fd5b5061108e806100206000396000f3fe608060405234801561001057600080fd5b50600436106100885760003560e01c8063810263091161005b57806381026309146100f55780639c0efd66146100fd578063bcfd05f814610110578063dd2c7cbc1461013557610088565b8063013d51f41461008d5780631013c59a146100a257806317be85c3146100b55780637a1e3a51146100d3575b600080fd5b6100a061009b366004610e12565b610148565b005b6100a06100b0366004610dd8565b61035b565b6100bd6103ea565b6040516100ca9190610fd1565b60405180910390f35b6100e66100e1366004610e12565b6103fe565b6040516100ca93929190610f99565b6100a0610452565b6100bd61010b366004610dd8565b6106b2565b61012361011e366004610e30565b610743565b6040516100ca96959493929190610f01565b6100a0610143366004610d77565b6108db565b6035546001600160a01b0316331461015f57600080fd5b61016b60396000610a58565b603354604051600160e11b631b386f9d0281526060916001600160a01b031690633670df3a9061019f903090600401610ef3565b60006040518083038186803b1580156101b757600080fd5b505afa1580156101cb573d6000803e3d6000fd5b505050506040513d6000823e601f3d908101601f191682016040526101f39190810190610cb8565b905060005b815181101561035657606082828151811061020f57fe5b60200260200101516001600160a01b031663d3549ebd856040518263ffffffff1660e01b81526004016102429190610fd1565b600060405180830381600087803b15801561025c57600080fd5b505af1158015610270573d6000803e3d6000fd5b505050506040513d6000823e601f3d908101601f191682016040526102989190810190610cf5565b905060005b815181101561034c5760398282815181106102b457fe5b602090810291909101810151825460018082018555600094855293839020825160079092020190815591810151828401556040810151600283015560608101516003830155608080820151600484015560a08201516005840180546001600160801b0319169190921c17905560c00151600690910180546001600160a01b0319166001600160a01b039092169190911790550161029d565b50506001016101f8565b505050565b6035546001600160a01b0316331461037257600080fd5b603354603554603654604051600160e61b6284ff8f0281526001600160a01b039384169363213fe3c0936103b493889388939283169290911690600401610f5b565b600060405180830381600087803b1580156103ce57600080fd5b505af11580156103e2573d6000803e3d6000fd5b505050505050565b336000908152603760205260409020545b90565b603554600090819081906001600160a01b0316331461041c57600080fd5b50503360009081526038602090815260408083209483529390529190912080546001820154600290920154909391925060801b90565b6035546001600160a01b0316331461046957600080fd5b603354604051600160e11b631b386f9d0281526060916001600160a01b031690633670df3a9061049d903090600401610ef3565b60006040518083038186803b1580156104b557600080fd5b505afa1580156104c9573d6000803e3d6000fd5b505050506040513d6000823e601f3d908101601f191682016040526104f19190810190610cb8565b905060005b81518110156106ae57600080600084848151811061051057fe5b60200260200101516001600160a01b03166312065fe06040518163ffffffff1660e01b8152600401606060405180830381600087803b15801561055257600080fd5b505af1158015610566573d6000803e3d6000fd5b505050506040513d601f19601f8201168201806040525061058a9190810190610d2a565b919450925090506000805b811580156105bc575033600090815260386020908152604080832084845290915290205415155b156106495733600090815260386020908152604080832084845290915290205484148015610606575033600090815260386020908152604080832084845290915290206001015483145b1561064157336000908152603860209081526040808320848452909152902060020180546001600160801b031916608087901c179055600191505b600101610595565b8161068e5733600090815260386020908152604080832084845290915290208481556001808201859055600290910180546001600160801b031916608088901c179055015b336000908152603760205260409020555050600190920191506104f69050565b5050565b6035546000906001600160a01b031633146106cc57600080fd5b6000805b60395481101561073957603981815481106106e757fe5b906000526020600020906007020160010154851015801561072557506039818154811061071057fe5b90600052602060002090600702016004015484145b15610731578160010191505b6001016106d0565b5090505b92915050565b603554600090819081908190819081906001600160a01b0316331461076757600080fd5b6000805b6039548110156108cc576039818154811061078257fe5b9060005260206000209060070201600101548a101580156107c05750603981815481106107ab57fe5b90600052602060002090600702016004015489145b80156107ce57508160018c03145b156108c057603981815481106107e057fe5b906000526020600020906007020160060160009054906101000a90046001600160a01b03166108316039838154811061081557fe5b600091825260209091206005600790920201015460801b6109b0565b6039838154811061083e57fe5b9060005260206000209060070201600001546039848154811061085d57fe5b9060005260206000209060070201600201546039858154811061087c57fe5b9060005260206000209060070201600101546039868154811061089b57fe5b90600052602060002090600702016003015497509750975097509750975050506108cf565b6001918201910161076b565b50505b93975093979195509350565b600054610100900460ff16806108f457506108f4610a52565b80610902575060005460ff16155b61092a57604051600160e51b62461bcd02815260040161092190610fc1565b60405180910390fd5b600054610100900460ff16158015610955576000805460ff1961ff0019909116610100171660011790555b603380546001600160a01b038086166001600160a01b031992831617909255603487905560358054878416908316179055603680549285169290911691909117905580156109a9576000805461ff00191690555b5050505050565b6000617fff6001600160801b03608084901c1660701c16613fff8110156109db576000915050610a4d565b6001607f1b8360801c6001600160801b0316106109f757600080fd5b6140fe811115610a0657600080fd5b600160701b6dffffffffffffffffffffffffffff608085901c161761406f821015610a375761406f8290031c610a49565b61406f821115610a495761406e1982011b5b9150505b919050565b303b1590565b5080546000825560070290600052602060002090810190610a799190610a7c565b50565b6103fb91905b80821115610ad557600080825560018201819055600282018190556003820181905560048201556005810180546001600160801b03191690556006810180546001600160a01b0319169055600701610a82565b5090565b6000610ae58235611030565b9392505050565b6000610ae58251611030565b600082601f830112610b0957600080fd5b8151610b1c610b1782611006565b610fdf565b91508181835260208401935060208101905083856020840282011115610b4157600080fd5b60005b83811015610b6d5781610b578882610aec565b8452506020928301929190910190600101610b44565b5050505092915050565b600082601f830112610b8857600080fd5b8151610b96610b1782611006565b915081818352602084019350602081019050838560e0840282011115610bbb57600080fd5b60005b83811015610b6d5781610bd18882610c0d565b84525060209092019160e09190910190600101610bbe565b6000610ae5825161103b565b6000610ae582356103fb565b6000610ae582516103fb565b600060e08284031215610c1f57600080fd5b610c2960e0610fdf565b90506000610c378484610c01565b8252506020610c4884848301610c01565b6020830152506040610c5c84828501610c01565b6040830152506060610c7084828501610c01565b6060830152506080610c8484828501610c01565b60808301525060a0610c9884828501610be9565b60a08301525060c0610cac84828501610aec565b60c08301525092915050565b600060208284031215610cca57600080fd5b815167ffffffffffffffff811115610ce157600080fd5b610ced84828501610af8565b949350505050565b600060208284031215610d0757600080fd5b815167ffffffffffffffff811115610d1e57600080fd5b610ced84828501610b77565b600080600060608486031215610d3f57600080fd5b6000610d4b8686610be9565b9350506020610d5c86828701610c01565b9250506040610d6d86828701610c01565b9150509250925092565b60008060008060808587031215610d8d57600080fd5b6000610d998787610bf5565b9450506020610daa87828801610ad9565b9350506040610dbb87828801610ad9565b9250506060610dcc87828801610ad9565b91505092959194509250565b60008060408385031215610deb57600080fd5b6000610df78585610bf5565b9250506020610e0885828601610bf5565b9150509250929050565b600060208284031215610e2457600080fd5b6000610ced8484610bf5565b600080600060608486031215610e4557600080fd5b6000610e518686610bf5565b9350506020610e6286828701610bf5565b9250506040610d6d86828701610bf5565b610e7c81611030565b82525050565b610e7c8161103b565b610e7c816103fb565b6000610ea1602e83611027565b7f436f6e747261637420696e7374616e63652068617320616c726561647920626581527f656e20696e697469616c697a6564000000000000000000000000000000000000602082015260400192915050565b6020810161073d8284610e73565b60c08101610f0f8289610e73565b610f1c6020830188610e8b565b610f296040830187610e8b565b610f366060830186610e8b565b610f436080830185610e8b565b610f5060a0830184610e8b565b979650505050505050565b60808101610f698287610e8b565b610f766020830186610e8b565b610f836040830185610e73565b610f906060830184610e73565b95945050505050565b60608101610fa78286610e8b565b610fb46020830185610e8b565b610ced6040830184610e82565b6020808252810161073d81610e94565b6020810161073d8284610e8b565b60405181810167ffffffffffffffff81118282101715610ffe57600080fd5b604052919050565b600067ffffffffffffffff82111561101d57600080fd5b5060209081020190565b90815260200190565b600061073d82611048565b6001600160801b03191690565b6001600160a01b03169056fea265627a7a7230582067ad2571649ba9b882f4274859b8252841b606984a784be98944e679e35e93ba6c6578706572696d656e74616cf50037",
  "source": "// (c) Kallol Borah, 2020\r\n// Implementation of a Verified account holder\r\n\r\npragma solidity 0.5.7;\r\npragma experimental ABIEncoderV2;\r\n\r\nimport \"../interfaces/VerifiedEntry.sol\";\r\nimport \"../interfaces/VerifiedSystem.sol\";\r\nimport \"../interfaces/VerifiedLedger.sol\";\r\nimport \"../interfaces/VerifiedHolder.sol\";\r\nimport \"abdk-libraries-solidity/ABDKMathQuad.sol\";\r\nimport \"@openzeppelin/upgrades/contracts/Initializable.sol\";\r\n\r\n\r\ncontract Holder is Initializable, VerifiedHolder{\r\n\r\n    using ABDKMathQuad for uint256;\r\n    using ABDKMathQuad for int256;\r\n    using ABDKMathQuad for bytes16;\r\n\r\n    VerifiedSystem private factory;\r\n\r\n    bytes32 holderName; \r\n\r\n    address accountCreator;\r\n\r\n    address accountHolder;\r\n\r\n    mapping(address => uint256) entries;   \r\n\r\n    struct entry{\r\n        bytes32 ledgerName;\r\n        bytes32 ledgerGroup;\r\n        bytes16 ledgerBalance;\r\n    }\r\n\r\n    mapping(address => mapping (uint256 => entry)) statement;\r\n\r\n    VerifiedEntry.account[] private holderEntries;\r\n\r\n    //initiliaze proxies\r\n    function initialize(bytes32 _holderName, address _accountCreator, address _owner, address _accountHolder) public initializer{\r\n        // this account holder can be referred from this account\r\n        factory = VerifiedSystem(_owner);\r\n        holderName = _holderName;\r\n        accountCreator = _accountCreator;\r\n        accountHolder = _accountHolder;\r\n    }\r\n\r\n    function updateAccountStatement() external{\r\n        require(accountCreator==msg.sender);\r\n        // get ledgers for this account holder\r\n        address[] memory ledgers = factory.getAccountLedgers(address(this));\r\n        for(uint256 i=0; i<ledgers.length; i++){\r\n            bytes16 balance;\r\n            bytes32 name;\r\n            bytes32 group;            \r\n            (balance, name, group) = VerifiedLedger(ledgers[i]).getBalance(); \r\n            bool found = false;\r\n            uint256 p = 0;   \r\n            while(!found && statement[msg.sender][p].ledgerName!=\"\"){\r\n                if(statement[msg.sender][p].ledgerName==name && statement[msg.sender][p].ledgerGroup==group){\r\n                    found = true;\r\n                    statement[msg.sender][p].ledgerBalance = balance;\r\n                }\r\n                p=p+1;\r\n            }        \r\n            if(!found){\r\n                statement[msg.sender][p].ledgerName = name;\r\n                statement[msg.sender][p].ledgerGroup = group;\r\n                statement[msg.sender][p].ledgerBalance = balance;\r\n                p=p+1;\r\n            }\r\n            entries[msg.sender] = p;\r\n        }\r\n    }\r\n\r\n    // returns number of trial balance statement entries updated for account holder\r\n    function getEntries() external view returns(uint256){\r\n        return entries[msg.sender];\r\n    }\r\n\r\n    function getAccountStatement(uint256 statementIndex) external view returns(bytes32, bytes32, bytes16){\r\n        require(accountCreator==msg.sender);\r\n        return(statement[msg.sender][statementIndex].ledgerName, statement[msg.sender][statementIndex].ledgerGroup, statement[msg.sender][statementIndex].ledgerBalance);\r\n    }\r\n\r\n    function fetchTransactions(uint256 _txDate) external {\r\n        // ensure the msg sender owns this ledger\r\n        require(accountCreator==msg.sender);\r\n        delete holderEntries;\r\n        address[] memory ledgers = factory.getAccountLedgers(address(this));\r\n        for(uint256 i=0; i<ledgers.length; i++){            \r\n            VerifiedEntry.account[] memory ledgerEntries = VerifiedLedger(ledgers[i]).getEntries(_txDate);\r\n            for(uint256 j=0; j<ledgerEntries.length; j++){\r\n                holderEntries.push(ledgerEntries[j]);\r\n            }\r\n        }\r\n    }\r\n    \r\n    function getTransactions(uint256 _toDate, bytes32 _currency) external view returns(uint256){\r\n        // ensure the msg sender owns this ledger\r\n        require(accountCreator==msg.sender);\r\n        uint256 count = 0;\r\n        for(uint256 k=0; k<holderEntries.length; k++){\r\n            if((_toDate >= holderEntries[k].txDate) && _currency==holderEntries[k].txCurrency)\r\n                count = count + 1;\r\n        }\r\n        return count;\r\n    }\r\n    \r\n    // gets all account entries for an account creator\r\n    function getEntry(uint256 _index, uint256 _toDate, bytes32 _currency) external view returns(address, uint256, bytes32, bytes32, uint256, bytes32){\r\n        // ensure the msg sender owns this ledger\r\n        require(accountCreator==msg.sender);\r\n        uint256 count = 0;\r\n        for(uint256 k=0; k<holderEntries.length; k++){\r\n            if((_toDate >= holderEntries[k].txDate) && (_currency==holderEntries[k].txCurrency) && (_index-1==count)){\r\n                return( holderEntries[k].party,\r\n                        ABDKMathQuad.toUInt(holderEntries[k].txAmount),\r\n                        holderEntries[k].txType,\r\n                        holderEntries[k].txDescription,\r\n                        holderEntries[k].txDate,\r\n                        holderEntries[k].voucherType\r\n                        );\r\n            }\r\n            count = count + 1;\r\n        }\r\n    }\r\n\r\n    function createLedger(bytes32 _ledgerName, bytes32 _ledgerGroup) external {\r\n        require(accountCreator==msg.sender);\r\n        factory.createLedger(_ledgerName, _ledgerGroup, accountCreator, accountHolder);\r\n    }\r\n\r\n}",
  "sourcePath": "D:\\Code\\verified-accounts\\contracts\\accounting\\Holder.sol",
  "compiler": {
    "name": "solc",
    "version": "0.5.7+commit.6da8b019.Emscripten.clang"
  },
  "schemaVersion": "3.4.3",
  "updatedAt": "2021-11-25T12:12:58.484Z",
  "networkType": "ethereum",
  "devdoc": {
    "methods": {}
  },
  "userdoc": {
    "methods": {}
  }
}