{
  "contractName": "Kyc",
  "abi": [
    {
      "anonymous": false,
      "inputs": [
        {
          "indexed": true,
          "name": "client",
          "type": "address"
        },
        {
          "indexed": false,
          "name": "name",
          "type": "bytes32"
        },
        {
          "indexed": false,
          "name": "surname",
          "type": "bytes32"
        },
        {
          "indexed": false,
          "name": "status",
          "type": "uint256"
        }
      ],
      "name": "KycUpdate",
      "type": "event"
    },
    {
      "constant": false,
      "inputs": [
        {
          "name": "_client",
          "type": "address"
        }
      ],
      "name": "initialize",
      "outputs": [],
      "payable": false,
      "stateMutability": "nonpayable",
      "type": "function"
    },
    {
      "constant": false,
      "inputs": [
        {
          "name": "_client",
          "type": "address"
        },
        {
          "name": "_status",
          "type": "uint256"
        }
      ],
      "name": "setStatus",
      "outputs": [],
      "payable": false,
      "stateMutability": "nonpayable",
      "type": "function"
    },
    {
      "constant": true,
      "inputs": [
        {
          "name": "_client",
          "type": "address"
        }
      ],
      "name": "getStatus",
      "outputs": [
        {
          "name": "",
          "type": "uint256"
        }
      ],
      "payable": false,
      "stateMutability": "view",
      "type": "function"
    },
    {
      "constant": false,
      "inputs": [
        {
          "name": "_client",
          "type": "address"
        },
        {
          "name": "_file",
          "type": "string"
        }
      ],
      "name": "setFile",
      "outputs": [],
      "payable": false,
      "stateMutability": "nonpayable",
      "type": "function"
    },
    {
      "constant": true,
      "inputs": [
        {
          "name": "_client",
          "type": "address"
        }
      ],
      "name": "getFile",
      "outputs": [
        {
          "name": "",
          "type": "string"
        }
      ],
      "payable": false,
      "stateMutability": "view",
      "type": "function"
    },
    {
      "constant": false,
      "inputs": [
        {
          "name": "_client",
          "type": "address"
        },
        {
          "name": "_file",
          "type": "string"
        }
      ],
      "name": "setFATCA",
      "outputs": [],
      "payable": false,
      "stateMutability": "nonpayable",
      "type": "function"
    },
    {
      "constant": true,
      "inputs": [
        {
          "name": "_client",
          "type": "address"
        }
      ],
      "name": "getFATCA",
      "outputs": [
        {
          "name": "",
          "type": "string"
        }
      ],
      "payable": false,
      "stateMutability": "view",
      "type": "function"
    },
    {
      "constant": false,
      "inputs": [
        {
          "name": "_client",
          "type": "address"
        },
        {
          "name": "_file",
          "type": "string"
        }
      ],
      "name": "setCRS",
      "outputs": [],
      "payable": false,
      "stateMutability": "nonpayable",
      "type": "function"
    },
    {
      "constant": true,
      "inputs": [
        {
          "name": "_client",
          "type": "address"
        }
      ],
      "name": "getCRS",
      "outputs": [
        {
          "name": "",
          "type": "string"
        }
      ],
      "payable": false,
      "stateMutability": "view",
      "type": "function"
    },
    {
      "constant": false,
      "inputs": [
        {
          "name": "_client",
          "type": "address"
        },
        {
          "name": "_file",
          "type": "string"
        }
      ],
      "name": "setPhotoID",
      "outputs": [],
      "payable": false,
      "stateMutability": "nonpayable",
      "type": "function"
    },
    {
      "constant": true,
      "inputs": [
        {
          "name": "_client",
          "type": "address"
        }
      ],
      "name": "getPhotoID",
      "outputs": [
        {
          "name": "",
          "type": "string"
        }
      ],
      "payable": false,
      "stateMutability": "view",
      "type": "function"
    },
    {
      "constant": false,
      "inputs": [
        {
          "name": "_client",
          "type": "address"
        },
        {
          "name": "_file",
          "type": "string"
        }
      ],
      "name": "setVideoID",
      "outputs": [],
      "payable": false,
      "stateMutability": "nonpayable",
      "type": "function"
    },
    {
      "constant": true,
      "inputs": [
        {
          "name": "_client",
          "type": "address"
        }
      ],
      "name": "getVideoID",
      "outputs": [
        {
          "name": "",
          "type": "string"
        }
      ],
      "payable": false,
      "stateMutability": "view",
      "type": "function"
    },
    {
      "constant": false,
      "inputs": [
        {
          "name": "_client",
          "type": "address"
        },
        {
          "name": "_file",
          "type": "string"
        }
      ],
      "name": "setAddress",
      "outputs": [],
      "payable": false,
      "stateMutability": "nonpayable",
      "type": "function"
    },
    {
      "constant": true,
      "inputs": [
        {
          "name": "_client",
          "type": "address"
        }
      ],
      "name": "getAddress",
      "outputs": [
        {
          "name": "",
          "type": "string"
        }
      ],
      "payable": false,
      "stateMutability": "view",
      "type": "function"
    },
    {
      "constant": false,
      "inputs": [
        {
          "name": "_client",
          "type": "address"
        },
        {
          "name": "_country",
          "type": "bytes32"
        }
      ],
      "name": "setCountry",
      "outputs": [],
      "payable": false,
      "stateMutability": "nonpayable",
      "type": "function"
    },
    {
      "constant": true,
      "inputs": [
        {
          "name": "_client",
          "type": "address"
        }
      ],
      "name": "getCountry",
      "outputs": [
        {
          "name": "",
          "type": "bytes32"
        }
      ],
      "payable": false,
      "stateMutability": "view",
      "type": "function"
    },
    {
      "constant": false,
      "inputs": [
        {
          "name": "_client",
          "type": "address"
        },
        {
          "name": "_name",
          "type": "bytes32"
        },
        {
          "name": "_surname",
          "type": "bytes32"
        }
      ],
      "name": "setName",
      "outputs": [],
      "payable": false,
      "stateMutability": "nonpayable",
      "type": "function"
    },
    {
      "constant": true,
      "inputs": [
        {
          "name": "_client",
          "type": "address"
        }
      ],
      "name": "getName",
      "outputs": [
        {
          "name": "",
          "type": "bytes32"
        },
        {
          "name": "",
          "type": "bytes32"
        }
      ],
      "payable": false,
      "stateMutability": "view",
      "type": "function"
    },
    {
      "constant": false,
      "inputs": [
        {
          "name": "_client",
          "type": "address"
        },
        {
          "name": "_phone",
          "type": "bytes32"
        }
      ],
      "name": "setPhone",
      "outputs": [],
      "payable": false,
      "stateMutability": "nonpayable",
      "type": "function"
    },
    {
      "constant": true,
      "inputs": [
        {
          "name": "_client",
          "type": "address"
        }
      ],
      "name": "getPhone",
      "outputs": [
        {
          "name": "",
          "type": "bytes32"
        }
      ],
      "payable": false,
      "stateMutability": "view",
      "type": "function"
    },
    {
      "constant": false,
      "inputs": [
        {
          "name": "_client",
          "type": "address"
        },
        {
          "name": "_email",
          "type": "bytes32"
        }
      ],
      "name": "setEmail",
      "outputs": [],
      "payable": false,
      "stateMutability": "nonpayable",
      "type": "function"
    },
    {
      "constant": true,
      "inputs": [
        {
          "name": "_client",
          "type": "address"
        }
      ],
      "name": "getEmail",
      "outputs": [
        {
          "name": "",
          "type": "bytes32"
        }
      ],
      "payable": false,
      "stateMutability": "view",
      "type": "function"
    },
    {
      "constant": false,
      "inputs": [
        {
          "name": "_client",
          "type": "address"
        },
        {
          "name": "_paid",
          "type": "bytes32"
        }
      ],
      "name": "setKYCPaid",
      "outputs": [],
      "payable": false,
      "stateMutability": "nonpayable",
      "type": "function"
    },
    {
      "constant": true,
      "inputs": [
        {
          "name": "_client",
          "type": "address"
        }
      ],
      "name": "getKYCPaid",
      "outputs": [
        {
          "name": "",
          "type": "bytes32"
        }
      ],
      "payable": false,
      "stateMutability": "view",
      "type": "function"
    }
  ],
  "bytecode": "0x608060405234801561001057600080fd5b50611f4a806100206000396000f3fe608060405234801561001057600080fd5b50600436106101735760003560e01c80635fd4b08a116100de578063ae22c57d11610097578063d36a887511610071578063d36a887514610760578063d36f5e6214610786578063d4bc0889146107b8578063d821f92d146107e457610173565b8063ae22c57d14610696578063c4d66de8146106bc578063ceb2f041146106e257610173565b80635fd4b08a146104e357806362714a14146105225780636ea753db146105485780637a68f5a9146105c65780637e55d59c146105ec578063912000991461061857610173565b806330ccebb51161013057806330ccebb51461038f578063323baff1146103c75780633ed93c4f146103f3578063478da929146104195780634fa7353c146104975780635d962a95146104bd57610173565b806304047e97146101785780630b87c1e0146101f85780631d7d3237146102935780631f88f8c3146102bf57806327f08b31146102eb578063297d4d5514610311575b600080fd5b6101f66004803603604081101561018e57600080fd5b6001600160a01b038235169190810190604081016020820135600160201b8111156101b857600080fd5b8201836020820111156101ca57600080fd5b803590602001918460018302840111600160201b831117156101eb57600080fd5b50909250905061080a565b005b61021e6004803603602081101561020e57600080fd5b50356001600160a01b0316610908565b6040805160208082528351818301528351919283929083019185019080838360005b83811015610258578181015183820152602001610240565b50505050905090810190601f1680156102855780820380516001836020036101000a031916815260200191505b509250505060405180910390f35b6101f6600480360360408110156102a957600080fd5b506001600160a01b038135169060200135610a70565b6101f6600480360360408110156102d557600080fd5b506001600160a01b038135169060200135610b4f565b61021e6004803603602081101561030157600080fd5b50356001600160a01b0316610c13565b6101f66004803603604081101561032757600080fd5b6001600160a01b038235169190810190604081016020820135600160201b81111561035157600080fd5b82018360208201111561036357600080fd5b803590602001918460018302840111600160201b8311171561038457600080fd5b509092509050610d42565b6103b5600480360360208110156103a557600080fd5b50356001600160a01b0316610e20565b60408051918252519081900360200190f35b6101f6600480360360408110156103dd57600080fd5b506001600160a01b038135169060200135610e3b565b61021e6004803603602081101561040957600080fd5b50356001600160a01b0316610f1a565b6101f66004803603604081101561042f57600080fd5b6001600160a01b038235169190810190604081016020820135600160201b81111561045957600080fd5b82018360208201111561046b57600080fd5b803590602001918460018302840111600160201b8311171561048c57600080fd5b50909250905061104a565b6103b5600480360360208110156104ad57600080fd5b50356001600160a01b0316611128565b61021e600480360360208110156104d357600080fd5b50356001600160a01b0316611201565b610509600480360360208110156104f957600080fd5b50356001600160a01b0316611330565b6040805192835260208301919091528051918290030190f35b6103b56004803603602081101561053857600080fd5b50356001600160a01b0316611413565b6101f66004803603604081101561055e57600080fd5b6001600160a01b038235169190810190604081016020820135600160201b81111561058857600080fd5b82018360208201111561059a57600080fd5b803590602001918460018302840111600160201b831117156105bb57600080fd5b5090925090506114ec565b61021e600480360360208110156105dc57600080fd5b50356001600160a01b03166115ca565b6101f66004803603604081101561060257600080fd5b506001600160a01b0381351690602001356116f9565b6101f66004803603604081101561062e57600080fd5b6001600160a01b038235169190810190604081016020820135600160201b81111561065857600080fd5b82018360208201111561066a57600080fd5b803590602001918460018302840111600160201b8311171561068b57600080fd5b5090925090506117f5565b61021e600480360360208110156106ac57600080fd5b50356001600160a01b03166118d3565b6101f6600480360360208110156106d257600080fd5b50356001600160a01b0316611a02565b6101f6600480360360408110156106f857600080fd5b6001600160a01b038235169190810190604081016020820135600160201b81111561072257600080fd5b82018360208201111561073457600080fd5b803590602001918460018302840111600160201b8311171561075557600080fd5b509092509050611a2d565b6103b56004803603602081101561077657600080fd5b50356001600160a01b0316611b0b565b6101f66004803603606081101561079c57600080fd5b506001600160a01b038135169060208101359060400135611be4565b6101f6600480360360408110156107ce57600080fd5b506001600160a01b038135169060200135611ccb565b6103b5600480360360208110156107fa57600080fd5b50356001600160a01b0316611daa565b336001600160a01b03841614806108a4575060335460408051600160e01b633d5840630281526001600160a01b03868116600483015291519190921691633d584063916024808301926020929190829003018186803b15801561086c57600080fd5b505afa158015610880573d6000803e3d6000fd5b505050506040513d602081101561089657600080fd5b50516001600160a01b031633145b806108b957506035546001600160a01b031633145b6108c257600080fd5b6001600160a01b03831660009081526034602052604090206108e8906002018383611e83565b5050506001600160a01b0316600090815260346020526040902060019055565b6060336001600160a01b03831614806109a4575060335460408051600160e01b633d5840630281526001600160a01b03858116600483015291519190921691633d584063916024808301926020929190829003018186803b15801561096c57600080fd5b505afa158015610980573d6000803e3d6000fd5b505050506040513d602081101561099657600080fd5b50516001600160a01b031633145b806109b957506035546001600160a01b031633145b6109c257600080fd5b6001600160a01b038216600090815260346020908152604091829020600190810180548451600293821615610100026000190190911692909204601f810184900484028301840190945283825290929091830182828015610a645780601f10610a3957610100808354040283529160200191610a64565b820191906000526020600020905b815481529060010190602001808311610a4757829003601f168201915b50505050509050919050565b336001600160a01b0383161480610b0a575060335460408051600160e01b633d5840630281526001600160a01b03858116600483015291519190921691633d584063916024808301926020929190829003018186803b158015610ad257600080fd5b505afa158015610ae6573d6000803e3d6000fd5b505050506040513d6020811015610afc57600080fd5b50516001600160a01b031633145b80610b1f57506035546001600160a01b031633145b610b2857600080fd5b6001600160a01b039091166000908152603460205260409020600781019190915560019055565b60335460408051600160e01b633d5840630281526001600160a01b03858116600483015291519190921691633d584063916024808301926020929190829003018186803b158015610b9f57600080fd5b505afa158015610bb3573d6000803e3d6000fd5b505050506040513d6020811015610bc957600080fd5b50516001600160a01b0316331480610beb57506035546001600160a01b031633145b610bf457600080fd5b6001600160a01b039091166000908152603460205260409020600c0155565b6060336001600160a01b0383161480610caf575060335460408051600160e01b633d5840630281526001600160a01b03858116600483015291519190921691633d584063916024808301926020929190829003018186803b158015610c7757600080fd5b505afa158015610c8b573d6000803e3d6000fd5b505050506040513d6020811015610ca157600080fd5b50516001600160a01b031633145b80610cc457506035546001600160a01b031633145b610ccd57600080fd5b6001600160a01b03821660009081526034602090815260409182902060040180548351601f600260001961010060018616150201909316929092049182018490048402810184019094528084529091830182828015610a645780601f10610a3957610100808354040283529160200191610a64565b336001600160a01b0384161480610ddc575060335460408051600160e01b633d5840630281526001600160a01b03868116600483015291519190921691633d584063916024808301926020929190829003018186803b158015610da457600080fd5b505afa158015610db8573d6000803e3d6000fd5b505050506040513d6020811015610dce57600080fd5b50516001600160a01b031633145b80610df157506035546001600160a01b031633145b610dfa57600080fd5b6001600160a01b03831660009081526034602052604090206108e8906004018383611e83565b6001600160a01b031660009081526034602052604090205490565b336001600160a01b0383161480610ed5575060335460408051600160e01b633d5840630281526001600160a01b03858116600483015291519190921691633d584063916024808301926020929190829003018186803b158015610e9d57600080fd5b505afa158015610eb1573d6000803e3d6000fd5b505050506040513d6020811015610ec757600080fd5b50516001600160a01b031633145b80610eea57506035546001600160a01b031633145b610ef357600080fd5b6001600160a01b039091166000908152603460205260409020600a81019190915560019055565b6060336001600160a01b0383161480610fb6575060335460408051600160e01b633d5840630281526001600160a01b03858116600483015291519190921691633d584063916024808301926020929190829003018186803b158015610f7e57600080fd5b505afa158015610f92573d6000803e3d6000fd5b505050506040513d6020811015610fa857600080fd5b50516001600160a01b031633145b80610fcb57506035546001600160a01b031633145b610fd457600080fd5b6001600160a01b0382166000908152603460209081526040918290206002908101805484516001821615610100026000190190911692909204601f810184900484028301840190945283825290929091830182828015610a645780601f10610a3957610100808354040283529160200191610a64565b336001600160a01b03841614806110e4575060335460408051600160e01b633d5840630281526001600160a01b03868116600483015291519190921691633d584063916024808301926020929190829003018186803b1580156110ac57600080fd5b505afa1580156110c0573d6000803e3d6000fd5b505050506040513d60208110156110d657600080fd5b50516001600160a01b031633145b806110f957506035546001600160a01b031633145b61110257600080fd5b6001600160a01b03831660009081526034602052604090206108e8906005018383611e83565b6000336001600160a01b03831614806111c4575060335460408051600160e01b633d5840630281526001600160a01b03858116600483015291519190921691633d584063916024808301926020929190829003018186803b15801561118c57600080fd5b505afa1580156111a0573d6000803e3d6000fd5b505050506040513d60208110156111b657600080fd5b50516001600160a01b031633145b806111d957506035546001600160a01b031633145b6111e257600080fd5b506001600160a01b03166000908152603460205260409020600b015490565b6060336001600160a01b038316148061129d575060335460408051600160e01b633d5840630281526001600160a01b03858116600483015291519190921691633d584063916024808301926020929190829003018186803b15801561126557600080fd5b505afa158015611279573d6000803e3d6000fd5b505050506040513d602081101561128f57600080fd5b50516001600160a01b031633145b806112b257506035546001600160a01b031633145b6112bb57600080fd5b6001600160a01b03821660009081526034602090815260409182902060030180548351601f600260001961010060018616150201909316929092049182018490048402810184019094528084529091830182828015610a645780601f10610a3957610100808354040283529160200191610a64565b600080336001600160a01b03841614806113cd575060335460408051600160e01b633d5840630281526001600160a01b03868116600483015291519190921691633d584063916024808301926020929190829003018186803b15801561139557600080fd5b505afa1580156113a9573d6000803e3d6000fd5b505050506040513d60208110156113bf57600080fd5b50516001600160a01b031633145b806113e257506035546001600160a01b031633145b6113eb57600080fd5b50506001600160a01b0316600090815260346020526040902060088101546009909101549091565b6000336001600160a01b03831614806114af575060335460408051600160e01b633d5840630281526001600160a01b03858116600483015291519190921691633d584063916024808301926020929190829003018186803b15801561147757600080fd5b505afa15801561148b573d6000803e3d6000fd5b505050506040513d60208110156114a157600080fd5b50516001600160a01b031633145b806114c457506035546001600160a01b031633145b6114cd57600080fd5b506001600160a01b03166000908152603460205260409020600a015490565b336001600160a01b0384161480611586575060335460408051600160e01b633d5840630281526001600160a01b03868116600483015291519190921691633d584063916024808301926020929190829003018186803b15801561154e57600080fd5b505afa158015611562573d6000803e3d6000fd5b505050506040513d602081101561157857600080fd5b50516001600160a01b031633145b8061159b57506035546001600160a01b031633145b6115a457600080fd5b6001600160a01b03831660009081526034602052604090206108e8906003018383611e83565b6060336001600160a01b0383161480611666575060335460408051600160e01b633d5840630281526001600160a01b03858116600483015291519190921691633d584063916024808301926020929190829003018186803b15801561162e57600080fd5b505afa158015611642573d6000803e3d6000fd5b505050506040513d602081101561165857600080fd5b50516001600160a01b031633145b8061167b57506035546001600160a01b031633145b61168457600080fd5b6001600160a01b03821660009081526034602090815260409182902060050180548351601f600260001961010060018616150201909316929092049182018490048402810184019094528084529091830182828015610a645780601f10610a3957610100808354040283529160200191610a64565b60335460408051600160e01b633d5840630281526001600160a01b03858116600483015291519190921691633d584063916024808301926020929190829003018186803b15801561174957600080fd5b505afa15801561175d573d6000803e3d6000fd5b505050506040513d602081101561177357600080fd5b50516001600160a01b0316331461178957600080fd5b6001600160a01b038216600081815260346020908152604091829020848155600881015460099091015483519182529181019190915280820184905290517f8ba92ed9e27d8e9a4e63de720e2e8dbf35a0d01cdb6e6d4d8f5952e79654d64d9181900360600190a25050565b336001600160a01b038416148061188f575060335460408051600160e01b633d5840630281526001600160a01b03868116600483015291519190921691633d584063916024808301926020929190829003018186803b15801561185757600080fd5b505afa15801561186b573d6000803e3d6000fd5b505050506040513d602081101561188157600080fd5b50516001600160a01b031633145b806118a457506035546001600160a01b031633145b6118ad57600080fd5b6001600160a01b03831660009081526034602052604090206108e8906006018383611e83565b6060336001600160a01b038316148061196f575060335460408051600160e01b633d5840630281526001600160a01b03858116600483015291519190921691633d584063916024808301926020929190829003018186803b15801561193757600080fd5b505afa15801561194b573d6000803e3d6000fd5b505050506040513d602081101561196157600080fd5b50516001600160a01b031633145b8061198457506035546001600160a01b031633145b61198d57600080fd5b6001600160a01b03821660009081526034602090815260409182902060060180548351601f600260001961010060018616150201909316929092049182018490048402810184019094528084529091830182828015610a645780601f10610a3957610100808354040283529160200191610a64565b603380546001600160a01b039092166001600160a01b03199283161790556035805490911633179055565b336001600160a01b0384161480611ac7575060335460408051600160e01b633d5840630281526001600160a01b03868116600483015291519190921691633d584063916024808301926020929190829003018186803b158015611a8f57600080fd5b505afa158015611aa3573d6000803e3d6000fd5b505050506040513d6020811015611ab957600080fd5b50516001600160a01b031633145b80611adc57506035546001600160a01b031633145b611ae557600080fd5b6001600160a01b03831660009081526034602052604090206108e8906001018383611e83565b6000336001600160a01b0383161480611ba7575060335460408051600160e01b633d5840630281526001600160a01b03858116600483015291519190921691633d584063916024808301926020929190829003018186803b158015611b6f57600080fd5b505afa158015611b83573d6000803e3d6000fd5b505050506040513d6020811015611b9957600080fd5b50516001600160a01b031633145b80611bbc57506035546001600160a01b031633145b611bc557600080fd5b506001600160a01b03166000908152603460205260409020600c015490565b336001600160a01b0384161480611c7e575060335460408051600160e01b633d5840630281526001600160a01b03868116600483015291519190921691633d584063916024808301926020929190829003018186803b158015611c4657600080fd5b505afa158015611c5a573d6000803e3d6000fd5b505050506040513d6020811015611c7057600080fd5b50516001600160a01b031633145b80611c9357506035546001600160a01b031633145b611c9c57600080fd5b6001600160a01b0390921660009081526034602052604090206008810191909155600981019190915560019055565b336001600160a01b0383161480611d65575060335460408051600160e01b633d5840630281526001600160a01b03858116600483015291519190921691633d584063916024808301926020929190829003018186803b158015611d2d57600080fd5b505afa158015611d41573d6000803e3d6000fd5b505050506040513d6020811015611d5757600080fd5b50516001600160a01b031633145b80611d7a57506035546001600160a01b031633145b611d8357600080fd5b6001600160a01b039091166000908152603460205260409020600b81019190915560019055565b6000336001600160a01b0383161480611e46575060335460408051600160e01b633d5840630281526001600160a01b03858116600483015291519190921691633d584063916024808301926020929190829003018186803b158015611e0e57600080fd5b505afa158015611e22573d6000803e3d6000fd5b505050506040513d6020811015611e3857600080fd5b50516001600160a01b031633145b80611e5b57506035546001600160a01b031633145b611e6457600080fd5b506001600160a01b031660009081526034602052604090206007015490565b828054600181600116156101000203166002900490600052602060002090601f016020900481019282601f10611ec45782800160ff19823516178555611ef1565b82800160010185558215611ef1579182015b82811115611ef1578235825591602001919060010190611ed6565b50611efd929150611f01565b5090565b611f1b91905b80821115611efd5760008155600101611f07565b9056fea165627a7a72305820aaf31e03fdcad91f915dfd02794b0fc2b5b5608c76ea9f0135be3eefba1f16220029",
  "source": "// (c) Kallol Borah, 2020\r\n// Stores and retrieves client KYC data stored on IPFS\r\n\r\npragma solidity 0.5.7;\r\n\r\nimport \"../interfaces/VerifiedKYC.sol\";\r\nimport \"../interfaces/VerifiedClient.sol\";\r\nimport \"@openzeppelin/upgrades/contracts/Initializable.sol\";\r\n\r\ncontract Kyc is VerifiedKYC, Initializable{\r\n\r\n    //client file for references to various KYC related data\r\n    struct file{\r\n        uint256 kyc_status;\r\n        string kyc_file;\r\n        string fatca_declaration;\r\n        string crs_declaration; \r\n        string photo_id;\r\n        string video_id;\r\n        string address_proof;\r\n        bytes32 country;\r\n        bytes32 name;\r\n        bytes32 surname;\r\n        bytes32 phone;\r\n        bytes32 email;\r\n        bytes32 kyc_paid;\r\n    }\r\n\r\n    //reference of user client\r\n    VerifiedClient private User;\r\n\r\n    //mapping of a client to its kyc data\r\n    mapping(address => file) private client;\r\n\r\n    address admin;\r\n\r\n    //event emitted for kyc acceptance status\r\n    event KycUpdate(address indexed client, bytes32 name, bytes32 surname, uint status);\r\n\r\n    function initialize(address _client) public {\r\n        User = VerifiedClient(_client);\r\n        admin = msg.sender;\r\n    }\r\n\r\n    //setter and getter functions for kyc\r\n    function setStatus(address _client, uint _status) external {\r\n        require(msg.sender==User.getManager(_client));\r\n        client[_client].kyc_status = _status;\r\n        emit KycUpdate(_client, client[_client].name, client[_client].surname, _status);\r\n    } \r\n\r\n    function getStatus(address _client) external view returns(uint){\r\n        return client[_client].kyc_status;\r\n    }\r\n\r\n    /*function setKyc(address _client, bytes32 _file, bytes32 _fatca, \r\n                    bytes32 _crs, bytes32 _photoId, bytes32 _videoId, \r\n                    bytes32 _address, bytes32 _country) external {\r\n        require((msg.sender==_client || msg.sender==User.getManager(_client)));\r\n        client[_client].kyc_file = _file;\r\n        client[_client].fatca_declaration = _fatca;\r\n        client[_client].crs_declaration = _crs;\r\n        client[_client].photo_id = _photoId;\r\n        client[_client].video_id = _videoId;\r\n        client[_client].address_proof = _address;\r\n        client[_client].country = _country;\r\n    }\r\n\r\n    function getKyc(address _client) external view returns(bytes32, bytes32, bytes32, bytes32, \r\n                                                            bytes32, bytes32, bytes32){\r\n        require(msg.sender==_client || msg.sender==User.getManager(_client));\r\n        return (client[_client].kyc_file, \r\n                client[_client].fatca_declaration,\r\n                client[_client].crs_declaration,\r\n                client[_client].photo_id,\r\n                client[_client].video_id,\r\n                client[_client].address_proof,\r\n                client[_client].country   \r\n                );\r\n    }*/\r\n\r\n    function setFile(address _client, string calldata _file) external {\r\n        require(msg.sender==_client || msg.sender==User.getManager(_client) || msg.sender==admin);\r\n        client[_client].kyc_file = _file;\r\n        client[_client].kyc_status = 1;\r\n    }\r\n\r\n    function getFile(address _client) external view returns(string memory){\r\n        require(msg.sender==_client || msg.sender==User.getManager(_client) || msg.sender==admin);\r\n        return client[_client].kyc_file;\r\n    }\r\n\r\n    function setFATCA(address _client, string calldata _file) external {\r\n        require(msg.sender==_client || msg.sender==User.getManager(_client) || msg.sender==admin);\r\n        client[_client].fatca_declaration = _file;\r\n        client[_client].kyc_status = 1;\r\n    }\r\n\r\n    function getFATCA(address _client) external view returns(string memory){\r\n        require(msg.sender==_client || msg.sender==User.getManager(_client) || msg.sender==admin);\r\n        return client[_client].fatca_declaration;\r\n    }\r\n\r\n    function setCRS(address _client, string calldata _file) external {\r\n        require(msg.sender==_client || msg.sender==User.getManager(_client) || msg.sender==admin);\r\n        client[_client].crs_declaration = _file;\r\n        client[_client].kyc_status = 1;\r\n    }\r\n\r\n    function getCRS(address _client) external view returns(string memory){\r\n        require(msg.sender==_client || msg.sender==User.getManager(_client) || msg.sender==admin);\r\n        return client[_client].crs_declaration;\r\n    }\r\n\r\n    function setPhotoID(address _client, string calldata _file) external {\r\n        require(msg.sender==_client || msg.sender==User.getManager(_client) || msg.sender==admin);\r\n        client[_client].photo_id = _file;\r\n        client[_client].kyc_status = 1;\r\n    }\r\n\r\n    function getPhotoID(address _client) external view returns(string memory){\r\n        require(msg.sender==_client || msg.sender==User.getManager(_client) || msg.sender==admin);\r\n        return client[_client].photo_id;\r\n    }\r\n\r\n    function setVideoID(address _client, string calldata _file) external {\r\n        require(msg.sender==_client || msg.sender==User.getManager(_client) || msg.sender==admin);\r\n        client[_client].video_id = _file;\r\n        client[_client].kyc_status = 1;\r\n    }\r\n\r\n    function getVideoID(address _client) external view returns(string memory){\r\n        require(msg.sender==_client || msg.sender==User.getManager(_client) || msg.sender==admin);\r\n        return client[_client].video_id;\r\n    }\r\n\r\n    function setAddress(address _client, string calldata _file) external {\r\n        require(msg.sender==_client || msg.sender==User.getManager(_client) || msg.sender==admin);\r\n        client[_client].address_proof = _file;\r\n        client[_client].kyc_status = 1;\r\n    }\r\n\r\n    function getAddress(address _client) external view returns(string memory){\r\n        require(msg.sender==_client || msg.sender==User.getManager(_client) || msg.sender==admin);\r\n        return client[_client].address_proof;\r\n    }\r\n\r\n    function setCountry(address _client, bytes32 _country) external {\r\n        require(msg.sender==_client || msg.sender==User.getManager(_client) || msg.sender==admin);\r\n        client[_client].country = _country;\r\n        client[_client].kyc_status = 1;\r\n    }\r\n\r\n    function getCountry(address _client) external view returns(bytes32){\r\n        require(msg.sender==_client || msg.sender==User.getManager(_client) || msg.sender==admin);\r\n        return client[_client].country;\r\n    }\r\n\r\n    function setName(address _client, bytes32 _name, bytes32 _surname) external {\r\n        require(msg.sender==_client || msg.sender==User.getManager(_client) || msg.sender==admin);\r\n        client[_client].name = _name;\r\n        client[_client].surname = _surname;\r\n        client[_client].kyc_status = 1;\r\n    }\r\n\r\n    function getName(address _client) external view returns(bytes32, bytes32){\r\n        require(msg.sender==_client || msg.sender==User.getManager(_client) || msg.sender==admin);\r\n        return (client[_client].name, client[_client].surname);\r\n    }\r\n\r\n    function setPhone(address _client, bytes32 _phone) external {\r\n        require(msg.sender==_client || msg.sender==User.getManager(_client) || msg.sender==admin);\r\n        client[_client].phone = _phone;\r\n        client[_client].kyc_status = 1;\r\n    }\r\n\r\n    function getPhone(address _client) external view returns(bytes32){\r\n        require(msg.sender==_client || msg.sender==User.getManager(_client) || msg.sender==admin);\r\n        return client[_client].phone;\r\n    }    \r\n\r\n    function setEmail(address _client, bytes32 _email) external {\r\n        require(msg.sender==_client || msg.sender==User.getManager(_client) || msg.sender==admin);\r\n        client[_client].email = _email;\r\n        client[_client].kyc_status = 1;\r\n    }\r\n\r\n    function getEmail(address _client) external view returns(bytes32){\r\n        require(msg.sender==_client || msg.sender==User.getManager(_client) || msg.sender==admin);\r\n        return client[_client].email;\r\n    }   \r\n\r\n    function setKYCPaid(address _client, bytes32 _paid) external {\r\n        require(msg.sender==User.getManager(_client) || msg.sender==admin);\r\n        client[_client].kyc_paid = _paid;\r\n    }\r\n\r\n    function getKYCPaid(address _client) external view returns(bytes32){\r\n        require(msg.sender==_client || msg.sender==User.getManager(_client) || msg.sender==admin);\r\n        return client[_client].kyc_paid;\r\n    }\r\n\r\n}\r\n",
  "sourcePath": "D:\\Code\\verified-accounts\\contracts\\kyc\\Kyc.sol",
  "compiler": {
    "name": "solc",
    "version": "0.5.7+commit.6da8b019.Emscripten.clang"
  },
  "schemaVersion": "3.4.3",
  "updatedAt": "2022-01-15T14:01:04.574Z",
  "networkType": "ethereum",
  "devdoc": {
    "methods": {}
  },
  "userdoc": {
    "methods": {}
  }
}