{
  "contractName": "Kyc",
  "abi": [
    {
      "anonymous": false,
      "inputs": [
        {
          "indexed": true,
          "name": "client",
          "type": "address"
        },
        {
          "indexed": false,
          "name": "status",
          "type": "uint256"
        }
      ],
      "name": "KycUpdate",
      "type": "event"
    },
    {
      "constant": false,
      "inputs": [
        {
          "name": "_client",
          "type": "address"
        }
      ],
      "name": "initialize",
      "outputs": [],
      "payable": false,
      "stateMutability": "nonpayable",
      "type": "function"
    },
    {
      "constant": false,
      "inputs": [
        {
          "name": "_client",
          "type": "address"
        },
        {
          "name": "_status",
          "type": "uint256"
        }
      ],
      "name": "setStatus",
      "outputs": [],
      "payable": false,
      "stateMutability": "nonpayable",
      "type": "function"
    },
    {
      "constant": true,
      "inputs": [
        {
          "name": "_client",
          "type": "address"
        }
      ],
      "name": "getStatus",
      "outputs": [
        {
          "name": "",
          "type": "uint256"
        }
      ],
      "payable": false,
      "stateMutability": "view",
      "type": "function"
    },
    {
      "constant": false,
      "inputs": [
        {
          "name": "_client",
          "type": "address"
        },
        {
          "name": "_file",
          "type": "bytes32"
        },
        {
          "name": "_fatca",
          "type": "bytes32"
        },
        {
          "name": "_crs",
          "type": "bytes32"
        },
        {
          "name": "_photoId",
          "type": "bytes32"
        },
        {
          "name": "_videoId",
          "type": "bytes32"
        },
        {
          "name": "_address",
          "type": "bytes32"
        },
        {
          "name": "_country",
          "type": "bytes32"
        }
      ],
      "name": "setKyc",
      "outputs": [],
      "payable": false,
      "stateMutability": "nonpayable",
      "type": "function"
    },
    {
      "constant": true,
      "inputs": [
        {
          "name": "_client",
          "type": "address"
        }
      ],
      "name": "getKyc",
      "outputs": [
        {
          "name": "",
          "type": "bytes32"
        },
        {
          "name": "",
          "type": "bytes32"
        },
        {
          "name": "",
          "type": "bytes32"
        },
        {
          "name": "",
          "type": "bytes32"
        },
        {
          "name": "",
          "type": "bytes32"
        },
        {
          "name": "",
          "type": "bytes32"
        },
        {
          "name": "",
          "type": "bytes32"
        }
      ],
      "payable": false,
      "stateMutability": "view",
      "type": "function"
    },
    {
      "constant": false,
      "inputs": [
        {
          "name": "_client",
          "type": "address"
        },
        {
          "name": "_file",
          "type": "bytes32"
        }
      ],
      "name": "setFile",
      "outputs": [],
      "payable": false,
      "stateMutability": "nonpayable",
      "type": "function"
    },
    {
      "constant": true,
      "inputs": [
        {
          "name": "_client",
          "type": "address"
        }
      ],
      "name": "getFile",
      "outputs": [
        {
          "name": "",
          "type": "bytes32"
        }
      ],
      "payable": false,
      "stateMutability": "view",
      "type": "function"
    },
    {
      "constant": false,
      "inputs": [
        {
          "name": "_client",
          "type": "address"
        },
        {
          "name": "_file",
          "type": "bytes32"
        }
      ],
      "name": "setFATCA",
      "outputs": [],
      "payable": false,
      "stateMutability": "nonpayable",
      "type": "function"
    },
    {
      "constant": true,
      "inputs": [
        {
          "name": "_client",
          "type": "address"
        }
      ],
      "name": "getFATCA",
      "outputs": [
        {
          "name": "",
          "type": "bytes32"
        }
      ],
      "payable": false,
      "stateMutability": "view",
      "type": "function"
    },
    {
      "constant": false,
      "inputs": [
        {
          "name": "_client",
          "type": "address"
        },
        {
          "name": "_file",
          "type": "bytes32"
        }
      ],
      "name": "setCRS",
      "outputs": [],
      "payable": false,
      "stateMutability": "nonpayable",
      "type": "function"
    },
    {
      "constant": true,
      "inputs": [
        {
          "name": "_client",
          "type": "address"
        }
      ],
      "name": "getCRS",
      "outputs": [
        {
          "name": "",
          "type": "bytes32"
        }
      ],
      "payable": false,
      "stateMutability": "view",
      "type": "function"
    },
    {
      "constant": false,
      "inputs": [
        {
          "name": "_client",
          "type": "address"
        },
        {
          "name": "_file",
          "type": "bytes32"
        }
      ],
      "name": "setPhotoID",
      "outputs": [],
      "payable": false,
      "stateMutability": "nonpayable",
      "type": "function"
    },
    {
      "constant": true,
      "inputs": [
        {
          "name": "_client",
          "type": "address"
        }
      ],
      "name": "getPhotoID",
      "outputs": [
        {
          "name": "",
          "type": "bytes32"
        }
      ],
      "payable": false,
      "stateMutability": "view",
      "type": "function"
    },
    {
      "constant": false,
      "inputs": [
        {
          "name": "_client",
          "type": "address"
        },
        {
          "name": "_file",
          "type": "bytes32"
        }
      ],
      "name": "setVideoID",
      "outputs": [],
      "payable": false,
      "stateMutability": "nonpayable",
      "type": "function"
    },
    {
      "constant": true,
      "inputs": [
        {
          "name": "_client",
          "type": "address"
        }
      ],
      "name": "getVideoID",
      "outputs": [
        {
          "name": "",
          "type": "bytes32"
        }
      ],
      "payable": false,
      "stateMutability": "view",
      "type": "function"
    },
    {
      "constant": false,
      "inputs": [
        {
          "name": "_client",
          "type": "address"
        },
        {
          "name": "_file",
          "type": "bytes32"
        }
      ],
      "name": "setAddress",
      "outputs": [],
      "payable": false,
      "stateMutability": "nonpayable",
      "type": "function"
    },
    {
      "constant": true,
      "inputs": [
        {
          "name": "_client",
          "type": "address"
        }
      ],
      "name": "getAddress",
      "outputs": [
        {
          "name": "",
          "type": "bytes32"
        }
      ],
      "payable": false,
      "stateMutability": "view",
      "type": "function"
    },
    {
      "constant": false,
      "inputs": [
        {
          "name": "_client",
          "type": "address"
        },
        {
          "name": "_country",
          "type": "bytes32"
        }
      ],
      "name": "setCountry",
      "outputs": [],
      "payable": false,
      "stateMutability": "nonpayable",
      "type": "function"
    },
    {
      "constant": true,
      "inputs": [
        {
          "name": "_client",
          "type": "address"
        }
      ],
      "name": "getCountry",
      "outputs": [
        {
          "name": "",
          "type": "bytes32"
        }
      ],
      "payable": false,
      "stateMutability": "view",
      "type": "function"
    }
  ],
  "bytecode": "0x608060405234801561001057600080fd5b5061127b806100206000396000f3fe608060405234801561001057600080fd5b50600436106101215760003560e01c80637a68f5a9116100ad578063ab13c1c011610071578063ab13c1c0146103a3578063ae22c57d146103cf578063c4d66de8146103f5578063caf8340a1461041b578063d821f92d1461047957610121565b80637a68f5a9146102cd5780637e55d59c146102f3578063851d014a1461031f57806390c06ef51461034b5780639562fdf31461037757610121565b806330ccebb5116100f457806330ccebb5146101de57806332190dea146102045780633ed93c4f146102305780635557452c146102565780635d962a95146102a757610121565b80630b87c1e0146101265780631d7d32371461015e578063245a753a1461018c57806327f08b31146101b8575b600080fd5b61014c6004803603602081101561013c57600080fd5b50356001600160a01b031661049f565b60408051918252519081900360200190f35b61018a6004803603604081101561017457600080fd5b506001600160a01b038135169060200135610563565b005b61018a600480360360408110156101a257600080fd5b506001600160a01b038135169060200135610625565b61014c600480360360208110156101ce57600080fd5b50356001600160a01b03166106e7565b61014c600480360360208110156101f457600080fd5b50356001600160a01b03166107ab565b61018a6004803603604081101561021a57600080fd5b506001600160a01b0381351690602001356107c6565b61014c6004803603602081101561024657600080fd5b50356001600160a01b0316610888565b61018a600480360361010081101561026d57600080fd5b506001600160a01b038135169060208101359060408101359060608101359060808101359060a08101359060c08101359060e0013561094c565b61014c600480360360208110156102bd57600080fd5b50356001600160a01b0316610a35565b61014c600480360360208110156102e357600080fd5b50356001600160a01b0316610af9565b61018a6004803603604081101561030957600080fd5b506001600160a01b038135169060200135610bbd565b61018a6004803603604081101561033557600080fd5b506001600160a01b038135169060200135610ca1565b61018a6004803603604081101561036157600080fd5b506001600160a01b038135169060200135610d63565b61018a6004803603604081101561038d57600080fd5b506001600160a01b038135169060200135610e25565b61018a600480360360408110156103b957600080fd5b506001600160a01b038135169060200135610ee7565b61014c600480360360208110156103e557600080fd5b50356001600160a01b0316610fa9565b61018a6004803603602081101561040b57600080fd5b50356001600160a01b031661106d565b6104416004803603602081101561043157600080fd5b50356001600160a01b031661108f565b604080519788526020880196909652868601949094526060860192909252608085015260a084015260c0830152519081900360e00190f35b61014c6004803603602081101561048f57600080fd5b50356001600160a01b031661118b565b6000336001600160a01b038316148061053b575060335460408051600160e01b633d5840630281526001600160a01b03858116600483015291519190921691633d584063916024808301926020929190829003018186803b15801561050357600080fd5b505afa158015610517573d6000803e3d6000fd5b505050506040513d602081101561052d57600080fd5b50516001600160a01b031633145b61054457600080fd5b506001600160a01b031660009081526034602052604090206001015490565b336001600160a01b03831614806105fd575060335460408051600160e01b633d5840630281526001600160a01b03858116600483015291519190921691633d584063916024808301926020929190829003018186803b1580156105c557600080fd5b505afa1580156105d9573d6000803e3d6000fd5b505050506040513d60208110156105ef57600080fd5b50516001600160a01b031633145b61060657600080fd5b6001600160a01b03909116600090815260346020526040902060070155565b336001600160a01b03831614806106bf575060335460408051600160e01b633d5840630281526001600160a01b03858116600483015291519190921691633d584063916024808301926020929190829003018186803b15801561068757600080fd5b505afa15801561069b573d6000803e3d6000fd5b505050506040513d60208110156106b157600080fd5b50516001600160a01b031633145b6106c857600080fd5b6001600160a01b03909116600090815260346020526040902060010155565b6000336001600160a01b0383161480610783575060335460408051600160e01b633d5840630281526001600160a01b03858116600483015291519190921691633d584063916024808301926020929190829003018186803b15801561074b57600080fd5b505afa15801561075f573d6000803e3d6000fd5b505050506040513d602081101561077557600080fd5b50516001600160a01b031633145b61078c57600080fd5b506001600160a01b031660009081526034602052604090206004015490565b6001600160a01b031660009081526034602052604090205490565b336001600160a01b0383161480610860575060335460408051600160e01b633d5840630281526001600160a01b03858116600483015291519190921691633d584063916024808301926020929190829003018186803b15801561082857600080fd5b505afa15801561083c573d6000803e3d6000fd5b505050506040513d602081101561085257600080fd5b50516001600160a01b031633145b61086957600080fd5b6001600160a01b03909116600090815260346020526040902060060155565b6000336001600160a01b0383161480610924575060335460408051600160e01b633d5840630281526001600160a01b03858116600483015291519190921691633d584063916024808301926020929190829003018186803b1580156108ec57600080fd5b505afa158015610900573d6000803e3d6000fd5b505050506040513d602081101561091657600080fd5b50516001600160a01b031633145b61092d57600080fd5b506001600160a01b031660009081526034602052604090206002015490565b336001600160a01b03891614806109e6575060335460408051600160e01b633d5840630281526001600160a01b038b8116600483015291519190921691633d584063916024808301926020929190829003018186803b1580156109ae57600080fd5b505afa1580156109c2573d6000803e3d6000fd5b505050506040513d60208110156109d857600080fd5b50516001600160a01b031633145b6109ef57600080fd5b6001600160a01b03909716600090815260346020526040902060018101969096556002860194909455600385019290925560048401556005830155600682015560070155565b6000336001600160a01b0383161480610ad1575060335460408051600160e01b633d5840630281526001600160a01b03858116600483015291519190921691633d584063916024808301926020929190829003018186803b158015610a9957600080fd5b505afa158015610aad573d6000803e3d6000fd5b505050506040513d6020811015610ac357600080fd5b50516001600160a01b031633145b610ada57600080fd5b506001600160a01b031660009081526034602052604090206003015490565b6000336001600160a01b0383161480610b95575060335460408051600160e01b633d5840630281526001600160a01b03858116600483015291519190921691633d584063916024808301926020929190829003018186803b158015610b5d57600080fd5b505afa158015610b71573d6000803e3d6000fd5b505050506040513d6020811015610b8757600080fd5b50516001600160a01b031633145b610b9e57600080fd5b506001600160a01b031660009081526034602052604090206005015490565b60335460408051600160e01b633d5840630281526001600160a01b03858116600483015291519190921691633d584063916024808301926020929190829003018186803b158015610c0d57600080fd5b505afa158015610c21573d6000803e3d6000fd5b505050506040513d6020811015610c3757600080fd5b50516001600160a01b03163314610c4d57600080fd5b6001600160a01b038216600081815260346020908152604091829020849055815184815291517f6bb2bae938f2b3e73626c0b6c105e943892f9ce2ddf783ebc28feca02891f54a9281900390910190a25050565b336001600160a01b0383161480610d3b575060335460408051600160e01b633d5840630281526001600160a01b03858116600483015291519190921691633d584063916024808301926020929190829003018186803b158015610d0357600080fd5b505afa158015610d17573d6000803e3d6000fd5b505050506040513d6020811015610d2d57600080fd5b50516001600160a01b031633145b610d4457600080fd5b6001600160a01b03909116600090815260346020526040902060040155565b336001600160a01b0383161480610dfd575060335460408051600160e01b633d5840630281526001600160a01b03858116600483015291519190921691633d584063916024808301926020929190829003018186803b158015610dc557600080fd5b505afa158015610dd9573d6000803e3d6000fd5b505050506040513d6020811015610def57600080fd5b50516001600160a01b031633145b610e0657600080fd5b6001600160a01b03909116600090815260346020526040902060050155565b336001600160a01b0383161480610ebf575060335460408051600160e01b633d5840630281526001600160a01b03858116600483015291519190921691633d584063916024808301926020929190829003018186803b158015610e8757600080fd5b505afa158015610e9b573d6000803e3d6000fd5b505050506040513d6020811015610eb157600080fd5b50516001600160a01b031633145b610ec857600080fd5b6001600160a01b03909116600090815260346020526040902060030155565b336001600160a01b0383161480610f81575060335460408051600160e01b633d5840630281526001600160a01b03858116600483015291519190921691633d584063916024808301926020929190829003018186803b158015610f4957600080fd5b505afa158015610f5d573d6000803e3d6000fd5b505050506040513d6020811015610f7357600080fd5b50516001600160a01b031633145b610f8a57600080fd5b6001600160a01b03909116600090815260346020526040902060020155565b6000336001600160a01b0383161480611045575060335460408051600160e01b633d5840630281526001600160a01b03858116600483015291519190921691633d584063916024808301926020929190829003018186803b15801561100d57600080fd5b505afa158015611021573d6000803e3d6000fd5b505050506040513d602081101561103757600080fd5b50516001600160a01b031633145b61104e57600080fd5b506001600160a01b031660009081526034602052604090206006015490565b603380546001600160a01b0319166001600160a01b0392909216919091179055565b6000808080808080336001600160a01b0389161480611131575060335460408051600160e01b633d5840630281526001600160a01b038b8116600483015291519190921691633d584063916024808301926020929190829003018186803b1580156110f957600080fd5b505afa15801561110d573d6000803e3d6000fd5b505050506040513d602081101561112357600080fd5b50516001600160a01b031633145b61113a57600080fd5b505050506001600160a01b0393909316600090815260346020526040902060018101546002820154600383015460048401546005850154600686015460079096015494999398509196509450929190565b6000336001600160a01b0383161480611227575060335460408051600160e01b633d5840630281526001600160a01b03858116600483015291519190921691633d584063916024808301926020929190829003018186803b1580156111ef57600080fd5b505afa158015611203573d6000803e3d6000fd5b505050506040513d602081101561121957600080fd5b50516001600160a01b031633145b61123057600080fd5b506001600160a01b03166000908152603460205260409020600701549056fea165627a7a72305820c7faad0dea5264bf247a70e91f1610ec85c1ea8f00845df3b1d87e6f777513b80029",
  "source": "// (c) Kallol Borah, 2020\r\n// Stores and retrieves client KYC data stored on IPFS\r\n\r\npragma solidity 0.5.7;\r\n\r\nimport \"../interfaces/VerifiedKYC.sol\";\r\nimport \"../interfaces/VerifiedClient.sol\";\r\nimport \"@openzeppelin/upgrades/contracts/Initializable.sol\";\r\n\r\ncontract Kyc is VerifiedKYC, Initializable{\r\n\r\n    //client file for references to various KYC related data\r\n    struct file{\r\n        uint256 kyc_status;\r\n        bytes32 kyc_file;\r\n        bytes32 fatca_declaration;\r\n        bytes32 crs_declaration; \r\n        bytes32 photo_id;\r\n        bytes32 video_id;\r\n        bytes32 address_proof;\r\n        bytes32 country;\r\n    }\r\n\r\n    //reference of user client\r\n    VerifiedClient private User;\r\n\r\n    //mapping of a client to its kyc data\r\n    mapping(address => file) private client;\r\n\r\n    //event emitted for kyc acceptance status\r\n    event KycUpdate(address indexed client, uint status);\r\n\r\n    function initialize(address _client) public {\r\n        User = VerifiedClient(_client);\r\n    }\r\n\r\n    //setter and getter functions for kyc\r\n    function setStatus(address _client, uint _status) external {\r\n        require(msg.sender==User.getManager(_client));\r\n        client[_client].kyc_status = _status;\r\n        emit KycUpdate(_client, _status);\r\n    } \r\n\r\n    function getStatus(address _client) external view returns(uint){\r\n        return client[_client].kyc_status;\r\n    }\r\n\r\n    function setKyc(address _client, bytes32 _file, bytes32 _fatca, bytes32 _crs, bytes32 _photoId, bytes32 _videoId, bytes32 _address, bytes32 _country) external {\r\n        require((msg.sender==_client || msg.sender==User.getManager(_client)));\r\n        client[_client].kyc_file = _file;\r\n        client[_client].fatca_declaration = _fatca;\r\n        client[_client].crs_declaration = _crs;\r\n        client[_client].photo_id = _photoId;\r\n        client[_client].video_id = _videoId;\r\n        client[_client].address_proof = _address;\r\n        client[_client].country = _country;\r\n    }\r\n\r\n    function getKyc(address _client) external view returns(bytes32, bytes32, bytes32, bytes32, bytes32, bytes32, bytes32){\r\n        require(msg.sender==_client || msg.sender==User.getManager(_client));\r\n        return (client[_client].kyc_file, \r\n                client[_client].fatca_declaration,\r\n                client[_client].crs_declaration,\r\n                client[_client].photo_id,\r\n                client[_client].video_id,\r\n                client[_client].address_proof,\r\n                client[_client].country   \r\n                );\r\n    }\r\n\r\n    function setFile(address _client, bytes32 _file) external {\r\n        require((msg.sender==_client || msg.sender==User.getManager(_client)));\r\n        client[_client].kyc_file = _file;\r\n    }\r\n\r\n    function getFile(address _client) external view returns(bytes32){\r\n        require(msg.sender==_client || msg.sender==User.getManager(_client));\r\n        return client[_client].kyc_file;\r\n    }\r\n\r\n    function setFATCA(address _client, bytes32 _file) external {\r\n        require(msg.sender==_client || msg.sender==User.getManager(_client));\r\n        client[_client].fatca_declaration = _file;\r\n    }\r\n\r\n    function getFATCA(address _client) external view returns(bytes32){\r\n        require(msg.sender==_client || msg.sender==User.getManager(_client));\r\n        return client[_client].fatca_declaration;\r\n    }\r\n\r\n    function setCRS(address _client, bytes32 _file) external {\r\n        require(msg.sender==_client || msg.sender==User.getManager(_client));\r\n        client[_client].crs_declaration = _file;\r\n    }\r\n\r\n    function getCRS(address _client) external view returns(bytes32){\r\n        require(msg.sender==_client || msg.sender==User.getManager(_client));\r\n        return client[_client].crs_declaration;\r\n    }\r\n\r\n    function setPhotoID(address _client, bytes32 _file) external {\r\n        require(msg.sender==_client || msg.sender==User.getManager(_client));\r\n        client[_client].photo_id = _file;\r\n    }\r\n\r\n    function getPhotoID(address _client) external view returns(bytes32){\r\n        require(msg.sender==_client || msg.sender==User.getManager(_client));\r\n        return client[_client].photo_id;\r\n    }\r\n\r\n    function setVideoID(address _client, bytes32 _file) external {\r\n        require(msg.sender==_client || msg.sender==User.getManager(_client));\r\n        client[_client].video_id = _file;\r\n    }\r\n\r\n    function getVideoID(address _client) external view returns(bytes32){\r\n        require(msg.sender==_client || msg.sender==User.getManager(_client));\r\n        return client[_client].video_id;\r\n    }\r\n\r\n    function setAddress(address _client, bytes32 _file) external {\r\n        require(msg.sender==_client || msg.sender==User.getManager(_client));\r\n        client[_client].address_proof = _file;\r\n    }\r\n\r\n    function getAddress(address _client) external view returns(bytes32){\r\n        require(msg.sender==_client || msg.sender==User.getManager(_client));\r\n        return client[_client].address_proof;\r\n    }\r\n\r\n    function setCountry(address _client, bytes32 _country) external {\r\n        require(msg.sender==_client || msg.sender==User.getManager(_client));\r\n        client[_client].country = _country;\r\n    }\r\n\r\n    function getCountry(address _client) external view returns(bytes32){\r\n        require(msg.sender==_client || msg.sender==User.getManager(_client));\r\n        return client[_client].country;\r\n    }\r\n\r\n}\r\n",
  "sourcePath": "D:\\Code\\verified-accounts\\contracts\\kyc\\Kyc.sol",
  "compiler": {
    "name": "solc",
    "version": "0.5.7+commit.6da8b019.Emscripten.clang"
  },
  "schemaVersion": "3.4.3",
  "updatedAt": "2021-09-14T15:53:30.203Z",
  "networkType": "ethereum",
  "devdoc": {
    "methods": {}
  },
  "userdoc": {
    "methods": {}
  }
}