{
  "contractName": "Kyc",
  "abi": [
    {
      "anonymous": false,
      "inputs": [
        {
          "indexed": true,
          "name": "client",
          "type": "address"
        },
        {
          "indexed": false,
          "name": "status",
          "type": "uint256"
        }
      ],
      "name": "KycUpdate",
      "type": "event"
    },
    {
      "constant": false,
      "inputs": [
        {
          "name": "_client",
          "type": "address"
        }
      ],
      "name": "initialize",
      "outputs": [],
      "payable": false,
      "stateMutability": "nonpayable",
      "type": "function"
    },
    {
      "constant": false,
      "inputs": [
        {
          "name": "_client",
          "type": "address"
        },
        {
          "name": "_status",
          "type": "uint256"
        }
      ],
      "name": "setStatus",
      "outputs": [],
      "payable": false,
      "stateMutability": "nonpayable",
      "type": "function"
    },
    {
      "constant": true,
      "inputs": [
        {
          "name": "_client",
          "type": "address"
        }
      ],
      "name": "getStatus",
      "outputs": [
        {
          "name": "",
          "type": "uint256"
        }
      ],
      "payable": false,
      "stateMutability": "view",
      "type": "function"
    },
    {
      "constant": false,
      "inputs": [
        {
          "name": "_client",
          "type": "address"
        },
        {
          "name": "_file",
          "type": "string"
        }
      ],
      "name": "setFile",
      "outputs": [],
      "payable": false,
      "stateMutability": "nonpayable",
      "type": "function"
    },
    {
      "constant": true,
      "inputs": [
        {
          "name": "_client",
          "type": "address"
        }
      ],
      "name": "getFile",
      "outputs": [
        {
          "name": "",
          "type": "string"
        }
      ],
      "payable": false,
      "stateMutability": "view",
      "type": "function"
    },
    {
      "constant": false,
      "inputs": [
        {
          "name": "_client",
          "type": "address"
        },
        {
          "name": "_file",
          "type": "string"
        }
      ],
      "name": "setFATCA",
      "outputs": [],
      "payable": false,
      "stateMutability": "nonpayable",
      "type": "function"
    },
    {
      "constant": true,
      "inputs": [
        {
          "name": "_client",
          "type": "address"
        }
      ],
      "name": "getFATCA",
      "outputs": [
        {
          "name": "",
          "type": "string"
        }
      ],
      "payable": false,
      "stateMutability": "view",
      "type": "function"
    },
    {
      "constant": false,
      "inputs": [
        {
          "name": "_client",
          "type": "address"
        },
        {
          "name": "_file",
          "type": "string"
        }
      ],
      "name": "setCRS",
      "outputs": [],
      "payable": false,
      "stateMutability": "nonpayable",
      "type": "function"
    },
    {
      "constant": true,
      "inputs": [
        {
          "name": "_client",
          "type": "address"
        }
      ],
      "name": "getCRS",
      "outputs": [
        {
          "name": "",
          "type": "string"
        }
      ],
      "payable": false,
      "stateMutability": "view",
      "type": "function"
    },
    {
      "constant": false,
      "inputs": [
        {
          "name": "_client",
          "type": "address"
        },
        {
          "name": "_file",
          "type": "string"
        }
      ],
      "name": "setPhotoID",
      "outputs": [],
      "payable": false,
      "stateMutability": "nonpayable",
      "type": "function"
    },
    {
      "constant": true,
      "inputs": [
        {
          "name": "_client",
          "type": "address"
        }
      ],
      "name": "getPhotoID",
      "outputs": [
        {
          "name": "",
          "type": "string"
        }
      ],
      "payable": false,
      "stateMutability": "view",
      "type": "function"
    },
    {
      "constant": false,
      "inputs": [
        {
          "name": "_client",
          "type": "address"
        },
        {
          "name": "_file",
          "type": "string"
        }
      ],
      "name": "setVideoID",
      "outputs": [],
      "payable": false,
      "stateMutability": "nonpayable",
      "type": "function"
    },
    {
      "constant": true,
      "inputs": [
        {
          "name": "_client",
          "type": "address"
        }
      ],
      "name": "getVideoID",
      "outputs": [
        {
          "name": "",
          "type": "string"
        }
      ],
      "payable": false,
      "stateMutability": "view",
      "type": "function"
    },
    {
      "constant": false,
      "inputs": [
        {
          "name": "_client",
          "type": "address"
        },
        {
          "name": "_file",
          "type": "string"
        }
      ],
      "name": "setAddress",
      "outputs": [],
      "payable": false,
      "stateMutability": "nonpayable",
      "type": "function"
    },
    {
      "constant": true,
      "inputs": [
        {
          "name": "_client",
          "type": "address"
        }
      ],
      "name": "getAddress",
      "outputs": [
        {
          "name": "",
          "type": "string"
        }
      ],
      "payable": false,
      "stateMutability": "view",
      "type": "function"
    },
    {
      "constant": false,
      "inputs": [
        {
          "name": "_client",
          "type": "address"
        },
        {
          "name": "_country",
          "type": "bytes32"
        }
      ],
      "name": "setCountry",
      "outputs": [],
      "payable": false,
      "stateMutability": "nonpayable",
      "type": "function"
    },
    {
      "constant": true,
      "inputs": [
        {
          "name": "_client",
          "type": "address"
        }
      ],
      "name": "getCountry",
      "outputs": [
        {
          "name": "",
          "type": "bytes32"
        }
      ],
      "payable": false,
      "stateMutability": "view",
      "type": "function"
    },
    {
      "constant": false,
      "inputs": [
        {
          "name": "_client",
          "type": "address"
        },
        {
          "name": "_name",
          "type": "bytes32"
        },
        {
          "name": "_surname",
          "type": "bytes32"
        }
      ],
      "name": "setName",
      "outputs": [],
      "payable": false,
      "stateMutability": "nonpayable",
      "type": "function"
    },
    {
      "constant": true,
      "inputs": [
        {
          "name": "_client",
          "type": "address"
        }
      ],
      "name": "getName",
      "outputs": [
        {
          "name": "",
          "type": "bytes32"
        },
        {
          "name": "",
          "type": "bytes32"
        }
      ],
      "payable": false,
      "stateMutability": "view",
      "type": "function"
    },
    {
      "constant": false,
      "inputs": [
        {
          "name": "_client",
          "type": "address"
        },
        {
          "name": "_phone",
          "type": "bytes32"
        }
      ],
      "name": "setPhone",
      "outputs": [],
      "payable": false,
      "stateMutability": "nonpayable",
      "type": "function"
    },
    {
      "constant": true,
      "inputs": [
        {
          "name": "_client",
          "type": "address"
        }
      ],
      "name": "getPhone",
      "outputs": [
        {
          "name": "",
          "type": "bytes32"
        }
      ],
      "payable": false,
      "stateMutability": "view",
      "type": "function"
    },
    {
      "constant": false,
      "inputs": [
        {
          "name": "_client",
          "type": "address"
        },
        {
          "name": "_email",
          "type": "bytes32"
        }
      ],
      "name": "setEmail",
      "outputs": [],
      "payable": false,
      "stateMutability": "nonpayable",
      "type": "function"
    },
    {
      "constant": true,
      "inputs": [
        {
          "name": "_client",
          "type": "address"
        }
      ],
      "name": "getEmail",
      "outputs": [
        {
          "name": "",
          "type": "bytes32"
        }
      ],
      "payable": false,
      "stateMutability": "view",
      "type": "function"
    }
  ],
  "bytecode": "0x608060405234801561001057600080fd5b50611c0c806100206000396000f3fe608060405234801561001057600080fd5b506004361061014d5760003560e01c80635fd4b08a116100c3578063ae22c57d1161007c578063ae22c57d14610644578063c4d66de81461066a578063ceb2f04114610690578063d36f5e621461070e578063d4bc088914610740578063d821f92d1461076c5761014d565b80635fd4b08a1461049157806362714a14146104d05780636ea753db146104f65780637a68f5a9146105745780637e55d59c1461059a57806391200099146105c65761014d565b806330ccebb51161011557806330ccebb51461033d578063323baff1146103755780633ed93c4f146103a1578063478da929146103c75780634fa7353c146104455780635d962a951461046b5761014d565b806304047e97146101525780630b87c1e0146101d25780631d7d32371461026d57806327f08b3114610299578063297d4d55146102bf575b600080fd5b6101d06004803603604081101561016857600080fd5b6001600160a01b038235169190810190604081016020820135600160201b81111561019257600080fd5b8201836020820111156101a457600080fd5b803590602001918460018302840111600160201b831117156101c557600080fd5b509092509050610792565b005b6101f8600480360360208110156101e857600080fd5b50356001600160a01b031661087b565b6040805160208082528351818301528351919283929083019185019080838360005b8381101561023257818101518382015260200161021a565b50505050905090810190601f16801561025f5780820380516001836020036101000a031916815260200191505b509250505060405180910390f35b6101d06004803603604081101561028357600080fd5b506001600160a01b0381351690602001356109ce565b6101f8600480360360208110156102af57600080fd5b50356001600160a01b0316610aad565b6101d0600480360360408110156102d557600080fd5b6001600160a01b038235169190810190604081016020820135600160201b8111156102ff57600080fd5b82018360208201111561031157600080fd5b803590602001918460018302840111600160201b8311171561033257600080fd5b509092509050610bc7565b6103636004803603602081101561035357600080fd5b50356001600160a01b0316610ca5565b60408051918252519081900360200190f35b6101d06004803603604081101561038b57600080fd5b506001600160a01b038135169060200135610cc0565b6101f8600480360360208110156103b757600080fd5b50356001600160a01b0316610d9f565b6101d0600480360360408110156103dd57600080fd5b6001600160a01b038235169190810190604081016020820135600160201b81111561040757600080fd5b82018360208201111561041957600080fd5b803590602001918460018302840111600160201b8311171561043a57600080fd5b509092509050610eba565b6103636004803603602081101561045b57600080fd5b50356001600160a01b0316610f98565b6101f86004803603602081101561048157600080fd5b50356001600160a01b031661105c565b6104b7600480360360208110156104a757600080fd5b50356001600160a01b0316611176565b6040805192835260208301919091528051918290030190f35b610363600480360360208110156104e657600080fd5b50356001600160a01b0316611244565b6101d06004803603604081101561050c57600080fd5b6001600160a01b038235169190810190604081016020820135600160201b81111561053657600080fd5b82018360208201111561054857600080fd5b803590602001918460018302840111600160201b8311171561056957600080fd5b509092509050611308565b6101f86004803603602081101561058a57600080fd5b50356001600160a01b03166113d1565b6101d0600480360360408110156105b057600080fd5b506001600160a01b0381351690602001356114eb565b6101d0600480360360408110156105dc57600080fd5b6001600160a01b038235169190810190604081016020820135600160201b81111561060657600080fd5b82018360208201111561061857600080fd5b803590602001918460018302840111600160201b8311171561063957600080fd5b5090925090506115cf565b6101f86004803603602081101561065a57600080fd5b50356001600160a01b03166116ad565b6101d06004803603602081101561068057600080fd5b50356001600160a01b03166117c7565b6101d0600480360360408110156106a657600080fd5b6001600160a01b038235169190810190604081016020820135600160201b8111156106d057600080fd5b8201836020820111156106e257600080fd5b803590602001918460018302840111600160201b8311171561070357600080fd5b5090925090506117f2565b6101d06004803603606081101561072457600080fd5b506001600160a01b0381351690602081013590604001356118bb565b6101d06004803603604081101561075657600080fd5b506001600160a01b0381351690602001356119a2565b6103636004803603602081101561078257600080fd5b50356001600160a01b0316611a81565b336001600160a01b038416148061082c575060335460408051600160e01b633d5840630281526001600160a01b03868116600483015291519190921691633d584063916024808301926020929190829003018186803b1580156107f457600080fd5b505afa158015610808573d6000803e3d6000fd5b505050506040513d602081101561081e57600080fd5b50516001600160a01b031633145b61083557600080fd5b6001600160a01b038316600090815260346020526040902061085b906002018383611b45565b5050506001600160a01b0316600090815260346020526040902060019055565b6060336001600160a01b0383161480610917575060335460408051600160e01b633d5840630281526001600160a01b03858116600483015291519190921691633d584063916024808301926020929190829003018186803b1580156108df57600080fd5b505afa1580156108f3573d6000803e3d6000fd5b505050506040513d602081101561090957600080fd5b50516001600160a01b031633145b61092057600080fd5b6001600160a01b038216600090815260346020908152604091829020600190810180548451600293821615610100026000190190911692909204601f8101849004840283018401909452838252909290918301828280156109c25780601f10610997576101008083540402835291602001916109c2565b820191906000526020600020905b8154815290600101906020018083116109a557829003601f168201915b50505050509050919050565b336001600160a01b0383161480610a68575060335460408051600160e01b633d5840630281526001600160a01b03858116600483015291519190921691633d584063916024808301926020929190829003018186803b158015610a3057600080fd5b505afa158015610a44573d6000803e3d6000fd5b505050506040513d6020811015610a5a57600080fd5b50516001600160a01b031633145b80610a7d57506035546001600160a01b031633145b610a8657600080fd5b6001600160a01b039091166000908152603460205260409020600781019190915560019055565b6060336001600160a01b0383161480610b49575060335460408051600160e01b633d5840630281526001600160a01b03858116600483015291519190921691633d584063916024808301926020929190829003018186803b158015610b1157600080fd5b505afa158015610b25573d6000803e3d6000fd5b505050506040513d6020811015610b3b57600080fd5b50516001600160a01b031633145b610b5257600080fd5b6001600160a01b03821660009081526034602090815260409182902060040180548351601f6002600019610100600186161502019093169290920491820184900484028101840190945280845290918301828280156109c25780601f10610997576101008083540402835291602001916109c2565b336001600160a01b0384161480610c61575060335460408051600160e01b633d5840630281526001600160a01b03868116600483015291519190921691633d584063916024808301926020929190829003018186803b158015610c2957600080fd5b505afa158015610c3d573d6000803e3d6000fd5b505050506040513d6020811015610c5357600080fd5b50516001600160a01b031633145b80610c7657506035546001600160a01b031633145b610c7f57600080fd5b6001600160a01b038316600090815260346020526040902061085b906004018383611b45565b6001600160a01b031660009081526034602052604090205490565b336001600160a01b0383161480610d5a575060335460408051600160e01b633d5840630281526001600160a01b03858116600483015291519190921691633d584063916024808301926020929190829003018186803b158015610d2257600080fd5b505afa158015610d36573d6000803e3d6000fd5b505050506040513d6020811015610d4c57600080fd5b50516001600160a01b031633145b80610d6f57506035546001600160a01b031633145b610d7857600080fd5b6001600160a01b039091166000908152603460205260409020600a81019190915560019055565b6060336001600160a01b0383161480610e3b575060335460408051600160e01b633d5840630281526001600160a01b03858116600483015291519190921691633d584063916024808301926020929190829003018186803b158015610e0357600080fd5b505afa158015610e17573d6000803e3d6000fd5b505050506040513d6020811015610e2d57600080fd5b50516001600160a01b031633145b610e4457600080fd5b6001600160a01b0382166000908152603460209081526040918290206002908101805484516001821615610100026000190190911692909204601f8101849004840283018401909452838252909290918301828280156109c25780601f10610997576101008083540402835291602001916109c2565b336001600160a01b0384161480610f54575060335460408051600160e01b633d5840630281526001600160a01b03868116600483015291519190921691633d584063916024808301926020929190829003018186803b158015610f1c57600080fd5b505afa158015610f30573d6000803e3d6000fd5b505050506040513d6020811015610f4657600080fd5b50516001600160a01b031633145b80610f6957506035546001600160a01b031633145b610f7257600080fd5b6001600160a01b038316600090815260346020526040902061085b906005018383611b45565b6000336001600160a01b0383161480611034575060335460408051600160e01b633d5840630281526001600160a01b03858116600483015291519190921691633d584063916024808301926020929190829003018186803b158015610ffc57600080fd5b505afa158015611010573d6000803e3d6000fd5b505050506040513d602081101561102657600080fd5b50516001600160a01b031633145b61103d57600080fd5b506001600160a01b03166000908152603460205260409020600b015490565b6060336001600160a01b03831614806110f8575060335460408051600160e01b633d5840630281526001600160a01b03858116600483015291519190921691633d584063916024808301926020929190829003018186803b1580156110c057600080fd5b505afa1580156110d4573d6000803e3d6000fd5b505050506040513d60208110156110ea57600080fd5b50516001600160a01b031633145b61110157600080fd5b6001600160a01b03821660009081526034602090815260409182902060030180548351601f6002600019610100600186161502019093169290920491820184900484028101840190945280845290918301828280156109c25780601f10610997576101008083540402835291602001916109c2565b600080336001600160a01b0384161480611213575060335460408051600160e01b633d5840630281526001600160a01b03868116600483015291519190921691633d584063916024808301926020929190829003018186803b1580156111db57600080fd5b505afa1580156111ef573d6000803e3d6000fd5b505050506040513d602081101561120557600080fd5b50516001600160a01b031633145b61121c57600080fd5b50506001600160a01b0316600090815260346020526040902060088101546009909101549091565b6000336001600160a01b03831614806112e0575060335460408051600160e01b633d5840630281526001600160a01b03858116600483015291519190921691633d584063916024808301926020929190829003018186803b1580156112a857600080fd5b505afa1580156112bc573d6000803e3d6000fd5b505050506040513d60208110156112d257600080fd5b50516001600160a01b031633145b6112e957600080fd5b506001600160a01b03166000908152603460205260409020600a015490565b336001600160a01b03841614806113a2575060335460408051600160e01b633d5840630281526001600160a01b03868116600483015291519190921691633d584063916024808301926020929190829003018186803b15801561136a57600080fd5b505afa15801561137e573d6000803e3d6000fd5b505050506040513d602081101561139457600080fd5b50516001600160a01b031633145b6113ab57600080fd5b6001600160a01b038316600090815260346020526040902061085b906003018383611b45565b6060336001600160a01b038316148061146d575060335460408051600160e01b633d5840630281526001600160a01b03858116600483015291519190921691633d584063916024808301926020929190829003018186803b15801561143557600080fd5b505afa158015611449573d6000803e3d6000fd5b505050506040513d602081101561145f57600080fd5b50516001600160a01b031633145b61147657600080fd5b6001600160a01b03821660009081526034602090815260409182902060050180548351601f6002600019610100600186161502019093169290920491820184900484028101840190945280845290918301828280156109c25780601f10610997576101008083540402835291602001916109c2565b60335460408051600160e01b633d5840630281526001600160a01b03858116600483015291519190921691633d584063916024808301926020929190829003018186803b15801561153b57600080fd5b505afa15801561154f573d6000803e3d6000fd5b505050506040513d602081101561156557600080fd5b50516001600160a01b0316331461157b57600080fd5b6001600160a01b038216600081815260346020908152604091829020849055815184815291517f6bb2bae938f2b3e73626c0b6c105e943892f9ce2ddf783ebc28feca02891f54a9281900390910190a25050565b336001600160a01b0384161480611669575060335460408051600160e01b633d5840630281526001600160a01b03868116600483015291519190921691633d584063916024808301926020929190829003018186803b15801561163157600080fd5b505afa158015611645573d6000803e3d6000fd5b505050506040513d602081101561165b57600080fd5b50516001600160a01b031633145b8061167e57506035546001600160a01b031633145b61168757600080fd5b6001600160a01b038316600090815260346020526040902061085b906006018383611b45565b6060336001600160a01b0383161480611749575060335460408051600160e01b633d5840630281526001600160a01b03858116600483015291519190921691633d584063916024808301926020929190829003018186803b15801561171157600080fd5b505afa158015611725573d6000803e3d6000fd5b505050506040513d602081101561173b57600080fd5b50516001600160a01b031633145b61175257600080fd5b6001600160a01b03821660009081526034602090815260409182902060060180548351601f6002600019610100600186161502019093169290920491820184900484028101840190945280845290918301828280156109c25780601f10610997576101008083540402835291602001916109c2565b603380546001600160a01b039092166001600160a01b03199283161790556035805490911633179055565b336001600160a01b038416148061188c575060335460408051600160e01b633d5840630281526001600160a01b03868116600483015291519190921691633d584063916024808301926020929190829003018186803b15801561185457600080fd5b505afa158015611868573d6000803e3d6000fd5b505050506040513d602081101561187e57600080fd5b50516001600160a01b031633145b61189557600080fd5b6001600160a01b038316600090815260346020526040902061085b906001018383611b45565b336001600160a01b0384161480611955575060335460408051600160e01b633d5840630281526001600160a01b03868116600483015291519190921691633d584063916024808301926020929190829003018186803b15801561191d57600080fd5b505afa158015611931573d6000803e3d6000fd5b505050506040513d602081101561194757600080fd5b50516001600160a01b031633145b8061196a57506035546001600160a01b031633145b61197357600080fd5b6001600160a01b0390921660009081526034602052604090206008810191909155600981019190915560019055565b336001600160a01b0383161480611a3c575060335460408051600160e01b633d5840630281526001600160a01b03858116600483015291519190921691633d584063916024808301926020929190829003018186803b158015611a0457600080fd5b505afa158015611a18573d6000803e3d6000fd5b505050506040513d6020811015611a2e57600080fd5b50516001600160a01b031633145b80611a5157506035546001600160a01b031633145b611a5a57600080fd5b6001600160a01b039091166000908152603460205260409020600b81019190915560019055565b6000336001600160a01b0383161480611b1d575060335460408051600160e01b633d5840630281526001600160a01b03858116600483015291519190921691633d584063916024808301926020929190829003018186803b158015611ae557600080fd5b505afa158015611af9573d6000803e3d6000fd5b505050506040513d6020811015611b0f57600080fd5b50516001600160a01b031633145b611b2657600080fd5b506001600160a01b031660009081526034602052604090206007015490565b828054600181600116156101000203166002900490600052602060002090601f016020900481019282601f10611b865782800160ff19823516178555611bb3565b82800160010185558215611bb3579182015b82811115611bb3578235825591602001919060010190611b98565b50611bbf929150611bc3565b5090565b611bdd91905b80821115611bbf5760008155600101611bc9565b9056fea165627a7a723058204dba42833bcdd45a6e8b33815c6d7928f1135bc562be77fe1b798590549932670029",
  "source": "// (c) Kallol Borah, 2020\r\n// Stores and retrieves client KYC data stored on IPFS\r\n\r\npragma solidity 0.5.7;\r\n\r\nimport \"../interfaces/VerifiedKYC.sol\";\r\nimport \"../interfaces/VerifiedClient.sol\";\r\nimport \"@openzeppelin/upgrades/contracts/Initializable.sol\";\r\n\r\ncontract Kyc is VerifiedKYC, Initializable{\r\n\r\n    //client file for references to various KYC related data\r\n    struct file{\r\n        uint256 kyc_status;\r\n        string kyc_file;\r\n        string fatca_declaration;\r\n        string crs_declaration; \r\n        string photo_id;\r\n        string video_id;\r\n        string address_proof;\r\n        bytes32 country;\r\n        bytes32 name;\r\n        bytes32 surname;\r\n        bytes32 phone;\r\n        bytes32 email;\r\n    }\r\n\r\n    //reference of user client\r\n    VerifiedClient private User;\r\n\r\n    //mapping of a client to its kyc data\r\n    mapping(address => file) private client;\r\n\r\n    address admin;\r\n\r\n    //event emitted for kyc acceptance status\r\n    event KycUpdate(address indexed client, uint status);\r\n\r\n    function initialize(address _client) public {\r\n        User = VerifiedClient(_client);\r\n        admin = msg.sender;\r\n    }\r\n\r\n    //setter and getter functions for kyc\r\n    function setStatus(address _client, uint _status) external {\r\n        require(msg.sender==User.getManager(_client));\r\n        client[_client].kyc_status = _status;\r\n        emit KycUpdate(_client, _status);\r\n    } \r\n\r\n    function getStatus(address _client) external view returns(uint){\r\n        return client[_client].kyc_status;\r\n    }\r\n\r\n    /*function setKyc(address _client, bytes32 _file, bytes32 _fatca, \r\n                    bytes32 _crs, bytes32 _photoId, bytes32 _videoId, \r\n                    bytes32 _address, bytes32 _country) external {\r\n        require((msg.sender==_client || msg.sender==User.getManager(_client)));\r\n        client[_client].kyc_file = _file;\r\n        client[_client].fatca_declaration = _fatca;\r\n        client[_client].crs_declaration = _crs;\r\n        client[_client].photo_id = _photoId;\r\n        client[_client].video_id = _videoId;\r\n        client[_client].address_proof = _address;\r\n        client[_client].country = _country;\r\n    }\r\n\r\n    function getKyc(address _client) external view returns(bytes32, bytes32, bytes32, bytes32, \r\n                                                            bytes32, bytes32, bytes32){\r\n        require(msg.sender==_client || msg.sender==User.getManager(_client));\r\n        return (client[_client].kyc_file, \r\n                client[_client].fatca_declaration,\r\n                client[_client].crs_declaration,\r\n                client[_client].photo_id,\r\n                client[_client].video_id,\r\n                client[_client].address_proof,\r\n                client[_client].country   \r\n                );\r\n    }*/\r\n\r\n    function setFile(address _client, string calldata _file) external {\r\n        require((msg.sender==_client || msg.sender==User.getManager(_client)));\r\n        client[_client].kyc_file = _file;\r\n        client[_client].kyc_status = 1;\r\n    }\r\n\r\n    function getFile(address _client) external view returns(string memory){\r\n        require(msg.sender==_client || msg.sender==User.getManager(_client));\r\n        return client[_client].kyc_file;\r\n    }\r\n\r\n    function setFATCA(address _client, string calldata _file) external {\r\n        require(msg.sender==_client || msg.sender==User.getManager(_client));\r\n        client[_client].fatca_declaration = _file;\r\n        client[_client].kyc_status = 1;\r\n    }\r\n\r\n    function getFATCA(address _client) external view returns(string memory){\r\n        require(msg.sender==_client || msg.sender==User.getManager(_client));\r\n        return client[_client].fatca_declaration;\r\n    }\r\n\r\n    function setCRS(address _client, string calldata _file) external {\r\n        require(msg.sender==_client || msg.sender==User.getManager(_client));\r\n        client[_client].crs_declaration = _file;\r\n        client[_client].kyc_status = 1;\r\n    }\r\n\r\n    function getCRS(address _client) external view returns(string memory){\r\n        require(msg.sender==_client || msg.sender==User.getManager(_client));\r\n        return client[_client].crs_declaration;\r\n    }\r\n\r\n    function setPhotoID(address _client, string calldata _file) external {\r\n        require(msg.sender==_client || msg.sender==User.getManager(_client) || msg.sender==admin);\r\n        client[_client].photo_id = _file;\r\n        client[_client].kyc_status = 1;\r\n    }\r\n\r\n    function getPhotoID(address _client) external view returns(string memory){\r\n        require(msg.sender==_client || msg.sender==User.getManager(_client));\r\n        return client[_client].photo_id;\r\n    }\r\n\r\n    function setVideoID(address _client, string calldata _file) external {\r\n        require(msg.sender==_client || msg.sender==User.getManager(_client) || msg.sender==admin);\r\n        client[_client].video_id = _file;\r\n        client[_client].kyc_status = 1;\r\n    }\r\n\r\n    function getVideoID(address _client) external view returns(string memory){\r\n        require(msg.sender==_client || msg.sender==User.getManager(_client));\r\n        return client[_client].video_id;\r\n    }\r\n\r\n    function setAddress(address _client, string calldata _file) external {\r\n        require(msg.sender==_client || msg.sender==User.getManager(_client) || msg.sender==admin);\r\n        client[_client].address_proof = _file;\r\n        client[_client].kyc_status = 1;\r\n    }\r\n\r\n    function getAddress(address _client) external view returns(string memory){\r\n        require(msg.sender==_client || msg.sender==User.getManager(_client));\r\n        return client[_client].address_proof;\r\n    }\r\n\r\n    function setCountry(address _client, bytes32 _country) external {\r\n        require(msg.sender==_client || msg.sender==User.getManager(_client) || msg.sender==admin);\r\n        client[_client].country = _country;\r\n        client[_client].kyc_status = 1;\r\n    }\r\n\r\n    function getCountry(address _client) external view returns(bytes32){\r\n        require(msg.sender==_client || msg.sender==User.getManager(_client));\r\n        return client[_client].country;\r\n    }\r\n\r\n    function setName(address _client, bytes32 _name, bytes32 _surname) external {\r\n        require(msg.sender==_client || msg.sender==User.getManager(_client) || msg.sender==admin);\r\n        client[_client].name = _name;\r\n        client[_client].surname = _surname;\r\n        client[_client].kyc_status = 1;\r\n    }\r\n\r\n    function getName(address _client) external view returns(bytes32, bytes32){\r\n        require(msg.sender==_client || msg.sender==User.getManager(_client));\r\n        return (client[_client].name, client[_client].surname);\r\n    }\r\n\r\n    function setPhone(address _client, bytes32 _phone) external {\r\n        require(msg.sender==_client || msg.sender==User.getManager(_client) || msg.sender==admin);\r\n        client[_client].phone = _phone;\r\n        client[_client].kyc_status = 1;\r\n    }\r\n\r\n    function getPhone(address _client) external view returns(bytes32){\r\n        require(msg.sender==_client || msg.sender==User.getManager(_client));\r\n        return client[_client].phone;\r\n    }    \r\n\r\n    function setEmail(address _client, bytes32 _email) external {\r\n        require(msg.sender==_client || msg.sender==User.getManager(_client) || msg.sender==admin);\r\n        client[_client].email = _email;\r\n        client[_client].kyc_status = 1;\r\n    }\r\n\r\n    function getEmail(address _client) external view returns(bytes32){\r\n        require(msg.sender==_client || msg.sender==User.getManager(_client));\r\n        return client[_client].email;\r\n    }   \r\n\r\n}\r\n",
  "sourcePath": "D:\\Code\\verified-accounts\\contracts\\kyc\\Kyc.sol",
  "compiler": {
    "name": "solc",
    "version": "0.5.7+commit.6da8b019.Emscripten.clang"
  },
  "schemaVersion": "3.4.3",
  "updatedAt": "2021-10-28T14:31:17.151Z",
  "networkType": "ethereum",
  "devdoc": {
    "methods": {}
  },
  "userdoc": {
    "methods": {}
  }
}