{
  "contractName": "Kyc",
  "abi": [
    {
      "anonymous": false,
      "inputs": [
        {
          "indexed": true,
          "name": "client",
          "type": "address"
        },
        {
          "indexed": false,
          "name": "status",
          "type": "uint256"
        }
      ],
      "name": "KycUpdate",
      "type": "event"
    },
    {
      "constant": false,
      "inputs": [
        {
          "name": "_client",
          "type": "address"
        }
      ],
      "name": "initialize",
      "outputs": [],
      "payable": false,
      "stateMutability": "nonpayable",
      "type": "function"
    },
    {
      "constant": false,
      "inputs": [
        {
          "name": "_client",
          "type": "address"
        },
        {
          "name": "_status",
          "type": "uint256"
        }
      ],
      "name": "setStatus",
      "outputs": [],
      "payable": false,
      "stateMutability": "nonpayable",
      "type": "function"
    },
    {
      "constant": true,
      "inputs": [
        {
          "name": "_client",
          "type": "address"
        }
      ],
      "name": "getStatus",
      "outputs": [
        {
          "name": "",
          "type": "uint256"
        }
      ],
      "payable": false,
      "stateMutability": "view",
      "type": "function"
    },
    {
      "constant": false,
      "inputs": [
        {
          "name": "_client",
          "type": "address"
        },
        {
          "name": "_file",
          "type": "string"
        }
      ],
      "name": "setFile",
      "outputs": [],
      "payable": false,
      "stateMutability": "nonpayable",
      "type": "function"
    },
    {
      "constant": true,
      "inputs": [
        {
          "name": "_client",
          "type": "address"
        }
      ],
      "name": "getFile",
      "outputs": [
        {
          "name": "",
          "type": "string"
        }
      ],
      "payable": false,
      "stateMutability": "view",
      "type": "function"
    },
    {
      "constant": false,
      "inputs": [
        {
          "name": "_client",
          "type": "address"
        },
        {
          "name": "_file",
          "type": "string"
        }
      ],
      "name": "setFATCA",
      "outputs": [],
      "payable": false,
      "stateMutability": "nonpayable",
      "type": "function"
    },
    {
      "constant": true,
      "inputs": [
        {
          "name": "_client",
          "type": "address"
        }
      ],
      "name": "getFATCA",
      "outputs": [
        {
          "name": "",
          "type": "string"
        }
      ],
      "payable": false,
      "stateMutability": "view",
      "type": "function"
    },
    {
      "constant": false,
      "inputs": [
        {
          "name": "_client",
          "type": "address"
        },
        {
          "name": "_file",
          "type": "string"
        }
      ],
      "name": "setCRS",
      "outputs": [],
      "payable": false,
      "stateMutability": "nonpayable",
      "type": "function"
    },
    {
      "constant": true,
      "inputs": [
        {
          "name": "_client",
          "type": "address"
        }
      ],
      "name": "getCRS",
      "outputs": [
        {
          "name": "",
          "type": "string"
        }
      ],
      "payable": false,
      "stateMutability": "view",
      "type": "function"
    },
    {
      "constant": false,
      "inputs": [
        {
          "name": "_client",
          "type": "address"
        },
        {
          "name": "_file",
          "type": "string"
        }
      ],
      "name": "setPhotoID",
      "outputs": [],
      "payable": false,
      "stateMutability": "nonpayable",
      "type": "function"
    },
    {
      "constant": true,
      "inputs": [
        {
          "name": "_client",
          "type": "address"
        }
      ],
      "name": "getPhotoID",
      "outputs": [
        {
          "name": "",
          "type": "string"
        }
      ],
      "payable": false,
      "stateMutability": "view",
      "type": "function"
    },
    {
      "constant": false,
      "inputs": [
        {
          "name": "_client",
          "type": "address"
        },
        {
          "name": "_file",
          "type": "string"
        }
      ],
      "name": "setVideoID",
      "outputs": [],
      "payable": false,
      "stateMutability": "nonpayable",
      "type": "function"
    },
    {
      "constant": true,
      "inputs": [
        {
          "name": "_client",
          "type": "address"
        }
      ],
      "name": "getVideoID",
      "outputs": [
        {
          "name": "",
          "type": "string"
        }
      ],
      "payable": false,
      "stateMutability": "view",
      "type": "function"
    },
    {
      "constant": false,
      "inputs": [
        {
          "name": "_client",
          "type": "address"
        },
        {
          "name": "_file",
          "type": "string"
        }
      ],
      "name": "setAddress",
      "outputs": [],
      "payable": false,
      "stateMutability": "nonpayable",
      "type": "function"
    },
    {
      "constant": true,
      "inputs": [
        {
          "name": "_client",
          "type": "address"
        }
      ],
      "name": "getAddress",
      "outputs": [
        {
          "name": "",
          "type": "string"
        }
      ],
      "payable": false,
      "stateMutability": "view",
      "type": "function"
    },
    {
      "constant": false,
      "inputs": [
        {
          "name": "_client",
          "type": "address"
        },
        {
          "name": "_country",
          "type": "bytes32"
        }
      ],
      "name": "setCountry",
      "outputs": [],
      "payable": false,
      "stateMutability": "nonpayable",
      "type": "function"
    },
    {
      "constant": true,
      "inputs": [
        {
          "name": "_client",
          "type": "address"
        }
      ],
      "name": "getCountry",
      "outputs": [
        {
          "name": "",
          "type": "bytes32"
        }
      ],
      "payable": false,
      "stateMutability": "view",
      "type": "function"
    }
  ],
  "bytecode": "0x608060405234801561001057600080fd5b5061153b806100206000396000f3fe608060405234801561001057600080fd5b506004361061010b5760003560e01c80635d962a95116100a2578063912000991161007157806391200099146104cd578063ae22c57d1461054b578063c4d66de814610571578063ceb2f04114610597578063d821f92d146106155761010b565b80635d962a95146103d75780636ea753db146103fd5780637a68f5a91461047b5780637e55d59c146104a15761010b565b8063297d4d55116100de578063297d4d551461027d57806330ccebb5146102fb5780633ed93c4f14610333578063478da929146103595761010b565b806304047e97146101105780630b87c1e0146101905780631d7d32371461022b57806327f08b3114610257575b600080fd5b61018e6004803603604081101561012657600080fd5b6001600160a01b038235169190810190604081016020820135600160201b81111561015057600080fd5b82018360208201111561016257600080fd5b803590602001918460018302840111600160201b8311171561018357600080fd5b50909250905061063b565b005b6101b6600480360360208110156101a657600080fd5b50356001600160a01b031661070a565b6040805160208082528351818301528351919283929083019185019080838360005b838110156101f05781810151838201526020016101d8565b50505050905090810190601f16801561021d5780820380516001836020036101000a031916815260200191505b509250505060405180910390f35b61018e6004803603604081101561024157600080fd5b506001600160a01b03813516906020013561085d565b6101b66004803603602081101561026d57600080fd5b50356001600160a01b031661091f565b61018e6004803603604081101561029357600080fd5b6001600160a01b038235169190810190604081016020820135600160201b8111156102bd57600080fd5b8201836020820111156102cf57600080fd5b803590602001918460018302840111600160201b831117156102f057600080fd5b509092509050610a39565b6103216004803603602081101561031157600080fd5b50356001600160a01b0316610b02565b60408051918252519081900360200190f35b6101b66004803603602081101561034957600080fd5b50356001600160a01b0316610b1d565b61018e6004803603604081101561036f57600080fd5b6001600160a01b038235169190810190604081016020820135600160201b81111561039957600080fd5b8201836020820111156103ab57600080fd5b803590602001918460018302840111600160201b831117156103cc57600080fd5b509092509050610c38565b6101b6600480360360208110156103ed57600080fd5b50356001600160a01b0316610d01565b61018e6004803603604081101561041357600080fd5b6001600160a01b038235169190810190604081016020820135600160201b81111561043d57600080fd5b82018360208201111561044f57600080fd5b803590602001918460018302840111600160201b8311171561047057600080fd5b509092509050610e1b565b6101b66004803603602081101561049157600080fd5b50356001600160a01b0316610ee4565b61018e600480360360408110156104b757600080fd5b506001600160a01b038135169060200135610ffe565b61018e600480360360408110156104e357600080fd5b6001600160a01b038235169190810190604081016020820135600160201b81111561050d57600080fd5b82018360208201111561051f57600080fd5b803590602001918460018302840111600160201b8311171561054057600080fd5b5090925090506110e2565b6101b66004803603602081101561056157600080fd5b50356001600160a01b03166111ab565b61018e6004803603602081101561058757600080fd5b50356001600160a01b03166112c5565b61018e600480360360408110156105ad57600080fd5b6001600160a01b038235169190810190604081016020820135600160201b8111156105d757600080fd5b8201836020820111156105e957600080fd5b803590602001918460018302840111600160201b8311171561060a57600080fd5b5090925090506112e7565b6103216004803603602081101561062b57600080fd5b50356001600160a01b03166113b0565b336001600160a01b03841614806106d5575060335460408051600160e01b633d5840630281526001600160a01b03868116600483015291519190921691633d584063916024808301926020929190829003018186803b15801561069d57600080fd5b505afa1580156106b1573d6000803e3d6000fd5b505050506040513d60208110156106c757600080fd5b50516001600160a01b031633145b6106de57600080fd5b6001600160a01b0383166000908152603460205260409020610704906002018383611474565b50505050565b6060336001600160a01b03831614806107a6575060335460408051600160e01b633d5840630281526001600160a01b03858116600483015291519190921691633d584063916024808301926020929190829003018186803b15801561076e57600080fd5b505afa158015610782573d6000803e3d6000fd5b505050506040513d602081101561079857600080fd5b50516001600160a01b031633145b6107af57600080fd5b6001600160a01b038216600090815260346020908152604091829020600190810180548451600293821615610100026000190190911692909204601f8101849004840283018401909452838252909290918301828280156108515780601f1061082657610100808354040283529160200191610851565b820191906000526020600020905b81548152906001019060200180831161083457829003601f168201915b50505050509050919050565b336001600160a01b03831614806108f7575060335460408051600160e01b633d5840630281526001600160a01b03858116600483015291519190921691633d584063916024808301926020929190829003018186803b1580156108bf57600080fd5b505afa1580156108d3573d6000803e3d6000fd5b505050506040513d60208110156108e957600080fd5b50516001600160a01b031633145b61090057600080fd5b6001600160a01b03909116600090815260346020526040902060070155565b6060336001600160a01b03831614806109bb575060335460408051600160e01b633d5840630281526001600160a01b03858116600483015291519190921691633d584063916024808301926020929190829003018186803b15801561098357600080fd5b505afa158015610997573d6000803e3d6000fd5b505050506040513d60208110156109ad57600080fd5b50516001600160a01b031633145b6109c457600080fd5b6001600160a01b03821660009081526034602090815260409182902060040180548351601f6002600019610100600186161502019093169290920491820184900484028101840190945280845290918301828280156108515780601f1061082657610100808354040283529160200191610851565b336001600160a01b0384161480610ad3575060335460408051600160e01b633d5840630281526001600160a01b03868116600483015291519190921691633d584063916024808301926020929190829003018186803b158015610a9b57600080fd5b505afa158015610aaf573d6000803e3d6000fd5b505050506040513d6020811015610ac557600080fd5b50516001600160a01b031633145b610adc57600080fd5b6001600160a01b0383166000908152603460205260409020610704906004018383611474565b6001600160a01b031660009081526034602052604090205490565b6060336001600160a01b0383161480610bb9575060335460408051600160e01b633d5840630281526001600160a01b03858116600483015291519190921691633d584063916024808301926020929190829003018186803b158015610b8157600080fd5b505afa158015610b95573d6000803e3d6000fd5b505050506040513d6020811015610bab57600080fd5b50516001600160a01b031633145b610bc257600080fd5b6001600160a01b0382166000908152603460209081526040918290206002908101805484516001821615610100026000190190911692909204601f8101849004840283018401909452838252909290918301828280156108515780601f1061082657610100808354040283529160200191610851565b336001600160a01b0384161480610cd2575060335460408051600160e01b633d5840630281526001600160a01b03868116600483015291519190921691633d584063916024808301926020929190829003018186803b158015610c9a57600080fd5b505afa158015610cae573d6000803e3d6000fd5b505050506040513d6020811015610cc457600080fd5b50516001600160a01b031633145b610cdb57600080fd5b6001600160a01b0383166000908152603460205260409020610704906005018383611474565b6060336001600160a01b0383161480610d9d575060335460408051600160e01b633d5840630281526001600160a01b03858116600483015291519190921691633d584063916024808301926020929190829003018186803b158015610d6557600080fd5b505afa158015610d79573d6000803e3d6000fd5b505050506040513d6020811015610d8f57600080fd5b50516001600160a01b031633145b610da657600080fd5b6001600160a01b03821660009081526034602090815260409182902060030180548351601f6002600019610100600186161502019093169290920491820184900484028101840190945280845290918301828280156108515780601f1061082657610100808354040283529160200191610851565b336001600160a01b0384161480610eb5575060335460408051600160e01b633d5840630281526001600160a01b03868116600483015291519190921691633d584063916024808301926020929190829003018186803b158015610e7d57600080fd5b505afa158015610e91573d6000803e3d6000fd5b505050506040513d6020811015610ea757600080fd5b50516001600160a01b031633145b610ebe57600080fd5b6001600160a01b0383166000908152603460205260409020610704906003018383611474565b6060336001600160a01b0383161480610f80575060335460408051600160e01b633d5840630281526001600160a01b03858116600483015291519190921691633d584063916024808301926020929190829003018186803b158015610f4857600080fd5b505afa158015610f5c573d6000803e3d6000fd5b505050506040513d6020811015610f7257600080fd5b50516001600160a01b031633145b610f8957600080fd5b6001600160a01b03821660009081526034602090815260409182902060050180548351601f6002600019610100600186161502019093169290920491820184900484028101840190945280845290918301828280156108515780601f1061082657610100808354040283529160200191610851565b60335460408051600160e01b633d5840630281526001600160a01b03858116600483015291519190921691633d584063916024808301926020929190829003018186803b15801561104e57600080fd5b505afa158015611062573d6000803e3d6000fd5b505050506040513d602081101561107857600080fd5b50516001600160a01b0316331461108e57600080fd5b6001600160a01b038216600081815260346020908152604091829020849055815184815291517f6bb2bae938f2b3e73626c0b6c105e943892f9ce2ddf783ebc28feca02891f54a9281900390910190a25050565b336001600160a01b038416148061117c575060335460408051600160e01b633d5840630281526001600160a01b03868116600483015291519190921691633d584063916024808301926020929190829003018186803b15801561114457600080fd5b505afa158015611158573d6000803e3d6000fd5b505050506040513d602081101561116e57600080fd5b50516001600160a01b031633145b61118557600080fd5b6001600160a01b0383166000908152603460205260409020610704906006018383611474565b6060336001600160a01b0383161480611247575060335460408051600160e01b633d5840630281526001600160a01b03858116600483015291519190921691633d584063916024808301926020929190829003018186803b15801561120f57600080fd5b505afa158015611223573d6000803e3d6000fd5b505050506040513d602081101561123957600080fd5b50516001600160a01b031633145b61125057600080fd5b6001600160a01b03821660009081526034602090815260409182902060060180548351601f6002600019610100600186161502019093169290920491820184900484028101840190945280845290918301828280156108515780601f1061082657610100808354040283529160200191610851565b603380546001600160a01b0319166001600160a01b0392909216919091179055565b336001600160a01b0384161480611381575060335460408051600160e01b633d5840630281526001600160a01b03868116600483015291519190921691633d584063916024808301926020929190829003018186803b15801561134957600080fd5b505afa15801561135d573d6000803e3d6000fd5b505050506040513d602081101561137357600080fd5b50516001600160a01b031633145b61138a57600080fd5b6001600160a01b0383166000908152603460205260409020610704906001018383611474565b6000336001600160a01b038316148061144c575060335460408051600160e01b633d5840630281526001600160a01b03858116600483015291519190921691633d584063916024808301926020929190829003018186803b15801561141457600080fd5b505afa158015611428573d6000803e3d6000fd5b505050506040513d602081101561143e57600080fd5b50516001600160a01b031633145b61145557600080fd5b506001600160a01b031660009081526034602052604090206007015490565b828054600181600116156101000203166002900490600052602060002090601f016020900481019282601f106114b55782800160ff198235161785556114e2565b828001600101855582156114e2579182015b828111156114e25782358255916020019190600101906114c7565b506114ee9291506114f2565b5090565b61150c91905b808211156114ee57600081556001016114f8565b9056fea165627a7a723058209e69e88a92be711006b0dd4a7aad38c3eabeeec74ae160702c2ebb6d913eacb70029",
  "source": "// (c) Kallol Borah, 2020\r\n// Stores and retrieves client KYC data stored on IPFS\r\n\r\npragma solidity 0.5.7;\r\n\r\nimport \"../interfaces/VerifiedKYC.sol\";\r\nimport \"../interfaces/VerifiedClient.sol\";\r\nimport \"@openzeppelin/upgrades/contracts/Initializable.sol\";\r\n\r\ncontract Kyc is VerifiedKYC, Initializable{\r\n\r\n    //client file for references to various KYC related data\r\n    struct file{\r\n        uint256 kyc_status;\r\n        string kyc_file;\r\n        string fatca_declaration;\r\n        string crs_declaration; \r\n        string photo_id;\r\n        string video_id;\r\n        string address_proof;\r\n        bytes32 country;\r\n    }\r\n\r\n    //reference of user client\r\n    VerifiedClient private User;\r\n\r\n    //mapping of a client to its kyc data\r\n    mapping(address => file) private client;\r\n\r\n    //event emitted for kyc acceptance status\r\n    event KycUpdate(address indexed client, uint status);\r\n\r\n    function initialize(address _client) public {\r\n        User = VerifiedClient(_client);\r\n    }\r\n\r\n    //setter and getter functions for kyc\r\n    function setStatus(address _client, uint _status) external {\r\n        require(msg.sender==User.getManager(_client));\r\n        client[_client].kyc_status = _status;\r\n        emit KycUpdate(_client, _status);\r\n    } \r\n\r\n    function getStatus(address _client) external view returns(uint){\r\n        return client[_client].kyc_status;\r\n    }\r\n\r\n    /*function setKyc(address _client, bytes32 _file, bytes32 _fatca, \r\n                    bytes32 _crs, bytes32 _photoId, bytes32 _videoId, \r\n                    bytes32 _address, bytes32 _country) external {\r\n        require((msg.sender==_client || msg.sender==User.getManager(_client)));\r\n        client[_client].kyc_file = _file;\r\n        client[_client].fatca_declaration = _fatca;\r\n        client[_client].crs_declaration = _crs;\r\n        client[_client].photo_id = _photoId;\r\n        client[_client].video_id = _videoId;\r\n        client[_client].address_proof = _address;\r\n        client[_client].country = _country;\r\n    }\r\n\r\n    function getKyc(address _client) external view returns(bytes32, bytes32, bytes32, bytes32, \r\n                                                            bytes32, bytes32, bytes32){\r\n        require(msg.sender==_client || msg.sender==User.getManager(_client));\r\n        return (client[_client].kyc_file, \r\n                client[_client].fatca_declaration,\r\n                client[_client].crs_declaration,\r\n                client[_client].photo_id,\r\n                client[_client].video_id,\r\n                client[_client].address_proof,\r\n                client[_client].country   \r\n                );\r\n    }*/\r\n\r\n    function setFile(address _client, string calldata _file) external {\r\n        require((msg.sender==_client || msg.sender==User.getManager(_client)));\r\n        client[_client].kyc_file = _file;\r\n    }\r\n\r\n    function getFile(address _client) external view returns(string memory){\r\n        require(msg.sender==_client || msg.sender==User.getManager(_client));\r\n        return client[_client].kyc_file;\r\n    }\r\n\r\n    function setFATCA(address _client, string calldata _file) external {\r\n        require(msg.sender==_client || msg.sender==User.getManager(_client));\r\n        client[_client].fatca_declaration = _file;\r\n    }\r\n\r\n    function getFATCA(address _client) external view returns(string memory){\r\n        require(msg.sender==_client || msg.sender==User.getManager(_client));\r\n        return client[_client].fatca_declaration;\r\n    }\r\n\r\n    function setCRS(address _client, string calldata _file) external {\r\n        require(msg.sender==_client || msg.sender==User.getManager(_client));\r\n        client[_client].crs_declaration = _file;\r\n    }\r\n\r\n    function getCRS(address _client) external view returns(string memory){\r\n        require(msg.sender==_client || msg.sender==User.getManager(_client));\r\n        return client[_client].crs_declaration;\r\n    }\r\n\r\n    function setPhotoID(address _client, string calldata _file) external {\r\n        require(msg.sender==_client || msg.sender==User.getManager(_client));\r\n        client[_client].photo_id = _file;\r\n    }\r\n\r\n    function getPhotoID(address _client) external view returns(string memory){\r\n        require(msg.sender==_client || msg.sender==User.getManager(_client));\r\n        return client[_client].photo_id;\r\n    }\r\n\r\n    function setVideoID(address _client, string calldata _file) external {\r\n        require(msg.sender==_client || msg.sender==User.getManager(_client));\r\n        client[_client].video_id = _file;\r\n    }\r\n\r\n    function getVideoID(address _client) external view returns(string memory){\r\n        require(msg.sender==_client || msg.sender==User.getManager(_client));\r\n        return client[_client].video_id;\r\n    }\r\n\r\n    function setAddress(address _client, string calldata _file) external {\r\n        require(msg.sender==_client || msg.sender==User.getManager(_client));\r\n        client[_client].address_proof = _file;\r\n    }\r\n\r\n    function getAddress(address _client) external view returns(string memory){\r\n        require(msg.sender==_client || msg.sender==User.getManager(_client));\r\n        return client[_client].address_proof;\r\n    }\r\n\r\n    function setCountry(address _client, bytes32 _country) external {\r\n        require(msg.sender==_client || msg.sender==User.getManager(_client));\r\n        client[_client].country = _country;\r\n    }\r\n\r\n    function getCountry(address _client) external view returns(bytes32){\r\n        require(msg.sender==_client || msg.sender==User.getManager(_client));\r\n        return client[_client].country;\r\n    }\r\n\r\n}\r\n",
  "sourcePath": "D:\\Code\\verified-accounts\\contracts\\kyc\\Kyc.sol",
  "compiler": {
    "name": "solc",
    "version": "0.5.7+commit.6da8b019.Emscripten.clang"
  },
  "schemaVersion": "3.4.3",
  "updatedAt": "2021-09-23T14:53:21.236Z",
  "networkType": "ethereum",
  "devdoc": {
    "methods": {}
  },
  "userdoc": {
    "methods": {}
  }
}