{
  "contractName": "Kyc",
  "abi": [
    {
      "anonymous": false,
      "inputs": [
        {
          "indexed": true,
          "name": "client",
          "type": "address"
        },
        {
          "indexed": false,
          "name": "status",
          "type": "bool"
        }
      ],
      "name": "KycUpdate",
      "type": "event"
    },
    {
      "constant": false,
      "inputs": [
        {
          "name": "_client",
          "type": "address"
        }
      ],
      "name": "initialize",
      "outputs": [],
      "payable": false,
      "stateMutability": "nonpayable",
      "type": "function"
    },
    {
      "constant": false,
      "inputs": [
        {
          "name": "_client",
          "type": "address"
        },
        {
          "name": "_status",
          "type": "bool"
        }
      ],
      "name": "setStatus",
      "outputs": [],
      "payable": false,
      "stateMutability": "nonpayable",
      "type": "function"
    },
    {
      "constant": true,
      "inputs": [
        {
          "name": "_client",
          "type": "address"
        }
      ],
      "name": "getStatus",
      "outputs": [
        {
          "name": "",
          "type": "bool"
        }
      ],
      "payable": false,
      "stateMutability": "view",
      "type": "function"
    },
    {
      "constant": false,
      "inputs": [
        {
          "name": "_client",
          "type": "address"
        },
        {
          "name": "_file",
          "type": "bytes32"
        }
      ],
      "name": "setFile",
      "outputs": [],
      "payable": false,
      "stateMutability": "nonpayable",
      "type": "function"
    },
    {
      "constant": true,
      "inputs": [
        {
          "name": "_client",
          "type": "address"
        }
      ],
      "name": "getFile",
      "outputs": [
        {
          "name": "",
          "type": "bytes32"
        }
      ],
      "payable": false,
      "stateMutability": "view",
      "type": "function"
    },
    {
      "constant": false,
      "inputs": [
        {
          "name": "_client",
          "type": "address"
        },
        {
          "name": "_file",
          "type": "bytes32"
        }
      ],
      "name": "setFATCA",
      "outputs": [],
      "payable": false,
      "stateMutability": "nonpayable",
      "type": "function"
    },
    {
      "constant": true,
      "inputs": [
        {
          "name": "_client",
          "type": "address"
        }
      ],
      "name": "getFATCA",
      "outputs": [
        {
          "name": "",
          "type": "bytes32"
        }
      ],
      "payable": false,
      "stateMutability": "view",
      "type": "function"
    },
    {
      "constant": false,
      "inputs": [
        {
          "name": "_client",
          "type": "address"
        },
        {
          "name": "_file",
          "type": "bytes32"
        }
      ],
      "name": "setCRS",
      "outputs": [],
      "payable": false,
      "stateMutability": "nonpayable",
      "type": "function"
    },
    {
      "constant": true,
      "inputs": [
        {
          "name": "_client",
          "type": "address"
        }
      ],
      "name": "getCRS",
      "outputs": [
        {
          "name": "",
          "type": "bytes32"
        }
      ],
      "payable": false,
      "stateMutability": "view",
      "type": "function"
    },
    {
      "constant": false,
      "inputs": [
        {
          "name": "_client",
          "type": "address"
        },
        {
          "name": "_file",
          "type": "bytes32"
        }
      ],
      "name": "setPhotoID",
      "outputs": [],
      "payable": false,
      "stateMutability": "nonpayable",
      "type": "function"
    },
    {
      "constant": true,
      "inputs": [
        {
          "name": "_client",
          "type": "address"
        }
      ],
      "name": "getPhotoID",
      "outputs": [
        {
          "name": "",
          "type": "bytes32"
        }
      ],
      "payable": false,
      "stateMutability": "view",
      "type": "function"
    },
    {
      "constant": false,
      "inputs": [
        {
          "name": "_client",
          "type": "address"
        },
        {
          "name": "_file",
          "type": "bytes32"
        }
      ],
      "name": "setVideoID",
      "outputs": [],
      "payable": false,
      "stateMutability": "nonpayable",
      "type": "function"
    },
    {
      "constant": true,
      "inputs": [
        {
          "name": "_client",
          "type": "address"
        }
      ],
      "name": "getVideoID",
      "outputs": [
        {
          "name": "",
          "type": "bytes32"
        }
      ],
      "payable": false,
      "stateMutability": "view",
      "type": "function"
    },
    {
      "constant": false,
      "inputs": [
        {
          "name": "_client",
          "type": "address"
        },
        {
          "name": "_file",
          "type": "bytes32"
        }
      ],
      "name": "setAddress",
      "outputs": [],
      "payable": false,
      "stateMutability": "nonpayable",
      "type": "function"
    },
    {
      "constant": true,
      "inputs": [
        {
          "name": "_client",
          "type": "address"
        }
      ],
      "name": "getAddress",
      "outputs": [
        {
          "name": "",
          "type": "bytes32"
        }
      ],
      "payable": false,
      "stateMutability": "view",
      "type": "function"
    }
  ],
  "bytecode": "0x608060405234801561001057600080fd5b50610e08806100206000396000f3fe608060405234801561001057600080fd5b50600436106100f55760003560e01c80637a68f5a911610097578063ab13c1c011610066578063ab13c1c0146102e2578063ae22c57d1461030e578063b304f21c14610334578063c4d66de814610362576100f5565b80637a68f5a914610238578063851d014a1461025e57806390c06ef51461028a5780639562fdf3146102b6576100f5565b806330ccebb5116100d357806330ccebb51461018657806332190dea146101c05780633ed93c4f146101ec5780635d962a9514610212576100f5565b80630b87c1e0146100fa578063245a753a1461013257806327f08b3114610160575b600080fd5b6101206004803603602081101561011057600080fd5b50356001600160a01b0316610388565b60408051918252519081900360200190f35b61015e6004803603604081101561014857600080fd5b506001600160a01b03813516906020013561044c565b005b6101206004803603602081101561017657600080fd5b50356001600160a01b031661050e565b6101ac6004803603602081101561019c57600080fd5b50356001600160a01b03166105d2565b604080519115158252519081900360200190f35b61015e600480360360408110156101d657600080fd5b506001600160a01b0381351690602001356105f0565b6101206004803603602081101561020257600080fd5b50356001600160a01b03166106b2565b6101206004803603602081101561022857600080fd5b50356001600160a01b0316610776565b6101206004803603602081101561024e57600080fd5b50356001600160a01b031661083a565b61015e6004803603604081101561027457600080fd5b506001600160a01b0381351690602001356108fe565b61015e600480360360408110156102a057600080fd5b506001600160a01b0381351690602001356109c0565b61015e600480360360408110156102cc57600080fd5b506001600160a01b038135169060200135610a82565b61015e600480360360408110156102f857600080fd5b506001600160a01b038135169060200135610b44565b6101206004803603602081101561032457600080fd5b50356001600160a01b0316610c06565b61015e6004803603604081101561034a57600080fd5b506001600160a01b0381351690602001351515610cca565b61015e6004803603602081101561037857600080fd5b50356001600160a01b0316610dba565b6000336001600160a01b0383161480610424575060335460408051600160e01b633d5840630281526001600160a01b03858116600483015291519190921691633d584063916024808301926020929190829003018186803b1580156103ec57600080fd5b505afa158015610400573d6000803e3d6000fd5b505050506040513d602081101561041657600080fd5b50516001600160a01b031633145b61042d57600080fd5b506001600160a01b031660009081526034602052604090206001015490565b336001600160a01b03831614806104e6575060335460408051600160e01b633d5840630281526001600160a01b03858116600483015291519190921691633d584063916024808301926020929190829003018186803b1580156104ae57600080fd5b505afa1580156104c2573d6000803e3d6000fd5b505050506040513d60208110156104d857600080fd5b50516001600160a01b031633145b6104ef57600080fd5b6001600160a01b03909116600090815260346020526040902060010155565b6000336001600160a01b03831614806105aa575060335460408051600160e01b633d5840630281526001600160a01b03858116600483015291519190921691633d584063916024808301926020929190829003018186803b15801561057257600080fd5b505afa158015610586573d6000803e3d6000fd5b505050506040513d602081101561059c57600080fd5b50516001600160a01b031633145b6105b357600080fd5b506001600160a01b031660009081526034602052604090206004015490565b6001600160a01b031660009081526034602052604090205460ff1690565b336001600160a01b038316148061068a575060335460408051600160e01b633d5840630281526001600160a01b03858116600483015291519190921691633d584063916024808301926020929190829003018186803b15801561065257600080fd5b505afa158015610666573d6000803e3d6000fd5b505050506040513d602081101561067c57600080fd5b50516001600160a01b031633145b61069357600080fd5b6001600160a01b03909116600090815260346020526040902060060155565b6000336001600160a01b038316148061074e575060335460408051600160e01b633d5840630281526001600160a01b03858116600483015291519190921691633d584063916024808301926020929190829003018186803b15801561071657600080fd5b505afa15801561072a573d6000803e3d6000fd5b505050506040513d602081101561074057600080fd5b50516001600160a01b031633145b61075757600080fd5b506001600160a01b031660009081526034602052604090206002015490565b6000336001600160a01b0383161480610812575060335460408051600160e01b633d5840630281526001600160a01b03858116600483015291519190921691633d584063916024808301926020929190829003018186803b1580156107da57600080fd5b505afa1580156107ee573d6000803e3d6000fd5b505050506040513d602081101561080457600080fd5b50516001600160a01b031633145b61081b57600080fd5b506001600160a01b031660009081526034602052604090206003015490565b6000336001600160a01b03831614806108d6575060335460408051600160e01b633d5840630281526001600160a01b03858116600483015291519190921691633d584063916024808301926020929190829003018186803b15801561089e57600080fd5b505afa1580156108b2573d6000803e3d6000fd5b505050506040513d60208110156108c857600080fd5b50516001600160a01b031633145b6108df57600080fd5b506001600160a01b031660009081526034602052604090206005015490565b336001600160a01b0383161480610998575060335460408051600160e01b633d5840630281526001600160a01b03858116600483015291519190921691633d584063916024808301926020929190829003018186803b15801561096057600080fd5b505afa158015610974573d6000803e3d6000fd5b505050506040513d602081101561098a57600080fd5b50516001600160a01b031633145b6109a157600080fd5b6001600160a01b03909116600090815260346020526040902060040155565b336001600160a01b0383161480610a5a575060335460408051600160e01b633d5840630281526001600160a01b03858116600483015291519190921691633d584063916024808301926020929190829003018186803b158015610a2257600080fd5b505afa158015610a36573d6000803e3d6000fd5b505050506040513d6020811015610a4c57600080fd5b50516001600160a01b031633145b610a6357600080fd5b6001600160a01b03909116600090815260346020526040902060050155565b336001600160a01b0383161480610b1c575060335460408051600160e01b633d5840630281526001600160a01b03858116600483015291519190921691633d584063916024808301926020929190829003018186803b158015610ae457600080fd5b505afa158015610af8573d6000803e3d6000fd5b505050506040513d6020811015610b0e57600080fd5b50516001600160a01b031633145b610b2557600080fd5b6001600160a01b03909116600090815260346020526040902060030155565b336001600160a01b0383161480610bde575060335460408051600160e01b633d5840630281526001600160a01b03858116600483015291519190921691633d584063916024808301926020929190829003018186803b158015610ba657600080fd5b505afa158015610bba573d6000803e3d6000fd5b505050506040513d6020811015610bd057600080fd5b50516001600160a01b031633145b610be757600080fd5b6001600160a01b03909116600090815260346020526040902060020155565b6000336001600160a01b0383161480610ca2575060335460408051600160e01b633d5840630281526001600160a01b03858116600483015291519190921691633d584063916024808301926020929190829003018186803b158015610c6a57600080fd5b505afa158015610c7e573d6000803e3d6000fd5b505050506040513d6020811015610c9457600080fd5b50516001600160a01b031633145b610cab57600080fd5b506001600160a01b031660009081526034602052604090206006015490565b60335460408051600160e01b633d5840630281526001600160a01b03858116600483015291519190921691633d584063916024808301926020929190829003018186803b158015610d1a57600080fd5b505afa158015610d2e573d6000803e3d6000fd5b505050506040513d6020811015610d4457600080fd5b50516001600160a01b03163314610d5a57600080fd5b6001600160a01b038216600081815260346020908152604091829020805460ff1916851515908117909155825190815291517f8869cdd8f384cd2fb916514df6bf443d53aaf52a1cd0d7548ce66baa985cd1429281900390910190a25050565b603380546001600160a01b0319166001600160a01b039290921691909117905556fea165627a7a72305820590498e6ff11a327ad6665ceabf56d81df975287b733690af5fe0531615e88520029",
  "source": "// (c) Kallol Borah, 2020\r\n// Stores and retrieves client KYC data stored on IPFS\r\n\r\npragma solidity 0.5.7;\r\n\r\nimport \"../interfaces/VerifiedKYC.sol\";\r\nimport \"../interfaces/VerifiedClient.sol\";\r\nimport \"@openzeppelin/upgrades/contracts/Initializable.sol\";\r\n\r\ncontract Kyc is VerifiedKYC, Initializable{\r\n\r\n    //client file for references to various KYC related data\r\n    struct file{\r\n        bool kyc_status;\r\n        bytes32 kyc_file;\r\n        bytes32 fatca_declaration;\r\n        bytes32 crs_declaration; \r\n        bytes32 photo_id;\r\n        bytes32 video_id;\r\n        bytes32 address_proof;\r\n    }\r\n\r\n    //reference of user client\r\n    VerifiedClient private User;\r\n\r\n    //mapping of a client to its kyc data\r\n    mapping(address => file) private client;\r\n\r\n    //event emitted for kyc acceptance status\r\n    event KycUpdate(address indexed client, bool status);\r\n\r\n    function initialize(address _client) public {\r\n        User = VerifiedClient(_client);\r\n    }\r\n\r\n    //setter and getter functions for kyc\r\n    function setStatus(address _client, bool _status) external {\r\n        require(msg.sender==User.getManager(_client));\r\n        client[_client].kyc_status = _status;\r\n        emit KycUpdate(_client, _status);\r\n    }\r\n\r\n    function getStatus(address _client) external view returns(bool){\r\n        return client[_client].kyc_status;\r\n    }\r\n\r\n    function setFile(address _client, bytes32 _file) external {\r\n        require((msg.sender==_client || msg.sender==User.getManager(_client)));\r\n        client[_client].kyc_file = _file;\r\n    }\r\n\r\n    function getFile(address _client) external view returns(bytes32){\r\n        require(msg.sender==_client || msg.sender==User.getManager(_client));\r\n        return client[_client].kyc_file;\r\n    }\r\n\r\n    function setFATCA(address _client, bytes32 _file) external {\r\n        require(msg.sender==_client || msg.sender==User.getManager(_client));\r\n        client[_client].fatca_declaration = _file;\r\n    }\r\n\r\n    function getFATCA(address _client) external view returns(bytes32){\r\n        require(msg.sender==_client || msg.sender==User.getManager(_client));\r\n        return client[_client].fatca_declaration;\r\n    }\r\n\r\n    function setCRS(address _client, bytes32 _file) external {\r\n        require(msg.sender==_client || msg.sender==User.getManager(_client));\r\n        client[_client].crs_declaration = _file;\r\n    }\r\n\r\n    function getCRS(address _client) external view returns(bytes32){\r\n        require(msg.sender==_client || msg.sender==User.getManager(_client));\r\n        return client[_client].crs_declaration;\r\n    }\r\n\r\n    function setPhotoID(address _client, bytes32 _file) external {\r\n        require(msg.sender==_client || msg.sender==User.getManager(_client));\r\n        client[_client].photo_id = _file;\r\n    }\r\n\r\n    function getPhotoID(address _client) external view returns(bytes32){\r\n        require(msg.sender==_client || msg.sender==User.getManager(_client));\r\n        return client[_client].photo_id;\r\n    }\r\n\r\n    function setVideoID(address _client, bytes32 _file) external {\r\n        require(msg.sender==_client || msg.sender==User.getManager(_client));\r\n        client[_client].video_id = _file;\r\n    }\r\n\r\n    function getVideoID(address _client) external view returns(bytes32){\r\n        require(msg.sender==_client || msg.sender==User.getManager(_client));\r\n        return client[_client].video_id;\r\n    }\r\n\r\n    function setAddress(address _client, bytes32 _file) external {\r\n        require(msg.sender==_client || msg.sender==User.getManager(_client));\r\n        client[_client].address_proof = _file;\r\n    }\r\n\r\n    function getAddress(address _client) external view returns(bytes32){\r\n        require(msg.sender==_client || msg.sender==User.getManager(_client));\r\n        return client[_client].address_proof;\r\n    }\r\n\r\n}\r\n",
  "sourcePath": "D:/code/verified-accounts/contracts/kyc/Kyc.sol",
  "compiler": {
    "name": "solc",
    "version": "0.5.7+commit.6da8b019.Emscripten.clang"
  },
  "schemaVersion": "3.3.3",
  "updatedAt": "2021-04-04T01:54:25.776Z",
  "networkType": "ethereum",
  "devdoc": {
    "methods": {}
  },
  "userdoc": {
    "methods": {}
  }
}