{
  "contractName": "Ledger",
  "abi": [
    {
      "constant": true,
      "inputs": [],
      "name": "ledgerName",
      "outputs": [
        {
          "name": "",
          "type": "bytes32"
        }
      ],
      "payable": false,
      "stateMutability": "view",
      "type": "function"
    },
    {
      "constant": false,
      "inputs": [
        {
          "name": "_ledgerName",
          "type": "bytes32"
        },
        {
          "name": "_ledgerGroup",
          "type": "bytes32"
        },
        {
          "name": "_holder",
          "type": "address"
        },
        {
          "name": "_owner",
          "type": "address"
        },
        {
          "name": "_accountCreator",
          "type": "address"
        },
        {
          "name": "_accountHolder",
          "type": "address"
        }
      ],
      "name": "initialize",
      "outputs": [],
      "payable": false,
      "stateMutability": "nonpayable",
      "type": "function"
    },
    {
      "constant": false,
      "inputs": [],
      "name": "getBalance",
      "outputs": [
        {
          "name": "",
          "type": "bytes16"
        },
        {
          "name": "",
          "type": "bytes32"
        },
        {
          "name": "",
          "type": "bytes32"
        }
      ],
      "payable": false,
      "stateMutability": "nonpayable",
      "type": "function"
    },
    {
      "constant": false,
      "inputs": [
        {
          "name": "_txDate",
          "type": "uint256"
        }
      ],
      "name": "getEntries",
      "outputs": [
        {
          "name": "",
          "type": "address[]"
        },
        {
          "name": "",
          "type": "bytes16[]"
        },
        {
          "name": "",
          "type": "bytes32[]"
        },
        {
          "name": "",
          "type": "uint256[]"
        },
        {
          "name": "",
          "type": "bytes32[]"
        }
      ],
      "payable": false,
      "stateMutability": "nonpayable",
      "type": "function"
    },
    {
      "constant": false,
      "inputs": [
        {
          "name": "_accountName",
          "type": "bytes32"
        },
        {
          "name": "_currency",
          "type": "bytes32"
        }
      ],
      "name": "createAccount",
      "outputs": [],
      "payable": false,
      "stateMutability": "nonpayable",
      "type": "function"
    }
  ],
  "bytecode": "0x608060405234801561001057600080fd5b506112b3806100206000396000f3fe608060405234801561001057600080fd5b50600436106100575760003560e01c806312065fe01461005c578063183815c81461008d57806389d29c4c146100b2578063cf1f3dd7146100fc578063d3549ebd14610116575b600080fd5b61006461029b565b604080516001600160801b03199094168452602084019290925282820152519081900360600190f35b6100b0600480360360408110156100a357600080fd5b508035906020013561047f565b005b6100b0600480360360c08110156100c857600080fd5b508035906020810135906001600160a01b0360408201358116916060810135821691608082013581169160a001351661051e565b61010461062d565b60408051918252519081900360200190f35b6101336004803603602081101561012c57600080fd5b5035610633565b60405180806020018060200180602001806020018060200186810386528b818151815260200191508051906020019060200280838360005b8381101561018357818101518382015260200161016b565b5050505090500186810385528a818151815260200191508051906020019060200280838360005b838110156101c25781810151838201526020016101aa565b50505050905001868103845289818151815260200191508051906020019060200280838360005b838110156102015781810151838201526020016101e9565b50505050905001868103835288818151815260200191508051906020019060200280838360005b83811015610240578181015183820152602001610228565b50505050905001868103825287818151815260200191508051906020019060200280838360005b8381101561027f578181015183820152602001610267565b505050509050019a505050505050505050505060405180910390f35b603854600090819081906001600160a01b031633146102b957600080fd5b60335460408051600160e11b6351015e1702815230600482015290516060926001600160a01b03169163a202bc2e916024808301926000929190829003018186803b15801561030757600080fd5b505afa15801561031b573d6000803e3d6000fd5b505050506040513d6000823e601f3d908101601f19168201604052602081101561034457600080fd5b810190808051600160201b81111561035b57600080fd5b8201602081018481111561036e57600080fd5b81518560208202830111600160201b8211171561038a57600080fd5b50909450600093505050505b81518110156104635760365482516104419160801b908490849081106103b857fe5b60209081029190910181015160395460408051600160e01b63f8b2cb4f0281526001600160a01b0392831660048201529051919092169263f8b2cb4f9260248082019391829003018186803b15801561041057600080fd5b505afa158015610424573d6000803e3d6000fd5b505050506040513d602081101561043a57600080fd5b5051610d4a565b603680546001600160801b03191660809290921c919091179055600101610396565b505060365460345460355460809290921b945092509050909192565b6037546001600160a01b0316331461049657600080fd5b60335460375460395460408051600160e01b636a8f91ff02815260048101879052602481018690526001600160a01b0393841660448201529183166064830152519190921691636a8f91ff91608480830192600092919082900301818387803b15801561050257600080fd5b505af1158015610516573d6000803e3d6000fd5b505050505050565b600054610100900460ff16806105375750610537611150565b80610545575060005460ff16155b61058357604051600160e51b62461bcd02815260040180806020018281038252602e81526020018061125a602e913960400191505060405180910390fd5b600054610100900460ff161580156105ae576000805460ff1961ff0019909116610100171660011790555b603380546001600160a01b038087166001600160a01b03199283161790925560348990556035889055603680546001600160801b0319169055603780548684169083161790556038805488841690831617905560398054928516929091169190911790558015610624576000805461ff00191690555b50505050505050565b60345481565b60385460609081908190819081906001600160a01b0316331461065557600080fd5b610661603a60006111f9565b61066d603b600061121a565b610679603e60006111f9565b610685603c60006111f9565b610691603d60006111f9565b60335460408051600160e11b6351015e1702815230600482015290516060926001600160a01b03169163a202bc2e916024808301926000929190829003018186803b1580156106df57600080fd5b505afa1580156106f3573d6000803e3d6000fd5b505050506040513d6000823e601f3d908101601f19168201604052602081101561071c57600080fd5b810190808051600160201b81111561073357600080fd5b8201602081018481111561074657600080fd5b81518560208202830111600160201b8211171561076257600080fd5b50909450600093505050505b8151811015610af657606080606080606086868151811061078b57fe5b60200260200101516001600160a01b031663d3549ebd8e6040518263ffffffff1660e01b81526004018082815260200191505060006040518083038186803b1580156107d657600080fd5b505afa1580156107ea573d6000803e3d6000fd5b505050506040513d6000823e601f3d908101601f1916820160405260a081101561081357600080fd5b810190808051600160201b81111561082a57600080fd5b8201602081018481111561083d57600080fd5b81518560208202830111600160201b8211171561085957600080fd5b50509291906020018051600160201b81111561087457600080fd5b8201602081018481111561088757600080fd5b81518560208202830111600160201b821117156108a357600080fd5b50509291906020018051600160201b8111156108be57600080fd5b820160208101848111156108d157600080fd5b81518560208202830111600160201b821117156108ed57600080fd5b50509291906020018051600160201b81111561090857600080fd5b8201602081018481111561091b57600080fd5b81518560208202830111600160201b8211171561093757600080fd5b50509291906020018051600160201b81111561095257600080fd5b8201602081018481111561096557600080fd5b81518560208202830111600160201b8211171561098157600080fd5b50509291905050509450945094509450945060008090505b8551811015610ae457603a8682815181106109b057fe5b60209081029190910181015182546001810184556000938452919092200180546001600160a01b0319166001600160a01b039092169190911790558451603b908690839081106109fc57fe5b6020908102919091018101518254600181810185556000948552929093206002840401805460809290921c601094909316939093026101000a9182026001600160801b0390920219161790558351603e90859083908110610a5957fe5b602090810291909101810151825460018101845560009384529190922001558251603c90849083908110610a8957fe5b602090810291909101810151825460018101845560009384529190922001558151603d90839083908110610ab957fe5b6020908102919091018101518254600181810185556000948552929093209092019190915501610999565b50506001909401935061076e92505050565b50603a54604080518281526020808402820101909152606090828015610b26578160200160208202803883390190505b509050606082604051908082528060200260200182016040528015610b55578160200160208202803883390190505b509050606083604051908082528060200260200182016040528015610b84578160200160208202803883390190505b509050606084604051908082528060200260200182016040528015610bb3578160200160208202803883390190505b509050606085604051908082528060200260200182016040528015610be2578160200160208202803883390190505b50905060005b86811015610d3457603a8181548110610bfd57fe5b9060005260206000200160009054906101000a90046001600160a01b0316868281518110610c2757fe5b60200260200101906001600160a01b031690816001600160a01b031681525050603e8181548110610c5457fe5b9060005260206000200154858281518110610c6b57fe5b602002602001018181525050603d8181548110610c8457fe5b9060005260206000200154848281518110610c9b57fe5b602002602001018181525050603c8181548110610cb457fe5b9060005260206000200154828281518110610ccb57fe5b602002602001018181525050603b8181548110610ce457fe5b90600052602060002090600291828204019190066010029054906101000a900460801b838281518110610d1357fe5b6001600160801b031990921660209283029190910190910152600101610be8565b50939c909b509199509197509095509350505050565b6000617fff6001600160801b03608085811c8216607090811c8416939186901c90921690911c811690821415610dc05780617fff1415610db6576001600160801b03198581169085161415610da357849250505061114a565b50600160ef1b61ffff02915061114a9050565b849250505061114a565b80617fff1415610dd457839250505061114a565b6001607f1b608086901c6001600160801b0381169190911015906001600160701b031683610e055760019350610e0c565b600160701b175b6001607f1b608087901c6001600160801b0381169190911015906001600160701b031684610e3d5760019450610e44565b600160701b175b82610e74576001600160801b03198816600160ff1b14610e645787610e67565b60005b965050505050505061114a565b80610e94576001600160801b03198916600160ff1b14610e645788610e67565b8486038415158315151415610fa2576070811315610ebb578997505050505050505061114a565b6000811315610ecd5790811c90610efc565b606f19811215610ee6578897505050505050505061114a565b6000811215610efc578060000384901c93508596505b92810192600160711b8410610f17576001968701969390931c925b86617fff1415610f4c5784610f3457600160f01b617fff02610f3e565b6001600160f01b03195b97505050505050505061114a565b600160701b841015610f615760009650610f6e565b6001600160701b03841693505b83607088901b86610f80576000610f86565b6001607f1b5b6001600160801b0316171760801b97505050505050505061114a565b6000811315610fbd57600184901b9350600187039650610fd4565b6000811215610fd457600182901b91506001860396505b6070811315610fe65760019150611033565b6001811315611003576001810360018303901c6001019150611033565b606f198112156110165760019350611033565b600019811215611033576001816000030360018503901c60010193505b81841061104457818403935061104d565b83820393508294505b8361106357506000965061114a95505050505050565b600061106e85611157565b9050806071141561109457600185901c6001600160701b031694506001880197506110e3565b60708110156110d6576070819003808911156110c3578086901b6001600160701b0316955080890398506110d0565b600098600019019590951b945b506110e3565b6001600160701b03851694505b87617fff1415611119578561110057600160f01b617fff0261110a565b6001600160f01b03195b9850505050505050505061114a565b84607089901b8761112b576000611131565b6001607f1b5b6001600160801b0316171760801b985050505050505050505b92915050565b303b155b90565b600080821161116557600080fd5b6000600160801b831061117a57608092831c92015b68010000000000000000831061119257604092831c92015b600160201b83106111a557602092831c92015b6201000083106111b757601092831c92015b61010083106111c857600892831c92015b601083106111d857600492831c92015b600483106111e857600292831c92015b6002831061114a5760010192915050565b5080546000825590600052602060002090810190611217919061123b565b50565b50805460008255600101600290049060005260206000209081019061121791905b61115491905b808211156112555760008155600101611241565b509056fe436f6e747261637420696e7374616e63652068617320616c7265616479206265656e20696e697469616c697a6564a165627a7a7230582054a8cb73a87305f773d2ce60c2af49e87017b4e43c25b9b66fd22dcad20d59b10029",
  "source": "// (c) Kallol Borah, 2020\r\n// Implementation of a general ledger account\r\n\r\npragma solidity 0.5.7;\r\n\r\nimport \"../interfaces/VerifiedSystem.sol\";\r\nimport \"../interfaces/VerifiedAccount.sol\";\r\nimport \"../interfaces/VerifiedLedger.sol\";\r\nimport \"abdk-libraries-solidity/ABDKMathQuad.sol\";\r\nimport \"@openzeppelin/upgrades/contracts/Initializable.sol\";\r\n\r\n\r\ncontract Ledger is VerifiedLedger, Initializable{\r\n\r\n    using ABDKMathQuad for uint256;\r\n    using ABDKMathQuad for int256;\r\n    using ABDKMathQuad for bytes16;\r\n\r\n    VerifiedSystem private factory;\r\n\r\n    bytes32 public ledgerName;\r\n\r\n    bytes32 ledgerGroup;\r\n\r\n    bytes16 ledgerBalance;\r\n\r\n    address accountCreator;\r\n    address holder;\r\n    address accountHolder;\r\n\r\n    address[] party;\r\n    bytes16[] amount;\r\n    uint256[] date;\r\n    bytes32[] description;\r\n    bytes32[] transaction;\r\n\r\n    //initiliaze proxies\r\n    function initialize(bytes32 _ledgerName, bytes32 _ledgerGroup, address _holder, address _owner, address _accountCreator, address _accountHolder) public initializer{\r\n        // this ledger can be owned by only one account holder (client)\r\n        factory = VerifiedSystem(_owner);\r\n        ledgerName = _ledgerName;\r\n        ledgerGroup = _ledgerGroup;\r\n        ledgerBalance = 0;\r\n        accountCreator = _accountCreator;\r\n        holder = _holder;\r\n        accountHolder = _accountHolder;\r\n    }\r\n\r\n    // sum up balances of all accounts in this ledger account\r\n    function getBalance() external returns (bytes16, bytes32, bytes32){\r\n        // ensure the msg sender owns this ledger\r\n        require(holder==msg.sender);        \r\n        address[] memory accounts = factory.getLedgerAccounts(address(this));\r\n        for(uint256 i=0; i<accounts.length; i++){\r\n            ledgerBalance = ABDKMathQuad.add(ledgerBalance, VerifiedAccount(accounts[i]).getBalance(accountHolder));\r\n        }\r\n        return(ledgerBalance, ledgerName, ledgerGroup);\r\n    }\r\n\r\n    // gets all account entries for an account holder\r\n    function getEntries(uint256 _txDate) external returns(address[] memory, bytes16[] memory, bytes32[] memory, uint256[] memory, bytes32[] memory){\r\n        // ensure the msg sender owns this ledger\r\n        require(holder==msg.sender);\r\n        delete party;\r\n        delete amount;\r\n        delete transaction;\r\n        delete date;\r\n        delete description;\r\n        address[] memory accounts = factory.getLedgerAccounts(address(this));\r\n        for(uint256 i=0; i<accounts.length; i++){\r\n            (address[] memory _party, bytes16[] memory _amount, bytes32[] memory _txType, uint256[] memory _date, bytes32[] memory _description) \r\n                = VerifiedAccount(accounts[i]).getEntries(_txDate);\r\n            for(uint256 j=0; j<_party.length; j++){\r\n                party.push(_party[j]);\r\n                amount.push(_amount[j]);\r\n                transaction.push(_txType[j]);\r\n                date.push(_date[j]);\r\n                description.push(_description[j]);\r\n            }\r\n        }\r\n        uint _entries = party.length;\r\n        address[] memory _party = new address[](_entries);\r\n        bytes32[] memory _txType = new bytes32[](_entries);\r\n        bytes32[] memory _txDescription = new bytes32[](_entries);\r\n        bytes16[] memory _txAmount = new bytes16[](_entries);\r\n        uint256[] memory _date = new uint256[](_entries);\r\n        for(uint256 k=0; k<_entries; k++){\r\n            _party[k] = party[k];\r\n            _txType[k] = transaction[k];\r\n            _txDescription[k] = description[k];\r\n            _date[k] = date[k];\r\n            _txAmount[k] = amount[k];\r\n        }\r\n        return(_party, _txAmount, _txType, _date, _txDescription);\r\n    }\r\n\r\n    //needs to be called by the owner of this ledger to create an account\r\n    //_accountName is the name of the account proxy to create\r\n    function createAccount(bytes32 _accountName, bytes32 _currency) external {\r\n        require(accountCreator==msg.sender);\r\n        factory.createAccount(_accountName, _currency, accountCreator, accountHolder);\r\n    }\r\n\r\n}",
  "sourcePath": "D:\\Code\\verified-accounts\\contracts\\accounting\\Ledger.sol",
  "compiler": {
    "name": "solc",
    "version": "0.5.7+commit.6da8b019.Emscripten.clang"
  },
  "schemaVersion": "3.4.3",
  "updatedAt": "2021-09-14T15:53:30.245Z",
  "networkType": "ethereum",
  "devdoc": {
    "methods": {}
  },
  "userdoc": {
    "methods": {}
  }
}