{
  "contractName": "Ledger",
  "abi": [
    {
      "constant": true,
      "inputs": [],
      "name": "ledgerName",
      "outputs": [
        {
          "name": "",
          "type": "bytes32"
        }
      ],
      "payable": false,
      "stateMutability": "view",
      "type": "function"
    },
    {
      "constant": false,
      "inputs": [
        {
          "name": "_ledgerName",
          "type": "bytes32"
        },
        {
          "name": "_ledgerGroup",
          "type": "bytes32"
        },
        {
          "name": "_accountCreator",
          "type": "address"
        },
        {
          "name": "_owner",
          "type": "address"
        },
        {
          "name": "_accountHolder",
          "type": "address"
        }
      ],
      "name": "initialize",
      "outputs": [],
      "payable": false,
      "stateMutability": "nonpayable",
      "type": "function"
    },
    {
      "constant": false,
      "inputs": [],
      "name": "getBalance",
      "outputs": [
        {
          "name": "",
          "type": "bytes16"
        },
        {
          "name": "",
          "type": "bytes32"
        },
        {
          "name": "",
          "type": "bytes32"
        }
      ],
      "payable": false,
      "stateMutability": "nonpayable",
      "type": "function"
    },
    {
      "constant": false,
      "inputs": [
        {
          "name": "_txDate",
          "type": "uint256"
        }
      ],
      "name": "getEntries",
      "outputs": [
        {
          "name": "",
          "type": "address[]"
        },
        {
          "name": "",
          "type": "bytes16[]"
        },
        {
          "name": "",
          "type": "bytes32[]"
        },
        {
          "name": "",
          "type": "uint256[]"
        },
        {
          "name": "",
          "type": "bytes32[]"
        }
      ],
      "payable": false,
      "stateMutability": "nonpayable",
      "type": "function"
    },
    {
      "constant": false,
      "inputs": [
        {
          "name": "_accountName",
          "type": "bytes32"
        },
        {
          "name": "_currency",
          "type": "bytes32"
        }
      ],
      "name": "createAccount",
      "outputs": [],
      "payable": false,
      "stateMutability": "nonpayable",
      "type": "function"
    }
  ],
  "bytecode": "0x608060405234801561001057600080fd5b5061129e806100206000396000f3fe608060405234801561001057600080fd5b50600436106100575760003560e01c806312065fe01461005c578063183815c81461008d57806346499770146100b2578063cf1f3dd7146100f6578063d3549ebd14610110575b600080fd5b610064610295565b604080516001600160801b03199094168452602084019290925282820152519081900360600190f35b6100b0600480360360408110156100a357600080fd5b5080359060200135610479565b005b6100b0600480360360a08110156100c857600080fd5b508035906020810135906001600160a01b036040820135811691606081013582169160809091013516610518565b6100fe610618565b60408051918252519081900360200190f35b61012d6004803603602081101561012657600080fd5b503561061e565b60405180806020018060200180602001806020018060200186810386528b818151815260200191508051906020019060200280838360005b8381101561017d578181015183820152602001610165565b5050505090500186810385528a818151815260200191508051906020019060200280838360005b838110156101bc5781810151838201526020016101a4565b50505050905001868103845289818151815260200191508051906020019060200280838360005b838110156101fb5781810151838201526020016101e3565b50505050905001868103835288818151815260200191508051906020019060200280838360005b8381101561023a578181015183820152602001610222565b50505050905001868103825287818151815260200191508051906020019060200280838360005b83811015610279578181015183820152602001610261565b505050509050019a505050505050505050505060405180910390f35b603854600090819081906001600160a01b031633146102b357600080fd5b60335460408051600160e11b6351015e1702815230600482015290516060926001600160a01b03169163a202bc2e916024808301926000929190829003018186803b15801561030157600080fd5b505afa158015610315573d6000803e3d6000fd5b505050506040513d6000823e601f3d908101601f19168201604052602081101561033e57600080fd5b810190808051600160201b81111561035557600080fd5b8201602081018481111561036857600080fd5b81518560208202830111600160201b8211171561038457600080fd5b50909450600093505050505b815181101561045d57603654825161043b9160801b908490849081106103b257fe5b60209081029190910181015160385460408051600160e01b63f8b2cb4f0281526001600160a01b0392831660048201529051919092169263f8b2cb4f9260248082019391829003018186803b15801561040a57600080fd5b505afa15801561041e573d6000803e3d6000fd5b505050506040513d602081101561043457600080fd5b5051610d35565b603680546001600160801b03191660809290921c919091179055600101610390565b505060365460345460355460809290921b945092509050909192565b6037546001600160a01b0316331461049057600080fd5b60335460375460385460408051600160e01b636a8f91ff02815260048101879052602481018690526001600160a01b0393841660448201529183166064830152519190921691636a8f91ff91608480830192600092919082900301818387803b1580156104fc57600080fd5b505af1158015610510573d6000803e3d6000fd5b505050505050565b600054610100900460ff1680610531575061053161113b565b8061053f575060005460ff16155b61057d57604051600160e51b62461bcd02815260040180806020018281038252602e815260200180611245602e913960400191505060405180910390fd5b600054610100900460ff161580156105a8576000805460ff1961ff0019909116610100171660011790555b603380546001600160a01b038086166001600160a01b03199283161790925560348890556035879055603680546001600160801b03191690556037805487841690831617905560388054928516929091169190911790558015610510576000805461ff0019169055505050505050565b60345481565b60385460609081908190819081906001600160a01b0316331461064057600080fd5b61064c603960006111e4565b610658603a6000611205565b610664603d60006111e4565b610670603b60006111e4565b61067c603c60006111e4565b60335460408051600160e11b6351015e1702815230600482015290516060926001600160a01b03169163a202bc2e916024808301926000929190829003018186803b1580156106ca57600080fd5b505afa1580156106de573d6000803e3d6000fd5b505050506040513d6000823e601f3d908101601f19168201604052602081101561070757600080fd5b810190808051600160201b81111561071e57600080fd5b8201602081018481111561073157600080fd5b81518560208202830111600160201b8211171561074d57600080fd5b50909450600093505050505b8151811015610ae157606080606080606086868151811061077657fe5b60200260200101516001600160a01b031663d3549ebd8e6040518263ffffffff1660e01b81526004018082815260200191505060006040518083038186803b1580156107c157600080fd5b505afa1580156107d5573d6000803e3d6000fd5b505050506040513d6000823e601f3d908101601f1916820160405260a08110156107fe57600080fd5b810190808051600160201b81111561081557600080fd5b8201602081018481111561082857600080fd5b81518560208202830111600160201b8211171561084457600080fd5b50509291906020018051600160201b81111561085f57600080fd5b8201602081018481111561087257600080fd5b81518560208202830111600160201b8211171561088e57600080fd5b50509291906020018051600160201b8111156108a957600080fd5b820160208101848111156108bc57600080fd5b81518560208202830111600160201b821117156108d857600080fd5b50509291906020018051600160201b8111156108f357600080fd5b8201602081018481111561090657600080fd5b81518560208202830111600160201b8211171561092257600080fd5b50509291906020018051600160201b81111561093d57600080fd5b8201602081018481111561095057600080fd5b81518560208202830111600160201b8211171561096c57600080fd5b50509291905050509450945094509450945060008090505b8551811015610acf57603986828151811061099b57fe5b60209081029190910181015182546001810184556000938452919092200180546001600160a01b0319166001600160a01b039092169190911790558451603a908690839081106109e757fe5b6020908102919091018101518254600181810185556000948552929093206002840401805460809290921c601094909316939093026101000a9182026001600160801b0390920219161790558351603d90859083908110610a4457fe5b602090810291909101810151825460018101845560009384529190922001558251603b90849083908110610a7457fe5b602090810291909101810151825460018101845560009384529190922001558151603c90839083908110610aa457fe5b6020908102919091018101518254600181810185556000948552929093209092019190915501610984565b50506001909401935061075992505050565b50603954604080518281526020808402820101909152606090828015610b11578160200160208202803883390190505b509050606082604051908082528060200260200182016040528015610b40578160200160208202803883390190505b509050606083604051908082528060200260200182016040528015610b6f578160200160208202803883390190505b509050606084604051908082528060200260200182016040528015610b9e578160200160208202803883390190505b509050606085604051908082528060200260200182016040528015610bcd578160200160208202803883390190505b50905060005b86811015610d1f5760398181548110610be857fe5b9060005260206000200160009054906101000a90046001600160a01b0316868281518110610c1257fe5b60200260200101906001600160a01b031690816001600160a01b031681525050603d8181548110610c3f57fe5b9060005260206000200154858281518110610c5657fe5b602002602001018181525050603c8181548110610c6f57fe5b9060005260206000200154848281518110610c8657fe5b602002602001018181525050603b8181548110610c9f57fe5b9060005260206000200154828281518110610cb657fe5b602002602001018181525050603a8181548110610ccf57fe5b90600052602060002090600291828204019190066010029054906101000a900460801b838281518110610cfe57fe5b6001600160801b031990921660209283029190910190910152600101610bd3565b50939c909b509199509197509095509350505050565b6000617fff6001600160801b03608085811c8216607090811c8416939186901c90921690911c811690821415610dab5780617fff1415610da1576001600160801b03198581169085161415610d8e578492505050611135565b50600160ef1b61ffff0291506111359050565b8492505050611135565b80617fff1415610dbf578392505050611135565b6001607f1b608086901c6001600160801b0381169190911015906001600160701b031683610df05760019350610df7565b600160701b175b6001607f1b608087901c6001600160801b0381169190911015906001600160701b031684610e285760019450610e2f565b600160701b175b82610e5f576001600160801b03198816600160ff1b14610e4f5787610e52565b60005b9650505050505050611135565b80610e7f576001600160801b03198916600160ff1b14610e4f5788610e52565b8486038415158315151415610f8d576070811315610ea65789975050505050505050611135565b6000811315610eb85790811c90610ee7565b606f19811215610ed15788975050505050505050611135565b6000811215610ee7578060000384901c93508596505b92810192600160711b8410610f02576001968701969390931c925b86617fff1415610f375784610f1f57600160f01b617fff02610f29565b6001600160f01b03195b975050505050505050611135565b600160701b841015610f4c5760009650610f59565b6001600160701b03841693505b83607088901b86610f6b576000610f71565b6001607f1b5b6001600160801b0316171760801b975050505050505050611135565b6000811315610fa857600184901b9350600187039650610fbf565b6000811215610fbf57600182901b91506001860396505b6070811315610fd1576001915061101e565b6001811315610fee576001810360018303901c600101915061101e565b606f19811215611001576001935061101e565b60001981121561101e576001816000030360018503901c60010193505b81841061102f578184039350611038565b83820393508294505b8361104e57506000965061113595505050505050565b600061105985611142565b9050806071141561107f57600185901c6001600160701b031694506001880197506110ce565b60708110156110c1576070819003808911156110ae578086901b6001600160701b0316955080890398506110bb565b600098600019019590951b945b506110ce565b6001600160701b03851694505b87617fff141561110457856110eb57600160f01b617fff026110f5565b6001600160f01b03195b98505050505050505050611135565b84607089901b8761111657600061111c565b6001607f1b5b6001600160801b0316171760801b985050505050505050505b92915050565b303b155b90565b600080821161115057600080fd5b6000600160801b831061116557608092831c92015b68010000000000000000831061117d57604092831c92015b600160201b831061119057602092831c92015b6201000083106111a257601092831c92015b61010083106111b357600892831c92015b601083106111c357600492831c92015b600483106111d357600292831c92015b600283106111355760010192915050565b50805460008255906000526020600020908101906112029190611226565b50565b50805460008255600101600290049060005260206000209081019061120291905b61113f91905b80821115611240576000815560010161122c565b509056fe436f6e747261637420696e7374616e63652068617320616c7265616479206265656e20696e697469616c697a6564a165627a7a72305820e8e17ef098d3d727ea6da2407f59c857efe7f20b6a693676e7954668c4619aa30029",
  "source": "// (c) Kallol Borah, 2020\r\n// Implementation of a general ledger account\r\n\r\npragma solidity 0.5.7;\r\n\r\nimport \"../interfaces/VerifiedSystem.sol\";\r\nimport \"../interfaces/VerifiedAccount.sol\";\r\nimport \"../interfaces/VerifiedLedger.sol\";\r\nimport \"abdk-libraries-solidity/ABDKMathQuad.sol\";\r\nimport \"@openzeppelin/upgrades/contracts/Initializable.sol\";\r\n\r\n\r\ncontract Ledger is VerifiedLedger, Initializable{\r\n\r\n    using ABDKMathQuad for uint256;\r\n    using ABDKMathQuad for int256;\r\n    using ABDKMathQuad for bytes16;\r\n\r\n    VerifiedSystem private factory;\r\n\r\n    bytes32 public ledgerName;\r\n\r\n    bytes32 ledgerGroup;\r\n\r\n    bytes16 ledgerBalance;\r\n\r\n    address accountCreator;\r\n\r\n    address accountHolder;\r\n\r\n    address[] party;\r\n    bytes16[] amount;\r\n    uint256[] date;\r\n    bytes32[] description;\r\n    bytes32[] transaction;\r\n\r\n    //initiliaze proxies\r\n    function initialize(bytes32 _ledgerName, bytes32 _ledgerGroup, address _accountCreator, address _owner, address _accountHolder) public initializer{\r\n        // this ledger can be owned by only one account holder (client)\r\n        factory = VerifiedSystem(_owner);\r\n        ledgerName = _ledgerName;\r\n        ledgerGroup = _ledgerGroup;\r\n        ledgerBalance = 0;\r\n        accountCreator = _accountCreator;\r\n        accountHolder = _accountHolder;\r\n    }\r\n\r\n    // sum up balances of all accounts in this ledger account\r\n    function getBalance() external returns (bytes16, bytes32, bytes32){\r\n        // ensure the msg sender owns this ledger\r\n        require(accountHolder==msg.sender);        \r\n        address[] memory accounts = factory.getLedgerAccounts(address(this));\r\n        for(uint256 i=0; i<accounts.length; i++){\r\n            ledgerBalance = ABDKMathQuad.add(ledgerBalance, VerifiedAccount(accounts[i]).getBalance(accountHolder));\r\n        }\r\n        return(ledgerBalance, ledgerName, ledgerGroup);\r\n    }\r\n\r\n    // gets all account entries for an account holder\r\n    function getEntries(uint256 _txDate) external returns(address[] memory, bytes16[] memory, bytes32[] memory, uint256[] memory, bytes32[] memory){\r\n        // ensure the msg sender owns this ledger\r\n        require(accountHolder==msg.sender); \r\n        delete party;\r\n        delete amount;\r\n        delete transaction;\r\n        delete date;\r\n        delete description;\r\n        address[] memory accounts = factory.getLedgerAccounts(address(this));\r\n        for(uint256 i=0; i<accounts.length; i++){\r\n            (address[] memory _party, bytes16[] memory _amount, bytes32[] memory _txType, uint256[] memory _date, bytes32[] memory _description) \r\n                = VerifiedAccount(accounts[i]).getEntries(_txDate);\r\n            for(uint256 j=0; j<_party.length; j++){\r\n                party.push(_party[j]);\r\n                amount.push(_amount[j]);\r\n                transaction.push(_txType[j]);\r\n                date.push(_date[j]);\r\n                description.push(_description[j]);\r\n            }\r\n        }\r\n        uint _entries = party.length;\r\n        address[] memory _party = new address[](_entries);\r\n        bytes32[] memory _txType = new bytes32[](_entries);\r\n        bytes32[] memory _txDescription = new bytes32[](_entries);\r\n        bytes16[] memory _txAmount = new bytes16[](_entries);\r\n        uint256[] memory _date = new uint256[](_entries);\r\n        for(uint256 k=0; k<_entries; k++){\r\n            _party[k] = party[k];\r\n            _txType[k] = transaction[k];\r\n            _txDescription[k] = description[k];\r\n            _date[k] = date[k];\r\n            _txAmount[k] = amount[k];\r\n        }\r\n        return(_party, _txAmount, _txType, _date, _txDescription);\r\n    }\r\n\r\n    //needs to be called by the owner of this ledger to create an account\r\n    //_accountName is the name of the account proxy to create\r\n    function createAccount(bytes32 _accountName, bytes32 _currency) external {\r\n        require(accountCreator==msg.sender);\r\n        factory.createAccount(_accountName, _currency, accountCreator, accountHolder);\r\n    }\r\n\r\n}",
  "sourcePath": "D:/Code/verified-accounts/contracts/accounting/Ledger.sol",
  "compiler": {
    "name": "solc",
    "version": "0.5.7+commit.6da8b019.Emscripten.clang"
  },
  "schemaVersion": "3.3.3",
  "updatedAt": "2021-07-02T11:08:26.589Z",
  "networkType": "ethereum",
  "devdoc": {
    "methods": {}
  },
  "userdoc": {
    "methods": {}
  }
}