{
  "contractName": "Ledger",
  "abi": [
    {
      "constant": true,
      "inputs": [],
      "name": "ledgerName",
      "outputs": [
        {
          "name": "",
          "type": "bytes32"
        }
      ],
      "payable": false,
      "stateMutability": "view",
      "type": "function"
    },
    {
      "constant": false,
      "inputs": [
        {
          "name": "_ledgerName",
          "type": "bytes32"
        },
        {
          "name": "_ledgerGroup",
          "type": "bytes32"
        },
        {
          "name": "_holder",
          "type": "address"
        },
        {
          "name": "_owner",
          "type": "address"
        },
        {
          "name": "_accountCreator",
          "type": "address"
        },
        {
          "name": "_accountHolder",
          "type": "address"
        }
      ],
      "name": "initialize",
      "outputs": [],
      "payable": false,
      "stateMutability": "nonpayable",
      "type": "function"
    },
    {
      "constant": false,
      "inputs": [],
      "name": "getBalance",
      "outputs": [
        {
          "name": "",
          "type": "bytes16"
        },
        {
          "name": "",
          "type": "bytes32"
        },
        {
          "name": "",
          "type": "bytes32"
        }
      ],
      "payable": false,
      "stateMutability": "nonpayable",
      "type": "function"
    },
    {
      "constant": false,
      "inputs": [
        {
          "name": "_startDate",
          "type": "uint256"
        },
        {
          "name": "_endDate",
          "type": "uint256"
        }
      ],
      "name": "getEntries",
      "outputs": [
        {
          "components": [
            {
              "name": "txType",
              "type": "bytes32"
            },
            {
              "name": "txDate",
              "type": "uint256"
            },
            {
              "name": "txDescription",
              "type": "bytes32"
            },
            {
              "name": "voucherType",
              "type": "bytes32"
            },
            {
              "name": "txCurrency",
              "type": "bytes32"
            },
            {
              "name": "txAmount",
              "type": "bytes16"
            },
            {
              "name": "party",
              "type": "address"
            }
          ],
          "name": "",
          "type": "tuple[]"
        }
      ],
      "payable": false,
      "stateMutability": "nonpayable",
      "type": "function"
    },
    {
      "constant": false,
      "inputs": [
        {
          "name": "_accountName",
          "type": "bytes32"
        },
        {
          "name": "_currency",
          "type": "bytes32"
        }
      ],
      "name": "createAccount",
      "outputs": [],
      "payable": false,
      "stateMutability": "nonpayable",
      "type": "function"
    }
  ],
  "bytecode": "0x608060405234801561001057600080fd5b5061134b806100206000396000f3fe608060405234801561001057600080fd5b50600436106100575760003560e01c806312065fe01461005c578063183815c81461007c578063478e8dad1461009157806389d29c4c146100b1578063cf1f3dd7146100c4575b600080fd5b6100646100d9565b604051610073939291906111f3565b60405180910390f35b61008f61008a366004610fa1565b610278565b005b6100a461009f366004610fa1565b610308565b60405161007391906111e2565b61008f6100bf366004610fdb565b6106c8565b6100cc6107c1565b604051610073919061121b565b603854600090819081906001600160a01b031633146100f757600080fd5b603354604051600160e11b6351015e170281526060916001600160a01b03169063a202bc2e9061012b9030906004016111d4565b60006040518083038186803b15801561014357600080fd5b505afa158015610157573d6000803e3d6000fd5b505050506040513d6000823e601f3d908101601f1916820160405261017f9190810190610f11565b905060005b815181101561025c57603654825161023a9160801b908490849081106101a657fe5b6020908102919091010151603954604051600160e01b63f8b2cb4f0281526001600160a01b039283169263f8b2cb4f926101e5929116906004016111d4565b60206040518083038186803b1580156101fd57600080fd5b505afa158015610211573d6000803e3d6000fd5b505050506040513d601f19601f820116820180604052506102359190810190610f83565b6107c7565b603680546001600160801b03191660809290921c919091179055600101610184565b505060365460345460355460809290921b945092509050909192565b6037546001600160a01b0316331461028f57600080fd5b603354603754603954604051600160e01b636a8f91ff0281526001600160a01b0393841693636a8f91ff936102d293889388939283169290911690600401611229565b600060405180830381600087803b1580156102ec57600080fd5b505af1158015610300573d6000803e3d6000fd5b505050505050565b6038546060906001600160a01b0316331461032257600080fd5b603354604051600160e11b6351015e170281526060916001600160a01b03169063a202bc2e906103569030906004016111d4565b60006040518083038186803b15801561036e57600080fd5b505afa158015610382573d6000803e3d6000fd5b505050506040513d6000823e601f3d908101601f191682016040526103aa9190810190610f11565b905060005b815181101561050d5760608282815181106103c657fe5b60200260200101516001600160a01b031663478e8dad87876040518363ffffffff1660e01b81526004016103fb929190611277565b60006040518083038186803b15801561041357600080fd5b505afa158015610427573d6000803e3d6000fd5b505050506040513d6000823e601f3d908101601f1916820160405261044f9190810190610f4e565b905060005b815181101561050357603a82828151811061046b57fe5b602090810291909101810151825460018082018555600094855293839020825160079092020190815591810151828401556040810151600283015560608101516003830155608080820151600484015560a08201516005840180546001600160801b0319169190921c17905560c00151600690910180546001600160a01b0319166001600160a01b0390921691909117905501610454565b50506001016103af565b50603a54604080518281526020808402820101909152606091801561054c57816020015b610539610c75565b8152602001906001900390816105315790505b50905060005b603a548110156106b157610564610c75565b6040518060e00160405280603a848154811061057c57fe5b9060005260206000209060070201600001548152602001603a84815481106105a057fe5b9060005260206000209060070201600101548152602001603a84815481106105c457fe5b9060005260206000209060070201600201548152602001603a84815481106105e857fe5b9060005260206000209060070201600301548152602001603a848154811061060c57fe5b9060005260206000209060070201600401548152602001603a848154811061063057fe5b906000526020600020906007020160050160009054906101000a900460801b6001600160801b0319168152602001603a848154811061066b57fe5b60009182526020909120600660079092020101546001600160a01b031690528351909150819084908490811061069d57fe5b602090810291909101015250600101610552565b506106be603a6000610cb1565b9150505b92915050565b600054610100900460ff16806106e157506106e1610bcb565b806106ef575060005460ff16155b61071757604051600160e51b62461bcd02815260040161070e90611267565b60405180910390fd5b600054610100900460ff16158015610742576000805460ff1961ff0019909116610100171660011790555b603380546001600160a01b038087166001600160a01b03199283161790925560348990556035889055603680546001600160801b03191690556037805486841690831617905560388054888416908316179055603980549285169290911691909117905580156107b8576000805461ff00191690555b50505050505050565b60345481565b6000617fff6001600160801b03608085811c8216607090811c8416939186901c90921690911c81169082141561083d5780617fff1415610833576001600160801b031985811690851614156108205784925050506106c2565b50600160ef1b61ffff0291506106c29050565b84925050506106c2565b80617fff14156108515783925050506106c2565b6001607f1b608086901c6001600160801b0381169190911015906001600160701b0316836108825760019350610889565b600160701b175b6001607f1b608087901c6001600160801b0381169190911015906001600160701b0316846108ba57600194506108c1565b600160701b175b826108f1576001600160801b03198816600160ff1b146108e157876108e4565b60005b96505050505050506106c2565b80610911576001600160801b03198916600160ff1b146108e157886108e4565b8486038415158315151415610a1f57607081131561093857899750505050505050506106c2565b600081131561094a5790811c90610979565b606f1981121561096357889750505050505050506106c2565b6000811215610979578060000384901c93508596505b92810192600160711b8410610994576001968701969390931c925b86617fff14156109c957846109b157600160f01b617fff026109bb565b6001600160f01b03195b9750505050505050506106c2565b600160701b8410156109de57600096506109eb565b6001600160701b03841693505b83607088901b866109fd576000610a03565b6001607f1b5b6001600160801b0316171760801b9750505050505050506106c2565b6000811315610a3a57600184901b9350600187039650610a51565b6000811215610a5157600182901b91506001860396505b6070811315610a635760019150610ab0565b6001811315610a80576001810360018303901c6001019150610ab0565b606f19811215610a935760019350610ab0565b600019811215610ab0576001816000030360018503901c60010193505b818410610ac1578184039350610aca565b83820393508294505b83610ae05750600096506106c295505050505050565b6000610aeb85610bd2565b90508060711415610b1157600185901c6001600160701b03169450600188019750610b60565b6070811015610b5357607081900380891115610b40578086901b6001600160701b031695508089039850610b4d565b600098600019019590951b945b50610b60565b6001600160701b03851694505b87617fff1415610b965785610b7d57600160f01b617fff02610b87565b6001600160f01b03195b985050505050505050506106c2565b84607089901b87610ba8576000610bae565b6001607f1b5b6001600160801b0316171760801b985050505050505050506106c2565b303b155b90565b6000808211610be057600080fd5b6000600160801b8310610bf557608092831c92015b680100000000000000008310610c0d57604092831c92015b6401000000008310610c2157602092831c92015b620100008310610c3357601092831c92015b6101008310610c4457600892831c92015b60108310610c5457600492831c92015b60048310610c6457600292831c92015b600283106106c25760010192915050565b6040805160e081018252600080825260208201819052918101829052606081018290526080810182905260a0810182905260c081019190915290565b5080546000825560070290600052602060002090810190610cd29190610cd5565b50565b610bcf91905b80821115610d2e57600080825560018201819055600282018190556003820181905560048201556005810180546001600160801b03191690556006810180546001600160a01b0319169055600701610cdb565b5090565b6000610d3e82356112ed565b9392505050565b6000610d3e82516112ed565b600082601f830112610d6257600080fd5b8151610d75610d70826112b9565b611292565b91508181835260208401935060208101905083856020840282011115610d9a57600080fd5b60005b83811015610dc65781610db08882610d45565b8452506020928301929190910190600101610d9d565b5050505092915050565b600082601f830112610de157600080fd5b8151610def610d70826112b9565b915081818352602084019350602081019050838560e0840282011115610e1457600080fd5b60005b83811015610dc65781610e2a8882610e66565b84525060209092019160e09190910190600101610e17565b6000610d3e82516112f8565b6000610d3e8235610bcf565b6000610d3e8251610bcf565b600060e08284031215610e7857600080fd5b610e8260e0611292565b90506000610e908484610e5a565b8252506020610ea184848301610e5a565b6020830152506040610eb584828501610e5a565b6040830152506060610ec984828501610e5a565b6060830152506080610edd84828501610e5a565b60808301525060a0610ef184828501610e42565b60a08301525060c0610f0584828501610d45565b60c08301525092915050565b600060208284031215610f2357600080fd5b815167ffffffffffffffff811115610f3a57600080fd5b610f4684828501610d51565b949350505050565b600060208284031215610f6057600080fd5b815167ffffffffffffffff811115610f7757600080fd5b610f4684828501610dd0565b600060208284031215610f9557600080fd5b6000610f468484610e42565b60008060408385031215610fb457600080fd5b6000610fc08585610e4e565b9250506020610fd185828601610e4e565b9150509250929050565b60008060008060008060c08789031215610ff457600080fd5b60006110008989610e4e565b965050602061101189828a01610e4e565b955050604061102289828a01610d32565b945050606061103389828a01610d32565b935050608061104489828a01610d32565b92505060a061105589828a01610d32565b9150509295509295509295565b600061106e838361114b565b505060e00190565b61107f816112ed565b82525050565b6000611090826112e0565b61109a81856112e4565b93506110a5836112da565b60005b828110156110d0576110bb868351611062565b95506110c6826112da565b91506001016110a8565b5093949350505050565b61107f816112f8565b61107f81610bcf565b60006110f9602e836112e4565b7f436f6e747261637420696e7374616e63652068617320616c726561647920626581527f656e20696e697469616c697a6564000000000000000000000000000000000000602082015260400192915050565b805160e083019061115c84826110e3565b50602082015161116f60208501826110e3565b50604082015161118260408501826110e3565b50606082015161119560608501826110e3565b5060808201516111a860808501826110e3565b5060a08201516111bb60a08501826110da565b5060c08201516111ce60c0850182611076565b50505050565b602081016106c28284611076565b60208082528101610d3e8184611085565b6060810161120182866110da565b61120e60208301856110e3565b610f4660408301846110e3565b602081016106c282846110e3565b6080810161123782876110e3565b61124460208301866110e3565b6112516040830185611076565b61125e6060830184611076565b95945050505050565b602080825281016106c2816110ec565b6040810161128582856110e3565b610d3e60208301846110e3565b60405181810167ffffffffffffffff811182821017156112b157600080fd5b604052919050565b600067ffffffffffffffff8211156112d057600080fd5b5060209081020190565b60200190565b5190565b90815260200190565b60006106c282611305565b6001600160801b03191690565b6001600160a01b03169056fea265627a7a7230582045690f93df260b358c3d159a88f273768e446066117568046bd90bbc8c82ad9f6c6578706572696d656e74616cf50037",
  "source": "// (c) Kallol Borah, 2020\r\n// Implementation of a general ledger account\r\n\r\npragma solidity 0.5.7;\r\npragma experimental ABIEncoderV2;\r\n\r\nimport \"../interfaces/VerifiedEntry.sol\";\r\nimport \"../interfaces/VerifiedSystem.sol\";\r\nimport \"../interfaces/VerifiedAccount.sol\";\r\nimport \"../interfaces/VerifiedLedger.sol\";\r\nimport \"abdk-libraries-solidity/ABDKMathQuad.sol\";\r\nimport \"@openzeppelin/upgrades/contracts/Initializable.sol\";\r\n\r\n\r\ncontract Ledger is VerifiedLedger, Initializable{\r\n\r\n    using ABDKMathQuad for uint256;\r\n    using ABDKMathQuad for int256;\r\n    using ABDKMathQuad for bytes16;\r\n\r\n    VerifiedSystem private factory;\r\n\r\n    bytes32 public ledgerName;\r\n\r\n    bytes32 ledgerGroup;\r\n\r\n    bytes16 ledgerBalance;\r\n\r\n    address accountCreator;\r\n    address holder;\r\n    address accountHolder;\r\n\r\n    VerifiedEntry.account[] private ledgerEntries;\r\n\r\n    //initiliaze proxies\r\n    function initialize(bytes32 _ledgerName, bytes32 _ledgerGroup, address _holder, address _owner, address _accountCreator, address _accountHolder) public initializer{\r\n        // this ledger can be owned by only one account holder (client)\r\n        factory = VerifiedSystem(_owner);\r\n        ledgerName = _ledgerName;\r\n        ledgerGroup = _ledgerGroup;\r\n        ledgerBalance = 0;\r\n        accountCreator = _accountCreator;\r\n        holder = _holder;\r\n        accountHolder = _accountHolder;\r\n    }\r\n\r\n    // sum up balances of all accounts in this ledger account\r\n    function getBalance() external returns (bytes16, bytes32, bytes32){\r\n        // ensure the msg sender owns this ledger\r\n        require(holder==msg.sender);        \r\n        address[] memory accounts = factory.getLedgerAccounts(address(this));\r\n        for(uint256 i=0; i<accounts.length; i++){\r\n            ledgerBalance = ABDKMathQuad.add(ledgerBalance, VerifiedAccount(accounts[i]).getBalance(accountHolder));\r\n        }\r\n        return(ledgerBalance, ledgerName, ledgerGroup);\r\n    }\r\n    \r\n    // gets all account entries for an account holder\r\n    function getEntries(uint256 _startDate, uint256 _endDate) external returns(VerifiedEntry.account[] memory){ \r\n        // ensure the msg sender owns this ledger\r\n        require(holder==msg.sender);\r\n        address[] memory accounts = factory.getLedgerAccounts(address(this));\r\n        for(uint256 i=0; i<accounts.length; i++){\r\n            VerifiedEntry.account[] memory accountEntries = VerifiedAccount(accounts[i]).getEntries(_startDate, _endDate);\r\n            for(uint256 j=0; j<accountEntries.length; j++){                \r\n                ledgerEntries.push(accountEntries[j]);\r\n            }\r\n        }\r\n        VerifiedEntry.account[] memory ledgerAccounts = new VerifiedEntry.account[](ledgerEntries.length);\r\n        for(uint256 i=0; i<ledgerEntries.length; i++){\r\n            VerifiedEntry.account memory accountEntry = VerifiedEntry.account({\r\n                txType : ledgerEntries[i].txType,\r\n                txDate : ledgerEntries[i].txDate,\r\n                txDescription : ledgerEntries[i].txDescription,\r\n                voucherType : ledgerEntries[i].voucherType,\r\n                txCurrency : ledgerEntries[i].txCurrency,\r\n                txAmount : ledgerEntries[i].txAmount,\r\n                party : ledgerEntries[i].party\r\n            });\r\n            ledgerAccounts[i] = accountEntry;\r\n        }\r\n        delete ledgerEntries;\r\n        return ledgerAccounts;\r\n    }\r\n\r\n    //needs to be called by the owner of this ledger to create an account\r\n    //_accountName is the name of the account proxy to create\r\n    function createAccount(bytes32 _accountName, bytes32 _currency) external {\r\n        require(accountCreator==msg.sender);\r\n        factory.createAccount(_accountName, _currency, accountCreator, accountHolder);\r\n    }\r\n\r\n}",
  "sourcePath": "D:\\Code\\verified-accounts\\contracts\\accounting\\Ledger.sol",
  "compiler": {
    "name": "solc",
    "version": "0.5.7+commit.6da8b019.Emscripten.clang"
  },
  "schemaVersion": "3.4.3",
  "updatedAt": "2022-01-20T19:06:46.255Z",
  "networkType": "ethereum",
  "devdoc": {
    "methods": {}
  },
  "userdoc": {
    "methods": {}
  }
}