{
  "contractName": "System",
  "abi": [
    {
      "constant": true,
      "inputs": [
        {
          "name": "_salt",
          "type": "uint256"
        },
        {
          "name": "_logic",
          "type": "address"
        },
        {
          "name": "_admin",
          "type": "address"
        },
        {
          "name": "_data",
          "type": "bytes"
        },
        {
          "name": "_signature",
          "type": "bytes"
        }
      ],
      "name": "getSigner",
      "outputs": [
        {
          "name": "",
          "type": "address"
        }
      ],
      "payable": false,
      "stateMutability": "view",
      "type": "function"
    },
    {
      "constant": false,
      "inputs": [
        {
          "name": "_salt",
          "type": "uint256"
        },
        {
          "name": "_logic",
          "type": "address"
        },
        {
          "name": "_admin",
          "type": "address"
        },
        {
          "name": "_data",
          "type": "bytes"
        },
        {
          "name": "_signature",
          "type": "bytes"
        }
      ],
      "name": "deploySigned",
      "outputs": [
        {
          "name": "",
          "type": "address"
        }
      ],
      "payable": false,
      "stateMutability": "nonpayable",
      "type": "function"
    },
    {
      "constant": true,
      "inputs": [
        {
          "name": "",
          "type": "address"
        }
      ],
      "name": "accountholders",
      "outputs": [
        {
          "name": "holderName",
          "type": "bytes32"
        },
        {
          "name": "accountHolder",
          "type": "address"
        }
      ],
      "payable": false,
      "stateMutability": "view",
      "type": "function"
    },
    {
      "constant": true,
      "inputs": [
        {
          "name": "",
          "type": "address"
        }
      ],
      "name": "accounts",
      "outputs": [
        {
          "name": "accountName",
          "type": "bytes32"
        },
        {
          "name": "account",
          "type": "address"
        },
        {
          "name": "currency",
          "type": "bytes32"
        }
      ],
      "payable": false,
      "stateMutability": "view",
      "type": "function"
    },
    {
      "constant": false,
      "inputs": [
        {
          "name": "_salt",
          "type": "uint256"
        },
        {
          "name": "_logic",
          "type": "address"
        },
        {
          "name": "_admin",
          "type": "address"
        },
        {
          "name": "_data",
          "type": "bytes"
        }
      ],
      "name": "deploy",
      "outputs": [
        {
          "name": "",
          "type": "address"
        }
      ],
      "payable": false,
      "stateMutability": "nonpayable",
      "type": "function"
    },
    {
      "constant": true,
      "inputs": [
        {
          "name": "_salt",
          "type": "uint256"
        },
        {
          "name": "_sender",
          "type": "address"
        }
      ],
      "name": "getDeploymentAddress",
      "outputs": [
        {
          "name": "",
          "type": "address"
        }
      ],
      "payable": false,
      "stateMutability": "view",
      "type": "function"
    },
    {
      "constant": true,
      "inputs": [
        {
          "name": "",
          "type": "address"
        }
      ],
      "name": "ledgers",
      "outputs": [
        {
          "name": "ledgerName",
          "type": "bytes32"
        },
        {
          "name": "group",
          "type": "bytes32"
        },
        {
          "name": "ledger",
          "type": "address"
        }
      ],
      "payable": false,
      "stateMutability": "view",
      "type": "function"
    },
    {
      "constant": false,
      "inputs": [
        {
          "name": "_logic",
          "type": "address"
        },
        {
          "name": "_data",
          "type": "bytes"
        }
      ],
      "name": "deployMinimal",
      "outputs": [
        {
          "name": "proxy",
          "type": "address"
        }
      ],
      "payable": false,
      "stateMutability": "nonpayable",
      "type": "function"
    },
    {
      "anonymous": false,
      "inputs": [
        {
          "indexed": true,
          "name": "ledger",
          "type": "address"
        },
        {
          "indexed": false,
          "name": "ledgerName",
          "type": "bytes32"
        },
        {
          "indexed": false,
          "name": "group",
          "type": "bytes32"
        },
        {
          "indexed": false,
          "name": "accountHolder",
          "type": "address"
        }
      ],
      "name": "LedgerCreated",
      "type": "event"
    },
    {
      "anonymous": false,
      "inputs": [
        {
          "indexed": true,
          "name": "account",
          "type": "address"
        },
        {
          "indexed": false,
          "name": "accountName",
          "type": "bytes32"
        },
        {
          "indexed": false,
          "name": "ledger",
          "type": "address"
        }
      ],
      "name": "AccountCreated",
      "type": "event"
    },
    {
      "anonymous": false,
      "inputs": [
        {
          "indexed": true,
          "name": "holder",
          "type": "address"
        },
        {
          "indexed": false,
          "name": "holderName",
          "type": "bytes32"
        },
        {
          "indexed": false,
          "name": "accountCreator",
          "type": "address"
        }
      ],
      "name": "HolderCreated",
      "type": "event"
    },
    {
      "anonymous": false,
      "inputs": [
        {
          "indexed": false,
          "name": "proxy",
          "type": "address"
        }
      ],
      "name": "ProxyCreated",
      "type": "event"
    },
    {
      "constant": false,
      "inputs": [
        {
          "name": "_ledger",
          "type": "address"
        },
        {
          "name": "_account",
          "type": "address"
        },
        {
          "name": "_holder",
          "type": "address"
        },
        {
          "name": "_client",
          "type": "address"
        },
        {
          "name": "_viaFactory",
          "type": "address"
        }
      ],
      "name": "initialize",
      "outputs": [],
      "payable": false,
      "stateMutability": "nonpayable",
      "type": "function"
    },
    {
      "constant": true,
      "inputs": [
        {
          "name": "accountCreator",
          "type": "address"
        }
      ],
      "name": "getAccountHolder",
      "outputs": [
        {
          "name": "",
          "type": "address"
        }
      ],
      "payable": false,
      "stateMutability": "view",
      "type": "function"
    },
    {
      "constant": true,
      "inputs": [
        {
          "name": "accountHolder",
          "type": "address"
        }
      ],
      "name": "getAccountLedger",
      "outputs": [
        {
          "name": "",
          "type": "address"
        }
      ],
      "payable": false,
      "stateMutability": "view",
      "type": "function"
    },
    {
      "constant": true,
      "inputs": [
        {
          "name": "accountLedger",
          "type": "address"
        }
      ],
      "name": "getLedgerAccount",
      "outputs": [
        {
          "name": "",
          "type": "address"
        }
      ],
      "payable": false,
      "stateMutability": "view",
      "type": "function"
    },
    {
      "constant": true,
      "inputs": [
        {
          "name": "accountCreator",
          "type": "address"
        }
      ],
      "name": "getAccountHolders",
      "outputs": [
        {
          "name": "",
          "type": "address[]"
        }
      ],
      "payable": false,
      "stateMutability": "view",
      "type": "function"
    },
    {
      "constant": true,
      "inputs": [
        {
          "name": "accountHolder",
          "type": "address"
        }
      ],
      "name": "getAccountLedgers",
      "outputs": [
        {
          "name": "",
          "type": "address[]"
        }
      ],
      "payable": false,
      "stateMutability": "view",
      "type": "function"
    },
    {
      "constant": true,
      "inputs": [
        {
          "name": "accountLedger",
          "type": "address"
        }
      ],
      "name": "getLedgerAccounts",
      "outputs": [
        {
          "name": "",
          "type": "address[]"
        }
      ],
      "payable": false,
      "stateMutability": "view",
      "type": "function"
    },
    {
      "constant": true,
      "inputs": [
        {
          "name": "holder",
          "type": "address"
        }
      ],
      "name": "getHolderDetails",
      "outputs": [
        {
          "name": "",
          "type": "bytes32"
        }
      ],
      "payable": false,
      "stateMutability": "view",
      "type": "function"
    },
    {
      "constant": true,
      "inputs": [
        {
          "name": "_ledger",
          "type": "address"
        }
      ],
      "name": "getLedgerDetails",
      "outputs": [
        {
          "name": "",
          "type": "bytes32"
        },
        {
          "name": "",
          "type": "bytes32"
        }
      ],
      "payable": false,
      "stateMutability": "view",
      "type": "function"
    },
    {
      "constant": true,
      "inputs": [
        {
          "name": "_account",
          "type": "address"
        }
      ],
      "name": "getAccountDetails",
      "outputs": [
        {
          "name": "",
          "type": "bytes32"
        },
        {
          "name": "",
          "type": "bytes32"
        }
      ],
      "payable": false,
      "stateMutability": "view",
      "type": "function"
    },
    {
      "constant": true,
      "inputs": [
        {
          "name": "_accountHolder",
          "type": "address"
        }
      ],
      "name": "confirmAccountHolder",
      "outputs": [
        {
          "name": "",
          "type": "bool"
        }
      ],
      "payable": false,
      "stateMutability": "view",
      "type": "function"
    },
    {
      "constant": false,
      "inputs": [
        {
          "name": "_holderName",
          "type": "bytes32"
        },
        {
          "name": "_accountHolder",
          "type": "address"
        }
      ],
      "name": "createHolder",
      "outputs": [],
      "payable": false,
      "stateMutability": "nonpayable",
      "type": "function"
    },
    {
      "constant": false,
      "inputs": [
        {
          "name": "_ledgerName",
          "type": "bytes32"
        },
        {
          "name": "_ledgerGroup",
          "type": "bytes32"
        },
        {
          "name": "_accountCreator",
          "type": "address"
        },
        {
          "name": "_accountHolder",
          "type": "address"
        }
      ],
      "name": "createLedger",
      "outputs": [],
      "payable": false,
      "stateMutability": "nonpayable",
      "type": "function"
    },
    {
      "constant": false,
      "inputs": [
        {
          "name": "_accountName",
          "type": "bytes32"
        },
        {
          "name": "_currency",
          "type": "bytes32"
        },
        {
          "name": "_accountCreator",
          "type": "address"
        },
        {
          "name": "_accountHolder",
          "type": "address"
        }
      ],
      "name": "createAccount",
      "outputs": [],
      "payable": false,
      "stateMutability": "nonpayable",
      "type": "function"
    }
  ],
  "bytecode": "0x6080604081905261001060a0610034565b601f1982820381018352601f90910116604052805160209190910120600055610041565b6109a68061261283390190565b6125c2806100506000396000f3fe608060405234801561001057600080fd5b50600436106101425760003560e01c80635e5c06e2116100b8578063a202bc2e1161007c578063a202bc2e146107d5578063b1e1c370146107fb578063b3eeb5e214610848578063d71349d0146108fc578063d84f3adb14610922578063fae06fce1461094857610142565b80635e5c06e2146106335780636150864c1461067f5780636a8f91ff14610743578063710d15711461077d57806381ae1f5b146107a957610142565b806329cbac041161010a57806329cbac04146103a25780632aceb534146103c8578063332d6626146104075780633670df3a1461055057806348dfe2d2146105c65780635834cd1f146105ec57610142565b8063045c034e146101475780630a05cd01146101815780631459457a146101b9578063213fe3c014610203578063290f8f561461023d575b600080fd5b61016d6004803603602081101561015d57600080fd5b50356001600160a01b031661096e565b604080519115158252519081900360200190f35b6101a76004803603602081101561019757600080fd5b50356001600160a01b03166109a4565b60408051918252519081900360200190f35b610201600480360360a08110156101cf57600080fd5b506001600160a01b038135811691602081013582169160408201358116916060810135821691608090910135166109bf565b005b6102016004803603608081101561021957600080fd5b508035906020810135906001600160a01b0360408201358116916060013516610ae7565b610386600480360360a081101561025357600080fd5b8135916001600160a01b03602082013581169260408301359091169190810190608081016060820135600160201b81111561028d57600080fd5b82018360208201111561029f57600080fd5b803590602001918460018302840111600160201b831117156102c057600080fd5b91908080601f0160208091040260200160405190810160405280939291908181526020018383808284376000920191909152509295949360208101935035915050600160201b81111561031257600080fd5b82018360208201111561032457600080fd5b803590602001918460018302840111600160201b8311171561034557600080fd5b91908080601f016020809104026020016040519081016040528093929190818152602001838380828437600092019190915250929550610d11945050505050565b604080516001600160a01b039092168252519081900360200190f35b610386600480360360208110156103b857600080fd5b50356001600160a01b0316610e00565b6103ee600480360360208110156103de57600080fd5b50356001600160a01b0316610e8f565b6040805192835260208301919091528051918290030190f35b610386600480360360a081101561041d57600080fd5b8135916001600160a01b03602082013581169260408301359091169190810190608081016060820135600160201b81111561045757600080fd5b82018360208201111561046957600080fd5b803590602001918460018302840111600160201b8311171561048a57600080fd5b91908080601f0160208091040260200160405190810160405280939291908181526020018383808284376000920191909152509295949360208101935035915050600160201b8111156104dc57600080fd5b8201836020820111156104ee57600080fd5b803590602001918460018302840111600160201b8311171561050f57600080fd5b91908080601f016020809104026020016040519081016040528093929190818152602001838380828437600092019190915250929550610eb2945050505050565b6105766004803603602081101561056657600080fd5b50356001600160a01b0316610f2f565b60408051602080825283518183015283519192839290830191858101910280838360005b838110156105b257818101518382015260200161059a565b505050509050019250505060405180910390f35b610386600480360360208110156105dc57600080fd5b50356001600160a01b0316610fa5565b6106126004803603602081101561060257600080fd5b50356001600160a01b0316611022565b604080519283526001600160a01b0390911660208301528051918290030190f35b6106596004803603602081101561064957600080fd5b50356001600160a01b0316611044565b604080519384526001600160a01b03909216602084015282820152519081900360600190f35b6103866004803603608081101561069557600080fd5b8135916001600160a01b03602082013581169260408301359091169190810190608081016060820135600160201b8111156106cf57600080fd5b8201836020820111156106e157600080fd5b803590602001918460018302840111600160201b8311171561070257600080fd5b91908080601f01602080910402602001604051908101604052809392919081815260200183838082843760009201919091525092955061106e945050505050565b6102016004803603608081101561075957600080fd5b508035906020810135906001600160a01b0360408201358116916060013516611086565b6102016004803603604081101561079357600080fd5b50803590602001356001600160a01b031661133f565b610386600480360360408110156107bf57600080fd5b50803590602001356001600160a01b0316611530565b610576600480360360208110156107eb57600080fd5b50356001600160a01b0316611597565b6108216004803603602081101561081157600080fd5b50356001600160a01b031661160b565b6040805193845260208401929092526001600160a01b031682820152519081900360600190f35b6103866004803603604081101561085e57600080fd5b6001600160a01b038235169190810190604081016020820135600160201b81111561088857600080fd5b82018360208201111561089a57600080fd5b803590602001918460018302840111600160201b831117156108bb57600080fd5b91908080601f016020809104026020016040519081016040528093929190818152602001838380828437600092019190915250929550611635945050505050565b6105766004803603602081101561091257600080fd5b50356001600160a01b0316611796565b6103ee6004803603602081101561093857600080fd5b50356001600160a01b031661180a565b6103866004803603602081101561095e57600080fd5b50356001600160a01b031661182d565b6001600160a01b038181166000908152603560205260408120600101549091161561099b5750600161099f565b5060005b919050565b6001600160a01b031660009081526035602052604090205490565b600154610100900460ff16806109d857506109d86118aa565b806109e6575060015460ff16155b610a2457604051600160e51b62461bcd02815260040180806020018281038252602e815260200180612569602e913960400191505060405180910390fd5b600154610100900460ff16158015610a4e576001805460ff1961ff00199091166101001716811790555b603a80546001600160a01b038086166001600160a01b031992831617909255603b80548884169083168117909155603c80548885169084168117909155603d80548b86169085168117909155603f8054851690931790925560408054841690911790556041805483169091179055603e8054928516929091169190911790558015610adf576001805461ff00191690555b505050505050565b336000908152603560205260409020600101546001600160a01b03828116911614610b1157600080fd5b6040805160248101869052604481018590523360648201523060848201526001600160a01b0380851660a483015280841660c4808401919091528351808403909101815260e49092019092526020810180516001600160e01b0316600160e21b632274a713021790526041549091600091610b8d911683611635565b6040805188815260208101889052338183015290519192506001600160a01b038316917fa7a3b730104ab7e50ae390a6dc77147471ca6cddc8f94f07c7452e3a6d2dd1fe9181900360600190a26040805160608101825287815260208082018881526001600160a01b038581168486018181526000918252603790945294852093518455905160018401559051600290920180546001600160a01b031916929091169190911790555b33600090815260366020526040902054811015610ccc5733600090815260366020526040902080546001600160a01b038416919083908110610c7457fe5b6000918252602090912001546001600160a01b03161415610cc457336000908152603660205260409020805482908110610caa57fe5b600091825260209091200180546001600160a01b03191690555b600101610c36565b503360009081526036602090815260408220805460018101825590835291200180546001600160a01b0319166001600160a01b03929092169190911790555050505050565b600080610de9878787873060405160200180868152602001856001600160a01b03166001600160a01b031660601b8152601401846001600160a01b03166001600160a01b031660601b815260140183805190602001908083835b60208310610d8a5780518252601f199092019160209182019101610d6b565b6001836020036101000a038019825116818451168082178552505050505050905001826001600160a01b03166001600160a01b031660601b815260140195505050505050604051602081830303815290604052805190602001206118b0565b9050610df58184611901565b979650505050505050565b6001600160a01b03811660009081526034602090815260408083208054825181850281018501909352808352606093830182828015610e6857602002820191906000526020600020905b81546001600160a01b03168152600190910190602001808311610e4a575b5050505050905080600182510381518110610e7f57fe5b6020026020010151915050919050565b6001600160a01b0316600090815260396020526040902080546002909101549091565b600080610ec28787878787610d11565b90506001600160a01b038116610f225760408051600160e51b62461bcd02815260206004820152601160248201527f496e76616c6964207369676e6174757265000000000000000000000000000000604482015290519081900360640190fd5b610df587878787856119ef565b6001600160a01b038116600090815260366020908152604091829020805483518184028101840190945280845260609392830182828015610f9957602002820191906000526020600020905b81546001600160a01b03168152600190910190602001808311610f7b575b50505050509050919050565b6001600160a01b03811660009081526036602090815260408083208054825181850281018501909352808352606093830182828015610e68576020028201919060005260206000209081546001600160a01b03168152600190910190602001808311610e4a575050505050905080600182510381518110610e7f57fe5b603560205260009081526040902080546001909101546001600160a01b031682565b60396020526000908152604090208054600182015460029092015490916001600160a01b03169083565b600061107d85858585336119ef565b95945050505050565b336000818152603760205260409020600201546001600160a01b0316146110ac57600080fd5b603e5460408051600160e21b633cd163c502815260048101869052600160cb1b660acd2c286c2e6d02602482015290516000926001600160a01b03169163f3458f14916044808301926020929190829003018186803b15801561110e57600080fd5b505afa158015611122573d6000803e3d6000fd5b505050506040513d602081101561113857600080fd5b505190506001600160a01b038116156113385760408051602481018790523360448201523060648201526001600160a01b03808616608483015280851660a4808401919091528351808403909101815260c49092019092526020810180516001600160e01b0316600160e11b637b806ad702179052603f5490916000916111c0911683611635565b6040805189815233602082015281519293506001600160a01b038416927ff5493120d2d01cb5b6c36e95466192409ff774fd8dab4f1c653dde8072078244929181900390910190a2604080516060810182528881526001600160a01b0383811660208084018281528486018c8152600093845260399092529482209351845593516001840180546001600160a01b031916919093161790915591516002909101555b336000908152603860205260409020548110156112f85733600090815260386020526040902080546001600160a01b0384169190839081106112a057fe5b6000918252602090912001546001600160a01b031614156112f0573360009081526038602052604090208054829081106112d657fe5b600091825260209091200180546001600160a01b03191690555b600101611262565b503360009081526038602090815260408220805460018101825590835291200180546001600160a01b0319166001600160a01b0392909216919091179055505b5050505050565b60408051602481018490523360448201523060648201526001600160a01b038084166084808401919091528351808403909101815260a490920183526020820180516001600160e01b0316600160e21b63374b1f2f02179052915490916000916113aa911683611635565b604080518681526001600160a01b03868116602083015282519394508416927ff289741993d37831eb02b3070b1333c526393c004bc30414f086f00abe223f0d929181900390910190a26040805180820182528581526001600160a01b038581166020808401918252858316600090815260359091529384209251835551600190920180546001600160a01b031916929091169190911790555b6001600160a01b0384166000908152603460205260409020548110156114ee576001600160a01b0384811660009081526034602052604090208054918416918390811061148d57fe5b6000918252602090912001546001600160a01b031614156114e6576001600160a01b03841660009081526034602052604090208054829081106114cc57fe5b600091825260209091200180546001600160a01b03191690555b600101611444565b506001600160a01b0392831660009081526034602090815260408220805460018101825590835291200180546001600160a01b03191691909316179091555050565b60008061153d8484611b23565b600054604080516001600160f81b031960208083019190915230606090811b602184015260358301959095526055808301949094528251808303909401845260759091019091528151910120811b901c9150505b92915050565b6001600160a01b038116600090815260386020908152604091829020805483518184028101840190945280845260609392830182828015610f99576020028201919060005260206000209081546001600160a01b03168152600190910190602001808311610f7b5750505050509050919050565b6037602052600090815260409020805460018201546002909201549091906001600160a01b031683565b6000808360601b90506040517f3d602d80600a3d3981f3363d3d373d3d3d363d7300000000000000000000000081528160148201527f5af43d82803e903d91602b57fd5bf3000000000000000000000000000000000060288201526037816000f0604080516001600160a01b038316815290519194507efffc2da0b561cae30d9826d37709e9421c4725faebc226cbbb7ef5fc5e7349925081900360200190a182511561178f576000826001600160a01b0316846040518082805190602001908083835b602083106117185780518252601f1990920191602091820191016116f9565b6001836020036101000a0380198251168184511680821785525050505050509050019150506000604051808303816000865af19150503d806000811461177a576040519150601f19603f3d011682016040523d82523d6000602084013e61177f565b606091505b505090508061178d57600080fd5b505b5092915050565b6001600160a01b038116600090815260346020908152604091829020805483518184028101840190945280845260609392830182828015610f99576020028201919060005260206000209081546001600160a01b03168152600190910190602001808311610f7b5750505050509050919050565b6001600160a01b0316600090815260376020526040902080546001909101549091565b6001600160a01b03811660009081526038602090815260408083208054825181850281018501909352808352606093830182828015610e68576020028201919060005260206000209081546001600160a01b03168152600190910190602001808311610e4a575050505050905080600182510381518110610e7f57fe5b303b1590565b604080517f19457468657265756d205369676e6564204d6573736167653a0a333200000000602080830191909152603c8083019490945282518083039094018452605c909101909152815191012090565b6000815160411461191457506000611591565b60208201516040830151606084015160001a7f7fffffffffffffffffffffffffffffff5d576e7357a4501ddfe92f46681b20a082111561195a5760009350505050611591565b8060ff16601b1415801561197257508060ff16601c14155b156119835760009350505050611591565b6040805160008152602080820180845289905260ff8416828401526060820186905260808201859052915160019260a0808401939192601f1981019281900390910190855afa1580156119da573d6000803e3d6000fd5b5050604051601f190151979650505050505050565b6000806119fc8784611b5c565b604080516001600160a01b038316815290519192507efffc2da0b561cae30d9826d37709e9421c4725faebc226cbbb7ef5fc5e7349919081900360200190a1604051600160e01b63cf7a1d770281526001600160a01b038781166004830190815287821660248401526060604484019081528751606485015287519285169363cf7a1d77938b938b938b939192909160840190602085019080838360005b83811015611ab2578181015183820152602001611a9a565b50505050905090810190601f168015611adf5780820380516001836020036101000a031916815260200191505b50945050505050600060405180830381600087803b158015611b0057600080fd5b505af1158015611b14573d6000803e3d6000fd5b50929998505050505050505050565b604080516020808201949094526001600160a01b039290921660601b828201528051808303603401815260549092019052805191012090565b600080606060405180602001611b7190611bb5565b601f1982820381018352601f9091011660405290506000611b928686611b23565b9050808251602084016000f59250823b611bab57600080fd5b5090949350505050565b6109a680611bc38339019056fe608060405234801561001057600080fd5b50610986806100206000396000f3fe6080604052600436106100705760003560e01c80638f2839701161004e5780638f2839701461015e578063cf7a1d7714610191578063d1f5789414610250578063f851a4401461030657610070565b80633659cfe61461007a5780634f1ef286146100ad5780635c60da1b1461012d575b61007861031b565b005b34801561008657600080fd5b506100786004803603602081101561009d57600080fd5b50356001600160a01b0316610335565b610078600480360360408110156100c357600080fd5b6001600160a01b0382351691908101906040810160208201356401000000008111156100ee57600080fd5b82018360208201111561010057600080fd5b8035906020019184600183028401116401000000008311171561012257600080fd5b50909250905061036f565b34801561013957600080fd5b5061014261041c565b604080516001600160a01b039092168252519081900360200190f35b34801561016a57600080fd5b506100786004803603602081101561018157600080fd5b50356001600160a01b0316610459565b610078600480360360608110156101a757600080fd5b6001600160a01b0382358116926020810135909116918101906060810160408201356401000000008111156101db57600080fd5b8201836020820111156101ed57600080fd5b8035906020019184600183028401116401000000008311171561020f57600080fd5b91908080601f016020809104026020016040519081016040528093929190818152602001838380828437600092019190915250929550610516945050505050565b6100786004803603604081101561026657600080fd5b6001600160a01b03823516919081019060408101602082013564010000000081111561029157600080fd5b8201836020820111156102a357600080fd5b803590602001918460018302840111640100000000831117156102c557600080fd5b91908080601f0160208091040260200160405190810160405280939291908181526020018383808284376000920191909152509295506105a6945050505050565b34801561031257600080fd5b506101426106e6565b610323610711565b61033361032e610774565b610799565b565b61033d6107bd565b6001600160a01b0316336001600160a01b031614156103645761035f816107e2565b61036c565b61036c61031b565b50565b6103776107bd565b6001600160a01b0316336001600160a01b0316141561040f57610399836107e2565b6000836001600160a01b031683836040518083838082843760405192019450600093509091505080830381855af49150503d80600081146103f6576040519150601f19603f3d011682016040523d82523d6000602084013e6103fb565b606091505b505090508061040957600080fd5b50610417565b61041761031b565b505050565b60006104266107bd565b6001600160a01b0316336001600160a01b0316141561044e57610447610774565b9050610456565b61045661031b565b90565b6104616107bd565b6001600160a01b0316336001600160a01b03161415610364576001600160a01b0381166104c257604051600160e51b62461bcd0281526004018080602001828103825260368152602001806108ea6036913960400191505060405180910390fd5b7f7e644d79422f17c01e4894b5f4f588d331ebfa28653d42ae832dc59e38c9798f6104eb6107bd565b604080516001600160a01b03928316815291841660208301528051918290030190a161035f81610822565b6000610520610774565b6001600160a01b03161461053357600080fd5b61053d83826105a6565b604080517f656970313936372e70726f78792e61646d696e00000000000000000000000000815290519081900360130190207fb53127684a568b3173ae13b9f8a6016e243e63b6e8ee1178d6a717850b5d61036000199091011461059d57fe5b61041782610822565b60006105b0610774565b6001600160a01b0316146105c357600080fd5b604080517f656970313936372e70726f78792e696d706c656d656e746174696f6e000000008152905190819003601c0190207f360894a13ba1a3210667c828492db98dca3e2076cc3735a920a3ca505d382bbc6000199091011461062357fe5b61062c82610846565b8051156106e2576000826001600160a01b0316826040518082805190602001908083835b6020831061066f5780518252601f199092019160209182019101610650565b6001836020036101000a038019825116818451168082178552505050505050905001915050600060405180830381855af49150503d80600081146106cf576040519150601f19603f3d011682016040523d82523d6000602084013e6106d4565b606091505b505090508061041757600080fd5b5050565b60006106f06107bd565b6001600160a01b0316336001600160a01b0316141561044e576104476107bd565b6107196107bd565b6001600160a01b0316336001600160a01b0316141561076c57604051600160e51b62461bcd0281526004018080602001828103825260328152602001806108b86032913960400191505060405180910390fd5b610333610333565b7f360894a13ba1a3210667c828492db98dca3e2076cc3735a920a3ca505d382bbc5490565b3660008037600080366000845af43d6000803e8080156107b8573d6000f35b3d6000fd5b7fb53127684a568b3173ae13b9f8a6016e243e63b6e8ee1178d6a717850b5d61035490565b6107eb81610846565b6040516001600160a01b038216907fbc7cd75a20ee27fd9adebab32041f755214dbc6bffa90cc0225b39da2e5c2d3b90600090a250565b7fb53127684a568b3173ae13b9f8a6016e243e63b6e8ee1178d6a717850b5d610355565b61084f816108b1565b61088d57604051600160e51b62461bcd02815260040180806020018281038252603b815260200180610920603b913960400191505060405180910390fd5b7f360894a13ba1a3210667c828492db98dca3e2076cc3735a920a3ca505d382bbc55565b3b15159056fe43616e6e6f742063616c6c2066616c6c6261636b2066756e6374696f6e2066726f6d207468652070726f78792061646d696e43616e6e6f74206368616e6765207468652061646d696e206f6620612070726f787920746f20746865207a65726f206164647265737343616e6e6f742073657420612070726f787920696d706c656d656e746174696f6e20746f2061206e6f6e2d636f6e74726163742061646472657373a165627a7a72305820acd86240912c703ba88ccefef3db77e88d3507353c7c194b0b27eed571ae96c90029436f6e747261637420696e7374616e63652068617320616c7265616479206265656e20696e697469616c697a6564a165627a7a72305820e6b947c84949ea0c914e6600666143763b105efa3c0565f65b79f1d80b6439c40029608060405234801561001057600080fd5b50610986806100206000396000f3fe6080604052600436106100705760003560e01c80638f2839701161004e5780638f2839701461015e578063cf7a1d7714610191578063d1f5789414610250578063f851a4401461030657610070565b80633659cfe61461007a5780634f1ef286146100ad5780635c60da1b1461012d575b61007861031b565b005b34801561008657600080fd5b506100786004803603602081101561009d57600080fd5b50356001600160a01b0316610335565b610078600480360360408110156100c357600080fd5b6001600160a01b0382351691908101906040810160208201356401000000008111156100ee57600080fd5b82018360208201111561010057600080fd5b8035906020019184600183028401116401000000008311171561012257600080fd5b50909250905061036f565b34801561013957600080fd5b5061014261041c565b604080516001600160a01b039092168252519081900360200190f35b34801561016a57600080fd5b506100786004803603602081101561018157600080fd5b50356001600160a01b0316610459565b610078600480360360608110156101a757600080fd5b6001600160a01b0382358116926020810135909116918101906060810160408201356401000000008111156101db57600080fd5b8201836020820111156101ed57600080fd5b8035906020019184600183028401116401000000008311171561020f57600080fd5b91908080601f016020809104026020016040519081016040528093929190818152602001838380828437600092019190915250929550610516945050505050565b6100786004803603604081101561026657600080fd5b6001600160a01b03823516919081019060408101602082013564010000000081111561029157600080fd5b8201836020820111156102a357600080fd5b803590602001918460018302840111640100000000831117156102c557600080fd5b91908080601f0160208091040260200160405190810160405280939291908181526020018383808284376000920191909152509295506105a6945050505050565b34801561031257600080fd5b506101426106e6565b610323610711565b61033361032e610774565b610799565b565b61033d6107bd565b6001600160a01b0316336001600160a01b031614156103645761035f816107e2565b61036c565b61036c61031b565b50565b6103776107bd565b6001600160a01b0316336001600160a01b0316141561040f57610399836107e2565b6000836001600160a01b031683836040518083838082843760405192019450600093509091505080830381855af49150503d80600081146103f6576040519150601f19603f3d011682016040523d82523d6000602084013e6103fb565b606091505b505090508061040957600080fd5b50610417565b61041761031b565b505050565b60006104266107bd565b6001600160a01b0316336001600160a01b0316141561044e57610447610774565b9050610456565b61045661031b565b90565b6104616107bd565b6001600160a01b0316336001600160a01b03161415610364576001600160a01b0381166104c257604051600160e51b62461bcd0281526004018080602001828103825260368152602001806108ea6036913960400191505060405180910390fd5b7f7e644d79422f17c01e4894b5f4f588d331ebfa28653d42ae832dc59e38c9798f6104eb6107bd565b604080516001600160a01b03928316815291841660208301528051918290030190a161035f81610822565b6000610520610774565b6001600160a01b03161461053357600080fd5b61053d83826105a6565b604080517f656970313936372e70726f78792e61646d696e00000000000000000000000000815290519081900360130190207fb53127684a568b3173ae13b9f8a6016e243e63b6e8ee1178d6a717850b5d61036000199091011461059d57fe5b61041782610822565b60006105b0610774565b6001600160a01b0316146105c357600080fd5b604080517f656970313936372e70726f78792e696d706c656d656e746174696f6e000000008152905190819003601c0190207f360894a13ba1a3210667c828492db98dca3e2076cc3735a920a3ca505d382bbc6000199091011461062357fe5b61062c82610846565b8051156106e2576000826001600160a01b0316826040518082805190602001908083835b6020831061066f5780518252601f199092019160209182019101610650565b6001836020036101000a038019825116818451168082178552505050505050905001915050600060405180830381855af49150503d80600081146106cf576040519150601f19603f3d011682016040523d82523d6000602084013e6106d4565b606091505b505090508061041757600080fd5b5050565b60006106f06107bd565b6001600160a01b0316336001600160a01b0316141561044e576104476107bd565b6107196107bd565b6001600160a01b0316336001600160a01b0316141561076c57604051600160e51b62461bcd0281526004018080602001828103825260328152602001806108b86032913960400191505060405180910390fd5b610333610333565b7f360894a13ba1a3210667c828492db98dca3e2076cc3735a920a3ca505d382bbc5490565b3660008037600080366000845af43d6000803e8080156107b8573d6000f35b3d6000fd5b7fb53127684a568b3173ae13b9f8a6016e243e63b6e8ee1178d6a717850b5d61035490565b6107eb81610846565b6040516001600160a01b038216907fbc7cd75a20ee27fd9adebab32041f755214dbc6bffa90cc0225b39da2e5c2d3b90600090a250565b7fb53127684a568b3173ae13b9f8a6016e243e63b6e8ee1178d6a717850b5d610355565b61084f816108b1565b61088d57604051600160e51b62461bcd02815260040180806020018281038252603b815260200180610920603b913960400191505060405180910390fd5b7f360894a13ba1a3210667c828492db98dca3e2076cc3735a920a3ca505d382bbc55565b3b15159056fe43616e6e6f742063616c6c2066616c6c6261636b2066756e6374696f6e2066726f6d207468652070726f78792061646d696e43616e6e6f74206368616e6765207468652061646d696e206f6620612070726f787920746f20746865207a65726f206164647265737343616e6e6f742073657420612070726f787920696d706c656d656e746174696f6e20746f2061206e6f6e2d636f6e74726163742061646472657373a165627a7a72305820acd86240912c703ba88ccefef3db77e88d3507353c7c194b0b27eed571ae96c90029",
  "source": "// (c) Kallol Borah, 2020\r\n// Implementation of the Verified accounts factory\r\n\r\npragma solidity 0.5.7;\r\n\r\nimport \"../interfaces/VerifiedHolder.sol\";\r\nimport \"../interfaces/VerifiedLedger.sol\";\r\nimport \"../interfaces/VerifiedAccount.sol\";\r\nimport \"../interfaces/VerifiedClient.sol\";\r\nimport \"../interfaces/VerifiedSystem.sol\";\r\nimport \"../interfaces/ViaFactory.sol\";\r\nimport \"@openzeppelin/upgrades/contracts/upgradeability/ProxyFactory.sol\";\r\nimport \"@openzeppelin/upgrades/contracts/Initializable.sol\";\r\n\r\ncontract System is VerifiedSystem, ProxyFactory, Initializable {\r\n\r\n    // first, a client creates an account holder representing an account statement\r\n    struct accountholder{\r\n        bytes32 holderName;\r\n        address accountHolder;\r\n    }\r\n\r\n    // mapping of account creator to account holder\r\n    mapping(address => address[]) private accountHolderList;\r\n\r\n    // mapping of account holder address to its info\r\n    mapping(address => accountholder) public accountholders;\r\n\r\n    // then, a ledger is created in an account statement (ie, for an account holder)\r\n    struct ledger{\r\n        bytes32 ledgerName;\r\n        bytes32 group;\r\n        address ledger;\r\n    }\r\n\r\n    // mapping of account holder to ledger\r\n    mapping(address => address[]) private ledgerList;\r\n\r\n    // mapping of ledger address to its info\r\n    mapping(address => ledger) public ledgers;\r\n\r\n    // then, an account is created in a ledger\r\n    struct account{\r\n        bytes32 accountName;\r\n        address account;\r\n        bytes32 currency;\r\n    }\r\n\r\n    // mapping of ledger to account\r\n    mapping(address => address[]) private accountList;\r\n\r\n    // mapping of an account address to its info\r\n    mapping(address => account) public accounts;\r\n\r\n    //notifying listeners\r\n    event LedgerCreated(address indexed ledger, bytes32 ledgerName, bytes32 group, address accountHolder);\r\n    event AccountCreated(address indexed account, bytes32 accountName, address ledger);\r\n    event HolderCreated(address indexed holder, bytes32 holderName, address accountCreator);\r\n\r\n    //references to contract\r\n    VerifiedClient private clientRef;\r\n    VerifiedAccount private accountRef;\r\n    VerifiedHolder private holderRef;\r\n    VerifiedLedger private ledgerRef;\r\n    ViaFactory private via;\r\n\r\n    //addresses fo contracts\r\n    address accountAddress;\r\n    address holderAddress;\r\n    address ledgerAddress;\r\n\r\n    //owner is someone who can upgrade this contract\r\n    function initialize(address _ledger, address _account, address _holder, address _client, address _viaFactory) public initializer{\r\n        clientRef = VerifiedClient(_client);\r\n        accountRef = VerifiedAccount(_account);\r\n        holderRef = VerifiedHolder(_holder);\r\n        ledgerRef = VerifiedLedger(_ledger);\r\n        accountAddress = _account;\r\n        holderAddress = _holder;\r\n        ledgerAddress = _ledger;\r\n        via = ViaFactory(_viaFactory);\r\n    }\r\n\r\n    // return last account holder created by account creator\r\n    function getAccountHolder(address accountCreator) external view returns(address){\r\n        //return accountholders[accountCreator].accountHolder;\r\n        address[] memory accountHolders = accountHolderList[accountCreator];\r\n        return accountHolders[accountHolders.length-1];\r\n    }\r\n\r\n    // return last account ledger created by account holder\r\n    function getAccountLedger(address accountHolder) external view returns(address){\r\n        //return ledgers[accountCreator][accountHolder].ledger;\r\n        address[] memory accountLedgers = ledgerList[accountHolder];\r\n        return accountLedgers[accountLedgers.length-1];\r\n    }\r\n\r\n    // return last account created by account ledger\r\n    function getLedgerAccount(address accountLedger) external view returns(address){\r\n        //return accounts[accountHolder][accountLedger].account;\r\n        address[] memory ledgerAccounts = accountList[accountLedger];\r\n        return ledgerAccounts[ledgerAccounts.length-1];\r\n    }\r\n\r\n    // return account holder addresses for account creator\r\n    function getAccountHolders(address accountCreator) external view returns(address[] memory){\r\n        return accountHolderList[accountCreator];\r\n    }\r\n\r\n    // return account ledger addresses for account holder\r\n    function getAccountLedgers(address accountHolder) external view returns(address[] memory){\r\n        return ledgerList[accountHolder];\r\n    }\r\n    \r\n    // return account addresses for account ledger\r\n    function getLedgerAccounts(address accountLedger) external view returns(address[] memory){\r\n        return accountList[accountLedger];\r\n    }\r\n\r\n    // return details of account holder\r\n    function getHolderDetails(address holder) external view returns(bytes32){\r\n        return accountholders[holder].holderName;\r\n    }\r\n\r\n    // return details of ledger\r\n    function getLedgerDetails(address _ledger) external view returns(bytes32, bytes32){\r\n        return (ledgers[_ledger].ledgerName, ledgers[_ledger].group);\r\n    }\r\n\r\n    // return details of account\r\n    function getAccountDetails(address _account) external view returns(bytes32, bytes32){\r\n        return (accounts[_account].accountName, accounts[_account].currency);\r\n    }\r\n\r\n    // confirm if an account holder exists or not\r\n    function confirmAccountHolder(address _accountHolder) external view returns(bool){\r\n        if(accountholders[_accountHolder].accountHolder!=address(0x0))\r\n            return true;\r\n        else\r\n            return false;\r\n    }\r\n    \r\n    //account holders can be created by message senders who are KYC verified clients\r\n    //_holderName is the name of the account holder\r\n    //_accountHolder is the client's counter party for which the account is created in books\r\n    function createHolder(bytes32 _holderName, address _accountHolder) external {\r\n        //only registered client can create account holder (client's counter party in client's books of account)\r\n        //require(clientRef.isRegistered(msg.sender));\r\n\r\n        bytes memory _payload = abi.encodeWithSignature(\"initialize(bytes32,address,address,address)\", _holderName, msg.sender, address(this), _accountHolder);\r\n\r\n        //create account holder\r\n        address _holder = deployMinimal(holderAddress, _payload);\r\n        emit HolderCreated(_holder, _holderName, _accountHolder);\r\n         \r\n        //map client to account holder\r\n        accountholders[_holder] = accountholder(_holderName, _accountHolder);\r\n\r\n        for(uint i=0; i<accountHolderList[_accountHolder].length; i++){\r\n            if(accountHolderList[_accountHolder][i]==_holder)\r\n                delete accountHolderList[_accountHolder][i];\r\n        }\r\n        accountHolderList[_accountHolder].push(_holder);\r\n            \r\n    }\r\n\r\n    //ledger account factory with ledgers created by account holders (msg.sender to this function)\r\n    function createLedger(bytes32 _ledgerName, bytes32 _ledgerGroup, address _accountCreator, address _accountHolder) external {\r\n        //only account holders can request ledger creation\r\n        require(accountholders[msg.sender].accountHolder==_accountHolder);\r\n\r\n        // invoker of this function is the owner of the ledger that gets created\r\n        bytes memory _payload = abi.encodeWithSignature(\"initialize(bytes32,bytes32,address,address,address,address)\", _ledgerName, _ledgerGroup, msg.sender, address(this), _accountCreator, _accountHolder);\r\n\r\n        //create ledger\r\n        address _ledger = deployMinimal(ledgerAddress, _payload);\r\n        emit LedgerCreated(_ledger, _ledgerName, _ledgerGroup, msg.sender);\r\n\r\n        //map account holder to ledger\r\n        ledgers[_ledger] = ledger(_ledgerName, _ledgerGroup, _ledger);\r\n\r\n        for(uint i=0; i<ledgerList[msg.sender].length; i++){\r\n            if(ledgerList[msg.sender][i]==_ledger)\r\n                delete ledgerList[msg.sender][i];                \r\n        }\r\n        ledgerList[msg.sender].push(_ledger);\r\n        \r\n    }\r\n\r\n    //account factory with accounts created in ledgers, and created by account holders\r\n    function createAccount(bytes32 _accountName, bytes32 _currency, address _accountCreator, address _accountHolder) external {\r\n        //only ledger accounts with registered account holders can request account creation\r\n        require(ledgers[msg.sender].ledger==msg.sender);\r\n\r\n        address viaCash = via.getTokenByNameType(_currency, \"ViaCash\");\r\n\r\n        if(viaCash!=address(0x0)){\r\n            bytes memory _payload = abi.encodeWithSignature(\"initialize(bytes32,address,address,address,address)\", _accountName, msg.sender, address(this), _accountCreator, _accountHolder);\r\n\r\n            // Create account\r\n            address _account = deployMinimal(accountAddress, _payload);\r\n            emit AccountCreated(_account, _accountName, msg.sender);\r\n\r\n            //map accountholder + ledger to account\r\n            accounts[_account] = account(_accountName, _account, _currency);\r\n\r\n            for(uint i=0; i<accountList[msg.sender].length; i++){\r\n                if(accountList[msg.sender][i]==_account)\r\n                    delete accountList[msg.sender][i];\r\n            }\r\n            accountList[msg.sender].push(_account);\r\n            \r\n        }\r\n        \r\n    }\r\n    \r\n}\r\n\r\n\r\n\r\n\r\n\r\n\r\n",
  "sourcePath": "D:\\Code\\verified-accounts\\contracts\\accounting\\System.sol",
  "compiler": {
    "name": "solc",
    "version": "0.5.7+commit.6da8b019.Emscripten.clang"
  },
  "schemaVersion": "3.4.3",
  "updatedAt": "2021-09-23T14:53:21.244Z",
  "networkType": "ethereum",
  "devdoc": {
    "methods": {}
  },
  "userdoc": {
    "methods": {}
  }
}