{
  "contractName": "System",
  "abi": [
    {
      "constant": true,
      "inputs": [
        {
          "name": "_salt",
          "type": "uint256"
        },
        {
          "name": "_logic",
          "type": "address"
        },
        {
          "name": "_admin",
          "type": "address"
        },
        {
          "name": "_data",
          "type": "bytes"
        },
        {
          "name": "_signature",
          "type": "bytes"
        }
      ],
      "name": "getSigner",
      "outputs": [
        {
          "name": "",
          "type": "address"
        }
      ],
      "payable": false,
      "stateMutability": "view",
      "type": "function"
    },
    {
      "constant": false,
      "inputs": [
        {
          "name": "_salt",
          "type": "uint256"
        },
        {
          "name": "_logic",
          "type": "address"
        },
        {
          "name": "_admin",
          "type": "address"
        },
        {
          "name": "_data",
          "type": "bytes"
        },
        {
          "name": "_signature",
          "type": "bytes"
        }
      ],
      "name": "deploySigned",
      "outputs": [
        {
          "name": "",
          "type": "address"
        }
      ],
      "payable": false,
      "stateMutability": "nonpayable",
      "type": "function"
    },
    {
      "constant": true,
      "inputs": [
        {
          "name": "",
          "type": "address"
        }
      ],
      "name": "accountholders",
      "outputs": [
        {
          "name": "holderName",
          "type": "bytes32"
        },
        {
          "name": "accountHolder",
          "type": "address"
        }
      ],
      "payable": false,
      "stateMutability": "view",
      "type": "function"
    },
    {
      "constant": true,
      "inputs": [
        {
          "name": "",
          "type": "address"
        }
      ],
      "name": "accounts",
      "outputs": [
        {
          "name": "accountName",
          "type": "bytes32"
        },
        {
          "name": "account",
          "type": "address"
        },
        {
          "name": "currency",
          "type": "bytes32"
        }
      ],
      "payable": false,
      "stateMutability": "view",
      "type": "function"
    },
    {
      "constant": false,
      "inputs": [
        {
          "name": "_salt",
          "type": "uint256"
        },
        {
          "name": "_logic",
          "type": "address"
        },
        {
          "name": "_admin",
          "type": "address"
        },
        {
          "name": "_data",
          "type": "bytes"
        }
      ],
      "name": "deploy",
      "outputs": [
        {
          "name": "",
          "type": "address"
        }
      ],
      "payable": false,
      "stateMutability": "nonpayable",
      "type": "function"
    },
    {
      "constant": false,
      "inputs": [],
      "name": "renounceOwnership",
      "outputs": [],
      "payable": false,
      "stateMutability": "nonpayable",
      "type": "function"
    },
    {
      "constant": true,
      "inputs": [
        {
          "name": "_salt",
          "type": "uint256"
        },
        {
          "name": "_sender",
          "type": "address"
        }
      ],
      "name": "getDeploymentAddress",
      "outputs": [
        {
          "name": "",
          "type": "address"
        }
      ],
      "payable": false,
      "stateMutability": "view",
      "type": "function"
    },
    {
      "constant": true,
      "inputs": [],
      "name": "owner",
      "outputs": [
        {
          "name": "",
          "type": "address"
        }
      ],
      "payable": false,
      "stateMutability": "view",
      "type": "function"
    },
    {
      "constant": true,
      "inputs": [],
      "name": "isOwner",
      "outputs": [
        {
          "name": "",
          "type": "bool"
        }
      ],
      "payable": false,
      "stateMutability": "view",
      "type": "function"
    },
    {
      "constant": true,
      "inputs": [
        {
          "name": "",
          "type": "address"
        }
      ],
      "name": "ledgers",
      "outputs": [
        {
          "name": "ledgerName",
          "type": "bytes32"
        },
        {
          "name": "group",
          "type": "bytes32"
        },
        {
          "name": "ledger",
          "type": "address"
        }
      ],
      "payable": false,
      "stateMutability": "view",
      "type": "function"
    },
    {
      "constant": false,
      "inputs": [
        {
          "name": "_logic",
          "type": "address"
        },
        {
          "name": "_data",
          "type": "bytes"
        }
      ],
      "name": "deployMinimal",
      "outputs": [
        {
          "name": "proxy",
          "type": "address"
        }
      ],
      "payable": false,
      "stateMutability": "nonpayable",
      "type": "function"
    },
    {
      "constant": false,
      "inputs": [
        {
          "name": "newOwner",
          "type": "address"
        }
      ],
      "name": "transferOwnership",
      "outputs": [],
      "payable": false,
      "stateMutability": "nonpayable",
      "type": "function"
    },
    {
      "anonymous": false,
      "inputs": [
        {
          "indexed": true,
          "name": "holder",
          "type": "address"
        },
        {
          "indexed": false,
          "name": "holderName",
          "type": "bytes32"
        },
        {
          "indexed": false,
          "name": "accountCreator",
          "type": "address"
        }
      ],
      "name": "HolderCreated",
      "type": "event"
    },
    {
      "anonymous": false,
      "inputs": [
        {
          "indexed": true,
          "name": "ledger",
          "type": "address"
        },
        {
          "indexed": false,
          "name": "ledgerName",
          "type": "bytes32"
        },
        {
          "indexed": false,
          "name": "group",
          "type": "bytes32"
        },
        {
          "indexed": false,
          "name": "holder",
          "type": "address"
        }
      ],
      "name": "LedgerCreated",
      "type": "event"
    },
    {
      "anonymous": false,
      "inputs": [
        {
          "indexed": true,
          "name": "account",
          "type": "address"
        },
        {
          "indexed": false,
          "name": "accountName",
          "type": "bytes32"
        },
        {
          "indexed": false,
          "name": "ledger",
          "type": "address"
        }
      ],
      "name": "AccountCreated",
      "type": "event"
    },
    {
      "anonymous": false,
      "inputs": [
        {
          "indexed": true,
          "name": "previousOwner",
          "type": "address"
        },
        {
          "indexed": true,
          "name": "newOwner",
          "type": "address"
        }
      ],
      "name": "OwnershipTransferred",
      "type": "event"
    },
    {
      "anonymous": false,
      "inputs": [
        {
          "indexed": false,
          "name": "proxy",
          "type": "address"
        }
      ],
      "name": "ProxyCreated",
      "type": "event"
    },
    {
      "constant": false,
      "inputs": [
        {
          "name": "_ledger",
          "type": "address"
        },
        {
          "name": "_account",
          "type": "address"
        },
        {
          "name": "_holder",
          "type": "address"
        },
        {
          "name": "_client",
          "type": "address"
        },
        {
          "name": "_viaFactory",
          "type": "address"
        }
      ],
      "name": "initialize",
      "outputs": [],
      "payable": false,
      "stateMutability": "nonpayable",
      "type": "function"
    },
    {
      "constant": false,
      "inputs": [
        {
          "name": "sender",
          "type": "address"
        }
      ],
      "name": "initialize",
      "outputs": [],
      "payable": false,
      "stateMutability": "nonpayable",
      "type": "function"
    },
    {
      "constant": true,
      "inputs": [
        {
          "name": "accountCreator",
          "type": "address"
        }
      ],
      "name": "getAccountHolder",
      "outputs": [
        {
          "name": "",
          "type": "address"
        }
      ],
      "payable": false,
      "stateMutability": "view",
      "type": "function"
    },
    {
      "constant": true,
      "inputs": [
        {
          "name": "accountHolder",
          "type": "address"
        }
      ],
      "name": "getAccountLedger",
      "outputs": [
        {
          "name": "",
          "type": "address"
        }
      ],
      "payable": false,
      "stateMutability": "view",
      "type": "function"
    },
    {
      "constant": true,
      "inputs": [
        {
          "name": "accountLedger",
          "type": "address"
        }
      ],
      "name": "getLedgerAccount",
      "outputs": [
        {
          "name": "",
          "type": "address"
        }
      ],
      "payable": false,
      "stateMutability": "view",
      "type": "function"
    },
    {
      "constant": true,
      "inputs": [
        {
          "name": "accountCreator",
          "type": "address"
        }
      ],
      "name": "getAccountHolders",
      "outputs": [
        {
          "name": "",
          "type": "address[]"
        }
      ],
      "payable": false,
      "stateMutability": "view",
      "type": "function"
    },
    {
      "constant": true,
      "inputs": [
        {
          "name": "accountHolder",
          "type": "address"
        }
      ],
      "name": "getAccountLedgers",
      "outputs": [
        {
          "name": "",
          "type": "address[]"
        }
      ],
      "payable": false,
      "stateMutability": "view",
      "type": "function"
    },
    {
      "constant": true,
      "inputs": [
        {
          "name": "accountLedger",
          "type": "address"
        }
      ],
      "name": "getLedgerAccounts",
      "outputs": [
        {
          "name": "",
          "type": "address[]"
        }
      ],
      "payable": false,
      "stateMutability": "view",
      "type": "function"
    },
    {
      "constant": true,
      "inputs": [
        {
          "name": "holder",
          "type": "address"
        }
      ],
      "name": "getHolderDetails",
      "outputs": [
        {
          "name": "",
          "type": "bytes32"
        },
        {
          "name": "",
          "type": "address"
        }
      ],
      "payable": false,
      "stateMutability": "view",
      "type": "function"
    },
    {
      "constant": true,
      "inputs": [
        {
          "name": "_ledger",
          "type": "address"
        }
      ],
      "name": "getLedgerDetails",
      "outputs": [
        {
          "name": "",
          "type": "bytes32"
        },
        {
          "name": "",
          "type": "bytes32"
        }
      ],
      "payable": false,
      "stateMutability": "view",
      "type": "function"
    },
    {
      "constant": true,
      "inputs": [
        {
          "name": "_account",
          "type": "address"
        }
      ],
      "name": "getAccountDetails",
      "outputs": [
        {
          "name": "",
          "type": "bytes32"
        },
        {
          "name": "",
          "type": "bytes32"
        }
      ],
      "payable": false,
      "stateMutability": "view",
      "type": "function"
    },
    {
      "constant": true,
      "inputs": [
        {
          "name": "_accountHolder",
          "type": "address"
        }
      ],
      "name": "confirmAccountHolder",
      "outputs": [
        {
          "name": "",
          "type": "bool"
        }
      ],
      "payable": false,
      "stateMutability": "view",
      "type": "function"
    },
    {
      "constant": false,
      "inputs": [
        {
          "name": "_holderName",
          "type": "bytes32"
        },
        {
          "name": "_accountHolder",
          "type": "address"
        }
      ],
      "name": "createHolder",
      "outputs": [],
      "payable": false,
      "stateMutability": "nonpayable",
      "type": "function"
    },
    {
      "constant": false,
      "inputs": [
        {
          "name": "_ledgerName",
          "type": "bytes32"
        },
        {
          "name": "_ledgerGroup",
          "type": "bytes32"
        },
        {
          "name": "_accountCreator",
          "type": "address"
        },
        {
          "name": "_accountHolder",
          "type": "address"
        }
      ],
      "name": "createLedger",
      "outputs": [],
      "payable": false,
      "stateMutability": "nonpayable",
      "type": "function"
    },
    {
      "constant": false,
      "inputs": [
        {
          "name": "_accountName",
          "type": "bytes32"
        },
        {
          "name": "_currency",
          "type": "bytes32"
        },
        {
          "name": "_accountCreator",
          "type": "address"
        },
        {
          "name": "_accountHolder",
          "type": "address"
        }
      ],
      "name": "createAccount",
      "outputs": [],
      "payable": false,
      "stateMutability": "nonpayable",
      "type": "function"
    }
  ],
  "bytecode": "0x6080604081905261001060a0610034565b601f1982820381018352601f90910116604052805160209190910120600055610041565b6109a6806130ea83390190565b61309a806100506000396000f3fe608060405234801561001057600080fd5b50600436106101a95760003560e01c80636a8f91ff116100f9578063b1e1c37011610097578063d71349d011610071578063d71349d01461098f578063d84f3adb146109b5578063f2fde38b146109db578063fae06fce14610a01576101a9565b8063b1e1c37014610868578063b3eeb5e2146108b5578063c4d66de814610969576101a9565b806381ae1f5b116100d357806381ae1f5b146108065780638da5cb5b146108325780638f32d59b1461083a578063a202bc2e14610842576101a9565b80636a8f91ff14610798578063710d1571146107d2578063715018a6146107fe576101a9565b80632aceb5341161016657806348dfe2d21161014057806348dfe2d21461063c5780635834cd1f146106625780635e5c06e2146106885780636150864c146106d4576101a9565b80632aceb5341461043e578063332d66261461047d5780633670df3a146105c6576101a9565b8063045c034e146101ae5780630a05cd01146101e85780631459457a1461022f578063213fe3c014610279578063290f8f56146102b357806329cbac0414610418575b600080fd5b6101d4600480360360208110156101c457600080fd5b50356001600160a01b0316610a27565b604080519115158252519081900360200190f35b61020e600480360360208110156101fe57600080fd5b50356001600160a01b0316610a5d565b604080519283526001600160a01b0390911660208301528051918290030190f35b610277600480360360a081101561024557600080fd5b506001600160a01b03813581169160208101358216916040820135811691606081013582169160809091013516610a85565b005b6102776004803603608081101561028f57600080fd5b508035906020810135906001600160a01b0360408201358116916060013516610c12565b6103fc600480360360a08110156102c957600080fd5b8135916001600160a01b03602082013581169260408301359091169190810190608081016060820135600160201b81111561030357600080fd5b82018360208201111561031557600080fd5b803590602001918460018302840111600160201b8311171561033657600080fd5b91908080601f0160208091040260200160405190810160405280939291908181526020018383808284376000920191909152509295949360208101935035915050600160201b81111561038857600080fd5b82018360208201111561039a57600080fd5b803590602001918460018302840111600160201b831117156103bb57600080fd5b91908080601f016020809104026020016040519081016040528093929190818152602001838380828437600092019190915250929550610fa4945050505050565b604080516001600160a01b039092168252519081900360200190f35b6103fc6004803603602081101561042e57600080fd5b50356001600160a01b0316611093565b6104646004803603602081101561045457600080fd5b50356001600160a01b0316611122565b6040805192835260208301919091528051918290030190f35b6103fc600480360360a081101561049357600080fd5b8135916001600160a01b03602082013581169260408301359091169190810190608081016060820135600160201b8111156104cd57600080fd5b8201836020820111156104df57600080fd5b803590602001918460018302840111600160201b8311171561050057600080fd5b91908080601f0160208091040260200160405190810160405280939291908181526020018383808284376000920191909152509295949360208101935035915050600160201b81111561055257600080fd5b82018360208201111561056457600080fd5b803590602001918460018302840111600160201b8311171561058557600080fd5b91908080601f016020809104026020016040519081016040528093929190818152602001838380828437600092019190915250929550611145945050505050565b6105ec600480360360208110156105dc57600080fd5b50356001600160a01b03166111c2565b60408051602080825283518183015283519192839290830191858101910280838360005b83811015610628578181015183820152602001610610565b505050509050019250505060405180910390f35b6103fc6004803603602081101561065257600080fd5b50356001600160a01b0316611238565b61020e6004803603602081101561067857600080fd5b50356001600160a01b03166112b5565b6106ae6004803603602081101561069e57600080fd5b50356001600160a01b03166112d7565b604080519384526001600160a01b03909216602084015282820152519081900360600190f35b6103fc600480360360808110156106ea57600080fd5b8135916001600160a01b03602082013581169260408301359091169190810190608081016060820135600160201b81111561072457600080fd5b82018360208201111561073657600080fd5b803590602001918460018302840111600160201b8311171561075757600080fd5b91908080601f016020809104026020016040519081016040528093929190818152602001838380828437600092019190915250929550611301945050505050565b610277600480360360808110156107ae57600080fd5b508035906020810135906001600160a01b0360408201358116916060013516611319565b610277600480360360408110156107e857600080fd5b50803590602001356001600160a01b0316611912565b610277611d03565b6103fc6004803603604081101561081c57600080fd5b50803590602001356001600160a01b0316611da9565b6103fc611e10565b6101d4611e1f565b6105ec6004803603602081101561085857600080fd5b50356001600160a01b0316611e45565b61088e6004803603602081101561087e57600080fd5b50356001600160a01b0316611eb9565b6040805193845260208401929092526001600160a01b031682820152519081900360600190f35b6103fc600480360360408110156108cb57600080fd5b6001600160a01b038235169190810190604081016020820135600160201b8111156108f557600080fd5b82018360208201111561090757600080fd5b803590602001918460018302840111600160201b8311171561092857600080fd5b91908080601f016020809104026020016040519081016040528093929190818152602001838380828437600092019190915250929550611ee3945050505050565b6102776004803603602081101561097f57600080fd5b50356001600160a01b0316612044565b6105ec600480360360208110156109a557600080fd5b50356001600160a01b0316612138565b610464600480360360208110156109cb57600080fd5b50356001600160a01b03166121ac565b610277600480360360208110156109f157600080fd5b50356001600160a01b03166121cf565b6103fc60048036036020811015610a1757600080fd5b50356001600160a01b0316612237565b6001600160a01b0381811660009081526068602052604081206001015490911615610a5457506001610a58565b5060005b919050565b6001600160a01b03908116600090815260686020526040902080546001909101549092911690565b600154610100900460ff1680610a9e5750610a9e6122b4565b80610aac575060015460ff16155b610aea57604051600160e51b62461bcd02815260040180806020018281038252602e815260200180613041602e913960400191505060405180910390fd5b600154610100900460ff16158015610b14576001805460ff1961ff00199091166101001716811790555b610b1d33612044565b606d80546001600160a01b038086166001600160a01b03199283168117909355606e80548983169084168117909155606f80548984169085168117909155607080548c8516908616811790915560728054861690931790925560738054851690911790556074805484169091179055607180548683169316929092179182905560408051600160e11b63402f7c0902815260048101949094525191169163805ef81291602480830192600092919082900301818387803b158015610be057600080fd5b505af1158015610bf4573d6000803e3d6000fd5b505050508015610c0a576001805461ff00191690555b505050505050565b336000908152606860205260409020600101546001600160a01b03828116911614610c3c57600080fd5b600080805b33600090815260696020526040902054811015610ddb5733600090815260696020526040812080548992606a92909185908110610c7a57fe5b60009182526020808320909101546001600160a01b03168352820192909252604001902054148015610cf3575033600090815260696020526040812080548892606a92909185908110610cc957fe5b60009182526020808320909101546001600160a01b03168352820192909252604001902060010154145b15610d2f5733600090815260696020526040902080546001935082908110610d1757fe5b6000918252602090912001546001600160a01b031692505b818015610d4e5750336000908152606960205260409020546000190181105b15610dd357336000908152606960205260409020805460018301908110610d7157fe5b60009182526020808320909101543383526069909152604090912080546001600160a01b039092169183908110610da457fe5b9060005260206000200160006101000a8154816001600160a01b0302191690836001600160a01b031602179055505b600101610c41565b5080610f2c576040805160248101889052604481018790523360648201523060848201526001600160a01b0380871660a483015280861660c4808401919091528351808403909101815260e49092019092526020810180516001600160e01b0316600160e21b632274a713021790526074549091610e5a911682611ee3565b6040805189815260208101899052338183015290519194506001600160a01b038516917fa7a3b730104ab7e50ae390a6dc77147471ca6cddc8f94f07c7452e3a6d2dd1fe9181900360600190a2506040805160608101825287815260208082018881526001600160a01b038087168486018181526000828152606a8652878120965187559351600180880191909155905160029096018054969093166001600160a01b031996871617909255338352606984529482208054918201815582529190200180549091169091179055610c0a565b336000908152606960205260409020805480610f4457fe5b60008281526020808220830160001990810180546001600160a01b031990811690915593019093553381526069835260408120805460018101825590825292902090910180546001600160a01b0385169216919091179055505050505050565b60008061107c878787873060405160200180868152602001856001600160a01b03166001600160a01b031660601b8152601401846001600160a01b03166001600160a01b031660601b815260140183805190602001908083835b6020831061101d5780518252601f199092019160209182019101610ffe565b6001836020036101000a038019825116818451168082178552505050505050905001826001600160a01b03166001600160a01b031660601b815260140195505050505050604051602081830303815290604052805190602001206122ba565b9050611088818461230b565b979650505050505050565b6001600160a01b038116600090815260676020908152604080832080548251818502810185019093528083526060938301828280156110fb57602002820191906000526020600020905b81546001600160a01b031681526001909101906020018083116110dd575b505050505090508060018251038151811061111257fe5b6020026020010151915050919050565b6001600160a01b03166000908152606c6020526040902080546002909101549091565b6000806111558787878787610fa4565b90506001600160a01b0381166111b55760408051600160e51b62461bcd02815260206004820152601160248201527f496e76616c6964207369676e6174757265000000000000000000000000000000604482015290519081900360640190fd5b61108887878787856123f9565b6001600160a01b03811660009081526069602090815260409182902080548351818402810184019094528084526060939283018282801561122c57602002820191906000526020600020905b81546001600160a01b0316815260019091019060200180831161120e575b50505050509050919050565b6001600160a01b038116600090815260696020908152604080832080548251818502810185019093528083526060938301828280156110fb576020028201919060005260206000209081546001600160a01b031681526001909101906020018083116110dd57505050505090508060018251038151811061111257fe5b606860205260009081526040902080546001909101546001600160a01b031682565b606c6020526000908152604090208054600182015460029092015490916001600160a01b03169083565b600061131085858585336123f9565b95945050505050565b336000818152606a60205260409020600201546001600160a01b03161461133f57600080fd5b600080805b336000908152606b60205260409020548110156114de57336000908152606b6020526040812080548992606c9290918590811061137d57fe5b60009182526020808320909101546001600160a01b031683528201929092526040019020541480156113f65750336000908152606b6020526040812080548892606c929091859081106113cc57fe5b60009182526020808320909101546001600160a01b03168352820192909252604001902060020154145b1561143257336000908152606b602052604090208054600193508290811061141a57fe5b6000918252602090912001546001600160a01b031692505b8180156114515750336000908152606b60205260409020546000190181105b156114d657336000908152606b6020526040902080546001830190811061147457fe5b6000918252602080832090910154338352606b909152604090912080546001600160a01b0390921691839081106114a757fe5b9060005260206000200160006101000a8154816001600160a01b0302191690836001600160a01b031602179055505b600101611344565b508061189a5760715460408051600160e21b633cd163c502815260048101889052600160cb1b660acd2c286c2e6d026024820152905160009283926001600160a01b039091169163f3458f1491604480820192602092909190829003018186803b15801561154b57600080fd5b505afa15801561155f573d6000803e3d6000fd5b505050506040513d602081101561157557600080fd5b50516001600160a01b03161461158d5750600161174f565b60715460408051600160f31b610acb0260208083019190915260228083018b9052835180840390910181526042830193849052600160e31b6319f6a32502909352604682018181528351606684015283516000956001600160a01b03169463f3458f149473__stringutils___________________________9463cfb519289492938392608601918501908083838d5b8381101561163557818101518382015260200161161d565b50505050905090810190601f1680156116625780820380516001836020036101000a031916815260200191505b509250505060206040518083038186803b15801561167f57600080fd5b505af4158015611693573d6000803e3d6000fd5b505050506040513d60208110156116a957600080fd5b50516040805163ffffffff841660e01b81526004810192909252600160cb1b660acd2c286c2e6d026024830152516044808301926020929190829003018186803b1580156116f657600080fd5b505afa15801561170a573d6000803e3d6000fd5b505050506040513d602081101561172057600080fd5b50516001600160a01b0316146117385750600161174f565b85600160d91b6432ba3432b902141561174f575060015b80156118945760408051602481018990523360448201523060648201526001600160a01b03808816608483015280871660a483015260c48083018a90528351808403909101815260e49092019092526020810180516001600160e01b0316600160e11b63131755bd0217905260725490916117cb911682611ee3565b604080518a815233602082015281519296506001600160a01b038716927ff5493120d2d01cb5b6c36e95466192409ff774fd8dab4f1c653dde8072078244929181900390910190a250604080516060810182528881526001600160a01b0380861660208084018281528486018c81526000848152606c845287812096518755915160018088018054929097166001600160a01b0319928316179096559051600290960195909555338152606b825294852080549384018155855290932001805490911690911790555b50610c0a565b336000908152606b602052604090208054806118b257fe5b60008281526020808220830160001990810180546001600160a01b03199081169091559301909355338152606b835260408120805460018101825590825292902090910180546001600160a01b0385169216919091179055505050505050565b606d5460408051600160e01b63c3c5a54702815233600482015290516001600160a01b039092169163c3c5a54791602480820192602092909190829003018186803b15801561196057600080fd5b505afa158015611974573d6000803e3d6000fd5b505050506040513d602081101561198a57600080fd5b5051806119a657503361199b611e10565b6001600160a01b0316145b6119af57600080fd5b600080805b33600090815260676020526040902054811015611b5d57336000908152606760205260408120805487926068929091859081106119ed57fe5b60009182526020808320909101546001600160a01b03168352820192909252604001902054148015611a75575033600090815260676020526040812080546001600160a01b03871692606892909185908110611a4557fe5b60009182526020808320909101546001600160a01b03908116845290830193909352604090910190206001015416145b15611ab15733600090815260676020526040902080546001935082908110611a9957fe5b6000918252602090912001546001600160a01b031692505b818015611ad05750336000908152606760205260409020546000190181105b15611b5557336000908152606760205260409020805460018301908110611af357fe5b60009182526020808320909101543383526067909152604090912080546001600160a01b039092169183908110611b2657fe5b9060005260206000200160006101000a8154816001600160a01b0302191690836001600160a01b031602179055505b6001016119b4565b5080611c8e5760408051602481018690523360448201523060648201526001600160a01b038086166084808401919091528351808403909101815260a49092019092526020810180516001600160e01b0316600160e21b63374b1f2f021790526073549091611bcd911682611ee3565b604080518781526001600160a01b03878116602083015282519396508616927ff289741993d37831eb02b3070b1333c526393c004bc30414f086f00abe223f0d929181900390910190a2506040805180820182528581526001600160a01b03808616602080840191825286831660008181526068835286812095518655925160019586018054919095166001600160a01b03199182161790945533835260678252948220805494850181558252902090910180549091169091179055611cfd565b336000908152606760205260409020805480611ca657fe5b60008281526020808220600019908401810180546001600160a01b031990811690915593019093553381526067835260408120805460018101825590825292902090910180549091166001600160a01b0384161790555b50505050565b611d0b611e1f565b611d5f5760408051600160e51b62461bcd02815260206004820181905260248201527f4f776e61626c653a2063616c6c6572206973206e6f7420746865206f776e6572604482015290519081900360640190fd5b6034546040516000916001600160a01b0316907f8be0079c531659141344cd1fd0a4f28419497f9722a3daafe3b4186f6b6457e0908390a3603480546001600160a01b0319169055565b600080611db6848461252d565b600054604080516001600160f81b031960208083019190915230606090811b602184015260358301959095526055808301949094528251808303909401845260759091019091528151910120811b901c9150505b92915050565b6034546001600160a01b031690565b6034546000906001600160a01b0316611e36612566565b6001600160a01b031614905090565b6001600160a01b0381166000908152606b602090815260409182902080548351818402810184019094528084526060939283018282801561122c576020028201919060005260206000209081546001600160a01b0316815260019091019060200180831161120e5750505050509050919050565b606a602052600090815260409020805460018201546002909201549091906001600160a01b031683565b6000808360601b90506040517f3d602d80600a3d3981f3363d3d373d3d3d363d7300000000000000000000000081528160148201527f5af43d82803e903d91602b57fd5bf3000000000000000000000000000000000060288201526037816000f0604080516001600160a01b038316815290519194507efffc2da0b561cae30d9826d37709e9421c4725faebc226cbbb7ef5fc5e7349925081900360200190a182511561203d576000826001600160a01b0316846040518082805190602001908083835b60208310611fc65780518252601f199092019160209182019101611fa7565b6001836020036101000a0380198251168184511680821785525050505050509050019150506000604051808303816000865af19150503d8060008114612028576040519150601f19603f3d011682016040523d82523d6000602084013e61202d565b606091505b505090508061203b57600080fd5b505b5092915050565b600154610100900460ff168061205d575061205d6122b4565b8061206b575060015460ff16155b6120a957604051600160e51b62461bcd02815260040180806020018281038252602e815260200180613041602e913960400191505060405180910390fd5b600154610100900460ff161580156120d3576001805460ff1961ff00199091166101001716811790555b603480546001600160a01b0319166001600160a01b0384811691909117918290556040519116906000907f8be0079c531659141344cd1fd0a4f28419497f9722a3daafe3b4186f6b6457e0908290a38015612134576001805461ff00191690555b5050565b6001600160a01b03811660009081526067602090815260409182902080548351818402810184019094528084526060939283018282801561122c576020028201919060005260206000209081546001600160a01b0316815260019091019060200180831161120e5750505050509050919050565b6001600160a01b03166000908152606a6020526040902080546001909101549091565b6121d7611e1f565b61222b5760408051600160e51b62461bcd02815260206004820181905260248201527f4f776e61626c653a2063616c6c6572206973206e6f7420746865206f776e6572604482015290519081900360640190fd5b6122348161256a565b50565b6001600160a01b0381166000908152606b6020908152604080832080548251818502810185019093528083526060938301828280156110fb576020028201919060005260206000209081546001600160a01b031681526001909101906020018083116110dd57505050505090508060018251038151811061111257fe5b303b1590565b604080517f19457468657265756d205369676e6564204d6573736167653a0a333200000000602080830191909152603c8083019490945282518083039094018452605c909101909152815191012090565b6000815160411461231e57506000611e0a565b60208201516040830151606084015160001a7f7fffffffffffffffffffffffffffffff5d576e7357a4501ddfe92f46681b20a08211156123645760009350505050611e0a565b8060ff16601b1415801561237c57508060ff16601c14155b1561238d5760009350505050611e0a565b6040805160008152602080820180845289905260ff8416828401526060820186905260808201859052915160019260a0808401939192601f1981019281900390910190855afa1580156123e4573d6000803e3d6000fd5b5050604051601f190151979650505050505050565b600080612406878461260e565b604080516001600160a01b038316815290519192507efffc2da0b561cae30d9826d37709e9421c4725faebc226cbbb7ef5fc5e7349919081900360200190a1604051600160e01b63cf7a1d770281526001600160a01b038781166004830190815287821660248401526060604484019081528751606485015287519285169363cf7a1d77938b938b938b939192909160840190602085019080838360005b838110156124bc5781810151838201526020016124a4565b50505050905090810190601f1680156124e95780820380516001836020036101000a031916815260200191505b50945050505050600060405180830381600087803b15801561250a57600080fd5b505af115801561251e573d6000803e3d6000fd5b50929998505050505050505050565b604080516020808201949094526001600160a01b039290921660601b828201528051808303603401815260549092019052805191012090565b3390565b6001600160a01b0381166125b257604051600160e51b62461bcd02815260040180806020018281038252602681526020018061301b6026913960400191505060405180910390fd5b6034546040516001600160a01b038084169216907f8be0079c531659141344cd1fd0a4f28419497f9722a3daafe3b4186f6b6457e090600090a3603480546001600160a01b0319166001600160a01b0392909216919091179055565b60008060606040518060200161262390612667565b601f1982820381018352601f9091011660405290506000612644868661252d565b9050808251602084016000f59250823b61265d57600080fd5b5090949350505050565b6109a6806126758339019056fe608060405234801561001057600080fd5b50610986806100206000396000f3fe6080604052600436106100705760003560e01c80638f2839701161004e5780638f2839701461015e578063cf7a1d7714610191578063d1f5789414610250578063f851a4401461030657610070565b80633659cfe61461007a5780634f1ef286146100ad5780635c60da1b1461012d575b61007861031b565b005b34801561008657600080fd5b506100786004803603602081101561009d57600080fd5b50356001600160a01b0316610335565b610078600480360360408110156100c357600080fd5b6001600160a01b0382351691908101906040810160208201356401000000008111156100ee57600080fd5b82018360208201111561010057600080fd5b8035906020019184600183028401116401000000008311171561012257600080fd5b50909250905061036f565b34801561013957600080fd5b5061014261041c565b604080516001600160a01b039092168252519081900360200190f35b34801561016a57600080fd5b506100786004803603602081101561018157600080fd5b50356001600160a01b0316610459565b610078600480360360608110156101a757600080fd5b6001600160a01b0382358116926020810135909116918101906060810160408201356401000000008111156101db57600080fd5b8201836020820111156101ed57600080fd5b8035906020019184600183028401116401000000008311171561020f57600080fd5b91908080601f016020809104026020016040519081016040528093929190818152602001838380828437600092019190915250929550610516945050505050565b6100786004803603604081101561026657600080fd5b6001600160a01b03823516919081019060408101602082013564010000000081111561029157600080fd5b8201836020820111156102a357600080fd5b803590602001918460018302840111640100000000831117156102c557600080fd5b91908080601f0160208091040260200160405190810160405280939291908181526020018383808284376000920191909152509295506105a6945050505050565b34801561031257600080fd5b506101426106e6565b610323610711565b61033361032e610774565b610799565b565b61033d6107bd565b6001600160a01b0316336001600160a01b031614156103645761035f816107e2565b61036c565b61036c61031b565b50565b6103776107bd565b6001600160a01b0316336001600160a01b0316141561040f57610399836107e2565b6000836001600160a01b031683836040518083838082843760405192019450600093509091505080830381855af49150503d80600081146103f6576040519150601f19603f3d011682016040523d82523d6000602084013e6103fb565b606091505b505090508061040957600080fd5b50610417565b61041761031b565b505050565b60006104266107bd565b6001600160a01b0316336001600160a01b0316141561044e57610447610774565b9050610456565b61045661031b565b90565b6104616107bd565b6001600160a01b0316336001600160a01b03161415610364576001600160a01b0381166104c257604051600160e51b62461bcd0281526004018080602001828103825260368152602001806108ea6036913960400191505060405180910390fd5b7f7e644d79422f17c01e4894b5f4f588d331ebfa28653d42ae832dc59e38c9798f6104eb6107bd565b604080516001600160a01b03928316815291841660208301528051918290030190a161035f81610822565b6000610520610774565b6001600160a01b03161461053357600080fd5b61053d83826105a6565b604080517f656970313936372e70726f78792e61646d696e00000000000000000000000000815290519081900360130190207fb53127684a568b3173ae13b9f8a6016e243e63b6e8ee1178d6a717850b5d61036000199091011461059d57fe5b61041782610822565b60006105b0610774565b6001600160a01b0316146105c357600080fd5b604080517f656970313936372e70726f78792e696d706c656d656e746174696f6e000000008152905190819003601c0190207f360894a13ba1a3210667c828492db98dca3e2076cc3735a920a3ca505d382bbc6000199091011461062357fe5b61062c82610846565b8051156106e2576000826001600160a01b0316826040518082805190602001908083835b6020831061066f5780518252601f199092019160209182019101610650565b6001836020036101000a038019825116818451168082178552505050505050905001915050600060405180830381855af49150503d80600081146106cf576040519150601f19603f3d011682016040523d82523d6000602084013e6106d4565b606091505b505090508061041757600080fd5b5050565b60006106f06107bd565b6001600160a01b0316336001600160a01b0316141561044e576104476107bd565b6107196107bd565b6001600160a01b0316336001600160a01b0316141561076c57604051600160e51b62461bcd0281526004018080602001828103825260328152602001806108b86032913960400191505060405180910390fd5b610333610333565b7f360894a13ba1a3210667c828492db98dca3e2076cc3735a920a3ca505d382bbc5490565b3660008037600080366000845af43d6000803e8080156107b8573d6000f35b3d6000fd5b7fb53127684a568b3173ae13b9f8a6016e243e63b6e8ee1178d6a717850b5d61035490565b6107eb81610846565b6040516001600160a01b038216907fbc7cd75a20ee27fd9adebab32041f755214dbc6bffa90cc0225b39da2e5c2d3b90600090a250565b7fb53127684a568b3173ae13b9f8a6016e243e63b6e8ee1178d6a717850b5d610355565b61084f816108b1565b61088d57604051600160e51b62461bcd02815260040180806020018281038252603b815260200180610920603b913960400191505060405180910390fd5b7f360894a13ba1a3210667c828492db98dca3e2076cc3735a920a3ca505d382bbc55565b3b15159056fe43616e6e6f742063616c6c2066616c6c6261636b2066756e6374696f6e2066726f6d207468652070726f78792061646d696e43616e6e6f74206368616e6765207468652061646d696e206f6620612070726f787920746f20746865207a65726f206164647265737343616e6e6f742073657420612070726f787920696d706c656d656e746174696f6e20746f2061206e6f6e2d636f6e74726163742061646472657373a165627a7a72305820acd86240912c703ba88ccefef3db77e88d3507353c7c194b0b27eed571ae96c900294f776e61626c653a206e6577206f776e657220697320746865207a65726f2061646472657373436f6e747261637420696e7374616e63652068617320616c7265616479206265656e20696e697469616c697a6564a165627a7a7230582095dc6ae8cff8a35bba7a84b5657836cc2d56ab504bb987c91530c952212bf31d0029608060405234801561001057600080fd5b50610986806100206000396000f3fe6080604052600436106100705760003560e01c80638f2839701161004e5780638f2839701461015e578063cf7a1d7714610191578063d1f5789414610250578063f851a4401461030657610070565b80633659cfe61461007a5780634f1ef286146100ad5780635c60da1b1461012d575b61007861031b565b005b34801561008657600080fd5b506100786004803603602081101561009d57600080fd5b50356001600160a01b0316610335565b610078600480360360408110156100c357600080fd5b6001600160a01b0382351691908101906040810160208201356401000000008111156100ee57600080fd5b82018360208201111561010057600080fd5b8035906020019184600183028401116401000000008311171561012257600080fd5b50909250905061036f565b34801561013957600080fd5b5061014261041c565b604080516001600160a01b039092168252519081900360200190f35b34801561016a57600080fd5b506100786004803603602081101561018157600080fd5b50356001600160a01b0316610459565b610078600480360360608110156101a757600080fd5b6001600160a01b0382358116926020810135909116918101906060810160408201356401000000008111156101db57600080fd5b8201836020820111156101ed57600080fd5b8035906020019184600183028401116401000000008311171561020f57600080fd5b91908080601f016020809104026020016040519081016040528093929190818152602001838380828437600092019190915250929550610516945050505050565b6100786004803603604081101561026657600080fd5b6001600160a01b03823516919081019060408101602082013564010000000081111561029157600080fd5b8201836020820111156102a357600080fd5b803590602001918460018302840111640100000000831117156102c557600080fd5b91908080601f0160208091040260200160405190810160405280939291908181526020018383808284376000920191909152509295506105a6945050505050565b34801561031257600080fd5b506101426106e6565b610323610711565b61033361032e610774565b610799565b565b61033d6107bd565b6001600160a01b0316336001600160a01b031614156103645761035f816107e2565b61036c565b61036c61031b565b50565b6103776107bd565b6001600160a01b0316336001600160a01b0316141561040f57610399836107e2565b6000836001600160a01b031683836040518083838082843760405192019450600093509091505080830381855af49150503d80600081146103f6576040519150601f19603f3d011682016040523d82523d6000602084013e6103fb565b606091505b505090508061040957600080fd5b50610417565b61041761031b565b505050565b60006104266107bd565b6001600160a01b0316336001600160a01b0316141561044e57610447610774565b9050610456565b61045661031b565b90565b6104616107bd565b6001600160a01b0316336001600160a01b03161415610364576001600160a01b0381166104c257604051600160e51b62461bcd0281526004018080602001828103825260368152602001806108ea6036913960400191505060405180910390fd5b7f7e644d79422f17c01e4894b5f4f588d331ebfa28653d42ae832dc59e38c9798f6104eb6107bd565b604080516001600160a01b03928316815291841660208301528051918290030190a161035f81610822565b6000610520610774565b6001600160a01b03161461053357600080fd5b61053d83826105a6565b604080517f656970313936372e70726f78792e61646d696e00000000000000000000000000815290519081900360130190207fb53127684a568b3173ae13b9f8a6016e243e63b6e8ee1178d6a717850b5d61036000199091011461059d57fe5b61041782610822565b60006105b0610774565b6001600160a01b0316146105c357600080fd5b604080517f656970313936372e70726f78792e696d706c656d656e746174696f6e000000008152905190819003601c0190207f360894a13ba1a3210667c828492db98dca3e2076cc3735a920a3ca505d382bbc6000199091011461062357fe5b61062c82610846565b8051156106e2576000826001600160a01b0316826040518082805190602001908083835b6020831061066f5780518252601f199092019160209182019101610650565b6001836020036101000a038019825116818451168082178552505050505050905001915050600060405180830381855af49150503d80600081146106cf576040519150601f19603f3d011682016040523d82523d6000602084013e6106d4565b606091505b505090508061041757600080fd5b5050565b60006106f06107bd565b6001600160a01b0316336001600160a01b0316141561044e576104476107bd565b6107196107bd565b6001600160a01b0316336001600160a01b0316141561076c57604051600160e51b62461bcd0281526004018080602001828103825260328152602001806108b86032913960400191505060405180910390fd5b610333610333565b7f360894a13ba1a3210667c828492db98dca3e2076cc3735a920a3ca505d382bbc5490565b3660008037600080366000845af43d6000803e8080156107b8573d6000f35b3d6000fd5b7fb53127684a568b3173ae13b9f8a6016e243e63b6e8ee1178d6a717850b5d61035490565b6107eb81610846565b6040516001600160a01b038216907fbc7cd75a20ee27fd9adebab32041f755214dbc6bffa90cc0225b39da2e5c2d3b90600090a250565b7fb53127684a568b3173ae13b9f8a6016e243e63b6e8ee1178d6a717850b5d610355565b61084f816108b1565b61088d57604051600160e51b62461bcd02815260040180806020018281038252603b815260200180610920603b913960400191505060405180910390fd5b7f360894a13ba1a3210667c828492db98dca3e2076cc3735a920a3ca505d382bbc55565b3b15159056fe43616e6e6f742063616c6c2066616c6c6261636b2066756e6374696f6e2066726f6d207468652070726f78792061646d696e43616e6e6f74206368616e6765207468652061646d696e206f6620612070726f787920746f20746865207a65726f206164647265737343616e6e6f742073657420612070726f787920696d706c656d656e746174696f6e20746f2061206e6f6e2d636f6e74726163742061646472657373a165627a7a72305820acd86240912c703ba88ccefef3db77e88d3507353c7c194b0b27eed571ae96c90029",
  "source": "// (c) Kallol Borah, 2020\r\n// Implementation of the Verified accounts factory\r\n\r\npragma solidity 0.5.7;\r\n\r\nimport \"../interfaces/VerifiedHolder.sol\";\r\nimport \"../interfaces/VerifiedLedger.sol\";\r\nimport \"../interfaces/VerifiedAccount.sol\";\r\nimport \"../interfaces/VerifiedClient.sol\";\r\nimport \"../interfaces/VerifiedSystem.sol\";\r\nimport \"../interfaces/ViaFactory.sol\";\r\nimport \"../utilities/StringUtils.sol\";\r\nimport \"@openzeppelin/upgrades/contracts/upgradeability/ProxyFactory.sol\";\r\nimport \"@openzeppelin/upgrades/contracts/Initializable.sol\";\r\nimport \"@openzeppelin/contracts-ethereum-package/contracts/ownership/Ownable.sol\";\r\n\r\ncontract System is VerifiedSystem, ProxyFactory, Initializable, Ownable {\r\n\r\n    using stringutils for *;\r\n\r\n    // first, a client creates an account holder representing an account statement\r\n    struct accountholder{\r\n        bytes32 holderName;\r\n        address accountHolder;\r\n    }\r\n\r\n    // mapping of account creator to account holder\r\n    mapping(address => address[]) private accountHolderList;\r\n\r\n    // mapping of account holder address to its info\r\n    mapping(address => accountholder) public accountholders;\r\n\r\n    // then, a ledger is created in an account statement (ie, for an account holder)\r\n    struct ledger{\r\n        bytes32 ledgerName;\r\n        bytes32 group;\r\n        address ledger;\r\n    }\r\n\r\n    // mapping of account holder to ledger\r\n    mapping(address => address[]) private ledgerList;\r\n\r\n    // mapping of ledger address to its info\r\n    mapping(address => ledger) public ledgers;\r\n\r\n    // then, an account is created in a ledger\r\n    struct account{\r\n        bytes32 accountName;\r\n        address account;\r\n        bytes32 currency;\r\n    }\r\n\r\n    // mapping of ledger to account\r\n    mapping(address => address[]) private accountList;\r\n\r\n    // mapping of an account address to its info\r\n    mapping(address => account) public accounts;\r\n\r\n    //notifying listeners\r\n    event HolderCreated(address indexed holder, bytes32 holderName, address accountCreator);\r\n    event LedgerCreated(address indexed ledger, bytes32 ledgerName, bytes32 group, address holder);\r\n    event AccountCreated(address indexed account, bytes32 accountName, address ledger);\r\n\r\n    //references to contract\r\n    VerifiedClient private clientRef;\r\n    VerifiedAccount private accountRef;\r\n    VerifiedHolder private holderRef;\r\n    VerifiedLedger private ledgerRef;\r\n    ViaFactory private via;\r\n\r\n    //addresses fo contracts\r\n    address accountAddress;\r\n    address holderAddress;\r\n    address ledgerAddress;\r\n\r\n    //owner is someone who can upgrade this contract\r\n    function initialize(address _ledger, address _account, address _holder, address _client, address _viaFactory) public initializer{\r\n        Ownable.initialize(msg.sender);\r\n        clientRef = VerifiedClient(_client);\r\n        accountRef = VerifiedAccount(_account);\r\n        holderRef = VerifiedHolder(_holder);\r\n        ledgerRef = VerifiedLedger(_ledger);\r\n        accountAddress = _account;\r\n        holderAddress = _holder;\r\n        ledgerAddress = _ledger;\r\n        via = ViaFactory(_viaFactory);\r\n        via.setClientAddress(_client);\r\n    }\r\n\r\n    // return last account holder created by account creator\r\n    function getAccountHolder(address accountCreator) external view returns(address){\r\n        //return accountholders[accountCreator].accountHolder;\r\n        address[] memory accountHolders = accountHolderList[accountCreator];\r\n        return accountHolders[accountHolders.length-1];\r\n    }\r\n\r\n    // return last account ledger created by account holder\r\n    function getAccountLedger(address accountHolder) external view returns(address){\r\n        //return ledgers[accountCreator][accountHolder].ledger;\r\n        address[] memory accountLedgers = ledgerList[accountHolder];\r\n        return accountLedgers[accountLedgers.length-1];\r\n    }\r\n\r\n    // return last account created by account ledger\r\n    function getLedgerAccount(address accountLedger) external view returns(address){\r\n        //return accounts[accountHolder][accountLedger].account;\r\n        address[] memory ledgerAccounts = accountList[accountLedger];\r\n        return ledgerAccounts[ledgerAccounts.length-1];\r\n    }\r\n\r\n    // return account holder addresses for account creator\r\n    function getAccountHolders(address accountCreator) external view returns(address[] memory){\r\n        return accountHolderList[accountCreator];\r\n    }\r\n\r\n    // return account ledger addresses for account holder\r\n    function getAccountLedgers(address accountHolder) external view returns(address[] memory){\r\n        return ledgerList[accountHolder];\r\n    }\r\n    \r\n    // return account addresses for account ledger\r\n    function getLedgerAccounts(address accountLedger) external view returns(address[] memory){\r\n        return accountList[accountLedger];\r\n    }\r\n\r\n    // return details of account holder\r\n    function getHolderDetails(address holder) external view returns(bytes32, address){\r\n        return (accountholders[holder].holderName, accountholders[holder].accountHolder);\r\n    }\r\n\r\n    // return details of ledger\r\n    function getLedgerDetails(address _ledger) external view returns(bytes32, bytes32){\r\n        return (ledgers[_ledger].ledgerName, ledgers[_ledger].group);\r\n    }\r\n\r\n    // return details of account\r\n    function getAccountDetails(address _account) external view returns(bytes32, bytes32){\r\n        return (accounts[_account].accountName, accounts[_account].currency);\r\n    }\r\n\r\n    // confirm if an account holder exists or not\r\n    function confirmAccountHolder(address _accountHolder) external view returns(bool){\r\n        if(accountholders[_accountHolder].accountHolder!=address(0x0))\r\n            return true;\r\n        else\r\n            return false;\r\n    }\r\n    \r\n    //account holders can be created by message senders who are KYC verified clients\r\n    //_holderName is the name of the account holder\r\n    //_accountHolder is the client's counter party for which the account is created in books\r\n    function createHolder(bytes32 _holderName, address _accountHolder) external {\r\n        //only registered client can create account holder (client's counter party in client's books of account)\r\n        require(clientRef.isRegistered(msg.sender) || owner()==msg.sender);\r\n\r\n        address _holder = address(0x0);\r\n        bool isCreated = false;\r\n        for(uint i=0; i<accountHolderList[msg.sender].length; i++){\r\n            if(accountholders[accountHolderList[msg.sender][i]].holderName==_holderName && accountholders[accountHolderList[msg.sender][i]].accountHolder==_accountHolder){\r\n                isCreated = true;\r\n                _holder = accountHolderList[msg.sender][i];                 \r\n            }\r\n            if(isCreated && i<(accountHolderList[msg.sender].length-1))\r\n                accountHolderList[msg.sender][i] = accountHolderList[msg.sender][i+1];\r\n        }\r\n\r\n        if(!isCreated){\r\n            bytes memory _payload = abi.encodeWithSignature(\"initialize(bytes32,address,address,address)\", _holderName, msg.sender, address(this), _accountHolder);\r\n\r\n            //create account holder\r\n            _holder = deployMinimal(holderAddress, _payload);\r\n            emit HolderCreated(_holder, _holderName, _accountHolder);\r\n            \r\n            //map client to account holder\r\n            accountholders[_holder] = accountholder(_holderName, _accountHolder);\r\n            accountHolderList[msg.sender].push(_holder); \r\n        }\r\n        else{\r\n            accountHolderList[msg.sender].pop();\r\n            accountHolderList[msg.sender].push(_holder);\r\n        }\r\n    }\r\n\r\n    //ledger account factory with ledgers created by account holders (msg.sender to this function)\r\n    function createLedger(bytes32 _ledgerName, bytes32 _ledgerGroup, address _accountCreator, address _accountHolder) external {\r\n        //only account holders can request ledger creation\r\n        require(accountholders[msg.sender].accountHolder==_accountHolder);\r\n\r\n        address _ledger = address(0x0);\r\n        bool isCreated = false;\r\n        for(uint i=0; i<ledgerList[msg.sender].length; i++){\r\n            if(ledgers[ledgerList[msg.sender][i]].ledgerName==_ledgerName && ledgers[ledgerList[msg.sender][i]].group==_ledgerGroup){\r\n                isCreated = true;\r\n                _ledger = ledgerList[msg.sender][i];                \r\n            }\r\n            if(isCreated && i<(ledgerList[msg.sender].length-1))\r\n                ledgerList[msg.sender][i] = ledgerList[msg.sender][i+1];\r\n        }\r\n\r\n        if(!isCreated){\r\n\r\n            // invoker of this function is the owner of the ledger that gets created\r\n            bytes memory _payload = abi.encodeWithSignature(\"initialize(bytes32,bytes32,address,address,address,address)\", _ledgerName, _ledgerGroup, msg.sender, address(this), _accountCreator, _accountHolder);\r\n\r\n            //create ledger\r\n            _ledger = deployMinimal(ledgerAddress, _payload);\r\n            emit LedgerCreated(_ledger, _ledgerName, _ledgerGroup, msg.sender);\r\n\r\n            //map account holder to ledger\r\n            ledgers[_ledger] = ledger(_ledgerName, _ledgerGroup, _ledger);\r\n            ledgerList[msg.sender].push(_ledger);\r\n        }\r\n        else{\r\n            ledgerList[msg.sender].pop();\r\n            ledgerList[msg.sender].push(_ledger);\r\n        }        \r\n        \r\n    }\r\n\r\n    //account factory with accounts created in ledgers, and created by account holders\r\n    function createAccount(bytes32 _accountName, bytes32 _currency, address _accountCreator, address _accountHolder) external {\r\n        //only ledger accounts with registered account holders can request account creation\r\n        require(ledgers[msg.sender].ledger==msg.sender);\r\n\r\n        address _account = address(0x0);\r\n        bool isCreated = false;\r\n        for(uint i=0; i<accountList[msg.sender].length; i++){\r\n            if(accounts[accountList[msg.sender][i]].accountName==_accountName && accounts[accountList[msg.sender][i]].currency==_currency){\r\n                isCreated = true;\r\n                _account = accountList[msg.sender][i];                \r\n            }\r\n            if(isCreated && i<(accountList[msg.sender].length-1))\r\n                accountList[msg.sender][i] = accountList[msg.sender][i+1];\r\n        }\r\n\r\n        if(!isCreated){\r\n\r\n            bool isAllowed = false;\r\n\r\n            if(via.getTokenByNameType(_currency, \"ViaCash\")!=address(0x0)){\r\n                isAllowed = true;\r\n            }\r\n            else if(via.getTokenByNameType(string(abi.encodePacked(\"VX\", _currency)).stringToBytes32(), \"ViaCash\")!=address(0x0)){\r\n                isAllowed = true;\r\n            }\r\n            else if(_currency==\"ether\"){\r\n                isAllowed = true;\r\n            }\r\n\r\n            if(isAllowed){\r\n                bytes memory _payload = abi.encodeWithSignature(\"initialize(bytes32,address,address,address,address,bytes32)\", _accountName, msg.sender, address(this), _accountCreator, _accountHolder, _currency);\r\n\r\n                // Create account\r\n                _account = deployMinimal(accountAddress, _payload);\r\n                emit AccountCreated(_account, _accountName, msg.sender);\r\n\r\n                //map accountholder + ledger to account\r\n                accounts[_account] = account(_accountName, _account, _currency);\r\n\r\n                accountList[msg.sender].push(_account);\r\n            }\r\n        }\r\n        else{\r\n            accountList[msg.sender].pop();\r\n            accountList[msg.sender].push(_account);\r\n        }\r\n    }\r\n    \r\n}\r\n\r\n\r\n\r\n\r\n\r\n\r\n",
  "sourcePath": "D:\\Code\\verified-accounts\\contracts\\accounting\\System.sol",
  "compiler": {
    "name": "solc",
    "version": "0.5.7+commit.6da8b019.Emscripten.clang"
  },
  "schemaVersion": "3.4.3",
  "updatedAt": "2022-01-20T19:06:46.234Z",
  "networkType": "ethereum",
  "devdoc": {
    "methods": {
      "initialize(address)": {
        "details": "Initializes the contract setting the deployer as the initial owner."
      },
      "isOwner()": {
        "details": "Returns true if the caller is the current owner."
      },
      "owner()": {
        "details": "Returns the address of the current owner."
      },
      "renounceOwnership()": {
        "details": "Leaves the contract without owner. It will not be possible to call `onlyOwner` functions anymore. Can only be called by the current owner.     * > Note: Renouncing ownership will leave the contract without an owner, thereby removing any functionality that is only available to the owner."
      },
      "transferOwnership(address)": {
        "details": "Transfers ownership of the contract to a new account (`newOwner`). Can only be called by the current owner."
      }
    }
  },
  "userdoc": {
    "methods": {}
  }
}