{
    "abi": [
        {
            "inputs": [
                {
                    "internalType": "contract Comet",
                    "name": "comet_",
                    "type": "address"
                }
            ],
            "stateMutability": "payable",
            "type": "constructor"
        },
        {
            "anonymous": false,
            "inputs": [
                {
                    "indexed": true,
                    "internalType": "address",
                    "name": "borrower",
                    "type": "address"
                },
                {
                    "indexed": true,
                    "internalType": "address",
                    "name": "base",
                    "type": "address"
                },
                {
                    "indexed": false,
                    "internalType": "uint256",
                    "name": "amount",
                    "type": "uint256"
                }
            ],
            "name": "Borrowed",
            "type": "event"
        },
        {
            "anonymous": false,
            "inputs": [
                {
                    "indexed": true,
                    "internalType": "address",
                    "name": "issuer",
                    "type": "address"
                },
                {
                    "indexed": true,
                    "internalType": "address",
                    "name": "asset",
                    "type": "address"
                },
                {
                    "indexed": false,
                    "internalType": "address",
                    "name": "bond",
                    "type": "address"
                },
                {
                    "indexed": false,
                    "internalType": "uint256",
                    "name": "apy",
                    "type": "uint256"
                },
                {
                    "indexed": false,
                    "internalType": "string",
                    "name": "issuingDocs",
                    "type": "string"
                },
                {
                    "indexed": false,
                    "internalType": "uint256",
                    "name": "faceValue",
                    "type": "uint256"
                }
            ],
            "name": "NewRWA",
            "type": "event"
        },
        {
            "anonymous": false,
            "inputs": [
                {
                    "indexed": true,
                    "internalType": "address",
                    "name": "issuer",
                    "type": "address"
                },
                {
                    "indexed": true,
                    "internalType": "address",
                    "name": "asset",
                    "type": "address"
                },
                {
                    "indexed": false,
                    "internalType": "address",
                    "name": "collateral",
                    "type": "address"
                },
                {
                    "indexed": false,
                    "internalType": "uint256",
                    "name": "amount",
                    "type": "uint256"
                }
            ],
            "name": "PostedCollateral",
            "type": "event"
        },
        {
            "anonymous": false,
            "inputs": [
                {
                    "indexed": true,
                    "internalType": "address",
                    "name": "borrower",
                    "type": "address"
                },
                {
                    "indexed": true,
                    "internalType": "address",
                    "name": "base",
                    "type": "address"
                },
                {
                    "indexed": false,
                    "internalType": "uint256",
                    "name": "amount",
                    "type": "uint256"
                }
            ],
            "name": "Repaid",
            "type": "event"
        },
        {
            "inputs": [
                {
                    "internalType": "address",
                    "name": "base",
                    "type": "address"
                },
                {
                    "internalType": "uint256",
                    "name": "amount",
                    "type": "uint256"
                }
            ],
            "name": "borrowBase",
            "outputs": [],
            "stateMutability": "nonpayable",
            "type": "function"
        },
        {
            "inputs": [],
            "name": "comet",
            "outputs": [
                {
                    "internalType": "contract Comet",
                    "name": "",
                    "type": "address"
                }
            ],
            "stateMutability": "view",
            "type": "function"
        },
        {
            "inputs": [
                {
                    "internalType": "address",
                    "name": "asset",
                    "type": "address"
                },
                {
                    "internalType": "address",
                    "name": "collateral",
                    "type": "address"
                },
                {
                    "internalType": "uint256",
                    "name": "amount",
                    "type": "uint256"
                }
            ],
            "name": "postCollateral",
            "outputs": [],
            "stateMutability": "nonpayable",
            "type": "function"
        },
        {
            "inputs": [
                {
                    "internalType": "address",
                    "name": "base",
                    "type": "address"
                },
                {
                    "internalType": "uint256",
                    "name": "amount",
                    "type": "uint256"
                }
            ],
            "name": "repayBase",
            "outputs": [],
            "stateMutability": "nonpayable",
            "type": "function"
        },
        {
            "inputs": [
                {
                    "internalType": "address",
                    "name": "asset",
                    "type": "address"
                },
                {
                    "internalType": "address",
                    "name": "bond",
                    "type": "address"
                },
                {
                    "internalType": "uint256",
                    "name": "apy",
                    "type": "uint256"
                },
                {
                    "internalType": "string",
                    "name": "issuingDocs",
                    "type": "string"
                },
                {
                    "internalType": "uint256",
                    "name": "faceValue",
                    "type": "uint256"
                }
            ],
            "name": "submitNewRWA",
            "outputs": [],
            "stateMutability": "nonpayable",
            "type": "function"
        }
    ],
    "bytecode": {
        "object": "0x60a060405260405161120338038061120383398101604081905261002291610033565b6001600160a01b0316608052610063565b60006020828403121561004557600080fd5b81516001600160a01b038116811461005c57600080fd5b9392505050565b6080516111556100ae6000396000818160af015281816104bf0152818161053f01528181610611015281816106ca01528181610769015281816108540152610a7701526111556000f3fe608060405234801561001057600080fd5b50600436106100575760003560e01c8063100bf6eb1461005c5780632511e8a01461007157806359a8ab5814610084578063a4bcec5914610097578063ba3e9c12146100aa575b600080fd5b61006f61006a366004610c90565b6100ed565b005b61006f61007f366004610d5c565b6103b6565b61006f610092366004610d5c565b6106b5565b61006f6100a5366004610d88565b61094a565b6100d17f000000000000000000000000000000000000000000000000000000000000000081565b6040516001600160a01b03909116815260200160405180910390f35b6001600160a01b0385161580159061010d57506001600160a01b03841615155b80156101195750600083115b80156101255750600081115b6101765760405162461bcd60e51b815260206004820181905260248201527f525741207375626d697373696f6e203a20496e76616c6964207265717565737460448201526064015b60405180910390fd5b336001600160a01b0316846001600160a01b031663525564216040518163ffffffff1660e01b8152600401602060405180830381865afa1580156101be573d6000803e3d6000fd5b505050506040513d601f19601f820116820180604052508101906101e29190610dd9565b6001600160a01b0316146102385760405162461bcd60e51b815260206004820152601f60248201527f525741207375626d697373696f6e203a20496e76616c69642069737375657200604482015260640161016d565b336000908152602081815260408083206001600160a01b03898116855292529091205416156102ea57604080516080810182526001600160a01b0386811682526020808301878152838501878152606085018790523360009081528084528681208c8616825290935294909120835181546001600160a01b031916931692909217825551600182015591519091829160028201906102d69082610e86565b50606082015181600301559050505061035e565b336000908152602081815260408083206001600160a01b038981168552925290912080546001600160a01b031916918616919091178155600181018490556002016103358382610e86565b50336000908152602081815260408083206001600160a01b038916845290915290206003018190555b846001600160a01b0316336001600160a01b03167f7c0346ec0308e754879b9eb61355f12e6d4469883179fb5774ad1c3d9a7313d0868686866040516103a79493929190610f46565b60405180910390a35050505050565b6001600160a01b038216158015906103ce5750600181115b61041a5760405162461bcd60e51b815260206004820152601760248201527f5265706179696e672062617365203a20496e76616c6964000000000000000000604482015260640161016d565b60405163095ea7b360e01b8152336004820152602481018290526001600160a01b0383169063095ea7b3906044016020604051808303816000875af1158015610467573d6000803e3d6000fd5b505050506040513d601f19601f8201168201806040525081019061048b9190610fb2565b50604051639032317760e01b81523360048201526001600160a01b03838116602483018190526044830152606482018390527f00000000000000000000000000000000000000000000000000000000000000001690639032317790608401600060405180830381600087803b15801561050357600080fd5b505af1158015610517573d6000803e3d6000fd5b5050604051631d9df61760e11b81526001600160a01b038581166004830152600093508492507f00000000000000000000000000000000000000000000000000000000000000001690633b3bec2e9060240161010060405180830381865afa158015610587573d6000803e3d6000fd5b505050506040513d601f19601f820116820180604052508101906105ab919061100c565b6080015167ffffffffffffffff166105c391906110ce565b3360008181526001602090815260408083206001600160a01b0389811685529252918290205491516361d9ad3f60e11b815260048101939093529081166024830152604482018390529192507f00000000000000000000000000000000000000000000000000000000000000009091169063c3b35a7e90606401600060405180830381600087803b15801561065757600080fd5b505af115801561066b573d6000803e3d6000fd5b50506040518481526001600160a01b03861692503391507f0a3fbbea70e93f2daafa3102f5c9a1b8315e6d7a1e43e4bc020bc1162327470a906020015b60405180910390a3505050565b6001600160a01b0382161580159061074d57507f00000000000000000000000000000000000000000000000000000000000000006001600160a01b031663300e6beb6040518163ffffffff1660e01b8152600401602060405180830381865afa158015610726573d6000803e3d6000fd5b505050506040513d601f19601f8201168201806040525081019061074a91906110ed565b81115b80156107dc57506040516338aa813f60e01b81523360048201527f00000000000000000000000000000000000000000000000000000000000000006001600160a01b0316906338aa813f90602401602060405180830381865afa1580156107b8573d6000803e3d6000fd5b505050506040513d601f19601f820116820180604052508101906107dc9190610fb2565b6108285760405162461bcd60e51b815260206004820152601860248201527f426f72726f77696e672062617365203a20496e76616c69640000000000000000604482015260640161016d565b6040516361d9ad3f60e11b81523360048201526001600160a01b038381166024830152604482018390527f0000000000000000000000000000000000000000000000000000000000000000169063c3b35a7e90606401600060405180830381600087803b15801561089857600080fd5b505af11580156108ac573d6000803e3d6000fd5b50503360009081526001602090815260408083206001600160a01b03881684529091529020600201546108e29250839150611106565b3360008181526001602090815260408083206001600160a01b03881680855292529182902060020193909355517f3fc499aeb0bb1cb58b6de8b02b3f86f4e7394e9690bef0110e32ced8a56310459061093e9085815260200190565b60405180910390a35050565b6001600160a01b0383161580159061096a57506001600160a01b03821615155b80156109765750600081115b6109d15760405162461bcd60e51b815260206004820152602660248201527f436f6d657420436f6c6c61746572616c2070726f766973696f6e696e673a20496044820152651b9d985b1a5960d21b606482015260840161016d565b60405163095ea7b360e01b8152336004820152602481018290526001600160a01b0384169063095ea7b3906044016020604051808303816000875af1158015610a1e573d6000803e3d6000fd5b505050506040513d601f19601f82011682018060405250810190610a429190610fb2565b50604051639032317760e01b81523360048201526001600160a01b0384811660248301528381166044830152606482018390527f00000000000000000000000000000000000000000000000000000000000000001690639032317790608401600060405180830381600087803b158015610abb57600080fd5b505af1158015610acf573d6000803e3d6000fd5b50503360009081526001602090815260408083206001600160a01b0389811685529252909120548116908516149150610b6a905057604080516060810182526001600160a01b0384811682526020808301858152600084860181815233825260018085528783208b87168452909452959020935184546001600160a01b03191693169290921783559051908201559051600290910155610bc2565b3360009081526001602081815260408084206001600160a01b03881685529091529091200154610b9b908290611106565b3360009081526001602081815260408084206001600160a01b038916855290915290912001555b604080516001600160a01b0384811682526020820184905285169133917f6d9c01d2a1bfe391d97dad0c8485ad9eb8603cf2404ea70f733fe47b186a0f5191016106a8565b6001600160a01b0381168114610c1c57600080fd5b50565b634e487b7160e01b600052604160045260246000fd5b604051610100810167ffffffffffffffff81118282101715610c5957610c59610c1f565b60405290565b604051601f8201601f1916810167ffffffffffffffff81118282101715610c8857610c88610c1f565b604052919050565b600080600080600060a08688031215610ca857600080fd5b8535610cb381610c07565b9450602086810135610cc481610c07565b945060408701359350606087013567ffffffffffffffff80821115610ce857600080fd5b818901915089601f830112610cfc57600080fd5b813581811115610d0e57610d0e610c1f565b610d20601f8201601f19168501610c5f565b91508082528a84828501011115610d3657600080fd5b808484018584013760009082019093019290925250949793965091946080013592915050565b60008060408385031215610d6f57600080fd5b8235610d7a81610c07565b946020939093013593505050565b600080600060608486031215610d9d57600080fd5b8335610da881610c07565b92506020840135610db881610c07565b929592945050506040919091013590565b8051610dd481610c07565b919050565b600060208284031215610deb57600080fd5b8151610df681610c07565b9392505050565b600181811c90821680610e1157607f821691505b602082108103610e3157634e487b7160e01b600052602260045260246000fd5b50919050565b601f821115610e8157600081815260208120601f850160051c81016020861015610e5e5750805b601f850160051c820191505b81811015610e7d57828155600101610e6a565b5050505b505050565b815167ffffffffffffffff811115610ea057610ea0610c1f565b610eb481610eae8454610dfd565b84610e37565b602080601f831160018114610ee95760008415610ed15750858301515b600019600386901b1c1916600185901b178555610e7d565b600085815260208120601f198616915b82811015610f1857888601518255948401946001909101908401610ef9565b5085821015610f365787850151600019600388901b60f8161c191681555b5050505050600190811b01905550565b60018060a01b038516815260006020858184015260806040840152845180608085015260005b81811015610f885786810183015185820160a001528201610f6c565b50600060a0828601015260a0601f19601f8301168501019250505082606083015295945050505050565b600060208284031215610fc457600080fd5b81518015158114610df657600080fd5b805167ffffffffffffffff81168114610dd457600080fd5b80516fffffffffffffffffffffffffffffffff81168114610dd457600080fd5b6000610100828403121561101f57600080fd5b611027610c35565b825160ff8116811461103857600080fd5b815261104660208401610dc9565b602082015261105760408401610dc9565b604082015261106860608401610fd4565b606082015261107960808401610fd4565b608082015261108a60a08401610fd4565b60a082015261109b60c08401610fd4565b60c08201526110ac60e08401610fec565b60e08201529392505050565b634e487b7160e01b600052601160045260246000fd5b60008160001904831182151516156110e8576110e86110b8565b500290565b6000602082840312156110ff57600080fd5b5051919050565b80820180821115611119576111196110b8565b9291505056fea2646970667358221220fbbf2fdfb8eef1e8592f6a0022254cbfc1eddad780a134653a5a0d91a6f87b3264736f6c63430008100033",
        "linkReferences": {}
    },
    "methodIdentifiers": {
        "borrowBase(address,uint256)": "59a8ab58",
        "comet()": "ba3e9c12",
        "postCollateral(address,address,uint256)": "a4bcec59",
        "repayBase(address,uint256)": "2511e8a0",
        "submitNewRWA(address,address,uint256,string,uint256)": "100bf6eb"
    },
    "id": 8
}